
Source Code


000002:                                                                                                  ## Copyright:   Public domain.
000003:                                                                                                  ## Filename:    T4RUPT_PROGRAM.agc
000004:                                                                                                  ## Purpose:     An interrupt service routine for Luminary 1C, revision 131.
000005:                                                                                                  ##              It is part of the source code for the Lunar Module's (LM)
000006:                                                                                                  ##              Apollo Guidance Computer (AGC) for Apollo 13.
000007:                                                                                                  ##              This file is intended to be a faithful transcription, except
000008:                                                                                                  ##              that the code format has been changed to conform to the
000009:                                                                                                  ##              requirements of the yaYUL assembler rather than the
000010:                                                                                                  ##              original YUL assembler.
000011:                                                                                                  ## Reference:   pp. 157-191
000012:                                                                                                  ## Contact:     Ron Burkey <info@sandroid.org>.
000013:                                                                                                  ## Website:     www.ibiblio.org/apollo/index.html
000014:                                                                                                  ## Mod history: 04/11/03 RSB.   Began transcribing.
000015:                                                                                                  ##              05/05/03 RSB.   Draft finished.
000016:                                                                                                  ##              05/14/05 RSB    Corrected website reference above
000017:                                                                                                  ##              2010-10-25 JL   Indentation fixes. Added missing p190 comment.
000018:                                                                                                  ##              2017-01-06 RSB  Page numbers now agree with those on the
000019:                                                                                                  ##                              original harcopy, as opposed to the PDF page
000020:                                                                                                  ##                              numbers in 1701.pdf.
000021:                                                                                                  ##              2017-01-26 RSB  Back-ported comment-text fixes found while
000022:                                                                                                  ##                              proofing corresponding Luminary 69 file.
000023:                                                                                                  ##              2017-01-28 RSB  WTIH -> WITH.
000024:


000026: 12,2000                                           BANK     12
000027: 06,2000                                           SETLOC   T4RUP
000028: 06,2000                                           BANK
000029:
000030: 06,2000  E6,1414                                  EBANK=   M11
000031: 06,2000                                           COUNT*   $$/T4RPT
000032: 06,2000           54016        T4RUPT             TS       BANKRUPT
000033:
000034: 06,2001           00006                           EXTEND
000035: 06,2002           22012                           QXCH     QRUPT
000036:
000037: 06,2003           11310                           CCS      DSRUPTSW                              #  GOES 7(-1)0 AROUND AND AR
000038: 06,2004           12010                           TCF      NORMT4     +1
000039: 06,2005           12007                           TCF      NORMT4
000040:
000041: 06,2006           12134                           TCF      QUIKDSP
000042:
000043: 06,2007           34757        NORMT4             CAF      SEVEN
000044: 06,2010           54070                           TS       RUPTREG1
000045: 06,2011           55310                           TS       DSRUPTSW
000046:
000047:    4066                                           BLOCK    02
000048:    4000                                           SETLOC   FFTAG10
000049:    4000                                           BANK
000050:
000051:    4066                                           COUNT*   $$/T4RPT
000052:    4066     7732               100MRUPT           =        OCT37766                              #  (DEC 16374)
000053:
000054:                                                                                                  #  RELTAB IS A PACKED TABLE. RELAYWORD CODE IN UPPER 4 BITS, RELAY CODE
000055:                                                                                                  #  IN LOWER 5 BITS.
000056:    4066           04025        RELTAB             OCT      04025
000057:    4067           10003                           OCT      10003
000058:    4070           14031                           OCT      14031
000059:    4071           20033                           OCT      20033
000060:    4072           24017                           OCT      24017
000061:    4073           30036                           OCT      30036
000062:    4074           34034                           OCT      34034
000063:    4075           40023                           OCT      40023
000064:    4076           44035                           OCT      44035
000065:    4077           50037                           OCT      50037
000066:    4100           54000                           OCT      54000
000067:    4101           60000        RELTAB11           OCT      60000
000068:


000070:                                                                                                  #  SWITCHED-BANK PORTION
000071:
000072: 12,2000                                           BANK     12
000073: 06,2000                                           SETLOC   T4RUP
000074: 06,2000                                           BANK
000075:
000076: 06,2012                                           COUNT*   $$/T4RPT
000077: 06,2012           11035        CDRVE              CCS      DSPTAB     +11D
000078: 06,2013           02063                           TC       DSPOUT
000079: 06,2014           02063                           TC       DSPOUT
000080:
000081: 06,2015           57035                           XCH      DSPTAB     +11D
000082: 06,2016           74356                           MASK     LOW11
000083: 06,2017           55035                           TS       DSPTAB     +11D
000084: 06,2020           64101                           AD       RELTAB11
000085: 06,2021           00006                           EXTEND
000086: 06,2022           01010                           WRITE    OUT0
000087: 06,2023           02071                           TC       HANG20
000088:


000090:                                                                                                  #  DSPOUT PROGRAM, PUTS OUT DISPLAYS
000091:
000092: 06,2024           55015        DSPOUTSB           TS       NOUT
000093: 06,2025           44755                           CS       ZERO
000094: 06,2026           54073                           TS       DSRUPTEM                              #  SET TO -0 FOR 1ST PASS THRU OSPTAB
000095: 06,2027           56775                           XCH      DSPCNT
000096: 06,2030           64754                           AD       NEG0                                  #  TO PREVENT +0
000097: 06,2031           54775                           TS       DSPCNT
000098: 06,2032           50775        DSPSCAN            INDEX    DSPCNT
000099: 06,2033           11022                           CCS      DSPTAB
000100: 06,2034           10775                           CCS      DSPCNT                                #  IF DSPTAB ENTRY +, SKIP
000101: 06,2035           12030                           TCF      DSPSCAN    -2                         #  IF DSPCNT +, TRY AGAIN
000102: 06,2036           12047                           TCF      DSPLAY                                #  IF DSPTAB ENTRY -, DISPLAY
000103: 06,2037           00012        TABLNTH            OCT      12                                    #  DEC 10, LENGTH OF DSPTAB
000104: 06,2040           10073                           CCS      DSRUPTEM                              #  IF DSRUPTEM=+0, 2ND PASS THRU DSPTAB
000105: 06,2041           37764        120MRUPT           DEC      16372      B-14                       #  (DSPCNT = 0).  +0 INTO NOUT.
000106: 06,2042           55015                           TS       NOUT
000107: 06,2043           00002                           TC       Q
000108: 06,2044           54073                           TS       DSRUPTEM                              #  IF DSRUPTEM=-0, 1ST PASS THRU DSPTAB
000109: 06,2045           32037                           CAF      TABLNTH                               #  (DSPCNT=0).+0 INTO DSRUPTEM. PASS AGAIN
000110: 06,2046           12031                           TCF      DSPSCAN    -1
000111:
000112: 06,2047           64753        DSPLAY             AD       ONE
000113: 06,2050           50775                           INDEX    DSPCNT
000114: 06,2051           55022                           TS       DSPTAB                                #  REPLACE POSITIVELY
000115: 06,2052           74356                           MASK     LOW11                                 #  REMOVE BITS 12 TO 15
000116: 06,2053           54073                           TS       DSRUPTEM
000117: 06,2054           34350                           CAF      HI5
000118: 06,2055           50775                           INDEX    DSPCNT
000119: 06,2056           74066                           MASK     RELTAB                                #  PICK UP BITS 12 TO 15 OF RELTAB ENTRY
000120: 06,2057           60073                           AD       DSRUPTEM
000121: 06,2060           00006                           EXTEND
000122: 06,2061           01010                           WRITE    OUT0
000123:
000124: 06,2062           16742                           TCF      Q+1
000125:
000126: 06,2063           10101        DSPOUT             CCS      FLAGWRD5                              #  IS DSKY FLAG ON
000127: 06,2064           34755                           CAF      ZERO                                  #  NO
000128: 06,2065           12130                           TCF      NODSPOUT                              #  NO
000129: 06,2066           11015                           CCS      NOUT                                  #  YES
000130: 06,2067           02024                           TC       DSPOUTSB
000131: 06,2070           12130                           TCF      NODSPOUT                              #  NO DISPLAY REQUESTS
000132:
000133: 06,2071           42171        HANG20             CS       14,11,9
000134: 06,2072           27310                           ADS      DSRUPTSW
000135:
000136: 06,2073           37734                           CAF      20MRUPT
000137:
000138: 06,2074           54027        SETTIME4           TS       TIME4
000139:


000141:                                                                                                  #  THE STATUS OF THE PROCEED PUSHBUTTON IS MONITORED EVERY 120 MILLISECONDS VIA
000142:                                                                                                  #  THE CHANNEL 32 BIT 14 INBIT.  THE STATE OF THIS INBIT IS COMPARED WITH ITS
000143:                                                                                                  #  STATE DURING THE PREVIOUS T4RUPT AND IS PROCESSED AS FOLLOWS.
000144:                                                                                                  #        IF PREV ON AND NOW ON   -- BYPASS.
000145:                                                                                                  #        IF PREV ON AND NOW OFF  -- UPDATE IMODES33.
000146:                                                                                                  #        IF PREV OFF AND NOW ON  -- UPDATE IMODES33 AND PROCESS VIA PINBALL.
000147:                                                                                                  #        IF PREV OFF AND NOW OFF -- BYPASS.
000148:                                                                                                  #  THE LOGIC EMPLOYED REQUIRES ONLY 9 MCT (APPROX. 108 MICROSECONDS)
000149:                                                                                                  #  OF COMPUTER TIME WHEN NO CHANGES OCCUR.
000150:
000151: 06,2075           31300        PROCEEDE           CA       IMODES33                              #  MONITOR FOR PROCEED BUTTON
000152: 06,2076           00006                           EXTEND
000153: 06,2077           06032                           RXOR     CHAN32
000154: 06,2100           74736                           MASK     BIT14
000155: 06,2101           00006                           EXTEND
000156: 06,2102           12116                           BZF      T4JUMP                                #  NO CHANGE
000157:
000158: 06,2103           23300                           LXCH     IMODES33
000159: 06,2104           00006                           EXTEND
000160: 06,2105           06001                           RXOR     LCHAN
000161: 06,2106           55300                           TS       IMODES33
000162: 06,2107           74736                           MASK     BIT14
000163: 06,2110           10000                           CCS      A
000164: 06,2111           12116                           TCF      T4JUMP                                #  WAS ON -- NOW OFF
000165:
000166: 06,2112           34355                           CAF      CHRPRIO                               #  WAS OFF -- NOW ON
000167: 06,2113           05072                           TC       NOVAC
000168: 06,2114     0776                                  EBANK=   DSPCOUNT
000169: 06,2114           03506 60101                     2CADR    PROCKEY
000170:


000172:                                                                                                  #  JUMP TO APPROPRIATE ONCE-PER SECOND (0.96 SEC ACTUALLY) ACTIVITY
000173:
000174: 06,2116           50070        T4JUMP             INDEX    RUPTREG1
000175: 06,2117           12120                           TCF      +1
000176:
000177: 06,2120           03164                           TC       RCSMONIT
000178: 06,2121           13006                           TCF      RRAUTCHK
000179: 06,2122           12172                           TCF      IMUMON
000180: 06,2123           13140                           TCF      DAPT4S
000181: 06,2124           03164                           TC       RCSMONIT
000182: 06,2125           13006                           TCF      RRAUTCHK
000183: 06,2126           12172                           TCF      IMUMON
000184: 06,2127           13140                           TCF      DAPT4S
000185:
000186: 06,2130     7734               20MRUPT            =        OCT37776                              #  (DEC 16382)
000187:


000189:                                                                                                  #  ADDITIONAL ROUTINES FOR 20MS. KEYBOARD ACTIVITY
000190:
000191: 06,2130           00006        NODSPOUT           EXTEND
000192: 06,2131           01010                           WRITE    OUT0
000193:
000194: 06,2132           32041                           CAF      120MRUPT                              # SET FOR NEXT CCRIVE
000195: 06,2133           12074                           TCF      SETTIME4
000196:
000197: 06,2134           34736        QUIKDSP            CAF      BIT14
000198: 06,2135           71310                           MASK     DSRUPTSW
000199: 06,2136           00006                           EXTEND
000200: 06,2137           12165                           BZF      QUIKOFF                               #  WROTE LAST TIME, NOW TURN OFF RELAYS
000201:
000202: 06,2140           11015                           CCS      NOUT
000203: 06,2141           02024                           TC       DSPOUTSB
000204: 06,2142           12152                           TCF      NODSPY                                #  NOUT=0 OR BAD RETURN FROM DSPOUTSB
000205: 06,2143           44736                           CS       BIT14                                 #  GOOD RETURN (WE DISPLAYED SOMETHING)
000206: 06,2144           27310        QUIKRUPT           ADS      DSRUPTSW
000207:
000208: 06,2145           37734                           CAF      20MRUPT
000209: 06,2146           54027                           TS       TIME4
000210:
000211: 06,2147           34743                           CAF      BIT9
000212: 06,2150           27310                           ADS      DSRUPTSW
000213:
000214: 06,2151           05270                           TC       RESUME
000215:
000216: 06,2152           00006        NODSPY             EXTEND
000217: 06,2153           01010                           WRITE    OUT0
000218:
000219: 06,2154           37734        SYNCT4             CAF      20MRUPT
000220: 06,2155           26027                           ADS      TIME4
000221:
000222: 06,2156           34743                           CAF      BIT9
000223: 06,2157           27310                           ADS      DSRUPTSW
000224:
000225: 06,2160           11310                           CCS      DSRUPTSW
000226: 06,2161           05270                           TC       RESUME
000227: 06,2162           37737        OCT37737           OCT      37737
000228: 06,2163           02154                           TC       SYNCT4
000229: 06,2164           05270                           TC       RESUME
000230:
000231: 06,2165           00006        QUIKOFF            EXTEND
000232: 06,2166           01010                           WRITE    OUT0
000233: 06,2167           34736                           CAF      BIT14                                 #  RESET DSRUPTSW TO SEND DISPLAY NEXT PASS
000234: 06,2170           12144                           TCF      QUIKRUPT
000235:
000236: 06,2171           22400        14,11,9            OCT      22400
000237:


000239:                                                                                                  #  PROGRAM NAME:  IMUMON
000240:
000241:                                                                                                  #  FUNCTIONAL DESCRIPTION:  THIS PROGRAM IS ENTERED EVERY 480 MS.  IT DETECTS CHANGES OF THE IMU STATUS BITS IN
000242:                                                                                                  #  CHANNEL 30 AND CALLS THE APPROPRIATE SUBROUTINES.  THE BITS PROCESSED AND THEIR RELEVANT SUROUTINES ARE:
000243:
000244:                                                                                                  #        FUNCTION                BIT     SUBROUTINE CALLED
000245:                                                                                                  #        --------                ---     -----------------
000246:                                                                                                  #        TEMP IN LIMITS           15     TLIM
000247:                                                                                                  #        ISS TURN-ON REQUEST      14     ITURNON
000248:                                                                                                  #        IMU FAIL                 13     IMUFAIL (SETISSW)
000249:                                                                                                  #        IMU CDU FAIL             12     ICDUFAIL (SETISSW)
000250:                                                                                                  #        IMU CAGE                 11     IMUCAGE
000251:                                                                                                  #        IMU OPERATE               9     IMUOP
000252:
000253:                                                                                                  #  THE LAST SAMPLED STATE OF THESE BITS IS LEFT IN IMODES30.  ALSO, EACH SUBROUTINE CALLED FINDS THE NEW
000254:                                                                                                  #  VALUE OF THE BIT IN A, WITH Q SET TO THE PROPER RETURN LOCATION NXTIFAIL.
000255:
000256:                                                                                                  #  CALLING SEQUENCE:  T4RUPT EVERY 480 MILLISECONDS.
000257:
000258:                                                                                                  #  JOBS OR TASKS INITIATED:  NONE.
000259:
000260:                                                                                                  #  SUBROUTINES CALLED:  TLIM, TURNON, SETISSW, IMUCAGE, IMUOP.
000261:
000262:                                                                                                  #  ERASABELE INITIALIZATION:
000263:                                                                                                  #        FRESH START OR RESTART WITH NO GROUPS ACTIVE:  C((MODES30) = OCT 37411).
000264:                                                                                                  #        RESTART WITH ACTIVE GROUPS:     C(IMODES30) = (B(IMODES30)AND(OCT 00035)) PLUS OCT 37400.
000265:                                                                                                  #                                        THIS LEAVES IMU FAIL BITS INTACT.
000266:
000267:                                                                                                  #  ALARMS:  NONE.
000268:
000269:                                                                                                  #  EXIT:  TNONTEST.
000270:
000271:                                                                                                  #  OUTPUT:  UPDATED IMODES30 WITH CHANGES PROCESSED BY APPROPRIATE SUBROUTINE.
000272:
000273: 06,2172           31277        IMUMON             CA       IMODES30                              #  SEE IF THERE HAS BEEN A CHANGE IN THE
000274: 06,2173           00006                           EXTEND                                         #  RELEVANT BITS OF CHAN 30.
000275: 06,2174           06030                           RXOR     CHAN30
000276: 06,2175           72761                           MASK     30RDMSK
000277: 06,2176           00006                           EXTEND
000278: 06,2177           12227                           BZF      TNONTEST                              #  NO CHANGE IN STATUS
000279:
000280: 06,2200           54070                           TS       RUPTREG1                              #  SAVE BITS WHICH HAVE CHANGED.
000281: 06,2201           23277                           LXCH     IMODES30                              #  UPDATE IMODES30.
000282: 06,2202           00006                           EXTEND
000283: 06,2203           06001                           RXOR     LCHAN
000284: 06,2204           55277                           TS       IMODES30
000285:
000286: 06,2205           44753                           CS       ONE
000287: 06,2206           56070                           XCH      RUPTREG1
000288: 06,2207           00006                           EXTEND


000290: 06,2210           62514                           BZMF     TLIM                                  #  CHANGE IN IMU TEMP.
000291: 06,2211           12213                           TCF      NXTIFBIT                              #  BEGIN BIT SCAN.
000292:
000293: 06,2212           64753                 -1        AD       ONE                                   #  (RE-ENTERS HERE FROM NXTIFAIL.)
000294: 06,2213           24070        NXTIFBIT           INCR     RUPTREG1                              #  ADVANCE BIT POSITION NUMBER.
000295: 06,2214           60000                 +1        DOUBLE
000296: 06,2215           54000                           TS       A                                     #  SKIP IF OVERFLOW.
000297: 06,2216           12213                           TCF      NXTIFBIT                              #  LOOK FOR BIT.
000298:
000299: 06,2217           56071                           XCH      RUPTREG2                              #  SAVE OVERFLOW-CORRECTED DATA.
000300: 06,2220           50070                           INDEX    RUPTREG1                              #  SELECT NEW VALUE OF THIS BIT.
000301: 06,2221           34736                           CAF      BIT14
000302: 06,2222           71277                           MASK     IMODES30
000303: 06,2223           50070                           INDEX    RUPTREG1
000304: 06,2224           02755                           TC       IFAILJMP
000305:
000306: 06,2225           10071        NXTIFAIL           CCS      RUPTREG2                              #  PROCESS ANY ADDITIONAL CHANGES.
000307: 06,2226           12212                           TCF      NXTIFBIT   -1
000308:


000310:                                                                                                  #  PROGRAM NAME:  TNONTEST.
000311:
000312:                                                                                                  #  FUNCTIONAL DESCRIPTION:  THIS PROGRAM HONORS REQUESTS FOR ISS INITIALIZATION.  ISS TURN-ON (CHANNEL 30 BIT 14)
000313:                                                                                                  #  AND ISS OPERATE (CHANNEL 30 BIT 9) REQUESTS ARE TREATED AS A PAIR AND PROCESSING TAKES PLACE .480 SECONDS
000314:                                                                                                  #  AFTER EITHER ONE APPEARS.  THIS INITIALIZATION TAKES ON ONE OF THE FOLLOWING THREE FORMS:
000315:
000316:                                                                                                  #        1) ISS TURN-ON:  IN THIS SITUATION THE COMPUTER IS OPERATING WHEN THE ISS IS TURNED ON.  NOMINALLY,
000317:                                                                                                  #        BOTH ISS TURN-ON AND ISS OPERATE APPEAR.  THE PLATFORM IS CAGED FOR 90 SECONDS AND THE ICDU'S ZEROED
000318:                                                                                                  #        SO THAT AT THE END OF THE PROCESS THE GIMBAL LOCK MONITOR WILL FUNCTION PROPERLY.
000319:
000320:                                                                                                  #        2) ICDU INITIALIZATION:  IN THIS CASE THE COMPUTER WAS PROBABLY TURNED ON WITH THE ISS IN OPERATE OR
000321:                                                                                                  #        A FRESH START WAS DONE WIT THE ISS IN OPERATE.  IN THIS CASE ONLY ISS OPERATE IS ON.  THE ICDU'S ARE
000322:                                                                                                  #        ZEROED SO THE GIMBAL LOCK MONITOR WILL FUNCTION.  AN EXCEPTION IS IF THE ISS IS IN GIMBAL LOCK AFTER
000323:                                                                                                  #        A RESTART, THE ICDU'S WILL NOT BE ZEROED.
000324:
000325:                                                                                                  #        3) RESTART WITH RESTARTABLE PROGRAM USING THE IMU:  IN THIS CASE, NO INITIALIZATION TAKES PLACE SINCE
000326:                                                                                                  #        IT IS ASSUMED THT THE USING PROGRAM DID THE INITIALIZATION AND THEREFORE T4RUPT SHOULD NOT INTERFERE.
000327:
000328:                                                                                                  #  IMODESD0 BIT 7 IS SET = 1 BY THE FIRST BIT (CHANNEL 30 BIT 14 OR 9) WHICH ARRIVES.  FOLLOWING THIS, TNONTEST IS
000329:                                                                                                  #  ENTERED, FINDS BIT 7 = 1 BUT BIT 8 = 0, SO IT SETS BIT 8 = 1 AND EXITS.  THE NEXT TIME IT FINDS BIT 8 = 1 AND
000330:                                                                                                  #  PROCEEDS, SETTING BITS 8 AND 7 = 0.  AT PROCTNON, IF ISS TURN-ON REQUEST IS PRESENT, THE ISS IS CAGED (ZERO +
000331:                                                                                                  #  COARSE).  IF ISS OPERATE IS NOT PRESENT PROGRAM ALARM 00213 IS ISSUED.  AT THE END OF A 90 SECOND CAGE, BIT 2
000332:                                                                                                  #  OF IMODES30 IS TESTED.  IF IT IS = 1, ISS TURN-ON WAS NOT PRESENT FOR THE ENTIRE 90 SECONDS.  IN THAT CASE, IF
000333:                                                                                                  #  THE ISS TURN-ON REQUEST IS PRESENT TEH 90 SECOD WAIT IS REPEATED.  OTHERWISE NO ACTION OCURS UNLESS A PROGRAM
000334:                                                                                                  #  WAS WAITING FOR THE INITIALIZATION IN WHIC CASE TH PROGRAM IS GIVEN AN IMUSTALL ERROR RETURN.  IF THE DELAY
000335:                                                                                                  #  WENT PROPERLY, THE ISS DELAY CLTBIT IS SENT AND THE ICDU'S ZEROED.  A TASK IS INITIATED TO REMOVE THE PIPA FIAL
000336:                                                                                                  #  INHIBIT BIT IN 10.24 SECONDS.  IF A MISSION PROGRAM WAS WAITING IT IS INFORMED VIA ENDIMU.
000337:
000338:                                                                                                  #  AT PROCTNON, IF ONLY ISS OPERATE IS PRESENT (OPONLY), THE CDU'S ARE ZEROED UNLESS THE PLATFORM IS IN COARSE
000339:                                                                                                  #  ALIGN (= GIMBAL LOCK HERE) OR A MISSIN PROGRAM IS USING THE IMU (IMUSEFLG = 1).
000340:
000341:                                                                                                  #  CALLING SEQUENCE:  T4RUPT EVERY 480 MILLISECONDS AFTER IMUMON.
000342:
000343:                                                                                                  #  JOBS OR TASKS INITIATED:  1) ENDTMON, 90 SECONDS AFER CAGING STARTED.  2) ISSUP, 4 SECONDS AFTER CAGING DONE.
000344:                                                                                                  #        3) PFAILOK, 10.24 SECONDS AFTER INITIALIZATION COMPLETED.  4) UNZ2, 320 MILLISECONDS AFTER ZEROING
000345:                                                                                                  #        STARTED.
000346:
000347:                                                                                                  #  SUBROUTINES CALLED: CAGESUB, CAGESUB2, ZEROICDU, ENDIMU, IMUBAD, NOATTOFF, SETISSW, VARDELAY.
000348:
000349:                                                                                                  #  ERASABLE INITIALIZATION:  SEE IMUMON.
000350:
000351:                                                                                                  #  ALARMS:  PROGRAM ALARM 00213 IF ISS TURN-ON REQUESTED WITHOUT ISS OPERATE.
000352:
000353:                                                                                                  #  EXIT:  ENDTNON EXITS TO C33TEST.  TASKS HAVING TO DO WITH INITIALIZATION EXIT AS FOLLOWS:  MISSION PROGRAM
000354:                                                                                                  #  WAITING AND INITIALIZATION COMPLET, EXIT TO ENDIMU, MISSION PROGRAM WAITING AND INITIALIZATION FAILED, EXIT TO
000355:                                                                                                  #  IMUBAD, IMU NOT IN USE, EXIT TO TASKOVER.
000356:
000357:                                                                                                  #  OUTPUT:  ISS INITIALIZED.
000358:
000359: 06,2227           41277        TNONTEST           CS       IMODES30                              #  AFTER PROCESSING ALL CHANGES, SEE IF IT


000361: 06,2230           74745                           MASK     BIT7                                  #  IS TIME TO ACT ON A TURN-ON SEQUENCE.
000362: 06,2231           10000                           CCS      A
000363: 06,2232           12374                           TCF      C33TEST                               #  NO -- EXAMINE CHANNEL 33.
000364:
000365: 06,2233           34744                           CAF      BIT8                                  #  SEE IF FIRST SAMPLE OR SECOND.
000366: 06,2234           71277                           MASK     IMODES30
000367: 06,2235           10000                           CCS      A
000368: 06,2236           12242                           TCF      PROCTNON                              #  REACT AFTER A SECOND SAMPLE.
000369:
000370: 06,2237           34744                           CAF      BIT8                                  #  IF FIRST SAMPLE, SET BIT TO REACT NEXT
000371: 06,2240           27277                           ADS      IMODES30                              #  TIME.
000372: 06,2241           12374                           TCF      C33TEST
000373:
000374:                                                                                                  #  PROCESS IMU TURN-ON REQUESTS AFTER WAITING 1 SAMPLE FOR ALL SIGNALS TO ARRIVE.
000375:
000376: 06,2242           42777        PROCTNON           CS       BITS7&8
000377: 06,2243           71277                           MASK     IMODES30
000378: 06,2244           55277                           TS       IMODES30
000379: 06,2245           74736                           MASK     BIT14                                 #  SEE IF TURN-ON REQUEST.
000380: 06,2246           10000                           CCS      A
000381: 06,2247           12347                           TCF      OPONLY                                #  OPERATE ON ONLY.
000382:
000383: 06,2250           41277                           CS       IMODES30                              #  IF TURN-ON REQUEST, WE SHOUD HAVE IMU
000384: 06,2251           74743                           MASK     BIT9                                  #  OPERATE.
000385: 06,2252           10000                           CCS      A
000386: 06,2253           12256                           TCF      +3
000387:
000388: 06,2254           05567                           TC       ALARM                                 #  ALARM IF NOT
000389: 06,2255           00213                           OCT      213
000390:
000391: 06,2256           02735                 +3        TC       CAGESUB
000392: 06,2257           33005                           CAF      90SECS
000393: 06,2260           05203                           TC       WAITLIST
000394: 06,2261  E6,1414                                  EBANK=   M11
000395: 06,2261           02266 14106                     2CADR    ENDTNON
000396:
000397: 06,2263           12374                           TCF      C33TEST
000398:
000399: 06,2264           33005        RETNON             CAF      90SECS
000400: 06,2265           05224                           TC       VARDELAY
000401:
000402: 06,2266           44752        ENDTNON            CS       BIT2                                  #  RESET TURN-ON REQUEST FAIL BIT.
000403: 06,2267           71277                           MASK     IMODES30
000404: 06,2270           57277                           XCH      IMODES30
000405: 06,2271           74752                           MASK     BIT2                                  #  IF IT WAS OFF, SEND ISS DELAY COMPLETE.
000406: 06,2272           00006                           EXTEND
000407: 06,2273           12306                           BZF      ENDTNON2
000408:
000409: 06,2274           34736                           CAF      BIT14                                 #  IF IT WAS ON AND TURN-ON REQUEST NOW.


000411: 06,2275           71277                           MASK     IMODES30                              #  PRESENT, RE-ENTER 90 SEC DELAY IN WL.
000412: 06,2276           00006                           EXTEND
000413: 06,2277           12264                           BZF      RETNON
000414:
000415: 06,2300           40074                           CS       FLAGWRD0                              #  IF IT IS NOT ON NOW, SEE IF A PROG WAS
000416: 06,2301           74744                           MASK     IMUSEBIT                              #  WAITING.
000417: 06,2302           10000                           CCS      A
000418: 06,2303           15261                           TCF      TASKOVER
000419: 06,2304           04635                           TC       POSTJUMP
000420: 06,2305           17630                           CADR     IMUBAD                                #  UNSUCCESSFUL TURN-ON.
000421:
000422: 06,2306           34735        ENDTNON2           CAF      BIT15                                 #  SEND ISS DELAY COMPLETE.
000423: 06,2307           00006                           EXTEND
000424: 06,2310           05012                           WOR      CHAN12
000425:
000426: 06,2311           04674                           TC       IBNKCALL                              #  TURN OFF NO ATT LAMP.
000427: 06,2312           17257                           CADR     NOATTOFF
000428:
000429: 06,2313           05457        UNZ2               TC       ZEROICDU
000430:
000431: 06,2314           44763                           CS       BITS4&5                               #  REMOVE ZERO AND COARSE.
000432: 06,2315           00006                           EXTEND
000433: 06,2316           03012                           WAND     CHAN12
000434:
000435: 06,2317           34741                           CAF      BIT11                                 #  WAIT 10 SECS FOR CTRS TO FIND GIMBALS
000436: 06,2320           05224                           TC       VARDELAY
000437:
000438: 06,2321           42774        ISSUP              CS       OCT54                                 #  REMOVE CAGING, IMU FAIL INHIBIT BIT, AND
000439: 06,2322           71277                           MASK     IMODES30                              #  ICDUFAIL INHIBIT FLAGS.
000440: 06,2323           55277                           TS       IMODES30
000441:
000442: 06,2324           44746                           CS       BIT6                                  #  ENABLE DAP
000443:
000444: 06,2325           71300                           MASK     IMODES33
000445: 06,2326           55300                           TS       IMODES33
000446:
000447: 06,2327           40076                           CS       FLAGWRD2                              #  TEST DRIFTFLG: IF ON DO NOTHING BECAUSE
000448: 06,2330           74735                           MASK     DRFTBIT                               #  IMUCOMP SHOUD BE ALL SET UP (RESTART
000449: 06,2331           00006                           EXTEND                                         #  WITH IMUSE DOWN).  IF OFF, SET DRIFTFLG
000450: 06,2332           12336                           BZF      +4                                    #  AND 1/PIPADT TO GET FREEFALL IMUCOMP
000451: 06,2333           26076                           ADS      FLAGWRD2                              #  GOING (FRESH START OR ISS TURN-ON).
000452: 06,2334           30025                           CA       TIME1
000453: 06,2335           57074                           XCH      1/PIPADT                              #  CANNOT GET HERE IF RESTART WITH IMUSE UP
000454:
000455: 06,2336           02703                           TC       SETISSW                               #  ISS WARNING MIGHT HAVE BEEN INHIBITED.
000456:
000457: 06,2337           44735                           CS       BIT15                                 #  REMOVE IMU DELAY COMPLETE DISCRETE.
000458: 06,2340           00006                           EXTEND
000459: 06,2341           03012                           WAND     CHAN12
000460:
000461: 06,2342           35003                           CAF      4SECS                                 #  DON'T ENABLE PROG ALARM ON PIP FAIL FOR


000463: 06,2343           05203                           TC       WAITLIST                              #  ANOTHER 4 SECS.
000464: 06,2344  E3,1474                                  EBANK=   CDUIND
000465: 06,2344           03245 16103                     2CADR    PFAILOK
000466:
000467: 06,2346           15261                           TCF      TASKOVER
000468:
000469: 06,2347           34750        OPONLY             CAF      BIT4                                  #  IF OPERATE ON ONLY, AND WE ARE IN COARSE
000470: 06,2350           00006                           EXTEND                                         #  ALIGN, DON'T ZERO THE CDUS BECAUSE WE
000471: 06,2351           02012                           RAND     CHAN12                                #  MIGHT BE IN GIMBAL LOCK.
000472: 06,2352           10000                           CCS      A
000473: 06,2353           12374                           TCF      C33TEST
000474:
000475: 06,2354           34744                           CAF      IMUSEBIT                              #  OTHERWISE, ZERO THE COUNTERS.
000476: 06,2355           70074                           MASK     FLAGWRD0                              #  UNLESS SOMEONE IS USING TH IMU.
000477: 06,2356           10000                           CCS      A
000478: 06,2357           12374                           TCF      C33TEST
000479:
000480: 06,2360           02746                           TC       CAGESUB2                              #  SET TURNON FLAGS.
000481:
000482: 06,2361           04674        ISSZERO            TC       IBNKCALL                              #  TURN OFF NO ATT LAMP.
000483: 06,2362           17257                           CADR     NOATTOFF                              #  IMU CAGE OFF ENTRY.
000484:
000485: 06,2363           34747                           CAF      BIT5                                  #  ISS CDU ZERO
000486: 06,2364           00006                           EXTEND
000487: 06,2365           05012                           WOR      CHAN12
000488:
000489: 06,2366           05457                           TC       ZEROICDU
000490: 06,2367           34746                           CAF      BIT6                                  #  WAIT 300 MS. FOR AGS TO RECEIVE SIGNAL.
000491: 06,2370           05203                           TC       WAITLIST
000492: 06,2371  E6,1414                                  EBANK=   M11
000493: 06,2371           02313 14106                     2CADR    UNZ2
000494:
000495: 06,2373           12374                           TCF      C33TEST
000496:


000498:                                                                                                  #  PROGRAM NAME:  C33TEST
000499:
000500:                                                                                                  #  FUNCTIONAL DESCRIPTION:  THIS PROGRAM MONITORS THREE FLIP-FLOP INBITS OF CHANNEL 33 AND CALLS THE APPROPRIATE
000501:                                                                                                  #  SUBROUTINE TO PROCESS A CHANGE.  IT IS ANALOGOUS TO IMUMON, WHICH MONITORS CHANNEL 30, EXCEPT THAT IT READS
000502:                                                                                                  #  CHANNEL 33 WITH A WAND INSTRUCTION BECAUSE A `WRITE' PULSE IS REQUIRED TO RESET THE FLIP-FLOPS.  THE BITS
000503:                                                                                                  #  PROCESSED AND THE SUBROUTINES CALLED ARE:
000504:                                                                                                  #        BIT     FUNCTION                SUBROUTINE
000505:                                                                                                  #        ---     --------                ----------
000506:                                                                                                  #         13     PIPA FAIL               PIPFAIL
000507:                                                                                                  #         12     DOWNLINK TOO FAST       DNTMFAST
000508:                                                                                                  #         11     UPLINK TOO FAST         UPTMFAST
000509:
000510:                                                                                                  #  UPON ENTRY TO THE SUBROUTINE, THE NEW BIT STATE IS IN A.
000511:
000512:                                                                                                  #  CALLING SEQUENCE:  EVERY 480 MILLISECONDS AFTER TNONTEST.
000513:
000514:                                                                                                  #  JOBS OR TASKS INITIATED:  NONE.
000515:
000516:                                                                                                  #  SUBROUTINES CALLED:  PIPFAIL, DNTMFAST AND UPTMFAST ON BIT CHANGES.
000517:
000518:                                                                                                  #  ERASABLE INITIALIZATION:  C(IMODES33) = OCT 16000 ON A FRESH START OR RESTART, THEREFORE, THESE ALARMS WILL
000519:                                                                                                  #  REAPPEAR IF THE CONDITIONS PERSIST.
000520:
000521:                                                                                                  #  ALARMS:  NONE.
000522:
000523:                                                                                                  #  EXIT:  GLOCKMON.
000524:
000525:                                                                                                  #  OUTPUT:  UPDATED BITS 13, 12, AND 11 OF IMODES33 WITH CHANGES PROCESSED.
000526:
000527: 06,2374           31300        C33TEST            CA       IMODES33                              #  SEE IF RELEVANT CHAN33 BITS HAVE
000528: 06,2375           75026                           MASK     33RDMSK
000529: 06,2376           54001                           TS       L                                     #  CHANGED.
000530: 06,2377           35026                           CAF      33RDMSK
000531: 06,2400           00006                           EXTEND
000532: 06,2401           03033                           WAND     CHAN33                                #  RESETS FLIP-FLOP INPUTS
000533: 06,2402           00006                           EXTEND
000534: 06,2403           06001                           RXOR     LCHAN
000535: 06,2404           00006                           EXTEND
000536: 06,2405           12434                           BZF      GLOCKMON                              #  ON NO CHANGE.
000537:
000538: 06,2406           54070                           TS       RUPTREG1                              #  SAVE BITS WHICH HAVE CHANGED
000539: 06,2407           23300                           LXCH     IMODES33
000540: 06,2410           00006                           EXTEND
000541: 06,2411           06001                           RXOR     LCHAN
000542: 06,2412           55300                           TS       IMODES33                              #  UPDATED IMODES33.
000543:
000544: 06,2413           34755                           CAF      ZERO
000545: 06,2414           56070                           XCH      RUPTREG1
000546: 06,2415           60000                           DOUBLE


000548: 06,2416           12421                           TCF      NXTIBT     +1                         #  SCAN FOR BIT CHANGES.
000549:
000550: 06,2417           64753                 -1        AD       ONE
000551: 06,2420           24070        NXTIBT             INCR     RUPTREG1
000552: 06,2421           60000                 +1        DOUBLE
000553: 06,2422           54000                           TS       A                                     #  (CODING IDENTICAL TO CHAN 30).
000554: 06,2423           12420                           TCF      NXTIBT
000555:
000556: 06,2424           56071                           XCH      RUPTREG2
000557: 06,2425           50070                           INDEX    RUPTREG1                              #  GET NEW VALUE OF BIT WHICH CHANGED.
000558: 06,2426           34737                           CAF      BIT13
000559: 06,2427           71300                           MASK     IMODES33
000560: 06,2430           50070                           INDEX    RUPTREG1
000561: 06,2431           02763                           TC       C33JMP
000562: 06,2432           10071        NXTFL33            CCS      RUPTREG2                              #  PROCESS POSSIBLE ADDITIONAL CHANGES.
000563: 06,2433           12417                           TCF      NXTIBT     -1
000564:


000566:                                                                                                  #  PROGRAM NAME:  GLOCKMON
000567:
000568:                                                                                                  #  FUNCTIONAL DESCRIPTION:  THIS PROGRAM MONITORS THE CDUZ COUNTER TO DETERMINE WHETHER THE ISS IS IN GIMBAL LOCK
000569:                                                                                                  #  AND TAKES ACTION IF IT IS.  THREE REGIONS OF MIDDLE GIMBAL ANGLE (MGA) ARE USED:
000570:
000571:                                                                                                  #        1) ABS(MGA) LESS THAN OR EQUAL TO 70 DEGREES -- NORMAL MODE.
000572:                                                                                                  #        2) ABS(MGA) GREATER THAN 70 DEGREES AND LESS THAN OR EQUAL TO 85 DEGREES -- GIMBAL LOCK LAMP TURNED ON.
000573:                                                                                                  #        3) ABS(MGA) GREATER THAN 85 DEGREES -- ISS PUT IN COARSE ALIGN AND NO ATT LAMP TURNED ON.
000574:
000575:                                                                                                  #  CALLING SEQUENCE:  EVERY 480 MILLISECONDS AFTER C33TEST.
000576:
000577:                                                                                                  #  JOBS OR TASKS INITIATED:  NONE.
000578:
000579:                                                                                                  #  SUBROUTINES CALLED:   1) SETCOARS WHEN ABS(MGA) GREATER THEN 85 DEGREES AND ISS NOT IN COARSE ALIGN.
000580:                                                                                                  #                        2) LAMPTEST BEFORE TURNING OFF GIMBAL LOCK LAMP.
000581:
000582:                                                                                                  #  ERASABLE INITIALIZATION:
000583:                                                                                                  #                1) FRESH START OR RESTART WITH NO GROUPS ACTIVE:  C(CDUZ) = 0, IMODES30 BIT 6 = 0, IMODES33 BIT 1 = 0.
000584:                                                                                                  #                2) RESTART WITH GROUPS ACTIVE:  SAME AS FRESH START EXCEPT C(CDUZ) NOT CHANGED SO GIMBAL MONITOR
000585:                                                                                                  #                                                PROCEEDS AS BEFORE.
000586:
000587:                                                                                                  #  ALARMS:       1) MGA REGION (2) CAUSES GIMBAL LOCK LAMP TO BE LIT.
000588:                                                                                                  #                2) MGA REGION (3) CAUSES THE ISS TO BE PUT IN COARSE ALIGN AND THE NO ATT LAMP TO BE LIT IF EITHER NOT
000589:                                                                                                  #                   SO ALREADY.
000590:
000591: 06,2434           10034        GLOCKMON           CCS      CDUZ
000592: 06,2435           12441                           TCF      GLOCKCHK                              #  SEE IF MAGNITUDE OF MGA IS GREATER THAN
000593: 06,2436           12465                           TCF      SETGLOCK                              #  70 DEGREES.
000594: 06,2437           12441                           TCF      GLOCKCHK
000595: 06,2440           12465                           TCF      SETGLOCK
000596:
000597: 06,2441           62512        GLOCKCHK           AD       -70DEGS
000598: 06,2442           00006                           EXTEND
000599: 06,2443           62464                           BZMF     SETGLOCK   -1                         #  NO LOCK.
000600:
000601: 06,2444           62513                           AD       -15DEGS                               #  SEE IF ABS(MGA) GREATER THAN 85 DEGREES
000602: 06,2445           00006                           EXTEND
000603: 06,2446           62462                           BZMF     NOGIMRUN
000604:
000605: 06,2447           34750                           CAF      BIT4                                  #  IF SO, SYSTEM SHOULD BE IN COARSE ALIGN
000606: 06,2450           00006                           EXTEND                                         #  TO PREVENT GIMBAL RUNAWAY.
000607: 06,2451           02012                           RAND     CHAN12
000608: 06,2452           10000                           CCS      A
000609: 06,2453           12462                           TCF      NOGIMRUN
000610:
000611: 06,2454           04674                           TC       IBNKCALL
000612: 06,2455           17135                           CADR     SETCOARS
000613:
000614: 06,2456           36245                           CAF      SIX                                   #  ENABLE ISS ERROR COUNTERS IN 60 MS.
000615: 06,2457           05203                           TC       WAITLIST


000617: 06,2460  E3,1474                                  EBANK=   CDUIND
000618: 06,2460           03131 16103                     2CADR    CA+ECE
000619:
000620: 06,2462           34746        NOGIMRUN           CAF      BIT6                                  #  TURN ON GIMBAL LOCK LAMP.
000621: 06,2463           12465                           TCF      SETGLOCK
000622:
000623: 06,2464           34755                 -1        CAF      ZERO
000624: 06,2465           61035        SETGLOCK           AD       DSPTAB     +11D                       #  SEE IF PRESENT STATE OF GIMBAL LOCK LAMP
000625: 06,2466           74746                           MASK     BIT6                                  #  AGREES WITH DESIRED STATE BY HALF ADDING
000626: 06,2467           00006                           EXTEND                                         #  THE TWO.
000627: 06,2470           15270                           BZF      GLOCKOK                               #  OK AS IS.
000628:
000629: 06,2471           71035                           MASK     DSPTAB     +11D                       #  IF OFF, DON'T TURN ON IF IMU BEING CAGED.
000630: 06,2472           10000                           CCS      A
000631: 06,2473           12507                           TCF      GLAMPTST                              #  TURN OFF UNLESS LAMP TEST IN PROGRESS.
000632:
000633: 06,2474           34746                           CAF      BIT6
000634: 06,2475           71277                           MASK     IMODES30
000635: 06,2476           10000                           CCS      A
000636: 06,2477           15270                           TCF      GLOCKOK
000637:
000638: 06,2500           41035        GLINVERT           CS       DSPTAB     +11D                       #  INVERT GIMBAL LOCK LAMP.
000639: 06,2501           74746                           MASK     BIT6
000640: 06,2502           64735                           AD       BIT15                                 #  TO INDICATE CHANGE IN DSPTAB +11D.
000641: 06,2503           57035                           XCH      DSPTAB     +11D
000642: 06,2504           72162                           MASK     OCT37737
000643: 06,2505           27035                           ADS      DSPTAB     +11D
000644: 06,2506           15270                           TCF      GLOCKOK
000645:
000646: 06,2507           02766        GLAMPTST           TC       LAMPTEST                              #  TURN OFF UNLESS LAMP TEST IN PROGRESS.
000647: 06,2510           15270                           TCF      GLOCKOK
000648: 06,2511           12500                           TCF      GLINVERT
000649:
000650: 06,2512           63434        -70DEGS            DEC      -.38888                               #  -70 DEGREES SCALED IN HALF-REVOLUTIONS.
000651: 06,2513           75252        -15DEGS            DEC      -.08333
000652:


000654:                                                                                                  #  PROGRAM NAME:  TLIM.
000655:
000656:                                                                                                  #  FUNCTIONAL DESCRIPTION:  THIS PROGRAM MAINTAINS THE TEMP LAMP (BIT 4 OF CHANNEL 11) ON THE DSKY TO AGREE WITH
000657:                                                                                                  #  THE TEMP SIGNAL FROM THE ISS (BIT 15 OF CHANNEL 30).  HOWEVER, THE LIGHT WILL NOT BE TURNED OFF IF A LAMP TEST
000658:                                                                                                  #  IS IN PROGRESS.
000659:
000660:                                                                                                  #  CALLING SEQUENCE:  CALLED BY IMUMON ON A CHANGE OF BIT 15 OF CHANNEL 30.
000661:
000662:                                                                                                  #  JOBS OR TASKS INITIATED:  NON.
000663:
000664:                                                                                                  #  SUBROUTINES CALLED:  LAMPTEST.
000665:
000666:                                                                                                  #  ERASABLE INITIALIZATION:  FRESH START AND RESTART TURN THE TEMP LAMP OFF.
000667:
000668:                                                                                                  #  ALARMS:  TEMP LAMP TURNED ON WHEN THE IMU TEMP GOES OUT OF LIMITS.
000669:
000670:                                                                                                  #  EXIT:  NXTIFAIL.
000671:
000672:                                                                                                  #  OUTPUT:  SERVICE OF TEMP LAMP.                  IN A, EXCEPT FOR TLIM.
000673:
000674: 06,2514           74733        TLIM               MASK     POSMAX                                #  REMOVE BIT FROM WORD OF CHANGES AND SET
000675: 06,2515           54071                           TS       RUPTREG2                              #  DSKY TEMP LAMP ACCORDINGLY.
000676:
000677: 06,2516           11277                           CCS      IMODES30
000678: 06,2517           12525                           TCF      TEMPOK
000679: 06,2520           12525                           TCF      TEMPOK
000680:
000681: 06,2521           34750                           CAF      BIT4                                  #  TURN ON LAMP.
000682: 06,2522           00006                           EXTEND
000683: 06,2523           05011                           WOR      DSALMOUT
000684: 06,2524           12225                           TCF      NXTIFAIL
000685:
000686: 06,2525           02766        TEMPOK             TC       LAMPTEST                              #  IF TEMP NOW OK, DON'T TURN OFF LAMP IF
000687: 06,2526           12225                           TCF      NXTIFAIL                              #  LAMP TEST IN PROGRESS.
000688:
000689: 06,2527           44750                           CS       BIT4
000690: 06,2530           00006                           EXTEND
000691: 06,2531           03011                           WAND     DSALMOUT                              #  TURN OFF LAMP
000692: 06,2532           12225                           TCF      NXTIFAIL
000693:


000695:                                                                                                  #  PROGRAM NAME:  ITURNON.
000696:
000697:                                                                                                  #  FUNCTIONAL DESCRIPTION:  THIS PROGRAM IS CALLED BY IMUMON WHEN A CHANGE OF BIT 14 OF CHANNEL 30 (ISS TURN-ON
000698:                                                                                                  #  REQUEST) IS DETECTED.  UPON ENTRY, ITURNON CHECKS IF A TURN-ON DELAY SEQUENCE HAS FAILED, AND IF SO, IT EXITS.
000699:                                                                                                  #  IF NOT, IT CHECKS WHETHER THE TURN-ON REQUEST CHANGE IS TO ON OR OFF.  IF ON, IT SETS BIT7 OF IMODES30 TO 1 SO
000700:                                                                                                  #  THAT TNONTEST WILL INITIATE THE ISS INITIALIZATION SEQUENCE.  IF OFF, THE TURN-ON DELAY SIGNAL, CHANNEL 12 BIT
000701:                                                                                                  #  15, IS CHECKED AND IF IT IS ON, ITURNON EXITS.  IF THE DEALY SIGNAL IS OFF, PROGRAM ALARM 00207 IS ISSUED, BIT 2
000702:                                                                                                  #  OF IMODES30 IS SET TO 1 AND THE PROGRAM EXITS.
000703:
000704:                                                                                                  #  THE SETTING OF BIT 2 OF IMODES30 (ISS DELAY SEQUENCE FAIL) INHIBITS THIS ROUTINE AND IMUOP FROM
000705:                                                                                                  #  PROCESSING ANY CHANGES.  THIS BIT WILL BE RESET BY THE ENDTNON ROUTINE WHEN THE CURRENT 90 SECOND DELAY PERIOD
000706:                                                                                                  #  ENDS.
000707:
000708:                                                                                                  #  CALLING SEQUENCE:  FROM IMUMOM WHEN ISS TURN-ON REQUEST CHANGES STATE.
000709:
000710:                                                                                                  #  JOBS OR TASKS INITITIATED:  NONE.
000711:
000712:                                                                                                  #  SUBROUTINES CALLED:  ALARM, IF THE ISS TURN-ON REQUEST IS NOT PRESENT FOR 90 SECONDS.
000713:
000714:                                                                                                  #  ERASABLE INITIALIZATION:  FRESH START AND RESTART SET BIT 15 OF CHANNEL 12 AND BITS 2 AND 7 OF IMODES30 TO 0,
000715:                                                                                                  #  AND BIT 14 OF IMODES30 TO 1.
000716:
000717:                                                                                                  #  ALARMS: PROGRAM ALARM 00207 IS ISSUED IF THE ISS TURN-ON REQUEST SIGNAL IS NOT PRESENT FOR 90 SECONDS.
000718:
000719:                                                                                                  #  EXIT:  NXTIFAIL.
000720:
000721:                                                                                                  #  OUTPUT:  BIT 7 OF IMODES30 TO START ISS INITIALIZATION, OR BIT 2 OF IMODES30 AND PROGRAM ALARM 00207 TO INDICATE
000722:                                                                                                  #  A FAILED TURN-ON SEQUENCE.
000723:
000724: 06,2533           34752        ITURNON            CAF      BIT2                                  #  IF DELAY REQUEST HAS GONE OFF
000725: 06,2534           71277                           MASK     IMODES30                              #  PREMATURELY, DO NOT PROCESS ANY CHANGES
000726: 06,2535           10000                           CCS      A                                     #  UNTIL THE CURRENT 90 SEC WAIT EXPIRES.
000727: 06,2536           12225                           TCF      NXTIFAIL
000728:
000729: 06,2537           34736                           CAF      BIT14                                 #  SEE IF JUST ON OR OFF.
000730: 06,2540           71277                           MASK     IMODES30
000731: 06,2541           00006                           EXTEND
000732: 06,2542           12556                           BZF      ITURNON2                              #  IF JUST ON.
000733:
000734: 06,2543           34735                           CAF      BIT15
000735: 06,2544           00006                           EXTEND                                         #  SEE IF DELAY PRESENT DISCRETE HAS BEEN
000736: 06,2545           02012                           RAND     CHAN12                                #  SENT.  IF SO, ACTION COMPLETE
000737: 06,2546           00006                           EXTEND
000738: 06,2547           12551                           BZF      +2
000739: 06,2550           12225                           TCF      NXTIFAIL
000740:
000741: 06,2551           34752                           CAF      BIT2                                  #  IF NOT, SET BIT TO INDICATE REQUEST NOT
000742: 06,2552           27277                           ADS      IMODES30                              #  PRESENT FOR FULL DURATION.
000743: 06,2553           05567                           TC       ALARM
000744: 06,2554           00207                           OCT      207
000745: 06,2555           12225                           TCF      NXTIFAIL
000746:


000748: 06,2556           41277        ITURNON2           CS       IMODES30                              #  SET BIT7 TO INDICATE WAIT OF 1 SAMPLE
000749: 06,2557           74745                           MASK     BIT7
000750: 06,2560           27277                           ADS      IMODES30
000751: 06,2561           32564                           CAF      RRINIT
000752: 06,2562           54110                           TS       RADMODES
000753: 06,2563           12225                           TCF      NXTIFAIL
000754:
000755: 06,2564           00102        RRINIT             OCT      00102
000756:


000758:                                                                                                  #  PROGRAM NAME:  IMUCAGE.
000759:
000760:                                                                                                  #  FUNCTIONAL DESCRIPTION:  THIS PROGRAM PROCESSES CHANGES OF THE IMUCAGE INBIT, CHANNEL 30 BITS 11.  IF THE BIT
000761:                                                                                                  #  CHANGES TO 0 (CAGE BUTTON PRESSED), THE ISS IS CAGED (ICDU ZERO + COARSE ALIGN + NO ATT LAMP) UNTIL THE
000762:                                                                                                  #  ASTRONAUT SELECTS ANOTHER PROGRAM TO ALIGN THE ISS.  ANY PULSE TRAINS TO THE ICDU'S AND GYRO'S ARE TERMINATED,
000763:                                                                                                  #  THE ASSOCIATE OUTCOUNTERS ARE ZEROED AND THE GYRO'S ARE DE-SELECTED.  NO ACTION OCCURS WHEN THE BUTTON IS
000764:                                                                                                  #  RELEASED (INBIT CHANGES TO 1).
000765:
000766:                                                                                                  #  CALLING SEQUENCE:  BY IMUMON WHEN IMU CAGE BIT CHANGES.
000767:
000768:                                                                                                  #  JOBS OR TASKS INITIATED:  NONE.
000769:
000770:                                                                                                  #  SUBROUTINES CALLED:  CAGESUB.
000771:
000772:                                                                                                  #  ERASABLE INITIALZATION:  FRESH START AND RESTART SET BIT 11 OF IMODES30 TO 1.
000773:
000774:                                                                                                  #  ALARMS: NONE.
000775:
000776:                                                                                                  #  EXIT:  NXTIFAIL.
000777:
000778:                                                                                                  #  OUTPUT:  ISS CAGED, COUNTERS ZEROED, PULSE TRAINS TERMINATED AND NO ATT LAMP LIT.
000779:
000780: 06,2565           10000        IMUCAGE            CCS      A                                     #  NO ACTION OF GOING OFF.
000781: 06,2566           12361                           TCF      ISSZERO
000782: 06,2567           43002                           CS       OCT77000                              #  TERMINATE ICDU, RCDU, GYRO PULSE TRAINS
000783: 06,2570           00006                           EXTEND
000784: 06,2571           03014                           WAND     CHAN14
000785:
000786: 06,2572           42776                           CS       OCT272                                #  KNOCK DOWN DISPLAY INERTIAL DATA, IMU
000787: 06,2573           00006                           EXTEND                                         #  ERROR COUNTER ENABLE, ZERO ICDU, COARSE
000788: 06,2574           03012                           WAND     CHAN12                                #  ALIGN ENABLE, RR ERROR COUNTER ENABLE.
000789:
000790: 06,2575           44745                           CS       ENGONBIT                              #  INSURE ENGONFLG IS CLEAR.
000791: 06,2576           70101                           MASK     FLAGWRD5
000792: 06,2577           54101                           TS       FLAGWRD5
000793: 06,2600           44355                           CS       PRIO30                                #  TURN ENGINE OFF.
000794: 06,2601           00006                           EXTEND
000795: 06,2602           02011                           RAND     DSALMOUT
000796: 06,2603           64736                           AD       BIT14
000797: 06,2604           00006                           EXTEND
000798: 06,2605           01011                           WRITE    DSALMOUT                              #  FORCE BIT14=1, BIT13=0.
000799:
000800: 06,2606           02743                           TC       CAGESUB1
000801:
000802: 06,2607           04674                           TC       IBNKCALL                              #  KNOCK DOWN TRACK, REFSMMAT, DRIFT FLAGS
000803: 06,2610           17166                           CADR     RNDREFDR
000804:
000805: 06,2611           44755                           CS       ZERO
000806: 06,2612           54050                           TS       CDUXCMD
000807: 06,2613           54051                           TS       CDUYCMD


000809: 06,2614           54052                           TS       CDUZCMD
000810: 06,2615           54047                           TS       GYROCMD
000811:
000812: 06,2616           43001                           CS       OCT740                                #  HAVING WAITED AT LEAST 27 MCT FROM
000813: 06,2617           00006                           EXTEND                                         #  GYRO PULSE TRAIN TERMINATION, WE CAN
000814: 06,2620           03014                           WAND     CHAN14                                #  D-SELECT THE GYROS.
000815: 06,2621           12225                           TCF      NXTIFAIL
000816:


000818:                                                                                                  #  PROGRAM NAME:  IMUOP.
000819:
000820:                                                                                                  #  FUNCTIONAL DESCRIPTION:  THIS PROGRAM PROCESSES CHANGES IN TEH ISS OPERATE DISCRETE, BIT 9 OF CHANNEL 30.
000821:                                                                                                  #  IF THE INBIT CHANGES TO 0, INDICATING ISS ON, IMUOP GENERALLY SETS BIT 7 OF IMODES30 TO 1 TO REQUEST ISS
000822:                                                                                                  #  INITIALIZATION VIA TNONTEST.  AN EXCEPTION IS DURING A FAILED ISS DELAY DURING WHICH BIT 2 OF IMODES30 IS SET
000823:                                                                                                  #  TO 1 AND NO FURTHER INITIALIZATION IS REQUIRED.  WHEN THE INBIT CHANGES TO 1, INDICATING ISS OFF, IMUSEFLG IS
000824:                                                                                                  #  TESTED TO SEE IF ANY PROGRAM WAS USING THE ISS.  IF SO, PROGRAM ALARM 00214 IS ISSUED.
000825:
000826:                                                                                                  #  CALLING SEQUENCE:  BY IMUMON WHEN BIT 9 OF CHANNEL 30 CHANGES.
000827:
000828:                                                                                                  #  JOBS OR TAKS INITIATED:  NONE.
000829:                                                                                                  #
000830:                                                                                                  #  SUBROUTINES CALLED:  ALARM, IF ISS IS TURNED OFF WHILE IN USE.
000831:
000832:                                                                                                  #  ERASABLE INITIALIZATION:  ON FRESH START AND RESTART, BIT 9 OF IMODES30 IS SET TO 1 EXCEPT WHEN THE GIMBAL LOCK
000833:                                                                                                  #  LAMP IS ON, IN WHICH CASE IT IS SET TO 0.  THIS PREVENTS ICDU ZERO BY TNONTEST WITH THE ISS IN GIMBAL LOCK.
000834:
000835:                                                                                                  #  ALARMS:  PROGRAM ALARM 00214 IF THE ISS IS TURNED OFF WHILE IN USE.
000836:
000837:                                                                                                  #  EXIT:  NXTIFAIL.
000838:
000839:                                                                                                  #  OUTPUT:  ISS INITIALIZATION REQUEST (IMODES30 BIT 7) OR PROGRAM ALARM 00214.
000840:
000841: 06,2622           00006        IMUOP              EXTEND
000842: 06,2623           12643                           BZF      IMUOP2
000843:
000844: 06,2624           41300                           CS       IMODES33                              #  DISABLE DAP
000845: 06,2625           74746                           MASK     BIT6
000846: 06,2626           27300                           ADS      IMODES33
000847:
000848: 06,2627           04674                           TC       IBNKCALL                              #  KNOCK DOWN TRACK, REFSMMAT, DRIFT FLAGS
000849: 06,2630           17166                           CADR     RNDREFDR
000850:
000851: 06,2631           42777                           CS       BITS7&8                               #  KNOCK DOWN RENDEZVOUS, IMUUSE FLAGS
000852: 06,2632           70074                           MASK     FLAGWRD0
000853: 06,2633           56074                           XCH      FLAGWRD0                              #  IF GOING OFF, ALARM IF PROG USING IMU.
000854: 06,2634           40000                           COM
000855: 06,2635           74744                           MASK     IMUSEFLG
000856: 06,2636           10000                           CCS      A
000857: 06,2637           12225                           TCF      NXTIFAIL
000858:
000859: 06,2640           05567                           TC       ALARM
000860: 06,2641           00214                           OCT      214
000861: 06,2642           12225                           TCF      NXTIFAIL
000862:
000863: 06,2643           34752        IMUOP2             CAF      BIT2                                  #  SEE IF FAILED ISS TURN-ON SEQ IN PROG.
000864: 06,2644           71277                           MASK     IMODES30
000865: 06,2645           10000                           CCS      A
000866: 06,2646           12225                           TCF      NXTIFAIL                              #  IF SO, DON'T PROCESS UNTIL PRESENT 90
000867: 06,2647           12556                           TCF      ITURNON2                              #  SECONDS EXPIRES
000868:


000870:                                                                                                  #  PROGRAM NAME:  PIPFAIL
000871:
000872:                                                                                                  #  FUNCTIONAL DESCRIPTION:  THIS PROGRAM PROCESSES CHANGES OF BIT 13 OF CHANNEL 33, PIPA FAIL.  IT SETS BIT 10 OF
000873:                                                                                                  #  IMODES30 TO AGREE.  IT CALLS SETISSW IN CASE A PIPA FAIL NECESSITATES AN ISS WARNING.  IF NOT, I.E., MODES30
000874:                                                                                                  #  BIT 1 = 1, AND A PIPA FAIL IS PRESENT AND THE ISS NOT BEING INITIALIZED, PROGRAM ALARM 0212 IS ISSUED.
000875:
000876:                                                                                                  #  CALLING SEQUENCE:  BY C33TEST ON CHANGES OF CHANNEL 33 BIT 13.
000877:
000878:                                                                                                  #  JOBS OR TASKS INITIATED:  NONE.
000879:
000880:                                                                                                  #  SUBROUTINES CALLED:  1) SETISSW, AND 2) ALARM (SEE FUNCTIONAL DESCRIPTION).
000881:
000882:                                                                                                  #  ERASABLE INITIALZIZATION:  SEE IMUMON FOR INITIALIZATION OF IMODES30.  THE RELEVANT BITS ARE 5, 7, 8, 9, AND 10.
000883:
000884:                                                                                                  #  ALARMS:  PROGRAM ALARM 00212 IF PIPA FAIL IS PRESENT BUT NEITHER ISS WARNING IS TO BE ISSUED NOR THE ISS IS
000885:                                                                                                  #  BEING INITIALIZED.
000886:
000887:                                                                                                  #  EXIT:  NXTFL33.
000888:
000889:                                                                                                  #  OUTPUT:  PROGRAM ALARM 00212 AND ISS WARNING MAINTENANCE.
000890:
000891: 06,2650           10000        PIPFAIL            CCS      A                                     #  SET BIT10 IN IMODES30 SO ALL ISS WARNING
000892: 06,2651           34742                           CAF      BIT10                                 #  INFO IS IN ONE REGISTER.
000893: 06,2652           57277                           XCH      IMODES30
000894: 06,2653           73004                           MASK     -BIT10
000895: 06,2654           27277                           ADS      IMODES30
000896:
000897: 06,2655           02703                           TC       SETISSW
000898:
000899: 06,2656           41277                           CS       IMODES30                              #  IF PIP FAIL DOESN'T LIGHT TEST WARNING, DO
000900: 06,2657           74753                           MASK     BIT1                                  #  A PROGRAM ALARM IF IMU OPERATING BUT NOT
000901: 06,2660           10000                           CCS      A                                     #  CAGED OR BEING TURNED ON.
000902: 06,2661           12432                           TCF      NXTFL33
000903:
000904: 06,2662           31277                           CA       IMODES30
000905: 06,2663           73000                           MASK     OCT1720
000906: 06,2664           10000                           CCS      A
000907: 06,2665           12432                           TCF      NXTFL33                               #  ABOVE CONDITION NOT MET.
000908:
000909: 06,2666           05567                           TC       ALARM
000910: 06,2667           00212                           OCT      212
000911: 06,2670           12432                           TCF      NXTFL33
000912:


000914:                                                                                                  #  PROGRAM NAMES:  DNTMFAST, UPTMFAST
000915:
000916:                                                                                                  #  FUNCTIONAL DESCRIPTION:  THESE PROGRAMS PROCESS CHANGES OF BITS 12 AND 11 OF CHANNEL 33.  IF A BIT CHANGES TO A
000917:                                                                                                  #  0, A PROGRAM ALARM IS ISSUED.  THE LAARMS ARE:
000918:
000919:                                                                                                  #        BIT     ALARM   CAUSE
000920:                                                                                                  #        ---     -----   -----
000921:                                                                                                  #         12     01105   DOWNLINK TOO FAST
000922:                                                                                                  #         11     01106   UPLINK TOO FAST
000923:
000924:                                                                                                  #  CALLING SEQUENCE:  BY C33TEST ON A BIT CHANGE.
000925:
000926:                                                                                                  #  SUBROUTINES CALLED:  ALARM, IF A BIT CHANGES TO A 0.
000927:
000928:                                                                                                  #  ERASABLE INITIALIZATION:  FRESH START OR RESTART, BITS 12 AND 11 OF IMODES33 ARE SET TO 1.
000929:
000930:                                                                                                  #  ALARMS:  SET FUNCTGIONAL DESCRIPTION.
000931:
000932:                                                                                                  #  EXIT:  NXTFL33.
000933:
000934:                                                                                                  #  OUTPUT:  PROGRAM ALARM ON A BIT CHANGE TO 0.
000935:
000936: 06,2671           10000        DNTMFAST           CCS      A                                     #  DO PROG ALARM IF TM TOO FAST.
000937: 06,2672           12432                           TCF      NXTFL33
000938:
000939: 06,2673           05567                           TC       ALARM
000940: 06,2674           01105                           OCT      1105
000941: 06,2675           12432                           TCF      NXTFL33
000942:
000943: 06,2676           10000        UPTMFAST           CCS      A                                     #  SAME AS DNLINK TOO FAST WITH DIFFERENT
000944: 06,2677           12432                           TCF      NXTFL33                               #  ALARM CODE.
000945:
000946: 06,2700           05567                           TC       ALARM
000947: 06,2701           01106                           OCT      1106
000948: 06,2702           12432                           TCF      NXTFL33
000949:


000951:                                                                                                  #  PROGRAM NAME:  SETISSW
000952:
000953:                                                                                                  #  FUNCTIONAL DESCRIPTION:  THIS PROGRAM TURNS THE ISS WARNING LAMP ON AND OFF (CHANNEL 11 BIT 1 = 1 FOR ON,
000954:                                                                                                  #  0 FOR OFF) DEPENDING ON THE STATUS OF IMODES30 BITS 13 (IMU FAIL) AND 4 (INHIBIT IMU FAIL), 12 (ICDU FAIL) AND
000955:                                                                                                  #  3 (INHIBIT ICDU FAIL), AND 10 (PIPA FAIL) AND 1 (INHIBIT PIPA FAIL).  THE LAMP IS LEFT ON IF A LAMP TEST IS IN
000956:                                                                                                  #  PROGRESS.
000957:
000958:                                                                                                  #  CALLING SEQUENCE:  CALLED BY IMUMON ON CHANGES TO IMU FAIL AND ICDU FAIL.  CALLED BY IFAILCK AND PFAILOK UPON
000959:                                                                                                  #  REMOVAL OF THE FAIL INHIBITS.  CALLED BY PIPFAIL WHEN THE PIPA FAIL DISCRETE CHANGES.  IT IS CALLED BY PIPUSE
000960:                                                                                                  #  SINCE THE PIPA FAIL PROGRAM ALARM MAY NECESSITATE AN ISS WARNING, AND LIKEWISE BY PIPFREE WHEN THE ALARM DEPARTS
000961:                                                                                                  #  AND IT IS CALLED BY IMUZERO3 AND ISSUP AFTER THE FAIL INHIBITS HAVE BEEN REMOVED.
000962:
000963:                                                                                                  #  JOBS OR TASKS INITIAZTED:  NONE.
000964:
000965:                                                                                                  #  SUBROUTINES CALLED:  NONE.
000966:
000967:                                                                                                  #  ERASABLE INITIALIZATION:
000968:
000969:                                                                                                  #        1) IMODES30 -- SEE IMUMON.
000970:                                                                                                  #        2) IMODES33 BIT 1 = 0 (LAMP TEST NOT IN PROGRESS).
000971:
000972:                                                                                                  #  ALARMS:  ISS WARNING.
000973:
000974:                                                                                                  #  THE FOLLOWING PROGRAM ALARMS WILL SHOW WHICH FAILURE CAUSED THE ISS WARN
000975:                                                                                                  #        PROGRAM ALARM 00777     PIPA FAIL
000976:                                                                                                  #        PROGRAM ALARM 03777     ICDU FAIL
000977:                                                                                                  #        PROGRAM ALARM 04777     ICDU, PIPA FAILS
000978:                                                                                                  #        PROGRAM ALARM 07777     IMU FAIL
000979:                                                                                                  #        PROGRAM ALARM 10777     IMU, PIPA FAILS
000980:                                                                                                  #        PROGRAM ALARM 13777     IMU, ICDU FAILS
000981:                                                                                                  #        PROGRAM ALARM 14777     IMU, ICDU, PIPA FAILS
000982:
000983:                                                                                                  #  EXIT: VIA Q.
000984:
000985:                                                                                                  #  OUTPUT: ISS WARNING LAMP SET PROPERLY.
000986:
000987: 06,2703           34761        SETISSW            CAF      OCT15                                 #  SET ISS WARNING USING THE FAIL BITS IN
000988: 06,2704           71277                           MASK     IMODES30                              #  BITS 13, 12, AND 10 OF IMODES30 AND THE
000989: 06,2705           00006                           EXTEND                                         #  FAILURE INHIBIT BITS IN POSITIONS
000990: 06,2706           74742                           MP       BIT10                                 #  4, 3, AND 1.
000991: 06,2707           31277                           CA       IMODES30
000992: 06,2710           00006                           EXTEND
000993: 06,2711           04001                           ROR      LCHAN                                 #  0 INDICATES FAILURE
000994: 06,2712           40000                           COM
000995: 06,2713           75025                           MASK     OCT15000
000996: 06,2714           10000                           CCS      A
000997: 06,2715           12726                           TCF      ISSWON                                #  FAILURE.
000998:
000999: 06,2716           34753        ISSWOFF            CAF      BIT1                                  #  DON'T TURN OFF ISS WARNING IF LAMP TEST
001000: 06,2717           71300                           MASK     IMODES33                              #  IN PROGRESS.


001002: 06,2720           10000                           CCS      A
001003: 06,2721           00002                           TC       Q
001004:
001005: 06,2722           44753                           CS       BIT1
001006: 06,2723           00006                           EXTEND
001007: 06,2724           03011                           WAND     DSALMOUT
001008: 06,2725           00002                           TC       Q
001009:
001010: 06,2726           00006        ISSWON             EXTEND
001011: 06,2727           22066                           QXCH     ITEMP6
001012: 06,2730           05734                           TC       VARALARM                              #  TELL EVERYONE WHAT CAUSED THE ISS WARNING
001013: 06,2731           34753                           CAF      BIT1
001014: 06,2732           00006                           EXTEND
001015: 06,2733           05011                           WOR      DSALMOUT
001016: 06,2734           00066                           TC       ITEMP6
001017:
001018: 06,2735           43003        CAGESUB            CS       BITS6&15                              #  SET OUTBITS AND INTERNAL FLAGS FOR
001019: 06,2736           00006                           EXTEND                                         #  SYSTEM TURN-ON OR CAGE.  DISABLE THE
001020: 06,2737           03012                           WAND     CHAN12                                #  ERROR COUNTER AND REMOVE THE IMU DELAY COMP.
001021: 06,2740           34763                           CAF      BITS4&5                               #  SEND ZERO AND COARSE.
001022: 06,2741           00006                           EXTEND
001023: 06,2742           05012                           WOR      CHAN12
001024:
001025: 06,2743           41035        CAGESUB1           CS       DSPTAB     +11D                       #  TURN ON NO ATT LAMP
001026: 06,2744           72773                           MASK     OC40010
001027: 06,2745           27035                           ADS      DSPTAB     +11D
001028:
001029: 06,2746           41277        CAGESUB2           CS       IMODES30                              #  SET FLAGS TO INDICATE CAGING OR TURN-ON
001030: 06,2747           72775                           MASK     OCT75                                 #  AND INHIBIT ALL ISS WARNING INFO
001031: 06,2750           27277                           ADS      IMODES30
001032:
001033: 06,2751           41300                           CS       IMODES33                              #  DISABLE DAP AUTO AND HOLD MODES
001034: 06,2752           74746                           MASK     BIT6
001035: 06,2753           27300                           ADS      IMODES33
001036:
001037: 06,2754           00002                           TC       Q
001038:
001039: 06,2755  06,2703               IMUFAIL            EQUALS   SETISSW
001040: 06,2755  06,2703               ICDUFAIL           EQUALS   SETISSW
001041:


001043:                                                                                                  #  JUMP TABLES AND CONSTANTS.
001044:
001045: 06,2755           12533        IFAILJMP           TCF      ITURNON                               #  CHANNEL 30 DISPATCH.
001046: 06,2756           12703                           TCF      IMUFAIL
001047: 06,2757           12703                           TCF      ICDUFAIL
001048: 06,2760           12565                           TCF      IMUCAGE
001049: 06,2761           76400        30RDMSK            OCT      76400                                 #  (BIT 10 NOT SAMPLED HERE).
001050: 06,2762           12622                           TCF      IMUOP
001051:
001052: 06,2763           12650        C33JMP             TCF      PIPFAIL                               #  CHANNEL 33 DISPATCH.
001053: 06,2764           12671                           TCF      DNTMFAST
001054: 06,2765           12676                           TCF      UPTMFAST
001055:
001056:                                                                                                  #  SUBROUTINE TO SKIP IF LAMP TEST NOT IN PROGRESS.
001057:
001058: 06,2766           41300        LAMPTEST           CS       IMODES33                              #  BIT 1 OF IMODES33 = 1 IF LAMP TEST IN
001059: 06,2767           74753                           MASK     BIT1                                  #  PROGRESS.
001060: 06,2770           10000                           CCS      A
001061: 06,2771           24002                           INCR     Q
001062: 06,2772           00002                           TC       Q
001063:
001064: 06,2773     5026               33RDMSK            EQUALS   PRIO16
001065: 06,2773           40010        OC40010            OCT      40010
001066: 06,2774           00054        OCT54              OCT      54
001067: 06,2775           00075        OCT75              OCT      75
001068: 06,2776           00272        OCT272             OCT      00272
001069: 06,2777           00300        BITS7&8            OCT      300
001070: 06,3000           01720        OCT1720            OCT      1720
001071: 06,3001           00740        OCT740             OCT      00740
001072: 06,3002     5025               OCT15000           EQUALS   PRIO15
001073: 06,3002           77000        OCT77000           OCT      77000
001074: 06,3003           40040        BITS6&15           OCT      40040
001075: 06,3004           76777        -BIT10             OCT      -1000
001076:
001077: 06,3005           21450        90SECS             DEC      9000       B-14
001078: 06,3006     5741               120MS              =        OCT14                                 #  (DEC12)
001079: 06,3006     5270               GLOCKOK            EQUALS   RESUME
001080:


001082:                                                                                                  #  PROGRAM NAME:  RRAUTCHK
001083:
001084:                                                                                                  #  FUNCTIONAL DESCRIPTION:
001085:                                                                                                  #  RRAUTCHK IS THE RENDEZFOUS RADAR INBIT MONITOR.  INITIALLY THE RR
001086:                                                                                                  #  POWER ON AUTO (CHAN 33 BIT 2) INBIT IS CHECKED.  IF NO CHANGE, THE
001087:                                                                                                  #  PROGRAM EXITS TO RRCDUCHK.  IF A CHANGE, RADMOES IS UPDATED
001088:                                                                                                  #  AND A CHECK MADE IF RR POWER HAS JUST COME ON.  IF JUST OFF, A CHECK
001089:                                                                                                  #  IS MAKDE TO SEE IF A PROGRAM WAS USING THE RR (STATE BIT 7).  IF NO,
001090:                                                                                                  #  THE PROGRAM EXITS TO RRCDUCHK.  IF YES, PROGRAM ALARM 00514
001091:                                                                                                  #  IS REQUESTED BEFORE EXITING TO RRCDUCHK.  IF RR POWER HAS JUST COME
001092:                                                                                                  #  ON, A CHECK IS MADE TO SEE IF A PROGRAM WAS USING THE RR (STATE BIT 7)
001093:                                                                                                  #  SEQUENCE.  IF NO, RADMODES IS UPDATED TO INDICATE RR CDU ZERO AND
001094:                                                                                                  #  RR TURN-ON SEQUENCE (BITS 13, 1).  A 10 MILLISECOND WAITLIST CALL
001095:                                                                                                  #  IS THEN SET FOR RRTURNON BEFORE THE PROGRAM EXITS TO NORRGMON.
001096:
001097:                                                                                                  #  CALLING SEQUENCE:
001098:                                                                                                  #  T4RUPT EVERY 480 MILLISECONDS
001099:
001100:                                                                                                  #  ERASABLE INITIALIZATION REQUIRED:
001101:                                                                                                  #  RADMODES, STATE.
001102:
001103:                                                                                                  #  SUBROUTINES CALLED:
001104:                                                                                                  #  WAITLIST.
001105:
001106:                                                                                                  #  JOBS OR TASKS INITIATED:
001107:                                                                                                  #  RRTURNON
001108:
001109:                                                                                                  #  ALARMS:  PROGRAM ALARM 00514 -- RADAR GOES OUT OF AUTO MODE WHILE BEING
001110:                                                                                                  #  USED.
001111:
001112:                                                                                                  #  EXIT:  RRCDUCHK, NORRGMON
001113:
001114: 06,3006           30110        RRAUTCHK           CA       RADMODES                              #  SEE IF CHANGE IN RR AUTO MODE BIT.
001115: 06,3007           00006                           EXTEND
001116: 06,3010           06033                           RXOR     CHAN33
001117: 06,3011           74752                           MASK     AUTOMBIT
001118: 06,3012           00006                           EXTEND
001119: 06,3013           13037                           BZF      RRCDUCHK
001120:
001121: 06,3014           22110                           LXCH     RADMODES                              #  UPDATE RADMODES.
001122: 06,3015           00006                           EXTEND
001123: 06,3016           06001                           RXOR     LCHAN
001124: 06,3017           73033                           MASK     OCT05776                              #  CLR CONT. DES., REMODE, REPOS, CDUZERO,
001125: 06,3020           54110                           TS       RADMODES                              #  AND TURNON BITS.
001126: 06,3021           74752                           MASK     BIT2                                  #  SEE IF JUST ON.
001127: 06,3022           10000                           CCS      A
001128: 06,3023           13034                           TCF      RRCDUCHK   -3                         #  OFF.  GO DISABLE RR CDU ERROR COUNTERS.
001129: 06,3024           37666                           CA       OCT10001                              #  SET RRCDUZRO AND TURNON BITS.
001130: 06,3025           26110                           ADS      RADMODES
001131:


001133: 06,3026           34753                           CAF      ONE
001134: 06,3027           05203                           TC       WAITLIST
001135: 06,3030  E7,1456                                  EBANK=   LOSCOUNT
001136: 06,3030           02073 52107                     2CADR    RRTURNON
001137:
001138: 06,3032           13126                           TCF      NORRGMON
001139:
001140: 06,3033           05776        OCT05776           OCT      5776
001141:


001143:                                                                                                  #  PROGRAM NAME: RRCDUCHK
001144:
001145:                                                                                                  #  FUNCTIONAL DESCRIPTION:
001146:                                                                                                  #  RRCDUCHK CHECKS FOR RR CDU FAIL (CHAN 30 BIT 7).  INITIALLY THE
001147:                                                                                                  #  RR CDU FAIL BIT IS SAMPLED (CHAN 30 BIT 7).  IF NO CHANGE, THE
001148:                                                                                                  #  PROGRAM EXITS TO RRGIMON.  IF A CHANGE, THE RR AUTO MODE
001149:                                                                                                  #  (RADMODES BIT 2) BIT IS CHECKED.  IF NOT IN RR AUTO MODE, THE
001150:                                                                                                  #  PROGRAM EXITS TO NORRGMO0N.  IF IN AUTO MODE, RADMODES BIT 7
001151:                                                                                                  #  (RR CDU OK) IS UPDATED AND IF P-20 IS OPERATING PROGRAM ALARM 00515 IS
001152:                                                                                                  #  REQUESTED.  CONTROL IS TRANSFERRED TO SETTRKF TO UPDATE
001153:                                                                                                  #  TEH TRACKER FAIL LAMP (DSPTAB+11D BIT 8).  CONTROL RETURNS TO
001154:                                                                                                  #  RRGIMON.
001155:
001156:                                                                                                  #  CALLING SEQUENCE:
001157:                                                                                                  #  EVERY 480 MILLISECONDS FROM RRAUTCHK (VI T4RUPT) UNLESS A
001158:                                                                                                  #  TURN-ON SEQUENCE HAS JUST BE INITIATED.
001159:
001160:                                                                                                  #  ERASABLE INITIALIZATION REQUIRED:
001161:                                                                                                  #  RADMODES
001162:
001163:                                                                                                  #  SUBROUTINES CALLED:
001164:                                                                                                  #  SETTRKF
001165:
001166:                                                                                                  #  JOBS OR TASKS INITIATED:
001167:                                                                                                  #  NONE
001168:
001169:                                                                                                  #  ALARMS:
001170:                                                                                                  #  TRACKER FAIL
001171:                                                                                                  #  PROGRAM ALARM 00515 -- RRCDU FAIL DURING P-20
001172:
001173:                                                                                                  #  EXIT:
001174:                                                                                                  #  RRGIMON, NORRGMON
001175:
001176: 06,3034           44752                 -3        CS       BIT2
001177: 06,3035           00006                           EXTEND
001178: 06,3036           03012                           WAND     CHAN12                                #  AT TURNON, DISABLE CDU ERROR COUNTERS.
001179:
001180: 06,3037           30110        RRCDUCHK           CA       RADMODES                              #  LAST SAMPLED BIT IN RADMODES.
001181: 06,3040           00006                           EXTEND
001182: 06,3041           06030                           RXOR     CHAN30
001183: 06,3042           74745                           MASK     RCDUFBIT
001184: 06,3043           00006                           EXTEND
001185: 06,3044           13071                           BZF      RRGIMON
001186:
001187: 06,3045           34752                           CAF      AUTOMBIT                              #  IF RR NOT IN AUTO MODE, DON'T CHANGE BIT
001188: 06,3046           70110                           MASK     RADMODES                              #  7 OF RADMODES.  IF THIS WERE NOT DONE,
001189: 06,3047           10000                           CCS      A                                     #  THE TRACKER FAIL MIGHT COME ON WHEN
001190: 06,3050           13126                           TCF      NORRGMON                              #  JUST READING LR DATA.
001191:
001192: 06,3051           34745                           CAF      RCDUFBIT                              #  SET BIT 7 OF RADMODES FOR SETTRKF.


001194: 06,3052           22110                           LXCH     RADMODES                              #  UPDATE RADMODES.
001195: 06,3053           00006                           EXTEND
001196: 06,3054           06001                           RXOR     L
001197: 06,3055           54110                           TS       RADMODES
001198:
001199: 06,3056           30110                           CA       RADMODES                              #  DID RR CDU FAIL
001200: 06,3057           74615                           MASK     13,7,2                                #  CDU ZERO+ CDUFAIL+ RR AUTO
001201: 06,3060           10000                           CCS      A
001202: 06,3061           13070                           TCF      TRKFLCDU                              #  NO
001203: 06,3062           40074                           CS       FLAGWRD0                              #  RNDVFLG P20 OR P22 OPERATING
001204: 06,3063           74745                           MASK     RNDVZBIT
001205: 06,3064           10000                           CCS      A
001206: 06,3065           13070                           TCF      TRKFLCDU                              #  NO
001207: 06,3066           05567                           TC       ALARM                                 #  YES
001208: 06,3067           00515                           OCT      00515
001209: 06,3070           04564        TRKFLCDU           TC       SETTRKF                               #  UPDATE TRAKER FAIL LAMP ON DSKY.
001210:


001212:                                                                                                  #  PROGRAM NAME:  RRGIMON
001213:
001214:                                                                                                  #  FUNCTIONAL DESCRIPTION:
001215:                                                                                                  #  RRGIMON IS THE RR GIMBAL LIMIT MONITOR.  INITIALLY THE FOLLOWING IS
001216:                                                                                                  #  CHECKED:  REMOD, RR CDU'S BEING ZEROED, REPOSITION, AND RR
001217:                                                                                                  #  NOT IN AUTO MODE (RADMODES BITS 14, 13, 11, 2).  IF ANY OF THESE
001218:                                                                                                  #  EXIST THE PROGRAM EXITS TO GPMATRIX.  IF NONT ARE PRESENT RRLIMCHK
001219:                                                                                                  #  IS CALLED TO SEE IF THE PRESENT RR CDU ANGLES (OPTY, OPTX) ARE WITHIN
001220:                                                                                                  #  THE LIMITS OF THE CURRENT MODE.  IF WITHIN LIMITS, THE PROGRAM EXITS
001221:                                                                                                  #  TO NORRGMON.  IF NOT WITHIN LIMITS, THE REPOSITION FLAG (RADMODES
001222:                                                                                                  #  BIT 11) IS SET, THE RR AUTO TRACKER AND RR ERROR COUNTER
001223:                                                                                                  #  (CHAN 12 BITS 14, 2) ARE DISABLED, AND A 20 MILLISECOND WAITLIST
001224:                                                                                                  #  CALL IS SET FOR DORREPOS (garbled) AFTER WHICH THE PROGRAM EXITS TO NORRGMON.
001225:
001226:                                                                                                  #  CALLING SEQUENCE:
001227:                                                                                                  #  EVERY 480 MILLISECONDS FROM RRCDUCHK (VIA T4RUPT) UNLESS TURN-ON
001228:                                                                                                  #  HAS JUST BEEN INITIATED VIA RRAUTCHK OR IF THERE HAS BEEN A CHANGE IN
001229:                                                                                                  #  THE RR CDU FAIL BIT (CHAN 30 BIT 7) AND THE RR IS NOT IN THE AUTO MODE
001230:                                                                                                  #  (RADMODES BIT 2).
001231:
001232:                                                                                                  #  ERASABLE INITIALZATION:  RADMODES
001233:
001234:                                                                                                  #  SUBROUTINES CALLED:
001235:                                                                                                  #  RRLIMCHK, WAITLIST
001236:
001237:                                                                                                  #  JOBS OR TASKS INITIATED:
001238:                                                                                                  #  DORREPOS
001239:
001240:                                                                                                  #  ALARMS:
001241:                                                                                                  #  NONE
001242:
001243:                                                                                                  #  EXIT:
001244:                                                                                                  #  NORRGMON
001245:
001246: 06,3071           30101        RRGIMON            CAE      FLAGWRD5                              #  IS NO ANGLE MONITOR FLAG SET
001247: 06,3072           74750                           MASK     NORRMBIT
001248: 06,3073           10000                           CCS      A
001249: 06,3074           13126                           TCF      NORRGMON                              #  YES -- SKIP LIMIT CHECK
001250: 06,3075           40103                           CS       FLAGWRD7                              #  IS SERVICER RUNNING?
001251: 06,3076           74747                           MASK     AVEGFBIT
001252: 06,3077           10000                           CCS      A
001253: 06,3100           13105                           TCF      +5                                    #  NO. DO R25
001254: 06,3101           30102                           CA       FLAGWRD6                              #  YES. IS MUNFLAG SET?
001255: 06,3102           74744                           MASK     MUNFLBIT
001256: 06,3103           10000                           CCS      A
001257: 06,3104           13126                           TCF      NORRGMON                              #  YES. DON'T DO R25
001258: 06,3105           33135                 +5        CAF      OCT32002                              #  INHIBIT BY REMODE, ZEROING, MONITOR.
001259: 06,3106           70110                           MASK     RADMODES                              #  OR RR NOT IN AUTO.
001260: 06,3107           10000                           CCS      A
001261: 06,3110           13126                           TCF      NORRGMON


001263: 06,3111           04523                           TC       RRLIMCHK                              #  SET IF ANGLES IN LIMITS.
001264: 06,3112           00035                           ADRES    CDUT
001265:
001266: 06,3113           13115                           TCF      MONREPOS
001267:
001268: 06,3114           13126                           TCF      NORRGMON                              #  (ADDITIONAL CODING MAY GO HERE).
001269:
001270: 06,3115           34741        MONREPOS           CAF      REPOSBIT                              #  SET FLAG TO SHOW REPOSITION IN PROGRESS.
001271: 06,3116           26110                           ADS      RADMODES
001272:
001273: 06,3117           43136                           CS       OCT20002                              #  DISABLE TRACKER AND ERROR COUNTER.
001274: 06,3120           00006                           EXTEND
001275: 06,3121           03012                           WAND     CHAN12
001276:
001277: 06,3122           34752                           CAF      TWO
001278: 06,3123           05203                           TC       WAITLIST
001279: 06,3124  E7,1456                                  EBANK=   LOSCOUNT
001280: 06,3124           02140 52107                     2CADR    DORREPOS
001281:
001282: 06,3126           30110        NORRGMON           CA       RADMODES                              #  IF SELECT SWITCH IS NOT IN LGC, SEND RR
001283: 06,3127           74752                           MASK     AUTOMBIT                              #  CDU ZERO BIT TO PREVENT MEMORY CYCLE
001284: 06,3130           10000                           CCS      A                                     #  SNATCHING BY MANIC RR CDUS.  BIT2 OF
001285: 06,3131           13132                           NOOP                                           #  RADMODES AGREES WITH BIT2 OF CHANNEL
001286: 06,3132           00006                           EXTEND                                         #  33. FOR THIS CODING, WHICH ASSUMES
001287: 06,3133           05012                           WOR      CHAN12                                #  AUTOMBIT = BIT2, THANKS TO HUGH B-S.
001288: 06,3134           13140                           TCF      ENDRRMON
001289:
001290: 06,3135  06,3140               ENDRRMON           EQUALS   DAPT4S
001291:
001292: 06,3135           32002        OCT32002           OCT      32002
001293: 06,3136           20002        OCT20002           OCT      20002
001294: 06,3137           02100        OCT02100           OCT      02100                                 #  P20, P22 MASK BITS.
001295:


001297:                                                                                                  #  PROGRAM NAME:  GPMATRIX (DAPT4S) MCD. NO. 2 DATE: OCTOBER 27, 1966
001298:
001299:                                                                                                  #  AUTHOR:  JOHNATHAN D. ADDLELSTON (ADAMS ASSOCIATES)
001300:
001301:                                                                                                  #  MODIFIED:  7FEB. 1968 BY P. S. WEISSMAN TO DELETE COMPUTATION OF MR12 AND MR13, WHICH ARE NO LONGER REQUIRED.
001302:
001303:                                                                                                  #  THIS PROGRAM CALCULATES ALL FHTE SINGLE-PRECISION MATRIX ELEMENTS WHICH ARE USED BY LEM DAP TO TRANSFORM VECTORS
001304:                                                                                                  #  FROM GIMBAL TO PILOT (BODY) AXES AND BACK AGAIN.  THESE ELEMENTS ARE USED EXCLUSIVELY BY BASIC LANGUAGE ROUTINES
001305:                                                                                                  #  AND THEREFORE ARE NOT ARRAYED FOR USE BY INTERPRETIVE PROGRAMS.
001306:
001307:                                                                                                  #  CALLING SEQUENCE:  GPMATRIX IS TRANSFERRED TO FROM DAPT4S AND IS THUS EXECUTED 4 TIMES A SECOND BY T4RUPT.
001308:                                                                                                  #  DAPT4S IS LISTED IN T4JUMP TABLE TWICE EXPLICITLY AND ALSO OCCURS AFTER RRAUTCHK (WHICH IS ALSO LISTED TWICE).
001309:
001310:                                                                                                  #  SUBROUTINES CALLED: SPSIN, SPCOS.
001311:
001312:                                                                                                  #  NORMAL EXIT MODE:  TCF RESUME
001313:
001314:                                                                                                  #  ALARM AND ABORT MODES:  NONE.
001315:
001316:                                                                                                  #  INPUT: CDUX, CDUY, CDUZ.
001317:
001318:                                                                                                  #  OUTPUT:  M11, M21, M32, M22, M32.
001319:
001320:                                                                                                  #  AOG = CDUX, AIG = CDUY, AMG = CDUZ: MNEMONIC IS : OIM = XYZ
001321:
001322:                                                                                                  #                        *       SING(MG)                0                       1       *
001323:                                                                                                  #                M   =   *       COS(MG)COS(OG)          SIN(OG)                 0       *
001324:                                                                                                  #                 GP     *       -COS(MG)SIN(OG)         COS(OG)                 0       *
001325:
001326:                                                                                                  #                        *       0                       COS(OG)/COS(MG)         -SIN(OG)/COS(MG)        *
001327:                                                                                                  #                M   =   *       0                       SIN(OG)                 COS(OG)                 *
001328:                                                                                                  #                 PG     *       1                       -SIN(MG)COS(OG)/COS(MG) SIN(MG)SIN(OG)/COS(MG)  *
001329:
001330: 06,3140  E6,1414                                  EBANK=   M11
001331: 06,3140  06,3140               DAPT4S             EQUALS   GPMATRIX
001332:
001333:                                                                                                  #  T4RUPT DAP LOGIC:
001334:
001335: 06,3140           30034        GPMATRIX           CAE      CDUZ                                  #  SINGLE ENTRY POINT
001336: 06,3141           05033                           TC       SPSIN                                 #  SIN(CDUZ) = SIN(MG)
001337: 06,3142           55414                           TS       M11                                   #  SCALED AT 1
001338:
001339: 06,3143           30034                           CAE      CDUZ
001340: 06,3144           05032                           TC       SPCOS                                 #  COS(CDUZ) = COS(MG)
001341: 06,3145           54061                           TS       COSMG                                 #  SCALED AT 1 (ONLY A FACTOR)
001342:
001343: 06,3146           30032                           CAE      CDUX
001344: 06,3147           05033                           TC       SPSIN                                 #  SIN(CDUX) = SIN(OG)
001345: 06,3150           55417                           TS       M22                                   #  SCALED AT 1 (ALSO IS MR22)
001346:
001347: 06,3151           41417                           CS       M22


001349: 06,3152           00006                           EXTEND
001350: 06,3153           70061                           MP       COSMG                                 #  -SIN(OG)COS(MG)
001351: 06,3154           55416                           TS       M31                                   #  SCALED AT 1
001352:
001353: 06,3155           30032                           CAE      CDUX
001354: 06,3156           05032                           TC       SPCOS                                 #  COS(CDUX) = COS(OG)
001355: 06,3157           55420                           TS       M32                                   #  SCALED AT 1 (ALSO IS MR23)
001356:
001357: 06,3160           00006                           EXTEND
001358: 06,3161           70061                           MP       COSMG                                 #  COS(OG)COS(MG)
001359: 06,3162           55415                           TS       M21                                   #  SCALED AT 1
001360:
001361: 06,3163           05270                           TC       RESUME
001362:
001363: 06,3164     5270               ENDDAPT4           EQUALS   RESUME
001364:

End of include-file T4RUPT_PROGRAM.agc.  Parent file is MAIN.agc


