
Source Code


000002:                                                                                                  ## Copyright:   Public domain.
000003:                                                                                                  ## Filename:    T6-RUPT_PROGRAMS.agc
000004:                                                                                                  ## Purpose:     A section of Luminary 1C, revision 131.
000005:                                                                                                  ##              It is part of the source code for the Lunar Module's (LM)
000006:                                                                                                  ##              Apollo Guidance Computer (AGC) for Apollo 13.
000007:                                                                                                  ##              This file is intended to be a faithful transcription, except
000008:                                                                                                  ##              that the code format has been changed to conform to the
000009:                                                                                                  ##              requirements of the yaYUL assembler rather than the
000010:                                                                                                  ##              original YUL assembler.
000011:                                                                                                  ## Reference:   pp. 1395-1397
000012:                                                                                                  ## Contact:     Ron Burkey <info@sandroid.org>.
000013:                                                                                                  ## Website:     www.ibiblio.org/apollo/index.html
000014:                                                                                                  ## Mod history: 06/07/03 RSB.   Began transcribing.
000015:                                                                                                  ##              05/14/05 RSB    Corrected website reference above.
000016:                                                                                                  ##              2017-01-06 RSB  Page numbers now agree with those on the
000017:                                                                                                  ##                              original hardcopy, as opposed to the PDF page
000018:                                                                                                  ##                              numbers in 1701.pdf.
000019:                                                                                                  ##              2017-02-28 RSB  Proofed comment text using octopus/ProoferComments.
000020:


000022:                                                                                                  #  PROGRAM NAMES:        (1) T6JOBCHK    MOD. NO. 5      OCTOBER 2, 1967
000023:                                                                                                  #                        (2) DOT6RUPT
000024:                                                                                                  #  MODIFICATION BY:      LOWELL G HULL (A.C.ELECTRONICS)
000025:
000026:                                                                                                  #  THESE PROGRAMS ENABLE THE LM DAP TO CONTROL THE THRUST TIMES OF THE REACTION CONTROL SYSTEM JETS BY USING TIME6.
000027:                                                                                                  #  SINCE THE LM DAP MAINTAINS EXCLUSIVE CONTROL OVER TIME6 AND ITS INTERRUPTS, THE FOLLOWING CONVENTIONS HAVE BEEN
000028:                                                                                                  #  ESTABLISHED AND MUST NOT BE TAMPERED WITH:
000029:                                                                                                  #        1.      NO NUMBER IS EVER PLACED INTO TIME6 EXCEPT BY LM DAP.
000030:                                                                                                  #        2.      NO PROGRAM OTHER THAN LM DAP ENABLES THE TIME6 COUNTER.
000031:                                                                                                  #        3.      TO USE TIME6, THE FOLLOWING SEQUENCE IS ALWAYS EMPLOYED:
000032:                                                                                                  #                A.      A POSITIVE (NON-ZERO) NUMBER IS STORED IN TIME6.
000033:                                                                                                  #                B.      THE TIME6 CLOCK IS ENABLED.
000034:                                                                                                  #                C.      TIME6 IS INTERROGATED AND IS:
000035:                                                                                                  #                        I.      NEVER FOUND NEGATIVE (NON-ZERO) OR +0.
000036:                                                                                                  #                        II.     SOMETIMES FOUND POSITIVE (BETWEEN 1 AND 240D) INDICATING THAT IT IS ACTIVE.
000037:                                                                                                  #                        III.    SOMETIMES FOUND POSMAX INDICATING THAT IT IS INACTIVE AND NOT ENABLED.
000038:                                                                                                  #                        IV.     SOMETIMES FOUND NEGATIVE ZERO INDICATING THAT:
000039:                                                                                                  #                                A.      A T6RUPT IS ABOUT TO OCCUR AT THE NEXT DINC, OR
000040:                                                                                                  #                                B.      A T6RUPT IS WAITING IN THE PRIORITY CHAIN, OR
000041:                                                                                                  #                                C.      A T6RUPT IS IN PROCESS NOW.
000042:                                                                                                  #        4.      ALL PROGRAMS WHICH OPERATE IN EITHER INTERRUPT MODE OR WITH INTERRUPT INHIBITED MUST CALL T6JOBCHK
000043:                                                                                                  #                EVERY 5 MILLISECONDS TO PROCESS A POSSIBLE WAITING T6RUPT BEFORE IT CAN BE HONORED BY THE HARDWARE.
000044:                                                                                                  #       (5.      PROGRAM JTLST, IN Q,R-AXES, HANDLES THE INPUT LIST.)
000045:
000046:                                                                                                  #  T6JOBCHK CALLING SEQUENCE:
000047:                                                                                                  #                L       TC      T6JOBCHK
000048:                                                                                                  #                L+1     (RETURN)
000049:
000050:                                                                                                  #  DOT6RUPT CALLING SEQUENCE:
000051:                                                                                                  #                        DXCH    ARUPT           T6RUPT LEAD IN AT LOCATION 4004.
000052:                                                                                                  #                        EXTEND
000053:                                                                                                  #                        DCA     T6ADR
000054:                                                                                                  #                        DTCB
000055:
000056:                                                                                                  #  SUBROUTINES CALLED:   DOT6RUPT CALLS T6JOBCHK.
000057:
000058:                                                                                                  #  NORMAL EXIT MODES:    T6JOBCHK RETURNS TO L +1.
000059:                                                                                                  #                        DOT6RUPT TRANSFERS CONTROL TO RESUME.
000060:
000061:                                                                                                  #  ALARM/ABORT MODES:    NONE.
000062:
000063:                                                                                                  #  INPUT:        TIME6           NXT6ADR         OUTPUT:         TIME6           NXT6ADR         CHANNEL 5
000064:                                                                                                  #                T6NEXT          T6NEXT +1                       T6NEXT          T6NEXT +1       CHANNEL 6
000065:                                                                                                  #                T6FURTHA        T6FURTHA +1                     T6FURTHA        T6FURTHA +1     BIT15/CH13
000066:
000067:                                                                                                  #  DEBRIS:       T6JOBCHK CLOBBERS A.  DOT6RUPT CLOBBERS NOTHING.
000068:
000069:    5743                                           BLOCK    02


000071: 17,2055                                           BANK     17
000072: 17,2000                                           SETLOC   DAPS2
000073: 17,2000                                           BANK
000074: 17,2055  E6,1466                                  EBANK=   T6NEXT
000075: 17,2055                                           COUNT*   $$/DAPT6
000076:
000077: 17,2055           10031        T6JOBCHK           CCS      TIME6                                 #  CHECK TIME6 FOR WAITING T6RUPT:
000078: 17,2056           00002                           TC       Q                                     #  NONE: CLOCK COUTING DOWN.
000079: 17,2057           05675                           TC       CCSHOLE
000080: 17,2060           05675                           TC       CCSHOLE
000081:
000082:                                                                                                  #  CONTROL PASSES TO T6JOB ONLY WHEN C(TIME6) = -0 (I.E. WHEN A T6RUPT MUST BE PROCESSED).
000083:
000084: 17,2061           34733        T6JOB              CA       POSMAX
000085: 17,2062           22007                           ZL
000086: 17,2063           53471                           DXCH     T6FURTHA
000087: 17,2064           53467                           DXCH     T6NEXT
000088: 17,2065           23465                           LXCH     NXT6ADR
000089: 17,2066           54031                           TS       TIME6
000090:
000091: 17,2067           67730                           AD       PRIO37
000092: 17,2070           54000                           TS       A
000093: 17,2071           12075                           TCF      ENABLET6
000094: 17,2072           34733                           CA       POSMAX
000095: 17,2073           54031                           TS       TIME6
000096: 17,2074           12115                           TCF      GOCH56
000097: 17,2075           00006        ENABLET6           EXTEND
000098: 17,2076           23265                           QXCH     C13QSAV
000099: 17,2077           22070                           LXCH     RUPTREG1
000100: 17,2100           06022                           TC       C13STALL
000101: 17,2101           00006                           EXTEND
000102: 17,2102           23265                           QXCH     C13QSAV
000103: 17,2103           22070                           LXCH     RUPTREG1
000104: 17,2104           34735                           CAF      BIT15
000105: 17,2105           00006                           EXTEND
000106: 17,2106           05013                           WOR      CHAN13
000107: 17,2107           31466                           CA       T6NEXT
000108: 17,2110           67730                           AD       PRIO37
000109: 17,2111           54000                           TS       A
000110: 17,2112           12115                           TCF      GOCH56
000111: 17,2113           34733                           CA       POSMAX
000112: 17,2114           55466                           TS       T6NEXT
000113: 17,2115           50001        GOCH56             INDEX    L
000114: 17,2116           15743                           TCF      WRITEP     -1
000115:
000116:    5743                                           BLOCK    02
000117:    4000                                           SETLOC   FFTAG9
000118:    4000                                           BANK
000119:    5743  E6,1634                                  EBANK=   CDUXD
000120:    5743                                           COUNT*   $$/DAPT6


000122:    5743           31472                           CA       NEXTP
000123:    5744           00006        WRITEP             EXTEND
000124:    5745           01006                           WRITE    CHAN6
000125:    5746           00002                           TC       Q
000126:
000127:    5747           31473                           CA       NEXTU
000128:    5750           54001        WRITEU             TS       L
000129:    5751           45764                           CS       00314OCT
000130:    5752           00006                           EXTEND
000131:    5753           02005                           RAND     CHAN5
000132:    5754           60001                           AD       L
000133:    5755           00006                           EXTEND
000134:    5756           01005                           WRITE    CHAN5
000135:    5757           00002                           TC       Q
000136:
000137:    5760           31474                           CA       NEXTV
000138:    5761           54001        WRITEV             TS       L
000139:    5762           35764                           CA       00314OCT
000140:    5763           15752                           TCF      -9D
000141:    5764           00314        00314OCT           OCT      00314
000142:
000143: 17,2117                                           BANK     17
000144: 17,2000                                           SETLOC   DAPS2
000145: 17,2000                                           BANK
000146:
000147: 17,2117  E6,1466                                  EBANK=   T6NEXT
000148: 17,2117                                           COUNT*   $$/DAPT6
000149:
000150: 17,2117           22016        DOT6RUPT           LXCH     BANKRUPT                              #  (INTERRUPT LEAD INS CONTINUED)
000151: 17,2120           00006                           EXTEND
000152: 17,2121           22012                           QXCH     QRUPT
000153:
000154: 17,2122           02055                           TC       T6JOBCHK                              #  CALL T6JOBCHK.
000155:
000156: 17,2123           15270                           TCF      RESUME                                #  END TIME6 INTERRUPT PROCESSOR.
000157:
000158:

End of include-file T6-RUPT_PROGRAMS.agc.  Parent file is MAIN.agc


