
Source Code


000002:                                                                                                  ## Copyright:   Public domain.
000003:                                                                                                  ## Filename:    T6-RUPT_PROGRAMS.agc
000004:                                                                                                  ## Purpose:     A section of Luminary 1C, revision 131.
000005:                                                                                                  ##              It is part of the source code for the Lunar Module's (LM)
000006:                                                                                                  ##              Apollo Guidance Computer (AGC) for Apollo 13 and Apollo 14.
000007:                                                                                                  ##              This file is intended to be a faithful transcription, except
000008:                                                                                                  ##              that the code format has been changed to conform to the
000009:                                                                                                  ##              requirements of the yaYUL assembler rather than the
000010:                                                                                                  ##              original YUL assembler.
000011:                                                                                                  ## Reference:   pp. 1400-1402 of 1729.pdf.
000012:                                                                                                  ## Contact:     Ron Burkey <info@sandroid.org>.
000013:                                                                                                  ## Website:     www.ibiblio.org/apollo/index.html
000014:                                                                                                  ## Mod history: 06/07/03 RSB.   Began transcribing.
000015:                                                                                                  ##              05/14/05 RSB    Corrected website reference above.
000016:


000018:                                                                                                  #  PROGRAM NAMES:        (1) T6JOBCHK    MOD. NO. 5      OCTOBER 2, 1967
000019:                                                                                                  #                        (2) DOT6RUPT
000020:                                                                                                  #  MODIFICATION BY:      LOWELL G. HULL (A.C.ELECTRONICS)
000021:
000022:                                                                                                  #  THESE PROGRAMS ENABLE THE LM DAP TO CONTROL THE THRUST TIMES OF THE REACTION CONTROL SYSTEM JETS BY USING TIME6.
000023:                                                                                                  #  SINCE THE LM DAP MAINTAINS EXCLUSIVE CONTROL OVER TIME6 AND ITS INTERRUPTS, THE FOLLOWING CONVENTIONS HAVE BEEN
000024:                                                                                                  #  ESTABLISHED AND MUST NOT BE TAMPERED WITH:
000025:                                                                                                  #        1.      NO NUMBER IS EVER PLACED INTO TIME6 EXCEPT BY LM DAP.
000026:                                                                                                  #        2.      NO PROGRAM OTHER THAN LM DAP ENABLES THE TIME6 COUNTER.
000027:                                                                                                  #        3.      TO USE TIME6, THE FOLLOWING SEQUENCE IS ALWAYS EMPLOYED:
000028:                                                                                                  #                A.      A POSITIVE (NON-ZERO) NUMBER IS STORED IN TIME6.
000029:                                                                                                  #                B.      THE TIME6 CLOCK IS ENABLED.
000030:                                                                                                  #                C.      TIME6 IS INTERROGATED AND IS:
000031:                                                                                                  #                        I.      NEVER FOUND NEGATIVE (NON-ZERO) OR +0.
000032:                                                                                                  #                        II.     SOMETIMES FOUND POSITIVE (BETWEEN 1 AND 240D) INDICATING THAT IT IS ACTIVE.
000033:                                                                                                  #                        III.    SOMETIMES FOUND POSMAX INDICATING THAT IT IS INACTIVE AND NOT ENABLED.
000034:                                                                                                  #                        IV.     SOMETIMES FOUND NEGATIVE ZERO INDICATING THAT:
000035:                                                                                                  #                                A.      A T6RUPT IS ABOUT TO OCCUR AT THE NEXT DINC, OR
000036:                                                                                                  #                                B.      A T6RUPT IS WAITING IN THE PRIORITY CHAIN, OR
000037:                                                                                                  #                                C.      A T6RUPT IS IN PROCESS NOW.
000038:                                                                                                  #        4.      ALL PROGRAMS WHICH OPERATE IN EITHER INTERRUPT MODE OR WITH INTERRUPT INHIBITED MUST CALL T6JOBCHK
000039:                                                                                                  #                EVERY 5 MILLISECONDS TO PROCESS A POSSIBLE WAITING T6RUPT BEFORE IT CAN BE HONORED BY THE HARDWARE.
000040:                                                                                                  #       (5.      PROGRAM JTLST, IN Q,R-AXES, HANDLES THE INPUT LIST.)
000041:
000042:                                                                                                  #  T6JOBCHK CALLING SEQUENCE:
000043:                                                                                                  #                L       TC      T6JOBCHK
000044:                                                                                                  #                L+1     (RETURN)
000045:
000046:                                                                                                  #  DOT6RUPT CALLING SEQUENCE:
000047:                                                                                                  #                        DXCH    ARUPT           # T6RUPT LEAD IN AT LOCATION 4004.
000048:                                                                                                  #                        EXTEND
000049:                                                                                                  #                        DCA     T6ADR
000050:                                                                                                  #                        DTCB
000051:
000052:                                                                                                  #  SUBROUTINES CALLED:   DOT6RUPT CALLS T6JOBCHK.
000053:
000054:                                                                                                  #  NORMAL EXIT MODES:    T6JOBCHK RETURNS TO L +1.
000055:                                                                                                  #                        DOT6RUPT TRANSFERS CONTROL TO RESUME.
000056:
000057:                                                                                                  #  ALARM/ABORT MODES:    NONE.
000058:
000059:                                                                                                  #  INPUT:        TIME6           NXT6ADR         OUTPUT:         TIME6           NXT6ADR         CHANNEL 5
000060:                                                                                                  #                T6NEXT          T6NEXT +1                       T6NEXT          T6NEXT +1       CHANNEL 6
000061:                                                                                                  #                T6FURTHA        T6FURTHA +1                     T6FURTHA        T6FURTHA +1     BIT15/CH13
000062:
000063:                                                                                                  #  DEBRIS:       T6JOBCHK CLOBBERS A.  DOT6RUPT CLOBBERS NOTHING.
000064:
000065:    5743                                           BLOCK    02


000067: 17,2055                                           BANK     17
000068: 17,2000                                           SETLOC   DAPS2
000069: 17,2000                                           BANK
000070: 17,2055  E6,1466                                  EBANK=   T6NEXT
000071: 17,2055                                           COUNT*   $$/DAPT6
000072:
000073: 17,2055           10031        T6JOBCHK           CCS      TIME6                                 #  CHECK TIME6 FOR WAITING T6RUPT:
000074: 17,2056           00002                           TC       Q                                     #  NONE: CLOCK COUNTING DOWN.
000075: 17,2057           05675                           TC       CCSHOLE
000076: 17,2060           05675                           TC       CCSHOLE
000077:
000078:                                                                                                  #  CONTROL PASSES TO T6JOB ONLY WHEN C(TIME6) = -0 (I.E., WHEN A T6RUPT MUST BE PROCESSED).
000079:
000080: 17,2061           34733        T6JOB              CA       POSMAX
000081: 17,2062           22007                           ZL
000082: 17,2063           53471                           DXCH     T6FURTHA
000083: 17,2064           53467                           DXCH     T6NEXT
000084: 17,2065           23465                           LXCH     NXT6ADR
000085: 17,2066           54031                           TS       TIME6
000086:
000087: 17,2067           67730                           AD       PRIO37
000088: 17,2070           54000                           TS       A
000089: 17,2071           12075                           TCF      ENABLET6
000090: 17,2072           34733                           CA       POSMAX
000091: 17,2073           54031                           TS       TIME6
000092: 17,2074           12115                           TCF      GOCH56
000093: 17,2075           00006        ENABLET6           EXTEND
000094: 17,2076           23265                           QXCH     C13QSAV
000095: 17,2077           22070                           LXCH     RUPTREG1
000096: 17,2100           06022                           TC       C13STALL
000097: 17,2101           00006                           EXTEND
000098: 17,2102           23265                           QXCH     C13QSAV
000099: 17,2103           22070                           LXCH     RUPTREG1
000100: 17,2104           34735                           CAF      BIT15
000101: 17,2105           00006                           EXTEND
000102: 17,2106           05013                           WOR      CHAN13
000103: 17,2107           31466                           CA       T6NEXT
000104: 17,2110           67730                           AD       PRIO37
000105: 17,2111           54000                           TS       A
000106: 17,2112           12115                           TCF      GOCH56
000107: 17,2113           34733                           CA       POSMAX
000108: 17,2114           55466                           TS       T6NEXT
000109: 17,2115           50001        GOCH56             INDEX    L
000110: 17,2116           15743                           TCF      WRITEP     -1
000111:
000112:    5743                                           BLOCK    02
000113:    4000                                           SETLOC   FFTAG9
000114:    4000                                           BANK
000115:    5743  E6,1634                                  EBANK=   CDUXD
000116:    5743                                           COUNT*   $$/DAPT6


000118:    5743           31472                           CA       NEXTP
000119:    5744           00006        WRITEP             EXTEND
000120:    5745           01006                           WRITE    CHAN6
000121:    5746           00002                           TC       Q
000122:
000123:    5747           31473                           CA       NEXTU
000124:    5750           54001        WRITEU             TS       L
000125:    5751           45764                           CS       00314OCT
000126:    5752           00006                           EXTEND
000127:    5753           02005                           RAND     CHAN5
000128:    5754           60001                           AD       L
000129:    5755           00006                           EXTEND
000130:    5756           01005                           WRITE    CHAN5
000131:    5757           00002                           TC       Q
000132:
000133:    5760           31474                           CA       NEXTV
000134:    5761           54001        WRITEV             TS       L
000135:    5762           35764                           CA       00314OCT
000136:    5763           15752                           TCF      -9D
000137:    5764           00314        00314OCT           OCT      00314
000138:
000139: 17,2117                                           BANK     17
000140: 17,2000                                           SETLOC   DAPS2
000141: 17,2000                                           BANK
000142:
000143: 17,2117  E6,1466                                  EBANK=   T6NEXT
000144: 17,2117                                           COUNT*   $$/DAPT6
000145:
000146: 17,2117           22016        DOT6RUPT           LXCH     BANKRUPT                              #  (INTERRUPT LEAD-INS CONTINUED)
000147: 17,2120           00006                           EXTEND
000148: 17,2121           22012                           QXCH     QRUPT
000149:
000150: 17,2122           02055                           TC       T6JOBCHK                              #  CALL T6JOBCHK.
000151:
000152: 17,2123           15270                           TCF      RESUME                                #  END TIME6 INTERRUPT PROCESSOR.
000153:
000154:

End of include-file T6-RUPT_PROGRAMS.agc.  Parent file is MAIN.agc


