
Source Code


000002:                                                                                                  ## Copyright:   Public domain.
000003:                                                                                                  ## Filename:    TAGS_FOR_RELATIVE_SETLOC.agc
000004:                                                                                                  ## Purpose:     Header information for Luminary 1C, revision 131.
000005:                                                                                                  ##              It is part of the source code for the Lunar Module's (LM)
000006:                                                                                                  ##              Apollo Guidance Computer (AGC) for Apollo 13 and Apollo 14.
000007:                                                                                                  ##              This file is intended to be a faithful transcription, except
000008:                                                                                                  ##              that the code format has been changed to conform to the
000009:                                                                                                  ##              requirements of the yaYUL assembler rather than the
000010:                                                                                                  ##              original YUL assembler.
000011:                                                                                                  ## Reference:   Pages 33-42 of 1729.pdf.
000012:                                                                                                  ## Contact:     Ron Burkey <info@sandroid.org>.
000013:                                                                                                  ## Website:     www.ibiblio.org/apollo/index.html
000014:                                                                                                  ## Mod history: 04/23/03 RSB.   First draft.
000015:                                                                                                  ##              05/14/05 RSB    Corrected website reference above.
000016:                                                                                                  ##
000017:                                                                                                  ## The contents of this file, and all associated "Luminary131" files, are
000018:                                                                                                  ## transcribed from a scanned document obtained from MIT's website,
000019:                                                                                                  ## http://hrst.mit.edu/hrs/apollo/public/archive/1729.pdf.  Notations on this
000020:                                                                                                  ## document read, in part:
000021:                                                                                                  ##
000022:                                                                                                  ##      NASA Apollo LUMINARY 131 (1C) Program Source Code Listing.
000023:                                                                                                  ##      MIT Instrumentation/Draper Laboratory -- 19 December 1969, 1742 pages.
000024:                                                                                                  ##      This listing contains the flight program for the Lunar Module
000025:                                                                                                  ##      as created by MIT's Draper Lab for the Apollo 13/14 moon missions.
000026:                                                                                                  ##
000027:                                                                                                  ## Refer directly to the online document mentioned above for further information.
000028:                                                                                                  ## Please report any errors in this listing (relative to 1729.pdf) to info@sandroid.org.
000029:


000031:                                                                                                  #  TAGS FOR RELATIVE SETLOC AND BLANK BANK CARDS
000032:
000033: ???????                                           COUNT    BANKSUM
000034:
000035:                                                                                                  #  MODULE 1 CONTAINS BANKS 0 THROUGH 5
000036:
000037:    4000                                           BLOCK    02
000038:    4000                        RADARFF            EQUALS
000039:    4000                        FFTAG1             EQUALS
000040:    4000                        FFTAG2             EQUALS
000041:    4000                        FFTAG3             EQUALS
000042:    4000                        FFTAG4             EQUALS
000043:    4000                        FFTAG7             EQUALS
000044:    4000                        FFTAG8             EQUALS
000045:    4000                        FFTAG9             EQUALS
000046:    4000                        FFTAG10            EQUALS
000047:    4000                        FFTAG11            EQUALS
000048:    4000                        FFTAG12            EQUALS
000049:    4000                        FFTAG13            EQUALS
000050:    4000                                           BNKSUM   02
000051:
000052:    6000                                           BLOCK    03
000053:    6000                        FFTAG5             EQUALS
000054:    6000                        FFTAG6             EQUALS
000055:    6000                                           BNKSUM   03
000056:
000057: 00,2000                                           BANK     00
000058: 00,2000                        DLAYJOB            EQUALS
000059: 00,2000                                           BNKSUM   00
000060:
000061: 01,2000                                           BANK     01
000062: 01,2000                        RESTART            EQUALS
000063: 01,2000                        LOADDAP1           EQUALS
000064: 01,2000                                           BNKSUM   01
000065:
000066: 04,2000                                           BANK     04
000067: 04,2000                        ORBITAL3           EQUALS
000068: 04,2000                        R02                EQUALS
000069: 04,2000                        VERB37             EQUALS
000070: 04,2000                        PINBALL4           EQUALS
000071: 04,2000                        CONICS1            EQUALS
000072: 04,2000                        KEYRUPT            EQUALS
000073: 04,2000                        R36LM              EQUALS
000074: 04,2000                        UPDATE2            EQUALS
000075: 04,2000                        E/PROG             EQUALS
000076: 04,2000                        AOTMARK2           EQUALS
000077:


000079:
000080: 04,2000                                           BNKSUM   04
000081:
000082: 05,2000                                           BANK     05
000083: 05,2000                        FRANDRES           EQUALS
000084: 05,2000                        DOWNTELM           EQUALS
000085: 05,2000                        ABORTS1            EQUALS
000086: 05,2000                        EPHEM1             EQUALS
000087: 05,2000                        ASENT3             EQUALS
000088: 05,2000                                           BNKSUM   05
000089:
000090:                                                                                                  #  MODULE 2 CONTAINS BANKS 6 THROUGH 13
000091:
000092: 06,2000                                           BANK     06
000093: 06,2000                        IMUCOMP            EQUALS
000094: 06,2000                        T4RUP              EQUALS
000095: 06,2000                        RCSMONT            EQUALS
000096: 06,2000                        MIDDGIM            EQUALS
000097: 06,2000                        EARTHLOC           EQUALS
000098: 06,2000                                           BNKSUM   06
000099:
000100: 07,2000                                           BANK     07
000101: 07,2000                        AOTMARK1           EQUALS
000102: 07,2000                        MODESW             EQUALS
000103: 07,2000                        ASENT2             EQUALS
000104: 07,2000                                           BNKSUM   07
000105:
000106: 10,2000                                           BANK     10
000107: 10,2000                        RTBCODES           EQUALS
000108: 10,2000                        DISPLAYS           EQUALS
000109: 10,2000                        PHASETAB           EQUALS
000110: 10,2000                        FLESHLOC           EQUALS
000111: 10,2000                        SLCTMU             EQUALS
000112: 10,2000                                           BNKSUM   10
000113:
000114: 11,2000                                           BANK     11
000115: 11,2000                        ORBITAL            EQUALS
000116: 11,2000                        F2DPS*11           EQUALS
000117: 11,2000                        INTVEL             EQUALS
000118: 11,2000                                           BNKSUM   11
000119:


000121: 12,2000                                           BANK     12
000122: 12,2000                        CONICS             EQUALS
000123: 12,2000                        ORBITAL1           EQUALS
000124: 12,2000                        INTPRET2           EQUALS
000125: 12,2000                                           BNKSUM   12
000126:
000127: 13,2000                                           BANK     13
000128: 13,2000                        LATLONG            EQUALS
000129: 13,2000                        INTINIT            EQUALS
000130: 13,2000                        LEMGEOM            EQUALS
000131: 13,2000                        P76LOC             EQUALS
000132: 13,2000                        ORBITAL2           EQUALS
000133: 13,2000                        ABTFLGS            EQUALS
000134: 13,2000                                           BNKSUM   13
000135:


000137:                                                                                                  #  BANK 3 CONTAINS BANKS 14 THROUGH 21
000138:
000139: 14,2000                                           BANK     14
000140: 14,2000                        P50S1              EQUALS
000141: 14,2000                        STARTAB            EQUALS
000142: 14,2000                        ASENT4             EQUALS
000143: 14,2000                                           BNKSUM   14
000144:
000145: 15,2000                                           BANK     15
000146: 15,2000                        P50S               EQUALS
000147: 15,2000                        EPHEM              EQUALS
000148: 15,2000                                           BNKSUM   15
000149:
000150: 16,2000                                           BANK     16
000151: 16,2000                        DAPS1              EQUALS
000152: 16,2000                                           BNKSUM   16
000153:
000154: 17,2000                                           BANK     17
000155: 17,2000                        DAPS2              EQUALS
000156: 17,2000                        C13BANK            EQUALS
000157: 17,2000                                           BNKSUM   17
000158:
000159: 20,2000                                           BANK     20
000160: 20,2000                        DAPS3              EQUALS
000161: 20,2000                        LOADDAP            EQUALS
000162: 20,2000                                           BNKSUM   20
000163:
000164: 21,2000                                           BANK     21
000165: 21,2000                        DAPS4              EQUALS
000166: 21,2000                        R10                EQUALS
000167: 21,2000                        R11                EQUALS
000168: 21,2000                                           BNKSUM   21


000170:
000171:                                                                                                  #  MODULE 4 CONTAINS BANKS 22 THROUGH 27
000172:
000173: 22,2000                                           BANK     22
000174: 22,2000                        KALCMON1           EQUALS
000175: 22,2000                        KALCMON2           EQUALS
000176: 22,2000                        R30LOC             EQUALS
000177: 22,2000                        RENDEZ             EQUALS
000178: 22,2000                        SERV2              EQUALS
000179: 22,2000                        LANDCNST           EQUALS
000180: 22,2000                                           BNKSUM   22
000181:
000182: 23,2000                                           BANK     23
000183: 23,2000                        POWFLITE           EQUALS
000184: 23,2000                        POWFLIT1           EQUALS
000185: 23,2000                        INFLIGHT           EQUALS
000186: 23,2000                        APOPERI            EQUALS
000187: 23,2000                        R61                EQUALS
000188: 23,2000                        R62                EQUALS
000189: 23,2000                        INTPRET1           EQUALS
000190: 23,2000                        MEASINC            EQUALS
000191: 23,2000                        MEASINC1           EQUALS
000192: 23,2000                        EXTVB1             EQUALS
000193: 23,2000                        P12A               EQUALS
000194: 23,2000                        NORMLIZ            EQUALS
000195: 23,2000                        ASENT7             EQUALS
000196: 23,2000                        RODTRAP            EQUALS
000197: 23,2000                                           BNKSUM   23
000198:
000199: 24,2000                                           BANK     24
000200: 24,2000                        PLANTIN            EQUALS
000201: 24,2000                        P20S               EQUALS
000202: 24,2000                                           BNKSUM   24
000203:
000204: 25,2000                                           BANK     25
000205: 25,2000                        P20S1              EQUALS
000206: 25,2000                        P20S2              EQUALS
000207: 25,2000                        RADARUPT           EQUALS
000208: 25,2000                        RRLEADIN           EQUALS
000209: 25,2000                        R29S1              EQUALS
000210: 25,2000                        PLANTIN3           EQUALS
000211: 25,2000                                           BNKSUM   25
000212:
000213: 26,2000                                           BANK     26


000215: 26,2000                        P20S3              EQUALS
000216: 26,2000                        BAWLANGS           EQUALS
000217: 26,2000                        MANUVER            EQUALS
000218: 26,2000                        MANUVER1           EQUALS
000219: 26,2000                        PLANTIN1           EQUALS
000220: 26,2000                        PLANTIN2           EQUALS
000221: 26,2000                                           BNKSUM   26
000222:
000223: 27,2000                                           BANK     27
000224: 27,2000                        TOF-FF             EQUALS
000225: 27,2000                        TOF-FF1            EQUALS
000226: 27,2000                        P40S1              EQUALS
000227: 27,2000                        VECPT              EQUALS
000228: 27,2000                        ASENT1             EQUALS
000229: 27,2000                        SERV3              EQUALS
000230: 27,2000                                           BNKSUM   27
000231:


000233:                                                                                                  #  MODULE 5 CONTAINS BANKS 30 THROUGH 35
000234:
000235: 30,2000                                           BANK     30
000236: 30,2000                        LOWSUPER           EQUALS
000237: 30,2000                        P12                EQUALS
000238: 30,2000                        ASENT              EQUALS
000239: 30,2000                        FCDUW              EQUALS
000240: 30,2000                        FLOGSUB            EQUALS
000241: 30,2000                        VB67A              EQUALS
000242: 30,2000                        ASENT5             EQUALS
000243: 30,2000                                           BNKSUM   30
000244:
000245: 31,2000                                           BANK     31
000246: 31,2000                        FTHROT             EQUALS
000247: 31,2000                        F2DPS*31           EQUALS
000248: 31,2000                        VB67               EQUALS
000249: 31,2000                                           BNKSUM   31
000250:
000251: 32,2000                                           BANK     32
000252: 32,2000                        P20S4              EQUALS
000253: 32,2000                        F2DPS*32           EQUALS
000254: 32,2000                        ABORTS             EQUALS
000255: 32,2000                        LRS22              EQUALS
000256: 32,2000                        P66LOC             EQUALS
000257: 32,2000                        R47                EQUALS
000258: 32,2000                        SERV               EQUALS
000259: 32,2000                                           BNKSUM   32
000260:
000261: 33,2000                                           BANK     33
000262: 33,2000                        SERVICES           EQUALS
000263: 33,2000                        R29/SERV           EQUALS
000264: 33,2000                        ASENT6             EQUALS
000265: 33,2000                                           BNKSUM   33
000266:
000267: 34,2000                                           BANK     34
000268: 34,2000                        ASENT8             EQUALS
000269: 34,2000                        P30S1              EQUALS
000270: 34,2000                        CSI/CDH1           EQUALS
000271: 34,2000                        ASCFILT            EQUALS
000272: 34,2000                        R12STUFF           EQUALS
000273: 34,2000                        SERV4              EQUALS
000274: 34,2000                        F2DPS*34           EQUALS


000276: 34,2000                                           BNKSUM   34
000277:
000278: 35,2000                                           BANK     35
000279: 35,2000                        CSI/CDH            EQUALS
000280: 35,2000                        P30S               EQUALS
000281: 35,2000                        P40S3              EQUALS
000282: 35,2000                        P40S2              EQUALS
000283: 35,2000                                           BNKSUM   35
000284:


000286:                                                                                                  #  MODULE 6 CONTAINS BANKS 36 THROUGH 43
000287:
000288: 36,2000                                           BANK     36
000289: 36,2000                        P40S               EQUALS
000290: 36,2000                                           BNKSUM   36
000291:
000292: 37,2000                                           BANK     37
000293: 37,2000                        P05P06             EQUALS
000294: 37,2000                        IMU2               EQUALS
000295: 37,2000                        IMU4               EQUALS
000296: 37,2000                        R31                EQUALS
000297: 37,2000                        IMUSUPER           EQUALS
000298: 37,2000                        SERV1              EQUALS
000299: 37,2000                                           BNKSUM   37
000300:
000301: 40,2000                                           BANK     40
000302: 40,2000                        PINBALL1           EQUALS
000303: 40,2000                        SELFSUPR           EQUALS
000304: 40,2000                        PINSUPER           EQUALS
000305: 40,2000                        R31LOC             EQUALS
000306: 40,2000                                           BNKSUM   40
000307:
000308: 41,2000                                           BANK     41
000309: 41,2000                        PINBALL2           EQUALS
000310: 41,2000                                           BNKSUM   41
000311:
000312: 42,2000                                           BANK     42
000313: 42,2000                        SBAND              EQUALS
000314: 42,2000                        PINBALL3           EQUALS
000315: 42,2000                                           BNKSUM   42
000316:
000317: 43,2000                                           BANK     43
000318: 43,2000                        EXTVERBS           EQUALS
000319: 43,2000                        SELFCHEC           EQUALS
000320: 43,2000                                           BNKSUM   43
000321:


000323:
000324: 43,2000  23,2523               HI6ZEROS           EQUALS   ZEROVECS                              #  ZERO VECTOR ALWAYS IN HIGH MEMORY
000325: 43,2000  12,2006               LO6ZEROS           EQUALS   ZEROVEC                               #  ZERO VECTOR ALWAYS IN LOW MEMORY
000326: 43,2000  23,2521               HIDPHALF           EQUALS   UNITX
000327: 43,2000  12,2004               LODPHALF           EQUALS   XUNIT
000328: 43,2000  23,2513               HIDP1/4            EQUALS   DP1/4TH                               #  (line is garbled)
000329: 43,2000  04,3002               LODP1/4            EQUALS   D1/4                                  #  2DEC .25
000330: 43,2000  23,2521               HIUNITX            EQUALS   UNITX
000331: 43,2000  23,2517               HIUNITY            EQUALS   UNITY
000332: 43,2000  23,2515               HIUNITZ            EQUALS   UNITZ
000333: 43,2000  12,2004               LOUNITX            EQUALS   XUNIT                                 #  2DEC .5
000334: 43,2000  12,2002               LOUNITY            EQUALS   YUNIT                                 #  2DEC 0
000335: 43,2000  12,2000               LOUNITZ            EQUALS   ZUNIT                                 #  2DEC 0
000336:
000337: 43,2000  22,3541               DELRSPL            EQUALS   SPLRET                                #  COL PGM, ALSO CALLED BY R30 IN LUMINARY.
000338:
000339:                                                                                                  #  ROPE-SPECIFIC ASSIGNS OBVIATING NEED TO CHECK COMPUTER FLAG IN (garbled) DETERMINING INTEGRATION AREA ENTRIES.
000340:
000341: 43,2000  13,2733               ATOPTHIS           EQUALS   ATOPLEM
000342: 43,2000  13,2660               ATOPOTH            EQUALS   ATOPCSM
000343: 43,2000  13,3042               OTHPREC            EQUALS   CSMPREC
000344: 43,2000  0000174               MOONTHIS           EQUALS   LMOONFLG
000345: 43,2000  0000173               MOONOTH            EQUALS   CMOONFLG
000346: 43,2000  13,2746               MOVATHIS           EQUALS   MOVEALEM
000347: 43,2000  12,2017               RMM                =        LODPMAX
000348: 43,2000  12,2021               RME                =        LODPMAX1
000349: 43,2000  13,3056               THISPREC           EQUALS   LEMPREC
000350: 43,2000  23,2515               THISAXIS           =        UNITZ
000351: 43,2000  23,2515               NB1NB2             EQUALS   THISAXIS                              #  FOR R31
000352: 43,2000     5011               ERASID             EQUALS   BITS2-10                              #  DOWNLINK ERASABLE DUMP IO
000353: 43,2000     4752               DELAYNUM           EQUALS   TWO
000354:

End of include-file TAGS_FOR_RELATIVE_SETLOC.agc.  Parent file is MAIN.agc


