
Source Code


000002:                                                                                                  ## Copyright:   Public domain.
000003:                                                                                                  ## Filename:    THE_LUNAR_LANDING.agc
000004:                                                                                                  ## Purpose:     A section of Luminary 1C, revision 131.
000005:                                                                                                  ##              It is part of the source code for the Lunar Module's (LM)
000006:                                                                                                  ##              Apollo Guidance Computer (AGC) for Apollo 13.
000007:                                                                                                  ##              This file is intended to be a faithful transcription, except
000008:                                                                                                  ##              that the code format has been changed to conform to the
000009:                                                                                                  ##              requirements of the yaYUL assembler rather than the
000010:                                                                                                  ##              original YUL assembler.
000011:                                                                                                  ## Reference:   pp. 780-787
000012:                                                                                                  ## Contact:     Ron Burkey <info@sandroid.org>.
000013:                                                                                                  ## Website:     www.ibiblio.org/apollo/index.html
000014:                                                                                                  ## Mod history: 05/25/03 RSB.   Began transcribing.
000015:                                                                                                  ##              05/14/05 RSB    Corrected website reference above.
000016:                                                                                                  ##              2017-01-06 RSB  Page numbers now agree with those on the
000017:                                                                                                  ##                              original hardcopy, as opposed to the PDF page
000018:                                                                                                  ##                              numbers in 1701.pdf.
000019:                                                                                                  ##              2017-02-25 RSB  Proofed comment text using octopus/ProoferComments.
000020:                                                                                                  ##              2017-03-01 RSB  Fixed lingering typos.
000021:


000023: 32,3000                                           BANK     32
000024: 32,2000                                           SETLOC   F2DPS*32
000025: 32,2000                                           BANK
000026:
000027: 32,3000  E7,1621                                  EBANK=   E2DPS
000028:
000029:                                                                                                  #        ****************************************
000030:                                                                                                  #        P63: THE LUNAR LANDING, BRAKING PHASE
000031:                                                                                                  #        ****************************************
000032:
000033: 32,3000                                           COUNT*   $$/P63
000034:
000035: 32,3000           05353        P63LM              TC       PHASCHNG
000036: 32,3001           04024                           OCT      04024
000037:
000038: 32,3002           04616                           TC       BANKCALL                              #  DO IMU STATUS CHECK ROUTINE R02
000039: 32,3003           11233                           CADR     R02BOTH
000040:
000041: 32,3004           33255                           CAF      P63ADRES                              #  INITIALIZE WHICH FOR BURNBABY
000042: 32,3005           55455                           TS       WHICH
000043:
000044: 32,3006           32000                           CAF      DPSTHRSH                              #  INITIALIZE DVMON
000045: 32,3007           55250                           TS       DVTHRUSH
000046: 32,3010           34751                           CAF      FOUR
000047: 32,3011           55515                           TS       DVCNTR
000048:
000049: 32,3012           44753                           CS       ONE                                   #  INITIALIZE WCHPHASE AND FLPASS0
000050: 32,3013           55346                           TS       WCHPHASE
000051:
000052: 32,3014           34755                           CA       ZERO
000053: 32,3015           55623                           TS       FLPASS0
000054:
000055: 32,3016           44736                           CS       BIT14
000056: 32,3017           00006                           EXTEND
000057: 32,3020           03012                           WAND     CHAN12                                #  REMOVE TRACK-ENABLE DISCRETE.
000058:
000059: 32,3021           06042        FLAGORGY           TC       INTPRET                               #  DIONYSIAN FLAG WAVING
000060: 32,3022           43014                           CLEAR    CLEAR
000061: 32,3023           02663                                    NOTHROTL
000062: 32,3024           03271                                    REDFLAG
000063: 32,3025           43014                           CLEAR    SET
000064: 32,3026           05660                                    LRBYPASS
000065: 32,3027           03067                                    MUNFLAG
000066: 32,3030           43014                           CLEAR    CLEAR
000067: 32,3031           00266                                    P25FLAG                               #  TERMINATE P25 IF IT IS RUNNING.
000068: 32,3032           00270                                    RNDVZFLG                              #  TERMINATE P20 IF IT IS RUNNING
000069:
000070:                                                                                                  #  ****************************************
000071:
000072: 32,3033           77201        IGNALG             SETPD    VLOAD                                 #  FIRST SET UP INPUTS FOR RP-TO-R:-


000074: 32,3034           00001                                    0                                     #        AT 0D LANDING SITE IN MOON FIXED FRAME
000075: 32,3035           02023                                    RLS                                   #        AT 6D ESTIMATED TIME OF LANDING
000076: 32,3036           41525                           PDDL     PUSH                                  #        MPAC NON-ZERO TO INDICATE LUNAR CASE
000077: 32,3037           02401                                    TLAND
000078: 32,3040           37625                           STCALL   TPIP                                  #  ALSO SET TPIP FOR FIRST GUIDANCE PASS
000079: 32,3041           55716                                    RP-TO-R
000080: 32,3042           64312                           VSL4     MXV
000081: 32,3043           01734                                    REFSMMAT
000082: 32,3044           37635                           STCALL   LAND
000083: 32,3045           71343                                    GUIDINIT                              #  GUIDINIT INITIALIZES WM AND /LAND/
000084: 32,3046           45345                           DLOAD    DSU
000085: 32,3047           02401                                    TLAND
000086: 32,3050           25262                                    GUIDDURN
000087: 32,3051           34041                           STCALL   TDEC1                                 #  INTEGRATE STATE FORWARD TO THAT TIME
000088: 32,3052           27056                                    LEMPREC
000089: 32,3053           77331                           SSP      VLOAD
000090: 32,3054           03647                                    NIGNLOOP
000091: 32,3055           00050                                    40D
000092: 32,3056           06522                                    UNITX
000093: 32,3057           26575                           STOVL    CG
000094: 32,3060           06520                                    UNITY
000095: 32,3061           26603                           STOVL    CG         +6
000096: 32,3062           06516                                    UNITZ
000097: 32,3063           16611                           STODL    CG         +14
000098: 32,3064           25260                                    99999CON
000099: 32,3065           27665                           STOVL    DELTAH                                #  INITIALIZE DELTAH FOR V16N68 DISPLAY
000100: 32,3066           06524                                    ZEROVECS
000101: 32,3067           17253                           STODL    UNFC/2                                #  INITIALIZE TRIM VELOCITY CORRECTION TERM
000102: 32,3070           06524                                    HI6ZEROS
000103: 32,3071           03643                           STORE    TTF/8
000104:
000105: 32,3072           77745        IGNALOOP           DLOAD
000106: 32,3073           00015                                    TAT
000107: 32,3074           27561                           STOVL    PIPTIME1
000108: 32,3075           00017                                    RATT1
000109: 32,3076           64312                           VSL4     MXV
000110: 32,3077           01734                                    REFSMMAT
000111: 32,3100           37521                           STCALL   R
000112: 32,3101           67067                                    MUNGRAV
000113: 32,3102           35236                           STCALL   GDT/2
000114: 32,3103           62415                                    ?GUIDSUB                              #  WHICH DELIVERS N PASSES OF GUIDANCE
000115:
000116:                                                                                                  #  DDUMCALC IS PROGRAMMED AS FOLLOWS:-
000117:                                                                                                  #                                          2                                           -
000118:                                                                                                  #               (RIGNZ - RGU )/16 + 16(RGU  )KIGNY/B8 + (RGU - RIGNX)KIGNX/B4 + (ABVAL(VGU) - VIGN)KIGNV/B4
000119:                                                                                                  #                           2             1                 0
000120:                                                                                                  #        DDUM = -------------------------------------------------------------------------------------------
000121:                                                                                                  #                                                 10
000122:                                                                                                  #                                                2   (VGU - 16 VGU KIGNX/B4)


000124:                                                                                                  #                                                        2        0
000125:                                                                                                  #  THE NUMERATOR IS SCALED IN METERS AT 2(28).  THE DENOMINATOR IS A VELOCITY IN UNITS OF 2(10) M/CS.
000126:                                                                                                  #  THE QUOTIENT IS THUS A TIME IN UNITS OF 2(18) CENTISECONDS.  THE FINAL SHIFT RESCALES TO UNITS OF 2(28) CS.
000127:                                                                                                  #  THERE IS NO DAMPING FACTOR.  THE CONSTANTS KIGNX/B4, KIGNY/88 AND KIGNV/B4 ARE ALL NEGATIVE IN SIGN.
000128:
000129: 32,3104           55646        DDUMCALC           TS       NIGNLOOP
000130: 32,3105           06042                           TC       INTPRET
000131: 32,3106           57345                           DLOAD    DMPR                                  #  FORM DENOMINATOR FIRST
000132: 32,3107           03627                                    VGU
000133: 32,3110           02501                                    KIGNX/B4
000134: 32,3111           44232                           SL4R     BDSU
000135: 32,3112           03633                                    VGU        +4
000136: 32,3113           45325                           PDDL     DSU
000137: 32,3114           02477                                    RIGNZ
000138: 32,3115           02633                                    RGU        +4
000139: 32,3116           65222                           SR4R     PDDL
000140: 32,3117           02631                                    RGU        +2
000141: 32,3120           57316                           DSQ      DMPR
000142: 32,3121           02503                                    KIGNY/B8
000143: 32,3122           65232                           SL4R     PDDL
000144: 32,3123           02627                                    RGU
000145: 32,3124           57225                           DSU      DMPR
000146: 32,3125           02475                                    RIGNX
000147: 32,3126           02501                                    KIGNX/B4
000148: 32,3127           51515                           PDVL     ABVAL
000149: 32,3130           03627                                    VGU
000150: 32,3131           57225                           DSU      DMPR
000151: 32,3132           02473                                    VIGN
000152: 32,3133           02505                                    KIGNV/B4
000153: 32,3134           43215                           DAD      DAD
000154: 32,3135           56215                           DAD      DDV
000155: 32,3136           77661                           SRR
000156: 32,3137           21613                                    10D
000157:
000158: 32,3140           43206                           PUSH     DAD
000159: 32,3141           03561                                    PIPTIME1
000160: 32,3142           14041                           STODL    TDEC1                                 #  STORE NEW GUESS FOR NEXT INTEGRATION
000161: 32,3143           45246                           ABS      DSU
000162: 32,3144           25264                                    DDUMCRIT
000163: 32,3145           45040                           BMN      CALL
000164: 32,3146           65165                                    DDUMGOOD
000165: 32,3147           27410                                    INTSTALL
000166: 32,3150           43014                           SET      SET
000167: 32,3151           01473                                    INTYPFLG
000168: 32,3152           00063                                    MOONFLAG
000169: 32,3153           77745                           DLOAD
000170: 32,3154           03561                                    PIPTIME1
000171: 32,3155           25517                           STOVL    TET                                   #  HOPEFULLY ?GUIDSUB DID NOT
000172: 32,3156           00017                                    RATT1                                 #        CLOBBER RATT1 AND VATT1


000174: 32,3157           25535                           STOVL    RCV
000175: 32,3160           00025                                    VATT1
000176: 32,3161           35543                           STCALL   VCV
000177: 32,3162           27106                                    INTEGRVS
000178: 32,3163           77650                           GOTO
000179: 32,3164           65072                                    IGNALOOP
000180:
000181: 32,3165           54335        DDUMGOOD           SLOAD    SR
000182: 32,3166           03423                                    ZOOMTIME
000183: 32,3167           20617                                    14D
000184: 32,3170           77621                           BDSU
000185: 32,3171           00041                                    TDEC1
000186: 32,3172           27442                           STOVL    TIG                                   #  COMPUTE DISTANCE LANDING SITE WILL BE
000187: 32,3173           03527                                    V                                     #    OUT OF LM'S ORBITAL PLANE AT IGNITION:
000188: 32,3174           53435                           VXV      UNIT                                  #    SIGN IS + IF LANDING SITE IS TO THE
000189: 32,3175           03521                                    R                                     #    RIGHT, NORTH; - IF TO THE LEFT, SOUTH.
000190: 32,3176           72441                           DOT      SL1
000191: 32,3177           03635                                    LAND
000192: 32,3200           26617        R60INIT            STOVL    OUTOFPLN                              #  INITIALIZATION FOR CALCMANU
000193: 32,3201           03253                                    UNFC/2
000194: 32,3202           02621                           STORE    R60VSAVE                              #  STORE UNFC/2 TEMPORARILY IN R60SAVE
000195: 32,3203           77776                           EXIT
000196:                                                                                                  #  ****************************************
000197:
000198: 32,3204           05353        IGNALGRT           TC       PHASCHNG                              #  PREVENT REPEATING IGNALG
000199: 32,3205           04024                           OCT      04024
000200:
000201: 32,3206           44362        ASTNCLOK           CS       ASTNDEX
000202: 32,3207           04616                           TC       BANKCALL
000203: 32,3210           74670                           CADR     STCLOK2
000204: 32,3211           15155                           TCF      ENDOFJOB                              #  RETURN IN NEW JOB AND IN EBANK FIVE
000205:
000206: 32,3212           06042        ASTNRET            TC       INTPRET
000207: 32,3213           47131                           SSP      RTB                                   #  GO PICK UP DISPLAY AT END OF R51:
000208: 32,3214           02747                                    QMAJ                                  #        "PROCEED" WILL DO A FINE ALIGNMENT
000209: 32,3215           65217                           FCADR    P63SPOT2                              #        "ENTER" WILL RETURN TO P63SPOT2
000210: 32,3216           31127                                    R51P63
000211: 32,3217           53575        P63SPOT2           VLOAD    UNIT                                  #  INITIALIZE KALCMANU FOR BURN ATTITUDE
000212: 32,3220           02621                                    R60VSAVE
000213: 32,3221           27773                           STOVL    POINTVSM
000214: 32,3222           06522                                    UNITX
000215: 32,3223           03765                           STORE    SCAXIS
000216: 32,3224           77776                           EXIT
000217:
000218: 32,3225           35016                           CAF      EBANK7
000219: 32,3226           54003                           TS       EBANK
000220:
000221: 32,3227           00004                           INHINT
000222: 32,3230           04674                           TC       IBNKCALL
000223: 32,3231           40143                           CADR     PFLITEDB


000225: 32,3232           00003                           RELINT
000226:
000227: 32,3233           04616                           TC       BANKCALL
000228: 32,3234           54123                           CADR     R60LEM
000229:
000230: 32,3235           05353                           TC       PHASCHNG                              #  PREVENT RECALLING R60
000231: 32,3236           04024                           OCT      04024
000232:
000233: 32,3237           34746        P63SPOT3           CA       BIT6                                  #  IS THE LR ANTENNA IN POSITION 1 YET
000234: 32,3240           00006                           EXTEND
000235: 32,3241           02033                           RAND     CHAN33
000236: 32,3242           00006                           EXTEND
000237: 32,3243           13251                           BZF      P63SPOT4                              #  BRANCH IF ANTENNA ALREADY IN POSITION 1
000238:
000239: 32,3244           33256                           CAF      CODE500                               #  ASTRONAUT:    PLEASE CRANK THE
000240: 32,3245           04616                           TC       BANKCALL                              #                SILLY THING AROUND
000241: 32,3246           20624                           CADR     GOPERF1
000242: 32,3247           16001                           TCF      GOTOPOOH                              #  TERMINATE
000243: 32,3250           13237                           TCF      P63SPOT3                              #  PROCEED       SEE IF HE'S LYING
000244:
000245: 32,3251           04616        P63SPOT4           TC       BANKCALL                              #  ENTER         INITIALIZE LANDING RADAR
000246: 32,3252           67701                           CADR     SETPOS1
000247:
000248: 32,3253           04635                           TC       POSTJUMP                              #  OFF TO SEE THE WIZARD ...
000249: 32,3254           74130                           CADR     BURNBABY
000250:
000251:                                                                                                  #        ---------------------------------
000252:
000253:                                                                                                  #  CONSTANTS FOR P63LM AND IGNALG
000254:
000255: 32,3255           02100        P63ADRES           GENADR   P63TABLE
000256:
000257: 32,3256     4362               ASTNDEX            =        MD1                                   #  OCT 25:  INDEX FOR CLOKTASK
000258:
000259: 32,3256           00500        CODE500            OCT      00500
000260:
000261: 32,3257           00035 30373  99999CON           2DEC     30479.7    B-24
000262:
000263: 32,3261           00004 01610  GUIDDURN           2DEC     +66440     B-28                       #  GUIDDURN +6.64400314 E+2
000264: 32,3263           00000 00010  DDUMCRIT           2DEC     +8         B-28                       #  CRITERION FOR IGNALG CONVERGENCE
000265:


000267:                                                                                                  #        --------------------------------
000268:


000270:                                                                                                  #        ****************************************
000271:                                                                                                  #        P68: LANDING CONFIRMATION
000272:                                                                                                  #        ****************************************
000273:
000274: 34,3271                                           BANK     34
000275: 34,2000                                           SETLOC   F2DPS*34
000276: 34,2000                                           BANK
000277:
000278: 34,3271                                           COUNT*   $$/P6567
000279:
000280: 34,3271           05353        LANDJUNK           TC       PHASCHNG
000281: 34,3272           04024                           OCT      04024
000282:
000283: 34,3273           00004                           INHINT
000284: 34,3274           04616                           TC       BANKCALL                              #  ZERO ATTITUDE ERROR
000285: 34,3275           40154                           CADR     ZATTEROR
000286:
000287: 34,3276           06042                           TC       INTPRET                               #  TO INTERPRETIVE AS TIME IS NOT CRITICAL
000288: 34,3277           77614                           SET                                            #  PREVENT RCS JET FIRINGS IF MODE CONT IS
000289: 34,3300           06460                                    PULSEFLG                              #  IN ATT HOLD
000290: 34,3301           43014                           SET      CLEAR
000291: 34,3302           04067                                    SURFFLAG
000292: 34,3303           04666                                    LETABORT
000293: 34,3304           77214                           SET      VLOAD
000294: 34,3305           05062                                    APSFLAG
000295: 34,3306           01220                                    RN
000296: 34,3307           16032                           STODL    ALPHAV
000297: 34,3310           01234                                    PIPTIME
000298: 34,3311           45014                           SET      CALL
000299: 34,3312           01463                                    LUNAFLAG
000300: 34,3313           26347                                    LAT-LONG
000301: 34,3314           77201                           SETPD    VLOAD                                 #  COMPUTE RLS AND STORE IT AWAY
000302: 34,3315           00001                                    0
000303: 34,3316           01220                                    RN
000304: 34,3317           65352                           VSL2     PDDL
000305: 34,3320           01234                                    PIPTIME
000306: 34,3321           45006                           PUSH     CALL
000307: 34,3322           51700                                    R-TO-RP
000308: 34,3323           02023                           STORE    RLS
000309: 34,3324           77776                           EXIT
000310: 34,3325           33342                           CAF      V06N43*                               #  ASTRONAUT:  NOW LOOK WHERE YOU ENDED UP
000311: 34,3326           04616                           TC       BANKCALL
000312: 34,3327           20477                           CADR     GOFLASH
000313: 34,3330           16001                           TCF      GOTOPOOH                              #  TERMINATE
000314: 34,3331           13333                           TCF      +2                                    #  PROCEED
000315: 34,3332           13325                           TCF      -5                                    #  RECYCLE
000316:
000317: 34,3333           06042                           TC       INTPRET
000318: 34,3334           77775                           VLOAD                                          #  INITIALIZE GSAV AND (USING REFMF)


000320: 34,3335           06522                                    UNITX                                 #  YNBSAV, ZNBSAV AND ATTFLAG FOR P57
000321: 34,3336           36231                           STCALL   GSAV
000322: 34,3337           33471                                    REFMF
000323: 34,3340           77776                           EXIT
000324:
000325: 34,3341           16001                           TCF      GOTOPOOH                              #  ASTRONAUT:  PLEASE SELECT P57
000326:
000327: 34,3342           01453        V06N43*            VN       0643
000328:

End of include-file THE_LUNAR_LANDING.agc.  Parent file is MAIN.agc


