
Source Code
000001:                                                                                                 #  Copyright:     Public domain.
000002:                                                                                                 #  Filename:      THE_LUNAR_LANDING.agc
000003:                                                                                                 #  Purpose:       A section of Luminary 1C, revision 131.
000004:                                                                                                 #                 It is part of the source code for the Lunar Module's (LM)
000005:                                                                                                 #                 Apollo Guidance Computer (AGC) for Apollo 13 and Apollo 14.
000006:                                                                                                 #                 This file is intended to be a faithful transcription, except
000007:                                                                                                 #                 that the code format has been changed to conform to the
000008:                                                                                                 #                 requirements of the yaYUL assembler rather than the
000009:                                                                                                 #                 original YUL assembler.
000010:                                                                                                 #  Reference:     pp. 785-792 of 1729.pdf.
000011:                                                                                                 #  Contact:       Ron Burkey <info@sandroid.org>.
000012:                                                                                                 #  Website:       www.ibiblio.org/apollo/index.html
000013:                                                                                                 #  Mod history:   05/25/03 RSB.   Began transcribing.
000014:                                                                                                 #                 05/14/05 RSB    Corrected website reference above.
000015:
000016:                                                                                                 #  Page 785
000017: 32,3000                                          BANK     32
000018: 32,2000                                          SETLOC   F2DPS*32
000019: 32,2000                                          BANK
000020:
000021: 32,3000  E7,1621                                 EBANK=   E2DPS
000022:
000023:                                                                                                 #         *************************************
000024:                                                                                                 #         P63: THE LUNAR LANDING, BRAKING PHASE
000025:                                                                                                 #         *************************************
000026:
000027: 32,3000                                          COUNT*   $$/P63
000028:
000029: 32,3000           05353        P63LM             TC       PHASCHNG
000030: 32,3001           04024                          OCT      04024
000031:
000032: 32,3002           04616                          TC       BANKCALL                              #  DO IMU STATUS CHECK ROUTINE R02
000033: 32,3003           11233                          CADR     R02BOTH
000034:
000035: 32,3004           33255                          CAF      P63ADRES                              #  INITIALIZE WHICH FOR BURNBABY
000036: 32,3005           55455                          TS       WHICH
000037:
000038: 32,3006           32000                          CAF      DPSTHRSH                              #  INITIALIZE DVMON
000039: 32,3007           55250                          TS       DVTHRUSH
000040: 32,3010           34751                          CAF      FOUR
000041: 32,3011           55515                          TS       DVCNTR
000042:
000043: 32,3012           44753                          CS       ONE                                   #  INITIALIZE WCHPHASE AND FLPASS0
000044: 32,3013           55346                          TS       WCHPHASE
000045:
000046: 32,3014           34755                          CA       ZERO
000047: 32,3015           55623                          TS       FLPASS0
000048:
000049: 32,3016           44736                          CS       BIT14
000050: 32,3017           00006                          EXTEND
000051: 32,3020           03012                          WAND     CHAN12                                #  REMOVE TRACK-ENABLE DISCRETE.
000052:
000053: 32,3021           06042        FLAGORGY          TC       INTPRET                               #  DIONYSIAN FLAG WAVING
000054: 32,3022           43014                          CLEAR    CLEAR
000055: 32,3023           02663                                   NOTHROTL
000056: 32,3024           03271                                   REDFLAG
000057: 32,3025           43014                          CLEAR    SET
000058: 32,3026           05660                                   LRBYPASS
000059: 32,3027           03067                                   MUNFLAG
000060: 32,3030           43014                          CLEAR    CLEAR
000061: 32,3031           00266                                   P25FLAG                               #  TERMINATE P25 IF IT IS RUNNING.
000062: 32,3032           00270                                   RNDVZFLG                              #  TERMINATE P20 IF IT IS RUNNING.
000063:
000064:                                                                                                 #  ********************************
000065:
000066: 32,3033           77201        IGNALG            SETPD    VLOAD                                 #  FIRST SET UP INPUTS FOR RP-TO-R:
000067:                                                                                                 #  Page 786
000068: 32,3034           00001                                   0                                     #         AT 0D LANDING SITE IN MOON FIXED FRAME
000069: 32,3035           02023                                   RLS                                   #         AT 6D ESTIMATED TIME OF LANDING
000070: 32,3036           41525                          PDDL     PUSH                                  #         MPAC NON-ZERO TO INDICATE LUNAR CASE
000071: 32,3037           02401                                   TLAND
000072: 32,3040           37625                          STCALL   TPIP                                  #  ALSO SET TPIP FOR FIRST GUIDANCE PASS
000073: 32,3041           55716                                   RP-TO-R
000074: 32,3042           64312                          VSL4     MXV
000075: 32,3043           01734                                   REFSMMAT
000076: 32,3044           37635                          STCALL   LAND
000077: 32,3045           71343                                   GUIDINIT                              #  GUIDINIT INITIALIZES WM AND /LAND/
000078: 32,3046           45345                          DLOAD    DSU
000079: 32,3047           02401                                   TLAND
000080: 32,3050           25262                                   GUIDDURN
000081: 32,3051           34041                          STCALL   TDEC1                                 #  INTEGRATE STATE FORWARD TO THAT TIME
000082: 32,3052           27056                                   LEMPREC
000083: 32,3053           77331                          SSP      VLOAD
000084: 32,3054           03647                                   NIGNLOOP
000085: 32,3055           00050                                   40D
000086: 32,3056           06522                                   UNITX
000087: 32,3057           26575                          STOVL    CG
000088: 32,3060           06520                                   UNITY
000089: 32,3061           26603                          STOVL    CG         +6
000090: 32,3062           06516                                   UNITZ
000091: 32,3063           16611                          STODL    CG         +14
000092: 32,3064           25260                                   99999CON
000093: 32,3065           27665                          STOVL    DELTAH                                #  INITIALIZE DELTAH FOR V16N68 DISPLAY
000094: 32,3066           06524                                   ZEROVECS
000095: 32,3067           17253                          STODL    UNFC/2                                #  INITIALIZE TRIM VELOCITY CORRECTION TERM
000096: 32,3070           06524                                   HI6ZEROS
000097: 32,3071           03643                          STORE    TTF/8
000098:
000099: 32,3072           77745        IGNALOOP          DLOAD
000100: 32,3073           00015                                   TAT
000101: 32,3074           27561                          STOVL    PIPTIME1
000102: 32,3075           00017                                   RATT1
000103: 32,3076           64312                          VSL4     MXV
000104: 32,3077           01734                                   REFSMMAT
000105: 32,3100           37521                          STCALL   R
000106: 32,3101           67067                                   MUNGRAV
000107: 32,3102           35236                          STCALL   GDT/2
000108: 32,3103           62415                                   ?GUIDSUB                              #  WHICH DELIVERS N PASSES OF GUIDANCE
000109:
000110:                                                                                                 #  DDUMCALC IS PROGRAMMED AS FOLLOWS:
000111:                                                                                                 #                                          2                                           ___
000112:                                                                                                 #               (RIGNZ - RGU )/16 + 16(RGU  )KIGNY/B8 + (RGU - RIGNX)KIGNX/B4 + (ABVAL(VGU) - VIGN)KIGNV/B4
000113:                                                                                                 #                           2             1                 0
000114:                                                                                                 #         DDUM = -------------------------------------------------------------------------------------------
000115:                                                                                                 #                                                 10
000116:                                                                                                 #                                                2   (VGU - 16 VGU KIGNX/B4)
000117:                                                                                                 #                                                        2        0
000118:                                                                                                 #  Page 787
000119:                                                                                                 #  THE NUMERATOR IS SCALED IN METERS AT 2(28).  THE DENOMINATOR IS A VELOCITY IN UNITS OF 2(10) M/CS.
000120:                                                                                                 #  THE QUOTIENT IS THUS A TIME IN UNITS OF 2(18) CENTISECONDS.  THE FINAL SHIFT RESCALES TO UNITS OF 2(28) CS.
000121:                                                                                                 #  THERE IS NO DAMPING FACTOR.  THE CONSTANTS KIGNX/B4, KIGNY/88 AND KIGNV/B4 ARE ALL NEGATIVE IN SIGN.
000122:
000123: 32,3104           55646        DDUMCALC          TS       NIGNLOOP
000124: 32,3105           06042                          TC       INTPRET
000125: 32,3106           57345                          DLOAD    DMPR                                  #  FORM DENOMINATOR FIRST
000126: 32,3107           03627                                   VGU
000127: 32,3110           02501                                   KIGNX/B4
000128: 32,3111           44232                          SL4R     BDSU
000129: 32,3112           03633                                   VGU        +4
000130: 32,3113           45325                          PDDL     DSU
000131: 32,3114           02477                                   RIGNZ
000132: 32,3115           02633                                   RGU        +4
000133: 32,3116           65222                          SR4R     PDDL
000134: 32,3117           02631                                   RGU        +2
000135: 32,3120           57316                          DSQ      DMPR
000136: 32,3121           02503                                   KIGNY/B8
000137: 32,3122           65232                          SL4R     PDDL
000138: 32,3123           02627                                   RGU
000139: 32,3124           57225                          DSU      DMPR
000140: 32,3125           02475                                   RIGNX
000141: 32,3126           02501                                   KIGNX/B4
000142: 32,3127           51515                          PDVL     ABVAL
000143: 32,3130           03627                                   VGU
000144: 32,3131           57225                          DSU      DMPR
000145: 32,3132           02473                                   VIGN
000146: 32,3133           02505                                   KIGNV/B4
000147: 32,3134           43215                          DAD      DAD
000148: 32,3135           56215                          DAD      DDV
000149: 32,3136           77661                          SRR
000150: 32,3137           21613                                   10D
000151:
000152: 32,3140           43206                          PUSH     DAD
000153: 32,3141           03561                                   PIPTIME1
000154: 32,3142           14041                          STODL    TDEC1                                 #  STORE NEW GUESS FOR NEXT INTEGRATION
000155: 32,3143           45246                          ABS      DSU
000156: 32,3144           25264                                   DDUMCRIT
000157: 32,3145           45040                          BMN      CALL
000158: 32,3146           65165                                   DDUMGOOD
000159: 32,3147           27410                                   INTSTALL
000160: 32,3150           43014                          SET      SET
000161: 32,3151           01473                                   INTYPFLG
000162: 32,3152           00063                                   MOONFLAG
000163: 32,3153           77745                          DLOAD
000164: 32,3154           03561                                   PIPTIME1
000165: 32,3155           25517                          STOVL    TET                                   #  HOPEFULLY ?GUIDSUB DID NOT
000166: 32,3156           00017                                   RATT1                                 #         CLOBBER RATT1 AND VATT1
000167:                                                                                                 #  Page 788
000168: 32,3157           25535                          STOVL    RCV
000169: 32,3160           00025                                   VATT1
000170: 32,3161           35543                          STCALL   VCV
000171: 32,3162           27106                                   INTEGRVS
000172: 32,3163           77650                          GOTO
000173: 32,3164           65072                                   IGNALOOP
000174:
000175: 32,3165           54335        DDUMGOOD          SLOAD    SR
000176: 32,3166           03423                                   ZOOMTIME
000177: 32,3167           20617                                   14D
000178: 32,3170           77621                          BDSU
000179: 32,3171           00041                                   TDEC1
000180: 32,3172           27442                          STOVL    TIG                                   #  COMPUTE DISTANCE LANDING SITE WILL BE
000181: 32,3173           03527                                   V                                     #         OUT OF LM'S ORBITAL PLANE AT IGNITION:
000182: 32,3174           53435                          VXV      UNIT                                  #         SIGN IS + IF LANDING SITE IS TO THE
000183: 32,3175           03521                                   R                                     #         RIGHT, NORTH; IF TO THE LEFT, SOUTH.
000184: 32,3176           72441                          DOT      SL1
000185: 32,3177           03635                                   LAND
000186: 32,3200           26617        R60INIT           STOVL    OUTOFPLN                              #  INITIALIZATION FOR CALCMANU
000187: 32,3201           03253                                   UNFC/2
000188: 32,3202           02621                          STORE    R60VSAVE                              #  STORE UNFC/2 TEMPORARILY IN R60SAVE
000189: 32,3203           77776                          EXIT
000190:                                                                                                 #  *******************************************
000191:
000192: 32,3204           05353        IGNALGRT          TC       PHASCHNG                              #  PREVENT REPEATING IGNALG
000193: 32,3205           04024                          OCT      04024
000194:
000195: 32,3206           44362        ASTNCLOK          CS       ASTNDEX
000196: 32,3207           04616                          TC       BANKCALL
000197: 32,3210           74670                          CADR     STCLOK2
000198: 32,3211           15155                          TCF      ENDOFJOB                              #  RETURN IN NEW JOB AND IN EBANK FIVE
000199:
000200: 32,3212           06042        ASTNRET           TC       INTPRET
000201: 32,3213           47131                          SSP      RTB                                   #  GO PICK UP DISPLAY AT END OF R51:
000202: 32,3214           02747                                   QMAJ                                  #         "PROCEED" WILL DO A FINE ALIGNMENT
000203: 32,3215           65217                          FCADR    P63SPOT2                              #         "ENTER" WILL RETURN TO P63SPOT2
000204: 32,3216           31127                                   R51P63
000205: 32,3217           53575        P63SPOT2          VLOAD    UNIT                                  #  INITIALIZE KALCMANU FOR BURN ATTITUDE
000206: 32,3220           02621                                   R60VSAVE
000207: 32,3221           27773                          STOVL    POINTVSM
000208: 32,3222           06522                                   UNITX
000209: 32,3223           03765                          STORE    SCAXIS
000210: 32,3224           77776                          EXIT
000211:
000212: 32,3225           35016                          CAF      EBANK7
000213: 32,3226           54003                          TS       EBANK
000214:
000215: 32,3227           00004                          INHINT
000216: 32,3230           04674                          TC       IBNKCALL
000217: 32,3231           40143                          CADR     PFLITEDB
000218:                                                                                                 #  Page 789
000219: 32,3232           00003                          RELINT
000220:
000221: 32,3233           04616                          TC       BANKCALL
000222: 32,3234           54123                          CADR     R60LEM
000223:
000224: 32,3235           05353                          TC       PHASCHNG                              #  PREVENT RECALLINE R60
000225: 32,3236           04024                          OCT      04024
000226:
000227: 32,3237           34746        P63SPOT3          CA       BIT6                                  #  IS THE LR ANTENNA IN POSITION 1 YET
000228: 32,3240           00006                          EXTEND
000229: 32,3241           02033                          RAND     CHAN33
000230: 32,3242           00006                          EXTEND
000231: 32,3243           13251                          BZF      P63SPOT4                              #  BRANCH IF ANTENNA ALREADY IN POSITION 1
000232:
000233: 32,3244           33256                          CAF      CODE500                               #  ASTRONAUT:     PLEASE CRANK THE
000234: 32,3245           04616                          TC       BANKCALL                              #                 SILLY THING AROUND
000235: 32,3246           20624                          CADR     GOPERF1
000236: 32,3247           16001                          TCF      GOTOP00H                              #  TERMINATE
000237: 32,3250           13237                          TCF      P63SPOT3                              #  PROCEED        SEE IF HE'S LYING
000238:
000239: 32,3251           04616        P63SPOT4          TC       BANKCALL                              #  ENTER          INITIALIZE LANDING RADAR
000240: 32,3252           67701                          CADR     SETPOS1
000241:
000242: 32,3253           04635                          TC       POSTJUMP                              #  OFF TO SEE THE WIZARD ...
000243: 32,3254           74130                          CADR     BURNBABY
000244:
000245:                                                                                                 #         ---------------------------------
000246:
000247:                                                                                                 #  CONSTANTS FOR P63LM AND IGNALG
000248:
000249: 32,3255           02100        P63ADRES          GENADR   P63TABLE
000250:
000251: 32,3256     4362               ASTNDEX           =        MD1                                   #  OCT 25:  INDEX FOR CLOKTASK
000252:
000253: 32,3256           00500        CODE500           OCT      00500
000254:
000255: 32,3257           00035 30373  99999CON          2DEC     30479.7    B-24
000256:
000257: 32,3261           00004 01610  GUIDDURN          2DEC     +66440     B-28                       #  GUIDDURN +6.64400314 E+2
000258: 32,3263           00000 00010  DDUMCRIT          2DEC     +8         B-28                       #  CRITERION FOR IGNALG CONVERGENCE
000259:
000260:                                                                                                 #  Page 790
000261:                                                                                                 #         --------------------------------
000262:
000263:                                                                                                 #  Page 791
000264:                                                                                                 #         *************************
000265:                                                                                                 #         P68: LANDING CONFIRMATION
000266:                                                                                                 #         *************************
000267:
000268: 34,3271                                          BANK     34
000269: 34,2000                                          SETLOC   F2DPS*34
000270: 34,2000                                          BANK
000271:
000272: 34,3271                                          COUNT*   $$/P6567
000273:
000274: 34,3271           05353        LANDJUNK          TC       PHASCHNG
000275: 34,3272           04024                          OCT      04024
000276:
000277: 34,3273           00004                          INHINT
000278: 34,3274           04616                          TC       BANKCALL                              #  ZERO ATTITUDE ERROR
000279: 34,3275           40154                          CADR     ZATTEROR
000280:
000281: 34,3276           06042                          TC       INTPRET                               #  TO INTERPRETATIVE AS TIME IS NOT CRITICAL
000282: 34,3277           77614                          SET                                            #  PREVENT RCS JET FIRINGS IF MOD CONT IS
000283: 34,3300           06460                                   PULSEFLG                              #  IN ATT HOLD
000284: 34,3301           43014                          SET      CLEAR
000285: 34,3302           04067                                   SURFFLAG
000286: 34,3303           04666                                   LETABORT
000287: 34,3304           77214                          SET      VLOAD
000288: 34,3305           05062                                   APSFLAG
000289: 34,3306           01220                                   RN
000290: 34,3307           16032                          STODL    ALPHAV
000291: 34,3310           01234                                   PIPTIME
000292: 34,3311           45014                          SET      CALL
000293: 34,3312           01463                                   LUNAFLAG
000294: 34,3313           26347                                   LAT-LONG
000295: 34,3314           77201                          SETPD    VLOAD                                 #  COMPUTE RLS AND STORE IT AWAY
000296: 34,3315           00001                                   0
000297: 34,3316           01220                                   RN
000298: 34,3317           65352                          VSL2     PDDL
000299: 34,3320           01234                                   PIPTIME
000300: 34,3321           45006                          PUSH     CALL
000301: 34,3322           51700                                   R-TO-RP
000302: 34,3323           02023                          STORE    RLS
000303: 34,3324           77776                          EXIT
000304: 34,3325           33342                          CAF      V06N43*                               #  ASTRONAUT:  NOW LOOK WHERE TO ENDED UP
000305: 34,3326           04616                          TC       BANKCALL
000306: 34,3327           20477                          CADR     GOFLASH
000307: 34,3330           16001                          TCF      GOTOP00H                              #  TERMINATE
000308: 34,3331           13333                          TCF      +2                                    #  PROCEED
000309: 34,3332           13325                          TCF      -5                                    #  RECYCLE
000310:
000311: 34,3333           06042                          TC       INTPRET
000312: 34,3334           77775                          VLOAD                                          #  INITIALIZE GSAV AND (USING REFMF)
000313:                                                                                                 #  Page 792
000314: 34,3335           06522                                   UNITX                                 #  YNBSAV, ZNBSAV AND ATTFLAG FOR P57
000315: 34,3336           36231                          STCALL   GSAV
000316: 34,3337           33471                                   REFMF
000317: 34,3340           77776                          EXIT
000318:
000319: 34,3341           16001                          TCF      GOTOP00H                              #  ASTRONAUT:  PLEASE SELECT P57
000320:
000321: 34,3342           01453        V06N43*           VN       0643
000322:

End of include-file THE_LUNAR_LANDING.agc.  Parent file is MAIN.agc


