
Source Code


000002:                                                                                                  ## Copyright:   Public domain.
000003:                                                                                                  ## Filename:    THROTTLE_CONTROL_ROUTINES.agc
000004:                                                                                                  ## Purpose:     A section of Luminary 1C, revision 131.
000005:                                                                                                  ##              It is part of the source code for the Lunar Module's (LM)
000006:                                                                                                  ##              Apollo Guidance Computer (AGC) for Apollo 13.
000007:                                                                                                  ##              This file is intended to be a faithful transcription, except
000008:                                                                                                  ##              that the code format has been changed to conform to the
000009:                                                                                                  ##              requirements of the yaYUL assembler rather than the
000010:                                                                                                  ##              original YUL assembler.
000011:                                                                                                  ## Reference:   pp. 788-792
000012:                                                                                                  ## Contact:     Ron Burkey <info@sandroid.org>.
000013:                                                                                                  ## Website:     www.ibiblio.org/apollo/index.html
000014:                                                                                                  ## Mod history: 05/24/03 RSB.   Began transcribing.
000015:                                                                                                  ##              05/14/05 RSB    Corrected website reference above.
000016:                                                                                                  ##              2017-01-06 RSB  Page numbers now agree with those on the
000017:                                                                                                  ##                              original hardcopy, as opposed to the PDF page
000018:                                                                                                  ##                              numbers in 1701.pdf.
000019:                                                                                                  ##              2017-02-25 RSB  Proofed comment text using octopus/ProoferComments.
000020:                                                                                                  ##              2017-03-16 RSB  Comment-text fixes identified in 5-way
000021:                                                                                                  ##                              side-by-side diff of Luminary 69/99/116/131/210.
000022:


000024: 31,2144                                           BANK     31
000025: 31,2000                                           SETLOC   FTHROT
000026: 31,2000                                           BANK
000027: 31,2144  E7,1612                                  EBANK=   PIF
000028: 31,2144                                           COUNT*   $$/THROT
000029:
000030:                                                                                                  #  * * * * * * * * * * * * * * * * * * * * * * * * * * * * * * * * * * * * * * * * * * * * * * * * * * * * * * * *
000031:                                                                                                  #  HERE FC, DESIRED THRUST, AND FP, PRESENT THRUST, UNWEIGHTED, ARE COMPUTED.
000032:
000033: 31,2144           31245        THROTTLE           CA       ABDELV                                #  COMPUTE PRESENT ACCELERATION IN UNITS OF
000034: 31,2145           00006                           EXTEND                                         #  2(-4) M/CS/CS, SAVING SERVICER TROUBLE
000035: 31,2146           72356                           MP       /AF/CNST
000036: 31,2147           00006                 +3        EXTEND
000037: 31,2150           23607                           QXCH     RTNHOLD
000038: 31,2151           02337        AFDUMP             TC       MASSMULT
000039: 31,2152           53470                           DXCH     FP                                    #  FP = PRESENT THRUST
000040: 31,2153           00006                           EXTEND
000041: 31,2154           31464                           DCA      /AFC/
000042: 31,2155           02337                           TC       MASSMULT
000043: 31,2156           55615                           TS       FC                                    #  FC = THRUST DESIRED BY GUIDANCE
000044: 31,2157           53466                           DXCH     FCODD                                 #  FCODD = WHAT IT IS GOING TO GET
000045:
000046:                                                                                                  #  COMPUTE DESIRED THRUST FOR DISPLAY AS A PERCENTAGE OF 10,500 POUNDS
000047:
000048: 31,2160           32360                           CAF      4FMAXNOM                              #  MOVE 4FMAXNOM TO ERASABLE FOR DV BELOW
000049: 31,2161           54002                           TS       Q
000050: 31,2162           31615                           CA       FC
000051: 31,2163           72357                           MASK     OCT17777                              #  FOR SAFETY
000052: 31,2164           00006                           EXTEND
000053: 31,2165           10002                           DV       Q
000054: 31,2166           00006                           EXTEND
000055: 31,2167           75003                           MP       4SECS
000056: 31,2170           55750                           TS       THRDISP                               #  FOR DISPLAY IN N92
000057:
000058:                                                                                                  #  IF IT HAS BEEN LESS THAN 3 SECONDS SINCE THE LAST THROTTLING, AUGMENT FP USING THE FWEIGHT CALCULATED THEN.
000059:
000060: 31,2171           41617                           CS       TTHROT                                #  THIS CODING ASSUMES A FLATOUT WITHIN
000061: 31,2172           60025                           AD       TIME1                                 #        80 SECONDS BEFORE FIRST THROTTLE CALL
000062: 31,2173           74733                           MASK     POSMAX
000063: 31,2174           40000                           COM
000064: 31,2175           65002                           AD       3SECS
000065: 31,2176           00006                           EXTEND
000066: 31,2177           62203                           BZMF     WHERETO                               #  BRANCH IF (TIME1-TTHROT +1) > 3 SECONDS


000068: 31,2200           00006                           EXTEND
000069: 31,2201           31611                           DCA      FWEIGHT
000070: 31,2202           21470                           DAS      FP
000071:
000072:                                                                                                  #  THIS LOGIC DETERMINES THE THROTTLING IN THE REGION 10% - 94%.  THE MANUAL THROTTLE, NOMINALLY SET AT
000073:                                                                                                  #  MINIMUM BY ASTRONAUT OR MISSION CONTROL PROGRAMS, PROVIDES THE LOWER BOUND.  A STOP IN THE THROTTLE HARDWARE
000074:                                                                                                  #  PROVIDES THE UPPER.
000075:
000076: 31,2203           35014        WHERETO            CA       EBANK5                                #  INITIALIZE L*WCR*T AND H*GHCR*T FROM
000077: 31,2204           54003                           TS       EBANK                                 #        PAD LOADED ERASABLES IN W-MATRIX
000078: 31,2205  E5,1506                                  EBANK=   LOWCRIT
000079: 31,2205           00006                           EXTEND
000080: 31,2206           31507                           DCA      LOWCRIT
000081: 31,2207           52131                           DXCH     L*WCR*T
000082: 31,2210           35016                           CA       EBANK7
000083: 31,2211           54003                           TS       EBANK
000084: 31,2212  E7,1612                                  EBANK=   PIF
000085: 31,2212           44755                           CS       ZERO                                  #  INITIALIZE PIFPSET
000086: 31,2213           55606                           TS       PIFPSET
000087: 31,2214           40131                           CS       H*GHCR*T
000088: 31,2215           61620                           AD       FCOLD
000089: 31,2216           00006                           EXTEND
000090: 31,2217           62231                           BZMF     LOWFCOLD                              #  BRANCH IF FCOLD < OR = HIGHCRIT
000091: 31,2220           40130                           CS       L*WCR*T
000092: 31,2221           61465                           AD       FCODD
000093: 31,2222           00006                           EXTEND
000094: 31,2223           62226                           BZMF     FCOMPSET                              #  BRANCH IF FC < OR = LOWCRIT
000095: 31,2224           31467                           CA       FP                                    #  SEE NOTE 1
000096: 31,2225           12236                           TCF      FLATOUT1
000097:
000098: 31,2226           42002        FCOMPSET           CS       FMAXODD                               #  SEE NOTE 2
000099: 31,2227           61467                           AD       FP
000100: 31,2230           12240                           TCF      FLATOUT2
000101:
000102: 31,2231           40131        LOWFCOLD           CS       H*GHCR*T
000103: 31,2232           61465                           AD       FCODD
000104: 31,2233           00006                           EXTEND
000105: 31,2234           62241                           BZMF     DOPIF                                 #  BRANCH IF FC < OR = HIGHCRIT
000106:
000107: 31,2235           32003                           CA       FMAXPOS                               #  NO:  THROTTLE-UP
000108: 31,2236           53466        FLATOUT1           DXCH     FCODD
000109: 31,2237           34737                           CA       FEXTRA
000110: 31,2240           55606        FLATOUT2           TS       PIFPSET
000111:
000112:                                                                                                  #  NOTE 1        FC IS SET EQUAL TO FP SO PIF WILL BE ZERO.  THIS IS DESIRABLE
000113:                                                                                                  #                AS THERE IS ACTUALLY NO THROTTLE CHANGE.
000114:
000115:                                                                                                  #  NOTE2         HERE, SINCE WE ARE ABOUT TO RETURN TO THE THROTTLEABLE REGION


000117:                                                                                                  #                (BELOW 55%) THE QUANTITY -(FMAXODD-FP) IS COMPUTED AND PUT
000118:                                                                                                  #                INTO PIFPSET TO COMPENSATE FOR THE DIFFERENCE BETWEEN THE
000119:                                                                                                  #                NUMBER OF BITS CORRESPONDING TO FULL THROTTLE (FMAXODD) AND THE
000120:                                                                                                  #                NUMBER CORRESPONDING TO ACTUAL THRUST (FP).  THUS THE TOTAL
000121:                                                                                                  #                THROTTLE COMMAND PIF = FC - FP - (FMAXODD - FP) = FC - FMAXODD.
000122:
000123: 31,2241           03677        DOPIF              TC       FASTCHNG
000124: 31,2242           00006                           EXTEND
000125: 31,2243           31466                           DCA      FCODD
000126: 31,2244           55620                           TS       FCOLD
000127: 31,2245           53613                           DXCH     PIF
000128: 31,2246           00006                           EXTEND
000129: 31,2247           41470                           DCS      FP
000130: 31,2250           21613                           DAS      PIF                                   #  PIF = FC - FP, NEVER EQUALS +0
000131:
000132: 31,2251           31612        DOIT               CA       PIF
000133: 31,2252           61606                           AD       PIFPSET                               #  ADD IN PIFPSET, WITHOUT CHANGING PIF
000134: 31,2253           55614                           TS       PSEUDO55
000135: 31,2254           54055                           TS       THRUST
000136: 31,2255           34750                           CAF      BIT4
000137: 31,2256           00006                           EXTEND
000138: 31,2257           05014                           WOR      CHAN14
000139: 31,2260           30025                           CA       TIME1
000140: 31,2261           55617                           TS       TTHROT
000141:
000142:                                                                                                  #  SINCE /AF/ IS NOT AN INSTANTANEOUS ACCELERATION, BUT RATHER AN "AVERAGE" OF THE ACCELERATION LEVELS DURING
000143:                                                                                                  #  THE PRECEEDING PIPA INTERVAL, AND SINCE FP IS COMPUTED DIRECTLY FROM /AF/, FP IN ORDER TO CORRESPOND TO THE
000144:                                                                                                  #  ACTUAL THRUST LEVEL AT THE END OF THE INTERVAL MUST BE WEIGHTED BY
000145:                                                                                                  #                  PIF(PPROCESS + TL)     PIF /PIF/
000146:                                                                                                  #        FWEIGHT = ------------------ + -------------
000147:                                                                                                  #                       PGUID           2 PGUID FRATE
000148:                                                                                                  #  WHERE PPROCESS IS THE TIME BETWEEN PIPA READING AND THE START OF THROTTLING, PGUID IS THE GUIDANCE PERIOD, AND
000149:                                                                                                  #  FRATE IS THE THROTTLING RATE (32 UNITS PER CENTISECOND).  PGUID IS EITHER 1 OR 2 SECONDS.  THE "TL" IN THE
000150:                                                                                                  #  FIRST TERM REPRESENTS THE ENGINE'S RESPONSE LAG.  HERE FWEIGHT IS COMPUTED FOR USE NEXT PASS.
000151:
000152: 31,2262           31762                           CA       THISTPIP   +1                         #  INITIALIZE FWEIGHT COMP AS IF FOR P66
000153: 31,2263           54130                           TS       BUF
000154:
000155: 31,2264           41010                           CS       MODREG                                #  ARE WE IN FACT IN P66?
000156: 31,2265           62452                           AD       DEC66
000157: 31,2266           00006                           EXTEND
000158: 31,2267           12274                           BZF      FWCOMP                                #  YES
000159:
000160: 31,2270           31234                           CA       PIPTIME    +1                         #  NO:  INITIALIZE FOR TWO SECOND PERIOD
000161: 31,2271           54130                           TS       BUF
000162: 31,2272           35003                           CAF      4SECS
000163: 31,2273           12275                           TCF      FWCOMP     +1


000165:
000166: 31,2274           35000        FWCOMP             CAF      2SECS
000167: 31,2275           54002                 +1        TS       Q
000168: 31,2276           00006                           EXTEND
000169: 31,2277           74746                           MP       BIT6
000170: 31,2300           22131                           LXCH     BUF        +1
000171: 31,2301           40130                           CS       BUF                                   #  TIME OF LAST PIPA READING.
000172: 31,2302           60025                           AD       TIME1
000173: 31,2303           62004                           AD       THROTLAG                              #  COMPENSATE FOR ENGINE RESPONSE LAG
000174: 31,2304           74357                           MASK     LOW8                                  #  MAKE SURE SMALL AND POSITIVE
000175: 31,2305           22007                           ZL
000176: 31,2306           00006                           EXTEND
000177: 31,2307           10002                           DV       Q
000178: 31,2310           00006                           EXTEND
000179: 31,2311           71612                           MP       PIF
000180: 31,2312           60000                           DOUBLE
000181: 31,2313           53611                           DXCH     FWEIGHT
000182: 31,2314           11612                           CCS      PIF
000183: 31,2315           64753                           AD       ONE
000184: 31,2316           12320                           TCF      +2
000185: 31,2317           64753                           AD       ONE
000186: 31,2320           00006                           EXTEND
000187: 31,2321           71612                           MP       PIF
000188: 31,2322           00006                           EXTEND
000189: 31,2323           10131                           DV       BUF        +1
000190: 31,2324           22007                           ZL
000191: 31,2325           21611                           DAS      FWEIGHT
000192:
000193: 31,2326           01607        THDUMP             TC       RTNHOLD
000194:
000195:                                                                                                  #  FLATOUT THROTTLES UP THE DESCENT ENGINE, AND IS CALLED AS A BASIC SUBROUTINE.
000196:
000197: 31,2327           34737        FLATOUT            CAF      BIT13                                 #  4096 PULSES
000198: 31,2330           55606        WHATOUT            TS       PIFPSET                               #  USE PIFPSET SO FWEIGHT WILL BE ZERO
000199: 31,2331           44755                           CS       ZERO
000200: 31,2332           55620                           TS       FCOLD
000201: 31,2333           55612                           TS       PIF
000202: 31,2334           00006                           EXTEND
000203: 31,2335           23607                           QXCH     RTNHOLD
000204: 31,2336           12251                           TCF      DOIT
000205:
000206:                                                                                                  #  MASSMULT SCALES ACCELERATION, ARRIVING IN A AND L IN UNITS OF 2(-4) M/CS/CS, TO FORCE IN PULSE UNITS.
000207:
000208: 31,2337           00006        MASSMULT           EXTEND
000209: 31,2340           22130                           QXCH     BUF
000210: 31,2341           52155                           DXCH     MPAC
000211: 31,2342           07106                           TC       DMP
000212: 31,2343           01243                           ADRES    MASS


000214: 31,2344           07106                           TC       DMP                                   #  LEAVES PROPERLY SCALED FORCE IM MPAC
000215: 31,2345           02005                           ADRES    SCALEFAC
000216: 31,2346           07262                           TC       TPAGREE
000217: 31,2347           30154                           CA       MPAC
000218: 31,2350           00006                           EXTEND
000219: 31,2351           12354                           BZF      +3
000220: 31,2352           34733                           CAF      POSMAX
000221: 31,2353           00130                           TC       BUF
000222: 31,2354           52156                           DXCH     MPAC       +1
000223: 31,2355           00130                           TC       BUF
000224:
000225:                                                                                                  #  CONSTANTS:-
000226:
000227: 31,2356     4737               FEXTRA             =        BIT13                                 #  FEXT +5.13309020 E+4
000228:
000229: 31,2356           04143        /AF/CNST           DEC      .13107
000230:
000231: 31,2357           17777        OCT17777           OCT      17777
000232: 31,2360           35074        4FMAXNOM           DEC      14908      B-14                       #  EQUIVALENT TO 10,500 LBS.
000233:
000234:                                                                                                  #  * * * * * * * * * * * * * * * * * * * * * * * * * * * * * * * * * * * * * * * * * * * * * * * * * * * * * * * *

End of include-file THROTTLE_CONTROL_ROUTINES.agc.  Parent file is MAIN.agc


