
Source Code


000002:                                                                                                  ## Copyright:   Public domain.
000003:                                                                                                  ## Filename:    TIME_OF_FREE_FALL.agc
000004:                                                                                                  ## Purpose:     A section of Luminary 1C, revision 131.
000005:                                                                                                  ##              It is part of the source code for the Lunar Module's (LM)
000006:                                                                                                  ##              Apollo Guidance Computer (AGC) for Apollo 13 and Apollo 14.
000007:                                                                                                  ##              This file is intended to be a faithful transcription, except
000008:                                                                                                  ##              that the code format has been changed to conform to the
000009:                                                                                                  ##              requirements of the yaYUL assembler rather than the
000010:                                                                                                  ##              original YUL assembler.
000011:                                                                                                  ## Reference:   pp. 1265-1280 of 1729.pdf.
000012:                                                                                                  ## Contact:     Ron Burkey <info@sandroid.org>.
000013:                                                                                                  ## Website:     www.ibiblio.org/apollo/index.html
000014:                                                                                                  ## Mod history: 06/03/03 RSB.   Began transcribing.
000015:                                                                                                  ##              05/14/05 RSB    Corrected website reference above
000016:                                                                                                  ##              2010-10-25 JL   Indentation fixes.
000017:


000019:                                                                                                  #  THE TFF SUBROUTINES MAY BE USED IN EITHER EARTH OR MOON CENTERED COORDINATES.  THE TFF ROUTINES NEVER
000020:                                                                                                  #  KNOW WHICH ORIGIN APPLIES.  IT IS THE USER WHO KNOWS, AND WHO SUPPLIES RONE, VONE, AND 1/SQRT(MU) AT THE
000021:                                                                                                  #  APPROPIRATE SCALE LEVEL FOR THE PROPER PRIMARY BODY.
000022:
000023:                                                                                                  #        EARTH ORIGIN    POSITION        -29     METERS
000024:                                                                                                  #                        VELOCITY        -7      METERS/CENTISECOND
000025:                                                                                                  #                        1/SQRT(MU)      +17     SQRT(CS SQ/METERS CUBED)
000026:
000027:                                                                                                  #        MOON ORIGIN     POSITION        -27     METERS
000028:                                                                                                  #                        VELOCITY        -5      METERS/CENTISECONDS
000029:                                                                                                  #                        1/SQRT(MU)      +14     SQRT(CS SQ/METERS CUBED)
000030:
000031:                                                                                                  #  ALL DATA PROVIDED TO AND RECEIVED FROM ANY TFF SUBROUTINE WILL BE AT ONE OF THE LEVELS ABOVE.  IN ALL CASES,
000032:                                                                                                  #  THE FREE FALL TIME IS RETURNED IN CENTISECONDS AT (-28).  PROGRAM TFF/CONIC WILL GENERATE VONE/RTMU AND
000033:                                                                                                  #  LEAVE IT IN VONE' AT (+10) IF EARTH ORIGIN AND (+9) IF MOON ORIGIN.
000034:
000035:                                                                                                  #  THE USER MUST STORE THE STATE VECTOR IN RONE, VONE, AND MU IN THE FORM 1/SQRT(MU) IN TFF/RTMU
000036:                                                                                                  #  AT THE PROPER SCALE BEFORE CALLING TFF/CONIC.  SINCE RONE, VONE ARE IN THE EXTENDED VERB STORAGE AREA,
000037:                                                                                                  #  THE USER MUST ALSO LOCK OUT THE EXTENDED VERBS, AND RELEASE THEM WHEN FINISHED.
000038:
000039:                                                                                                  #  PROGRAMS CALC/TFF AND CALC/TPER ASSUME THAT THE TERMINAL RADIUS IS LESS THAN THE PRESENT
000040:                                                                                                  #  RADIUS.  THIS RESTRICTION CAN BE REMOVED BY A 15 W CODING CHANGE, BUT AT PRESENT IT IS NOT DEEMED NECESSARY.
000041:
000042:                                                                                                  #  THE FOLLOWING ERASABLE QUANTITIES ARE USED BY THE TFF ROUTINES, AND ARE LOCATED IN THE PUSH LIST.
000043:
000044:                                                                                                  #                                        BELOW   E:  IS USED FOR EARTH ORIGIN SCALE
000045:                                                                                                  #                                                M:  IS USED FOR MOON  ORIGIN SCALE
000046:
000047:                                                                                                  # TFFSW          =       119D    # BIT1  0 = CALCTFF             1 = CALCTPER
000048: 10,2213                        TFFDELQ            =        10D                                   #        Q2-Q1                   E: (-16)  M: (-15)
000049: 10,2213                        RMAG1              =        12D                                   #        ABVAL(RN)  M            E: (-29)  M: (-27)
000050:                                                                                                  # RPER           =       14D     #       PERIGEE RADIUS  M       E: (-29)  M: (-27)
000051: 10,2213                        TFFQ1              =        14D                                   #        R.V / SQRT(MUE)         E: (-16)  M: (-15)
000052:                                                                                                  # SDELF/2                        #       SIN(THETA) /2
000053: 10,2213                        CDELF/2            =        14D                                   #        COS(THETA) /2
000054:                                                                                                  # RAPO           =       16D     #       APOGEE RADIUS  M        E: (-29)  M: (-27)
000055: 10,2213                        NRTERM             =        16D                                   #        TERMINAL RADIUS  M      E: (-29+NR)
000056:                                                                                                  #                                          M: (-27+NR)
000057: 10,2213                        RTERM              =        18D                                   #        TERMINAL RADIUS  M      E: (-29)  M: (-27)
000058: 10,2213                        TFFVSQ             =        20D                                   #        -(V SQUARED/MU)  1/M    E: (20)   M: (18)
000059: 10,2213                        TFF1/ALF           =        22D                                   #        SEMI MAJ AXIS  M        E: (-22-2 NA)
000060:                                                                                                  #                                          M: (-20-2 NA)
000061: 10,2213                        TFFRTALF           =        24D                                   #        SQRT(ALFA)              E:(10+NA) M: (9+NA)
000062: 10,2213                        TFFALFA            =        26D                                   #        ALFA  1/M               E:(26-NR) M: (24-NR)
000063: 10,2213                        TFFNP              =        28D                                   #        SEMI LATUS RECTUM  M    E: (-38+2 NR)
000064:                                                                                                  #                                          M: (-36+2 NR)
000065: 10,2213                        TFF/RTMU           =        30D                                   #        1/SQRT(MU)              E: (17)   M: (14)
000066: 10,2213                        NRMAG              =        32D                                   #        PRESENT RADIUS  M       E: (-29+NR)
000067:                                                                                                  #                                          M: (-27+NR)
000068: 10,2213                        TFFX               =        34D
000069: 10,2213                        TFFTEM             =        36D                                   #        TEMPORARY


000071:                                                                                                  #                REGISTERS S1, S2 ARE UNTOUCED BY ANY TFF SUBROUTINE
000072:                                                                                                  #                INDEX REGISTERS X1, X2 ARE USED BY ALL TFF SUBROUTINES.  THEY ARE ESTAB-
000073:                                                                                                  #                LISHED IN TFF/CONIC AND MUST BE PRESERVED BETWEEN CALLS TO SUBSEQUENT
000074:                                                                                                  #                SUBROUTINES.
000075:                                                                                                  #                -NR                             C(X1) = NORM COUNT OF RMAG
000076:                                                                                                  #                -NA                             C(X2) = NORM COUNT OF SQRT(ABS(ALFA))
000077:


000079:                                                                                                  #  SUBROUTINE NAME:  TFFCONIC                    DATE:  01.29.67
000080:                                                                                                  #  MOD NO:  0                                    LOG SECTION:  TIME OF FREE FALL
000081:                                                                                                  #  MOD BY:  RR BAIRNSFATHER
000082:                                                                                                  #  MOD NO:  1    MOD BY:  RR BAIRNSFATHER        DATE: 11 APR 67
000083:                                                                                                  #  MOD NO:  2    MOD BY:  RR BAIRNSFATHER        DATE: 21 NOV 67         ADD MOON MU.
000084:                                                                                                  #  MOD NO:  3    MOD BY:  RR BAIRNSFATHER        DATE: 21 MAR 68         ACCEPT DIFFERENT EARTH/MOON SCALES
000085:
000086:                                                                                                  #  FUNCTIONAL DESCRIPTION:  THIS SUBROUTINE IS CALLED TO COMPUTE THOSE CONIC PARAMETERS REQUIRED BY THE TFF
000087:                                                                                                  #        SUBROUTINES AND TO ESTABLISH THEM IN THE PUSH LIST AREA.  THE PARAMETERS ARE LISTED UNDER OUTPUT.
000088:                                                                                                  #        THE EQUATIONS ARE:
000089:                                                                                                  #                _   __ __
000090:                                                                                                  #                H = RN*VN                       ANGULAR MOMENTUM
000091:                                                                                                  #                      _ _
000092:                                                                                                  #                LCP = H.H / MU                  SEMI LATUS RECTUM
000093:                                                                                                  #                              __ __
000094:                                                                                                  #                ALFA = 2/RN - VN.VN / MU        RECIPROCAL SEMI-MAJOR AXIS, SIGNED
000095:
000096:                                                                                                  #        AND ALFA IS POS FOR ELLIPTIC ORBITS
000097:                                                                                                  #                      0 FOR PARABOLIC ORBITS
000098:                                                                                                  #                    NEG FOR HYPERBOLIC ORBITS
000099:                                                                                                  #        SUBROUTINE ALSO COMPUTES AND SAVES RMAG.
000100:
000101:                                                                                                  #  CALLING SEQUENCE:
000102:                                                                                                  #        TFFCONIC EXPECTS CALLER TO ENTER WITH CORRECT GRAVITATIONAL CONSTANT IN MPAC, IN THE FORM
000103:                                                                                                  #        1/SQRT(MU).  THE PROGRAM WILL SAVE IN TFF/RTMU.  THE SCALE IS DETERMINED BY WHETHER EARTH OR MOON
000104:                                                                                                  #        ORIGIN IS USED.  THE CALLER MUST LOCK OUT THE EXTENDED VERBS BEFORE PROVIDING STATE VECTOR IN RONE,
000105:                                                                                                  #        VONE AT PROPER SCALE.  THE EXTENDED VERBS MUST BE RESTORED WHEN THE CALLER IS FINISHED USING THE
000106:                                                                                                  #        TFF ROUTINES.
000107:
000108:                                                                                                  #        ENTRY POINT TFFCONMU EXPECTS THAT TFF/RTMU IS ALREADY LOADED.
000109:
000110:                                                                                                  #        TO SPECIFY MU:  DLOAD   CALL            # IF MU ALREADY STORED:         CALL
000111:                                                                                                  #                                YOURMU          # 1/RTMU E:(17) M:(14)                  TFFCONMU
000112:                                                                                                  #                                TFFCONIC
000113:                                                                                                  #        PUSHLOC = PDL+0, ARBITRARY IF LEQ 18D
000114:
000115:                                                                                                  #  SUBROUTINES CALLED:  NONE
000116:
000117:                                                                                                  #  NORMAL EXIT MODES:  RVQ
000118:
000119:                                                                                                  #  ALARMS:  NONE
000120:
000121:                                                                                                  #  OUTPUT:       THE FOLLOWING ARE STORED IN THE PUSH LIST AREA.
000122:                                                                                                  #                RMAG1           E:(-29) M:(-27)         M  RN, PRESENT RADIUS LENGTH.
000123:                                                                                                  #                NRMAG           E:(-29+NR)              M  RMAG, NORMALIZED
000124:                                                                                                  #                                M:(-27+NR)
000125:                                                                                                  #                X1                                      -NR, NORM COUNT
000126:                                                                                                  #                TFFNP           E:(-38+2NR)             M  LCP, SEMI LATUS RECTUM, WEIGHTED BY NR.  FOR VGAMCALC.
000127:                                                                                                  #                                M:(-36+2NR)
000128:                                                                                                  #                TFF/RTMU        E:(17) M:(14)           1/SQRT(MU)
000129:                                                                                                  #                TFFVSQ          E:(20) M:(18)           1/M  -(V SQ/MU):  PRESENT VELOCITY, NORMALIZED.  FOR VGAMCALC
000130:                                                                                                  #                TFFALFA         E:(26-NR)               1/M  ALFA, WEIGHTED BY NR
000131:                                                                                                  #                                M:(24-NR)
000132:                                                                                                  #                TFFRTALF        E:(10+NA)               SQRT(ALFA), NORMALIZED
000133:                                                                                                  #                                M:(9+NA)


000135:                                                                                                  #                X2                                      -NA, NORMCOUNT
000136:                                                                                                  #                TFF1/ALF        E:(-22-2NA)             SIGNED SEMI-MAJOR AXIS, WEIGHTED BY NA
000137:                                                                                                  #                                M:(-20-2NA)
000138:                                                                                                  #                PUSHLOC AT PDL+0
000139:
000140:                                                                                                  #        THE FOLLOWING IS STORED IN GENERAL ERASABLE
000141:                                                                                                  #                VONE'           E:(10) M:(9)            V/RT(MU), NORMALIZED VELOCITY
000142:
000143:                                                                                                  #  ERASABLE INITIALIZATION REQUIRED:
000144:                                                                                                  #                RONE            E:(-29) M:(-27)         M  STATE VECTOR         LEFT BY CALLER
000145:                                                                                                  #                VONE            E:(-7) M:(-5)           M/CS  STATE VECTOR      LEFT BY CALLER
000146:                                                                                                  #                TFF/RTMU        E:(17) M:(14)           1/RT(CS SQ/M CUBE)      IF ENTER VIA TFFCONMU.
000147:
000148:                                                                                                  #  DEBRIS:       QPRET           PDL+0 ... PDL+3
000149:
000150: 33,3760                                           BANK     33
000151: 27,2000                                           SETLOC   TOF-FF
000152: 27,2000                                           BANK
000153:
000154: 27,3361                                           COUNT*   $$/TFF
000155:
000156: 27,3361           00037        TFFCONIC           STORE    TFF/RTMU                              #  1/SQRT(MU)    E:(17) M:(14)
000157:
000158: 27,3362           53575        TFFCONMU           VLOAD    UNIT                                  #  COME HERE WITH TFFRTMU LOADED.
000159: 27,3363           02207                                    RONE                                  #  SAVED RN.  M  E:(-29) M:(-27)
000160: 27,3364           77725                           PDDL                                           #  UR/2 TO PDL+0, +5
000161: 27,3365           00045                                    36D                                   #  MAGNITUDE
000162: 27,3366           00015                           STORE    RMAG1                                 #  M  E:(-29) M:(-27)
000163:
000164: 27,3367           77701                           NORM
000165: 27,3370           00047                                    X1                                    #  -NR
000166: 27,3371           24041                           STOVL    NRMAG                                 #  RMAG  M  E:(-29+NR) M:(-27+NR)
000167: 27,3372           02215                                    VONE                                  #  SAVED VN.  M/CS  E:(-7) M:(-5)
000168: 27,3373           77761                           VXSC
000169: 27,3374           00037                                    TFF/RTMU                              #  E:(17) M:(14)
000170: 27,3375           02170                           STORE    VONE'                                 #  VN/SQRT(MU)  E:(10) M:(9)
000171:
000172: 27,3376           47361                           VXSC     VXV
000173: 27,3377           00041                                    NRMAG                                 #  E:(-29+NR) M:(-27+NR)
000174:                                                                                                  #  UR/2 FROM PDL
000175: 27,3400           47572                           VSL1     VSQ                                   #  BEFORE:  E:(-19+NR) M:(-18+NR)
000176: 27,3401           14035                           STODL    TFFNP                                 #  LC P  M  E:(-38+2NR) M:(-36+2NR)
000177:                                                                                                  #  SAVE ALSO FOR VGAMCALC
000178: 27,3402           06514                                    TFF1/4
000179: 27,3403           63271                           DDV      PDVL                                  #  (2/RMAG)  1/M  E:(26-NR) M:(24-NR)
000180: 27,3404           00041                                    NRMAG                                 #  RMAG  M  E:(-29+NR) M:(-27+NR)
000181: 27,3405           02170                                    VONE'                                 #  SAVED VN.  E:(10) M:(9)
000182: 27,3406           57436                           VSQ      DCOMP                                 #  KEEP MPAC+2 HONEST FOR SQRT.
000183: 27,3407           00025                           STORE    TFFVSQ                                #  -(V SQ/MU)  E:(20) M:(18)
000184:                                                                                                  #  SAVE FOR VGAMCALC
000185: 27,3410           43257                           SR*      DAD


000187: 27,3411           20573                                    0          -6,1                       #  GET -VSQ/MU  E:(26-NR) M:(24-NR)
000188: 27,3412           77626                           STADR
000189:                                                                                                  #  2/RMAG  FROM PDL+2
000190: 27,3413           77744                           STORE    TFFALFA                               #  ALFA  1/M  E:(26-NR) M:(24-NR)
000191: 27,3414           41457                           SL*      PUSH                                  #  TEMP SAVE ALFA  E:(20) M:(18)
000192: 27,3415           20173                                    0          -6,1
000193: 27,3416           75446                           ABS      SQRT                                  #  E:(10) M:(9)
000194: 27,3417           77701                           NORM
000195: 27,3420           00050                                    X2                                    #  X2 = -NA
000196: 27,3421           00031                           STORE    TFFRTALF                              #  SQRT( ABS(ALFA) )  E:(10+NA) M:(9+NA)
000197: 27,3422           75316                           DSQ      SIGN                                  #  NOT SO ACCURATE, BUT OK
000198:                                                                                                  #  ALFA FROM PDL+2  E:(20) M:(18)
000199: 27,3423           55254                           BZE      BDDV                                  #  SET 1/ALFA =0, TO SHOW SMALL ALFA
000200: 27,3424           57426                                    +2
000201: 27,3425           06514                                    TFF1/4
000202: 27,3426           00027                 +2        STORE    TFF1/ALF                              #  1/ALFA  E:(-22-2NA) M:(-20-2NA)
000203: 27,3427           77616        DUMPCNIC           RVQ
000204:


000206:                                                                                                  #  SUBROUTINE NAME:  TFFRP/RA                    DATE: 01.17.67
000207:                                                                                                  #  MOD NO:  0                                    LOG SECTION:  TIME OF FREE FALL
000208:                                                                                                  #  MOD NO:  1    MOD BY:  RR BAIRNSFATHER        DATE: 11 APR 67
000209:                                                                                                  #  MOD NO:  2    MOD BY:  RR BAIRNSFATHER        DATE: 21 MAR 68         ACCEPT DIFFERENT EARTH/MOON SCALES
000210:                                                                                                  #                                                                        ALSO IMPROVE ACCURACY OF RAPO.
000211:
000212:                                                                                                  #  FUNCTIONAL DESCRIPTION:  USED BY CALCTPER AND TFF DISPLAYS TO CALCULATE PERIGEE RADIUS AND ALSO
000213:                                                                                                  #        APOGEE RADIUS FOR A GENERAL CONIC.
000214:                                                                                                  #        PROGRAM GIVES PERIGEE RADIUS AS         APOGEE RADIUS IS GIVEN BY
000215:                                                                                                  #                RP = P/(1+E)                            RA = (1+E) / ALFA
000216:                                                                                                  #        WHERE    2
000217:                                                                                                  #                E  = 1 - P ALFA
000218:                                                                                                  #        IF RA IS NEGATIVE OR SHOWS DIVIDE OVERFLOW, THEN RA = POSMAX BECAUSE
000219:                                                                                                  #                1. APOGEE RADIUS IS NOT MEANINGFUL FOR HYPERBOLA
000220:                                                                                                  #                2. APOGEE RADIUS IS NOT DEFINED FOR PARABOLA
000221:                                                                                                  #                3. APOGEE RADIUS EXCEEDS THE SCALING FOR ELLIPSE.
000222:
000223:                                                                                                  #        THIS SUBROUTINE REQUIRED THE SIGNED RECIPROCAL SEMI-MAJOR AXIS, ALFA, AND SEMI-LATUS RECTUM AS DATA.
000224:
000225:                                                                                                  #  CALLING SEQUENCE:     CALL
000226:                                                                                                  #                                TFFRP/RA
000227:                                                                                                  #        PUSHLOC = PDL+0, ARBITRARY IF LEQ 10D
000228:                                                                                                  #        C(MPAC) UNSPECIFIED
000229:
000230:                                                                                                  #  SUBROUTINES CALLED:   NONE
000231:
000232:                                                                                                  #  NORMAL EXIT MODE:     RVQ
000233:                                                                                                  #        IF ELLIPSE, WITHIN NORMAL SCALING, RAPO IS CORRECT.
000234:                                                                                                  #        OTHERWISE, RAPO = POSMAX.
000235:
000236:                                                                                                  #  ALARMS:       NONE
000237:
000238:                                                                                                  #  OUTPUT:       STORED IN PUSH LIST AREA.  SCALE OF OUTPUT AGREES WITH DATA SUPPLIED TO TFF/CONIC.
000239:                                                                                                  #        RPER    E:(-29) M:(-27)         M       PERIGEE RADIUS          DESTROYED BY CALCTFF/CALCTPER, TFFTRIG.
000240:                                                                                                  #        RAPO    E:(-29) M:(-27)         M       APOGEE RADIUS           WILL BE DESTROYED BY CALCTFF/CALCTPER
000241:                                                                                                  #        PUSHLOC AT PDL+0
000242:
000243:                                                                                                  #  ERASABLE INITIALIZATION REQUIRED:
000244:                                                                                                  #        TFFALFA E:(26-NR)               M       1/SEMI-MAJOR AXIS       LEFT BY TFFCONIC
000245:                                                                                                  #                M:(24-NR)
000246:                                                                                                  #        TFFNP   E:(-38+2NR)             M       LC P, SEMI LATUS RECTUM LEFT BY TFFCONIC
000247:                                                                                                  #                M:(-36+2NR)
000248:                                                                                                  #        X1                              -NR, NORM COUNT OF RMAG         LEFT BY TFFCONIC
000249:                                                                                                  #        X2                              -NA, NORM COUNT OF ALFA         LEFT BY TFFCONIC
000250:
000251:                                                                                                  #  DEBRIS:       QPRET, PDL+0 ... PDL+1
000252:


000254: 27,3430                        RAPO               =        16D                                   #  APOGEE RADIUS  M  E:(-29) M:(-27)
000255: 27,3430                        RPER               =        14D                                   #  PERIGEE RADIUS  M  E:(-29) M:(-27)
000256:
000257: 27,3430           41345        TFFRP/RA           DLOAD    DMP
000258: 27,3431           00033                                    TFFALFA                               #  ALFA  1/M  E:(26-NR) M:(24-NR)
000259: 27,3432           00035                                    TFFNP                                 #  LC P  M E:(-38+2NR) M:(-36+2NR)
000260: 27,3433           57457                           SR*      DCOMP                                 #  ALFA P (-12+NR)
000261: 27,3434           20571                                    0          -8D,1                      #  ALFA P (-4)
000262: 27,3435           51415                           DAD      ABS                                   #  (DCOMP GIVES VALID TP RESULT FOR SQRT)
000263:                                                                                                  #  (ABS PROTECTS SQRT IF E IS VERY NEAR 0)
000264: 27,3436           17766                                    DP2(-4)
000265: 27,3437           43366                           SQRT     DAD                                   #  E SQ = (1- P ALFA) (-4)
000266: 27,3440           06514                                    TFF1/4
000267: 27,3441           55206                           PUSH     BDDV                                  #  (1+E)  (-2)  TO PDL+0
000268: 27,3442           00035                                    TFFNP                                 #  LCP  M  E:(-38+2NR) M:(-36+2NR)
000269: 27,3443           53657                           SR*      SR*                                   #  (DOES SR THEN SL TO AVOID OVFL)
000270: 27,3444           20601                                    0,1                                   #  X1=-NR
000271: 27,3445           20572                                    0          -7,1                       #  (EFFECTIVE SL)
000272: 27,3446           14017                           STODL    RPER                                  #  PERIGEE RADIUS  M  E:(-29) M:(-27)
000273:                                                                                                  #  (1+E)  (-2)  FROM PDL+0
000274: 27,3447           41005                           DMP      BOVB
000275: 27,3450           00027                                    TFF1/ALF                              #  E:(-22-2NA) M:(-20-2NA)
000276: 27,3451           57754                                    TCDANZIG                              #  CLEAR OVFIND, IF ON.
000277: 27,3452           53654                           BZE      SL*
000278: 27,3453           57462                                    MAXRA                                 #  SET POSMAX IF ALFA=0
000279: 27,3454           57603                                    0          -5,2                       #  -5+NA
000280: 27,3455           40057                           SL*      BOV
000281: 27,3456           57576                                    0,2
000282: 27,3457           57462                                    MAXRA                                 #  SET POSMAX IF OVFL.
000283: 27,3460           77644                           BPL                                            #  CONTINUE WITH VALID RAPO.
000284: 27,3461           57464                                    +3
000285: 27,3462           77745        MAXRA              DLOAD                                          #  RAPO CALC IS NOT VALID.  SET RAPO =
000286: 27,3463           17772                                    NEARONE                               #  POSMAX AS A TAG.
000287: 27,3464           00021                 +3        STORE    RAPO                                  #  APOGEE RADIUS  M  E:(-29) M:(-27)
000288: 27,3465           77616        DUMPRPRA           RVQ
000289:


000291:                                                                                                  #  SUBROUTINE NAME:  CALCTPER / CALCTFF          DATE:  01.29.67
000292:                                                                                                  #  MOD NO:  0                                    LOG SECTION:  TIME OF FREE FALL
000293:                                                                                                  #  MOD BY:  RR BAIRNSFATHER
000294:                                                                                                  #  MOD NO:  1    MOD BY:  RR BAIRNSFATHER        DATE: 21 MAR 67
000295:                                                                                                  #  MOD NO:  2    MOD BY:  RR BAIRNSFATHER        DATE: 14 APR 67
000296:                                                                                                  #  MOD BY:  3    MOD BY:  RR BAIRNSFATHER        DATE: 8 JUL 67          NEAR EARTH MUE AND NEG TFF (GONEPAST)
000297:                                                                                                  #  MOD BY:  4    MOD BY:  RR BAIRNSFATHER        DATE: 21 NOV 67         ADD VARIABLE MU.
000298:                                                                                                  #  MOD BY:  5    MOD BY:  RR BAIRNSFATHER        DATE: 21 MAR 68         ACCEPT DIFFERENT EARTH/MOON SCALES
000299:
000300:                                                                                                  #  FUNCTIONAL DESCRIPTION:  PROGRAM CALCULATES THE FREE-FALL TIME OF FLIGHT FROM PRESENT POSITION RN AND
000301:                                                                                                  #        VELOCITY VN TO A RADIUS LENGTH SPECIFIED BY RTERM, SUPPLIED BY THE USER.  THE POSITION VECTOR
000302:                                                                                                  #        RN MAY BE ON EITHER SIDE OF THE CONIC, BUT RTERM IS CONSIDERED ON THE INBOUND SIDE.
000303:                                                                                                  #        THE EQUATIONS ARE:
000304:
000305:                                                                                                  #                Q2 = -SQRT(RTERM (2-RTERM ALFA) - LCP)  (INBOUND SIDE)  LEQ +- LCE/SQRT(ALFA)
000306:                                                                                                  #                     __ __
000307:                                                                                                  #                Q1 = RN.VN / SQRT(MU)                                   LEQ +- LCE/SQRT(ALFA)
000308:
000309:                                                                                                  #                Z = NUM / DEN                                           LEQ +- 1/SQRT(ALFA)
000310:
000311:                                                                                                  #        WHERE, IF INBOUND
000312:                                                                                                  #                NUM = RTERM -RN                                         LEQ +- 2 LCE/ALFA
000313:                                                                                                  #                DEN = Q2+Q1                                             LEQ +- 2 LCE/SQRT(ALFA)
000314:
000315:                                                                                                  #        AND, IF OUTBOUND
000316:                                                                                                  #                NUM = Q2-Q1                                             LEQ +- 2 LCE/SQRT(ALFA)
000317:                                                                                                  #                DEN = 2 - ALFA (RTERM + RN).                            LEQ +- 2 LCE
000318:
000319:                                                                                                  #        IF      ALFA ZZ < 1.0           (FOR ALL CONICS EXCEPT ELLIPSES HAVING ABS(DEL ECC ANOM) G 90 DEG)
000320:                                                                                                  #        THEN    X = ALFA Z Z
000321:                                                                                                  #        AND     TFF = (RTERM +RN -2 ZZ T(X) ) Z/SQRT(MU)
000322:                                                                                                  #                EXCEPT  IF ALFA PNZ, AND IF TFF NEG,
000323:                                                                                                  #                THEN    TFF = 2 PI /(ALFA SQRT(ALFA)) + TFF
000324:                                                                                                  #        OR      IF ALFA ZZ GEQ 1.0      (FOR ELLIPSES HAVING ABS(DEL ECC ANOM) GEQ 90 DEG)
000325:                                                                                                  #        THEN    X = 1/ALFA Z Z
000326:                                                                                                  #        AND     TFF = (PI/SQRT(ALFA) -Q2 +Q1 +2(X T(X) -1) /ALFA Z) /ALFA SQRT(MU)
000327:                                                                                                  #        WHERE   T(X) IS A POLYNOMIAL APPROXIMATION TO THE SERIES
000328:                                                                                                  #                             2      3             2
000329:                                                                                                  #                1/3 - X/5 + X /7 - X /8 ...     (X  < 1.0)
000330:
000331:                                                                                                  #  CALLING SEQUENC:      TIME TO RTERM                   TIME TO PERIGEE
000332:                                                                                                  #                        CALL                            CALL
000333:                                                                                                  #                                CALCTFF                         CALCTPER
000334:                                                                                                  #                        C(MPAC) = TERMNL RAD M          C(MPAC) = PERIGEE RAD M
000335:                                                                                                  #        FOR EITHER, E:(-29) M:(-27)
000336:                                                                                                  #        FOR EITHER, PUSHLOC = PDL+0, ARBITRARY IF LEQ 8D.


000338:
000339:                                                                                                  #  SUBROUTINES CALLED:   T(X), VIA RTB
000340:
000341:                                                                                                  #  NORMAL EXIT MODE:     RVQ
000342:                                                                                                  #        HOWEVER, PROGRAM EXITS WITH ONE OF THE FOLLOWING VALUES FOR TFF (-28) CS IN MPAC.  USER MUST STORE.
000343:                                                                                                  #                A. TFF = FLIGHT TIME.  NORMAL CASE FOR POSITIVE FLIGHT TIME LESS THAN ONE ORBITAL PERIOD.
000344:                                                                                                  #                B. (THIS OPTION IS NO LONGER USED.)
000345:                                                                                                  #                C. TFF = POSMAX.  THIS INDICATES THAT THE CONIC FROM THE PRESENT POSITION WILL NOT RETURN TO
000346:                                                                                                  #                   THE SPECIFIED ALTITUDE.  ALSO INDICATES OUTBOUND PARABOLA OR HYPERBOLA.
000347:
000348:                                                                                                  #  OUTPUT:       C(MPAC)         (-28) CS        TIME OF FLIGHT, OR TIME TO PERIGEE
000349:                                                                                                  #                TFFX            (0)             X                                       LEFT FOR ENTRY DISPLAY TFF ROUTINES
000350:                                                                                                  #                NRTERM          E:(-29+NR) M    RTERM, WEIGHTED BY NR                   LEFT FOR ENTRY DISPLAY TFF ROUTINES
000351:                                                                                                  #                                M:(-27+NR)
000352:                                                                                                  #                TFFTEM          E:(-59+2NR)     LCP Z Z SGN(SDELF)                      LEFT FOR ENTRY DISPLAY TFF ROUTINES
000353:                                                                                                  #                                M:(-55+2NR)     LCP /ALFA SGN(SDELF)                    LEFT FOR ENTRY DISPLAY TFF ROUTINES
000354:                                                                                                  #                NOTE:   TFFTEM = PDL 36D AND WILL BE DESTROYED BY .:UNIT:.
000355:                                                                                                  #                RMAG1           E:(-29) M:(-27) PDL 12 NOT TOUCHED.
000356:                                                                                                  #                TFFQ1           E:(-16) M:(-15) PDL 14D
000357:                                                                                                  #                TFFDELQ         E:(-16) M:(-15) PDL 10D
000358:                                                                                                  #                PUSHLOC AT PDL+0
000359:
000360:                                                                                                  #  ERASABLE INITIALIZATION REQUIRED:
000361:                                                                                                  #                RONE            E:(-29) M:(-27) M  STATE VECTOR                         LEFT BY USER
000362:                                                                                                  #                VONE'           E:(+10) M:(+9)  VN/SQRT(NU)                             LEFT BY TFF/CONIC
000363:                                                                                                  #                RMAG1           E:(-29) M:(-27) PRESENT RADIUS, M                       LEFT BY TFFCONIC
000364:                                                                                                  #                C(MPAC)         E:(-29) M:(-27) RTERM, TERMINAL RADIUS LENGTH, M        LEFT BY USER
000365:
000366:                                                                                                  #                THE FOLLOWING ARE STORED IN THE PUSH LIST AREA.
000367:                                                                                                  #                TFF/RTMU        E:(17) M:(14)   1/SQRT(MU)                              LEFT BY TFFCONIC.
000368:                                                                                                  #                NRMAG           E:(-29+NR)      M  RMAG, NORMALIZED                     LEFT BY TFFCONIC
000369:                                                                                                  #                                M:(-27+NR)
000370:                                                                                                  #                X1                              -NR, NORM COUNT                         LEFT BY TFFCONIC
000371:                                                                                                  #                TFFNP           E:(-38+2NR)     M  LCP, SEMI LATUS RECTUM, WEIGHT NR    LEFT BY TFFCONIC
000372:                                                                                                  #                                M:(-36+2N4)
000373:                                                                                                  #                TFFALFA         E:(26-NR)       1/M  ALFA, WEIGHT NR                    LEFT BY TFFCONIC
000374:                                                                                                  #                                M:(24-NR)
000375:                                                                                                  #                TFFRTALF        E:(10+NA)       SQRT(ALFA), NORMALIZED                  LEFT BY TFFCONIC
000376:                                                                                                  #                                M:(9+NA)
000377:                                                                                                  #                X2                              -NA, NORMCOUNT                          LEFT BY TFFCONIC
000378:                                                                                                  #                TFF1/ALF        E:(-22-2NA)     SIGNED SEMI-MAJOR AXIS, WEIGHTED BY NA  LEFT BY TFFCONIC
000379:                                                                                                  #                                M:(-20-2NA)
000380:
000381:                                                                                                  #  DEBRIS:       QPRET, PDL+0 ... PDL+3
000382:                                                                                                  #                RTERM           E:(-29) M(-27)  RTERM, TERMINAL RADIUS LENGTH
000383:                                                                                                  #                RAPO            E:(-29) M(-27)  PDL 16D (=NRTERM)
000384:                                                                                                  #                RPER            E:(-29) M(-27)  PDL 14D (=TFFQ1)
000385:


000387: 27,3466           77614        CALCTPER           SETGO                                          #  ENTER WITH RPER IN MPAC
000388: 27,3467           03436                                    TFFSW
000389: 27,3470           57473                                    +3
000390: 27,3471           77614        CALCTFF            CLEAR                                          #  ENTER WITH RTERM IN MPAC
000391: 27,3472           03676                                    TFFSW
000392: 27,3473           00023                 +3        STORE    RTERM                                 #  E:(-29) M:(-27)
000393: 27,3474           77657                           SL*
000394: 27,3475           20201                                    0,1                                   #  X1=-NR
000395: 27,3476           00021                           STORE    NRTERM                                #  RTERM  E:(-29+NR) M:(-27+NR)
000396: 27,3477           44205                           DMP      BDSU
000397: 27,3500           00033                                    TFFALFA                               #  ALFA  E:(26-NR) M:(24-NR)
000398: 27,3501           06514                                    TFF1/4
000399: 27,3502           41206                           PUSH     DMP                                   #  (2-ALFA RTERM)  (-3)  TO PDL+0
000400: 27,3503           00021                                    NRTERM                                #  E:(-29+NR) M:(-27+NR)
000401: 27,3504           53725                           PDDL     SR*                                   #  RTERM(2-ALFA RTERM) TO PDL+2
000402:                                                                                                  #  E:(-32+NR) M:(-30+NR)
000403: 27,3505           00035                                    TFFNP                                 #  LC P  E:(-38+2NR) M:(-36+2NR)
000404: 27,3506           20573                                    0          -6,1                       #  X1 = -NR
000405: 27,3507           43276                           DCOMP    DAD                                   #  DUE TO SHIFTS, KEEP PRECISION FOR SQRT
000406:                                                                                                  #  RTERM(2-ALFA RTERM) FROM PDL +2
000407:                                                                                                  #  E:(-32+NR) M:(-30+NR)
000408: 27,3510           77657                           SR*                                            #  LEAVE  E:(-32) M:(-30)
000409: 27,3511           20601                                    0,1                                   #  X1 = -NR
000410: 27,3512           71214                           BOFF     DLOAD                                 #  CHECK TFF /TPER SWITCH
000411: 27,3513           03756                                    TFFSW
000412: 27,3514           57516                                    +2                                    #  IF TFF, CONTINUE
000413: 27,3515           06524                                    TFFZEROS                              #  IF TPER, SET Q2 = 0
000414: 27,3516           75440                 +2        BMN      SQRT                                  #  E:(-16) M:(-15)
000415: 27,3517           57651                                    MAXTFF1                               #  NO FREE FALL CONIC TO RTERM FROM HERE
000416:                                                                                                  #  RESET PDL, SET TFF=POSMAX, AND EXIT.
000417:
000418: 27,3520           41076                           DCOMP    BOVB                                  #  RT IS ON INBOUND SIDE.  ASSURE OVFIND=0
000419: 27,3521           57754                                    TCDANZIG                              #  ANY PORT IN A STORM.
000420: 27,3522           24045                           STOVL    TFFTEM                                #  Q2  E:(-16) M:(-15)
000421: 27,3523           02170                                    VONE'                                 #  VN/SQRT(MU)  E:(10) M:(9)
000422: 27,3524           52441                           DOT      SL3
000423: 27,3525           02207                                    RONE                                  #  SAVED RN.  E:(-29) M:(-27)
000424: 27,3526           00017                           STORE    TFFQ1                                 #  Q1, SAVE FOR GONEPAST TEST.
000425:                                                                                                  #  E:(-16) M:(-15)
000426: 27,3527           44240                           BMN      BDSU
000427: 27,3530           57551                                    INBOUND                               #  USE ALTERNATE Z
000428: 27,3531           00045                                    TFFTEM                                #  Q2  E:(-16) M:(-15)
000429:
000430:                                                                                                  #  OUTBOUND Z CALC CONTINUES HERE
000431:
000432: 27,3532           14043                           STODL    TFFX                                  #  NUM=Q2-Q1  E:(-16) M:(-15)
000433: 27,3533           00033                                    TFFALFA                               #  ALFA  E:(26-NR) M:(24-NR)
000434: 27,3534           44205                           DMP      BDSU


000436: 27,3535           00041                                    NRMAG                                 #  RMAG  E:(-29+NR) M:(-27+NR)
000437:                                                                                                  #  (2-RTERM ALFA)  (-3) FROM PDL+0
000438: 27,3536           51406        SAVEDEN            PUSH     ABS                                   #  DEN TO PDL+0  E:(-3) OR (-16)
000439:                                                                                                  #                M:(-3) OR (-15)
000440: 27,3537           40015                           DAD      BOV                                   #  INDETERMINANCY TEST
000441: 27,3540           17760                                    LIM(-22)                              #  =1.0-B(-22)
000442: 27,3541           57562                                    TFFXTEST                              #  GO IF DEN >/= B(-22)
000443: 27,3542           65345                           DLOAD    PDDL                                  #  SET DEN=0 OTHERWISE
000444: 27,3543           06524                                    TFFZEROS
000445:                                                                                                  #  XCH ZERO WITH PDL+0
000446: 27,3544           57545                           DLOAD    DCOMP
000447: 27,3545           00033                                    TFFALFA                               #  ALFA  E:(26-NR) M:(24-NR)
000448: 27,3546           71240                           BMN      DLOAD                                 #  FOR TPER:  Z INDET AT DELE/2=0 AND 90.
000449: 27,3547           57656                                    TFFEL1                                #  ASSUME 90, AND LEAVE 0 IN PDL: 1/Z=D/N
000450:
000451:                                                                                                  #  Z INDET. AT PERIGEE FOR PARAB OR HYPERB.
000452: 27,3550           77616        DUMPTFF1           RVQ                                            #  RETURN TFF =0
000453:
000454:                                                                                                  #  INBOUND Z CALC CONTINUES HERE
000455:
000456: 27,3551           77745        INBOUND            DLOAD                                          #  RESET PDL+0
000457: 27,3552           45345                           DLOAD    DSU                                   #  ALTERNATE Z CALC
000458: 27,3553           00023                                    RTERM                                 #  E:(-29) M:(-27)
000459: 27,3554           00015                                    RMAG1                                 #  E:(-29) M:(-27)
000460: 27,3555           14043                           STODL    TFFX                                  #  NUM=RTERM-RN  E:(-29) M:(-27)
000461: 27,3556           00045                                    TFFTEM                                #  Q2  E:(-16) M:(-15)
000462: 27,3557           52015                           DAD      GOTO
000463: 27,3560           00017                                    TFFQ1                                 #  Q1  E:(-16) M:(-15)
000464: 27,3561           57536                                    SAVEDEN                               #  DEN = Q2+Q1  E:(-16) M:(-15)
000465:
000466: 27,3562           65215        TFFXTEST           DAD      PDDL                                  #  (ABS(DEN) TO PDL+2)   E:(-3) OR (-16)
000467:                                                                                                  #                        M:(-3) OR (-15)
000468: 27,3563           17762                                    DP(-22)                               #  RESTORE ABS(DEN) TO MPAC
000469: 27,3564           00043                                    TFFX                                  #  NUM  E:(-16) OR (-29)  M:(-15) OR (-27)
000470: 27,3565           53605                           DMP      SR*
000471: 27,3566           00031                                    TFFRTALF                              #  SQRT(ALFA)  E:(10+NA) M:(9+NA)
000472: 27,3567           57201                                    0          -3,2                       #  X2=-NA
000473: 27,3570           77671                           DDV                                            #  C(MPAC) =NUM SQRT(ALFA)       E:(-3) OR (-16)
000474:                                                                                                  #                                M:(-3) OR (-15)
000475:                                                                                                  #  ABS(DEN) FROM PDL+2   E:(-3) OR (-16)
000476:                                                                                                  #                        M:(-3) OR (-15)
000477: 27,3571           40145                           DLOAD    BOV                                   #  (THE DLOAD IS SHARED WITH TFFELL)
000478: 27,3572           00043                                    TFFX                                  #  NUM  E:(-16) OR (-29)  M:(-15) OR (-27)
000479: 27,3573           57654                                    TFFELL                                #  USE EQN FOR DELE GEQ 90, LEQ -90
000480:
000481:                                                                                                  #  OTHERWISE, CONTINUE FOR GENERAL CONIC FOR TFF EQN
000482:
000483: 27,3574           45471                           DDV      STADR
000484:                                                                                                  #  DEN FROM PDL+0        E:(-3) OR (-16)
000485:                                                                                                  #                        M:(-3) OR (-15)
000486: 27,3575           77732                           STORE    TFFTEM                                #  Z SAVE FOR SIGN OF SDELF.


000488:                                                                                                  #  E:(-13) M:(-12)
000489: 27,3576           63406                           PUSH     DSQ                                   #  Z TO PDL+0
000490: 27,3577           41206                           PUSH     DMP                                   #  Z SQ TO PDL+2  E:(-26) M:(-24)
000491: 27,3600           00035                                    TFFNP                                 #  LC P  E:(-38+2NR) M:(-36+NR)
000492: 27,3601           75261                           SL       SIGN
000493: 27,3602           20206                                    5
000494: 27,3603           00045                                    TFFTEM                                #  AFFIX SIGN FOR SDELF (ENTRY DISPLAY)
000495: 27,3604           14045                           STODL    TFFTEM                                #  P ZSQ  E:(-59+2NR) M:(-55+2NR)
000496:                                                                                                  #  (ARG IS USED IN TFF/TRIG)
000497:                                                                                                  #  ZSQ FROM PDL+2  E:(-26) M:(-24)
000498: 27,3605           41206                           PUSH     DMP                                   #  RESTORE PUSH LOC
000499: 27,3606           00033                                    TFFALFA                               #  ALFA  E:(26-NR) M:(24-NR)
000500: 27,3607           77657                           SL*
000501: 27,3610           20201                                    0,1                                   #  X1=-NR
000502: 27,3611           00043                           STORE    TFFX                                  #  X
000503: 27,3612           41234                           RTB      DMP
000504: 27,3613           57736                                    T(X)                                  #  POLY
000505:                                                                                                  #  ZSQ FROM PDL+2  E:(-26) M:(-24)
000506: 27,3614           44302                           SR2      BDSU                                  #  2 ZSQ T(X)  E:(-29) M:(-27)
000507: 27,3615           00023                                    RTERM                                 #  RTERM  E:(-29) M:(-27)
000508: 27,3616           41215                           DAD      DMP
000509: 27,3617           00015                                    RMAG1                                 #  E:(-29) M:(-27)
000510:                                                                                                  #  Z FROM PDL+0  E:(-13) M:(-12)
000511: 27,3620           51042                           SR3      BPL                                   #  TFF SQRT(MU)  E:(-45) M:(-42)
000512: 27,3621           57642                                    ENDTFF                                #  (NO PUSH UP)
000513: 27,3622           75206                           PUSH     SIGN                                  #  TFF SQRT(MU) TO PDL+0
000514: 27,3623           00017                                    TFFQ1                                 #  Q1 FOR GONEPAST TEST
000515: 27,3624           71244                           BPL      DLOAD                                 #  GONE PAST ?
000516: 27,3625           57646                                    NEGTFF                                #  YES. TFF < 0.
000517: 27,3626           00027                                    TFF1/ALF                              #  1/ALFA  E:(-22-2NA) M:(-20-2NA)
000518: 27,3627           51076                           DCOMP    BPL                                   #  ALFA > 0 ?
000519: 27,3630           57646                                    NEGTFF                                #  NO. TFF IS NEGATIVE.
000520:
000521:                                                                                                  #  CORRECT FOR ORBITAL PERIOD.
000522:
000523: 27,3631           77676                           DCOMP                                          #  YES.  CORRECT FOR ORB PERIOD.
000524: 27,3632           56205                           DMP      DDV
000525: 27,3633           17756                                    PI/16                                 #  2 PI (-5)
000526: 27,3634           00031                                    TFFRTALF                              #  SQRT(ALFA)  E:(10+NA) M:(9+NA)
000527: 27,3635           53657                           SL*      SL*
000528: 27,3636           57602                                    0          -4,2                       #  X2=-NA
000529: 27,3637           57602                                    0          -4,2
000530: 27,3640           43257                           SL*      DAD
000531: 27,3641           57576                                    0,2
000532:                                                                                                  #  TFF SQRT(MU) FROM PDL+0       E:(-45) M:(-42)
000533: 27,3642           40005        ENDTFF             DMP      BOV                                   #  TFF SQRT(MU) IN MPAC          E:(-45) M:(-42)
000534: 27,3643           00037                                    TFF/RTMU                              #  E:(17) M:(14)
000535: 27,3644           57652                                    MAXTFF                                #  SET POSMAX IN OVFL.
000536:
000537: 27,3645           77616        DUMPTFF2           RVQ                                            #  RETURN TFF (-28) CS IN MPAC.
000538:


000540: 27,3646           77745        NEGTFF             DLOAD
000541:                                                                                                  #  TFF SQRT(MU) FROM PDL+0, NEGATIVE.
000542: 27,3647           77650                           GOTO
000543: 27,3650           57642                                    ENDTFF
000544:
000545: 27,3651           77745        MAXTFF1            DLOAD                                          #  RESET PDL
000546: 27,3652           43545        MAXTFF             DLOAD    RVQ
000547: 27,3653           17772                                    NEARONE
000548:
000549:                                                                                                  #  TIME OF FLIGHT ELLIPSE WHEN DEL (ECCENTRIC ANOM) GEQ 90 AND LEQ -90.
000550:
000551:                                                                                                  #  NUM FROM TFFX.        E:(-16) OR (-29)
000552:                                                                                                  #                        M:(-15) OR (-27)
000553: 27,3654           77712        TFFELL             SL2                                            #  NUM  E:(-14) OR (-27)  M:(-13) OR (-25)
000554: 27,3655           41465                           BDDV     PUSH                                  #  TEMP SAVE D/N IN PDL+0
000555:                                                                                                  #  DEN FROM PDL+0  E:(-3)/(-16)  M:(-3)/(-15)
000556:                                                                                                  #  N/D TO PDL+0  E:(11) M:(10)
000557: 27,3656           45345        TFFEL1             DLOAD    DSU                                   #  (ENTER WITH D/N=0 IN PDL+0)
000558: 27,3657           00045                                    TFFTEM                                #  Q2  E:(-16) M:(-15)
000559: 27,3660           00017                                    TFFQ1                                 #  Q1  E:(-16) M:(-15)
000560: 27,3661           14013                           STODL    TFFDELQ                               #  Q2-Q1  E:(-16) M:(-15)
000561:                                                                                                  #  D/N FROM PDL+0
000562: 27,3662           77626                           STADR
000563: 27,3663           77732                           STORE    TFFTEM                                #  D/N  E:(11) M:(10)
000564: 27,3664           53605                           DMP      SL*
000565: 27,3665           00027                                    TFF1/ALF                              #  1/ALFA  E:(-22-2NA) M:(-20-2NA)
000566: 27,3666           57576                                    0,2                                   #  1/ALFA Z  E:(-11-NA) M:(-10-NA)
000567: 27,3667           41206                           PUSH     DMP                                   #  TO PDL+0
000568: 27,3670           00045                                    TFFTEM                                #  1/Z  E:(11) M:(10
000569: 27,3671           41057                           SL*      BOVB
000570: 27,3672           57576                                    0,2                                   #  X2= -NA
000571: 27,3673           21713                                    SIGNMPAC                              #  IN CASE X= 1.0, CONTINUE
000572: 27,3674           00043                           STORE    TFFX                                  #  X=1/ALFA ZSQ
000573: 27,3675           41234                           RTB      DMP
000574: 27,3676           57736                                    T(X)                                  #  POLY
000575: 27,3677           00043                                    TFFX
000576: 27,3700           45242                           SR3      DSU
000577: 27,3701           17764                                    DP2(-3)
000578: 27,3702           41405                           DMP      PUSH                                  #  2(X T(X)-1) /Z ALFA   E:(-15-NA)
000579:                                                                                                  #                        M:(-14-NA)
000580:                                                                                                  #  1/ALFA Z FROM PDL+0   E:(-11-NA)
000581:                                                                                                  #                        M:(-10-NA)
000582: 27,3703           41345                           DLOAD    DMP                                   #  GET SIGN FOR SDELF
000583: 27,3704           00045                                    TFFTEM                                #  1/Z  E:(11) M:(10)
000584: 27,3705           00015                                    RMAG1                                 #  E:(-29) M:(-27)
000585: 27,3706           43312                           SL2      DAD
000586: 27,3707           00017                                    TFFQ1                                 #  Q1  E:(-16) M:(-15)
000587: 27,3710           14045                           STODL    TFFTEM                                #  (Q1+R 1/Z) =SGN OF SDELF  E:(-16) M:(-15)
000588: 27,3711           00035                                    TFFNP                                 #  LC P  E:(-38+2NR) M:(-36+2NR)
000589: 27,3712           53605                           DMP      SL*                                   #  CALC FOR ARG FOR TFF/TRIG.


000591: 27,3713           00027                                    TFF1/ALF                              #  1/ALFA  E:(-22-2NA) M:(-20-2NA)
000592: 27,3714           57575                                    1,2                                   #  X2=-NA
000593: 27,3715           53765                           SIGN     SL*
000594: 27,3716           00045                                    TFFTEM                                #  AFFIX SIGN FOR SDELF
000595: 27,3717           57576                                    0,2
000596: 27,3720           14045                           STODL    TFFTEM                                #  P/ALFA  E:(-59+2NR) M:(-55+2NR)
000597:                                                                                                  #  (ARG FOR USE IN TFF/TRIG)
000598: 27,3721           00027                                    TFF1/ALF                              #  1/ALFA  E:(-22-2NA) M:(-20-2NA)
000599: 27,3722           41366                           SQRT     DMP
000600: 27,3723           17756                                    PI/16                                 #  PI (-4)
000601: 27,3724           77615                           DAD
000602:                                                                                                  #  2(XT(X)-1)/Z ALFA FROM PDL    E:(-15-NA)
000603:                                                                                                  #                                M:(-14-NA)
000604: 27,3725           45257                           SL*      DSU
000605: 27,3726           57577                                    0          -1,2
000606: 27,3727           00013                                    TFFDELQ                               #  Q2-Q1  E:(-16) M:(-15)
000607: 27,3730           53605                           DMP      SL*
000608: 27,3731           00027                                    TFF1/ALF                              #  1/ALFA  E:(-22-2NA) M:(-20-2NA)
000609: 27,3732           57601                                    0          -3,2
000610: 27,3733           52057                           SL*      GOTO
000611: 27,3734           57602                                    0          -4,2
000612: 27,3735           57642                                    ENDTFF                                #  TFF SQRT(MU) IN MPAC E:(-145) M:(-42)
000613:


000615:                                                                                                  #  PROGRAM NAME:  T(X)                           DATE:  01.17.67
000616:                                                                                                  #  MOD NO:  0                                    LOG SECTION:  TIME OF FREE FALL
000617:                                                                                                  #  MOD BY:  RR BAIRNSFATHER
000618:
000619:                                                                                                  #  FUNCTIONAL DESCRIPTION:  THE POLYNOMIAL T(X) IS USED BY TIME OF FLIGHT SUBROUTINES CALCTFF AND
000620:                                                                                                  #        CALCTPER TO APPROXIMATE THE SERIES
000621:                                                                                                  #                           2     3
000622:                                                                                                  #                1/3 -X/5 +X /7 -X /9 ...
000623:
000624:                                                                                                  #        WHERE   X = ALFA Z Z            IF ALFA Z Z LEQ 1
000625:                                                                                                  #                X = 1/(ALFA Z Z)        IF ALFA Z Z G 1
000626:
000627:                                                                                                  #        ALSO    X IS NEG FOR HYPERBOLIC ORBITS
000628:                                                                                                  #                X = 0 FOR PARABOLIC ORBITS
000629:                                                                                                  #                X IS POSITIVE FOR ELLIPTIC ORBITS
000630:
000631:                                                                                                  #        FOR FLIGHT 278, THE POLYNOMIAL T(X) IS FITTED OVER THE RANGE (0,+1) AND HAS A MAXIMUM
000632:                                                                                                  #        DEVIATION FROM THE SERIES OF 2 E-5.  (T(X) IS A CHEBYCHEV TYPE FIT AND WAS OBTAINED USING
000633:                                                                                                  #        MAX PROGRAM AUTOCURFIT294RRB AND IS VALID TO THE SAME TOLERANCE OVER THE RANGE (-.08,+1).)
000634:
000635:                                                                                                  #  CALLING SEQUENCE:     RTB
000636:                                                                                                  #                                T(X)
000637:                                                                                                  #        C(MPAC) = X
000638:
000639:                                                                                                  #  SUBROUTINE CALLED:  NONE
000640:
000641:                                                                                                  #  NORMAL EXIT MODE:  TC TANZIG
000642:
000643:                                                                                                  #  ALARMS:  NONE
000644:
000645:                                                                                                  #  OUTPUT:  C(MPAC) = T(X)
000646:
000647:                                                                                                  #  ERASABLE INITIALIZATION REQUIRED:
000648:                                                                                                  #        C(MPAC) = X
000649:
000650:                                                                                                  #  DEBRIS:  NONE
000651:
000652: 27,3736           07225        T(X)               TC       POLY
000653: 27,3737           00004                           DEC      4          B-14                       #  N-1
000654: 27,3740           12525 12525                     2DEC     3.333333333 E-1
000655: 27,3742           71463 57703                     2DEC*    -1.999819135 E-1*
000656: 27,3744           04423 17645                     2DEC*    1.418148467 E-1*
000657: 27,3746           74604 43667                     2DEC*    -1.01310997 E-1*
000658: 27,3750           01626 37256                     2DEC*    5.609004986 E-2*
000659: 27,3752           77404 52071                     2DEC*    -1.536156925 E-2*
000660:
000661: 27,3754           06064        ENDT(X)            TC       DANZIG
000662:
000663: 27,3755  27,3754               TCDANZIG           =        ENDT(X)
000664:


000666:                                                                                                  #  TFF CONSTANTS
000667:
000668: 32,3751                                           BANK     32
000669:
000670: 27,2000                                           SETLOC   TOF-FF1
000671: 27,2000                                           BANK
000672:
000673:                                                                                                  #                                                # NOTE:  ADJUSTED MUE FOR NEAR EARTH TRAJ.
000674:                                                                                                  # MUE            =       3.990815471 E10         # M CUBE/CS SQ
000675:                                                                                                  # RTMUE          =       1.997702549 E5 B-18     # MODIFIED EARTH MU
000676:
000677:                                                                                                  #                                                # NOTE:  ADJUSTED MUE FOR NEAR EARTH TRAJ.
000678:                                                                                                  # MUM            =       4.902778 E8             # M CUBE/CS SQ
000679:                                                                                                  # RTMUM          2DEC*   2.21422176 E4 B-18*
000680: 27,3755           06220 37553  PI/16              2DEC     3.141592653 B-4
000681: 27,3757           37777 37700  LIM(-22)           2OCT     3777737700                            #  1.0 -B(-22)
000682: 27,3761           00000 00100  DP(-22)            2OCT     0000000100                            #  B(-22)
000683: 27,3763           04000 00000  DP2(-3)            2DEC     1          B-3
000684: 27,3765           02000 00000  DP2(-4)            2DEC     1          B-4                        #  1/16
000685:
000686:                                                                                                  #  RPAD1         2DEC    6373338 B-29            # M (-29) = 20909901.57 FT
000687: 27,3767  23,2337               RPAD1              =        RPAD
000688:
000689: 27,3767           00305 11205  R300K              2DEC     6464778    B-29                       #  (-29) M
000690: 27,3771           37777 37777  NEARONE            2DEC     .999999999
000691: 27,3773  23,2523               TFFZEROS           EQUALS   HI6ZEROS
000692: 27,3773  23,2513               TFF1/4             EQUALS   HIDP1/4
000693:

End of include-file TIME_OF_FREE_FALL.agc.  Parent file is MAIN.agc


