
Source Code


000002:                                                                                                  ## Copyright:   Public domain.
000003:                                                                                                  ## Filename:    TJET_LAW.agc
000004:                                                                                                  ## Purpose:     A section of Luminary 1C, revision 131.
000005:                                                                                                  ##              It is part of the source code for the Lunar Module's (LM)
000006:                                                                                                  ##              Apollo Guidance Computer (AGC) for Apollo 13.
000007:                                                                                                  ##              This file is intended to be a faithful transcription, except
000008:                                                                                                  ##              that the code format has been changed to conform to the
000009:                                                                                                  ##              requirements of the yaYUL assembler rather than the
000010:                                                                                                  ##              original YUL assembler.
000011:                                                                                                  ## Reference:   pp. 1452-1461
000012:                                                                                                  ## Contact:     Ron Burkey <info@sandroid.org>.
000013:                                                                                                  ## Website:     www.ibiblio.org/apollo/index.html
000014:                                                                                                  ## Mod history: 06/08/03 RSB.   Began transcribing.
000015:                                                                                                  ##              05/14/05 RSB    Corrected website reference above.
000016:                                                                                                  ##              2010-10-25 JL   Indentation fixes.
000017:                                                                                                  ##              2017-01-06 RSB  Page numbers now agree with those on the
000018:                                                                                                  ##                              original hardcopy, as opposed to the PDF page
000019:                                                                                                  ##                              numbers in 1701.pdf.
000020:                                                                                                  ##              2017-02-28 RSB  Proofed comment text using octopus/ProoferComments.
000021:


000023:                                                                                                  #  PROGRAM DESCRIPTION
000024:                                                                                                  #  DESIGNED BY:  R. D. GOSS AND P. S. WEISSMAN
000025:                                                                                                  #  CODED BY:  P. S. WEISSMAN 28 FEBRUARY 1968
000026:
000027:                                                                                                  #  TJETLAW IS CALLED AS A SUBROUTINE WHEN THE LEM IS NOT DOCKED AND THE AUTOPILOT IS IN THE AUTOMATIC OR
000028:                                                                                                  #  ATTITUDE-HOLD MODE TO CALCULATE THE JET-FIRING-TIME (TJET) REQUIRED FOR THE AXIS INDICATED BY AXISCTR:
000029:                                                                                                  #        -1      INDICATES THE P-AXIS
000030:                                                                                                  #        +0      INDICATES THE U-AXIS
000031:                                                                                                  #        +1      INDICATES THE V-AXIS.
000032:                                                                                                  #  THE REGISTERS E AND EDOT CONTAIN THE APPROPRIATE ATTITUDE ERROR AND ERROR RATE AND SENSETYP SHOWS WHETHER
000033:                                                                                                  #  UNBALANCED COUPLES ARE PREFERRED.  TJETLAW ALSO USES VARIOUS FUNCTIONS OF ACCELERATION AND DEADBAND WHICH ARE
000034:                                                                                                  #  COMPUTED IN THE 1/ACCONT SECTION OF 1/ACCS AND ARE STORED IN SUCH AN ORDER THAT THEY CAN BE CONVENIENTLY
000035:                                                                                                  #  ACCESSED BY INDEXING.
000036:
000037:                                                                                                  #  THE SIGN OF THE REQUIRED ROTATION IS CARRIED THROUGH TJETLAW AS ROTSENSE AND IS FINALLY APPLIED TO TJET JUST
000038:                                                                                                  #  PREVIOUS TO ITS STORAGE IN THE LOCATION CORRESPONDING TO THE AXIS (TJP, TJU OR TJV).  THE NUMBER OF JETS THAT
000039:                                                                                                  #  TJETLAW ASSUMES WILL BE USED IS INDICATED BY THE SETTING OF NUMBERT FOR THE U- OR V-AXIS.  TWO JETS ARE ALWAYS
000040:                                                                                                  #  ASSUMED FOR THE P-AXIS ALTHOUGH FOUR JETS WILL BE FIRED WHEN FIREFCT IS MORE NEGATIVE THAN -4.0 DEGREES
000041:                                                                                                  #  (FIREFCT IS THE DISTANCE TO A SWITCH CURVE IN THE PHASE PLANE) AND A LONG FIRING IS CALLED FOR.
000042:
000043:                                                                                                  #  IN ORDER TO AVOID SCALING DIFFICULTIES, SIMPLE ALGORITHMS TAGGED RUFLAW1, -2 AND -3 ARE RESORTED TO WHEN THE
000044:                                                                                                  #  ERROR AND/OR ERROR RATE ARE LARGE.
000045:
000046:                                                                                                  #  CALLING SEQUENCE:
000047:                                                                                                  #                TC      TJETLAW         (MUST BE IN JASK)
000048:                                                                                                  #        OR
000049:                                                                                                  #                INHINT                  (MUST BE IN JASK)
000050:                                                                                                  #                TC      IBNKCALL
000051:                                                                                                  #                CADR    TJETLAW
000052:                                                                                                  #                RELINT
000053:
000054:                                                                                                  #  EXIT:         RETURN TO Q.
000055:
000056:                                                                                                  #  INPUT:
000057:                                                                                                  #        FROM THE CALLER:  E, EDOT, AXISCTR, SENSETYP, TJP, -U, -V.
000058:                                                                                                  #        FROM 1/ACCONT:  48 ERASABLES BEGINNING AT BLOCKTOP (INCLUDING FLAT, ZONE3LIM AND ACCSWU, -V).
000059:
000060:                                                                                                  #  OUTPUT:
000061:                                                                                                  #        TJP, -U OR -V, NUMBERT (DAPTEMP5), FIREFCT (DAPTEMP3).
000062:
000063:                                                                                                  #  DEBRIS:
000064:                                                                                                  #        A, L, Q, E, EDOT, DAPTEMP1-6, DAPTREG1-4.
000065:
000066:                                                                                                  #  ALARM:  NONE
000067:
000068: 17,3304                                           BANK     17
000069: 17,2000                                           SETLOC   DAPS2
000070: 17,2000                                           BANK
000071: 17,3304  E6,1524                                  EBANK=   TJP


000073: 17,3304                                           COUNT*   $$/DAPTJ
000074:
000075: 17,3304           00006        TJETLAW            EXTEND                                         #  SAVE Q FOR RETURN.
000076: 17,3305           23744                           QXCH     HOLDQ
000077:
000078:                                                                                                  #  SET INDEXERS TO CORRESPOND TO THE AXIS AND TO THE SIGN OF EDOT
000079:
000080: 17,3306           51505                           INDEX    AXISCTR                               #  AXISDIFF(-1)=NO OF LOCATIONS BER P AND U
000081: 17,3307           33755                           CAF      AXISDIFF                              #  AXISDIFF(0)=0
000082: 17,3310           55745                           TS       ADRSDIF1                              #  AXISDIFF(+1)=NO OF LOCATIONS BET V AND U
000083:
000084: 17,3311           31427                           CAE      EDOT                                  #  IF EDOT NEGATIVE, PICK UP SET OF VALUES
000085: 17,3312           00006                           EXTEND                                         #        THAT ALLOW USE OF SAME CODING AS FOR
000086: 17,3313           63320                           BZMF     NEGEDOT                               #        POSITIVE EDOT.
000087: 17,3314           31745                           CAE      ADRSDIF1                              #  SET A SECOND INDEXER WHICH MAY BE
000088: 17,3315           55743                           TS       ADRSDIF2                              #        MODIFIED BY A DECISION FOR MAX JETS.
000089: 17,3316           33757                           CAF      SENSOR                                #  FOR POSITIVE EDOT, ROTSENSE IS
000090: 17,3317           13330                           TCF      SETSENSE                              #        INITIALIZED POSITIVE.
000091:
000092: 17,3320           41751        NEGEDOT            CS       E                                     #  IN ORDER FOR NEG EDOT CASE TO USE CODING
000093: 17,3321           55751                           TS       E                                     #        OF POS EDOT, MUST MODIFY AS FOLLOWS:
000094: 17,3322           41427                           CS       EDOT                                  #        1. COMPLEMENT E AND EDOT.
000095: 17,3323           55427                           TS       EDOT                                  #        2. SET SENSE OF ROTATION TO NEGATIVE
000096: 17,3324           34753                           CAF      BIT1                                  #           (REVERSED LATER IF NECESSARY).
000097: 17,3325           27745                           ADS      ADRSDIF1                              #        3. INCREMENT INDEXERS BY ONE SO THAT
000098: 17,3326           55743                           TS       ADRSDIF2                              #           THE PROPER PARAMETERS ARE ACCESSED.
000099: 17,3327           43757                           CS       SENSOR
000100: 17,3330           55737        SETSENSE           TS       ROTSENSE
000101:
000102:                                                                                                  #  TEST MAGNITUDE OF E (ATTITUDE ERROR, SINGLE-PRECISION, SCALED AT PI RADIANS):
000103:                                                                                                  #        IF GREATER THAN (OR EQUAL TO) PI/16 RADIANS, GO TO THE SIMPLIFIED TJET ROUTINE.
000104:                                                                                                  #        IF LESS THAN PI/16 RADIANS, RESCALE TO PI/4.
000105:
000106: 17,3331           31751                           CAE      E                                     #  PICK UP ATTITUDE ERROR FOR THIS AXIS
000107: 17,3332           00006                           EXTEND
000108: 17,3333           74747                           MP       BIT5                                  #  SHIFT RIGHT TEN BITS:  IF A-REGISTER IS
000109: 17,3334           10000                           CCS      A                                     #        ZERO, RESCALE AND TEST EDOT.
000110: 17,3335           13717                           TCF      RUFLAW2
000111: 17,3336           13340                           TCF      SCALEE
000112: 17,3337           13663                           TCF      RUFLAW1
000113: 17,3340           34737        SCALEE             CAF      BIT13                                 #  ERROR IS IN L SCALED AT PI/16.  RESCALE
000114: 17,3341           00006                           EXTEND                                         #        IT TO PI/4 AND SAVE IT.
000115: 17,3342           70001                           MP       L
000116: 17,3343           55751                           TS       E
000117:
000118:                                                                                                  #  TEST MAGNITUDE OF EDOT (ERROR RATE SCALED AT PI/4 RADIANS/SECOND)
000119:                                                                                                  #        IF GREATER THAN (OR EQUAL TO) PI/32 RADIANS/SECOND, GO TO THE SIMPLIFIED TJET ROUTINE.
000120:                                                                                                  #        IF LESS THAN PI/32 RADIANS/SECOND, THEN RESCALE TO PI/32 RADIANS/SECOND.
000121:
000122: 17,3344           31427                           CAE      EDOT                                  #  PICK UP SINGLE-PRECISION ERROR-RATE


000124: 17,3345           00006                           EXTEND                                         #  FOR THIS AXIS=
000125: 17,3346           74750                           MP       BIT4                                  #  SHIFT RIGHT ELEVEN BITS, IF THE A-REG IS
000126: 17,3347           00006                           EXTEND                                         #  ZERO, THEN RESCALE AND USE FINELAW.
000127: 17,3350           13352                           BZF      SCALEDOT
000128: 17,3351           13725                           TCF      RUFLAW3
000129:
000130:                                                                                                  #  *** FINELAW STARTS HERE ***
000131:
000132: 17,3352           23427        SCALEDOT           LXCH     EDOT                                  #  EDOT IS SCALED AT PI/32 RADIANS/SECOND.
000133:
000134: 17,3353           31427                           CAE      EDOT                                  #  COMPUTE (EDOT)(EDOT)
000135: 17,3354           00006                           EXTEND
000136: 17,3355           70000                           SQUARE                                         #  PRODUCT SCALED AT PI(2)/2(10) RAD/SEC.
000137: 17,3356           00006                           EXTEND
000138: 17,3357           74737                           MP       BIT13                                 #  SHIFT RIGHT TWO BITS TO RESCALE EDOTSQ
000139: 17,3360           55736                           TS       EDOTSQ                                #        TO PI(2)/2(8) RAD(2)/SEC(2).
000140:
000141: 17,3361           11751        ERRTEST            CCS      E                                     #  DOES BIG ERROR (THREE DEG BEYOND THE
000142: 17,3362           13365                           TCF      +3                                    #  DEADBAND) REQUIRE MAXIMUM JETS?
000143: 17,3363           13365                           TCF      +2
000144: 17,3364           13365                           TCF      +1
000145: 17,3365           63760                           AD       -3DEG
000146: 17,3366           00006                           EXTEND
000147: 17,3367           51745                           INDEX    ADRSDIF1
000148: 17,3370           61600                           SU       FIREDB
000149: 17,3371           00006                           EXTEND
000150: 17,3372           63377                           BZMF     SENSTEST                              #  IF NOT:  ARE UNBALANCED JETS PREFERRED|
000151: 17,3373           34752        MAXJETS            CAF      TWO                                   #  IF YES:  INCREMENT ADDRESS LOCATOR AND
000152: 17,3374           27743                           ADS      ADRSDIF2                              #           SET SWITCH FOR JET SELECT LOGIC TO 4.
000153: 17,3375           34751                           CAF      FOUR                                  #           (ALWAYS DO THIS FOR P-AXIS)
000154: 17,3376           13402                           TCF      TJCALC
000155: 17,3377           11500        SENSTEST           CCS      SENSETYP                              #  DOES TRANSLATION PREFER MIN JETS.
000156: 17,3400           13402                           TCF      TJCALC                                #  YES.  USE MIN-JET PARAMETERS.
000157: 17,3401           13373                           TCF      MAXJETS                               #  NO.  GET MAX-JET PARAMETERS.
000158: 17,3402           55742        TJCALC             TS       NUMBERT                               #  SET TO +0,1,4 FOR (U,V-AXES) JET SELECT.
000159:
000160:                                                                                                  #  BEGINNING OF TJET CALCULATIONS:
000161:
000162: 17,3403           41736                           CS       EDOTSQ                                #  SCALED AT PI(2)/2(8).
000163: 17,3404           00006                           EXTEND
000164: 17,3405           51743                           INDEX    ADRSDIF2
000165: 17,3406           71566                           MP       1/ANET1                               #  .5/ACC SCALED AT 2(6)/PI SEC(2)/RADIAN.
000166: 17,3407           51745                           INDEX    ADRSDIF1
000167: 17,3410           61600                           AD       FIREDB                                #  DEADBAND SCALED AT PI/4 RADIAN.
000168: 17,3411           00006                           EXTEND
000169: 17,3412           61751                           SU       E                                     #  ATTITUDE ERROR SCALED AT PI/4 RADIAN.
000170: 17,3413           55740                           TS       FIREFCT                               #  -E-.5(EDOTSQ)/ACC-DB AT PI/4 RADIAN.
000171: 17,3414           00006                           EXTEND
000172: 17,3415           63575                           BZMF     ZON1,2,3
000173:
000174: 17,3416           51745        ZONE4,4            INDEX    ADRSDIF1


000176: 17,3417           31572                           CAE      1/ACOAST                              #  .5/ACC SCALED AT 2(6)/PI WHERE
000177: 17,3420           00006                           EXTEND                                         #  ACC = MAX(AMIN, AOS-).
000178: 17,3421           71736                           MP       EDOTSQ                                #  SCALED AT PI/2(8).
000179: 17,3422           61751                           AD       E                                     #  SCALED AT PI/4
000180: 17,3423           51745                           INDEX    ADRSDIF1
000181: 17,3424           61602                           AD       COASTDB                               #  SCALED AT PI/4 POS. FOR NEG. INTERCEPT.
000182: 17,3425           00006                           EXTEND                                         #  TEST E+.5(EDOTSQ)/ACC+DB AT PI/4 RADIAN.
000183: 17,3426           63461                           BZMF     ZONE5                                 #  IF FUNCTION NEGATIVE, FIND TJET.
000184:                                                                                                  #  IF FUNCTION POSITIVE, IN ZONE 4.
000185:
000186:                                                                                                  #  ZONE 4 IS THE COAST REGION.  HOWEVER, IF THE JETS ARE ON AND DRIVING TOWARD
000187:                                                                                                  #        A. THE AXIS WITHIN + OR - (DB + FLAT) FOR DRIFTING FLIGHT, OR
000188:                                                                                                  #        B. THE USUAL TARGET PARABOLA FOR POWERED FLIGHT
000189:                                                                                                  #  THEN THE THRUSTERS ARE KEPT ON.
000190:
000191: 17,3427           51505        ZONE4              INDEX    AXISCTR                               #  IS THE CURRENT VALUE IN TJET NON-ZERO
000192: 17,3430           41525                           CS       TJETU                                 #        WITH SENSE OPPOSITE TO EDOT,
000193: 17,3431           00006                           EXTEND                                         #        (I.E., ARE JETS ON AND FIRING TOWARD
000194: 17,3432           71737                           MP       ROTSENSE                              #        THE DESIRABLE STATE).
000195: 17,3433           00006                           EXTEND
000196: 17,3434           63455                           BZMF     COASTTJ                               #  NO.  COAST.
000197:
000198: 17,3435           11554        JETSON             CCS      FLAT                                  #  YES.  IS THIS DRIFTING OR POWERED FLIGHT|
000199: 17,3436           13447                           TCF      DRIFT/ON                              #  DRIFTING.  GO MAKE FURTHER TEST.
000200:
000201: 17,3437           41740                           CS       FIREFCT                               #  POWERED (OR ULLAGE).  CAN TARGET PARABOLA
000202: 17,3440           51745                           INDEX    ADRSDIF1                              #        BE REACHED FROM THIS POINT IN THE
000203: 17,3441           61604                           AD       AXISDIST                              #        PHASE PLANE|
000204: 17,3442           00006                           EXTEND
000205: 17,3443           63455                           BZMF     COASTTJ                               #  NO. SET TJET = 0.
000206: 17,3444           03561                           TC       Z123COMP                              #  YES.  CALCULATE TJET AS THOUGH IN ZONE 1
000207: 17,3445           31740                           CAE      FIREFCT                               #        AFTER COMPUTING THE REQUIRED
000208: 17,3446           13615                           TCF      ZONE1                                 #        PARAMETERS.
000209:
000210: 17,3447           51745        DRIFT/ON           INDEX    ADRSDIF1                              #  CAN TARGET STRIP OF AXIS BE REACHED FROM
000211: 17,3450           41600                           CS       FIREDB                                #        THIS POINT IN THE PHASE PLANE|
000212: 17,3451           60000                           DOUBLE
000213: 17,3452           61740                           AD       FIREFCT
000214: 17,3453           00006                           EXTEND
000215: 17,3454           63457                           BZMF     +3
000216: 17,3455           34755        COASTTJ            CAF      ZERO                                  #  NO.  SET TJET = 0.
000217: 17,3456           13521                           TCF      RETURNTJ
000218:
000219: 17,3457           03561                           TC       Z123COMP                              #  YES. CALCULATE TJET AS THOUGH IN ZONE 2
000220: 17,3460           13602                           TCF      ZONE2,3                               #        OR 3 AFTER COMPUTING REQUIRED VALUES.
000221:
000222: 17,3461           54001        ZONE5              TS       L                                     #  TEMPORARILY STORE FUNCTION IN L.
000223: 17,3462           11737                           CCS      ROTSENSE                              #  MODIFY ADRSDIF2 FOR ACCESSING 1/ANET2
000224: 17,3463           13467                           TCF      +4                                    #  AND ACCFCTZ5, WHICH MUST BE PICKED UP
000225: 17,3464           05675                           TC       CCSHOLE                               #  FROM THE NEXT LOWER REGISTER IF THE


000227: 17,3465           44752                           CS       TWO                                   #  (ACTUAL) ERROR RATE IS NEGATIVE.
000228: 17,3466           27743                           ADS      ADRSDIF2
000229:
000230: 17,3467           30001                 +4        CAE      L
000231: 17,3470           00006                           EXTEND
000232: 17,3471           51743                           INDEX    ADRSDIF2                              #  TTOAXIS AND HH ARE THE PARAMETERS UPON
000233: 17,3472           71575                           MP       ACCFCTZ5                              #        WHICH THE APPROXIMATIONS TO TJET ARE
000234: 17,3473           20001                           DDOUBL                                         #        BASED.
000235: 17,3474           20001                           DDOUBL
000236: 17,3475           53747                           DXCH     HH                                    #  DOUBLE PRECISION H SCALED AT 8 SEC(2).
000237: 17,3476           51743                           INDEX    ADRSDIF2
000238: 17,3477           31567                           CAE      1/ANET2                               #  SCALED AT 2(7)/PI SEC(2)/RAD.
000239: 17,3500           00006                           EXTEND
000240: 17,3501           71427                           MP       EDOT                                  #  SCALED AT PI/2(5)
000241: 17,3502           55741                           TS       TTOAXIS                               #  SCALED AT 4 SEC.
000242:
000243:                                                                                                  #  TEST WHETHER TJET GREATER THAN 50 MSEC.
000244:
000245: 17,3503           00006                           EXTEND
000246: 17,3504           73767                           MP       -.05AT2                               #  H - .05 TTOAXIS - .00125 G.T. ZERO
000247: 17,3505           61746                           AD       HH                                    #        (SCALED AT 8 SEC(2) ).
000248: 17,3506           67751                           AD       NEG2
000249: 17,3507           00006                           EXTEND
000250: 17,3510           63536                           BZMF     FORMULA1
000251:
000252:                                                                                                  #  TEST WHETHER TJET GREATER THAN 150 MSEC.
000253:
000254: 17,3511           31741                           CAE      TTOAXIS
000255: 17,3512           00006                           EXTEND
000256: 17,3513           73770                           MP       -.15AT2                               #  H - .15 TTOAXIS - .01125 G.T. ZERO
000257: 17,3514           61746                           AD       HH                                    #        (SCALED AT 8 SEC(2) )
000258: 17,3515           63761                           AD       -.0112A8
000259: 17,3516           00006                           EXTEND
000260: 17,3517           63546                           BZMF     FORMULA2
000261:
000262:                                                                                                  #  IF TJET GREATER THAN 150 MSEC, ASSIGN IT VALUE OF 250 MSEC, SINCE THIS
000263:                                                                                                  #  IS ENOUGH TO ASSURE NO SKIP NEXT CSP (100 MSEC).
000264:
000265: 17,3520           34741        FULLTIME           CAF      BIT11                                 #  250 MSEC SCALED AT 4 SEC.
000266:
000267:                                                                                                  #  RETURN TO CALLING PROGRAM WITH JET TIME SCALED AS TIME6 AND SIGNED.
000268:
000269: 17,3521           00006        RETURNTJ           EXTEND                                         #  ALL BRANCHES TERMINATE HERE WITH TJET
000270: 17,3522           71737                           MP       ROTSENSE                              #        (SCALED AT 4 SEC) IN THE ACCUMULATOR.
000271: 17,3523           51505                           INDEX    AXISCTR                               #  ROTSENSE APPLIES SIGN AND CHANGES SCALE.
000272: 17,3524           55525                           TS       TJETU
000273: 17,3525           00006                           EXTEND
000274: 17,3526           51505                           INDEX    AXISCTR
000275: 17,3527           71546                           MP       ACCSWU                                #  SET SWITCH FOR JET SELECT IF ROTATION IS
000276: 17,3530           30001                           CAE      L
000277: 17,3531           00006                           EXTEND                                         #        IN A SENSE FOR WHICH 1/ACCS HAS FORCED
000278: 17,3532           63535                           BZMF     +3                                    #        A MAX-JET CALCULATION.


000280: 17,3533           34751                           CAF      FOUR
000281: 17,3534           55742                           TS       NUMBERT
000282: 17,3535           01744                           TC       HOLDQ                                 #  RETURN VIA SAVED Q.
000283:
000284:                                                                                                  #  TJET = H/(.025 + TTOAXIS)     FOR TJET LESS THAN 50 MSEC.
000285:
000286: 17,3536           43766        FORMULA1           CS       -.025AT4                              #  .025 SEC SCALED AT 4.
000287: 17,3537           61741                           AD       TTOAXIS                               #  SCALED AT 4 SECONDS.
000288: 17,3540           53747                           DXCH     HH                                    #  STORE DENOMINATOR IN FIRST WORD OF H,
000289: 17,3541           00006                           EXTEND                                         #        WHICH NEED NOT BE PRESERVED.  PICK UP
000290: 17,3542           11746                           DV       HH                                    #        DP H AND DIVIDE BY DENOMINATOR.
000291: 17,3543           00006                           EXTEND
000292: 17,3544           74736                           MP       BIT14                                 #  RESCALE TJET FROM 2 TO USUAL 4 SEC.
000293: 17,3545           13656                           TCF      CHKMINTJ                              #  CHECK THAT TJET IS NOT LESS THAN MINIMUM
000294:
000295:                                                                                                  #  TJET = (H + .00375)/(0.1 + TTOAXIS)   FOR TJET GREATER THAN 50 MSEC.
000296:
000297: 17,3546           00006        FORMULA2           EXTEND
000298: 17,3547           33772                           DCA      .00375A8                              #  .00375 SEC(2) SCALED AT 8.
000299: 17,3550           21747                           DAS      HH                                    #  STORE NUMERATOR IN DP H, WHICH NEED NOT
000300:                                                                                                  #        BE PRESERVED.
000301: 17,3551           31741                           CAE      TTOAXIS                               #  SCALED AT 4 SEC.
000302: 17,3552           63762                           AD       .1AT4                                 #  0.1 SEC SCALED AT 4.
000303: 17,3553           53747                           DXCH     HH                                    #  STORE DENOMINATOR IN FIRST WORD OF H,
000304: 17,3554           00006                           EXTEND                                         #        WHICH NEED NOT BE PRESERVED.  PICK UP
000305: 17,3555           11746                           DV       HH                                    #        DP NUMERATOR AND DIVIDE BY DENOMINATOR
000306: 17,3556           00006                           EXTEND
000307: 17,3557           74736                           MP       BIT14                                 #  RESCALE TJET FROM 2 TO USUAL 4 SEC.
000308: 17,3560           13521                           TCF      RETURNTJ                              #  END SUBROUTINE.
000309:
000310:                                                                                                  #  SUBROUTINIZED COMPUTATIONS REQUIRED FOR ALL ENTRIES INTO CODING FOR ZONES 1, 2, AND 3.
000311:                                                                                                  #  REACHED BY TC FROM 3 POINTS IN TJETLAW.
000312:
000313: 17,3561           41737        Z123COMP           CS       ROTSENSE                              #  USED IN RETURNTJ SECTION TO RESCALE TJET
000314: 17,3562           55737                           TS       ROTSENSE                              #        AS TIME6 AND GIVE IT PROPER SIGN.
000315: 17,3563           31427                           CAE      EDOT                                  #  SCALED AT PI/2(5) RAD/SEC.
000316: 17,3564           00006                           EXTEND
000317: 17,3565           51743                           INDEX    ADRSDIF2
000318: 17,3566           71566                           MP       1/ANET1                               #  SCALED AT 2(7)/PI SEC(2)/RAD.
000319: 17,3567           55741                           TS       TTOAXIS                               #  STORE TIME-TO-AXIS SCALED AT 4 SECONDS.
000320: 17,3570           63773                           AD       -TJMAX
000321: 17,3571           00006                           EXTEND                                         #  IS TIME TO AXIS LESS THAN 150 MSEC.
000322: 17,3572           63574                           BZMF     +2
000323: 17,3573           13520                           TCF      FULLTIME                              #  NO. FIRE JETS, DO NOT CALCULATE TJET.
000324: 17,3574           00002                           RETURN                                         #  YES.  GO ON TO FIND TJET
000325:
000326: 17,3575           03561        ZON1,2,3           TC       Z123COMP                              #  SUBROUTINIZED PREPARATION FOR ZONE1,2,3.
000327:
000328:                                                                                                  #  IF THE (NEG) DISTANCE BEYOND PARABOLA IS LESS THAN FLAT, USE SPECIAL


000330:                                                                                                  #  LOGIC TO ACQUIRE MINIMUM IMPULSE LIMIT CYCLE.  DURING POWERED FLIGHT
000331:                                                                                                  #  OR ULLAGE, FLAT = 0
000332:
000333: 17,3576           31740                           CAE      FIREFCT                               #  SCALED AT PI/4 RAD.
000334: 17,3577           61554                           AD       FLAT
000335: 17,3600           00006                           EXTEND
000336: 17,3601           63615                           BZMF     ZONE1                                 #  NOT IN SPECIAL ZONES.
000337:
000338:                                                                                                  #  FIRE FOR AXIS OR, IF CLOSE, FIRE MINIMUM IMPULSE.  IF ON AXIS, COAST.
000339:
000340: 17,3602           41555        ZONE2,3            CS       ZONE3LIM                              #  HEIGHT OF MIN-IMPULSE ZONE SET BY 1/ACCS
000341: 17,3603           61741                           AD       TTOAXIS                               #        35 MSEC IN DRIFTING FLIGHT
000342: 17,3604           00006                           EXTEND                                         #        ZERO WHEN TRYING TO ENTER GTS CONTROL.
000343: 17,3605           63610                           BZMF     ZONE3
000344: 17,3606           31741        ZONE2              CAE      TTOAXIS                               #  FIRE TO AXIS.
000345: 17,3607           13521                           TCF      RETURNTJ
000346: 17,3610           11427        ZONE3              CCS      EDOT                                  #  CHECK IF EDOT IS ZERO.
000347: 17,3611           34746                           CAF      BIT6                                  #  FIRE A ONE-JET MINIMUM IMPULSE.
000348: 17,3612           13521                           TCF      RETURNTJ                              #  TJET = +0.
000349: 17,3613           05675                           TC       CCSHOLE                               #  CANNOT BE BECAUSE NEG EDOT COMPLEMENTED.
000350: 17,3614           13521                           TCF      RETURNTJ                              #  TJET = +0.
000351:
000352: 17,3615           00006        ZONE1              EXTEND
000353: 17,3616           51745                           INDEX    ADRSDIF1
000354: 17,3617           61604                           SU       AXISDIST                              #  SCALED AT PI/4 RAD.
000355: 17,3620           00006                           EXTEND
000356: 17,3621           51743                           INDEX    ADRSDIF2
000357: 17,3622           71574                           MP       ACCFCTZ1                              #  SCALED AT 2(7)/PI SEC(2)/RAD.
000358: 17,3623           20001                           DDOUBL
000359: 17,3624           20001                           DDOUBL
000360: 17,3625           53747                           DXCH     HH                                    #  DOUBLE PRECISION H SCALED AT 8 SEC(2).
000361:
000362:                                                                                                  #  TEST WHETHER TOTAL TIME REQUIRED GREATER THAN 150 MSEC:
000363:                                                                                                  #                             2                                   2
000364:                                                                                                  #        IS .5(.150 - TTOAXIS)  - H  NEGATIVE (SCALED AT 8 SECONDS )
000365:
000366: 17,3626           31741                           CAE      TTOAXIS                               #  TTOAXIS SCALED AT 4 SECONDS.
000367: 17,3627           63773                           AD       -TJMAX                                #  -.150 SECOND SCALED AT 4.
000368: 17,3630           00006                           EXTEND
000369: 17,3631           70000                           SQUARE
000370: 17,3632           00006                           EXTEND
000371: 17,3633           61746                           SU       HH                                    #  HIGH WORD OF H SCALED AT 8 SEC(2).
000372: 17,3634           00006                           EXTEND
000373: 17,3635           63520                           BZMF     FULLTIME                              #  YES.  NEED NOT CALCULATE TJET.
000374:
000375:                                                                                                  #  TEST WHETHER TIME BEYOND AXIS GREATER THAN 50 MSEC TO DETERMINE WHICH APPROXIMATION TO USE.
000376:
000377: 17,3636           31746                           CAE      HH
000378: 17,3637           67751                           AD       NEG2
000379: 17,3640           00006                           EXTEND


000381: 17,3641           63651                           BZMF     FORMULA3
000382:
000383:                                                                                                  #  TJET = H/0.1 + TTOAXIS + .0375        FOR APPROXIMATION OVER MORE THAN 50 MSEC.
000384:
000385: 17,3642           33763                           CAF      .1AT2                                 #  STORE .1 SEC SCALED AT 2 FOR DIVISION.
000386: 17,3643           53747                           DXCH     HH                                    #  DP H SCALED AT 8 SEC(2) NEED NOT BE
000387: 17,3644           00006                           EXTEND                                         #        PRESERVED.
000388: 17,3645           11746                           DV       HH                                    #  QUOTIENT SCALED AT 4 SECONDS.
000389: 17,3646           61741                           AD       TTOAXIS                               #  SCALED AT 4 SEC.
000390: 17,3647           63764                           AD       .0375AT4                              #  .0375 SEC SCALED AT 4.
000391: 17,3650           13521                           TCF      RETURNTJ                              #  END COMPUTATION.
000392:
000393:                                                                                                  #  TJET - H/.O25 + TTOAXIS       FOR APPROXIMATION OVER LESS THAN 50 MSEC.
000394:
000395: 17,3651           43765        FORMULA3           CS       -.025AT2                              #  STORE +.025 SEC SCALED AT 2 FOR DIVISION
000396: 17,3652           53747                           DXCH     HH                                    #  PICK UP DP H AT 8, WHICH NEED NOT BE
000397: 17,3653           00006                           EXTEND                                         #        PRESERVED.
000398: 17,3654           11746                           DV       HH                                    #  QUOTIENT SCALED AT 4 SECONDS.
000399: 17,3655           61741                           AD       TTOAXIS                               #  SCALED AT 4 SEC.
000400:
000401:                                                                                                  #  IF COMPUTED JET TIME IS LESS THAN TJMIN, TJET IS SET TO ZERO.
000402:                                                                                                  #  MINIMUM IMPULSES REQUIRED IN ZONE 3 ARE NOT SUBJECT TO THIS CONSTRAINT, NATURALLY.
000403:
000404: 17,3656           63775        CHKMINTJ           AD       -TJMIN                                #  IS COMPUTED TIME LESS THAN THE MINIMUM.
000405: 17,3657           00006                           EXTEND
000406: 17,3660           63455                           BZMF     COASTTJ                               #  YES, SET TIME TO ZERO.
000407: 17,3661           63774                           AD       TJMIN                                 #  NO, RESTORE COMPUTED TIME.
000408: 17,3662           13521                           TCF      RETURNTJ                              #  END COMPUTATION.
000409:


000411:                                                                                                  #  *** ROUGHLAW ***
000412:
000413:                                                                                                  #  BEFORE ENTRY TO RUFLAW:
000414:                                                                                                  #        1. INDEXERS ADRSDIF1 AND ADRSDIF2 ARE SET ON BASIS OF AXIS, AND SIGN OF EDOT.
000415:                                                                                                  #        2. IF EDOT WAS NEGATIVE, E AND EDOT ARE ROTATED INTO UPPER HALF-PLANE AND ROTSENSE IS MADE NEGATIVE.
000416:                                                                                                  #        3. E IS SCALED AT PI RADIANS AND EDOT AT PI/4 RAD/SEC.
000417:                                                                                                  #           (EXCEPT THE RUFLAW3 ENTRY WHEN E IS AT PI/4)
000418:
000419:                                                                                                  #  RUFLAW1:      ERROR MORE NEGATIVE THAN PI/16 RAD.  FIRE TO A RATE OF 6.5 DEG/SEC (IF JET TIME EXCEEDS 20 MSEC.).
000420:                                                                                                  #  RUFLAW2:      ERROR MORE POSITIVE THAN PI/16 RAD.  FIRE TO AN OPPOSING RATE OF 6.5 DEG/SEC.
000421:                                                                                                  #  RUFLAW3:      ERROR RATE GREATER THAN PI/32 RAD/SEC AND ERROR WITHIN BOUNDS.  COAST IF BELOW FIREFCT, FIRE IF ABOVE
000422:
000423: 17,3663           43776        RUFLAW1            CS       RUFRATE                               #  DECREMENT EDOT BY .1444 RAD/SEC AT PI/4
000424: 17,3664           27427                           ADS      EDOT                                  #        WHICH IS THE TARGET RATE
000425: 17,3665           00006                           EXTEND
000426: 17,3666           63707                           BZMF     SMALRATE                              #  BRANCH IF RATE LESS THAN TARGET.
000427: 17,3667           03745                           TC       RUFSETUP                              #  REVERSE ROTSENSE AND INDICATE MAX JETS.
000428: 17,3670           31427                           CAE      EDOT                                  #  PICK UP DESIRED RATE CHANGE.
000429:
000430: 17,3671           00006        RUFLAW12           EXTEND                                         #  COMPUTE TJET
000431: 17,3672           51743                           INDEX    ADRSDIF2                              #        = (DESIRED RATE CHANGE)/(2-JET ACCEL.)
000432: 17,3673           71570                           MP       1/ANET1    +2
000433: 17,3674           67744                           AD       -1/8                                  #  IF TJET, SCALED AT 32 SEC, EXCEEDS
000434: 17,3675           00006                           EXTEND                                         #        4 SECONDS, SET TJET TO TJMAX.
000435: 17,3676           63700                           BZMF     +2
000436: 17,3677           13520                           TCF      FULLTIME
000437: 17,3700           00006                           EXTEND
000438: 17,3701           13520                           BZF      FULLTIME
000439: 17,3702           64740                           AD       BIT12                                 #  RESTORE COMPUTED TJET TO ACCUMULATOR.
000440: 17,3703           20001                           DAS      A
000441: 17,3704           20001                           DAS      A
000442: 17,3705           20001                           DAS      A                                     #  RESCALED TJET AT 4 SECONDS.
000443: 17,3706           13656                           TCF      CHKMINTJ                              #  RETURN AS FROM FINELAW.
000444:
000445: 17,3707           03747        SMALRATE           TC       RUFSETUP   +2                         #  SET NUMBERT AND FIREFCT FOR MAXIMUM JETS
000446: 17,3710           11737                           CCS      ROTSENSE
000447: 17,3711           34753                           CAF      ONE                                   #  MODIFY INDEXER TO POINT TO 1/ANET
000448: 17,3712           13714                           TCF      +2                                    #        CORRESPONDING TO THE PROPER SENSE.
000449: 17,3713           37752                           CAF      NEGONE
000450: 17,3714           27743                           ADS      ADRSDIF2
000451:
000452: 17,3715           41427                           CS       EDOT                                  #  (.144 AT PI/4 - EDOT) = DESIRED RATE CHNG.
000453: 17,3716           13671                           TCF      RUFLAW12
000454:
000455: 17,3717           03745        RUFLAW2            TC       RUFSETUP                              #  REVERSE ROTSENSE AND INDICATE MAX JETS.
000456: 17,3720           33776                           CAF      RUFRATE
000457: 17,3721           61427                           AD       EDOT                                  #  (.144 AT PI/4 + EDOT) = DESIRED RATE CHNG.
000458: 17,3722           54000                           TS       A                                     #  IF OVERFLOW SKIP, FIRE FOR FULL TIME.
000459: 17,3723           13671                           TCF      RUFLAW12                              #   OTHERWISE, COMPUTE JET TIME.
000460: 17,3724           13520                           TCF      FULLTIME
000461:


000463: 17,3725           03745        RUFLAW3            TC       RUFSETUP                              #  EXECUTE COMMON RUFLAW SUBROUTINE.
000464: 17,3726           51745                           INDEX    ADRSDIF1
000465: 17,3727           41600                           CS       FIREDB                                #  CALCULATE DISTANCE FROM SWITCH CURVE
000466: 17,3730           61751                           AD       E                                     #        1/ANET1*EDOT*EDOT +E - FIREDB = 0
000467: 17,3731           00006                           EXTEND                                         #                SCALED AT 4 PI RADIANS
000468: 17,3732           74741                           MP       BIT11
000469: 17,3733           57427                           XCH      EDOT
000470: 17,3734           00006                           EXTEND
000471: 17,3735           70000                           SQUARE
000472: 17,3736           00006                           EXTEND
000473: 17,3737           51745                           INDEX    ADRSDIF1
000474: 17,3740           71570                           MP       1/ANET1    +2
000475: 17,3741           61427                           AD       EDOT
000476: 17,3742           00006                           EXTEND
000477: 17,3743           63455                           BZMF     COASTTJ                               #  COAST IF BELOW IT.
000478: 17,3744           13520                           TCF      FULLTIME                              #  FIRE FOR FULL PERIOD IF ABOVE IT.
000479:
000480:                                                                                                  #  SUBROUTINE USED IN ALL ENTRIES TO ROUGHLAW.
000481:
000482: 17,3745           41737        RUFSETUP           CS       ROTSENSE                              #  REVERSE ROTSENSE WHEN ENTER HERE.
000483: 17,3746           55737                           TS       ROTSENSE
000484: 17,3747           34751                 +2        CAF      FOUR                                  #  REQUIRE MAXIMUM (2) JETS IN U,V-AXES.
000485: 17,3750           55742                           TS       NUMBERT
000486: 17,3751           34735                           CAF      NEGMAX                                #  SUGGEST MAXIMUM (4) JETS IN P-AXIS.
000487: 17,3752           55740                           TS       FIREFCT
000488: 17,3753           00002                           TC       Q
000489:
000490:                                                                                                  #  CONSTANTS FOR TJETLAW
000491:
000492: 17,3754           77757                           DEC      -16        B-14                       #  AXISDIFF(INDEX) = NUMBER OF REGISTERS
000493: 17,3755           00000        AXISDIFF           DEC      +0         B-14                       #        BETWEEN STORED 1/ACCS PARAMETERS FOR
000494: 17,3756           00020                           DEC      16         B-14                       #        THE INDEXED AXIS AND THE U-AXIS.
000495: 17,3757           14400        SENSOR             OCT      14400                                 #  RATIO OF TJET SCALING WITHIN TJETLAW
000496:                                                                                                  #        (4 SEC) TO SCALING FOR T6 (10.24 SEC).
000497: 17,3760           75673        -3DEG              DEC      -.06667                               #  -3.0 DEGREES SCALED AT 45.
000498: 17,3761           77750        -.0112A8           DEC      -.00141                               #  -.01125 SEC(2) SCALED AT 8.
000499: 17,3762           00632        .1AT4              DEC      .025                                  #  0.1 SECOND SCALED AT 4.
000500: 17,3763           01463        .1AT2              DEC      .05                                   #  0.1 SEC SCALED AT 2.
000501: 17,3764           00232        .0375AT4           DEC      .00938                                #  .0375 SEC SCALED AT 4.
000502: 17,3765           77462        -.025AT2           DEC      -.0125                                #  -.025 SEC SCALED AT 2.
000503: 17,3766           77631        -.025AT4           DEC      -.00625
000504: 17,3767           77145        -.05AT2            DEC      -.025
000505: 17,3770           75462        -.15AT2            DEC      -.075
000506: 17,3771           00007 25605  .00375A8           2DEC     .00375     B-3
000507:
000508: 17,3773           76631        -TJMAX             DEC      -.0375                                #  LARGEST CALCULATED TIME.  .150 SEC AT 4.
000509: 17,3774           00122        TJMIN              DEC      .005                                  #  SMALLEST ALLOWABLE TIME.  .020 SEC AT 4.
000510: 17,3775           77655        -TJMIN             DEC      -.005
000511: 17,3776           04476        RUFRATE            DEC      .1444                                 #  CORRESPONDS TO TARGET RATE OF 6.5 DEG/S.

End of include-file TJET_LAW.agc.  Parent file is MAIN.agc


