
Source Code


000002:                                                                                                  #  Copyright:    Public domain.
000003:                                                                                                  #  Filename:     WAITLIST.agc
000004:                                                                                                  #  Purpose:      A section of Luminary 1C, revision 131.
000005:                                                                                                  #                It is part of the source code for the Lunar Module's (LM)
000006:                                                                                                  #                Apollo Guidance Computer (AGC) for Apollo 13 and Apollo 14.
000007:                                                                                                  #                This file is intended to be a faithful transcription, except
000008:                                                                                                  #                that the code format has been changed to conform to the
000009:                                                                                                  #                requirements of the yaYUL assembler rather than the
000010:                                                                                                  #                original YUL assembler.
000011:                                                                                                  #  Reference:    pp. 1116-1131 of 1729.pdf.
000012:                                                                                                  #  Contact:      Ron Burkey <info@sandroid.org>.
000013:                                                                                                  #  Website:      www.ibiblio.org/apollo/index.html
000014:                                                                                                  #  Mod history:  05/31/03 RSB.   Began transcribing.
000015:                                                                                                  #                05/14/05 RSB    Corrected website reference above.
000016:                                                                                                  #                2010-10-25 JL   Indentation fixes.
000017:                                                                                                  #                2011-05-07 JL   Removed workarounds.
000018:
000019:                                                                                                  #  Page 1116
000020:                                                                                                  #  PROGRAM DESCRIPTION                                           DATE -- 10 OCTOBER 1966
000021:                                                                                                  #  MOD NO -- 2                                                   LOG SECTION -- WAITLIST
000022:                                                                                                  #  MOD BY -- MILLER      (DTMAX INCREASED TO 162.5 SEC)          ASSEMBLY -- SUNBURST REV 5
000023:                                                                                                  #  MOD 3 BY KERNAN       (INHINT INSERTED AT WAITLIST) 2/28/68 SKIPPER REV 4
000024:                                                                                                  #  MOD 4 BY KERNAN       (TWIDDLE IN 54) 3/28/68 SKIPPER REV 13.
000025:
000026:                                                                                                  #  FUNCTIONAL DESCRIPTION --
000027:                                                                                                  #        PART OF A SECTION OF PROGRAMS -- WAITLIST, TASKOVER, T3RUPT, USED TO CALL A PROGRAM (CALLED A TASK),
000028:                                                                                                  #        WHICH IS TO BEGIN IN C(A) CENTISECONDS.  WAITLIST UPDATES TIME3, LST1, AND LST2.  THE MEANING OF THESE LISTS
000029:                                                                                                  #        FOLLOW.
000030:
000031:                                                                                                  #                ((TIME3) = 16384 -(T1-T) CENTISECONDS, (T=PRESENT TIME, T1-TIME FOR TASK1)
000032:
000033:                                                                                                  #                        C(LST1)         =       -(T2-T1)+1
000034:                                                                                                  #                        C(LST1 +1)      =       -(T3-T2)+1
000035:                                                                                                  #                        C(LST1 +2)      =       -(T4-T3)+1
000036:                                                                                                  #                                       ...
000037:                                                                                                  #                        C(LST1 +6)      =       -(T8-T7)+1
000038:                                                                                                  #                        C(LST1 +7)      =       -(T9-T8)+1
000039:
000040:                                                                                                  #                        C(LST2)         =       2CADR OF TASK1
000041:                                                                                                  #                        C(LST2 +2)      =       2CADR OF TASK2
000042:                                                                                                  #                                       ...
000043:                                                                                                  #                        C(LST2 +14)     =       2CADR OF TASK8
000044:                                                                                                  #                        C(LST2 +16)     =       2CADR OF TASK9
000045:
000046:                                                                                                  #  WARNINGS --
000047:                                                                                                  #        1)      1 <= C(A) <= 16250D (1 CENTISCOND TO 162.5 SEC)
000048:                                                                                                  #        2)      9 TASKS MAXIMUM
000049:                                                                                                  #        3)      TASKS CALLED UNDER INTERRUPT INHIBITED
000050:                                                                                                  #        4)      TASKS END BY TC TASKOVER
000051:
000052:                                                                                                  #  CALLING SEQUENCE --
000053:                                                                                                  #        L-1     CA      DELTAT  (TIME IN CENTISECONDS TO TASK START)
000054:                                                                                                  #        L       TC      WAITLIST
000055:                                                                                                  #        L+1     2CADR   DESIRED TASK.
000056:                                                                                                  #        L+2     (MINOR OF 2CADR)
000057:                                                                                                  #        L+3     RELINT          (RETURNS HERE)
000058:
000059:                                                                                                  #  TWIDDLE --
000060:                                                                                                  #        TWIDDLE IS FOR USE WHEN THE TASK BEING SET UP IS IN THE SAME EBANK AND FBANK AS THE USER.  IN
000061:                                                                                                  #        SUCH CASES, IT IMPROVES UPON WAITLIST BY ELIMINATING THE NEED FOR THE BBCON HALF OF THE 2CADR,
000062:                                                                                                  #  Page 1117
000063:                                                                                                  #        SAVING A WORD.  TWIDDLE IS LIKE WAITLIST IN EVERY RESPECT EXCEPT CALLING SEQUENCE, TO WIT,
000064:                                                                                                  #                L-1     CA      DELTAT
000065:                                                                                                  #                L       TC      TWIDDLE
000066:                                                                                                  #                L+1     ADRES   DESIRED TASK
000067:                                                                                                  #                L+2     RELINT          (RETURNS HERE)
000068:
000069:                                                                                                  #  NORMAL EXIT MODES --
000070:                                                                                                  #        AT L+3 OF CALLING SEQUENCE.
000071:
000072:                                                                                                  #  ALARM OR ABORT EXIT MODES --
000073:                                                                                                  #        TC      ABORT
000074:                                                                                                  #        OCT     1203    (WAITLIST OVERFLOW -- TOO MANY TASKS)
000075:
000076:                                                                                                  #  ERASABLE INITIALIZATION REQUIRED --
000077:                                                                                                  #        ACCOMPLISHED BY FRESH START --  LST2, ..., LST2 +16 = ENDTASK
000078:                                                                                                  #                                        LST1, ..., LST1 +7  = NEG1/2
000079:
000080:                                                                                                  #  OUTPUT --
000081:                                                                                                  #        LST1 AND LST2 UPDATED WTIH NEW TASK AND ASSOCIATED TIME.
000082:
000083:                                                                                                  #  DEBRIS --
000084:                                                                                                  #        CENTRALS -- A,Q,L
000085:                                                                                                  #        OTHER    -- WAITEXIT, WAITADR, WAITTEMP, WAITBANK
000086:
000087:                                                                                                  #  DETAILED ANALYSIS OF TIMING --
000088:                                                                                                  #        CONTROL WILL NOT BE RETURNED TO THE SPECIFIED ADDRESS (2CADR) IN EXACTLY DELTA T CENTISECONDS.
000089:                                                                                                  #        THE APPROXIMATE TIME MAY BE CALCULATED AS FOLLOWS:
000090:                                                                                                  #                LET T0 = THE TIME OF THE TC WAITLIST
000091:                                                                                                  #                LET TS = T0 +147U + COUNTER INCREMENTS (SET UP TIME)
000092:                                                                                                  #                LET X  = TS -(100TS)/100  (VARIANCE FROM COUNTERS)
000093:                                                                                                  #                LET Y  = LENGTH OF TIME OF INHIBIT INTERRUPT AFTER T3RUPT
000094:                                                                                                  #                LET Z  = LENGTH OF TIME TO PROCESS TASKS WHICH ARE DUE THIS T3RUPT BUT DISPATCHED EARLIER.
000095:                                                                                                  #                         (Z=0, USUALLY).
000096:                                                                                                  #                LET DELTD = THE ACTUAL TIME TAKEN TO GIVE CONTROL TO 2CADR
000097:                                                                                                  #                        THEN DELTD = TS+DELTA T -X +Y +Z +1.05MS* +COUNTERS*
000098:                                                                                                  #                *THE TIME TAKEN BY WAITLIST ITSELF AND THE COUNTER TICKING DURING THIS WAITLIST TIME.
000099:                                                                                                  #        IN SHORT, THE ACTUAL TIME TO RETURN CONTROL TO A 2CADR IS AUGMENTED BY THE TIME TO SET UP THE TASK'S
000100:                                                                                                  #        INTERRUPT, ALL COUNTERS TICKING, THE T3RUPT PROCESSING TIME, THE WAITLIST PROCESSING TIME AND THE POSSIBILITY
000101:                                                                                                  #        OF OTHER TASKS INHIBITING THE INTERRUPT.
000102:
000103:    5173                                           BLOCK    02
000104:                                                                                                  #  Page 1118
000105:    5173  E3,1400                                  EBANK=   LST1                                  #  TASK LISTS IN SWITCHED E BANK.
000106:
000107:    5173                                           COUNT*   $$/WAIT
000108:    5173           00004        TWIDDLE            INHINT
000109:    5174           54001                           TS       L                                     #  SAVE DELAY TIME IN L
000110:    5175           34733                           CA       POSMAX
000111:    5176           26002                           ADS      Q                                     #  CREATING OVERFLOW AND Q-1 IN Q
000112:    5177           30006                           CA       BBANK
000113:    5200           00006                           EXTEND
000114:    5201           04007                           ROR      SUPERBNK
000115:    5202           56001                           XCH      L
000116:
000117:    5203           00004        WAITLIST           INHINT
000118:    5204           56002                           XCH      Q                                     #  SAVE DELTA T IN Q AND RETURN IN
000119:    5205           54061                           TS       WAITEXIT                              #  WAITEXIT.
000120:    5206           00006                           EXTEND
000121:    5207           50061                           INDEX    WAITEXIT                              #  IF TWIDDLING, THE TS SKIPS TO HERE
000122:    5210           30001                           DCA      0                                     #  PICK UP 2CADR OF TASK.
000123:    5211           54063                 -1        TS       WAITADR                               #  BBCON WILL REMAIN IN L
000124:    5212           35220        DLY2               CAF      WAITBB                                #  ENTRY FROM FIXDELAY AND VARDELAY.
000125:    5213           56006                           XCH      BBANK
000126:    5214           13232                           TCF      WAIT2
000127:
000128:                                                                                                  #  RETURN TO CALLER AFTER TASK INSERTION:
000129:
000130:    5215           52062        LVWTLIST           DXCH     WAITEXIT
000131:    5216           64752                           AD       TWO
000132:    5217           52006                           DTCB
000133:
000134:    5220  E3,1400                                  EBANK=   LST1
000135:    5220           02063        WAITBB             BBCON    WAIT2
000136:
000137:                                                                                                  #  RETURN TO CALLER +2 AFTER WAITING DT SPECIFIED AT CALLER +1.
000138:
000139:    5221           50002        FIXDELAY           INDEX    Q                                     #  BOTH ROUTINES MUST BE CALLED UNDER
000140:    5222           30000                           CAF      0                                     #  WAITLIST CONTROL AND TERMINATE THE TASK
000141:    5223           24002                           INCR     Q                                     #  IN WHICH THEY WERE CALLED.
000142:
000143:                                                                                                  #  RETURN TO CALLER +1 AFTER WAITING THE DT AS ARRIVING IN A.
000144:
000145:    5224           56002        VARDELAY           XCH      Q                                     #  DT TO Q.  TASK ADRES TO WAITADR.
000146:    5225           54063                           TS       WAITADR
000147:    5226           30006                           CA       BBANK                                 #  BBANK IS SAVED DURING DELAY.
000148:    5227           00006                           EXTEND
000149:    5230           04007                           ROR      SUPERBNK                              #  ADD SBANK TO BBCON.
000150:    5231           54001                           TS       L
000151:    5232           35235                           CAF      DELAYEX
000152:    5233           54061                           TS       WAITEXIT                              #  GO TO TASKOVER AFTER TASK ENTRY.
000153:    5234           15212                           TCF      DLY2
000154:
000155:                                                                                                  #  Page 1119
000156:    5235           15257        DELAYEX            TCF      TASKOVER   -2                         #  RETURNS TO TASKOVER.
000157:
000158:                                                                                                  #  Page 1120
000159:                                                                                                  #  ENDTASK MUST ENTERED IN FIXED-FIXED SO IT IS DISTINGUISHABLE BY ITS ADRES ALONE.
000160:
000161:    5236  E3,1400                                  EBANK=   LST1
000162:    5236           72537 73714  ENDTASK            -2CADR   SVCT3
000163:
000164:    5240           10076        SVCT3              CCS      FLAGWRD2                              #  DRIFT FLAG
000165:    5241           15261                           TCF      TASKOVER
000166:    5242           15261                           TCF      TASKOVER
000167:    5243           15244                           TCF      +1
000168:
000169:    5244           11301        CKIMUSE            CCS      IMUCADR                               #  DON'T DO NBDONLY IF SOMEONE ELSE IS IN
000170:    5245           15256                           TCF      SVCT3X                                #  IMUSTALL.
000171:    5246           15251                           TCF      +3
000172:    5247           15256                           TCF      SVCT3X
000173:    5250           15256                           TCF      SVCT3X
000174:
000175:    5251           37726                 +3        CAF      PRIO35                                #  COMPENSATE FOR NBD COEFFICIENTS ONLY.
000176:    5252           05072                           TC       NOVAC                                 #        ENABLE EVERY 81.93 SECONDS
000177:    5253  E3,1460                                  EBANK=   NBDX
000178:    5253           03563 14063                     2CADR    NBDONLY
000179:
000180:    5255           15261                           TCF      TASKOVER
000181:
000182:    5256           05221        SVCT3X             TC       FIXDELAY                              #  DELAY MAX OF 2 TIMES FOR IMUZERO.
000183:    5257           00764                           DEC      500        B-14
000184:    5260           05240                           TC       SVCT3                                 #  CHECK DRIFT FLAG AGAIN.
000185:
000186:                                                                                                  #  Page 1121
000187:                                                                                                  #  BEGIN TASK INSERTION.
000188:
000189: 01,3232                                           BANK     01
000190: 01,3232                                           COUNT*   $$/WAIT
000191: 01,3232           54062        WAIT2              TS       WAITBANK                              #  BBANK OF CALLING PROGRAM.
000192: 01,3233           30002                           CA       Q
000193: 01,3234           00006                           EXTEND
000194: 01,3235           63524                           BZMF     WAITP00H
000195:
000196: 01,3236           40026                           CS       TIME3
000197: 01,3237           64744                           AD       BIT8                                  #  BIT 8 = OCT 200
000198: 01,3240           10000                           CCS      A                                     #  TEST 200 - C(TIME3).  IF POSITIVE,
000199:                                                                                                  #  IT MEANS THAT TIME3 OVERFLOW HAS OCCURRED PRIOR TO CS TIME3 AND THAT
000200:                                                                                                  #  C(TIME3) = T - T1, INSTEAD OF 1.0 - (T1 - T).  THE FOLLOWING FOUR
000201:                                                                                                  #  ORDERS SET C(A) = TD - T1 + 1 IN EITHER CASE.
000202:
000203: 01,3241           66112                           AD       OCT40001                              #  OVERFLOW HAS OCCURRED.  SET C(A) =
000204: 01,3242           40000                           CS       A                                     #  T - T1 + 1.0 - 201
000205:
000206:                                                                                                  #  NORMAL CASE (C(A) NNZ) YIELDS SAME C(A):  -( -(1.0-(T1-T)) + 200) - 1
000207:
000208: 01,3243           63371                           AD       OCT40201
000209: 01,3244           60002                           AD       Q                                     #  RESULT = TD - T1 + 1.
000210:
000211: 01,3245           10000                           CCS      A                                     #  TEST TD - T1 +1.
000212:
000213: 01,3246           61400                           AD       LST1                                  #  IF TD - T1 POS, GO TO WTLST5 WITH
000214: 01,3247           13311                           TCF      WTLST5                                #  C(A) = (TD - T1) + C(LST1) = TD-T2+1
000215:
000216: 01,3250           13251                           NOOP
000217: 01,3251           40002                           CS       Q
000218:
000219:                                                                                                  #  NOTE THAT THIS PROGRAM SECTION IS NEVER ENTERED WHEN T-T1 G/E -1,
000220:                                                                                                  #  SINCE TD-T1+1 = (TD-T) + (T-T1+1), AND DELTA T = TD-T G/E +1.  (G/E
000221:                                                                                                  #  SYMBOL MEANS GREATER THAN OR EQUAL TO).  THUS THERE NEED BE NO CON-
000222:                                                                                                  #  CERN OVER A PREVIOUS OR IMMINENT OVEFLOW OF TIME3 HERE.
000223:
000224: 01,3252           64736                           AD       POS1/2                                #  WHEN TD IS NEXT, FORM QUANTITY
000225: 01,3253           64736                           AD       POS1/2                                #        1.0 - DELTA T = 1.0 - (TD - T)
000226: 01,3254           56026                           XCH      TIME3
000227: 01,3255           64735                           AD       NEGMAX
000228: 01,3256           60002                           AD       Q                                     #  1.0 - DELTAT T NOW COMPLETE.
000229: 01,3257           00006                           EXTEND                                         #  ZERO INDEX Q.
000230: 01,3260           22007                           QXCH     7                                     #  (ZQ)
000231:
000232:                                                                                                  #  Page 1122
000233: 01,3261           57400        WTLST4             XCH      LST1
000234: 01,3262           57401                           XCH      LST1       +1
000235: 01,3263           57402                           XCH      LST1       +2
000236: 01,3264           57403                           XCH      LST1       +3
000237: 01,3265           57404                           XCH      LST1       +4
000238: 01,3266           57405                           XCH      LST1       +5
000239: 01,3267           57406                           XCH      LST1       +6
000240: 01,3270           57407                           XCH      LST1       +7
000241:
000242: 01,3271           30063                           CA       WAITADR                               #  (MINOR PART OF TASK CADR HAS BEEN IN L.)
000243: 01,3272           50002                           INDEX    Q
000244: 01,3273           13274                           TCF      +1
000245:
000246: 01,3274           53411                           DXCH     LST2
000247: 01,3275           53413                           DXCH     LST2       +2
000248: 01,3276           53415                           DXCH     LST2       +4
000249: 01,3277           53417                           DXCH     LST2       +6
000250: 01,3300           53421                           DXCH     LST2       +8D
000251: 01,3301           53423                           DXCH     LST2       +10D                       #  AT END, CHECK THAT C(LST2 +10) IS STD
000252: 01,3302           53425                           DXCH     LST2       +12D
000253: 01,3303           53427                           DXCH     LST2       +14D
000254: 01,3304           53431                           DXCH     LST2       +16D
000255: 01,3305           65236                           AD       ENDTASK                               #  END ITEM, AS CHECK FOR EXCEEDING
000256:                                                                                                  #  THE LENGTH OF THE LIST.
000257: 01,3306           00006                           EXTEND                                         #  DUMMY TASK ADRES SHOULD BE IN FIXED-
000258: 01,3307           15215                           BZF      LVWTLIST                              #  FIXED SO ITS ADRES ALONE DISTINGUISHES
000259: 01,3310           13364                           TCF      WTABORT                               #  IT.
000260:
000261:                                                                                                  #  Page 1123
000262: 01,3311           10000        WTLST5             CCS      A                                     #  TEST TD - T2 + 1
000263: 01,3312           61401                           AD       LST1       +1
000264: 01,3313           13317                           TCF      +4
000265: 01,3314           64753                           AD       ONE
000266: 01,3315           03375                           TC       WTLST2
000267: 01,3316           00001                           OCT      1
000268:
000269: 01,3317           10000                 +4        CCS      A                                     #  TEST TD - T3 + 1
000270: 01,3320           61402                           AD       LST1       +2
000271: 01,3321           13325                           TCF      +4
000272: 01,3322           64753                           AD       ONE
000273: 01,3323           03375                           TC       WTLST2
000274: 01,3324           00002                           OCT      2
000275:
000276: 01,3325           10000                 +4        CCS      A                                     #  TEST TD - T4 + 1
000277: 01,3326           61403                           AD       LST1       +3
000278: 01,3327           13333                           TCF      +4
000279: 01,3330           64753                           AD       ONE
000280: 01,3331           03375                           TC       WTLST2
000281: 01,3332           00003                           OCT      3
000282:
000283: 01,3333           10000                 +4        CCS      A                                     #  TEST TD - T5 + 1
000284: 01,3334           61404                           AD       LST1       +4
000285: 01,3335           13341                           TCF      +4
000286: 01,3336           64753                           AD       ONE
000287: 01,3337           03375                           TC       WTLST2
000288: 01,3340           00004                           OCT      4
000289:
000290: 01,3341           10000                 +4        CCS      A                                     #  TEST TD - T6 + 1
000291: 01,3342           61405                           AD       LST1       +5
000292: 01,3343           13347                           TCF      +4
000293: 01,3344           64753                           AD       ONE
000294: 01,3345           03375                           TC       WTLST2
000295: 01,3346           00005                           OCT      5
000296:
000297: 01,3347           10000                 +4        CCS      A                                     #  TEST TD - T7 + 1
000298: 01,3350           61406                           AD       LST1       +6
000299: 01,3351           13355                           TCF      +4
000300: 01,3352           64753                           AD       ONE
000301: 01,3353           03375                           TC       WTLST2
000302: 01,3354           00006                           OCT      6
000303:
000304:                                                                                                  #  Page 1124
000305: 01,3355           10000                 +4        CCS      A                                     #  TEST TD - T2 + 1
000306: 01,3356           61407                           AD       LST1       +7
000307: 01,3357           13363                           TCF      +4
000308: 01,3360           64753                           AD       ONE
000309: 01,3361           03375                           TC       WTLST2
000310: 01,3362           00007                           OCT      7
000311:
000312: 01,3363           10000                 +4        CCS      A
000313: 01,3364           03372        WTABORT            TC       FILLED
000314: 01,3365           13366                           NOOP                                           #  CAN'T GET HERE
000315: 01,3366           64753                           AD       ONE
000316: 01,3367           03375                           TC       WTLST2
000317: 01,3370           00010                           OCT      10
000318:
000319: 01,3371           40201        OCT40201           OCT      40201
000320:
000321:                                                                                                  #  Page 1125
000322: 01,3372           52062        FILLED             DXCH     WAITEXIT
000323: 01,3373           05706                           TC       BAILOUT1                              #  NO ROOM IN THE INN
000324: 01,3374           31203                           OCT      31203
000325:
000326:                                                                                                  #  Page 1126
000327:                                                                                                  #  THE ENTRY TC WTLST2 JUST PRECEDING OCT N IS FOR T  LE TD LE T   -1.
000328:                                                                                                  #                                                   N           N+1
000329:                                                                                                  #  (LE MEANS LESS THAN OR EQUAL TO).  AT ENTRY, C(A) = -(TD - T   + 1)
000330:                                                                                                  #                                                              N+1
000331:                                                                                                  #  THE LST1 ENTRY-(T   -T +1) IS TO BE REPLACED BY -(TD - T  + 1), AND
000332:                                                                                                  #                   N+1  N                                 N
000333:                                                                                                  #  THE ENTRY-(T   - TD + 1) IS TO BE INSERTED IMMEDIATELY FOLLOWING.
000334:                                                                                                  #              N+1
000335:
000336: 01,3375           54064        WTLST2             TS       WAITTEMP                              #  C(A) = -(TD - T + 1)
000337: 01,3376           50002                           INDEX    Q
000338: 01,3377           30000                           CAF      0
000339: 01,3400           54002                           TS       Q                                     #  INDEX VALUE INTO Q.
000340:
000341: 01,3401           34753                           CAF      ONE
000342: 01,3402           60064                           AD       WAITTEMP
000343: 01,3403           50002                           INDEX    Q                                     #  C(A) = -(TD - T ) + 1.
000344: 01,3404           27377                           ADS      LST1       -1                         #                 N
000345:
000346: 01,3405           40064                           CS       WAITTEMP
000347: 01,3406           50002                           INDEX    Q
000348: 01,3407           13261                           TCF      WTLST4
000349:
000350:                                                                                                  #        C(TIME3)        =       1.0 - (T1 - T)
000351:
000352:                                                                                                  #        C(LST1)         =       - (T2 - T1) + 1
000353:                                                                                                  #        C(LST1+1)       =       - (T3 - T2) + 1
000354:                                                                                                  #        C(LST1+2)       =       - (T4 - T3) + 1
000355:                                                                                                  #        C(LST1+3)       =       - (T5 - T4) + 1
000356:                                                                                                  #        C(LST1+4)       =       - (T6 - T5) + 1
000357:
000358:                                                                                                  #        C(LST2)         =       2CADR TASK1
000359:                                                                                                  #        C(LST2+2)       =       2CADR TASK2
000360:                                                                                                  #        C(LST2+4)       =       2CADR TASK3
000361:                                                                                                  #        C(LST2+6)       =       2CADR TASK4
000362:                                                                                                  #        C(LST2+8)       =       2CADR TASK5
000363:                                                                                                  #        C(LST2+10)      =       2CADR TASK6
000364:
000365:                                                                                                  #  Page 1127
000366:                                                                                                  #  ENTERS HERE ON T3 RUPT TO DISPATCH WAITLISTED TASK.
000367:
000368: 01,3410           00006        T3RUPT             EXTEND
000369: 01,3411           04007                           ROR      SUPERBNK                              #  READ CURRENT SUPERBANK VALUE AND
000370: 01,3412           54016                           TS       BANKRUPT                              #  SAVE WITH E AND F BANK VALUES.
000371: 01,3413           00006                           EXTEND
000372: 01,3414           22012                           QXCH     QRUPT
000373:
000374: 01,3415           34734        T3RUPT2            CAF      NEG1/2                                #  DISPATCH WAITLIST TASK.
000375: 01,3416           57407                           XCH      LST1       +7
000376: 01,3417           57406                           XCH      LST1       +6
000377: 01,3420           57405                           XCH      LST1       +5
000378: 01,3421           57404                           XCH      LST1       +4                         #  1. MOVE UP LST1 CONTENTS, ENTERING
000379: 01,3422           57403                           XCH      LST1       +3                         #     A VALUE OF 1/2 +1 AT THE BOTTOM
000380: 01,3423           57402                           XCH      LST1       +2                         #     FOR T6-T5, CORRESPONDING TO THE
000381: 01,3424           57401                           XCH      LST1       +1                         #     INTERVAL 81.91 SEC FOR ENDTASK.
000382: 01,3425           57400                           XCH      LST1
000383: 01,3426           64733                           AD       POSMAX                                #  2. SET T3 = 1.0 - T2 - T USING LIST 1.
000384: 01,3427           26026                           ADS      TIME3                                 #     SO T3 WON'T TICK DURING UPDATE.
000385: 01,3430           54332                           TS       RUPTAGN
000386: 01,3431           44755                           CS       ZERO
000387: 01,3432           54332                           TS       RUPTAGN                               #  SETS RUPTAGN TO +1 ON OVERFLOW.
000388:
000389: 01,3433           00006                           EXTEND                                         #  DISPATCH TASK.
000390: 01,3434           45237                           DCS      ENDTASK
000391: 01,3435           53431                           DXCH     LST2       +16D
000392: 01,3436           53427                           DXCH     LST2       +14D
000393: 01,3437           53425                           DXCH     LST2       +12D
000394: 01,3440           53423                           DXCH     LST2       +10D
000395: 01,3441           53421                           DXCH     LST2       +8D
000396: 01,3442           53417                           DXCH     LST2       +6
000397: 01,3443           53415                           DXCH     LST2       +4
000398: 01,3444           53413                           DXCH     LST2       +2
000399: 01,3445           53411                           DXCH     LST2
000400:
000401: 01,3446           56001                           XCH      L
000402: 01,3447           00006                           EXTEND
000403: 01,3450           01007                           WRITE    SUPERBNK                              #  SET SUPERBANK FROM BBCON OF 2CADR
000404: 01,3451           56001                           XCH      L                                     #  RESTORE TO L FOR DXCH Z.
000405: 01,3452           52006                           DTCB
000406:
000407:                                                                                                  #  Page 1128
000408:                                                                                                  #  RETURN, AFTER EXECUTION OF T3 OVERFLOW TASK:
000409:
000410:    5261                                           BLOCK    02
000411:    5261                                           COUNT*   $$/WAIT
000412:    5261           10332        TASKOVER           CCS      RUPTAGN                               #  IF +1 RETURN TO T3RUPT, IF -0 RESUME.
000413:    5262           35220                           CAF      WAITBB
000414:    5263           54006                           TS       BBANK
000415:    5264           13415                           TCF      T3RUPT2                               #  DISPATCH NEXT TASK IF IT WAS DUE.
000416:
000417:    5265           30016                           CA       BANKRUPT
000418:    5266           00006                           EXTEND
000419:    5267           01007                           WRITE    SUPERBNK                              #  RESTORE SUPERBANK BEFORE RESUME IS DON
000420:
000421:    5270           00006        RESUME             EXTEND
000422:    5271           22012                           QXCH     QRUPT
000423:    5272           30016        NOQRSM             CA       BANKRUPT
000424:    5273           56006                           XCH      BBANK
000425:    5274           52011        NOQBRSM            DXCH     ARUPT
000426:    5275           00003                           RELINT
000427:    5276           50017                           RESUME
000428:
000429:                                                                                                  #  Page 1129
000430:                                                                                                  #  LONGCALL
000431:                                                                                                  #  PROGRAM DESCRIPTION                           DATE -- 17 MARCH 1967
000432:                                                                                                  #  PROGRAM WRITTEN BY W.H.VANDEVER               LOG SECTION WAITLIST
000433:                                                                                                  #  MOD BY -- R. MELANSON TO ADD DOCUMENTATION    ASSEMBLY SUNDISK REV. 100
000434:
000435:                                                                                                  #  FUNCTIONAL DESCRIPTION --
000436:                                                                                                  #        LONGCALL IS CALLED WITH THE DELTA TIME ARRIVING IN A,L SCALED AS TIME2,TIME1 WITH THE 2CADR OF THE TASK
000437:                                                                                                  #        IMMEDIATELY FOLLOWING THE TC LONGCALL.  FOR EXAMPLE, IT MIGHT BE DONE AS FOLLOWS WHERE TIMELOC IS THE NAME OF
000438:                                                                                                  #        A DP REGISTER CONTAINING A DELTA TIME AND WHERE TASKTODO IS THE NAME OF THE LOCATION AT WHICH LONGCALL IS TO
000439:                                                                                                  #        START.
000440:                                                                                                  #  CALLING SEQUENCE --
000441:                                                                                                  #                EXTEND
000442:                                                                                                  #                DCA     TIMELOC
000443:                                                                                                  #                TC      LONGCALL
000444:                                                                                                  #                2CADR   TASKTODO
000445:                                                                                                  #  NORMAL EXIT MODE --
000446:                                                                                                  #        1)      TC      WAITLIST
000447:                                                                                                  #        2)      DTCB    (TC L+3 OF CALLING ROUTINE 1S PASS THRU LONGCYCL)
000448:                                                                                                  #        3)      DTCB    (TO TASKOVER ON SUBSEQUENT PASSES THRU LONGCYCL)
000449:                                                                                                  #  ALARM OR ABORT EXIT MODE --
000450:                                                                                                  #        NONE
000451:                                                                                                  #  OUTPUT --
000452:                                                                                                  #        LONGTIME AND LONGTIME+1 = DELTA TIME
000453:                                                                                                  #        LONGEXIT AND LONGEXIT+1 = RETURN 2CADR
000454:                                                                                                  #        LONGCADR AND LONGCADR+1 = TASK 2CADR
000455:                                                                                                  #        A = SINGLE PRECISION TIME FOR WAITLIST
000456:                                                                                                  #  ERASABLE INITIALIZATION --
000457:                                                                                                  #        A = MOST SIGNIFICANT PART OF DELTA TIME
000458:                                                                                                  #        L = LEAST SIGNIFICANT PART OF DELTA TIME
000459:                                                                                                  #        Q = ADDRESS OF 2CADR TASK VALUE
000460:                                                                                                  #  DEBRIS --
000461:                                                                                                  #        A,Q,L
000462:                                                                                                  #        LONGCADR AND LONGCADR+1
000463:                                                                                                  #        LONGEXIT AND LONGEXIT+1
000464:                                                                                                  #        LONGTIME AND LONGTIME+1
000465:                                                                                                  #  *** THE FOLLOWING IS TO BE IN FIXED-FIXED AND UNSWITCHED ERASIBLE **
000466:
000467:    5277                                           BLOCK    02
000468:    5277  E3,1400                                  EBANK=   LST1
000469:    5277           53153        LONGCALL           DXCH     LONGTIME                              #  OBTAIN THE DELTA TIME
000470:
000471:    5300           00006                           EXTEND                                         #  OBTAIN THE 2CADR
000472:                                                                                                  #  Page 1130
000473:    5301           50002                           NDX      Q
000474:    5302           30001                           DCA      0
000475:    5303           53147                           DXCH     LONGCADR
000476:
000477:    5304           00006                           EXTEND                                         #  NO GO TO THE APPROPRIATE SWITCHED BANK
000478:    5305           35310                           DCA      LGCL2CDR                              #  FOR THE REST OF LONGCALL
000479:    5306           52006                           DTCB
000480:
000481:    5307  E3,1400                                  EBANK=   LST1
000482:    5307           03453 02063  LGCL2CDR           2CADR    LNGCALL2
000483:
000484:                                                                                                  #  *** THE FOLLOWING MAY BE IN A SWITCHED BANK, INCLUDING ITS ERASABLE ***
000485:
000486: 01,3453                                           BANK     01
000487: 01,3453                                           COUNT*   $$/WAIT
000488: 01,3453           23435        LNGCALL2           LXCH     LONGEXIT   +1                         #  SAVE THE CORRECT BB FOR RETURN
000489: 01,3454           34752                           CA       TWO                                   #  OBTAIN THE RETURN ADDRESS
000490: 01,3455           26002                           ADS      Q
000491: 01,3456           55434                           TS       LONGEXIT
000492:
000493: 01,3457           31152                           CA       LONGTIME                              #  CHECK FOR LEGITIMATE DELTA-TIME
000494: 01,3460           10000                           CCS      A
000495: 01,3461           13467                           TCF      LONGCYCL                              #  HI-ORDER OK --> ALL IS OK.
000496: 01,3462           13464                           TCF      +2                                    #  HI-ORDER ZERO --> CHECK LO-ORDER.
000497: 01,3463           13522                           TCF      LONGP00H                              #  HI-ORDER NEG. --> NEG. DT
000498: 01,3464           31153                 +2        CA       LONGTIME   +1                         #  CHECK LO-ORDER FOR ZERO OR NEGATIVE.
000499: 01,3465           00006                           EXTEND
000500: 01,3466           63522                           BZMF     LONGP00H                              #  BAD DELTA-TIME.  ABORT
000501:
000502:                                                                                                  #  *** WAITLIST TASK LONGCYCL ***
000503:
000504: 01,3467           00006        LONGCYCL           EXTEND                                         #  CAN WE SUCCESFULLY TAKE ABOUT 1.25
000505: 01,3470           43501                           DCS      DPBIT14                               #  MINUTES OFF OF LONGTIME
000506: 01,3471           21153                           DAS      LONGTIME
000507:
000508: 01,3472           11153                           CCS      LONGTIME   +1                         #  THE REASONING BEHIND THIS PART IS
000509: 01,3473           13512                           TCF      MUCHTIME                              #  INVOLVED, TAKING INTO ACCOUNT THAT THE
000510:                                                                                                  #  WORDS MAY NOT BE SIGNED CORRECTED (DP
000511:                                                                                                  #  BASIC INSTRUCTIONS
000512:                                                                                                  #  DO NOT SIGN CORRECT) AND THAT WE SUBTRAC-
000513:                                                                                                  #  TED BIT14 (1 OVER HALF THE POS. VALUE
000514:                                                                                                  #  REPRESENTABLE IN SINGLE WORD)
000515: 01,3474           13475                           NOOP                                           #  CAN'T GET HERE *************
000516: 01,3475           13476                           TCF      +1
000517: 01,3476           11152                           CCS      LONGTIME
000518: 01,3477           13512                           TCF      MUCHTIME
000519: 01,3500           00000        DPBIT14            OCT      00000
000520: 01,3501           20000                           OCT      20000
000521:                                                                                                  #  Page 1131
000522: 01,3502           34736        LASTTIME           CA       BIT14                                 #  GET BACK THE CORRECT DELTA TFOR WAITLIST
000523: 01,3503           27153                           ADS      LONGTIME   +1
000524: 01,3504           05203                           TC       WAITLIST
000525: 01,3505  E3,1400                                  EBANK=   LST1
000526: 01,3505           03517 02063                     2CADR    GETCADR                               #  THE ENTRY TO OUR LONGCADR
000527:
000528: 01,3507           33521        LONGRTRN           CA       TSKOVCDR                              #  SET IT UP SO THAT ONLY THE FIRST EXIT IS
000529: 01,3510           53435                           DXCH     LONGEXIT                              #  TO THE CALLER OF LONGCALL
000530: 01,3511           52006                           DTCB                                           #  THE REST ARE TO TASKOVER
000531:
000532: 01,3512           34736        MUCHTIME           CA       BIT14                                 #  WE HAVE OVER OUR ABOUT 1.25 MINUTES
000533: 01,3513           05203                           TC       WAITLIST                              #  SO SET UP FOR ANOTHER CYCLE THROUGH HERE
000534: 01,3514  E3,1400                                  EBANK=   LST1
000535: 01,3514           03467 02063                     2CADR    LONGCYCL
000536:
000537: 01,3516           13507                           TCF      LONGRTRN                              #  NOW EXIT PROPERLY
000538:
000539:                                                                                                  #  *** WAITLIST TASK GETCADR ***
000540:
000541: 01,3517           53147        GETCADR            DXCH     LONGCADR                              #  GET THE LONGCALL THAT WE WISHED TO START
000542: 01,3520           52006                           DTCB                                           #  AND TRANSFER CONTROL TO IT
000543:
000544: 01,3521           05261        TSKOVCDR           GENADR   TASKOVER
000545: 01,3522           53435        LONGP00H           DXCH     LONGEXIT
000546: 01,3523           13525                           TCF      +2
000547: 01,3524           52062        WAITP00H           DXCH     WAITEXIT
000548: 01,3525           05716                 +2        TC       P00DOO1
000549: 01,3526           21204                           OCT      21204
000550:

End of include-file WAITLIST.agc.  Parent file is MAIN.agc


