
Source Code


000002:                                                                                                  ## Copyright:   Public domain.
000003:                                                                                                  ## Filename:    ASCENT_GUIDANCE.agc
000004:                                                                                                  ## Purpose:     A section of Luminary revision 178.
000005:                                                                                                  ##              It is part of the reconstructed source code for the final
000006:                                                                                                  ##              release of the flight software for the Lunar Module's
000007:                                                                                                  ##              (LM) Apollo Guidance Computer (AGC) for Apollo 14. The
000008:                                                                                                  ##              code has been recreated from copies of Zerlina 56, Luminary
000009:                                                                                                  ##              210, and Luminary 131, as well as many Luminary memos.
000010:                                                                                                  ##              It has been adapted such that the resulting bugger words
000011:                                                                                                  ##              exactly match those specified for Luminary 178 in NASA
000012:                                                                                                  ##              drawing 2021152N, which gives relatively high confidence
000013:                                                                                                  ##              that the reconstruction is correct.
000014:                                                                                                  ## Reference:   pp. 834-849
000015:                                                                                                  ## Assembler:   yaYUL
000016:                                                                                                  ## Contact:     Ron Burkey <info@sandroid.org>.
000017:                                                                                                  ## Website:     www.ibiblio.org/apollo/index.html
000018:                                                                                                  ## Mod history: 2019-08-14 MAS  Created from Zerlina 56.
000019:                                                                                                  ##              2019-09-14 MAS  Updated for Luminary 178. Removed Zerlina-
000020:                                                                                                  ##                              specific things; restored ASCSAVE and 1/DV0
000021:                                                                                                  ##                              definitions; moved CHECKYAW and 40FPS back
000022:                                                                                                  ##                              to their original banks; moved ENGOFF through
000023:                                                                                                  ##                              CUTOFF1 back to bank 34; replaced noun 94
000024:                                                                                                  ##                              references with noun 63.
000025:


000027: 34,3375                                           BANK     34
000028: 34,2000                                           SETLOC   ASCFILT
000029: 34,2000                                           BANK
000030:
000031: 34,3375  E7,1515                                  EBANK=   DVCNTR
000032:
000033: 34,3375                                           COUNT*   $$/ASENT
000034:
000035: 34,3375           05364        ATMAG              TC       PHASCHNG
000036: 34,3376           00035                           OCT      00035
000037: 34,3377           06042                           TC       INTPRET
000038: 34,3400           77614                           BON
000039: 34,3401           04705                                    FLRCS
000040: 34,3402           60306                                    ASCENT
000041: 34,3403           45345                           DLOAD    DSU
000042: 34,3404           03514                                    ABDVCONV
000043: 34,3405           26116                                    MINABDV
000044: 34,3406           43040                           BMN      CLEAR
000045: 34,3407           60747                                    ASCTERM4
000046: 34,3410           04267                                    SURFFLAG
000047: 34,3411           67214                           CLEAR    SLOAD
000048: 34,3412           02676                                    RENDWFLG
000049: 34,3413           31451                                    BIT3H
000050: 34,3414           77471                           DDV      EXIT
000051: 34,3415           03514                                    ABDVCONV
000052: 34,3416           52155                           DXCH     MPAC
000053: 34,3417           53641                           DXCH     1/DV3
000054: 34,3420           53637                           DXCH     1/DV2
000055: 34,3421           53635                           DXCH     1/DV1
000056: 34,3422           53571                           DXCH     1/DV0
000057: 34,3423           06042                           TC       INTPRET
000058: 34,3424           43345                           DLOAD    DAD
000059: 34,3425           03571                                    1/DV0
000060: 34,3426           03635                                    1/DV1
000061: 34,3427           43215                           DAD      DAD
000062: 34,3430           03637                                    1/DV2
000063: 34,3431           03641                                    1/DV3
000064: 34,3432           41205                           DMP      DMP
000065: 34,3433           02265                                    VE
000066: 34,3434           21010                                    2SEC(9)
000067: 34,3435           65252                           SL3      PDDL
000068: 34,3436           02271                                    TBUP
000069: 34,3437           43342                           SR1      DAD


000071: 34,3440           77625                           DSU
000072: 34,3441           21005                                    6SEC(18)
000073: 34,3442           16271                           STODL    TBUP
000074: 34,3443           02265                                    VE
000075: 34,3444           56342                           SR1      DDV
000076: 34,3445           02271                                    TBUP
000077: 34,3446           36263                           STCALL   AT
000078: 34,3447           60306                                    ASCENT
000079:
000080: 34,3450           00004        BIT3H              OCT      4
000081:


000083: 30,2306                                           BANK     30
000084: 30,2000                                           SETLOC   ASENT
000085: 30,2000                                           BANK
000086: 30,2306                                           COUNT*   $$/ASENT
000087:
000088:
000089: 30,2306           51575        ASCENT             VLOAD    ABVAL
000090: 30,2307           03521                                    R
000091: 30,2310           26301                           STOVL    /R/MAG
000092: 30,2311           03537                                    UNIT/R/
000093: 30,2312           53435                           VXV      UNIT
000094: 30,2313           02600                                    QAXIS
000095: 30,2314           02606                           STORE    ZAXIS1
000096: 30,2315           72441                           DOT      SL1
000097: 30,2316           03527                                    V                                     #  Z.V = ZDOT*2(-8).
000098: 30,2317           26313                           STOVL    ZDOT                                  #  ZDOT*2(-7)
000099: 30,2320           02606                                    ZAXIS1
000100: 30,2321           76435                           VXV      VSL1
000101: 30,2322           03537                                    UNIT/R/                               #  Z X UR = LAXIS*2(-2)
000102: 30,2323           02303                           STORE    LAXIS                                 #  LAXIS*2(-1)
000103: 30,2324           72441                           DOT      SL1
000104: 30,2325           03527                                    V                                     #  L.V = YDOT*2(-8).
000105: 30,2326           36311                           STCALL   YDOT                                  #  YDOT * 2(-7)
000106: 30,2327           57313                                    YCOMP
000107: 30,2330           77775                           VLOAD
000108: 30,2331           03563                                    GDT1/2                                #  LOAD GDT1/2*2(-7)M/CS.
000109: 30,2332           50341                           V/SC     DOT
000110: 30,2333           27044                                    2SEC(18)
000111: 30,2334           03537                                    UNIT/R/                               #  G.UR*2(9) = GR*2(9).
000112: 30,2335           47315                           PDVL     VXV                                   #  STORE IN PDL(0)                     (2)
000113: 30,2336           03537                                    UNIT/R/                               #  LOAD UNIT/R/*2(-1).
000114: 30,2337           03527                                    V                                     #  UR*2(-1) X V*2(-7) = H/R*2(-8).
000115: 30,2340           56236                           VSQ      DDV                                   #  H(2)/R(2)*2(-16).
000116: 30,2341           02301                                    /R/MAG                                #  H(2)/R(3)*2(9).
000117: 30,2342           43352                           SL1      DAD
000118: 30,2343           77626                           STADR
000119: 30,2344           75462                           STORE    GEFF                                  #  GEFF*2(10)M/CS/CS
000120: 30,2345           45014                           BOFF     CALL                                  #  IF P7071FLG = 1 (I.E. P70 OR P71)
000121: 30,2346           04742                                    P7071FLG                              #      CALL ZDOTDCMP TO UPDATE ZDOTD
000122: 30,2347           60351                                    +2                                    #      ON THE BASIS OF THE LAST RP.
000123: 30,2350           71527                                    ZDOTDCMP
000124: 30,2351           45345                 +2        DLOAD    DSU
000125: 30,2352           02277                                    ZDOTD
000126: 30,2353           02313                                    ZDOT
000127: 30,2354           02343                           STORE    DZDOT                                 #  DZDOT = (ZDOTD - ZDOT)*2(7)M/CS.
000128: 30,2355           65361                           VXSC     PDDL
000129: 30,2356           02606                                    ZAXIS1
000130: 30,2357           02275                                    YDOTD


000132: 30,2360           77625                           DSU
000133: 30,2361           02311                                    YDOT
000134: 30,2362           02341                           STORE    DYDOT                                 #  DYDOT = (YDOTD - YDOT)*2(7)M/CS.
000135: 30,2363           65361                           VXSC     PDDL
000136: 30,2364           02303                                    LAXIS
000137: 30,2365           02273                                    RDOTD
000138: 30,2366           77625                           DSU
000139: 30,2367           03474                                    RDOT
000140: 30,2370           02337                           STORE    DRDOT                                 #  DRDOT = (RDOTD - RDOT)*2(7)M/CS.
000141: 30,2371           53361                           VXSC     VAD
000142: 30,2372           03537                                    UNIT/R/
000143: 30,2373           76455                           VAD      VSL1
000144: 30,2374           77626                           STADR
000145: 30,2375           74131                           STORE    VGVECT                                #  VG = (DRDOT)R + (DYDOT)L + (DZDOT)Z.
000146: 30,2376           41345                           DLOAD    DMP                                   #  LOAD TGO
000147: 30,2377           03517                                    TGO                                   #  TGO GEFF
000148: 30,2400           02315                                    GEFF
000149: 30,2401           76561                           VXSC     VSL1
000150: 30,2402           03537                                    UNIT/R/                               #  TGO GEFF UR
000151: 30,2403           77645                           BVSU
000152: 30,2404           03646                                    VGVECT                                #  COMPENSATED FOR GEFF
000153: 30,2405           03646                           STORE    VGVECT                                #  STORE FOR DOWNLINK
000154: 30,2406           76521                           MXV      VSL1                                  #  GET VGBODY FOR N85 DISPLAY
000155: 30,2407           02146                                    XNBPIP
000156: 30,2410           27502                           STOVL    VGBODY
000157: 30,2411           03646                                    VGVECT
000158: 30,2412           43046                           ABVAL    BOFF                                  #  MAGNITUDE OF VGVECT
000159: 30,2413           04745                                    FLRCS                                 #  IF FLRCS=0,DO NORMAL GUIDANCE
000160: 30,2414           60423                                    MAINENG
000161: 30,2415           77671                           DDV                                            #  USE TGO=VG/AT  WITH RCS
000162: 30,2416           20001                                    AT/RCS
000163: 30,2417           37517                           STCALL   TGO                                   #  THIS WILL BE USED ON NEXT CYCLE
000164: 30,2420           71500                                    RPCOMP1                               #  COMPUTE NEW RP FOR NEXT CYCLE.
000165: 30,2421           77650                           GOTO
000166: 30,2422           60745                                    ASCTERM2
000167: 30,2423           41471        MAINENG            DDV      PUSH                                  #  VG/VE IN PDL(0)                    (2)
000168: 30,2424           02265                                    VE
000169: 30,2425           44342                           SR1      BDSU                                  #  1 - VG / 2 VE
000170: 30,2426           17772                                    NEARONE
000171: 30,2427           41205                           DMP      DMP                                   #  TBUP VG(1-KT VG/VE)/VE             (0)
000172: 30,2430           02271                                    TBUP                                  #   = TGO
000173: 30,2431           77625                           DSU                                            #  COMPENSATE FOR TAILOFF
000174: 30,2432           02267                                    TTO
000175: 30,2433           03517                           STORE    TGO
000176: 30,2434           57461                           SR       DCOMP
000177: 30,2435           20614                                    11D
000178: 30,2436           17454                           STODL    TTOGO                                 #  TGO*2(-28)CS
000179: 30,2437           03517                                    TGO
000180: 30,2440           45214                           BON      DSU
000181: 30,2441           03710                                    IDLEFLAG


000183: 30,2442           60446                                    T2TEST
000184: 30,2443           20777                                    4SEC(17)                              #  ( TGO - 4 )*2(-17)CS.
000185: 30,2444           77640                           BMN
000186: 30,2445           30347                                    ENGOFF
000187: 30,2446           77745        T2TEST             DLOAD
000188: 30,2447           03517                                    TGO
000189: 30,2450           50025                           DSU      BMN                                   #  IF TGO - T2 NEG., GO TO CMPONENT
000190: 30,2451           21001                                    T2A
000191: 30,2452           60606                                    CMPONENT
000192: 30,2453           45345                           DLOAD    DSU
000193: 30,2454           02271                                    TBUP
000194: 30,2455           03517                                    TGO
000195: 30,2456           45071                           DDV      CALL                                  #  1-TGO/TBUP
000196: 30,2457           02271                                    TBUP
000197: 30,2460           61014                                    LOGSUB
000198: 30,2461           41461                           SL       PUSH                                  #  -L IN PDL(0)                        (2)
000199: 30,2462           20206                                    5
000200: 30,2463           44265                           BDDV     BDSU                                  #  -TGO/L*2(-17)
000201: 30,2464           03517                                    TGO
000202: 30,2465           02271                                    TBUP                                  #  TBUP + TGO/L = D12*2(-17)
000203: 30,2466           43006                           PUSH     BON                                   #  STORE IN PDL(2)                      (4)
000204: 30,2467           04703                                    FLPC                                  #  IF FLPC = 1, GO TO CONST
000205: 30,2470           60477                                    NORATES
000206: 30,2471           45345                           DLOAD    DSU
000207: 30,2472           03517                                    TGO
000208: 30,2473           21003                                    T3
000209: 30,2474           43044                           BPL      SET                                   #  FLPC=1
000210: 30,2475           60504                                    RATES
000211: 30,2476           04463                                    FLPC
000212: 30,2477           77745        NORATES            DLOAD
000213: 30,2500           06470                                    HI6ZEROS
000214: 30,2501           02351                           STORE    PRATE                                 #  B = 0
000215: 30,2502           36353                           STCALL   YRATE                                 #  D = 0
000216: 30,2503           60566                                    CONST                                 #  GO TO CONST
000217: 30,2504           45345        RATES              DLOAD    DSU
000218: 30,2505           03517                                    TGO
000219: 30,2506           00003                                    02D                                   #  TGO - D12 = D21*2(-17)
000220: 30,2507           72406                           PUSH     SL1                                   #  IN PDL(4)                            (6)
000221: 30,2510           52421                           BDSU     SL3                                   #  (1/2TGO - D21)*2(-13) = E * 2(-13)
000222: 30,2511           03517                                    TGO                                   #                                       (8)
000223: 30,2512           41325                           PDDL     DMP                                   #  IN PDL(6)
000224: 30,2513           03517                                    TGO
000225: 30,2514           03474                                    RDOT                                  #  RDOT TGO * 2(-24)
000226: 30,2515           45215                           DAD      DSU                                   #  R + RDOT TGO
000227: 30,2516           02301                                    /R/MAG                                #  R + RDOT TGO - RCO
000228: 30,2517           03631                                    RCO                                   #  MPAC = - DR*2(-24).
000229: 30,2520           41325                           PDDL     DMP                                   #  -DR IN PDL(8)                       (10)
000230: 30,2521           02337                                    DRDOT
000231: 30,2522           00005                                    04D                                   #  D21 DRDOT*2(-24)
000232: 30,2523           62415                           DAD      SL2                                   #  (D21 DRDOT-DR)*2(-22)                (8)


000234: 30,2524           56271                           DDV      DDV
000235: 30,2525           00007                                    06D                                   #  (D21 DRDOT-DR)/E*2(-9)
000236: 30,2526           03517                                    TGO
000237: 30,2527           02351                           STORE    PRATE                                 #  B * 2(8)
000238: 30,2530           71240                           BMN      DLOAD                                 #  B>0 NOT PERMITTED
000239: 30,2531           60535                                    CHKBMAG
000240: 30,2532           06470                                    HI6ZEROS
000241: 30,2533           36351                           STCALL   PRATE
000242: 30,2534           60547                                    PROK
000243: 30,2535           56202        CHKBMAG            SR4      DDV                                   #  B*2(4)
000244: 30,2536           02271                                    TBUP                                  #  (B / TAU) * 2(21)
000245: 30,2537           51025                           DSU      BPL
000246: 30,2540           26114                                    PRLIMIT                               #  ( B/ TAU) * 2(21) MAX.
000247: 30,2541           60547                                    PROK
000248: 30,2542           41345                           DLOAD    DMP
000249: 30,2543           26114                                    PRLIMIT
000250: 30,2544           02271                                    TBUP                                  #  B MAX. * 2(4)
000251: 30,2545           77612                           SL4                                            #  BMAX*2(8)
000252: 30,2546           02351                           STORE    PRATE
000253: 30,2547           77745        PROK               DLOAD
000254: 30,2550           03517                                    TGO
000255: 30,2551           43205                           DMP      DAD                                   #  YDOT TGO
000256: 30,2552           02311                                    YDOT
000257: 30,2553           02335                                    Y                                     #  Y + YDOT TGO
000258: 30,2554           65225                           DSU      PDDL                                  #  Y + YDOT TGO - YCO
000259: 30,2555           03633                                    YCO                                   #  MPAC = - DY*2(-24.) IN PDL(8)       (10)
000260: 30,2556           02341                                    DYDOT
000261: 30,2557           43205                           DMP      DAD                                   #  D21 DYDOT - DY                      (8)
000262: 30,2560           00005                                    04D
000263: 30,2561           56312                           SL2      DDV                                   #  (D21 DYDOT - DY)/E*2(-9)
000264: 30,2562           40271                           DDV      SETPD                                 #  (D21 DYDOT - DY)/E TGO*2(8)
000265: 30,2563           03517                                    TGO                                   #    = D*2(8)
000266: 30,2564           00005                                    04
000267: 30,2565           02353                           STORE    YRATE
000268: 30,2566           41345        CONST              DLOAD    DMP                                   #  LOAD B*2(8)
000269: 30,2567           02351                                    PRATE                                 #  B D12*2(-9)
000270: 30,2570           00003                                    02D
000271: 30,2571           56325                           PDDL     DDV                                   #  D12 B IN PDL(4)                     (6)
000272: 30,2572           02337                                    DRDOT                                 #  LOAD DRDOT*2(-7)
000273: 30,2573           00001                                    00D                                   #  -DRDOT/L*2(-7)
000274: 30,2574           45302                           SR2      DSU                                   #  (-DRDOT/L-D12 B)=A*2(-9)             (4)
000275: 30,2575           77626                           STADR
000276: 30,2576           61432                           STODL    PCONS
000277: 30,2577           02353                                    YRATE                                 #  D*2(8)
000278: 30,2600           65205                           DMP      PDDL                                  #  D12 D,EXCH WITH -L IN PDL(0)       (2,2)
000279: 30,2601           60465                           BDDV     SR2                                   #  -DYDOT/L*2(-9)
000280: 30,2602           02341                                    DYDOT
000281: 30,2603           77625                           DSU                                            #  (-DYDOT/L-D12 D)=C*2(-9)
000282: 30,2604           00001                                    00D
000283: 30,2605           02347                           STORE    YCONS


000285: 30,2606           43001        CMPONENT           SETPD    BOFF
000286: 30,2607           00001                                    00D
000287: 30,2610           04742                                    P7071FLG
000288: 30,2611           60614                                    +3                                    #  IF P7071FLG = 1 (I.E. P70 OR P71)
000289: 30,2612           77624                           CALL                                           #      COMPUTE NEW RP FOR NEXT CYCLE.
000290: 30,2613           71504                                    RPCOMP2
000291: 30,2614           41345                 +3        DLOAD    DMP
000292: 30,2615           27044                                    100CS
000293: 30,2616           02351                                    PRATE                                 #  B(T-T0)*2(-9)
000294: 30,2617           56215                           DAD      DDV                                   #  (A+B(T-T0))*2(-9)
000295: 30,2620           02345                                    PCONS                                 #  (A+B(T-T0))/TBUP*2(8)
000296: 30,2621           02271                                    TBUP
000297: 30,2622           45352                           SL1      DSU
000298: 30,2623           02315                                    GEFF                                  #  ATR*2(9)
000299: 30,2624           16357                           STODL    ATR
000300: 30,2625           27044                                    100CS
000301: 30,2626           43205                           DMP      DAD
000302: 30,2627           02353                                    YRATE
000303: 30,2630           02347                                    YCONS                                 #  (C+D(T-T0))*2(-9)
000304: 30,2631           72471                           DDV      SL1
000305: 30,2632           02271                                    TBUP
000306: 30,2633           02355                           STORE    ATY                                   #  ATY*2(9)
000307: 30,2634           65361                           VXSC     PDDL                                  #  ATY UY*2(8)                         (6)
000308: 30,2635           02303                                    LAXIS
000309: 30,2636           02357                                    ATR
000310: 30,2637           53361                           VXSC     VAD                                   #                                      (0)
000311: 30,2640           03537                                    UNIT/R/
000312: 30,2641           41572                           VSL1     PUSH                                  #  AH*2(9) IN PDL(0)                   (6)
000313: 30,2642           65246                           ABVAL    PDDL                                  #  AH(2) IN PDL(34)
000314: 30,2643           02263                                    AT                                    #  AHMAG IN PDL(6)                     (8)
000315: 30,2644           45316                           DSQ      DSU                                   #  (AT(2)-AH(2))*2(18)
000316: 30,2645           00043                                    34D                                   #  =ATP2*2(18)
000317: 30,2646           41525                           PDDL     PUSH                                  #                                      (12)
000318: 30,2647           02263                                    AT
000319: 30,2650           45316                           DSQ      DSU                                   #  (AT(2)KR(2)-AH(2))*2(18)            (10)
000320: 30,2651           00043                                    34D                                   #  =ATP3*2(18)
000321: 30,2652           71240                           BMN      DLOAD                                 #  IF ATP3 NEG,GO TO NO-ATP
000322: 30,2653           60657                                    NO-ATP                                #  LOAD ATP2,IF ATP3 POS
000323: 30,2654           00011                                    8D
000324: 30,2655           52166                           SQRT     GOTO                                  #  ATP*2(9)
000325: 30,2656           60665                                    AIMER
000326: 30,2657           55345        NO-ATP             DLOAD    BDDV                                  #  KR AT/AH = KH                       (8)
000327: 30,2660           00007                                    6D
000328: 30,2661           77761                           VXSC                                           #  KH AH*2(9)
000329: 30,2662           00001                                    00D
000330: 30,2663           14001                           STODL    00D                                   #  STORE NEW AH IN PDL(0)
000331: 30,2664           06470                                    HI6ZEROS
000332: 30,2665           77765        AIMER              SIGN
000333: 30,2666           02343                                    DZDOT
000334: 30,2667           02361                           STORE    ATP


000336: 30,2670           77761                           VXSC
000337: 30,2671           02606                                    ZAXIS1                                #  ATP ZAXIS *2(8).
000338: 30,2672           53372                           VSL1     VAD                                   #  AT*2(9)
000339: 30,2673           00001                                    00D
000340: 30,2674           03253                           STORE    UNFC/2                                #  WILL BE OVERWRITTEN IF IN VERT. RISE.
000341: 30,2675           43001                           SETPD    BON
000342: 30,2676           00001                                    00D
000343: 30,2677           04704                                    FLPI
000344: 30,2700           60207                                    P12RET
000345: 30,2701           77614                           BON
000346: 30,2702           04701                                    FLVR
000347: 30,2703           60754                                    CHECKALT
000348: 30,2704           57575        MAINLINE           VLOAD    VCOMP
000349: 30,2705           03537                                    UNIT/R/
000350: 30,2706           17261                           STODL    UNWC/2
000351: 30,2707           03654                                    TXO
000352: 30,2710           51025                           DSU      BPL
000353: 30,2711           01234                                    PIPTIME
000354: 30,2712           60720                                    ASCTERM
000355: 30,2713           77614                           BON
000356: 30,2714           04711                                    ROTFLAG
000357: 30,2715           57273                                    ANG1CHEK
000358: 30,2716           77614        CLRXFLAG           CLEAR
000359: 30,2717           06666                                    XOVINFLG                              #    (XOVINFLG)
000360: 30,2720           77776        ASCTERM            EXIT
000361: 30,2721           30105                           CA       FLAGWRD9
000362: 30,2722           74742                           MASK     FLRCSBIT
000363: 30,2723           10000                           CCS      A
000364: 30,2724           12746                           TCF      ASCTERM3
000365: 30,2725           06042                           TC       INTPRET
000366: 30,2726           77624                           CALL
000367: 30,2727           61071                                    FINDCDUW   -2
000368: 30,2730           77776        ASCTERM1           EXIT
000369: 30,2731           30105                 +1        CA       FLAGWRD9                              #  INSURE THAT THE NOUN 63 DISPLAY IS
000370: 30,2732           74742                           MASK     FLRCSBIT                              #  BYPASSED IF WE ARE IN THE RCS TRIMMING
000371: 30,2733           10000                           CCS      A                                     #  MODE OF OPERATION
000372: 30,2734           12746                           TCF      ASCTERM3
000373: 30,2735           30104                           CA       FLAGWRD8                              #  BYPASS DISPLAYS IF ENGINE FAILURE IS
000374: 30,2736           74742                           MASK     FLUNDBIT                              #  INDICATED.
000375: 30,2737           10000                           CCS      A
000376: 30,2740           12746                           TCF      ASCTERM3
000377: 30,2741           05165                           TC       VACRLEAS
000378: 30,2742           33011                           CAF      V06N63*
000379: 30,2743           04616                           TC       BANKCALL
000380: 30,2744           20444                           CADR     GODSP
000381: 30,2745           77776        ASCTERM2           EXIT
000382: 30,2746           15155        ASCTERM3           TCF      ENDOFJOB
000383: 30,2747           77776        ASCTERM4           EXIT
000384: 30,2750           00004                           INHINT
000385: 30,2751           04674                           TC       IBNKCALL                              #  NO GUIDANCE THIS CYCLE -- HENCE ZERO
000386: 30,2752           40166                           CADR     STOPRATE                              #  THE DAP COMMANDED RATES.
000387: 30,2753           12731                           TCF      ASCTERM1   +1
000388:
000389: 30,2754           45345        CHECKALT           DLOAD    DSU
000390: 30,2755           02301                                    /R/MAG
000391: 30,2756           02333                                    /LAND/
000392: 30,2757           50025                           DSU      BMN                                   #  IF H LT 25K CHECK Z AXIS ORIENTATION.
000393: 30,2760           26120                                    25KFT
000394: 30,2761           16661                                    CHECKYAW
000395: 30,2762           43014        EXITVR             CLEAR    BON
000396: 30,2763           04661                                    FLVR
000397: 30,2764           04711                                    ROTFLAG
000398: 30,2765           60704                                    MAINLINE
000399: 30,2766           43345                           DLOAD    DAD
000400: 30,2767           01234                                    PIPTIME
000401: 30,2770           25633                                    10SECS
000402: 30,2771           37654                           STCALL   TXO
000403: 30,2772           60704                                    MAINLINE
000404: 30,2773           77614        EXITVR1            CLRGO
000405: 30,2774           04631                                    ROTFLAG
000406: 30,2775           60762                                    EXITVR
000407:
000408: 27,2000                                           SETLOC   ASENT1
000409: 27,2000                                           BANK
000410: 27,3273                                           COUNT*   $$/ASENT
000411:
000412: 27,3273           53575        ANG1CHEK           VLOAD    UNIT
000413: 27,3274           03253                                    UNFC/2
000414: 27,3275           77641                           DOT
000415: 27,3276           02146                                    XNBPIP
000416: 27,3277           51025                           DSU      BPL
000417: 27,3300           02566                                    COSTHET1
000418: 27,3301           57310                                    OFFROT
000419: 27,3302           50375                           VLOAD    DOT
000420: 27,3303           02146                                    XNBPIP
000421: 27,3304           03537                                    UNIT/R/
000422: 27,3305           50025                           DSU      BMN
000423: 27,3306           02570                                    COSTHET2
000424: 27,3307           71453                                    KEEPVR1
000425: 27,3310           77614        OFFROT             CLRGO
000426: 27,3311           04631                                    ROTFLAG
000427: 27,3312           60716                                    CLRXFLAG
000428:
000429: 07,2661                                           BANK     7
000430: 07,2000                                           SETLOC   ASENT2
000431: 07,2000                                           BANK
000432: 07,2661                                           COUNT*   $$/ASENT
000433:


000435: 07,2661  07,2661               SETXFLAG           =        CHECKYAW
000436:
000437: 07,2661           77614        CHECKYAW           SET
000438: 07,2662           06466                                    XOVINFLG                              #  PROHIBIT X-AXIS OVERRIDE
000439: 07,2663           74345                           DLOAD    VXSC
000440: 07,2664           02355                                    ATY
000441: 07,2665           02303                                    LAXIS
000442: 07,2666           74325                           PDDL     VXSC
000443: 07,2667           02361                                    ATP
000444: 07,2670           02606                                    ZAXIS1
000445: 07,2671           53455                           VAD      UNIT
000446: 07,2672           45325                           PDDL     DSU
000447: 07,2673           03474                                    RDOT
000448: 07,2674           13507                                    40FPS
000449: 07,2675           52044                           BPL      GOTO
000450: 07,2676           60773                                    EXITVR1
000451: 07,2677           71451                                    KEEPVR
000452:
000453: 05,3506                                           BANK     5
000454: 05,2000                                           SETLOC   ASENT3
000455: 05,2000                                           BANK
000456: 05,3506                                           COUNT*   $$/ASENT
000457:
000458: 05,3506           00017 23305  40FPS              2DEC     0.12192    B-7
000459:
000460: 34,3451                                           BANK     34
000461: 34,2000                                           SETLOC   ASENT8
000462: 34,2000                                           BANK
000463: 34,3451                                           COUNT*   $$/ASENT
000464:
000465: 34,3451           45575        KEEPVR             VLOAD    STADR                                 #  RECALL LOSVEC FROM PUSHLIST
000466: 34,3452           74516                           STORE    UNWC/2
000467: 34,3453           77775        KEEPVR1            VLOAD
000468: 34,3454           03537                                    UNIT/R/
000469: 34,3455           37253                           STCALL   UNFC/2
000470: 34,3456           60720                                    ASCTERM
000471:
000472:
000473: 14,2347                                           BANK     14
000474: 14,2000                                           SETLOC   ASENT4
000475: 14,2000                                           BANK
000476: 14,2347                                           COUNT*   $$/ASENT
000477:
000478: 14,2347           77634        ENGOFF             RTB
000479: 14,2350           21574                                    LOADTIME
000480: 14,2351           43225                           DSU      DAD
000481: 14,2352           01234                                    PIPTIME
000482: 14,2353           03454                                    TTOGO
000483: 14,2354           77476                           DCOMP    EXIT
000484: 14,2355           07262                           TC       TPAGREE                               #  FORCE SIGN AGREEMENT ON MPAC, MPAC +1.
000485: 14,2356           35016                           CAF      EBANK7
000486: 14,2357           54003                           TS       EBANK
000487: 14,2360  E7,1516                                  EBANK=   TGO
000488: 14,2360           00004                           INHINT
000489: 14,2361           10155                           CCS      MPAC       +1


000491: 14,2362           12365                           TCF      +3                                    #  C(A) = DT - 1 BIT
000492: 14,2363           12365                           TCF      +2                                    #  C(A) = 0
000493: 14,2364           34755                           CAF      ZERO                                  #  C(A) = 0
000494: 14,2365           64753                           AD       BIT1                                  #  C(A) = 1 BIT OR DT.
000495: 14,2366           55644                           TS       ENGOFFDT
000496: 14,2367           05204                           TC       TWIDDLE
000497: 14,2370           02402                           ADRES    ENGOFF1
000498: 14,2371           05364                           TC       PHASCHNG
000499: 14,2372           47014                           OCT      47014
000500: 14,2373           76133                           -GENADR  ENGOFFDT
000501: 14,2374  E7,1516                                  EBANK=   TGO
000502: 14,2374           02402 30067                     2CADR    ENGOFF1
000503:
000504: 14,2376           06042                           TC       INTPRET
000505: 14,2377           52014                           SET      GOTO
000506: 14,2400           03470                                    IDLEFLAG                              #  DISABLE DELTA-V MONITOR
000507: 14,2401           60446                                    T2TEST
000508:
000509: 14,2402           04674        ENGOFF1            TC       IBNKCALL                              #  SHUT OFF THE ENGINE.
000510: 14,2403           75552                           CADR     ENGINOF2
000511:
000512: 14,2404           35027                           CAF      PRIO17                                #  SET UP A JOB FOR THE ASCENT GUIDANCE
000513: 14,2405           05072                           TC       NOVAC
000514: 14,2406  E7,1455                                  EBANK=   WHICH
000515: 14,2406           02416 30067                     2CADR    CUTOFF
000516:
000517: 14,2410           05364                           TC       PHASCHNG
000518: 14,2411           07024                           OCT      07024
000519: 14,2412           17000                           OCT      17000
000520: 14,2413  E7,1516                                  EBANK=   TGO
000521: 14,2413           02416 30067                     2CADR    CUTOFF
000522:
000523: 14,2415           15272                           TCF      TASKOVER
000524:
000525: 14,2416           05515        CUTOFF             TC       UPFLAG                                #  SET FLRCS FLAG.
000526: 14,2417           00214                           ADRES    FLRCS
000527:
000528: 14,2420           32437                 -5        CAF      V16N63
000529: 14,2421           04616                           TC       BANKCALL
000530: 14,2422           20477                           CADR     GOFLASH
000531: 14,2423           12426                           TCF      +3
000532: 14,2424           12430                           TCF      CUTOFF1
000533: 14,2425           12420                           TCF      -5
000534:
000535: 14,2426           04635                 +3        TC       POSTJUMP
000536: 14,2427           71467                           CADR     TERMASC
000537:
000538: 14,2430           00004        CUTOFF1            INHINT
000539: 14,2431           04674                           TC       IBNKCALL                              #  ZERO ATTITUDE ERRORS BEFORE REDUCING DB.
000540: 14,2432           40154                           CADR     ZATTEROR


000542: 14,2433           04674                           TC       IBNKCALL
000543: 14,2434           40141                           CADR     SETMINDB
000544: 14,2435           04635                           TC       POSTJUMP
000545: 14,2436           71457                           CADR     CUTOFF2
000546:
000547: 14,2437           04077        V16N63             VN       1663
000548: 34,3457                                           BANK     34
000549: 34,2000                                           SETLOC   ASENT8
000550: 34,2000                                           BANK
000551: 34,3457                                           COUNT*   $$/ASENT
000552:
000553: 34,3457           05364        CUTOFF2            TC       PHASCHNG
000554: 34,3460           04024                           OCT      04024
000555:
000556: 34,3461           33477                           CAF      V16N85C
000557: 34,3462           04616                           TC       BANKCALL
000558: 34,3463           20477                           CADR     GOFLASH
000559: 34,3464           13467                           TCF      TERMASC
000560: 34,3465           13467                           TCF      +2                                    #  PROCEED
000561: 34,3466           13457                           TCF      CUTOFF2
000562:
000563: 34,3467           05364        TERMASC            TC       PHASCHNG
000564: 34,3470           04024                           OCT      04024
000565:
000566: 34,3471           00004                           INHINT                                         #  RESTORE DEADBAND DESIRED BY ASTRONAUT.
000567: 34,3472           04674                           TC       IBNKCALL
000568: 34,3473           40115                           CADR     RESTORDB
000569: 34,3474           05527                           TC       DOWNFLAG                              #  DISALLOW ABORTS AT THIS TIME.
000570: 34,3475           00215                           ADRES    LETABORT
000571: 34,3476           16001                           TCF      GOTOPOOH
000572:
000573: 34,3477           04125        V16N85C            VN       1685
000574:
000575: 34,3500           77745        RPCOMP1            DLOAD                                          #  FLRCS = 1 (TRIM MODE)
000576: 34,3501           06470                                    HI6ZEROS
000577: 34,3502           02345                           STORE    PCONS                                 #  SET PCONS = PRATE = 0 SO THAT
000578: 34,3503           02351                           STORE    PRATE                                 #      RP = R + RDOT TGO
000579: 34,3504           41345        RPCOMP2            DLOAD    DMP                                   #  FLRCS = 0 (GUIDANCE MODE)
000580: 34,3505           02351                                    PRATE                                 #  LEAVE PCONS AND PRATE ALONE SO THAT
000581: 34,3506           03517                                    TGO                                   #      RP = R + RDOT TGO + (PCONS*TGO**2)/
000582: 34,3507           43205                           DMP      DAD                                   #      (2 TBUP) + (PRATE*TGO**3)/(6 TBUP)
000583: 34,3510           33653                                    THIRD
000584: 34,3511           02345                                    PCONS
000585: 34,3512           41205                           DMP      DMP
000586: 34,3513           03517                                    TGO
000587: 34,3514           03517                                    TGO
000588: 34,3515           72471                           DDV      SL1
000589: 34,3516           02271                                    TBUP
000590: 34,3517           65215                           DAD      PDDL
000591: 34,3520           02301                                    /R/MAG


000593: 34,3521           03474                                    RDOT
000594: 34,3522           43205                           DMP      DAD
000595: 34,3523           03517                                    TGO
000596: 34,3524           77626                           STADR
000597: 34,3525           75201                           STORE    RP
000598: 34,3526           77616                           RVQ
000599:
000600: 34,3527           45020        ZDOTDCMP           STQ      CALL                                  #  COMPUTE CENTRAL ANGLE                (0)
000601: 34,3530           02637                                    ASCSAVE
000602: 34,3531           71557                                    THETCOMP
000603: 34,3532           43205                           DMP      DAD                                   #  CENTRAL ANGLE IN MPAC
000604: 34,3533           02574                                    KPARM
000605: 34,3534           02572                                    JPARM
000606: 34,3535           41425                           DSU      PUSH                                  #  RA IN MPAC AND IN PUSHLIST          (2)
000607: 34,3536           02576                                    RP
000608: 34,3537           51025                           DSU      BPL
000609: 34,3540           02560                                    RAMIN
000610: 34,3541           71544                                    +3
000611: 34,3542           65345                           DLOAD    PDDL                                  #  RA < RAMIN.  SET RA = RAMIN.        (2)
000612: 34,3543           02560                                    RAMIN
000613: 34,3544           41345                 +3        DLOAD    DMP
000614: 34,3545           00001                                    0D
000615: 34,3546           16025                                    MUM(-37)
000616: 34,3547           77725                           PDDL
000617: 34,3550           41215                           DAD      DMP
000618: 34,3551           02576                                    RP
000619: 34,3552           02576                                    RP
000620: 34,3553           75465                           BDDV     SQRT                                  #                                      (0)
000621: 34,3554           77626                           STADR
000622: 34,3555           41500                           STCALL   ZDOTD                                 #  UPDATE ZDOTD FOR GUIDANCE AND DOWNLINK.
000623: 34,3556           02637                                    ASCSAVE
000624:
000625: 34,3557           53575        THETCOMP           VLOAD    UNIT
000626: 34,3560           03521                                    R
000627: 34,3561           53515                           PDVL     UNIT                                  #                                      (6)
000628: 34,3562           01716                                    R(CSM)
000629: 34,3563           47206                           PUSH     VXV                                   #                                      (12)
000630: 34,3564           00001                                    0D
000631: 34,3565           77641                           DOT
000632: 34,3566           02325                                    WM
000633: 34,3567           24037                           STOVL    30D                                   #                                      (6)
000634: 34,3570           72441                           DOT      SL1                                   #                                      (0)
000635: 34,3571           75326                           ARCCOS   SIGN
000636: 34,3572           00037                                    30D
000637: 34,3573           77616                           RVQ
000638:
000639: 34,3574  E5,1637               ASCSAVE            EQUALS   DLAND      +6
000640:
000641: 27,3313                                           BANK     27
000642: 27,2000                                           SETLOC   ASENT1
000643: 27,2000                                           BANK
000644: 27,3313                                           COUNT*   $$/ASENT
000645:


000647: 27,3313           50375        YCOMP              VLOAD    DOT
000648: 27,3314           03537                                    UNIT/R/
000649: 27,3315           02600                                    QAXIS
000650: 27,3316           41312                           SL2      DMP
000651: 27,3317           03631                                    RCO
000652: 27,3320           02335                           STORE    Y
000653: 27,3321           77616                           RVQ
000654:
000655:
000656: 30,2776                                           BANK     30
000657: 30,2000                                           SETLOC   ASENT
000658: 30,2000                                           BANK
000659:


000661:                                                                                                  #  ASCENT GUIDANCE CONSTANTS
000662:
000663: 30,2776  33,3043               100CS              EQUALS   2SEC(18)
000664: 30,2776  30,3000               T2A                EQUALS   2SEC(17)
000665: 30,2776           00062 00000  4SEC(17)           2DEC     400        B-17
000666:
000667: 30,3000           00031 00000  2SEC(17)           2DEC     200        B-17
000668:
000669: 30,3002           00175 00000  T3                 2DEC     1000       B-17
000670:
000671: 30,3004           00045 20000  6SEC(18)           2DEC     600        B-18
000672:
000673: 30,3006           00010        BIT4H              OCT      10
000674:
000675: 30,3007           14400 00000  2SEC(9)            2DEC     200        B-9
000676:
000677: 30,3011           01477        V06N63*            VN       0663
000678: 30,3012           01514        V06N76             VN       0676
000679: 30,3013           01441        V06N33A            VN       0633
000680:
000681: 33,2113                                           BANK     33
000682: 33,2000                                           SETLOC   ASENT6
000683: 33,2000                                           BANK
000684: 33,2113                                           COUNT*   $$/ASENT
000685:
000686: 33,2113           75751 41775  PRLIMIT            2DEC     -.0639                                #  (B/TBUP)MIN=-.1FT.SEC(-3)
000687:
000688: 33,2115           00022 07212  MINABDV            2DEC     .0356      B-5                        #  10 PERCENT BIGGER THAN GRAVITY
000689:
000690: 33,2117           00007 16100  25KFT              2DEC     7620       B-24
000691:
000692: 33,2121  E7,1570               1/DV0              =        MASS1
000693:


000695:                                                                                                  #  THE LOGARITHM SUBROUTINE
000696:
000697: 24,3642                                           BANK     24
000698: 30,2000                                           SETLOC   FLOGSUB
000699: 30,2000                                           BANK
000700:
000701:                                                                                                  #  INPUT ..... X IN MPAC
000702:                                                                                                  #  OUTPUT ..... -LOG(X) IN MPAC
000703:
000704: 30,3014           44301        LOGSUB             NORM     BDSU
000705: 30,3015           00163                                    MPAC       +6
000706: 30,3016           17772                                    NEARONE
000707: 30,3017           77776                           EXIT
000708: 30,3020           07225                           TC       POLY
000709: 30,3021           00006                           DEC      6          B-14
000710: 30,3022           00000 00002                     2DEC     .0000000060
000711:
000712: 30,3024           76777 77175                     2DEC     -.0312514377
000713:
000714: 30,3026           77400 75416                     2DEC     -.0155686771
000715:
000716: 30,3030           77507 65515                     2DEC     -.0112502068
000717:
000718: 30,3032           77741 63547                     2DEC     -.0018545108
000719:
000720: 30,3034           77052 55373                     2DEC     -.0286607906
000721:
000722: 30,3036           01167 30361                     2DEC     .0385598563
000723:
000724: 30,3040           76520 75267                     2DEC     -.0419361902
000725:
000726: 30,3042           34755                           CAF      ZERO
000727: 30,3043           54156                           TS       MPAC       +2
000728: 30,3044           00006                           EXTEND
000729: 30,3045           33061                           DCA      CLOG2/32
000730: 30,3046           52155                           DXCH     MPAC
000731: 30,3047           52132                           DXCH     BUF        +1
000732: 30,3050           30162                           CA       MPAC       +6
000733: 30,3051           07312                           TC       SHORTMP
000734: 30,3052           52156                           DXCH     MPAC       +1
000735: 30,3053           52155                           DXCH     MPAC
000736: 30,3054           52132                           DXCH     BUF        +1
000737: 30,3055           20155                           DAS      MPAC
000738: 30,3056           06042                           TC       INTPRET
000739: 30,3057           43476                           DCOMP    RVQ
000740:
000741: 30,3060           00542 34414  CLOG2/32           2DEC     .0216608494
000742:

End of include-file ASCENT_GUIDANCE.agc.  Parent file is MAIN.agc


