
Source Code


000002:                                                                                                  ## Copyright:   Public domain.
000003:                                                                                                  ## Filename:    CONTROLLED_CONSTANTS.agc
000004:                                                                                                  ## Purpose:     A section of Luminary revision 178.
000005:                                                                                                  ##              It is part of the reconstructed source code for the final
000006:                                                                                                  ##              release of the flight software for the Lunar Module's
000007:                                                                                                  ##              (LM) Apollo Guidance Computer (AGC) for Apollo 14. The
000008:                                                                                                  ##              code has been recreated from copies of Zerlina 56, Luminary
000009:                                                                                                  ##              210, and Luminary 131, as well as many Luminary memos.
000010:                                                                                                  ##              It has been adapted such that the resulting bugger words
000011:                                                                                                  ##              exactly match those specified for Luminary 178 in NASA
000012:                                                                                                  ##              drawing 2021152N, which gives relatively high confidence
000013:                                                                                                  ##              that the reconstruction is correct.
000014:                                                                                                  ## Reference:   pp. 38-54
000015:                                                                                                  ## Assembler:   yaYUL
000016:                                                                                                  ## Contact:     Ron Burkey <info@sandroid.org>.
000017:                                                                                                  ## Website:     www.ibiblio.org/apollo/index.html
000018:                                                                                                  ## Mod history: 2019-08-14 MAS  Created from Zerlina 56.
000019:                                                                                                  ##              2019-08-30 MAS  Corrected value of K1VAL to 140.12, moved
000020:                                                                                                  ##                              LR beam transformation matrices back into
000021:                                                                                                  ##                              SERVICES, and restored -MU constants to
000022:                                                                                                  ##                              their Luminary versions.
000023:


000025:                                                                                                  #  DPS AND APS ENGINE PARAMETERS
000026:
000027: 36,2000                                           SETLOC   P40S
000028: 36,2000                                           BANK
000029: 36,2000                                           COUNT*   $$/P40
000030:
000031:                                                                                                  #  *** THE ORDER OF THE FOLLOWING SIX CONSTANTS MUST NOT BE CHANGED ***
000032:
000033: 36,2000           01056 37167  FDPS               2DEC     4.3670     B-7                        #  9817.5 LBS FORCE IN NEWTONS
000034:
000035: 36,2002           00457 03250  MDOTDPS            2DEC     0.1480     B-3                        #  32.62 LBS/SEC IN KGS/CS.
000036:
000037: 36,2004           77777 77731  DTDECAY            2DEC     -38        B-28                       #  40 PERCENT FTP-DPS TAILOFF FOR P40
000038:
000039: 36,2006           00307 11040  FAPS               2DEC     1.5569     B-7                        #  3500 LBS FORCE IN NEWTONS
000040:
000041: 36,2010           00151 05214  MDOTAPS            2DEC     0.05135    B-3                        #  11.32 LBS/SEC IN KGS/CS
000042:
000043: 36,2012           77777 77755  ATDECAY            2DEC     -18        B-28                       #  618 LB-SEC  TAILOFF FOR APS
000044:
000045:                                                                                                  #  ************************************************************************
000046:
000047: 36,2014           00003 00000  100PCTTO           2DEC     24         B-17                       #  100 PERCENT FTP-DPS TAILOFF FOR P70
000048:
000049:                                                                                                  #  ************************************************************************
000050:
000051: 36,2016           00026 30605  FRCS4              2DEC     0.17792    B-7                        #  400 LBS FORCE IN NEWTONS
000052:
000053: 36,2020           00013 14303  FRCS2              2DEC     0.08896    B-7                        #  200 LBS FORCE IN NEWTONS
000054:
000055: 27,2000                                           SETLOC   P40S1
000056: 27,2000                                           BANK
000057: 27,2000                                           COUNT*   $$/P40
000058:
000059:                                                                                                  #  *** APS IMPULSE DATA FOR P42 *******************************************
000060:
000061: 27,2000           00000 10604  K1VAL              2DEC     140.12     B-23                       #  3150 LB.SEC APS IMPULSE (WET)
000062:
000063: 27,2002           00000 00762  K2VAL              2DEC     31.138     B-24                       #  700  LB-SEC
000064:
000065: 27,2004           00030 35104  K3VAL              2DEC     1.5569     B-10                       #  FAPS ( 3500 LBS THRUST)
000066:
000067:                                                                                                  #  ************************************************************************
000068:
000069: 27,2006           00016 36237  S40.136            2DEC     .4671      B-9                        #  .4671 M NEWTONS (DPS)
000070:
000071: 27,2010           35711 35663  S40.136_           2DEC     .4671      B+1                        #  S40.136 SHIFTED LEFT 10.
000072:
000073: 27,2000                                           SETLOC   ASENT1


000075: 27,2000                                           BANK
000076: 27,2012                                           COUNT*   $$/P70
000077:
000078: 27,2012           03631 23146  (1/DV)A            2DEC     15.20      B-7                        #  2 SECONDS WORTH OF INITIAL ASCENT
000079:
000080:                                                                                                  #  STAGE ACCELERATION -- INVERTED (M/CS)
000081:                                                                                                  #  1) PREDICATED ON A LIFTOFF MASS OF
000082:                                                                                                  #     4869.9 KG (SNA-8-D-027 7/11/68)
000083:                                                                                                  #  2) PREDICATED ON A CONTRIBUTION TO VEH-
000084:                                                                                                  #     ICLE ACCELERATION FROM RCS THRUSTERS
000085:                                                                                                  #     EQUIV. TO 1 JET ON CONTINUOUSLY.
000086: 27,2014           33226 14632  K(1/DV)            2DEC     436.70     B-9                        #  DPS ENGINE THRUST IN NEWTONS / 100 CS.
000087:
000088: 27,2016           05306 15503  (AT)A              2DEC     3.2883     E-4        B9              #  INITIAL ASC. STG. ACCELERATION ** M/CS.
000089:
000090:                                                                                                  #  ASSUMPTIONS SAME AS FOR (1/DV)A.
000091: 27,2020           26337 30000  (TBUP)A            2DEC     91902      B-17                       #  ESTIMATED BURN-UP TIME OF THE ASCENT STG
000092:
000093:                                                                                                  #  ASSUMPTIONS SAME AS FOR (1/DV)A WITH THE
000094:                                                                                                  #  ADDITIONAL ASSUMPTION THAT NET MASS-FLOW
000095:                                                                                                  #  RATE = 5.299 KG/SEC = 5.135 (APS) +
000096:                                                                                                  #  .164 (1 RCS JET).
000097: 30,2000                                           SETLOC   ASENT
000098: 30,2000                                           BANK
000099: 30,2000                                           COUNT*   $$/ASENT
000100: 30,2000           02445 00274  AT/RCS             2DEC     .0000785   B+10                       #  4 JETS IN A DRY LEM
000101:
000102: 33,2000                                           SETLOC   SERVICES
000103: 33,2000                                           BANK
000104: 33,2000                                           COUNT*   $$/SERV
000105:
000106:                                                                                                  #  *** THE ORDER OF THE FOLLOWING TWO CONSTANTS MUST NOT BE CHANGED *******
000107:
000108: 33,2000           41545        APSVEX             DEC      -3030      E-2        B-5             #  9942 FT/SEC IN M/CS.
000109: 33,2001           42341        DPSVEX             DEC*     -2.95588868 E+1        B-05*           #          VE (DPS) +2.95588868E+ 3
000110:                                                                                                  #  ************************************************************************
000111:
000112: 31,2000                                           SETLOC   F2DPS*31
000113: 31,2000                                           BANK
000114: 31,2000                                           COUNT*   $$/F2DPS
000115:
000116: 31,2000           00222 33316  TRIMACCL           2DEC*    +3.50132708 E-5        B+08*           #          A (T)    +3.50132708E- 1
000117:


000119:                                                                                                  #  THROTTLING AND THRUST DETECTION PARAMETERS
000120:
000121: 36,2000                                           SETLOC   P40S
000122: 36,2000                                           BANK
000123: 36,2022                                           COUNT*   $$/P40
000124:
000125: 36,2022           00030        THRESH1            DEC      24         B-14
000126:
000127: 36,2023           00014        THRESH3            DEC      12         B-14
000128:
000129: 36,2024     4737               HIRTHROT           =        BIT13
000130:
000131:    6000                                           SETLOC   FFTAG5
000132:    6000                                           BANK
000133:    6000                                           COUNT*   $$/P40
000134:
000135:    6000           00464        THRESH2            DEC      308        B-14
000136:
000137: 31,2000                                           SETLOC   FTHROT
000138: 31,2000                                           BANK
000139: 31,2002                                           COUNT*   $$/THROT
000140:
000141: 31,2002           07401        FMAXODD            DEC      +3841      B-14                       #  FSAT          +4.81454413 E+ 4
000142:
000143: 31,2003           06613        FMAXPOS            DEC      +3467      B-14                       #  FMAX          +4.34546769 E+ 4
000144:
000145: 31,2004           00010        THROTLAG           DEC      +8         B-14                       #  TAU (TH)       +0.08 SECONDS
000146: 31,2005           00307 17534  SCALEFAC           2DEC*    +7.97959872 E+2        B-16*           #  BITPERF       +7.97959872E- 2
000147:
000148: 32,2000                                           SETLOC   F2DPS*32
000149: 32,2000                                           BANK
000150: 32,2000                                           COUNT*   $$/F2DPS
000151:
000152: 32,2000           00044        DPSTHRSH           DEC      36         B-14                       #  (THRESH1 + THRESH3 FOR P63)
000153:


000155:                                                                                                  #  LM HARDWARE-RELATED PARAMETERS
000156:
000157: 25,2000                                           SETLOC   RADARUPT
000158: 25,2000                                           BANK
000159: 25,2000                                           COUNT*   $$/RRUPT
000160:
000161: 25,2000           47777        LVELBIAS           DEC      -12288     B-14                       #  LANDING RADAR BIAS FOR 153.6 KC.
000162:
000163: 25,2001           00001 01150  RDOTBIAS           2DEC     17000      B-28                       #  BIAS COUNT FOR RR RANGE RATE.
000164:
000165: 32,2000                                           SETLOC   LRS22
000166: 32,2000                                           BANK
000167: 32,2001                                           COUNT*   $$/LRS22
000168:
000169: 32,2001           70123 40702  RDOTCONV           2DEC     -.0019135344 B7                         #  CONVERTS RR RDOT READING TO M/CS AT 2(7)
000170:
000171: 32,2003           13337 10776  RANGCONV           2DEC     2.859024   B-3                        #  CONVERTS RR RANGE READING TO M. AT 2(-29
000172:
000173: 33,2000                                           SETLOC   SERVICES
000174: 33,2000                                           BANK
000175: 33,2002                                           COUNT*   $$/SERV
000176:
000177: 33,2002           51102 42414  HBEAMNB            2DEC     -0.7147168647                            #  POS 1 ALT BEAM IN NAV BASE COORDINATES
000178:
000179: 33,2004           75522 46002                     2DEC     -0.0731086602
000180:
000181: 33,2006           51573 62362                     2DEC     -0.6955824372
000182:
000183:
000184: 33,2010           62770 40667  VZBEAMNB           2DEC     -0.4067366430                            #  POS 1 VZ  BEAM
000185:
000186: 33,2012           03034 21031                     2DEC     +0.0954915028
000187:
000188: 33,2014           35045 21077                     2DEC     +0.9085409600
000189:
000190:
000191: 33,2016           00000 00000  VYBEAMNB           2DEC     +0.0                                  #  POS 1 VY  BEAM
000192:
000193: 33,2020           37646 07712                     2DEC     +0.9945218954
000194:
000195: 33,2022           74517 54765                     2DEC     -0.1045284632
000196:
000197:
000198: 33,2024           35167 20727  VXBEAMNB           2DEC     +0.9135454576                            #  POS 1 VX  BEAM
000199:
000200: 33,2026           01270 22313                     2DEC     +0.0425155563
000201:
000202: 33,2030           14743 16747                     2DEC     +0.4045084971
000203:
000204:


000206: 33,2032           42001 62422                     2DEC     -0.9374036070                            #  POS 2 ALT BEAM
000207:
000208: 33,2034           76653 63102                     2DEC     -0.0364014993
000209:
000210: 33,2036           64725 63461                     2DEC     -0.3463371311
000211:
000212:
000213: 33,2040           00000 00000                     2DEC     +0.0                                  #  POS 2 VZ  BEAM
000214:
000215: 33,2042           03260 23012                     2DEC     +0.1045284632
000216:
000217: 33,2044           37646 07712                     2DEC     +0.9945218954
000218:
000219:
000220: 33,2046           00000 00000                     2DEC     +0.0                                  #  POS 2 VY  BEAM
000221:
000222: 33,2050           37646 07712                     2DEC     +0.9945218954
000223:
000224: 33,2052           74517 54765                     2DEC     -0.1045284632
000225:
000226:
000227: 33,2054           37777 37777                     2DEC     +0.9999999999                            #  POS 2 VX  BEAM
000228:
000229: 33,2056           00000 00000                     2DEC     +0.0
000230:
000231: 33,2060           00000 00000                     2DEC     +0.0
000232:
000233:
000234: 33,2062           65363 64451  HSCAL              2DEC     -.3288792                             #  SCALES 1.079 FT/BIT TO 2(22)M.
000235:
000236:                                                                                                  #  ***** THE SEQUENCE OF THE FOLLOWING CONSTANTS MUST BE PRESERVED ********
000237:
000238: 33,2064           21241 03216  VZSCAL             2DEC     +.5410829105                            #  SCALES .8668 FT/SEC/BIT TO 2(18) M/CS.
000239:
000240: 33,2066           30153 23101  VYSCAL             2DEC     +.7565672446                            #  SCALES 1.212 FT/SEC/BIT TO 2(18) M/CS.
000241:
000242: 33,2070           63105 61733  VXSCAL             2DEC     -.4020043770                            #  SCALES -.644 FT/SEC/BIT TO 2(18) M/CS.
000243:
000244:
000245:                                                                                                  #  ************************************************************************
000246:
000247: 33,2072           01507        KPIP               DEC      .0512                                 #  SCALES DELV TO UNITS OF 2(5) M/CS.
000248: 33,2073           00321 26706  KPIP1              2DEC     .0128                                 #  SCALES DELV TO UNITS OF 2(7) M/CS.
000249:


000251: 33,2075           00150 33343  KPIP2              2DEC     .0064                                 #  SCALES DELV TO UNITS OF 2(8) M/CS.
000252:
000253: 21,2000                                           SETLOC   R10
000254: 21,2000                                           BANK
000255: 21,2000                                           COUNT*   $$/R10
000256:
000257: 21,2000           01507        LANAKPIP           DEC      .0512                                 #  SCALES PIPAS TO UNITS OF 2(5) M/CS
000258:
000259:
000260: 21,2001           00466        MAXVEL             OCT      00466                                 #  198.645 F/S IN UNITS OF 2(5) M/CS
000261:
000262:
000263: 21,2002           01034        MAXDBITS           OCT      01034                                 #  ABOUT 300 F/S
000264:
000265:
000266: 21,2003           01115        VELCONV            DEC      .03594                                #  SCALES VFL AT ONE M/CS TO .5571 F/S/BIT
000267:
000268:
000269: 21,2004           05101        ALTRCONV           DEC      .16020                                #  SCALES ALTR AT 2(2) M/CS TO .5 F/S/BIT
000270:
000271:
000272: 21,2005           26305        ALTCONV            DEC      .69954                                #  SCALES ALTITUDE AT 2(15) M TO 9.38 F/BIT
000273:
000274:
000275: 20,2000                                           SETLOC   DAPS3
000276: 20,2000                                           BANK
000277: 20,2000                                           COUNT*   $$/DAPAO
000278:
000279: 20,2000           01150        TORKJET1           DEC      .03757                                #  550 / .2 SCALED AT (+16) 64 / 180
000280:


000282:                                                                                                  #  PARAMETERS RELATING TO MASS, INERTIA, AND VEHICLE DIMENSTIONS
000283:
000284:
000285: 05,2000                                           SETLOC   FRANDRES
000286: 05,2000                                           BANK
000287: 05,2000                                           COUNT*   $$/START
000288:
000289: 05,2000           02357        FULLAPS            DEC      5050       B-16                       #  NOMINAL FULL ASCENT MASS -- 2(16) KG.
000290:
000291: 01,2000                                           SETLOC   LOADDAP1
000292: 01,2000                                           BANK
000293: 01,2000                                           COUNT*   $$/R03
000294:
000295: 01,2000           76466        MINLMD             DEC      -2850      B-16                       #  MIN. DESCENT STAGE MASS -- 2(16) KG.
000296:
000297: 01,2001           76731        MINMINLM           DEC      -2200      B-16                       #  MIN ASCENT STAGE MASS -- 2(16) KG.
000298:
000299: 01,2002     4741               MINCSM             =        BIT11                                 #  MIN CSM MASS (OK FOR 1/ACCS) = 9050 LBS
000300:
000301: 20,2000                                           SETLOC   DAPS3
000302: 20,2000                                           BANK
000303: 20,2001                                           COUNT*   $$/DAPAO
000304:
000305: 20,2001           01046        LOASCENT           DEC      2200       B-16                       #  MIN ASCENT LEM MASS -- 2(16) KG.
000306:
000307: 20,2002           10117        HIDESCNT           DEC      16700      B-16                       #  MAX DESCENT LEM MASS -- 2(16) KG.
000308: 20,2003           00666        LODESCNT           DEC      1750       B-16                       #  MIN DESCENT STAGE (ALONE) -- 2(16) KG
000309:


000311:                                                                                                  #  PHYSICAL CONSTANTS ( TIME - INVARIANT )
000312:
000313: 37,2000                                           SETLOC   IMU2
000314: 37,2000                                           BANK
000315: 37,2000                                           COUNT*   $$/P07
000316:
000317: 37,2000           07623 26552  OMEG/MS            2DEC     .24339048
000318:
000319: 22,2000                                           SETLOC   R30LOC
000320: 22,2000                                           BANK
000321: 22,2000                                           COUNT*   $$/R30
000322:
000323:                                                                                                  #  *** THE ORDER OF THE FOLLOWING TWO CONSTANTS MUST BE PRESERVED *********
000324:
000325: 22,2000           27533 07571  1/RTMUM            2DEC*    .45162595  E-4        B14*
000326:
000327: 22,2002           25004 06702  1/RTMUE            2DEC*    .50087529  E-5        B17*
000328:
000329:                                                                                                  #  ************************************************************************
000330:
000331: 27,2000                                           SETLOC   P40S1
000332: 27,2000                                           BANK
000333: 27,2022                                           COUNT*   $$/S40.9
000334:
000335: 27,2022           55340 61710  EARTHMU            2DEC*    -3.986032  E10        B-36*           #  M(3)/CS(2)
000336:
000337: 27,2000                                           SETLOC   ASENT1
000338: 27,2000                                           BANK
000339: 27,2024                                           COUNT*   $$/P12
000340:
000341: 27,2024           00072 16206  MUM(-37)           2DEC*    4.9027780  E8         B-37*
000342:
000343: 27,2026           00344 24331  MOONRATE           2DEC*    .26616994890062991 E-7        B+19*           #  RAD/CS.
000344:
000345: 33,2000                                           SETLOC   SERVICES
000346: 33,2000                                           BANK
000347: 33,2077                                           COUNT*   $$/SERV
000348:
000349:                                                                                                  #  *** THE ORDER OF THE FOLLOWING TWO CONSTANTS MUST BE PRESERVED *********
000350:
000351: 33,2077           61377 55754  -MUDT              2DEC*    -7.9720645 E+12       B-44*
000352: 33,2101           77644 65556  -MUDT1             2DEC*    -9.8055560 E+10       B-44*
000353:                                                                                                  #  ************************************************************************
000354:


000356: 33,2103           64453 55670  -MUDTMUN           2DEC*    -9.8055560 E+10       B-38*
000357: 33,2105           00002 11777  RESQ               2DEC*    40.6809913 E12        B-58*
000358:
000359: 33,2107           01023 37155  20J                2DEC     3.24692010 E-2
000360:
000361: 33,2111           00065 06244  2J                 2DEC     3.24692010 E-3
000362:
000363: 14,2000                                           SETLOC   P50S1
000364: 14,2000                                           BANK
000365: 14,2000                                           COUNT*   $$/LOSAM
000366:
000367: 14,2000           26723 00450  RSUBEM             2DEC     384402000  B-29
000368:
000369: 14,2002           00065 01265  RSUBM              2DEC     1738090    B-29
000370:
000371: 14,2004           00302 24533  RSUBE              2DEC     6378166    B-29
000372:
000373: 14,2006           00052 04047  ROE                2DEC     .00257125
000374:
000375: 04,2000                                           SETLOC   CONICS1
000376: 04,2000                                           BANK
000377: 04,2000                                           COUNT*   $$/LT-LG
000378:
000379: 04,2000           00302 17755  ERAD               2DEC     6373338    B-29                       #  PAD RADIUS
000380:
000381: 04,2002           00065 01265  504RM              2DEC     1738090    B-29                       #  METERS B-29 (EQUATORIAL MOON RADIUS)
000382:
000383: 04,2000                                           SETLOC   CONICS1
000384: 04,2000                                           BANK
000385: 04,2004                                           COUNT*   $$/CONIC
000386:
000387:                                                                                                  #  *** THE ORDER OF THE FOLLOWING CONSTANTS MUST BE PRESERVED *************
000388:
000389: 04,2004           22437 16067  MUTABLE            2DEC*    3.986032   E10        B-36*           #  MUE
000390:
000391: 04,2006           15625 21042                     2DEC*    .25087606  E-10       B+34*           #  1/MUE
000392:
000393: 04,2010           30276 04773                     2DEC*    1.99650495 E5         B-18*           #  SQRT(MUE)
000394:
000395: 04,2012           25004 06702                     2DEC*    .50087529  E-5        B+17*           #  1/SQRT(MUE)
000396:
000397:
000398:
000399: 04,2014           16471 01352                     2DEC*    4.902778   E8         B-30*           #  MUM
000400:
000401: 04,2016           21412 20500                     2DEC*    .203966    E-8        B+28*           #  1/MUM
000402:
000403: 04,2020           25477 03367                     2DEC*    2.21422176 E4         B-15*           #  SQRT(MUM)
000404:
000405: 04,2022           27533 07571                     2DEC*    .45162595  E-4        B+14*           #  1/SQRT(MUM)
000406:
000407:                                                                                                  #  ************************************************************************


000409: 13,2000                                           SETLOC   INTINIT
000410: 13,2000                                           BANK
000411: 13,2000                                           COUNT*   $$/INTIN
000412:
000413: 13,2000           07112 06620  OMEGMOON           2DEC*    2.66169947 E-8        B+23*
000414:
000415: 13,2000                                           SETLOC   ORBITAL2
000416: 13,2000                                           BANK
000417: 13,2002                                           COUNT*   $$/ORBIT
000418:
000419:                                                                                                  #  *** THE ORDER OF THE FOLLOWING CONSTANTS MUST NOT BE CHANGED ***********
000420:
000421: 13,2002           27446 14620                     2DEC*    1.32715445 E16        B-54*           #  S
000422:
000423: 13,2004           16471 01352  MUM                2DEC*    4.9027780  E8         B-30*           #  M
000424:
000425: 13,2006           22437 16067  MUEARTH            2DEC*    3.986032   E10        B-36*
000426:
000427: 13,2010           00000 00000                     2DEC     0          B-28
000428:
000429: 13,2012           02302 24736  J4REQ/J3           2DEC*    .4991607391 E7         B-26*
000430:
000431: 13,2014           77651 76237                     2DEC     -176236.02 B-25
000432:
000433: 13,2016           77776 53032  2J3RE/J2           2DEC*    -.1355426363 E5         B-27*
000434:
000435: 13,2020           10407 05344                     2DEC*    .3067493316 E18        B-60*
000436:
000437: 13,2022           13710 35320  J2REQSQ            2DEC*    1.75501139 E21        B-72*
000438:
000439: 13,2024           12160 12124  3J22R2MU           2DEC*    9.20479048 E16        B-58*
000440:
000441:                                                                                                  #  ************************************************************************
000442:
000443: 27,2000                                           SETLOC   TOF-FF1
000444: 27,2000                                           BANK
000445: 27,2030                                           COUNT*   $$/TFF
000446:
000447: 27,2030           24775 30424  1/RTMU             2DEC*    .5005750271 E-5        B17*            #  MODIFIED EARTH MU
000448:
000449: 42,2000                                           SETLOC   SBAND
000450: 42,2000                                           BANK
000451: 42,2000                                           COUNT*   $$/R05
000452:
000453: 42,2000           26723 00450  REMDIST            2DEC     384402000  B-29                       #  MEAN DISTANCE BETWEEN EARTH AND MOON.
000454:


000456:                                                                                                  #  PHYSICAL CONSTANTS (TIME - VARIANT)
000457:
000458: 14,2000                                           SETLOC   STARTAB
000459: 14,2000                                           BANK
000460: 14,2010                                           COUNT*   $$/STARS
000461:
000462: 14,2010           15263 14526                     2DEC     +.8343989109 B-1                        #  STAR 37       X
000463:
000464: 14,2012           74131 63662                     2DEC     -.2390600205 B-1                        #  STAR 37       Y
000465:
000466: 14,2014           70033 66576                     2DEC     -.4966173214 B-1                        #  STAR 37       Z
000467:
000468: 14,2016           15015 01060                     2DEC     +.8140910890 B-1                        #  STAR 36       X
000469:
000470: 14,2020           67070 77733                     2DEC     -.5555422636 B-1                        #  STAR 36       Y
000471:
000472: 14,2022           02552 02515                     2DEC     +.1691995627 B-1                        #  STAR 36       Z
000473:
000474: 14,2024           07210 17302                     2DEC     +.4541602263 B-1                        #  STAR 35       X
000475:
000476: 14,2026           67277 54722                     2DEC     -.5391353124 B-1                        #  STAR 35       Y
000477:
000478: 14,2030           13262 14226                     2DEC     +.7092754074 B-1                        #  STAR 35       Z
000479:
000480: 14,2032           05100 14770                     2DEC     +.3203620343 B-1                        #  STAR 34       X
000481:
000482: 14,2034           70716 63142                     2DEC     -.4435303001 B-1                        #  STAR 34       Y
000483:
000484: 14,2036           62466 74737                     2DEC     -.8370478121 B-1                        #  STAR 34       Z
000485:
000486: 14,2040           10653 31305                     2DEC     +.5522208574 B-1                        #  STAR 33       X
000487:
000488: 14,2042           63236 44502                     2DEC     -.7931952248 B-1                        #  STAR 33       Y
000489:
000490: 14,2044           73711 44272                     2DEC     -.2566972144 B-1                        #  STAR 33       Z
000491:
000492: 14,2046           07206 14007                     2DEC     +.4539032479 B-1                        #  STAR 32       X
000493:
000494: 14,2050           61750 65323                     2DEC     -.8778479991 B-1                        #  STAR 32       Y
000495:
000496: 14,2052           02343 35410                     2DEC     +.1528225504 B-1                        #  STAR 32       Z
000497:
000498: 14,2054           03241 11616                     2DEC     +.2071906196 B-1                        #  STAR 31       X
000499:
000500: 14,2056           62031 41460                     2DEC     -.8719421540 B-1                        #  STAR 31       Y
000501:
000502: 14,2060           70715 76442                     2DEC     -.4436089799 B-1                        #  STAR 31       Z
000503:
000504: 14,2062           01746 04017                     2DEC     +.1218415406 B-1                        #  STAR 30       X
000505:
000506: 14,2064           63532 44700                     2DEC     -.7702450672 B-1                        #  STAR 30       Y
000507:


000509: 14,2066           12010 06310                     2DEC     +.6260009387 B-1                        #  STAR 30       Z
000510:
000511: 14,2070           76150 62332                     2DEC     -.1122343912 B-1                        #  STAR 29       X
000512:
000513: 14,2072           60371 66347                     2DEC     -.9695188377 B-1                        #  STAR 29       Y
000514:
000515: 14,2074           03370 06667                     2DEC     +.2177995974 B-1                        #  STAR 29       Z
000516:
000517: 14,2076           76126 53632                     2DEC     -.1144569328 B-1                        #  STAR 28       X
000518:
000519: 14,2100           72436 70326                     2DEC     -.3399947346 B-1                        #  STAR 28       Y
000520:
000521: 14,2102           61041 51225                     2DEC     -.9334362275 B-1                        #  STAR 28       Z
000522:
000523: 14,2104           72301 44526                     2DEC     -.3514226152 B-1                        #  STAR 27       X
000524:
000525: 14,2106           62640 61020                     2DEC     -.8241537737 B-1                        #  STAR 27       Y
000526:
000527: 14,2110           70711 57555                     2DEC     -.4441539178 B-1                        #  STAR 27       Z
000528:
000529: 14,2112           67365 45532                     2DEC     -.5325711148 B-1                        #  STAR 26       X
000530:
000531: 14,2114           64425 40516                     2DEC     -.7161840263 B-1                        #  STAR 26       Y
000532:
000533: 14,2116           07157 00567                     2DEC     +.4510526000 B-1                        #  STAR 26       Z
000534:
000535: 14,2120           63330 51176                     2DEC     -.7860975319 B-1                        #  STAR 25       X
000536:
000537: 14,2122           67513 77771                     2DEC     -.5219727016 B-1                        #  STAR 25       Y
000538:
000539: 14,2124           05227 37143                     2DEC     +.3310516106 B-1                        #  STAR 25       Z
000540:
000541: 14,2126           64756 42240                     2DEC     -.6896884364 B-1                        #  STAR 24       X
000542:
000543: 14,2130           71234 63041                     2DEC     -.4183842954 B-1                        #  STAR 24       Y
000544:
000545: 14,2132           66426 60103                     2DEC     -.5910029120 B-1                        #  STAR 24       Z
000546:
000547: 14,2134           66546 66454                     2DEC     -.5812126603 B-1                        #  STAR 23       X
000548:
000549: 14,2136           73257 67711                     2DEC     -.2910465457 B-1                        #  STAR 23       Y
000550:
000551: 14,2140           14121 11310                     2DEC     +.7599235169 B-1                        #  STAR 23       Z
000552:
000553: 14,2142           61250 64612                     2DEC     -.9169129501 B-1                        #  STAR 22       X
000554:
000555: 14,2144           72311 53514                     2DEC     -.3504194263 B-1                        #  STAR 22       Y
000556:
000557: 14,2146           74743 55251                     2DEC     -.1909891817 B-1                        #  STAR 22       Z
000558:


000560: 14,2150           70607 46251                     2DEC     -.4522463508 B-1                        #  STAR 21       X
000561:
000562: 14,2152           77152 67164                     2DEC     -.0494719393 B-1                        #  STAR 21       Y
000563:
000564: 14,2154           61600 73424                     2DEC     -.8905199410 B-1                        #  STAR 21       Z
000565:
000566: 14,2156           60605 51271                     2DEC     -.9524789319 B-1                        #  STAR 20       X
000567:
000568: 14,2160           77030 43666                     2DEC     -.0595555999 B-1                        #  STAR 20       Y
000569:
000570: 14,2162           73160 72671                     2DEC     -.2987256513 B-1                        #  STAR 20       Z
000571:
000572: 14,2164           60431 40244                     2DEC     -.9656970164 B-1                        #  STAR 19       X
000573:
000574: 14,2166           00655 03043                     2DEC     +.0523798707 B-1                        #  STAR 19       Y
000575:
000576: 14,2170           04043 20031                     2DEC     +.2543336816 B-1                        #  STAR 19       Z
000577:
000578: 14,2172           62163 44553                     2DEC     -.8609439465 B-1                        #  STAR 18       X
000579:
000580: 14,2174           07324 15316                     2DEC     +.4634300302 B-1                        #  STAR 18       Y
000581:
000582: 14,2176           03266 20674                     2DEC     +.2097811430 B-1                        #  STAR 18       Z
000583:
000584: 14,2200           63470 50263                     2DEC     -.7743822014 B-1                        #  STAR 17       X
000585:
000586: 14,2202           11656 26664                     2DEC     +.6150774086 B-1                        #  STAR 17       Y
000587:
000588: 14,2204           75500 63126                     2DEC     -.1483643740 B-1                        #  STAR 17       Z
000589:
000590: 14,2206           70426 67766                     2DEC     -.4659729684 B-1                        #  STAR 16       X
000591:
000592: 14,2210           07506 25305                     2DEC     +.4773764969 B-1                        #  STAR 16       Y
000593:
000594: 14,2212           13726 31410                     2DEC     +.7449703838 B-1                        #  STAR 16       Z
000595:
000596: 14,2214           72160 45226                     2DEC     -.3613079259 B-1                        #  STAR 15       X
000597:
000598: 14,2216           11143 20062                     2DEC     +.5746463708 B-1                        #  STAR 15       Y
000599:
000600: 14,2220           64200 54164                     2DEC     -.7343283537 B-1                        #  STAR 15       Z
000601:
000602: 14,2222           71320 52744                     2DEC     -.4120676148 B-1                        #  STAR 14       X
000603:
000604: 14,2224           16401 26465                     2DEC     +.9064582964 B-1                        #  STAR 14       Y
000605:
000606: 14,2226           01364 30204                     2DEC     +.0923776901 B-1                        #  STAR 14       Z
000607:
000608: 14,2230           75052 77025                     2DEC     -.1822546265 B-1                        #  STAR 13       X
000609:


000611: 14,2232           17030 04652                     2DEC     +.9404481198 B-1                        #  STAR 13       Y
000612:
000613: 14,2234           73321 51514                     2DEC     -.2869504922 B-1                        #  STAR 13       Z
000614:
000615: 14,2236           77007 70532                     2DEC     -.0615513667 B-1                        #  STAR 12       X
000616:
000617: 14,2240           11514 36162                     2DEC     +.6031426337 B-1                        #  STAR 12       Y
000618:
000619: 14,2242           63215 50542                     2DEC     -.7952549230 B-1                        #  STAR 12       Z
000620:
000621: 14,2244           02141 34546                     2DEC     +.1369502971 B-1                        #  STAR 11       X
000622:
000623: 14,2246           12716 02026                     2DEC     +.6814042795 B-1                        #  STAR 11       Y
000624:
000625: 14,2250           13401 34315                     2DEC     +.7189804058 B-1                        #  STAR 11       Z
000626:
000627: 14,2252           03156 02376                     2DEC     +.2009372589 B-1                        #  STAR 10       X
000628:
000629: 14,2254           17402 26132                     2DEC     +.9690787331 B-1                        #  STAR 10       Y
000630:
000631: 14,2256           75552 70755                     2DEC     -.1432153163 B-1                        #  STAR 10       Z
000632:
000633: 14,2260           05467 12453                     2DEC     +.3505042402 B-1                        #  STAR 9        X
000634:
000635: 14,2262           16221 03071                     2DEC     +.8927120666 B-1                        #  STAR 9        Y
000636:
000637: 14,2264           04420 03530                     2DEC     +.2832171316 B-1                        #  STAR 9        Z
000638:
000639: 14,2266           06441 32064                     2DEC     +.4103778920 B-1                        #  STAR 8        X
000640:
000641: 14,2270           07767 00316                     2DEC     +.4989028983 B-1                        #  STAR 8        Y
000642:
000643: 14,2272           14155 10512                     2DEC     +.7633386428 B-1                        #  STAR 8        Z
000644:
000645: 14,2274           13177 16474                     2DEC     +.7030586868 B-1                        #  STAR 7        X
000646:
000647: 14,2276           13245 32202                     2DEC     +.7077417542 B-1                        #  STAR 7        Y
000648:
000649: 14,2300           01070 04747                     2DEC     +.0693548283 B-1                        #  STAR 7        Z
000650:
000651: 14,2302           10560 10564                     2DEC     +.5449551668 B-1                        #  STAR 6        X
000652:
000653: 14,2304           10403 00211                     2DEC     +.5316172328 B-1                        #  STAR 6        Y
000654:
000655: 14,2306           65500 54764                     2DEC     -.6483879887 B-1                        #  STAR 6        Z
000656:
000657: 14,2310           00152 17317                     2DEC     +.0129982160 B-1                        #  STAR 5        X
000658:
000659: 14,2312           00077 36650                     2DEC     +.0078080287 B-1                        #  STAR 5        Y
000660:


000662: 14,2314           17777 01672                     2DEC     +.9998850339 B-1                        #  STAR 5        Z
000663:
000664: 14,2316           07674 32337                     2DEC     +.4918000631 B-1                        #  STAR 4        X
000665:
000666: 14,2320           03417 04547                     2DEC     +.2205989850 B-1                        #  STAR 4        Y
000667:
000668: 14,2322           62413 74137                     2DEC     -.8422997006 B-1                        #  STAR 4        Z
000669:
000670: 14,2324           07507 11400                     2DEC     +.4774532337 B-1                        #  STAR 3        X
000671:
000672: 14,2326           01674 02073                     2DEC     +.1167072881 B-1                        #  STAR 3        Y
000673:
000674: 14,2330           15736 05654                     2DEC     +.8708718726 B-1                        #  STAR 3        Z
000675:
000676: 14,2332           16745 15337                     2DEC     +.9342553544 B-1                        #  STAR 2        X
000677:
000678: 14,2334           02617 02736                     2DEC     +.1737172460 B-1                        #  STAR 2        Y
000679:
000680: 14,2336           73010 70171                     2DEC     -.3114309732 B-1                        #  STAR 2        Z
000681:
000682: 14,2340           15776 17053                     2DEC     +.8748133997 B-1                        #  STAR 1        X
000683:
000684: 14,2342           00327 12164                     2DEC     +.0262841262 B-1                        #  STAR 1        Y
000685:
000686: 14,2344           07572 33172                     2DEC     +.4837464836 B-1                        #  STAR 1        Z
000687:
000688: 14,2346           15637        CATLOG             DEC      7071       B-14
000689:                                                                                                  #  ************************************************************************
000690:
000691:
000692: 05,2000                                           SETLOC   EPHEM1
000693: 05,2000                                           BANK
000694: 05,2001                                           COUNT*   $$/EPHEM
000695:
000696: 05,2001           20000 00000  KONMAT             2DEC     1.0        B-1                        #         *************
000697:
000698: 05,2003           00000 00000                     2DEC     0          B-28                       #                     *
000699:
000700: 05,2005           00000 00000                     2DEC     0          B-28                       #                     *
000701:
000702: 05,2007           00000 00000                     2DEC     0          B-28                       #                     *
000703:
000704: 05,2011           16533 32505                     2DEC     .91746     B-1*                       #  K1 COS (OBL)
000705:
000706: 05,2013           77333 56446                     2DEC     -.035711   B-1*                       #  K2 SIN (OBL) SIN (IM)
000707:
000708: 05,2015           00000 00000                     2DEC     0          B-28                       #                     *
000709:
000710: 05,2017           06273 03275                     2DEC     .39784     B-1*                       #  K3 SIN (OBL)
000711:


000713: 05,2021           01242 24467                     2DEC*    .082354    B-1*                       #  K4 COS (OBL) SIN (IM)
000714:
000715: 05,2023           00020 17260  CSTODAY            2DEC     8640000    B-33                       #                     * NOTE           *
000716:
000717: 05,2025           00002        RCB-13             OCT      00002                                 #                     * TABLES CONTAIN *
000718: 05,2026           00000                           OCT      00000                                 #                     * CONSTANTS FOR  *
000719: 05,2027           22572 27267  RATESP             2DEC*    .03660099  B+4*                       #  LOMR
000720:
000721: 05,2031           01315 26251                     2DEC*    .00273780  B+4*                       #  LOSR
000722:
000723: 05,2033           77731 55144                     2DEC*    -.00014720 B+4*                       #  LONR
000724:
000725: 05,2035           05456 01204                     2DEC     .174685017                            #  LOMO
000726:
000727: 05,2037           10611 15113                     2DEC     .274011893                            #  LOSO
000728:
000729: 05,2041           35656 15121                     2DEC     .932520213                            #  LONO
000730:
000731: 05,2043           01076 16550  VAL67              2DEC*    .017531111 B+1*                       #  AMOD
000732:
000733: 05,2045           70645 74553                     2DEC     -.224249436                            #  AARG
000734:
000735: 05,2047           02245 06475                     2DEC*    .036291713 B+1*                       #  1/27
000736:
000737: 05,2051           00162 05550                     2DEC*    .003484442 B+1*                       #  BMOD
000738:
000739: 05,2053           01671 37406                     2DEC     .058226609                            #  BARG
000740:
000741: 05,2055           01000 00000                     2DEC     .031250000                            #  1/32
000742:
000743: 05,2057           00256 24654                     2DEC*    .005329930 B+1*                       #  CMOD
000744:
000745: 05,2061           77523 76354                     2DEC     -.010500980                            #  CARG
000746:
000747: 05,2063           00131 26730                     2DEC*    .002737925 B+1*                       #  1/365
000748:
000749:                                                                                                  #  ************************************************************************
000750:
000751:
000752: 26,2000                                           SETLOC   PLANTIN2
000753: 26,2000                                           BANK
000754: 26,2000                                           COUNT*   $$/LUROT
000755:
000756: 26,2000           17775 02052  COSI               2DEC*    9.996417320 E-1        B-1*            #  COS (5521.5 SEC.)
000757:
000758: 26,2002           00333 10374  SINI               2DEC*    2.676579050 E-2        B-1*            #  SIN (5521.5 SEC.)
000759:
000760: 26,2004           77665 42175  NODDOT             2DEC*    -1.703706159 E-11       B28*            #  REV/CSEC
000761:
000762: 26,2006           22211 00636  FDOT               2DEC*    4.253263471 E-9        B27*            #  REV/CSEC
000763:


000765: 26,2010           77777 77767  BDOT               2DEC*    -1.145530402 E-16       B28*            #  REV/CSEC
000766:
000767: 26,2012           35656 15077  NODIO              2DEC*    9.325201471 E-1        B               #  REV
000768:
000769: 26,2014           07577 35124  FSUBO              2DEC*    2.421820916 E-1        B               #  REV
000770:
000771: 26,2016           02052 35411  BSUBO              2DEC*    6.511977813 E-2        B               #  REV
000772:
000773: 26,2020           37116 32631  WEARTH             2DEC*    1.160576171 E-7        B23*            #  REV/CSEC
000774:
000775: 26,2022           30611 04040  AZO                2DEC*    7.739945637 E-1        B               #  REVS
000776:

End of include-file CONTROLLED_CONSTANTS.agc.  Parent file is MAIN.agc


