
Source Code


000002:                                                                                                  ## Copyright:   Public domain.
000003:                                                                                                  ## Filename:    DISPLAY_INTERFACE_ROUTINES.agc
000004:                                                                                                  ## Purpose:     A section of Luminary revision 178.
000005:                                                                                                  ##              It is part of the reconstructed source code for the final
000006:                                                                                                  ##              release of the flight software for the Lunar Module's
000007:                                                                                                  ##              (LM) Apollo Guidance Computer (AGC) for Apollo 14. The
000008:                                                                                                  ##              code has been recreated from copies of Zerlina 56, Luminary
000009:                                                                                                  ##              210, and Luminary 131, as well as many Luminary memos.
000010:                                                                                                  ##              It has been adapted such that the resulting bugger words
000011:                                                                                                  ##              exactly match those specified for Luminary 178 in NASA
000012:                                                                                                  ##              drawing 2021152N, which gives relatively high confidence
000013:                                                                                                  ##              that the reconstruction is correct.
000014:                                                                                                  ## Reference:   pp. 1330-1361
000015:                                                                                                  ## Assembler:   yaYUL
000016:                                                                                                  ## Contact:     Ron Burkey <info@sandroid.org>.
000017:                                                                                                  ## Website:     www.ibiblio.org/apollo/index.html
000018:                                                                                                  ## Mod history: 2019-08-14 MAS  Created from Zerlina 56.
000019:                                                                                                  ##              2019-09-15 MAS  Restored definitions for erasables DSPFLG,
000020:                                                                                                  ##                              MARKFLAG, and SAVEFLAG. Put back in code
000021:                                                                                                  ##                              that uses R1SAVE.
000022:


000024:                                                                                                  #  DISPLAYS CAN BE CLASSIFIED INTO THE FOLLOWING CATEGORIES-
000025:
000026:                                                                                                  #      1. PRIORITY DISPLAYS- DISPLAYS WHICH TAKE PRIORITY OVER ALL OTHER DISPLAYS. USUALLY THESE DISPLAYS ARE SENT
000027:                                                                                                  #         OUT UNDER CRITICAL ALARM CONDITIONS.
000028:                                                                                                  #      2. EXTENDED VERB DISPLAYS- ALL EXTENDED VERBS AND MARK ROUTINES SHOULD USE EXTENDED VERB (MARK) DISPLAYS.
000029:                                                                                                  #      3. NORMAL DISPLAYS- ALL MISSION PROGRAM DISPLAYS WHICH INTERFACE WITH THE ASTRONAUT DURING THE NORMAL
000030:                                                                                                  #         SEQUENCE OF EVENTS.
000031:                                                                                                  #      4. MISC. DISPLAYS- ALL DISPLAYS NOT HANDLED BY THE DISPLAY INTERFACEROUTINES. THESE INCLUDE SUCH DISPLAYS AS
000032:                                                                                                  #         MM DISPLAYS AND SPECIAL PURPOSE DISPLAYS HANDLED BY PINBALL.
000033:
000034:
000035:                                                                                                  #      5. ASTRONAUT INITIATED DISPLAYS- ALL DISPLAYS INITIATED EXTERNALLY.
000036:                                                                                                  #  THE FOLLOWING TERMS ARE USED TO DESCRIBE THE STATUS OF DISPLAYS-
000037:
000038:                                                                                                  #      1. ACTIVE-THE DISPLAY WHICH IS (1) BEING DISPLAYED TO THE ASTRONAUT AND WAITING FOR A RESPONSE OR
000039:                                                                                                  #         (2) WAITING FIRST IN LINE FOR THE ASTRONAUT TO FINISH USING THE DSKY OR (3) BEING DISPLAYED ON THE DSKY
000040:                                                                                                  #         BUT NOT WAITING FOR A RESPONSE.
000041:                                                                                                  #      2. INACTIVE -A DISPLAY WHICH HAS (1) BEEN ACTIVE BUT WAS INTERRUPTEDBY A DISPLAY OF HIGHER PRIORITY,
000042:                                                                                                  #         (2) BEEN PUT INTO THE WAITING LIST AT TIME IT WAS REQUESTED DUE TO THE FACT A HIGHER PRIORITY DISPLAY
000043:                                                                                                  #         WAS ALREADY GOING, (3) BEEN INTERRUPTED BY THE ASTRONAUT (CALLED A PINBRANCH CONDITION, SINCE THIS TYPE
000044:                                                                                                  #         OF INACTIVE DISPLAY IS USUALLY REACTIVATED ONLY BY PINBALL) OR (4) A DISPLAY WHICH HAS FINISHED BUT STILL
000045:                                                                                                  #         HAS INFO SAVED FOR RESTART PURPOSES.
000046:
000047:
000048:                                                                                                  #  DISPLAY PRIORITIES WORK AS FOLLOWS-
000049:
000050:                                                                                                  #    INTERRUPTS-
000051:                                                                                                  #      1. THE ASTRONAUT CAN INTERRUPT ANY DISPLAY WITH AN EXTERNAL DISPLAY REQUEST.
000052:                                                                                                  #      2. INTERNAL DISPLAYS CAN NOT BE SENT OUT WHEN THE ASTRONAUT IS USING THE DSKY.
000053:                                                                                                  #      3. PRIORITY DISPLAYS INTERRUPT ALL OTHER TYPES OF INTERNAL DISPLAYS. A PRIORITY DISPLAY INTERRUPTING ANOTHER
000054:                                                                                                  #         PRIORITY DISPLAY WILL CAUSE AN ABORT UNLESS BIT14 IS SET FOR THE LINUS ROUTINE.
000055:                                                                                                  #      4. A MARK DISPLAY INTERRUPTS ANY NORMAL DISPLAY.
000056:                                                                                                  #      5. A MARK THAT INTERRUPTS A MARK COMPLETELY REPLACES IT.
000057:
000058:                                                                                                  #    ORDER OF WAITING DISPLAYS-
000059:                                                                                                  #      1. ASTRONAUT EXTERNAL USE
000060:                                                                                                  #      2. PRIORITY
000061:                                                                                                  #      3. INTERRUPTED MARK
000062:                                                                                                  #      4. INTERRUPTED NORMAL
000063:
000064:                                                                                                  #      5. MARK TO BE REQUESTED (SEE DESCRIPTION OF ENDMARK)
000065:                                                                                                  #      6. MARK WAITING
000066:                                                                                                  #      7. NORMAL WAITING
000067:


000069:                                                                                                  #  THE DISPLAY ROUTINES ARE INTENDED TO SERVE AS AN INTERFACE BETWEEN THE USER AND PINBALL.  THE
000070:                                                                                                  #  FOLLOWING STATEMENTS CAN BE MADE ABOUT NORMAL DISPLAYS AND PRIORITY DISPLAYS (A DESCRIPTION OF MARK ROUTINES
000071:                                                                                                  #  WILL FOLLOW LATER):
000072:
000073:                                                                                                  #       1.  ALL ROUTINES THAT END IN R HAVE AN IMMEDIATE RETURN TO THE USER.  FOR ALL FLASHING DISPLAYS THIS RETURN
000074:                                                                                                  #           IS TO THE USERS CALL CADR +4.  FOR THE ONLY NON FLASHING IMMEDIATE RETURN DISPLAY (GODSPR) THIS RETURN
000075:                                                                                                  #           IS TO THE USERS CALLING LOC +1.
000076:                                                                                                  #       2.  ALL ROUTINES NOT ENDING IN R DO NOT DO AN IMMEDIATE RETURN TO THE USER.
000077:                                                                                                  #       3.  ALL ROUTINES THAT END IN R START A SEPARATE JOB (MAKEPLAY) WITH USERS JOB PRIORITY.
000078:                                                                                                  #       4.  ALL ROUTINES NOT ENDING IN R BRANCH DIRECTLY TO MAKEPLAY WHICH MAKES THESE DISPLAYS A PART OF THE
000079:                                                                                                  #           USERS JOB.
000080:                                                                                                  #       5.  ALL DISPLAY ROUTINES ARE CALLED VIA BANKCALL.
000081:                                                                                                  #       6.  TO RESTART A DISPLAY THE USER WILL GENERALLY USE A PHASE OF ONE WITH DESIRED RESTART GROUP (SEE
000082:                                                                                                  #           DESCRIPTION OF RESTARTS).
000083:                                                                                                  #       7.  ALL FLASHING DISPLAYS HAVE 3 RETURNS TO THE USER FROM ASTRONAUT RESPONSES.  A TERMINATE (V34) BRANCHES
000084:                                                                                                  #           TO THE USERS CALL CADR +1.  A PROCEED (V33) BRANCHES TO THE USERS CALL CADR +2.  AN ENTER OR RECYCLE
000085:                                                                                                  #           (V32) BRANCHES TO THE USERS CALL CADR +3.
000086:                                                                                                  #       8.  ALL ROUTINES MUST BE USED UNDER EXECUTIVE CONTROL.
000087:
000088:                                                                                                  #  A DESCRIPTION OF EACH ROUTINE WITH AN EXAMPLE FOLLOWS:
000089:
000090:                                                                                                  #  GODSP IS USED TO DISPLAY A VERB NOUN ARRIVING IN A.  NO RETURN IS MADE TO THE USER.
000091:
000092:                                                                                                  #       1. GODSP IS NOT RESTARTABLE
000093:                                                                                                  #       2. A VERB PASTE WITH GODSP ALWAYS TURNS ON THE FLASH.
000094:                                                                                                  #                                                   CAF    VXXNYY
000095:                                                                                                  #                                                   TC     BANKCALL
000096:                                                                                                  #                                                   CADR   GODSP
000097:
000098:                                                                                                  #                                          VXXNYY   OCT    0XXYY
000099:                                                                                                  #  GODSPR IS THE SAME AS GODSP ONLY RETURN IS TO THE USER.
000100:
000101:                                                                                                  #                                                   CAF    VXXNYY
000102:                                                                                                  #                                                   TC     BANKCALL
000103:                                                                                                  #                                                   CADR   GODSPR
000104:
000105:                                                                                                  #                                                   ...    ...             IMMEDIATE RETURN OF GODSPR
000106:
000107:                                                                                                  #  GOFLASH DISPLAYS A FLASHING VERB NOUN WITH NO IMMEDIATE RETURN TO THE USER. 3 RETURNS ARE POSSIBLE FROM
000108:                                                                                                  #  THE ASTRONAUT (SEE NO. 7 ABOVE).
000109:
000110:                                                                                                  #                                                   CAF    VXXNYY          VXX NYY WILL BE A FLASHING VERB NOUN.
000111:                                                                                                  #                                                   TC     BANKCALL
000112:                                                                                                  #                                                   CADR   GOFLASH
000113:                                                                                                  #                                                   ...    ...             TERMINATE RETURN
000114:                                                                                                  #                                                   ...    ...             PROCEED RETURN
000115:                                                                                                  #                                                   ...    ...             ENTER OR RECYCLE RETURN
000116:                                                                                                  #  GOPERF1 IS ENTERED WITH DESIRED CHECKLIST VALUE IN A.  GOPERF1 WILL DISPLAY THIS VALUE IN R1 BY MEANS OF A


000118:                                                                                                  #  V01 N25.A FLASHING PLEASE PERFORM ON CHECKLIST ( V50 N25) IS THEN DISPLAYED.  NO IMMEDIATE RETURN IS MADE TO
000119:                                                                                                  #  USER (SEE NO. 7 ABOVE).
000120:
000121:                                                                                                  #  GOPERF1 BLANKS REGISTERS R2 AND R3
000122:
000123:                                                                                                  #                                                   CAF    OCTXX           CODE FOR CHECKLIST VALUE XX
000124:                                                                                                  #                                                   TC     BANKCALL
000125:                                                                                                  #                                                   CADR   GOPERF1
000126:                                                                                                  #                                                   ...    ...             TERMINATE RETURN
000127:                                                                                                  #                                                   ...    ...             PROCEED RETURN
000128:                                                                                                  #                                                   ...    ...             ENTER RETURN
000129:
000130:                                                                                                  #  GOPERF2 IS ENTERED WITH A VARIABLE NOUN AND V01 ( V00 FOR N10 OR N11) IN A.  GOPERF2 WILL FIRST DISPLAY THE
000131:                                                                                                  #  REQUESTED NOUN BY MEANS OF A V01NYY OR A V00NYY. PLEASE PERFORM ON NOUN (V50 NYY) THEN BECOMES A FLASHING
000132:                                                                                                  #  DISPLAY.  NO IMMEDIATE RETURN IS MADE TO THE USER (SEE NO. 7 ABOVE).
000133:
000134:                                                                                                  #  GOPERF2 DOES NOT BLANK ANY REGISTERS
000135:
000136:                                                                                                  #                                                   CAF    VXXNYY          VARIABLE NOUN YY. XX=00 OR 01.
000137:                                                                                                  #                                                   TC     BANKCALL
000138:                                                                                                  #                                                   CADR   GOPERF2
000139:                                                                                                  #                                                   ...    ...             TERMINATE RETURN
000140:                                                                                                  #                                                   ...    ...             PROCEED RETURN
000141:                                                                                                  #                                                   ...    ...             ENTER RETURN
000142:
000143:                                                                                                  #  GOPERF3 IS USED FOR A PLEASE PERFORM ON A PROGRAM NUMBER.  THE DESIRED PROGRAM NO. IS ENTERED IN A.  GOPERF3
000144:                                                                                                  #  DISPLAYS THE NO. BY MEANS OF A V06 N07 FOLLOWED BY A FLASHING V50 N07 FOR A PLEASE PERFORM. NO IMMEDIATE RETURN
000145:                                                                                                  #  IS MADE TO THE USER (SEE NO. 7 ABOVE).
000146:
000147:                                                                                                  #  GOPERF3 BLANKS REGISTERS R2 AND R3
000148:
000149:                                                                                                  #                                                   CAF    DECXX           REQUEST PERFORM ON PXX
000150:                                                                                                  #                                                   TC     BANKCALL
000151:                                                                                                  #                                                   CADR   GOPERF3
000152:                                                                                                  #                                                   ...    ...             TERMINATE RETURN
000153:                                                                                                  #                                                   ...    ...             PROCEED RETURN
000154:                                                                                                  #                                                   ...    ...             ENTER RETURN
000155:
000156:                                                                                                  #  GOPERF4 IS USED FOR A PLEASE PERFORM ON AN OPTION. THE DESIRED OPTION ISENTERED IN A AND STORED IN OPTION1.
000157:                                                                                                  #  GOPERF4 DISPLAYS R1 AND R2 BY MEANS OF A V04N06 FOLLOWED BY A FLASHING  V50N06 FOR A PLEASE PERFORM. NO
000158:                                                                                                  #  IMMEDIATE RETURN IS MADE TO THE USER (SEE NO. 7 ABOVE).
000159:
000160:                                                                                                  #                                                   CAF    OCTXX           REQUEST PERFORM ON OPTION XX
000161:                                                                                                  #                                                   TC     BANKCALL
000162:                                                                                                  #                                                   CADR   GOPERF4
000163:                                                                                                  #                                                   ...    ...             TERMINATE RETURN
000164:                                                                                                  #                                                   ...    ...             PROCEED RETURN
000165:                                                                                                  #                                                   ...    ...             ENTER RETURN
000166:                                                                                                  #  GOPERF4 BLANKS REGISTER R3
000167:


000169:                                                                                                  #  GODSPRET IS USED TO DISPLAY A VERB NOUN ARRIVING IN A WITH A RETURN TO THE USER AFTER THE DISPLAY HAS BEEN SENT
000170:                                                                                                  #  OUT.
000171:
000172:                                                                                                  #                                                   CAF    VXXNYY
000173:                                                                                                  #                                                   TC     BANKCALL
000174:                                                                                                  #                                                   CADR   GODSPRET
000175:                                                                                                  #                                                   ...    ...             RETURN TO USER
000176:
000177:                                                                                                  #  REGODSP IS USED TO DISPLAY A VERB NOUN ARRIVING IN A.  REGODSP IS THE SAME AS GODSP ONLY REGODSP REPLACES ANY
000178:                                                                                                  #  ACTIVE NORMAL DISPLAY IF ONE WAS ACTIVE.
000179:
000180:                                                                                                  #                                                   CAF    VXXNYY
000181:                                                                                                  #                                                   TC     BANKCALL
000182:                                                                                                  #                                                   CADR   REGODSP
000183:
000184:                                                                                                  #  REFLASH IS THE SAME AS GOFLASH ONLY REFLASH REPLACES ANY ACTIVE NORMAL DISPLAY IF ONE WAS ACTIVE.
000185:
000186:                                                                                                  #                                                   CAF    VXXNYY          VXX NYY WILL BE A FLASHING VERB NOUN
000187:                                                                                                  #                                                   TC     BANKCALL
000188:                                                                                                  #                                                   CADR   REFLASH
000189:                                                                                                  #                                                   ...    ...             TERMINATE RETURN
000190:                                                                                                  #                                                   ...    ...             PROCEED RETURN
000191:                                                                                                  #                                                   ...    ...             ENTER RETURN
000192:
000193:                                                                                                  #  GOFLASHR IS SAME AS GOFLASH ONLY AN IMMEDIATE RETURN IS MADE TO THE USERS CALL CADR +4.
000194:
000195:                                                                                                  #                                                   CAF    VXXNYY
000196:                                                                                                  #                                                   TC     BANKCALL
000197:                                                                                                  #                                                   CADR   GOFLASHR
000198:                                                                                                  #                                                   ...    ...             TERMINATE RETURN
000199:                                                                                                  #                                                   ...    ...             PROCEED RETURN
000200:                                                                                                  #                                                   ...    ...             ENTER OR RECYCLE RETURN
000201:
000202:                                                                                                  #                                                   ...    ...             IMMEDIATE RETURN FROM GOFLASHR
000203:
000204:                                                                                                  #  GOPERF1R IS THE SAME AS GOPERF1 ONLY GOPERF1R HAS AN IMMEDIATE RETURN TOUSERS CALL CADR +4.
000205:
000206:                                                                                                  #  GOPERF1R BLANKS REGISTERS R2 AND R3
000207:
000208:                                                                                                  #                                                   CAF    OCTXX           CODE FOR CHECKLIST VALUE XX.
000209:                                                                                                  #                                                   TC     BANKCALL
000210:                                                                                                  #                                                   CADR   GOPERF1R
000211:                                                                                                  #                                                   ...    ...             TERMINATE RETURN
000212:                                                                                                  #                                                   ...    ...             PROCEED RETURN
000213:                                                                                                  #                                                   ...    ...             ENTER RETURN
000214:
000215:                                                                                                  #                                                   ...    ...             IMMEDIATE RETURN FROM GOPERF1R
000216:
000217:                                                                                                  #  GOPERF2R IS THE SAME AS GOPERF2 ONLY AN IMMEDIATE RETURN IS MADE TO USERS CALL CADR +4.
000218:


000220:                                                                                                  #  GOPERF2R DOES NOT BLANK ANY REGISTERS
000221:
000222:                                                                                                  #                                                   CAF    VXXNYY          VARIABLE NOUN YY REQUESTED.  XX=00 OR 01
000223:                                                                                                  #                                                   TC     BANKCALL
000224:                                                                                                  #                                                   CADR   GOPERF2R
000225:                                                                                                  #                                                   ...    ...             TERMINATE RETURN
000226:                                                                                                  #                                                   ...    ...             PROCEED RETURN
000227:                                                                                                  #                                                   ...    ...             ENTER RETURN
000228:
000229:                                                                                                  #                                                   ...    ...             IMMEDIATE RETURN HERE FROM GOPERF2R
000230:
000231:                                                                                                  #  GOPERF3R IS THE SAME AS GOPERF3 ONLY AN IMMEDIATE RETURN IS MADE TO USERS CALL CADR +4.
000232:
000233:                                                                                                  #  GOPERF3R BLANKS REGISTERS R2 AND R3
000234:
000235:                                                                                                  #                                                   CAF    PROGXX          PERFORM PROGRAM XX
000236:                                                                                                  #                                                   TC     BANKCALL
000237:                                                                                                  #                                                   CADR   GOPERF3R
000238:                                                                                                  #                                                   ...    ...             TERMINATE RETURN
000239:                                                                                                  #                                                   ...    ...             PROCEED RETURN
000240:                                                                                                  #                                                   ...    ...             ENTER RETURN
000241:
000242:                                                                                                  #                                                   ...    ...             GOPERF3R IMMEDIATELY RETURNS HERE
000243:
000244:                                                                                                  #  GOPERF4R IS THE SAME AS GOPERF4 ONLY AN IMMEDIATE RETURN IS MADE TO USERS CALL CADR +4.
000245:
000246:                                                                                                  #                                                   CAF    OCTXX           REQUEST PERFORM ON OPTIONXX
000247:                                                                                                  #                                                   TC     BANKCALL
000248:                                                                                                  #                                                   CADR   GOPERF4R
000249:                                                                                                  #                                                   ...    ...             TERMINATE RETURN
000250:                                                                                                  #                                                   ...    ...             PROCEED RETURN
000251:                                                                                                  #                                                   ...    ...             ENTER RETURN
000252:
000253:                                                                                                  #                                                   ...    ...             IMMEDIATE RETURN TO USER
000254:
000255:                                                                                                  #  GOPERF4R BLANKS REGISTER R3
000256:
000257:                                                                                                  #  REFLASHR IS THE SAME AS REFLASH ONLY AN IMMEDIATE RETURN IS MADE TO THE USERS CALL CADR +4.
000258:
000259:                                                                                                  #                                                   CAF    VXXNYY          VXX NYY WILL BE A FLASHING VERB NOUN
000260:                                                                                                  #                                                   TC     BANKCALL
000261:                                                                                                  #                                                   CADR   REFLASHR
000262:                                                                                                  #                                                   ...    ...             TERMINATE RETURN
000263:                                                                                                  #                                                   ...    ...             PROCEED RETURN
000264:                                                                                                  #                                                   ...    ...             ENTER RETURN
000265:
000266:                                                                                                  #                                                   ...    ...             IMMEDIATE RETURN TO USER
000267:
000268:                                                                                                  #  REGODSPR IS THE SAME AS REGODSP ONLY A RETURN (IMMEDIATE) IS MADE TO THE USER.
000269:


000271:                                                                                                  #                                                   CAF    VXXNYY
000272:                                                                                                  #                                                   TC     BANKCALL
000273:                                                                                                  #                                                   CADR   REGODSPR
000274:
000275:                                                                                                  #                                                   ...    ...             IMMEDIATE RETURN TO USER
000276:


000278:                                                                                                  #  GOMARK IS USED TO DISPLAY A MARK VERB NOUN ARRIVING IN A. NO RETURN IS MADE TO THE USER.
000279:
000280:                                                                                                  #  GOXDSP = GOMARK
000281:
000282:                                                                                                  #                                                   CAF    VXXNYY          VXXNYY CONTAINS VERB AND NOUN
000283:                                                                                                  #                                                   TC     BANKCALL
000284:                                                                                                  #                                                   CADR   GOMARK          OTHER EXTENDED VERBS USE CADR GOXDSP
000285:
000286:                                                                                                  #  GOMARKR IS THE SAME AS GOMARK ONLY RETURN IS TO THE USER.
000287:
000288:                                                                                                  #  GOXDSPR = GOMARKR
000289:
000290:                                                                                                  #                                                   CAF    VXXNYY
000291:                                                                                                  #                                                   TC     BANKCALL
000292:                                                                                                  #                                                   CADR   GOMARKR         OTHER EXTENDED VERBS USE CADR GOXDSPR
000293:
000294:                                                                                                  #                                                   ...    ...             IMMEDIATE RETURN OF GOMARKR
000295:
000296:                                                                                                  #  GOMARKF DISPLAYS A FLASHING MARK VERB NOUN WITH NO IMMEDIATE RETURN TO THE USER. 3 RETURNS ARE POSSIBLE FROM
000297:                                                                                                  #  THE ASTRONAUT (SEE NO. 7 ABOVE ).
000298:
000299:                                                                                                  #  GOXDSPF = GOMARKF
000300:
000301:                                                                                                  #                                                   CAF    VXXNYY          VXXNYY WILL BE A FLASHING MARK VERB NOUN
000302:                                                                                                  #                                                   TC     BANKCALL
000303:                                                                                                  #                                                   CADR   GOMARKF         OTHER EXTENDED VERBS USE CADR GOXDSPF
000304:                                                                                                  #                                                   ...    ...             TERMINATE RETURN
000305:                                                                                                  #                                                   ...    ...             PROCEED RETURN
000306:                                                                                                  #                                                   ...    ...             ENTER OR RECYCLE RETURN
000307:
000308:                                                                                                  #  GOMARKFR IS THE SAME AS GOMARKF ONLY AN IMMEDIATE RETURN IS MADE TO THE USER CALL CADR +4.
000309:
000310:                                                                                                  #  GOXDSPFR = GOMARKFR
000311:
000312:                                                                                                  #                                                   CAF    VXXNYY          FLASHING MARK VERB NOUN
000313:                                                                                                  #                                                   TC     BANKCALL
000314:                                                                                                  #                                                   CADR   GOMARKFR        OTHER EXTENDED VERBS USE CADR GOXDSPFR
000315:                                                                                                  #                                                   ...    ...             TERMINATE RETURN
000316:                                                                                                  #                                                   ...    ...             PROCEED RETURN
000317:                                                                                                  #                                                   ...    ...             ENTER OR RECYCLE RETURN
000318:
000319:                                                                                                  #                                                   ...    ...             IMMEDIATE RETURN TO THE USER
000320:
000321:                                                                                                  #  GOMARK1 IS USED FOR A PLEASE PERFORM ON A MARK REQUEST WITH ONLY 1 ASTRONAUT RETURN TO THE USER. NO IMMEDIATE
000322:                                                                                                  #  RETURN IS MADE. THE DESIRED MARK PLEASE PERFORM VERB AND DESIRED NOUN ISENTERED IN A. GOMARK1 DISPLAYS R1, R2, R
000323:                                                                                                  #  MEANS OF A V05NYY FOLLOWED BY A FLASHING V5XNYY FOR A PLEASE PERFORM. THE ASTRONAUT WILL RESPOND WITH A MARK
000324:                                                                                                  #  OR MARK REJECT OR AN ENTER. THE ENTER IS THE ONLY ASTRONAUT RESPONSE THAT WILL COME BACK TO THE USER.
000325:
000326:                                                                                                  #                                                   CAF    V5XNYY          X=1,2,3,4   Y= NOUN
000327:                                                                                                  #                                                   TC     BANKCALL


000329:                                                                                                  #                                                   CADR   GOMARK1
000330:
000331:                                                                                                  #                                                   ...    ...             ENTER RETURN
000332:
000333:                                                                                                  #  *** IF BLANKING DESIRED ON NON R ROUTINES, NOTIFY DISPLAYER.
000334:
000335:
000336:                                                                                                  #  GOMARK1R IS THE SAME AS A GOMARK1 ONLY AN IMMEDIATE RETURN IS MADE TO THE USERS CALL CADR +2.
000337:                                                                                                  #                                                   CAF    V5XNYY          X=1,2,3,4    YY = NOUN
000338:                                                                                                  #                                                   TC     BANKCALL
000339:                                                                                                  #                                                   CADR   GOMARK1R
000340:
000341:                                                                                                  #                                                   ...    ...             ASTRONAUT ENTER RETURN
000342:                                                                                                  #                                                   ...    ...             IMMEDIATE RETURN TO USER
000343:
000344:                                                                                                  #  GOMARK2 IS THE SAME AS GOMARK1 ONLY 3 RETURNS ARE MADE TO THE USER FROM THE ASTRONAUT.
000345:                                                                                                  #                                                   CAF    V5XNYY          X=1,2,3,4   YY=NOUN
000346:                                                                                                  #                                                   TC     BANKCALL
000347:                                                                                                  #                                                   CADR   GOMARK2
000348:                                                                                                  #                                                   ...    ...             TERMINATE RETURN
000349:                                                                                                  #                                                   ...    ...             PROCEED RETURN
000350:                                                                                                  #                                                   ...    ...             ENTER RETURN
000351:                                                                                                  #  GOMARK2R IS THE SAME AS GOMARK1R ONLY 3 ASTRONAUT RETURNS ARE MADE TO THE USER.
000352:
000353:                                                                                                  #                                                   CAF    V5XNYY          X=0,1,2,3,4   YY=NOUN
000354:                                                                                                  #                                                   TC     BANKCALL
000355:                                                                                                  #                                                   CADR   GOMARK2R
000356:                                                                                                  #                                                   ...    ...             TERMINATE RETURN
000357:                                                                                                  #                                                   ...    ...             PROCEED RETURN
000358:                                                                                                  #                                                   ...    ...             ENTER RETURN
000359:
000360:                                                                                                  #                                                   ...    ...             IMMEDIATE RETURN TO THE USER
000361:
000362:                                                                                                  #  GOMARK3 IS USED FOR A PLEASE PERFORM ON A MARK REQUEST WITH A 3 COMP. DEC DISPLAY. THE DESIRED MARK PLEASE
000363:                                                                                                  #  PERFORM VERB AND NOUN ARE ENTERED IN A. GOMARK3 DISPLAYS R1, R2, R3 BY MEANS OF A V06NYY FOLLOWED BY A FLASHING
000364:                                                                                                  #  V5XNYY FOR A PLEASE PERFORM. GOMARK3 HAS 3 ASTRONAUT RETURNS TO THE USER WITH NO IMMEDIATE RETURN.
000365:
000366:                                                                                                  #                                                   CAF    V5XNYY          X=1, 2,3,4 YY=NOUN
000367:                                                                                                  #                                                   TC     BANKCALL
000368:                                                                                                  #                                                   CADR   GOMARK3
000369:                                                                                                  #                                                   ...    ...             TERMINATE RETURN
000370:                                                                                                  #                                                   ...    ...             PROCEED RETURN
000371:                                                                                                  #                                                   ...    ...             ENTER RETURN
000372:
000373:                                                                                                  #  GOMARK4 IS THE SAME AS GOMARK3 ONLY R2 AND R3 ARE BLANKED AND R1 IS DISPLAYED IN OCTAL.
000374:
000375:                                                                                                  #                                                   CAF    V5XNYY          X=1,2,3,4 YY=NOUN
000376:                                                                                                  #                                                   TC     BANKCALL
000377:                                                                                                  #                                                   CADR   GOMARK4
000378:                                                                                                  #                                                   ...    ...             TERMINATE RETURN
000379:                                                                                                  #                                                   ...    ...             PROCEED RETURN


000381:                                                                                                  #                                                   ...    ...             ENTER RETURN
000382:
000383:                                                                                                  #  EXDSPRET IS USED TO DISPLAY A VERB NOUN ARRIVING IN A WITH A RETURN MADE TO THE USER AFTER THE DISPLAY HAS BEEN
000384:                                                                                                  #  SENT OUT.
000385:
000386:                                                                                                  #                                                   CAF    VXXNYY
000387:                                                                                                  #                                                   TC     BANKCALL
000388:                                                                                                  #                                                   CADR   EXDSPRET
000389:
000390:                                                                                                  #                                                   ...    ...             RETURN TO USER
000391:
000392:                                                                                                  #  KLEENEX CLEANS OUT ALL MARK DISPLAYS (ACTIVE AND INACTIVE). A RETURN IS MADE TO THE USER AFTER THE MARK DISPLAYS
000393:                                                                                                  #  HAVE BEEN CLEANED OUT.
000394:
000395:                                                                                                  #                                                   TC     BANKCALL
000396:                                                                                                  #                                                   CADR   KLEENEX
000397:
000398:                                                                                                  #                                                   ...    ...             RETURN TO USER
000399:
000400:                                                                                                  #  MARKBRAN IS A SPECIAL PURPOSE ROUTINE USED FOR SAVING JOB VAC AREAS (SEE DESCRIPTION OF MARKBRAN BELOW).
000401:
000402:                                                                                                  #                                                   TC     BANKCALL
000403:                                                                                                  #                                                   CADR   MARKBRAN
000404:
000405:                                                                                                  #                                                   ...    ...             BAD RETURN IF MARK DISPLAY NOT ACTIVE
000406:
000407:                                                                                                  #                                                                          (GOOD RETURN TO IMMEDIATE RETURN LOC OF
000408:                                                                                                  #                                                                          LAST FLASHING MARK R ROUTINE)
000409:
000410:                                                                                                  #  PINBRNCH REESTABLISHES THE LAST ACTIVE FLASHING DISPLAY. IF THERE IS NO ACTIVE FLASHING DISPLAY, THE DSKY IS
000411:                                                                                                  #  BLANKED AND CONTROL IS SENT TO ENDOFJOB.
000412:
000413:                                                                                                  #                                                   TC     POSTJUMP
000414:                                                                                                  #                                                   CADR   PINBRNCH
000415:
000416:                                                                                                  #  PRIODSP IS USED AS A PRIORITY DISPLAY.  IT WILL DISPLAY A GOFLASH TYPE DISPLAY WITH THREE POSSIBLE RETURNS FROM
000417:                                                                                                  #  THE ASTRONAUT(SEE NO.7 ABOVE).
000418:
000419:                                                                                                  #       THE MAIN PURPOSE OF PRIODSP IS TO REPLACE THE PRESENT DISPLAY WITH A DISPLAY OF HIGHER PRIORITY AND TO
000420:                                                                                                  #  PROVIDE A MEANS FOR RESTORING THE OLD DISPLAY WHEN THE PRIORITY DISPLAY
000421:                                                                                                  #  IS RESPONDED TO BY THE ASTRONAUT.
000422:
000423:                                                                                                  #       THE FORMER DISPLAY IS RESTORED BY AN AUTOMATIC BRANCH TO WAKE UP THE DISPLAY THAT WAS INTERRUPTED BY THE
000424:                                                                                                  #  PRIO DISPLAY.
000425:
000426:                                                                                                  #                                                   CAF    VXXNYY          VXXNYY WILL BE A FLASHING VERB NOUN
000427:                                                                                                  #                                                   TC     BANKCALL
000428:                                                                                                  #                                                   CADR   PRIODSP
000429:                                                                                                  #                                                   ...    ...             TERMINATE RETURN
000430:                                                                                                  #                                                   ...    ...             PROCEED RETURN


000432:                                                                                                  #                                                   ...    ...             ENTER OR RECYCLE RETURN
000433:
000434:                                                                                                  #  PRIODSPR IS THE SAME AS PRIODSPONLY AN IMMEDIATE RETURN IS MADE TO THE  USERS CALL CADR +4.
000435:
000436:                                                                                                  #                                                   CAF    VXXNYY          VXXNYY WILL BE A FLASHING VERB NOUN
000437:                                                                                                  #                                                   TC     BANKCALL
000438:                                                                                                  #                                                   CADR   PRIODSPR
000439:                                                                                                  #                                                   ...    ...             TERMINATE RETURN
000440:                                                                                                  #                                                   ...    ...             PROCEED RETURN
000441:                                                                                                  #                                                   ...    ...             ENTER OR RECYCLE RETURN
000442:
000443:                                                                                                  #                                                   ...    ...             IMMEDIATE RETURN
000444:
000445:                                                                                                  #  PRIOLARM DOES A V05N09 PRIODSPR.
000446:                                                                                                  #  CLEANDSP CLEANS OUT ALL NORMAL DISPLAYS (ACTIVE AND INACTIVE). A RETURN IS MADE TO THE USER AFTER NORMAL
000447:                                                                                                  #  DISPLAYS ARE CLEANED OUT.
000448:
000449:                                                                                                  #                                                   TC      BANKCALL
000450:                                                                                                  #                                                   CADR    CLEANDSP
000451:
000452:                                                                                                  #                                                   ...     ...             RETURN TO USER
000453:


000455:                                                                                                  #  GENERAL INFORMATION
000456:                                                                                                  #  ------- -----------
000457:
000458:
000459:                                                                                                  #  ALARM OR ABORT EXIT MODES--
000460:                                                                                                  #                                          PRIOBORT TC     ABORT
000461:                                                                                                  #                                                   OCT    1502
000462:
000463:                                                                                                  #  PRIOBORT IS BRANCED TO WHEN (1)  A NORMAL DISPLAY IS REQUESTED AND  ANOTHER NORMAL DISPLAY IS ALREADY ACTIVE
000464:                                                                                                  #  (REFLASH AND REGODSP ARE EXCEPTIONS) OR (2) A PRIORITY DISPLAY IS REQUESTED WHEN ANOTHER PRIORITY DISPLAY IS
000465:                                                                                                  #  ALREADY ACTIVE (A PRIORITY WITH LINUS BIT14 IS AN EXCEPTION).
000466:
000467:
000468:                                                                                                  #  ERASABLE INITIALIZATION REQUIRED--
000469:
000470:                                                                                                  #       ACCOMPLISHED BY FRESH START- 1. FLAGWRD4 (USED EXCLUSIVELY BY DISPLAY INTERFACE ROUTINES)
000471:                                                                                                  #                                    2. NVSAVE = NORMAL VERB AND NOUN      REGISTER.
000472:                                                                                                  #                                    3. EBANKTEM = NORMAL INACTIVE FLAGWORD(ALSO CONTAINS NORMALS EBANK).
000473:
000474:
000475:                                                                                                  #                                    5. R1SAVE = MARKBRAN CONTROL WORD
000476:                                                                                                  #                                    4. RESTREG = PRIORITY 30 AND SUPERBANK 3.
000477:                                                                                                  #  OUTPUT--
000478:
000479:                                                                                                  #       NVWORD = PRIO VERB AND NOUN
000480:                                                                                                  #       NVWORD +1(MARKNV) = MARK VERB AND NOUN
000481:                                                                                                  #       NVWORD +2(NVSAVE) = NORMAL VERB AND NOUN
000482:
000483:                                                                                                  #       DSPFLG(EBANKSAV) = PRIO FLAGWORD (INCLUDING EBANK)
000484:                                                                                                  #       DSPFLG +1(MARKEBAN) = MARK FLAGWORD (INCLUDING EBANK)
000485:                                                                                                  #       DSPFLG +2(EBANKTEM) = NORMAL FLAGWORD (INCLUDIG EBANK)
000486:
000487:                                                                                                  #       CADRFLSH = PRIO USERS CALL CADR +1 LOCATION
000488:                                                                                                  #       CADRFLSH +1(MARKFLSH) = MARK USERS CALL CADR +1 LOCATION
000489:                                                                                                  #       CADRFLSH +2(TEMPFLSH) = NORMAL USERS CALL CADR +1 LOCATION
000490:
000491:                                                                                                  #       PRIOTIME = TIME EACH PRIO REQUEST FIRST SENT OUT
000492:                                                                                                  #       OPTION1 = DESIRED OPTION FROM GOPERF4
000493:                                                                                                  #       FLAGWRD4 = BIT INFO FOR CONTROL OF ALL DISPLAY ROUTINES
000494:                                                                                                  #       DSPTEM1 = R1 INFO FOR ASTRONAUT FROM PERFORM DISPLAYS(NORMAL)
000495:                                                                                                  #  SUBROUTINES USED-- NVSUB, FLAGUP, FLAGDOWN, ENDOFJOB, BLANKSUB, ABORT, JOBWAKE, JOBSLEEP, FINDVAC, PRIOCHNG,
000496:                                                                                                  #  JAMTERM, NVSUBUSY, FLASHON, ENDIDLE, CHANG1, BANKJUMP, MAKECADR, NOVAC,
000497:                                                                                                  #  DEBRIS-- (STORED INTO)
000498:
000499:                                                                                                  #       TEMPORARY TEMPORARIES- A, Q, L, MPAC +2, MPAC +3, MPAC +4, MPAC +5, MPAC +6, RUPTREG2, RUPTREG3, CYL,
000500:                                                                                                  #  EBANK, RUPTREG4, LOC, BANKSET, MODE, MPAC, MPAC +1                      4, FACEREG
000501:                                                                                                  #       ERASABES(SHARED AND USED WITH OTHER PROGRAMS) CADRSTOR, DSPLIST, LOC, DSPTEM1, OPTION1
000502:
000503:                                                                                                  #       ERASABLES(USED ONLY BY DISPLAY ROUTINES)- NVWORD,+1,+2, DSPFLG,+1,+2, CADRFLSH,+1,+2, PRIOTIME, FLAGWRD4,


000505:                                                                                                  #  R1SAVE, MARK2PAC,
000506:
000507:
000508:                                                                                                  #  DEBRIS-- (USED BUT NOT STORED INTO)- NOUNREG, VERBREG, LOCCTR, MONSAVE1
000509:                                                                                                  #  FLAGWORD DESCRIPTIONS--
000510:                                                                                                  #      FLAGWRD4- SEE DESCRIPTION UNDER LOG SECTION ERASABLE ASSIGNMENTS
000511:
000512:                                                                                                  #      DSPFLG, DSPFLG+1, DSPFLG +2-
000513:                                                                                                  #      ----------------------------
000514:                                                                                                  #  BITS 1 BLANK R1
000515:                                                                                                  #       2 BLANK R2
000516:                                                                                                  #       3 BLANK R3
000517:                                                                                                  #       4 FLASHING DISPLAY REQUESTED
000518:                                                                                                  #       5 PERFORM DISPLAY REQUESTED
000519:                                                                                                  #       6 -----            EXDSPRET           GODSPRET
000520:                                                                                                  #       7 PRIO DISPLAY     -----               -----
000521:                                                                                                  #       8 -----         DEC MARK PERFORM      -----
000522:                                                                                                  #       9 EBANK
000523:                                                                                                  #      10 EBANK
000524:                                                                                                  #      11 EBANK
000525:                                                                                                  #      12 -----           -----       V99PASTE
000526:                                                                                                  #      13 2ND PART OF PERFORM
000527:                                                                                                  #      14 REFLASH OR REDO  -----           REFLASH OR REDO
000528:                                                                                                  #      15 -----          MARK REQUEST          -----
000529:                                                                                                  #  RESTARTING DISPLAYS--
000530:
000531:                                                                                                  #  RULES FOR THE DSKY OPERATOR--
000532:
000533:                                                                                                  #       1. PROCEED AND TERMINATE SERVE AS RESPONSES TO REQUESTS FOR OPERATOR RESPONSE (FLASHING V/N).  AS LONG
000534:                                                                                                  #          AS THERE IS ANY REQUEST AWAITING OPERATOR RESPONSE, ANY USE OF PROCEED OR TERMINATE WILL SERVE AS
000535:                                                                                                  #          RESPONSES TO THAT REQUEST.  CARE SHOULD BE EXERCISED IN ATTEMPTING TO KILL AN OPERATOR INITIATED MONITOR
000536:                                                                                                  #          WITH PROCEED AND TERMINATE FOR THIS REASON.
000537:                                                                                                  #       2. THE ASTRONAUT MUST RESPOND TO A PRIORITY DISPLAY NO             SOONER THAN 2 SECONDS FROM THE TIME THE
000538:                                                                                                  #          PROGRAM SENT OUT THE REQUEST FOR OPERATOR RESPONSE (THE ASTRONAUT WOULD SEE THIS DISPLAY FOR LESS TIME
000539:                                                                                                  #          DUE TO TIME IT TAKES TO GET DISPLAY SENT OUT.) IF THE ASTRONAUT RESPONDS TOO SOON, THE PRIORITY DISPLAY
000540:                                                                                                  #           IS SENT OUT AGAIN -- AND AGAIN UNTIL AN ACCUMULATED 2 SECS     FROM THE TIME THE FIRST PRIORITY DISPLAY
000541:                                                                                                  #          OUT. THE SAME 2 SEC. DELAY WILL OCCUR AT 163.84 SECS OR IN ANY  MULTIPLE OF THAT TIME DUE TO PROGRAM
000542:                                                                                                  #          CONSIDERATION.
000543:                                                                                                  #       3. KEY RELEASE BUTTON-
000544:                                                                                                  #          A) IF THE KEY RELEASE LIGHT IS ON, IT SIMPLY RELEASES THE KEYBOARD AND DISPLAY FOR INTERNAL USE.
000545:                                                                                                  #          B) IF THE KEY RELEASE LIGHT IS OFF, AND IF SOME REQUEST FOR OPERATOR RESPONSE (FLASHING V/N) IS STILL
000546:                                                                                                  #             AWAITING RESPONSE  THEN IT RE-ESTABLISHES THE DISPLAYS THAT ORIGINALLY REQUESTED RESPONSE.
000547:                                                                                                  #          IF AN OPERATOR WANTS THEREFORE TO RE-ESTABLISH BUT CONDITION (A) IS ENCOUNTERED, A SECOND DEPRESSION OF
000548:                                                                                                  #          KEY RELEASE BUTTON MAY BE NECESSARY.
000549:                                                                                                  #       4. IT IS IMPORTANT TO ANSWER ALL REQUESTS FOR OPERATOR RESPONSE.
000550:                                                                                                  #       5. IT IS ALWAYS GOOD PRACTICE TO TERMINATE AN EXTENDED VERB BEFORE ASKING FOR ANOTHER ONE OR THE SAME ONE
000551:                                                                                                  #          OVER AGAIN.
000552:
000553:
000554:                                                                                                  #  SPECIAL CONSIDERATIONS--
000555:


000557:                                                                                                  #       1. MPAC +2  SAVED ONLY IN MARK DISPLAYS
000558:                                                                                                  #       2. GODSP(R),REGODSP(R),GOMARK(R) ALWAYS TURN ON THE FLASH IF ENTERED WITH A PASTE VERB REQUEST.
000559:                                                                                                  #       3. ALL NORMAL DISPLAYS ARE RESTARTABLE EXCEPT GODSP(R), REGODSP(R)
000560:                                                                                                  #       4. ALL EXTENDED VERBS WITH DISPLAYS SHOULD START WITH A TC TESTXACT AND FINISH WITH A TC ENDEXT.
000561:                                                                                                  #       5. GODSP(R) AND REGODSP(R) MUST BE IN THE SAME EBANK AND SUPERBANK AS THE LAST NORMAL DISPLAY RESTARTED
000562:                                                                                                  #          BY A .1 RESTART PHASE CHANGE.
000563:                                                                                                  #       6. IN ORDER TO SET UP A NON DISPLAY .1 RESTART POINT, THE USER MUST MAKE CERTAIN THAT RESTREG CONTAINS THE
000564:                                                                                                  #          CORRECT PRIORITY AND SUPERBANK AND THAT EBANKTEM CONTAINS THE CO
000565:                                                                                                  #       7. IF CLEANDSP IS RESTARTED VIA A .1 PHASE CHANGE, CAF ZERO SHOULD BE EXECUTED  BEFORE THE TC BANKCALL.
000566:


000568:                                                                                                  #  CALLING SEQUENCE FOR BLANKING
000569:                                                                                                  #                                                   CAF    BITX            X=1,2,3 BLANK R1,R2,R3 RESPECTIVELY
000570:                                                                                                  #                                                   TC     BLANKET
000571:                                                                                                  #                                                   ...    ...             RETURN TO USER HERE
000572:
000573:                                                                                                  #  IN ORDER TO USE BLANKET CORRECTLY THE USER MUST USE A DISPLAY ROUTINE THAT ENDS IN R FIRST FOLLOWED BY THE CALL
000574:                                                                                                  #  TO BLANKET AT THE IMMEDIATE RETURN LOC.
000575:
000576:    5475                                           BLOCK    02
000577:    4000                                           SETLOC   FFTAG4
000578:    4000                                           BANK
000579:
000580:    5475                                           COUNT*   $$/DSPLA
000581:    5475           54162        BLANKET            TS       MPAC       +6
000582:    5476           40160                           CS       PLAYTEM4
000583:    5477           70162                           MASK     MPAC       +6
000584:    5500           50161                           INDEX    MPAC       +5
000585:    5501           26160                           ADS      PLAYTEM4
000586:
000587:    5502           00002                           TC       Q
000588:
000589:    5503           04635        ENDMARK            TC       POSTJUMP
000590:    5504           20326                           CADR     MARKEND
000591:
000592:    5505           34755        CLEARMRK           CAF      ZERO
000593:    5506           55043                           TS       EXTVBACT
000594:
000595:    5507           00004                 +2        INHINT
000596:    5510           44753                           CS       XDSPBIT
000597:    5511           70100                           MASK     FLAGWRD4
000598:    5512           54100                           TS       FLAGWRD4
000599:
000600:    5513           00003                           RELINT
000601:    5514           00002                           TC       Q
000602:                                                                                                  #  ***ALL EXTENDED VERB ROUTINES THAT HAVE AT LEAST ONE FLASHING DISPLAY MUST TCF ENDMARK OR TCF ENDEXT WHEN
000603:                                                                                                  #  FINISHED.
000604:
000605: 10,2326                                           BANK     10
000606: 10,2000                                           SETLOC   DISPLAYS
000607: 10,2000                                           BANK
000608:
000609: 10,2326                                           COUNT*   $$/DSPLA
000610:                                                                                                  #  NTERONLY IS USED TO DIFFERENTIATE THE MARK ROUTINE WITH ONLY ONE RETURN TO THE USER FROM THE MARKING ROUTINE WIT
000611:                                                                                                  #  3 RETURNS TO THE USER. THIS ROUTINE IS ONLY USED BY GOMARK1 AND GOMARK1R.
000612:
000613: 10,2326           05505        MARKEND            TC       CLEARMRK
000614: 10,2327           13422                           TCF      MARKOVER
000615:
000616: 10,2330           54155        GOMARK             TS       PLAYTEM1                              #  ENTRANCE FOR MARK GODSP


000618: 10,2331           34735        GOMARS             CAF      BIT15                                 #  BIT15 SET FOR ALL MARK REQUESTS
000619: 10,2332           12501                           TCF      GOFLASH2
000620:
000621: 10,2333           34755        KLEENEX            CAF      ZERO                                  #  CLEAN OUT EXTENDED VERBS
000622: 10,2334           54155        GOMARKF            TS       PLAYTEM1                              #  ENTRANCE FOR MARK GOFLASH
000623:
000624: 10,2335           33032                           CAF      MARKFMSK                              #  MARK,FLASH
000625: 10,2336           12501                           TCF      GOFLASH2
000626:
000627: 10,2337           54155        GOMARK2            TS       PLAYTEM1                              #  MARK GOPERFS-3 AST. RETURNS
000628: 10,2340           33521        MARKFORM           CAF      MPERFMSK                              #  MARK, PERFORM, FLASH
000629: 10,2341           12501                           TCF      GOFLASH2
000630:
000631: 10,2342           54155        GOMARK3            TS       PLAYTEM1                              #  USED FOR 3COMP DECIMAL PERFORM
000632: 10,2343           33506                           CAF      MARK3MSK
000633: 10,2344           12501                           TCF      GOFLASH2
000634:
000635: 10,2345           54155        GOMARK4            TS       PLAYTEM1
000636: 10,2346           33507                           CAF      MARK4MSK                              #  MARK,PERFORM,FLASH,BLANK
000637: 10,2347           12501                           TCF      GOFLASH2
000638:
000639: 10,2350           54155        GOMARKR            TS       PLAYTEM1                              #  ENTR+NCE FOR MARK GODSPR
000640:
000641: 10,2351           34735                           CAF      BIT15
000642: 10,2352           12454                           TCF      GODSPR2
000643:
000644: 10,2353           54155        GOMARKFR           TS       PLAYTEM1                              #  ENTRANCE FOR MARK GOFLASHR
000645:
000646: 10,2354           33032                           CAF      MARKFMSK
000647: 10,2355           12640                           TCF      GODSPRS
000648:
000649: 10,2356           54155        GOMARK2R           TS       PLAYTEM1                              #  MARK GOPERFS-3 AST. RETS+ IMMEDIATE RET.
000650: 10,2357           33521                           CAF      MPERFMSK                              #  MARK, PERFORM, FLASH
000651: 10,2360           12640                           TCF      GODSPRS
000652:
000653: 10,2361           65023                 -1        AD       PRIO13
000654: 10,2362           54155        GOMARK3R           TS       PLAYTEM1
000655: 10,2363           33506                           CAF      MARK3MSK
000656: 10,2364           12640                           TCF      GODSPRS
000657:
000658: 10,2365           34753        MAKEMARK           CAF      ONE
000659: 10,2366           02736                           TC       COPIES
000660:
000661: 10,2367           30100                           CA       FLAGWRD4                              #  IS NORM OR PRIO BUSY OR WAITING
000662: 10,2370           73522                           MASK     OCT34300
000663: 10,2371           10000                           CCS      A
000664: 10,2372           12430                           TCF      CHKPRIO
000665:
000666: 10,2373           30100                           CA       FLAGWRD4                              #  IS MARK SLEEPING DUE TO ASTRO BUSY
000667: 10,2374           74743                           MASK     MRKNVBIT


000669: 10,2375           00006                           EXTEND
000670: 10,2376           12400                           BZF      MARKPLAY                              #  NO
000671:
000672: 10,2377           15155                           TCF      ENDOFJOB
000673:
000674: 10,2400           00004        MARKPLAY           INHINT
000675: 10,2401           44756                           CS       FIVE                                  #  RESET MARK OVER NORM, SET MARK
000676: 10,2402           70100                           MASK     FLAGWRD4
000677: 10,2403           64753                           AD       ONE
000678: 10,2404           54100                           TS       FLAGWRD4
000679: 10,2405           00003                           RELINT
000680:
000681: 10,2406           41070        GOGOMARK           CS       MARKFLAG                              #  PERFORM
000682: 10,2407           74747                           MASK     BIT5
000683: 10,2410           10000                           CCS      A
000684: 10,2411           12414                           TCF      MARKCOP
000685: 10,2412           40370                           CS       MARKNV
000686: 10,2413           54370                           TS       MARKNV
000687:
000688: 10,2414           34753        MARKCOP            CAF      ONE                                   #  MARK INDEX
000689: 10,2415           12617                           TCF      PRIOPLAY
000690:
000691: 10,2416           30165        COPYTOGO           CA       MPAC2SAV
000692: 10,2417           54156                           TS       MPAC       +2
000693:
000694: 10,2420           50164        COPYPACS           INDEX    COPINDEX
000695: 10,2421           33532                           CAF      PRIOOCT
000696: 10,2422           54162                           TS       GENMASK
000697:
000698: 10,2423           50164                           INDEX    COPINDEX
000699: 10,2424           31067                           CAF      EBANKSAV
000700: 10,2425           54160                           TS       TEMPOR2                               #  ACTIVE EBANK AND FLAG
000701:
000702: 10,2426           54003                           TS       EBANK
000703:
000704: 10,2427           00002                           TC       Q
000705:
000706:                                                                                                  #  PINCHEK CHECKS TO SEE IF THE CURRENT MARK REQUEST IS MADE BY THE ASTRONAUT WHILE INTERRUPTING A GOPLAY DISPLAY
000707:                                                                                                  #  (A NORMAL OR A PRIO). IF THE ASTRONAUT TRIES TO MARK DURING A PRIO, THE CHECK FAIL LIGHT GOES ON AND THE MARK
000708:                                                                                                  #  REQUEST IS ENDED. IF HE TRIES TO MARK DURING A NORM, THE MARK IS ALLOWED. IN THIS CASE THE NORM IS PUT TO SLEEP
000709:                                                                                                  #  UNTIL ALL MARKING IS FINISHED.
000710:
000711:                                                                                                  #       IF THE MARK REQUEST COMES FROM THE PROGRAM DURING A TIME THE ASTRONAUT IS NOT INTERRUPTING A NORMAL OR A
000712:                                                                                                  #  PRIO, THE MARK REQUEST IS PUT TO SLEEP UNTIL THE +RESENT ACTIVE DISPLAY IS RESPONDED TO BY THE ASTRONAUT.
000713:
000714: 10,2430           30100        CHKPRIO            CA       FLAGWRD4                              #  MARK ATTEMPT DURING PRIO
000715: 10,2431           73255                           MASK     OCT24100
000716: 10,2432           10000                           CCS      A
000717: 10,2433           13455                           TCF      MARSLEEP
000718:


000720: 10,2434           40100                           CS       FLAGWRD4
000721: 10,2435           74751                           MASK     MKOVBIT                               #  SET MARK OVER NORM
000722: 10,2436           00004                           INHINT
000723: 10,2437           26100                           ADS      FLAGWRD4
000724:
000725: 10,2440           12535                           TCF      SETNORM
000726:
000727: 10,2441           30370        MARKPERF           CA       MARKNV
000728: 10,2442           74144                           MASK     VERBMASK
000729: 10,2443           13121                           TCF      NV50DSP
000730:
000731: 10,2444           54155        GODSP              TS       PLAYTEM1
000732:
000733: 10,2445           34755        GODSP2             CAF      ZERO
000734: 10,2446           12501                           TCF      GOFLASH2
000735:
000736: 10,2447           54155        GODSPRET           TS       PLAYTEM1                              #  ENTRANCE FOR A GODSP WITH A PASTE
000737:
000738: 10,2450           34746                           CAF      BIT6                                  #  SET BIT6 TO GO BACK TO USER AFTER NVSUB
000739: 10,2451           12501                           TCF      GOFLASH2
000740:
000741: 10,2452           54155        GODSPR             TS       PLAYTEM1
000742:
000743: 10,2453           34755        GODSPR1            CAF      ZERO
000744: 10,2454           54160        GODSPR2            TS       PLAYTEM4
000745:
000746: 10,2455           34755                           CAF      ZERO                                  #  * DONT MOVE
000747: 10,2456           12642                           TCF      GODSPRS1
000748:
000749:                                                                                                  #       CLEANDSP IS USED FOR CLEARING OUT A NORMAL DISPLAY THAT IS PRESENTLY ACTIVE OR A NORMAL DISPLAY THAT IS
000750:                                                                                                  #  SET UP TO BE STARTED OR RESTARTED.
000751:
000752:                                                                                                  #       NORMALLY THE USER WILL NOT NEED TO USE THIS ROUTINE SINCE A NEW NORMAL DISPLAY AUTOMATICALLY CLEARS OUT AN
000753:                                                                                                  #  OLD DISPLAY.
000754:
000755:                                                                                                  #       CALLING SEQUENCE FOR CLEANDSP-
000756:
000757:                                                                                                  #                                                   TC     BANKCALL
000758:                                                                                                  #                                                   CADR   CLEANDSP
000759:
000760: 10,2457           34755        CLEANDSP           CAF      ZERO
000761: 10,2460           54155        REFLASH            TS       PLAYTEM1
000762:
000763: 10,2461           33505                           CAF      REDOMASK                              #  FLASH AND PERMIT
000764: 10,2462           12501                           TCF      GOFLASH2
000765:
000766: 10,2463           54155        REFLASHR           TS       PLAYTEM1
000767:
000768: 10,2464           33505                           CAF      REDOMASK                              #  FLASH AND PERMIT
000769: 10,2465           12640                           TCF      GODSPRS
000770:


000772: 10,2466           54155        REGODSP            TS       PLAYTEM1
000773:
000774: 10,2467           34736                           CAF      BIT14
000775: 10,2470           12501                           TCF      GOFLASH2
000776:
000777: 10,2471           54155        REGODSPR           TS       PLAYTEM1
000778:
000779: 10,2472           34736                           CAF      BIT14
000780: 10,2473           12454                           TCF      GODSPR2
000781:
000782: 10,2474           54155        CLOCPLAY           TS       PLAYTEM1
000783: 10,2475           33544                           CAF      CLOCKCON
000784: 10,2476           12501                           TCF      GOFLASH2
000785:
000786: 10,2477           54155        GOFLASH            TS       PLAYTEM1
000787:
000788: 10,2500           34750                           CAF      BIT4                                  #  LEAVE ONLY FLASH BIT SET
000789: 10,2501           54160        GOFLASH2           TS       PLAYTEM4
000790:
000791: 10,2502           02723                           TC       SAVELOCS
000792:
000793: 10,2503           00003                           RELINT
000794:
000795: 10,2504           12547                           TCF      MAKEPLAY                              #  BRANCH DIRECT WITH NO SEPARATE JOB CALL
000796:
000797: 10,2505           54155        PRIODSPR           TS       PLAYTEM1
000798:
000799: 10,2506           33524                           CAF      BITS7+4
000800: 10,2507           12640                           TCF      GODSPRS
000801:
000802: 10,2510           54155        PRIODSP            TS       PLAYTEM1
000803:
000804: 10,2511           33524        SETPRIO            CAF      BITS7+4
000805: 10,2512           12501                           TCF      GOFLASH2
000806:
000807: 10,2513           34755        MAKEPRIO           CAF      ZERO
000808: 10,2514           54164                           TS       COPINDEX
000809:
000810: 10,2515           03375                           TC       LINUSCHR
000811: 10,2516           12523                           TCF      HIPRIO                                #  LINUS RETURN
000812: 10,2517           30100                           CA       FLAGWRD4
000813: 10,2520           73543                           MASK     OCT20100                              #  IS PRIO IN ENDIDLE OR BUSY
000814: 10,2521           10000                           CCS      A
000815: 10,2522           12576                           TCF      PRIOBORT                              #  YES, ABORT
000816:
000817: 10,2523           30100        HIPRIO             CA       FLAGWRD4                              #  MARK ACTIVE
000818: 10,2524           75643                           MASK     OCT40400
000819: 10,2525           00006                           EXTEND
000820: 10,2526           12531                           BZF      ASKIFNRM                              #  NO
000821:


000823: 10,2527           34755        SETMARK            CAF      ZERO
000824: 10,2530           12775                           TCF      JOBXCHS
000825:
000826: 10,2531           30100        ASKIFNRM           CA       FLAGWRD4                              #  NORMAL ACTIVE
000827: 10,2532           73541                           MASK     OCT10200                              #  BITS 13+8
000828: 10,2533           00006                           EXTEND
000829: 10,2534           12537                           BZF      OKTOCOPY                              #  NO
000830:
000831: 10,2535           34753        SETNORM            CAF      ONE
000832: 10,2536           12775                           TCF      JOBXCHS
000833:
000834: 10,2537           02735        OKTOCOPY           TC       COPYNORM
000835: 10,2540           03206                           TC       WITCHONE
000836:
000837: 10,2541           05137                           TC       JOBWAKE
000838:
000839: 10,2542           03223                           TC       XCHTOEND
000840:
000841: 10,2543           30025        REDOPRIO           CA       TIME1                                 #  SAVE TIME PRIODSP SENT OUT
000842: 10,2544           55164                           TS       PRIOTIME
000843:
000844: 10,2545           34755        KEEPPRIO           CAF      ZERO                                  #  START UP PRIO DISPLAY
000845: 10,2546           12617                           TCF      PRIOPLAY
000846:
000847: 10,2547           30167        MAKEPLAY           CA       PRIORITY                              #  SAVE USERS PRIORITY
000848: 10,2550           77730                           MASK     PRIO37
000849: 10,2551           54163                           TS       USERPRIO
000850:
000851: 10,2552           37724                           CAF      PRIO33                                #  RAISE PRIORITY FOR FAST JOBS AFTER WAKE
000852: 10,2553           05146                           TC       PRIOCHNG
000853:
000854: 10,2554           30160                           CA       PLAYTEM4                              #  IS IT MARK OR PRIO OR NORM
000855: 10,2555           73523                           MASK     BITS15+7
000856: 10,2556           10000                           CCS      A
000857: 10,2557           12513                           TCF      MAKEPRIO                              #  ITS PRIO
000858: 10,2560           12562                           TCF      IFLEGAL
000859: 10,2561           12365                           TCF      MAKEMARK                              #  ITS MARK
000860:
000861: 10,2562           34752        IFLEGAL            CAF      TWO
000862: 10,2563           54164                           TS       COPINDEX
000863:
000864: 10,2564           03375                           TC       LINUSCHR
000865:
000866: 10,2565           12600                           TCF      OKTOPLAY                              #  LINUS RETURN
000867: 10,2566           41071                           CS       EBANKTEM
000868: 10,2567           74750                           MASK     BIT4
000869: 10,2570           10000                           CCS      A
000870: 10,2571           12600                           TCF      OKTOPLAY                              #  NO
000871:
000872: 10,2572           30100                           CA       FLAGWRD4                              #  WAS NORM ASLEEP


000874: 10,2573           73514                           MASK     NBUSMASK                              #  ARE ANY NORMS ASLEEP
000875: 10,2574           00006                           EXTEND
000876: 10,2575           12600                           BZF      OKTOPLAY                              #  NO
000877:
000878: 10,2576           05635        PRIOBORT           TC       BAILOUT
000879: 10,2577           31502                           OCT      31502
000880:
000881: 10,2600           02737        OKTOPLAY           TC       COPIES2
000882:
000883: 10,2601           30163                           CA       USERPRIO
000884: 10,2602           00006                           EXTEND
000885: 10,2603           04007                           ROR      SUPERBNK
000886: 10,2604           54366                           TS       RESTREG
000887:
000888: 10,2605           30100                           CA       FLAGWRD4                              #  PRIO OR MARK GOING
000889: 10,2606           73515                           MASK     PMMASK
000890: 10,2607           10000                           CCS      A
000891: 10,2610           12755                           TCF      GOSLEEPS                              #  YES
000892:
000893: 10,2611           12613                           TCF      +2
000894: 10,2612           12755                           TCF      GOSLEEPS                              #  MARK GOING
000895:
000896:                                                                                                  #  COULD PUT NORM BUSY CHECK HERE TO SAVE TIME
000897: 10,2613           03206                           TC       WITCHONE                              #  IS IT NVSUB BUSY, ENDIDLE OR NOONE
000898: 10,2614           05137                           TC       JOBWAKE
000899:
000900: 10,2615           03223                           TC       XCHTOEND
000901:
000902: 10,2616           34752        PLAYJUM1           CAF      TWO
000903: 10,2617           54164        PRIOPLAY           TS       COPINDEX
000904:
000905: 10,2620           13071                           TCF      GOPLAY
000906:
000907: 10,2621           54155        EXDSPRET           TS       PLAYTEM1
000908:
000909: 10,2622           37737                           CAF      BIT15+6
000910: 10,2623           12501                           TCF      GOFLASH2
000911:
000912: 10,2624           55044        GOPERF1            TS       NORMTEM1                              #  STORE DESIRED CHECKLIST VALUE
000913: 10,2625           33477                           CAF      V01N25                                #  USED TO DISPLAY CHECKLIST VALUE IN R1
000914:
000915: 10,2626           54155        GOPERFS            TS       PLAYTEM1
000916:
000917: 10,2627           33476                           CAF      PERFMASK                              #  LEAVE ONLY FLASH, PERFORM, BLANKING
000918: 10,2630           12501                           TCF      GOFLASH2
000919:
000920: 10,2631           54155        GOPERF2            TS       PLAYTEM1                              #  DESIRED VERB-NOUN TO DISPLAY R1,R2,R3
000921:
000922: 10,2632           33502                           CAF      PERF2MSK
000923: 10,2633           12501                           TCF      GOFLASH2
000924:


000926: 10,2634           02716        GOPERF4            TC       PURRS4
000927:
000928: 10,2635           12501                           TCF      GOFLASH2
000929:
000930: 10,2636           54155        GOFLASHR           TS       PLAYTEM1
000931:
000932: 10,2637           34750                           CAF      BIT4                                  #  LEAVE ONLY FLASH BIT SET
000933: 10,2640           54160        GODSPRS            TS       PLAYTEM4
000934:
000935: 10,2641           36250                           CAF      THREE
000936:
000937: 10,2642           00004        GODSPRS1           INHINT                                         #  IMMEDIATE RETURN IS CALL CADR +4
000938: 10,2643           54072                           TS       RUPTREG3
000939:
000940: 10,2644           30167                           CA       PRIORITY                              #  MAKE DISPLAY ONE HIGHER THAN USER
000941: 10,2645           77730                           MASK     PRIO37
000942: 10,2646           54063                           TS       NEWPRIO
000943:
000944: 10,2647           30160                           CA       PLAYTEM4                              #  IS THIS A FLASHING R DISPLAY
000945: 10,2650           74750                           MASK     BIT4
000946: 10,2651           10000                           CCS      A
000947: 10,2652           12660                           TCF      VACDSP                                #  YES, MAKE DSPLAY JOB A VAC
000948: 10,2653           30063                           CA       NEWPRIO                               #  NO, MAKE DSPLAY JOB A NOVAC
000949: 10,2654           05072                           TC       NOVAC
000950: 10,2655  E7,1471                                  EBANK=   WHOCARES
000951: 10,2655           02547 20067                     2CADR    MAKEPLAY
000952:
000953: 10,2657           12666                           TCF      BOTHJOBS
000954:
000955: 10,2660           30006        VACDSP             CA       BBANK
000956: 10,2661           00006                           EXTEND
000957: 10,2662           04007                           ROR      SUPERBNK
000958: 10,2663           54001                           TS       L
000959: 10,2664           33540                           CAF      MAKEGEN
000960: 10,2665           05116                           TC       SPVAC
000961:
000962: 10,2666           02723        BOTHJOBS           TC       SAVELOCS                              #  COPY TEMPS INTO PERMANENT REGISTERS
000963:
000964: 10,2667           00006                           EXTEND                                         #  SAVE NVWORD AND USERS MPAC +2
000965: 10,2670           30156                           DCA      MPAC       +1
000966: 10,2671           50064                           INDEX    LOCCTR
000967: 10,2672           52156                           DXCH     MPAC       +1
000968:
000969: 10,2673           00006                           EXTEND                                         #  SAVE USERS CADR, FLAGS AND EBANK
000970: 10,2674           30160                           DCA      MPAC       +3
000971: 10,2675           50064                           INDEX    LOCCTR
000972: 10,2676           52160                           DXCH     MPAC       +3
000973:
000974: 10,2677           30064                           CA       LOCCTR
000975: 10,2700           54161                           TS       MPAC       +5
000976:


000978: 10,2701           02730                           TC       SAVELOCR
000979: 10,2702           00003                           RELINT
000980:
000981: 10,2703           14640                           TCF      BANKJUMP                              #  CALL CADR +4
000982:
000983: 10,2704           55044        GOPERF1R           TS       NORMTEM1                              #  DESIRED CHECKLIST VALUE
000984:
000985: 10,2705           33477                           CAF      V01N25                                #  DISPLAYS CHECKLIST VALUE IN R1
000986:
000987: 10,2706           54155        GOPERFRS           TS       PLAYTEM1
000988:
000989: 10,2707           33476                           CAF      PERFMASK                              #  LEAVE ONLY FLASH, PERFORM, BLANKING
000990: 10,2710           12640                           TCF      GODSPRS
000991:
000992: 10,2711           54155        GOPERF2R           TS       PLAYTEM1                              #  DESIRED VERB-NOUN TO DISPLAY R1,R2,R3
000993:
000994: 10,2712           33502                           CAF      PERF2MSK
000995: 10,2713           12640                           TCF      GODSPRS
000996:
000997: 10,2714           02716        GOPERF4R           TC       PURRS4
000998:
000999: 10,2715           12640                           TCF      GODSPRS
001000:
001001: 10,2716           55143        PURRS4             TS       OPTION1                               #  DESIRED OPTION CODE
001002:
001003: 10,2717           33503                           CAF      V04N06
001004: 10,2720           54155                           TS       PLAYTEM1
001005:
001006: 10,2721           33504                           CAF      PERF4MSK                              #  FLASH,PERFORM AND BLANK R3
001007: 10,2722           00002                           TC       Q
001008:
001009: 10,2723           00004        SAVELOCS           INHINT
001010:
001011: 10,2724           43513                           CS       OCT3400                               #  EBANK BITS
001012: 10,2725           70160                           MASK     PLAYTEM4
001013: 10,2726           60003                           AD       EBANK
001014: 10,2727           54160                           TS       PLAYTEM4
001015:
001016: 10,2730           22002        SAVELOCR           LXCH     Q
001017:
001018: 10,2731           04645                           TC       MAKECADR
001019: 10,2732           54157                           TS       PLAYTEM3
001020:
001021: 10,2733           60072                           AD       RUPTREG3                              #  NOT USED FOR NON R ROUTINES
001022: 10,2734           00001                           TC       L
001023:
001024: 10,2735           34755        COPYNORM           CAF      ZERO
001025: 10,2736           54164        COPIES             TS       COPINDEX
001026: 10,2737           00004        COPIES2            INHINT
001027: 10,2740           30160                           CA       PLAYTEM4                              #  FLAGWORD


001029: 10,2741           50164                           INDEX    COPINDEX
001030: 10,2742           55067                           TS       EBANKSAV                              #  EQUIV TO DSPFLG
001031:
001032: 10,2743           73531                           MASK     CADRMASK                              #  FLASH AND GODSPRET
001033: 10,2744           00006                           EXTEND
001034: 10,2745           12751                           BZF      SKIPADD
001035:
001036: 10,2746           30157                           CA       PLAYTEM3
001037: 10,2747           50164                           INDEX    COPINDEX
001038: 10,2750           54372                           TS       CADRFLSH
001039:
001040: 10,2751           30155        SKIPADD            CA       PLAYTEM1                              #  VERB NOUN
001041: 10,2752           50164                           INDEX    COPINDEX
001042: 10,2753           54367                           TS       NVWORD
001043:
001044: 10,2754           13232                           TCF      RELINTQ
001045:
001046: 10,2755           50164        GOSLEEPS           INDEX    COPINDEX
001047: 10,2756           33532                           CA       PRIOOCT
001048: 10,2757           72761                           MASK     WAITMASK
001049: 10,2760           03545                           TC       UPENT2
001050: 10,2761           03004        WAITMASK           OCT      3004
001051: 10,2762           44753                           CS       ONE
001052: 10,2763           60164                           AD       COPINDEX
001053: 10,2764           54154                           TS       FACEREG
001054:
001055: 10,2765           50154        XCHSLEEP           INDEX    FACEREG
001056: 10,2766           33511                           CAF      WAKECADR
001057: 10,2767           00004                           INHINT
001058: 10,2770           05137                           TC       JOBWAKE                               #  FIND CADR IN JOB AREA
001059:
001060: 10,2771           03223                           TC       XCHTOEND                              #  CAUSES AWAKENED JOB TO GO TO ENDOFJOB
001061:
001062: 10,2772           50154                           INDEX    FACEREG                               #  REPLACE SAME CADR BUT NEW JOB AREA
001063: 10,2773           33511                           CAF      WAKECADR
001064: 10,2774           15133                           TCF      JOBSLEEP
001065:
001066: 10,2775           54154        JOBXCHS            TS       FACEREG                               #  CONTROLS TYPE OF DISPLAY PUT TO SLEEP
001067: 10,2776           03206                           TC       WITCHONE
001068: 10,2777           05137                           TC       JOBWAKE
001069: 10,3000           30154                           CA       FACEREG
001070: 10,3001           50064                           INDEX    LOCCTR
001071: 10,3002           54154                           TS       FACEREG
001072:
001073: 10,3003           33016                           CAF      XCHQADD
001074: 10,3004           03224                           TC       XCHNYLOC
001075:
001076: 10,3005           50154                           INDEX    FACEREG
001077: 10,3006           33533                           CA       MARKOCT
001078: 10,3007           73535                           MASK     IDLESLEP


001080: 10,3010           03555                           TC       DOWNENT2
001081: 10,3011           74004        IDLEMASK           OCT      74004                                 #  * DONT MOVE
001082:
001083: 10,3012           50154                           INDEX    FACEREG                               #  BIT SHOWS PRIO INTERRUPTED NORM OR MARK
001084: 10,3013           34747                           CA       BIT5                                  #  BIT5 FOR MARK, BIT4 FOR NORMAL
001085: 10,3014           64751                           AD       FOUR
001086: 10,3015           03545                           TC       UPENT2                                #  FLAG ROUTINE DOES RELINT
001087: 10,3016           02765        XCHQADD            GENADR   XCHSLEEP                              #  * DONT MOVE
001088: 10,3017           30100                           CA       FLAGWRD4
001089: 10,3020           74751                           MASK     MKOVBIT                               #  MARK OVER NORM ?
001090: 10,3021           10000                           CCS      A
001091: 10,3022           02400        GENMARK            TC       MARKPLAY                              #  USED AS GENADR FOR JOBWAKE
001092: 10,3023           12537                           TCF      OKTOCOPY
001093:
001094: 10,3024           34755        MARKWAKE           CAF      ZERO
001095: 10,3025           54160        WAKEPLAY           TS       TEMPOR2
001096:
001097: 10,3026           50160                           INDEX    TEMPOR2
001098: 10,3027           33525                           CA       BITS5+11
001099: 10,3030           64751                           AD       FOUR
001100: 10,3031           03555                           TC       DOWNENT2
001101: 10,3032           40010        MARKFMSK           OCT      40010                                 #  ***DONT MOVE
001102:
001103: 10,3033           50160                           INDEX    TEMPOR2
001104: 10,3034           33511                           CAF      WAKECADR
001105: 10,3035           00004                           INHINT
001106: 10,3036           05137                           TC       JOBWAKE
001107:
001108: 10,3037           13336                           TCF      ENDRET
001109:
001110:                                                                                                  #       ALL .1 RESTARTS BRANCH DIRECTLY TO INITDSP. NORMAL DISPLAYS ARE THEONLY DISPLAYS ALLOWED TO USE .1 RESTARTS
001111:                                                                                                  #  INITDSP FIRST RESTORES THE EBANK AND THE SUPERBANK TO THE MOST RECENT NORMAL EBANK AND SUPERBANK.
001112:                                                                                                  #       IF THE MOST RECENT NORMAL DISPLAY REQUEST WAS NOT FINISHED, CONTROLIS SENT BACK TO THE LAST NORMAL USER.
001113:                                                                                                  #  OTHERWISE THE NORMAL DISPLAY SET UP IN THE NORMAL DISPLAY REGS IS STARTED UP IMMEDIATELY.
001114:
001115: 10,3040           31071        INITDSP            CA       EBANKTEM                              #  RESTORE MOST RECECT NORMAL EBANK
001116: 10,3041           54003                           TS       EBANK
001117:
001118: 10,3042           30366                           CA       RESTREG                               #  SUPERBANK AND JOB PRIORITY
001119: 10,3043           04727                           TC       SUPERSW                               #  RESTORE SUPERBANK
001120:
001121: 10,3044           77730                           MASK     PRIO37
001122: 10,3045           05146                           TC       PRIOCHNG
001123:
001124: 10,3046           46250                           CS       THREE
001125: 10,3047           60374                           AD       TEMPFLSH
001126: 10,3050           14640                           TCF      BANKJUMP
001127:
001128: 10,3051           00003        PINBRNCH           RELINT                                         #  FOR GOPIN USERS
001129: 10,3052           31072                           CA       MARK2PAC                              #  NEEDED TO SAVE MPAC +2 FOR MARK USERS


001131: 10,3053           54156                           TS       MPAC       +2                         #  ONLY
001132:
001133: 10,3054           30100                           CA       FLAGWRD4                              #  PINBRANCH CONDITION
001134: 10,3055           77743                           MASK     PINMASK
001135: 10,3056           10000                           CCS      A
001136: 10,3057           13062                           TCF      +3
001137: 10,3060           13472                           TCF      ERASER                                #  ** NOTHING IN ENDIDLE
001138: 10,3061           12400                           TCF      MARKPLAY
001139:
001140: 10,3062           05515        NORMBNCH           TC       UPFLAG                                #  SET PINBRANCH BIT
001141: 10,3063           00105                           ADRES    PINBRFLG
001142:
001143: 10,3064           34736                           CAF      PRIODBIT                              #  PRIO INTERRUPTED
001144: 10,3065           70100                           MASK     FLAGWRD4
001145: 10,3066           10000                           CCS      A
001146: 10,3067           12545                           TCF      KEEPPRIO
001147:
001148: 10,3070           12616                           TCF      PLAYJUM1
001149:
001150: 10,3071           02420        NVDSP              TC       COPYPACS
001151:
001152: 10,3072           30160                           CA       TEMPOR2                               #  SET UP BLANK BITS FOR NVMONOPT IN CASE
001153: 10,3073           74757                           MASK     SEVEN                                 #  USER REQUESTS BLANKING MONITOR
001154: 10,3074           54001                           TS       L
001155:
001156: 10,3075           44737                           CS       BIT13
001157: 10,3076           50164                           INDEX    COPINDEX
001158: 10,3077           71067                           MASK     DSPFLG
001159: 10,3100           50164                           INDEX    COPINDEX
001160: 10,3101           55067                           TS       DSPFLG
001161:
001162: 10,3102           74744                           MASK     BIT8                                  #  BIT8 SET IF DEC MARK PERFORM DISPLAY
001163: 10,3103           54141                           TS       TEM1
001164:
001165: 10,3104           30156                           CA       MPAC       +2
001166: 10,3105           54165                           TS       MPAC2SAV
001167:
001168: 10,3106           55072                           TS       MARK2PAC                              #  * FOR DISK ONLY *
001169: 10,3107           50164                           INDEX    COPINDEX
001170: 10,3110           10367                           CCS      NVWORD
001171: 10,3111           13120                           TCF      NVDSP1
001172: 10,3112           13234                           TCF      CLEANEND
001173: 10,3113           40370                           CS       MARKNV
001174: 10,3114           54370                           TS       MARKNV                                #  IN CASE MARKPLAY AWAKENED AFTER SLEEPING
001175: 10,3115           76077                           MASK     LOW7
001176: 10,3116           63516                           AD       V05N00M1
001177: 10,3117           60141                           AD       TEM1
001178: 10,3120           64753        NVDSP1             AD       ONE
001179: 10,3121           04155        NV50DSP            TC       NVMONOPT
001180: 10,3122           13246                           TCF      REST                                  #  IF BUSY


001182: 10,3123           04433                           TC       FLASHOFF                              #  IN CASE OF EXTENDED VERB NON FLASH
001183:
001184: 10,3124           02416                           TC       COPYTOGO                              #  MPACS DESTROYED BY NVSUB
001185: 10,3125           05527                           TC       DOWNFLAG                              #  UNSET SLEEPING BITS
001186: 10,3126           00102                           ADRES    MRKNVFLG
001187: 10,3127           05527                           TC       DOWNFLAG
001188: 10,3130           00103                           ADRES    NRMNVFLG
001189: 10,3131           05527                           TC       DOWNFLAG
001190: 10,3132           00104                           ADRES    PRONVFLG
001191: 10,3133           30160        BLANKCHK           CA       TEMPOR2                               #  BLANK BITS 1,2,3 IF SET
001192: 10,3134           04255                           TC       BLANKSUB
001193: 10,3135           13071                           TCF      NVDSP
001194: 10,3136           34747        PERFCHEK           CAF      BIT5                                  #  BIT5 FOR PERFORM
001195: 10,3137           70160                           MASK     TEMPOR2
001196: 10,3140           10000                           CCS      A                                     #  IS THIS A GOPERF DISPLAY
001197: 10,3141           13164                           TCF      1STOR2ND                              #  YES
001198:
001199: 10,3142           34750        GOANIDLE           CAF      BIT4
001200: 10,3143           70160                           MASK     TEMPOR2
001201: 10,3144           10000                           CCS      A
001202: 10,3145           13261                           TCF      FLASHSUB                              #  IT IS
001203:
001204: 10,3146           40160                           CS       TEMPOR2                               #  IS THIS A GODSPRET
001205: 10,3147           74746                           MASK     BIT6
001206: 10,3150           10000                           CCS      A
001207: 10,3151           13156                           TCF      ISITN00
001208:
001209: 10,3152           50164                           INDEX    COPINDEX
001210: 10,3153           30372                           CA       CADRFLSH
001211: 10,3154           54157                           TS       MPAC       +3
001212: 10,3155           13354                           TCF      ENDIT
001213:
001214: 10,3156           50164        ISITN00            INDEX    COPINDEX                              #  IS THIS A PASTE
001215: 10,3157           30367                           CA       NVWORD
001216: 10,3160           76077                           MASK     LOW7                                  #  CHECK MADE FOR PINBRNCH AND PRIO ON MARK
001217: 10,3161           00006                           EXTEND
001218: 10,3162           13261                           BZF      FLASHSUB                              #  YES, ASSUME PASTE ALWAYS ON FLASH
001219:
001220: 10,3163           15155                           TCF      ENDOFJOB                              #  NOT FLASH, NOT GOPERF, THERFORE EXIT
001221:
001222: 10,3164           30160        1STOR2ND           CA       TEMPOR2
001223: 10,3165           74737                           MASK     BIT13
001224: 10,3166           10000                           CCS      A
001225: 10,3167           13142                           TCF      GOANIDLE                              #  SECOND
001226:
001227: 10,3170           34737                           CA       BIT13
001228: 10,3171           50164                           INDEX    COPINDEX
001229: 10,3172           27067                           ADS      DSPFLG
001230:
001231: 10,3173           22007                           ZL


001233: 10,3174           00006                           EXTEND                                         #  IS IT MARK
001234: 10,3175           62441                           BZMF     MARKPERF                              #  YES
001235:
001236: 10,3176           74740                           MASK     BIT12
001237: 10,3177           00006                           EXTEND
001238: 10,3200           13204                           BZF      V50PASTE
001239: 10,3201           41066                           CS       NVWORD1                               #  NVOWRD1= -0 IS V97. NVWORD1= -400 IS V99
001240: 10,3202           63542                           AD       V97N00
001241: 10,3203           13121                           TCF      NV50DSP
001242: 10,3204           33501        V50PASTE           CAF      V50N00
001243: 10,3205           13121                           TCF      NV50DSP                               #  DISPLAY SECOND PART OF GOPERF
001244:
001245: 10,3206           44747        WITCHONE           CS       BIT5                                  #  TURN OFF KEY RELEASE LIGHT
001246: 10,3207           00006                           EXTEND
001247: 10,3210           03011                           WAND     DSALMOUT
001248:
001249: 10,3211           30100                           CA       FLAGWRD4
001250: 10,3212           73517                           MASK     NVBUSMSK                              #  IS IT NVSUB ASLEEP
001251: 10,3213           10000                           CCS      A
001252: 10,3214           34753                           CAF      ONE
001253: 10,3215           54001                           TS       L
001254: 10,3216           34755                           CAF      ZERO
001255: 10,3217           50001                           INDEX    L
001256: 10,3220           57041                           XCH      CADRSTOR
001257:
001258: 10,3221           00004                           INHINT
001259: 10,3222           00002                           TC       Q
001260:
001261: 10,3223           34217        XCHTOEND           CAF      ENDINST                               #  TC ENDOFJOB REPLACES GENADR IN LOC FOR
001262: 10,3224           56064        XCHNYLOC           XCH      LOCCTR                                #  WAS THIS ADDRESS SLEEPING
001263: 10,3225           00006                           EXTEND
001264: 10,3226           63232                           BZMF     RELINTQ                               #  NO
001265: 10,3227           56064                           XCH      LOCCTR                                #  YES
001266: 10,3230           50064                           INDEX    LOCCTR
001267: 10,3231           54164                           TS       LOC
001268:
001269: 10,3232           00003        RELINTQ            RELINT
001270: 10,3233           00002                           TC       Q                                     #  BACK TO USER
001271:
001272: 10,3234           37723        CLEANEND           CAF      PRIO32                                #  ONE LOWER THAN DISPLAYS SLEEPING
001273: 10,3235           05105                           TC       FINDVAC
001274: 10,3236     0371                                  EBANK=   NVSAVE
001275: 10,3236           04231 04060                     2CADR    JAMTERM
001276:
001277:
001278: 10,3240           13262                           TCF      FLASHSUB   +1
001279:
001280: 10,3241           30100        ISITPRIO           CA       FLAGWRD4
001281: 10,3242           73267                           MASK     ITISMASK                              #  IS PINBRFLG, MARKIDFLG SET
001282: 10,3243           00006                           EXTEND


001284: 10,3244           12576                           BZF      PRIOBORT
001285: 10,3245           15155                           TCF      ENDOFJOB
001286:
001287: 10,3246           11041        REST               CCS      CADRSTOR                              #  IS SOMEONE IN ENDIDLE
001288: 10,3247           15155                           TCF      ENDOFJOB                              #  YES
001289: 10,3250           13252                           TCF      RESTSLEP
001290:
001291: 10,3251           15155                           TCF      ENDOFJOB
001292:
001293: 10,3252           30162        RESTSLEP           CA       GENMASK                               #  SET NVSLEEP BITS
001294: 10,3253           73520                           MASK     ASTROMSK
001295: 10,3254           03545                           TC       UPENT2
001296: 10,3255           24100        OCT24100           OCT      24100                                 #  *** DONT MOVE
001297:
001298: 10,3256           50164                           INDEX    COPINDEX
001299: 10,3257           33510                           CAF      NVCADR
001300: 10,3260           04442                           TC       NVSUBUSY                              #  BUSY OR ABORT IF ILLEGAL
001301:
001302: 10,3261           04427        FLASHSUB           TC       FLASHON
001303:
001304: 10,3262           30164                           CA       COPINDEX                              #  COPINDEX DESTROYED BY ENDIDLE
001305: 10,3263           54157                           TS       COPMPAC
001306:
001307: 10,3264           30162                           CA       GENMASK
001308: 10,3265           73011                           MASK     IDLEMASK
001309: 10,3266           03545                           TC       UPENT2
001310: 10,3267           40040        ITISMASK           OCT      40040                                 #  *** ENDIDLE ALLOW *** DONT MOVE
001311:
001312: 10,3270           31073                           CA       R1SAVE                                #  IS THIS A REPEAT AND RETURN DISPLAY
001313: 10,3271           50164                           INDEX    COPINDEX
001314: 10,3272           74751                           MASK     BIT3
001315: 10,3273           10000                           CCS      A
001316: 10,3274           13361                           TCF      UNSETR1                               #  YES
001317:
001318: 10,3275           11041                           CCS      CADRSTOR                              #  SEE IF SOMEONE ALREADY IN ENDIDLE
001319: 10,3276           13241                           TCF      ISITPRIO
001320: 10,3277           13301                           TCF      +2
001321: 10,3300           13241                           TCF      ISITPRIO
001322:
001323: 10,3301           04207                           TC       ENDIDLE
001324: 10,3302           13373        IDLERET1           TCF      TERMATE
001325:
001326: 10,3303           13412                           TCF      PROCEED                               #  ENDIDLE RETURNS HERE ON PROCEED
001327:
001328: 10,3304           43527                           CS       LOWLOAD
001329: 10,3305           60154                           AD       MPAC                                  #  VERBREG
001330: 10,3306           00006                           EXTEND
001331: 10,3307           26000                           DIM      A
001332: 10,3310           00006                           EXTEND
001333: 10,3311           13462                           BZF      LOADITIS                              #  V21 OR V22 OR V23 ON DSKY
001334: 10,3312           34752        OKTOENT            CAF      TWO
001335: 10,3313           54161        ENDOUT             TS       OUTHERE
001336:
001337: 10,3314           30100                           CA       FLAGWRD4                              #  CHECK NATURE OF ENDIDLE RETURN
001338: 10,3315           74101                           MASK     OCT60000
001339: 10,3316           10000                           CCS      A


001341: 10,3317           13322                           TCF      TIMECHEK                              #  PRIO ENDIDLE RETURN
001342: 10,3320           13430                           TCF      NORMRET                               #  NORMAL ENDIDLE RETURN
001343: 10,3321           13414                           TCF      MARKRET                               #  MARK ENDIDLE RETURN
001344:
001345: 10,3322           40025        TIMECHEK           CS       TIME1
001346: 10,3323           61164                           AD       PRIOTIME
001347: 10,3324           10000                           CCS      A
001348: 10,3325           40000                           COM
001349: 10,3326           67734                           AD       OCT37776
001350: 10,3327           64753                           AD       ONE
001351: 10,3330           63571                           AD       -2SEC
001352: 10,3331           00006                           EXTEND
001353: 10,3332           62545                           BZMF     KEEPPRIO
001354:
001355: 10,3333           13430                           TCF      NORMRET
001356:
001357: 10,3334           34753        NORMWAKE           CAF      ONE
001358: 10,3335           13025                           TCF      WAKEPLAY
001359:
001360: 10,3336           10161        ENDRET             CCS      OUTHERE
001361: 10,3337           64753                           AD       ONE
001362: 10,3340           13342                           TCF      +2                                    #  NORMAL ENDIDLE EXIT
001363: 10,3341           15155                           TCF      ENDOFJOB
001364: 10,3342           50157                           INDEX    COPMPAC
001365: 10,3343           60372                           AD       CADRFLSH
001366: 10,3344           54157                           TS       MPAC       +3
001367:
001368: 10,3345           30162                           CA       GENMASK                               #  REMOVE ENDIDLE AND PINBRANCH BITS
001369: 10,3346           73350                           MASK     PINIDMSK
001370: 10,3347           03555                           TC       DOWNENT2
001371: 10,3350           74044        PINIDMSK           OCT      74044                                 #  *** DONT MOVE
001372:
001373: 10,3351           46250                           CS       THREE                                 #  BLANK EVERYTHING EXCEPT MM
001374: 10,3352           04154                           TC       NVSUB
001375: 10,3353           13354                           TCF      +1
001376:
001377: 10,3354           30163        ENDIT              CA       USERPRIO                              #  RETURN TO USERS PRIORITY
001378: 10,3355           77730                           MASK     PRIO37
001379: 10,3356           05146                           TC       PRIOCHNG
001380: 10,3357           30157                           CA       MPAC       +3
001381: 10,3360           14640                           TCF      BANKJUMP
001382:
001383: 10,3361           50164        UNSETR1            INDEX    COPINDEX                              #  RESET REPEAT AND RETURN REQUEST
001384: 10,3362           44751                           CS       BIT3
001385:
001386: 10,3363           71073                           MASK     R1SAVE
001387: 10,3364           55073                           TS       R1SAVE
001388:
001389: 10,3365           34755                           CAF      ZERO                                  #  *** 205 ONLY MARKBRAN USERS IN
001390: 10,3366           04727                           TC       SUPERSW                               #  SUPERBANK 0
001391:
001392: 10,3367           36250                 -1        CAF      THREE                                 #  RETURN TO USERS IMMEDIATE RETURN LOC
001393: 10,3370           50164        IMMEDRET           INDEX    COPINDEX
001394: 10,3371           60372                           AD       CADRFLSH
001395: 10,3372           14640                           TCF      BANKJUMP
001396:
001397: 10,3373           34755        TERMATE            CAF      ZERO                                  #  ASTRONAUT TERMINATE (V34) RETURNS TO
001398: 10,3374           13313                           TCF      ENDOUT
001399:
001400: 10,3375           40160        LINUSCHR           CS       PLAYTEM4                              #  IS THIS A LINUS
001401: 10,3376           74736                           MASK     BIT14
001402: 10,3377           10000                           CCS      A
001403: 10,3400           16742                           TCF      Q+1                                   #  NO
001404: 10,3401           40157                           CS       PLAYTEM3                              #  YES, IS IT ALREADY IN ENDIDLE


001406: 10,3402           50164                           INDEX    COPINDEX
001407: 10,3403           60372                           AD       CADRFLSH
001408: 10,3404           00006                           EXTEND
001409: 10,3405           13407                           BZF      +2                                    #  YES
001410:
001411: 10,3406           00002                           TC       Q                                     #  NO
001412: 10,3407           11011                           CCS      DSPLOCK                               #  IS THE ASTRONAUT BUSY
001413: 10,3410           05155                           TC       ENDOFJOB                              #  END THE NEW DISPLAY, ITS ALREADY ACTIVE
001414: 10,3411           00002                           TC       Q
001415:
001416:                                                                                                  #  MORE LOGIC COULD BE INCORPORATED HERE TO MAKE SURE A RECYCLE IS A RECYCLAND CONVERSLY THAT A LOAD IS A LOAD.
001417: 10,3412           34753        PROCEED            CAF      ONE                                   #  ASTRONAUT PROCEED (V33) RETURNS
001418: 10,3413           13313                           TCF      ENDOUT
001419:
001420:                                                                                                  #       LASTPLAY CHECKS TO SEE IF (1) THE LAST NORMAL DISPLAY WAS EITHER INTERRUPTED BY A PRIO OR A MARK (MARK
001421:                                                                                                  #  COULD ONLY HAPPEN DURING PINBRANCH) OR IF (2) THE LAST NORMAL DISPLAY WAS REQUESTED WHILE A HIGHER PRIORITY
001422:                                                                                                  #  DISPLAY WAS GOING RESULTING IN THE NORMAL BEING PUT TO SLEEP.
001423:
001424:                                                                                                  #       IF EITHER OF THE ABOVE 2 CONDITIONS EXISTS , THE NORMAL DISPLAY IS AWAKENED TO GO TO PLAYJUM1 WHICH STARTS
001425:                                                                                                  #  UP THE MOST RECENT VALID NORMAL DISPLAY. IF THESE 2 CONDITIONS DO NOT EXIST, CONTROL GOES TO PLAYJUM1 WHICH IS
001426:                                                                                                  #  STARTED IMMEDIATELY WITH THE ASSUMPTION THAT THE MOST RECENT NORMAL DISPLAY IS ALREADY IN-ENDIDLE(DURING A
001427:                                                                                                  #  PINBRANCH) OR THAT A RESTART HAS OCCURRED AND THE DISPLAY CAN BE STARTED AS A .1 RESTART.
001428:
001429: 10,3414           46245        MARKRET            CS       SIX
001430: 10,3415           70100                           MASK     FLAGWRD4
001431: 10,3416           00004                           INHINT                                         #  *** MAY MOVE DISPLAY FLAGWORD OUT OF
001432: 10,3417           54100                           TS       FLAGWRD4
001433:
001434: 10,3420           00003                           RELINT                                         #  INHINT REALM
001435: 10,3421           13336                           TCF      ENDRET
001436:
001437: 10,3422           37752        MARKOVER           CAF      MINUS1                                #  RUPTREG2 IS - MEANS ENDOFJOB TO ENDRET
001438: 10,3423           54161                           TS       OUTHERE
001439:
001440: 10,3424           30100                           CA       FLAGWRD4                              #  IS ENDIDFLG SET
001441: 10,3425           74355                           MASK     PRIO30                                #  IS NORMAL OR PRIO IN ENDIDLE
001442: 10,3426           10000                           CCS      A
001443: 10,3427           13062                           TCF      NORMBNCH
001444:
001445: 10,3430           30100        NORMRET            CA       FLAGWRD4                              #  IS MARK SLEEPING
001446: 10,3431           73525                           MASK     BITS5+11                              #  OR WAITING
001447: 10,3432           10000                           CCS      A
001448: 10,3433           13024                           TCF      MARKWAKE
001449:
001450: 10,3434           30100                           CA       FLAGWRD4                              #  NO
001451: 10,3435           73526                           MASK     BITS4+10                              #  IS NORMAL INTERRUPTED OR WAITING
001452: 10,3436           10000                           CCS      A
001453: 10,3437           13334                           TCF      NORMWAKE                              #  YES
001454:
001455: 10,3440           31071                           CA       EBANKTEM                              #  NO, WAS IT A FLASH REQUEST


001457: 10,3441           74771                           MASK     OCT50                                 #  OR A GODSPRET
001458: 10,3442           10000                           CCS      A
001459: 10,3443           13336                           TCF      ENDRET                                #  YES
001460: 10,3444           30371                           CA       NVSAVE
001461: 10,3445           00006                           EXTEND
001462: 10,3446           13336                           BZF      ENDRET
001463:
001464: 10,3447           35025                           CAF      PRIO15
001465: 10,3450           00004                           INHINT
001466: 10,3451           05072                           TC       NOVAC
001467: 10,3452     0367                                  EBANK=   NVWORD
001468: 10,3452           02616 20060                     2CADR    PLAYJUM1
001469:
001470:
001471: 10,3454           13336                           TCF      ENDRET
001472:
001473: 10,3455           30100        MARSLEEP           CA       FLAGWRD4                              #  IS MARK ALREADY IN
001474: 10,3456           73525                           MASK     BITS5+11
001475: 10,3457           10000                           CCS      A
001476: 10,3460           15155                           TCF      ENDOFJOB                              #  YES
001477: 10,3461           12755                           TCF      GOSLEEPS
001478:
001479: 10,3462           50157        LOADITIS           INDEX    COPMPAC
001480: 10,3463           30367                           CA       NVWORD
001481: 10,3464           76077                           MASK     LOW7
001482: 10,3465           40000                           COM
001483: 10,3466           60155                           AD       MPAC       +1                         #  NOUNREG
001484: 10,3467           00006                           EXTEND
001485: 10,3470           13312                           BZF      OKTOENT                               #  NO, THEN LOAD IS VALID
001486: 10,3471           13051                           TCF      PINBRNCH                              #  YES, ACCEPT LOAD BUT ASK FOR LAST AGAIN
001487:
001488: 10,3472           46250        ERASER             CS       THREE                                 #  BLANK EVERYTHINGEXCEPT MM
001489: 10,3473           04154                           TC       NVSUB
001490: 10,3474           15155                           TCF      ENDOFJOB
001491: 10,3475           15155                           TCF      ENDOFJOB
001492:
001493: 10,3476           00036        PERFMASK           OCT      0036                                  #  FLASH,PERFORM,BLANK R2 AND R3
001494: 10,3477           00231        V01N25             VN       00125
001495: 10,3500           01407        V06N07             VN       00607                                 #  GOPERF3 VN DISPLAY BEFORE V50
001496: 10,3501           14400        V50N00             VN       5000
001497: 10,3502           00030        PERF2MSK           OCT      00030                                 #  FLASH, PERFORM
001498: 10,3503           01006        V04N06             VN       00406
001499: 10,3504           00014        PERF4MSK           OCT      14                                    #  FLASH, BLANK R3
001500: 10,3505  10,3051               GOAGIN             EQUALS   PINBRNCH
001501: 10,3505           20010        REDOMASK           OCT      20010                                 #  BITS 4 AND 14
001502: 10,3506           40230        MARK3MSK           OCT      40230                                 #  MARK,DECIMAL NOUN, PERFORM,FLASH
001503: 10,3507           40036        MARK4MSK           OCT      40036                                 #  MARK,PERFORM,FLASH,BLANK 2 AND 3
001504: 10,3510           20543        NVCADR             CADR     REDOPRIO
001505: 10,3511           20400        WAKECADR           CADR     MARKPLAY
001506: 10,3512           20616                           CADR     PLAYJUM1
001507:


001509: 10,3513           03400        OCT3400            OCT      3400                                  #  EBANK MASK
001510: 10,3514           11210        NBUSMASK           OCT      11210
001511: 10,3515           66521        PMMASK             OCT      66521
001512: 10,3516     4144               VERBMASK           =        MID7                                  #  (OCT 37600)
001513: 10,3516           01177        V05N00M1           OCT      1177                                  #  V05 MINUS ONE
001514: 10,3517  10,2330               GOXDSP             EQUALS   GOMARK
001515: 10,3517  10,2350               GOXDSPR            EQUALS   GOMARKR
001516: 10,3517  10,2334               GOXDSPF            EQUALS   GOMARKF
001517: 10,3517  10,2353               GOXDSPFR           EQUALS   GOMARKFR
001518: 10,3517     5503               ENDEXT             EQUALS   ENDMARK
001519: 10,3517     0165               MPAC2SAV           EQUALS   BANKSET
001520: 10,3517           00700        NVBUSMSK           OCT      700
001521: 10,3520           00704        ASTROMSK           OCT      704
001522: 10,3521           40030        MPERFMSK           OCT      40030                                 #  BIT 15,5,4 FOR MARK,PERFORM,FLASH
001523: 10,3522           34300        OCT34300           OCT      34300
001524: 10,3523           40100        BITS15+7           OCT      40100
001525: 10,3524           00110        BITS7+4            OCT      110
001526: 10,3525     1067               DSPFLG             EQUALS   EBANKSAV
001527: 10,3525     1070               MARKFLAG           EQUALS   MARKEBAN
001528: 10,3525     1071               SAVEFLAG           EQUALS   EBANKTEM
001529: 10,3525           02020        BITS5+11           OCT      2020                                  #  * DONT MOVE
001530: 10,3526           01010        BITS4+10           OCT      1010                                  #  * DONT MOVE
001531: 10,3527           00026        LOWLOAD            DEC      22         B-14
001532: 10,3530           77730        BUSYMASK           OCT      77730
001533: 10,3531           00050        CADRMASK           OCT      50
001534: 10,3532     7743               PINMASK            EQUALS   13,14,15
001535: 10,3532  10,3071               GOPLAY             EQUALS   NVDSP
001536:                                                                                                  # PRIOSAVE       EQUALS  R1SAVE
001537: 10,3532     0157               COPMPAC            EQUALS   MPAC       +3
001538: 10,3532     0160               TEMPOR2            EQUALS   MPAC       +4
001539: 10,3532     0161               OUTHERE            EQUALS   MPAC       +5
001540: 10,3532     0164               COPINDEX           EQUALS   LOC
001541: 10,3532     0163               USERPRIO           EQUALS   MODE
001542: 10,3532     0162               GENMASK            EQUALS   MPAC       +6
001543: 10,3532           20144        PRIOOCT            OCT      20144                                 #  PRIO
001544: 10,3533           42424        MARKOCT            OCT      42424                                 #  MARK
001545: 10,3534           11254                           OCT      11254                                 #  NORM
001546:
001547: 10,3535           74704        IDLESLEP           OCT      74704
001548: 10,3536           67777        OCT67777           OCT      67777
001549: 10,3537     5475               LINUS              EQUALS   BLANKET
001550: 10,3537     0154               FACEREG            EQUALS   MPAC
001551: 10,3537     0155               PLAYTEM1           EQUALS   MPAC       +1
001552: 10,3537     0157               PLAYTEM3           EQUALS   MPAC       +3
001553: 10,3537     0160               PLAYTEM4           EQUALS   MPAC       +4
001554: 10,3537           40420        OCT40420           OCT      40420
001555: 10,3540           02547        MAKEGEN            GENADR   MAKEPLAY
001556: 10,3541           10200        OCT10200           OCT      10200
001557: 10,3542           30200        V97N00             VN       09700                                 #  PASTE FOR V97 OR V99
001558: 10,3543           20100        OCT20100           OCT      20100
001559: 10,3544           24030        CLOCKCON           OCT      24030                                 #  FLASH, PERFORM, V99 OR V97 PASTE,REFLASH

End of include-file DISPLAY_INTERFACE_ROUTINES.agc.  Parent file is MAIN.agc


