
Source Code


000002:                                                                                                  ## Copyright:   Public domain.
000003:                                                                                                  ## Filename:    DOWNLINK_LISTS.agc
000004:                                                                                                  ## Purpose:     A section of Luminary revision 178.
000005:                                                                                                  ##              It is part of the reconstructed source code for the final
000006:                                                                                                  ##              release of the flight software for the Lunar Module's
000007:                                                                                                  ##              (LM) Apollo Guidance Computer (AGC) for Apollo 14. The
000008:                                                                                                  ##              code has been recreated from copies of Zerlina 56, Luminary
000009:                                                                                                  ##              210, and Luminary 131, as well as many Luminary memos.
000010:                                                                                                  ##              It has been adapted such that the resulting bugger words
000011:                                                                                                  ##              exactly match those specified for Luminary 178 in NASA
000012:                                                                                                  ##              drawing 2021152N, which gives relatively high confidence
000013:                                                                                                  ##              that the reconstruction is correct.
000014:                                                                                                  ## Reference:   pp. 199-212
000015:                                                                                                  ## Assembler:   yaYUL
000016:                                                                                                  ## Contact:     Ron Burkey <info@sandroid.org>.
000017:                                                                                                  ## Website:     www.ibiblio.org/apollo/index.html
000018:                                                                                                  ## Mod history: 2019-08-14 MAS  Created from Zerlina 56.
000019:                                                                                                  ##              2019-08-31 MAS  Restored the LMREND07 downlist to what
000020:                                                                                                  ##                              it was in Luminary 131, deleted the
000021:                                                                                                  ##                              LMREND08 sublist, reverted the leadin
000022:                                                                                                  ##                              for RENDEZVU, deleted all of the DLxxx
000023:                                                                                                  ##                              tags, and replaced LRTIMEDL with MKTIME.
000024:


000026: 22,2004                                           BANK     22
000027: 05,2000                                           SETLOC   DOWNTELM
000028: 05,2000                                           BANK
000029:
000030: 05,2065     0340                                  EBANK=   DNTMBUFF
000031:
000032:                                                                                                  #  SPECIAL DOWNLINK OP CODES
000033:                                                                                                  #                                                    OP CODE ADDRESS(EXAMPLE) SENDS..     BIT 15  BITS 14-12 BITS 11
000034:                                                                                                  #                                                                                                                 -0
000035:                                                                                                  #                                                    ------ ----------      ----------    ------  ---------- -------
000036:                                                                                                  #                                                                                                                 --
000037:                                                                                                  #                                                    1DNADR TIME2           (2 AGC WDS)     0         0      ECADR
000038:                                                                                                  #                                                    2DNADR TEPHEM          (4 AGC WDS)     0         1      ECADR
000039:                                                                                                  #                                                    3DNADR VGBODY          (6 AGC WDS)     0         2      ECADR
000040:                                                                                                  #                                                    4DNADR STATE           (8 AGC WDS)     0         3      ECADR
000041:                                                                                                  #                                                    5DNADR UPBUFF          (10AGC WDS)     0         4      ECADR
000042:                                                                                                  #                                                    6DNADR DSPTAB          (12AGC WDS)     0         5      ECADR
000043:                                                                                                  #                                                    DNCHAN 30              CHANNELS        0         7      CHANNEL
000044:                                                                                                  #                                                                                                            ADDRESS
000045:                                                                                                  #                                                    DNPTR  NEXTLIST        POINTS TO NEXT  0         6      ADRES
000046:                                                                                                  #                                                                            LIST.
000047:
000048:                                                                                                  #  DOWNLIST FORMAT DEFINITIONS AND RULES-
000049:                                                                                                  #  1. END OF A LIST = -XDNADR (X = 1 TO 6), -DNPTR, OR -DNCHAN.
000050:                                                                                                  #  2. SNAPSHOT SUBLIST = LIST WHICH STARTS WITH A -1DNADR.
000051:                                                                                                  #  3. SNAPSHOT SUBLIST CAN ONLY CONTAIN 1DNADRS.
000052:                                                                                                  #  4. TIME2 1DNADR MUST BE LOCATED IN THE CONTROL LIST OF A DOWNLIST.
000053:                                                                                                  #  5. ERASABLE DOWN TELEMETRY WORDS SHOULD BE GROUPED IN SEQUENTIAL
000054:                                                                                                  #     LOCATIONS AS MUCH AS POSSIBLE TO SAVE STORAGE USED BY DOWNLINK LISTS.
000055:
000056: 05,2065                                           COUNT*   $$/DLIST
000057: 05,2065                        ERASZERO           EQUALS   7
000058: 05,2065  0000007               UNKNOWN            EQUALS   ERASZERO
000059: 05,2065  0000007               SPARE              EQUALS   ERASZERO                              #  USE SPARE TO INDICATE AVAILABLE SPACE
000060: 05,2065           77340        LOWIDCOD           OCT      77340                                 #  LOW ID CODE
000061:
000062:
000063: 05,2066  05,2173               NOMDNLST           EQUALS   COSTALIN                              #  FRESH START AND POST P27 DOWNLIST
000064: 05,2066  05,2420               AGSLIST            EQUALS   AGSI/UPD
000065: 05,2066  05,2420               UPDNLIST           EQUALS   AGSI/UPD                              #  UPDATE PROGRAM (P27) DOWNLIST
000066:


000068:                                                                                                  #  LM ORBITAL MANEUVERS LIST
000069:
000070:                                                                                                  #      -----------------  CONTROL LIST  --------------------------
000071:
000072: 05,2066                        ORBMANUV           EQUALS                                         #  SEND ID BY SPECIAL CODING
000073: 05,2066           32127                           DNPTR    LMORBM01                              #  COLLECT SNAPSHOT
000074: 05,2067           24340                           6DNADR   DNTMBUFF                              #  SEND SNAPSHOT
000075: 05,2070           03451                           1DNADR   DELLT4                                #  DELLT4,+1
000076: 05,2071           13443                           3DNADR   RTARG                                 #  RTARG,+1...+5
000077: 05,2072           02256                           1DNADR   ELEV                                  #  ELEV,+1
000078: 05,2073           01341                           1DNADR   TEVENT                                #  TEVENT,+1
000079: 05,2074           25731                           6DNADR   REFSMMAT                              #  REFSMMAT+0...+11D
000080: 05,2075           03633                           1DNADR   TCSI                                  #  TCSI,+1
000081: 05,2076           12266                           3DNADR   DELVEET1                              #  DELVEET1+0...+5
000082: 05,2077           13700                           3DNADR   VGTIG                                 #  VGTIG+0...+5
000083: 05,2100           01335                           1DNADR   DNLRVELZ                              #  DNLRVELZ,DNLRALT
000084: 05,2101           03630                           1DNADR   TPASS4                                #  TPASS4,+1
000085: 05,2102           32136                           DNPTR    LMORBM02                              #  COMMON DATA
000086: 05,2103           00024                           1DNADR   TIME2                                 #  TIME2/1
000087: 05,2104           32145                           DNPTR    LMORBM03                              #  COLLECT SNAPSHOT
000088: 05,2105           24340                           6DNADR   DNTMBUFF                              #  SEND SNAPSHOT
000089: 05,2106           32154                           DNPTR    LMORBM04                              #  COMMON DATA
000090: 05,2107           07115                           2DNADR   POSTORKU                              #  POSTORKU,NEGTORKU,POSTORKV,NEGTORKV
000091: 05,2110           01355                           1DNADR   SERVDURN                              #  SERVDURN,DUMLOOPS
000092: 05,2111           01774                           1DNADR   TCDH                                  #  TCDH,+1
000093: 05,2112           12274                           3DNADR   DELVEET2                              #  DELVEET2+0...+5
000094: 05,2113           03635                           1DNADR   TTPI                                  #  TTPI,+1
000095: 05,2114           12365                           3DNADR   DELVEET3                              #  DELVEET3+0...+5
000096: 05,2115           01330                           1DNADR   DNRRANGE                              #  DNRRANGE,DNRRDOT
000097: 05,2116           05333                           2DNADR   DNLRVELX                              #  DNLRVELX,DNLRVELY,DNLRVELZ,DNLRALT
000098: 05,2117           03577                           1DNADR   DIFFALT                               #  DIFFALT,+1
000099: 05,2120           01326                           1DNADR   LEMMASS                               #  LEMMASS,CSMMASS
000100: 05,2121           01277                           1DNADR   IMODES30                              #  IMODES30,IMODES33
000101: 05,2122           03441                           1DNADR   TIG                                   #  TIG,+1
000102: 05,2123           32160                           DNPTR    LMORBM05                              #  COMMON DATA
000103: 05,2124           32171                           DNPTR    LMORBM06                              #  COMMON DATA
000104: 05,2125           00007                           1DNADR   SPARE                                 #  FORMERLY PIF
000105: 05,2126           74261                           -1DNADR  TGO                                   #  TGO,+1
000106:
000107:                                                                                                  #      -----------------  SUB-LISTS  ----------------------------
000108:
000109: 05,2127           76060        LMORBM01           -1DNADR  R-OTHER    +2                         #  R-OTHER+2,+3             SNAPSHOT
000110: 05,2130           01721                           1DNADR   R-OTHER    +4                         #  R-OTHER+4,+5
000111: 05,2131           01723                           1DNADR   V-OTHER                               #  V-OTHER,+1
000112: 05,2132           01725                           1DNADR   V-OTHER    +2                         #  V-OTHER+2,+3
000113: 05,2133           01727                           1DNADR   V-OTHER    +4                         #  V-OTHER+4,+5
000114: 05,2134           01570                           1DNADR   T-OTHER                               #  T-OTHER,+1
000115: 05,2135           76062                           -1DNADR  R-OTHER                               #  R-OTHER+0,+1
000116:
000117: 05,2136           04320        LMORBM02           2DNADR   REDOCTR                               #  REDOCTR,THETAD,+1,+2     COMMON DATA
000118:


000120: 05,2137           01432                           1DNADR   RSBBQ                                 #  RSBBQ,+1
000121: 05,2140           07021                           2DNADR   OMEGAP                                #  OMEGAP,OMEGAQ,OMEGAR,GARBAGE
000122: 05,2141           07234                           2DNADR   CDUXD                                 #  CDUXD,CDUYD,CDUZD,GARBAGE
000123: 05,2142           04032                           2DNADR   CDUX                                  #  CDUX,CDUY,CDUZ,CDUT
000124: 05,2143           24074                           6DNADR   STATE                                 #  STATE+0...+11D (FLAGWORDS)
000125: 05,2144           52755                           -6DNADR  DSPTAB                                #  DSPTAB TABLES
000126:
000127: 05,2145           76556        LMORBM03           -1DNADR  RN         +2                         #  RN +2,+3                 SNAPSHOT
000128: 05,2146           01223                           1DNADR   RN         +4                         #  RN +4,+5
000129: 05,2147           01225                           1DNADR   VN                                    #  VN,+1
000130: 05,2150           01227                           1DNADR   VN         +2                         #  VN +2,+3
000131: 05,2151           01231                           1DNADR   VN         +4                         #  VN +4,+5
000132: 05,2152           01233                           1DNADR   PIPTIME                               #  PIPTIME,+1
000133: 05,2153           76560                           -1DNADR  RN                                    #  RN,+1
000134:
000135: 05,2154           07242        LMORBM04           2DNADR   OMEGAPD                               #  OMEGAPD,OMEGAQD,OMEGARD,GARBAGE
000136: 05,2155           34076                           DNCHAN   76                                    #  GARBAGE,CHANNEL77
000137: 05,2156           04374                           2DNADR   CADRFLSH   +2                         #  CADRFLSH +2,FAILREG,+1,+2
000138: 05,2157           77667                           -1DNADR  RADMODES                              #  RADMODES,DAPBOOLS        COMMON DATA
000139:
000140: 05,2160           07021        LMORBM05           2DNADR   OMEGAP                                #  OMEGAP,OMEGAQ,OMEGAR,GARBAGE
000141: 05,2161           07234                           2DNADR   CDUXD                                 #  CDUXD,CDUXD,CDUZD,GARBAGE
000142: 05,2162           04032                           2DNADR   CDUX                                  #  CDUX,CDUY,CDUZ,CDUT
000143: 05,2163           03024                           1DNADR   ALPHAQ                                #  ALPHAQ,ALPHAR            COMMON DATA
000144: 05,2164           03113                           1DNADR   POSTORKP                              #  POSTORKP,NEGTORKP
000145: 05,2165           34011        LMORBM09           DNCHAN   11                                    #  CHANNEL11 ,12
000146: 05,2166           34013                           DNCHAN   13                                    #  CHANNELS13,14
000147: 05,2167           34030                           DNCHAN   30                                    #  CHANNELS30,31
000148: 05,2170           43745                           -DNCHAN  32                                    #  CHANNELS32,33
000149:
000150: 05,2171           03560        LMORBM06           1DNADR   PIPTIME1                              #  PIPTIME,+1               COMMON DATA
000151: 05,2172           67453                           -3DNADR  DELV                                  #  DELV+0...+5
000152:


000154:                                                                                                  #  LM COAST AND ALIGNMENT DOWNLIST
000155:
000156:                                                                                                  #      -----------------  CONTROL LIST  --------------------------
000157:
000158: 05,2173                        COSTALIN           EQUALS                                         #  SEND ID BY SPECIAL CODING
000159: 05,2173           32127                           DNPTR    LMCSTA01                              #  COLLECT SNAPSHOT
000160: 05,2174           24340                           6DNADR   DNTMBUFF                              #  SEND SNAPSHOT
000161: 05,2175           03371                           1DNADR   AGSK                                  #  AGSK,+1
000162: 05,2176           02774                           1DNADR   TALIGN                                #  TALIGN,+1
000163: 05,2177           07115                           2DNADR   POSTORKU                              #  POSTORKU,NEGTORKU,POSTORKV,NEGTORKV
000164: 05,2200           01330                           1DNADR   DNRRANGE                              #  DNRRANGE,DNRRDOT
000165: 05,2201           01341                           1DNADR   TEVENT                                #  TEVENT,+1
000166: 05,2202           25731                           6DNADR   REFSMMAT                              #  REFSMMAT+0...+11D
000167: 05,2203           00734                           1DNADR   AOTCODE                               #  AOTCODE,GARBAGE
000168: 05,2204           12020                           3DNADR   RLS                                   #  RLS+0...+5
000169: 05,2205           05333                           2DNADR   DNLRVELX                              #  DNLRVELX,DNLRVELY,DNLRVELZ,DNLRALT
000170: 05,2206           13700                           3DNADR   VGTIG                                 #  VGTIGX,Y,Z
000171: 05,2207           32136                           DNPTR    LMCSTA02                              #  COMMON DATA
000172: 05,2210           00024                           1DNADR   TIME2                                 #  TIME2/1
000173: 05,2211           32145                           DNPTR    LMCSTA03                              #  COLLECT SNAPSHOT
000174: 05,2212           24340                           6DNADR   DNTMBUFF                              #  SEND SNAPSHOT
000175: 05,2213           32154                           DNPTR    LMCSTA04                              #  COMMON DATA
000176: 05,2214           32230                           DNPTR    LMCSTA07                              #  COMMON DATA
000177: 05,2215           01355                           1DNADR   SERVDURN                              #  SERVDURN,DUMLOOPS
000178: 05,2216           01516                           1DNADR   TET                                   #  TET,+1
000179: 05,2217           04036                           2DNADR   CDUS                                  #  CDUS,PIPAX,PIPAY,PIPAZ
000180: 05,2220           00112                           1DNADR   LASTYCMD                              #  LASTYCMD,LASTXCMD
000181: 05,2221           01326                           1DNADR   LEMMASS                               #  LEMMASS,CSMMASS
000182: 05,2222           01277                           1DNADR   IMODES30                              #  IMODES30,IMODES33
000183: 05,2223           03441                           1DNADR   TIG                                   #  TIG,+1
000184: 05,2224           32160                           DNPTR    LMCSTA05                              #  COMMON DATA
000185: 05,2225           52755                           -6DNADR  DSPTAB                                #  DSPTAB+0...+11D TABLE
000186:
000187:                                                                                                  #      -----------------  SUB-LISTS  ----------------------------
000188:
000189: 05,2226  05,2127               LMCSTA01           EQUALS   LMORBM01                              #  COMMON DOWNLIST DATA
000190:
000191: 05,2226  05,2136               LMCSTA02           EQUALS   LMORBM02                              #  COMMON DOWNLIST DATA
000192:
000193: 05,2226  05,2145               LMCSTA03           EQUALS   LMORBM03                              #  COMMON DOWNLIST DATA
000194:
000195: 05,2226  05,2154               LMCSTA04           EQUALS   LMORBM04                              #  COMMON DOWNLIST DATA
000196:
000197: 05,2226  05,2160               LMCSTA05           EQUALS   LMORBM05                              #  COMMON DOWNLIST DATA
000198:
000199: 05,2226           05700        LMCSTA06           2DNADR   X789                                  #  X789+0...+3              COMMON DATA
000200: 05,2227           77665                           -1DNADR  LASTYCMD                              #  LASTYCMD,LASTXCMD
000201:
000202: 05,2230           12737        LMCSTA07           3DNADR   OGC                                   #  OGC,+1,IGC,+1,MGC,+1     COMMON DATA
000203: 05,2231           02755                           1DNADR   BESTI                                 #  BESTI,BESTJ
000204:                                                                                                  #  Page 204
000205: 05,2232           12760                           3DNADR   STARSAV1                              #  STARSAV1+0...+5
000206: 05,2233           65011                           -3DNADR  STARSAV2                              #  STARSAV2+0...+5
000207:


000209:                                                                                                  #  LM RENDEZVOUS AND PRE-THRUST DOWNLIST
000210:
000211:                                                                                                  #      -----------------  CONTROL LIST  --------------------------
000212:
000213: 05,2234                        RENDEZVU           EQUALS                                         #  SEND ID BY SPECIAL CODING
000214: 05,2234           32127                           DNPTR    LMREND01                              #  COLLECT SNAPSHOT
000215: 05,2235           24340                           6DNADR   DNTMBUFF                              #  SEND SNAPSHOT
000216: 05,2236           32300                           DNPTR    LMREND07                              #  COLLECT SNAPSHOT
000217: 05,2237           14340                           4DNADR   DNTMBUFF                              #  SEND SNAPSHOT
000218: 05,2240           03451                           1DNADR   DELLT4                                #  DELLT4,+1
000219: 05,2241           13443                           3DNADR   RTARG                                 #  RTARG +0...+5
000220: 05,2242           13433                           3DNADR   DELVSLV                               #  DELVSLV+0...+5
000221: 05,2243           03633                           1DNADR   TCSI                                  #  TCSI,+1
000222: 05,2244           12266                           3DNADR   DELVEET1                              #  DELVEET+0...+5
000223: 05,2245           01355                           1DNADR   SERVDURN                              #  SERVDURN,DUMLOOPS
000224: 05,2246           03630                           1DNADR   TPASS4                                #  TPASS4,+1
000225: 05,2247           32226                           DNPTR    LMREND06                              #  COMMON DATA
000226: 05,2250           32136                           DNPTR    LMREND02                              #  COMMON DATA
000227: 05,2251           00024                           1DNADR   TIME2                                 #  TIME2/1
000228: 05,2252           32145                           DNPTR    LMREND03                              #  COLLECT SNAPSHOT
000229: 05,2253           24340                           6DNADR   DNTMBUFF                              #  SEND SNAPSHOT
000230: 05,2254           32154                           DNPTR    LMREND04                              #  COMMON DATA
000231: 05,2255           07115                           2DNADR   POSTORKU                              #  POSTORKU,NEGTORKU,POSTORKV,NEGTORKV
000232: 05,2256           00007                           1DNADR   SPARE
000233: 05,2257           01774                           1DNADR   TCDH                                  #  TCDH,+1
000234: 05,2260           12274                           3DNADR   DELVEET2                              #  DELVEET2+0...+5
000235: 05,2261           03635                           1DNADR   TTPI                                  #  TTPI,+1
000236: 05,2262           12365                           3DNADR   DELVEET3                              #  DELVEET3+0...+5
000237: 05,2263           02256                           1DNADR   ELEV                                  #  ELEV,+1
000238: 05,2264           04036                           2DNADR   CDUS                                  #  CDUS,PIPAX,PIPAY,PIPAZ
000239: 05,2265           00112                           1DNADR   LASTYCMD                              #  LASTYCMD,LASTXCMD
000240: 05,2266           01326                           1DNADR   LEMMASS                               #  LEMMASS,CSMMASS
000241: 05,2267           01277                           1DNADR   IMODES30                              #  IMODES30,IMODES33
000242: 05,2270           03441                           1DNADR   TIG                                   #  TIG,+1
000243: 05,2271           32160                           DNPTR    LMREND05                              #  COMMON DATA
000244: 05,2272           01516                           1DNADR   TET                                   #  TET,+1
000245: 05,2273           03620                           1DNADR   CENTANG                               #  CENTANG,+1
000246: 05,2274           03466                           1DNADR   NN                                    #  NN,+1
000247: 05,2275           03577                           1DNADR   DIFFALT                               #  DIFFALT,+1
000248: 05,2276           02347                           1DNADR   DELVTPF                               #  DELVTPF,+1
000249: 05,2277           77770                           -1DNADR  SPARE
000250:
000251:                                                                                                  #      -----------------  SUB-LISTS  ----------------------------
000252:
000253: 05,2300  05,2127               LMREND01           EQUALS   LMORBM01                              #  COMMON DOWNLIST DATA
000254:
000255: 05,2300  05,2136               LMREND02           EQUALS   LMORBM02                              #  COMMON DOWNLIST DATA
000256:
000257: 05,2300  05,2145               LMREND03           EQUALS   LMORBM03                              #  COMMON DOWNLIST DATA
000258:
000259: 05,2300  05,2154               LMREND04           EQUALS   LMORBM04                              #  COMMON DOWNLIST DATA


000261:
000262: 05,2300  05,2160               LMREND05           EQUALS   LMORBM05                              #  COMMON DOWNLIST DATA
000263:
000264: 05,2300  05,2226               LMREND06           EQUALS   LMCSTA06                              #  COMMON DOWNLIST DATA
000265:
000266: 05,2300           74320        LMREND07           -1DNADR  AIG                                   #  AIG,AMG       SNAPSHOT
000267: 05,2301           03461                           1DNADR   AOG                                   #  AOG,TRKMKCNT
000268: 05,2302           03752                           1DNADR   TANGNB                                #  TANGNB,+1
000269: 05,2303           03754                           1DNADR   MKTIME                                #  MKTIME,+1
000270: 05,2304           74017                           -1DNADR  RANGRDOT                              #  DNRRANGE,DNRRDOT
000271:


000273:                                                                                                  #  LM DESCENT AND ASCENT DOWNLIST
000274:
000275:                                                                                                  #      -----------------  CONTROL LIST  --------------------------
000276:
000277: 05,2305                        DESC/ASC           EQUALS                                         #  SEND ID BY SPECIAL CODING
000278: 05,2305           00007                           1DNADR   SPARE
000279: 05,2306           00007                           1DNADR   SPARE
000280: 05,2307           00007                           1DNADR   SPARE
000281: 05,2310           32357                           DNPTR    LMDSAS08                              #  COLLECT SNAPSHOT
000282: 05,2311           00340                           1DNADR   DNTMBUFF                              #  SEND SNAPSHOT
000283: 05,2312           32350                           DNPTR    LMDSAS07                              #  COLLECT SNAPSHOT
000284: 05,2313           24340                           6DNADR   DNTMBUFF                              #  SEND SNAPSHOT
000285: 05,2314           01341                           1DNADR   TEVENT                                #  TEVENT,+1
000286: 05,2315           13252                           3DNADR   UNFC/2                                #  UNFC/2+0...+5
000287: 05,2316           13645                           3DNADR   VGVECT                                #  VGVECT+0...+5
000288: 05,2317           03642                           1DNADR   TTF/8                                 #  TTF/8,+1
000289: 05,2320           03664                           1DNADR   DELTAH                                #  DELTAH,+1
000290: 05,2321           12020                           3DNADR   RLS                                   #  RLS+0...+5
000291: 05,2322           02276                           1DNADR   ZDOTD                                 #  ZDOTD,+1
000292: 05,2323           32226                           DNPTR    LMDSAS09                              #  COMMON DATA
000293: 05,2324           32136                           DNPTR    LMDSAS02                              #  COMMON DATA
000294: 05,2325           00024                           1DNADR   TIME2                                 #  TIME2/1
000295: 05,2326           32145                           DNPTR    LMDSAS03                              #  COLLECT SNAPSHOT
000296: 05,2327           24340                           6DNADR   DNTMBUFF                              #  SEND SNAPSHOT
000297: 05,2330           32154                           DNPTR    LMDSAS04                              #  COMMON DATA
000298: 05,2331           07115                           2DNADR   POSTORKU                              #  POSTORKU,NEGTORKU,POSTORKV,NEGTORKV
000299: 05,2332           12623                           3DNADR   RGU                                   #  RGU+0...+5
000300: 05,2333           13626                           3DNADR   VGU                                   #  VGU+0...+5
000301: 05,2334           13634                           3DNADR   LAND                                  #  LAND+0...+5
000302: 05,2335           02262                           1DNADR   AT                                    #  AT,+1
000303: 05,2336           02026                           1DNADR   TLAND                                 #  TLAND,+1
000304: 05,2337           03507                           1DNADR   DVTOTAL                               #  DVTOTAL,+1
000305: 05,2340           00112                           1DNADR   LASTYCMD                              #  LASTYCMD,LASTXCMD
000306: 05,2341           01326                           1DNADR   LEMMASS                               #  LEMMASS,CSMMASS
000307: 05,2342           01277                           1DNADR   IMODES30                              #  IMODES30,IMODES33
000308: 05,2343           03441                           1DNADR   TIG                                   #  TIG,+1
000309: 05,2344           32160                           DNPTR    LMDSAS05                              #  COMMON DATA
000310: 05,2345           32171                           DNPTR    LMDSAS06                              #  COMMON DATA
000311: 05,2346           03614                           1DNADR   PSEUDO55                              #  PSEUDO55,GARBAGE
000312: 05,2347           74324                           -1DNADR  TTOGO                                 #  TTOGO,+1
000313:                                                                                                  #      -----------------  SUB-LISTS   ----------------------------
000314:
000315: 05,2350  05,2136               LMDSAS02           EQUALS   LMORBM02                              #  COMMON DOWNLIST DATA
000316:
000317: 05,2350  05,2145               LMDSAS03           EQUALS   LMORBM03                              #  COMMON DOWNLIST DATA
000318:
000319: 05,2350  05,2154               LMDSAS04           EQUALS   LMORBM04                              #  COMMON DOWNLIST DATA
000320:
000321: 05,2350  05,2160               LMDSAS05           EQUALS   LMORBM05                              #  COMMON DOWNLIST DATA


000323:
000324: 05,2350  05,2171               LMDSAS06           EQUALS   LMORBM06                              #  COMMON DOWNLIST DATA
000325:
000326: 05,2350           74001        LMDSAS07           -1DNADR  HMEASDL                               #  HMEASDL,+1
000327: 05,2351           03652                           1DNADR   VMEAS                                 #  VMEAS,+1
000328: 05,2352           03457                           1DNADR   AIG                                   #  AIG,AMG
000329: 05,2353           03461                           1DNADR   AOG                                   #  AOG,VSELECT
000330: 05,2354           03732                           1DNADR   LATVMETR                              #  LATVMETR,FORVMETR
000331: 05,2355           01355                           1DNADR   SERVDURN                              #  SERVDURN,DUMLOOPS
000332: 05,2356           74023                           -1DNADR  MKTIME                                #  MKTIME,+1
000333:
000334: 05,2357           74025        LMDSAS08           -1DNADR  GTCTIME                               #  GTCTIME,+1
000335: 05,2360           74162                           -1DNADR  FC                                    #  FC, GARBAGE
000336: 05,2361  05,2226               LMDSAS09           EQUALS   LMCSTA06                              #  COMMON DOWNLIST DATA
000337:


000339:                                                                                                  #  LM LUNAR SURFACE ALIGN DOWNLIST
000340:
000341:                                                                                                  #      -----------------  CONTROL LIST  --------------------------
000342:
000343: 05,2361                        SURFALIN           EQUALS                                         #  SEND ID BY SPECIAL CODING
000344: 05,2361           32127                           DNPTR    LMLSAL01                              #  COLLECT SNAPSHOT
000345: 05,2362           24340                           6DNADR   DNTMBUFF                              #  SEND SNAPSHOT
000346: 05,2363           32300                           DNPTR    LMLSAL07                              #  COLLECT SNAPSHOT
000347: 05,2364           14340                           4DNADR   DNTMBUFF                              #  SEND SHAPSHOT
000348: 05,2365           02774                           1DNADR   TALIGN                                #  TALIGN,+1
000349: 05,2366           25731                           6DNADR   REFSMMAT                              #  REFSMMAT+0...+11D
000350: 05,2367           26236                           6DNADR   YNBSAV                                #  YNBSAV+0...+5,ZNBSAV+0...+5
000351: 05,2370           01700                           1DNADR   X789                                  #  X789,+1
000352: 05,2371           01516                           1DNADR   TET                                   #  TET,+1
000353: 05,2372           00112                           1DNADR   LASTYCMD                              #  LASTYCMD,LASTXCMD
000354: 05,2373           32136                           DNPTR    LMLSAL02                              #  COMMON DATA
000355: 05,2374           00024                           1DNADR   TIME2                                 #  TIME/1
000356: 05,2375           32145                           DNPTR    LMLSAL03                              #  COLLECT SNAPSHOT
000357: 05,2376           24340                           6DNADR   DNTMBUFF                              #  SEND SHAPSHOT
000358: 05,2377           32154                           DNPTR    LMLSAL04                              #  COMMON DATA
000359: 05,2400           32230                           DNPTR    LMLSAL08                              #  COMMON DATA
000360: 05,2401           12230                           3DNADR   GSAV                                  #  GSAV +0...+5
000361: 05,2402           03371                           1DNADR   AGSK                                  #  AGSK,+1
000362: 05,2403           00112                           1DNADR   LASTYCMD                              #  LASTYCMD,LASTXCMD
000363: 05,2404           01326                           1DNADR   LEMMASS                               #  LEMMASS,CSMMASS
000364: 05,2405           01277                           1DNADR   IMODES30                              #  IMODES30,IMODES33
000365: 05,2406           03441                           1DNADR   TIG                                   #  TIG,+1
000366: 05,2407           07021                           2DNADR   OMEGAP                                #  OMEGAP,OMEGAQ,OMEGAR,GARBAGE
000367: 05,2410           07234                           2DNADR   CDUXD                                 #  CDUXD,CDUYD,CDUZD,GARBAGE
000368: 05,2411           04032                           2DNADR   CDUX                                  #  CDUX,CDUY,CDUZ,CDUT
000369: 05,2412           03024                           1DNADR   ALPHAQ                                #  ALPHAQ,ALPHAR            COMMON DATA
000370: 05,2413           00734                           1DNADR   AOTCODE                               #  AOTCODE,GARBAGE
000371: 05,2414           32165                           DNPTR    LMLSAL09                              #  COMMON DATA
000372: 05,2415           32171                           DNPTR    LMLSAL06                              #  COMMON DATA
000373: 05,2416           03561                           1DNADR   TSIGHT                                #  TSIGHT,TSIGHT +1
000374: 05,2417           76542                           -1DNADR  CURSOR                                #  AOT CURSOR,SPIRAL
000375:                                                                                                  #      -----------------  SUB-LISTS  ----------------------------
000376:
000377: 05,2420  05,2127               LMLSAL01           EQUALS   LMORBM01                              #  COMMON DOWNLIST DATA
000378:
000379: 05,2420  05,2136               LMLSAL02           EQUALS   LMORBM02                              #  COMMON DOWNLIST DATA
000380:
000381: 05,2420  05,2145               LMLSAL03           EQUALS   LMORBM03                              #  COMMON DOWNLIST DATA
000382:
000383: 05,2420  05,2154               LMLSAL04           EQUALS   LMORBM04                              #  COMMON DOWNLIST DATA
000384:
000385: 05,2420  05,2160               LMLSAL05           EQUALS   LMCSTA05                              #  COMMON DOWNLIST DATA
000386:
000387: 05,2420  05,2171               LMLSAL06           EQUALS   LMORBM06                              #  COMMON DOWNLIST DATA


000389:
000390: 05,2420  05,2300               LMLSAL07           EQUALS   LMREND07                              #  COMMON DOWNLIST DATA
000391:
000392: 05,2420  05,2230               LMLSAL08           EQUALS   LMCSTA07                              #  COMMON DOWNLIST DATA
000393: 05,2420  05,2165               LMLSAL09           EQUALS   LMORBM09                              #  COMMON DOWNLIST DATA
000394:


000396:                                                                                                  #  LM AGS INITIALIZATION AND UPDATE DOWNLIST
000397:
000398:                                                                                                  #      -----------------  CONTROL LIST  --------------------------
000399:
000400: 05,2420                        AGSI/UPD           EQUALS                                         #  SEND IO BY SPECIAL CODING
000401: 05,2420           12200                           3DNADR   AGSBUFF    +0                         #  AGSBUFF+0...+5
000402: 05,2421           02214                           1DNADR   AGSBUFF    +12D                       #  AGSBUFF+12D,GARBAGE
000403: 05,2422           12201                           3DNADR   AGSBUFF    +1                         #  AGSBUFF+1...+6
000404: 05,2423           02215                           1DNADR   AGSBUFF    +13D                       #  AGSBUFF+13D, GARBAGE
000405: 05,2424           12206                           3DNADR   AGSBUFF    +6                         #  AGSBUFF+6...+11
000406: 05,2425           02214                           1DNADR   AGSBUFF    +12D                       #  AGSBUFF+12,GARBAGE
000407: 05,2426           12207                           3DNADR   AGSBUFF    +7                         #  AGSBUFF+7...+12D
000408: 05,2427           02215                           1DNADR   AGSBUFF    +13D                       #  AGSBUFF+13D,GARBAGE
000409: 05,2430           25167                           6DNADR   COMPNUMB                              #  COMPNUMB,UPOLDMOD,UPVERB,UPCOUNT,
000410:                                                                                                  #  UPBUFF+0...+7
000411: 05,2431           25203                           6DNADR   UPBUFF     +8D                        #  UPBUFF +8D...+19D
000412: 05,2432           32136                           DNPTR    LMAGSI02                              #  COMMON DATA
000413: 05,2433           00024                           1DNADR   TIME2                                 #  TIME2/1
000414: 05,2434           32145                           DNPTR    LMAGSI03                              #  COLLECT SNAPSHOT
000415: 05,2435           24340                           6DNADR   DNTMBUFF                              #  SEND SNAPSHOT
000416: 05,2436           32154                           DNPTR    LMAGSI04                              #  COMMON DATA
000417: 05,2437           07115                           2DNADR   POSTORKU                              #  POSTORKU,NEGTORKU,POSTORKV,NEGTORKV
000418: 05,2440           01355                           1DNADR   SERVDURN                              #  SERVDURN,DUMLOOPS
000419: 05,2441           00007                           1DNADR   SPARE
000420: 05,2442           03371                           1DNADR   AGSK                                  #  AGSK,+1
000421: 05,2443           25173                           6DNADR   UPBUFF                                #  UPBUFF+0...+11D
000422: 05,2444           15207                           4DNADR   UPBUFF     +12D                       #  UPBUFF+12D...+19D
000423: 05,2445           01326                           1DNADR   LEMMASS                               #  LEMMASS,CSMMASS
000424: 05,2446           01277                           1DNADR   IMODES30                              #  IMODES30,IMODES33
000425: 05,2447           00007                           1DNADR   SPARE
000426: 05,2450           32160                           DNPTR    LMAGSI05                              #  COMMON DATA
000427: 05,2451           52755                           -6DNADR  DSPTAB                                #  DSPTAB+0...+11D
000428:
000429:                                                                                                  #      -----------------  SUB-LISTS  ----------------------------
000430:
000431: 05,2452  05,2136               LMAGSI02           EQUALS   LMORBM02                              #  COMMON DOWNLIST DATA
000432:
000433: 05,2452  05,2145               LMAGSI03           EQUALS   LMORBM03                              #  COMMON DOWNLIST DATA
000434:
000435: 05,2452  05,2154               LMAGSI04           EQUALS   LMORBM04                              #  COMMON DOWNLIST DATA
000436:
000437: 05,2452  05,2160               LMAGSI05           EQUALS   LMORBM05                              #  COMMON DOWNLIST DATA
000438:
000439:                                                                                                  #  -------------------------------------------------------------------
000440: 05,2452           02173        DNTABLE            GENADR   COSTALIN                              #  LM COAST AND ALIGN DOWNLIST
000441: 05,2453           02420                           GENADR   AGSI/UPD                              #  LM AGS INITIALIZATION/UPDATE DOWNLIST
000442: 05,2454           02234                           GENADR   RENDEZVU                              #  LM RENDEZVOUS AND PRETHRUST DOWNLIST
000443: 05,2455           02066                           GENADR   ORBMANUV                              #  LM ORBITAL MANEUVERS DOWNLIST
000444: 05,2456           02305                           GENADR   DESC/ASC                              #  LM DESCENT AND ASCENT DOWNLIST
000445: 05,2457           02361                           GENADR   SURFALIN                              #  LM LUNAR SURFACE ALIGN DOWNLIST
000446:                                                                                                  #  ----------------------------------------------------------
000447:
000448:

End of include-file DOWNLINK_LISTS.agc.  Parent file is MAIN.agc


