
Source Code


000002:                                                                                                  ## Copyright:   Public domain.
000003:                                                                                                  ## Filename:    DOWN-TELEMETRY_PROGRAM.agc
000004:                                                                                                  ## Purpose:     A section of Luminary revision 178.
000005:                                                                                                  ##              It is part of the reconstructed source code for the final
000006:                                                                                                  ##              release of the flight software for the Lunar Module's
000007:                                                                                                  ##              (LM) Apollo Guidance Computer (AGC) for Apollo 14. The
000008:                                                                                                  ##              code has been recreated from copies of Zerlina 56, Luminary
000009:                                                                                                  ##              210, and Luminary 131, as well as many Luminary memos.
000010:                                                                                                  ##              It has been adapted such that the resulting bugger words
000011:                                                                                                  ##              exactly match those specified for Luminary 178 in NASA
000012:                                                                                                  ##              drawing 2021152N, which gives relatively high confidence
000013:                                                                                                  ##              that the reconstruction is correct.
000014:                                                                                                  ## Reference:   pp. 979-988
000015:                                                                                                  ## Assembler:   yaYUL
000016:                                                                                                  ## Contact:     Ron Burkey <info@sandroid.org>.
000017:                                                                                                  ## Website:     www.ibiblio.org/apollo/index.html
000018:                                                                                                  ## Mod history: 2019-08-14 MAS  Created from Zerlina 56.
000019:                                                                                                  ##              2019-09-15 MAS  Restored the definitions of DNECADR,
000020:                                                                                                  ##                              CTLIST, and SUBLIST.
000021:


000023:                                                                                                  #  PROGRAM NAME- DOWN TELEMETRY PROGRAM
000024:                                                                                                  #  MOD NO.- 0      TO COMPLETELY REWRITE THE DOWN TELEMETRY PROGRAM AND DOWNLINK ERASABLE DUMP PROGRAM FOR THE
000025:                                                                                                  #                  PURPOSE OF SAVING APPROXIMATELY 150 WORDS OF CORE STORAGE.
000026:                                                                                                  #                  THIS CHANGE REQUIRES AN ENTIRELY NEW METHOD OF SPECIFYING DOWNLINK LISTS.REFER TO DOWNLINK
000027:                                                                                                  #                  LISTS LOG SECTION FOR MORE DETAILS. HOWEVER THIS CHANGE WILL NOT AFFECT THE GROUND PROCESSING
000028:                                                                                                  #                  OF DOWN TELEMETRY DATA.
000029:                                                                                                  #  MOD BY-  KILROY, SMITH, DEWITT
000030:                                                                                                  #  DATE-    02OCT67
000031:                                                                                                  #  AUTHORS- KILROY, SMITH, DEWITT, DEWOLF, FAGIN
000032:                                                                                                  #  LOG SECTION- DOWN-TELEMETRY PROGRAM
000033:                                                                                                  #  FUNCTIONAL DESCRIPTION- THIS ROUTINE IS INITIATED BY TELEMETRY END
000034:                                                                                                  #           PULSE FROM THE DOWNLINK TELEMETRY CONVERTER. THIS PULSE OCCURS
000035:                                                                                                  #           AT 50 TIMES PER SEC(EVERY 20 MS) THEREFORE DODOWNTM IS
000036:                                                                                                  #           EXECUTED AT THESE RATES. THIS ROUTINE SELECTS THE APPROPRIATE
000037:                                                                                                  #           AGC DATA TO BE TRANSMITTED DOWNLINK AND LOADS IT INTO OUTPUT
000038:                                                                                                  #           CHANNELS 34 AND 35. THE INFORMATION IS THEN GATED OUT FROM THE
000039:                                                                                                  #           LGC IN SERIAL FASHION.
000040:                                                                                                  #           THIS PROGRAM IS CODED FOR A 2 SECOND DOWNLIST. SINCE DOWNRUPTS
000041:                                                                                                  #           OCCUR EVERY 20MS AND 2 AGC COMPUTER WORDS CAN BE PLACED IN
000042:                                                                                                  #           CHANNELS 34 AND 35 DURING EACH DOWNRUPT THE PROGRAM IS CAPABLE
000043:                                                                                                  #           OF SENDING 200 AGC WORDS EVERY 2 SECONDS.
000044:                                                                                                  #  CALLING SEQUENCE- NONE
000045:                                                                                                  #           PROGRAM IS ENTERED VIA TCF DODOWNTM WHICH IS EXECUTED AS A
000046:                                                                                                  #           RESULT OF A DOWNRUPT. CONTROL IS RETURNED VIA TCF RESUME WHICH
000047:                                                                                                  #           IN EFFECT IS A RESUME.
000048:                                                                                                  #  SUBROUTINES CALLED- NONE
000049:                                                                                                  #  NORMAL EXIT MODE- TCF RESUME
000050:                                                                                                  #  ALARM OR ABORT EXIT MODE- NONE
000051:                                                                                                  #  RESTART PROTECTION:
000052:                                                                                                  #           ON A FRESH START AND RESTART THE 'STARTSUB' SUBROUTINE WILL INITIALIZE THE DOWNLIST POINTER(ACTUALLY
000053:                                                                                                  #           DNTMGOTO) TO THE BEGINNING OF THE CURRENT DOWNLIST(I.E. CURRENT CONTENTS OF DNLSTADR). THIS HAS THE
000054:                                                                                                  #           EFFECT OF IGNORING THE REMAINDER OF THE DOWNLIST WHICH THE DOWN-TELEMETRY PROGRAM WAS WORKING ON WHEN
000055:                                                                                                  #           THE RESTART(OR FRESH START) OCCURRED AND RESUME DOWN TELEMETRY FROM THE BEGINNING OF THE CURRENT
000056:                                                                                                  #           DOWNLIST.
000057:                                                                                                  #           ALSO OF INTEREST IS THE FACT THAT ON A RESTART THE AGC WILL ZERO DOWNLINK CHANNELS 13, 34 AND 35.
000058:                                                                                                  #  DOWNLINK LIST SELECTION:
000059:                                                                                                  #        THE APPROPRIATE DOWNLINK LISTS ARE SELECTED BY THE FOLLOWING:
000060:                                                                                                  #        1. FRESH START
000061:                                                                                                  #        2. V37EXXE WHERE XX = THE MAJOR MODE BEING SELECTED.
000062:                                                                                                  #        3. UPDATE PROGRAM(P27)
000063:                                                                                                  #        4.     NON-V37 SELECTABLE TYPE PROGRAMS(E.G. AGS INITIALIZATION(SUNDANCE,LUMINARY) AND P61-P62
000064:                                                                                                  #               TRANSITION(COLOSSUS) ETC.).
000065:                                                                                                  #  DOWNLINK LIST RULES AND LIMITATIONS:
000066:                                                                                                  #           READ SECTION(S) WHICH FOLLOW 'DEBRIS' WRITEUP.
000067:                                                                                                  #  OUTPUT-  EVERY 2 SECONDS 100 DOUBLE PRECISION WORDS(I.E. 200 LGC
000068:                                                                                                  #           COMPUTER WORDS) ARE TRANSMITTED VIA DOWNLINK.
000069:                                                                                                  #  ERASABLE INITIALIZATION REQUIRED- NONE
000070:                                                                                                  #           'DNTMGOTO' AND 'DNLSTADR' ARE INITIALIZED BY THE FRESH START PROGRAM.
000071:                                                                                                  #  DEBRIS(ERASABLE LOCATIONS DESTROYED BY THIS PROGRAM)-
000072:                                                                                                  #           LDATALST,DNTMBUFF TO DNTMBUFF +21D,TMINDEX,DNQ.
000073:


000075:
000076:


000078:                                                                                                  #  DODOWNTM IS ENTERED EVERY 20 MS BY AN INTERRUPT TRIGGERED BY THE
000079:                                                                                                  #  RECEIPT OF AN ENDPULSE FROM THE SPACECRAFT TELEMETRY PROGRAMMER.
000080:
000081:                                                                                                  #  NOTES REGARDING DOWNLINK LISTS ASSOCIATED WITH THIS PROGRAM:
000082:                                                                                                  #  1. DOWNLISTS. - DOWNLISTS MUST BE COMPILED IN THE SAME BANK AS THE
000083:                                                                                                  #     DOWN-TELEMETRY PROGRAM. THIS IS DONE FOR EASE OF CODING, FASTER
000084:                                                                                                  #     EXECUTION.
000085:                                                                                                  #  2. EACH DOWNLINK LIST CONSISTS OF A CONTROL LIST AND A NUMBER OF
000086:                                                                                                  #     SUBLISTS.
000087:                                                                                                  #  3. A SUBLIST REFERS TO A SNAPSHOT OR DATA COMMON TO THE SAME OR OTHER
000088:                                                                                                  #     DOWNLINK LISTS.  ANY SUBLIST CONTAINING COMMON DATA NEEDS TO BE
000089:                                                                                                  #     CODED ONLY ONCE FOR THE APPLICABLE DOWNLINK LISTS.
000090:                                                                                                  #  4. SNAPSHOT SUBLISTS REFER SPECIFICALLY TO HOMOGENOUS DATA WHICH MUST BE
000091:                                                                                                  #     SAVED IN A BUFFER DURING ONE DOWNRUPT.
000092:                                                                                                  #  5. THE 1DNADR FOR THE 1ST WORD OF SNAPSHOT DATA IS FOUND AT THE END
000093:                                                                                                  #     OF EACH SNAPSHOT SUBLIST, SINCE THE PROGRAM CODING SENDS THIS DP WORD
000094:                                                                                                  #     IMMEDIATELY AFTER STORING THE OTHERS IN THE SNAPSHOT BUFFER.
000095:                                                                                                  #  6. ALL LISTS ARE COMBINATIONS OF CODED ERASABLE ADDRESS CONSTANTS
000096:                                                                                                  #     CREATED FOR THE DOWNLIST PROGRAM.
000097:                                                                                                  #     A. 1DNADR              1-WORD DOWNLIST ADDRESS.
000098:                                                                                                  #         SAME AS ECADR, BUT USED WHEN THE WORD ADDRESSED IS THE LEFT
000099:                                                                                                  #         HALF OF A DOUBLE-PRECISION WORD FOR DOWN TELEMETRY.
000100:                                                                                                  #     B. 2DNADR - 6DNADR     N-WORD DOWNLIST ADDRESS, N = 2 - 6.
000101:                                                                                                  #         SAME AS 1DNADR, BUT WITH THE 4 UNUSED BITS OF THE ECADR FORMAT
000102:                                                                                                  #         FILLED IN WITH 0001-0101.  USED TO POINT TO A LIST OF N DOUBLE-
000103:                                                                                                  #         PRECISION WORDS, STORED CONSECUTIVELY, FOR DOWN TELEMETRY.
000104:                                                                                                  #     C. DNCHAN              DOWNLIST CHANNEL ADDRESS.
000105:                                                                                                  #         SAME AS 1DNADR, BUT WITH PREFIX BITS 0111.  USED TO POINT TO
000106:                                                                                                  #         A PAIR OF CHANNELS FOR DOWN TELEMETRY.
000107:                                                                                                  #     D. DNPTR               DOWN TELEMETRY SUBLIST POINTER.
000108:                                                                                                  #      SAME AS CAF BUT TAGGED AS A CONSTANT. USED IN CONTROL LIST TO POINT TO A SUBLIST.
000109:                                                                                                  #      CAUTION--- A DNPTR CANNOT BE USED IN A SUBLIST.
000110:                                                                                                  #  7. THE WORD ORDER CODE IS SET TO ZERO AT THE BEGINNING OF EACH DOWNLIST (I.E. CONTROL LIST) AND WHEN
000111:                                                                                                  #     A '1DNADR TIME2' IS DETECTED IN THE CONTROL LIST(ONLY).
000112:                                                                                                  #  8. IN THE SNAPSHOT SUBLIST ONLY, THE DNADR'S CANNOT POINT TO THE FIRST WORD OF ANY EBANK.
000113:
000114:                                                                                                  #  DOWNLINK LIST RESTRICTIONS:
000115:                                                                                                  #    (THE FOLLOWING POINTS MAY BE LISTED ELSEWHERE BUT ARE LISTED HERE SO  IT IS CLEAR THAT THESE THINGS CANNOT BE
000116:                                                                                                  #    DONE)
000117:                                                                                                  #  1. SNAPSHOT DOWNLIST:
000118:                                                                                                  #    (A) CANNOT CONTAIN THE FOLLOWING ECADRS(I.E. 1DNADR'S): 0, 400, 1000, 1400, 2000, 2400, 3000, 3400.
000119:                                                                                                  #    (B) CAN CONTAIN ONLY 1DNADR'S
000120:
000121:                                                                                                  #  2. ALL DOWNLINKED DATA(EXCEPT CHANNELS) IS PICKED UP BY A <DCA<SO DOWNLINK LISTS CANNOT CONTAIN THE
000122:                                                                                                  #     EQUIVALENT OF THE FOLLOWING ECADRS(I.E. IDNADRS): 377, 777, 1377, 1777, 2377, 27777, 3377, 3777.
000123:
000124:                                                                                                  #     (NOTE: THE TERM EQUIVALENT ' MEANT THAT THE IDNADR  TO 6DNADR  WILL BE PROCESSED LIKE 1 TO 6 ECADRS)
000125:
000126:                                                                                                  #  3. CONTROL LISTS AND SUBLISTS CANNOT HAVE ENTRIES = OCTAL 00000 OR OCTAL 77777
000127:


000129:                                                                                                  #  4. THE '1DNADR TIME2' WHICH WILL CAUSE THE DOWNLINK PROGRAM TO SET THE WORDER CODE TO 3 MUST APPEAR IN THE
000130:                                                                                                  #     CONTROL SECTION OF THE DOWNLIST.
000131:
000132:                                                                                                  #  5. 'DNCHAN 0' CANNOT BE USED.
000133:
000134:                                                                                                  #  6. 'DNPTR 0' CANNOT BE USED.
000135:
000136:                                                                                                  #  7. DNPTR CANNOT APPEAR IN A SUBLIST.
000137:
000138:
000139:
000140:
000141:                                                                                                  #  EBANK SETTINGS
000142:                                                                                                  #           IN THE PROCESS OF SETTING THE EBANK(WHEN PICKING UP DOWNLINK DATA) THE DOWN TELEMETRY PROGRAM PUTS
000143:                                                                                                  #           'GARBAGE' INTO BITS15-12 OF EBANK. HUGH BLAIR-SMITH WARNS US THAT BITS15-12 OF EBANK MAY BECOME
000144:                                                                                                  #           SIGNIFICANT SOMEDAY IN THE FUTURE. IF/WHEN THAT HAPPENS, THE PROGRAM SHOULD INSURE(BY MASKING ETC.)
000145:                                                                                                  #           THAT BITS15-12 OF EBANK ARE ZERO.
000146:                                                                                                  #  INITIALIZATION REQUIRED- TO INTERRUPT CURRENT LIST AND START A NEW ONE..
000147:                                                                                                  #      1.   ADRES OF DOWNLINK LIST INTO DNLSTADR
000148:                                                                                                  #      2.   NEGONE INTO SUBLIST
000149:                                                                                                  #      3.   NEGONE INTO DNECADR
000150:
000151: 22,3710                                           BANK     22
000152: 05,2000                                           SETLOC   DOWNTELM
000153: 05,2000                                           BANK
000154:
000155: 05,3510     0340                                  EBANK=   DNTMBUFF
000156:
000157: 05,3510                                           COUNT*   $$/DPROG
000158: 05,3510           54016        DODOWNTM           TS       BANKRUPT
000159: 05,3511           00006                           EXTEND
000160: 05,3512           22012                           QXCH     QRUPT                                 #  SAVE Q
000161: 05,3513           34745                           CA       BIT7                                  #  AT THE BEGINNING OF THE LIST THE WORD
000162: 05,3514           00006                           EXTEND                                         #  ORDER BIT WILL BE SET BACK TO ZERO.
000163: 05,3515           02013                           RAND     CHAN13
000164: 05,3516           10000                           CCS      A
000165: 05,3517           00335                           TC       DNTMGOTO
000166: 05,3520           06022                           TC       C13STALL
000167: 05,3521           34745                           CA       BIT7
000168: 05,3522           00006                           EXTEND                                         #  SET WORD ORDER BIT TO 1 ONLY IF IT
000169: 05,3523           05013                           WOR      CHAN13                                #  ALREADY ISN'T.
000170: 05,3524           00335                           TC       DNTMGOTO                              #  GO TO APPROPRIATE PHASE OF PROGRAM
000171:
000172: 05,2000                                           SETLOC   DOWNTELM
000173: 05,2000                                           BANK
000174:
000175: 05,3525           37752        DNPHASE1           CA       NEGONE                                #  INITIALIZE ALL CONTROL WORDS
000176: 05,3526           54337                           TS       SUBLIST                               #  WORDS TO MINUS ONE
000177: 05,3527           54336                           TS       DNECADR
000178: 05,3530           33655                           CA       LDNPHAS2                              #  SET DNTMGOTO =O ALL SUBSEQUENT DOWNRUPTS


000180: 05,3531           54335                           TS       DNTMGOTO                              #  GO TO DNPHASE2
000181: 05,3532           13546                           TCF      NEWLIST
000182: 05,3533           10336        DNPHASE2           CCS      DNECADR                               #  SENDING OF DATA IN PROGRESS
000183: 05,3534           03670        DODNADR            TC       FETCH2WD                              #  YES - THEN FETCH THE NEXT 2 SP WORDS
000184: 05,3535           77753        MINTIME2           -1DNADR  TIME2                                 #  NEGATIVE OF TIME2 1DNADR
000185: 05,3536           13537                           TCF      +1                                    #  (ECADR OF  3776 + 74001 = 77777)
000186:
000187: 05,3537           10337                           CCS      SUBLIST                               #  IS THE SUBLIST IN CONTROL
000188: 05,3540           13703                           TCF      NEXTINSL                              #  YES
000189: 05,3541           74001        DNADRDCR           OCT      74001                                 #  DNADR COUNT AND ECADR DECREMENTER
000190:
000191: 05,3542           30334        CHKLIST            CA       CTLIST
000192: 05,3543           00006                           EXTEND
000193: 05,3544           63546                           BZMF     NEWLIST                               #  IT WILL BE NEGATIVE AT END OF LIST
000194: 05,3545           13553                           TCF      NEXTINCL
000195: 05,3546           50333        NEWLIST            INDEX    DNLSTCOD
000196: 05,3547           32452                           CA       DNTABLE                               #  INITIALIZE CTLIST WITH
000197: 05,3550           54334                           TS       CTLIST                                #    STARTING ADDRESS OF NEW LIST
000198: 05,3551           40333                           CS       DNLSTCOD
000199: 05,3552           13772                           TCF      SENDID     +3
000200: 05,3553           50334        NEXTINCL           INDEX    CTLIST
000201: 05,3554           30000                           CA       0
000202: 05,3555           10000                           CCS      A
000203: 05,3556           24334                           INCR     CTLIST                                #  SET POINTER TO PICK UP NEXT CTLIST WORD
000204: 05,3557           13563                           TCF      +4                                    #  ON NEXT ENTRY TO PROG. (A SHOULD NOT =0)
000205: 05,3560           56334                           XCH      CTLIST                                #  SET CTLIST TO NEGATIVE AND PLACE(CODING)
000206: 05,3561           40000                           COM                                            #  UNCOMPLEMENTED DNADR INTO A.    (FOR LA)
000207: 05,3562           56334                           XCH      CTLIST                                #                                  (ST IN )
000208: 05,3563           24000                 +4        INCR     A                                     #                                  (CTLIST)
000209: 05,3564           54336                           TS       DNECADR                               #  SAVE DNADR
000210: 05,3565           63535                           AD       MINTIME2                              #  TEST FOR TIME2 (NEG. OF ECADR)
000211: 05,3566           10000                           CCS      A
000212: 05,3567           13573                           TCF      SETWO      +1                         #  DON'T SET WORD ORDER CODE
000213: 05,3570           47777        MINB1314           OCT      47777                                 #  MINUS BIT 13 AND 14  (CAN'T GET HERE)
000214: 05,3571           13573                           TCF      SETWO      +1                         #  DON'T SET WORD ORDER CODE
000215: 05,3572           03615        SETWO              TC       WOZERO                                #  GO SET WORD ORDER CODE TO ZERO.
000216: 05,3573           30336                 +1        CA       DNECADR                               #  RELOAD A WITH THE DNADR.
000217: 05,3574           63570                 +2        AD       MINB1314                              #  IS THIS A REGULAR DNADR?
000218: 05,3575           00006                           EXTEND
000219: 05,3576           63670                           BZMF     FETCH2WD                              #  YES. (A MUST NEVER BE ZERO)
000220: 05,3577           67744                           AD       MINB12                                #  NO- IS IT A POINTER (DNPTR) OR A
000221: 05,3600           00006                           EXTEND                                         #      CHANNEL(DNCHAN)
000222: 05,3601           63626                           BZMF     DODNPTR                               #  IT'S A POINTER. (A MUST NEVER BE ZERO)
000223:
000224: 05,3602           00006        DODNCHAN           TC       6                                     #  (EXECUTED AS EXTEND) IT S A CHANNEL
000225: 05,3603           50336                           INDEX    DNECADR
000226: 05,3604           44000                           INDEX    0          -4000                      #  (EXECUTED AS READ)
000227: 05,3605           54001                           TS       L
000228: 05,3606           00006                           TC       6                                     #  (EXECUTED AS EXTEND)
000229: 05,3607           50336                           INDEX    DNECADR


000231: 05,3610           43777                           INDEX    0          -4001                      #  (EXECUTED AS READ)
000232: 05,3611           54336                           TS       DNECADR                               #  SET DNECADR
000233: 05,3612           37752                           CA       NEGONE                                #      TO MINUS
000234: 05,3613           56336                           XCH      DNECADR                               #          WHILE PRESERVING A.
000235: 05,3614           13716                           TCF      DNTMEXIT                              #  GO SEND CHANNELS
000236:
000237: 05,3615           00006        WOZERO             EXTEND
000238: 05,3616           23265                           QXCH     C13QSAV
000239: 05,3617           22070                           LXCH     RUPTREG1
000240: 05,3620           06022                           TC       C13STALL
000241:
000242: 05,3621           22070                           LXCH     RUPTREG1
000243: 05,3622           44745                           CS       BIT7
000244: 05,3623           00006                           EXTEND
000245: 05,3624           03013                           WAND     CHAN13                                #  SET WORD ORDER CODE TO ZERO
000246: 05,3625           01265                           TC       C13QSAV
000247:
000248: 05,3626           50336        DODNPTR            INDEX    DNECADR                               #  DNECADR CONTAINS ADRES OF SUBLIST
000249: 05,3627           00000                           0        0                                     #  CLEAR AND ADD LIST ENTRY INTO A.
000250: 05,3630           10000                           CCS      A                                     #  IS THIS A SNAPSHOT SUBLIST
000251: 05,3631           30336                           CA       DNECADR                               #  NO, IT IS A REGULAR SUBLIST.
000252: 05,3632           13702                           TCF      DOSUBLST                              #  A MUST NOT BE ZERO.
000253:
000254: 05,3633           56336                           XCH      DNECADR                               #  YES, IT IS A SNAPSHOT SUBLIST.
000255: 05,3634           54337                           TS       SUBLIST                               #  C(DNECADR) INTO SUBLIST
000256: 05,3635           34755                           CAF      ZERO                                  #       A    INTO    A
000257: 05,3636           56336                           XCH      TMINDEX                               #  (NOTE.. TMINDEX = DNECADR)
000258:
000259:
000260:                                                                                                  #  THE FOLLOWING CODING (FROM SNAPLOOP TO SNAPEND)IS FOR THE PURPOSE OF TAKING A SNAPSHOT OF 12 DP REGISTERS.
000261:                                                                                                  #  THIS IS DONE BY SAVING 11 DP REGISTERS IN DNTMBUFF AND SENDING THE FIRST DP WORD IMMEDIATELY.
000262:                                                                                                  #  THE SNAPSHOT PROCESSING IS THE MOST TIME CONSUMING AND THEREFORE THE CODING AND LIST STRUCTURE WERE DESIGNED
000263:                                                                                                  #  TO MINIMIZE TIME. THE TIME OPTIMIZATION RESULTS IN RULES UNIQUE TO THE SNAPSHOT PORTION OF THE DOWNLIST.
000264:                                                                                                  #  THESE RULES ARE......
000265:                                                                                                  #            1.    ONLY 1DNADR'S CAN APPEAR IN THE SNAPSHOT SUBLIST
000266:                                                                                                  #            2.    THE 1DNADR'S CANNOT REFER TO THE FIRST LOCATION IN ANY  BANK.
000267:
000268: 05,3637           54003        SNAPLOOP           TS       EBANK                                 #  SET EBANK
000269: 05,3640           74357                           MASK     LOW8                                  #  ISOLATE RELATIVE ADDRESS
000270: 05,3641           00006                           EXTEND
000271: 05,3642           50000                           INDEX    A
000272: 05,3643  E3,1401                                  EBANK=   1401
000273: 05,3643           31402                           DCA      1401                                  #  PICK UP 2 SNAPSHOT WORDS.
000274: 05,3644     0340                                  EBANK=   DNTMBUFF
000275: 05,3644           50336                           INDEX    TMINDEX
000276: 05,3645           52341                           DXCH     DNTMBUFF                              #  STORE 2 SNAPSHOT WORDS IN BUFFER
000277: 05,3646           24336                           INCR     TMINDEX                               #  SET BUFFER INDEX FOR NEXT 2 WORDS.
000278: 05,3647           24336                           INCR     TMINDEX
000279: 05,3650           24337        SNAPAGN            INCR     SUBLIST                               #  SET POINTER TO NEXT 2 WORDS OF SNAPSHOT


000281: 05,3651           50337                           INDEX    SUBLIST
000282: 05,3652           00000                           0        0                                     #  = CA SSSS (SSSS = NEXT ENTRY IN SUBLIST)
000283: 05,3653           10000                           CCS      A                                     #  TEST FOR LAST TWO WORDS OF SNAPSHOT.
000284: 05,3654           13637                           TCF      SNAPLOOP                              #  NOT LAST TWO.
000285: 05,3655           03533        LDNPHAS2           GENADR   DNPHASE2
000286: 05,3656           54337                           TS       SUBLIST                               #  YES, LAST.  SAVE A.
000287: 05,3657           37752                           CA       NEGONE                                #  SET DNECADR AND
000288: 05,3660           54336                           TS       DNECADR                               #      SUBLIST POINTERS
000289: 05,3661           56337                           XCH      SUBLIST                               #          TO NEGATIVE VALUES.
000290: 05,3662           54003                           TS       EBANK
000291: 05,3663           74357                           MASK     LOW8
000292: 05,3664           00006                           EXTEND
000293: 05,3665           50000                           INDEX    A
000294: 05,3666  E3,1401                                  EBANK=   1401
000295: 05,3666           31402                           DCA      1401                                  #  PICK UP FIRST 2 WORDS OF SNAPSHOT.
000296: 05,3667     0340                                  EBANK=   DNTMBUFF
000297: 05,3667           13716        SNAPEND            TCF      DNTMEXIT                              #     NOW GO SEND THEM.
000298:
000299: 05,3670           30336        FETCH2WD           CA       DNECADR
000300: 05,3671           54003                           TS       EBANK                                 #  SET EBANK
000301: 05,3672           74357                           MASK     LOW8                                  #  ISOLATE RELATIVE ADDRESS
000302: 05,3673           54001                           TS       L
000303: 05,3674           33541                           CA       DNADRDCR                              #  DECREMENT COUNT AND ECADR
000304: 05,3675           26336                           ADS      DNECADR
000305: 05,3676           00006                           EXTEND
000306: 05,3677           50001                           INDEX    L
000307: 05,3700  E3,1400                                  EBANK=   1400
000308: 05,3700           31401                           DCA      1400                                  #  PICK UP 2 DATA WORDS
000309: 05,3701     0340                                  EBANK=   DNTMBUFF
000310: 05,3701           13716                           TCF      DNTMEXIT                              #     NOW GO SEND THEM.
000311:
000312: 05,3702           54337        DOSUBLST           TS       SUBLIST                               #  SET SUBLIST POINTER
000313: 05,3703           50337        NEXTINSL           INDEX    SUBLIST
000314: 05,3704           00000                           0        0                                     #  = CA SSSS (SSSS = NEXT ENTRY IN SUBLIST)
000315: 05,3705           10000                           CCS      A                                     #  IS IT THE END OF THE SUBLIST
000316: 05,3706           24337                           INCR     SUBLIST                               #  NO-
000317: 05,3707           13713                           TCF      +4
000318: 05,3710           54337                           TS       SUBLIST                               #  SAVE A.
000319: 05,3711           37752                           CA       NEGONE                                #  SET SUBLIST TO MINUS
000320: 05,3712           56337                           XCH      SUBLIST                               #  RETRIEVE A.
000321: 05,3713           24000                 +4        INCR     A
000322: 05,3714           54336                           TS       DNECADR                               #  SAVE DNADR
000323: 05,3715           13574                           TCF      SETWO      +2                         #  GO USE COMMON CODING(PROBLEMS WOULD
000324:                                                                                                  #  OCCUR IF THE PROGRAM ENCOUNTERED A
000325:                                                                                                  #  DNPTR NOW)
000326:
000327: 05,3716           00006        DNTMEXIT           EXTEND                                         #  DOWN-TELEMETRY EXIT
000328: 05,3717           01034                           WRITE    DNTM1                                 #  TO SEND A + L TO CHANNELS 34 + 35
000329: 05,3720           30001                           CA       L                                     #  RESPECTIVELY
000330: 05,3721           00006        TMEXITL            EXTEND


000332: 05,3722           01035                           WRITE    DNTM2
000333: 05,3723           15301        TMRESUME           TCF      RESUME                                #  EXIT TELEMETRY PROGRAM VIA RESUME.
000334:
000335: 05,3724     7744               MINB12             EQUALS   -1/8
000336: 05,3724     0336               DNECADR            EQUALS   TMINDEX
000337: 05,3724     0334               CTLIST             EQUALS   LDATALST
000338: 05,3724     0337               SUBLIST            EQUALS   DNQ
000339:
000340:                                                                                                  #  MOD BY - DENSMORE - JUNE 1969 - ELIMINATE ERASABLE DUMP COUNT
000341:


000343:                                                                                                  #  SUBROUTINE NAME- DNDUMP
000344:                                                                                                  #  FUNCTIONAL DESCRIPTION - TO SEND (DUMP) ALL 8 BANKS OF ERASABLE STORAGE TWICE.  BANKS ARE SENT ONE AT A TIME
000345:                                                                                                  #           EACH BANK IS PRECEEDED BY AN ID WORD, SYNCH BITS, ECADR AND TIME1 FOLLOWED BY THE 256D WORDS OF EACH
000346:                                                                                                  #           EBANK. EBANKS ARE DUMPED IN ORDER(I.E. EBANK 0 FIRST, THEN EBANK1 ETC.)
000347:                                                                                                  #  CALLING SEQUENCE- THE GROUND OR ASTRONAUT BY KEYING V74E CAN INITIALIZE THE DUMP.
000348:                                                                                                  #           AFTER KEYING IN V74E THE CURRENT DOWNLIST WILL BE IMMEDIATELY TERMINATED AND THE DOWNLINK ERASABLE DUMP
000349:                                                                                                  #           WILL BEGIN.
000350:                                                                                                  #           ONCE INITIATED THE DOWNLINK ERASABLE DUMP CAN BE TERMINATED (AND INTERRUPTED DOWNLIST REINSTATED) ONLY
000351:                                                                                                  #           BY THE FOLLOWING:
000352:                                                                                                  #            1. A FRESH START
000353:                                                                                                  #            2. COMPLETION OF BOTH COMPLETE DUMPS
000354:                                                                                                  #            3. AND INVOLUNTARILY BY A RESTART.
000355:                                                                                                  #  NORMAL EXIT MODE- TCF DNPHASE1
000356:                                                                                                  #  ALARM OR ABORT MODE- NONE
000357:                                                                                                  #  *SUBROUTINES CALLED- NONE.
000358:                                                                                                  #  ERASABLE INITIALIZATION REQUIRED-
000359:                                                                                                  #           NONE
000360:                                                                                                  #  DEBRIS- DUMPLOC, DUMPSW, DNTMGOTO, EBANK AND CENTRAL REGISTERS
000361:                                                                                                  #  TIMING-   TIME(IN SECS) = ((NO.DUMPS)*(NO.EBANKS)* (WDSPEREBANK + NO.IDWDS)) / NO.WDSPERSEC
000362:                                                                                                  #            TIME(IN SECS) =  (   4    )*(    8    )* (    256     +     4   )  /     100
000363:                                                                                                  #       THUS TIME(IN SECS TO SEND DUMP OF ERASABLE 4 TIMES VIA DOWNLINK) = 83.2 SECONDS
000364:
000365:                                                                                                  #  STRUCTURE OF ONE EBANK AS IT IS SENT BY DOWNLINK PROGRAM-
000366:                                                                                                  #     (REMINDER-THIS ONLY DESCRIBES ONE OF THE 8 EBANKS X 4 (DUMPS) = 32 EBANKS WHICH WILL BE SENT BY DNDUMP)
000367:                                                                                                  #          DOWNLIST                                 W
000368:                                                                                                  #           WORD   TAKEN FROM CONTENTS OF   EXAMPLE O  COMMENTS
000369:
000370:                                                                                                  #            1     ERASID                    0177X  0  DOWNLIST I.D. FOR DOWNLINK ERASABLE DUMP (X=7 CSM, 6 LM)
000371:                                                                                                  #            2     LOWIDCOD                  77340  1  DOWNLINK SYNCH BITS.(SAME ONE USED IN ALL OTHER DOWNLISTS)
000372:                                                                                                  #            3     DUMPLOC                   13400  1  (SEE NOTES ON DUMPLOC)1= 3RD ERAS DUMP, 3400=ECADR OF 5TH WD
000373:                                                                                                  #            4     TIME1                     14120  1  TIME IN CENTISECONDS
000374:                                                                                                  #            5     FIRST WORD OF EBANK X     03400  1  IN THIS EXAMPLE THIS WORD = CONTENTS OF E7,1400 (ECADR 3400)
000375:                                                                                                  #            6     2ND   WORD OF EBANK X     00142  1  IN THIS EXAMPLE THIS WORD = CONTENTS OF E7,1401 (ECADR 3401)
000376:                                                                                                  #            7     3RD   WORD OF EBANK X     00142  1  IN THIS EXAMPLE THIS WORD = CONTENTS OF E7,1402 (ECADR 3402)
000377:                                                                                                  #            .                                      1
000378:                                                                                                  #            .                                      1
000379:                                                                                                  #            .                                      1
000380:                                                                                                  #           260D   256TH WORD OF EBANK X     03777  1  IN THIS EXAMPLE THIS WORD = CONTENTS OF E7,1777 (ECADR 3777)
000381:
000382:                                                                                                  #  NOTE- DUMPLOC CONTAINS THE COUNTER AND ECADR FOR EACH WORD BEING SENT.
000383:                                                                                                  #        THE BIT STRUCTURE OF DUMPLOC IS FOLLOWS---
000384:                                                                                                  #                                        X = NOT USED
000385:                                                                                                  #           X ABC EEE RRRRRRRR         ABC = ERASABLE DUMP COUNTER(I.E. ABC = 0,1,2 OR 3 WHICH MEANS THAT
000386:                                                                                                  #                                            COMPLETE ERASABLE DUMP NUMBER  1,2,3 OR 4 RESPECTIVELY IS IN PROGRESS)
000387:                                                                                                  #                                      EEE = EBANK BITS
000388:                                                                                                  #                                 RRRRRRRR = RELATIVE ADDRESS WITHIN AN EBANK.
000389:
000390: 05,3724           34755        DNDUMPI            CA       ZERO                                  #  INITIALIZE DOWNLINK
000391: 05,3725           54336                           TS       DUMPLOC                               #  ERASABLE DUMP
000392: 05,3726           03767                 +2        TC       SENDID                                #  GO SEND ID AND SYNCH BITS


000394: 05,3727           33736                           CA       LDNDUMP1                              #  SET DNTMGOTO
000395: 05,3730           54335                           TS       DNTMGOTO                              #  TO LOCATION FOR NEXT PASS
000396: 05,3731           30025                           CA       TIME1                                 #  PLACE TIME1
000397: 05,3732           56001                           XCH      L                                     #  INTO L
000398: 05,3733           30336                           CA       DUMPLOC                               #  AND ECADR OF THIS EBANK INTO A
000399: 05,3734           13716                           TCF      DNTMEXIT                              #  SEND DUMPLOC AND TIME1
000400:
000401: 05,3735           03737        LDNDUMP            ADRES    DNDUMP
000402: 05,3736           03751        LDNDUMP1           ADRES    DNDUMP1
000403:
000404: 05,3737           34752        DNDUMP             CA       TWO                                   #  INCREMENT ECADR IN DUMPLOC
000405: 05,3740           26336                           ADS      DUMPLOC                               #  TO NEXT DP WORD TO BE
000406: 05,3741           74357                           MASK     LOW8                                  #  DUMPED AND SAVE IT.
000407: 05,3742           10000                           CCS      A                                     #  IS THIS THE BEGINNING OF A NEW EBANK
000408: 05,3743           13753                           TCF      DNDUMP2                               #  NO- THEN CONTINUE DUMPING
000409: 05,3744           30336                           CA       DUMPLOC                               #  YES- IS THIS THE END OF THE
000410: 05,3745           74737                           MASK     BIT13                                 #  SECOND COMPLETE ERASABLE DUMP?
000411: 05,3746           00006                           EXTEND
000412: 05,3747           13726                           BZF      DNDUMPI    +2                         #  NO - GO BACK AND INITIALIZE NEXT BANK
000413: 05,3750           13525                           TCF      DNPHASE1                              #  YES - SEND DOWNLIST AGAIN
000414: 05,3751           33735        DNDUMP1            CA       LDNDUMP                               #  SET DNTMGOTO
000415: 05,3752           54335                           TS       DNTMGOTO                              #  FOR WORDS 3 TO 256D OF CURRENT EBANK
000416:
000417: 05,3753           30336        DNDUMP2            CA       DUMPLOC
000418: 05,3754           54003                           TS       EBANK                                 #  SET EBANK
000419: 05,3755           74357                           MASK     LOW8                                  #  ISOLATE RELATIVE ADDRESS.
000420: 05,3756           54002                           TS       Q                                     #  (NOTE: MASK INSTRUCTION IS USED TO PICK
000421: 05,3757           34754                           CA       NEG0                                  #  UP ERASABLE REGISTERS SO THAT EDITING
000422: 05,3760           54001                           TS       L                                     #  REGISTERS 20-23 WILL NOT BE ALTERED.)
000423: 05,3761           50002                           INDEX    Q
000424: 05,3762  E3,1400                                  EBANK=   1400                                  #  PICK UP LOW ORDER REGISTER OF PAIR
000425: 05,3762           71401                           MASK     1401                                  #  OF ERASABLE REGISTERS.
000426: 05,3763           56001                           XCH      L
000427: 05,3764           50002                           INDEX    Q                                     #  PICK UP HIGH ORDER REGISTER OF PAIR
000428: 05,3765           71400                           MASK     1400                                  #  OF ERASABLE REGISTERS.
000429: 05,3766     0340                                  EBANK=   DNTMBUFF
000430: 05,3766           13716                           TCF      DNTMEXIT                              #  GO SEND THEM
000431:
000432:
000433: 05,3767           00006        SENDID             EXTEND                                         #  **ENTRANCE USED BY ERASABLE DUMP PROG.**
000434: 05,3770           22335                           QXCH     DNTMGOTO                              #  SET DNTMGOTO SO NEXT TIME PROG WILL GO
000435: 05,3771           35011                           CAF      ERASID                                #  TO LOCATION FOLLOWING :TC SENDID:
000436:
000437: 05,3772           54001                           TS       L                                     #  **ENTRANCE USED BY REGULAR DOWNLINK PG**
000438: 05,3773           03615                           TC       WOZERO                                #  GO SET WORD ORDER CODE TO ZERO
000439: 05,3774           32065                           CAF      LOWIDCOD                              #  PLACE SPECIAL ID CODE INTO L
000440: 05,3775           56001                           XCH      L                                     #  AND ID BACK INTO A
000441: 05,3776           13716                           TCF      DNTMEXIT                              #  SEND DOWNLIST ID CODE(S).

End of include-file DOWN-TELEMETRY_PROGRAM.agc.  Parent file is MAIN.agc


