
Source Code


000002:                                                                                                  ## Copyright:   Public domain.
000003:                                                                                                  ## Filename:    ERASABLE_ASSIGNMENTS.agc
000004:                                                                                                  ## Purpose:     A section of Luminary revision 178.
000005:                                                                                                  ##              It is part of the reconstructed source code for the final
000006:                                                                                                  ##              release of the flight software for the Lunar Module's
000007:                                                                                                  ##              (LM) Apollo Guidance Computer (AGC) for Apollo 14. The
000008:                                                                                                  ##              code has been recreated from copies of Zerlina 56, Luminary
000009:                                                                                                  ##              210, and Luminary 131, as well as many Luminary memos.
000010:                                                                                                  ##              It has been adapted such that the resulting bugger words
000011:                                                                                                  ##              exactly match those specified for Luminary 178 in NASA
000012:                                                                                                  ##              drawing 2021152N, which gives relatively high confidence
000013:                                                                                                  ##              that the reconstruction is correct.
000014:                                                                                                  ## Reference:   pp. 91-156
000015:                                                                                                  ## Assembler:   yaYUL
000016:                                                                                                  ## Contact:     Ron Burkey <info@sandroid.org>.
000017:                                                                                                  ## Website:     www.ibiblio.org/apollo/index.html
000018:                                                                                                  ## Mod history: 2019-08-14 MAS  Created from Zerlina 56.
000019:                                                                                                  ##              2019-09-17 MAS  Re-based on Luminary 131, then updated for
000020:                                                                                                  ##                              Luminary 178. Many, many changes; see the
000021:                                                                                                  ##                              Github issue (#1093) for details.
000022:


000024:                                                                                                  #  CONVENTIONS AND NOTATIONS UTILIZED FOR ERASABLE ASSIGNMENTS.
000025:
000026:                                                                                                  #        EQUALS  IS USED IN TWO WAYS.  IT IS OFTEN USED TO CHAIN A GROUP
000027:                                                                                                  #                OF ASSIGNMENTS SO THAT THE GROUP MAY BE MOVED WITH THE
000028:                                                                                                  #                CHANGING OF ONLY ONE CARD.  EXAMPLE.
000029:
000030:                                                                                                  #                                        X       EQUALS  START
000031:                                                                                                  #                                        Y       EQUALS  X       +SIZE.X
000032:                                                                                                  #                                        Z       EQUALS  Y       +SIZE.Y
000033:
000034:                                                                                                  #                (X, Y, AND Z ARE CONSECUTIVE AND BEGIN AT START.        )
000035:                                                                                                  #                (SIZE.X AND SIZE.Y ARE THE RESPECTIVE SIZES OF X AND Y,
000036:                                                                                                  #                USUALLY NUMERIC, IE. 1, 2, 6, 18D ETC.                  )
000037:
000038:                                                                                                  #        EQUALS  OFTEN IMPLIES THE SHARING OF REGISTERS (DIFFERENT NAMES
000039:                                                                                                  #                AND DIFFERENT DATA).  EXAMPLE.
000040:
000041:                                                                                                  #                        X       EQUALS  Y
000042:
000043:                                                                                                  #        =       MEANS THAT MULTIPLE NAMES HAVE BEEN GIVEN TO THE SAME DATA.
000044:                                                                                                  #                (THIS IS LOGICAL EQUIVALENCE, NOT SHARING)  EXAMPLE.
000045:
000046:                                                                                                  #                        X       =       Y
000047:
000048:                                                                                                  #        THE SIZE AND UTILIZATION OF AN ERASABLE ARE OFTEN INCLUDED IN
000049:                                                                                                  #        THE COMMENTS IN THE FOLLOWING FORM.  M(SIZE)N.
000050:
000051:                                                                                                  #                M       REFERS TO THE MOBILITY OF THE ASSIGNMENT.
000052:                                                                                                  #                        B       MEANS THAT THE SYMBOL IS REFERENCED BY BASIC
000053:                                                                                                  #                                INSTRUCTIONS AND THUS IS E-BANK SENSITIVE.
000054:                                                                                                  #                        I       MEANS THAT THE SYMBOL IS REFERENCED ONLY BY
000055:                                                                                                  #                                INTERPRETIVE INSTRUCTIONS, AND IS THUS E-BANK
000056:                                                                                                  #                                INSENSITIVE AND MAY APPEAR IN ANY E-BANK.
000057:
000058:                                                                                                  #                SIZE    IS THE NUMBER OF REGISTERS INCLUDED BY THE SYMBOL.
000059:
000060:                                                                                                  #                N       INDICATES THE NATURE OR PERMANENCE OF THE CONTENTS.
000061:                                                                                                  #                        PL      MEANS THAT THE CONTENTS ARE PAD LOADED.
000062:                                                                                                  #                        DSP     MEANS THAT THE REGISTER IS USED FOR A DISPLAY.
000063:                                                                                                  #                        PRM     MEANS THAT THE REGISTER IS PERMANENT, IE. IT
000064:                                                                                                  #                                IS USED DURING THE ENTIRE MISSION FOR ONE
000065:                                                                                                  #                                PURPOSE AND CANNOT BE SHARED.
000066:                                                                                                  #                        TMP     MEANS THAT THE REGISTER IS USED TEMPORARILY OR
000067:                                                                                                  #                                IS A SCRATCH REGISTER FOR THE ROUTINE TO WHICH
000068:                                                                                                  #                                IT IS ASSIGNED.  THAT IS, IT NEED NOT BE SET
000069:                                                                                                  #                                PRIOR TO INVOCATION OF THE ROUTINE NOR DOES IT
000070:                                                                                                  #                                CONTAIN USEFUL OUTPUT TO ANOTHER ROUTINE.  THUS


000072:                                                                                                  #                                IT MAY BE SHARED WITHANY OTHER ROUTINE WHICH
000073:                                                                                                  #                                IS NOT ACTIVE IN PARALLEL.
000074:                                                                                                  #                        IN      MEANS INPUT TO THE ROUTINE AND IT IS PROBABLY
000075:                                                                                                  #                                TEMPORARY FOR A HIGHER-LEVEL ROUTINE/PROGRAM.
000076:                                                                                                  #                        OUT     MEANS OUTPUT FROM THE ROUTINE, PROBABLY
000077:                                                                                                  #                                TEMPORARY FOR A HIGHER-LEVEL ROUTINE/PROGRAM.
000078:


000080:                                                                                                  #  SPECIAL REGISTERS.
000081:
000082: 26,2024                        A                  EQUALS   0
000083: 26,2024                        L                  EQUALS   1                                     #  L AND Q ARE BOTH CHANNELS AND REGISTERS.
000084: 26,2024                        Q                  EQUALS   2
000085: 26,2024                        EBANK              EQUALS   3
000086: 26,2024                        FBANK              EQUALS   4
000087: 26,2024                        Z                  EQUALS   5                                     #  ADJACENT TO FBANK AND BBANK FOR DXCH Z
000088: 26,2024                        BBANK              EQUALS   6                                     #  (DTCB) AND DXCH FBANK (DTCF).
000089:                                                                                                  #  REGISTER 7 IS A ZERO-SOURCE, USED BY ZL.
000090:
000091: 26,2024                        ARUPT              EQUALS   10                                    #  INTERRUPT STORAGE.
000092: 26,2024                        LRUPT              EQUALS   11
000093: 26,2024                        QRUPT              EQUALS   12
000094: 26,2024                        SAMPTIME           EQUALS   13                                    #  SAMPLED TIME 1 & 2.
000095: 26,2024                        ZRUPT              EQUALS   15                                    #  (13 AND 14 ARE SPARES.)
000096: 26,2024                        BANKRUPT           EQUALS   16                                    #  USUALLY HOLDS FBANK OR BBANK.
000097: 26,2024                        BRUPT              EQUALS   17                                    #  RESUME ADDRESS AS WELL.
000098:
000099: 26,2024                        CYR                EQUALS   20
000100: 26,2024                        SR                 EQUALS   21
000101: 26,2024                        CYL                EQUALS   22
000102: 26,2024                        EDOP               EQUALS   23                                    #  EDITS INTERPRETIVE OPERATION CODE PAIRS.
000103:
000104: 26,2024                        TIME2              EQUALS   24
000105: 26,2024                        TIME1              EQUALS   25
000106: 26,2024                        TIME3              EQUALS   26
000107: 26,2024                        TIME4              EQUALS   27
000108: 26,2024                        TIME5              EQUALS   30
000109: 26,2024                        TIME6              EQUALS   31
000110: 26,2024                        CDUX               EQUALS   32
000111: 26,2024                        CDUY               EQUALS   33
000112: 26,2024                        CDUZ               EQUALS   34
000113: 26,2024                        CDUT               EQUALS   35                                    #  REND RADAR TRUNNION CDU
000114: 26,2024                        CDUS               EQUALS   36                                    #  REND RADAR SHAFT CDU
000115: 26,2024                        PIPAX              EQUALS   37
000116: 26,2024                        PIPAY              EQUALS   40
000117: 26,2024                        PIPAZ              EQUALS   41
000118: 26,2024                        Q-RHCCTR           EQUALS   42                                    #  RHC COUNTER REGISTERS
000119: 26,2024                        P-RHCCTR           EQUALS   43
000120: 26,2024                        R-RHCCTR           EQUALS   44
000121: 26,2024                        INLINK             EQUALS   45
000122: 26,2024                        RNRAD              EQUALS   46
000123: 26,2024                        GYROCMD            EQUALS   47
000124: 26,2024                        CDUXCMD            EQUALS   50
000125: 26,2024                        CDUYCMD            EQUALS   51
000126: 26,2024                        CDUZCMD            EQUALS   52
000127: 26,2024                        CDUTCMD            EQUALS   53                                    #  RADAR TRUNNION COMMAND
000128: 26,2024                        CDUSCMD            EQUALS   54                                    #  RADAR SHAFT COMMAND


000130: 26,2024                        THRUST             EQUALS   55
000131: 26,2024                        LEMONM             EQUALS   56
000132: 26,2024                        OUTLINK            EQUALS   57
000133: 26,2024                        ALTM               EQUALS   60
000134:
000135:                                                                                                  #  INTERPRETIVE REGISTERS ADDRESSED RELATIVE TO VAC AREA.
000136:
000137: 26,2024                        LVSQUARE           EQUALS   34D                                   #  SQUARE OF VECTOR INPUT TO ABVAL AND UNIT
000138: 26,2024                        LV                 EQUALS   36D                                   #  LENGTH OF VECTOR INPUT TO UNIT.
000139: 26,2024                        X1                 EQUALS   38D                                   #  INTERPRETIVE SPECIAL REGISTERS RELATIVE
000140: 26,2024                        X2                 EQUALS   39D                                   #  TO THE WORK AREA.
000141: 26,2024                        S1                 EQUALS   40D
000142: 26,2024                        S2                 EQUALS   41D
000143: 26,2024                        QPRET              EQUALS   42D
000144:
000145:                                                                                                  #  INPUT/OUTPUT CHANNELS
000146:
000147:                                                                                                  #  *** CHANNEL ZERO IS TO BE USED IN AN INDEXED OPERATION ONLY. ***
000148: 26,2024  0000001               LCHAN              EQUALS   L
000149: 26,2024  0000002               QCHAN              EQUALS   Q
000150: 26,2024                        HISCALAR           EQUALS   3
000151: 26,2024                        LOSCALAR           EQUALS   4
000152: 26,2024                        CHAN5              EQUALS   5
000153: 26,2024                        CHAN6              EQUALS   6
000154: 26,2024                        SUPERBNK           EQUALS   7                                     #  SUPER-BANK.
000155: 26,2024                        OUT0               EQUALS   10
000156: 26,2024                        DSALMOUT           EQUALS   11
000157: 26,2024                        CHAN12             EQUALS   12
000158: 26,2024                        CHAN13             EQUALS   13
000159: 26,2024                        CHAN14             EQUALS   14
000160: 26,2024                        MNKEYIN            EQUALS   15
000161: 26,2024                        NAVKEYIN           EQUALS   16
000162: 26,2024                        CHAN30             EQUALS   30
000163: 26,2024                        CHAN31             EQUALS   31
000164: 26,2024                        CHAN32             EQUALS   32
000165: 26,2024                        CHAN33             EQUALS   33
000166: 26,2024                        DNTM1              EQUALS   34
000167: 26,2024                        DNTM2              EQUALS   35
000168: 26,2024                        CHAN76             EQUALS   76
000169: 26,2024                        CHAN77             EQUALS   77
000170:
000171:                                                                                                  #  END OF CHANNEL ASSIGNMENTS
000172:


000174:                                                                                                  #  INTERPRETIVE SWITCH BIT ASSIGNMENTS
000175:
000176:                                                                                                  #        ** FLAGWORDS AND BITS NOW ASSIGNED AND DEFINED IN THEIR OWN LOG SECTION. **
000177:


000179:                                                                                                  #  GENERAL ERASABLE ASSIGNMENTS.
000180:
000181:    0061                                           SETLOC   61
000182:                                                                                                  #  INTERRUPT TEMPORARY STORAGE POOL.     (11D)
000183:
000184:                                                                                                  #  (ITEMP1 THROUGH RUPTREG4)
000185:
000186:                                                                                                  #  ANY OF THESE MAY BE USED AS TEMPORARIES DURING INTERRUPT OR WITH INTERRUPT INHIBITED. THE ITEMP SERIES
000187:                                                                                                  #  IS USED DURING CALLS TO THE EXECUTIVE AND WAITLIST - THE RUPTREGS ARE NOT.
000188:
000189:    0061                        ITEMP1             ERASE
000190:    0062     0061               WAITEXIT           EQUALS   ITEMP1
000191:    0062     0061               EXECTEM1           EQUALS   ITEMP1
000192:
000193:    0062                        ITEMP2             ERASE
000194:    0063     0062               WAITBANK           EQUALS   ITEMP2
000195:    0063     0062               EXECTEM2           EQUALS   ITEMP2
000196:
000197:    0063                        ITEMP3             ERASE
000198:    0064     0063               RUPTSTOR           EQUALS   ITEMP3
000199:    0064     0063               WAITADR            EQUALS   ITEMP3
000200:    0064     0063               NEWPRIO            EQUALS   ITEMP3
000201:
000202:    0064                        ITEMP4             ERASE
000203:    0065     0064               LOCCTR             EQUALS   ITEMP4
000204:    0065     0064               WAITTEMP           EQUALS   ITEMP4
000205:
000206:    0065                        ITEMP5             ERASE
000207:    0066     0065               NEWLOC             EQUALS   ITEMP5
000208:
000209:    0066                        ITEMP6             ERASE
000210:                                                                                                  # NEWLOC+1       EQUALS  ITEMP6          DP ADDRESS.
000211:
000212:    0067                                           SETLOC   67
000213:    0067                        NEWJOB             ERASE                                          #  MUST BE AT LOC 67 DUE TO WIRING.
000214:
000215:    0070                        RUPTREG1           ERASE
000216:    0071                        RUPTREG2           ERASE
000217:    0072                        RUPTREG3           ERASE
000218:    0073                        RUPTREG4           ERASE
000219:    0074     0073               KEYTEMP1           EQUALS   RUPTREG4
000220:    0074     0073               DSRUPTEM           EQUALS   RUPTREG4
000221:
000222:                                                                                                  #  FLAGWORD RESERVATIONS.                (16D)
000223:
000224:    0074                        STATE              ERASE    +15D                                  #  FLAGWORD REGISTERS.
000225:
000226:                                                                                                  #  P25 RADAR STORAGE.  (MAY BE UNSHARED IN E7)  (TEMP OVERLAY)  (2D)  OVERLAYS FLGWRD 14 & 15


000228:    0114     0112               LASTYCMD           EQUALS   STATE      +14D                       #  B(1)PRM       THESE ARE CALLED BY T4RUPT
000229:    0114     0113               LASTXCMD           EQUALS   LASTYCMD   +1                         #  B(1)PRM       THEY MUST BE CONTIGUOUS, Y FIRST
000230:
000231:                                                                                                  #  EXEC TEMPORARIES WHICH MAY BE USED BETWEEN CCS NEWJOBS. (32D) (INTB15+ THROUGH RUPTMXTM)
000232:    0114                        INTB15+            ERASE                                          #  REFLECTS 15TH BIT OF INDEXABLE ADDRESSES
000233:    0115     0114               DSEXIT             =        INTB15+                               #  RETURN FOR DSPIN
000234:    0115     0114               EXITEM             =        INTB15+                               #  RETURN FOR SCALE FACTOR ROUTINE SELECT
000235:    0115     0114               BLANKRET           =        INTB15+                               #  RETURN FOR 2BLANK
000236:
000237:    0115                        INTBIT15           ERASE                                          #  SIMILAR TO ABOVE.
000238:    0116     0115               WRDRET             =        INTBIT15                              #  RETURN FOR 5BLANK
000239:    0116     0115               WDRET              =        INTBIT15                              #  RETURN FOR DSPWD
000240:    0116     0115               DECRET             =        INTBIT15                              #  RETURN FOR PUTCOM(DEC LOAD)
000241:    0116     0115               21/22REG           =        INTBIT15                              #  TEMP FOR CHARIN
000242:
000243:                                                                                                  #  THE REGISTERS BETWEEN ADDRWD AND PRIORITY MUST STAY IN THE FOLLOWING ORDER FOR INTERPRETIVE TRACE.
000244:
000245:    0116                        ADDRWD             ERASE                                          #  12 BIT INTERPRETIVE OPERAND SUB-ADDRESS.
000246:    0117                        POLISH             ERASE                                          #  HOLDS CADR MADE FROM POLISH ADDRESS.
000247:    0120     0117               UPDATRET           =        POLISH                                #  RETURN FOR UPDATNN, UPDATVB
000248:    0120     0117               CHAR               =        POLISH                                #  TEMP FOR CHARIN
000249:    0120     0117               ERCNT              =        POLISH                                #  COUNTER FOR ERROR LIGHT RESET
000250:    0120     0117               DECOUNT            =        POLISH                                #  COUNTER FOR SCALING AND DISPLAY (DEC)
000251:
000252:    0120                        FIXLOC             ERASE                                          #  WORK AREA ADDRESS.
000253:    0121                        OVFIND             ERASE                                          #  SET NON-ZERO ON OVERFLOW.
000254:
000255:    0122                        VBUF               ERASE    +5                                    #  TEMPORARY STORAGE USED FOR VECTORS.
000256:    0130     0122               SGNON              =        VBUF                                  #  TEMP FOR +,- ON
000257:    0130     0122               NOUNTEM            =        VBUF                                  #  COUNTER FOR MIXNOUN FETCH
000258:    0130     0122               DISTEM             =        VBUF                                  #  COUNTER FOR OCTAL DISPLAY VERBS
000259:    0130     0122               DECTEM             =        VBUF                                  #  COUNTER FOR FETCH (DEC DISPLAY VERBS)
000260:
000261:    0130     0123               SGNOFF             =        VBUF       +1                         #  TEMP FOR +,- ON
000262:    0130     0123               NVTEMP             =        VBUF       +1                         #  TEMP FOR NVSUB
000263:    0130     0123               SFTEMP1            =        VBUF       +1                         #  STORAGE FOR SF CONST HI PART (=SFTEMP2-1)
000264:    0130     0123               HITEMIN            =        VBUF       +1                         #  TEMP FOR LOAD OF HRS,MIN,SEC
000265:                                                                                                  #  MUST = LOTEMIN-1.
000266:
000267:    0130     0124               CODE               =        VBUF       +2                         #  FOR DSPIN
000268:    0130     0124               SFTEMP2            =        VBUF       +2                         #  STORAGE FOR SF CONST LO PART (=SFTEMP1+1)
000269:    0130     0124               LOTEMIN            =        VBUF       +2                         #  TEMP FOR LOAD OF HRS,MIN,SEC
000270:                                                                                                  #  MUST = HITEMIN+1.
000271:
000272:    0130     0125               MIXTEMP            =        VBUF       +3                         #  FOR MIXNOUN DATA
000273:    0130     0125               SIGNRET            =        VBUF       +3                         #  RETURN FOR +,- ON
000274:
000275:                                                                                                  #  ALSO MIXTEMP+1 = VBUF+4, MIXTEMP+2 = VBUF+5.
000276:
000277:    0130                        BUF                ERASE    +2                                    #  TEMPORARY SCALAR STORAGE.


000279:    0133                        BUF2               ERASE    +1
000280:    0135     0130               INDEXLOC           EQUALS   BUF                                   #  CONTAINS ADDRESS OF SPECIFIED INDEX.
000281:    0135     0130               SWWORD             EQUALS   BUF                                   #  ADDRESS OF SWITCH WORD.
000282:    0135     0131               SWBIT              EQUALS   BUF        +1                         #  SWITCH BIT WITHIN SWITCH WORD.
000283:    0135                        MPTEMP             ERASE                                          #  TEMPORARY USED IN MULTIPLY AND SHIFT.
000284:    0136     0135               DMPNTEMP           =        MPTEMP                                #  DMPSUB TEMPORARY
000285:    0136                        DOTINC             ERASE                                          #  COMPONENT INCREMENT FOR DOT SUBROUTINE.
000286:    0137     0136               DVSIGN             EQUALS   DOTINC                                #  DETERMINES SIGN OF DDV RESULT.
000287:    0137     0136               ESCAPE             EQUALS   DOTINC                                #  USED IN ARCSIN/ARCCOS.
000288:    0137     0136               ENTRET             =        DOTINC                                #  EXIT FROM ENTER
000289:
000290:    0137                        DOTRET             ERASE                                          #  RETURN FROM DOT SUBROUTINE.
000291:    0140     0137               DVNORMCT           EQUALS   DOTRET                                #  DIVIDEND NORMALIZATION COUNT IN DDV.
000292:    0140     0137               ESCAPE2            EQUALS   DOTRET                                #  ALTERNATE ARCSIN/ARCCOS SWITCH.
000293:    0140     0137               WDCNT              =        DOTRET                                #  CHAR COUNTER FOR DSPWD
000294:    0140     0137               INREL              =        DOTRET                                #  INPUT BUFFER SELECTOR ( X,Y,Z, REG )
000295:
000296:    0140                        MATINC             ERASE                                          #  VECTOR INCREMENT IN MXV AND VXM.
000297:    0141     0140               MAXDVSW            EQUALS   MATINC                                #  +0 IF DP QUOTIENT IS NEAR ONE - ELSE -1.
000298:    0141     0140               POLYCNT            EQUALS   MATINC                                #  POLYNOMIAL LOOP COUNTER
000299:    0141     0140               DSPMMTEM           =        MATINC                                #  DSPCOUNT SAVE FOR DSPMM
000300:    0141     0140               MIXBR              =        MATINC                                #  INDICATOR FOR MIXED OR NORMAL NOUN
000301:
000302:    0141                        TEM1               ERASE                                          #  EXEC TEMP
000303:    0142     0141               POLYRET            =        TEM1
000304:    0142     0141               DSREL              =        TEM1                                  #  REL ADDRESS FOR DSPIN
000305:
000306:    0142                        TEM2               ERASE                                          #  EXEC TEMP
000307:    0143     0142               DSMAG              =        TEM2                                  #  MAGNITUDE STORE FOR DSPIN
000308:    0143     0142               IDADDTEM           =        TEM2                                  #  MIXNOUN INDIRECT ADDRESS STORAGE
000309:
000310:    0143                        TEM3               ERASE                                          #  EXEC TEMP
000311:    0144     0143               COUNT              =        TEM3                                  #  FOR DSPIN
000312:
000313:    0144                        TEM4               ERASE                                          #  EXEC TEMP
000314:    0145     0144               LSTPTR             =        TEM4                                  #  LIST POINTER FOR GRABUSY
000315:    0145     0144               RELRET             =        TEM4                                  #  RETURN FOR RELDSP
000316:    0145     0144               FREERET            =        TEM4                                  #  RETURN FOR FREEDSP
000317:    0145     0144               DSPWDRET           =        TEM4                                  #  RETURN FOR DSPSIGN
000318:    0145     0144               SEPSCRET           =        TEM4                                  #  RETURN FOR SEPSEC
000319:    0145     0144               SEPMNRET           =        TEM4                                  #  RETURN FOR SEPMIN
000320:
000321:    0145                        TEM5               ERASE                                          #  EXEC TEMP
000322:    0146     0145               NOUNADD            =        TEM5                                  #  TEMP STORAGE FOR NOUN ADDRESS
000323:
000324:    0146                        NNADTEM            ERASE                                          #  TEMP FOR NOUN ADDRESS TABLE ENTRY
000325:    0147                        NNTYPTEM           ERASE                                          #  TEMP FOR NOUN TYPE TABLE ENTRY
000326:    0150                        IDAD1TEM           ERASE                                          #  TEMP FOR INDIR ADRESS TABLE ENTRY (MIXNN)
000327:                                                                                                  #  MUST = IDAD2TEM-1, = IDAD3TEM-2.
000328:    0151                        IDAD2TEM           ERASE                                          #  TEMP FOR INDIR ADRESS TABLE ENTRY (MIXNN)


000330:                                                                                                  #  MUST = IDAD1TEM+1, = IDAD3TEM-1.
000331:    0152                        IDAD3TEM           ERASE                                          #  TEMP FOR INDIR ADRESS TABLE ENTRY (MIXNN)
000332:                                                                                                  #  MUST = IDAD1TEM+2, = IDAD2TEM+1.
000333:    0153                        RUTMXTEM           ERASE                                          #  TEMP FOR SF ROUT TABLE ENTRY (MIXNN ONLY)
000334:
000335:                                                                                                  #  AX*SR*T STORAGE.                      (6D)
000336:    0154     0142               DEXDEX             EQUALS   TEM2                                  #  B(1)TMP
000337:    0154     0143               DEX1               EQUALS   TEM3                                  #  B(1)TMP
000338:    0154     0144               DEX2               EQUALS   TEM4                                  #  B(1)TMP
000339:    0154     0145               RTNSAVER           EQUALS   TEM5                                  #  B(1)TMP
000340:    0154     0157               TERM1TMP           EQUALS   MPAC       +3                         #  B(2)TMP
000341:
000342:    0154     0143               DEXI               =        DEX1
000343:
000344:                                                                                                  #  THE FOLLOWING 10 REGISTERS ARE USED FOR TEMPORARY STORAGE OF THE DERIVATIVE COEFFICIENT TABLE OF
000345:                                                                                                  #  SUBROUTINE ROOTPSRS.  THEY MUST REMAIN WITHOUT INTERFERENCE WITH ITS SUBROUTINES WHICH ARE POWRSERS (POLY),
000346:                                                                                                  #  DMPSUB, DMPNSUB, SHORTMP, DDV/BDDV, ABS, AND USPRCADR.
000347:
000348:    0154     0142               DERCOF-8           =        MPAC       -12                        #  ROOTPSRS DER COF N-4 HI ORDER
000349:    0154     0143               DERCOF-7           =        MPAC       -11                        #  ROOTPSRS DER COF N-4 LO ORDER
000350:    0154     0144               DERCOF-6           =        MPAC       -10                        #  ROOTPSRS DER COF N-3 HI ORDER
000351:    0154     0145               DERCOF-5           =        MPAC       -7                         #  ROOTPSRS DER COF N-3 LO ORDER
000352:    0154     0146               DERCOF-4           =        MPAC       -6                         #  ROOTPSRS DER COF N-2 HI ORDER
000353:    0154     0147               DERCOF-3           =        MPAC       -5                         #  ROOTPSRS DER COF N-2 LO ORDER
000354:    0154     0150               DERCOF-2           =        MPAC       -4                         #  ROOTPSRS DER COF N-1 HI ORDER
000355:    0154     0151               DERCOF-1           =        MPAC       -3                         #  ROOTPSRS DER COF N-1 LO ORDER
000356:    0154     0152               DERCOFN            =        MPAC       -2                         #  ROOTPSRS DER COF N HI ORDER
000357:    0154     0153               DERCOF+1           =        MPAC       -1                         #  ROOTPSRS DER COF N LO ORDER
000358:
000359:    0154     0117               PWRPTR             =        POLISH                                #  ROOTPSRS POWER TABLE POINTER
000360:    0154     0124               DXCRIT             =        VBUF       +2                         #  ROOTPSRS CRITERION FOR ENDING ITERS HI
000361:    0154     0125               DXCRIT+1           =        VBUF       +3                         #  ROOTPSRS CRITERION FOR ENDING ITERS LO
000362:    0154     0126               ROOTPS             =        VBUF       +4                         #  ROOTPSRS ROOT HI ORDER
000363:    0154     0127               ROOTPS+1           =        VBUF       +5                         #  ROOTPSRS ROOT LO ORDER
000364:    0154     0132               RETROOT            =        BUF        +2                         #  ROOTPSRS RETURN ADDRESS OF USER
000365:    0154     0140               PWRCNT             =        MATINC                                #  ROOTPSRS DER TABLE LOOP COUNTER
000366:    0154     0141               DERPTR             =        TEM1                                  #  ROOTPSRS DER TABLE POINTER
000367:


000369:                                                                                                  #  DYNAMICALLY ALLOCATED CORE SETS FOR JOBS.     (84D)
000370:
000371:    0154                        MPAC               ERASE    +6                                    #  MULTI-PURPOSE ACCUMULATOR.
000372:    0163                        MODE               ERASE                                          #  +1 FOR TP, +0 FOR DP, OR -1 FOR VECTOR.
000373:    0164                        LOC                ERASE                                          #  LOCATION ASSOCIATED WITH JOB.
000374:    0165                        BANKSET            ERASE                                          #  USUALLY CONTAINS BBANK SETTING.
000375:    0166                        PUSHLOC            ERASE                                          #  WORD OF PACKED INTERPRETIVE PARAMETERS.
000376:    0167                        PRIORITY           ERASE                                          #  PRIORITY OF PRESENT JOB AND WORK AREA.
000377:
000378:    0170                                           ERASE    +83D                                  #  EIGHT SETS OF 12 REGISTERS EACH
000379:
000380:                                                                                                  #  INCORP STORAGE:  R22 (N29)    (SHARES WITH FOLLOWING SECTION)         (4D)
000381:
000382:    0314     0314               R22DISP            EQUALS   TIME2SAV                              #  I(4) N49 DISPLAY OF DELTA R AND DELTA V
000383:
000384:                                                                                                  #  STANDBY VERB ERASABLES.  REDOCTR BEFORE THETADS.      (14D)
000385:
000386:    0314                        TIME2SAV           ERASE    +1
000387:    0316                        SCALSAVE           ERASE    +1
000388:    0320                        REDOCTR            ERASE                                          #  CONTAINS NUMBER OF RESTARTS
000389:    0321                        THETAD             ERASE    +2
000390:    0324     0321               CPHI               =        THETAD                                #  O     DESIRED GIMBAL ANGLES
000391:    0324     0322               CTHETA             =        THETAD     +1                         #  I     FOR
000392:    0324     0323               CPSI               =        THETAD     +2                         #  M     MANEUVER.
000393:    0324                        DELV               ERASE    +5
000394:    0332     0324               DELVX              =        DELV
000395:    0332     0326               DELVY              =        DELV       +2
000396:    0332     0330               DELVZ              =        DELV       +4
000397:
000398:                                                                                                  #  WAITLIST REPEAT FLAG                          (1D)
000399:
000400:    0332                        RUPTAGN            ERASE
000401:    0333     0332               KEYTEMP2           =        RUPTAGN                               #  TEMP FOR KEYRUPT, UPRUPT
000402:
000403:                                                                                                  #  DOWNLINK STORAGE.                             (27D)
000404:
000405:    0333     0333               DNLSTADR           EQUALS   DNLSTCOD
000406:
000407:    0333                        DNLSTCOD           ERASE                                          #  B(1)PRM DOWNLIINK LIST CODE
000408:    0334                        LDATALST           ERASE    +25D                                  #        (26D)
000409:    0366     0335               DNTMGOTO           EQUALS   LDATALST   +1                         #  B(1)
000410:    0366     0336               TMINDEX            EQUALS   DNTMGOTO   +1                         #  B(1)
000411:    0366     0336               DUMPLOC            EQUALS   TMINDEX                               #  CONTAINS ECADR OF AGC DP WORD BEING DUMP
000412:                                                                                                  #  ED AND COUNT OF COMPLETE DUMPS ALREADY S
000413:                                                                                                  #  ENT.
000414:    0366     0337               DNQ                EQUALS   TMINDEX    +1                         #  B(1)


000416:    0366     0340               DNTMBUFF           EQUALS   DNQ        +1                         #  B(22)PRM DOWNLINK SNAPSHOT BUFFER
000417:
000418:                                                                                                  #  UNSWITCHED FOR DISPLAY INTERFACE ROUTINES.    (10D) FIVE MORE IN EBANK 2
000419:
000420:    0366                        RESTREG            ERASE                                          #  B(1)PRM FOR DISPLAY RESTARTS
000421:    0367                        NVWORD             ERASE
000422:    0370                        MARKNV             ERASE
000423:    0371                        NVSAVE             ERASE
000424:                                                                                                  #  (RETAIN THE ORDER OF CADRFLSH TO FAILREG +2 FOR DOWNLINK PURPOSES)
000425:    0372                        CADRFLSH           ERASE
000426:    0373                        CADRMARK           ERASE
000427:    0374                        TEMPFLSH           ERASE
000428:    0375                        FAILREG            ERASE    +2                                    #  B(3)PRM 3 ALARM CODE REGISTERS
000429:
000430:                                                                                                  #  VAC AREAS. -BE CAREFUL OF PLACEMENT-          (220D)
000431:
000432:    0400                        VAC1USE            ERASE
000433:    0401                        VAC1               ERASE    +42D
000434:    0454                        VAC2USE            ERASE
000435:    0455                        VAC2               ERASE    +42D
000436:    0530                        VAC3USE            ERASE
000437:    0531                        VAC3               ERASE    +42D
000438:    0604                        VAC4USE            ERASE
000439:    0605                        VAC4               ERASE    +42D
000440:    0660                        VAC5USE            ERASE
000441:    0661                        VAC5               ERASE    +42D
000442:
000443:                                                                                                  #  STARALIGN ERASABLES.                          (13D)
000444:
000445:    0734                        STARCODE           ERASE                                          #  (1)
000446:    0735     0734               AOTCODE            =        STARCODE
000447:    0735                        STARALGN           ERASE    +11D
000448:    0751     0735               SINCDU             =        STARALGN
000449:    0751     0743               COSCDU             =        STARALGN   +6
000450:
000451:    0751     0741               SINCDUX            =        SINCDU     +4
000452:    0751     0735               SINCDUY            =        SINCDU
000453:    0751     0737               SINCDUZ            =        SINCDU     +2
000454:    0751     0747               COSCDUX            =        COSCDU     +4
000455:    0751     0743               COSCDUY            =        COSCDU
000456:    0751     0745               COSCDUZ            =        COSCDU     +2
000457:
000458:                                                                                                  #  PHASE TABLE AND RESTART COUNTERS.             (12D)
000459:
000460:    0751                        -PHASE1            ERASE
000461:    0752                        PHASE1             ERASE
000462:    0753                        -PHASE2            ERASE


000464:    0754                        PHASE2             ERASE
000465:    0755                        -PHASE3            ERASE
000466:    0756                        PHASE3             ERASE
000467:    0757                        -PHASE4            ERASE
000468:    0760                        PHASE4             ERASE
000469:    0761                        -PHASE5            ERASE
000470:    0762                        PHASE5             ERASE
000471:    0763                        -PHASE6            ERASE
000472:    0764                        PHASE6             ERASE
000473:
000474:                                                                                                  #  A**SR*T STORAGE.                              (6D)
000475:
000476:    0765                        CDUSPOT            ERASE    +5                                    #  B(6)
000477:
000478:    0773     0765               CDUSPOTY           =        CDUSPOT
000479:    0773     0767               CDUSPOTZ           =        CDUSPOT    +2
000480:    0773     0771               CDUSPOTX           =        CDUSPOT    +4
000481:
000482:                                                                                                  #  VERB 37 STORAGE.                              (2D)
000483:
000484:    0773                        MINDEX             ERASE                                          #  B(1)TMP INDEX FOR MAJOR MODE
000485:    0774                        MMNUMBER           ERASE                                          #  B(1)TMP MAJOR MODE REQUESTED BY V37
000486:
000487:                                                                                                  #  PINBALL INTERRUPT ACTION.                     (1D)
000488:
000489:    0775                        DSPCNT             ERASE                                          #  B(1)PRM COUNTER FOR DSPOUT.
000490:
000491:                                                                                                  #  PINBALL EXECUTIVE ACTION                      (44D)
000492:
000493:    0776                        DSPCOUNT           ERASE                                          #  DISPLAY POSITION INDICATOR.
000494:    0777                        DECBRNCH           ERASE                                          #  +DEC, -DEC, OCT INDICATOR
000495:    1000                        VERBREG            ERASE                                          #  VERB CODE
000496:    1001                        NOUNREG            ERASE                                          #  NOUN CODE
000497:    1002                        XREG               ERASE                                          #  R1 INPUT BUFFER
000498:    1003                        YREG               ERASE                                          #  R2 INPUT BUFFER
000499:    1004                        ZREG               ERASE                                          #  R3 INPUT BUFFER
000500:    1005                        XREGLP             ERASE                                          #  LO PART OF XREG (FOR DEC CONV ONLY)
000501:    1006                        YREGLP             ERASE                                          #  LO PART OF YREG (FOR DEC CONV ONLY)
000502:    1007     1006               HITEMOUT           =        YREGLP                                #  TEMP FOR DISPLAY OF HRS,MIN,SEC
000503:                                                                                                  #  MUST = LOTEMOUT-1.
000504:    1007                        ZREGLP             ERASE                                          #  LO PART OF ZREG (FOR DEC CONV ONLY)
000505:    1010     1007               LOTEMOUT           =        ZREGLP                                #  TEMP FOR DISPLAY OF HRS,MIN,SEC
000506:                                                                                                  #  MUST = HITEMOUT+1.
000507:    1010                        MODREG             ERASE                                          #  MODE CODE
000508:    1011                        DSPLOCK            ERASE                                          #  KEYBOARD/SUBROUTINE CALL INTERLOCK
000509:    1012                        REQRET             ERASE                                          #  RETURN REGISTER FOR LOAD


000511:    1013                        LOADSTAT           ERASE                                          #  STATUS INDICATOR FOR LOADTST
000512:    1014                        CLPASS             ERASE                                          #  PASS INDICATOR CLEAR
000513:    1015                        NOUT               ERASE                                          #  ACTIVITY COUNTER FOR DSPTAB
000514:    1016                        NOUNCADR           ERASE                                          #  MACHINE CADR FOR NOUN
000515:    1017                        MONSAVE            ERASE                                          #  N/V CODE FOR MONITOR. (= MONSAVE1-1)
000516:    1020                        MONSAVE1           ERASE                                          #  NOUNCADR FOR MONITOR (MATBS) = MONSAVE +1
000517:    1021                        MONSAVE2           ERASE                                          #  NVMONOPT OPTIONS
000518:    1022                        DSPTAB             ERASE    +11D                                  #  0-10D, DISPLAY PANEL BUFF.  11D, C/S LTS.
000519:    1036                        NVQTEM             ERASE                                          #  NVSUB STORAGE FOR CALLING ADDRESS
000520:                                                                                                  #  MUST = NVBNKTEM-1
000521:    1037                        NVBNKTEM           ERASE                                          #  NVSUB STORAGE FOR CALLING BANK
000522:                                                                                                  #  MUST = NVQTEM+1
000523:    1040                        VERBSAVE           ERASE                                          #  NEEDED FOR RECYCLE
000524:    1041                        CADRSTOR           ERASE                                          #  ENDIDLE STORAGE
000525:    1042                        DSPLIST            ERASE                                          #  WAITING REG FOR DSP SYST INTERNAL USE
000526:    1043                        EXTVBACT           ERASE                                          #  EXTENDED VERB ACTIVITY INTERLOCK
000527:    1044                        DSPTEM1            ERASE    +2                                    #  BUFFER STORAGE AREA 1 (MOSTLY FOR TIME)
000528:    1047                        DSPTEM2            ERASE    +2                                    #  BUFFER STORAGE AREA 2 (MOSTLY FOR DEG)
000529:
000530:    1052     1050               DSPTEMX            EQUALS   DSPTEM2    +1                         #  B(2) S-S DISPLAY BUFFER FOR EXT. VERBS
000531:    1052     1044               NORMTEM1           EQUALS   DSPTEM1                               #  B(3)DSP NORMAL DISPLAY REGISTERS.
000532:
000533:                                                                                                  #  DISPLAY FOR EXTENDED VERBS (V82, R04 (V62), V41 (N72) )       (2D)
000534:
000535:    1052     1050               OPTIONX            EQUALS   DSPTEMX                               #  (2) EXTENDED VERB OPTION CODE
000536:
000537:                                                                                                  #  TBASES AND PHSPRDT S.                         (12D)
000538:
000539:    1052                        TBASE1             ERASE
000540:    1053                        PHSPRDT1           ERASE
000541:    1054                        TBASE2             ERASE
000542:    1055                        PHSPRDT2           ERASE
000543:    1056                        TBASE3             ERASE
000544:    1057                        PHSPRDT3           ERASE
000545:    1060                        TBASE4             ERASE
000546:    1061                        PHSPRDT4           ERASE
000547:    1062                        TBASE5             ERASE
000548:    1063                        PHSPRDT5           ERASE
000549:    1064                        TBASE6             ERASE
000550:    1065                        PHSPRDT6           ERASE
000551:
000552:                                                                                                  #  UNSWITCHED FOR DISPLAY INTERFACE ROUTINES.    (6D)
000553:    1066                        NVWORD1            ERASE                                          #  B(1) PROBABLY FOR DISPLAY DURING SERVICER
000554:    1067                        EBANKSAV           ERASE


000556:    1070                        MARKEBAN           ERASE
000557:    1071                        EBANKTEM           ERASE
000558:    1072                        MARK2PAC           ERASE
000559:    1073                        R1SAVE             ERASE
000560:
000561:                                                                                                  #  IMU COMPENSATION UNSWITCHED ERASABLE.         (1D)
000562:
000563:    1074                        1/PIPADT           ERASE
000564:
000565:                                                                                                  #  SINGLE PRECISION SUBROUTINE TEMPORARIES.      (2D)
000566:
000567:    1075                        TEMK               ERASE                                          #  (1)
000568:    1076                        SQ                 ERASE                                          #  (1)
000569:
000570:                                                                                                  #  UNSWITCHED RADAR ERASABLE                     (13D)
000571:
000572:    1077                        SAMPLIM            ERASE
000573:    1100     1077               RADUSE             EQUALS   SAMPLIM
000574:    1100                        SAMPLSUM           ERASE    +3
000575:    1104                        TIMEHOLD           ERASE    +1
000576:    1106     1100               RRTARGET           EQUALS   SAMPLSUM                              #  HALF U IT VECTOR IN SM OR NB AXES.
000577:    1106                        TANG               ERASE    +1                                    #  DESIRE  TRUNNION AND SHAFT ANGLES.
000578:    1110     1106               MODEA              EQUALS   TANG
000579:    1110                        MODEB              ERASE    +1                                    #  DODES  LOBBERS TANG +2.
000580:    1112     1110               NSAMP              EQUALS   MODEB
000581:    1112                        DESRET             ERASE
000582:    1113     1112               OLDATAGD           EQUALS   DESRET                                #  USED I  DATA READING ROUTINES.
000583:    1113                        DESCOUNT           ERASE
000584:
000585:                                                                                                  #  ******   P22  ******                          (6D)
000586:
000587:    1114     1100               RSUBC              EQUALS   RRTARGET                              #  I(6) S-S CSM POSITION VECTOR
000588:


000590:                                                                                                  #  UNSWITCHED FOR ORBIT INTEGRATION.             (21D)
000591:
000592:    1114                        TDEC               ERASE    +20D                                  #  I(2)
000593:    1141     1116               COLREG             EQUALS   TDEC       +2                         #  I(1)
000594:    1141     1117               LAT                EQUALS   COLREG     +1                         #  I(2)
000595:    1141     1121               LONG               EQUALS   LAT        +2                         #  I(2)
000596:    1141     1123               ALT                EQUALS   LONG       +2                         #  I(2)
000597:    1141     1125               YV                 EQUALS   ALT        +2                         #  I(6)
000598:    1141     1133               ZV                 EQUALS   YV         +6                         #  I(6)
000599:
000600:                                                                                                  #  MISCELLANEOUS UNSWITCHED.                     (20D)
000601:
000602:    1141                        P40/RET            ERASE                                          #  (WILL BE PUT IN E6 WHEN THERE IS ROOM)
000603:    1142                        GENRET             ERASE                                          #  B(1) R61 RETURN CADR.
000604:    1143                        OPTION1            ERASE                                          #  B(1) NOUN 06 USES THIS
000605:    1144                        OPTION2            ERASE                                          #  B(1) NOUN 06 USES THIS
000606:    1145                        OPTION3            ERASE                                          #  B(1) NOUN 06 USES THIS
000607:    1146                        LONGCADR           ERASE    +1                                    #  B(2) LONGCALL REGISTER
000608:    1150                        LONGBASE           ERASE    +1
000609:    1152                        LONGTIME           ERASE    +1                                    #  B(2) LONGCALL REGISTER
000610:    1154                        CDUTEMPX           ERASE                                          #  B(1)TMP
000611:    1155                        CDUTEMPY           ERASE                                          #  B(1)TMP
000612:    1156                        CDUTEMPZ           ERASE                                          #  B(1)TMP
000613:    1157                        PIPATMPX           ERASE                                          #  B(1)TMP
000614:    1160                        PIPATMPY           ERASE                                          #  B(1)TMP
000615:    1161                        PIPATMPZ           ERASE                                          #  B(1)TMP
000616:
000617:    1162                        DISPDEX            ERASE                                          #  B(1)
000618:    1163                        TEMPR60            ERASE                                          #  B(1)
000619:    1164                        PRIOTIME           ERASE                                          #  B(1)
000620:
000621:                                                                                                  #  P27 (UPDATE PROGRAM) STORAGE.                 (26D)
000622:
000623:    1165                        UPVERBSV           ERASE                                          #  B(1) UPDATE VERB ATTEMPTED.
000624:    1166                        UPTEMP             ERASE    +24D                                  #  B(1)TMP SCRATCH
000625:                                                                                                  #  RETAIN THE ORDER OF COMPNUMB THRU UPBUFF +19D FOR DOWNLINK PURPOSES.
000626:    1217     1167               COMPNUMB           EQUALS   UPTEMP     +1                         #  B(1)TMP NUMBER OF ITEMS TO BE UPLINKED
000627:    1217     1170               UPOLDMOD           EQUALS   COMPNUMB   +1                         #  B(1)TMP INTERRUPTED PROGRAM MM
000628:    1217     1171               UPVERB             EQUALS   UPOLDMOD   +1                         #  B(1)TMP VERB NUMBER
000629:    1217     1172               UPCOUNT            EQUALS   UPVERB     +1                         #  B(1)TMP UPBUFF INDEX
000630:    1217     1173               UPBUFF             EQUALS   UPCOUNT    +1                         #  B(20D)
000631:
000632:                                                                                                  #  SPECIAL DEFINITION FOR SYSTEM TEST ERASABLE PGMS.     (2D)
000633:
000634:    1217     1166               EBUF2              EQUALS   UPTEMP                                #  B(2) FOR EXCLUSIVE USE OF SYSTEM TEST
000635:


000637:                                                                                                  #  PERM STATE VECTORS FOR BOOST AND DOWNLINK-WHOLE MISSION-      (14D)
000638:
000639:    1217                        RN                 ERASE    +5                                    #  B(6)PRM
000640:    1225                        VN                 ERASE    +5                                    #  B(6)PRM
000641:    1233                        PIPTIME            ERASE    +1                                    #  B(2)PRM (MUST BE FOLLOWED BY GDT/2)
000642:
000643:                                                                                                  #  SERVICER   -MUST FOLLOW PIPTIME-      (18D)
000644:
000645:    1235                        GDT/2              ERASE    +17D                                  #  B(6)TMP       ** MUST FOLLOW PIPTIME **
000646:    1257     1243               MASS               EQUALS   GDT/2      +6                         #  B(2)
000647:    1257     1243               WEIGHT/G           =        MASS
000648:    1257     1245               ABDELV             EQUALS   MASS       +2                         #  ALCMANU STORAGE)
000649:    1257     1246               PGUIDE             EQUALS   ABDELV     +1                         #  (2)
000650:    1257     1250               DVTHRUSH           EQUALS   PGUIDE     +2                         #  (1)
000651:    1257     1251               AVEGEXIT           EQUALS   DVTHRUSH   +1                         #  (2)
000652:    1257     1251               AVGEXIT            =        AVEGEXIT
000653:    1257     1253               TEMX               EQUALS   AVEGEXIT   +2                         #  (1)
000654:    1257     1254               TEMY               EQUALS   TEMX       +1                         #  (1)
000655:    1257     1255               TEMZ               EQUALS   TEMY       +1                         #  (1)
000656:    1257     1256               PIPAGE             EQUALS   TEMZ       +1                         #  B(1)
000657:
000658:                                                                                                  #  PERMANENT LEM DAP STORAGE.                    (6D)
000659:
000660:    1257                        CH5MASK            ERASE                                          #  B(1)PRM
000661:    1260                        CH6MASK            ERASE                                          #  B(1)PRM JET FAILURE MASK.
000662:    1261                        SPNDX              ERASE                                          #  B(1)
000663:    1262                        RCSFLAGS           ERASE                                          #  AUTOPILOT FLAG WORD
000664:                                                                                                  #  BIT ASSIGNMENTS:
000665:                                                                                                  #   1) ALTERYZ SWITCH (ZEROOR1)
000666:                                                                                                  #   2) NEEDLER SWITCH
000667:                                                                                                  #   3) NEEDLER SWITCH
000668:                                                                                                  #   4) NEEDLER SWITCH
000669:                                                                                                  #   5) NEEDLER SWITCH
000670:                                                                                                  #   9) JUST-IN-DETENT SWITCH
000671:                                                                                                  #  10) PBIT - MANUAL CONTROL SWITCH
000672:                                                                                                  #  11) QRBIT - MANUAL CONTROL SWITCH
000673:                                                                                                  #  12) PSKIP CONTROL (PJUMPADR)
000674:                                                                                                  #  13) 1/ACCJOB CONTROL (ACCSET)
000675:    1263                        T5ADR              ERASE    +1                                    #  GENADR OF NEXT LM DAP T5RUPT. * 2CADR *
000676:                                                                                                  #  BBCON OF NEXT LM DAP T5RUPT.    2CADR
000677:
000678:                                                                                                  #  ERASABLES FOR RADAR READ PROTECTION (C13STALL)        (4D)
000679:
000680:    1265                        C13QSAV            ERASE                                          #  B(1) QSAVE FOR C13STALL USERS.
000681:    1266                        C13FSAV            ERASE                                          #  B(1) FBANK SAVE FOR C13STALL.
000682:    1267                        RADTIME            ERASE                                          #  B(1) NEG. TIME OF SCALAR READ.


000684:    1270                        RADDEL             ERASE                                          #  B(1) DELTA TIME FROM SCALAR READ TO T5.
000685:
000686:                                                                                                  #  RADAREAD STORAGE                              (2D)
000687:
000688:    1271                        TTOTIG             ERASE    +1                                    #  B(2) LATEST ESTIMATE OF TIME TO IGNITION
000689:
000690:                                                                                                  #  RCS FAILURE MONITOR STORAGE                   (1)
000691:
000692:    1273                        PVALVEST           ERASE                                          #  B(1)PRM
000693:
000694:                                                                                                  #  KALCMANU/DAP INTERFACE.                       (3D)
000695:
000696:    1274                        DELPEROR           ERASE                                          #  B(1)PRM COMMAND LAGS.
000697:    1275                        DELQEROR           ERASE                                          #  B(1)PRM
000698:    1276                        DELREROR           ERASE                                          #  B(1)PRM
000699:
000700:                                                                                                  #  MODE SWITCHING ERASABLE.                      (9D)
000701:
000702:                                                                                                  #  RETAIN THE ORDER OF IMODES30 AND IMODES33 FOR DOWNLINK PURPOSES.
000703:    1277                        IMODES30           ERASE                                          #  B(1)
000704:    1300                        IMODES33           ERASE
000705:    1301                        MODECADR           ERASE    +2                                    #  B(3)PRM
000706:    1304     1301               IMUCADR            EQUALS   MODECADR
000707:    1304     1302               OPTCADR            EQUALS   MODECADR   +1
000708:    1304     1303               RADCADR            EQUALS   MODECADR   +2
000709:    1304                        ATTCADR            ERASE    +2                                    #  B(3)PRM
000710:    1307     1306               ATTPRIO            =        ATTCADR    +2
000711:    1307                        MARKSTAT           ERASE
000712:
000713:                                                                                                  #  T4RUPT ERASABLE.                              (2D)
000714:
000715:    1310                        DSRUPTSW           ERASE
000716:    1311                        LGYRO              ERASE                                          #  (1)
000717:
000718:                                                                                                  #  RENDEZVOUS RADAR TASK STORAGE                 (3D)
000719:
000720:    1312                        RRRET              ERASE    +2D                                   #  B(1)TMP       P20'S, PERHAPS R29 & R12
000721:    1315     1313               RDES               EQUALS   RRRET      +1                         #  B(1)TMP
000722:    1315     1314               RRINDEX            EQUALS   RDES       +1                         #  B(1)TMP
000723:
000724:                                                                                                  #  MEASINC                                       (4D)
000725:
000726:    1315                        WIXA               ERASE                                          #  B(1)
000727:    1316                        WIXB               ERASE                                          #  B(1)
000728:    1317                        ZIXA               ERASE                                          #  B(1)


000730:    1320                        ZIXB               ERASE                                          #  B(1)
000731:
000732:                                                                                                  #           LANDING RADAR PADLOAD                          (1D)
000733:
000734:    1321  E7,1756               LRWH1              EQUALS   RODSCAL1                              #  B(1) P.L.  P64 LR WEIGHTING FUNCTION
000735:
000736:
000737:                                                                                                  #  AGS DUMMY ID WORD.                            (1D)
000738:
000739:    1321                        AGSWORD            ERASE
000740:
000741:                                                                                                  #  SOME MISCELLANEOUS UNSWITCHED.                (6D)
000742:
000743:    1322                        RATEINDX           ERASE                                          #  (1) USED BY KALCMANU
000744:    1323                        DELAYLOC           ERASE    +2
000745:    1326                        LEMMASS            ERASE                                          #  KEEP CONTIGUOUS W. CSMMASS  (1) EACH
000746:    1327                        CSMMASS            ERASE
000747:
000748:                                                                                                  #  LESS IS MORE.
000749:
000750:                                                                                                  #             RENDEZVOUS AND LANDING RADAR DOWNLINK STORAGE.     (7D)
000751:
000752:                                                                                                  #                (NORMALLY USED DURING P20, BUT MAY ALSO)
000753:                                                                                                  #                (BE REQUIRED FOR THE V62 SPURIOUS TEST.)
000754:
000755:                                                                                                  #                     (PLEASE KEEP IN THIS ORDER)
000756:
000757:    1330                        DNRRANGE           ERASE    +6                                    #  B(1)TMP
000758:    1337     1331               DNRRDOT            EQUALS   DNRRANGE   +1                         #  B(1)TMP
000759:    1337     1332               DNINDEX            EQUALS   DNRRDOT    +1                         #  B(1)TMP
000760:    1337     1333               DNLRVELX           EQUALS   DNINDEX    +1                         #  B(1)TMP
000761:    1337     1334               DNLRVELY           EQUALS   DNLRVELX   +1                         #  B(1)TMP
000762:    1337     1335               DNLRVELZ           EQUALS   DNLRVELY   +1                         #  B(1)TMP
000763:    1337     1336               DNLRALT            EQUALS   DNLRVELZ   +1                         #  B(1)TMP
000764:
000765:                                                                                                  #           RADAR -- RR AND LR                             (1D)
000766:
000767:    1337     1332               RADBITS            EQUALS   DNINDEX                               #  B(1)PRM   SHOWS TYPE OF RADAR READ
000768:
000769:                                                                                                  #  INCORPORATION UNSWITCHED.                     (2D)
000770:
000771:    1337     1256               W.IND              EQUALS   PIPAGE                                #  B(1)
000772:
000773:                                                                                                  #  SUBROUTINE BALLANGS OF R60.                   (1D)
000774:
000775:    1337                        BALLEXIT           ERASE                                          #  B(1) SAVE LOCATION FOR BALLINGS SUBR EXIT
000776:
000777:                                                                                                  #  SOME LEM DAP STORAGE.                         (4D)
000778:
000779:    1340                        DAPDATR1           ERASE                                          #  B(1)DSP DAP CONFIG.
000780:    1341                        TEVENT             ERASE    +1                                    #  B(2)DSP
000781:    1343                        DB                 ERASE                                          #  B(1)TMP DEAD BAND.
000782:
000783:                                                                                                  #  NOUN 87                                       (2D)


000785:    1344                        AZ                 ERASE    +1D                                   #  B(1) AZ AND EL MUST BE CONTIGUOUS
000786:    1346     1345               EL                 EQUALS   AZ         +1D                        #  B(1)
000787:
000788:                                                                                                  #  P63, P64, P65, P66, AND P67.                  (1D)
000789:
000790:    1346                        WCHPHASE           ERASE                                          #  B(1)
000791:
000792:                                                                                                  #  PADLOADS FOR R2 LUNAR POTENTIAL MODEL.        (2D)
000793:
000794:    1347                        E3J22R2M           ERASE                                          #  I(1)
000795:    1350                        E32C31RM           ERASE                                          #  I(1)
000796:
000797:                                                                                                  #  ERASABLES FOR TRUNNION AND SHAFT COMMANDS     (2D)
000798:
000799:    1351                        TRUNNCMD           ERASE                                          #  *** THESE TWO ERASABLES ***
000800:    1352                        SHAFTCMD           ERASE                                          #  *** MUST BE IN ORDER ***
000801:
000802:                                                                                                  #  ERASABLE FOR REGISTER 3 OF NOUN 49            (1D)
000803:
000804:    1353                        WHCHREAD           ERASE                                          #  B(1)TMP MEASUREMENT BEING PROCESSED.
000805:
000806:                                                                                                  #           LANDING PADLOAD                               (1D)
000807:
000808:    1354     1353               ELBIAS             EQUALS   WHCHREAD                              #  B(1) PL LPD ELEVATION BIAS. PI RADIANS.
000809:
000810:                                                                                                  #           P66 PADLOAD                                   (1D)
000811:
000812:    1354                        TOOFEW             ERASE                                          #  B(1) TOO FEW THROTTLINGS PER OMISSION:
000813:                                                                                                  #   ONE LESS THAN NO. THROTTLES REQUIRED
000814:                                                                                                  #    BETWEEN SKIPPED THROTTLES
000815:                                                                                                  #     1466 ALARM IF THROTTLINGS <= TOOFEW
000816:
000817:                                                                                                  #           TLOSS INDICATORS FOR DOWNLINK                 (2D)
000818:
000819:    1355                        SERVDURN           ERASE                                          #  B(1)  AT SERVOUT: TIME1 - PIPTIME +1
000820:    1356                        DUMLOOPS           ERASE                                          #  B(1)  LOOP COUNTER IN DUMMYJOB AT ADVAN
000821:
000822:    1357                        END-UE             EQUALS   1377
000823:
000824:                                                                                                  #  SELF-CHECK ASSIGNMENTS.                       (17D)
000825:
000826:                                                                                                  #                         (DO NOT MOVE, S-C IS ADDRESS SENSITIVE)
000827:
000828:    1357                        SELFERAS           ERASE    1357       -          1377            #  *** MUST NOT BE MOVED ***
000829:    1357     1357               SFAIL              EQUALS   SELFERAS                              #  B(1)
000830:    1357     1360               ERESTORE           EQUALS   SFAIL      +1                         #  B(1)
000831:    1357     1361               SELFRET            EQUALS   ERESTORE   +1                         #  B(1) RETURN
000832:    1357     1362               SMODE              EQUALS   SELFRET    +1                         #  B(1)
000833:    1357     1363               ALMCADR            EQUALS   SMODE      +1                         #  B(2) ALARM-ABORT USER'S 2CADR
000834:    1357     1365               ERCOUNT            EQUALS   ALMCADR    +2                         #  B(1)


000836:    1357     1366               SCOUNT             EQUALS   ERCOUNT    +1                         #  B(3)
000837:    1357     1371               SKEEP1             EQUALS   SCOUNT     +3                         #  B(1)
000838:    1357     1372               SKEEP2             EQUALS   SKEEP1     +1                         #  B(1)
000839:    1357     1373               SKEEP3             EQUALS   SKEEP2     +1                         #  B(1)
000840:    1357     1374               SKEEP4             EQUALS   SKEEP3     +1                         #  B(1)
000841:    1357     1375               SKEEP5             EQUALS   SKEEP4     +1                         #  B(1)
000842:    1357     1376               SKEEP6             EQUALS   SKEEP5     +1                         #  B(1)
000843:    1357     1377               SKEEP7             EQUALS   SKEEP6     +1                         #  B(1)
000844:


000846:                                                                                                  #  EBANK-3 ASSIGNMENTS
000847:
000848: E3,1400                                           SETLOC   1400
000849:
000850:                                                                                                  #  WAITLIST TASK LISTS.                          (26D)
000851:
000852: E3,1400                        LST1               ERASE    +7                                    #  B(8D)PRM DELTA T S.
000853: E3,1410                        LST2               ERASE    +17D                                  #  B(18D)PRM TASK 2CADR ADDRESSES.
000854:
000855:                                                                                                  #  RESTART STORAGE.                              (2D)
000856:
000857: E3,1432                        RSBBQ              ERASE    +1                                    #  B(2)PRM SAVE BB AND Q FOR RESTARTS.
000858:
000859:                                                                                                  #  MORE LONGCALL STORAGE.  (MUST BE IN LST1 S BANK.      (2D)
000860:
000861: E3,1434                        LONGEXIT           ERASE    +1                                    #  B(2)TMP MAY BE SELDOM OVERLAYED.
000862:
000863:                                                                                                  #  PHASE-CHANGE LISTS PART II.                   (12D)
000864:
000865:
000866: E3,1436                        PHSNAME1           ERASE                                          #  B(1)PRM
000867: E3,1437                        PHSBB1             ERASE                                          #  B(1)PRM
000868: E3,1440                        PHSNAME2           ERASE                                          #  B(1)PRM
000869: E3,1441                        PHSBB2             ERASE                                          #  B(1)PRM
000870: E3,1442                        PHSNAME3           ERASE                                          #  B(1)PRM
000871: E3,1443                        PHSBB3             ERASE                                          #  B(1)PRM
000872: E3,1444                        PHSNAME4           ERASE                                          #  B(1)PRM
000873: E3,1445                        PHSBB4             ERASE                                          #  B(1)PRM
000874: E3,1446                        PHSNAME5           ERASE                                          #  B(1)PRM
000875: E3,1447                        PHSBB5             ERASE                                          #  B(1)PRM
000876: E3,1450                        PHSNAME6           ERASE                                          #  B(1)PRM
000877: E3,1451                        PHSBB6             ERASE                                          #  B(1)PRM
000878:
000879:                                                                                                  #  IMU COMPENSATION PARAMETERS.                  (22D)
000880:
000881: E3,1452                        PBIASX             ERASE                                          #  B(1) PIPA BIAS, PIPA SCALE FACTR TERMS
000882: E3,1453  E3,1452               PIPABIAS           =        PBIASX                                #      INTERMIXED.
000883: E3,1453                        PIPASCFX           ERASE
000884: E3,1454  E3,1453               PIPASCF            =        PIPASCFX
000885: E3,1454                        PBIASY             ERASE
000886: E3,1455                        PIPASCFY           ERASE
000887: E3,1456                        PBIASZ             ERASE
000888: E3,1457                        PIPASCFZ           ERASE
000889:
000890: E3,1460                        NBDX               ERASE                                          #  GYRO BIAS DRIFTS
000891: E3,1461                        NBDY               ERASE
000892: E3,1462                        NBDZ               ERASE
000893:


000895: E3,1463                        ADIAX              ERASE                                          #  ACCELERATION SENSITIVE DRIFT ALONG THE
000896: E3,1464                        ADIAY              ERASE                                          #  INPUT AXIS
000897: E3,1465                        ADIAZ              ERASE
000898:
000899: E3,1466                        ADSRAX             ERASE                                          #  ACCELERATION SENSITIVE DRIFT ALONG THE
000900: E3,1467                        ADSRAY             ERASE                                          #  SPIN REFERENCE AXIS
000901: E3,1470                        ADSRAZ             ERASE
000902:
000903: E3,1471                        GCOMP              ERASE    +5                                    #  CONTAINS COMPENSATING TORQUES
000904:
000905: E3,1477  E3,1471               COMMAND            EQUALS   GCOMP
000906: E3,1477  E3,1474               CDUIND             EQUALS   GCOMP      +3
000907:
000908: E3,1477                        GCOMPSW            ERASE
000909:
000910:                                                                                                  #  STATE VECTORS FOR ORBIT INTEGRATION.          (44D)
000911:
000912:                                                                                                  #                (DIFEQCNT THRU XKEP MUST BE IN SAME
000913:                                                                                                  #                EBANK AS RRECTCSM, RRECTLEM ETC
000914:                                                                                                  #                BECAUSE THE COPY-CYCLES (ATOPCSM,
000915:                                                                                                  #                PTOACSM ETC) ARE EXECUTED IN BASIC.
000916:                                                                                                  #                ALL OTHER REFERENCES TO THIS GROUP
000917:                                                                                                  #                ARE BY INTERPRETIVE INSTRUCTIONS.)
000918:
000919:
000920: E3,1500                        DIFEQCNT           ERASE    +43D                                  #  B(1)
000921:                                                                                                  #  (UPSVFLAG...XKEP MUST BE KEPT IN ORDER)
000922: E3,1554  E3,1501               UPSVFLAG           EQUALS   DIFEQCNT   +1                         #  B(1)
000923: E3,1554  E3,1502               RRECT              EQUALS   UPSVFLAG   +1                         #  B(6)
000924: E3,1554  E3,1510               VRECT              EQUALS   RRECT      +6                         #  B(6)
000925: E3,1554  E3,1516               TET                EQUALS   VRECT      +6                         #  B(2)
000926: E3,1554  E3,1520               TDELTAV            EQUALS   TET        +2                         #  B(6)
000927: E3,1554  E3,1526               TNUV               EQUALS   TDELTAV    +6                         #  B(6)
000928: E3,1554  E3,1534               RCV                EQUALS   TNUV       +6                         #  B(6)
000929: E3,1554  E3,1542               VCV                EQUALS   RCV        +6                         #  B(6)
000930: E3,1554  E3,1550               TC                 EQUALS   VCV        +6                         #  B(2)
000931: E3,1554  E3,1552               XKEP               EQUALS   TC         +2                         #  B(2)
000932:
000933:                                                                                                  #  PERMANENT STATE VECTORS AND TIMES.            (99D)
000934:
000935:                                                                                                  #  (DO NOT OVERLAY WITH ANYTHING AFTER BOOST)
000936:
000937:                                                                                                  #  (RRECTCSM...XKEPCSM MUST BE KEPT IN THIS ORDER)
000938:
000939: E3,1554                        RRECTCSM           ERASE    +5                                    #  B(6)PRM CSM VARIABLES.
000940: E3,1562  E3,1554               RRECTOTH           =        RRECTCSM
000941: E3,1562                        VRECTCSM           ERASE    +5                                    #  B(6)PRM


000943: E3,1570                        TETCSM             ERASE    +1                                    #  B(2)PRM
000944: E3,1572  E3,1570               TETOTHER           =        TETCSM
000945: E3,1572                        DELTACSM           ERASE    +5                                    #  B(6)PRM
000946: E3,1600                        NUVCSM             ERASE    +5                                    #  B(6)PRM
000947: E3,1606                        RCVCSM             ERASE    +5                                    #  B(6)PRM
000948: E3,1614                        VCVCSM             ERASE    +5                                    #  B(6)PRM
000949: E3,1622                        TCCSM              ERASE    +1                                    #  B(2)PRM
000950: E3,1624                        XKEPCSM            ERASE    +1                                    #  B(2)PRM
000951:
000952:                                                                                                  #  (RRECTLEM...XKEPLEM MUST BE KEPT IN THIS ORDER)
000953:
000954: E3,1626                        RRECTLEM           ERASE    +5                                    #  B(6)PRM LEM VARIABLES
000955: E3,1634  E3,1626               RRECTHIS           =        RRECTLEM
000956: E3,1634                        VRECTLEM           ERASE    +5                                    #  B(6)PRM
000957: E3,1642                        TETLEM             ERASE    +1                                    #  B(2)PRM
000958: E3,1644  E3,1642               TETTHIS            =        TETLEM
000959: E3,1644                        DELTALEM           ERASE    +5                                    #  B(6)PRM
000960: E3,1652                        NUVLEM             ERASE    +5                                    #  B(6)PRM
000961: E3,1660                        RCVLEM             ERASE    +5                                    #  B(6)PRM
000962: E3,1666                        VCVLEM             ERASE    +5                                    #  B(6)PRM
000963: E3,1674                        TCLEM              ERASE    +1                                    #  B(2)PRM
000964: E3,1676                        XKEPLEM            ERASE    +1                                    #  B(2)PRM
000965:
000966: E3,1700                        X789               ERASE    +5
000967: E3,1706                        TEPHEM             ERASE    +2
000968: E3,1711                        -AYO               ERASE    +1
000969: E3,1713                        AXO                ERASE    +1
000970:
000971:                                                                                                  #  STATE VECTORS FOR DOWNLINK.                   (12D)
000972:
000973: E3,1715                        R-OTHER            ERASE    +5                                    #  B(6)PRM POS VECT (OTHER VECH) FOR DNLINK
000974: E3,1723                        V-OTHER            ERASE    +5                                    #  B(6)PRM VEL VECT (OTHER VECH) FOR DNLINK
000975:
000976: E3,1731  E3,1570               T-OTHER            =        TETCSM                                #              TIME (OTHER VECH) FOR DNLINK
000977:
000978:                                                                                                  #  REFSMMAT.                                     (18D)
000979:
000980: E3,1731                        REFSMMAT           ERASE    +17D                                  #  I(18D)PRM
000981:
000982:                                                                                                  #  ACTIVE VEHICLE CENTANG.  MUST BE DISPLAYED ANYTIME (ALMOST.)  (2D)
000983:
000984: E3,1753                        ACTCENT            ERASE    +1                                    #  I(2) S-S CENTRAL ANGLE BETWEEN ACTIVE
000985:                                                                                                  #  VEHICLE AT TPI TIG AND TARGET VECTOR.
000986:
000987:                                                                                                  #  **** USED IN CONICSEX (PLAN INERT ORIENT) ****


000989: E3,1755  E3,1706               TIMSUBO            EQUALS   TEPHEM                                #  CSEC B-42 (TRIPLE PRECISION)
000990:
000991:                                                                                                  #  LPS20.1 STORAGE       -ALL ARE PRM -          (9D)
000992:
000993: E3,1755                        LS21X              ERASE                                          #  I(1)
000994: E3,1756                        LOSVEL             ERASE    +5                                    #  I(6)
000995: E3,1764                        MLOSV              ERASE    +1                                    #  I(2) MAGNITUDE OF LOS, METERS B-29
000996:
000997:                                                                                                  #  ***** P22 ***** (OVERLAYS LPS 20.1 STORAGE)   (6D)
000998: E3,1766  E3,1756               VSUBC              EQUALS   LOSVEL                                #  I(6) S-S CSM VELOCITY VECTOR
000999:
001000:                                                                                                  #  PADLOADED ERASABLES FOR P20/P22               (6D)
001001:
001002: E3,1766                        RANGEVAR           ERASE    +1                                    #  I(2) RR RANGE ERROR VARIANCE
001003: E3,1770                        RATEVAR            ERASE    +1                                    #  I(2) RR RANGE-RATE ERROR VARIANCE
001004: E3,1772                        RVARMIN            ERASE                                          #  I(1) MINIMUM RANGE ERROR VARIANCE
001005: E3,1773                        VVARMIN            ERASE                                          #  I(1) MINIMUM RANGE-RATE ERROR VARIANCE
001006:
001007:                                                                                                  #  P32-P33 STORAGE                               (2D)
001008:
001009: E3,1774                        TCDH               ERASE    +1                                    #  I(2) T2 CDH TIME IN CS. (ALSO DOWNLINKED
001010:
001011: E3,1776                        END-E3             EQUALS   1777                                  #  ** LAST LOCATION USED IN E3 **
001012:


001014:                                                                                                  #  EBANK-4 ASSIGNMENTS
001015:
001016: E4,1400                                           SETLOC   2000
001017:
001018:                                                                                                  #  E4 IS, FOR THE MOST PART RESERVED FOR PAD LOADED AND UNSHARABLE ERASE.
001019:
001020: E4,1400                        AMEMORY            EQUALS
001021:
001022:                                                                                                  #  P20 STORAGE.  -PAD LOADED-                    (6D)
001023:
001024: E4,1400                        WRENDPOS           ERASE                                          #  B(1)PL        KM*2(-7)
001025: E4,1401                        WRENDVEL           ERASE                                          #  B(1)PL        KM(-1/2)*2(11)
001026: E4,1402                        WSHAFT             ERASE                                          #  B(1)PL        KM*2(-7)
001027: E4,1403                        WTRUN              ERASE                                          #  B(1)PL        KM*2(-7)
001028: E4,1404                        RMAX               ERASE                                          #  B(1)PL        METERS*2(-19)
001029: E4,1405                        VMAX               ERASE                                          #  B(1)PL        M/CSEC*2(-7)
001030:
001031:                                                                                                  #  LUNAR SURFACE NAVIGATION                      (2D)
001032:
001033: E4,1406                        WSURFPOS           ERASE                                          #  B(1)PL
001034: E4,1407                        WSURFVEL           ERASE                                          #  B(1)PL
001035:
001036:                                                                                                  #  P22 STORAGE.  -PAD LOADED-                    (2D)
001037:
001038: E4,1410                        SHAFTVAR           ERASE                                          #  B(1)PL        RAD SQ*2(12)
001039: E4,1411                        TRUNVAR            ERASE                                          #  B(1)PL        RAD SQ*2(10)
001040:
001041:                                                                                                  #  CONISEX STORAGE.-PAD LOADED-                  (6D)
001042:
001043: E4,1412                        504LM              ERASE    +5                                    #  I(6) MOON LIBRATION VECTOR
001044:
001045:                                                                                                  #  STORAGE FOR RLS AND TLAND - PAD LOADS - ORDER IS RETAINED FOR UPLINK. (8D)
001046:
001047: E4,1420                        RLS                ERASE    +5                                    #  I(6) LANDING SITE VECTOR -MOON REF
001048: E4,1426                        TLAND              ERASE    +1                                    #  B(2) NOMINAL LANDING TIME.
001049:
001050:                                                                                                  #  INTEGRATION STORAGE.                          (102D)
001051:
001052: E4,1430                        PBODY              ERASE    +101D                                 #  I(1)


001054: E4,1576  E4,1431               ALPHAV             EQUALS   PBODY      +1                         #  I(6)
001055: E4,1576  E4,1437               BETAV              EQUALS   ALPHAV     +6                         #  I(6)
001056: E4,1576  E4,1445               PHIV               EQUALS   BETAV      +6                         #  I(6)
001057: E4,1576  E4,1453               PSIV               EQUALS   PHIV       +6                         #  I(6)
001058: E4,1576  E4,1461               FV                 EQUALS   PSIV       +6                         #  I(6)    PERTURBING ACCELERATIONS
001059: E4,1576  E4,1467               ALPHAM             EQUALS   FV         +6                         #  I(2)
001060: E4,1576  E4,1471               BETAM              EQUALS   ALPHAM     +2                         #  I(2)
001061: E4,1576  E4,1473               TAU.               EQUALS   BETAM      +2                         #  I(2)
001062: E4,1576  E4,1475               DT/2               EQUALS   TAU.       +2                         #  I(2)
001063: E4,1576  E4,1477               H                  EQUALS   DT/2       +2                         #  I(2)
001064: E4,1576  E4,1501               GMODE              EQUALS   H          +2                         #  I(1)
001065: E4,1576  E4,1502               IRETURN            EQUALS   GMODE      +1                         #  I(1)
001066: E4,1576  E4,1503               NORMGAM            EQUALS   IRETURN    +1                         #  I(1)
001067: E4,1576  E4,1504               RPQV               EQUALS   NORMGAM    +1
001068: E4,1576  E4,1512               ORIGEX             EQUALS   RPQV       +6                         #  I(1)
001069: E4,1576  E4,1512               KEPRTN             EQUALS   ORIGEX                                #  I(1)
001070: E4,1576  E4,1513               RQVV               EQUALS   ORIGEX     +1                         #  I(6)
001071: E4,1576  E4,1521               RPSV               EQUALS   RQVV       +6                         #  I(6)
001072: E4,1576  E4,1527               XKEPNEW            EQUALS   RPSV       +6                         #  I(2)
001073: E4,1576  E4,1531               VECTAB             EQUALS   XKEPNEW    +2                         #  I(36D)
001074: E4,1576  E4,1574               VECTABND           EQUALS   VECTAB     +35D                       #  END MARK
001075:
001076:                                                                                                  #  SERVICER STORAGE (USED BY ALL POWERED FLIGHT PROGS.)  (18D)
001077:
001078: E4,1576  E4,1545               XNBPIP             EQUALS   VECTAB     +12D                       #  I(6)
001079: E4,1576  E4,1553               YNBPIP             EQUALS   XNBPIP     +6                         #  I(6)
001080: E4,1576  E4,1561               ZNBPIP             EQUALS   YNBPIP     +6                         #  I(6)
001081:
001082:                                                                                                  #  SOME VERB 82 STORAGE                          (4D)
001083:
001084: E4,1576  E4,1517               HAPOX              EQUALS   RQVV       +4                         #  I(2)
001085: E4,1576  E4,1521               HPERX              EQUALS   HAPOX      +2                         #  I(2)
001086:
001087:                                                                                                  #  V82 STORAGE                                   (6D)
001088:
001089: E4,1576  E4,1567               VONE'              EQUALS   VECTAB     +30D                       #  I(6)TMP  NORMAL VELOCITY VONE / SQRT. MU
001090:
001091:                                                                                                  #  R31 (V83) STORAGE. -SHARES WITH INTEGRATION STORAGE-  (28D)
001092:


001094: E4,1576  E4,1504               BASETHV            EQUALS   RPQV                                  #  I(6) BASE VEL VECTOR THIS VEH
001095:
001096: E4,1576  E4,1513               BASETIME           EQUALS   RQVV                                  #  I(2) TIME ASSOC WITH BASE VECS
001097: E4,1576  E4,1515               ORIG               EQUALS   RQVV       +2                         #  I(1) =0 FOR EARTH     =2 FOR MOON
001098: E4,1576  E4,1516               STATEXIT           EQUALS   RQVV       +3                         #  I(1) STQ ADDRESS FOR STATEXTP
001099: E4,1576  E4,1517               BASEOTV            EQUALS   RQVV       +4                         #  I(6) BASE VEL VECTOR OTHER VEH
001100:
001101: E4,1576  E4,1537               BASEOTP            EQUALS   VECTAB     +6                         #  I(6) BASE POS VECTOR OTHER VEH
001102:
001103: E4,1576  E4,1567               BASETHP            EQUALS   VECTAB     +30D                       #  I(6) BASE POS VECTOR THIS VEH
001104:
001105:                                                                                                  #  KEPLER STORAGE. (KEPLER IS CALLED BY PRECISION INTEGRATION AND (2D)
001106:                                                                                                  #  CONICS)
001107:
001108: E4,1576                        EPSILONT           ERASE    +1                                    #  I(2)
001109:
001110:                                                                                                  #  VERB 83 STORAGE.                              (18D)
001111:
001112: E4,1600                        RANGE              ERASE    +17D                                  #  I(2)DSP NOUN 54 DISTANCE TO OPTICAL SUBJ
001113: E4,1622  E4,1602               RRATE              EQUALS   RANGE      +2                         #  I(2)DSP NOUN 54 RATE OF APPROACH.
001114: E4,1622  E4,1604               RTHETA             EQUALS   RRATE      +2                         #  I(2)DSP NOUN 54.
001115: E4,1622  E4,1606               RONE               EQUALS   RTHETA     +2                         #  I(6)TMP VECTOR STORAGE.  (SCRATCH)
001116: E4,1622  E4,1614               VONE               EQUALS   RONE       +6                         #  I(6)TMP VECTOR STORAGE.  (SCRATCH)
001117:
001118:                                                                                                  #  VERB 67 STORAGE
001119:
001120: E4,1622  E4,1600               WWPOS              =        RANGE                                 #  NOUN 99 (V67)
001121: E4,1622  E4,1602               WWVEL              =        RRATE                                 #  NOUN 99 (V67)
001122: E4,1622  E4,1604               WWBIAS             =        RTHETA                                #  NOUN 99 (V67)
001123:
001124:                                                                                                  #  V82 STORAGE.  (CANNOT OVERLAY RONE OR VONE)   (11D) TWO SEPARATE LOCATIONS
001125:
001126: E4,1622  E4,1537               V82FLAGS           EQUALS   VECTAB     +6                         #  (1) FOR V82 BITS.
001127: E4,1622  E4,1540               TFF                EQUALS   V82FLAGS   +1                         #  I(2)
001128: E4,1622  E4,1542               -TPER              EQUALS   TFF        +2                         #  I(2)
001129:
001130: E4,1622  E4,1600               HPERMIN            EQUALS   RANGE                                 #  I(2) SET TO 300KFT OR 35KFT FOR SR30.1
001131: E4,1622  E4,1602               RPADTEM            EQUALS   HPERMIN    +2                         #  I(2) PAD OR LANDING RADIUS FOR SR30.1
001132: E4,1622  E4,1604               TSTART82           EQUALS   RPADTEM    +2                         #  I(2) TEMP TIME STORAGE FOR V82.
001133:
001134:                                                                                                  #           USED FOR SUMMATION OF UPRUPT DURING PRELAUNCH & SYS TEST LEADIN(3D)
001135:
001136: E4,1622     1245               UPSUM              EQUALS   ABDELV                                #  (3)
001137:
001138:
001139:                                                                                                  #  VARIOUS DISPLAY REGISTERS                     (6D) NOUN 84; P76


001141: E4,1622                        DELVOV             ERASE    +5D                                   #  (6)
001142:
001143:                                                                                                  #  ALIGNMENT PLANETARY-INERTIAL TRANSFORMATION STORAGE.          (18D)
001144:
001145:                                                                                                  #                UNSHARED WHILE LM ON LUNAR SURFACE.
001146:
001147: E4,1630                        GSAV               ERASE    +17D                                  #  I(6)
001148: E4,1652  E4,1636               YNBSAV             EQUALS   GSAV       +6                         #  I(6)
001149: E4,1652  E4,1644               ZNBSAV             EQUALS   YNBSAV     +6                         #  I(6)
001150:
001151:                                                                                                  #  KALCMANU STORAGE. CAN OVERLAY GSAV.           (18D)
001152:
001153: E4,1652  E4,1630               MFS                EQUALS   GSAV                                  #  I(18)
001154: E4,1652  E4,1630               MFI                EQUALS   MFS                                   #  I
001155: E4,1652  E4,1630               KEL                EQUALS   MFS                                   #  I(18)
001156: E4,1652  E4,1630               E01                EQUALS   MFS                                   #  I(6)
001157: E4,1652  E4,1636               E02                EQUALS   E01        +6                         #  I(6)
001158:
001159:                                                                                                  #  P32-P35, P72-P75 STORAGE.                     (40D)
001160:
001161: E4,1652                        T1TOT2             ERASE    +1                                    #  (2)   TIME FROM CSI TO CDH
001162: E4,1654                        T2TOT3             ERASE    +1                                    #  (2)
001163: E4,1656                        ELEV               ERASE    +1                                    #  (2)
001164: E4,1660                        UP1                ERASE    +5                                    #  (6)
001165: E4,1666                        DELVEET1           ERASE    +5                                    #  I(6)  DV CSI IN REF
001166: E4,1674                        DELVEET2           ERASE    +5                                    #  I(6)  DV CSH IN REF
001167: E4,1702                        RACT1              ERASE    +5                                    #  (6)   POS VEC OF ACTIVE AT CSI TIME
001168: E4,1710                        RACT2              ERASE    +5                                    #  (6)   POS VEC OF ACTIVE AT CDH TIME


001170: E4,1716                        RTSR1/MU           ERASE    +1                                    #  (2)   SQ ROOT 1/MU STORAGE
001171: E4,1720                        RTMU               ERASE    +1                                    #  (2)   MU STORAGE
001172:
001173:                                                                                                  #  (THE FOLLOWING ERASABLES OVERLAY PORTIONS OF THE PREVIOUS SECTION)
001174:
001175: E4,1722  E4,1652               +MGA               EQUALS   T1TOT2                                #  (2) S-S + MID GIM ANGL TO DELVEET3
001176:
001177: E4,1722  E4,1660               UNRM               EQUALS   UP1                                   #  I(6) S-S
001178:
001179: E4,1722  E4,1702               DVLOS              EQUALS   RACT1                                 #  I(6) S-S DELTA VELOCITY, LOS COORD-DISPLA
001180: E4,1722  E4,1710               ULOS               EQUALS   RACT2                                 #  I(6) S-S UNIT LINE OF SIGHT VECTOR
001181:
001182: E4,1722  E4,1716               NOMTPI             EQUALS   RTSR1/MU                              #  (2) S-S NOMINAL TPI TIME FOR RECYCLE
001183:
001184:                                                                                                  #  SOME P30 STORAGE.                             (4D)
001185:
001186: E4,1722  E4,1716               HAPO               EQUALS   RTSR1/MU                              #  I(2)
001187: E4,1722  E4,1720               HPER               EQUALS   HAPO       +2                         #  I(2)
001188:
001189:                                                                                                  #  THE FOLLOWING ARE ERASABLE LOADS DURING A PERFORMANCE TEST.
001190:
001191: E4,1722  E4,1400               TRANSM1            =        WRENDPOS                              #  E4,1400
001192: E4,1722  E4,1422               ALFDK              =        TRANSM1    +18D
001193:
001194:                                                                                                  #  ******* THE FOLLOWING SECTIONS OVERLAY V83 AND DISPLAY STORAGE *******
001195:
001196:                                                                                                  #  V47 (R47) AGS INITIALIZATION PROGRAM STORAGE.  (OVERLAYS V83) (14D)
001197:
001198: E4,1722  E4,1600               AGSBUFF            EQUALS   RANGE                                 #  B(14D)
001199: E4,1722  E4,1615               AGSBUFFE           EQUALS   AGSBUFF    +13D                       #  ENDMARK
001200:
001201:                                                                                                  #  R36 OUT-OF-PLANE RENDEZVOUS DISPLAY STORAGE.  (OVERLAYS V83)  (12D)
001202:
001203: E4,1722  E4,1606               RPASS36            EQUALS   RONE                                  #  I(6) S-S
001204: E4,1722  E4,1614               UNP36              EQUALS   RPASS36    +6                         #  I(6) S-S
001205:
001206:                                                                                                  #  S-BAND ANTENNA GIMBAL ANGLES.  DISPLAYED BY R05 (V64).  (OVERLAYS V83)        (10D)
001207:                                                                                                  #                        (OPERATES DURING P00 ONLY)


001209: E4,1722  E4,1600               ALPHASB            EQUALS   RANGE                                 #  B(2)DSP NOUN 51.  PITCH ANGLE.
001210: E4,1722  E4,1602               BETASB             EQUALS   ALPHASB    +2                         #  B(2)DSP NOUN 51.  YAW ANGLE.
001211: E4,1722  E4,1604               RLM                EQUALS   BETASB     +2                         #  I(6)S S/C POSITION VECTOR.
001212:
001213:                                                                                                  #  **** USED IN S-BAND ANTENNA FOR LM ****
001214:
001215: E4,1722  E4,1602               YAWANG             EQUALS   BETASB
001216: E4,1722  E4,1600               PITCHANG           EQUALS   ALPHASB
001217:
001218:                                                                                                  #  NOUN 56 DATA - COMPUTED AND DISPLAYED BY VERB 85.     (4)
001219:
001220: E4,1722  E4,1600               RR-AZ              EQUALS   PITCHANG                              #  I(2) ANGLE BETWEEN LOS AND X-Z PLANE.
001221: E4,1722  E4,1602               RR-ELEV            EQUALS   RR-AZ      +2                         #  I(2) ANGLE BETWEEN LOS AND Y-Z PLANE.
001222:
001223:                                                                                                  #  R04 (V62) RADAR TEST STORAGE.                 (8D)
001224:                                                                                                  #  R04 IS RESTRICTED TO P00.
001225:
001226: E4,1722  E4,1600               RSTACK             EQUALS   RANGE                                 #  B(8) BUFFER FOR R04 NOUNS.
001227:
001228:                                                                                                  #  INITVEL STORAGE.  ALSO USED BY P31, P34, P35, P74, P75, P10, P11, MIDGIM, S40.1 AND S40.9.    (18D)
001229:
001230:                                                                                                  #                (POSSIBLY RINIT & VINIT CAN OVERLAY DELVEET1 & 2 ABOVE)
001231:
001232: E4,1722                        RINIT              ERASE    +5                                    #  I(6) ACTIVE VEHICLE POSITION
001233: E4,1730                        VINIT              ERASE    +5                                    #  I(6) ACTIVE VEHICLE VELOCITY
001234: E4,1736                        VIPRIME            ERASE    +5                                    #  I(6) NEW VEL REQUIRED AT INITIAL RADIUS.
001235:
001236:                                                                                                  #  VARIOUS DISPLAY REGISTERS.  BALLANGS          (3D)
001237:
001238: E4,1744                        FDAIX              ERASE                                          #  I(1)
001239: E4,1745                        FDAIY              ERASE                                          #  I(1)
001240: E4,1746                        FDAIZ              ERASE                                          #  I(1)
001241:
001242:                                                                                                  #  P34-P35 STORAGE.  DOWNLINKED.                 (2D)
001243:
001244: E4,1747                        DELVTPF            ERASE    +1                                    #  I(2) DELTA V FOR TPF
001245:
001246:                                                                                                  #  LPS20.1 STORAGE.  CALLED BY R65.              (12D)
001247:
001248: E4,1751                        LMPOS              ERASE    +5                                    #  I(6)TEMP.  STORAGE FOR LM POS. VECTOR.
001249: E4,1757                        LMVEL              ERASE    +5                                    #  I(6)TEMP.  STORAGE FOR LM VEL. VECTOR.
001250:
001251:                                                                                                  #  INITVEL STORAGE.  ALSO USED BY P31,34,35,74,75,S40.1 AND DOWNLINKED.  (6D)
001252:
001253: E4,1765                        DELVEET3           ERASE    +5                                    #  I(6) DELTA V IN INERTIAL COORDINATES.
001254:


001256:                                                                                                  #  SOME R04(V63)-R77 STORAGE.                    (6D)
001257:
001258: E4,1773                        RTSTDEX            ERASE                                          #  B(1)
001259: E4,1774                        RTSTMAX            ERASE                                          #  B(1)
001260: E4,1775                        RTSTBASE           ERASE                                          #  B(1)
001261: E4,1776                        RTSTLOC            ERASE                                          #  B(1)
Warning:  Next code may overflow storage.
001262: E4,1777                        RSAMPDT            ERASE                                          #  B(1)
001263: E4,1777  E4,1575               RFAILCNT           EQUALS   PBODY      +101D                      #  B(1)
001264:
001265: E4,1777                        END-E4             EQUALS                                         #  FIRST UNUSED LOCATION IN E4
001266:
001267:                                                                                                  #  SECOND DPS GUIDANCE (LUNAR LANDING)  (OVERLAY P32-35, INITVEL)        (12D)
001268:
001269: E4,1777  E4,1630               ANGTERM            EQUALS   GSAV                                  #  I(6) GUIDANCE
001270:
001271:                                                                                                  #  ASCENT GUIDANCE FOR LUNAR LANDING             (54D)
001272:
001273: E4,1777  E4,1662               AT                 EQUALS   UP1        +2                         #  I(2)TMP ENGINE DATA -- THRUST ACC*2(9)
001274: E4,1777  E4,1664               VE                 EQUALS   AT         +2                         #  I(2)TMP EXHAUST VELOCITY * 2(7)M/CS.
001275: E4,1777  E4,1666               TTO                EQUALS   VE         +2                         #  I(2)TMP TAILOFF TIME * 2(17)CS.
001276: E4,1777  E4,1670               TBUP               EQUALS   TTO        +2                         #  I(2)TMP (M/MDOT) * 2(17)CS.
001277: E4,1777  E4,1672               RDOTD              EQUALS   TBUP       +2                         #  I(2)TMP TARGET VELOCITY COMPONENTS
001278: E4,1777  E4,1674               YDOTD              EQUALS   RDOTD      +2                         #  I(2)TMP SCALING IS 2(7)M/CS.
001279: E4,1777  E4,1676               ZDOTD              EQUALS   YDOTD      +2                         #  I(2)TMP
001280:
001281: E4,1777  E4,1700               /R/MAG             EQUALS   ZDOTD      +2                         #  I(2)TMP
001282: E4,1777  E4,1702               LAXIS              EQUALS   /R/MAG     +2                         #  I(6)TMP
001283: E4,1777  E7,1473               RDOT               =        HDOTDISP
001284: E4,1777  E4,1710               YDOT               =        LAXIS      +6                         #  I(2)TMP VEL. NORMAL TO REF. PLANE*2(-7)
001285: E4,1777  E4,1712               ZDOT               EQUALS   YDOT       +2                         #  I(2)TMP  DOWN RANGE VEL * 2(-7).
001286: E4,1777  E4,1714               GEFF               EQUALS   ZDOT       +2                         #  I(2)TMP  EFFECTIVE GRAVITY
001287:
001288:                                                                                                  #  THESE TWO GROUPS OF ASCENT GUIDANCE ARE SPLIT BY THE ASCENT-DESCENT SERVICER SECTION FOLLOWING THIS SECTION
001289:
001290: E4,1777  E4,1734               Y                  EQUALS   /LAND/     +2                         #  I(2)TMP OUT-OF-PLANE DIST *2(24)M
001291: E4,1777  E4,1736               DRDOT              EQUALS   Y          +2                         #  I(2)TMP RDOTD - RDOT


001293: E4,1777  E4,1740               DYDOT              EQUALS   DRDOT      +2                         #  I(2)TMP YDOTD - YDOT
001294: E4,1777  E4,1742               DZDOT              EQUALS   DYDOT      +2                         #  I(2)TMP ZDOTD - ZDOT
001295: E4,1777  E4,1744               PCONS              EQUALS   DZDOT      +2                         #  I(2)TMP CONSTANT IN ATR EQUATION
001296: E4,1777  E4,1746               YCONS              EQUALS   PCONS      +2                         #  I(2)TMP CONSTANT IN ATY EQUATION
001297: E4,1777  E4,1750               PRATE              EQUALS   YCONS      +2                         #  I(2)TMP RATE COEFF. IN ATR EQUATION
001298: E4,1777  E4,1752               YRATE              EQUALS   PRATE      +2                         #  I(2)TMP RATE COEFF. IN ATY EQUATION
001299: E4,1777  E4,1754               ATY                EQUALS   YRATE      +2                         #  I(2)TMP OUT-OF-PLANE THRUST COMP. *2(9)
001300: E4,1777  E4,1756               ATR                EQUALS   ATY        +2                         #  I(2)TMP RADIAL THRUST COMP. * 2(9)
001301: E4,1777  E4,1760               ATP                EQUALS   ATR        +2                         #  I(2)TMP DOWN-RANGE THRUST COMP
001302: E4,1777  E4,1762               YAW                EQUALS   ATP        +2                         #  I(2)TMP
001303: E4,1777  E4,1764               PITCH              EQUALS   YAW        +2                         #  I(2)RMP
001304:
001305:                                                                                                  #  SERVICER FOR LUNAR ASCENT AND DESCENT         (14D)
001306:
001307: E4,1777  E4,1716               G(CSM)             EQUALS   GEFF       +2                         #  I(6)  FOR UPDATE OF COMMAND MODULE STATE
001308: E4,1777  E3,1715               R(CSM)             EQUALS   R-OTHER                               #        VECTORS BY LEM; ANALOGS OF GDT/2,
001309: E4,1777  E3,1723               V(CSM)             EQUALS   V-OTHER                               #        R, AND V, RESPECTIVELY OF THE CSM
001310: E4,1777  E4,1724               WM                 EQUALS   G(CSM)     +6                         #  I(6)TMP - LUNAR ROTATION VECTOR (SM)
001311: E4,1777  E4,1732               /LAND/             EQUALS   WM         +6                         #  B(2) LUNAR RADIUS AT LANDING SITE
001312:


001314:                                                                                                  #  EBANK-5 ASSIGNMENTS
001315:
001316: E5,1400                                           SETLOC   2400
001317:
001318:                                                                                                  #  W-MATRIX.  ESSENTIALLY UNSHARABLE.            (162D)
001319:
001320: E5,1400                        W                  ERASE    +161D
001321: E5,1642  E5,1642               ENDW               EQUALS   W          +162D
001322:
001323:                                                                                                  #  ******* OVERLAY NUMBER 1 IN EBANK 5 *******
001324:
001325:                                                                                                  #          W-MATRIX OVERLAY: PADLOADS -- LANDING, ABORTS               (122D)
001326: E5,1642  E5,1400               VELBIAS            EQUALS   W                                     #  I(2) PL BIAS VALUE FOR VELOCITY.
001327:                                                                                                  #  REASONABILITY TEST, 2(6) M/CS
001328:                                                                                                  #  PLEASE PRESERVE THE ORDER OF RBRFGX THROUGH TCGIAPPR.
001329: E5,1642  E5,1402               RBRFGX             EQUALS   VELBIAS    +2                         #  I(2)  POSITION TARGETS
001330: E5,1642  E5,1404               RAPFGX             EQUALS   RBRFGX     +2                         #  I(2)
001331: E5,1642  E5,1406               RBRFGZ             EQUALS   RAPFGX     +2                         #  I(2)
001332: E5,1642  E5,1410               RAPFGZ             EQUALS   RBRFGZ     +2                         #  I(2)
001333: E5,1642  E5,1412               VBRFGX             EQUALS   RAPFGZ     +2                         #  I(2)  VELOCITY TARGETS
001334: E5,1642  E5,1414               VAPFGX             EQUALS   VBRFGX     +2                         #  I(2)
001335: E5,1642  E5,1416               VBRFGZ             EQUALS   VAPFGX     +2                         #  I(2)
001336: E5,1642  E5,1420               VAPFGZ             EQUALS   VBRFGZ     +2                         #  I(2)
001337: E5,1642  E5,1422               ABRFGX             EQUALS   VAPFGZ     +2                         #  I(2)  ACCELERATION TARGETS
001338: E5,1642  E5,1424               AAPFGX             EQUALS   ABRFGX     +2                         #  I(2)
001339: E5,1642  E5,1426               ABRFGZ             EQUALS   AAPFGX     +2                         #  I(2)
001340: E5,1642  E5,1430               AAPFGZ             EQUALS   ABRFGZ     +2                         #  I(2)
001341: E5,1642  E5,1432               VBRFG*             EQUALS   AAPFGZ     +2                         #  I(2)  SCALED TARGETS FOR TTF/8CL
001342: E5,1642  E5,1434               VAPFG*             EQUALS   VBRFG*     +2                         #  I(2)
001343: E5,1642  E5,1436               ABRFG*             EQUALS   VAPFG*     +2                         #  I(2)
001344: E5,1642  E5,1440               AAPFG*             EQUALS   ABRFG*     +2                         #  I(2)
001345: E5,1642  E5,1442               JBRFG*             EQUALS   AAPFG*     +2                         #  I(2)
001346: E5,1642  E5,1444               JAPFG*             EQUALS   JBRFG*     +2                         #  I(2)
001347:                                                                                                  #  * SEE PARAMETER TABLE IN LUNAR LANDING GUIDANCE EQUATIONS FOR
001348:                                                                                                  #                INDIRECT ADDRESSING INTO ABOVE AREA.
001349:
001350: E5,1642  E5,1446               GAINBRAK           EQUALS   JAPFG*     +2                         #  I(2)  GAINS FOR GUIDANCE FRAME ERECTION
001351: E5,1642  E5,1450               GAINAPPR           EQUALS   GAINBRAK   +2                         #  I(2)
001352: E5,1642  E5,1452               TCGFBRAK           EQUALS   GAINAPPR   +2                         #  I(2)  TIME CRITERIA FOR GUIDANCE FRAME
001353: E5,1642  E5,1453               TCGIBRAK           EQUALS   TCGFBRAK   +1                         #  I(1)
001354: E5,1642  E5,1454               TCGFAPPR           EQUALS   TCGIBRAK   +1                         #  I(1)
001355: E5,1642  E5,1455               TCGIAPPR           EQUALS   TCGFAPPR   +1                         #  I(1)
001356: E5,1642  E5,1456               VIGN               EQUALS   TCGIAPPR   +1                         #  I(2)  DESIRED SPEED FOR IGNITION
001357: E5,1642  E5,1460               RIGNX              EQUALS   VIGN       +2                         #  I(2)  DESIRED 'ALTITUDE' FOR IGNITION
001358: E5,1642  E5,1462               RIGNZ              EQUALS   RIGNX      +2                         #  I(2)  DESIRED GROUND RANGE FOR IGNITION
001359: E5,1642  E5,1464               KIGNX/B4           EQUALS   RIGNZ      +2                         #  I(2)
001360: E5,1642  E5,1466               KIGNY/B8           EQUALS   KIGNX/B4   +2                         #  I(2)
001361: E5,1642  E5,1470               KIGNV/B4           EQUALS   KIGNY/B8   +2                         #  I(2)
001362: E5,1642  E5,1472               LOWCRIT            EQUALS   KIGNV/B4   +2                         #  B(1) (HIGHCRIT MUST FOLLOW LOWCRIT)
001363: E5,1642  E5,1473               HIGHCRIT           EQUALS   LOWCRIT    +1                         #  B(1)
001364: E5,1642  E5,1474               TAUHZ              EQUALS   HIGHCRIT   +1                         #  P66 HORIZONTAL
001365: E5,1642  E5,1475               QHZ                EQUALS   TAUHZ      +1                         #      VELOCITY NULLING
001366: E5,1642  E5,1476               AHZLIM             EQUALS   QHZ        +1                         #        CONSTANTS
001367: E5,1642  E5,1477               2LATE466           EQUALS   AHZLIM     +1                         #  I(2) MIN ELAPSED TIME SINCE PIPTIME ERE
001368:                                                                                                  #  A P66(2 R/D) WILL BE OMITTED
001369: E5,1642  E5,1503               DELQFIX            EQUALS   2LATE466   +4                         #  I(2)  LR ALT. DATA REASONABILITY PARAM


001371: E5,1642  E5,1511               LRVMAX             EQUALS   DELQFIX    +6                         #  B(1) LR VEL WEIGHTING FUNCTIONS
001372: E5,1642  E5,1512               LRVF               EQUALS   LRVMAX     +1                         #  B(1) LR VEL WEIGHTING FUNCTIONS
001373: E5,1642  E5,1513               LRWVZ              EQUALS   LRVF       +1                         #  B(1) LR VEL WEIGH ING FUNCTIONS
001374: E5,1642  E5,1514               LRWVY              EQUALS   LRWVZ      +1                         #  B(1) LR VEL WEIGH ING FUNCTIONS
001375: E5,1642  E5,1515               LRWVX              EQUALS   LRWVY      +1                         #  B(1) LR VEL WEIGH ING FUNCTIONS
001376: E5,1642  E5,1516               LRWVFZ             EQUALS   LRWVX      +1                         #  B(1) LR VEL WEIGH ING FUNCTIONS
001377: E5,1642  E5,1517               LRWVFY             EQUALS   LRWVFZ     +1                         #  B(1) LR VEL WEIG  ING FUNC IONS
001378: E5,1642  E5,1520               LRWVFX             EQUALS   LRWVFY     +1                         #  B(1) LR VEL WEIG  ING FUNC IONS
001379: E5,1642  E5,1521               LRWVFF             EQUALS   LRWVFX     +1                         #  B(1) LR VEL WEIG  ING FUNC IONS
001380:
001381: E5,1642  E5,1522               ABSC0              EQUALS   LRWVFF     +1                         #  B(1)  ABSCISSAE DEFINING TERRAIN MODEL
001382: E5,1642  E5,1523               ABSC1              EQUALS   ABSC0      +1                         #  B(1)
001383: E5,1642  E5,1524               ABSC2              EQUALS   ABSC1      +1                         #  B(1)
001384: E5,1642  E5,1525               ABSC3              EQUALS   ABSC2      +1                         #  B(1)
001385: E5,1642  E5,1526               ABSC4              EQUALS   ABSC3      +1                         #  B(1)
001386: E5,1642  E5,1527               SLOPE0             EQUALS   ABSC4      +1                         #  B(1)  SLOPES DEFINING TERRAIN MODEL
001387: E5,1642  E5,1530               SLOPE1             EQUALS   SLOPE0     +1                         #  B(1)
001388: E5,1642  E5,1531               SLOPE2             EQUALS   SLOPE1     +1                         #  B(1)
001389: E5,1642  E5,1532               SLOPE3             EQUALS   SLOPE2     +1                         #  B(1)
001390: E5,1642  E5,1533               SLOPE4             EQUALS   SLOPE3     +1                         #  B(1)
001391:
001392: E5,1642     0130               ABVEL*             EQUALS   BUF                                   #  B(1) LR TEMP
001393: E5,1642     0131               VSELECT*           EQUALS   BUF        +1                         #  B(1) LR TEMP
001394:
001395: E5,1642  E5,1534               RODSCALE           EQUALS   SLOPE4     +1                         #  I(1) CLICK SCALE FACTOR FOR ROD
001396: E5,1642  E5,1535               TAUROD             EQUALS   RODSCALE   +1                         #  I(2) TIME CONSTANT FOR R.O.D.
001397: E5,1642  E5,1537               LAG/TAU            EQUALS   TAUROD     +2                         #  I(2) LAG TIME DIVIDED BY TAUROD (P66)
001398: E5,1642  E5,1541               MINFORCE           EQUALS   LAG/TAU    +2                         #  I(2) MINIMUM FORCE P66 WILL COMMAND.
001399: E5,1642  E5,1543               MAXFORCE           EQUALS   MINFORCE   +2                         #  I(2) MAXIMUM FORCE P66 WILL COMMAND.
001400: E5,1642  E5,1545               J1PARM             EQUALS   MAXFORCE   +2                         #  I(2) PARAMETER SET #1:
001401: E5,1642  E5,1547               K1PARM             EQUALS   J1PARM     +2                         #  I(2)      ABORT ORBIT SEMI-MAJOR AXIS COMP
001402: E5,1642  E5,1551               J2PARM             EQUALS   K1PARM     +2                         #  I(2) PARAMETER SET #2:
001403: E5,1642  E5,1553               K2PARM             EQUALS   J2PARM     +2                         #  I(2)      ABORT ORBIT SEMI-MAJOR AXIS COMP
001404: E5,1642  E5,1555               THETCRIT           EQUALS   K2PARM     +2                         #  I(2) CENTRAL ANGLE SWITCHING CRITERION.
001405: E5,1642  E5,1557               RAMIN              EQUALS   THETCRIT   +2                         #  I(2) MINIMUM ALLOWABLE APOLUNE.
001406: E5,1642  E5,1561               YLIM               EQUALS   RAMIN      +2                         #  I(2) MAXIMUM CROSS-RANGE DIST. IN ABORTS
001407: E5,1642  E5,1563               ABTRDOT            EQUALS   YLIM       +2                         #  I(2) DESIRED RADIAL VEL. FOR ABORTS.
001408: E5,1642  E5,1565               COSTHET1           EQUALS   ABTRDOT    +2                         #  I(2) COS OF CONE 1 ANGLE FOR ABORTS
001409: E5,1642  E5,1567               COSTHET2           EQUALS   COSTHET1   +2                         #  I(2) COS OF CONE 2 ANGLE FOR ABORTS.
001410:
001411:                                                                                                  #  SOME VARIABLES FOR SECOND DPS GUIDANCE        (38D)
001412:
001413: E5,1642  E5,1571               CG                 EQUALS   COSTHET2   +2                         #  I(18D) GUIDANCE
001414: E5,1642  E5,1613               RANGEDSP           EQUALS   CG         +18D                       #  B(2) DISPLAY
001415: E5,1642  E5,1613               OUTOFPLN           EQUALS   RANGEDSP                              #  *** OUTOFPLN CAN OVERLAY RANGEDSP ***
001416: E5,1642  E5,1615               R60VSAVE           EQUALS   OUTOFPLN   +2                         #  I(6)TMP SAVES VALUE OF POINTVSM THRU R51
001417: E5,1642  E5,1623               RGU                EQUALS   R60VSAVE   +6                         #  I(6) UNSHARED FOR DOWNLINK
001418: E5,1642  E5,1631               DLAND              EQUALS   RGU        +6                         #  I(6) LANDING SITE CORRECTION SM FRAME
001419: E5,1642  E5,1631               DLANDX             EQUALS   DLAND
001420: E5,1642  E5,1633               DLANDY             EQUALS   DLAND      +2
001421: E5,1642  E5,1635               DLANDZ             EQUALS   DLAND      +4
001422: E5,1642  E5,1615               VBIAS              EQUALS   R60VSAVE                              #  I(6) PIPA BIAS EQUIV. VELOCITY VECTOR.
001423:                                                                                                  #           OVERLAYS OF THE BLOCK ABOVE (ASCENT AND DESCENT)
001424: E5,1642  E5,1571               JPARM              EQUALS   CG                                    #  I(2) JPARM WILL EQUAL J1PARM OR J2PARM.
001425: E5,1642  E5,1573               KPARM              EQUALS   JPARM      +2                         #  I(2) KPARM WILL EQUAL K1PARM OR K2PARM
001426: E5,1642  E5,1575               RP                 EQUALS   KPARM      +2                         #  I(2) PREDICTED BURNOUT RADIUS-M*2(-24)
001427: E5,1642  E5,1577               QAXIS              EQUALS   RP         +2                         #  I(6) ASCENT CROSSRANGE HALF-UNIT VECTOR
001428: E5,1642  E5,1605               ZAXIS1             EQUALS   QAXIS      +6                         #  I(6) ASCENT DOWNRANGE HALF-UNIT VECTOR
001429: E5,1642     0130               L*WCR*T            =        BUF
001430: E5,1642     0131               H*GHCR*T           =        BUF        +1
001431:


001433:                                                                                                  #  ALIGNMENT/SYSTEST/CALCSMSC COMMON STORAGE.    (36D)
001434:
001435: E5,1642  E5,1642               XSM                EQUALS   ENDW                                  #  B(6)
001436: E5,1642  E5,1650               YSM                EQUALS   XSM        +6                         #  B(6)
001437: E5,1642  E5,1656               ZSM                EQUALS   YSM        +6                         #  B(6)
001438:
001439: E5,1642  E5,1664               XDC                EQUALS   ZSM        +6                         #  B(6)
001440: E5,1642  E5,1672               YDC                EQUALS   XDC        +6                         #  B(6)
001441: E5,1642  E5,1700               ZDC                EQUALS   YDC        +6                         #  B(6)
001442:
001443: E5,1642  E5,1664               XNB                =        XDC
001444: E5,1642  E5,1672               YNB                =        YDC
001445: E5,1642  E5,1700               ZNB                =        ZDC
001446:
001447:                                                                                                  #  OVERLAYS WITHIN ALIGNMENT/SYSTEST/CALCSMSC COMMON STORAGE.    (4D)
001448:
001449: E5,1642  E5,1644               -COSB              EQUALS   XSM        +2                         #  (2)TMP
001450: E5,1642  E5,1646               SING               EQUALS   -COSB      +2                         #  (2)TMP
001451:
001452:                                                                                                  #  MORE OVERLAYS TO ALIGNMENT/SYSTEST (THESE ARE P52)    (6D)
001453:
001454: E5,1642  E5,1706               LANDLAT            EQUALS   STARAD                                #  (2) LATITUDE, LONGITUDE
001455: E5,1642  E5,1710               LANDLONG           EQUALS   LANDLAT    +2                         #  (2)   AND ALTITUDE
001456: E5,1642  E5,1712               LANDALT            EQUALS   LANDLONG   +2                         #  (2)   OF LANDING SITE
001457:
001458:                                                                                                  #  ALIGNMENT/SYSTEST COMMON STORAGE.             (31D)
001459:
001460: E5,1642  E5,1706               STARAD             EQUALS   ZDC        +6                         #  I(18D)TMP
001461: E5,1642  E5,1730               STAR               EQUALS   STARAD     +18D                       #  I(6)
001462: E5,1642  E5,1736               GCTR               EQUALS   STAR       +6                         #  B(1)
001463: E5,1642  E5,1737               OGC                EQUALS   GCTR       +1                         #  I(2)
001464: E5,1642  E5,1741               IGC                EQUALS   OGC        +2                         #  I(2)
001465: E5,1642  E5,1743               MGC                EQUALS   IGC        +2                         #  I(2)
001466:
001467:                                                                                                  #  P57 ALIGNMENT (OVERLAY OF ALIGNMENT/SYSTEST COMMON STORAGE)   (12D)
001468:
001469: E5,1642  E5,1706               GACC               =        STARAD                                #  (6) SS
001470: E5,1642  E5,1714               GOUT               =        STARAD     +6                         #  (6) SS
001471:
001472:                                                                                                  #  OVERLAYS WITHIN ALIGNMENT/SYSTEST COMMON STORAGE      (24D)
001473:
001474: E5,1642  E5,1706               VEARTH             EQUALS   STARAD                                #  (6)TMP
001475: E5,1642  E5,1714               VSUN               EQUALS   VEARTH     +6                         #  (6)TMP
001476: E5,1642  E5,1722               VMOON              EQUALS   VSUN       +6                         #  (6)TMP


001478: E5,1642  E5,1730               SAX                EQUALS   VMOON      +6                         #  (6)TMP
001479:
001480:                                                                                                  #  P50'S, R50'S Q STORES.                        (2D)
001481:
001482: E5,1642  E5,1745               QMIN               EQUALS   MGC        +2                         #  B(1)TMP
001483: E5,1642  E5,1746               QMAJ               EQUALS   QMIN       +1                         #  B(1)TMP
001484:
001485:                                                                                                  #  **** USED IN P50S **** (SCATTERED OVERLAYS)
001486:
001487: E5,1642  E5,1706               XSCI               EQUALS   STARAD
001488: E5,1642  E5,1714               YSCI               EQUALS   XSCI       +6
001489: E5,1642  E5,1714               ZSCI               EQUALS   YSCI
001490: E5,1642  E5,1706               CULTRIX            EQUALS   VEARTH                                #  VEARTH, VSUN, VMOON
001491:
001492:                                                                                                  #  ALIGNMENT STORAGE.                            (23D)
001493:
001494: E5,1642  E5,1747               OGCT               EQUALS   QMAJ       +1                         #  I(6)
001495: E5,1642  E5,1755               BESTI              EQUALS   OGCT       +6                         #  I(1)
001496: E5,1642  E5,1756               BESTJ              EQUALS   BESTI      +1
001497: E5,1642  E5,1757               STARIND            EQUALS   BESTJ      +1
001498:                                                                                                  #  RETAIN THE ORDER OF STARSAV1 TO STARSAV2 +5 FOR DOWNLINK PURPOSES.
001499: E5,1642  E5,1760               STARSAV1           EQUALS   STARIND    +1                         #  I(6)
001500: E5,1642  E5,1766               STARSAV2           EQUALS   STARSAV1   +6                         #  I(6)
001501: E5,1642  E5,1774               TALIGN             EQUALS   STARSAV2   +6                         #  B(2) TIME OF IMU ALIGNMENT (DOWNLINKED)
001502:
001503:                                                                                                  #  P32-35 + SERVICER                             (2D)
001504:
001505: E5,1642  E5,1776               RTX1               EQUALS   TALIGN     +2                         #  I(1) X1       -2 EARTH, -10 MOON
001506: E5,1642  E5,1777               RTX2               EQUALS   RTX1       +1                         #  I(1) X2       0 EARTH, 2 MOON
001507:
001508: E5,1642                        ZPRIME             =        22D
001509: E5,1642                        PDA                =        22D
001510: E5,1642                        COSTH              =        16D
001511: E5,1642                        SINTH              =        18D
001512: E5,1642                        THETA              =        20D
001513: E5,1642                        STARM              =        32D
001514:


001516:                                                                                                  #  ******* OVERLAY NUMBER 2 IN EBANK 5 *******
001517:
001518:                                                                                                  #  CONICS ROUTINE STORAGE.                       (85D)
001519:
001520: E5,1642  E5,1642               DELX               EQUALS   ENDW                                  #  I(2)TMP
001521: E5,1642  E5,1644               DELT               EQUALS   DELX       +2                         #  I(2)TMP
001522: E5,1642  E5,1646               URRECT             EQUALS   DELT       +2                         #  I(6)TMP
001523: E5,1642                        RCNORM             EQUALS   34D                                   #  I(2)TMP
001524: E5,1642  E3,1552               XPREV              EQUALS   XKEP                                  #  I(2)TMP
001525: E5,1642  E5,1654               R1VEC              EQUALS   URRECT     +6                         #  I(6)TMP
001526: E5,1642  E5,1662               R2VEC              EQUALS   R1VEC      +6                         #  I(6)TMP
001527: E5,1642  E5,1670               TDESIRED           EQUALS   R2VEC      +6                         #  I(2)TMP
001528: E5,1642  E5,1672               GEOMSGN            EQUALS   TDESIRED   +2                         #  I(1)TMP
001529: E5,1642  E5,1673               UN                 EQUALS   GEOMSGN    +1                         #  I(6)TMP
001530: E5,1642  E5,1701               VTARGTAG           EQUALS   UN         +6                         #  I(1)TMP
001531: E5,1642  E5,1702               VTARGET            EQUALS   VTARGTAG   +1                         #  I(6)TMP
001532: E5,1642  E5,1710               RTNLAMB            EQUALS   VTARGET    +6                         #  I(1)TMP
001533: E5,1642  E5,1711               U2                 EQUALS   RTNLAMB    +1                         #  I(6)TMP
001534: E5,1642  E5,1717               MAGVEC2            EQUALS   U2         +6                         #  I(2)TMP
001535: E5,1642  E5,1721               UR1                EQUALS   MAGVEC2    +2                         #  I(6)TMP
001536: E5,1642  E5,1727               SNTH               EQUALS   UR1        +6                         #  I(2)TMP
001537: E5,1642  E5,1731               CSTH               EQUALS   SNTH       +2                         #  I(2)TMP
001538: E5,1642  E5,1733               1-CSTH             EQUALS   CSTH       +2                         #  I(2)TMP
001539: E5,1642  E5,1735               CSTH-RHO           EQUALS   1-CSTH     +2                         #  I(2)TMP
001540: E5,1642  E5,1737               P                  EQUALS   CSTH-RHO   +2                         #  I(2)TMP
001541: E5,1642  E5,1741               R1A                EQUALS   P          +2                         #  I(2)TMP
001542: E5,1642  E5,1654               RVEC               EQUALS   R1VEC                                 #  I(6)TMP
001543: E5,1642  E5,1743               VVEC               EQUALS   R1A        +2                         #  I(6)TMP
001544: E5,1642  E5,1710               RTNTT              EQUALS   RTNLAMB                               #  I(1)TMP
001545: E5,1642  E5,1751               ECC                EQUALS   VVEC       +6                         #  I(2)TMP
001546: E5,1642  E5,1710               RTNTR              EQUALS   RTNLAMB                               #  I(1)TMP
001547: E5,1642  E5,1710               RTNAPSE            EQUALS   RTNLAMB                               #  I(1)TMP
001548: E5,1642  E5,1717               R2                 EQUALS   MAGVEC2                               #  I(2)TMP
001549: E5,1642  E5,1753               RTNPRM             EQUALS   ECC        +2                         #  I(1)TMP
001550: E5,1642  E5,1754               SGNRDOT            EQUALS   RTNPRM     +1                         #  I(1)TMP
001551: E5,1642  E5,1755               RDESIRED           EQUALS   SGNRDOT    +1                         #  I(2)TMP
001552: E5,1642  E5,1757               DELDEP             EQUALS   RDESIRED   +2                         #  I(2)TMP
001553: E5,1642  E5,1761               DEPREV             EQUALS   DELDEP     +2                         #  I(2)TMP
001554: E5,1642  E5,1757               TERRLAMB           EQUALS   DELDEP                                #  I(2)TMP
001555: E5,1642  E5,1761               TPREV              EQUALS   DEPREV                                #  I(2)TMP
001556: E5,1642  E5,1763               EPSILONL           EQUALS   DEPREV     +2                         #  I(2)TMP
001557: E5,1642  E5,1765               COGA               EQUALS   EPSILONL   +2                         #  I(2)  COTAN OF INITIAL FLIGHT PATH ANGLE.
001558: E5,1642  E5,1765               INDEP              EQUALS   COGA                                  #        USED BY SUBROUTINE 'ITERATOR'.
001559:


001561:                                                                                                  #  ******* OVERLAY NUMBER 3 IN EBANK 5 *******
001562:
001563:                                                                                                  #  INCORP STORAGE.                               (18D)
001564:
001565: E5,1642  E5,1642               ZI                 EQUALS   ENDW                                  #  I(18)TMP
001566:
001567:                                                                                                  #  INCORP/L SR22.3 STORAGE.                      (21D)
001568:
001569: E5,1642  E5,1664               DELTAX             EQUALS   ZI         +18D                       #  I(18)
001570: E5,1642  E5,1706               VARIANCE           EQUALS   DELTAX     +18D                       #  I(3)
001571:
001572:                                                                                                  #  MEASUREMENT INCORPORATION -R22- STORAGE.      (49D)
001573:
001574: E5,1642  E5,1711               GRP2SVQ            EQUALS   VARIANCE   +3                         #  I(1)TMP QSAVE FOR RESTARTS
001575: E5,1642  E5,1712               OMEGAM1            EQUALS   GRP2SVQ    +1                         #  I(6)
001576: E5,1642  E5,1720               OMEGAM2            EQUALS   OMEGAM1    +6                         #  I(6)
001577: E5,1642  E5,1726               OMEGAM3            EQUALS   OMEGAM2    +6                         #  I(6)
001578: E5,1642  E5,1734               HOLDW              EQUALS   OMEGAM3    +6                         #  I(18)
001579: E5,1642  E5,1756               TDPOS              EQUALS   HOLDW      +18D                       #  I(6)
001580: E5,1642  E5,1764               TDVEL              EQUALS   TDPOS      +6                         #  I(6)
001581:
001582: E5,1642  E5,1664               TRIPA              EQUALS   DELTAX                                #  I(3)TMP
001583: E5,1642  E5,1667               TEMPVAR            EQUALS   TRIPA      +3                         #  I(3)TMP
001584:
001585:                                                                                                  #  INCORPORATION/INTEGRATION Q STORAGE.          (1D)
001586:
001587: E5,1642  E5,1772               EGRESS             EQUALS   TDVEL      +6                         #  I(1)
001588:
001589:                                                                                                  #  P30/P31 STORAGE.                              (1D) AND ONE OVERLAY
001590:
001591: E5,1642  E5,1773               P30EXIT            EQUALS   EGRESS     +1                         #  B(1)TMP
001592:
001593: E5,1642  E5,1773               ORIGIN             EQUALS   P30EXIT                               #  I(1)TMP INDEX DURING INITVEL
001594:


001596:                                                                                                  #  SYSTEM TEST ERASABLES.  CAN OVERLAY W MATRIX. (127D)
001597:
001598:                                                                                                  #  ******* OVERLAY NUMBER 0 IN EBANK 5 *******
001599:
001600: E5,1642  E5,1400               AZIMUTH            EQUALS   W                                     #  2
001601: E5,1642  E5,1402               LATITUDE           EQUALS   AZIMUTH    +2                         #  2
001602: E5,1642  E5,1404               ERVECTOR           EQUALS   LATITUDE   +2                         #  6
001603: E5,1642  E5,1412               LENGTHOT           EQUALS   ERVECTOR   +6                         #  1
001604: E5,1642  E5,1413               LOSVEC             EQUALS   LENGTHOT   +1                         #  6
001605: E5,1642  E5,1414               NDXCTR             EQUALS   LOSVEC     +1                         #  1
001606: E5,1642  E5,1415               PIPINDEX           EQUALS   NDXCTR     +1                         #  1
001607: E5,1642  E5,1416               POSITON            EQUALS   PIPINDEX   +1                         #  1
001608: E5,1642  E5,1417               QPLACE             EQUALS   POSITON    +1                         #  1
001609: E5,1642  E5,1420               QPLACES            EQUALS   QPLACE     +1                         #  1
001610: E5,1642  E5,1421               SOUTHDR            EQUALS   QPLACES    +1                         #  7
001611: E5,1642  E5,1430               TEMPTIME           EQUALS   SOUTHDR    +7                         #  2
001612: E5,1642  E5,1432               TMARK              EQUALS   TEMPTIME   +2                         #  2
001613: E5,1642  E5,1434               GENPL              EQUALS   TMARK      +2
001614: E5,1642  E5,1434               CDUTIMEI           =        GENPL
001615: E5,1642  E5,1436               CDUTIMEF           =        GENPL      +2
001616: E5,1642  E5,1440               CDUDANG            =        GENPL      +4
001617: E5,1642  E5,1441               CDUREADF           =        GENPL      +5
001618: E5,1642  E5,1442               CDUREADI           =        GENPL      +6
001619: E5,1642  E5,1443               CDULIMIT           =        GENPL      +7
001620:
001621: E5,1642  E5,1440               TEMPADD            =        GENPL      +4
001622: E5,1642  E5,1441               TEMP               =        GENPL      +5
001623: E5,1642  E5,1442               NOBITS             =        GENPL      +6
001624: E5,1642  E5,1443               CHAN               =        GENPL      +7
001625:
001626: E5,1642  E5,1444               LOS1               =        GENPL      +8D
001627: E5,1642  E5,1452               LOS2               =        GENPL      +14D
001628:
001629: E5,1642  E5,1460               CALCDIR            EQUALS   GENPL      +20D
001630: E5,1642  E5,1461               CDUFLAG            EQUALS   GENPL      +21D
001631: E5,1642  E5,1462               GYTOBETQ           EQUALS   GENPL      +22D
001632: E5,1642  E5,1463               OPTNREG            EQUALS   GENPL      +23D
001633: E5,1642  E5,1464               SAVE               EQUALS   GENPL      +24D                       #  THREE ONSEC LOC
001634: E5,1642  E5,1467               SFCONST1           EQUALS   GENPL      +27D
001635: E5,1642  E5,1470               TIMER              EQUALS   GENPL      +28D
001636:
001637: E5,1642  E5,1472               DATAPL             EQUALS   GENPL      +30D
001638: E5,1642  E5,1434               RDSP               EQUALS   GENPL                                 #  FIX LA ER     POSSIBLY KEEP1
001639: E5,1642  E5,1534               MASKREG            EQUALS   GENPL      +64D
001640: E5,1642  E5,1536               CDUNDX             EQUALS   GENPL      +66D
001641: E5,1642  E5,1537               RESULTCT           EQUALS   GENPL      +67D
001642: E5,1642  E5,1542               COUNTPL            EQUALS   GENPL      +70D
001643:
001644: E5,1642  E5,1543               CDUANG             EQUALS   GENPL      +71D


001646: E5,1642  E5,1434               AINLA              =        GENPL                                 #  110 DE  OR 156 OCT LOCATIONS
001647:
001648: E5,1642  E5,1434               WANGO              EQUALS   AINLA                                 #  VERT E ATE
001649: E5,1642  E5,1436               WANGI              EQUALS   AINLA      +2D                        #  HORIZO TAL ERATE
001650: E5,1642  E5,1440               WANGT              EQUALS   AINLA      +4D                        #  T
001651: E5,1642  E5,1440               TORQNDX            =        WANGT
001652: E5,1642  E5,1442               DRIFTT             EQUALS   AINLA      +6D
001653: E5,1642  E5,1444               ALX1S              EQUALS   AINLA      +8D
001654: E5,1642  E5,1445               CMPX1              EQUALS   AINLA      +9D                        #  IND
001655: E5,1642  E5,1446               ALK                EQUALS   AINLA      +10D                       #  GAINS
001656: E5,1642  E5,1462               VLAUNS             EQUALS   AINLA      +22D
001657: E5,1642  E5,1464               WPLATO             EQUALS   AINLA      +24D
001658: E5,1642  E5,1470               INTY               EQUALS   AINLA      +28D                       #  SOUTH  IP INTE
001659: E5,1642  E5,1472               ANGZ               EQUALS   AINLA      +30D                       #  EAST A IS
001660: E5,1642  E5,1474               INTZ               EQUALS   AINLA      +32D                       #  EAST P P I
001661: E5,1642  E5,1476               ANGY               EQUALS   AINLA      +34D                       #  SOUTH
001662: E5,1642  E5,1500               ANGX               EQUALS   AINLA      +36D                       #  VE
001663: E5,1642  E5,1502               DRIFTO             EQUALS   AINLA      +38D                       #  VERT
001664: E5,1642  E5,1504               DRIFTI             EQUALS   AINLA      +40D                       #  SOU
001665: E5,1642  E5,1510               VLAUN              EQUALS   AINLA      +44D
001666: E5,1642  E5,1512               ACCWD              EQUALS   AINLA      +46D
001667: E5,1642  E5,1520               POSNV              EQUALS   AINLA      +52D
001668: E5,1642  E5,1522               DPIPAY             EQUALS   AINLA      +54D                       #  SOUTH
001669: E5,1642  E5,1526               DPIPAZ             EQUALS   AINLA      +58D                       #  NORTH  IP INCREMENT
001670: E5,1642  E5,1530               ALTIM              EQUALS   AINLA      +60D
001671: E5,1642  E5,1531               ALTIMS             EQUALS   AINLA      +61D                       #  INDEX
001672: E5,1642  E5,1532               ALDK               EQUALS   AINLA      +62D                       #  TIME  ONSTAN
001673: E5,1642  E5,1550               DELM               EQUALS   AINLA      +76D
001674: E5,1642  E5,1560               WPLATI             EQUALS   AINLA      +84D
001675: E5,1642  E5,1562               GEOCOMPS           EQUALS   AINLA      +86D
001676: E5,1642  E5,1563               ERCOMP             EQUALS   AINLA      +87D
001677: E5,1642  E5,1571               ZERONDX            EQUALS   AINLA      +93D
001678:
001679: E5,1642  E5,1452               THETAN             =        ALK        +4
001680: E5,1642  E5,1460               FILDELV            EQUALS   THETAN     +6                         #  AGS ALIGNMENT STORAGE
001681: E5,1642  E5,1462               INTVEC             EQUALS   FILDELV    +2
001682: E5,1642  E5,1572               1SECXT             =        AINLA      +94D
001683: E5,1642  E5,1573               ASECXT             =        AINLA      +95D
001684: E5,1642  E5,1574               PERFDLAY           EQUALS   AINLA      +96D                       #  B(2) DELAY TIME BEF. START DRIFT MEASURE
001685: E5,1642  E5,1576               OVFLOWCK           EQUALS   AINLA      +98D                       #  (1) SET MEANS OVERFLOW IN IMU PERF TEST
001686:                                                                                                  #      AND CAUSES TERMINATION
001687:
001688: E5,1642  E5,1774               END-E5             EQUALS   STARSAV2   +6                         #  *** FIRST FREE LOCATION IN E5 ***
001689:


001691:                                                                                                  #  EBANK-6 ASSIGNMENTS.
001692:
001693: E6,1400                                           SETLOC   3000
001694:
001695:                                                                                                  #  DAP PAD-LOADED DATA.                          (10D)
001696:
001697:                                                                                                  #  ALL OF THE FOLLOWING EXCEPT PITTIME AND ROLLTIME ARE INITIALIZED IN FRESH START TO PERMIT IMMEDIATE USE OF DAP
001698:
001699: E6,1400                        HIASCENT           ERASE                                          #  (1) MASS AFTER STAGING, SCALE AT B16 KG.
001700: E6,1401                        ROLLTIME           ERASE                                          #  (1) TIME TO TRIM Z GIMBAL IN R03, CSEC.
001701: E6,1402                        PITTIME            ERASE                                          #  (1) TIME TO TRIM Y GIMBAL IN R03, CSEC.
001702: E6,1403                        DKTRAP             ERASE                                          #  (1) DAP STATE            (POSSIBLE 77001
001703: E6,1404                        DKOMEGAN           ERASE                                          #  (1)   ESTIMATOR PARA-      (VALUES 00012
001704: E6,1405                        DKKAOSN            ERASE                                          #  (1)     METERS FOR THE             00074
001705: E6,1406                        LMTRAP             ERASE                                          #  (1)       DOCKED AND               77001
001706: E6,1407                        LMOMEGAN           ERASE                                          #  (1)         LEM-ALONE CASES        00000
001707: E6,1410                        LMKAOSN            ERASE                                          #  (1)           RESPECTIVELY         00074
001708: E6,1411                        DKDB               ERASE                                          #  (1) WIDTH OF DEADBAND FOR DOCKED RCS
001709:                                                                                                  #      AUTOPILOT (DB=1.4DEG IN FRESH START)
001710:                                                                                                  #      DEADBAND = PI/DKDB RAD.
001711:
001712:                                                                                                  #  PADLOADS FOR INITIALIZATION OF DAP BIAS ACCELERATION (AT P12 IGNITION)        (2D)
001713:
001714: E6,1412                        IGNAOSQ            ERASE                                          #  B(1)PL
001715: E6,1413                        IGNAOSR            ERASE                                          #  B(1)PL
001716:
001717:                                                                                                  #  AXIS TRANSFORMATION MATRIX - GIMBAL TO PILOT AXES:    (5D)
001718:
001719: E6,1414                        M11                ERASE                                          #  SCALED AT 1
001720: E6,1415                        M21                ERASE                                          #  SCALED AT 1
001721: E6,1416                        M31                ERASE
001722: E6,1417                        M22                ERASE                                          #  SCALED AT 1.
001723: E6,1420                        M32                ERASE                                          #  SCALED AT 1.
001724:
001725:                                                                                                  #  ANGLE MEASUREMENTS.                                   (31D)
001726:
001727: E6,1421                        OMEGAP             ERASE    +4                                    #  BODY-AXIS ROT. RATES SCALED AT PI/4 AND
001728: E6,1426  E6,1422               OMEGAQ             EQUALS   OMEGAP     +1                         #  BODY-AXIS ACCELERATIONS SCALED AT PI/8
001729: E6,1426  E6,1423               OMEGAR             EQUALS   OMEGAP     +2
001730:                                                                                                  #  RETAIN THE ORDER OF ALPHAQ AND ALPHAR FOR DOWNLINK PURPOSES.
001731: E6,1426  E6,1424               ALPHAQ             EQUALS   OMEGAP     +3
001732: E6,1426  E6,1425               ALPHAR             EQUALS   OMEGAP     +4
001733: E6,1426                        OMEGAU             ERASE    +1
001734: E6,1430  E6,1427               OMEGAV             =        OMEGAU     +1
001735:
001736: E6,1430                        TRAPEDP            ERASE    +5
001737: E6,1436  E6,1431               TRAPEDQ            =        TRAPEDP    +1
001738: E6,1436  E6,1432               TRAPEDR            =        TRAPEDP    +2
001739: E6,1436  E6,1433               NPTRAPS            =        TRAPEDP    +3


001741: E6,1436  E6,1434               NQTRAPS            =        TRAPEDP    +4
001742: E6,1436  E6,1435               NRTRAPS            =        TRAPEDP    +5
001743: E6,1436  E6,1427               EDOTP              =        EDOT
001744: E6,1436                        EDOTQ              ERASE    +1
001745: E6,1440  E6,1437               EDOTR              =        EDOTQ      +1                         #  MANY SHARING NAMES
001746: E6,1440  E6,1436               QRATEDIF           EQUALS   EDOTQ                                 #  ALTERNATIVE NAMES:
001747: E6,1440  E6,1437               RRATEDIF           EQUALS   EDOTR                                 #  DELETE WHEN NO. OF REFERENCES = 0
001748:
001749: E6,1440  E6,1426               URATEDIF           EQUALS   OMEGAU
001750: E6,1440  E6,1427               VRATEDIF           EQUALS   OMEGAV
001751: E6,1440                        OLDXFORP           ERASE    +2                                    #  STORED CDU READINGS FOR STATE
001752: E6,1443  E6,1441               OLDYFORP           EQUALS   OLDXFORP   +1                         #  DERIVATIONS: SCALED AT PI RADIANS (2'S)
001753: E6,1443  E6,1442               OLDZFORQ           EQUALS   OLDXFORP   +2
001754:
001755:                                                                                                  #  RATE-COMMAND AND MINIMUM IMPULSE MODES
001756:
001757: E6,1443                        CH31TEMP           ERASE
001758: E6,1444                        STIKSENS           ERASE
001759: E6,1445                        TCP                ERASE
001760: E6,1446                        DXERROR            ERASE    +5
001761: E6,1454  E6,1450               DYERROR            EQUALS   DXERROR    +2
001762: E6,1454  E6,1452               DZERROR            EQUALS   DXERROR    +4
001763: E6,1454                        PLAST              ERASE
001764: E6,1455                        QLAST              ERASE
001765: E6,1456                        RLAST              ERASE
001766: E6,1457                        TCQR               ERASE
001767:
001768:                                                                                                  #  OTHER VARIABLES.                              (5D)
001769:
001770: E6,1460                        OLDPMIN            ERASE                                          #  THESE THREE USED IN MIN IMPULSE MODE.
001771: E6,1461                        OLDQRMIN           ERASE
001772: E6,1462  E6,1736               TEMP31             EQUALS   DAPTEMP1
001773:
001774: E6,1462                        SAVEHAND           ERASE    +1
001775: E6,1464                        PERROR             ERASE
001776: E6,1465  E6,1450               QERROR             EQUALS   DYERROR
001777: E6,1465  E6,1452               RERROR             EQUALS   DZERROR
001778:
001779:                                                                                                  #  JET STATE CHANGE VARIABLES- TIME (TOFJTCHG), JET BITS WRITTEN NOW     (10D)
001780:                                                                                                  #    (JTSONNOW), AND JET BITS WRITTEN AT T6 RUPT (JTSATCHG).
001781:
001782: E6,1465                        NXT6ADR            ERASE
001783: E6,1466                        T6NEXT             ERASE    +1
001784: E6,1470                        T6FURTHA           ERASE    +1
001785: E6,1472                        NEXTP              ERASE    +2
001786: E6,1475  E6,1473               NEXTU              =        NEXTP      +1
001787: E6,1475  E6,1474               NEXTV              =        NEXTP      +2
001788: E6,1475                        -2JETLIM           ERASE    +1                                    #  RATE COMMAND 4-JET RATE DIFFERENCE LIMIT
001789: E6,1477  E6,1476               -RATEDB            EQUALS   -2JETLIM   +1                         #  AND RATE DEADBAND FOR ASCENT OR DESCENT
001790:
001791: E6,1477  E6,1476               TARGETDB           EQUALS   -RATEDB                               #  MAN. CONTROL TARGET DB COMPLEMENT.
001792:
001793:                                                                                                  #       *** Q,R AXIS ERASABLES ***               (3)


001795: E6,1477     4742               PBIT               EQUALS   BIT10
001796: E6,1477     4741               QRBIT              EQUALS   BIT11
001797: E6,1477  E6,1750               UERROR             EQUALS   DAPTREG5                              #  U,V-AXES ATT ERROR FOR RCS CONTROL LAWS
001798: E6,1477  E6,1751               VERROR             =        UERROR     +1
001799: E6,1477                        RETJADR            ERASE
001800: E6,1500  E6,1741               TEMPNUM            EQUALS   DAPTEMP4
001801: E6,1500  E6,1742               NUMBERT            EQUALS   DAPTEMP5
001802: E6,1500  E6,1743               ROTINDEX           EQUALS   DAPTEMP6
001803: E6,1500  E6,1736               ROTEMP1            EQUALS   DAPTEMP1
001804: E6,1500  E6,1737               ROTEMP2            EQUALS   DAPTEMP2
001805: E6,1500  E6,1740               POLYTEMP           EQUALS   DAPTEMP3
001806: E6,1500                        SENSETYP           ERASE
001807: E6,1501  E6,1736               ABSTJ              EQUALS   DAPTEMP1                              #  ABS VALUE OF JET-FIRING TIME
001808: E6,1501  E6,1736               ABSEDOTP           EQUALS   DAPTEMP1
001809:
001810: E6,1501  E6,1747               DPSBURN            EQUALS   DAPTREG4                              #  USED WITH SNUFFBIT.  VERY TEMPORARY.
001811:


001813:                                                                                                  #  TRIM GIMBAL CONTROL LAW ERASABLES:                    (11D)
001814:
001815: E6,1501  E6,1736               GTSTEMPS           EQUALS   DAPTEMP1                              #  GTS IS PART OF THE JASK.
001816: E6,1501  E6,1740               SHFTFLAG           EQUALS   GTSTEMPS   +2                         #  COUNT BITS FOR GTSQRT SHIFTING.
001817: E6,1501  E6,1743               ININDEX            EQUALS   GTSTEMPS   +5                         #  INDEX FOR SHIFT LOOP IN GTSQRT.
001818:
001819: E6,1501  E6,1505               SAVESR             EQUALS   AXISCTR                               #  CANNOT BE A DAPTEMP - GTS USES THEM ALL.
001820:
001821: E6,1501  E6,1745               SCRATCH            EQUALS   GTSTEMPS   +7                         #  ROOTCYCL ERASABLE
001822: E6,1501  E6,1746               HALFARG            EQUALS   GTSTEMPS   +8D                        #  ROOTCYCL ERASABLE.
001823:
001824: E6,1501  E6,1736               K2THETA            EQUALS   GTSTEMPS                              #  D.P., K*ERROR, NEGUSUM
001825: E6,1501  E6,1740               KCENTRAL           EQUALS   GTSTEMPS   +2                         #  S.P., K FROM KQ OR KRDAP, AT PI/2(8)
001826: E6,1501  E6,1741               K2CNTRAL           EQUALS   GTSTEMPS   +3                         #  D.P., GTS SCRATCH CELLS.
001827: E6,1501  E6,1742               WCENTRAL           EQUALS   GTSTEMPS   +4                         #  S.P., OMEGA, AT PI/4 RAD/SEC
001828: E6,1501  E6,1743               ACENTRAL           EQUALS   GTSTEMPS   +5                         #  S.P., ALPHA, AT PI/4 RAD/SEC(2)
001829: E6,1501  E6,1744               DEL                EQUALS   GTSTEMPS   +6                         #  S.P., SGN FUNCTION VALUE.
001830: E6,1501  E6,1745               A2CNTRAL           EQUALS   GTSTEMPS   +7                         #  D.P., GTS SCRATCH CELLS.
001831: E6,1501  E6,1747               QRCNTR             EQUALS   GTSTEMPS   +9D                        #  S.P., INDEX FOR GTS LOOP THROUGH Q,R AXES
001832: E6,1501  E6,1750               FUNCTION           EQUALS   GTSTEMPS   +10D                       #  D.P., ARGUMENT FOR GRSQRT, SCRATCH FOR GTS
001833:
001834: E6,1501                        NEGUQ              ERASE    +2                                    #  NEGATIVE OF Q-AXIS GIMBAL DRIVE
001835:                                                                                                  #                        NEGUQ +1        DEFINED AND USED ELSEWHERE
001836: E6,1504  E6,1503               NEGUR              EQUALS   NEGUQ      +2                         #  NEGATIVE OF R-AXIS GIMBAL DRIVE
001837:
001838: E6,1504                        KQ                 ERASE    +2                                    #  S.P., JERK TERM FOR GTS, AT PI/2(8)
001839: E6,1507  E6,1505               AXISCTR            EQUALS   KQ         +1
001840: E6,1507  E6,1506               KRDAP              EQUALS   KQ         +2                         #  .3 ACCDOTR SCALED AT PI/2(8)
001841:
001842: E6,1507                        ACCDOTQ            ERASE    +3                                    #  Q-JERK SCALED AT PI/2(7) UNSIGNED
001843: E6,1513  E6,1510               QACCDOT            EQUALS   ACCDOTQ    +1                         #  Q-JERK SCALED AT PI/2(7) SIGNED
001844: E6,1513  E6,1511               ACCDOTR            EQUALS   ACCDOTQ    +2                         #  R-JERK SCALED AT PI/2(7) UNSIGNED
001845: E6,1513  E6,1512               RACCDOT            EQUALS   ACCDOTQ    +3                         #  R-JERK SCALED AT PI/2(7) SIGNED
001846:
001847: E6,1513  E6,1450               QDIFF              EQUALS   QERROR                                #  ATTITUDE ERRORS:
001848: E6,1513  E6,1452               RDIFF              EQUALS   RERROR                                #  SCALED AT PI RADIANS
001849:
001850:                                                                                                  #  TORQUE VECTOR RECONSTRUCTION VARIABLES:       (17D)
001851:
001852: E6,1513  E6,1744               JETRATE            EQUALS   DAPTREG1
001853: E6,1513  E6,1745               JETRATEQ           EQUALS   JETRATE    +1                         #  THE LAST CONTROL SAMPLE PERIOD OF 100 MS
001854: E6,1513  E6,1746               JETRATER           EQUALS   JETRATE    +2                         #  SCALED AT PI/4 RADIANS/SECOND
001855:
001856: E6,1513                        DOWNTORK           ERASE    +5                                    #  ACCUMULATED JET TORQUE COMMANDED ABOUT
001857: E6,1521  E6,1513               POSTORKP           EQUALS   DOWNTORK                              #        +,-P, +,-U, +,-V RESPECTIVELY.
001858: E6,1521  E6,1514               NEGTORKP           EQUALS   DOWNTORK   +1                         #        EMPLOYED EXCLUSIVELY FOR DOWNLIST.
001859: E6,1521  E6,1515               POSTORKU           EQUALS   DOWNTORK   +2                         #        NOT INITIALIZED:  PERMITTED TO OVERFLOW


001861: E6,1521  E6,1516               NEGTORKU           EQUALS   DOWNTORK   +3                         #        SCALED AT 32 JET-SEC, OR ABOUT 2.0 JET-
001862: E6,1521  E6,1517               POSTORKV           EQUALS   DOWNTORK   +4                         #        MSEC PER BIT.
001863: E6,1521  E6,1520               NEGTORKV           EQUALS   DOWNTORK   +5
001864:
001865: E6,1521                        NO.PJETS           ERASE    +2
001866: E6,1524  E6,1522               NO.UJETS           =        NO.PJETS   +1
001867: E6,1524  E6,1523               NO.VJETS           =        NO.UJETS   +1
001868: E6,1524                        TJP                ERASE    +2
001869: E6,1527  E6,1525               TJU                =        TJP        +1
001870: E6,1527  E6,1526               TJV                =        TJP        +2
001871:
001872: E6,1527                        L,PVT-CG           ERASE
001873: E6,1530                        1JACC              ERASE    +3
001874: E6,1534  E6,1531               1JACCQ             EQUALS   1JACC      +1                         #  SCALED AT PI/4 RADIANS/SECOND
001875: E6,1534  E6,1532               1JACCR             EQUALS   1JACC      +2
001876: E6,1534  E6,1533               1JACCU             EQUALS   1JACC      +3                         #  FOR U,V-AXES THE SCALE FACTOR IS DIFF:
001877:                                                                                                  #  SCALED AT PI/2 RADIANS/SECOND (FOR ASC)
001878:
001879:                                                                                                  #  ASCENT VARIABLES:                             (10D)
001880:
001881: E6,1534                        SKIPU              ERASE    +1
001882: E6,1536  E6,1535               SKIPV              =        SKIPU      +1
001883:
001884:                                                                                                  #  THE FOLLOWING LM DAP ERASABLES ARE ZEROED IN THE STARTDAP SECTION OF THE DAPIDLER PROGRAM AND THE COASTASC
001885:                                                                                                  #  SECTION OF THE AOSTASK.  THE ORDER MUST BE PRESERVED FOR THE INDEXING METHODS WHICH ARE EMPLOYED IN THOSE
001886:                                                                                                  #  SECTIONS AND ELSEWHERE.
001887:
001888: E6,1536                        AOSQ               ERASE    +5                                    #  OFFSET ACC. ESTIMATES, UPDATED IN D.P.,
001889: E6,1544  E6,1540               AOSR               EQUALS   AOSQ       +2                         #  AND SCALED AT PI/2.
001890: E6,1544  E6,1542               AOSU               EQUALS   AOSQ       +4                         #  UV-AXES OFFSET ACC. FROMED BY VECTOR
001891: E6,1544  E6,1543               AOSV               EQUALS   AOSQ       +5                         #  ADDITION OF Q,R. AT PI/2 RAD/SEC(2).
001892:
001893: E6,1544                        AOSQTERM           ERASE    +1                                    #  (.1-.05K)AOS
001894: E6,1546  E6,1545               AOSRTERM           EQUALS   AOSQTERM   +1                         #  SCALED AT PI/4 RADIANS/SECOND.
001895:
001896:                                                                                                  #  FOR TJET LAW SUBROUTINE:                      (TEMPS ONLY)
001897:
001898:                                                                                                  # NUMBERT        EQUALS  DAPTEMP5        DEFINED IN QRAXIS.
001899: E6,1546  E6,1736               EDOTSQ             EQUALS   DAPTEMP1
001900: E6,1546  E6,1737               ROTSENSE           EQUALS   DAPTEMP2
001901: E6,1546  E6,1740               FIREFCT            EQUALS   DAPTEMP3                              #  LOOKED AT BY PAXIS.
001902: E6,1546  E6,1741               TTOAXIS            EQUALS   DAPTEMP4
001903: E6,1546  E6,1743               ADRSDIF2           EQUALS   DAPTEMP6
001904: E6,1546  E6,1744               HOLDQ              EQUALS   DAPTREG1
001905: E6,1546  E6,1745               ADRSDIF1           EQUALS   DAPTREG2
001906: E6,1546  E6,1746               HH                 EQUALS   DAPTREG3                              #  DOUBLE PRECISION
001907:                                                                                                  #  HH +1         EQUALS  DAPTREG4
001908: E6,1546  E6,1751               E                  EQUALS   DAPTREG6                              #  TIME SHARE WITH VERROR
001909: E6,1546  E6,1427               EDOT               EQUALS   OMEGAV
001910:
001911:                                                                                                  #  INPUT TO TJET LAW (PERMANENT ERASABLES).      (48D)
001912:


001914: E6,1546  E6,1525               TJETU              =        TJU                                   #  EQUATE NAMES.  INDEXED BY -1, 0, +1.
001915: E6,1546                        BLOCKTOP           ERASE    +47D
001916: E6,1626  E6,1566               1/ANET1            =        BLOCKTOP   +16D                       #  THESE 8 PARAMETERS ARE SET UP BY 1/ACCS
001917: E6,1626  E6,1567               1/ANET2            =        1/ANET1    +1                         #  FOR MINIMUM JETS ABOUT THE U-AXIS WHEN
001918: E6,1626  E6,1572               1/ACOAST           =        1/ANET1    +4                         #  EDOT IS POSITIVE.  TJETLAW INDEXES BY
001919: E6,1626  E6,1574               ACCFCTZ1           =        1/ANET1    +6                         #  ADRSDIFF FROM THESE REGISTERS TO PICK UP
001920: E6,1626  E6,1575               ACCFCTZ5           =        1/ANET1    +7                         #  PARAMETERS FOR THE PROPER AXIS, NUMBER
001921: E6,1626  E6,1600               FIREDB             =        1/ANET1    +10D                       #  OF JETS AND SIGN OF EDOT.  THERE ARE 48
001922: E6,1626  E6,1602               COASTDB            =        1/ANET1    +12D                       #  REGISTERS IN ALL IN THIS BLOCK.
001923: E6,1626  E6,1604               AXISDIST           =        1/ANET1    +14D                       #  FOUR NOT REFERENCED (P-AXIS) ARE FILLED
001924:                                                                                                  #  IN BY THE FOLLOWING:
001925: E6,1626  E6,1546               ACCSWU             =        BLOCKTOP                              #  SET BY 1/ACCS TO SHOW WHETHER MAXIMUM
001926: E6,1626  E6,1547               ACCSWV             =        ACCSWU     +1                         #  JETS ARE REQUIRED BECAUSE OF AOS.
001927: E6,1626  E6,1554               FLAT               =        BLOCKTOP   +6                         #  WIDTH OF MINIMUM IMPULSE ZONE.
001928: E6,1626  E6,1555               ZONE3LIM           =        BLOCKTOP   +7                         #  HEIGHT OF MINIMUM IMPULSE ZONE (AT 4 SEC)
001929:
001930: E6,1626                        COEFFQ             ERASE    +1                                    #  COEFFQ AND COEFFR ARE USED IN ROT-TOUV
001931: E6,1630  E6,1627               COEFFR             EQUALS   COEFFQ     +1                         #  TO RESOLVE Q,R COMPONENTS INTO U,V COMP.
001932:
001933:                                                                                                  #  VARIABLES FOR GTS-QRAXIS CONTROL EXCHANGE.    (4)
001934:
001935: E6,1630  E6,1502               ALLOWGTS           EQUALS   NEGUQ      +1                         #  INSERT INTO UNUSED LOCATION
001936: E6,1630                        COTROLER           ERASE                                          #  INDICATES WHICH CONTROL SYSTEM TO USE.
001937: E6,1631                        QGIMTIMR           ERASE    +2                                    #  Q-GIMBAL DRIVE ITMER, DECISECONDS.
001938: E6,1634  E6,1632               INGTS              EQUALS   QGIMTIMR   +1                         #  INDICATOR OF CURRENT GTS CONTROL.
001939: E6,1634  E6,1633               RGIMTIMR           EQUALS   QGIMTIMR   +2                         #  R-GIMBAL DRIVE TIMER, DECISECONDS.
001940:
001941:                                                                                                  #  PLEASE RETAIN THE ORDER OF CDUXD THRU CDUZD FOR DOWNLINK PURPOSES.
001942:
001943:                                                                                                  #  KALCMANU:DAP INTERFACE.                       (9D)
001944:
001945: E6,1634                        CDUXD              ERASE    +2                                    #  CDU DESIRED REGISTERS:
001946: E6,1637  E6,1635               CDUYD              EQUALS   CDUXD      +1                         #  SCALED AT PI RADIANS (180 DEGREES)
001947: E6,1637  E6,1636               CDUZD              EQUALS   CDUXD      +2                         #  (STORE IN 2S COMPLEMENT)
001948:
001949: E6,1637                        DELCDUX            ERASE    +2                                    #  NEGATIVE OF DESIRED 100MS CDU INCREMENT:
001950: E6,1642  E6,1640               DELCDUY            EQUALS   DELCDUX    +1                         #  SCALED AT PI RADIANS (180 DEGREES)
001951: E6,1642  E6,1641               DELCDUZ            EQUALS   DELCDUX    +2                         #  (STORE IN 2S COMPLEMENT)
001952:
001953:                                                                                                  #  RETAIN THE ORDER OF OMEGAPD TO OMEGARD FOR DOWNLINK PURPOSES.
001954:
001955: E6,1642                        OMEGAPD            ERASE    +2                                    #  ATTITUDE MANEUVER DESIRED RATES:
001956: E6,1645  E6,1643               OMEGAQD            EQUALS   OMEGAPD    +1                         #  (NOT EXPLICITLY REFERENCED IN GTS CNTRL)
001957: E6,1645  E6,1644               OMEGARD            EQUALS   OMEGAPD    +2                         #  SCALED AT PI/4 RADIANS/SECOND
001958:
001959:                                                                                                  #  KALCMANU STORAGE.                             (24D)
001960:
001961: E6,1645                        MIS                ERASE    +23D                                  #  I(18D)
001962: E6,1675  E6,1667               COF                EQUALS   MIS        +18D                       #  I(6)
001963:


001965:                                                                                                  #  KALCMANU STORAGE.                             (33D)
001966: E6,1675                        BCDU               ERASE    +30D                                  #  B(3)
001967: E6,1734  E6,1700               KSPNDX             EQUALS   BCDU       +3                         #  B(1)
001968: E6,1734  E6,1701               KDPNDX             EQUALS   KSPNDX     +1                         #  B(1)
001969:
001970: E6,1734  E6,1702               TMIS               EQUALS   KDPNDX     +1                         #  I(18) MUST BE IN SAME BANK AS RCS DAP
001971: E6,1734  E6,1724               COFSKEW            EQUALS   TMIS       +18D                       #  I(6) MUST BE IN SAME BANK AS RCS DAP
001972: E6,1734  E6,1732               CAM                EQUALS   COFSKEW    +6                         #  I(2) MUST BE IN SAME BANK AS RCS DAP
001973:
001974: E6,1734                        AM                 ERASE    +1                                    #  I(2) THIS WAS ONCE IN E5 OVERLAYING OGC
001975:
001976:                                                                                                  #  FIRST-ORDER OVERLAYS IN KALCMANU              (25D)
001977: E6,1736  E6,1702               KV1                EQUALS   TMIS                                  #  I(6)
001978: E6,1736  E6,1702               MFISYM             EQUALS   TMIS                                  #  I
001979: E6,1736  E6,1702               TMFI               EQUALS   TMIS                                  #  I
001980: E6,1736  E6,1702               NCDU               EQUALS   TMIS                                  #  B
001981: E6,1736  E6,1705               NEXTIME            EQUALS   TMIS       +3                         #  B
001982: E6,1736  E6,1706               TTEMP              EQUALS   TMIS       +4                         #  B
001983: E6,1736  E6,1710               KV2                EQUALS   TMIS       +6                         #  I(6)
001984: E6,1736  E6,1710               BIASTEMP           EQUALS   TMIS       +6                         #  B
001985: E6,1736  E6,1716               KV3                EQUALS   TMIS       +12D                       #  I(6)
001986: E6,1736  E6,1716               OGF                EQUALS   TMIS       +12D                       #  I
001987:
001988: E6,1736  E6,1724               BRATE              EQUALS   COFSKEW                               #  B
001989: E6,1736  E6,1724               IG                 EQUALS   COFSKEW                               #  I
001990:
001991: E6,1736  E6,1732               TM                 EQUALS   CAM                                   #  B
001992:
001993:                                                                                                  #  SECOND-ORDER OVERLAYS IN KALCMANU             (24D)
001994:
001995: E6,1736  E6,1702               K1                 =        KV1
001996: E6,1736  E6,1710               K2                 =        KV2
001997: E6,1736  E6,1716               K3                 =        KV3
001998: E6,1736  E6,1702               P21                EQUALS   KV1                                   #  I(2)
001999: E6,1736  E6,1704               D21                EQUALS   KV1        +2                         #  I(2)
002000: E6,1736  E6,1706               G21                EQUALS   KV1        +4                         #  I(2)
002001: E6,1736  E6,1710               C2SQP              EQUALS   KV2                                   #  I(2)
002002: E6,1736  E6,1712               C2SQM              EQUALS   KV2        +2                         #  I(2)
002003: E6,1736  E6,1714               C2PP               EQUALS   KV2        +4                         #  I(2)
002004: E6,1736  E6,1716               C2MP               EQUALS   KV3                                   #  I(2)
002005: E6,1736  E6,1720               C1PP               EQUALS   KV3        +2                         #  I(2)
002006: E6,1736  E6,1722               C1MP               EQUALS   KV3        +4                         #  I(2)
002007:
002008: E6,1736  E6,1724               VECQTEMP           =        COFSKEW


002010: E6,1736  E6,1634               DCDU               =        CDUXD
002011: E6,1736  E6,1637               DELDCDU            =        DELCDUX
002012: E6,1736  E6,1640               DELDCDU1           =        DELCDUY
002013: E6,1736  E6,1641               DELDCDU2           =        DELCDUZ
002014:
002015:                                                                                                  #  *  *  *  *  *  *  *  *  *  *  *  *  *  *  *  *  *  *  *  *  *  *  *  *
002016:
002017:                                                                                                  #  STORAGE FOR FINDCDUW
002018:
002019:                                                                                                  #  OVERLAYING KALCMANU STORAGE:                  (27D)
002020:
002021: E6,1736  E6,1645               ECDUW              EQUALS   MIS
002022: E6,1736  E6,1645               ECDUWUSR           EQUALS   ECDUW                                 #  B(1)TMP
002023: E6,1736  E6,1646               QCDUWUSR           EQUALS   ECDUWUSR   +1                         #  I(1)TMP
002024: E6,1736  E6,1647               NDXCDUW            EQUALS   QCDUWUSR   +1                         #  B(1)TMP
002025: E6,1736  E6,1650               FLAGOODW           EQUALS   NDXCDUW    +1                         #  B(1)TMP
002026: E6,1736  E6,1651               FLPAUTNO           EQUALS   FLAGOODW   +1                         #  B(1)TMP
002027: E6,1736  E6,1652               UNFC/2             EQUALS   FLPAUTNO   +1                         #  I(6)IN
002028: E6,1736  E6,1660               UNWC/2             EQUALS   UNFC/2     +6                         #  I(6)IN
002029: E6,1736  E6,1666               UNFV/2             EQUALS   UNWC/2     +6                         #  I(6) S-S
002030: E6,1736  E6,1666               UNFVX/2            =        UNFV/2
002031: E6,1736  E6,1670               UNFVY/2            =        UNFV/2     +2
002032: E6,1736  E6,1672               UNFVZ/2            =        UNFV/2     +4
002033: E6,1736  E6,1674               -DELGMB            EQUALS   UNFV/2     +6                         #  B(3)TMP
002034: E6,1736  E6,1677               OGABIAS            EQUALS   -DELGMB    +3                         #  B(1)IN
002035:
002036:                                                                                                  #  DEFINED IN THE WORK AREA:                     (18D)
002037:
002038: E6,1736                        UNX/2              =        0
002039: E6,1736                        UNY/2              =        6
002040: E6,1736                        UNZ/2              =        14
002041:
002042:                                                                                                  #  END OF FINDCDUW ERASABLES
002043:
002044:                                                                                                  #  *  *  *  *  *  *  *  *  *  *  *  *  *  *  *  *  *  *  *  *  *  *  *  *
002045:
002046:                                                                                                  #  * * * * * * * * * * * * * * * * * * * * * * * * * * * * * * * * * * * *
002047:
002048:                                                                                                  #  STORAGE FOR P57
002049:
002050:                                                                                                  #  OVERLAYING KALCMANU AND FINDCDUW STORAGE:     (12D)
002051:
002052: E6,1736  E6,1645               VEC1               EQUALS   MIS                                   #  I(6)TMP
002053: E6,1736  E6,1653               VEC2               EQUALS   VEC1       +6                         #  I(6)TMP
002054:
002055:                                                                                                  #  END OF P57 ERASABLES
002056:
002057:                                                                                                  #  * * * * * * * * * * * * * * * * * * * * * * * * * * * * * * * * * * * *
002058:


002060:                                                                                                  #  THE FOLLOWING ARE THE DAP REPLACEMENTS FOR THE ITEMPS AND RUPTREGS, NEEDED BECAUSE DAP IS NOW A TOB,JASK,JAB,TOSK
002061:                                                                                                  #  ... ANYWAY, THE DAP CAN NOW BE INTERRUPTED.   (18D)
002062:
002063: E6,1736                        DAPTEMP1           ERASE    +17D
002064: E6,1760  E6,1737               DAPTEMP2           EQUALS   DAPTEMP1   +1
002065: E6,1760  E6,1740               DAPTEMP3           EQUALS   DAPTEMP1   +2
002066: E6,1760  E6,1741               DAPTEMP4           EQUALS   DAPTEMP1   +3
002067: E6,1760  E6,1742               DAPTEMP5           EQUALS   DAPTEMP1   +4
002068: E6,1760  E6,1743               DAPTEMP6           EQUALS   DAPTEMP1   +5
002069: E6,1760  E6,1744               DAPTREG1           EQUALS   DAPTEMP1   +6
002070: E6,1760  E6,1745               DAPTREG2           EQUALS   DAPTEMP1   +7
002071: E6,1760  E6,1746               DAPTREG3           EQUALS   DAPTEMP1   +8D
002072: E6,1760  E6,1747               DAPTREG4           EQUALS   DAPTEMP1   +9D
002073: E6,1760  E6,1750               DAPTREG5           EQUALS   DAPTEMP1   +10D
002074: E6,1760  E6,1751               DAPTREG6           EQUALS   DAPTEMP1   +11D
002075:
002076: E6,1760  E6,1752               DAPARUPT           EQUALS   DAPTEMP1   +12D
002077: E6,1760  E6,1753               DAPLRUPT           EQUALS   DAPARUPT   +1
002078: E6,1760  E6,1754               DAPBQRPT           EQUALS   DAPARUPT   +2
002079: E6,1760  E6,1756               DAPZRUPT           EQUALS   DAPARUPT   +4
002080:                                                                                                  #  (DAPZRUPT IS ALSO JASK-IN-PROGRESS FLAG)
002081:
002082:                                                                                                  #  NEEDLER (ATTITUDE ERROR EIGHT BALL DISPLAY) STORAGE.  (6D)
002083:
002084: E6,1760     0061               T5TEMP             EQUALS   ITEMP1
002085: E6,1760     0063               DINDX              EQUALS   ITEMP3
002086: E6,1760                        AK                 ERASE    +2                                    #  NEEDLER ATTITUDE INPUTS, SCALED AT 180
002087: E6,1763  E6,1761               AK1                EQUALS   AK         +1                         #  DEGREES.  P,Q,R AXES IN AK,AK1,AK2.
002088: E6,1763  E6,1762               AK2                EQUALS   AK         +2
002089:
002090: E6,1763                        EDRIVEX            ERASE    +2                                    #  NEEDLER DISPLAY REGS AT 1800 DEGREES.
002091: E6,1766  E6,1764               EDRIVEY            EQUALS   EDRIVEX    +1                         #  SO THAT 384 BITS REPRESENT 42 3/16 DEG.
002092: E6,1766  E6,1765               EDRIVEZ            EQUALS   EDRIVEX    +2
002093:
002094:                                                                                                  #  DOCKED JET INHIBITION COUNTERS                (3D)
002095:
002096: E6,1766                        PJETCTR            ERASE    +2
002097: E6,1771  E6,1767               UJETCTR            EQUALS   PJETCTR    +1
002098: E6,1771  E6,1770               VJETCTR            EQUALS   PJETCTR    +2
002099:
002100:                                                                                                  #  V47 (R47) AGS INITIALIZATION STORAGE. -PAD LOADED-    (2D)
002101:
002102: E6,1771                        AGSK               ERASE    +1
002103:
002104:                                                                                                  #  WINDOW BIAS PADLOAD                                    (1D)
002105:
002106: E6,1773                        AZBIAS             ERASE                                          #  B(1) PL LPD AZIMUTH BIAS, UNITS - PI RAD
002107:


002109: E6,1774  E6,1774               END-E6             EQUALS   AZBIAS     +1                         #  NEXT AVAILABLE E6 LOCATION
002110:


002112:                                                                                                  #  EBANK-7 ASSIGNMENTS
002113:
002114: E7,1400                                           SETLOC   3400
002115:
002116:                                                                                                  #  P35 CONSTANTS.        -PAD LOADED-            (4D)
002117:
002118: E7,1400                        ATIGINC            ERASE    +1                                    #  B(2)PL        *MUST BE AT 1400 FOR SYSTEMSTEST
002119: E7,1402                        PTIGINC            ERASE    +1                                    #  B(2)PL
002120:
002121:                                                                                                  #  AOTMARK STORAGE.      -PAD LOADED-            (12D)
002122:
002123: E7,1404                        AOTAZ              ERASE    +5                                    #  B(6)PL
002124: E7,1412                        AOTEL              ERASE    +5                                    #  B(6)PL
002125:
002126:                                                                                                  #  LANDING RADAR.        -PAD LOADED-            (2D)
002127:
002128: E7,1420                        LRHMAX             ERASE                                          #  B(1)
002129: E7,1421                        LRWH               ERASE                                          #  B(1)
002130:
002131:                                                                                                  #  THROTTLE STORAGE.     -PAD LOADED-            (1D)
002132:
002133: E7,1422                        ZOOMTIME           ERASE                                          #  B(1)PL TIME OF DPS THROTTLE-UP COMMAND
002134:
002135:                                                                                                  #  P63 AND P64 CONSTANTS.        -PAD LOADED-    (4D)
002136:
002137: E7,1423                        TENDBRAK           ERASE                                          #  B(1) LANDING PHASE SWITCHING CRITERION
002138: E7,1424                        TENDAPPR           ERASE                                          #  B(1) LANDING PHASE SWITCHING CRITERION
002139: E7,1425                        DELTTFAP           ERASE                                          #  B(1) INCREMENT ADDED TO TTF/8 WHEN
002140:                                                                                                  #        SWITCHING FROM P63 TO P64
002141: E7,1426                        LEADTIME           ERASE                                          #  B(1) TIME INCREMENT SPECIFYING HOW MUCH
002142:                                                                                                  #        GUIDANCE IS PROJECTED FORWARD.
002143:
002144:                                                                                                  #  LANDING RADAR         -PAD LOADED-            (2D)
002145:
002146: E7,1427                        RPCRTIME           ERASE                                          #  B(1) REPOSITIONING CRITERION (TIME)
002147: E7,1430                        RPCRTQSW           ERASE                                          #  B(1) REPOSITIONING CRITERION (ANGLE)
002148:
002149:                                                                                                  #  ASTEER                -PAD LOADED-            (2D)
002150:
002151: E7,1431                        TNEWA              ERASE    +1                                    #  I(2)PL LAMBERT CYCLE PERIOD
002152:
002153:                                                                                                  #  P22 STORAGE  - OVERLAYS LANDING PADLOADS -    (5D)


002155: E7,1433  E7,1423               REPOSCNT           EQUALS   TENDBRAK                              #  B(1)TMP COUNTS NUMBER OF PASSES THROUGH
002156:                                                                                                  #          REPOSITION ROUTINE.
002157: E7,1433  E7,1424               REPOSTM            EQUALS   REPOSCNT   +1                         #  I(2)TMP PRESENT TIME PLUS INCREMENTS OF
002158:                                                                                                  #          TEN SECONDS.
002159: E7,1433  E7,1426               DELTATM            EQUALS   REPOSTM    +2                         #  I(2)TMP TIME INTERVAL FOR RUNNING
002160:                                                                                                  #          DESIGNATE TASK.
002161:
002162:                                                                                                  #  *** RETAIN THE ORDER OF DELVSLV, TIG, RTARG, DELLT4 FOR UPDATE. ***
002163:
002164:                                                                                                  #  P32-35 P72-75 STORAGE.                        (6D)
002165:
002166: E7,1433                        DELVLVC            ERASE    +5                                    #  I(6) DELTA VELOCITY - LOCAL VERTICAL COO
002167: E7,1441  E7,1433               DELVSLV            =        DELVLVC                               #  (TEMP STORAGE OF SAME VECTOR)   -RDINATE
002168:
002169:                                                                                                  #  P30-P40 INTERFACE UNSHARED.                   (2D)
002170:
002171: E7,1441                        TIG                ERASE    +1                                    #  B(2)
002172:
002173:                                                                                                  #  INITVEL STORAGE.  ALSO USED BY P34,35,74,75,10,11 OTHERS      (8D)
002174:
002175: E7,1443                        RTARG              ERASE    +5                                    #  I(6) TARGET VECTOR
002176: E7,1451                        DELLT4             ERASE    +1                                    #  I(2) TIME DIFFERENCE
002177:
002178:                                                                                                  #  LANDING RADAR - R12   (OVERLAY)               (2D)
002179:
002180: E7,1453  E7,1451               HLROFF             EQUALS   DELLT4                                #  B(1),I(2) TMP  NO LANDING RADAR UPDATES
002181:
002182:                                                                                                  #  P30-P40 INTERFACE UNSHARED.                   (3D)
002183:
002184: E7,1453                        TTOGO              ERASE    +1                                    #  B(2)
002185: E7,1455  E7,1453               TFI                EQUALS   TTOGO
002186: E7,1455                        WHICH              ERASE                                          #  B(1)
002187:
002188:                                                                                                  #  *** R21 ***                                   (1D)
002189:
002190: E7,1456                        LOSCOUNT           ERASE                                          #  B(1)
002191:
002192:                                                                                                  #  LSR22.3 (RENDEZVOUS NAVIGATION) STORAGE.      (4D)
002193:
002194:                                                                                                  #  RETAIN THE ORDER OF AIG TO TRKMKCNT FOR DOWNLINK PURPOSES.
002195:
002196: E7,1457                        AIG                ERASE                                          #  B(1)OUT GIMGAL ANGLES
002197: E7,1460                        AMG                ERASE                                          #  B(1)OUT (MUST BE
002198: E7,1461                        AOG                ERASE                                          #  B(1)OUT CONSECUTIVE)
002199:
002200: E7,1462                        TRKMKCNT           ERASE                                          #  B(1)TMP TEMPORARY MARK STORAGE.
002201: E7,1463  E7,1462               MARKCTR            =        TRKMKCNT
002202:
002203: E7,1463  E7,1462               VSELECT            EQUALS   TRKMKCNT                              #  B(1)  X,Y OR Z LR BEAM ASSOC WITH VMEAS.
002204:


002206:                                                                                                  #  P32-P35, P72-P75 STORAGE.  -PERMANENT-        (6)
002207:
002208: E7,1463                        NORMEX             ERASE                                          #  B(1)PRM SAVE FOR Q
002209: E7,1464                        QSAVED             ERASE                                          #  B(1)PRM SAVE FOR Q
002210: E7,1465                        RTRN               ERASE                                          #  B(1)PRM SAVE FOR Q
002211: E7,1466                        NN                 ERASE    +1                                    #  B(2)
002212: E7,1470                        SUBEXIT            ERASE                                          #  B(1)PRM SAVE Q
002213:
002214: E7,1471                        E7OVERLA           EQUALS                                         #  START OF E7 OVERLAYS.
002215: E7,1471  E7,1471               WHOCARES           EQUALS   E7OVERLA                              #  DUMMY FOR EBANK INSENSITIVE 2CADRS
002216:
002217:                                                                                                  #  LUNAR LANDING OVERLAYS                        (6D)
002218:
002219: E7,1471  E7,1463               /AFC/              EQUALS   NORMEX                                #  B(2)TMP THROTTLE
002220: E7,1471  E7,1465               FCODD              EQUALS   /AFC/      +2                         #  B(2)TMP THROTTLE
002221: E7,1471  E7,1467               FP                 EQUALS   FCODD      +2                         #  B(2)TMP THROTTLE
002222:


002224:                                                                                                  #  ******* OVERLAY NUMBER 0 IN EBANK 7 *******
002225:
002226:                                                                                                  #  RENDEZVOUS GUIDANCE STORAGE -P32....P35-      (89D)
002227:
002228: E7,1471  E7,1611               TSTRT              EQUALS   DELDV                                 #  MIDCOURSE START TIME
002229: E7,1471  E7,1573               TDEC2              EQUALS   DELVCSI                               #  TEMP STORAGE FOR INTEGRATION TIME INPUT
002230: E7,1471  E7,1575               KT                 EQUALS   DELVTPI                               #  TEMP STORAGE FOR MIDCOURSE DELTA TIME
002231: E7,1471                        VACT1              ERASE    +5D                                   #  VELOCITY VECTOR OF ACTIVE AT CSI TIME
002232: E7,1477                        RPASS1             ERASE    +5D                                   #  POSITION VECTOR OF PASSIVE AT CSI TIME
002233: E7,1505                        VPASS1             ERASE    +5D                                   #  VELOCITY VECTOR OF PASSIVE AT CSI TIME
002234: E7,1513                        VACT2              ERASE    +5D                                   #  VELOCITY VECTOR OF ACTIVE AT CDH TIME
002235: E7,1521                        RPASS2             ERASE    +5D                                   #  POSITION VECTOR OF PASSIVE AT CDH TIME
002236: E7,1527                        VPASS2             ERASE    +5D                                   #  VELOCITY VECTOR OF PASSIVE AT CDH TIME
002237: E7,1535                        RACT3              ERASE    +5D                                   #  POSITION VECTOR OF ACTIVE AT TPI TIME
002238: E7,1543                        VACT3              ERASE    +5D                                   #  VELOCITY VECTOR OF ACTIVE AT TPI TIME
002239: E7,1551                        RPASS3             ERASE    +5D                                   #  POSITION VECTOR OF PASSIVE AT TPI TIME
002240: E7,1557                        VPASS3             ERASE    +5D                                   #  VELOCITY VECTOR OF PASSIVE AT TPI TIME
002241: E7,1565                        VACT4              ERASE    +5D                                   #  VELOCITY VECTOR OF ACTIVE AT INTERCEPT
002242: E7,1573  E7,1543               UNVEC              EQUALS   VACT3                                 #  CDHMVR UNIT VECTOR TEMP STORAGE.
002243: E7,1573                        DELVCSI            ERASE    +1D                                   #  THRUST VALUE AT CSI
002244: E7,1575                        DELVTPI            ERASE    +1D                                   #  THRUST VALUE AT TPI OR MID
002245: E7,1577  E7,1575               DELVMID            EQUALS   DELVTPI
002246: E7,1577                        DIFFALT            ERASE    +1D                                   #  ALT DIFFERENCE AT CDH
002247: E7,1601                        POSTCSI            ERASE    +1                                    #  PERIGEE ALTITUDE AFTER CSI MANEUVER
002248: E7,1603                        POSTCDH            ERASE    +1                                    #  PERIGEE ALTITUDE AFTER CDH MANEUVER
002249: E7,1605                        POSTTPI            ERASE    +1                                    #  PERIGEE ALTITUDE AFTER TPI MANEUVER
002250: E7,1607  E7,1605               LOOPCT             EQUALS   POSTTPI                               #  CSI NEWTON ITERATION COUNTER
002251: E7,1607  E7,1603               HAFPA1             EQUALS   POSTCDH                               #  HALF PERIOD
002252: E7,1607                        GAMPREV            ERASE    +1                                    #  PREVIOUS GAMMA
002253: E7,1611  E7,1575               DVPREV             EQUALS   DELVTPI                               #  PREVIOUS DELVCSI
002254: E7,1611                        DELDV              ERASE    +1D
002255: E7,1613                        CSIALRM            ERASE    +1                                    #  FIRST SOLUTION ALARM
002256: E7,1615                        VERBNOUN           ERASE
002257: E7,1616  E7,1613               TITER              EQUALS   CSIALRM                               #  ITERATION COUNTER
002258: E7,1616                        RDOTV              ERASE    +1
002259: E7,1620  E7,1505               VAPREC             EQUALS   VPASS1                                #  I(6) S-S PREC VEC FOR NOM TPI TIME (ACT V
002260: E7,1620  E7,1477               RAPREC             EQUALS   RPASS1                                #  I(6) S-S PREC VEC FOR NOM TPI TIME (ACT V
002261: E7,1620  E7,1527               VPPREC             EQUALS   VPASS2                                #  I(6) S-S PREC VEC FOR NOM TPI TIME (PASS
002262: E7,1620  E7,1521               RPPREC             EQUALS   RPASS2                                #  I(6) S-S PREC VEC FOR NOM TPI TIME (PASS
002263: E7,1620  E7,1575               DELEL              EQUALS   DELVTPI                               #  I(2) S-S
002264: E7,1620  E7,1611               DELTEE             EQUALS   DELDV                                 #  I(2) S-S
002265: E7,1620  E7,1573               SECMAX             EQUALS   DELVCSI                               #  I(2) S-S MAX STOP SIZE FOR ROUTINE
002266: E7,1620  E7,1605               DELTEEO            EQUALS   POSTTPI                               #  I(2) S-S BACK VALUES OF DELTA TIME
002267: E7,1620                        CENTANG            ERASE    +1                                    #  I(2) S-S CENTRAL ANGLE COVERED (TPI-TPF)
002268:


002270:                                                                                                  #  SOME P47 STORAGE                              (6D)
002271:
002272: E7,1622                        DELVIMU            ERASE    +5                                    #  I(6)DSP NOUN 83 FOR P47 DELTA V (IMU)
002273:
002274:                                                                                                  #  P30-P40 COMMON STORAGE.                       (3D)
002275:
002276: E7,1630                        TPASS4             ERASE    +1                                    #  INTERCEPT TIME
002277: E7,1632                        QTEMP              ERASE                                          #  I(1)TMP COMMON RETURN SAVE REGISTER.
002278:
002279:                                                                                                  #  P32,33,34 STORAGE.                            (6D)
002280:
002281: E7,1633                        TCSI               ERASE    +1                                    #  B(2)TMP CSI TIME IN CENTISECONDS
002282: E7,1635                        TTPI               ERASE    +1                                    #  B(2)TMP TPI TIME IN CENTISECONDS
002283: E7,1637                        TTPIO              ERASE    +1                                    #  B(2)TMP TTPI STORAGE FOR RECYCLE
002284:
002285:                                                                                                  #  P30,P40 INTERFACE.                            (21D)
002286:
002287: E7,1641                        RTIG               ERASE    +19D                                  #  I(6)TMP
002288: E7,1665  E7,1647               VTIG               EQUALS   RTIG       +6                         #  I(6)TMP
002289: E7,1665  E7,1655               DELVSIN            EQUALS   VTIG       +6                         #  I(6)TMP
002290: E7,1665  E7,1663               DELVSAB            EQUALS   DELVSIN    +6                         #  I(2)TMP
002291: E7,1665  E7,1663               VGDISP             =        DELVSAB
002292:
002293: E7,1665                        QTEMP1             ERASE                                          #  I(1)TMP HOLDS RETURN.
002294: E7,1666  E7,1665               RGEXIT             EQUALS   QTEMP1                                #  SAVE Q
002295: E7,1666  E7,1665               SAVQR52            EQUALS   QTEMP1
002296:
002297:                                                                                                  #  INITVEL STORAGE.  (IN OVERLAY 0 AND OVERLAY 1.        (2D)
002298:                                                                                                  #        (CALLS LAMBERT, CONIC SUBROUTINES)
002299:
002300: E7,1666  E7,1565               VTPRIME            EQUALS   VACT4                                 #  TOTAL VELOCITY AT DESIRED RADIUS
002301: E7,1666  E7,1616               ITCTR              EQUALS   RDOTV                                 #  ITERATION COUNTER
002302: E7,1666                        COZY4              ERASE    +1                                    #  COS OF ANGLE WHEN ROTATION STARTS
002303: E7,1670  E7,1611               X1INPUT            EQUALS   DELDV                                 #  X1 TEMP STORAGE
002304: E7,1670  E7,1607               INTIME             EQUALS   GAMPREV                               #  TIME OF RINIT
002305:
002306:                                                                                                  #  PERIAPO STORAGE. (2D)                         (2D)
002307:
002308: E7,1670                        XXXALT             ERASE    +1                                    #  RADIUS TO LAUNCH PAD OR LANDING SIGHT
002309:
002310: E7,1672  E7,1672               END-IN/M           EQUALS   XXXALT     +2                         #  NEXT AVAIL ERASABLE AFTER INITVEL/MIDGIM
002311:


002313:                                                                                                  #  S40.1 STORAGE.                                (12D)
002314:
002315: E7,1672                        UT                 ERASE    +11D                                  #  I(6) THRUST DIRECTION
002316: E7,1706  E7,1700               VGTIG              EQUALS   UT         +6                         #  I(6)OUT
002317: E7,1706  E7,1700               VGPREV             =        VGTIG
002318:
002319:                                                                                                  #  ASTEER STORAGE.                               (22D)
002320:
002321: E7,1706                        VG                 ERASE    +21D                                  #  I(6)
002322: E7,1734  E7,1714               RMAG               EQUALS   VG         +6                         #  I(2)
002323: E7,1734  E7,1716               MUASTEER           EQUALS   RMAG       +2                         #  I(2)
002324: E7,1734  E7,1720               MU/A               EQUALS   MUASTEER   +2                         #  I(2)
002325: E7,1734  E7,1722               RTMAG              EQUALS   MU/A       +2                         #  I(2)
002326: E7,1734  E7,1724               R1C                EQUALS   RTMAG      +2                         #  I(6)
002327: E7,1734  E7,1732               SS                 EQUALS   R1C        +6                         #  I(2)
002328:
002329: E7,1734  E7,1655               IC                 =        DELVSIN
002330: E7,1734  E7,1762               TIGSAVE            =        P21TIME
002331: E7,1734  E7,1764               TIGSAVEP           =        SCAXIS
002332: E7,1734  E7,1766               MUSCALE            =        SCAXIS     +2
002333:
002334:                                                                                                  #  P40 STORAGE.                                  (6D)
002335:
002336:                                                                                                  #  F, MDOT, AND TDECAY MUST BE CONTIGUOUS FOR VLOAD.
002337:
002338: E7,1734                        F                  ERASE    +5                                    #  I(2)TMP S40.1 GENERATES THIS FOR S40.3
002339: E7,1742  E7,1736               MDOT               EQUALS   F          +2                         #  I(2)TMP MASS CHNG RATE, KG/CS AT 2**3.
002340: E7,1742  E7,1740               TDECAY             EQUALS   MDOT       +2                         #  I(2)IN DELTA-T TAILOFF, (2**28)CS.
002341: E7,1742                        VEX                ERASE    +1                                    #  I(2) EXHAUST VELOCITY FOR TGO COMPUTAT'N
002342:
002343:                                                                                                  #  MIDTOAV1(2) STORAGE.  (CALLED BY P40,P41,P42)         (1D)
002344:
002345: E7,1744                        IRETURN1           ERASE                                          #  B(1) RETURN FROM MIDTOAV1 AND 2
002346:


002348:                                                                                                  #  ******* OVERLAY NUMBER 1 IN EBANK 7 *******
002349:
002350:                                                                                                  #  INITVEL (CALLED BY P34,35,38,39,10,11,S40.9,S40.1)    (6D)
002351:
002352: E7,1745  E7,1471               RTARG1             EQUALS   VACT1                                 #  I(6)S TEMP STORAGE OF RTARG
002353:
002354:                                                                                                  #  P35-P40 INTERFACE.                            (6D)
002355:
002356: E7,1745  E7,1505               VPASS4             EQUALS   VPASS1                                #  I(6)TMP VELOCITY OF PASSIVE AT INTERCEPT
002357:
002358:                                                                                                  #  LAT-LONG TEMPORARIES.  CAN OVERLAY WITH S40.1         (3D)
002359:
002360: E7,1745  E7,1672               ERADM              EQUALS   UT                                    #  I(2)
002361: E7,1745  E7,1674               INCORPEX           EQUALS   ERADM      +2                         #  I(1)
002362:
002363:                                                                                                  #  LRS24.1 STORAGE.  (CAN SHARE WITH P30'S)              (40D)
002364:
002365: E7,1745  E7,1675               RLMSRCH            EQUALS   INCORPEX   +1                         #  I(6)TMP LM POSITION VECTOR
002366: E7,1745  E7,1703               VXRCM              EQUALS   RLMSRCH    +6                         #  I(6)    CM V X R VECTOR
002367: E7,1745  E7,1711               LOSDESRD           EQUALS   VXRCM      +6                         #  I(6)    DESIRED LOS VECTOR
002368: E7,1745  E7,1717               UXVECT             EQUALS   LOSDESRD   +6                         #  I(6)    X-AXIS SRCH PATTERN COORDS
002369: E7,1745  E7,1725               UYVECT             EQUALS   UXVECT     +6                         #  I(6)    Y-AXIS SRCH PATTERN COORDS
002370: E7,1745  E7,1733               DATAGOOD           EQUALS   UYVECT     +6                         #  B(1)DSP FOR R1 - ALL 1-S WHEN LOCKON
002371: E7,1745  E7,1734               OMEGDISP           EQUALS   DATAGOOD   +1                         #  B(2)    ANGLE OMEGA DISPLAYED IN R2
002372: E7,1745  E7,1734               OMEGAD             =        OMEGDISP                              #          PINBALL DEFINITION.
002373: E7,1745  E7,1736               NSRCHPNT           EQUALS   OMEGDISP   +2                         #  B(1)TMP SEARCH PATTERN POINT COUNTER.
002374: E7,1745  E7,1737               SAVLEMV            EQUALS   NSRCHPNT   +1                         #  I(6)S-S SAVES LOSVEL
002375:


002377:                                                                                                  #  ******* OVERLAY NUMBER 2 IN EBANK 7 *******
002378:
002379:                                                                                                  #  INCORP STORAGE IN E7.                         (47D)
002380:
002381: E7,1745  E7,1471               TX789              EQUALS   E7OVERLA                              #  I(6)
002382: E7,1745  E7,1477               GAMMA              EQUALS   TX789      +6                         #  I(3)
002383: E7,1745  E7,1502               OMEGA              EQUALS   GAMMA      +3                         #  I(18)
002384: E7,1745  E7,1524               BVECTOR            EQUALS   OMEGA      +18D                       #  I(18)
002385: E7,1745  E7,1546               DELTAQ             EQUALS   BVECTOR    +18D                       #  I(2)
002386:
002387:                                                                                                  #  AOTMARK STORAGE                               (3D)
002388:
002389: E7,1745  E7,1550               MARKCNTR           EQUALS   DELTAQ     +2                         #  I(1)
002390: E7,1745  E7,1551               XYMARK             EQUALS   MARKCNTR   +1                         #  B(1)
002391: E7,1745  E7,1552               MKDEX              EQUALS   XYMARK     +1                         #  B(1)TMP INDEX FOR AOTMARK
002392:
002393:                                                                                                  #  PLANET STORAGE.                               (8D)
002394:
002395: E7,1745  E7,1553               PLANVEC            EQUALS   MKDEX      +1                         #  (6) REFER VECTOR OF PLANET
002396: E7,1745  E7,1561               TSIGHT             EQUALS   PLANVEC    +6                         #  (2) TIME OF MARK OR EST TIME OF MARK
002397:
002398:                                                                                                  #  LRS22.3 STORAGE.  (CAN SHARE WITH P30'S AND OVERLAY LRS24.1   (30D).
002399:
002400: E7,1745  E7,1675               LGRET              EQUALS   RLMSRCH                               #  I(1)TMP
002401: E7,1745  E7,1675               RDRET              EQUALS   LGRET                                 #  B(1) TEMP RETURN.
002402: E7,1745  E7,1675               IGRET              EQUALS   LGRET                                 #  B(1) TEMP RETURN.
002403: E7,1745  E7,1676               MX                 EQUALS   RDRET      +1                         #  I(6)
002404: E7,1745  E7,1704               MY                 EQUALS   MX         +6                         #  I(6)
002405: E7,1745  E7,1712               MZ                 EQUALS   MY         +6                         #  I(6)
002406: E7,1745  E7,1676               E0                 EQUALS   MX                                    #  I(2)
002407: E7,1745  E7,1700               E1                 EQUALS   MX         +2                         #  I(2)
002408: E7,1745  E7,1702               E2                 EQUALS   MX         +4                         #  I(2)
002409: E7,1745  E7,1704               E3                 EQUALS   E2         +2                         #  I(2)
002410: E7,1745  E7,1720               SCALSHFT           EQUALS   MZ         +6                         #  B(1) SCALE SHIFT FOR EARTH/MOON
002411: E7,1745  E7,1721               RXZ                EQUALS   SCALSHFT   +1                         #  I(2)
002412: E7,1745  E7,1723               ULC                EQUALS   RXZ        +2                         #  I(6)
002413: E7,1745  E7,1731               SINTHETA           EQUALS   ULC        +6                         #  I(2)
002414:
002415:                                                                                                  #  ***** IN OVERLAY ONE *****
002416:
002417: E7,1745  E7,1746               N49FLAG            EQUALS   RDOTMSAV                              #  B(1)S FLAG INDICATING V0649 RESPONSE
002418:
002419:                                                                                                  #  LRS22.1 STORAGE.  (MUST NOT SHARE WITH P30'S)         (13D)
002420:
002421:                                                                                                  #  (OUTPUTS ARE TO LRS22.3)
002422:


002424: E7,1745  E7,1733               RRTRUN             EQUALS   SINTHETA   +2                         #  B(2)OUT RR TRUNION ANGLE
002425: E7,1745  E7,1735               RRSHAFT            EQUALS   RRTRUN     +2                         #  B(2)OUT RR SHAFT ANGLE
002426: E7,1745  E7,1737               LRS22.1X           EQUALS   RRSHAFT    +2                         #  B(1)TMP
002427: E7,1745  E7,1740               RRBORSIT           EQUALS   LRS22.1X   +1                         #  I(6)TMP RADAR BORESIGHT VECTOR.
002428: E7,1745  E7,1746               RDOTMSAV           EQUALS   RRBORSIT   +6                         #  B(2)S RR RANGE-RATE (FPS)
002429:
002430:                                                                                                  #  LRS22.1 (SAME AS PREVIOUS SECTION) ALSO DOWNLINK FOR RR (R29)         (10D) CANNOT SHARE WITH L.A.D.
002431:
002432: E7,1745  E7,1750               RDOTM              EQUALS   RDOTMSAV   +2                         #  B(2)OUT RANGE-RATE READING
002433: E7,1745  E7,1752               TANGNB             EQUALS   RDOTM      +2                         #  B(2)TMP RR GIMBAL ANGLES
002434:                                                                                                  #  RETAIN THE ORDER OF MKTIME TO RM FOR DOWNLINK PURPOSES
002435: E7,1745  E7,1754               MKTIME             EQUALS   TANGNB     +2                         #  B(2)OUT TIME OF RR READING
002436: E7,1745  E7,1756               RM                 EQUALS   MKTIME     +2                         #  I(2)OUT RANGE READING
002437: E7,1745  E7,1760               RANGRDOT           EQUALS   RM         +2                         #  B(2) DOWNLINKED RAW RANGE AND RRATE
002438:
002439:                                                                                                  #  LANDING OVERLAY                               (1D)
002440:
002441: E7,1745  E7,1750               THRDISP            EQUALS   RDOTM                                 #  B(1) PERCENT OF FTP I 10,500 LBS.
002442:
002443: E7,1745  E7,1752               GTCTIME            EQUALS   TANGNB                                #  B(2)  STATE VECTOR TIME CORRESPONDING
002444:                                                                                                  #    TO FP -- GUIDANCE THRUST COMMAND
002445:
002446:                                                                                                  #  R61LEM - PREFERRED TRACKING ATTITUDE ROUTINE **IN OVERLAY ONE*
002447:                                                                                                  #  (CALLED BY P20, R22LEM, LSR22.3)              (1D)
002448:
002449: E7,1745  E7,1745               R65CNTR            EQUALS   RRBORSIT   +5                         #  B(1)SS COUNT NUMBER OF TIMES PREFERRED
002450:                                                                                                  #         TRACKING ROUTINE IS TO CYCLE
002451:
002452:                                                                                                  #  P21 STORAGE                                   (2D)
002453:
002454: E7,1745  E7,1762               P21TIME            EQUALS   RANGRDOT   +2                         #  I(2)TMP
002455:
002456:                                                                                                  #  KALCMANU, VECPOINT STORAGE.  CALLED BY R63, R61, R65.         (12D)
002457:
002458: E7,1745  E7,1764               SCAXIS             EQUALS   P21TIME    +2                         #  I(6)
002459: E7,1745  E7,1772               POINTVSM           EQUALS   SCAXIS     +6                         #  I(6)
002460:


002462:
002463:                                                                                                  #  ******* OVERLAY NUMBER 3 IN EBANK 7 *******
002464:
002465:                                                                                                  #  SERVICER STORAGE                              (6D)
002466:
002467: E7,1745  E7,1471               ABVEL              EQUALS   E7OVERLA                              #  B(2) DISPLAY
002468: E7,1745  E7,1473               HDOTDISP           EQUALS   ABVEL      +2                         #  B(2) DISPLAY
002469: E7,1745  E7,1475               TTFDISP            EQUALS   HDOTDISP   +2                         #  B(2) DISPLAY
002470:
002471:                                                                                                  #  BURN PROG STORAGE.                            (2D)
002472:
002473: E7,1745  E7,1477               SAVET-30           EQUALS   TTFDISP    +2                         #  B(2)TMP TIG-30 RESTART
002474:
002475:                                                                                                  #  SERVICER STORAGE.                             (69D)
002476:
002477: E7,1745  E7,1501               VGBODY             EQUALS   SAVET-30   +2                         #  B(6)OUT SET.BY S41.1 VG LEM, SC.COORDS
002478: E7,1745  E7,1501               DELVCTL            =        VGBODY
002479: E7,1745  E7,1507               DVTOTAL            EQUALS   VGBODY     +6                         #  B(2) DISPLAY NOUN
002480: E7,1745  E7,1511               GOBLTIME           EQUALS   DVTOTAL    +2                         #  B(2) NOMINAL TIG FOR CALC. OF GOBLATE.
002481: E7,1745  E7,1513               ABDVCONV           EQUALS   GOBLTIME   +2                         #  I(2)
002482: E7,1745  E7,1515               DVCNTR             EQUALS   ABDVCONV   +2                         #  B(1)
002483: E7,1745  E7,1516               TGO                EQUALS   DVCNTR     +1                         #  B(2)
002484: E7,1745  E7,1520               R                  EQUALS   TGO        +2                         #  I(6)
002485: E7,1745  E7,1520               UNITGOBL           EQUALS   R                                     #  I(6)
002486: E7,1745  E7,1526               V                  EQUALS   R          +6
002487: E7,1745  E7,1526               DELVREF            EQUALS   V                                     #  I(6)
002488: E7,1745  E7,1534               HCALC              EQUALS   DELVREF    +6                         #  B(2) LR
002489: E7,1745  E7,1536               UNIT/R/            EQUALS   HCALC      +2                         #  I(6)
002490:
002491:                                                                                                  #  (THE FOLLOWING SERVICER ERASABLES CAN BE SHARED WITH SECOND DPS GUIDANCE STORAGE)
002492:
002493: E7,1745  E7,1544               RN1                EQUALS   UNIT/R/    +6                         #  B(6)
002494: E7,1745  E7,1552               VN1                EQUALS   RN1        +6                         #  I(6)          ( IN ORDER )
002495: E7,1745  E7,1560               PIPTIME1           EQUALS   VN1        +6                         #  B(2)          (    FOR   )
002496: E7,1745  E7,1562               GDT1/2             EQUALS   PIPTIME1   +2                         #  I(6)          (   COPY   )
002497: E7,1745  E7,1570               MASS1              EQUALS   GDT1/2     +6                         #  I(2)          (   CYCLE  )
002498: E7,1745  E7,1572               R1S                EQUALS   MASS1      +2                         #  I(6)
002499: E7,1745  E7,1600               V1S                EQUALS   R1S        +6                         #  I(6)
002500:
002501:                                                                                                  #  ALIGNMENT/S40.2.3 COMMON STORAGE.             (18D)
002502:
002503: E7,1745  E7,1606               XSMD               EQUALS   V1S        +6                         #  I(6)
002504: E7,1745  E7,1614               YSMD               EQUALS   XSMD       +6                         #  I(6)
002505: E7,1745  E7,1622               ZSMD               EQUALS   YSMD       +6                         #  I(6)
002506:
002507: E7,1745  E7,1606               XSCREF             =        XSMD
002508: E7,1745  E7,1614               YSCREF             =        YSMD


002510: E7,1745  E7,1622               ZSCREF             =        ZSMD
002511:
002512: E7,1745  E7,1630               END-ALIG           EQUALS   ZSMD       +6                         #  NEXT AVAIL ERASABLE AFTER ALIGN/S40.2,3
002513:
002514:                                                                                                  #  ****** P22 ******                             (24D)
002515:
002516: E7,1745  E7,1630               RSUBL              EQUALS   END-ALIG                              #  I(6)S-S       LM POSITION VECTOR
002517: E7,1745  E7,1636               UCSM               EQUALS   RSUBL      +6                         #  I(6)S-S       VECTOR U
002518: E7,1745  E7,1644               NEWVEL             EQUALS   UCSM       +6                         #  I(6)S-S       TERMINAL VELOCITY VECTOR
002519: E7,1745  E7,1652               NEWPOS             EQUALS   NEWVEL     +6                         #  I(6)S-S       TERMINAL POSITION VECTOR
002520: E7,1745  E7,1660               LNCHTM             EQUALS   NEWPOS     +6                         #  I(2)S-S       EST. LAUNCH TIME FOR LEM
002521: E7,1745  E7,1662               TRANSTM            EQUALS   LNCHTM     +2                         #  I(2)S-S       TRANSFER TIME
002522: E7,1745  E7,1664               NCSMVEL            EQUALS   TRANSTM    +2                         #  I(6)S-S       NEW CSM VELOCITY
002523:
002524:                                                                                                  #  ***** P21 *****                               (18D)
002525:
002526: E7,1745     1162               P21ORIG            =        DISPDEX
002527: E7,1745  E7,1675               P21BASER           EQUALS   RLMSRCH                               #  I(6)TMP
002528: E7,1745  E7,1703               P21BASEV           EQUALS   P21BASER   +6                         #  I(6)TMP
002529: E7,1745  E7,1711               P21VEL             EQUALS   P21BASEV   +6                         #  I(2)TMP       *** NOUN 91 ***
002530: E7,1745  E7,1713               P21GAM             EQUALS   P21VEL     +2                         #  I(2)TMP       *** NOUN 91 ***
002531: E7,1745  E7,1715               P21ALT             EQUALS   P21GAM     +2                         #  I(2)TMP       *** NOUN 91 ***
002532:


002534:                                                                                                  #  ******* OVERLAY NUMBER 4 IN EBANK 7 *******
002535:
002536:                                                                                                  #  VARIABLES FOR SECOND DPS GUIDANCE (THE LUNAR LANDING)         (80D)
002537:
002538:                                                                                                  #  THESE ERASABLES MAY BE SHARED WITH CARE
002539:
002540: E7,1745  E7,1544               OURTEMPS           =        RN1                                   #  OVERLAY LAST PART OF SERVICER
002541: E7,1745  E7,1544               LANDTEMP           =        OURTEMPS                              #  B(6)  GUIDANCE
002542: E7,1745  E7,1552               TTF/8TMP           =        LANDTEMP   +6                         #  B(2)  GUIDANCE
002543: E7,1745  E7,1554               ELINCR             =        TTF/8TMP   +2                         #  B(2)  GUIDANCE
002544: E7,1745  E7,1556               AZINCR             =        ELINCR     +2                         #  B(2)  GUIDANCE
002545: E7,1745  E7,1560               KEEP-2             =        AZINCR     +2                         #  B(2)  TO PREVENT PIPTIME1 OVERLAY
002546: E7,1745  E7,1562               TABLTTF            =        KEEP-2     +2                         #  B(2)  GUIDANCE
002547: E7,1745  E7,1573               TPIPOLD            =        TABLTTF    +9D                        #  B(2)  GUIDANCE
002548: E7,1745  E7,1621               E2DPS              EQUALS   OURPERMS
002549:
002550:                                                                                                  #  THESE ERASABLES MUST NOT OVERLAY GOBLTIME OR SERVICER
002551:
002552: E7,1745  E7,1606               PIFPSET            =        XSMD                                  #  B(1)  THROTTLE
002553: E7,1745  E7,1607               RTNHOLD            =        PIFPSET    +1                         #  B(1)  THROTTLE
002554: E7,1745  E7,1610               FWEIGHT            =        RTNHOLD    +1                         #  B(2)  THROTTLE
002555: E7,1745  E7,1612               PIF                =        FWEIGHT    +2                         #  B(2)  THROTTLE
002556: E7,1745  E7,1614               PSEUDO55           =        PIF        +2                         #  B(1)  THROTTLE DOWNLINK
002557: E7,1745  E7,1615               FC                 =        PSEUDO55   +1                         #  B(2)  THROTTLE
002558: E7,1745  E7,1617               TTHROT             =        FC         +2                         #  B(1)  THROTTLE
002559: E7,1745  E7,1620               FCOLD              =        TTHROT     +1                         #  B(1)  THROTTLE
002560:
002561:                                                                                                  #  THESE ERASABLES SHOULD NOT BE SHARED DURING P63, P64, P65, P66, P67
002562:
002563: E7,1745  E7,1621               OURPERMS           =        FCOLD      +1                         #  MUSTN'T OVERLAY OURTEMPS OR SERVICER
002564: E7,1745  E7,1621               WCHPHOLD           =        OURPERMS                              #  B(1)  GUIDANCE
002565: E7,1745  E7,1622               511CTR             =        WCHPHOLD   +1                         #  B(1)  R12 - CONTROLS 511 ALARM
002566: E7,1745  E7,1623               FLPASS0            =        511CTR     +1                         #  B(1)  GUIDANCE
002567: E7,1745  E7,1623               CNTTHROT           EQUALS   FLPASS0                               #  B(1) CNT THROTS BETWEEN OMISSIONS OF P66
002568: E7,1745  E7,1624               TPIP               =        FLPASS0    +1                         #  B(2)
002569: E7,1745  E7,1626               VGU                =        TPIP       +2                         #  B(6)  GUIDANCE
002570: E7,1745  E7,1634               LAND               =        VGU        +6                         #  B(6)  GUIDANCE        CONTIGUOUS
002571: E7,1745  E7,1642               TTF/8              =        LAND       +6                         #  B(2)  GUIDANCE        CONTIGUOUS
002572: E7,1745  E7,1644               AZINCR1            =        TTF/8      +2                         #  B(1)    REDESIGNATOR
002573: E7,1745  E7,1645               ELINCR1            =        AZINCR1    +1                         #  B(1)    REDESIGNATOR
002574: E7,1745  E7,1646               ZERLINA            =        ELINCR1    +1                         #  B(1)    REDESIGNATOR
002575: E7,1745  E7,1647               ELVIRA             =        ZERLINA    +1                         #  B(1)    REDESIGNATOR
002576: E7,1745  E7,1650               LRPOS              =        ELVIRA     +1                         #  B(1)    LAST LR ANTENNA POSITION
002577:
002578:                                                                                                  #                                ** NOTE: GAP OF 1 SP LOCATION HERE IN THIS P63 THRU P66 OVERLAY **
002579:
002580: E7,1745  E7,1652               VMEAS              =        LRPOS      +2                         #  B(2) LR VELOCITY READ BY BEAM X, Y OR Z.
002581: E7,1745  E7,1654               HMEAS              =        VMEAS      +2                         #  B(2)  LR
002582: E7,1745  E7,1656               VN2                =        HMEAS      +2                         #  B(6)  LR


002584: E7,1745  E7,1656               GNUR               =        VN2                                   #  B(6)  LR
002585: E7,1745  E7,1656               GNUV               =        VN2                                   #  B(6)  LR
002586: E7,1745  E7,1656               LRADRET1           =        VN2                                   #  B(1)  LR
002587: E7,1745  E7,1664               DELTAH             =        VN2        +6                         #  B(2)  DISPLAY
002588: E7,1745  E7,1666               FUNNYDSP           =        DELTAH     +2                         #  B(2)  DISPLAY
002589: E7,1745  E7,1670               EOURPERM           EQUALS   FUNNYDSP   +2                         #  NEXT AVAILABLE ERASABLE AFTER OURPERMS
002590: E7,1745  E7,1456               OVFRET             EQUALS   LOSCOUNT                              #  B(1) RETURN FROM DESCENT OVERFLOW SUBRO
002591:
002592:                                                                                                  #  (ERASABLES WHICH OVERLAY THE ABOVE BLOCK)
002593:
002594: E7,1745  E7,1644               VDGVERT            =        AZINCR1                               #  B(2)  DESIRED VERTICAL VELOCITY - P66
002595: E7,1745  E7,1646               NIGNLOOP           =        ZERLINA                               #  B(1)  IGNALG
002596: E7,1745  E7,1647               NGUIDSUB           =        ELVIRA                                #  B(1)  IGNALG
002597: E7,1745  E7,1647               WCHVERT            =        ELVIRA                                #  B(1)  P65,P66,P67
002598: E7,1745  E7,1666               FUELNEED           =        FUNNYDSP                              #  B(1)  DISPLAY
002599: E7,1745  E7,1666               TREDES             =        FUNNYDSP                              #  B(1)  DISPLAY
002600: E7,1745  E7,1667               LOOKANGL           =        FUNNYDSP   +1                         #  B(1)  DISPLAY
002601:
002602:                                                                                                  #  ERASABLES CONVENIENTLY DEFINABLE IN THE WORK AREA
002603:
002604: E7,1745                        PROJ               =        18D                                   #  I(2)  GUIDANCE
002605: E7,1745                        UNLRB/2            =        20D                                   #  I(6)  GUIDANCE (DURING P64 ONLY)
002606: E7,1745                        UNLR/2             =        20D                                   #  I(6)  GUIDANCE
002607:
002608:                                                                                                  #  THE END OF THE LUNAR LANDING ERASABLES
002609:
002610:                                                                                                  #  R12 (FOR LUNAR LANDING)                       (6D)
002611:
002612: E7,1745  E7,1670               LRLCTR             EQUALS   EOURPERM                              #  B(1) LR DATA TEST
002613: E7,1745  E7,1671               LRRCTR             EQUALS   LRLCTR     +1                         #  B(1)
002614: E7,1745  E7,1672               LRMCTR             EQUALS   LRRCTR     +1                         #  B(1)
002615: E7,1745  E7,1673               LRSCTR             EQUALS   LRMCTR     +1                         #  B(1)
002616: E7,1745  E7,1674               STILBADH           EQUALS   LRSCTR     +1                         #  B(1)
002617: E7,1745  E7,1675               STILBADV           EQUALS   STILBADH   +1                         #  B(1)
002618:
002619:                                                                                                  #           LANDING ANALOGS DISPLAY STORAGE.              (32D)
002620:
002621: E7,1745  E7,1676               G-VBIASX           =        STILBADV   +1                         #  B(1)    ACC DUE TO GRAVITY AND PIPA BIAS
002622: E7,1745  E7,1677               G-VBIASY           =        G-VBIASX   +1                         #  B(1)    ACC DUE TO GRAVITY AND PIPA BIAS
002623: E7,1745  E7,1700               G-VBIASZ           =        G-VBIASY   +1                         #  B(1)    ACC DUE TO GRAVITY AND PIPA BIAS
002624: E7,1745  E7,1701               VSURFACE           =        G-VBIASZ   +1                         #  B(6)    LUNAR SURFACE VELOCITY
002625: E7,1745  E7,1707               HCALCLAD           =        VSURFACE   +6                         #  B(2)    ALTITUDE IN UNITS OF 2(15) M
002626: E7,1745  E7,1711               HDOTLAD            =        HCALCLAD   +2                         #  B(2)    ALTRATE IN UNITS OF 2(5) M/CS
002627: E7,1745  E7,1713               DALTRATE           =        HDOTLAD    +2                         #  B(1)    DALTRATE UNITS OF 2(-9) M/CS/CS
002628: E7,1745  E7,1714               RUNITX             =        DALTRATE   +1                         #  B(1)    X-COMPONENT OF UNIT/R/ FULL-SIZE
002629: E7,1745  E7,1715               RUNITY             =        RUNITX     +1                         #  B(1)    Y-COMPONENT OF UNIT/R/ FULL-SIZE
002630: E7,1745  E7,1716               RUNITZ             =        RUNITY     +1                         #  B(1)    Z-COMPONENT OF UNIT/R/ FULL-SIZE
002631: E7,1745  E7,1717               DT                 =        RUNITZ     +1                         #  B(1)    TIME SINCE LAST PIPTIME
002632: E7,1745  E7,1720               VVECTX             =        DT         +1                         #  B(2)    X-COMPONENT OF SM REL. VELOCITY
002633:


002635: E7,1745  E7,1722               VVECTY             =        VVECTX     +2                         #  B(2)    Y-COMPONENT OF SM REL. VELOCITY
002636: E7,1745  E7,1724               VVECTZ             =        VVECTY     +2                         #  B(2)    Z-COMPONENT OF SM REL. VELOCITY
002637: E7,1745  E7,1726               ALTRATE            =        VVECTZ     +2                         #  B(2)    ALTRATE IN UNITS OF 2(5) M/CS
002638: E7,1745  E7,1730               ALTITUDE           =        ALTRATE    +2                         #  B(2)    ALTITUDE IN UNITS OF 2(15) M
002639: E7,1745  E7,1732               LATVMETR           =        ALTITUDE   +2                         #  B(1)    LATERAL VELOCITY METER INDICATOR
002640: E7,1745  E7,1733               FORVMETR           =        LATVMETR   +1                         #  B(1)    FORWARD VELOCITY METER INDICATOR
002641: E7,1745  E7,1734               FORVEL             =        FORVMETR   +1                         #  B(2)    FORWARD VELOCITY FOR DSKY (N60)
002642:
002643:
002644: E7,1745     0063               ALTRTEMP           =        ITEMP3                                #  B(2)    ALTITUDE-RATE TEMPORARY
002645: E7,1745     0063               ALTTEMP            =        ITEMP3                                #  B(2)    ALTITUDE TEMPORARY
002646: E7,1745     0063               VHY                =        ITEMP3                                #  B(2)    VELOCITY ALONG UHYP (I.E. SM-Y)
002647: E7,1745     0065               VHZ                =        ITEMP5                                #  B(2)    VELOCITY ALONG UHZP
002648: E7,1745     0070               FORVTEMP           =        RUPTREG1                              #  B(2)    FORWARD VELOCITY TEMPORARY
002649: E7,1745     0072               LATVEL             =        RUPTREG3                              #  B(2)    LATERAL VELOCITY TEMPORARY
002650:
002651:                                                                                                  #  P66 ERASABLES (HORIZONTAL VELOCITY NULLING GUIDANCE)
002652: E7,1745  E7,1433               VHZC               EQUALS   DELVLVC                               #  B(6) VELOCITY HORIZONTAL COMMAND
002653:
002654:                                                                                                  #  P66 ERASABLES (R.O.D.)                        (1D)
002655:
002656: E7,1745  E7,1746               RODCOUNT           EQUALS   R65CNTR    +1                         #  B(1)    ROD CLICK COUNTER
002657:
002658:                                                                                                  #  P66 ERASABLES (R.O.D.)                        (14D)
002659:
002660: E7,1745  E7,1756               RODSCAL1           EQUALS   RM                                    #  B(1)
002661: E7,1745  E7,1757               LASTTPIP           EQUALS   RODSCAL1   +1                         #  I(2)
002662: E7,1745  E7,1761               THISTPIP           EQUALS   LASTTPIP   +2                         #  B(2)
002663: E7,1745  E7,1763               OLDPIPAX           EQUALS   THISTPIP   +2                         #  B(1)
002664: E7,1745  E7,1764               OLDPIPAY           EQUALS   OLDPIPAX   +1                         #  B(1)
002665: E7,1745  E7,1765               OLDPIPAZ           EQUALS   OLDPIPAY   +1                         #  B(1)
002666: E7,1745  E7,1766               DELVROD            EQUALS   OLDPIPAZ   +1                         #  B(6)
002667:
002668:                                                                                                  #  NOUN 63 COMPONENT                             (2D)
002669:
002670: E7,1745  E7,1774               HCALC1             EQUALS   DELVROD    +6                         #  I(2)
002671:
002672:                                                                                                  #  LANDING RADAR DOWNLINK                                (2D)
002673: E7,1745  E7,1776               HMEASDL            EQUALS   HCALC1     +2                         #  B(2)
002674:
002675:


002677:                                                                                                  #  ******* OVERLAY NUMBER 5 IN EBANK 7 *******
002678:
002679:                                                                                                  #  ASCENT GUIDANCE ERASABLES.                    (21D)
002680:
002681: E7,1745  E7,1630               RCO                EQUALS   END-ALIG                              #  I(2)TMP TARGET RADIUS AND OUT-OF-PLANE
002682: E7,1745  E7,1632               YCO                EQUALS   RCO        +2                         #  I(2)TMP DISTANCE, SCALED AT 2(24).
002683: E7,1745  E7,1634               1/DV1              EQUALS   YCO        +2                         #  B(2)TMP ATMAG
002684: E7,1745  E7,1636               1/DV2              EQUALS   1/DV1      +2                         #  B(2)TMP ATMAG
002685: E7,1745  E7,1640               1/DV3              EQUALS   1/DV2      +2                         #  B(2)TMP ATMAG
002686: E7,1745  E7,1642               XRANGE             EQUALS   1/DV3      +2                         #  B(2)TMP
002687: E7,1745  E7,1644               ENGOFFDT           EQUALS   XRANGE     +2                         #  B(1)TMP
002688: E7,1745  E7,1645               VGVECT             EQUALS   ENGOFFDT   +1                         #  I(6)OUT VELOCITY-TO-BE-GAINED
002689: E7,1745  E7,1653               TXO                EQUALS   VGVECT     +6                         #  I(2)TMP TIME AT WHICH X-AXIS OVERRIDE
002690:                                                                                                  #  IS ALLOWED.
002691:
002692:                                                                                                  #  END OF THE ASCENT GUIDANCE ERASABLES.
002693:
002694:                                                                                                  #  THE FOLLOWING CARDS KEEP THE ASSEMBLER HAPPY UNTIL THE SYMBOLS ARE DELETED FROM THE PINBALL NOUN TABLES.
002695:
002696: E7,1745  E7,1745               END-E7.0           EQUALS   IRETURN1   +1                         #  FIRST UNUSED LOCATION IN E7 OVERLAY 0
002697: E7,1745  E7,1747               END-E7.1           EQUALS   N49FLAG    +1                         #  FIRST UNUSED LOCATION IN E7 OVERLAY 1
002698: E7,1745     4000               END-E7.2           EQUALS   POINTVSM   +6                         #  FIRST UNUSED LOCATION IN E7 OVERLAY 2
002699: E7,1745  E7,1630               END-E7.3           EQUALS   END-ALIG                              #  FIRST UNUSED LOCATION IN E7 OVERLAY 3
002700: E7,1745                        END-E7.4           EQUALS   3777                                  #  ** LAST LOCATION USED IN E7 OVERLAY 4 **
002701: E7,1745  E7,1655               END-E7.5           EQUALS   TXO        +2                         #  FIRST UNUSED LOCATION IN E7 OVERLAY 5
002702: E7,1745                        END-E7             EQUALS   3777                                  #  ** LAST LOCATION USED IN E7 **

End of include-file ERASABLE_ASSIGNMENTS.agc.  Parent file is MAIN.agc


