
Source Code


000002:                                                                                                  ## Copyright:   Public domain.
000003:                                                                                                  ## Filename:    EXTENDED_VERBS.agc
000004:                                                                                                  ## Purpose:     A section of Luminary revision 178.
000005:                                                                                                  ##              It is part of the reconstructed source code for the final
000006:                                                                                                  ##              release of the flight software for the Lunar Module's
000007:                                                                                                  ##              (LM) Apollo Guidance Computer (AGC) for Apollo 14. The
000008:                                                                                                  ##              code has been recreated from copies of Zerlina 56, Luminary
000009:                                                                                                  ##              210, and Luminary 131, as well as many Luminary memos.
000010:                                                                                                  ##              It has been adapted such that the resulting bugger words
000011:                                                                                                  ##              exactly match those specified for Luminary 178 in NASA
000012:                                                                                                  ##              drawing 2021152N, which gives relatively high confidence
000013:                                                                                                  ##              that the reconstruction is correct.
000014:                                                                                                  ## Reference:   pp. 268-305
000015:                                                                                                  ## Assembler:   yaYUL
000016:                                                                                                  ## Contact:     Ron Burkey <info@sandroid.org>.
000017:                                                                                                  ## Website:     www.ibiblio.org/apollo/index.html
000018:                                                                                                  ## Mod history: 2019-08-14 MAS  Created from Zerlina 56.
000019:                                                                                                  ##              2019-09-03 MAS  Updated for Luminary 178. Replaced RR
000020:                                                                                                  ##                              bit clearing with calls to CLRADMOD,
000021:                                                                                                  ##                              restored a missing TCF GOPIN, restored
000022:                                                                                                  ##                              displays in LRON, restored original coding
000023:                                                                                                  ##                              for TRMTRAK1, and moved DSPRRLOS and V16N56
000024:                                                                                                  ##                              back to their original bank.
000025:                                                                                                  ##              2019-09-17 MAS  Added in a reconstructed remode check for
000026:                                                                                                  ##                              verb 44.
000027:


000029: 07,2661                                           BANK     7
000030: 43,2000                                           SETLOC   EXTVERBS
000031: 43,2000                                           BANK
000032:
000033: 43,2000  E5,1737                                  EBANK=   OGC
000034:
000035: 43,2000                                           COUNT*   $$/EXTVB
000036:                                                                                                  #  FAN-OUT
000037:
000038: 43,2000           50154        GOEXTVB            INDEX    MPAC                                  #  VERB-40 IS IN MPAC
000039: 43,2001           02002                           TC       LST2FAN                               #  FAN AS BEFORE.
000040:
000041: 43,2002           02126        LST2FAN            TC       VBZERO                                #  VB40 ZERO (USED WITH NOUN 20 OR 72 ONLY)
000042: 43,2003           02177                           TC       VBCOARK                               #  VB41 COARSE ALIGN (USED WITH NOUN 20 OR
000043:                                                                                                  #                                  72 ONLY)
000044: 43,2004           02373                           TC       IMUFINEK                              #  VB42 FINE ALIGN IMU
000045: 43,2005           02731                           TC       IMUATTCK                              #  VB43  LOAD IMU ATTITUDE ERROR METERS.
000046: 43,2006           02301                           TC       RRDESEND                              #  VB44 TERMINATE CONTINUOUS DESIGNATE
000047: 43,2007           02116                           TC       ALM/END                               #  VB45 SPARE
000048: 43,2010           02116                           TC       ALM/END                               #  VB46 SPARE
000049: 43,2011           02432                           TC       V47TXACT                              #  VB47 AGS INITIALIZATION
000050: 43,2012           03164                           TC       DAPDISP                               #  VB48  LOAD A/P DATA
000051: 43,2013           13040                           TCF      CREWMANU                              #  VB49 START AUTOMATIC ATTITUDE MANEUVER
000052: 43,2014           02424                           TC       GOLOADLV                              #  VB50 PLEASE PERFORM
000053: 43,2015           02116                           TC       ALM/END                               #  VB51 SPARE
000054: 43,2016           02424                           TC       GOLOADLV                              #  VB52 PLEASE MARK X - RETICLE.
000055: 43,2017           02424                           TC       GOLOADLV                              #  VB53 PLEASE MARK Y - RETICLE.
000056: 43,2020           02424                           TC       GOLOADLV                              #  VB54 PLEASE MARK X OR Y - RETICLE
000057: 43,2021           02444                           TC       ALINTIME                              #  VB55 ALIGN TIME
000058: 43,2022           03047                           TC       TRMTRACK                              #  VB56 TERMINATE TRACKING - P20 + P25
000059: 43,2023           02324                           TC       LRON                                  #  VB57 PERMIT  LANDING RADAR UPDATES
000060: 43,2024           02365                           TC       LROFF                                 #  VB58 INHIBIT LANDING RADAR UPDATES
000061: 43,2025           02147                           TC       LRPOS2K                               #  VB59 COMMAND LR TO POSITION 2.
000062: 43,2026           02174                           TC       RATEDISP                              #  VB60 DISPLAY DAP ESTIMATED RATES
000063: 43,2027           02164                           TC       DAPATTER                              #  VB61 DISPLAY DAP ATTITUDE ERROR
000064: 43,2030           02167                           TC       TOTATTER                              #  VB62 DISPLAY TOTAL ATTITUDE ERROR
000065: 43,2031           02457                           TC       R04                                   #  VB63 SAMPLE RADAR ONCE PER SECOND
000066: 43,2032           02723                           TC       VB64                                  #  VB64 CALCULATE,DISPLAY S-BAND ANT ANGLES
000067: 43,2033           03254                           TC       SNUFFOUT                              #  VB65 DISABLE U,V JETS DURING DPS BURNS.
000068: 43,2034           03171                           TC       ATTACHED                              #  VB66 ATTACHED   MOVE THIS TO OTHER STATE
000069: 43,2035           03246                           TC       V67                                   #  VB67 W MATRIX MONITOR
000070: 43,2036           02370                           TC       TEROFF                                #  VB68 TAKE OUT TERRAIN MODEL IN DESCENT
000071: 43,2037           02037        VERB69             TC       VERB69                                #  VB69 FORCE A HARDWARE RESTART
000072: 43,2040           03757                           TC       V70UPDAT                              #  VB70 UPDATE LIFTOFF TIME.
000073: 43,2041           03761                           TC       V71UPDAT                              #  VB71 UNIVERSAL UPDATE - BLOCK ADDRESS.
000074: 43,2042           03763                           TC       V72UPDAT                              #  VB72 UNIVERSAL UPDATE - SINGLE ADDRESS.
000075: 43,2043           03765                           TC       V73UPDAT                              #  VB73 UPDATE AGC TIME (OCTAL).
000076: 43,2044           03070                           TC       DNEDUMP                               #  VB74 INITIALIZE DOWN-TELEMETRY PROGRAM
000077:                                                                                                  #         FOR ERASABLE DUMP.
000078: 43,2045           03257                           TC       OUTSNUFF                              #  VB75 ENABLE U,V JETS DURING DPS BURNS.


000080: 43,2046           03027                           TC       MINIMP                                #  VB76 MINIMUM IMPULSE MODE
000081: 43,2047           03032                           TC       NOMINIMP                              #  VB77 RATE COMMAND MODE
000082: 43,2050           02447                           TC       R77                                   #  VB78 START LR SPURIOUS RETURN TEST
000083: 43,2051           02657                           TC       R77END                                #  VB79 TERMINATE LR SPURIOUS RETURN TEST
000084: 43,2052           03074                           TC       LEMVEC                                #  VB80 UPDATE LEM STATE VECTOR
000085: 43,2053           03077                           TC       CSMVEC                                #  VB81 UPDATE CSM STATE VECTOR
000086: 43,2054           02770                           TC       V82PERF                               #  VB82 REQUEST ORBIT PARAM DISPLAY (R30)
000087: 43,2055           03000                           TC       V83PERF                               #  VB83 REQUEST REND PARAM DISPLAY (R31)
000088: 43,2056           02116                           TC       ALM/END                               #  VB84 SPARE
000089: 43,2057           03262                           TC       VERB85                                #  VB85 DISPLAY RR LOS AZ AND ELEV
000090: 43,2060           02116                           TC       ALM/END                               #  VB86 SPARE
000091: 43,2061           02116                           TC       ALM/END                               #  VB87 SPARE
000092: 43,2062           02116                           TC       ALM/END                               #  VB88 SPARE
000093: 43,2063           03006                           TC       V89PERF                               #  VB89 ALIGN XORZ LEM AXIS ALONG LOS (R63)
000094: 43,2064           03015                           TC       V90PERF                               #  VB90 OUT OF PLANE RENDEZVOUS DISPLAY
000095: 43,2065           03127                           TC       GOSHOSUM                              #  VB91 DISPLAY BANK SUM.
000096: 43,2066           03107                           TC       SYSTEST                               #  VB92 OPERATE IMU PERFORMANCE TEST.
000097: 43,2067           03122                           TC       WMATRXNG                              #  VB93 CLEAR RENDWFLG
000098: 43,2070           02116                           TC       ALM/END                               #  VB94 SPARE
000099: 43,2071           03104                           TC       UPDATOFF                              #  VB95 NO STATE VECTOR UPDATE ALLOWED
000100: 43,2072           03241                           TC       VERB96                                #  VB96 INTERRUPT INTEGRATION AND GO TO POO
000101: 43,2073           02424                           TC       GOLOADLV                              #  VB97 PLEASE VERIFY ENGINE FAILURE
000102: 43,2074           02116                           TC       ALM/END                               #  VB98 SPARE
000103: 43,2075           02424                           TC       GOLOADLV                              #  VB99 PLEASE ENABLE ENGINE
000104:
000105:                                                                                                  #  END OF EXTENDED VERB FAN
000106:
000107:
000108: 43,2076           11043        TESTXACT           CCS      EXTVBACT                              #  ARE EXTENDED VERBS BUSY
000109: 43,2077           02116                           TC       ALM/END                               #  YES, TURN ON OPERATOR LIGHT
000110: 43,2100           30100                           CA       FLAGWRD4                              #  ARE PRIORITY DISPLAYS USING DSKY
000111: 43,2101           72125                           MASK     OC24100
000112: 43,2102           10000                           CCS      A
000113: 43,2103           02116                           TC       ALM/END                               #  YES
000114: 43,2104           34362                           CAF      OCT25                                 #  SET BITS 1, 3, AND 5
000115: 43,2105           55043        SETXTACT           TS       EXTVBACT                              #  NO. SET FLAG TO SHOW EXT VERB DISPLAY
000116:                                                                                                  #  SYSTEM BUSY
000117:
000118: 43,2106           30002                           CA       Q
000119: 43,2107           54155                           TS       MPAC       +1
000120:
000121: 43,2110           44752                           CS       TWO                                   #  BLANK EVERYTHING EXCEPT MM AND VERB
000122: 43,2111           04154                           TC       NVSUB
000123: 43,2112           02113                           TC       +1
000124: 43,2113           10067                           CCS      NEWJOB
000125: 43,2114           05122                           TC       CHANG1
000126:
000127: 43,2115           00155                           TC       MPAC       +1
000128:
000129: 43,2116     5503               TERMEXTV           EQUALS   ENDEXT


000131: 43,2116     5503               ENDEXTVB           EQUALS   ENDEXT
000132:
000133: 43,2116           04364        ALM/END            TC       FALTON                                #  TURN ON OPERATOR ERROR LIGHT
000134: 43,2117           04635        GOPIN              TC       POSTJUMP
000135: 43,2120           21051                           CADR     PINBRNCH
000136:
000137: 43,2121           31010        CHKPOOH            CA       MODREG                                #  CHECK FOR POO OR POO-.
000138: 43,2122           00006                           EXTEND
000139: 43,2123           16745                           BZF      TCQ
000140: 43,2124           02116                           TC       ALM/END
000141:
000142: 43,2125           24100        OC24100            OCT      24100
000143:


000145:                                                                                                  #           VBZERO       VERB 40            DESCRIPTION
000146:
000147:                                                                                                  #               1. REQUIRE NOUN 20 (ICDU ANGLES) OR NOUN 72 (RCDU ANGLES).
000148:                                                                                                  #              2. FOR N20, CHECK IMUCADR IN AN EFFORT TO AVOID A 1210 RESTART.
000149:                                                                                                  #                 FOR N72, CHECK IF EITHER RADAR IS IN USE.
000150:                                                                                                  #               3. EXECUTE THE CDU ZERO.
000151:                                                                                                  #               4. STALL UNTILL THE ZERO IS DONE.
000152:                                                                                                  #               5. DON'T DIFFERENIATE BETWEEN A BAD OR GOOD RETURN.
000153:                                                                                                  #               6. EXIT, RE-ESTABLISHING THE INTERRUPTED DISPLAY (IF ANY).
000154:
000155: 43,2126           02202        VBZERO             TC       OP/INERT
000156: 43,2127           02131                           TC       IMUZEROK                              #  RETURN HERE IF NOUN = ICDU(20)
000157: 43,2130           02140                           TC       RRZEROK                               #  RETURN HERE IF NOUN = RCDU(72)
000158: 43,2131           02440        IMUZEROK           TC       CKMODCAD
000159: 43,2132           04616                           TC       BANKCALL                              #  KEYBOARD REQ FOR ISS CDUZERO
000160: 43,2133           16700                           CADR     IMUZERO
000161:
000162: 43,2134           04616                           TC       BANKCALL                              #  STALL
000163: 43,2135           17722                           CADR     IMUSTALL
000164: 43,2136           02137                           TC       +1
000165:
000166: 43,2137           02117                           TC       GOPIN                                 #  IMUZERO
000167:
000168: 43,2140           02702        RRZEROK            TC       RDRUSECK
000169: 43,2141           04616                           TC       BANKCALL
000170: 43,2142           52334                           CADR     RRZERO
000171:
000172: 43,2143           04616        RWAITK             TC       BANKCALL
000173: 43,2144           17720                           CADR     RADSTALL
000174: 43,2145           12146                           TCF      +1
000175: 43,2146           02117                           TC       GOPIN                                 #  RRZERO
000176:
000177:                                                                                                  #           LRPOS2K          VERB 59            DESCRIPTION
000178:                                                                                                  #               COMMAND LANDING RADAR TO POSITION 2
000179:                                                                                                  #              1. EXIT WITH OP ERROR IF SOMEONE IS USING EITHER RADAR.
000180:                                                                                                  #               2. ALARM WITH CODE 523 IF POS 2 IS NOT INDICATED WITHIN
000181:                                                                                                  #                  THE PRESCRIBED TIME.
000182:                                                                                                  #               3. RE-ESTABLISH THE DISPLAYS.
000183:
000184: 43,2147           30103        LRPOS2K            CA       FLAGWRD7
000185: 43,2150           74747                           MASK     AVEGFBIT
000186: 43,2151           00006                           EXTEND
000187: 43,2152           12161                           BZF      LRPOS2K1                              #  AVERAGE G NOT ON
000188: 43,2153           40107                           CS       FLGWRD11
000189: 43,2154           74735                           MASK     LRBYBIT
000190: 43,2155           00006                           EXTEND
000191: 43,2156           12116                           BZF      ALM/END                               #  IF AVE G ON AND NOT R12- OPERATOR ERROR
000192: 43,2157           04635                           TC       POSTJUMP
000193: 43,2160           53577                           CADR     V59GP63
000194: 43,2161           02702        LRPOS2K1           TC       RDRUSECK


000196: 43,2162           04616                           TC       BANKCALL
000197: 43,2163           53566                           CADR     LRP2COMM                              #  COMMAND LR TO POS2
000198:                                                                                                  #  V61      VERB 61, DISPLAY DAP ATTITUDE ERRORS ON FDAI ATTITUDE ERROR NEEDLES.
000199:
000200: 43,2164           05527        DAPATTER           TC       DOWNFLAG
000201: 43,2165           00013                           ADRES    NEEDLFLG
000202: 43,2166           12171                           TCF      TOTATTER   +2
000203:
000204:                                                                                                  #  V62      VERB 62, DISPLAY TOTAL ATTITUDE ERRORS ON FDAI ATTITUDE ERROR NEEDLES.
000205:
000206: 43,2167           05515        TOTATTER           TC       UPFLAG
000207: 43,2170           00013                           ADRES    NEEDLFLG
000208: 43,2171           05527                 +2        TC       DOWNFLAG
000209: 43,2172           00000                           ADRES    NEED2FLG
000210: 43,2173           02117                           TC       GOPIN
000211:
000212:                                                                                                  #  V60      VERB 60, DISPLAY DAP ESTIMATED RATES ON FDAI ATTITUDE ERROR NEEDLES.
000213:
000214: 43,2174           05515        RATEDISP           TC       UPFLAG
000215: 43,2175           00000                           ADRES    NEED2FLG
000216: 43,2176           02117                           TC       GOPIN
000217:
000218:
000219:


000221:                                                                                                  #           VBCOARK      VERB 41            DESCRIPTION
000222:                                                                                                  #               COARSE ALIGN IMU OR RADAR
000223:                                                                                                  #              1. REQUIRE NOUN 20 OR NOUN 72 OR TURN ON OPERATOR ERROR.
000224:                                                                                                  #               2. REQUIRE EXT VERB DISPLAY SYS AVAILABLE OR TURN ON OPERATOR ERROR LIGHT AND GO TO PINBRNCH.
000225:                                                                                                  #               CASE 1     NOUN 20     (ICDU ANGLES)
000226:                                                                                                  #               3. SET EXT VERB DISPLAY ACTIVE FLAG.
000227:                                                                                                  #               4. DISPLAY FLASHING V25,N22 (LOAD NEW ICDU ANGLES).
000228:                                                                                                  #                  RESPONSES
000229:                                                                                                  #                    A. TERMINATE
000230:                                                                                                  #                       1. RELEASE EXT VERB DISPLAY SYSTEM
000231:                                                                                                  #                    B. PROCEED
000232:                                                                                                  #                      1. COARSE ALIGN TO THE EXISTING THETAD'S (ICORK2).
000233:                                                                                                  #                    C. ENTER
000234:                                                                                                  #                      1. COARSE ALIGN TO THE LOADED THETAD'S (ICORK2).
000235:                                                                                                  #               ICORK2
000236:                                                                                                  #                  1. RE-DISPLAY VERB 41.
000237:                                                                                                  #                  2. EXECUTE IMUCOARS (IMU COARSE ALIGN).
000238:                                                                                                  #                  3. EXECUTE IMUSTALL (ALLOW TIME FOR DATA TRANSFER).
000239:                                                                                                  #                  4. RELEASE EXT VERB DISPLAY SYSTEM.
000240:                                                                                                  #               CASE 2     NOUN 72     (RCDU ANGLES)
000241:                                                                                                  #                 EXIT WITH OP ERROR IF SOMEONE IS USING EITHER RADAD.
000242:                                                                                                  #               5. DISPLAY FLASHING V24,N73 (LOAD NEW RR TRUNION ANGLE AND NEW SHAFT ANGLE).
000243:                                                                                                  #                  RESPONSES
000244:                                                                                                  #                  A. TERMINATE
000245:                                                                                                  #                     1. RELEASE EXT VERB DISPLAY SYS.
000246:                                                                                                  #                  B. PROCEED OR ENTER
000247:                                                                                                  #                     1. EXECUTE AURLOKON (ASK OPERATOR FOR LOCK-ON REQUIREMENTS).
000248:                                                                                                  #                     2. RE-DISPLAY VERB 41.
000249:                                                                                                  #                     3. SCHEDULE RRDESK2 WITH PRIORITY 20.
000250:                                                                                                  #                     4. RELEASE EXT VERB DISPLAY SYS.
000251:
000252:                                                                                                  #                  AURLOKON
000253:
000254:                                                                                                  #                 1. FLASH V04 N12 R1 = 00006 R2 = 00002
000255:                                                                                                  #                     RESPONSES
000256:                                                                                                  #                     A. TERMINATE
000257:                                                                                                  #                     B. PROCEED
000258:                                                                                                  #                       1. RESET LOCK-ON SWITCH
000259:                                                                                                  #                       2. SET CONTINUOUS DESIGNATE FLAG
000260:                                                                                                  #                       3. DISABLE R25
000261:                                                                                                  #                    C. V22 E 1 E, R1 = 00001, PROCEED
000262:                                                                                                  #                       1. SET LOCK-ON SWITCH
000263: 43,2177           02202        VBCOARK            TC       OP/INERT
000264: 43,2200           02213                           TC       IMUCOARK                              #  RETURN HERE IF NOUN = ICDU(20)
000265: 43,2201           02235                           TC       RRDESNBK                              #  RETURN HERE IF NOUN = RCDU(72)
000266:                                                                                                  #           RETURNS TO L+1 IF IMU OR L+2 IF RR.
000267:
000268: 43,2202           46007        OP/INERT           CS       OCT24
000269: 43,2203           61001                           AD       NOUNREG
000270: 43,2204           00006                           EXTEND


000272: 43,2205           16745                           BZF      TCQ                                   #  IF = 20.
000273:
000274: 43,2206           62212                           AD       RRIMUDIF                              #  -52
000275: 43,2207           00006                           EXTEND
000276: 43,2210           16742                           BZF      Q+1
000277:
000278: 43,2211           02116                           TC       ALM/END                               #  ILLEGAL.
000279:
000280: 43,2212           77713        RRIMUDIF           DEC      -52        B-14                       #  THE IMU
000281: 43,2213           02440        IMUCOARK           TC       CKMODCAD
000282: 43,2214           02076                           TC       TESTXACT                              #  COARSE ALIGN FROM KEYBOARD.
000283: 43,2215           32233                           CAF      VNLODCDU                              #  CALL FOR THETAD LOAD
000284: 43,2216           04616                           TC       BANKCALL
000285: 43,2217           20334                           CADR     GOXDSPF
000286: 43,2220           05503                           TC       TERMEXTV
000287: 43,2221           12222                           TCF      +1
000288:
000289: 43,2222           32234        ICORK2             CAF      IMUCOARV                              #  RE-DISPLAY COARSE ALIGN VERB.
000290: 43,2223           04616                           TC       BANKCALL
000291: 43,2224           20621                           CADR     EXDSPRET
000292:
000293: 43,2225           04616                           TC       BANKCALL                              #  CALL MODE SWITCHING PROG
000294: 43,2226           16764                           CADR     IMUCOARS
000295:
000296: 43,2227           04616                           TC       BANKCALL                              #  STALL
000297: 43,2230           17722                           CADR     IMUSTALL
000298: 43,2231           05503                           TC       ENDEXTVB
000299: 43,2232           05503                           TC       ENDEXTVB
000300:
000301: 43,2233           06226        VNLODCDU           VN       2522
000302: 43,2234           12200        IMUCOARV           VN       4100
000303:


000305:                                                                                                  #           DESIGNATE TO DESIRED GIMBAL ANGLES.
000306:
000307: 43,2235           02702        RRDESNBK           TC       RDRUSECK
000308: 43,2236           02076                           TC       TESTXACT
000309: 43,2237           06011                           TC       CLRADMOD
000310: 43,2240           32257                           CAF      VNLDRCDU                              #  ASK FOR GIMBAL ANGLES.
000311: 43,2241           04616                           TC       BANKCALL
000312: 43,2242           20334                           CADR     GOXDSPF
000313: 43,2243           05503                           TC       TERMEXTV
000314: 43,2244           12240                           TCF      -4                                    #  V33
000315:
000316: 43,2245           04616                           TC       BANKCALL                              #  ASK OP FOR LOCK ON REQUIREMENTS.
000317: 43,2246           46000                           CADR     AURLOKON
000318:
000319: 43,2247           32234                           CAF      OPTCOARV                              #  RE-DISPLAY OUR OWN VERB
000320: 43,2250           04616                           TC       BANKCALL
000321: 43,2251           20621                           CADR     EXDSPRET
000322:
000323: 43,2252           34736                           CAF      PRIO20
000324: 43,2253           05105                           TC       FINDVAC
000325: 43,2254  E7,1456                                  EBANK=   LOSCOUNT
000326: 43,2254           02260 66107                     2CADR    RRDESK2
000327:
000328:
000329: 43,2256           15503                           TCF      TERMEXTV                              #  FREES DISPLAY.
000330:
000331: 43,2257           06111        VNLDRCDU           VN       2473
000332: 43,2260  43,2234               OPTCOARV           EQUALS   IMUCOARV                              #  DIFFERENT NOUNS.
000333:
000334: 43,2260           04616        RRDESK2            TC       BANKCALL
000335: 43,2261           52466                           CADR     RRDESNB
000336:
000337: 43,2262           02263                           TC       +1                                    #  DUMMY NEEDED SINCE DESRETRN DOES INCR
000338: 43,2263           30167                           CA       PRIORITY
000339: 43,2264           75004                           MASK     LOW9
000340: 43,2265           10000                           CCS      A
000341: 43,2266           50000                           INDEX    A
000342: 43,2267           54000                           TS       A                                     #  RELEASE THIS JOBS VAC AREA.
000343: 43,2270           40000                           COM                                            #  INSURE ENDOFJOB DOES A NOVAC END (BZMF).
000344: 43,2271           26167                           ADS      PRIORITY
000345: 43,2272           04616                           TC       BANKCALL                              #  WAIT FOR COMPLETION OF DESIGNATE
000346: 43,2273           17720                           CADR     RADSTALL
000347: 43,2274           02276                           TC       +2                                    #  BADEND-NO LOCKON OR OUT OF LIMITS
000348: 43,2275           05155                           TC       ENDOFJOB                              #  GOODEND-LOCKON ACHIEVED


000350: 43,2276           05600                           TC       ALARM
000351: 43,2277           00503                           OCT      503                                   #  TURN ON ALARM LIGHT -503 DESIGNATE FAIL
000352: 43,2300           05155                           TC       ENDOFJOB
000353:
000354:
000355: 43,2301           10110        RRDESEND           CCS      RADMODES                              #  TERMINATE CONTINUOUS DESIGNATE ONLY
000356: 43,2302           12117                           TCF      GOPIN
000357: 43,2303           12117                           TCF      GOPIN
000358: 43,2304           12305                           TCF      +1
000359: 43,2305           40110        REMODCHK           CS       RADMODES                              #  CHECK FOR REMODE
000360: 43,2306           74736                           MASK     REMODBIT
000361: 43,2307           10000                           CCS      A
000362: 43,2310           12315                           TCF      NOREMODE                              #  NO
000363: 43,2311           34777                           CAF      1SEC                                  #  YES- WAIT 1 SECOND AND CHECK AGAIN
000364: 43,2312           04616                           TC       BANKCALL
000365: 43,2313           01736                           CADR     DELAYJOB
000366: 43,2314           02305                           TC       REMODCHK
000367: 43,2315           06011        NOREMODE           TC       CLRADMOD
000368: 43,2316           34777                           CAF      1SEC
000369: 43,2317           04616                           TC       BANKCALL
000370: 43,2320           01736                           CADR     DELAYJOB
000371: 43,2321           05527                           TC       DOWNFLAG                              #  ENABLE R25 GIMBAL MONITOR
000372: 43,2322           00126                           ADRES    NORRMON
000373: 43,2323           12117                           TCF      GOPIN
000374: 23,2000                                           BANK     23
000375: 23,2000                                           SETLOC   EXTVB1
000376: 23,2000                                           BANK
000377: 23,2000                                           COUNT*   $$/EXTVB
000378:
000379: 23,2000           04645        AURLOKON           TC       MAKECADR
000380: 23,2001           55112                           TS       DESRET
000381: 23,2002           34752                           CAF      TWO
000382: 23,2003           55051                           TS       OPTIONX    +1
000383: 23,2004           36245                           CAF      SIX                                   #  OPTION CODE FOR V04N12
000384: 23,2005           55050                           TS       OPTIONX
000385:
000386: 23,2006           32037                 -5        CAF      V04N1272
000387: 23,2007           04616                           TC       BANKCALL                              #       R2   00001  LOCK-ON
000388: 23,2010           20353                           CADR     GOMARKFR
000389: 23,2011           15503                           TCF      ENDEXT                                #  V34
000390: 23,2012           12017                           TCF      +5                                    #  V33
000391: 23,2013           12006                           TCF      -5                                    #  V32
000392: 23,2014           34751                           CAF      BIT3
000393: 23,2015           05475                           TC       BLANKET
000394: 23,2016           05155                           TC       ENDOFJOB
000395:
000396: 23,2017           31051                 +5        CA       OPTIONX    +1
000397: 23,2020           74752                           MASK     BIT2


000399: 23,2021           10000                           CCS      A
000400: 23,2022           12026                           TCF      NOLOKON
000401: 23,2023           05515                           TC       UPFLAG
000402: 23,2024           00012                           ADRES    LOKONSW
000403: 23,2025           12034                           TCF      AURLKON1
000404:
000405: 23,2026           05527        NOLOKON            TC       DOWNFLAG                              #  IF NO LOCK-ON, SET BIT15 OF RADMODES TO
000406: 23,2027           00012                           ADRES    LOKONSW                               #  INDICATE THAT CONTINUOUS DESIGNATION IS
000407: 23,2030           05515                           TC       UPFLAG                                #  WANTED (TO BE TERMINATED BY V44.)
000408: 23,2031           00264                           ADRES    CDESFLAG
000409: 23,2032           05515                           TC       UPFLAG                                #  SET NO RR ANGLE MONITOR FLAG.
000410: 23,2033           00126                           ADRES    NORRMON                               #  (DISABLE R25 RR GIMBAL MONITOR IN T4RUPT
000411: 23,2034           00003        AURLKON1           RELINT
000412: 23,2035           31112                           CA       DESRET
000413: 23,2036           14640                           TCF      BANKJUMP
000414:
000415:
000416: 23,2037           01014        V04N1272           VN       412
000417: 23,2040           77757        -LOKONFG           OCT      -20
000418:
000419: 43,2324                                           BANK     43
000420: 43,2000                                           SETLOC   EXTVERBS
000421: 43,2000                                           BANK
000422: 43,2324                                           COUNT*   $$/EXTVB
000423:
000424: 43,2324           02076        LRON               TC       TESTXACT
000425:
000426: 43,2325           32364        DSP68              CAF      V06N68
000427: 43,2326           04616                           TC       BANKCALL
000428: 43,2327           20353                           CADR     GOMARKFR
000429: 43,2330           02362                           TC       B1+5OFF
000430: 43,2331           02353                           TC       SET57
000431: 43,2332           05155                           TC       ENDOFJOB
000432:
000433: 43,2333           04616        WAIT68             TC       BANKCALL
000434: 43,2334           01735                           CADR     2SECDELY
000435:
000436: 43,2335           34361                           CAF      OCT21
000437: 43,2336           71043                           MASK     EXTVBACT
000438: 43,2337           00006                           EXTEND
000439: 43,2340           15503                           BZF      ENDEXT
000440:
000441: 43,2341           74747                           MASK     BIT5
000442: 43,2342           10000                           CCS      A
000443: 43,2343           12325                           TCF      DSP68
000444:
000445: 43,2344           32364        DSP5068            CAF      V50N68
000446: 43,2345           04616                           TC       BANKCALL
000447: 43,2346           20361                           CADR     GOMARK3R   -1
000448: 43,2347           12362                           TCF      B1+5OFF
000449: 43,2350           12362                           TCF      B1+5OFF
000450: 43,2351           12356                           TCF      RESET57
000451:
000452: 43,2352           12333                           TCF      WAIT68
000453:
000454: 43,2353           05515        SET57              TC       UPFLAG
000455: 43,2354           00254                           ADRES    LRINH
000456:
000457: 43,2355           15574                           TCF      B5OFF
000458:
000459: 43,2356           05527        RESET57            TC       DOWNFLAG
000460: 43,2357           00254                           ADRES    LRINH
000461:
000462: 43,2360           34362                           CAF      OCT25
000463: 43,2361           05576                           TC       B5OFF      +2
000464:
000465: 43,2362           44361        B1+5OFF            CS       OCT21
000466: 43,2363           15575                           TCF      B5OFF      +1
000467:
000468: 43,2364     4361               OCT21              EQUALS   ND1
000469:
000470: 43,2364           01504        V06N68             VN       0668
000471: 43,2365  43,2364               V50N68             =        V06N68
000472:
000473:
000474: 43,2365           05527        LROFF              TC       DOWNFLAG                              #  INHIBIT INCORPORATION OF LR DATA     V58
000475: 43,2366           00254                           ADRES    LRINH
000476: 43,2367           02117                           TC       GOPIN
000477:
000478: 43,2370           05515        TEROFF             TC       UPFLAG                                #  BYPASS TERRAIN MODEL
000479: 43,2371           00023                           ADRES    NOTERFLG
000480: 43,2372           12117                           TCF      GOPIN
000481:
000482:
000483: 43,2373  E5,1737                                  EBANK=   OGC
000484:


000486:                                                                                                  #           IMUFINEK     VERB 42            DESCRIPTION
000487:                                                                                                  #               FINE ALIGN IMU
000488:                                                                                                  #               1. REQUIRE EXT VERB DISPLAY AVAILABLE AND SET BUSY FLAG OR TURN ON OPER ERROR AND GO TO PINBRNCH.
000489:                                                                                                  #               2. DISPLAY FLASHING V25,N93....LOAD DELTA GYRO ANGLES....
000490:                                                                                                  #                  RESPONSES
000491:                                                                                                  #                  A. TERMINATE
000492:                                                                                                  #                     1. RELEASE EXT VERB DISPLAY SYSTEM.
000493:                                                                                                  #                  B. PROCEED OR ENTER
000494:                                                                                                  #                     1. RE-DISPLAY VERB 42
000495:                                                                                                  #                     2. EXECUTE IMUFINE (IMU FIVE ALIGN MODE SWITCHING).
000496:                                                                                                  #                     3. EXECUTE IMUSTALL (ALLOW FOR DATA TRANSFER)
000497:                                                                                                  #                        A. FAILED
000498:                                                                                                  #                           1. RELEASE EXT VERB DISPLAY SYSTEM.
000499:                                                                                                  #                        B. GOOD
000500:                                                                                                  #                           1. EXECUTE IMUPULSE (TORQUE IRIGS).
000501:                                                                                                  #                           2. EXECUTE IMUSTALL AND RELEASE EXT VERB DISPLAY SYSTEM.
000502:
000503: 43,2373           02440        IMUFINEK           TC       CKMODCAD
000504: 43,2374           02076                           TC       TESTXACT                              #  FINE ALIGN WITH GYRO TORQUING.
000505: 43,2375           32422                           CAF      VNLODGYR                              #  CALL FOR LOAD OF GYRO COMMANDS
000506: 43,2376           04616                           TC       BANKCALL
000507: 43,2377           20334                           CADR     GOXDSPF
000508: 43,2400           05503                           TC       TERMEXTV
000509: 43,2401           02402                           TC       +1                                    #  PROCEED WITHOUT A LOAD
000510:
000511: 43,2402           32423                           CAF      IMUFINEV                              #  RE-DISPLAY OUR OWN VERB
000512: 43,2403           04616                           TC       BANKCALL
000513: 43,2404           20621                           CADR     EXDSPRET
000514:
000515: 43,2405           04616                           TC       BANKCALL                              #  CALL MODE SWITCH PROG
000516: 43,2406           17174                           CADR     IMUFINE
000517:
000518: 43,2407           04616                           TC       BANKCALL                              #  HIBERNATION
000519: 43,2410           17722                           CADR     IMUSTALL
000520: 43,2411           05503                           TC       ENDEXTVB
000521:
000522: 43,2412           32421        FINEK2             CAF      LGYROBIN                              #  PINBALL LEFT COMMANDS IN OGC REGIST5RS
000523: 43,2413           04616                           TC       BANKCALL
000524: 43,2414           17307                           CADR     IMUPULSE
000525:
000526: 43,2415           04616                           TC       BANKCALL                              #  WAIT FOR PULSES TO GET OUT.
000527: 43,2416           17722                           CADR     IMUSTALL
000528: 43,2417           05503                           TC       ENDEXTVB
000529: 43,2420           05503                           TC       ENDEXTVB
000530:
000531: 43,2421           02737        LGYROBIN           ECADR    OGC
000532: 43,2422           06335        VNLODGYR           VN       2593
000533: 43,2423           12400        IMUFINEV           VN       4200
000534:                                                                                                  #           GOLOADLV     VERB 50            DESCRIPTION
000535:                                                                                                  #                        AND OTHER PLEASE


000537:                                                                                                  #                        DO SOMETHING VERBS
000538:                                                                                                  #               PLEASE PERFORM, MARK, CALIBRATE, ETC.
000539:                                                                                                  #               1. PRESSING ENTER ON DSKY INDICATES REQUESTED ACTION HAS BEEN  PERFORMED, AND THE PROGRAM DOES THE
000540:                                                                                                  #                  SAME RECALL AS A COMPLETED LOAD.
000541:                                                                                                  #               2. THE EXECUTION OF A VERB 33 (PROCEED WITHOUT DATA) INDICATES THE REQUESTED ACTION IS NOT DESIRED.
000542:
000543: 43,2424  40,2000                                  SBANK=   PINSUPER                              #  FOR LOADLV1 AND SHOWSUM CADR'S.
000544:
000545: 43,2424           04433        GOLOADLV           TC       FLASHOFF
000546:
000547: 43,2425           34201                           CAF      PINSUPBT
000548: 43,2426           00006                           EXTEND
000549: 43,2427           01007                           WRITE    SUPERBNK
000550: 43,2430           04635                           TC       POSTJUMP
000551: 43,2431           62001                           CADR     LOADLV1
000552:                                                                                                  #  VERB 47 - AGS INITIALIZATION - R47.
000553:
000554:                                                                                                  #           SEE LOG SECTION AGS INITIALIZATION FOR OTHER PERTINENT REMARKS.
000555:
000556: 43,2432           02076        V47TXACT           TC       TESTXACT                              #  NO OTHER EXTVERB.
000557: 43,2433           34740                           CAF      PRIO4
000558: 43,2434           05105                           TC       FINDVAC
000559: 43,2435  E6,1771                                  EBANK=   AGSK
000560: 43,2435           02005 64066                     2CADR    AGSINIT
000561:
000562: 43,2437           05155                           TC       ENDOFJOB
000563:
000564: 43,2440           31301        CKMODCAD           CA       MODECADR
000565: 43,2441           00006                           EXTEND
000566: 43,2442           16745                           BZF      TCQ
000567: 43,2443           02116                           TC       ALM/END                               #  SOMEBODY IS USING MODECADR SO EXIT
000568:


000570:                                                                                                  #           ALINTIME     VERB 55            DESCRIPTION
000571:                                                                                                  #                  REQUIRE POO OR POO-.
000572:                                                                                                  #               1. SET EXT VERB DISPLAY BUSY FLAG.
000573:                                                                                                  #               2. DISPLAY FLASHING V25,N24 (LOAD DELTA TIME FOR AGC CLOCK.
000574:                                                                                                  #               3. REQUIRE EXECUTION OF VERB 23.
000575:                                                                                                  #               4. ADD DELTA TIME, RECEIVED FROM INPUT REGISTER, TO THE COMPUTER TIME.
000576:                                                                                                  #               5. RELEASE EXT VERB DISPLAY SYSTEM
000577:
000578: 43,2444           02076        ALINTIME           TC       TESTXACT
000579: 43,2445           04635                           TC       POSTJUMP                              #  NO ROOM IN 43
000580: 43,2446           64002                           CADR     R33
000581:
000582: 42,2002                                           BANK     42
000583: 42,2000                                           SETLOC   SBAND
000584: 42,2000                                           BANK
000585: 42,2002                                           COUNT*   $$/R33
000586:
000587: 42,2002           35021        R33                CAF      PRIO7
000588: 42,2003           05146                           TC       PRIOCHNG
000589: 42,2004           32034                           CAF      VNLODDT
000590: 42,2005           04616                           TC       BANKCALL
000591: 42,2006           20334                           CADR     GOXDSPF
000592: 42,2007           05503                           TC       ENDEXT                                #  TERMINATE
000593: 42,2010           05503                           TC       ENDEXT                                #  PROCEED
000594: 42,2011           42033                           CS       DEC23                                 #  DATA IN OR RESEQUENCE(UNLIKELY)
000595: 42,2012           60154                           AD       MPAC                                  #  RECALL LEFT VERB IN MPAC
000596: 42,2013           00006                           EXTEND
000597: 42,2014           12016                           BZF      UPDATIME                              #  GO AHEAD WITH UPDATE ONLY IF RECALL
000598: 42,2015           05503                           TC       ENDEXT                                #    WITH V23 (DATA IN).
000599:
000600: 42,2016           00004        UPDATIME           INHINT                                         #  DELTA TIME IS IN DSPTEM1, +1.
000601: 42,2017           34755                           CAF      ZERO
000602: 42,2020           54156                           TS       MPAC       +2                         #  NEEDED FOR TP AGREE
000603: 42,2021           54001                           TS       L                                     #  ZERO T1 + 2 WHILE ALIGNING.
000604: 42,2022           52025                           DXCH     TIME2
000605: 42,2023           52155                           DXCH     MPAC
000606: 42,2024           53051                           DXCH     DSPTEM2    +1                         #  INCREMENT
000607: 42,2025           20155                           DAS      MPAC
000608:
000609: 42,2026           07262                           TC       TPAGREE                               #  FORCE SIGN AGREEMENT.
000610: 42,2027           52155                           DXCH     MPAC                                  #  NEW CLOCK.
000611: 42,2030           20025                           DAS      TIME2
000612: 42,2031           00003                           RELINT
000613: 42,2032           05503        UPDTMEND           TC       ENDEXT
000614:
000615: 42,2033           00027        DEC23              DEC      23         B-14                       #  V 23
000616:
000617: 42,2034           06230        VNLODDT            VN       2524                                  #  V25N24 FOR LOAD DELTA TIME
000618:


000620:                                                                                                  #           SET UP FOR RADAR SAMPLING.
000621:
000622: 42,2035                                           BANK     42
000623: 43,2000                                           SETLOC   EXTVERBS
000624: 43,2000                                           BANK
000625:
000626: 43,2447  E4,1600                                  EBANK=   RSTACK
000627:
000628: 43,2447                                           COUNT*   $$/R0477
000629:
000630: 43,2447           02702        R77                TC       RDRUSECK                              #  TRY TO AVOID THE 1210.
000631: 43,2450           30077                           CA       FLAGWRD3                              #  IS R04 RUNNING?
000632: 43,2451           74743                           MASK     R04FLBIT
000633: 43,2452           10000                           CCS      A
000634: 43,2453           02116                           TC       ALM/END                               #  YES.
000635: 43,2454           05515                           TC       UPFLAG
000636: 43,2455           00117                           ADRES    R77FLAG
000637: 43,2456           12463                           TCF      R04Z
000638:
000639: 43,2457           02702        R04                TC       RDRUSECK                              #  TRY TO AVOID THE 1210.
000640: 43,2460           02076                           TC       TESTXACT
000641: 43,2461           05515                           TC       UPFLAG
000642: 43,2462           00063                           ADRES    R04FLAG                               #  SET R04FLAG FOR ALARMS
000643:
000644: 43,2463           34741        R04Z               CAF      EBANK4
000645: 43,2464           54003                           TS       EBANK
000646: 43,2465           32700                           CAF      1SEC+1                                #  SAMPLE ONCE PER SECOND
000647: 43,2466           55777                           TS       RSAMPDT
000648: 43,2467           34755                           CAF      ZERO
000649: 43,2470           55776                           TS       RTSTLOC
000650: 43,2471           55575                           TS       RFAILCNT                              #  ZERO BAD SAMPLE COUNTER
000651:
000652: 43,2472           00004                           INHINT
000653: 43,2473           42701                           CS       LRPOSCAL                              #  INITIALIZE
000654: 43,2474           70110                           MASK     RADMODES                              #      BIT9   LR RANGE  LOW SCALE =0
000655: 43,2475           54110                           TS       RADMODES                              #      BIT6   LR POS 1 =0
000656: 43,2476           32701                           CAF      LRPOSCAL                              #      BIT3   RR RANGE  LOW SCALE =0
000657: 43,2477           00006                           EXTEND
000658: 43,2500           02033                           RAND     CHAN33
000659: 43,2501           26110                           ADS      RADMODES
000660: 43,2502           00003                           RELINT
000661:
000662: 43,2503           40077                           CS       FLAGWRD3                              #  CHECK R04FLAG      R04 =1    R77 =0
000663: 43,2504           74743                           MASK     R04FLBIT
000664: 43,2505           10000                           CCS      A
000665: 43,2506           12635                           TCF      R04K
000666:
000667: 43,2507           34753                           CAF      ONE                                   #  INDICATES RENDEZVOUS DESIRED
000668: 43,2510           55051                           TS       OPTIONX    +1
000669: 43,2511           34751        R04A               CAF      BIT3                                  #  OPTION CODE FOR V04N12
000670:


000672: 43,2512           55050                           TS       OPTIONX
000673: 43,2513           32675                           CAF      V04N12X
000674: 43,2514           04616                           TC       BANKCALL                              #      R2   00001  RENDEZVOUS RADAR
000675: 43,2515           20353                           CADR     GOMARKFR                              #           00002  LANDING RADAR
000676: 43,2516           12643                           TCF      R04END                                #  V34
000677: 43,2517           12524                           TCF      +5                                    #  V33
000678: 43,2520           12513                           TCF      R04A       +2                         #  R2
000679: 43,2521           34751                           CAF      BIT3
000680: 43,2522           05475                           TC       BLANKET
000681: 43,2523           05155                           TC       ENDOFJOB
000682:
000683: 43,2524           31051                           CA       OPTIONX    +1                         #  SAVE DESIRED OPTION     RR =1     LR =2
000684: 43,2525           55773                           TS       RTSTDEX
000685:
000686: 43,2526           36245        R04X               CAF      SIX                                   #  RR OR LR DESIRED
000687: 43,2527           71773                           MASK     RTSTDEX
000688: 43,2530           10000                           CCS      A
000689: 43,2531           12637                           TCF      R04L                                  #  LANDING RADAR
000690: 43,2532           55775                           TS       RTSTBASE                              #  FOR RR   BASE = 0, MAX = 1
000691:
000692: 43,2533           34752        R04B               CAF      BIT2                                  #  IS RR AUTO MODE DISCRETE PRESENT
000693: 43,2534           00006                           EXTEND
000694: 43,2535           02033                           RAND     CHAN33
000695: 43,2536           00006                           EXTEND
000696: 43,2537           12550                           BZF      R04C                                  #  YES
000697:
000698: 43,2540           32677                           CAF      201R04                                #  REQUEST SELECTION OF RR AUTO MODE
000699: 43,2541           55044                           TS       DSPTEM1
000700: 43,2542           32676                           CAF      V50N25X
000701: 43,2543           04616                           TC       BANKCALL
000702: 43,2544           20345                           CADR     GOMARK4
000703: 43,2545           12643                           TCF      R04END                                #  V34
000704: 43,2546           12533                           TCF      R04B                                  #  V33
000705: 43,2547           12540                           TCF      -7                                    #  E
000706:
000707: 43,2550           34736        R04C               CAF      BIT14                                 #  ENABLE RR AUTO TRACKER
000708: 43,2551           00006                           EXTEND
000709: 43,2552           05012                           WOR      CHAN12
000710:
000711: 43,2553           34752                           CAF      TWO
000712: 43,2554           55774                           TS       RTSTMAX                               #  FOR SEQUENTIAL STORAGE
000713:
000714: 43,2555           05214                           TC       WAITLIST
000715: 43,2556  E4,1600                                  EBANK=   RSTACK
000716: 43,2556           02050 32104                     2CADR    RADSAMP
000717:
000718: 43,2560           00003                           RELINT
000719:
000720: 43,2561           40077                           CS       FLAGWRD3                              #  CHECK R04FLAG      R04 =1    R77 =0
000721: 43,2562           74743                           MASK     R04FLBIT


000723: 43,2563           10000                           CCS      A
000724: 43,2564           12117                           TCF      GOPIN                                 #  R77
000725:
000726: 43,2565           36245                           CAF      SIX                                   #  RR OR LR
000727: 43,2566           71773                           MASK     RTSTDEX
000728: 43,2567           10000                           CCS      A
000729: 43,2570           12605                           TCF      R04LR                                 #  LR
000730:
000731: 43,2571           32671        R04RR              CAF      V16N72                                #  DISPLAY RR CDU ANGLES (1/SEC)
000732: 43,2572           04616                           TC       BANKCALL                              #           R1  +  XXX.XX DEG   TRUNNION
000733: 43,2573           20334                           CADR     GOMARKF                               #           R2  +  XXX.XX DEG   SHAFT
000734: 43,2574           12643                           TCF      R04END                                #  V34      R3     BLANK
000735: 43,2575           12577                           TCF      +2                                    #  V33
000736: 43,2576           12571                           TCF      R04RR                                 #  V32
000737:
000738: 43,2577           32672                           CAF      V16N78                                #  DISPLAY RR RANGE AND RANGE RATE (1/SEC)
000739: 43,2600           04616                           TC       BANKCALL                              #           R1  +- XXX.XX NM    RANGE
000740: 43,2601           20334                           CADR     GOMARKF                               #           R2  +- XXXXX. FPS   RANGE RATE
000741: 43,2602           12643                           TCF      R04END                                #  V34      R3     BLANK
000742: 43,2603           12621                           TCF      R04Y                                  #  V33
000743: 43,2604           12571                           TCF      R04RR                                 #  V32
000744:
000745: 43,2605           32673        R04LR              CAF      V16N66                                #  DISPLAY LR RANGE AND POSITION (1/SEC)
000746: 43,2606           04616                           TC       BANKCALL                              #           R1  +- XXXXX. FT    LR RANGE
000747: 43,2607           20334                           CADR     GOMARKF                               #           R2  +  0000X.       POS. NO.
000748: 43,2610           12643                           TCF      R04END                                #  V34      R3     BLANK
000749: 43,2611           12613                           TCF      +2                                    #  V33
000750: 43,2612           12605                           TCF      R04LR                                 #  V32
000751:
000752: 43,2613           32674                           CAF      V16N67                                #  DISPLAY LR VELX, VELY, VELZ (1/SEC)
000753: 43,2614           04616                           TC       BANKCALL                              #           R1  +- XXXXX. FPS   LR V(X)
000754: 43,2615           20334                           CADR     GOMARKF                               #           R2  +- XXXXX. FPS   LR V(Y)
000755: 43,2616           12643                           TCF      R04END                                #  V34      R3  +- XXXXX. FPS   LR V(Z)
000756: 43,2617           12621                           TCF      R04Y                                  #  V33
000757: 43,2620           12605                           TCF      R04LR                                 #  V32
000758:
000759: 43,2621           34755        R04Y               CAF      ZERO                                  #  TO TERMINATE SAMPLING
000760: 43,2622           55777                           TS       RSAMPDT
000761: 43,2623           04616                           TC       BANKCALL
000762: 43,2624           01735                           CADR     2SECDELY                              #  WAIT FOR LAST RADARUPT
000763: 43,2625           32700                           CAF      1SEC+1                                #  SAMPLE ONCE PER SECOND
000764: 43,2626           55777                           TS       RSAMPDT
000765: 43,2627           34755                           CAF      ZERO                                  #  FOR STORING RESULTS
000766: 43,2630           55776                           TS       RTSTLOC
000767: 43,2631           11775                           CCS      RTSTBASE                              #   CHECK WHICH RADAR HAD BEEN SAMPLED
000768: 43,2632           44753                           CS       ONE                                   #  WAS LR
000769: 43,2633           64752                           AD       TWO                                   #  WAS RR
000770: 43,2634           12525                           TCF      R04X       -1
000771:
000772: 43,2635           34766        R04K               CAF      250MS+1                               #  SAMPLE 4 LR COMPONENTS PER SECOND.


000774: 43,2636           55777                           TS       RSAMPDT
000775:
000776: 43,2637           34752        R04L               CAF      TWO
000777: 43,2640           55775                           TS       RTSTBASE                              #  FOR LR   BASE = 2, MAX = 3
000778: 43,2641           36245                           CAF      SIX
000779: 43,2642           12554                           TCF      R04C       +4
000780: 43,2643           34755        R04END             CAF      ZERO                                  #  ZERO RSAMPDT
000781: 43,2644           55777                           TS       RSAMPDT                               #  TO TERMINATE SAMPLING
000782: 43,2645           34744                           CAF      BIT8                                  #  WAIT 1.28 SECONDS FOR POSSIBLE
000783: 43,2646           04616                           TC       BANKCALL                              #  PENDING RUPT.
000784: 43,2647           01736                           CADR     DELAYJOB
000785:
000786: 43,2650           00004                           INHINT
000787: 43,2651           44736                           CS       BIT14                                 #  DISABLE RR AUTO TRACKER
000788: 43,2652           00006                           EXTEND
000789: 43,2653           03012                           WAND     CHAN12
000790:
000791: 43,2654           05527                           TC       DOWNFLAG
000792: 43,2655           00063                           ADRES    R04FLAG                               #  SIGNAL END OF R04.
000793:
000794: 43,2656           05503                           TC       ENDEXT
000795:
000796: 43,2657           34741        R77END             CAF      EBANK4                                #  TO TERMINATE SAMPLING
000797: 43,2660           54003                           TS       EBANK
000798: 43,2661           34755                           CAF      ZERO
000799: 43,2662           55777                           TS       RSAMPDT
000800: 43,2663           34746                           CAF      BIT6                                  #  WAIT 320 MS FOR POSSIBLE
000801: 43,2664           04616                           TC       BANKCALL                              #  PENDING RUPT.
000802: 43,2665           01736                           CADR     DELAYJOB
000803:
000804: 43,2666           05527                           TC       DOWNFLAG
000805: 43,2667           00117                           ADRES    R77FLAG
000806: 43,2670           12117                           TCF      GOPIN
000807:
000808: 43,2671           04110        V16N72             VN       1672
000809: 43,2672           04116        V16N78             VN       1678
000810: 43,2673           04102        V16N66             VN       1666
000811: 43,2674           04103        V16N67             VN       1667
000812: 43,2675           01014        V04N12X            VN       412
000813: 43,2676           14431        V50N25X            VN       5025
000814: 43,2677           00201        201R04             OCT      00201
000815: 43,2700           00145        1SEC+1             DEC      101        B-14
000816: 43,2701     4766               250MS+1            EQUALS   CALLCODE
000817: 43,2701           00444        LRPOSCAL           OCT      444
000818:


000820: 43,2702           30101        RDRUSECK           CA       FLAGWRD5                              #  IS R77 RUNNING?
000821: 43,2703           74741                           MASK     R77FLBIT
000822: 43,2704           10000                           CCS      A
000823: 43,2705           02116                           TC       ALM/END                               #  YES.
000824: 43,2706           40103                           CS       FLAGWRD7                              #  IS SERVICER RUNNING AND HENCE POSSIBLY
000825: 43,2707           74746                           MASK     V37FLBIT                              #  R12 USING THE LR?
000826: 43,2710           10000                           CCS      A
000827: 43,2711           12716                           TCF      CHECKRR                               #  NO
000828: 43,2712           30107                           CA       FLGWRD11                              #  YES, IS R12 ON?
000829: 43,2713           74735                           MASK     LRBYBIT                               #  BIT 15
000830: 43,2714           00006                           EXTEND
000831: 43,2715           12116                           BZF      ALM/END                               #  YES
000832: 43,2716           40075        CHECKRR            CS       FLAGWRD1                              #  IS THE TRACK FLAG SET AND HENCE POSSIBLY
000833: 43,2717           74747                           MASK     TRACKBIT                              #  P20 USING THE RR?
000834: 43,2720           10000                           CCS      A
000835: 43,2721           00002                           TC       Q                                     #  NOT ALLOWED DURING P20
000836: 43,2722           02116                           TC       ALM/END                               #  P22 OR P25,  (R65)
000837: 43,2723                                           COUNT*   $$/EXTVB
000838:
000839: 43,2723           02076        VB64               TC       TESTXACT                              #  IF DISPLAY SYS. NOT BUSY,MAKE IT BUSY.
000840: 43,2724           34740                           CAF      PRIO4
000841: 43,2725           05105                           TC       FINDVAC
000842: 43,2726  E4,1600                                  EBANK=   ALPHASB
000843: 43,2726           03612 64104                     2CADR    SBANDANT                              #  CALC.,DISPLAY S-BAND ANTENNA ANGLES.
000844:
000845: 43,2730           05155                           TC       ENDOFJOB
000846:


000848:                                                                                                  #           IMUATTCK     VERB 43            DESCRIPTION
000849:                                                                                                  #               LOAD IMU ATTITUDE ERROR METERS
000850:                                                                                                  #                  1. REQUIRE POO OR FRESH START.
000851:                                                                                                  #                  2. REQUIRE COARSE ALIGN ENABLE AND ZERO ICDU BITS OFF.
000852:                                                                                                  #                  3. REQUIRE THAT NEEDLES BE OFF.
000853:                                                                                                  #                  4. REQUEST LOAD OF N22  (VAUES TO BE DISPLAYED).
000854:                                                                                                  #                  5. ON PROCEED OR ENTER RE-DISPLAY V43 AND SEND PULSES.
000855:
000856: 43,2731           02121        IMUATTCK           TC       CHKPOOH                               #  VB 76 - LOAD IMU ATT. ERROR METERS
000857:
000858: 43,2732           34763                           CAF      BITS4&5                               #  SEE IF COARSE ALIGN ENABLE AND ZERO IMU
000859: 43,2733           00006                           EXTEND                                         #  CDUS BITS ARE ON
000860: 43,2734           02012                           RAND     CHAN12
000861: 43,2735           10000                           CCS      A
000862: 43,2736           12116                           TCF      ALM/END                               #  NOT ALLOWED IF IMU COARSE OR IMU ZERO ON
000863:
000864: 43,2737           34355                           CAF      BIT13-14                              #  BOTH BITS 13 AND 14 MUST BE 1
000865: 43,2740           00006                           EXTEND                                         #  INDICATING THE MODE SELECTED IS OFF.
000866: 43,2741           06031                           RXOR     CHAN31
000867: 43,2742           74355                           MASK     BIT13-14
000868: 43,2743           00006                           EXTEND
000869: 43,2744           12746                           BZF      +2                                    #  NEEDLES IS OFF.
000870: 43,2745           12116                           TCF      ALM/END                               #  EXIT.  NEEDLES IS ON.
000871:
000872: 43,2746           02076                           TC       TESTXACT
000873:
000874: 43,2747           32233                           CAF      VNLODCDU
000875: 43,2750           04616                           TC       BANKCALL
000876: 43,2751           20334                           CADR     GOXDSPF
000877: 43,2752           05503                           TC       ENDEXT                                #  V34
000878: 43,2753           02754                           TC       +1
000879: 43,2754           32767                           CAF      V43K                                  #  REDISPLAY OUR VERB.
000880: 43,2755           04616                           TC       BANKCALL
000881: 43,2756           20621                           CADR     EXDSPRET
000882: 43,2757           34746                           CAF      BIT6
000883: 43,2760           00006                           EXTEND
000884: 43,2761           05012                           WOR      CHAN12                                #  ENABLE ERROR COUNTERS.
000885: 43,2762           34752                           CAF      TWO
000886: 43,2763           05214                           TC       WAITLIST                              #  PUT OUT COMMANDS IN .32 SECONDS.
000887: 43,2764     0321                                  EBANK=   THETAD
000888: 43,2764           02035 64100                     2CADR    ATTCK2
000889:
000890: 43,2766           15503                           TCF      ENDEXT
000891:
000892: 42,2035                                           BANK     42
000893: 42,2000                                           SETLOC   PINBALL3                              #  SOMETHING IN B42.
000894: 42,2000                                           BANK
000895:
000896: 42,2035                                           COUNT*   $$/EXTVB


000898: 42,2035           34752        ATTCK2             CAF      TWO                                   #  PUT OUT COMMANDS.
000899: 42,2036           54002                 +1        TS       Q                                     #  CDU WILL LIMIT EXCESS DATA.
000900: 42,2037           50000                           INDEX    A
000901: 42,2040           30321                           CA       THETAD
000902: 42,2041           00006                           EXTEND
000903: 42,2042           72053                           MP       ATTSCALE
000904: 42,2043           50002                           INDEX    Q
000905: 42,2044           56050                           XCH      CDUXCMD
000906: 42,2045           10002                           CCS      Q
000907: 42,2046           12036                           TCF      ATTCK2     +1
000908:
000909: 42,2047           37743                           CAF      13,14,15
000910: 42,2050           00006                           EXTEND
000911: 42,2051           05014                           WOR      CHAN14
000912: 42,2052           15272                           TCF      TASKOVER                              #  LEAVE ERROR COUNTERS ENABLED.
000913:
000914: 42,2053           03146        ATTSCALE           DEC      0.1
000915:
000916: 07,2661                                           BANK     7
000917: 43,2000                                           SETLOC   EXTVERBS
000918: 43,2000                                           BANK
000919:
000920: 43,2767                                           COUNT*   $$/EXTVB
000921:
000922: 43,2767           12600        V43K               VN       4300
000923:                                                                                                  #           V82PERF     VERB 82             DESCRIPTION
000924:                                                                                                  #               REQUEST ORBIT PARAMETERS DISPLAY (R30)
000925:                                                                                                  #  1. IF AVERAGE G IS OFF:
000926:                                                                                                  #           FLASH DISPLAY V04N06. R2 INDICATES WHICH SHIP'S STATE VECTOR IS
000927:                                                                                                  #            TO BE UPDATED. INITIAL CHOICE IS THIS SHIP (R2=1). ASTRONAUT
000928:                                                                                                  #            CAN CHANGE TO OTHER SHIP BY V22EXE, WHERE X NOT EQ 1.
000929:                                                                                                  #           SELECTED STATE VECTOR UPDATED BY THISPREC (OTHPREC).
000930:                                                                                                  #           CALLS SR30.1 (WHICH CALLS TFFCONMU + TFFRP/RA) TO CALCULATE
000931:                                                                                                  #            RPER (PERIGEE RADIUS), RAPO (APOGEE RADIUS), HPER (PERIGEE
000932:                                                                                                  #            HEIGHT ABOVE LAUNCH PAD OR LUNAR LANDING SITE), HAPO (APOGEE
000933:                                                                                                  #            HEIGHT AS ABOVE), TPER (TIME TO PERIGEE), TFF (TIME TO
000934:                                                                                                  #            INTERSECT 300 KFT ABOVE PAD OR 35KFT ABOVE LANDING SITE).
000935:                                                                                                  #           FLASH MONITOR V16N44 (HAPO, HPER, TFF).TFF IS -59M59S IF IT WAS
000936:                                                                                                  #            NOT COMPUTABLE, OTHERWISE IT INCREMENTS ONCE PER SECOND.
000937:                                                                                                  #            ASTRONAUT HAS OPTION TO MONITOR TPER BY KEYING IN N 32 E.
000938:                                                                                                  #            DISPLAY IS IN HMS, IS NEGATIVE (AS WAS TFF), AND INCREMENTS
000939:                                                                                                  #            ONCE PER SECOND ONLY IF TFF DISPLAY WAS -59M59S.
000940:
000941:                                                                                                  #  2. IF AVERAGE G IS ON:
000942:                                                                                                  #           CALLS SR30.1 APPROX EVERY TWO SECS.  STATE VECTOR IS ALWAYS
000943:                                                                                                  #            FOR THIS VEHICLE. V82 DOES NOT DISTURB STATE VECTOR.  RESULTS
000944:                                                                                                  #            OF SR30.1 ARE RAPO, RPER, HAPO, HPER, TPER, TFF.
000945:                                                                                                  #           FLASH MONITOR V16N44 (HAPO, HPER, TFF).
000946:                                                                                                  #           IF MODE IS P11, THEN CALL DELRSPL SO ASTRONAUT CAN MONITOR
000947:                                                                                                  #            RESULTS BY N50E. SPLASH COMPUTATION DONE ONCE PER TWO SECS.
000948:


000950: 43,2770           02076        V82PERF            TC       TESTXACT
000951:
000952: 43,2771           35021                           CAF      PRIO7                                 #  LESS THAN LAMBERT.  R30,V82
000953: 43,2772           05146                           TC       PRIOCHNG
000954: 43,2773           00006                           EXTEND
000955: 43,2774           32777                           DCA      V82CON
000956: 43,2775           05176                           TC       SUPDXCHZ                              #  V82CALL IN DIFF SUPERBANK FROM V82PERF
000957:
000958: 43,2776  E4,1716                                  EBANK=   HAPO
000959: 43,2776           03242 44104  V82CON             2CADR    V82CALL
000960:
000961:                                                                                                  #           VB83PERF     VERB 83            DESCRIPTION
000962:                                                                                                  #               REQUEST RENDEZVOUS PARAMETER DISPLAY (R31)
000963:                                                                                                  #               1. SET EXT VERB DISPLAY BUSY FLAG.
000964:                                                                                                  #               2. SCHEDULE R31CALL WITH PRIORITY 5.
000965:                                                                                                  #                  A. DISPLAY
000966:                                                                                                  #                      R1  RANGE
000967:                                                                                                  #                      R2  RANGE RATE
000968:                                                                                                  #                      R3  THETA
000969:
000970: 43,3000           02076        V83PERF            TC       TESTXACT
000971:
000972: 43,3001           34752                           CAF      BIT2
000973: 43,3002           05214                           TC       WAITLIST
000974: 43,3003  E7,1611                                  EBANK=   TSTRT
000975: 43,3003           03746 60107                     2CADR    R31CALL
000976:
000977: 43,3005           05155                           TC       ENDOFJOB
000978:
000979:                                                                                                  #  VERB 89 DESCRIPTION     RENDEZVOUS FINAL ATTITUDE ROUTINE (R63)
000980:
000981:                                                                                                  #  CALLED BY VERB 89 ENTER DURING P00. PRIO 10 USED.  CALCULATES AND
000982:                                                                                                  #  DISPLAYS FINAL FDAI BALL ANGLES TO POINT LM +X OR +Z AXIS AT CSM.
000983:
000984:                                                                                                  #  1. KEY IN V 89 E ONLY IF IN PROG 00. IF NOT IN P00, OPERATOR ERROR AND
000985:                                                                                                  #  EXIT R63, OTHERWISE CONTINUE.
000986:
000987:                                                                                                  #  2. IF IN P00, DO IMU STATUS CHECK ROUTINE (R02BOTH). IF IMU ON AND ITS
000988:                                                                                                  #  ORIENTATION KNOWN TO LGC, CONTINUE.
000989:
000990:                                                                                                  #  3. FLASH DISPLAY V 04 N 06.  R2 INDICATES WHICH SPACECRAFT AXIS IS TO
000991:                                                                                                  #  BE POINTED AT CSM.  INITIAL CHOICE IS PREFERRED (+Z) AXIS (R2=1).
000992:                                                                                                  #  ASTRONAUT CAN CHANGE TO (+X) AXIS (R2 NOT = 1) BY V 22 E 2 E.  CONTINUE
000993:                                                                                                  #  AFTER KEYING IN PROCEED.
000994:
000995:                                                                                                  #  4. BOTH VEHICLE STATE VECTORS UPDATED BY CONIC EQS.
000996:
000997:                                                                                                  #  5. HALF MAGNITUDE UNIT LOS VECTOR (IN STABLE MEMBER COORDINATES) AND


000999:                                                                                                  #  HALF MAGNITUDE UNIT SPACECRAFT AXIS VECTOR (IN BODY COORDINATES)
001000:                                                                                                  #  PREPARED FOR VECPOINT.
001001:
001002:                                                                                                  #  6. GIMBAL ANGLES FROM VECPOINT TRANSFORMED INTO FDAI BALL ANGLES BY
001003:                                                                                                  #  BALLANGS. FLASH DISPLAY V 06 N 18 AND AWAIT RESPONSE.
001004:
001005:                                                                                                  #  7. RECYCLE - RETURN TO STEP 4.
001006:                                                                                                  #     TERMINATE - EXIT R63.
001007:                                                                                                  #     PROCEED - RESET 3AXISFLG AND CALL R60LEM FOR ATTITUDE MANEUVER.
001008:
001009:
001010: 43,3006           02121        V89PERF            TC       CHKPOOH
001011: 43,3007           02076                           TC       TESTXACT
001012: 43,3010           34737                           CAF      PRIO10
001013: 43,3011           05105                           TC       FINDVAC
001014: 43,3012  E4,1606                                  EBANK=   RONE
001015: 43,3012           02024 54104                     2CADR    V89CALL
001016:
001017: 43,3014           05155                           TC       ENDOFJOB
001018:
001019:                                                                                                  #           V90PERF     VERB 90             DESCRIPTION
001020:                                                                                                  #               REQUEST RENDEZVOUS OUT-OF-PLANE DISPLAY (R36)
001021:                                                                                                  #               1. SET EXT VERB DISPLAY BUSY FLAG.
001022:                                                                                                  #               2. SCHEDULE R36 CALL WITH PRIORITY 10
001023:                                                                                                  #                  A. DISPLAY
001024:                                                                                                  #                      TIME OF EVENT - HOURS , MINUTES , SECONDS
001025:                                                                                                  #                      Y  OUT-OF-PLANE POSITION - NAUTICAL MILES
001026:                                                                                                  #                      YDOT  OUT-OF-PLANE VELOCITY - FEET/SECOND
001027:                                                                                                  #                      PSI  ANGLE BTW LINE OF SIGHT AND FORWARD
001028:                                                                                                  #                           DIRECTION VECTOR IN HORIZONTAL PLANE - DEGREES
001029:
001030: 43,3015           40103        V90PERF            CS       FLAGWRD7
001031: 43,3016           74746                           MASK     V37FLBIT
001032: 43,3017           00006                           EXTEND
001033: 43,3020           12116                           BZF      ALM/END                               #  AVERAGE G ON: ILL EAGLE
001034: 43,3021           02076                           TC       TESTXACT
001035: 43,3022           35021                           CAF      PRIO7                                 #  R36,V90
001036: 43,3023           05105                           TC       FINDVAC
001037: 43,3024  E7,1441                                  EBANK=   TIG
001038: 43,3024           02650 10107                     2CADR    R36
001039:
001040: 43,3026           15155                           TCF      ENDOFJOB
001041:                                                                                                  #           MINIMP     VERB 76              DESCRIPTION
001042:                                                                                                  #               MINIMUM IMPULSE MODE
001043:                                                                                                  #               1. SET MINIMUM IMPULSE RHC MODE FLAG TO 1.
001044:
001045: 43,3027           05515        MINIMP             TC       UPFLAG                                #  SET PULSES = 1 (MIN. IMPULSE MODE)
001046: 43,3030           00303                           ADRES    PULSEFLG
001047: 43,3031           12117                           TCF      GOPIN                                 #  RETURN VIA PINBRNCH
001048:


001050:                                                                                                  #           NOMINIMP     VERB 77            DESCRIPTION
001051:                                                                                                  #               RATE COMMAND MODE
001052:                                                                                                  #               1. SET MINIMUM IMPULSE RHC MODE FLAG TO 0. (ZERO INDICATES NOT MINIMUM IMPULSE MODE.).
001053:                                                                                                  #               2. MOVE CDUX,CDUY,CDUZ INTO CDUXD,CDUYD,CDUZD.
001054:
001055: 43,3032           05527        NOMINIMP           TC       DOWNFLAG                              #  SET PULSES = 0 (NOT MINIMUM IMPULSE MODE
001056: 43,3033           00303                           ADRES    PULSEFLG
001057: 43,3034           00004                           INHINT
001058: 43,3035           04674                           TC       IBNKCALL
001059: 43,3036           40154                           CADR     ZATTEROR
001060: 43,3037           02117                           TC       GOPIN
001061:


001063:                                                                                                  #           CREWMANU     VERB 49            DESCRIPTION
001064:                                                                                                  #               START AUTOMATIC ATTITUDE MANEUVER
001065:                                                                                                  #               1. REQUIRE PROGRAM 00 ACTIVE.
001066:                                                                                                  #               2. SET EXT VERB DISPLAY BUSY FLAG.
001067:                                                                                                  #               3. SCHEDULE R62DISP WITH PRIORITY 10.
001068:                                                                                                  #               4. RELEASE EXT VERB DISPLAY.
001069:
001070:                                                                                                  #             R62DISP
001071:                                                                                                  #               1. DISPLAY FLASHING V06,N22.
001072:                                                                                                  #                  RESPONSES
001073:                                                                                                  #                  A. TERMINATE
001074:                                                                                                  #                     1. GO TO GOTOPOOH.
001075:                                                                                                  #                  B. PROCEED
001076:                                                                                                  #                     1. SET 3AXISFLG TO INDICATE MANEUVER IS SPECIFIED BY 3 AXIS.
001077:                                                                                                  #                     2. EXECUTE R60LEM (ATTITUDE MANEUVER).
001078:                                                                                                  #                  C. ENTER
001079:                                                                                                  #                     1. REPEAT FLASHING V06,N22.
001080:
001081: 43,3040           02121        CREWMANU           TC       CHKPOOH                               #  DEMAND POO
001082:
001083: 43,3041           02076                           TC       TESTXACT
001084:
001085: 43,3042           34737                           CAF      PRIO10
001086: 43,3043           05105                           TC       FINDVAC
001087: 43,3044  E6,1675                                  EBANK=   BCDU
001088: 43,3044           02103 46106                     2CADR    R62DISP
001089:
001090: 43,3046           05155                           TC       ENDOFJOB
001091:


001093:                                                                                                  #  TRMTRACK     VERB 56                     DESCRIPTION
001094:                                                                                                  #               TERMINATE TRACKING (P20 AND P25).
001095:                                                                                                  #               1. KNOCK DOWN RENDEZVOUS, TRACK, AND UPDATE FLAGS.
001096:                                                                                                  #               2. REQUIRE P20 OR  P25 NOT RUNNING ALONE OR GO TO GOTOPOOH (REQUEST PROGRAM 00).
001097:                                                                                                  #               3. SCHEDULE V56TOVAC WITH PRIORITY 30.
001098:
001099:                                                                                                  #               V56TOVAC
001100:                                                                                                  #               1. EXECUTE INTSTALL (IF INTEGRATION IS RUNNING, STALL UNTIL IT IS FINISHED.).
001101:                                                                                                  #               2. ZERO GROUP 2 TO HALT P20.
001102:                                                                                                  #               3. TRANSFER CONTROL TO GOPROG2 (SOFTWARE RESTART).
001103:
001104: 43,3047           33067        TRMTRACK           CA       BITS9+7                               #  IS REND OR P25 FLAG ON
001105: 43,3050           70074                           MASK     FLAGWRD0
001106: 43,3051           00006                           EXTEND
001107: 43,3052           12117                           BZF      GOPIN                                 #  NO
001108:
001109: 43,3053           05527                           TC       DOWNFLAG
001110: 43,3054           00010                           ADRES    RNDVZFLG
001111:
001112: 43,3055           05527                           TC       DOWNFLAG
001113: 43,3056           00006                           ADRES    P25FLAG
001114:
001115: 43,3057           05527                           TC       DOWNFLAG                              #  ENSURE SEARCH FLAG IS OFF
001116: 43,3060           00037                           ADRES    SRCHOPTN
001117:
001118: 43,3061           34747                           CA       TRACKBIT                              #  IS TRACK FLAG ON?
001119: 43,3062           70075                           MASK     FLAGWRD1
001120: 43,3063           00006                           EXTEND
001121: 43,3064           12117                           BZF      GOPIN
001122:
001123: 43,3065           04635                           TC       POSTJUMP
001124: 43,3066           64054                           CADR     TRMTRAK1
001125:
001126: 43,3067           00500        BITS9+7            OCT      500
001127:
001128: 42,2000                                           SETLOC   SBAND                                 #  BANK 42
001129: 42,2000                                           BANK
001130:
001131: 42,2054                                           COUNT*   $$/EXTVB
001132:
001133: 42,2054           05527        TRMTRAK1           TC       DOWNFLAG
001134: 42,2055           00027                           ADRES    UPDATFLG                              #  UPDATE FLAG DOWN
001135: 42,2056           05527                           TC       DOWNFLAG
001136: 42,2057           00031                           ADRES    TRACKFLG                              #  TRACK FLAG DOWN
001137: 42,2060           05527                           TC       DOWNFLAG
001138: 42,2061           00007                           ADRES    IMUSE
001139:
001140: 42,2062           06042                           TC       INTPRET
001141: 42,2063           77624                           CALL
001142: 42,2064           27410                                    INTSTALL                              #  DONT INTERRUPT INTEGRATION
001143: 42,2065           77776                           EXIT
001144:
001145: 42,2066           05364                           TC       PHASCHNG


001147: 42,2067           00002                           OCT      2                                     #  KILL GROUP 2 TO HALT P20 ACTIVITY
001148:
001149: 42,2070           00004                           INHINT
001150: 42,2071           04674                           TC       IBNKCALL                              #  ZERO THE COMMANDED RATES TO STOP
001151: 42,2072           40166                           CADR     STOPRATE                              #  MANEUVER
001152:
001153: 42,2073           04674                           TC       IBNKCALL
001154: 42,2074           40115                           CADR     RESTORDB
001155:
001156: 42,2075           06011                           TC       CLRADMOD                              #  CLEAR BITS 10 + 15 OF RADMODES.
001157:
001158: 42,2076           44736                           CS       BIT14                                 #  DISABLE LOCKON
001159: 42,2077           00006                           EXTEND
001160: 42,2100           03012                           WAND     CHAN12
001161: 42,2101           04635                           TC       POSTJUMP
001162: 42,2102           13000                           CADR     GOPROG2                               #  CAUSE RESTART.
001163:
001164:                                                                                                  #           DNEDUMP     VERB 74             DESCRIPTION
001165:                                                                                                  #               INITIALIZE DOWN-TELEMETRY PROGRAM FOR ERASABLE MEMORY DUMP.
001166:                                                                                                  #               1. SET EXT VERB DISPLAY BUSY FLAG.
001167:                                                                                                  #               2. REPLACE CURRENT DOWNLIST WITH ERASABLE MEMORY.
001168:                                                                                                  #               3. RELEASE EXT VERB DISPLAY.
001169:
001170: 43,2000                                           SETLOC   EXTVERBS
001171: 43,2000                                           BANK
001172:
001173: 43,3070                                           COUNT*   $$/EXTVB
001174:
001175: 43,3070     0400                                  EBANK=   400
001176: 43,3070           33073        DNEDUMP            CAF      LDNDUMPI
001177: 43,3071           54335                           TS       DNTMGOTO
001178: 43,3072           02117                           TC       GOPIN
001179:
001180: 43,3073  43,3070               V74                EQUALS   DNEDUMP
001181: 43,3073           03724        LDNDUMPI           REMADR   DNDUMPI
001182:
001183:                                                                                                  #           LEMVEC     VERB 80              DESCRIPTION
001184:                                                                                                  #               UPDATE LEM STATE VECTOR
001185:                                                                                                  #                  RESET VEHUPFLG TO 0
001186:
001187: 43,3074           05527        LEMVEC             TC       DOWNFLAG
001188: 43,3075           00026                           ADRES    VEHUPFLG                              #  VB 80 - VEHUPFLG DOWN INDICATES LEM
001189:
001190: 43,3076           03101                           TC       NOUPDOWN
001191:                                                                                                  #           CSMVEC     VERB 81              DESCRIPTION
001192:                                                                                                  #               UPDATE CSM STATE VECTOR
001193:                                                                                                  #                  SET   VEHUPFLG TO 1
001194:
001195: 43,3077           05515        CSMVEC             TC       UPFLAG


001197: 43,3100           00026                           ADRES    VEHUPFLG                              #  VB 81 - VEHUPFLG UP INDICATES CSM
001198:
001199: 43,3101           05527        NOUPDOWN           TC       DOWNFLAG
001200: 43,3102           00030                           ADRES    NOUPFLAG
001201:
001202: 43,3103           12117                           TCF      GOPIN
001203:
001204:                                                                                                  #           UPDATOFF   VERB 95      DESCRIPTION
001205:                                                                                                  #               INHIBIT STATE VECTOR UPDATES BY INCORP
001206:                                                                                                  #                  SET NOUPFLAG TO 1
001207:
001208: 43,3104           05515        UPDATOFF           TC       UPFLAG                                #  VB 95 SET NOUPFLAG
001209: 43,3105           00030                           ADRES    NOUPFLAG
001210:
001211: 43,3106           02117                           TC       GOPIN
001212:


001214:                                                                                                  #           SYSTEST     VERB 92             DESCRIPTION
001215:                                                                                                  #             OPERATE IMU PERFORMANCE TEST.
001216:                                                                                                  #               1. REQUIRE PROGRAM 00 OR TURN ON OPERATOR ERROR.
001217:                                                                                                  #               2. SET EXT VERB BUSY FLAG.
001218: 43,3107  E5,1417                                  EBANK=   QPLACE
001219:
001220: 43,3107           02121        SYSTEST            TC       CHKPOOH                               #  DEMAND POO
001221:
001222: 43,3110           40077                           CS       FLAGWRD3                              #  DO NOT ALLOW P07 IN FLIGHT
001223: 43,3111           74741                           MASK     NOP07BIT                              #  IF FLAG IS SET, TURN ON OE LITE AND EXIT
001224: 43,3112           00006                           EXTEND
001225: 43,3113           12116                           BZF      ALM/END
001226: 43,3114           02076                           TC       TESTXACT
001227:
001228: 43,3115           37713                           CAF      PRIO22
001229: 43,3116           05105                           TC       FINDVAC
001230: 43,3117  E5,1417                                  EBANK=   QPLACE
001231: 43,3117  37,2000                                  SBANK=   IMUSUPER
001232: 43,3117           02002 76065                     2CADR    REDO
001233:
001234: 43,3121           05155                           TC       ENDOFJOB
001235:
001236:                                                                                                  #  VERB 93         CLEAR RENDWFLG, CAUSES W-MATRIX TO BE RE-INITIALIZED.
001237:
001238: 43,3122           00004        WMATRXNG           INHINT
001239: 43,3123           44753                           CS       RENDWBIT
001240: 43,3124           70101                           MASK     FLAGWRD5
001241: 43,3125           54101                           TS       FLAGWRD5
001242:
001243: 43,3126           02117                           TC       GOPIN
001244:
001245: 43,3127  43,3127               GOSHOSUM           EQUALS   SHOWSUM
001246:
001247: 43,3127           02121        SHOWSUM            TC       CHKPOOH                               #  *
001248: 43,3130           02076                           TC       TESTXACT                              #  *
001249: 43,3131           35021                           CAF      PRIO7                                 #  ALLOW OTHER CHARINS.
001250: 43,3132           05146                           TC       PRIOCHNG
001251: 43,3133           34753                           CAF      S+1                                   #  *
001252: 43,3134           55376                           TS       SKEEP6                                #  * SHOWSUM OPTION
001253: 43,3135           34755                           CAF      S+ZERO                                #  *
001254: 43,3136           55362                           TS       SMODE                                 #  * TURN OFF SELF-CHECK
001255: 43,3137           33300                           CA       SELFADRS                              #  *
001256: 43,3140           55361                           TS       SELFRET                               #  *
001257: 43,3141           03555                           TC       STSHOSUM                              #  * ENTER ROPECHK
001258:
001259: 43,3142           23372        SDISPLAY           LXCH     SKEEP2                                #  * BANK # FOR DISPLAY
001260: 43,3143           23373                           LXCH     SKEEP3                                #  * BUGGER WORD FOR DISPLAY
001261: 43,3144           33277        NOKILL             CA       ADRS1                                 #  *
001262: 43,3145           54156                           TS       MPAC       +2                         #  *
001263: 43,3146           33157                           CA       VNCON                                 #  * 0501


001265: 43,3147           04616                           TC       BANKCALL                              #  *
001266: 43,3150           20334                           CADR     GOXDSPF                               #  *
001267: 43,3151           03154                           TC       +3                                    #  *
001268: 43,3152           03666                           TC       NXTBNK                                #  *
001269: 43,3153           03144                           TC       NOKILL                                #  *
001270: 43,3154           33300                           CA       SELFADRS
001271: 43,3155           55371                           TS       SKEEP1
001272:
001273: 43,3156           05503                           TC       ENDEXT                                #  *
001274:
001275: 43,3157           01201        VNCON              VN       501                                   #  *
001276:
001277: 43,3160           31376        ENDSUMS            CA       SKEEP6                                #  *
001278: 43,3161           00006                           EXTEND                                         #  *
001279: 43,3162           13371                           BZF      SELFCHK                               #  * ROPECHK, START SELFCHK AGAIN.
001280: 43,3163           03555                           TC       STSHOSUM                              #  * START SHOWSUM AGAIN.
001281:


001283:                                                                                                  #           DAPDISP     VERB 48             DESCRIPTION
001284:                                                                                                  #               LOAD AUTO PILOT  DATA
001285:                                                                                                  #               1. REQUIRE EXT VERB DISPLAY AVAILABLE AND SET BUSY FLAG.
001286:                                                                                                  #               2. EXECUTE DAPDATA1, DAPDATA2, AND DAPDATA3.
001287:                                                                                                  #               3. RELEASE EXT VERB DISPLAY SYSTEM.
001288:                                                                                                  #  KEY
001289:                                                                                                  #  THE FOLLOWING IS A KEY TO THE 5 DIGITS OF THE DAP DATA CODE (N46)
001290:
001291:                                                                                                  #  DIGIT A - VEHICLE CONFIGURATION
001292:                                                                                                  #           1 - LM ALONE, ASCENT
001293:                                                                                                  #           2 - LM ALONE, DESCENT
001294:                                                                                                  #           3 - CSM AND LM DOCKED
001295:
001296:                                                                                                  #  DIGIT B - ACCELERATION CODE
001297:                                                                                                  #           0 - 2 JET TRANSLATION, RCS SYSTEM A PREFERRED
001298:                                                                                                  #           1 - 2 JET TRANSLATION, RCS SYSTEM B PREFERRED
001299:                                                                                                  #           2 - 4 JET TRANSLATION, RCS SYSTEM A PREFERRED (NOT MEANINGFUL)
001300:                                                                                                  #           3 - 4 JET TRANSLATION, RCS SYSTEM B PREFERRED (NOT MEANINGFUL)
001301:
001302:                                                                                                  #  DIGIT C - ACA SCALING
001303:                                                                                                  #           0 - FINE
001304:                                                                                                  #           1 - NORMAL
001305:
001306:                                                                                                  #  DIGIT D - DEADBAND
001307:                                                                                                  #           0 - 0.3 DEG
001308:                                                                                                  #           1 - 1.0 DEG
001309:                                                                                                  #           2 - 5.0 DEG
001310:                                                                                                  #          (3 - 5.0 DEG BY DEFAULT)
001311:
001312:                                                                                                  #  DIGIT E - MANEUVER RATE
001313:                                                                                                  #           0 - 0.2 DEG/SEC
001314:                                                                                                  #           1 - 0.5 DEG/SEC
001315:                                                                                                  #           2 - 2.0 DEG/SEC
001316:                                                                                                  #           3 -10.0 DEG/SEC
001317:
001318: 43,3164           02076        DAPDISP            TC       TESTXACT
001319: 43,3165           35021                           CAF      PRIO7                                 #  R03
001320: 43,3166           05146                           TC       PRIOCHNG
001321: 43,3167           04635                           TC       POSTJUMP
001322: 43,3170           40004                           CADR     DAPDATA1
001323: 34,2000                                           BANK     34
001324: 20,2000                                           SETLOC   LOADDAP
001325: 20,2000                                           BANK
001326:
001327: 20,2004                                           COUNT*   $$/R03
001328:
001329: 20,2004  30,2000                                  SBANK=   LOWSUPER                              #  FOR SUBSEQUENT LOW 2CADR'S.
001330:
001331: 20,2004           32114        DAPDATA1           CAF      BOOLSMSK                              #  SET DISPLAY ACCORDING TO DAPBOOLS BITS.
001332: 20,2005           70111                           MASK     DAPBOOLS                              #  LM


001334: 20,2006           55340                           TS       DAPDATR1                              #  LM
001335: 20,2007           40106                           CS       FLGWRD10                              #  SET BIT 14 TO BE COMPLEMENT OF APSFLAG.
001336: 20,2010           74737                           MASK     APSFLBIT
001337: 20,2011           10000                           CCS      A
001338: 20,2012           34736                           CAF      BIT14
001339: 20,2013           27340                           ADS      DAPDATR1
001340: 20,2014           31340        CHKDATA1           CAE      DAPDATR1                              #  IF BITS 13 AND 14 ARE BOTH ZERO, FORCE
001341: 20,2015           74355                           MASK     BIT13-14                              #    A ONE INTO BIT 13.
001342: 20,2016           00006                           EXTEND
001343: 20,2017           12034                           BZF      FORCEONE
001344: 20,2020           31340                           CAE      DAPDATR1                              #  ENSURE THAT NO ILLEGAL BITS SET BY CREW.
001345: 20,2021           72113        MSKDATR1           MASK     DSPLYMSK
001346: 20,2022           55340                           TS       DAPDATR1
001347: 20,2023           32112                           CAF      V01N46                                #  LM
001348: 20,2024           04616                           TC       BANKCALL
001349: 20,2025           20353                           CADR     GOXDSPFR
001350: 20,2026           15503                           TCF      ENDEXT                                #  V34E  TERMINATE
001351: 20,2027           12037                           TCF      DPDAT1                                #  V33E  PROCEED
001352: 20,2030           12014                           TCF      CHKDATA1                              #  E     NEW DATA    CHECK AND REDISPLAY
001353: 20,2031           36245                           CAF      REVCNT                                #  BITS 2 & 3:  BLANKS R2 & R3.
001354: 20,2032           05475                           TC       BLANKET
001355: 20,2033           15155                           TCF      ENDOFJOB
001356: 20,2034           34737        FORCEONE           CAF      BIT13
001357: 20,2035           27340                           ADS      DAPDATR1
001358: 20,2036           12021                           TCF      MSKDATR1
001359:
001360: 20,2037           00004        DPDAT1             INHINT                                         #  INHINT FOR SETTING OF FLAG BITS AND MASS
001361: 20,2040           44737                           CS       APSFLBIT                              #    ON BASIS OF DISPLAYED DAPDATR1.
001362: 20,2041           70106                           MASK     FLGWRD10
001363: 20,2042           54001                           TS       L                                     #  SET APSFLAG TO BE COMPLEMENT OF BIT 14.
001364: 20,2043           41340                           CS       DAPDATR1
001365: 20,2044           74736                           MASK     BIT14
001366: 20,2045           10000                           CCS      A
001367: 20,2046           34737                           CAF      APSFLBIT
001368: 20,2047           60001                           AD       L
001369: 20,2050           54106                           TS       FLGWRD10
001370: 20,2051           41340                           CS       DAPDATR1                              #  SET BITS OF DAPBOOLS ON BASIS OF DISPLAY
001371: 20,2052           74355                           MASK     BIT13-14                              #    MASK OUT CSMDOCKD (BIT 13) UNLESS BOTH
001372: 20,2053           10000                           CCS      A                                     #    13 AND 14 ARE SET.
001373: 20,2054           44737                           CS       CSMDOCKD
001374: 20,2055           62114                           AD       BOOLSMSK
001375: 20,2056           71340                           MASK     DAPDATR1
001376: 20,2057           54001                           TS       L
001377: 20,2060           42114                           CS       BOOLSMSK
001378: 20,2061           70111                           MASK     DAPBOOLS
001379: 20,2062           60001                           AD       L
001380: 20,2063           54111                           TS       DAPBOOLS
001381: 20,2064           74737                           MASK     CSMDOCKD                              #  LOAD MASS IN ACCORDANCE WITH CSMDOCKD.
001382: 20,2065           10000                           CCS      A                                     #    MASS IS USUALLY ALREADY OKAY, SO DO
001383: 20,2066           31327                           CAE      CSMMASS                               #    NOT TOUCH ITS LOW-ORDER PART.


001385: 20,2067           61326                           AD       LEMMASS
001386: 20,2070           55243                           TS       MASS
001387: 20,2071           30111                           CAE      DAPBOOLS
001388: 20,2072           74741                           MASK     ACC4OR2X                              #  2 OR 4 JET X-TRANSLATION
001389: 20,2073           00006                           EXTEND                                         #  (BIT ACC4OR2X = 1 FOR 4 JETS)
001390: 20,2074           12101                           BZF      +5
001391: 20,2075           44735                           CS       BIT15
001392: 20,2076           70075                           MASK     FLAGWRD1                              #  CLEAR NJTSFLAG TO 0 FOR 4 JETS
001393: 20,2077           54075                           TS       FLAGWRD1
001394: 20,2100           12104                           TCF      +4
001395: 20,2101           40075                           CS       FLAGWRD1                              #  SET NJTSFLAG TO 1 FOR 2 JETS
001396: 20,2102           74735                           MASK     BIT15
001397: 20,2103           26075                           ADS      FLAGWRD1
001398: 20,2104           30111                           CA       DAPBOOLS                              #  SELECT DESIRED KALCMANU AUTOMATIC
001399: 20,2105           76250                           MASK     THREE                                 #  MANEUVER RATE
001400: 20,2106           60000                           DOUBLE                                         #  RATEINDX HAS TO BE 0,2,4,6 SINCE RATES
001401: 20,2107           55322                           TS       RATEINDX                              #  ARE DP
001402: 20,2110           04635                           TC       POSTJUMP
001403: 20,2111           02214                           CADR     STIKLOAD
001404:
001405: 20,2112           00256        V01N46             VN       0146
001406: 20,2113           33133        DSPLYMSK           OCT      33133
001407: 20,2114           13133        BOOLSMSK           OCT      13133
001408: 01,2214                                           BANK     01
001409: 01,2000                                           SETLOC   LOADDAP1
001410: 01,2000                                           BANK
001411:
001412: 01,2214                                           COUNT*   $$/R03
001413:
001414: 01,2214           35015        STIKLOAD           CAF      EBANK6
001415: 01,2215           54003                           TS       EBANK
001416: 01,2216  E6,1444                                  EBANK=   STIKSENS
001417: 01,2216           34745                           CA       RHCSCALE                              #  SET STICK SENSITIVITY TO CORRESPOND TO A
001418: 01,2217           70111                           MASK     DAPBOOLS                              #  MAXIMUM COMMANDED RATE (AT 42 COUNTS) OF
001419: 01,2220           10000                           CCS      A                                     #  20 D/S(NORMAL) OR 4 D/S(FINE), SCALED
001420: 01,2221           32343                           CA       NORMAL                                #  AT 45 D/S.
001421: 01,2222           62344                           AD       FINE
001422: 01,2223           55444                           TS       STIKSENS
001423: 01,2224           32346                           CA       -0.6D/S
001424: 01,2225           55476                           TS       -RATEDB                               #  LM-ONLY BREAKOUT LEVEL IS .6 D/S.
001425: 01,2226           34737                           CA       CSMDOCKD                              #  IF CSM-DOCKED, DIVIDE STICK SENSITIVITY
001426: 01,2227           70111                           MASK     DAPBOOLS                              #  BY 10. NORMAL SCALING IS THEN 2 D/S AND
001427: 01,2230           00006                           EXTEND                                         #  FINE SCALING IS 0.4 D/S
001428: 01,2231           12240                           BZF      +7                                    #  BRANCH IF CSM IS NOT DOCKED.
001429: 01,2232           31444                           CA       STIKSENS
001430: 01,2233           00006                           EXTEND
001431: 01,2234           72345                           MP       1/10
001432: 01,2235           55444                           TS       STIKSENS
001433: 01,2236           32347                           CA       -0.3D/S                               #  CSM-DOCKED BREAKOUT LEVEL IS .3 D/S.
001434: 01,2237           55476                           TS       -RATEDB


001436: 01,2240           00003                           RELINT                                         #  PROCEED TO NOUN 47, MASS LOAD,
001437:
001438: 01,2241           32341        DAPDATA2           CAF      V0647
001439: 01,2242           04616                           TC       BANKCALL
001440: 01,2243           20353                           CADR     GOXDSPFR
001441: 01,2244           12252                           TCF      ENDR03                                #  V34E  TERMINATE. FIRST SET DB, DO 1/ACCS
001442: 01,2245           12256                           TCF      DAPDAT2                               #  V33E  PROCEED
001443: 01,2246           12241                           TCF      DAPDATA2                              #        LOAD NEW DATA AND RECYCLE
001444: 01,2247           34751                           CAF      BIT3                                  #  BLANKS R3
001445: 01,2250           05475                           TC       BLANKET                               #             LM
001446: 01,2251           15155                           TCF      ENDOFJOB
001447: 01,2252           00004        ENDR03             INHINT
001448: 01,2253           04674                           TC       IBNKCALL
001449: 01,2254           40115                           CADR     RESTORDB
001450: 01,2255           15503                           TCF      ENDEXT                                #  DOES RELINT
001451:
001452: 01,2256           40106        DAPDAT2            CS       FLGWRD10                              #  DETERMINE STAGE FROM APSFLAG
001453: 01,2257           74737                           MASK     APSFLBIT
001454: 01,2260           10000                           CCS      A
001455: 01,2261           32000                           CA       MINLMD
001456: 01,2262           62001                           AD       MINMINLM
001457: 01,2263           61326                           AD       LEMMASS                               #  LEMMASS MUST BE GREATER THAN EMPTY LEM
001458: 01,2264           00006                           EXTEND
001459: 01,2265           62241                           BZMF     DAPDATA2                              #  ASK FOR NEW MASSES
001460: 01,2266           30111                           CAE      DAPBOOLS
001461: 01,2267           74737                           MASK     CSMDOCKD
001462: 01,2270           00006                           EXTEND
001463: 01,2271           12277                           BZF      LEMALONE                              #  SKIP TEST ON CSMMASS IF NOT DOCKED.
001464: 01,2272           44741                           CS       MINCSM                                #  TEST CSM MASS
001465: 01,2273           61327                           AD       CSMMASS                               #  CSMMASS MUST BE GREATER THAN EMPTY CSM
001466: 01,2274           00006                           EXTEND
001467: 01,2275           62241                           BZMF     DAPDATA2                              #  ASK FOR NEW MASSES
001468: 01,2276           31327                           CAE      CSMMASS                               #  DOCKED:  MASS = CSMMASS + LEMMASS
001469: 01,2277           61326        LEMALONE           AD       LEMMASS                               #  LEM ALONE:  MASS = LEMMASS
001470: 01,2300           22007                           ZL
001471: 01,2301           53244                           DXCH     MASS
001472: 01,2302           00004                           INHINT
001473: 01,2303           04674                           TC       IBNKCALL                              #  SET DEADBANK AND COMPUTE MOMENTS OF
001474: 01,2304           40115                           CADR     RESTORDB                              #    INERTIA.
001475: 01,2305           00003                           RELINT                                         #  PROCEED TO NOUN 48 (OR END).
001476:
001477: 01,2306           40106        DAPDATA3           CS       FLGWRD10
001478: 01,2307           74737                           MASK     APSFLBIT
001479: 01,2310           00006                           EXTEND                                         #  END ROUTINE IF LEM HAS STAGED,
001480: 01,2311           15503                           BZF      ENDEXT
001481: 01,2312           32342                           CAF      V06N48                                #  DISPLAY TRIM ANGLES AND REQUEST RESPONSE
001482: 01,2313           04616                           TC       BANKCALL
001483: 01,2314           20353                           CADR     GOXDSPFR
001484: 01,2315           05503                           TC       ENDEXT
001485: 01,2316           12323                           TCF      DPDAT3                                #  V33E GO DO TRIM (WAITLIST TO TRIMGIMB)
001486:


001488: 01,2317           12312                           TCF      -5                                    #       LOAD NEW DATA AND RECYCLE
001489: 01,2320           34751                           CAF      BIT3
001490: 01,2321           05475                           TC       BLANKET                               #  BLANK R3
001491: 01,2322           15155                           TCF      ENDOFJOB
001492: 01,2323           34753        DPDAT3             CAF      BIT1
001493: 01,2324           05214                           TC       WAITLIST
001494: 01,2325  E6,1401                                  EBANK=   ROLLTIME
001495: 01,2325           03217 56066                     2CADR    TRIMGIMB
001496:
001497: 01,2327           15155                           TCF      ENDOFJOB                              #  DOES A RELINT
001498: 01,2330           32342        TRIMDONE           CAF      V50N48
001499: 01,2331           04616                           TC       BANKCALL                              #  TRIM IS FINISHED; PLEASE TERMINATE R03
001500: 01,2332           20361                           CADR     GOMARK3R   -1
001501: 01,2333           05503                           TC       ENDEXT                                #  V34E TERMINATE
001502: 01,2334           05503                           TC       ENDEXT
001503: 01,2335           05503                           TC       ENDEXT
001504: 01,2336           36007                           CAF      OCT24                                 #  BIT5 TO CHANGE TO PERFORM, 3 TO BLANK R3
001505: 01,2337           05475                           TC       BLANKET
001506: 01,2340           15155                           TCF      ENDOFJOB
001507:
001508: 01,2341           01457        V0647              VN       0647
001509: 01,2342           01460        V06N48             VN       0648
001510:
001511: 01,2343  01,2342               V50N48             =        V06N48
001512:
001513: 01,2343           25101        NORMAL             DEC      .660214
001514:                                                                                                  #  NORMAL SCALING IS 20 D/S
001515: 01,2344           05220        FINE               DEC      .165054                               #  FINE STICK SCALING (4 D/S).
001516: 01,2345           03146        1/10               DEC      .1                                    #  FACTOR FOR CSM-DOCKED SCALING
001517: 01,2346           77445        -0.6D/S            DEC      -218       B-14
001518: 01,2347           77622        -0.3D/S            DEC      -109       B-14
001519:


001521:                                                                                                  #  VERB 66.  VEHICLES ARE ATTACHED.  MOVE THIS VEHICLE STATE VECTOR TO
001522:                                                                                                  #            OTHER VEHICLE STATE VECTOR.
001523:
001524:                                                                                                  #      USE SUBROUTINE GENTRAN.
001525:
001526: 07,2661                                           BANK     7
001527: 43,2000                                           SETLOC   EXTVERBS
001528: 43,2000                                           BANK
001529:
001530: 43,3171                                           COUNT*   $$/EXTVB
001531:
001532: 43,3171  E3,1626                                  EBANK=   RRECTHIS
001533:
001534: 43,3171           40104        ATTACHED           CS       FLAGWRD8
001535: 43,3172           74744                           MASK     SURFFBIT
001536: 43,3173           00006                           EXTEND
001537: 43,3174           12116                           BZF      ALM/END                               #  TURN ON OE AND EXIT IF SURFFLAG SET.
001538: 43,3175           34737                           CAF      PRIO10
001539: 43,3176           05105                           TC       FINDVAC
001540: 43,3177  E3,1626                                  EBANK=   RRECTHIS
001541:
001542: 43,3177           03202 66103                     2CADR    ATTACHIT
001543:
001544: 43,3201           05155                           TC       ENDOFJOB
001545:
001546: 43,3202           06042        ATTACHIT           TC       INTPRET
001547: 43,3203           77624                           CALL
001548: 43,3204           27410                                    INTSTALL
001549: 43,3205           43014                           SET      BON
001550: 43,3206           04063                                    MOONOTH
001551: 43,3207           04304                                    MOONTHIS
001552: 43,3210           67213                                    +3
001553: 43,3211           77614                           CLEAR
001554: 43,3212           04263                                    MOONOTH
001555: 43,3213           77776                           EXIT
001556: 43,3214           33237                           CAF      OCT51
001557: 43,3215           05555                           TC       GENTRAN
001558: 43,3216           01626                           ADRES    RRECTHIS                              #  OUR STATE VECTOR INTO OTHER VIA GENTRAN
001559: 43,3217           01554                           ADRES    RRECTOTH
001560:
001561: 43,3220           00003                           RELINT
001562: 43,3221           06042                           TC       INTPRET
001563: 43,3222           77624                           CALL                                           #  UPDATE R-OTHER, V-OTHER
001564: 43,3223           26757                                    PTOALEM
001565: 43,3224           45154                           LXA,2    CALL
001566: 43,3225           02030                                    PBODY
001567: 43,3226           26114                                    SVDWN1
001568: 43,3227           77776                           EXIT
001569:
001570: 43,3230           33240                           CAF      TCPINAD


001572: 43,3231           50120                           INDEX    FIXLOC
001573: 43,3232           54052                           TS       QPRET
001574: 43,3233           04635                           TC       POSTJUMP
001575: 43,3234           27421                           CADR     INTWAKE                               #  FREE INTEGRATION AND EXIT.
001576:
001577: 43,3235           77634        TCPIN              RTB
001578: 43,3236           21051                                    PINBRNCH
001579:
001580: 43,3237           00051        OCT51              OCT      51
001581: 43,3240           67235        TCPINAD            CADR     TCPIN
001582:
001583:                                                                                                  #  VERB 96  SET QUITFLAG TO STOP INTEGRATION.
001584:
001585:                                                                                                  #           GO TO V37 WITH ZERO TO CAUSE POO.
001586:                                                                                                  #           STATEINT WILL CHECK QUITFLAG AND SKIP 1ST PASS,
001587:                                                                                                  #                  THUS ALLOWING A 10 MINUTE PERIOD WITHOUT INTEGRATION.
001588:
001589: 43,3241           05515        VERB96             TC       UPFLAG                                #  QUITFLAG WILL CAUSE INTEGRATION TO EXIT
001590: 43,3242           00221                           ADRES    QUITFLAG                              #     AT NEXT TIMESTEP
001591:
001592: 43,3243           34755                           CAF      ZERO
001593: 43,3244           04635                           TC       POSTJUMP
001594: 43,3245           10040                           CADR     V37                                   #  GO TO POO
001595:
001596:
001597:                                                                                                  #  VERB 67 :   DISPLAY OF W MATRIX
001598:
001599: 43,3246           02076        V67                TC       TESTXACT
001600: 43,3247           35017                           CAF      PRIO5
001601: 43,3250           05105                           TC       FINDVAC
001602: 43,3251  E4,1600                                  EBANK=   WWPOS
001603: 43,3251           02007 62064                     2CADR    V67CALL
001604:
001605: 43,3253           05155                           TC       ENDOFJOB
001606:
001607:                                                                                                  #  VERB 65         DISABLE U,V JETS DURING DPS BURNS
001608:
001609: 43,3254           05515        SNUFFOUT           TC       UPFLAG
001610: 43,3255           00115                           ADRES    SNUFFER
001611: 43,3256           02117                           TC       GOPIN
001612:
001613:                                                                                                  #  VERB 75         ENABLE U,V JETS DURING DPS BURNS
001614:
001615: 43,3257           05527        OUTSNUFF           TC       DOWNFLAG
001616: 43,3260           00115                           ADRES    SNUFFER
001617: 43,3261           02117                           TC       GOPIN
001618:                                                                                                  #  VERB 85         DISPLAY RR LOS AZIMUTH AND ELEVATION.
001619:
001620:                                                                                                  #           AZIMUTH IS THE ANGLE BETWEEN THE LOS AND THE X-Z NB PLANE, 0 - 90 DEG IN THE +Y HEMISPHERE,
001621:                                                                                                  #  360 - 270 DEG IN THE -Y HEMISPHERE.
001622:


001624:                                                                                                  #           ELEVATION IS THE ANGLE BETWEEN +ZNB AND THE PROJECTION OF THE LOS INTO THE X-Z PLANE, 0 - 360 ABOUT +Y.
001625:
001626: 43,3262  E4,1600                                  EBANK=   RR-AZ
001627: 43,3262           02076        VERB85             TC       TESTXACT
001628: 43,3263           04635                           TC       POSTJUMP
001629: 43,3264           60000                           CADR     DSPRRLOS
001630:
001631: 40,2000                                           SETLOC   PINBALL1
001632: 40,2000                                           BANK
001633:
001634: 40,2000                                           COUNT*   $$/EXTVB
001635:
001636: 40,2000           35017        DSPRRLOS           CAF      PRIO5
001637: 40,2001           05105                           TC       FINDVAC
001638: 40,2002  E4,1600                                  EBANK=   RR-AZ
001639: 40,2002           02017 60104                     2CADR    RRLOSDSP
001640:
001641: 40,2004           34740                           CAF      PRIO4
001642: 40,2005           05146                           TC       PRIOCHNG
001643: 40,2006           32076                           CAF      V16N56
001644: 40,2007           04616                           TC       BANKCALL
001645: 40,2010           20353                           CADR     GOMARKFR
001646: 40,2011           05574                           TC       B5OFF
001647: 40,2012           05574                           TC       B5OFF
001648: 40,2013           05574                           TC       B5OFF
001649:
001650: 40,2014           34751                           CAF      BIT3
001651: 40,2015           05475                           TC       BLANKET
001652: 40,2016           05155                           TC       ENDOFJOB
001653:
001654:
001655: 40,2017           00006        RRLOSDSP           EXTEND
001656: 40,2020           30036                           DCA      CDUT
001657: 40,2021           52155                           DXCH     MPAC
001658: 40,2022           06042                           TC       INTPRET
001659: 40,2023           77624                           CALL
001660: 40,2024           46065                                    RRNBMPAC                              #  GET RR LOS IN BODY AXIS.
001661: 40,2025           00001                           STORE    0D                                    #  UNIT LOS
001662: 40,2026           14007                           STODL    6D
001663: 40,2027           06470                                    HI6ZEROS
001664: 40,2030           24011                           STOVL    8D
001665: 40,2031           00007                                    6D
001666: 40,2032           77656                           UNIT
001667: 40,2033           00007                           STORE    6D                                    #  UNIT OF LOS PROJ IN X-Z PLANE
001668: 40,2034           77641                           DOT


001670: 40,2035           06462                                    UNITZ
001671: 40,2036           24021                           STOVL    COSTH                                 #  16D
001672: 40,2037           06466                                    UNITX
001673: 40,2040           77641                           DOT
001674: 40,2041           00007                                    6D
001675: 40,2042           34023                           STCALL   SINTH                                 #  18D
001676: 40,2043           47266                                    ARCTRIG
001677: 40,2044           43244                           BPL      DAD                                   #  INSURE DISPLAY OF 0 - 360 DEG.
001678: 40,2045           60047                                    +2
001679: 40,2046           06476                                    DPPOSMAX                              #  INTRODUCES AN ERROR OF B-28 REVS.
001680: 40,2047           26203                           STOVL    RR-ELEV
001681: 40,2050           00001                                    0D
001682: 40,2051           77641                           DOT
001683: 40,2052           06464                                    UNITY
001684: 40,2053           24023                           STOVL    SINTH
001685: 40,2054           00001                                    0D
001686: 40,2055           77641                           DOT
001687: 40,2056           00007                                    6D
001688: 40,2057           34021                           STCALL   COSTH
001689: 40,2060           47266                                    ARCTRIG
001690: 40,2061           43244                           BPL      DAD                                   #  INSURE DISPLAY OF 0 - 360 DEG.
001691: 40,2062           60064                                    +2
001692: 40,2063           06476                                    DPPOSMAX                              #  INTRODUCES AN ERROR OF B-28 REVS.
001693: 40,2064           02201                           STORE    RR-AZ
001694: 40,2065           77776                           EXIT
001695: 40,2066           34777                           CA       1SEC
001696: 40,2067           04616                           TC       BANKCALL
001697: 40,2070           01736                           CADR     DELAYJOB
001698:
001699: 40,2071           34747                           CA       BIT5
001700: 40,2072           71043                           MASK     EXTVBACT
001701: 40,2073           10000                           CCS      A
001702: 40,2074           02017                           TC       RRLOSDSP
001703: 40,2075           05503                           TC       ENDEXT
001704:
001705: 40,2076           04070        V16N56             VN       1656

End of include-file EXTENDED_VERBS.agc.  Parent file is MAIN.agc


