
Source Code


000002:                                                                                                  ## Copyright:   Public domain.
000003:                                                                                                  ## Filename:    FLAGWORD_ASSIGNMENTS.agc
000004:                                                                                                  ## Purpose:     A section of Luminary revision 178.
000005:                                                                                                  ##              It is part of the reconstructed source code for the final
000006:                                                                                                  ##              release of the flight software for the Lunar Module's
000007:                                                                                                  ##              (LM) Apollo Guidance Computer (AGC) for Apollo 14. The
000008:                                                                                                  ##              code has been recreated from copies of Zerlina 56, Luminary
000009:                                                                                                  ##              210, and Luminary 131, as well as many Luminary memos.
000010:                                                                                                  ##              It has been adapted such that the resulting bugger words
000011:                                                                                                  ##              exactly match those specified for Luminary 178 in NASA
000012:                                                                                                  ##              drawing 2021152N, which gives relatively high confidence
000013:                                                                                                  ##              that the reconstruction is correct.
000014:                                                                                                  ## Reference:   pp. 62-89
000015:                                                                                                  ## Assembler:   yaYUL
000016:                                                                                                  ## Contact:     Ron Burkey <info@sandroid.org>.
000017:                                                                                                  ## Website:     www.ibiblio.org/apollo/index.html
000018:                                                                                                  ## Mod history: 2019-08-14 MAS  Created from Zerlina 56.
000019:                                                                                                  ##              2019-08-31 MAS  Removed ALW66FLG, SERVOVER, and LPOS2FLG.
000020:                                                                                                  ##                              Added R12RDFLG and restored comments on
000021:                                                                                                  ##                              R10FLAG to their original state.
000022:


000024:                                                                                                  #          FLAGWORDS 0-11 ARE DOWNLINKED AND CAN BE SET AND CLEARED BY UP-FLAG AND DOWN-FLAG INSTRUCTIONS IN THE
000025:                                                                                                  #                         INTERPRETER. THESE WERE PREVIOUSLY LISTED UNDER "INTERPRETIVE SWITCH BIT ASSIGNMENTS" IN
000026:                                                                                                  #                         THE ERASABLE LOG SECTION. FLAGWORDS 12 & 13 WEREPREVIOUSLY RADMODES AND DAPBOOLS AND
000027:                                                                                                  #                         ARE STILL DOWNLINKED UNDER THOSE NAMES.
000028:
000029:
000030:
000031:
000032:                                                                                                  #          ALPHABETICAL LIST OF FLAGWORDS
000033:
000034:
000035:                                                                                                  #  9             25              41                      61        COLUMN NO.
000036:                                                                                                  #  FLAGWORD      DEC. NUMBER     BIT AND FLAG            BIT NAME
000037:
000038:                                                                                                  #  ABTTGFLG      143             BIT 7 FLAG 9            ABTTGBIT
000039:                                                                                                  #  ACCOKFLG      207             BIT 3  FLAG 13          ACCSOKAY
000040:                                                                                                  #  ACC4-2FL      199             BIT 11 FLAG 13          ACC4OR2X
000041:                                                                                                  #  ACMODFLG      032             BIT 13 FLAG 2           ACMODBIT
000042:                                                                                                  #  ALTSCALE      186             BIT 9  FLAG 12          ALTSCBIT
000043:                                                                                                  #  ANTENFLG      183             BIT 12 FLAG 12          ANTENBIT
000044:                                                                                                  #  AORBSFLG      085             BIT 5 FLAG 5            AORBSYST
000045:                                                                                                  #  AORBTFLG      200             BIT 10 FLAG 13          AORBTRAN
000046:                                                                                                  #  APSESW        130             BIT 5  FLAG 8           APSESBIT
000047:                                                                                                  #  APSFLAG       152             BIT 13 FLAG 10          APSFLBIT
000048:                                                                                                  #  ASTNFLAG      108             BIT 12 FLAG 7           ASTNBIT
000049:                                                                                                  #  ATTFLAG       104             BIT 1  FLAG 6           ATTFLBIT
000050:                                                                                                  #  AUTOMODE      193             BIT 2  FLAG 12          AUTOMBIT
000051:                                                                                                  #  AUTR1FLG      209             BIT 1  FLAG 13          AUTRATE1
000052:                                                                                                  #  AUTR2FLG      208             BIT 2  FLAG 13          AUTRATE2
000053:                                                                                                  #  AUXFLAG       103             BIT 2  FLAG 6           AUXFLBIT
000054:                                                                                                  #  AVEGFLAG      115             BIT 5  FLAG 7           AVEGFBIT
000055:                                                                                                  #  AVEMIDSW      149             BIT 1  FLAG 9           AVEMDBIT
000056:                                                                                                  #  AVFLAG        040             BIT 5  FLAG 2           AVFLBIT
000057:                                                                                                  #  CALCMAN2      043             BIT 2  FLAG 2           CALC2BIT
000058:                                                                                                  #  CALCMAN3      042             BIT 3  FLAG 2           CALC3BIT
000059:                                                                                                  #  CDESFLAG      180             BIT 15 FLAG 12          CDESBIT
000060:                                                                                                  #  CMOONFLG      123             BIT 12 FLAG 8           CMOONBIT
000061:                                                                                                  #  COGAFLAG      131             BIT 4  FLAG 8           COGAFBIT
000062:                                                                                                  #  CSMDKFLG      197             BIT 13 FLAG 13          CSMDOCKD
000063:                                                                                                  #  CULTFLAG      053             BIT 7  FLAG 3           CULTBIT
000064:                                                                                                  #  DAPBOOLS                      FLGWRD13
000065:                                                                                                  #  DBSELFLG      206             BIT 4  FLAG 13          DBSELECT
000066:                                                                                                  #  DBSL2FLG      205             BIT 5 FLAG 13           DBSLECT2
000067:                                                                                                  #  DESIGFLG      185             BIT 10 FLAG 12          DESIGBIT
000068:                                                                                                  #  DIDFLAG       016             BIT 14 FLAG 1           DIDFLBIT
000069:                                                                                                  #  DIMOFLAG      059             BIT 1  FLAG 3           DIMOBIT


000071:                                                                                                  #  DMENFLG       081             BIT 9  FLAG 5           DMENFBIT
000072:                                                                                                  #  DRIFTDFL      202             BIT 8  FLAG 13          DRIFTBIT
000073:                                                                                                  #  DRIFTFLG      030             BIT 15 FLAG 2           DRFTBIT
000074:                                                                                                  #  DSKYFLAG      075             BIT 15 FLAG 5           DSKYFBIT
000075:                                                                                                  #  D6OR9FLG      058             BIT 2  FLAG 3           D6OR9BIT
000076:                                                                                                  #  ENGONFLG      083             BIT 7  FLAG 5           ENGONBIT
000077:                                                                                                  #  ERADFLAG      017             BIT 13 FLAG 1           ERADFBIT
000078:                                                                                                  #  ETPIFLAG      038             BIT 7  FLAG 2           ETPIBIT
000079:                                                                                                  #  FINALFLG      039             BIT 6  FLAG 2           FINALBIT
000080:                                                                                                  #  FLAGWRD0      (000-014)       (STATE +0)
000081:                                                                                                  #  FLAGWRD1      (015-029)       (STATE +1)
000082:                                                                                                  #  FLAGWRD2      (030-044)       (STATE +2)
000083:                                                                                                  #  FLAGWRD3      (045-059)       (STATE +3)
000084:                                                                                                  #  FLAGWRD4      (060-074)       (STATE +4)
000085:                                                                                                  #  FLAGWRD5      (075-089)       (STATE +5)
000086:                                                                                                  #  FLAGWRD6      (090-104)       (STATE +6)
000087:                                                                                                  #  FLAGWRD7      (105-119)       (STATE +7)
000088:                                                                                                  #  FLAGWRD8      (120-134)       (STATE +8D)
000089:                                                                                                  #  FLAGWRD9      (135-149)       (STATE +9D)
000090:                                                                                                  #  FLAP          142             BIT 8  FLAG 9           FLAPBIT
000091:                                                                                                  #  FLGWRD10      (150-164)       (STATE +10D)
000092:                                                                                                  #  FLGWRD11      (165-179)       (STATE +11D)
000093:                                                                                                  #  FLGWRD12      (180-194)       (STATE +12D)
000094:                                                                                                  #  FLGWRD13      (195-209)       (STATE +13D)
000095:                                                                                                  #  FLPC          138             BIT 12 FLAG 9           FLPCBIT
000096:                                                                                                  #  FLPI          139             BIT 11 FLAG 9           FLPIBIT
000097:                                                                                                  #  FLRCS         149             BIT 10 FLAG 9           FLRCSBIT
000098:                                                                                                  #  FLUNDISP      125             BIT 10 FLAG 8           FLUNDBIT
000099:                                                                                                  #  FLVR          136             BIT 14 FLAG 9           FLVRBIT
000100:                                                                                                  #  FREEFLAG      012             BIT 3  FLAG 0           FREEFBIT
000101:                                                                                                  #  FSPASFLG      005             BIT 10 FLAG 0           FSPASBIT
000102:                                                                                                  #  GLOKFAIL      046             BIT 14 FLAG 3           GLOKFBIT
000103:                                                                                                  #  GMBDRVSW      095             BIT 10 FLAG 6           GMBDRBIT
000104:                                                                                                  #  GUESSW        028             BIT 2  FLAG 1           GUESSBIT
000105:                                                                                                  #  HFAILFLG      167             BIT 13 FLAG 11          HFAILBIT
000106:                                                                                                  #  HFLSHFLG      179             BIT 1  FLAG 11          HFLSHBIT
000107:                                                                                                  #  IDLEFLAG      113             BIT 7  FLAG 7           IDLEFBIT
000108:                                                                                                  #  IGNFLAG       107             BIT 13 FLAG 7           IGNFLBIT
000109:                                                                                                  #  IMPULSW       036             BIT 9  FLAG 2           IMPULBIT
000110:                                                                                                  #  IMUSE         007             BIT 8  FLAG 0           IMUSEBIT
000111:                                                                                                  #  INFINFLG      128             BIT 7  FLAG 8           INFINBIT
000112:                                                                                                  #  INITALGN      133             BIT 2  FLAG 8           INITABIT
000113:                                                                                                  #  INTFLAG       151             BIT 14 FLAG 10          INTFLBIT
000114:                                                                                                  #  INTYPFLG      056             BIT 4  FLAG 3           INTYPBIT
000115:                                                                                                  #  ITSWICH       105             BIT 15 FLAG 7           ITSWBIT
000116:                                                                                                  #  JSWITCH       001             BIT 14 FLAG 0           JSWCHBIT
000117:                                                                                                  #  LETABORT      141             BIT 9  FLAG 9           LETABBIT
000118:                                                                                                  #  LMOONFLG      124             BIT 11 FLAG 8           LMOONBIT
000119:                                                                                                  #  LOKONSW       010             BIT 5  FLAG 0           LOKONBIT
000120:                                                                                                  #  LOSCMFLG      033             BIT 12 FLAG 2           LOSCMBIT


000122:                                                                                                  #  LRALTFLG      190             BIT 5  FLAG 12          LRALTBIT
000123:                                                                                                  #  LRBYPASS      165             BIT 15 FLAG 11          LRBYBIT
000124:                                                                                                  #  LRINH         172             BIT 8  FLAG 11          LRINHBIT
000125:                                                                                                  #  LRPOSFLG      189             BIT 6  FLAG 12          LRPOSBIT
000126:                                                                                                  #  LRVELFLG      187             BIT 8  FLAG 12          LRVELBIT
000127:                                                                                                  #  LUNAFLAG      048             BIT 12 FLAG 3           LUNABIT
000128:                                                                                                  #  MANUFLAG      106             BIT 14 FLAG 7           MANUFBIT
000129:                                                                                                  #  MGLVFLAG      088             BIT 2  FLAG 5           MGLVFBIT
000130:                                                                                                  #  MIDAVFLG      148             BIT 2  FLAG 9           MIDAVBIT
000131:                                                                                                  #  MIDFLAG       002             BIT 13 FLAG 0           MIDFLBIT
000132:                                                                                                  #  MID1FLAG      147             BIT 3  FLAG 9           MID1BIT
000133:                                                                                                  #  MKOVFLAG      072             BIT 3  FLAG 4           MKOVBIT
000134:                                                                                                  #  MOONFLAG      003             BIT 12 FLAG 0           MOONBIT
000135:                                                                                                  #  MRKIDFLG      060             BIT 15 FLAG 4           MRKIDBIT
000136:                                                                                                  #  MRKNVFLG      066             BIT 9  FLAG 4           MRKNVBIT
000137:                                                                                                  #  MRUPTFLG      070             BIT 5 FLAG 4            MRUPTBIT
000138:                                                                                                  #  MUNFLAG       097             BIT 8 FLAG 6            MUNFLBIT
000139:                                                                                                  #  MWAITFLG      064             BIT 11 FLAG 4           MWAITBIT
000140:                                                                                                  #  NEEDLFLG      011             BIT 4  FLAG 0           NEEDLBIT
000141:                                                                                                  #  NEED2FLG      000             BIT 15 FLAG 0           NEED2BIT
000142:                                                                                                  #  NEWIFLG       122             BIT 13 FLAG 8           NEWIBIT
000143:                                                                                                  #  NJETSFLG      015             BIT 15 FLAG 1           NJETSBIT
000144:                                                                                                  #  NODOFLAG      044             BIT 1  FLAG 2           NODOBIT
000145:                                                                                                  #  NODOP07       049             BIT 11 FLAG 3           NOP07BIT
000146:                                                                                                  #  NOLRREAD      170             BIT 10 FLAG 11          NOLRRBIT
000147:                                                                                                  #  NORMSW        110             BIT 10 FLAG 7           NORMSBIT
000148:                                                                                                  #  NORRMON       086             BIT 4  FLAG 5           NORRMBIT
000149:                                                                                                  #  NOTERFLG      019             BIT 11 FLAG 1           NOTERBIT
000150:                                                                                                  #  NOTHROTL      078             BIT 12 FLAG 5           NOTHRBIT
000151:                                                                                                  #  NOUPFLAG      024             BIT 6  FLAG 1           NOUPFBIT
000152:                                                                                                  #  NRMNVFLG      067             BIT 8  FLAG 4           NRMNVBIT
000153:                                                                                                  #  NRMIDFLG      062             BIT 13 FLAG 4           NRMIDBIT
000154:                                                                                                  #  NRUPTFLG      071             BIT 4  FLAG 4           NRUPTBIT
000155:                                                                                                  #  NTARGFLG      102             BIT 3  FLAG 6           NTARGBIT
000156:                                                                                                  #  NWAITFLG      065             BIT 10 FLAG 4           NWAITBIT
000157:                                                                                                  #  ORBWFLAG      054             BIT 6  FLAG 3           ORBWFBIT
000158:                                                                                                  #  ORDERSW       129             BIT 6  FLAG 8           ORDERBIT
000159:                                                                                                  #  OURRCFLG      198             BIT 12 FLAG 13          OURRCBIT
000160:                                                                                                  #  PDSPFLAG      063             BIT 12 FLAG 4           PDSPFBIT
000161:                                                                                                  #  PFRATFLG      041             BIT 4  FLAG 2           PFRATBIT
000162:                                                                                                  #  PINBRFLG      069             BIT 6  FLAG 4           PINBRBIT
000163:                                                                                                  #  POOHFLAG      045             BIT 15 FLAG 3           POOHBIT
000164:                                                                                                  #  PRECIFLG      052             BIT 8  FLAG 3           PRECIBIT
000165:                                                                                                  #  PRIODFLG      061             BIT 14 FLAG 4           PRIODBIT
000166:                                                                                                  #  PRONVFLG      068             BIT 7  FLAG 4           PRONVBIT
000167:                                                                                                  #  PSTHIGAT      169             BIT 11 FLAG 11          PSTHIBIT
000168:                                                                                                  #  PULSEFLG      195             BIT 15 FLAG 13          PULSES
000169:                                                                                                  #  P21FLAG       004             BIT 11 FLAG 0           P21FLBIT
000170:                                                                                                  #  P25FLAG       006             BIT 9  FLAG 0           P25FLBIT


000172:                                                                                                  #  P66PROFL      014D            BIT 1 FLAG 0            P66PROBT
000173:                                                                                                  #  P7071FLG      137             BIT 13 FLAG 9           P7071BIT
000174:                                                                                                  #  QUITFLAG      145             BIT 5  FLAG 9           QUITBIT
000175:                                                                                                  #  RADMODES                      FLGWRD12
000176:                                                                                                  #  RASFLAG                       FLGWRD10
000177:                                                                                                  #  RCDUFAIL      188             BIT 7  FLAG 12          RCDUFBIT
000178:                                                                                                  #  RCDU0FLG      182             BIT 13 FLAG 12          RCDU0BIT
000179:                                                                                                  #  REDFLAG       099             BIT 6  FLAG 6           REDFLBIT
000180:                                                                                                  #  REFSMFLG      047             BIT 13 FLAG 3           REFSMBIT
000181:                                                                                                  #  REINTFLG      158             BIT 7  FLAG 10          REINTBIT
000182:                                                                                                  #  REMODFLG      181             BIT 14 FLAG 12          REMODBIT
000183:                                                                                                  #  RENDWFLG      089             BIT 1  FLAG 5           RENDWBIT
000184:                                                                                                  #  REPOSMON      184             BIT 11 FLAG 12          REPOSBIT
000185:                                                                                                  #  RHCSCFLG      203             BIT 7  FLAG 13          RHCSCALE
000186:                                                                                                  #  RNDVZFLG      008             BIT 7  FLAG 0           RNDVZBIT
000187:                                                                                                  #  RNGEDATA      176             BIT 4  FLAG 11          RNGEDBIT
000188:                                                                                                  #  RNGSCFLG      080             BIT 10 FLAG 5           RNGSCBIT
000189:                                                                                                  #  RODFLAG       018             BIT 12 FLAG 1           RODFLBIT
000190:                                                                                                  #  ROTFLAG       144             BIT  6 FLAG 9           ROTFLBIT
000191:                                                                                                  #  RPQFLAG       120             BIT 15 FLAG 8           RPQFLBIT
000192:                                                                                                  #  RRDATAFL      191             BIT 4  FLAG 12          RRDATABT
000193:                                                                                                  #  RRNBSW        009             BIT 6 FLAG 0            RRNBBIT
000194:                                                                                                  #  RRRSFLAG      192             BIT 3  FLAG 12          RRRSBIT
000195:                                                                                                  #  RVSW          111             BIT 9  FLAG 7           RVSWBIT
000196:                                                                                                  #  R04FLAG       051             BIT 9  FLAG 3           R04FLBIT
000197:                                                                                                  #  R10FLAG       013             BIT 2  FLAG 0           R10FLBIT
000198:                                                                                                  #  R12RDFLG      177D            BIT 3  FLAG 11          R12RDBIT
000199:                                                                                                  #  R61FLAG       020             BIT 10 FLAG 1           R61FLBIT
000200:                                                                                                  #  R77FLAG       079             BIT 11 FLAG 5           R77FLBIT
000201:                                                                                                  #  SLOPESW       027             BIT 3  FLAG 1           SLOPEBIT
000202:                                                                                                  #  SNUFFER       077             BIT 13 FLAG 5           SNUFFBIT
000203:                                                                                                  #  SOLNSW        087             BIT 3  FLAG 5           SOLNSBIT
000204:                                                                                                  #  SRCHOPTN      031             BIT 14 FLAG 2           SRCHOBIT
000205:                                                                                                  #  STATEFLG      055             BIT 5  FLAG 3           STATEBIT
000206:                                                                                                  #  STEERSW       034             BIT 11 FLAG 2           STEERBIT
000207:                                                                                                  #  SURFFLAG      127             BIT 8  FLAG 8           SURFFBIT
000208:                                                                                                  #  SWANDISP      109             BIT 11 FLAG 7           SWANDBIT
000209:                                                                                                  #  S32.1F1       090             BIT 15 FLAG 6           S32BIT1
000210:                                                                                                  #  S32.1F2       092             BIT 14 FLAG 6           S32BIT2
000211:                                                                                                  #  S32.1F3A      092             BIT 13 FLAG 6           S32BIT3A
000212:                                                                                                  #  S32.1F3B      093             BIT 12 FLAG 6           S32BIT3B
000213:                                                                                                  #  TFFSW         119             BIT 1  FLAG 7           TFFSWBIT
000214:                                                                                                  #  TRACKFLG      025             BIT 5  FLAG 1           TRACKBIT
000215:                                                                                                  #  TURNONFL      194             BIT 1  FLAG 12          TURNONBT
000216:                                                                                                  #  ULLAGFLG      204             BIT 6  FLAG 13          ULLAGER
000217:                                                                                                  #  UPDATFLG      023             BIT 7  FLAG 1           UPDATBIT
000218:                                                                                                  #  UPLOCKFL      116             BIT 4  FLAG 7           UPLOCBIT
000219:                                                                                                  #  USEQRFLG      196             BIT 14 FLAG 13          USEQRJTS
000220:                                                                                                  #  VEHUPFLG      022             BIT 8  FLAG 1           VEHUPBIT
000221:                                                                                                  #  VELDATA       173             BIT 7  FLAG 11          VELDABIT


000223:                                                                                                  #  VERIFLAG      117             BIT 3  FLAG 7           VERIFBIT
000224:                                                                                                  #  VFAILFLG      166             BIT 14 FLAG 11          VFAILBIT
000225:                                                                                                  #  VFLAG         050             BIT 10 FLAG 3           VFLAGBIT
000226:                                                                                                  #  VFLSHFLG      178             BIT 2  FLAG 11          VFLSHBIT
000227:                                                                                                  #  VINTFLAG      057             BIT 3  FLAG 3           VINTFBIT
000228:                                                                                                  #  VXINH         168             BIT 12 FLAG 11          VXINHBIT
000229:                                                                                                  #  V37FLAG       114             BIT 6  FLAG 7           V37FLBIT
000230:                                                                                                  #  V67FLAG       112             BIT 8  FLAG 7           V67FLBIT
000231:                                                                                                  #  V82EMFLG      118             BIT 2  FLAG 7           V82EMBIT
000232:                                                                                                  #  XDELVFLG      037             BIT 8  FLAG 2           XDELVBIT
000233:                                                                                                  #  XDSPFLAG      074             BIT 1  FLAG 4           XDSPBIT
000234:                                                                                                  #  XORFLG        171             BIT 9  FLAG 11          XORFLBIT
000235:                                                                                                  #  XOVINFLG      201             BIT 9  FLAG 13          XOVINHIB
000236:                                                                                                  #  ZOOMFLAG      082             BIT 8  FLAG 5           ZOOMBIT
000237:                                                                                                  #  3AXISFLG      084             BIT 6 FLAG 5            3AXISBIT
000238:                                                                                                  #  360SW         134             BIT 1  FLAG 8           360SWBIT
000239:
000240:
000241:
000242:                                                                                                  #           ASSIGNMENT AND DESCRIPTION OF FLAGWORDS
000243:
000244:
000245: 26,2024     0074               FLAGWRD0           =        STATE      +0                         #  (000-014)
000246:
000247:                                                                                                  #  (SET)               (RESET)
000248:
000249:                                                                                                  #                                BIT 15 FLAG 0             (S)
000250: 26,2024                        NEED2FLG           =        000D                                  #  DISPLAY DAP RATES   CHECK BIT 4 OF THIS
000251: 26,2024     4735               NEED2BIT           =        BIT15                                 #  ON FDAI NEEDLES.    WORD FOR DISPLAY
000252:                                                                                                  #                      MODES (1 OR 2).
000253:
000254:                                                                                                  #                                BIT 14 FLAG 0             (S)
000255: 26,2024                        JSWITCH            =        001D                                  #  INTEGRATION OF W    INTEGRATION OF STATE
000256: 26,2024     4736               JSWCHBIT           =        BIT14                                 #  MATRIX              VECTOR
000257:
000258:
000259:                                                                                                  #                                BIT 13 FLAG 0             (S)
000260: 26,2024                        MIDFLAG            =        002D                                  #  INTEGRATION WITH    INTEGRATION WITHOUT
000261:                                                                                                  #  SECONDARY BODY AND  SOLAR PERTURBATIONS
000262: 26,2024     4737               MIDFLBIT           =        BIT13                                 #  SOLAR PERTURBATIONS
000263:
000264:
000265:                                                                                                  #                                BIT 12 FLAG 0             (L)
000266: 26,2024                        MOONFLAG           =        003D                                  #  MOON IS SPHERE OF   EARTH IS SPHERE OF
000267: 26,2024     4740               MOONBIT            =        BIT12                                 #  INFLUENCE           INFLUENCE
000268:
000269:
000270:                                                                                                  #                                BIT 11 FLAG 0
000271: 26,2024                        P21FLAG            =        004D                                  #  USE BASE VECTORS    1ST PASS -- CALC-
000272: 26,2024     4741               P21FLBIT           =        BIT11                                 #  ALREADY CALCULATED  ULATE BASE VECTORS


000274:
000275:
000276:                                                                                                  #                                BIT 10 FLAG 0
000277: 26,2024                        FSPASFLG           =        005D                                  #  FIRST PASS THROUGH  NOT FIRST PASS THRU
000278: 26,2024     4742               FSPASBIT           =        BIT10                                 #  REPOSITION ROUTINE  REPOSITION ROUTINE
000279:
000280:
000281:                                                                                                  #                                BIT 9 FLAG 0              (S)
000282: 26,2024                        P25FLAG            =        006D                                  #  P25 OPERATING       P25 NOT OPERATING
000283: 26,2024     4743               P25FLBIT           =        BIT9
000284:
000285:
000286:                                                                                                  #                                BIT 8 FLAG 0              (S)
000287: 26,2024                        IMUSE              =        007D                                  #  IMU IN USE          IMU NOT IN USE
000288: 26,2024     4744               IMUSEBIT           =        BIT8
000289:
000290:
000291:                                                                                                  #                                BIT 7 FLAG 0              (S)
000292: 26,2024                        RNDVZFLG           =        008D                                  #  P20 RUNNING (RADAR  P20 NOT RUNNING
000293: 26,2024     4745               RNDVZBIT           =        BIT7                                  #  IN USE)
000294:
000295:
000296:                                                                                                  #                                BIT 6 FLAG 0              (S)
000297: 26,2024                        RRNBSW             =        009D                                  #  RADAR TARGET IN     RADAR TARGET IN
000298: 26,2024     4746               RRNBBIT            =        BIT6                                  #  NB COORDINATES      SM COORDINATES
000299:
000300:
000301:                                                                                                  #                                BIT 5 FLAG 0              (S)
000302: 26,2024                        LOKONSW            =        010D                                  #  RADAR LOCK-ON       RADAR LOCK-ON NOT
000303: 26,2024     4747               LOKONBIT           =        BIT5                                  #  DESIRED             DESIRED
000304:
000305:
000306:                                                                                                  #                                BIT 4 FLAG 0              (S)
000307: 26,2024                        NEEDLFLG           =        011D                                  #  TOTAL ATTITUDE      A/P FOLLOWING
000308: 26,2024     4750               NEEDLBIT           =        BIT4                                  #  ERROR DISPLAYED     ERROR DISPLAYED
000309:
000310:
000311:                                                                                                  #                                BIT 3 FLAG 0
000312: 26,2024                        FREEFLAG           =        012D                                  #  (USED BY P51-53 TEMP IN MANY DIFFERENT
000313:                                                                                                  #  ROUTINES & BY LUNAR + SOLAR EPHEMERIDES)
000314: 26,2024     4751               FREEFBIT           =        BIT3
000315:
000316:
000317:                                                                                                  #                                BIT 2 FLAG 0
000318: 26,2024                        R10FLAG            =        013D                                  #  R10 OUTPUTS DATA TO BESIDES OUTPUT WHEN
000319: 26,2024     4752               R10FLBIT           =        BIT2                                  #  ALTITUDE & ALTITUDE SET, R10 ALSO OUTPUT
000320:                                                                                                  #  RATE METERS ONLY    TO FORWARD & LATERAL
000321:                                                                                                  #                      VELOCITY CROSSPOINTR
000322:
000323:


000325: 26,2024                        P66PROFL           =        014D                                  #  CONTINUE P66        STOP P66
000326: 26,2024     4753               P66PROBT           =        BIT1                                  #  HORIZONTAL          HORIZONTAL VEL
000327:                                                                                                  #  VELOCITY NULLING    NULLING
000328:
000329:
000330: 26,2024     0075               FLAGWRD1           =        STATE      +1                         #  (015-029)
000331:
000332:                                                                                                  #  (SET)               (RESET)
000333:
000334:                                                                                                  #                                BIT 15 FLAG 1             (S)
000335: 26,2024                        NJETSFLG           =        015D                                  #  TWO JET RCS BURN    FOUR JET RCS BURN
000336: 26,2024     4735               NJETSBIT           =        BIT15
000337:
000338:
000339:                                                                                                  #                                BIT 14 FLAG 1             (L)
000340: 26,2024                        DIDFLAG            =        016D                                  #  INERTIAL DATA IS    PERFORM DATA DISPLAY
000341: 26,2024     4736               DIDFLBIT           =        BIT14                                 #  AVAILABLE           INITIALIZATION FUNCS
000342:
000343:
000344:                                                                                                  #                                BIT 13 FLAG 1             (S)
000345: 26,2024                        ERADFLAG           =        017D                                  #  COMPUTE REARTH      USE CONSTANT REARTH
000346: 26,2024     4737               ERADFBIT           =        BIT13                                 #  FISCHER ELLIPSOID   PAD RADIUS
000347:
000348:
000349:                                                                                                  #                                BIT12 FLAG 1
000350: 26,2024                        RODFLAG            =        018D                                  #  IF IN P66, NORMAL   IF IN P66, RE-INIT-
000351: 26,2024     4740               RODFLBIT           =        BIT12                                 #  OPERATION CONTINUES. IALIZATION IS PER-
000352:                                                                                                  #  RESTART CLEARS FLAG  FORMED AND FLAG IS
000353:
000354:
000355:                                                                                                  #                                BIT 11 FLAG 1
000356: 26,2024                        NOTERFLG           =        019D                                  #  TERRAIN MODEL       TERRAIN MODEL
000357: 26,2024     4741               NOTERBIT           =        BIT11                                 #  INHIBITED           PERMITTED
000358:
000359:
000360:                                                                                                  #                                BIT 10 FLAG 1             (L)
000361: 26,2024                        R61FLAG            =        020D                                  #  RUN R61 LEM         RUN R65 LEM
000362: 26,2024     4742               R61FLBIT           =        BIT10
000363:
000364:
000365:                                                                                                  #                                BIT 9 FLAG 1
000366:                                                                                                  #                =               021D
000367:                                                                                                  #                =               BIT9
000368:
000369:                                                                                                  #                                BIT 8 FLAG 1              (S)
000370: 26,2024                        VEHUPFLG           =        022D                                  #  CSM STATE VECTOR    LEM STATE VECTOR
000371: 26,2024     4744               VEHUPBIT           =        BIT8                                  #  BEING UPDATED       BEING UPDATED
000372:
000373:


000375:                                                                                                  #                                BIT 7 FLAG 1              (S)
000376: 26,2024                        UPDATFLG           =        023D                                  #  UPDATING BY MARKS   UPDATING BY MARKS
000377: 26,2024     4745               UPDATBIT           =        BIT7                                  #  ALLOWED             NOT ALLOWED
000378:
000379:
000380:                                                                                                  #                                BIT 6 FLAG 1              (S)
000381: 26,2024                        NOUPFLAG           =        024D                                  #  NEITHER CSM         EITHER STATE
000382:                                                                                                  #  NOR LM STATE VECTOR VECTOR MAY BE
000383: 26,2024     4746               NOUPFBIT           =        BIT6                                  #  MAY BE UPDATED      UPDATED
000384:
000385:
000386:                                                                                                  #                                BIT 5 FLAG 1              (S)
000387: 26,2024                        TRACKFLG           =        025D                                  #  TRACKING ALLOWED    TRACKING NOT ALLOWED
000388: 26,2024     4747               TRACKBIT           =        BIT5
000389:
000390:
000391:                                                                                                  #                                BIT 4 FLAG 1
000392:                                                                                                  #                =               026D
000393:                                                                                                  #                =               BIT4
000394:
000395:
000396:                                                                                                  #                                BIT 3 FLAG 1              (S)
000397: 26,2024                        SLOPESW            =        027D                                  #  ITERATE WITH BIAS   ITERATE WITH REGULAR
000398:                                                                                                  #  METHOD IN ITERATOR  FALSI METHOD IN
000399: 26,2024     4751               SLOPEBIT           =        BIT3                                  #                      ITERATOR
000400:
000401:
000402:                                                                                                  #                                BIT 2 FLAG 1              (S)
000403: 26,2024                        GUESSW             =        028D                                  #  NO STARTING VALUE   STARTING VALUE FOR
000404: 26,2024     4752               GUESSBIT           =        BIT2                                  #  FOR ITERATION       ITERATION EXISTS
000405:
000406:
000407:                                                                                                  #                                BIT 1 FLAG 1
000408:                                                                                                  #                =               029D
000409:
000410:
000411: 26,2024     0076               FLAGWRD2           =        STATE      +2                         #  (030-044)
000412:
000413:                                                                                                  #  (SET)               (RESET)
000414:
000415:                                                                                                  #                                BIT 15 FLAG 2             (S)
000416: 26,2024                        DRIFTFLG           =        030D                                  #  T3RUPT CALLS GYRO   T3RUPT DOES NO GYRO
000417: 26,2024     4735               DRFTBIT            =        BIT15                                 #  COMPENSATION        COMPENSATION
000418:
000419:
000420:                                                                                                  #                                BIT 14 FLAG 2             (S)
000421: 26,2024                        SRCHOPTN           =        031D                                  #  RADAR IN AUTOMATIC  RADAR NOT IN AUTO-
000422: 26,2024     4736               SRCHOBIT           =        BIT14                                 #  SEARCH OPTION(R24)  MATIC SEARCH OPTION
000423:
000424:


000426:                                                                                                  #                                BIT 13 FLAG 2             (S)
000427: 26,2024                        ACMODFLG           =        032D                                  #  MANUAL ACQUISITION  AUTO ACQUISITION
000428: 26,2024     4737               ACMODBIT           =        BIT13                                 #  BY RENDESVOUS RADAR BY RENDESVOUS RADAR
000429:
000430:
000431:                                                                                                  #                                BIT 12 FLAG 2             (S)
000432: 26,2024                        LOSCMFLG           =        033D                                  #  LINE OF SIGHT BEING LINE OF SIGHT NOT
000433:                                                                                                  #  COMPUTED (R21)      BEING COMPUTED
000434: 26,2024     4740               LOSCMBIT           =        BIT12
000435:
000436:
000437:                                                                                                  #                                BIT 11 FLAG 2             (S)
000438: 26,2024                        STEERSW            =        034D                                  #  SUFFICIENT THRUST   INSUFFICIENT THRUST
000439: 26,2024     4741               STEERBIT           =        BIT11                                 #  IS PRESENT          IS PRESENT
000440:
000441:
000442:                                                                                                  #                                BIT 10 FLAG 2             (S)
000443:
000444:
000445:                                                                                                  #                                BIT 9 FLAG 2              (S)
000446: 26,2024                        IMPULSW            =        036D                                  #  MINIMUM IMPULSE     STEERING BURN (NO
000447:                                                                                                  #  BURN (CUTOFF TIME   CUTOFF TIME YET
000448: 26,2024     4743               IMPULBIT           =        BIT9                                  #  SPECIFIED)          AVAILABLE)
000449:
000450:
000451:                                                                                                  #                                BIT 8 FLAG 2              (S)
000452: 26,2024                        XDELVFLG           =        037D                                  #  EXTERNAL DELTAV VG  LAMBERT (AIMPOINT)
000453: 26,2024     4744               XDELVBIT           =        BIT8                                  #  COMPUTATION         VG COMPUTATION
000454:
000455:
000456:                                                                                                  #                                BIT 7 FLAG 2              (S)
000457: 26,2024                        ETPIFLAG           =        038D                                  #  ELEVATION ANGLE     TPI TIME SUPPLIED
000458:                                                                                                  #  SUPPLIED FOR        FOR P34,74 TO COMPUT
000459: 26,2024     4745               ETPIBIT            =        BIT7                                  #  P34,74              ELEVATION
000460:
000461:
000462:                                                                                                  #                                BIT 6 FLAG 2              (S)
000463: 26,2024                        FINALFLG           =        039D                                  #  LAST PASS THROUGH   INTERIM PASS THROUGH
000464:                                                                                                  #  RENDEZVOUS PROGRAM  RENDEZVOUS PROGRAM
000465: 26,2024     4746               FINALBIT           =        BIT6                                  #  COMPUTATIONS        COMPUTATIONS
000466:
000467:
000468:                                                                                                  #                                BIT 5 FLAG 2              (S)
000469: 26,2024                        AVFLAG             =        040D                                  #  LEM IS ACTIVE       CSM IS ACTIVE
000470: 26,2024     4747               AVFLBIT            =        BIT5                                  #  VEHICLE             VEHICLE
000471:
000472:


000474:                                                                                                  #                                BIT 4 FLAG 2              (S)
000475: 26,2024                        PFRATFLG           =        041D                                  #  PREFERRED ATTITUDE  PREFERRED ATTITUDE
000476: 26,2024     4750               PFRATBIT           =        BIT4                                  #  COMPUTED            NOT COMPUTED
000477:
000478:
000479:                                                                                                  #                                BIT 3 FLAG 2              (S)
000480: 26,2024                        CALCMAN3           =        042D                                  #  NO FINAL ROLL       FINAL ROLL IS
000481: 26,2024     4751               CALC3BIT           =        BIT3                                  #                      NECESSARY
000482:
000483:
000484:                                                                                                  #                                BIT 2 FLAG 2              (S)
000485: 26,2024                        CALCMAN2           =        043D                                  #  PERFORM MANEUVER    BYPASS STARTING
000486: 26,2024     4752               CALC2BIT           =        BIT2                                  #  STARTING PROCEDURE  PROCEDURE
000487:
000488:
000489:                                                                                                  #                                BIT 1 FLAG 2              (S)
000490: 26,2024                        NODOFLAG           =        044D                                  #  V37 NOT PERMITTED   V37 PERMITTED
000491: 26,2024     4753               NODOBIT            =        BIT1
000492:
000493:
000494: 26,2024     0077               FLAGWRD3           =        STATE      +3                         #  (045-059)
000495:
000496:                                                                                                  #  (SET)               (RESET)
000497:
000498:                                                                                                  #                                BIT 15 FLAG 3
000499: 26,2024                        POOHFLAG           =        045D                                  #  INHIBIT BACKWARDS   ALLOW BACKWARDS
000500: 26,2024     4735               POOHBIT            =        BIT15                                 #  INTEGRATION         INTEGRATION
000501:
000502:
000503:                                                                                                  #                                BIT 14 FLAG 3             (S)
000504: 26,2024                        GLOKFAIL           =        046D                                  #  GIMBAL LOCK HAS     NOT IN GIMBAL LOCK
000505: 26,2024     4736               GLOKFBIT           =        BIT14                                 #  OCCURRED
000506:
000507:                                                                                                  #                                BIT 13 FLAG 3             *** PROTECTED FROM FRESH START ***
000508: 26,2024                        REFSMFLG           =        047D                                  #  REFSMMAT GOOD       REFSMMAT NO GOOD
000509: 26,2024     4737               REFSMBIT           =        BIT13
000510:
000511:
000512:                                                                                                  #                                BIT 12 FLAG 3             (S)
000513: 26,2024                        LUNAFLAG           =        048D                                  #  LUNAR LAT-LONG      EARTH LAT-LONG
000514: 26,2024     4740               LUNABIT            =        BIT12
000515:
000516:
000517:                                                                                                  #                                BIT 11 FLAG 3             (L)
000518: 26,2024                        NODOP07            =        049D                                  #  SYSTEM TESTS        SYSTEM TESTS
000519: 26,2024     4741               NOP07BIT           =        BIT11                                 #  NOT ALLOWED         ALLOWED
000520:
000521:
000522:                                                                                                  #                                BIT 10 FLAG 3             (S)


000524: 26,2024                        VFLAG              =        050D                                  #  LESS THAN TWO STARS TWO STARS IN FIELD
000525: 26,2024     4742               VFLAGBIT           =        BIT10                                 #  IN FIELD OF VIEW    OF VIEW
000526:
000527:
000528:                                                                                                  #                                BIT 9 FLAG 3              (S)
000529: 26,2024                        R04FLAG            =        051D                                  #  R04 RUNNING         R04 NOT RUNNING
000530: 26,2024     4743               R04FLBIT           =        BIT9
000531:
000532:
000533:                                                                                                  #                                BIT 8 FLAG 3              (S)
000534: 26,2024                        PRECIFLG           =        052D                                  #  NORMAL INTEGRATION  ENGAGES 4-TIME STEP
000535:                                                                                                  #  IN POO              (POO) LOGIC IN INTE-
000536: 26,2024     4744               PRECIBIT           =        BIT8                                  #                      GRATION
000537:
000538:
000539:                                                                                                  #                                BIT 7 FLAG 3              (S)
000540: 26,2024                        CULTFLAG           =        053D                                  #  STAR OCCULTED       STAR NOT OCCULTED
000541: 26,2024     4745               CULTBIT            =        BIT7
000542:
000543:
000544:                                                                                                  #                                BIT 6 FLAG 3              (S)
000545: 26,2024                        ORBWFLAG           =        054D                                  #  W MATRIX VALID FOR  W MATRIX INVALID FOR
000546: 26,2024     4746               ORBWFBIT           =        BIT6                                  #  ORBITAL NAVIGATION  ORBITAL NAVIGATION
000547:
000548:
000549:                                                                                                  #                                BIT 5 FLAG 3              (S)
000550: 26,2024                        STATEFLG           =        055D                                  #  PERMANENT STATE     PERMANENT STATE
000551: 26,2024     4747               STATEBIT           =        BIT5                                  #  VECTOR UPDATED      VECTOR NOT UPDATED
000552:
000553:
000554:                                                                                                  #                                BIT 4 FLAG 3              (S)
000555: 26,2024                        INTYPFLG           =        056D                                  #  CONIC INTEGRATION   ENCKE INTEGRATION
000556: 26,2024     4750               INTYPBIT           =        BIT4
000557:
000558:
000559:                                                                                                  #                                BIT 3 FLAG 3              (S)
000560: 26,2024                        VINTFLAG           =        057D                                  #  CSM STATE VECTOR    LEM STATE VECTOR
000561: 26,2024     4751               VINTFBIT           =        BIT3                                  #  BEING INTEGRATED    BEING INTEGRATED
000562:
000563:
000564:                                                                                                  #                                BIT 2 FLAG 3              (S)
000565: 26,2024                        D6OR9FLG           =        058D                                  #  DIMENSION OF W IS 9 DIMENSION OF W IS 6
000566: 26,2024     4752               D6OR9BIT           =        BIT2                                  #  FOR INTEGRATION     FOR INTEGRATION
000567:
000568:
000569:                                                                                                  #                                BIT 1 FLAG 3              (S)
000570: 26,2024                        DIM0FLAG           =        059D                                  #  W MATRIX IS TO BE   W MATRIX IS NOT TO
000571: 26,2024     4753               DIM0BIT            =        BIT1                                  #  USED                BE USED
000572:
000573:


000575: 26,2024     0100               FLAGWRD4           =        STATE      +4                         #  (060-074)
000576:
000577:                                                                                                  #  (SET)               (RESET)
000578:
000579:                                                                                                  #                                BIT 15 FLAG 4             (S)
000580: 26,2024                        MRKIDFLG           =        060D                                  #  MARK DISPLAY IN     NO MARK DISPLAY IN
000581: 26,2024     4735               MRKIDBIT           =        BIT15                                 #  ENDIDLE             ENDIDLE
000582:
000583:
000584:                                                                                                  #                                BIT 14 FLAG 4             (S)
000585: 26,2024                        PRIODFLG           =        061D                                  #  PRIORITY DISPLAY IN NO PRIORITY DISPLAY
000586: 26,2024     4736               PRIODBIT           =        BIT14                                 #  ENDIDLE             IN ENDIDLE
000587:
000588:
000589:                                                                                                  #                                BIT 13 FLAG 4             (S)
000590: 26,2024                        NRMIDFLG           =        062D                                  #  NORMAL DISPLAY IN   NO NORMAL DISPLAY
000591: 26,2024     4737               NRMIDBIT           =        BIT13                                 #  ENDIDLE             IN ENDIDLE
000592:
000593:
000594:                                                                                                  #                                BIT 12 FLAG 4             (S)
000595: 26,2024                        PDSPFLAG           =        063D                                  #  P20 SETS SO AS TO   LEAVE AS NORMAL DISP
000596:                                                                                                  #  TURN A NORMAL DIS-
000597: 26,2024     4740               PDSPFBIT           =        BIT12                                 #  PLAY INTO A PRIORITY
000598:                                                                                                  #  DISPLAY IN R60
000599:
000600:
000601:                                                                                                  #                                BIT 11 FLAG 4             (S)
000602: 26,2024                        MWAITFLG           =        064D                                  #  HIGHER PRIORITY     NO HIGHER PRIORITY
000603:                                                                                                  #  DISPLAY OPERATING   DISPLAY OPERATING
000604: 26,2024     4741               MWAITBIT           =        BIT11                                 #  WHEN MARK DISPLAY   WHEN MARK DISPLAY
000605:                                                                                                  #  INITIATED           INITIATED
000606:
000607:                                                                                                  #                                BIT 10 FLAG 4             (S)
000608: 26,2024                        NWAITFLG           =        065D                                  #  HIGHER PRIORITY     NO HIGHER PRIORITY
000609:                                                                                                  #  DISPLAY OPERATING   DISPLAY OPERATING
000610: 26,2024     4742               NWAITBIT           =        BIT10                                 #  WHEN NORMAL         WHEN NORMAL DISPLAY
000611:                                                                                                  #  DISPLAY INITIATED   INITIATED
000612:
000613:                                                                                                  #                                BIT 9 FLAG 4              (S)
000614: 26,2024                        MRKNVFLG           =        066D                                  #  ASTRONAUT USING     ASTRONAUT NOT USING
000615:                                                                                                  #  KEYBOARD WHEN MARK  KEYBOARD WHEN MARK
000616: 26,2024     4743               MRKNVBIT           =        BIT9                                  #  DISPLAY INITIATED   DISPLAY INITIATED
000617:
000618:
000619:                                                                                                  #                                BIT 8 FLAG 4              (S)
000620: 26,2024                        NRMNVFLG           =        067D                                  #  ASTRONAUT USING     ASTRONAUT NOT USING
000621:                                                                                                  #  KEYBOARD WHEN       KEYBOARD WHEN
000622: 26,2024     4744               NRMNVBIT           =        BIT8                                  #  NORMAL DISPLAY      NORMAL DISPLAY
000623:                                                                                                  #  INITIATED           INITIATED
000624:


000626:                                                                                                  #                                BIT 7 FLAG 4              (S)
000627: 26,2024                        PRONVFLG           =        068D                                  #  ASTRONAUT USING     ASTRONAUT NOT USING
000628:                                                                                                  #  KEYBOARD WHEN       KEYBOARD WHEN
000629: 26,2024     4745               PRONVBIT           =        BIT7                                  #  PRIORITY DISPLAY    PRIORITY DISPLAY
000630:                                                                                                  #  INITIATED           INITIATED
000631:
000632:                                                                                                  #                                BIT 6 FLAG 4              (S)
000633: 26,2024                        PINBRFLG           =        069D                                  #  ASTRONAUT HAS       ASTRONAUT HAS NOT
000634:                                                                                                  #  INTERFERED WITH     INTERFERED WITH
000635: 26,2024     4746               PINBRBIT           =        BIT6                                  #  EXISTING DISPLAY    EXISTING DISPLAY
000636:
000637:
000638:                                                                                                  #                                BIT 5 FLAG 4              (S)
000639: 26,2024                        MRUPTFLG           =        070D                                  #  MARK DISPLAY        MARK DISPLAY NOT
000640:                                                                                                  #  INTERRUPTED BY      INTERRUPTED BY
000641: 26,2024     4747               MRUPTBIT           =        BIT5                                  #  PRIORITY DISPLAY    PRIORITY DISPLAY
000642:
000643:
000644:                                                                                                  #                                BIT 4 FLAG 4              (S)
000645: 26,2024                        NRUPTFLG           =        071D                                  #  NORMAL DISPLAY      NORMAL DISPLAY NOT
000646:                                                                                                  #  INTERRUPTED BY      INTERRUPTED BY
000647: 26,2024     4750               NRUPTBIT           =        BIT4                                  #  PRIORITY OR MARK    PRIORITY OR MARK
000648:                                                                                                  #  DISPLAY             DISPLAY
000649:
000650:                                                                                                  #                                BIT 3 FLAG 4              (S)
000651: 26,2024                        MKOVFLAG           =        072D                                  #  MARK DISPLAY OVER   NO MARK DISPLAY OVER
000652: 26,2024     4751               MKOVBIT            =        BIT3                                  #  NORMAL              NORMAL
000653:
000654:                                                                                                  #                                BIT 2 FLAG 4
000655:                                                                                                  #                =               073D
000656:
000657:
000658:
000659:                                                                                                  #                                BIT 1 FLAG 4              (S)
000660: 26,2024                        XDSPFLAG           =        074D                                  #  MARK DISPLAY NOT    NO SPECIAL MARK
000661: 26,2024     4753               XDSPBIT            =        BIT1                                  #  TO BE INTERRUPTED   INFORMATION
000662:
000663:
000664: 26,2024     0101               FLAGWRD5           =        STATE      +5                         #  (075-089)
000665:                                                                                                  #  (SET)               (RESET)
000666:
000667:                                                                                                  #                                BIT 15 FLAG 5             (S)
000668: 26,2024                        DSKYFLAG           =        075D                                  #  DISPLAYS SENT TO    NO DISPLAYS TO DSKY
000669: 26,2024     4735               DSKYFBIT           =        BIT15                                 #  DSKY
000670:
000671:
000672:                                                                                                  #                                BIT 14 FLAG 5
000673:                                                                                                  #                =               076D
000674:                                                                                                  #                =               BIT14


000676:
000677:
000678:                                                                                                  #                                BIT 13 FLAG 5             (S,L)
000679: 26,2024                        SNUFFER            =        077D                                  #  U,V JETS DISABLED   U,V JETS ENABLED
000680:                                                                                                  #  DURING DPS          DURING DPS
000681: 26,2024     4737               SNUFFBIT           =        BIT13                                 #  BURNS (V65)         BURNS (V75)
000682:
000683:
000684:                                                                                                  #                                BIT 12 FLAG 5             (S)
000685: 26,2024                        NOTHROTL           =        078D                                  #  INHIBIT FULL        PERMIT FULL THROTTLE
000686: 26,2024     4740               NOTHRBIT           =        BIT12                                 #  THROTTLE
000687:
000688:
000689:                                                                                                  #                                BIT 11 FLAG 5             (S,L)
000690: 26,2024                        R77FLAG            =        079D                                  #  R77 IS ON,          R77 IS NOT ON.
000691:                                                                                                  #  SUPPRESS ALL RADAR
000692:                                                                                                  #  ALARMS AND TRACKER
000693: 26,2024     4741               R77FLBIT           =        BIT11                                 #  FAILS
000694:
000695:
000696:                                                                                                  #                                BIT 10 FLAG 5             (S)
000697: 26,2024                        RNGSCFLG           =        080D                                  #  SCALE CHANGE HAS    NO SCALE CHANGE HAS
000698:                                                                                                  #  OCCURRED DURING     OCCURRED DURING
000699: 26,2024     4742               RNGSCBIT           =        BIT10                                 #  RR READING          RR READING
000700:
000701:
000702:                                                                                                  #                                BIT 9 FLAG 5              (S)
000703: 26,2024                        DMENFLG            =        081D                                  #  DIMENSION OF W IS 9 DIMENSION OF W IS 6
000704: 26,2024     4743               DMENFBIT           =        BIT9                                  #  FOR INCORPORATION   FOR INCORPORATION
000705:
000706:
000707:                                                                                                  #                                BIT 8 FLAG 5              (S)
000708: 26,2024                        ZOOMFLAG           =        082D                                  #  THROTTLE-UP HAS     THROTTLE-UP HAS NOT
000709: 26,2024     4744               ZOOMBIT            =        BIT8                                  #  OCCURRED IN P63.    YET OCCURRED IN P63.
000710:
000711:
000712:                                                                                                  #                                BIT 7 FLAG 5              (S)
000713: 26,2024                        ENGONFLG           =        083D                                  #  ENGINE TURNED ON    ENGINE TURNED OFF
000714: 26,2024     4745               ENGONBIT           =        BIT7
000715:
000716:
000717:                                                                                                  #                                BIT 6 FLAG 5              (S)
000718: 26,2024                        3AXISFLG           =        084D                                  #  MANEUVER SPECIFIED  MANEUVER SPECIFIED
000719:                                                                                                  #  BY THREE AXES       BY ONE AXIS; R60
000720: 26,2024     4746               3AXISBIT           =        BIT6                                  #                      CALLS VECPOINT.
000721:
000722:
000723:                                                                                                  #                                BIT 5 FLAG 5
000724: 26,2024                        AORBSFLG           =        085D                                  #  PREFER PAXIS JET    PREFER PAXIS JET
000725: 26,2024     4747               AORBSYST           =        BIT5                                  #  PAIRS 7,15 AND 8,16  PAIRS 4,12 AND 3,11


000727:
000728:
000729:                                                                                                  #                                BIT 4 FLAG 5              (S)
000730: 26,2024                        NORRMON            =        086D                                  #  BYPASS RR GIMBAL    PERFORM
000731: 26,2024     4750               NORRMBIT           =        BIT4                                  #  MONITOR             RR GIMBAL MONITOR
000732:
000733:
000734:                                                                                                  #                                BIT 3 FLAG 5              (S)
000735: 26,2024                        SOLNSW             =        087D                                  #  LAMBERT DOES NOT    LAMBERT CONVERGES OR
000736:                                                                                                  #  CONVERGE,OR TIME-RADTIME-RADIUS NON
000737: 26,2024     4751               SOLNSBIT           =        BIT3                                  #  NEARLY CIRCULAR     CIRCULAR
000738:
000739:
000740:                                                                                                  #                                BIT 2 FLAG 5              (S)
000741: 26,2024                        MGLVFLAG           =        088D                                  #  LOCAL VERTICAL      MIDDLE GIMBAL ANGLE
000742:                                                                                                  #  COORDINATES         COMPUTED
000743: 26,2024     4752               MGLVFBIT           =        BIT2                                  #  COMPUTED
000744:
000745:
000746:                                                                                                  #                                BIT 1 FLAG 5              (S)
000747: 26,2024                        RENDWFLG           =        089D                                  #  W MATRIX VALID      W MATRIX INVALID
000748:                                                                                                  #  FOR RENDEZVOUS      FOR RENDEZVOUS
000749: 26,2024     4753               RENDWBIT           =        BIT1                                  #  NAVIGATION          NAVIGATION
000750:
000751:
000752: 26,2024     0102               FLAGWRD6           =        STATE      +6                         #  (090-104)
000753:
000754:                                                                                                  #  (SET)               (RESET)
000755:
000756:                                                                                                  #                                BIT 15 FLAG 6             (S)
000757: 26,2024                        S32.1F1            =        090D                                  #  DELTA V AT CSI TIME  DVT1 LESS THEN MAX
000758: 26,2024     4735               S32BIT1            =        BIT15                                 #  ONE EXCEEDS MAX
000759:
000760:
000761:                                                                                                  #                                BIT 14 FLAG 6             (S)
000762: 26,2024                        S32.1F2            =        091D                                  #  FIRST PASS OF       REITERATION OF
000763: 26,2024     4736               S32BIT2            =        BIT14                                 #  NEWTON ITERATION    NEWTON
000764:
000765:
000766:                                                                                                  #                                BIT 13 FLAG 6 (S)
000767: 26,2024                        S32.1F3A           =        092D                                  #  BIT 13 AND BIT 12 FUNCTION AS AN ORDERED
000768: 26,2024     4737               S32BIT3A           =        BIT13                                 #  PAIR (13,12) INDICATING THE POSSIBLE OC-
000769:                                                                                                  #  CURRANCE OF 2NEWTON ITERATIONS FOR S32.1
000770:                                                                                                  #  IN THE PROGRAM IN THE FOLLOWING ORDER:
000771:                                                                                                  #                                BIT 12 FLAG 6             (0,1) (I.E.BIT 13 RESET,BIT 12 SET)
000772: 26,2024                        S32.1F3B           =        093D                                  #       = FIRST NEWTON ITERATION BEING DONE
000773: 26,2024     4740               S32BIT3B           =        BIT12                                 #  (0,0)= FIRST PASS OF SECOND NEWT.ITERAT.
000774:                                                                                                  #  (1,1)= 50 FT/SEC STAGE OF SEC. NEWT.ITER
000775:                                                                                                  #  (1,0)= REMAINDER OF SECOND NEWTON ITERA.
000776:
000777:


000779:                                                                                                  #                                BIT 11 FLAG 6             (S)
000780:
000781:
000782:                                                                                                  #                                BIT 10 FLAG 6             (S)
000783: 26,2024                        GMBDRVSW           =        095D                                  #  TRIMGIMB OVER       TRIMGIMB NOT OVER
000784: 26,2024     4742               GMBDRBIT           =        BIT10
000785:
000786:
000787:                                                                                                  #                                BIT 9 FLAG 6
000788:                                                                                                  #                =               096D
000789:                                                                                                  #                =               BIT9
000790:
000791:
000792:                                                                                                  #                                BIT 8 FLAG 6              (S)
000793: 26,2024                        MUNFLAG            =        097D                                  #  SERVICER CALLS      SERVICER CALLS
000794: 26,2024     4744               MUNFLBIT           =        BIT8                                  #  MUNRVG              CALCRVG
000795:
000796:
000797:                                                                                                  #                                BIT 7 FLAG 6              (L)
000798: 26,2024                                           =        098D
000799: 26,2024                                           =        BIT7
000800:
000801:
000802:                                                                                                  #                                BIT 6 FLAG 6              (L)
000803: 26,2024                        REDFLAG            =        099D                                  #  LANDING SITE        LANDING SITE
000804:                                                                                                  #  REDESIGNATION       REDESIGNATION NOT
000805: 26,2024     4746               REDFLBIT           =        BIT6                                  #  PERMITTED           PERMITTED
000806:
000807:
000808:                                                                                                  #                                BIT 5 FLAG 6
000809:                                                                                                  #                =               100D
000810:
000811:
000812:                                                                                                  #                                BIT 4 FLAG 6
000813:                                                                                                  #                =               101D
000814:
000815:                                                                                                  #                                BIT 3 FLAG 6              (S)
000816: 26,2024                        NTARGFLG           =        102D                                  #  ASTRONAUT DID       ASTRONAUT DID NOT
000817:                                                                                                  #  OVERWRITE DELTA     OVERWRITE DELTA
000818: 26,2024     4751               NTARGBIT           =        BIT3                                  #  VELOCITY AT TPI     VELOCITY
000819:                                                                                                  #  OR TPM (P34,35)
000820:
000821:                                                                                                  #                                BIT 2 FLAG 6
000822: 26,2024                        AUXFLAG            =        103D                                  #  PROVIDING IDLEFLAG  SERVICER WILL SKIP
000823: 26,2024     4752               AUXFLBIT           =        BIT2                                  #  IS NOT SET, SERV-   DVMON ON ITS NEXT
000824:                                                                                                  #  ICER WILL EXERCISE  PASS EVEN IF THE
000825:                                                                                                  #  DVMON ON ITS NEXT   IDLEFLAG IS NOT SET.
000826:                                                                                                  #  PASS.               IT WILL THEN SET
000827:                                                                                                  #                      AUXFLAG.
000828:


000830:                                                                                                  #                                BIT 1 FLAG 6              (L)
000831: 26,2024                        ATTFLAG            =        104D                                  #  LEM ATTITUDE EXISTS NO LEM ATTITUDE
000832:                                                                                                  #  IN MOON-FIXED       AVAILABLE IN MOON-
000833: 26,2024     4753               ATTFLBIT           =        BIT1                                  #  COORDINATES         FIXED COORDINATES
000834:
000835:
000836: 26,2024     0103               FLAGWRD7           =        STATE      +7                         #  (105-119)
000837:
000838:                                                                                                  #  (SET)               (RESET)
000839:
000840:                                                                                                  #                                BIT 15 FLAG 7             (S)
000841: 26,2024                        ITSWICH            =        105D                                  #  P34;TPI TIME TO BE  TPI HAS BEEN
000842: 26,2024     4735               ITSWBIT            =        BIT15                                 #  COMPUTED            COMPUTED
000843:
000844:
000845:                                                                                                  #                                BIT 14 FLAG 7             (S)
000846: 26,2024                        MANUFLAG           =        106D                                  #  ATTITUDE MANEUVER   NO ATTITUDE MANEUVER
000847:                                                                                                  #  GOING DURING RR     DURING RR SEARCH
000848: 26,2024     4736               MANUFBIT           =        BIT14                                 #  SEARCH
000849:
000850:
000851:                                                                                                  #                                BIT 13 FLAG 7             (S)
000852: 26,2024                        IGNFLAG            =        107D                                  #  TIG HAS ARRIVED     TIG HAS NOT ARRIVED
000853: 26,2024     4737               IGNFLBIT           =        BIT13
000854:
000855:
000856:                                                                                                  #                                BIT 12 FLAG 7             (S)
000857: 26,2024                        ASTNFLAG           =        108D                                  #  ASTRONAUT HAS       ASTRONAUT HAS NOT
000858: 26,2024     4740               ASTNBIT            =        BIT12                                 #  OKAYED IGNITION     OKAYED IGNITION
000859:
000860:
000861:                                                                                                  #                                BIT 11 FLAG 7             (L)
000862: 26,2024                        SWANDISP           =        109D                                  #  LANDING ANALOG      LANDING ANALOG
000863: 26,2024     4741               SWANDBIT           =        BIT11                                 #  DISPLAYS ENABLED    DISPLAYS SUPPRESSED
000864:
000865:
000866:                                                                                                  #                                BIT 10 FLAG 7             (S)
000867: 26,2024                        NORMSW             =        110D                                  #  UNIT NORMAL INPUT   LAMBERT COMPUTES ITS
000868: 26,2024     4742               NORMSBIT           =        BIT10                                 #  TO LAMBERT          OWN UNIT NORMAL
000869:
000870:
000871:                                                                                                  #                                BIT 9 FLAG 7              (S)
000872: 26,2024                        RVSW               =        111D                                  #  DO NOT COMPUTE      COMPUTE FINAL STATE
000873:                                                                                                  #  FINAL STATE VECTOR  VECTOR IN TIME-THETA
000874: 26,2024     4743               RVSWBIT            =        BIT9                                  #  IN TIME-THETA
000875:
000876:
000877:                                                                                                  #                                BIT 8 FLAG 7              (S)
000878: 26,2024                        V67FLAG            =        112D                                  #  ASTRONAUT OVERWRITE  ASTRONAUT DOES NOT
000879:                                                                                                  #  W-MATRIX INITIAL    OVERWRITE W-MATRIX


000881: 26,2024     4744               V67FLBIT           =        BIT8                                  #  VALUES              INITIAL VALUES
000882:
000883:
000884:                                                                                                  #                                BIT 7 FLAG 7              (S)
000885: 26,2024                        IDLEFLAG           =        113D                                  #  NO DV MONITOR       CONNECT DV MONITOR
000886: 26,2024     4745               IDLEFBIT           =        BIT7
000887:
000888:
000889:                                                                                                  #                                BIT 6 FLAG 7              (S)
000890: 26,2024                        V37FLAG            =        114D                                  #  AVERAGEG (SERVICER) AVERAGEG (SERVICER)
000891: 26,2024     4746               V37FLBIT           =        BIT6                                  #  RUNNING             OFF
000892:
000893:
000894:                                                                                                  #                                BIT 5 FLAG 7              (S)
000895: 26,2024                        AVEGFLAG           =        115D                                  #  AVERAGEG (SERVICER) AVERAGEG (SERVICER)
000896: 26,2024     4747               AVEGFBIT           =        BIT5                                  #  DESIRED             NOT DESIRED
000897:
000898:
000899:                                                                                                  #                                BIT 4 FLAG 7              (S)
000900: 26,2024                        UPLOCKFL           =        116D                                  #  K-KBAR-K FAIL       NO K-KBAR-K FAIL
000901: 26,2024     4750               UPLOCBIT           =        BIT4
000902:
000903:
000904:                                                                                                  #                                BIT 3 FLAG 7              (S)
000905: 26,2024                        VERIFLAG           =        117D                                  #  CHANGED WHEN V33E OCCURS AT END OF P27
000906: 26,2024     4751               VERIFBIT           =        BIT3
000907:
000908:
000909:                                                                                                  #                                BIT 2 FLAG 7              (L,C)
000910: 26,2024                        V82EMFLG           =        118D                                  #  MOON VICINITY       EARTH VICINITY
000911: 26,2024     4752               V82EMBIT           =        BIT2
000912:
000913:
000914:                                                                                                  #                                BIT 1 FLAG 7              (S)
000915: 26,2024                        TFFSW              =        119D                                  #  CALCULATE TPERIGEE  CALCULATE TFF
000916: 26,2024     4753               TFFSWBIT           =        BIT1
000917:
000918:
000919: 26,2024     0104               FLAGWRD8           =        STATE      +8D                        #  (120-134)
000920:
000921:                                                                                                  #  (SET)               (RESET)
000922:
000923:                                                                                                  #                                BIT 15 FLAG 8             (S)
000924: 26,2024                        RPQFLAG            =        120D                                  #  RPQ NOT COMPUTED    RPQ COMPUTED
000925:                                                                                                  #  (RPQ = VECTOR BE-
000926: 26,2024     4735               RPQFLBIT           =        BIT15                                 #  TWEEN SECONDARY BODY
000927:                                                                                                  #  AND PRIMARY BODY
000928:
000929:
000930:                                                                                                  #                                BIT 14 FLAG 8


000932:                                                                                                  #                =               121D
000933:                                                                                                  #                =               BIT14
000934:
000935:
000936:                                                                                                  #                                BIT 13 FLAG 8             (S)
000937: 26,2024                        NEWIFLG            =        122D                                  #  FIRST PASS THROUGH  SUCCEEDING ITERATION
000938: 26,2024     4737               NEWIBIT            =        BIT13                                 #  INTEGRATION         OF INTEGRATION
000939:
000940:
000941:                                                                                                  #                                BIT 12 FLAG 8             *** PROTECTED FROM FRESH START ***
000942: 26,2024                        CMOONFLG           =        123D                                  #  PERMANENT CSM STATE PERMANENT CSM STATE
000943: 26,2024     4740               CMOONBIT           =        BIT12                                 #  IN LUNAR SPHERE     IN EARTH SPHERE
000944:
000945:
000946:                                                                                                  #                                BIT 11 FLAG 8             *** PROTECTED FROM FRESH START ***
000947: 26,2024                        LMOONFLG           =        124D                                  #  PERMANENT LM STATE  PERMANENT LM STATE
000948: 26,2024     4741               LMOONBIT           =        BIT11                                 #  IN LUNAR SPHERE     IN EARTH SPHERE
000949:
000950:
000951:                                                                                                  #                                BIT 10 FLAG 8             (L)
000952: 26,2024                        FLUNDISP           =        125D                                  #  CURRENT GUIDANCE    CURRENT GUIDANCE
000953: 26,2024     4742               FLUNDBIT           =        BIT10                                 #  DISPLAYS INHIBITED  DISPLAYS PERMITTED
000954:
000955:
000956:                                                                                                  #                                BIT 9 FLAG 8              (L)
000957:                                                                                                  #                =               126D
000958:                                                                                                  #                =               BIT9
000959:
000960:
000961:                                                                                                  #                                BIT 8 FLAG 8              *** PROTECTED FROM FRESH START ***
000962: 26,2024                        SURFFLAG           =        127D                                  #  LM ON LUNAR SURFACE LM NOT ON LUNAR
000963: 26,2024     4744               SURFFBIT           =        BIT8                                  #                      SURFACE
000964:
000965:
000966:                                                                                                  #                                BIT 7 FLAG 8              (S)
000967: 26,2024                        INFINFLG           =        128D                                  #  NO CONIC SOLUTION   CONIC SOLUTION
000968:                                                                                                  #  (CLOSURE THROUGH    EXISTS
000969: 26,2024     4745               INFINBIT           =        BIT7                                  #  INFINITY REQUIRED)
000970:
000971:
000972:                                                                                                  #                                BIT 6 FLAG 8              (S)
000973: 26,2024                        ORDERSW            =        129D                                  #  ITERATOR USES 2ND   ITERATOR USES 1ST
000974: 26,2024     4746               ORDERBIT           =        BIT6                                  #  ORDER MINIMUM MODE  ORDER STANDARD MODE
000975:
000976:
000977:                                                                                                  #                                BIT 5 FLAG 8              (S)
000978: 26,2024                        APSESW             =        130D                                  #  RDESIRED OUTSIDE    RDESIRED INSIDE
000979:                                                                                                  #  PERICENTER-APOCENTERPERICENTER-APOCENTER
000980: 26,2024     4747               APSESBIT           =        BIT5                                  #  RANGE IN TIME-RADI  RANGE IN TIME-RADIUS
000981:
000982:


000984:                                                                                                  #                                BIT 4 FLAG 8              (S)
000985: 26,2024                        COGAFLAG           =        131D                                  #  NO CONIC SOLUTION - CONIC SOLUTION
000986:                                                                                                  #  TOO CLOSE TO RECTI- EXISTS(COGA DOES NOT
000987: 26,2024     4750               COGAFBIT           =        BIT4                                  #  LINEAR(COGA OVRFLWS) OVERFLOW)
000988:
000989:
000990:                                                                                                  #                                BIT 3 FLAG 8
000991:                                                                                                  #                =               132D
000992:
000993:                                                                                                  #                                BIT 2 FLAG 8              (L)
000994: 26,2024                        INITALGN           =        133D                                  #  INITIAL PASS THRU    SECOND PASS THRU P57
000995: 26,2024     4752               INITABIT           =        BIT2                                  #  P57                 (CHECK RESET-MILLARD)
000996:
000997:
000998:                                                                                                  #                                BIT 1 FLAG 8              (S)
000999: 26,2024                        360SW              =        134D                                  #  TRANSFER ANGLE NEAR TRANSFER ANGLE NOT
001000: 26,2024     4753               360SWBIT           =        BIT1                                  #  360 DEGREES         NEAR 360 DEGREES
001001:
001002:
001003: 26,2024     0105               FLAGWRD9           =        STATE      +9D                        #  (135 - 149)
001004:
001005:                                                                                                  #  (SET)               (RESET)
001006:
001007:
001008:                                                                                                  #                                BIT 15 FLAG 9
001009:                                                                                                  #                =               135D
001010:                                                                                                  #                =               BIT15
001011:
001012:                                                                                                  #                                BIT 14 FLAG 9             (L)
001013: 26,2024                        FLVR               =        136D                                  #  VERTICAL RISE       NON-VERTICAL RISE
001014: 26,2024     4736               FLVRBIT            =        BIT14                                 #  (ASCENT GUIDANCE)
001015:
001016:
001017:                                                                                                  #                                BIT 13 FLAG 9
001018: 26,2024                        P7071FLG           =        137D                                  #  P70 OR P71 IS USING  P12 IS USING THE
001019: 26,2024     4737               P7071BIT           =        BIT13                                 #  ASCENT GUID. EQS.   ASCENT GUID. EQS.
001020:
001021:
001022:                                                                                                  #                                BIT 12 FLAG 9             (L)
001023: 26,2024                        FLPC               =        138D                                  #  NO POSITION CONTROL  POSITION CONTROL
001024: 26,2024     4740               FLPCBIT            =        BIT12                                 #  (ASCENT GUIDANCE)
001025:
001026:
001027:                                                                                                  #                                BIT 11 FLAG 9             (L)
001028: 26,2024                        FLPI               =        139D                                  #  PRE-IGNITION PHASE  REGULAR GUIDANCE
001029: 26,2024     4741               FLPIBIT            =        BIT11                                 #  (ASCENT GUIDANCE)
001030:
001031:
001032:                                                                                                  #                                BIT 10 FLAG 9             (L)
001033: 26,2024                        FLRCS              =        140D                                  #  RCS INJECTION MODE  MAIN ENGINE MODE


001035: 26,2024     4742               FLRCSBIT           =        BIT10                                 #  (ASCENT GUIDANCE)
001036:
001037:
001038:                                                                                                  #                                BIT 9 FLAG 9              (L)
001039: 26,2024                        LETABORT           =        141D                                  #  ABORT PROGRAMS      ABORT PROGRAMS
001040: 26,2024     4743               LETABBIT           =        BIT9                                  #  ARE ENABLED         ARE NOT ENABLED
001041:
001042:
001043:                                                                                                  #                                BIT 8 FLAG 9              (L)
001044: 26,2024                        FLAP               =        142D                                  #  APS CONTINUED ABORT  APS ABORT IS NOT A
001045:                                                                                                  #  AFTER DPS STAGING   CONTINUATION
001046: 26,2024     4744               FLAPBIT            =        BIT8                                  #  (ASCENT GUIDANCE)
001047:
001048:
001049:                                                                                                  #                                BIT 7 FLAG 9              (L)
001050: 26,2024                        ABTTGFLG           =        143D                                  #  J2,K2 PARAMETERS    J1,K1 PARAMETERS
001051: 26,2024     4745               ABTTGBIT           =        BIT7                                  #  USED FOR ABORT      USED FOR ABORT
001052:                                                                                                  #  TARGETING           TARGETING
001053:
001054:                                                                                                  #                                BIT 6 FLAG 9              (L)
001055: 26,2024                        ROTFLAG            =        144D                                  #  P70 AND P71 WILL    P70 AND P71 WILL NOT
001056: 26,2024     4746               ROTFLBIT           =        BIT6                                  #  FORCE VEHICLE       FORCE VEHICLE
001057:                                                                                                  #  ROTATION IN THE     ROTATION IN THE
001058:                                                                                                  #  PREFERRED DIRECTION. PREFERRED DIRECTION
001059:
001060:                                                                                                  #                                BIT 5 FLAG 9              (S)
001061: 26,2024                        QUITFLAG           =        145D                                  #  DISCONTINUE INTEGR. CONTINUE INTEGRATION
001062: 26,2024     4747               QUITBIT            =        BIT5
001063:
001064:
001065:                                                                                                  #                                BIT 4 FLAG 9
001066:                                                                                                  #                =               146D
001067:                                                                                                  #                =               BIT4
001068:
001069:
001070:                                                                                                  #                                BIT 3 FLAG 9              (L)
001071: 26,2024                        MID1FLAG           =        147D                                  #  INTEGRATE TO TDEC   INTEGRATE TO THE
001072: 26,2024     4751               MID1FBIT           =        BIT3                                  #                      THEN-PRESENT TIME
001073:
001074:
001075:                                                                                                  #                                BIT 2 FLAG 9              (L)
001076: 26,2024                        MIDAVFLG           =        148D                                  #  INTEGRATION ENTERED INTEGRATION WAS
001077:                                                                                                  #  FROM ONE OF MIDTOAV NOT ENTERED VIA
001078: 26,2024     4752               MIDAVBIT           =        BIT2                                  #  PORTALS             MIDTOAV
001079:
001080:                                                                                                  #                                BIT 1 FLAG 9              (S)
001081: 26,2024                        AVEMIDSW           =        149D                                  #  AVETOMID CALLING    NO AVETOMID W INTEGR
001082:                                                                                                  #  FOR W.MATRIX INTEGR ALLOW SET UP RN,VN,
001083: 26,2024     4753               AVEMDBIT           =        BIT1                                  #  DONT WRITE OVER RN, PIPTIME
001084:                                                                                                  #  VN,PIPTIME


001086:
001087:
001088: 26,2024     0106               RASFLAG            EQUALS   FLGWRD10                              #  WAS ONLY AN INSTALL- ERASTALL FLAG
001089:
001090:
001091: 26,2024     0106               FLGWRD10           =        STATE      +10D                       #  (150 - 164)
001092:
001093:                                                                                                  #  (SET)               (RESET)
001094:
001095:                                                                                                  #                                BIT 15 FLAG 10
001096:                                                                                                  #                =               150D
001097:
001098:
001099:                                                                                                  #                                BIT 14 FLAG 10            (L,C)
001100: 26,2024                        INTFLAG            =        151D                                  #  INTEGRATION IN      INTEGRATION NOT IN
001101: 26,2024     4736               INTFLBIT           =        BIT14                                 #  PROGRESS            PROGRESS
001102:
001103:
001104:                                                                                                  #                                BIT 13 FLAG 10            (S,L)
001105: 26,2024                        APSFLAG            =        152D                                  #  ASCENT STAGE        DESCENT STAGE
001106: 26,2024     4737               APSFLBIT           =        BIT13                                 #  ***PROTECTED FROM FRESH START ***
001107:
001108:
001109:                                                                                                  #                                BIT 12 FLAG 10
001110:                                                                                                  #                =               153D
001111:
001112:
001113:                                                                                                  #                                BIT 11 FLAG 10
001114:                                                                                                  #                =               154D
001115:
001116:
001117:                                                                                                  #                                BIT 10 FLAG 10
001118:                                                                                                  #                =               155D
001119:
001120:
001121:                                                                                                  #                                BIT  9 FLAG 10
001122:                                                                                                  #                =               156D
001123:
001124:
001125:                                                                                                  #                                BIT  8 FLAG 10
001126:                                                                                                  #                =               157D
001127:
001128:
001129:                                                                                                  #                                BIT 7 FLAG 10             (L,C)
001130: 26,2024                        REINTFLG           =        158D                                  #  INTEGRATION ROUTINE INTEGRATION ROUTINE
001131: 26,2024     4745               REINTBIT           =        BIT7                                  #  TO BE RESTARTED     NOT TO BE RESTARTED
001132:
001133:
001134:                                                                                                  #                                BIT  6 FLAG 10
001135:                                                                                                  #                =               159D


001137:
001138:
001139:                                                                                                  #                                BIT  5 FLAG 10
001140:                                                                                                  #                =               160D
001141:
001142:
001143:                                                                                                  #                                BIT  4 FLAG 10
001144:                                                                                                  #                =               161D
001145:
001146:
001147:                                                                                                  #                                BIT  3 FLAG 10
001148:                                                                                                  #                =               162D
001149:
001150:
001151:                                                                                                  #                                BIT  2 FLAG 10
001152:                                                                                                  #                =               163D
001153:
001154:
001155:                                                                                                  #                                BIT 1 FLAG 10
001156:                                                                                                  #                =               164D
001157:
001158:
001159:
001160:
001161:
001162: 26,2024     0107               FLGWRD11           =        STATE      +11D                       #  (165 - 179)
001163:
001164:                                                                                                  #  (SET)               (RESET)
001165:
001166:                                                                                                  #                                BIT 15 FLAG 11            (L)(R12)
001167: 26,2024                        LRBYPASS           =        165D                                  #  BYPASS ALL LANDING  DO NOT BYPASS LR
001168: 26,2024     4735               LRBYBIT            =        BIT15                                 #  RADAR UPDATES       UPDATES
001169:
001170:
001171:                                                                                                  #                                BIT 14 FLAG 11
001172: 26,2024                        VFAILFLG           =        166D                                  #  LANDING RADAR VEL   LANDING RADAR VEL
001173: 26,2024     4736               VFAILBIT           =        BIT14                                 #  FAILED REAS TEST    PASS REAS TEST
001174:
001175:
001176:                                                                                                  #                                BIT 13 FLAG 11
001177: 26,2024                        HFAILFLG           =        167D                                  #  LANDING RADAR ALT   LANDING RADAR VEL
001178: 26,2024     4737               HFAILBIT           =        BIT13                                 #  FAILED REAS TEST    PASS REAS TEST
001179:
001180:
001181:                                                                                                  #                                BIT 12 FLAG 11            (L)(R12)
001182: 26,2024                        VXINH              =        168D                                  #  IF Z VELOCITY DATA  UPDATE X AXIS
001183:                                                                                                  #  UNREASONABLE,       VELOCITY
001184: 26,2024     4740               VXINHBIT           =        BIT12                                 #  BYPASS X VELOCITY
001185:                                                                                                  #  UPDATE ON NEXT PASS
001186:


001188:                                                                                                  #                                BIT 11 FLAG 11            (L)(R12)
001189: 26,2024                        PSTHIGAT           =        169D                                  #  PAST HIGATE         PREHIGATE
001190: 26,2024     4741               PSTHIBIT           =        BIT11
001191:
001192:
001193:                                                                                                  #                                BIT 10 FLAG 11            (L)(R12)
001194: 26,2024                        NOLRREAD           =        170D                                  #  LANDING RADAR       LR NOT REPOSITIONING
001195:                                                                                                  #  REPOSITIONING;
001196: 26,2024     4742               NOLRRBIT           =        BIT10                                 #  BYPASS UPDATE
001197:
001198:
001199:                                                                                                  #                                BIT 9 FLAG 11             (L)(R12)
001200: 26,2024                        XORFLG             =        171D                                  #  BELOW LIMIT         ABOVE LIMIT DO
001201:                                                                                                  #  INHIBIT X AXIS      NOT INHIBIT
001202: 26,2024     4743               XORFLBIT           =        BIT9                                  #  OVERRIDE
001203:
001204:
001205:                                                                                                  #                                BIT 8 FLAG 11
001206: 26,2024                        LRINH              =        172D                                  #  LANDING RADAR UP-   LR UPDATES INHIBITED
001207: 26,2024     4744               LRINHBIT           =        BIT8                                  #  DATES PERMITTED     BY ASTRONAUT
001208:                                                                                                  #  BY ASTRONAUT
001209:
001210:
001211:                                                                                                  #                                BIT 7 FLAG 11             (L)(R12)
001212: 26,2024                        VELDATA            =        173D                                  #  LR VELOCITY         LR VELOCITY MEASURE
001213: 26,2024     4745               VELDABIT           =        BIT7                                  #  MEASUREMENT MADE    NOT MADE
001214:
001215:
001216:                                                                                                  #                                BIT 6 FLAG 11
001217:                                                                                                  #                =               174D
001218:                                                                                                  #                =               BIT6
001219:
001220:
001221:                                                                                                  #                                BIT 5 FLAG 11
001222:                                                                                                  #                =               175D
001223:                                                                                                  #                =               BIT5
001224:
001225:
001226:                                                                                                  #                                BIT 4 FLAG 11             (L)(R12)
001227: 26,2024                        RNGEDATA           =        176D                                  #  LR ALTITUDE         LR ALTITUDE MEASURE
001228: 26,2024     4750               RNGEDBIT           =        BIT4                                  #  MEASUREMENT MADE    NOT MADE
001229:
001230:
001231:                                                                                                  #                                BIT 3 FLAG 11
001232: 26,2024                        R12RDFLG           =        177D                                  #  WAIT UNTIL ALL VEL  ALLOW R12 PROCESS-
001233: 26,2024     4751               R12RDBIT           =        BIT3                                  #  READS DONE BEFORE   ING OF VELDATA;
001234:                                                                                                  #  R12 PROCESSING      LR VEL READ DONE
001235:
001236:
001237:                                                                                                  #                                BIT 2 FLAG 11             (L)(R12)


001239: 26,2024                        VFLSHFLG           =        178D                                  #  LR VELOCITY FAIL    LR VEL FAIL LAMP
001240: 26,2024     4752               VFLSHBIT           =        BIT2                                  #  LAMP SHOULD BE      SHOULDN'T FLASH
001241:                                                                                                  #  FLASHING
001242:
001243:
001244:                                                                                                  #                                BIT 1 FLAG 11             (L)(R12)
001245: 26,2024                        HFLSHFLG           =        179D                                  #  LR ALTITUDE FAIL    LR ALTITUDE FAIL
001246: 26,2024     4753               HFLSHBIT           =        BIT1                                  #  LAMP SHOULD BE      LAMP SHOULD NOT BE
001247:                                                                                                  #  FLASHING            FLASHING
001248:
001249:
001250: 26,2024     0110               RADMODES           EQUALS   FLGWRD12                              #  RADAR FLAG WORD
001251:
001252:
001253: 26,2024     0110               FLGWRD12           =        STATE      +12D                       #  (180 - 194)     WAS RADMODES
001254:
001255:                                                                                                  #  (SET)               (RESET)
001256:
001257:                                                                                                  #                                BIT 15 FLAG 12
001258: 26,2024                        CDESFLAG           =        180D                                  #  CONTINUOUS DESIG-   LGC CHECKS FOR LOCK-
001259: 26,2024     4735               CDESBIT            =        BIT15                                 #  NATE. LGC COMMANDS  ON WHEN ANTENNA
001260:                                                                                                  #  RR REGARDLESS OF    BEING DESIGNATED
001261:                                                                                                  #  LOCK-ON
001262:
001263:
001264:                                                                                                  #                                BIT 14 FLAG 12
001265: 26,2024                        REMODFLG           =        181D                                  #  CHANGE IN ANTENNA   NO REMODE REQUESTED
001266: 26,2024     4736               REMODBIT           =        BIT14                                 #  MODE BEEN REQUESTED OR OCCURRING
001267:                                                                                                  #  I.E., REMODE
001268:
001269:
001270:                                                                                                  #                                BIT 13 FLAG 12
001271: 26,2024                        RCDU0FLG           =        182D                                  #  RR CDU'S BEING      RR CDU'S NOT BEING
001272: 26,2024     4737               RCDU0BIT           =        BIT13                                 #  ZEROED              ZEROED
001273:
001274:
001275:                                                                                                  #                                BIT 12 FLAG 12
001276: 26,2024                        ANTENFLG           =        183D                                  #  RR ANTENNA MODE IS  RR ANTENNA IN MODE 1
001277: 26,2024     4740               ANTENBIT           =        BIT12                                 #  MODE 2
001278:
001279:
001280:                                                                                                  #                                BIT 11 FLAG 12
001281: 26,2024                        REPOSMON           =        184D                                  #  REPOSITION MONITOR. NO REPOSITION TAKING
001282: 26,2024     4741               REPOSBIT           =        BIT11                                 #  RR REPOSITION IS    PLACE
001283:                                                                                                  #  TAKING PLACE
001284:
001285:
001286:                                                                                                  #                                BIT 10 FLAG 12
001287: 26,2024                        DESIGFLG           =        185D                                  #  RR DESIGNATE        RR DESIGNATE NOT
001288: 26,2024     4742               DESIGBIT           =        BIT10                                 #  REQUESTED OR IN     REQUESTED OR IN


001290:                                                                                                  #  PROGRESS            PROGRESS
001291:
001292:
001293:                                                                                                  #                                BIT 9 FLAG 12
001294: 26,2024                        ALTSCALE           =        186D                                  #  LR ALTITUDE READING LR ALTITUDE READING
001295: 26,2024     4743               ALTSCBIT           =        BIT9                                  #  IS ON HIGH SCALE    IS ON LOW SCALE
001296:
001297:
001298:                                                                                                  #                                BIT 8 FLAG 12
001299: 26,2024                        LRVELFLG           =        187D                                  #  LR VELOCITY DATA    NO LR VELOCITY DATA
001300: 26,2024     4744               LRVELBIT           =        BIT8                                  #  FAIL                FAIL
001301:
001302:
001303:                                                                                                  #                                BIT 7 FLAG 12
001304: 26,2024                        RCDUFAIL           =        188D                                  #  RR CDU FAIL HAS     RR CDU FAIL OCCURRED
001305: 26,2024     4745               RCDUFBIT           =        BIT7                                  #  NOT OCCURRED
001306:
001307:
001308:                                                                                                  #                                BIT 6 FLAG 12
001309: 26,2024                        LRPOSFLG           =        189D                                  #  LANDING RADAR       LR POSITION 1
001310: 26,2024     4746               LRPOSBIT           =        BIT6                                  #  POSITION 2
001311:
001312:
001313:                                                                                                  #                                BIT 5 FLAG 12
001314: 26,2024                        LRALTFLG           =        190D                                  #  LR ALTITUDE DATA    NO LR ALTITUDE DATA
001315: 26,2024     4747               LRALTBIT           =        BIT5                                  #  FAIL. COULD NOT BE  FAIL
001316:                                                                                                  #  READ SUCCESSFULLY.
001317:
001318:
001319:                                                                                                  #                                BIT 4 FLAG 12
001320: 26,2024                        RRDATAFL           =        191D                                  #  RR DATA FAIL.       NO RR DATA FAIL.
001321: 26,2024     4750               RRDATABT           =        BIT4                                  #  DATA COULD NOT BE
001322:                                                                                                  #  READ SUCCESSFULLY
001323:
001324:
001325:                                                                                                  #                                BIT 3 FLAG 12
001326: 26,2024                        RRRSFLAG           =        192D                                  #  RR RANGE READING    RR RANGE READING ON
001327: 26,2024     4751               RRRSBIT            =        BIT3                                  #  ON THE HIGH SCALE   THE LOW SCALE
001328:
001329:
001330:                                                                                                  #                                BIT 2 FLAG 12
001331: 26,2024                        AUTOMODE           =        193D                                  #  RR NOT IN AUTO MODE. RR IN AUTO MODE
001332: 26,2024     4752               AUTOMBIT           =        BIT2                                  #  AUTO MODE DISCRETE
001333:                                                                                                  #  IS NOT PRESENT
001334:
001335:
001336:                                                                                                  #                                BIT 1 FLAG 12
001337: 26,2024                        TURNONFL           =        194D                                  #  RR TURN-ON SEQUENCE NO RR TURN-ON
001338: 26,2024     4753               TURNONBT           =        BIT1                                  #  IN PROGRESS. (ZERO  SEQUENCE IN PROGRESS
001339:                                                                                                  #  CDU'S, FIX ANTENNA


001341:                                                                                                  #  MODE)
001342:
001343:
001344: 26,2024     0111               DAPBOOLS           EQUALS   FLGWRD13                              #  DIGITAL AUTOPILOT FLAGWORD
001345:
001346:
001347: 26,2024     0111               FLGWRD13           =        STATE      +13D                       #  (195 - 209)     WAS DAPBOOLS
001348:
001349:                                                                                                  #  (SET)               (RESET)
001350:
001351:                                                                                                  #                                BIT 15 FLAG 13
001352: 26,2024                        PULSEFLG           =        195D                                  #  MINIMUM IMPULSE     NOT IN MINIMUM
001353: 26,2024     4735               PULSES             =        BIT15                                 #  COMMAND MODE IN     IMPULSE COMMAND MODE
001354:                                                                                                  #  "ATT HOLD" (V76)    (V77)
001355:
001356:
001357:                                                                                                  #                                BIT 14 FLAG 13
001358: 26,2024                        USEQRFLG           =        196D                                  #  GIMBAL UNUSABLE.    TRIM GIMBAL MAY BE
001359: 26,2024     4736               USEQRJTS           =        BIT14                                 #  USE JETS ONLY.      USED.
001360:
001361:
001362:                                                                                                  #                                BIT 13 FLAG 13
001363: 26,2024                        CSMDKFLG           =        197D                                  #  CSM DOCKED. USE     CSM NOT DOCKED TO LM
001364: 26,2024     4737               CSMDOCKD           =        BIT13                                 #  BACKUP DAP
001365:
001366:
001367:                                                                                                  #                                BIT 12 FLAG 13
001368: 26,2024                        OURRCFLG           =        198D                                  #  CURRENT DAP PASS    CURRENT DAP PASS IS
001369: 26,2024     4740               OURRCBIT           =        BIT12                                 #  IS RATE COMMAND     NOT RATE COMMAND
001370:
001371:
001372:                                                                                                  #                                BIT 11 FLAG 13
001373: 26,2024                        ACC4-2FL           =        199D                                  #  4 JET X-AXIS TRANS- 2 JET X-AXIS TRANS-
001374: 26,2024     4741               ACC4OR2X           =        BIT11                                 #  LATION REQUESTED    LATION REQUESTED
001375:
001376:
001377:                                                                                                  #                                BIT 10 FLAG 13
001378: 26,2024                        AORBTFLG           =        200D                                  #  B SYSTEM FOR X-     A SYSTEM FOR X-
001379: 26,2024     4742               AORBTRAN           =        BIT10                                 #  TRANSLATION         TRANSLATION PREFER'D
001380:
001381:
001382:                                                                                                  #                                BIT 9 FLAG 13
001383: 26,2024                        XOVINFLG           =        201D                                  #  X-AXIS OVERRIDE     X-AXIS OVERRIDE OKAY
001384: 26,2024     4743               XOVINHIB           =        BIT9                                  #  LOCKED OUT
001385:
001386:
001387:                                                                                                  #                                BIT 8 FLAG 13
001388: 26,2024                        DRIFTDFL           =        202D                                  #  ASSUME 0 OFFSET     USE OFFSET ACCELERA-
001389: 26,2024     4744               DRIFTBIT           =        BIT8                                  #  DRIFTING FLIGHT.    TION ESTIMATE
001390:
001391:


001393:                                                                                                  #                                BIT 7 FLAG 13
001394: 26,2024                        RHCSCFLG           =        203D                                  #  NORMAL RHC SCALING  FINE RHC SCALING
001395: 26,2024     4745               RHCSCALE           =        BIT7                                  #  REQUESTED           REQUESTED
001396:
001397:
001398:                                                                                                  #                                BIT 6 FLAG 13
001399: 26,2024                        ULLAGFLG           =        204D                                  #  ULLAGE REQUEST BY   NO INTERNAL ULLAGE
001400: 26,2024     4746               ULLAGER            =        BIT6                                  #  MISSION PROGRAM     REQUEST
001401:
001402:
001403:                                                                                                  #                                BIT 5 FLAG 13
001404: 26,2024                        DBSL2FLG           =        205D                                  #  5 DEG DEADBAND      1 OR .3 DEG DEADBAND
001405: 26,2024     4747               DBSLECT2           =        BIT5                                  #  SELECTED BY CREW    SELECTED BY CREW
001406:                                                                                                  #                      (SEE BIT4 DAPBOOLS)
001407:
001408:
001409:                                                                                                  #                                BIT 4 FLAG 13
001410: 26,2024                        DBSELFLG           =        206D                                  #  1 DEG DEADBAND      MIN DB SELECTED BY
001411: 26,2024     4750               DBSELECT           =        BIT4                                  #  SELECTED BY CREW    CREW (0.3 DEG)
001412:
001413:
001414:                                                                                                  #                                BIT 3 FLAG 13
001415: 26,2024                        ACCOKFLG           =        207D                                  #  CONTROL AUTHORITY   RESTART OR FRESH ST.
001416: 26,2024     4751               ACCSOKAY           =        BIT3                                  #  VALUES FROM 1/ACCS  SINCE LAST 1/ACCS;
001417:                                                                                                  #  USABLE              OUTPUTS SUSPECT.
001418:
001419:
001420:                                                                                                  #                                BIT 2 FLAG 13
001421: 26,2024                        AUTR2FLG           =        208D                                  #  THESE FLAGS ARE USED TOGETHER TO INDICAT
001422: 26,2024     4752               AUTRATE2           =        BIT2                                  #  ASTRONAUT-CHOSEN KALCMANU MANEUVER RATES
001423:                                                                                                  #  (0,0)=(BIT2,BIT1)= 0.2 DEG/SEC
001424:                                                                                                  #  (0,1)=  0.5 DEG/SEC
001425:                                                                                                  #                                BIT 1 FLAG 13
001426: 26,2024                        AUTR1FLG           =        209D                                  #  (1,0)=  2.0 DEG/SEC
001427: 26,2024     4753               AUTRATE1           =        BIT1                                  #  (1,1)= 10.0 DEG/SEC
001428:

End of include-file FLAGWORD_ASSIGNMENTS.agc.  Parent file is MAIN.agc


