
Source Code


000002:                                                                                                  ## Copyright:   Public domain.
000003:                                                                                                  ## Filename:    GROUND_TRACKING_DETERMINATION_PROGRAM_-_P21.agc
000004:                                                                                                  ## Purpose:     A section of Luminary revision 178.
000005:                                                                                                  ##              It is part of the reconstructed source code for the final
000006:                                                                                                  ##              release of the flight software for the Lunar Module's
000007:                                                                                                  ##              (LM) Apollo Guidance Computer (AGC) for Apollo 14. The
000008:                                                                                                  ##              code has been recreated from copies of Zerlina 56, Luminary
000009:                                                                                                  ##              210, and Luminary 131, as well as many Luminary memos.
000010:                                                                                                  ##              It has been adapted such that the resulting bugger words
000011:                                                                                                  ##              exactly match those specified for Luminary 178 in NASA
000012:                                                                                                  ##              drawing 2021152N, which gives relatively high confidence
000013:                                                                                                  ##              that the reconstruction is correct.
000014:                                                                                                  ## Reference:   pp. 649-652
000015:                                                                                                  ## Assembler:   yaYUL
000016:                                                                                                  ## Contact:     Ron Burkey <info@sandroid.org>.
000017:                                                                                                  ## Website:     www.ibiblio.org/apollo/index.html
000018:                                                                                                  ## Mod history: 2019-08-14 MAS  Created from Zerlina 56.
000019:


000021:                                                                                                  #  GROUND TRACKING DETERMINATION PROGRAM P21
000022:                                                                                                  #  PROGRAM DESCRIPTION
000023:                                                                                                  #  MOD NO - 1
000024:                                                                                                  #  MOD BY - N.M.NEVILLE
000025:                                                                                                  #  FUNCTIONAL DECRIPTION-
000026:
000027:                                                                                                  #  TO PROVIDE THE ASTRONAUT DETAILS OF THE LM OR CSM GROUND TRACK WITHOUT
000028:                                                                                                  #  THE NEED FOR GROUND COMMUNICATION (REQUESTED BY DSKY).
000029:                                                                                                  #  CALLING SEQUENCE -
000030:
000031:                                                                                                  #  ASTRONAUT REQUEST THROUGH DSKY V37E21E
000032:                                                                                                  #  SUBROUTINES CALLED-
000033:
000034:                                                                                                  #  GOPERF4
000035:                                                                                                  #  GOFLASH
000036:                                                                                                  #  THISPREC
000037:                                                                                                  #  OTHPREC
000038:                                                                                                  #  LAT-LONG
000039:                                                                                                  #  NORMAL EXIT MODES-
000040:
000041:                                                                                                  #  ASTRONAUT REQUEST TROUGH DSKY TO TERMINATE PROGRAM V34E
000042:                                                                                                  #  ALARM OR ABORT EXIT MODES-
000043:
000044:                                                                                                  #  NONE
000045:                                                                                                  #  OUTPUT -
000046:
000047:                                                                                                  #  OCTAL DISPLAY OF OPTION CODE AND VEHICLE WHOSE GROUND TRACK IS TO BE
000048:                                                                                                  #  COMPUTED
000049:                                                                                                  #           OPTION CODE  00002
000050:                                                                                                  #           THIS         00001
000051:                                                                                                  #           OTHER        00002
000052:                                                                                                  #  DECIMAL DISPLAY OF TIME TO BE INTEGRATED TO HOURS , MINUTES , SECONDS
000053:                                                                                                  #  DECIMAL DISPLAY OF LAT,LONG,ALT
000054:                                                                                                  #  ERASABLE INITIALIZATION REQUIRED
000055:
000056:                                                                                                  #  AX0      2DEC   4.652459653 E-5   RADIANS       %68-69 CONSTANTS"
000057:
000058:                                                                                                  #  -AY0     2DEC   2.147535898 E-5   RADIANS
000059:
000060:                                                                                                  #  AZ0      2DEC   .7753206164       REVOLUTIONS
000061:                                                                                                  #  FOR LUNAR ORBITS 504LM VECTOR IS NEEDED
000062:
000063:                                                                                                  #  504LM    2DEC   -2.700340600 E-5  RADIANS
000064:
000065:                                                                                                  #  504LM _2 2DEC   -7.514128400 E-4  RADIANS
000066:
000067:                                                                                                  #  504LM _4 2DEC   _2.553198641 E-4  RADIANS
000068:
000069:                                                                                                  #  NONE
000070:                                                                                                  #  DEBRIS


000072:
000073:                                                                                                  #  CENTRALS-A,Q,L
000074:                                                                                                  #  OTHER-THOSE USED BY THE ABOVE LISTED SUBROUTINES
000075:                                                                                                  #  SEE LEMPREC,LAT-LONG
000076: 35,2455  30,2000                                  SBANK=   LOWSUPER                              #  FOR LOW 2CADR'S.
000077:
000078: 33,2113                                           BANK     33
000079: 24,2000                                           SETLOC   P20S
000080: 24,2000                                           BANK
000081:
000082: 24,3440  E7,1762                                  EBANK=   P21TIME
000083: 24,3440                                           COUNT*   $$/P21
000084: 24,3440           34753        PROG21             CAF      ONE
000085: 24,3441           55144                           TS       OPTION2                               #  ASSUMED VEHICLE IS LM , R2 = 00001
000086: 24,3442           34752                           CAF      BIT2                                  #   OPTION 2
000087: 24,3443           04616                           TC       BANKCALL
000088: 24,3444           20634                           CADR     GOPERF4
000089: 24,3445           06001                           TC       GOTOPOOH                              #  TERMINATE
000090: 24,3446           03450                           TC       +2                                    #  PROCEED VALUE OF ASSUMED VEHICLE OK
000091: 24,3447           03442                           TC       -5                                    #  R2 LOADED THROUGH DSKY
000092: 24,3450           34755                           CAF      ZERO                                  #  INITIAL TIME = PRESENT TIME
000093: 24,3451           55044                           TS       DSPTEM1
000094: 24,3452           55045                           TS       DSPTEM1    +1
000095: 24,3453           33627        P21PROG1           CAF      V6N34                                 #  LOAD DESIRED TIME OF LAT-LONG.
000096: 24,3454           04616                           TC       BANKCALL
000097: 24,3455           20477                           CADR     GOFLASH
000098: 24,3456           06001                           TC       GOTOPOOH                              #  TERM
000099: 24,3457           03461                           TC       +2                                    #  PROCEED VALUES OK
000100: 24,3460           03453                           TC       -5                                    #  TIME LOADED THROUGH DSKY
000101: 24,3461           06042                           TC       INTPRET
000102: 24,3462           53145                           DLOAD    BZE
000103: 24,3463           01045                                    DSPTEM1
000104: 24,3464           51621                                    P21PRTM
000105: 24,3465           34041        P21PROG2           STCALL   TDEC1                                 #  INTEG TO TIME SPECIFIED IN TDEC1
000106: 24,3466           27410                                    INTSTALL
000107: 24,3467           43014                           BON      CLEAR
000108: 24,3470           00304                                    P21FLAG
000109: 24,3471           51507                                    P21CONT                               #  ON---RECYCLE USING BASE VECTOR
000110: 24,3472           01674                                    VINTFLAG                              #  OFF--1ST PASS CALL BASE VECTOR
000111: 24,3473           70535                           SLOAD    SR1
000112: 24,3474           01145                                    OPTION2
000113: 24,3475           43030                           BHIZ     SET
000114: 24,3476           51500                                    +2                                    #  ZERO--THIS VEHICLE(LM)
000115: 24,3477           01474                                    VINTFLAG                              #  ONE--OTHER VEHICLE(CM)
000116: 24,3500           43014                           CLEAR    CLEAR
000117: 24,3501           01676                                    DIM0FLAG
000118: 24,3502           01673                                    INTYPFLG                              #  PRECISION
000119: 24,3503           77624                           CALL
000120: 24,3504           27133                                    INTEGRV                               #  CALCULATE
000121: 24,3505           77650                           GOTO                                           #  -AND


000123: 24,3506           51530                                    P21VSAVE                              #  -SAVE BASE VECTOR
000124: 24,3507           77775        P21CONT            VLOAD
000125: 24,3510           03676                                    P21BASER                              #  RECYCLE--INTEG FROM BASE VECTOR
000126: 24,3511           25535                           STOVL    RCV                                   #  --POS
000127: 24,3512           03704                                    P21BASEV
000128: 24,3513           15543                           STODL    VCV                                   #  --VEL
000129: 24,3514           03763                                    P21TIME
000130: 24,3515           01517                           STORE    TET                                   #  --TIME
000131: 24,3516           43014                           CLEAR    CLEAR
000132: 24,3517           01676                                    DIM0FLAG
000133: 24,3520           00263                                    MOONFLAG
000134: 24,3521           53135                           SLOAD    BZE
000135: 24,3522           01163                                    P21ORIG
000136: 24,3523           51526                                    +3                                    #  ZERO=EARTH
000137: 24,3524           77614                           SET                                            #  ---2=MOON
000138: 24,3525           00063                                    MOONFLAG
000139: 24,3526           77624                 +3        CALL
000140: 24,3527           27106                                    INTEGRVS
000141: 24,3530           77745        P21VSAVE           DLOAD                                          #  SAVE CURRENT BASE VECTOR
000142: 24,3531           00015                                    TAT
000143: 24,3532           27763                           STOVL    P21TIME                               #  --TIME
000144: 24,3533           00017                                    RATT1
000145: 24,3534           27676                           STOVL    P21BASER                              #  --POS B-29 OR B-27
000146: 24,3535           00025                                    VATT1
000147: 24,3536           03704                           STORE    P21BASEV                              #  --VEL B-07 OR B-05
000148: 24,3537           53646                           ABVAL    SL*
000149: 24,3540           57576                                    0,2
000150: 24,3541           27712                           STOVL    P21VEL                                #  VEL/ FOR N91 DISP
000151: 24,3542           00001                                    RATT
000152: 24,3543           50256                           UNIT     DOT
000153: 24,3544           00007                                    VATT                                  #   U(R).V
000154: 24,3545           67471                           DDV      ASIN                                  #  U(R).U(V)
000155: 24,3546           03712                                    P21VEL
000156: 24,3547           03714                           STORE    P21GAM                                #  SIN-1 U(R).U(V) , -90 TO &90
000157: 24,3550           67334                           SXA,2    SLOAD
000158: 24,3551           01162                                    P21ORIG                               #  0=EARTH
000159: 24,3552           01145                                    OPTION2
000160: 24,3553           46142                           SR1      BHIZ
000161: 24,3554           51557                                    +3
000162: 24,3555           77650                           GOTO
000163: 24,3556           51562                                    +4
000164: 24,3557           77614                 +3        BON
000165: 24,3560           04307                                    SURFFLAG
000166: 24,3561           51564                                    P21DSP
000167: 24,3562           77614                 +4        SET
000168: 24,3563           00064                                    P21FLAG
000169: 24,3564           67214        P21DSP             CLEAR    SLOAD                                 #  GENERATE DISPLAY DATA
000170: 24,3565           01663                                    LUNAFLAG
000171: 24,3566           00050                                    X2


000173: 24,3567           43054                           BZE      SET
000174: 24,3570           51572                                    +2                                    #  0=EARTH
000175: 24,3571           01463                                    LUNAFLAG
000176: 24,3572           77775                           VLOAD
000177: 24,3573           00001                                    RATT
000178: 24,3574           16032                           STODL    ALPHAV
000179: 24,3575           00015                                    TAT
000180: 24,3576           45014                           CLEAR    CALL
000181: 24,3577           00662                                    ERADFLAG
000182: 24,3600           26347                                    LAT-LONG
000183: 24,3601           77605                           DMP                                            #  MPAC = ALT,METERS B-29
000184: 24,3602           11631                                    K.01
000185: 24,3603           03716                           STORE    P21ALT                                #  ALT/100 FOR N91 DISP
000186: 24,3604           77776                           EXIT
000187: 24,3605           33626                           CAF      V06N43                                #  DISPLAY LAT,LONG,ALT
000188: 24,3606           04616                           TC       BANKCALL                              #  LAT,LONG = 1/2 REVS B0
000189: 24,3607           20477                           CADR     GOFLASH                               #  ALT = KM  B14
000190: 24,3610           06001                           TC       GOTOPOOH                              #  TERM
000191: 24,3611           06001                           TC       GOTOPOOH
000192: 24,3612           06042                           TC       INTPRET                               #  V32E RECYCLE
000193: 24,3613           43345                           DLOAD    DAD
000194: 24,3614           03763                                    P21TIME
000195: 24,3615           11625                                    600SEC                                #  600 SECONDS OR 10 MIN
000196: 24,3616           01045                           STORE    DSPTEM1
000197: 24,3617           77634                           RTB
000198: 24,3620           51453                                    P21PROG1
000199: 24,3621           52034        P21PRTM            RTB      GOTO
000200: 24,3622           21574                                    LOADTIME
000201: 24,3623           51465                                    P21PROG2
000202: 24,3624           00003 25140  600SEC             2DEC     60000      B-28                       #  10 MIN
000203:
000204: 24,3626           01453        V06N43             VN       00643
000205: 24,3627           01442        V6N34              VN       00634
000206: 24,3630           00243 32703  K.01               2DEC     .01
000207:

End of include-file GROUND_TRACKING_DETERMINATION_PROGRAM_-_P21.agc.  Parent file is MAIN.agc


