
Source Code


000002:                                                                                                  ## Copyright:   Public domain.
000003:                                                                                                  ## Filename:    INTER-BANK_COMMUNICATION.agc
000004:                                                                                                  ## Purpose:     A section of Luminary revision 178.
000005:                                                                                                  ##              It is part of the reconstructed source code for the final
000006:                                                                                                  ##              release of the flight software for the Lunar Module's
000007:                                                                                                  ##              (LM) Apollo Guidance Computer (AGC) for Apollo 14. The
000008:                                                                                                  ##              code has been recreated from copies of Zerlina 56, Luminary
000009:                                                                                                  ##              210, and Luminary 131, as well as many Luminary memos.
000010:                                                                                                  ##              It has been adapted such that the resulting bugger words
000011:                                                                                                  ##              exactly match those specified for Luminary 178 in NASA
000012:                                                                                                  ##              drawing 2021152N, which gives relatively high confidence
000013:                                                                                                  ##              that the reconstruction is correct.
000014:                                                                                                  ## Reference:   pp. 989-992
000015:                                                                                                  ## Assembler:   yaYUL
000016:                                                                                                  ## Contact:     Ron Burkey <info@sandroid.org>.
000017:                                                                                                  ## Website:     www.ibiblio.org/apollo/index.html
000018:                                                                                                  ## Mod history: 2019-08-14 MAS  Created from Zerlina 56.
000019:                                                                                                  ##              2021-05-30 ABS  ISWCALLL -> ISWCALL
000020:


000022:                                                                                                  #           THE FOLLOWING ROUTINE CAN BE USED TO CALL A SUBROUTINE IN ANOTHER BANK. IN THE BANKCALL VERSION, THE
000023:                                                                                                  #  CADR OF THE SUBROUTINE IMMEDIATELY FOLLOWS THE  TC BANKCALL  INSTRUCTION, WITH C(A) AND C(L) PRESERVED.
000024:
000025:    4616                                           BLOCK    02
000026:    4616                                           COUNT*   $$/BANK
000027:    4616           52134        BANKCALL           DXCH     BUF2                                  #  SAVE INCOMING A,L.
000028:    4617           50002                           INDEX    Q                                     #  PICK UP CADR.
000029:    4620           30000                           CA       0
000030:    4621           24002                           INCR     Q                                     #  SO WE RETURN TO THE LOC. AFTER THE CADR.
000031:
000032:                                                                                                  #           SWCALL IS IDENTICAL TO BANKCALL, EXCEPT THAT THE CADR ARRIVES IN A.
000033:
000034:    4622           54001        SWCALL             TS       L
000035:    4623           22004                           LXCH     FBANK                                 #  SWITCH BANKS, SAVING RETURN.
000036:    4624           75012                           MASK     LOW10                                 #  GET SUB-ADDRESS OF CADR.
000037:    4625           56002                           XCH      Q                                     #  A,L NOW CONTAINS DP RETURN.
000038:    4626           52134                           DXCH     BUF2                                  #  RESTORING INPUTS IF THIS IS A BANKCALL.
000039:    4627           50002                           INDEX    Q
000040:    4630           02000                           TC       10000                                 #  SETTING Q TO SWRETURN.
000041:
000042:    4631           56134        SWRETURN           XCH      BUF2       +1                         #  COMES HERE TO RETURN TO CALLER. C(A,L)
000043:    4632           56004                           XCH      FBANK                                 #  ARE PRESERVED FOR RETURN.
000044:    4633           56134                           XCH      BUF2       +1
000045:    4634           00133                           TC       BUF2
000046:
000047:                                                                                                  #           THE FOLLOWING ROUTINE CAN BE USED AS A UNILATERAL JUMP WITH C(A,L) PRESERVED AND THE CADR IMMEDIATELY
000048:                                                                                                  #  FOLLOWING THE TC POSTJUMP INSTRUCTION.
000049:
000050:    4635           56002        POSTJUMP           XCH      Q                                     #  SAVE INCOMING C(A).
000051:    4636           50000                           INDEX    A                                     #  GET CADR.
000052:    4637           30000                           CA       0
000053:
000054:                                                                                                  #           BANKJUMP IS THE SAME AS POSTJUMP, EXCEPT THAT THE CADR ARRIVES IN A.
000055:
000056:    4640           54004        BANKJUMP           TS       FBANK
000057:    4641           75012                           MASK     LOW10
000058:    4642           56002                           XCH      Q                                     #  RESTORING INPUT C(A) IF THIS WAS A
000059:    4643           50002        Q+10000            INDEX    Q                                     #  POSTJUMP.
000060:    4644           12000        PRIO12             TCF      10000                                 #  PRIO12 = TCF   10000 = 12000
000061:


000063:                                                                                                  #           THE FOLLOWING ROUTINE GETS THE RETURN CADR SAVED BY SWCALL OR BANKCALL AND LEAVES IT IN A.
000064:
000065:    4645           35012        MAKECADR           CAF      LOW10
000066:    4646           70133                           MASK     BUF2
000067:    4647           60134                           AD       BUF2       +1
000068:    4650           00002                           TC       Q
000069:
000070:
000071:    4651           54135        SUPDACAL           TS       MPTEMP
000072:    4652           56004                           XCH      FBANK                                 #  SET FBANK FOR DATA.
000073:    4653           00006                           EXTEND
000074:    4654           04007                           ROR      SUPERBNK                              #  SAVE FBANK IN BITS 15-11, AND
000075:    4655           56135                           XCH      MPTEMP                                #   SUPERBANK IN BITS  7-5.
000076:    4656           75012                           MASK     LOW10
000077:    4657           56001                           XCH      L                                     #  SAVE REL. ADR. IN BANK, FETCH SUPERBITS.
000078:    4660           00004                           INHINT                                         #  BECAUSE RUPT DOES NOT SAVE SUPERBANK.
000079:    4661           00006                           EXTEND
000080:    4662           01007                           WRITE    SUPERBNK                              #  SET SUPERBANK FOR DATA.
000081:    4663           50001                           INDEX    L
000082:    4664           32000                           CA       10000                                 #  PINBALL (FIX MEM DISP) PREVENTS DCA HERE
000083:    4665           56135                           XCH      MPTEMP                                #  SAVE 1ST WD, FETCH OLD FBANK AND SBANK.
000084:    4666           00006                           EXTEND
000085:    4667           01007                           WRITE    SUPERBNK                              #  RESTORE SUPERBANK.
000086:    4670           00003                           RELINT
000087:    4671           54004                           TS       FBANK                                 #  RESTORE FBANK.
000088:    4672           30135                           CA       MPTEMP                                #  RECOVER FIRST WORD OF DATA.
000089:    4673           00002                           RETURN                                         #  24 WDS. DATACALL 516 MU, SUPDACAL 432 MU
000090:


000092:                                                                                                  #           THE FOLLOWING ROUTINES ARE IDENTICAL TO BANKCALL AND SWCALL EXCEPT THAT THEY ARE USED IN INTERRUPT.
000093:
000094:    4674           52073        IBNKCALL           DXCH     RUPTREG3                              #  USES RUPTREG3,4 FOR DP RETURN ADDRESS.
000095:    4675           50002                           INDEX    Q
000096:    4676           30000                           CAF      0
000097:    4677           24002                           INCR     Q
000098:
000099:    4700           54001        ISWCALL            TS       L
000100:    4701           22004                           LXCH     FBANK
000101:    4702           75012                           MASK     LOW10
000102:    4703           56002                           XCH      Q
000103:    4704           52073                           DXCH     RUPTREG3
000104:    4705           50002                           INDEX    Q
000105:    4706           02000                           TC       10000
000106:
000107:    4707           56073        ISWRETRN           XCH      RUPTREG4
000108:    4710           56004                           XCH      FBANK
000109:    4711           56073                           XCH      RUPTREG4
000110:    4712           00072                           TC       RUPTREG3
000111:
000112:                                                                                                  #  2. USPRCADR ACCESSES INTERPRETIVE CODING IN OTHER THAN THE USER'S FBANK. THE CALLING SEQUENCE IS AS FOLLOWS:
000113:
000114:                                                                                                  #                                          L        TC     USPRCADR
000115:                                                                                                  #                                          L+1      CADR   INTPRETX        INTPRETX IS THE INTERPRETIVE CODING
000116:                                                                                                  #                                                                          RETURN IS TO L+2
000117:
000118:
000119:    4713           54164        USPRCADR           TS       LOC                                   #  SAVE A
000120:    4714           34744                           CA       BIT8
000121:    4715           54023                           TS       EDOP                                  #  EXIT INSTRUCTION TO EDOP
000122:    4716           30006                           CA       BBANK
000123:    4717           54165                           TS       BANKSET                               #  USER'S BBANK TO BANKSET
000124:    4720           50002                           INDEX    Q
000125:    4721           30000                           CA       0
000126:    4722           54004                           TS       FBANK                                 #  INTERPRETIVE BANK TO FBANK
000127:    4723           75012                           MASK     LOW10                                 #  YIELDS INTERPRETIVE RELATIVE ADDRESS
000128:    4724           56002                           XCH      Q                                     #  INTERPRETIVE ADDRESS TO Q, FETCHING L+1
000129:    4725           56164                           XCH      LOC                                   #  L+1 TO LOC, RETRIEVING ORIGINAL A
000130:    4726           14643                           TCF      Q+10000
000131:


000133:                                                                                                  #  THERE ARE FOUR POSSIBLE SETTINGS FOR CHANNEL 07. (CHANNEL 07 CONTAINS THE SUPERBANK SETTING.)
000134:                                                                                                  #                                            PSEUDO-FIXED     OCTAL PSEUDO
000135:                                                                                                  #  SUPERBANK     SETTING     S-REG. VALUE    BANK NUMBERS     ADDRESSES
000136:                                                                                                  #  ----------    -------     ------------    ------------      ------------
000137:
000138:                                                                                                  #  SUPERBANK 3     0XX       2000 - 3777        30 - 37       70000 - 107777   (WHERE XX CAN BE ANYTHING AND
000139:                                                                                                  #                                                                              WILL USUALLY BE SEEN AS 11)
000140:                                                                                                  #  SUPERBANK 4     100       2000 - 3777        40 - 47       110000 - 127777  (AS FAR AS IT CAN BE SEEN,
000141:                                                                                                  #                                                                              ONLY BANKS 40-43 WILL EVER BE
000142:                                                                                                  #                                                                              AND ARE PRESENTLY AVAILABLE)
000143:                                                                                                  #  SUPERBANK 5     101       2000 - 3777        50 - 57       130000 - 147777  (PRESENTLY NOT AVAILABLE TO
000144:                                                                                                  #                                                                              THE USER)
000145:                                                                                                  #  SUPERBANK 6     110       2000 - 3777        60 - 67       150000 - 167777  (PRESENTLY NOT AVAILABLE TO
000146:                                                                                                  #                                                                              THE USER)
000147:                                                                                                  #  ***  THIS ROUTINE MAYBE CALLED BY ANY PROGRAM LOCATED IN BANKS 00 - 27.  I.E., NO PROGRAM LIVING IN ANY
000148:                                                                                                  #  SUPERBANK SHOULD USE SUPERSW.  ***
000149:
000150:                                                                                                  #  SUPERSW MAYBE CALLED IN THIS FASHION:
000151:
000152:                                                                                                  #           CAF    ABBCON          WHERE  --  ABBCON   BBCON  SOMETHIN  --
000153:                                                                                                  #           TCR    SUPERSW         (THE SUPERBNK BITS ARE IN THE BBCON)
000154:                                                                                                  #           ...      ...
000155:                                                                                                  #            .        .
000156:                                                                                                  #            .        .
000157:
000158:                                                                                                  #  OR IN THIS FASHION :
000159:
000160:                                                                                                  #           CAF    SUPERSET        WHERE SUPERSET IS ONE OF THE FOUR AVAILABLE
000161:                                                                                                  #           TCR    SUPERSW         SUPERBANK BIT CONSTANTS:
000162:                                                                                                  #           ...      ...                                   SUPER011 OCTAL  60
000163:                                                                                                  #            .        .                                    SUPER100 OCTAL 100
000164:                                                                                                  #            .        .                                    SUPER101 OCTAL 120
000165:                                                                                                  #                                                          SUPER110 OCTAL 140
000166:
000167:    4727           00006        SUPERSW            EXTEND
000168:    4730           01007                           WRITE    SUPERBNK                              #  WRITE BITS 7-6-5 OF THE ACCUMULATOR INTO
000169:                                                                                                  #  CHANNEL 07
000170:    4731           00002                           TC       Q                                     #  TC TO INSTRUCTION FOLLOWING
000171:                                                                                                  #    TC  SUPERSW
000172:

End of include-file INTER-BANK_COMMUNICATION.agc.  Parent file is MAIN.agc


