
Source Code


000002:                                                                                                  ## Copyright:   Public domain.
000003:                                                                                                  ## Filename:    LANDING_ANALOG_DISPLAYS.agc
000004:                                                                                                  ## Purpose:     A section of Luminary revision 178.
000005:                                                                                                  ##              It is part of the reconstructed source code for the final
000006:                                                                                                  ##              release of the flight software for the Lunar Module's
000007:                                                                                                  ##              (LM) Apollo Guidance Computer (AGC) for Apollo 14. The
000008:                                                                                                  ##              code has been recreated from copies of Zerlina 56, Luminary
000009:                                                                                                  ##              210, and Luminary 131, as well as many Luminary memos.
000010:                                                                                                  ##              It has been adapted such that the resulting bugger words
000011:                                                                                                  ##              exactly match those specified for Luminary 178 in NASA
000012:                                                                                                  ##              drawing 2021152N, which gives relatively high confidence
000013:                                                                                                  ##              that the reconstruction is correct.
000014:                                                                                                  ## Reference:   pp. 890-898
000015:                                                                                                  ## Assembler:   yaYUL
000016:                                                                                                  ## Contact:     Ron Burkey <info@sandroid.org>.
000017:                                                                                                  ## Website:     www.ibiblio.org/apollo/index.html
000018:                                                                                                  ## Mod history: 2019-08-14 MAS  Created from Zerlina 56.
000019:                                                                                                  ##              2019-09-14 MAS  Re-based on Luminary 210. Restored check
000020:                                                                                                  ##                              of channel 30 bit 6 at LANACONT.
000021:


000023: 21,2130                                           BANK     21
000024: 21,2000                                           SETLOC   R10
000025: 21,2000                                           BANK
000026:
000027: 21,2130  E7,1777                                  EBANK=   END-E7
000028: 21,2130                                           COUNT*   $$/R10
000029:
000030:                                                                                                  #  ****************************************************************************************************************
000031:                                                                                                  #  LANADISP:  DISPLAY INERTIAL DATA ROUTINE FOR DESCENT AND ABORTS                            THIS VERSION BY EYLES
000032:                                                                                                  #  ****************************************************************************************************************
000033:
000034: 21,2130           23722        LANADISP           LXCH     PIPCTR1                               #  UPDATE TBASE2 AND PIPCTR SIMULTANEOUSLY
000035: 21,2131           40025                           CS       TIME1
000036: 21,2132           53055                           DXCH     TBASE2
000037:
000038: 21,2133           40103                           CS       FLAGWRD7                              #  IS LANDING ANALOG DISPLAYS FLAG SET?
000039: 21,2134           74741                           MASK     SWANDBIT
000040: 21,2135           10000                           CCS      A
000041: 21,2136           12621                           TCF      DISPRSET   +1                         #  NO:   GO RESET
000042:
000043:                                                                                                  #  ************************************************************************
000044:                                                                                                  #  COMPUTE VELOCITY VECTOR
000045:                                                                                                  #  ************************************************************************
000046:
000047:                                                                                                  #  DO EVERYTHING POSSIBLE BEFORE READING PIPAS.
000048:
000049: 21,2137           00006                           EXTEND
000050: 21,2140           41702                           DCS      VSURFACE
000051: 21,2141           53721                           DXCH     VVECTX
000052: 21,2142           00006                           EXTEND
000053: 21,2143           31527                           DCA      V
000054: 21,2144           20001                           DDOUBL
000055: 21,2145           20001                           DDOUBL
000056: 21,2146           21721                           DAS      VVECTX
000057:
000058: 21,2147           00006                           EXTEND
000059: 21,2150           41704                           DCS      VSURFACE   +2
000060: 21,2151           53723                           DXCH     VVECTY
000061: 21,2152           00006                           EXTEND
000062: 21,2153           31531                           DCA      V          +2
000063: 21,2154           20001                           DDOUBL
000064: 21,2155           20001                           DDOUBL
000065: 21,2156           21723                           DAS      VVECTY
000066:
000067: 21,2157           00006                           EXTEND
000068: 21,2160           41706                           DCS      VSURFACE   +4
000069: 21,2161           53725                           DXCH     VVECTZ
000070: 21,2162           00006                           EXTEND
000071: 21,2163           31533                           DCA      V          +4
000072: 21,2164           20001                           DDOUBL
000073:


000075: 21,2165           20001                           DDOUBL
000076: 21,2166           21725                           DAS      VVECTZ
000077:
000078:                                                                                                  #  COMPUTE TIME SINCE PIPTIME.
000079:
000080: 21,2167           41234                           CS       PIPTIME    +1
000081: 21,2170           60025                           AD       TIME1
000082: 21,2171           64736                           AD       HALF
000083: 21,2172           64736                           AD       HALF
000084: 21,2173           57717                           XCH      DT                                    #  DT SINCE PIPTIME IN UNITS 0F 2(14) CS
000085:
000086:                                                                                                  #  ADD IN PIPA PULSES.
000087:
000088: 21,2174           31157                           CA       PIPATMPX
000089: 21,2175           60037                           AD       PIPAX
000090: 21,2176           00006                           EXTEND
000091: 21,2177           72000                           MP       LANAKPIP
000092: 21,2200           21721                           DAS      VVECTX
000093:
000094: 21,2201           31160                           CA       PIPATMPY
000095: 21,2202           60040                           AD       PIPAY
000096: 21,2203           00006                           EXTEND
000097: 21,2204           72000                           MP       LANAKPIP
000098: 21,2205           21723                           DAS      VVECTY
000099:
000100: 21,2206           31161                           CA       PIPATMPZ
000101: 21,2207           60041                           AD       PIPAZ
000102: 21,2210           00006                           EXTEND
000103: 21,2211           72000                           MP       LANAKPIP
000104: 21,2212           21725        QUARDUMP           DAS      VVECTZ                                #  TAG IS FOR EDITS
000105:
000106:                                                                                                  #  FINALLY, ADD IN CONTRIBUTIONS OF GRAVITY AND PIPA BIAS.
000107:
000108: 21,2213           31676                           CA       G-VBIASX                              #  G-VBIASX IS IN UNITS OF 2(-9) M/CS/CS
000109: 21,2214           00006                           EXTEND
000110: 21,2215           71717                           MP       DT
000111: 21,2216           21721                           DAS      VVECTX                                #  VVECTX IN UNITS OF 2(5) M/CS
000112:
000113: 21,2217           31677                           CA       G-VBIASY                              #  G-VBIASY IS IN UNITS OF 2(-9) M/CS/CS
000114: 21,2220           00006                           EXTEND
000115: 21,2221           71717                           MP       DT
000116: 21,2222           21723                           DAS      VVECTY                                #  VVECTY IN UNITS OF 2(5) M/CS
000117:
000118: 21,2223           31700                           CA       G-VBIASZ                              #  G-VBIASZ IS IN UNITS OF 2(-9) M/CS/CS
000119: 21,2224           00006                           EXTEND
000120: 21,2225           71717                           MP       DT
000121: 21,2226           21725                           DAS      VVECTZ                                #  VVECTZ IN UNITS OF 2(5) M/CS
000122:
000123:                                                                                                  #  ************************************************************************
000124:                                                                                                  #  COMPUTE ALTITUDE AND ALTITUDE-RATE
000125:


000127:                                                                                                  #  ************************************************************************
000128: 21,2227           31714        ALTSTUFF           CA       RUNITX                                #  COMPUTE RADIAL VELOCITY
000129: 21,2230           00006                           EXTEND
000130: 21,2231           71720                           MP       VVECTX
000131: 21,2232           53727                           DXCH     ALTRATE
000132: 21,2233           31714                           CA       RUNITX                                #  COMPUTE THE MORE SENSITIVE TERM IN DP
000133: 21,2234           00006                           EXTEND
000134: 21,2235           71721                           MP       VVECTX     +1
000135: 21,2236           54001                           TS       L
000136: 21,2237           34755                           CAF      ZERO
000137: 21,2240           21727                           DAS      ALTRATE
000138: 21,2241           31715                           CA       RUNITY                                #  NOTE:  WITH NORMAL DESCENT IMU ALIGNMENT
000139: 21,2242           00006                           EXTEND                                         #    THIS TERM IS ALWAYS ZERO, BUT ALTRATE
000140: 21,2243           71722                           MP       VVECTY                                #    CAN BE DISPLAYED DURING ASCENT TOO
000141: 21,2244           21727                           DAS      ALTRATE
000142: 21,2245           31716                           CA       RUNITZ
000143: 21,2246           00006                           EXTEND
000144: 21,2247           71724                           MP       VVECTZ
000145: 21,2250           21727                           DAS      ALTRATE
000146:
000147: 21,2251           31713                           CA       DALTRATE                              #  COMPENSATE FOR CHANGE IN DIRECTION OF R
000148: 21,2252           00006                           EXTEND
000149: 21,2253           71717                           MP       DT
000150: 21,2254           21727                           DAS      ALTRATE                               #  ALTRATE IN UNITS OF 2(5) M/CS
000151:
000152: 21,2255           00006                           EXTEND
000153: 21,2256           31727                           DCA      ALTRATE
000154: 21,2257           52064                           DXCH     ALTRTEMP
000155: 21,2260           00006                           EXTEND
000156: 21,2261           31712                           DCA      HDOTLAD
000157: 21,2262           20064                           DAS      ALTRTEMP                              #  AVERAGE ALTRATE IN UNITS OF 2(4) M/CS
000158:
000159:                                                                                                  #  THE FOLLOWING COMPUTATION FAILS IF DT EXCEEDS 20.47 SECONDS (UNLIKELY).
000160:
000161: 21,2263           31717                           CA       DT
000162: 21,2264           00006                           EXTEND
000163: 21,2265           74750                           MP       BIT4
000164: 21,2266           30001                           CA       L                                     #  FETCH DT FROM L IN UNITS OF 2(11) CS
000165: 21,2267           00006                           EXTEND
000166: 21,2270           70063                           MP       ALTRTEMP
000167: 21,2271           53731                           DXCH     ALTITUDE
000168: 21,2272           00006                           EXTEND
000169: 21,2273           31710                           DCA      HCALCLAD
000170: 21,2274           21731                           DAS      ALTITUDE                              #  ALTITUDE IN UNITS OF 2(15) METERS
000171:
000172:                                                                                                  #  ************************************************************************
000173:                                                                                                  #  SEND OUT ALTITUDE-RATE IF POSSIBLE
000174:                                                                                                  #  ************************************************************************
000175:


000177: 21,2275           34746        LANACONT           CAF      BIT6                                  #  IS THE METER MODE SWITCH IN PGNCS?
000178: 21,2276           00006                           EXTEND
000179: 21,2277           02030                           RAND     CHAN30
000180: 21,2300           10000                           CCS      A
000181: 21,2301           12620                           TCF      DISPRSET                              #  NO:   GO RESET
000182:
000183: 21,2302           40075                           CS       FLAGWRD1                              #  YES:  IS INITIALIZATION IN ORDER?
000184: 21,2303           74736                           MASK     DIDFLBIT
000185: 21,2304           10000                           CCS      A
000186: 21,2305           12573                           TCF      DISPINIT                              #  YES:  THEN GO DO IT
000187:
000188: 21,2306           34752                           CAF      BIT2                                  #  NO:   ARE RR ERROR COUNTERS ENABLED?
000189: 21,2307           00006                           EXTEND
000190: 21,2310           02012                           RAND     CHAN12
000191: 21,2311           00006                           EXTEND
000192: 21,2312           12620                           BZF      DISPRSET                              #  NO:   REINITIALIZE DISPLAYS
000193: 21,2313           00006        ALTRROUT           EXTEND                                         #  YES:  SIGNIFY ALTITUDE-RATE (BIT2 IN A)
000194: 21,2314           05014                           WOR      CHAN14
000195:
000196: 21,2315           00006                           EXTEND
000197: 21,2316           31727                           DCA      ALTRATE
000198: 21,2317           20001                           DDOUBL                                         #  RESCALE ALTRATE TO UNITS OF 2(2) M/CS
000199: 21,2320           20001                           DDOUBL
000200: 21,2321           20001                           DDOUBL
000201: 21,2322           00006                           EXTEND
000202: 21,2323           72004                           MP       ALTRCONV                              #  RESCALE TO UNITS OF .5 F/S/BIT
000203:
000204: 21,2324           56001                           XCH      L                                     #  ROUND TO NEAREST .5 F/S
000205: 21,2325           60000                           DOUBLE
000206: 21,2326           54002                           TS       Q
000207: 21,2327           34755                           CAF      ZERO
000208: 21,2330           26001                           ADS      L
000209:
000210: 21,2331           64735                           AD       NEGMAX
000211: 21,2332           54001                           TS       L
000212: 21,2333           12336                           TCF      +3
000213: 21,2334           60001                           AD       L
000214: 21,2335           40000                           COM
000215: 21,2336           56060                 +3        XCH      ALTM
000216:
000217: 21,2337           34751                           CAF      BIT3
000218: 21,2340           00006                           EXTEND
000219: 21,2341           05014                           WOR      CHAN14
000220:
000221: 21,2342           35752                           CA       TWELVE                                #  DELAY 120 MS FOR DATA OUTPUT
000222:                                                                                                  #  NOTE - THIS DELAY MUST BE GREATER THAN
000223:                                                                                                  #  100 MS FOR COMPATIBILITY WITH THE LMS
000224: 21,2343           05235                           TC       VARDELAY
000225:
000226: 21,2344           44752        ALTROUT            CS       BIT2                                  #  SIGNIFY ALTITUDE
000227: 21,2345           00006                           EXTEND
000228: 21,2346           03014                           WAND     CHAN14
000229:
000230: 21,2347           31731                           CA       ALTITUDE   +1
000231: 21,2350           00006                           EXTEND
000232: 21,2351           72005                           MP       ALTCONV
000233:


000235: 21,2352           54001                           TS       L
000236: 21,2353           34755                           CAF      ZERO
000237: 21,2354           52064                           DXCH     ALTTEMP
000238: 21,2355           31730                           CA       ALTITUDE
000239: 21,2356           00006                           EXTEND
000240: 21,2357           72005                           MP       ALTCONV
000241: 21,2360           20064                           DAS      ALTTEMP                               #  ALTITUDE IN UNITS OF 9.380 FEET/BIT
000242:
000243: 21,2361           52064                           DXCH     ALTTEMP
000244: 21,2362           20001                           DDOUBL
000245: 21,2363           20001                           DDOUBL                                         #  RESCALE TO UNITS OF 2.345 FEET/BIT
000246: 21,2364           54000                           OVSK
000247: 21,2365           12371                           TCF      +4                                    #  NO OVERFLOW:  -38420 < ALTITUDE < +38420
000248:
000249: 21,2366           74733                           MASK     POSMAX                                #  RESET OVERFLOW
000250: 21,2367           64735                           AD       BIT15
000251: 21,2370           12375                           TCF      +5
000252:
000253: 21,2371           10000                 +4        CCS      A                                     #  APPLY LOWER LIMIT OF POSITIVE ZERO
000254: 21,2372           64753                           AD       ONE
000255: 21,2373           12375                           TCF      +2
000256: 21,2374           34755                           CAF      ZERO
000257:
000258: 21,2375           56060                 +5        XCH      ALTM
000259: 21,2376           34751                           CAF      BIT3
000260: 21,2377           00006                           EXTEND
000261: 21,2400           05014                           WOR      CHAN14
000262:
000263:                                                                                                  #  ************************************************************************
000264:                                                                                                  #  SEND OUT FORWARD AND LATERAL VELOCITIES
000265:                                                                                                  #  ************************************************************************
000266:
000267: 21,2401           02460                           TC       CROSCOMP                              #  FIRST CALL SUBROUTINE TO COMPUTE THEM
000268:
000269: 21,2402           34742                           CAF      BIT10                                 #  1/32 TO ITEMP2 FOR USE AS DIVISOR BELOW
000270: 21,2403           54062                           TS       ITEMP2
000271:
000272: 21,2404           32001                           CAF      MAXVEL                                #  LIMIT COMMAND TO 198.645 F/S
000273: 21,2405           22070                           LXCH     FORVTEMP
000274: 21,2406           02640                           TC       LADLIMIT
000275: 21,2407           22071                           LXCH     FORVTEMP   +1
000276: 21,2410           00006                           EXTEND                                         #  RESCALE TO UNITS OF ONE M/CS
000277: 21,2411           10062                           DV       ITEMP2
000278: 21,2412           00006                           EXTEND                                         #  RESCALE TO UNITS OF .5571 F/S/BIT
000279: 21,2413           72003                           MP       VELCONV
000280: 21,2414           56001                           XCH      L                                     #  ROUND TO NEAREST .5571 F/S
000281: 21,2415           60000                           DOUBLE
000282: 21,2416           54002                           TS       Q
000283: 21,2417           12421                           TCF      FORVOUT
000284: 21,2420           26001                           ADS      L
000285:


000287: 21,2421           41733        FORVOUT            CS       FORVMETR                              #  SUBTRACT METER INDICATOR TO GET CHANGE
000288: 21,2422           26001                           ADS      L
000289: 21,2423           32002                           CA       MAXDBITS
000290: 21,2424           02640                           TC       LADLIMIT                              #  LIMIT CHANGE TO ABOUT 300 F/S
000291: 21,2425           64754                           AD       NEG0
000292: 21,2426           54054                           TS       CDUSCMD
000293: 21,2427           27733                           ADS      FORVMETR                              #  UPDATE METER INDICATOR
000294:
000295: 21,2430           32001                           CAF      MAXVEL                                #  LIMIT COMMAND TO 198.645 F/S
000296: 21,2431           22072                           LXCH     LATVEL
000297: 21,2432           02640                           TC       LADLIMIT
000298: 21,2433           22073                           LXCH     LATVEL     +1
000299: 21,2434           00006                           EXTEND                                         #  RESCALE TO UNITS OF ONE M/CS
000300: 21,2435           10062                           DV       ITEMP2
000301: 21,2436           00006                           EXTEND                                         #  RESCALE TO UNITS OF .5571 F/S/BIT
000302: 21,2437           72003                           MP       VELCONV
000303: 21,2440           56001                           XCH      L                                     #  ROUND TO NEAREST .5571 F/S
000304: 21,2441           60000                           DOUBLE
000305: 21,2442           54002                           TS       Q
000306: 21,2443           12445                           TCF      LATVOUT
000307: 21,2444           26001                           ADS      L
000308: 21,2445           41732        LATVOUT            CS       LATVMETR                              #  SUBTRACT METER INDICATOR TO GET CHANGE
000309: 21,2446           26001                           ADS      L
000310: 21,2447           32002                           CAF      MAXDBITS
000311: 21,2450           02640                           TC       LADLIMIT                              #  LIMIT CHANGE TO ABOUT 300 F/S
000312: 21,2451           64754                           AD       NEG0
000313: 21,2452           54053                           TS       CDUTCMD
000314: 21,2453           27732                           ADS      LATVMETR                              #  UPDATE METER INDICATOR
000315:
000316: 21,2454           35020                           CAF      BITSET                                #  SET DRIVE BITS
000317: 21,2455           00006                           EXTEND
000318: 21,2456           05014                           WOR      CHAN14
000319:
000320: 21,2457           05272        LANADEND           TC       TASKOVER
000321:
000322:                                                                                                  #  ************************************************************************
000323:                                                                                                  #  SUBROUTINE TO COMPUTE FORWARD AND LATERAL VELOCITIES
000324:                                                                                                  #  ************************************************************************
000325:
000326:                                                                                                  #      THE SCALARS VHY AND VHZ, COMPUTED NEXT, ARE THE VELOCITIES ALONG UNIT VECTORS UHYP AND UHZP. UHYP NORMAL
000327:                                                                                                  #  TO THE PRE-PDI ORBITAL PLANE, UHZP IN TURN NORMAL TO UHYP AND THE POSITION VECTOR.  NOW SINCE FOR THE "LANDING
000328:                                                                                                  #  ALIGNMENT" OF THE IMU THE STABLE-MEMBER Y-AXIS IS DEFINED THE SAME WAY AS UHYP, VVECTY IS PRECISELY VHY.
000329:                                                                                                  #  FURTHERMORE, THE Y-TERM OF THE VHZ COMPUTATION DROPS OUT, AND THE FOLLOWING USEFUL EQUALITIES BECOME TRUE:
000330:                                                                                                  #  UHZPX = - RUNITZ AND UHZPZ = RUNITX.  DRAW A PICTURE TO BE CONVINCED.
000331:
000332:                                                                                                  #      NOTE THAT IN THIS VERSION CROSS-POINTER DISPLAYS ARE OUTPUT DURING ASCENT AND ABORTS AS WELL AS DESCENT.
000333:
000334: 21,2460           40074        CROSCOMP           CS       FLAGWRD0                              #  IS R10FLAG SET TO INDICATE ASCENT?
000335: 21,2461           74752                           MASK     R10FLBIT
000336: 21,2462           00006                           EXTEND
000337:


000339: 21,2463           12562                           BZF      APSLAD                                #  YES:  DISPLAY LATVEL IN INERTIAL AXES
000340:
000341: 21,2464           41716                           CS       RUNITZ                                #  NO:   COMPUTE DOWNRANGE VELOCITY
000342: 21,2465           00006                           EXTEND
000343: 21,2466           71720                           MP       VVECTX
000344: 21,2467           52066                           DXCH     VHZ
000345: 21,2470           31714                           CA       RUNITX
000346: 21,2471           00006                           EXTEND
000347: 21,2472           71724                           MP       VVECTZ
000348: 21,2473           20066                           DAS      VHZ
000349: 21,2474           31714                           CA       RUNITX                                #  COMPUTE THE MORE SENSITIVE TERM IN DP
000350: 21,2475           00006                           EXTEND
000351: 21,2476           71725                           MP       VVECTZ     +1
000352: 21,2477           54001                           TS       L
000353: 21,2500           34755                           CAF      ZERO
000354: 21,2501           20066                           DAS      VHZ                                   #  VHZ IN UNITS OF 2(5) M/CS
000355:
000356: 21,2502           00006                           EXTEND
000357: 21,2503           31723                           DCA      VVECTY
000358: 21,2504           52064                           DXCH     VHY                                   #  VHY IN UNITS OF 2(5) M/CS
000359:
000360: 21,2505           35015                           CAF      EBANK6                                #  SWITCH TO DAP EBANK
000361: 21,2506           54003                           TS       EBANK
000362: 21,2507  E6,1417                                  EBANK=   M22
000363:
000364: 21,2507           31420                           CA       M32                                   #  COS(AOG)
000365: 21,2510           00006                           EXTEND
000366: 21,2511           70065                           MP       VHZ
000367: 21,2512           52071                           DXCH     FORVTEMP
000368: 21,2513           41417                           CS       M22                                   #  SIN(AOG)
000369: 21,2514           00006                           EXTEND
000370: 21,2515           70063                           MP       VHY
000371: 21,2516           20071                           DAS      FORVTEMP
000372:
000373: 21,2517           31420                           CA       M32                                   #  COS(AOG)
000374: 21,2520           00006                           EXTEND
000375: 21,2521           70066                           MP       VHZ        +1
000376: 21,2522           54062                           TS       ITEMP2
000377: 21,2523           41417                           CS       M22                                   #  SIN(AOG)
000378: 21,2524           00006                           EXTEND
000379: 21,2525           70064                           MP       VHY        +1
000380: 21,2526           60062                           AD       ITEMP2
000381: 21,2527           54001                           TS       L
000382: 21,2530           34755                           CAF      ZERO
000383: 21,2531           20071                           DAS      FORVTEMP                              #  FORWARD VELOCITY IN UNITS OF 2(5) M/CS
000384:
000385: 21,2532           31417                           CA       M22                                   #  SIN(AOG)
000386: 21,2533           00006                           EXTEND
000387: 21,2534           70065                           MP       VHZ
000388: 21,2535           52073                           DXCH     LATVEL
000389:


000391: 21,2536           31420                           CA       M32                                   #  COS(AOG)
000392: 21,2537           00006                           EXTEND
000393: 21,2540           70063                           MP       VHY
000394: 21,2541           20073                           DAS      LATVEL
000395:
000396: 21,2542           31417                           CA       M22                                   #  SIN(AOG)
000397: 21,2543           00006                           EXTEND
000398: 21,2544           70066                           MP       VHZ        +1
000399: 21,2545           54062                           TS       ITEMP2
000400: 21,2546           31420                           CA       M32                                   #  COS(AOG)
000401: 21,2547           00006                           EXTEND
000402: 21,2550           70064                           MP       VHY        +1
000403: 21,2551           60062                           AD       ITEMP2
000404: 21,2552           54001                           TS       L
000405: 21,2553           34755                           CAF      ZERO
000406: 21,2554           20073                           DAS      LATVEL                                #  LATERAL VELOCITY IN UNITS OF 2(5) M/CS
000407:
000408: 21,2555           24006                           INCR     BBANK                                 #  RETURN TO SERVICER EBANK
000409: 21,2556  E7,1711                                  EBANK=   HDOTLAD
000410:
000411: 21,2556           00006        CROSSOUT           EXTEND                                         #  MOVE FORVTEMP TO FORVEL FOR DSKY DISPLAY
000412: 21,2557           30071                           DCA      FORVTEMP
000413: 21,2560           53735                           DXCH     FORVEL
000414:
000415: 21,2561           00002                           TC       Q
000416:
000417: 21,2562           54070        APSLAD             TS       FORVTEMP                              #  DURING ASCENT AND ABORTS COME HERE TO
000418: 21,2563           54071                           TS       FORVTEMP   +1                         #    DISPLAY LATVEL = SM Y-AXIS VELOCITY
000419:
000420: 21,2564           00006                           EXTEND
000421: 21,2565           31723                           DCA      VVECTY
000422: 21,2566           52073                           DXCH     LATVEL
000423: 21,2567           00006                           EXTEND                                         #  ADD SURFACE VELOCITY BACK IN SO APS
000424: 21,2570           31704                           DCA      VSURFACE   +2                         #    LATVEL DISPLAY WILL BE IN TRUE
000425: 21,2571           20073                           DAS      LATVEL                                #    STABLE-MEMBER COORDINATES
000426:
000427: 21,2572           12556                           TCF      CROSSOUT                              #  REJOIN THE MAINSTREAM
000428:
000429:                                                                                                  #  ************************************************************************
000430:                                                                                                  #  LANDING ANALOG DISPLAYS INITIALIZATION
000431:                                                                                                  #  ************************************************************************
000432:
000433: 21,2573           02460        DISPINIT           TC       CROSCOMP                              #  FIRST COMPUTE BUT NOT OUTPUT VELOCITIES
000434:
000435: 21,2574           40075                           CS       FLAGWRD1                              #  SET DIDFLAG
000436: 21,2575           74736                           MASK     DIDFLBIT
000437: 21,2576           26075                           ADS      FLAGWRD1
000438:
000439: 21,2577           34744                           CAF      BIT8                                  #  SET DISPLAY INERTIAL DATA OUTBIT
000440: 21,2600           00006                           EXTEND
000441:


000443: 21,2601           05012                           WOR      CHAN12
000444:
000445: 21,2602           44755                           CS       ZERO                                  #  ZERO METER INDICATORS
000446: 21,2603           55732                           TS       LATVMETR
000447: 21,2604           55733                           TS       FORVMETR
000448:
000449: 21,2605           34750                           CAF      BIT4                                  #  SET UP TASK TO FINISH INITIALIZATION
000450: 21,2606           05204                           TC       TWIDDLE
000451: 21,2607           02611                           ADRES    INTLZE
000452: 21,2610           12457                           TCF      LANADEND
000453:
000454: 21,2611           34752        INTLZE             CAF      BIT2                                  #  ENABLE RR ERROR COUNTER
000455: 21,2612           00006                           EXTEND
000456: 21,2613           05012                           WOR      CHAN12
000457:
000458: 21,2614           41300                           CS       IMODES33                              #  SET INERTIAL DATA FLAG
000459: 21,2615           74744                           MASK     BIT8
000460: 21,2616           27300                           ADS      IMODES33
000461: 21,2617           05272                           TC       TASKOVER
000462:
000463:                                                                                                  #  ************************************************************************
000464:                                                                                                  #  LANDING ANALOG DISPLAYS RESET ROUTINE
000465:                                                                                                  #  ************************************************************************
000466:
000467: 21,2620           02460        DISPRSET           TC       CROSCOMP                              #  FIRST COMPUTE BUT NOT OUTPUT VELOCITIES
000468:
000469: 21,2621           44736                 +1        CS       DIDFLBIT                              #  RESET DIDFLAG
000470: 21,2622           70075                           MASK     FLAGWRD1
000471: 21,2623           54075                           TS       FLAGWRD1
000472:
000473: 21,2624           34744                           CAF      BIT8                                  #  WAS INERTIAL DATA JUST DISPLAYED?
000474: 21,2625           71300                           MASK     IMODES33
000475: 21,2626           10000                           CCS      A
000476: 21,2627           34752                           CAF      BIT2                                  #  YES:  DISABLE RR ERROR COUNTER AND
000477: 21,2630           64744                           AD       BIT8                                  #  NO:   RESET DISPLAY INERTIAL DATA OUTBIT
000478: 21,2631           40000                           COM
000479: 21,2632           00006                           EXTEND
000480: 21,2633           03012                           WAND     CHAN12
000481:
000482: 21,2634           44744                           CS       BIT8
000483: 21,2635           71300                           MASK     IMODES33
000484: 21,2636           55300                           TS       IMODES33
000485: 21,2637           12457                           TCF      LANADEND
000486:
000487:                                                                                                  #  ************************************************************************
000488:                                                                                                  #  CONSTANTS FOR LANDING ANALOG DISPLAYS
000489:                                                                                                  #  ************************************************************************
000490:
000491:                                                                                                  #  CONSTANTS ON A-CARDS ARE FOUND IN THE CONTROLLED CONSTANTS SECTION
000492:


000494:                                                                                                  #  LANAKPIP        DEC             .0512                 SCALES PIPAS TO UNITS OF 2(5) M/CS
000495:
000496:                                                                                                  #  MAXVEL          OCT             00466                 198.645 F/S IN UNITS OF 2(5) M/CS
000497:
000498:                                                                                                  #  MAXDBITS        OCT             01034                 ABOUT 300 F/S
000499:
000500:                                                                                                  #  VELCONV         DEC             .03594                SCALES VEL AT ONE M/CS TO .5571 F/S/BIT
000501:
000502:                                                                                                  #  ALTRCONV        DEC             .16020                SCALES ALTR AT 2(2) M/CS TO .5 F/S/BIT
000503:
000504:                                                                                                  #  ALTCONV         DEC             .69954                SCALES ALTITUDE AT 2(15) M TO 9.38 F/BIT
000505:
000506: 21,2640     5020               BITSET             =        PRIO6                                 #  CROSS-POINTER DRIVE BITS
000507:
000508:                                                                                                  #  ************************************************************************
000509:                                                                                                  #  SUBROUTINES
000510:                                                                                                  #  ************************************************************************
000511: 21,2640           54061        LADLIMIT           TS       ITEMP1
000512: 21,2641           34755                           CAF      ZERO
000513: 21,2642           00006                           EXTEND
000514: 21,2643           10061                           DV       ITEMP1
000515: 21,2644           10000                           CCS      A
000516: 21,2645           22061                           LXCH     ITEMP1
000517: 21,2646           12650                           TCF      +2
000518: 21,2647           12652                           TCF      +3
000519: 21,2650           30001                           CA       L
000520: 21,2651           00002                           TC       Q
000521: 21,2652           40061                           CS       ITEMP1
000522: 21,2653           00002                           TC       Q
000523:
000524:                                                                                                  #  ************************************************************************
000525:                                                                                                  #  THE END OF THE LANDING ANALOG DISPLAYS
000526:                                                                                                  #  ************************************************************************

End of include-file LANDING_ANALOG_DISPLAYS.agc.  Parent file is MAIN.agc


