
Source Code


000002:                                                                                                  ## Copyright:   Public domain.
000003:                                                                                                  ## Filename:    LUNAR_LANDING_GUIDANCE_EQUATIONS.agc
000004:                                                                                                  ## Purpose:     A section of Luminary revision 178.
000005:                                                                                                  ##              It is part of the reconstructed source code for the final
000006:                                                                                                  ##              release of the flight software for the Lunar Module's
000007:                                                                                                  ##              (LM) Apollo Guidance Computer (AGC) for Apollo 14. The
000008:                                                                                                  ##              code has been recreated from copies of Zerlina 56, Luminary
000009:                                                                                                  ##              210, and Luminary 131, as well as many Luminary memos.
000010:                                                                                                  ##              It has been adapted such that the resulting bugger words
000011:                                                                                                  ##              exactly match those specified for Luminary 178 in NASA
000012:                                                                                                  ##              drawing 2021152N, which gives relatively high confidence
000013:                                                                                                  ##              that the reconstruction is correct.
000014:                                                                                                  ## Reference:   pp. 784-821
000015:                                                                                                  ## Assembler:   yaYUL
000016:                                                                                                  ## Contact:     Ron Burkey <info@sandroid.org>.
000017:                                                                                                  ## Website:     www.ibiblio.org/apollo/index.html
000018:                                                                                                  ## Mod history: 2019-08-14 MAS  Created from Zerlina 56.
000019:                                                                                                  ##              2019-09-10 MAS  Initial attempt at updating for Luminary
000020:                                                                                                  ##                              178, based on 131, 210, flowcharts, and
000021:                                                                                                  ##                              Luminary memos. There are many changes;
000022:                                                                                                  ##                              see issue #1093 on GitHub for a full list.
000023:


000025: 31,2366  E7,1621                                  EBANK=   E2DPS
000026:
000027: 31,2366                                           COUNT*   $$/F2DPS
000028:
000029:                                                                                                  #  ****************************************************************************************************************
000030:                                                                                                  #  LUNAR LANDING FLIGHT SEQUENCE TABLES
000031:                                                                                                  #  ****************************************************************************************************************
000032:
000033:                                                                                                  #  FLIGHT SEQUENCE TABLES ARE ARRANGED BY FUNCTION.   THEY ARE REFERENCED USING AS AN INDEX THE REGISTER WCHPHASE:
000034:
000035:                                                                                                  #                                                      WCHPHASE  =  -1  --->  IGNALG
000036:                                                                                                  #                                                      WCHPHASE  =   0  --->  BRAKQUAD
000037:                                                                                                  #                                                      WCHPHASE  =   1  --->  APPRQUAD
000038:                                                                                                  #                                                      WCHPHASE  =   2  --->  VERTICAL
000039:
000040:                                                                                                  #  ***************************************************************************************************************
000041:
000042:                                                                                                  #  ROUTINES FOR STARTING NEW GUIDANCE PHASES:
000043:
000044: 31,2366           12567                           TCF      TTFINCR                               #  IGNALG
000045: 31,2367           12567        NEWPHASE           TCF      TTFINCR                               #  BRAKQUAD
000046: 31,2370           12550                           TCF      STARTP64                              #  APPRQUAD
000047: 31,2371           12452                           TCF      STARTP66                              #  VERTICAL
000048:
000049:
000050:                                                                                                  #  PRE-GUIDANCE COMPUTATIONS:
000051:
000052: 31,2372           12747                           TCF      CALCRGVG                              #  IGNALG
000053: 31,2373           12757        PREGUIDE           TCF      RGVGCALC                              #  BRAKQUAD
000054: 31,2374           12650                           TCF      REDESIG                               #  APPRQUAD
000055:
000056:
000057:                                                                                                  #  GUIDANCE EQUATIONS:
000058:
000059: 31,2375           13022                           TCF      TTF/8CL                               #  IGNALG
000060: 31,2376           13022        WHATGUID           TCF      TTF/8CL                               #  BRAKQUAD
000061: 31,2377           13022                           TCF      TTF/8CL                               #  APPRQUAD
000062:
000063:
000064:                                                                                                  #  POST GUIDANCE EQUATION COMPUTATIONS:
000065:
000066: 31,2400           13225                           TCF      CGCALC                                #  IGNALG
000067: 31,2401           13212        AFTRGUID           TCF      EXTLOGIC                              #  BRAKQUAD
000068: 31,2402           13212                           TCF      EXTLOGIC                              #  APPRQUAD
000069:


000071:                                                                                                  #  WINDOW VECTOR COMPUTATIONS:
000072:
000073: 31,2403           13275                           TCF      EXGSUB                                #  IGNALG
000074: 31,2404           13316        WHATEXIT           TCF      EXBRAK                                #  BRAKQUAD
000075: 31,2405           13324                           TCF      EXNORM                                #  APPRQUAD
000076:
000077:
000078:                                                                                                  #  DISPLAY ROUTINES:
000079:
000080: 31,2406           13435        WHATDISP           TCF      P63DISPS                              #  BRAKQUAD
000081: 31,2407           13441                           TCF      P64DISPS                              #  APPRQUAD
000082: 31,2410           13472                           TCF      VERTDISP                              #  VERTICAL
000083:
000084:
000085:                                                                                                  #  ALARM ROUTINE FOR TTF COMPUTATION:
000086:
000087: 31,2411           13721                           TCF      1406POO                               #  IGNALG
000088: 31,2412           13723        WHATALM            TCF      1406ALM                               #  BRAKQUAD
000089: 31,2413           13723                           TCF      1406ALM                               #  APPRQUAD
000090:
000091:
000092:                                                                                                  #  INDICES FOR REFERENCING TARGET PARAMETERS:
000093:
000094: 31,2414           00000                           OCT      0                                     #  IGNALG
000095: 31,2415           00000        TARGTDEX           OCT      0                                     #  BRAKQUAD
000096: 31,2416           00002                           OCT      2                                     #  APPRQUAD
000097:


000099:
000100:                                                                                                  #  ****************************************************************************************************************
000101:                                                                                                  #  ENTRY POINTS:  ?GUIDSUB FOR THE IGNITION ALGORITHM, LUNLAND FOR SERVOUT
000102:                                                                                                  #  ****************************************************************************************************************
000103:
000104:                                                                                                  #  IGNITION ALGORITHM ENTRY:  DELIVERS N PASSES OF QUADRATIC QUIDANCE
000105:
000106: 31,2417           77776        ?GUIDSUB           EXIT
000107: 31,2420           34752                           CAF      TWO                                   #  N = 3
000108: 31,2421           55647                           TS       NGUIDSUB
000109: 31,2422           12532                           TCF      GUILDRET   +2
000110:
000111: 31,2423           55647        GUIDSUB            TS       NGUIDSUB                              #  ON SUCEEDING PASSES SKIP TTFINCR
000112: 31,2424           12747                           TCF      CALCRGVG
000113:
000114:                                                                                                  #  NORMAL ENTRY:  CONTROL COMES HERE FROM SERVOUT
000115:
000116: 31,2425           05364        LUNLAND            TC       PHASCHNG
000117: 31,2426           00035                           OCT      00035                                 #  GROUP 5:  RETAIN ONLY PIPA TASK
000118: 31,2427           30101                           CA       FLAGWRD5                              #  HAS THROTTLE-UP COME YET?
000119: 31,2430           74744                           MASK     ZOOMBIT
000120: 31,2431           00006                           EXTEND
000121: 31,2432           13427                           BZF      DISPEXIT   +3                         #  NO:   DO DISPLAYS ONLY
000122:
000123: 31,2433           05364                           TC       PHASCHNG                              #  YES:  DO GUIDANCE
000124: 31,2434           05023                           OCT      05023
000125: 31,2435           20000                           OCT      20000
000126:


000128:                                                                                                  #  ****************************************************************************************************************
000129:                                                                                                  #  GUILDENSTERN:  AUTO-MODES MONITOR (R13)
000130:                                                                                                  #  ****************************************************************************************************************
000131:
000132: 31,2436                                           COUNT*   $$/R13
000133:
000134:                                                                                                  #  THE PHILOSOPHY OF GUILDENSTERN:  ON EVERY APPEARANCE OF THE ATTITUDE-HOLD DISCRETE CHECK TO SEE IF THE ROD SWITCH
000135:                                                                                                  #  HAS BEEN CLICKED.  IF SO, SELECT P66.  IF THE DAP IS IN AUTO AND THE                                     PRESENT
000136:                                                                                                  #  9PROGRAM IN PROGRESS IS P66, CHECK FOR A
000137:                                                                                                  #  RESTART. IF ONE HAS OCCURED RE-INITIALIZE P66 AND CONTINUE OTHERWISE YOUCONTINUE WITH PRESENT DATA IN P66.TO
000138:                                                                                                  #  SELECT P66 THE ATTITUDE-HOLD DISCRETE MUST BE PRESENT AND THE ROD SWITCH MUST HAVE BEEN CLICKED. OTHERWISE THE
000139:                                                                                                  #  AUTOMATIC LANDING WILL CONTINUE.
000140:
000141: 31,2436           41010        GUILDEN            CS       MODREG                                #  ARE WE IN P66?  (EVEN THO WE ARE IN AUTO
000142: 31,2437           62454                           AD       DEC66                                 #  DAP)
000143: 31,2440           00006                           EXTEND
000144: 31,2441           12523                           BZF      RESTART?                              #  YES:  GO SE IF THERE HAS BEEN A RESTART
000145:
000146: 31,2442           34737                           CAF      BIT13                                 #  NO:  IS UN-ATTITUDE-HOLD DISCRETE HERE?
000147: 31,2443           00006                           EXTEND
000148: 31,2444           02031                           RAND     CHAN31
000149: 31,2445           10000                           CCS      A
000150: 31,2446           12530                           TCF      GUILDRET                              #  YES:  ALL'S WELL, OR AT LEAST AUTOMATIC
000151:
000152: 31,2447           31746                           CA       RODCOUNT                              #  NO:  HAS ROD SWITCH BEEN CLICKED
000153: 31,2450           00006                           EXTEND
000154: 31,2451           12530                           BZF      GUILDRET                              #  NO:  CONTINUE WITH THE AUTOMATIC LANDING
000155:
000156: 31,2452           03741        STARTP66           TC       FASTCHNG                              #  YES
000157: 31,2453           05322                           TC       NEWMODEX
000158: 31,2454           00102        DEC66              DEC      66         B-14
000159:
000160: 31,2455           00006                           EXTEND
000161: 31,2456           31474                           DCA      HDOTDISP                              #  SET DESIRED ALTITUDE RATE = CURRENT
000162: 31,2457           53645                           DXCH     VDGVERT                               #        ALTITUDE RATE.
000163:
000164: 31,2460           05515                           TC       UPFLAG                                #  SET FLAG TO CONTINUE P66 HORIZONTAL
000165: 31,2461           00016                           ADRES    P66PROFL                              #     UNTIL 'PROCEED' AFTER TOUCHDOWN
000166:
000167: 31,2462           41354                           CS       TOOFEW                                #  INITIALIZE CNTTHROT TO -TOOFEW
000168: 31,2463           55623                           TS       CNTTHROT
000169:
000170: 31,2464           06042        STRTP66A           TC       INTPRET
000171: 31,2465           47375                           VLOAD    VXV                                   #  COMPUTE HORIZONTAL VELOCITY COMMAND
000172: 31,2466           02325                                    WM                                    #  MOON'S ANGULAR RATE IN 2(-17)RAD/CS
000173: 31,2467           03521                                    R                                     #  LM POSITION IN 2(24)M
000174: 31,2470           27434                           STOVL    VHZC
000175: 31,2471           01254                                    TEMX
000176: 31,2472           77676                           VCOMP
000177: 31,2473           27764                           STOVL    OLDPIPAX
000178: 31,2474           06470                                    ZEROVECS
000179: 31,2475           17767                           STODL    DELVROD
000180:


000182: 31,2476           02535                                    RODSCALE
000183: 31,2477           17757                           STODL    RODSCAL1
000184:
000185: 31,2500           01234                                    PIPTIME
000186: 31,2501           03760                           STORE    LASTTPIP
000187:
000188: 31,2502           77776                           EXIT
000189:
000190: 31,2503           04616                           TC       BANKCALL                              #  REFER CURRENT PIPAX READING TO THE CM:
000191: 31,2504           65414                           FCADR    DEIMUBOB                              #     ALAS, OMEGAQ AT PIPTIME NOT AVAILABLE
000192:
000193: 31,2505           34755                           CAF      ZERO
000194: 31,2506           55620                           TS       FCOLD
000195: 31,2507           55610                           TS       FWEIGHT
000196: 31,2510           55611                           TS       FWEIGHT    +1
000197:
000198: 31,2511           34752                           CAF      TWO                                   #  WCHPHOLD=2 --> VERTICAL  PHASE
000199: 31,2512           55621                           TS       WCHPHOLD
000200:
000201: 31,2513           55346                           TS       WCHPHASE
000202:
000203: 31,2514           05527                           TC       DOWNFLAG                              #  PERMIT X-AXIS OVERRIDE
000204: 31,2515           00311                           ADRES    XOVINFLG                              #  SHOULD DO INTERPRETIVELY TO SAVE A WORD
000205:
000206: 31,2516           05515                           TC       UPFLAG                                #  TERMINATE TERRAIN MODEL
000207: 31,2517           00023                           ADRES    NOTERFLG                              #  SHOULD DO INTERPRETIVELY TO SAVE A WORD
000208:
000209: 31,2520           05515                           TC       UPFLAG                                #  P66 INITIALIZATION COMPLETE
000210: 31,2521           00022                           ADRES    RODFLAG
000211:
000212: 31,2522           13507                           TCF      P66
000213:
000214: 31,2523           30075        RESTART?           CA       FLAGWRD1                              #  HAS THERE BEEN A RESTART?
000215: 31,2524           74740                           MASK     RODFLBIT
000216: 31,2525           00006                           EXTEND
000217: 31,2526           12464                           BZF      STRTP66A                              #  Y
000218:                                                                                                  #  N
000219: 31,2527           13507                           TCF      P66
000220:


000222:                                                                                                  #  ****************************************************************************************************************
000223:                                                                                                  #  INITIALIZATION FOR THIS PASS
000224:                                                                                                  #  ****************************************************************************************************************
000225:
000226: 31,2530                                           COUNT*   $$/F2DPS
000227:
000228: 31,2530           34755        GUILDRET           CAF      ZERO
000229: 31,2531           55746                           TS       RODCOUNT
000230:
000231: 31,2532           00006                           EXTEND
000232: 31,2533           31625                           DCA      TPIP
000233: 31,2534           53574                           DXCH     TPIPOLD
000234:
000235: 31,2535           03741                           TC       FASTCHNG
000236:
000237: 31,2536           00006                           EXTEND
000238: 31,2537           31561                           DCA      PIPTIME1
000239: 31,2540           53625                           DXCH     TPIP
000240:
000241: 31,2541           00006                           EXTEND
000242: 31,2542           31643                           DCA      TTF/8
000243: 31,2543           53553                           DXCH     TTF/8TMP
000244:
000245: 31,2544           11623                           CCS      FLPASS0
000246: 31,2545           12567                           TCF      TTFINCR
000247:
000248: 31,2546           51346        BRSPOT1            INDEX    WCHPHASE
000249: 31,2547           12367                           TCF      NEWPHASE
000250:
000251:                                                                                                  #  ****************************************************************************************************************
000252:                                                                                                  #  ROUTINES TO START NEW PHASES
000253:                                                                                                  #  ****************************************************************************************************************
000254:
000255: 31,2550           05322        STARTP64           TC       NEWMODEX
000256: 31,2551           00100                           DEC      64         B-14
000257: 31,2552           31425                           CA       DELTTFAP                              #  AUGMENT TTF/8
000258: 31,2553           27552                           ADS      TTF/8TMP
000259: 31,2554           00004                           INHINT
000260: 31,2555           06022                           TC       C13STALL
000261: 31,2556           34740                           CA       BIT12                                 #  ENABLE RUPT10
000262: 31,2557           00006                           EXTEND
000263: 31,2560           05013                           WOR      CHAN13
000264: 31,2561           33751                           CAF      P64DB
000265: 31,2562           55343                           TS       DB
000266: 31,2563           05527                           TC       DOWNFLAG                              #  INITIALIZE REDESIGNATION FLAG
000267: 31,2564           00143                           ADRES    REDFLAG
000268:
000269: 31,2565           31756                           CA       LRWH1                                 #  PUT P64 LR WEIGHTING FUNCTION INTO
000270: 31,2566           55421                           TS       LRWH                                  #  LRWH SO LR UPDATES ARE DONE PROPERLY
000271:                                                                                                  #                (CONTINUE TO TTFINCR)
000272:
000273:                                                                                                  #  ****************************************************************************************************************
000274:                                                                                                  #  INCREMENT TTF/8, UPDATE LAND FOR LUNAR ROTATION, DO OTHER USEFUL THINGS
000275:                                                                                                  #  ****************************************************************************************************************
000276:


000278:
000279:                                                                                                  #           TTFINCR COMPUTATIONS ARE AS FOLLOWS:-
000280:
000281:                                                                                                  #                     TTF/8 UPDATED FOR TIME SINCE LAST PASS:
000282:
000283:                                                                                                  #                                TTF/8 = TTF/8 + (TPIP - TPIPOLD)/8
000284:
000285:                                                                                                  #                     LANDING SITE VECTOR UPDATED FOR LUNAR ROTATION:
000286:
000287:                                                                                                  #                                -                  -      -                      -
000288:                                                                                                  #                                LAND = /LAND/ UNIT(LAND - LAND(TPIP - TPIPOLD) * WM)
000289:
000290:                                                                                                  #                     SLANT RANGE TO LANDING SITE, FOR DISPLAY:
000291:
000292:                                                                                                  #                                                 -      -
000293:                                                                                                  #                                RANGEDSP = ABVAL(LAND - R)
000294:
000295: 31,2567           06042        TTFINCR            TC       INTPRET
000296: 31,2570           45345                           DLOAD    DSU
000297: 31,2571           03625                                    TPIP
000298: 31,2572           03574                                    TPIPOLD
000299: 31,2573           41461                           SLR      PUSH                                  #  SHIFT SCALES DELTA TIME TO 2(17) CSECS
000300: 31,2574           21214                                    11D
000301: 31,2575           47361                           VXSC     VXV
000302: 31,2576           03635                                    LAND
000303: 31,2577           02325                                    WM
000304: 31,2600           47045                           BVSU     RTB
000305: 31,2601           03635                                    LAND
000306: 31,2602           21727                                    NORMUNIT
000307: 31,2603           76561                           VXSC     VSL1
000308: 31,2604           02333                                    /LAND/
000309: 31,2605           17545                           STODL    LANDTEMP
000310: 31,2606           77776                           EXIT
000311:
000312: 31,2607           52155                           DXCH     MPAC
000313: 31,2610           21553                           DAS      TTF/8TMP                              #  NOW HAVE INCREMENTED TTF/8 IN TTF/8TMP
000314:
000315: 31,2611           03741                           TC       FASTCHNG
000316:
000317: 31,2612           00006                           EXTEND
000318: 31,2613           31553                           DCA      TTF/8TMP
000319: 31,2614           53643                           DXCH     TTF/8
000320:
000321: 31,2615           03672                           TC       TDISPSET
000322:
000323: 31,2616           37721                           CAF      PRIO31                                #  TEMPORARILY OVER-PRIO CHARIN
000324: 31,2617           05146                           TC       PRIOCHNG
000325:
000326: 31,2620           06042                           TC       INTPRET
000327: 31,2621           53375                           VLOAD    VAD                                   #  ADD IN CORRECTION FROM NOUN 69
000328: 31,2622           03545                                    LANDTEMP
000329:


000331: 31,2623           02632                                    DLAND
000332: 31,2624           03635                           STORE    LAND
000333: 31,2625           77646                           ABVAL                                          #  RECOMPUTE /LAND/
000334: 31,2626           02333                           STORE    /LAND/
000335: 31,2627           77776                           EXIT
000336:
000337: 31,2630           03741                           TC       FASTCHNG                              #  SINCE REDESIG MAY CHANGE LANDTEMP
000338:
000339: 31,2631           35014                           CAF      EBANK5
000340: 31,2632  E5,1631                                  EBANK=   DLAND
000341: 31,2632           54003                           TS       EBANK
000342: 31,2633           34755                           CAF      ZERO                                  #  ZERO N 69 REGISTERS
000343: 31,2634           55631                           TS       DLAND
000344: 31,2635           55632                           TS       DLAND      +1
000345: 31,2636           55633                           TS       DLAND      +2
000346: 31,2637           55634                           TS       DLAND      +3
000347: 31,2640           55635                           TS       DLAND      +4
000348: 31,2641           55636                           TS       DLAND      +5
000349: 31,2642           35016                           CAF      EBANK7
000350: 31,2643  E7,1666                                  EBANK=   TREDES
000351: 31,2643           54003                           TS       EBANK
000352:
000353: 31,2644           34736                           CAF      PRIO20
000354: 31,2645           05146                           TC       PRIOCHNG
000355:
000356: 31,2646           51346        BRSPOT2            INDEX    WCHPHASE
000357: 31,2647           12373                           TCF      PREGUIDE
000358:
000359:                                                                                                  #  ****************************************************************************************************************
000360:                                                                                                  #  LANDING SITE PERTURBATION EQUATIONS
000361:                                                                                                  #  ****************************************************************************************************************
000362:
000363: 31,2650           30102        REDESIG            CA       FLAGWRD6                              #  IS REDFLAG SET?
000364: 31,2651           74746                           MASK     REDFLBIT
000365: 31,2652           00006                           EXTEND
000366: 31,2653           12757                           BZF      RGVGCALC                              #  NO:   SKIP REDESIGNATION LOGIC
000367:
000368: 31,2654           31666                           CA       TREDES                                #  YES:  HAS TREDES REACHED ZERO?
000369: 31,2655           00006                           EXTEND
000370: 31,2656           12757                           BZF      RGVGCALC                              #  YES:  SKIP REDESIGNATION LOGIC
000371:
000372: 31,2657           00004                           INHINT
000373: 31,2660           31645                           CA       ELINCR1
000374: 31,2661           55554                           TS       ELINCR
000375: 31,2662           31644                           CA       AZINCR1
000376: 31,2663           55556                           TS       AZINCR
000377: 31,2664           03741                           TC       FASTCHNG
000378:
000379: 31,2665           34755                           CA       ZERO
000380: 31,2666           55645                           TS       ELINCR1
000381:


000383: 31,2667           55644                           TS       AZINCR1
000384: 31,2670           55555                           TS       ELINCR     +1
000385: 31,2671           55557                           TS       AZINCR     +1
000386:
000387: 31,2672           30120                           CA       FIXLOC                                #  SET PD TO 0
000388: 31,2673           54166                           TS       PUSHLOC
000389:
000390: 31,2674           06042                           TC       INTPRET
000391: 31,2675           52375                           VLOAD    VSU
000392: 31,2676           03635                                    LAND
000393: 31,2677           03521                                    R                                     #                  -      -
000394: 31,2700           41434                           RTB      PUSH                                  #  PUSH DOWN UNIT (LAND - R)
000395: 31,2701           21727                                    NORMUNIT
000396: 31,2702           76435                           VXV      VSL1
000397: 31,2703           02154                                    YNBPIP                                #                     -          -      -
000398: 31,2704           65361                           VXSC     PDDL                                  #  PUSH DOWN - ELINCR(YNB * UNIT(LAND - R))
000399: 31,2705           03555                                    ELINCR
000400: 31,2706           03557                                    AZINCR
000401: 31,2707           52361                           VXSC     VSU
000402: 31,2710           02154                                    YNBPIP
000403: 31,2711           41455                           VAD      PUSH                                  #  RESULTING VECTOR IS 1/2 REAL SIZE
000404:
000405: 31,2712           45345                           DLOAD    DSU                                   #  MAKE SURE REDESIGNATION IS NOT
000406: 31,2713           00001                                    0                                     #    TOO CLOSE TO THE HORIZON
000407: 31,2714           05660                                    DEPRCRIT
000408: 31,2715           71240                           BMN      DLOAD
000409: 31,2716           62721                                    REDES1
000410: 31,2717           05660                                    DEPRCRIT
000411: 31,2720           00001                           STORE    0
000412: 31,2721           45345        REDES1             DLOAD    DSU
000413: 31,2722           03635                                    LAND
000414: 31,2723           03521                                    R
000415: 31,2724           74271                           DDV      VXSC
000416: 31,2725           00001                                    0
000417: 31,2726           53455                           VAD      UNIT
000418: 31,2727           03521                                    R
000419: 31,2730           76561                           VXSC     VSL1
000420: 31,2731           02333                                    /LAND/
000421: 31,2732           03545                           STORE    LANDTEMP
000422: 31,2733           77776                           EXIT                                           #  LOOKANGL WILL BE COMPUTED AT RGVGCALC
000423:
000424: 31,2734           03741                           TC       FASTCHNG
000425:
000426: 31,2735           00006                           EXTEND
000427: 31,2736           31545                           DCA      LANDTEMP
000428: 31,2737           53635                           DXCH     LAND
000429: 31,2740           00006                           EXTEND
000430: 31,2741           31547                           DCA      LANDTEMP   +2
000431: 31,2742           53637                           DXCH     LAND       +2
000432: 31,2743           00006                           EXTEND
000433:


000435: 31,2744           31551                           DCA      LANDTEMP   +4
000436: 31,2745           53641                           DXCH     LAND       +4
000437:
000438: 31,2746           12757                           TCF      RGVGCALC
000439:
000440:                                                                                                  #  ****************************************************************************************************************
000441:                                                                                                  #  COMPUTE STATE IN GUIDANCE COORDINATES
000442:                                                                                                  #  ****************************************************************************************************************
000443:
000444:                                                                                                  #             RGVGCALC COMPUTATIONS ARE AS FOLLOWS:-
000445:
000446:                                                                                                  #                      VELOCITY RELATIVE TO THE SURFACE:
000447:
000448:                                                                                                  #                                  -         -   -   -
000449:                                                                                                  #                                  ANGTERM = V + R * WM
000450:
000451:                                                                                                  #                      STATE IN GUIDANCE COORDINATES:
000452:
000453:                                                                                                  #                                  -     *   -   -
000454:                                                                                                  #                                  RGU = CG (R - LAND)
000455:
000456:                                                                                                  #                                  -     *   -   -    -
000457:                                                                                                  #                                  VGU = CG (V - WM * R)
000458:
000459:                                                                                                  #                      DEPRESSION ANGLE FOR DISPLAY:
000460:
000461:                                                                                                  #                                                         -   -     -
000462:                                                                                                  #                                  LOOKANGL = ARCSIN(UNIT(R - LAND).XMBPIP)
000463:
000464: 31,2747           06042        CALCRGVG           TC       INTPRET                               #  IN IGNALG, COMPUTE V FROM INTEGRATION
000465: 31,2750           64375                           VLOAD    MXV                                   #    OUTPUT AND TRIM CORRECTION TERM
000466: 31,2751           00025                                    VATT1                                 #    COMPUTED LAST PASS AND LEFT IN UNFC/2
000467: 31,2752           01732                                    REFSMMAT
000468: 31,2753           53362                           VSR1     VAD
000469: 31,2754           03253                                    UNFC/2
000470: 31,2755           03527                           STORE    V
000471: 31,2756           77776                           EXIT
000472:
000473: 31,2757           06042        RGVGCALC           TC       INTPRET                               #  ENTER HERE TO RECOMPUTE RG AND VG
000474: 31,2760           47375                           VLOAD    VXV
000475: 31,2761           03521                                    R
000476: 31,2762           02325                                    WM
000477: 31,2763           70455                           VAD      VSR2                                  #  RESCALE TO UNITS OF 2(9) M/CS
000478: 31,2764           03527                                    V
000479: 31,2765           02231                           STORE    ANGTERM
000480: 31,2766           77721                           MXV
000481: 31,2767           02572                                    CG                                    #  NO SHIFT SINCE ANGTERM IS DOUBLE SIZED
000482: 31,2770           27627                           STOVL    VGU
000483: 31,2771           03521                                    R                                     #            -   -
000484: 31,2772           41451                           VSU      PUSH                                  #  PUSH DOWN R - LAND
000485:


000487: 31,2773           03635                                    LAND
000488: 31,2774           76521                           MXV      VSL1
000489: 31,2775           02572                                    CG
000490: 31,2776           02624                           STORE    RGU
000491: 31,2777           77646                           ABVAL
000492: 31,3000           26614                           STOVL    RANGEDSP                              #  SM Z-AXIS RANGE FOR DISPLAY IN N68
000493: 31,3001           50234                           RTB      DOT                                   #  NOW IN MPAC IS SINE(LOOKANGL)/4
000494: 31,3002           21727                                    NORMUNIT
000495: 31,3003           02146                                    XNBPIP
000496: 31,3004           77776                           EXIT
000497:
000498: 31,3005           30120                           CA       FIXLOC                                #  RESET PUSH DOWN POINTER
000499: 31,3006           54166                           TS       PUSHLOC
000500:
000501: 31,3007           30154                           CA       MPAC                                  #  COMPUTE LOOKANGL ITSELF
000502: 31,3010           60000                           DOUBLE
000503: 31,3011           04616                           TC       BANKCALL
000504: 31,3012           61654                           CADR     SPARCSIN   -1
000505: 31,3013           63755                           AD       1/2DEG
000506: 31,3014           61353                           AD       ELBIAS                                #  BIAS LPD ANGLE FOR WINDOW BENDING
000507: 31,3015           00006                           EXTEND
000508: 31,3016           73754                           MP       180DEGS
000509: 31,3017           55667                           TS       LOOKANGL                              #  LOOKANGL FOR DISPLAY DURING P64
000510:
000511: 31,3020           51346        BRSPOT3            INDEX    WCHPHASE
000512: 31,3021           12376                           TCF      WHATGUID
000513:
000514:                                                                                                  #  ****************************************************************************************************************
000515:                                                                                                  #  TTF/8 COMPUTATION
000516:                                                                                                  #  ****************************************************************************************************************
000517:
000518: 31,3022           03665        TTF/8CL            TC       INTPRETX
000519: 31,3023           77743                           DLOAD*
000520: 31,3024           02443                                    JDG2TTF,1
000521: 31,3025           23571                           STODL*   TABLTTF    +6                         #  A(3) = 8 JDG  TO TABLTTF
000522: 31,3026           02437                                    ADG2TTF,1                             #              2
000523: 31,3027           17567                           STODL    TABLTTF    +4                         #  A(2) = 6 ADG  TO TABLTTF
000524: 31,3030           03633                                    VGU        +4                         #              2
000525: 31,3031           42605                           DMP      DAD*
000526: 31,3032           05656                                    3/4DP
000527: 31,3033           02433                                    VDG2TTF,1
000528: 31,3034           23565                           STODL*   TABLTTF    +2                         #  A(1) = (6 VGU  + 18 VDG )/8 TO TABLTTF
000529: 31,3035           02407                                    RDG        +4,1                       #               2         2
000530: 31,3036           41225                           DSU      DMP
000531: 31,3037           02630                                    RGU        +4
000532: 31,3040           05654                                    3/8DP
000533: 31,3041           03563                           STORE    TABLTTF                               #  A(0) = -24 (RGU  - RDG )/64 TO TABLTTF
000534: 31,3042           77776                           EXIT                                           #                 2      2
000535:


000537:
000538: 31,3043           34744                           CA       BIT8
000539: 31,3044           55572                           TS       TABLTTF    +10                        #  FRACTIONAL PRECISION FOR TTF TO TABLE
000540:
000541: 31,3045           00006                           EXTEND
000542: 31,3046           31643                           DCA      TTF/8
000543: 31,3047           52155                           DXCH     MPAC                                  #  LOADS TTF/8 (INITIAL GUESS) INTO MPAC
000544: 31,3050           34752                           CAF      TWO                                   #  DEGREE - ONE
000545: 31,3051           54001                           TS       L
000546: 31,3052           33747                           CAF      TABLTTFL
000547: 31,3053           03535                           TC       ROOTPSRS                              #  YIELDS TTF/8 IN MPAC
000548: 31,3054           51346                           INDEX    WCHPHASE
000549: 31,3055           12412                           TCF      WHATALM
000550:
000551: 31,3056           00006                           EXTEND                                         #  GOOD RETURN
000552: 31,3057           30155                           DCA      MPAC                                  #  FETCH TTF/8 KEEPING IT IN MPAC
000553: 31,3060           53643                           DXCH     TTF/8                                 #  CORRECTED TTF/8
000554:
000555: 31,3061           03672                           TC       TDISPSET
000556:
000557:                                                                                                  #                (CONTINUE TO QUADGUID)
000558:
000559:                                                                                                  #  ****************************************************************************************************************
000560:                                                                                                  #  MAIN GUIDANCE EQUATION
000561:                                                                                                  #  ****************************************************************************************************************
000562:
000563:                                                                                                  #                       AS PUBLISHED:-
000564:
000565:                                                                                                  #                                                -     -        -     -
000566:                                                                                                  #                                  -     -     6(VDG + VG)   12(RDG - RG)
000567:                                                                                                  #                                  ACG = ADG + ----------- + ------------
000568:                                                                                                  #                                                  TTF        (TTF)(TTF)
000569:
000570:                                                                                                  #                       AS HERE PROGRAMMED:-
000571:
000572:                                                                                                  #                                              -     -
000573:                                                                                                  #                                       3 (1/4(RDG - RG)   -     - )
000574:                                                                                                  #                                       - (------------- + VDG + VG)
000575:                                                                                                  #                                 -     4 (    TTF/8               )   -
000576:                                                                                                  #                                 ACG = ---------------------------- + ADG
000577:                                                                                                  #                                                  TTF/8
000578:
000579: 31,3062           41642        QUADGUID           CS       TTF/8
000580: 31,3063           61426                           AD       LEADTIME                              #  LEADTIME IS A NEGATIVE NUMBER
000581: 31,3064           64733                           AD       POSMAX                                #  SAFEGUARD THE COMPUTATIONS THAT FOLLOW
000582: 31,3065           54001                           TS       L                                     #    BY FORCING -TTF+LEADTIME > OR = ZERO
000583: 31,3066           40001                           CS       L
000584: 31,3067           60001                           AD       L
000585: 31,3070           22007                           ZL
000586: 31,3071           00006                           EXTEND
000587:


000589: 31,3072           11642                           DV       TTF/8
000590: 31,3073           54130                           TS       BUF                                   #  - RATIO OF LAG-DIMINISHED TTF TO TTF
000591: 31,3074           00006                           EXTEND
000592: 31,3075           70000                           SQUARE
000593: 31,3076           54131                           TS       BUF        +1
000594: 31,3077           60130                           AD       BUF
000595: 31,3100           56131                           XCH      BUF        +1                         #  RATIO SQUARED - RATIO
000596: 31,3101           60131                           AD       BUF        +1
000597: 31,3102           54154                           TS       MPAC                                  #  COEFFICIENT FOR VGU TERM
000598: 31,3103           60131                           AD       BUF        +1
000599: 31,3104           50120                           INDEX    FIXLOC
000600: 31,3105           54032                           TS       26D                                   #  COEFFICIENT FOR RDG-RGU TERM
000601: 31,3106           60131                           AD       BUF        +1
000602: 31,3107           50120                           INDEX    FIXLOC
000603: 31,3110           54034                           TS       28D                                   #  COEFFICIENT FOR VDG TERM
000604: 31,3111           60130                           AD       BUF
000605: 31,3112           64733                           AD       POSMAX
000606: 31,3113           60131                           AD       BUF        +1
000607: 31,3114           60131                           AD       BUF        +1
000608: 31,3115           50120                           INDEX    FIXLOC
000609: 31,3116           54036                           TS       30D                                   #  COEFFICIENT FOR ADG TERM
000610:
000611: 31,3117           34755                           CAF      ZERO
000612: 31,3120           54163                           TS       MODE
000613:
000614: 31,3121           03665                           TC       INTPRETX
000615: 31,3122           65361                           VXSC     PDDL
000616: 31,3123           03627                                    VGU
000617: 31,3124           00035                                    28D
000618: 31,3125           47157                           VXSC*    RTB
000619: 31,3126           02413                                    VDG,1
000620: 31,3127           63661                                    ZEROMID
000621: 31,3130           47113                           PDVL*    RTB
000622: 31,3131           02403                                    RDG,1
000623: 31,3132           63661                                    ZEROMID
000624: 31,3133           70251                           VSU      V/SC
000625: 31,3134           02624                                    RGU
000626: 31,3135           03643                                    TTF/8
000627: 31,3136           74342                           VSR2     VXSC
000628: 31,3137           00033                                    26D
000629: 31,3140           53255                           VAD      VAD
000630: 31,3141           74341                           V/SC     VXSC
000631: 31,3142           03643                                    TTF/8
000632: 31,3143           05656                                    3/4DP
000633: 31,3144           73725                           PDDL     VXSC*
000634: 31,3145           00037                                    30D
000635: 31,3146           02423                                    ADG,1
000636: 31,3147           53234                           RTB      VAD
000637: 31,3150           63661                                    ZEROMID
000638:


000640: 31,3151           76505        AFCCALC1           VXM      VSL1                                  #  VERTGUID COMES HERE
000641: 31,3152           02572                                    CG
000642: 31,3153           70315                           PDVL     V/SC
000643: 31,3154           01236                                    GDT/2
000644: 31,3155           05652                                    GSCALE
000645: 31,3156           45445                           BVSU     STADR
000646: 31,3157           74524                           STORE    UNFC/2                                #  UNFC/2 NEED NOT BE UNITIZED
000647: 31,3160           77646                           ABVAL
000648: 31,3161           17464        AFCCALC2           STODL    /AFC/                                 #  MAGNITUDE OF AFC FOR THROTTLE
000649: 31,3162           03253                                    UNFC/2                                #  VERTICAL COMPONENT
000650: 31,3163           65316                           DSQ      PDDL
000651: 31,3164           03255                                    UNFC/2     +2                         #  OUT-OF-PLANE
000652: 31,3165           65316                           DSQ      PDDL
000653: 31,3166           05650                                    HIGHESTF
000654: 31,3167           63471                           DDV      DSQ
000655: 31,3170           01244                                    MASS                                  #                         2    2     2
000656: 31,3171           45225                           DSU      DSU                                   #  AMAXHORIZ = SQRT(ATOTAL - A  -  A  )
000657: 31,3172           71244                           BPL      DLOAD                                 #                             1     0
000658: 31,3173           63175                                    AFCCALC3
000659: 31,3174           06470                                    ZEROVECS
000660: 31,3175           43366        AFCCALC3           SQRT     DAD
000661: 31,3176           03257                                    UNFC/2     +4
000662: 31,3177           44244                           BPL      BDSU
000663: 31,3200           63203                                    AFCCLEND
000664: 31,3201           03257                                    UNFC/2     +4
000665: 31,3202           03257                           STORE    UNFC/2     +4
000666: 31,3203           77776        AFCCLEND           EXIT
000667: 31,3204           03741                           TC       FASTCHNG
000668:
000669: 31,3205           31346                           CA       WCHPHASE                              #  PREPARE FOR PHASE SWITCHING LOGIC
000670: 31,3206           55621                           TS       WCHPHOLD
000671: 31,3207           25623                           INCR     FLPASS0                               #  INCREMENT PASS COUNTER
000672:
000673: 31,3210           51346        BRSPOT4            INDEX    WCHPHASE
000674: 31,3211           12401                           TCF      AFTRGUID
000675:
000676:                                                                                                  #  ****************************************************************************************************************
000677:                                                                                                  #  NEW PHASE NOW?
000678:                                                                                                  #  ****************************************************************************************************************
000679:
000680: 31,3212           51346        EXTLOGIC           INDEX    WCHPHASE                              #  IS TTF NEARER ZERO THAN CRITERION?
000681: 31,3213           31423                           CA       TENDBRAK
000682: 31,3214           61642                           AD       TTF/8
000683: 31,3215           00006                           EXTEND
000684: 31,3216           63225                           BZMF     CGCALC                                #  NO
000685:
000686: 31,3217           03741                           TC       FASTCHNG                              #  YES:  INCREMENT WCHPHASE, ZERO FLPASS0
000687:
000688: 31,3220           31621                           CA       WCHPHOLD
000689: 31,3221           64753                           AD       ONE
000690:


000692: 31,3222           55346                           TS       WCHPHASE
000693: 31,3223           34755                           CAF      ZERO
000694: 31,3224           55623                           TS       FLPASS0
000695:
000696:                                                                                                  #                (CONTINUE TO CGCALC)
000697:
000698:                                                                                                  #  ***************************************************************************************************************
000699:                                                                                                  #  ERECT GUIDANCE-STABLE MEMBER TRANSFORMATION MATRIX
000700:                                                                                                  #  ***************************************************************************************************************
000701:
000702: 31,3225           35014        CGCALC             CAF      EBANK5
000703: 31,3226           54003                           TS       EBANK
000704: 31,3227  E5,1453                                  EBANK=   TCGIBRAK
000705: 31,3227           00006                           EXTEND
000706: 31,3230           51346                           INDEX    WCHPHASE
000707: 31,3231           52415                           INDEX    TARGTDEX
000708: 31,3232           31453                           DCA      TCGFBRAK
000709: 31,3233           24006                           INCR     BBANK
000710: 31,3234           24006                           INCR     BBANK
000711: 31,3235  E7,1642                                  EBANK=   TTF/8
000712: 31,3235           61642                           AD       TTF/8
000713: 31,3236           56001                           XCH      L
000714: 31,3237           61642                           AD       TTF/8
000715: 31,3240           10000                           CCS      A
000716: 31,3241           10001                           CCS      L
000717: 31,3242           13273                           TCF      EXITSPOT
000718: 31,3243           13273                           TCF      EXITSPOT
000719: 31,3244           13245                           NOOP
000720:
000721: 31,3245           03665                           TC       INTPRETX
000722: 31,3246           53575                           VLOAD    UNIT
000723: 31,3247           03635                                    LAND
000724: 31,3250           16572                           STODL    CG
000725: 31,3251           03643                                    TTF/8
000726: 31,3252           74203                           DMP*     VXSC
000727: 31,3253           02447                                    GAINBRAK,1                            #  NUMERO MYSTERIOSO
000728: 31,3254           02231                                    ANGTERM
000729: 31,3255           77655                           VAD
000730: 31,3256           03635                                    LAND
000731: 31,3257           47051                           VSU      RTB
000732: 31,3260           03521                                    R
000733: 31,3261           21727                                    NORMUNIT
000734: 31,3262           47035                           VXV      RTB
000735: 31,3263           03635                                    LAND
000736: 31,3264           21727                                    NORMUNIT
000737: 31,3265           26600                           STOVL    CG         +6                         #  SECOND ROW
000738: 31,3266           02572                                    CG
000739: 31,3267           76435                           VXV      VSL1
000740: 31,3270           02600                                    CG         +6
000741: 31,3271           02606                           STORE    CG         +14
000742: 31,3272           77776                           EXIT
000743:
000744: 31,3273           51621        EXITSPOT           INDEX    WCHPHOLD
000745: 31,3274           12404                           TCF      WHATEXIT
000746:
000747:                                                                                                  #  ****************************************************************************************************************
000748:


000750:                                                                                                  #  ROUTINES FOR EXITING FROM LANDING GUIDANCE
000751:                                                                                                  #  ****************************************************************************************************************
000752:
000753:                                                                                                  #  1.        EXGSUB IS THE RETURN WHEN GUIDSUB IS CALLED BY THE IGNITION ALGORITHM.
000754:
000755:                                                                                                  #  2.        EXBRAK IN THE EXIT USED DURING THE BRAKING PHASE.  IN THIS CASE UNIT(R) IS THE WINDOW POINTING VECTOR.
000756:
000757:                                                                                                  #  3.        EXNORM IS THE EXIT USED AT OTHER TIMES DURING THE BURN.
000758:
000759:                                                                                                  #           (EXOVFLOW IS A SUBROUTINE OF EXBRAK AND EXNORM CALLED WHEN OVERFLOW OCCURRED ANYWHERE IN GUIDANCE.)
000760:
000761: 31,3275           06042        EXGSUB             TC       INTPRET                               #  COMPUTE TRIM VELOCITY CORRECTION TERM
000762: 31,3276           47175                           VLOAD    RTB
000763: 31,3277           03253                                    UNFC/2
000764: 31,3300           21727                                    NORMUNIT
000765: 31,3301           74361                           VXSC     VXSC
000766: 31,3302           03423                                    ZOOMTIME
000767: 31,3303           22001                                    TRIMACCL
000768: 31,3304           03253                           STORE    UNFC/2
000769: 31,3305           77776                           EXIT
000770:
000771: 31,3306           11647                           CCS      NGUIDSUB
000772: 31,3307           12423                           TCF      GUIDSUB
000773: 31,3310           11646                           CCS      NIGNLOOP
000774: 31,3311           13314                           TCF      +3
000775: 31,3312           05600                           TC       ALARM
000776: 31,3313           01412                           OCT      01412
000777:
000778: 31,3314           04635                 +3        TC       POSTJUMP
000779: 31,3315           64672                           CADR     DDUMCALC
000780:
000781: 31,3316           06042        EXBRAK             TC       INTPRET
000782: 31,3317           77775                           VLOAD
000783: 31,3320           03537                                    UNIT/R/
000784: 31,3321           03261                           STORE    UNWC/2
000785: 31,3322           77776                           EXIT
000786: 31,3323           13400                           TCF      STEER?
000787:
000788: 31,3324           06042        EXNORM             TC       INTPRET
000789: 31,3325           52375                           VLOAD    VSU
000790: 31,3326           03635                                    LAND
000791: 31,3327           03521                                    R
000792: 31,3330           77634                           RTB
000793: 31,3331           21727                                    NORMUNIT
000794: 31,3332           03261                           STORE    UNWC/2                                #  UNIT(LAND - R) IS TENTATIVE CHOICE
000795: 31,3333           50235                           VXV      DOT
000796: 31,3334           02146                                    XNBPIP
000797: 31,3335           02600                                    CG         +6
000798: 31,3336           77776                           EXIT                                           #  WITH PROJ IN MPAC 1/8 REAL SIZE
000799:


000801:
000802: 31,3337           40154                           CS       MPAC                                  #  GET COEFFICIENT FOR CG +14
000803: 31,3340           63756                           AD       PROJMAX
000804: 31,3341           64733                           AD       POSMAX
000805: 31,3342           54130                           TS       BUF
000806: 31,3343           40130                           CS       BUF
000807: 31,3344           26130                           ADS      BUF                                   #  RESULT IS 0 IF PROJMAX - PROJ NEGATIVE
000808:
000809: 31,3345           43757                           CS       PROJMIN                               #  GET COEFFICIENT FOR UNIT(LAND - R)
000810: 31,3346           60154                           AD       MPAC
000811: 31,3347           64733                           AD       POSMAX
000812: 31,3350           54131                           TS       BUF        +1
000813: 31,3351           40131                           CS       BUF        +1
000814: 31,3352           26131                           ADS      BUF        +1                         #  RESULT IS 0 IF PROJ - PROJMIN NEGATIVE
000815:
000816: 31,3353           34751                           CAF      FOUR
000817: 31,3354           76245        UNWCLOOP           MASK     SIX
000818: 31,3355           54002                           TS       Q
000819: 31,3356           35014                           CA       EBANK5
000820: 31,3357           54003                           TS       EBANK
000821: 31,3360  E5,1571                                  EBANK=   CG
000822: 31,3360           30130                           CA       BUF
000823: 31,3361           00006                           EXTEND
000824: 31,3362           50002                           INDEX    Q
000825: 31,3363           71605                           MP       CG         +14
000826: 31,3364           24006                           INCR     BBANK
000827: 31,3365  E6,1660                                  EBANK=   UNWC/2
000828: 31,3365           50002                           INDEX    Q
000829: 31,3366           53661                           DXCH     UNWC/2
000830: 31,3367           00006                           EXTEND
000831: 31,3370           70131                           MP       BUF        +1
000832: 31,3371           50002                           INDEX    Q
000833: 31,3372           21661                           DAS      UNWC/2
000834: 31,3373           10002                           CCS      Q
000835: 31,3374           13354                           TCF      UNWCLOOP
000836:
000837: 31,3375           31773                           CA       AZBIAS                                #  SET OUTER GIMBAL
000838: 31,3376           55677                           TS       OGABIAS                               #    ANGLE BIAS FOR WINDOW BENDING
000839:
000840: 31,3377           24006                           INCR     BBANK
000841: 31,3400  E7,1612                                  EBANK=   PIF
000842:
000843: 31,3400           30121        STEER?             CA       OVFIND                                #  OVERFLOW?
000844: 31,3401           00006                           EXTEND
000845: 31,3402           13405                           BZF      STEERSW?                              #  N: CHECK STEERSW
000846:
000847: 31,3403           03726                           TC       OVFDESC                               #  Y: REMEDIAL ACTION AND
000848: 31,3404           13424                           TCF      DISPEXIT                              #     SKIP ISSUANCE OF CMDS. NO STEERSW CHK
000849:
000850: 31,3405           40076        STEERSW?           CS       FLAGWRD2                              #  IS STEERSW UP?
000851: 31,3406           74741                           MASK     STEERBIT
000852:


000854: 31,3407           00006                           EXTEND
000855: 31,3410           13416                           BZF      THRTCALL                              #  Y: ISSUE GUIDANCE CMDS
000856:
000857: 31,3411           00004        RATESTOP           INHINT                                         #  N: REMEDIAL ACTION
000858: 31,3412           04674                           TC       IBNKCALL                              #     AND
000859: 31,3413           40166                           FCADR    STOPRATE                              #     SKIP ISSUANCE OF CMDS
000860: 31,3414           00003                           RELINT
000861: 31,3415           13424                           TCF      DISPEXIT
000862:
000863: 31,3416  31,3416               GDUMP1             =        THRTCALL
000864: 31,3416           02144        THRTCALL           TC       THROTTLE
000865: 31,3417           03741                           TC       FASTCHNG
000866: 31,3420           06042                           TC       INTPRET
000867: 31,3421           77624                           CALL
000868: 31,3422           61071                                    FINDCDUW   -2
000869: 31,3423           77776                           EXIT
000870:
000871:                                                                                                  #                (CONTINUE TO DISPEXIT)
000872:
000873:                                                                                                  #  ****************************************************************************************************************
000874:                                                                                                  #  GUIDANCE LOOP DISPLAYS
000875:                                                                                                  #  ****************************************************************************************************************
000876:
000877: 31,3424           00006        DISPEXIT           EXTEND                                         #  KILL GROUP 3:   DISPLAYS WILL BE
000878: 31,3425           34755                           DCA      NEG0                                  #    RESTORED BY NEXT GUIDANCE CYCLE
000879: 31,3426           52756                           DXCH     -PHASE3
000880:
000881: 31,3427  31,3427               ENDLLJOB           =        DISPEXIT   +3
000882:
000883: 31,3427  31,3427               DISPEX66           =        DISPEXIT   +3
000884: 31,3427           40104                 +3        CS       FLAGWRD8                              #  IF FLUNDISP IS SET, NO DISPLAY THIS PASS
000885: 31,3430           74742                           MASK     FLUNDBIT
000886: 31,3431           00006                           EXTEND
000887: 31,3432           15155                           BZF      ENDOFJOB
000888:
000889: 31,3433           51621                           INDEX    WCHPHOLD
000890: 31,3434           12406                           TCF      WHATDISP
000891:
000892: 31,3435           05165        P63DISPS           TC       VACRLEAS
000893: 31,3436           33760                           CAF      V06N63
000894: 31,3437           04616        DISPCOMN           TC       BANKCALL
000895: 31,3440           20466                           CADR     REGODSP
000896:
000897: 31,3441           31666        P64DISPS           CA       TREDES                                #  HAS TREDES REACHED ZERO?
000898: 31,3442           00006                           EXTEND
000899: 31,3443           13465                           BZF      RED-OVER                              #  YES:  CLEAR REDESIGNATION FLAG
000900:
000901: 31,3444           40102                           CS       FLAGWRD6                              #  NO:   IS REDFLAG SET?
000902: 31,3445           74746                           MASK     REDFLBIT
000903: 31,3446           00006                           EXTEND
000904: 31,3447           13467                           BZF      REDES-OK                              #  YES:  DO STATIC DISPLAY
000905:
000906: 31,3450           05165                           TC       VACRLEAS
000907: 31,3451           33761                           CAF      V06N64                                #  OTHERWISE USE FLASHING DISPLAY
000908: 31,3452           04616                           TC       BANKCALL
000909: 31,3453           20460                           CADR     REFLASH
000910: 31,3454           16001                           TCF      GOTOPOOH                              #  TERMINATE
000911: 31,3455           13457                           TCF      P64CEED                               #  PROCEED     PERMIT REDESIGNATIONS
000912: 31,3456           13441                           TCF      P64DISPS                              #  RECYCLE
000913:
000914: 31,3457           34755        P64CEED            CAF      ZERO
000915: 31,3460           55645                           TS       ELINCR1
000916: 31,3461           55644                           TS       AZINCR1
000917:
000918: 31,3462           05515                           TC       UPFLAG                                #  ENABLE REDESIGNATION LOGIC
000919: 31,3463           00143                           ADRES    REDFLAG
000920:
000921: 31,3464           15155                           TCF      ENDOFJOB
000922:
000923: 31,3465           05527        RED-OVER           TC       DOWNFLAG
000924: 31,3466           00143                           ADRES    REDFLAG
000925: 31,3467           05165        REDES-OK           TC       VACRLEAS
000926: 31,3470           33761                           CAF      V06N64
000927: 31,3471           13437                           TCF      DISPCOMN
000928:
000929:
000930: 31,3472           05165        VERTDISP           TC       VACRLEAS
000931: 31,3473           33762                           CAF      V06N60
000932: 31,3474           04616                           TC       BANKCALL
000933: 31,3475           20460                           CADR     REFLASH
000934:


000936: 31,3476           16001                           TCF      GOTOPOOH                              #  TERMINATE
000937: 31,3477           13501                           TCF      STOPFIRE                              #  PROCEED
000938: 31,3500           13501                           TCF      STOPFIRE                              #  V32E
000939:
000940: 31,3501           05527        STOPFIRE           TC       DOWNFLAG
000941: 31,3502           00016                           ADRES    P66PROFL                              #  FLAG TO STOP P66 HORIZONTAL
000942: 31,3503           15155                           TCF      ENDOFJOB
000943:
000944: 31,3504           02147        THROT66            TC       THROTTLE   +3
000945: 31,3505           25623                           INCR     CNTTHROT                              #  COUNT ONE THROTTLE COMPLETION
000946:
000947: 31,3506           13427                           TCF      DISPEX66
000948:


000950:                                                                                                  #  ****************************************************************************************************************
000951:                                                                                                  #  GUIDANCE FOR P66
000952:                                                                                                  #  ****************************************************************************************************************
000953:
000954:                                                                                                  #           THE P66 HORIZONTAL (HZ) EQUATION IS:
000955:
000956:                                                                                                  #                  UNFC/2X = GHZ
000957:
000958:                                                                                                  #                  UNFC/2Y = (LIMIT AHZLIM)(-QHZ UNFC/2Y   -(VY-VHZCY)/TAUHZ)
000959:                                                                                                  #                                                       I-1
000960:
000961:                                                                                                  #                  UNFC/2Z = (LIMIT AHZLIM)(-QHZ UNFC/2Z   -(VZ-VHZCZ)/TAUHZ)
000962:                                                                                                  #                                                       I-1
000963:
000964:                                                                                                  #           WHERE  GHZ IS LUNAR GRAVITY
000965:                                                                                                  #                  QHZ AND 1/TAUHZ ARE GAIN CONSTANTS
000966:                                                                                                  #                  VHZCY AND VHZCZ ARE THE Y AND Z COMPONENTS OF COMMANDED
000967:                                                                                                  #                     VELOCITY, PLATFORM COORDINATES. THESE ARE INITIALIZED
000968:                                                                                                  #                     TO MOONRATE
000969:                                                                                                  #                  (LIMIT AHZLIM) INDICATES THE CONTENT OF THE SUBSEQUENT
000970:                                                                                                  #                     PARENTHESES IS MAGNITUDE LIMITED TO AHZLIM
000971:
000972: 31,3507           05364        P66                TC       PHASCHNG                              #  TERMINATE GROUP 3
000973: 31,3510           00003                           OCT      00003
000974:
000975: 31,3511           06042                           TC       INTPRET
000976: 31,3512           45234                           RTB      DSU                                   #  IS THERE TIME FOR P66?
000977: 31,3513           21574                                    LOADTIME
000978: 31,3514           01234                                    PIPTIME
000979: 31,3515           51021                           BDSU     BPL
000980: 31,3516           02500                                    2LATE466
000981: 31,3517           65067                                    P66HZ                                 #  Y: DOIT
000982: 31,3520           77414                           CLEAR    EXIT                                  #  N: OMIT
000983: 31,3521           00663                                    RODFLAG
000984:
000985: 31,3522           41354                           CS       TOOFEW                                #  INITIALIZE CNTTHROT TO TOOFEW AND LOAD
000986: 31,3523           57623                           XCH      CNTTHROT                              #  ACCUMULATOR WITH ITS PREVIOUS CONTENTS
000987: 31,3524           00006                           EXTEND                                         #  TOO FEW THROTTLINGS SINCE LAST OMISSION?
000988: 31,3525           63527                           BZMF     OMITWALM
000989:
000990: 31,3526           13427                           TCF      DISPEX66                              #  N: PERMIT OMISSION SANS ALARM
000991:
000992: 31,3527           00004        OMITWALM           INHINT
000993: 31,3530           04616                           TC       BANKCALL
000994: 31,3531           40166                           CADR     STOPRATE
000995: 31,3532           05600                           TC       ALARM                                 #  Y: PERMIT OMISSION WITH ALARM
000996: 31,3533           01466                           OCT      01466
000997:
000998: 31,3534           13427                           TCF      DISPEX66
000999:


001001:                                                                                                  #  ****************************************************************************************************************
001002:                                                                                                  #  GUIDANCE FOR P66
001003:                                                                                                  #  ****************************************************************************************************************
001004:
001005: 32,2000                                           SETLOC   P66LOC
001006: 32,2000                                           BANK
001007: 32,3067                                           COUNT*   $$/F2DPS
001008:
001009: 32,3067           74375        P66HZ              VLOAD    VXSC
001010: 32,3070           03253                                    UNFC/2                                #  P63, P64, & P66 UNITS 2(-4)M/CS/CS
001011: 32,3071           02476                                    QHZ
001012: 32,3072           52315                           PDVL     VSU
001013: 32,3073           03434                                    VHZC                                  #  IN 2(7)M/CS
001014: 32,3074           03527                                    V                                     #  IN 2(7)M/CS
001015: 32,3075           52341                           V/SC     VSU                                   #  YIELDS UNLIM HZ ACCEL CMD, 2(-4)M/CS/CS
001016: 32,3076           02475                                    TAUHZ                                 #  IN 2(1))CS
001017: 32,3077           77776                           EXIT
001018:
001019: 32,3100           35031                           CA       PRIO21                                #  ASSURE THIS SERVICER JOB ENDS
001020: 32,3101           05146                           TC       PRIOCHNG                              #  BEFORE NEXT SERVICER JOB BEGINS
001021:
001022: 32,3102           33425                           CA       GHZ
001023: 32,3103           54154                           TS       MPAC                                  #  X COMPONENT = G
001024:
001025: 32,3104           35014                           CA       EBANK5
001026: 32,3105           54003                           TS       EBANK
001027: 32,3106  E5,1774                                  EBANK=   END-E5
001028:
001029: 32,3106           22157                           LXCH     MPAC       +3
001030: 32,3107           31476                           CA       AHZLIM
001031: 32,3110           04616                           TC       BANKCALL
001032: 32,3111           61711                           FCADR    LIMITSUB
001033: 32,3112           54157                           TS       MPAC       +3                         #  Y COMPONENT LIMITED TO AHZLIM
001034:
001035: 32,3113           22161                           LXCH     MPAC       +5
001036: 32,3114           31476                           CA       AHZLIM
001037: 32,3115           04616                           TC       BANKCALL
001038: 32,3116           61711                           FCADR    LIMITSUB
001039: 32,3117           54161                           TS       MPAC       +5                         #  Z COMPONENT LIMITED TO AHZLIM
001040:
001041: 32,3120           35016                           CA       EBANK7
001042: 32,3121           54003                           TS       EBANK
001043: 32,3122  E7,1777                                  EBANK=   END-E7
001044:
001045: 32,3122           30121                           CA       OVFIND                                #  OVERFLOW?
001046: 32,3123           00006                           EXTEND
001047: 32,3124           13130                           BZF      ENGARM?                               #  N: KEEP CHECKING
001048: 32,3125           04616                           TC       BANKCALL                              #  Y: TAKE REMEDIAL ACTION
001049: 32,3126           63726                           FCADR    OVFDESC                               #     AND
001050: 32,3127           13157                           TCF      P66VERT                               #     SKIP ISSUANCE OF HZ CMDS
001051:


001053: 32,3130           34751        ENGARM?            CA       BIT3                                  #  IS ENGINE ARM SWITCH STILL ON?
001054: 32,3131           00006                           EXTEND
001055: 32,3132           02030                           RAND     CHAN30
001056: 32,3133           00006                           EXTEND
001057: 32,3134           13141                           BZF      CDUWHZ                                #  Y: ISSUE HZ CMDS
001058:
001059: 32,3135           30074                           CA       FLAGWRD0                              #  N: HAVE WE PROCEEDED AFTER TOUCHDOWN?
001060: 32,3136           74753                           MASK     P66PROBT
001061: 32,3137           00006                           EXTEND
001062: 32,3140           13147                           BZF      ASTROPRO                              #  Y: PREVENT RCS FIRINGS
001063: 32,3141           06042        CDUWHZ             TC       INTPRET                               #  N: ISSUE HZ CMDS
001064: 32,3142           03253                           STORE    UNFC/2                                #  MUST STORE FOR SUCCEEDING PASS
001065: 32,3143           77624                           CALL
001066: 32,3144           61073                                    FINDCDUW
001067: 32,3145           77776                           EXIT
001068:
001069: 32,3146           13157                           TCF      P66VERT
001070:
001071: 32,3147           33424        ASTROPRO           CA       IDLADR                                #  Y: PREVENT RCS JET FIRINGS
001072: 32,3150           55263                           TS       T5ADR                                 #     AND
001073: 32,3151           13157                           TCF      P66VERT                               #     SKIP HZ CMDS, BUT CONTINUE DISPLAYS
001074:
001075:                                                                                                  #  ***************************************************************************************************************
001076:                                                                                                  #  P66 VERTICAL CHANNEL
001077:                                                                                                  #  ***************************************************************************************************************
001078:
001079: 32,3152           37713        RODTASK            CA       PRIO22                                #  BUMPS ALL OF SERVICER JOB EXCEPT RODCOMP
001080: 32,3153           05105                           TC       FINDVAC
001081: 32,3154  E7,1515                                  EBANK=   DVCNTR
001082: 32,3154           03162 64067                     2CADR    RODCOMP
001083: 32,3156           15272                           TCF      TASKOVER
001084:
001085: 32,3157           34777        P66VERT            CA       1SEC
001086: 32,3160           05204                           TC       TWIDDLE
001087: 32,3161           03152                           ADRES    RODTASK
001088:
001089: 32,3162           37714        RODCOMP            CA       PRIO23                                #  LET ONLY ONE JOB THRU RODCOMP AT A TIME
001090: 32,3163           05146                           TC       PRIOCHNG
001091:
001092: 32,3164           00004                           INHINT
001093:
001094: 32,3165           34755                           CAF      ZERO
001095: 32,3166           57746                           XCH      RODCOUNT
001096: 32,3167           00006                           EXTEND
001097: 32,3170           71756                           MP       RODSCAL1
001098: 32,3171           21645                           DAS      VDGVERT                               #  UPDATE DESTRED ALTITUDE RATE.
001099:
001100: 32,3172           34747                           CAF      BIT5                                  #  ARE WE IN AUTO THROTTLE?
001101: 32,3173           00006                           EXTEND
001102: 32,3174           02030                           RAND     CHAN30
001103: 32,3175           00006                           EXTEND
001104: 32,3176           13202                           BZF      RODCOMPA                              #  Y: CONTINUE ROD
001105:
001106: 32,3177           00006                           EXTEND                                         #  N: RESET VDGVERT TO CURRENT HDOT
001107: 32,3200           31474                           DCA      HDOTDISP
001108: 32,3201           53645                           DXCH     VDGVERT
001109:
001110:                                                                                                  #  READ THE PIPAS FOR P66
001111:
001112: 32,3202           00006        RODCOMPA           EXTEND
001113: 32,3203           30040                           DCA      PIPAX
001114: 32,3204           53764                           DXCH     OLDPIPAX                              #  CURRENT PIPA READINGS INTO OLDPIPAX,Y,Z
001115: 32,3205           52071                           DXCH     RUPTREG1                              #  SAVE PRIOR READINGS IN RUPTREG1,2,3
001116: 32,3206           30041                           CA       PIPAZ
001117: 32,3207           57765                           XCH      OLDPIPAZ
001118: 32,3210           56072                           XCH      RUPTREG3
001119:
001120: 32,3211           00006                           EXTEND                                         #  SNAPSHOT TIME OF PIPA READING.
001121: 32,3212           30025                           DCA      TIME2
001122: 32,3213           53762                           DXCH     THISTPIP
001123:
001124: 32,3214           03414                           TC       DEIMUBOB                              #  REFER CURRENT PIPAX READING TO THE CM
001125:
001126:                                                                                                  #  COMPUTE DELV SINCE PIPTIME. RETURN FROM DEIMUBOB WITH CORRECTED OLDPIPAX IN A
001127:                                                                                                  #  CURRENT P66 PIPA
001128: 32,3215           61157                           AD       PIPATMPX                              #  + PIPA BY PIPASR IF B4 COPYCYCL, 0 AFTER
001129: 32,3216           54154                           TS       MPAC                                  #  = DELV SINCE VALIDITY OF V, 2(14)CM/SEC
001130: 32,3217           31764                           CA       OLDPIPAY
001131: 32,3220           61160                           AD       PIPATMPY
001132: 32,3221           54157                           TS       MPAC       +3
001133: 32,3222           31765                           CA       OLDPIPAZ
001134: 32,3223           61161                           AD       PIPATMPZ
001135: 32,3224           54161                           TS       MPAC       +5
001136:
001137:                                                                                                  #  COMPUTE DELV SINCE THE LAST P66 PASS
001138:
001139: 32,3225           41763                           CS       OLDPIPAX                              #  - CURRENT P66 PIPA
001140: 32,3226           61253                           AD       TEMX                                  #  - PIPA BY PIPASR IF INTERVENING, ELSE 0
001141: 32,3227           60070                           AD       RUPTREG1                              #  + PIPA BY P66 ON THE LAST P66 PASS
001142: 32,3230           55766                           TS       DELVROD                               #  = -DELV SINCE LAST P66 PASS, 2(14)CM/SEC
001143: 32,3231           41764                           CS       OLDPIPAY
001144: 32,3232           61254                           AD       TEMY
001145: 32,3233           60071                           AD       RUPTREG2
001146:


001148: 32,3234           55770                           TS       DELVROD    +2
001149: 32,3235           41765                           CS       OLDPIPAZ
001150: 32,3236           61255                           AD       TEMZ
001151: 32,3237           60072                           AD       RUPTREG3
001152: 32,3240           55772                           TS       DELVROD    +4
001153:
001154: 32,3241           34755                           CAF      ZERO
001155: 32,3242           54155                           TS       MPAC       +1                         #  ZERO LO-ORDER MPAC COMPONENTS
001156: 32,3243           54160                           TS       MPAC       +4
001157: 32,3244           54162                           TS       MPAC       +6
001158: 32,3245           55253                           TS       TEMX                                  #  ZERO TEMX, TEMY, AND TEMZ SO WE WILL
001159: 32,3246           55254                           TS       TEMY                                  #        KNOW WHEN READACCS CHANGES THEM.
001160: 32,3247           55255                           TS       TEMZ
001161: 32,3250           44753                           CS       ONE
001162: 32,3251           54163                           TS       MODE
001163:
001164: 32,3252           06042                           TC       INTPRET
001165: 32,3253           65361        ITRPNT1            VXSC     PDDL                                  #  SCALE MPAC TO M/CS *2(-7) AND PUSH   (6)
001166: 32,3254           26074                                    KPIP1
001167: 32,3255           03762                                    THISTPIP
001168: 32,3256           77625                           DSU
001169: 32,3257           01234                                    PIPTIME
001170: 32,3260           00037                           STORE    30D                                   #  30-31D CONTAINS TIME IN CS SINCE PIPTIME
001171: 32,3261           63271                           DDV      PDVL                                  #                                       (8)
001172: 32,3262           27050                                    4SEC(28)
001173: 32,3263           01236                                    GDT/2
001174: 32,3264           74251                           VSU      VXSC                                  #                                       (6)
001175: 32,3265           02616                                    VBIAS
001176: 32,3266           53352                           VSL2     VAD
001177: 32,3267           03527                                    V
001178: 32,3270           45455                           VAD      STADR                                 #                                       (0)
001179: 32,3271           53746                           STOVL    24D                                   #  STORE UPDATED VELOCITY IN 24-29D
001180: 32,3272           03521                                    R
001181: 32,3273           77656                           UNIT
001182: 32,3274           00017                           STORE    14D
001183: 32,3275           72441                           DOT      SL1
001184: 32,3276           00031                                    24D
001185: 32,3277           17474                           STODL    HDOTDISP                              #  UPDATE ALTITUDE RATE FOR NOUN 60
001186: 32,3300           00037                                    30D
001187: 32,3301           41261                           SL       DMP
001188: 32,3302           20214                                    11D
001189: 32,3303           03474                                    HDOTDISP
001190: 32,3304           45215                           DAD      DSU
001191: 32,3305           00045                                    36D
001192: 32,3306           02333                                    /LAND/
001193: 32,3307           17775                           STODL    HCALC1                                #  UPDATE ALTITUDE FOR NOUN 60


001195: 32,3310           03474                                    HDOTDISP
001196: 32,3311           56221                           BDSU     DDV
001197: 32,3312           03645                                    VDGVERT
001198: 32,3313           02536                                    TAUROD
001199: 32,3314           51515                           PDVL     ABVAL                                 #                                       (2)
001200: 32,3315           01236                                    GDT/2
001201: 32,3316           60471                           DDV      SR2
001202: 32,3317           05652                                    GSCALE
001203: 32,3320           00025                           STORE    20D
001204: 32,3321           43234                           RTB      DAD                                   #                                       (0)
001205: 32,3322           47563                                    QTPROLOG                              #  QUICTRIG PRESERVES MPAC
001206: 32,3323           45115                           PDVL     CALL                                  #                                       (2)
001207: 32,3324           06466                                    UNITX                                 #  X AXIS IN NB COORDS
001208: 32,3325           47650                                    *NBSM*                                #  TRANSFORMS TO SM COORDS
001209: 32,3326           77641                           DOT
001210: 32,3327           00017                                    14D
001211: 32,3330           00027                           STORE    22D
001212: 32,3331           45465                           BDDV     STADR                                 #                                       (0)
001213: 32,3332           50313                           STOVL    /AFC/
001214: 32,3333           03767                                    DELVROD
001215: 32,3334           53361                           VXSC     VAD
001216: 32,3335           26074                                    KPIP1
001217: 32,3336           02616                                    VBIAS
001218: 32,3337           65246                           ABVAL    PDDL                                  #                                       (2)
001219: 32,3340           03762                                    THISTPIP
001220: 32,3341           65225                           DSU      PDDL                                  #                                       (4)
001221: 32,3342           03760                                    LASTTPIP
001222: 32,3343           03762                                    THISTPIP
001223: 32,3344           17760                           STODL    LASTTPIP                              #                                        (2)
001224: 32,3345           55271                           DDV      BDDV                                  #                                        (0)
001225: 32,3346           25430                                    SHFTFACT
001226: 32,3347           41325                           PDDL     DMP                                   #                                        (2)
001227: 32,3350           03611                                    FWEIGHT
001228: 32,3351           25427                                    BIT1H
001229: 32,3352           56271                           DDV      DDV
001230: 32,3353           01244                                    MASS
001231: 32,3354           22006                                    SCALEFAC
001232: 32,3355           65215                           DAD      PDDL                                  #                                        (4)
001233: 32,3356           00001                                    0D
001234: 32,3357           00025                                    20D
001235: 32,3360           45271                           DDV      DSU                                   #                                        (2)
001236: 32,3361           00027                                    22D
001237:


001239: 32,3362           43205                           DMP      DAD
001240: 32,3363           02540                                    LAG/TAU
001241: 32,3364           03464                                    /AFC/
001242: 32,3365           56325                           PDDL     DDV                                   #                                        (4)
001243: 32,3366           02544                                    MAXFORCE
001244: 32,3367           01244                                    MASS
001245: 32,3370           56325                           PDDL     DDV                                   #                                        (6)
001246: 32,3371           02542                                    MINFORCE
001247: 32,3372           01244                                    MASS
001248: 32,3373           44206                           PUSH     BDSU                                  #                                        (8)
001249: 32,3374           00003                                    2D
001250: 32,3375           71240                           BMN      DLOAD                                 #                                        (6)
001251: 32,3376           65404                                    AFCSPOT
001252: 32,3377           41545                           DLOAD    PUSH                                  #                                        (6)
001253: 32,3400           51021                           BDSU     BPL
001254: 32,3401           00003                                    2D
001255: 32,3402           65404                                    AFCSPOT
001256: 32,3403           77745                           DLOAD                                          #                                        (4)
001257: 32,3404           77745        AFCSPOT            DLOAD                                          #                             (2),(4),OR (6)
001258: 32,3405           77601                           SETPD                                          #                                        (2)
001259: 32,3406           00003                                    2D
001260: 32,3407           17464                           STODL    /AFC/                                 #                                        (0)
001261: 32,3410           77776        ITRPNT2            EXIT
001262: 32,3411           52155                           DXCH     MPAC                                  #  MPAC = MEASURED ACCELERATION.
001263: 32,3412           04635                           TC       POSTJUMP
001264: 32,3413           63504                           FCADR    THROT66
001265:
001266:                                                                                                  #  THE FOLLOWING SUBROUTINE REFERS THE X PIPA READING TO THE CENTER OF MASS
001267:                                                                                                  #  BY SUBTRACTING THOSE PIPA COUNTS PRODUCED BY VERTICAL IMU MOTION
001268:                                                                                                  #  RELATIVE TO THE CENTER OF MASS.  THE SPACECRAFT X AXIS IS ASSUMED
001269:                                                                                                  #  APPROXIMATELY VERTICAL.  THE EQUATION IS:
001270:
001271:                                                                                                  #           OLDPIPAX = OLDPIPAX - OMEGAQ RIMUZ
001272:
001273:                                                                                                  #  WHERE OLDPIPAX IS THE CURRENT P66 PIPA READING, OMEGAQ IS THE ATTITUDE
001274:                                                                                                  #  RATE ABOUT THE Q (Y) AXIS, AND RIMUZ IS THE Z COORDINATE OF THE IMU.
001275:
001276: 32,3414           35015        DEIMUBOB           CA       EBANK6
001277: 32,3415           54003                           TS       EBANK
001278: 32,3416  E6,1774                                  EBANK=   END-E6
001279: 32,3416           41422                           CS       OMEGAQ                                #  PITCH RATE IN UNITS 45 DEG/SEC
001280: 32,3417           24006                           INCR     BBANK
001281: 32,3420  E7,1777                                  EBANK=   END-E7
001282: 32,3420           00006                           EXTEND
001283: 32,3421           73431                           MP       RIMUZ                                 #  IMU Z IN UNITS (180/PI 45) 2(14) CM
001284: 32,3422           27763                           ADS      OLDPIPAX                              #  CURRENT P66 PIPA X IN UNITS 2(14) CM/SEC
001285: 32,3423           00002                           TC       Q
001286:


001288:                                                                                                  #  CONSTANTS FOR P66
001289:
001290: 32,3424           02024        IDLADR             GENADR   DAPIDLER
001291: 32,3425           00053        GHZ                DEC      1.62292    E-4        B+4             #  GRAVITY IN 2(-4)M/CS/CS
001292:
001293: 32,3426           00001        BIT1H              OCT      00001                                 #  MUST PRECEDE A ZERO
001294: 32,3427           00000 04000  SHFTFACT           2DEC     1          B-17                       #  SCALES P66 PERIOD TO 2(1))CS
001295: 32,3431           00143        RIMUZ              DEC      99.486     B-14                       #  1.2667 M IN UNITS (180/PI 45) 2(14) CM
001296:


001298:                                                                                                  #  ****************************************************************************************************************
001299:                                                                                                  #  REDESIGNATOR TRAP
001300:                                                                                                  #  ****************************************************************************************************************
001301:
001302:                                                                                                  #  END INSERT
001303: 11,2302                                           BANK     11
001304: 11,2000                                           SETLOC   F2DPS*11
001305: 11,2000                                           BANK
001306:
001307: 11,2302                                           COUNT*   $$/F2DPS
001308:
001309: 11,2302           56016        PITFALL            XCH      BANKRUPT
001310: 11,2303           00006                           EXTEND
001311: 11,2304           22012                           QXCH     QRUPT
001312:
001313: 11,2305           05332                           TC       CHECKMM                               #  IF NOT IN P64, NO REASON TO CONTINUE
001314: 11,2306           00100                           DEC      64         B-14
001315: 11,2307           15301                           TCF      RESUME
001316:
001317: 11,2310           00006                           EXTEND
001318: 11,2311           00031                           READ     CHAN31
001319: 11,2312           40000                           COM
001320: 11,2313           72401                           MASK     ALL4BITS
001321: 11,2314           55647                           TS       ELVIRA
001322: 11,2315           34752                           CAF      TWO
001323: 11,2316           55646                           TS       ZERLINA
001324: 11,2317           34756                           CAF      FIVE
001325: 11,2320           05204                           TC       TWIDDLE
001326: 11,2321           02326                           ADRES    REDESMON
001327: 11,2322           15301                           TCF      RESUME
001328:
001329:
001330:                                                                                                  #  REDESIGNATION MONITOR (INITIATED BY PITFALL)
001331:
001332:
001333: 11,2323           55646        PREMON1            TS       ZERLINA
001334: 11,2324           34757        PREMON2            CAF      SEVEN
001335: 11,2325           05235                           TC       VARDELAY
001336: 11,2326           00006        REDESMON           EXTEND
001337: 11,2327           00031                           READ     31
001338: 11,2330           40000                           COM
001339: 11,2331           72401                           MASK     ALL4BITS
001340: 11,2332           57647                           XCH      ELVIRA
001341: 11,2333           54001                           TS       L
001342: 11,2334           11647                           CCS      ELVIRA                                #  DO ANY BITS APPEAR THIS PASS?
001343: 11,2335           12324                           TCF      PREMON2                               #    Y: CONTINUE MONITOR
001344:
001345: 11,2336           10001                           CCS      L                                     #    N: ANY LAST PASS?
001346: 11,2337           12347                           TCF      COUNT'EM                              #       Y: COUNT 'EM, RESET RUPT, TERMINATE
001347: 11,2340           11646                           CCS      ZERLINA                               #       N: HAS ZERLINA REACHED ZERO YET?
001348:


001350: 11,2341           12323                           TCF      PREMON1                               #       N: DIMINISH ZERLINA, CONTINUE
001351: 11,2342           06022        RESETRPT           TC       C13STALL                              #       Y: RESET RUPT, TERMINATE
001352: 11,2343           34740                           CAF      BIT12
001353: 11,2344           00006                           EXTEND
001354: 11,2345           05013                           WOR      CHAN13
001355: 11,2346           15272                           TCF      TASKOVER
001356:
001357: 11,2347           34737        COUNT'EM           CAF      BIT13                                 #  ARE WE IN ATTITUDE-HOLD?
001358: 11,2350           00006                           EXTEND
001359: 11,2351           02031                           RAND     CHAN31
001360: 11,2352           00006                           EXTEND
001361: 11,2353           12342                           BZF      RESETRPT                              #  YES: SKIP REDESIGNATION LOGIC.
001362:
001363: 11,2354           30001                           CA       L                                     #  NO
001364: 11,2355           74746                           MASK     -AZBIT
001365: 11,2356           10000                           CCS      A
001366: 11,2357           42402        -AZ                CS       AZEACH
001367: 11,2360           27644                           ADS      AZINCR1
001368: 11,2361           30001                           CA       L
001369: 11,2362           74747                           MASK     +AZBIT
001370: 11,2363           10000                           CCS      A
001371: 11,2364           32402        +AZ                CA       AZEACH
001372: 11,2365           27644                           ADS      AZINCR1
001373: 11,2366           30001                           CA       L
001374: 11,2367           74753                           MASK     -ELBIT
001375: 11,2370           10000                           CCS      A
001376: 11,2371           42403        -EL                CS       ELEACH
001377: 11,2372           27645                           ADS      ELINCR1
001378: 11,2373           30001                           CA       L
001379: 11,2374           74752                           MASK     +ELBIT
001380: 11,2375           10000                           CCS      A
001381: 11,2376           32403        +EL                CA       ELEACH
001382: 11,2377           27645                           ADS      ELINCR1
001383: 11,2400           12342                           TCF      RESETRPT
001384:
001385:                                                                                                  #  THESE EQUIVALENCIES ARE BASED ON GSOP CHAPTER 4, REVISION 16 OF P64LM
001386:
001387: 11,2401     4752               +ELBIT             =        BIT2                                  #  -PITCH
001388:
001389:
001390: 11,2401     4753               -ELBIT             =        BIT1                                  #  +PITCH
001391:
001392:
001393: 11,2401     4747               +AZBIT             =        BIT5
001394:
001395:
001396: 11,2401     4746               -AZBIT             =        BIT6
001397:


001399:
001400: 11,2401           00063        ALL4BITS           OCT      00063
001401:
001402:
001403: 11,2402           01074        AZEACH             DEC      .03491                                #  2 DEGREES
001404:
001405:
001406: 11,2403           00217        ELEACH             DEC      .00873                                #  1/2 DEGREE
001407:
001408:                                                                                                  #  ****************************************************************************************************************
001409:                                                                                                  #  R.O.D. TRAP
001410:                                                                                                  #  ************************************************************************
001411:
001412: 23,2000                                           SETLOC   RODTRAP
001413: 23,2000                                           BANK
001414: 23,2451                                           COUNT*   $$/F2DPS                              #  ****************************************
001415:
001416: 23,2451           74745        DESCBITS           MASK     BIT7                                  #  COME HERE FROM MARKRUPT CODING WITH BIT
001417: 23,2452           10000                           CCS      A                                     #    7 OR 6 OF CHANNEL 16 IN A: BIT 7 MEANS
001418: 23,2453           44752                           CS       TWO                                   #    - RATE INCREMENT, BIT 6 + INCREMENT
001419: 23,2454           64753                           AD       ONE
001420: 23,2455           27746                           ADS      RODCOUNT
001421: 23,2456           15301                           TCF      RESUME                                #  TRAP IS RESET WHEN SWITCH IS RELEASED
001422:
001423:
001424: 31,3535                                           BANK     31
001425: 31,2000                                           SETLOC   F2DPS*31
001426: 31,2000                                           BANK
001427:
001428: 31,3535                                           COUNT*   $$/F2DPS
001429:
001430:                                                                                                  #  ****************************************************************************************************************
001431:                                                                                                  #  DOUBLE PRECISION ROOT FINDER SUBROUTINE (BY ALLAN KLUMPP)
001432:                                                                                                  #  ****************************************************************************************************************
001433:
001434:                                                                                                  #                                                          N        N-1
001435:                                                                                                  #           ROOTPSRS FINDS ONE ROOT OF THE POWER SERIES A X  + A   X    + ... + A X + A
001436:                                                                                                  #                                                        N      N-1              1     0
001437:
001438:                                                                                                  #  USING NEWTON'S METHOD STARTING WITH AN INITIAL GUESS FOR THE ROOT.  THE ENTERING DATA MUST BE AS FOLLOWS:
001439:
001440:                                                                                                  #                                          A        SP     LOC-3            ADRES FOR REFERENCING PWR COF TABL
001441:                                                                                                  #                                          L        SP     N-1              N IS THE DEGREE OF THE POWER SERIES
001442:                                                                                                  #                                          MPAC     DP     X                INITIAL GUESS FOR ROOT
001443:
001444:                                                                                                  #                                          LOC-2N   DP     A(0)
001445:                                                                                                  #                                                   ...
001446:                                                                                                  #                                          LOC      DP     A(N)
001447:                                                                                                  #                                          LOC+2    SP     PRECROOT         PREC RQD OF ROOT (AS FRACT OF 1ST GUESS)
001448:
001449:                                                                                                  #  THE DP RESULT IS LEFT IN MPAC UPON EXIT, AND A SP COUNT OF THE ITERATIONS TO CONVERGENCE IS LEFT IN MPAC+2.
001450:                                                                                                  #  RETURN IS NORMALLY TO LOC(TC ROOTPSRS)+3.   IF ROOTPSRS FAILS TO CONVERGE IN 8 PASSES, RETURN IS TO LOC+1 AND
001451:                                                                                                  #  OUTPUTS ARE NOT TO BE TRUSTED.
001452:
001453:                                                                                                  #           PRECAUTION: ROOTPSRS MAKES NO CHECKS FOR OVERFLOW OR FOR IMPROPER USAGE. IMPROPER USAGE COULD
001454:                                                                                                  #  PRECLUDE CONVERGENCE OR REQUIRE EXCESSIVE ITERATIONS. AS A SPECIFIC EXAMPLE, ROOTPSRS FORMS A DERIVATIVE
001455:                                                                                                  #  COEFFICIENT TABLE BY MULTIPLYING EACH A(I) BY I, WHERE I RANGES FROM 1 TO N. IF AN ELEMENT OF THE DERIVATIVE
001456:                                                                                                  #  COEFFICIENT TABLE = 1 OR > 1 IN MAGNITUDE, ONLY THE EXCESS IS RETAINED. ROOTPSRS MAY CONVERGE ON THE CORRECT
001457:                                                                                                  #  ROOT NONETHELESS, BUT IT MAY TAKE AN EXCESSIVE NUMBER OF ITERATIONS. THEREFORE THE USER SHOULD RECOGNIZE:
001458:
001459:                                                                                                  #  1. USER'S RESPONSIBILITY TO ASSURE THAT I X A(I) < 1 IN MAGNITUDE FOR ALL I.
001460:
001461:                                                                                                  #  2. USER'S RESPONSIBILITY TO ASSURE OVERFLOW WILL NOT OCCUR IN EVALUATING EITHER THE RESIDUAL OR THE DERIVATIVE
001462:                                                                                                  #     POWER SERIES.   THIS OVERFLOW WOULD BE PRODUCED BY SUBROUTINE POWRSERS, CALLED BY ROOTPSRS, AND MIGHT NOT
001463:                                                                                                  #     PRECLUDE EVENTUAL CONVERGENCE.
001464:


001466:                                                                                                  #  3. AT PRESENT, ERASABLE LOCATIONS ARE RESERVED ONLY FOR N UP TO 5.  AN N IN EXCESS OF 5 WILL PRODUCE CHAOS.
001467:                                                                                                  #     ALL ERASABLES USED BY ROOTPSRS ARE UNSWITCHED LOCATED IN THE REGION FROM MPAC-33 OCT TO MPAC+7.
001468:
001469:                                                                                                  #  4. THE ITERATION COUNT RETURNED IN MPAC+2 MAY BE USED TO DETECT ABNORMAL PERFORMANCE.
001470:
001471:                                                                                                  #  STORE ENTERING DATA, INITLIZE ERASABLES
001472:
001473: 31,3535           00006        ROOTPSRS           EXTEND
001474: 31,3536           22132                           QXCH     RETROOT                               #  RETURN ADRES
001475: 31,3537           54117                           TS       PWRPTR                                #  PWR TABL POINTER
001476: 31,3540           52160                           DXCH     MPAC       +3                         #  PWR TABL ADRES, N-1
001477: 31,3541           33660                           CA       DERTABLL
001478: 31,3542           54141                           TS       DERPTR                                #  DER TABL POINTER
001479: 31,3543           54161                           TS       MPAC       +5                         #  DER TABL ADRES
001480: 31,3544           10160                           CCS      MPAC       +4                         #  NO POWER SERIES OF DEGREE 1 OR LESS
001481: 31,3545           54162                           TS       MPAC       +6                         #  N-2
001482: 31,3546           34755                           CA       ZERO                                  #  MODE USED AS ITERATION COUNTER. MODE
001483: 31,3547           54163                           TS       MODE                                  #  MUST BE POS SO ABS WON'T COMP MPAC+3 ETC
001484:
001485:                                                                                                  #  COMPUTE CRITERION TO STOP ITERATING
001486:
001487: 31,3550           00006                           EXTEND
001488: 31,3551           30155                           DCA      MPAC                                  #  FETCH ROOT GUESS, KEEPING IT IN MPAC
001489: 31,3552           52127                           DXCH     ROOTPS                                #  AND IN ROOTPS
001490: 31,3553           50157                           INDEX    MPAC       +3                         #  PWR TABL ADRES
001491: 31,3554           30005                           CA       5                                     #  PRECROOT TO A
001492: 31,3555           07312                           TC       SHORTMP                               #  YIELDS DP PRODUCT IN MPAC
001493: 31,3556           04713                           TC       USPRCADR
001494: 31,3557           01226                           CADR     ABS                                   #  YIELDS ABVAL OF CRITERION ON DX IN MPAC
001495: 31,3560           52155                           DXCH     MPAC
001496: 31,3561           52125                           DXCH     DXCRIT                                #  CRITERION
001497:
001498:                                                                                                  #  SET UP DER COF TABL
001499:
001500: 31,3562           00006                           EXTEND
001501: 31,3563           50117                           INDEX    PWRPTR
001502: 31,3564           30004                           DCA      3
001503: 31,3565           52155                           DXCH     MPAC                                  #  A(N) TO MPAC
001504:
001505: 31,3566           30160                           CA       MPAC       +4                         #  N-1 TO A
001506:
001507: 31,3567           54140        DERCLOOP           TS       PWRCNT                                #  LOOP COUNTER
001508: 31,3570           64753                           AD       ONE
001509: 31,3571           07321                           TC       DMPNSUB                               #  YIELDS DERCOF = I X A(I) IN MPAC
001510: 31,3572           00006                           EXTEND
001511: 31,3573           50117                           INDEX    PWRPTR
001512: 31,3574           30002                           DCA      1
001513: 31,3575           52155                           DXCH     MPAC                                  #  A(I-1) TO MPAC, FETCHING DERCOF
001514: 31,3576           50141                           INDEX    DERPTR
001515: 31,3577           52004                           DXCH     3                                     #  DERCOF TO DER TABL
001516:


001518: 31,3600           44752                           CS       TWO
001519: 31,3601           26117                           ADS      PWRPTR                                #  DECREMENT PWR POINTER
001520: 31,3602           44752                           CS       TWO
001521: 31,3603           26141                           ADS      DERPTR                                #  DECREMENT DER POINTER
001522: 31,3604           10140                           CCS      PWRCNT
001523: 31,3605           13567                           TCF      DERCLOOP
001524:
001525:                                                                                                  #  CONVERGE ON ROOT
001526:
001527: 31,3606           00006        ROOTLOOP           EXTEND
001528: 31,3607           30127                           DCA      ROOTPS                                #  FETCH CURRENT ROOT
001529: 31,3610           52155                           DXCH     MPAC                                  #  LEAVE IN MPAC
001530: 31,3611           00006                           EXTEND
001531: 31,3612           30162                           DCA      MPAC       +5                         #  LOAD A, L WITH DER TABL ADRES, N-2
001532: 31,3613           07220                           TC       POWRSERS                              #  YIELDS DERIVATIVE IN MPAC
001533:
001534: 31,3614           00006                           EXTEND
001535: 31,3615           30127                           DCA      ROOTPS
001536: 31,3616           52155                           DXCH     MPAC                                  #  CURRENT ROOT TO MPAC, FETCHING DERIVTIVE
001537: 31,3617           52131                           DXCH     BUF                                   #  LEAVE DERIVATIVE IN BUF AS DIVISOR
001538: 31,3620           00006                           EXTEND
001539: 31,3621           30160                           DCA      MPAC       +3                         #  LOAD A, L WITH PWR TABL ADRES, N-1
001540: 31,3622           07220                           TC       POWRSERS                              #  YIELDS RESIDUAL IN MPAC
001541:
001542: 31,3623           04713                           TC       USPRCADR
001543: 31,3624           00353                           CADR     DDV/BDDV                              #  YIELDS -DX IN MPAC
001544:
001545: 31,3625           00006                           EXTEND
001546: 31,3626           40155                           DCS      MPAC                                  #  FETCH DX, LEAVING -DX IN MPAC
001547: 31,3627           20127                           DAS      ROOTPS                                #  CORRECTED ROOT NOW IN ROOTPS
001548:
001549: 31,3630           04713                           TC       USPRCADR
001550: 31,3631           01226                           CADR     ABS                                   #  YIELDS ABS(DX) IN MPAC
001551: 31,3632           00006                           EXTEND
001552: 31,3633           40125                           DCS      DXCRIT
001553: 31,3634           20155                           DAS      MPAC                                  #  ABS(DX)-ABS(DXCRIT) IN MPAC
001554:
001555: 31,3635           30163                           CA       MODE
001556: 31,3636           74750                           MASK     BIT4                                  #  KLUMPP SAYS GIVE UP AFTER EIGHT PASSES
001557: 31,3637           10000                           CCS      A
001558: 31,3640           00132        BADROOT            TC       RETROOT
001559:
001560: 31,3641           24163                           INCR     MODE                                  #  INCREMENT ITERATION COUNTER
001561: 31,3642           10154                           CCS      MPAC                                  #  TEST HI ORDER DX
001562: 31,3643           13606                           TCF      ROOTLOOP
001563: 31,3644           13646                           TCF      TESTLODX
001564: 31,3645           13652                           TCF      ROOTSTOR
001565: 31,3646           10155        TESTLODX           CCS      MPAC       +1                         #  TEST LO ORDER DX
001566: 31,3647           13606                           TCF      ROOTLOOP
001567: 31,3650           13652                           TCF      ROOTSTOR
001568:


001570: 31,3651           13652                           TCF      ROOTSTOR
001571: 31,3652           52127        ROOTSTOR           DXCH     ROOTPS
001572: 31,3653           52155                           DXCH     MPAC
001573: 31,3654           30163                           CA       MODE
001574: 31,3655           54156                           TS       MPAC       +2                         #  STORE SP ITERATION COUNT IN MPAC+2
001575: 31,3656           50132                           INDEX    RETROOT
001576: 31,3657           10002                           TCF      2
001577:
001578: 31,3660           00147        DERTABLL           ADRES    DERCOFN    -3
001579:
001580:
001581:                                                                                                  #  ****************************************************************************************************************
001582:                                                                                                  #  TRASHY LITTLE SUBROUTINES
001583:                                                                                                  #  ****************************************************************************************************************
001584:
001585: 31,3661           34755        ZEROMID            CAF      ZERO                                  #  ROUTINE TO ZERO THE MIDDLE COMPONENT
001586: 31,3662           54157                           TS       MPAC       +3                         #    OF A VECTOR IN MPAC.   "TCF DANZIG"
001587: 31,3663           54160                           TS       MPAC       +4                         #    COULD BE A "TC Q" AT THE EXPENSE OF
001588: 31,3664           16064                           TCF      DANZIG                                #    A TINY AMOUNT OF TIME.
001589:
001590:
001591: 31,3665           51346        INTPRETX           INDEX    WCHPHASE                              #  SET X1 ON THE WAY TO THE INTERPRETER
001592: 31,3666           42415                           CS       TARGTDEX
001593: 31,3667           50120                           INDEX    FIXLOC
001594: 31,3670           54046                           TS       X1
001595: 31,3671           16042                           TCF      INTPRET
001596:
001597: 31,3672           31642        TDISPSET           CA       TTF/8
001598: 31,3673           00006                           EXTEND
001599: 31,3674           74750                           MP       TSCALINV
001600: 31,3675           53476                           DXCH     TTFDISP
001601:
001602: 31,3676           35014                           CA       EBANK5                                #  TREDES BECOMES ZERO TWO PASSES
001603: 31,3677           54003                           TS       EBANK                                 #    BEFORE TCGFAPPR IS REACHED
001604: 31,3700  E5,1454                                  EBANK=   TCGFAPPR
001605: 31,3700           31454                           CA       TCGFAPPR
001606: 31,3701           24006                           INCR     BBANK
001607: 31,3702           24006                           INCR     BBANK
001608: 31,3703  E7,1642                                  EBANK=   TTF/8
001609: 31,3703           61642                           AD       TTF/8
001610: 31,3704           00006                           EXTEND
001611: 31,3705           73753                           MP       TREDESCL
001612: 31,3706           63750                           AD       -DEC103
001613: 31,3707           64735                           AD       NEGMAX
001614: 31,3710           54001                           TS       L
001615: 31,3711           40001                           CS       L
001616: 31,3712           60001                           AD       L
001617: 31,3713           63752                           AD       +DEC99
001618: 31,3714           64733                           AD       POSMAX
001619:


001621: 31,3715           55666                           TS       TREDES
001622: 31,3716           41666                           CS       TREDES
001623: 31,3717           27666                           ADS      TREDES
001624: 31,3720           00002                           TC       Q
001625:
001626:
001627: 31,3721           05653        1406POO            TC       POODOO
001628: 31,3722           21406                           OCT      21406
001629: 31,3723           05600        1406ALM            TC       ALARM
001630: 31,3724           01406                           OCT      01406
001631: 31,3725           13411                           TCF      RATESTOP
001632:
001633:                                                                                                  #  DESCENT OVERFLOW SUBROUTINE
001634: 31,3726           00006        OVFDESC            EXTEND
001635: 31,3727           23456                           QXCH     OVFRET
001636:
001637: 31,3730           05600                           TC       ALARM
001638: 31,3731           01410                           OCT      01410
001639:
001640: 31,3732           00004                           INHINT                                         #  MUST USE INHINT, IBNKCALL, RELINT
001641: 31,3733           04674                           TC       IBNKCALL                              #  BECAUSE DAP COULD INTERRUPT STOPRATE AND
001642: 31,3734           40166                           FCADR    STOPRATE                              #  BECAUSE WE COME FROM P66HZ VIA BANKCALL
001643: 31,3735           00003                           RELINT
001644:
001645: 31,3736           34755                           CA       ZERO
001646: 31,3737           54121                           TS       OVFIND
001647:
001648: 31,3740           01456                           TC       OVFRET
001649:


001651:
001652:                                                                                                  #  ****************************************************************************************************************
001653:                                                                                                  #  SPECIALIZED "PHASCHNG" SUBROUTINE
001654:                                                                                                  #  ****************************************************************************************************************
001655:
001656: 31,3741  E3,1440                                  EBANK=   PHSNAME2
001657: 31,3741           35007        FASTCHNG           CA       EBANK3                                #  SPECIALIZED 'PHASCHNG' ROUTINE
001658: 31,3742           56003                           XCH      EBANK
001659: 31,3743           52002                           DXCH     L
001660: 31,3744           55442                           TS       PHSNAME3
001661: 31,3745           22003                           LXCH     EBANK
001662: 31,3746  E7,1621                                  EBANK=   E2DPS
001663: 31,3746           00000                           TC       A
001664:
001665:                                                                                                  #  ****************************************************************************************************************
001666:                                                                                                  #  PARAMETER TABLE INDIRECT ADDRESSES
001667:                                                                                                  #  ****************************************************************************************************************
001668:
001669: 31,3747  E5,1402               RDG                =        RBRFGX
001670: 31,3747  E5,1412               VDG                =        VBRFGX
001671: 31,3747  E5,1422               ADG                =        ABRFGX
001672: 31,3747  E5,1432               VDG2TTF            =        VBRFG*
001673: 31,3747  E5,1436               ADG2TTF            =        ABRFG*
001674: 31,3747  E5,1442               JDG2TTF            =        JBRFG*
001675:
001676:                                                                                                  #  ****************************************************************************************************************
001677:                                                                                                  #  LUNAR LANDING CONSTANTS
001678:                                                                                                  #  ***************************************************************************************************************
001679:
001680: 31,3747           01565        TABLTTFL           ADRES    TABLTTF    +3                         #  ADDRESS FOR REFERENCING TTF TABLE
001681:
001682:
001683: 31,3750     4740               TTFSCALE           =        BIT12
001684:
001685:
001686: 31,3750     4750               TSCALINV           =        BIT4
001687:
001688:
001689: 31,3750           77630        -DEC103            DEC      -103       B-14
001690:
001691:
001692: 31,3751           00155        P64DB              OCT      00155                                 #  0.3 DEGREES SCALED AT CDU SCALING
001693:
001694:
001695: 31,3752           00143        +DEC99             DEC      +99        B-14
001696:
001697:
001698: 31,3753           75340        TREDESCL           DEC      -.08
001699:


001701: 31,3754           00264        180DEGS            DEC      +180       B-14
001702:
001703:
001704: 31,3755           00056        1/2DEG             DEC      +.00278
001705:
001706:
001707: 31,3756           01542        PROJMAX            DEC      .42262     B-3                        #  SIN(25')/8 TO COMPARE WITH PROJ
001708:
001709:
001710: 31,3757           01022        PROJMIN            DEC      .25882     B-3                        #  SIN(15')/8 TO COMPARE WITH PROJ
001711:
001712:
001713: 31,3760           01477        V06N63             VN       0663                                  #  P63
001714:
001715: 31,3761           01500        V06N64             VN       0664                                  #  P64
001716:
001717: 31,3762           01474        V06N60             VN       0660                                  #  P65, P66, P67
001718:
001719:
001720: 22,3647                                           BANK     22
001721: 22,2000                                           SETLOC   LANDCNST
001722: 22,2000                                           BANK
001723: 22,3647                                           COUNT*   $$/F2DPS
001724:
001725: 22,3647           00021 14161  HIGHESTF           2DEC     4.34546769 B-12
001726: 22,3651           01440 00000  GSCALE             2DEC     100        B-11
001727: 22,3653           14000 00000  3/8DP              2DEC     .375
001728: 22,3655           30000 00000  3/4DP              2DEC     .750
001729: 22,3657           77534 45074  DEPRCRIT           2DEC     -.02       B-1
001730:                                                                                                  #  ****************************************************************************************************************
001731:                                                                                                  #  ****************************************************************************************************************

End of include-file LUNAR_LANDING_GUIDANCE_EQUATIONS.agc.  Parent file is MAIN.agc


