
Source Code


000002:                                                                                                  ## Copyright:   Public domain.
000003:                                                                                                  ## Filename:    MEASUREMENT_INCORPORATION.agc
000004:                                                                                                  ## Purpose:     A section of Luminary revision 178.
000005:                                                                                                  ##              It is part of the reconstructed source code for the final
000006:                                                                                                  ##              release of the flight software for the Lunar Module's
000007:                                                                                                  ##              (LM) Apollo Guidance Computer (AGC) for Apollo 14. The
000008:                                                                                                  ##              code has been recreated from copies of Zerlina 56, Luminary
000009:                                                                                                  ##              210, and Luminary 131, as well as many Luminary memos.
000010:                                                                                                  ##              It has been adapted such that the resulting bugger words
000011:                                                                                                  ##              exactly match those specified for Luminary 178 in NASA
000012:                                                                                                  ##              drawing 2021152N, which gives relatively high confidence
000013:                                                                                                  ##              that the reconstruction is correct.
000014:                                                                                                  ## Reference:   pp. 1140-1149
000015:                                                                                                  ## Assembler:   yaYUL
000016:                                                                                                  ## Contact:     Ron Burkey <info@sandroid.org>.
000017:                                                                                                  ## Website:     www.ibiblio.org/apollo/index.html
000018:                                                                                                  ## Mod history: 2019-08-14 MAS  Created from Zerlina 56.
000019:                                                                                                  ##              2021-05-30 ABS  ZEROD -> ZEROO
000020:


000022:                                                                                                  #   INCORP1--PERFORMS THE SIX DIMENSIONAL STATE VECTOR DEVIATION FOR POSITI
000023:                                                                                                  #  ON AND VELOCITY OR THE NINE DIMENSIONAL DEVIATION OF POSITION,VELOCITY,A
000024:                                                                                                  #  ND RADAR OR LANDMARK BIAS.THE OUTPUT OF THE BVECTOR ROUTINE ALONG WITH T
000025:                                                                                                  #  HE ERROR TRANSITION MATRIX(W) ARE USED AS INPUT TO THE ROUTINE.THE DEVIA
000026:                                                                                                  #  TION IS OBTAINED BY COMPUTING AN ESTIMATED TRACKING MEASUREMENT FROM THE
000027:                                                                                                  #  CURRENT STATE VECTOR AND COMPARING IT WITH AN ACTUAL TRACKING MEASUREMEN
000028:                                                                                                  #  T AND APPLYING A STATISTICAL WEIGHTING VECTOR.
000029:                                                                                                  #  INPUT
000030:                                                                                                  #     DMENFLG = 0 6DIMENSIONAL BVECTOR  1= 9DIMENSIONAL
000031:                                                                                                  #            W = ERROR TRANSITION MATRIX 6X6 OR 9X9
000032:                                                                                                  #     VARIANCE = VARIANCE (SCALAR)
000033:                                                                                                  #       DELTAQ = MEASURED DEVIATION(SCALAR)
000034:                                                                                                  #      BVECTOR = 6 OR 9 DIMENSIONAL BVECTOR
000035:
000036:                                                                                                  #  OUTPUT
000037:                                                                                                  #       DELTAX = STATE VECTOR DEVIATIONS 6 OR 9 DIMENSIONAL
000038:                                                                                                  #           ZI = VECTOR USED FOR THE INCORPORATION 6 OR 9 DIMENSIONAL
000039:                                                                                                  #      GAMMA = SCALAR
000040:                                                                                                  #      OMEGA = OMEGA WEIGHTING VECTOR 6 OR 9 DIMENTIONAL
000041:                                                                                                  #  CALLING SEQUENCE
000042:                                                                                                  #     L  CALL INCORP1
000043:
000044:                                                                                                  #  NORMAL EXIT
000045:
000046:                                                                                                  #     L+1 OF CALLING SEQUENCE
000047:
000048: 37,3654                                           BANK     37
000049: 23,2000                                           SETLOC   MEASINC
000050: 23,2000                                           BANK
000051:
000052: 23,2477                                           COUNT*   $$/INCOR
000053:
000054: 23,2477  E5,1400                                  EBANK=   W
000055:
000056: 23,2477           77620        INCORP1            STQ
000057: 23,2500           02772                                    EGRESS
000058: 23,2501           66370                           AXT,1    SSP
000059: 23,2502           00066                                    54D
000060: 23,2503           00051                                    S1
000061: 23,2504           00022                                    18D                                   #  IX1 = 54  S1= 18
000062: 23,2505           66374                           AXT,2    SSP
000063: 23,2506           00022                                    18D
000064: 23,2507           00052                                    S2
000065: 23,2510           00006                                    6                                     #  IX2 = 18  S2=6
000066: 23,2511           63775        Z123               VLOAD    MXV*
000067: 23,2512           03525                                    BVECTOR                               #  BVECTOR (0)
000068: 23,2513           02467                                    W          +54D,1
000069: 23,2514           12665                           STORE    ZI         +18D,2
000070: 23,2515           77775                           VLOAD
000071: 23,2516           03533                                    BVECTOR    +6                         #  BVECTOR (1)


000073: 23,2517           52717                           MXV*     VAD*
000074: 23,2520           02555                                    W          +108D,1
000075: 23,2521           75112                                    ZI         +18D,2
000076: 23,2522           12665                           STORE    ZI         +18D,2
000077: 23,2523           77775                           VLOAD
000078: 23,2524           03541                                    BVECTOR    +12D                       #  BVECTOR (2)
000079: 23,2525           52717                           MXV*     VAD*
000080: 23,2526           02643                                    W          +162D,1
000081: 23,2527           75112                                    ZI         +18D,2                     #  B(0)*W+B(1)*(W+54)+B(2)*(W+108)FIRST PAS
000082: 23,2530           12665                           STORE    ZI         +18D,2                     #  ZI THEN Z2 THEN Z3
000083: 23,2531           77700                           TIX,1
000084: 23,2532           46533                                    INCOR1
000085: 23,2533           43104        INCOR1             TIX,2    BON
000086: 23,2534           46511                                    Z123                                  #  LOOP FOR Z1,Z2,Z3
000087: 23,2535           02706                                    DMENFLG
000088: 23,2536           46542                                    INCOR1A
000089: 23,2537           77775                           VLOAD
000090: 23,2540           06470                                    ZEROVECS
000091: 23,2541           02657                           STORE    ZI         +12D
000092: 23,2542           77201        INCOR1A            SETPD    VLOAD
000093: 23,2543           00001                                    0
000094: 23,2544           02643                                    ZI
000095: 23,2545           47036                           VSQ      RTB
000096: 23,2546           21634                                    TPMODE
000097: 23,2547           47515                           PDVL     VSQ
000098: 23,2550           02651                                    ZI         +6
000099: 23,2551           76234                           RTB      TAD
000100: 23,2552           21634                                    TPMODE
000101: 23,2553           47515                           PDVL     VSQ
000102: 23,2554           02657                                    ZI         +12D
000103: 23,2555           76234                           RTB      TAD
000104: 23,2556           21634                                    TPMODE
000105: 23,2557           77171                           TAD      AXT,2
000106: 23,2560           02707                                    VARIANCE
000107: 23,2561           00000                                    0
000108: 23,2562           02665                           STORE    TRIPA                                 #  ZI*2 + Z2*2 + Z3*2 + VARIANCE
000109: 23,2563           40151                           TLOAD    BOV
000110: 23,2564           02707                                    VARIANCE                              #  CLEAR OVFIND
000111: 23,2565           46566                                    +1
000112: 23,2566           02670                           STORE    TEMPVAR                               #  TEMP STORAGE FOR VARIANCE
000113: 23,2567           77654                           BZE
000114: 23,2570           46577                                    INCOR1C
000115: 23,2571           40112        INCOR1B            SL2      BOV
000116: 23,2572           46577                                    INCOR1C
000117: 23,2573           02670                           STORE    TEMPVAR
000118: 23,2574           52114                           INCR,2   GOTO
000119: 23,2575           00001                           DEC      1          B-14
000120: 23,2576           46571                                    INCOR1B
000121: 23,2577           61551        INCOR1C            TLOAD    ROUND
000122: 23,2600           02665                                    TRIPA


000124: 23,2601           75405                           DMP      SQRT
000125: 23,2602           02670                                    TEMPVAR
000126: 23,2603           76257                           SL*      TAD
000127: 23,2604           57576                                    0,2
000128: 23,2605           02665                                    TRIPA
000129: 23,2606           63101                           NORM     INCR,2
000130: 23,2607           00050                                    X2
000131: 23,2610           77775                           DEC      -2         B-14
000132: 23,2611           77134                           SXA,2    AXT,2
000133: 23,2612           02103                                    NORMGAM                               #  NORMALIZATION COUNT -2 FOR GAMMA
000134: 23,2613           00242                                    162D
000135: 23,2614           40265                           BDDV     SETPD
000136: 23,2615           06460                                    DP1/4TH
000137: 23,2616           00001                                    0
000138: 23,2617           03500                           STORE    GAMMA
000139: 23,2620           60351                           TLOAD    NORM
000140: 23,2621           02665                                    TRIPA
000141: 23,2622           00047                                    X1
000142: 23,2623           65345                           DLOAD    PDDL                                  #  PD 0-1 = NORM (A)
000143: 23,2624           00155                                    MPAC
000144: 23,2625           03547                                    DELTAQ
000145: 23,2626           77701                           NORM
000146: 23,2627           00051                                    S1
000147: 23,2630           70460                           XSU,1    SR1
000148: 23,2631           00050                                    S1
000149: 23,2632           41471                           DDV      PUSH                                  #  PD 0-1 = DELTAQ/A
000150: 23,2633           77650                           GOTO
000151: 23,2634           45710                                    NEWZCOMP
000152: 23,2635           77731                 -3        SSP
000153: 23,2636           00052                                    S2
000154: 23,2637           00066                                    54D
000155: 23,2640           60775        INCOR2             VLOAD    VXM*                                  #  COMPUTE OMEGA1,2,3
000156: 23,2641           02643                                    ZI
000157: 23,2642           75134                                    W          +162D,2
000158: 23,2643           77206                           PUSH     VLOAD
000159: 23,2644           02651                                    ZI         +6
000160: 23,2645           53303                           VXM*     VAD
000161: 23,2646           75112                                    W          +180D,2
000162: 23,2647           77206                           PUSH     VLOAD
000163: 23,2650           02657                                    ZI         +12D
000164: 23,2651           53303                           VXM*     VAD
000165: 23,2652           75070                                    W          +198D,2
000166: 23,2653           61006                           PUSH     TIX,2                                 #  PD 2-7=OMEGA1,8-13=OMEGA2,14-19=OMEGA3
000167: 23,2654           46640                                    INCOR2
000168: 23,2655           45575                           VLOAD    STADR
000169: 23,2656           74260                           STORE    OMEGA      +12D
000170: 23,2657           45575                           VLOAD    STADR
000171: 23,2660           74266                           STORE    OMEGA      +6
000172: 23,2661           45575                           VLOAD    STADR
000173: 23,2662           74274                           STORE    OMEGA


000175: 23,2663           77214                           BON      VLOAD
000176: 23,2664           02706                                    DMENFLG
000177: 23,2665           46670                                    INCOR2AB
000178: 23,2666           06470                                    ZEROVECS
000179: 23,2667           03517                           STORE    OMEGA      +12D
000180: 23,2670           66374        INCOR2AB           AXT,2    SSP
000181: 23,2671           00022                                    18D
000182: 23,2672           00052                                    S2
000183: 23,2673           00006                                    6
000184: 23,2674           77773        INCOR3             VLOAD*
000185: 23,2675           74252                                    OMEGA      +18D,2
000186: 23,2676           53761                           VXSC     VSL*
000187: 23,2677           00001                                    0                                     #  DELTAQ/A
000188: 23,2700           20201                                    0,1
000189: 23,2701           12707                           STORE    DELTAX     +18D,2
000190: 23,2702           77304                           TIX,2    VLOAD
000191: 23,2703           46674                                    INCOR3
000192: 23,2704           02673                                    DELTAX     +6
000193: 23,2705           77732                           VSL3
000194: 23,2706           02673                           STORE    DELTAX     +6
000195: 23,2707           77650                           GOTO
000196: 23,2710           02772                                    EGRESS
000197:


000199:                                                                                                  #   INCORP2 -INCORPORATES THE COMPUTED STATE VECTOR DEVIATIONS INTO THE
000200:                                                                                                  #  ESTIMATED STATE VECTOR. THE STATE VECTOR UPDATED MAY BE FOR EITHER THE
000201:                                                                                                  #  LEM OR THE CSM.DETERMINED BY FLAG VEHUPFLG.(ZERO = LEM) (1 = CSM)
000202:                                                                                                  #  INPUT
000203:                                                                                                  #     PERMANENT STATE VECTOR FOR EITHER THE LEM OR CSM
000204:                                                                                                  #     VEHUPFLG = UPDATE VEHICLE 0=LEM  1=CSM
000205:                                                                                                  #     W =        ERROR TRANSITION MATRIX
000206:                                                                                                  #     DELTAX  =  COMPUTED STATE VECTOR DEVIATIONS
000207:                                                                                                  #     DMENFLG =  SIZE OF W MATRIX (ZERO =6X6) (1=9X9)
000208:                                                                                                  #     GAMMA   =  SCALAR FOR INCORPORATION
000209:                                                                                                  #     ZI      =  VECTOR USED IN INCORPORATION
000210:                                                                                                  #     OMEGA  =  WEIGHTING VECTOR
000211:
000212:                                                                                                  #  OUTPUT
000213:                                                                                                  #     UPDATED PERMANENT STATE VECTOR
000214:
000215:                                                                                                  #  CALLING SEQUENCE
000216:                                                                                                  #     L  CALL INCORP2
000217:
000218:                                                                                                  #  NORMAL EXIT
000219:                                                                                                  #     L+1 OF CALLING SEQUENCE
000220:
000221: 23,2000                                           SETLOC   MEASINC1
000222: 23,2000                                           BANK
000223:
000224: 23,2711                                           COUNT*   $$/INCOR
000225:
000226: 23,2711           45020        INCORP2            STQ      CALL
000227: 23,2712           02772                                    EGRESS
000228: 23,2713           27410                                    INTSTALL
000229: 23,2714           74375                           VLOAD    VXSC                                  #  CALC. GAMMA * OMEGA1,2,3
000230: 23,2715           03503                                    OMEGA
000231: 23,2716           03500                                    GAMMA
000232: 23,2717           26713                           STOVL    OMEGAM1
000233: 23,2720           03511                                    OMEGA      +6
000234: 23,2721           77761                           VXSC
000235: 23,2722           03500                                    GAMMA
000236: 23,2723           26721                           STOVL    OMEGAM2
000237: 23,2724           03517                                    OMEGA      +12D
000238: 23,2725           77761                           VXSC
000239: 23,2726           03500                                    GAMMA
000240: 23,2727           02727                           STORE    OMEGAM3
000241: 23,2730           77776                           EXIT
000242: 23,2731           33212                           CAF      54DD                                  #  INITIAL IX 1 SETTING FOR W MATRIX
000243: 23,2732           55315                           TS       WIXA
000244: 23,2733           55316                           TS       WIXB
000245: 23,2734           34755                           CAF      ZERO
000246: 23,2735           55317                           TS       ZIXA                                  #  INITIAL IX 2 SETTING FOR Z COMPONENT
000247: 23,2736           55320                           TS       ZIXB
000248: 23,2737           05364        FAZA               TC       PHASCHNG


000250: 23,2740           04022                           OCT      04022
000251: 23,2741           05515                           TC       UPFLAG
000252: 23,2742           00236                           ADRES    REINTFLG
000253: 23,2743           31316        FAZA1              CA       WIXB                                  #  START FIRST PHASE OF INCORP2
000254: 23,2744           55315                           TS       WIXA                                  #   TO UPDATE 6 OR 9 DIM. W MATRIX IN TEMP
000255: 23,2745           31320                           CA       ZIXB
000256: 23,2746           55317                           TS       ZIXA
000257: 23,2747           06042                           TC       INTPRET
000258: 23,2750           73150                           LXA,1    LXA,2
000259: 23,2751           01315                                    WIXA
000260: 23,2752           01317                                    ZIXA
000261: 23,2753           70731                           SSP      DLOAD*
000262: 23,2754           00051                                    S1
000263: 23,2755           00006                                    6
000264: 23,2756           75134                                    ZI,2
000265: 23,2757           60276                           DCOMP    NORM                                  #  CALC UPPER 3X9 PARTITION OF W MATRIX
000266: 23,2760           00052                                    S2
000267: 23,2761           65161                           VXSC     XCHX,2
000268: 23,2762           02713                                    OMEGAM1
000269: 23,2763           00051                                    S2
000270: 23,2764           57144                           LXC,2    XAD,2
000271: 23,2765           00047                                    X2
000272: 23,2766           02103                                    NORMGAM
000273: 23,2767           65057                           VSL*     XCHX,2
000274: 23,2770           57576                                    0,2
000275: 23,2771           00051                                    S2
000276: 23,2772           77653                           VAD*
000277: 23,2773           02467                                    W          +54D,1
000278: 23,2774           02735                           STORE    HOLDW
000279: 23,2775           57543                           DLOAD*   DCOMP                                 #  CALC MIDDLE 3X9 PARTITION OF W MATRIX
000280: 23,2776           75134                                    ZI,2
000281: 23,2777           74301                           NORM     VXSC
000282: 23,3000           00052                                    S2
000283: 23,3001           02721                                    OMEGAM2
000284: 23,3002           71124                           XCHX,2   LXC,2
000285: 23,3003           00051                                    S2
000286: 23,3004           00047                                    X2
000287: 23,3005           53674                           XAD,2    VSL*
000288: 23,3006           02103                                    NORMGAM
000289: 23,3007           57576                                    0,2
000290: 23,3010           52724                           XCHX,2   VAD*
000291: 23,3011           00051                                    S2
000292: 23,3012           02555                                    W          +108D,1
000293: 23,3013           02743                           STORE    HOLDW      +6
000294: 23,3014           77614                           BOFF
000295: 23,3015           02746                                    DMENFLG                               #  BRANCH IF 6 DIMENSIONAL
000296: 23,3016           47036                                    FAZB
000297: 23,3017           57543                           DLOAD*   DCOMP                                 #  CALC LOWER 3X9 PARTITION OF W MATRIX
000298: 23,3020           75134                                    ZI,2
000299: 23,3021           74301                           NORM     VXSC


000301: 23,3022           00052                                    S2
000302: 23,3023           02727                                    OMEGAM3
000303: 23,3024           71124                           XCHX,2   LXC,2
000304: 23,3025           00051                                    S2
000305: 23,3026           00047                                    X2
000306: 23,3027           53674                           XAD,2    VSL*
000307: 23,3030           02103                                    NORMGAM
000308: 23,3031           57576                                    0,2
000309: 23,3032           52724                           XCHX,2   VAD*
000310: 23,3033           00051                                    S2
000311: 23,3034           02643                                    W          +162D,1
000312: 23,3035           02751                           STORE    HOLDW      +12D
000313: 23,3036           77624        FAZB               CALL
000314: 23,3037           11216                                    GRP2PC
000315: 23,3040           77776                           EXIT
000316: 23,3041           31315        FAZB1              CA       WIXA                                  #  START 2ND PHASE OF INCORP2 TO TRANSFER
000317: 23,3042           63213                           AD       6DD                                   #      TEMP REG TO PERM W MATRIX
000318: 23,3043           55316                           TS       WIXB
000319: 23,3044           31317                           CA       ZIXA
000320: 23,3045           67751                           AD       MINUS2
000321: 23,3046           55320                           TS       ZIXB
000322: 23,3047           06042                           TC       INTPRET
000323: 23,3050           66350                           LXA,1    SSP
000324: 23,3051           01315                                    WIXA
000325: 23,3052           00051                                    S1
000326: 23,3053           00006                                    6
000327: 23,3054           77775                           VLOAD
000328: 23,3055           02735                                    HOLDW
000329: 23,3056           06467                           STORE    W          +54D,1
000330: 23,3057           77775                           VLOAD
000331: 23,3060           02743                                    HOLDW      +6
000332: 23,3061           06555                           STORE    W          +108D,1
000333: 23,3062           77214                           BOFF     VLOAD
000334: 23,3063           02746                                    DMENFLG
000335: 23,3064           47074                                    FAZB5
000336: 23,3065           02751                                    HOLDW      +12D
000337: 23,3066           06643                           STORE    W          +162D,1
000338: 23,3067           52100        FAZB2              TIX,1    GOTO
000339: 23,3070           47072                                    +2
000340: 23,3071           47102                                    FAZC                                  #  DONE WITH W MATRIX. UPDATE STATE VECTOR
000341: 23,3072           77634                           RTB
000342: 23,3073           46737                                    FAZA
000343: 23,3074           43335        FAZB5              SLOAD    DAD
000344: 23,3075           01321                                    ZIXB
000345: 23,3076           07215                                    12DD
000346: 23,3077           52030                           BHIZ     GOTO
000347: 23,3100           47102                                    FAZC
000348: 23,3101           47067                                    FAZB2
000349: 23,3102           77624        FAZC               CALL
000350: 23,3103           11216                                    GRP2PC


000352: 23,3104           53375                           VLOAD    VAD                                   #  START 3RD PHASE OF INCORP2
000353: 23,3105           01701                                    X789                                  #  7TH,8TH,9TH,COMPONENT OF STATE VECTOR
000354: 23,3106           02701                                    DELTAX     +12D                       #  INCORPORATION FOR X789
000355: 23,3107           03472                           STORE    TX789
000356: 23,3110           47014                           BON      RTB
000357: 23,3111           00707                                    VEHUPFLG
000358: 23,3112           47202                                    DOCSM
000359: 23,3113           26767                                    MOVEPLEM
000360: 23,3114           77004        FAZAB              BOVB     AXT,2
000361: 23,3115           57754                                    TCDANZIG
000362: 23,3116           00000                                    0
000363: 23,3117           77014                           BOFF     AXT,2
000364: 23,3120           04344                                    MOONTHIS
000365: 23,3121           47123                                    +2
000366: 23,3122           00002                                    2
000367: 23,3123           53775                           VLOAD    VSR*
000368: 23,3124           02665                                    DELTAX                                #  B27 IF MOON ORBIT, B29 IF EARTH
000369: 23,3125           57205                                    0          -7,2
000370: 23,3126           40055                           VAD      BOV
000371: 23,3127           01521                                    TDELTAV
000372: 23,3130           47142                                    FAZAB1
000373: 23,3131           25521                           STOVL    TDELTAV
000374: 23,3132           02673                                    DELTAX     +6                         #  B5 IF MOON ORBIT, B7 IF EARTH
000375: 23,3133           53257                           VSR*     VAD
000376: 23,3134           57202                                    0          -4,2
000377: 23,3135           01527                                    TNUV
000378: 23,3136           77600                           BOV
000379: 23,3137           47146                                    FAZAB2
000380: 23,3140           35527                           STCALL   TNUV
000381: 23,3141           47155                                    FAZAB3
000382: 23,3142           53375        FAZAB1             VLOAD    VAD
000383: 23,3143           01535                                    RCV
000384: 23,3144           02665                                    DELTAX
000385: 23,3145           01535                           STORE    RCV
000386: 23,3146           53375        FAZAB2             VLOAD    VAD
000387: 23,3147           01543                                    VCV
000388: 23,3150           02673                                    DELTAX     +6
000389: 23,3151           01543                           STORE    VCV
000390: 23,3152           45134                           SXA,2    CALL
000391: 23,3153           02030                                    PBODY
000392: 23,3154           27671                                    RECTIFY
000393: 23,3155           77624        FAZAB3             CALL
000394: 23,3156           11216                                    GRP2PC
000395: 23,3157           47014                           BON      RTB
000396: 23,3160           00707                                    VEHUPFLG
000397: 23,3161           47205                                    DOCSM1
000398: 23,3162           26746                                    MOVEALEM
000399: 23,3163           77624                           CALL
000400: 23,3164           26070                                    SVDWN2                                #  STORE DOWNLINK STATE VECTOR
000401: 23,3165           77624        FAZAB4             CALL


000403: 23,3166           11216                                    GRP2PC                                #  PHASE CHANGE
000404: 23,3167           77214                           BOFF     VLOAD
000405: 23,3170           02746                                    DMENFLG
000406: 23,3171           47174                                    FAZAB5                                #  6 DIMENSIONAL
000407: 23,3172           03472                                    TX789                                 #  9 DIMENSIONAL
000408: 23,3173           01701                           STORE    X789
000409: 23,3174           66150        FAZAB5             LXA,1    SXA,1
000410: 23,3175           02772                                    EGRESS
000411: 23,3176           00052                                    QPRET
000412: 23,3177           77776                           EXIT
000413: 23,3200           04635                           TC       POSTJUMP                              #  EXIT
000414: 23,3201           27421                           CADR     INTWAKE
000415: 23,3202           52034        DOCSM              RTB      GOTO
000416: 23,3203           26722                                    MOVEPCSM
000417: 23,3204           47114                                    FAZAB
000418: 23,3205           45034        DOCSM1             RTB      CALL
000419: 23,3206           26673                                    MOVEACSM
000420: 23,3207           26114                                    SVDWN1                                #  STORE DOWNLINK STATE VECTOR
000421: 23,3210           77650                           GOTO
000422: 23,3211           47165                                    FAZAB4
000423: 23,3212  23,2467               ZEROO              =        ZEROVECS
000424: 23,3212           00066        54DD               DEC      54         B-14
000425: 23,3213           77771        6DD                DEC      -6         B-14
000426: 23,3214           00014        12DD               DEC      12         B-14
000427: 22,2000                                           SETLOC   RENDEZ
000428: 22,2000                                           BANK
000429: 22,3710                                           COUNT*   $$/INCOR
000430:
000431: 22,3710           51575        NEWZCOMP           VLOAD    ABVAL
000432: 22,3711           02643                                    ZI
000433: 22,3712           24045                           STOVL    NORMZI
000434: 22,3713           02651                                    ZI         +6
000435: 22,3714           41446                           ABVAL    PUSH
000436: 22,3715           50025                           DSU      BMN
000437: 22,3716           00045                                    NORMZI
000438: 22,3717           45722                                    +3
000439: 22,3720           45545                           DLOAD    STADR
000440: 22,3721           77732                           STORE    NORMZI
000441: 22,3722           51575                           VLOAD    ABVAL
000442: 22,3723           02657                                    ZI         +12D
000443: 22,3724           45206                           PUSH     DSU
000444: 22,3725           00045                                    NORMZI
000445: 22,3726           71240                           BMN      DLOAD
000446: 22,3727           45732                                    +3
000447: 22,3730           77626                           STADR
000448: 22,3731           77732                           STORE    NORMZI                                #  LARGEST ABVAL
000449: 22,3732           66145                           DLOAD    SXA,1
000450: 22,3733           00045                                    NORMZI
000451: 22,3734           00044                                    NORMZI                                #  SAVE X1
000452: 22,3735           62101                           NORM     INCR,1


000454: 22,3736           00047                                    X1
000455: 22,3737           00002                           DEC      2          B-14
000456: 22,3740           53775                           VLOAD    VSL*
000457: 22,3741           02643                                    ZI
000458: 22,3742           20201                                    0,1
000459: 22,3743           26643                           STOVL    ZI
000460: 22,3744           02651                                    ZI         +6
000461: 22,3745           77657                           VSL*
000462: 22,3746           20201                                    0,1
000463: 22,3747           26651                           STOVL    ZI         +6
000464: 22,3750           02657                                    ZI         +12D
000465: 22,3751           66057                           VSL*     SXA,1
000466: 22,3752           20201                                    0,1
000467: 22,3753           00045                                    NORMZI     +1                         #  SAVE SHIFT
000468: 22,3754           02657                           STORE    ZI         +12D
000469: 22,3755           54150                           LXA,1    XSU,1
000470: 22,3756           02103                                    NORMGAM
000471: 22,3757           00045                                    NORMZI     +1
000472: 22,3760           77660                           XSU,1
000473: 22,3761           00045                                    NORMZI     +1
000474: 22,3762           70130                           SXA,1    LXC,1
000475: 22,3763           02103                                    NORMGAM
000476: 22,3764           00045                                    NORMZI     +1
000477: 22,3765           40270                           XAD,1    SETPD
000478: 22,3766           00044                                    NORMZI
000479: 22,3767           00003                                    2D
000480: 22,3770           77650                           GOTO
000481: 22,3771           46635                                    INCOR2     -3
000482: 22,3772                        NORMZI             =        36D

End of include-file MEASUREMENT_INCORPORATION.agc.  Parent file is MAIN.agc


