
Source Code


000002:                                                                                                  ## Copyright:   Public domain.
000003:                                                                                                  ## Filename:    P32-P35,_P72-P75.agc
000004:                                                                                                  ## Purpose:     A section of Luminary revision 178.
000005:                                                                                                  ##              It is part of the reconstructed source code for the final
000006:                                                                                                  ##              release of the flight software for the Lunar Module's
000007:                                                                                                  ##              (LM) Apollo Guidance Computer (AGC) for Apollo 14. The
000008:                                                                                                  ##              code has been recreated from copies of Zerlina 56, Luminary
000009:                                                                                                  ##              210, and Luminary 131, as well as many Luminary memos.
000010:                                                                                                  ##              It has been adapted such that the resulting bugger words
000011:                                                                                                  ##              exactly match those specified for Luminary 178 in NASA
000012:                                                                                                  ##              drawing 2021152N, which gives relatively high confidence
000013:                                                                                                  ##              that the reconstruction is correct.
000014:                                                                                                  ## Reference:   pp. 616-648
000015:                                                                                                  ## Assembler:   yaYUL
000016:                                                                                                  ## Contact:     Ron Burkey <info@sandroid.org>.
000017:                                                                                                  ## Website:     www.ibiblio.org/apollo/index.html
000018:                                                                                                  ## Mod history: 2019-08-14 MAS  Created from Zerlina 56.
000019:                                                                                                  ##              2021-05-30 ABS  TTPIO -> TTPI0
000020:                                                                                                  ##                              K10RK2 -> K1ORK2
000021:


000023:                                                                                                  #  COELLIPTIC SEQUENCE INITIATION (CSI) PROGRAMS (P32 AND P72)
000024:
000025:                                                                                                  #  MOD NO -1       LOG SECTION - P32-P35, P72-P75
000026:                                                                                                  #  MOD BY WHITE.P  DATE  1JUNE67
000027:
000028:                                                                                                  #  PURPOSE
000029:
000030:                                                                                                  #        (1) TO CALCULATE PARAMETERS ASSOCIATED WITH THE FOLLOWING
000031:                                                                                                  #            CONCENTRIC FLIGHT PLAN MANEUVERS - THE CO-ELLIPTIC SEQUENCE
000032:                                                                                                  #            INITIATION (CSI) MANEUVER AND THE CONSTANT DELTA ALTITUDE
000033:                                                                                                  #            (CDH) MANEUVER.
000034:
000035:                                                                                                  #        (2) TO CALCULATE THESE PARAMETERS BASED UPON MANEUVER DATA
000036:                                                                                                  #            APPROVED AND KEYED INTO THE DSKY BY THE ASTRONAUT.
000037:
000038:                                                                                                  #        (3) TO DISPLAY TO THE ASTRONAUT AND THE GROUND DEPENDENT VARIABLES
000039:                                                                                                  #            ASSOCIATED WITH THE CONCENTRIC FLIGNT PLAN MANEUVERS FOR
000040:                                                                                                  #            APPROVAL BY THE ASTRONAUT/GROUND.
000041:
000042:                                                                                                  #        (4) TO STORE THE CSI TARGET PARAMETERS FOR USE BY THE DESIRED
000043:                                                                                                  #            THRUSTING PROGRAM.
000044:
000045:                                                                                                  #  ASSUMPTIONS
000046:
000047:                                                                                                  #        (1) AT A SELECTED TPI TIME THE LINE OF SIGHT BETWEEN THE ACTIVE
000048:                                                                                                  #            AND PASSIVE VEHICLES IS SELECTED TO BE A PRESCRIBED ANGLE (E)
000049:                                                                                                  #            FROM THE HORIZONTAL PLANE DEFINED BY THE ACTIVE VEHICLE
000050:                                                                                                  #            POSITION.
000051:
000052:                                                                                                  #        (2) THE TIME BETWEEN CSI IGNITION AND CDH IGNITION MUST BE
000053:                                                                                                  #            COMPUTED TO BE GREATER THAN 10 MINUTES FOR SUCCESSFUL
000054:                                                                                                  #            COMPLETION OF THE PROGRAM.
000055:
000056:                                                                                                  #        (3) THE TIME BETWEEN CDH IGNITION AND TPI IGNITION MUST BE
000057:                                                                                                  #            COMPUTED TO BE GREATER THAN 10 MINUTES FOR SUCCESSFUL
000058:                                                                                                  #            COMPLETION OF THE PROGRAM.
000059:
000060:                                                                                                  #        (4) CDH DELTA V IS SELECTED TO MINIMIZE THE VARIATION OF THE
000061:                                                                                                  #            ALTITUDE DIFFERENCE BETWEEN THE ORBITS.
000062:
000063:                                                                                                  #        (5) CSI BURN IS DEFINED SUCH THAT THE IMPULSIVE DELTA V IS IN THE
000064:                                                                                                  #            HORIZONTAL PLANE DEFINED BY THE ACTIVE VEHICLE POSITION AT CSI
000065:                                                                                                  #            IGNITION.
000066:
000067:                                                                                                  #        (6) THE PERICENTER ALTITUDE OF THE ORBIT FOLLOWING CSI AND CDH
000068:                                                                                                  #            MUST BE GREATER THAN 35,000 FT (LUNAR ORBIT) OR 85 NM (EARTH
000069:                                                                                                  #            ORBIT) FOR SUCCESSFUL COMPLETION OF THIS PROGRAM.
000070:
000071:                                                                                                  #        (7) THE CSI AND CDH MANEUVERS ARE ORIGINALLY ASSUMED TO BE
000072:                                                                                                  #            PARALLEL TO THE PLANE OF THE CSM ORBIT.  HOWEVER CREW


000074:                                                                                                  #            MODIFICATION OF DELTA V (LV) COMPONENTS MAY RESULT IN AN
000075:                                                                                                  #            OUT-OF-PLANE CSI MANEUVER.
000076:
000077:                                                                                                  #        (8) STATE VECTOR UPDATES BY P27 ARE DISALLOWED DURING AUTOMATIC
000078:                                                                                                  #            STATE VECTOR UPDATING INITIATED BY P20 (SEE ASSUMPTION 10).
000079:
000080:                                                                                                  #        (9) COMPUTED VARIABLES MAY BE STORED FOR LATER VERIFICATION BY
000081:                                                                                                  #            THE GROUND.  THESE STORAGE CAPABILITIES ARE NORMALLY LIMITED
000082:                                                                                                  #            ONLY TO THE PARAMETERS FOR ONE THRUSTING MANEUVER AT A TIME
000083:                                                                                                  #            EXCEPT FOR CONCENTRIC FLIGHT PLAN MANEUVER SEQUENCES.
000084:
000085:                                                                                                  #       (10) THE RENDEZVOUS RADAR MAY OR MAY NOT BE USED TO UPDATE THE LM
000086:                                                                                                  #            OR CSM STATE VECTORS FOR THIS PROGRAM.  IF RADAR USE IS
000087:                                                                                                  #            DESIRED THE RADAR WAS TURNED ON AND LOCKED ON THE CSM BY
000088:                                                                                                  #            PREVIOUS SELECTION OF P20.  RADAR SIGHTING MARKS WILL BE MADE
000089:                                                                                                  #            AUTOMATICALLY APPROXIMATELY ONCE A MINUTE WHEN ENABLED BY THE
000090:                                                                                                  #            TRACK AND UPDATE FLAGS (SEE P20).  THE RENDEZVOUS TRACKING
000091:                                                                                                  #            MARK COUNTER IS ZEROED BY THE SELECTION OF P20 AND AFTER EACH
000092:                                                                                                  #            THRUSTING MANEUVER.
000093:
000094:                                                                                                  #       (11) THE ISS NEED NOT BE ON TO COMPLETE THIS PROGRAM.
000095:
000096:                                                                                                  #       (12) THE OPERATION OF THE PROGRAM UTILIZES THE FOLLOWING FLAGS -
000097:
000098:                                                                                                  #                ACTIVE VEHICLE FLAG - DESIGNATES THE VEHICLE WHICH IS
000099:                                                                                                  #                DOING RENDEZVOUS THRUSTING MANEUVERS TO THE PROGRAM WHICH
000100:                                                                                                  #                CALCULATES THE MANEUVER PARAMETERS.  SET AT THE START OF
000101:                                                                                                  #                EACH RENDEZVOUS PRE-THRUSTING PROGRAM.
000102:
000103:                                                                                                  #                FINAL FLAG - SELECTS FINAL PROGRAM DISPLAYS AFTER CREW HAS
000104:                                                                                                  #                COMPLETED THE FINAL MANEUVER COMPUTATION AND DISPLAY
000105:                                                                                                  #                CYCLE.
000106:
000107:                                                                                                  #                EXTERNAL DELTA V STEERING FLAG - DESIGNATES THE TYPE OF
000108:                                                                                                  #                STEERING REQUIRED FOR EXECUTION OF THIS MANEUVER BY THE
000109:                                                                                                  #                THRUSTING PROGRAM SELECTED AFTER COMPLETION OF THIS
000110:                                                                                                  #                PROGRAM.
000111:
000112:                                                                                                  #       (13) IT IS NORMALLY REQUIRED THAT THE ISS BE ON FOR 1 HOUR PRIOR TO
000113:                                                                                                  #            A THRUSTING MANEUVER.
000114:
000115:                                                                                                  #       (14) THIS PROGRAM IS SELECTED BY THE ASTRONAUT BY DSKY ENTRY -
000116:
000117:                                                                                                  #                P32 IF THIS VEHICLE IS ACTIVE VEHICLE.
000118:
000119:                                                                                                  #                P72 IF THIS VEHICLE IS PASSIVE VEHICLE.
000120:
000121:                                                                                                  #  INPUT
000122:
000123:                                                                                                  #        (1) TCSI     TIME OF THE CSI MANEUVER
000124:


000126:                                                                                                  #        (2) NN       NUMBER OF APSIDAL CROSSINGS THRU WHICH THE ACTIVE
000127:                                                                                                  #                     VEHICLE ORBIT CAN BE ADVANCED TO OBTAIN THE CDH
000128:                                                                                                  #                     MANEUVER POINT
000129:                                                                                                  #        (3) ELEV     DESIRED LOS ANGLE AT TPI
000130:                                                                                                  #        (4) TTPI     TIME OF THE TPI MANEUVER
000131:                                                                                                  #  OUTPUT
000132:
000133:                                                                                                  #        (1) TRKMKCNT NUMBER OF MARKS
000134:                                                                                                  #        (2) TTOGO    TIME TO GO
000135:                                                                                                  #        (3) +MGA     MIDDLE GIMBAL ANGLE
000136:                                                                                                  #        (4) DIFFALT  DELTA ALTITUDE AT CDH
000137:                                                                                                  #        (5) T1TOT2   DELTA TIME FROM CSI TO CDH
000138:                                                                                                  #        (6) T2TOT3   DELTA TIME FROM CDH TO TPI
000139:                                                                                                  #        (7) DELVLVC  DELTA VELOCITY AT CSI - LOCAL VERTICAL COORDINATES
000140:                                                                                                  #        (8) DELVLVC  DELTA VELOCITY AT CDH - LOCAL VERTICAL COORDINATES
000141:
000142:                                                                                                  #  DOWNLINK
000143:
000144:                                                                                                  #        (1) TCSI     TIME OF THE CSI MANEUVER
000145:                                                                                                  #        (2) TCDH     TIME OF THE CDH MANEUVER
000146:                                                                                                  #        (3) TTPI     TIME OF THE TPI MANEUVER
000147:                                                                                                  #        (4) TIG      TIME OF THE CSI MANEUVER
000148:                                                                                                  #        (5) DELVEET1 DELTA VELOCITY AT CSI - REFERENCE COORDINATES
000149:                                                                                                  #        (6) DELVEET2 DELTA VELOCITY AT CDH - REFERENCE COORDINATES
000150:                                                                                                  #        (7) DIFFALT  DELTA ALTITUDE AT CDH
000151:                                                                                                  #        (8) NN       NUMBER OF APSIDAL CROSSINGS THRU WHICH THE ACTIVE
000152:                                                                                                  #                     VEHICLE ORBIT CAN BE ADVANCED TO OBTAIN THE CDH
000153:                                                                                                  #                     MANEUVER POINT
000154:                                                                                                  #        (9) ELEV     DESIRED LOS ANGLE AT TPI
000155:
000156:                                                                                                  #  COMMUNICATION TO THRUSTING PROGRAMS
000157:
000158:                                                                                                  #        (1) TIG      TIME OF THE CSI MANEUVER
000159:                                                                                                  #        (2) RTIG     POSITION OF ACTIVE VEHICLE AT CSI - BEFORE ROTATION
000160:                                                                                                  #                     INTO PLANE OF PASSIVE VEHICLE
000161:                                                                                                  #        (3) VTIG     VELOCITY OF ACTIVE VEHICLE AT CSE - BEFORE ROTATION
000162:                                                                                                  #                     INTO PLANE OF PASSIVE VEHICLE
000163:                                                                                                  #        (4) DELVSIN  DELTA VELOCITY AT CSI - REFERENCE COORDINATES
000164:                                                                                                  #        (5) DELVSAB  MAGNITUDE OF DELTA VELOCITY AT CSI
000165:                                                                                                  #        (6) XDELVFLG SET TO INDICATE EXTERNAL DELTA V VG COMPUTATION
000166:
000167:                                                                                                  #  SUBROUTINES USED
000168:
000169:                                                                                                  #        AVFLAGA
000170:                                                                                                  #        AVFLAGP
000171:                                                                                                  #        P20FLGON
000172:                                                                                                  #        VARALARM
000173:                                                                                                  #        BANKCALL
000174:                                                                                                  #        GOFLASH
000175:                                                                                                  #        GOTOPOOH


000177:                                                                                                  #        VNPOOH
000178:                                                                                                  #        GOFLASHR
000179:                                                                                                  #        BLANKET
000180:                                                                                                  #        ENDOFJOB
000181:                                                                                                  #        SELECTMU
000182:                                                                                                  #        ADVANCE
000183:                                                                                                  #        INTINT
000184:                                                                                                  #        PASSIVE
000185:                                                                                                  #        CSI/A
000186:                                                                                                  #        S32/33.1
000187:                                                                                                  #        DISDVLVC
000188:                                                                                                  #        VN1645
000189:
000190: 35,2034                                           BANK     35
000191: 35,2000                                           SETLOC   CSI/CDH
000192: 35,2000                                           BANK
000193: 35,2034  E7,1470                                  EBANK=   SUBEXIT
000194: 35,2034                                           COUNT*   $$/P3272
000195: 35,2034           02354        P32                TC       AVFLAGA
000196: 35,2035           02037                           TC       P32STRT
000197: 35,2036           02361        P72                TC       AVFLAGP
000198: 35,2037           00006        P32STRT            EXTEND
000199: 35,2040           32425                           DCA      P30ZERO
000200: 35,2041           53621                           DXCH     CENTANG
000201: 35,2042           02060                           TC       P32/P72A
000202: 35,2043           77734        ALMXITA            SXA,2
000203: 35,2044           03613                                    CSIALRM
000204: 35,2045           77740        ALMXIT             LXC,1
000205: 35,2046           03613                                    CSIALRM
000206: 35,2047           77533                           SLOAD*   EXIT
000207: 35,2050           32430                                    ALARM/TB   -1,1
000208: 35,2051           30154                           CA       MPAC
000209: 35,2052           05745                           TC       VARALARM
000210: 35,2053           35006                           CAF      V05N09
000211: 35,2054           04616                           TC       BANKCALL
000212: 35,2055           20477                           CADR     GOFLASH
000213: 35,2056           06001                           TC       GOTOPOOH
000214: 35,2057           02053                           TC       -4
000215: 35,2060           02366        P32/P72A           TC       P20FLGON
000216: 35,2061           32424                           CAF      P30ZERO
000217: 35,2062           55467                           TS       NN         +1
000218: 35,2063           55633                           TS       TCSI
000219: 35,2064           55634                           TS       TCSI       +1
000220: 35,2065           32415        VN0611             CAF      V06N11                                #  TCSI
000221: 35,2066           03627                           TC       VNPOOH
000222: 35,2067           06042                           TC       INTPRET
000223: 35,2070           57545                           DLOAD    DCOMP
000224: 35,2071           03634                                    TCSI
000225: 35,2072           71240                           BMN      DLOAD
000226: 35,2073           72120                                    VN0655


000228: 35,2074           01643                                    TETLEM
000229: 35,2075           34041                           STCALL   TDEC1
000230: 35,2076           46377                                    PRECSET
000231: 35,2077           53775                           VLOAD    VSR*
000232: 35,2100           03536                                    RACT3
000233: 35,2101           57176                                    0,2
000234: 35,2102           26655                           STOVL    RVEC
000235: 35,2103           03544                                    VACT3
000236: 35,2104           43057                           VSR*     SET
000237: 35,2105           57176                                    0,2
000238: 35,2106           03466                                    RVSW
000239: 35,2107           16744                           STODL    VVEC
000240: 35,2110           06476                                    DPPOSMAX
000241: 35,2111           36756                           STCALL   RDESIRED
000242: 35,2112           25557                                    TIMERAD
000243: 35,2113           77615                           DAD
000244: 35,2114           03574                                    TDEC2
000245: 35,2115           03634                           STORE    TCSI
000246: 35,2116           77776                           EXIT
000247: 35,2117           02065                           TC       VN0611
000248: 35,2120           77776        VN0655             EXIT
000249: 35,2121           33641                           CAF      V06N55                                #  NN, ELEV(RGLOS)
000250: 35,2122           04616                           TC       BANKCALL
000251: 35,2123           20477                           CADR     GOFLASH
000252: 35,2124           06001                           TC       GOTOPOOH
000253: 35,2125           02127                           TC       +2
000254: 35,2126           02121                           TC       -5
000255: 35,2127           33640                           CAF      V06N37                                #  TTPI
000256: 35,2130           03627                           TC       VNPOOH
000257: 35,2131           06042                           TC       INTPRET
000258: 35,2132           77745                           DLOAD
000259: 35,2133           03634                                    TCSI
000260: 35,2134           37442                           STCALL   TIG
000261: 35,2135           20000                                    SELECTMU
000262: 35,2136           77624        P32/P72B           CALL
000263: 35,2137           71016                                    ADVANCE
000264: 35,2140           77201                           SETPD    VLOAD
000265: 35,2141           00001                                    0D
000266: 35,2142           03506                                    VPASS1
000267: 35,2143           65315                           PDVL     PDDL
000268: 35,2144           03500                                    RPASS1
000269: 35,2145           03634                                    TCSI
000270: 35,2146           65325                           PDDL     PDDL
000271: 35,2147           03636                                    TTPI
000272: 35,2150           33647                                    TWOPI
000273: 35,2151           45006                           PUSH     CALL
000274: 35,2152           73404                                    INTINT
000275: 35,2153           77624                           CALL
000276: 35,2154           46431                                    PASSIVE
000277: 35,2155           77624                           CALL
000278:


000280: 35,2156           70113                                    CSI/A
000281: 35,2157           43014        P32/P72C           BON      SET
000282: 35,2160           01311                                    FINALFLG
000283: 35,2161           72163                                    P32/P72D
000284: 35,2162           00470                                    UPDATFLG
000285: 35,2163           77745        P32/P72D           DLOAD
000286: 35,2164           02253                                    T1TOT2
000287: 35,2165           02253        P32/P72E           STORE    T1TOT2
000288: 35,2166           51025                           DSU      BPL
000289: 35,2167           32427                                    60MIN
000290: 35,2170           72165                                    P32/P72E
000291: 35,2171           77745                           DLOAD
000292: 35,2172           02255                                    T2TOT3
000293: 35,2173           02255        P32/P72F           STORE    T2TOT3
000294: 35,2174           51025                           DSU      BPL
000295: 35,2175           32427                                    60MIN
000296: 35,2176           72173                                    P32/P72F
000297: 35,2177           77776                           EXIT
000298: 35,2200           32417                           CAF      V06N75
000299: 35,2201           03627                           TC       VNPOOH
000300: 35,2202           06042                           TC       INTPRET
000301: 35,2203           45175                           VLOAD    CALL
000302: 35,2204           02267                                    DELVEET1
000303: 35,2205           71100                                    S32/33.1
000304: 35,2206           26267                           STOVL    DELVEET1
000305: 35,2207           02311                                    RACT2
000306: 35,2210           26303                           STOVL    RACT1
000307: 35,2211           02275                                    DELVEET2
000308: 35,2212           45170                           AXT,1    CALL
000309: 35,2213           01522                           VN       0682
000310: 35,2214           72375                                    DISDVLVC
000311: 35,2215           77745                           DLOAD
000312: 35,2216           03636                                    TTPI
000313: 35,2217           37640                           STCALL   TTPI0
000314: 35,2220           73523                                    VN1645
000315: 35,2221           77650                           GOTO
000316: 35,2222           72136                                    P32/P72B
000317:


000319:                                                                                                  #  CONSTANT DELTA HEIGHT (CDH) PROGRAMS (P33 AND P73)
000320:
000321:                                                                                                  #  MOD NO -1       LOG SECTION - P32-P35, P72-P75
000322:                                                                                                  #  MOD BY WHITE.P  DATE  1JUNE67
000323:                                                                                                  #  PURPOSE
000324:
000325:                                                                                                  #        (1) TO CALCULATE PARAMETERS ASSOCIATED WITH THE CONSTANT DELTA
000326:                                                                                                  #            ALTITUDE MANEUVER (CDH).
000327:
000328:                                                                                                  #        (2) TO CALCULATE THESE PARAMETERS BASED UPON MANEUVER DATA
000329:                                                                                                  #            APPROVED AND KEYED INTO THE DSKY BY THE ASTRONAUT.
000330:
000331:                                                                                                  #        (3) TO DISPLAY TO THE ASTRONAUT AND THE GROUND DEPENDENT VARIABLES
000332:                                                                                                  #            ASSOCIATED WITH THE CDH MANEUVER FOR APPROVAL BY THE
000333:                                                                                                  #            ASTRONAUT/GROUND.
000334:
000335:                                                                                                  #        (4) TO STORE THE CDH TARGET PARAMETERS FOR USE BY THE DESIRED
000336:                                                                                                  #            THRUSTING PROGRAM.
000337:
000338:                                                                                                  #  ASSUMPTIONS
000339:
000340:                                                                                                  #        (1) THIS PROGRAM IS BASED UPON PREVIOUS COMPLETION OF THE
000341:                                                                                                  #            CO-ELLIPTIC SEQUENCE INITIATION (CSI) PROGRAM (P32/P72).
000342:                                                                                                  #            THERFORE -
000343:
000344:                                                                                                  #            (A) AT A SELECTED TPI TIME (NOW IN STORAGE) THE LINE OF SIGHT
000345:                                                                                                  #                BETWEEN THE ACTIVE AND PASSIVE VEHICLES WAS SELECTED TO BE
000346:                                                                                                  #                A PRESCRIBED ANGLE (E) (NOW IN STORAGE) FROM THE
000347:                                                                                                  #                HORIZONTAL PLANE DEFINED BY THE ACTIVE VEHICLE POSITION.
000348:
000349:                                                                                                  #            (B) THE TIME BETWEEN CSI IGNITION AND CDH IGNITION WAS
000350:                                                                                                  #                COMPUTED TO BE GREATER THAN 10 MINUTES.
000351:
000352:                                                                                                  #            (C) THE TIME BETWEEN CDH IGNITION AND TPI IGNITION WAS
000353:                                                                                                  #                COMPUTED TO BE GREATER THAN 10 MINUTES.
000354:
000355:                                                                                                  #            (D) THE VARIATION OF THE ALTITUDE DIFFERENCE BETWEEN THE
000356:                                                                                                  #                ORBITS WAS MINMIZED.
000357:
000358:                                                                                                  #            (E) CSI BURN WAS DEFINED SUCH THAT THE IMPULSIVE DELTA V WAS
000359:                                                                                                  #                IN THE HORIZONTAL PLANE DEFINED BY ACTIVE VEHICLE
000360:
000361:                                                                                                  #                POSITION AT CSI IGNITION.
000362:
000363:                                                                                                  #            (F) THE PERICENTER ALTITUDES OF THE ORBITS FOLLOWING CSI AND
000364:                                                                                                  #                CDH WERE COMPUTED TO BE GREATER THAN 35,000 FT FOR LUNAR
000365:                                                                                                  #                ORBIT OR 85 NM FOR EARTH ORBIT.
000366:
000367:                                                                                                  #            (G) THE CSI AND CDH MANEUVERS WERE ASSUMED TO BE PARALLEL TO
000368:                                                                                                  #                THE PLANE OF THE PASSIVE VEHICLE ORBIT.  HOWEVER, CREW
000369:


000371:                                                                                                  #                MODIFICATION OF DELTA V (LV) COMPONENTS MAY HAVE RESULTED
000372:                                                                                                  #                IN AN OUT-OF-PLANE MANEUVER.
000373:
000374:                                                                                                  #        (2) STATE VECTOR UPDATES BY P27 ARE DISALLOWED DURING AUTOMATIC
000375:                                                                                                  #            STATE VECTOR UPDATING INITIATED BY P20 (SEE ASSUMPTION 4).
000376:
000377:                                                                                                  #        (3) COMPUTED VARIABLES MAY BE STORED FOR LATER VERIFICATION BY
000378:                                                                                                  #            THE GROUND.  THESE STORAGE CAPABILITES ARE NORMALLY LIMITED
000379:                                                                                                  #            ONLY TO THE PARAMETERS FOR ONE THRUSTING MANEUVER AT A TIME
000380:                                                                                                  #            EXCEPT FOR CONCENTRIC FLIGHT PLAN MANEUVER SEQUENCES.
000381:
000382:                                                                                                  #        (4) THE RENDEZVOUS RADAR MAY OR MAY NOT BE USED TO UPDATE THE LM
000383:                                                                                                  #            OR CSM STATE VECTORS FOR THIS PROGRAM.  IF RADAR USE IS
000384:                                                                                                  #            DESIRED THE RADAR WAS TURNED ON AND LOCKED ON THE CSM BY
000385:                                                                                                  #            PREVIOUS SELECTION OF P20.  RADAR SIGHTING MARKS WILL BE MADE
000386:                                                                                                  #            AUTOMATICALLY APPROXIMATELY ONCE A MINUTE WHEN ENABLED BY THE
000387:                                                                                                  #            TRACK AND UPDATE FLAGS (SEE P20).  THE RENDEZVOUS TRACKING
000388:                                                                                                  #            MARK COUNTER IS ZEROED BY THE SELECTION OF P20 AND AFTER EACH
000389:                                                                                                  #            THRUSTING MANEUVER.
000390:
000391:                                                                                                  #        (5) THE ISS NEED NOT BE ON TO COMPLETE THIS PROGRAM.
000392:
000393:                                                                                                  #        (6) THE OPERATION OF THE PROGRAM UTILIZES THE FOLLOWING FLAGS -
000394:
000395:                                                                                                  #                ACTIVE VEGICLE FLAG - DESIGNATES THE VEHICLE WHICH IS
000396:                                                                                                  #                DOING RENDEZVOUS THRUSTING MANEUVERS TO THE PROGRAM WHICH
000397:                                                                                                  #                CALCULATES THE MANEUVER PARAMETERS.  SET AT THE START OF
000398:                                                                                                  #                EACH RENDEZVOUS PRE-THRUSTING PROGRAM.
000399:
000400:                                                                                                  #                FINAL FLAG - SELECTS FINAL PROGRAM DISPLAYS AFTER CREW HAS
000401:                                                                                                  #                COMPLETED THE FINAL MANEUVER COMPUTATION AND DISPLAY
000402:                                                                                                  #                CYCLE.
000403:
000404:                                                                                                  #                EXTERNAL DELTA V STEERING FLAG - DESIGNATES THE TYPE OF
000405:                                                                                                  #                STEERING REQUIRED FOR EXECUTION OF THIS MANEUVER BY THE
000406:                                                                                                  #                THRUSTING PROGRAM SELECTED AFTER COMPLETION OF THIS
000407:                                                                                                  #                PROGRAM.
000408:
000409:                                                                                                  #        (7) IT IS NORMALLY REQUIRED THAT THE ISS BE ON FOR 1 HOUR PRIOR TO
000410:                                                                                                  #            A THRUSTING MANEUVER.
000411:
000412:                                                                                                  #        (8) THIS PROGRAM IS SELECTED BY THE ASTRONAUT BY DSKY ENTRY -
000413:
000414:                                                                                                  #                P33 IF THIS VEHICLE IS ACTIVE VEHICLE.
000415:
000416:                                                                                                  #                P73 IF THIS VEHICLE IS PASSIVE VEHICLE.
000417:
000418:                                                                                                  #  INPUT
000419:
000420:                                                                                                  #        (1) TTPI0    TIME OF THE TPI MANEUVER - SAVED FROM P32/P72
000421:


000423:                                                                                                  #        (2) ELEV     DESIRED LOS ANGLE AT TPI - SAVED FROM P32/P72
000424:                                                                                                  #        (3) TCDH     TIME OF THE CDH MANEUVER
000425:
000426:                                                                                                  #  OUTPUT
000427:
000428:                                                                                                  #        (1) TRKMKCNT NUMBER OF MARKS
000429:                                                                                                  #        (2) TTOGO    TIME TO GO
000430:                                                                                                  #        (3) +MGA     MIDDLE GIMBAL ANGLE
000431:                                                                                                  #        (4) DIFFALT  DELTA ALTITUDE AT CDH
000432:                                                                                                  #        (5) T2TOT3   DELTA TIME FROM CDH TO COMPUTED TPI
000433:                                                                                                  #        (6) NOMTPI   DELTA TIME FROM NOMINAL TPI TO COMPUTED TPI
000434:                                                                                                  #        (7) DELVLVC  DELTA VELOCITY AT CDH - LOCAL VERTICAL COORDINATES
000435:
000436:                                                                                                  #  DOWNLINK
000437:
000438:                                                                                                  #        (1) TCDH     TIME OF THE CDH MANEUVER
000439:                                                                                                  #        (2) TTPI     TIME OF THE TPI MANEUVER
000440:                                                                                                  #        (3) TIG      TIME OF THE CDH MANEUVER
000441:                                                                                                  #        (4) DELVEET2 DELTA VELOCITY AT CDH - REFERENCE COORDINATES
000442:                                                                                                  #        (5) DIFFALT  DELTA ALTITUDE AT CDH
000443:                                                                                                  #        (6) ELEV     DESIRED LOS ANGLE AT TPI
000444:                                                                                                  #  COMMUNICATION TO THRUSTING PROGRAMS
000445:
000446:                                                                                                  #        (1) TIG      TIME OF THE CDH MANEUVER
000447:                                                                                                  #        (2) RTIG     POSITION OF ACTIVE VEHICLE AT CDH - BEFORE ROTATION
000448:                                                                                                  #                     INTO PLANE OF PASSIVE VEHICLE
000449:                                                                                                  #        (3) VTIG     VELOCITY OF ACTIVE VEHICLE AT CDH - BEFORE ROTATION
000450:                                                                                                  #                     INTO PLANE OF PASSIVE VEHICLE
000451:                                                                                                  #        (4) DELVSIN  DELTA VELOCITY AT CDH - REFERENCE COORDINATES
000452:                                                                                                  #        (5) DELVSAB  MAGNITUDE OF DELTA VELOCITY AT CDH
000453:                                                                                                  #        (6) XDELVFLG SET TO INDICATE EXTERNAL DELTA V VG COMPUTATION
000454:
000455:                                                                                                  #  SUBROUTINES USED
000456:
000457:                                                                                                  #        AVFLAGA
000458:                                                                                                  #        AVFLAGP
000459:                                                                                                  #        P20FLGON
000460:                                                                                                  #        VNPOOH
000461:                                                                                                  #        SELECTMU
000462:                                                                                                  #        ADVANCE
000463:                                                                                                  #        CDHMVR
000464:                                                                                                  #        INTINT3P
000465:                                                                                                  #        ACTIVE
000466:                                                                                                  #        PASSIVE
000467:                                                                                                  #        S33/34.1
000468:                                                                                                  #        ALARM
000469:                                                                                                  #        BANKCALL
000470:                                                                                                  #        GOFLASH
000471:                                                                                                  #        GOTOPOOH
000472:                                                                                                  #        S32/33.1


000474:                                                                                                  #        VN1645
000475:
000476: 35,2223                                           COUNT*   $$/P3373
000477: 35,2223           02354        P33                TC       AVFLAGA
000478: 35,2224           02226                           TC       P33/P73A
000479: 35,2225           02361        P73                TC       AVFLAGP
000480: 35,2226           02366        P33/P73A           TC       P20FLGON
000481: 35,2227           32416                           CAF      V06N13                                #  TCDH
000482: 35,2230           03627                           TC       VNPOOH
000483: 35,2231           06042                           TC       INTPRET
000484: 35,2232           77745                           DLOAD
000485: 35,2233           03640                                    TTPI0
000486: 35,2234           17636                           STODL    TTPI
000487: 35,2235           01775                                    TCDH
000488: 35,2236           37442                           STCALL   TIG
000489: 35,2237           20000                                    SELECTMU
000490: 35,2240           77624        P33/P73B           CALL
000491: 35,2241           71016                                    ADVANCE
000492: 35,2242           77624                           CALL
000493: 35,2243           71133                                    CDHMVR
000494: 35,2244           77201                           SETPD    VLOAD
000495: 35,2245           00001                                    0D
000496: 35,2246           03544                                    VACT3
000497: 35,2247           45115                           PDVL     CALL
000498: 35,2250           02311                                    RACT2
000499: 35,2251           71071                                    INTINT3P
000500: 35,2252           77624                           CALL
000501: 35,2253           46421                                    ACTIVE
000502: 35,2254           77201                           SETPD    VLOAD
000503: 35,2255           00001                                    0D
000504: 35,2256           03530                                    VPASS2
000505: 35,2257           45115                           PDVL     CALL
000506: 35,2260           03522                                    RPASS2
000507: 35,2261           71071                                    INTINT3P
000508: 35,2262           77624                           CALL
000509: 35,2263           46431                                    PASSIVE
000510: 35,2264           43145                           DLOAD    SET
000511: 35,2265           32425                                    P30ZERO
000512: 35,2266           03460                                    ITSWICH
000513: 35,2267           36317                           STCALL   NOMTPI
000514: 35,2270           72702                                    S33/34.1
000515: 35,2271           77454                           BZE      EXIT
000516: 35,2272           72307                                    P33/P73C
000517: 35,2273           05600                           TC       ALARM
000518: 35,2274           00611                           OCT      611
000519: 35,2275           35006                           CAF      V05N09
000520: 35,2276           04616                           TC       BANKCALL
000521: 35,2277           20477                           CADR     GOFLASH
000522: 35,2300           06001                           TC       GOTOPOOH
000523: 35,2301           02303                           TC       +2
000524:


000526: 35,2302           02226                           TC       P33/P73A
000527: 35,2303           06042                           TC       INTPRET
000528: 35,2304           77745                           DLOAD
000529: 35,2305           32425                                    P30ZERO
000530: 35,2306           02317                           STORE    NOMTPI
000531: 35,2307           43014        P33/P73C           BON      SET
000532: 35,2310           01311                                    FINALFLG
000533: 35,2311           72313                                    P33/P73D
000534: 35,2312           00470                                    UPDATFLG
000535: 35,2313           43345        P33/P73D           DLOAD    DAD
000536: 35,2314           02317                                    NOMTPI
000537: 35,2315           03636                                    TTPI
000538: 35,2316           03636                           STORE    TTPI
000539: 35,2317           77625                           DSU
000540: 35,2320           01775                                    TCDH
000541: 35,2321           51025        P33/P73E           DSU      BPL
000542: 35,2322           32427                                    60MIN
000543: 35,2323           72321                                    P33/P73E
000544: 35,2324           77615                           DAD
000545: 35,2325           32427                                    60MIN
000546: 35,2326           16253                           STODL    T1TOT2
000547: 35,2327           03636                                    TTPI
000548: 35,2330           41425                           DSU      PUSH
000549: 35,2331           03640                                    TTPI0
000550: 35,2332           45246        P33/P73F           ABS      DSU
000551: 35,2333           32427                                    60MIN
000552: 35,2334           43244                           BPL      DAD
000553: 35,2335           72332                                    P33/P73F
000554: 35,2336           32427                                    60MIN
000555: 35,2337           45565                           SIGN     STADR
000556: 35,2340           75522                           STORE    T2TOT3
000557: 35,2341           77776                           EXIT
000558: 35,2342           32417                           CAF      V06N75
000559: 35,2343           03627                           TC       VNPOOH
000560: 35,2344           06042                           TC       INTPRET
000561: 35,2345           45175                           VLOAD    CALL
000562: 35,2346           02275                                    DELVEET2
000563: 35,2347           71100                                    S32/33.1
000564: 35,2350           36275                           STCALL   DELVEET2
000565: 35,2351           73523                                    VN1645
000566: 35,2352           77650                           GOTO
000567: 35,2353           72240                                    P33/P73B
000568:


000570:                                                                                                  #  ..... AVFLAGA/P .....
000571:
000572:                                                                                                  #  SUBROUTINES USED
000573:
000574:                                                                                                  #           UPFLAG
000575:                                                                                                  #           DOWNFLAG
000576:
000577: 35,2354           00006        AVFLAGA            EXTEND                                         #  AVFLAG = LEM
000578: 35,2355           23470                           QXCH     SUBEXIT
000579: 35,2356           05515                           TC       UPFLAG
000580: 35,2357           00050                           ADRES    AVFLAG
000581: 35,2360           01470                           TC       SUBEXIT
000582: 35,2361           00006        AVFLAGP            EXTEND                                         #  AVFLAG = CSM
000583: 35,2362           23470                           QXCH     SUBEXIT
000584: 35,2363           05527                           TC       DOWNFLAG
000585: 35,2364           00050                           ADRES    AVFLAG
000586: 35,2365           01470                           TC       SUBEXIT
000587: 35,2366           00006        P20FLGON           EXTEND
000588: 35,2367           23470                           QXCH     SUBEXIT
000589: 35,2370           05515                           TC       UPFLAG
000590: 35,2371           00027                           ADRES    UPDATFLG                              #  SET UPDATFLG
000591: 35,2372           05515                           TC       UPFLAG
000592: 35,2373           00031                           ADRES    TRACKFLG                              #  SET TRACKFLG
000593: 35,2374           01470                           TC       SUBEXIT
000594:


000596:                                                                                                  #  ..... DISDVLVC  .....
000597:
000598:                                                                                                  #  SUBROUTINES USED
000599:
000600:                                                                                                  #        S32/33.X
000601:                                                                                                  #         VNPOOH
000602:
000603: 35,2375           03434        DISDVLVC           STORE    DELVLVC
000604: 35,2376           45020                           STQ      CALL
000605: 35,2377           03463                                    NORMEX
000606: 35,2400           71120                                    S32/33.X
000607: 35,2401           64375                           VLOAD    MXV
000608: 35,2402           03434                                    DELVLVC
000609: 35,2403           00001                                    0D
000610: 35,2404           66172                           VSL1     SXA,1
000611: 35,2405           03615                                    VERBNOUN
000612: 35,2406           03434                           STORE    DELVLVC
000613: 35,2407           77776                           EXIT
000614: 35,2410           31615                           CA       VERBNOUN
000615: 35,2411           03627                           TC       VNPOOH
000616: 35,2412           06042                           TC       INTPRET
000617: 35,2413           77650                           GOTO
000618: 35,2414           03463                                    NORMEX
000619:


000621:                                                                                                  #  ..... CONSTANTS .....
000622:
000623: 35,2415           01413        V06N11             VN       0611
000624: 35,2416           01415        V06N13             VN       0613
000625: 35,2417           01513        V06N75             VN       0675
000626: 35,2420           77776 62460  SN359+             2DEC     -.000086601
000627: 35,2422           17777 37776  CS359+             2DEC     +.499999992
000628: 35,2424           00000 00000  P30ZERO            2DEC     0          B-28
000629: 35,2426           00025 37100  60MIN              2DEC     360000     B-28
000630:
000631: 35,2430           00600        ALARM/TB           OCT      00600                                 #  NO 1
000632: 35,2431           00601                           OCT      00601                                 #     2
000633: 35,2432           00602                           OCT      00602                                 #     3
000634: 35,2433           00603                           OCT      00603                                 #     4
000635: 35,2434           00604                           OCT      00604                                 #     5
000636: 35,2435           00605                           OCT      00605                                 #     6
000637: 35,2436           00606                           OCT      00606                                 #     7
000638:


000640:                                                                                                  #  ..... CSI/A     .....
000641:
000642:                                                                                                  #  SUBROUTINES USED
000643:
000644:                                                                                                  #        VECSHIFT
000645:                                                                                                  #        TIMETHET
000646:                                                                                                  #        PERIAPO
000647:                                                                                                  #        SHIFTR1
000648:                                                                                                  #        INTINT2C
000649:                                                                                                  #        CDHMVR
000650:                                                                                                  #        PERIAPO1
000651:                                                                                                  #        INTINT
000652:                                                                                                  #        ACTIVE
000653:
000654: 34,2057                                           BANK     34
000655: 34,2000                                           SETLOC   CSI/CDH1
000656: 34,2000                                           BANK
000657: 34,2057  E7,1470                                  EBANK=   SUBEXIT
000658: 34,2057                                           COUNT*   $$/CSI
000659: 34,2057           00000 00020  LOOPMX             2DEC     16         B-28
000660: 34,2061           00003 34661  INITST             2DEC     .03048     B-7                        #       INITIAL DELDV = 10 FPS
000661: 34,2063           00606 04467  DVMAX1             2DEC     3.0480     B-7                        #       MAXIMUM DV1 = 1000 FPS
000662: 34,2065           00601 33216  DVMAX2             2DEC     3.014472   B-7                        #                      989 FPS
000663: 34,2067           10000 00000  1DPB2              2DEC     1.0        B-2
000664: 34,2071           00000 00001  1DPB28             2DEC     1          B-28
000665: 34,2073           00004 31566  PMINE              2DEC     157420     B-29                       #  85 NM    - MUST BE 8 WORDS BEFORE PMINM
000666: 34,2075           00000 01177  EPSILN1            2DEC     .0003048   B-7                        #       .1 FPS
000667: 34,2077           00002 27311  NICKELDP           2DEC     .021336    B-7                        #  7 FPS (CHANGED FROM .05 FPS)
000668: 34,2101           77754 57611  FIFPSDP            2DEC     -.152400   B-7                        #       50  FPS
000669: 34,2103           00000 12326  PMINM              2DEC     10668      B-29                       #  35000 FT - MUST BE 8 WORDS AFTER PMINE
000670: 34,2105           00116 00730  DELMAX1            2DEC     .6096000   B-7                        #       200 FPS
000671: 34,2107           00000 06433  ONETHTH            2DEC     .0001      B-3
000672: 34,2111           00003 25140  TMIN               2DEC     60000      B-28                       #  10 MIN
000673:
000674: 34,2113           43014        CSI/A              CLEAR    SET                                   #  INITIALIZE INDICATORS
000675: 34,2114           03260                                    S32.1F1                               #  DVT1 HAS EXCEEDED MAX INDICATOR
000676: 34,2115           03061                                    S32.1F2                               #  FIRST PASS FOR NEWTON ITERATION INDICATR
000677:


000679: 34,2116           43014                           CLEAR    SET
000680: 34,2117           03262                                    S32.1F3A                              #  00=1ST 2 PASSES 2ND CYCLE 01=FIRST CYCLE
000681: 34,2120           03063                                    S32.1F3B                              #  10=2ND CYCLE 11=50FPS STAGE 2ND CYCLE
000682: 34,2121           77745                           DLOAD
000683: 34,2122           32425                                    P30ZERO
000684: 34,2123           03606                           STORE    LOOPCT
000685: 34,2124           03614                           STORE    CSIALRM
000686: 34,2125           77201        CSI/B              SETPD    VLOAD
000687: 34,2126           00001                                    0D
000688: 34,2127           02303                                    RACT1
000689: 34,2130           41446                           ABVAL    PUSH                                  #  RA1                           B29 PL02D
000690: 34,2131           70501                           NORM     SR1
000691: 34,2132           00050                                    X2                                    #                         B29-N2+ B1 PL04D
000692: 34,2133           51515                           PDVL     ABVAL
000693: 34,2134           03552                                    RPASS3
000694: 34,2135           55301                           NORM     BDDV                                  #  RA1/RP3                        B1 PL02D
000695: 34,2136           00047                                    X1
000696: 34,2137           53664                           XSU,2    SR*                                   #                                 B2
000697: 34,2140           00046                                    X1
000698: 34,2141           57175                                    1,2
000699: 34,2142           41215                           DAD      DMP                                   #  (1+(RA1/RP3))RA1       B29+B2=B31 PL00D
000700: 34,2143           30070                                    1DPB2
000701: 34,2144           65301                           NORM     PDDL                                  #                                    PL02D
000702: 34,2145           00047                                    X1
000703: 34,2146           02321                                    RTMU
000704: 34,2147           56342                           SR1      DDV                                   #                        B38-B31= B7 PL00D
000705: 34,2150           75457                           SL*      SQRT                                  #                                 B7
000706: 34,2151           20172                                    0          -7,1
000707: 34,2152           53515                           PDVL     UNIT                                  #                                    PL02D
000708: 34,2153           02303                                    RACT1
000709: 34,2154           47315                           PDVL     VXV
000710: 34,2155           02261                                    UP1
000711: 34,2156           77656                           UNIT                                           #  UNIT(URP1 X UVP1 X URA1) = UH1
000712: 34,2157           72441                           DOT      SL1                                   #  VA1 . UH1                      B7
000713: 34,2160           03472                                    VACT1
000714: 34,2161           45421                           BDSU     STADR                                 #                                    PL00D
000715: 34,2162           60203                           STODL    DELVCSI
000716: 34,2163           30062                                    INITST                                #  10 FPS
000717: 34,2164           03612                           STORE    DELDV
000718: 34,2165           43345        CSI/B1             DLOAD    DAD                                   #  IF LOOPCT = 16
000719: 34,2166           03606                                    LOOPCT
000720: 34,2167           30072                                    1DPB28
000721: 34,2170           03606                           STORE    LOOPCT
000722: 34,2171           77025                           DSU      AXT,2
000723: 34,2172           30060                                    LOOPMX
000724: 34,2173           00006                                    6
000725: 34,2174           77644                           BPL
000726: 34,2175           70776                                    SCNDSOL
000727: 34,2176           77601        CSI/B2             SETPD
000728: 34,2177           00001                                    0D
000729:


000731: 34,2200           51545                           DLOAD    ABS
000732: 34,2201           03574                                    DELVCSI
000733: 34,2202           50025                           DSU      BMN
000734: 34,2203           30064                                    DVMAX1
000735: 34,2204           70224                                    CSI/B23
000736: 34,2205           43174                           AXT,2    BON
000737: 34,2206           00007                                    7
000738: 34,2207           03300                                    S32.1F1
000739: 34,2210           70776                                    SCNDSOL
000740: 34,2211           43014                           BOFF     BON
000741: 34,2212           03342                                    S32.1F3A
000742: 34,2213           70216                                    CSI/B22                               #  FLAG 3 NEQ 3
000743: 34,2214           03303                                    S32.1F3B
000744: 34,2215           70776                                    SCNDSOL
000745: 34,2216           71214        CSI/B22            SET      DLOAD
000746: 34,2217           03060                                    S32.1F1
000747: 34,2220           30066                                    DVMAX2
000748: 34,2221           77765                           SIGN
000749: 34,2222           03574                                    DELVCSI
000750: 34,2223           03574                           STORE    DELVCSI
000751: 34,2224           41575        CSI/B23            VLOAD    PUSH
000752: 34,2225           02303                                    RACT1
000753: 34,2226           63256                           UNIT     PDVL
000754: 34,2227           02261                                    UP1
000755: 34,2230           53435                           VXV      UNIT                                  #  UNIT (URP1 X UVP1 X URA1) = UH1
000756: 34,2231           76561                           VXSC     VSL1
000757: 34,2232           03574                                    DELVCSI
000758: 34,2233           02267                           STORE    DELVEET1
000759: 34,2234           40055                           VAD      BOV
000760: 34,2235           03472                                    VACT1
000761: 34,2236           70237                                    CSI/B23D
000762: 34,2237           37566        CSI/B23D           STCALL   VACT4
000763: 34,2240           46435                                    VECSHIFT
000764: 34,2241           26744                           STOVL    VVEC
000765: 34,2242           77614                           SET
000766: 34,2243           03466                                    RVSW
000767: 34,2244           26655                           STOVL    RVEC
000768: 34,2245           32421                                    SN359+
000769: 34,2246           36730                           STCALL   SNTH                                  #  ALSO CSTH
000770: 34,2247           24732                                    TIMETHET
000771: 34,2250           72142                           SR1      LXA,1
000772: 34,2251           02776                                    RTX1
000773: 34,2252           37604                           STCALL   HAFPA1
000774: 34,2253           46345                                    PERIAPO
000775: 34,2254           77624                           CALL
000776: 34,2255           46445                                    SHIFTR1
000777: 34,2256           17602                           STODL    POSTCSI
000778: 34,2257           03621                                    CENTANG
000779: 34,2260           52054                           BZE      GOTO
000780: 34,2261           70263                                    +2
000781:


000783: 34,2262           70372                                    CIRCL
000784: 34,2263           77745                           DLOAD
000785: 34,2264           02752                                    ECC
000786: 34,2265           50025                           DSU      BMN
000787: 34,2266           30110                                    ONETHTH
000788: 34,2267           70372                                    CIRCL
000789: 34,2270           45145                           DLOAD    CALL
000790: 34,2271           00041                                    R1
000791: 34,2272           46445                                    SHIFTR1
000792: 34,2273           60201                           SETPD    NORM
000793: 34,2274           00003                                    2D
000794: 34,2275           00047                                    X1
000795: 34,2276           50315                           PDVL     DOT                                   #                                        PL04D
000796: 34,2277           02303                                    RACT1
000797: 34,2300           03566                                    VACT4
000798: 34,2301           56246                           ABS      DDV
000799: 34,2302           00003                                    02D                                   #  (/RDOTV/)/R1              B36-B29= B7
000800: 34,2303           45257                           SL*      DSU
000801: 34,2304           20201                                    0,1
000802: 34,2305           30100                                    NICKELDP
000803: 34,2306           71240                           BMN      DLOAD
000804: 34,2307           70372                                    CIRCL
000805: 34,2310           02740                                    P
000806: 34,2311           45312                           SL2      DSU
000807: 34,2312           30070                                    1DPB2
000808: 34,2313           14017                           STODL    14D
000809: 34,2314           02317                                    RTSR1/MU
000810: 34,2315           56342                           SR1      DDV                                   #  (1/ROOTMU)/R1         B-16-B29 = B-45 PL02D
000811: 34,2316           41325                           PDDL     DMP
000812: 34,2317           02740                                    P
000813: 34,2320           00041                                    R1
000814: 34,2321           77624                           CALL
000815: 34,2322           46445                                    SHIFTR1
000816: 34,2323           72412                           SL4      SL1
000817: 34,2324           41366                           SQRT     DMP                                   #  ((P/MU)**.5)/R1       B14+B-45 = B-31 PL02D
000818: 34,2325           52414                           BOFF     SL3
000819: 34,2326           04343                                    CMOONFLG
000820: 34,2327           70330                                    CSI/B3
000821: 34,2330           50315        CSI/B3             PDVL     DOT
000822: 34,2331           02303                                    RACT1
000823: 34,2332           03566                                    VACT4
000824: 34,2333           03617                           STORE    RDOTV
000825: 34,2334           77646                           ABS
000826: 34,2335           41301                           NORM     DMP                                   #  ((P/MU)**.5)RDOTV/R1                  PL02D
000827: 34,2336           00050                                    X2
000828: 34,2337           53660                           XSU,1    SL*                                   #                   B-31+B36-B3 = B2
000829: 34,2340           00047                                    X2
000830: 34,2341           20204                                    3,1
000831: 34,2342           14015                           STODL    12D
000832: 34,2343           32425                                    P30ZERO
000833:


000835: 34,2344           00021                           STORE    16D
000836: 34,2345           53575                           VLOAD    UNIT
000837: 34,2346           00015                                    12D
000838: 34,2347           26730                           STOVL    SNTH                                  #  ALSO STORES CSTH AND 0
000839: 34,2350           02303                                    RACT1
000840: 34,2351           75315                           PDVL     SIGN
000841: 34,2352           03566                                    VACT4
000842: 34,2353           03617                                    RDOTV
000843: 34,2354           45076                           VCOMP    CALL
000844: 34,2355           46435                                    VECSHIFT
000845: 34,2356           26744                           STOVL    VVEC
000846: 34,2357           77614                           SET
000847: 34,2360           03466                                    RVSW
000848: 34,2361           36655                           STCALL   RVEC
000849: 34,2362           24732                                    TIMETHET
000850: 34,2363           51125                           PDDL     BPL
000851: 34,2364           03617                                    RDOTV
000852: 34,2365           70376                                    NTP/2
000853: 34,2366           45345                           DLOAD    DSU
000854: 34,2367           03604                                    HAFPA1
000855: 34,2370           52006                           PUSH     GOTO
000856: 34,2371           70376                                    NTP/2
000857: 34,2372           71201        CIRCL              SETPD    DLOAD
000858: 34,2373           00001                                    00D
000859: 34,2374           32425                                    P30ZERO
000860: 34,2375           77606                           PUSH
000861: 34,2376           41345        NTP/2              DLOAD    DMP
000862: 34,2377           03467                                    NN
000863: 34,2400           03604                                    HAFPA1
000864: 34,2401           45261                           SL       DSU
000865: 34,2402           20217                                    14D
000866: 34,2403           77615                           DAD
000867: 34,2404           03634                                    TCSI
000868: 34,2405           01775                           STORE    TCDH
000869: 34,2406           77021                           BDSU     AXT,2
000870: 34,2407           03636                                    TTPI
000871: 34,2410           00005                                    5D
000872: 34,2411           40240                           BMN      SETPD
000873: 34,2412           70776                                    SCNDSOL
000874: 34,2413           00001                                    0D
000875: 34,2414           63375                           VLOAD    PDVL
000876: 34,2415           03566                                    VACT4
000877: 34,2416           02303                                    RACT1
000878: 34,2417           77624                           CALL
000879: 34,2420           71062                                    INTINT2C
000880: 34,2421           26311                           STOVL    RACT2
000881: 34,2422           00007                                    VATT
000882: 34,2423           27514                           STOVL    VACT2
000883: 34,2424           03506                                    VPASS1
000884: 34,2425           63201                           SETPD    PDVL
000885:


000887: 34,2426           00001                                    0D
000888: 34,2427           03500                                    RPASS1
000889: 34,2430           77624                           CALL
000890: 34,2431           71062                                    INTINT2C
000891: 34,2432           27522                           STOVL    RPASS2
000892: 34,2433           00007                                    VATT
000893: 34,2434           37530                           STCALL   VPASS2
000894: 34,2435           71133                                    CDHMVR
000895: 34,2436           40375                           VLOAD    SETPD
000896: 34,2437           02311                                    RACT2
000897: 34,2440           00001                                    0D
000898: 34,2441           45115                           PDVL     CALL
000899: 34,2442           03544                                    VACT3
000900: 34,2443           46335                                    PERIAPO1
000901: 34,2444           77624                           CALL
000902: 34,2445           46445                                    SHIFTR1
000903: 34,2446           27604                           STOVL    POSTCDH
000904: 34,2447           03544                                    VACT3
000905: 34,2450           63201                           SETPD    PDVL
000906: 34,2451           00001                                    0D
000907: 34,2452           02311                                    RACT2
000908: 34,2453           65325                           PDDL     PDDL
000909: 34,2454           01775                                    TCDH
000910: 34,2455           03636                                    TTPI
000911: 34,2456           41525                           PDDL     PUSH
000912: 34,2457           33647                                    TWOPI
000913: 34,2460           77624                           CALL
000914: 34,2461           73404                                    INTINT
000915: 34,2462           77624                           CALL
000916: 34,2463           46421                                    ACTIVE
000917: 34,2464           77745                           DLOAD
000918: 34,2465           02257                                    ELEV
000919: 34,2466           73401                           SETPD    SINE
000920: 34,2467           00007                                    6D
000921: 34,2470           53515                           PDVL     UNIT
000922: 34,2471           03536                                    RACT3
000923: 34,2472           00001                           STORE    00D                                   #  URA3 AT 00D
000924: 34,2473           47315                           PDVL     VXV                                   #  PL14D,PL08D
000925: 34,2474           02261                                    UP1
000926: 34,2475           77656                           UNIT
000927: 34,2476           71525                           PDDL     COSINE                                #  UNIT(URA3XUVA3XURA3) = UH3       B1 PL14D
000928: 34,2477           02257                                    ELEV
000929: 34,2500           45561                           VXSC     STADR                                 #  (COSLOS)(UH3)                    B2 PL08D
000930: 34,2501           77754                           STORE    18D                                   #      PLUS
000931: 34,2502           74345                           DLOAD    VXSC                                  #  (SINLOS)(URA3) = U               B2 PL00D
000932: 34,2503           76455                           VAD      VSL1
000933: 34,2504           00023                                    18D                                   #                                   B1
000934: 34,2505           50206                           PUSH     DOT                                   #                                      PL06D
000935: 34,2506           03536                                    RACT3                                 #  (U . RA3) = TEMP1     B1 +B29 = B30
000936: 34,2507           41552                           SL1      PUSH                                  #                                  B29 PL08D
000937:


000939: 34,2510           72316                           DSQ      TLOAD                                 #  TEMP1**2                        B58
000940: 34,2511           00155                                    MPAC
000941: 34,2512           50315                           PDVL     DOT                                   #                                      PL11D
000942: 34,2513           03536                                    RACT3
000943: 34,2514           03536                                    RACT3
000944: 34,2515           57551                           TLOAD    DCOMP                                 #  RA3.RA3
000945: 34,2516           00155                                    MPAC
000946: 34,2517           50315                           PDVL     DOT                                   #  RP3.RP3                         B58 PL14D
000947: 34,2520           03552                                    RPASS3
000948: 34,2521           03552                                    RPASS3                                #                                        PL11D
000949: 34,2522           76371                           TAD      TAD                                   #  TEMP1**2+RA3.RA3+RP3.RP3=TEMP2        PL08D
000950: 34,2523           71244                           BPL      DLOAD
000951: 34,2524           70542                                    K1ORK2
000952: 34,2525           03606                                    LOOPCT
000953: 34,2526           77025                           DSU      AXT,2
000954: 34,2527           30072                                    1DPB28
000955: 34,2530           00001                                    1D
000956: 34,2531           77654                           BZE
000957: 34,2532           72043                                    ALMXITA
000958: 34,2533           70545                           DLOAD    SR1
000959: 34,2534           03612                                    DELDV
000960: 34,2535           03612                           STORE    DELDV
000961: 34,2536           77621                           BDSU
000962: 34,2537           03576                                    DVPREV
000963: 34,2540           37574                           STCALL   DELVCSI
000964: 34,2541           70165                                    CSI/B1
000965: 34,2542           41566        K1ORK2             SQRT     PUSH                                  #  TEMP3 = TEMP2**.5                B29 PL10D
000966: 34,2543           45276                           DCOMP    DSU
000967: 34,2544           00007                                    06D                                   #  -TEMP1-TEMP3 =K2 AT 10D
000968: 34,2545           14013                           STODL    10D                                   #                                       PL08D
000969: 34,2546           45425                           DSU      STADR                                 #                                       PL06D
000970: 34,2547           77762                           STORE    12D                                   #  -TEMP1+TEMP3 =K1 AT 12D
000971: 34,2550           77646                           ABS
000972: 34,2551           14017                           STODL    14D
000973: 34,2552           00013                                    10D
000974: 34,2553           45246                           ABS      DSU
000975: 34,2554           00017                                    14D
000976: 34,2555           71240                           BMN      DLOAD
000977: 34,2556           70561                                    K2.
000978: 34,2557           00015                                    12D
000979: 34,2560           00013                           STORE    10D                                   #  K=K1
000980: 34,2561           77745        K2.                DLOAD
000981: 34,2562           00013                                    10D
000982: 34,2563           76561                           VXSC     VSL1
000983: 34,2564           53455                           VAD      UNIT                                  #  V=RA3+KU UNIT                    B1
000984: 34,2565           03536                                    RACT3
000985: 34,2566           53515                           PDVL     UNIT
000986: 34,2567           03552                                    RPASS3                                #                                       PL06D
000987: 34,2570           53515                           PDVL     UNIT
000988: 34,2571           03560                                    VPASS3                                #                                       PL12D
000989:


000991: 34,2572           63235                           VXV      PDVL                                  #  UVP3 X URP3                          PL18D
000992: 34,2573           00007                                    06D
000993: 34,2574           00007                                    06D
000994: 34,2575           50235                           VXV      DOT
000995: 34,2576           00001                                    00D
000996: 34,2577           77626                           STADR                                          #                                      PL12D
000997: 34,2600           53762                           STOVL    12D                                   #  (URP3XV).(UVP3XURP3)=TEMP           PL06D
000998: 34,2601           72441                           DOT      SL1                                   #                                      PL00D
000999: 34,2602           75326                           ARCCOS   SIGN
001000: 34,2603           00015                                    12D                                   #                                  B0
001001: 34,2604           41542                           SR1      PUSH                                  #  GAMMA=SIGN(TEMP)ARCOS(UNITV.URP3)   PL02D
001002: 34,2605           71214                           BON      DLOAD
001003: 34,2606           03301                                    S32.1F2
001004: 34,2607           70644                                    FRSTPAS
001005: 34,2610           00001                                    00D                                   #  NOT THE FIRST PASS OF A CYCLE
001006: 34,2611           65225                           DSU      PDDL                                  #  GAMMA-GAMPREV                    B1 PL04D
001007: 34,2612           03610                                    GAMPREV
001008: 34,2613           03574                                    DELVCSI
001009: 34,2614           60225                           DSU      NORM                                  #                                   B7
001010: 34,2615           03576                                    DVPREV
001011: 34,2616           00047                                    X1
001012: 34,2617           65265                           BDDV     PDDL                                  #  (GAM-GAMPREV)/(DV-DVPREV)    B-6+N1 PL06D
001013: 34,2620           00003                                    02D                                   #          = SLOPE
001014: 34,2621           03574                                    DELVCSI
001015: 34,2622           03576                           STORE    DVPREV
001016: 34,2623           43014                           BOFF     BOFF
001017: 34,2624           03342                                    S32.1F3A
001018: 34,2625           70656                                    THRDCHK
001019: 34,2626           03343                                    S32.1F3B
001020: 34,2627           70656                                    THRDCHK
001021: 34,2630           41345                           DLOAD    DMP
001022: 34,2631           00003                                    02D
001023: 34,2632           03610                                    GAMPREV
001024: 34,2633           71244                           BPL      DLOAD
001025: 34,2634           70663                                    FIFTYFPS
001026: 34,2635           30062                                    INITST
001027: 34,2636           77765                           SIGN
001028: 34,2637           03612                                    DELDV
001029: 34,2640           03612                           STORE    DELDV
001030: 34,2641           43014                           SET      CLEAR
001031: 34,2642           03062                                    S32.1F3A
001032: 34,2643           03263                                    S32.1F3B
001033: 34,2644           77745        FRSTPAS            DLOAD
001034: 34,2645           00001                                    00D
001035: 34,2646           17610                           STODL    GAMPREV
001036: 34,2647           03574                                    DELVCSI
001037: 34,2650           03576                           STORE    DVPREV
001038: 34,2651           43025                           DSU      CLEAR
001039: 34,2652           03612                                    DELDV
001040: 34,2653           03261                                    S32.1F2
001041:


001043: 34,2654           37574                           STCALL   DELVCSI
001044: 34,2655           70165                                    CSI/B1
001045: 34,2656           43014        THRDCHK            BON      BON
001046: 34,2657           03302                                    S32.1F3A
001047: 34,2660           70702                                    NEWTN
001048: 34,2661           03303                                    S32.1F3B
001049: 34,2662           70702                                    NEWTN
001050: 34,2663           75345        FIFTYFPS           DLOAD    SIGN
001051: 34,2664           30102                                    FIFPSDP
001052: 34,2665           00005                                    04D
001053: 34,2666           77765                           SIGN
001054: 34,2667           03610                                    GAMPREV
001055: 34,2670           03612                           STORE    DELDV
001056: 34,2671           43276                           DCOMP    DAD
001057: 34,2672           03574                                    DELVCSI
001058: 34,2673           17574                           STODL    DELVCSI
001059: 34,2674           00001                                    00D
001060: 34,2675           43014                           SET      SET
001061: 34,2676           03063                                    S32.1F3B
001062: 34,2677           03062                                    S32.1F3A
001063: 34,2700           37610                           STCALL   GAMPREV
001064: 34,2701           70176                                    CSI/B2
001065: 34,2702           60345        NEWTN              DLOAD    NORM
001066: 34,2703           00005                                    04D
001067: 34,2704           00050                                    X2
001068: 34,2705           54065                           BDDV     XSU,1
001069: 34,2706           00001                                    00D
001070: 34,2707           00047                                    X2
001071: 34,2710           77657                           SR*
001072: 34,2711           20601                                    0,1
001073: 34,2712           17612                           STODL    DELDV
001074: 34,2713           00001                                    00D
001075: 34,2714           03610                           STORE    GAMPREV
001076: 34,2715           51545                           DLOAD    ABS
001077: 34,2716           03612                                    DELDV
001078: 34,2717           45206                           PUSH     DSU                                   #                                        PL08D
001079: 34,2720           30076                                    EPSILN1
001080: 34,2721           71240                           BMN      DLOAD
001081: 34,2722           70737                                    CSI/SOL
001082: 34,2723           50025                           DSU      BMN
001083: 34,2724           30106                                    DELMAX1
001084: 34,2725           70732                                    CSISTEP
001085: 34,2726           75345                           DLOAD    SIGN
001086: 34,2727           30106                                    DELMAX1
001087: 34,2730           03612                                    DELDV
001088: 34,2731           03612                           STORE    DELDV
001089: 34,2732           45345        CSISTEP            DLOAD    DSU
001090: 34,2733           03574                                    DELVCSI
001091: 34,2734           03612                                    DELDV
001092: 34,2735           37574                           STCALL   DELVCSI
001093:


001095: 34,2736           70165                                    CSI/B1
001096: 34,2737           77145        CSI/SOL            DLOAD    AXT,2
001097: 34,2740           03602                                    POSTCSI
001098: 34,2741           00002                                    2
001099: 34,2742           77750                           LXA,1
001100: 34,2743           02776                                    RTX1
001101: 34,2744           50023                           DSU*     BMN
001102: 34,2745           30072                                    PMINE      -2,1
001103: 34,2746           70776                                    SCNDSOL
001104: 34,2747           71374                           AXT,2    DLOAD
001105: 34,2750           00003                                    3
001106: 34,2751           03604                                    POSTCDH
001107: 34,2752           50023                           DSU*     BMN
001108: 34,2753           30072                                    PMINE      -2,1
001109: 34,2754           70776                                    SCNDSOL
001110: 34,2755           45345                           DLOAD    DSU
001111: 34,2756           01775                                    TCDH
001112: 34,2757           03634                                    TCSI
001113: 34,2760           02253                           STORE    T1TOT2
001114: 34,2761           45374                           AXT,2    DSU
001115: 34,2762           00004                                    4
001116: 34,2763           30112                                    TMIN
001117: 34,2764           77040                           BMN      AXT,2
001118: 34,2765           70776                                    SCNDSOL
001119: 34,2766           00005                                    5
001120: 34,2767           45345                           DLOAD    DSU
001121: 34,2770           03636                                    TTPI
001122: 34,2771           01775                                    TCDH
001123: 34,2772           02255                           STORE    T2TOT3
001124: 34,2773           51025                           DSU      BPL
001125: 34,2774           30112                                    TMIN
001126: 34,2775           72157                                    P32/P72C
001127: 34,2776           43014        SCNDSOL            BON      BOFF
001128: 34,2777           03302                                    S32.1F3A
001129: 34,3000           72045                                    ALMXIT
001130: 34,3001           03343                                    S32.1F3B
001131: 34,3002           72045                                    ALMXIT
001132: 34,3003           71334                           SXA,2    DLOAD
001133: 34,3004           03613                                    CSIALRM
001134: 34,3005           32425                                    P30ZERO
001135: 34,3006           43014                           CLEAR    SET
001136: 34,3007           03260                                    S32.1F1
001137: 34,3010           03061                                    S32.1F2
001138: 34,3011           43014                           CLEAR    CLEAR
001139: 34,3012           03262                                    S32.1F3A
001140: 34,3013           03263                                    S32.1F3B
001141: 34,3014           37606                           STCALL   LOOPCT
001142: 34,3015           70125                                    CSI/B
001143:


001145:                                                                                                  #  ..... ADVANCE    .....
001146:
001147:                                                                                                  #  SUBROUTINES USED
001148:
001149:                                                                                                  #        PRECSET
001150:                                                                                                  #        ROTATE
001151:
001152: 34,3016           71220        ADVANCE            STQ      DLOAD
001153: 34,3017           03470                                    SUBEXIT
001154: 34,3020           03442                                    TIG
001155: 34,3021           34041                           STCALL   TDEC1
001156: 34,3022           46377                                    PRECSET
001157: 34,3023           77214                           SET      VLOAD
001158: 34,3024           01067                                    XDELVFLG
001159: 34,3025           03560                                    VPASS3
001160: 34,3026           03530                           STORE    VPASS2
001161: 34,3027           27506                           STOVL    VPASS1
001162: 34,3030           03552                                    RPASS3
001163: 34,3031           03522                           STORE    RPASS2
001164: 34,3032           03500                           STORE    RPASS1
001165: 34,3033           47256                           UNIT     VXV
001166: 34,3034           03506                                    VPASS1
001167: 34,3035           77656                           UNIT
001168: 34,3036           26261                           STOVL    UP1
001169: 34,3037           03536                                    RACT3
001170: 34,3040           37642                           STCALL   RTIG
001171: 34,3041           71052                                    ROTATE
001172: 34,3042           02311                           STORE    RACT2
001173: 34,3043           26303                           STOVL    RACT1
001174: 34,3044           03544                                    VACT3
001175: 34,3045           37650                           STCALL   VTIG
001176: 34,3046           71052                                    ROTATE
001177: 34,3047           03514                           STORE    VACT2
001178: 34,3050           37472                           STCALL   VACT1
001179: 34,3051           03470                                    SUBEXIT
001180:


001182:                                                                                                  #  ..... ROTATE     .....
001183:
001184: 34,3052           41406        ROTATE             PUSH     PUSH
001185: 34,3053           74241                           DOT      VXSC
001186: 34,3054           02261                                    UP1
001187: 34,3055           02261                                    UP1
001188: 34,3056           51352                           VSL2     BVSU
001189: 34,3057           63256                           UNIT     PDVL
001190: 34,3060           74246                           ABVAL    VXSC
001191: 34,3061           43572                           VSL1     RVQ
001192:


001194:                                                                                                  #  ..... INTINTNA   .....
001195:
001196: 34,3062           65325        INTINT2C           PDDL     PDDL
001197: 34,3063           03634                                    TCSI
001198: 34,3064           01775                                    TCDH
001199: 34,3065           41525                           PDDL     PUSH
001200: 34,3066           33647                                    TWOPI
001201: 34,3067           77650                           GOTO
001202: 34,3070           73404                                    INTINT
001203: 34,3071           65325        INTINT3P           PDDL     PDDL
001204: 34,3072           01775                                    TCDH
001205: 34,3073           03636                                    TTPI
001206: 34,3074           41525                           PDDL     PUSH
001207: 34,3075           32425                                    P30ZERO
001208: 34,3076           77650                           GOTO
001209: 34,3077           73404                                    INTINT
001210:


001212:                                                                                                  #  ..... S32/33.1  .....
001213:
001214:                                                                                                  #  SUBROUTINES USED
001215:
001216:                                                                                                  #        S32/33.X
001217:
001218: 34,3100           76020        S32/33.1           STQ      AXT,1
001219: 34,3101           03470                                    SUBEXIT
001220: 34,3102           01521                           VN       0681
001221: 34,3103           77624                           CALL
001222: 34,3104           72375                                    DISDVLVC
001223: 34,3105           77624                           CALL
001224: 34,3106           71120                                    S32/33.X
001225: 34,3107           61375                           VLOAD    VXM
001226: 34,3110           03434                                    DELVLVC
001227: 34,3111           00001                                    0D
001228: 34,3112           77772                           VSL1
001229: 34,3113           03656                           STORE    DELVSIN
001230: 34,3114           51406                           PUSH     ABVAL
001231: 34,3115           27664                           STOVL    DELVSAB
001232: 34,3116           77650                           GOTO
001233: 34,3117           03470                                    SUBEXIT
001234:


001236:                                                                                                  #  ..... S32/33.X  .....
001237:
001238: 34,3120           77201        S32/33.X           SETPD    VLOAD
001239: 34,3121           00007                                    6D
001240: 34,3122           02261                                    UP1
001241: 34,3123           63276                           VCOMP    PDVL
001242: 34,3124           02303                                    RACT1
001243: 34,3125           57456                           UNIT     VCOMP
001244: 34,3126           47206                           PUSH     VXV
001245: 34,3127           02261                                    UP1
001246: 34,3130           77772                           VSL1
001247: 34,3131           00001                           STORE    0D
001248: 34,3132           77616                           RVQ
001249:


001251:                                                                                                  #  ..... CDHMVR     .....
001252:
001253:                                                                                                  #  SUBROUTINES USED
001254:
001255:                                                                                                  #        VECSHIFT
001256:                                                                                                  #        TIMETHET
001257:                                                                                                  #        SHIFTR1
001258:
001259: 34,3133           77220        CDHMVR             STQ      VLOAD
001260: 34,3134           03470                                    SUBEXIT
001261: 34,3135           02311                                    RACT2
001262: 34,3136           53406                           PUSH     UNIT
001263: 34,3137           27544                           STOVL    UNVEC                                 #  UR SUB A
001264: 34,3140           03522                                    RPASS2
001265: 34,3141           50256                           UNIT     DOT
001266: 34,3142           03544                                    UNVEC
001267: 34,3143           72406                           PUSH     SL1
001268: 34,3144           16732                           STODL    CSTH
001269: 34,3145           65316                           DSQ      PDDL
001270: 34,3146           06460                                    DP1/4TH
001271: 34,3147           45302                           SR2      DSU
001272: 34,3150           72566                           SQRT     SL1
001273: 34,3151           57515                           PDVL     VCOMP
001274: 34,3152           77635                           VXV
001275: 34,3153           03522                                    RPASS2
001276: 34,3154           65241                           DOT      PDDL
001277: 34,3155           02261                                    UP1
001278: 34,3156           45565                           SIGN     STADR
001279: 34,3157           51047                           STOVL    SNTH
001280: 34,3160           03522                                    RPASS2
001281: 34,3161           45115                           PDVL     CALL
001282: 34,3162           03530                                    VPASS2
001283: 34,3163           46435                                    VECSHIFT
001284: 34,3164           26744                           STOVL    VVEC
001285: 34,3165           77614                           CLEAR
001286: 34,3166           03666                                    RVSW
001287: 34,3167           36655                           STCALL   RVEC
001288: 34,3170           24732                                    TIMETHET
001289: 34,3171           53754                           LXA,2    VSL*
001290: 34,3172           02777                                    RTX2
001291: 34,3173           57576                                    0,2
001292: 34,3174           00023                           STORE    18D
001293: 34,3175           76441                           DOT      SL1R
001294: 34,3176           03544                                    UNVEC
001295: 34,3177           51515                           PDVL     ABVAL                                 #  0D = V SUB PV
001296: 34,3200           63257                           SL*      PDVL
001297: 34,3201           57576                                    0,2
001298: 34,3202           02311                                    RACT2
001299: 34,3203           65246                           ABVAL    PDDL                                  #  2D = LENGTH OF R SUB A
001300: 34,3204           77625                           DSU
001301:


001303: 34,3205           00003                                    02D
001304: 34,3206           17600                           STODL    DIFFALT                               #  DELTA H IN METERS             B+29
001305: 34,3207           02742                                    R1A
001306: 34,3210           65301                           NORM     PDDL                                  #  2 - R V**/MU                          04D
001307: 34,3211           00047                                    X1
001308: 34,3212           00041                                    R1
001309: 34,3213           77624                           CALL
001310: 34,3214           46445                                    SHIFTR1
001311: 34,3215           56362                           SR1R     DDV
001312: 34,3216           41457                           SL*      PUSH
001313: 34,3217           20174                                    0          -5,1
001314: 34,3220           65225                           DSU      PDDL                                  #  A SUB A                       B+29    04D
001315: 34,3221           03600                                    DIFFALT
001316: 34,3222           56302                           SR2      DDV                                   #  A SUB P                      B+31
001317: 34,3223           00005                                    04D                                   #                               B+2
001318: 34,3224           75406                           PUSH     SQRT                                  #     A SUB P/A SUB A             06D
001319: 34,3225           41275                           DMPR     DMP
001320: 34,3226           00007                                    06D
001321: 34,3227           00001                                    00D
001322: 34,3230           65272                           SL3R     PDDL                                  #  V SUB A V METERS/CS           B+7     08D
001323: 34,3231           00003                                    02D                                   #  R SUB A MAGNITUDE    B+29
001324: 34,3232           65301                           NORM     PDDL
001325: 34,3233           00047                                    X1
001326: 34,3234           02321                                    RTMU
001327: 34,3235           56342                           SR1      DDV                                   #  2MU  B+38
001328: 34,3236           65257                           SL*      PDDL                                  #     2 MU/R SUBAA      B+14       10D
001329: 34,3237           20174                                    0          -5,1
001330: 34,3240           00005                                    04D                                   #  ASUBA                        B+29
001331: 34,3241           65301                           NORM     PDDL
001332: 34,3242           00050                                    X2
001333: 34,3243           02321                                    RTMU
001334: 34,3244           56342                           SR1      DDV
001335: 34,3245           44257                           SL*      BDSU
001336: 34,3246           57604                                    0          -6,2                       #  2U/R - U/A    B+14 (METERS/CS)SQ
001337: 34,3247           63525                           PDDL     DSQ                                   #                                        10D
001338: 34,3250           00011                                    08D
001339: 34,3251           75421                           BDSU     SQRT
001340: 34,3252           47315                           PDVL     VXV                                   #  SQRT(MU(2/R SUB A-1/A SUB A)-VSUBA2)10D
001341: 34,3253           02261                                    UP1
001342: 34,3254           03544                                    UNVEC
001343: 34,3255           74256                           UNIT     VXSC
001344: 34,3256           00013                                    10D
001345: 34,3257           74315                           PDVL     VXSC
001346: 34,3260           03544                                    UNVEC
001347: 34,3261           00011                                    08D
001348: 34,3262           76455                           VAD      VSL1
001349: 34,3263           77626                           STADR
001350: 34,3264           74233                           STORE    VACT3
001351: 34,3265           77651                           VSU
001352: 34,3266           03514                                    VACT2


001354: 34,3267           36275                           STCALL   DELVEET2                              #  DELTA VCDH - REFERENCE COORDINATES
001355: 34,3270           03470                                    SUBEXIT
001356:


001358:                                                                                                  #  ..... COMPTGO   .....
001359:
001360:                                                                                                  #  SUBROUTINES USED
001361:
001362:                                                                                                  #           CLOKTASK
001363:                                                                                                  #           2PHSCHNG
001364:
001365: 35,2437                                           BANK     35
001366: 35,2000                                           SETLOC   CSI/CDH
001367: 35,2000                                           BANK
001368:
001369: 35,2437  E7,1465                                  EBANK=   RTRN
001370:
001371: 35,2437                                           COUNT*   $$/P3575
001372:
001373: 35,2437           00006        COMPTGO            EXTEND
001374: 35,2440           23465                           QXCH     RTRN
001375: 35,2441           34755                           CAF      ZERO
001376: 35,2442           55162                           TS       DISPDEX
001377: 35,2443           34752                           CAF      BIT2
001378: 35,2444           00004                           INHINT
001379: 35,2445           05214                           TC       WAITLIST
001380: 35,2446  E7,1455                                  EBANK=   WHICH
001381: 35,2446           02716 74067                     2CADR    CLOKTASK
001382:
001383: 35,2450           05340                           TC       2PHSCHNG
001384: 35,2451           40036                           OCT      40036
001385: 35,2452           05024                           OCT      05024
001386: 35,2453           13000                           OCT      13000
001387: 35,2454           01465                           TC       RTRN

End of include-file P32-P35,_P72-P75.agc.  Parent file is MAIN.agc


