
Source Code


000002:                                                                                                  ## Copyright:   Public domain.
000003:                                                                                                  ## Filename:    P51-P53.agc
000004:                                                                                                  ## Purpose:     A section of Luminary revision 178.
000005:                                                                                                  ##              It is part of the reconstructed source code for the final
000006:                                                                                                  ##              release of the flight software for the Lunar Module's
000007:                                                                                                  ##              (LM) Apollo Guidance Computer (AGC) for Apollo 14. The
000008:                                                                                                  ##              code has been recreated from copies of Zerlina 56, Luminary
000009:                                                                                                  ##              210, and Luminary 131, as well as many Luminary memos.
000010:                                                                                                  ##              It has been adapted such that the resulting bugger words
000011:                                                                                                  ##              exactly match those specified for Luminary 178 in NASA
000012:                                                                                                  ##              drawing 2021152N, which gives relatively high confidence
000013:                                                                                                  ##              that the reconstruction is correct.
000014:                                                                                                  ## Reference:   pp. 918-974
000015:                                                                                                  ## Assembler:   yaYUL
000016:                                                                                                  ## Contact:     Ron Burkey <info@sandroid.org>.
000017:                                                                                                  ## Website:     www.ibiblio.org/apollo/index.html
000018:                                                                                                  ## Mod history: 2019-08-14 MAS  Created from Zerlina 56.
000019:                                                                                                  ##              2019-09-15 MAS  Updated for Luminary 178. Restored definitions
000020:                                                                                                  ##                              of SPIRAL, CURSOR, and POSCODE.
000021:


000023:                                                                                                  #  PROGRAM NAME- PROG52                                                                   DATE- JAN 9, 1967
000024:                                                                                                  #  MOD NO- 0                                                                              LOG SECTION- P51-P53
000025:                                                                                                  #  MODIFICATION BY- LONSKE                                                                ASSEMBLY- SUNDANCE REV 46
000026:
000027:                                                                                                  #  FUNCTIONAL DESCRIPTION-
000028:
000029:                                                                                                  #       ALIGNS THE IMU TO ONE OF THREE ORIENTATIONS SELECTED BY THE ASTRONAUT. THE PRESENT IMU ORIENTATION IS KNOWN
000030:                                                                                                  #  AND IS STORED IN REFSMMAT. THE THREE POSSIBLE ORIENTATIONS MAY BE_
000031:
000032:                                                                                                  #       (A) PREFERRED ORIENTATION
000033:
000034:                                                                                                  #        AN OPTIMUM ORIENTATION FOR A PREVIOUSLY CALCULATED MANUEVER. THIS ORIENTATION MUST BE CALCULATED AND
000035:                                                                                                  #       STORED BY A PREVIOUSLY SELECTED PROGRAM.
000036:
000037:                                                                                                  #       (B) NOMINAL ORIENTATION
000038:
000039:                                                                                                  #           X   =  UNIT ( R )
000040:                                                                                                  #           -SM
000041:
000042:                                                                                                  #           Y  =  UNIT (V X R)
000043:                                                                                                  #            SM
000044:
000045:                                                                                                  #           Z   =  UNIT (X   X  Y  )
000046:                                                                                                  #            SM           SM     SM
000047:
000048:                                                                                                  #           WHERE_
000049:                                                                                                  #            R = THE GEOCENTRIC RADIUS VECTOR AT TIME T(ALIGN) SELECTED BY THE ASTRONAUT
000050:                                                                                                  #            -
000051:
000052:                                                                                                  #            V = THE INERTIAL VELOCITY VECTOR AT TIME T(ALIGN) SELECTED BY THE ASTRONAUT
000053:                                                                                                  #            -
000054:
000055:                                                                                                  #       (C) REFSMMAT ORIENTATION
000056:
000057:                                                                                                  #           (D)  LANDING SITE - THIS IS NOT AVAILIBLE IN SUNDANCE
000058:
000059:                                                                                                  #        THIS SELECTION CORRECTS THE PRESENT IMU ORIENTATION. THE PRESENT ORIENTATION DIFFERS FROM THAT TO WHICH IT
000060:                                                                                                  #       WAS LAST ALIGNED ONLY DUE TO GYRO DRIFT(I.E. NEITHER GIMBAL LOCK NOR IMU POWER INTERRUPTION HAS OCCURED
000061:                                                                                                  #       SINCE THE LAST ALIGNMENT).
000062:
000063:                                                                                                  #       AFTER A IMU ORIENTATION HAS BEEN SELECTED ROUTINE S52.2 IS OPERATED TO COMPUTE THE GIMBAL ANGLES USING THE
000064:                                                                                                  #  NEW ORIENTATION AND THE PRESENT VEHICLE ATTITUDE. CAL52A THEN USES THESE ANGLES, STORED IN THETAD,+1,+2, TO
000065:                                                                                                  #  COARSE ALIGN THE IMU. THE STAR SELECTION ROUTINE, R56, IS THEN OPERATED. IF 2 STARS ARE NOT AVAILABLE AN ALARM
000066:                                                                                                  #  IS FLASHED TO NOTIFY THE ASTRONAUT. AT THIS POINT THE ASTRONAUT WILL MANUEVER THE VEHICLE AND SELECT 2 STARS
000067:                                                                                                  #  EITHER MANUALLY OR AUTOMATICALLY. AFTER 2 STARS HAVE BEEN SELECTED THE IMU IS FINE ALIGNED USING ROUTINE R51. IF
000068:                                                                                                  #  THE RENDEZVOUS NAVIGATION PROCESS IS OPERATING(INDICATED BY RNDVZFLG) P20 IS DISPLAYED. OTHERWISE P00 IS
000069:                                                                                                  #  REQUESTED.
000070:
000071:                                                                                                  #  CALLING SEQUENCE-


000073:                                                                                                  #       THE PROGRAM IS CALLED BY THE ASTRONAUT BY DSKY ENTRY.
000074:
000075:                                                                                                  #  SUBROUTINES CALLED-
000076:
000077:                                                                                                  #      1. FLAGDOWN      7. S52.2           13. NEWMODEX
000078:                                                                                                  #      2. R02BOTH       8. CAL53A          14. PRIOLARM
000079:                                                                                                  #      3. GOPERF4       9. FLAGUP
000080:                                                                                                  #      4. MATMOVE      10. R56
000081:                                                                                                  #      5. GOFLASH      11. R51
000082:                                                                                                  #      6. S52.3        12. GOPERF3
000083:
000084:                                                                                                  #  NORMAL EXIT MODES-
000085:
000086:                                                                                                  #      EXITS TO ENDOFJOB
000087:
000088:                                                                                                  #  ALARM OR ABORT EXIT MODES-
000089:
000090:                                                                                                  #      NONE
000091:
000092:                                                                                                  #  OUTPUT-
000093:
000094:                                                                                                  #      THE FOLLOWING MAY BE FLASHED ON THE DSKY
000095:                                                                                                  #         1. IMU ORIENTATION CODE
000096:                                                                                                  #         2. ALARM CODE 215 -PREFERRED IMU ORIENTATION NOT SPECIFIED
000097:                                                                                                  #         3. TIME OF NEXT IGNITION
000098:                                                                                                  #         4. GIMBAL ANGLES
000099:                                                                                                  #         5. ALARM CODE 405 -TWO STARS NOT AVAILABLE
000100:                                                                                                  #         6. PLEASE PERFORM P00
000101:                                                                                                  #      THE MODE DISPLAY MAY BE CHANGED TO 20
000102:
000103:                                                                                                  #  ERASABLE INITIALIZATION REQUIRED-
000104:
000105:                                                                                                  #      PFRATFLG SHOULD BE SET IF A PREFERRED ORIENTATION HAS BEEN COMPUTED.IF IT HAS BEEN COMPUTED IT IS STORED IN
000106:                                                                                                  #      XSMD,YSMD,ZSMD.
000107:                                                                                                  #      RNDVZFLG INDICATES WHETHER THE RENDEZVOUS NAVIGATION PROCESS IS OPERATING.
000108:
000109:                                                                                                  #  DEBRIS-
000110:
000111:                                                                                                  #      WORK AREA
000112: 33,3560                                           BANK     33
000113: 15,2000                                           SETLOC   P50S
000114: 15,2000                                           BANK
000115:
000116: 15,2067  E5,1755                                  EBANK=   BESTI
000117: 15,2067                                           COUNT*   $$/P52
000118: 15,2067           04616        PROG52             TC       BANKCALL
000119: 15,2070           11241                           CADR     R02BOTH                               #  IMU STATUS CHECK
000120: 15,2071           34750                           CAF      PFRATBIT
000121: 15,2072           70076                           MASK     FLAGWRD2                              #  IS PFRATFLG SET?
000122: 15,2073           10000                           CCS      A


000124: 15,2074           02077                           TC       P52A                                  #  YES
000125: 15,2075           36250                           CAF      THREE                                 #  DISPLAY REFSMMAT OPTION 3
000126: 15,2076           02100                           TC       P52A       +1
000127: 15,2077           34753        P52A               CAF      BIT1
000128: 15,2100           55144                           TS       OPTION2
000129: 15,2101           34753        P52B               CAF      BIT1
000130: 15,2102           04616                           TC       BANKCALL                              #  FLASH OPTION CODE AND ORIENTATION CODE
000131: 15,2103           20714                           CADR     GOPERF4R                              #  FLASH V04N06
000132: 15,2104           06001                           TC       GOTOPOOH
000133: 15,2105           12112                           TCF      +5                                    #  V33-PROCEED
000134: 15,2106           02101                           TC       P52B                                  #  NEW CODE - NEW ORIENTATION CODE INPUT
000135: 15,2107           05364                           TC       PHASCHNG                              #  DISPLAY RETURN
000136: 15,2110           00014                           OCT      00014
000137: 15,2111           05155                           TC       ENDOFJOB
000138:
000139: 15,2112           31144                           CA       OPTION2
000140: 15,2113           76250                           MASK     THREE
000141: 15,2114           50000                           INDEX    A
000142: 15,2115           02116                           TC       +1
000143: 15,2116           12124                           TCF      OPT4                                  #  OPTION 4 LANDING SITE
000144: 15,2117           12176                           TCF      P52H                                  #  OPTION 1 PREFERRED
000145: 15,2120           12131                           TCF      P52T                                  #  OPTION 2 NOMINAL
000146: 15,2121           06042        P52E               TC       INTPRET                               #  OPTION 3 REFSMMAT
000147: 15,2122           77650                           GOTO
000148: 15,2123           32207                                    P52F                                  #  GO DO R51
000149:
000150: 15,2124           34741        OPT4               CAF      EBANK4                                #  SET EBANK TO USE TLAND
000151: 15,2125           54003                           TS       EBANK
000152: 15,2126  E4,1426                                  EBANK=   TLAND
000153: 15,2126           00006                           EXTEND
000154: 15,2127           31427                           DCA      TLAND                                 #  IF OPTION 4 DISPLAY TLAND
000155: 15,2130           12133                           TCF      P52T       +2
000156:
000157: 15,2131           00006        P52T               EXTEND
000158: 15,2132           34755                           DCA      NEG0
000159: 15,2133           53045                           DXCH     DSPTEM1
000160: 15,2134           35014                           CAF      EBANK5                                #  RESTORE EBANK AFTER USE OF TLAND
000161: 15,2135           54003                           TS       EBANK
000162: 15,2136  E5,1774                                  EBANK=   TALIGN
000163: 15,2136           32213                           CAF      V06N34*
000164: 15,2137           04616                           TC       BANKCALL
000165: 15,2140           20477                           CADR     GOFLASH
000166: 15,2141           06001                           TC       GOTOPOOH
000167: 15,2142           02144                           TC       +2
000168: 15,2143           02136                           TC       -5
000169: 15,2144           53045                           DXCH     DSPTEM1
000170: 15,2145           00006                           EXTEND
000171: 15,2146           62150                           BZMF     +2                                    #  IF TIME ZERO OR NEG USE TIME2
000172: 15,2147           12152                           TCF      +3
000173: 15,2150           00006                           EXTEND


000175: 15,2151           30025                           DCA      TIME2
000176: 15,2152           53775                           DXCH     TALIGN
000177: 15,2153           31144        P52V               CA       OPTION2
000178: 15,2154           74752                           MASK     BIT2
000179: 15,2155           10000                           CCS      A
000180: 15,2156           02162                           TC       P52W
000181: 15,2157           06042                           TC       INTPRET                               #  OPTION 4 - GET LS ORIENTATION
000182: 15,2160           77650                           GOTO
000183: 15,2161           32243                                    P52LS
000184:


000186:                                                                                                  #  START ALIGNMENT
000187:
000188: 15,2162           06042        P52W               TC       INTPRET
000189: 15,2163           45145                           DLOAD    CALL                                  #  PICK UP ALIGN TIME
000190: 15,2164           02775                                    TALIGN                                #  COMPUTE NOMINAL IMU
000191: 15,2165           31651                                    S52.3                                 #   ORIENTATION
000192: 15,2166           77624        P52D               CALL                                           #  READ VEHICLE ATTITUDE AND
000193: 15,2167           31620                                    S52.2                                 #   COMPUTE GIMBAL ANGLES
000194: 15,2170           77776                           EXIT
000195: 15,2171           35010                           CAF      V06N22
000196: 15,2172           04616                           TC       BANKCALL                              #  DISPLAY GIMBAL ANGLES
000197: 15,2173           20477                           CADR     GOFLASH
000198: 15,2174           06001                           TC       GOTOPOOH
000199: 15,2175           12214                           TCF      COARSTYP                              #  V33-PROCEED, SEE IF GYRO TORQUE COARSE
000200: 15,2176           06042        P52H               TC       INTPRET
000201: 15,2177           77650                           GOTO
000202: 15,2200           32166                                    P52D
000203: 15,2201           06042        REGCOARS           TC       INTPRET
000204: 15,2202           77624                           CALL                                           #  DO COARSE ALIGN
000205: 15,2203           31321                                    CAL53A                                #   ROUTINE
000206: 15,2204           43014        COARSRET           SET      CLEAR
000207: 15,2205           01462                                    REFSMFLG
000208: 15,2206           01273                                    PFRATFLG
000209: 15,2207           77624        P52F               CALL
000210: 15,2210           31007                                    R51
000211: 15,2211           77776        P52OUT             EXIT
000212: 15,2212           06001                           TC       GOTOPOOH
000213: 15,2213     5006               VB05N09            =        V05N09
000214: 15,2213           01442        V06N34*            VN       634
000215:


000217:                                                                                                  #  CHECK FOR GRRO TORQUE COARSE ALIGNMENT
000218: 15,2214           32242        COARSTYP           CAF      OCT13
000219: 15,2215           04616                           TC       BANKCALL                              #  DISPLAY V 50N25 WITH COARSE ALIGN OPTION
000220: 15,2216           20624                           CADR     GOPERF1
000221: 15,2217           16001                           TCF      GOTOPOOH                              #  V34-TERMIN&OE
000222: 15,2220           12201                           TCF      REGCOARS                              #  V33-NORMAL COARSE
000223: 15,2221           06042                           TC       INTPRET                               #  V32-GYRO TORQUE COARSE
000224: 15,2222           64375                           VLOAD    MXV
000225: 15,2223           03607                                    XSMD                                  #  GET SM(DESIRED) WRT SM(PRESENT)
000226: 15,2224           01732                                    REFSMMAT
000227: 15,2225           77656                           UNIT
000228: 15,2226           26665                           STOVL    XDC
000229: 15,2227           03615                                    YSMD
000230: 15,2230           53521                           MXV      UNIT
000231: 15,2231           01732                                    REFSMMAT
000232: 15,2232           26673                           STOVL    YDC
000233: 15,2233           03623                                    ZSMD
000234: 15,2234           53521                           MXV      UNIT
000235: 15,2235           01732                                    REFSMMAT
000236: 15,2236           36701                           STCALL   ZDC
000237: 15,2237           31156                                    GYCOARS
000238: 15,2240           77650                           GOTO
000239: 15,2241           32211                                    P52OUT
000240: 15,2242           00013        OCT13              OCT      13
000241:


000243:                                                                                                  #  COMPUTE LANDING ORIENTATION FOR OPTION 4
000244: 15,2243           43014        P52LS              SET      CLEAR                                 #  GET LANDING SITE ORIENTATION
000245: 15,2244           01463                                    LUNAFLAG
000246: 15,2245           00662                                    ERADFLAG                              #  TO PICK UP RLS
000247: 15,2246           77201                           SETPD    VLOAD
000248: 15,2247           00001                                    0
000249: 15,2250           02021                                    RLS                                   #  PICK UP LANDING SITE VEC IN MF
000250: 15,2251           41525                           PDDL     PUSH                                  #  RLS PD 0-5
000251: 15,2252           02775                                    TALIGN
000252: 15,2253           36027                           STCALL   TLAND                                 #  JAM ALIGN TIME IN TLAND FOR OPTION 4
000253:
000254: 15,2254           55720                                    RP-TO-R                               #  TRANS RLS TO REF
000255: 15,2255           77742                           VSR2
000256: 15,2256           16032                           STODL    ALPHAV                                #  INPUT TO LAT-LONG
000257: 15,2257           02775                                    TALIGN
000258: 15,2260           77624                           CALL
000259: 15,2261           30440                                    N89DISP
000260: 15,2262           53575                           VLOAD    UNIT                                  #  COMPUTE LANDING SITE ORIENT (XSMD)
000261: 15,2263           02032                                    ALPHAV
000262: 15,2264           37607                           STCALL   XSMD
000263: 15,2265           10765                                    LSORIENT
000264: 15,2266           77650                           GOTO
000265: 15,2267           32166                                    P52D                                  #  NOW GO COMPUTE GIMBAL ANGLES
000266:


000268:                                                                                                  #  SUBROUTINE TO CALCULATE AND DISPLAY THE LUNAR LANDING SITE
000269:
000270: 14,2000                                           SETLOC   P50S1
000271: 14,2000                                           BANK
000272: 14,2440  E5,1642                                  EBANK=   XSM
000273:
000274: 14,2440           77620        N89DISP            STQ
000275: 14,2441           02746                                    QMAJ
000276: 14,2442           35242                           STCALL   GDT/2      +4                         #  TEMP STORE TIME
000277: 14,2443           26347                                    LAT-LONG
000278: 14,2444           70545                           DLOAD    SR1
000279: 14,2445           01122                                    LONG
000280: 14,2446           16711                           STODL    LANDLONG
000281: 14,2447           01124                                    ALT
000282: 14,2450           16713                           STODL    LANDALT
000283: 14,2451           01120                                    LAT
000284: 14,2452           02707                           STORE    LANDLAT
000285: 14,2453           77776                           EXIT
000286:
000287: 14,2454           32477        LSDISP             CAF      V06N89*                               #  DISPLAY LAT,LONG/2,ALT
000288: 14,2455           04616                           TC       BANKCALL
000289: 14,2456           20477                           CADR     GOFLASH
000290: 14,2457           16001                           TCF      GOTOPOOH                              #  V34-TERMINATE-EXIT P57
000291: 14,2460           12462                           TCF      +2                                    #  V33-PROCEED- ACCEPT LS DATA
000292: 14,2461           12454                           TCF      LSDISP                                #  V32 OR E- LOOK AGAIN AND/OR LOAD NEW LS
000293:
000294: 14,2462           06042                           TC       INTPRET
000295: 14,2463           72545                           DLOAD    SL1
000296: 14,2464           02711                                    LANDLONG
000297: 14,2465           15122                           STODL    LONG
000298: 14,2466           02713                                    LANDALT
000299: 14,2467           15124                           STODL    ALT
000300: 14,2470           02707                                    LANDLAT
000301: 14,2471           15120                           STODL    LAT
000302: 14,2472           01242                                    GDT/2      +4                         #  PICK UP TIME
000303: 14,2473           77624                           CALL                                           #  GET RLS BACK FROM LAT,LONG, ALT
000304: 14,2474           26420                                    LALOTORV                              #  RLS B-29 IN MPAC AND ALPHAV
000305: 14,2475           77650                           GOTO
000306: 14,2476           02746                                    QMAJ
000307: 14,2477           01531        V06N89*            VN       689
000308:


000310:                                                                                                  #  NAME -S50 ALIAS  LOCSAM
000311:                                                                                                  #  BY
000312:                                                                                                  #  VINCENT
000313:                                                                                                  #  FUNCTION - COMPUTE INPUTS FOR PICAPAR  AND PLANET
000314:
000315:                                                                                                  #           DEFINE
000316:
000317:
000318:                                                                                                  #           U    = UNIT( SUN WRT EARTH)
000319:                                                                                                  #            ES
000320:
000321:                                                                                                  #           U    =UNIT( MOON WRT EARTH)
000322:                                                                                                  #            EM
000323:
000324:                                                                                                  #           R    =POSITION VECTOR OF LEM
000325:                                                                                                  #            L
000326:
000327:                                                                                                  #           R    =MEAN DISTANCE (384402KM) BETWEEN EARTH AND MOON
000328:                                                                                                  #            EM
000329:
000330:                                                                                                  #           P    =RATIO   R   /(DISTANCE SUN TO EARTH)    >.00257125
000331:                                                                                                  #                           EM
000332:
000333:                                                                                                  #           R    =EQUATORIAL RADIUSS (6378.166KM) OF EARTH
000334:                                                                                                  #            E
000335:
000336:                                                                                                  #           LOCSAM  COMPUTES IN EARTH INFLUENCE
000337:
000338:                                                                                                  #       VSUN   =   U
000339:                                                                                                  #                   ES
000340:
000341:                                                                                                  #      VEARTH  =   -UNIT( R  )
000342:                                                                                                  #                          L
000343:
000344:                                                                                                  #      VMOON   =    UNIT(R  .U   - R  )
000345:                                                                                                  #                         EM  EM    L
000346:
000347:                                                                                                  #      CSUN    =   COS 90
000348:
000349:                                                                                                  #      CEARTH  =    COS(5 + ARCSIN(R /MAG(R )))
000350:                                                                                                  #                                   E      L
000351:
000352:                                                                                                  #      CMOON   =    COS 5
000353:
000354:
000355:                                                                                                  #  INPUT -  TIME IN MPAC
000356:                                                                                                  #  OUTPUT - LISTED ABOVE
000357:                                                                                                  #  SUBROUTINES -LSPOS,LEMPREC
000358:                                                                                                  #  DEBRIS - VAC AREA ,TSIGHT
000359:


000361: 14,2500                                           COUNT*   $$/LOSAM
000362:
000363: 14,2500  14,2500               S50                =        LOCSAM
000364: 14,2500           77620        LOCSAM             STQ
000365: 14,2501           02745                                    QMIN
000366: 14,2502           37562                           STCALL   TSIGHT
000367: 14,2503           33660                                    LSPOS
000368: 14,2504           77745                           DLOAD
000369: 14,2505           03562                                    TSIGHT
000370: 14,2506           34041                           STCALL   TDEC1
000371: 14,2507           27056                                    LEMPREC
000372: 14,2510           61131                           SSP      TIX,2
000373: 14,2511           00052                                    S2
000374: 14,2512           00000                                    0
000375: 14,2513           30535                                    MOONCNTR
000376: 14,2514           74375        EARTCNTR           VLOAD    VXSC
000377: 14,2515           02723                                    VMOON
000378: 14,2516           30001                                    RSUBEM
000379: 14,2517           52372                           VSL1     VSU
000380: 14,2520           00001                                    RATT
000381: 14,2521           77656                           UNIT
000382: 14,2522           26723                           STOVL    VMOON
000383: 14,2523           00001                                    RATT
000384: 14,2524           57456                           UNIT     VCOMP
000385: 14,2525           16707                           STODL    VEARTH
000386: 14,2526           30005                                    RSUBE
000387: 14,2527           77624                           CALL
000388: 14,2530           30567                                    OCCOS
000389: 14,2531           14017                           STODL    CEARTH
000390: 14,2532           30576                                    CSS5
000391: 14,2533           34023                           STCALL   CMOON
000392: 14,2534           30562                                    ENDSAM
000393: 14,2535           74375        MOONCNTR           VLOAD    VXSC
000394: 14,2536           02723                                    VMOON
000395: 14,2537           30007                                    ROE
000396: 14,2540           53445                           BVSU     UNIT
000397: 14,2541           02715                                    VSUN
000398: 14,2542           26715                           STOVL    VSUN
000399: 14,2543           02723                                    VMOON
000400: 14,2544           53361                           VXSC     VAD
000401: 14,2545           30001                                    RSUBEM
000402: 14,2546           00001                                    RATT
000403: 14,2547           57456                           UNIT     VCOMP
000404: 14,2550           26707                           STOVL    VEARTH
000405: 14,2551           00001                                    RATT
000406: 14,2552           57456                           UNIT     VCOMP
000407: 14,2553           16723                           STODL    VMOON
000408: 14,2554           30003                                    RSUBM
000409: 14,2555           77624                           CALL
000410: 14,2556           30567                                    OCCOS


000412: 14,2557           14023                           STODL    CMOON
000413: 14,2560           30576                                    CSS5
000414: 14,2561           00017                           STORE    CEARTH
000415: 14,2562           77745        ENDSAM             DLOAD
000416: 14,2563           30600                                    CSSUN
000417: 14,2564           00021                           STORE    CSUN
000418: 14,2565           77650                           GOTO
000419: 14,2566           02745                                    QMIN
000420: 14,2567           70471        OCCOS              DDV      SR1
000421: 14,2570           00045                                    36D
000422: 14,2571           43336                           ASIN     DAD
000423: 14,2572           30602                                    5DEGREES
000424: 14,2573           70546                           COS      SR1
000425: 14,2574           77616                           RVQ
000426: 14,2575                        CEARTH             =        14D
000427: 14,2575                        CSUN               =        16D
000428: 14,2575                        CMOON              =        18D
000429: 14,2575           07760 14473  CSS5               2DEC     .2490475                              #  (COS 5)/4
000430:
000431: 14,2577           04000 00000  CSSUN              2DEC     .125                                  #  (COS60)/4
000432:
000433: 14,2601           00343 21616  5DEGREES           2DEC     .013888889                            #     SCALED IN REVS
000434:


000436:                                                                                                  #  PROGRAM NAME - R56              DATE  DEC 20 66
000437:                                                                                                  #  MOD 1                           LOG SECTION P51-P53
000438:                                                                                                  #                                  ASSEMBLY  SUNDISK  REV40
000439:                                                                                                  #  BY KEN VINCENT
000440:
000441:                                                                                                  #  FUNCTION
000442:                                                                                                  #    THIS PROGRAM READ THE IMU-CDUS AND COMPUTES THE VEHICLE ORIENTATION
000443:                                                                                                  #  WITH RESPECT TO INERTIAL SPACE. IT THEN COMPUTES THE SHAFT AXIS (SAX)
000444:                                                                                                  #  WITH RESPECT TO REFERENCE INERTIAL. EACH STAR IN THE CATALOG IS TESTED
000445:                                                                                                  #  TO DETERMINE IF IT IS OCCULTED BY EITHER THE EARTH,SUN OR MOON. IF A
000446:                                                                                                  #  STAR IS NOT OCCULTED  THEN IT IS PAIRED WITH ALL STAR OF LOWER INDEX.
000447:                                                                                                  #  THE PAIRED STAR  IS TESTED FOR OCCULTATION. PAIRS OF STARS THAT PASS
000448:                                                                                                  #  THE OCCULTATION TESTS ARE TESTED FOR GOOD SEPARATION.A PAIR OF STARS
000449:                                                                                                  #  HAVE GOOD SEPERATION IF THE ANGLE BETWEEN THEM IS LESS THAN 100 DEGREES
000450:                                                                                                  #  AND MORE THAN 50 DEGREES. THOSE PAIRS WITH GOOD SEPARATION
000451:                                                                                                  #  ARE THEN TESTED TO SEE IF THEY LIE IN CURRENT FIELD OF VIEW.(WITHIN
000452:                                                                                                  #  50 DEGREESOF SAX).THE PAIR WITH MAX SEPARATION IS CHOSEN FROM
000453:                                                                                                  #  THOSE WITH GOOD SEPARATION,AND     IN FIELD OF VIEW.
000454:
000455:                                                                                                  #  CALLING SEQUENCE
000456:                                                                                                  #  L        TC     BANKCALL
000457:                                                                                                  #  L+1      CADR   R56
000458:                                                                                                  #  L+2      ERROR RETURN - NO STARS IN FIELD OF VIEW
000459:                                                                                                  #  L+3      NORMAL RETURN
000460:
000461:                                                                                                  #  OUTPUT
000462:                                                                                                  #  BESTI,BESTJ -SINGLE PREC,INTEGERS,STAR NUMBERS TIMES 6
000463:                                                                                                  #  VFLAG - FLAG BIT  SET IMPLIES NO STARS IN FIELD OF VIEW
000464:
000465:                                                                                                  #  INITIALIZATION
000466:                                                                                                  #  1)A CALL TO LOCSAM MUST BE MADE
000467:
000468:                                                                                                  #  DEBRIS
000469:                                                                                                  #  WORK AREA
000470:                                                                                                  #  X,Y,ZNB
000471:                                                                                                  #  SINCDU,COSCDU
000472:                                                                                                  #  STARAD - STAR +5
000473:
000474: 14,2603  14,2603               R56                =        PICAPAR
000475: 14,2603                                           COUNT*   $$/R56
000476: 14,2603           04645        PICAPAR            TC       MAKECADR
000477: 14,2604           55745                           TS       QMIN
000478: 14,2605           06042                           TC       INTPRET
000479: 14,2606           77624                           CALL
000480: 14,2607           47505                                    CDUTRIG
000481: 14,2610           77624                           CALL
000482: 14,2611           20030                                    CALCSMSC
000483: 14,2612           77601                           SETPD
000484: 14,2613           00001                                    0
000485: 14,2614           71214                           SET      DLOAD                                 #  VFLAG = 1
000486: 14,2615           01465                                    VFLAG


000488: 14,2616           24007                                    DPZERO
000489: 14,2617           26756                           STOVL    BESTI
000490: 14,2620           02665                                    XNB
000491: 14,2621           63361                           VXSC     PDVL
000492: 14,2622           24005                                    HALFDP
000493: 14,2623           02701                                    ZNB
000494: 14,2624           74370                           AXT,1    VXSC
000495: 14,2625           00344                                    228D                                  #  X1 = 37 X 6 +6
000496: 14,2626           24005                                    HALFDP
000497: 14,2627           77655                           VAD
000498: 14,2630           53505                           VXM      UNIT
000499: 14,2631           01732                                    REFSMMAT
000500: 14,2632           02731                           STORE    SAX                                   #  SAX = SHAFT AXIS
000501: 14,2633           66331                           SSP      SSP                                   #  S1=S2=6
000502: 14,2634           00051                                    S1
000503: 14,2635           00006                                    6
000504: 14,2636           00052                                    S2
000505: 14,2637           00006                                    6
000506: 14,2640           52100        PIC1               TIX,1    GOTO                                  #  MAJOR STAR
000507: 14,2641           30643                                    PIC2
000508: 14,2642           30760                                    PICEND
000509: 14,2643           50373        PIC2               VLOAD*   DOT
000510: 14,2644           30347                                    CATLOG,1
000511: 14,2645           02731                                    SAX
000512: 14,2646           50025                           DSU      BMN
000513: 14,2647           30757                                    CSS33
000514: 14,2650           30640                                    PIC1
000515: 14,2651           77754                           LXA,2
000516: 14,2652           00046                                    X1
000517: 14,2653           52104        PIC3               TIX,2    GOTO
000518: 14,2654           30656                                    PIC4
000519: 14,2655           30640                                    PIC1
000520: 14,2656           50373        PIC4               VLOAD*   DOT
000521: 14,2657           47430                                    CATLOG,2
000522: 14,2660           02731                                    SAX
000523: 14,2661           50025                           DSU      BMN
000524: 14,2662           30757                                    CSS33
000525: 14,2663           30653                                    PIC3
000526: 14,2664           47773                           VLOAD*   DOT*
000527: 14,2665           30347                                    CATLOG,1
000528: 14,2666           47430                                    CATLOG,2
000529: 14,2667           51025                           DSU      BPL
000530: 14,2670           30755                                    CSS40
000531: 14,2671           30653                                    PIC3
000532: 14,2672           45173                           VLOAD*   CALL
000533: 14,2673           30347                                    CATLOG,1
000534: 14,2674           30732                                    OCCULT
000535: 14,2675           77614                           BON
000536: 14,2676           01710                                    CULTFLAG
000537: 14,2677           30640                                    PIC1


000539: 14,2700           45173                           VLOAD*   CALL
000540: 14,2701           47430                                    CATLOG,2
000541: 14,2702           30732                                    OCCULT
000542: 14,2703           77614                           BON
000543: 14,2704           01710                                    CULTFLAG
000544: 14,2705           30653                                    PIC3
000545: 14,2706           77614        STRATGY            BONCLR
000546: 14,2707           01605                                    VFLAG
000547: 14,2710           30725                                    NEWPAR
000548: 14,2711           65120                           XCHX,1   XCHX,2
000549: 14,2712           02755                                    BESTI
000550: 14,2713           02756                                    BESTJ
000551: 14,2714           47773        STRAT              VLOAD*   DOT*
000552: 14,2715           30347                                    CATLOG,1
000553: 14,2716           47430                                    CATLOG,2
000554: 14,2717           43006                           PUSH     BOFINV
000555: 14,2720           01545                                    VFLAG
000556: 14,2721           30711                                    STRAT      -3
000557: 14,2722           45345                           DLOAD    DSU
000558: 14,2723           77644                           BPL
000559: 14,2724           30653                                    PIC3
000560: 14,2725           67130        NEWPAR             SXA,1    SXA,2
000561: 14,2726           02755                                    BESTI
000562: 14,2727           02756                                    BESTJ
000563: 14,2730           77650                           GOTO
000564: 14,2731           30653                                    PIC3
000565: 14,2732           51321        OCCULT             MXV      BVSU
000566: 14,2733           02707                                    CULTRIX
000567: 14,2734           00017                                    CSS
000568: 14,2735           77654                           BZE
000569: 14,2736           30751                                    CULTED
000570: 14,2737           75240                           BMN      SIGN
000571: 14,2740           30751                                    CULTED
000572: 14,2741           00160                                    MPAC       +3
000573: 14,2742           75240                           BMN      SIGN
000574: 14,2743           30751                                    CULTED
000575: 14,2744           00162                                    MPAC       +5
000576: 14,2745           43040                           BMN      CLRGO
000577: 14,2746           30751                                    CULTED
000578: 14,2747           01630                                    CULTFLAG
000579: 14,2750           00052                                    QPRET
000580: 14,2751           77614        CULTED             SETGO
000581: 14,2752           01430                                    CULTFLAG
000582: 14,2753           00052                                    QPRET
000583: 14,2754  0000016               CSS                =        CEARTH
000584: 14,2754           05110 35052  CSS40              2DEC     .16070                                #  COS 50 /4
000585:
000586: 14,2756           05110 35052  CSS33              2DEC     .16070                                #   COS 50 /4
000587:
000588: 14,2760           77414        PICEND             BOFF     EXIT


000590: 14,2761           01745                                    VFLAG
000591: 14,2762           30764                                    PICGXT
000592: 14,2763           03005                           TC       PICBXT
000593: 14,2764           73150        PICGXT             LXA,1    LXA,2
000594: 14,2765           02755                                    BESTI
000595: 14,2766           02756                                    BESTJ
000596: 14,2767           47775                           VLOAD    DOT*
000597: 14,2770           02731                                    SAX
000598: 14,2771           30347                                    CATLOG,1
000599: 14,2772           47715                           PDVL     DOT*
000600: 14,2773           02731                                    SAX
000601: 14,2774           47430                                    CATLOG,2
000602: 14,2775           77625                           DSU
000603: 14,2776           66044                           BPL      SXA,1
000604: 14,2777           31003                                    PICNSWP
000605: 14,3000           02756                                    BESTJ
000606: 14,3001           77734                           SXA,2
000607: 14,3002           02755                                    BESTI
000608: 14,3003           77776        PICNSWP            EXIT
000609: 14,3004           25745                           INCR     QMIN
000610: 14,3005           31745        PICBXT             CA       QMIN
000611: 14,3006           04622                           TC       SWCALL
000612: 14,3007                        VPD                =        0D
000613: 14,3007                        V0                 =        6D
000614: 14,3007                        V1                 =        12D
000615: 14,3007                        V2                 =        18D
000616: 14,3007                        V3                 =        24D
000617: 14,3007                        DP0                =        30D
000618: 14,3007                        DP1                =        32D
000619:


000621:                                                                                                  #  NAME-R51  FINE ALIGN
000622:                                                                                                  #  FUNCTION-TO ALIGN THE STABLE MEMBER TO REFSMMAT
000623:                                                                                                  #  CALLING SEQ- CALL  R51
000624:                                                                                                  #  INPUT -  REFSMMAT
000625:                                                                                                  #  OUTPUT- GYRO TORQUE PULSES
000626:                                                                                                  #  SUBROUTINES -LOCSAM,PICAPAR,R52,R53,R54,R55
000627: 14,3007                                           COUNT*   $$/R51
000628: 14,3007           77620        R51                STQ
000629: 14,3010           02746                                    QMAJ
000630: 14,3011           77776        R51.1              EXIT
000631: 14,3012           05364                           TC       PHASCHNG
000632: 14,3013           04024                           OCT      04024
000633:
000634: 14,3014           34761        R51C               CAF      OCT15
000635: 14,3015           04616                           TC       BANKCALL
000636: 14,3016           20624                           CADR     GOPERF1
000637: 14,3017           06001                           TC       GOTOPOOH
000638: 14,3020           03022                           TC       +2                                    #  V33E
000639: 14,3021           03045                           TC       R51E                                  #  ENTER
000640: 14,3022           06042                           TC       INTPRET
000641: 14,3023           43234                           RTB      DAD
000642: 14,3024           21574                                    LOADTIME
000643: 14,3025           31155                                    TSIGHT1
000644: 14,3026           77624                           CALL
000645: 14,3027           30500                                    LOCSAM
000646: 14,3030           77776                           EXIT
000647: 14,3031           04616                           TC       BANKCALL
000648: 14,3032           30603                           CADR     R56
000649: 14,3033           03035                           TC       R51I
000650: 14,3034           03045        R51F               TC       R51E
000651: 14,3035           05600        R51I               TC       ALARM
000652: 14,3036           00405                           OCT      405
000653: 14,3037           35006                           CAF      VB05N09
000654: 14,3040           04616                           TC       BANKCALL
000655: 14,3041           20477                           CADR     GOFLASH
000656: 14,3042           06001                           TC       GOTOPOOH
000657: 14,3043           03045                           TC       R51E
000658: 14,3044           03014                           TC       R51C
000659: 14,3045           34755        R51E               CAF      ZERO
000660: 14,3046           55757                           TS       STARIND
000661: 14,3047           06042        R51.2              TC       INTPRET
000662: 14,3050           77776        R51.3              EXIT
000663: 14,3051           05364                           TC       PHASCHNG
000664: 14,3052           04024                           OCT      04024
000665:
000666: 14,3053           06042                           TC       INTPRET
000667: 14,3054           77624                           CALL
000668: 14,3055           31671                                    R52                                   #  AOP WILL MAKE CALLS TO SIGHTING
000669: 14,3056           77776                           EXIT
000670: 14,3057           04616                           TC       BANKCALL


000672: 14,3060           16000                           CADR     AOTMARK
000673: 14,3061           04616                           TC       BANKCALL
000674: 14,3062           17716                           CADR     OPTSTALL
000675: 14,3063           05712                           TC       CURTAINS
000676: 14,3064           11757                           CCS      STARIND
000677: 14,3065           13067                           TCF      +2
000678: 14,3066           03137                           TC       R51.4
000679: 14,3067           06042                           TC       INTPRET
000680: 14,3070           77775                           VLOAD
000681: 14,3071           02715                                    STARAD     +6
000682: 14,3072           02767                           STORE    STARSAV2
000683: 14,3073           77776                           EXIT
000684: 14,3074           05364                           TC       PHASCHNG
000685: 14,3075           04024                           OCT      04024
000686:
000687: 14,3076           06042                           TC       INTPRET
000688: 14,3077           45145                           DLOAD    CALL
000689: 14,3100           03562                                    TSIGHT
000690: 14,3101           32500                                    PLANET
000691: 14,3102           53521                           MXV      UNIT
000692: 14,3103           01732                                    REFSMMAT
000693: 14,3104           26715                           STOVL    STARAD     +6
000694: 14,3105           03554                                    PLANVEC
000695: 14,3106           53521                           MXV      UNIT
000696: 14,3107           01732                                    REFSMMAT
000697: 14,3110           26707                           STOVL    STARAD
000698: 14,3111           02761                                    STARSAV1
000699: 14,3112           24007                           STOVL    6D
000700: 14,3113           02767                                    STARSAV2
000701: 14,3114           34015                           STCALL   12D
000702: 14,3115           31250                                    R54                                   #  STAR DATA TEST
000703: 14,3116           45014                           BOFF     CALL
000704: 14,3117           00354                                    FREEFLAG
000705: 14,3120           31126                                    R51K
000706: 14,3121           47407                                    AXISGEN
000707: 14,3122           77624                           CALL
000708: 14,3123           31216                                    R55                                   #  GYRO TORQUE
000709: 14,3124           77614                           CLEAR
000710: 14,3125           01273                                    PFRATFLG
000711: 14,3126           77776        R51K               EXIT
000712: 14,3127           35752        R51P63             CAF      OCT14
000713: 14,3130           04616                           TC       BANKCALL
000714: 14,3131           20624                           CADR     GOPERF1
000715: 14,3132           06001                           TC       GOTOPOOH
000716: 14,3133           03014                           TC       R51C
000717: 14,3134           06042                           TC       INTPRET
000718: 14,3135           77650                           GOTO
000719: 14,3136           02746                                    QMAJ
000720: 14,3137           06042        R51.4              TC       INTPRET
000721: 14,3140           77775                           VLOAD


000723: 14,3141           02715                                    STARAD     +6
000724: 14,3142           02761                           STORE    STARSAV1
000725: 14,3143           45145                           DLOAD    CALL
000726: 14,3144           03562                                    TSIGHT
000727: 14,3145           32500                                    PLANET
000728: 14,3146           03554                           STORE    PLANVEC
000729: 14,3147           77731                           SSP
000730: 14,3150           02760                                    STARIND
000731: 14,3151           00001                                    1
000732: 14,3152           77650                           GOTO
000733: 14,3153           31050                                    R51.3
000734: 14,3154           00002 06240  TSIGHT1            2DEC     36000      B-28                       #  6  MIN  TO  MARKING
000735:


000737:                                                                                                  #  GYRO TORQUE COARSE ALIGNMENT
000738: 14,3156           45020        GYCOARS            STQ      CALL
000739: 14,3157           02746                                    QMAJ
000740: 14,3160           47215                                    CALCGTA
000741: 14,3161           43014                           CLEAR    CLEAR
000742: 14,3162           01260                                    DRIFTFLG
000743: 14,3163           01662                                    REFSMFLG
000744: 14,3164           77776                           EXIT
000745: 14,3165           33215                           CAF      V16N20                                #  MONITOR GIMBALS
000746: 14,3166           04616                           TC       BANKCALL
000747: 14,3167           20452                           CADR     GODSPR
000748: 14,3170           33247                           CA       R55CDR
000749: 14,3171           04616                           TC       BANKCALL
000750: 14,3172           17307                           CADR     IMUPULSE
000751: 14,3173           04616                           TC       BANKCALL
000752: 14,3174           17722                           CADR     IMUSTALL
000753: 14,3175           05712                           TC       CURTAINS
000754: 14,3176           05364                           TC       PHASCHNG
000755: 14,3177           04024                           OCT      04024
000756:
000757: 14,3200           06042                           TC       INTPRET
000758: 14,3201           75160                           AXC,1    AXC,2
000759: 14,3202           03606                                    XSMD
000760: 14,3203           01731                                    REFSMMAT
000761: 14,3204           77624                           CALL                                           #  STORE DESIRED REFSMMAT
000762: 14,3205           31371                                    MATMOVE
000763: 14,3206           43014                           CLEAR    SET
000764: 14,3207           01273                                    PFRATFLG
000765: 14,3210           01462                                    REFSMFLG
000766: 14,3211           77624                           CALL
000767: 14,3212           31603                                    NCOARSE                               #  SET DRIFT AND INITIALIZE 1/PIPADT
000768: 14,3213           77650                           GOTO
000769: 14,3214           31126                                    R51K
000770: 14,3215           04024        V16N20             VN       1620
000771:


000773:                                                                                                  #  R55  GYRO TORQUE
000774:                                                                                                  #  FUNCTION-COMPUTE AND SEND GYRO PULSES
000775:                                                                                                  #  CALLING SEQ- CALL R55
000776:                                                                                                  #  INPUT- X,Y,ZDC- REFSMMAT WRT PRESENT STABLE MEMBER
000777:                                                                                                  #  OUTPUT- GYRO PULSES
000778:                                                                                                  #  SUBROUTINES- CALCGTA,GOFLASH,GODSPR,IMUFINE,IMUPULSE,GOPERF1
000779: 14,3216                                           COUNT*   $$/R55
000780: 14,3216           77620        R55                STQ
000781: 14,3217           02745                                    QMIN
000782: 14,3220           77624                           CALL
000783: 14,3221           47215                                    CALCGTA
000784: 14,3222           77776        PULSEM             EXIT
000785: 14,3223           33246        R55.1              CAF      V06N93
000786: 14,3224           04616                           TC       BANKCALL
000787: 14,3225           20477                           CADR     GOFLASH
000788: 14,3226           06001                           TC       GOTOPOOH
000789: 14,3227           03231                           TC       R55.2
000790: 14,3230           03243                           TC       R55RET
000791: 14,3231           05364        R55.2              TC       PHASCHNG
000792: 14,3232           00214                           OCT      00214
000793: 14,3233           33247                           CA       R55CDR
000794: 14,3234           04616                           TC       BANKCALL
000795: 14,3235           17307                           CADR     IMUPULSE
000796: 14,3236           04616                           TC       BANKCALL
000797: 14,3237           17722                           CADR     IMUSTALL
000798: 14,3240           05712                           TC       CURTAINS
000799: 14,3241           05364                           TC       PHASCHNG
000800: 14,3242           04024                           OCT      04024
000801:
000802: 14,3243           06042        R55RET             TC       INTPRET
000803: 14,3244           77650                           GOTO
000804: 14,3245           02745                                    QMIN
000805: 14,3246           01535        V06N93             VN       0693
000806: 14,3247           02737        R55CDR             ECADR    OGC
000807: 14,3250  14,3250               R54                =        CHKSDATA
000808:                                                                                                  #  ROUTINE NAME- CHKSDATA                                                                 DATE- JAN 9, 1967
000809:                                                                                                  #  MOD NO- 0                                                                              LOG SECTION- P51-P53
000810:                                                                                                  #  MODIFICATION BY- LONSKE                                                                ASSEMBLY-
000811:
000812:                                                                                                  #  FUNCTIONAL DESCRIPTION - CHECKS THE VALIDITY OF A PAIR OF STAR SIGHTINGS. WHEN A PAIR OF STAR SIGHTINGS ARE MADE
000813:                                                                                                  #  BY THE ASTRONAUT THIS ROUTINE OPERATES AND CHECKS THE OBSERVED SIGHTINGS AGAINST STORED STAR VECTORS IN THE
000814:                                                                                                  #  COMPUTER TO INSURE A PROPER SIGHTING WAS MADE. THE FOLLOWING COMPUTATIONS ARE PERFORMED_
000815:
000816:                                                                                                  #                  OS1 = OBSERVED STAR 1 VECTOR
000817:                                                                                                  #                  OS2 = OBSERVED STAR 2 VECTOR
000818:                                                                                                  #                  SS1 = STORED STAR 1 VECTOR
000819:                                                                                                  #                  SS2 = STORED STAR 2 VECTOR
000820:                                                                                                  #                   A1 = ARCCOS(OS1 - OS2)
000821:                                                                                                  #                   A2 = ARCCOS(SS1 - SS2)
000822:                                                                                                  #                    A = ABS(2(A1 - A2))


000824:                                                                                                  #  THE ANGULAR DIFFERENCE IS DISPLAYED FOR ASTRONAUT ACCEPTENCE
000825:                                                                                                  #  EXIT MODE 1. FREEFLAG SET  IMPLIES  ASTRONAUT WANTS TO PROCEED
000826:                                                                                                  #            2. FREEFLAG RESET IMPLIES ASTRONAUT WANTS TO RECYCLE          ERANCE)
000827:                                                                                                  #  OUTPUT - 1.VERB 6,NOUN 3- DISPLAYS ANGULAR DIFFERENCE BETWEEN 2 SETS OF STARS.
000828:                                                                                                  #           2.STAR VECTORS FROM STAR CATALOG ARE LEFT IN 6D AND 12D.
000829:
000830:                                                                                                  #  ERASABLE INITIALIZATION REQUIRED -
000831:                                                                                                  #           1.MARK VECTORS ARE STORED IN STARAD AND STARAD +6.
000832:                                                                                                  #           2.CATALOG VECTORS ARE STORED IN 6D AND 12D.
000833:                                                                                                  #  DEBRIS -
000834: 14,3250                                           COUNT*   $$/R54
000835: 14,3250           43020        CHKSDATA           STQ      SET
000836: 14,3251           02745                                    QMIN
000837: 14,3252           00074                                    FREEFLAG
000838: 14,3253           77760        CHKSAB             AXC,1                                          #  SET X1 TO STORE  EPHEMERIS DATA
000839: 14,3254           02706                                    STARAD
000840:
000841: 14,3255           47773        CHKSB              VLOAD*   DOT*                                  #  CAL. ANGLE THETA
000842: 14,3256           00001                                    0,1
000843: 14,3257           00007                                    6,1
000844: 14,3260           65552                           SL1      ACOS
000845: 14,3261           00025                           STORE    THETA
000846: 14,3262           43014                           BOFF     INVERT                                #  BRANCH TO CHKSD IF THIS IS 2ND PASS
000847: 14,3263           00354                                    FREEFLAG
000848: 14,3264           31274                                    CHKSD
000849: 14,3265           00174                                    FREEFLAG                              #  CLEAR FREEFLAG
000850: 14,3266           71360                           AXC,1    DLOAD                                 #  SET X1 TO MARK ANGLES
000851: 14,3267           00006                                    6D
000852: 14,3270           00025                                    THETA
000853: 14,3271           00023                           STORE    18D
000854: 14,3272           77650                           GOTO
000855: 14,3273           31255                                    CHKSB                                 #  RETURN TO CAL. 2ND ANGLE
000856: 14,3274           45345        CHKSD              DLOAD    DSU
000857: 14,3275           00025                                    THETA
000858: 14,3276           00023                                    18D
000859: 14,3277           77634                           RTB                                            #  COMPUTE POS DIFF
000860: 14,3300           21613                                    SGNAGREE
000861: 14,3301           01045                           STORE    NORMTEM1
000862: 14,3302           77414                           SET      EXIT
000863: 14,3303           00074                                    FREEFLAG
000864: 14,3304           33320                           CAF      VB6N5
000865: 14,3305           04616                           TC       BANKCALL
000866: 14,3306           20477                           CADR     GOFLASH
000867: 14,3307           16001                           TCF      GOTOPOOH
000868: 14,3310           03315                           TC       CHKSDA                                #  PROCEED
000869: 14,3311           06042                           TC       INTPRET
000870: 14,3312           52014                           CLEAR    GOTO
000871: 14,3313           00274                                    FREEFLAG
000872: 14,3314           02745                                    QMIN
000873: 14,3315           06042        CHKSDA             TC       INTPRET


000875: 14,3316           77650                           GOTO
000876: 14,3317           02745                                    QMIN
000877: 14,3320           01405        VB6N5              VN       605
000878:                                                                                                  #  NAME - CAL53A
000879:                                                                                                  #  FUNCTION -COMPUTE DESIRED GIMBAL ANGLES AND COARSE ALIGN IF NECESSARY
000880:                                                                                                  #  CALLING SEQUENCE - CALL CAL53A
000881:                                                                                                  #  INPUT - X,Y,ZSMD ,CDUX,Y,Z
000882:                                                                                                  #          DESIRED GIMBAL ANGLES - THETAD,+1,+2
000883:                                                                                                  #  OUTPUT - THE IMU COORDINATES ARE STORED IN REFSMMAT
000884:                                                                                                  #  SUBROUTINES - S52.2, IMUCOARSE , IMUFINE
000885: 14,3321                                           COUNT*   $$/R50
000886: 14,3321           77624        CAL53A             CALL
000887: 14,3322           31620                                    S52.2                                 #  MAKE ONE FINAL COMP OF GIMBALE ANGLES
000888: 14,3323           66234                           RTB      SSP
000889: 14,3324           31405                                    RDCDUS                                #  READ CDUS
000890: 14,3325           00051                                    S1
000891: 14,3326           00001                                    1
000892: 14,3327           40370                           AXT,1    SETPD
000893: 14,3330           00003                                    3
000894: 14,3331           00005                                    4
000895: 14,3332           70543        CALOOP             DLOAD*   SR1
000896: 14,3333           00325                                    THETAD     +3D,1
000897: 14,3334           70523                           PDDL*    SR1
000898: 14,3335           00005                                    4,1
000899: 14,3336           51425                           DSU      ABS
000900: 14,3337           45206                           PUSH     DSU
000901: 14,3340           31404                                    DEGREE1
000902: 14,3341           71240                           BMN      DLOAD
000903: 14,3342           31360                                    CALOOP1
000904: 14,3343           51025                           DSU      BPL
000905: 14,3344           31405                                    DEG359
000906: 14,3345           31360                                    CALOOP1
000907: 14,3346           77776                           EXIT
000908: 14,3347           05364                           TC       PHASCHNG
000909: 14,3350           04024                           OCT      04024
000910:
000911: 14,3351           06042                           TC       INTPRET
000912: 14,3352           77624        COARFINE           CALL
000913: 14,3353           31557                                    COARSE
000914: 14,3354           77624                           CALL
000915: 14,3355           31603                                    NCOARSE
000916: 14,3356           77650                           GOTO
000917: 14,3357           31362                                    FINEONLY
000918: 14,3360           77700        CALOOP1            TIX,1
000919: 14,3361           31332                                    CALOOP
000920: 14,3362           75160        FINEONLY           AXC,1    AXC,2
000921: 14,3363           02642                                    XSM
000922: 14,3364           01731                                    REFSMMAT
000923: 14,3365           77624                           CALL
000924: 14,3366           31371                                    MATMOVE


000926: 14,3367           77650                           GOTO
000927: 14,3370           32204                                    COARSRET
000928: 14,3371           77773        MATMOVE            VLOAD*                                         #  TRANSFER MATRIX
000929: 14,3372           00001                                    0,1
000930: 14,3373           10001                           STORE    0,2
000931: 14,3374           77773                           VLOAD*
000932: 14,3375           00007                                    6D,1
000933: 14,3376           10007                           STORE    6D,2
000934: 14,3377           77773                           VLOAD*
000935: 14,3400           00015                                    12D,1
000936: 14,3401           10015                           STORE    12D,2
000937: 14,3402           77616                           RVQ
000938: 14,3403           00056        DEGREE1            DEC      46         B-14                       #  1 DEG SCALED CDU/2
000939: 14,3404           37722        DEG359             DEC      16338      B-14                       #  359 DEG SCALED CDU/2
000940: 14,3405           00004        RDCDUS             INHINT                                         #  READ CDUS
000941: 14,3406           30032                           CA       CDUX
000942: 14,3407           50120                           INDEX    FIXLOC
000943: 14,3410           54001                           TS       1
000944: 14,3411           30033                           CA       CDUY
000945: 14,3412           50120                           INDEX    FIXLOC
000946: 14,3413           54002                           TS       2
000947: 14,3414           30034                           CA       CDUZ
000948: 14,3415           50120                           INDEX    FIXLOC
000949: 14,3416           54003                           TS       3
000950: 14,3417           00003                           RELINT
000951: 14,3420           06064                           TC       DANZIG                                #                                       +
000952: 14,3421                                           COUNT*   $$/INFLT
000953:


000955:                                                                                                  #  NAME - P51 - IMU ORIENTATION DETERMINATION
000956:                                                                                                  #           MOD.NO.1  23 JAN 67                                                             LOG SECTION - P51-P53
000957:                                                                                                  #  MOD BY STURLAUGSON                                                                      ASSEMBLY SUNDANCE REV56
000958:
000959:                                                                                                  #  FUNCTIONAL DESCRIPTION
000960:
000961:                                                                                                  #       DETERMINES THE INERTIAL ORIENTATION OF THE IMU. THE PROGRAM IS SELECTED BY DSKY ENTRY. THE SIGHTING
000962:                                                                                                  #  (AOTMARK)ROUTINE IS CALLED TO COLLECT AND PROCESS MARKED-STAR DATA. AOTMARK(R53) RETURNS THE STAR NUMBER AND THE
000963:                                                                                                  #  STAR LOS VECTOR IN STARAD+6. TWO STARS ARE THUS SIGHTED. THE ANGLE BETWEEN THE TWO STARS IS THEN CHECKED AT
000964:                                                                                                  #  CHKSDATA(R54). REFSMMAT IS THEN COMPUTED AT AXISGEN.
000965:
000966:                                                                                                  #  CALLING SEQUENCE
000967:
000968:                                                                                                  #    THE PROGRAM IS CALLED BY THE ASTRONAUT BY DSKY ENTRY.
000969:
000970:                                                                                                  #  SUBROUTINES CALLED.
000971:
000972:                                                                                                  #       GOPERF3
000973:                                                                                                  #       GOPERF1
000974:                                                                                                  #       GODSPR
000975:                                                                                                  #       IMUCOARS
000976:                                                                                                  #       IMUFIN20
000977:                                                                                                  #       AOTMARK(R53)
000978:                                                                                                  #       CHKSDATA(R54)
000979:                                                                                                  #       MKRELEAS
000980:                                                                                                  #       AXISGEN
000981:                                                                                                  #       MATMOVE
000982:
000983:                                                                                                  #  ALARMS
000984:
000985:                                                                                                  #       NONE.
000986:
000987:                                                                                                  #  ERASABLE INITIALIZATION
000988:
000989:                                                                                                  #       IMU ZERO FLAG SHOULD BE SET.
000990:
000991:                                                                                                  #  OUTPUT
000992:
000993:                                                                                                  #       REFSMMAT
000994:                                                                                                  #       REFSMFLG
000995:
000996:                                                                                                  #  DEBRIS
000997:
000998:                                                                                                  #       WORK AREA
000999:                                                                                                  #       STARAD
001000:                                                                                                  #       STARIND
001001:                                                                                                  #       BESTI
001002:                                                                                                  #       BESTJ
001003:
001004: 14,3421                                           COUNT*   $$/P51


001006: 14,3421           04616        P51                TC       BANKCALL                              #  IS ISS ON - IF NOT, IMUCHK WILL SEND
001007: 14,3422           33646                           CADR     IMUCHK                                #  ALARM CODE 210 AND EXIT VIA GOTOPOOH.
001008:
001009: 14,3423           34761                           CAF      OCT15
001010: 14,3424           04616                           TC       BANKCALL
001011: 14,3425           20624                           CADR     GOPERF1
001012: 14,3426           06001                           TC       GOTOPOOH                              #  TERM.
001013: 14,3427           13453                           TCF      P51B                                  #  V33
001014: 14,3430           05364                           TC       PHASCHNG
001015: 14,3431           04024                           OCT      04024
001016:
001017: 14,3432           34755                           CAF      ZERO
001018: 14,3433           54321                           TS       THETAD                                #  ZERO THE GIMBALS
001019: 14,3434           54322                           TS       THETAD     +1
001020: 14,3435           54323                           TS       THETAD     +2
001021: 14,3436           35010                           CAF      V06N22
001022: 14,3437           04616                           TC       BANKCALL
001023: 14,3440           20447                           CADR     GODSPRET
001024: 14,3441           33556                           CAF      V41K                                  #  NOW DISPLAY COARSE ALIGN VERB 41
001025: 14,3442           04616                           TC       BANKCALL
001026: 14,3443           20447                           CADR     GODSPRET
001027: 14,3444           06042                           TC       INTPRET
001028: 14,3445           77624                           CALL
001029: 14,3446           31557                                    COARSE
001030: 14,3447           77776                           EXIT
001031: 14,3450           05364                           TC       PHASCHNG
001032: 14,3451           04024                           OCT      04024
001033: 14,3452           13423                           TCF      P51        +2
001034:
001035: 14,3453           05364        P51B               TC       PHASCHNG
001036: 14,3454           00014                           OCT      00014
001037: 14,3455           06042                           TC       INTPRET
001038: 14,3456           77624                           CALL
001039: 14,3457           31603                                    NCOARSE
001040: 14,3460           40331                           SSP      SETPD
001041: 14,3461           02760                                    STARIND                               #  INDEX-STAR 1 OR 2
001042: 14,3462           00000                                    0
001043: 14,3463           00001                                    0
001044: 14,3464           77776        P51C               EXIT
001045: 14,3465           05364                           TC       PHASCHNG
001046: 14,3466           04024                           OCT      04024
001047:
001048: 14,3467           04616                           TC       BANKCALL
001049: 14,3470           16000                           CADR     AOTMARK                               #  R53
001050: 14,3471           04616                           TC       BANKCALL
001051: 14,3472           17716                           CADR     AOTSTALL
001052: 14,3473           05712                           TC       CURTAINS
001053: 14,3474           11757                           CCS      STARIND
001054: 14,3475           13503                           TCF      P51D       +1
001055: 14,3476           06042                           TC       INTPRET


001057: 14,3477           77775                           VLOAD
001058: 14,3500           02715                                    STARAD     +6
001059: 14,3501           02761                           STORE    STARSAV1
001060: 14,3502           77776        P51D               EXIT
001061: 14,3503           05364                           TC       PHASCHNG
001062: 14,3504           04024                           OCT      04024
001063:
001064: 14,3505           11757                           CCS      STARIND
001065: 14,3506           13522                           TCF      P51E
001066: 14,3507           05364                           TC       PHASCHNG
001067: 14,3510           04024                           OCT      04024
001068:
001069: 14,3511           06042                           TC       INTPRET
001070: 14,3512           45145                           DLOAD    CALL
001071: 14,3513           03562                                    TSIGHT
001072: 14,3514           32500                                    PLANET
001073: 14,3515           03554                           STORE    PLANVEC
001074: 14,3516           77776                           EXIT
001075: 14,3517           34753                           CAF      BIT1
001076: 14,3520           55757                           TS       STARIND
001077: 14,3521           13465                           TCF      P51C       +1                         #  DO SECOND STAR
001078: 14,3522           05364        P51E               TC       PHASCHNG
001079: 14,3523           04024                           OCT      04024
001080:
001081: 14,3524           06042                           TC       INTPRET
001082: 14,3525           45145                           DLOAD    CALL
001083: 14,3526           03562                                    TSIGHT
001084: 14,3527           32500                                    PLANET
001085: 14,3530           24015                           STOVL    12D
001086: 14,3531           03554                                    PLANVEC
001087: 14,3532           24007                           STOVL    6D
001088: 14,3533           02761                                    STARSAV1
001089: 14,3534           26707                           STOVL    STARAD
001090: 14,3535           02767                                    STARSAV2
001091: 14,3536           36715                           STCALL   STARAD     +6
001092: 14,3537           31250                                    CHKSDATA                              #  CHECK STAR ANGLES IN STARAD AND
001093: 14,3540           77414                           BON      EXIT
001094: 14,3541           00314                                    FREEFLAG
001095: 14,3542           31544                                    P51G
001096: 14,3543           03423                           TC       P51        +2
001097: 14,3544           77624        P51G               CALL
001098: 14,3545           47407                                    AXISGEN                               #  COME BACK WITH REFSMMAT IN XDC
001099: 14,3546           75160                           AXC,1    AXC,2
001100: 14,3547           02664                                    XDC
001101: 14,3550           01731                                    REFSMMAT
001102: 14,3551           77624                           CALL
001103: 14,3552           31371                                    MATMOVE
001104: 14,3553           77414                           SET      EXIT
001105: 14,3554           01462                                    REFSMFLG
001106: 14,3555           06001                           TC       GOTOPOOH                              #  FINIS


001108: 14,3556           12200        V41K               VN       4100
001109: 14,3557           77776        COARSE             EXIT
001110: 14,3560           31301                 +1        CA       MODECADR                              #  SEE IF IMU DEVICE IS IN USE.
001111: 14,3561           00006                           EXTEND
001112: 14,3562           13567                           BZF      DOCORS                                #  NOT IN USE, DO COARSE ALIGN
001113: 14,3563           34777                           CAF      1SEC                                  #  IN USE, DELAY ONE SEC
001114: 14,3564           04616                           TC       BANKCALL
001115: 14,3565           01736                           CADR     DELAYJOB
001116: 14,3566           13560                           TCF      COARSE     +1
001117: 14,3567           04616        DOCORS             TC       BANKCALL
001118: 14,3570           16764                           CADR     IMUCOARS
001119: 14,3571           04616                           TC       BANKCALL
001120: 14,3572           17722                           CADR     IMUSTALL
001121: 14,3573           05712                           TC       CURTAINS
001122: 14,3574           04616                           TC       BANKCALL
001123: 14,3575           17174                           CADR     IMUFINE
001124: 14,3576           04616                           TC       BANKCALL
001125: 14,3577           17722                           CADR     IMUSTALL
001126: 14,3600           05712                           TC       CURTAINS
001127: 14,3601           06042                           TC       INTPRET
001128: 14,3602           77616                           RVQ
001129: 14,3603           77776        NCOARSE            EXIT
001130: 14,3604           30025                           CA       TIME1
001131: 14,3605           55074                           TS       1/PIPADT
001132: 14,3606           44755                           CS       ZERO
001133: 14,3607           54037                           TS       PIPAX
001134: 14,3610           54040                           TS       PIPAY
001135: 14,3611           54041                           TS       PIPAZ
001136: 14,3612           06042                           TC       INTPRET
001137: 14,3613           77775                           VLOAD
001138: 14,3614           24007                                    ZEROVEC
001139: 14,3615           01472                           STORE    GCOMP
001140: 14,3616           43414                           SET      RVQ
001141: 14,3617           01060                                    DRIFTFLG
001142:


001144:                                                                                                  #  NAME-S52.2
001145:                                                                                                  #  FUNCTION-COMPUTE GIMBAL ANGLES FOR DESIRED SM AND PRESENT VEHICLE
001146:                                                                                                  #  CALL-  CALL  S52.2
001147:                                                                                                  #  INPUT- X,Y,ZSMD
001148:                                                                                                  #  OUTPUT- OGC,IGC,MGC,THETAD,+1,+2
001149:                                                                                                  #  SUBROUTINES-CDUTRIG,CALCSMSC,MATMOVE,CALCGA
001150: 14,3620                                           COUNT*   $$/S52.1
001151: 14,3620           45020        S52.2              STQ      CALL
001152: 14,3621           02746                                    QMAJ
001153: 14,3622           47505                                    CDUTRIG
001154: 14,3623           77624                           CALL
001155: 14,3624           20030                                    CALCSMSC
001156: 14,3625           66370                           AXT,1    SSP
001157: 14,3626           00022                                    18D
001158: 14,3627           00051                                    S1
001159: 14,3630           00006                                    6D
001160: 14,3631           61373        S52.2A             VLOAD*   VXM
001161: 14,3632           02707                                    XNB        +18D,1
001162: 14,3633           01732                                    REFSMMAT
001163: 14,3634           77656                           UNIT
001164: 14,3635           06707                           STORE    XNB        +18D,1
001165: 14,3636           77700                           TIX,1
001166: 14,3637           31631                                    S52.2A
001167: 14,3640           75160        S52.2.1            AXC,1    AXC,2
001168: 14,3641           03606                                    XSMD
001169: 14,3642           02642                                    XSM
001170: 14,3643           77624                           CALL
001171: 14,3644           31371                                    MATMOVE
001172: 14,3645           77624                           CALL
001173: 14,3646           47321                                    CALCGA
001174: 14,3647           77650                           GOTO
001175: 14,3650           02746                                    QMAJ
001176:


001178:                                                                                                  #  NAME-S52.3
001179:                                                                                                  #  FUNCTION  XSMD= UNIT  R
001180:                                                                                                  #            YSMD= UNIT(V X R)
001181:                                                                                                  #            ZSMD= UNIT(XSMD X YSMD)
001182:                                                                                                  #  CALL     DLOAD  CALL
001183:                                                                                                  #                  TALIGN
001184:                                                                                                  #                  S52.3
001185:                                                                                                  #  INPUT-   TIME OF ALIGNMENT IN MPAC
001186:                                                                                                  #  OUTPUT-  X,Y,ZSMD
001187:                                                                                                  #  SUBROUTINES- CSMCONIC
001188: 14,3651                                           COUNT*   $$/S52.3
001189: 14,3651           77620        S52.3              STQ
001190: 14,3652           02746                                    QMAJ
001191: 14,3653           34041                           STCALL   TDEC1
001192: 14,3654           27077                                    LEMCONIC
001193: 14,3655           53575                           VLOAD    UNIT
001194: 14,3656           00001                                    RATT
001195: 14,3657           27607                           STOVL    XSMD
001196: 14,3660           00007                                    VATT
001197: 14,3661           53435                           VXV      UNIT
001198: 14,3662           00001                                    RATT
001199: 14,3663           27615                           STOVL    YSMD
001200: 14,3664           03607                                    XSMD
001201: 14,3665           53435                           VXV      UNIT
001202: 14,3666           03615                                    YSMD
001203: 14,3667           37623                           STCALL   ZSMD
001204: 14,3670           02746                                    QMAJ
001205:


001207:                                                                                                  #  NAME    -R52 (AUTOMATIC OPTICS POSITIONING ROUTINE)
001208:
001209:                                                                                                  #  FUNCTION-POINT THE AOT OPTIC AXIS BY MANEUVERING THE LEM TO A NAVIGATION
001210:                                                                                                  #           STAR SELECTED BY ALIGNMENT PROGRAMS OR DSKY INPUT
001211:
001212:                                                                                                  #  CALLING -CALL R52
001213:
001214:                                                                                                  #  INPUT   -BESTI AND BESTJ (STAR CODES TIMES 6)
001215:                                                                                                  #  OUTPUT  -STAR CODE IN BITS1-6, DETENT CODE IN BITS 7-9
001216:                                                                                                  #           (NO CHECK IS MADE TO INSURE THE DETENT  CODE TO BE VALID)
001217:                                                                                                  #           POINTVSM-1/2 UNIT NAV STAR VEC IN SM
001218:                                                                                                  #           SCAXIS-AOT OPTIC AXIS VEC IN NB X-Z PLANE
001219:
001220:                                                                                                  #  SUBROUT -R60LEM
001221:
001222: 14,3671                                           COUNT*   $$/R52
001223: 14,3671           77420        R52                STQ      EXIT
001224: 14,3672           03665                                    SAVQR52
001225: 14,3673           51757                           INDEX    STARIND
001226: 14,3674           31755                           CA       BESTI                                 #  PICK UP STARCODE DETERMINED BY R56
001227: 14,3675           00006                           EXTEND
001228: 14,3676           73772                           MP       1/6TH
001229: 14,3677           64744                           AD       BIT8                                  #  SET DETENT POSITION 2
001230: 14,3700           54734                           TS       STARCODE                              #  SCALE AND STORE IN STARCODE
001231:
001232: 14,3701           33773        R52A               CAF      V01N70
001233: 14,3702           04616                           TC       BANKCALL
001234: 14,3703           20477                           CADR     GOFLASH                               #  DISPLAY STARCODE AND WAIT FOR RESPONSE
001235: 14,3704           06001                           TC       GOTOPOOH                              #  V34-TERMINATE
001236: 14,3705           13707                           TCF      R52B                                  #  V33-PROCEED TO ORIENT LEM
001237: 14,3706           13701                           TCF      R52A                                  #  ENTER-SELECT NEW STARCODE-RECYCLE
001238:
001239: 14,3707           05527        R52B               TC       DOWNFLAG
001240: 14,3710           00124                           ADRES    3AXISFLG                              #  BIT6 OF FLAGWRD5 ZERO TO ALLOW VECPOINT
001241: 14,3711           30734                           CA       STARCODE                              #  GRAB DETENT CODE
001242: 14,3712           77747                           MASK     HIGH9
001243: 14,3713           00006                           EXTEND
001244: 14,3714           74743                           MP       BIT9
001245: 14,3715           54001                           TS       L                                     #  TEMP STORE DETENT
001246:
001247: 14,3716           00006                           EXTEND
001248: 14,3717           63735                           BZMF     GETAZEL                               #  CODE 0, COAS CALIBRATION
001249:
001250: 14,3720           65661                           AD       NEG7
001251: 14,3721           00006                           EXTEND
001252: 14,3722           13735                           BZF      GETAZEL                               #  CODE 7, COAS SIGHTING
001253:
001254: 14,3723  E7,1551                                  EBANK=   XYMARK
001255: 14,3723           35016                           CA       EBANK7
001256: 14,3724           54003                           TS       EBANK
001257:


001259: 14,3725           50001                           INDEX    L
001260: 14,3726           31403                           CA       AOTAZ      -1                         #  PICK UP AZ CORRESPONDING TO DETENT
001261: 14,3727           54001                           TS       L
001262: 14,3730  E5,1642                                  EBANK=   XSM
001263: 14,3730           35014                           CA       EBANK5                                #  CHANGE TO EBANK5 BUT DONT DISTURB L
001264: 14,3731           54003                           TS       EBANK
001265: 14,3732           34737                           CA       BIT13                                 #  SET ELV TO 45 DEG
001266: 14,3733           56001                           XCH      L                                     #  SET C(A)=AZ, C(L)=45 DEG
001267: 14,3734           13745                           TCF      AZEL                                  #  GO COMP OPTIC AXIS
001268:
001269: 14,3735           33774        GETAZEL            CAF      V06N87                                #  CODE 0 OR 7, GET AZ AND EL KEY IN
001270: 14,3736           04616                           TC       BANKCALL
001271: 14,3737           20477                           CADR     GOFLASH
001272: 14,3740           06001                           TC       GOTOPOOH                              #  V34-TERMINATE
001273: 14,3741           13743                           TCF      +2                                    #  PROCEED-CALC OPTIC AXIS
001274: 14,3742           13735                           TCF      GETAZEL                               #  ENTER-RECYCLE
001275:
001276: 14,3743           00006                           EXTEND
001277: 14,3744           31345                           DCA      AZ                                    #  PICK UP AZ AND EL IN SP 2S COMP
001278: 14,3745           50120        AZEL               INDEX    FIXLOC                                #  JAM AZ AND EL IN 8 AND 9 OF VAC
001279: 14,3746           52011                           DXCH     8D
001280: 14,3747           06042                           TC       INTPRET
001281: 14,3750           77624                           CALL                                           #  GO COMPUTE OPTIC AXIS AND STORE IN
001282: 14,3751           10530                                    OANB                                  #  SCAXIS IN NB COORDS
001283: 14,3752           45034                           RTB      CALL
001284: 14,3753           21574                                    LOADTIME
001285: 14,3754           32500                                    PLANET
001286: 14,3755           53521                           MXV      UNIT
001287: 14,3756           01732                                    REFSMMAT
001288: 14,3757           03773                           STORE    POINTVSM                              #  STORE FOR VECPOINT
001289:
001290: 14,3760           77776                           EXIT
001291: 14,3761           04616                           TC       BANKCALL
001292: 14,3762           54125                           CADR     R60LEM                                #  GO TORQUE LEM OPTIC AXIS TO STAR LOS
001293:
001294: 14,3763           37747                           CAF      HIGH9                                 #  IF COAS CALIBRATION CODE 0, RECYCLE
001295: 14,3764           70734                           MASK     STARCODE
001296: 14,3765           00006                           EXTEND
001297: 14,3766           13701                           BZF      R52A
001298:
001299: 14,3767           06042                           TC       INTPRET                               #  RETURN FROM KALCMANU
001300: 14,3770           77650                           GOTO
001301: 14,3771           03665                                    SAVQR52                               #  RETURN TO CALLER
001302:
001303: 14,3772           05253        1/6TH              DEC      .1666667
001304: 14,3773           00306        V01N70             VN       0170
001305: 14,3774           01527        V06N87             VN       687
001306:


001308:                                                                                                  #  LUNAR SURFACE STAR AQUISITION
001309:
001310: 15,2270                                           BANK     15
001311: 15,2000                                           SETLOC   P50S
001312: 15,2000                                           BANK
001313: 15,2270                                           COUNT*   $$/R59
001314:
001315: 15,2270           40077        R59                CS       FLAGWRD3
001316: 15,2271           74737                           MASK     REFSMBIT                              #  IF REFSMMAT FLAG CLEAR BYPASS STAR AQUIR
001317: 15,2272           10000                           CCS      A
001318: 15,2273           12463                           TCF      R59OUT                                #  NO REFSMMAT GO TO AOTMARK
001319:
001320: 15,2274           32471                           CAF      V01N70*                               #  SELECT STAR CODE FOR ACQUISITION
001321: 15,2275           04616                           TC       BANKCALL
001322: 15,2276           20477                           CADR     GOFLASH
001323: 15,2277           06001                           TC       GOTOPOOH                              #  V34-TERMINATE
001324: 15,2300           12302                           TCF      R59A                                  #  V33-PROCEED
001325: 15,2301           12270                           TCF      R59                                   #  V32-RECYCLE
001326:
001327: 15,2302           06042        R59A               TC       INTPRET
001328: 15,2303           45034                           RTB      CALL
001329: 15,2304           21574                                    LOADTIME
001330: 15,2305           32500                                    PLANET                                #  GO GET CELESTRIAL BODY IN REF COORDS.
001331: 15,2306           53521                           MXV      UNIT
001332: 15,2307           01732                                    REFSMMAT                              #  TRANSFORM TO NB COORDS.
001333: 15,2310           77624                           CALL
001334: 15,2311           47623                                    CDU*SMNB
001335: 15,2312           02731                           STORE    STAR                                  #  TEMP STORE STAR VEC(NB)
001336: 15,2313           77776                           EXIT
001337:
001338: 15,2314           34753                           CAF      BIT1                                  #  INITIALIZE AZ POSITION CODE TO 1 (-60)
001339: 15,2315           55241                           TS       POSCODE
001340:
001341: 15,2316  E7,1551                                  EBANK=   XYMARK
001342: 15,2316           35016        INCAZ              CA       EBANK7
001343: 15,2317           54003                           TS       EBANK
001344:
001345: 15,2320           51241                           INDEX    POSCODE
001346: 15,2321           31403                           CA       AOTAZ      -1                         #  PICK UP AZ CORRESPONDING TO POSCODE
001347: 15,2322           54001                           TS       L
001348:
001349: 15,2323  E5,1642                                  EBANK=   XSM
001350: 15,2323           35014                           CA       EBANK5
001351: 15,2324           54003                           TS       EBANK
001352:
001353: 15,2325           34737                           CA       BIT13                                 #  SET ELV TO 45 DEG
001354: 15,2326           56001                           XCH      L                                     #  SET C(A)=AZ, C(L)=45 DEG
001355: 15,2327           55745                           TS       QMIN                                  #  STORE QMIN=AZ FOR LATER
001356: 15,2330           50120                           INDEX    FIXLOC
001357: 15,2331           52011                           DXCH     8D                                    #  JAM AZ IN 8D, 45 DEG IN 9D FOR OANB
001358:


001360: 15,2332           06042                           TC       INTPRET
001361: 15,2333           77624                           CALL
001362: 15,2334           10530                                    OANB                                  #  GO CALC OPTIC AXIS WRT NB
001363: 15,2335           50375                           VLOAD    DOT
001364: 15,2336           02731                                    STAR                                  #  DOT STAR WITH OA
001365: 15,2337           03765                                    SCAXIS
001366: 15,2340           65552                           SL1      ARCCOS
001367: 15,2341           00031                           STORE    24D                                   #  TEMP STORE ARCCOS(STAR.OPTAXIS)
001368:
001369: 15,2342           51025                           DSU      BPL
001370: 15,2343           32474                                    DEG30                                 #  SEE IF STAR IN AOT FIELD-OF-VIEW
001371: 15,2344           32426                                    NXAX                                  #  NOT IN FIELD - TRY NEXT POSITION
001372: 15,2345           45345                           DLOAD    DSU                                   #  SEE IF STAR AT FIELD CENTER
001373: 15,2346           00031                                    24D
001374: 15,2347           32476                                    DEG.5
001375: 15,2350           71240                           BMN      DLOAD                                 #  CALC SPIRAL AND CURSOR
001376: 15,2351           32421                                    ZSPCR                                 #  GO ZERO CURSOR AND SPIRAL
001377: 15,2352           00031                                    24D                                   #  GET SPIRAL
001378: 15,2353           42405                           DMP      SL4
001379: 15,2354           11226                                    3/4                                   #  12 SCALED AT 16
001380: 15,2355           24031                           STOVL    24D                                   #  12(ARCCOS(AO.STAR)) SCALED IN REVS
001381:
001382: 15,2356           03765                                    SCAXIS                                #  OA
001383: 15,2357           53435                           VXV      UNIT
001384: 15,2360           24005                                    XUNIT
001385: 15,2361           47206                           PUSH     VXV                                   #   OA X UNITX   PD 0-5
001386: 15,2362           03765                                    SCAXIS
001387: 15,2363           77676                           VCOMP
001388: 15,2364           63256                           UNIT     PDVL                                  #  UNIT(OA X(OA X UNITX))  PD 6-11
001389: 15,2365           03765                                    SCAXIS
001390: 15,2366           53435                           VXV      UNIT
001391: 15,2367           02731                                    STAR
001392: 15,2370           50206                           PUSH     DOT                                   #  1/2(OA X STAR)   PD 12-17
001393: 15,2371           00001                                    0                                     #  DOT WITH 1/2(OA X UNITX)  FOR YROT
001394: 15,2372           65552                           SL1      ARCCOS
001395: 15,2373           24033                           STOVL    26D                                   #  STORE THET SCALED IN REVS
001396:
001397: 15,2374           77641                           DOT                                            #  UP 12-17, UP 6-11 FOR C2
001398: 15,2375           71244                           BPL      DLOAD                                 #  IF THET NEG-GET 360-THET
001399: 15,2376           32403                                    R59D
001400: 15,2377           32047                                    ABOUTONE
001401: 15,2400           77625                           DSU
001402: 15,2401           00033                                    26D
001403: 15,2402           00033                           STORE    26D                                   #  360-THET SCALED IN REVS
001404:
001405: 15,2403           70535        R59D               SLOAD    SR1
001406: 15,2404           02746                                    QMIN                                  #  RESCALE AZ(N) TO REVS
001407: 15,2405           41415                           DAD      PUSH                                  #  PUSH YROT + AZ(N) REVS
001408: 15,2406           00033                                    26D
001409: 15,2407           77634                           RTB


001411: 15,2410           21615                                    1STO2S
001412: 15,2411           15236                           STODL    CURSOR                                #  YROT IN 1/2 REVS
001413: 15,2412           00031                                    24D                                   #  LOAD SROT IN REVS
001414: 15,2413           77615                           DAD                                            #  12(SEP) + YROT
001415: 15,2414           77634                           RTB
001416: 15,2415           21615                                    1STO2S
001417: 15,2416           01237                           STORE    SPIRAL                                #  SROT IN 1/2 REVS
001418: 15,2417           77776                           EXIT
001419: 15,2420           12445                           TCF      79DISP                                #  GO DISPLAY CURSOR-SPIRAL-POS CODE
001420:
001421: 15,2421           77776        ZSPCR              EXIT
001422: 15,2422           34755                           CAF      ZERO                                  #  STAR ALMOST OPTIC AXIS,ZERO CURSOR
001423: 15,2423           55235                           TS       CURSOR                                #  AND SPIRAL ANGLES
001424: 15,2424           55236                           TS       SPIRAL
001425: 15,2425           12445                           TCF      79DISP
001426:
001427: 15,2426           77776        NXAX               EXIT
001428: 15,2427           25241                           INCR     POSCODE
001429: 15,2430           41241                           CS       POSCODE
001430: 15,2431           64757                           AD       SEVEN
001431: 15,2432           00006                           EXTEND
001432: 15,2433           62435                           BZMF     R59ALM                                #  THIS STAR NOT AT ANY POSITION
001433: 15,2434           12316                           TCF      INCAZ
001434:
001435: 15,2435           05600        R59ALM             TC       ALARM                                 #  THIS STAR CANT BE LOCATED IN AOT FIELD
001436: 15,2436           00404                           OCT      404
001437: 15,2437           35006                           CAF      VB05N09                               #  DISPLAY ALARM
001438: 15,2440           04616                           TC       BANKCALL
001439: 15,2441           20477                           CADR     GOFLASH
001440: 15,2442           16001                           TCF      GOTOPOOH                              #  VB34-TERMINATE
001441: 15,2443           12463                           TCF      R59OUT                                #  VB33-PROCEED, GO WITHOUT AQUIRE
001442: 15,2444           12270                           TCF      R59                                   #  VB32-RECYCLE AND TRY ANOTHER STAR
001443:
001444: 15,2445           32472        79DISP             CAF      V06N79                                #  DISPLAY CURSOR, SPIRAL AND POS CODE
001445: 15,2446           04616                           TC       BANKCALL
001446: 15,2447           20477                           CADR     GOFLASH
001447: 15,2450           16001                           TCF      GOTOPOOH                              #  V34-TERMINATE
001448: 15,2451           12453                           TCF      R59E                                  #  V33-PROCEED TO MARK ROUTINE
001449: 15,2452           12270                           TCF      R59                                   #  V32-RECYCLE TO TOP OF R59 AGAIN
001450:
001451: 15,2453           34757        R59E               CAF      SEVEN                                 #  GET DETENT CODE CORRESPONDING TO POSCODE
001452: 15,2454           71241                           MASK     POSCODE
001453: 15,2455           00006                           EXTEND
001454: 15,2456           74745                           MP       BIT7                                  #  DETENT CODE NOW IN L
001455: 15,2457           47747                           CS       HIGH9
001456: 15,2460           70734                           MASK     AOTCODE                               #  ISOLATE STAR NO IN BIT 1-6
001457: 15,2461           60001                           AD       L
001458: 15,2462           54734                           TS       AOTCODE                               #  STORE DETENT 7-9
001459:
001460: 15,2463           04616        R59OUT             TC       BANKCALL                              #  GO TO AOTMARK FOR SIGHTING


001462: 15,2464           16000                           CADR     AOTMARK
001463: 15,2465           04616                           TC       BANKCALL
001464: 15,2466           17716                           CADR     AOTSTALL                              #  SLEEP TILL SIGHTING DONE
001465: 15,2467           05712                           TC       CURTAINS                              #  BADEND RETURN FROM AOTMARK
001466: 15,2470           13050                           TCF      R59RET                                #  RETURN TO 1 STAR OR 2STAR
001467:
001468: 15,2471           00306        V01N70*            VN       170
001469: 15,2472           01517        V06N79             VN       679
001470: 15,2473           02525 12525  DEG30              2DEC     .083333333                            #  30 DEGRESS
001471:
001472: 15,2475           00026 30131  DEG.5              2DEC     .00138888                             #  .5 DEGRESS SCALED IN REVS
001473:
001474: 15,2477           12525        DEG60              OCT      12525                                 #  60 DEG CDU SCALING
001475:
001476: 15,2500     1235               CURSOR             EQUALS   GDT/2
001477: 15,2500     1236               SPIRAL             EQUALS   GDT/2      +1
001478: 15,2500     1241               POSCODE            EQUALS   GDT/2      +4
001479:


001481:                                                                                                  #  NAME -   PLANET
001482:                                                                                                  #  FUNCTION -TO PROVIDE THE REFERENCE VECTOR FOR THE SIGHTED CELESTIAL
001483:                                                                                                  #            BODY. STARS ARE FETCHED FROM THE CATALOG,SUN,EARTH AND
001484:                                                                                                  #            MOON ARE COMPUTED BY LOCSAM,PLANET VECTORS ARE ENTERED
001485:                                                                                                  #            BY DSDY INPUT
001486:                                                                                                  #  CALL  -  CALL
001487:                                                                                                  #                  PLANET
001488:                                                                                                  #  INPUT -  TIME IN MPAC
001489:                                                                                                  #  OUTPUT - VECTOR  IN MPAC
001490:                                                                                                  #  SUBROUTINES - LOCSAM
001491:                                                                                                  #  DEBRIS - VAC ,STARAD - STARAD +17
001492:
001493: 15,2000                                           SETLOC   P50S
001494: 15,2000                                           BANK
001495: 15,2500                                           COUNT*   $$/R58
001496:
001497: 15,2500           03562        PLANET             STORE    TSIGHT
001498: 15,2501           77420                           STQ      EXIT
001499: 15,2502           02736                                    GCTR
001500: 15,2503           47747                           CS       HIGH9
001501: 15,2504           70734                           MASK     AOTCODE
001502: 15,2505           00006                           EXTEND
001503: 15,2506           76245                           MP       REVCNT
001504: 15,2507           56001                           XCH      L
001505: 15,2510           51757                           INDEX    STARIND
001506: 15,2511           55755                           TS       BESTI
001507: 15,2512           10000                           CCS      A
001508: 15,2513           12530                           TCF      NOTPLAN
001509: 15,2514           32567                           CAF      VNPLANV
001510: 15,2515           04616                           TC       BANKCALL
001511: 15,2516           20477                           CADR     GOFLASH
001512: 15,2517           02514                           TC       -3
001513: 15,2520           02522                           TC       +2
001514: 15,2521           02514                           TC       -5
001515: 15,2522           06042                           TC       INTPRET
001516: 15,2523           74375                           VLOAD    VXSC
001517: 15,2524           02707                                    STARAD
001518: 15,2525           32571                                    1/SQR3
001519: 15,2526           52056                           UNIT     GOTO
001520: 15,2527           02736                                    GCTR
001521:
001522: 15,2530           40000        NOTPLAN            CS       A
001523: 15,2531           62566                           AD       DEC227
001524: 15,2532           00006                           EXTEND
001525: 15,2533           62544                           BZMF     CALSAM1
001526: 15,2534           51757                           INDEX    STARIND
001527: 15,2535           31755                           CA       BESTI
001528: 15,2536           50120                           INDEX    FIXLOC
001529: 15,2537           54046                           TS       X1
001530: 15,2540           06042                           TC       INTPRET


001532: 15,2541           52173                           VLOAD*   GOTO
001533: 15,2542           30347                                    CATLOG,1
001534: 15,2543           02736                                    GCTR
001535: 15,2544           06042        CALSAM1            TC       INTPRET
001536: 15,2545           45145        CALSAM             DLOAD    CALL
001537: 15,2546           03562                                    TSIGHT
001538: 15,2547           30500                                    LOCSAM
001539: 15,2550           77340                           LXC,1    VLOAD
001540: 15,2551           02757                                    STARIND
001541: 15,2552           02707                                    VEARTH
001542: 15,2553           24001                           STOVL    0D
001543: 15,2554           02715                                    VSUN
001544: 15,2555           26707                           STOVL    VEARTH
001545: 15,2556           00001                                    0D
001546: 15,2557           02715                           STORE    VSUN
001547: 15,2560           70143                           DLOAD*   LXC,1
001548: 15,2561           02756                                    BESTI,1
001549: 15,2562           00154                                    MPAC
001550: 15,2563           52173                           VLOAD*   GOTO
001551: 15,2564           02343                                    STARAD     -228D,1
001552: 15,2565           02736                                    GCTR
001553: 15,2566           00343        DEC227             DEC      227        B-14
001554: 15,2567           01530        VNPLANV            VN       0688
001555: 15,2570  37,3543               PIPSRINE           =        PIPASR     +3                         #  EBANK NOT 4 SO DONT LOAD PIPTIME1
001556: 15,2570           22363 11623  1/SQR3             2DEC     .57735021
001557:


001559:                                                                                                  #  GRAVITY VECTOR DETERMINATION ROUTINE
001560:                                                                                                  #  BY KEN VINCENT
001561:                                                                                                  #  FOR DETAILED DESCRIPTION SEE 504GSOP 5.6.3.2.5
001562:                                                                                                  #  THIS PROGRAM FINDS THE DIRECTION OF THE MOONS GRAVITY
001563:                                                                                                  #  WHILE THE LM IS ON THE MOONS SURFACE. IT WILL BE USED
001564:                                                                                                  #  FOR LUNAR SURFACE ALIGNMENT. THE GRAVITY VECTOR IS
001565:                                                                                                  #  DETERMINED BY READING THE PIPAS WITH THE IMU AT TWO
001566:                                                                                                  #  PARTICULAR ORIONTATIONS. THE TWO READINGS ARE AVERAGED
001567:                                                                                                  #  AND UNITIZED AND TRANSFORMED TO NB COORDINATES. THE TWO
001568:                                                                                                  #  ORIENTATION WERE CHOSEN TO REDUCE BIAS ERRORS IN THE
001569:                                                                                                  #  READINGS.
001570:
001571:                                                                                                  #  CALL-
001572:                                                                                                  #           TC     BANKCALL
001573:                                                                                                  #           CADR   GVDETER
001574:                                                                                                  #  INPUTS-
001575:                                                                                                  #           PIPAS,CDUS
001576:                                                                                                  #  OUTPUTS-
001577:                                                                                                  #           STARSAV1 = UNIT GRAVITY
001578:                                                                                                  #           GSAV     =   DITTO
001579:                                                                                                  #           GRAVBIT  = 1
001580:                                                                                                  #  SUBROUTINES-
001581:                                                                                                  #           PIPASR,IMUCOARS,IMUFINE,IMUSTALL,1/PIPA,DELAYJOB,CDUTRIG,
001582:                                                                                                  #           *NBSM* ,*SNMB*, CALCGA,FOFLASH
001583:                                                                                                  #  DEBRIS-
001584:                                                                                                  #           VAC,SAC,STARAD,XSM,XNB,THETAD,DELV,COSCDU,SINCDU
001585: 15,2572           32773        GVDETER            CAF      42DEG
001586: 15,2573           54321                           TS       THETAD
001587: 15,2574           40000                           COM
001588: 15,2575           54322                           TS       THETAD     +1
001589: 15,2576           32774                           CAF      35DEG
001590: 15,2577           54323                           TS       THETAD     +2
001591: 15,2600           06042                           TC       INTPRET
001592: 15,2601           45014                           CLEAR    CALL
001593: 15,2602           01662                                    REFSMFLG
001594: 15,2603           32677                                    LUNG
001595:                                                                                                  #  FIND  GIMBAL ANGLES WHICH ROTATE SM 180DEG  ABOUT  G VEC
001596:
001597:                                                                                                  #   DEFINE G COOR SYS
001598:                                                                                                  #                       -
001599:                                                                                                  #                       X    UNIT G
001600:                                                                                                  #                   *   -               -
001601:                                                                                                  #                   M=  Y =  UNITEZSM * X )
001602:                                                                                                  #                       -         -     -
001603:                                                                                                  #                       Z    UNIT(X   * Y )
001604:                                                                                                  #   THEN   ROTATED  SM WRT  PRESENT IS
001605:
001606:
001607:                                                                                                  #                      1,  0 , 0
001608:                                                                                                  #            *      *T            *           *         *


001610:                                                                                                  #           XSM =   M  0, -1 , 0  M   = 2  (X X ) - 1/2 I  *
001611:                                                                                                  #                                            I J
001612:                                                                                                  #                      0,  0 ,-1
001613:
001614:                                                                                                  #   ALSO   NB WRT PRES SM  IS
001615:
001616:                                                                                                  #                 *      *   *
001617:                                                                                                  #                XNB = NBSM  I
001618:                                                                                                  #                             *     *
001619:                                                                                                  #   GIMBAL ANGLES  = CALCGA( XSM , XNB )
001620:
001621: 15,2000                                           SETLOC   P50S
001622: 15,2000                                           BANK
001623: 15,2604                                           COUNT*   $$/P57
001624: 15,2604           66370                           AXT,1    SSP                                   #  X1=18
001625: 15,2605           00022                                    18D                                   #  S1= 6
001626: 15,2606           00051                                    S1                                    #  X2, -2
001627: 15,2607           00006                                    6D
001628: 15,2610           77744                           LXC,2
001629: 15,2611           00050                                    S1
001630: 15,2612           45173        GRAVEL             VLOAD*   CALL
001631: 15,2613           54000                                    XUNIT      -6,2
001632: 15,2614           47650                                    *NBSM*                                #  SIN AND COS COMPUTED IN LUNG
001633: 15,2615           06707                           STORE    XNB        +18D,1
001634: 15,2616           77775                           VLOAD
001635: 15,2617           02731                                    STAR
001636: 15,2620           73744                           LXC,2    VXSC*                                 #  COMPLEMENT- UNITX  ARE BACKWARD -
001637: 15,2621           00047                                    X2
001638: 15,2622           75040                                    STAR       +6,2                       #  OUTER PRODUCT
001639: 15,2623           71152                           VSL2     LXC,2
001640: 15,2624           00047                                    X2
001641: 15,2625           63047                           VSU*     INCR,2
001642: 15,2626           54000                                    XUNIT      -6,2
001643: 15,2627           00002                                    2D
001644: 15,2630           06665                           STORE    XSM        +18D,1
001645: 15,2631           45100                           TIX,1    CALL
001646: 15,2632           32612                                    GRAVEL
001647: 15,2633           47321                                    CALCGA
001648: 15,2634           74575                           VLOAD    VSR1
001649: 15,2635           02715                                    GOUT
001650: 15,2636           36723                           STCALL   STARAD     +12D
001651: 15,2637           32677                                    LUNG
001652: 15,2640           74575                           VLOAD    VSR1
001653: 15,2641           02715                                    GOUT
001654: 15,2642           53455                           VAD      UNIT
001655: 15,2643           02723                                    STARAD     +12D
001656: 15,2644           02761                           STORE    STARSAV1
001657: 15,2645           77641                           DOT
001658: 15,2646           02231                                    GSAV
001659: 15,2647           65552                           SL1      ACOS


001661: 15,2650           01045                           STORE    DSPTEM1
001662: 15,2651           77776                           EXIT
001663: 15,2652           05527                           TC       DOWNFLAG                              #  CLEAR FREEFLAG IN CASE OF RECYCLE
001664: 15,2653           00014                           ADRES    FREEFLAG
001665:
001666: 15,2654           32772                           CA       DISGRVER
001667: 15,2655           04616                           TC       BANKCALL
001668: 15,2656           20477                           CADR     GOFLASH
001669: 15,2657           06001                           TC       GOTOPOOH
001670: 15,2660           12663                           TCF      PROGRAV                               #  VB33-PROCEED
001671: 15,2661           05515                           TC       UPFLAG                                #  VB32-RECYCLE-STORE GRAV AND DO IT AGAIN
001672: 15,2662           00014                           ADRES    FREEFLAG                              #  AND SET FREEFLAG TO SHOW RECYCLE
001673:
001674: 15,2663           05364        PROGRAV            TC       PHASCHNG
001675: 15,2664           04024                           OCT      04024
001676:
001677: 15,2665           06042                           TC       INTPRET
001678: 15,2666           77775                           VLOAD
001679: 15,2667           02761                                    STARSAV1
001680: 15,2670           02231                           STORE    GSAV
001681: 15,2671           77776                           EXIT
001682: 15,2672           34751                           CAF      FREEFBIT                              #  IF FREEFLAG SET, RE-COMPUTE GRAVITY.
001683: 15,2673           70074                           MASK     FLAGWRD0
001684: 15,2674           10000                           CCS      A
001685: 15,2675           12572                           TCF      GVDETER                               #  SET
001686: 15,2676           13547                           TCF      ATTCHK                                #  EXIT FROM GVDETER
001687:
001688: 15,2677           77220        LUNG               STQ      VLOAD
001689: 15,2700           02745                                    QMIN
001690: 15,2701           24007                                    ZEROVEC
001691: 15,2702           02707                           STORE    GACC
001692: 15,2703           77776                           EXIT
001693: 15,2704           05364                           TC       PHASCHNG
001694: 15,2705           04024                           OCT      04024
001695:
001696: 15,2706           06042                           TC       INTPRET
001697: 15,2707           77624                           CALL
001698: 15,2710           31557                                    COARSE
001699: 15,2711           77776                           EXIT
001700: 15,2712           32771                           CA       T/2SEC
001701: 15,2713           55736                           TS       GCTR
001702: 15,2714           37721                           CA       PRIO31
001703: 15,2715           55074                           TS       1/PIPADT
001704: 15,2716           04616                           TC       BANKCALL
001705: 15,2717           15707                           CADR     GCOMPZER                              #  INITIALIZE  COMPENSATION
001706: 15,2720           05364                           TC       PHASCHNG
001707: 15,2721           04024                           OCT      04024
001708:
001709: 15,2722           04616                           TC       BANKCALL                              #   DONT NEED TO INHINY  THIS USED TO
001710: 15,2723           77543                           CADR     PIPSRINE                              #  INITIALIZE PIPAS  DONT USE DATA


001712: 15,2724           06042                           TC       INTPRET
001713: 15,2725           77776        GREED              EXIT                                           #  = MASK 7776 IN BASIC SO DONT CARE
001714: 15,2726           35000                           CAF      2SECS
001715: 15,2727           05204                           TC       TWIDDLE                               #  SET UP 2 SEC TASK TO READ PIPAS
001716: 15,2730           02732                           ADRES    GRABGRAV
001717:
001718: 15,2731           05155                           TC       ENDOFJOB
001719:
001720: 15,2732           04674        GRABGRAV           TC       IBNKCALL
001721: 15,2733           77543                           CADR     PIPSRINE
001722: 15,2734           35023                           CAF      PRIO13                                #  RE-ESTABLISH MAINLINE JOB
001723: 15,2735           05105                           TC       FINDVAC
001724: 15,2736  E5,1706                                  EBANK=   STARAD
001725: 15,2736           02741 32065                     2CADR    ADDGRAV
001726:
001727:
001728: 15,2740           05272                           TC       TASKOVER
001729:
001730: 15,2741           04616        ADDGRAV            TC       BANKCALL
001731: 15,2742           15271                           CADR     1/PIPA
001732: 15,2743           25736                           INCR     GCTR
001733: 15,2744           06042                           TC       INTPRET
001734: 15,2745           53375                           VLOAD    VAD
001735: 15,2746           00325                                    DELV
001736: 15,2747           02707                                    GACC
001737: 15,2750           02707                           STORE    GACC                                  #  ACCUMULATE G VECTOR
001738: 15,2751           50135                           SLOAD    BMN
001739: 15,2752           02737                                    GCTR
001740: 15,2753           32725                                    GREED
001741: 15,2754           53575                           VLOAD    UNIT
001742: 15,2755           02707                                    GACC
001743: 15,2756           36731                           STCALL   STAR
001744: 15,2757           47505                                    CDUTRIG                               #  TRANSFORM  IN NB COOR  AND  STORE
001745: 15,2760           77624                           CALL                                           #   IN OUTPUT
001746: 15,2761           47646                                    *SMNB*
001747: 15,2762           02715                           STORE    GOUT
001748: 15,2763           77776                           EXIT
001749: 15,2764           05364                           TC       PHASCHNG
001750: 15,2765           04024                           OCT      04024
001751:
001752: 15,2766           06042        QMINEXIT           TC       INTPRET
001753: 15,2767           77650                           GOTO
001754: 15,2770           02745                                    QMIN
001755: 15,2771           77753        T/2SEC             DEC      -20        B-14
001756: 15,2772           01404        DISGRVER           VN       0604
001757: 15,2773           07357        42DEG              OCT      07357
001758: 15,2774           06211        35DEG              OCT      06211
001759:


001761:                                                                                                  #  NAME  GYROTRIM
001762:
001763:                                                                                                  #  THIS PROGRAM COMPUTES AND SENDS GYRO COMMANDS WHICH CAUSE THE CDUS
001764:                                                                                                  #    TO ATTAIN A PRESCRIBED SET OF ANGLES. THIS ROUTINE ASSUMES THE
001765:                                                                                                  #    VEHICLES ATTITUDE REMAINS STATIONARY DURING ITS OPERATION.
001766:
001767:                                                                                                  #  CALL     CALL
001768:                                                                                                  #                  GYROTRIM
001769:
001770:                                                                                                  #  INPUT    THETAD,+1,+2 = DESIRED CDU ANGLES
001771:                                                                                                  #           CDUX,CDUY,CDUZ
001772:
001773:                                                                                                  #  OUTPUT - GYRO TORQUE PULSES
001774:
001775:                                                                                                  #  SUBROUTINES- TRG*NBSM,*NBSM*,CDUTRIG,AXISGEN,CALCGTA,IMUFINE
001776:                                                                                                  #               IMPULSE,IMUSTALL
001777:                                                                                                  #             -         -        -        *           *     -
001778:                                                                                                  #  DEBRIS -  CDUSPOT ,SINCDU ,COSCDU , STARAD ,VAC , XDC , OGC
001779: 15,2775                                           COUNT*   $$/P57
001780: 15,2775           71220        GYROTRIM           STQ      DLOAD
001781: 15,2776           02745                                    QMIN
001782: 15,2777           00322                                    THETAD
001783: 15,3000           65325                           PDDL     PDDL
001784: 15,3001           00324                                    THETAD     +2
001785: 15,3002           00323                                    THETAD     +1
001786: 15,3003           77666                           VDEF
001787: 15,3004           24766                           STOVL    CDUSPOT
001788: 15,3005           24005                                    XUNIT
001789: 15,3006           77624                           CALL
001790: 15,3007           47641                                    TRG*NBSM
001791: 15,3010           26707                           STOVL    STARAD
001792: 15,3011           24003                                    YUNIT
001793: 15,3012           77624                           CALL
001794: 15,3013           47650                                    *NBSM*
001795: 15,3014           36715                           STCALL   STARAD     +6
001796: 15,3015           47505                                    CDUTRIG
001797: 15,3016           77624                           CALL
001798: 15,3017           20030                                    CALCSMSC
001799: 15,3020           77775                           VLOAD
001800: 15,3021           02665                                    XNB
001801: 15,3022           24007                           STOVL    6D
001802: 15,3023           02673                                    YNB
001803: 15,3024           34015                           STCALL   12D
001804: 15,3025           47407                                    AXISGEN
001805: 15,3026           77624                           CALL
001806: 15,3027           47215                                    CALCGTA
001807: 15,3030           77776        JUSTTRIM           EXIT
001808: 15,3031           33040                           CA       GYRCDR
001809: 15,3032           04616                           TC       BANKCALL
001810: 15,3033           17307                           CADR     IMUPULSE


001812: 15,3034           04616                           TC       BANKCALL
001813: 15,3035           17722                           CADR     IMUSTALL
001814: 15,3036           05712                           TC       CURTAINS
001815: 15,3037           12766                           TCF      QMINEXIT
001816:
001817: 15,3040           02737        GYRCDR             ECADR    OGC
001818:


001820:                                                                                                  #  PERFORM STAR AQUISITION AND STAR SIGHTINGS
001821:
001822: 15,3041           34755        2STARS             CAF      ZERO                                  #  INITALIZE STARIND
001823: 15,3042           13044                           TCF      +2                                    #  ZERO FOR 1ST STAR, ONE FOR 2ND STAR
001824: 15,3043           34753        1STAR              CAF      BIT1
001825: 15,3044           55757                           TS       STARIND
001826:
001827: 15,3045           05364                           TC       PHASCHNG
001828: 15,3046           04024                           OCT      04024
001829:
001830: 15,3047           12270                           TCF      R59                                   #  GO DO STAR AQUIRE AND AOTMARK
001831:
001832: 15,3050           31757        R59RET             CA       STARIND                               #  BACK FROM SURFACE MARKING
001833: 15,3051           00006                           EXTEND
001834: 15,3052           13063                           BZF      ASTAR                                 #  1ST STAR MARKED
001835:
001836: 15,3053           05364                           TC       PHASCHNG
001837: 15,3054           04024                           OCT      04024
001838:
001839: 15,3055           06042                           TC       INTPRET
001840: 15,3056           45145                           DLOAD    CALL
001841: 15,3057           03562                                    TSIGHT                                #  TIME OF 2ND MARK
001842: 15,3060           32500                                    PLANET
001843: 15,3061           37254                           STCALL   VEC2                                  #  STORE 2ND CATALOG VEC (REF)
001844: 15,3062           33075                                    SURFLINE
001845:
001846: 15,3063           06042        ASTAR              TC       INTPRET
001847: 15,3064           77775                           VLOAD
001848: 15,3065           02715                                    STARAD     +6
001849: 15,3066           02761                           STORE    STARSAV1                              #  1ST OBSERVED STAR (SM)
001850: 15,3067           45145                           DLOAD    CALL
001851: 15,3070           03562                                    TSIGHT                                #  TIME OF 1ST MARK
001852: 15,3071           32500                                    PLANET
001853: 15,3072           03246                           STORE    VEC1                                  #  STORE 1ST CATALOG VEC (REF)
001854: 15,3073           77776                           EXIT
001855: 15,3074           13043                           TCF      1STAR                                 #  GO GET 2ND STAR SIGHTING
001856:


001858:                                                                                                  #  DO FINE OR COARSE ALIGNMENT OF IMU
001859:
001860: 15,3075           77131        SURFLINE           SSP      AXT,2
001861: 15,3076           00052                                    S2
001862: 15,3077           00006                                    6
001863: 15,3100           00014                                    12D
001864: 15,3101           64373        WRTDESIR           VLOAD*   MXV
001865: 15,3102           74515                                    VEC1       +12D,2                     #  PICK UP VEC IN REF, TRANS TO DESIRED SH
001866: 15,3103           03607                                    XSMD
001867: 15,3104           77656                           UNIT
001868: 15,3105           12723                           STORE    STARAD     +12D,2                     #  VEC IN SM
001869: 15,3106           77773                           VLOAD*
001870: 15,3107           75002                                    STARSAV1   +12D,2                     #  PICK UP VEC IN PRESENT SM
001871: 15,3110           10023                           STORE    18D,2
001872: 15,3111           43104                           TIX,2    BON
001873: 15,3112           33101                                    WRTDESIR
001874: 15,3113           04315                                    INITALGN                              #  IF INITIAL PASS (OPTION 0) BYPASS R54
001875: 15,3114           33122                                    INITBY
001876: 15,3115           77624        DOALIGN            CALL
001877: 15,3116           31250                                    R54                                   #  DO CHKSDATA
001878: 15,3117           77614                           BOFF
001879: 15,3120           00354                                    FREEFLAG
001880: 15,3121           33202                                    P57POST                               #  ASTRO DOES NOT LIKE DATA TEST RESULTS
001881: 15,3122           77624        INITBY             CALL
001882: 15,3123           47407                                    AXISGEN                               #  GET DESIRED ORIENT WRT PRES.XDC,YDC,ZDC
001883: 15,3124           77624                           CALL
001884: 15,3125           47215                                    CALCGTA                               #  GET GYRO TORQ ANGLES, OGC,IGC,MGC
001885: 15,3126           77776                           EXIT
001886: 15,3127           34752                           CAF      INITABIT                              #  IF INITIAL PASS BYPASS NOUN 93 DISPLAY
001887: 15,3130           70104                           MASK     FLAGWRD8
001888: 15,3131           10000                           CCS      A
001889: 15,3132           13141                           TCF      5DEGTEST
001890: 15,3133           33307                           CAF      DISPGYRO                              #  DISPLAY GYRO TORQ ANGLES V 06N93
001891: 15,3134           04616                           TC       BANKCALL
001892: 15,3135           20477                           CADR     GOFLASH
001893: 15,3136           06001                           TC       GOTOPOOH                              #  V34-TERMINATE
001894: 15,3137           13141                           TCF      5DEGTEST                              #  VB33-PROCEED TO COARSE OR FINE
001895: 15,3140           13203                           TCF      P57POST    +1                         #  VB32-RECYCLE, MAYBE RE-ALIGN
001896:
001897: 15,3141           06042        5DEGTEST           TC       INTPRET                               #  IF ANGLES GREATER THAN 5 DEGS, DO COARSE
001898: 15,3142           40175                           VLOAD    BOV
001899: 15,3143           02740                                    OGC
001900: 15,3144           33145                                    SURFSUP
001901: 15,3145           02750        SURFSUP            STORE    OGCT
001902: 15,3146           40141                           V/SC     BOV
001903: 15,3147           30602                                    5DEGREES
001904: 15,3150           33250                                    COATRIM
001905: 15,3151           52131                           SSP      GOTO
001906: 15,3152           02746                                    QMIN
001907: 15,3153           33155                                    SURFDISP


001909: 15,3154           33030                                    JUSTTRIM                              #  ANGLES LESS THAN 5DEG, DO GYRO TORQ
001910:
001911: 15,3155           77776        SURFDISP           EXIT
001912: 15,3156           05364                           TC       PHASCHNG
001913: 15,3157           04024                           OCT      04024
001914:
001915: 15,3160           06042                           TC       INTPRET
001916: 15,3161           75160                           AXC,1    AXC,2
001917: 15,3162           03606                                    XSMD
001918: 15,3163           01731                                    REFSMMAT
001919: 15,3164           45014                           SET      CALL
001920: 15,3165           01462                                    REFSMFLG
001921: 15,3166           31371                                    MATMOVE
001922: 15,3167           77776                           EXIT
001923: 15,3170           11144                           CCS      OPTION2                               #  IF OPTION ZERO DO FINISH
001924: 15,3171           13173                           TCF      B2F8
001925: 15,3172           13203                           TCF      P57POST    +1
001926:
001927: 15,3173           34752        B2F8               CAF      INITABIT                              #  IF INITIAL FLAG SET, RE-CYCLE.
001928: 15,3174           70104                           MASK     FLAGWRD8
001929: 15,3175           10000                           CCS      A
001930: 15,3176           13555                           TCF      P57JUMP                               #  ITS SET
001931: 15,3177           06042                           TC       INTPRET
001932: 15,3200           77624                           CALL
001933: 15,3201           33502                                    REFMF                                 #  GO GET ATTITUDE VEC IN MF(YNBSAV,XNBSAV)
001934: 15,3202           77776        P57POST            EXIT
001935: 15,3203           35752                           CAF      OCT14                                 #  DISPLAY V50N25 CHK CODE 14
001936: 15,3204           04616                           TC       BANKCALL
001937: 15,3205           20624                           CADR     GOPERF1
001938: 15,3206           16001                           TCF      GOTOPOOH                              #  VB34-TERMINATE
001939: 15,3207           13555                           TCF      P57JUMP                               #  VB33-PROCEED TO RE-ALIGN
001940: 15,3210           44752                           CS       BIT2                                  #  TEST TO SE IF ALIGNED BY OPTION 2
001941: 15,3211           61144                           AD       OPTION2
001942: 15,3212           00006                           EXTEND
001943: 15,3213           13215                           BZF      +2                                    #  YES-GO CALCULATE LANDING SITE
001944: 15,3214           16001                           TCF      GOTOPOOH                              #  NO-EXIT P57
001945: 15,3215           05364                           TC       PHASCHNG                              #  RESTART PLACE
001946: 15,3216           04024                           OCT      04024
001947: 15,3217           06042                           TC       INTPRET
001948: 15,3220           45175                           VLOAD    CALL                                  #  USE GNB
001949: 15,3221           02231                                    GSAV
001950: 15,3222           47636                                    CDU*NBSM                              #  GO TO SM COORDS
001951: 15,3223           43105                           VXM      SET                                   #           ON MOON SO SET LUNAFLAG
001952: 15,3224           01732                                    REFSMMAT                              #           G(REF) = (REFSMMAT)T (NBSM)GNB
001953: 15,3225           01463                                    LUNAFLAG
001954: 15,3226           51515                           PDVL     ABVAL
001955: 15,3227           02021                                    RLS
001956: 15,3230           45561                           VXSC     STADR
001957: 15,3231           75745                           STORE    ALPHAV                                #           ALPHAV =  RLSMAG * G(REF)
001958: 15,3232           47014                           CLEAR    RTB


001960: 15,3233           00662                                    ERADFLAG
001961: 15,3234           21574                                    LOADTIME
001962: 15,3235           77624                           CALL
001963: 15,3236           30440                                    N89DISP                               #  SUBROUTINE TO CALC LS AND GIVE RLS BACK
001964: 15,3237           01220                           STORE    RN                                    #  RN=RLS B-29 = LM POSITION
001965: 15,3240           65352                           VSL2     PDDL                                  #  R-TO-RP GETS RLS B-27 AT  0-5D IN PDLIST
001966: 15,3241           01242                                    GDT/2      +4                         #  TIME TEMP STORED IN N89DISP
001967: 15,3242           77606                           PUSH                                           #  TIME AT  6-7 IN PDLIST
001968: 15,3243           35234                           STCALL   PIPTIME                               #  PIPTIME = LM STATE TIME
001969: 15,3244           51642                                    R-TO-RP
001970: 15,3245           02021                           STORE    RLS                                   #  RLS IN MOON-FIXED COORDS
001971: 15,3246           77776                           EXIT
001972: 15,3247           16001                           TCF      GOTOPOOH                              #  EXIT P57
001973:


001975:                                                                                                  #  COARSE AND FINE ALIGN IMU
001976: 15,3250           75160        COATRIM            AXC,1    AXC,2
001977: 15,3251           02664                                    XDC
001978: 15,3252           02642                                    XSM
001979: 15,3253           77624                           CALL
001980: 15,3254           31371                                    MATMOVE
001981: 15,3255           77624                           CALL
001982: 15,3256           47505                                    CDUTRIG
001983: 15,3257           77624                           CALL
001984: 15,3260           20030                                    CALCSMSC
001985: 15,3261           77624                           CALL
001986: 15,3262           47321                                    CALCGA
001987: 15,3263           77414                           BOFF     EXIT
001988: 15,3264           04355                                    INITALGN                              #  IF INITIAL ALGNMENT DISPLAY FINAL
001989: 15,3265           33277                                    CORSIT                                #  GIMBAL ANGLES IF COARSE ANGLES GREATER
001990: 15,3266           35010                           CAF      V06N22                                #  THAN 5 DEGREES
001991: 15,3267           04616                           TC       BANKCALL
001992: 15,3270           20477                           CADR     GOFLASH
001993: 15,3271           06001                           TC       GOTOPOOH
001994: 15,3272           13274                           TCF      +2
001995: 15,3273           13266                           TCF      -5
001996: 15,3274           05364                           TC       PHASCHNG
001997: 15,3275           04024                           OCT      04024
001998:
001999: 15,3276           06042                           TC       INTPRET
002000: 15,3277           77624        CORSIT             CALL
002001: 15,3300           31557                                    COARSE
002002: 15,3301           77624                           CALL
002003: 15,3302           31603                                    NCOARSE
002004: 15,3303           77624                           CALL
002005: 15,3304           32775                                    GYROTRIM
002006: 15,3305           77650                           GOTO
002007: 15,3306           33155                                    SURFDISP
002008: 15,3307           01535        DISPGYRO           VN       0693
002009:


002011:                                                                                                  #  LUNAR SURFACE IMU ALIGNMENT PROGRAM
002012:
002013: 15,3310           04616        P57                TC       BANKCALL                              #  IS ISS ON - IF NOT, IMUCHK WILL SEND
002014: 15,3311           33646                           CADR     IMUCHK                                #  ALARM CODE 210 AND EXIT VIA GOTOPOOH
002015:
002016: 15,3312           36250                           CAF      THREE                                 #  JAM REFSMMAT OPTION 3 FOR INITIAL DISP.
002017: 15,3313           55144                           TS       OPTION2
002018: 15,3314           34753        P57OPT             CAF      BIT1
002019: 15,3315           04616                           TC       BANKCALL
002020: 15,3316           20714                           CADR     GOPERF4R                              #  FLASH V04N06 FOR ALIGNMENT CODE
002021: 15,3317           06001                           TC       GOTOPOOH                              #  V34 TERMINATE
002022: 15,3320           13325                           TCF      ALIGNOPT                              #  V33 PROCEED
002023: 15,3321           13314                           TCF      P57OPT                                #  V32 RECYCLE
002024:
002025: 15,3322           05364                           TC       PHASCHNG
002026: 15,3323           00014                           OCT      00014
002027: 15,3324           05155                           TC       ENDOFJOB
002028:
002029: 15,3325           31144        ALIGNOPT           CA       OPTION2
002030: 15,3326           76250                           MASK     THREE
002031: 15,3327           50000                           INDEX    A
002032: 15,3330           13331                           TCF      +1
002033: 15,3331           13344                           TCF      TDISP                                 #  OPTION 4 LS ORIENTATION
002034: 15,3332           13405                           TCF      PACKOPTN                              #  OPTION 1 PREFERRED
002035: 15,3333           13314                           TCF      P57OPT                                #  OPTION 2 INVALID IN P57, RECYCLE
002036: 15,3334           06042                           TC       INTPRET                               #  OPTION 3 REFSMMAT
002037: 15,3335           75160                           AXC,1    AXC,2                                 #  JAM REFSMMAT IN XSMD LOC
002038: 15,3336           01731                                    REFSMMAT
002039: 15,3337           03606                                    XSMD
002040: 15,3340           77624                           CALL
002041: 15,3341           31371                                    MATMOVE
002042: 15,3342           77650                           GOTO
002043: 15,3343           33404                                    PACKOPTN   -1
002044:
002045: 15,3344           06042        TDISP              TC       INTPRET
002046: 15,3345           77745                           DLOAD
002047: 15,3346           03442                                    TIG                                   #  LOAD ASCENT TIME FOR DISPLAY
002048: 15,3347           01045        P57A               STORE    DSPTEM1
002049: 15,3350           77776                           EXIT
002050: 15,3351           32213        P57AA              CAF      V06N34*                               #  DISPLAY TALIGN, TALIGN : DSPTEM1
002051: 15,3352           04616                           TC       BANKCALL
002052: 15,3353           20477                           CADR     GOFLASH
002053: 15,3354           16001                           TCF      GOTOPOOH                              #  V34-TERMINATE
002054: 15,3355           13357                           TCF      +2
002055: 15,3356           13351                           TCF      P57AA                                 #  VB32-RECYCLE
002056:
002057: 15,3357           06042                           TC       INTPRET
002058: 15,3360           65234                           RTB      PDDL
002059: 15,3361           21574                                    LOADTIME                              #  PUSH CURRENT TIME AND PICK UP KEY IN
002060: 15,3362           01045                                    DSPTEM1


002062: 15,3363           65254                           BZE      PDDL
002063: 15,3364           33374                                    P57C                                  #  IF KEY IN TIME ZERO-TALIGN=CURRENT TIME
002064: 15,3365           51025                           DSU      BPL                                   #  NOT ZERO SO EXCHANGE PD WITH DSPTEM1
002065: 15,3366           01045                                    DSPTEM1
002066: 15,3367           33374                                    P57C
002067: 15,3370           45545                           DLOAD    STADR                                 #  IF KEYIN TIME GREATER THAN CURRENT TIME
002068: 15,3371           74335                           STORE    TIG                                   #  STORE IT IN TIG
002069: 15,3372           36775                           STCALL   TALIGN
002070: 15,3373           33376                                    P57D
002071: 15,3374           45545        P57C               DLOAD    STADR
002072: 15,3375           75002                           STORE    TALIGN
002073: 15,3376           34041        P57D               STCALL   TDEC1
002074: 15,3377           27056                                    LEMPREC                               #  COMPUTE DESIRED IMU ORIENTATION STORE
002075: 15,3400           53575                           VLOAD    UNIT                                  #  IN  X,Y,ZSMD
002076: 15,3401           00001                                    RATT
002077: 15,3402           37607                           STCALL   XSMD
002078: 15,3403           10765                                    LSORIENT
002079: 15,3404           77776                           EXIT
002080: 15,3405           34755        PACKOPTN           CAF      ZERO                                  #  PACK FLAG BITS FOR OPTION DISPLAY
002081: 15,3406           55144                           TS       OPTION1    +1                         #  JAM ZERO IN ALIGNMENT OPTION
002082: 15,3407           55145                           TS       OPTION1    +2                         #  INITIALIZE FLAG BIT CONFIGURATION
002083: 15,3410           34737                           CAF      REFSMBIT
002084: 15,3411           70077                           MASK     FLAGWRD3                              #  REFSMFLG
002085: 15,3412           10000                           CCS      A
002086: 15,3413           34745                           CAF      BIT7                                  #  SET
002087: 15,3414           27145                           ADS      OPTION1    +2                         #  CLEAR-JUST ZERO
002088: 15,3415           34753                           CAF      ATTFLBIT
002089: 15,3416           70102                           MASK     FLAGWRD6                              #  ATTFLG
002090: 15,3417           10000                           CCS      A
002091: 15,3420           34750                           CAF      BIT4                                  #  SET
002092: 15,3421           27145                           ADS      OPTION1    +2                         #  CLEAR-ZERO IN A
002093: 15,3422           34750                           CAF      BIT4
002094: 15,3423           55143                           TS       OPTION1                               #  JAM 00010 IN OPTION1 FOR CHECK LIST
002095:
002096: 15,3424           33645        DSPOPTN            CAF      VB05N06                               #  DISPLAY OPTION CODE AND FLAG BITS
002097: 15,3425           04616                           TC       BANKCALL
002098: 15,3426           20477                           CADR     GOFLASH
002099: 15,3427           16001                           TCF      GOTOPOOH                              #  VB34-TERMINATE
002100: 15,3430           13432                           TCF      +2                                    #  V33-PROCEED
002101: 15,3431           13424                           TCF      DSPOPTN                               #  V32-RECYCLE
002102:
002103: 15,3432           34737                           CAF      REFSMBIT
002104: 15,3433           70077                           MASK     FLAGWRD3
002105: 15,3434           10000                           CCS      A
002106: 15,3435           13535                           TCF      GETLMATT                              #  SET, GO COMPUTE LM ATTITUDE
002107: 15,3436           34753                           CAF      ATTFLBIT                              #  CLEAR-CHECK ATTFLAG FOR STORED ATTITUDE.
002108: 15,3437           70102                           MASK     FLAGWRD6
002109: 15,3440           10000                           CCS      A
002110: 15,3441           13541                           TCF      BYLMATT                               #  ALLFLG SET, CHK OPTION FOR GRAVITY COMP
002111: 15,3442           34752                           CAF      BIT2                                  #  SEE IF OPTION 2 OR 3


002113: 15,3443           71144                           MASK     OPTION2
002114: 15,3444           10000                           CCS      A
002115: 15,3445           13541                           TCF      BYLMATT                               #  OPTION 2 OR 3 BUT DONT HAVE ATTITUDE
002116: 15,3446           05600                           TC       ALARM                                 #  OPTION INCONSISTANT WITH FLAGS-ALARM 701
002117: 15,3447           00701                           OCT      701
002118: 15,3450           35006                           CAF      VB05N09                               #  DISPLAY ALARM FOR ACTION
002119: 15,3451           04616                           TC       BANKCALL
002120: 15,3452           20477                           CADR     GOFLASH
002121: 15,3453           16001                           TCF      GOTOPOOH                              #  VB34-TERMINATE
002122: 15,3454           13424                           TCF      DSPOPTN                               #  V33-PROCEED   ********TEMPORARY
002123: 15,3455           13424                           TCF      DSPOPTN                               #  VB32-RECYCLE TO OPTION DISPLAY V 05N06
002124:


002126:                                                                                                  #  TRANSFORM VEC1,2 FROM MOON FIXED TO REF AND JAM BACK IN VEC1,2
002127:
002128: 15,3456           40220        MFREF              STQ      SETPD
002129: 15,3457           02746                                    QMAJ
002130: 15,3460           00001                                    0
002131: 15,3461           77634                           RTB
002132: 15,3462           21574                                    LOADTIME
002133: 15,3463           27562                           STOVL    TSIGHT
002134: 15,3464           03246                                    VEC1
002135: 15,3465           41525                           PDDL     PUSH
002136: 15,3466           03562                                    TSIGHT
002137: 15,3467           77624                           CALL
002138: 15,3470           55720                                    RP-TO-R
002139: 15,3471           27246                           STOVL    VEC1
002140: 15,3472           03254                                    VEC2
002141: 15,3473           65201                           SETPD    PDDL
002142: 15,3474           00001                                    0
002143: 15,3475           03562                                    TSIGHT
002144: 15,3476           45006                           PUSH     CALL
002145: 15,3477           55720                                    RP-TO-R
002146: 15,3500           37254                           STCALL   VEC2
002147: 15,3501           02746                                    QMAJ
002148:


002150:                                                                                                  #  COMPUTE LM ATTITUDE IN MOON FIXED COORDINATES USING REFSMMAT AND
002151:                                                                                                  #  STORE IN YNBSAV AND ZNBSAV
002152:
002153: 15,3502           45020        REFMF              STQ      CALL
002154: 15,3503           02746                                    QMAJ
002155: 15,3504           47505                                    CDUTRIG                               #  GET SIN AND COS OF CDUS
002156: 15,3505           40234                           RTB      SETPD
002157: 15,3506           21574                                    LOADTIME
002158: 15,3507           00001                                    0
002159: 15,3510           37562                           STCALL   TSIGHT
002160: 15,3511           20030                                    CALCSMSC                              #  GET YNB IN SM
002161: 15,3512           61375                           VLOAD    VXM
002162: 15,3513           02673                                    YNB
002163: 15,3514           01732                                    REFSMMAT                              #   YNB TO REF
002164: 15,3515           65256                           UNIT     PDDL
002165: 15,3516           03562                                    TSIGHT
002166: 15,3517           45006                           PUSH     CALL
002167: 15,3520           51642                                    R-TO-RP
002168: 15,3521           26237                           STOVL    YNBSAV                                #  YNB TO MF
002169: 15,3522           02701                                    ZNB
002170: 15,3523           53505                           VXM      UNIT
002171: 15,3524           01732                                    REFSMMAT                              #  ZNB TO REF
002172: 15,3525           41525                           PDDL     PUSH
002173: 15,3526           03562                                    TSIGHT
002174: 15,3527           77624                           CALL
002175: 15,3530           51642                                    R-TO-RP                               #  ZNB TO MF
002176: 15,3531           02245                           STORE    ZNBSAV
002177: 15,3532           77614                           SETGO
002178: 15,3533           03036                                    ATTFLAG
002179: 15,3534           02746                                    QMAJ
002180:


002182:                                                                                                  #  BRANCH TO ALIGNMENT OPTION
002183:
002184: 15,3535           06042        GETLMATT           TC       INTPRET
002185: 15,3536           77624                           CALL
002186: 15,3537           33502                                    REFMF                                 #  GO TRANSFORM TO MF IN YNBSAV,ZNBSAV
002187: 15,3540           77776                           EXIT
002188:
002189: 15,3541           05515        BYLMATT            TC       UPFLAG                                #  SET INITIAL ALIGN FLAG
002190: 15,3542           00205                           ADRES    INITALGN
002191: 15,3543           34753                           CAF      BIT1
002192: 15,3544           71144                           MASK     OPTION2                               #  SEE IF OPTION 1 OR 3
002193: 15,3545           10000                           CCS      A
002194: 15,3546           12572                           TCF      GVDETER                               #  OPTION 1 OR 2, GET GRAVITY
002195:
002196: 15,3547           05364        ATTCHK             TC       PHASCHNG
002197: 15,3550           04024                           OCT      04024
002198:
002199: 15,3551           34753                           CAF      ATTFLBIT                              #  NOT 1 OR 3, CHECK ATTFLAG
002200: 15,3552           70102                           MASK     FLAGWRD6
002201: 15,3553           10000                           CCS      A
002202: 15,3554           13571                           TCF      P57OPT0                               #  GET ALIGNMENT VECS FOR OPTION 0
002203: 15,3555           05364        P57JUMP            TC       PHASCHNG
002204: 15,3556           04024                           OCT      04024
002205:
002206: 15,3557           05527                           TC       DOWNFLAG                              #  ATTFLG CLEAR-RESET INTALIGN FLAG
002207: 15,3560           00205                           ADRES    INITALGN
002208: 15,3561           36250                           CAF      THREE
002209: 15,3562           71144                           MASK     OPTION2                               #  BRANCH ON OPTION CODE
002210: 15,3563           50000                           INDEX    A
002211: 15,3564           13565                           TCF      +1
002212: 15,3565           13571                           TCF      P57OPT0                               #  OPTION IS 0
002213: 15,3566           13612                           TCF      P57OPT1                               #  OPTION IS 1
002214: 15,3567           13630                           TCF      P57OPT2                               #  OPTION IS 2
002215: 15,3570           13631                           TCF      P57OPT3                               #  OPTION IS 3
002216:


002218:                                                                                                  #  OPTION 0, GET TWO ATTITUDE VECS
002219:
002220: 15,3571           06042        P57OPT0            TC       INTPRET
002221: 15,3572           77775                           VLOAD
002222: 15,3573           02237                                    YNBSAV                                #  Y AND Z ATTITUDE WILL BE PUT IN REF
002223: 15,3574           27246                           STOVL    VEC1
002224: 15,3575           02245                                    ZNBSAV
002225: 15,3576           37254                           STCALL   VEC2
002226: 15,3577           47505                                    CDUTRIG
002227: 15,3600           77624                           CALL
002228: 15,3601           20030                                    CALCSMSC                              #  COMPUTE SC AXIS WRT PRESENT SM
002229: 15,3602           77775                           VLOAD
002230: 15,3603           02673                                    YNB
002231: 15,3604           26761        SAMETYP            STOVL    STARSAV1                              #  Y SC AXIS WRT PRESENT SM
002232: 15,3605           02701                                    ZNB
002233: 15,3606           36767                           STCALL   STARSAV2                              #  Z SC AXIS WRT PRESENT SM
002234: 15,3607           33456                                    MFREF                                 #  TRANSFORM VEC1,2 FROM MF TO REF
002235: 15,3610           77650                           GOTO
002236: 15,3611           33075                                    SURFLINE
002237:
002238:                                                                                                  #  OPTION 1, GET LANDING SITE AND Z-ATTITUDE VEC
002239:
002240: 15,3612           06042        P57OPT1            TC       INTPRET
002241: 15,3613           53575                           VLOAD    UNIT
002242: 15,3614           02021                                    RLS                                   #  LANDING SITE VEC
002243: 15,3615           27246                           STOVL    VEC1
002244: 15,3616           02245                                    ZNBSAV                                #  Z ATTITUDE VEC
002245: 15,3617           37254                           STCALL   VEC2
002246: 15,3620           47505                                    CDUTRIG
002247: 15,3621           77624                           CALL
002248: 15,3622           20030                                    CALCSMSC                              #  GET ZNB AXIS WRT PRES SM FOR STARSAV2
002249: 15,3623           45175                           VLOAD    CALL
002250: 15,3624           02231                                    GSAV                                  #  TRANS GSAV FROM NB TO SM FOR STARSAV1
002251: 15,3625           47636                                    CDU*NBSM
002252: 15,3626           77650                           GOTO
002253: 15,3627           33604                                    SAMETYP                               #  NOW DO SAME AS OPTION 0
002254:


002256:                                                                                                  #  OPTION 2, GET TWO STAR SIGHTINGS
002257:
002258: 15,3630           13041        P57OPT2            TCF      2STARS                                #  DO SIGHTING ON 2 STARS
002259:
002260:                                                                                                  #  OPTION 3, GET LANDING SITE VEC AND ONE STAR SIGHTING
002261:
002262: 15,3631           06042        P57OPT3            TC       INTPRET
002263: 15,3632           53575                           VLOAD    UNIT
002264: 15,3633           02021                                    RLS                                   #  LANDING SITE VEC
002265: 15,3634           03246                           STORE    VEC1
002266: 15,3635           27254                           STOVL    VEC2                                  #  DUMMY VEC2 FOR 2ND CATALOG STAR
002267: 15,3636           02231                                    GSAV                                  #  GRAVITY VEC NB
002268: 15,3637           77624                           CALL
002269: 15,3640           47636                                    CDU*NBSM                              #  TRANS GSAV FROM NB TO SM FOR STARSAV1
002270: 15,3641           36761                           STCALL   STARSAV1
002271: 15,3642           33456                                    MFREF                                 #  STARSAV2 IS STORED AS 2ND OBSERVED STAR
002272: 15,3643           77776                           EXIT
002273: 15,3644           13043                           TCF      1STAR                                 #  1STAR GET VEC2,STARSAV2,GOES TO SURFLINE
002274:
002275: 15,3645           01206        VB05N06            VN       506
002276:


002278:                                                                                                  #  CHECK IMODES30 TO VARIFY IMU IS ON
002279:
002280: 15,3646           41277        IMUCHK             CS       IMODES30
002281: 15,3647           74743                           MASK     BIT9
002282: 15,3650           10000                           CCS      A                                     #  IS IMU ON
002283: 15,3651           13655                           TCF      +4                                    #  YES
002284:
002285: 15,3652           05600                           TC       ALARM                                 #  NO, SEND ALARM AND EXIT
002286: 15,3653           00210                           OCT      210
002287: 15,3654           06001                           TC       GOTOPOOH
002288:
002289: 15,3655           05515                           TC       UPFLAG
002290: 15,3656           00007                           ADRES    IMUSE                                 #  SET IMUSE FLAG
002291:
002292: 15,3657           04631                           TC       SWRETURN
002293:
002294: 04,2765                                           BANK     04
002295: 04,2000                                           SETLOC   AOTMARK2
002296: 04,2000                                           BANK
002297: 04,2765                                           COUNT*   $$/P57
002298:
002299: 04,2765           77220        LSORIENT           STQ      VLOAD
002300: 04,2766           02746                                    QMAJ
002301: 04,2767           01555                                    RRECTCSM
002302: 04,2770           47235                           VXV      VXV
002303: 04,2771           01563                                    VRECTCSM
002304: 04,2772           03607                                    XSMD
002305: 04,2773           77656                           UNIT
002306: 04,2774           03623                           STORE    ZSMD
002307: 04,2775           53435                           VXV      UNIT
002308: 04,2776           03607                                    XSMD
002309: 04,2777           37615                           STCALL   YSMD
002310: 04,3000           02746                                    QMAJ

End of include-file P51-P53.agc.  Parent file is MAIN.agc


