
Source Code


000002:                                                                                                  ## Copyright:   Public domain.
000003:                                                                                                  ## Filename:    PINBALL_GAME__BUTTONS_AND_LIGHTS.agc
000004:                                                                                                  ## Purpose:     A section of Luminary revision 178.
000005:                                                                                                  ##              It is part of the reconstructed source code for the final
000006:                                                                                                  ##              release of the flight software for the Lunar Module's
000007:                                                                                                  ##              (LM) Apollo Guidance Computer (AGC) for Apollo 14. The
000008:                                                                                                  ##              code has been recreated from copies of Zerlina 56, Luminary
000009:                                                                                                  ##              210, and Luminary 131, as well as many Luminary memos.
000010:                                                                                                  ##              It has been adapted such that the resulting bugger words
000011:                                                                                                  ##              exactly match those specified for Luminary 178 in NASA
000012:                                                                                                  ##              drawing 2021152N, which gives relatively high confidence
000013:                                                                                                  ##              that the reconstruction is correct.
000014:                                                                                                  ## Reference:   pp. 395-479
000015:                                                                                                  ## Assembler:   yaYUL
000016:                                                                                                  ## Contact:     Ron Burkey <info@sandroid.org>.
000017:                                                                                                  ## Website:     www.ibiblio.org/apollo/index.html
000018:                                                                                                  ## Mod history: 2019-08-14 MAS  Created from Zerlina 56.
000019:                                                                                                  ##              2019-09-04 MAS  Updated for Luminary 178. Removed scaling
000020:                                                                                                  ##                              of RR range data, as well as Zerlina-
000021:                                                                                                  ##                              specific modification of 2INTOUT and
000022:                                                                                                  ##                              commenting out of DSPDECNR.
000023:


000025:                                                                                                  #  PROGRAM NAME - KEYBOARD AND DISPLAY PROGRAM
000026:                                                                                                  #  MOD NO - 4      DATE - 27 APRIL 1967      ASSEMBLY - PINDANCE REV 18
000027:                                                                                                  #  MOD BY - FILENE
000028:                                                                                                  #  LOG SECTION - PINBALL GAME BUTTONS AND LIGHTS
000029:
000030:                                                                                                  #  FUNCTIONAL DESCRIPTION-
000031:
000032:                                                                                                  #     THE KEYBOARD AND DISPLAY SYSTEM PROGRAM OPERATES UNDER EXECUTIVE
000033:                                                                                                  #  CONTROL AND PROCESSES INFORMATION EXCHANGED BETWEEN THE AGC AND THE
000034:                                                                                                  #  COMPUTER OPERATOR.  THE INPUTS TO THE PROGRAM ARE FROM THE KEYBOARD,
000035:                                                                                                  #  FROM INTERNAL PROGRAMS, AND FROM THE UPLINK.
000036:                                                                                                  #     THE LANGUAGE OF COMMUNICATION WITH THE PROGRAM IS A PAIR OF WORDS
000037:                                                                                                  #  KNOWN AS VERB AND NOUN.  EACH OF THESE IS REPRESENTED BY A 2 CHARACTER
000038:                                                                                                  #  DECIMAL NUMBER.  THE VERB CODE INDICATES WHAT ACTION IS TO BE TAKEN, THE
000039:                                                                                                  #  NOUN CODE INDICATES TO WHAT THIS ACTION IS APPLIED.  NOUNS USUALLY
000040:                                                                                                  #  REFER TO A GROUP OF ERASABLE REGISTERS.
000041:
000042:                                                                                                  #  VERBS ARE GROUPED INTO DISPLAYS, LOADS, MONITORS (DISPLAYS THAT ARE
000043:                                                                                                  #  UPDATED ONCE PER SECOND), SPECIAL FUNCTIONS, AND EXTENDED VERBS(THESE
000044:                                                                                                  #  ARE OUTSIDE OF THE DOMAIN OF PINBALL AND CAN BE FOUND UNDER LOG SECTION
000045:                                                                                                  #  :EXTENDED VERBS:).
000046:                                                                                                  #  A LIST OF VERBS AND NOUNS IS GIVEN IN LOG SECTION :ASSEMBLY AND
000047:                                                                                                  #  OPERATION INFORMATION:.
000048:
000049:
000050:                                                                                                  #  CALLING SEQUENCES-
000051:
000052:                                                                                                  #  KEYBOARD:
000053:                                                                                                  #     EACH DEPRESSION OF A KEYBOARD BUTTON ACTIVATES INTERRUPT KEYRUPT1
000054:                                                                                                  #  AND PLACES THE 5 BIT KEY CODE INTO CHANNEL 15.  KEYRUPT1 PLACES THE KEY
000055:                                                                                                  #  CODE INTO MPAC, ENTERS AN EXECUTIVE REQUEST FOR THE KEYBOARD AND DISPLAY
000056:                                                                                                  #  PROGRAM (AT :CHARIN:), AND EXECUTES A RESUME.
000057:
000058:                                                                                                  #  UPLINK:
000059:                                                                                                  #     EACH WORD RECEIVED BY THE UPLINK ACTIVATES INTERRUPT UPRUPT WHICH
000060:                                                                                                  #  PLACES THE 5 BIT KEY CODE INTO MPAC, ENTERS AN EXECUTIVE REQUEST FOR THE
000061:                                                                                                  #  KEYBOARD AND DISPLAY PROGRAM (AT:CHARIN:) AND EXECUTES A RESUME.
000062:
000063:                                                                                                  #  INTERNAL PROGRAMS:
000064:                                                                                                  #     INTERNAL PROGRAMS CALL PINBALL AT :NVSUB: WITH THE DESIRED VERB/NOUN
000065:                                                                                                  #  CODE IN A (LOW 7 BITS FOR NOUN, NEXT 7 BITS FOR VERB).  DETAILS
000066:                                                                                                  #  DESCRIBED ON REMARKS CARDS JUST BEFORE :NVSUB: AND :NVSBWAIT: (SEE
000067:                                                                                                  #  SYMBOL TABLE FOR PAGE NUMBERS).
000068:
000069:
000070:                                                                                                  #  NORMAL EXIT MODES-
000071:
000072:                                                                                                  #     IF PINBALL WAS CALLED BY EXTERNAL ACTION, THERE ARE FOUR EXITS:
000073:                                                                                                  #           1) ALL BUT (2), (3), AND (4) EXIT DIRECTLY TO ENDOFJOB.
000074:                                                                                                  #           2) EXTENDED VERBS GO TO THE EXTENDED VERB FAN AS PART OF THE


000076:                                                                                                  #              PINBALL EXECUTIVE JOB WITH PRIORITY 30000.  IT IS THE
000077:                                                                                                  #              RESPONSIBILITY OF THE EXTENDED VERB CALLED TO EVENTUALLY
000078:                                                                                                  #              CHANGE PRIORITY (IF NECESSARY) AND DO AN ENDOFJOB.
000079:                                                                                                  #              ALSO PINBALL IS A NOVAC JOB. EBANK SET FOR COMMON.
000080:                                                                                                  #           3) VERB 37. CHANGE OF PROGRAM (MAJOR MODE) CALLS :V37: IN THE
000081:                                                                                                  #              SERVICE ROUTINES AS PART OF THE PINBALL EXEC JOB WITH PRIO
000082:                                                                                                  #              30000.  THE NEW PROGRAM CODE (MAJOR MODE) IS LEFT IN A.
000083:                                                                                                  #           4) KEY RELEASE BUTTON CALLS :PINBRNCH: IN THE DISPLAY INTERFACE
000084:                                                                                                  #              ROUTINES AS PART OF THE PINBALL EXEC JOB WITH PRIO 30000 IF
000085:                                                                                                  #              THE KEY RELEASE LIGHT IS OFF AND :CADRSTOR: IS NOT +0.
000086:
000087:                                                                                                  #     IF PINBALL WAS CALLED BY INTERNAL PROGRAMS, EXIT FROM PINBALL IS BACK
000088:                                                                                                  #  TO CALLING ROUTINE.  DETAILS DESCRIBED IN REMARKS CARDS JUST BEFORE
000089:                                                                                                  #  :NVSUB: AND :NVSBWAIT: (SEE SYMBOL TABLE FOR PAGE NUMBERS).
000090:
000091:
000092:                                                                                                  #  ALARM OR ABORT EXIT MODES-
000093:
000094:                                                                                                  #  EXTERNAL INITIATION:
000095:                                                                                                  #     IF SOME IMPROPER SEQUENCE OF KEY CODES IS DETECTED, THE OPERATOR
000096:                                                                                                  #  ERROR LIGHT IS TURNED ON AND EXIT IS TO :ENDOFJOB:.
000097:
000098:                                                                                                  #  INTERNAL PROGRAM INITIATION:
000099:                                                                                                  #     IF AN ILLEGAL V/N COMBINATION IS ATTEMPTED, AN ABORT IS CAUSED
000100:                                                                                                  #  (WITH OCTAL 01501).
000101:                                                                                                  #     IF A SECOND ATTEMPT IS MADE TO GO TO SLEEP IN PINBALL, AN ABORT IS
000102:                                                                                                  #  CAUSED (WITH OCTAL 01206). THERE ARE TWO WAYS TO GO TO SLEEP IN PINBALL:
000103:                                                                                                  #           1) ENDIDLE OR DATAWAIT.
000104:                                                                                                  #           2) NVSBWAIT, PRENVBSY, OR NVSUBUSY.
000105:
000106:                                                                                                  #  CONDITIONS LEADING TO THE ABOVE ARE DESCRIBED IN FORTHCOMING MIT/IL
000107:                                                                                                  #  E-REPORT DESCRIBING KEYBOARD AND DISPLAY OPERATION FOR 278.
000108:
000109:
000110:                                                                                                  #  OUTPUT-
000111:
000112:                                                                                                  #     INFORMATION TO BE SENT TO THE DISPLAY PANEL IS LEFT IN THE :DSPTAB:
000113:                                                                                                  #  BUFFERS REGISTERS (UNDER EXEC CONTROL).  :DSPOUT: (A PART OF T4RUPT)
000114:                                                                                                  #  HANDLES THE PLACING OF THE :DSPTAB: INFORMATION INTO OUTPUT CHANNEL 10
000115:                                                                                                  #  IN INTERRUPT.
000116:
000117:
000118:                                                                                                  #  ERASABLE INITIALIZATION-
000119:
000120:                                                                                                  #     FRESH START AND RESTART INITIALIZE THE NECESSARY E REGISTERS FOR
000121:                                                                                                  #  PINBALL IN :STARTSUB:.   REGISTERS ARE:  DSPTAB BUFFER, CADRSTOR,
000122:                                                                                                  #  REQRET, CLPASS, DSPLOCK, MONSAVE, MONSAVE1, VERBREG, NOUNREG, DSPLIST,
000123:                                                                                                  #  DSPCOUNT, NOUT.
000124:
000125:                                                                                                  #  A COMPLETE LIST OF ALL THE ERASABLES (BOTH RESERVED AND TEMPORARIES) FOR


000127:                                                                                                  #  PINBALL IS GIVEN BELOW.
000128:
000129:
000130:                                                                                                  #  THE FOLLOWING ARE OF GENERAL INTEREST-
000131:
000132:                                                                                                  #     REMARKS CARDS PRECEDE THE REFERENCED SYMBOL DEFINITION.  SEE SYMBOL
000133:                                                                                                  #  TABLE TO FIND APPROPRIATE PAGE NUMBERS.
000134:
000135:                                                                                                  #     NVSUB   CALLING POINT FOR INTERNAL USE OF PINBALL.
000136:                                                                                                  #               OF RELATED INTEREST   NVSBWAIT
000137:                                                                                                  #                                     NVSUBUSY
000138:                                                                                                  #                                     PRENVBSY
000139:
000140:                                                                                                  #     ENDIDLE   ROUTINE FOR INTERNAL PROGRAMS WISHING TO GO TO SLEEP WHILE
000141:                                                                                                  #               AWAITING OPERATORS RESPONSE.
000142:
000143:                                                                                                  #     DSPMM   ROUTINE BY WHICH AN INTERNAL PROGRAM MAY DISPLAY A DECIMAL
000144:                                                                                                  #             PROGRAM CODE (MAJOR MODE) IN THE PROGRAM (MAJOR MODE) LIGHTS.
000145:                                                                                                  #             (DSPMM DOES NOT DISPLAY DIRECTLY BUT ENTERS EXEC REQUEST
000146:                                                                                                  #             FOR DSPMMJB WITH PRIO 30000 AND RETURNS TO CALLER.)
000147:
000148:                                                                                                  #     BLANKSUB   ROUTINE BY WHICH AN INTERNAL PROGRAM MAY BLANK ANY
000149:                                                                                                  #                COMBINATION OF THE DISPLAY REGISTERS R1, R2, R3.
000150:
000151:                                                                                                  #     JAMTERM   ROUTINES BY WHICH AN INTERNAL PROGRAM MAY PERFORM THE
000152:                                                                                                  #     JAMPROC   TERMINATE (V 34) OR PROCEED (V 33) FUNCTION.
000153:
000154:                                                                                                  #     MONITOR   VERBS FOR PERIODIC ( 1 PER SEC) DISPLAY.
000155:
000156:                                                                                                  #     PLEASE PERFORM, PLEASE MARK SITUATIONS
000157:                                                                                                  #                  REMARKS DESCRIBING HOW AN INTERNAL ROUTINE SHOULD HANDLE
000158:                                                                                                  #                  THESE SITUATIONS CAN BE FOUND JUST BEFORE :NVSUB: (SEE
000159:                                                                                                  #                  SYMBOL TABLE FOR PAGE NUMBER).
000160:
000161:                                                                                                  #     THE NOUN TABLE FORMAT IS DESCRIBED ON A PAGE OF REMARKS CARDS JUST
000162:                                                                                                  #     BEFORE :DSPABC: (SEE SYMBOL TABLE FOR PAGE NUMBER).
000163:
000164:                                                                                                  #     THE NOUN TABLES THEMSELVES ARE FOUND IN LOG SECTION :PINBALL NOUN
000165:                                                                                                  #     TABLES:.
000166:
000167:
000168:                                                                                                  #  FOR FURTHER DETAILS ABOUT OPERATION OF THE KEYBOARD AND DISPLAY SYSTEM
000169:                                                                                                  #  PROGRAM, SEE THE MISSION PLAN AND/OR MIT/IL E-2129
000170:                                                                                                  #  DESCRIBING KEYBOARD AND DISPLAY OPERATION FOR 278.


000173:
000174:
000175:                                                                                                  #  THE FOLLOWING QUOTATION IS PROVIDED THROUGH THE COURTESY OF THE AUTHORS.
000176:
000177:                                                                                                  #        ::IT WILL BE PROVED TO THY FACE THAT THOU HAST MEN ABOUT THEE THAT
000178:                                                                                                  #  USUALLY TALK OF A NOUN AND A VERB, AND SUCH ABOMINABLE WORDS AS NO


000180:                                                                                                  #  CHRISTIAN EAR CAN ENDURE TO HEAR.::
000181:
000182:                                                                                                  #                       HENRY 6, ACT 2, SCENE 4
000183:
000184:
000185:                                                                                                  #  THE FOLLOWING ASSIGNMENTS FOR PINBALL ARE MADE ELSEWHERE
000186:
000187:
000188:                                                                                                  #  RESERVED FOR PINBALL EXECUTIVE ACTION
000189:
000190:                                                                                                  #  DSPCOUNT ERASE                  DISPLAY POSITION INDICATOR
000191:                                                                                                  #  DECBRNCH ERASE                  +DEC, - DEC, OCT INDICATOR
000192:                                                                                                  #  VERBREG  ERASE                  VERB CODE
000193:                                                                                                  #  NOUNREG  ERASE                  NOUN CODE
000194:                                                                                                  #  XREG     ERASE                  R1 INPUT BUFFER
000195:                                                                                                  #  YREG     ERASE                  R2 INPUT BUFFER
000196:                                                                                                  #  ZREG     ERASE                  R3 INPUT BUFFER
000197:                                                                                                  #  XREGLP   ERASE                  LO PART OF XREG (FOR DEC CONV ONLY)
000198:                                                                                                  #  YREGLP   ERASE                  LO PART OF YREG (FOR DEC CONV ONLY)
000199:                                                                                                  #  HITEMOUT =      YREGLP          TEMP FOR DISPLAY OF HRS, MIN, SEC
000200:                                                                                                  #                                           MUST = LOTEMOUT-1.
000201:                                                                                                  #  ZREGLP   ERASE                  LO PART OF ZREG (FOR DEC CONV ONLY)
000202:                                                                                                  #  LOTEMOUT =      ZREGLP          TEMP FOR DISPLAY OF HRS, MIN, SEC
000203:                                                                                                  #                                           MUST = HITEMOUT+1.
000204:                                                                                                  #  MODREG   ERASE                  MODE CODE
000205:                                                                                                  #  DSPLOCK  ERASE                  KEYBOARD/SUBROUTINE CALL INTERLOCK
000206:                                                                                                  #  REQRET   ERASE                  RETURN REGISTER FOR LOAD
000207:                                                                                                  #  LOADSTAT ERASE                  STATUS INDICATOR FOR LOADTST
000208:                                                                                                  #  CLPASS   ERASE                  PASS INDICATOR CLEAR
000209:                                                                                                  #  NOUT     ERASE                  ACTIVITY COUNTER FOR DSPTAB
000210:                                                                                                  #  NOUNCADR ERASE                  MACHINE CADR FOR NOUN
000211:                                                                                                  #  MONSAVE  ERASE                  N/V CODE FOR MONITOR. (= MONSAVE1-1)
000212:                                                                                                  #  MONSAVE1 ERASE                  NOUNCADR FOR MONITOR(MATBS) =MONSAVE +1
000213:                                                                                                  #  MONSAVE2 ERASE                  NVMONOPT OPTIONS
000214:                                                                                                  #  DSPTAB   ERASE          +13D    0-10,DISPLAY PANEL BUFFER.11-13,C RELAYS
000215:                                                                                                  #  CADRSTOR ERASE                  ENDIDLE STORAGE
000216:                                                                                                  #  NVQTEM   ERASE                  NVSUB STORAGE FOR CALLING ADDRESS
000217:                                                                                                  #                                  MUST = NVBNKTEM-1
000218:                                                                                                  #  NVBNKTEM ERASE                  NVSUB STORAGE FOR CALLING BANK
000219:                                                                                                  #                                  MUST = NVQTEM+1
000220:                                                                                                  #  VERBSAVE ERASE                  NEEDED FOR RECYCLE
000221:                                                                                                  #  DSPLIST  ERASE                  WAITING REG FOR DSP SYST INTERNAL USE
000222:                                                                                                  #  EXTVBACT REASE                  EXTENDED VERB ACTIVITY INTERLOCK
000223:                                                                                                  #  DSPTEM1  ERASE          +2      BUFFER STORAGE AREA 1 (MOSTLY FOR TIME)
000224:                                                                                                  #  DSPTEM2  ERASE          +2      BUFFER STORAGE AREA 2 (MOSTLY FOR DEG)
000225:                                                                                                  #  END OF ERASABLES RESERVED FOR PINBALL EXECUTIVE ACTION
000226:
000227:
000228:                                                                                                  #  TEMPORARIES FOR PINBALL EXECUTIVE ACTION


000230:                                                                                                  #  DSEXIT   =      INTB15+         RETURN FOR DSPIN
000231:                                                                                                  #  EXITEM   =      INTB15+         RETURN FOR SCALE FACTOR ROUTINE SELECT
000232:                                                                                                  #  BLANKRET =      INTB15+         RETURN FOR 2BLANK
000233:
000234:                                                                                                  #  WRDRET   =      INTBIT15        RETURN FOR 5BLANK
000235:                                                                                                  #  WDRET    =      INTBIT15        RETURN FOR DSPWD
000236:                                                                                                  #  DECRET   =      INTBIT15        RETURN FOR PUTCOM(DEC LOAD)
000237:                                                                                                  #  21/22REG =      INTBIT15        TEMP FOR CHARIN
000238:
000239:                                                                                                  #  UPDATRET =      POLISH          RETURN FOR UPDATNN, UPDATVB
000240:                                                                                                  #  CHAR     =      POLISH          TEMP FOR CHARIN
000241:                                                                                                  #  ERCNT    =      POLISH          COUNTER FOR ERROR LIGHT RESET
000242:                                                                                                  #  DECOUNT  =      POLISH          COUNTER FOR SCALING AND DISPLAY (DEC)
000243:
000244:                                                                                                  #  SGNON    =      VBUF            TEMP FOR +,- ON
000245:                                                                                                  #  NOUNTEM  =      VBUF            COUNTER FOR MIXNOUN FETCH
000246:                                                                                                  #  DISTEM   =      VBUF            COUNTER FOR OCTAL DISPLAY VERBS
000247:                                                                                                  #  DECTEM   =      VBUF            COUNTER FOR FETCH (DEC DISPLAY VERBS)
000248:
000249:                                                                                                  #  SGNOFF   =      VBUF    +1      TEMP FOR +,- ON
000250:                                                                                                  #  NVTEMP   =      VBUF    +1      TEMP FOR NVSUB
000251:                                                                                                  #  SFTEMP1  =      VBUF    +1      STORAGE FOR SF CONST HI PART(=SFTEMP2-1)
000252:                                                                                                  #  HITEMIN  =      VBUF    +1      TEMP FOR LOAD OF HRS, MIN, SEC
000253:                                                                                                  #                                           MUST = LOTEMIN-1.
000254:                                                                                                  #  CODE     =      VBUF    +2      FOR DSPIN
000255:                                                                                                  #  SFTEMP2  =      VBUF    +2      STORAGE FOR SF CONST LO PART(=SFTEMP1+1)
000256:                                                                                                  #  LOTEMIN  =      VBUF    +2      TEMP FOR LOAD OF HRS, MIN, SEC
000257:                                                                                                  #                                           MUST = HITEMIN+1.
000258:                                                                                                  #  MIXTEMP  =      VBUF    +3      FOR MIXNOUN DATA
000259:                                                                                                  #  SIGNRET  =      VBUF    +3      RETURN FOR +,- ON
000260:
000261:                                                                                                  #  ALSO MIXTEMP+1 = VBUF+4, MIXTEMP+2 = VBUF+5.
000262:
000263:                                                                                                  #  ENTRET   =      DOTINC          EXIT FROM ENTER
000264:
000265:                                                                                                  #  WDCNT    =      DOTRET          CHAR COUNTER FOR DSPWD
000266:                                                                                                  #  INREL    =      DOTRET          INPUT BUFFER SELECTOR ( X,Y,Z, REG )
000267:
000268:                                                                                                  #  DSPMMTEM =      MATINC          DSPCOUNT SAVE FOR DSPMM
000269:                                                                                                  #  MIXBR    =      MATINC          INDICATOR FOR MIXED OR NORMAL NOUN
000270:
000271:                                                                                                  #  TEM1     ERASE                  EXEC TEMP
000272:                                                                                                  #  DSREL    =      TEM1            REL ADDRESS FOR DSPIN
000273:
000274:                                                                                                  #  TEM2     ERASE                  EXEC TEMP
000275:                                                                                                  #  DSMAG    =      TEM2            MAGNITUDE STORE FOR DSPIN
000276:                                                                                                  #  IDADDTEM =      TEM2            MIXNOUN INDIRECT ADDRESS STORAGE
000277:
000278:                                                                                                  #  TEM3     ERASE                  EXEC TEMP
000279:                                                                                                  #  COUNT    =      TEM3            FOR DSPIN
000280:


000282:                                                                                                  #  TEM4     ERASE                  EXEC TEMP
000283:                                                                                                  #  LSTPTR   =      TEM4            LIST POINTER FOR GRABUSY
000284:                                                                                                  #  RELRET   =      TEM4            RETURN FOR RELDSP
000285:                                                                                                  #  FREERET  =      TEM4            RETURN FOR FREEDSP
000286:                                                                                                  #  DSPWDRET =      TEM4            RETURN FOR DSPSIGN
000287:                                                                                                  #  SEPSCRET =      TEM4            RETURN FOR SEPSEC
000288:                                                                                                  #  SEPMNRET =      TEM4            RETURN FOR SEPMIN
000289:
000290:                                                                                                  #  TEM5     ERASE                  EXEC TEMP
000291:                                                                                                  #  NOUNADD  =      TEM5            TEMP STORAGE FOR NOUN ADDRESS
000292:
000293:                                                                                                  #  NNADTEM  ERASE                  TEMP FOR NOUN ADDRESS TABLE ENTRY
000294:                                                                                                  #  NNTYPTEM ERASE                  TEMP FOR NOUN TYPE TABLE ENTRY
000295:                                                                                                  #  IDAD1TEM ERASE                  TEMP FOR INDIR ADRESS TABLE ENTRY(MIXNN)
000296:                                                                                                  #                                  MUST = IDAD2TEM-1, = IDAD3TEM-2.
000297:                                                                                                  #  IDAD2TEM ERASE                  TEMP FOR INDIR ADRESS TABLE ENTRY(MIXNN)
000298:                                                                                                  #                                  MUST = IDAD1TEM+1, = IDAD3TEM-1.
000299:                                                                                                  #  IDAD3TEM ERASE                  TEMP FOR INDIR ADRESS TABLE ENTRY(MIXNN)
000300:                                                                                                  #                                  MUST = IDAD1TEM+2, = IDAD2TEM+1.
000301:                                                                                                  #  RUTMXTEM ERASE                  TEMP FOR SF ROUT TABLE ENTRY(MIXNN ONLY)
000302:                                                                                                  #  END OF TEMPORARIES FOR PINBALL EXECUTIVE ACTION
000303:
000304:
000305:                                                                                                  #  ADDITIONAL TEMPORARIES FOR PINBALL EXECUTIVE ACTION
000306:
000307:                                                                                                  #  MPAC, THRU MPAC +6
000308:                                                                                                  #  BUF, +1, +2
000309:                                                                                                  #  BUF2, +1, +2
000310:                                                                                                  #  MPTEMP
000311:                                                                                                  #  ADDRWD
000312:                                                                                                  #    END OF ADDITIONAL TEMPS FOR PINBALL EXEC ACTION
000313:
000314:
000315:                                                                                                  #  RESERVED FOR PINBALL INTERRUPT ACTION
000316:
000317:                                                                                                  #  DSPCNT   ERASE                  COUNTER FOR DSPOUT
000318:                                                                                                  #  UPLOCK   ERASE                  BIT1 = UPLINK INTERLOCK (ACTIVATED BY
000319:                                                                                                  #                                                                          RECEPTION OF A BAD MESSAGE IN UPLINK)
000320:                                                                                                  #  END OF ERASABLES RESERVED FOR PINBALL INTERRUPT ACTION
000321:
000322:
000323:                                                                                                  #  TEMPORARIES FOR PINBALL INTERRUPT ACTION
000324:
000325:                                                                                                  #  KEYTEMP1 =      WAITEXIT        TEMP FOR KEYRUPT, UPRUPT
000326:                                                                                                  #  DSRUPTEM =      WAITEXIT        TEMP FOR DSPOUT
000327:                                                                                                  #  KEYTEMP2 =      RUPTAGN         TEMP FOR KEYRUPT, UPRUPT
000328:                                                                                                  #  END OF TEMPORARIES FOR PINBALL INTERRUPT ACTION
000329:


000331:                                                                                                  #  THE INPUT CODES ASSUMED FOR THE KEYBOARD ARE,
000332:                                                                                                  #  0        10000
000333:                                                                                                  #  1        00001
000334:                                                                                                  #  9        01001
000335:                                                                                                  #  VERB     10001
000336:                                                                                                  #  ERROR RES10010
000337:                                                                                                  #  KEY RLSE 11001
000338:                                                                                                  #  +        11010
000339:                                                                                                  #  -        11011
000340:                                                                                                  #  ENTER    11100
000341:                                                                                                  #  CLEAR    11110
000342:                                                                                                  #  NOUN     11111


000344:
000345:
000346:                                                                                                  #  OUTPUT FORMAT FOR DISPLAY PANEL. SET OUT0 TO  AAAABCCCCCDDDDD.
000347:                                                                                                  #  A-S SELECT A RELAYWORD. THIS DETERMINES WHICH PAIR OF CHARACTERS ARE
000348:                                                                                                  #  ENERGIZED.
000349:                                                                                                  #  B FOR SPECIAL RELAYS SUCH AS SIGNS ETC.
000350:                                                                                                  #  C-S  5 BIT RELAY CODE FOR LEFT CHAR OF PAIR SELECTED BY RELAYWORD
000351:                                                                                                  #  D-S  5 BIT RELAY CODE FOR RIGHTCHAR OF PAIR SELECTED BY RELAYWORD.
000352:
000353:                                                                                                  #  THE PANEL APPEARS AS FOLLOWS,
000354:                                                                                                  #  MD1    MD2                         (MAJOR MODE)
000355:                                                                                                  #  VD1    VD2 (VERB)    ND1    ND2    (NOUN)
000356:                                                                                                  #  R1D1   R1D2   R1D3   R1D4   R1D5   (R1)
000357:                                                                                                  #  R2D1   R2D2   R2D3   R2D4   R2D5   (R2)
000358:                                                                                                  #  R3D1   R3D2   R3D3   R3D4   R3D5   (R3)
000359:
000360:                                                                                                  #  EACH OF THESE IS GIVEN A DSPCOUNT NUMBER FOR USE WITHIN COMPUTATION ONLY
000361:                                                                                                  #  MD1   25     R2D1    11       ALL ARE OCTAL
000362:                                                                                                  #  MD2   24     R2D2    10
000363:                                                                                                  #  VD1   23     R2D3    7
000364:                                                                                                  #  VD2   22     R2D4    6
000365:                                                                                                  #  ND1   21     R2D5    5
000366:                                                                                                  #  ND2   20     R3D1    4
000367:                                                                                                  #  R1D1  16     R3D2    3
000368:                                                                                                  #  R1D2  15     R3D3    2
000369:                                                                                                  #  R1D3  14     R3D4    1
000370:                                                                                                  #  R1D4  13     R3D5    0
000371:                                                                                                  #  R1D5  12
000372:
000373:
000374:                                                                                                  #  THERE IS AN 11 REGISTER TABLE (DSPTAB) FOR THE DISPLAY PANEL.
000375:
000376:                                                                                                  #  DSPTAB RELAYWD       BIT11     BITS 10-6     BITS 5-1
000377:                                                                                                  #  RELADD
000378:                                                                                                  #  10     1011                    MD1  (25)     MD2  (24)
000379:                                                                                                  #  9      1010                    VD1  (23)     VD2  (22)
000380:                                                                                                  #  8      1001                    ND1  (21)     ND2  (20)
000381:                                                                                                  #  7      1000                                  R1D1 (16)


000383:                                                                                                  #  6      0111          +R1       R1D2 (15)     R1D3 (14)
000384:                                                                                                  #  5      0110          -R1       R1D4 (13)     R1D5 (12)
000385:                                                                                                  #  4      0101          +R2       R2D1 (11)     R2D2 (10)
000386:                                                                                                  #  3      0100          -R2       R2D3 (7)      R2D4 (6)
000387:                                                                                                  #  2      0011                    R2D5 (5)      R3D1 (4)
000388:                                                                                                  #  1      0010          +R3       R3D2 (3)      R3D3 (2)
000389:                                                                                                  #  0      0001          -R3       R3D4 (1)      R3D5 (0)
000390:                                                                                                  #         0000   NO RELAYWORD
000391:
000392:
000393:                                                                                                  #  THE 5 BIT OUTPUT RELAY CODES ARE:
000394:                                                                                                  #  BLANK      00000
000395:                                                                                                  #  0          10101
000396:                                                                                                  #  1          00011
000397:                                                                                                  #  2          11001
000398:                                                                                                  #  3          11011
000399:                                                                                                  #  4          01111
000400:                                                                                                  #  5          11110
000401:                                                                                                  #  6          11100
000402:                                                                                                  #  7          10011
000403:                                                                                                  #  8          11101
000404:                                                                                                  #  9          11111
000405:
000406:
000407:                                                                                                  #  OUTPUT BITS USED BY PINBALL:
000408:
000409:                                                                                                  #             KEY RELEASE LIGHT    - BIT 5 OF CHANNEL 11
000410:                                                                                                  #             VERB/NOUN FLASH      - BIT 6 OF CHANNEL 11
000411:                                                                                                  #             OPERATOR ERROR LIGHT - BIT 7 OF CHANNEL 11
000412:


000414:                                                                                                  #  START OF EXECUTIVE SECTION OF PINBALL
000415: 40,2077                                           BANK     40
000416: 40,2000                                           SETLOC   PINBALL1
000417: 40,2000                                           BANK
000418:
000419: 40,2077                                           COUNT*   $$/PIN
000420: 40,2077           34753        CHARIN             CAF      ONE                                   #  BLOCK DISPLAY SYST
000421: 40,2100           57011                           XCH      DSPLOCK                               #  MAKE DSP SYST BUSY, BUT SAVE OLD
000422: 40,2101           54115                           TS       21/22REG                              #  C(DSPLOCK) FOR ERROR LIGHT RESET.
000423: 40,2102           11041                           CCS      CADRSTOR                              #  ALL KEYS EXCEPT ER TURN ON KR LITE IF
000424: 40,2103           02105                           TC       +2                                    #  CADRSTOR IS FULL.  THIS REMINDS OPERATOR
000425: 40,2104           02112                           TC       CHARIN2                               #  TO RE-ESTABLISH A FLASHING DISPLAY
000426: 40,2105           42156                           CS       ELRCODE1                              #  WHICH HE HAS OBSCURED WITH DISPLAYS OF
000427: 40,2106           60154                           AD       MPAC                                  #  HIS OWN (SEE REMARKS PRECEDING ROUTINE
000428: 40,2107           00006                           EXTEND                                         #  VBRELDSP).
000429: 40,2110           12112                           BZF      CHARIN2
000430: 40,2111           04374                           TC       RELDSPON
000431: 40,2112           56154        CHARIN2            XCH      MPAC
000432: 40,2113           54117                           TS       CHAR
000433: 40,2114           50000                           INDEX    A
000434: 40,2115           02116                           TC       +1                                    #  INPUT CODE     FUNCTION
000435: 40,2116           03477                           TC       CHARALRM                              #  0
000436: 40,2117           02175                           TC       NUM                                   #  1
000437: 40,2120           02175                           TC       NUM                                   #  2
000438: 40,2121           02175                           TC       NUM                                   #  3
000439: 40,2122           02175                           TC       NUM                                   #  4
000440: 40,2123           02175                           TC       NUM                                   #  5
000441: 40,2124           02175                           TC       NUM                                   #  6
000442: 40,2125           02175                           TC       NUM                                   #  7
000443: 40,2126           02161                           TC       89TEST                                #  10                 8
000444: 40,2127           02161                           TC       89TEST                                #  11                 9
000445: 40,2130           03477                           TC       CHARALRM                              #  12
000446: 40,2131           03477                           TC       CHARALRM                              #  13
000447: 40,2132           03477                           TC       CHARALRM                              #  14
000448: 40,2133           03477                           TC       CHARALRM                              #  15
000449: 40,2134           03477                           TC       CHARALRM                              #  16
000450: 40,2135           03477                           TC       CHARALRM                              #  17
000451: 40,2136           02173                           TC       NUM        -2                         #  20                 0
000452: 40,2137           02363                           TC       VERB                                  #  21                 VERB
000453: 40,2140           03655                           TC       ERROR                                 #  22                 ERROR LIGHT RESET
000454: 40,2141           03477                           TC       CHARALRM                              #  23
000455: 40,2142           03477                           TC       CHARALRM                              #  24
000456: 40,2143           03477                           TC       CHARALRM                              #  25
000457: 40,2144           03477                           TC       CHARALRM                              #  26
000458: 40,2145           03477                           TC       CHARALRM                              #  27
000459: 40,2146           03477                           TC       CHARALRM                              #  30
000460: 40,2147           03533                           TC       VBRELDSP                              #  31                 KEY RELEASE
000461: 40,2150           02416                           TC       POSGN                                 #  32                 +


000463: 40,2151           02403                           TC       NEGSGN                                #  33                 -
000464: 40,2152           02157                           TC       ENTERJMP                              #  34                 ENTER
000465: 40,2153           03477                           TC       CHARALRM                              #  35
000466: 40,2154           02476                           TC       CLEAR                                 #  36                 CLEAR
000467: 40,2155           02377                           TC       NOUN                                  #  37                 NOUN
000468:
000469:
000470: 40,2156           00022        ELRCODE1           OCT      22
000471: 40,2157           04635        ENTERJMP           TC       POSTJUMP
000472: 40,2160           62002                           CADR     ENTER
000473:
000474: 40,2161           10776        89TEST             CCS      DSPCOUNT
000475: 40,2162           02166                           TC       +4                                    #  +
000476: 40,2163           02166                           TC       +3                                    #  +0
000477: 40,2164           05155                           TC       ENDOFJOB                              #  - BLOCK DATA IN IF DSPCOUNT IS - OR -0
000478: 40,2165           05155                           TC       ENDOFJOB                              #  -0
000479: 40,2166           36250                           CAF      THREE
000480: 40,2167           70777                           MASK     DECBRNCH
000481: 40,2170           10000                           CCS      A
000482: 40,2171           02175                           TC       NUM                                   #  IF DECBRNCH IS +, 8 OR 9 OK
000483: 40,2172           03477                           TC       CHARALRM                              #  IF DECBRNCH IS +0, REJECT 8 OR 9
000484:
000485:
000486:                                                                                                  #  NUM ASSEMBLES OCTAL 3 BITS AT A TIME. FOR DECIMAL IT CONVERTS INCOMING
000487:                                                                                                  #  WORD AS A FRACTION, KEEPING RESULTS TO DP.
000488:                                                                                                  #  OCTAL RESULTS ARE LEFT IN XREG, YREG, OR ZREG. HI PART OF DEC IN XREG,
000489:                                                                                                  #  YREG, ZREG. THE LOW PARTS IN XREGLP, YREGLP, OR ZREGLP)
000490:                                                                                                  #  DECBRNCH IS LEFT AT +0 FOR OCT, +1 FOR + DEC, +2 FOR - DEC.
000491:                                                                                                  #  IF DSPCOUNT WAS LEFT -, NO MORE DATA IS ACCEPTED.
000492:
000493: 40,2173           34755                           CAF      ZERO
000494: 40,2174           54117                           TS       CHAR
000495: 40,2175           10776        NUM                CCS      DSPCOUNT
000496: 40,2176           02202                           TC       +4                                    #  +
000497: 40,2177           02202                           TC       +3                                    #  +0
000498: 40,2200           02201                           TC       +1                                    #  -BLOCK DATA IN IF DSPCOUNT IS -
000499: 40,2201           05155                           TC       ENDOFJOB                              #  -0
000500: 40,2202           02333                           TC       GETINREL
000501: 40,2203           11014                           CCS      CLPASS                                #  IF CLPASS IS + OR +0, MAKE IT +0.
000502: 40,2204           34755                           CAF      ZERO
000503: 40,2205           55014                           TS       CLPASS
000504: 40,2206           02207                           TC       +1
000505: 40,2207           50117                           INDEX    CHAR
000506: 40,2210           34066                           CAF      RELTAB
000507: 40,2211           74346                           MASK     LOW5
000508: 40,2212           54124                           TS       CODE
000509: 40,2213           30776                           CA       DSPCOUNT
000510: 40,2214           54143                           TS       COUNT
000511: 40,2215           03365                           TC       DSPIN
000512: 40,2216           36250                           CAF      THREE


000514: 40,2217           70777                           MASK     DECBRNCH
000515: 40,2220           10000                           CCS      A                                     #  +0, OCTAL.  +1, + DEC.  +2, - DEC.
000516: 40,2221           02232                           TC       DECTOBIN                              #  +
000517: 40,2222           50137                           INDEX    INREL                                 #  +0 OCTAL
000518: 40,2223           57000                           XCH      VERBREG
000519: 40,2224           54022                           TS       CYL
000520: 40,2225           40022                           CS       CYL
000521: 40,2226           40022                           CS       CYL
000522: 40,2227           56022                           XCH      CYL
000523: 40,2230           60117                           AD       CHAR
000524: 40,2231           02247                           TC       ENDNMTST
000525: 40,2232           50137        DECTOBIN           INDEX    INREL
000526: 40,2233           57000                           XCH      VERBREG
000527: 40,2234           54154                           TS       MPAC                                  #  SUM X 2EXP-14 IN MPAC
000528: 40,2235           34755                           CAF      ZERO
000529: 40,2236           54155                           TS       MPAC       +1
000530: 40,2237           34363                           CAF      TEN                                   #  10 X 2EXP-14
000531: 40,2240           07312                           TC       SHORTMP                               #  10SUM X 2EXP-28 IN MPAC, MPAC+1
000532: 40,2241           56155                           XCH      MPAC       +1
000533: 40,2242           60117                           AD       CHAR
000534: 40,2243           54155                           TS       MPAC       +1
000535: 40,2244           02247                           TC       ENDNMTST                              #  NO OF
000536: 40,2245           26154                           ADS      MPAC                                  #  OF MUST BE 5TH CHAR
000537: 40,2246           02265                           TC       DECCEND
000538: 40,2247           50137        ENDNMTST           INDEX    INREL
000539: 40,2250           55000                           TS       VERBREG
000540: 40,2251           40776                           CS       DSPCOUNT
000541: 40,2252           50137                           INDEX    INREL
000542: 40,2253           62324                           AD       CRITCON
000543: 40,2254           00006                           EXTEND
000544: 40,2255           12257                           BZF      ENDNUM                                #  -0, DSPCOUNT = CRITCON
000545: 40,2256           02321                           TC       MORNUM                                #  - , DSPCOUNT G/ CRITCON
000546: 40,2257           36250        ENDNUM             CAF      THREE
000547: 40,2260           70777                           MASK     DECBRNCH
000548: 40,2261           10000                           CCS      A
000549: 40,2262           02265                           TC       DECCEND
000550: 40,2263           40776        ENDALL             CS       DSPCOUNT                              #  BLOCK NUMIN BY PLACING DSPCOUNT
000551: 40,2264           02322                           TC       MORNUM     +1                         #  NEGATIVELY
000552: 40,2265           04616        DECCEND            TC       BANKCALL
000553: 40,2266           60270                           CADR     DECEND
000554: 40,2267           02263                           TC       ENDALL
000555: 40,2270           44753        DECEND             CS       ONE
000556: 40,2271           60137                           AD       INREL
000557: 40,2272           00006                           EXTEND
000558: 40,2273           62263                           BZMF     ENDALL                                #  IF INREL=0,1(VBREG,NNREG), LEAVE WHOLE
000559: 40,2274           02333                           TC       GETINREL
000560: 40,2275           50137                           INDEX    INREL
000561: 40,2276           31000                           CA       VERBREG
000562: 40,2277           54155                           TS       MPAC       +1
000563: 40,2300           07106                           TC       DMP                                   #  IF INREL=2,3,4(R1,R2,R3),CONVERT TO FRAC


000565:                                                                                                  #  MULT SUM X 2EXP-28 IN MPAC, MPAC+1 BY
000566: 40,2301           02331                           ADRES    DECON                                 #  2EXP14/10EXP5. GIVES(SUM/10EXP5)X2EXP-14
000567: 40,2302           36250                           CAF      THREE                                 #  IN MPAC, +1, +2.
000568: 40,2303           70777                           MASK     DECBRNCH
000569: 40,2304           50000                           INDEX    A
000570: 40,2305           02305                           TC       +0
000571: 40,2306           02312                           TC       +DECSGN
000572: 40,2307           00006                           EXTEND                                         #  - CASE
000573: 40,2310           40156                           DCS      MPAC       +1
000574: 40,2311           52156                           DXCH     MPAC       +1
000575: 40,2312           56156        +DECSGN            XCH      MPAC       +2
000576: 40,2313           50137                           INDEX    INREL
000577: 40,2314           55003                           TS       XREGLP     -2
000578: 40,2315           56155                           XCH      MPAC       +1
000579: 40,2316           50137                           INDEX    INREL
000580: 40,2317           55000                           TS       VERBREG
000581: 40,2320           04631                           TC       SWRETURN
000582: 40,2321           10776        MORNUM             CCS      DSPCOUNT                              #  DECREMENT DSPCOUNT
000583: 40,2322           54776                           TS       DSPCOUNT
000584: 40,2323           05155                           TC       ENDOFJOB
000585:
000586: 40,2324           00022        CRITCON            OCT      22                                    #  (DEC 18)
000587: 40,2325           00020                           OCT      20                                    #  (DEC 16)
000588: 40,2326           00012                           OCT      12                                    #  (DEC 10)
000589: 40,2327           00005                           OCT      5
000590: 40,2330           00000                           OCT      0
000591:
000592: 40,2331           05174 13261  DECON              2DEC     E-5        B14                        #  2EXP14/10EXP5 = .16384 DEC
000593:
000594:
000595:
000596:                                                                                                  #  GETINREL GETS PROPER DATA REG REL ADDRESS FOR CURRENT C(DSPCOUNT) AND
000597:                                                                                                  #  PUTS IN INTO INREL. +0 VERBREG, 1 NOUNREG, 2 XREG, 3 YREG, 4 ZREG.
000598:
000599: 40,2333           50776        GETINREL           INDEX    DSPCOUNT
000600: 40,2334           32337                           CAF      INRELTAB
000601: 40,2335           54137                           TS       INREL                                 #  (A TEMP, REG)
000602: 40,2336           00002                           TC       Q
000603:
000604: 40,2337           00004        INRELTAB           OCT      4                                     #  R3D5 (DSPCOUNT = 0)
000605: 40,2340           00004                           OCT      4                                     #  R3D4           =(1)
000606: 40,2341           00004                           OCT      4                                     #  R3D3           =(2)
000607: 40,2342           00004                           OCT      4                                     #  R3D2           =(3)
000608: 40,2343           00004                           OCT      4                                     #  R3D1           =(4)
000609: 40,2344           00003                           OCT      3                                     #  R2D5           =(5)
000610: 40,2345           00003                           OCT      3                                     #  R2D4           =(6)
000611: 40,2346           00003                           OCT      3                                     #  R2D3           =(7)
000612: 40,2347           00003                           OCT      3                                     #  R2D2           =(8D)
000613: 40,2350           00003                           OCT      3                                     #  R2D1           =(9D)
000614: 40,2351           00002                           OCT      2                                     #  R1D5           =(10D)


000616: 40,2352           00002                           OCT      2                                     #  R1D4           =(11D)
000617: 40,2353           00002                           OCT      2                                     #  R1D3           =(12D)
000618: 40,2354           00002                           OCT      2                                     #  R1D2           =(13D)
000619: 40,2355           00002                           OCT      2                                     #  R1D1           =(14D)
000620: 40,2356           05706                           TC       CCSHOLE                               #  NO DSPCOUNT NUMBER = 15D
000621: 40,2357           00001                           OCT      1                                     #  ND2            =(16D)
000622: 40,2360           00001                           OCT      1                                     #  ND1            =(17D)
000623: 40,2361           00000                           OCT      0                                     #  VD2            =(18D)
000624: 40,2362           00000                           OCT      0                                     #  VD1            =(19D)
000625:
000626:
000627: 40,2363           34755        VERB               CAF      ZERO
000628: 40,2364           55000                           TS       VERBREG
000629: 40,2365           34360                           CAF      VD1
000630: 40,2366           54776        NVCOM              TS       DSPCOUNT
000631: 40,2367           02610                           TC       2BLANK
000632: 40,2370           34753                           CAF      ONE
000633: 40,2371           54777                           TS       DECBRNCH                              #  SET FOR DEC V/N CODE
000634: 40,2372           34755                           CAF      ZERO
000635: 40,2373           55012                           TS       REQRET                                #  SET FOR ENTPAS0
000636: 40,2374           34217                           CAF      ENDINST                               #  IF DSPALARM OCCURS BEFORE FIRST ENTPAS0
000637: 40,2375           54136                           TS       ENTRET                                #  OR NVSUB, ENTRET MUST ALREADY BE SET
000638:                                                                                                  #  TO TC ENDOFJOB
000639: 40,2376           05155                           TC       ENDOFJOB
000640: 40,2377           34755        NOUN               CAF      ZERO
000641: 40,2400           55001                           TS       NOUNREG
000642: 40,2401           34361                           CAF      ND1                                   #  ND1, OCT 21 (DEC 17)
000643: 40,2402           02366                           TC       NVCOM
000644:
000645:
000646: 40,2403           02455        NEGSGN             TC       SIGNTEST
000647: 40,2404           02442                           TC       -ON
000648: 40,2405           34752                           CAF      TWO
000649: 40,2406           50137        BOTHSGN            INDEX    INREL                                 #  SET DEC COMP BIT TO 1 (IN DECBRNCH)
000650: 40,2407           64745                           AD       BIT7                                  #  BIT 5 FOR R1,  BIT 4 FOR R2,
000651: 40,2410           26777                           ADS      DECBRNCH                              #  BIT 3 FOR R3.
000652: 40,2411           11014        FIXCLPAS           CCS      CLPASS                                #  IF CLPASS IS + OR +0, MAKE IT +0.
000653: 40,2412           34755                           CAF      ZERO
000654: 40,2413           55014                           TS       CLPASS
000655: 40,2414           02415                           TC       +1
000656: 40,2415           05155                           TC       ENDOFJOB
000657:
000658: 40,2416           02455        POSGN              TC       SIGNTEST
000659: 40,2417           02422                           TC       +ON
000660: 40,2420           34753                           CAF      ONE
000661: 40,2421           02406                           TC       BOTHSGN
000662:
000663: 40,2422           22002        +ON                LXCH     Q
000664: 40,2423           02333                           TC       GETINREL
000665: 40,2424           50137                           INDEX    INREL


000667: 40,2425           32450                           CAF      SGNTAB     -2
000668: 40,2426           54123                           TS       SGNOFF
000669: 40,2427           64753                           AD       ONE
000670: 40,2430           54122                           TS       SGNON
000671: 40,2431           34755        SGNCOM             CAF      ZERO
000672: 40,2432           54124                           TS       CODE
000673: 40,2433           56123                           XCH      SGNOFF
000674: 40,2434           03447                           TC       11DSPIN
000675: 40,2435           34741                           CAF      BIT11
000676: 40,2436           54124                           TS       CODE
000677: 40,2437           56122                           XCH      SGNON
000678: 40,2440           03447                           TC       11DSPIN
000679: 40,2441           00001                           TC       L
000680: 40,2442           22002        -ON                LXCH     Q
000681: 40,2443           02333                           TC       GETINREL
000682: 40,2444           50137                           INDEX    INREL
000683: 40,2445           32450                           CAF      SGNTAB     -2
000684: 40,2446           54122                           TS       SGNON
000685: 40,2447           64753                           AD       ONE
000686: 40,2450           54123                           TS       SGNOFF
000687: 40,2451           02431                           TC       SGNCOM
000688:
000689: 40,2452           00005        SGNTAB             OCT      5                                     #  -R1
000690: 40,2453           00003                           OCT      3                                     #  -R2
000691: 40,2454           00000                           OCT      0                                     #  -R3
000692:
000693:
000694: 40,2455           22002        SIGNTEST           LXCH     Q                                     #  ALLOWS +,- ONLY WHEN DSPCOUNT=R1D1,
000695: 40,2456           36250                           CAF      THREE                                 #  R2D1, OR R3D1. ALLOWS ONLY FIRST OF
000696: 40,2457           70777                           MASK     DECBRNCH                              #  CONSECUTIVE +/- CHARACTERS.
000697: 40,2460           10000                           CCS      A                                     #  IF LOW2 BITS OF DECBRNCH NOT= 0, SIGN
000698: 40,2461           05155                           TC       ENDOFJOB                              #  FOR THIS WORD ALREADY IN. REJECT.
000699: 40,2462           44317                           CS       R1D1
000700: 40,2463           02471                           TC       SGNTST1
000701: 40,2464           44320                           CS       R2D1
000702: 40,2465           02471                           TC       SGNTST1
000703: 40,2466           44321                           CS       R3D1
000704: 40,2467           02471                           TC       SGNTST1
000705: 40,2470           05155                           TC       ENDOFJOB                              #  NO MATCH FOUND. SIGN ILLEGAL
000706: 40,2471           60776        SGNTST1            AD       DSPCOUNT
000707: 40,2472           00006                           EXTEND
000708: 40,2473           12475                           BZF      +2                                    #  MATCH FOUND
000709: 40,2474           00002                           TC       Q
000710: 40,2475           00001                           TC       L                                     #  SIGN LEGAL
000711:
000712:
000713:                                                                                                  #  CLEAR BLANKS WHICH R1, R2, R3 IS CURRENT OR LAST TO BE DISPLAYED(PERTINE
000714:                                                                                                  #  NT XREG,YREG,ZREG IS CLEARED). SUCCESSIVE CLEARS TAKE CARE OF EACH RX
000715:                                                                                                  #  L/ RC UNTIL R1 IS DONE. THEN NO FURTHER ACTION


000717:                                                                                                  #  THE SINGLE COMPONENT LOAD VERBS ALLOW ONLY THE SINGLE RC THAT IS
000718:                                                                                                  #  APPROPRIATE TO BE CLEARED.
000719:
000720:                                                                                                  #  CLPASS   +0  PASS0, CAN BE BACKED UP
000721:                                                                                                  #           +NZ  HIPASS, CAN BE BACKED UP
000722:                                                                                                  #           -NZ  PASS0, CANNOT BE BACKED UP
000723:
000724: 40,2476           10776        CLEAR              CCS      DSPCOUNT
000725: 40,2477           64753                           AD       ONE
000726: 40,2500           02502                           TC       +2
000727: 40,2501           64753                           AD       ONE
000728: 40,2502           50000                           INDEX    A                                     #  DO NOT CHANGE DSPCOUNT BECAUSE MAY LATER
000729: 40,2503           32337                           CAF      INRELTAB                              #  FAIL LEGALTST.
000730: 40,2504           54137                           TS       INREL                                 #  MUST SET INREL, EVEN FOR HIPASS.
000731: 40,2505           11014                           CCS      CLPASS
000732: 40,2506           02514                           TC       CLPASHI                               #  +
000733: 40,2507           02511                           TC       +2                                    #  +0    IF CLPASS IS +0 OR -, IT IS PASS0
000734: 40,2510           02511                           TC       +1                                    #  -
000735: 40,2511           30137                           CA       INREL
000736: 40,2512           02536                           TC       LEGALTST
000737: 40,2513           02531                           TC       CLEAR1
000738: 40,2514           10137        CLPASHI            CCS      INREL
000739: 40,2515           54137                           TS       INREL
000740: 40,2516           02536                           TC       LEGALTST
000741: 40,2517           32606                           CAF      DOUBLK     +2                         #  +3 TO - NUMBER. BACKS DATA REQUESTS.
000742: 40,2520           27012                           ADS      REQRET
000743: 40,2521           30137                           CA       INREL
000744: 40,2522           54125                           TS       MIXTEMP                               #  TEMP STORAGE FOR INREL
000745: 40,2523           00006                           EXTEND
000746: 40,2524           27000                           DIM      VERBREG                               #  DECREMENT VERB AND RE-DISPLAY
000747: 40,2525           04616                           TC       BANKCALL
000748: 40,2526           62347                           CADR     UPDATVB
000749: 40,2527           30125                           CA       MIXTEMP
000750: 40,2530           54137                           TS       INREL                                 #  RESTORE INREL
000751: 40,2531           02534        CLEAR1             TC       CLR5
000752: 40,2532           25014                           INCR     CLPASS                                #  ONLY IF CLPASS IS + OR +0,
000753: 40,2533           05155                           TC       ENDOFJOB                              #  SET FOR HIGHER PASS.
000754: 40,2534           22002        CLR5               LXCH     Q                                     #  USES 5BLANK  BUT AVOIDS ITS TC GETINREL
000755: 40,2535           02547                           TC       5BLANK     +2
000756: 40,2536           67751        LEGALTST           AD       NEG2
000757: 40,2537           10000                           CCS      A
000758: 40,2540           00002                           TC       Q                                     #  LEGAL  INREL G/ 2
000759: 40,2541           05706                           TC       CCSHOLE
000760: 40,2542           05155                           TC       ENDOFJOB                              #  ILLEGAL   INREL= 0,1
000761: 40,2543           00002                           TC       Q                                     #  LEGAL    INREL = 2
000762:
000763:
000764:                                                                                                  #  5BLANK BLANKS 5 CHAR DISPLAY WORD IN R1, R2, OR R3. IT ALSO ZEROES XREG,
000765:                                                                                                  #  YREG, OR ZREG.PLACE ANY + DSPCOUNT NUMBER FOR PERTINENT RC INTO DSPCOUNT
000766:                                                                                                  #  DSPCOUNT IS LEFT SET TO LEFT MOST DSP NUMB FOR RC JUST BLANKED.
000767:


000769: 40,2544           54776                           TS       DSPCOUNT                              #  NEEDED FOR BLANKSUB
000770: 40,2545           22002        5BLANK             LXCH     Q
000771: 40,2546           02333                           TC       GETINREL
000772: 40,2547           34755                           CAF      ZERO
000773: 40,2550           50137                           INDEX    INREL
000774: 40,2551           55000                           TS       VERBREG                               #  ZERO X, Y, Z REG.
000775: 40,2552           50137                           INDEX    INREL
000776: 40,2553           55003                           TS       XREGLP     -2
000777: 40,2554           54124                           TS       CODE
000778: 40,2555           50137                           INDEX    INREL                                 #  ZERO PERTINENT DEC COMP BIT.
000779: 40,2556           44745                           CS       BIT7                                  #  PROTECT OTHERS
000780: 40,2557           70777                           MASK     DECBRNCH
000781: 40,2560           72607                           MASK     BRNCHCON                              #  ZERO LOW 2 BITS.
000782: 40,2561           54777                           TS       DECBRNCH
000783: 40,2562           50137                           INDEX    INREL
000784: 40,2563           32577                           CAF      SINBLANK   -2                         #  BLANK ISOLATED CHAR SEPARATELY
000785: 40,2564           54143                           TS       COUNT
000786: 40,2565           03365                           TC       DSPIN
000787: 40,2566           50137        5BLANK1            INDEX    INREL
000788: 40,2567           32602                           CAF      DOUBLK     -2
000789: 40,2570           54776                           TS       DSPCOUNT
000790: 40,2571           02610                           TC       2BLANK
000791: 40,2572           44752                           CS       TWO
000792: 40,2573           26776                           ADS      DSPCOUNT
000793: 40,2574           02610                           TC       2BLANK
000794: 40,2575           50137                           INDEX    INREL
000795: 40,2576           34315                           CAF      R1D1       -2
000796: 40,2577           54776                           TS       DSPCOUNT                              #  SET DSPCOUNT TO LEFT MOST DSP NUMBER
000797: 40,2600           00001                           TC       L                                     #  OF REG. JUST BLANKED
000798:
000799: 40,2601           00016        SINBLANK           OCT      16                                    #  DEC 14
000800: 40,2602           00005                           OCT      5
000801: 40,2603           00004                           OCT      4
000802: 40,2604           00015        DOUBLK             OCT      15                                    #  DEC 13
000803: 40,2605           00011                           OCT      11                                    #  DEC 9
000804: 40,2606           00003                           OCT      3
000805:
000806: 40,2607           77774        BRNCHCON           OCT      77774
000807:
000808:                                                                                                  #  2BLANK BLANKS TWO CHAR. PLACE DSP NUMBER OF LEFT CHAR  OF THE PAIR INTO
000809:                                                                                                  #  DSPCOUNT. THIS NUMBER IS LEFT IN DSPCOUNT
000810:
000811: 40,2610           30776        2BLANK             CA       DSPCOUNT
000812: 40,2611           54021                           TS       SR
000813: 40,2612           42623                           CS       BLANKCON
000814: 40,2613           00004                           INHINT
000815: 40,2614           50021                           INDEX    SR
000816: 40,2615           57022                           XCH      DSPTAB
000817: 40,2616           00006                           EXTEND
000818: 40,2617           62621                           BZMF     +2                                    #  IF OLD CONTENTS -, NOUT OK


000820: 40,2620           25015                           INCR     NOUT                                  #  IF OLD CONTENTS +, +1 TO NOUT
000821: 40,2621           00003                           RELINT                                         #  IF -,NOUT OK
000822: 40,2622           00002                           TC       Q
000823: 40,2623           04000        BLANKCON           OCT      4000
000824:


000826:                                                                                                  #  ENTER PASS 0 IS THE EXECUTE FUNCTION. HIGHER ORDER ENTERS ARE TO LOAD
000827:                                                                                                  #  DATA. THE SIGN OF REQRET DETERMINES THE PASS, + FOR PASS 0,- FOR HIGHER
000828:                                                                                                  #  PASSES.
000829:
000830:
000831:                                                                                                  #  MACHINE CADR TO BE SPECIFIED (MCTBS) NOUNS DESIRE AN ECADR TO BE LOADED
000832:                                                                                                  #  WHEN USED WITH LOAD VERBS, MONITOR VERBS, OR DISPLAY VERBS (EXCEPT
000833:                                                                                                  #  VERB = FIXED MEMORY DISPLAY, WHICH REQUIRES AN FCADR).
000834:
000835:
000836: 41,2000                                           BANK     41
000837: 41,2000                                           SETLOC   PINBALL2
000838: 41,2000                                           BANK
000839:
000840: 41,2000                                           COUNT*   $$/PIN
000841: 41,2000           03564        NVSUBB             TC       NVSUB1                                #  STANDARD LEAD INS. DONT MOVE.
000842: 41,2001           03025        LOADLV1            TC       LOADLV
000843:                                                                                                  #  END OF STANDARD LEAD INS.
000844:
000845:
000846: 41,2002           34755        ENTER              CAF      ZERO
000847: 41,2003           55014                           TS       CLPASS
000848: 41,2004           34217                           CAF      ENDINST
000849: 41,2005           54136                           TS       ENTRET
000850: 41,2006           11012                           CCS      REQRET
000851: 41,2007           02042                           TC       ENTPAS0                               #  IF +, PASS 0
000852: 41,2010           02042                           TC       ENTPAS0                               #  IF +, PASS 0
000853: 41,2011           02012                           TC       +1                                    #  IF -, NOT PASS 0
000854: 41,2012           32040        ENTPASHI           CAF      MMADREF
000855: 41,2013           61012                           AD       REQRET                                #  IF L/ 2 CHAR IN FOR MM CODE, ALARM
000856: 41,2014           00006                           EXTEND                                         #  AND RECYCLE(DECIDE AT MMCHANG+1).
000857: 41,2015           12027                           BZF      ACCEPTWD
000858: 41,2016           36250                           CAF      THREE                                 #  IF DEC, L/5 CHAR IN FOR DATA MUST BE
000859: 41,2017           70777                           MASK     DECBRNCH                              #  SCALED (DECEND); IF 5 CHAR IN, DATA
000860: 41,2020           10000                           CCS      A                                     #  HAS ALREADY BEEN SCALED. ANY NUMBER
000861: 41,2021           02023                           TC       +2                                    #  OF DECIMAL CHARACTERS ARE ACCEPTABLE.SCR
000862: 41,2022           02027                           TC       ACCEPTWD                              #  OCTAL. ANY NUMBER OF CHAR OK.
000863: 41,2023           10776                           CCS      DSPCOUNT
000864: 41,2024           02033                           TC       LT5
000865: 41,2025           02033                           TC       LT5
000866: 41,2026           02027                           TC       +1                                    #  5 CHAR IN (DSPCOUNT IS -)
000867: 41,2027           41012        ACCEPTWD           CS       REQRET                                #  5 CHAR IN (DSPCOUNT IS -)
000868: 41,2030           55012                           TS       REQRET                                #  SET REQRET +.
000869: 41,2031           04433                           TC       FLASHOFF
000870: 41,2032           01012                           TC       REQRET
000871:
000872: 41,2033           34755        LT5                CAF      ZERO
000873: 41,2034           54154                           TS       MPAC
000874: 41,2035           04616                           TC       BANKCALL
000875: 41,2036           60274                           CADR     DECEND     +4


000877: 41,2037           02027                           TC       ACCEPTWD
000878: 41,2040     0136               ENTEXIT            =        ENTRET
000879:
000880: 41,2040           03451        MMADREF            ADRES    MMCHANG    +1                         #  ASSUMES TC REQMM AT MMCHANG.
000881:
000882: 41,2041           00034        LOWVERB            DEC      28         B-14                       #  LOWER VERB THAT AVOIDS NOUN TEST.
000883:
000884: 41,2042           34755        ENTPAS0            CAF      ZERO                                  #   NOUN VERB SUB ENTERS HERE
000885: 41,2043           54777                           TS       DECBRNCH
000886: 41,2044           44360                           CS       VD1                                   #  BLOCK FURTHER NUM CHAR, SO THAT STRAY
000887: 41,2045           54776                           TS       DSPCOUNT                              #  CHAR DO NOT GET INTO VERB OR NOUN LTS.
000888: 41,2046           41000        TESTVB             CS       VERBREG                               #  IF VERB IS G/E LOWVB, SKIP NOUN TEST.
000889: 41,2047           55040                           TS       VERBSAVE                              #  SAVE VERB FOR POSSIBLE RECYCLE.
000890: 41,2050           62041                           AD       LOWVERB                               #  LOWVERB - VB
000891: 41,2051           00006                           EXTEND
000892: 41,2052           62140                           BZMF     VERBFAN                               #  VERB G/E LOWVERB
000893: 41,2053           00006        TESTNN             EXTEND                                         #  VERB L/ LOWVERB
000894: 41,2054           32121                           DCA      LODNNLOC                              #  SWITCH BANKS TO NOUN TABLE READING
000895: 41,2055           52006                           DXCH     Z                                     #  ROUTINE.
000896: 41,2056           50140                           INDEX    MIXBR
000897: 41,2057           02057                           TC       +0
000898: 41,2060           02062                           TC       +2                                    #  NORMAL
000899: 41,2061           02226                           TC       MIXNOUN                               #  MIXED
000900: 41,2062           10146                           CCS      NNADTEM                               #  NORMAL
000901: 41,2063           02136                           TC       VERBFAN    -2                         #       NORMAL IF +
000902: 41,2064           02360                           TC       GODSPALM                              #  NOT IN USE   IF +0
000903: 41,2065           02071                           TC       REQADD                                #  SPECIFY MACHINE CADR IF -
000904: 41,2066           25016                           INCR     NOUNCADR                              #  AUGMENT MACHINE CADR IF -0
000905: 41,2067           04311                           TC       SETNADD                               #  ECADR FROM NOUNCADR. SETS EB, NOUNADD.
000906: 41,2070           02125                           TC       INTMCTBS   +2
000907: 41,2071           34735        REQADD             CAF      BIT15                                 #  SET CLPASS FOR PASS0 ONLY
000908: 41,2072           55014                           TS       CLPASS
000909: 41,2073           44217                           CS       ENDINST                               #  TEST IF REACHED HERE FROM INTERNAL OR
000910: 41,2074           60136                           AD       ENTEXIT                               #              FROM EXTERNAL
000911: 41,2075           00006                           EXTEND
000912: 41,2076           12100                           BZF      +2                                    #  EXTERNAL MACH CADR TO BE SPECIFIED
000913: 41,2077           02123                           TC       INTMCTBS
000914: 41,2100           02316                           TC       REQDATZ                               #  EXTERNAL MACH CADR TO BE SPECIFIED
000915: 41,2101           10777                           CCS      DECBRNCH                              #  ALARM AND RECYCLE IF DECIMAL USED
000916: 41,2102           04145                           TC       ALMCYCLE                              #  FOR MCTBS.
000917: 41,2103           44360                           CS       VD1                                   #  OCTAL USED  OK
000918: 41,2104           54776                           TS       DSPCOUNT                              #  BLOCK NUM CHAR IN
000919: 41,2105           11041                           CCS      CADRSTOR
000920: 41,2106           02111                           TC       +3                                    #  EXTERNAL MCTBS DISPLAY WILL LEAVE FLASH
000921: 41,2107           02112                           TC       USEADD                                #  ON IF ENDIDLE NOT = +0.
000922: 41,2110           02111                           TC       +1
000923: 41,2111           04427                           TC       FLASHON
000924: 41,2112           57004        USEADD             XCH      ZREG
000925: 41,2113           04303                           TC       SETNCADR                              #  ECADR INTO NOUNCADR. SET EB, NOUNADD.
000926: 41,2114           00006                           EXTEND


000928: 41,2115           32121                           DCA      LODNNLOC                              #  SWITCH BANKS TO NOUN TABLE READING
000929: 41,2116           52006                           DXCH     Z                                     #  ROUTINE.
000930: 41,2117           02140                           TC       VERBFAN
000931:
000932: 41,2120     0776                                  EBANK=   DSPCOUNT
000933: 41,2120           02103 64101  LODNNLOC           2CADR    LODNNTAB
000934:
000935:
000936: 41,2122           77772        NEG5               OCT      77772
000937:
000938: 41,2123           30156        INTMCTBS           CA       MPAC       +2                         #  INTERNAL MACH CADR TO BE SPECIFIED.
000939: 41,2124           04303                           TC       SETNCADR                              #  ECADR INTO NOUNCADR. SET EB, NOUNADD.
000940: 41,2125           44756                           CS       FIVE                                  #  NVSUB CALL LEFT CADR IN MPAC+2 FOR MACH
000941: 41,2126           61000                           AD       VERBREG                               #  CADR TO BE SPECIFIED.
000942: 41,2127           00006                           EXTEND
000943: 41,2130           12140                           BZF      VERBFAN                               #  DONT DISPLAY CADR IF VB = 05.
000944: 41,2131           34321                           CAF      R3D1                                  #  VB NOT = 05. DISPLAY CADR.
000945: 41,2132           54776                           TS       DSPCOUNT
000946: 41,2133           31016                           CA       NOUNCADR
000947: 41,2134           03415                           TC       DSPOCTWD
000948: 41,2135           02140                           TC       VERBFAN
000949:
000950: 41,2136           64753                           AD       ONE
000951: 41,2137           04303                           TC       SETNCADR                              #  ECADR INTO NOUNCADR. SETS EB, NOUNADD.
000952: 41,2140           42152        VERBFAN            CS       LST2CON
000953: 41,2141           61000                           AD       VERBREG                               #  VERB-LST2CON
000954: 41,2142           10000                           CCS      A
000955: 41,2143           64753                           AD       ONE                                   #  VERB G/ LST2CON
000956: 41,2144           02146                           TC       +2
000957: 41,2145           02153                           TC       VBFANDIR                              #  VERB L/ LST2CON
000958: 41,2146           54154                           TS       MPAC
000959: 41,2147           04457                           TC       RELDSP                                #  RELEASE DISPLAY SYST
000960: 41,2150           04635                           TC       POSTJUMP                              #  GO TO GOEXTVB WITH VB-40 IN MPAC.
000961: 41,2151           66000                           CADR     GOEXTVB
000962: 41,2152           00050        LST2CON            DEC      40         B-14                       #  FIRST LIST2 VERB (EXTENDED VERB)
000963:
000964: 41,2153           51000        VBFANDIR           INDEX    VERBREG
000965: 41,2154           32156                           CAF      VERBTAB
000966: 41,2155           04640                           TC       BANKJUMP
000967:
000968: 41,2156           62360        VERBTAB            CADR     GODSPALM                              #  VB00 ILLEGAL
000969: 41,2157           62374                           CADR     DSPA                                  #  VB01 DISPLAY OCT COMP 1 (R1)
000970: 41,2160           62402                           CADR     DSPB                                  #  VB02 DISPLAY OCT COMP 2 (R1)
000971: 41,2161           62407                           CADR     DSPC                                  #  VB03 DISPLAY OCT COMP 3 (R1)
000972: 41,2162           62367                           CADR     DSPAB                                 #  VB04 DISPLAY OCT COMP 1,2 (R1,R2)
000973: 41,2163           62362                           CADR     DSPABC                                #  VB05 DISPLAY OCT COMP 1,2,3 (R1,R2,R3)
000974: 41,2164           62532                           CADR     DECDSP                                #  VB06 DECIMAL DISPLAY
000975: 41,2165           61034                           CADR     DSPDPDEC                              #  VB07 DP DECIMAL DISPLAY (R1,R2)
000976: 41,2166           62360                           CADR     GODSPALM                              #  VB08 SPARE
000977: 41,2167           62360                           CADR     GODSPALM                              #  VB09 SPARE


000979: 41,2170           61463                           CADR     DSPALARM                              #  VB10 SPARE
000980: 41,2171           63262                           CADR     MONITOR                               #  VB11 MONITOR OCT COMP 1 (R1)
000981: 41,2172           63262                           CADR     MONITOR                               #  VB12 MONITOR OCT COMP 2 (R1)
000982: 41,2173           63262                           CADR     MONITOR                               #  VB13 MONITOR OCT COMP 3 (R1)
000983: 41,2174           63262                           CADR     MONITOR                               #  VB14 MONITOR OCT COMP 1,2 (R1,R2)
000984: 41,2175           63262                           CADR     MONITOR                               #  VB15 MONITOR OCT COMP 1,2,3 (R1,R2,R3)
000985: 41,2176           63262                           CADR     MONITOR                               #  VB16 MONITOR DECIMAL
000986: 41,2177           63262                           CADR     MONITOR                               #  VB17 MONITOR DP DEC  (R1,R2)
000987: 41,2200           62360                           CADR     GODSPALM                              #  VB18 SPARE
000988: 41,2201           62360                           CADR     GODSPALM                              #  VB19 SPARE
000989: 41,2202           62360                           CADR     GODSPALM                              #  VB20 SPARE
000990: 41,2203           62762                           CADR     ALOAD                                 #  VB21 LOAD COMP 1 (R1)
000991: 41,2204           62773                           CADR     BLOAD                                 #  VB22 LOAD COMP 2 (R2)
000992: 41,2205           63010                           CADR     CLOAD                                 #  VB23 LOAD COMP 3 (R3)
000993: 41,2206           62733                           CADR     ABLOAD                                #  VB24 LOAD COMP 1,2 (R1,R2)
000994: 41,2207           62627                           CADR     ABCLOAD                               #  VB25 LOAD COMP 1,2,3 (R1,R2,R3)
000995: 41,2210           62360                           CADR     GODSPALM                              #  VB26 SPARE
000996: 41,2211           63405                           CADR     DSPFMEM                               #  VB27 FIXED MEMORY DISPLAY
000997:                                                                                                  #  THE FOLLOWING VERBS MAKE NO NOUN TEST
000998: 41,2212           62360                           CADR     GODSPALM                              #  VB28 SPARE
000999: 41,2213           62360                           CADR     GODSPALM                              #  VB29 SPARE
001000: 41,2214           63506        REQEXLOC           CADR     VBRQEXEC                              #  VB30 REQUEST EXECUTIVE
001001: 41,2215           63532                           CADR     VBRQWAIT                              #  VB31 REQUEST WAITLIST
001002: 41,2216           61530                           CADR     VBRESEQ                               #  VB32 RESEQUENCE
001003: 41,2217           61505                           CADR     VBPROC                                #  VB33 PROCEED WITHOUT DATA
001004: 41,2220           61513                           CADR     VBTERM                                #  VB34 TERMINATE CURRENT TEST OR LOAD REQ
001005: 41,2221           63633                           CADR     VBTSTLTS                              #  VB35 TEST LIGHTS
001006: 41,2222           12460                           CADR     SLAP1                                 #  VB36 FRESH START
001007: 41,2223           63450                           CADR     MMCHANG                               #  VB37 CHANGE MAJOR MODE
001008: 41,2224           62360                           CADR     GODSPALM                              #  VB38 SPARE
001009: 41,2225           62360                           CADR     GODSPALM                              #  VB39 SPARE
001010:
001011:
001012:                                                                                                  #  THE LIST2 VERBFAN IS LOCATED IN THE EXTENDED VERB BANK.
001013:


001015:                                                                                                  #  NNADTAB CONTAINS A RELATIVE ADDRESS, IDADDREL(IN LOW 10 BITS), REFERRING
001016:                                                                                                  #  TO WHERE 3 CONSECUTIVE ADDRESSES ARE STORED (IN IDADDTAB).
001017:                                                                                                  #  MIXNOUN GETS DATA AND STORES IN MIXTEMP,+1,+2. IT SETS NOUNADD FOR
001018:                                                                                                  #   MIXTEMP.
001019:
001020: 41,2226           10146        MIXNOUN            CCS      NNADTEM
001021: 41,2227           02233                           TC       +4                                    #  +  IN USE
001022: 41,2230           02360                           TC       GODSPALM                              #  +0  NOT IN USE
001023: 41,2231           02233                           TC       +2                                    #  -  IN USE
001024: 41,2232           02233                           TC       +1                                    #  -0  IN USE
001025: 41,2233           46245                           CS       SIX
001026: 41,2234           61000                           AD       VERBREG
001027: 41,2235           00006                           EXTEND
001028: 41,2236           62240                           BZMF     +2                                    #  VERB L/E 6
001029: 41,2237           02140                           TC       VERBFAN                               #  AVOID MIXNOUN SWAP IF VB NOT = DISPLAY
001030: 41,2240           34752                           CAF      TWO
001031: 41,2241           54117        MIXNN1             TS       DECOUNT
001032: 41,2242           62265                           AD       MIXAD
001033: 41,2243           54145                           TS       NOUNADD                               #  SET NOUNADD TO MIXTEMP + K
001034: 41,2244           50117                           INDEX    DECOUNT                               #  GET IDADDTAB ENTRY FOR COMPONENT K
001035: 41,2245           30150                           CA       IDAD1TEM                              #  OF NOUN.
001036: 41,2246           54122                           TS       NOUNTEM
001037:                                                                                                  #  TEST FOR DP(FOR OCT DISPLAY). IF SO, GET
001038:                                                                                                  #    MINOR PART ONLY.
001039: 41,2247           03064                           TC       SFRUTMIX                              #  GET SF ROUT NUMBER IN A
001040: 41,2250           02266                           TC       DPTEST
001041: 41,2251           02253                           TC       MIXNN2                                #  NO DP
001042: 41,2252           24122                           INCR     NOUNTEM                               #  DP  GET MINOR PART
001043: 41,2253           30122        MIXNN2             CA       NOUNTEM
001044: 41,2254           74356                           MASK     LOW11                                 #  ESUBK (NO DP)  OR (ESUBK)+1    FOR DP
001045: 41,2255           04313                           TC       SETEBANK                              #  SET EBANK, LEAVE EADRES IN A.
001046: 41,2256           50000                           INDEX    A                                     #  PICK UP C(ESUBK)  NOT DP
001047: 41,2257           30000                           CA       0                                     #  OR C((ESUBK)+1)  FOR DP MINOR PART
001048: 41,2260           50145                           INDEX    NOUNADD
001049: 41,2261           56000                           XCH      0                                     #  STORE IN MIXTEM + K
001050: 41,2262           10117                           CCS      DECOUNT
001051: 41,2263           02241                           TC       MIXNN1
001052: 41,2264           02140                           TC       VERBFAN
001053:
001054: 41,2265           00125        MIXAD              TC       MIXTEMP
001055:
001056:
001057:                                                                                                  #  DPTEST   ENTER WITH SF ROUT NUMBER IN A.
001058:                                                                                                  #           RETURNS TO L+1 IF NO DP.
001059:                                                                                                  #           RETURNS TO L+2 IF DP.
001060:
001061: 41,2266           50000        DPTEST             INDEX    A
001062: 41,2267           12270                           TCF      +1
001063: 41,2270           00002                           TC       Q                                     #  OCTAL ONLY  NO DP
001064: 41,2271           00002                           TC       Q                                     #  FRACT NO DP


001066: 41,2272           00002                           TC       Q                                     #  DEG  NO DP
001067: 41,2273           00002                           TC       Q                                     #  ARITH  NO DP
001068: 41,2274           12310                           TCF      DPTEST1                               #  DP1OUT
001069: 41,2275           12310                           TCF      DPTEST1                               #  DP2OUT
001070: 41,2276           00002                           TC       Q                                     #  LRPOSOUT  NO DP (DATA IN CHANNEL 33)
001071: 41,2277           12310                           TCF      DPTEST1                               #  DP3OUT
001072: 41,2300           00002                           TC       Q                                     #  HMS   NO DP
001073: 41,2301           00002                           TC       Q                                     #  M/S   NO DP
001074: 41,2302           12310                           TCF      DPTEST1                               #  DP4OUT
001075: 41,2303           00002                           TC       Q                                     #  ARITH1   NO DP
001076: 41,2304           00002                           TC       Q                                     #  2INTOUT  NO DP TO GET HI PART IN MPAC
001077: 41,2305           00002                           TC       Q                                     #  360-CDU   NO DP
001078: 41,2306           00002                           TC       Q                                     #  RRANGOUT  NO DP
001079: 41,2307           00002                           TC       Q                                     #  RRDOTOUT  NO DP
001080: 41,2310           50002        DPTEST1            INDEX    Q
001081: 41,2311           00001                           TC       1                                     #  RETURN TO L+2
001082:
001083:
001084: 41,2312           34317        REQDATX            CAF      R1D1
001085: 41,2313           12317                           TCF      REQCOM
001086: 41,2314           34320        REQDATY            CAF      R2D1
001087: 41,2315           12317                           TCF      REQCOM
001088: 41,2316           34321        REQDATZ            CAF      R3D1
001089: 41,2317           54776        REQCOM             TS       DSPCOUNT
001090: 41,2320           40002                           CS       Q
001091: 41,2321           55012                           TS       REQRET
001092: 41,2322           04616                           TC       BANKCALL
001093: 41,2323           60545                           CADR     5BLANK
001094: 41,2324           04427                           TC       FLASHON
001095: 41,2325           00136        ENDRQDAT           TC       ENTEXIT
001096:
001097: 41,2326           55001                           TS       NOUNREG
001098: 41,2327           56002        UPDATNN            XCH      Q
001099: 41,2330           54117                           TS       UPDATRET
001100: 41,2331           00006                           EXTEND
001101: 41,2332           32121                           DCA      LODNNLOC                              #  SWITCH BANKS TO NOUN TABLE READING
001102: 41,2333           52006                           DXCH     Z                                     #  ROUTINE.
001103: 41,2334           10146                           CCS      NNADTEM
001104: 41,2335           64753                           AD       ONE                                   #  NORMAL
001105: 41,2336           12341                           TCF      PUTADD
001106: 41,2337           12342                           TCF      PUTADD     +1                         #  MCTBS  DONT CHANGE NOUNADD
001107: 41,2340           12342                           TCF      PUTADD     +1                         #  MCTBI  DONT CHANGE NOUNADD
001108: 41,2341           04303        PUTADD             TC       SETNCADR                              #  ECADR INTO NOUNCADR. SETS EB, NOUNADD.
001109: 41,2342           34361                           CAF      ND1
001110: 41,2343           54776                           TS       DSPCOUNT
001111: 41,2344           31001                           CA       NOUNREG
001112: 41,2345           12354                           TCF      UPDAT1
001113:
001114: 41,2346           55000                           TS       VERBREG
001115: 41,2347           56002        UPDATVB            XCH      Q


001117: 41,2350           54117                           TS       UPDATRET
001118: 41,2351           34360                           CAF      VD1
001119: 41,2352           54776                           TS       DSPCOUNT
001120: 41,2353           31000                           CA       VERBREG
001121: 41,2354           04635        UPDAT1             TC       POSTJUMP                              #  CANT USE SWCALL TO GO TO DSPDECVN,SINCE
001122: 41,2355           61362                           CADR     GOVNUPDT                              #  UPDATVB CAN ITSELF BE CALLED BY SWCALL.
001123: 41,2356           00117                           TC       UPDATRET
001124:
001125:
001126: 41,2357           04145        GOALMCYC           TC       ALMCYCLE                              #  NEEDED BECAUSE BANKJUMP CANT HANDLE F/F.
001127:
001128:
001129: 41,2360           04635        GODSPALM           TC       POSTJUMP
001130: 41,2361           61463                           CADR     DSPALARM
001131:


001133:                                                                                                  #           NOUN   TABLES
001134:                                                                                                  #  NOUN CODE L/40, NORMAL NOUN CASE.  NOUN CODE G/E 40, MIXED NOUN CASE.
001135:                                                                                                  #  FOR NORMAL CASE, NNADTAB CONTAINS ONE       ECADR     FOR EACH NOUN.
001136:                                                                                                  #  +0 INDICATES NOUN NOT USED.   - ENTRY INDICATES MACHINE CADR(E OR F) TO
001137:                                                                                                  #  BE SPECIFIED. -1 INDICATES CHANNEL TO BE SPECIFIED. -0 INDICATES AUGMENT
001138:                                                                                                  #  OF LAST MACHINE CADR SUPPLIED.
001139:
001140:                                                                                                  #  FOR MIXED CASE, NNADTAB CONTAINS ONE INDIRECT ADDRESS(IDADDREL) IN LOW
001141:                                                                                                  #  10 BITS, AND THE COMPONENT CODE NUMBER IN THE HIGH 5 BITS.
001142:
001143:                                                                                                  #  NNTYPTAB IS A PACKED TABLE OF THE FORM MMMMMNNNNNPPPPP.
001144:
001145:                                                                                                  #  FOR THE NORMAL CASE, M-S ARE THE COMPONENT CODE NUMBER.
001146:                                                                                                  #                       N-S ARE THE SF ROUTINE CODE NUMBER.
001147:                                                                                                  #                       P-S ARE THE SF CONSTANT CODE NUMBER.
001148:
001149:                                                                                                  #  MIXED CASE,M-S ARE THE SF CONSTANT3 CODE NUMBER     3 COMPONENT CASE
001150:                                                                                                  #             N-S ARE THE SF CONSTANT2 CODE NUMBER
001151:                                                                                                  #             P-S ARE THE SF CONSTANT1 CODE NUMBER
001152:                                                                                                  #             N-S ARE THE SF CONSTANT2 CODE NUMBER     2 COMPONENT CASE
001153:                                                                                                  #             P-S ARE THE SF CONSTANT1 CODE NUMBER
001154:                                                                                                  #             P-S ARE THE SF CONSTANT1 CODE NUMBER      1 COMPONENT CASE
001155:
001156:                                                                                                  #  THERE IS ALSO AN INDIRECT ADDRESS TABLE(IDADDTAB) FOR MIXED CASE ONLY.
001157:                                                                                                  #  EACH ENTRY CONTAINS ONE ECADR.    IDADDREL IS THE RELATIVE ADDRESS OF
001158:                                                                                                  #  THE FIRST OF THESE ENTRIES.
001159:                                                                                                  #  THERE IS ONE ENTRY IN THIS TABLE FOR EACH COMPONENT OF A MIXED NOUN
001160:                                                                                                  #  THEY ARE LISTED IN ORDER OF ASCENDING K.
001161:
001162:                                                                                                  #  THERE IS ALSO A SCALE FACTOR ROUTINE NUMBER TABLE( RUTMXTAB ) FOR MIXED
001163:                                                                                                  #  CASE ONLY. THERE IS ONE ENTRY PER MIXED NOUN. THE FORM IS,
001164:                                                                                                  #        QQQQQRRRRRSSSSS
001165:                                                                                                  #  Q-S ARE THE SF ROUTINE 3 CODE NUMBER     3 COMPONENT CASE
001166:                                                                                                  #  R-S ARE THE SF ROUTINE 2 CODE NUMBER
001167:                                                                                                  #  S-S ARE THE SF ROUTINE 1 CODE NUMBER
001168:                                                                                                  #  R-S ARE THE SF ROUTINE 2 CODE NUMBER     2 COMPONENT CASE
001169:                                                                                                  #  S-S ARE THE SF ROUTINE 1 CODE NUMBER
001170:
001171:
001172:                                                                                                  #  IN OCTAL DISPLAY AND LOAD (OCT OR DEC) VERBS, EXCLUDE USE OF VERBS WHOSE
001173:                                                                                                  #  COMPONENT NUMBER IS GREATER THAN THE NUMBER OF COMPONENTS IN NOUN.
001174:                                                                                                  #  (ALL MACHINE ADDRESS TO BE SPECIFIED NOUNS ARE 3 COMPONENT.)
001175:
001176:
001177:                                                                                                  #  IN MULTI-COMPONENT LOAD VERBS, NO MIXING OF OCTAL AND DECIMAL DATA
001178:                                                                                                  #  COMPONENT WORDS IS ALLOWED. ALARM IF VIOLATION.
001179:
001180:                                                                                                  #  IN DECIMAL LOADS OF DATA, 5 NUMERICAL CHARACTERS MUST BE KEYED IN
001181:                                                                                                  #  BEFORE EACH ENTER. IF NOT, ALARM.
001182:


001184:                                                                                                  #           DISPLAY  VERBS
001185: 41,2362           44752        DSPABC             CS       TWO
001186: 41,2363           02433                           TC       COMPTEST
001187: 41,2364           50145                           INDEX    NOUNADD
001188: 41,2365           40002                           CS       2
001189: 41,2366           56132                           XCH      BUF        +2
001190: 41,2367           44753        DSPAB              CS       ONE
001191: 41,2370           02433                           TC       COMPTEST
001192: 41,2371           50145                           INDEX    NOUNADD
001193: 41,2372           40001                           CS       1
001194: 41,2373           56131                           XCH      BUF        +1
001195: 41,2374           02452        DSPA               TC       DECTEST
001196: 41,2375           02475                           TC       TSTFORDP
001197: 41,2376           50145                           INDEX    NOUNADD
001198: 41,2377           40000                           CS       0
001199: 41,2400           56130        DSPCOM1            XCH      BUF
001200: 41,2401           02414                           TC       DSPCOM2
001201: 41,2402           44753        DSPB               CS       ONE
001202: 41,2403           02446                           TC       DCOMPTST
001203: 41,2404           50145                           INDEX    NOUNADD
001204: 41,2405           40001                           CS       1
001205: 41,2406           02400                           TC       DSPCOM1
001206: 41,2407           44752        DSPC               CS       TWO
001207: 41,2410           02446                           TC       DCOMPTST
001208: 41,2411           50145                           INDEX    NOUNADD
001209: 41,2412           40002                           CS       2
001210: 41,2413           02400                           TC       DSPCOM1
001211: 41,2414           44752        DSPCOM2            CS       TWO                                   #  A  B  C  AB  ABC
001212: 41,2415           61000                           AD       VERBREG                               #  -1 -0 +1 +2  +3   IN A
001213: 41,2416           10000                           CCS      A                                     #  +0 +0 +0 +1  +2    IN A AFTER CCS
001214: 41,2417           02422                           TC       DSPCOM3
001215: 41,2420           00136                           TC       ENTEXIT
001216: 41,2421           02422                           TC       +1
001217: 41,2422           54122        DSPCOM3            TS       DISTEM                                #  +0,+1,+2 INTO DISTEM
001218: 41,2423           50000                           INDEX    A
001219: 41,2424           34317                           CAF      R1D1
001220: 41,2425           54776                           TS       DSPCOUNT
001221: 41,2426           50122                           INDEX    DISTEM
001222: 41,2427           40130                           CS       BUF
001223: 41,2430           03415                           TC       DSPOCTWD
001224: 41,2431           56122                           XCH      DISTEM
001225: 41,2432           02416                           TC       DSPCOM2    +2
001226:
001227:                                                                                                  #  COMPTEST ALARMS IF COMPONENT NUMBER OF VERB(LOAD OR OCT DISPLAY) IS
001228:                                                                                                  #  GREATER THAN THE HIGHEST COMPONENT NUMBER OF NOUN.
001229: 41,2433           54123        COMPTEST           TS       SFTEMP1                               #  - VERB COMP
001230: 41,2434           22002                           LXCH     Q
001231: 41,2435           02524        COMPTST1           TC       GETCOMP
001232: 41,2436           04331                           TC       LEFT5
001233: 41,2437           76250                           MASK     THREE                                 #  NOUN COMP


001235: 41,2440           60123                           AD       SFTEMP1                               #  NOUN COMP - VERB COMP
001236: 41,2441           10000                           CCS      A
001237: 41,2442           00001                           TC       L                                     #  NOUN COMP G/ VERB COMP
001238: 41,2443           05706                           TC       CCSHOLE
001239: 41,2444           02360                           TC       GODSPALM                              #  NOUN COMP L/ VERB COMP
001240: 41,2445           00001        NDCMPTST           TC       L                                     #  NOUN COMP = VERB COMP
001241:
001242:
001243:                                                                                                  #  DCOMPTST ALARMS IF DECIMAL ONLY BIT (BIT4 OF COMP CODE NUMBER) = 1.
001244:                                                                                                  #  IF NOT, IT PERFORMS REGULAR COMPTEST.
001245: 41,2446           54123        DCOMPTST           TS       SFTEMP1                               #  - VERB COMP
001246: 41,2447           22002                           LXCH     Q
001247: 41,2450           02452                           TC       DECTEST
001248: 41,2451           02435                           TC       COMPTST1
001249:
001250: 41,2452           00006        DECTEST            EXTEND                                         #  ALARMS IF DEC ONLY BIT = 1 (BIT4 OF COMP
001251: 41,2453           22156                           QXCH     MPAC       +2                         #  CODE NUMBER). RETURNS IF NOT.
001252: 41,2454           02524                           TC       GETCOMP
001253: 41,2455           74736                           MASK     BIT14
001254: 41,2456           10000                           CCS      A
001255: 41,2457           02360                           TC       GODSPALM
001256: 41,2460           00156                           TC       MPAC       +2
001257:
001258:
001259: 41,2461           22002        DCTSTCYC           LXCH     Q                                     #  ALARMS AND RECYCLES IF DEC ONLY BIT = 1
001260: 41,2462           02524                           TC       GETCOMP                               #  ( BIT4 OF COMP CODE NUMBER). RETURNS
001261: 41,2463           74736                           MASK     BIT14                                 #  IF NOT.  USED BY LOAD VERBS.
001262: 41,2464           10000                           CCS      A
001263: 41,2465           04145                           TC       ALMCYCLE
001264: 41,2466           00001                           TC       L
001265:
001266:
001267:                                                                                                  #  NOUNTEST ALARMS IF NO-LOAD BIT (BIT5 OF COMP CODE NUMBER) = 1.
001268:                                                                                                  #  IF NOT, IT RETURNS.
001269: 41,2467           22002        NOUNTEST           LXCH     Q
001270: 41,2470           02524                           TC       GETCOMP
001271: 41,2471           10000                           CCS      A
001272: 41,2472           00001                           TC       L
001273: 41,2473           00001                           TC       L
001274: 41,2474           02360                           TC       GODSPALM
001275:
001276:
001277: 41,2475           22002        TSTFORDP           LXCH     Q                                     #  TEST FOR DP. IF SO, GET MINOR PART ONLY.
001278: 41,2476           30146                           CA       NNADTEM
001279: 41,2477           64753                           AD       ONE                                   #  IF NNADTEM = -1, CHANNEL TO BE SPECIFIED
001280: 41,2500           00006                           EXTEND
001281: 41,2501           12513                           BZF      CHANDSP
001282: 41,2502           50140                           INDEX    MIXBR
001283: 41,2503           02503                           TC       +0
001284: 41,2504           02506                           TC       +2                                    #  NORMAL


001286: 41,2505           00001                           TC       L                                     #  MIXED CASE ALREADY HANDLED IN MIXNOUN
001287: 41,2506           03056                           TC       SFRUTNOR
001288: 41,2507           02266                           TC       DPTEST
001289: 41,2510           00001                           TC       L                                     #  NO DP
001290: 41,2511           24145                           INCR     NOUNADD                               #  DP    E+1 INTO NOUNADD FOR MINOR PART.
001291: 41,2512           00001                           TC       L
001292:
001293:
001294: 41,2513           31016        CHANDSP            CA       NOUNCADR
001295: 41,2514           75004                           MASK     LOW9
001296: 41,2515           00006                           EXTEND
001297: 41,2516           50000                           INDEX    A
001298: 41,2517           00000                           READ     0
001299: 41,2520           40000                           CS       A
001300: 41,2521           12400                           TCF      DSPCOM1
001301:
001302:
001303: 41,2522           00147        COMPICK            ADRES    NNTYPTEM
001304: 41,2523           00146                           ADRES    NNADTEM
001305:
001306: 41,2524           50140        GETCOMP            INDEX    MIXBR                                 #  NORMAL                MIXED
001307: 41,2525           32521                           CAF      COMPICK    -1                         #  ADRES NNTYPTEM        ADRES NNADTEM
001308: 41,2526           50000                           INDEX    A
001309: 41,2527           30000                           CA       0                                     #  C(NNTYPTEM)           C(NNADTEM)
001310: 41,2530           74350                           MASK     HI5                                   #  GET HI5 OF NNTYPTAB(NORM)OF NNADTAB(MIX)
001311: 41,2531           00002                           TC       Q
001312:
001313:
001314: 41,2532           02524        DECDSP             TC       GETCOMP
001315: 41,2533           04331                           TC       LEFT5
001316: 41,2534           76250                           MASK     THREE
001317: 41,2535           54117                           TS       DECOUNT                               #  COMP NUMBER INTO DECOUNT
001318: 41,2536           54122        DSPDCGET           TS       DECTEM                                #  PICKS UP DATA
001319: 41,2537           60145                           AD       NOUNADD                               #  DECTEM  1COMP +0, 2COMP +1, 3COMP +2
001320: 41,2540           50000                           INDEX    A
001321: 41,2541           40000                           CS       0
001322: 41,2542           50122                           INDEX    DECTEM
001323: 41,2543           57002                           XCH      XREG                                  #  CANT USE BUF SINCE DMP USES IT.
001324: 41,2544           10122                           CCS      DECTEM
001325: 41,2545           02536                           TC       DSPDCGET                              #  MORE TO GET
001326: 41,2546           34755        DSPDCPUT           CAF      ZERO                                  #  DISPLAYS DATA
001327: 41,2547           54155                           TS       MPAC       +1                         #  DECOUNT 1COMP +0, 2COMP +1, 3COMP +2
001328: 41,2550           54156                           TS       MPAC       +2
001329: 41,2551           50117                           INDEX    DECOUNT
001330: 41,2552           34317                           CAF      R1D1
001331: 41,2553           54776                           TS       DSPCOUNT
001332: 41,2554           50117                           INDEX    DECOUNT
001333: 41,2555           41002                           CS       XREG
001334: 41,2556           54154                           TS       MPAC
001335: 41,2557           03077                           TC       SFCONUM                               #  2X( SF CON NUMB ) IN A


001337: 41,2560           54123                           TS       SFTEMP1
001338: 41,2561           00006                           EXTEND                                         #  SWITCH BANKS TO SF CONSTANT TABLE
001339: 41,2562           32574                           DCA      GTSFOUTL                              #     READING ROUTINE.
001340: 41,2563           52006                           DXCH     Z                                     #  LOADS SFTEMP1, SFTEMP2.
001341: 41,2564           50140                           INDEX    MIXBR
001342: 41,2565           02565                           TC       +0
001343: 41,2566           02571                           TC       DSPSFNOR
001344: 41,2567           03064                           TC       SFRUTMIX
001345: 41,2570           02604                           TC       DECDSP3
001346:
001347: 41,2571           03056        DSPSFNOR           TC       SFRUTNOR
001348: 41,2572           02604                           TC       DECDSP3
001349:
001350: 41,2573     0776                                  EBANK=   DSPCOUNT
001351: 41,2573           02141 64101  GTSFOUTL           2CADR    GTSFOUT
001352:
001353:
001354:
001355: 41,2575           04616        DSPDCEND           TC       BANKCALL                              #  ALL SFOUT ROUTINES END HERE
001356: 41,2576           61271                           CADR     DSPDECWD
001357: 41,2577           10117                           CCS      DECOUNT
001358: 41,2600           02602                           TC       +2
001359: 41,2601           00136                           TC       ENTEXIT
001360: 41,2602           54117                           TS       DECOUNT
001361: 41,2603           02546                           TC       DSPDCPUT                              #  MORE TO DISPLAY
001362:
001363:
001364: 41,2604           50000        DECDSP3            INDEX    A
001365: 41,2605           32607                           CAF      SFOUTABR
001366: 41,2606           04640                           TC       BANKJUMP
001367:
001368: 41,2607           61461        SFOUTABR           CADR     PREDSPAL                              #  ALARM IF DEC DISP WITH OCTAL ONLY NOUN
001369: 41,2610           62575                           CADR     DSPDCEND
001370: 41,2611           60624                           CADR     DEGOUTSF
001371: 41,2612           60742                           CADR     ARTOUTSF
001372: 41,2613           60753                           CADR     DP1OUTSF
001373: 41,2614           60760                           CADR     DP2OUTSF
001374: 41,2615           60644                           CADR     LRPOSOUT
001375: 41,2616           60762                           CADR     DP3OUTSF
001376: 41,2617           65234                           CADR     HMSOUT
001377: 41,2620           65307                           CADR     M/SOUT
001378: 41,2621           60760                           CADR     DP2OUTSF
001379: 41,2622           60747                           CADR     AROUT1SF
001380: 41,2623           60775                           CADR     2INTOUT
001381: 41,2624           60632                           CADR     360-CDUO
001382: 41,2625           60654                           CADR     RRANGOUT
001383: 41,2626           60671                           CADR     RRDOTOUT
001384: 41,2627                        ENDRTOUT           EQUALS
001385:


001387:                                                                                                  #          THE FOLLOWING IS ATYPICAL SF ROUTINE . IT USES MPAC. LEAVES RESU
001388:                                                                                                  #  LTS IN MPAC, MPAC+1. ENDS WITH TC DSPDCEND
001389:
001390:
001391: 40,2624                                           SETLOC   BLANKCON   +1
001392:
001393: 40,2624                                           COUNT*   $$/PIN
001394:                                                                                                  #     DEGOUTSF SCALES BY .18 THE LOW 14 BITS OF ANGLE , ADDING .18 FOR
001395:                                                                                                  #  NUMBERS IN THE NEGATIVE (AGC) RANGE.
001396:
001397: 40,2624           34755        DEGOUTSF           CAF      ZERO
001398: 40,2625           54156                           TS       MPAC       +2                         #  SET INDEX FOR FULL SCALE
001399: 40,2626           02715                           TC       FIXRANGE
001400: 40,2627           02631                           TC       +2                                    #  NO AUGMENT NEEDED (SFTEMP1 AND 2 ARE 0)
001401: 40,2630           02710                           TC       SETAUG                                #  SET AUGMENTER ACCORDING TO C(MPAC +2)
001402: 40,2631           02726                           TC       DEGCOM
001403:
001404:                                                                                                  #  360-CDUO COMPUTES 360 - CDU ANGLE IN MPAC, STORES RESULT IN MPAC AND
001405:                                                                                                  #  GOES TO DEGOUTSF.
001406:
001407: 40,2632           02634        360-CDUO           TC       360-CDU
001408: 40,2633           02624                           TC       DEGOUTSF
001409:
001410: 40,2634           30154        360-CDU            CA       MPAC
001411: 40,2635           74733                           MASK     POSMAX                                #  IF ANGLE IS 0 OR 180 DEGREES, DO NOTHING
001412: 40,2636           00006                           EXTEND
001413: 40,2637           12643                           BZF      360-CDUE
001414: 40,2640           40154                           CS       MPAC                                  #  COMPUTE 360 DEGREES MINUS ANGLE
001415: 40,2641           64753                           AD       ONE
001416: 40,2642           54154                           TS       MPAC
001417: 40,2643           00002        360-CDUE           TC       Q
001418:
001419:                                                                                                  #  LRPOSOUT DISPLAYS +0,1,2,OR 3 (WHOLE) FOR CHANNEL 33,BITS 7-6 = 11,10,
001420:                                                                                                  #  01,00 RESPECTIVELY.
001421:
001422: 40,2644           00006        LRPOSOUT           EXTEND
001423: 40,2645           00033                           READ     CHAN33
001424: 40,2646           00006                           EXTEND
001425: 40,2647           74742                           MP       BIT10                                 #  BITS 7-6 TO BITS 2-1
001426: 40,2650           40000                           COM
001427: 40,2651           76250                           MASK     THREE
001428: 40,2652           54154                           TS       MPAC
001429: 40,2653           02742                           TC       ARTOUTSF                              #  DISPLAY AS WHOLE
001430:
001431:                                                                                                  #  RRANGOUT AND RRDOTOUT CONVERT RR RANGE AND RANGE RATE FROM SP 15 BIT
001432:                                                                                                  #  MAGNITUDE TO DP AND THEN SCALE FOR DISPLAY.
001433:
001434: 40,2654           02700        RRANGOUT           TC       RRSPTODP                              #  CONVERT TO DP.
001435: 40,2655           40110                           CS       RADMODES                              #  BIT 3 OF FLAG12 = HI SCALE
001436: 40,2656           74751                           MASK     BIT3


001438: 40,2657           10000                           CCS      A
001439: 40,2660           02666                           TC       SCALELO                               #  DATA IS IN LO SCALE.
001440: 40,2661           52155                           DXCH     MPAC                                  #  DATA IS IN HI SCALE, MP BY 8.
001441: 40,2662           20001                           DAS      A
001442: 40,2663           20001                           DAS      A
001443: 40,2664           20001                           DAS      A
001444: 40,2665           52155                           DXCH     MPAC
001445: 40,2666           07106        SCALELO            TC       DMP                                   #  SCALE FOR DISPLAY,
001446: 40,2667           00123                           ADRES    SFTEMP1
001447: 40,2670           02754                           TC       L14/OUT                               #  AND GO TO ARITHDP1.
001448:
001449: 40,2671           02700        RRDOTOUT           TC       RRSPTODP                              #  CONVERT TO DP.
001450: 40,2672           00006                           EXTEND
001451: 40,2673           42677                           DCS      BIASRDOT                              #  SUBTRACT BIAS OF 17000 COUNTS.
001452: 40,2674           20155                           DAS      MPAC
001453: 40,2675           02666                           TC       SCALELO                               #  SCALE FOR DISPLAY.
001454: 40,2676           00001 01150  BIASRDOT           2DEC     17000      B-28
001455:
001456:
001457: 40,2700           34733        RRSPTODP           CAF      POSMAX                                #  CONVERT SP 15 BIT MAG TO DP.
001458: 40,2701           70154                           MASK     MPAC
001459: 40,2702           54155                           TS       MPAC       +1
001460: 40,2703           30154                           CA       MPAC
001461: 40,2704           60000                           DOUBLE
001462: 40,2705           74753                           MASK     BIT1
001463: 40,2706           54154                           TS       MPAC
001464: 40,2707           00002                           TC       Q
001465:
001466: 40,2710           00006        SETAUG             EXTEND                                         #  LOADS SFTEMP1 AND SFTEMP2 WITH THE
001467: 40,2711           50156                           INDEX    MPAC       +2                         #  DP AUGMENTER CONSTANT
001468: 40,2712           32737                           DCA      DEGTAB
001469: 40,2713           52124                           DXCH     SFTEMP1
001470: 40,2714           00002                           TC       Q
001471:
001472: 40,2715           10154        FIXRANGE           CCS      MPAC                                  #  IF MPAC IS + RETURN TO L+1
001473: 40,2716           00002                           TC       Q                                     #  IF MPAC IS - RETURN TO L+2 AFTER
001474: 40,2717           00002                           TC       Q                                     #  MASKING OUT THE SIGN BIT
001475: 40,2720           12721                           TCF      +1
001476: 40,2721           44735                           CS       BIT15
001477: 40,2722           70154                           MASK     MPAC
001478: 40,2723           54154                           TS       MPAC
001479: 40,2724           50002                           INDEX    Q
001480: 40,2725           00001                           TC       1
001481:
001482: 40,2726           00006        DEGCOM             EXTEND                                         #  LOADS MULTIPLIER , DOES SHORTMP, AND
001483: 40,2727           50156                           INDEX    MPAC       +2                         #  ADDS AUGMENTER.


001485: 40,2730           32737                           DCA      DEGTAB
001486: 40,2731           52155                           DXCH     MPAC                                  #  ADJUSTED ANGLE IN A
001487: 40,2732           07312                           TC       SHORTMP
001488: 40,2733           52124                           DXCH     SFTEMP1
001489: 40,2734           20155                           DAS      MPAC
001490: 40,2735           02745                           TC       SCOUTEND
001491:
001492:
001493: 40,2736           05605        DEGTAB             OCT      05605                                 #  HI PART OF     .18
001494: 40,2737           03656                           OCT      03656                                 #  LOW PART OF    .18
001495: 40,2740           16314                           OCT      16314                                 #  HI PART OF     .45
001496: 40,2741           31463                           OCT      31463                                 #  LO PART OF     .45
001497:
001498: 40,2742           52124        ARTOUTSF           DXCH     SFTEMP1                               #  ASSUMES POINT AT LEFT OF DP SFCON
001499: 40,2743           52155                           DXCH     MPAC
001500: 40,2744           04415                           TC       PRSHRTMP                              #  IF C(A) = -0, SHORTMP FAILS TO GIVE -0.
001501: 40,2745           04635        SCOUTEND           TC       POSTJUMP
001502: 40,2746           62575                           CADR     DSPDCEND
001503:
001504: 40,2747           52124        AROUT1SF           DXCH     SFTEMP1                               #  ASSUMES POINT BETWEEN HI AND LO PARTS OF
001505: 40,2750           52155                           DXCH     MPAC                                  #  DP SFCON. SHIFTS RESULTS LEFT 14, BY
001506: 40,2751           04415                           TC       PRSHRTMP                              #  TAKING RESULTS FROM MPAC+1, MPAC+2.
001507: 40,2752           02754                           TC       L14/OUT
001508:
001509:
001510: 40,2753           02766        DP1OUTSF           TC       DPOUT                                 #  SCALES MPAC, MPAC +1 BY DP SCALE FACTOR
001511: 40,2754           56156        L14/OUT            XCH      MPAC       +2                         #  IN SFTEMP1, SFTEMP2. THEN SCALE RESULT
001512: 40,2755           56155                           XCH      MPAC       +1                         #  BY B14.
001513: 40,2756           54154                           TS       MPAC
001514: 40,2757           02745                           TC       SCOUTEND
001515:
001516:
001517: 40,2760           02766        DP2OUTSF           TC       DPOUT                                 #  SCALES MPAC , MPAC +1 BY DP SCALE FACTOR
001518: 40,2761           02745                           TC       SCOUTEND
001519:
001520:
001521: 40,2762           02766        DP3OUTSF           TC       DPOUT                                 #  ASSUMES POINT BETWEEN BITS 7-8 OF HIGH
001522: 40,2763           36245                           CAF      SIX                                   #  LEFT BY 7, ROUNDS MPAC+2 INTO MPAC+1.
001523: 40,2764           03216                           TC       TPLEFTN                               #  SHIFT LEFT 7.
001524: 40,2765           02745                           TC       SCOUTEND
001525:
001526:
001527: 40,2766     0162               MPAC+6             =        MPAC       +6                         #  USE MPAC +6 INSTEAD OF OVFIND
001528:
001529: 40,2766           56002        DPOUT              XCH      Q
001530: 40,2767           54162                           TS       MPAC+6
001531: 40,2770           03012                           TC       READLO                                #  GET FRESH DATA FOR BOTH HI AND LO.
001532: 40,2771           07262                           TC       TPAGREE                               #  MAKE DP DATA AGREE
001533: 40,2772           07106                           TC       DMP
001534: 40,2773           00123                           ADRES    SFTEMP1


001536: 40,2774           00162                           TC       MPAC+6
001537:                                                                                                  #  THE FOLLOWING ROUTINE DISPLAYS TWO CONTIGUOUS SP POSITIVE INTEGERS
001538:                                                                                                  #  AS TWO POSITIVE DECIMAL INTEGERS IN RXD1-RXD2 AND RXD4-RXD5 (RXD3 IS
001539:                                                                                                  #  BLANKED). THE INTEGER IN THE LOWER NUMBERED ADDRESS IS DISPLAYED IN
001540:                                                                                                  #  RXD1-RXD2.
001541:
001542: 40,2775           02545        2INTOUT            TC       5BLANK                                #  TO BLANK RXD3
001543: 40,2776           02422                           TC       +ON                                   #  TURN ON + SIGN
001544: 40,2777           30154                           CA       MPAC
001545: 40,3000           03351                           TC       DSPDECVN                              #  DISPLAY 1ST INTEGER (LIKE VERB AND NOUN)
001546: 40,3001           46250                           CS       THREE
001547: 40,3002           50117                           INDEX    DECOUNT
001548: 40,3003           64317                           AD       R1D1                                  #  RXD4
001549: 40,3004           54776                           TS       DSPCOUNT
001550: 40,3005           03012                           TC       READLO                                #  GET 2ND INTEGER
001551: 40,3006           30155                           CA       MPAC       +1
001552: 40,3007           03351                           TC       DSPDECVN                              #  DISPLAY 2ND INTEGER (LIKE VERB AND NOUN)
001553: 40,3010           04635                           TC       POSTJUMP
001554: 40,3011           62577                           CADR     DSPDCEND   +2
001555:
001556:
001557:                                                                                                  #  READLO PICKS UP FRESH DATA FOR BOTH HI AND LO AND LEAVES IT IN
001558:                                                                                                  #  MPAC, MPAC+1. THIS IS NEEDED FOR TIME DISPLAY. IT ZEROES MPAC+2, BUT
001559:                                                                                                  #  DOES NOT FORCE TPAGREE.
001560:
001561: 40,3012           56002        READLO             XCH      Q
001562: 40,3013           54144                           TS       TEM4
001563: 40,3014           50140                           INDEX    MIXBR
001564: 40,3015           03015                           TC       +0
001565: 40,3016           03032                           TC       RDLONOR
001566: 40,3017           50117                           INDEX    DECOUNT
001567: 40,3020           30150                           CA       IDAD1TEM                              #  GET IDADDTAB ENTRY FOR COMP K OF NOUN.
001568: 40,3021           74356                           MASK     LOW11                                 #  E SUBK
001569: 40,3022           04313                           TC       SETEBANK                              #  SET EB, LEAVE EADRES IN A.
001570: 40,3023           00006        READLO1            EXTEND                                         #  MIXED         NORMAL
001571: 40,3024           50000                           INDEX    A                                     #  C(ESUBK)      C(E)
001572: 40,3025           30001                           DCA      0                                     #  C((E SUBK)+1)      C(E+1)
001573: 40,3026           52155                           DXCH     MPAC
001574: 40,3027           34755                           CAF      ZERO
001575: 40,3030           54156                           TS       MPAC       +2
001576: 40,3031           00144                           TC       TEM4
001577:
001578: 40,3032           30145        RDLONOR            CA       NOUNADD                               #  E
001579: 40,3033           03023        ENDRDLO            TC       READLO1
001580:


001582: 42,3234                                           BANK     42
001583: 42,2000                                           SETLOC   PINBALL3
001584: 42,2000                                           BANK
001585:
001586: 42,3234                                           COUNT*   $$/PIN
001587: 42,3234           04616        HMSOUT             TC       BANKCALL                              #  READ FRESH DATA FOR HI AND LO INTO MPAC,
001588: 42,3235           61012                           CADR     READLO                                #  MPAC+1.
001589: 42,3236           07262                           TC       TPAGREE                               #  MAKE DP DATA AGREE
001590: 42,3237           03423                           TC       SEPSECNR                              #  LEAVE FRACT SEC/60 IN MPAC, MPAC+1.LEAVE
001591:                                                                                                  #  WHOLE MIN IN BIT13 OF LOTEMOUT AND ABOVE
001592: 42,3240           07106                           TC       DMP                                   #  USE ONLY FRACT SEC/60 MOD 60
001593: 42,3241           03275                           ADRES    SECON2                                #  MULT BY .06
001594: 42,3242           34321                           CAF      R3D1                                  #  GIVES CENTI-SEC/10EXP5 MOD 60
001595: 42,3243           54776                           TS       DSPCOUNT
001596: 42,3244           04616                           TC       BANKCALL                              #  DISPLAY SEC MOD 60
001597: 42,3245           61271                           CADR     DSPDECWD
001598: 42,3246           03441                           TC       SEPMIN                                #  REMOVE REST OF SECONDS
001599: 42,3247           33277                           CAF      MINCON2                               #  LEAVE FRACT MIN/60 IN MPAC+1. LEAVE
001600: 42,3250           56154                           XCH      MPAC                                  #  WHOLE HOURS IN MPAC.
001601: 42,3251           55006                           TS       HITEMOUT                              #  SAVE WHOLE HOURS.
001602: 42,3252           33300                           CAF      MINCON2    +1
001603: 42,3253           56155                           XCH      MPAC       +1                         #  USE ONLY FRACT MIN/60 MOD 60
001604: 42,3254           04415                           TC       PRSHRTMP                              #  IF C(A) = -0, SHORTMP FAILS TO GIVE -0.
001605:                                                                                                  #  MULT BY .0006
001606: 42,3255           34320                           CAF      R2D1                                  #  GIVES MIN/10EXP5 MOD 60
001607: 42,3256           54776                           TS       DSPCOUNT
001608: 42,3257           04616                           TC       BANKCALL                              #  DISPLAY MIN MOD 60
001609: 42,3260           61271                           CADR     DSPDECWD
001610: 42,3261           00006                           EXTEND                                         #  MINUTES, SECONDS HAVE BEEN REMOVED
001611: 42,3262           33304                           DCA      HRCON1
001612: 42,3263           52155                           DXCH     MPAC
001613: 42,3264           31006                           CA       HITEMOUT                              #  USE WHOLE HOURS
001614: 42,3265           04415                           TC       PRSHRTMP                              #  IF C(A) = -0, SHORTMP FAILS TO GIVE -0.
001615:                                                                                                  #  MULT BY .16384
001616: 42,3266           34317                           CAF      R1D1                                  #  GIVES HOURS/10EXP5
001617: 42,3267           54776                           TS       DSPCOUNT
001618: 42,3270           04616                           TC       BANKCALL                              #  USE REGULAR DSPDECWD, WITH ROUND OFF.
001619: 42,3271           61271                           CADR     DSPDECWD
001620: 42,3272           00136                           TC       ENTEXIT
001621:
001622: 42,3273           25660 31742  SECON1             2DEC*    1.666666666 E-4        B12*            #  2EXP12/6000
001623:
001624: 42,3275           01727        SECON2             OCT      01727                                 #  .06 FOR SECONDS DISPLAY
001625: 42,3276           01217                           OCT      01217
001626: 42,3277           00011        MINCON2            OCT      00011                                 #  .0006 FOR MINUTES DISLPAY
001627: 42,3300           32445                           OCT      32445
001628: 42,3301           02104        MINCON1            OCT      02104                                 #  .066..66 UPPED BY 2EXP-28
001629: 42,3302           10422                           OCT      10422
001630: 42,3303           05174 13261  HRCON1             2DEC     .16384
001631:


001633: 42,3305           00000                           OCT      00000
001634: 42,3306           00062        RNDCON             OCT      00062                                 #  .5 SEC
001635:
001636:
001637: 42,3307           04616        M/SOUT             TC       BANKCALL                              #  READ FRESH DATA FOR HI AND LO INTO MPAC,
001638: 42,3310           61012                           CADR     READLO                                #  MPAC+1.
001639: 42,3311           07262                           TC       TPAGREE                               #  MAKE DP DATA AGREE
001640: 42,3312           10154                           CCS      MPAC                                  #  IF MAG OF (MPAC, MPAC+1) G/ 59 M 59 S,
001641: 42,3313           03315                           TC       +2                                    #  DISPLAY 59B59, WITH PROPER SIGN.
001642: 42,3314           03346                           TC       M/SNORM                               #  MPAC = +0. L/ 59M58.5S
001643: 42,3315           63403                           AD       M/SCON1                               #  - HI PART OF (59M58.5S) +1  FOR CCS
001644: 42,3316           10000                           CCS      A                                     #  MAG OF MPAC - HI PART OF (59M58.5S)
001645: 42,3317           03332                           TC       M/SLIMIT                              #  G/ 59M58.5S
001646: 42,3320           03346                           TC       M/SNORM                               #  ORIGINAL MPAC = -0. L/ 59M58.5S
001647: 42,3321           03346                           TC       M/SNORM                               #  L/ 59M58.5S
001648: 42,3322           10155                           CCS      MPAC       +1                         #  MAG OF MPAC = HI PART OF 59M58.5S
001649: 42,3323           03325                           TC       +2
001650: 42,3324           03346                           TC       M/SNORM                               #  MPAC+1 = +0. L/ 59M58.5S
001651: 42,3325           63404                           AD       M/SCON2                               #  - LO PART OF (59M58.5S) +1  FOR CCS
001652: 42,3326           10000                           CCS      A                                     #  MAG OF MPAC+1 - LO PART OF (59M58.5S)
001653: 42,3327           03332                           TC       M/SLIMIT                              #  G/ 59M58.5S
001654: 42,3330           03346                           TC       M/SNORM                               #  ORIGINAL MPAC+1 = -0. L/ 59M58.5S
001655: 42,3331           03346                           TC       M/SNORM                               #  L/ 59M58.5S
001656: 42,3332           10154        M/SLIMIT           CCS      MPAC                                  #  = 59M58.5S    LIMIT
001657: 42,3333           33406                           CAF      M/SCON3                               #  MPAC CANNOT BE +/- 0 AT THIS POINT.
001658: 42,3334           03343                           TC       +LIMIT                                #  FORCE MPAC, MPAC+1 TO +/- 59M59.5S
001659: 42,3335           43406                           CS       M/SCON3
001660: 42,3336           54154                           TS       MPAC                                  #  WILL DISPLAY 59M59S IN DSPDECNR
001661: 42,3337           43407                           CS       M/SCON3    +1
001662: 42,3340           54155        LIMITCOM           TS       MPAC       +1
001663: 42,3341           33405                           CAF      NORMADR                               #  SET RETURN TO M/SNORM+1.
001664: 42,3342           03424                           TC       SEPSECNR   +1
001665: 42,3343           54154        +LIMIT             TS       MPAC
001666: 42,3344           33407                           CAF      M/SCON3    +1
001667: 42,3345           03340                           TC       LIMITCOM
001668: 42,3346           03410        M/SNORM            TC       SEPSEC                                #  LEAVE FRACT SEC/60 IN MPAC,MPAC+1. LEAVE
001669:                                                                                                  #  WHOLE MIN IN BIT13 OF LOTEMOUT AND ABOVE
001670: 42,3347           33401                           CAF      HISECON                               #  USE ONLY FRACT SEC/60 MOD 60
001671: 42,3350           07312                           TC       SHORTMP                               #  MULT BY .6 + 2EXP-14
001672: 42,3351           46250                           CS       THREE                                 #  GIVES SEC/100 MOD 60
001673: 42,3352           26776                           ADS      DSPCOUNT                              #  DSPCOUNT ALREADY SET TO RXD1
001674: 42,3353           04616                           TC       BANKCALL                              #  DISPLAY SEC MOD 60 IN D4D5.
001675: 42,3354           61331                           CADR     DSPDC2NR
001676: 42,3355           34755                           CAF      ZERO
001677: 42,3356           54124                           TS       CODE
001678: 42,3357           44752                           CS       TWO
001679: 42,3360           50117                           INDEX    DECOUNT
001680: 42,3361           64317                           AD       R1D1                                  #  RXD3
001681: 42,3362           54143                           TS       COUNT
001682: 42,3363           04616                           TC       BANKCALL                              #  BLANK MIDDLE CHAR


001684: 42,3364           61365                           CADR     DSPIN
001685: 42,3365           03441                           TC       SEPMIN                                #  REMOVE REST OF SECONDS
001686: 42,3366           56155                           XCH      MPAC       +1                         #  LEAVE FRACT MIN/60 IN MPAC+1
001687: 42,3367           00006                           EXTEND                                         #  USE ONLY FRACT MIN/60 MOD 60
001688: 42,3370           73402                           MP       HIMINCON                              #  MULT BY .6 + 2EXP-7
001689: 42,3371           52155                           DXCH     MPAC                                  #  GIVES MIN/100 MOD 60
001690: 42,3372           50117                           INDEX    DECOUNT
001691: 42,3373           34317                           CAF      R1D1                                  #  RXD1
001692: 42,3374           54776                           TS       DSPCOUNT
001693: 42,3375           04616                           TC       BANKCALL                              #  DISPLAY MIN MOD 60 IN D1D2.
001694: 42,3376           61331                           CADR     DSPDC2NR
001695: 42,3377           04635                           TC       POSTJUMP
001696: 42,3400           62577                           CADR     DSPDCEND   +2
001697:
001698: 42,3401           23147        HISECON            OCT      23147                                 #  .6 + 2EXP-14
001699: 42,3402           23346        HIMINCON           OCT      23346                                 #  .6 + 2EXP-7
001700:
001701: 42,3403           77753        M/SCON1            OCT      77753                                 #  - HI PART OF (59M58.5S) +1
001702: 42,3404           41126        M/SCON2            OCT      41126                                 #  - LO PART OF (59M58.5S) +1
001703: 42,3405           03347        NORMADR            ADRES    M/SNORM    +1
001704: 42,3406           00025        M/SCON3            OCT      00025                                 #  59M 59.5S
001705: 42,3407           37016                           OCT      37016
001706:
001707:
001708: 42,3410           10155        SEPSEC             CCS      MPAC       +1                         #  IF +, ROUND BY ADDING .5 SEC
001709: 42,3411           13420                           TCF      POSEC                                 #  IF -, ROUND BY SUBTRACTING .5 SEC
001710: 42,3412           13420                           TCF      POSEC                                 #  FINDS TIME IN MPAC, MPAC+1
001711: 42,3413           13414                           TCF      +1                                    #  ROUNDS OFF BY +/- .5 SEC
001712: 42,3414           00006                           EXTEND                                         #  LEAVES WHOLE MIN IN BIT13 OF
001713: 42,3415           43306                           DCS      RNDCON     -1                         #  LOTEMOUT AND ABOVE.
001714: 42,3416           20155        SEPSEC1            DAS      MPAC                                  #  LEAVES FRACT SEC/60 IN MPAC, MPAC+1.
001715: 42,3417           13423                           TCF      SEPSECNR
001716: 42,3420           00006        POSEC              EXTEND
001717: 42,3421           33306                           DCA      RNDCON     -1
001718: 42,3422           13416                           TCF      SEPSEC1
001719: 42,3423           56002        SEPSECNR           XCH      Q                                     #  THIS ENTRY AVOIDS ROUNDING BY .5 SEC
001720: 42,3424           54144                           TS       SEPSCRET
001721: 42,3425           07106                           TC       DMP                                   #  MULT BY 2EXP12/6000
001722: 42,3426           03273                           ADRES    SECON1                                #  GIVES FRACT SEC/60 IN BIT12 OF MPAC+1
001723: 42,3427           00006                           EXTEND                                         #  AND BELOW.
001724: 42,3430           30155                           DCA      MPAC                                  #  SAVE MINUTES AND HOURS
001725: 42,3431           53007                           DXCH     HITEMOUT
001726: 42,3432           04404                           TC       TPSL1
001727: 42,3433           04404                           TC       TPSL1                                 #  GIVES FRACT SEC/60 IN MPAC+1, MPAC+2.
001728: 42,3434           34755                           CAF      ZERO
001729: 42,3435           56156                           XCH      MPAC       +2                         #  LEAVE FRACT SEC/60 IN MPAC, MPAC+1.
001730: 42,3436           56155                           XCH      MPAC       +1
001731: 42,3437           56154                           XCH      MPAC
001732: 42,3440           00144                           TC       SEPSCRET
001733:


001735: 42,3441           56002        SEPMIN             XCH      Q                                     #  FINDS WHOLE MINUTES IN BIT13
001736: 42,3442           54144                           TS       SEPMNRET                              #  OF LOTEMOUT AND ABOVE.
001737: 42,3443           31007                           CA       LOTEMOUT                              #  REMOVES REST OF SECONDS.
001738: 42,3444           00006                           EXTEND                                         #  LEAVES FRACT MIN/60 IN MPAC+1.
001739: 42,3445           74751                           MP       BIT3                                  #  LEAVES WHOLE HOURS IN MPAC.
001740: 42,3446           00006                           EXTEND                                         #  SR 12, THROW AWAY LP.
001741: 42,3447           74737                           MP       BIT13                                 #  SR 2, TAKE FROM LP. = SL 12.
001742: 42,3450           22155                           LXCH     MPAC       +1                         #  THIS FORCES BITS 12-1 TO 0 IF +,
001743:                                                                                                  #  FORCES BITS 12-1 TO 1 IF -.
001744: 42,3451           31006                           CA       HITEMOUT
001745: 42,3452           54154                           TS       MPAC
001746: 42,3453           07106                           TC       DMP                                   #  MULT BY 1/15
001747: 42,3454           03301                           ADRES    MINCON1                               #  GIVES FRACT MIN/60 IN MPAC+1.
001748: 42,3455           00144        ENDSPMIN           TC       SEPMNRET                              #  GIVES WHOLE HOURS IN MPAC.
001749:
001750:
001751:                                                                                                  #  THIS IS A SPECIAL PURPOSE VERB FOR DISPLAYING A DOUBLE PRECISION AGC
001752:                                                                                                  #  WORD AS 10 DECIMAL DIGITS ON THE AGC DISPLAY PANEL.  IT CAN BE USED WITH
001753:                                                                                                  #  ANY NOUN, EXCEPT MIXED NOUNS. IT DISPLAYS THE CONTENTS
001754:                                                                                                  #  OF THE REGISTER NOUNADD IS POINTING TO .  IF USED WITH NOUNS WHICH ARE
001755:                                                                                                  #  INHERENTLY NOT DP SUCH AS THE CDU COUNTERS THE DISPLAY WILL BE GARBAGE.
001756:                                                                                                  #  DISPLAY IS IN R1 AND R2 ONLY WITH THE SIGN IN R1.
001757:
001758:
001759: 40,3034                                           SETLOC   ENDRDLO    +1
001760:
001761: 40,3034                                           COUNT*   $$/PIN
001762: 40,3034           50140        DSPDPDEC           INDEX    MIXBR
001763: 40,3035           03035                           TC       +0
001764: 40,3036           03040                           TC       +2                                    #  NORMAL NOUN
001765: 40,3037           03463                           TC       DSPALARM
001766: 40,3040           00006                           EXTEND
001767: 40,3041           50145                           INDEX    NOUNADD
001768: 40,3042           30001                           DCA      0
001769: 40,3043           52155                           DXCH     MPAC
001770: 40,3044           34317                           CAF      R1D1
001771: 40,3045           54776                           TS       DSPCOUNT
001772: 40,3046           34755                           CAF      ZERO
001773: 40,3047           54156                           TS       MPAC       +2
001774: 40,3050           07262                           TC       TPAGREE
001775: 40,3051           03336                           TC       DSP2DEC
001776: 40,3052           00136        ENDDPDEC           TC       ENTEXIT
001777:


001779:                                                                                                  #  LOAD VERBS           IF ALARM CONDITION IS DETECTED DURING EXECUTE,
001780:                                                                                                  #  CHECK FAIL LIGHT IS TURNED ON AND ENDOFJOB. IF ALARM CONDITION IS
001781:                                                                                                  #  DETECTED DURING ENTER OF DATA, CHECK FAIL IS TURNED ON AND IT RECYCLES
001782:                                                                                                  #  TO EXECUTE  OF ORIGINAL LOAD VERB. RECYCLE CAUSED BY  1) DECIMAL MACHINE
001783:                                                                                                  #  CADR  2) MIXTURE OF OCTAL/DECIMAL DATA  3) OCTAL DATA INTO DECIMAL
001784:                                                                                                  #  ONLY NOUN  4) DEC DATA INTO OCT ONLY NOUN  5) DATA TOO LARGE FOR SCALE
001785:                                                                                                  #  6) FEWER THAN 3 DATA WORDS LOADED FOR HRS, MIN, SEC NOUN.8(2)-(6) ALARM
001786:                                                                                                  #  AND RECYCLE OCCUR AT FINAL ENTER OF SET. (1) ALARM AND RECYCLE OCCUR AT
001787:                                                                                                  #  ENTER OF CADR.
001788:
001789:
001790: 41,2627                                           SETLOC   ENDRTOUT
001791:
001792: 41,2627                                           COUNT*   $$/PIN
001793: 41,2627           44752        ABCLOAD            CS       TWO
001794: 41,2630           02433                           TC       COMPTEST
001795: 41,2631           02467                           TC       NOUNTEST                              #  TEST IF NOUN CAN BE LOADED.
001796: 41,2632           33036                           CAF      VBSP1LD
001797: 41,2633           02346                           TC       UPDATVB    -1
001798: 41,2634           02312                           TC       REQDATX
001799: 41,2635           33037                           CAF      VBSP2LD
001800: 41,2636           02346                           TC       UPDATVB    -1
001801: 41,2637           02314                           TC       REQDATY
001802: 41,2640           33040                           CAF      VBSP3LD
001803: 41,2641           02346                           TC       UPDATVB    -1
001804: 41,2642           02316                           TC       REQDATZ
001805:
001806:
001807: 41,2643           46245        PUTXYZ             CS       SIX                                   #  TEST THAT THE 3 DATA WORDS LOADED ARE
001808: 41,2644           03041                           TC       ALLDC/OC                              #  ALL DEC OR ALL OCT.
001809: 41,2645           00006                           EXTEND
001810: 41,2646           32121                           DCA      LODNNLOC                              #  SWITCH BANKS TO NOUN TABLE READING
001811: 41,2647           52006                           DXCH     Z                                     #  ROUTINE.
001812: 41,2650           34755                           CAF      ZERO                                  #  X COMP
001813: 41,2651           03125                           TC       PUTCOM
001814: 41,2652           50145                           INDEX    NOUNADD
001815: 41,2653           54000                           TS       0
001816: 41,2654           34753                           CAF      ONE                                   #  Y COMP
001817: 41,2655           03125                           TC       PUTCOM
001818: 41,2656           50145                           INDEX    NOUNADD
001819: 41,2657           54001                           TS       1
001820: 41,2660           34752                           CAF      TWO                                   #  Z COMP
001821: 41,2661           03125                           TC       PUTCOM
001822: 41,2662           50145                           INDEX    NOUNADD
001823: 41,2663           54002                           TS       2
001824: 41,2664           44757                           CS       SEVEN                                 #  IF NOUN 7 HAS JUST BEEN LOADED, SET
001825: 41,2665           61001                           AD       NOUNREG                               #   FLAG BITS AS SPECIFIED.
001826: 41,2666           00006                           EXTEND
001827: 41,2667           12671                           BZF      +2
001828: 41,2670           03025                           TC       LOADLV


001830: 41,2671           00004                           INHINT
001831: 41,2672           44763                           CS       OCT30                                 #  IS IT A CHANNEL (30 OR UNDER)
001832: 41,2673           61002                           AD       XREG
001833: 41,2674           00006                           EXTEND
001834: 41,2675           62705                           BZMF     CHANBITS                              #  YES
001835:
001836: 41,2676           31002                           CA       XREG                                  #  ECADR OF ERASABLE CELL
001837: 41,2677           04304                           TC       SETNCADR   +1                         #  SET EBANK, NOUNADD
001838:
001839: 41,2700           50145                           INDEX    NOUNADD
001840: 41,2701           30000                           CA       0
001841: 41,2702           54001                           TS       L
001842: 41,2703           34753                           CAF      ONE
001843: 41,2704           55002                           TS       XREG                                  #  MAKE IT LOOK LIKE A CHANNEL FOR A WHILE
001844:
001845: 41,2705           64361        CHANBITS           AD       OCT21
001846: 41,2706           00006                           EXTEND
001847: 41,2707           12731                           BZF      BITSOFF2                              #  DONT TOUCH CHAN7 (SUPERBANK)
001848:
001849: 41,2710           31004                           CA       ZREG
001850: 41,2711           00006                           EXTEND
001851: 41,2712           62720                           BZMF     BITSOFF                               #  R3 IS ZERO FOR OFF, NONZERO FOR ON
001852:
001853: 41,2713           31003                           CA       YREG
001854: 41,2714           00006                           EXTEND
001855: 41,2715           51002                           INDEX    XREG
001856: 41,2716           05000                           WOR      0
001857: 41,2717           12724                           TCF      BITSOFF1
001858:
001859: 41,2720           41003        BITSOFF            CS       YREG
001860: 41,2721           00006                           EXTEND
001861: 41,2722           51002                           INDEX    XREG
001862: 41,2723           03000                           WAND     0
001863:
001864: 41,2724           11002        BITSOFF1           CCS      XREG                                  #  WAS IT REALLY A CHANNEL
001865: 41,2725           10000                           CCS      A
001866: 41,2726           12731                           TCF      BITSOFF2                              #  YES
001867:
001868: 41,2727           50145                           INDEX    NOUNADD
001869: 41,2730           22000                           LXCH     0
001870:
001871: 41,2731           00003        BITSOFF2           RELINT
001872: 41,2732           03025                           TC       LOADLV
001873:
001874: 41,2733     4763               OCT30              =        BITS4&5
001875: 41,2733           44753        ABLOAD             CS       ONE
001876: 41,2734           02433                           TC       COMPTEST
001877: 41,2735           02467                           TC       NOUNTEST                              #  TEST IF NOUN CAN BE LOADED.
001878: 41,2736           33036                           CAF      VBSP1LD
001879: 41,2737           02346                           TC       UPDATVB    -1


001881: 41,2740           02312                           TC       REQDATX
001882: 41,2741           33037                           CAF      VBSP2LD
001883: 41,2742           02346                           TC       UPDATVB    -1
001884: 41,2743           02314                           TC       REQDATY
001885: 41,2744           44756        PUTXY              CS       FIVE                                  #  TEST THAT THE 2 DATA WORDS LOADED ARE
001886: 41,2745           03041                           TC       ALLDC/OC                              #  ALL DEC OR ALL OCT.
001887: 41,2746           00006                           EXTEND
001888: 41,2747           32121                           DCA      LODNNLOC                              #  SWITCH BANKS TO NOUN TABLE READING
001889: 41,2750           52006                           DXCH     Z                                     #  ROUTINE.
001890: 41,2751           34755                           CAF      ZERO                                  #  X COMP
001891: 41,2752           03125                           TC       PUTCOM
001892: 41,2753           50145                           INDEX    NOUNADD
001893: 41,2754           54000                           TS       0
001894: 41,2755           34753                           CAF      ONE                                   #  Y COMP
001895: 41,2756           03125                           TC       PUTCOM
001896: 41,2757           50145                           INDEX    NOUNADD
001897: 41,2760           54001                           TS       1
001898: 41,2761           03025                           TC       LOADLV
001899:
001900: 41,2762           02312        ALOAD              TC       REQDATX
001901: 41,2763           00006                           EXTEND
001902: 41,2764           32121                           DCA      LODNNLOC                              #  SWITCH BANKS TO NOUN TABLE READING
001903: 41,2765           52006                           DXCH     Z                                     #  ROUTINE.
001904: 41,2766           34755                           CAF      ZERO                                  #  X COMP
001905: 41,2767           03125                           TC       PUTCOM
001906: 41,2770           50145                           INDEX    NOUNADD
001907: 41,2771           54000                           TS       0
001908: 41,2772           03025                           TC       LOADLV
001909:
001910: 41,2773           44753        BLOAD              CS       ONE
001911: 41,2774           02433                           TC       COMPTEST
001912: 41,2775           34735                           CAF      BIT15                                 #  SET CLPASS FOR PASS0 ONLY
001913: 41,2776           55014                           TS       CLPASS
001914: 41,2777           02314                           TC       REQDATY
001915: 41,3000           00006                           EXTEND
001916: 41,3001           32121                           DCA      LODNNLOC                              #  SWITCH BANKS TO NOUN TABLE READING
001917: 41,3002           52006                           DXCH     Z                                     #  ROUTINE.
001918: 41,3003           34753                           CAF      ONE
001919: 41,3004           03125                           TC       PUTCOM
001920: 41,3005           50145                           INDEX    NOUNADD
001921: 41,3006           54001                           TS       1
001922: 41,3007           03025                           TC       LOADLV
001923:
001924: 41,3010           44752        CLOAD              CS       TWO
001925: 41,3011           02433                           TC       COMPTEST
001926: 41,3012           34735                           CAF      BIT15                                 #  SET CLPASS FOR PASS0 ONLY
001927: 41,3013           55014                           TS       CLPASS
001928: 41,3014           02316                           TC       REQDATZ
001929: 41,3015           00006                           EXTEND
001930: 41,3016           32121                           DCA      LODNNLOC                              #  SWITCH BANKS TO NOUN TABLE READING


001932: 41,3017           52006                           DXCH     Z                                     #  ROUTINE.
001933: 41,3020           34752                           CAF      TWO
001934: 41,3021           03125                           TC       PUTCOM
001935: 41,3022           50145                           INDEX    NOUNADD
001936: 41,3023           54002                           TS       2
001937: 41,3024           03025                           TC       LOADLV
001938:
001939: 41,3025           34755        LOADLV             CAF      ZERO
001940: 41,3026           54777                           TS       DECBRNCH
001941: 41,3027           44755                           CS       ZERO
001942: 41,3030           55013                           TS       LOADSTAT
001943: 41,3031           04457                           TC       RELDSP                                #  RELEASE FOR PRIORITY DISPLAY PROBLEM.
001944: 41,3032           44360                           CS       VD1                                   #  TO BLOCK NUMERICAL CHARACTERS AND
001945: 41,3033           54776                           TS       DSPCOUNT                              #  CLEARS AFTER A COMPLETED LOAD
001946: 41,3034           04635                           TC       POSTJUMP                              #  AFTER COMPLETED LOAD, GO TO RECALTST
001947: 41,3035           61621                           CADR     RECALTST                              #  TO SEE IF THERE IS RECALL FROM ENDIDLE.
001948:
001949: 41,3036           00025        VBSP1LD            DEC      21         B-14                       #  VB21 = ALOAD
001950: 41,3037           00026        VBSP2LD            DEC      22         B-14                       #  VB22 = BLOAD
001951: 41,3040           00027        VBSP3LD            DEC      23         B-14                       #  VB23 = CLOAD
001952:
001953:
001954: 41,3041           54117        ALLDC/OC           TS       DECOUNT                               #  TESTS THAT DATA WORDS LOADED ARE EITHER
001955: 41,3042           40777                           CS       DECBRNCH                              #  ALL DEC OR ALL OCT. ALARMS IF NOT.
001956: 41,3043           54021                           TS       SR
001957: 41,3044           40021                           CS       SR
001958: 41,3045           40021                           CS       SR                                    #  SHIFTED RIGHT 2
001959: 41,3046           10000                           CCS      A                                     #  DEC COMP BITS IN LOW 3
001960: 41,3047           13051                           TCF      +2                                    #  SOME ONES IN LOW 3
001961: 41,3050           00002                           TC       Q                                     #  ALL ZEROS. ALL OCTAL.  OK
001962: 41,3051           60117                           AD       DECOUNT                               #  DEC COMP = 7 FOR 3COMP, =6 FOR 2COMP
001963: 41,3052           00006                           EXTEND                                         #  (BUT IT HAS BEEN DECREMENTED BY CCS)
001964: 41,3053           13055                           BZF      +2                                    #  MUST MATCH 6 FOR 3COMP, 5 FOR 2COMP.
001965: 41,3054           04145                           TC       ALMCYCLE                              #  ALARM AND RECYCLE.
001966: 41,3055           00002        GOQ                TC       Q                                     #  ALL REQUIRED ARE DEC. OK
001967:
001968:
001969: 41,3056           56002        SFRUTNOR           XCH      Q                                     #  GETS SF ROUTINE NUMBER FOR NORMAL CASE
001970: 41,3057           54114                           TS       EXITEM                                #  CANT USE L FOR RETURN. TSTFORDP USES L.
001971: 41,3060           34347                           CAF      MID5
001972: 41,3061           70147                           MASK     NNTYPTEM
001973: 41,3062           04322                           TC       RIGHT5
001974: 41,3063           00114                           TC       EXITEM                                #  SF ROUTINE NUMBER IN A
001975:
001976: 41,3064           56002        SFRUTMIX           XCH      Q                                     #  GETS SF ROUTINE NUMBER FOR MIXED CASE
001977: 41,3065           54114                           TS       EXITEM
001978: 41,3066           50117                           INDEX    DECOUNT
001979: 41,3067           33116                           CAF      DISPLACE                              #  PUT TC GOQ, TC RIGHT5, OR TC LEFT5 IN L
001980: 41,3070           54001                           TS       L
001981: 41,3071           50117                           INDEX    DECOUNT


001983: 41,3072           34346                           CAF      LOW5                                  #  LOW5, MID5, OR HI5 IN A
001984: 41,3073           70153                           MASK     RUTMXTEM                              #  GET HI5, MID5, OR LOW5 OF RUTMXTAB ENTRY
001985: 41,3074           50001                           INDEX    L
001986: 41,3075           00000                           TC       0
001987:                                                                                                  #  DO TC GOQ(DECOUNT=0), DO TC RIGHT5(DECOUNT=1), DO TC LEFT5(DECOUNT=2).
001988: 41,3076           00114        SFRET1             TC       EXITEM                                #  SF ROUTINE NUMBER IN A
001989:
001990: 41,3077           56002        SFCONUM            XCH      Q                                     #  GETS 2X( SF CONSTANT NUMBER)
001991: 41,3100           54114                           TS       EXITEM
001992: 41,3101           50140                           INDEX    MIXBR
001993: 41,3102           03102                           TC       +0
001994: 41,3103           03121                           TC       CONUMNOR                              #  NORMAL NOUN
001995: 41,3104           50117                           INDEX    DECOUNT                               #  MIXED NOUN
001996: 41,3105           33116                           CAF      DISPLACE
001997: 41,3106           54001                           TS       L                                     #  PUT TC GOQ, TC RIGHT5, OR TC LEFT5 IN L
001998: 41,3107           50117                           INDEX    DECOUNT
001999: 41,3110           34346                           CAF      LOW5
002000: 41,3111           70147                           MASK     NNTYPTEM
002001: 41,3112           50001                           INDEX    L
002002: 41,3113           00000                           TC       0
002003:                                                                                                  #  DO TC GOQ(DECOUNT=0), DO TC RIGHT5(DECOUNT=1), DO TC LEFT5(DECOUNT=2).
002004: 41,3114           60000        SFRET              DOUBLE                                         #  2X(SF CONSTANT NUMBER ) IN A
002005: 41,3115           00114                           TC       EXITEM
002006:
002007: 41,3116           03055        DISPLACE           TC       GOQ
002008: 41,3117           04322                           TC       RIGHT5
002009: 41,3120           04331                           TC       LEFT5
002010:
002011: 41,3121           34346        CONUMNOR           CAF      LOW5                                  #  NORMAL NOUN ALWAYS GETS LOW 5 OF
002012: 41,3122           70147                           MASK     NNTYPTEM                              #  NNTYPTAB FOR SF CONUM.
002013: 41,3123           60000                           DOUBLE
002014: 41,3124           00114                           TC       EXITEM                                #  2X( SF CONSTANT NUMBER) IN A
002015:
002016:
002017: 41,3125           54117        PUTCOM             TS       DECOUNT
002018: 41,3126           56002                           XCH      Q
002019: 41,3127           54115                           TS       DECRET
002020: 41,3130           34755                           CAF      ZERO
002021: 41,3131           54162                           TS       MPAC+6
002022: 41,3132           50117                           INDEX    DECOUNT
002023: 41,3133           57005                           XCH      XREGLP
002024: 41,3134           54155                           TS       MPAC       +1
002025: 41,3135           50117                           INDEX    DECOUNT
002026: 41,3136           57002                           XCH      XREG
002027: 41,3137           54154                           TS       MPAC
002028: 41,3140           50140                           INDEX    MIXBR
002029: 41,3141           03141                           TC       +0
002030: 41,3142           03167                           TC       PUTNORM                               #  NORMAL NOUN
002031:                                                                                                  #  IF MIXNOUN, PLACE ADDRESS FOR COMPONENT K INTO NOUNADD, SET EBANK BITS.
002032: 41,3143           50117                           INDEX    DECOUNT                               #  GET IDADDTAB ENTRY FOR COMPONENT K


002034: 41,3144           30150                           CA       IDAD1TEM                              #          OF NOUN.
002035: 41,3145           74356                           MASK     LOW11                                 #  (ECADR)SUBK FOR CURRENT COMP OF NOUN
002036: 41,3146           04303                           TC       SETNCADR                              #  ECADR INTO NOUNCADR. SETS EB, NOUNADD.
002037: 41,3147           00006                           EXTEND                                         #  C(NOUNADD) IN A UPON RETURN
002038: 41,3150           60117                           SU       DECOUNT                               #  PLACE (ESUBK)-K INTO NOUNADD
002039: 41,3151           54145                           TS       NOUNADD
002040: 41,3152           10777                           CCS      DECBRNCH
002041: 41,3153           03224                           TC       PUTDECSF                              #  +  DEC
002042: 41,3154           02461                           TC       DCTSTCYC                              #  +0 OCTAL
002043: 41,3155           03064                           TC       SFRUTMIX                              #  TEST IF DEC ONLY BIT = 1. IF SO,
002044: 41,3156           02266                           TC       DPTEST                                #  ALARM AND RECYCLE. IF NOT, CONTINUE.
002045: 41,3157           03205                           TC       PUTCOM2                               #  NO DP
002046:                                                                                                  #  TEST FOR DP SCALE FOR OCT LOAD. IF SO,
002047:                                                                                                  #  +0 INTO MAJOR PART. SET NOUNADD FOR
002048:                                                                                                  #  LOADING OCTAL WORD INTO MINOR PART.
002049: 41,3160           24145        PUTDPCOM           INCR     NOUNADD                               #  DP  (ESUBK)-K+1  OR  E+1
002050: 41,3161           30145                           CA       NOUNADD                               #  NOUNADD NOW SET FOR MINOR PART
002051: 41,3162           26117                           ADS      DECOUNT                               #  (ESUBK)+1  OR  E+1  INTO DECOUNT
002052: 41,3163           34755                           CAF      ZERO                                  #  NOUNADD SET FOR MINOR PART
002053: 41,3164           50117                           INDEX    DECOUNT
002054: 41,3165           53777                           TS       0          -1                         #  ZERO MAJOR PART(ESUBK OR E)
002055: 41,3166           03205                           TC       PUTCOM2
002056:
002057: 41,3167           04311        PUTNORM            TC       SETNADD                               #  ECADR FROM NOUNCADR. SETS EB, NOUNADD.
002058: 41,3170           10777                           CCS      DECBRNCH
002059: 41,3171           03224                           TC       PUTDECSF                              #  +  DEC
002060: 41,3172           02461                           TC       DCTSTCYC                              #  +0 OCTAL
002061: 41,3173           03056                           TC       SFRUTNOR                              #  TEST IF DEC ONLY BIT = 1. IF SO,
002062: 41,3174           02266                           TC       DPTEST                                #  ALARM AND RECYCLE. IF NOT, CONTINUE.
002063: 41,3175           03201                           TC       PUTCOM2    -4                         #  NO DP
002064: 41,3176           34755                           CAF      ZERO                                  #  DP
002065: 41,3177           54117                           TS       DECOUNT
002066: 41,3200           03160                           TC       PUTDPCOM
002067:
002068: 41,3201           30146                           CA       NNADTEM
002069: 41,3202           64753                           AD       ONE                                   #  IF NNADTEM = -1, CHANNEL TO BE SPECIFIED
002070: 41,3203           00006                           EXTEND
002071: 41,3204           13211                           BZF      CHANLOAD
002072: 41,3205           56154        PUTCOM2            XCH      MPAC
002073: 41,3206           00115                           TC       DECRET
002074:
002075: 41,3207     0776                                  EBANK=   DSPCOUNT
002076: 41,3207           02147 64101  GTSFINLC           2CADR    GTSFIN
002077:
002078:
002079:
002080: 41,3211           44757        CHANLOAD           CS       SEVEN                                 #  DONT LOAD CHAN 7. (IT = SUPERBANK).
002081: 41,3212           61016                           AD       NOUNCADR
002082: 41,3213           00006                           EXTEND
002083: 41,3214           13025                           BZF      LOADLV


002085: 41,3215           31016                           CA       NOUNCADR
002086: 41,3216           75004                           MASK     LOW9
002087: 41,3217           56154                           XCH      MPAC
002088: 41,3220           00006                           EXTEND
002089: 41,3221           50154                           INDEX    MPAC
002090: 41,3222           01000                           WRITE    0
002091: 41,3223           03025                           TC       LOADLV
002092:
002093:
002094:                                                                                                  #  PUTDECSF FINDS MIXBR AND DECOUNT STILL SET FROM PUTCOM
002095:
002096: 41,3224           03077        PUTDECSF           TC       SFCONUM                               #  2X(SF CON NUMB) IN A
002097: 41,3225           54123                           TS       SFTEMP1
002098: 41,3226           00006                           EXTEND                                         #  SWITCH BANKS TO SF CONSTANT TABLE
002099: 41,3227           33210                           DCA      GTSFINLC                              #  READING ROUTINE.
002100: 41,3230           52006                           DXCH     Z                                     #  LOADS SFTEMP1, SFTEMP2.
002101: 41,3231           50140                           INDEX    MIXBR
002102: 41,3232           03232                           TC       +0
002103: 41,3233           03236                           TC       PUTSFNOR
002104: 41,3234           03064                           TC       SFRUTMIX
002105: 41,3235           03237                           TC       PUTDCSF2
002106: 41,3236           03056        PUTSFNOR           TC       SFRUTNOR
002107:
002108: 41,3237           50000        PUTDCSF2           INDEX    A
002109: 41,3240           33242                           CAF      SFINTABR
002110: 41,3241           04640                           TC       BANKJUMP                              #  SWITCH BANKS FOR EXPANSHION ROOM
002111: 41,3242           62357        SFINTABR           CADR     GOALMCYC                              #  ALARM AND RECYCLE IF DEC LOAD
002112:                                                                                                  #  WITH OCTAL ONLY NOUN.
002113: 41,3243           61151                           CADR     BINROUND
002114: 41,3244           61053                           CADR     DEGINSF
002115: 41,3245           61141                           CADR     ARTHINSF
002116: 41,3246           61157                           CADR     DPINSF
002117: 41,3247           61204                           CADR     DPINSF2
002118: 41,3250           61463                           CADR     DSPALARM                              #  LRPOSOUT CANT BE LOADED.
002119: 41,3251           61157                           CADR     DPINSF                                #  SAME AS ARITHDP1
002120: 41,3252           65456                           CADR     HMSIN
002121: 41,3253           61463                           CADR     DSPALARM                              #  MIN/SEC CANT BE LOADED.
002122: 41,3254           61211                           CADR     DPINSF4
002123: 41,3255           61154                           CADR     ARTIN1SF
002124: 41,3256           61463                           CADR     DSPALARM                              #  2INTOUT CANT BE LOADED.
002125: 41,3257           61053                           CADR     DEGINSF                               #  TESTS AT END FOR 360-CDU
002126: 41,3260           61463                           CADR     DSPALARM                              #  RRANGOUT CANT BE LOADED.
002127: 41,3261           61463                           CADR     DSPALARM                              #  RRDOTOUT CANT BE LOADED.
002128: 41,3262                        ENDRUTIN           EQUALS
002129:
002130:                                                                                                  #  SCALE FACTORS FOR THOSE ROUTINES NEEDING THEM ARE AVAILABLE IN SFTEMP1.
002131:                                                                                                  #  ALL SFIN ROUTINES USE MPAC MPAC+1. LEAVE RESULT IN A. END WITH TC DECRET
002132:


002134: 40,3053                                           SETLOC   ENDDPDEC   +1
002135:
002136: 40,3053                                           COUNT*   $$/PIN
002137:                                                                                                  #  DEGINSF APPLIES 1000/180 = 5.55555(10) = 5.43434(8)
002138:
002139: 40,3053           07106        DEGINSF            TC       DMP                                   #  SF ROUTINE FOR DEC DEGREES
002140: 40,3054           03137                           ADRES    DEGCON1                               #  MULT BY 5.5  5(10)X2EXP-3
002141: 40,3055           10155                           CCS      MPAC       +1                         #  THIS ROUNDS OFF MPAC+1 BEFORE SHIFT
002142: 40,3056           34741                           CAF      BIT11                                 #  LEFT 3, AND CAUSES 360.00 TO OF/UF
002143: 40,3057           03061                           TC       +2                                    #  WHEN SHIFTED LEFT AND ALARM.
002144: 40,3060           44741                           CS       BIT11
002145: 40,3061           60155                           AD       MPAC       +1
002146: 40,3062           03230                           TC       2ROUND     +2
002147: 40,3063           04404                           TC       TPSL1                                 #  LEFT 1
002148: 40,3064           04404        DEGINSF2           TC       TPSL1                                 #  LEFT 2
002149: 40,3065           03237                           TC       TESTOFUF
002150: 40,3066           04404                           TC       TPSL1                                 #  RETURNS IF NO OF/UF (LEFT3)
002151: 40,3067           10154                           CCS      MPAC
002152: 40,3070           03074                           TC       SIGNFIX                               #  IF+, GO TO SIGNFIX
002153: 40,3071           03074                           TC       SIGNFIX                               #  IF +0, GO TO SIGNFIX
002154: 40,3072           40000                           COM                                            #  IF - , USE -MAGNITUDE +1
002155: 40,3073           54154                           TS       MPAC                                  #  IF -0, USE +0
002156: 40,3074           10162        SIGNFIX            CCS      MPAC+6
002157: 40,3075           03133                           TC       SGNTO1                                #  IF OVERFLOW
002158: 40,3076           03106                           TC       ENDSCALE                              #  NO OVERFLOW/UNDERFLOW
002159: 40,3077           10154                           CCS      MPAC                                  #  IF UF FORCE SIGN TO 0 EXCEPT -180
002160: 40,3100           05706                           TC       CCSHOLE
002161: 40,3101           03131                           TC       NEG180
002162: 40,3102           03103                           TC       +1
002163: 40,3103           56154                           XCH      MPAC
002164: 40,3104           74733                           MASK     POSMAX
002165: 40,3105           54154                           TS       MPAC
002166: 40,3106           50140        ENDSCALE           INDEX    MIXBR                                 #  IF ROUTINE NO. IS NOT CDU DEGREES,
002167: 40,3107           03107                           TC       +0                                    #   THEN THIS IS 360 - CDU DEGREES
002168: 40,3110           03113                           TC       +3                                    #   AND ANGLE IN MPAC MUST BE REPLACED
002169: 40,3111           03123                           TC       SFMIXCAL                              #   BY 360 DEGREES MINUS ITSELF.
002170: 40,3112           03114        MIXBACK            TC       +2
002171: 40,3113           03126                           TC       SFNORCAL
002172: 40,3114           40000        NORBACK            CS       A
002173: 40,3115           64752                           AD       BIT2
002174: 40,3116           00006                           EXTEND
002175: 40,3117           13121                           BZF      +2
002176: 40,3120           02634                           TC       360-CDU
002177: 40,3121           04635        ENDSCAL1           TC       POSTJUMP
002178: 40,3122           63205                           CADR     PUTCOM2
002179:
002180: 40,3123           04616        SFMIXCAL           TC       BANKCALL
002181: 40,3124           63064                           CADR     SFRUTMIX
002182: 40,3125           03112                           TC       MIXBACK
002183:


002185: 40,3126           04616        SFNORCAL           TC       BANKCALL
002186: 40,3127           63056                           CADR     SFRUTNOR
002187: 40,3130           03114                           TC       NORBACK
002188:
002189: 40,3131           44733        NEG180             CS       POSMAX
002190: 40,3132           03105                           TC       ENDSCALE   -1
002191:
002192: 40,3133           40154        SGNTO1             CS       MPAC                                  #  IF OF FORCE SIGN TO 1
002193: 40,3134           74733                           MASK     POSMAX
002194: 40,3135           40000                           CS       A
002195: 40,3136           03105                           TC       ENDSCALE   -1
002196:
002197: 40,3137           26161 30707  DEGCON1            2DEC     5.555555555 B-3
002198:
002199:
002200: 40,3141           07106        ARTHINSF           TC       DMP                                   #  SCALES MPAC, +1 BY SFTEMP1, SFTEMP2.
002201: 40,3142           00123                           ADRES    SFTEMP1                               #  ASSUMES POINT BETWEEN HI AND LO PARTS
002202: 40,3143           56156                           XCH      MPAC       +2                         #  OF SFCON. SHIFTS RESULTS LEFT BY 14.
002203: 40,3144           56155                           XCH      MPAC       +1                         #  (BY TAKING RESULTS FROM MPAC+1, MPAC+2)
002204: 40,3145           56154                           XCH      MPAC
002205: 40,3146           00006                           EXTEND
002206: 40,3147           13151                           BZF      BINROUND
002207: 40,3150           04145                           TC       ALMCYCLE                              #  TOO LARGE A LOAD. ALARM AND RECYCLE.
002208: 40,3151           03226        BINROUND           TC       2ROUND
002209: 40,3152           03237                           TC       TESTOFUF
002210: 40,3153           03121                           TC       ENDSCAL1                              #  RETURNS IF NO OF/UF
002211:
002212: 40,3154           07106        ARTIN1SF           TC       DMP                                   #  SCALES MPAC, +1 BY SFTEMP1, SFTEMP2.
002213: 40,3155           00123                           ADRES    SFTEMP1                               #  ROUNDS MPAC+1 INTO MPAC.
002214: 40,3156           03151                           TC       BINROUND
002215:
002216:
002217: 40,3157           07106        DPINSF             TC       DMP                                   #  SCALES MPAC, MPAC +1 BY SFTEMP1,
002218: 40,3160           00123                           ADRES    SFTEMP1                               #  SFTEMP2.  STORES LOW PART OF RESULT
002219: 40,3161           56156                           XCH      MPAC       +2                         #  IN (E SUBK) +1 OR E+1
002220: 40,3162           60000                           DOUBLE
002221: 40,3163           54156                           TS       MPAC       +2
002222: 40,3164           34755                           CAF      ZERO
002223: 40,3165           60155                           AD       MPAC       +1
002224: 40,3166           03230                           TC       2ROUND     +2
002225: 40,3167           03237                           TC       TESTOFUF
002226: 40,3170           50140                           INDEX    MIXBR                                 #  RETURNS IF NO OF/UF
002227: 40,3171           03171                           TC       +0
002228: 40,3172           03202                           TC       DPINORM
002229: 40,3173           30117                           CA       DECOUNT                               #  MIXEDNOUN
002230: 40,3174           60145        DPINCOM            AD       NOUNADD                               #      MIXED               NORMAL
002231: 40,3175           54002                           TS       Q                                     #    E SUBK            E
002232: 40,3176           56155                           XCH      MPAC       +1
002233: 40,3177           50002                           INDEX    Q
002234: 40,3200           54001                           TS       1                                     #  PLACE LOW PART IN


002236: 40,3201           03121                           TC       ENDSCAL1                              #  (E SUBK) +1    MIXED
002237:
002238: 40,3202           34755        DPINORM            CAF      ZERO                                  #  E +1         NORMAL
002239: 40,3203           03174                           TC       DPINCOM
002240:
002241:
002242: 40,3204           07106        DPINSF2            TC       DMP                                   #  ASSUMES POINT BETWEEN BITS 7-8 OF HIGH
002243: 40,3205           00123                           ADRES    SFTEMP1                               #  PART OF SF CONST. DPINSF2 SHIFTS RESULTS
002244: 40,3206           36245                           CAF      SIX                                   #  LEFT BY 7, ROUNDS MPAC+2 INTO MPAC+1
002245: 40,3207           03216                           TC       TPLEFTN                               #  SHIFT LEFT 7.
002246: 40,3210           03161                           TC       DPINSF     +2
002247:
002248:
002249: 40,3211           07106        DPINSF4            TC       DMP                                   #  ASSUMES POINT BETWEEN BITS 11-12 OF HIGH
002250: 40,3212           00123                           ADRES    SFTEMP1                               #  PART OF SF CONST. DPINSF2 SHIFTS RESULTS
002251: 40,3213           34752                           CAF      TWO                                   #  LEFT BY 3, ROUNDS MPAC+2 INTO MPAC+1.
002252: 40,3214           03216                           TC       TPLEFTN                               #  SHIFT LEFT 3.
002253: 40,3215           03161                           TC       DPINSF     +2
002254:
002255:
002256: 40,3216           56002        TPLEFTN            XCH      Q                                     #  SHIFTS MPAC, +1, +2 LEFT N. SETS OVFIND
002257: 40,3217           54124                           TS       SFTEMP2                               #  TO +1 FOR OF, -1 FOR UF.
002258: 40,3220           56002                           XCH      Q                                     #  CALL WITH N-1 IN A.
002259: 40,3221           54123        LEFTNCOM           TS       SFTEMP1                               #      LOOP TIME .37 MSEC.
002260: 40,3222           04404                           TC       TPSL1
002261: 40,3223           10123                           CCS      SFTEMP1
002262: 40,3224           03221                           TC       LEFTNCOM
002263: 40,3225           00124                           TC       SFTEMP2
002264:
002265:
002266: 40,3226           56155        2ROUND             XCH      MPAC       +1
002267: 40,3227           60000                           DOUBLE
002268: 40,3230           54155                           TS       MPAC       +1
002269: 40,3231           00002                           TC       Q                                     #  IF MPAC+1 DOES NOT OF/UF
002270: 40,3232           60154                           AD       MPAC
002271: 40,3233           54154                           TS       MPAC
002272: 40,3234           00002                           TC       Q                                     #  IF MPAC DOES NOT OF/UF
002273: 40,3235           54162                           TS       MPAC+6
002274: 40,3236           00002        2RNDEND            TC       Q
002275:
002276:
002277: 40,3237           10162        TESTOFUF           CCS      MPAC+6                                #  RETURNS IF NO OF/UF
002278: 40,3240           04145                           TC       ALMCYCLE                              #  OF   ALARM AND RECYCLE.
002279: 40,3241           00002                           TC       Q
002280: 40,3242           04145                           TC       ALMCYCLE                              #  UF   ALARM AND RECYCLE.
002281:
002282:
002283: 42,3456                                           SETLOC   ENDSPMIN   +1
002284:
002285: 42,3456                                           COUNT*   $$/PIN


002287: 42,3456           03577        HMSIN              TC       ALL3DEC                               #  IF ALL 3 WORDS WERE NOT LOADED, ALARM.
002288: 42,3457           07106                           TC       DMP                                   #  XREG, XREGLP (=HOURS) WERE ALREADY PUT
002289: 42,3460           03540                           ADRES    WHOLECON                              #  INTO MPAC, MPAC+1.
002290: 42,3461           03547                           TC       RND/TST                               #  ROUND OFF TO WHOLE HRS IN MPAC+1.
002291: 42,3462           34755                           CAF      ZERO                                  #  ALARM IF MPAC NON ZERO (G/ 16383 ).
002292: 42,3463           54156                           TS       MPAC       +2
002293: 42,3464           33542                           CAF      HRCON
002294: 42,3465           54154                           TS       MPAC
002295: 42,3466           33543                           CAF      HRCON      +1
002296: 42,3467           56155                           XCH      MPAC       +1
002297: 42,3470           07312                           TC       SHORTMP
002298: 42,3471           03560                           TC       MPACTST                               #  ALARM IF MPAC NON ZERO (G/ 745)
002299: 42,3472           52156                           DXCH     MPAC       +1                         #  STORE HOURS CONTRIBUTION
002300: 42,3473           52124                           DXCH     HITEMIN
002301: 42,3474           31003                           CA       YREG                                  #  PUT YREG, YREGLP INTO MPAC, +1.
002302: 42,3475           23006                           LXCH     YREGLP
002303: 42,3476           52155                           DXCH     MPAC
002304: 42,3477           07106                           TC       DMP
002305: 42,3500           03540                           ADRES    WHOLECON
002306: 42,3501           03547                           TC       RND/TST                               #  ROUND OFF TO WHOLE MIN IN MPAC+1
002307: 42,3502           43545                           CS       59MIN                                 #  ALARM IF MPAC NON ZERO (G/16383)
002308: 42,3503           03565                           TC       SIZETST                               #  ALARM IF MPAC+1 G/ 59MIN
002309: 42,3504           56155                           XCH      MPAC       +1
002310: 42,3505           00006                           EXTEND
002311: 42,3506           73544                           MP       MINCON                                #  LEAVES MINUTES CONTRIBUTION IN A,L
002312: 42,3507           20124                           DAS      HITEMIN                               #  ADD IN MINUTES CONTRIBUTION
002313: 42,3510           00006                           EXTEND                                         #  IF THIS DAS OVERFLOWS, G/ 745HR,39MIN
002314: 42,3511           13513                           BZF      +2
002315: 42,3512           04145                           TC       ALMCYCLE
002316: 42,3513           31004                           CA       ZREG                                  #  PUT ZREG, ZREGLP INTO MPAC, +1.
002317: 42,3514           23007                           LXCH     ZREGLP
002318: 42,3515           52155                           DXCH     MPAC
002319: 42,3516           07106                           TC       DMP
002320: 42,3517           03540                           ADRES    WHOLECON
002321: 42,3520           03547                           TC       RND/TST                               #  ROUND OFF TO WHOLE CENTI-SEC IN MPAC+1
002322: 42,3521           43546                           CS       59.99SEC                              #  ALARM IF MPAC NON ZERO (G/163.83 SEC)
002323: 42,3522           03565                           TC       SIZETST                               #  ALARM IF MPAC+1 G/59.99 SEC
002324: 42,3523           52124                           DXCH     HITEMIN                               #  ADD IN SECONDS CONTRIBUTION
002325: 42,3524           20155                           DAS      MPAC                                  #  IF THIS DAS OVERFLOWS,
002326: 42,3525           00006                           EXTEND                                         #  G/ 745 HR, 39 MIN, 14.55 SEC.
002327: 42,3526           13530                           BZF      +2
002328: 42,3527           04145                           TC       ALMCYCLE                              #  ALARM AND RECYCLE
002329: 42,3530           34755                           CAF      ZERO
002330: 42,3531           54156                           TS       MPAC       +2
002331: 42,3532           07262                           TC       TPAGREE
002332: 42,3533           52155                           DXCH     MPAC
002333: 42,3534           50145                           INDEX    NOUNADD
002334: 42,3535           52001                           DXCH     0
002335: 42,3536           04635                           TC       POSTJUMP
002336: 42,3537           63025                           CADR     LOADLV
002337:


002339: 42,3540           00006        WHOLECON           OCT      00006                                 #  (10EXP5/2EXP14)2EXP14
002340: 42,3541           03240                           OCT      03240
002341: 42,3542           00025        HRCON              OCT      00025                                 #  1 HOUR IN CENTI-SEC
002342: 42,3543           37100                           OCT      37100
002343: 42,3544           13560        MINCON             OCT      13560                                 #  1 MINUTE IN CENTI-SEC
002344: 42,3545           00073        59MIN              OCT      00073                                 #  59 AS WHOLE
002345: 42,3546           13557        59.99SEC           OCT      13557                                 #  5999 CENTI-SEC
002346:
002347:
002348: 42,3547           56156        RND/TST            XCH      MPAC       +2                         #  ROUNDS MPAC+2 INTO MPAC+1.
002349: 42,3550           60000                           DOUBLE                                         #  ALARMS IF MPAC NOT 0
002350: 42,3551           54156                           TS       MPAC       +2
002351: 42,3552           34755                           CAF      ZERO
002352: 42,3553           60155                           AD       MPAC       +1
002353: 42,3554           54155                           TS       MPAC       +1
002354: 42,3555           34755                           CAF      ZERO
002355: 42,3556           60154                           AD       MPAC                                  #  CANT OVFLOW
002356: 42,3557           56154                           XCH      MPAC
002357: 42,3560           10154        MPACTST            CCS      MPAC                                  #  ALARM IF MPAC NON ZERO
002358: 42,3561           04145                           TC       ALMCYCLE                              #  ALARM AND RECYCLE.
002359: 42,3562           00002                           TC       Q
002360: 42,3563           04145                           TC       ALMCYCLE                              #  ALARM AND RECYCLE.
002361: 42,3564           00002                           TC       Q
002362:
002363: 42,3565           54156        SIZETST            TS       MPAC       +2                         #  CALLED WITH - CON IN A
002364: 42,3566           10155                           CCS      MPAC       +1                         #  GET MAG OF MPAC+1
002365: 42,3567           64753                           AD       ONE
002366: 42,3570           13572                           TCF      +2
002367: 42,3571           64753                           AD       ONE
002368: 42,3572           60156                           AD       MPAC       +2
002369: 42,3573           00006                           EXTEND                                         #  MAG OF MPAC+1 - CON
002370: 42,3574           63576                           BZMF     +2
002371: 42,3575           04145                           TC       ALMCYCLE                              #  MAG OF MPAC+1 G/ CON. ALARM AND RECYCLE.
002372: 42,3576           00002                           TC       Q                                     #  MAG OF MPAC+1 L/= CON
002373:
002374:
002375:                                                                                                  #  ALL3DEC TESTS THAT ALL 3 WORDS ARE LOADED IN DEC (FOR HMSIN).
002376:                                                                                                  #  ALARM IF NOT.( TEST THAT BITS 3,4,5 OF DECBRNCH ARE ALL = 1)
002377: 42,3577           43604        ALL3DEC            CS       OCT34BAR                              #  GET BITS 3,4,5 IN A
002378: 42,3600           70777                           MASK     DECBRNCH                              #  GET BITS 3,4,5 OF DECBRNCH IN A
002379: 42,3601           63604                           AD       OCT34BAR                              #  BITS 3,4,5 OF DECBRNCH MUST ALL = 1
002380: 42,3602           10000                           CCS      A
002381: 42,3603           03607                           TC       FORCEV25
002382: 42,3604           77743        OCT34BAR           OCT      77743
002383: 42,3605           03607                           TC       FORCEV25
002384: 42,3606           00002                           TC       Q
002385:
002386:
002387: 42,3607           46010        FORCEV25           CS       OCT31                                 #  FORCE VERB 25 TO BE EXECUTED BY RECYCLE
002388: 42,3610           55040                           TS       VERBSAVE                              #   IN CASE OPERATOR EXECUTED A LOWER LOAD


002390: 42,3611           04145                           TC       ALMCYCLE                              #   VERB.  ALARM AND RECYCLE.
002391: 42,3612                        ENDHMSS            EQUALS
002392:


002394:                                                                                                  #  MONITOR ALLOWS OTHER KEYBOARD ACTIVITY. IT IS ENDED BY VERB TERMINATE,
002395:                                                                                                  #  VERB PROCEED WITHOUT DATA, VERB RESEQUENCE,
002396:                                                                                                  #  ANOTHER MONITOR, OR ANY NVSUB CALL THAT PASSES THE DSPLOCK (PROVIDED
002397:                                                                                                  #  THAT THE OPERATOR HAS SOMEHOW ALLOWED THE ENDING OF A MONITOR WHICH
002398:                                                                                                  #  HE HAS INITIATED THROUGH THE KEYBOARD).
002399:
002400:                                                                                                  #  MONITOR ACTION IS SUSPENDED, BUT NOT ENDED, BY ANY KEYBOARD ACTION,
002401:                                                                                                  #  EXCEPT ERROR LIGHT RESET. IT BEGINS AGAIN WHEN KEY RELEASE IS PERFORMED.
002402:                                                                                                  #  MONITOR SAVES THE NOUN AND APPROPRIATE DISPLAY VERB IN MONSAVE. IT SAVES
002403:                                                                                                  #  NOUNCADR IN MONSAVE1, IF NOUN = MACHINE CADR TO BE SPECIFIED. BIT 15 OF
002404:                                                                                                  #  MONSAVE1 IS THE KILL MONITOR SIGNAL (KILLER BIT). BIT 14 OF MONSAVE1
002405:                                                                                                  #  INDICATES THE CURRENT MONITOR WAS EXTERNALLY INITIATED (EXTERNAL
002406:                                                                                                  #  MONITOR BIT). IT IS TURNED OFF BY RELDSP AND KILMONON.
002407:
002408:                                                                                                  #  MONSAVE INDICATES IF MONITOR IS ON(+=ON, +0=OFF)
002409:                                                                                                  #  IF MONSAVE IS +, MONITOR ENTERS NO REQUEST, BUT TURNS KILLER BIT OFF.
002410:                                                                                                  #  IF MONSAVE IS +0, MONITOR ENTERS REQUEST AND TURNS KILLER BIT OFF.
002411:
002412:                                                                                                  #  NVSUB (IF EXTERNAL MONITOR BIT IS OFF), VB=PROCEED WITHOUT DATA,
002413:                                                                                                  #  VB=RESEQUENCE, AND VB=TERMINATE TURN KILL MONITOR BIT ON.
002414:
002415:                                                                                                  #  IF KILLER BIT IS ON, MONREQ ENTERS NO FURTHER REQUESTS, ZEROS MONSAVE
002416:                                                                                                  #  AND MONSAVE1 (TURNING OFF KILLER BIT AND EXTERNAL MONITOR BIT).
002417:
002418:                                                                                                  #  MONITOR DOSENT TEST FOR MATBS SINCE NVSUB CAN HANDLE INTERNAL MATBS NOW
002419: 41,3262                                           SETLOC   ENDRUTIN
002420:
002421: 41,3262                                           COUNT*   $$/PIN
002422: 41,3262           43271        MONITOR            CS       BIT15/14
002423: 41,3263           71016                           MASK     NOUNCADR
002424: 41,3264           54155        MONIT1             TS       MPAC       +1                         #  TEMP STORAGE
002425: 41,3265           40136                           CS       ENTEXIT
002426: 41,3266           64217                           AD       ENDINST
002427: 41,3267           10000                           CCS      A
002428: 41,3270           03277                           TC       MONIT2
002429: 41,3271           60000        BIT15/14           OCT      60000
002430: 41,3272           03277                           TC       MONIT2
002431: 41,3273           34736                           CAF      BIT14                                 #  EXTERNALLY INITIATED MONITOR,
002432: 41,3274           26155                           ADS      MPAC       +1                         #  SET BIT 14 FOR MONSAVE1.
002433: 41,3275           34755                           CAF      ZERO
002434: 41,3276           55021                           TS       MONSAVE2                              #  ZERO NVMONOPT OPTIONS
002435: 41,3277           36077        MONIT2             CAF      LOW7
002436: 41,3300           71000                           MASK     VERBREG
002437: 41,3301           04331                           TC       LEFT5
002438: 41,3302           54022                           TS       CYL
002439: 41,3303           40022                           CS       CYL
002440: 41,3304           56022                           XCH      CYL
002441: 41,3305           61001                           AD       NOUNREG
002442: 41,3306           54154                           TS       MPAC                                  #  TEMP STORAGE
002443: 41,3307           34755                           CAF      ZERO


002445: 41,3310           55011                           TS       DSPLOCK                               #  +0 INTO DSPLOCK SO MONITOR CAN RUN.
002446: 41,3311           11041                           CCS      CADRSTOR                              #  TURN OFF KR LITE IF CADRSTOR AND DSPLIST
002447: 41,3312           03314                           TC       +2                                    #  ARE BOTH EMPTY. (LITE COMES ON IF NEW
002448: 41,3313           04502                           TC       RELDSP1                               #  MONITOR IS KEYED IN OVER OLD MONITOR.)
002449: 41,3314           00004                           INHINT
002450: 41,3315           11017                           CCS      MONSAVE
002451: 41,3316           03323                           TC       +5                                    #  IF MONSAVE WAS +, NO REQUEST
002452: 41,3317           34753                           CAF      ONE                                   #  IF MONSAVE WAS 0, REQUEST MONREQ
002453: 41,3320           05214                           TC       WAITLIST
002454: 41,3321     0776                                  EBANK=   DSPCOUNT
002455: 41,3321           03327 62101                     2CADR    MONREQ
002456:
002457: 41,3323           52155                           DXCH     MPAC                                  #  PLACE MONITOR VERB AND NOUN INTO MONSAVE
002458: 41,3324           53020                           DXCH     MONSAVE                               #  ZERO THE KILL MONITOR BIT
002459: 41,3325           00003                           RELINT                                         #  SET UP EXTERNAL MONITOR BIT
002460: 41,3326           00136                           TC       ENTRET
002461:
002462:
002463: 41,3327           04400        MONREQ             TC       LODSAMPT                              #  CALLED BY WAITLIST
002464: 41,3330           11020                           CCS      MONSAVE1                              #  TIME IS SNATCHED IN RUPT FOR NOUN 65
002465: 41,3331           03335                           TC       +4                                    #  IF KILLER BIT = 0, ENTER REQUESTS
002466: 41,3332           03335                           TC       +3                                    #  IF KILLER BIT = 0, ENTER REQUESTS
002467: 41,3333           03346                           TC       KILLMON                               #  IF KILLER BIT = 1, NO REQUESTS
002468: 41,3334           03346                           TC       KILLMON                               #  IF KILLER BIT = 1, NO REQUESTS
002469: 41,3335           33352                           CAF      MONDEL
002470: 41,3336           05214                           TC       WAITLIST                              #  ENTER WAITLIST REQUEST FOR MONREQ
002471: 41,3337     0776                                  EBANK=   DSPCOUNT
002472: 41,3337           03327 62101                     2CADR    MONREQ
002473:
002474: 41,3341           34355                           CAF      CHRPRIO
002475: 41,3342           05072                           TC       NOVAC                                 #  ENTER EXEC REQUEST FOR MONDO
002476: 41,3343     0776                                  EBANK=   DSPCOUNT
002477: 41,3343           03353 62101                     2CADR    MONDO
002478:
002479: 41,3345           05272                           TC       TASKOVER
002480:
002481: 41,3346           34755        KILLMON            CAF      ZERO                                  #  ZERO MONSAVE AND TURN KILLER BIT OFF
002482: 41,3347           55017                           TS       MONSAVE
002483: 41,3350           55020                           TS       MONSAVE1                              #  TURN OFF KILL MONITOR BIT.
002484: 41,3351           05272                           TC       TASKOVER                              #  TURN OFF EXTERNAL MONITOR BIT.
002485: 41,3352           00144        MONDEL             OCT      144                                   #  FOR 1 SEC MONITOR INTERVALS
002486:
002487:
002488: 41,3353           11020        MONDO              CCS      MONSAVE1                              #  CALLED BY EXEC
002489: 41,3354           03360                           TC       +4                                    #  IF KILLER BIT = 0, CONTINUE
002490: 41,3355           03360                           TC       +3                                    #  IF KILLER BIT = 0, CONTINUE
002491: 41,3356           05155                           TC       ENDOFJOB                              #  IN CASE TERMINATE CAME SINCE LAST MONREQ
002492: 41,3357           05155                           TC       ENDOFJOB                              #  IN CASE TERMINATE CAME SINCE LAST MONREQ
002493: 41,3360           11011                           CCS      DSPLOCK
002494: 41,3361           03403                           TC       MONBUSY                               #  NVSUB IS BUSY


002496: 41,3362           36077                           CAF      LOW7
002497: 41,3363           71017                           MASK     MONSAVE
002498: 41,3364           02326                           TC       UPDATNN    -1                         #  PLACE NOUN INTO NOUNREG AND DISPLAY IT
002499: 41,3365           34144                           CAF      MID7
002500: 41,3366           71017                           MASK     MONSAVE                               #  CHANGE MONITOR VERB TO DISPLAY VERB
002501: 41,3367           63401                           AD       MONREF                                #  -DEC10, STARTING IN BIT8
002502: 41,3370           54023                           TS       EDOP                                  #  RIGHT 7
002503: 41,3371           30023                           CA       EDOP
002504: 41,3372           55000                           TS       VERBREG
002505: 41,3373           33402                           CAF      MONBACK                               #  SET RETURN TO PASTEVB AFTER DATA DISPLAY
002506: 41,3374           54136                           TS       ENTRET
002507: 41,3375           43271                           CS       BIT15/14
002508: 41,3376           71020                           MASK     MONSAVE1                              #  PUT ECADR INTO MPAC +2. INTMCTBS WILL
002509: 41,3377           54156                           TS       MPAC       +2                         #  DISPLAY IT AND SET NOUNCADR, NOUNADD,
002510: 41,3400           02053        ENDMONDO           TC       TESTNN                                #  EBANK.
002511:
002512:    4124                                           BLOCK    2
002513:
002514:    4000                                           SETLOC   FFTAG8
002515:    4000                                           BANK
002516:
002517:    4124                                           COUNT*   $$/PIN
002518:    4124           34144        PASTEVB            CAF      MID7
002519:    4125           71021                           MASK     MONSAVE2                              #  NVMONOPT PASTE OPTION
002520:    4126           00006                           EXTEND
002521:    4127           14131                           BZF      +2
002522:    4130           04132                           TC       PASTEOPT                              #  PASTE PLEASE VERB FOR NVMONOPT
002523:    4131           31017                           CA       MONSAVE                               #  PASTE MONITOR VERB - PASTE OPTION IS 0
002524:    4132           54023        PASTEOPT           TS       EDOP                                  #  RIGHT 7
002525:    4133           30023                           CA       EDOP                                  #  PLACE MONITOR VERB OR PLEASE VERB INTO
002526:    4134           04616                           TC       BANKCALL                              #   VERBREG AND DISPLAY IT.
002527:    4135           62346                           CADR     UPDATVB    -1
002528:    4136           34755                           CAF      ZERO                                  #  ZERO REQRET SO THAT PASTED VERBS CAN
002529:    4137           55012                           TS       REQRET                                #   BE EXECUTED BY OPERATOR.
002530:    4140           31021                           CA       MONSAVE2
002531:    4141           04255                           TC       BLANKSUB                              #  PROCESS NVMONOPT BLANK OPTION IF ANY
002532:    4142           04143                           TC       +1
002533:    4143           05155        ENDPASTE           TC       ENDOFJOB
002534:
002535:    4144           37600        MID7               OCT      37600
002536:
002537:
002538: 41,3401                                           SETLOC   ENDMONDO   +1
002539: 41,3401                                           COUNT*   $$/PIN
002540: 41,3401           75377        MONREF             OCT      75377                                 #  -DEC10, STARTING IN BIT8
002541: 41,3402           04124        MONBACK            ADRES    PASTEVB
002542:
002543: 41,3403           04374        MONBUSY            TC       RELDSPON                              #  TURN KEY RELEASE LIGHT
002544: 41,3404           05155                           TC       ENDOFJOB


002546:                                                                                                  #  DSPFMEM IS USED TO DISPLAY (IN OCTAL) ANY FIXED REGISTER.
002547:                                                                                                  #  IT IS USED WITH NOUN = MACHINE CADR TO BE SPECIFIED. THE FCADR OF THE
002548:                                                                                                  #  DESIRED LOCATION IS THEN PUNCHED IN. IT HANDLES F/F ( FCADR 4000-7777)
002549:
002550:                                                                                                  #  FOR BANKS L/E 27, THIS IS ENOUGH.
002551:
002552:                                                                                                  #  FOR BANKS G/E 30, THE THIRD COMPONENT OF NOUN 26 (PRIO, ADRES, BBCON)
002553:                                                                                                  #  MUST BE PRELOADED WITH THE DESIRED SUPERBANK BITS (BITS 5,6,7).
002554:                                                                                                  #           V23N26 SHOULD BE USED.
002555:
002556:                                                                                                  #  SUMMARY
002557:                                                                                                  #  FOR BANKS L/E 27,                          V27N01E(FCADR)E
002558:                                                                                                  #  FOR BANKS G/E 30,    V23N26E(SUPERBITS)E   V27N01E(FCADR)E
002559:
002560: 41,3405           34317        DSPFMEM            CAF      R1D1                                  #  IF F/F, DATACALL USES BANK 02 OR 03.
002561: 41,3406           54776                           TS       DSPCOUNT
002562: 41,3407           31046                           CA       DSPTEM1    +2                         #  SUPERBANK BITS WERE PRELOADED INTO
002563: 41,3410           54001                           TS       L                                     #  3RD COMPONENT OF NOUN 26.
002564: 41,3411           31016                           CA       NOUNCADR                              #  ORIGINAL FCADR LOADED STILL IN NOUNCADR.
002565: 41,3412           04651                           TC       SUPDACAL                              #  CALL WITH FCADR IN A, SUPERBITS IN L.
002566: 41,3413           03415                           TC       DSPOCTWD
002567: 41,3414           05155        ENDSPF             TC       ENDOFJOB
002568:


002570:                                                                                                  #  WORD DISPLAY ROUTINES
002571: 40,3243                                           SETLOC   TESTOFUF   +4
002572: 40,3243                                           COUNT*   $$/PIN
002573: 40,3243           56002        DSPSIGN            XCH      Q
002574: 40,3244           54144                           TS       DSPWDRET
002575: 40,3245           10154                           CCS      MPAC
002576: 40,3246           03256                           TC       +8D
002577: 40,3247           03256                           TC       +7
002578: 40,3250           64753                           AD       ONE
002579: 40,3251           54154                           TS       MPAC
002580: 40,3252           02442                           TC       -ON
002581: 40,3253           40155                           CS       MPAC       +1
002582: 40,3254           54155                           TS       MPAC       +1
002583: 40,3255           00144                           TC       DSPWDRET
002584: 40,3256           02422                           TC       +ON
002585: 40,3257           00144                           TC       DSPWDRET
002586:
002587: 40,3260           00006        DSPRND             EXTEND                                         #  ROUND BY 5 EXP-6
002588: 40,3261           33324                           DCA      DECROUND   -1
002589: 40,3262           20155                           DAS      MPAC
002590: 40,3263           00006                           EXTEND
002591: 40,3264           13270                           BZF      +4
002592: 40,3265           00006                           EXTEND
002593: 40,3266           34733                           DCA      DPOSMAX
002594: 40,3267           52155                           DXCH     MPAC
002595: 40,3270           00002                           TC       Q
002596:
002597:                                                                                                  #  DSPDECWD CONVERTS C( MPAC, MPAC+1) INTO A SIGN AND 5 CHAR DECIMAL
002598:                                                                                                  #  STARTING IN LOC SPECIFIED IN DSPCOUNT. IT ROUNDS BY 5 EXP-6.
002599:
002600: 40,3271           56002        DSPDECWD           XCH      Q
002601: 40,3272           54115                           TS       WDRET
002602: 40,3273           03243                           TC       DSPSIGN
002603: 40,3274           03260                           TC       DSPRND
002604: 40,3275           34751                           CAF      FOUR
002605: 40,3276           54137        DSPDCWD1           TS       WDCNT
002606: 40,3277           34363                           CAF      BINCON
002607: 40,3300           07312                           TC       SHORTMP
002608: 40,3301           50154        TRACE1             INDEX    MPAC
002609: 40,3302           34066                           CAF      RELTAB
002610: 40,3303           74346                           MASK     LOW5
002611: 40,3304           54124                           TS       CODE
002612: 40,3305           34755                           CAF      ZERO
002613: 40,3306           56156                           XCH      MPAC       +2
002614: 40,3307           56155                           XCH      MPAC       +1
002615: 40,3310           54154                           TS       MPAC
002616: 40,3311           56776                           XCH      DSPCOUNT
002617: 40,3312           54143        TRACE1S            TS       COUNT
002618: 40,3313           10000                           CCS      A                                     #  DECREMENT DSPCOUNT EXCEPT AT +0


002620: 40,3314           54776                           TS       DSPCOUNT
002621: 40,3315           03365                           TC       DSPIN
002622: 40,3316           10137                           CCS      WDCNT
002623: 40,3317           03276                           TC       DSPDCWD1
002624: 40,3320           44360                           CS       VD1
002625: 40,3321           54776                           TS       DSPCOUNT
002626: 40,3322           00115                           TC       WDRET
002627:
002628: 40,3323           00000                           OCT      00000
002629: 40,3324           02476        DECROUND           OCT      02476
002630:
002631:                                                                                                  #  DSPDECNR CONVERTS C( MPAC,MPAC+1) INTO A SIGN AND 5 CHAR DECIMAL
002632:                                                                                                  #  STARTING IN LOC SPECIFIED IN DSPCOUNT. IT DOES NOT ROUND
002633:
002634: 40,3325           56002        DSPDECNR           XCH      Q
002635: 40,3326           54115                           TS       WDRET
002636: 40,3327           03243                           TC       DSPSIGN
002637: 40,3330           03275                           TC       DSPDCWD1   -1
002638:
002639:                                                                                                  #  DSPDC2NR CONVERTS C( MPAC,MPAC+1) INTO A SIGN AND 2 CHAR DECIMAL
002640:                                                                                                  #  STARTING IN LOC SPECIFIED IN DSPCOUNT. IT DOES NOT ROUND
002641:
002642: 40,3331           56002        DSPDC2NR           XCH      Q
002643: 40,3332           54115                           TS       WDRET
002644: 40,3333           03243                           TC       DSPSIGN
002645: 40,3334           34753                           CAF      ONE
002646: 40,3335           03276                           TC       DSPDCWD1
002647:
002648:
002649:                                                                                                  #  DSP2DEC CONVERTS C(MPAC) AND C(MPAC+1) INTO A SIGN AND 10 CHAR DECIMAL
002650:                                                                                                  #  STARTING IN THE LOC SPECIFIED IN DSPCOUNT.
002651:
002652: 40,3336           56002        DSP2DEC            XCH      Q
002653: 40,3337           54115                           TS       WDRET
002654: 40,3340           34755                           CAF      ZERO
002655: 40,3341           54124                           TS       CODE
002656: 40,3342           36250                           CAF      THREE
002657: 40,3343           03447                           TC       11DSPIN                               #  -R2 OFF
002658: 40,3344           34751                           CAF      FOUR
002659: 40,3345           03447                           TC       11DSPIN                               #  +R2 OFF
002660: 40,3346           03243                           TC       DSPSIGN
002661: 40,3347           34320                           CAF      R2D1
002662: 40,3350           03276        END2DEC            TC       DSPDCWD1
002663:
002664:
002665:                                                                                                  #  DSPDECVN DISPLAYS C(A) UPON ENTRY AS A 2 CHAR DECIMAL BEGINNING IN THE
002666:                                                                                                  #  DSP LOC SPECIFIED IN DSPCOUNT.
002667:                                                                                                  #  C(A) SHOULD BE IN FORM N X 2EXP-14. THIS IS SCALED TO FORM N/100 BEFORE
002668:                                                                                                  #  DISPLAY CONVERSION.
002669:


002671: 40,3351           00006        DSPDECVN           EXTEND
002672: 40,3352           73361                           MP       VNDSPCON                              #  MULT BY .01
002673: 40,3353           22154                           LXCH     MPAC                                  #  TAKE RESULTS FROM L.(MULT BY 2EXP14).
002674: 40,3354           34755                           CAF      ZERO
002675: 40,3355           54155                           TS       MPAC       +1
002676: 40,3356           56002                           XCH      Q
002677: 40,3357           54115                           TS       WDRET
002678: 40,3360           03334                           TC       DSPDC2NR   +3                         #  NO SIGN, NO ROUND, 2 CHAR
002679:
002680: 40,3361           00244        VNDSPCON           OCT      00244                                 #  .01 ROUNDED UP
002681:
002682:
002683: 40,3362           03351        GOVNUPDT           TC       DSPDECVN                              #  THIS IS NOT FOR GENERAL USE. REALLY PART
002684: 40,3363           04635                           TC       POSTJUMP                              #  OF UPDATVB.
002685: 40,3364           62356                           CADR     UPDAT1     +2
002686:
002687: 40,3365                        ENDECVN            EQUALS
002688:
002689:
002690: 41,3415                                           SETLOC   ENDSPF     +1
002691: 41,3415                                           COUNT*   $$/PIN
002692:                                                                                                  #  DSPOCTWD DISPLAYS C(A) UPON ENTRY AS A 5 CHAR OCT STARTING IN THE DSP
002693:                                                                                                  #  CHAR SPECIFIED IN DSPCOUNT. IT STOPS AFTER 5 CHAR HAVE BEEN DISPLAYED.
002694:
002695: 41,3415           54022        DSPOCTWD           TS       CYL
002696: 41,3416           56002                           XCH      Q
002697: 41,3417           54115                           TS       WDRET                                 #  MUST USE SAME RETURN AS DSP2BIT.
002698: 41,3420           34736                           CAF      BIT14                                 #  TO BLANK SIGNS
002699: 41,3421           26776                           ADS      DSPCOUNT
002700: 41,3422           34751                           CAF      FOUR
002701: 41,3423           54137        WDAGAIN            TS       WDCNT
002702: 41,3424           40022                           CS       CYL
002703: 41,3425           40022                           CS       CYL
002704: 41,3426           40022                           CS       CYL
002705: 41,3427           40000                           CS       A
002706: 41,3430           74757                           MASK     DSPMSK
002707: 41,3431           50000                           INDEX    A
002708: 41,3432           34066                           CAF      RELTAB
002709: 41,3433           74346                           MASK     LOW5
002710: 41,3434           54124                           TS       CODE
002711: 41,3435           56776                           XCH      DSPCOUNT
002712: 41,3436           54143                           TS       COUNT
002713: 41,3437           10000                           CCS      A                                     #  DECREMENT DSPCOUNT EXCEPT AT +0
002714: 41,3440           54776                           TS       DSPCOUNT
002715: 41,3441           04635                           TC       POSTJUMP
002716: 41,3442           61455                           CADR     DSPOCTIN
002717: 41,3443           10137        OCTBACK            CCS      WDCNT
002718: 41,3444           03423                           TC       WDAGAIN                               #  +
002719: 41,3445           44360        DSPLV              CS       VD1                                   #  TO BLOCK NUMERICAL CHARACTERS, CLEARS,
002720: 41,3446           54776                           TS       DSPCOUNT                              #  AND SIGNS AFTER A COMPLETED DISPLAY.


002722: 41,3447           00115                           TC       WDRET
002723:
002724: 41,3450     4757               DSPMSK             =        SEVEN
002725:
002726:
002727:                                                                                                  #  FOR DSPIN PLACE 0/25 OCT INTO COUNT, 5 BIT RELAY CODE INTO CODE. BOTH
002728:                                                                                                  #  ARE DESTROYED. IF BIT14 OF COUNT IS 1, SIGN IS BLANKED WITH LEFT CHAR.
002729:                                                                                                  #  FOR DSPIN1 PLACE 0,1 INTO BIT11 OF CODE, 2 INTO COUNT, REL ADDRESS OF
002730:                                                                                                  #  DSPTAB ENTRY INTO DSREL.
002731:
002732: 40,3365                                           SETLOC   ENDECVN
002733:
002734: 40,3365                                           COUNT*   $$/PIN
002735: 40,3365           56002        DSPIN              XCH      Q                                     #  CANT USE L FOR RETURN, SINCE MANY OF THE
002736: 40,3366           54114                           TS       DSEXIT                                #  ROUTINES CALLING DSPIN USE L AS RETURN.
002737: 40,3367           34346                           CAF      LOW5
002738: 40,3370           70143                           MASK     COUNT
002739: 40,3371           54021                           TS       SR
002740: 40,3372           56021                           XCH      SR
002741: 40,3373           54141                           TS       DSREL
002742: 40,3374           34753                           CAF      BIT1
002743: 40,3375           70143                           MASK     COUNT
002744: 40,3376           10000                           CCS      A
002745: 40,3377           03401                           TC       +2                                    #  LEFT IF COUNT IS ODD
002746: 40,3400           03411                           TC       DSPIN1     -1                         #  RIGHT IF COUNT IS EVEN
002747: 40,3401           56124                           XCH      CODE
002748: 40,3402           04340                           TC       SLEFT5                                #  DOES NOT USE CYL
002749: 40,3403           54124                           TS       CODE
002750: 40,3404           34736                           CAF      BIT14
002751: 40,3405           70143                           MASK     COUNT
002752: 40,3406           10000                           CCS      A
002753: 40,3407           34752                           CAF      TWO                                   #  BIT14 = 1, BLANK SIGN
002754: 40,3410           64753                           AD       ONE                                   #  BIT14 = 0, LEAVE SIGN ALONE
002755: 40,3411           54143                           TS       COUNT                                 #  +0 INTO COUNT FOR RIGHT
002756:                                                                                                  #  +1 INTO COUNT FOR LEFT(SIGN LEFT ALONE)
002757:                                                                                                  #  +3 INTO COUNT FOR LEFT(TO BLANK SIGN)
002758: 40,3412           00004        DSPIN1             INHINT
002759: 40,3413           50141                           INDEX    DSREL
002760: 40,3414           11022                           CCS      DSPTAB
002761: 40,3415           03417                           TC       +2                                    #  IF +
002762: 40,3416           05706                           TC       CCSHOLE
002763: 40,3417           64753                           AD       ONE                                   #  IF-
002764: 40,3420           54142                           TS       DSMAG
002765: 40,3421           50143                           INDEX    COUNT
002766: 40,3422           73443                           MASK     DSMSK
002767: 40,3423           00006                           EXTEND
002768: 40,3424           60124                           SU       CODE
002769: 40,3425           00006                           EXTEND
002770: 40,3426           13441                           BZF      DSLV                                  #  SAME
002771: 40,3427           50143        DFRNT              INDEX    COUNT


002773: 40,3430           43443                           CS       DSMSK                                 #  MASK WITH 77740,76037,75777, OR 74037
002774: 40,3431           70142                           MASK     DSMAG
002775: 40,3432           60124                           AD       CODE
002776: 40,3433           40000                           CS       A
002777: 40,3434           50141                           INDEX    DSREL
002778: 40,3435           57022                           XCH      DSPTAB
002779: 40,3436           00006                           EXTEND
002780: 40,3437           63441                           BZMF     DSLV                                  #  DSPTAB ENTRY WAS -
002781: 40,3440           25015                           INCR     NOUT                                  #  DSPTAB ENTRY WAS +
002782: 40,3441           00003        DSLV               RELINT
002783: 40,3442           00114                           TC       DSEXIT
002784:
002785: 40,3443           00037        DSMSK              OCT      37
002786: 40,3444           01740                           OCT      1740
002787: 40,3445           02000                           OCT      2000
002788: 40,3446           03740                           OCT      3740
002789:
002790:
002791:                                                                                                  #  FOR 11DSPIN, PUT REL ADDRESSS OF DSPTAB ENTRY INTO A, 1 IN BIT11 OR 0 IN
002792:                                                                                                  #  BIT11 OF CODE.
002793:
002794: 40,3447           54141        11DSPIN            TS       DSREL
002795: 40,3450           34752                           CAF      TWO
002796: 40,3451           54143                           TS       COUNT
002797: 40,3452           56002                           XCH      Q                                     #  MUST USE SAME RETURN AS DSPIN
002798: 40,3453           54114                           TS       DSEXIT
002799: 40,3454           03412                           TC       DSPIN1
002800:
002801:
002802: 40,3455           03365        DSPOCTIN           TC       DSPIN                                 #  SO DSPOCTWD DOESNT USE SWCALL
002803: 40,3456           33460                           CAF      +2
002804: 40,3457           04640                           TC       BANKJUMP
002805: 40,3460           63443        ENDSPOCT           CADR     OCTBACK
002806:
002807:
002808:                                                                                                  #  DSPALARM FINDS TC NVSUBEND IN ENTRET FOR NVSUB INITIATED ROUTINES.
002809:                                                                                                  #  ABORT WITH 01501.
002810:                                                                                                  #  DSPALARM FINDS TC ENDOFJOB IN ENTRET FOR KEYBOARD INITIATED ROUTINES.
002811:                                                                                                  #  DO TC ENTRET.
002812:
002813: 40,3461           44360        PREDSPAL           CS       VD1
002814: 40,3462           54776                           TS       DSPCOUNT
002815: 40,3463           43504        DSPALARM           CS       NVSBENDL
002816: 40,3464           60136                           AD       ENTEXIT
002817: 40,3465           00006                           EXTEND
002818: 40,3466           13501                           BZF      CHARALRM   +2
002819: 40,3467           43503                           CS       MONADR                                #  IF THIS IS A MONITOR, KILL IT
002820: 40,3470           60136                           AD       ENTEXIT
002821: 40,3471           00006                           EXTEND
002822: 40,3472           13474                           BZF      +2


002824: 40,3473           03477                           TC       CHARALRM
002825: 40,3474           04204                           TC       KILMONON
002826: 40,3475           04364                           TC       FALTON
002827: 40,3476           04124                           TC       PASTEVB                               #  PUT MONITOR VERB BACK IN VERBREG
002828: 40,3477           04364        CHARALRM           TC       FALTON                                #  NOT NVSUB INITIATED. TURN ON OPR ERROR
002829: 40,3500           05155                           TC       ENDOFJOB
002830: 40,3501           05653                           TC       POODOO
002831: 40,3502           21501                           OCT      21501
002832: 40,3503           04124        MONADR             GENADR   PASTEVB
002833: 40,3504           04202        NVSBENDL           TC       NVSUBEND
002834:
002835:
002836:                                                                                                  #  ALMCYCLE TURNS ON CHECK FAIL LIGHT, REDISPLAYS THE ORIGINAL VERB THAT
002837:                                                                                                  #  WAS EXECUTED, AND RECYCLES TO EXECUTE THE ORIGINAL VERB/NOUN COMBINATION
002838:                                                                                                  #  THAT WAS LAST EXECUTED. USED FOR BAD DATA DURING LOAD VERBS AND BY
002839:                                                                                                  #  MCTBS. ALSO BY MMCHANG IF 2 NUMERICAL CHARACTERS WERE NOT PUNCHED IN
002840:                                                                                                  #  FOR MM CODE.
002841:
002842:    4145                                           SETLOC   MID7       +1
002843:    4145                                           COUNT*   $$/PIN
002844:    4145           04364        ALMCYCLE           TC       FALTON                                #  TURN ON CHECK FAIL LIGHT.
002845:    4146           41040                           CS       VERBSAVE                              #  GET ORIGINAL VERB THAT WAS EXECUTED
002846:    4147           55012                           TS       REQRET                                #  SET FOR ENTPAS0
002847:    4150           04616                           TC       BANKCALL                              #  PUTS ORIGINAL VERB INTO VERBREG AND
002848:    4151           62346                           CADR     UPDATVB    -1                         #  DISPLAYS IT IN VERB LIGHTS.
002849:    4152           04635                           TC       POSTJUMP
002850:    4153           62002        ENDALM             CADR     ENTER
002851:
002852:
002853:                                                                                                  #  MMCHANG USES NOUN DISPLAY UNTIL ENTER. THEN IT USES MODE DISP.
002854:                                                                                                  #  IT GOES TO MODROUT WITH THE NEW M M CODE IN A, BUT NOT DISPLAYED IN
002855:                                                                                                  #  MM LIGHTS.
002856:                                                                                                  #  IT DEMANDS 2 NUMERICAL CHARACTERS BE PUNCHED IN FOR NEW MM CODE.
002857:                                                                                                  #  IF NOT, IT RECYCLES.
002858:
002859: 41,3450                                           SETLOC   DSPLV      +3
002860: 41,3450                                           COUNT*   $$/PIN
002861: 41,3450           03472        MMCHANG            TC       REQMM                                 #  ENTPASHI ASSUMES THE TC REQMM AT MMCHANG
002862:                                                                                                  #  IF THIS MOVES AT ALL, MUST CHANGE
002863:                                                                                                  #  MMADREF AT ENTPASHI.
002864: 41,3451           34747                           CAF      BIT5                                  #  OCT20 = ND2.
002865: 41,3452           60776                           AD       DSPCOUNT                              #  DSPCOUNT MUST = -ND2.
002866: 41,3453           00006                           EXTEND                                         #  DEMAND THAT 2 NUM CHAR WERE PUNCHED IN.
002867: 41,3454           13456                           BZF      +2
002868: 41,3455           04145                           TC       ALMCYCLE                              #  DSPCOUNT NOT= -ND2. ALARM AND RECYCLE.
002869: 41,3456           34755                           CAF      ZERO                                  #  DSPCOUNT = -ND2.
002870: 41,3457           57001                           XCH      NOUNREG
002871: 41,3460           54154                           TS       MPAC
002872: 41,3461           34361                           CAF      ND1
002873: 41,3462           54776                           TS       DSPCOUNT


002875: 41,3463           04616                           TC       BANKCALL
002876: 41,3464           60610                           CADR     2BLANK
002877: 41,3465           44360                           CS       VD1                                   #  BLOCK NUM CHAR IN
002878: 41,3466           54776                           TS       DSPCOUNT
002879: 41,3467           30154                           CA       MPAC
002880: 41,3470           04635                           TC       POSTJUMP
002881: 41,3471           10040                           CADR     MODROUTB                              #  GO THRU STANDARD LOC.
002882:
002883:
002884: 41,3472  04,2040               MODROUTB           =        V37
002885: 41,3472           40002        REQMM              CS       Q
002886: 41,3473           55012                           TS       REQRET
002887: 41,3474           34361                           CAF      ND1
002888: 41,3475           54776                           TS       DSPCOUNT
002889: 41,3476           34755                           CAF      ZERO
002890: 41,3477           55001                           TS       NOUNREG
002891: 41,3500           04616                           TC       BANKCALL
002892: 41,3501           60610                           CADR     2BLANK
002893: 41,3502           04427                           TC       FLASHON
002894: 41,3503           34753                           CAF      ONE
002895: 41,3504           54777                           TS       DECBRNCH                              #  SET FOR DEC
002896: 41,3505           00136                           TC       ENTEXIT
002897:
002898:
002899:                                                                                                  #  VBRQEXEC ENTERS REQUEST TO EXEC     FOR ANY ADDRESS WITH ANY PRIORITY.
002900:                                                                                                  #  IT DOES ENDOFJOB AFTER ENTERING REQUEST. DISPLAY SYST IS RELEASED.
002901:                                                                                                  #  IT ASSUMES NOUN 26 HAS BEEN PRELOADED WITH
002902:                                                                                                  #  COMPONENT 1  PRIORITY(BITS 10-14) BIT1=0 FOR NOVAC, BIT1=1 FOR FINDVAC.
002903:                                                                                                  #  COMPONENT 2  JOB ADRES (12 BIT )
002904:                                                                                                  #  COMPONENT 3  BBCON
002905:
002906: 41,3506           34753        VBRQEXEC           CAF      BIT1
002907: 41,3507           71044                           MASK     DSPTEM1
002908: 41,3510           10000                           CCS      A
002909: 41,3511           03530                           TC       SETVAC                                #  IF BIT1 = 1, FINDVAC
002910: 41,3512           34351                           CAF      TCNOVAC                               #  IF BIT1 = 0, NOVAC
002911: 41,3513           54154        REQEX1             TS       MPAC                                  #  TC NOVAC  OR  TC FINDVAC INTO MPAC
002912: 41,3514           44753                           CS       BIT1
002913: 41,3515           71044                           MASK     DSPTEM1
002914: 41,3516           54160                           TS       MPAC       +4                         #  PRIO INTO MPAC+4 AS A TEMP
002915: 41,3517           04457        REQUESTC           TC       RELDSP
002916: 41,3520           34217                           CA       ENDINST
002917: 41,3521           54157                           TS       MPAC       +3                         #  TC ENDOFJOB INTO MPAC+3
002918: 41,3522           00006                           EXTEND
002919: 41,3523           31046                           DCA      DSPTEM1    +1                         #  JOB ADRES INTO MPAC+1
002920: 41,3524           52156                           DXCH     MPAC       +1                         #  BBCON INTO MPAC+2
002921: 41,3525           30160                           CA       MPAC       +4                         #  PRIO IN A
002922: 41,3526           00004                           INHINT
002923: 41,3527           00154                           TC       MPAC
002924:


002926: 41,3530           34354        SETVAC             CAF      TCFINDVC
002927: 41,3531           03513                           TC       REQEX1
002928:
002929:                                                                                                  #  VBRQWAIT ENTERS REQUEST TO WAITLIST FOR ANY ADDRESS WITH ANY DELAY.
002930:                                                                                                  #  IT DOES ENDOFJOB AFTER ENTERING REQUEST.DISPLAY SYST IS RELEASED.
002931:                                                                                                  #  IT ASSUMES NOUN 26 HAS BEEN PRELOADED WITH
002932:                                                                                                  #  COMPONENT 1  DELAY (LOW BITS)
002933:                                                                                                  #  COMPONENT 2  TASK ADRES (12 BIT)
002934:                                                                                                  #  COMPONENT 3  BBCON
002935:
002936: 41,3532           34352        VBRQWAIT           CAF      TCWAIT
002937: 41,3533           54154                           TS       MPAC                                  #  TC WAITLIST INTO MPAC
002938: 41,3534           31044                           CA       DSPTEM1                               #  TIME DELAY
002939: 41,3535           03516        ENDRQWT            TC       REQUESTC   -1
002940:
002941:                                                                                                  #  REQUESTC WILL PUT TASK ADRES INTO MPAC+1, BBCON INTO MPAC+2,
002942:                                                                                                  #  TC ENDOFJOB INTO MPAC+3. IT WILL TAKE TIME DELAY OUT OF MPAC+4 AND
002943:                                                                                                  #  LEAVE IT IN A, INHINT AND TC MPAC.
002944:
002945:
002946: 40,3505                                           SETLOC   NVSBENDL   +1
002947: 40,3505                                           COUNT*   $$/PIN
002948: 40,3505           34753        VBPROC             CAF      ONE                                   #  PROCEED WITHOUT DATA
002949: 40,3506           55013                           TS       LOADSTAT
002950: 40,3507           04204                           TC       KILMONON                              #  TURN ON KILL MONITOR BIT
002951: 40,3510           04457                           TC       RELDSP
002952: 40,3511           04433                           TC       FLASHOFF
002953: 40,3512           03621                           TC       RECALTST                              #  SEE IF THERE IS ANY RECALL FROM ENDIDLE
002954:
002955:
002956: 40,3513           44753        VBTERM             CS       ONE
002957: 40,3514           03506                           TC       VBPROC     +1                         #  TERM VERB SETS LOADSTAT NEG
002958:
002959:
002960:                                                                                                  #  PROCKEY PERFORMS THE SAME FUNCTION AS VBPROC.  IT MUST BE CALLED UNDER
002961:                                                                                                  #  EXECUTIVE CONTROL, WITH CHRPRIO.
002962: 40,3515           41000        PROCKEY            CS       VERBREG                               #  DONT ALLOW PROCEED DURING LOAD.
002963: 40,3516           63532                           AD       VBSP2LD*                              #  DEC 22
002964: 40,3517           00006                           EXTEND
002965: 40,3520           26000                           DIM      A
002966: 40,3521           00006                           EXTEND
002967: 40,3522           13477                           BZF      CHARALRM
002968: 40,3523           34755        PROCKEY1           CAF      ZERO                                  #  SET REQRET FOR ENTER PASS 0.
002969: 40,3524           55012                           TS       REQRET
002970: 40,3525           44360                           CS       VD1                                   #  BLOCK NUMERICAL CHARACTERS, SIGNS, CLEAR
002971: 40,3526           54776                           TS       DSPCOUNT
002972: 40,3527           03505                           TC       VBPROC
002973:
002974:
002975:                                                                                                  #  VBRESEQ WAKES ENDIDLE AT SAME LINE AS FINAL ENTER OF LOAD (L+3).


002977:                                                                                                  #  (MAIN USE IS INTENDED AS RESPONSE TO INTERNALLY INITIATED FLASHING
002978:                                                                                                  #   DISPLAYS IN ENDIDLE. SHOULD NOT BE USED WITH LOAD VERBS,PLEASE PERFORM,
002979:                                                                                                  #   OR PLEASE MARK VERBS BECAUSE THEY ALREADY USE L+3 IN ANOTHER CONTEXT.)
002980:
002981: 40,3530           44755        VBRESEQ            CS       ZERO                                  #  MAKE IT LOOK LIKE DATA IN.
002982: 40,3531           03506                           TC       VBPROC     +1
002983:
002984:
002985: 40,3532           00026        VBSP2LD*           DEC      22         B-14                       #  VB22 = BLOAD
002986:
002987:                                                                                                  #  FLASH IS TURNED OFF BY PROCEED WITHOUT DATA, TERMINATE, RESEQUENCE,
002988:                                                                                                  #  END OF LOAD.
002989:


002991:                                                                                                  #  KEY RELEASE ROUTINE
002992:
002993:                                                                                                  #  THIS ROUTINE ALWAYS TURNS OFF THE UPACT LIGHT AND ALWAYS CLEARS DSPLOCK.
002994:
002995:                                                                                                  #  THE HIGHEST PRIORITY FUNCTION OF THE KEY RELEASE BUTTON IS THE
002996:                                                                                                  #  UNSUSPENDING OF A SUSPENDED MONITOR WHICH WAS EXTERNALLY INITIATED.
002997:                                                                                                  #  THIS FUNCTION IS ACCOMPLISHED BY CLEARING DSPLOCK AND TURNING OFF
002998:                                                                                                  #  THE KEY RELEASE LIGHT IF BOTH DSPLIST AND CADRSTOR ARE EMPTY.
002999:
003000:                                                                                                  #  IF NO SUCH MONITOR EXISTS, THEN RELDSP IS EXECUTED TO CLEAR DSPLOCK
003001:                                                                                                  #  AND THE EXTERNAL MONITOR BIT (FREEING THE DISPLAY SYSTEM FOR INTERNAL
003002:                                                                                                  #  USE), TURN OFF THE KEY RELEASE LIGHT, AND WAKE UP ANY JOB IN DSPLIST.
003003:
003004:                                                                                                  #  IN ADDITION IF THERE IS A JOB IN ENDIDLE, THEN CONTROL IS TRANSFERRED
003005:                                                                                                  #  TO PINBRNCH (IN DISPLAY INTERFACE ROUTINE) TO RE-EXECUTE THE SERIES OF
003006:                                                                                                  #  NVSUB CALLS ETC. THAT PRECEDED THE ENDIDLE CALL STILL AWAITING RESPONSE.
003007:                                                                                                  #  THIS FEATURE IS INTENDED FOR USE WHEN THE OPERATOR HAS BEEN REQUESTED TO
003008:                                                                                                  #  RESPOND TO SOME INTERNAL ACTION THAT USED ENDIDLE, BUT HE HAS WRITTEN
003009:                                                                                                  #  OVER THE INFORMATION ON THE DISPLAY PANEL BY SOME DISPLAYS OF HIS OWN
003010:                                                                                                  #  INITIATION WHICH DO NOT SERVE AS RESPONSES. HITTING KEY RLSE WILL
003011:                                                                                                  #  RE-ESTABLISH THE DISPLAYS TO THE STATE THEY WERE IN BEFORE HE OBSCURED
003012:                                                                                                  #  THEM, SO THAT HE CAN SEE THE WAITING REQUEST.  THIS WORKS ONLY FOR
003013:                                                                                                  #  INTERNAL PROGRAMS THAT USED ENDIDLE THROUGH MARGARETS DISPLAY
003014:                                                                                                  #  SUBROUTINES.
003015:
003016: 40,3533           44751        VBRELDSP           CS       BIT3
003017: 40,3534           00006                           EXTEND
003018: 40,3535           03011                           WAND     DSALMOUT                              #  TURN OFF UPACT LITE
003019: 40,3536           10115                           CCS      21/22REG                              #  OLD DSPLOCK
003020: 40,3537           34736                           CAF      BIT14
003021: 40,3540           71020                           MASK     MONSAVE1                              #  EXTERNAL MONITOR BIT (EMB)
003022: 40,3541           10000                           CCS      A
003023: 40,3542           03551                           TC       UNSUSPEN                              #  OLD DSPLOCK AND EMB BOTH 1, UNSUSPEND.
003024: 40,3543           04457        TSTLTS4            TC       RELDSP                                #  NOT UNSUSPENDING EXTERNAL MONITOR,
003025: 40,3544           11041                           CCS      CADRSTOR                              #   RELEASE DISPLAY SYSTEM AND
003026: 40,3545           03547                           TC       +2                                    #   DO RE-ESTABLISH IF CADRSTOR IS FULL.
003027: 40,3546           05155                           TC       ENDOFJOB
003028: 40,3547           04635                           TC       POSTJUMP
003029: 40,3550           21051                           CADR     PINBRNCH
003030: 40,3551           34755        UNSUSPEN           CAF      ZERO                                  #  EXTERNAL MONITOR IS SUSPENDED,
003031: 40,3552           55011                           TS       DSPLOCK                               #   JUST UNSUSPEND IT BY CLEARING DSPLOCK.
003032: 40,3553           11041                           CCS      CADRSTOR                              #   TURN KEY RELEASE LIGHT OFF IF BOTH
003033: 40,3554           05155                           TC       ENDOFJOB                              #   CADRSTOR AND DSPLIST ARE EMPTY.
003034: 40,3555           04502                           TC       RELDSP1
003035: 40,3556           05155                           TC       ENDOFJOB
003036:
003037: 40,3557                        ENDRELDS           EQUALS
003038:


003040:                                                                                                  #  NVSUB IS USED FOR SUB ROUTINE CALLS FROM WITHIN COMPUTER. IT CAN BE
003041:                                                                                                  #  USED TO CALL THE COMBINATION OF ANY DISPLAY, LOAD, OR MONITOR VERB
003042:                                                                                                  #  TOGETHER WITH ANY NOUN AVAILABLE TO THE KEYBOARD.
003043:                                                                                                  #  PLACE 0VVVVVVVNNNNNNN INTO A.
003044:                                                                                                  #  V-S ARE THE 7 BIT VERB CODE.  N-S ARE THE 7 BIT NOUN CODE.
003045:
003046:                                                                                                  #  IF NVSUB IS CALLED WITH THE FOLLOWING NEGATIVE NUMBERS (RATHER THAN THE
003047:                                                                                                  #  VERB-NOUN CODE) IN A, THEN THE DISPLAY IS BLANKED AS FOLLOWS-
003048:                                                                                                  #   -4 FULL BLANK, -3 LEAVE MODE, -2 LEAVE MODE AND VERB, -1 BLANK R-S ONLY
003049:
003050:                                                                                                  #  NVSUB CAN BE USED WITH MACH CADR TO BE SPEC BY PLACING THE CADR INTO
003051:                                                                                                  #  MPAC+2 BEFORE THE STANDARD NVSUB CALL.
003052:
003053:                                                                                                  #   NVSUB RETURNS TO 2+ CALLING LOC AFTER PERFORMING TASK, IF DISPLAY
003054:                                                                                                  #  SYSTEM IS AVAILABLE. THE NEW NOUN AND VERB CODES ARE DISPLAYED.
003055:                                                                                                  #  IF V:S =0, THE NEW NOUN CODE IS DISPLAYED ONLY(RETURN WITH NO FURTHER
003056:                                                                                                  #  ACTION). IF N-S =0, THE NEW VERB CODE IS DISPLAYED ONLY(RETURN WITH NO
003057:                                                                                                  #  FURTHER ACTION).
003058:
003059:                                                                                                  #  IT RETURNS TO 1+ CALLING LOC WITHOUT PERFORMING TASK, IF DISPLAY
003060:                                                                                                  #  SYSTEM IS BLOCKED (NOTHING IS DISPLAYED IN THIS CASE).
003061:                                                                                                  #  IT DOES TC ABORT (WITH OCT 01501) IF IT ENCOUNTERS A DISPLAY PROGRAM
003062:                                                                                                  #  ALARM CONDITION BEFORE RETURN TO CALLER.
003063:
003064:                                                                                                  #  THE DISPLAY SYSTEM IS BLOCKED BY THE DEPRESSION OF ANY
003065:                                                                                                  #  KEY, EXCEPT ERROR LIGHT RESET
003066:                                                                                                  #  IT IS RELEASED BY THE KEY RELEASE BUTTON, ALL EXTENDED VERBS,
003067:                                                                                                  #  PROCEED WITHOUT DATA, TERMINATE, RESEQUENCE, INITIALIZE EXECUTIVE,
003068:                                                                                                  #  RECALL PART OF RECALTST IF ENDIDLE WAS USED,
003069:                                                                                                  #  VB = REQUEST EXECUTIVE, VB = REQUEST WAITLIST,
003070:                                                                                                  #  MONITOR SET UP.
003071:
003072:                                                                                                  #  THE DISPLAY SYSTEM IS ALSO BLOCKED BY THE EXTERNAL MONITOR BIT, WHICH
003073:                                                                                                  #  INDICATES AN EXTERNALLY INITIATED MONITOR IS RUNNING (SEE MONITOR)
003074:
003075:                                                                                                  #  A NVSUB CALL THAT PASSES DSPLOCK AND THE EXTERNAL MONITOR BIT ENDS OLD
003076:                                                                                                  #  MONITOR.
003077:
003078:                                                                                                  #  DSPLOCK IS THE INTERLOCK FOR USE OF KEYBOARD AND DISPLAY SYSTEM WHICH
003079:                                                                                                  #  LOCKS OUT INTERNAL USE WHENEVER THERE IS EXTERNAL KEYBOARD ACTION.
003080:
003081:                                                                                                  #  NVSUB SHOULD BE USED TWICE IN SUCCESSION FOR :PLEASE PERFORM: SITUATIONS
003082:                                                                                                  #  (SIMILARLY FOR PLEASE MARK). FIRST PLACE THE CODED NUMBER FOR WHAT
003083:                                                                                                  #  ACTION IS DESIRED OF OPERATOR INTO THE REGISTERS REFERRED TO BY THE
003084:                                                                                                  #  :CHECKLIST: NOUN. GO TO NVSUB WITH A DISPLAY VERB AND THE :CHECKLIST:
003085:                                                                                                  #  NOUN. GO TO NVSUB AGAIN WITH THE :PLEASE PERFORM: VERB AND ZEROS IN THE
003086:                                                                                                  #  LOW 7 BITS. THIS :PASTES UP: THE :PLEASE PERFORM: VERB INTO THE VERB
003087:                                                                                                  #  LIGHTS.
003088:
003089:                                                                                                  #  NVMONOPT IS AN ENTRY SIMILAR TO NVSUB, BUT REQUIRING AN ADDITIONAL


003091:                                                                                                  #  PARAMETER IN L. IT SHOULD BE USED ONLY WITH A MONITOR VERB-NOUN CODE IN
003092:                                                                                                  #  A. AFTER EACH MONITOR DISPLAY A *PLEASE* VERB WILL BE PASTED IN THE VERB
003093:                                                                                                  #  LIGHTS OR DATA WILL BE BLANKED (OR BOTH) ACCORDING TO THE OPTIONS
003094:                                                                                                  #  SPECIFIED IN L. IF BITS 8-14 OF L ARE OTHER THAN ZERO, THEN THEY WILL
003095:                                                                                                  #  BE INTERPRETED AS A VERB CODE AND PASTED IN THE VERB LIGHTS. (THIS VERB
003096:                                                                                                  #  CODE SHOULD DESIGNATE ONE OF THE *PLEASE* VERBS.) IF BITS 1-3 OF L ARE
003097:                                                                                                  #  OTHER THAN ZERO, THEN THEY WILL BE USED TO BLANK DATA BY BEING FED TO
003098:                                                                                                  #  BLANKSUB. IF NVMONOPT IS USED WITH A VERB OTHER THAN A MONITOR VERB,
003099:                                                                                                  #  THE PARAMETER IN L HAS NO EFFECT.
003100:
003101:                                                                                                  #  NVSUB IN FIXED-FIXED PLACES 2+CALLING LOC INTO NVQTEM, TC NVSUBEND INTO
003102:                                                                                                  #  ENTRET. (THIS WILL RESTORE OLD CALLING BANK BITS)
003103:
003104:    4154                                           SETLOC   ENDALM     +1
003105:
003106:    4154                                           COUNT*   $$/PIN
003107:    4154           22007        NVSUB              LXCH     7                                     #  ZERO NVMONOPT OPTIONS
003108:    4155           54123        NVMONOPT           TS       NVTEMP
003109:    4156           34736                           CAF      BIT14
003110:    4157           71020                           MASK     MONSAVE1                              #  EXTERNAL MONITOR BIT
003111:    4160           61011                           AD       DSPLOCK
003112:    4161           10000                           CCS      A
003113:    4162           00002                           TC       Q                                     #  DSP SYST BLOCKED. RET TO 1+ CALLING LOC
003114:    4163           34753                           CAF      ONE                                   #  DSP SYST AVAILABLE
003115:    4164           60002        NVSBCOM            AD       Q
003116:    4165           55036                           TS       NVQTEM                                #  2+ CALLING LOC INTO NVQTEM
003117:    4166           23021                           LXCH     MONSAVE2                              #  STORE NVMONOPT OPTIONS
003118:    4167           04204                           TC       KILMONON                              #  TURN ON KILL MONITOR BIT
003119:    4170           34201        NVSUBCOM           CAF      NVSBBBNK
003120:
003121:    4171           56006                           XCH      BBANK
003122:    4172           00006                           EXTEND                                         #  SAVE OLD SUPERBITS
003123:    4173           04007                           ROR      SUPERBNK
003124:    4174           55037                           TS       NVBNKTEM
003125:    4175           34201                           CAF      PINSUPBT
003126:    4176           00006                           EXTEND
003127:    4177           01007                           WRITE    SUPERBNK
003128:    4200           02000                           TC       NVSUBB                                #  GO TO NVSUB1 THRU STANDARD LOC
003129:    4201     0776                                  EBANK=   DSPCOUNT
003130:    4201           62101        NVSBBBNK           BBCON    NVSUB1
003131:
003132:    4202     4201               PINSUPBT           =        NVSBBBNK                              #  CONTAINS THE PINBALL SUPERBITS.
003133:
003134:    4202           53037        NVSUBEND           DXCH     NVQTEM                                #  NVBNKTEM MUST = NVQTEM+1
003135:    4203           05176                           TC       SUPDXCHZ                              #  DTCB WITH SUPERBIT SWITCHING
003136:
003137: 41,3536                                           SETLOC   ENDRQWT    +1
003138:
003139: 41,3536                                           COUNT*   $$/PIN
003140:                                                                                                  #  BLANKDSP BLANKS DISPLAY ACCORDING TO OPTION NUMBER IN NVTEMP AS FOLLOWS


003142:                                                                                                  #   -4 FULL BLANK, -3 LEAVE MODE, -2 LEAVE MODE AND VERB, -1 BLANK R-S ONLY
003143:
003144: 41,3536           64757        BLANKDSP           AD       SEVEN                                 #  7,8,9,OR 10 (A HAD 0,1,2,OR 3)
003145: 41,3537           00004                           INHINT
003146: 41,3540           54124                           TS       CODE                                  #  BLANK SPECIFIED DSPTABS
003147: 41,3541           44740                           CS       BIT12
003148: 41,3542           50124                           INDEX    CODE
003149: 41,3543           57022                           XCH      DSPTAB
003150: 41,3544           10000                           CCS      A
003151: 41,3545           25015                           INCR     NOUT
003152: 41,3546           03547                           TC       +1
003153: 41,3547           10124                           CCS      CODE
003154: 41,3550           03540                           TC       BLANKDSP   +2
003155: 41,3551           00003                           RELINT
003156: 41,3552           50123                           INDEX    NVTEMP
003157: 41,3553           03560                           TC       +5
003158: 41,3554           03555                           TC       +1                                    #  NVTEMP HAS -4 (NEVER TOUCH MODREG)
003159: 41,3555           55000                           TS       VERBREG                               #             -3
003160: 41,3556           55001                           TS       NOUNREG                               #             -2
003161: 41,3557           55014                           TS       CLPASS                                #             -1
003162: 41,3560           44360                           CS       VD1
003163: 41,3561           54776                           TS       DSPCOUNT
003164: 41,3562           04433                           TC       FLASHOFF                              #  PROTECT AGAINST INVISIBLE FLASH
003165: 41,3563           03606                           TC       ENTSET     -2                         #  ZEROS REQRET
003166:
003167: 41,3564           33610        NVSUB1             CAF      ENTSET                                #  IN BANK
003168: 41,3565           54136                           TS       ENTRET                                #  SET RETURN TO NVSUBEND
003169: 41,3566           10123                           CCS      NVTEMP                                #  WHAT NOW
003170: 41,3567           03573                           TC       +4                                    #  NORMAL NVSUB CALL (EXECUTE VN OR PASTE)
003171: 41,3570           02360                           TC       GODSPALM
003172: 41,3571           03536                           TC       BLANKDSP                              #  BLANK DISPLAY AS SPECIFIED
003173: 41,3572           02360                           TC       GODSPALM
003174: 41,3573           36077                           CAF      LOW7
003175: 41,3574           70123                           MASK     NVTEMP
003176: 41,3575           54157                           TS       MPAC       +3                         #  TEMP FOR NOUN (CANT USE MPAC. DSPDECVN
003177: 41,3576           30123                           CA       NVTEMP                                #                  USES MPAC, +1, +2
003178: 41,3577           54023                           TS       EDOP                                  #  RIGHT 7
003179: 41,3600           30023                           CA       EDOP
003180: 41,3601           54160                           TS       MPAC       +4                         #  TEMP FOR VERB (CANT USE MPAC+1. DSPDECVN
003181:                                                                                                  #                 USES MPAC, +1, +2).
003182: 41,3602           10157                           CCS      MPAC       +3                         #  TEST NOUN
003183: 41,3603           03611                           TC       NVSUB2                                #  IF NOUN NOT +0, GO ON
003184: 41,3604           30160                           CA       MPAC       +4
003185: 41,3605           02346                           TC       UPDATVB    -1                         #  IF NOUN = +0, DISPLAY VERB . THEN RETURN
003186: 41,3606           34755                           CAF      ZERO                                  #  ZERO REQRET SO THAT PASTED VERBS CAN
003187: 41,3607           55012                           TS       REQRET                                #  BE EXECUTED BY OPERATOR.
003188: 41,3610           04202        ENTSET             TC       NVSUBEND
003189: 41,3611           10160        NVSUB2             CCS      MPAC       +4                         #  TEST VERB
003190: 41,3612           03616                           TC       +4                                    #  IF VERB NOT +0, GO ON
003191: 41,3613           30157                           CA       MPAC       +3


003193: 41,3614           02326                           TC       UPDATNN    -1                         #  IF VERB = +0, DISPLAY NOUN. THEN RETURN
003194: 41,3615           04202                           TC       NVSUBEND
003195: 41,3616           30156                           CA       MPAC       +2                         #  TEMP FOR MACH CADR TO BE SPEC. (DSPDECVN
003196: 41,3617           54161                           TS       MPAC       +5                         #               USES MPAC, +1, +2)
003197: 41,3620           30160                           CA       MPAC       +4
003198: 41,3621           02346                           TC       UPDATVB    -1                         #  IF BOTH NOUN AND VERB NOT +0, DISPLAY
003199: 41,3622           30157                           CA       MPAC       +3                         #  BOTH AND GO TO ENTPAS0.
003200: 41,3623           02326                           TC       UPDATNN    -1
003201: 41,3624           34755                           CAF      ZERO
003202: 41,3625           55013                           TS       LOADSTAT                              #  SET FOR WAITING FOR DATA CONDITION
003203: 41,3626           55014                           TS       CLPASS
003204: 41,3627           55012                           TS       REQRET                                #  SET REQRET FOR PASS 0.
003205: 41,3630           30161                           CA       MPAC       +5                         #  RESTORES MACH CADR TO BE SPEC TO MPAC+2
003206: 41,3631           54156                           TS       MPAC       +2                         #  FOR USE IN INTMCTBS (IN ENTPAS0).
003207: 41,3632           02042        ENDNVSB1           TC       ENTPAS0
003208:
003209:
003210:                                                                                                  #  IF INTERNAL MACH CADR TO BE SPECIFIED, MPAC+2 WILL BE PLACED INTO
003211:                                                                                                  #  NOUNCADR IN ENTPAS0 (INTMCTBS ).
003212:
003213:
003214:    4204                                           SETLOC   NVSUBEND   +2
003215:    4204                                           COUNT*   $$/PIN
003216:                                                                                                  #  FORCE BIT 15 OF MONSAVE1 TO 1.
003217:    4204           34735        KILMONON           CAF      BIT15                                 #     THIS IS THE KILL MONITOR BIT.
003218:    4205           55020                           TS       MONSAVE1                              #  TURN OFF BIT 14, THE EXTERNAL
003219:                                                                                                  #   MONITOR BIT.
003220:    4206           00002                           TC       Q
003221:
003222:
003223:                                                                                                  #  LOADSTAT  +0 INACTIVE(WAITING FOR DATA). SET BY NVSUB
003224:                                                                                                  #            +1  PROCEED NO DATA. SET BY SPECIAL VERB
003225:                                                                                                  #           -1 TERMINATE   SET BY SPECIAL VERB
003226:                                                                                                  #           -0    DATA IN      SET BY END OF LOAD ROUTINE
003227:                                                                                                  #              OR RESEQUENCE   SET BY VERB 32
003228:
003229:
003230:                                                                                                  #  L  TC ENDIDLE  (FIXED FIXED)
003231:                                                                                                  #  ROUTINES THAT REQUEST LOADS THROUGH NVSUB SHOULD USE ENDIDLE WHILE
003232:                                                                                                  #  WAITING FOR THE DATA TO BE LOADED. ENDIDLE PUTS CURRENT JOB TO SLEEP.
003233:                                                                                                  #  ENDIDLE CANNOT BE CALLED FROM ERASABLE OR F/F MEMORY,
003234:                                                                                                  #  SINCE JOBSLEEP AND JOBWAKE CAN HANDLE ONLY FIXED BANKS.
003235:                                                                                                  #  RECALTST TESTS LOADSTAT AND WAKES JOB UP TO,
003236:                                                                                                  #  L+1      FOR TERMINATE
003237:                                                                                                  #  L+2      FOR PROCEED WITHOUT DATA
003238:                                                                                                  #  L+3      FOR DATA IN, OR RESEQUENCE
003239:                                                                                                  #  IT DOES NOTHING IF LOADSTAT INDICATES WAITING FOR DATA.
003240:
003241:
003242:                                                                                                  #  ENDIDLE ABORTS (WITH CODE 01206) IF A SECOND JOB ATTEMPTS TO GO TO SLEEP


003244:                                                                                                  #  IN PINBALL. IN PARTICULAR, IF AN ATTEMPT IS MADE TO GO TO ENDIDLE WHEN
003245:                                                                                                  #  1) CADRSTOR NOT= +0. THIS IS THE CASE WHERE THE CAPACITY OF ENDIDLE IS
003246:                                                                                                  #  EXCEEDED. (+-NZ INDICATE A JOB IS ALREADY ASLEEP DUE TO ENDIDLE.)
003247:                                                                                                  #  2) DSPLIST NOT= +0. THIS INDICATES A JOB IS ALREADY ASLEEP DUE TO
003248:                                                                                                  #  NVSUBUSY.
003249:
003250:    4207           22002        ENDIDLE            LXCH     Q                                     #  RETURN ADDRESS INTO L.
003251:    4210           04220                           TC       ISCADR+0                              #  ABORT IF CADRSTOR NOT= +0
003252:    4211           04224                           TC       ISLIST+0                              #  ABORT IF DSPLIST NOT= +0
003253:    4212           30001                           CA       L                                     #  DONT SET DSPLOCK TO 1 SO CAN USE
003254:    4213           75012                           MASK     LOW10                                 #  ENDIDLE WITH NVSUB INITIATED MONITOR.
003255:    4214           60004                           AD       FBANK                                 #  SAME STRATEGY FOR CADR AS MAKECADR.
003256:    4215           55041                           TS       CADRSTOR
003257:    4216           05133                           TC       JOBSLEEP
003258:
003259:
003260:    4217           05155        ENDINST            TC       ENDOFJOB
003261:
003262:
003263:    4220           11041        ISCADR+0           CCS      CADRSTOR                              #  ABORTS (CODE 01206) IF CADRSTOR NOT= +0.
003264:    4221           04227                           TC       DSPABORT                              #  RETURNS IF CADRSTOR = +0.
003265:    4222           00002                           TC       Q
003266:    4223           04227                           TC       DSPABORT
003267:
003268:    4224           11042        ISLIST+0           CCS      DSPLIST                               #  ABORTS (CODE 01206) IF DSPLIST NOT= +0.
003269:    4225           04227                           TC       DSPABORT                              #  RETURNS IF DSPLIST = +0.
003270:    4226           00002                           TC       Q
003271:    4227           05635        DSPABORT           TC       BAILOUT
003272:    4230           31206                           OCT      31206
003273:
003274:                                                                                                  #  JAMTERM ALLOWS PROGRAMS TO PERFORM THE TERMINATE FUNCTION.
003275:                                                                                                  #  IT DOES ENDOFJOB.
003276:
003277:    4231           34201        JAMTERM            CAF      PINSUPBT
003278:    4232           00006                           EXTEND
003279:    4233           01007                           WRITE    SUPERBNK
003280:    4234           34242                           CAF      34DEC
003281:    4235           55012                           TS       REQRET                                #  LEAVE ENTER SET FOR ENTPASS0.
003282:    4236           44360                           CS       VD1
003283:    4237           54776                           TS       DSPCOUNT
003284:    4240           04635                           TC       POSTJUMP
003285:    4241           61513                           CADR     VBTERM
003286:
003287:    4242           00042        34DEC              DEC      34         B-14
003288:
003289:
003290:                                                                                                  #  JAMPROC ALLOWS PROGRAMS TO PERFORM THE PROCEED/PROCEED WITHOUT DATA
003291:                                                                                                  #  FUNCTION. IT DOES ENDOFJOB.
003292:
003293:    4243           34201        JAMPROC            CAF      PINSUPBT


003295:    4244           00006                           EXTEND
003296:    4245           01007                           WRITE    SUPERBNK
003297:    4246           34254                           CAF      33DEC
003298:    4247           55012                           TS       REQRET                                #  LEAVE ENTER SET FOR ENTPASS0.
003299:    4250           44360                           CS       VD1
003300:    4251           54776                           TS       DSPCOUNT
003301:    4252           04635                           TC       POSTJUMP
003302:    4253           61505                           CADR     VBPROC
003303:
003304:    4254           00041        33DEC              DEC      33         B-14
003305:
003306:
003307:                                                                                                  #  BLANKSUB BLANKS ANY COMBINATION OF R1, R2, R3.
003308:                                                                                                  #  CALL WITH BLANKING CODE IN A.
003309:                                                                                                  #  BIT1=1 BLANKS R1, BIT2=1 BLANKS R2, BIT3=1 BLANKS R3.
003310:                                                                                                  #  ANY COMBINATION OF THESE BITS IS ACCEPTED.
003311:
003312:                                                                                                  #  DSPCOUNT IS RESTORED TO STATE IT WAS IN BEFORE BLANKSUB WAS EXECUTED.
003313:
003314:    4255           74757        BLANKSUB           MASK     SEVEN
003315:    4256           54123                           TS       NVTEMP                                #  STORE BLANKING CODE IN NVTEMP.
003316:    4257           34736                           CAF      BIT14
003317:    4260           71020                           MASK     MONSAVE1                              #  EXTERNAL MONITOR BIT
003318:    4261           61011                           AD       DSPLOCK
003319:    4262           10000                           CCS      A
003320:    4263           00002                           TC       Q                                     #  DSP SYST BLOCKED. RET TO 1+ CALLING LOC
003321:    4264           24002                           INCR     Q                                     #  DSP SYST AVAILABLE
003322:                                                                                                  #  SET RETURN FOR 2+ CALLING LOC
003323:    4265           10123                           CCS      NVTEMP
003324:    4266           14270                           TCF      +2
003325:    4267           00002                           TC       Q                                     #  NOTHING TO BLANK. RET TO 2+ CALLING LOC
003326:    4270           22002                           LXCH     Q                                     #  SET RETURN FOR 2 + CALLING LOC
003327:    4271           34302                           CAF      BLNKBBNK
003328:    4272           56006                           XCH      BBANK
003329:    4273           00006                           EXTEND
003330:    4274           04007                           ROR      SUPERBNK                              #  SAVE OLD SUPERBITS.
003331:    4275           52131                           DXCH     BUF
003332:    4276           34201                           CAF      PINSUPBT
003333:    4277           00006                           EXTEND
003334:    4300           01007                           WRITE    SUPERBNK
003335:    4301           03557                           TC       BLNKSUB1
003336:
003337:    4302     0776                                  EBANK=   DSPCOUNT
003338:    4302           60101        BLNKBBNK           BBCON    BLNKSUB1
003339:    4303                        ENDBLFF            EQUALS
003340:
003341: 40,3557                                           SETLOC   ENDRELDS
003342: 40,3557                                           COUNT*   $$/PIN
003343: 40,3557           30776        BLNKSUB1           CA       DSPCOUNT                              #  SAVE OLD DSPCOUNT FOR LATER RESTORATION
003344: 40,3560           54132                           TS       BUF        +2


003346: 40,3561           34753                           CAF      BIT1                                  #  TEST BIT1. SEE IF R1 TO BE BLANKED.
003347: 40,3562           03601                           TC       TESTBIT
003348: 40,3563           34317                           CAF      R1D1
003349: 40,3564           02544                           TC       5BLANK     -1
003350: 40,3565           34752                           CAF      BIT2                                  #  TEST BIT 2. SEE IF R2 TO BE BLANKED.
003351: 40,3566           03601                           TC       TESTBIT
003352: 40,3567           34320                           CAF      R2D1
003353: 40,3570           02544                           TC       5BLANK     -1
003354: 40,3571           34751                           CAF      BIT3                                  #  TEST BIT3. SEE IF R3 TO BE BLANKED.
003355: 40,3572           03601                           TC       TESTBIT
003356: 40,3573           34321                           CAF      R3D1
003357: 40,3574           02544                           TC       5BLANK     -1
003358: 40,3575           30132                           CA       BUF        +2                         #  RESTORE DSPCOUNT TO STATE IT HAD
003359: 40,3576           54776                           TS       DSPCOUNT                              #       BEFORE BLANKSUB.
003360: 40,3577           52131                           DXCH     BUF                                   #  CALL L+2 DIRECTLY.
003361: 40,3600           05177                           TC       SUPDXCHZ   +1                         #  DTCB WITH SUPERBIT SWITCHING
003362:
003363: 40,3601           70123        TESTBIT            MASK     NVTEMP                                #  NVTEMP CONTAINS BLANKING CODE.
003364: 40,3602           10000                           CCS      A
003365: 40,3603           00002                           TC       Q                                     #  IF CURRENT BIT = 1, RETURN TO L+1.
003366: 40,3604           50002                           INDEX    Q                                     #  IF CURRENT BIT = 0, RETURN TO L+3.
003367: 40,3605           00002                           TC       2
003368:
003369: 40,3606                        ENDBSUB1           EQUALS
003370:
003371:
003372:                                                                                                  #  DSPMM DOES NOT DISPLAY MODREG DIRECTLY. IT PUTS IN EXEC REQUEST WITH
003373:                                                                                                  #  PRIO 30000 FOR DSPMMJB AND RETURNS TO CALLER.
003374:
003375:                                                                                                  #  IF MODREG CONTAINS -0, DSPMMJB BLANKS THE MODE LIGHTS.
003376:
003377:                                                                                                  #  DSPMM MUST BE IN BANK 27 OR LOWER, SO IT CAN BE CALLED VIA BANKCALL.
003378:
003379: 07,2661                                           BANK     7
003380: 04,2000                                           SETLOC   PINBALL4
003381: 04,2000                                           BANK
003382:
003383: 04,2630                                           COUNT*   $$/PIN
003384: 04,2630           56002        DSPMM              XCH      Q
003385: 04,2631           54154                           TS       MPAC
003386: 04,2632           00004                           INHINT
003387: 04,2633           34355                           CAF      CHRPRIO
003388: 04,2634           05072                           TC       NOVAC
003389: 04,2635     0776                                  EBANK=   DSPCOUNT
003390: 04,2635           03606 60101                     2CADR    DSPMMJB
003391:
003392: 04,2637           00003                           RELINT
003393: 04,2640           00154        ENDSPMM            TC       MPAC
003394:
003395:                                                                                                  #  DSPMM  PLACE MAJOR MODE CODE INTO MODREG
003396:


003398: 40,3606                                           SETLOC   ENDBSUB1
003399:
003400: 40,3606                                           COUNT*   $$/PIN
003401: 40,3606           34362        DSPMMJB            CAF      MD1                                   #  GETS HERE THRU DSPMM
003402: 40,3607           56776                           XCH      DSPCOUNT
003403: 40,3610           54140                           TS       DSPMMTEM                              #  SAVE DSPCOUNT
003404: 40,3611           11010                           CCS      MODREG
003405: 40,3612           64753                           AD       ONE
003406: 40,3613           03351                           TC       DSPDECVN                              #  IF MODREG IS + OR +0, DISPLAY MODREG
003407: 40,3614           03616                           TC       +2                                    #  IF MODREG IS -NZ, DO NOTHING
003408: 40,3615           02610                           TC       2BLANK                                #  IF MODREG IS -0, BLANK MM
003409: 40,3616           56140                           XCH      DSPMMTEM                              #  RESTORE DSPCOUNT
003410: 40,3617           54776                           TS       DSPCOUNT
003411: 40,3620           05155                           TC       ENDOFJOB
003412:
003413:
003414:                                                                                                  #  RECALTST IS ENTERED DIRECTLY AFTER DATA IS LOADED (OR RESEQUENCE VERB IS
003415:                                                                                                  #  EXECUTED), TERMINATE VERB IS EXECUTED, OR PROCEED WITHOUT DATA VERB IS
003416:                                                                                                  #  EXECUTED. IT WAKES UP JOB THAT DID TC ENDIDLE.
003417:
003418:                                                                                                  #  IF CADRSTOR NOT= +0, IT PUTS +0 INTO DSPLOCK, AND TURNS OFF KEY RLSE
003419:                                                                                                  #  LIGHT IF DSPLIST IS EMPTY (LEAVES KEY RLSE LIGHT ALONE IF NOT EMPTY).
003420:
003421: 40,3621           11041        RECALTST           CCS      CADRSTOR
003422: 40,3622           03624                           TC       RECAL1
003423: 40,3623           05155                           TC       ENDOFJOB                              #  NORMAL EXIT IF KEYBOARD INITIATED
003424: 40,3624           34755        RECAL1             CAF      ZERO
003425: 40,3625           57041                           XCH      CADRSTOR
003426: 40,3626           00004                           INHINT
003427: 40,3627           05137                           TC       JOBWAKE
003428: 40,3630           11013                           CCS      LOADSTAT
003429: 40,3631           03653                           TC       DOPROC                                #  + PROCEED WITHOUT DATA
003430: 40,3632           05155                           TC       ENDOFJOB                              #  PATHALOGICAL CASE EXIT
003431: 40,3633           03651                           TC       DOTERM                                #  -   TERMINATE
003432: 40,3634           34752                           CAF      TWO                                   #  -0 DATA IN OR RESEQUENCE
003433: 40,3635           50064        RECAL2             INDEX    LOCCTR
003434: 40,3636           60164                           AD       LOC                                   #  LOC IS + FOR BASIC JOBS
003435: 40,3637           50064                           INDEX    LOCCTR
003436: 40,3640           54164                           TS       LOC
003437: 40,3641           31001                           CA       NOUNREG                               #  SAVE VERB IN MPAC, NOUN IN MPAC+1 AT
003438: 40,3642           54001                           TS       L                                     #  TIME OF RESPONSE TO ENDIDLE FOR
003439: 40,3643           31000                           CA       VERBREG                               #  POSSIBLE LATER TESTING BY JOB THAT HAS
003440: 40,3644           50064                           INDEX    LOCCTR                                #  BEEN WAKED UP.
003441: 40,3645           52155                           DXCH     MPAC
003442: 40,3646           00003                           RELINT
003443: 40,3647           04457        RECAL3             TC       RELDSP
003444: 40,3650           05155                           TC       ENDOFJOB
003445:
003446: 40,3651           34755        DOTERM             CAF      ZERO
003447: 40,3652           03635                           TC       RECAL2
003448:


003450: 40,3653           34753        DOPROC             CAF      ONE
003451: 40,3654           03635                           TC       RECAL2
003452:


003454:                                                                                                  #  MISCELLANEOUS SERVICE ROUTINES IN FIXED/FIXED
003455:
003456:    4303                                           SETLOC   ENDBLFF
003457:
003458:    4303                                           COUNT*   $$/PIN
003459:                                                                                                  #  SETNCADR       E CADR ARRIVES IN A. IT IS STORED IN NOUNCADR. EBANK BITS
003460:                                                                                                  #                 ARE SET. E ADRES IS DERIVED AND PUT INTO NOUNADD.
003461:
003462:    4303           55016        SETNCADR           TS       NOUNCADR                              #  STORE ECADR
003463:    4304           54003                           TS       EBANK                                 #  SET EBANK BITS
003464:    4305           74357                           MASK     LOW8
003465:    4306           65007                           AD       OCT1400
003466:    4307           54145                           TS       NOUNADD                               #  PUT E ADRES INTO NOUNADD
003467:    4310           00002                           TC       Q
003468:
003469:
003470:                                                                                                  #  SETNADD        GETS E CADR FROM NOUNCADR, SETS EBANK BITS, DERIVES
003471:                                                                                                  #                 E ADRES AND PUTS IT INTO NOUNADD.
003472:
003473:    4311           31016        SETNADD            CA       NOUNCADR
003474:    4312           14304                           TCF      SETNCADR   +1
003475:
003476:                                                                                                  #  SETEBANK       E CADR ARRIVES IN A. EBANK BITS ARE SET. E ADRES IS
003477:                                                                                                  #                 DERIVED AND LEFT IN A.
003478:
003479:    4313           54003        SETEBANK           TS       EBANK                                 #  SET EBANK BITS
003480:    4314           74357                           MASK     LOW8
003481:    4315           65007                           AD       OCT1400                               #  E ADRES LEFT IN A
003482:    4316           00002                           TC       Q
003483:
003484:
003485:    4317           00016        R1D1               OCT      16                                    #  THESE 3 CONSTANTS FORM A PACKED TABLE.
003486:    4320           00011        R2D1               OCT      11                                    #  DONT SEPARATE.
003487:    4321           00004        R3D1               OCT      4
003488:
003489:    4322           54020        RIGHT5             TS       CYR
003490:    4323           40020                           CS       CYR
003491:    4324           40020                           CS       CYR
003492:    4325           40020                           CS       CYR
003493:    4326           40020                           CS       CYR
003494:    4327           56020                           XCH      CYR
003495:    4330           00002                           TC       Q
003496:
003497:    4331           54022        LEFT5              TS       CYL
003498:    4332           40022                           CS       CYL
003499:    4333           40022                           CS       CYL
003500:    4334           40022                           CS       CYL
003501:    4335           40022                           CS       CYL


003503:    4336           56022                           XCH      CYL
003504:    4337           00002                           TC       Q
003505:
003506:    4340           60000        SLEFT5             DOUBLE
003507:    4341           60000                           DOUBLE
003508:    4342           60000                           DOUBLE
003509:    4343           60000                           DOUBLE
003510:    4344           60000                           DOUBLE
003511:    4345           00002                           TC       Q
003512:
003513:
003514:    4346           00037        LOW5               OCT      37                                    #  THESE 3 CONSTANTS FORM A PACKED TABLE.
003515:    4347           01740        MID5               OCT      1740                                  #  DONT SEPARATE.
003516:    4350           76000        HI5                OCT      76000                                 #  MUST STAY HERE
003517:
003518:    4351           05072        TCNOVAC            TC       NOVAC
003519:    4352           05214        TCWAIT             TC       WAITLIST
003520:    4353           05272        TCTSKOVR           TC       TASKOVER
003521:    4354           05105        TCFINDVC           TC       FINDVAC
003522:
003523:
003524:    4355           30000        CHRPRIO            OCT      30000                                 #  EXEC PRIORITY OF CHARIN
003525:
003526:
003527:    4356           03777        LOW11              OCT      3777
003528:    4357     4356               B12-1              EQUALS   LOW11
003529:    4357           00377        LOW8               OCT      377
003530:
003531:
003532:    4360           00023        VD1                OCT      23                                    #  THESE 3 CONSTANTS FORM A PACKED TABLE.
003533:    4361           00021        ND1                OCT      21                                    #  DONT SEPARATE.
003534:    4362           00025        MD1                OCT      25
003535:
003536:    4363           00012        BINCON             DEC      10         B-14
003537:
003538:    4364           34745        FALTON             CA       BIT7                                  #  TURN ON OPERATOR ERROR LIGHT
003539:    4365           00006                           EXTEND
003540:    4366           05011                           WOR      DSALMOUT                              #  BIT 7 OF CHANNEL 11
003541:    4367           00002                           TC       Q
003542:
003543:    4370           44745        FALTOF             CS       BIT7                                  #  TURN OFF OPERATOR ERROR LIGHT
003544:    4371           00006                           EXTEND
003545:    4372           03011                           WAND     DSALMOUT                              #  BIT 7 OF CHANNEL 11
003546:    4373           00002                           TC       Q
003547:
003548:    4374           34747        RELDSPON           CAF      BIT5                                  #  TURN ON KEY RELEASE LIGHT
003549:    4375           00006                           EXTEND
003550:    4376           05011                           WOR      DSALMOUT                              #  BIT 5 OF CHANNEL 11
003551:    4377           00002                           TC       Q
003552:


003554:    4400           00006        LODSAMPT           EXTEND
003555:    4401           30025                           DCA      TIME2
003556:    4402           52014                           DXCH     SAMPTIME
003557:    4403           00002                           TC       Q
003558:
003559:
003560:    4404           00006        TPSL1              EXTEND                                         #  SHIFTS MPAC, +1, +2 LEFT 1
003561:    4405           30156                           DCA      MPAC       +1                         #  LEAVES OVFIND SET TO +/- 1 FOR OF/UF
003562:    4406           20156                           DAS      MPAC       +1
003563:    4407           60154                           AD       MPAC
003564:    4410           26154                           ADS      MPAC
003565:    4411           54007                           TS       7                                     #  TS A DOES NOT CHANGE A ON OF/UF.
003566:    4412           00002                           TC       Q                                     #  NO NET OF/UF
003567:    4413           54162                           TS       MPAC+6                                #  MPAC +6 SET TO +/-1 FOR OF/UF
003568:    4414           00002                           TC       Q
003569:
003570:
003571:                                                                                                  #  IF MPAC, +1 ARE EACH +NZ OR +0 AND C(A)=-0, SHORTMP WRONGLY GIVES +0.
003572:                                                                                                  #  IF MPAC, +1 ARE EACH -NZ OR -0 AND C(A)=+0, SHORTMP WRONGLY GIVES +0.
003573:                                                                                                  #  PRSHRTMP FIXES FIRST CASE ONLY, BY MERELY TESTING C(A) AND IF IT = -0,
003574:                                                                                                  #  SETTING RESULT TO -0.
003575:                                                                                                  #   (DO NOT USE PRSHRTMP UNLESS MPAC, +1 ARE EACH +NZ OR +0, AS THEY ARE
003576:                                                                                                  #   WHEN THEY CONTAIN TH E SF CONSTANTS.)
003577:
003578:    4415           54135        PRSHRTMP           TS       MPTEMP
003579:    4416           10000                           CCS      A
003580:    4417           30135                           CA       MPTEMP                                #  C(A) +, DO REGULAR SHORTMP
003581:    4420           17313                           TCF      SHORTMP    +1                         #  C(A) +0, DO REGULAR SHORTMP
003582:    4421           14417                           TCF      -2                                    #  C(A) -, DO REGULAR SHORTMP
003583:    4422           44755                           CS       ZERO                                  #  C(A) -0, FORCE RESULT TO -0 AND RETURN.
003584:    4423           54154                           TS       MPAC
003585:    4424           54155                           TS       MPAC       +1
003586:    4425           54156                           TS       MPAC       +2
003587:    4426           00002                           TC       Q
003588:
003589:
003590:    4427           34746        FLASHON            CAF      BIT6                                  #  TURN ON V/N FLASH
003591:    4430           00006                           EXTEND                                         #  BIT 6 OF CHANNEL 11
003592:    4431           05011                           WOR      DSALMOUT
003593:    4432           00002                           TC       Q
003594:
003595:
003596:    4433           44746        FLASHOFF           CS       BIT6                                  #  TURN OFF V/N FLASH
003597:    4434           00006                           EXTEND
003598:    4435           03011                           WAND     DSALMOUT                              #  BIT 6 OF CHANNEL 11
003599:    4436           00002                           TC       Q
003600:


003602:                                                                                                  #  INTERNAL USE OF KEYBOARD AND DISPLAY PROGRAM
003603:
003604:                                                                                                  #  USER MUST SCHEDULE CALLS TO NVSUB SO THAT THERE IS NO CONFLICT OF USE OR
003605:                                                                                                  #  CONFUSION TO OPERATOR. THE OLD GRABLOCK (INTERNAL/INTERNAL INTERLOCK)
003606:                                                                                                  #  HAS BEEN REMOVED AND THE INTERNAL USER NO LONGER HAS THE PROTECTION THIS
003607:                                                                                                  #  OFFERED.
003608:
003609:                                                                                                  #  THERE ARE TWO WAYS A JOB CAN BE PUT TO SLEEP BY THE KEYBOARD + DISPLAY
003610:                                                                                                  #  PROGRAM.    1) BY ENDIDLE
003611:                                                                                                  #              2) BY NVSUBUSY
003612:                                                                                                  #  THE BASIC CONVENTION IS THAT ONLY ONE JOB WILL BE PERMITTED ASLEEP VIA
003613:                                                                                                  #  THE KEYBOARD + DISPLAY PROGRAM AT A TIME. IF A JOB ATTEMPTS TO GO TO
003614:                                                                                                  #  SLEEP BY MEANS OF (1) OR (2) AND THERE IS ALREADY A JOB ASLEEP THAT WAS
003615:                                                                                                  #  PUT TO SLEEP BY (1) OR (2), THEN AN ABORT IS CAUSED.
003616:
003617:
003618:                                                                                                  #  THE CALLING SEQUENCE FOR NVSUB IS
003619:                                                                                                  #           CAF    V/N
003620:                                                                                                  #  L        TC     NVSUB
003621:                                                                                                  #  L+1      RETURN HERE IF OPERATOR HAS INTERVENED
003622:                                                                                                  #  L+2      RETURN HERE AFTER EXECUTION
003623:
003624:
003625:                                                                                                  #        A ROUTINE CALLED  NVSUBUSY IS PROVIDED (USE IS OPTIONAL)  TO PUT
003626:                                                                                                  #  YOUR JOB TO SLEEP UNTIL THE OPERATOR RELEASES THE KEYBOARD + DISPLAY
003627:                                                                                                  #  SYSTEM. NVSUBUSY ALSO TURNS ON THE KEY RELEASE LIGHT.
003628:                                                                                                  #  NVSUBUSY CANNOT BE CALLED FROM ERASABLE OR F/F MEMORY,
003629:                                                                                                  #  SINCE JOBSLEEP AND JOBWAKE CAN HANDLE ONLY FIXED BANKS.
003630:
003631:
003632:                                                                                                  #         THE CALLING SEQUENCE IS
003633:                                                                                                  #           CAF    WAKEFCADR
003634:                                                                                                  #           TC     NVSUBUSY
003635:
003636:
003637:                                                                                                  #  .
003638:
003639:
003640:                                                                                                  #  NVSUBUSY IS INTENDED FOR USE WHEN AN INTERNAL PROGRAM FINDS THE OPERATOR
003641:                                                                                                  #  IS USING THE KEYBOARD + DISPLAY PROGRAM (BY HIS OWN INITIATION). IT IS
003642:                                                                                                  #  NOT INTENDED FOR USE WHEN ONE INTERNAL PROGRAM FINDS ANOTHER INTERNAL
003643:                                                                                                  #  PROGRAM USING THE KEYBOARD + DISPLAY PROGRAM.
003644:
003645:
003646:                                                                                                  #  NVSUBUSY ABORTS (WITH CODE 01206) IF A SECOND JOB ATTEMPTS TO GO TO
003647:                                                                                                  #  SLEEP IN PINBALL. IN PARTICULAR, IF AN ATTEMPT IS MADE TO GO TO NVSUBUSY
003648:                                                                                                  #  WHEN
003649:                                                                                                  #  1) DSPLIST NOT= +0. THIS IS THE CASE WHERE THE CAPACITY OF THE DSPLIST
003650:                                                                                                  #     IS EXCEEDED.
003651:                                                                                                  #  2) CADRSTOR NOT= +0. THIS INDICATES THAT A JOB IS ALREADY USING


003653:                                                                                                  #  ENDIDLE. (+-NZ INDICATE A JOB IS ALREADY ASLEEP DUE TO ENDIDLE.)
003654:
003655:    4437           44444        PRENVBSY           CS       2K+3                                  #  SPECIAL ENTRANCE FOR ROUTINES IN FIXED
003656:    4440           60002                           AD       Q                                     #  BANKS ONLY DESIRING THE FCADR OF(LOC
003657:    4441           60004                           AD       FBANK                                 #  FROM WHICH THE TC PRENVBSY WAS DONE) -2
003658:    4442           04635        NVSUBUSY           TC       POSTJUMP                              #  TO BE ENTERED.
003659:    4443           10641                           CADR     NVSUBSY1
003660:    4444           02003        2K+3               OCT      2003
003661:
003662:                                                                                                  #  NVSUBSY1 MUST BE IN BANK 27 OR LOWER, SO IT WILL PUT CALLER TO SLEEP
003663:                                                                                                  #  WITH HIS PROPER SUPERBITS.
003664:
003665: 04,2641                                           SETLOC   ENDSPMM    +1
003666: 04,2641                                           COUNT*   $$/PIN
003667: 04,2641           54001        NVSUBSY1           TS       L
003668: 04,2642           04220                           TC       ISCADR+0                              #  ABORT IF CADRSTOR NOT= +0.
003669: 04,2643           04224                           TC       ISLIST+0                              #  ABORT IF DSPLIST NOT= +0.
003670: 04,2644           04374                           TC       RELDSPON
003671: 04,2645           30001                           CA       L
003672: 04,2646           55042                           TS       DSPLIST
003673: 04,2647           05133        ENDNVBSY           TC       JOBSLEEP
003674:
003675:
003676:                                                                                                  #  NVSBWAIT IS A SPECIAL ENTRANCE FOR ROUTINES IN FIXED BANKS ONLY. IF
003677:                                                                                                  #  SYSTEM IS NOT BUSY, IT EXECUTES V/N AND RETURNS TO L+1 (L= LOC FROM
003678:                                                                                                  #  WHICH THE TC NVSBWAIT WAS DONE). IF SYSTEM IS BUSY, IT PUTS CALLING JOB
003679:                                                                                                  #  TO SLEEP WITH L-1 GOING INTO LIST FOR EVENTUAL WAKING UP WHEN SYSTEM
003680:                                                                                                  #  IS NOT BUSY.
003681:
003682:    4445                                           SETLOC   NVSUBUSY   +3
003683:    4445                                           COUNT*   $$/PIN
003684:    4445           22007        NVSBWAIT           LXCH     7                                     #  ZERO NVMONOPT OPTIONS
003685:    4446           54123                           TS       NVTEMP
003686:    4447           34736                           CAF      BIT14
003687:    4450           71020                           MASK     MONSAVE1                              #  EXTERNAL MONITOR BIT
003688:    4451           61011                           AD       DSPLOCK
003689:    4452           10000                           CCS      A
003690:    4453           14455                           TCF      NVSBWT1                               #  BUSY
003691:    4454           14164                           TCF      NVSBCOM                               #  FREE. NVSUB WILL SAVE L+1 FOR RETURN
003692:                                                                                                  #  AFTER EXECUTION.
003693:    4455           24002        NVSBWT1            INCR     Q                                     #  L+2. PRENVBSY WILL PUT L-1 INTO LIST AND
003694:    4456           14437                           TCF      PRENVBSY                              #  GO TO SLEEP.
003695:
003696:
003697:                                                                                                  #  RELDSP IS USED BY VBPROC, VBTERM, VBRQEXEC, VBRQWAIT, VBRELDSP, EXTENDED
003698:                                                                                                  #  VERB DISPATCHER, VBRESEQ, RECALTST.
003699:                                                                                                  #  RELDSP1 IS USED BY MONITOR SET UP, VBRELDSP.
003700:    4457           56002        RELDSP             XCH      Q                                     #  SET DSPLOCK TO +0, TURN RELDSP LIGHT
003701:    4460           54144                           TS       RELRET                                #  OFF,  SEARCH DSPLIST
003702:    4461           44736                           CS       BIT14


003704:    4462           00004                           INHINT
003705:    4463           71020                           MASK     MONSAVE1
003706:    4464           55020                           TS       MONSAVE1                              #  TURN OFF EXTERNAL MONITOR BIT
003707:    4465           11042                           CCS      DSPLIST
003708:    4466           04470                           TC       +2
003709:    4467           04473                           TC       RELDSP2                               #  LIST EMPTY
003710:    4470           34755                           CAF      ZERO
003711:    4471           57042                           XCH      DSPLIST
003712:    4472           05137                           TC       JOBWAKE
003713:    4473           00003        RELDSP2            RELINT
003714:    4474           44747                           CS       BIT5                                  #  TURN OFF KEY RELEASE LIGHT
003715:    4475           00006                           EXTEND                                         #  (BIT 5 OF CHANNEL 11)
003716:    4476           03011                           WAND     DSALMOUT
003717:    4477           34755                           CAF      ZERO
003718:    4500           55011                           TS       DSPLOCK
003719:    4501           00144                           TC       RELRET
003720:    4502           56002        RELDSP1            XCH      Q                                     #  SET DSPLOCK TO +0. NO DSPLIST SEARCH.
003721:    4503           54144                           TS       RELRET                                #  TURN KEY RLSE LIGHT OFF IF DSPLIST IS
003722:                                                                                                  #  EMPTY. LEAVE KEY RLSE LIGHT ALONE IF
003723:                                                                                                  #  DSPLIST IS NOT EMPTY.
003724:    4504           11042                           CCS      DSPLIST
003725:    4505           04507                           TC       +2                                    #  +  NOT EMPTY. LEAVE KEY RLSE LIGHT ALONE
003726:    4506           04473                           TC       RELDSP2                               #  +0 EMPTY. TURN OFF KEY RLSE LIGHT
003727:    4507           34755                           CAF      ZERO                                  #  -  NOT EMPTY. LEAVE KEY RLSE LIGHT ALONE
003728:    4510           55011                           TS       DSPLOCK
003729:    4511           00144                           TC       RELRET
003730:
003731:
003732:    4512                        ENDPINBF           EQUALS
003733:


003735:                                                                                                  #  PINTEST IS NEEDED FOR AUTO CHECK OF PINBALL.
003736:
003737:    4512  43,2002               PINTEST            EQUALS   LST2FAN
003738:


003740:                                                                                                  #  VBTSTLTS TURNS ON ALL DISPLAY PANEL LIGHTS. AFTER 5 SEC, IT TURNS
003741:                                                                                                  #  OFF THE CAUTION AND STATUS LIGHTS.
003742:
003743: 41,3633                                           SETLOC   ENDNVSB1   +1
003744:
003745: 41,3633                                           COUNT*   $$/PIN
003746: 41,3633           00004        VBTSTLTS           INHINT
003747: 41,3634           04616                           TC       BANKCALL                              #  OPP ERR IF NOT IN POO
003748: 41,3635           66121                           CADR     CHKPOOH
003749: 41,3636           44753                           CS       BIT1                                  #  SET BIT 1 OF IMODES33 SO IMUMON WONT
003750: 41,3637           71300                           MASK     IMODES33                              #  TURN OUT ANY LAMPS.
003751: 41,3640           64753                           AD       BIT1
003752: 41,3641           55300                           TS       IMODES33
003753:
003754: 41,3642           33701                           CAF      TSTCON1                               #  TURN ON UPLINK ACTIVITY, TEMP, KEY RLSE,
003755: 41,3643           00006                           EXTEND                                         #  V/N FLASH, OPERATOR ERROR.
003756: 41,3644           05011                           WOR      DSALMOUT
003757: 41,3645           33702                           CAF      TSTCON2                               #  TURN ON NO ATT, GIMBAL LOCK, TRACKER,
003758: 41,3646           55035                           TS       DSPTAB     +11D                       #  PROG ALM.
003759: 41,3647           06022                           TC       C13STALL
003760: 41,3650           34742                           CAF      BIT10                                 #  TURN ON TEST ALARM OUTBIT
003761: 41,3651           00006                           EXTEND
003762: 41,3652           05013                           WOR      CHAN13
003763: 41,3653           34363                           CAF      TEN
003764: 41,3654           54117        TSTLTS1            TS       ERCNT
003765: 41,3655           43677                           CS       FULLDSP
003766: 41,3656           50117                           INDEX    ERCNT
003767: 41,3657           55022                           TS       DSPTAB
003768: 41,3660           10117                           CCS      ERCNT
003769: 41,3661           03654                           TC       TSTLTS1
003770: 41,3662           43700                           CS       FULLDSP1
003771: 41,3663           55023                           TS       DSPTAB     +1                         #  TURN ON 3 PLUS SIGNS
003772: 41,3664           55026                           TS       DSPTAB     +4
003773: 41,3665           55030                           TS       DSPTAB     +6
003774: 41,3666           34760                           CAF      ELEVEN
003775: 41,3667           55015                           TS       NOUT
003776: 41,3670           00003                           RELINT
003777: 41,3671           33704                           CAF      SHOLTS
003778: 41,3672           00004                           INHINT
003779: 41,3673           05214                           TC       WAITLIST
003780: 41,3674     1022                                  EBANK=   DSPTAB
003781: 41,3674           03705 62102                     2CADR    TSTLTS2
003782:
003783: 41,3676           05155                           TC       ENDOFJOB                              #  DSPLOCK IS LEFT BUSY (FROM KEYBOARD
003784:                                                                                                  #  ACTION) UNTIL TSTLTS3 TO INSURE THAT
003785:                                                                                                  #  LIGHTS TEST WILL BE SEEN.
003786:
003787:
003788: 41,3677           05675        FULLDSP            OCT      05675                                 #  DISPLAY ALL 8:S
003789: 41,3700           07675        FULLDSP1           OCT      07675                                 #  DISPLAY ALL 8:S AND +
003790:


003792: 41,3701           00175        TSTCON1            OCT      00175
003793:                                                                                                  #  UPLINK ACTIVITY, TEMP, KEY RLSE,
003794:                                                                                                  #  V/N FLASH, OPERATOR ERROR.
003795: 41,3702           40674        TSTCON2            OCT      40674                                 #  DSPTAB+11D BITS 3,4,5,6,8,9. LR LITES,
003796:                                                                                                  #  NO ATT, GIMBAL LOCK, TRACKER, PROG ALM.
003797: 41,3703           00115        TSTCON3            OCT      0115                                  #  CHAN 11  BITS 1, 3, 4, 7.
003798:                                                                                                  #  UPLINK ACTIVITY, TEMP, OPERATOR ERROR.
003799: 41,3704           00764        SHOLTS             OCT      764                                   #  5 SEC
003800:
003801:
003802: 41,3705           34355        TSTLTS2            CAF      CHRPRIO                               #  CALLED BY WAITLIST
003803: 41,3706           05072                           TC       NOVAC
003804: 41,3707     1022                                  EBANK=   DSPTAB
003805: 41,3707           03712 62102                     2CADR    TSTLTS3
003806:
003807: 41,3711           05272                           TC       TASKOVER
003808:
003809:
003810: 41,3712           43703        TSTLTS3            CS       TSTCON3                               #  CALLED BY EXECUTIVE
003811: 41,3713           00004                           INHINT
003812: 41,3714           00006                           EXTEND                                         #  TURN OFF  UPLINK ACTIVITY, TEMP,
003813: 41,3715           03011                           WAND     DSALMOUT                              #  OPERATOR ERROR.
003814: 41,3716           06022                           TC       C13STALL
003815: 41,3717           44742                           CS       BIT10                                 #  TURN OFF TEST ALARM OUTBIT
003816: 41,3720           00006                           EXTEND
003817: 41,3721           03013                           WAND     CHAN13
003818: 41,3722           34750                           CAF      BIT4                                  #  MAKE NO ATT FOLLOW BIT 4 OF CHANNEL 12
003819: 41,3723           00006                           EXTEND                                         #    (NO ATT LIGHT ON IF IN COARSE ALIGN)
003820: 41,3724           02012                           RAND     CHAN12
003821: 41,3725           64735                           AD       BIT15                                 #  TURN OFF AUTO, HOLD, FREE, SPARE,
003822: 41,3726           55035                           TS       DSPTAB     +11D                       #  GIMBAL LOCK, SPARE, TRACKER, PROG ALM
003823: 41,3727           43752                           CS       13-11,1                               #  SET BITS TO INDICATE ALL LAMPS OUT. TEST
003824: 41,3730           71300                           MASK     IMODES33                              #  LIGHTS COMPLETE.
003825: 41,3731           65026                           AD       PRIO16
003826: 41,3732           55300                           TS       IMODES33
003827:
003828: 41,3733           43754                           CS       OCT55000
003829: 41,3734           71277                           MASK     IMODES30
003830: 41,3735           65025                           AD       PRIO15                                #  15000.
003831: 41,3736           55277                           TS       IMODES30
003832:
003833: 41,3737           43753                           CS       RFAILS2
003834: 41,3740           70110                           MASK     RADMODES
003835: 41,3741           64745                           AD       RCDUFBIT
003836: 41,3742           54110                           TS       RADMODES
003837:
003838: 41,3743           00003                           RELINT
003839:
003840: 41,3744           04616                           TC       BANKCALL                              #  REDISPLAY C(MODREG)
003841: 41,3745           10630                           CADR     DSPMM


003843: 41,3746           04204                           TC       KILMONON                              #  TURN ON KILL MONITOR BIT.
003844: 41,3747           04433                           TC       FLASHOFF                              #  TURN OFF V/N FLASH.
003845: 41,3750           04635                           TC       POSTJUMP                              #  DOES RELDSP AND GOES TO PINBRNCH IF
003846: 41,3751           61543                           CADR     TSTLTS4                               #   ENDIDLE IS AWAITING OPERATOR RESPONSE.
003847: 41,3752           16001        13-11,1            OCT      16001
003848: 41,3753           00330        RFAILS2            OCT      330                                   #  RADAR CDU AND DATA FAIL FLAGS.
003849: 41,3754           55000        OCT55000           OCT      55000
003850: 41,3755                        ENDPINS2           EQUALS
003851:


003853:                                                                                                  #  ERROR LIGHT RESET (RSET) TURNS OFF,
003854:                                                                                                  #  UPLINK ACTIVITY, AUTO, HOLD, FREE, OPERATOR ERROR,
003855:                                                                                                  #  PROG ALM, TRACKER FAIL.
003856:                                                                                                  #  LEAVES GIMBAL LOCK AND NO ATT ALONE.
003857:                                                                                                  #  IT ALSO ZEROES THE :TEST ALARM: OUT BIT, WHICH TURNS OFF STBY,RESTART.
003858:                                                                                                  #  IT ALSO SETS :CAUTION RESET: TO 1.
003859:                                                                                                  #  IT ALSO FORCES BIT 12 OF ALL DSPTAB ENTRIES TO 1.
003860:
003861: 40,3655                                           SETLOC   DOPROC     +2
003862: 40,3655                                           COUNT*   $$/PIN
003863: 40,3655           56115        ERROR              XCH      21/22REG                              #  RESTORE ORIGINAL C(DSPLOCK). THUS ERROR
003864: 40,3656           55011                           TS       DSPLOCK                               #  LIGHT RESET LEAVES DSPLOCK UNCHANGED.
003865: 40,3657           00004                           INHINT
003866: 40,3660           34742                           CAF      BIT10                                 #  TURN ON :CAUTION RESET: OUTBIT
003867: 40,3661           00006                           EXTEND
003868: 40,3662           05011                           WOR      DSALMOUT                              #  BIT10 CHAN 11
003869: 40,3663           33744                           CAF      GL+NOATT                              #  LEAVE GIMBAL LOCK, NO ATT INTACT,
003870: 40,3664           71035                           MASK     DSPTAB     +11D                       #  TURNING OFF AUTO, HOLD, FREE,
003871: 40,3665           64735                           AD       BIT15                                 #  PROG ALARM, AND TRACKER.
003872: 40,3666           55035                           TS       DSPTAB     +11D
003873: 40,3667           45026                           CS       PRIO16                                #  RESET FAIL BITS WHICH GENERATE PROG
003874: 40,3670           71300                           MASK     IMODES33                              #  ALARM SO THAT IF THE FAILURE STILL
003875: 40,3671           65026                           AD       PRIO16                                #  EXISTS, THE ALARM WILL COME BACK.
003876: 40,3672           55300                           TS       IMODES33
003877: 40,3673           44742                           CS       BIT10
003878: 40,3674           71277                           MASK     IMODES30
003879: 40,3675           64742                           AD       BIT10
003880: 40,3676           55277                           TS       IMODES30
003881:
003882: 40,3677           43743                           CS       RFAILS
003883: 40,3700           70110                           MASK     RADMODES
003884: 40,3701           64745                           AD       RCDUFBIT
003885: 40,3702           54110                           TS       RADMODES
003886:
003887: 40,3703           06022                           TC       C13STALL
003888: 40,3704           44742                           CS       BIT10                                 #  TURN OFF :TEST ALARM: OUTBIT.
003889: 40,3705           00006                           EXTEND
003890: 40,3706           03013                           WAND     CHAN13
003891: 40,3707           43742                           CS       ERCON                                 #  TURN OFF UPLINK ACTIVITY,
003892: 40,3710           00006                           EXTEND                                         #  OPERATOR ERROR.
003893: 40,3711           03011                           WAND     DSALMOUT
003894: 40,3712           34363        TSTAB              CAF      BINCON                                #  (DEC 10)
003895: 40,3713           54117                           TS       ERCNT                                 #  ERCNT = COUNT
003896: 40,3714           00004                           INHINT
003897: 40,3715           50117                           INDEX    ERCNT
003898: 40,3716           11022                           CCS      DSPTAB
003899: 40,3717           64753                           AD       ONE
003900: 40,3720           03725                           TC       ERPLUS
003901: 40,3721           64753                           AD       ONE
003902: 40,3722           40000        ERMINUS            CS       A


003904: 40,3723           73745                           MASK     NOTBIT12
003905: 40,3724           03730                           TC       ERCOM
003906: 40,3725           40000        ERPLUS             CS       A
003907: 40,3726           73745                           MASK     NOTBIT12
003908: 40,3727           40000                           CS       A                                     #  MIGHT WANT TO RESET CLPASS, DECBRNCH,
003909: 40,3730           50117        ERCOM              INDEX    ERCNT                                 #  ETC.
003910: 40,3731           55022                           TS       DSPTAB
003911: 40,3732           00003                           RELINT
003912: 40,3733           10117                           CCS      ERCNT
003913: 40,3734           03713                           TC       TSTAB      +1
003914: 40,3735           34755                           CAF      ZERO
003915: 40,3736           54375                           TS       FAILREG
003916: 40,3737           54376                           TS       FAILREG    +1
003917: 40,3740           55357                           TS       SFAIL
003918: 40,3741           05155                           TC       ENDOFJOB
003919:
003920: 40,3742           00104        ERCON              OCT      104                                   #  CHAN 11 BITS 3,7.
003921:                                                                                                  #  UPLINK ACTIVITY, AND OPERATOR ERROR.
003922: 40,3743           00330        RFAILS             OCT      330                                   #  RADAR CDU AND DATA FAIL FLAGS.
003923: 40,3744           00050        GL+NOATT           OCT      00050                                 #  NO ATT AND GIMBAL LOCK LAMPS
003924: 40,3745           73777        NOTBIT12           OCT      73777
003925:
003926:
003927: 40,3746                        ENDPINS1           EQUALS
003928:
003929:
003930: 40,3746  30,2000                                  SBANK=   LOWSUPER

End of include-file PINBALL_GAME__BUTTONS_AND_LIGHTS.agc.  Parent file is MAIN.agc


