
Source Code


000002:                                                                                                  ## Copyright:   Public domain.
000003:                                                                                                  ## Filename:    RADAR_LEADIN_ROUTINES.agc
000004:                                                                                                  ## Purpose:     A section of Luminary revision 178.
000005:                                                                                                  ##              It is part of the reconstructed source code for the final
000006:                                                                                                  ##              release of the flight software for the Lunar Module's
000007:                                                                                                  ##              (LM) Apollo Guidance Computer (AGC) for Apollo 14. The
000008:                                                                                                  ##              code has been recreated from copies of Zerlina 56, Luminary
000009:                                                                                                  ##              210, and Luminary 131, as well as many Luminary memos.
000010:                                                                                                  ##              It has been adapted such that the resulting bugger words
000011:                                                                                                  ##              exactly match those specified for Luminary 178 in NASA
000012:                                                                                                  ##              drawing 2021152N, which gives relatively high confidence
000013:                                                                                                  ##              that the reconstruction is correct.
000014:                                                                                                  ## Reference:   pp. 498-499
000015:                                                                                                  ## Assembler:   yaYUL
000016:                                                                                                  ## Contact:     Ron Burkey <info@sandroid.org>.
000017:                                                                                                  ## Website:     www.ibiblio.org/apollo/index.html
000018:                                                                                                  ## Mod history: 2019-08-14 MAS  Created from Zerlina 56.
000019:                                                                                                  ##              2019-09-05 MAS  Changed an ADRES to a CADR to restore
000020:                                                                                                  ##                              a bug present in Luminary 178.
000021:


000023: 15,2050                                           BANK     15
000024: 15,2000                                           SETLOC   RRLEADIN
000025: 15,2000                                           BANK
000026:
000027: 15,2050  E4,1600                                  EBANK=   RSTACK
000028:
000029:                                                                                                  #  RADAR SAMPLING LOOP.
000030:
000031: 15,2050                                           COUNT*   $$/RLEAD
000032: 15,2050           11777        RADSAMP            CCS      RSAMPDT                               #  TIMES NORMAL ONCE-PER-SECOND SAMPLING.
000033: 15,2051           12053                           TCF      +2
000034: 15,2052           15272                           TCF      TASKOVER                              #  +0 INSERTED MANUALLY TERMINATES TEST.
000035:
000036: 15,2053           05204                           TC       TWIDDLE
000037: 15,2054           32050                           CADR     RADSAMP
000038: 15,2055           37716                           CAF      PRIO25
000039: 15,2056           05072                           TC       NOVAC
000040: 15,2057  E4,1600                                  EBANK=   RSTACK
000041: 15,2057           02003 52064                     2CADR    DORSAMP
000042:
000043: 15,2061           34736                           CAF      BIT14                                 #  FOR CYCLIC SAMPLING, RTSTDEX=
000044: 15,2062           00006                           EXTEND                                         #  RTSTLOC/2 + RTSTBASE
000045: 15,2063           71776                           MP       RTSTLOC
000046: 15,2064           61775                           AD       RTSTBASE                              #  0 FOR RR, 2 FOR LR.
000047: 15,2065           55773                           TS       RTSTDEX
000048: 15,2066           15272                           TCF      TASKOVER
000049:
000050: 25,2003                                           BANK     25
000051: 25,2000                                           SETLOC   DRSAMP
000052: 25,2000                                           BANK
000053:
000054: 25,2003  E4,1600                                  EBANK=   RSTACK
000055:                                                                                                  #  DO THE ACTUAL RADAR SAMPLE.
000056:
000057: 25,2003           02040        DORSAMP            TC       VARADAR                               #  SELECTS VARIABLE RADAR CHANNEL.
000058: 25,2004           04616                           TC       BANKCALL
000059: 25,2005           17720                           CADR     RADSTALL
000060:
000061: 25,2006           25575                           INCR     RFAILCNT                              #  ADVANCE FAIL COUNTER BUT ACCEPT BAD DATA
000062:
000063: 25,2007           00004        DORSAMP2           INHINT
000064: 25,2010           30101                           CA       FLAGWRD5                              #  DON'T UPDATE RSTACK IF IN R77.
000065: 25,2011           74741                           MASK     R77FLBIT
000066: 25,2012           10000                           CCS      A
000067: 25,2013           12030                           TCF      R77IN
000068:
000069: 25,2014           53101                           DXCH     SAMPLSUM
000070: 25,2015           51776                           INDEX    RTSTLOC
000071: 25,2016           53601                           DXCH     RSTACK
000072:


000074: 25,2017           30110                           CA       RADMODES
000075: 25,2020           00006                           EXTEND
000076: 25,2021           06033                           RXOR     CHAN33
000077: 25,2022           74746                           MASK     BIT6
000078: 25,2023           00006                           EXTEND
000079: 25,2024           12030                           BZF      R77IN
000080:
000081: 25,2025           05600                           TC       ALARM
000082: 25,2026           00522                           OCT      522
000083: 25,2027           25575                           INCR     RFAILCNT
000084:
000085: 25,2030           41776        R77IN              CS       RTSTLOC                               #  CYCLE RTSTLOC
000086: 25,2031           61774                           AD       RTSTMAX
000087: 25,2032           00006                           EXTEND
000088: 25,2033           12036                           BZF      +3
000089: 25,2034           31776                           CA       RTSTLOC
000090: 25,2035           64752                           AD       TWO                                   #  STORAGE IS DP
000091: 25,2036           55776                           TS       RTSTLOC
000092: 25,2037           15155                           TCF      ENDOFJOB                              #  CONTINUOUS SAMPLING AND 2N TRIES - GONE.
000093:
000094:                                                                                                  #  VARIABLE RADAR DATA CALLER FOR ONE MEASUREMENT ONLY.
000095:
000096: 25,2040           34753        VARADAR            CAF      ONE                                   #  WILL BE SENT TO RADAR ROUTINE IN A BY
000097: 25,2041           54133                           TS       BUF2                                  #  SWCALL.
000098: 25,2042           51773                           INDEX    RTSTDEX
000099: 25,2043           32045                           CAF      RDRLOCS
000100: 25,2044           14622                           TCF      SWCALL                                #  NOT TOUCHING Q.
000101:
000102: 25,2045           53074        RDRLOCS            CADR     RRRANGE                               #  = 0
000103: 25,2046           53072                           CADR     RRRDOT                                #  = 1
000104: 25,2047           53070                           CADR     LRVELX                                #  = 2
000105: 25,2050           53066                           CADR     LRVELY                                #  = 3
000106: 25,2051           53064                           CADR     LRVELZ                                #  = 4
000107: 25,2052           53062                           CADR     LRALT                                 #  = 5

End of include-file RADAR_LEADIN_ROUTINES.agc.  Parent file is MAIN.agc


