
Source Code


000002:                                                                                                  ## Copyright:   Public domain.
000003:                                                                                                  ## Filename:    RESTARTS_ROUTINE.agc
000004:                                                                                                  ## Purpose:     A section of Luminary revision 178.
000005:                                                                                                  ##              It is part of the reconstructed source code for the final
000006:                                                                                                  ##              release of the flight software for the Lunar Module's
000007:                                                                                                  ##              (LM) Apollo Guidance Computer (AGC) for Apollo 14. The
000008:                                                                                                  ##              code has been recreated from copies of Zerlina 56, Luminary
000009:                                                                                                  ##              210, and Luminary 131, as well as many Luminary memos.
000010:                                                                                                  ##              It has been adapted such that the resulting bugger words
000011:                                                                                                  ##              exactly match those specified for Luminary 178 in NASA
000012:                                                                                                  ##              drawing 2021152N, which gives relatively high confidence
000013:                                                                                                  ##              that the reconstruction is correct.
000014:                                                                                                  ## Reference:   pp. 1292-1297
000015:                                                                                                  ## Assembler:   yaYUL
000016:                                                                                                  ## Contact:     Ron Burkey <info@sandroid.org>.
000017:                                                                                                  ## Website:     www.ibiblio.org/apollo/index.html
000018:                                                                                                  ## Mod history: 2019-08-14 MAS  Created from Zerlina 56.
000019:                                                                                                  ##              2019-09-15 MAS  Restored the definition of GOLOC.
000020:


000022: 01,3530                                           BANK     01
000023: 01,2000                                           SETLOC   RESTART
000024: 01,2000                                           BANK
000025:
000026: 01,3530  E3,1436                                  EBANK=   PHSNAME1                              #  GOPROG MUST SWITCH TO THIS EBANK
000027:
000028: 01,3530                                           COUNT*   $$/RSROU
000029: 01,3530           30161        RESTARTS           CA       MPAC       +5                         #  GET GROUP NUMBER -1
000030: 01,3531           60000                           DOUBLE                                         #  SAVE FOR INDEXING
000031: 01,3532           54155                           TS       TEMP2G
000032:
000033: 01,3533           33772                           CA       PHS2CADR                              #  SET UP EXIT IN CASE IT IS AN EVEN
000034: 01,3534           54157                           TS       TEMPSWCH                              #  TABLE PHASE
000035:
000036: 01,3535           33567                           CA       RTRNCADR                              #  TO SAVE TIME ASSUME IT WILL GET NEXT
000037: 01,3536           54707                           TS       GOLOC      +2                         #  GROUP AFTER THIS
000038:
000039: 01,3537           30154                           CA       TEMPPHS
000040: 01,3540           75007                           MASK     OCT1400
000041: 01,3541           10000                           CCS      A                                     #  IS IT A VARIABLE OR TABLE RESTART
000042: 01,3542           13553                           TCF      ITSAVAR                               #  IT:S A VARIABLE RESTART
000043:
000044: 01,3543           10154        GETPART2           CCS      TEMPPHS                               #  IS IT AN X.1 RESTART
000045: 01,3544           10000                           CCS      A
000046: 01,3545           13653                           TCF      ITSATBL                               #  NO, ITS A TABLE RESTART
000047:
000048: 01,3546           35024                           CA       PRIO14                                #  IT IS AN X.1 RESTART, THEREFORE START
000049: 01,3547           05105                           TC       FINDVAC                               #  THE DISPLAY RESTART JOB
000050: 01,3550  E3,1400                                  EBANK=   LST1
000051: 01,3550           03040 20103                     2CADR    INITDSP
000052:
000053: 01,3552           03567                           TC       RTRNCADR                              #  FINISHED WITH THIS GROUP, GET NEXT ONE
000054:
000055: 01,3553           75007        ITSAVAR            MASK     OCT1400                               #  IS IT TYPE B ?
000056: 01,3554           10000                           CCS      A
000057: 01,3555           13624                           TCF      ITSLIKEB                              #  YES,IT IS TYPE B
000058:
000059: 01,3556           00006                           EXTEND                                         #  STORE THE JOB (OR TASK) 2CADR FOR EXIT
000060: 01,3557           50155                           NDX      TEMP2G
000061: 01,3560           31437                           DCA      PHSNAME1
000062: 01,3561           52706                           DXCH     GOLOC
000063:
000064: 01,3562           30154                           CA       TEMPPHS                               #  SEE IF THIS IS A JOB, TASK, OR A LONGCAL
000065: 01,3563           74757                           MASK     OCT7
000066: 01,3564           67751                           AD       MINUS2
000067: 01,3565           10000                           CCS      A
000068: 01,3566           13736                           TCF      ITSLNGCL                              #  ITS A LONGCALL
000069:
000070: 01,3567           04631        RTRNCADR           TC       SWRETURN                              #  CANT GET HERE
000071:


000073: 01,3570           13572                           TCF      ITSAWAIT
000074:
000075: 01,3571           13637                           TCF      ITSAJOB                               #  ITS A JOB
000076:
000077: 01,3572           34352        ITSAWAIT           CA       WTLTCADR                              #  SET UP WAITLIST CALL
000078: 01,3573           54704                           TS       GOLOC      -1
000079:
000080: 01,3574           50155                           NDX      TEMP2G                                #  DIRECTLY STORED
000081: 01,3575           31053                           CA       PHSPRDT1
000082: 01,3576           10000        TIMETEST           CCS      A                                     #  IS IT AN IMMEDIATE RESTART
000083: 01,3577           24000                           INCR     A                                     #  NO,
000084: 01,3600           13603                           TCF      FINDTIME                              #  FIND OUT WHEN IT SHOULD BEGIN
000085:
000086: 01,3601           15447                           TCF      ITSINDIR                              #  STORED INDIRECTLY
000087:
000088: 01,3602           13622                           TCF      IMEDIATE                              #  IT WANTS AN IMMEDIATE RESTART
000089:
000090:                                                                                                  #  ***** THIS MUST BE IN FIXED FIXED *****
000091:
000092:    5447                                           BLOCK    02
000093:    4000                                           SETLOC   FFTAG2
000094:    4000                                           BANK
000095:
000096:    5447                                           COUNT*   $$/RSROU
000097:    5447           22706        ITSINDIR           LXCH     GOLOC      +1                         #  GET THE CORRECT E BANK IN CASE THIS IS
000098:    5450           22006                           LXCH     BB                                    #  SWITCHED ERRASIBLE
000099:
000100:    5451           50000                           NDX      A                                     #  GET THE TIME INDIRECTLY
000101:    5452           30001                           CA       1
000102:
000103:    5453           22006                           LXCH     BB                                    #  RESTORE THE BB AND GOLOC
000104:    5454           22706                           LXCH     GOLOC      +1
000105:
000106:    5455           13603                           TCF      FINDTIME                              #  FIND OUT WHEN IT SHOULD BEGIN
000107:
000108:                                                                                                  #  ***** YOU  MAY RETURN TO  SWITCHED FIXED *****
000109:
000110: 01,3603                                           BANK     01
000111: 01,2000                                           SETLOC   RESTART
000112: 01,2000                                           BANK
000113:
000114: 01,3603                                           COUNT*   $$/RSROU
000115: 01,3603           40000        FINDTIME           COM                                            #  MAKE NEGITIVE SINCE IT WILL BE SUBTRACTD
000116: 01,3604           54001                           TS       L                                     #  AND SAVE
000117: 01,3605           50155                           NDX      TEMP2G
000118: 01,3606           41052                           CS       TBASE1
000119: 01,3607           00006                           EXTEND
000120: 01,3610           60025                           SU       TIME1
000121: 01,3611           10000                           CCS      A
000122: 01,3612           40000                           COM
000123:


000125: 01,3613           67734                           AD       OCT37776
000126: 01,3614           64753                           AD       ONE
000127: 01,3615           60001                           AD       L
000128: 01,3616           10000                           CCS      A
000129: 01,3617           34755                           CA       ZERO
000130: 01,3620           13622                           TCF      +2
000131: 01,3621           13622                           TCF      +1
000132: 01,3622           64753        IMEDIATE           AD       ONE
000133: 01,3623           00704                           TC       GOLOC      -1
000134: 01,3624           33567        ITSLIKEB           CA       RTRNCADR                              #  TYPE B,             SO STORE RETURN IN
000135: 01,3625           54157                           TS       TEMPSWCH                              #  TEMPSWCH IN CASE OF AN EVEN PHASE
000136:
000137: 01,3626           33773                           CA       PRT2CADR                              #  SET UP EXIT TO GET TABLE PART OF THIS
000138: 01,3627           54707                           TS       GOLOC      +2                         #  VARIABLE TYPE OF PHASE
000139:
000140: 01,3630           30154                           CA       TEMPPHS                               #  MAKE THE PHASE LOOK RIGHT FOR THE TABLE
000141: 01,3631           76077                           MASK     OCT177                                #  PART OF THIS VARIABLE PHASE
000142: 01,3632           54154                           TS       TEMPPHS
000143:
000144: 01,3633           00006                           EXTEND
000145: 01,3634           50155                           NDX      TEMP2G                                #  OBTAIN THE JOB:S 2CADR
000146: 01,3635           31437                           DCA      PHSNAME1
000147: 01,3636           52706                           DXCH     GOLOC
000148:
000149: 01,3637           50155        ITSAJOB            NDX      TEMP2G                                #  NOW ADD THE PRIORITY AND LET:S GO
000150: 01,3640           31053                           CA       PHSPRDT1
000151: 01,3641           54704        CHKNOVAC           TS       GOLOC      -1                         #  SAVE PRIO UNTIL WE SEE IF ITS
000152: 01,3642           00006                           EXTEND                                         #  A FINDVAC OR A NOVAC
000153: 01,3643           63647                           BZMF     ITSNOVAC
000154:
000155: 01,3644           34354                           CAF      FVACCADR                              #  POSITIVE, SET UP FINDVAC CALL.
000156: 01,3645           56704                           XCH      GOLOC      -1                         #  PICK UP PRIO,
000157: 01,3646           00704                           TC       GOLOC      -1                         #  AND GO
000158:
000159: 01,3647           34351        ITSNOVAC           CAF      NOVACADR                              #  NEGATIVE,
000160: 01,3650           56704                           XCH      GOLOC      -1                         #  SET UP NOVAC CALL,
000161: 01,3651           40000                           COM                                            #  CORRECT PRIO,
000162: 01,3652           00704                           TC       GOLOC      -1                         #  AND GO
000163:
000164: 01,3653           54020        ITSATBL            TS       CYR                                   #  FIND OUT IF THE PHASE IS ODD OR EVEN
000165: 01,3654           10020                           CCS      CYR
000166: 01,3655           13656                           TCF      +1                                    #  IT:S EVEN
000167: 01,3656           13754                           TCF      ITSEVEN
000168:
000169: 01,3657           33567                           CA       RTRNCADR                              #  IN CASE THIS IS THE SECOND PART OF A
000170: 01,3660           54707                           TS       GOLOC      +2                         #  TYPE B RESTART, WE NEED PROPER EXIT
000171:
000172: 01,3661           30154                           CA       TEMPPHS                               #  SET UP POINTER FOR FINDING OUR PLACE IN
000173: 01,3662           54021                           TS       SR                                    #  THE RESTART TABLES
000174: 01,3663           60021                           AD       SR
000175:


000177: 01,3664           50155                           NDX      TEMP2G
000178: 01,3665           62003                           AD       SIZETAB    +1
000179: 01,3666           54156                           TS       POINTER
000180:
000181: 01,3667           00006        CONTBL2            EXTEND                                         #  FIND OUT WHAT:S IN THE TABLE
000182: 01,3670           50156                           NDX      POINTER
000183: 01,3671           32002                           DCA      CADRTAB                               #  GET THE 2CADR
000184:
000185: 01,3672           22706                           LXCH     GOLOC      +1                         #  STORE THE BB INFORMATION
000186:
000187: 01,3673           10000                           CCS      A                                     #  IS IT A JOB OR IS IT  TIMED
000188: 01,3674           24000                           INCR     A                                     #  POSITIVE, MUST BE A JOB
000189: 01,3675           13750                           TCF      ITSAJOB2
000190:
000191: 01,3676           24000                           INCR     A                                     #  MUST BE EITHER A WAITLIST OR LONGCALL
000192: 01,3677           54705                           TS       GOLOC                                 #  LET-S STORE THE CORRECT CADR
000193:
000194: 01,3700           34352                           CA       WTLTCADR                              #  SET UP OUR EXIT TO WAITLIST
000195: 01,3701           54704                           TS       GOLOC      -1
000196:
000197: 01,3702           30706                           CA       GOLOC      +1                         #  NOW FIND OUT IF IT IS A WAITLIST CALL
000198: 01,3703           74742                           MASK     BIT10                                 #  THIS SHOULD BE ONE IF WE HAVE -BB
000199: 01,3704           10000                           CCS      A                                     #  FOR THAT MATTER SO SHOULD BE BITS 9,8,7,
000200:                                                                                                  #  6,5, AND LAST BUT NOT LEAST (PERHAPS NOT
000201:                                                                                                  #  IN IMPORTANCE ANYWAY. BIT 4
000202: 01,3705           13743                           TCF      ITSWTLST                              #  IT IS A WAITLIST CALL
000203:
000204: 01,3706           50156                           NDX      POINTER                               #  OBTAIN THE ORIGINAL DELTA T
000205: 01,3707           32000                           CA       PRDTTAB                               #  ADDRESS FOR THIS LONGCALL
000206:
000207: 01,3710           15456                           TCF      ITSLGCL1                              #  NOW GO GET THE DELTA TIME
000208:
000209:                                                                                                  #  ***** THIS MUST BE IN FIXED FIXED *****
000210:
000211:    5456                                           BLOCK    02
000212:    4000                                           SETLOC   FFTAG2
000213:    4000                                           BANK
000214:
000215:    5456                                           COUNT*   $$/RSROU
000216:    5456           22706        ITSLGCL1           LXCH     GOLOC      +1                         #  OBTAIN THE CORRECT E BANK
000217:    5457           22006                           LXCH     BB
000218:    5460           22706                           LXCH     GOLOC      +1                         #  AND PRESERVE OUR E AND F BANKS
000219:
000220:    5461           00006                           EXTEND                                         #  GET THE DELTA TIME
000221:    5462           50000                           NDX      A
000222:    5463           30001                           DCA      0
000223:
000224:    5464           22706                           LXCH     GOLOC      +1                         #  RESTORE OUR E AND F BANK
000225:    5465           22006                           LXCH     BB                                    #  RESTORE THE TASKS E AND F BANKS
000226:    5466           22706                           LXCH     GOLOC      +1                         #  AND PRESERVE OUR L
000227:


000229:    5467           13711                           TCF      ITSLGCL2                              #  NOW LET:S PROCESS THIS LONGCALL
000230:
000231:                                                                                                  #  ***** YOU  MAY RETURN  TO SWITCHED FIXED *****
000232:
000233: 01,3711                                           BANK     01
000234: 01,2000                                           SETLOC   RESTART
000235: 01,2000                                           BANK
000236:
000237: 01,3711                                           COUNT*   $$/RSROU
000238: 01,3711           53153        ITSLGCL2           DXCH     LONGTIME
000239:
000240: 01,3712           00006                           EXTEND                                         #  CALCULATE TIME LEFT
000241: 01,3713           40025                           DCS      TIME2
000242: 01,3714           21153                           DAS      LONGTIME
000243: 01,3715           00006                           EXTEND
000244: 01,3716           31151                           DCA      LONGBASE
000245: 01,3717           21153                           DAS      LONGTIME
000246:
000247: 01,3720           11152                           CCS      LONGTIME                              #  FIND OUT HOW THIS SHOULD BE RESTARTED
000248: 01,3721           13731                           TCF      LONGCLCL
000249: 01,3722           13724                           TCF      +2
000250: 01,3723           13617                           TCF      IMEDIATE   -3
000251: 01,3724           11153                           CCS      LONGTIME   +1
000252: 01,3725           13731                           TCF      LONGCLCL
000253: 01,3726           13727                           NOOP                                           #  CAN:T GET HERE    *********
000254: 01,3727           13617                           TCF      IMEDIATE   -3
000255: 01,3730           13622                           TCF      IMEDIATE
000256:
000257: 01,3731           33774        LONGCLCL           CA       LGCLCADR                              #  WE WILL GO TO LONGCALL
000258: 01,3732           54704                           TS       GOLOC      -1
000259:
000260: 01,3733           00006                           EXTEND                                         #  PREPARE OUR ENTRY TO LONGCALL
000261: 01,3734           31153                           DCA      LONGTIME
000262: 01,3735           00704                           TC       GOLOC      -1
000263:
000264: 01,3736           34352        ITSLNGCL           CA       WTLTCADR                              #  ASSUME IT WILL GO TO WAITLIST
000265: 01,3737           54704                           TS       GOLOC      -1
000266:
000267: 01,3740           50155                           NDX      TEMP2G
000268: 01,3741           41053                           CS       PHSPRDT1                              #  GET THE DELTA T ADDRESS
000269:
000270: 01,3742           15456                           TCF      ITSLGCL1                              #  NOW GET THE DELTA TIME
000271:
000272: 01,3743           40706        ITSWTLST           CS       GOLOC      +1                         #  CORRECT THE BBCON INFORMATION
000273: 01,3744           54706                           TS       GOLOC      +1
000274:
000275: 01,3745           50156                           NDX      POINTER                               #  GET THE DT AND FIND OUT IF IT WAS STORED
000276: 01,3746           32000                           CA       PRDTTAB                               #  DIRECTLY OR INDIRECTLY
000277:
000278: 01,3747           13576                           TCF      TIMETEST                              #  FIND OUT HOW THE TIME IS STORED
000279:


000281: 01,3750           56705        ITSAJOB2           XCH      GOLOC                                 #  STORE THE CADR
000282:
000283: 01,3751           50156                           NDX      POINTER                               #  ADD THE PRIORITY AND LET:S GO
000284: 01,3752           32000                           CA       PRDTTAB
000285:
000286: 01,3753           13641                           TCF      CHKNOVAC
000287:
000288: 01,3754           30157        ITSEVEN            CA       TEMPSWCH                              #  SET UP FOR EITHER THE SECOND PART OF THE
000289: 01,3755           54707                           TS       GOLOC      +2                         #  TABLE, OR A RETURN FOR THE NEXT GROUP
000290:
000291: 01,3756           50155                           NDX      TEMP2G                                #  SET UP POINTER FOR OUR LOCATION WITHIN
000292: 01,3757           32002                           CA       SIZETAB                               #  THE TABLE
000293: 01,3760           60154                           AD       TEMPPHS                               #  THIS MAY LOOK BAD BUT LET:S SEE YOU DO
000294: 01,3761           60154                           AD       TEMPPHS                               #  BETTER IN TIME OR NUMBERR OF LOCATIONS
000295: 01,3762           60154                           AD       TEMPPHS
000296: 01,3763           54156                           TS       POINTER
000297:
000298: 01,3764           13667                           TCF      CONTBL2                               #  NOW PROCESS WHAT IS IN THE TABLE
000299:
000300: 01,3765           36250        PHSPART2           CA       THREE                                 #  SET THE POINTER FOR THE SECOND HALF OF
000301: 01,3766           26156                           ADS      POINTER                               #  THE TABLE
000302:
000303: 01,3767           33567                           CA       RTRNCADR                              #  THIS WILL BE OUR LAST TIME THROUGH THE
000304: 01,3770           54707                           TS       GOLOC      +2                         #  EVEN TABLE , SO AFTER IT  GET THE NEXT
000305:                                                                                                  #  GROUP
000306: 01,3771           13667                           TCF      CONTBL2                               #  SO LET:S GET THE SECOND ENTRY IN THE TBL
000307:
000308: 01,3772     0154               TEMPPHS            EQUALS   MPAC
000309: 01,3772     0155               TEMP2G             EQUALS   MPAC       +1
000310: 01,3772     0156               POINTER            EQUALS   MPAC       +2
000311: 01,3772     0157               TEMPSWCH           EQUALS   MPAC       +3
000312: 01,3772     0705               GOLOC              EQUALS   VAC5       +20D
000313: 01,3772     7751               MINUS2             EQUALS   NEG2
000314: 01,3772     6077               OCT177             EQUALS   LOW7
000315:
000316: 01,3772           03765        PHS2CADR           GENADR   PHSPART2
000317: 01,3773           03543        PRT2CADR           GENADR   GETPART2
000318: 01,3774           05310        LGCLCADR           GENADR   LONGCALL
000319: 01,3775     4354               FVACCADR           =        TCFINDVC
000320: 01,3775     4352               WTLTCADR           =        TCWAIT
000321: 01,3775     4351               NOVACADR           =        TCNOVAC
000322:
000323:

End of include-file RESTARTS_ROUTINE.agc.  Parent file is MAIN.agc


