
Source Code


000002:                                                                                                  ## Copyright:   Public domain.
000003:                                                                                                  ## Filename:    RESTART_TABLES.agc
000004:                                                                                                  ## Purpose:     A section of Luminary revision 178.
000005:                                                                                                  ##              It is part of the reconstructed source code for the final
000006:                                                                                                  ##              release of the flight software for the Lunar Module's
000007:                                                                                                  ##              (LM) Apollo Guidance Computer (AGC) for Apollo 14. The
000008:                                                                                                  ##              code has been recreated from copies of Zerlina 56, Luminary
000009:                                                                                                  ##              210, and Luminary 131, as well as many Luminary memos.
000010:                                                                                                  ##              It has been adapted such that the resulting bugger words
000011:                                                                                                  ##              exactly match those specified for Luminary 178 in NASA
000012:                                                                                                  ##              drawing 2021152N, which gives relatively high confidence
000013:                                                                                                  ##              that the reconstruction is correct.
000014:                                                                                                  ## Reference:   pp. 245-250
000015:                                                                                                  ## Assembler:   yaYUL
000016:                                                                                                  ## Contact:     Ron Burkey <info@sandroid.org>.
000017:                                                                                                  ## Website:     www.ibiblio.org/apollo/index.html
000018:                                                                                                  ## Mod history: 2019-08-14 MAS  Created from Zerlina 56.
000019:


000021:                                                                                                  #  RESTART TABLES
000022:
000023:                                                                                                  #  ------------------
000024:
000025:                                                                                                  #  THERE ARE TWO FORMS OF RESTART TABLES FOR EACH GROUP.  THEY ARE KNOWN AS THE EVEN RESTART TABLES AND THE ODD
000026:                                                                                                  #  RESTART TABLES.  THE ODD TABLES HAVE ONLY ONE ENTRY OF THREE LOCATIONS WHILE THE EVEN TABLES HAVE TWO ENTRIES
000027:                                                                                                  #  EACH USING THREE LOCATIONS. THE INFORMATION AS TO WHETHER IT IS A JOB, WAITLIST, OR A LONGCALL IS GIVEN BY THE
000028:                                                                                                  #  WAY THINGS ARE PUT INTO THE TABLES.
000029:                                                                                                  #       A JOB HAS ITS PRIORITY STORED IN PRDTTAB OF THE CORRECT PHASE SPOT - A POSITIVE PRIORITY INDICATES A
000030:                                                                                                  #  FINDVAC JOB, A NEGATIVE PRIORITY A NOVAC.  THE 2CADR OF THE JOB IS STORED IN THE CADRTAB.
000031:                                                                                                  #  FOR EXAMPLE,
000032:
000033:                                                                                                  #                                          5.7SPOT  OCT    23000
000034:                                                                                                  #                                                   2CADR  SOMEJOB
000035:
000036:                                                                                                  #  A RESTART OF GROUP 5 WITH PHASE SEVEN WOULD THEN CAUSE SOMEJOB TO BE RESTARTED AS A FINDVAC WITH PRIORITY 23.
000037:
000038:                                                                                                  #                                          5.5SPOT  OCT    -23000
000039:                                                                                                  #                                                   2CADR  ANYJOB
000040:
000041:                                                                                                  #  HERE A RESTART OF GROUP 5 WITH PHASE 7 WOULD CAUSE ANYJOB TO BE RESTARTED AS A NOVAC WITH PRIORITY 23.
000042:                                                                                                  #  A LONGCALL HAS ITS GENADR OF ITS 2CADR STORED NEGATIVELY AND ITS BBCON STORED POSITIVELY.  IN ITS PRDTTAB IS
000043:                                                                                                  #  PLACED THE LOCATION OF A DP REGISTER THAT CONTAINS THE DELTA TIME THAT LONGCALL HAD BEEN ORIGINALLY STARTED
000044:                                                                                                  #  WITH.  EXAMPLE,
000045:
000046:                                                                                                  #                                          3.6SPOT  GENADR DELTAT
000047:                                                                                                  #                                                  -GENADR LONGTASK
000048:                                                                                                  #                                                   BBCON  LONGTASK
000049:
000050:                                                                                                  #                                                   OCT    31000
000051:                                                                                                  #                                                   2CADR  JOBAGAIN
000052:
000053:                                                                                                  #  THIS WOULD START UP LONGTASK AT THE APPROPRIATE TIME, OR IMMEDIATELY IF THE TIME HAD ALREADY PASSED. IT SHOULD
000054:                                                                                                  #  BE NOTED THAT IF DELTAT IS IN A SWITCHED E BANK, THIS INFORMATOIN SHOULD BE IN THE BBCON OFTHE 2CADR OF THE
000055:                                                                                                  #  TASK.  FROM ABOVE, WE SEE THAT THE SECOND PART OF THIS PHASE WOULD BE STARTED AS A JOB WITH A PRIORITY OF 31.
000056:
000057:                                                                                                  #  WAITLIST CALLS ARE IDENTIFIED BY THE FACT THAT THEIR 2CADR IS STORED NEGATIVELY. IF PRDTTAB OF THE PHASE SPOT
000058:                                                                                                  #  IS POSITIVE, THEN IT CONTAINS THE DELTA TIME, IF PRDTTAB IS NEGATIVE THEN IT IS THE -GENADR OF AN ERASABLE
000059:                                                                                                  #  LOCATION CONTAINING THE DELTA TIME, THAT IS, THE TIME IS STORED INDIRECTLY.  IT SHOULD BE NOTED AS ABOVE, THAT
000060:                                                                                                  #  IF THE TIME IS STORED INDIRECTLY, THE BBCON MUST CONTAIN THE NECESSARY E BANK INFORMATION IF APPLICABLE.  WITH
000061:                                                                                                  #  WAITLIST WE HAVE ONE FURTHER OPTION, IF -0 IS STORED IN PRDTTAB, IT WILL CAUSE AN IMMEDIATE RESTART OF THE
000062:                                                                                                  #  TASK.  EXAMPLES,
000063:
000064:                                                                                                  #                                                   OCT    77777           THIS WILL CAUSE AN IMMEDIATE RESTART
000065:                                                                                                  #                                                  -2CADR  ATASK           OF THE TASK :ATASK:
000066:                                                                                                  #
000067:                                                                                                  #                                                   DEC    200             IF THE TIME OF THE 2 SECONDS SINCE DUMMY
000068:                                                                                                  #                                                  -2CADR  DUMMY           WAS PUT ON WAITLIST IS UP, IT WILL BEGIN
000069:                                                                                                  #                                                                          IN 10 MS, OTHERWISE IT WILL BEGIN WHEN
000070:                                                                                                  #                                                                          IT NORMALLY WOULD HAVE BEGUN.


000072:                                                                                                  #                                                  -GENADR DTIME           WHERE DTIME CONTAINS THE DELTA TIME
000073:                                                                                                  #                                                  -2CADR  TASKTASK        OTHERWISE THIS IS AS ABOVE
000074:
000075:                                                                                                  #  *****    NOW THE TABLES THEMSELVES *****
000076:
000077: 01,2002                                           BANK     01
000078: 01,2000                                           SETLOC   RESTART
000079: 01,2000                                           BANK
000080:
000081: 01,2002                        PRDTTAB            EQUALS   12000                                 #  USED TO FIND THE PRIORITY OR DELTATIME
000082: 01,2002                        CADRTAB            EQUALS   12001                                 #  THIS AND THE NEXT RELATIVE LOC CONTAIN
000083:                                                                                                  #  RESTART 2CADR
000084:
000085: 01,2002                                           COUNT*   $$/RSTAB                              #  TABLES IN BANK 1.
000086: 01,2002           00010        SIZETAB            TC       1.2SPOT    -12006
000087: 01,2003           00020                           TC       1.3SPOT    -12004
000088: 01,2004           00010                           TC       2.2SPOT    -12006
000089: 01,2005           00026                           TC       2.3SPOT    -12004
000090: 01,2006           00010                           TC       3.2SPOT    -12006
000091: 01,2007           00056                           TC       3.3SPOT    -12004
000092: 01,2010           00062                           TC       4.2SPOT    -12006
000093: 01,2011           00072                           TC       4.3SPOT    -12004
000094: 01,2012           00145                           TC       5.2SPOT    -12006
000095: 01,2013           00163                           TC       5.3SPOT    -12004
000096: 01,2014           00010                           TC       6.2SPOT    -12006
000097: 01,2015           00174                           TC       6.3SPOT    -12004
000098: 01,2016           21000        1.2SPOT            OCT      21000                                 #  A DUMMY EXAMPLE TO BE REPLACED AS SOON
000099: 01,2017     0074                                  EBANK=   STATE
000100: 01,2017           05155 04060                     2CADR    ENDOFJOB                              #  AS THERE IS A LEGITIMATE 1.2SPOT
000101:
000102: 01,2021           00144                           DEC      100        B-14
000103: 01,2022     0074                                  EBANK=   STATE
000104: 01,2022           05272 04060                     2CADR    TASKOVER
000105:
000106:                                                                                                  #  ANY MORE GROUP 1.EVEN RESTART VALUES SHOULD GO HERE
000107:
000108: 01,2024           76300        1.3SPOT            -GENADR  SAVET-30
000109: 01,2025  E7,1515                                  EBANK=   DVCNTR
000110: 01,2025           75427 03710                     -2CADR   ULLGTASK
000111:
000112: 01,2027           32000        1.5SPOT            OCT      32000
000113: 01,2030  E7,1654                                  EBANK=   HMEAS
000114: 01,2030           03540 66067                     2CADR    REREPOS
000115:
000116:                                                                                                  #  ANY MORE GROUP 1.ODD RESTART VALUES SHOULD GO HERE
000117:
000118: 01,2032  01,2016               2.2SPOT            EQUALS   1.2SPOT
000119:                                                                                                  #  ANY MORE GROUP 2.EVEN RESTART VALUES SHOULD GO HERE
000120:
000121: 01,2032           02627        2.3SPOT            GENADR   600SECS


000123: 01,2033           75175                           -GENADR  STATEINT
000124: 01,2034  E3,1554                                  EBANK=   RRECTCSM
000125: 01,2034           26063                           BBCON    STATEINT
000126:
000127: 01,2035           05000        2.5SPOT            OCT      05000
000128: 01,2036  E3,1554                                  EBANK=   RRECTCSM
000129: 01,2036           02611 26063                     2CADR    STATINT1
000130:
000131: 01,2040           02734        2.7SPOT            DEC      1500       B-14
000132: 01,2041  E7,1456                                  EBANK=   LOSCOUNT
000133: 01,2041           75455 27710                     -2CADR   P20LEMC1
000134:
000135: 01,2043           14000        2.11SPOT           OCT      14000
000136: 01,2044  E7,1762                                  EBANK=   P21TIME
000137: 01,2044           02476 50067                     2CADR    P25LEM1
000138:
000139: 01,2046           10000        2.13SPOT           OCT      10000
000140: 01,2047  E7,1456                                  EBANK=   LOSCOUNT
000141: 01,2047           02225 54067                     2CADR    RELINUS
000142:
000143: 01,2051           26000        2.15SPOT           OCT      26000
000144: 01,2052  E7,1456                                  EBANK=   LOSCOUNT
000145: 01,2052           02736 50067                     2CADR    R22RSTRT
000146:
000147: 01,2054           77777        2.17SPOT           OCT      77777
000148: 01,2055  E7,1700                                  EBANK=   VGPREV
000149: 01,2055           75436 03710                     -2CADR   REDO2.17
000150:
000151: 01,2057           00031        2.21SPOT           DEC      25         B-14
000152: 01,2060  E7,1515                                  EBANK=   DVCNTR
000153: 01,2060           75771 35710                     -2CADR   R10,R11
000154:
000155:                                                                                                  #  ANY MORE GROUP 2.ODD RESTART VALUES SHOULD GO HERE.
000156:
000157: 01,2062  01,2016               3.2SPOT            EQUALS   1.2SPOT
000158:                                                                                                  #  ANY MORE GROUP 3.EVEN RESTART VALUES SHOULD GO HERE
000159:
000160: 01,2062           76355        3.3SPOT            -GENADR  ZOOMTIME
000161: 01,2063  E7,1515                                  EBANK=   DVCNTR
000162: 01,2063           74102 05710                     -2CADR   ZOOM
000163:
000164: 01,2065           20000        3.5SPOT            OCT      20000
000165: 01,2066  E7,1453                                  EBANK=   TTOGO
000166: 01,2066           02536 56067                     2CADR    S40.13
000167:
000168:                                                                                                  #  ANY MORE GROUP 3.ODD RESTART VALUES SHOULD GO HERE
000169:
000170: 01,2070           04704        4.2SPOT            DEC      2500       B-14
000171: 01,2071  E7,1453                                  EBANK=   TTOGO


000173: 01,2071           75423 03710                     -2CADR   TIG-5
000174:
000175: 01,2073           77777                           OCT      77777
000176: 01,2074  E7,1453                                  EBANK=   TTOGO
000177: 01,2074           75433 03710                     -2CADR   REDO4.2
000178:
000179:                                                                                                  #  ANY MORE GROUP 4.EVEN RESTART VALUES SHOULD GO HERE
000180:
000181: 01,2076           25000        4.3SPOT            OCT      25000
000182: 01,2077  E7,1515                                  EBANK=   DVCNTR
000183: 01,2077           03432 64067                     2CADR    GOABORT
000184:
000185: 01,2101           00062        4.5SPOT            DEC      50         B-14
000186: 01,2102  E7,1453                                  EBANK=   TTOGO
000187: 01,2102           75216 03710                     -2CADR   ULLAGOFF
000188:
000189: 01,2104           00764        4.7SPOT            DEC      500        B-14
000190: 01,2105  E7,1515                                  EBANK=   DVCNTR
000191: 01,2105           75370 03710                     -2CADR   TIG-0
000192:
000193: 01,2107           76260        4.11SPOT           -GENADR  TGO        +1
000194: 01,2110  E7,1515                                  EBANK=   DVCNTR
000195: 01,2110           74234 03710                     -2CADR   ENGOFTSK
000196:
000197: 01,2112           12000        4.13SPOT           OCT      12000
000198: 01,2113  E7,1462                                  EBANK=   TRKMKCNT
000199: 01,2113           03222 74067                     2CADR    POSTBURN
000200:
000201: 01,2115           00764        4.15SPOT           DEC      500        B-14
000202: 01,2116  E7,1453                                  EBANK=   TTOGO
000203: 01,2116           75477 03710                     -2CADR   TIG-30
000204:
000205: 01,2120           77777        4.17SPOT           OCT      77777
000206: 01,2121  E7,1515                                  EBANK=   DVCNTR
000207: 01,2121           75423 03710                     -2CADR   TIG-5
000208:
000209: 01,2123           13000        4.21SPOT           OCT      13000
000210: 01,2124  E5,1730                                  EBANK=   STAR
000211: 01,2124           03012 30065                     2CADR    R51.1      +1
000212:
000213: 01,2126           77777        4.23SPOT           OCT      77777
000214: 01,2127  E7,1515                                  EBANK=   DVCNTR
000215: 01,2127           75344 03710                     -2CADR   IGNITION
000216:
000217: 01,2131           01477        4.25SPOT           GENADR   SAVET-30
000218: 01,2132           75535                           -GENADR  TIG-35
000219: 01,2133  E7,1477                                  EBANK=   SAVET-30
000220: 01,2133           74067                           BBCON    TIG-35
000221:


000223: 01,2134           52777        4.27SPOT           OCT      52777
000224: 01,2135  E7,1515                                  EBANK=   DVCNTR
000225: 01,2135           02073 42067                     2CADR    P70A
000226:
000227: 01,2137           52777        4.31SPOT           OCT      52777
000228: 01,2140  E7,1515                                  EBANK=   DVCNTR
000229: 01,2140           02076 42067                     2CADR    P71A
000230:
000231: 01,2142           46777        4.33SPOT           OCT      46777
000232: 01,2143  E7,1515                                  EBANK=   DVCNTR
000233: 01,2143           02024 10067                     2CADR    GOPOOFIX
000234:
000235: 01,2145           46777        4.35SPOT           OCT      46777
000236: 01,2146  E7,1515                                  EBANK=   DVCNTR
000237: 01,2146           05666 04067                     2CADR    GOPOODOO
000238:
000239: 01,2150           52777        4.37SPOT           OCT      52777
000240: 01,2151  E7,1455                                  EBANK=   WHICH
000241: 01,2151           02570 74067                     2CADR    COMFAIL
000242:
000243:                                                                                                  #  ANY MORE 4.ODD RESTART VALUES SHOULD GO HERE.
000244:
000245: 01,2153           22000        5.2SPOT            OCT      22000
000246: 01,2154  E7,1515                                  EBANK=   DVCNTR
000247: 01,2154           03650 64067                     2CADR    NORMLIZE
000248:
000249: 01,2156           00310                           DEC      200        B-14
000250: 01,2157  E7,1515                                  EBANK=   DVCNTR
000251: 01,2157           74164 01710                     -2CADR   REREADAC
000252:
000253: 01,2161           00310        5.4SPOT            DEC      200        B-14
000254: 01,2162  E7,1515                                  EBANK=   DVCNTR
000255: 01,2162           74164 01710                     -2CADR   REREADAC
000256:
000257: 01,2164           20000                           OCT      20000
000258: 01,2165  E7,1515                                  EBANK=   DVCNTR
000259: 01,2165           02121 66067                     2CADR    SERVICER
000260:
000261:                                                                                                  #  ANY MORE GROUP 5.EVEN RESTART VALUES SHOULD GO HERE
000262:
000263: 01,2167           00310        5.3SPOT            DEC      200        B-14
000264: 01,2170  E7,1515                                  EBANK=   DVCNTR
000265: 01,2170           74164 01710                     -2CADR   REREADAC
000266:
000267: 01,2172           77777        5.5SPOT            OCT      77777
000268: 01,2173  E7,1515                                  EBANK=   DVCNTR
000269: 01,2173           74335 01710                     -2CADR   REDO5.5
000270:


000272: 01,2175           77777        5.7SPOT            OCT      77777
000273: 01,2176  E7,1515                                  EBANK=   DVCNTR
000274: 01,2176           74370 01710                     -2CADR   BIBIBIAS
000275:
000276:                                                                                                  #  ANY MORE GROUP 5.ODD RESTART VALUES SHOULD GO HERE
000277:
000278: 01,2200  01,2016               6.2SPOT            EQUALS   1.2SPOT
000279: 01,2200           00144        6.3SPOT            DEC      100        B-14
000280: 01,2201  E7,1441                                  EBANK=   TIG
000281: 01,2201           75061 03710                     -2CADR   CLOKTASK
000282:
000283: 01,2203           30000        6.5SPOT            OCT      30000                                 #  PROTECT INCREMENTING OF TIME2,TIME1 BY
000284: 01,2204  E3,1706                                  EBANK=   TEPHEM                                #  P27(UPDATE PROGRAM) VIA V70 OR V73.
000285: 01,2204           03605 10063                     2CADR    TIMEDIDR
000286:
000287: 01,2206           17000        6.7SPOT            OCT      17000
000288: 01,2207  E7,1700                                  EBANK=   VGPREV
000289: 01,2207           03355 74067                     2CADR    REDO6.7
000290:
000291: 01,2211           17000        6.11SPOT           OCT      17000
000292: 01,2212  E7,1700                                  EBANK=   VGPREV
000293: 01,2212           03364 74067                     2CADR    FKP5RST
000294:

End of include-file RESTART_TABLES.agc.  Parent file is MAIN.agc


