
Source Code


000002:                                                                                                  ## Copyright:   Public domain.
000003:                                                                                                  ## Filename:    SINGLE_PRECISION_SUBROUTINES.agc
000004:                                                                                                  ## Purpose:     A section of Luminary revision 178.
000005:                                                                                                  ##              It is part of the reconstructed source code for the final
000006:                                                                                                  ##              release of the flight software for the Lunar Module's
000007:                                                                                                  ##              (LM) Apollo Guidance Computer (AGC) for Apollo 14. The
000008:                                                                                                  ##              code has been recreated from copies of Zerlina 56, Luminary
000009:                                                                                                  ##              210, and Luminary 131, as well as many Luminary memos.
000010:                                                                                                  ##              It has been adapted such that the resulting bugger words
000011:                                                                                                  ##              exactly match those specified for Luminary 178 in NASA
000012:                                                                                                  ##              drawing 2021152N, which gives relatively high confidence
000013:                                                                                                  ##              that the reconstruction is correct.
000014:                                                                                                  ## Reference:   p.  1093
000015:                                                                                                  ## Assembler:   yaYUL
000016:                                                                                                  ## Contact:     Ron Burkey <info@sandroid.org>.
000017:                                                                                                  ## Website:     www.ibiblio.org/apollo/index.html
000018:                                                                                                  ## Mod history: 2019-08-14 MAS  Created from Zerlina 56.
000019:


000021:    5032                                           BLOCK    02
000022:                                                                                                  #  SINGLE PRECISION SINE AND COSINE
000023:
000024:    5032                                           COUNT*   $$/INTER
000025:    5032           64736        SPCOS              AD       HALF                                  #  ARGUMENTS SCALED AT PI
000026:    5033           55075        SPSIN              TS       TEMK
000027:    5034           15036                           TCF      SPT
000028:    5035           41075                           CS       TEMK
000029:    5036           60000        SPT                DOUBLE
000030:    5037           55075                           TS       TEMK
000031:    5040           15051                           TCF      POLLEY
000032:    5041           57075                           XCH      TEMK
000033:    5042           51075                           INDEX    TEMK
000034:    5043           64734                           AD       LIMITS
000035:    5044           40000                           COM
000036:    5045           61075                           AD       TEMK
000037:    5046           55075                           TS       TEMK
000038:    5047           15051                           TCF      POLLEY
000039:    5050           15067                           TCF      ARG90
000040:    5051           00006        POLLEY             EXTEND
000041:    5052           71075                           MP       TEMK
000042:    5053           55076                           TS       SQ
000043:    5054           00006                           EXTEND
000044:    5055           75005                           MP       C5/2
000045:    5056           67742                           AD       C3/2
000046:    5057           00006                           EXTEND
000047:    5060           71076                           MP       SQ
000048:    5061           67722                           AD       C1/2
000049:    5062           00006                           EXTEND
000050:    5063           71075                           MP       TEMK
000051:    5064           20001                           DDOUBL
000052:    5065           55075                           TS       TEMK
000053:    5066           00002                           TC       Q
000054:    5067           50000        ARG90              INDEX    A
000055:    5070           44734                           CS       LIMITS
000056:    5071           00002                           TC       Q                                     #  RESULT SCALED AT 1

End of include-file SINGLE_PRECISION_SUBROUTINES.agc.  Parent file is MAIN.agc


