
Source Code


000002:                                                                                                  ## Copyright:   Public domain.
000003:                                                                                                  ## Filename:    SPS_BACK-UP_RCS_CONTROL.agc
000004:                                                                                                  ## Purpose:     A section of Luminary revision 178.
000005:                                                                                                  ##              It is part of the reconstructed source code for the final
000006:                                                                                                  ##              release of the flight software for the Lunar Module's
000007:                                                                                                  ##              (LM) Apollo Guidance Computer (AGC) for Apollo 14. The
000008:                                                                                                  ##              code has been recreated from copies of Zerlina 56, Luminary
000009:                                                                                                  ##              210, and Luminary 131, as well as many Luminary memos.
000010:                                                                                                  ##              It has been adapted such that the resulting bugger words
000011:                                                                                                  ##              exactly match those specified for Luminary 178 in NASA
000012:                                                                                                  ##              drawing 2021152N, which gives relatively high confidence
000013:                                                                                                  ##              that the reconstruction is correct.
000014:                                                                                                  ## Reference:   pp. 1495-1498
000015:                                                                                                  ## Assembler:   yaYUL
000016:                                                                                                  ## Contact:     Ron Burkey <info@sandroid.org>.
000017:                                                                                                  ## Website:     www.ibiblio.org/apollo/index.html
000018:                                                                                                  ## Mod history: 2019-08-14 MAS  Created from Zerlina 56.
000019:                                                                                                  ##              2019-09-15 MAS  Restored the definition of OLDSENSE.
000020:


000022:                                                                                                  #  PROGRAM NAME:  SPSRCS
000023:
000024:                                                                                                  #  AUTHOR:  EDGAR M. OSHIKA (AC ELECTRONICS)
000025:
000026:                                                                                                  #  MODIFIED:  TO RETURN TO ALL AXES VIA Q BY P.S.WEISSMAN, OCT 7, 1968
000027:
000028:                                                                                                  #  MODIFIED TO IMPROVE BENDING STABILITY BY G.KALAN,FEB.14,1969
000029:                                                                                                  #  FUNCTIONAL DESCRIPTION:
000030:
000031:                                                                                                  #  THIS PROGRAM CONTROLS THE FIRING OF ALL RCS JETS IN THE DOCKED CONFIGURATION ACCORDING TO THE FOLLOWING PHASE
000032:                                                                                                  #  PLANE LOGIC.
000033:
000034:                                                                                                  #  1. JET SENSE TEST (SPSRCS)
000035:
000036:                                                                                                  #  IF JETS ARE FIRING NEGATIVELY,SET OLDSENSE NEGATIVE AND CONTINUE
000037:                                                                                                  #  IF JETS ARE FIRING POSITIVELY,SET OLDSENSE POSITIVE AND CONTINUE
000038:                                                                                                  #  IF JETS ARE NOT FIRING,SET OLDSENSE TO ZERO AND GO TO OUTER RATE LIMIT  TEST
000039:
000040:                                                                                                  #  2. RATE DEAD BAND TEST
000041:
000042:                                                                                                  #  IF JETS ARE FIRING NEGATIVELY AND RATE IS GREATER THAN TARGET RATE,LEAVE
000043:                                                                                                  #  JETS ON AND GO TO INHIBITION LOGIC. OTHERWISE,CONTINUE.
000044:                                                                                                  #  IF JETS ARE FIRING POSITIVELY AND RATE IS   LESS  THAN TARGET RATE,LEAVE
000045:                                                                                                  #  JETS ON AND GO TO INHIBITION LOGIC. OTHERWISE,CONTINUE.
000046:
000047:                                                                                                  #  3. OUTER RATE LIMIT TEST (SPSSTART)
000048:
000049:                                                                                                  #  IF MAGNITUDE OF EDOT IS GREATER THAN 1.73 DEG/SEC SET JET FIRING TIME
000050:                                                                                                  #   TO REDUCE RATE AND GO TO INHIBITION LOGIC. OTHERWISE,CONTINUE.
000051:
000052:                                                                                                  #  4. COAST ZONE TEST
000053:
000054:                                                                                                  #  IF STATE (E,EDOT) IS BELOW LINE  E + 4 X EDOT > -1.4 DEG  AND EDOT IS LESS THAN 1.30 DEG/SEC SET JET TIME POSI-
000055:                                                                                                  #  TIVE AND CONTINUE. OTHERWISE,SET JET FIRING TIME TO ZERO AND CONTINUE.
000056:                                                                                                  #  IF STATE IS ABOVE LINE  E + 4X EDOT > +1.4 DEG AND EDOT IS GREATER THAN -1.30 DEG/SEC, SET JET TIME NEGATIVE
000057:                                                                                                  #  AND CONTINUE. OTHERWISE,SET JET FIRING TIME TO ZERO AND CONTINUE.
000058:
000059:                                                                                                  #  5. INHIBITION LOGIC
000060:
000061:                                                                                                  #  IF OLDSENSE IS NON-ZERO:
000062:                                                                                                  #        A) RETURN IF JET TIME HAS SAME SIGN AS OLDSENSE
000063:                                                                                                  #        B) SET INHIBITION COUNTER*AND RETURN IF JET TIME IS ZERO
000064:                                                                                                  #        C) SET INHIBITION COUNTER,*SET JET TIME TO ZERO AND RETURN IF SIGN
000065:                                                                                                  #           OF JET TIME IS OPPOSITE TO THAT OF OLDSENSE
000066:
000067:                                                                                                  #  IF OLDSENSE IS ZERO:
000068:                                                                                                  #        A) RETURN IF INHIBITION COUNTER IS NOT POSITIVE
000069:                                                                                                  #        B) SET JET TIME TO ZERO AND RETURN IF INHIBITION COUNTER IS POSITIVE
000070:                                                                                                  #  *NOTE: INHIBITION COUNTERS CAN BE SET TO 4 OR 10 FOR THE P,AND UV AXES,
000071:                                                                                                  #  RESPECTIVELY,IN SPSRCS. THEY ARE DECREMENTED BY ONE AT THE BEGINNING OF


000073:                                                                                                  #  EACH DAP PASS.
000074:
000075:                                                                                                  #  THE MINIMUM PULSE WIDTH OF THIS CONTROLLER IS DETERMINED BY THE REPETITION  RATE AT WHICH THIS ROUTINE IS CALLED
000076:                                                                                                  #  AND IS NOMINALLY 100 MS FOR ALL AXES IN DRIFTING FLIGHT.   DURING POWERED FLIGHT THE MINIMUM IS 100 MS FOR THE
000077:                                                                                                  #  P AXIS AND 200 MS FOR THE CONTROL OF THE U AND V AXES.
000078:
000079:                                                                                                  #  CALLING SEQUENCE:
000080:
000081:                                                                                                  #           INHINT
000082:                                                                                                  #                      TC     IBNKCALL
000083:                                                                                                  #                      CADR   SPSRCS
000084:
000085:
000086:                                                                                                  #  EXIT:
000087:                                                                                                  #           TC     Q
000088:                                                                                                  #  ALARM/ABORT MODE:    NONE
000089:
000090:                                                                                                  #  SUBROUTINES CALLED:    NONE
000091:
000092:                                                                                                  #  INPUT:      E,EDOT
000093:                                                                                                  #              TJP, TJV, TJU                   TJ MUST NOT BE NEGATIVE ZERO
000094:
000095:                                                                                                  #  OUTPUT:     TJP, TJV, TJU
000096:
000097:
000098: 21,3433                                           BANK     21
000099: 21,2000                                           SETLOC   DAPS4
000100: 21,2000                                           BANK
000101:
000102: 21,3433                                           COUNT*   $$/DAPBU
000103:
000104: 21,3433  E6,1525                                  EBANK=   TJU
000105: 21,3433           00632        RATELIM2           OCT      00632                                 #  1.125 DEG/SEC
000106: 21,3434           34736        POSTHRST           CA       HALF
000107:
000108: 21,3435           51505                           NDX      AXISCTR
000109: 21,3436           55525                           TS       TJU
000110: 21,3437           11744                           CCS      OLDSENSE
000111: 21,3440           13460                           TCF      POSCHECK                              #  JETS FIRING POSITIVELY
000112: 21,3441           13463                           TCF      CTRCHECK                              #  JETS OFF. CHECK INHIBITION CTR
000113: 21,3442           51505        NEGCHECK           INDEX    AXISCTR                               #  JETS FIRING NEGATIVELY
000114: 21,3443           41525                           CS       TJU
000115: 21,3444           10000                           CCS      A
000116: 21,3445           00002                           TC       Q                                     #  RETURN
000117: 21,3446           13450                           TCF      +2
000118: 21,3447           13450                           TCF      +1                                    #  JETS COMMANDED OFF.SET CTR AND RETURN
000119: 21,3450           51505        SETCTR             INDEX    AXISCTR                               #  JET FIRING REVERSAL COMMANDED. SET CTR,
000120: 21,3451           33472                           CA       UTIME                                 #  SET JET TIME TO ZERO,AND RETURN


000122: 21,3452           51505                           INDEX    AXISCTR
000123: 21,3453           55767                           TS       UJETCTR
000124: 21,3454           34755        ZAPTJ              CA       ZERO
000125: 21,3455           51505                           INDEX    AXISCTR
000126: 21,3456           55525                           TS       TJU
000127: 21,3457           00002                           TC       Q
000128: 21,3460           51505        POSCHECK           INDEX    AXISCTR
000129: 21,3461           31525                           CA       TJU
000130: 21,3462           13444                           TCF      NEGCHECK   +2
000131: 21,3463           51505        CTRCHECK           INDEX    AXISCTR                               #  CHECK JET INHIBITION COUNTER
000132: 21,3464           11767                           CCS      UJETCTR
000133: 21,3465           13467                           TCF      +2
000134: 21,3466           00002                           TC       Q                                     #  CTR IS NOT POSITIVE. RETURN
000135: 21,3467           13454                           TCF      ZAPTJ                                 #  CTR IS POSITIVE.INHIBIT FIRINGS
000136: 21,3470           00002                           TC       Q                                     #  CTR IS NOT POSITIVE.RETURN
000137: 21,3471           00004                           OCT      00004
000138: 21,3472           00012        UTIME              OCT      00012
000139: 21,3473           00012                           OCT      00012
000140: 21,3474  E6,1744               OLDSENSE           EQUALS   DAPTREG1
000141: 21,3474           44753        NEGFIRE            CS       ONE                                   #  JETS FIRING NEGATIVELY
000142: 21,3475           55744                           TS       OLDSENSE
000143: 21,3476           31427                           CA       EDOT
000144: 21,3477           13503                           TCF      +4
000145: 21,3500           34753        PLUSFIRE           CA       ONE
000146: 21,3501           55744                           TS       OLDSENSE
000147: 21,3502           41427                           CS       EDOT                                  #  RATE DEAD BAND TEST
000148: 21,3503           22000                           LXCH     A
000149: 21,3504           40111                           CS       DAPBOOLS                              #  IF DRIFTBIT = 1, USE ZERO TARGET RATE
000150: 21,3505           74744                           MASK     DRIFTBIT                              #  IF DRIFTBIT = 0, USE 0.10 RATE TARGET
000151: 21,3506           10000                           CCS      A
000152: 21,3507           34767                           CA       RATEDB1
000153: 21,3510           60001                           AD       L
000154: 21,3511           00006                           EXTEND
000155: 21,3512           63522                           BZMF     SPSSTART
000156: 21,3513           13437                           TCF      POSTHRST   +3
000157:
000158: 21,3514           51505        SPSRCS             INDEX    AXISCTR                               #  JET SENSE TEST
000159: 21,3515           11525                           CCS      TJU
000160: 21,3516           13500                           TCF      PLUSFIRE                              #  JETS FIRING POSITIVELY
000161: 21,3517           13521                           TCF      +2
000162: 21,3520           13474                           TCF      NEGFIRE                               #  JETS FIRING NEGATIVELY
000163: 21,3521           55744                           TS       OLDSENSE                              #  JETS OFF
000164: 21,3522           31427        SPSSTART           CA       EDOT                                  #  OUTER RATE LIMIT TEST
000165: 21,3523           00006                           EXTEND
000166: 21,3524           74766                           MP       RATELIM1
000167: 21,3525           10000                           CCS      A
000168: 21,3526           13545                           TCF      NEGTHRST                              #  OUTER RATE LIMIT EXCEEDED
000169: 21,3527           13531                           TCF      +2
000170: 21,3530           13434                           TCF      POSTHRST                              #  OUTER RATE LIMIT EXCEEDED
000171: 21,3531           31427                           CA       EDOT                                  #  COAST ZONE TEST
000172: 21,3532           61751                           AD       E


000174: 21,3533           00006                           EXTEND
000175: 21,3534           71411                           MP       DKDB                                  #  PAD LOADED DEADBAND. FRESHSTART: 1.4 DEG
000176: 21,3535           00006                           EXTEND
000177: 21,3536           13553                           BZF      TJZERO
000178:
000179: 21,3537           00006                           EXTEND
000180: 21,3540           63547                           BZMF     +7
000181: 21,3541           31427                           CA       EDOT
000182: 21,3542           63433                           AD       RATELIM2
000183: 21,3543           00006                           EXTEND
000184: 21,3544           63553                           BZMF     TJZERO
000185: 21,3545           44736        NEGTHRST           CS       HALF
000186: 21,3546           13435                           TCF      POSTHRST   +1
000187: 21,3547           43433                 +7        CS       RATELIM2
000188: 21,3550           61427                           AD       EDOT
000189: 21,3551           00006                           EXTEND
000190: 21,3552           63434                           BZMF     POSTHRST
000191: 21,3553           34755        TJZERO             CA       ZERO
000192: 21,3554           13435                           TCF      POSTHRST   +1
000193:
000194:
000195: 21,3555     4766               RATELIM1           =        CALLCODE                              #  = 00032, CORRESPONDING TO 1.73 DEG/SEC
000196: 21,3555     4767               RATEDB1            =        TBUILDFX                              #   = 00045, CORRESPONDS TO 0.101 DEG/SEC

End of include-file SPS_BACK-UP_RCS_CONTROL.agc.  Parent file is MAIN.agc


