
Source Code


000002:                                                                                                  ## Copyright:   Public domain.
000003:                                                                                                  ## Filename:    501_RESTART_TABLES_AND_ROUTINES.agc
000004:                                                                                                  ## Purpose:     Part of the source code for Solarium build 55. This
000005:                                                                                                  ##              is for the Command Module's (CM) Apollo Guidance
000006:                                                                                                  ##              Computer (AGC), for Apollo 6.
000007:                                                                                                  ## Assembler:   yaYUL --block1
000008:                                                                                                  ## Contact:     Jim Lawton <jim DOT lawton AT gmail DOT com>
000009:                                                                                                  ## Website:     www.ibiblio.org/apollo/index.html
000010:                                                                                                  ## Page Scans:  www.ibiblio.org/apollo/ScansForConversion/Solarium055/
000011:                                                                                                  ## Mod history: 2009-10-02 JL   Created.
000012:                                                                                                  ##              2016-08-18 RSB  Corrected typos
000013:                                                                                                  ##              2016-08-23 RSB  More of the same.
000014:                                                                                                  ##              2016-12-28 RSB  Proofed comment text using octopus/ProoferComments,
000015:                                                                                                  ##                              and fixed errors found.
000016:


000018:                                                                                                  #   RESTART  TABLES
000019:                                                                                                  #   ----------------
000020:
000021:                                                                                                  #        THESE CONTROL RESTART OPERATION.
000022:
000023:
000024:
000025:
000026:                                                                                                  #   ...IMPORTANT...   DO NOT MOVE THIS SECTION FROM BEGINNING OF BANK. DJL
000027:
000028: 13,6000                                           SETLOC   26000                                 #  START OF BANK 13.
000029: 13,6000           00000        WTDTTAB            DEC      0          B-14                       #  WAITLIST DT FOR RESTART 1.0
000030: 13,6001           00000        WCADRTAB           CADR     0                                     #  WAITLIST CADR.
000031: 13,6002           00000        PRIOTAB            OCT      0                                     #  PRIORITY VALUE.
000032: 13,6003           00000        CADRTAB            CADR     0                                     #  CADR OF CURRENT JOB
000033:
000034:                                                                                                  #  ANY JOB 1 RESTARTS SHOULD GO HEFE.
000035:
000036: 13,6004           00000 00000  2.1SPOT            2DEC     0.0                                   #  2.1 RESTART
000037: 13,6006           00000 00000                     2DEC     0.0
000038:
000039: 13,6010           00000        2.2SPOT            OCT      0                                     #  RESTART 2.2 VALUES.
000040: 13,6011           00000                           OCT      0
000041: 13,6012           12000                           OCT      12000                                 #  PRIO12
000042: 13,6013           66621                           CADR     SOAKINIT
000043:
000044: 13,6014           00000        2.3SPOT            OCT      0                                     #  2.3 RESTART
000045: 13,6015           00000                           OCT      0
000046: 13,6016           12000                           OCT      12000
000047: 13,6017           66412                           CADR     ATTIJOB1   -1
000048:
000049: 13,6020           00000        2.4SPOT            OCT      0                                     #  RESTART 2.4
000050: 13,6021           00000                           OCT      0
000051: 13,6022           12000                           OCT      12000
000052: 13,6023           66404                           CADR     ATTIJOB
000053:
000054: 13,6024           00000 00000  2.5SPOT            2DEC     0          B-28                       #  2.5 RESTART.
000055: 13,6026           00000 00000                     2DEC     0          B-28
000056:
000057:                                                                                                  #  ANY MORE GROUP 2 RESTART VALUES SHOULD GO HERE.
000058:
000059:
000060: 13,6030           77777        3.1SPOT            OCT      77777                                 #  3.1 RESTART.
000061: 13,6031           77777                           OCT      77777
000062: 13,6032           01563                           CADR     TROLL      +1                         #  CONTAINS DT
000063: 13,6033           64066                           CADR     MON1TASK
000064:
000065: 13,6034           77777        3.2SPOT            OCT      77777                                 #  3.2 RESTART
000066: 13,6035           77777                           OCT      77777
000067: 13,6036           01572                           CADR     TTUMON


000069: 13,6037           64250                           CADR     TUMBTSK1
000070:
000071: 13,6040           00000                           OCT      0                                     #  3.3 RESTART
000072: 13,6041           00000                           OCT      0
000073: 13,6042           77777                           OCT      77777
000074: 13,6043           64771                           CADR     REDO3.3
000075:
000076: 13,6044           01274                           DEC      700        B-14                       #  3.4 RESTART.
000077: 13,6045           65110                           CADR     GIMPOWOF
000078: 13,6046           00000                           OCT      0
000079: 13,6047           00000                           OCT      0
000080:
000081: 13,6050           02032                           DEC      1050       B-14                       #  3.5 RESTART
000082: 13,6051           65124                           CADR     DVMODOFF
000083: 13,6052           00000                           OCT      0
000084: 13,6053           00000                           OCT      0
000085:
000086: 13,6054           02063                           DEC      1075       B-14                       #  3.6 RESTART.
000087: 13,6055           65135                           CADR     ATTCONON
000088: 13,6056           00000                           OCT      0
000089: 13,6057           00000                           OCT      0
000090:
000091: 13,6060           00113                           DEC      75         B-14                       #  3.7RESTART
000092: 13,6061           31550                           CADR     CGTASK
000093: 13,6062           00000                           OCT      0
000094: 13,6063           00000                           OCT      0
000095:
000096: 13,6064           00310                           DEC      200        B-14                       #  3.8 RESTART.
000097: 13,6065           65121                           CADR     GMPOFF3
000098: 13,6066           00000                           OCT      0
000099: 13,6067           00000                           OCT      0
000100:
000101: 13,6070           00000                           OCT      0                                     #  3.9 REATART.
000102: 13,6071           00000                           OCT      0
000103: 13,6072           77777                           OCT      77777
000104: 13,6073           65070                           CADR     SETMOD23
000105:
000106: 13,6074           00000                           OCT      0                                     #  3.10 RESTART.
000107: 13,6075           00000                           OCT      0
000108: 13,6076           27000                           OCT      27000
000109: 13,6077           67060                           CADR     SHUTJOB
000110:
000111: 13,6100           00764                           DEC      500        B-14                       #  3.11 RESTART.
000112: 13,6101           67260                           CADR     CDUXTASK                              #  5SECS FROM TBASE3
000113: 13,6102           00000                           OCT      0
000114: 13,6103           00000                           OCT      0
000115:
000116: 13,6104           01750        3.12SPOT           DEC      1000       B-14                       #  3.12 RESTART.
000117: 13,6105           67342                           CADR     CM/SMTSK                              #  10SECS FROM TBASE3
000118: 13,6106           20000                           OCT      20000


000120: 13,6107           67274                           CADR     CDUXJOB
000121:
000122: 13,6110           01750                           DEC      1000       B-14                       #  3.13 RESTART.
000123: 13,6111           67342                           CADR     CM/SMTSK
000124: 13,6112           20000                           OCT      20000
000125: 13,6113           67330                           CADR     REDO3.13
000126:
000127: 13,6114           01750                           DEC      1000       B-14                       #  3.14 RESTART.
000128: 13,6115           67342                           CADR     CM/SMTSK
000129: 13,6116           00000                           OCT      0
000130: 13,6117           00000                           OCT      0
000131:
000132: 13,6120           02734        3.15SPOT           DEC      1500       B-14                       #  3.15 RESTART
000133: 13,6121           67355                           CADR     ENTATASK                              #  15SECS FROM TBASE3
000134: 13,6122           00000                           OCT      0
000135: 13,6123           00000                           OCT      0
000136:
000137: 13,6124           00000        3.16SPOT           OCT      0                                     #  3.16 RESTART.
000138: 13,6125           00000                           OCT      0
000139: 13,6126           15000                           OCT      15000                                 #  PRIO TO REDO HUNTEST.
000140: 13,6127           63515                           CADR     PREHUNT
000141:
000142: 13,6130           00000 00000  3.17SPOT           2DEC     0          B-28                       #  3.17 RESTART.  ...PRELAUNCH...
000143: 13,6132           20000                           OCT      20000
000144: 13,6133           42142                           CADR     REPL11
000145:
000146: 13,6134           00000 00000                     2DEC     0          B-28                       #  3.18 RESTART.  ...PRELAUNCH...
000147: 13,6136           20000                           OCT      20000
000148: 13,6137           42151                           CADR     REPL12
000149:
000150: 13,6140           00000 00000                     2DEC     0          B-28                       #  3.19 RESTART  ...PRELAUNCH...
000151: 13,6142           20000                           OCT      20000
000152: 13,6143           42266                           CADR     REDO3.21
000153:
000154: 13,6144           00000 00000                     2DEC     0          B-28                       #  3.20 RESTART.  ...PRELAUNCH...
000155: 13,6146           77777                           OCT      77777
000156: 13,6147           42216                           CADR     REDO3.20
000157:
000158: 13,6150           00062                           DEC      50         B-14                       #  3.21 RESTART.  ...PRELAUNCH...
000159: 13,6151           42262                           CADR     REPRELAL
000160: 13,6152           21000                           OCT      21000
000161: 13,6153           42266                           CADR     REDO3.21
000162:
000163: 13,6154           00062                           DEC      50         B-14                       #  3.22 RESTART.  ...PRELAUNCH
000164: 13,6155           42262                           CADR     REPRELAL
000165: 13,6156           00000 00000                     2DEC     0.0


000167:
000168: 13,6160           00310        3.23SPOT           DEC      200        B-14                       #  3.23 RESTART
000169: 13,6161           67166                           CADR     GMPOFF2
000170: 13,6162           00000 00000                     2DEC     0.0
000171:
000172: 13,6164           00536        3.24SPOT           DEC      350        B-14                       #  3.24 RESTART
000173: 13,6165           67177                           CADR     DVMODOF2
000174: 13,6166           00000 00000                     2DEC     0.0
000175:
000176: 13,6170           01046                           DEC      550        B-14                       #  3.25 RESTART
000177: 13,6171           67177                           CADR     DVMODOF2
000178: 13,6172           00000 00000                     2DEC     0.0
000179:                                                                                                  #   ANY MORE GROUP 3 RESTART VALUES SHOULD GO HERE.
000180: 13,6174           00000 00000                     2DEC     0.0                                   #  3.26 RESTART
000181: 13,6176           05000                           OCT      05000
000182: 13,6177           64074                           CADR     MONITJOB
000183:
000184: 13,6200           00000 00000                     2DEC     0.0                                   #  3.27 RESTART
000185: 13,6202           77777                           OCT      77777
000186: 13,6203           64250                           CADR     TUMBTSK1
000187:
000188:                                                                                                  #        ANY MORE GROUP 3 RESTARTS GO IN HERE
000189:
000190: 13,6204           00000        4.1SPOT            OCT      0                                     #  4.1 RESTART.
000191: 13,6205           00000                           OCT      0
000192: 13,6206           34000                           OCT      34000                                 #  HIGH PRIO.  (WATCH THIS.)
000193: 13,6207           66202                           CADR     REDO4.1
000194:
000195: 13,6210           77777        4.2SPOT            OCT      77777                                 #  4.2 RESTART.
000196: 13,6211           77777                           OCT      77777
000197: 13,6212           01461                           CADR     LONGTIME   +1
000198: 13,6213           64710                           CADR     ENGINOFF
000199:
000200: 13,6214           02032        4.3SPOT            DEC      1050       B-14                       #  4.3 RESTART.
000201: 13,6215           50114                           CADR     COASTPHS
000202: 13,6216           77777                           OCT      77777
000203: 13,6217           65022                           CADR     REDO4.3
000204:
000205: 13,6220           77776 45317  4.4SPOT            2DEC     -30000     B-28                       #  4.4 RESTART
000206: 13,6222           00000 00000                     2DEC     0          B-28
000207:
000208: 13,6224           34430                           DEC      14616      B-14                       #  4.5 RESTART  (DT = 146.16 SEC
000209: 13,6225           50154                           CADR     FDAOFTSK                              #     (310 - 163.84 SEC.)
000210: 13,6226           00000 00000                     2DEC     0          B-28
000211:
000212: 13,6230           77777                           OCT      77777                                 #  4.6 RESTART
000213: 13,6231           01556                           CADR     TCOAST                                #  TCOAST = TIME FORM CUTOFF TO UPTASK.


000215: 13,6232           00000 00000                     2DEC     0          B-28
000216:
000217: 13,6234           00000                           OCT      0                                     #  4.7 RESTART
000218: 13,6235           00000                           OCT      0
000219: 13,6236           77777                           OCT      77777
000220: 13,6237           50201                           CADR     UPTASK
000221:
000222: 13,6240           26354                           DEC      11500      B-14                       #  4.8 RESTART
000223: 13,6241           50335                           CADR     PREAVGON
000224: 13,6242           06000                           OCT      06000
000225: 13,6243           50225                           CADR     UPJOB
000226:
000227: 13,6244           26354                           DEC      11500      B-14                       #  4.9 RESTART
000228: 13,6245           50335                           CADR     PREAVGON
000229: 13,6246           06000                           OCT      06000
000230: 13,6247           50322                           CADR     REDO4.9
000231:
000232: 13,6250           01130                           DEC      600        B-14                       #  4.10 RESTART
000233: 13,6251           64511                           CADR     GIMPOWON
000234: 13,6252           77777                           OCT      77777
000235: 13,6253           65045                           CADR     REDO4.10
000236:
000237: 13,6254           00310                           DEC      200        B-14                       #  4.11 RESTART.
000238: 13,6255           64025                           CADR     TARGTASK
000239: 13,6256           00000 00000                     2DEC     0          B-28
000240:
000241: 13,6260           00252                           DEC      170        B-14                       #  4.12 RESTART.
000242: 13,6261           64374                           CADR     ABRTWAIT                              #   IN 1.7 SEC.
000243: 13,6262           25000                           OCT      25000
000244: 13,6263           64363                           CADR     SETS4SEP
000245:
000246: 13,6264           23336                           DEC      9950       B-14                       #  4.13 RESTART
000247: 13,6265           64527                           CADR     ATTCNOFF                              #  IN 95.5 SEC.
000248: 13,6266           77777                           OCT      77777
000249: 13,6267           64761                           CADR     REDO4.13
000250:
000251: 13,6270           01130        4.14SPOT           DEC      600        B-14                       #  4.14 RESTART.
000252: 13,6271           64511                           CADR     GIMPOWON
000253: 13,6272           77777                           OCT      77777
000254: 13,6273           65062                           CADR     REDO4.14
000255:
000256: 13,6274           00372                           DEC      250        B-14                       #  4.15 RESTART.
000257: 13,6275           64527                           CADR     ATTCNOFF                              #  IN 2.5 SEC
000258: 13,6276           25000                           OCT      25000
000259: 13,6277           64474                           CADR     ABORTRPT   -3                         #   WATCH THIS LOC.
000260:
000261: 13,6300           01046                           DEC      550        B-14                       #  4.16 RESTART
000262: 13,6301           64527                           CADR     ATTCNOFF
000263: 13,6302           25000                           OCT      25000
000264: 13,6303           64440                           CADR     REDO4.16
000265:


000267:
000268: 13,6304           25060                           DEC      10800      B-14                       #  4.17 RESTART
000269: 13,6305           64511                           CADR     GIMPOWON
000270: 13,6306           00000 00000                     2DEC     0          B-28
000271:
000272: 13,6310           00000 00000                     2DEC     0          B-28                       #  4.18 RESTART.
000273: 13,6312           77777                           OCT      77777
000274: 13,6313           64527                           CADR     ATTCNOFF
000275:
000276: 13,6314           00031                           DEC      25         B-14                       #  4.19 RESTART.
000277: 13,6315           64545                           CADR     DVMODEON
000278: 13,6316           00000 00000                     2DEC     0          B-28
000279:
000280: 13,6320           00062                           DEC      50         B-14                       #  4.20 RESTART.
000281: 13,6321           64562                           CADR     ENGINEON
000282: 13,6322           00000 00000                     2DEC     0          B-28
000283:
000284: 13,6324           01750        4.21SPOT           DEC      1000       B-14                       #  4.21 RESTART
000285: 13,6325           64663                           CADR     PLUSXOFF
000286: 13,6326           25000                           OCT      25000
000287: 13,6327           64423                           CADR     REDO4.21
000288:
000289: 13,6330           00000 00000                     2DEC     0          B-28                       #  4.22 RESTART.
000290: 13,6332           77777                           OCT      77777
000291: 13,6333           64654                           CADR     REDO4.22
000292:
000293: 13,6334           00536                           DEC      350        B-14                       #  4.23 RESTART
000294: 13,6335           64710                           CADR     ENGINOFF
000295: 13,6336           77777                           OCT      77777
000296: 13,6337           64633                           CADR     STEEROFF
000297:
000298: 13,6340           00000 00000                     2DEC     0          B-28                       #  4.24 RESTART.
000299: 13,6342           77777                           OCT      77777
000300: 13,6343           64511                           CADR     GIMPOWON
000301:
000302: 13,6344           02176                           DEC      1150       B-14                       #  4.25 RESTART
000303: 13,6345           64527                           CADR     ATTCNOFF
000304: 13,6346           00000 00000                     2DEC     0          B-28
000305:
000306: 13,6350           00000 00000  4.26SPOT           2DEC     0          B-28                       #  4.26 RESTSRT.
000307: 13,6352           12000                           OCT      12000                                 #  LOWERED.
000308: 13,6353           57101                           CADR     UPTHETA1
000309:
000310: 13,6354           27340        4.27SPOT           DEC      12000      B-14                       #  4.27 RESTART
000311: 13,6355           50357                           CADR     AVGON                                 #  120 SEC FROM UPTASK.
000312: 13,6356           00000 00000                     2DEC     0          B-28
000313:


000315:
000316: 13,6360           00000 00000  4.28SPOT           2DEC     0          B-28                       #  4.28 RESTART SAVES ENGIN OFF SEQUENCE
000317: 13,6362           77777                           OCT      77777                                 #  WHILE TBASE4 UPDATED
000318: 13,6363           64774                           CADR     SPS1TEST
000319:
000320: 13,6364           26354        4.29SPOT           DEC      11500      B-14                       #  4.29 RESTART
000321: 13,6365           50335                           CADR     PREAVGON
000322: 13,6366           06000                           OCT      06000
000323: 13,6367           50263                           CADR     REDO4.29
000324:
000325: 13,6370           21450        4.30SPOT           DEC      9000       B-14                       #  4.30 RESTART
000326: 13,6371           50463                           CADR     PLUSX2
000327: 13,6372           00000 00000                     2DEC     0.0
000328:
000329: 13,6374           00000 00000  4.31SPOT           2DEC     0.0                                   #  4.31 RESTART
000330: 13,6376           77777                           OCT      77777
000331: 13,6377           64062                           CADR     REDO4.31
000332:
000333: 13,6400           00000 00000  4.32SPOT           2DEC     0.0                                   #  4.32 RESTART
000334: 13,6402           77777                           OCT      77777
000335: 13,6403           64054                           CADR     REDO4.32
000336:
000337: 13,6404           00000 00000  4.33SPOT           2DEC     0.0                                   #  4.33 RESTART
000338: 13,6406           77777                           OCT      77777
000339: 13,6407           64710                           CADR     ENGINOFF
000340:
000341:                                                                                                  #   ANY MORE GROUP 4 RESTART VALUES SHOULD GO HERE.
000342:
000343: 13,6410           00310        5.1SPOT            DEC      200        B-14                       #  5.1 RESTART
000344: 13,6411           65226                           CADR     REREADAC
000345: 13,6412           00000 00000                     2DEC     0          B-28
000346:
000347: 13,6414           00000 00000  5.2SPOT            2DEC     0          B-28
000348: 13,6416           77777                           OCT      77777
000349: 13,6417           65157                           CADR     REDO5.2
000350:
000351: 13,6420           00310                           DEC      200        B-14                       #  5.3 RESTART
000352: 13,6421           65226                           CADR     REREADAC
000353: 13,6422           17000                           OCT      17000
000354: 13,6423           65276                           CADR     REDO5.3
000355:
000356: 13,6424           00310                           DEC      200        B-14                       #  5.4 RESTART
000357: 13,6425           65226                           CADR     REREADAC
000358: 13,6426           17000                           OCT      17000
000359: 13,6427           61620                           CADR     REFAZE6
000360:


000362:
000363: 13,6430           00310                           DEC      200        B-14                       #  5.5 RESTART.
000364: 13,6431           65226                           CADR     REREADAC
000365: 13,6432           17000                           OCT      17000
000366: 13,6433           66014                           CADR     REDO5.5
000367:
000368: 13,6434           00310                           DEC      200        B-14                       #  5.6 RESTART
000369: 13,6435           65226                           CADR     REREADAC
000370: 13,6436           35000                           OCT      35000
000371: 13,6437           50477                           CADR     MODE26
000372:
000373: 13,6440           00000 00000  5.7SPOT            2DEC     0          B-28                       #  5.7 RESTART
000374: 13,6442           77777                           OCT      77777
000375: 13,6443           66676                           CADR     REDO5.7
000376:
000377: 13,6444           00310                           DEC      200        B-14                       #  5.8 RESTART
000378: 13,6445           66666                           CADR     SOAKTSK1
000379: 13,6446           14000                           OCT      14000
000380: 13,6447           66713                           CADR     SOAKJOB
000381:
000382: 13,6450           00310                           DEC      200        B-14                       #  5.9 RESTART.
000383: 13,6451           66666                           CADR     SOAKTSK1
000384: 13,6452           13000                           OCT      13000
000385: 13,6453           61620                           CADR     REFAZE6
000386:
000387: 13,6454           00000 00000                     2DEC     0          B-28                       #  5.10 RESTART.
000388: 13,6456           12000                           OCT      12000
000389: 13,6457           66734                           CADR     REDO5.10
000390:
000391: 13,6460           00310                           DEC      200        B-14                       #  5.11 RESTART
000392: 13,6461           66666                           CADR     SOAKTSK1
000393: 13,6462           00000 00000                     2DEC     0          B-28
000394:
000395: 13,6464           00310        5.12SPOT           DEC      200        B-14                       #  5.12 RESTART.
000396: 13,6465           56001                           CADR     REPIPUP
000397: 13,6466           00000 00000                     2DEC     0          B-28
000398:
000399: 13,6470           00000 00000                     2DEC     0          B-28                       #  5.13 RESTART.
000400: 13,6472           77777                           OCT      77777
000401: 13,6473           56011                           CADR     REDO5.13
000402:
000403: 13,6474           00310                           DEC      200        B-14
000404: 13,6475           56001                           CADR     REPIPUP
000405: 13,6476           17000                           OCT      17000
000406: 13,6477           56036                           CADR     ENTRYTOP   +3
000407:
000408: 13,6500           00310                           DEC      200        B-14                       #  5.15 RESTART.
000409: 13,6501           56001                           CADR     REPIPUP


000411: 13,6502           17000                           OCT      17000
000412: 13,6503           56052                           CADR     REFAZE4
000413:
000414: 13,6504           00310                           DEC      200        B-14                       #  5.16
000415: 13,6505           56001                           CADR     REPIPUP
000416: 13,6506           16000                           OCT      16000
000417: 13,6507           61620                           CADR     REFAZE6
000418:
000419: 13,6510           00310                           DEC      200        B-14                       #  5.17 RESTART.
000420: 13,6511           56001                           CADR     REPIPUP
000421: 13,6512           17000                           OCT      17000
000422: 13,6513           56057                           CADR     REFAZE8
000423:
000424: 13,6514           00310        5.18SPOT           DEC      200        B-14                       #  5.18 RESTART
000425: 13,6515           56001                           CADR     REPIPUP
000426: 13,6516           17000                           OCT      17000
000427: 13,6517           56174                           CADR     REFAZE10
000428:
000429: 13,6520           00310        5.19SPOT           DEC      200        B-14                       #  5.19 RESTART.  (PIPUP IN 2 SEC.)
000430: 13,6521           56001                           CADR     REPIPUP
000431: 13,6522           17000                           OCT      17000
000432: 13,6523           61441                           CADR     NUMODE63                              #  SETS MODE 63 AND FINISHES ENTRY INITIAL.
000433:
000434: 13,6524           00000 00000  5.20SPOT           2DEC     0.0                                   #  5.20 RESTART FOR VERB 76
000435: 13,6526           34000                           OCT      34000
000436: 13,6527           13150                           CADR     REDO5.20
000437:
000438: 13,6530           00000        5.21SPOT           DEC      0.                                    #  5.21 RESTART IS SPARE
000439: 13,6531           26531                           CADR     26531
000440: 13,6532           00000                           OCT      0
000441: 13,6533           26533                           CADR     26533
000442:
000443: 13,6534           00000        5.22SPOT           DEC      0.                                    #  5.22 RESTART IS SPARE
000444: 13,6535           26535                           CADR     26535
000445: 13,6536           00000                           OCT      0
000446: 13,6537           26537                           CADR     26537
000447:
000448: 13,6540           00310        5.23SPOT           DEC      200        B-14                       #  5.23 RESTART
000449: 13,6541           65226                           CADR     REREADAC
000450: 13,6542           17000                           OCT      17000
000451: 13,6543           65551                           CADR     REDO5.23
000452:
000453: 13,6544           00310                           DEC      200        B-14                       #  REDO POINT AFTER AVG STATE VECTOR UPDATE
000454: 13,6545           65226                           CADR     REREADAC
000455: 13,6546           17000                           OCT      17000
000456: 13,6547           55744                           CADR     REDO5.24
000457:
000458: 13,6550           00310                           DEC      200        B-14
000459: 13,6551           65226                           CADR     REREADAC


000461: 13,6552           17000                           OCT      17000
000462: 13,6553           61620                           CADR     REFAZE6
000463:
000464:                                                                                                  #        ANY MORE GROUP 5 RESTARTS GO HERE.
000465:
000466:
000467: 13,6554           00000        6.1SPOT            DEC      0          B-14                       #  6.1 RESTART  (UNDEFINED)
000468:
000469:
000470:
000471:
000472:                                                                                                  #    ANY MORE GROUP 6 RESTART VALUES SHOULD GO HERE.
000473:
000474:
000475:
000476:
000477: 13,6555           00000        SIZETAB            DEC      0          B-14                       #  0 INCREMENT FOR GROUP 1.
000478: 13,6556           00000                           TC       2.1SPOT    -26004                     #  INCREMENT TO INDEX GROUP 2 TABLE
000479: 13,6557           00024                           TC       3.1SPOT    -26004                     #  INCREMENT TO INDEX GROUP 3
000480: 13,6560           00200                           TC       4.1SPOT    -26004                     #  INCREMENT TO INDEX GROUP 4 TABLE.
000481: 13,6561           00404                           TC       5.1SPOT    -26004                     #  INCREMENT TO INDEX GROUP 5 TABLE.
000482: 13,6562           00550                           TC       6.1SPOT    -26004                     #  INCREMENT TO INDEX GROUP 6 TABLE.
000483:


000485:
000486:                                                                                                  #    GENERALIZED RESTART ROUTINE.
000487:
000488:
000489:
000490:                                                                                                  #  FOR EACH FAZEBIT VALUE , THE ASUMPTION IS MADE THAT THERE MAY EXIST
000491:                                                                                                  #   ONE WAITLIST OR LONGCALL TASK TO BE RECALLED.  AND ONE CURRENT TASK OR
000492:                                                                                                  #   JOB TO BE RESTARTED.  (SPECIAL RESTARTS ARE POSSIBLE FOR SITUATIONS
000493:                                                                                                  #   WHICH DONOT FIT THE GENERAL FORM.)  FOR THE GENERAL CASE,  FOUR TABLES
000494:                                                                                                  #   ARE USED.
000495:                                                                                                  #        (RATHER,  ONE TABLE WITH 4 ENTRIES PER FAZEBIT VALUE.)
000496:                                                                                                  #                1.  WTDTTAB.  WAITLIST DT TABLE.
000497:                                                                                                  #                2.  WCADRTAB  WAITLIST CADR TABLE.
000498:                                                                                                  #                3.  PRIOTAB  CURRENT JOB PRIORITY. (NEG NUMB IF TASK.)
000499:                                                                                                  #                4.  CADRTAB  CURRENT JOB (OR TASK) RESTART LOCATION.
000500:                                                                                                  #   IN ADDITION, THERE EXISTS A SIZE TABLE THAT LISTS THE NUMBER OF
000501:                                                                                                  #   LOCATIONS USED BY EACH PROFRAM FOR RESTARTS.
000502:                                                                                                  #                ...MORE TO COME LATER...                (DJL)
000503:
000504:
000505:
000506: 13,6563           30115        RESTARTS           XCH      MPAC                                  #  FAZE BITS FOR THIS PROG IN MPAC.
000507: 13,6564           60000                           DOUBLE
000508: 13,6565           60000                           DOUBLE                                         #  MULTILY BY 4.  (4 ITEMS PER ENTRY.)
000509: 13,6566           20120                           INDEX    LOC                                   #  LOC CONTAINS THE PROGRAM NUMBER-1. (0-5)
000510: 13,6567           66555                           AD       SIZETAB
000511: 13,6570           50115                           TS       POINTER
000512: 13,6571           36607                           CAF      TCURRENT
000513: 13,6572           50123                           TS       GOLOC      +1                         #  EXIT LOCATION.
000514: 13,6573           33224                           CAF      TCWAIT                                #  SET A WAITLIST CALL IN ERASABLE.
000515: 13,6574           50121                           TS       GOLOC      -1
000516:
000517: 13,6575           20115                           INDEX    POINTER
000518: 13,6576           36000                           CAF      WTDTTAB
000519: 13,6577           10000                           CCS      A
000520: 13,6600           06636                           TC       WTCALL                                #  +N = WAITLIST CALL
000521: 13,6601           06676                           TC       CURNTJOB                              #  +0 = NO CALL
000522: 13,6602           06613                           TC       LONGCLER                              #  -N = LONGCALL
000523: 13,6603           20115                           INDEX    POINTER                               #  -0 = INDIRECT (PROBABLY)
000524: 13,6604           36001                           CAF      WCADRTAB
000525: 13,6605           10000                           CCS      A
000526: 13,6606           06625                           TC       INDIRECT
000527: 13,6607           06676        TCURRENT           TC       CURNTJOB                              #  NO ZERO CALLS
000528: 13,6610           06612                           TC       LONGCLER   -1                         #  NEG OF TIME FOR SHORT LONG.
000529: 13,6611           06664                           TC       SINDIR
000530:
000531: 13,6612           44516                           CS       ONE
000532: 13,6613           64516        LONGCLER           AD       ONE                                   #  RESTORE LONGTIME
000533: 13,6614           50116                           TS       RECALL
000534: 13,6615           20115                           INDEX    POINTER
000535: 13,6616           46001                           CS       WCADRTAB                              #  STORED NEGATIVELY.


000537: 13,6617           50117                           TS       RECALL     +1
000538: 13,6620           05742                           TC       IBNKCALL
000539: 13,6621           26724                           CADR     NULONGDT
000540: 13,6622           05742                           TC       IBNKCALL
000541: 13,6623           10552                           CADR     LONGCALL
000542: 13,6624           06676                           TC       CURNTJOB
000543:
000544:
000545:
000546:                                                                                                  #
000547:
000548:
000549:
000550:                                                                                                  #   INDIRECT SECTION TAKES THE DP TIME FRON THE ERASABLE LOCATIONS BY THE
000551:                                                                                                  #      NUMBER IN THE WCADRTAB.    (WTDTTAB = -0.)
000552:
000553: 13,6625           50117        INDIRECT           TS       ECADTEM                               #  CADR-1 IS STORED.  (DUE TO CCS.)
000554: 13,6626           20000                           INDEX    A
000555: 13,6627           40001                           CS       1                                     #  (1 NOT 0 BECAUSE CADR OFF BY 1.)
000556: 13,6630           40000                           COM                                            #  (NOT NEEDED IF NEG TIME STROED.USAGE..)
000557: 13,6631           50116                           TS       RECALL                                #  AND STORE MAJOR PART.
000558: 13,6632           20117                           INDEX    ECADTEM
000559: 13,6633           40002                           CS       2                                     #  AGAIN ONE MORE THAN USUAL.
000560: 13,6634           40000                           COM
000561: 13,6635           06617                           TC       LONGCLER   +4                         #  STORE MINOR PART THERE
000562:
000563:
000564:
000565:                                                                                                  #  ASSIGNMENTS ETC.
000566:
000567: 13,6636     0122               GOLOC              EQUALS   OVFIND                                #  USES ONE LOCATION ON EACH SIDE OF IT.
000568: 13,6636     0117               TEMDT              EQUALS   MPAC       +2
000569: 13,6636     0116               RECALL             EQUALS   MPAC       +1                         #  MUNTZ NOW USINF LOC IN RESTART CONTROL.
000570: 13,6636     0117               ECADTEM            EQUALS   RECALL     +1                         #  LOOKS OK.
000571: 13,6636     0115               POINTER            EQUALS   MPAC
000572:                                                                                                  #    MPAC + 1 SAVED BECAUSE OF USE IN RESTART CONTROL.  (CCS MPAC + 1)
000573:
000574:                                                                                                  #     THIS ROUTINE LEAVES THE WITLIST CALL AS GIVEN BY WCADRTAB.
000575:
000576: 13,6636           64516        WTCALL             AD       ONE                                   #  DT-1 IN A ON ENTRY.  (FROM CCS.)
000577: 13,6637           40000                           COM                                            #  STORE NEGATIVE OF DT IN TEMDT.
000578: 13,6640           50117                           TS       TEMDT
000579: 13,6641           20115                           INDEX    POINTER
000580: 13,6642           36001                           CAF      WCADRTAB                              #  PICK UP CADR FOR THIS CALL.
000581: 13,6643           50122                           TS       GOLOC                                 #  GOLOC+1 AND -1 ALREADY SET-UP.
000582:
000583: 13,6644           20120        WTCALL2            INDEX    LOC                                   #  FIRST GET TBASE - TIME1
000584: 13,6645           40663                           CS       TBASE2     -1                         #  TBASE STORED NEGATIVELY
000585: 13,6646           25777                           EXTEND
000586: 13,6647           60036                           SU       TIME1                                 #  TBASE - TIME1


000588: 13,6650           10000                           CCS      A                                     #  THIS SHOULD BE NEGATIVE IF ALL OK.
000589: 13,6651           40000                           COM                                            #  GET POSMAX - A.
000590: 13,6652           66663                           AD       OCT37776                              #  1 BIT SHY OF POSMAX.
000591: 13,6653           64516                           AD       ONE                                   #  RESTORE BIT LOST BY CCS.
000592: 13,6654           60117                           AD       TEMDT                                 #  TIME1 - TBASE -DT  NOW IN A.
000593: 13,6655           10000                           CCS      A                                     #  TEST IT.  SHOULD BE NEGATIVE.
000594: 13,6656           35501                           CAF      ZERO                                  #  EXCEEDED TIME.  BAD,BAD...
000595: 13,6657           06661                           TC       +2                                    #  (+0 JUST POSSIBLE.)
000596: 13,6660           06661                           TC       +1                                    #  YES, EVERYTHING OK.
000597: 13,6661           64516                           AD       ONE                                   #  NOW IS THE TIME.
000598: 13,6662           00121                           TC       GOLOC      -1
000599:
000600:
000601:
000602: 13,6663           37776        OCT37776           OCT      37776                                 #  POSMAX - 1
000603:
000604:
000605:
000606: 13,6664           36707        SINDIR             CAF      TCSWRET
000607: 13,6665           50123                           TS       GOLOC      +1
000608: 13,6666           20115                           INDEX    POINTER
000609: 13,6667           36003                           CAF      CADRTAB                               #  PICK UP CADR TO GO TO.
000610: 13,6670           50122                           TS       GOLOC
000611:
000612: 13,6671           20115                           INDEX    POINTER
000613: 13,6672           26002                           INDEX    PRIOTAB                               #  IT POINTS ATTHE ERASABLE LOCATION OF DT
000614: 13,6673           40000                           CS       0                                     #  NEG OF DT IN A.
000615: 13,6674           50117                           TS       TEMDT
000616: 13,6675           06644                           TC       WTCALL2                               #  JOIN THERE TO RECOMPUTE TIME REMAINING.
000617:


000619:
000620:                                                                                                  #   GETS CURRENT JOB (OR TASK) RERUNNING.
000621:
000622: 13,6676           20115        CURNTJOB           INDEX    POINTER
000623: 13,6677           36003                           CAF      CADRTAB
000624: 13,6700           50122                           TS       GOLOC                                 #  PUT ADDRESS THERE (CADR)
000625: 13,6701           36707                           CAF      TCSWRET
000626: 13,6702           50123                           TS       GOLOC      +1                         #  WHERE TO WHEN DONE.
000627: 13,6703           20115                           INDEX    POINTER
000628: 13,6704           36002                           CAF      PRIOTAB                               #  PRIORITY TABLE.
000629: 13,6705           10000                           CCS      A                                     #  TEST IT.
000630: 13,6706           06713                           TC       ITSAPRIO                              #  +N = PRIORITY.
000631: 13,6707           05702        TCSWRET            TC       SWRETURN                              #  +0 = NO JOB OR TASK.
000632: 13,6710           06720                           TC       SHINDIRT                              #  -N = SHORT INDIRECT FORM.
000633: 13,6711           64516                           AD       ONE                                   #  -0 = IMMEDIATE WAITLIST CALL.
000634: 13,6712           00121                           TC       GOLOC      -1                         #  -0 WILL CRASH OUT HERE...
000635:
000636: 13,6713           64516        ITSAPRIO           AD       ONE                                   #  RESTORE CORRECT PRIORITY VALUE.
000637: 13,6714           50121                           TS       GOLOC      -1                         #  SAVE THERE TEMPORARILY.
000638: 13,6715           33226                           CAF      TCFINDVC                              #  N3 RPOVISION FOR NOVAC.
000639: 13,6716           30121                           XCH      GOLOC      -1                         #  PICKING UP PRIORITY AGAIN.
000640: 13,6717           00121                           TC       GOLOC      -1                         #  AND GET THE JOB STARTED. (EXIT VIA SWRET
000641:
000642:
000643:
000644:                                                                                                  #    SHORT INDIRECT SECTION IS NOT USED AS YET.
000645:
000646: 13,6720           20000        SHINDIRT           INDEX    A
000647: 13,6721           40001                           CS       1                                     #  CCS DECREASED ADDRESS BY 1 OF DT LOC.
000648: 13,6722           50117                           TS       TEMDT
000649: 13,6723           06644                           TC       WTCALL2                               #  -DT IN A WHEN REJOINING WTCALL.
000650:
000651:
000652:
000653:                                                                                                  #   TBASE REGISTERS CONTAIN NEGATIVE OF TIME AT START OF SEQUENCE.
000654:
000655:                                                                                                  #   ROUTINE TO GENERATE  NEW DELTA T (LONGTIME) FOR LONGCALL.
000656:
000657: 13,6724           02677        NULONGDT           TC       READTIME   +1                         #  GET TIME.  (ALREADY INHIBITTED.)
000658: 13,6725           35501                           CAF      ZERO
000659: 13,6726           61463                           AD       TCUTOFF    +1                         #   (POSITIVE NUMBER)
000660: 13,6727           60573                           AD       RUPTSTOR   +1                         #  (NEGATIVE NUMBER)
000661: 13,6730           60117                           AD       RECALL     +1
000662: 13,6731           51461                           TS       LONGTIME   +1                         #  (COULD OVERFLOW)
000663: 13,6732           35501                           CAF      ZERO
000664: 13,6733           61462                           AD       TCUTOFF
000665: 13,6734           60572                           AD       RUPTSTOR
000666: 13,6735           60116                           AD       RECALL
000667: 13,6736           31460                           XCH      LONGTIME                              #  NO OVERFLOW.
000668: 13,6737           11460                           CCS      LONGTIME                              #  TEST FOR POSITIVE DT.
000669: 13,6740           05761                           TC       ISWRETRN                              #  (DONT HAVE TO USE ICALLS IF SAME BANK.)


000671: 13,6741           06743                           TC       +2
000672: 13,6742           06746                           TC       BADLONG
000673: 13,6743           11461                           CCS      LONGTIME   +1
000674: 13,6744           05761                           TC       ISWRETRN
000675: 13,6745           06746                           TC       +1
000676: 13,6746           35501        BADLONG            CAF      ZERO
000677: 13,6747           51460                           TS       LONGTIME
000678: 13,6750           34516                           CAF      ONE                                   #  LEAVE A CALL FOR 1 DT.
000679: 13,6751           51461                           TS       LONGTIME   +1
000680: 13,6752           05761                           TC       ISWRETRN                              #  ...AND EXIT.
000681:                                                                                                  #     THIS COULD BE MODIFIED EASILY TO CHANGE BAD DT POLICY.

End of include-file 501_RESTART_TABLES_AND_ROUTINES.agc.  Parent file is MAIN.agc


