
Source Code


000002:                                                                                                  ## Copyright:   Public domain.
000003:                                                                                                  ## Filename:    501_MISSION_CONTROL_PROGRAM.agc
000004:                                                                                                  ## Purpose:     Part of the source code for Solarium build 55. This
000005:                                                                                                  ##              is for the Command Module's (CM) Apollo Guidance
000006:                                                                                                  ##              Computer (AGC), for Apollo 6.
000007:                                                                                                  ## Assembler:   yaYUL --block1
000008:                                                                                                  ## Contact:     Jim Lawton <jim DOT lawton AT gmail DOT com>
000009:                                                                                                  ## Website:     www.ibiblio.org/apollo/index.html
000010:                                                                                                  ## Page Scans:  www.ibiblio.org/apollo/ScansForConversion/Solarium055/
000011:                                                                                                  ## Mod history: 2009-09-26 JL   Created.
000012:                                                                                                  ##              2016-08-20 RSB  Typos.
000013:                                                                                                  ##              2016-12-28 RSB  Proofed comment text using octopus/ProoferComments,
000014:                                                                                                  ##                              and fixed errors found.
000015:


000017:
000018: 32,6000                                           SETLOC   64000
000019: 32,6000           20017        LIFTOFF            INHINT
000020: 32,6001           02677                           TC       READTIME   +1                         #  SAVE TIME OF LIFTOFF
000021: 32,6002           40572                           CS       RUPTSTOR
000022: 32,6003           51462                           TS       TLIFTOFF
000023: 32,6004           40573                           CS       RUPTSTOR   +1
000024: 32,6005           51463                           TS       TLIFTOFF   +1
000025:
000026: 32,6006           40000                           COM
000027: 32,6007           50666                           TS       TBASE4
000028:
000029: 32,6010           33533        CALL4.11           CAF      ELEVEN
000030: 32,6011           02312                           TC       NEWPHASE
000031: 32,6012           00004                           OCT      00004
000032:
000033: 32,6013           10000                           CCS      A
000034: 32,6014           06022                           TC       SETLIFT
000035: 32,6015           06022                           TC       SETLIFT
000036:
000037: 32,6016           20017                           INHINT
000038: 32,6017           37567                           CAF      2SEC                                  #  ALLOW 2 SECS FOR BACK-UP GRR COMPUTATION
000039: 32,6020           02173                           TC       WAITLIST
000040: 32,6021           64025                           CADR     TARGTASK
000041:
000042: 32,6022           03416        SETLIFT            TC       FLAG1UP
000043: 32,6023           00002                           OCT      00002
000044:
000045: 32,6024           03151                           TC       JAMTERM                               #  FLUSH V75 GRR BACKUP.
000046:
000047: 32,6025           33557        TARGTASK           CAF      THIRTY1
000048: 32,6026           02312                           TC       NEWPHASE
000049: 32,6027           00004                           OCT      00004
000050:
000051: 32,6030           35501                           CAF      ZERO
000052: 32,6031           50665                           TS       TBASE3
000053:
000054: 32,6032           34516                           CAF      ONE
000055: 32,6033           02312                           TC       NEWPHASE
000056: 32,6034           00003                           OCT      00003
000057:
000058: 32,6035           35501                           CAF      ZERO                                  #  FIX UP TBASE5 FOR READACCS RESTART AND
000059: 32,6036           60667                           AD       TBASE5                                #    LOAD 2 SECS INTO TIME COUNTERS (I.E.
000060: 32,6037           61463                           AD       TLIFTOFF   +1                         #    ZERO THE AGC CLOCK AT LIFT-OFF)
000061: 32,6040           64520                           AD       NEG1/2
000062: 32,6041           64520                           AD       NEG1/2
000063: 32,6042           30667                           XCH      TBASE5
000064:
000065: 32,6043           33565                           CAF      200DEC
000066: 32,6044           50036                           TS       TIME1
000067:
000068: 32,6045           33560                           CAF      THIRTY2


000070: 32,6046           02312                           TC       NEWPHASE
000071: 32,6047           00004                           OCT      00004
000072:
000073: 32,6050           43565                           CS       200DEC                                #  CALL ON BOOST MONITOR
000074: 32,6051           61563                           AD       TROLL      +1
000075: 32,6052           02173                           TC       WAITLIST
000076: 32,6053           64066                           CADR     MON1TASK
000077:
000078: 32,6054           32146        REDO4.32           CAF      PRIO12
000079: 32,6055           02046                           TC       FINDVAC
000080: 32,6056           50000                           CADR     TARGJOB
000081:
000082: 32,6057           35501                           CAF      ZERO                                  #  FINALLY ZERO TIME2
000083: 32,6060           50035                           TS       TIME2
000084:
000085: 32,6061           02256                           TC       TASKOVER
000086:
000087: 32,6062           32170        REDO4.31           CAF      PRIO35
000088: 32,6063           02052                           TC       NOVAC
000089: 32,6064           11147                           CADR     ENEMA
000090:
000091: 32,6065           06030                           TC       TARGTASK   +3
000092:
000093:
000094:
000095: 24,6000                                           BANK     24
000096:
000097: 24,6000           05654        TARGJOB            TC       BANKCALL                              #  COMMAND IMUCDU TO ATT. CONTROL MODE
000098: 24,6001           30223                           CADR     IMUATTC
000099:
000100: 24,6002           02362                           TC       NEWMODE                               #  SET MAJOR MODE TO BOOST ATTITUDE MONITOR
000101: 24,6003           00011                           OCT      00011
000102:
000103: 24,6004           03516                           TC       SETHETAD                              #  FORCE THETAD,+1,+2 TO EQUAL CDUX,Y,Z
000104:
000105: 24,6005           04000                           TC       INTPRET
000106:
000107: 24,6006           66776                           DSU      0                                     #  TARGET VECTORS INITIALLY REFERENCED TO
000108: 24,6007           01463                                    TLIFTOFF                              #  GRR. WILL NOW UPDATE THEM TO LIFT-OFF
000109: 24,6010           01467                                    TIME2GR
000110: 24,6011           33145                           STORE    DTEAROT
000111:
000112: 24,6012           45176                           DMOVE    0
000113: 24,6013           01630                                    TPACIF1
000114: 24,6014           33537                           STORE    TPACIFC
000115:
000116: 24,6015           45176                           DMOVE    0
000117: 24,6016           01620                                    TATLAN1
000118: 24,6017           33527                           STORE    TATLANT


000120: 24,6020           75176                           VMOVE    0
000121: 24,6021           01632                                    RTPACIF1
000122: 24,6022           33115                           STORE    RTINIT
000123:
000124: 24,6023           76776                           ITC      0
000125: 24,6024           13450                                    EARROT1
000126:
000127: 24,6025           47576                           NOLOD    0
000128: 24,6026           33541                           STORE    RTPACIFC
000129:
000130: 24,6027           75176                           VMOVE    0
000131: 24,6030           01622                                    RTATLAN1
000132: 24,6031           33115                           STORE    RTINIT
000133:
000134: 24,6032           76776                           ITC      0
000135: 24,6033           13450                                    EARROT1
000136:
000137: 24,6034           47576                           NOLOD    0
000138: 24,6035           33531                           STORE    RTATLANT
000139:
000140: 24,6036           77576                           EXIT     0
000141:
000142: 24,6037           05654        TARGET             TC       BANKCALL                              #  WAIT FOR COMPLETION OF MODE SWITCH
000143: 24,6040           30331                           CADR     IMUSTALL
000144: 24,6041           03066                           TC       CURTAINS                              #  TRAP IF INCOMPLETE
000145:
000146: 24,6042           44516                           CS       ONE
000147: 24,6043           02312                           TC       NEWPHASE
000148: 24,6044           00004                           OCT      00004
000149:
000150: 24,6045           02124                           TC       ENDOFJOB
000151:


000153:
000154: 32,6066                                           BANK     32
000155:
000156: 32,6066           32143        MON1TASK           CAF      PRIO5
000157: 32,6067           02046                           TC       FINDVAC
000158: 32,6070           64074                           CADR     MONITJOB
000159:
000160: 32,6071           03416                           TC       FLAG1UP                               #  SET MONIT FLAG
000161: 32,6072           00040        MONITMSK           OCT      00040
000162:
000163: 32,6073           02256                           TC       TASKOVER
000164:
000165:
000166:
000167: 32,6074           02276        MONITJOB           TC       PHASCHNG
000168: 32,6075           03203                           OCT      03203
000169:
000170: 32,6076           04000                           TC       INTPRET
000171:
000172: 32,6077           76575                           RTB      1                                     #  FORM TIME SINCE START OF MONITOR
000173: 32,6100           66776                           DSU
000174: 32,6101           20253                                    LOADTIME
000175: 32,6102           01565                                    TPITCH
000176: 32,6103           33571                           STORE    TMONITOR                              #  SCALED AT 2(+28) CS
000177:
000178: 32,6104           47574                           NOLOD    2                                     #  TEST IF TIME TO START PITCH MONITOR
000179: 32,6105           43605                           BPL      LODON
000180: 32,6106           45176                           DMOVE
000181: 32,6107           24113                                    +3
000182: 32,6110           07227                                    DPZERO                                #  NO
000183: 32,6111           33571                           STORE    TMONITOR
000184:
000185: 32,6112           47573        PITCH1             NOLOD    3                                     #  TEST IF TIME TO STOP MONITOR
000186: 32,6113           66756                           DSU      BMN
000187: 32,6114           41423                           LODON    DMOVE
000188: 32,6115           42576                           SWITCH
000189: 32,6116           01567                                    TENDPTCH
000190: 32,6117           24124                                    +4
000191: 32,6120           01567                                    TENDPTCH                              #  IF IT IS, SET TMONITOR TO MAX AND REMOVE
000192: 32,6121           00033                                    MONITFLG                              #   MONIT FLAG
000193: 32,6122           33571                           STORE    TMONITOR
000194:
000195: 32,6123           45174                           DMOVE    2                                     #  DO SIGN AGREE AND RESCALE TO 2(+14) CS
000196: 32,6124           76516                           RTB      TSLT
000197: 32,6125           76516                           RTB      TSLT
000198: 32,6126           01571                                    TMONITOR
000199: 32,6127           20404                                    SGNAGREE
000200: 32,6130           00017                                    14D
000201: 32,6131           24246                                    POLYENT1                              #  SOLVE PITCH POLYNOMIAL
000202: 32,6132           00005                                    4
000203: 32,6133           32025                           STORE    20D                                   #  CHI SCALED AT 1 REV.


000205: 32,6134           57176                           SIN      0
000206: 32,6135           00025                                    20D
000207:
000208: 32,6136           45176                           DMOVE    0
000209: 32,6137           07227                                    DPZERO
000210:
000211: 32,6140           55175                           COS      1
000212: 32,6141           41176                           VDEF
000213: 32,6142           00025                                    20D
000214: 32,6143           32027                           STORE    22D                                   #  UNIT VECTOR ALONG VEHICLE ROLL AXIS
000215:
000216: 32,6144           47576                           NOLOD    0
000217: 32,6145           33411                           STORE    XSCD
000218:
000219: 32,6146           45176                           DMOVE    0
000220: 32,6147           01415                                    XSCD       +4
000221: 32,6150           32027                           STORE    22D                                   #  FORM VECTOR (XSCD +4, 0, -XSCD) AT 22D
000222:
000223: 32,6151           47176                           COMP     0
000224: 32,6152           01411                                    XSCD
000225: 32,6153           32033                           STORE    26D
000226:
000227: 32,6154           76572        ROLLER             RTB      4                                     #  FORM DESIRED ROLL EXCURSION
000228: 32,6155           66712                           DSU      DDV
000229: 32,6156           66756                           DSU      BMN
000230: 32,6157           41423                           LODON    DMOVE
000231: 32,6160           76576                           RTB
000232: 32,6161           20253                                    LOADTIME
000233: 32,6162           01563                                    TROLL
000234: 32,6163           01701                                    1/RLLRTE
000235: 32,6164           01703                                    MAXROLL
000236: 32,6165           24171                                    +3
000237: 32,6166           07227                                    DPZERO                                #  IF EXCEEDS MAX VALUE, SET ROLL ATTITUDE
000238: 32,6167           20265                                    FRESHPD                               #    TO ZERO
000239:
000240: 32,6170           47576                           NOLOD    0
000241: 32,6171           32025                           STORE    20D                                   #  ROLL ANGLE SCALED AT 1 REV.
000242:
000243: 32,6172           47575                           NOLOD    1
000244: 32,6173           57176                           SIN
000245: 32,6174           32023                           STORE    18D
000246:
000247: 32,6175           47575                           NOLOD    1
000248: 32,6176           63766                           TSLT     VXSC
000249: 32,6177           00002                                    1
000250: 32,6200           00027                                    22D
000251: 32,6201           33417                           STORE    YSCD
000252:
000253: 32,6202           55175                           COS      1
000254: 32,6203           47176                           COMP


000256: 32,6204           00025                                    20D
000257: 32,6205           33421                           STORE    YSCD       +2
000258:
000259: 32,6206           47574                           NOLOD    2
000260: 32,6207           47166                           COMP     VXSC
000261: 32,6210           44776                           VSLT
000262: 32,6211           00027                                    22D
000263: 32,6212           00002                                    1
000264: 32,6213           33425                           STORE    ZSCD
000265:
000266: 32,6214           45176                           DMOVE    0
000267: 32,6215           00023                                    18D
000268: 32,6216           33427                           STORE    ZSCD       +2
000269:
000270: 32,6217           76776                           ITC      0                                     #  RESOLVE INTO NB COORDS.
000271: 32,6220           12167                                    CALCSCNB
000272:
000273: 32,6221           76776                           ITC      0                                     #  EXTRACT EULER ANGLES FROM XNB MATRIX
000274: 32,6222           12072                                    CALCCDU
000275:
000276: 32,6223           47576                           NOLOD    0                                     #  STORE THE ANGLES
000277: 32,6224           32701                           STORE    THETAD
000278:
000279: 32,6225           77576                           EXIT     0
000280:
000281: 32,6226           34511                           CAF      BIT6                                  #  TEST IF MONIT FLAG SET
000282: 32,6227           70646                           MASK     FLAGWRD1
000283: 32,6230           10000                           CCS      A
000284: 32,6231           06074                           TC       MONITJOB                              #  IT IS. RECYCLE MONITJOB
000285:
000286: 32,6232           20017                           INHINT                                         #  CALL TUMBLE MONITOR IN TTUMON SECS
000287: 32,6233           41572                           CS       TTUMON
000288: 32,6234           40000                           COM
000289: 32,6235           02173                           TC       WAITLIST
000290: 32,6236           64250                           CADR     TUMBTSK1
000291:
000292: 32,6237           40036                           CS       TIME1
000293: 32,6240           50665                           TS       TBASE3
000294:
000295: 32,6241           35503                           CAF      TWO
000296: 32,6242           02312                           TC       NEWPHASE
000297: 32,6243           00003                           OCT      00003
000298:
000299: 32,6244           02124                           TC       ENDOFJOB
000300:
000301:
000302:
000303: 32,6245           33534        POLYENT1           CAF      TWELVE                                #  RTB HERE PRIOR TO ENTERING ERASABLE FOR
000304: 32,6246           51574                           TS       POLYORDR                              #    POLYNOMIAL
000305: 32,6247           01573                           TC       POLYENTR


000307:
000308: 32,6250           33553        TUMBTSK1           CAF      TWENTY7
000309: 32,6251           02312                           TC       NEWPHASE
000310: 32,6252           00003                           OCT      3
000311:
000312: 32,6253           32155                           CAF      PRIO22
000313: 32,6254           02046                           TC       FINDVAC
000314: 32,6255           64257                           CADR     TUMBJOB1
000315:
000316: 32,6256           06325                           TC       RESET1
000317:
000318:
000319:
000320: 32,6257           05654        TUMBJOB1           TC       BANKCALL                              #  SWITCH IMUCDU MODE TO FINE ALIGN
000321: 32,6260           30163                           CADR     IMUFINNW
000322:
000323: 32,6261           05654                           TC       BANKCALL                              #  WAIT FOR COMPLETION OF MODE SWITCH
000324: 32,6262           30331                           CADR     IMUSTALL
000325: 32,6263           03066                           TC       CURTAINS
000326:
000327: 32,6264           02362                           TC       NEWMODE                               #  SET MAJOR MODE TO TUMBLE MONITOR
000328: 32,6265           00014                           OCT      00014
000329:
000330: 32,6266           04000                           TC       INTPRET                               #  ...NO 01407 ALARMS, PLEASE....
000331:
000332: 32,6267           75575                           AXT,1    1
000333: 32,6270           76776                           ITC
000334: 32,6271           00007                                    6
000335: 32,6272           12001                                    CDUTRIG
000336:
000337: 32,6273           75176                           VMOVE    0
000338: 32,6274           01315                                    CDUTEMP
000339: 32,6275           33345                           STORE    DUPCDU
000340:
000341: 32,6276           77576                           EXIT     0
000342:
000343: 32,6277           02124                           TC       ENDOFJOB
000344:
000345: 32,6300           32155        TUMBTASK           CAF      PRIO22
000346: 32,6301           02046                           TC       FINDVAC
000347: 32,6302           50046                           CADR     TUMBJOB
000348:
000349: 32,6303           34516                           CAF      BIT1                                  #  TEST IF TUMBLE FLAG SET
000350: 32,6304           70646                           MASK     FLAGWRD1
000351: 32,6305           10000                           CCS      A
000352: 32,6306           06325                           TC       RESET1                                #  IT IS. CONTINUE TO MONITOR
000353:
000354: 32,6307           40647                           CS       FLAGWRD2                              #  TEST IF BURN IS TUMBLE ARREST (I.E. HAS
000355: 32,6310           74516                           MASK     BIT1                                  #  CORRECTIVE ACTION STARTED)
000356: 32,6311           10000                           CCS      A
000357: 32,6312           06321                           TC       TUMTEST1                              #  IT HAS NOT


000359: 32,6313           40011                           CS       OUT1                                  #  IT HAS. TEST IF ENGINE ON YET. IF NOT,
000360: 32,6314           74502                           MASK     BIT13                                 #  WAIT BEFORE TURNING IT OFF AGAIN
000361: 32,6315           10000                           CCS      A
000362: 32,6316           06325                           TC       RESET1
000363:
000364: 32,6317           05720                           TC       POSTJUMP                              #  LEAP TO CUT SPS ENGINE
000365: 32,6320           64710                           CADR     ENGINOFF
000366:
000367: 32,6321           36335        TUMTEST1           CAF      NOTUMASK                              #  TEST IF NEXT BURN HAS BEEN SET
000368: 32,6322           70647                           MASK     FLAGWRD2
000369: 32,6323           10000                           CCS      A
000370: 32,6324           06331                           TC       TASK3OUT
000371:
000372: 32,6325           36677        RESET1             CAF      1SEC32                                #  RECALL IN 1 SEC
000373: 32,6326           02173                           TC       WAITLIST
000374: 32,6327           64300                           CADR     TUMBTASK
000375:
000376: 32,6330           02256                           TC       TASKOVER
000377:
000378: 32,6331           44516        TASK3OUT           CS       ONE
000379: 32,6332           02312                           TC       NEWPHASE
000380: 32,6333           00003                           OCT      00003
000381:
000382: 32,6334           02256                           TC       TASKOVER                              #  IT HAS. KILL TUMBLE MONITOR
000383:
000384: 32,6335           00016        NOTUMASK           OCT      00016                                 #  (OR OF SPS1, ABRT, TABT)
000385:


000387:
000388: 24,6046                                           BANK     24
000389:
000390: 24,6046           36111        TUMBJOB            CAF      NOTUMSK1                              #  SKIP THIS JOB IF NEXT BURN HAS BEEN SET
000391: 24,6047           70647                           MASK     FLAGWRD2
000392: 24,6050           10000                           CCS      A
000393: 24,6051           02124                           TC       ENDOFJOB
000394:
000395: 24,6052           04000                           TC       INTPRET
000396:
000397: 24,6053           75176                           VMOVE    0                                     #  SAVE PRESENT CDUX,Y,Z
000398: 24,6054           01345                                    DUPCDU
000399: 24,6055           33323                           STORE    CDUBUF
000400:
000401: 24,6056           75575                           AXT,1    1                                     #  FORM DP CDUX,Y,Z
000402: 24,6057           76776                           ITC
000403: 24,6060           00007                                    6
000404: 24,6061           12001                                    CDUTRIG
000405:
000406: 24,6062           75176                           VMOVE    0                                     #  SAVE DUPLICATE CDUX,Y,Z
000407: 24,6063           01315                                    CDUTEMP                               #  SCALED AT 1 REV
000408: 24,6064           33345                           STORE    DUPCDU
000409:
000410: 24,6065           47575                           NOLOD    1
000411: 24,6066           74765                           VSU      AXT,1
000412: 24,6067           01323                                    CDUBUF
000413: 24,6070           00007                                    6
000414: 24,6071           33315                           STORE    CDUTEMP
000415:
000416: 24,6072           76776                           ITC      0                                     #  COMPUTE SIN OF CDUX,Y,Z
000417: 24,6073           12041                                    SINCOS                                #  DIFFERENCES AND PUT IN SINCDU,+2,+4
000418:
000419: 24,6074           71174                           ABVAL    2
000420: 24,6075           66756                           DSU      BMN
000421: 24,6076           77576                           EXIT
000422: 24,6077           01331                                    SINCDU
000423: 24,6100           10113                                    CRIT
000424: 24,6101           10106                                    NOTUMBLE
000425:
000426: 24,6102           03416                           TC       FLAG1UP                               #  SET TUMB FLAG
000427: 24,6103           00001                           OCT      00001
000428:
000429: 24,6104           02124                           TC       ENDOFJOB
000430:
000431: 24,6105           77576        NOTUMBLE           EXIT     0
000432: 24,6106           03430                           TC       FLAG1DWN                              #  REMOVE TUMBLE FLAG
000433: 24,6107           00001                           OCT      00001
000434:
000435: 24,6110           02124                           TC       ENDOFJOB
000436:
000437: 24,6111           00016        NOTUMSK1           OCT      16


000439: 24,6112           00262 25271  CRIT               2DEC     0.010905                              #  SIN(5DEG/2) SCALED AT 2(+2)
000440:


000442:
000443: 32,6336                                           BANK     32
000444:
000445:
000446:
000447: 32,6336           40036        S4BSMSEP           CS       TIME1                                 #  BRANCH HERE ON RECEIPT OF S4B/CSM SEP
000448: 32,6337           50666                           TS       TBASE4
000449:
000450: 32,6340           03430                           TC       FLAG1DWN                              #  RESET UPDAT FLAG
000451: 32,6341           20000                           OCT      20000
000452:
000453: 32,6342           03373                           TC       RELAYON                               #  SET SCS +X TRANS, ATTITUDE CONTROL MODE,
000454: 32,6343           40221                           OCT      40221                                 #  GIMBAL MOT POWER DISCRETES (C27,23,30)
000455:
000456: 32,6344           34516                           CAF      BIT1                                  #  TEST IF TUMB FLAG SET
000457: 32,6345           70646                           MASK     FLAGWRD1
000458: 32,6346           10000                           CCS      A
000459: 32,6347           06462                           TC       SETUMB2
000460:
000461: 32,6350           03416                           TC       FLAG1UP                               #  SET INTP FLAG
000462: 32,6351           01000        INTPMASK           OCT      01000
000463:
000464: 32,6352           02276                           TC       PHASCHNG
000465: 32,6353           01404                           OCT      01404
000466:
000467: 32,6354           20017                           INHINT
000468: 32,6355           36505                           CAF      1.7SEC                                #  WAIT 1.7 SECS FOR RECEIPT OF ABORT SIG.
000469: 32,6356           02173                           TC       WAITLIST
000470: 32,6357           64374                           CADR     ABRTWAIT
000471:
000472: 32,6360           03302        TRYGRAB            TC       GRABDSP                               #  TRY TO GRAB DISPLAY
000473: 32,6361           06366                           TC       CLEANOUT                              #  ALREADY GRABBED. FLUSH OUT GRABBER
000474:
000475: 32,6362           03362                           TC       FREEDSP                               #  WE HAVE IT. AND LET IT GO
000476:
000477: 32,6363           03416        SETS4SEP           TC       FLAG1UP                               #  SET S4BSM FLAG
000478: 32,6364           00200                           OCT      00200
000479:
000480: 32,6365           02124                           TC       ENDOFJOB
000481:
000482: 32,6366           20017        CLEANOUT           INHINT
000483: 32,6367           32170                           CAF      PRIO35                                #  MAKE HIGH PRIO JOB TO FLUSH OUT PINBALL
000484: 32,6370           02052                           TC       NOVAC
000485: 32,6371           11147                           CADR     ENEMA
000486: 32,6372           20016                           RELINT
000487:
000488: 32,6373           06363                           TC       SETS4SEP
000489:
000490: 32,6374           32160        ABRTWAIT           CAF      PRIO25                                #  CONTINUE WITH SAME PRIORITY AS S4BSMSEP
000491: 32,6375           02052                           TC       NOVAC
000492: 32,6376           64400                           CADR     ABORTEST


000494: 32,6377           02256                           TC       TASKOVER
000495:
000496: 32,6400           34516        ABORTEST           CAF      ONE                                   #  SET VGCNTR FOR 2 PASSES THRU CALCVGB
000497: 32,6401           51446                           TS       VGCNTR
000498:
000499: 32,6402           03430                           TC       FLAG1DWN                              #  RESET UPDAT FLAG
000500: 32,6403           20000                           OCT      20000
000501:
000502: 32,6404           34501                           CAF      BIT14                                 #  TEST IF ABORT SIGNAL RECEIVED
000503: 32,6405           70645                           MASK     STATE
000504: 32,6406           10000                           CCS      A
000505: 32,6407           06427                           TC       SETABORT                              #  IT WAS. BRANCH TO ABORT
000506:
000507: 32,6410           20017                           INHINT
000508: 32,6411           36504                           CAF      8.3SEC                                #  SET CALL TO TURN OFF +X 10 SEC AFTER SEP
000509: 32,6412           02173                           TC       WAITLIST
000510: 32,6413           64663                           CADR     PLUSXOFF
000511: 32,6414           20016                           RELINT
000512:
000513: 32,6415           03504                           TC       SETBRNSW                              #  SET BURN TO SPS1
000514: 32,6416           00010        SPS1MASK           OCT      00010
000515:
000516: 32,6417           36426                           CAF      SPS1LOC                               #  SET LOCATION FOR NOMINAL SPS1 VR COMP
000517: 32,6420           51470                           TS       VRCADR
000518:
000519: 32,6421           02276                           TC       PHASCHNG
000520: 32,6422           02504                           OCT      02504
000521:
000522: 32,6423           02362        REDO4.21           TC       NEWMODE                               #  SET MAJOR MODE TO PRE-SPS1
000523: 32,6424           00031                           OCT      00031
000524:
000525: 32,6425           03151                           TC       JAMTERM                               #  FLUSH V75 S4BSMSEP BACKUP.
000526:
000527: 32,6426           52454        SPS1LOC            CADR     501SPS1
000528:
000529: 32,6427           03504        SETABORT           TC       SETBRNSW                              #  SET BURN TO ABORT
000530: 32,6430           00002                           OCT      00002
000531:
000532: 32,6431           02276                           TC       PHASCHNG
000533: 32,6432           02004                           OCT      02004
000534:
000535: 32,6433           20017                           INHINT
000536: 32,6434           36510                           CAF      3.8SEC                                #  START ENGINE IN 4.3 SECS
000537: 32,6435           02173                           TC       WAITLIST
000538: 32,6436           64527                           CADR     ATTCNOFF
000539: 32,6437           20016                           RELINT
000540:
000541: 32,6440           05654        REDO4.16           TC       BANKCALL                              #  SET IMU TO ATT. CONTROL MODE
000542: 32,6441           30223                           CADR     IMUATTC


000544: 32,6442           03516                           TC       SETHETAD                              #  SET THETAD,+1,+2 TO AGREE WITH CDUX,Y,Z
000545:
000546: 32,6443           36461                           CAF      ABORTLOC                              #  SET LOCATION FOR ABORT VR COMPUTATIONS
000547: 32,6444           51470                           TS       VRCADR
000548:
000549: 32,6445           35503                           CAF      TWO                                   #  SET VGCNTR FOR THREE PASSES THROUGH
000550: 32,6446           51446                           TS       VGCNTR                                #  CALCVGB BEFORE ISSUING STEER COMMANDS
000551:
000552: 32,6447           37655                           CAF      35DEG                                 #  SET THRUST ANGLE TO 35 DEG ABOVE HORIZON
000553: 32,6450           51442                           TS       LOOKANG
000554:
000555: 32,6451           03416                           TC       FLAG1UP                               #  SET STEER FLAG FOR ABORT STEERING
000556: 32,6452           00010                           OCT      00010
000557:
000558: 32,6453           02362                           TC       NEWMODE                               #  SET MAJOR MODE TO ABORT BURN
000559: 32,6454           00073                           OCT      00073
000560:
000561: 32,6455           05654                           TC       BANKCALL                              #  WAIT FOR MODE SWITCH TO COMPLETE
000562: 32,6456           30331                           CADR     IMUSTALL
000563: 32,6457           03066                           TC       CURTAINS                              #  CATCH-ALL FOR FAILURE TO IMU MODE SWITCH
000564:
000565: 32,6460           03151                           TC       JAMTERM                               #  FLUSH OUT V75
000566:
000567: 32,6461           52530        ABORTLOC           CADR     501ABORT
000568:
000569: 32,6462           03504        SETUMB2            TC       SETBRNSW                              #  SET BURN TO TUMBLE ARREST
000570: 32,6463           00001        ARRSTMSK           OCT      00001
000571:
000572: 32,6464           33537                           CAF      FIFTN
000573: 32,6465           02312                           TC       NEWPHASE
000574: 32,6466           00004                           OCT      4
000575:
000576: 32,6467           20017                           INHINT
000577: 32,6470           36700                           CAF      2.5SEC                                #  START ENGINE AT 3.0 SECS AFTER SEP.
000578: 32,6471           02173                           TC       WAITLIST                              #  SEPARATION
000579: 32,6472           64527                           CADR     ATTCNOFF
000580: 32,6473           20016                           RELINT
000581:
000582: 32,6474           02362                           TC       NEWMODE                               #  SET MAJOR MODE TO TUMBLE ARREST BURN
000583: 32,6475           00074                           OCT      00074
000584:
000585: 32,6476           06360                           TC       TRYGRAB
000586:
000587: 32,6477           03462        ABORTRPT           TC       STATEUP                               #  COME HERE ON RECEIPT OF UPLINK ABORT
000588: 32,6500           20000                           OCT      20000                                 #    VERB, NOUN. SET THE ABORT SIGNAL
000589:
000590: 32,6501           03373                           TC       RELAYON                               #  SET SCS BACKUP ABORT DISCRETE (C33)
000591: 32,6502           42000                           OCT      42000
000592:
000593: 32,6503           02124                           TC       ENDOFJOB


000595: 32,6504           01476        8.3SEC             DEC      830        B-14
000596: 32,6505           00252        1.7SEC             DEC      170        B-14
000597: 32,6506           22244        93.8SEC            DEC      9380       B-14
000598: 32,6507           02032        10.5SEC            DEC      1050       B-14
000599: 32,6510           00574        3.8SEC             DEC      380        B-14
000600:


000602:
000603: 32,6511           03373        GIMPOWON           TC       RELAYON                               #  SET SCS GMP DISCRETE (C30)
000604: 32,6512           40200                           OCT      40200
000605:
000606: 32,6513           33550                           CAF      TWENTY4
000607: 32,6514           02312                           TC       NEWPHASE
000608: 32,6515           00004                           OCT      00004
000609:
000610: 32,6516           40036                           CS       TIME1
000611: 32,6517           50666                           TS       TBASE4
000612:
000613: 32,6520           33551                           CAF      TWENTY5
000614: 32,6521           02312                           TC       NEWPHASE
000615: 32,6522           00004                           OCT      00004
000616:
000617: 32,6523           37151                           CAF      11.5SEC
000618: 32,6524           02173                           TC       WAITLIST
000619: 32,6525           64527                           CADR     ATTCNOFF
000620:
000621: 32,6526           02256                           TC       TASKOVER
000622:
000623: 32,6527           33542        ATTCNOFF           CAF      EIGHTN
000624: 32,6530           02312                           TC       NEWPHASE
000625: 32,6531           00004                           OCT      00004
000626:
000627: 32,6532           40036                           CS       TIME1
000628: 32,6533           50666                           TS       TBASE4
000629:
000630: 32,6534           03405                           TC       RELAYOFF                              #  REMOVE SCS ATT. CONTROL DISCRETE (C23)
000631: 32,6535           40001                           OCT      40001
000632:
000633: 32,6536           33543                           CAF      NINETEEN
000634: 32,6537           02312                           TC       NEWPHASE
000635: 32,6540           00004                           OCT      00004
000636:
000637: 32,6541           36676                           CAF      0.25SEC
000638: 32,6542           02173                           TC       WAITLIST
000639: 32,6543           64545                           CADR     DVMODEON
000640:
000641: 32,6544           02256                           TC       TASKOVER
000642:
000643: 32,6545           03373        DVMODEON           TC       RELAYON                               #  SET SCS DV MODE DISCRETE (C24)
000644: 32,6546           40002                           OCT      40002
000645:
000646: 32,6547           33544                           CAF      TWENTY0
000647: 32,6550           02312                           TC       NEWPHASE
000648: 32,6551           00004                           OCT      00004
000649:
000650: 32,6552           36676                           CAF      0.25SEC
000651: 32,6553           02173                           TC       WAITLIST
000652: 32,6554           64562                           CADR     ENGINEON


000654: 32,6555           02256                           TC       TASKOVER
000655:
000656: 32,6556           44516        TASK4OUT           CS       ONE
000657: 32,6557           02312                           TC       NEWPHASE
000658: 32,6560           00004                           OCT      00004
000659:
000660: 32,6561           02256                           TC       TASKOVER
000661:
000662: 32,6562           44502        ENGINEON           CS       BIT13                                 #  SET BIT13, OUT1 TO 1  (ENGINE ON)
000663: 32,6563           51447                           TS       DVCNTR                                #  MUST BE NEGATIVE INITIALLY
000664: 32,6564           70011                           MASK     OUT1
000665: 32,6565           64502                           AD       BIT13
000666: 32,6566           50011                           TS       OUT1
000667:
000668: 32,6567           02677                           TC       READTIME   +1
000669: 32,6570           40572                           CS       RUPTSTOR
000670: 32,6571           51462                           TS       TENGON
000671: 32,6572           40573                           CS       RUPTSTOR   +1
000672: 32,6573           51463                           TS       TENGON     +1
000673:
000674: 32,6574           03416                           TC       FLAG1UP                               #  SET DVMON, STEER FLAGS
000675: 32,6575           00030                           OCT      00030
000676:
000677: 32,6576           33550                           CAF      TWENTY4                               #  SEE IF THIS EITHER A SPS1 OR SPS2 BURN
000678: 32,6577           70647                           MASK     FLAGWRD2
000679: 32,6600           10000                           CCS      A
000680: 32,6601           06603                           TC       +2                                    #  YES
000681: 32,6602           06636                           TC       TUMTEST2                              #  NO
000682:
000683: 32,6603           10651                           CCS      PHASE2                                #  TEST FOR PHASE2 VALUE.
000684: 32,6604           64341                           AD       NEG3                                  #  WAS IT GREATER THAN 4 ORIGINALLY...
000685: 32,6605           10000                           CCS      A                                     #  TEST NEW SUM.
000686: 32,6606           06642                           TC       ROLLTASK   -3
000687: 32,6607           06642                           TC       ROLLTASK   -3                         #  GOES UNLESS PHASE2 WERE +1,2,3, OR 4.
000688: 32,6610           06611                           TC       +1                                    #  1,2 OR 3 FALL IN HERE
000689:
000690: 32,6611           44516                           CS       ONE                                   #  +4 COMES HERE.
000691: 32,6612           02312                           TC       NEWPHASE                              #  IN WHICH CASES, WE MAKE GROUP 2 INACTIVE
000692: 32,6613           00002                           OCT      2
000693:
000694: 32,6614           32170                           CAF      PRIO35                                #  AND THEN FLUSH OUT EVERYTHING.
000695: 32,6615           02052                           TC       NOVAC
000696: 32,6616           11147                           CADR     ENEMA                                 #  FORCE A PROGRAMMED RESTART
000697:
000698: 32,6617           06642                           TC       ROLLTASK   -3
000699:
000700:
000701:
000702: 32,6620           36707        3OR4TEST           CAF      SPS34MSK
000703: 32,6621           70647                           MASK     FLAGWRD2


000705: 32,6622           10000                           CCS      A
000706: 32,6623           06625                           TC       +2
000707: 32,6624           06636                           TC       TUMTEST2                              #  IT IS NOT
000708:
000709: 32,6625           33547                           CAF      TWENTY3
000710: 32,6626           02312                           TC       NEWPHASE
000711: 32,6627           00004                           OCT      00004
000712:
000713: 32,6630           36701                           CAF      3SEC                                  #  SHUT ENGINE DOWN IN 3 SECS
000714: 32,6631           02173                           TC       WAITLIST
000715: 32,6632           64710                           CADR     ENGINOFF
000716:
000717: 32,6633           03430        STEEROFF           TC       FLAG1DWN
000718: 32,6634           00010        STEERMSK           OCT      00010
000719:
000720: 32,6635           02256                           TC       TASKOVER
000721:
000722: 32,6636           36463        TUMTEST2           CAF      ARRSTMSK                              #  TEST IF BURN IS TUMBLE ARREST
000723: 32,6637           70647                           MASK     FLAGWRD2
000724: 32,6640           10000                           CCS      A
000725: 32,6641           06660                           TC       STR4OUT
000726:
000727: 32,6642           33546                           CAF      TWENTY2
000728: 32,6643           02312                           TC       NEWPHASE
000729: 32,6644           00004                           OCT      4
000730:
000731: 32,6645           40646        ROLLTASK           CS       FLAGWRD1                              #  TEST IF STEER FLAG SET
000732: 32,6646           76634                           MASK     STEERMSK
000733: 32,6647           10000                           CCS      A
000734: 32,6650           02256                           TC       TASKOVER                              #  IT IS NOT. KILL ROLLTASK
000735:
000736: 32,6651           34502                           CAF      PRIO10                                #  SUBMIT JOB TO DO ROLL STEERING
000737: 32,6652           02046                           TC       FINDVAC
000738: 32,6653           66322                           CADR     ROLLJOB
000739:
000740: 32,6654           36703        REDO4.22           CAF      5SEC32                                #  RECALL ROLLTASK IN 5 SECS
000741: 32,6655           02173                           TC       WAITLIST
000742: 32,6656           64645                           CADR     ROLLTASK
000743:
000744: 32,6657           02256                           TC       TASKOVER
000745:
000746: 32,6660           03430        STR4OUT            TC       FLAG1DWN
000747: 32,6661           00010                           OCT      00010
000748:
000749: 32,6662           06556                           TC       TASK4OUT
000750:
000751: 32,6663           03405        PLUSXOFF           TC       RELAYOFF                              #  REMOVE SCS +X TRANS DISCRETE (C27)
000752: 32,6664           40020                           OCT      40020
000753:
000754: 32,6665           03416                           TC       FLAG1UP                               #  SET INITFLAG TO ENABLE MANEUVER TO SPS1


000756: 32,6666           00400                           OCT      00400                                 #    BURN ATTITUDE
000757:
000758: 32,6667           36706                           CAF      89.5SEC                               #  START ENGINE IN 90 SECS
000759: 32,6670           02173                           TC       WAITLIST
000760: 32,6671           64527                           CADR     ATTCNOFF
000761:
000762: 32,6672           33535                           CAF      THIRTEEN
000763: 32,6673           02312                           TC       NEWPHASE
000764: 32,6674           00004                           OCT      00004
000765:
000766: 32,6675           02256                           TC       TASKOVER
000767:
000768: 32,6676           00031        0.25SEC            DEC      25         B-14
000769: 32,6677           00144        1SEC32             DEC      100        B-14
000770: 32,6700           00372        2.5SEC             DEC      250        B-14
000771: 32,6701           00454        3SEC               DEC      300        B-14
000772: 32,6702           00536        3.5SEC             DEC      350        B-14
000773: 32,6703           00764        5SEC32             DEC      500        B-14
000774: 32,6704           01130        6SEC               DEC      600        B-14
000775: 32,6705           02734        15SEC              DEC      1500       B-14
000776: 32,6706           21366        89.5SEC            DEC      8950       B-14
000777: 32,6707     4503               SHDNMSK            EQUALS   BIT12
000778: 32,6707           00140        SPS34MSK           OCT      00140
000779:


000781:
000782: 32,6710           44502        ENGINOFF           CS       BIT13                                 #  SET ENGINE OFF
000783: 32,6711           70011                           MASK     OUT1
000784: 32,6712           50011                           TS       OUT1
000785:
000786: 32,6713           02677                           TC       READTIME   +1                         #  SAVE TIME OF CUTOFF
000787: 32,6714           40572                           CS       RUPTSTOR
000788: 32,6715           51462                           TS       TCUTOFF
000789: 32,6716           40573                           CS       RUPTSTOR   +1
000790: 32,6717           51463                           TS       TCUTOFF    +1
000791:
000792: 32,6720           03430                           TC       FLAG1DWN                              #  DISABLE DV MONITOR
000793: 32,6721           00020                           OCT      00020
000794:
000795: 32,6722           40044                           CS       PIPAX                                 #  SAVE DELTAV AT ENGINE OFF TIME.
000796: 32,6723           51222                           TS       VAVEGON
000797: 32,6724           40045                           CS       PIPAY
000798: 32,6725           51223                           TS       VAVEGON    +1                         #  USE VAVEGON AREA FOR THIS.
000799: 32,6726           40046                           CS       PIPAZ
000800: 32,6727           51224                           TS       VAVEGON    +2
000801:
000802: 32,6730           03405                           TC       RELAYOFF                              #  REMOVE SCS +X TRANS DISCRETE (C27)
000803: 32,6731           40020                           OCT      40020
000804:
000805: 32,6732           40647                           CS       FLAGWRD2                              #  TEST IF THAT WAS A TUMBLE BURN
000806: 32,6733           76463                           MASK     ARRSTMSK
000807: 32,6734           10000                           CCS      A
000808: 32,6735           06774                           TC       SPS1TEST
000809:
000810: 32,6736           34516                           CAF      ONE
000811: 32,6737           51446                           TS       VGCNTR
000812:
000813: 32,6740           03416                           TC       FLAG1UP                               #  SET INTP,INIT FLAGS
000814: 32,6741           01400                           OCT      01400
000815:
000816: 32,6742           34501                           CAF      BIT14                                 #  TEST IF ABORT SIGNAL RECEIVED
000817: 32,6743           70645                           MASK     STATE
000818: 32,6744           10000                           CCS      A
000819: 32,6745           06764                           TC       VRCAD                                 #  IT WAS, JUMP TO DO TUMBLE ABORT BURN
000820:
000821: 32,6746           36506                           CAF      93.8SEC                               #  START ENGINE IN 94.3 SECS
000822: 32,6747           02173                           TC       WAITLIST
000823: 32,6750           64527                           CADR     ATTCNOFF
000824:
000825: 32,6751           36426                           CAF      SPS1LOC                               #  SET LOCATION FOR NOMINAL SPS1 VR COMP
000826: 32,6752           51470                           TS       VRCADR
000827:
000828: 32,6753           32160                           CAF      PRIO25                                #  ESTABLISH MORE PRE-SPS1 BURN LOGIC
000829: 32,6754           02052                           TC       NOVAC
000830: 32,6755           64423                           CADR     REDO4.21


000832:
000833: 32,6756           33535                           CAF      THIRTEEN
000834: 32,6757           02312                           TC       NEWPHASE
000835: 32,6760           00004                           OCT      4
000836:
000837: 32,6761           03504        REDO4.13           TC       SETBRNSW                              #  SET BURN TO SPS1
000838: 32,6762           00010                           OCT      00010
000839:
000840: 32,6763           06331                           TC       TASK3OUT
000841:
000842: 32,6764           36461        VRCAD              CAF      ABORTLOC                              #  SET LOCATION TO ABORT VR COMPUTATION
000843: 32,6765           51470                           TS       VRCADR
000844:
000845: 32,6766           34473                           CAF      THREE
000846: 32,6767           02312                           TC       NEWPHASE
000847: 32,6770           00003                           OCT      00003
000848:
000849: 32,6771           03504        REDO3.3            TC       SETBRNSW                              #  SET BURN TO ABORT AFTER TUMBLE
000850: 32,6772           00004        TABTMASK           OCT      00004
000851:
000852: 32,6773           02256                           TC       TASKOVER
000853:
000854: 32,6774           33554        SPS1TEST           CAF      TWENTY8
000855: 32,6775           02312                           TC       NEWPHASE
000856: 32,6776           00004                           OCT      4
000857:
000858: 32,6777           41463                           CS       TCUTOFF    +1
000859: 32,7000           50665                           TS       TBASE3
000860: 32,7001           50666                           TS       TBASE4
000861:
000862: 32,7002           40647                           CS       FLAGWRD2                              #  TEST IF THAT WAS A SPS1 BURN
000863: 32,7003           76416                           MASK     SPS1MASK
000864: 32,7004           10000                           CCS      A
000865: 32,7005           07070                           TC       SETMOD23
000866:
000867: 32,7006           36507                           CAF      10.5SEC                               #  CALL COAST PHASE IN 10.5 SECS
000868: 32,7007           02173                           TC       WAITLIST
000869: 32,7010           50114                           CADR     COASTPHS
000870:
000871: 32,7011           37150                           CAF      7SEC                                  #  DUPLICATE GMPOFF SEQUENCE BEFORE SETTING
000872: 32,7012           02173                           TC       WAITLIST                              #  BURN SWITCH.  (FOR RESTART LOGIC.)
000873: 32,7013           65110                           CADR     GIMPOWOF
000874:
000875: 32,7014           35502                           CAF      FOUR                                  #  3.4 RESTART KEEPS POWER OFF SEQ. GOING.
000876: 32,7015           02312                           TC       NEWPHASE
000877: 32,7016           00003                           OCT      3
000878:
000879: 32,7017           34473                           CAF      THREE
000880: 32,7020           02312                           TC       NEWPHASE
000881: 32,7021           00004                           OCT      00004
000882:


000884:
000885: 32,7022           03504        REDO4.3            TC       SETBRNSW                              #  SET BURN TO SPS2
000886: 32,7023           00020        SPS2MASK           OCT      00020
000887:
000888: 32,7024           02256                           TC       TASKOVER
000889:
000890: 32,7025           40647        SPS2TEST           CS       FLAGWRD2                              #  TEST IF THAT WAS A SPS2 BURN
000891: 32,7026           77023                           MASK     SPS2MASK
000892: 32,7027           10000                           CCS      A
000893: 32,7030           07050                           TC       SPS3TEST
000894:
000895: 32,7031           37146                           CAF      0.75SEC
000896: 32,7032           02173                           TC       WAITLIST
000897: 32,7033           31550                           CADR     CGTASK
000898:
000899: 32,7034           36704                           CAF      6SEC                                  #  CALL FOR GMP ON IN 6 SECS
000900: 32,7035           02173                           TC       WAITLIST
000901: 32,7036           64511                           CADR     GIMPOWON
000902:
000903: 32,7037           35362                           CAF      SEVEN
000904: 32,7040           02312                           TC       NEWPHASE
000905: 32,7041           00003                           OCT      00003
000906:
000907: 32,7042           33232                           CAF      TEN
000908: 32,7043           02312                           TC       NEWPHASE
000909: 32,7044           00004                           OCT      00004
000910:
000911: 32,7045           03504        REDO4.10           TC       SETBRNSW                              #  SET BURN TO SPS3
000912: 32,7046           00040        SPS3MASK           OCT      00040
000913:
000914: 32,7047           02256                           TC       TASKOVER
000915:
000916: 32,7050           40647        SPS3TEST           CS       FLAGWRD2                              #  TEST IF THAT WAS A SPS3 BURN
000917: 32,7051           77046                           MASK     SPS3MASK
000918: 32,7052           10000                           CCS      A
000919: 32,7053           07070                           TC       SETMOD23                              #  IT WAS NOT. (EITHER A, TABT, OR SPS4)
000920:
000921: 32,7054           33536                           CAF      FOURTN
000922: 32,7055           02312                           TC       NEWPHASE
000923: 32,7056           00004                           OCT      00004
000924:
000925: 32,7057           36704        GMPON              CAF      6SEC                                  #  CALL FOR ENGINE ON IN 10 SECS
000926: 32,7060           02173                           TC       WAITLIST
000927: 32,7061           64511                           CADR     GIMPOWON
000928:
000929: 32,7062           32144        REDO4.14           CAF      PRIO7
000930: 32,7063           02052                           TC       NOVAC
000931: 32,7064           65143                           CADR     MODE44
000932:
000933: 32,7065           03504                           TC       SETBRNSW                              #  SET BURN TO SPS4
000934: 32,7066           00100        SPS4MASK           OCT      00100


000936: 32,7067           02256                           TC       TASKOVER
000937:
000938: 32,7070           32144        SETMOD23           CAF      PRIO7                                 #  MAKE JOB TO CHANGE MODE
000939: 32,7071           02052                           TC       NOVAC
000940: 32,7072           65140                           CADR     MODE23
000941:
000942: 32,7073           33532                           CAF      NINE
000943: 32,7074           02312                           TC       NEWPHASE
000944: 32,7075           00003                           OCT      00003
000945:
000946: 32,7076           44516                           CS       ONE
000947: 32,7077           02312                           TC       NEWPHASE
000948: 32,7100           00004                           OCT      00004
000949:
000950: 32,7101           37150        GMPOFF             CAF      7SEC
000951: 32,7102           02173                           TC       WAITLIST
000952: 32,7103           65110                           CADR     GIMPOWOF
000953:
000954: 32,7104           35502                           CAF      FOUR
000955: 32,7105           02312                           TC       NEWPHASE
000956: 32,7106           00003                           OCT      00003
000957:
000958: 32,7107           02256                           TC       TASKOVER
000959:
000960: 32,7110           36702        GIMPOWOF           CAF      3.5SEC                                #  CALL FOR DV MODE OFF IN 3.5 SECS
000961: 32,7111           02173                           TC       WAITLIST
000962: 32,7112           65124                           CADR     DVMODOFF
000963:
000964: 32,7113           03405                           TC       RELAYOFF
000965: 32,7114           40200                           OCT      40200
000966:
000967: 32,7115           34477                           CAF      FIVE
000968: 32,7116           02312                           TC       NEWPHASE
000969: 32,7117           00003                           OCT      00003
000970:
000971: 32,7120           02256                           TC       TASKOVER
000972:
000973: 32,7121           03405        GMPOFF3            TC       RELAYOFF                              #  REMOVE SCS GMP DISCRETE (C30)
000974: 32,7122           40200                           OCT      40200
000975:
000976: 32,7123           06331                           TC       TASK3OUT
000977:
000978: 32,7124           03405        DVMODOFF           TC       RELAYOFF                              #  REMOVE SCS DV MODE DISCRETE (C24)
000979: 32,7125           40002                           OCT      40002
000980:
000981: 32,7126           34475                           CAF      SIX
000982: 32,7127           02312                           TC       NEWPHASE
000983: 32,7130           00003                           OCT      00003
000984:
000985: 32,7131           36676                           CAF      0.25SEC


000987: 32,7132           02173                           TC       WAITLIST
000988: 32,7133           65135                           CADR     ATTCONON
000989:
000990: 32,7134           02256                           TC       TASKOVER
000991:
000992: 32,7135           03373        ATTCONON           TC       RELAYON                               #  SET SCS ATT. CONT. DISCRETE (C23)
000993: 32,7136           40001                           OCT      40001
000994:
000995: 32,7137           06331                           TC       TASK3OUT
000996:
000997: 32,7140           02362        MODE23             TC       NEWMODE                               #  SET MAJOR MODE TO ATTITUDE HOLD
000998: 32,7141           00023                           OCT      00023
000999: 32,7142           02124                           TC       ENDOFJOB
001000:
001001: 32,7143           02362        MODE44             TC       NEWMODE                               #  SET MAJOR MODE TO SPS4
001002: 32,7144           00044                           OCT      00044
001003: 32,7145           02124                           TC       ENDOFJOB
001004:
001005:
001006:
001007: 32,7146           00113        0.75SEC            DEC      75         B-14
001008: 32,7147           00144        1SEC               DEC      100        B-14
001009: 32,7150           01274        7SEC               DEC      700        B-14
001010: 32,7151           02176        11.5SEC            DEC      1150       B-14
001011:


001013:
001014: 24,6114                                           BANK     24
001015:
001016: 24,6114           03416        COASTPHS           TC       FLAG1UP                               #  GET SET TO START COAST PHASE ACTIVITY
001017: 24,6115           40000        COASTMSK           OCT      40000                                 #  SET COAST FLAG
001018:
001019: 24,6116           36142                           CAF      289.5SEC   +1                         #  SET UP LONGCALL TO FDAONTSK IN 289.5 SEC
001020: 24,6117           51461                           TS       LONGTIME   +1
001021: 24,6120           36141                           CAF      289.5SEC
001022: 24,6121           51460                           TS       LONGTIME
001023:
001024: 24,6122           36140                           CAF      FDAILOC
001025: 24,6123           51467                           TS       CALLCADR
001026:
001027: 24,6124           05742                           TC       IBNKCALL                              #  MAKE WAITLIST CALL MORE THAN 120 SECS
001028: 24,6125           10552                           CADR     LONGCALL
001029:
001030: 24,6126           32146                           CAF      PRIO12                                #  ESTABLISH INITIAL VERTICAL JOB
001031: 24,6127           02046                           TC       FINDVAC
001032: 24,6130           66621                           CADR     SOAKINIT
001033:
001034: 24,6131           35503                           CAF      TWO
001035: 24,6132           02312                           TC       NEWPHASE
001036: 24,6133           00002                           OCT      00002
001037:
001038: 24,6134           35502                           CAF      FOUR
001039: 24,6135           02312                           TC       NEWPHASE
001040: 24,6136           00004                           OCT      00004
001041:
001042: 24,6137           02256                           TC       TASKOVER
001043:
001044: 24,6140           50143        FDAILOC            CADR     FDAONTSK
001045: 24,6141           00001 30426  289.5SEC           2DEC     28950      B-28
001046:
001047:
001048: 24,6143           03373        FDAONTSK           TC       RELAYON                               #  SET SCS FDAI ALIGN DISCRETE (C31)
001049: 24,6144           40400                           OCT      40400
001050:
001051: 24,6145           36175                           CAF      10SEC
001052: 24,6146           02173                           TC       WAITLIST
001053: 24,6147           50154                           CADR     FDAOFTSK                              #  CALL FDAI OFF IN 10 SECS
001054:
001055: 24,6150           34477                           CAF      FIVE
001056: 24,6151           02312                           TC       NEWPHASE
001057: 24,6152           00004                           OCT      00004
001058:
001059: 24,6153           02256                           TC       TASKOVER
001060:
001061: 24,6154           36177        FDAOFTSK           CAF      -310SEC    +1
001062: 24,6155           61557                           AD       TCOAST     +1


001064: 24,6156           51461                           TS       LONGTIME   +1
001065:
001066: 24,6157           35501                           CAF      ZERO
001067: 24,6160           66176                           AD       -310SEC
001068: 24,6161           61556                           AD       TCOAST
001069: 24,6162           51460                           TS       LONGTIME
001070:
001071: 24,6163           36200                           CAF      UPTSKLOC
001072: 24,6164           51467                           TS       CALLCADR
001073:
001074: 24,6165           05742                           TC       IBNKCALL
001075: 24,6166           10552                           CADR     LONGCALL
001076:
001077: 24,6167           34475                           CAF      SIX
001078: 24,6170           02312                           TC       NEWPHASE
001079: 24,6171           00004                           OCT      4
001080:
001081: 24,6172           03405        FDOFTSK1           TC       RELAYOFF                              #  REMOVE SCS FDAI ALIGN DISCRETE (C31).
001082: 24,6173           40400                           OCT      40400
001083:
001084: 24,6174           02256                           TC       TASKOVER
001085:
001086: 24,6175           01750        10SEC              DEC      1000       B-14
001087: 24,6176           77776 43347  -310SEC            2DEC     -31000     B-28
001088:
001089: 24,6200           50201        UPTSKLOC           CADR     UPTASK
001090:
001091:
001092:
001093: 14,7550                                           BANK     14
001094:
001095: 14,7550           32154        CGTASK             CAF      PRIO21                                #  ESTABLISH CGJOB TO REMOVE ANGULAR CG
001096: 14,7551           02046                           TC       FINDVAC                               #  MOTION DEVELOPED DURING SPS2 BURN
001097: 14,7552           31562                           CADR     CGJOB
001098:
001099: 14,7553           37572                           CAF      1.25S14
001100: 14,7554           02173                           TC       WAITLIST
001101: 14,7555           65121                           CADR     GMPOFF3
001102:
001103: 14,7556           34513                           CAF      EIGHT
001104: 14,7557           02312                           TC       NEWPHASE
001105: 14,7560           00003                           OCT      3
001106:
001107: 14,7561           02256                           TC       TASKOVER
001108:
001109: 14,7562           02362        CGJOB              TC       NEWMODE                               #  SET MAJOR MODE TO SPS3 BURN
001110: 14,7563           00043                           OCT      00043
001111:
001112: 14,7564           04000                           TC       INTPRET
001113:


001115: 14,7565           75175                           VMOVE    1                                     #  GET NOMINAL SPS2 CG CHANGE ABOUT IMU
001116: 14,7566           76575                           RTB      EXIT                                  #  GIMBAL AXES INTO VAC, SCALED AT KE/2 REV
001117: 14,7567           13534                                    DELCDU                                #  (KE =1.5), AND DECREMENT THETAD, +1, +2
001118: 14,7570           20416                                    INCRCDUS
001119:
001120: 14,7571           02124                           TC       ENDOFJOB
001121:
001122: 14,7572           00175        1.25S14            DEC      125        B-14
001123:
001124: 32,7152                                           BANK     32
001125:


001127:
001128: 32,7152           37254        READACCS           CAF      PIPCADR                               #  BRANCH TO PIPA READ ROUTINE
001129: 32,7153           05750                           TC       ISWCALL
001130:
001131: 32,7154           35503                           CAF      TWO
001132: 32,7155           02312                           TC       NEWPHASE
001133: 32,7156           00005                           OCT      00005
001134:
001135: 32,7157           41465        REDO5.2            CS       PIPTIME    +1
001136: 32,7160           50667                           TS       TBASE5
001137:
001138: 32,7161           35503                           CAF      TWO
001139: 32,7162           51035                           TS       PIPAGE
001140:
001141: 32,7163           34514                           CAF      ENTRYMSK                              #  TEST IF ENTRY FLAG SET
001142: 32,7164           70646                           MASK     FLAGWRD1
001143: 32,7165           10000                           CCS      A
001144: 32,7166           07212                           TC       SETUPENT
001145:
001146: 32,7167           40646                           CS       FLAGWRD1                              #  TEST IF COAST FLAG SET
001147: 32,7170           77256                           MASK     CSTMASK
001148: 32,7171           10000                           CCS      A
001149: 32,7172           03062                           TC       CCSHOLE
001150: 32,7173           07216                           TC       SETUPSOK                              #  IT IS. DO NOT RESET READACCS
001151:
001152: 32,7174           37257                           CAF      ABORT32                               #  TEST IF ABORT BURN IS SET. IF SO, NEED
001153: 32,7175           70647                           MASK     FLAGWRD2                              #  2.5SECS COMPUTING INTERVAL
001154: 32,7176           10000                           CCS      A
001155:
001156: 32,7177           07222                           TC       CHANGEDT                              #  IT IS
001157:
001158: 32,7200           37567                           CAF      2SEC                                  #  IT IS NOT. CALL READACCS IN 2 SECS
001159: 32,7201           02173                           TC       WAITLIST
001160: 32,7202           65152                           CADR     READACCS
001161:
001162: 32,7203           32152        MAKESERV           CAF      PRIO16                                #  ESTABLISH SERVICER ROUTINE
001163: 32,7204           02046                           TC       FINDVAC
001164: 32,7205           65262                           CADR     SERVICER
001165:
001166: 32,7206           34473                           CAF      THREE
001167: 32,7207           02312                           TC       NEWPHASE
001168: 32,7210           00005                           OCT      5
001169:
001170: 32,7211           02256                           TC       TASKOVER
001171:
001172: 32,7212           37567        SETUPENT           CAF      2SEC                                  #  CALL ENTRY ROUTINES IN 2 SECS
001173: 32,7213           02173                           TC       WAITLIST
001174: 32,7214           56004                           CADR     PIPUP
001175:
001176: 32,7215           07203                           TC       MAKESERV


001178:
001179: 32,7216           37567        SETUPSOK           CAF      2SEC                                  #  CALL SOAKTASK IN 2 SECS
001180: 32,7217           02173                           TC       WAITLIST
001181: 32,7220           66657                           CADR     SOAKTASK
001182:
001183: 32,7221           07203                           TC       MAKESERV
001184:
001185: 32,7222           34516        CHANGEDT           CAF      BIT1                                  #  FORCE SERVICER TO SET DELTAT TO 2.5 SECS
001186: 32,7223           51030                           TS       DELTAT     +1
001187:
001188: 32,7224           37260                           CAF      2.5SEC32                              #  CALL READACCS IN 2.5 SECS
001189: 32,7225           07201                           TC       MAKESERV   -2
001190:
001191: 32,7226           37257        REREADAC           CAF      ABORT32                               #  READACCS RESTART LOCATION
001192: 32,7227           70647                           MASK     FLAGWRD2
001193: 32,7230           10000                           CCS      A
001194: 32,7231           07234                           TC       SET2.5S
001195:
001196: 32,7232           37255        CAFREPIP           CAF      REPIPCAD
001197: 32,7233           07153                           TC       READACCS   +1
001198:
001199: 32,7234           47260        SET2.5S            CS       2.5SEC32
001200: 32,7235           60667                           AD       TBASE5
001201: 32,7236           60036                           AD       TIME1
001202: 32,7237           30572                           XCH      RUPTSTOR
001203:
001204: 32,7240           10572                           CCS      RUPTSTOR
001205: 32,7241           07232                           TC       CAFREPIP
001206: 32,7242           07232                           TC       CAFREPIP
001207: 32,7243           37260                           CAF      2.5SEC32
001208: 32,7244           60572                           AD       RUPTSTOR
001209:
001210: 32,7245           64476                           AD       POSMAX
001211: 32,7246           50000                           TS       A
001212: 32,7247           07232                           TC       CAFREPIP
001213:
001214: 32,7250           40572                           CS       RUPTSTOR
001215: 32,7251           02173                           TC       WAITLIST
001216: 32,7252           65232                           CADR     CAFREPIP
001217:
001218: 32,7253           02256                           TC       TASKOVER
001219:
001220: 32,7254           61313        PIPCADR            CADR     PIPASR
001221: 32,7255           61364        REPIPCAD           CADR     REPIPASR
001222: 32,7256     4504               CHDTMASK           EQUALS   BIT11
001223: 32,7256     4514               ENTRYMSK           EQUALS   BIT3
001224: 32,7256     4504               READMASK           EQUALS   BIT11
001225: 32,7256           40000        CSTMASK            OCT      40000
001226: 32,7257           00006        ABORT32            OCT      6
001227: 32,7260           00372        2.5SEC32           DEC      250        B-14
001228: 32,7261           00620        4SEC               DEC      400        B-14


001230:
001231: 32,7262           05654        SERVICER           TC       BANKCALL                              #  COMPENSATE THE PIPA DATA IN THE DELV
001232: 32,7263           31017                           CADR     1/PIPA                                #  REGISTERS.
001233:
001234: 32,7264           40645                           CS       STATE                                 #  TEST IF PIPAS BIAS IS TO BE DISREGARDED
001235: 32,7265           74503                           MASK     BIT12
001236: 32,7266           10000                           CCS      A
001237: 32,7267           07276                           TC       REDO5.3                               #  NO
001238:
001239: 32,7270           51001                           TS       DELV                                  #  YES, CLEAR OUT DELV AS LONG AS BIAS FLAG
001240: 32,7271           51002                           TS       DELV       +1                         #       IS SET.
001241: 32,7272           51003                           TS       DELV       +2
001242: 32,7273           51004                           TS       DELV       +3
001243: 32,7274           51005                           TS       DELV       +4
001244: 32,7275           51006                           TS       DELV       +5
001245:
001246: 32,7276           04000        REDO5.3            TC       INTPRET
001247:
001248: 32,7277           76776                           ITC      0                                     #  SEE IF TIME FOR STATE VECTOR UPDATE.
001249: 32,7300           15712                                    501UPCHK                              #  (501 & 2 ONLY).
001250:
001251: 32,7301           76776        REGSTEP            ITC      0
001252: 32,7302           21551                                    CALCRVG
001253:
001254: 32,7303           33533        AVGRET             CAF      ELEVEN                                #  ROUTINE CYCLES 12 TIMES TO SAVE OLD VR,
001255: 32,7304           50115        AGAIN              TS       MPAC                                  #    VN FOR RESTARTS
001256: 32,7305           20115                           INDEX    MPAC
001257: 32,7306           41416                           CS       VR
001258: 32,7307           20115                           INDEX    MPAC
001259: 32,7310           51263                           TS       VR1                                   #  (TEMPORARIES IN AMEMORY)
001260: 32,7311           10115                           CCS      MPAC
001261: 32,7312           07304                           TC       AGAIN
001262:
001263: 32,7313           41446                           CS       VGCNTR                                #  SAVE FOR RESTARTS
001264: 32,7314           51261                           TS       VGCNT1
001265: 32,7315           41447                           CS       DVCNTR
001266: 32,7316           51262                           TS       DVCNT1
001267:
001268: 32,7317           02276                           TC       PHASCHNG
001269: 32,7320           02705                           OCT      02705
001270:
001271: 32,7321           04000        RE5.23             TC       INTPRET
001272:
001273: 32,7322           43576                           TEST     0                                     #  TEST IF ENTRY FLAG SET
001274: 32,7323           00036                                    ENTRYFLG
001275: 32,7324           25354                                    GETFF                                 #  IT IS NOT
001276: 32,7325           45176                           DMOVE    0
001277: 32,7326           21144                                    LAD
001278: 32,7327           33576                           STORE    INITL/D
001279:
001280: 32,7330           75575                           AXT,1    1


001282: 32,7331           43565                           TEST     AXT,1
001283: 32,7332           00001                                    0
001284: 32,7333           00003                                    ABORTSIG
001285: 32,7334           25337                                    PACIFIC
001286: 32,7335           00011                                    8D
001287: 32,7336           46176        PACIFIC            COMP*    0
001288: 32,7337           03275                                    TPACIFC,1
001289: 32,7340           33145                           STORE    DTEAROT
001290:
001291: 32,7341           74176                           VMOVE*   0
001292: 32,7342           03301                                    RTPACIFC,1
001293: 32,7343           33115                           STORE    RTINIT
001294:
001295: 32,7344           76776                           ITC      0
001296: 32,7345           13450                                    EARROT1
001297:
001298: 32,7346           77576                           EXIT     0
001299:
001300: 32,7347           35501                           CAF      ZERO                                  #  RESET DELTAT +1 TO ZERO
001301: 32,7350           51030                           TS       DELTAT     +1
001302:
001303: 32,7351           05720                           TC       POSTJUMP                              #  GO TO ENTRY INITIALIZATION ROUTINE.
001304: 32,7352           61430                           CADR     STARTENT
001305:
001306: 32,7353           76776        GETFF              ITC      0                                     #  COMPUTE TIME TO FREE-FALL TO RTERM
001307: 32,7354           22001                                    CALCTFF
001308:
001309: 32,7355           43575        COASTEST           TEST     1                                     #  TEST IF COAST FLAG SET
001310: 32,7356           75026                           VMOVE    VSRT
001311: 32,7357           00022                                    COASTFLG
001312: 32,7360           25454                                    TFFTEST
001313: 32,7361           00766                                    RN                                    #  IT IS. TRANSFER RN,VN TO ORBITAL
001314: 32,7362           00002                                    RSCALE     -15D
001315: 32,7363           33101                           STORE    RRECT                                 #  INTEGRATION ROUTINE
001316:
001317: 32,7364           75176                           VMOVE    0
001318: 32,7365           00774                                    VN
001319: 32,7366           33107                           STORE    VRECT
001320:
001321: 32,7367           77576                           EXIT     0
001322:
001323: 32,7370           41456                           CS       TFF                                   #  SEE IF TFF IS POSMAX (I.E.- WILL NOT
001324: 32,7371           64476                           AD       POSMAX                                #    INTERSECT 400,000 FT)
001325: 32,7372           10000                           CCS      A
001326:
001327: 32,7373           03462                           TC       STATEUP                               #  ALL O.K., SO SET TFF2 FLAG TO ENABLE
001328: 32,7374           10000                           OCT      10000                                 #    (TFF - TFFMIN) CALCULATIONS FOR SPS2
001329: 32,7375           07406                           TC       NOMCASE                               #    IGNITION SEQUENCE
001330:
001331: 32,7376           41720                           CS       TFFNOM                                #  WILL NOT INTERSECT 400,000 FT, SO SET


001333: 32,7377           40000                           COM                                            #    TFF TO NOMINAL VALUE TO COMPUTE
001334: 32,7400           51456                           TS       TFF                                   #    TAVEGON AND TCOAST FOR A SPS2 BURN
001335:
001336: 32,7401           41721                           CS       TFFNOM     +1
001337: 32,7402           40000                           COM
001338: 32,7403           51457                           TS       TFF        +1
001339:
001340: 32,7404           03474                           TC       STATEDWN                              #  RESET TFF2 FLAG SO THAT SPS2 IGNITION IS
001341: 32,7405           10000                           OCT      10000                                 #    SCHEDULED A FIXED TIME AFTER AVE G. ON
001342:
001343: 32,7406           04000        NOMCASE            TC       INTPRET
001344:
001345: 32,7407           66776                           DSU      0                                     #  TIME TO TURN AVE G ON =TFF-23MIN.
001346: 32,7410           01457                                    TFF
001347: 32,7411           25571                                    23MIN
001348: 32,7412           33211                           STORE    TAVEGON
001349:
001350: 32,7413           47574                           NOLOD    2                                     #  TIME OF COAST = PIPTIME + (TFF-25MIN)
001351: 32,7414           66756                           DSU      BMN                                   #  - TCUTOFF
001352: 32,7415           66742                           DSU      DAD
001353: 32,7416           25573                                    2MIN
001354: 32,7417           25433                                    SPS2NOW                               #  TAVEGON TOO SMALL-SCHEDULE SPS2 NOW
001355: 32,7420           01463                                    TCUTOFF
001356: 32,7421           01465                                    PIPTIME
001357: 32,7422           33557                           STORE    TCOAST
001358:
001359: 32,7423           77576                           EXIT     0
001360:
001361: 32,7424           41465                           CS       PIPTIME    +1                         #  START UP FREE-FALL GYRO DRIFT COMP.
001362: 32,7425           40000                           COM
001363: 32,7426           50755                           TS       OLDBT1
001364:
001365: 32,7427           03440                           TC       FLAG2UP                               #  BEGINS WITH NEXT IDLETASK. SET DRIFTFLG
001366: 32,7430           40000                           OCT      40000
001367:
001368: 32,7431           02124                           TC       ENDOFJOB                              #  SERVICER DIES HERE AT START OF COASTPHS.
001369:
001370: 32,7432           77576        SPS2NOW            EXIT     0
001371:
001372: 32,7433           03416                           TC       FLAG1UP                               #  SET INIT FLAG TO ENABLE MANEUVER TO
001373: 32,7434           00400                           OCT      00400                                 #    SPS2 BURN ATTITUDE
001374:
001375: 32,7435           34516                           CAF      ONE
001376: 32,7436           51446                           TS       VGCNTR
001377:
001378: 32,7437           03430                           TC       FLAG1DWN                              #  REMOVE COAST FLAG TO CANCEL COLD SOAK
001379: 32,7440           40000                           OCT      40000
001380:
001381: 32,7441           44516                           CS       ONE                                   #  LET ENEMA KILL COLD SOAK MANUEVER
001382: 32,7442           02312                           TC       NEWPHASE


001384: 32,7443           00002                           OCT      00002
001385:
001386: 32,7444           44516                           CS       ONE                                   #  LET ENEMA KILL CALL FOR FDAONTSK
001387: 32,7445           02312                           TC       NEWPHASE
001388: 32,7446           00004                           OCT      00004
001389:
001390: 32,7447           32151                           CAF      PRIO15                                #  DO AN EMEMA AFTER THIS JOB
001391: 32,7450           02052                           TC       NOVAC
001392: 32,7451           11147                           CADR     ENEMA                                 #  RESTART READACCS AND WAIT FOR TFFMIN
001393:
001394: 32,7452           04000                           TC       INTPRET
001395:
001396: 32,7453           43575        TFFTEST            TEST     1                                     #  TEST IF TFFMIN SHOULD BE CHECKED.
001397: 32,7454           66616                           DSU      BPL                                   #  TFF2 FLAG SET AT SPS1 CUTOFF
001398: 32,7455           00004                                    TFF2FLAG
001399: 32,7456           25514                                    TFFTEST1
001400: 32,7457           01457                                    TFF
001401: 32,7460           01677                                    TFFMIN
001402: 32,7461           25514                                    TFFTEST1
001403: 32,7462           77576                           EXIT     0
001404:
001405: 32,7463           20017        TESTTFF            INHINT
001406: 32,7464           37575                           CAF      90SEC32
001407: 32,7465           02173                           TC       WAITLIST
001408: 32,7466           50463                           CADR     PLUSX2
001409:
001410: 32,7467           11722                           CCS      S2SWITCH                              #  SEE IF 2ND BURN ATTITUDE TO BE COMPUTED
001411: 32,7470           07477                           TC       SET32                                 #  NO
001412: 32,7471           07477                           TC       SET32
001413: 32,7472           07473                           TC       +1
001414: 32,7473           03416                           TC       FLAG1UP                               #  SET INIT FLAG TO RE:MANEUVER TO SPS2
001415: 32,7474           00400                           OCT      00400                                 #    BURN ATTITUDE
001416:
001417: 32,7475           34516                           CAF      ONE
001418: 32,7476           51446                           TS       VGCNTR
001419:
001420: 32,7477           02362        SET32              TC       NEWMODE                               #  SET MAJOR MODE TO PRE-SPS2
001421: 32,7500           00032                           OCT      00032
001422:
001423: 32,7501           03504                           TC       SETBRNSW                              #  SET BURN TO SPS2 BACK UP SETTING
001424: 32,7502           00020                           OCT      00020
001425:
001426: 32,7503           40036                           CS       TIME1
001427: 32,7504           50666                           TS       TBASE4
001428:
001429: 32,7505           33556                           CAF      THIRTY
001430: 32,7506           02312                           TC       NEWPHASE
001431: 32,7507           00004                           OCT      00004
001432:
001433: 32,7510           03474                           TC       STATEDWN                              #  REMOVE TFF2FLAG


001435: 32,7511           10000                           OCT      10000
001436:
001437: 32,7512           04000                           TC       INTPRET
001438:
001439: 32,7513           43574        TFFTEST1           TEST     2                                     #  TEST IF INTP FLAG SET
001440: 32,7514           65132                           ABS      DSU
001441: 32,7515           73615                           BMN      TEST
001442: 32,7516           00027                                    INTPFLAG
001443: 32,7517           25603                                    INITEST                               #  IT IS NOT. CONTINUE AT INITEST
001444: 32,7520           01457                                    TFF                                   #  TEST IF TFF LESS THAN 95 SECS
001445: 32,7521           25601                                    DP95SEC
001446: 32,7522           25542                                    SHUTDWN1                              #  IT IS. PREPARE TO FREE-FALL RE-ENTER
001447: 32,7523           00032                                    INT1FLAG                              #  TEST IF FIRST INTERUPT FLAG SET
001448: 32,7524           25530                                    +3                                    #  IT IS NOT
001449:
001450: 32,7525           77576                           EXIT     0                                     #  IT IS. WAIT FOR 95 SEC INTERUPT
001451: 32,7526           07741                           TC       ENDSER32
001452:
001453: 32,7527           47575                           NOLOD    1                                     #  TEST IF TFF LESS THAN 200 SECS
001454: 32,7530           66616                           DSU      BPL
001455: 32,7531           25577                                    DP105SEC
001456: 32,7532           25603                                    INITEST                               #  IT IS NOT. CONTINUE
001457:
001458: 32,7533           77576                           EXIT     0
001459: 32,7534           05654                           TC       BANKCALL                              #  IT IS. BRANCH TO SHUTDOWN ROUTINES
001460: 32,7535           67037                           CADR     SHUTDOWN
001461:
001462: 32,7536           03416                           TC       FLAG1UP
001463: 32,7537           00100                           OCT      00100
001464:
001465: 32,7540           07546                           TC       SHTFLGUP
001466:
001467: 32,7541           77576        SHUTDWN1           EXIT     0
001468: 32,7542           05654                           TC       BANKCALL
001469: 32,7543           67037                           CADR     SHUTDOWN
001470:
001471: 32,7544           03430                           TC       FLAG1DWN                              #  REMOVE INTP FLAG (DISABLE TFF DECISIONS)
001472: 32,7545           01000                           OCT      01000
001473:
001474: 32,7546           03416        SHTFLGUP           TC       FLAG1UP                               #  SET SHTDN FLAG
001475: 32,7547           04000                           OCT      04000
001476:
001477: 32,7550           07741                           TC       ENDSER32
001478:
001479:
001480:
001481: 32,7551           33533        REDO5.23           CAF      ELEVEN                                #  RE-ESTABLISH VR, DIFFVECT IN CASE OF
001482: 32,7552           50115                           TS       MPAC                                  #  5.23 RESTART
001483: 32,7553           20115                           INDEX    MPAC
001484: 32,7554           41263                           CS       VR1


001486: 32,7555           20115                           INDEX    MPAC
001487: 32,7556           51416                           TS       VR
001488: 32,7557           10115                           CCS      MPAC
001489: 32,7560           07552                           TC       REDO5.23   +1
001490:
001491: 32,7561           41261                           CS       VGCNT1
001492: 32,7562           51446                           TS       VGCNTR
001493: 32,7563           41262                           CS       DVCNT1
001494: 32,7564           51447                           TS       DVCNTR
001495:
001496: 32,7565           07321                           TC       RE5.23
001497:
001498:
001499:
001500: 32,7566           00000        DP2SEC             DEC      0.0
001501: 32,7567           00310        2SEC               DEC      200        B-14
001502: 32,7570           00010 15420  23MIN              2DEC     138000     B-28
001503: 32,7572           00000 27340  2MIN               2DEC     12000      B-28
001504: 32,7574           00077        OCT77              OCT      00077
001505: 32,7575           21450        90SEC32            DEC      9000       B-14
001506: 32,7576           00000 24404  DP105SEC           2DEC     10500      B-28
001507: 32,7600           00000 22434  DP95SEC            2DEC     9500       B-28
001508:


001510:
001511: 32,7602           77576        INITEST            EXIT     0
001512: 32,7603           40646                           CS       FLAGWRD1                              #  TEST IF THIS IS AN INITIAL PASS
001513: 32,7604           74506                           MASK     INITMASK
001514: 32,7605           10000                           CCS      A
001515: 32,7606           07664                           TC       DVMNTEST                              #  IT IS NOT
001516:
001517: 32,7607           40647                           CS       FLAGWRD2                              #  TEST IF BURN IS ABORT AFTER TUMBLE ARRET
001518: 32,7610           76772                           MASK     TABTMASK
001519: 32,7611           10000                           CCS      A
001520: 32,7612           07617                           TC       INITISE                               #  IT IS NOT
001521:
001522: 32,7613           02362                           TC       NEWMODE                               #  SET MAJOR MODE TO POST TUMBLE RECOVERY
001523: 32,7614           00071                           OCT      00071
001524:
001525: 32,7615           37654                           CAF      31.8DEG                               #  TO REGAIN ATTITUDE AFTER TUMBLE SET AN
001526: 32,7616           51442                           TS       LOOKANG                               #  AVERAGE ANGLE TO HORIZON OF 31.8 DEGS.
001527:
001528: 32,7617           04000        INITISE            TC       INTPRET
001529:
001530: 32,7620           75176                           VMOVE    0                                     #  DEFINES TRAJECTORY PLANE FOR YAW
001531: 32,7621           00774                                    VN                                    #    STEERING. USED IN CALCVGB
001532: 32,7622           33107                           STORE    VIGNTION
001533:
001534: 32,7623           76776                           ITC      0                                     #  BRANCH TO VG, B VECTOR COMPUTATIONS
001535: 32,7624           12421                                    CALCVGB
001536:
001537: 32,7625           77576                           EXIT     0
001538:
001539: 32,7626           11446                           CCS      VGCNTR                                #  WAIT FOR SECOND PASS THRU CALCVGB BEFORE
001540: 32,7627           07631                           TC       +2                                    #  COMPUTING THRUST ATTITUDE
001541: 32,7630           07633                           TC       +3
001542:
001543: 32,7631           51446                           TS       VGCNTR
001544: 32,7632           07741                           TC       ENDSER32
001545:
001546: 32,7633           04000                           TC       INTPRET
001547:
001548: 32,7634           76776                           ITC      0
001549: 32,7635           26256                                    BURNINIT
001550:
001551: 32,7636           77576                           EXIT     0
001552:
001553: 32,7637           20017                           INHINT
001554: 32,7640           32146                           CAF      PRIO12                                #  ESTABLISH JOB TO COMPUTE MANEUVER TO
001555: 32,7641           02046                           TC       FINDVAC                               #  BURN INITIAL ATTITUDE
001556: 32,7642           66404                           CADR     ATTIJOB
001557:
001558: 32,7643           34516                           CAF      ONE                                   #  SET VGCNTR FOR TWO PASSES THROUGH
001559: 32,7644           51446                           TS       VGCNTR                                #  CALCVGB BEFORE ISSUINS STEER COMMANDS


001561: 32,7645           37655                           CAF      35DEG                                 #  RESTORE ANGLE TO HORIZON TO 35 DEGS
001562: 32,7646           51442                           TS       LOOKANG
001563:
001564: 32,7647           02276                           TC       PHASCHNG
001565: 32,7650           00402                           OCT      00402
001566:
001567: 32,7651           03430                           TC       FLAG1DWN                              #  REMOVE INIT FLAG
001568: 32,7652           00400                           OCT      00400
001569:
001570: 32,7653           07741                           TC       ENDSER32
001571:
001572: 32,7654           02647        31.8DEG            DEC      0.088333                              #  SCALED AT 1 REV
001573: 32,7655           03071        35DEG              DEC      0.097222
001574: 32,7656     4506               INITMASK           EQUALS   BIT9
001575:
001576: 32,7656           77576        VRFAIL             EXIT     0                                     #  EXIT HERE IF FAILURE TO COMPUTE ABORT VR
001577:
001578: 32,7657           11446                           CCS      VGCNTR                                #  TEST IF THIS IS LAST PASS
001579: 32,7660           07662                           TC       +2
001580: 32,7661           07737                           TC       ENDSHUT                               #  IT IS. DO SHUTDOWN
001581:
001582: 32,7662           51446                           TS       VGCNTR                                #  WAIT FOR MORE
001583: 32,7663           07741                           TC       ENDSER32
001584:
001585: 32,7664           40646        DVMNTEST           CS       FLAGWRD1                              #  TEST IF DV MONITOR IS ENABLED
001586: 32,7665           74512                           MASK     DVMONMSK
001587: 32,7666           10000                           CCS      A
001588: 32,7667           07741                           TC       ENDSER32                              #  IT IS NOT
001589:
001590: 32,7670           04000                           TC       INTPRET
001591:
001592: 32,7671           71174                           ABVAL    2                                     #  TEST IF DELV MAG. EXCEEDS DVMIN
001593: 32,7672           66756                           DSU      BMN
001594: 32,7673           77576                           EXIT
001595: 32,7674           01002                                    DELV
001596: 32,7675           26001                                    DVMIN
001597: 32,7676           25704                                    NODELTAV                              #  IT DOES NOT. START DV MONITOR
001598:
001599: 32,7677           44516                           CS       ONE                                   #  IT DOES. (DVCNTR NORMALLY NEGATIVE)
001600: 32,7700           51447                           TS       DVCNTR
001601:
001602: 32,7701           05654                           TC       BANKCALL
001603: 32,7702           66002                           CADR     STRTEST
001604:
001605: 32,7703           77576        NODELTAV           EXIT     0
001606: 32,7704           11447                           CCS      DVCNTR
001607:
001608: 32,7705           07712                           TC       DVALARM                               #  AFTER FIRST TIME SET ALARM
001609: 32,7706           07717                           TC       SHUTDWN3                              #  5 PASSES UP. PREPARE FOR RE-ENTRY


001611: 32,7707           33532                           CAF      NINE                                  #  FIRST TIME SET DVCNTR FOR 10 PASSES
001612: 32,7710           51447                           TS       DVCNTR
001613:
001614: 32,7711           07741                           TC       ENDSER32
001615:
001616: 32,7712           03007        DVALARM            TC       ALARM
001617: 32,7713           01402                           OCT      01402
001618:
001619: 32,7714           11447                           CCS      DVCNTR
001620: 32,7715           51447                           TS       DVCNTR
001621:
001622: 32,7716           07741                           TC       ENDSER32
001623:
001624: 32,7717           40647        SHUTDWN3           CS       FLAGWRD2
001625: 32,7720           76416                           MASK     SPS1MASK
001626: 32,7721           10000                           CCS      A
001627: 32,7722           07735                           TC       SHUTDWN4                              #  SHUT DOWN IF NOT DOING SPS1 BURN
001628:
001629: 32,7723           20017                           INHINT                                         #  CALL ON ENGINE-OFF IMMEDIATELY IF SPS1
001630: 32,7724           34516                           CAF      ONE
001631: 32,7725           02173                           TC       WAITLIST
001632: 32,7726           64710                           CADR     ENGINOFF
001633: 32,7727           20016                           RELINT
001634:
001635: 32,7730           03430                           TC       FLAG1DWN                              #  REMOVE STEER FLAG
001636: 32,7731           00010                           OCT      00010
001637:
001638: 32,7732           02276                           TC       PHASCHNG
001639: 32,7733           04104                           OCT      04104
001640:
001641: 32,7734           07741                           TC       ENDSER32
001642:
001643: 32,7735           03416        SHUTDWN4           TC       FLAG1UP                               #  ENABLE FREE-FALL INTERRUPT
001644: 32,7736           01000                           OCT      01000
001645:
001646: 32,7737           05654        ENDSHUT            TC       BANKCALL
001647: 32,7740           67037                           CADR     SHUTDOWN
001648:
001649: 32,7741           05654        ENDSER32           TC       BANKCALL                              #  EXIT FROM SERVICER FROM BANK 32
001650: 32,7742           66241                           CADR     ENDSERV
001651:
001652: 33,6000                                           SETLOC   66000
001653: 33,6000     4512               DVMONMSK           EQUALS   BIT5
001654: 33,6000           00005 06565  DVMIN              2DEC     0.000318008                            #  2FT/S SCALED AT 19.16928 M/CS
001655:
001656: 33,6002           40646        STRTEST            CS       FLAGWRD1                              #  TEST IF STEER FLAG SET
001657: 33,6003           74513                           MASK     BIT4
001658: 33,6004           10000                           CCS      A
001659: 33,6005           06241                           TC       ENDSERV                               #  IT IS NOT


001661: 33,6006           04000                           TC       INTPRET
001662:
001663: 33,6007           76776                           ITC      0
001664: 33,6010           12421                                    CALCVGB
001665:
001666: 33,6011           77576                           EXIT     0
001667:
001668: 33,6012           02276                           TC       PHASCHNG
001669: 33,6013           00505                           OCT      00505
001670:
001671: 33,6014           11446        REDO5.5            CCS      VGCNTR
001672: 33,6015           06017                           TC       +2                                    #  BEFORE TESTING VG AND GENERATING STEERIN
001673: 33,6016           06034                           TC       JUMP10                                #  COMMANDS
001674:
001675: 33,6017           51360                           TS       ERRORSUM                              #  ZERO STEER ERROR SUM
001676: 33,6020           51361                           TS       ERRORSUM   +1
001677: 33,6021           51362                           TS       ERRORSUM   +2
001678: 33,6022           51363                           TS       ERRORSUM   +3
001679: 33,6023           51364                           TS       ERRORSUM   +4
001680: 33,6024           51365                           TS       ERRORSUM   +5
001681:
001682: 33,6025           36033                           CAF      MDTINIT
001683: 33,6026           51444                           TS       MDT
001684: 33,6027           51445                           TS       MDT        +1
001685:
001686: 33,6030           11446                           CCS      VGCNTR
001687: 33,6031           51446                           TS       VGCNTR
001688:
001689: 33,6032           06241                           TC       ENDSERV
001690:
001691: 33,6033           00076        MDTINIT            DEC      0.00381                               #  16FT/S/S FOR 2.5 SECS AT 2(+5)M/CS
001692:
001693: 33,6034           03452        JUMP10             TC       FLAG2DWN                              #  REMOVE CALC FLAG (KILLS ATTITUDE MAN-
001694: 33,6035           02000                           OCT      02000                                 #  EUVER IF STILL ACTIVE)
001695:
001696: 33,6036           04000                           TC       INTPRET
001697:
001698: 33,6037           75775                           VXSC     1
001699: 33,6040           46753                           BVSU     UNIT
001700: 33,6041           01002                                    DELV
001701: 33,6042           21742                                    KPIP
001702: 33,6043           01411                                    CBDT
001703: 33,6044           33403                           STORE    UNITMDT
001704:
001705: 33,6045           47575                           NOLOD    1                                     #  TEST IF VG INCREASING WITH THRUST
001706: 33,6046           42616                           DOT      BPL
001707: 33,6047           01353                                    VG
001708: 33,6050           26235                                    VGALARM                               #  IT IS. BRANCH TO CUT ENGINE AND WAIT
001709: 33,6051           32033                           STORE    26D                                   #  VG ACTUAL


001711: 33,6052           70776                           DAD      0                                     #  SUM TWO INTERVALS OF MDT
001712: 33,6053           00037                                    30D
001713: 33,6054           01445                                    MDT
001714:
001715: 33,6055           64773        JUMP9              DMP      3                                     #  RESCALE VG ACTUAL TO 2(+5)M/CS
001716: 33,6056           63746                           TSLT     BOV
001717: 33,6057           62746                           DDV      BOV                                   #  IF NO OVER FLOW ON DIVISION, LESS THAN
001718: 33,6060           64772                           DMP      ITC                                   #  2 INTERVALS OF VG LEFT
001719: 33,6061           00033                                    26D
001720: 33,6062           26163                                    0.995
001721: 33,6063           00004                                    3
001722: 33,6064           26072                                    STEERLAW
001723: 33,6065           77777                                    -
001724: 33,6066           26072                                    STEERLAW
001725: 33,6067           01030                                    DELTAT
001726: 33,6070           26173                                    SETTGO                                #  BRANCH TO SET TIME-TO-GO TO CUT-OFF
001727:
001728: 33,6071           45176        STEERLAW           DMOVE    0                                     #  SAVE NEW VALUE OF MDT
001729: 33,6072           00037                                    30D
001730: 33,6073           33445                           STORE    MDT
001731:
001732: 33,6074           64776                           DMP      0
001733: 33,6075           26165                                    K1STEER                               #  =(0.815...)(STEER GAIN)
001734: 33,6076           01030                                    DELTAT
001735:
001736: 33,6077           71173                           ABVAL    3                                     #  STEERING CROSS PRODUCT COMPUTED HERE
001737: 33,6100           57706                           TSLC     BDDV
001738: 33,6101           75606                           VXSC     VXV
001739: 33,6102           44376                           VSLT*
001740: 33,6103           01353                                    VG
001741: 33,6104           00050                                    X2
001742: 33,6105           77777                                    -
001743: 33,6106           01353                                    VG
001744: 33,6107           01403                                    UNITMDT
001745: 33,6110           00002                                    0,2
001746: 33,6111           33345                           STORE    STEERROR                              #  FIRST TERM IN STEERLAW OUTPUT. SCALED
001747:                                                                                                  #  AT ONE REVOLUTION
001748: 33,6112           47575                           NOLOD    1                                     #  INCREMENT SUM OF STEER ERRORS
001749: 33,6113           75642                           VXSC     VAD
001750: 33,6114           26167                                    K2STEER                               #  =(INTEGRATOR GAIN)/(STEER GAIN)
001751: 33,6115           01361                                    ERRORSUM
001752:
001753: 33,6116           47574                           NOLOD    2                                     #  TEST IF MAGNITUDE OF INTEGRATED STEER
001754: 33,6117           71132                           ABVAL    DSU                                   #  ERROR EXCEEDS MAX ALLOWABLE
001755: 33,6120           43776                           BPL
001756: 33,6121           26171                                    ERRORMAX
001757: 33,6122           26126                                    SUMPOINT
001758:
001759: 33,6123           75176                           VMOVE    0
001760: 33,6124           33361                           STORE    ERRORSUM                              #  STORE NEW STEER ERROR SUM


001762:
001763: 33,6125           50775        SUMPOINT           VAD      1                                     #  SUM ERROR AND INTEGRATED ERROR TERMS
001764: 33,6126           76572                           RTB      ITC
001765: 33,6127           01345                                    STEERROR
001766: 33,6130           01361                                    ERRORSUM
001767: 33,6131           20265                                    FRESHPD
001768: 33,6132           12375                                    CDUDRIVE                              #  BRANCH WITH TOTAL STEERLAW OUTPUT IN VAC
001769:                                                                                                  #  SCALED AT ONE REVOLUTION
001770: 33,6133           44775        STREXIT            VSLT     1
001771: 33,6134           47175                           COMP     EXIT                                  #  RESCALE VG TO 2(+5)M/CS FOR DISPLAY
001772: 33,6135           01353                                    VG
001773: 33,6136           00003                                    2
001774:
001775: 33,6137           03302                           TC       GRABDSP                               #  TRY TO GRAB DISPLAY
001776: 33,6140           06156                           TC       NODISP                                #  ALREADY GRABBED. SKIP VG DISPLAY
001777:
001778: 33,6141           20067                           INDEX    FIXLOC                                #  LOAD UPPER REGISTERS OF VG INTO DSPTEM1
001779: 33,6142           40040                           CS       VAC
001780: 33,6143           50616                           TS       DSPTEM1
001781:
001782: 33,6144           20067                           INDEX    FIXLOC
001783: 33,6145           40042                           CS       VAC        +2
001784: 33,6146           50617                           TS       DSPTEM1    +1
001785:
001786: 33,6147           20067                           INDEX    FIXLOC
001787: 33,6150           40044                           CS       VAC        +4
001788: 33,6151           50620                           TS       DSPTEM1    +2
001789:
001790: 33,6152           36157                           CAF      V06N40
001791: 33,6153           03100                           TC       NVSUB
001792: 33,6154           03250                           TC       RELDSPON
001793:
001794: 33,6155           03362                           TC       FREEDSP
001795:
001796: 33,6156           06241        NODISP             TC       ENDSERV
001797:
001798: 33,6157           00640        V06N40             OCT      00640                                 #  VERB 06 NOUN 40
001799: 33,6160           06057 03250  1.523              2DEC     1.523      B-3
001800: 33,6162           37656 02437  0.995              2DEC     0.995
001801: 33,6164           03204 33423  K1STEER            2DEC     0.101859164                            #  (STEER GAIN =1/8)
001802: 33,6166           02436 27024  K2STEER            2DEC     0.08                                  #  (INTEGRATOR GAIN =0.01)
001803: 33,6170           00026 30133  ERRORMAX           2DEC     0.001388888                            #  1 DEGREE SCALED AT 2 REVS
001804:
001805: 33,6172           47574        SETTGO             NOLOD    2                                     #  COME HERE TO SET ENGINE-OFF CALL
001806: 33,6173           56633                           TSRT     COMP
001807: 33,6174           43575                           TEST     EXIT
001808: 33,6175           00005                                    4                                     #  C(MPAC) = TIME-TO-CUTOFF SINCE PIPTIME


001810: 33,6176           00035                                    STEERFLG                              #  SCALED AT 2(+14) CS
001811: 33,6177           26134                                    STREXIT
001812:
001813: 33,6200           30115                           XCH      MPAC
001814: 33,6201           51460                           TS       LONGTIME                              #  SAVE MPAC  (USED IN RESTARTS)
001815:
001816: 33,6202           20017        REDO4.1            INHINT
001817: 33,6203           40036                           CS       TIME1
001818: 33,6204           50666                           TS       TBASE4
001819: 33,6205           61465                           AD       PIPTIME    +1
001820: 33,6206           10000                           CCS      A
001821: 33,6207           64500                           AD       BIT15
001822: 33,6210           06213                           TC       +3
001823: 33,6211           64516                           AD       ONE
001824: 33,6212           40000                           COM
001825:
001826: 33,6213           61460                           AD       LONGTIME                              #  (TEMP FOR MPAC)
001827: 33,6214           61560                           AD       TDECAY                                #  EFFECTIVE THRUST DECAY TIME
001828: 33,6215           51461                           TS       LONGTIME   +1
001829: 33,6216           10000                           CCS      A                                     #  TEST FOR - OR 0 WAITLIST CALLS
001830: 33,6217           06222                           TC       +3
001831: 33,6220           06222                           TC       +2
001832: 33,6221           35501                           CAF      ZERO
001833: 33,6222           64516                           AD       ONE
001834: 33,6223           02173                           TC       WAITLIST
001835: 33,6224           64710                           CADR     ENGINOFF
001836:
001837: 33,6225           02276                           TC       PHASCHNG
001838: 33,6226           00104                           OCT      00104
001839:
001840: 33,6227           03430                           TC       FLAG1DWN                              #  REMOVE STEER FLAG
001841: 33,6230           00010                           OCT      00010
001842:
001843: 33,6231           02276                           TC       PHASCHNG
001844: 33,6232           00204                           OCT      00204
001845:
001846: 33,6233           06241                           TC       ENDSERV
001847:
001848: 33,6234           77576        VGALARM            EXIT     0
001849: 33,6235           03007                           TC       ALARM
001850: 33,6236           01401                           OCT      01401
001851:
001852: 33,6237           05654                           TC       BANKCALL
001853: 33,6240           65717                           CADR     SHUTDWN3
001854:
001855: 33,6241           11030        ENDSERV            CCS      DELTAT     +1                         #  IF BIT1 PRESENT IN DELTAT +1, SET DELTAT
001856: 33,6242           36252                           CAF      HALFSEC                               #  1/PIPADT TO 2.5SECS (FOR ABORT STEERING)
001857: 33,6243           66253                           AD       TWOSEC
001858: 33,6244           51027                           TS       DELTAT
001859: 33,6245           60000                           DOUBLE


001861: 33,6246           50755                           TS       1/PIPADT
001862:
001863: 33,6247           02276                           TC       PHASCHNG
001864: 33,6250           00105                           OCT      00105
001865:
001866: 33,6251           02124                           TC       ENDOFJOB
001867:
001868: 33,6252           03100        HALFSEC            DEC      50         B-9
001869: 33,6253           14400        TWOSEC             DEC      200        B-9
001870: 33,6254           00007        ALLABORT           OCT      7
001871:


001873:
001874: 33,6255           53574        BURNINIT           AXC,1    2                                     #  C(X1)= 0  (TABT,ABRT,SPS1)
001875: 33,6256           45415                           ITA      TEST                                  #       =-2  (SPS2)
001876: 33,6257           53576                           AXC,1
001877: 33,6260           00001                                    0
001878: 33,6261           00052                                    S2
001879: 33,6262           00054                                    SPS2FLAG
001880: 33,6263           26266                                    +2
001881: 33,6264           00003                                    2
001882:
001883: 33,6265           76776                           ITC      0                                     #  COMPUTE DESIRED THRUST DIRECTION
001884: 33,6266           13402                                    CALCXSC
001885:
001886: 33,6267           76575                           RTB      1                                     #  SET UP CG ROTATION MATRIX IN PD
001887: 33,6270           42176                           SMOVE*
001888: 33,6271           20271                                    ZEROVAC
001889: 33,6272           03621                                    CGZ,1
001890: 33,6273           32007                           STORE    6
001891:
001892: 33,6274           47575                           NOLOD    1
001893: 33,6275           47065                           COMP     AST,1
001894: 33,6276           00007                                    6
001895: 33,6277           32003                           STORE    2
001896:
001897: 33,6300           42176                           SMOVE*   0
001898: 33,6301           03611                                    CGY,1
001899: 33,6302           32005                           STORE    4
001900:
001901: 33,6303           47575                           NOLOD    1
001902: 33,6304           47165                           COMP     AXT,1
001903: 33,6305           00023                                    18D
001904: 33,6306           32015                           STORE    12D
001905:
001906: 33,6307           74174        REPEAT2            VMOVE*   2                                     #  COMPUTE DESIRED SPACECRAFT ATTITUDE
001907: 33,6310           51640                           VXM      VAD*                                  #  MATRIX FROM DESIRED THRUST ATT. MATRIX
001908: 33,6311           73176                           UNIT
001909: 33,6312           00045                                    18D,1
001910: 33,6313           01367                                    XSC
001911: 33,6314           03021                                    XSC        +18D,1
001912: 33,6315           37065                           STORE    XSCD       +18D,1
001913:
001914: 33,6316           51575                           TIX,1    1
001915: 33,6317           44576                           ITCI
001916: 33,6320           26310                                    REPEAT2
001917: 33,6321           00052                                    S2


001919:
001920: 33,6322           04000        ROLLJOB            TC       INTPRET
001921:
001922: 33,6323           75575                           AXT,1    1                                     #  GET SIN,COS OF THETAD,+1,+2
001923: 33,6324           54572                           AST,2    ITC
001924: 33,6325           00007                                    6
001925: 33,6326           26360                                    ROLLEXIT
001926: 33,6327           12013                                    THETRIG
001927:
001928: 33,6330           76776                           ITC      0                                     #  COMPUTE NAV. BASE CORRDINATES
001929: 33,6331           12110                                    CALCSMNB
001930:
001931: 33,6332           75776                           VXSC     0                                     #  COMPUTE XSC
001932: 33,6333           01477                                    XNB
001933: 33,6334           12241                                    COS33
001934:
001935: 33,6335           75774                           VXSC     2
001936: 33,6336           50615                           VAD      TEST
001937: 33,6337           47176                           COMP
001938: 33,6340           01513                                    ZNB
001939: 33,6341           12237                                    SIN33
001940: 33,6342           77777                                    -
001941: 33,6343           00054                                    SPS2FLAG                              #  IF SPS2, INVERT XSC
001942: 33,6344           26347                                    HEADWN1
001943: 33,6345           32027                           STORE    22D
001944:
001945: 33,6346           47573        HEADWN1            NOLOD    3
001946: 33,6347           41753                           VXV      UNIT                                  #  =KR(TVC)(UNIT(XSC*RN)*YSC), WHERE
001947: 33,6350           41766                           VXV      VXSC                                  #        DT(MAX) = 10 SECS,
001948: 33,6351           44772                           VSLT     ITC                                   #        MAX ROLL GAIN = 1.0
001949: 33,6352           00766                                    RN
001950: 33,6353           01505                                    YNB                                   #  ( =YSC)
001951: 33,6354           26403                                    KR(TVC)                               #  TVC ROLL CONTROL GAIN
001952: 33,6355           00004                                    3
001953: 33,6356           12402                                    CDUDRVE2                              #  SUBENTRY OF CDUDRIVE
001954:
001955: 33,6357           77576        ROLLEXIT           EXIT     0
001956:
001957: 33,6360           40646                           CS       FLAGWRD1                              #  TEST IF STEER FLAG SET BEFORE SETTING
001958: 33,6361           74513                           MASK     BIT4                                  #  BURN MAJOR MODE
001959: 33,6362           10000                           CCS      A
001960: 33,6363           02124                           TC       ENDOFJOB
001961:
001962: 33,6364           34512                           CAF      BIT5                                  #  TEST IF BURN SWITCH IS SET TO SPS2
001963: 33,6365           70647                           MASK     FLAGWRD2
001964: 33,6366           10000                           CCS      A
001965: 33,6367           06377                           TC       SPS2MODE                              #  IT IS
001966:
001967: 33,6370           40647                           CS       FLAGWRD2                              #  TEST IF BURN IS SPS1
001968: 33,6371           74513                           MASK     BIT4
001969: 33,6372           10000                           CCS      A


001971: 33,6373           02124                           TC       ENDOFJOB                              #  IT IS NOT
001972:
001973: 33,6374           02362                           TC       NEWMODE                               #  SET MAJOR MODE TO SPS1
001974: 33,6375           00041                           OCT      00041
001975: 33,6376           02124                           TC       ENDOFJOB
001976:
001977: 33,6377           02362        SPS2MODE           TC       NEWMODE                               #  SET MAJOR MODE TO SPS2
001978: 33,6400           00042                           OCT      00042
001979:
001980: 33,6401           02124                           TC       ENDOFJOB
001981:
001982: 33,6402           00516 07363  KR(TVC)            2DEC     0.0204                                #  ROLL GAIN =0.05, DT =5.0 SECS
001983:


001985:
001986:                                                                                                  #  THIS ROUTINE CONTROLS THE USE OF CALCMANU IN COMPUTING, TIMING AND PERFORMING THE SEQUENCE OF MANEUVERS DURING
001987:                                                                                                  #  A LARGE ATTITUDE MANEUVER. FLIGHT 501 INVOLVES SUCH A MANEUVER WHEN ORIENTING TO
001988:                                                                                                  #        1.  ABORT BURN INITIAL ATTITUDE AFTER A TUMBLE ARREST
001989:                                                                                                  #        2.  NOMINAL FIRST BURN INITIAL ATTITUDE
001990:                                                                                                  #        3.  LOCAL VERTICAL AFTER NOMINAL FIRST BURN
001991:                                                                                                  #        4.  NOMINAL SECOND BURN INITIAL ATTITUDE
001992:                                                                                                  #        5.  SM/CM SEPARATION ATTITUDE
001993:                                                                                                  #        6.  CM PRE-ENTRY ATTITUDE
001994:
001995:
001996:
001997: 33,6404           05654        ATTIJOB            TC       BANKCALL
001998: 33,6405           30223                           CADR     IMUATTC
001999:
002000: 33,6406           03516                           TC       SETHETAD
002001:
002002: 33,6407           05654                           TC       BANKCALL
002003: 33,6410           30331                           CADR     IMUSTALL
002004: 33,6411           03066                           TC       CURTAINS
002005:
002006: 33,6412           04000                           TC       INTPRET
002007:
002008: 33,6413           76776        ATTIJOB1           ITC      0
002009: 33,6414           26500                                    GETMANU
002010:
002011: 33,6415           77576                           EXIT     0
002012:
002013: 33,6416           20017                           INHINT
002014: 33,6417           34516                           CAF      0.01SEC
002015: 33,6420           02173                           TC       WAITLIST
002016: 33,6421           66525                           CADR     DOMANU
002017:
002018: 33,6422           02124                           TC       ENDOFJOB
002019:
002020:
002021:
002022: 33,6423           04000        ATTIJOB2           TC       INTPRET
002023:
002024: 33,6424           76776                           ITC      0
002025: 33,6425           26500                                    GETMANU
002026:
002027: 33,6426           77576                           EXIT     0
002028: 33,6427           02124                           TC       ENDOFJOB
002029:
002030:
002031:
002032: 33,6430           47576        SNAPOUT            NOLOD    0
002033: 33,6431           32701                           STORE    THETAD
002034:
002035: 33,6432           43575                           TEST     1                                     #  TEST IF SHTDN FLAG SET (I.E. HAS FREE-


002037: 33,6433           43575                           TEST     EXIT                                  #  FALL INTERUPT OCCURRED)
002038: 33,6434           00025                                    SHTDNFLG
002039: 33,6435           26447                                    JUMP7
002040: 33,6436           00043                                    CDUXFLAG                              #  TEST IF CDUXFLAG SET (I.E. HAS CM/SM
002041: 33,6437           26473                                    ENDMANU                               #  SEPARATION OCCURRED)
002042:
002043: 33,6440           03416                           TC       FLAG1UP                               #  SET ENTRY FLAG
002044: 33,6441           00004                           OCT      00004
002045:
002046: 33,6442           44516                           CS       ONE
002047: 33,6443           02312                           TC       NEWPHASE
002048: 33,6444           00003                           OCT      00003
002049:
002050: 33,6445           02124                           TC       ENDOFJOB
002051:
002052: 33,6446           43575        JUMP7              TEST     1
002053: 33,6447           77576                           EXIT
002054: 33,6450           00022                                    COASTFLG
002055: 33,6451           26460                                    JUMP6
002056:
002057: 33,6452           03416                           TC       FLAG1UP                               #  SET SOAK FLAG FOR BEGINNING OF CONTROL
002058: 33,6453           10000                           OCT      10000                                 #    AT COLD SOAK ATTITUDE
002059:
002060: 33,6454           02362                           TC       NEWMODE
002061: 33,6455           00022                           OCT      00022
002062:
002063: 33,6456           06473                           TC       ENDMANU    +1
002064:
002065: 33,6457           43576        JUMP6              TEST     0
002066: 33,6460           00056                                    TABTFLAG
002067: 33,6461           26473                                    ENDMANU
002068:
002069: 33,6462           77576                           EXIT     0
002070:
002071: 33,6463           20017                           INHINT
002072: 33,6464           34516                           CAF      0.01SEC
002073: 33,6465           02173                           TC       WAITLIST
002074: 33,6466           64527                           CADR     ATTCNOFF
002075:
002076: 33,6467           35503                           CAF      TWO                                   #  SET VGCNTR FOR THREE PASSES THROUGH
002077: 33,6470           51446                           TS       VGCNTR                                #  CALCVGB BEFORE STARTING ABORT STEERING
002078:
002079: 33,6471           06473                           TC       ENDMANU    +1
002080:
002081: 33,6472           77576        ENDMANU            EXIT     0
002082:
002083: 33,6473           44516                           CS       ONE
002084: 33,6474           02312                           TC       NEWPHASE
002085: 33,6475           00002                           OCT      2


002087: 33,6476           02124                           TC       ENDOFJOB
002088:


002090:
002091: 33,6477           45575        GETMANU            ITA      1
002092: 33,6500           76776                           ITC
002093: 33,6501           01475                                    EXITCAD1
002094: 33,6502           14001                                    CALCMANU
002095:
002096: 33,6503           43576                           TEST     0
002097: 33,6504           00046                                    CALCFLAG
002098: 33,6505           26431                                    SNAPOUT
002099:
002100: 33,6506           53574                           AXC,1    2
002101: 33,6507           43455                           TEST     AXC,1
002102: 33,6510           43455                           TEST     AXC,1
002103: 33,6511           00001                                    0
002104: 33,6512           00045                                    ROLLFLAG
002105: 33,6513           26521                                    SETDTH
002106: 33,6514           00003                                    2
002107: 33,6515           00043                                    CDUXFLAG
002108: 33,6516           26521                                    SETDTH
002109: 33,6517           00005                                    4
002110:
002111: 33,6520           44176        SETDTH             DMOVE*   0
002112: 33,6521           33461                                    DTH,1
002113: 33,6522           33453                           STORE    DTHETA
002114:
002115: 33,6523           44576                           ITCI     0
002116: 33,6524           01475                                    EXITCAD1
002117:
002118:
002119:
002120: 33,6525     4516               0.01SEC            EQUALS   BIT1
002121:


002123:
002124: 33,6525           03440        DOMANU             TC       FLAG2UP                               #  SET DOMANU FLAG
002125: 33,6526           01000        DOMANMSK           OCT      01000
002126:
002127: 33,6527           40647        DOMANU1            CS       FLAGWRD2                              #  KILL DOMANU IF CALC FLAG NOT SET
002128: 33,6530           74504                           MASK     BIT11                                 #  (CALCMASK)
002129: 33,6531           10000                           CCS      A
002130: 33,6532           06552                           TC       DOMANOFF
002131:
002132: 33,6533           36526                           CAF      DOMANMSK                              #  TEST IF DOMAN FLAG SET
002133: 33,6534           70647                           MASK     FLAGWRD2
002134: 33,6535           10000                           CCS      A
002135: 33,6536           06543                           TC       SETMANU                               #  IT IS
002136:
002137: 33,6537           36556                           CAF      TPAD       +1                         #  IT IS NOT. START NEXT MANEUVER IN TPAD
002138: 33,6540           02173                           TC       WAITLIST                              #  SECS
002139: 33,6541           66525                           CADR     DOMANU
002140:
002141: 33,6542           02256                           TC       TASKOVER
002142:
002143: 33,6543           32156        SETMANU            CAF      PRIO23                                #  ESTABLISH MANUJOB
002144: 33,6544           02046                           TC       FINDVAC
002145: 33,6545           66560                           CADR     MANUJOB
002146:
002147: 33,6546           36557                           CAF      0.5SEC                                #  RECALL DOMANU1 IN 0.5 SECS
002148: 33,6547           02173                           TC       WAITLIST
002149: 33,6550           66527                           CADR     DOMANU1
002150:
002151: 33,6551           02256                           TC       TASKOVER
002152:
002153: 33,6552           03452        DOMANOFF           TC       FLAG2DWN                              #  REMOVE DOMANU FLAG
002154: 33,6553           01000                           OCT      01000
002155:
002156: 33,6554           02256                           TC       TASKOVER
002157:
002158:
002159:
002160: 33,6555           00000        TPAD               DEC      0.0
002161: 33,6556           00764        5SEC               DEC      500        B-14
002162: 33,6557           00062        0.5SEC             DEC      50         B-14
002163:
002164:
002165:
002166: 33,6560           04000        MANUJOB            TC       INTPRET
002167:
002168: 33,6561           66775                           DSU      1                                     #  TEST IF THETAMAN LESS THAN DTHETA.
002169: 33,6562           43633                           BPL      COMP
002170: 33,6563           01453                                    DTHETA
002171: 33,6564           01455                                    THETAMAN
002172: 33,6565           26572                                    JUMP4                                 #  IT IS. STORE REMAINING THETAMAN
002173: 33,6566           33455                           STORE    THETAMAN


002175: 33,6567           76776                           ITC      0
002176: 33,6570           26601                                    DRIVECDU
002177:
002178: 33,6571           45176        JUMP4              DMOVE    0                                     #  STORE REMAINING THETAMAN IN DTHETA
002179: 33,6572           01455                                    THETAMAN
002180: 33,6573           33453                           STORE    DTHETA
002181:
002182: 33,6574           77576                           EXIT     0
002183:
002184: 33,6575           03452                           TC       FLAG2DWN                              #  REMOVE DOMAN FLAG
002185: 33,6576           01000                           OCT      01000
002186:
002187: 33,6577           04000                           TC       INTPRET
002188:
002189: 33,6600           75775        DRIVECDU           VXSC     1                                     #  FORM INCREMENTAL MANEUVER VECTOR
002190: 33,6601           44772                           VSLT     ITC
002191: 33,6602           01323                                    WC
002192: 33,6603           01453                                    DTHETA
002193: 33,6604           00002                                    1
002194: 33,6605           12375                                    CDUDRIVE
002195:
002196: 33,6606           43576                           TEST     0                                     #  TEST IF DOMAN FLAG SET
002197: 33,6607           00047                                    DOMANFLG
002198: 33,6610           26614                                    NEXTMAN                               #  IT IS NOT. GET NEXT MANEUVER
002199:
002200: 33,6611           77576                           EXIT     0
002201: 33,6612           02124                           TC       ENDOFJOB
002202:
002203: 33,6613           77576        NEXTMAN            EXIT     0
002204:
002205: 33,6614           20017                           INHINT
002206: 33,6615           32146                           CAF      PRIO12                                #  ESTABLISH ATTIJOB2 TO COMPUTE NEXT MAN.
002207: 33,6616           02046                           TC       FINDVAC
002208: 33,6617           66423                           CADR     ATTIJOB2
002209:
002210: 33,6620           02124                           TC       ENDOFJOB
002211:


002213:
002214: 33,6621           02362        SOAKINIT           TC       NEWMODE                               #  SET MAJOR MODE TO MANEUVER TO COLDSOAK
002215: 33,6622           00021                           OCT      00021
002216:
002217: 33,6623           04000                           TC       INTPRET
002218:
002219: 33,6624           43176                           SMOVE    0
002220: 33,6625           01676                                    ANGLEZ                                #  COLDSOAK -  Z GIMBAL ANGLE
002221:
002222: 33,6626           43176                           SMOVE    0
002223: 33,6627           01675                                    ANGLEY                                #  COLDSOAK -  Y GIMBAL ANGLE
002224:
002225: 33,6630           43175                           SMOVE    1
002226: 33,6631           41033                           VDEF     COMP
002227: 33,6632           01674                                    ANGLEX                                #  COLDSOAK -  X GIMBAL ANGLE
002228: 33,6633           33315                           STORE    CDUTEMP
002229:
002230: 33,6634           75575                           AXT,1    1
002231: 33,6635           76776                           ITC
002232: 33,6636           00007                                    6
002233: 33,6637           12041                                    SINCOS
002234:
002235: 33,6640           76776                           ITC      0
002236: 33,6641           12110                                    CALCSMNB                              #  NAV BASE IN SM COORDINATES
002237:
002238: 33,6642           76776                           ITC      0
002239: 33,6643           12213                                    CALCNBSC                              #  SC IN SM COORDINATES
002240:
002241: 33,6644           75176                           VMOVE    0
002242: 33,6645           01367                                    XSC
002243: 33,6646           33411                           STORE    XSCD
002244:
002245: 33,6647           75176                           VMOVE    0
002246: 33,6650           01375                                    YSC
002247: 33,6651           33417                           STORE    YSCD
002248:
002249: 33,6652           75176                           VMOVE    0
002250: 33,6653           01403                                    ZSC
002251: 33,6654           33425                           STORE    ZSCD
002252:
002253: 33,6655           76776                           ITC      0                                     #  BRANCH TO DO MANEUVER
002254: 33,6656           26414                                    ATTIJOB1
002255:


002257:
002258: 33,6657           45501        SOAKTASK           CS       ZERO                                  #  COME HERE FIRST TIME ONLY. CLEAR OUT
002259: 33,6660           51001                           TS       DELV                                  #  DELV FOR FREE-FALL COMPUTATIONS
002260: 33,6661           51002                           TS       DELV       +1
002261: 33,6662           51003                           TS       DELV       +2
002262: 33,6663           51004                           TS       DELV       +3
002263: 33,6664           51005                           TS       DELV       +4
002264: 33,6665           51006                           TS       DELV       +5
002265:
002266: 33,6666           34500        SOAKTSK1           CAF      BIT15                                 #  TEST IF COAST FLAG SET
002267: 33,6667           70646                           MASK     FLAGWRD1
002268: 33,6670           10000                           CCS      A
002269: 33,6671           03062                           TC       CCSHOLE
002270: 33,6672           02256                           TC       TASKOVER
002271:
002272: 33,6673           35362                           CAF      SEVEN
002273: 33,6674           02312                           TC       NEWPHASE
002274: 33,6675           00005                           OCT      0005
002275:
002276: 33,6676           40036        REDO5.7            CS       TIME1
002277: 33,6677           50667                           TS       TBASE5
002278:
002279: 33,6700           34513                           CAF      EIGHT
002280: 33,6701           02312                           TC       NEWPHASE
002281: 33,6702           00005                           OCT      00005
002282:
002283: 33,6703           36712                           CAF      2SEC33
002284: 33,6704           02173                           TC       WAITLIST
002285: 33,6705           66666                           CADR     SOAKTSK1
002286:
002287: 33,6706           32147                           CAF      PRIO13
002288: 33,6707           02046                           TC       FINDVAC
002289: 33,6710           66713                           CADR     SOAKJOB
002290:
002291: 33,6711           02256                           TC       TASKOVER
002292:
002293: 33,6712           00310        2SEC33             DEC      200        B-14
002294:


002296:
002297: 33,6713           40646        SOAKJOB            CS       FLAGWRD1                              #  TEST SOAKFLAG
002298: 33,6714           74502                           MASK     BIT13
002299: 33,6715           10000                           CCS      A
002300: 33,6716           07030                           TC       SOAKEXIT                              #  SOAKFLAG OFF
002301: 33,6717           04000                           TC       INTPRET                               #   SOAKFLAG ON
002302:
002303: 33,6720           45176                           DMOVE    0                                     #  SET DELTAT TO 4 SECS FOR ORBITAL INT.
002304: 33,6721           27036                                    DT4SEC
002305: 33,6722           33030                           STORE    DELTAT
002306:
002307: 33,6723           75176                           VMOVE    0                                     #  SAVE VRECT AND RRECT IN CASE OF RESTARTS
002308: 33,6724           01101                                    RRECT
002309: 33,6725           33656                           STORE    RRECCMEM
002310:
002311: 33,6726           75176                           VMOVE    0
002312: 33,6727           01107                                    VRECT
002313: 33,6730           33664                           STORE    VRECCMEM
002314:
002315: 33,6731           77576                           EXIT     0
002316: 33,6732           02276                           TC       PHASCHNG
002317: 33,6733           01205                           OCT      01205
002318:
002319: 33,6734           03430        REDO5.10           TC       FLAG1DWN                              #  REMOVE COAST, SOAK FLAGS
002320: 33,6735           50000                           OCT      50000
002321:
002322: 33,6736           04000                           TC       INTPRET
002323:
002324: 33,6737           75176                           VMOVE    0                                     #  RESTORE RRECT AND VRECT FROM CMEMORY.
002325: 33,6740           01656                                    RRECCMEM
002326: 33,6741           33101                           STORE    RRECT
002327:
002328: 33,6742           75176                           VMOVE    0
002329: 33,6743           01664                                    VRECCMEM
002330: 33,6744           33107                           STORE    VRECT
002331:
002332: 33,6745           76776                           ITC      0                                     #  BRANCH TO DO ORBITAL INTEGRATION
002333: 33,6746           20001                                    AVETOMD1
002334:
002335: 33,6747           75175                           VMOVE    1
002336: 33,6750           44776                           VSLT
002337: 33,6751           01231                                    RIG-4SEC
002338: 33,6752           00002                                    RSCALE     -15D
002339: 33,6753           32766                           STORE    RN                                    #  SET RN TO 4 SECS BEFORE IGNITION
002340:
002341: 33,6754           76575                           RTB      1
002342: 33,6755           76776                           ITC
002343: 33,6756           20265                                    FRESHPD
002344: 33,6757           21643                                    CALCGRAV
002345:
002346: 33,6760           75176                           VMOVE    0


002348: 33,6761           01107                                    VIGNTION
002349: 33,6762           32774                           STORE    VN                                    #  SET VN AT IGNITION
002350:
002351: 33,6763           75575                           AXT,1    1                                     #  GET VR AT 4 SECS BEFORE IGNITION
002352: 33,6764           67572                           SXA,1    ITC
002353: 33,6765           12462                                    501SPS2
002354: 33,6766           01471                                    VRCADR
002355: 33,6767           12421                                    CALCVGB
002356:
002357: 33,6770           75175                           VMOVE    1
002358: 33,6771           44776                           VSLT
002359: 33,6772           01101                                    RIGNTION
002360: 33,6773           00002                                    RSCALE     -15D
002361: 33,6774           32766                           STORE    RN                                    #  SET RN AT IGNITION
002362:
002363: 33,6775           76776                           ITC      0
002364: 33,6776           21643                                    CALCGRAV
002365:
002366: 33,6777           76776                           ITC      0
002367: 33,7000           12421                                    CALCVGB                               #  GET VR AT IGNITION. COMPUTE CBDT
002368:
002369: 33,7001           76776                           ITC      0
002370: 33,7002           26256                                    BURNINIT                              #  INITIALISE BURN
002371:
002372: 33,7003           45176                           DMOVE    0
002373: 33,7004           27034                                    DT2SEC
002374: 33,7005           33030                           STORE    DELTAT                                #  RESTORE DELTAT TO 2 SECS FOR SPS2
002375:
002376: 33,7006           75176                           VMOVE    0
002377: 33,7007           01223                                    VAVEGON
002378: 33,7010           32774                           STORE    VN                                    #  INITIALISE CALCRVG FOR TURN-ON
002379:
002380: 33,7011           75175                           VMOVE    1
002381: 33,7012           44776                           VSLT
002382: 33,7013           01215                                    RAVEGON
002383: 33,7014           00002                                    RSCALE     -15D
002384: 33,7015           32766                           STORE    RN
002385:
002386: 33,7016           76776                           ITC      0
002387: 33,7017           21643                                    CALCGRAV
002388:
002389: 33,7020           77576                           EXIT     0
002390:
002391: 33,7021           34516                           CAF      ONE                                   #  SET VGCNTR FOR TWO PASSES THRU CALCVGB
002392: 33,7022           51446                           TS       VGCNTR                                #  BEFORE SPS2 STEERING
002393:
002394: 33,7023           02362                           TC       NEWMODE                               #  SET MAJOR MODE TO READY FOR R,V,T UPDATE
002395: 33,7024           00024                           OCT      00024
002396:
002397: 33,7025           02276                           TC       PHASCHNG                              #  CHANGE PHASE TO 5.20 TO ENABLE V76 RST.


002399: 33,7026           02405                           OCT      02405
002400:
002401: 33,7027           02124                           TC       ENDOFJOB
002402:
002403: 33,7030           02276        SOAKEXIT           TC       PHASCHNG
002404: 33,7031           01305                           OCT      01305
002405:
002406: 33,7032           02124                           TC       ENDOFJOB
002407:
002408: 33,7033           14400 00000  DT2SEC             2DEC     200        B-9
002409: 33,7035           31000 00000  DT4SEC             2DEC     400        B-9
002410: 24,6201                                           BANK     24
002411:


002413:
002414:                                                                                                  #  UPTASK AND UPJOB OCCUR 120 SECS BEFORE PLUSX2 AND INCORPORATE STATE VECTOR UPDATES VIA VERB 76
002415:
002416: 24,6201           36352        UPTASK             CAF      10SEC24                               #  SCHEDULE FDAI ALIGN OFF IN 10 SECS
002417: 24,6202           02173                           TC       WAITLIST
002418: 24,6203           50327                           CADR     FDAIOFF2
002419:
002420: 24,6204           03373                           TC       RELAYON                               #  SET SCS FDAI ALIGN DISCRETE (C31)
002421: 24,6205           40400                           OCT      40400
002422:
002423: 24,6206           34373                           CAF      PRIO6                                 #  ESTABLISH UPJOB
002424: 24,6207           02046                           TC       FINDVAC
002425: 24,6210           50225                           CADR     UPJOB
002426:
002427: 24,6211           35362                           CAF      SEVEN
002428: 24,6212           02312                           TC       NEWPHASE
002429: 24,6213           00004                           OCT      00004
002430:
002431: 24,6214           40036                           CS       TIME1
002432: 24,6215           50666                           TS       TBASE4
002433:
002434: 24,6216           44516                           CS       ONE                                   #  REMOVE UPDATE RESTART CAPABILITY
002435: 24,6217           02312                           TC       NEWPHASE
002436: 24,6220           00005                           OCT      5
002437:
002438: 24,6221           34513                           CAF      EIGHT
002439: 24,6222           02312                           TC       NEWPHASE
002440: 24,6223           00004                           OCT      00004
002441:
002442: 24,6224           02256                           TC       TASKOVER
002443:
002444: 24,6225           02362        UPJOB              TC       NEWMODE                               #  REVERT TO ATTITUDE HOLD WITH NO V76.
002445: 24,6226           00022                           OCT      22
002446:
002447: 24,6227           32566                           CAF      LDNLST1                               #  REVERT BACK TO DOWNLIST 1.
002448: 24,6230           50672                           TS       DNLSTADR
002449:
002450: 24,6231           04000                           TC       INTPRET
002451:
002452: 24,6232           43574                           TEST     2                                     #  NO FURTHER ACTION IF NO V76 COMPLETED.
002453: 24,6233           70742                           DAD      DAD                                   #  IF SO, FORM DT FOR FINAL INTEGRATION.
002454: 24,6234           66776                           DSU
002455: 24,6235           00023                                    UPDATFLG
002456: 24,6236           10310                                    NOSTATE
002457: 24,6237           01463                                    TCUTOFF
002458: 24,6240           01557                                    TCOAST
002459: 24,6241           10351                                    DP120SEC
002460: 24,6242           01115                                    STBUFF     +12D
002461: 24,6243           33211                           STORE    TAVEGON
002462:
002463: 24,6244           52775                           MXV      1


002465: 24,6245           44776                           VSLT
002466: 24,6246           01101                                    RRECT
002467: 24,6247           01052                                    REFSMMAT
002468: 24,6250           00002                                    1                                     #  THIS ASSUMES THAT UPDATE SCALED 2(26)M
002469: 24,6251           33656                           STORE    RRECCMEM
002470:
002471: 24,6252           52775                           MXV      1
002472: 24,6253           44776                           VSLT
002473: 24,6254           01107                                    VRECT
002474: 24,6255           01052                                    REFSMMAT
002475: 24,6256           00002                                    1                                     #  THIS ASSUMES THAT UPDATE SCALED 2(7)M/CS
002476: 24,6257           33664                           STORE    VRECCMEM
002477:
002478: 24,6260           77576                           EXIT     0
002479: 24,6261           02276                           TC       PHASCHNG
002480: 24,6262           03504                           OCT      03504
002481:
002482: 24,6263           04000        REDO4.29           TC       INTPRET
002483: 24,6264           75176                           VMOVE    0
002484: 24,6265           01656                                    RRECCMEM
002485: 24,6266           33101                           STORE    RRECT
002486:
002487: 24,6267           75176                           VMOVE    0
002488: 24,6270           01664                                    VRECCMEM
002489: 24,6271           33107                           STORE    VRECT
002490:
002491: 24,6272           76776                           ITC      0
002492: 24,6273           20010                                    AVETOMD2
002493:
002494: 24,6274           75176                           VMOVE    0                                     #  LEAVE RAVEGON, VAVEGON IN RN, VN.
002495: 24,6275           01223                                    VAVEGON
002496: 24,6276           32774                           STORE    VN
002497:
002498: 24,6277           44776                           VSLT     0
002499: 24,6300           01215                                    RAVEGON
002500: 24,6301           00002                                    RSCALE     -15D
002501: 24,6302           32766                           STORE    RN
002502:
002503: 24,6303           76575                           RTB      1
002504: 24,6304           76776                           ITC
002505: 24,6305           20265                                    FRESHPD
002506: 24,6306           21643                                    CALCGRAV
002507:
002508: 24,6307           76776        NOSTATE            ITC      0                                     #  GO GET TFF
002509: 24,6310           22001                                    CALCTFF
002510:
002511: 24,6311           66775                           DSU      1                                     #  SEE IF TFF IS TOO HIGH
002512: 24,6312           43775                           BPL      EXIT
002513: 24,6313           01457                                    TFF
002514: 24,6314           10356                                    TFFLIMIT


002516: 24,6315           10324                                    TFF2DOWN                              #  YES
002517:
002518: 24,6316           02362        SETMM23            TC       NEWMODE                               #  HOLD ATTITUDE AFTER ORBITAL INTEGRATION
002519: 24,6317           00023                           OCT      23
002520:
002521: 24,6320           02276                           TC       PHASCHNG
002522: 24,6321           01104                           OCT      01104
002523:
002524: 24,6322           03151        REDO4.9            TC       JAMTERM                               #  FLUSH OUT V76 IF STILL IN PINBALL
002525:
002526:
002527:
002528: 24,6323           77576        TFF2DOWN           EXIT     0
002529: 24,6324           03474                           TC       STATEDWN                              #  RESET TFF2 FLAG
002530: 24,6325           10000                           OCT      10000
002531: 24,6326           06316                           TC       SETMM23
002532:
002533:
002534:
002535: 24,6327           03405        FDAIOFF2           TC       RELAYOFF                              #  REMOVE SCS FDAI ALIGN DISCRETE (C31)
002536: 24,6330           40400                           OCT      40400
002537:
002538: 24,6331           36353                           CAF      105SEC
002539: 24,6332           02173                           TC       WAITLIST
002540: 24,6333           50335                           CADR     PREAVGON
002541:
002542: 24,6334           02256                           TC       TASKOVER
002543:
002544:
002545:
002546: 24,6335           36354        PREAVGON           CAF      5SEC24
002547: 24,6336           02173                           TC       WAITLIST
002548: 24,6337           50357                           CADR     AVGON
002549:
002550: 24,6340           03405                           TC       RELAYOFF                              #  BACK-UP FDAI ALIGN OFF IN CASE OF
002551: 24,6341           40400                           OCT      40400                                 #    RESTARTS
002552:
002553: 24,6342           03430                           TC       FLAG1DWN                              #  REMOVE UPDAT FLAG TO KILL ORB. INTEGR.
002554: 24,6343           20000                           OCT      20000
002555:
002556: 24,6344           33553                           CAF      TWENTY7
002557: 24,6345           02312                           TC       NEWPHASE
002558: 24,6346           00004                           OCT      4
002559:
002560: 24,6347           02256                           TC       TASKOVER
002561:
002562: 24,6350           00000 27340  DP120SEC           2DEC     12000      B-28
002563: 24,6352           01750        10SEC24            DEC      1000       B-14
002564: 24,6353           24404        105SEC             DEC      10500      B-14


002566: 24,6354           00764        5SEC24             DEC      500        B-14
002567: 24,6355           34631 23146  TFFLIMIT           2DEC     .9                                    #  JUST SO ITS HIGH
002568:


002570:
002571:                                                                                                  #  SHUTDOWN IS A CLOSED SUBROUTINE WHICH IS ENTERED PRIOR TO CM/SM SEPARATION. ITS PURPOSE IS TO CLOSE OUT ALL SCS
002572:                                                                                                  #  FUNCTIONS NOT CONCERNED WITH SEPARATION AND ENTRY, AND TO INITIATE THOSE THAT ARE
002573:
002574: 33,7037                                           BANK     33
002575:
002576: 33,7037           20017        SHUTDOWN           INHINT
002577: 33,7040           32162                           CAF      PRIO27                                #  ESTABLISH HIGH PRIO JOB TO DO SHUTDOWN
002578: 33,7041           02052                           TC       NOVAC
002579: 33,7042           11147                           CADR     ENEMA                                 #  CLEANS OUT EXEC AND WAITLIST.
002580: 33,7043           20016                           RELINT
002581:
002582: 33,7044           34516                           CAF      ONE                                   #  EFFECTIVELY STOP ANY WAITLIST ACTIVITY
002583: 33,7045           50037                           TS       TIME3
002584:
002585: 33,7046           44516                           CS       ONE
002586: 33,7047           02312                           TC       NEWPHASE
002587: 33,7050           00004                           OCT      00004
002588:
002589: 33,7051           44516                           CS       ONE
002590: 33,7052           02312                           TC       NEWPHASE
002591: 33,7053           00002                           OCT      00002
002592:
002593: 33,7054           33232                           CAF      TEN
002594: 33,7055           02312                           TC       NEWPHASE
002595: 33,7056           00003                           OCT      00003
002596:
002597: 33,7057           05702                           TC       SWRETURN                              #  (LOCATION OF TC Q)
002598:
002599:
002600:
002601: 33,7060           20017        SHUTJOB            INHINT
002602: 33,7061           44502                           CS       BIT13                                 #  SHUT OFF ENGINE BIT
002603: 33,7062           70011                           MASK     OUT1
002604: 33,7063           50011                           TS       OUT1
002605:
002606: 33,7064           03405                           TC       RELAYOFF                              #  REMOVE SCS +X TRANS DISCRETE
002607: 33,7065           40020                           OCT      40020
002608:
002609: 33,7066           03430                           TC       FLAG1DWN                              #  REMOVE DVMON, STEER, INIT FLAGS
002610: 33,7067           00430                           OCT      00430
002611:
002612: 33,7070           05654                           TC       BANKCALL                              #  SET IMUCDU TO ATT. CONTROL (MAY BE RE-
002613: 33,7071           30223                           CADR     IMUATTC                               #  DUNDANT CALL)
002614:
002615: 33,7072           03516                           TC       SETHETAD                              #  FORCE THETAD, +1, +2 TO READ CDUX,Y,Z
002616:
002617: 33,7073           36254                           CAF      ALLABORT                              #  TEST IF ANY ABORT BURN SET
002618: 33,7074           70647                           MASK     FLAGWRD2


002620: 33,7075           10000                           CCS      A
002621: 33,7076           07101                           TC       +3                                    #  IT IS
002622:
002623: 33,7077           03504                           TC       SETBRNSW                              #  IT IS NOT. SET BURN TO LAST (SPS4)
002624: 33,7100           00100                           OCT      00100
002625:
002626: 33,7101           05654                           TC       BANKCALL                              #  WAIT FOR MODE SWITCH TO COMPLETE
002627: 33,7102           30331                           CADR     IMUSTALL
002628: 33,7103           03066                           TC       CURTAINS                              #  CATCH-ALL FOR MODE SWITCH FAILURES
002629:
002630: 33,7104           40036                           CS       TIME1
002631: 33,7105           50665                           TS       TBASE3
002632:
002633: 33,7106           34505                           CAF      BIT10                                 #  TEST IF INTP FLAG SET (I.E. HAS 95 SEC
002634: 33,7107           70646                           MASK     FLAGWRD1                              #  INTERUPT OCCURRED)
002635: 33,7110           10000                           CCS      A
002636: 33,7111           07116                           TC       TESTGMP                               #  IT HAS NOT
002637:
002638: 33,7112           34510                           CAF      BIT7                                  #  TEST IF INT1 FLAG SET (I.E. HAS 200 SEC
002639: 33,7113           70646                           MASK     FLAGWRD1                              #  INTEREUPT OCCURRED)
002640: 33,7114           10000                           CCS      A
002641: 33,7115           07126                           TC       SHUTJOB1                              #  IT HAS
002642:
002643: 33,7116           34507        TESTGMP            CAF      BIT8                                  #  TEST IF SCS GMP DISCRETE SET
002644: 33,7117           70725                           MASK     DSPTAB     +13D
002645: 33,7120           10000                           CCS      A
002646: 33,7121           07147                           TC       GMPOFF1                               #  IF IT IS, TURN IT OFF
002647:
002648: 33,7122           34515                           CAF      BIT2                                  #  TEST IF DV MODE SET
002649: 33,7123           70725                           MASK     DSPTAB     +13D
002650: 33,7124           10000                           CCS      A
002651: 33,7125           07156                           TC       DVMODOF1                              #  IF IT IS, TURN IT OFF
002652:
002653: 33,7126           40646        SHUTJOB1           CS       FLAGWRD1                              #  TEST IF SHUTDN FLAG SET
002654: 33,7127           74503                           MASK     BIT12
002655: 33,7130           10000                           CCS      A
002656: 33,7131           07215                           TC       SETATTC                               #  IT IS NOT. SHUTDOWN NOT DUE TO TFF
002657:
002658: 33,7132           34505                           CAF      BIT10                                 #  TEST IF THIS IS 200 OR 95 SEC INTERRUPT
002659: 33,7133           70646                           MASK     FLAGWRD1                              #  (INTP FLAG)
002660: 33,7134           10000                           CCS      A
002661: 33,7135           07211                           TC       SETSEP                                #  200 SEC INTERRUPT
002662:
002663: 33,7136           03452        KILLMANU           TC       FLAG2DWN                              #  REMOVE CALC FLAG (KILL ANY MANEUVER)
002664: 33,7137           02000                           OCT      02000
002665:
002666: 33,7140           20017                           INHINT                                         #  ALLOW 5 SECS FOR CSM TO SETTLE FROM ANY
002667: 33,7141           36556                           CAF      5SEC                                  #  ATTITUDE MANEUVER BEFORE SEPARATING
002668: 33,7142           02173                           TC       WAITLIST
002669: 33,7143           67260                           CADR     CDUXTASK


002671: 33,7144           02276                           TC       PHASCHNG
002672: 33,7145           01303                           OCT      01303
002673:
002674: 33,7146           02124                           TC       ENDOFJOB
002675:
002676: 33,7147           20017        GMPOFF1            INHINT
002677: 33,7150           36712                           CAF      2SEC33                                #  CALL FOR SCS GMP OFF IN 2 SECS
002678: 33,7151           02173                           TC       WAITLIST
002679: 33,7152           67166                           CADR     GMPOFF2
002680:
002681: 33,7153           02276                           TC       PHASCHNG
002682: 33,7154           02703                           OCT      02703
002683:
002684: 33,7155           02124                           TC       ENDOFJOB
002685:
002686: 33,7156           20017        DVMODOF1           INHINT
002687: 33,7157           37221                           CAF      3.5SEC33                              #  CALL FOR DV MODE OFF IN 3.5 SECS
002688: 33,7160           02173                           TC       WAITLIST
002689: 33,7161           67177                           CADR     DVMODOF2
002690: 33,7162           20016                           RELINT
002691:
002692: 33,7163           02276                           TC       PHASCHNG
002693: 33,7164           03003                           OCT      03003
002694:
002695: 33,7165           02124                           TC       ENDOFJOB
002696:
002697: 33,7166           03405        GMPOFF2            TC       RELAYOFF                              #  REMOVE SCS GMP DISCRETE
002698: 33,7167           40200                           OCT      40200
002699:
002700: 33,7170           37221                           CAF      3.5SEC33                              #  CALL FOR DV MODE OFF IN 3.5 SECS
002701: 33,7171           02173                           TC       WAITLIST
002702: 33,7172           67177                           CADR     DVMODOF2
002703:
002704: 33,7173           33551                           CAF      TWENTY5
002705: 33,7174           02312                           TC       NEWPHASE
002706: 33,7175           00003                           OCT      3
002707:
002708: 33,7176           02256                           TC       TASKOVER
002709:
002710: 33,7177           03405        DVMODOF2           TC       RELAYOFF                              #  REMOVE SCS DV MODE DISCRETE
002711: 33,7200           40002                           OCT      40002
002712:
002713: 33,7201           37220                           CAF      0.25S33                               #  CALL FOR SCS ATT. CONTROL IN U/4 SEC
002714: 33,7202           02173                           TC       WAITLIST
002715: 33,7203           67205                           CADR     SHUTASK
002716:
002717: 33,7204           02256                           TC       TASKOVER
002718:
002719: 33,7205           32162        SHUTASK            CAF      PRIO27                                #  ESTABLISH JOB TO RESUME SHUTDOWN PROCESS
002720: 33,7206           02052                           TC       NOVAC


002722: 33,7207           67126                           CADR     SHUTJOB1
002723:
002724: 33,7210           02256                           TC       TASKOVER
002725:
002726: 33,7211           20017        SETSEP             INHINT
002727: 33,7212           32146                           CAF      PRIO12
002728: 33,7213           02046                           TC       FINDVAC                               #  CM/SM SEPARATION ATTITUDE
002729: 33,7214           67224                           CADR     SEPMANU
002730:
002731: 33,7215           03373        SETATTC            TC       RELAYON                               #  SET SCS ATT. CONTROL DISCRETE (C23)
002732: 33,7216           40001                           OCT      40001
002733:
002734: 33,7217           02124                           TC       ENDOFJOB
002735:
002736: 33,7220           00031        0.25S33            DEC      25         B-14
002737: 33,7221           00536        3.5SEC33           DEC      350        B-14
002738: 33,7222           00764        5SEC33             DEC      500        B-14
002739: 33,7223           01274        7SEC33             DEC      700        B-14
002740:


002742:
002743: 33,7224           02362        SEPMANU            TC       NEWMODE                               #  SET MAJOR MODE TO SEPARATION MANEUVER
002744: 33,7225           00061                           OCT      00061
002745:
002746: 33,7226           04000                           TC       INTPRET
002747:
002748: 33,7227           73175                           UNIT     1                                     #  COMPUTE DESIRED S/C ORIENTATION FOR
002749: 33,7230           75633                           VXSC     COMP                                  #  CM/SM SEPARATION
002750: 33,7231           00774                                    VN
002751: 33,7232           27257                                    COS60
002752:
002753: 33,7233           47575                           NOLOD    1
002754: 33,7234           41753                           VXV      UNIT
002755: 33,7235           00766                                    RN
002756: 33,7236           33417                           STORE    YSCD                                  #  YSCD IS ALONG (RN*VN)
002757:
002758: 33,7237           47573                           NOLOD    3
002759: 33,7240           41753                           VXV      UNIT
002760: 33,7241           75642                           VXSC     VAD
002761: 33,7242           47176                           COMP
002762: 33,7243           00774                                    VN
002763: 33,7244           27255                                    SIN60
002764: 33,7245           33411                           STORE    XSCD                                  #  XSCD IS 60 DEG ABOVE VELOCITY VECTOR
002765:
002766: 33,7246           47575                           NOLOD    1
002767: 33,7247           41753                           VXV      UNIT
002768: 33,7250           01417                                    YSCD
002769: 33,7251           33425                           STORE    ZSCD
002770:
002771: 33,7252           76776                           ITC      0                                     #  BRANCH TO PERFORM MANEUVER TO THE
002772: 33,7253           26414                                    ATTIJOB1                              #  SEPARATION ATTITUDE
002773:
002774: 33,7254           33555 01106  SIN60              2DEC     0.86603
002775: 33,7256           20000 00000  COS60              2DEC     0.5
002776:


002778:
002779: 33,7260           36556        CDUXTASK           CAF      5SEC                                  #  ALLOW 5 SECS FOR CDUX RESOLVER SCALE
002780: 33,7261           02173                           TC       WAITLIST                              #  CHANGE
002781: 33,7262           67342                           CADR     CM/SMTSK
002782:
002783: 33,7263           34501                           CAF      PRIO20
002784: 33,7264           02046                           TC       FINDVAC
002785: 33,7265           67274                           CADR     CDUXJOB
002786:
002787: 33,7266           03405                           TC       RELAYOFF                              #  SET SCS TO MONITOR MODE
002788: 33,7267           40007                           OCT      40007
002789:
002790: 33,7270           33534                           CAF      TWELVE
002791: 33,7271           02312                           TC       NEWPHASE
002792: 33,7272           00003                           OCT      00003
002793:
002794: 33,7273           02256                           TC       TASKOVER
002795:
002796:
002797:
002798: 33,7274           40700        CDUXJOB            CS       THETAD
002799: 33,7275           40000                           COM
002800: 33,7276           51314                           TS       CDUTEMP
002801:
002802: 33,7277           11314                           CCS      CDUTEMP                               #  GET MAGNITUDE OF THETAD
002803: 33,7300           64516                           AD       ONE
002804: 33,7301           07303                           TC       +2
002805: 33,7302           64516                           AD       ONE
002806: 33,7303           50115                           TS       MPAC                                  #  AND SAVE IT
002807:
002808: 33,7304           25777                           EXTEND                                         #  FIND NEAREST INTEGER MULTIPLE OF 1/16
002809: 33,7305           47353                           MP       15/16TH
002810: 33,7306           64504                           AD       BIT11
002811: 33,7307           77354                           MASK     HIGH4
002812: 33,7310           30115                           XCH      MPAC                                  #  AND SAVE IT
002813:
002814: 33,7311           25777                           EXTEND                                         #  SHIFT ORIGINAL THETAD RIGHT 4 PLACES
002815: 33,7312           44504                           MP       BIT11
002816: 33,7313           60115                           AD       MPAC                                  #  AND ADD INTEGER MULTIPLE
002817: 33,7314           20017                           INHINT
002818: 33,7315           50700                           TS       THETAD
002819:
002820: 33,7316           11314                           CCS      CDUTEMP                               #  ATTACH SIGN OF ORIGINAL THETAD
002821: 33,7317           30115                           XCH      MPAC                                  #  MPAC HAS POSITIVE CDUBIAS
002822: 33,7320           07324                           TC       +4
002823: 33,7321           40700                           CS       THETAD
002824: 33,7322           50700                           TS       THETAD
002825:
002826: 33,7323           40115                           CS       MPAC                                  #  COMPLEMENT INTEGER MULTIPLE
002827: 33,7324           51450                           TS       K1ROLL                                #  SCALED AT 1/2 REV FOR ENTRY
002828: 33,7325           20016                           RELINT


002830: 33,7326           02276                           TC       PHASCHNG
002831: 33,7327           01503                           OCT      01503
002832:
002833: 33,7330           03440        REDO3.13           TC       FLAG2UP                               #  SET CDUX FLAG
002834: 33,7331           20000                           OCT      20000
002835:
002836: 33,7332           05654                           TC       BANKCALL                              #  CHANGE IMUCDU MODE TO RE-ENTRY
002837: 33,7333           30216                           CADR     IMUREENT
002838:
002839: 33,7334           05654                           TC       BANKCALL                              #  WAIT FOR COMPLETION OF MODE SWITCH
002840: 33,7335           30331                           CADR     IMUSTALL
002841: 33,7336           03066                           TC       CURTAINS                              #  CATCH-ALL FOR MODE SWITCH FAILURES
002842:
002843: 33,7337           02276                           TC       PHASCHNG
002844: 33,7340           01603                           OCT      01603
002845:
002846: 33,7341           02124                           TC       ENDOFJOB
002847:
002848:
002849:
002850: 33,7342           03373        CM/SMTSK           TC       RELAYON                               #  SET SCS ENTRY MODE AND CM/SM SEPARATION
002851: 33,7343           40014                           OCT      40014                                 #  DISCRETES
002852:
002853: 33,7344           33537                           CAF      FIFTN
002854: 33,7345           02312                           TC       NEWPHASE
002855: 33,7346           00003                           OCT      00003
002856:
002857: 33,7347           36556                           CAF      5SEC                                  #  SET CALL TO START PRE-ENTRY ATTITUDE
002858: 33,7350           02173                           TC       WAITLIST                              #  MANEUVER IN 5 SECS
002859: 33,7351           67355                           CADR     ENTATASK
002860:
002861: 33,7352           02256                           TC       TASKOVER
002862:
002863: 33,7353           36000        15/16TH            OCT      36000
002864: 33,7354           74000        HIGH4              OCT      74000
002865:


002867:
002868: 33,7355           32146        ENTATASK           CAF      PRIO12
002869: 33,7356           02046                           TC       FINDVAC
002870: 33,7357           67361                           CADR     ENTAJOB
002871:
002872: 33,7360           02256                           TC       TASKOVER
002873:
002874:
002875:
002876: 33,7361           02362        ENTAJOB            TC       NEWMODE                               #  SET MAJOR MODE TO PRE-ENTRY MANEUVER
002877: 33,7362           00062                           OCT      00062
002878:
002879: 33,7363           35501                           CAF      ZERO
002880: 33,7364           51472                           TS       ROLLC                                 #  ROLLC = +0
002881: 33,7365           51473                           TS       ROLLC      +1
002882:
002883: 33,7366           04000                           TC       INTPRET
002884:
002885: 33,7367           76776        GOGETUNB           ITC      0                                     #  COMPUTE DESIRED NAV BASE COORDS.
002886: 33,7370           21244                                    GETUNB
002887:
002888: 33,7371           76776                           ITC      0                                     #  GET DESIRED S/C COORSD
002889: 33,7372           12213                                    CALCNBSC
002890:
002891: 33,7373           75176                           VMOVE    0                                     #  TRANSFER DESIRED S/C UNIT VECTORS
002892: 33,7374           01367                                    XSC
002893: 33,7375           33411                           STORE    XSCD
002894:
002895: 33,7376           75176                           VMOVE    0
002896: 33,7377           01375                                    YSC
002897: 33,7400           33417                           STORE    YSCD
002898:
002899: 33,7401           75176                           VMOVE    0
002900: 33,7402           01403                                    ZSC
002901: 33,7403           33425                           STORE    ZSCD
002902:
002903: 33,7404           76776                           ITC      0                                     #  BRANCH TO PERFORM MANEUVER TO PRE-ENTRY
002904: 33,7405           26414                                    ATTIJOB1                              #  ATTITUDE
002905:
002906: 33,7406           00007        ABORT33            OCT      00007                                 #  (OR OF ARRST,TABT,ABRT)
002907:
002908:
002909:
002910: 24,6357                                           BANK     24
002911:
002912: 24,6357           36456        AVGON              CAF      PIPCAD24                              #  CLEAR AND EXCHANGE PIPAS TO SAVE DELV
002913: 24,6360           05750                           TC       ISWCALL                               #  ACCUMULATED DURING COAST PERIOD
002914:
002915: 24,6361           03452                           TC       FLAG2DWN                              #  DISABLE FREE-FALL GYRO BIAS COMPENSATION
002916: 24,6362           40000                           OCT      40000                                 #  (REMOVE DRIFT FLAG)


002918: 24,6363           03462                           TC       STATEUP                               #  SET BIAS FLAG
002919: 24,6364           04000                           OCT      04000
002920:
002921: 24,6365           41465                           CS       PIPTIME    +1
002922: 24,6366           50667                           TS       TBASE5
002923:
002924: 24,6367           34475                           CAF      SIX
002925: 24,6370           02312                           TC       NEWPHASE
002926: 24,6371           00005                           OCT      00005
002927:
002928: 24,6372           34502                           CAF      BIT13                                 #  IF TFF2 FLAG NOT SET, DO WHAT SERVICER
002929: 24,6373           70645                           MASK     STATE                                 #    WOULD HAVE DONE WHEN TFF = TFFMIN
002930: 24,6374           10000                           CCS      A
002931: 24,6375           06433                           TC       GO/ON                                 #  TFF2 FLAG SET
002932:
002933: 24,6376           03504                           TC       SETBRNSW                              #  SET BURN TO SPS2 BACK UP SETTING
002934: 24,6377           00020                           OCT      00020
002935:
002936: 24,6400           03416                           TC       FLAG1UP                               #  SET INIT FLAG TO RE-MANEUVER TO SPS2 ATT
002937: 24,6401           00400                           OCT      00400
002938:
002939: 24,6402           34516                           CAF      ONE
002940: 24,6403           51446                           TS       VGCNTR
002941:
002942: 24,6404           11724                           CCS      REDOSPS1                              #  TFF2 FLAG DOWN, SEE IF DO SPS1 AGAIN
002943: 24,6405           06414                           TC       CONTINUE                              #  NO
002944: 24,6406           06414                           TC       CONTINUE
002945: 24,6407           06410                           TC       +1
002946:
002947: 24,6410           03504                           TC       SETBRNSW                              #  YES, SET BURN TO SPS1
002948: 24,6411           00010                           OCT      00010
002949:
002950: 24,6412           36455                           CAF      LOCSPS1
002951: 24,6413           51470                           TS       VRCADR
002952:
002953: 24,6414           33556        CONTINUE           CAF      THIRTY
002954: 24,6415           02312                           TC       NEWPHASE
002955: 24,6416           00004                           OCT      00004
002956:
002957: 24,6417           40036                           CS       TIME1
002958: 24,6420           50666                           TS       TBASE4
002959:
002960: 24,6421           36453                           CAF      2SEC24                                #  START READACCS IN 2 SECS
002961: 24,6422           02173                           TC       WAITLIST
002962: 24,6423           65152                           CADR     READACCS
002963:
002964: 24,6424           36454                           CAF      90SEC24                               #  SCHEDULE IGNITION IN 2 MINUTES
002965: 24,6425           02173                           TC       WAITLIST
002966: 24,6426           50463                           CADR     PLUSX2


002968:
002969: 24,6427           32170                           CAF      PRIO35
002970: 24,6430           02052                           TC       NOVAC
002971: 24,6431           50457                           CADR     MODE32
002972:
002973: 24,6432           02256                           TC       TASKOVER
002974:
002975: 24,6433           34473        GO/ON              CAF      THREE
002976: 24,6434           02312                           TC       NEWPHASE
002977: 24,6435           00002                           OCT      00002
002978:
002979: 24,6436           44516                           CS       ONE
002980: 24,6437           02312                           TC       NEWPHASE
002981: 24,6440           00004                           OCT      00004
002982:
002983: 24,6441           36453                           CAF      2SEC24                                #  TURN ON READACCS IN 2 SECS
002984: 24,6442           02173                           TC       WAITLIST
002985: 24,6443           65152                           CADR     READACCS
002986:
002987: 24,6444           32170                           CAF      PRIO35                                #  JOB TO CHANGE MM AND FINISH DRIFT COMP
002988: 24,6445           02052                           TC       NOVAC
002989: 24,6446           50477                           CADR     MODE26
002990:
002991: 24,6447           32146        GO/ON1             CAF      PRIO12                                #  DO ATTITUDE MANEUVER FOR SPS2 BURN
002992: 24,6450           02046                           TC       FINDVAC
002993: 24,6451           66412                           CADR     ATTIJOB1   -1
002994:
002995: 24,6452           02256                           TC       TASKOVER
002996:
002997: 24,6453           00310        2SEC24             DEC      200        B-14
002998: 24,6454           21450        90SEC24            DEC      9000       B-14
002999: 24,6455           52454        LOCSPS1            CADR     501SPS1
003000: 24,6456           61313        PIPCAD24           CADR     PIPASR
003001:
003002:
003003:
003004: 24,6457           02362        MODE32             TC       NEWMODE                               #  SET MAJOR MODE TO PRE-SPS2
003005: 24,6460           00032                           OCT      00032
003006:
003007: 24,6461           05720                           TC       POSTJUMP                              #  FINISH DRIFT COMPUTATIONS
003008: 24,6462           50501                           CADR     MODE26     +2
003009:
003010:
003011:
003012: 24,6463           36476        PLUSX2             CAF      18SEC24
003013: 24,6464           02173                           TC       WAITLIST
003014: 24,6465           64511                           CADR     GIMPOWON
003015:
003016: 24,6466           03474                           TC       STATEDWN                              #  REMOVE BIAS FLAG
003017: 24,6467           04000                           OCT      04000


003019:
003020: 24,6470           03373                           TC       RELAYON                               #  SET SCS +X TRANS DISCRETE (C27)
003021: 24,6471           40020                           OCT      40020
003022:
003023: 24,6472           33541                           CAF      SEVENTN
003024: 24,6473           02312                           TC       NEWPHASE
003025: 24,6474           00004                           OCT      4
003026:
003027: 24,6475           02256                           TC       TASKOVER
003028:
003029: 24,6476           03410        18SEC24            DEC      1800       B-14
003030:
003031:
003032:
003033: 24,6477           02362        MODE26             TC       NEWMODE                               #  SET MAJOR MODE TO HOLD SPS2 ATTITUDE
003034: 24,6500           00026                           OCT      00026                                 #    UNTIL TFFMIN
003035:
003036: 24,6501           03416                           TC       FLAG1UP                               #  SET INTP FLAG
003037: 24,6502           01000                           OCT      01000
003038:
003039: 24,6503           41465                           CS       PIPTIME    +1                         #  CALL LASTBIAS ROUTINE
003040: 24,6504           40000                           COM
003041: 24,6505           50115                           TS       MPAC
003042:
003043: 24,6506           36511                           CAF      COMP2SEC
003044: 24,6507           05720                           TC       POSTJUMP
003045: 24,6510           31343                           CADR     LASTBIAS
003046:
003047: 24,6511           31000        COMP2SEC           DEC      200        B+6
003048:


003050:
003051:    3373                                           BANK     1
003052:
003053:    3373           20001        RELAYON            INDEX    Q
003054:    3374           40000                           CS       0
003055:    3375           20017                           INHINT
003056:    3376           70725                           MASK     DSPTAB     +13D
003057:    3377           20001                           INDEX    Q
003058:    3400           60000                           AD       0
003059:    3401           50725                           TS       DSPTAB     +13D
003060:    3402           20016                           RELINT
003061:    3403           20001                           INDEX    Q
003062:    3404           00001                           TC       1
003063:
003064:    3405           20001        RELAYOFF           INDEX    Q
003065:    3406           40000                           CS       0
003066:    3407           20017                           INHINT
003067:    3410           70725                           MASK     DSPTAB     +13D
003068:    3411           64500                           AD       BIT15
003069:    3412           50725                           TS       DSPTAB     +13D
003070:    3413           20016                           RELINT
003071:    3414           20001                           INDEX    Q
003072:    3415           00001                           TC       1
003073:
003074:    3416           20001        FLAG1UP            INDEX    Q
003075:    3417           40000                           CS       0
003076:    3420           20017                           INHINT
003077:    3421           70646                           MASK     FLAGWRD1
003078:    3422           20001                           INDEX    Q
003079:    3423           60000                           AD       0
003080:    3424           50646                           TS       FLAGWRD1
003081:    3425           20016                           RELINT
003082:    3426           20001                           INDEX    Q
003083:    3427           00001                           TC       1
003084:
003085:    3430           20001        FLAG1DWN           INDEX    Q
003086:    3431           40000                           CS       0
003087:    3432           20017                           INHINT
003088:    3433           70646                           MASK     FLAGWRD1
003089:    3434           50646                           TS       FLAGWRD1
003090:    3435           20016                           RELINT
003091:    3436           20001                           INDEX    Q
003092:    3437           00001                           TC       1
003093:
003094:    3440           20001        FLAG2UP            INDEX    Q
003095:    3441           40000                           CS       0
003096:    3442           20017                           INHINT
003097:    3443           70647                           MASK     FLAGWRD2
003098:    3444           20001                           INDEX    Q
003099:    3445           60000                           AD       0
003100:    3446           50647                           TS       FLAGWRD2


003102:    3447           20016                           RELINT
003103:    3450           20001                           INDEX    Q
003104:    3451           00001                           TC       1
003105:
003106:    3452           20001        FLAG2DWN           INDEX    Q
003107:    3453           40000                           CS       0
003108:    3454           20017                           INHINT
003109:    3455           70647                           MASK     FLAGWRD2
003110:    3456           50647                           TS       FLAGWRD2
003111:    3457           20016                           RELINT
003112:    3460           20001                           INDEX    Q
003113:    3461           00001                           TC       1
003114:
003115:    3462           20001        STATEUP            INDEX    Q
003116:    3463           40000                           CS       0
003117:    3464           20017                           INHINT
003118:    3465           70645                           MASK     STATE
003119:    3466           20001                           INDEX    Q
003120:    3467           60000                           AD       0
003121:    3470           50645                           TS       STATE
003122:    3471           20016                           RELINT
003123:    3472           20001                           INDEX    Q
003124:    3473           00001                           TC       1
003125:
003126:    3474           20001        STATEDWN           INDEX    Q
003127:    3475           40000                           CS       0
003128:    3476           20017                           INHINT
003129:    3477           70645                           MASK     STATE
003130:    3500           50645                           TS       STATE
003131:    3501           20016                           RELINT
003132:    3502           20001                           INDEX    Q
003133:    3503           00001                           TC       1
003134:
003135:    3504           43515        SETBRNSW           CS       BURNMASK
003136:    3505           20017                           INHINT
003137:    3506           70647                           MASK     FLAGWRD2
003138:    3507           20001                           INDEX    Q
003139:    3510           60000                           AD       0
003140:    3511           50647                           TS       FLAGWRD2
003141:    3512           20016                           RELINT
003142:    3513           20001                           INDEX    Q
003143:    3514           00001                           TC       1
003144:
003145:    3515           00177        BURNMASK           OCT      00177
003146:
003147:
003148:
003149:    3516           20017        SETHETAD           INHINT
003150:    3517           40047                           CS       CDUX
003151:    3520           40000                           COM


003153:    3521           50700                           TS       THETAD
003154:    3522           40050                           CS       CDUY
003155:    3523           40000                           COM
003156:    3524           50701                           TS       THETAD     +1
003157:    3525           40051                           CS       CDUZ
003158:    3526           40000                           COM
003159:    3527           50702                           TS       THETAD     +2
003160:    3530           20016                           RELINT
003161:    3531           00001                           TC       Q
003162:
003163:
003164:
003165:    3532           00011        NINE               DEC      9          B-14
003166:    3533           00013        ELEVEN             OCT      00013
003167:    3534     3533               11DEC              EQUALS   ELEVEN
003168:    3534           00014        TWELVE             OCT      00014
003169:    3535           00015        THIRTN             OCT      00015
003170:    3536     3535               THIRTEEN           EQUALS   THIRTN
003171:    3536           00016        FOURTN             OCT      00016
003172:    3537           00017        FIFTN              OCT      00017
003173:    3540           00020        SIXTN              OCT      00020
003174:    3541           00021        SEVENTN            OCT      00021
003175:    3542           00022        EIGHTN             OCT      00022
003176:    3543           00023        NINETEEN           DEC      19         B-14
003177:    3544           00024        TWENTY0            OCT      00024
003178:    3545     3544               TWENTY             EQUALS   TWENTY0
003179:    3545           00025        TWENTY1            OCT      00025
003180:    3546           00026        TWENTY2            OCT      00026
003181:    3547           00027        TWENTY3            OCT      00027
003182:    3550           00030        TWENTY4            OCT      00030
003183:    3551           00031        TWENTY5            OCT      00031
003184:
003185:    3552           00032        TWENTY6            DEC      26         B-14
003186:
003187:    3553           00033        TWENTY7            DEC      27         B-14
003188:
003189:    3554           00034        TWENTY8            DEC      28         B-14
003190:    3555           00035        TWENTY9            DEC      29         B-14
003191:    3556           00036        THIRTY             DEC      30         B-14
003192:    3557     3556               30DEC              EQUALS   THIRTY
003193:    3557           00037        THIRTY1            DEC      31         B-14
003194:    3560           00040        THIRTY2            DEC      32         B-14
003195:    3561           00050        FORTY              DEC      40         B-14
003196:    3562     3561               40DEC              EQUALS   FORTY
003197:    3562           00062        FIFTY              DEC      50         B-14
003198:    3563     3562               50DEC              EQUALS   FIFTY
003199:    3563           00074        SIXTY              DEC      60         B-14
003200:    3564     3563               60DEC              EQUALS   SIXTY
003201:    3564           00144        100DEC             DEC      100        B-14
003202:    3565           00310        200DEC             DEC      200        B-14


003204:    3566           00454        300DEC             DEC      300        B-14
003205:    3567           00620        400DEC             DEC      400        B-14
003206:    3570           00764        500DEC             DEC      500        B-14
003207:    3571           01130        600DEC             DEC      600        B-14
003208:    3572     3571               SIXHNDRD           EQUALS   600DEC
003209:    3572           01750        1000DEC            DEC      1000       B-14
003210:    3573           03720        2000DEC            DEC      2000       B-14

End of include-file 501_MISSION_CONTROL_PROGRAM.agc.  Parent file is MAIN.agc


