
Source Code


000002:                                                                                                  #  Copyright:    Public domain.
000003:                                                                                                  #  Filename:     501_MISSION_CONTROL_PROGRAM.agc
000004:                                                                                                  #  Purpose:      Part of the source code for Solarium build 55. This
000005:                                                                                                  #                is for the Command Module's (CM) Apollo Guidance
000006:                                                                                                  #                Computer (AGC), for Apollo 6.
000007:                                                                                                  #  Assembler:    yaYUL --block1
000008:                                                                                                  #  Contact:      Jim Lawton <jim DOT lawton AT gmail DOT com>
000009:                                                                                                  #  Website:      www.ibiblio.org/apollo/index.html
000010:                                                                                                  #  Page scans:   www.ibiblio.org/apollo/ScansForConversion/Solarium055/
000011:                                                                                                  #  Mod history:  2009-09-26 JL   Created.
000012:                                                                                                  #                2016-08-20 RSB  Typos.
000013:
000014:                                                                                                  # # Page 553
000015:
000016: 32,6000                                           SETLOC   64000
000017: 32,6000           20017        LIFTOFF            INHINT
000018: 32,6001           02677                           TC       READTIME   +1                         #  SAVE TIME OF LIFTOFF
000019: 32,6002           40572                           CS       RUPTSTOR
000020: 32,6003           51462                           TS       TLIFTOFF
000021: 32,6004           40573                           CS       RUPTSTOR   +1
000022: 32,6005           51463                           TS       TLIFTOFF   +1
000023:
000024: 32,6006           40000                           COM
000025: 32,6007           50666                           TS       TBASE4
000026:
000027: 32,6010           33533        CALL4.11           CAF      ELEVEN
000028: 32,6011           02312                           TC       NEWPHASE
000029: 32,6012           00004                           OCT      00004
000030:
000031: 32,6013           10000                           CCS      A
000032: 32,6014           06022                           TC       SETLIFT
000033: 32,6015           06022                           TC       SETLIFT
000034:
000035: 32,6016           20017                           INHINT
000036: 32,6017           37567                           CAF      2SEC                                  #  ALLOW 2 SECS FOR BACK-UP GRR COMPUTATION
000037: 32,6020           02173                           TC       WAITLIST
000038: 32,6021           64025                           CADR     TARGTASK
000039:
000040: 32,6022           03416        SETLIFT            TC       FLAG1UP
000041: 32,6023           00002                           OCT      00002
000042:
000043: 32,6024           03151                           TC       JAMTERM                               #  FLUSH V75 GRR BACKUP.
000044:
000045: 32,6025           33557        TARGTASK           CAF      THIRTY1
000046: 32,6026           02312                           TC       NEWPHASE
000047: 32,6027           00004                           OCT      00004
000048:
000049: 32,6030           35501                           CAF      ZERO
000050: 32,6031           50665                           TS       TBASE3
000051:
000052: 32,6032           34516                           CAF      ONE
000053: 32,6033           02312                           TC       NEWPHASE
000054: 32,6034           00003                           OCT      00003
000055:
000056: 32,6035           35501                           CAF      ZERO                                  #  FIX UP TBASE5 FOR READACCS RESTART AND
000057: 32,6036           60667                           AD       TBASE5                                #    LOAD 2 SECS INTO TIME COUNTERS (I.E.
000058: 32,6037           61463                           AD       TLIFTOFF   +1                         #    ZERO THE AGC CLOCK AT LIFT-OFF)
000059: 32,6040           64520                           AD       NEG1/2
000060: 32,6041           64520                           AD       NEG1/2
000061: 32,6042           30667                           XCH      TBASE5
000062:
000063: 32,6043           33565                           CAF      200DEC
000064: 32,6044           50036                           TS       TIME1
000065:
000066: 32,6045           33560                           CAF      THIRTY2
000067:                                                                                                  # # Page 554
000068: 32,6046           02312                           TC       NEWPHASE
000069: 32,6047           00004                           OCT      00004
000070:
000071: 32,6050           43565                           CS       200DEC                                #  CALL ON BOOST MONITOR
000072: 32,6051           61563                           AD       TROLL      +1
000073: 32,6052           02173                           TC       WAITLIST
000074: 32,6053           64066                           CADR     MON1TASK
000075:
000076: 32,6054           32146        REDO4.32           CAF      PRIO12
000077: 32,6055           02046                           TC       FINDVAC
000078: 32,6056           50000                           CADR     TARGJOB
000079:
000080: 32,6057           35501                           CAF      ZERO                                  #  FINALLY ZERO TIME2
000081: 32,6060           50035                           TS       TIME2
000082:
000083: 32,6061           02256                           TC       TASKOVER
000084:
000085: 32,6062           32170        REDO4.31           CAF      PRIO35
000086: 32,6063           02052                           TC       NOVAC
000087: 32,6064           11147                           CADR     ENEMA
000088:
000089: 32,6065           06030                           TC       TARGTASK   +3
000090:
000091:
000092:
000093: 24,6000                                           BANK     24
000094:
000095: 24,6000           05654        TARGJOB            TC       BANKCALL                              #  COMMAND IMUCDU TO ATT. CONTROL MODE
000096: 24,6001           30223                           CADR     IMUATTC
000097:
000098: 24,6002           02362                           TC       NEWMODE                               #  SET MAJOR MODE TO BOOST ATTITUDE MONITOR
000099: 24,6003           00011                           OCT      00011
000100:
000101: 24,6004           03516                           TC       SETHETAD                              #  FORCE THETAD,+1,+2 TO EWQUALS CDUX,Y,Z
000102:
000103: 24,6005           04000                           TC       INTPRET
000104:
000105: 24,6006           66776                           DSU      0                                     #  TARGET VECTORS INITIALLY REFERENCED TO
000106: 24,6007           01463                                    TLIFTOFF                              #  GRR. WILL NOW UPDATE THEM TO LIFT-OFF
000107: 24,6010           01467                                    TIME2GR
000108: 24,6011           33145                           STORE    DTEAROT
000109:
000110: 24,6012           45176                           DMOVE    0
000111: 24,6013           01630                                    TPACIF1
000112: 24,6014           33537                           STORE    TPACIFC
000113:
000114: 24,6015           45176                           DMOVE    0
000115: 24,6016           01620                                    TATLAN1
000116: 24,6017           33527                           STORE    TATLANT
000117:                                                                                                  # # Page 555
000118: 24,6020           75176                           VMOVE    0
000119: 24,6021           01632                                    RTPACIF1
000120: 24,6022           33115                           STORE    RTINIT
000121:
000122: 24,6023           76776                           ITC      0
000123: 24,6024           13450                                    EARROT1
000124:
000125: 24,6025           47576                           NOLOD    0
000126: 24,6026           33541                           STORE    RTPACIFC
000127:
000128: 24,6027           75176                           VMOVE    0
000129: 24,6030           01622                                    RTATLAN1
000130: 24,6031           33115                           STORE    RTINIT
000131:
000132: 24,6032           76776                           ITC      0
000133: 24,6033           13450                                    EARROT1
000134:
000135: 24,6034           47576                           NOLOD    0
000136: 24,6035           33531                           STORE    RTATLANT
000137:
000138: 24,6036           77576                           EXIT     0
000139:
000140: 24,6037           05654        TARGET             TC       BANKCALL                              #  WAIT FOR COMPLETION OF MODE SWITCH
000141: 24,6040           30331                           CADR     IMUSTALL
000142: 24,6041           03066                           TC       CURTAINS                              #  TRAP IF INCOMPLETE
000143:
000144: 24,6042           44516                           CS       ONE
000145: 24,6043           02312                           TC       NEWPHASE
000146: 24,6044           00004                           OCT      00004
000147:
000148: 24,6045           02124                           TC       ENDOFJOB
000149:
000150:                                                                                                  # # Page 556
000151:
000152: 32,6066                                           BANK     32
000153:
000154: 32,6066           32143        MON1TASK           CAF      PRIO5
000155: 32,6067           02046                           TC       FINDVAC
000156: 32,6070           64074                           CADR     MONITJOB
000157:
000158: 32,6071           03416                           TC       FLAG1UP                               #  SET MONIT FLAG
000159: 32,6072           00040        MONITMSK           OCT      00040
000160:
000161: 32,6073           02256                           TC       TASKOVER
000162:
000163:
000164:
000165: 32,6074           02276        MONITJOB           TC       PHASCHNG
000166: 32,6075           03203                           OCT      03203
000167:
000168: 32,6076           04000                           TC       INTPRET
000169:
000170: 32,6077           76575                           RTB      1                                     #  FORM TIME SINCE START OF MONITOR
000171: 32,6100           66776                           DSU
000172: 32,6101           20253                                    LOADTIME
000173: 32,6102           01565                                    TPITCH
000174: 32,6103           33571                           STORE    TMONITOR                              #  SCALED AT 2(+28) CS
000175:
000176: 32,6104           47574                           NOLOD    2                                     #  TEST IF TIME TO START PITCH MONITOR
000177: 32,6105           43605                           BPL      LODON
000178: 32,6106           45176                           DMOVE
000179: 32,6107           24113                                    +3
000180: 32,6110           07227                                    DPZERO                                #  NO
000181: 32,6111           33571                           STORE    TMONITOR
000182:
000183: 32,6112           47573        PITCH1             NOLOD    3                                     #  TEST IF TIME TO STOP MONITOR
000184: 32,6113           66756                           DSU      BMN
000185: 32,6114           41423                           LODON    DMOVE
000186: 32,6115           42576                           SWITCH
000187: 32,6116           01567                                    TENDPTCH
000188: 32,6117           24124                                    +4
000189: 32,6120           01567                                    TENDPTCH                              #  IF IT IS, SET TMONITOR TO MAX AND REMOVE
000190: 32,6121           00033                                    MONITFLG                              #   MONIT FLAG
000191: 32,6122           33571                           STORE    TMONITOR
000192:
000193: 32,6123           45174                           DMOVE    2                                     #  DO SIGN AGREE AND RESCALE TO 2(+14) CS
000194: 32,6124           76516                           RTB      TSLT
000195: 32,6125           76516                           RTB      TSLT
000196: 32,6126           01571                                    TMONITOR
000197: 32,6127           20404                                    SGNAGREE
000198: 32,6130           00017                                    14D
000199: 32,6131           24246                                    POLYENT1                              #  SOLVE PITCH POLYNOMIAL
000200: 32,6132           00005                                    4
000201: 32,6133           32025                           STORE    20D                                   #  CHI SCALED AT 1 REV.
000202:                                                                                                  # # Page 557
000203: 32,6134           57176                           SIN      0
000204: 32,6135           00025                                    20D
000205:
000206: 32,6136           45176                           DMOVE    0
000207: 32,6137           07227                                    DPZERO
000208:
000209: 32,6140           55175                           COS      1
000210: 32,6141           41176                           VDEF
000211: 32,6142           00025                                    20D
000212: 32,6143           32027                           STORE    22D                                   #  UNIT VECTOR ALONG VEHICLE ROLL AXIS
000213:
000214: 32,6144           47576                           NOLOD    0
000215: 32,6145           33411                           STORE    XSCD
000216:
000217: 32,6146           45176                           DMOVE    0
000218: 32,6147           01415                                    XSCD       +4
000219: 32,6150           32027                           STORE    22D                                   #  FORM VECTOR (XSCD +4, 0, -XSCD) AT 22D
000220:
000221: 32,6151           47176                           COMP     0
000222: 32,6152           01411                                    XSCD
000223: 32,6153           32033                           STORE    26D
000224:
000225: 32,6154           76572        ROLLER             RTB      4                                     #  FORM DESIRED ROLL EXCURSION
000226: 32,6155           66712                           DSU      DDV
000227: 32,6156           66756                           DSU      BMN
000228: 32,6157           41423                           LODON    DMOVE
000229: 32,6160           76576                           RTB
000230: 32,6161           20253                                    LOADTIME
000231: 32,6162           01563                                    TROLL
000232: 32,6163           01701                                    1/RLLRTE
000233: 32,6164           01703                                    MAXROLL
000234: 32,6165           24171                                    +3
000235: 32,6166           07227                                    DPZERO                                #  IF EXCLEEDS MAX VALUE, SET ROLL ATTITUDE
000236: 32,6167           20265                                    FRESHPD                               #    TO ZERO
000237:
000238: 32,6170           47576                           NOLOD    0
000239: 32,6171           32025                           STORE    20D                                   #  ROLL ANGLE SCALED AT 1 REV.
000240:
000241: 32,6172           47575                           NOLOD    1
000242: 32,6173           57176                           SIN
000243: 32,6174           32023                           STORE    18D
000244:
000245: 32,6175           47575                           NOLOD    1
000246: 32,6176           63766                           TSLT     VXSC
000247: 32,6177           00002                                    1
000248: 32,6200           00027                                    22D
000249: 32,6201           33417                           STORE    YSCD
000250:
000251: 32,6202           55175                           COS      1
000252: 32,6203           47176                           COMP
000253:                                                                                                  # # Page 558
000254: 32,6204           00025                                    20D
000255: 32,6205           33421                           STORE    YSCD       +2
000256:
000257: 32,6206           47574                           NOLOD    2
000258: 32,6207           47166                           COMP     VXSC
000259: 32,6210           44776                           VSLT
000260: 32,6211           00027                                    22D
000261: 32,6212           00002                                    1
000262: 32,6213           33425                           STORE    ZSCD
000263:
000264: 32,6214           45176                           DMOVE    0
000265: 32,6215           00023                                    18D
000266: 32,6216           33427                           STORE    ZSCD       +2
000267:
000268: 32,6217           76776                           ITC      0                                     #  RESOLVE INTO NB COORDS.
000269: 32,6220           12167                                    CALCSCNB
000270:
000271: 32,6221           76776                           ITC      0                                     #  EXTRACT EULER ANGLES FROM XNB MATRIX
000272: 32,6222           12072                                    CALCCDU
000273:
000274: 32,6223           47576                           NOLOD    0                                     #  STORE THE ANGLES
000275: 32,6224           32701                           STORE    THETAD
000276:
000277: 32,6225           77576                           EXIT     0
000278:
000279: 32,6226           34511                           CAF      BIT6                                  #  TEST IF MONIT FLAG SET
000280: 32,6227           70646                           MASK     FLAGWRD1
000281: 32,6230           10000                           CCS      A
000282: 32,6231           06074                           TC       MONITJOB                              #  IT IS. RECYCLE MONITJOB
000283:
000284: 32,6232           20017                           INHINT                                         #  CALL TUMBLE MONITOR IN TTUMON SECS
000285: 32,6233           41572                           CS       TTUMON
000286: 32,6234           40000                           COM
000287: 32,6235           02173                           TC       WAITLIST
000288: 32,6236           64250                           CADR     TUMBTSK1
000289:
000290: 32,6237           40036                           CS       TIME1
000291: 32,6240           50665                           TS       TBASE3
000292:
000293: 32,6241           35503                           CAF      TWO
000294: 32,6242           02312                           TC       NEWPHASE
000295: 32,6243           00003                           OCT      00003
000296:
000297: 32,6244           02124                           TC       ENDOFJOB
000298:
000299:
000300:
000301: 32,6245           33534        POLYENT1           CAF      TWELVE                                #  RTB HERE PRIOR TO ENTERING ERASABLE FOR
000302: 32,6246           51574                           TS       POLYORDR                              #    POLYNOMIAN
000303: 32,6247           01573                           TC       POLYENTR
000304:                                                                                                  # # Page 559
000305:
000306: 32,6250           33553        TUMBTSK1           CAF      TWENTY7
000307: 32,6251           02312                           TC       NEWPHASE
000308: 32,6252           00003                           OCT      3
000309:
000310: 32,6253           32155                           CAF      PRIO22
000311: 32,6254           02046                           TC       FINDVAC
000312: 32,6255           64257                           CADR     TUMBJOB1
000313:
000314: 32,6256           06325                           TC       RESET1
000315:
000316:
000317:
000318: 32,6257           05654        TUMBJOB1           TC       BANKCALL                              #  SWITCH IMUCDU MODE TO FINE ALIGN
000319: 32,6260           30163                           CADR     IMUFINNW
000320:
000321: 32,6261           05654                           TC       BANKCALL                              #  WAIT FOR COMPLETION OF MODE SWITCH
000322: 32,6262           30331                           CADR     IMUSTALL
000323: 32,6263           03066                           TC       CURTAINS
000324:
000325: 32,6264           02362                           TC       NEWMODE                               #  SET MAJOR MODE TO TUMBLE MONITOR
000326: 32,6265           00014                           OCT      00014
000327:
000328: 32,6266           04000                           TC       INTPRET                               #  ...NO 01407 ALARMS, PLEASE...
000329:
000330: 32,6267           75575                           AXT,1    1
000331: 32,6270           76776                           ITC
000332: 32,6271           00007                                    6
000333: 32,6272           12001                                    CDUTRIG
000334:
000335: 32,6273           75176                           VMOVE    0
000336: 32,6274           01315                                    CDUTEMP
000337: 32,6275           33345                           STORE    DUPCDU
000338:
000339: 32,6276           77576                           EXIT     0
000340:
000341: 32,6277           02124                           TC       ENDOFJOB
000342:
000343: 32,6300           32155        TUMBTASK           CAF      PRIO22
000344: 32,6301           02046                           TC       FINDVAC
000345: 32,6302           50046                           CADR     TUMBJOB
000346:
000347: 32,6303           34516                           CAF      BIT1                                  #  TEST IF TUMBLE FLAG SET
000348: 32,6304           70646                           MASK     FLAGWRD1
000349: 32,6305           10000                           CCS      A
000350: 32,6306           06325                           TC       RESET1                                #  IT IS. CONTINUE TO MONITOR
000351:
000352: 32,6307           40647                           CS       FLAGWRD2                              #  TEST IF BURN IS TUMBLE ARREST (I.E. HAS
000353: 32,6310           74516                           MASK     BIT1                                  #  CORRECTIVE ACTION STARTED)
000354: 32,6311           10000                           CCS      A
000355: 32,6312           06321                           TC       TUMTEST1                              #  IT HAS NOT
000356:                                                                                                  # # Page 560
000357: 32,6313           40011                           CS       OUT1                                  #  IT HAS. TEST IF ENGINE ON YET. IF NOT,
000358: 32,6314           74502                           MASK     BIT13                                 #  WAIT BEFORE TURNING IT OFF AGAIN
000359: 32,6315           10000                           CCS      A
000360: 32,6316           06325                           TC       RESET1
000361:
000362: 32,6317           05720                           TC       POSTJUMP                              #  LEAP TO CUT SPS ENGINE
000363: 32,6320           64710                           CADR     ENGINOFF
000364:
000365: 32,6321           36335        TUMTEST1           CAF      NOTUMASK                              #  TEST IF NEXT BURN HAS BEEN SET
000366: 32,6322           70647                           MASK     FLAGWRD2
000367: 32,6323           10000                           CCS      A
000368: 32,6324           06331                           TC       TASK3OUT
000369:
000370: 32,6325           36677        RESET1             CAF      1SEC32                                #  RECALL IN 1 SEC
000371: 32,6326           02173                           TC       WAITLIST
000372: 32,6327           64300                           CADR     TUMBTASK
000373:
000374: 32,6330           02256                           TC       TASKOVER
000375:
000376: 32,6331           44516        TASK3OUT           CS       ONE
000377: 32,6332           02312                           TC       NEWPHASE
000378: 32,6333           00003                           OCT      00003
000379:
000380: 32,6334           02256                           TC       TASKOVER                              #  IT HAS. KILL TUMBLE MONITOR
000381:
000382: 32,6335           00016        NOTUMASK           OCT      00016                                 #  (OR OF SPS1, ABRT, TABT)
000383:
000384:                                                                                                  # # Page 561
000385:
000386: 24,6046                                           BANK     24
000387:
000388: 24,6046           36111        TUMBJOB            CAF      NOTUMSK1                              #  SKIP THIS JOB IF NEXT BURN HAS BEEN SET
000389: 24,6047           70647                           MASK     FLAGWRD2
000390: 24,6050           10000                           CCS      A
000391: 24,6051           02124                           TC       ENDOFJOB
000392:
000393: 24,6052           04000                           TC       INTPRET
000394:
000395: 24,6053           75176                           VMOVE    0                                     #  SAVE PRESENT CDUX,Y,Z
000396: 24,6054           01345                                    DUPCDU
000397: 24,6055           33323                           STORE    CDUBUF
000398:
000399: 24,6056           75575                           AXT,1    1                                     #  FORM DP CDUX,Y,Z
000400: 24,6057           76776                           ITC
000401: 24,6060           00007                                    6
000402: 24,6061           12001                                    CDUTRIG
000403:
000404: 24,6062           75176                           VMOVE    0                                     #  SAVE DUPLICATE CDUX,Y,Z
000405: 24,6063           01315                                    CDUTEMP                               #  SCALED AT 1 REV
000406: 24,6064           33345                           STORE    DUPCDU
000407:
000408: 24,6065           47575                           NOLOD    1
000409: 24,6066           74765                           VSU      AXT,1
000410: 24,6067           01323                                    CDUBUF
000411: 24,6070           00007                                    6
000412: 24,6071           33315                           STORE    CDUTEMP
000413:
000414: 24,6072           76776                           ITC      0                                     #  COMPUTE SIN OF CDUX,Y,Z
000415: 24,6073           12041                                    SINCOS                                #  DIFFERENCES AND PUT IN SINCDU,+2,+4
000416:
000417: 24,6074           71174                           ABVAL    2
000418: 24,6075           66756                           DSU      BMN
000419: 24,6076           77576                           EXIT
000420: 24,6077           01331                                    SINCDU
000421: 24,6100           10113                                    CRIT
000422: 24,6101           10106                                    NOTUMBLE
000423:
000424: 24,6102           03416                           TC       FLAG1UP                               #  SET TUMB FLAG
000425: 24,6103           00001                           OCT      00001
000426:
000427: 24,6104           02124                           TC       ENDOFJOB
000428:
000429: 24,6105           77576        NOTUMBLE           EXIT     0
000430: 24,6106           03430                           TC       FLAG1DWN                              #  REMOVE TUMBLE FLAG
000431: 24,6107           00001                           OCT      00001
000432:
000433: 24,6110           02124                           TC       ENDOFJOB
000434:
000435: 24,6111           00016        NOTUMSK1           OCT      16
000436:                                                                                                  # # Page 562
000437: 24,6112           00262 25271  CRIT               2DEC     0.010905                              #  SIN(5DEG/2) SCALED AT 2(+2)
000438:
000439:                                                                                                  # # Page 563
000440:
000441: 32,6336                                           BANK     32
000442:
000443:
000444:
000445: 32,6336           40036        S4BSMSEP           CS       TIME1                                 #  BRANCH HERE ON RECEIPT OF S4B/CSM SEP
000446: 32,6337           50666                           TS       TBASE4
000447:
000448: 32,6340           03430                           TC       FLAG1DWN                              #  RESET UPDAT FLAG
000449: 32,6341           20000                           OCT      20000
000450:
000451: 32,6342           03373                           TC       RELAYON                               #  SET SCS +X TRANS, ATTITUDE CONTROL MODE,
000452: 32,6343           40221                           OCT      40221                                 #  GIMBAL MOT POWER DISCRETES (C27,23,30)
000453:
000454: 32,6344           34516                           CAF      BIT1                                  #  TEST IF TUMB FLAG SET
000455: 32,6345           70646                           MASK     FLAGWRD1
000456: 32,6346           10000                           CCS      A
000457: 32,6347           06462                           TC       SETUMB2
000458:
000459: 32,6350           03416                           TC       FLAG1UP                               #  SET INTP FLAG
000460: 32,6351           01000        INTPMASK           OCT      01000
000461:
000462: 32,6352           02276                           TC       PHASCHNG
000463: 32,6353           01404                           OCT      01404
000464:
000465: 32,6354           20017                           INHINT
000466: 32,6355           36505                           CAF      1.7SEC                                #  WAIT 1.7 SECS FOR RECEIPT OF ABORT SIG.
000467: 32,6356           02173                           TC       WAITLIST
000468: 32,6357           64374                           CADR     ABRTWAIT
000469:
000470: 32,6360           03302        TRYGRAB            TC       GRABDSP                               #  TRY TO GRAB DISPLAY
000471: 32,6361           06366                           TC       CLEANOUT                              #  ALREADY GRABBED. FLUSH OUT GRABBER
000472:
000473: 32,6362           03362                           TC       FREEDSP                               #  WE HAVE IT. AND LET IT GO
000474:
000475: 32,6363           03416        SETS4SEP           TC       FLAG1UP                               #  SET S4BSM FLAG
000476: 32,6364           00200                           OCT      00200
000477:
000478: 32,6365           02124                           TC       ENDOFJOB
000479:
000480: 32,6366           20017        CLEANOUT           INHINT
000481: 32,6367           32170                           CAF      PRIO35                                #  MAKE HIGH PRIO JOB TO FLUSH OUT PINBALL
000482: 32,6370           02052                           TC       NOVAC
000483: 32,6371           11147                           CADR     ENEMA
000484: 32,6372           20016                           RELINT
000485:
000486: 32,6373           06363                           TC       SETS4SEP
000487:
000488: 32,6374           32160        ABRTWAIT           CAF      PRIO25                                #  CONTINUE WITH SAME PRIORITY AS S4BSMSEP
000489: 32,6375           02052                           TC       NOVAC
000490: 32,6376           64400                           CADR     ABORTEST
000491:                                                                                                  # # Page 564
000492: 32,6377           02256                           TC       TASKOVER
000493:
000494: 32,6400           34516        ABORTEST           CAF      ONE                                   #  SET VGCNTR FOR 2 PASSES THRU CALCVGB
000495: 32,6401           51446                           TS       VGCNTR
000496:
000497: 32,6402           03430                           TC       FLAG1DWN                              #  RESET UPDAT FLAG
000498: 32,6403           20000                           OCT      20000
000499:
000500: 32,6404           34501                           CAF      BIT14                                 #  TEST IF ABORT SIGNAL RECEIVED
000501: 32,6405           70645                           MASK     STATE
000502: 32,6406           10000                           CCS      A
000503: 32,6407           06427                           TC       SETABORT                              #  IT WAS. BRANCH TO ABORT
000504:
000505: 32,6410           20017                           INHINT
000506: 32,6411           36504                           CAF      8.3SEC                                #  SET CALL TO TURN OFF +X 10 SEC AFTER SEP
000507: 32,6412           02173                           TC       WAITLIST
000508: 32,6413           64663                           CADR     PLUSXOFF
000509: 32,6414           20016                           RELINT
000510:
000511: 32,6415           03504                           TC       SETBRNSW                              #  SET BURN TO SPS1
000512: 32,6416           00010        SPS1MASK           OCT      00010
000513:
000514: 32,6417           36426                           CAF      SPS1LOC                               #  SET LOCATION FOR NOMINAL SPS1 VR COMP
000515: 32,6420           51470                           TS       VRCADR
000516:
000517: 32,6421           02276                           TC       PHASCHNG
000518: 32,6422           02504                           OCT      02504
000519:
000520: 32,6423           02362        REDO4.21           TC       NEWMODE                               #  SET MAJOR MODE TO PRE-SPS1
000521: 32,6424           00031                           OCT      00031
000522:
000523: 32,6425           03151                           TC       JAMTERM                               #  FLUSH V75 S4BSMSEP BACKUP.
000524:
000525: 32,6426           52454        SPS1LOC            CADR     501SPS1
000526:
000527: 32,6427           03504        SETABORT           TC       SETBRNSW                              #  SET BURN TO ABORT
000528: 32,6430           00002                           OCT      00002
000529:
000530: 32,6431           02276                           TC       PHASCHNG
000531: 32,6432           02004                           OCT      02004
000532:
000533: 32,6433           20017                           INHINT
000534: 32,6434           36510                           CAF      3.8SEC                                #  START ENGINE IN 4.3 SECS
000535: 32,6435           02173                           TC       WAITLIST
000536: 32,6436           64527                           CADR     ATTCNOFF
000537: 32,6437           20016                           RELINT
000538:
000539: 32,6440           05654        REDO4.16           TC       BANKCALL                              #  SET IMU TO ATT. CONTROL MODE
000540: 32,6441           30223                           CADR     IMUATTC
000541:                                                                                                  # # Page 565
000542: 32,6442           03516                           TC       SETHETAD                              #  SET THETAD,+1,+2 TO AGREE WITH CDUX,Y,Z
000543:
000544: 32,6443           36461                           CAF      ABORTLOC                              #  SET LOCATION FOR ABORT VR COMPUTATIONS
000545: 32,6444           51470                           TS       VRCADR
000546:
000547: 32,6445           35503                           CAF      TWO                                   #  SET VGCNTR FOR THREE PASSES THROUGH
000548: 32,6446           51446                           TS       VGCNTR                                #  CALCVGB BEFORE ISSUING STEER COMMANDS
000549:
000550: 32,6447           37655                           CAF      35DEG                                 #  SET THRUST ANGLE TO 35 DEG ABOVE HORIZON
000551: 32,6450           51442                           TS       LOOKANG
000552:
000553: 32,6451           03416                           TC       FLAG1UP                               #  SET STEER FLAG FOR ABORT STEERING
000554: 32,6452           00010                           OCT      00010
000555:
000556: 32,6453           02362                           TC       NEWMODE                               #  SET MAJOR MODE TO ABORT BURN
000557: 32,6454           00073                           OCT      00073
000558:
000559: 32,6455           05654                           TC       BANKCALL                              #  WAIT FOR MODE SWITCH TO COMPLETE
000560: 32,6456           30331                           CADR     IMUSTALL
000561: 32,6457           03066                           TC       CURTAINS                              #  CATCH-ALL FOR FAILURE TO IMU MODE SWITCH
000562:
000563: 32,6460           03151                           TC       JAMTERM                               #  FLUSH OUT V75
000564:
000565: 32,6461           52530        ABORTLOC           CADR     501ABORT
000566:
000567: 32,6462           03504        SETUMB2            TC       SETBRNSW                              #  SET BURN TO TUMBLE ARREST
000568: 32,6463           00001        ARRSTMSK           OCT      00001
000569:
000570: 32,6464           33537                           CAF      FIFTN
000571: 32,6465           02312                           TC       NEWPHASE
000572: 32,6466           00004                           OCT      4
000573:
000574: 32,6467           20017                           INHINT
000575: 32,6470           36700                           CAF      2.5SEC                                #  START ENGINE AT 3.0 SECS AFTER SEP.
000576: 32,6471           02173                           TC       WAITLIST                              #  SEPARATION
000577: 32,6472           64527                           CADR     ATTCNOFF
000578: 32,6473           20016                           RELINT
000579:
000580: 32,6474           02362                           TC       NEWMODE                               #  SET MAJOR MODE TO TUMBLE ARREST BURN
000581: 32,6475           00074                           OCT      00074
000582:
000583: 32,6476           06360                           TC       TRYGRAB
000584:
000585: 32,6477           03462        ABORTRPT           TC       STATEUP                               #  COME HERE ON RECEIPT OF UPLINK ABORT
000586: 32,6500           20000                           OCT      20000                                 #    VERB, NOUN. SET THE ABORT SIGNAL
000587:
000588: 32,6501           03373                           TC       RELAYON                               #  SET SCS BACKUP ABORT DISCRETE (C33)
000589: 32,6502           42000                           OCT      42000
000590:
000591: 32,6503           02124                           TC       ENDOFJOB
000592:                                                                                                  # # Page 566
000593: 32,6504           01476        8.3SEC             DEC      830        B-14
000594: 32,6505           00252        1.7SEC             DEC      170        B-14
000595: 32,6506           22244        93.8SEC            DEC      9380       B-14
000596: 32,6507           02032        10.5SEC            DEC      1050       B-14
000597: 32,6510           00574        3.8SEC             DEC      380        B-14
000598:
000599:                                                                                                  # # Page 567
000600:
000601: 32,6511           03373        GIMPOWON           TC       RELAYON                               #  SET SCS GMP DISCRETE (C30)
000602: 32,6512           40200                           OCT      40200
000603:
000604: 32,6513           33550                           CAF      TWENTY4
000605: 32,6514           02312                           TC       NEWPHASE
000606: 32,6515           00004                           OCT      00004
000607:
000608: 32,6516           40036                           CS       TIME1
000609: 32,6517           50666                           TS       TBASE4
000610:
000611: 32,6520           33551                           CAF      TWENTY5
000612: 32,6521           02312                           TC       NEWPHASE
000613: 32,6522           00004                           OCT      00004
000614:
000615: 32,6523           37151                           CAF      11.5SEC
000616: 32,6524           02173                           TC       WAITLIST
000617: 32,6525           64527                           CADR     ATTCNOFF
000618:
000619: 32,6526           02256                           TC       TASKOVER
000620:
000621: 32,6527           33542        ATTCNOFF           CAF      EIGHTN
000622: 32,6530           02312                           TC       NEWPHASE
000623: 32,6531           00004                           OCT      00004
000624:
000625: 32,6532           40036                           CS       TIME1
000626: 32,6533           50666                           TS       TBASE4
000627:
000628: 32,6534           03405                           TC       RELAYOFF                              #  REMOVE SCS ATT. CONTROL DISCRETE (C23)
000629: 32,6535           40001                           OCT      40001
000630:
000631: 32,6536           33543                           CAF      NINETEEN
000632: 32,6537           02312                           TC       NEWPHASE
000633: 32,6540           00004                           OCT      00004
000634:
000635: 32,6541           36676                           CAF      0.25SEC
000636: 32,6542           02173                           TC       WAITLIST
000637: 32,6543           64545                           CADR     DVMODEON
000638:
000639: 32,6544           02256                           TC       TASKOVER
000640:
000641: 32,6545           03373        DVMODEON           TC       RELAYON                               #  SET SCS DV MODE DISCRETE (C24)
000642: 32,6546           40002                           OCT      40002
000643:
000644: 32,6547           33544                           CAF      TWENTY0
000645: 32,6550           02312                           TC       NEWPHASE
000646: 32,6551           00004                           OCT      00004
000647:
000648: 32,6552           36676                           CAF      0.25SEC
000649: 32,6553           02173                           TC       WAITLIST
000650: 32,6554           64562                           CADR     ENGINEON
000651:                                                                                                  # # Page 568
000652: 32,6555           02256                           TC       TASKOVER
000653:
000654: 32,6556           44516        TASK4OUT           CS       ONE
000655: 32,6557           02312                           TC       NEWPHASE
000656: 32,6560           00004                           OCT      00004
000657:
000658: 32,6561           02256                           TC       TASKOVER
000659:
000660: 32,6562           44502        ENGINEON           CS       BIT13                                 #  SET BIT13, OUT1 TO 1  (ENGINE ON)
000661: 32,6563           51447                           TS       DVCNTR                                #  MUST BE NEGATIVE INITIALLY
000662: 32,6564           70011                           MASK     OUT1
000663: 32,6565           64502                           AD       BIT13
000664: 32,6566           50011                           TS       OUT1
000665:
000666: 32,6567           02677                           TC       READTIME   +1
000667: 32,6570           40572                           CS       RUPTSTOR
000668: 32,6571           51462                           TS       TENGON
000669: 32,6572           40573                           CS       RUPTSTOR   +1
000670: 32,6573           51463                           TS       TENGON     +1
000671:
000672: 32,6574           03416                           TC       FLAG1UP                               #  SET DVMON, STEER FLAGS
000673: 32,6575           00030                           OCT      00030
000674:
000675: 32,6576           33550                           CAF      TWENTY4                               #  SEE IF THIS EITHER A SPS1 OR SPS2 BURN
000676: 32,6577           70647                           MASK     FLAGWRD2
000677: 32,6600           10000                           CCS      A
000678: 32,6601           06603                           TC       +2                                    #  YES
000679: 32,6602           06636                           TC       TUMTEST2                              #  NO
000680:
000681: 32,6603           10651                           CCS      PHASE2                                #  TEST FOR PHASE2 VALUE.
000682: 32,6604           64341                           AD       NEG3                                  #  WAS IT GREATER THAN 4 ORIGINALLY...
000683: 32,6605           10000                           CCS      A                                     #  TEST NEW SUM.
000684: 32,6606           06642                           TC       ROLLTASK   -3
000685: 32,6607           06642                           TC       ROLLTASK   -3                         #  GOES UNLESS PHASE2 WERE +1,2,3, OR 4.
000686: 32,6610           06611                           TC       +1                                    #  1,2 OR 3 FALL IN HERE
000687:
000688: 32,6611           44516                           CS       ONE                                   #  +4 COMES HERE
000689: 32,6612           02312                           TC       NEWPHASE                              #  IN WHICH CASES, WE MAKE GROUP 2 INACTIVE
000690: 32,6613           00002                           OCT      2
000691:
000692: 32,6614           32170                           CAF      PRIO35                                #  AND THEN FLUSH OUT EVERYTHING.
000693: 32,6615           02052                           TC       NOVAC
000694: 32,6616           11147                           CADR     ENEMA                                 #  FORCE A PROGRAMMED RESTART
000695:
000696: 32,6617           06642                           TC       ROLLTASK   -3
000697:
000698:
000699:
000700: 32,6620           36707        3OR4TEST           CAF      SPS34MSK
000701: 32,6621           70647                           MASK     FLAGWRD2
000702:                                                                                                  # # Page 569
000703: 32,6622           10000                           CCS      A
000704: 32,6623           06625                           TC       +2
000705: 32,6624           06636                           TC       TUMTEST2                              #  IT IS NOT
000706:
000707: 32,6625           33547                           CAF      TWENTY3
000708: 32,6626           02312                           TC       NEWPHASE
000709: 32,6627           00004                           OCT      00004
000710:
000711: 32,6630           36701                           CAF      3SEC                                  #  SHUT ENGINE DOWN IN 3 SECS
000712: 32,6631           02173                           TC       WAITLIST
000713: 32,6632           64710                           CADR     ENGINOFF
000714:
000715: 32,6633           03430        STEEROFF           TC       FLAG1DWN
000716: 32,6634           00010        STEERMSK           OCT      00010
000717:
000718: 32,6635           02256                           TC       TASKOVER
000719:
000720: 32,6636           36463        TUMTEST2           CAF      ARRSTMSK                              #  TEST IF BURN IS TUMBLE ARREST
000721: 32,6637           70647                           MASK     FLAGWRD2
000722: 32,6640           10000                           CCS      A
000723: 32,6641           06660                           TC       STR4OUT
000724:
000725: 32,6642           33546                           CAF      TWENTY2
000726: 32,6643           02312                           TC       NEWPHASE
000727: 32,6644           00004                           OCT      4
000728:
000729: 32,6645           40646        ROLLTASK           CS       FLAGWRD1                              #  TEST IF STEER FLAG SET
000730: 32,6646           76634                           MASK     STEERMSK
000731: 32,6647           10000                           CCS      A
000732: 32,6650           02256                           TC       TASKOVER                              #  IT IS NOT. KILL ROLLTASK
000733:
000734: 32,6651           34502                           CAF      PRIO10                                #  SUBMIT JOB TO DO ROLL STEERING
000735: 32,6652           02046                           TC       FINDVAC
000736: 32,6653           66322                           CADR     ROLLJOB
000737:
000738: 32,6654           36703        REDO4.22           CAF      5SEC32                                #  RECALL ROLLTASK IN 5 SECS
000739: 32,6655           02173                           TC       WAITLIST
000740: 32,6656           64645                           CADR     ROLLTASK
000741:
000742: 32,6657           02256                           TC       TASKOVER
000743:
000744: 32,6660           03430        STR4OUT            TC       FLAG1DWN
000745: 32,6661           00010                           OCT      00010
000746:
000747: 32,6662           06556                           TC       TASK4OUT
000748:
000749: 32,6663           03405        PLUSXOFF           TC       RELAYOFF                              #  REMOVE SCS +X TRANS DISCRETE (C27)
000750: 32,6664           40020                           OCT      40020
000751:
000752: 32,6665           03416                           TC       FLAG1UP                               #  SET INITFLAG TO ENABLE MANEUVER TO SPS1
000753:                                                                                                  # # Page 570
000754: 32,6666           00400                           OCT      00400                                 #    BURN ATTITUDE
000755:
000756: 32,6667           36706                           CAF      89.5SEC                               #  START ENGINE IN 90 SECS
000757: 32,6670           02173                           TC       WAITLIST
000758: 32,6671           64527                           CADR     ATTCNOFF
000759:
000760: 32,6672           33535                           CAF      THIRTEEN
000761: 32,6673           02312                           TC       NEWPHASE
000762: 32,6674           00004                           OCT      00004
000763:
000764: 32,6675           02256                           TC       TASKOVER
000765:
000766: 32,6676           00031        0.25SEC            DEC      25         B-14
000767: 32,6677           00144        1SEC32             DEC      100        B-14
000768: 32,6700           00372        2.5SEC             DEC      250        B-14
000769: 32,6701           00454        3SEC               DEC      300        B-14
000770: 32,6702           00536        3.5SEC             DEC      350        B-14
000771: 32,6703           00764        5SEC32             DEC      500        B-14
000772: 32,6704           01130        6SEC               DEC      600        B-14
000773: 32,6705           02734        15SEC              DEC      1500       B-14
000774: 32,6706           21366        89.5SEC            DEC      8950       B-14
000775: 32,6707     4503               SHDNMSK            EQUALS   BIT12
000776: 32,6707           00140        SPS34MSK           OCT      00140
000777:
000778:                                                                                                  # # Page 571
000779:
000780: 32,6710           44502        ENGINOFF           CS       BIT13                                 #  SET ENGINE OFF
000781: 32,6711           70011                           MASK     OUT1
000782: 32,6712           50011                           TS       OUT1
000783:
000784: 32,6713           02677                           TC       READTIME   +1                         #  SAVE TIME OF CUTOFF
000785: 32,6714           40572                           CS       RUPTSTOR
000786: 32,6715           51462                           TS       TCUTOFF
000787: 32,6716           40573                           CS       RUPTSTOR   +1
000788: 32,6717           51463                           TS       TCUTOFF    +1
000789:
000790: 32,6720           03430                           TC       FLAG1DWN                              #  DISABLE DV MONITOR
000791: 32,6721           00020                           OCT      00020
000792:
000793: 32,6722           40044                           CS       PIPAX                                 #  SAVE DELTAV AT ENGINE OFF TIME.
000794: 32,6723           51222                           TS       VAVEGON
000795: 32,6724           40045                           CS       PIPAY
000796: 32,6725           51223                           TS       VAVEGON    +1                         #  USE VAVEGON AREA FOR THIS.
000797: 32,6726           40046                           CS       PIPAZ
000798: 32,6727           51224                           TS       VAVEGON    +2
000799:
000800: 32,6730           03405                           TC       RELAYOFF                              #  REMOVE SCS +X TRANS DISCRETE (C27)
000801: 32,6731           40020                           OCT      40020
000802:
000803: 32,6732           40647                           CS       FLAGWRD2                              #  TEST IF THAT WAS A TUMBLE BURN
000804: 32,6733           76463                           MASK     ARRSTMSK
000805: 32,6734           10000                           CCS      A
000806: 32,6735           06774                           TC       SPS1TEST
000807:
000808: 32,6736           34516                           CAF      ONE
000809: 32,6737           51446                           TS       VGCNTR
000810:
000811: 32,6740           03416                           TC       FLAG1UP                               #  SET INTP,INIT FLAGS
000812: 32,6741           01400                           OCT      01400
000813:
000814: 32,6742           34501                           CAF      BIT14                                 #  TEST IF ABORT SIGNAL RECEIVED
000815: 32,6743           70645                           MASK     STATE
000816: 32,6744           10000                           CCS      A
000817: 32,6745           06764                           TC       VRCAD                                 #  IT WAS, JUMP TO DO TUMBLE ABORT BURN
000818:
000819: 32,6746           36506                           CAF      93.8SEC                               #  START ENGINE IN 94.3 SECS
000820: 32,6747           02173                           TC       WAITLIST
000821: 32,6750           64527                           CADR     ATTCNOFF
000822:
000823: 32,6751           36426                           CAF      SPS1LOC                               #  SET LOCATION FOR NOMINAL SPS1 VR COMP
000824: 32,6752           51470                           TS       VRCADR
000825:
000826: 32,6753           32160                           CAF      PRIO25                                #  ESTABLISH MORE PRE-SPS1 BURN LOGIC
000827: 32,6754           02052                           TC       NOVAC
000828: 32,6755           64423                           CADR     REDO4.21
000829:                                                                                                  # # Page 572
000830:
000831: 32,6756           33535                           CAF      THIRTEEN
000832: 32,6757           02312                           TC       NEWPHASE
000833: 32,6760           00004                           OCT      4
000834:
000835: 32,6761           03504        REDO4.13           TC       SETBRNSW                              #  SET BURN TO SPS1
000836: 32,6762           00010                           OCT      00010
000837:
000838: 32,6763           06331                           TC       TASK3OUT
000839:
000840: 32,6764           36461        VRCAD              CAF      ABORTLOC                              #  SET LOCATION TO ABORT VR COMPUTATION
000841: 32,6765           51470                           TS       VRCADR
000842:
000843: 32,6766           34473                           CAF      THREE
000844: 32,6767           02312                           TC       NEWPHASE
000845: 32,6770           00003                           OCT      00003
000846:
000847: 32,6771           03504        REDO3.3            TC       SETBRNSW                              #  SET BURN TO ABORT AFTER TUMBLE
000848: 32,6772           00004        TABTMASK           OCT      00004
000849:
000850: 32,6773           02256                           TC       TASKOVER
000851:
000852: 32,6774           33554        SPS1TEST           CAF      TWENTY8
000853: 32,6775           02312                           TC       NEWPHASE
000854: 32,6776           00004                           OCT      4
000855:
000856: 32,6777           41463                           CS       TCUTOFF    +1
000857: 32,7000           50665                           TS       TBASE3
000858: 32,7001           50666                           TS       TBASE4
000859:
000860: 32,7002           40647                           CS       FLAGWRD2                              #  TEST IF THAT WAS A SPS1 BURN
000861: 32,7003           76416                           MASK     SPS1MASK
000862: 32,7004           10000                           CCS      A
000863: 32,7005           07070                           TC       SETMOD23
000864:
000865: 32,7006           36507                           CAF      10.5SEC                               #  CALL COAST PHASE IN 10.5 SECS
000866: 32,7007           02173                           TC       WAITLIST
000867: 32,7010           50114                           CADR     COASTPHS
000868:
000869: 32,7011           37150                           CAF      7SEC                                  #  DUPLICATE GMPOFF SEQUENCE BEFORE SETTING
000870: 32,7012           02173                           TC       WAITLIST                              #  BURN SWITCH.  (FOR RESTART LOGIC.)
000871: 32,7013           65110                           CADR     GIMPOWOF
000872:
000873: 32,7014           35502                           CAF      FOUR                                  #  3.4 RESTART KEEPS POWER OFF SEQ. GOING
000874: 32,7015           02312                           TC       NEWPHASE
000875: 32,7016           00003                           OCT      3
000876:
000877: 32,7017           34473                           CAF      THREE
000878: 32,7020           02312                           TC       NEWPHASE
000879: 32,7021           00004                           OCT      00004
000880:
000881:                                                                                                  # # Page 573
000882:
000883: 32,7022           03504        REDO4.3            TC       SETBRNSW                              #  SET BURN TO SPS2
000884: 32,7023           00020        SPS2MASK           OCT      00020
000885:
000886: 32,7024           02256                           TC       TASKOVER
000887:
000888: 32,7025           40647        SPS2TEST           CS       FLAGWRD2                              #  TEST IF THAT WAS A SPS2 BURN
000889: 32,7026           77023                           MASK     SPS2MASK
000890: 32,7027           10000                           CCS      A
000891: 32,7030           07050                           TC       SPS3TEST
000892:
000893: 32,7031           37146                           CAF      0.75SEC
000894: 32,7032           02173                           TC       WAITLIST
000895: 32,7033           31550                           CADR     CGTASK
000896:
000897: 32,7034           36704                           CAF      6SEC                                  #  CALL FOR GMP ON IN 6 SECS
000898: 32,7035           02173                           TC       WAITLIST
000899: 32,7036           64511                           CADR     GIMPOWON
000900:
000901: 32,7037           35362                           CAF      SEVEN
000902: 32,7040           02312                           TC       NEWPHASE
000903: 32,7041           00003                           OCT      00003
000904:
000905: 32,7042           33232                           CAF      TEN
000906: 32,7043           02312                           TC       NEWPHASE
000907: 32,7044           00004                           OCT      00004
000908:
000909: 32,7045           03504        REDO4.10           TC       SETBRNSW                              #  SET BURN TO SPS3
000910: 32,7046           00040        SPS3MASK           OCT      00040
000911:
000912: 32,7047           02256                           TC       TASKOVER
000913:
000914: 32,7050           40647        SPS3TEST           CS       FLAGWRD2                              #  TEST IF THAT WAS A SPS3 BURN
000915: 32,7051           77046                           MASK     SPS3MASK
000916: 32,7052           10000                           CCS      A
000917: 32,7053           07070                           TC       SETMOD23                              #  IT WAS NOT. (EITHER A, TABT, OR SPS4)
000918:
000919: 32,7054           33536                           CAF      FOURTN
000920: 32,7055           02312                           TC       NEWPHASE
000921: 32,7056           00004                           OCT      00004
000922:
000923: 32,7057           36704        GMPON              CAF      6SEC                                  #  CALL FOR ENGINE ON IN 10 SECS
000924: 32,7060           02173                           TC       WAITLIST
000925: 32,7061           64511                           CADR     GIMPOWON
000926:
000927: 32,7062           32144        REDO4.14           CAF      PRIO7
000928: 32,7063           02052                           TC       NOVAC
000929: 32,7064           65143                           CADR     MODE44
000930:
000931: 32,7065           03504                           TC       SETBRNSW                              #  SET BURN TO SPS4
000932: 32,7066           00100        SPS4MASK           OCT      00100
000933:                                                                                                  # # Page 574
000934: 32,7067           02256                           TC       TASKOVER
000935:
000936: 32,7070           32144        SETMOD23           CAF      PRIO7                                 #  MAKE JOB TO CHANGE MODE
000937: 32,7071           02052                           TC       NOVAC
000938: 32,7072           65140                           CADR     MODE23
000939:
000940: 32,7073           33532                           CAF      NINE
000941: 32,7074           02312                           TC       NEWPHASE
000942: 32,7075           00003                           OCT      00003
000943:
000944: 32,7076           44516                           CS       ONE
000945: 32,7077           02312                           TC       NEWPHASE
000946: 32,7100           00004                           OCT      00004
000947:
000948: 32,7101           37150        GMPOFF             CAF      7SEC
000949: 32,7102           02173                           TC       WAITLIST
000950: 32,7103           65110                           CADR     GIMPOWOF
000951:
000952: 32,7104           35502                           CAF      FOUR
000953: 32,7105           02312                           TC       NEWPHASE
000954: 32,7106           00003                           OCT      00003
000955:
000956: 32,7107           02256                           TC       TASKOVER
000957:
000958: 32,7110           36702        GIMPOWOF           CAF      3.5SEC                                #  CALL FOR DV MODE OFF IN 3.5 SECS
000959: 32,7111           02173                           TC       WAITLIST
000960: 32,7112           65124                           CADR     DVMODOFF
000961:
000962: 32,7113           03405                           TC       RELAYOFF
000963: 32,7114           40200                           OCT      40200
000964:
000965: 32,7115           34477                           CAF      FIVE
000966: 32,7116           02312                           TC       NEWPHASE
000967: 32,7117           00003                           OCT      00003
000968:
000969: 32,7120           02256                           TC       TASKOVER
000970:
000971: 32,7121           03405        GMPOFF3            TC       RELAYOFF                              #  REMOVE SCS GMP DISCRETE (C30)
000972: 32,7122           40200                           OCT      40200
000973:
000974: 32,7123           06331                           TC       TASK3OUT
000975:
000976: 32,7124           03405        DVMODOFF           TC       RELAYOFF                              #  REMOVE SCS DV MODE DISCRETE (C24)
000977: 32,7125           40002                           OCT      40002
000978:
000979: 32,7126           34475                           CAF      SIX
000980: 32,7127           02312                           TC       NEWPHASE
000981: 32,7130           00003                           OCT      00003
000982:
000983: 32,7131           36676                           CAF      0.25SEC
000984:                                                                                                  # # Page 575
000985: 32,7132           02173                           TC       WAITLIST
000986: 32,7133           65135                           CADR     ATTCONON
000987:
000988: 32,7134           02256                           TC       TASKOVER
000989:
000990: 32,7135           03373        ATTCONON           TC       RELAYON                               #  SET SCS ATT. CONT. DISCRETE (C23)
000991: 32,7136           40001                           OCT      40001
000992:
000993: 32,7137           06331                           TC       TASK3OUT
000994:
000995: 32,7140           02362        MODE23             TC       NEWMODE                               #  SET MAJOR MODE TO ATTITUDE HOLD
000996: 32,7141           00023                           OCT      00023
000997: 32,7142           02124                           TC       ENDOFJOB
000998:
000999: 32,7143           02362        MODE44             TC       NEWMODE                               #  SET MAJOR MODE TO SPS4
001000: 32,7144           00044                           OCT      00044
001001: 32,7145           02124                           TC       ENDOFJOB
001002:
001003:
001004:
001005: 32,7146           00113        0.75SEC            DEC      75         B-14
001006: 32,7147           00144        1SEC               DEC      100        B-14
001007: 32,7150           01274        7SEC               DEC      700        B-14
001008: 32,7151           02176        11.5SEC            DEC      1150       B-14
001009:
001010:                                                                                                  # # Page 576
001011:
001012: 24,6114                                           BANK     24
001013:
001014: 24,6114           03416        COASTPHS           TC       FLAG1UP                               #  GET SET TO START COASR PHASE ACTIVITY
001015: 24,6115           40000        COASTMSK           OCT      40000                                 #  SET COAST FLAG
001016:
001017: 24,6116           36142                           CAF      289.5SEC   +1                         #  SET TO LONGCALL TO FDAONTSK IN 289.5 SEC
001018: 24,6117           51461                           TS       LONGTIME   +1
001019: 24,6120           36141                           CAF      289.5SEC
001020: 24,6121           51460                           TS       LONGTIME
001021:
001022: 24,6122           36140                           CAF      FDAILOC
001023: 24,6123           51467                           TS       CALLCADR
001024:
001025: 24,6124           05742                           TC       IBNKCALL                              #  MAKE WAITLIST CALL MORE THAN 120 SECS
001026: 24,6125           10552                           CADR     LONGCALL
001027:
001028: 24,6126           32146                           CAF      PRIO12                                #  ESTABLISH INITIAL VERTICAL JOB
001029: 24,6127           02046                           TC       FINDVAC
001030: 24,6130           66621                           CADR     SOAKINIT
001031:
001032: 24,6131           35503                           CAF      TWO
001033: 24,6132           02312                           TC       NEWPHASE
001034: 24,6133           00002                           OCT      00002
001035:
001036: 24,6134           35502                           CAF      FOUR
001037: 24,6135           02312                           TC       NEWPHASE
001038: 24,6136           00004                           OCT      00004
001039:
001040: 24,6137           02256                           TC       TASKOVER
001041:
001042: 24,6140           50143        FDAILOC            CADR     FDAONTSK
001043: 24,6141           00001 30426  289.5SEC           2DEC     28950      B-28
001044:
001045:
001046: 24,6143           03373        FDAONTSK           TC       RELAYON                               #  SET SCS FDAI ALIGN DISCRETE (C31)
001047: 24,6144           40400                           OCT      40400
001048:
001049: 24,6145           36175                           CAF      10SEC
001050: 24,6146           02173                           TC       WAITLIST
001051: 24,6147           50154                           CADR     FDAOFTSK                              #  CALL FDAI OFF IN 10 SECS
001052:
001053: 24,6150           34477                           CAF      FIVE
001054: 24,6151           02312                           TC       NEWPHASE
001055: 24,6152           00004                           OCT      00004
001056:
001057: 24,6153           02256                           TC       TASKOVER
001058:
001059: 24,6154           36177        FDAOFTSK           CAF      -310SEC    +1
001060: 24,6155           61557                           AD       TCOAST     +1
001061:                                                                                                  # # Page 577
001062: 24,6156           51461                           TS       LONGTIME   +1
001063:
001064: 24,6157           35501                           CAF      ZERO
001065: 24,6160           66176                           AD       -310SEC
001066: 24,6161           61556                           AD       TCOAST
001067: 24,6162           51460                           TS       LONGTIME
001068:
001069: 24,6163           36200                           CAF      UPTSKLOC
001070: 24,6164           51467                           TS       CALLCADR
001071:
001072: 24,6165           05742                           TC       IBNKCALL
001073: 24,6166           10552                           CADR     LONGCALL
001074:
001075: 24,6167           34475                           CAF      SIX
001076: 24,6170           02312                           TC       NEWPHASE
001077: 24,6171           00004                           OCT      4
001078:
001079: 24,6172           03405        FDOFTSK1           TC       RELAYOFF                              #  REMOVE SCS FDAI ALIGN DISCRETE (C31).
001080: 24,6173           40400                           OCT      40400
001081:
001082: 24,6174           02256                           TC       TASKOVER
001083:
001084: 24,6175           01750        10SEC              DEC      1000       B-14
001085: 24,6176           77776 43347  -310SEC            2DEC     -31000     B-28
001086:
001087: 24,6200           50201        UPTSKLOC           CADR     UPTASK
001088:
001089:
001090:
001091: 14,7550                                           BANK     14
001092:
001093: 14,7550           32154        CGTASK             CAF      PRIO21                                #  ESTABLISH CGJOB TO REMOVE ANGULAR CG
001094: 14,7551           02046                           TC       FINDVAC                               #  MOTION DEVELOPED DURING SPS2 BURN
001095: 14,7552           31562                           CADR     CGJOB
001096:
001097: 14,7553           37572                           CAF      1.25S14
001098: 14,7554           02173                           TC       WAITLIST
001099: 14,7555           65121                           CADR     GMPOFF3
001100:
001101: 14,7556           34513                           CAF      EIGHT
001102: 14,7557           02312                           TC       NEWPHASE
001103: 14,7560           00003                           OCT      3
001104:
001105: 14,7561           02256                           TC       TASKOVER
001106:
001107: 14,7562           02362        CGJOB              TC       NEWMODE                               #  SET MAJOR MODE TO SPS3 BURN
001108: 14,7563           00043                           OCT      00043
001109:
001110: 14,7564           04000                           TC       INTPRET
001111:
001112:                                                                                                  # # Page 578
001113: 14,7565           75175                           VMOVE    1                                     #  GET NOMINAL SPS2 CG CHANGE ABOUT IMU
001114: 14,7566           76575                           RTB      EXIT                                  #  GIMBAL AXES INTO VAC, SCALED AT KE/2 REV
001115: 14,7567           13534                                    DELCDU                                #  (KE =1.5), AND DECREMENT THETAD, +1, +2
001116: 14,7570           20416                                    INCRCDUS
001117:
001118: 14,7571           02124                           TC       ENDOFJOB
001119:
001120: 14,7572           00175        1.25S14            DEC      125        B-14
001121:
001122: 32,7152                                           BANK     32
001123:
001124:                                                                                                  # # Page 579
001125:
001126: 32,7152           37254        READACCS           CAF      PIPCADR                               #  BRANCH TO PIPA READ ROUTINE
001127: 32,7153           05750                           TC       ISWCALL
001128:
001129: 32,7154           35503                           CAF      TWO
001130: 32,7155           02312                           TC       NEWPHASE
001131: 32,7156           00005                           OCT      00005
001132:
001133: 32,7157           41465        REDO5.2            CS       PIPTIME    +1
001134: 32,7160           50667                           TS       TBASE5
001135:
001136: 32,7161           35503                           CAF      TWO
001137: 32,7162           51035                           TS       PIPAGE
001138:
001139: 32,7163           34514                           CAF      ENTRYMSK                              #  TEST IF ENTRY FLAG SET
001140: 32,7164           70646                           MASK     FLAGWRD1
001141: 32,7165           10000                           CCS      A
001142: 32,7166           07212                           TC       SETUPENT
001143:
001144: 32,7167           40646                           CS       FLAGWRD1                              #  TEST IF COAST FLAG SET
001145: 32,7170           77256                           MASK     CSTMASK
001146: 32,7171           10000                           CCS      A
001147: 32,7172           03062                           TC       CCSHOLE
001148: 32,7173           07216                           TC       SETUPSOK                              #  IT IS. DO NOT RESET READACCS
001149:
001150: 32,7174           37257                           CAF      ABORT32                               #  TEST IF ABORT BURN IS SET. IF SO, NEED
001151: 32,7175           70647                           MASK     FLAGWRD2                              #  2.5SECS COMPUTING INTERVAL
001152: 32,7176           10000                           CCS      A
001153:
001154: 32,7177           07222                           TC       CHANGEDT                              #  IT IS
001155:
001156: 32,7200           37567                           CAF      2SEC                                  #  IT IS NOT. CALL READACCS IN 2 SECS
001157: 32,7201           02173                           TC       WAITLIST
001158: 32,7202           65152                           CADR     READACCS
001159:
001160: 32,7203           32152        MAKESERV           CAF      PRIO16                                #  ESTABLISH SERVICER ROUTINE
001161: 32,7204           02046                           TC       FINDVAC
001162: 32,7205           65262                           CADR     SERVICER
001163:
001164: 32,7206           34473                           CAF      THREE
001165: 32,7207           02312                           TC       NEWPHASE
001166: 32,7210           00005                           OCT      5
001167:
001168: 32,7211           02256                           TC       TASKOVER
001169:
001170: 32,7212           37567        SETUPENT           CAF      2SEC                                  #  CALL ENTRY ROUTINES IN 2 SECS
001171: 32,7213           02173                           TC       WAITLIST
001172: 32,7214           56004                           CADR     PIPUP
001173:
001174: 32,7215           07203                           TC       MAKESERV
001175:                                                                                                  # # Page 580
001176:
001177: 32,7216           37567        SETUPSOK           CAF      2SEC                                  #  CALL SOAKTASK IN 2 SECS
001178: 32,7217           02173                           TC       WAITLIST
001179: 32,7220           66657                           CADR     SOAKTASK
001180:
001181: 32,7221           07203                           TC       MAKESERV
001182:
001183: 32,7222           34516        CHANGEDT           CAF      BIT1                                  #  FORCE SERVICER TO SET DELTAT TO 2.5 SECS
001184: 32,7223           51030                           TS       DELTAT     +1
001185:
001186: 32,7224           37260                           CAF      2.5SEC32                              #  CALL READACCS IN 2.5 SECS
001187: 32,7225           07201                           TC       MAKESERV   -2
001188:
001189: 32,7226           37257        REREADAC           CAF      ABORT32                               #  READACCS RESTART LOCATION
001190: 32,7227           70647                           MASK     FLAGWRD2
001191: 32,7230           10000                           CCS      A
001192: 32,7231           07234                           TC       SET2.5S
001193:
001194: 32,7232           37255        CAFREPIP           CAF      REPIPCAD
001195: 32,7233           07153                           TC       READACCS   +1
001196:
001197: 32,7234           47260        SET2.5S            CS       2.5SEC32
001198: 32,7235           60667                           AD       TBASE5
001199: 32,7236           60036                           AD       TIME1
001200: 32,7237           30572                           XCH      RUPTSTOR
001201:
001202: 32,7240           10572                           CCS      RUPTSTOR
001203: 32,7241           07232                           TC       CAFREPIP
001204: 32,7242           07232                           TC       CAFREPIP
001205: 32,7243           37260                           CAF      2.5SEC32
001206: 32,7244           60572                           AD       RUPTSTOR
001207:
001208: 32,7245           64476                           AD       POSMAX
001209: 32,7246           50000                           TS       A
001210: 32,7247           07232                           TC       CAFREPIP
001211:
001212: 32,7250           40572                           CS       RUPTSTOR
001213: 32,7251           02173                           TC       WAITLIST
001214: 32,7252           65232                           CADR     CAFREPIP
001215:
001216: 32,7253           02256                           TC       TASKOVER
001217:
001218: 32,7254           61313        PIPCADR            CADR     PIPASR
001219: 32,7255           61364        REPIPCAD           CADR     REPIPASR
001220: 32,7256     4504               CHDTMASK           EQUALS   BIT11
001221: 32,7256     4514               ENTRYMSK           EQUALS   BIT3
001222: 32,7256     4504               READMASK           EQUALS   BIT11
001223: 32,7256           40000        CSTMASK            OCT      40000
001224: 32,7257           00006        ABORT32            OCT      6
001225: 32,7260           00372        2.5SEC32           DEC      250        B-14
001226: 32,7261           00620        4SEC               DEC      400        B-14
001227:                                                                                                  # # Page 581
001228:
001229: 32,7262           05654        SERVICER           TC       BANKCALL                              #  COMPENSATE THE PIPA DATA IN THE DELV
001230: 32,7263           31017                           CADR     1/PIPA                                #  REGISTERS/
001231:
001232: 32,7264           40645                           CS       STATE                                 #  TEST IF PIPAS BIAS IS TO BE DISREGARDED
001233: 32,7265           74503                           MASK     BIT12
001234: 32,7266           10000                           CCS      A
001235: 32,7267           07276                           TC       REDO5.3                               #  NO
001236:
001237: 32,7270           51001                           TS       DELV                                  #  YES, CLEAR OUT DELV AS LONG AS BIAS FLAG
001238: 32,7271           51002                           TS       DELV       +1                         #       IS SET.
001239: 32,7272           51003                           TS       DELV       +2
001240: 32,7273           51004                           TS       DELV       +3
001241: 32,7274           51005                           TS       DELV       +4
001242: 32,7275           51006                           TS       DELV       +5
001243:
001244: 32,7276           04000        REDO5.3            TC       INTPRET
001245:
001246: 32,7277           76776                           ITC      0                                     #  SEE IF TIME FOR STATE VECTOR UPDATE.
001247: 32,7300           15712                                    501UPCHK                              #  (501 & 2 ONLY).
001248:
001249: 32,7301           76776        REGSTEP            ITC      0
001250: 32,7302           21551                                    CALCRVG
001251:
001252: 32,7303           33533        AVGRET             CAF      ELEVEN                                #  ROUTINE CYCLES 12 TIMES TO SAVE OLD VR,
001253: 32,7304           50115        AGAIN              TS       MPAC                                  #    VN FOR RESTARTS
001254: 32,7305           20115                           INDEX    MPAC
001255: 32,7306           41416                           CS       VR
001256: 32,7307           20115                           INDEX    MPAC
001257: 32,7310           51263                           TS       VR1                                   #  (TEMPORARIES IN AMEMORY)
001258: 32,7311           10115                           CCS      MPAC
001259: 32,7312           07304                           TC       AGAIN
001260:
001261: 32,7313           41446                           CS       VGCNTR                                #  SAVE FOR RESTARTS
001262: 32,7314           51261                           TS       VGCNT1
001263: 32,7315           41447                           CS       DVCNTR
001264: 32,7316           51262                           TS       DVCNT1
001265:
001266: 32,7317           02276                           TC       PHASCHNG
001267: 32,7320           02705                           OCT      02705
001268:
001269: 32,7321           04000        RE5.23             TC       INTPRET
001270:
001271: 32,7322           43576                           TEST     0                                     #  TEST IF ENTRY FLAG SET
001272: 32,7323           00036                                    ENTRYFLG
001273: 32,7324           25354                                    GETFF                                 #  IT IS NOT
001274: 32,7325           45176                           DMOVE    0
001275: 32,7326           21144                                    LAD
001276: 32,7327           33576                           STORE    INITL/D
001277:
001278: 32,7330           75575                           AXT,1    1
001279:                                                                                                  # # Page 582
001280: 32,7331           43565                           TEST     AXT,1
001281: 32,7332           00001                                    0
001282: 32,7333           00003                                    ABORTSIG
001283: 32,7334           25337                                    PACIFIC
001284: 32,7335           00011                                    8D
001285: 32,7336           46176        PACIFIC            COMP*    0
001286: 32,7337           03275                                    TPACIFC,1
001287: 32,7340           33145                           STORE    DTEAROT
001288:
001289: 32,7341           74176                           VMOVE*   0
001290: 32,7342           03301                                    RTPACIFC,1
001291: 32,7343           33115                           STORE    RTINIT
001292:
001293: 32,7344           76776                           ITC      0
001294: 32,7345           13450                                    EARROT1
001295:
001296: 32,7346           77576                           EXIT     0
001297:
001298: 32,7347           35501                           CAF      ZERO                                  #  RESET DELTAT +1 TO ZERO
001299: 32,7350           51030                           TS       DELTAT     +1
001300:
001301: 32,7351           05720                           TC       POSTJUMP                              #  GO TO ENTRY INITIALIZATION ROUTINE.
001302: 32,7352           61430                           CADR     STARTENT
001303:
001304: 32,7353           76776        GETFF              ITC      0                                     #  COMPUTE TIME TO FREE-FALL TO RTERM
001305: 32,7354           22001                                    CALCTFF
001306:
001307: 32,7355           43575        COASTEST           TEST     1                                     #  TEST IF COAST FLAG SET
001308: 32,7356           75026                           VMOVE    VSRT
001309: 32,7357           00022                                    COASTFLG
001310: 32,7360           25454                                    TFFTEST
001311: 32,7361           00766                                    RN                                    #  IT IS. TRANSFER RN,VN TO ORBITAL
001312: 32,7362           00002                                    RSCALE     -15D
001313: 32,7363           33101                           STORE    RRECT                                 #  INTEGRATION ROUTINE
001314:
001315: 32,7364           75176                           VMOVE    0
001316: 32,7365           00774                                    VN
001317: 32,7366           33107                           STORE    VRECT
001318:
001319: 32,7367           77576                           EXIT     0
001320:
001321: 32,7370           41456                           CS       TFF                                   #  SEE IF TFF IS POSMAX (I.E.- WILL NOT
001322: 32,7371           64476                           AD       POSMAX                                #    INTERSECT 400,000 FT)
001323: 32,7372           10000                           CCS      A
001324:
001325: 32,7373           03462                           TC       STATEUP                               #  ALL O.K., SO SET TFF2 FLAG TO ENABLE
001326: 32,7374           10000                           OCT      10000                                 #    (TFF - TFFMIN) CALCULATIONS FOR SPS2
001327: 32,7375           07406                           TC       NOMCASE                               #    IGNITION SEQUENCE
001328:
001329: 32,7376           41720                           CS       TFFNOM                                #  WILL NOT INTERSECT 400,000 FT, SO SET
001330:                                                                                                  # # Page 583
001331: 32,7377           40000                           COM                                            #    TFF TO NOMINAL VALUE TO COMPUTE
001332: 32,7400           51456                           TS       TFF                                   #    TAVEGON AND TCOAST FOR A SPS2 BURN
001333:
001334: 32,7401           41721                           CS       TFFNOM     +1
001335: 32,7402           40000                           COM
001336: 32,7403           51457                           TS       TFF        +1
001337:
001338: 32,7404           03474                           TC       STATEDWN                              #  RESET TFF2 FLAG SO THAT SPS2 IGNITION IS
001339: 32,7405           10000                           OCT      10000                                 #    SCHEDULED A FIXED TIME AFTER AVE G. ON
001340:
001341: 32,7406           04000        NOMCASE            TC       INTPRET
001342:
001343: 32,7407           66776                           DSU      0                                     #  TIME TO TURN AVE G ON =TFF-23MIN.
001344: 32,7410           01457                                    TFF
001345: 32,7411           25571                                    23MIN
001346: 32,7412           33211                           STORE    TAVEGON
001347:
001348: 32,7413           47574                           NOLOD    2                                     #  TIME OF COAST = PIPTIME + (TFF-25MIN)
001349: 32,7414           66756                           DSU      BMN                                   #  - TCUTOFF
001350: 32,7415           66742                           DSU      DAD
001351: 32,7416           25573                                    2MIN
001352: 32,7417           25433                                    SPS2NOW                               #  TAVEGON TOO SMALL-SCHEDULE SPS2 NOW
001353: 32,7420           01463                                    TCUTOFF
001354: 32,7421           01465                                    PIPTIME
001355: 32,7422           33557                           STORE    TCOAST
001356:
001357: 32,7423           77576                           EXIT     0
001358:
001359: 32,7424           41465                           CS       PIPTIME    +1                         #  START UP FREE-FALL GYRO DRIFT COMP.
001360: 32,7425           40000                           COM
001361: 32,7426           50755                           TS       OLDBT1
001362:
001363: 32,7427           03440                           TC       FLAG2UP                               #  BEGINS WITH NEXT IDLETASK. SET DRIFTFLG
001364: 32,7430           40000                           OCT      40000
001365:
001366: 32,7431           02124                           TC       ENDOFJOB                              #  SERVICER DIES HERE AT START OF COASTPHS.
001367:
001368: 32,7432           77576        SPS2NOW            EXIT     0
001369:
001370: 32,7433           03416                           TC       FLAG1UP                               #  SET INIT FLAG TO ENABLE MANEUVER TO
001371: 32,7434           00400                           OCT      00400                                 #    SPS2 BURN ATTITUDE
001372:
001373: 32,7435           34516                           CAF      ONE
001374: 32,7436           51446                           TS       VGCNTR
001375:
001376: 32,7437           03430                           TC       FLAG1DWN                              #  REMOVE COAST FLAG TO CANCEL COLD SOAK
001377: 32,7440           40000                           OCT      40000
001378:
001379: 32,7441           44516                           CS       ONE                                   #  LET ENEMA KILL COLD SOAK MANEUVER
001380: 32,7442           02312                           TC       NEWPHASE
001381:                                                                                                  # # Page 584
001382: 32,7443           00002                           OCT      00002
001383:
001384: 32,7444           44516                           CS       ONE                                   #  LET ENEMA KILL CALL FOR FDAONTSK
001385: 32,7445           02312                           TC       NEWPHASE
001386: 32,7446           00004                           OCT      00004
001387:
001388: 32,7447           32151                           CAF      PRIO15                                #  DO AN EMEMA AFTER THIS JOB
001389: 32,7450           02052                           TC       NOVAC
001390: 32,7451           11147                           CADR     ENEMA                                 #  RESTART READACCS AND WAIT FOR TFFMIN
001391:
001392: 32,7452           04000                           TC       INTPRET
001393:
001394: 32,7453           43575        TFFTEST            TEST     1                                     #  TEST IF TFFMIN SHOULD BE CHECKED.
001395: 32,7454           66616                           DSU      BPL                                   #  TFF2 FLAG SET AT SPS1 CUTOFF
001396: 32,7455           00004                                    TFF2FLAG
001397: 32,7456           25514                                    TFFTEST1
001398: 32,7457           01457                                    TFF
001399: 32,7460           01677                                    TFFMIN
001400: 32,7461           25514                                    TFFTEST1
001401: 32,7462           77576                           EXIT     0
001402:
001403: 32,7463           20017        TESTTFF            INHINT
001404: 32,7464           37575                           CAF      90SEC32
001405: 32,7465           02173                           TC       WAITLIST
001406: 32,7466           50463                           CADR     PLUSX2
001407:
001408: 32,7467           11722                           CCS      S2SWITCH                              #  SEE IF 2ND BURN ATTITUDE TO BE COMPUTED
001409: 32,7470           07477                           TC       SET32                                 #  NO
001410: 32,7471           07477                           TC       SET32
001411: 32,7472           07473                           TC       +1
001412: 32,7473           03416                           TC       FLAG1UP                               #  SET INIT FLAG TO RE:MANEUVER TO SPS2
001413: 32,7474           00400                           OCT      00400                                 #    BURN ATTITUDE
001414:
001415: 32,7475           34516                           CAF      ONE
001416: 32,7476           51446                           TS       VGCNTR
001417:
001418: 32,7477           02362        SET32              TC       NEWMODE                               #  SET MAJOR MODE TO PRE-SPS2
001419: 32,7500           00032                           OCT      00032
001420:
001421: 32,7501           03504                           TC       SETBRNSW                              #  SET BURN TO SPS2 BACK UP SETTING
001422: 32,7502           00020                           OCT      00020
001423:
001424: 32,7503           40036                           CS       TIME1
001425: 32,7504           50666                           TS       TBASE4
001426:
001427: 32,7505           33556                           CAF      THIRTY
001428: 32,7506           02312                           TC       NEWPHASE
001429: 32,7507           00004                           OCT      00004
001430:
001431: 32,7510           03474                           TC       STATEDWN                              #  REMOVE TFF2FLAG
001432:                                                                                                  # # Page 585
001433: 32,7511           10000                           OCT      10000
001434:
001435: 32,7512           04000                           TC       INTPRET
001436:
001437: 32,7513           43574        TFFTEST1           TEST     2                                     #  TEST IF INTP FLAG SET
001438: 32,7514           65132                           ABS      DSU
001439: 32,7515           73615                           BMN      TEST
001440: 32,7516           00027                                    INTPFLAG
001441: 32,7517           25603                                    INITEST                               #  IT IS NOT. CONTINUE AT INITEST
001442: 32,7520           01457                                    TFF                                   #  TEST IF TFF LESS THAN 95 SECS
001443: 32,7521           25601                                    DP95SEC
001444: 32,7522           25542                                    SHUTDWN1                              #  IT IS. PREPARE TO FREE-FALL RE-ENTER
001445: 32,7523           00032                                    INT1FLAG                              #  TEST IF FIRST INTERUPT FLAG SET
001446: 32,7524           25530                                    +3                                    #  IT IS NOT
001447:
001448: 32,7525           77576                           EXIT     0                                     #  IT IS. WAIT FOR 95 SEC INTERUPT
001449: 32,7526           07741                           TC       ENDSER32
001450:
001451: 32,7527           47575                           NOLOD    1                                     #  TEST IF TFF LESS THAN 200 SECS
001452: 32,7530           66616                           DSU      BPL
001453: 32,7531           25577                                    DP105SEC
001454: 32,7532           25603                                    INITEST                               #  IT IS NOT. CONTINUE
001455:
001456: 32,7533           77576                           EXIT     0
001457: 32,7534           05654                           TC       BANKCALL                              #  IT IS. BRANCH TO SHUTDOWN ROUTINES
001458: 32,7535           67037                           CADR     SHUTDOWN
001459:
001460: 32,7536           03416                           TC       FLAG1UP
001461: 32,7537           00100                           OCT      00100
001462:
001463: 32,7540           07546                           TC       SHTFLGUP
001464:
001465: 32,7541           77576        SHUTDWN1           EXIT     0
001466: 32,7542           05654                           TC       BANKCALL
001467: 32,7543           67037                           CADR     SHUTDOWN
001468:
001469: 32,7544           03430                           TC       FLAG1DWN                              #  REMOVE INTP FLAG (DISABLE TFF DECISIONS)
001470: 32,7545           01000                           OCT      01000
001471:
001472: 32,7546           03416        SHTFLGUP           TC       FLAG1UP                               #  SET SHTDN FLAG
001473: 32,7547           04000                           OCT      04000
001474:
001475: 32,7550           07741                           TC       ENDSER32
001476:
001477:
001478:
001479: 32,7551           33533        REDO5.23           CAF      ELEVEN                                #  RE-ESTABLISH VR, DIFFVECT IN CASE OF
001480: 32,7552           50115                           TS       MPAC                                  #  5.23 RESTART
001481: 32,7553           20115                           INDEX    MPAC
001482: 32,7554           41263                           CS       VR1
001483:                                                                                                  # # Page 586
001484: 32,7555           20115                           INDEX    MPAC
001485: 32,7556           51416                           TS       VR
001486: 32,7557           10115                           CCS      MPAC
001487: 32,7560           07552                           TC       REDO5.23   +1
001488:
001489: 32,7561           41261                           CS       VGCNT1
001490: 32,7562           51446                           TS       VGCNTR
001491: 32,7563           41262                           CS       DVCNT1
001492: 32,7564           51447                           TS       DVCNTR
001493:
001494: 32,7565           07321                           TC       RE5.23
001495:
001496:
001497:
001498: 32,7566           00000        DP2SEC             DEC      0.0
001499: 32,7567           00310        2SEC               DEC      200        B-14
001500: 32,7570           00010 15420  23MIN              2DEC     138000     B-28
001501: 32,7572           00000 27340  2MIN               2DEC     12000      B-28
001502: 32,7574           00077        OCT77              OCT      00077
001503: 32,7575           21450        90SEC32            DEC      9000       B-14
001504: 32,7576           00000 24404  DP105SEC           2DEC     10500      B-28
001505: 32,7600           00000 22434  DP95SEC            2DEC     9500       B-28
001506:
001507:                                                                                                  # # Page 587
001508:
001509: 32,7602           77576        INITEST            EXIT     0
001510: 32,7603           40646                           CS       FLAGWRD1                              #  TEST IF THIS IS AN INITIAL PASS
001511: 32,7604           74506                           MASK     INITMASK
001512: 32,7605           10000                           CCS      A
001513: 32,7606           07664                           TC       DVMNTEST                              #  IT IS NOT
001514:
001515: 32,7607           40647                           CS       FLAGWRD2                              #  TEST IF BURN IS ABORT AFTER TUMBLE ARRET
001516: 32,7610           76772                           MASK     TABTMASK
001517: 32,7611           10000                           CCS      A
001518: 32,7612           07617                           TC       INITISE                               #  IT IS NOT
001519:
001520: 32,7613           02362                           TC       NEWMODE                               #  SET MAJOR MODE TO POST TUMBLE RECOVERY
001521: 32,7614           00071                           OCT      00071
001522:
001523: 32,7615           37654                           CAF      31.8DEG                               #  TO REGAIN ATTITUDE AFTER TUMBLE SET AN
001524: 32,7616           51442                           TS       LOOKANG                               #  AVERAGE ANGLE TO HORIZON OF 31.8 DEGS.
001525:
001526: 32,7617           04000        INITISE            TC       INTPRET
001527:
001528: 32,7620           75176                           VMOVE    0                                     #  DEFINES TRAJECTORY PLANE FOR YAW
001529: 32,7621           00774                                    VN                                    #    STEERING. USED IN CALCVGB
001530: 32,7622           33107                           STORE    VIGNTION
001531:
001532: 32,7623           76776                           ITC      0                                     #  BRANCH TO VG, B VECTOR COMPUTATIONS
001533: 32,7624           12421                                    CALCVGB
001534:
001535: 32,7625           77576                           EXIT     0
001536:
001537: 32,7626           11446                           CCS      VGCNTR                                #  WAIT FOR SECOND PASS THRU CALCVGB BEFORE
001538: 32,7627           07631                           TC       +2                                    #  COMPUTING THRUST ATTITUDE
001539: 32,7630           07633                           TC       +3
001540:
001541: 32,7631           51446                           TS       VGCNTR
001542: 32,7632           07741                           TC       ENDSER32
001543:
001544: 32,7633           04000                           TC       INTPRET
001545:
001546: 32,7634           76776                           ITC      0
001547: 32,7635           26256                                    BURNINIT
001548:
001549: 32,7636           77576                           EXIT     0
001550:
001551: 32,7637           20017                           INHINT
001552: 32,7640           32146                           CAF      PRIO12                                #  ESTABLISH JOB TO COMPUTE MANEUVER TO
001553: 32,7641           02046                           TC       FINDVAC                               #  BURN INITIAL ATITUDE
001554: 32,7642           66404                           CADR     ATTIJOB
001555:
001556: 32,7643           34516                           CAF      ONE                                   #  SET VGCNTR FOR TWO PASSES THROUGH
001557: 32,7644           51446                           TS       VGCNTR                                #  CALCVGB BEFORE ISSUINS STEER COMMANDS
001558:                                                                                                  # # Page 588
001559: 32,7645           37655                           CAF      35DEG                                 #  RESTORE ANGLE TO HORIZON TO 35 DEGS
001560: 32,7646           51442                           TS       LOOKANG
001561:
001562: 32,7647           02276                           TC       PHASCHNG
001563: 32,7650           00402                           OCT      00402
001564:
001565: 32,7651           03430                           TC       FLAG1DWN                              #  REMOVE INIT FLAG
001566: 32,7652           00400                           OCT      00400
001567:
001568: 32,7653           07741                           TC       ENDSER32
001569:
001570: 32,7654           02647        31.8DEG            DEC      0.088333                              #  SCALED AT 1 REV
001571: 32,7655           03071        35DEG              DEC      0.097222
001572: 32,7656     4506               INITMASK           EQUALS   BIT9
001573:
001574: 32,7656           77576        VRFAIL             EXIT     0                                     #  EXIT HERE IF FAILURE TO COMPUTE ABORT VR
001575:
001576: 32,7657           11446                           CCS      VGCNTR                                #  TEST IF THIS IS LAST PASS
001577: 32,7660           07662                           TC       +2
001578: 32,7661           07737                           TC       ENDSHUT                               #  IT IS. DO SHUTDOWN
001579:
001580: 32,7662           51446                           TS       VGCNTR                                #  WAIT FOR MORE
001581: 32,7663           07741                           TC       ENDSER32
001582:
001583: 32,7664           40646        DVMNTEST           CS       FLAGWRD1                              #  TEST IF DV MONITOR IS ENABLED
001584: 32,7665           74512                           MASK     DVMONMSK
001585: 32,7666           10000                           CCS      A
001586: 32,7667           07741                           TC       ENDSER32                              #  IT IS NOT
001587:
001588: 32,7670           04000                           TC       INTPRET
001589:
001590: 32,7671           71174                           ABVAL    2                                     #  TEST IF DELV MAG. EXCEEDS DVMIN
001591: 32,7672           66756                           DSU      BMN
001592: 32,7673           77576                           EXIT
001593: 32,7674           01002                                    DELV
001594: 32,7675           26001                                    DVMIN
001595: 32,7676           25704                                    NODELTAV                              #  IT DOES NOT. START DV MONITOR
001596:
001597: 32,7677           44516                           CS       ONE                                   #  IT DOES. (DVCNTR NORMALLY NEGATIVE)
001598: 32,7700           51447                           TS       DVCNTR
001599:
001600: 32,7701           05654                           TC       BANKCALL
001601: 32,7702           66002                           CADR     STRTEST
001602:
001603: 32,7703           77576        NODELTAV           EXIT     0
001604: 32,7704           11447                           CCS      DVCNTR
001605:
001606: 32,7705           07712                           TC       DVALARM                               #  AFTER FIRST TIME SET ALARM
001607: 32,7706           07717                           TC       SHUTDWN3                              #  5 PASSES UP. PREPARE FOR RE-ENTRY
001608:                                                                                                  # # Page 589
001609: 32,7707           33532                           CAF      NINE                                  #  FIRST TIME SET DVCNTR FOR 10 PASSES
001610: 32,7710           51447                           TS       DVCNTR
001611:
001612: 32,7711           07741                           TC       ENDSER32
001613:
001614: 32,7712           03007        DVALARM            TC       ALARM
001615: 32,7713           01402                           OCT      01402
001616:
001617: 32,7714           11447                           CCS      DVCNTR
001618: 32,7715           51447                           TS       DVCNTR
001619:
001620: 32,7716           07741                           TC       ENDSER32
001621:
001622: 32,7717           40647        SHUTDWN3           CS       FLAGWRD2
001623: 32,7720           76416                           MASK     SPS1MASK
001624: 32,7721           10000                           CCS      A
001625: 32,7722           07735                           TC       SHUTDWN4                              #  SHUT DOWN IF NOT DOING SPS1 BURN
001626:
001627: 32,7723           20017                           INHINT                                         #  CALL ON ENGINE-OFF IMMEDIATELY IF SPS1
001628: 32,7724           34516                           CAF      ONE
001629: 32,7725           02173                           TC       WAITLIST
001630: 32,7726           64710                           CADR     ENGINOFF
001631: 32,7727           20016                           RELINT
001632:
001633: 32,7730           03430                           TC       FLAG1DWN                              #  REMOVE STEER FLAG
001634: 32,7731           00010                           OCT      00010
001635:
001636: 32,7732           02276                           TC       PHASCHNG
001637: 32,7733           04104                           OCT      04104
001638:
001639: 32,7734           07741                           TC       ENDSER32
001640:
001641: 32,7735           03416        SHUTDWN4           TC       FLAG1UP                               #  ENABLE FREE-FALL INTERRUPT
001642: 32,7736           01000                           OCT      01000
001643:
001644: 32,7737           05654        ENDSHUT            TC       BANKCALL
001645: 32,7740           67037                           CADR     SHUTDOWN
001646:
001647: 32,7741           05654        ENDSER32           TC       BANKCALL                              #  EXIT FROM SERVICER FROM BANK 32
001648: 32,7742           66241                           CADR     ENDSERV
001649:
001650: 33,6000                                           SETLOC   66000
001651: 33,6000     4512               DVMONMSK           EQUALS   BIT5
001652: 33,6000           00005 06565  DVMIN              2DEC     0.000318008                            #  2FT/S SCALED AT 19.16928 M/CS
001653:
001654: 33,6002           40646        STRTEST            CS       FLAGWRD1                              #  TEST IF STEER FLAG SET
001655: 33,6003           74513                           MASK     BIT4
001656: 33,6004           10000                           CCS      A
001657: 33,6005           06241                           TC       ENDSERV                               #  IT IS NOT
001658:                                                                                                  # # Page 590
001659: 33,6006           04000                           TC       INTPRET
001660:
001661: 33,6007           76776                           ITC      0
001662: 33,6010           12421                                    CALCVGB
001663:
001664: 33,6011           77576                           EXIT     0
001665:
001666: 33,6012           02276                           TC       PHASCHNG
001667: 33,6013           00505                           OCT      00505
001668:
001669: 33,6014           11446        REDO5.5            CCS      VGCNTR
001670: 33,6015           06017                           TC       +2                                    #  BEFORE TESTING VG AND GENERATING STEERIN
001671: 33,6016           06034                           TC       JUMP10                                #  COMMANDS
001672:
001673: 33,6017           51360                           TS       ERRORSUM                              #  ZERO STEER ERROR SUM
001674: 33,6020           51361                           TS       ERRORSUM   +1
001675: 33,6021           51362                           TS       ERRORSUM   +2
001676: 33,6022           51363                           TS       ERRORSUM   +3
001677: 33,6023           51364                           TS       ERRORSUM   +4
001678: 33,6024           51365                           TS       ERRORSUM   +5
001679:
001680: 33,6025           36033                           CAF      MDTINIT
001681: 33,6026           51444                           TS       MDT
001682: 33,6027           51445                           TS       MDT        +1
001683:
001684: 33,6030           11446                           CCS      VGCNTR
001685: 33,6031           51446                           TS       VGCNTR
001686:
001687: 33,6032           06241                           TC       ENDSERV
001688:
001689: 33,6033           00076        MDTINIT            DEC      0.00381                               #  16FT/S/S FOR 2.5 SECS AT 2(+5)M/CS
001690:
001691: 33,6034           03452        JUMP10             TC       FLAG2DWN                              #  REMOVE CALC FLAG (KILLS ATTITUDE MAN-
001692: 33,6035           02000                           OCT      02000                                 #  EUVER IF STILL ACTIVE)
001693:
001694: 33,6036           04000                           TC       INTPRET
001695:
001696: 33,6037           75775                           VXSC     1
001697: 33,6040           46753                           BVSU     UNIT
001698: 33,6041           01002                                    DELV
001699: 33,6042           21742                                    KPIP
001700: 33,6043           01411                                    CBDT
001701: 33,6044           33403                           STORE    UNITMDT
001702:
001703: 33,6045           47575                           NOLOD    1                                     #  TEST IF VG INCREASING WITH THRUST
001704: 33,6046           42616                           DOT      BPL
001705: 33,6047           01353                                    VG
001706: 33,6050           26235                                    VGALARM                               #  IT IS. BRANCH TO CUT ENGINE AND WAIT
001707: 33,6051           32033                           STORE    26D                                   #  VG ACTUAL
001708:                                                                                                  # # Page 591
001709: 33,6052           70776                           DAD      0                                     #  SUM TWO INTERVALS OF MDT
001710: 33,6053           00037                                    30D
001711: 33,6054           01445                                    MDT
001712:
001713: 33,6055           64773        JUMP9              DMP      3                                     #  RESCALE VG ACTUAL TO 2(+5)M/CS
001714: 33,6056           63746                           TSLT     BOV
001715: 33,6057           62746                           DDV      BOV                                   #  IF NO OVER FLOW ON DIVISION, LESS THAN
001716: 33,6060           64772                           DMP      ITC                                   #  2 INTERVALS OF VG LEFT
001717: 33,6061           00033                                    26D
001718: 33,6062           26163                                    0.995
001719: 33,6063           00004                                    3
001720: 33,6064           26072                                    STEERLAW
001721: 33,6065           77777                                    -
001722: 33,6066           26072                                    STEERLAW
001723: 33,6067           01030                                    DELTAT
001724: 33,6070           26173                                    SETTGO                                #  BRANCH TO SET TIME-TO-GO TO CUT-OFF
001725:
001726: 33,6071           45176        STEERLAW           DMOVE    0                                     #  SAVE NEW VALUE OF MDT
001727: 33,6072           00037                                    30D
001728: 33,6073           33445                           STORE    MDT
001729:
001730: 33,6074           64776                           DMP      0
001731: 33,6075           26165                                    K1STEER                               #  =(0.815...)(STEER GAIN)
001732: 33,6076           01030                                    DELTAT
001733:
001734: 33,6077           71173                           ABVAL    3                                     #  STEERING CROSS PRODUCT COMPUTED HERE
001735: 33,6100           57706                           TSLC     BDDV
001736: 33,6101           75606                           VXSC     VXV
001737: 33,6102           44376                           VSLT*
001738: 33,6103           01353                                    VG
001739: 33,6104           00050                                    X2
001740: 33,6105           77777                                    -
001741: 33,6106           01353                                    VG
001742: 33,6107           01403                                    UNITMDT
001743: 33,6110           00002                                    0,2
001744: 33,6111           33345                           STORE    STEERROR                              #  FIRST TERM IN STEERLAW OUTPUT. SCALED
001745:                                                                                                  #  AT ONE REVOLUTION
001746: 33,6112           47575                           NOLOD    1                                     #  INCREMENT SUM OF STEER ERRORS
001747: 33,6113           75642                           VXSC     VAD
001748: 33,6114           26167                                    K2STEER                               #  =(INTEGRATOR GAIN)/(STEER GAIN)
001749: 33,6115           01361                                    ERRORSUM
001750:
001751: 33,6116           47574                           NOLOD    2                                     #  TEST IF MAGNITUDE OF INTEGRATED STEER
001752: 33,6117           71132                           ABVAL    DSU                                   #  ERROR EXCEEDS MAX ALLOWABLE
001753: 33,6120           43776                           BPL
001754: 33,6121           26171                                    ERRORMAX
001755: 33,6122           26126                                    SUMPOINT
001756:
001757: 33,6123           75176                           VMOVE    0
001758: 33,6124           33361                           STORE    ERRORSUM                              #  STORE NEW STEER ERROR SUM
001759:                                                                                                  # # Page 592
001760:
001761: 33,6125           50775        SUMPOINT           VAD      1                                     #  SUM ERROR AND INTEGRATED ERROR TERMS
001762: 33,6126           76572                           RTB      ITC
001763: 33,6127           01345                                    STEERROR
001764: 33,6130           01361                                    ERRORSUM
001765: 33,6131           20265                                    FRESHPD
001766: 33,6132           12375                                    CDUDRIVE                              #  BRANCH WITH TOTAL STEERLAW OUTPUT IN VAC
001767:                                                                                                  #  SCALED AT ONE REVOLUTION
001768: 33,6133           44775        STREXIT            VSLT     1
001769: 33,6134           47175                           COMP     EXIT                                  #  RESCALE VG TO 2(+5)M/CS FOR DISPLAY
001770: 33,6135           01353                                    VG
001771: 33,6136           00003                                    2
001772:
001773: 33,6137           03302                           TC       GRABDSP                               #  TRY TO GRAB DISPLAY
001774: 33,6140           06156                           TC       NODISP                                #  ALREADY GRABBED. SKIP VG DISPLAY
001775:
001776: 33,6141           20067                           INDEX    FIXLOC                                #  LOAD UPPER REGISTERS OF VG INTO DSPTEM1
001777: 33,6142           40040                           CS       VAC
001778: 33,6143           50616                           TS       DSPTEM1
001779:
001780: 33,6144           20067                           INDEX    FIXLOC
001781: 33,6145           40042                           CS       VAC        +2
001782: 33,6146           50617                           TS       DSPTEM1    +1
001783:
001784: 33,6147           20067                           INDEX    FIXLOC
001785: 33,6150           40044                           CS       VAC        +4
001786: 33,6151           50620                           TS       DSPTEM1    +2
001787:
001788: 33,6152           36157                           CAF      V06N40
001789: 33,6153           03100                           TC       NVSUB
001790: 33,6154           03250                           TC       RELDSPON
001791:
001792: 33,6155           03362                           TC       FREEDSP
001793:
001794: 33,6156           06241        NODISP             TC       ENDSERV
001795:
001796: 33,6157           00640        V06N40             OCT      00640                                 #  VERB 06 NOUN 40
001797: 33,6160           06057 03250  1.523              2DEC     1.523      B-3
001798: 33,6162           37656 02437  0.995              2DEC     0.995
001799: 33,6164           03204 33423  K1STEER            2DEC     0.101859164                            #  (STEER GAIN =1/8)
001800: 33,6166           02436 27024  K2STEER            2DEC     0.08                                  #  (INTEGRATOR GAIN =0.01)
001801: 33,6170           00026 30133  ERRORMAX           2DEC     0.001388888                            #  1 DEGREE SCALED AT 2 REVS
001802:
001803: 33,6172           47574        SETTGO             NOLOD    2                                     #  COME HERE TO SET ENGINE-OFF CALL
001804: 33,6173           56633                           TSRT     COMP
001805: 33,6174           43575                           TEST     EXIT
001806: 33,6175           00005                                    4                                     #  C(MPAC) = TIME-TO-CUTOFF SINCE PIPTIME
001807:                                                                                                  # # Page 593
001808: 33,6176           00035                                    STEERFLG                              #  SCALED AT 2(+14) CS
001809: 33,6177           26134                                    STREXIT
001810:
001811: 33,6200           30115                           XCH      MPAC
001812: 33,6201           51460                           TS       LONGTIME                              #  SAVE MPAC  (USED IN RESTARTS)
001813:
001814: 33,6202           20017        REDO4.1            INHINT
001815: 33,6203           40036                           CS       TIME1
001816: 33,6204           50666                           TS       TBASE4
001817: 33,6205           61465                           AD       PIPTIME    +1
001818: 33,6206           10000                           CCS      A
001819: 33,6207           64500                           AD       BIT15
001820: 33,6210           06213                           TC       +3
001821: 33,6211           64516                           AD       ONE
001822: 33,6212           40000                           COM
001823:
001824: 33,6213           61460                           AD       LONGTIME                              #  (TEMP FOR MPAC)
001825: 33,6214           61560                           AD       TDECAY                                #  EFFECTIVE THRUST DECAY TIME
001826: 33,6215           51461                           TS       LONGTIME   +1
001827: 33,6216           10000                           CCS      A                                     #  TEST FOR - OR 0 WAITLIST CALLS
001828: 33,6217           06222                           TC       +3
001829: 33,6220           06222                           TC       +2
001830: 33,6221           35501                           CAF      ZERO
001831: 33,6222           64516                           AD       ONE
001832: 33,6223           02173                           TC       WAITLIST
001833: 33,6224           64710                           CADR     ENGINOFF
001834:
001835: 33,6225           02276                           TC       PHASCHNG
001836: 33,6226           00104                           OCT      00104
001837:
001838: 33,6227           03430                           TC       FLAG1DWN                              #  REMOVE STEER FLAG
001839: 33,6230           00010                           OCT      00010
001840:
001841: 33,6231           02276                           TC       PHASCHNG
001842: 33,6232           00204                           OCT      00204
001843:
001844: 33,6233           06241                           TC       ENDSERV
001845:
001846: 33,6234           77576        VGALARM            EXIT     0
001847: 33,6235           03007                           TC       ALARM
001848: 33,6236           01401                           OCT      01401
001849:
001850: 33,6237           05654                           TC       BANKCALL
001851: 33,6240           65717                           CADR     SHUTDWN3
001852:
001853: 33,6241           11030        ENDSERV            CCS      DELTAT     +1                         #  IF BIT1 PRESENT IN DELTAT +1, SET DELTAT
001854: 33,6242           36252                           CAF      HALFSEC                               #  1/PIPADT TO 2.5SECS (FOR ABORT STEERING)
001855: 33,6243           66253                           AD       TWOSEC
001856: 33,6244           51027                           TS       DELTAT
001857: 33,6245           60000                           DOUBLE
001858:                                                                                                  # # Page 594
001859: 33,6246           50755                           TS       1/PIPADT
001860:
001861: 33,6247           02276                           TC       PHASCHNG
001862: 33,6250           00105                           OCT      00105
001863:
001864: 33,6251           02124                           TC       ENDOFJOB
001865:
001866: 33,6252           03100        HALFSEC            DEC      50         B-9
001867: 33,6253           14400        TWOSEC             DEC      200        B-9
001868: 33,6254           00007        ALLABORT           OCT      7
001869:
001870:                                                                                                  # # Page 595
001871:
001872: 33,6255           53574        BURNINIT           AXC,1    2                                     #  C(X1)= 0  (TABT,ABRT,SPS1)
001873: 33,6256           45415                           ITA      TEST                                  #       =-2  (SPS2)
001874: 33,6257           53576                           AXC,1
001875: 33,6260           00001                                    0
001876: 33,6261           00052                                    S2
001877: 33,6262           00054                                    SPS2FLAG
001878: 33,6263           26266                                    +2
001879: 33,6264           00003                                    2
001880:
001881: 33,6265           76776                           ITC      0                                     #  COMPUTE DESIRED THRUST DIRECTION
001882: 33,6266           13402                                    CALCXSC
001883:
001884: 33,6267           76575                           RTB      1                                     #  SET UP CG ROTATION MATRIX IN PD
001885: 33,6270           42176                           SMOVE*
001886: 33,6271           20271                                    ZEROVAC
001887: 33,6272           03621                                    CGZ,1
001888: 33,6273           32007                           STORE    6
001889:
001890: 33,6274           47575                           NOLOD    1
001891: 33,6275           47065                           COMP     AST,1
001892: 33,6276           00007                                    6
001893: 33,6277           32003                           STORE    2
001894:
001895: 33,6300           42176                           SMOVE*   0
001896: 33,6301           03611                                    CGY,1
001897: 33,6302           32005                           STORE    4
001898:
001899: 33,6303           47575                           NOLOD    1
001900: 33,6304           47165                           COMP     AXT,1
001901: 33,6305           00023                                    18D
001902: 33,6306           32015                           STORE    12D
001903:
001904: 33,6307           74174        REPEAT2            VMOVE*   2                                     #  COMPUTE DESIRED SPACECRAFT ATTITUDE
001905: 33,6310           51640                           VXM      VAD*                                  #  MATRIX FROM DESIRED THRUST ATT. MATRIX
001906: 33,6311           73176                           UNIT
001907: 33,6312           00045                                    18D,1
001908: 33,6313           01367                                    XSC
001909: 33,6314           03021                                    XSC        +18D,1
001910: 33,6315           37065                           STORE    XSCD       +18D,1
001911:
001912: 33,6316           51575                           TIX,1    1
001913: 33,6317           44576                           ITCI
001914: 33,6320           26310                                    REPEAT2
001915: 33,6321           00052                                    S2
001916:                                                                                                  # # Page 596
001917:
001918: 33,6322           04000        ROLLJOB            TC       INTPRET
001919:
001920: 33,6323           75575                           AXT,1    1                                     #  GET SIN,COS OF THETAD,+1,+2
001921: 33,6324           54572                           AST,2    ITC
001922: 33,6325           00007                                    6
001923: 33,6326           26360                                    ROLLEXIT
001924: 33,6327           12013                                    THETRIG
001925:
001926: 33,6330           76776                           ITC      0                                     #  COMPUTE NAV. BASE COORDINATES
001927: 33,6331           12110                                    CALCSMNB
001928:
001929: 33,6332           75776                           VXSC     0
001930: 33,6333           01477                                    XNB
001931: 33,6334           12241                                    COS33
001932:
001933: 33,6335           75774                           VXSC     2
001934: 33,6336           50615                           VAD      TEST
001935: 33,6337           47176                           COMP
001936: 33,6340           01513                                    ZNB
001937: 33,6341           12237                                    SIN33
001938: 33,6342           77777                                    -
001939: 33,6343           00054                                    SPS2FLAG                              #  IF SPS2, INVERT XSC
001940: 33,6344           26347                                    HEADWN1
001941: 33,6345           32027                           STORE    22D
001942:
001943: 33,6346           47573        HEADWN1            NOLOD    3
001944: 33,6347           41753                           VXV      UNIT                                  #  =KR(TVC)(UNIT(XSC*RN)*YSC), WHERE
001945: 33,6350           41766                           VXV      VXSC                                  #        DT(MAX) = 10 SECS,
001946: 33,6351           44772                           VSLT     ITC                                   #        MAX ROLL GAIN = 1.0
001947: 33,6352           00766                                    RN
001948: 33,6353           01505                                    YNB                                   #  ( =YSC)
001949: 33,6354           26403                                    KR(TVC)                               #  TVC ROLL CONTROL GAIN
001950: 33,6355           00004                                    3
001951: 33,6356           12402                                    CDUDRVE2                              #  SUBENTRY OF CDUDRIVE
001952:
001953: 33,6357           77576        ROLLEXIT           EXIT     0
001954:
001955: 33,6360           40646                           CS       FLAGWRD1                              #  TEST IF STEER FLAG SET BEFORE SETTING
001956: 33,6361           74513                           MASK     BIT4                                  #  BURN MAJOR MODE
001957: 33,6362           10000                           CCS      A
001958: 33,6363           02124                           TC       ENDOFJOB
001959:
001960: 33,6364           34512                           CAF      BIT5                                  #  TEST IF BURN SWITCH IS SET TO SPS2
001961: 33,6365           70647                           MASK     FLAGWRD2
001962: 33,6366           10000                           CCS      A
001963: 33,6367           06377                           TC       SPS2MODE                              #  IT IS
001964:
001965: 33,6370           40647                           CS       FLAGWRD2                              #  TEST IF BURN IS SPS1
001966: 33,6371           74513                           MASK     BIT4
001967: 33,6372           10000                           CCS      A
001968:                                                                                                  # # Page 597
001969: 33,6373           02124                           TC       ENDOFJOB                              #  IT IS NOT
001970:
001971: 33,6374           02362                           TC       NEWMODE                               #  SET MAJOR MODE TO SPS1
001972: 33,6375           00041                           OCT      00041
001973: 33,6376           02124                           TC       ENDOFJOB
001974:
001975: 33,6377           02362        SPS2MODE           TC       NEWMODE                               #  SET MAJOR MODE TO SPS2
001976: 33,6400           00042                           OCT      00042
001977:
001978: 33,6401           02124                           TC       ENDOFJOB
001979:
001980: 33,6402           00516 07363  KR(TVC)            2DEC     0.0204                                #  ROLL GAIN =0.05, DT =5.0 SECS
001981:
001982:                                                                                                  # # Page 598
001983:
001984:                                                                                                  #  THIS ROUTINE CONTROLS THE USE OF CALCMANU IN COMPUTING, TIMING AND PERFORMING THE SEQUENCE OF MANEUVERS DURING
001985:                                                                                                  #  A LARGE ATTITUDE MANEUVER. FLIGHT 501 INVOLVES SUCH A MANEUVER WHEN ORIENTING TO
001986:                                                                                                  #        1.  ABORT BURN INITIAL ATTITUDE AFTER A TUMBLE ARREST
001987:                                                                                                  #        2.  NOMINAL FIRST BURN INITIAL ATTITUDE
001988:                                                                                                  #        3.  LOCAL VERTICAL AFTER NOMINAL FIRST BURN
001989:                                                                                                  #        4.  NOMINAL SECOND BURN INITIAL ATTITUDE
001990:                                                                                                  #        5.  SM/CM SEPARATION ATTITUDE
001991:                                                                                                  #        6.  CM PRE-ENTRY ATTITUDE
001992:
001993:
001994:
001995: 33,6404           05654        ATTIJOB            TC       BANKCALL
001996: 33,6405           30223                           CADR     IMUATTC
001997:
001998: 33,6406           03516                           TC       SETHETAD
001999:
002000: 33,6407           05654                           TC       BANKCALL
002001: 33,6410           30331                           CADR     IMUSTALL
002002: 33,6411           03066                           TC       CURTAINS
002003:
002004: 33,6412           04000                           TC       INTPRET
002005:
002006: 33,6413           76776        ATTIJOB1           ITC      0
002007: 33,6414           26500                                    GETMANU
002008:
002009: 33,6415           77576                           EXIT     0
002010:
002011: 33,6416           20017                           INHINT
002012: 33,6417           34516                           CAF      0.01SEC
002013: 33,6420           02173                           TC       WAITLIST
002014: 33,6421           66525                           CADR     DOMANU
002015:
002016: 33,6422           02124                           TC       ENDOFJOB
002017:
002018:
002019:
002020: 33,6423           04000        ATTIJOB2           TC       INTPRET
002021:
002022: 33,6424           76776                           ITC      0
002023: 33,6425           26500                                    GETMANU
002024:
002025: 33,6426           77576                           EXIT     0
002026: 33,6427           02124                           TC       ENDOFJOB
002027:
002028:
002029:
002030: 33,6430           47576        SNAPOUT            NOLOD    0
002031: 33,6431           32701                           STORE    THETAD
002032:
002033: 33,6432           43575                           TEST     1                                     #  TEST IF SHTDN FLAG SET (I.E. HAS FREE-
002034:                                                                                                  # # Page 599
002035: 33,6433           43575                           TEST     EXIT                                  #  FALL INTERRUPT OCCURRED)
002036: 33,6434           00025                                    SHTDNFLG
002037: 33,6435           26447                                    JUMP7
002038: 33,6436           00043                                    CDUXFLAG                              #  TEST IF CDUXFLAG SET (I.E. HAS CM/SM
002039: 33,6437           26473                                    ENDMANU                               #  SEPARATION OCCURRED)
002040:
002041: 33,6440           03416                           TC       FLAG1UP                               #  SET ENTRY FLAG
002042: 33,6441           00004                           OCT      00004
002043:
002044: 33,6442           44516                           CS       ONE
002045: 33,6443           02312                           TC       NEWPHASE
002046: 33,6444           00003                           OCT      00003
002047:
002048: 33,6445           02124                           TC       ENDOFJOB
002049:
002050: 33,6446           43575        JUMP7              TEST     1
002051: 33,6447           77576                           EXIT
002052: 33,6450           00022                                    COASTFLG
002053: 33,6451           26460                                    JUMP6
002054:
002055: 33,6452           03416                           TC       FLAG1UP                               #  SET SOAK FLAG FOR BEGINNING OF CONTROL
002056: 33,6453           10000                           OCT      10000                                 #    AT COLD SOAK ATTITUDE
002057:
002058: 33,6454           02362                           TC       NEWMODE
002059: 33,6455           00022                           OCT      00022
002060:
002061: 33,6456           06473                           TC       ENDMANU    +1
002062:
002063: 33,6457           43576        JUMP6              TEST     0
002064: 33,6460           00056                                    TABTFLAG
002065: 33,6461           26473                                    ENDMANU
002066:
002067: 33,6462           77576                           EXIT     0
002068:
002069: 33,6463           20017                           INHINT
002070: 33,6464           34516                           CAF      0.01SEC
002071: 33,6465           02173                           TC       WAITLIST
002072: 33,6466           64527                           CADR     ATTCNOFF
002073:
002074: 33,6467           35503                           CAF      TWO                                   #  SET VGCNTR FOR THREE PASSES THROUGH
002075: 33,6470           51446                           TS       VGCNTR                                #  CALCVGB BEFORE STARTING ABORT STEERING
002076:
002077: 33,6471           06473                           TC       ENDMANU    +1
002078:
002079: 33,6472           77576        ENDMANU            EXIT     0
002080:
002081: 33,6473           44516                           CS       ONE
002082: 33,6474           02312                           TC       NEWPHASE
002083: 33,6475           00002                           OCT      2
002084:                                                                                                  # # Page 600
002085: 33,6476           02124                           TC       ENDOFJOB
002086:
002087:                                                                                                  # # Page 601
002088:
002089: 33,6477           45575        GETMANU            ITA      1
002090: 33,6500           76776                           ITC
002091: 33,6501           01475                                    EXITCAD1
002092: 33,6502           14001                                    CALCMANU
002093:
002094: 33,6503           43576                           TEST     0
002095: 33,6504           00046                                    CALCFLAG
002096: 33,6505           26431                                    SNAPOUT
002097:
002098: 33,6506           53574                           AXC,1    2
002099: 33,6507           43455                           TEST     AXC,1
002100: 33,6510           43455                           TEST     AXC,1
002101: 33,6511           00001                                    0
002102: 33,6512           00045                                    ROLLFLAG
002103: 33,6513           26521                                    SETDTH
002104: 33,6514           00003                                    2
002105: 33,6515           00043                                    CDUXFLAG
002106: 33,6516           26521                                    SETDTH
002107: 33,6517           00005                                    4
002108:
002109: 33,6520           44176        SETDTH             DMOVE*   0
002110: 33,6521           33461                                    DTH,1
002111: 33,6522           33453                           STORE    DTHETA
002112:
002113: 33,6523           44576                           ITCI     0
002114: 33,6524           01475                                    EXITCAD1
002115:
002116:
002117:
002118: 33,6525     4516               0.01SEC            EQUALS   BIT1
002119:
002120:                                                                                                  # # Page 602
002121:
002122: 33,6525           03440        DOMANU             TC       FLAG2UP                               #  SET DOMANU FLAG
002123: 33,6526           01000        DOMANMSK           OCT      01000
002124:
002125: 33,6527           40647        DOMANU1            CS       FLAGWRD2                              #  KILL DOMANU IF CALC FLAG NOT SET
002126: 33,6530           74504                           MASK     BIT11                                 #  (CALCMASK)
002127: 33,6531           10000                           CCS      A
002128: 33,6532           06552                           TC       DOMANOFF
002129:
002130: 33,6533           36526                           CAF      DOMANMSK                              #  TEST IF DOMAN FLAG SET
002131: 33,6534           70647                           MASK     FLAGWRD2
002132: 33,6535           10000                           CCS      A
002133: 33,6536           06543                           TC       SETMANU                               #  IT IS
002134:
002135: 33,6537           36556                           CAF      TPAD       +1                         #  IT IS NOT. START NEXT MANEUVER IN TPAD
002136: 33,6540           02173                           TC       WAITLIST                              #  SECS
002137: 33,6541           66525                           CADR     DOMANU
002138:
002139: 33,6542           02256                           TC       TASKOVER
002140:
002141: 33,6543           32156        SETMANU            CAF      PRIO23                                #  ESTABLISH MANUJOB
002142: 33,6544           02046                           TC       FINDVAC
002143: 33,6545           66560                           CADR     MANUJOB
002144:
002145: 33,6546           36557                           CAF      0.5SEC                                #  RECALL DOMANU1 IN 0.5 SECS
002146: 33,6547           02173                           TC       WAITLIST
002147: 33,6550           66527                           CADR     DOMANU1
002148:
002149: 33,6551           02256                           TC       TASKOVER
002150:
002151: 33,6552           03452        DOMANOFF           TC       FLAG2DWN                              #  REMOVE DOMANU FLAG
002152: 33,6553           01000                           OCT      01000
002153:
002154: 33,6554           02256                           TC       TASKOVER
002155:
002156:
002157:
002158: 33,6555           00000        TPAD               DEC      0.0
002159: 33,6556           00764        5SEC               DEC      500        B-14
002160: 33,6557           00062        0.5SEC             DEC      50         B-14
002161:
002162:
002163:
002164: 33,6560           04000        MANUJOB            TC       INTPRET
002165:
002166: 33,6561           66775                           DSU      1                                     #  TEST IF THETAMAN LESS THAN DTHETA.
002167: 33,6562           43633                           BPL      COMP
002168: 33,6563           01453                                    DTHETA
002169: 33,6564           01455                                    THETAMAN
002170: 33,6565           26572                                    JUMP4                                 #  IT IS. STORE REMAINING THETAMAN
002171: 33,6566           33455                           STORE    THETAMAN
002172:                                                                                                  # # Page 603
002173: 33,6567           76776                           ITC      0
002174: 33,6570           26601                                    DRIVECDU
002175:
002176: 33,6571           45176        JUMP4              DMOVE    0                                     #  STORE REMAINING THETAMAN IN DTHETA
002177: 33,6572           01455                                    THETAMAN
002178: 33,6573           33453                           STORE    DTHETA
002179:
002180: 33,6574           77576                           EXIT     0
002181:
002182: 33,6575           03452                           TC       FLAG2DWN                              #  REMOVE DOMANU FLAG
002183: 33,6576           01000                           OCT      01000
002184:
002185: 33,6577           04000                           TC       INTPRET
002186:
002187: 33,6600           75775        DRIVECDU           VXSC     1                                     #  FORM INCREMENTAL MANEUVER VECTOR
002188: 33,6601           44772                           VSLT     ITC
002189: 33,6602           01323                                    WC
002190: 33,6603           01453                                    DTHETA
002191: 33,6604           00002                                    1
002192: 33,6605           12375                                    CDUDRIVE
002193:
002194: 33,6606           43576                           TEST     0                                     #  TEST IF DOMAN FLAG SET
002195: 33,6607           00047                                    DOMANFLG
002196: 33,6610           26614                                    NEXTMAN                               #  IT IS NOT. GET NEXT MANEUVER
002197:
002198: 33,6611           77576                           EXIT     0
002199: 33,6612           02124                           TC       ENDOFJOB
002200:
002201: 33,6613           77576        NEXTMAN            EXIT     0
002202:
002203: 33,6614           20017                           INHINT
002204: 33,6615           32146                           CAF      PRIO12                                #  ESTABLISH ATTIJOB2 TO COMPUTE NEXT MAN.
002205: 33,6616           02046                           TC       FINDVAC
002206: 33,6617           66423                           CADR     ATTIJOB2
002207:
002208: 33,6620           02124                           TC       ENDOFJOB
002209:
002210:                                                                                                  # # Page 604
002211:
002212: 33,6621           02362        SOAKINIT           TC       NEWMODE                               #  SET MAJOR MODE TO MANEUVER TO COLDSOAK
002213: 33,6622           00021                           OCT      00021
002214:
002215: 33,6623           04000                           TC       INTPRET
002216:
002217: 33,6624           43176                           SMOVE    0
002218: 33,6625           01676                                    ANGLEZ                                #  COLDSOAK -  Z GIMBAL ANGLE
002219:
002220: 33,6626           43176                           SMOVE    0
002221: 33,6627           01675                                    ANGLEY                                #  COLDSOAK -  Y GIMBAL ANGLE
002222:
002223: 33,6630           43175                           SMOVE    1
002224: 33,6631           41033                           VDEF     COMP
002225: 33,6632           01674                                    ANGLEX                                #  COLDSOAK -  X GIMBAL ANGLE
002226: 33,6633           33315                           STORE    CDUTEMP
002227:
002228: 33,6634           75575                           AXT,1    1
002229: 33,6635           76776                           ITC
002230: 33,6636           00007                                    6
002231: 33,6637           12041                                    SINCOS
002232:
002233: 33,6640           76776                           ITC      0
002234: 33,6641           12110                                    CALCSMNB                              #  NAV BASE IN SM COORDINATES
002235:
002236: 33,6642           76776                           ITC      0
002237: 33,6643           12213                                    CALCNBSC                              #  SC IN SM COORDINATES
002238:
002239: 33,6644           75176                           VMOVE    0
002240: 33,6645           01367                                    XSC
002241: 33,6646           33411                           STORE    XSCD
002242:
002243: 33,6647           75176                           VMOVE    0
002244: 33,6650           01375                                    YSC
002245: 33,6651           33417                           STORE    YSCD
002246:
002247: 33,6652           75176                           VMOVE    0
002248: 33,6653           01403                                    ZSC
002249: 33,6654           33425                           STORE    ZSCD
002250:
002251: 33,6655           76776                           ITC      0                                     #  BRANCH TO DO MANEUVER
002252: 33,6656           26414                                    ATTIJOB1
002253:
002254:                                                                                                  # # Page 605
002255:
002256: 33,6657           45501        SOAKTASK           CS       ZERO                                  #  COME HERE FIRST TIME ONLY. CLEAR OUT
002257: 33,6660           51001                           TS       DELV                                  #  DELV FOR FREE-FALL COMPUTATIONS
002258: 33,6661           51002                           TS       DELV       +1
002259: 33,6662           51003                           TS       DELV       +2
002260: 33,6663           51004                           TS       DELV       +3
002261: 33,6664           51005                           TS       DELV       +4
002262: 33,6665           51006                           TS       DELV       +5
002263:
002264: 33,6666           34500        SOAKTSK1           CAF      BIT15                                 #  TEST IF COAST FLAG SET
002265: 33,6667           70646                           MASK     FLAGWRD1
002266: 33,6670           10000                           CCS      A
002267: 33,6671           03062                           TC       CCSHOLE
002268: 33,6672           02256                           TC       TASKOVER
002269:
002270: 33,6673           35362                           CAF      SEVEN
002271: 33,6674           02312                           TC       NEWPHASE
002272: 33,6675           00005                           OCT      0005
002273:
002274: 33,6676           40036        REDO5.7            CS       TIME1
002275: 33,6677           50667                           TS       TBASE5
002276:
002277: 33,6700           34513                           CAF      EIGHT
002278: 33,6701           02312                           TC       NEWPHASE
002279: 33,6702           00005                           OCT      00005
002280:
002281: 33,6703           36712                           CAF      2SEC33
002282: 33,6704           02173                           TC       WAITLIST
002283: 33,6705           66666                           CADR     SOAKTSK1
002284:
002285: 33,6706           32147                           CAF      PRIO13
002286: 33,6707           02046                           TC       FINDVAC
002287: 33,6710           66713                           CADR     SOAKJOB
002288:
002289: 33,6711           02256                           TC       TASKOVER
002290:
002291: 33,6712           00310        2SEC33             DEC      200        B-14
002292:
002293:                                                                                                  # # Page 606
002294:
002295: 33,6713           40646        SOAKJOB            CS       FLAGWRD1                              #  TEST SOAKFLAG
002296: 33,6714           74502                           MASK     BIT13
002297: 33,6715           10000                           CCS      A
002298: 33,6716           07030                           TC       SOAKEXIT                              #  SOAKFLAG OFF
002299: 33,6717           04000                           TC       INTPRET                               #   SOAKFLAG ON
002300:
002301: 33,6720           45176                           DMOVE    0                                     #  SET DELTAT TO 4 SECS FOR ORBITAL INT.
002302: 33,6721           27036                                    DT4SEC
002303: 33,6722           33030                           STORE    DELTAT
002304:
002305: 33,6723           75176                           VMOVE    0                                     #  SAVE VRECT AND RRECT IN CASE OF RESTARTS
002306: 33,6724           01101                                    RRECT
002307: 33,6725           33656                           STORE    RRECCMEM
002308:
002309: 33,6726           75176                           VMOVE    0
002310: 33,6727           01107                                    VRECT
002311: 33,6730           33664                           STORE    VRECCMEM
002312:
002313: 33,6731           77576                           EXIT     0
002314: 33,6732           02276                           TC       PHASCHNG
002315: 33,6733           01205                           OCT      01205
002316:
002317: 33,6734           03430        REDO5.10           TC       FLAG1DWN                              #  REMOVE COAST, SOAK FLAGS
002318: 33,6735           50000                           OCT      50000
002319:
002320: 33,6736           04000                           TC       INTPRET
002321:
002322: 33,6737           75176                           VMOVE    0                                     #  RESTORE RRECT AND VRECT FROM CMEMORY.
002323: 33,6740           01656                                    RRECCMEM
002324: 33,6741           33101                           STORE    RRECT
002325:
002326: 33,6742           75176                           VMOVE    0
002327: 33,6743           01664                                    VRECCMEM
002328: 33,6744           33107                           STORE    VRECT
002329:
002330: 33,6745           76776                           ITC      0                                     #  BRANCH TO DO ORBITAL INTEGRATION
002331: 33,6746           20001                                    AVETOMD1
002332:
002333: 33,6747           75175                           VMOVE    1
002334: 33,6750           44776                           VSLT
002335: 33,6751           01231                                    RIG-4SEC
002336: 33,6752           00002                                    RSCALE     -15D
002337: 33,6753           32766                           STORE    RN                                    #  SET RN TO 4 SECS BEFORE IGNITION
002338:
002339: 33,6754           76575                           RTB      1
002340: 33,6755           76776                           ITC
002341: 33,6756           20265                                    FRESHPD
002342: 33,6757           21643                                    CALCGRAV
002343:
002344: 33,6760           75176                           VMOVE    0
002345:                                                                                                  # # Page 607
002346: 33,6761           01107                                    VIGNTION
002347: 33,6762           32774                           STORE    VN                                    #  SET VN AT IGNITION
002348:
002349: 33,6763           75575                           AXT,1    1
002350: 33,6764           67572                           SXA,1    ITC
002351: 33,6765           12462                                    501SPS2
002352: 33,6766           01471                                    VRCADR
002353: 33,6767           12421                                    CALCVGB
002354:
002355: 33,6770           75175                           VMOVE    1
002356: 33,6771           44776                           VSLT
002357: 33,6772           01101                                    RIGNTION
002358: 33,6773           00002                                    RSCALE     -15D
002359: 33,6774           32766                           STORE    RN                                    #  SET RN AT IGNITION
002360:
002361: 33,6775           76776                           ITC      0
002362: 33,6776           21643                                    CALCGRAV
002363:
002364: 33,6777           76776                           ITC      0
002365: 33,7000           12421                                    CALCVGB                               #  GET VR AT IGNITION. COMPUTE CBDT
002366:
002367: 33,7001           76776                           ITC      0
002368: 33,7002           26256                                    BURNINIT                              #  INITIALISE BURN
002369:
002370: 33,7003           45176                           DMOVE    0
002371: 33,7004           27034                                    DT2SEC
002372: 33,7005           33030                           STORE    DELTAT                                #  RESTORE DELTAT TO 2 SECS FOR SPS2
002373:
002374: 33,7006           75176                           VMOVE    0
002375: 33,7007           01223                                    VAVEGON
002376: 33,7010           32774                           STORE    VN                                    #  INITIALISE CALCRVG FOR TURN-ON
002377:
002378: 33,7011           75175                           VMOVE    1
002379: 33,7012           44776                           VSLT
002380: 33,7013           01215                                    RAVEGON
002381: 33,7014           00002                                    RSCALE     -15D
002382: 33,7015           32766                           STORE    RN
002383:
002384: 33,7016           76776                           ITC      0
002385: 33,7017           21643                                    CALCGRAV
002386:
002387: 33,7020           77576                           EXIT     0
002388:
002389: 33,7021           34516                           CAF      ONE                                   #  SET VGCNTR FOR TWO PASSES THRU CALCVGB
002390: 33,7022           51446                           TS       VGCNTR                                #  BEFORE SPS2 STEERING
002391:
002392: 33,7023           02362                           TC       NEWMODE                               #  SET MAJOR MODE TO READY FOR R,V,T UPDATE
002393: 33,7024           00024                           OCT      00024
002394:
002395: 33,7025           02276                           TC       PHASCHNG                              #  CHANGE PHASE TO 5.20 TO ENABLE V76 RST.
002396:                                                                                                  # # Page 608
002397: 33,7026           02405                           OCT      02405
002398:
002399: 33,7027           02124                           TC       ENDOFJOB
002400:
002401: 33,7030           02276        SOAKEXIT           TC       PHASCHNG
002402: 33,7031           01305                           OCT      01305
002403:
002404: 33,7032           02124                           TC       ENDOFJOB
002405:
002406: 33,7033           14400 00000  DT2SEC             2DEC     200        B-9
002407: 33,7035           31000 00000  DT4SEC             2DEC     400        B-9
002408: 24,6201                                           BANK     24
002409:
002410:                                                                                                  # # Page 609
002411:
002412:                                                                                                  #  UPTASK AND UPJOB OCCUR 120 SECS BEFORE PLUSX2 AND INCORPORATE STATE VECTOR UPDATES VIA VERB 76
002413:
002414: 24,6201           36352        UPTASK             CAF      10SEC24                               #  SCHEDULE FDAI ALIGN OFF IN 10 SECS
002415: 24,6202           02173                           TC       WAITLIST
002416: 24,6203           50327                           CADR     FDAIOFF2
002417:
002418: 24,6204           03373                           TC       RELAYON                               #  SET SCS FDAI ALIGN DISCRETE (C31)
002419: 24,6205           40400                           OCT      40400
002420:
002421: 24,6206           34373                           CAF      PRIO6                                 #  ESTABLISH UPJOB
002422: 24,6207           02046                           TC       FINDVAC
002423: 24,6210           50225                           CADR     UPJOB
002424:
002425: 24,6211           35362                           CAF      SEVEN
002426: 24,6212           02312                           TC       NEWPHASE
002427: 24,6213           00004                           OCT      00004
002428:
002429: 24,6214           40036                           CS       TIME1
002430: 24,6215           50666                           TS       TBASE4
002431:
002432: 24,6216           44516                           CS       ONE                                   #  REMOVE UPDATE RESTART CAPABILITY
002433: 24,6217           02312                           TC       NEWPHASE
002434: 24,6220           00005                           OCT      5
002435:
002436: 24,6221           34513                           CAF      EIGHT
002437: 24,6222           02312                           TC       NEWPHASE
002438: 24,6223           00004                           OCT      00004
002439:
002440: 24,6224           02256                           TC       TASKOVER
002441:
002442: 24,6225           02362        UPJOB              TC       NEWMODE                               #  REVERT TO ATTITUDE HOLD WITH NO V76.
002443: 24,6226           00022                           OCT      22
002444:
002445: 24,6227           32566                           CAF      LDNLST1                               #  REVERT BACK TO DOWNLIST 1.
002446: 24,6230           50672                           TS       DNLSTADR
002447:
002448: 24,6231           04000                           TC       INTPRET
002449:
002450: 24,6232           43574                           TEST     2                                     #  NO FURTHER ACTION IF NO V76 COMPLETED.
002451: 24,6233           70742                           DAD      DAD                                   #  IF SO, FORM DT FOR FINAL INTEGRATION.
002452: 24,6234           66776                           DSU
002453: 24,6235           00023                                    UPDATFLG
002454: 24,6236           10310                                    NOSTATE
002455: 24,6237           01463                                    TCUTOFF
002456: 24,6240           01557                                    TCOAST
002457: 24,6241           10351                                    DP120SEC
002458: 24,6242           01115                                    STBUFF     +12D
002459: 24,6243           33211                           STORE    TAVEGON
002460:
002461: 24,6244           52775                           MXV      1
002462:                                                                                                  # # Page 610
002463: 24,6245           44776                           VSLT
002464: 24,6246           01101                                    RRECT
002465: 24,6247           01052                                    REFSMMAT
002466: 24,6250           00002                                    1                                     #  THIS ASSUMES THAT UPDATE SCALED 2(26)M
002467: 24,6251           33656                           STORE    RRECCMEM
002468:
002469: 24,6252           52775                           MXV      1
002470: 24,6253           44776                           VSLT
002471: 24,6254           01107                                    VRECT
002472: 24,6255           01052                                    REFSMMAT
002473: 24,6256           00002                                    1                                     #  THIS ASSUMES THAT UPDATE SCALED 2(7)M/CS
002474: 24,6257           33664                           STORE    VRECCMEM
002475:
002476: 24,6260           77576                           EXIT     0
002477: 24,6261           02276                           TC       PHASCHNG
002478: 24,6262           03504                           OCT      03504
002479:
002480: 24,6263           04000        REDO4.29           TC       INTPRET
002481: 24,6264           75176                           VMOVE    0
002482: 24,6265           01656                                    RRECCMEM
002483: 24,6266           33101                           STORE    RRECT
002484:
002485: 24,6267           75176                           VMOVE    0
002486: 24,6270           01664                                    VRECCMEM
002487: 24,6271           33107                           STORE    VRECT
002488:
002489: 24,6272           76776                           ITC      0
002490: 24,6273           20010                                    AVETOMD2
002491:
002492: 24,6274           75176                           VMOVE    0                                     #  LEAVE RAVEGON, VAVEGON IN RN, VN.
002493: 24,6275           01223                                    VAVEGON
002494: 24,6276           32774                           STORE    VN
002495:
002496: 24,6277           44776                           VSLT     0
002497: 24,6300           01215                                    RAVEGON
002498: 24,6301           00002                                    RSCALE     -15D
002499: 24,6302           32766                           STORE    RN
002500:
002501: 24,6303           76575                           RTB      1
002502: 24,6304           76776                           ITC
002503: 24,6305           20265                                    FRESHPD
002504: 24,6306           21643                                    CALCGRAV
002505:
002506: 24,6307           76776        NOSTATE            ITC      0                                     #  GO GET TFF
002507: 24,6310           22001                                    CALCTFF
002508:
002509: 24,6311           66775                           DSU      1                                     #  SEE IF TFF IS TOO HIGH
002510: 24,6312           43775                           BPL      EXIT
002511: 24,6313           01457                                    TFF
002512: 24,6314           10356                                    TFFLIMIT
002513:                                                                                                  # # Page 611
002514: 24,6315           10324                                    TFF2DOWN                              #  YES
002515:
002516: 24,6316           02362        SETMM23            TC       NEWMODE                               #  HOLD ATTITUDE AFTER ORBITAL INTEGRATION
002517: 24,6317           00023                           OCT      23
002518:
002519: 24,6320           02276                           TC       PHASCHNG
002520: 24,6321           01104                           OCT      01104
002521:
002522: 24,6322           03151        REDO4.9            TC       JAMTERM                               #  FLUSH OUT V76 IF STILL IN PINBALL
002523:
002524:
002525:
002526: 24,6323           77576        TFF2DOWN           EXIT     0
002527: 24,6324           03474                           TC       STATEDWN                              #  RESET TFF2 FLAG
002528: 24,6325           10000                           OCT      10000
002529: 24,6326           06316                           TC       SETMM23
002530:
002531:
002532:
002533: 24,6327           03405        FDAIOFF2           TC       RELAYOFF                              #  REMOVE SCS FDAI ALIGN DISCRETE (C31)
002534: 24,6330           40400                           OCT      40400
002535:
002536: 24,6331           36353                           CAF      105SEC
002537: 24,6332           02173                           TC       WAITLIST
002538: 24,6333           50335                           CADR     PREAVGON
002539:
002540: 24,6334           02256                           TC       TASKOVER
002541:
002542:
002543:
002544: 24,6335           36354        PREAVGON           CAF      5SEC24
002545: 24,6336           02173                           TC       WAITLIST
002546: 24,6337           50357                           CADR     AVGON
002547:
002548: 24,6340           03405                           TC       RELAYOFF                              #  BAK-UP FDAI ALIGN OFF IN CASE OF
002549: 24,6341           40400                           OCT      40400                                 #    RESTARTS
002550:
002551: 24,6342           03430                           TC       FLAG1DWN                              #  REMOVE UPDAT FLAG TO KILL ORB. INTEGR.
002552: 24,6343           20000                           OCT      20000
002553:
002554: 24,6344           33553                           CAF      TWENTY7
002555: 24,6345           02312                           TC       NEWPHASE
002556: 24,6346           00004                           OCT      4
002557:
002558: 24,6347           02256                           TC       TASKOVER
002559:
002560: 24,6350           00000 27340  DP120SEC           2DEC     12000      B-28
002561: 24,6352           01750        10SEC24            DEC      1000       B-14
002562: 24,6353           24404        105SEC             DEC      10500      B-14
002563:                                                                                                  # # Page 612
002564: 24,6354           00764        5SEC24             DEC      500        B-14
002565: 24,6355           34631 23146  TFFLIMIT           2DEC     .9                                    #  JUST SO ITS HIGH
002566:
002567:                                                                                                  # # Page 613
002568:
002569:                                                                                                  #  SHUTDOWN IS A CLOSED SUBROUTINE WHICH IS ENTERED PRIOR TO CM/SM SEPARATION. ITS PURPOSE IS TO CLOSE OUT ALL SCS
002570:                                                                                                  #  FUNCTIONS NOT CONCERNED WITH SEPARATION AND ENTRY, AND TO INITIATE THOSE THAT ARE
002571:
002572: 33,7037                                           BANK     33
002573:
002574: 33,7037           20017        SHUTDOWN           INHINT
002575: 33,7040           32162                           CAF      PRIO27                                #  ESTABLISH HIGH PRIO JOB TO DO SHUTDOWN
002576: 33,7041           02052                           TC       NOVAC
002577: 33,7042           11147                           CADR     ENEMA                                 #  CLEANS OUT EXEC AND WAITLIST.
002578: 33,7043           20016                           RELINT
002579:
002580: 33,7044           34516                           CAF      ONE                                   #  EFFECTIVELY STOP ANY WAITLIST ACTIVITY
002581: 33,7045           50037                           TS       TIME3
002582:
002583: 33,7046           44516                           CS       ONE
002584: 33,7047           02312                           TC       NEWPHASE
002585: 33,7050           00004                           OCT      00004
002586:
002587: 33,7051           44516                           CS       ONE
002588: 33,7052           02312                           TC       NEWPHASE
002589: 33,7053           00002                           OCT      00002
002590:
002591: 33,7054           33232                           CAF      TEN
002592: 33,7055           02312                           TC       NEWPHASE
002593: 33,7056           00003                           OCT      00003
002594:
002595: 33,7057           05702                           TC       SWRETURN                              #  (LOCATION OF TC Q)
002596:
002597:
002598:
002599: 33,7060           20017        SHUTJOB            INHINT
002600: 33,7061           44502                           CS       BIT13                                 #  SHUT OFF ENGINE BIT
002601: 33,7062           70011                           MASK     OUT1
002602: 33,7063           50011                           TS       OUT1
002603:
002604: 33,7064           03405                           TC       RELAYOFF                              #  REMOVE SCS +X TRANS DISCRETE
002605: 33,7065           40020                           OCT      40020
002606:
002607: 33,7066           03430                           TC       FLAG1DWN                              #  REMOVE DVMON, STEER, INIT FLAGS
002608: 33,7067           00430                           OCT      00430
002609:
002610: 33,7070           05654                           TC       BANKCALL                              #  SET IMUCDU TO ATT. CONTROL (MAY BE RE-
002611: 33,7071           30223                           CADR     IMUATTC                               #  DUNDANT CALL)
002612:
002613: 33,7072           03516                           TC       SETHETAD                              #  FORCE THETAD, +1, +2 TO READ CDUX,Y,Z
002614:
002615: 33,7073           36254                           CAF      ALLABORT                              #  TEST IF ANY ABORT BURN SET
002616: 33,7074           70647                           MASK     FLAGWRD2
002617:                                                                                                  # # Page 614
002618: 33,7075           10000                           CCS      A
002619: 33,7076           07101                           TC       +3                                    #  IT IS
002620:
002621: 33,7077           03504                           TC       SETBRNSW                              #  IT IS NOT. SET BURN TO LAST (SPS4)
002622: 33,7100           00100                           OCT      00100
002623:
002624: 33,7101           05654                           TC       BANKCALL                              #  WAIT FOR MODE SWITCH TO COMPLETE
002625: 33,7102           30331                           CADR     IMUSTALL
002626: 33,7103           03066                           TC       CURTAINS                              #  CATCH-ALL FOR MODE SWITCH FAILURES
002627:
002628: 33,7104           40036                           CS       TIME1
002629: 33,7105           50665                           TS       TBASE3
002630:
002631: 33,7106           34505                           CAF      BIT10                                 #  TEST IF INTP FLAG SET (I.E. HAS 95 SEC
002632: 33,7107           70646                           MASK     FLAGWRD1                              #  INTERRUPT OCCURRED)
002633: 33,7110           10000                           CCS      A
002634: 33,7111           07116                           TC       TESTGMP                               #  IT HAS NOT
002635:
002636: 33,7112           34510                           CAF      BIT7                                  #  TEST IF INT1 FLAG SET (I.E. HAS 200 SEC
002637: 33,7113           70646                           MASK     FLAGWRD1                              #  INTEREUPT OCCURRED)
002638: 33,7114           10000                           CCS      A
002639: 33,7115           07126                           TC       SHUTJOB1                              #  IT HAS
002640:
002641: 33,7116           34507        TESTGMP            CAF      BIT8                                  #  TEST IF SCS GMP DISCRETE SET
002642: 33,7117           70725                           MASK     DSPTAB     +13D
002643: 33,7120           10000                           CCS      A
002644: 33,7121           07147                           TC       GMPOFF1                               #  IF IT IS, TURN IT OFF
002645:
002646: 33,7122           34515                           CAF      BIT2                                  #  TEST IF DV MODE SET
002647: 33,7123           70725                           MASK     DSPTAB     +13D
002648: 33,7124           10000                           CCS      A
002649: 33,7125           07156                           TC       DVMODOF1                              #  IF IT IS, TURN IT OFF
002650:
002651: 33,7126           40646        SHUTJOB1           CS       FLAGWRD1                              #  TEST IF SHUTDN FLAG SET
002652: 33,7127           74503                           MASK     BIT12
002653: 33,7130           10000                           CCS      A
002654: 33,7131           07215                           TC       SETATTC                               #  IT IS NOT. SHUTDOWN NOT DUE TO TFF
002655:
002656: 33,7132           34505                           CAF      BIT10                                 #  TEST IF THIS IS 200 OR 95 SEC INTERRUPT
002657: 33,7133           70646                           MASK     FLAGWRD1                              #  (INTP FLAG)
002658: 33,7134           10000                           CCS      A
002659: 33,7135           07211                           TC       SETSEP                                #  200 SEC INTERRUPT
002660:
002661: 33,7136           03452        KILLMANU           TC       FLAG2DWN                              #  REMOVE CALC FLAG (KILL ANY MANEUVER)
002662: 33,7137           02000                           OCT      02000
002663:
002664: 33,7140           20017                           INHINT                                         #  ALLOW 5 SECS FOR CSM TO SETTLE FROM ANY
002665: 33,7141           36556                           CAF      5SEC                                  #  ATTITUDE MANEUVER BEFORE SEPARATING
002666: 33,7142           02173                           TC       WAITLIST
002667: 33,7143           67260                           CADR     CDUXTASK
002668:                                                                                                  # # Page 615
002669: 33,7144           02276                           TC       PHASCHNG
002670: 33,7145           01303                           OCT      01303
002671:
002672: 33,7146           02124                           TC       ENDOFJOB
002673:
002674: 33,7147           20017        GMPOFF1            INHINT
002675: 33,7150           36712                           CAF      2SEC33                                #  CALL FOR SCS GMP OFF IN 2 SECS
002676: 33,7151           02173                           TC       WAITLIST
002677: 33,7152           67166                           CADR     GMPOFF2
002678:
002679: 33,7153           02276                           TC       PHASCHNG
002680: 33,7154           02703                           OCT      02703
002681:
002682: 33,7155           02124                           TC       ENDOFJOB
002683:
002684: 33,7156           20017        DVMODOF1           INHINT
002685: 33,7157           37221                           CAF      3.5SEC33                              #  CALL FOR DV MODE OFF IN 3.5 SECS
002686: 33,7160           02173                           TC       WAITLIST
002687: 33,7161           67177                           CADR     DVMODOF2
002688: 33,7162           20016                           RELINT
002689:
002690: 33,7163           02276                           TC       PHASCHNG
002691: 33,7164           03003                           OCT      03003
002692:
002693: 33,7165           02124                           TC       ENDOFJOB
002694:
002695: 33,7166           03405        GMPOFF2            TC       RELAYOFF                              #  REMOVE SCS GMP DISCRETE
002696: 33,7167           40200                           OCT      40200
002697:
002698: 33,7170           37221                           CAF      3.5SEC33                              #  CALL FOR DV MODE OFF IN 3.5 SECS
002699: 33,7171           02173                           TC       WAITLIST
002700: 33,7172           67177                           CADR     DVMODOF2
002701:
002702: 33,7173           33551                           CAF      TWENTY5
002703: 33,7174           02312                           TC       NEWPHASE
002704: 33,7175           00003                           OCT      3
002705:
002706: 33,7176           02256                           TC       TASKOVER
002707:
002708: 33,7177           03405        DVMODOF2           TC       RELAYOFF                              #  REMOVE SCS DV MODE DISCRETE
002709: 33,7200           40002                           OCT      40002
002710:
002711: 33,7201           37220                           CAF      0.25S33                               #  CALL FOR SCS ATT. CONTROL IN U/4 SEC
002712: 33,7202           02173                           TC       WAITLIST
002713: 33,7203           67205                           CADR     SHUTASK
002714:
002715: 33,7204           02256                           TC       TASKOVER
002716:
002717: 33,7205           32162        SHUTASK            CAF      PRIO27                                #  ESTABLISH JOB TO RESUME SHUTDOWN PROCESS
002718: 33,7206           02052                           TC       NOVAC
002719:                                                                                                  # # Page 616
002720: 33,7207           67126                           CADR     SHUTJOB1
002721:
002722: 33,7210           02256                           TC       TASKOVER
002723:
002724: 33,7211           20017        SETSEP             INHINT
002725: 33,7212           32146                           CAF      PRIO12
002726: 33,7213           02046                           TC       FINDVAC                               #  CM/SM SEPARATION ATTITUDE
002727: 33,7214           67224                           CADR     SEPMANU
002728:
002729: 33,7215           03373        SETATTC            TC       RELAYON                               #  SET SCS ATT. CONTROL DISCRETE (C23)
002730: 33,7216           40001                           OCT      40001
002731:
002732: 33,7217           02124                           TC       ENDOFJOB
002733:
002734: 33,7220           00031        0.25S33            DEC      25         B-14
002735: 33,7221           00536        3.5SEC33           DEC      350        B-14
002736: 33,7222           00764        5SEC33             DEC      500        B-14
002737: 33,7223           01274        7SEC33             DEC      700        B-14
002738:
002739:                                                                                                  # # Page 617
002740:
002741: 33,7224           02362        SEPMANU            TC       NEWMODE                               #  SET MAJOR MODE TO SEPARATION MANEUVER
002742: 33,7225           00061                           OCT      00061
002743:
002744: 33,7226           04000                           TC       INTPRET
002745:
002746: 33,7227           73175                           UNIT     1                                     #  COMPUTE DESIRED S/C ORIENTATION FOR
002747: 33,7230           75633                           VXSC     COMP                                  #  CM/SM SEPARATION
002748: 33,7231           00774                                    VN
002749: 33,7232           27257                                    COS60
002750:
002751: 33,7233           47575                           NOLOD    1
002752: 33,7234           41753                           VXV      UNIT
002753: 33,7235           00766                                    RN
002754: 33,7236           33417                           STORE    YSCD                                  #  YSCD IS ALONG (RN*VN)
002755:
002756: 33,7237           47573                           NOLOD    3
002757: 33,7240           41753                           VXV      UNIT
002758: 33,7241           75642                           VXSC     VAD
002759: 33,7242           47176                           COMP
002760: 33,7243           00774                                    VN
002761: 33,7244           27255                                    SIN60
002762: 33,7245           33411                           STORE    XSCD                                  #  XSCD IS 60 DEG ABOVE VELOCITY VECTOR
002763:
002764: 33,7246           47575                           NOLOD    1
002765: 33,7247           41753                           VXV      UNIT
002766: 33,7250           01417                                    YSCD
002767: 33,7251           33425                           STORE    ZSCD
002768:
002769: 33,7252           76776                           ITC      0                                     #  BRANCH TO PERFORM MANEUVER TO THE
002770: 33,7253           26414                                    ATTIJOB1                              #  SEPARATION ATTITUDE
002771:
002772: 33,7254           33555 01106  SIN60              2DEC     0.86603
002773: 33,7256           20000 00000  COS60              2DEC     0.5
002774:
002775:                                                                                                  # # Page 618
002776:
002777: 33,7260           36556        CDUXTASK           CAF      5SEC                                  #  ALLOW 5 SECS FOR CDUX RESOLVER SCALE
002778: 33,7261           02173                           TC       WAITLIST                              #  CHANGE
002779: 33,7262           67342                           CADR     CM/SMTSK
002780:
002781: 33,7263           34501                           CAF      PRIO20
002782: 33,7264           02046                           TC       FINDVAC
002783: 33,7265           67274                           CADR     CDUXJOB
002784:
002785: 33,7266           03405                           TC       RELAYOFF                              #  SET SCS TO MONITOR MODE
002786: 33,7267           40007                           OCT      40007
002787:
002788: 33,7270           33534                           CAF      TWELVE
002789: 33,7271           02312                           TC       NEWPHASE
002790: 33,7272           00003                           OCT      00003
002791:
002792: 33,7273           02256                           TC       TASKOVER
002793:
002794:
002795:
002796: 33,7274           40700        CDUXJOB            CS       THETAD
002797: 33,7275           40000                           COM
002798: 33,7276           51314                           TS       CDUTEMP
002799:
002800: 33,7277           11314                           CCS      CDUTEMP                               #  GET MAGNITUDE OF THETAD
002801: 33,7300           64516                           AD       ONE
002802: 33,7301           07303                           TC       +2
002803: 33,7302           64516                           AD       ONE
002804: 33,7303           50115                           TS       MPAC                                  #  AND SAVE IT
002805:
002806: 33,7304           25777                           EXTEND                                         #  FIND NEAREST INTEGER MULTIPLE OF 1/16
002807: 33,7305           47353                           MP       15/16TH
002808: 33,7306           64504                           AD       BIT11
002809: 33,7307           77354                           MASK     HIGH4
002810: 33,7310           30115                           XCH      MPAC                                  #  AND SAVE IT
002811:
002812: 33,7311           25777                           EXTEND                                         #  SHIFT ORIGINAL THETAD RIGHT 4 PLACES
002813: 33,7312           44504                           MP       BIT11
002814: 33,7313           60115                           AD       MPAC                                  #  AND ADD INTEGER MULTIPLE
002815: 33,7314           20017                           INHINT
002816: 33,7315           50700                           TS       THETAD
002817:
002818: 33,7316           11314                           CCS      CDUTEMP                               #  ATTACH SIGN OF ORIGINAL THETAD
002819: 33,7317           30115                           XCH      MPAC                                  #  MPAC HAS POSITIVE CDUBIAS
002820: 33,7320           07324                           TC       +4
002821: 33,7321           40700                           CS       THETAD
002822: 33,7322           50700                           TS       THETAD
002823:
002824: 33,7323           40115                           CS       MPAC                                  #  COMPLEMENT INTEGER MULTIPLE
002825: 33,7324           51450                           TS       K1ROLL                                #  SCALED AT 1/2 REV FOR ENTRY
002826: 33,7325           20016                           RELINT
002827:                                                                                                  # # Page 619
002828: 33,7326           02276                           TC       PHASCHNG
002829: 33,7327           01503                           OCT      01503
002830:
002831: 33,7330           03440        REDO3.13           TC       FLAG2UP                               #  SET CDUX FLAG
002832: 33,7331           20000                           OCT      20000
002833:
002834: 33,7332           05654                           TC       BANKCALL                              #  CHANGE IMUCDU MODE TO RE-ENTRY
002835: 33,7333           30216                           CADR     IMUREENT
002836:
002837: 33,7334           05654                           TC       BANKCALL                              #  WAIT FOR COMPLETION OF MODE SWITCH
002838: 33,7335           30331                           CADR     IMUSTALL
002839: 33,7336           03066                           TC       CURTAINS                              #  CATCH-ALL FOR MODE SWITCH FAILURES
002840:
002841: 33,7337           02276                           TC       PHASCHNG
002842: 33,7340           01603                           OCT      01603
002843:
002844: 33,7341           02124                           TC       ENDOFJOB
002845:
002846:
002847:
002848: 33,7342           03373        CM/SMTSK           TC       RELAYON                               #  SET SCS ENTRY MODE AND CM/SM SEPARATION
002849: 33,7343           40014                           OCT      40014                                 #  DISCRETES
002850:
002851: 33,7344           33537                           CAF      FIFTN
002852: 33,7345           02312                           TC       NEWPHASE
002853: 33,7346           00003                           OCT      00003
002854:
002855: 33,7347           36556                           CAF      5SEC                                  #  SET CALL TO START PRE-ENTRY ATTITUDE
002856: 33,7350           02173                           TC       WAITLIST                              #  MANEUVER IN 5 SECS
002857: 33,7351           67355                           CADR     ENTATASK
002858:
002859: 33,7352           02256                           TC       TASKOVER
002860:
002861: 33,7353           36000        15/16TH            OCT      36000
002862: 33,7354           74000        HIGH4              OCT      74000
002863:
002864:                                                                                                  # # Page 620
002865:
002866: 33,7355           32146        ENTATASK           CAF      PRIO12
002867: 33,7356           02046                           TC       FINDVAC
002868: 33,7357           67361                           CADR     ENTAJOB
002869:
002870: 33,7360           02256                           TC       TASKOVER
002871:
002872:
002873:
002874: 33,7361           02362        ENTAJOB            TC       NEWMODE                               #  SET MAJOR MODE TO PRE-ENTRY MANEUVER
002875: 33,7362           00062                           OCT      00062
002876:
002877: 33,7363           35501                           CAF      ZERO
002878: 33,7364           51472                           TS       ROLLC                                 #  ROLLC = +0
002879: 33,7365           51473                           TS       ROLLC      +1
002880:
002881: 33,7366           04000                           TC       INTPRET
002882:
002883: 33,7367           76776        GOGETUNB           ITC      0                                     #  COMPUTE DESIRED NAV BASE COORDS.
002884: 33,7370           21244                                    GETUNB
002885:
002886: 33,7371           76776                           ITC      0                                     #  GET DESIRED S/C COORSD
002887: 33,7372           12213                                    CALCNBSC
002888:
002889: 33,7373           75176                           VMOVE    0                                     #  TRANSFER DESIRED S/C UNIT VECTORS
002890: 33,7374           01367                                    XSC
002891: 33,7375           33411                           STORE    XSCD
002892:
002893: 33,7376           75176                           VMOVE    0
002894: 33,7377           01375                                    YSC
002895: 33,7400           33417                           STORE    YSCD
002896:
002897: 33,7401           75176                           VMOVE    0
002898: 33,7402           01403                                    ZSC
002899: 33,7403           33425                           STORE    ZSCD
002900:
002901: 33,7404           76776                           ITC      0                                     #  BRANCH TO PERFORM MANEUVER TO PRE-ENTRY
002902: 33,7405           26414                                    ATTIJOB1                              #  ATTITUDE
002903:
002904: 33,7406           00007        ABORT33            OCT      00007                                 #  (OR OF ARRST,TABT,ABRT)
002905:
002906:
002907:
002908: 24,6357                                           BANK     24
002909:
002910: 24,6357           36456        AVGON              CAF      PIPCAD24                              #  CLEAR AND EXCHANGE PIPAS TO SAVE DELV
002911: 24,6360           05750                           TC       ISWCALL                               #  ACCUMULATED DURING COAST PERIOD
002912:
002913: 24,6361           03452                           TC       FLAG2DWN                              #  DISABLE FREE-FALL GYRO BIAS COMPENSATION
002914: 24,6362           40000                           OCT      40000                                 #  (REMOVE DRIFT FLAG)
002915:                                                                                                  # # Page 621
002916: 24,6363           03462                           TC       STATEUP                               #  SET BIAS FLAG
002917: 24,6364           04000                           OCT      04000
002918:
002919: 24,6365           41465                           CS       PIPTIME    +1
002920: 24,6366           50667                           TS       TBASE5
002921:
002922: 24,6367           34475                           CAF      SIX
002923: 24,6370           02312                           TC       NEWPHASE
002924: 24,6371           00005                           OCT      00005
002925:
002926: 24,6372           34502                           CAF      BIT13                                 #  IF TFF2 FLAG NOT SET, DO WHAT SERVICER
002927: 24,6373           70645                           MASK     STATE                                 #    WOULD HAVE DONE WHEN TFF = TFFMIN
002928: 24,6374           10000                           CCS      A
002929: 24,6375           06433                           TC       GO/ON                                 #  TFF2 FLAG SET
002930:
002931: 24,6376           03504                           TC       SETBRNSW                              #  SET BURN TO SPS2 BACK UP SETTING
002932: 24,6377           00020                           OCT      00020
002933:
002934: 24,6400           03416                           TC       FLAG1UP                               #  SET INIT FLAG TO RE-MANEUVER TO SPS2 ATT
002935: 24,6401           00400                           OCT      00400
002936:
002937: 24,6402           34516                           CAF      ONE
002938: 24,6403           51446                           TS       VGCNTR
002939:
002940: 24,6404           11724                           CCS      REDOSPS1                              #  TFF2 FLAG DOWN, SEE IF DO SPS1 AGAIN
002941: 24,6405           06414                           TC       CONTINUE                              #  NO
002942: 24,6406           06414                           TC       CONTINUE
002943: 24,6407           06410                           TC       +1
002944:
002945: 24,6410           03504                           TC       SETBRNSW                              #  YES, SET BURN TO SPS1
002946: 24,6411           00010                           OCT      00010
002947:
002948: 24,6412           36455                           CAF      LOCSPS1
002949: 24,6413           51470                           TS       VRCADR
002950:
002951: 24,6414           33556        CONTINUE           CAF      THIRTY
002952: 24,6415           02312                           TC       NEWPHASE
002953: 24,6416           00004                           OCT      00004
002954:
002955: 24,6417           40036                           CS       TIME1
002956: 24,6420           50666                           TS       TBASE4
002957:
002958: 24,6421           36453                           CAF      2SEC24                                #  START READACCS IN 2 SECS
002959: 24,6422           02173                           TC       WAITLIST
002960: 24,6423           65152                           CADR     READACCS
002961:
002962: 24,6424           36454                           CAF      90SEC24                               #  SCHEDULE IGNITION IN 2 MINUTES
002963: 24,6425           02173                           TC       WAITLIST
002964: 24,6426           50463                           CADR     PLUSX2
002965:                                                                                                  # # Page 622
002966:
002967: 24,6427           32170                           CAF      PRIO35
002968: 24,6430           02052                           TC       NOVAC
002969: 24,6431           50457                           CADR     MODE32
002970:
002971: 24,6432           02256                           TC       TASKOVER
002972:
002973: 24,6433           34473        GO/ON              CAF      THREE
002974: 24,6434           02312                           TC       NEWPHASE
002975: 24,6435           00002                           OCT      00002
002976:
002977: 24,6436           44516                           CS       ONE
002978: 24,6437           02312                           TC       NEWPHASE
002979: 24,6440           00004                           OCT      00004
002980:
002981: 24,6441           36453                           CAF      2SEC24                                #  TURN ON READACCS IN 2 SECS
002982: 24,6442           02173                           TC       WAITLIST
002983: 24,6443           65152                           CADR     READACCS
002984:
002985: 24,6444           32170                           CAF      PRIO35                                #  JOB TO CHANGE MM AND FINISH DRIFT COMP
002986: 24,6445           02052                           TC       NOVAC
002987: 24,6446           50477                           CADR     MODE26
002988:
002989: 24,6447           32146        GO/ON1             CAF      PRIO12                                #  DO ATTITUDE MANEUVER FOR SPS2 BURN
002990: 24,6450           02046                           TC       FINDVAC
002991: 24,6451           66412                           CADR     ATTIJOB1   -1
002992:
002993: 24,6452           02256                           TC       TASKOVER
002994:
002995: 24,6453           00310        2SEC24             DEC      200        B-14
002996: 24,6454           21450        90SEC24            DEC      9000       B-14
002997: 24,6455           52454        LOCSPS1            CADR     501SPS1
002998: 24,6456           61313        PIPCAD24           CADR     PIPASR
002999:
003000:
003001:
003002: 24,6457           02362        MODE32             TC       NEWMODE                               #  SET MAJOR MODE TO PRE-SPS2
003003: 24,6460           00032                           OCT      00032
003004:
003005: 24,6461           05720                           TC       POSTJUMP                              #  FINISH DRIFT COMPUTATIONS
003006: 24,6462           50501                           CADR     MODE26     +2
003007:
003008:
003009:
003010: 24,6463           36476        PLUSX2             CAF      18SEC24
003011: 24,6464           02173                           TC       WAITLIST
003012: 24,6465           64511                           CADR     GIMPOWON
003013:
003014: 24,6466           03474                           TC       STATEDWN                              #  REMOVE BIAS FLAG
003015: 24,6467           04000                           OCT      04000
003016:                                                                                                  # # Page 623
003017:
003018: 24,6470           03373                           TC       RELAYON                               #  SET SCS +X TRANS DISCRETE (C27)
003019: 24,6471           40020                           OCT      40020
003020:
003021: 24,6472           33541                           CAF      SEVENTN
003022: 24,6473           02312                           TC       NEWPHASE
003023: 24,6474           00004                           OCT      4
003024:
003025: 24,6475           02256                           TC       TASKOVER
003026:
003027: 24,6476           03410        18SEC24            DEC      1800       B-14
003028:
003029:
003030:
003031: 24,6477           02362        MODE26             TC       NEWMODE                               #  SET MAJOR MODE TO HOLD SPS2 ATTITUDE
003032: 24,6500           00026                           OCT      00026                                 #    UNTIL TFFMIN
003033:
003034: 24,6501           03416                           TC       FLAG1UP                               #  SET INTP FLAG
003035: 24,6502           01000                           OCT      01000
003036:
003037: 24,6503           41465                           CS       PIPTIME    +1                         #  CALL LASTBIAS ROUTINE
003038: 24,6504           40000                           COM
003039: 24,6505           50115                           TS       MPAC
003040:
003041: 24,6506           36511                           CAF      COMP2SEC
003042: 24,6507           05720                           TC       POSTJUMP
003043: 24,6510           31343                           CADR     LASTBIAS
003044:
003045: 24,6511           31000        COMP2SEC           DEC      200        B+6
003046:
003047:                                                                                                  # # Page 624
003048:
003049:    3373                                           BANK     1
003050:
003051:    3373           20001        RELAYON            INDEX    Q
003052:    3374           40000                           CS       0
003053:    3375           20017                           INHINT
003054:    3376           70725                           MASK     DSPTAB     +13D
003055:    3377           20001                           INDEX    Q
003056:    3400           60000                           AD       0
003057:    3401           50725                           TS       DSPTAB     +13D
003058:    3402           20016                           RELINT
003059:    3403           20001                           INDEX    Q
003060:    3404           00001                           TC       1
003061:
003062:    3405           20001        RELAYOFF           INDEX    Q
003063:    3406           40000                           CS       0
003064:    3407           20017                           INHINT
003065:    3410           70725                           MASK     DSPTAB     +13D
003066:    3411           64500                           AD       BIT15
003067:    3412           50725                           TS       DSPTAB     +13D
003068:    3413           20016                           RELINT
003069:    3414           20001                           INDEX    Q
003070:    3415           00001                           TC       1
003071:
003072:    3416           20001        FLAG1UP            INDEX    Q
003073:    3417           40000                           CS       0
003074:    3420           20017                           INHINT
003075:    3421           70646                           MASK     FLAGWRD1
003076:    3422           20001                           INDEX    Q
003077:    3423           60000                           AD       0
003078:    3424           50646                           TS       FLAGWRD1
003079:    3425           20016                           RELINT
003080:    3426           20001                           INDEX    Q
003081:    3427           00001                           TC       1
003082:
003083:    3430           20001        FLAG1DWN           INDEX    Q
003084:    3431           40000                           CS       0
003085:    3432           20017                           INHINT
003086:    3433           70646                           MASK     FLAGWRD1
003087:    3434           50646                           TS       FLAGWRD1
003088:    3435           20016                           RELINT
003089:    3436           20001                           INDEX    Q
003090:    3437           00001                           TC       1
003091:
003092:    3440           20001        FLAG2UP            INDEX    Q
003093:    3441           40000                           CS       0
003094:    3442           20017                           INHINT
003095:    3443           70647                           MASK     FLAGWRD2
003096:    3444           20001                           INDEX    Q
003097:    3445           60000                           AD       0
003098:    3446           50647                           TS       FLAGWRD2
003099:                                                                                                  # # Page 625
003100:    3447           20016                           RELINT
003101:    3450           20001                           INDEX    Q
003102:    3451           00001                           TC       1
003103:
003104:    3452           20001        FLAG2DWN           INDEX    Q
003105:    3453           40000                           CS       0
003106:    3454           20017                           INHINT
003107:    3455           70647                           MASK     FLAGWRD2
003108:    3456           50647                           TS       FLAGWRD2
003109:    3457           20016                           RELINT
003110:    3460           20001                           INDEX    Q
003111:    3461           00001                           TC       1
003112:
003113:    3462           20001        STATEUP            INDEX    Q
003114:    3463           40000                           CS       0
003115:    3464           20017                           INHINT
003116:    3465           70645                           MASK     STATE
003117:    3466           20001                           INDEX    Q
003118:    3467           60000                           AD       0
003119:    3470           50645                           TS       STATE
003120:    3471           20016                           RELINT
003121:    3472           20001                           INDEX    Q
003122:    3473           00001                           TC       1
003123:
003124:    3474           20001        STATEDWN           INDEX    Q
003125:    3475           40000                           CS       0
003126:    3476           20017                           INHINT
003127:    3477           70645                           MASK     STATE
003128:    3500           50645                           TS       STATE
003129:    3501           20016                           RELINT
003130:    3502           20001                           INDEX    Q
003131:    3503           00001                           TC       1
003132:
003133:    3504           43515        SETBRNSW           CS       BURNMASK
003134:    3505           20017                           INHINT
003135:    3506           70647                           MASK     FLAGWRD2
003136:    3507           20001                           INDEX    Q
003137:    3510           60000                           AD       0
003138:    3511           50647                           TS       FLAGWRD2
003139:    3512           20016                           RELINT
003140:    3513           20001                           INDEX    Q
003141:    3514           00001                           TC       1
003142:
003143:    3515           00177        BURNMASK           OCT      00177
003144:
003145:
003146:
003147:    3516           20017        SETHETAD           INHINT
003148:    3517           40047                           CS       CDUX
003149:    3520           40000                           COM
003150:                                                                                                  # # Page 626
003151:    3521           50700                           TS       THETAD
003152:    3522           40050                           CS       CDUY
003153:    3523           40000                           COM
003154:    3524           50701                           TS       THETAD     +1
003155:    3525           40051                           CS       CDUZ
003156:    3526           40000                           COM
003157:    3527           50702                           TS       THETAD     +2
003158:    3530           20016                           RELINT
003159:    3531           00001                           TC       Q
003160:
003161:
003162:
003163:    3532           00011        NINE               DEC      9          B-14
003164:    3533           00013        ELEVEN             OCT      00013
003165:    3534     3533               11DEC              EQUALS   ELEVEN
003166:    3534           00014        TWELVE             OCT      00014
003167:    3535           00015        THIRTN             OCT      00015
003168:    3536     3535               THIRTEEN           EQUALS   THIRTN
003169:    3536           00016        FOURTN             OCT      00016
003170:    3537           00017        FIFTN              OCT      00017
003171:    3540           00020        SIXTN              OCT      00020
003172:    3541           00021        SEVENTN            OCT      00021
003173:    3542           00022        EIGHTN             OCT      00022
003174:    3543           00023        NINETEEN           DEC      19         B-14
003175:    3544           00024        TWENTY0            OCT      00024
003176:    3545     3544               TWENTY             EQUALS   TWENTY0
003177:    3545           00025        TWENTY1            OCT      00025
003178:    3546           00026        TWENTY2            OCT      00026
003179:    3547           00027        TWENTY3            OCT      00027
003180:    3550           00030        TWENTY4            OCT      00030
003181:    3551           00031        TWENTY5            OCT      00031
003182:
003183:    3552           00032        TWENTY6            DEC      26         B-14
003184:
003185:    3553           00033        TWENTY7            DEC      27         B-14
003186:
003187:    3554           00034        TWENTY8            DEC      28         B-14
003188:    3555           00035        TWENTY9            DEC      29         B-14
003189:    3556           00036        THIRTY             DEC      30         B-14
003190:    3557     3556               30DEC              EQUALS   THIRTY
003191:    3557           00037        THIRTY1            DEC      31         B-14
003192:    3560           00040        THIRTY2            DEC      32         B-14
003193:    3561           00050        FORTY              DEC      40         B-14
003194:    3562     3561               40DEC              EQUALS   FORTY
003195:    3562           00062        FIFTY              DEC      50         B-14
003196:    3563     3562               50DEC              EQUALS   FIFTY
003197:    3563           00074        SIXTY              DEC      60         B-14
003198:    3564     3563               60DEC              EQUALS   SIXTY
003199:    3564           00144        100DEC             DEC      100        B-14
003200:    3565           00310        200DEC             DEC      200        B-14
003201:                                                                                                  # # Page 627
003202:    3566           00454        300DEC             DEC      300        B-14
003203:    3567           00620        400DEC             DEC      400        B-14
003204:    3570           00764        500DEC             DEC      500        B-14
003205:    3571           01130        600DEC             DEC      600        B-14
003206:    3572     3571               SIXHNDRD           EQUALS   600DEC
003207:    3572           01750        1000DEC            DEC      1000       B-14
003208:    3573           03720        2000DEC            DEC      2000       B-14

End of include-file 501_MISSION_CONTROL_PROGRAM.agc.  Parent file is MAIN.agc


