
Source Code


000002:                                                                                                  ## Copyright:   Public domain.
000003:                                                                                                  ## Filename:    AGC_SELF-CHECK.agc
000004:                                                                                                  ## Purpose:     Part of the source code for Solarium build 55. This
000005:                                                                                                  ##              is for the Command Module's (CM) Apollo Guidance
000006:                                                                                                  ##              Computer (AGC), for Apollo 6.
000007:                                                                                                  ## Assembler:   yaYUL --block1
000008:                                                                                                  ## Contact:     Jim Lawton <jim DOT lawton AT gmail DOT com>
000009:                                                                                                  ## Website:     www.ibiblio.org/apollo/index.html
000010:                                                                                                  ## Page Scans:  www.ibiblio.org/apollo/ScansForConversion/Solarium055/
000011:                                                                                                  ## Mod history: 2009-10-03 JL   Created.
000012:                                                                                                  ##              2016-08-19 RSB  Typos.
000013:                                                                                                  ##              2016-08-23 RSB  More of the same.
000014:                                                                                                  ##              2016-12-28 RSB  Proofed comment text using octopus/ProoferComments,
000015:                                                                                                  ##                              and fixed errors found.
000016:


000018:
000019: 11,6000                                           SETLOC   22000
000020:
000021:                                                                                                  #  NEXT THREE CONSTANTS ARE USED IN RUPTCHK SUBROUTINE
000022: 11,6000           37767        OVCON              OCTAL    37767
000023: 11,6001           00320        TM1WAIT            OCTAL    00320
000024: 11,6002           06401        ZRUPTCON           ADRES    TSKADRS                               #  MUST BE ADDRESS OF TSKADRS
000025:
000026:                                                                                                  #  NEXT SIX CONSTANTS ARE USED IN ERASCHK, CNTRCHK, AND CYCLSHF SUBROUTINES
000027: 11,6003     4512               CONCNTR1           EQUALS   BIT5                                  #  00020
000028: 11,6003           00060        CONERAS1           OCTAL    00060
000029: 11,6004           01774        CONERAS2           OCTAL    01774
000030: 11,6005           25252        CONC+S1            OCTAL    25252
000031: 11,6006     4664               CONC+S2            EQUALS   CSQ                                   #  40001
000032:
000033:                                                                                                  #  NEXT 3 CONSTANTS ARE USED IN SHOWSUM ROUTINE
000034: 11,6006           01771        SUMADRS            ADRES    SKEEP1                                #  SKEEP1 HOLDS SUM OF BANK
000035: 11,6007           00501        VNCON              OCTAL    00501                                 #  DISPLAY CONTENTS OF THREE ADDRESSES
000036: 11,6010           23037        SCADR              CADR     SDISPLAY
000037:                                                                                                  #  THE FOLLOWING CONSTANTS ARE USED THROUGHOUT SELF-CHECK
000038: 11,6011     5501               SCON0              EQUALS   ZERO                                  #  +0
000039: 11,6011     4516               SCON1              EQUALS   BIT1                                  #  +1
000040: 11,6011     4515               SCON2              EQUALS   BIT2                                  #  +2
000041: 11,6011     4514               SCON4              EQUALS   BIT3                                  #  +4
000042: 11,6011     4510               SCON64             EQUALS   BIT7                                  #  00100
000043: 11,6011     4502               SCON1/4            EQUALS   BIT13                                 #  10000
000044: 11,6011     4501               SCON1/2            EQUALS   BIT14                                 #  20000
000045: 11,6011     4476               SCON+MAX           EQUALS   POSMAX                                #  37777
000046: 11,6011     4340               SCON-2             EQUALS   MINUS2                                #  77775
000047: 11,6011     4335               SCON-1             EQUALS   MINUS1                                #  77776
000048: 11,6011     5504               SCONMAX            EQUALS   NEG0                                  #  77777
000049:
000050: 11,6011           30115                 -2        XCH      QADRS                                 #  ENTRY HERE FROM -ZEROCHK AND -ONECHK
000051: 11,6012           06014                           TC       +2
000052:
000053: 11,6013           30001        ERRORS             XCH      Q                                     #  FAILURE DETECTED - ALARM.
000054: 11,6014           51764                           TS       SFAIL                                 #  SAVE CALLING Q FOR POSSIBLE FAILURE LOC.
000055: 11,6015           03007                           TC       ALARM
000056: 11,6016           01102                           OCT      01102
000057: 11,6017           31765                           XCH      ERCOUNT                               #  ADD +1 TO ERCOUNT REGISTER EVERY TIME
000058: 11,6020           64516                           AD       SCON1                                 #  THERE IS AN ERROR IN SELF-CHECK
000059: 11,6021           31765                           XCH      ERCOUNT
000060: 11,6022           03000                           TC       SMODECHK                              #  START    SELF-CHECK AGAIN
000061:
000062: 11,6023           30001        -ZEROCHK           XCH      Q
000063: 11,6024           50115                           TS       QADRS                                 #  HOLDS ADDRESS THAT WAS IN Q REGISTER
000064: 11,6025           30001                           XCH      Q
000065: 11,6026           10000                           CCS      A
000066: 11,6027           06011                           TC       ERRORS     -2
000067: 11,6030           06011                           TC       ERRORS     -2
000068: 11,6031           06011                           TC       ERRORS     -2


000070: 11,6032           00001                           TC       Q
000071:
000072:
000073:
000074: 11,6033           40000                           CS       A
000075: 11,6034           30001        -ONECHK            XCH      Q
000076: 11,6035           50115                           TS       QADRS                                 #  HOLDS ADDRESS THAT WAS IN Q REGISTER
000077: 11,6036           30001                           XCH      Q
000078: 11,6037           10000                           CCS      A
000079: 11,6040           06011                           TC       ERRORS     -2
000080: 11,6041           06011                           TC       ERRORS     -2
000081: 11,6042           10000                           CCS      A
000082: 11,6043           06011                           TC       ERRORS     -2
000083: 11,6044           00001                           TC       Q
000084:
000085:
000086:                                                                                                  #  CHECKS MOST CCS PULSES
000087: 11,6045           20016        CCSCHK             RELINT                                         #  COMES HERE FROM INHIBIT LOOP AT SMODECHK
000088: 11,6046           44515                           CS       SCON2                                 #  -2
000089: 11,6047           10000                           CCS      A                                     #  C(A) = -2
000090: 11,6050           06013                           TC       ERRORS
000091: 11,6051           06013                           TC       ERRORS
000092: 11,6052           06054                           TC       +2
000093: 11,6053           06013                           TC       ERRORS
000094: 11,6054           10000                           CCS      A                                     #  C(A) = +1, RESULT OF CCS -NUMBER
000095: 11,6055           06061                           TC       +4
000096: 11,6056           06013                           TC       ERRORS
000097: 11,6057           06013                           TC       ERRORS
000098: 11,6060           06013                           TC       ERRORS
000099: 11,6061           10000                           CCS      A                                     #  C(A) = +0, RESULT OF CCS + NUMBER
000100: 11,6062           06013                           TC       ERRORS
000101: 11,6063           06066                           TC       +3
000102: 11,6064           06013                           TC       ERRORS
000103: 11,6065           06013                           TC       ERRORS
000104: 11,6066           40000                           CS       A
000105: 11,6067           10000                           CCS      A                                     #  C(A) = -0, RESULT OF CCS +0
000106: 11,6070           06013                           TC       ERRORS
000107: 11,6071           06013                           TC       ERRORS
000108: 11,6072           06013                           TC       ERRORS
000109: 11,6073           10000                           CCS      A                                     #  RESULT OF CCS -0
000110: 11,6074           06013                           TC       ERRORS
000111: 11,6075           06100                           TC       +3
000112: 11,6076           06013                           TC       ERRORS
000113: 11,6077           06013                           TC       ERRORS
000114:                                                                                                  #  SPECIFICALLY CHECKS RSC PULSE OF TC INSTRUCTION (ALSO MOST OF TC
000115:                                                                                                  #  PULSES)
000116: 11,6100           06102                           TC       +2
000117: 11,6101           06103                           TC       +2                                    #  NEXT SUBROUTINE
000118: 11,6102           00001                           TC       Q


000120:
000121:                                                                                                  #  CHECKS WP, GP, TP - WP2, RP2 - RG, WP, OF CCS1
000122:                                                                                                  #  CHECKS RB, WG PULSES (READ BACK INTO ERASABLE)
000123: 11,6103           35777        PTY+ERAS           CAF      5777                                  #  47777
000124: 11,6104           51771                           TS       SKEEP1
000125: 11,6105           71771                           MASK     SKEEP1
000126: 11,6106           31771                           XCH      SKEEP1
000127: 11,6107           61771                           AD       SKEEP1
000128: 11,6110           25777                           INDEX    5777
000129: 11,6111           41771                           4        SKEEP1                                #  MP SKEEP1
000130: 11,6112           25777                           INDEX    5777
000131: 11,6113           51771                           5        SKEEP1                                #  DV SKEEP1
000132: 11,6114           41771                           CS       SKEEP1
000133: 11,6115           51772                           TS       SKEEP2                                #  30000
000134: 11,6116           21771                           INDEX    SKEEP1                                #  TROUBLE IF C(SKEEP1) NOT 47777
000135: 11,6117           61772                           6        SKEEP2                                #  SU SKEEP2, C(A) = -0
000136: 11,6120           51772                           TS       SKEEP2                                #  -0
000137: 11,6121           11772                           CCS      SKEEP2
000138: 11,6122           06013                           TC       ERRORS
000139: 11,6123           06013                           TC       ERRORS
000140: 11,6124           06013                           TC       ERRORS
000141: 11,6125           11772                           CCS      SKEEP2
000142: 11,6126           06013                           TC       ERRORS
000143: 11,6127           06013                           TC       ERRORS
000144: 11,6130           06013                           TC       ERRORS
000145:                                                                                                  #  START ERASABLE INSTRUCTION CHECK
000146: 11,6131           36147                           CAF      EINST1
000147: 11,6132           51771                           TS       SKEEP1
000148: 11,6133           36150                           CAF      EINST2
000149: 11,6134           51772                           TS       SKEEP2
000150: 11,6135           36151                           CAF      EINST3
000151: 11,6136           51773                           TS       SKEEP3
000152: 11,6137           36152                           CAF      EINST4
000153: 11,6140           51774                           TS       SKEEP4
000154: 11,6141           36153                           CAF      EINST5
000155: 11,6142           51775                           TS       SKEEP5
000156: 11,6143           36154                           CAF      EINST6
000157: 11,6144           51776                           TS       SKEEP6
000158: 11,6145           34501                           CAF      SCON1/2
000159: 11,6146           01771                           TC       SKEEP1
000160: 11,6147           25777        EINST1             INDEX    5777
000161: 11,6150           44515        EINST2             4        SCON2                                 #  MP, C(A) = +1, THEN +0
000162: 11,6151           60000        EINST3             AD       A                                     #  CHECKS ST2 PARITY
000163: 11,6152           10000        EINST4             CCS      A
000164: 11,6153           01771        EINST5             TC       SKEEP1
000165: 11,6154           06155        EINST6             TC       +1                                    #  NEXT SUBROUTINE
000166:
000167:
000168:
000169:                                                                                                  #  CHECKS RSC, WSC PULSES
000170:                                                                                                  #  NO WSC PULSE IN MASK INSTRUCTION
000171: 11,6155           34510        SCCHK              CAF      SCON64                                #  00100


000173: 11,6156           30003                           XCH      LP                                    #  00040
000174: 11,6157           30003                           XCH      LP
000175: 11,6160           50003                           TS       LP                                    #  00020
000176: 11,6161           60003                           AD       LP                                    #  00010
000177: 11,6162           20003                           INDEX    LP                                    #  00004
000178: 11,6163           25767                           2        5767                                  #  INDEX 5777
000179: 11,6164           60003                           6        0003                                  #  SU LP, 00002
000180:                                                                                                  #  NEXT 4 INSTRUCTIONS CHECK RSC PULSE IN MASK INSTRUCTION
000181: 11,6165           40003                           CS       LP                                    #  C(A) = -2, C(LP) = +1
000182: 11,6166           70003                           MASK     LP                                    #  C(A) = +1, C(LP) = +1
000183: 11,6167           40000                           CS       A
000184: 11,6170           06034                           TC       -ONECHK
000185: 11,6171           10003                           CCS      LP
000186: 11,6172           06176                           TC       +4
000187: 11,6173           06013                           TC       ERRORS
000188: 11,6174           06013                           TC       ERRORS
000189: 11,6175           06013                           TC       ERRORS
000190: 11,6176           10003                           CCS      LP
000191: 11,6177           06013                           TC       ERRORS
000192: 11,6200           06013                           TC       ERRORS
000193: 11,6201           06203                           TC       +2
000194: 11,6202           06013                           TC       ERRORS
000195: 11,6203           10003                           CCS      LP
000196: 11,6204           06013                           TC       ERRORS
000197: 11,6205           06210                           TC       +3                                    #  NEXT SUBROUTINE
000198: 11,6206           06013                           TC       ERRORS
000199: 11,6207           06013                           TC       ERRORS
000200:                                                                                                  #  CHECKS MOST OF MP PULSES
000201: 11,6210           34514        MPCHK              CAF      SCON4
000202: 11,6211           50003                           TS       LP
000203: 11,6212           34476        MP++               CAF      SCON+MAX
000204: 11,6213           25777                           INDEX    5777
000205: 11,6214           40003                           4        LP                                    #  C(A) = +1, CHECKS RSC PULSE
000206: 11,6215           60003                           AD       LP                                    #  C(LP) = +37776
000207: 11,6216           51771                           TS       SKEEP1                                #  37777
000208: 11,6217           34476        MP+-               CAF      SCON+MAX
000209: 11,6220           25777                           INDEX    5777
000210: 11,6221           44340                           4        SCON-2
000211: 11,6222           60003                           AD       LP                                    #  C(LP) = -37776
000212: 11,6223           61771                           AD       SKEEP1
000213: 11,6224           06023                           TC       -ZEROCHK
000214: 11,6225           44476        MP--               CS       SCON+MAX
000215: 11,6226           25777                           INDEX    5777
000216: 11,6227           44340                           4        SCON-2                                #  C(A) = +1
000217: 11,6230           60003                           AD       LP                                    #  C(LP) = +37776
000218: 11,6231           51771                           TS       SKEEP1                                #  37777
000219: 11,6232           44476        MP-+               CS       SCON+MAX
000220: 11,6233           25777                           INDEX    5777
000221: 11,6234           44515                           4        SCON2                                 #  C(A) = -1
000222: 11,6235           60003                           AD       LP                                    #  C(LP) = -37776


000224: 11,6236           61771                           AD       SKEEP1
000225: 11,6237           06023                           TC       -ZEROCHK
000226:
000227:
000228:                                                                                                  #  CHECKS MOST OF SU PULSES
000229: 11,6240           34476        SUCHK              CAF      SCON+MAX
000230: 11,6241           25777                           INDEX    5777
000231: 11,6242           66421                           6        SCONSU                                #  SU 37776, C(A) = +1
000232: 11,6243           06033                           TC       -ONECHK    -1
000233:
000234:                                                                                                  #  CHECKS MOST OF DV PULSES (ALL EXCEPT WP, GP, TP)
000235:                                                                                                  #  DIVIDE USES ST2
000236:                                                                                                  #  ++ AND --, C(A) = 25252, C(Q) = 67777, C(LP) = +1
000237:                                                                                                  #  +- AND -+ , C(A) = 52525, C(Q) = 67777, C(LP) = 40000 AND 40001
000238: 11,6244           36557        DVCHK              CAF      SCON3/8
000239: 11,6245           50001                           TS       Q
000240: 11,6246           34502        DV++               CAF      SCON1/4
000241: 11,6247           25777                           INDEX    5777
000242: 11,6250           50001                           5        Q                                     #  C(A) = 25252, CHECKS RSC PULSE
000243: 11,6251           51771                           TS       SKEEP1
000244: 11,6252           30003                           XCH      LP
000245: 11,6253           51772                           TS       SKEEP2
000246: 11,6254           40001        DV+-               CS       Q                                     #  +1/4
000247: 11,6255           25777                           INDEX    5777
000248: 11,6256           56560                           5        SCON-3/8                              #  C(A) = 52525
000249: 11,6257           61771                           AD       SKEEP1                                #  C(A) = -0
000250: 11,6260           51775                           TS       SKEEP5                                #  SHOULD BE -0
000251: 11,6261           30003                           XCH      LP
000252: 11,6262           51773                           TS       SKEEP3
000253: 11,6263           30001        DV--               XCH      Q                                     #  -1/4
000254: 11,6264           25777                           INDEX    5777
000255: 11,6265           56560                           5        SCON-3/8                              #  C(A) = 25252
000256: 11,6266           51771                           TS       SKEEP1
000257: 11,6267           30003                           XCH      LP
000258: 11,6270           51774                           TS       SKEEP4
000259: 11,6271           30001        DV-+               XCH      Q                                     #  -1/4
000260: 11,6272           25777                           INDEX    5777
000261: 11,6273           56557                           5        SCON3/8
000262: 11,6274           61771                           AD       SKEEP1                                #  C(A) = -0
000263: 11,6275           51771                           TS       SKEEP1
000264: 11,6276           40003                           CS       LP                                    #  C(A) = 37776
000265: 11,6277           61771                           AD       SKEEP1                                #  C(A) = 37776
000266: 11,6300           61772                           AD       SKEEP2                                #  C(A) = 37777
000267: 11,6301           61773                           AD       SKEEP3                                #  C(A) = -0
000268: 11,6302           61774                           AD       SKEEP4                                #  C(A) = +1
000269: 11,6303           61775                           AD       SKEEP5                                #  C(A) = +1
000270: 11,6304           06033                           TC       -ONECHK    -1
000271:
000272:
000273:                                                                                                  #  CHECKS MOST TS PULSES


000275:                                                                                                  #  CHECKS ALL OF PINC AND MINC PULSES EXCEPT WOVR
000276: 11,6305           34516        TS+-CHK            CAF      SCON1
000277: 11,6306           50034                           TS       OVCTR
000278: 11,6307           64476                           AD       SCON+MAX                              #  C(A) = + WITH OVERFLOW
000279: 11,6310           51771                           TS       SKEEP1
000280: 11,6311           06013                           TC       ERRORS
000281: 11,6312           61771                           AD       SKEEP1                                #  C(A) = +1
000282: 11,6313           60034                           AD       OVCTR                                 #  C(A) = +3
000283: 11,6314           50034                           TS       OVCTR
000284: 11,6315           40000                           CS       A                                     #  C(A) = 77774
000285: 11,6316           25777                           INDEX    5777
000286: 11,6317           66376                           6        SCONTS                                #  C(A) =  -0 WITH UNDERFLOW
000287: 11,6320           51771                           TS       SKEEP1
000288: 11,6321           06013                           TC       ERRORS
000289: 11,6322           61771                           AD       SKEEP1                                #  C(A) = -1
000290: 11,6323           60034                           AD       OVCTR                                 #  C(A) = -1+2
000291: 11,6324           06033                           TC       -ONECHK    -1
000292:
000293:                                                                                                  #  NOT POSSIBLE TO CHECK WOVI PULSE IN NXI1
000294:                                                                                                  #  START WOVI PULSE CHECK AND INHINT RELINT CHECK
000295: 11,6325           20017        RUPTCHK            INDEX    INHINT
000296: 11,6326           35501                           CAF      SCON0
000297: 11,6327           50024                           TS       0024                                  #  ZRUPT
000298: 11,6330           20016                           INDEX    RELINT
000299: 11,6331           60036                           AD       TIME1
000300: 11,6332           51771                           TS       SKEEP1
000301: 11,6333           41771        TENMS              CS       SKEEP1                                #  CHECK FOR NEXT PULSE TP TIME1
000302: 11,6334           60036                           AD       TIME1
000303: 11,6335           10000                           CCS      A
000304: 11,6336           10000                           CCS      A
000305: 11,6337           06325                           TC       RUPTCHK                               #  START AGAIN, TIMING IS OFF DUE TO RUPT
000306: 11,6340           06342                           TC       +2                                    #  10 MS PULSE HAS ARRIVED AT TIME1
000307: 11,6341           06333                           TC       TENMS
000308: 11,6342           36001                           CAF      TM1WAIT                               #  START 7 TO 8 MS WAIT
000309: 11,6343           10000        7-8WAIT            CCS      A
000310: 11,6344           06343                           TC       7-8WAIT
000311: 11,6345           20017                           INDEX    INHINT
000312: 11,6346           10024                           CCS      0024                                  #  ZRUPT
000313: 11,6347           06325                           TC       RUPTCHK                               #  THERE WAS AN INTERRUPT, START AGAIN
000314: 11,6350           34516                           CAF      SCON1
000315: 11,6351           02173                           TC       WAITLIST
000316: 11,6352           22401                           CADR     TSKADRS
000317: 11,6353           34476                           XCH      SCON+MAX
000318: 11,6354           66000                           AD       OVCON                                 #  WILL STAY IN OVERFLOW, UNDERFLOW FOR
000319: 11,6355           20016                           INDEX    RELINT                                #  APPROXIMATELY 3 MS
000320: 11,6356           10000        WAIT1              CCS      A
000321: 11,6357           64515                           AD       SCON2
000322: 11,6360           06362                           TC       +2
000323: 11,6361           06374                           TC       WOVIRPT
000324: 11,6362           25777                           INDEX    5777


000326: 11,6363           65504                           6        SCONMAX                               #  SU -0
000327: 11,6364           30000                           XCH      A
000328: 11,6365           25501                           INDEX    SCON0
000329: 11,6366           40000                           CS       A
000330: 11,6367           70000                           MASK     A
000331: 11,6370           40000                           CS       A
000332: 11,6371           50000                           TS       A
000333: 11,6372           06013                           TC       ERRORS
000334: 11,6373           06356                           TC       WAIT1
000335: 11,6374           20017        WOVIRPT            INDEX    INHINT
000336: 11,6375           51771                           TS       SKEEP1
000337: 11,6376           37775        SCONTS             OCTAL    37775
000338: 11,6377           20016                           INDEX    RELINT
000339:                                                                                                  #  INTERRUPT SHOULD APPEAR BEFORE NEXT INSTRUCTION
000340: 11,6400           06410                           TC       SOPTION1                              #  END OF PULSES CHECK
000341: 11,6401           40024        TSKADRS            CS       0024                                  #  C(ZRUPT) = ADDRESS OF TSKADRS
000342: 11,6402           66002                           AD       ZRUPTCON
000343: 11,6403           06023                           TC       -ZEROCHK
000344: 11,6404           31766                           XCH      SCOUNT                                #  ADD +1 TO SCOUNT REGISTER AT THIS
000345: 11,6405           64516                           AD       SCON1                                 #  POINT OF SELF-CHECK.
000346: 11,6406           31766                           XCH      SCOUNT
000347: 11,6407           02256                           TC       TASKOVER
000348:
000349:
000350: 11,6410           11762        SOPTION1           CCS      SMODE                                 #  3 OPTIONS OF SELF-CHECK
000351: 11,6411           03000                           TC       SMODECHK                              #  END OF PULSES ONLY CHECK
000352: 11,6412           03000                           TC       SMODECHK
000353: 11,6413           06414                           TC       +1                                    #  CONTINUE IF C(SMODE) IS A NEG. NUMB5R
000354:
000355:                                                                                                  #  COUNTS DOWN 15 BIT NUMBER (APPROXIMATELY 10 SECONDS)
000356: 11,6414           44476        COUNTCHK           CS       SCON+MAX
000357: 11,6415           51775                           TS       SKEEP5
000358: 11,6416           50001        COUNTS             TS       Q
000359: 11,6417           10001                           CCS      Q
000360: 11,6420           06434                           TC       -NMBR
000361: 11,6421           37776        SCONSU             OCTAL    37776
000362: 11,6422           06424                           TC       +2
000363: 11,6423           06443                           TC       OFCOUNT
000364: 11,6424           61775                           AD       SKEEP5
000365: 11,6425           06034                           TC       -ONECHK
000366: 11,6426           10215                           CCS      NEWJOB
000367: 11,6427           07377                           TC       DUMEXIT
000368: 11,6430           41775                           CS       SKEEP5
000369: 11,6431           65504                           AD       SCONMAX                               #  -0
000370: 11,6432           51774                           TS       SKEEP4
000371: 11,6433           06416                           TC       COUNTS
000372: 11,6434           40000        -NMBR              CS       A
000373: 11,6435           51775                           TS       SKEEP5
000374: 11,6436           61774                           AD       SKEEP4
000375: 11,6437           06033                           TC       -ONECHK    -1


000377: 11,6440           41775                           CS       SKEEP5
000378: 11,6441           40000                           CS       A
000379: 11,6442           06416                           TC       COUNTS
000380:
000381:                                                                                                  #  COUNTS DOWN OVERFLOW NUMBER (APPROXIMATELY 3.5 SECONDS)
000382: 11,6443           51777        OFCOUNT            TS       SKEEP7                                #  +0
000383: 11,6444           34476                           CAF      SCON+MAX
000384: 11,6445           60000                           AD       A
000385: 11,6446           64516        COUNTSOF           AD       SCON1
000386: 11,6447           20017                           INHINT
000387: 11,6450           30001                           XCH      Q
000388: 11,6451           10001                           CCS      Q
000389: 11,6452           51776                           TS       SKEEP6
000390: 11,6453           06466                           TC       ENDOF
000391: 11,6454           20016                           RELINT
000392: 11,6455           61777                           AD       SKEEP7
000393: 11,6456           51777                           TS       SKEEP7
000394: 11,6457           06461                           TC       +2
000395: 11,6460           06013                           TC       ERRORS
000396: 11,6461           10215                           CCS      NEWJOB
000397: 11,6462           07377                           TC       DUMEXIT
000398: 11,6463           34476                           CAF      SCON+MAX
000399: 11,6464           61776                           AD       SKEEP6
000400: 11,6465           06446                           TC       COUNTSOF
000401: 11,6466           40000        ENDOF              CS       A
000402: 11,6467           20016                           RELINT
000403: 11,6470           61777                           AD       SKEEP7
000404: 11,6471           06023                           TC       -ZEROCHK
000405:
000406:                                                                                                  #  REGISTER 1777 ALWAYS HOLDS LOWEST (X-1) ADDRESS JUST CHECKED
000407:                                                                                                  #  REGISTER 1776 HOLDS BEFORE CONTENTS OF X
000408:                                                                                                  #  REGISTER 1775 HOLDS BEFORE CONTENTS OF X-1
000409:                                                                                                  #  REGISTER 1774 IS STARTING ADDRESS
000410:                                                                                                  #  PUTS OWN ADDRESS IN REGISTERS OCT 1774 THROUGH OCT 60 (APPROX.  1.2 SEC)
000411: 11,6472           36004        ERASCHK            CAF      CONERAS2                              #  01774
000412: 11,6473           51777                           TS       1777
000413: 11,6474           20016        ERASLOOP           RELINT
000414: 11,6475           11777                           CCS      1777
000415: 11,6476           51777                           TS       1777
000416: 11,6477           20017                           INHINT
000417: 11,6500           21777                           NDX      1777
000418: 11,6501           40001                           CS       0001
000419: 11,6502           40000                           CS       A
000420: 11,6503           51776                           TS       1776                                  #  PUT C(X) IN 1776
000421: 11,6504           21777                           NDX      1777
000422: 11,6505           40000                           CS       0000
000423: 11,6506           40000                           CS       A
000424: 11,6507           51775                           TS       1775                                  #  PUT C(X-1) IN 1775
000425: 11,6510           41777                           CS       1777
000426: 11,6511           40000                           CS       A


000428: 11,6512           51760                           TS       ERESTORE                              #  IF RESTART, RESTORE C(X) AND C(X-1)
000429: 11,6513           21777                           NDX      1777
000430: 11,6514           50000                           TS       0000                                  #  PUT OWN ADDRESS IN X-1
000431: 11,6515           64516                           AD       SCON1
000432: 11,6516           21777                           NDX      1777
000433: 11,6517           50001                           TS       0001                                  #  PUT OWN ADDRESS IN X
000434: 11,6520           21777                           INDEX    1777
000435: 11,6521           40001                           CS       0001
000436: 11,6522           21777                           INDEX    1777
000437: 11,6523           60000                           AD       0000
000438: 11,6524           06034                           TC       -ONECHK
000439: 11,6525           41777        COMPLMNT           CS       1777
000440: 11,6526           21777                           INDEX    1777
000441: 11,6527           50000                           TS       0000                                  #  PUTS COMPLEMENT OF ADDRESS IN X-1
000442: 11,6530           64335                           AD       SCON-1
000443: 11,6531           21777                           INDEX    1777
000444: 11,6532           50001                           TS       0001                                  #  PUTS COMPLEMENT OF ADDRESS IN X
000445: 11,6533           21777                           INDEX    1777
000446: 11,6534           40000                           CS       0000
000447: 11,6535           21777                           INDEX    1777
000448: 11,6536           60001                           AD       0001
000449: 11,6537           06034                           TC       -ONECHK
000450: 11,6540           41776                           CS       1776
000451: 11,6541           40000                           CS       A
000452: 11,6542           21777                           NDX      1777
000453: 11,6543           50001                           TS       0001                                  #  RESTORE C(X)
000454: 11,6544           41775                           CS       1775
000455: 11,6545           40000                           CS       A
000456: 11,6546           21777                           NDX      1777
000457: 11,6547           50000                           TS       0000                                  #  RESTORE C(X-1)
000458: 11,6550           45504                           CS       SCONMAX
000459: 11,6551           51760                           TS       ERESTORE                              #  IF RESTART, DO NOT RESTORE C(X), C(X-1).
000460: 11,6552           10215                           CCS      NEWJOB
000461: 11,6553           07377                           TC       DUMEXIT
000462: 11,6554           41777        ENDERAS            CS       1777
000463: 11,6555           66003                           AD       CONERAS1                              #  +60 OCT
000464: 11,6556           10000                           CCS      A
000465: 11,6557           14000        SCON3/8            OCTAL    14000
000466: 11,6560           63777        SCON-3/8           OCTAL    63777
000467: 11,6561           06474                           TC       ERASLOOP
000468: 11,6562           20016                           INDEX    RELINT
000469:
000470:                                                                                                  #  CS ALL REGISTERS FROM OCT 57 THROUGH OCT 20
000471:                                                                                                  #  ALL COUNTERS, PLUS 4 SPARES, PLUS 4 RUPT REGISTERS.
000472:                                                                                                  #  PLUS CYCLE AND SHIFT REGISTERS
000473: 11,6563           33220        CNTRCHK            CAF      LOW5
000474: 11,6564           51771        CNTRLOOP           TS       SKEEP1
000475: 11,6565           64512                           AD       CONCNTR1                              #  +20 OCT
000476: 11,6566           20000                           INDEX    A
000477: 11,6567           40000                           CS       0000


000479: 11,6570           11771                           CCS      SKEEP1
000480: 11,6571           06564                           TC       CNTRLOOP
000481:
000482: 11,6572           36005        CYCLSHFT           CAF      CONC+S1
000483: 11,6573           50020                           TS       CYR                                   #  C(CYR) = 12525
000484: 11,6574           50022                           TS       CYL                                   #  C(CYL) = 52524
000485: 11,6575           50021                           TS       SR                                    #  C(SR) = 12525
000486: 11,6576           50023                           TS       SL                                    #  C(SL) = 12524
000487: 11,6577           60020                           AD       CYR
000488: 11,6600           60022                           AD       CYL
000489: 11,6601           60021                           AD       SR
000490: 11,6602           60023                           AD       SL
000491: 11,6603           64664                           AD       CONC+S2                               #  C(A) = -1
000492: 11,6604           06034                           TC       -ONECHK
000493:
000494: 11,6605           31767                           XCH      SCOUNT     +1                         #  ADD +1 TO SCOUNT +1 REGISTER AT THIS
000495: 11,6606           64516                           AD       SCON1                                 #  POINT OF SELF-CHECK
000496: 11,6607           31767                           XCH      SCOUNT     +1
000497: 11,6610           11762        SOPTION2           CCS      SMODE                                 #  TWO OPTIONS LEFT
000498: 11,6611           06414                           TC       COUNTCHK
000499: 11,6612           03000                           TC       SMODECHK
000500: 11,6613           03000                           TC       SMODECHK                              #  END OF PULSES + SC + ERASABLE CHECK
000501: 11,6614           06646                           TC       ROPECHK                               #  CONTINUE WITH SELF-CHECK
000502:
000503:                                                                                                  #  THE BNKCON CONSTANTS (BANK NUMBERS) ARE USED BY ROPECHK AND SHOWSUM
000504:                                                                                                  #  THEY MUST BE IN THE FOLLOWING TABLE FORM
000505: 11,6615           02000        BNKCON1            OCTAL    02000
000506: 11,6616           04000        BNKCON2            OCTAL    04000
000507: 11,6617           06000        BNKCON3            OCTAL    06000
000508: 11,6620           10000        BNKCON4            OCTAL    10000
000509: 11,6621           12000        BNKCON5            OCTAL    12000
000510: 11,6622           14000        BNKCON6            OCTAL    14000
000511: 11,6623           16000        BNKCON7            OCTAL    16000
000512: 11,6624           20000        BNKCON10           OCTAL    20000
000513: 11,6625           22000        BNKCON11           OCTAL    22000
000514: 11,6626           24000        BNKCON12           OCTAL    24000
000515: 11,6627           26000        BNKCON13           OCTAL    26000
000516: 11,6630           30000        BNKCON14           OCTAL    30000
000517: 11,6631           42000        BNKCON21           OCTAL    42000
000518: 11,6632           44000        BNKCON22           OCTAL    44000
000519: 11,6633           46000        BNKCON23           OCTAL    46000
000520: 11,6634           50000        BNKCON24           OCTAL    50000
000521: 11,6635           52000        BNKCON25           OCTAL    52000
000522: 11,6636           54000        BNKCON26           OCTAL    54000
000523: 11,6637           56000        BNKCON27           OCTAL    56000
000524: 11,6640           60000        BNKCON30           OCTAL    60000
000525: 11,6641           62000        BNKCON31           OCTAL    62000
000526: 11,6642           64000        BNKCON32           OCTAL    64000
000527: 11,6643           66000        BNKCON33           OCTAL    66000
000528: 11,6644           70000        BNKCON34           OCTAL    70000


000530: 11,6645           00000        BANKSTOP           OCTAL    00000                                 #  PUT +0 AFTER LAST BANK TO BE CHECKED
000531:
000532:                                                                                                  #  TAKES BETWEEN 17 AND 20 SECONDS FOR ROPECHK TO GO THROUGH ALL BANKS.
000533:                                                                                                  #  INITIALIZE 2OPTIONS TO -1 TO PERFORM ROPECHK
000534:                                                                                                  #  SKEEP1 HOLDS SUM
000535:                                                                                                  #  SKEEP2 HOLDS PRESENT CONTENTS OF ADDRESS IN ROPCHEK AND SHOWSUM ROUTINES
000536:                                                                                                  #  SKEEP2 HOLDS ACTUAL BANK NUMBER USED IN THE BANK REGISTER BUT CYCLED 5
000537:                                                                                                  #  PLACES LEFT FOR DISPLAY IN SHOWSUM ROUTINE
000538:                                                                                                  #  SKEEP3 HOLDS PRESENT ADDRESS (02000 TO 05777 IN FXFX BANKS)
000539:                                                                                                  #                               (00000 TO 01777 IN FXSW BANKS)
000540:                                                                                                  #  SKEEP3 HOLDS BUGGER WORD FOR DISPLAY IN SHOWSUM ROUTINE
000541:                                                                                                  #  SKEEP4 HOLDS ADDRESS OF BANK NUMBER
000542:                                                                                                  #  SKEEP5 COUNTS TWO SUCCESSIVE TC SELF WORDS
000543:                                                                                                  #  SKEEP6 HOLDS END OF BANK NUMBERS
000544:                                                                                                  #  SKEEP7 COUNTS DOWN FIXED FIXED BANKS
000545: 11,6646           44516        ROPECHK            CS       SCON1
000546: 11,6647           51761                           TS       2OPTIONS
000547: 11,6650           37023        FXFXCHK            CAF      FXCON1                                #  43776
000548: 11,6651           51776                           TS       SKEEP6
000549: 11,6652           36615                           CAF      BNKCON1                               #  02000
000550: 11,6653           51773                           TS       SKEEP3
000551: 11,6654           36766                           CAF      STBNKCON
000552: 11,6655           51774                           TS       SKEEP4
000553: 11,6656           34516                           CAF      SCON1
000554: 11,6657           51777                           TS       SKEEP7
000555: 11,6660           35501        FXFXBNKS           CAF      SCON0
000556: 11,6661           51771                           TS       SKEEP1
000557: 11,6662           34515                           CAF      SCON2
000558: 11,6663           51775                           TS       SKEEP5                                #  COUNTS DOWN TWO TC SELF WORDS
000559: 11,6664           21773        FXADRS             INDEX    SKEEP3
000560: 11,6665           30000                           CAF      0000
000561: 11,6666           06774                           TC       ADSUM
000562: 11,6667           06721                           TC       ADRSCHK
000563:
000564: 11,6670           51777        BANK2              TS       SKEEP7
000565: 11,6671           37024                           CAF      FXCON2                                #  45776
000566: 11,6672           51776                           TS       SKEEP6
000567: 11,6673           36616                           CAF      BNKCON2                               #  04000
000568: 11,6674           51773                           TS       SKEEP3
000569: 11,6675           06660                           TC       FXFXBNKS
000570:
000571: 11,6676           34515        FXSWBNKS           CAF      SCON2
000572: 11,6677           51775                           TS       SKEEP5                                #  COUNTS DOWN TWO TC SELF WORDS
000573: 11,6700           35501                           CAF      SCON0
000574: 11,6701           51771                           TS       SKEEP1
000575: 11,6702           51773                           TS       SKEEP3
000576: 11,6703           61773        SWADRS             AD       SKEEP3
000577: 11,6704           21774                           INDEX    SKEEP4
000578: 11,6705           60000                           AD       0000
000579: 11,6706           05730                           TC       DATACALL


000581: 11,6707           06774                           TC       ADSUM
000582: 11,6710           66617                           AD       BNKCON3                               #  06000
000583: 11,6711           06721                           TC       ADRSCHK
000584:
000585:                                                                                                  #  SUBROUTINES ADRS+1, ADRSCHK, OPTION, NXTBNK, ADSUM, AND BNKCHK ARE
000586:                                                                                                  #  USED BY BOTH FXFX AND FXSW BANKS
000587: 11,6712           31773        ADRS+1             XCH      SKEEP3
000588: 11,6713           64516                           AD       SCON1
000589: 11,6714           51773                           TS       SKEEP3
000590: 11,6715           11777                           CCS      SKEEP7
000591: 11,6716           06664                           TC       FXADRS
000592: 11,6717           06664                           TC       FXADRS
000593: 11,6720           06703                           TC       SWADRS
000594:
000595: 11,6721           10000        ADRSCHK            CCS      A
000596: 11,6722           06730                           TC       CONTINU
000597: 11,6723           06730                           TC       CONTINU
000598: 11,6724           06730                           TC       CONTINU
000599: 11,6725           11775                           CCS      SKEEP5
000600: 11,6726           51775                           TS       SKEEP5
000601: 11,6727           06735                           TC       CONTINU    +5
000602: 11,6730           11775        CONTINU            CCS      SKEEP5
000603: 11,6731           06733                           TC       +2
000604: 11,6732           06743                           TC       SOPTION
000605: 11,6733           34515                           CAF      SCON2
000606: 11,6734           51775                           TS       SKEEP5                                #  MAKES SURE TWO CONSECUTIVE TC SELF WORDS
000607: 11,6735           10215                           CCS      NEWJOB
000608: 11,6736           07377                           TC       DUMEXIT
000609: 11,6737           41773                           CS       SKEEP3
000610: 11,6740           61776                           AD       SKEEP6
000611: 11,6741           50000                           TS       A                                     #  UNDERFLOW AT END OF BANK
000612: 11,6742           06712                           TC       ADRS+1                                #  STAY IN SAME BANK
000613:
000614: 11,6743           11761        SOPTION            CCS      2OPTIONS
000615: 11,6744           07037                           TC       SDISPLAY
000616: 11,6745           06750                           TC       NXTBNK
000617: 11,6746           07005                           TC       BNKCHK
000618: 11,6747           06034                           TC       -ONECHK
000619:
000620: 11,6750           31774        NXTBNK             XCH      SKEEP4
000621: 11,6751           64516                           AD       SCON1
000622: 11,6752           51774                           TS       SKEEP4
000623: 11,6753           11777                           CCS      SKEEP7
000624: 11,6754           06670                           TC       BANK2
000625: 11,6755           06756                           TC       +1
000626: 11,6756           44516                           CS       SCON1
000627: 11,6757           51777                           TS       SKEEP7
000628: 11,6760           36772                           CAF      SWCON                                 #  41776
000629: 11,6761           51776                           TS       SKEEP6
000630: 11,6762           21774        ENDBANKS           INDEX    SKEEP4


000632: 11,6763           40000                           CS       0000
000633: 11,6764           10000                           CCS      A
000634: 11,6765           06676                           TC       FXSWBNKS
000635: 11,6766           06615        STBNKCON           ADRES    BNKCON1                               #  CONSTANT. STARTING ADDRESS OF BANK LIST
000636: 11,6767           06676                           TC       FXSWBNKS
000637: 11,6770           11761                           CCS      2OPTIONS                              #  END OF FIXED MEMORY CHECKING
000638: 11,6771           07025                           TC       SHOWSUM                               #  END OF SHOWSUM, START AGAIN
000639: 11,6772           41776        SWCON              OCTAL    41776                                 #  CONSTANT
000640: 11,6773           07102                           TC       1/2OPTN                               #  END OF BANK SUMCHECKING SUBROUTINE
000641:
000642: 11,6774           51772        ADSUM              TS       SKEEP2
000643: 11,6775           61771                           AD       SKEEP1
000644: 11,6776           51771                           TS       SKEEP1
000645: 11,6777           35501                           CAF      SCON0
000646: 11,7000           61771                           AD       SKEEP1
000647: 11,7001           51771                           TS       SKEEP1
000648: 11,7002           41772                           CS       SKEEP2
000649: 11,7003           61773                           AD       SKEEP3
000650: 11,7004           00001                           TC       Q
000651:
000652:
000653: 11,7005           30001        BNKCHK             XCH      Q
000654: 11,7006           50115                           TS       QADRS
000655: 11,7007           11771                           CCS      SKEEP1
000656: 11,7010           07014                           TC       +4
000657: 11,7011           06013                           TC       ERRORS
000658: 11,7012           07014                           TC       +2
000659: 11,7013           06013                           TC       ERRORS
000660: 11,7014           51771                           TS       SKEEP1
000661: 11,7015           21774                           INDEX    SKEEP4
000662: 11,7016           30000                           CAF      0000
000663: 11,7017           03203                           TC       LEFT5                                 #  CYCLES LEFT 5 PLACES
000664: 11,7020           40000                           CS       A
000665: 11,7021           61771                           AD       SKEEP1
000666: 11,7022           00115                           TC       QADRS
000667: 11,7023           43776        FXCON1             OCTAL    43776                                 #  CONSTANT
000668: 11,7024           45776        FXCON2             OCTAL    45776                                 #  CONSTANT
000669:
000670:                                                                                                  #  INITIALIZE 2OPTIONS TO +1 TO PERFORM SHOWSUM
000671:                                                                                                  #  START OF ROUTINE THAT DISPLAYS SUM OF EACH BANK
000672: 11,7025           34516        SHOWSUM            CAF      SCON1
000673: 11,7026           51761                           TS       2OPTIONS                              #  SHOWSUM OPTION
000674: 11,7027           35501                           CAF      SCON0
000675: 11,7030           51762                           TS       SMODE                                 #  PUT SELF-CHECK TO SLEEP
000676: 11,7031           20017                           INDEX    INHINT
000677: 11,7032           34504                           CAF      PRIO2
000678: 11,7033           02052                           TC       NOVAC
000679: 11,7034           22650                           CADR     FXFXCHK
000680: 11,7035           20016                           INDEX    RELINT
000681: 11,7036           02124                           TC       ENDOFJOB


000683: 11,7037           21774        SDISPLAY           INDEX    SKEEP4
000684: 11,7040           30000                           CAF      0000
000685: 11,7041           03203                           TC       LEFT5                                 #  CYCLES LEFT 5 PLACES
000686: 11,7042           51772                           TS       SKEEP2                                #  HOLDS BANK NUMBER FOR DSKY DISPLAY
000687: 11,7043           11777                           CCS      SKEEP7                                #  12 INSTRUCTIONS TO PUT BUGGER WORD
000688: 11,7044           07054                           TC       FXFXWORD                              #  IN SKEEP3.
000689: 11,7045           07054                           TC       FXFXWORD
000690: 11,7046           41773                           CS       SKEEP3                                #  GETS FXSW BUGGER WORD
000691: 11,7047           40000                           CS       A
000692: 11,7050           21774                           INDEX    SKEEP4
000693: 11,7051           60000                           AD       0000
000694: 11,7052           05730                           TC       DATACALL
000695: 11,7053           07056                           TC       +3
000696: 11,7054           21773        FXFXWORD           INDEX    SKEEP3                                #  GETS FXFX BUGGER WORD
000697: 11,7055           30000                           CAF      0000
000698: 11,7056           51773                           TS       SKEEP3                                #  SKEEP3 NOW HOLDS BUGGER WORD
000699: 11,7057           03302                           TC       GRABDSP
000700: 11,7060           03310                           TC       PREGBSY
000701: 11,7061           36006        NOKILL             CAF      SUMADRS
000702: 11,7062           50117                           TS       MPAC       +2
000703: 11,7063           36007                           CAF      VNCON
000704: 11,7064           03100                           TC       NVSUB
000705: 11,7065           07100                           TC       SBUSY
000706: 11,7066           05654                           TC       BANKCALL
000707: 11,7067           14000                           CADR     FLASHON
000708: 11,7070           03136                           TC       ENDIDLE
000709: 11,7071           07074                           TC       +3                                    #  FINISHED WITH SHOWSUM
000710: 11,7072           07076                           TC       SALLOW                                #  PROCEED TO NEXT BANK
000711: 11,7073           07061                           TC       NOKILL                                #  SO CAN LOAD WITHOUT KILLING SHOWSUM.
000712: 11,7074           03362                           TC       FREEDSP
000713: 11,7075           02124                           TC       ENDOFJOB
000714:
000715: 11,7076           03362        SALLOW             TC       FREEDSP                               #  ALLOWS ANOTHER JOB TO DISPLAY. LEAVES
000716: 11,7077           06750                           TC       NXTBNK                                #  SUM IN DSKY FOR 10 SEC. AFTER PROC. VERB
000717:
000718: 11,7100           36010        SBUSY              CAF      SCADR
000719: 11,7101           03320                           TC       NVSUBUSY
000720:
000721: 11,7102           11762        1/2OPTN            CCS      SMODE
000722: 11,7103           07107                           TC       +4                                    #  STAY IN ROPECHK LOOP
000723: 11,7104           07367                           TC       SOPTION3   -3
000724: 11,7105           03000                           TC       SMODECHK                              #  SHOULD NOT COME HERE
000725: 11,7106           07113                           TC       MPNMBRS                               #  CONTINUE WITH SELF-CHECK
000726: 11,7107           31770                           XCH      SCOUNT     +2
000727: 11,7110           64516                           AD       SCON1
000728: 11,7111           31770                           XCH      SCOUNT     +2
000729: 11,7112           06646                           TC       ROPECHK
000730:
000731:                                                                                                  #  MULTIPLY SUBROUTINES TAKE APPROXIMATELY 30 SECONDS
000732:                                                                                                  #  (37777) X (37777 THROUGH 00001)


000734:                                                                                                  #  C(A) COUNTS DOWN. C(LP) COUNTS UP.
000735: 11,7113           34476        MPNMBRS            CAF      SCON+MAX
000736: 11,7114           51772                           TS       SKEEP2
000737: 11,7115           34476                           CAF      SCON+MAX
000738: 11,7116           25777                           EXTEND
000739: 11,7117           41772                           MP       SKEEP2
000740: 11,7120           60003                           AD       LP                                    #  C(A) = 37777
000741: 11,7121           40000                           CS       A
000742: 11,7122           64476                           AD       SCON+MAX
000743: 11,7123           06023                           TC       -ZEROCHK
000744: 11,7124           10215                           CCS      NEWJOB
000745: 11,7125           07377                           TC       DUMEXIT
000746: 11,7126           11772                           CCS      SKEEP2
000747: 11,7127           51772                           TS       SKEEP2
000748: 11,7130           11772                           CCS      SKEEP2
000749: 11,7131           07115                           TC       MPNMBRS    +2
000750:                                                                                                  #  (-1) X (37777 THROUGH 00001)
000751: 11,7132           34476                           CAF      SCON+MAX
000752: 11,7133           51772                           TS       SKEEP2
000753: 11,7134           34335        MPHIGH1            CAF      SCON-1
000754: 11,7135           25777                           EXTEND
000755: 11,7136           41772                           MP       SKEEP2                                #  C(A) = -0
000756: 11,7137           60003                           AD       LP
000757: 11,7140           61772                           AD       SKEEP2
000758: 11,7141           06023                           TC       -ZEROCHK
000759: 11,7142           10215                           CCS      NEWJOB
000760: 11,7143           07377                           TC       DUMEXIT
000761: 11,7144           11772                           CCS      SKEEP2
000762: 11,7145           51772                           TS       SKEEP2
000763: 11,7146           11772                           CCS      SKEEP2
000764: 11,7147           07134                           TC       MPHIGH1
000765:
000766:                                                                                                  #  INTERCHANGE MULTIPLIER AND MULTIPLICAND
000767:                                                                                                  #  (37777 THROUGH 00001) X (37777)
000768:                                                                                                  #  C(A) COUNTS DOWN. C(LP) COUNTS UP.
000769: 11,7150           34476                           CAF      SCON+MAX
000770: 11,7151           51771                           TS       SKEEP1
000771: 11,7152           41771        MPAGAIN            CS       SKEEP1
000772: 11,7153           40000                           CS       A
000773: 11,7154           25777                           EXTEND
000774: 11,7155           44476                           MP       SCON+MAX
000775: 11,7156           60003                           AD       LP                                    #  C(A) = 37777
000776: 11,7157           40000                           CS       A
000777: 11,7160           64476                           AD       SCON+MAX
000778: 11,7161           06023                           TC       -ZEROCHK
000779: 11,7162           10215                           CCS      NEWJOB
000780: 11,7163           07377                           TC       DUMEXIT
000781: 11,7164           11771                           CCS      SKEEP1
000782: 11,7165           51771                           TS       SKEEP1
000783: 11,7166           11771                           CCS      SKEEP1


000785: 11,7167           07152                           TC       MPAGAIN
000786:                                                                                                  #  (37777 THROUGH 00001) X (-1)
000787: 11,7170           34476                           CAF      SCON+MAX
000788: 11,7171           51771                           TS       SKEEP1
000789: 11,7172           41771        MPHIGH2            CS       SKEEP1
000790: 11,7173           40000                           CS       A
000791: 11,7174           25777                           EXTEND
000792: 11,7175           44335                           MP       SCON-1
000793: 11,7176           60003                           AD       LP
000794: 11,7177           61771                           AD       SKEEP1
000795: 11,7200           06023                           TC       -ZEROCHK
000796: 11,7201           10215                           CCS      NEWJOB
000797: 11,7202           07377                           TC       DUMEXIT
000798: 11,7203           11771                           CCS      SKEEP1
000799: 11,7204           51771                           TS       SKEEP1
000800: 11,7205           11771                           CCS      SKEEP1
000801: 11,7206           07172                           TC       MPHIGH2
000802: 11,7207           07212                           TC       DV1
000803:
000804:                                                                                                  #  THESE 2 CONSTANTS USED BY DIVIDE SUBROUTINES
000805: 11,7210           37776        DVCON1             OCTAL    37776
000806: 11,7211           50001        DVCON2             OCTAL    50001
000807:                                                                                                  #  DIVIDE 1/4 BY 3/8
000808:                                                                                                  #  ONCE THROUGH ALL DEVIDE SUBROUTINES TAKES APPROX. 0.012 SECONDS
000809:                                                                                                  #  TOTAL TIME IN DEVIDE SUBROUTINES IS APPROX. 20 SECONDS
000810: 11,7212           36004        DV1                CAF      CONERAS2                              #  01774
000811: 11,7213           51777                           TS       SKEEP7
000812: 11,7214           36557        DV1++              CAF      SCON3/8
000813: 11,7215           50001                           TS       Q
000814: 11,7216           34502                           CAF      SCON1/4
000815: 11,7217           25777                           EXTEND
000816: 11,7220           50001                           DV       Q                                     #  C(A) = 25252
000817: 11,7221           51771                           TS       SKEEP1
000818: 11,7222           30003                           XCH      LP
000819: 11,7223           51772                           TS       SKEEP2
000820: 11,7224           40001        DV1+-              CS       Q                                     #  +1/4
000821: 11,7225           25777                           EXTEND
000822: 11,7226           56560                           DV       SCON-3/8                              #  C(A) = 52525
000823: 11,7227           61771                           AD       SKEEP1                                #  C(A) = -0
000824: 11,7230           51775                           TS       SKEEP5
000825: 11,7231           30003                           XCH      LP
000826: 11,7232           51773                           TS       SKEEP3
000827: 11,7233           30001        DV1--              XCH      Q                                     #  -1/4
000828: 11,7234           25777                           EXTEND
000829: 11,7235           56560                           DV       SCON-3/8
000830: 11,7236           51771                           TS       SKEEP1
000831: 11,7237           30003                           XCH      LP
000832: 11,7240           51774                           TS       SKEEP4
000833: 11,7241           30001        DV1-+              XCH      Q
000834: 11,7242           25777                           EXTEND


000836: 11,7243           56557                           DV       SCON3/8
000837: 11,7244           61771                           AD       SKEEP1                                #  C(A) = -0
000838: 11,7245           51771                           TS       SKEEP1
000839: 11,7246           40003                           CS       LP                                    #  C(A) = 37776
000840: 11,7247           61771                           AD       SKEEP1                                #  C(A) = 37776
000841: 11,7250           61772                           AD       SKEEP2                                #  C(A) = 37777
000842: 11,7251           61773                           AD       SKEEP3                                #  C(A) = -0
000843: 11,7252           61774                           AD       SKEEP4                                #  C(A) = +1
000844: 11,7253           61775                           AD       SKEEP5                                #  C(A) = +1
000845: 11,7254           06033                           TC       -ONECHK    -1
000846:
000847:                                                                                                  #  DIVIDE INCREASING BIT POSITIONS BY 1/2  (13 DEVISIONS)
000848: 11,7255           34516        DV2                CAF      SCON1
000849: 11,7256           51772        DV2LOOP            TS       SKEEP2
000850: 11,7257           25777                           EXTEND
000851: 11,7260           54501                           DV       SCON1/2
000852: 11,7261           51773                           TS       SKEEP3
000853: 11,7262           60001                           AD       Q                                     #  Q = -0
000854: 11,7263           50020                           TS       CYR
000855: 11,7264           40020                           CS       CYR
000856: 11,7265           61772                           AD       SKEEP2
000857: 11,7266           60003                           AD       LP
000858: 11,7267           06033                           TC       -ONECHK    -1
000859: 11,7270           41773                           CS       SKEEP3
000860: 11,7271           60000                           AD       A
000861: 11,7272           50000                           TS       A                                     #  OVERFLOW AT END OF DV2 SUBROUTINE
000862: 11,7273           07275                           TC       +2
000863: 11,7274           07300                           TC       DV3
000864: 11,7275           31773                           XCH      SKEEP3
000865: 11,7276           64516                           AD       SCON1
000866: 11,7277           07256                           TC       DV2LOOP
000867:
000868:                                                                                                  #  DIVIDE SEPARATE DECREASING BIT POSITIONS BY 37777 (14DEVISIONS)
000869:                                                                                                  #  AFTER C(A) = BEFORE C(A) AND AFTER C(Q) = -C(A)
000870: 11,7300           44476        DV3                CS       SCON+MAX
000871: 11,7301           50020                           TS       CYR                                   #  C(CYR) = 20000
000872: 11,7302           40020        DV3LOOP            CS       CYR
000873: 11,7303           40000                           CS       A
000874: 11,7304           25777                           EXTEND
000875: 11,7305           54476                           DV       SCON+MAX
000876: 11,7306           51774                           TS       SKEEP4
000877: 11,7307           60001                           AD       Q
000878: 11,7310           06023                           TC       -ZEROCHK
000879: 11,7311           11774                           CCS      SKEEP4
000880: 11,7312           10000                           CCS      A
000881: 11,7313           07302                           TC       DV3LOOP
000882:
000883:                                                                                                  #  DEVIDE 37776 BY 37776
000884:                                                                                                  #  C(A) = +MAX FOR POSITIVE SIGN AND -MAX FOR NEGATIVE SIGN
000885:                                                                                                  #  C(Q) = - ABSOLUTE VALUE OF DEVISOR = 40001


000887: 11,7314           37210        DV4++              CAF      DVCON1                                #  37776
000888: 11,7315           25777                           EXTEND
000889: 11,7316           57210                           DV       DVCON1                                #  C(A) = 37777    C(Q) = -37776
000890: 11,7317           60001                           AD       Q
000891: 11,7320           06033                           TC       -ONECHK    -1
000892: 11,7321           30003                           XCH      LP                                    #  C(LP) = +1
000893: 11,7322           51775                           TS       SKEEP5
000894: 11,7323           47210                           CS       DVCON1
000895: 11,7324           51774                           TS       SKEEP4
000896: 11,7325           37210        DV4+-              CAF      DVCON1
000897: 11,7326           25777                           EXTEND
000898: 11,7327           51774                           DV       SKEEP4                                #  C(A) = 40000  C(Q) = -37776
000899: 11,7330           40000                           CS       A
000900: 11,7331           60001                           AD       Q
000901: 11,7332           06033                           TC       -ONECHK    -1
000902: 11,7333           60003                           AD       LP                                    #  C(LP) = 40000
000903: 11,7334           61775                           AD       SKEEP5
000904: 11,7335           51775                           TS       SKEEP5                                #  -37776
000905: 11,7336           47210        DV4-+              CS       DVCON1
000906: 11,7337           25777                           EXTEND
000907: 11,7340           57210                           DV       DVCON1                                #  C(A) = 40000  C(Q) = -37776
000908: 11,7341           40000                           CS       A
000909: 11,7342           60001                           AD       Q
000910: 11,7343           06033                           TC       -ONECHK    -1
000911: 11,7344           40003                           CS       LP                                    #  C(LP) = 40001
000912: 11,7345           61775                           AD       SKEEP5
000913: 11,7346           51775                           TS       SKEEP5                                #  -0
000914: 11,7347           47210        DV4--              CS       DVCON1
000915: 11,7350           51774                           TS       SKEEP4
000916: 11,7351           25777                           EXTEND
000917: 11,7352           51774                           DV       SKEEP4                                #  C(A) = 37777  C(Q) = -37776
000918: 11,7353           60001                           AD       Q
000919: 11,7354           06033                           TC       -ONECHK    -1
000920: 11,7355           40003                           CS       LP                                    #  C(LP) = +1
000921: 11,7356           61775                           AD       SKEEP5
000922: 11,7357           06034                           TC       -ONECHK
000923: 11,7360           10215                           CCS      NEWJOB
000924: 11,7361           07377                           TC       DUMEXIT
000925: 11,7362           11777                           CCS      SKEEP7
000926: 11,7363           07365                           TC       +2
000927: 11,7364           07367                           TC       SOPTION3   -3
000928: 11,7365           51777                           TS       SKEEP7
000929: 11,7366           07214                           TC       DV1++                                 #  BACK TO DEVIDE LOOP
000930:
000931: 11,7367           31770                           XCH      SCOUNT     +2                         #  ADD +1 TO SCOUNT +2 REGISTER AT THIS
000932: 11,7370           64516                           AD       SCON1                                 #  POINT OF SELF-CHECK
000933: 11,7371           31770                           XCH      SCOUNT     +2
000934: 11,7372           11762        SOPTION3           CCS      SMODE
000935: 11,7373           07113                           TC       MPNMBRS                               #  STAY IN MPNMBRS LOOP
000936: 11,7374           03000                           TC       SMODECHK


000938: 11,7375           03000                           TC       SMODECHK                              #  SHOULD NOT COME HERE
000939: 11,7376           03000                           TC       SMODECHK                              #  END OF SELF-CHECK. START AGAIN
000940:
000941:    3000                                           BANK     1
000942:


000944:
000945:                                                                                                  #  COMPUTER ACTIVITY LIGHT (GREEN LIGHT) MAINTENANCE.
000946:
000947:    3000           10215        SMODECHK           CCS      NEWJOB                                #  SEE IF ITS TIME FOR A CHANGE.
000948:    3001           07377                           TC       DUMEXIT
000949:
000950:    3002           11762        ADVAN              CCS      SMODE                                 #  SEE IF SELF-CHECK IS WANTED
000951:    3003           06045                           TC       CCSCHK                                #  YES PULSES ONLY
000952:    3004           03000                           TC       SMODECHK
000953:    3005           06045                           TC       CCSCHK                                #  YES PULSES + SC + ERASABLE
000954:    3006           06045                           TC       CCSCHK                                #  YES ALL OF SELF-CHECK
000955:
000956: 11,7377                                           BANK     11
000957: 11,7377           30001        DUMEXIT            XCH      Q
000958: 11,7400           50115                           TS       QADRS                                 #  STORE RETURN ADDRESS
000959: 11,7401           45503                           CS       TWO                                   #  TURN ON GREEN LIGHT (COMP ACT) AND
000960: 11,7402           20017                           INHINT
000961: 11,7403           70011                           MASK     OUT1                                  #  GO TO CHANG1.
000962: 11,7404           65503                           AD       TWO
000963: 11,7405           50011                           TS       OUT1
000964: 11,7406           02101                           TC       CHANG1
000965:
000966: 11,7407           45503        DUMYJOB            CS       TWO                                   #  IDLING AGAIN- TURN OFF ACTIVITY LIGHT
000967: 11,7410           20017                           INHINT
000968: 11,7411           70011                           MASK     OUT1                                  #  LIGHT.
000969: 11,7412           50011                           TS       OUT1
000970: 11,7413           20016                           RELINT
000971: 11,7414           00115                           TC       QADRS                                 #  BACK TO CHECKING COMPUTER
000972:
000973: 11,7415           37420        DUMMYJOB           CAF      SMODECON                              #  ENTER AT SMODECHK IF THERE IS A
000974: 11,7416           50115                           TS       QADRS                                 #  FRESH START OR A GOJAM
000975: 11,7417           07407                           TC       DUMYJOB
000976: 11,7420           03000        SMODECON           ADRES    SMODECHK
000977:


000979:
000980:                                                                                                  #  C-RELAY TESTER
000981:
000982: 11,7421           34500        CCHK               CAF      BIT15
000983: 11,7422           50723                           TS       DSPTAB     +11D
000984: 11,7423           50724                           TS       DSPTAB     +12D
000985: 11,7424           50725                           TS       DSPTAB     +13D
000986:
000987: 11,7425           34510                           CAF      BIT7
000988: 11,7426           20017                           INHINT
000989: 11,7427           02173                           TC       WAITLIST
000990: 11,7430           23433                           CADR     CCHKA
000991: 11,7431           37530                           CAF      LCCHKB
000992: 11,7432           02127                           TC       JOBSLEEP
000993:
000994: 11,7433           37530        CCHKA              CAF      LCCHKB
000995: 11,7434           02060                           TC       JOBWAKE
000996: 11,7435           02256                           TC       TASKOVER
000997:
000998: 11,7436           35503        CCHKB              CAF      TWO
000999: 11,7437           50115                           TS       MPAC
001000:
001001: 11,7440           33232                           CAF      TEN
001002: 11,7441           50116        CCHK0              TS       MPAC       +1
001003:
001004: 11,7442           20000                           INDEX    A
001005: 11,7443           34504                           CAF      BIT11
001006: 11,7444           64500                           AD       BIT15
001007: 11,7445           20115                           INDEX    MPAC
001008: 11,7446           50723                           TS       DSPTAB     +11D
001009:
001010: 11,7447           34507                           CAF      BIT8
001011: 11,7450           20017                           INHINT
001012: 11,7451           02173                           TC       WAITLIST
001013: 11,7452           23455                           CADR     CCHK1
001014:
001015: 11,7453           37531                           CAF      LCCHK2
001016: 11,7454           02127                           TC       JOBSLEEP
001017:
001018: 11,7455           37531        CCHK1              CAF      LCCHK2
001019: 11,7456           02060                           TC       JOBWAKE
001020: 11,7457           02256                           TC       TASKOVER
001021:
001022: 11,7460           30007        CCHK2              XCH      IN3
001023: 11,7461           10007                           CCS      IN3
001024: 11,7462           07525                           TC       CCHKALM
001025: 11,7463           07525                           TC       CCHKALM
001026: 11,7464           07466                           TC       +2
001027: 11,7465           07525                           TC       CCHKALM
001028:
001029: 11,7466           10116                           CCS      MPAC       +1


001031: 11,7467           07441                           TC       CCHK0
001032:
001033: 11,7470           34500                           CAF      BIT15                                 #  TURN OFF LAST RELAY.
001034: 11,7471           20115                           INDEX    MPAC
001035: 11,7472           50723                           TS       DSPTAB     +11D
001036:
001037: 11,7473           10115                           CCS      MPAC
001038: 11,7474           07437                           TC       CCHK0      -2
001039: 11,7475           34510                           CAF      BIT7
001040: 11,7476           20017                           INHINT
001041: 11,7477           02173                           TC       WAITLIST
001042: 11,7500           23503                           CADR     CCHKC
001043: 11,7501           37533                           CAF      LCCHKD
001044: 11,7502           02127                           TC       JOBSLEEP
001045:
001046: 11,7503           37533        CCHKC              CAF      LCCHKD
001047: 11,7504           02060                           TC       JOBWAKE
001048: 11,7505           02256                           TC       TASKOVER
001049:
001050: 11,7506           30007        CCHKD              XCH      IN3
001051: 11,7507           10007                           CCS      IN3
001052: 11,7510           07514                           TC       +4
001053: 11,7511           07514                           TC       +3
001054: 11,7512           07525                           TC       CCHKALM
001055: 11,7513           07525                           TC       CCHKALM
001056:
001057: 11,7514           35362                           CAF      SEVEN
001058: 11,7515           50117                           TS       MPAC       +2
001059: 11,7516           37532                           CAF      CCHKNV
001060: 11,7517           03100                           TC       NVSUB
001061: 11,7520           03315                           TC       PRENVBSY
001062: 11,7521           03362        TSTOUT             TC       FREEDSP
001063: 11,7522           02362                           TC       NEWMODE                               #  REVERT TO MODE 00.
001064: 11,7523           00000                           OCT      0
001065: 11,7524           02124                           TC       ENDOFJOB
001066:
001067: 11,7525           03007        CCHKALM            TC       ALARM
001068: 11,7526           01104                           OCT      1104
001069: 11,7527           02124                           TC       ENDOFJOB
001070:
001071: 11,7530           23436        LCCHKB             CADR     CCHKB
001072: 11,7531           23460        LCCHK2             CADR     CCHK2
001073: 11,7532           00101        CCHKNV             OCT      00101
001074: 11,7533           23506        LCCHKD             CADR     CCHKD
001075:


001077:
001078:                                                                                                  #  DSKY TESTER
001079:
001080: 11,7534           33232        DCHECK             CAF      TEN
001081: 11,7535           50115        DC9                TS       MPAC
001082: 11,7536           20115                           INDEX    MPAC
001083: 11,7537           37643                           CAF      DSKYCODE
001084: 11,7540           50116                           TS       MPAC       +1
001085: 11,7541           20017                           INHINT
001086: 11,7542           40000                           COM
001087: 11,7543           50721                           TS       DSPTAB     +9D
001088: 11,7544           43221                           CS       MID5
001089: 11,7545           70116                           MASK     MPAC       +1
001090: 11,7546           40000                           COM
001091: 11,7547           50717                           TS       DSPTAB     +7
001092: 11,7550           44504                           CS       BIT11
001093: 11,7551           70116                           MASK     MPAC       +1
001094: 11,7552           40000                           COM
001095: 11,7553           50710                           TS       DSPTAB
001096: 11,7554           50711                           TS       DSPTAB     +1
001097: 11,7555           50712                           TS       DSPTAB     +2
001098: 11,7556           50713                           TS       DSPTAB     +3
001099: 11,7557           50714                           TS       DSPTAB     +4
001100: 11,7560           50715                           TS       DSPTAB     +5
001101: 11,7561           50716                           TS       DSPTAB     +6
001102: 11,7562           50720                           TS       DSPTAB     +8D
001103: 11,7563           50722                           TS       DSPTAB     +10D
001104: 11,7564           37656                           CAF      DCNOUT
001105: 11,7565           50707                           TS       NOUT
001106: 11,7566           34504        DCWAIT             CAF      BIT11                                 #  10.24 SEC WAIT
001107: 11,7567           02173                           TC       WAITLIST
001108: 11,7570           23573                           CADR     DC10
001109: 11,7571           37657                           CAF      LDC11
001110: 11,7572           02127                           TC       JOBSLEEP
001111:
001112: 11,7573           37657        DC10               CAF      LDC11
001113: 11,7574           02060                           TC       JOBWAKE
001114: 11,7575           02256                           TC       TASKOVER
001115:
001116: 11,7576           10115        DC11               CCS      MPAC
001117: 11,7577           07535                           TC       DC9
001118:
001119: 11,7600           07602                           TC       +2
001120: 11,7601           07613                           TC       DC+
001121:
001122: 11,7602           20017                           INHINT
001123: 11,7603           44373                           CS       6K                                    #  - SIGNS.
001124: 11,7604           50710                           TS       DSPTAB
001125: 11,7605           50713                           TS       DSPTAB     +3
001126: 11,7606           50715                           TS       DSPTAB     +5
001127: 11,7607           50115                           TS       MPAC


001129: 11,7610           34473                           CAF      THREE
001130: 11,7611           50707                           TS       NOUT
001131: 11,7612           07566                           TC       DCWAIT
001132:
001133: 11,7613           20017        DC+                INHINT
001134: 11,7614           44373                           CS       6K
001135: 11,7615           50711                           TS       DSPTAB     +1
001136: 11,7616           50714                           TS       DSPTAB     +4
001137: 11,7617           50716                           TS       DSPTAB     +6
001138: 11,7620           44503                           CS       BIT12
001139: 11,7621           50710                           TS       DSPTAB
001140: 11,7622           50713                           TS       DSPTAB     +3
001141: 11,7623           50715                           TS       DSPTAB     +5
001142: 11,7624           34475                           CAF      SIX
001143: 11,7625           50707                           TS       NOUT
001144: 11,7626           33220                           CAF      LOW5
001145: 11,7627           50011                           TS       OUT1                                  #  TURNS ON DSKY LAMPS.
001146: 11,7630           20016                           RELINT
001147: 11,7631           34506                           CAF      BIT9
001148: 11,7632           50115        DC++               TS       MPAC                                  #  KEEP GLIT ON FOR A WHILE.
001149: 11,7633           34504                           CAF      BIT11                                 #  LOOPS FOR ABOUT 40 MS.
001150: 11,7634           10000                           CCS      A
001151: 11,7635           07634                           TC       -1
001152: 11,7636           10215                           CCS      NEWJOB
001153: 11,7637           02101                           TC       CHANG1
001154: 11,7640           10115                           CCS      MPAC
001155: 11,7641           07632                           TC       DC++
001156: 11,7642           07521                           TC       TSTOUT
001157:
001158: 11,7643           04000        DSKYCODE           OCT      04000                                 #  BLANKS
001159: 11,7644           07265                           OCT      07265                                 #  00
001160: 11,7645           06143                           OCT      06143                                 #  11
001161: 11,7646           07471                           OCT      07471                                 #  22
001162: 11,7647           07573                           OCT      07573                                 #  33
001163: 11,7650           06757                           OCT      06757                                 #  44
001164: 11,7651           07736                           OCT      07736                                 #  55
001165: 11,7652           07634                           OCT      07634                                 #  66
001166: 11,7653           07163                           OCT      07163                                 #  77
001167: 11,7654           07675                           OCT      07675                                 #  88
001168: 11,7655           07777                           OCT      07777                                 #  99
001169: 11,7656           00013        DCNOUT             DEC      11         B-14
001170: 11,7657           23576        LDC11              CADR     DC11
001171:


001173:
001174:                                                                                                  #  ENGINE-ON PROGRAM     FOLLOWING A +XXX.XX SECOND DELAY OF LESS THAN 2 MINUTES, ENGINE WILL REMAIN ON FOR +XXX.XX
001175:
001176: 11,7660           03302        BROKYPRG           TC       GRABDSP
001177: 11,7661           03310                           TC       PREGBSY
001178: 11,7662           34516                           CAF      ONE
001179: 11,7663           51564                           TS       CUSSANG
001180: 11,7664           37723                           CAF      V21N24G
001181: 11,7665           03100                           TC       NVSUB
001182: 11,7666           03315                           TC       PRENVBSY
001183: 11,7667           03136                           TC       ENDIDLE
001184: 11,7670           02124                           TC       ENDOFJOB
001185: 11,7671           07664                           TC       -5
001186: 11,7672           30616                           XCH      DSPTEM1
001187: 11,7673           31460                           XCH      LONGTIME
001188: 11,7674           30617                           XCH      DSPTEM1    +1
001189: 11,7675           31461                           XCH      LONGTIME   +1
001190: 11,7676           51563                           TS       PLOW
001191: 11,7677           11564                           CCS      CUSSANG
001192: 11,7700           07663                           TC       BROKYPRG   +3
001193: 11,7701           31563                           XCH      PLOW
001194: 11,7702           02173                           TC       WAITLIST
001195: 11,7703           23706                           CADR     ENGNON
001196: 11,7704           03362                           TC       FREEDSP
001197: 11,7705           02124                           TC       ENDOFJOB
001198: 11,7706           44502        ENGNON             CS       BIT13
001199: 11,7707           70011                           MASK     OUT1
001200: 11,7710           64502                           AD       BIT13
001201: 11,7711           50011                           TS       OUT1
001202: 11,7712           37724                           CAF      ENGOFLOC
001203: 11,7713           51467                           TS       CALLCADR
001204: 11,7714           05742                           TC       IBNKCALL
001205: 11,7715           10552                           CADR     LONGCALL
001206: 11,7716           02256                           TC       TASKOVER
001207: 11,7717           44502        ENGNOFF            CS       BIT13
001208: 11,7720           70011                           MASK     OUT1
001209: 11,7721           50011                           TS       OUT1
001210: 11,7722           02256                           TC       TASKOVER
001211: 11,7723           02124        V21N24G            OCT      02124
001212: 11,7724           23717        ENGOFLOC           CADR     ENGNOFF

End of include-file AGC_SELF-CHECK.agc.  Parent file is MAIN.agc


