
Source Code


000002:                                                                                                  ## Copyright:   Public domain.
000003:                                                                                                  ## Filename:    ALARM_AND_DISPLAY_PROCEDURES.agc
000004:                                                                                                  ## Purpose:     Part of the source code for Solarium build 55. This
000005:                                                                                                  ##              is for the Command Module's (CM) Apollo Guidance
000006:                                                                                                  ##              Computer (AGC), for Apollo 6.
000007:                                                                                                  ## Assembler:   yaYUL --block1
000008:                                                                                                  ## Contact:     Jim Lawton <jim DOT lawton AT gmail DOT com>
000009:                                                                                                  ## Website:     www.ibiblio.org/apollo/index.html
000010:                                                                                                  ## Page Scans:  www.ibiblio.org/apollo/ScansForConversion/Solarium055/
000011:                                                                                                  ## Mod history: 2009-09-15 JL   Created.
000012:                                                                                                  ##              2016-12-28 RSB  Proofed comment text using octopus/ProoferComments,
000013:                                                                                                  ##                              and fixed errors found.
000014:


000016:
000017:                                                                                                  #        THE FOLLOWING SUBROUTINE MAY BE CALLED TO DISPLAY A NON-ABORTIVE ALARM CONDITION. IT MAY BE CALLED
000018:                                                                                                  #  EITHER IN INTERRUPT OR UNDER EXECUTIVE CONTROL.
000019:
000020:                                                                                                  #        CALLING SEQUENCE IS AS FOLLOWS:
000021:
000022:                                                                                                  #        TC      ALARM
000023:                                                                                                  #        OCT     AAANN           ALARM NO. NN IN GENERAL AREA AAA.
000024:                                                                                                  #                                (RETURNS HERE)
000025:
000026:    3007                                           BANK     1
000027:    3007           20017        ALARM              INHINT
000028:    3010           30001                           XCH      Q
000029:    3011           50577                           TS       ITEMP1
000030:
000031:    3012           11763                           CCS      FAILREG                               #  SEE IF ONE FAILURE HAS OCCURRED SINCE
000032:                                                                                                  #   THE LAST ERROR RESET.
000033:    3013           03021                           TC       MULTFAIL                              #  YES - INDICATE MULTIPLE FAILURES.
000034:    3014           03024                           TC       NEWALARM                              #  FIRST SINCE RESET.
000035:    3015           30577        MULTEXIT           XCH      ITEMP1                                #  FREE ITEMP1 BEFORE RELINT.
000036:
000037:    3016           20016        ENDALARM           RELINT
000038:    3017           20000                           INDEX    A
000039:    3020           00001                           TC       1                                     #  RETURN TO CALLER.
000040:
000041:    3021           64664        MULTFAIL           AD       CSQ                                   #  BIT 15 = 1 INDICATES MULTIPLE FAILURES.
000042:    3022           51763                           TS       FAILREG                               #  CSQ = BIT15 + BIT1.
000043:    3023           03015                           TC       MULTEXIT
000044:
000045:    3024           30577        NEWALARM           XCH      ITEMP1                                #  SAVE RETURN ADDRESS FOR CALL TO NOVAC.
000046:    3025           51763                           TS       FAILREG
000047:
000048:    3026           03036                           TC       PROGLARM                              #  TURN ON THE PROGRAM ALARM LIGHT.
000049:
000050:    3027           32172                           CAF      PRIO37
000051:    3030           02052                           TC       NOVAC
000052:    3031           23725                           CADR     DOALARM                               #  CALL (SEPARATE) JOB FOR DISPLAY.
000053:
000054:    3032           21763                           INDEX    FAILREG                               #  (RETURN ADDRESS AT THIS POINT).
000055:    3033           30000                           CAF      0
000056:    3034           31763                           XCH      FAILREG                               #  SET FAILREG AND GET BACK RETURN ADDRESS.
000057:    3035           03016        NEWALM2            TC       ENDALARM
000058:


000060:
000061:                                                                                                  #        JOB WHICH CALLS NVSUB FOR ALARM DISPLAY.
000062:
000063: 11,7725                                           BANK     11
000064: 11,7725           03302        DOALARM            TC       GRABDSP                               #  DISPLAY FAILREG.
000065: 11,7726           03310                           TC       PREGBSY
000066: 11,7727           33043                           CAF      FAILDISP
000067: 11,7730           03100                           TC       NVSUB
000068: 11,7731           03315                           TC       PRENVBSY
000069: 11,7732           03362                           TC       FREEDSP
000070: 11,7733           02124                           TC       ENDOFJOB
000071:
000072:
000073:
000074:    3036                                           SETLOC   NEWALM2    +1
000075:
000076:    3036           44516        PROGLARM           CS       ONE                                   #  TURNS ON PROGRAM FAIL LIGHT ON THE
000077:    3037           70011                           MASK     OUT1                                  #  PANEL.  CALLED ONLY BY ALARM AND ABORT.
000078:    3040           64516                           AD       ONE
000079:    3041           50011                           TS       OUT1
000080:    3042           00001                           TC       Q
000081:
000082:    3043           00531        FAILDISP           OCT      00531
000083:


000085:
000086:                                                                                                  #        THE FOLLOWING ROUTINE IS CALLED TO INITIATE AN ABORT. FAILREG IS SET (ACCORDING TO THE MULTIPLE
000087:                                                                                                  #  FAILURES CONVENTION) AND A RE-START IS INITIATED BY TC-SELF. THIS IS CALLED ONLY UNDER RARE CIRCUMSTANCES.
000088:
000089:    3044           20017        ABORT              INHINT                                         #  MAY BE CALLED IN INTERRUPT OR UNDER EXEC
000090:    3045           20001                           INDEX    Q                                     #  PICK UP FAILURE CODE.
000091:    3046           30000                           CAF      0
000092:    3047           50577                           TS       ITEMP1
000093:
000094:    3050           11763                           CCS      FAILREG                               #  SEE IF THIS IS A MULTIPLE FAILURE.
000095:    3051           03054                           TC       SETMULTF                              #  SET BIT 15 TO INDICATE YES.
000096:    3052           03056                           TC       NEWABORT                              #  FIRST FAILURE.
000097:
000098:    3053           03053        WHIMPER            TC       WHIMPER                               #  NOT WITH A BANG...
000099:
000100:    3054           64664        SETMULTF           AD       CSQ                                   #  RESTORE AND SET BIT15
000101:    3055           03060                           TC       +3
000102:
000103:    3056           03036        NEWABORT           TC       PROGLARM                              #  FIRST FAILURE - TURN ON ALARM LIGHT.
000104:    3057           30577                           XCH      ITEMP1
000105:    3060           51763                 +3        TS       FAILREG
000106:    3061           03053                           TC       WHIMPER                               #  UNIVERSAL ABORT LOCATION.
000107:
000108:    3062           30001        CCSHOLE            XCH      Q
000109:    3063           51764                           TS       SFAIL
000110:    3064           03044                           TC       ABORT
000111:    3065           01103                           OCT      1103
000112:
000113:                                                                                                  #        MISSION PROGRAM DETECTED FAILURES (ERROR RETURNS TO IMUSTALL, ETC.)
000114:
000115:    3066           30001        CURTAINS           XCH      Q                                     #  PROGRAM DETECTED FLUSH.
000116:    3067           05720                           TC       POSTJUMP
000117:    3070           10777                           CADR     THATSALL                              #  FRESH START AND PROGRAM ALARM.
000118:
000119:    3071                        ENDFAILF           EQUALS

End of include-file ALARM_AND_DISPLAY_PROCEDURES.agc.  Parent file is MAIN.agc


