
Source Code


000002:                                                                                                  #  Copyright:    Public domain.
000003:                                                                                                  #  Filename:     ALARM_AND_DISPLAY_PROCEDURES.agc
000004:                                                                                                  #  Purpose:      Part of the source code for Solarium build 55. This
000005:                                                                                                  #                is for the Command Module's (CM) Apollo Guidance
000006:                                                                                                  #                Computer (AGC), for Apollo 6.
000007:                                                                                                  #  Assembler:    yaYUL --block1
000008:                                                                                                  #  Contact:      Jim Lawton <jim DOT lawton AT gmail DOT com>
000009:                                                                                                  #  Website:      www.ibiblio.org/apollo/index.html
000010:                                                                                                  #  Page scans:   www.ibiblio.org/apollo/ScansForConversion/Solarium055/
000011:                                                                                                  #  Mod history:  2009-09-15 JL   Created.
000012:
000013:                                                                                                  # # Page 293
000014:
000015:                                                                                                  #        THE FOLLOWING SUBROUTINE MAY BE USED TO DISPLAY A NON-ABORTIVE ALARM CONDITION. IT MAY BE CALLED
000016:                                                                                                  #  EITHER IN INTERRUPT OR UNDER EXECUTIVE CONTROL.
000017:
000018:                                                                                                  #        CALLING SEQUENCE IS AS FOLLOWS:
000019:
000020:                                                                                                  #        TC      ALARM
000021:                                                                                                  #        OCT     AAANN           ALARM NO. NN IN GENERAL AREA AAA.
000022:                                                                                                  #                                (RETURNS HERE)
000023:
000024:    3007                                           BANK     1
000025:    3007           20017        ALARM              INHINT
000026:    3010           30001                           XCH      Q
000027:    3011           50577                           TS       ITEMP1
000028:
000029:    3012           11763                           CCS      FAILREG                               #  SEE IF ONE FAILURE HAS OCCURRED SINCE
000030:                                                                                                  #   THE LAST ERROR RESET.
000031:    3013           03021                           TC       MULTFAIL                              #  YES - INDICATE MULTIPLE FAILURES.
000032:    3014           03024                           TC       NEWALARM                              #  FIRST SINCE RESET.
000033:    3015           30577        MULTEXIT           XCH      ITEMP1                                #  FREE ITEMP1 BEFORE RELINT.
000034:
000035:    3016           20016        ENDALARM           RELINT
000036:    3017           20000                           INDEX    A
000037:    3020           00001                           TC       1                                     #  RETURN TO CALLER.
000038:
000039:    3021           64664        MULTFAIL           AD       CSQ                                   #  BIT 15 = 1 INDICATES MULTIPLE FAILURES.
000040:    3022           51763                           TS       FAILREG                               #  CSQ = BIT15 + BIT1.
000041:    3023           03015                           TC       MULTEXIT
000042:
000043:    3024           30577        NEWALARM           XCH      ITEMP1                                #  SAVE RETURN ADDRESS FOR CALL TO NOVAC.
000044:    3025           51763                           TS       FAILREG
000045:
000046:    3026           03036                           TC       PROGLARM                              #  TURN ON THE PROGRAM ALARM LIGHT.
000047:
000048:    3027           32172                           CAF      PRIO37
000049:    3030           02052                           TC       NOVAC
000050:    3031           23725                           CADR     DOALARM                               #  CALL (SEPARATE) JOB FOR DISPLAY.
000051:
000052:    3032           21763                           INDEX    FAILREG                               #  (RETURN ADDRESS AT THIS POINT).
000053:    3033           30000                           CAF      0
000054:    3034           31763                           XCH      FAILREG                               #  SET FAILREG AND GET BACK RETURN ADDRESS.
000055:    3035           03016        NEWALM2            TC       ENDALARM
000056:
000057:                                                                                                  # # Page 294
000058:
000059:                                                                                                  #        JOB WHICH CALLS NVSUB FOR ALARM DISPLAY.
000060:
000061: 11,7725                                           BANK     11
000062: 11,7725           03302        DOALARM            TC       GRABDSP                               #  DISPLAY FAILREG.
000063: 11,7726           03310                           TC       PREGBSY
000064: 11,7727           33043                           CAF      FAILDISP
000065: 11,7730           03100                           TC       NVSUB
000066: 11,7731           03315                           TC       PRENVBSY
000067: 11,7732           03362                           TC       FREEDSP
000068: 11,7733           02124                           TC       ENDOFJOB
000069:
000070:
000071:
000072:    3036                                           SETLOC   NEWALM2    +1
000073:
000074:    3036           44516        PROGLARM           CS       ONE                                   #  TURNS ON PROGRAM FAIL LIGHT ON THE
000075:    3037           70011                           MASK     OUT1       PANEL.     CALLED
000076:    3040           64516                           AD       ONE
000077:    3041           50011                           TS       OUT1
000078:    3042           00001                           TC       Q
000079:
000080:    3043           00531        FAILDISP           OCT      00531
000081:
000082:                                                                                                  # # Page 295
000083:
000084:                                                                                                  #        THE FOLLOWING ROUTINE IS CALLED TO INITIATE AN ABORT. FAILREG IS SET (ACCORDING TO THE MULTIPLE
000085:                                                                                                  #  FAILURES CONVENTION) AND A RE-START IS INITIATED BY TC-SELF. THIS IS CALLED ONLY UNDER RARE CIRCUMSTANCES.
000086:
000087:    3044           20017        ABORT              INHINT                                         #  MAY BE CALLED IN INTERRUPT OR UNDER EXEC
000088:    3045           20001                           INDEX    Q                                     #  PICK UP FAILURE CODE.
000089:    3046           30000                           CAF      0
000090:    3047           50577                           TS       ITEMP1
000091:
000092:    3050           11763                           CCS      FAILREG                               #  SEE IF THIS IS A MULTIPLE FAILURE.
000093:    3051           03054                           TC       SETMULTF                              #  SET BIT 15 TO INDICATE YES.
000094:    3052           03056                           TC       NEWABORT                              #  FIRST FAILURE.
000095:
000096:    3053           03053        WHIMPER            TC       WHIMPER                               #  NOT WITH A BANG...
000097:
000098:    3054           64664        SETMULTF           AD       CSQ                                   #  RESTORE AND SET BIT15
000099:    3055           03060                           TC       +3
000100:
000101:    3056           03036        NEWABORT           TC       PROGLARM                              #  FIRST FAILURE - TURN ON ALARM LIGHT.
000102:    3057           30577                           XCH      ITEMP1
000103:    3060           51763                 +3        TS       FAILREG
000104:    3061           03053                           TC       WHIMPER                               #  UNIVERSAL ABORT LOCATION.
000105:
000106:    3062           30001        CCSHOLE            XCH      Q
000107:    3063           51764                           TS       SFAIL
000108:    3064           03044                           TC       ABORT
000109:    3065           01103                           OCT      1103
000110:
000111:                                                                                                  #        MISSION PROGRAM DETECTED FAILURES (ERROR RETURNS TO IMUSTALL, ETC.)
000112:
000113:    3066           30001        CURTAINS           XCH      Q                                     #  PROGRAM DETECTED FLUSH.
000114:    3067           05720                           TC       POSTJUMP
000115:    3070           10777                           CADR     THATSALL                              #  FRESH START AND PROGRAM ALARM.
000116:
000117:    3071                        ENDFAILF           EQUALS

End of include-file ALARM_AND_DISPLAY_PROCEDURES.agc.  Parent file is MAIN.agc


