
Source Code


000002:                                                                                                  ## Copyright:   Public domain.
000003:                                                                                                  ## Filename:    AVERAGE_G_INTEGRATOR.agc
000004:                                                                                                  ## Purpose:     Part of the source code for Solarium build 55. This
000005:                                                                                                  ##              is for the Command Module's (CM) Apollo Guidance
000006:                                                                                                  ##              Computer (AGC), for Apollo 6.
000007:                                                                                                  ## Assembler:   yaYUL --block1
000008:                                                                                                  ## Contact:     Jim Lawton <jim DOT lawton AT gmail DOT com>
000009:                                                                                                  ## Website:     www.ibiblio.org/apollo/index.html
000010:                                                                                                  ## Page Scans:  www.ibiblio.org/apollo/ScansForConversion/Solarium055/
000011:                                                                                                  ## Mod history: 2009-10-01 JL   Created.
000012:                                                                                                  ##              2016-08-19 RSB  Added temporary "BANK 30" workaround.
000013:                                                                                                  ##              2016-08-20 RSB  Typos.
000014:                                                                                                  ##              2016-12-28 RSB  Proofed comment text using octopus/ProoferComments,
000015:                                                                                                  ##                              and fixed errors found.
000016:


000018:
000019:                                                                                                  #        ROUTINE CALCRVG INTEGRATES THE EQUATIONS OF MOTION BY AVERAGING THE THRUST AND GRAVITATIONAL ACCELERA-
000020:                                                                                                  #  TIONS OVER A TIME INTERVAL, DELTAT
000021:                                                                                                  #        FOR THE EARTH-CENTERED GRAVITATIONAL FIELD THE PERTURBATION DUE TO OBLATENESS IS COMPUTED TO THE FIRST
000022:                                                                                                  #  HARMONIC COEFFICIENT J
000023:                                                                                                  #        ROUTINE NORMLISE MUST BE CALLED PRIOR TO THE FIRST ENTRY INTO CALCRVG. IT REQUIRES RN SCALED TO 2(+29)M
000024:                                                                                                  #  IT LEAVES RN NORMALISED, SO THAT THE SCALED MAGNITUDE OF THE VECTOR CONTAINS ONE LEADING ZERO, BY SHIFTING THE
000025:                                                                                                  #  VECTOR LEFT N BINARY PLACES
000026:                                                                                                  #        ROUTINE CALCRVG REQUIRES
000027:                                                                                                  #                1) THRUST ACCELERATION INCREMENTS IN DELV SCALED SAME AS PIPAX,Y,Z
000028:                                                                                                  #                2) VN SCALED AT 2(+7) M/CS
000029:                                                                                                  #                3) ADDRESS OF CALCGLUN OR CALCGEAR IN CALCG
000030:                                                                                                  #                4) DELTAT SCALED AT 2(+9) CS
000031:                                                                                                  #                5) PUSH-DOWN COUNTER SET TO ZERO
000032:                                                                                                  #  IT LEAVES UPDATED RN, SCALED AT 2(29-N) M, VN, AND GRAVITY SCALED AT 2(-5) M/CS/CS
000033:
000034:
000035:                                                                                                  #        CONTINUE ON IN BANK 30.


000039: 30,7524                                           BANK     30
000040:
000041: 30,7524           71173        NORMLISE           ABVAL    3                                     #  COUNT NUMBER OF LEADING ZEROS IN
000042: 30,7525           57715                           TSLC     INCR,1                                #  ABVAL (RN) AND STORE -N(=2-M) IN NSHIFT
000043: 30,7526           67515                           SXA,1    INCR,1                                #  RN MUST BE SCALED AT 2(+29)M
000044: 30,7527           67425                           SXA,1    ITA
000045: 30,7530           00766                                    RN
000046: 30,7531           00047                                    X1
000047: 30,7532           00003                                    2
000048: 30,7533           01041                                    NSHIFT                                #  SAVE C(X1)=-N
000049: 30,7534           00017                                    14D
000050: 30,7535           01042                                    XSHIFT                                #  SAVE C(X1) =14-N
000051: 30,7536           00052                                    S2
000052:
000053: 30,7537           75175                           VMOVE    1
000054: 30,7540           44376                           VSLT*
000055: 30,7541           00766                                    RN
000056: 30,7542           00035                                    14D,1
000057: 30,7543           32766                           STORE    RN                                    #  RN SCALED AT 2(29-N)METRES
000058:
000059: 30,7544           76776                           ITC      0
000060: 30,7545           21645                                    CALCGRV1
000061:
000062: 30,7546           44576                           ITCI     0
000063: 30,7547           00052                                    S2
000064:


000066:
000067: 30,7550           75776        CALCRVG            VXSC     0
000068: 30,7551           01002                                    DELV
000069: 30,7552           21742                                    KPIP                                  #  DV TO PD SCALED AT 2(+4)M/CS
000070:
000071: 30,7553           75775                           VXSC     1
000072: 30,7554           73432                           LXA,1    BVSU
000073: 30,7555           01010                                    GRAVITY
000074: 30,7556           01030                                    DELTAT
000075: 30,7557           01042                                    XSHIFT
000076: 30,7560           00001                                    0                                     #  (DV-(OLD GDT))/2 TO PD SCALED 2(+3)M/CS
000077:
000078: 30,7561           47573                           NOLOD    3
000079: 30,7562           45642                           VSRT     VAD
000080: 30,7563           75620                           VXSC     VSLT*
000081: 30,7564           50625                           VAD      ITA
000082: 30,7565           00005                                    4
000083: 30,7566           00774                                    VN
000084: 30,7567           01030                                    DELTAT
000085: 30,7570           00001                                    0,1
000086: 30,7571           00766                                    RN
000087: 30,7572           00052                                    S2
000088: 30,7573           33300                           STORE    RN1                                   #  SCALED AT 2(29-N) METERS
000089:
000090: 30,7574           76776                           ITC      0
000091: 30,7575           21645                                    CALCGRV1
000092:
000093: 30,7576           47573                           NOLOD    3
000094: 30,7577           75632                           VXSC     BVSU
000095: 30,7600           50626                           VAD      VSRT
000096: 30,7601           50776                           VAD
000097: 30,7602           01030                                    DELTAT
000098: 30,7603           77777                                    -                                     #  (DV-(OLD GDT))/2
000099: 30,7604           77777                                    -                                     #  DV/2
000100: 30,7605           00005                                    4
000101: 30,7606           00774                                    VN
000102: 30,7607           33306                           STORE    VN1                                   #  SCALED AT 2(+7) MET/CS
000103:
000104:                                                                                                  #   IN AVERAGE G, UP THE PHASE BITS BY 2 OF ACTIVE PROG BEFORE COPY CYCLE.
000105:
000106: 30,7610           77576                           EXIT     0
000107:
000108: 30,7611           20067                           INDEX    FIXLOC
000109: 30,7612           40051                           CS       S2                                    #  SAVE NEG RETURN ADDRESS IN NON-VAC AREA.
000110: 30,7613           51313        CALCRVG2           TS       AVGRETRN                              #  SAVE NEGATIVE OF RETURN ADDRESS.
000111:
000112: 30,7614           40662                           CS       -PHASE1    +4                         #  PICK UP PHASES.
000113: 30,7615           64516                           AD       ONE                                   #  INCREMENT BY 1.
000114: 30,7616           02312                           TC       NEWPHASE                              #  AND CALL ROUTINE TO CHANGE PHASE.
000115: 30,7617           00005                           OCT      00005


000117: 30,7620           20017        REFAZE6            INHINT
000118: 30,7621           37641                           CAF      ELEVEND
000119: 30,7622           50115                           TS       MPAC                                  #  USE MPAC FOR LOOP COUNTER.
000120: 30,7623           20115                           INDEX    MPAC
000121: 30,7624           41277                           CS       RN1                                   #  RN1 AND VN1 MUST BE IN ORDER.
000122: 30,7625           40000                           COM                                            #  LEAVE RN1 ALONE  IN CASE OF RESTARTS.
000123: 30,7626           20115                           INDEX    MPAC                                  #  SELECT THE RIGHT TERM.
000124: 30,7627           50765                           TS       RN                                    #  ...AND GO THRU COPY CYCLE.
000125:
000126: 30,7630           10115                           CCS      MPAC                                  #  ARE WE DONE..
000127: 30,7631           07622                           TC       REFAZE6    +2                         #  NO, NOT YET.
000128: 30,7632           44515                           CS       BIT2                                  #  YES, MPAC = 0.
000129: 30,7633           70675                           MASK     TMMARKER
000130: 30,7634           64515                           AD       BIT2                                  #  SET BIT 2 TO ONE IN TMMARKER.
000131: 30,7635           50675                           TS       TMMARKER
000132:                                                                                                  #  WHAT ABOUT GRAVITY FOR RESTART..
000133: 30,7636           20016                           RELINT
000134: 30,7637           41313                           CS       AVGRETRN                              #  NEG OF ADDRESS WAS STORED.
000135: 30,7640           05723                           TC       BANKJUMP
000136:
000137:
000138:
000139: 30,7641           00013        ELEVEND            DEC      11         B-14                       #  11D  (ELEVEN DECIMAL, OF COURSE.)
000140:
000141:
000142:
000143: 30,7642           73576        CALCGRAV           LXA,1    0
000144: 30,7643           01042                                    XSHIFT
000145:
000146: 30,7644           47575        CALCGRV1           NOLOD    1
000147: 30,7645           73176                           UNIT
000148: 30,7646           33016                           STORE    UNITR
000149:
000150: 30,7647           45175                           DMOVE    1
000151: 30,7650           63776                           TSLT
000152: 30,7651           00037                                    30D
000153: 30,7652           00002                                    1
000154: 30,7653           33024                           STORE    RMAG                                  #  SCALED AT 2(30-N)M
000155:
000156: 30,7654           63776                           TSLT     0
000157: 30,7655           00035                                    28D
000158: 30,7656           00003                                    2
000159: 30,7657           33026                           STORE    RMAGSQ                                #  SCALED AT 2(+50)M(+2)
000160:
000161: 30,7660           45575                           ITA      1
000162: 30,7661           61576                           XAD,1
000163: 30,7662           00034                                    27D
000164: 30,7663           01041                                    NSHIFT


000166:
000167: 30,7664           42776        CALCGEAR           DOT      0
000168: 30,7665           01016                                    UNITR
000169: 30,7666           01044                                    UNITW
000170: 30,7667           32032                           STORE    25D
000171:
000172: 30,7670           47574                           NOLOD    2
000173: 30,7671           51122                           DSQ      DMP
000174: 30,7672           63726                           TSLT     BDSU
000175: 30,7673           21746                                    DP(5/8)
000176: 30,7674           00005                                    4
000177: 30,7675           21744                                    DP2(-3)
000178:
000179: 30,7676           62775                           DDV      1
000180: 30,7677           63376                           TSLT*
000181: 30,7700           21754                                    J(RE)SQ                               #  SCALED AT 2(+40) M(+2)
000182: 30,7701           01026                                    RMAGSQ
000183: 30,7702           00001                                    0,1
000184: 30,7703           32030                           STORE    23D                                   #  J(RE/RN) SQ SCALED AT 2(-3)
000185:
000186: 30,7704           47574                           NOLOD    2
000187: 30,7705           64766                           DMP      VXSC
000188: 30,7706           50776                           VAD
000189: 30,7707           77777                                    -
000190: 30,7710           01016                                    UNITR
000191: 30,7711           01016                                    UNITR
000192:
000193: 30,7712           64775                           DMP      1
000194: 30,7713           75642                           VXSC     VAD
000195: 30,7714           00030                                    23D
000196: 30,7715           00032                                    25D
000197: 30,7716           01044                                    UNITW
000198:
000199: 30,7717           45175                           DMOVE    1
000200: 30,7720           76776                           ITC
000201: 30,7721           21750                                    MUEARTH
000202: 30,7722           21732                                    MU/RSQ
000203:
000204: 30,7723           75176        CALCGLUN           VMOVE    0
000205: 30,7724           01016                                    UNITR
000206:
000207: 30,7725           45175                           DMOVE    1
000208: 30,7726           63576                           INCR,1
000209: 30,7727           21752                                    MUMOON
000210: 30,7730           00007                                    6
000211:
000212: 30,7731           47574        MU/RSQ             NOLOD    2
000213: 30,7732           62714                           DDV      TSLT*
000214: 30,7733           75776                           VXSC
000215: 30,7734           01026                                    RMAGSQ                                #  C(X1)=14-2N  (EARTH)
000216: 30,7735           00013                                    5,1                                   #       =20-2N  (MOON)


000218: 30,7736           33010                           STORE    GRAVITY                               #  SCALED AT 2(-5) M/CS/CS
000219:
000220: 30,7737           44576                           ITCI     0
000221: 30,7740           00034                                    27D
000222:
000223: 30,7741           23126 25370  KPIP               2DEC     0.59904
000224: 30,7743           04000 00000  DP2(-3)            2DEC     0.125
000225: 30,7745           24000 00000  DP(5/8)            2DEC     0.625
000226: 30,7747           00022 21756  MUEARTH            2DEC     .009063188 B-3                        #  SCALED AT 2(+45)M(+3)/CS(+2)
000227: 30,7751           00164 34414  MUMOON             2DEC     0.007134481                            #  4.90277800 E12        2(+36)M(+3)/CS(+2)
000228: 30,7753           00173 00416  J(RE)SQ            2DEC     .06006663  B-3                        #  SCALED AT 2(+43)M(+2)
000229:


000231:
000232:                                                                                                  #        ROUTINE FOR FLIGHTS 501 &2 TO INCORPORATE STATE VECTOR UPDATE DURING AVERAGE G. EACH PASS THROUGH
000233:                                                                                                  #  SERVICER COMES HERE TO SEE IF AN UPDATE IS READY.
000234:
000235: 26,7711                                           BANK     26
000236:
000237: 26,7711           66774        501UPCHK           DSU      2                                     #  IF PIPTIME IS GREATER THAN OR EQUAL TO
000238: 26,7712           73615                           BMN      TEST                                  #    UPTIME, AND UPTIME IS NOT TOO OLD, AND
000239: 26,7713           66616                           DSU      BPL                                   #    UPDATFLG IS SET, DO THE UPDATE. UPTIME
000240: 26,7714           01465                                    PIPTIME                               #    IS NORMALLY SET TO POSMAX
000241: 26,7715           01672                                    UPTIME                                #  POSMAX.
000242: 26,7716           25302                                    REGSTEP
000243: 26,7717           00023                                    UPDATFLG
000244: 26,7720           25302                                    REGSTEP
000245:
000246: 26,7721           15770                                    2.5SEC26
000247: 26,7722           15755                                    BADUPTIM
000248: 26,7723           52775                           MXV      1                                     #  TRANSFORM DATA IN STBUFF TO SM COORDS.
000249: 26,7724           44776                           VSLT
000250: 26,7725           01107                                    STBUFF     +6
000251: 26,7726           01052                                    REFSMMAT
000252: 26,7727           00002                                    1                                     #  THIS ASSUMES THAT UPDATE SCALED 2(7)M/CS
000253: 26,7730           33306                           STORE    VN1
000254:
000255: 26,7731           52775                           MXV      1
000256: 26,7732           44776                           VSLT
000257: 26,7733           01101                                    STBUFF
000258: 26,7734           01052                                    REFSMMAT
000259: 26,7735           00003                                    2                                     #  THIS ASSUMES THAT UPDATE SCALED 2(26)M
000260: 26,7736           33300                           STORE    RN1
000261:
000262: 26,7737           76776                           ITC      0                                     #  CALCULATE THE ASSOCIATED GRAVITY VECTOR
000263: 26,7740           21643                                    CALCGRAV                              #  FOR THE NEXT TIME STEP.
000264:
000265: 26,7741           77576                           EXIT     0
000266:
000267: 26,7742           02276                           TC       PHASCHNG                              #  UPDATE RESTART POINT BEFORE SETTING
000268: 26,7743           03005                           OCT      03005                                 #  UPTIME TO SHOW THATTHE DATA HAS BEEN
000269:
000270: 26,7744           03430        REDO5.24           TC       FLAG1DWN                              #  INCORPORATED. ALSO, INDICATE THIS TO THE
000271: 26,7745           20000                           OCT      20000                                 #  GROUND BY RESETTING UPDATFLG.
000272:
000273: 26,7746           34476                           CAF      POSMAX
000274: 26,7747           51671                           TS       UPTIME
000275: 26,7750           51672                           TS       UPTIME     +1
000276:
000277: 26,7751           47771                           CS       501AVEX                               #  SET UP FOR AVERAGE G TO RETURN TO USUAL
000278: 26,7752           05720                           TC       POSTJUMP                              #  POINT IN SERVICER
000279: 26,7753           61613                           CADR     CALCRVG2
000280:
000281: 26,7754           77576        BADUPTIM           EXIT     0                                     #  COME HERE IF UPTIME REPRESENTS PAST TIME


000283: 26,7755           03007                           TC       ALARM
000284: 26,7756           01411                           OCT      01411
000285:
000286: 26,7757           34476                           CAF      POSMAX
000287: 26,7760           51671                           TS       UPTIME
000288: 26,7761           51672                           TS       UPTIME     +1
000289:
000290: 26,7762           03430                           TC       FLAG1DWN                              #  RESET UPDAT FLAG
000291: 26,7763           20000                           OCT      20000
000292:
000293: 26,7764           04000                           TC       INTPRET
000294:
000295: 26,7765           76776                           ITC      0
000296: 26,7766           25302                                    REGSTEP
000297:
000298: 26,7767           00000 00372  2.5SEC26           2DEC     250        B-28
000299: 26,7771           65303        501AVEX            CADR     AVGRET
000300:


000302:
000303:                                                                                                  #  SIM FLIGHT SPECIAL
000304:
000305:
000306:
000307: 31,7520                                           BANK     31
000308:
000309: 31,7520           04000        MALSJOB            TC       INTPRET
000310:
000311: 31,7521           51776                           VXM      0
000312: 31,7522           01101                                    STBUFF
000313: 31,7523           01052                                    REFSMMAT
000314: 31,7524           33101                           STORE    STBUFF
000315:
000316: 31,7525           51775                           VXM      1
000317: 31,7526           44776                           VSLT
000318: 31,7527           01107                                    STBUFF     +6
000319: 31,7530           01052                                    REFSMMAT
000320: 31,7531           00002                                    1
000321: 31,7532           33107                           STORE    STBUFF     +6
000322:
000323: 31,7533           77576                           EXIT     0
000324:
000325: 31,7534           02124                           TC       ENDOFJOB
000326:

End of include-file AVERAGE_G_INTEGRATOR.agc.  Parent file is MAIN.agc


