
Source Code


000002:                                                                                                  #  Copyright:    Public domain.
000003:                                                                                                  #  Filename:     AVERAGE_G_INTEGRATOR.agc
000004:                                                                                                  #  Purpose:      Part of the source code for Solarium build 55. This
000005:                                                                                                  #                is for the Command Module's (CM) Apollo Guidance
000006:                                                                                                  #                Computer (AGC), for Apollo 6.
000007:                                                                                                  #  Assembler:    yaYUL --block1
000008:                                                                                                  #  Contact:      Jim Lawton <jim DOT lawton AT gmail DOT com>
000009:                                                                                                  #  Website:      www.ibiblio.org/apollo/index.html
000010:                                                                                                  #  Page Scans:   www.ibiblio.org/apollo/ScansForConversion/Solarium055/
000011:                                                                                                  #  Mod history:  2009-10-01 JL   Created.
000012:                                                                                                  #                2016-08-19 RSB  Added temporary "BANK 30" workaround.
000013:                                                                                                  #                2016-08-20 RSB  Typos.
000014:


000016:
000017:                                                                                                  #        ROUTINE CALCRVG INTEGRATES THE EQUATIONS OF MOTION BY AVERAGING THE THRUST AND GRAVITATIONAL ACCELERA-
000018:                                                                                                  #  TIONS OVER A TIME INTERVAL, DELTAT
000019:                                                                                                  #        FOR THE EARTH-CENTERED GRAVITATIONAL FIELD THE PERTURBATION DUE TO OBLATENESS IS COMPUTED TO THE FIRST
000020:                                                                                                  #  HARMONIC COEFFICIENT J
000021:                                                                                                  #        ROUTINE NORMLISE MUST BE CALLED PRIOR TO THE FIRST ENTRY INTO CALCRVG. IT REQUIRES RN SCALED TO 2(+29)M
000022:                                                                                                  #  IT LEAVES RN NORMALISED, SO THAT THE SCALED MAGNITUDE OF THE VECTOR CONTAINS ONE LEADING ZERO, BY SHIFTING THE
000023:                                                                                                  #  VECTOR LEFT N BINARY PLACES
000024:                                                                                                  #        ROUTINE CALCRVG REQUIRES
000025:                                                                                                  #                1) THRUST ACCELERATION INCREMENTS IN DELV SCALED SAME AS PIPAX,Y,Z
000026:                                                                                                  #                2) VN SCALED AT 2(+7) M/CS
000027:                                                                                                  #                3) ADDRESS OF CALCGLUN OR CALCGEAR IN CALCG
000028:                                                                                                  #                4) DELTAT SCALED AT 2(+9) CS
000029:                                                                                                  #                5) PUSH-DOWN COUNTER SET TO ZERO
000030:                                                                                                  #  IT LEAVES UPDATED RN, SCALED AT 2(29-N) M, VN, AND GRAVITY SCALED AT 2(-5) M/CS/CS
000031:
000032:
000033:                                                                                                  #        CONTINUE ON IN BANK 30.
000034:                                                                                                  #  [ RSB - The original source code did not have the following BANK pseudo-op,
000035:                                                                                                  #  but for some reason I haven't tracked down yet, yaYUL can't resolve the addresses
000036:                                                                                                  #  without it.  Perhaps a bug in yaYUL.]
000037: 30,7524                                           BANK     30
000038:
000039: 30,7524           71173        NORMLISE           ABVAL    3                                     #  COUNT NUMBER OF LEADING ZEROS IN
000040: 30,7525           57715                           TSLC     INCR,1                                #  ABVAL (RN) AND STORE -N(=2-M) IN NSHIFT
000041: 30,7526           67515                           SXA,1    INCR,1                                #  RN MUST BE SCALED AT 2(+29)M
000042: 30,7527           67425                           SXA,1    ITA
000043: 30,7530           00766                                    RN
000044: 30,7531           00047                                    X1
000045: 30,7532           00003                                    2
000046: 30,7533           01041                                    NSHIFT                                #  SAVE C(X1)=-N
000047: 30,7534           00017                                    14D
000048: 30,7535           01042                                    XSHIFT                                #  SAVE C(X1) =14-N
000049: 30,7536           00052                                    S2
000050:
000051: 30,7537           75175                           VMOVE    1
000052: 30,7540           44376                           VSLT*
000053: 30,7541           00766                                    RN
000054: 30,7542           00035                                    14D,1
000055: 30,7543           32766                           STORE    RN                                    #  RN SCALED AT 2(29-N)METRES
000056:
000057: 30,7544           76776                           ITC      0
000058: 30,7545           21645                                    CALCGRV1
000059:
000060: 30,7546           44576                           ITCI     0
000061: 30,7547           00052                                    S2
000062:


000064:
000065: 30,7550           75776        CALCRVG            VXSC     0
000066: 30,7551           01002                                    DELV
000067: 30,7552           21742                                    KPIP                                  #  DV TO PD SCALED AT 2(+4)M/CS
000068:
000069: 30,7553           75775                           VXSC     1
000070: 30,7554           73432                           LXA,1    BVSU
000071: 30,7555           01010                                    GRAVITY
000072: 30,7556           01030                                    DELTAT
000073: 30,7557           01042                                    XSHIFT
000074: 30,7560           00001                                    0                                     #  (DV-(OLD GDT))/2 TO PD SCALED 2(+3)M/CS
000075:
000076: 30,7561           47573                           NOLOD    3
000077: 30,7562           45642                           VSRT     VAD
000078: 30,7563           75620                           VXSC     VSLT*
000079: 30,7564           50625                           VAD      ITA
000080: 30,7565           00005                                    4
000081: 30,7566           00774                                    VN
000082: 30,7567           01030                                    DELTAT
000083: 30,7570           00001                                    0,1
000084: 30,7571           00766                                    RN
000085: 30,7572           00052                                    S2
000086: 30,7573           33300                           STORE    RN1                                   #  SCALED AT 2(29-N) METERS
000087:
000088: 30,7574           76776                           ITC      0
000089: 30,7575           21645                                    CALCGRV1
000090:
000091: 30,7576           47573                           NOLOD    3
000092: 30,7577           75632                           VXSC     BVSU
000093: 30,7600           50626                           VAD      VSRT
000094: 30,7601           50776                           VAD
000095: 30,7602           01030                                    DELTAT
000096: 30,7603           77777                                    -                                     #  (DV-(OLD GDT))/2
000097: 30,7604           77777                                    -                                     #  DV/2
000098: 30,7605           00005                                    4
000099: 30,7606           00774                                    VN
000100: 30,7607           33306                           STORE    VN1                                   #  SCALED AT 2(+7) MET/CS
000101:
000102:                                                                                                  #   IN AVERAGE G, UP THE PHASE BITS BY 2 OF ACTIVE PROG BEFORE COPY CYCLE.
000103:
000104: 30,7610           77576                           EXIT     0
000105:
000106: 30,7611           20067                           INDEX    FIXLOC
000107: 30,7612           40051                           CS       S2                                    #  SAVE NEG RETURN ADDRESS IN NON-VAC AREA.
000108: 30,7613           51313        CALCRVG2           TS       AVGRETRN                              #  SAVE NEGATIVE OF RETURN ADDRESS.
000109:
000110: 30,7614           40662                           CS       -PHASE1    +4                         #  PICK UP PHASES.
000111: 30,7615           64516                           AD       ONE                                   #  INCREMENT BY 1.
000112: 30,7616           02312                           TC       NEWPHASE                              #  AND CALL ROUTINE TO CHANGE PHASE.
000113: 30,7617           00005                           OCT      00005


000115: 30,7620           20017        REFAZE6            INHINT
000116: 30,7621           37641                           CAF      ELEVEND
000117: 30,7622           50115                           TS       MPAC                                  #  USE MPAC FOR LOOP COUNTER.
000118: 30,7623           20115                           INDEX    MPAC
000119: 30,7624           41277                           CS       RN1                                   #  RN1 AND VN1 MUST BE IN ORDER.
000120: 30,7625           40000                           COM                                            #  LEAVE RN1 ALONE  IN CASE OF RESTARTS.
000121: 30,7626           20115                           INDEX    MPAC                                  #  SELECT THE HIGH TERM.
000122: 30,7627           50765                           TS       RN                                    #  ...AND GO THRU COPY CYCLE.
000123:
000124: 30,7630           10115                           CCS      MPAC                                  #  ARE WE DONE..
000125: 30,7631           07622                           TC       REFAZE6    +2                         #  NO, NOT YET.
000126: 30,7632           44515                           CS       BIT2                                  #  YES, MPAC = 0.
000127: 30,7633           70675                           MASK     TMMARKER
000128: 30,7634           64515                           AD       BIT2                                  #  SET BIT 2 TO ONE IN TMMARKER.
000129: 30,7635           50675                           TS       TMMARKER
000130:                                                                                                  #  WHAT ABOUT GRAVITY FOR RESTART..
000131: 30,7636           20016                           RELINT
000132: 30,7637           41313                           CS       AVGRETRN                              #  NEG OF ADDRESS WAS STORED.
000133: 30,7640           05723                           TC       BANKJUMP
000134:
000135:
000136:
000137: 30,7641           00013        ELEVEND            DEC      11         B-14                       #  11D  (ELEVEN DECIMAL, OF COURSE.)
000138:
000139:
000140:
000141: 30,7642           73576        CALCGRAV           LXA,1    0
000142: 30,7643           01042                                    XSHIFT
000143:
000144: 30,7644           47575        CALCGRV1           NOLOD    1
000145: 30,7645           73176                           UNIT
000146: 30,7646           33016                           STORE    UNITR
000147:
000148: 30,7647           45175                           DMOVE    1
000149: 30,7650           63776                           TSLT
000150: 30,7651           00037                                    30D
000151: 30,7652           00002                                    1
000152: 30,7653           33024                           STORE    RMAG                                  #  SCALED AT 2(30-N)M
000153:
000154: 30,7654           63776                           TSLT     0
000155: 30,7655           00035                                    28D
000156: 30,7656           00003                                    2
000157: 30,7657           33026                           STORE    RMAGSQ                                #  SCALED AT 2(+50)M(+2)
000158:
000159: 30,7660           45575                           ITA      1
000160: 30,7661           61576                           XAD,1
000161: 30,7662           00034                                    27D
000162: 30,7663           01041                                    NSHIFT


000164:
000165: 30,7664           42776        CALCGEAR           DOT      0
000166: 30,7665           01016                                    UNITR
000167: 30,7666           01044                                    UNITW
000168: 30,7667           32032                           STORE    25D
000169:
000170: 30,7670           47574                           NOLOD    2
000171: 30,7671           51122                           DSQ      DMP
000172: 30,7672           63726                           TSLT     BDSU
000173: 30,7673           21746                                    DP(5/8)
000174: 30,7674           00005                                    4
000175: 30,7675           21744                                    DP2(-3)
000176:
000177: 30,7676           62775                           DDV      1
000178: 30,7677           63376                           TSLT*
000179: 30,7700           21754                                    J(RE)SQ                               #  SCALED AT 2(+40) M(+2)
000180: 30,7701           01026                                    RMAGSQ
000181: 30,7702           00001                                    0,1
000182: 30,7703           32030                           STORE    23D                                   #  J(RE/RN) SQ SCALED AT 2(-3)
000183:
000184: 30,7704           47574                           NOLOD    2
000185: 30,7705           64766                           DMP      VXSC
000186: 30,7706           50776                           VAD
000187: 30,7707           77777                                    -
000188: 30,7710           01016                                    UNITR
000189: 30,7711           01016                                    UNITR
000190:
000191: 30,7712           64775                           DMP      1
000192: 30,7713           75642                           VXSC     VAD
000193: 30,7714           00030                                    23D
000194: 30,7715           00032                                    25D
000195: 30,7716           01044                                    UNITW
000196:
000197: 30,7717           45175                           DMOVE    1
000198: 30,7720           76776                           ITC
000199: 30,7721           21750                                    MUEARTH
000200: 30,7722           21732                                    MU/RSQ
000201:
000202: 30,7723           75176        CALCGLUN           VMOVE    0
000203: 30,7724           01016                                    UNITR
000204:
000205: 30,7725           45175                           DMOVE    1
000206: 30,7726           63576                           INCR,1
000207: 30,7727           21752                                    MUMOON
000208: 30,7730           00007                                    6
000209:
000210: 30,7731           47574        MU/RSQ             NOLOD    2
000211: 30,7732           62714                           DDV      TSLT*
000212: 30,7733           75776                           VXSC
000213: 30,7734           01026                                    RMAGSQ                                #  C(X1)=14-2N  (EARTH)
000214: 30,7735           00013                                    5,1                                   #       =20-2N  (MOON)


000216: 30,7736           33010                           STORE    GRAVITY                               #  SCALED AT 2(-5) M/CS/CS
000217:
000218: 30,7737           44576                           ITCI     0
000219: 30,7740           00034                                    27D
000220:
000221: 30,7741           23126 25370  KPIP               2DEC     0.59904
000222: 30,7743           04000 00000  DP2(-3)            2DEC     0.125
000223: 30,7745           24000 00000  DP(5/8)            2DEC     0.625
000224: 30,7747           00022 21756  MUEARTH            2DEC     .009063188 B-3                        #  SCALED AT 2(+45)M(+3)/CS(+2)
000225: 30,7751           00164 34414  MUMOON             2DEC     0.007134481                            #  4.90277800 E12        2(+36)M(+3)/CS(+2)
000226: 30,7753           00173 00416  J(RE)SQ            2DEC     .06006663  B-3                        #  SCALED AT 2(+43)M(+2)
000227:


000229:
000230:                                                                                                  #        ROUTINE FOR FLIGHTS 501 &2 TO INCORPORATE STATE VECTOR UPDATE DURING AVERAGE G. EACH PASS THROUGH
000231:                                                                                                  #  SERVICER COMES HERE TO SEE IF AN UPDATE IS READY.
000232:
000233: 26,7711                                           BANK     26
000234:
000235: 26,7711           66774        501UPCHK           DSU      2                                     #  IF PIPTIME IS GREATER THAN OR EQUAL TO
000236: 26,7712           73615                           BMN      TEST                                  #    UPTIME, AND UPTIME IS NOT TOO OLD, AND
000237: 26,7713           66616                           DSU      BPL                                   #    UPDATFLG IS SET, DO THE UPDATE. UPTIME
000238: 26,7714           01465                                    PIPTIME                               #    IS NORMALLY SET TO POSMAX
000239: 26,7715           01672                                    UPTIME                                #  POSMAX.
000240: 26,7716           25302                                    REGSTEP
000241: 26,7717           00023                                    UPDATFLG
000242: 26,7720           25302                                    REGSTEP
000243:
000244: 26,7721           15770                                    2.5SEC26
000245: 26,7722           15755                                    BADUPTIM
000246: 26,7723           52775                           MXV      1                                     #  TRANSFORM DATA IN STBUFF TO SM COORDS.
000247: 26,7724           44776                           VSLT
000248: 26,7725           01107                                    STBUFF     +6
000249: 26,7726           01052                                    REFSMMAT
000250: 26,7727           00002                                    1                                     #  THIS ASSUMES THAT UPDATE SCALED 2(+7)M/CS
000251: 26,7730           33306                           STORE    VN1
000252:
000253: 26,7731           52775                           MXV      1
000254: 26,7732           44776                           VSLT
000255: 26,7733           01101                                    STBUFF
000256: 26,7734           01052                                    REFSMMAT
000257: 26,7735           00003                                    2                                     #  THIS ASSUMES THAT UPDATE SCALED 2(26)M
000258: 26,7736           33300                           STORE    RN1
000259:
000260: 26,7737           76776                           ITC      0                                     #  CALCULATE THE ASSOCIATED GRAVITY VECTOR
000261: 26,7740           21643                                    CALCGRAV                              #  FOR THE NEXT TIME STEP.
000262:
000263: 26,7741           77576                           EXIT     0
000264:
000265: 26,7742           02276                           TC       PHASCHNG                              #  UPDATE RESTART POINT BEFORE SETTING
000266: 26,7743           03005                           OCT      03005                                 #  UPTIME TO SHOW THATTHE DATA HAS BEEN
000267:
000268: 26,7744           03430        REDO5.24           TC       FLAG1DWN                              #  INCORPORATED. ALSO, INDICATE THIS TO THE
000269: 26,7745           20000                           OCT      20000                                 #  GROUND BY RESETTING UPDATFLG.
000270:
000271: 26,7746           34476                           CAF      POSMAX
000272: 26,7747           51671                           TS       UPTIME
000273: 26,7750           51672                           TS       UPTIME     +1
000274:
000275: 26,7751           47771                           CS       501AVEX                               #  SET UP FOR AVERAGE G TO RETURN TO USUAL
000276: 26,7752           05720                           TC       POSTJUMP                              #  POINT IN SERVICER
000277: 26,7753           61613                           CADR     CALCRVG2
000278:
000279: 26,7754           77576        BADUPTIM           EXIT     0                                     #  COME HERE IF UPTIME REPRESENTS PAST TIME


000281: 26,7755           03007                           TC       ALARM
000282: 26,7756           01411                           OCT      01411
000283:
000284: 26,7757           34476                           CAF      POSMAX
000285: 26,7760           51671                           TS       UPTIME
000286: 26,7761           51672                           TS       UPTIME     +1
000287:
000288: 26,7762           03430                           TC       FLAG1DWN                              #  RESET UPDAT FLAG
000289: 26,7763           20000                           OCT      20000
000290:
000291: 26,7764           04000                           TC       INTPRET
000292:
000293: 26,7765           76776                           ITC      0
000294: 26,7766           25302                                    REGSTEP
000295:
000296: 26,7767           00000 00372  2.5SEC26           2DEC     250        B-28
000297: 26,7771           65303        501AVEX            CADR     AVGRET
000298:


000300:
000301:                                                                                                  #  SIM FLIGHT SPECIAL
000302:
000303:
000304:
000305: 31,7520                                           BANK     31
000306:
000307: 31,7520           04000        MALSJOB            TC       INTPRET
000308:
000309: 31,7521           51776                           VXM      0
000310: 31,7522           01101                                    STBUFF
000311: 31,7523           01052                                    REFSMMAT
000312: 31,7524           33101                           STORE    STBUFF
000313:
000314: 31,7525           51775                           VXM      1
000315: 31,7526           44776                           VSLT
000316: 31,7527           01107                                    STBUFF     +6
000317: 31,7530           01052                                    REFSMMAT
000318: 31,7531           00002                                    1
000319: 31,7532           33107                           STORE    STBUFF     +6
000320:
000321: 31,7533           77576                           EXIT     0
000322:
000323: 31,7534           02124                           TC       ENDOFJOB
000324:

End of include-file AVERAGE_G_INTEGRATOR.agc.  Parent file is MAIN.agc


