
Source Code


000002:                                                                                                  #  Copyright:    Public domain.
000003:                                                                                                  #  Filename:     DOWN-TELEMETRY_PROGRAM.agc
000004:                                                                                                  #  Purpose:      Part of the source code for Solarium build 55. This
000005:                                                                                                  #                is for the Command Module's (CM) Apollo Guidance
000006:                                                                                                  #                Computer (AGC), for Apollo 6.
000007:                                                                                                  #  Assembler:    yaYUL --block1
000008:                                                                                                  #  Contact:      Jim Lawton <jim DOT lawton AT gmail DOT com>
000009:                                                                                                  #  Website:      www.ibiblio.org/apollo/index.html
000010:                                                                                                  #  Page scans:   www.ibiblio.org/apollo/ScansForConversion/Solarium055/
000011:                                                                                                  #  Mod history:  2009-09-29 JL   Created.
000012:                                                                                                  #                2016-08-19 RSB  Typo.
000013:
000014:                                                                                                  # # Page 151
000015:
000016:                                                                                                  #  TELEMETRY PROCESSOR
000017:                                                                                                  #  --------- ---------
000018:
000019:                                                                                                  #        THE FOLLOWING TELEMETRY PROGRAM IS DESIGNED TO TRANSMIT TELEMETRY DATA VIA OUT4 WHEN AN ENDPULSE
000020:                                                                                                  #  FROM THE NORTH AMERICAN TELEMETRY PROGRAMMER TRIGGERS INTERRUPT 6, WHICH INITIATES THIS ROUTINE. IT OPERATES
000021:                                                                                                  #  IN CONJUNCTION WITH (BUT ASYNCHRONOUSLY FROM) THE T4RUPT PROGRAM, WHICH IS INITIATED EVERY 60 MS, VIA INTERRUPT
000022:                                                                                                  #  3.
000023:
000024:
000025:    2377                                           BANK     1
000026:    2377           10670        DOWNRUPT           CCS      TELCOUNT                              #  PNZ IS NORMAL SETTING - +0 INDICATES
000027:    2400           02407                           TC       DOWNTMOK                              #  TM FAILURE SINCE ENDPULSE ARE OCCURING
000028:    2401           02571                           TC       TMFAIL                                #  TOO FREQUENTLY. THE COUNTER IS SET TO +7
000029:
000030:    2402           44505                           CS       BIT10                                 #  BLOCK TM ENDPULSES UNTIL  ERROR RESET
000031:    2403           70011                           MASK     OUT1                                  #  COMMAND IS GIVEN.
000032:    2404           64505                           AD       BIT10
000033:    2405           50011                           TS       OUT1
000034:
000035:    2406           02266                           TC       NBRESUME                              #  BY DSRUPT EVERY 120 MS.
000036:
000037:    2407           50670        DOWNTMOK           TS       TELCOUNT                              #  NORMAL MODE - STORE DECREMENTED COUNT.
000038:    2410           00673                           TC       DNTMGOTO                              #  JUMP TO APPROPRIATE DOWNLINK PHASE.
000039:
000040:                                                                                                  #        IN PHASE 7, SEND REQUIRED NUMBER OF DUMMY MARKS, ENTERING PHASE 1 WHEN FINISHED. ANY REAL MARKERS
000041:                                                                                                  #  OCCURRING HERE WILL NOT BE SENT UNTIL PHASE 3.
000042:
000043:    2411           10676        DNPHASE7           CCS      MARKERCT                              #  REDUCE TO ZERO.
000044:    2412           02541                           TC       DUMMARK
000045:
000046:                                                                                                  #        PHASE 1 SENDS LIST ID AND SETS UP PHASE 2.
000047:
000048:    2413           32553        DNPHASE1           CAF      LPHASE2
000049:    2414           50673                           TS       DNTMGOTO
000050:    2415           32561                           CAF      LTHCOMA                               #  NUMBER OF WORDS IN COMMON LIST A.
000051:    2416           50674                           TS       TMINDEX
000052:    2417           40672                           CS       DNLSTADR                              #  CHANGES IN DNLSTADR NOT HONORED UNTIL
000053:    2420           40000                           COM                                            #  THIS PHASE.
000054:    2421           50671                           TS       LDATALST
000055:    2422           74302                           MASK     LOW11
000056:    2423           64170                           AD       60K                                   #  AT FOD'S REQUEST.
000057:    2424           02545                           TC       W.O.=1
000058:
000059:                                                                                                  # # Page 152
000060:
000061:                                                                                                  #        PHASE 2 SENDS COMMON LIST A: DSPTAB, T2, T1, I/O, CDUS, ETC. NO MARKERS ARE INTERSPERSED WITH THE DATA.
000062:
000063:    2425           10674        DNPHASE2           CCS      TMINDEX                               #  SEE IF MORE DATA TO BE SENT.
000064:    2426           02505                           TC       PHASE2A
000065:
000066:    2427           32554                           CAF      LPHASE3                               #  IF NOT, BEGIN PHASE 3.
000067:    2430           50673                           TS       DNTMGOTO
000068:    2431           34473                           CAF      NOMRKRS                               #  NUMBER OF MARKERS/SECOND.
000069:    2432           50676                           TS       MARKERCT
000070:    2433           32563                           CAF      LTHLSTA                               #  NUMBER OF WORDS IN PARTICULAR LISTS A.
000071:    2434           50674                           TS       TMINDEX
000072:
000073:                                                                                                  #        PHASE 3 - SEND DOWN PARTICULAR LIST A WITH REAL MARKERS INTER-LEAVED.
000074:
000075:    2435           10675        DNPHASE3           CCS      TMMARKER                              #  SEE IF ANY MARKERS TO BE SENT.
000076:    2436           02536                           TC       DOMARKER
000077:
000078:    2437           10674                           CCS      TMINDEX                               #  SEND DOWN PART. LIST A ENTRY IF ANY.
000079:    2440           02517                           TC       PHASE36A                              #  (COMMON TO PHASES 3 AND 6.)
000080:
000081:    2441           32555                           CAF      LPHASE4                               #  END OF PHASE 3, START PHASE 4.
000082:    2442           50673                           TS       DNTMGOTO
000083:
000084:                                                                                                  #        PHASE 4: SEND DUMMY MARKERS UNTIL MARKERCT = 0.
000085:
000086:    2443           10676        DNPHASE4           CCS      MARKERCT                              #  (NONE MAY BE REQUIRED)
000087:    2444           02541                           TC       DUMMARK
000088:
000089:    2445           32556                           CAF      LPHASE5                               #  END OF PHASE 4 - BEGIN PHASE 5.
000090:    2446           50673                           TS       DNTMGOTO
000091:    2447           32562                           CAF      LTHCOMB                               #  NUMBER OF WORDS IN COMMON LIST B - 1.
000092:
000093:                                                                                                  #        PHASE 5: SEND COMMON LIST B WITH NO MARKERS INTER-LEAVED.
000094:
000095:    2450           50674        PHASE5A            TS       TMINDEX                               #  (ENTERS HERE FIRST TIME ONLY).
000096:    2451           20000                           INDEX    A
000097:    2452           22612                           INDEX    COMLSTB
000098:    2453           40000                           CS       0
000099:    2454           02511                           TC       DATADWNF
000100:
000101:    2455           10674        DNPHASE5           CCS      TMINDEX                               #  NORMAL PHASE 5 ENTRY.
000102:    2456           02450                           TC       PHASE5A
000103:
000104:                                                                                                  # # Page 153
000105:
000106:                                                                                                  #        AT END OF PHASE 5, BEGIN PHASE 6. THE ADDRESS OF PARTICULAR LIST B IMMEDIATELY PROCEEDS
000107:                                                                                                  #  PARTICULAR LIST A.
000108:
000109:    2457           32557                           CAF      LPHASE6
000110:    2460           50673                           TS       DNTMGOTO
000111:    2461           32564                           CAF      LTHLSTB                               #  NUMBER OF WORDS IN PARTICULAR LISTS B.
000112:    2462           50674                           TS       TMINDEX
000113:    2463           34473                           CAF      NOMRKRS
000114:    2464           50676                           TS       MARKERCT
000115:
000116:    2465           32570                           CAF      LISTBANK                              #  GET ADDRESS OF PART. LIST B.
000117:    2466           30015                           XCH      BANKREG
000118:    2467           30671                           XCH      LDATALST
000119:    2470           64335                           AD       MINUS1
000120:    2471           20000                           INDEX    A
000121:    2472           40000                           CS       0                                     #  SO WE CAN RUN IN ERASABLE.
000122:    2473           40000                           COM
000123:    2474           30671                           XCH      LDATALST
000124:    2475           50015                           TS       BANKREG
000125:
000126:                                                                                                  #        PHASE 6: PARTICULAR LIST B AND REAL MARKERS.
000127:
000128:    2476           10675        DNPHASE6           CCS      TMMARKER
000129:    2477           02536                           TC       DOMARKER
000130:
000131:    2500           10674                           CCS      TMINDEX
000132:    2501           02517                           TC       PHASE36A
000133:
000134:    2502           32560                           CAF      LPHASE7                               #  SWITCH TO PHASE 7 TO SUPPLY REQUIRED
000135:    2503           50673                           TS       DNTMGOTO                              #  NUMBER OF DUMMY MARKS.
000136:    2504           02411                           TC       DNPHASE7
000137:
000138:                                                                                                  # # Page 154
000139:
000140:                                                                                                  #        OUT OF SEQUENCE ROUTINES.
000141:
000142:    2505           50674        PHASE2A            TS       TMINDEX                               #  SELECT DATA WORD FOR COMMON LIST A IN
000143:    2506           20000                           INDEX    A                                     #  IN FIXED-FIXED.
000144:    2507           22576                           INDEX    COMLSTA
000145:    2510           40000                           CS       0
000146:    2511           40000        DATADWNF           COM                                            #  PHASE 5 (COMMON LIST B) EXITS HERE.
000147:    2512           50014                           TS       OUT4
000148:    2513           44506                           CS       BIT9
000149:    2514           70011                           MASK     OUT1
000150:    2515           50011                           TS       OUT1
000151:    2516           02266                           TC       NBRESUME                              #  NO BANK SWITCH REQUIRED.
000152:
000153:    2517           50674        PHASE36A           TS       TMINDEX                               #  PHASES 3 AND 6 (PARTICULAR DATA LISTS)
000154:    2520           32570                           CAF      LISTBANK                              #  EXIT HERE
000155:    2521           30015                           XCH      BANKREG
000156:    2522           50030                           TS       BANKRUPT                              #  PARTICULAR LISTS IN SWITCHED BANK.
000157:
000158:    2523           10671                           CCS      LDATALST                              #  (SAVES 2 MCT).
000159:    2524           60674                           AD       TMINDEX
000160:    2525           20000                           INDEX    A
000161:    2526           20001                           INDEX    1                                     #  (1 COMPENSATES FOR ABOVE CCS.)
000162:    2527           40000                           CS       0
000163:    2530           40000                           COM
000164:    2531           50014                           TS       OUT4
000165:    2532           44506                           CS       BIT9
000166:    2533           70011                           MASK     OUT1
000167:    2534           50011                           TS       OUT1
000168:    2535           02264                           TC       RESUME
000169:
000170:    2536           10676        DOMARKER           CCS      MARKERCT                              #  COME HERE TO SHIP DOWN REAL MARKER.
000171:    2537           02541                           TC       +2                                    #  PROTECT AGAINST TOO MANY TMMARKERS
000172:    2540           00001                           TC       Q                                     #    BEING SENT DOWN WITHIN ONE SECOND
000173:    2541           50676        DUMMARK            TS       MARKERCT                              #  REDUCE MARKERCT (NEVER IS ZERO ABOVE).
000174:    2542           35501                           CAF      ZERO
000175:    2543           30675                           XCH      TMMARKER
000176:    2544           62565                           AD       DN74K                                 #  AT FOD'S REQUEST.
000177:    2545           50014        W.O.=1             TS       OUT4                                  #  PHASE 1 EXITS HERE.
000178:    2546           44506                           CS       BIT9
000179:    2547           70011                           MASK     OUT1
000180:    2550           64506                           AD       BIT9
000181:    2551           50011                           TS       OUT1
000182:    2552           02266                           TC       NBRESUME
000183:
000184:                                                                                                  # # Page 155
000185:
000186:                                                                                                  #  CONSTANTS.
000187:
000188:    2553           02425        LPHASE2            ADRES    DNPHASE2                              #  ADDRESSES FOR DNTMGOTO.
000189:    2554           02435        LPHASE3            ADRES    DNPHASE3
000190:    2555           02443        LPHASE4            ADRES    DNPHASE4
000191:    2556           02455        LPHASE5            ADRES    DNPHASE5
000192:    2557           02476        LPHASE6            ADRES    DNPHASE6
000193:    2560           02411        LPHASE7            ADRES    DNPHASE7
000194:
000195:    2561           00032        LTHCOMA            DEC      26         B-14                       #  LENGTH OF COMMON LIST A.
000196:    2562           00015        LTHCOMB            DEC      13         B-14                       #  LENGTH OF COMMON LIST B - 1.
000197:    2563           00025        LTHLSTA            DEC      21         B-14                       #  PARTICULAR LIST A.
000198:    2564           00040        LTHLSTB            DEC      32         B-14                       #  PARTICULAR LIST B.
000199:    2565           74000        DN74K              OCT      74000
000200:    2566     4473               NOMRKRS            EQUALS   THREE
000201:
000202:    2566           06067        LDNLST1            ADRES    501LSTA1
000203:    2567           06001        LDNLST2            ADRES    501LSTA2
000204:    2570           20067        LISTBANK           CADR     501LSTA1
000205:
000206:                                                                                                  #        SUBROUTINE COMMON TO UPLINK AND DOWNLINK TO TURN ON THE TM FAIL LIGHT.
000207:
000208:    2571           44513        TMFAIL             CS       BIT4
000209:    2572           70011                           MASK     OUT1
000210:    2573           64513                           AD       BIT4
000211:    2574           50011                           TS       OUT1
000212:    2575           00001                           TC       Q
000213:
000214:                                                                                                  # # Page 156
000215:
000216:                                                                                                  #        COMMON LISTS A AND B.
000217:
000218:    2576           00051        COMLSTA            ADRES    CDUZ                                  #  27
000219:    2577           00050                           ADRES    CDUY                                  #  26
000220:    2600           00047                           ADRES    CDUX                                  #  25
000221:    2601           00647                           ADRES    FLAGWRD2                              #  24
000222:    2602           00646                           ADRES    FLAGWRD1                              #  23
000223:    2603           00645                           ADRES    STATE                                 #  22
000224:    2604           00011                           ADRES    OUT1                                  #  21
000225:    2605           00007                           ADRES    IN3                                   #  20
000226:    2606           00006                           ADRES    IN2                                   #  19
000227:    2607           00004                           ADRES    IN0                                   #  18
000228:    2610           00036                           ADRES    TIME1                                 #  17
000229:    2611           00035                           ADRES    TIME2                                 #  16
000230:
000231:    2612           00725        COMLSTB            ADRES    DSPTAB     +13D                       #  15/65
000232:    2613           00724                           ADRES    DSPTAB     +12D                       #  14/64
000233:    2614           00723                           ADRES    DSPTAB     +11D                       #  13/63
000234:    2615           00722                           ADRES    DSPTAB     +10D                       #  12/62
000235:    2616           00721                           ADRES    DSPTAB     +9D                        #  11/61
000236:    2617           00720                           ADRES    DSPTAB     +8D                        #  10/60
000237:    2620           00717                           ADRES    DSPTAB     +7                         #  9/59
000238:    2621           00716                           ADRES    DSPTAB     +6                         #  8/58
000239:    2622           00715                           ADRES    DSPTAB     +5                         #  7/57
000240:    2623           00714                           ADRES    DSPTAB     +4                         #  6/56
000241:    2624           00713                           ADRES    DSPTAB     +3                         #  5/55
000242:    2625           00712                           ADRES    DSPTAB     +2                         #  4/54
000243:    2626           00711                           ADRES    DSPTAB     +1                         #  3/53
000244:    2627           00710                           ADRES    DSPTAB                                #  2/52
000245:
000246:                                                                                                  # # Page 157
000247:
000248:                                                                                                  #        PARTICULAR DATA LISTS FOR FLIGHT 501. LIST 1 PROVIDES DATA FOR THE ENTIRE FLIGHT EXCEPT DURING
000249:                                                                                                  #  STATE VECTOR UPDATES, FOR WHICH LIST 2 IS USED.
000250:
000251: 10,6000                                           SETLOC   20000
000252:
000253: 10,6000           06006                           ADRES    501LSTB2
000254: 10,6001           01117        501LSTA2           ADRES    COMPNUMB
000255: 10,6002           01116                           ADRES    UPOLDMD
000256: 10,6003           06114                           ADRES    DNSPARE
000257: 10,6004           06114                           ADRES    DNSPARE
000258: 10,6005           06114                           ADRES    DNSPARE
000259: 10,6006           01115        501LSTB2           ADRES    STBUFF     +13D
000260: 10,6007           01114                           ADRES    STBUFF     +12D
000261: 10,6010           01113                           ADRES    STBUFF     +11D
000262: 10,6011           01112                           ADRES    STBUFF     +10D
000263: 10,6012           01111                           ADRES    STBUFF     +9D
000264: 10,6013           01110                           ADRES    STBUFF     +8D
000265: 10,6014           01107                           ADRES    STBUFF     +7
000266: 10,6015           01106                           ADRES    STBUFF     +6
000267: 10,6016           01105                           ADRES    STBUFF     +5
000268: 10,6017           01104                           ADRES    STBUFF     +4
000269: 10,6020           01103                           ADRES    STBUFF     +3
000270: 10,6021           01102                           ADRES    STBUFF     +2
000271: 10,6022           01101                           ADRES    STBUFF     +1
000272: 10,6023           01100                           ADRES    STBUFF
000273: 10,6024           01123                           ADRES    STCNTR
000274: 10,6025           06114                           ADRES    DNSPARE
000275: 10,6026           01211        501LSTB1           ADRES    TAVEGON    +1                         #  COMMON TO LISTS 1 AND 2
000276: 10,6027           01210                           ADRES    TAVEGON
000277: 10,6030           01227                           ADRES    VAVEGON    +5
000278: 10,6031           01226                           ADRES    VAVEGON    +4
000279: 10,6032           01225                           ADRES    VAVEGON    +3
000280: 10,6033           01224                           ADRES    VAVEGON    +2
000281: 10,6034           01223                           ADRES    VAVEGON    +1
000282: 10,6035           01222                           ADRES    VAVEGON
000283: 10,6036           01221                           ADRES    RAVEGON    +5
000284: 10,6037           01220                           ADRES    RAVEGON    +4
000285: 10,6040           01217                           ADRES    RAVEGON    +3
000286: 10,6041           01216                           ADRES    RAVEGON    +2
000287: 10,6042           01215                           ADRES    RAVEGON    +1
000288: 10,6043           01214                           ADRES    RAVEGON
000289: 10,6044           01463                           ADRES    TCUTOFF    +1                         #  EVENT TIME
000290: 10,6045           01462                           ADRES    TCUTOFF
000291: 10,6046           01467                           ADRES    TIME1GR
000292: 10,6047           01466                           ADRES    TIME2GR
000293:
000294: 10,6050           01465                           ADRES    PIPTIME    +1
000295: 10,6051           01464                           ADRES    PIPTIME
000296: 10,6052           01000                           ADRES    VN         +5
000297: 10,6053           00777                           ADRES    VN         +4
000298:                                                                                                  # # Page 158
000299: 10,6054           00776                           ADRES    VN         +3
000300: 10,6055           00775                           ADRES    VN         +2
000301: 10,6056           00774                           ADRES    VN         +1
000302: 10,6057           00773                           ADRES    VN
000303: 10,6060           00772                           ADRES    RN         +5
000304: 10,6061           00771                           ADRES    RN         +4
000305: 10,6062           00770                           ADRES    RN         +3
000306: 10,6063           00767                           ADRES    RN         +2
000307: 10,6064           00766                           ADRES    RN         +1
000308: 10,6065           00765                           ADRES    RN
000309:
000310: 10,6066           06026                           ADRES    501LSTB1
000311: 10,6067           01457        501LSTA1           ADRES    TFF        +1
000312: 10,6070           01456                           ADRES    TFF
000313: 10,6071           01113                           ADRES    VRECT      +5
000314: 10,6072           01112                           ADRES    VRECT      +4
000315: 10,6073           01111                           ADRES    VRECT      +3
000316: 10,6074           01110                           ADRES    VRECT      +2
000317: 10,6075           01107                           ADRES    VRECT      +1
000318: 10,6076           01106                           ADRES    VRECT
000319: 10,6077           01105                           ADRES    RRECT      +5
000320: 10,6100           01104                           ADRES    RRECT      +4
000321: 10,6101           01103                           ADRES    RRECT      +3
000322: 10,6102           01102                           ADRES    RRECT      +2
000323: 10,6103           01101                           ADRES    RRECT      +1
000324: 10,6104           01100                           ADRES    RRECT
000325: 10,6105           00702                           ADRES    THETAD     +2
000326: 10,6106           00701                           ADRES    THETAD     +1
000327: 10,6107           00700                           ADRES    THETAD
000328: 10,6110           01005                           ADRES    DELVX      +4
000329: 10,6111           01003                           ADRES    DELVX      +2
000330: 10,6112           01001                           ADRES    DELVX
000331: 10,6113           01075                           ADRES    REDOCNTR
000332:
000333: 10,6114           52525        DNSPARE            OCT      52525                                 #  AT FOD'S REQUEST.

End of include-file DOWN-TELEMETRY_PROGRAM.agc.  Parent file is MAIN.agc


