
Source Code


000002:                                                                                                  #  Copyright:    Public domain.
000003:                                                                                                  #  Filename:     DUMMY_501_INITIALIZATION.agc
000004:                                                                                                  #  Purpose:      Part of the source code for Solarium build 55. This
000005:                                                                                                  #                is for the Command Module's (CM) Apollo Guidance
000006:                                                                                                  #                Computer (AGC), for Apollo 6.
000007:                                                                                                  #  Assembler:    yaYUL --block1
000008:                                                                                                  #  Contact:      Jim Lawton <jim DOT lawton AT gmail DOT com>
000009:                                                                                                  #  Website:      www.ibiblio.org/apollo/index.html
000010:                                                                                                  #  Page Scans:   www.ibiblio.org/apollo/ScansForConversion/Solarium055/
000011:                                                                                                  #  Mod history:  2009-09-14 JL   Created.
000012:


000014: 33,7407                                           BANK     33
000015: 33,7407           05654        BEGINNER           TC       BANKCALL
000016: 33,7410           30216        CADRMODE           CADR     IMUREENT
000017:
000018: 33,7411           04000        BEGIN501           TC       INTPRET
000019: 33,7412           75175                           VMOVE    1
000020: 33,7413           76776                           ITC
000021: 33,7414           00766                                    RN
000022: 33,7415           21643                                    CALCGRAV
000023:
000024: 33,7416           77576                           EXIT     0
000025: 33,7417           02276                           TC       PHASCHNG                              #  SETUP SOME PHASE INFO.
000026: 33,7420           00105        EXITLOC2           OCT      00105                                 #  5.1 MODE GOES WITH READACCS.
000027:
000028: 33,7421           20017                           INHINT
000029: 33,7422           40036                           CS       TIME1
000030: 33,7423           67440                           AD       STARTDT1
000031: 33,7424           02173                           TC       WAITLIST
000032: 33,7425           65152                           CADR     READACCS
000033:
000034: 33,7426           40036                           CS       TIME1                                 #  SPARE START ROUTINE
000035: 33,7427           67441                           AD       STARTDT2
000036: 33,7430           02173                           TC       WAITLIST
000037: 33,7431           67442                           CADR     START2
000038:
000039: 33,7432           02124                           TC       ENDOFJOB
000040:
000041: 33,7433           05654        BEGINSW            TC       BANKCALL                              #  WAIT FOR MODE SWITCH IF NECESSARY.
000042: 33,7434           30331                           CADR     IMUSTALL
000043: 33,7435           07435                           TC       -0                                    ## (JL) seems to be an arg missing. Is YUL assuming 0? Generates 07435.
000044:
000045: 33,7436           02124                           TC       ENDOFJOB
000046:
000047: 33,7437           00000                           DEC      0          B-14
000048: 33,7440           00310        STARTDT1           DEC      200        B-14
000049: 33,7441           01476        STARTDT2           DEC      830        B-14
000050:
000051: 33,7442           32162        START2             CAF      PRIO27
000052: 33,7443           02046                           TC       FINDVAC
000053: 33,7444           64336                           CADR     S4BSMSEP
000054:
000055: 33,7445           02256                           TC       TASKOVER

End of include-file DUMMY_501_INITIALIZATION.agc.  Parent file is MAIN.agc


