
Source Code


000002:                                                                                                  #  Copyright:    Public domain.
000003:                                                                                                  #  Filename:     EXECUTIVE.agc
000004:                                                                                                  #  Purpose:      Part of the source code for Solarium build 55. This
000005:                                                                                                  #                is for the Command Module's (CM) Apollo Guidance
000006:                                                                                                  #                Computer (AGC), for Apollo 6.
000007:                                                                                                  #  Assembler:    yaYUL --block1
000008:                                                                                                  #  Contact:      Jim Lawton <jim DOT lawton AT gmail DOT com>
000009:                                                                                                  #  Website:      www.ibiblio.org/apollo/index.html
000010:                                                                                                  #  Page scans:   www.ibiblio.org/apollo/ScansForConversion/Solarium055/
000011:                                                                                                  #  Mod history:  2009-09-19 JL   Created.
000012:                                                                                                  #                2016-08-18 RSB  Some fixes.
000013:
000014:                                                                                                  # # Page 98
000015:
000016:                                                                                                  #  EXECUTIVE PROGRAMS
000017:                                                                                                  #  --------- --------
000018:
000019:
000020:
000021:    2046                                           BANK     1
000022:    2046           50577        FINDVAC            TS       NEWPRIO                               #  PROGRAM TO FIND AN AVAILABLE VAC
000023:    2047           30001                           XCH      Q
000024:    2050           02065                           TC       EXECCOM                               #  COMMON FF EXECUTIVE SUBROUTINE.
000025:    2051           06004                           TC       FINDVAC2                              #  OFF TO EXECUTIVE BANK.
000026:
000027:    2052           50577        NOVAC              TS       NEWPRIO                               #  ENTRY EXCLUSIVELY FOR BASIC JOBS NOT
000028:    2053           30001                           XCH      Q                                     #  REQUIRING A VAC AREA.
000029:    2054           02065                           TC       EXECCOM                               #  COMMON FF EXECUTIVE SUBROUTINE.
000030:    2055           35501                           CAF      ZERO                                  #  ZERO PD FIELD IN PUSHLOC.
000031:    2056           50574                           TS       EXECTEM3
000032:    2057           06027                           TC       NOVAC2
000033:
000034:    2060           50573        JOBWAKE            TS       EXECTEM2                              #  ENTRY HERE TO RE-ACTIVATE A SLEEPING JOB
000035:    2061           10001                           CCS      Q                                     #  RETURN ADDRESS - 1 TO WTEXIT.
000036:    2062           50600                           TS       WTEXIT                                #  SHARES FINAL PORTION OF FINDVAC, NOVAC.
000037:    2063           02071                           TC       EXECSW                                #  COMMON EXEC BANK-SWITCH SUBROUTINE.
000038:    2064           06110                           TC       JOBWAKE2
000039:
000040:    2065           50600        EXECCOM            TS       WTEXIT                                #  EXIT ADDRESS
000041:    2066           20000                           INDEX    A                                     #  PICK UP JOB OR TASK ADDRESS.
000042:    2067           30000                           CAF      0                                     #    (USED BY FINDVAC, NOVAC, AND WAITLIST)
000043:    2070           50573                           TS       EXECTEM2
000044:
000045:    2071           32075        EXECSW             CAF      EXECBANK
000046:    2072           30015                           XCH      BANKREG                               #  CALL IN EXEC BANK, SAVING RETURN.
000047:    2073           50572                           TS       EXECTEM1
000048:    2074           00001                           TC       Q
000049:
000050:    2075           10004        EXECBANK           CADR     FINDVAC2
000051:
000052:    2076           50015        FOUNDVAC           TS       BANKREG                               #  COMES HERE TO RETURN FROM FINDVAC,
000053:    2077           20600                           INDEX    WTEXIT                                #  NOVAC, OR JOBWAKE.
000054:    2100           00001                           TC       1
000055:
000056:                                                                                                  # # Page 99
000057:
000058:                                                                                                  #                CALLS TO FINDVAC BEGIN HERE, SANTCHING AN AVAILABLE VAC AREA.
000059:
000060: 04,6000                                           SETLOC   10000                                 #  EXEC/WAITLIST BANK.
000061:
000062: 04,6000           06705        SLAPB              TC       SLAP1
000063:
000064: 04,6001           07363        KEYRUPTC           TC       KEYRUPT1                              #  STANDARD LOC, DONT MOVE
000065:
000066: 04,6002           06653        MODROUTB           TC       MODROUT                               #  STANDARD LOC, DONT MOVE
000067:
000068: 04,6003           06525        SVCT3              TC       SVCT3X                                #  STANDARD LOC.
000069:
000070: 04,6004           10216        FINDVAC2           CCS      VAC1USE                               #  C(VAC1USE) =  TC VAC1USE  IF VAC1 IS
000071: 04,6005           06020                           TC       FV1                                   #  AVAILABLE, OR +0 IF IT IS IN USE.
000072: 04,6006           10272                           CCS      VAC2USE
000073: 04,6007           06020                           TC       FV1                                   #  THE FIRST CCS WITH +0 JUMPS TO THE
000074: 04,6010           10346                           CCS      VAC3USE                               #    CORRESPONDING TC ORDER.
000075: 04,6011           06020                           TC       FV1
000076: 04,6012           10422                           CCS      VAC4USE
000077: 04,6013           06020                           TC       FV1
000078: 04,6014           10476                           CCS      VAC5USE
000079: 04,6015           06020                           TC       FV1
000080:
000081: 04,6016           03044                           TC       ABORT                                 #  NO VAC AREAS AVAILABLE.
000082: 04,6017           01201                           OCT      01201
000083:
000084: 04,6020           65503        FV1                AD       TWO                                   #  TO FORM ADDRESS OF ASSIGNED VAC AREA.
000085: 04,6021           50574                           TS       EXECTEM3
000086: 04,6022           60577                           AD       NEWPRIO                               #  )  STORE ADDRESS OF VAC1 IN LOW-ORDER
000087: 04,6023           50577                           TS       NEWPRIO                               #  )    9 BITS OF NEWPRIO.
000088:
000089: 04,6024           35501                           CAF      ZERO                                  #  )
000090: 04,6025           20574                           INDEX    EXECTEM3                              #  )  STORE +0 IN VAC1USE, INDICATING USE.
000091: 04,6026           47777                           TS       0          -1                         #  )
000092:
000093: 04,6027           36042        NOVAC2             CAF      LASTADR                               #  RELATIVE ADDRESS OF LAST REGISTER SET.
000094: 04,6030           50601                           TS       LOCCTR
000095: 04,6031           10000                           CCS      A
000096: 04,6032           06037                           TC       +5                                    #  PNZ AND -0 ONLY.
000097:
000098: 04,6033           40573        12BITSOK           CS       EXECTEM2                              #  COMES HERE IF JOB ADDRESS LESS THAN 6K.
000099: 04,6034           06067                           TC       LOCSET
000100:
000101: 04,6035           03044                           TC       ABORT                                 #  NO REGISTER SETS AVAILABLE.
000102: 04,6036           01202                           OCT      01202
000103:
000104: 04,6037           20601                 +5        INDEX    LOCCTR                                #  THIS LOOP FINDS THE FIRST AVAILABLE
000105: 04,6040           10124                           CCS      PRIORITY                              #    STORAGE AREA FOR CORE REGISTERS FOR
000106: 04,6041           06105                           TC       NOVAC3                                #  THE NEW JOB.
000107: 04,6042           00070        LASTADR            DEC      56         B-14                       #  EIGHT SETS OF EIGHT REGISTERS.
000108:                                                                                                  # # Page 100
000109: 04,6043           06105                           TC       NOVAC3                                #  NNZ MEANS JOB ASLEEP HERE.
000110:
000111:                                                                                                  # # Page 101
000112:
000113:                                                                                                  #        NOW THAT REGISTER SETS HAVE BEEN FOUND FOR THE NEW JOB, INITIALIZE THEM AND SET NEWJOB IF CALLED FOR.
000114:
000115: 04,6044           20601        CORSW              INDEX    LOCCTR                                #  (COMES HERE WITH C(A) = 0). TURN OFF OVF
000116: 04,6045           50122                           TS       OVFIND
000117:
000118: 04,6046           60577                           AD       NEWPRIO                               #  SET UP PRIORITY FOR NEW JOB.
000119: 04,6047           20601        JOBWAKE4           INDEX    LOCCTR                                #  JOB WAKING ENTERS HERE TO FINISH UP.
000120: 04,6050           50124                           TS       PRIORITY                              #  STORE NEW PRIORITY
000121: 04,6051           32261                           CAF      BANKMASK
000122: 04,6052           70573                           MASK     EXECTEM2
000123: 04,6053           60574                           AD       EXECTEM3                              #  PUSHLOC
000124: 04,6054           20601                           INDEX    LOCCTR
000125: 04,6055           50123                           TS       PUSHLOC
000126:
000127: 04,6056           36316                           CAF      EXEC70K                               #  CREATE PROPER 12 BIT ADDRESS.
000128: 04,6057           70573                           MASK     EXECTEM2                              #  SEE IF HIGH THREE BITS ZERO.
000129: 04,6060           10000                           CCS      A
000130: 04,6061           06063                           TC       +2                                    #  NEEDS SPECIAL TREATMENT IF C(A) NOT ZERO
000131: 04,6062           06033                           TC       12BITSOK
000132:
000133: 04,6063           30573                           XCH      EXECTEM2
000134: 04,6064           74606                           MASK     LOW10
000135: 04,6065           64373                           AD       6K
000136: 04,6066           40000                           COM
000137: 04,6067           20601        LOCSET             INDEX    LOCCTR
000138: 04,6070           50120                           TS       LOC
000139:
000140: 04,6071           20215                           INDEX    NEWJOB
000141: 04,6072           40124                           CS       PRIORITY                              #  TEST WHETHER NEW JOB HAS HIGHER
000142: 04,6073           60577                           AD       NEWPRIO                               #  PRIORITY THAN PREVIOUS HIGHEST
000143: 04,6074           10000                           CCS      A
000144: 04,6075           40601                           CS       LOCCTR                                #  NEW JOB HAS HIGHER PRIORITY.
000145: 04,6076           06102                           TC       NEWHIGH                               #  SET NEWJOB, LEAVING LOCCTR UNCHANGED.
000146:
000147: 04,6077           06100                           TC       +1                                    #  -0 IF PRIORITIES = AND BOTH ARE NOVACS.
000148: 04,6100           30572        NOWAKE2            XCH      EXECTEM1
000149: 04,6101           02076        ENDFIND            TC       FOUNDVAC
000150:
000151: 04,6102           40000        NEWHIGH            COM                                            #  SET NEWJOB AND RETURN TO CALLER.
000152: 04,6103           50215                           TS       NEWJOB
000153: 04,6104           06100                           TC       ENDFIND    -1
000154:
000155: 04,6105           44513        NOVAC3             CS       EIGHT                                 #  COMES HERE TO EXAMINE NEXT REGISTER SET.
000156: 04,6106           60601                           AD       LOCCTR
000157: 04,6107           06030                           TC       NOVAC2     +1
000158:
000159:                                                                                                  # # Page 102
000160:
000161:                                                                                                  #        THE  JOBWAKE  ROUTINE REACTIVES A SLEEPING JOB, SETTING IT TO BEGIN AT THE GIVEN WAKE ADDRESS.
000162:
000163: 04,6110           36042        JOBWAKE2           CAF      LASTADR                               #  BEGIN SEARCH FOR REGISTER SET CONTAINING
000164: 04,6111           50601                           TS       LOCCTR                                #  SLEEPING JOB. WAKE ADDRESS IS IN  LOC IN
000165: 04,6112           10000                           CCS      A                                     #  CADR FORM, AS PLACED THERE BY  JOBSLEEP.
000166: 04,6113           20601                           INDEX    LOCCTR                                #  PNZ AND -0 ONLY. SEE IF THIS JOB ASLEEP.
000167: 04,6114           10124                           CCS      PRIORITY                              #  THIS CCS CANT GO TO  TC NOWAKE  .
000168: 04,6115           06140                           TC       JOBWAKE3                              #  PNZ - ACTIVE JOB PRESENT. +0 IMPOSSIBLE.
000169:
000170: 04,6116           06143                           TC       NOWAKE                                #  ALARM - SLEEPING JOB NOT FOUND.
000171:
000172: 04,6117           06121                           TC       +2                                    #  INACTIVE JOB FOUND.
000173: 04,6120           06140                           TC       JOBWAKE3                              #  -0 - NOT IN USE.
000174:
000175: 04,6121           40573                 +2        CS       EXECTEM2                              #  SEE IF THIS IS THE DESIRED SLEEPING JOB.
000176: 04,6122           20601                           INDEX    LOCCTR
000177: 04,6123           60120                           AD       LOC
000178: 04,6124           10000                           CCS      A
000179: 04,6125           06140                           TC       JOBWAKE3                              #  SEARCH NEXT SET IF NOT AT END.
000180: 04,6126           03062                           TC       CCSHOLE
000181: 04,6127           06140                           TC       JOBWAKE3
000182:
000183: 04,6130           34606                           CAF      LOW10                                 #  SET UP EXECTEM3 AND PRIORITY SO WE CAN
000184: 04,6131           20601                           INDEX    LOCCTR                                #  FINISH AT STANDARD  CORSW  .
000185: 04,6132           70123                           MASK     PUSHLOC                               #  PROTECT PD SETTING.
000186: 04,6133           50574                           TS       EXECTEM3
000187:
000188: 04,6134           20601                           INDEX    LOCCTR                                #  RE-COMPLEMENT PRIORITY AND FINISH UP.
000189: 04,6135           40124                           CS       PRIORITY
000190: 04,6136           50577                           TS       NEWPRIO
000191: 04,6137           06047                           TC       JOBWAKE4
000192:
000193: 04,6140           44513        JOBWAKE3           CS       EIGHT                                 #  ADVANCE TO NEXT REGISTER SET.
000194: 04,6141           60601                           AD       LOCCTR
000195: 04,6142           06111                           TC       JOBWAKE2   +1
000196:
000197: 04,6143           50601        NOWAKE             TS       LOCCTR                                #  SET LOCCTR = +0 TO SHOW NO JOB WAS
000198: 04,6144           06100                           TC       NOWAKE2                               #   AWAKENED.
000199:
000200:                                                                                                  # # Page 103
000201:
000202:                                                                                                  #  A NEW JOB, OF HIGHER PRIORITY THAN THE PRESENT ONE, CAUSES THE RELA-
000203:                                                                                                  #  TIVE ADDRESS (9, 18, ..., 63) OF THE NEW JOB CORE REGISTERS TO BE
000204:                                                                                                  #  PLACED IN REGISTER  NEWJOB , WHERE IT IS TESTED BY THE INTERPRETER.
000205:                                                                                                  #  THE RESULTING BRANCH TO CHANJOB, BELOW, CAUSES A TRADE BETWEEN THE
000206:                                                                                                  #  CORE REGISTERS OF THE PRESENT AND NEW JOBS.
000207:
000208:    2101                                           SETLOC   FOUNDVAC   +3
000209:
000210:    2101           20017        CHANG1             INHINT                                         #  BASIC JOBS COME HERE WHEN C(NEWJOB)
000211:    2102           32075                           CAF      EXECBANK                              #  NON-ZERO. START BY CALLING IN EXECUTIVE
000212:    2103           30015                           XCH      BANKREG                               #  BANK AND SAVING RETURN BANK CODE.
000213:    2104           40000                           COM
000214:    2105           50061                           TS       BANKSET
000215:    2106           30123                           XCH      PUSHLOC                               #  BLANK OUT THE HIGH-ORDER 4 BITS IN
000216:    2107           74606                           MASK     LOW10                                 #  PUSHLOC SO THE BANK BITS CAN BE PACKED
000217:    2110           50123                           TS       PUSHLOC                               #  WITH IT
000218:    2111           40001                           CS       Q                                     #  FOR RETURN, SHOWING THIS WAS A BASIC JOB
000219:    2112           06145                           TC       CHANJOB                               #  OFF TO BANK 0
000220:
000221:    2113           10066        CHANG2             CCS      NEWEQIND                              #  INTERPRETIVE INTERRUPTS START HERE,
000222:    2114           00001                           TC       Q                                     #  PROVIDED THE LOAD INDICATOR ISNT ON
000223:
000224:    2115           20017                           INHINT
000225:    2116           32075                           CAF      EXECBANK                              #  CALL IN EXECUTIVE BANK.
000226:    2117           50015                           TS       BANKREG
000227:    2120           30120                           XCH      LOC
000228:    2121           06145                           TC       CHANJOB                               #  WITH C(A) PNZ, SHOWING WE WERE IN INTERP
000229:                                                                                                  #  RETER
000230:                                                                                                  # # Page 104
000231: 04,6145                                           SETLOC   NOWAKE     +2
000232: 04,6145           20215        CHANJOB            INDEX    NEWJOB                                #  TO BEGIN SWAP OF CORE REGISTERS
000233: 04,6146           30120                           XCH      LOC
000234: 04,6147           50120                           TS       LOC                                   #  SAVE PROPER 12 BIT ADDRESS
000235:
000236: 04,6150           30124                           XCH      PRIORITY
000237: 04,6151           20215                           INDEX    NEWJOB
000238: 04,6152           30124                           XCH      PRIORITY
000239: 04,6153           50124                           TS       PRIORITY
000240: 04,6154           74607                           MASK     LOW9                                  #  TO GET FIXLOC
000241: 04,6155           50067                           TS       FIXLOC
000242: 04,6156           64511                           AD       BIT6                                  #  SET UP VACLOC ( = FIXLOC + 32d )
000243: 04,6157           50070                           TS       VACLOC
000244:
000245: 04,6160           40061                           CS       BANKSET                               #  SAVE BANK
000246: 04,6161           60123                           AD       PUSHLOC                               #  AND PUSHLOC IN SAME WORD
000247: 04,6162           20215                           INDEX    NEWJOB
000248: 04,6163           30123                           XCH      PUSHLOC
000249: 04,6164           50123                           TS       PUSHLOC
000250: 04,6165           74606                           MASK     LOW10
000251: 04,6166           30123                           XCH      PUSHLOC
000252: 04,6167           40000                           COM
000253: 04,6170           60123                           AD       PUSHLOC                               #  WE NOW HAVE COMPLEMENT OF BANK BITS
000254: 04,6171           50061                           TS       BANKSET
000255:
000256: 04,6172           40121                           CS       ADRLOC                                #  SAVE MODE AND COMPLEMENT OF ADRLOC IN
000257: 04,6173           60000                           DOUBLE                                         #  SAME WORD. ADRLOC MUST BE SHIFTED 2
000258: 04,6174           60000                           DOUBLE                                         #  PLACES TO MAKE ROOM FOR MODE
000259: 04,6175           60065                           AD       MODE                                  #  -0, -1, OR -2
000260: 04,6176           20215                           INDEX    NEWJOB
000261: 04,6177           30121                           XCH      ADRLOC
000262: 04,6200           50021                           TS       SR
000263: 04,6201           74473                           MASK     THREE                                 #  SAVE LOW 2 BITS
000264: 04,6202           64341                           AD       NEG3                                  #  THIS RESULTS IN EITHER -0, -1, OR -2
000265: 04,6203           50065                           TS       MODE
000266: 04,6204           40021                           CS       SR
000267: 04,6205           40021                           CS       SR
000268: 04,6206           50121                           TS       ADRLOC
000269:
000270:                                                                                                  # # Page 105
000271: 04,6207           10122                           CCS      OVFIND                                #  SAVE C(ORDER) POSITIVE IF C(OVFIND) = 0
000272: 04,6210           06212                           TC       +2                                    #  AND NEGATIVE OTHERWISE
000273: 04,6211           06214                           TC       +3
000274: 04,6212           40063                           CS       ORDER
000275: 04,6213           06215                           TC       +2
000276: 04,6214           30063                           XCH      ORDER
000277: 04,6215           20215                           INDEX    NEWJOB
000278: 04,6216           30122                           XCH      OVFIND
000279: 04,6217           50063                           TS       ORDER
000280: 04,6220           10000                           CCS      A                                     #  DETERMINE NEW SETTING OF OVFIND
000281: 04,6221           35501                           CAF      ZERO                                  #  TO ZERO
000282: 04,6222           06226                           TC       OVFSET
000283: 04,6223           40063                           CS       ORDER                                 #  ORDER WAS NEGATIVE, MAKE IT POSITIVE
000284: 04,6224           50063                           TS       ORDER
000285: 04,6225           34516                           CAF      ONE                                   #  TO SET OVFIND
000286: 04,6226           50122        OVFSET             TS       OVFIND
000287:
000288: 04,6227           30115                           XCH      MPAC                                  #  TRADE C(MPAC TO MPAC+2)
000289: 04,6230           20215                           INDEX    NEWJOB
000290: 04,6231           30115                           XCH      MPAC
000291: 04,6232           50115                           TS       MPAC
000292: 04,6233           30116                           XCH      MPAC       +1
000293: 04,6234           20215                           INDEX    NEWJOB
000294: 04,6235           30116                           XCH      MPAC       +1
000295: 04,6236           50116                           TS       MPAC       +1
000296: 04,6237           30117                           XCH      MPAC       +2
000297: 04,6240           20215                           INDEX    NEWJOB
000298: 04,6241           30117                           XCH      MPAC       +2
000299: 04,6242           50117                           TS       MPAC       +2
000300:
000301: 04,6243           35501                           CAF      ZERO
000302: 04,6244           50066                           TS       NEWEQIND                              #  MAKE SURE LOAD INDICATOR OFF.
000303: 04,6245           50215        SETNJ              TS       NEWJOB
000304: 04,6246           20016                           RELINT                                         #  ENABLE INTERRUPT
000305: 04,6247           10120                           CCS      LOC                                   #  C(LOC) PNZ FOR INTERPRETIVE JOBS.
000306: 04,6250           35501                           CAF      ZERO
000307: 04,6251           04026                           TC       DANZIG     +2                         #  RETURN TO INTERPRETER
000308: 04,6252           64516                           AD       ONE                                   #  GET ABS(LOC) AND RETURN TO BASIC
000309: 04,6253           50062                           TS       ADDRWD
000310: 04,6254           40061                           CS       BANKSET                               #  GET DESIRED BANKBITS
000311: 04,6255           02122        ENDCHANG           TC       BASICALL
000312:
000313:    2122                                           SETLOC   CHANG2     +7D                        #  TAKE UP WHERE WE LEFT OFF IN FIXED-FIXED
000314:
000315:    2122           50015        BASICALL           TS       BANKREG
000316:    2123           00062                           TC       ADDRWD
000317:                                                                                                  # # Page 106
000318:
000319:    2124           32075        ENDOFJOB           CAF      EXECBANK                              #  NORMAL ENDJOB ENTRY.
000320:    2125           50015                           TS       BANKREG
000321:    2126           06256                           TC       ENDJOB1
000322:
000323:    2127           50120        JOBSLEEP           TS       LOC                                   #  ENTRY HERE TO DE-ACTIVATE THIS JOB.
000324:    2130           32075                           CAF      EXECBANK                              #  LOC IS SET TO THE AWAKENING ADDRESS
000325:    2131           50015                           TS       BANKREG                               #  SO THE SUBSEQUENT JOBWAKE CAN FIND
000326:    2132           06267                           TC       JOBSLP1                               #  THE PROPER REGISTER SET.
000327:
000328: 04,6256                                           SETLOC   ENDCHANG   +1
000329:
000330: 04,6256           20017        ENDJOB1            INHINT                                         #  INTERPRETIVE JOBS FINISH WITH RTB
000331: 04,6257           45501                           CS       ZERO                                  #  TO ENDJOB1
000332: 04,6260           50100                           TS       BUF        +1                         #  ENDJOB USES BUF, BUF +1, AND BUF +2.
000333: 04,6261           30124                           XCH      PRIORITY
000334: 04,6262           74607                           MASK     LOW9                                  #  RESTORE AVAILABILITY OF VAC1 BY SETTING
000335: 04,6263           10000                           CCS      A                                     #  C(VAC1USE) NON-ZERO
000336: 04,6264           20000                           INDEX    A
000337: 04,6265           50000                           TS       0
000338:
000339: 04,6266           06274                           TC       EJSCAN                                #  ENDJOB NEED NOT EXAMINE FIRST REG. SET.
000340:
000341: 04,6267           20017        JOBSLP1            INHINT                                         #  FINISH JOB SLEEP AND START ENDJOB-TYPE
000342: 04,6270           40124                           CS       PRIORITY                              #  SCAN. COMPLEMENTED PRIORITY REGISTER
000343: 04,6271           50124                           TS       PRIORITY                              #  SHOWS JOB IS ASLEEP.
000344: 04,6272           45501                           CS       ZERO                                  #  INITIALIZE SEARCH FOR HIGHEST PRIORITY.
000345: 04,6273           50100                           TS       BUF        +1
000346:
000347:                                                                                                  # # Page 107
000348:
000349:                                                                                                  #        SCAN FOR THE ACTIVE JOB OF HIGHEST PRIORITY.
000350:
000351: 04,6274           10134        EJSCAN             CCS      PRIORITY   +8D                        #  EACH PRIORITY REGISTER (PRIORITY +8N)
000352: 04,6275           06341                           TC       EJ1                                   #  IS SCANNED. ITS CONTENTS ARE EITHER
000353: 04,6276           03062                           TC       CCSHOLE
000354: 04,6277           06300                           TC       +1                                    #     2. NNZ - AN INACTIVE PRIORITY NUMBER.
000355:
000356: 04,6300           10144                           CCS      PRIORITY   +16D                       #  OR 3. -0 - NOT IN USE.
000357: 04,6301           06341                           TC       EJ1                                   #  IF PNZ, CONTROL IS TRANSFERRED TO EJ1
000358: 04,6302           03062                           TC       CCSHOLE
000359: 04,6303           06304                           TC       +1                                    #  PARED WITH THE PREVIOUS HIGHEST
000360:
000361: 04,6304           10154                           CCS      PRIORITY   +24D                       #  PRIORITY FOUND. THE CONTENTS OF Q
000362: 04,6305           06341                           TC       EJ1                                   #  SERVE TO LOCATE THE CCS WHICH WAS
000363: 04,6306           03062                           TC       CCSHOLE
000364: 04,6307           06310                           TC       +1                                    #  NEWJOB IS SET TO THE RELATIVE ADDRESS
000365:
000366: 04,6310           10164                           CCS      PRIORITY   +32D                       #  OF THE REGISTER SET WITH THE HIGHTEST
000367: 04,6311           06341                           TC       EJ1                                   #  ACTIVE PRIORITY AT THE END OF THE SCAN.
000368: 04,6312           03062                           TC       CCSHOLE
000369: 04,6313           06314                           TC       +1
000370:
000371: 04,6314           10174                           CCS      PRIORITY   +40D
000372: 04,6315           06341                           TC       EJ1
000373: 04,6316           70000        EXEC70K            OCT      70000
000374: 04,6317           06320                           TC       +1
000375:
000376: 04,6320           10204                           CCS      PRIORITY   +48D
000377: 04,6321           06341                           TC       EJ1
000378: 04,6322           67653        -CCSPR            -CCS      PRIORITY
000379: 04,6323           06324                           TC       +1
000380:
000381: 04,6324           10214                           CCS      PRIORITY   +56D
000382: 04,6325           06341                           TC       EJ1
000383: 04,6326           03062                           TC       CCSHOLE
000384: 04,6327           06330                           TC       +1
000385:                                                                                                  # # Page 108
000386: 04,6330           10077                           CCS      BUF                                   #  IF BUF = 0, THE SCAN WAS PART OF
000387: 04,6331           06333                           TC       +2                                    #  A PRIORITY CHANGE IN WHICH THE NEW
000388: 04,6332           06245                           TC       SETNJ                                 #  PRIORITY IS HIGHEST. GO SET NEWJOB = 0.
000389:
000390: 04,6333           20000                           INDEX    A                                     #  PICK UP CCS INSTRUCTION TO GET NEWJOB
000391: 04,6334           27777                           CAF      0          -1                         #  SELECT CCS INSTRUCTION.
000392: 04,6335           66322                           AD       -CCSPR
000393: 04,6336           50215                           TS       NEWJOB                                #  RELATIVE ADDRESS ONLY.
000394: 04,6337           30120                           XCH      LOC                                   #  (NO MEANING FOR ENDOFJOB).
000395: 04,6340           06145                           TC       CHANJOB
000396:
000397:
000398:
000399: 04,6341           50101        EJ1                TS       BUF        +2                         #  STORE NEW PRIORITY
000400: 04,6342           60100                           AD       BUF        +1                         #  - OLD PRIORITY
000401: 04,6343           10000                           CCS      A
000402: 04,6344           30001                           XCH      Q                                     #  IF NEW PRIORITY IS LARGER
000403: 04,6345           06351                           TC       EJ2
000404: 04,6346           30000                           NOOP                                           #  IF OLD PRIORITY IS LARGER
000405: 04,6347           20001                           INDEX    Q                                     #    OR EQUAL
000406: 04,6350           00002                           TC       2
000407:
000408: 04,6351           50077        EJ2                TS       BUF                                   #  SAVE C(Q) TO LOCATE HIGHEST PRIORITY
000409: 04,6352           40101                           CS       BUF        +2                         #    JOB AT END OF SCAN.
000410: 04,6353           50100                           TS       BUF        +1
000411: 04,6354           20077                           INDEX    BUF
000412: 04,6355           00002                           TC       2
000413:
000414:                                                                                                  # # Page 109
000415:
000416:                                                                                                  #        THE FOLLOWING ROUTINE IS AVAILABLE TO CHANGE THE PRIORITY OF A JOB WHILE IT IS RUNNING UNDER EXECUTIVE
000417:                                                                                                  #  CONTROL (IE, IN CORE SET 0). CALLING SEQUENCE IS AS FOLLOWS (NO INHINT NECESSARY):
000418:
000419:                                                                                                  #                CAF     NEWPRIO         PRIORITY IN BITS 10-14 - ZERO ELSEWHERE.
000420:                                                                                                  #        L       TC      PRIOCHNG
000421:
000422:                                                                                                  #  RETURN IS TO L+1 IMMEDIATELY UNLESS A JOB OF STILL HIGHER PRIORITY IS PRESENT, IN WHICH CASE IT GOES TO CHANJOB
000423:                                                                                                  #  BEFORE RETURNING.
000424:
000425:
000426:
000427:    2133                                           SETLOC   JOBSLEEP   +4
000428:
000429:    2133           20017        PRIOCHNG           INHINT                                         #  PREPARE Q, BANK, AND PUSHLOC (ALA
000430:    2134           50577                           TS       NEWPRIO                               #  CHANG1) IN CASE WE HAVE TO CHANGE JOBS.
000431:    2135           40001                           CS       Q
000432:    2136           50120                           TS       LOC
000433:    2137           32075                           CAF      EXECBANK
000434:    2140           30015                           XCH      BANKREG
000435:    2141           06356                           TC       PRIOCH2                               #  OFF TO EXECUTIVE BANK.
000436:
000437: 04,6356                                           SETLOC   EJ2        +5
000438:
000439: 04,6356           40000        PRIOCH2            COM
000440: 04,6357           50061                           TS       BANKSET
000441: 04,6360           30123                           XCH      PUSHLOC
000442: 04,6361           74606                           MASK     LOW10
000443: 04,6362           50123                           TS       PUSHLOC
000444:
000445: 04,6363           34607                           CAF      LOW9                                  #  MAKE UP NEW PRIORITY WORD, LEAVING
000446: 04,6364           70124                           MASK     PRIORITY                              #  POSSIBLE VAC ADDRESS INTACT.
000447: 04,6365           60577                           AD       NEWPRIO
000448: 04,6366           50124                           TS       PRIORITY
000449: 04,6367           40000                           COM                                            #  INITIALIZE BUF +1 TO - THIS PRIORITY FOR
000450: 04,6370           50100                           TS       BUF        +1                         #  SEARCH FOR HIGHEST PRIORITY.
000451:
000452: 04,6371           35501                           CAF      ZERO                                  #  SET BUF TO ZERO AS A FLAG FOR END OF
000453: 04,6372           50077                           TS       BUF                                   #  SCAN.
000454: 04,6373           06274                           TC       EJSCAN                                #  SCAN FOR HIGHEST PRIORITY.
000455:
000456:                                                                                                  # # Page 110
000457:
000458:                                                                                                  #  LIST OF PROGRAM PRIORITIES
000459:
000460:    2142                                           SETLOC   PRIOCHNG   +7
000461:
000462:    2142     4505               PRIO1              EQUALS   BIT10
000463:    2142     4504               PRIO2              EQUALS   BIT11
000464:    2142           03000        PRIO3              OCT      03000
000465:    2143     4503               PRIO4              EQUALS   BIT12
000466:    2143           05000        PRIO5              OCT      05000
000467:    2144     2143               OCT05000           EQUALS   PRIO5
000468:    2144     4373               PRIO6              EQUALS   6K
000469:    2144           07000        PRIO7              OCT      07000
000470:    2145     4502               PRIO10             EQUALS   BIT13
000471:    2145           11000        PRIO11             OCT      11000
000472:    2146           12000        PRIO12             OCT      12000
000473:    2147           13000        PRIO13             OCT      13000
000474:    2150           14000        PRIO14             OCT      14000
000475:    2151           15000        PRIO15             OCT      15000
000476:    2152           16000        PRIO16             OCT      16000
000477:    2153           17000        PRIO17             OCT      17000
000478:    2154     4501               PRIO20             EQUALS   BIT14
000479:    2154           21000        PRIO21             OCT      21000
000480:    2155           22000        PRIO22             OCT      22000
000481:    2156           23000        PRIO23             OCT      23000
000482:    2157           24000        PRIO24             OCT      24000
000483:    2160           25000        PRIO25             OCT      25000
000484:    2161           26000        PRIO26             OCT      26000
000485:    2162           27000        PRIO27             OCT      27000
000486:    2163           30000        PRIO30             OCT      30000
000487:    2164           31000        PRIO31             OCT      31000
000488:    2165           32000        PRIO32             OCT      32000
000489:    2166           33000        PRIO33             OCT      33000
000490:    2167           34000        PRIO34             OCT      34000
000491:    2170           35000        PRIO35             OCT      35000
000492:    2171           36000        PRIO36             OCT      36000
000493:    2172           37000        PRIO37             OCT      37000

End of include-file EXECUTIVE.agc.  Parent file is MAIN.agc


