
Source Code


000002:                                                                                                  ## Copyright:   Public domain.
000003:                                                                                                  ## Filename:    EXECUTIVE.agc
000004:                                                                                                  ## Purpose:     Part of the source code for Solarium build 55. This
000005:                                                                                                  ##              is for the Command Module's (CM) Apollo Guidance
000006:                                                                                                  ##              Computer (AGC), for Apollo 6.
000007:                                                                                                  ## Assembler:   yaYUL --block1
000008:                                                                                                  ## Contact:     Jim Lawton <jim DOT lawton AT gmail DOT com>
000009:                                                                                                  ## Website:     www.ibiblio.org/apollo/index.html
000010:                                                                                                  ## Page Scans:  www.ibiblio.org/apollo/ScansForConversion/Solarium055/
000011:                                                                                                  ## Mod history: 2009-09-19 JL   Created.
000012:                                                                                                  ##              2016-08-18 RSB  Some fixes.
000013:                                                                                                  ##              2016-12-28 RSB  Proofed comment text using octopus/ProoferComments,
000014:                                                                                                  ##                              and fixed errors found.
000015:


000017:
000018:                                                                                                  #  EXECUTIVE PROGRAMS
000019:                                                                                                  #  --------- --------
000020:
000021:
000022:
000023:    2046                                           BANK     1
000024:    2046           50577        FINDVAC            TS       NEWPRIO                               #  PROGRAM TO FIND AN AVAILABLE VAC
000025:    2047           30001                           XCH      Q
000026:    2050           02065                           TC       EXECCOM                               #  COMMON FF EXECUTIVE SUBROUTINE.
000027:    2051           06004                           TC       FINDVAC2                              #  OFF TO EXECUTIVE BANK.
000028:
000029:    2052           50577        NOVAC              TS       NEWPRIO                               #  ENTRY EXCLUSIVELY FOR BASIC JOBS NOT
000030:    2053           30001                           XCH      Q                                     #  REQUIRING A VAC AREA.
000031:    2054           02065                           TC       EXECCOM                               #  COMMON FF EXECUTIVE SUBROUTINE.
000032:    2055           35501                           CAF      ZERO                                  #  ZERO PD FIELD IN PUSHLOC.
000033:    2056           50574                           TS       EXECTEM3
000034:    2057           06027                           TC       NOVAC2
000035:
000036:    2060           50573        JOBWAKE            TS       EXECTEM2                              #  ENTRY HERE TO RE-ACTIVATE A SLEEPING JOB
000037:    2061           10001                           CCS      Q                                     #  RETURN ADDRESS - 1 TO WTEXIT.
000038:    2062           50600                           TS       WTEXIT                                #  SHARES FINAL PORTION OF FINDVAC, NOVAC.
000039:    2063           02071                           TC       EXECSW                                #  COMMON EXEC BANK-SWITCH SUBROUTINE.
000040:    2064           06110                           TC       JOBWAKE2
000041:
000042:    2065           50600        EXECCOM            TS       WTEXIT                                #  EXIT ADDRESS
000043:    2066           20000                           INDEX    A                                     #  PICK UP JOB OR TASK ADDRESS.
000044:    2067           30000                           CAF      0                                     #    (USED BY FINDVAC, NOVAC, AND WAITLIST)
000045:    2070           50573                           TS       EXECTEM2
000046:
000047:    2071           32075        EXECSW             CAF      EXECBANK
000048:    2072           30015                           XCH      BANKREG                               #  CALL IN EXEC BANK, SAVING RETURN.
000049:    2073           50572                           TS       EXECTEM1
000050:    2074           00001                           TC       Q
000051:
000052:    2075           10004        EXECBANK           CADR     FINDVAC2
000053:
000054:    2076           50015        FOUNDVAC           TS       BANKREG                               #  COMES HERE TO RETURN FROM FINDVAC,
000055:    2077           20600                           INDEX    WTEXIT                                #  NOVAC, OR JOBWAKE.
000056:    2100           00001                           TC       1
000057:


000059:
000060:                                                                                                  #                CALLS TO FINDVAC BEGIN HERE, SNATCHING AN AVAILABLE VAC AREA.
000061:
000062: 04,6000                                           SETLOC   10000                                 #  EXEC/WAITLIST BANK.
000063:
000064: 04,6000           06705        SLAPB              TC       SLAP1
000065:
000066: 04,6001           07363        KEYRUPTC           TC       KEYRUPT1                              #  STANDARD LOC, DONT MOVE
000067:
000068: 04,6002           06653        MODROUTB           TC       MODROUT                               #  STANDARD LOC, DONT MOVE
000069:
000070: 04,6003           06525        SVCT3              TC       SVCT3X                                #  STANDARD LOC.
000071:
000072: 04,6004           10216        FINDVAC2           CCS      VAC1USE                               #  C(VAC1USE) =  TC VAC1USE  IF VAC1 IS
000073: 04,6005           06020                           TC       FV1                                   #  AVAILABLE, OR +0 IF IT IS IN USE.
000074: 04,6006           10272                           CCS      VAC2USE
000075: 04,6007           06020                           TC       FV1                                   #  THE FIRST CCS WITH +0 JUMPS TO THE
000076: 04,6010           10346                           CCS      VAC3USE                               #    CORRESPONDING TC ORDER.
000077: 04,6011           06020                           TC       FV1
000078: 04,6012           10422                           CCS      VAC4USE
000079: 04,6013           06020                           TC       FV1
000080: 04,6014           10476                           CCS      VAC5USE
000081: 04,6015           06020                           TC       FV1
000082:
000083: 04,6016           03044                           TC       ABORT                                 #  NO VAC AREAS AVAILABLE.
000084: 04,6017           01201                           OCT      01201
000085:
000086: 04,6020           65503        FV1                AD       TWO                                   #  TO FORM ADDRESS OF ASSIGNED VAC AREA.
000087: 04,6021           50574                           TS       EXECTEM3
000088: 04,6022           60577                           AD       NEWPRIO                               #  )  STORE ADDRESS OF VAC1 IN LOW-ORDER
000089: 04,6023           50577                           TS       NEWPRIO                               #  )    9 BITS OF NEWPRIO.
000090:
000091: 04,6024           35501                           CAF      ZERO                                  #  )
000092: 04,6025           20574                           INDEX    EXECTEM3                              #  )  STORE +0 IN VAC1USE, INDICATING USE.
000093: 04,6026           47777                           TS       0          -1                         #  )
000094:
000095: 04,6027           36042        NOVAC2             CAF      LASTADR                               #  RELATIVE ADDRESS OF LAST REGISTER SET.
000096: 04,6030           50601                           TS       LOCCTR
000097: 04,6031           10000                           CCS      A
000098: 04,6032           06037                           TC       +5                                    #  PNZ AND -0 ONLY.
000099:
000100: 04,6033           40573        12BITSOK           CS       EXECTEM2                              #  COMES HERE IF JOB ADDRESS LESS THAN 6K.
000101: 04,6034           06067                           TC       LOCSET
000102:
000103: 04,6035           03044                           TC       ABORT                                 #  NO REGISTER SETS AVAILABLE.
000104: 04,6036           01202                           OCT      01202
000105:
000106: 04,6037           20601                 +5        INDEX    LOCCTR                                #  THIS LOOP FINDS THE FIRST AVAILABLE
000107: 04,6040           10124                           CCS      PRIORITY                              #    STORAGE AREA FOR CORE REGISTERS FOR
000108: 04,6041           06105                           TC       NOVAC3                                #  THE NEW JOB.
000109: 04,6042           00070        LASTADR            DEC      56         B-14                       #  EIGHT SETS OF EIGHT REGISTERS.


000111: 04,6043           06105                           TC       NOVAC3                                #  NNZ MEANS JOB ASLEEP HERE.
000112:


000114:
000115:                                                                                                  #        NOW THAT REGISTER SETS HAVE BEEN FOUND FOR THE NEW JOB, INITIALIZE THEM AND SET NEWJOB IF CALLED FOR.
000116:
000117: 04,6044           20601        CORSW              INDEX    LOCCTR                                #  (COMES HERE WITH C(A) = 0). TURN OFF OVF
000118: 04,6045           50122                           TS       OVFIND
000119:
000120: 04,6046           60577                           AD       NEWPRIO                               #  SET UP PRIORITY FOR NEW JOB.
000121: 04,6047           20601        JOBWAKE4           INDEX    LOCCTR                                #  JOB WAKING ENTERS HERE TO FINISH UP.
000122: 04,6050           50124                           TS       PRIORITY                              #  STORE NEW PRIORITY
000123: 04,6051           32261                           CAF      BANKMASK
000124: 04,6052           70573                           MASK     EXECTEM2
000125: 04,6053           60574                           AD       EXECTEM3                              #  PUSHLOC
000126: 04,6054           20601                           INDEX    LOCCTR
000127: 04,6055           50123                           TS       PUSHLOC
000128:
000129: 04,6056           36316                           CAF      EXEC70K                               #  CREATE PROPER 12 BIT ADDRESS.
000130: 04,6057           70573                           MASK     EXECTEM2                              #  SEE IF HIGH THREE BITS ZERO.
000131: 04,6060           10000                           CCS      A
000132: 04,6061           06063                           TC       +2                                    #  NEEDS SPECIAL TREATMENT IF C(A) NOT ZERO
000133: 04,6062           06033                           TC       12BITSOK
000134:
000135: 04,6063           30573                           XCH      EXECTEM2
000136: 04,6064           74606                           MASK     LOW10
000137: 04,6065           64373                           AD       6K
000138: 04,6066           40000                           COM
000139: 04,6067           20601        LOCSET             INDEX    LOCCTR
000140: 04,6070           50120                           TS       LOC
000141:
000142: 04,6071           20215                           INDEX    NEWJOB
000143: 04,6072           40124                           CS       PRIORITY                              #  TEST WHETHER NEW JOB HAS HIGHER
000144: 04,6073           60577                           AD       NEWPRIO                               #  PRIORITY THAN PREVIOUS HIGHEST
000145: 04,6074           10000                           CCS      A
000146: 04,6075           40601                           CS       LOCCTR                                #  NEW JOB HAS HIGHER PRIORITY.
000147: 04,6076           06102                           TC       NEWHIGH                               #  SET NEWJOB, LEAVING LOCCTR UNCHANGED.
000148:
000149: 04,6077           06100                           TC       +1                                    #  -0 IF PRIORITIES = AND BOTH ARE NOVACS.
000150: 04,6100           30572        NOWAKE2            XCH      EXECTEM1
000151: 04,6101           02076        ENDFIND            TC       FOUNDVAC
000152:
000153: 04,6102           40000        NEWHIGH            COM                                            #  SET NEWJOB AND RETURN TO CALLER.
000154: 04,6103           50215                           TS       NEWJOB
000155: 04,6104           06100                           TC       ENDFIND    -1
000156:
000157: 04,6105           44513        NOVAC3             CS       EIGHT                                 #  COMES HERE TO EXAMINE NEXT REGISTER SET.
000158: 04,6106           60601                           AD       LOCCTR
000159: 04,6107           06030                           TC       NOVAC2     +1
000160:


000162:
000163:                                                                                                  #        THE  JOBWAKE  ROUTINE REACTIVES A SLEEPING JOB, SETTING IT TO BEGIN AT THE GIVEN WAKE ADDRESS.
000164:
000165: 04,6110           36042        JOBWAKE2           CAF      LASTADR                               #  BEGIN SEARCH FOR REGISTER SET CONTAINING
000166: 04,6111           50601                           TS       LOCCTR                                #  SLEEPING JOB. WAKE ADDRESS IS IN  LOC IN
000167: 04,6112           10000                           CCS      A                                     #  CADR FORM, AS PLACED THERE BY  JOBSLEEP.
000168: 04,6113           20601                           INDEX    LOCCTR                                #  PNZ AND -0 ONLY. SEE IF THIS JOB ASLEEP.
000169: 04,6114           10124                           CCS      PRIORITY                              #  THIS CCS CANT GO TO  TC NOWAKE  .
000170: 04,6115           06140                           TC       JOBWAKE3                              #  PNZ - ACTIVE JOB PRESENT. +0 IMPOSSIBLE.
000171:
000172: 04,6116           06143                           TC       NOWAKE                                #  ALARM - SLEEPING JOB NOT FOUND.
000173:
000174: 04,6117           06121                           TC       +2                                    #  INACTIVE JOB FOUND.
000175: 04,6120           06140                           TC       JOBWAKE3                              #  -0 - NOT IN USE.
000176:
000177: 04,6121           40573                 +2        CS       EXECTEM2                              #  SEE IF THIS IS THE DESIRED SLEEPING JOB.
000178: 04,6122           20601                           INDEX    LOCCTR
000179: 04,6123           60120                           AD       LOC
000180: 04,6124           10000                           CCS      A
000181: 04,6125           06140                           TC       JOBWAKE3                              #  SEARCH NEXT SET IF NOT AT END.
000182: 04,6126           03062                           TC       CCSHOLE
000183: 04,6127           06140                           TC       JOBWAKE3
000184:
000185: 04,6130           34606                           CAF      LOW10                                 #  SET UP EXECTEM3 AND PRIORITY SO WE CAN
000186: 04,6131           20601                           INDEX    LOCCTR                                #  FINISH AT STANDARD  CORSW  .
000187: 04,6132           70123                           MASK     PUSHLOC                               #  PROTECT PD SETTING.
000188: 04,6133           50574                           TS       EXECTEM3
000189:
000190: 04,6134           20601                           INDEX    LOCCTR                                #  RE-COMPLEMENT PRIORITY AND FINISH UP.
000191: 04,6135           40124                           CS       PRIORITY
000192: 04,6136           50577                           TS       NEWPRIO
000193: 04,6137           06047                           TC       JOBWAKE4
000194:
000195: 04,6140           44513        JOBWAKE3           CS       EIGHT                                 #  ADVANCE TO NEXT REGISTER SET.
000196: 04,6141           60601                           AD       LOCCTR
000197: 04,6142           06111                           TC       JOBWAKE2   +1
000198:
000199: 04,6143           50601        NOWAKE             TS       LOCCTR                                #  SET LOCCTR = +0 TO SHOW NO JOB WAS
000200: 04,6144           06100                           TC       NOWAKE2                               #   AWAKENED.
000201:


000203:
000204:                                                                                                  #  A NEW JOB, OF HIGHER PRIORITY THAN THE PRESENT ONE, CAUSES THE RELA-
000205:                                                                                                  #  TIVE ADDRESS (9, 18, ..., 63) OF THE NEW JOB CORE REGISTERS TO BE
000206:                                                                                                  #  PLACED IN REGISTER  NEWJOB , WHERE IT IS TESTED BY THE INTERPRETER.
000207:                                                                                                  #  THE RESULTING BRANCH TO CHANJOB, BELOW, CAUSES A TRADE BETWEEN THE
000208:                                                                                                  #  CORE REGISTERS OF THE PRESENT AND NEW JOBS.
000209:
000210:    2101                                           SETLOC   FOUNDVAC   +3
000211:
000212:    2101           20017        CHANG1             INHINT                                         #  BASIC JOBS COME HERE WHEN C(NEWJOB)
000213:    2102           32075                           CAF      EXECBANK                              #  NON-ZERO. START BY CALLING IN EXECUTIVE
000214:    2103           30015                           XCH      BANKREG                               #  BANK AND SAVING RETURN BANK CODE.
000215:    2104           40000                           COM
000216:    2105           50061                           TS       BANKSET
000217:    2106           30123                           XCH      PUSHLOC                               #  BLANK OUT THE HIGH-ORDER 4 BITS IN
000218:    2107           74606                           MASK     LOW10                                 #  PUSHLOC SO THE BANK BITS CAN BE PACKED
000219:    2110           50123                           TS       PUSHLOC                               #  WITH IT
000220:    2111           40001                           CS       Q                                     #  FOR RETURN, SHOWING THIS WAS A BASIC JOB
000221:    2112           06145                           TC       CHANJOB                               #  OFF TO BANK 0
000222:
000223:    2113           10066        CHANG2             CCS      NEWEQIND                              #  INTERPRETIVE INTERRUPTS START HERE,
000224:    2114           00001                           TC       Q                                     #  PROVIDED THE LOAD INDICATOR ISNT ON
000225:
000226:    2115           20017                           INHINT
000227:    2116           32075                           CAF      EXECBANK                              #  CALL IN EXECUTIVE BANK.
000228:    2117           50015                           TS       BANKREG
000229:    2120           30120                           XCH      LOC
000230:    2121           06145                           TC       CHANJOB                               #  WITH C(A) PNZ, SHOWING WE WERE IN INTERP
000231:                                                                                                  #  RETER


000233: 04,6145                                           SETLOC   NOWAKE     +2
000234: 04,6145           20215        CHANJOB            INDEX    NEWJOB                                #  TO BEGIN SWAP OF CORE REGISTERS
000235: 04,6146           30120                           XCH      LOC
000236: 04,6147           50120                           TS       LOC                                   #  SAVE PROPER 12 BIT ADDRESS
000237:
000238: 04,6150           30124                           XCH      PRIORITY
000239: 04,6151           20215                           INDEX    NEWJOB
000240: 04,6152           30124                           XCH      PRIORITY
000241: 04,6153           50124                           TS       PRIORITY
000242: 04,6154           74607                           MASK     LOW9                                  #  TO GET FIXLOC
000243: 04,6155           50067                           TS       FIXLOC
000244: 04,6156           64511                           AD       BIT6                                  #  SET UP VACLOC ( = FIXLOC + 32D )
000245: 04,6157           50070                           TS       VACLOC
000246:
000247: 04,6160           40061                           CS       BANKSET                               #  SAVE BANK
000248: 04,6161           60123                           AD       PUSHLOC                               #  AND PUSHLOC IN SAME WORD
000249: 04,6162           20215                           INDEX    NEWJOB
000250: 04,6163           30123                           XCH      PUSHLOC
000251: 04,6164           50123                           TS       PUSHLOC
000252: 04,6165           74606                           MASK     LOW10
000253: 04,6166           30123                           XCH      PUSHLOC
000254: 04,6167           40000                           COM
000255: 04,6170           60123                           AD       PUSHLOC                               #  WE NOW HAVE COMPLEMNT OF BANK BITS
000256: 04,6171           50061                           TS       BANKSET
000257:
000258: 04,6172           40121                           CS       ADRLOC                                #  SAVE MODE AND COMPLEMENT OF ADRLOC IN
000259: 04,6173           60000                           DOUBLE                                         #  SAME WORD. ADRLOC MUST BE SHIFTED 2
000260: 04,6174           60000                           DOUBLE                                         #  PLACES TO MAKE ROOM FOR MODE
000261: 04,6175           60065                           AD       MODE                                  #  -0, -1, OR -2
000262: 04,6176           20215                           INDEX    NEWJOB
000263: 04,6177           30121                           XCH      ADRLOC
000264: 04,6200           50021                           TS       SR
000265: 04,6201           74473                           MASK     THREE                                 #  SAVE LOW 2 BITS
000266: 04,6202           64341                           AD       NEG3                                  #  THIS RESULTS IN EITHER -0, -1, OR -2
000267: 04,6203           50065                           TS       MODE
000268: 04,6204           40021                           CS       SR
000269: 04,6205           40021                           CS       SR
000270: 04,6206           50121                           TS       ADRLOC
000271:


000273: 04,6207           10122                           CCS      OVFIND                                #  SAVE C(ORDER) POSITIVE IF C(OVFIND) = 0
000274: 04,6210           06212                           TC       +2                                    #  AND NEGATIVE OTHERWISE
000275: 04,6211           06214                           TC       +3
000276: 04,6212           40063                           CS       ORDER
000277: 04,6213           06215                           TC       +2
000278: 04,6214           30063                           XCH      ORDER
000279: 04,6215           20215                           INDEX    NEWJOB
000280: 04,6216           30122                           XCH      OVFIND
000281: 04,6217           50063                           TS       ORDER
000282: 04,6220           10000                           CCS      A                                     #  DETERMINE NEW SETTING OF OVFIND
000283: 04,6221           35501                           CAF      ZERO                                  #  TO ZERO
000284: 04,6222           06226                           TC       OVFSET
000285: 04,6223           40063                           CS       ORDER                                 #  ORDER WAS NEGATIVE, MAKE IT POSITIVE
000286: 04,6224           50063                           TS       ORDER
000287: 04,6225           34516                           CAF      ONE                                   #  TO SET OVFIND
000288: 04,6226           50122        OVFSET             TS       OVFIND
000289:
000290: 04,6227           30115                           XCH      MPAC                                  #  TRADE C(MPAC TO MPAC+2)
000291: 04,6230           20215                           INDEX    NEWJOB
000292: 04,6231           30115                           XCH      MPAC
000293: 04,6232           50115                           TS       MPAC
000294: 04,6233           30116                           XCH      MPAC       +1
000295: 04,6234           20215                           INDEX    NEWJOB
000296: 04,6235           30116                           XCH      MPAC       +1
000297: 04,6236           50116                           TS       MPAC       +1
000298: 04,6237           30117                           XCH      MPAC       +2
000299: 04,6240           20215                           INDEX    NEWJOB
000300: 04,6241           30117                           XCH      MPAC       +2
000301: 04,6242           50117                           TS       MPAC       +2
000302:
000303: 04,6243           35501                           CAF      ZERO
000304: 04,6244           50066                           TS       NEWEQIND                              #  MAKE SURE LOAD INDICATOR OFF.
000305: 04,6245           50215        SETNJ              TS       NEWJOB
000306: 04,6246           20016                           RELINT                                         #  ENABLE INTERRUPT
000307: 04,6247           10120                           CCS      LOC                                   #  C(LOC) PNZ FOR INTERPRETIVE JOBS.
000308: 04,6250           35501                           CAF      ZERO
000309: 04,6251           04026                           TC       DANZIG     +2                         #  RETURN TO INTERPRETER
000310: 04,6252           64516                           AD       ONE                                   #  GET ABS(LOC) AND RETURN TO BASIC
000311: 04,6253           50062                           TS       ADDRWD
000312: 04,6254           40061                           CS       BANKSET                               #  GET DESIRED BANKBITS
000313: 04,6255           02122        ENDCHANG           TC       BASICALL
000314:
000315:    2122                                           SETLOC   CHANG2     +7D                        #  TAKE UP WHERE WE LEFT OFF IN FIXED-FIXED
000316:
000317:    2122           50015        BASICALL           TS       BANKREG
000318:    2123           00062                           TC       ADDRWD


000320:
000321:    2124           32075        ENDOFJOB           CAF      EXECBANK                              #  NORMAL ENDJOB ENTRY.
000322:    2125           50015                           TS       BANKREG
000323:    2126           06256                           TC       ENDJOB1
000324:
000325:    2127           50120        JOBSLEEP           TS       LOC                                   #  ENTRY HERE TO DE-ACTIVE THIS JOB.
000326:    2130           32075                           CAF      EXECBANK                              #  LOC IS SET TO THE AWAKENING ADDRESS
000327:    2131           50015                           TS       BANKREG                               #  SO THE SUBSEQUENT JOBWAKE CAN FIND
000328:    2132           06267                           TC       JOBSLP1                               #  THE PROPER REGISTER SET.
000329:
000330: 04,6256                                           SETLOC   ENDCHANG   +1
000331:
000332: 04,6256           20017        ENDJOB1            INHINT                                         #  INTERPRETIVE JOBS FINISH WITH RTB
000333: 04,6257           45501                           CS       ZERO                                  #  TO ENDJOB1
000334: 04,6260           50100                           TS       BUF        +1                         #  ENDJOB USES BUF, BUF +1, AND BUF +2.
000335: 04,6261           30124                           XCH      PRIORITY
000336: 04,6262           74607                           MASK     LOW9                                  #  RESTORE AVAILABILITY OF VAC1 BY SETTING
000337: 04,6263           10000                           CCS      A                                     #  C(VAC1USE) NON-ZERO
000338: 04,6264           20000                           INDEX    A
000339: 04,6265           50000                           TS       0
000340:
000341: 04,6266           06274                           TC       EJSCAN                                #  ENDJOB NEED NOT EXAMINE FIRST REG. SET.
000342:
000343: 04,6267           20017        JOBSLP1            INHINT                                         #  FINISH JOB SLEEP AND START ENDJOB-TYPE
000344: 04,6270           40124                           CS       PRIORITY                              #  SCAN. COMPLEMENTED PRIORITY REGISTER
000345: 04,6271           50124                           TS       PRIORITY                              #  SHOWS JOB IS ASLEEP.
000346: 04,6272           45501                           CS       ZERO                                  #  INITIALIZE SEARCH FOR HIGHEST PRIORITY.
000347: 04,6273           50100                           TS       BUF        +1
000348:


000350:
000351:                                                                                                  #        SCAN FOR THE ACTIVE JOB OF HIGHEST PRIORITY.
000352:
000353: 04,6274           10134        EJSCAN             CCS      PRIORITY   +8D                        #  EACH PRIORITY REGISTER (PRIORITY +8N)
000354: 04,6275           06341                           TC       EJ1                                   #  IS SCANNED. ITS CONTENTS ARE EITHER
000355: 04,6276           03062                           TC       CCSHOLE
000356: 04,6277           06300                           TC       +1                                    #     2. NNZ - AN INACTIVE PRIORITY NUMBER.
000357:
000358: 04,6300           10144                           CCS      PRIORITY   +16D                       #  OR 3. -0 - NOT IN USE.
000359: 04,6301           06341                           TC       EJ1                                   #  IF PNZ, CONTROL IS TRANSFERRED TO EJ1
000360: 04,6302           03062                           TC       CCSHOLE
000361: 04,6303           06304                           TC       +1                                    #  PARED WITH THE PREVIOUS HIGHEST
000362:
000363: 04,6304           10154                           CCS      PRIORITY   +24D                       #  PRIORITY FOUND. THE CONTENTS OF Q
000364: 04,6305           06341                           TC       EJ1                                   #  SERVE TO LOCATE THE CCS WHICH WAS
000365: 04,6306           03062                           TC       CCSHOLE
000366: 04,6307           06310                           TC       +1                                    #  NEWJOB IS SET TO THE RELATIVE ADDRESS
000367:
000368: 04,6310           10164                           CCS      PRIORITY   +32D                       #  OF THE REGISTER SET WITH THE HIGHTEST
000369: 04,6311           06341                           TC       EJ1                                   #  ACTIVE PRIORITY AT THE END OF THE SCAN.
000370: 04,6312           03062                           TC       CCSHOLE
000371: 04,6313           06314                           TC       +1
000372:
000373: 04,6314           10174                           CCS      PRIORITY   +40D
000374: 04,6315           06341                           TC       EJ1
000375: 04,6316           70000        EXEC70K            OCT      70000
000376: 04,6317           06320                           TC       +1
000377:
000378: 04,6320           10204                           CCS      PRIORITY   +48D
000379: 04,6321           06341                           TC       EJ1
000380: 04,6322           67653        -CCSPR            -CCS      PRIORITY
000381: 04,6323           06324                           TC       +1
000382:
000383: 04,6324           10214                           CCS      PRIORITY   +56D
000384: 04,6325           06341                           TC       EJ1
000385: 04,6326           03062                           TC       CCSHOLE
000386: 04,6327           06330                           TC       +1


000388: 04,6330           10077                           CCS      BUF                                   #  IF BUF = 0, THE SCAN WAS PART OF
000389: 04,6331           06333                           TC       +2                                    #  A PRIORITY CHANGE IN WHICH THE NEW
000390: 04,6332           06245                           TC       SETNJ                                 #  PRIORITY IS HIGHEST. GO SET NEWJOB = 0.
000391:
000392: 04,6333           20000                           INDEX    A                                     #  PICK UP CCS INSTRUCTION TO GET NEWJOB
000393: 04,6334           27777                           CAF      0          -1                         #  SELECT CCS INSTRUCTION.
000394: 04,6335           66322                           AD       -CCSPR
000395: 04,6336           50215                           TS       NEWJOB                                #  RELATIVE ADDRESS ONLY.
000396: 04,6337           30120                           XCH      LOC                                   #  (NO MEANING FOR ENDOFJOB).
000397: 04,6340           06145                           TC       CHANJOB
000398:
000399:
000400:
000401: 04,6341           50101        EJ1                TS       BUF        +2                         #  STORE NEW PRIORITY
000402: 04,6342           60100                           AD       BUF        +1                         #  - OLD PRIORITY
000403: 04,6343           10000                           CCS      A
000404: 04,6344           30001                           XCH      Q                                     #  IF NEW PRIORITY IS LARGER
000405: 04,6345           06351                           TC       EJ2
000406: 04,6346           30000                           NOOP                                           #  IF OLD PRIORITY IS LARGER
000407: 04,6347           20001                           INDEX    Q                                     #    OR EQUAL
000408: 04,6350           00002                           TC       2
000409:
000410: 04,6351           50077        EJ2                TS       BUF                                   #  SAVE C(Q) TO LOCATE HIGHEST PRIORITY
000411: 04,6352           40101                           CS       BUF        +2                         #    JOB AT END OF SCAN.
000412: 04,6353           50100                           TS       BUF        +1
000413: 04,6354           20077                           INDEX    BUF
000414: 04,6355           00002                           TC       2
000415:


000417:
000418:                                                                                                  #        THE FOLLOWING ROUTINE IS AVAILABLE TO CHANGE THE PRIORITY OF A JOB WHILE IT IS RUNNING UNDER EXECUTIVE
000419:                                                                                                  #  CONTROL (IE, IN CORE SET 0). CALLING SEQUENCE IS AS FOLLOWS (NO INHINT NECESSARY):
000420:
000421:                                                                                                  #                CAF     NEWPRIO         PRIORITY IN BITS 10-14 - ZERO ELSEWHERE.
000422:                                                                                                  #        L       TC      PRIOCHNG
000423:
000424:                                                                                                  #  RETURN IS TO L+1 IMMEDIATELY UNLESS A JOB OF STILL HIGHER PRIORITY IS PRESENT, IN WHICH CASE IT GOES TO CHANJOB
000425:                                                                                                  #  BEFORE RETURNING.
000426:
000427:
000428:
000429:    2133                                           SETLOC   JOBSLEEP   +4
000430:
000431:    2133           20017        PRIOCHNG           INHINT                                         #  PREPARE Q, BANK, AND PUSHLOC (ALA
000432:    2134           50577                           TS       NEWPRIO                               #  CHANG1) IN CASE WE HAVE TO CHANGE JOBS.
000433:    2135           40001                           CS       Q
000434:    2136           50120                           TS       LOC
000435:    2137           32075                           CAF      EXECBANK
000436:    2140           30015                           XCH      BANKREG
000437:    2141           06356                           TC       PRIOCH2                               #  OFF TO EXECUTIVE BANK.
000438:
000439: 04,6356                                           SETLOC   EJ2        +5
000440:
000441: 04,6356           40000        PRIOCH2            COM
000442: 04,6357           50061                           TS       BANKSET
000443: 04,6360           30123                           XCH      PUSHLOC
000444: 04,6361           74606                           MASK     LOW10
000445: 04,6362           50123                           TS       PUSHLOC
000446:
000447: 04,6363           34607                           CAF      LOW9                                  #  MAKE UP NEW PRIORITY WORD, LEAVING
000448: 04,6364           70124                           MASK     PRIORITY                              #  POSSIBLE VAC ADDRESS INTACT.
000449: 04,6365           60577                           AD       NEWPRIO
000450: 04,6366           50124                           TS       PRIORITY
000451: 04,6367           40000                           COM                                            #  INITIALIZE BUF +1 TO - THIS PRIORITY FOR
000452: 04,6370           50100                           TS       BUF        +1                         #  SEARCH FOR HIGHEST PRIORITY.
000453:
000454: 04,6371           35501                           CAF      ZERO                                  #  SET BUF TO ZERO AS A FLAG FOR END OF
000455: 04,6372           50077                           TS       BUF                                   #  SCAN.
000456: 04,6373           06274                           TC       EJSCAN                                #  SCAN FOR HIGHEST PRIORITY.
000457:


000459:
000460:                                                                                                  #  LIST OF PROGRAM PRIORITIES
000461:
000462:    2142                                           SETLOC   PRIOCHNG   +7
000463:
000464:    2142     4505               PRIO1              EQUALS   BIT10
000465:    2142     4504               PRIO2              EQUALS   BIT11
000466:    2142           03000        PRIO3              OCT      03000
000467:    2143     4503               PRIO4              EQUALS   BIT12
000468:    2143           05000        PRIO5              OCT      05000
000469:    2144     2143               OCT05000           EQUALS   PRIO5
000470:    2144     4373               PRIO6              EQUALS   6K
000471:    2144           07000        PRIO7              OCT      07000
000472:    2145     4502               PRIO10             EQUALS   BIT13
000473:    2145           11000        PRIO11             OCT      11000
000474:    2146           12000        PRIO12             OCT      12000
000475:    2147           13000        PRIO13             OCT      13000
000476:    2150           14000        PRIO14             OCT      14000
000477:    2151           15000        PRIO15             OCT      15000
000478:    2152           16000        PRIO16             OCT      16000
000479:    2153           17000        PRIO17             OCT      17000
000480:    2154     4501               PRIO20             EQUALS   BIT14
000481:    2154           21000        PRIO21             OCT      21000
000482:    2155           22000        PRIO22             OCT      22000
000483:    2156           23000        PRIO23             OCT      23000
000484:    2157           24000        PRIO24             OCT      24000
000485:    2160           25000        PRIO25             OCT      25000
000486:    2161           26000        PRIO26             OCT      26000
000487:    2162           27000        PRIO27             OCT      27000
000488:    2163           30000        PRIO30             OCT      30000
000489:    2164           31000        PRIO31             OCT      31000
000490:    2165           32000        PRIO32             OCT      32000
000491:    2166           33000        PRIO33             OCT      33000
000492:    2167           34000        PRIO34             OCT      34000
000493:    2170           35000        PRIO35             OCT      35000
000494:    2171           36000        PRIO36             OCT      36000
000495:    2172           37000        PRIO37             OCT      37000

End of include-file EXECUTIVE.agc.  Parent file is MAIN.agc


