
Source Code


000002:                                                                                                  #  Copyright:    Public domain.
000003:                                                                                                  #  Filename:     EXTENDED_VERBS_FOR_MODING.agc
000004:                                                                                                  #  Purpose:      Part of the source code for Solarium build 55. This
000005:                                                                                                  #                is for the Command Module's (CM) Apollo Guidance
000006:                                                                                                  #                Computer (AGC), for Apollo 6.
000007:                                                                                                  #  Assembler:    yaYUL --block1
000008:                                                                                                  #  Contact:      Jim Lawton <jim DOT lawton AT gmail DOT com>
000009:                                                                                                  #  Website:      www.ibiblio.org/apollo/index.html
000010:                                                                                                  #  Page scans:   www.ibiblio.org/apollo/ScansForConversion/Solarium055/
000011:                                                                                                  #  Mod history:  2009-10-08 JL   Created.
000012:                                                                                                  #                2009-08-19 RSB  Typos.
000013:                                                                                                  #                2016-08-23 RSB  More of the same.
000014:
000015:                                                                                                  # # Page 235
000016:
000017:                                                                                                  #  VERB PLEASE PERFORM AND VERB PLEASE MARK ----- FLASH SHOULD BE TURNED ON
000018:                                                                                                  #  (FLASHON) BY ROUTINE PASTING EITHER UP. FLASH IS TURNED OFF BY ENTER OF
000019:                                                                                                  #  PLEASE PERFORM, OR ENTER OF PLEASE MARK.
000020:
000021:                                                                                                  #  BOTH FLASHON AND FLASHOFF MUST NOT BE USED IN INTERRUPTED STATE.
000022:
000023:                                                                                                  #  PLEASE PERFORM VERB AND PLEASE MARK VERB-----
000024:                                                                                                  #  PRESSING ENTER INDICATES ACTION REQUESTED HAS
000025:                                                                                                  #  BEEN PERFORMED, AND DOES SAME RECALL AS A COMPLETED LOAD. OPERATOR
000026:                                                                                                  #  SHOULD DO VERB PROCEED WITHOUT DATA IF WISHES NOT TO PERFORM THE
000027:                                                                                                  #  REQUESTED ACTION.
000028:
000029:
000030:
000031:                                                                                                  #  FAN-OUT
000032:
000033: 05,6000                                           SETLOC   12000
000034:
000035: 05,6000                        PINTEST            EQUALS                                         #  THIS MUST BE 05,6000 FOR PINBALL
000036:                                                                                                  #  VERIFIFCATION.  DO NOT MOVE WITHOUT
000037:                                                                                                  #  INFORMING ALAN GREEN.
000038:
000039: 05,6000           06077        LST2FAN            TC       VBZERO                                #  VB40 ZERO(USED WITH NOUN ICDU OR OCDU)
000040: 05,6001           06102                           TC       VBCOARK                               #  VB41 COARSE ALIGN(USED WITH NOUN ICDU
000041:                                                                                                  #             OR OCDU)
000042: 05,6002           06220                           TC       IMUFINEK                              #  VB42 FINE ALIGN IMU
000043: 05,6003           06253                           TC       IMULOCKK                              #  VB43 LOCK IMU
000044: 05,6004           06262                           TC       IMUATTCK                              #  VB44 SET IMU TO ATTITUDE CONTROL
000045: 05,6005           06316                           TC       IMUREENK                              #  VB45 SET IMU TO RE-ENTRY CONTROL
000046: 05,6006           06352                           TC       IMUCORK                               #  VB46  RETURN IMU TO COARSE ALIGN
000047: 05,6007           06075                           TC       ALM/END                               #  VB57 OPTICAL TRACKER ON(NOT IN USE YET)
000048: 05,6010           06437                           TC       GOLOADLV                              #  VB50 PLEASE PERFORM
000049: 05,6011           06437                           TC       GOLOADLV                              #  VB51 PLEASE MARK
000050: 05,6012           06415                           TC       DOMKREJ                               #  VB52 MARK REJECT (UNTIL BUTTON AVAIL.)
000051: 05,6013           06444                           TC       RELO/IK                               #  VB53 FREE  (USED WITH NOUN ICDU OR OCDU)
000052: 05,6014           06454                           TC       TORQGYRS                              #  VB54 PLUSE TORQUE GYROS
000053: 05,6015           06502                           TC       ALINTIME                              #  VB55 ALIGN TIME
000054: 05,6016           07014                           TC       GOSHOSUM                              #  VB56 PERFORMS BANKSUM
000055: 05,6017           06752                           TC       SYSTEST                               #  VB57 DO SYSTEM TEST
000056: 05,6020           06545                           TC       PRESTAND                              #  VB60 PREPARE FOR STANDBY
000057: 05,6021           06652                           TC       POSTAND                               #  VB61 RECOVER FROM STANBBY
000058: 05,6022           30000                           NOOP                                           #  ILLEGAL VERB.
000059: 05,6023           30000                           NOOP                                           #  ILLEGAL VERB.
000060: 05,6024           30000                           NOOP                                           #  ILLEGAL VERB.
000061: 05,6025           30000                           NOOP                                           #  ILLEGAL VERB.
000062: 05,6026           30000                           NOOP                                           #  ILLEGAL VERB.
000063: 05,6027           30000                           NOOP                                           #  ILLEGAL VERB.
000064: 05,6030           06075                           TC       ALM/END
000065: 05,6031           06043                           TC       71JUMPTO                              #  VERB 71 IS TFFMIN UPDATE
000066: 05,6032           06045                           TC       ABRTJPTO                              #  VERB 72 ABORTS
000067:                                                                                                  # # Page 236
000068: 05,6033           30000                           NOOP                                           #  ILLEGAL VERB.
000069: 05,6034           06075                           TC       ALM/END
000070: 05,6035           07016                           TC       EXTRAI/O                              #  VB75 MANUAL INPUT/OUTPUT OPTIONS.
000071: 05,6036           06041                           TC       76JUMPTO                              #  VERB 76 IS STATE VECTOR UPDATE
000072: 05,6037           05720                           TC       POSTJUMP                              #  VERB 77 IS L/O TIME UPDATE
000073: 05,6040           26761                           CADR     77UPDATE
000074: 05,6041           05720        76JUMPTO           TC       POSTJUMP
000075: 05,6042           26753                           CADR     76UPDATE
000076: 05,6043           05720        71JUMPTO           TC       POSTJUMP
000077: 05,6044           26757                           CADR     71UPDATE
000078: 05,6045           05720        ABRTJPTO           TC       POSTJUMP
000079: 05,6046           64477                           CADR     ABORTRPT
000080:
000081: 05,6047           34514        TESTXACT           CAF      BIT3
000082: 05,6050           70645                           MASK     EXTVBACT
000083: 05,6051           10000                           CCS      A
000084: 05,6052           06062                           TC       XACTALM
000085:
000086: 05,6053           44514        XACT1              CS       BIT3
000087: 05,6054           20017                           INHINT
000088: 05,6055           70645                           MASK     EXTVBACT
000089: 05,6056           64514                           AD       BIT3
000090: 05,6057           50645                           TS       EXTVBACT
000091: 05,6060           20016                           RELINT
000092: 05,6061           00001                           TC       Q
000093:
000094: 05,6062           03233        XACTALM            TC       FALTON
000095: 05,6063           02124                           TC       ENDOFJOB
000096:
000097: 05,6064           03362        TERMEXTV           TC       FREEDSP                               #  IF WE GET A TERMINATE INSTEAD OF A LOAD.
000098:
000099: 05,6065           06067        ENDEXTVB           TC       XACT0
000100: 05,6066           02124                           TC       ENDOFJOB
000101:
000102: 05,6067           44514        XACT0              CS       BIT3
000103: 05,6070           20017                           INHINT
000104: 05,6071           70645                           MASK     EXTVBACT
000105: 05,6072           50645                           TS       EXTVBACT
000106: 05,6073           20016                           RELINT
000107: 05,6074           00001                           TC       Q
000108:
000109:
000110:
000111: 05,6075           03233        ALM/END            TC       FALTON
000112: 05,6076           06065                           TC       ENDEXTVB
000113:
000114:
000115:
000116: 05,6077           06105        VBZERO             TC       OP/INERT
000117: 05,6100           06126                           TC       IMUZEROK                              #  RETURN HERE IF NOUN = ICDU(20)
000118:                                                                                                  # # Page 237
000119: 05,6101           06075                           TC       ALM/END                               #  RETURN HERE IF NOUN = OCDU(55)
000120:                                                                                                  #          (NOT IN USE YET)
000121:
000122: 05,6102           06105        VBCOARK            TC       OP/INERT
000123: 05,6103           06142                           TC       IMUCOARK                              #  RETURN HERE IF NOUN = ICDU(20)
000124: 05,6104           06367                           TC       OPTCOARK                              #  RETURN HERE IF NOUN = OCDU(55)
000125:
000126:                                                                                                  # # Page 238
000127:
000128:                                                                                                  #        SUBROUTINE FOR CHECKING GIVEN NOUN IF APPROPRIATE.
000129:
000130: 05,6105           30001        OP/INERT           XCH      Q                                     #  RETURNS TO L+1 IF NOUN=ICDU(20)
000131: 05,6106           50106                           TS       WDRET                                 #  RETURNS TO L+2 IF NOUN = OCDU(55)
000132: 05,6107           46113                           CS       NNICDU                                #    ALARMS IF ANY OTHER NOUN
000133: 05,6110           60603                           AD       NOUNREG
000134: 05,6111           10000                           CCS      A
000135: 05,6112           06116                           TC       +4                                    #  NN G/ 20
000136: 05,6113           00020        NNICDU             OCT      20
000137: 05,6114           06075                           TC       ALM/END                               #  NN L/ 20
000138: 05,6115           00106                           TC       WDRET                                 #  NN = 20
000139: 05,6116           46122                           CS       NNOCDU
000140: 05,6117           60603                           AD       NOUNREG
000141: 05,6120           10000                           CCS      A
000142: 05,6121           06075                           TC       ALM/END                               #  NN G/ 55
000143: 05,6122           00055        NNOCDU             OCT      55
000144: 05,6123           06075                           TC       ALM/END                               #  NN L/ 55
000145: 05,6124           20106                           INDEX    WDRET                                 #  NN = 55
000146: 05,6125           00001                           TC       1
000147:
000148:                                                                                                  # # Page 239
000149:
000150:                                                                                                  #  KEYBOARD REQUEST TO ZERO IMU ENCODERS
000151:
000152: 05,6126           06047        IMUZEROK           TC       TESTXACT                              #  ZERO ENCODERS.
000153: 05,6127           05654                           TC       BANKCALL
000154: 05,6130           30000                           CADR     IMUZERO
000155:
000156: 05,6131           05654                           TC       BANKCALL                              #  STALL
000157: 05,6132           30331                           CADR     IMUSTALL
000158: 05,6133           06134                           TC       +1
000159:
000160: 05,6134           20017        ENDMZERO           INHINT
000161: 05,6135           45070                           CS       ZLITBITS                              #  TURN OFF ZEROING LIGHT TO SHOW COMPLETE.
000162: 05,6136           70723                           MASK     DSPTAB     +11D
000163: 05,6137           64500                           AD       BIT15
000164: 05,6140           50723                           TS       DSPTAB     +11D
000165: 05,6141           06065                           TC       ENDEXTVB
000166:
000167:                                                                                                  # # Page 240
000168:
000169:                                                                                                  #  KEYBOARD REQUEST TO COARSE ALIGN THE IMU
000170:
000171: 05,6142           06047        IMUCOARK           TC       TESTXACT                              #  COARSE ALIGN FROM KEYBOARD.
000172: 05,6143           03302                           TC       GRABDSP
000173: 05,6144           03310                           TC       PREGBSY
000174: 05,6145           36165                           CAF      VNLODCDU                              #  CALL FOR THETAD LOAD
000175: 05,6146           03100                           TC       NVSUB
000176: 05,6147           03315                           TC       PRENVBSY
000177: 05,6150           03136                           TC       ENDIDLE                               #  STALL WAITING FOR THE LOAD
000178: 05,6151           06064                           TC       TERMEXTV
000179: 05,6152           06167                           TC       ICSDEL                                #  PROCEED - ASK FOR INCREMENTAL LOAD.
000180:
000181: 05,6153           36166        ICORK2             CAF      IMUCOARV                              #  RE-DISPLAY COARSE ALIGN VERB.
000182: 05,6154           03100                           TC       NVSUB
000183: 05,6155           03315                           TC       PRENVBSY
000184: 05,6156           03362                           TC       FREEDSP                               #  RELEASE THE DISPLAYS
000185:
000186: 05,6157           05654                           TC       BANKCALL                              #  CALL MODE SWITCHING PROG
000187: 05,6160           30104                           CADR     IMUCOARS
000188:
000189: 05,6161           05654                           TC       BANKCALL                              #  STALL
000190: 05,6162           30331                           CADR     IMUSTALL
000191: 05,6163           06065                           TC       ENDEXTVB
000192: 05,6164           06065                           TC       ENDEXTVB
000193:
000194: 05,6165           02522        VNLODCDU           OCT      02522
000195: 05,6166           04100        IMUCOARV           OCT      04100
000196:
000197:                                                                                                  # # Page 241
000198:
000199:                                                                                                  #        PROVISION FOR COARSE ALIGN TO INCREMENT ANGLES.
000200:
000201: 05,6167           36216        ICSDEL             CAF      DELLOAD
000202: 05,6170           03100                           TC       NVSUB                                 #  REQUEST LOAD OF DELTA ICDU ANGLES.
000203: 05,6171           03315                           TC       PRENVBSY
000204: 05,6172           03136                           TC       ENDIDLE
000205: 05,6173           06064                           TC       TERMEXTV
000206: 05,6174           06153                           TC       ICORK2                                #  PROCEED WITHOUT DATA HERE TOO.
000207: 05,6175           06177                           TC       INCLOOP                               #  LOOP TO INCREMENT THETAD FROM DSPTEM2.
000208: 05,6176           06153                           TC       ICORK2                                #  RE-DISPLAY COARSE ALIGN VERB.
000209:
000210: 05,6177           30001        INCLOOP            XCH      Q                                     #  INCREMENTS THETADS IN 2S COMPLEMENT FROM
000211: 05,6200           50115                           TS       MPAC                                  #   THREE ANGLE INCREMENTS IN DSPTEM2S.
000212: 05,6201           36217                           CAF      LTHD+2
000213: 05,6202           50077                           TS       BUF                                   #  SET UP FOR CDUINC.
000214: 05,6203           35503                           CAF      TWO                                   #  THREE TIMES THROUGH.
000215:
000216: 05,6204           50116        INCLOOP2           TS       MPAC       +1
000217: 05,6205           20000                           INDEX    A
000218: 05,6206           30621                           XCH      DSPTEM2                               #  INCREMENT TO TEM2 FOR CDUINC.
000219: 05,6207           05654                           TC       BANKCALL
000220: 05,6210           30361                           CADR     CDUINC
000221: 05,6211           10077                           CCS      BUF
000222: 05,6212           50077                           TS       BUF
000223: 05,6213           10116                           CCS      MPAC       +1
000224: 05,6214           06204                           TC       INCLOOP2
000225:
000226: 05,6215           00115                           TC       MPAC                                  #  RETURN WHEN FINISHED.
000227:
000228: 05,6216           02523        DELLOAD            OCT      02523
000229: 05,6217           00702        LTHD+2             ADRES    THETAD     +2
000230:


000232:
000233:                                                                                                  #  KEYBOARD REQUEST TO FINE ALIGN AND GYRO TORQUE IMU
000234:
000235: 05,6220           06047        IMUFINEK           TC       TESTXACT                              #  FINE ALIGN WITH GYRO TORQUING.
000236: 05,6221           03302                           TC       GRABDSP
000237: 05,6222           03310                           TC       PREGBSY
000238: 05,6223           36251                           CAF      VNLODGYR                              #  CALL FOR LOAD OF GYRO COMMANDS
000239: 05,6224           03100                           TC       NVSUB
000240: 05,6225           03315                           TC       PRENVBSY
000241: 05,6226           03136                           TC       ENDIDLE                               #  HOLD UP FOR THE DATA LOAD
000242: 05,6227           06064                           TC       TERMEXTV
000243: 05,6230           06231                           TC       +1                                    #  PROCEED WITHOUT A LOAD
000244:
000245: 05,6231           36252                           CAF      IMUFINEV                              #  RE-DISPLAY OUR OWN VERB
000246: 05,6232           03100                           TC       NVSUB
000247: 05,6233           03315                           TC       PRENVBSY
000248: 05,6234           03362                           TC       FREEDSP                               #  RELEASE DISPLAYS
000249:
000250: 05,6235           05654                           TC       BANKCALL                              #  CALL MODE SWITCH PROG
000251: 05,6236           30143                           CADR     IMUFINE
000252:
000253: 05,6237           05654                           TC       BANKCALL                              #  HIBERNATION
000254: 05,6240           30331                           CADR     IMUSTALL
000255: 05,6241           06065                           TC       ENDEXTVB
000256: 05,6242           36500                           CAF      LGYROBIN                              #  PINBALL LEFT COMMANDS IN OGC REGIST5RS
000257: 05,6243           05654                           TC       BANKCALL
000258: 05,6244           31433                           CADR     GYRODPNT
000259:
000260: 05,6245           05654                           TC       BANKCALL                              #  WAIT FOR PULSES TO GET OUT.
000261: 05,6246           30331                           CADR     IMUSTALL
000262: 05,6247           06065                           TC       ENDEXTVB
000263: 05,6250           06065                           TC       ENDEXTVB
000264:
000265: 05,6251           02567        VNLODGYR           OCT      02567
000266: 05,6252           04200        IMUFINEV           OCT      04200                                 #  FINE ALIGN VERB
000267:
000268:                                                                                                  # # Page 243
000269:
000270:                                                                                                  #  KEYBOARD REQUEST TO LOCK THE IMU CDUS
000271:
000272: 05,6253           06047        IMULOCKK           TC       TESTXACT
000273: 05,6254           05654                           TC       BANKCALL
000274: 05,6255           30205                           CADR     IMULOCK
000275:
000276: 05,6256           05654                           TC       BANKCALL                              #  STALL
000277: 05,6257           30331                           CADR     IMUSTALL
000278: 05,6260           06065                           TC       ENDEXTVB
000279: 05,6261           06065                           TC       ENDEXTVB
000280:


000282:
000283:                                                                                                  #  KEYBOARD REQUEST TO PUT IMU IN ATTITUDE CONTROL MODE
000284:
000285: 05,6262           06047        IMUATTCK           TC       TESTXACT                              #  ATTITUDE CONTROL.
000286: 05,6263           03302                           TC       GRABDSP
000287: 05,6264           03310                           TC       PREGBSY
000288: 05,6265           36216                           CAF      DELLOAD                               #  ASK FOR DELTA ANGLE LOAD.
000289: 05,6266           03100                           TC       NVSUB
000290: 05,6267           03315                           TC       PRENVBSY
000291: 05,6270           03136                           TC       ENDIDLE                               #  STALL WAITING FOR LOAD
000292: 05,6271           06064                           TC       TERMEXTV
000293: 05,6272           06306                           TC       ATTCABS                               #  PROCEED - ASK FOR ABSOLUTE ANGLES.
000294: 05,6273           06177                           TC       INCLOOP                               #  ADD INCREMENTS TO DESIRED ANGLES.
000295:
000296: 05,6274           36315        ATTCK2             CAF      IMUATTCV
000297: 05,6275           03100                           TC       NVSUB
000298: 05,6276           03315                           TC       PRENVBSY
000299: 05,6277           03362                           TC       FREEDSP                               #  LET THE DISPLAYS GO
000300:
000301: 05,6300           05654                           TC       BANKCALL                              #  CALL THE MODE SWITCH PROG
000302: 05,6301           30223                           CADR     IMUATTC
000303:
000304: 05,6302           05654                           TC       BANKCALL                              #  STALL
000305: 05,6303           30331                           CADR     IMUSTALL
000306: 05,6304           06065                           TC       ENDEXTVB
000307: 05,6305           06065                           TC       ENDEXTVB
000308:
000309:                                                                                                  #  PROVISIONS FOR ABSOLUTE LOAD FOR IMU CDUS IN ATTITUDE CONTROL.
000310:
000311: 05,6306           36165        ATTCABS            CAF      VNLODCDU                              #  ASK FOR ABSOLUTE CDU ANGLES.
000312: 05,6307           03100                           TC       NVSUB
000313: 05,6310           03315                           TC       PRENVBSY
000314: 05,6311           03136                           TC       ENDIDLE
000315: 05,6312           06064                           TC       TERMEXTV
000316: 05,6313           06274                           TC       ATTCK2
000317: 05,6314           06274                           TC       ATTCK2                                #  SECOND PROCEED WITHOUT DATA.
000318:
000319: 05,6315           04400        IMUATTCV           OCT      04400
000320:
000321:                                                                                                  # # Page 245
000322:
000323:                                                                                                  #  KEYBOARD REQUEST TO PUT IMU IN RE-ENTRY CONTROL MODE
000324:
000325: 05,6316           06047        IMUREENK           TC       TESTXACT                              #  RE-ENTRY.
000326: 05,6317           03302                           TC       GRABDSP
000327: 05,6320           03310                           TC       PREGBSY
000328: 05,6321           36216                           CAF      DELLOAD                               #  LOAD INCREMENTAL ANGLES.
000329: 05,6322           03100                           TC       NVSUB
000330: 05,6323           03315                           TC       PRENVBSY
000331: 05,6324           03136                           TC       ENDIDLE                               #  STALL FOR THE LOAD
000332: 05,6325           06064                           TC       TERMEXTV
000333: 05,6326           06342                           TC       REENTABS                              #  PROCEED - ASK FOR ABSOLUTE LOAD.
000334: 05,6327           06177                           TC       INCLOOP
000335:
000336: 05,6330           36351        REENTK2            CAF      IMUREENV                              #  RE-DISPLAY VERB.
000337: 05,6331           03100                           TC       NVSUB
000338: 05,6332           03315                           TC       PRENVBSY
000339: 05,6333           03362                           TC       FREEDSP                               #  LET THE DISPLAYS GO
000340:
000341: 05,6334           05654                           TC       BANKCALL                              #  CALL MODE SWITCH PROG
000342: 05,6335           30216                           CADR     IMUREENT
000343:
000344: 05,6336           05654                           TC       BANKCALL                              #  STALL
000345: 05,6337           30331                           CADR     IMUSTALL
000346: 05,6340           06065                           TC       ENDEXTVB
000347: 05,6341           06065                           TC       ENDEXTVB
000348:
000349: 05,6342           36165        REENTABS           CAF      VNLODCDU                              #  REQUEST ABSOLUTE ANGLES.
000350: 05,6343           03100                           TC       NVSUB
000351: 05,6344           03315                           TC       PRENVBSY
000352: 05,6345           03136                           TC       ENDIDLE
000353: 05,6346           06064                           TC       TERMEXTV                              #  TERMINATE
000354: 05,6347           06330                           TC       REENTK2
000355: 05,6350           06330                           TC       REENTK2
000356: 05,6351           04500        IMUREENV           OCT      04500
000357:
000358:                                                                                                  # # Page 246
000359:
000360:                                                                                                  #  KEYBOARD REQUEST TO RETURN THE IMU TO COARSE ALIGN
000361:
000362: 05,6352           06047        IMUCORK            TC       TESTXACT                              #  BACK TO COARSE ALIGN (FROM FINE).
000363: 05,6353           05654                           TC       BANKCALL
000364: 05,6354           30134                           CADR     IMURECOR
000365:
000366: 05,6355           05654                           TC       BANKCALL
000367: 05,6356           30331                           CADR     IMUSTALL
000368: 05,6357           06065                           TC       ENDEXTVB
000369: 05,6360           06065                           TC       ENDEXTVB
000370:
000371:                                                                                                  # # Page 247
000372:
000373:                                                                                                  #  KEYBOARD REQUEST TO ZERO OPTICS CDUS
000374:
000375: 05,6361           05654        OPTZEROK           TC       BANKCALL                              #  CALL MODE PROG
000376: 05,6362           12367                           CADR     OPTZERO
000377:
000378: 05,6363           05654                           TC       BANKCALL                              #  STALL
000379: 05,6364           30327                           CADR     OPTSTALL
000380: 05,6365           06065                           TC       ENDEXTVB
000381: 05,6366           06065                           TC       ENDEXTVB
000382:
000383: 05,6367                        OPTZERO            =                                              #  INTERFACES NOT CURRENTLY WIRED *********
000384:
000385:                                                                                                  # # Page 248
000386:
000387:                                                                                                  #  TEMPORARY ROUTINE TO RUN THE OPTICS CDUS FROM THE KEYBOARD
000388:
000389: 05,6367           03302        OPTCOARK           TC       GRABDSP                               #  SNATCH THEM DISPLAYS
000390: 05,6370           03310                           TC       PREGBSY
000391: 05,6371           36406                           CAF      VNLDOCDU                              #  VERB-NOUN TO LOAD OPTICS CDUS
000392: 05,6372           03100                           TC       NVSUB
000393: 05,6373           03315                           TC       PRENVBSY
000394: 05,6374           03136                           TC       ENDIDLE                               #  WAIT FOR THE LOAD
000395: 05,6375           06064                           TC       TERMEXTV
000396: 05,6376           06377                           TC       +1                                    #  PROCEED
000397:
000398: 05,6377           36166                           CAF      OPTCOARV                              #  RE-DISPLAY OUR OWN VERB
000399: 05,6400           03100                           TC       NVSUB
000400: 05,6401           03315                           TC       PRENVBSY
000401: 05,6402           03362                           TC       FREEDSP                               #  LET IT GO
000402:
000403: 05,6403           35501                           CAF      ZERO
000404: 05,6404           50703                           TS       OPTIND                                #  SNATCH OPTICS
000405:
000406: 05,6405           06065                           TC       ENDEXTVB
000407:
000408: 05,6406           02457        VNLDOCDU           OCT      02457
000409: 05,6407  05,6166               OPTCOARV           EQUALS   IMUCOARV                              #  DIFFERENT NOUNS.
000410:
000411:                                                                                                  # # Page 249
000412:
000413:                                                                                                  #  KEYBOARD REQUEST TO ACTIVATE THE OPTICAL STAR TRACKER
000414:
000415: 05,6407           05654        OPTTRONK           TC       BANKCALL
000416: 05,6410           12415                           CADR     OPTTRKON                              #  CALL MODE SWITCHER
000417:
000418: 05,6411           05654                           TC       BANKCALL                              #  STALL
000419: 05,6412           30327                           CADR     OPTSTALL
000420: 05,6413           06065                           TC       ENDEXTVB
000421: 05,6414           06065                           TC       ENDEXTVB
000422:
000423: 05,6415                        OPTTRKON           =                                              #  NOT AVAILABLE JUST NOW
000424:
000425: 05,6415           20017        DOMKREJ            INHINT                                         #  DO 10 MS WAITLIST CALL TO MK REJECT PROG
000426: 05,6416           40735                           CS       MARKSTAT                              #  MARK REJECT IS ENABLED ONLY IF BIT10
000427: 05,6417           74505                           MASK     BIT10                                 #  OF MARKSTAT = 1.
000428: 05,6420           10000                           CCS      A
000429: 05,6421           06075                           TC       ALM/END
000430:
000431: 05,6422           34516                           CAF      ONE
000432: 05,6423           02173                           TC       WAITLIST
000433: 05,6424           30611                           CADR     MKREJECT                              #  (CALLED IN KEYRUPT WHEN BUTTON AVAIL.)
000434: 05,6425           32261                           CAF      HI5                                   #  MARK REJECT ROUTINE WILL RE-PASTE VB51
000435: 05,6426           70735                           MASK     MARKSTAT                              #  IF ALL MARKS WERE IN.
000436: 05,6427           10000                           CCS      A
000437: 05,6430           06432                           TC       +2
000438: 05,6431           02124                           TC       ENDOFJOB
000439:
000440: 05,6432           20016                           RELINT
000441: 05,6433           05654                           TC       BANKCALL                              #  RE-DISPLAY VB 51 SINCE MORE MARKS
000442: 05,6434           14000                           CADR     FLASHON                               #  REQUIRED.
000443: 05,6435           05720                           TC       POSTJUMP
000444: 05,6436           30755                           CADR     REMKVB51
000445:
000446:                                                                                                  #  PLEASE PERFORM VERB AND PLEASE MARK VERB ----- PRESSING ENTER INDICATES
000447:                                                                                                  #  ACTION REQUESTED HAS BEEN PERFORMED, AND DOES SAME RECALL AS A COMPLETED
000448:                                                                                                  #  LOAD.  OPERATOR SHOULD DO VB PROCEED WITHOUT DATA IF HE WISHES NOT TO
000449:                                                                                                  #  PERFORM THE REQUESTED ACTION.
000450:
000451: 05,6437           05654        GOLOADLV           TC       BANKCALL
000452: 05,6440           14003                           CADR     FLASHOFF
000453: 05,6441           06067                           TC       XACT0
000454: 05,6442           05720                           TC       POSTJUMP
000455: 05,6443           16006                           CADR     LOADLV1
000456:
000457:                                                                                                  # # Page 250
000458:
000459:                                                                                                  #  KEYBOARD REQUEST TO RELEASE IMU OR OPTICS
000460:
000461: 05,6444           06105        RELO/IK            TC       OP/INERT
000462: 05,6445           06451                           TC       IMURELK                               #  RETURN HERE IF IMU
000463: 05,6446           45501                           CS       ZERO                                  #  RETURN HERE IF OPTICS
000464: 05,6447           50703                           TS       OPTIND
000465: 05,6450           02124                           TC       ENDOFJOB
000466:
000467: 05,6451           45501        IMURELK            CS       ZERO
000468: 05,6452           50677                           TS       CDUIND
000469: 05,6453           02124                           TC       ENDOFJOB
000470:
000471:                                                                                                  # # Page 251
000472:
000473:                                                                                                  #  KEYBOARD REQUEST TO PLUSE TORQUE IRIGA
000474:
000475:
000476:
000477: 05,6454           06047        TORQGYRS           TC       TESTXACT                              #  GYRO TORQUING WITH NO MODE-SWITCHING.
000478: 05,6455           03302                           TC       GRABDSP
000479: 05,6456           03310                           TC       PREGBSY
000480: 05,6457           36251                           CAF      VNLODGYR
000481: 05,6460           03100                           TC       NVSUB
000482: 05,6461           03315                           TC       PRENVBSY
000483: 05,6462           03136                           TC       ENDIDLE
000484: 05,6463           06064                           TC       TERMEXTV
000485: 05,6464           06465                           TC       +1
000486: 05,6465           36501                           CAF      TORQGYRV                              #  RE-DISPLAY OUR OWN VERB
000487: 05,6466           03100                           TC       NVSUB
000488: 05,6467           03315                           TC       PRENVBSY
000489: 05,6470           03362                           TC       FREEDSP
000490: 05,6471           36500                           CAF      LGYROBIN
000491: 05,6472           05654                           TC       BANKCALL
000492: 05,6473           31433                           CADR     GYRODPNT
000493: 05,6474           05654                           TC       BANKCALL                              #  WAIT FOR PULSES TO GET OUT.
000494: 05,6475           30331                           CADR     IMUSTALL
000495: 05,6476           06065                           TC       ENDEXTVB
000496: 05,6477           06065                           TC       ENDEXTVB
000497:
000498: 05,6500           01520        LGYROBIN           ADRES    OGC
000499: 05,6501           05400        TORQGYRV           OCT      05400
000500:
000501:                                                                                                  # # Page 252
000502:
000503:                                                                                                  #  ALIGN TIME
000504: 05,6502           36544        ALINTIME           CAF      VNLODDT                               #  USES NVSUBMON. DOES NOT TEST DSPLOCK.
000505: 05,6503           50110                           TS       NVTEMP                                #  DOES NOT KILL MONITOR.
000506: 05,6504           03121                           TC       NVSUBMON
000507: 05,6505           02124                           TC       ENDOFJOB                              #  IN CASE OF ALARM IN LOAD REQUEST SET UP.
000508: 05,6506           03136                           TC       ENDIDLE
000509: 05,6507           02124                           TC       ENDOFJOB                              #  TERMINATE
000510: 05,6510           02124                           TC       ENDOFJOB                              #  PROCEED WITHOUT DATA
000511: 05,6511           20017        UPDATIME           INHINT                                         #  DELTA TIME IS IN DSPTEM1, +1.
000512: 05,6512           35501                           CAF      ZERO
000513: 05,6513           50117                           TS       MPAC       +2                         #  NEEDED FOR TP AGREE
000514: 05,6514           30036                           XCH      TIME1                                 #  LO ORDER TIME
000515: 05,6515           60617                           AD       DSPTEM1    +1
000516: 05,6516           50116                           TS       MPAC       +1
000517: 05,6517           35501                           CAF      ZERO
000518: 05,6520           60616                           AD       DSPTEM1
000519: 05,6521           60035                           AD       TIME2                                 #  HI ORDER TIME
000520: 05,6522           30115                           XCH      MPAC
000521: 05,6523           05654                           TC       BANKCALL
000522: 05,6524           07154                           CADR     TPAGREE
000523: 05,6525           30115                           XCH      MPAC
000524: 05,6526           30035                           XCH      TIME2
000525: 05,6527           30116                           XCH      MPAC       +1
000526: 05,6530           30036                           XCH      TIME1
000527: 05,6531           10000                           CCS      A
000528: 05,6532           06534                           TC       +2
000529: 05,6533           06542                           TC       ENDALINE
000530: 05,6534           34516                           CAF      ONE                                   #  TIME1 WAS INCREMENTED SINCE PICKUP
000531: 05,6535           60036                           AD       TIME1
000532: 05,6536           50036                           TS       TIME1
000533: 05,6537           06542                           TC       ENDALINE
000534: 05,6540           60035                           AD       TIME2
000535: 05,6541           30035                           XCH      TIME2
000536: 05,6542           20016        ENDALINE           RELINT
000537: 05,6543           02124                           TC       ENDOFJOB
000538:
000539: 05,6544           02124        VNLODDT            OCT      02124                                 #  V/N FOR LOAD DELTA TIME
000540:
000541:                                                                                                  # # Page 253
000542:
000543:                                                                                                  #  PREPARE FOR STANDBY OPERATION
000544:
000545:                                                                                                  #  PRESTAND PREPARES FOR STANDBY BY SNAPSHOTTING IN1, TIME1, TIME2 AS SOON
000546:                                                                                                  #  AS IN1 CHANGES. IT DOES THIS BY CONTINUOUS WAITLIST REQUESTS UNTIL A
000547:                                                                                                  #  CHANGE IN IN1 IS DETECTED.
000548:
000549:                                                                                                  #  POSTAND RECOVERS TIME AFTER STANDBY. IT WAITS FOR A CHANGE IN IN1 (JUST
000550:                                                                                                  #  AS PRESTAND DOES), THEN COMPUTES THE DIFFERENCE BETWEEN IN1 VALUES(FULL
000551:                                                                                                  #  16 BITS), ADDS THIS TO THE PREVIOUSLY SNAPSHOTTED VALUES OF TIME1, TIME2
000552:                                                                                                  #  AND PLACES THIS NEW TIME INTO TIME1, TIME2 COUNTERS.
000553:
000554:
000555:
000556:                                                                                                  #  BIT1 OF IN1LOSAV = LAST VALUE OF BIT1 IN IN1
000557: 05,6545           20017        PRESTAND           INHINT                                         #  PREPARE TIME FOR STANDBY
000558: 05,6546           34516                           CAF      ONE
000559: 05,6547           02173                           TC       WAITLIST
000560: 05,6550           12552                           CADR     PRESTBY
000561: 05,6551           02124                           TC       ENDOFJOB
000562:
000563: 05,6552           30005        PRESTBY            XCH      IN1                                   #  CALLED BY WAITLIST
000564: 05,6553           74516                           MASK     BIT1                                  #  PUT BIT1 OF IN1 INTO BIT1 OF IN1LOSAV
000565: 05,6554           50032                           TS       LPRUPT
000566: 05,6555           44516                           CS       BIT1
000567: 05,6556           71103                           MASK     IN1LOSAV
000568: 05,6557           60032                           AD       LPRUPT
000569: 05,6560           51103                           TS       IN1LOSAV
000570:                                                                                                  #  CALLED BY WAITLIST EVERY 10 MSEC
000571: 05,6561           30005        PRESTBY1           XCH      IN1                                   #  UNTIL A CHANGE IN IN1 IS DETECTED.
000572: 05,6562           30001                           XCH      Q                                     #  PUT ALL 16 BITS OF IN1 INTO Q
000573: 05,6563           40036                           CS       TIME1                                 #  SNAPSHOT TIME1
000574: 05,6564           31101                           XCH      TIME1SAV
000575: 05,6565           40035                           CS       TIME2                                 #  SNAPSHOT TIME2
000576: 05,6566           31100                           XCH      TIME2SAV
000577: 05,6567           30001                           XCH      Q                                     #  PUT ALL 16 BITS OF IN1 INTO A
000578: 05,6570           06603                           TC       IN1LOOK
000579: 05,6571           06577                           TC       PRESTBY2                              #  RETURNS HERE IF NO CHANGE IN IN1
000580: 05,6572           30572                           XCH      IN1HITEM                              #  RETURNS HERE IF IN1 HAS CHANGED
000581: 05,6573           51102                           TS       IN1HISAV
000582: 05,6574           30573                           XCH      IN1LOTEM                              #  DONE WITH BIT1 OF IN1LOSAV, DONT PROTECT
000583: 05,6575           51103                           TS       IN1LOSAV
000584: 05,6576           02256                           TC       TASKOVER
000585:
000586: 05,6577           34516        PRESTBY2           CAF      ONE                                   #  PERPETUATES WAITLIST REQUEST EVERY
000587: 05,6600           02173                           TC       WAITLIST                              #  10 MSEC UNTIL INI CHANGES.
000588: 05,6601           12561                           CADR     PRESTBY1
000589: 05,6602           02256                           TC       TASKOVER
000590:
000591:                                                                                                  # # Page 254
000592:
000593:                                                                                                  #  IN1LOOK RETURNS TO L+1 IF IN1 HAS NOT CHANGED SINCE LAST EXAMINATION.
000594:                                                                                                  #  IT RETURNS TO L+2 IF IN1 HAS CHANGED SINCE LAST EXAMINATION, WITH
000595:                                                                                                  #  BITS 16-8 OF IN1 IN BITS 9-1 OF IN1HITEM, AND BITS 7-1 OF IN1
000596:                                                                                                  #  IN BITS 14-8 OF IN1LOTEM.
000597:
000598: 05,6603           50573        IN1LOOK            TS       IN1LOTEM
000599: 05,6604           35504                           CAF      NEG0
000600: 05,6605           50572                           TS       IN1HITEM                              #  PUT +1 FOR OF, -1 FOR UF, -0 FOR NEITHER
000601: 05,6606           30001                           XCH      Q
000602: 05,6607           50574                           TS       LOOKRET
000603: 05,6610           34516                           CAF      BIT1
000604: 05,6611           70573                           MASK     IN1LOTEM
000605: 05,6612           50032                           TS       LPRUPT                                #  NEW VALUE OF BIT1 OF IN1
000606: 05,6613           34516                           CAF      BIT1
000607: 05,6614           71103                           MASK     IN1LOSAV                              #  LAST VALUE OF BIT1 OF IN1
000608: 05,6615           25777                           EXTEND
000609: 05,6616           60032                           SU       LPRUPT
000610: 05,6617           10000                           CCS      A
000611: 05,6620           06624                           TC       IN1PREP                               #  IN1 HAS CHANGED
000612: 05,6621           03062                           TC       CCSHOLE
000613: 05,6622           06624                           TC       IN1PREP                               #  IN1 HAS CHANGED
000614: 05,6623           00574                           TC       LOOKRET                               #  IN1 HAS NOT CHANGED. RETURN TO L+1.
000615: 05,6624           30003        IN1PREP            XCH      LP
000616: 05,6625           50032                           TS       LPRUPT                                #  STORE LP
000617: 05,6626           30573                           XCH      IN1LOTEM
000618: 05,6627           25777                           EXTEND
000619: 05,6630           44507                           MP       BIT8                                  #  SHIFTS RIGHT 7
000620: 05,6631           30572                           XCH      IN1HITEM                              #  PUTS BITS7-1 OF IN1 INTO BITS 14-8 OF LP
000621: 05,6632           10000                           CCS      A                                     #  PUTS BITS14-8 OF IN1 INTO BITS7-1 OF A
000622: 05,6633           34507                           CAF      BIT8                                  #  PUTS BIT16 OF IN1 INTO BIT9 OF A
000623: 05,6634           06636                           TC       +2
000624: 05,6635           44507                           CS       BIT8
000625: 05,6636           60572                           AD       IN1HITEM                              #  PUTS BIT15 OF IN1 INTO BIT8 OF A
000626: 05,6637           74607                           MASK     LOW9
000627: 05,6640           50572                           TS       IN1HITEM
000628: 05,6641           30003                           XCH      LP
000629: 05,6642           76651                           MASK     B14-B8                                #  BIT14 THRU BIT8
000630: 05,6643           50573                           TS       IN1LOTEM
000631: 05,6644           34516                           CAF      BIT1
000632: 05,6645           25777                           EXTEND
000633: 05,6646           40032                           MP       LPRUPT                                #  RESTORE LP
000634: 05,6647           20574                           INDEX    LOOKRET
000635: 05,6650           00001                           TC       1                                     #  RETURN TO L+2
000636: 05,6651           37600        B14-B8             OCT      37600
000637:
000638:                                                                                                  # # Page 255
000639:
000640:                                                                                                  #  RECOVER FROM STANDBY OPERATION
000641:
000642: 05,6652           20017        POSTAND            INHINT                                         #  RECOVER TIME AFTER STANDBY
000643: 05,6653           34516                           CAF      ONE
000644: 05,6654           02173                           TC       WAITLIST
000645: 05,6655           12657                           CADR     POSTBY
000646: 05,6656           02124                           TC       ENDOFJOB
000647:
000648: 05,6657           30005        POSTBY             XCH      IN1                                   #  CALLED BY WAITLIST
000649: 05,6660           74516                           MASK     BIT1                                  #  PUT BIT1 OF IN1 INTO BIT1 OF IN1LOSAV
000650: 05,6661           50032                           TS       LPRUPT
000651: 05,6662           44516                           CS       BIT1
000652: 05,6663           71103                           MASK     IN1LOSAV
000653: 05,6664           60032                           AD       LPRUPT
000654: 05,6665           51103                           TS       IN1LOSAV
000655:                                                                                                  #  CALLED BY WAITLIST EVERY 10 MSEC UNTIL
000656: 05,6666           30005        POSTBY1            XCH      IN1                                   #  A CHANGE IN IN1 IS DETECTED.
000657: 05,6667           30001                           XCH      Q                                     #  PUT ALL 16 BITS OF IN1 INTO Q
000658: 05,6670           35501                           CAF      ZERO
000659: 05,6671           50036                           TS       TIME1                                 #  ZERO TIME1, TIME2 IN ANTICIPATION
000660: 05,6672           50035                           TS       TIME2                                 #  OF UPDATING.
000661: 05,6673           30001                           XCH      Q                                     #  PUT ALL 16 BITS OF IN1 INTO A
000662: 05,6674           06603                           TC       IN1LOOK
000663: 05,6675           06724                           TC       POSTBY2                               #  RETURNS HERE IF IN1 HAS NOT CHANGED
000664: 05,6676           44516                           CS       BIT1                                  #  RETURNS HERE IF IN1 HAS CHANGED
000665: 05,6677           71103                           MASK     IN1LOSAV                              #  FORM DP DIFFERENCE OF C(IN1) TAKEN AFTER
000666: 05,6700           40000                           COM                                            #  STANDBY MINUS C(IN1) TAKEN BEFORE
000667: 05,6701           60573                           AD       IN1LOTEM                              #  STANDBY. THIS DIFF IS IN THE BITS
000668: 05,6702           51105                           TS       IN1LODIF                              #  CORRESPONDING TO TIME1, TIME2.
000669: 05,6703           35501                           CAF      ZERO
000670: 05,6704           60572                           AD       IN1HITEM
000671: 05,6705           25777                           EXTEND
000672: 05,6706           61102                           SU       IN1HISAV
000673: 05,6707           10000                           CCS      A
000674: 05,6710           64516                           AD       ONE                                   #  DIFF IS +
000675: 05,6711           06713                           TC       +2
000676: 05,6712           06720                           TC       DIFFNEG                               #  DIFF IS -NZ, ADD BIT10 TO HI PART
000677: 05,6713           51104        DIFFCOM            TS       IN1HIDIF
000678: 05,6714           32166                           CAF      PRIO33                                #  GO TO EXEC TO FINISH UP
000679: 05,6715           02052                           TC       NOVAC                                 #  GO TO EXEC TO FINISH UP
000680: 05,6716           12730                           CADR     POSTBY3
000681: 05,6717           02256                           TC       TASKOVER
000682:
000683: 05,6720           64516        DIFFNEG            AD       ONE
000684: 05,6721           40000                           COM
000685: 05,6722           64505                           AD       BIT10
000686: 05,6723           06713                           TC       DIFFCOM
000687:
000688: 05,6724           34516        POSTBY2            CAF      ONE                                   #  PERPETUATES WAITLIST REQUEST EVERY
000689: 05,6725           02173                           TC       WAITLIST                              #  10 MSEC UNTIL INI CHNAGES.
000690:                                                                                                  # # Page 256
000691: 05,6726           12666                           CADR     POSTBY1
000692: 05,6727           02256                           TC       TASKOVER
000693:
000694:
000695:
000696: 05,6730           41101        POSTBY3            CS       TIME1SAV                              #  CALLED BY EXEC
000697: 05,6731           61105                           AD       IN1LODIF                              #  TIME WAS STORED COMP
000698: 05,6732           50116                           TS       MPAC       +1
000699: 05,6733           35501                           CAF      ZERO
000700: 05,6734           61104                           AD       IN1HIDIF
000701: 05,6735           25777                           EXTEND
000702: 05,6736           61100                           SU       TIME2SAV                              #  TIME WAS STORED COMP
000703: 05,6737           50115                           TS       MPAC
000704: 05,6740           06741                           TC       +1                                    #  JUST IN CASE OF OF
000705: 05,6741           35501                           CAF      ZERO                                  #  MAKES TPAGREE SAFE FOR DPAGREE
000706: 05,6742           50117                           TS       MPAC       +2
000707: 05,6743           05654                           TC       BANKCALL
000708: 05,6744           07154                           CADR     TPAGREE
000709: 05,6745           30116                           XCH      MPAC       +1
000710: 05,6746           50617                           TS       DSPTEM1    +1
000711: 05,6747           30115                           XCH      MPAC
000712: 05,6750           50616                           TS       DSPTEM1
000713: 05,6751           06511                           TC       UPDATIME
000714:
000715:                                                                                                  # # Page 256
000716:
000717:                                                                                                  #        SELECT AND INITIATE DESIRED SYSTEM TEST PROGRAM.
000718:
000719: 05,6752           03302        SYSTEST            TC       GRABDSP                               #  FIXED BY THE PHANTI
000720: 05,6753           03310                           TC       PREGBSY
000721: 05,6754           10612                           CCS      MODREG                                #  MUST NOT BE RUNNING ANYTHING.
000722: 05,6755           07146                           TC       XVBOUT
000723:
000724: 05,6756           02362                           TC       NEWMODE                               #  FOR SYSTEM TEST.
000725: 05,6757           00007                           OCT      07
000726:
000727: 05,6760           37013        REDO               CAF      LQPL                                  #  ASK FOR TEST OPTION (1 - 7).
000728: 05,6761           50117                           TS       MPAC       +2
000729: 05,6762           37012                           CAF      TESTNV
000730: 05,6763           03100                           TC       NVSUB
000731: 05,6764           03315                           TC       PRENVBSY
000732: 05,6765           03136                           TC       ENDIDLE
000733: 05,6766           07146                           TC       XVBOUT
000734: 05,6767           06760                           TC       REDO
000735:
000736: 05,6770           20017                           INHINT
000737: 05,6771           34501                           CAF      PRIO20
000738: 05,6772           02046                           TC       FINDVAC
000739: 05,6773           12775                           CADR     TSELECT
000740: 05,6774           02124                           TC       ENDOFJOB                              #  LEAVING DISPLAY GRABBED FOR SYSTEM TEST.
000741:
000742: 05,6775           35362        TSELECT            CAF      SEVEN
000743: 05,6776           71225                           MASK     QPLACE                                #  SAFETY PLAY.
000744: 05,6777           20000                           INDEX    A
000745: 05,7000           37002                           CAF      TESTCADR
000746: 05,7001           05723                           TC       BANKJUMP
000747:
000748: 05,7002           12075        TESTCADR           CADR     ALM/END                               #  0  ILLEGAL.
000749: 05,7003           24511                           CADR     GYDRFT                                #  1 GYRO DRIFT TEST.
000750: 05,7004           24606                           CADR     ACCELTST                              #  2  PIPA SCALE FACTOR DETERMINATION.
000751: 05,7005           24000                           CADR     ALGNTST                               #  3  IMU ALIGNMENT TEST.
000752: 05,7006           24372                           CADR     IMUCHK                                #  4  IMU CHECK.
000753: 05,7007           24203                           CADR     GYROTORK                              #  5  GYRO TORQUING TEST.
000754: 05,7010           23421                           CADR     CCHK                                  #  6  C RELAY CHECK.
000755: 05,7011           23534                           CADR     DCHECK                                #  7  DSKY CHECK.
000756:
000757: 05,7012           02101        TESTNV             OCT      02101
000758: 05,7013           01225        LQPL               ADRES    QPLACE
000759: 05,7014           05720        GOSHOSUM           TC       POSTJUMP                              #  START ROUTINE TO DISPLAY SUM OF EACH
000760: 05,7015           23025                           CADR     SHOWSUM                               #  BANK ON DSKY
000761:
000762:                                                                                                  # # Page 258
000763:
000764:                                                                                                  #        VERB 75 ALLOWS THE GROUND TO PERFORM SOME I/O OPERATIONS WITH THE DSKY. FOUR OPTIONS ARE
000765:                                                                                                  #  MECHANIZED FOR FLIGHT 501 (WITH MAJOR MODES DURING WHICH ALLOWED) -
000766:                                                                                                  #        1       GIMBAL MOTOR POWER ON                   MAJOR MODES 0X.
000767:                                                                                                  #        2       GIMBAL MOTOR POWER OFF                  MAJOR MODES 0X.
000768:                                                                                                  #        3       LIFT-OFF (AND GUIDANCE RELEASE).        MAJOR MODES 01 AND 04.
000769:                                                                                                  #        4       S4B-SM SEPARATE                         MAJOR MODE 14.
000770:                                                                                                  #        5       FDAI ALIGN.                             MAJOR MODES 0X.
000771:
000772: 05,7016           03302        EXTRAI/O           TC       GRABDSP
000773: 05,7017           03310                           TC       PREGBSY
000774: 05,7020           37143        75RELOAD           CAF      LV75TEMP                              #  ASK FOR FUNCTION NUMBER.
000775: 05,7021           50117                           TS       MPAC       +2
000776: 05,7022           37144                           CAF      STATENV
000777: 05,7023           03100                           TC       NVSUB
000778: 05,7024           03315                           TC       PRENVBSY
000779: 05,7025           03136                           TC       ENDIDLE
000780: 05,7026           07146                           TC       XVBOUT
000781: 05,7027           07020                           TC       75RELOAD
000782:
000783: 05,7030           10616                           CCS      V75TEMP                               #  MAKE SURE FUNCTION NUMBER IS LEGIT.
000784: 05,7031           07035                           TC       +4
000785: 05,7032           07020                           TC       75RELOAD
000786: 05,7033           07020                           TC       75RELOAD
000787: 05,7034           07020                           TC       75RELOAD
000788:
000789: 05,7035           77141                 +4        MASK     75HI12
000790: 05,7036           10000                           CCS      A
000791: 05,7037           07020                           TC       75RELOAD
000792:
000793: 05,7040           20616                           INDEX    V75TEMP
000794: 05,7041           07041                           TC       +0
000795: 05,7042           07066                           TC       75FN1
000796: 05,7043           07075                           TC       75FN2
000797: 05,7044           07104                           TC       75FN3
000798:
000799: 05,7045           07052                           TC       75FN4
000800: 05,7046           07124                           TC       75FN5
000801: 05,7047           07020                           TC       75RELOAD
000802: 05,7050           07020                           TC       75RELOAD
000803: 05,7051           07020                           TC       75RELOAD
000804:
000805:                                                                                                  # # Page 259
000806:
000807:                                                                                                  #        FUNCTION 4 - DO S4B SEPARATE.
000808:
000809: 05,7052           02346        75FN4              TC       CHECKMM                               #  NO MODE 13 IS PLANNED.
000810: 05,7053           00014                           OCT      14
000811: 05,7054           07145                           TC       MALAPROP
000812:
000813: 05,7055           20017                           INHINT
000814: 05,7056           34507                           CAF      BIT8
000815: 05,7057           70646                           MASK     FLAGWRD1
000816: 05,7060           10000                           CCS      A
000817: 05,7061           07146                           TC       XVBOUT                                #  SWITCH SET - FUNCTION ALREADY DONE.
000818:
000819: 05,7062           32160                           CAF      PRIO25
000820: 05,7063           02046                           TC       FINDVAC
000821: 05,7064           64336                           CADR     S4BSMSEP
000822:
000823: 05,7065           07146                           TC       XVBOUT
000824:
000825:                                                                                                  #        FUNCTION 1 - GIMBAL MOTOR POWER ON - DURING PRE-LAUNCH ONLY.
000826:
000827: 05,7066           37140        75FN1              CAF      75MASK
000828: 05,7067           70612                           MASK     MODREG
000829: 05,7070           10000                           CCS      A
000830: 05,7071           07145                           TC       MALAPROP
000831:
000832: 05,7072           03373                           TC       RELAYON
000833: 05,7073           40200                           OCT      40200
000834:
000835: 05,7074           07146                           TC       XVBOUT
000836:
000837:                                                                                                  #        FUNCTION 2 - GIMBAL MOTOR POWER OFF - DURING PRE-LAUNCH ONLY.
000838:
000839: 05,7075           37140        75FN2              CAF      75MASK
000840: 05,7076           70612                           MASK     MODREG
000841: 05,7077           10000                           CCS      A
000842: 05,7100           07145                           TC       MALAPROP
000843:
000844: 05,7101           03405                           TC       RELAYOFF
000845: 05,7102           40200                           OCT      40200
000846:
000847: 05,7103           07146                           TC       XVBOUT
000848:
000849:                                                                                                  # # Page 260
000850:
000851:                                                                                                  #        FUNCTION 3 - DO LIFT-OFF IN MAJOR MODE 04
000852:
000853: 05,7104           02346        75FN3              TC       CHECKMM                               #  TEST IF PLATFORM IS INERTIAL (MM 04)
000854: 05,7105           00004                           OCT      4
000855: 05,7106           07120                           TC       CHECKM02                              #  IT IS NOT. TEST IF STILL GYROCOMPASSING
000856:
000857: 05,7107           20017                 +3        INHINT
000858: 05,7110           34515                           CAF      BIT2
000859: 05,7111           70646                           MASK     FLAGWRD1
000860: 05,7112           10000                           CCS      A
000861: 05,7113           07146                           TC       XVBOUT
000862:
000863: 05,7114           32157                           CAF      PRIO24
000864: 05,7115           02046                           TC       FINDVAC
000865: 05,7116           64000                           CADR     LIFTOFF
000866:
000867: 05,7117           07146                           TC       XVBOUT
000868:
000869: 05,7120           02346        CHECKM02           TC       CHECKMM                               #  CHECK IF GYROCOMPASSING
000870: 05,7121           00002                           OCT      00002
000871: 05,7122           07145                           TC       MALAPROP                              #  NOT INERTIAL OR GYROCOMPASSING
000872: 05,7123           07107                           TC       75FN3      +3
000873:
000874:                                                                                                  #        FUNCTION 5 - FDAI ALIGN ON.
000875:
000876: 05,7124           37140        75FN5              CAF      75MASK
000877: 05,7125           70612                           MASK     MODREG
000878: 05,7126           10000                           CCS      A
000879: 05,7127           07145                           TC       MALAPROP
000880: 05,7130           03373                           TC       RELAYON
000881: 05,7131           40400                           OCT      40400
000882: 05,7132           20017                           INHINT
000883: 05,7133           37142                           CAF      10SECS75                              #  TURN OFF IN 10 SECONDS.
000884: 05,7134           02173                           TC       WAITLIST
000885: 05,7135           50172                           CADR     FDOFTSK1
000886: 05,7136           07146                           TC       XVBOUT
000887: 05,7137           77715        -.5SEC75           DEC      -50        B-14
000888: 05,7140           00070        75MASK             OCT      70
000889: 05,7141           77770        75HI12             OCT      77770
000890: 05,7142           01750        10SECS75           DEC      1000       B-14
000891: 05,7143           00616        LV75TEMP           ADRES    V75TEMP
000892:
000893:                                                                                                  # # Page 261
000894:
000895:                                                                                                  #  THE FOLLOWING PROGRAM IMPLEMENTS MAJOR MODE 27 OF FLIGHT 501 - STATE VECTOR UPDATE.
000896: 13,6753                                           BANK     13
000897: 13,6753           03430        76UPDATE           TC       FLAG1DWN                              #  TURN OFF UPDAOFLG TO ALLOW ANOTHER V76
000898: 13,6754           20000                           OCT      20000
000899: 13,6755           47174                           CS       MINUS14D                              #  PICK UP NO OF COMPONENTS FOR V76
000900: 13,6756           06762                           TC       DATUPDAT
000901: 13,6757           34515        71UPDATE           CAF      BIT2                                  #  PICK UP NO OF COMPONENTS FOR V71
000902: 13,6760           06762                           TC       DATUPDAT
000903: 13,6761           34516        77UPDATE           CAF      BIT1                                  #  PICK UP NO OF COMPONENTS FOR V71
000904: 13,6762           50115        DATUPDAT           TS       MPAC                                  #  COMES HERE WITH NO OF COMPONENTS IN A
000905: 13,6763           02346                           TC       CHECKMM                               #  IS THIS P24
000906: 13,6764           00024                           OCT      24
000907: 13,6765           07062                           TC       CK4MM14                               #  NO,SEE IF IT IS P14
000908: 13,6766           40612        STUFMODE           CS       MODREG
000909: 13,6767           51116                           TS       UPOLDMD                               #  PUT OLD MODE IN REGISTER FOR DOWNLINK
000910: 13,6770           36754                           CAF      76UPDATE   +1
000911: 13,6771           70646                           MASK     FLAGWRD1
000912: 13,6772           10000                           CCS      A                                     #  IS UPDATFLG SET
000913: 13,6773           07203                           TC       XACTALM7                              #  YES, TURN ON CHECK FAIL AND EXIT
000914: 13,6774           32567                           CAF      LDNLST2                               #  NO, SET UP UPDATE DOWNLIST
000915: 13,6775           50672                           TS       DNLSTADR
000916: 13,6776           30115                           XCH      MPAC
000917: 13,6777           51117                           TS       COMPNUMB
000918: 13,7000           02362                           TC       NEWMODE
000919: 13,7001           00027                           OCT      27
000920: 13,7002           47132                           CS       LSTBUFF
000921: 13,7003           51122                           TS       -UPADR                                #  INITIALIZE LOOP
000922: 13,7004           03302                           TC       GRABDSP
000923: 13,7005           03310                           TC       PREGBSY
000924: 13,7006           34516                           CAF      BIT1
000925: 13,7007           51123        NEXTCOMP           TS       STCNTR
000926: 13,7010           41122        OHWELL             CS       -UPADR
000927: 13,7011           50117                           TS       MPAC       +2
000928: 13,7012           37201                           CAF      STATENV7
000929: 13,7013           03100                           TC       NVSUB                                 #  SET UP FOR COMPONENT LOAD
000930: 13,7014           03315                           TC       PRENVBSY
000931: 13,7015           03136                           TC       ENDIDLE                               #  WAIT FOR INPUT
000932: 13,7016           07167                           TC       ENDUPDAT                              #  V34 E, TERMINATE
000933: 13,7017           07010                           TC       OHWELL                                #  V33E, MAKES NO SENSE, RECYCLE
000934: 13,7020           44516                           CS       ONE                                   #  COMPONENT LOADED
000935: 13,7021           61122                           AD       -UPADR
000936: 13,7022           51122                           TS       -UPADR                                #  CHANGE LOAD ADDRESS
000937: 13,7023           02346                           TC       CHECKMM                               #  ARE WE STILL IN P27
000938: 13,7024           00027                           OCT      27
000939: 13,7025           07167                           TC       ENDUPDAT                              #  NO, TIME HAS RUN OUT, EXIT
000940: 13,7026           41123                           CS       STCNTR                                #  YES, CONTINUE
000941: 13,7027           61117                           AD       COMPNUMB
000942: 13,7030           10000                           CCS      A                                     #  WAS THAT THE LAST COMPONENT
000943: 13,7031           40000                           CS       A                                     #  NO, CALCULATE NEW STCNTR
000944: 13,7032           61117                           AD       COMPNUMB
000945:                                                                                                  # # Page 262
000946: 13,7033           07007                           TC       NEXTCOMP                              #  RECYCLE
000947: 13,7034           37202        NEXTCHGE           CAF      L-UPADR                               #  YES, SET UP FOR OCTAL ID IF NEEDED
000948: 13,7035           50117                           TS       MPAC       +2
000949: 13,7036           37055                           CAF      OCT1DNV
000950: 13,7037           03100                           TC       NVSUB                                 #  DISPLAY VERIFICATION V21N02
000951: 13,7040           03315                           TC       PRENVBSY
000952: 13,7041           03136                           TC       ENDIDLE                               #  WAIT FOR INPUT
000953: 13,7042           07167                           TC       ENDUPDAT                              #  V34E, TERMINATE
000954: 13,7043           07066                           TC       UPDTDONE                              #  V33E, UPDATE VERIFIED
000955: 13,7044           11122                           CCS      -UPADR                                #  IS OCTAL ID PNZ
000956: 13,7045           07051                           TC       +4                                    #  YES, TEST FURTHER
000957: 13,7046           07034                           TC       NEXTCHGE                              #  NO, BAD ID, RECYCLE
000958: 13,7047           07034                           TC       NEXTCHGE                              #  NO, BAD ID, RECYCLE
000959: 13,7050           07034                           TC       NEXTCHGE                              #  NO, BAD ID, RECYCLE
000960: 13,7051           41117                           CS       COMPNUMB
000961: 13,7052           61122                           AD       -UPADR
000962: 13,7053           10000                           CCS      A                                     #  IS ID TOO BIG
000963: 13,7054           07034                           TC       NEXTCHGE                              #  YES, BAD ID, RECYCLE
000964: 13,7055           02102        OCT1DNV            OCT      02102                                 #  CANNOT COME HERE
000965: 13,7056           30000                           NOOP                                           #  NO, GOOD ID
000966: 13,7057           11122                           CCS      -UPADR                                #  NO, GOOD ID
000967: 13,7060           67132                           AD       LSTBUFF
000968: 13,7061           07011                           TC       OHWELL     +1
000969: 13,7062           02346        CK4MM14            TC       CHECKMM                               #  COMES HERE TO SEE IF IN P14
000970: 13,7063           00014                           OCT      14
000971: 13,7064           07203                           TC       XACTALM7                              #  NO, TURN ON CHECK FAIL
000972: 13,7065           06766                           TC       STUFMODE                              #  YES, SAVE MODE AND START P27
000973: 13,7066           11117        UPDTDONE           CCS      COMPNUMB                              #  COMES HERE AFTER VERIFIED UPDATE
000974: 13,7067           10000                           CCS      A                                     #  TEST NO OF COMPONENTS TO TELL WHICH UPDT
000975: 13,7070           07143                           TC       TESTMORE
000976: 13,7071           20017        77CONTIN           INHINT                                         #  1 COMPONENT, V77 UPDATE
000977: 13,7072           31074                           XCH      DTEPOCH    +1
000978: 13,7073           61100                           AD       STBUFF                                #  ADD TO DTEPOCH
000979: 13,7074           50117                           TS       MPAC       +2
000980: 13,7075           35501                           CAF      ZERO
000981: 13,7076           61073                           AD       DTEPOCH
000982: 13,7077           50116                           TS       MPAC       +1
000983: 13,7100           35501                           CAF      ZERO
000984: 13,7101           50115                           TS       MPAC
000985: 13,7102           05654                           TC       BANKCALL                              #  FORCE SIGN AGREEMENT
000986: 13,7103           07154                           CADR     TPAGREE
000987: 13,7104           35501                           CAF      ZERO
000988: 13,7105           50616                           TS       DSPTEM1                               #  INITIALIZE REGISTERS FOR CLOCK INCREMENT
000989: 13,7106           41100                           CS       STBUFF
000990: 13,7107           50617                           TS       DSPTEM1    +1
000991: 13,7110           30116                           XCH      MPAC       +1
000992: 13,7111           51073                           TS       DTEPOCH                               #  REPLACE WITH NEW DTEPOCH
000993: 13,7112           30117                           XCH      MPAC       +2
000994: 13,7113           51074                           TS       DTEPOCH    +1
000995: 13,7114           20017        ALLDONE            INHINT                                         #  STANDARD EXIT FOR SUCCESSFUL UPDATES
000996:                                                                                                  # # Page 263
000997: 13,7115           40645                           CS       STATE                                 #  INVERT VERIFLAG ON COMPLETED UPDATES
000998: 13,7116           74511                           MASK     BIT6
000999: 13,7117           50001                           TS       Q
001000: 13,7120           44511                           CS       BIT6
001001: 13,7121           70645                           MASK     STATE
001002: 13,7122           60001                           AD       Q
001003: 13,7123           50645                           TS       STATE
001004: 13,7124           20016                           RELINT
001005: 13,7125           02346                           TC       CHECKMM
001006: 13,7126           00027                           OCT      27
001007: 13,7127           07133                           TC       +4                                    #  NO, DO NOT CHANGE PRESENT PROGRAM
001008: 13,7130           41116                           CS       UPOLDMD                               #  YES, RESTORE P14 OR P24
001009: 13,7131           02364                           TC       NEWMODE    +2
001010: 13,7132           01100        LSTBUFF            ADRES    STBUFF
001011: 13,7133           32566                           CAF      LDNLST1                               #  RESTORE FLIGHT DOWNLINK LIST
001012: 13,7134           50672                           TS       DNLSTADR
001013: 13,7135           03362                           TC       FREEDSP
001014: 13,7136           11117                           CCS      COMPNUMB                              #  WAS THIS A V77 UPDATE
001015: 13,7137           10000                           CCS      A
001016: 13,7140           02124                           TC       ENDOFJOB                              #  NO, FINISHED
001017: 13,7141           05720                           TC       POSTJUMP                              #  YES, GO INCREMENT CLOCK
001018: 13,7142           12511                           CADR     UPDATIME
001019: 13,7143           10000        TESTMORE           CCS      A                                     #  IF NOT V77, WHICH UPDATE WAS IT
001020: 13,7144           07152                           TC       76CONTIN                              #  V76, CONTINUE AT 76CONTIN
001021: 13,7145           31100        71CONTIN           XCH      STBUFF                                #  V71, LOAD TFFMIN
001022: 13,7146           51676                           TS       TFFMIN
001023: 13,7147           31101                           XCH      STBUFF     +1
001024: 13,7150           51677                           TS       TFFMIN     +1
001025: 13,7151           07114                           TC       ALLDONE                               #  GO TO STANDARD EXIT
001026: 13,7152           03416        76CONTIN           TC       FLAG1UP                               #  SET UPDATFLG
001027: 13,7153           20000                           OCT      20000
001028: 13,7154           34513                           CAF      BIT4
001029: 13,7155           71116                           MASK     UPOLDMD
001030: 13,7156           10000                           CCS      A                                     #  WAS OLD PROGRAM P14 OR P24
001031: 13,7157           07114                           TC       ALLDONE                               #  P24, GO TO STANDARD EXIT
001032: 13,7160           41114                           CS       STBUFF     +12D                       #  P14, LOAD UPTIME
001033: 13,7161           40000                           CS       A
001034: 13,7162           51671                           TS       UPTIME
001035: 13,7163           41115                           CS       STBUFF     +13D
001036: 13,7164           40000                           CS       A
001037: 13,7165           51672                           TS       UPTIME     +1
001038: 13,7166           07114                           TC       ALLDONE                               #  GO TO STANDARD EXIT
001039: 13,7167           02346        ENDUPDAT           TC       CHECKMM                               #  COMES HERE ON V34E
001040: 13,7170           00027                           OCT      27                                    #  IS IT STILL P27
001041: 13,7171           07175                           TC       +4                                    #  NO, DO NOT CHANGE PRESENT PROGRAM
001042: 13,7172           41116                           CS       UPOLDMD                               #  YES, RESTORE P14 OR P24
001043: 13,7173           02364                           TC       NEWMODE    +2
001044: 13,7174           77761        MINUS14D           OCT      77761
001045: 13,7175           32566                           CAF      LDNLST1                               #  RESTORE DOWNLIST
001046: 13,7176           50672                           TS       DNLSTADR
001047:                                                                                                  # # Page 264
001048: 13,7177           03362                           TC       FREEDSP
001049: 13,7200           02124                           TC       ENDOFJOB                              #  THATS IT, THERE AINT NO MORE
001050: 13,7201           02101        STATENV7           OCT      02101
001051: 13,7202           01122        L-UPADR            ADRES    -UPADR
001052: 13,7203           05720        XACTALM7           TC       POSTJUMP
001053: 13,7204           12062                           CADR     XACTALM
001054: 05,7144                                           BANK     5
001055: 05,7144           02101        STATENV            OCT      02101
001056: 05,7145           03233        MALAPROP           TC       FALTON
001057: 05,7146           03362        XVBOUT             TC       FREEDSP
001058: 05,7147           02124                           TC       ENDOFJOB
001059: 05,7150           02362        REDO5.20           TC       NEWMODE
001060: 05,7151           00024                           OCT      24
001061: 05,7152           02124                           TC       ENDOFJOB
001062: 05,7153                        ENDEXTVS           =

End of include-file EXTENDED_VERBS_FOR_MODING.agc.  Parent file is MAIN.agc


