
Source Code


000002:                                                                                                  #  Copyright:    Public domain.
000003:                                                                                                  #  Filename:     FIXED-FIXED_INTERPRETER_SECTION.agc
000004:                                                                                                  #  Purpose:      Part of the source code for Solarium build 55. This
000005:                                                                                                  #                is for the Command Module's (CM) Apollo Guidance
000006:                                                                                                  #                Computer (AGC), for Apollo 6.
000007:                                                                                                  #  Assembler:    yaYUL --block1
000008:                                                                                                  #  Contact:      Jim Lawton <jim DOT lawton AT gmail DOT com>
000009:                                                                                                  #  Website:      www.ibiblio.org/apollo/index.html
000010:                                                                                                  #  Page scans:   www.ibiblio.org/apollo/ScansForConversion/Solarium055/
000011:                                                                                                  #  Mod history:  2009-09-16 JL   Created.
000012:                                                                                                  #                2016-08-18 RSB  Some corrections.
000013:                                                                                                  #                2016-08-23 RSB  More of the same.
000014:
000015:                                                                                                  # # Page 37
000016:
000017:    4000                                           SETLOC   4000                                  #  SECOND HALF OF FIXED-FIXED.
000018:
000019:    4000           10001        INTPRET            CCS      Q                                     #  ENTRY TO INTERPRETER
000020:    4001           50121                           TS       ADRLOC
000021:
000022:    4002           40015                           CS       BANKREG                               #  GET BANKBITS
000023:    4003           50061                           TS       BANKSET
000024:    4004           04007                           TC       +3
000025:
000026:    4005           40061        NEWEQUN            CS       BANKSET                               #  HERE FOR NEW EQUATIONS
000027:    4006           50015                           TS       BANKREG
000028:    4007           34516                           CAF      ONE                                   #  SET NEWEQIND TO CALL LOAD
000029:    4010           50066                           TS       NEWEQIND
000030:    4011           60121                           AD       ADRLOC                                #  C(ADRLOC) = LOCATION OF LAST ADDRESS USED
000031:    4012           50120                           TS       LOC                                   #  FOR OPERATORS
000032:    4013           20000                           INDEX    A                                     #  GET FIRST OP  NO. OF OPERATOR WORDS
000033:    4014           40000                           CS       0
000034:    4015           64335                           AD       MINUS1
000035:    4016           50063                           TS       ORDER
000036:    4017           74720                           MASK     LOW7                                  #  NUMBER OF ADDITIONAL OPERATOR WORDS
000037:    4020           60120                           AD       LOC
000038:    4021           50121                           TS       ADRLOC                                #  AND SET ADRLOC
000039:    4022           35501                           CAF      ZERO                                  #  TO SET ORDER TO ZERO
000040:    4023           04072                           TC       IPROC2
000041:
000042:                                                                                                  # # Page 38
000043:
000044:    4024           10215        DANZIG             CCS      NEWJOB                                #  INTERPRETIVE INTERRUPT
000045:    4025           02113                           TC       CHANG2                                #  CALL IN BANK0 AND SWITCH JOBS
000046:
000047:    4026           40061                           CS       BANKSET                               #  RESET BANK BITS OF OBJECT PROGRAM
000048:    4027           50015                           TS       BANKREG
000049:
000050:    4030           10063                           CCS      ORDER                                 #  HAS NEXT OP CODE BEEN PROCESSED
000051:    4031           04200                           TC       LOWWD                                 #  NEXT INSTRUCTION WAS RIGHT-HAND
000052:
000053:    4032           20120                           INDEX    LOC                                   #  PICK UP POSSIBLE NEXT INSTRUCTION
000054:    4033           40001                           CS       1
000055:    4034           10000                           CCS      A
000056:    4035           04065                           TC       IPROC                                 #  IT IS - GO PROCESS IT
000057:    4036           04037                           TC       +1                                    #  IN CASE THE FIRST ADDRESS WAS INACTIVE
000058:
000059:    4037           20121                           INDEX    ADRLOC                                #  END OF EQUATION
000060:    4040           40001                           CS       1
000061:    4041           10000                           CCS      A                                     #  IS THERE ANOTHER ADDRESS
000062:    4042           04317                           TC       PUSHDOWN                              #  NO - INSERT IN PUSH-DOWN LIST
000063:    4043           00042        D34                DEC      34         B-14                       #  USED TO DISPATCH STORE OPERATIONS
000064:
000065:    4044           50076        STORADR            TS       POLISH                                #  PROCESS STORE ADDRESSES
000066:    4045           04364                           TC       INCADR                                #  TO SHOW WE PICKED UP ANOTHER ADDRESS
000067:    4046           34043                           CAF      D34                                   #  FORM CODES 32 - 34
000068:    4047           60065                           AD       MODE
000069:    4050           60000                           DOUBLE                                         #  BECAUSE WE HAVE TO PUT IT INTO CYR
000070:    4051           50020                           TS       CYR
000071:    4052           34302                           CAF      LOW11
000072:    4053           70076                           MASK     POLISH                                #  SAVE ERASABLE PART PLUS POSSIBLE TAG
000073:    4054           30076                           XCH      POLISH
000074:    4055           64060                           AD       NEGIDEX                               #  DIRECT OR INDEXED
000075:    4056           10000                           CCS      A
000076:    4057           04233                           TC       INDEX                                 #  IT IS INDEXED - PRESENT POLISH  OK
000077:    4060           44000        NEGIDEX            OCT      -33777                                #  NEGATIVE OF STORE ADDRESS PREFIX +1
000078:    4061           44504                           CS       BIT11
000079:    4062           60076                           AD       POLISH
000080:    4063           50076                           TS       POLISH
000081:    4064           04257                           TC       NONINDEX
000082:
000083:                                                                                                  # # Page 39
000084:
000085:    4065           50063        IPROC              TS       ORDER                                 #  OP CODE WORD WAS PICKED UP BY CCS
000086:    4066           30120                           XCH      LOC
000087:    4067           64516                           AD       ONE
000088:    4070           30120                           XCH      LOC
000089:    4071           74720                           MASK     LOW7                                  #  SAVE LOW ORDER CODE
000090:    4072           30063        IPROC2             XCH      ORDER                                 #  ENTRY FROM NEWEQUN
000091:    4073           25777                           INDEX    OPOVF
000092:    4074           44507                           MP       BIT8                                  #  SHIFT IT RIGHT SEVEN PLACES
000093:    4075           50020                           TS       CYR                                   #  GETTING RID OF THE RIGHT-HAND OP
000094:
000095:    4076           10020        JUMPIT             CCS      CYR                                   #  LOOK AT LOW-ORDER PREFIX BIT
000096:    4077           04215                           TC       ADDRESS                               #  INDEXABLE - DECODE ADDRESS IMMEDIATELY
000097:    4100           00043        LOADOP             OCT      43                                    #  USED BY UNARY LOAD
000098:
000099:    4101           10020                           CCS      CYR                                   #  LOOK AT SECOND ONE HERE
000100:    4102           04364                           TC       INCADR                                #  PROCESS MISCELLANEOUS
000101:    4103           04113                           TC       MISCPROC
000102:
000103:    4104           10066        UNAPROC            CCS      NEWEQIND                              #  PROCESS UNARY REQUESTS
000104:    4105           04152                           TC       UNALOAD                               #  LOAD AN ACCUMULATOR AND RETURN
000105:
000106:    4106           34720                           CAF      LOW7
000107:    4107           50015                           TS       BANKREG                               #  CALL IN BANK 0 WHERE UNARIES ARE
000108:    4110           70020                           MASK     CYR                                   #  WITHOUT CLOBBERING
000109:    4111           20000                           INDEX    A
000110:    4112           04453                           TC       UNAJUMP
000111:
000112:                                                                                                  # # Page 40
000113:
000114:                                                                                                  #        PROCESS MISCELLANEOUS OP CODES.
000115:
000116:    4113           20000        MISCPROC           INDEX    A
000117:    4114           40000                           CS       0                                     #  WE KNOW ITS AN ADDRESS
000118:    4115           64516                           AD       ONE                                   #  TO FIT IN WITH THE POLISH ADDRESS SCHEME
000119:    4116           50076                           TS       POLISH                                #  SAVE ENTIRE ADDRESS
000120:
000121:    4117           10000                           CCS      A
000122:    4120           04145                           TC       ENDMISC
000123:    4121           42000        42K                OCT      42000
000124:    4122           04124                           TC       +2
000125:    4123           04143                           TC       MISCREL
000126:    4124           62261                           AD       BANKMASK
000127:    4125           10000                           CCS      A
000128:    4126           64516                           AD       ONE
000129:    4127           04131                           TC       +2
000130:    4130           04135                           TC       MISC2
000131:
000132:    4131           64121                           AD       42K
000133:    4132           40000                           COM
000134:    4133           50076                           TS       POLISH
000135:    4134           04145                           TC       ENDMISC
000136:
000137:    4135           64517        MISC2              AD       RELTEST
000138:    4136           10000                           CCS      A
000139:    4137           40076                           CS       POLISH
000140:    4140           04143                           TC       +3
000141:    4141           40076                           CS       POLISH
000142:    4142           04144                           TC       +2
000143:    4143           60067        MISCREL            AD       FIXLOC
000144:    4144           50062                           TS       ADDRWD
000145:
000146:    4145           34720        ENDMISC            CAF      LOW7
000147:    4146           50015                           TS       BANKREG                               #  CALL IN BANK 0
000148:    4147           70020                           MASK     CYR
000149:    4150           20000                           INDEX    A
000150:    4151           04433                           TC       NONJUMP
000151:
000152:                                                                                                  # # Page 41
000153:
000154:    4152           34720        UNALOAD            CAF      LOW7                                  #  PROCESS LOADING REQUESTS FOR UNARY
000155:    4153           70020                           MASK     CYR                                   #  OPERATIONS. START BY FINDING APPROPRIATE
000156:    4154           10000                           CCS      A                                     #  MODE
000157:    4155           04160                           TC       +3                                    #  TMOVE HAS CODE 0
000158:    4156           45503                           CS       TWO
000159:    4157           04164                           TC       MODESET
000160:    4160           40000                           CS       A
000161:    4161           64650                           AD       OCT40003
000162:    4162           50065                           TS       MODE                                  #  SKIP IF SO AND SET A TO -1
000163:    4163           45501                           CS       ZERO                                  #  IF WE DIDNT SKIP
000164:    4164           50065        MODESET            TS       MODE
000165:
000166:    4165           34500                           CAF      NEGSIGN                               #  GET INDEXING BIT FROM UNARY OP CODE IN
000167:    4166           70020                           MASK     CYR                                   #  CYR
000168:    4167           64100                           AD       LOADOP                                #  AD LOAD OPCODE = OCT 43
000169:    4170           60000        60K                DOUBLE                                         #  DOUBLE OP CODE AND DUPLICATE SIGN IN
000170:    4171           30020                           XCH      CYR                                   #  BIT 1 WHERE IT GOES INTO SIGN OF CYR
000171:    4172           50023                           TS       SL                                    #  RE-EDIT, NOT BOTHERING ABOUT BITS 8-14
000172:    4173           04215                           TC       ADDRESS                               #  STANDARD ADDRESS ROUTINE
000173:
000174:    4174           50066        ULRET              TS       NEWEQIND                              #  RETURN HERE AFTER LOADING
000175:    4175           30023                           XCH      SL
000176:    4176           50020                           TS       CYR                                   #  RESTORE ORIGINAL OP CODE
000177:    4177           04106                           TC       UNAPROC    +2                         #  AND DISPATCH AS USUAL
000178:
000179:    4200           35501        LOWWD              CAF      ZERO                                  #  RIGHT HAND OP CODE HAS ALREADY BEEN SET
000180:    4201           30063                           XCH      ORDER
000181:    4202           04075                           TC       JUMPIT     -1
000182:
000183:                                                                                                  # # Page 42
000184:
000185:    4203           50066        LOAD               TS       NEWEQIND                              #  LOADS FIRST ADDRESS OF NEW EQUATIONS
000186:    4204           20065                           INDEX    MODE                                  #  TRIGGERS TYPE OF CLEAR-AND-ADD
000187:    4205           04210                           TC       +3
000188:    4206           04533                           TC       TCA1
000189:    4207           04537                           TC       DCA1
000190:    4210           04611                           TC       VCA1
000191:
000192:    4211           10066        LOADRET            CCS      NEWEQIND                              #  IF A UNARY LOAD, THIS IS STILL ONE
000193:    4212           04174                           TC       ULRET                                 #  NO SECOND ADDRESS FOR UNARY LOADS
000194:
000195:    4213           40061                           CS       BANKSET
000196:    4214           50015                           TS       BANKREG
000197:
000198:    4215           20121        ADDRESS            INDEX    ADRLOC                                #  INDEXABLE ADDRESS ROUTINE
000199:    4216           40001                           CS       1                                     #  PICK UP WHAT SHOULD BE THE NEXT ADDRESS
000200:    4217           10000                           CCS      A
000201:    4220           04354                           TC       PUSHUP                                #  NO ADDRESS MEANS TAKE OFF TOP OF STACK
000202:    4221           04353                           TC       PUSHUP2                               #  INACTIVE ADDRESS MEANS JUST PUSHUP
000203:    4222           30121                           XCH      ADRLOC                                #  SAVE ADDRESS WHILE WE INCREMENT ADRLOC
000204:    4223           64516                           AD       ONE
000205:    4224           30121                           XCH      ADRLOC                                #  NOW BRING IT BACK
000206:    4225           50076                           TS       POLISH
000207:    4226           34500                           CAF      NEGSIGN
000208:    4227           70020                           MASK     CYR
000209:    4230           10000                           CCS      A                                     #  INDEXED OR NOT
000210:    4231           50114        BUGMPAC            XCADR    MPAC
000211:    4232           04257                           TC       NONINDEX
000212:
000213:                                                                                                  # # Page 43
000214:
000215:                                                                                                  #        PROCEDURE FOR INDEXED ADDRESSES.
000216:
000217:    4233           30076        INDEX              XCH      POLISH
000218:    4234           50021                           TS       SR                                    #  SR NOW CONTAINS SUB-ADDRESS
000219:    4235           30020                           XCH      CYR                                   #  SAVE ORDER CODE
000220:    4236           50022                           TS       CYL                                   #  TO PREPARE FOR RESTORING
000221:    4237           04722                           TC       TAG
000222:    4240           20075                           INDEX    TAG1
000223:    4241           40046                           CS       X1                                    #  INDEX REGISTERS ARE SUBTRACTIVE, ALA 70X
000224:    4242           60021                           AD       SR
000225:    4243           30076                           XCH      POLISH                                #  TS WOULD SKIP ON OVERFLOW
000226:
000227:    4244           30022                           XCH      CYL                                   #  RESTORE OP CODE BITS IN CYR
000228:    4245           50020                           TS       CYR
000229:
000230:    4246           10076                           CCS      POLISH                                #  SEE IF BIT SHOULD BE ZERO.  IT SHOULD
000231:    4247           04257                           TC       NONINDEX                              #  IF THE ADDRESS IS LESS THAN ROUGHLY
000232:    4250           04362                           TC       RELTOVAC   +1                         #  -1000D.
000233:    4251           04253                           TC       +2
000234:    4252           04362                           TC       RELTOVAC   +1                         #  QUICK ACTION ON THESE ZERO CASES.
000235:
000236:    4253           64517                           AD       RELTEST                               #  (-976D).
000237:    4254           10000                           CCS      A
000238:    4255           30076                           XCH      POLISH                                #  LESS THAN -1000. GO DIRECTLY TO
000239:    4256           04272                           TC       SWADDR                                #  SWITCHED-BANK ADDRESS ROUTINE.
000240:
000241:                                                                                                  # # Page 44
000242:
000243:    4257           40076        NONINDEX           CS       POLISH                                #  GET 14 BIT ADDRESS
000244:    4260           64504                           AD       ERASTEST                              #  SEE IF ERASABLE OR NOT
000245:    4261           10000                           CCS      A
000246:    4262           64517                           AD       RELTEST                               #  YES - SEE IF IN TEMPORARY BLOCK
000247:    4263           04300                           TC       TEST2
000248:    4264           65473                           AD       STORTEST                              #  NO - SEE IF STORE ADDRESS
000249:    4265           10000                           CCS      A
000250:    4266           04356                           TC       PUSHUP3                               #  YES - PUSHUP
000251:    4267           04270                           TC       +1                                    #  IN CASE THE STORED ADDRESS WAS 2000.
000252:    4270           34500                           CAF      BIT15
000253:    4271           60076                           AD       POLISH
000254:    4272           50015        SWADDR             TS       BANKREG
000255:    4273           50076                           TS       POLISH
000256:    4274           74606                           MASK     LOW10
000257:    4275           64373                           AD       6K
000258:    4276           50062                           TS       ADDRWD
000259:    4277           04305                           TC       JUMP
000260:
000261:    4300           10000        TEST2              CCS      A                                     #  DOES THIS REFER TO THE TEMPORARY BLOCK
000262:    4301           04361                           TC       RELTOVAC                              #  ADDRESS IS RELATIVE TO VAC AREA.
000263:    4302           03777        LOW11              OCT      3777
000264:    4303           30076                           XCH      POLISH                                #  YES - FORM ADDRESS
000265:    4304           50062                           TS       ADDRWD
000266:
000267:    4305           34473        JUMP               CAF      THREE                                 #  LOOK AT LOW-ORDER 2 BITS IN 5 BIT CODE
000268:    4306           70020                           MASK     CYR
000269:    4307           10000                           CCS      A                                     #  IF ZERO, LOAD NOW AND CALL IN BANK 0
000270:    4310           04313                           TC       +3                                    #  NON-ZERO - GO ON.
000271:    4311           04747                           TC       DPSET                                 #  LOAD DP IF NECESSARY
000272:    4312           50015                           TS       BANKREG                               #  CALL IN BANK 0
000273:    4313           34720                           CAF      LOW7                                  #  BITS 6-13 ARE GUARANTEED TO BE ZERO
000274:    4314           70020                           MASK     CYR
000275:    4315           20000                           INDEX    A
000276:    4316           04367                           TC       INDJUMP
000277:
000278:                                                                                                  # # Page 45
000279:
000280:    4317           30123        PUSHDOWN           XCH      PUSHLOC                               #  NO STORE ADDRESS GIVEN - PUSH DOWN
000281:    4320           50062                           TS       ADDRWD                                #  STORED IN THE NEXT ENTRY
000282:    4321           20065                           INDEX    MODE
000283:    4322           64475                           AD       NO.WDS                                #  2 FOR DP, 6 FOR VECTORS, 3 FOR TP
000284:    4323           50123                           TS       PUSHLOC
000285:    4324           20065                           INDEX    MODE
000286:    4325           04431                           TC       INDJUMP    +34D                       #  DISPATCH TO CORRECT STORE INSTRUCTION
000287:
000288:    4326           30001        PUSHUP1            XCH      Q                                     #  THE PUSH-UP ROUTINE IS CALLED UNDER THE
000289:    4327           50112                           TS       COMPON                                #  FOLLOWING CIRCUMSTANCES:
000290:    4330           34720                           CAF      LOW7                                  #     1. NO ADDRESS WORD IS FOUND.
000291:    4331           70020                           MASK     CYR                                   #     2. A STORE ADDRESS IS FOUND.
000292:    4332           64340                           AD       -VXSC                                 #  OR 3. AN INACTIVE ADDRESS IS FOUND.
000293:    4333           10000                           CCS      A                                     #  IF THE REQUESTING OPERATION CODE IS VXSC
000294:    4334           04345                           TC       PUSHUPOK                              #  THE MODE MUST BE SWITCHED BEFORE PUSHING
000295:    4335           77776        MINUS1             OCT      -1                                    #  UP, SINCE VXSC DEMANDS AN ARGUMENT OF
000296:    4336           04345                           TC       PUSHUPOK                              #  THE OPPOSITE MODE (SCALAR NEEDS VECTOR,
000297:
000298:    4337           10065                           CCS      MODE                                  #  ETC.)
000299:    4340           77775        MINUS2             OCT      -2                                    #  UNUSED CCS BRANCHES.
000300:    4341           77774        NEG3               OCT      -3
000301:    4342           45502                           CS       FOUR
000302:    4343           64340                           AD       NEG2
000303:    4344           04347                           TC       +3
000304:    4345           20065        PUSHUPOK           INDEX    MODE                                  #  DO PUSH-UP OPERATION.
000305:    4346           44475                           CS       NO.WDS                                #  2, 3, OR 6.
000306:    4347           60123                           AD       PUSHLOC
000307:    4350           50123                           TS       PUSHLOC
000308:    4351           50062                           TS       ADDRWD                                #  SET ADDRWD AND LEAVE ADDRESS IN A.
000309:    4352           00112                           TC       COMPON
000310:
000311:    4353     4340               -VXSC              EQUALS   MINUS2
000312:
000313:    4353           04364        PUSHUP2            TC       INCADR                                #  SENT HERE ON INACTIVE ADDRESS
000314:
000315:    4354           04326        PUSHUP             TC       PUSHUP1                               #  NO ADDRESS GIVEN SENDS US HERE
000316:    4355           04305                           TC       JUMP                                  #  AND JUMP
000317:
000318:    4356           10121        PUSHUP3            CCS      ADRLOC                                #  AN UNEXPECTED STORE ADDRESS SENDS US
000319:    4357           50121                           TS       ADRLOC                                #  HERE.
000320:    4360           04354                           TC       PUSHUP
000321:
000322:    4361           30076        RELTOVAC           XCH      POLISH                                #  ADDRESS WAS LESS THAN 42, SO ADD
000323:    4362           60067                           AD       FIXLOC                                #  ADDRESS OF VAC AREA.
000324:    4363           04304                           TC       JUMP       -1
000325:
000326:    4364           34516        INCADR             CAF      ONE
000327:    4365           60121                           AD       ADRLOC
000328:    4366           50121                           TS       ADRLOC
000329:    4367           00001                           TC       Q
000330:
000331:                                                                                                  # # Page 46
000332:
000333:    4370           05612        IJUMP              TC       ITCF                                  #  INTERPRETIVE TRANSFER CONTROL
000334:    4371           05357                           TC       VXSC1                                 #  VECTOR TIMES SCALAR
000335:    4372           05211                           TC       VSU1                                  #  VECTOR SUBTRACT
000336:    4373           06000                           TC       BMN1                                  #  BRANCH MINUS
000337:    4374           04700                           TC       STZ1                                  #  STORE ZERO
000338:    4375           05623                           TC       BOVF                                  #  BRANCH ON OVERFLOW
000339:    4376           04766                           TC       DAD2                                  #  DOUBLE PRECISION ADD
000340:    4377           06014                           TC       BHIZ1                                 #  BRANCH IF MAJOR PART ZERO
000341:    4400           04732                           TC       DSU2                                  #  DP SUBTRACT
000342:    4401           04735                           TC       DBSU                                  #  DP BACKWARDS SUBTRACT
000343:    4402           05061                           TC       DMP2                                  #  DP MULTIPLY
000344:    4403           06402                           TC       SHIFTL                                #  TP LEFT SHIFT
000345:    4404           05144                           TC       DDV                                   #  DP DIVIDE
000346:    4405           05141                           TC       BDDV                                  #  DP BACKWARDS DIVIDE
000347:    4406           04776                           TC       TRAD                                  #  TRIPLE PRECISION ADD
000348:    4407           06411                           TC       TSLC                                  #  TP SHIFT LEFT AND COUNT
000349:    4410           05075                           TC       SHIFTR1                               #  TP SHIFT RIGHT
000350:    4411           05061                           TC       DMP2                                  #  DP MULTIPLY AND THEN ROUND
000351:    4412           04773                           TC       TSU1                                  #  TP SUBTRACT
000352:    4413           06213                           TC       SIGN                                  #  AFFIX SIGN OF X TO MPAC
000353:    4414           05316                           TC       MXV1                                  #  MATRIX TIMES VECTOR.
000354:    4415           05306                           TC       VXM1                                  #  VECTOR TIMES MATRIX
000355:    4416           05221                           TC       VAD1                                  #  VECTOR ADD
000356:    4417           06010                           TC       BZE1                                  #  BRANCH ON ZERO
000357:    4420           05214                           TC       BVSU1                                 #  BACKWARDS VECTOR SUBTRACT
000358:    4421           05633                           TC       VSRT1                                 #  VECTOR SHIFT RIGHT
000359:    4422           05630                           TC       VSLT1                                 #  VECTOR SHIFT LEFT
000360:    4423           06004                           TC       BPL1                                  #  BRANCH POSITIVE
000361:    4424           05234                           TC       DOT1                                  #  VECTOR DOT PRODUCT
000362:    4425           05511                           TC       CROSS1                                #  VECTOR CROSS PRODUCT
000363:    4426           05505                           TC       VPROJ1                                #  VECTOR PROJECTION
000364:
000365:    4427           04552                           TC       TTS1
000366:    4430           04556                           TC       DTS1                                  #  DP TRANSFER TO STORAGE
000367:    4431           04622                           TC       VTS1                                  #  VECTOR TS
000368:    4432           04204                           TC       LOAD       +1                         #  LOADING
000369:
000370:    4433     4373               6K                 EQUALS   IJUMP      +3
000371:
000372:    4433     4367               INDJUMP            EQUALS   IJUMP      -1
000373:
000374:                                                                                                  # # Page 47
000375:
000376:    4433           06206        NONJUMP            TC       EXIT
000377:    4434           06072                           TC       AXT                                   #  ADDRESS TO INDEX TRUE
000378:    4435           06077                           TC       LXA                                   #  LOAD INDEX FROM THE ADDRESS
000379:    4436           06104                           TC       LXC                                   #  LOAD INDEX FROM ADDRESS COMPLEMENTED
000380:    4437           06110                           TC       SXA                                   #  STORE INDEX IN THE ADDRESS
000381:    4440           06141                           TC       XCHX                                  #  INDEX REGISTER EXCHANGE
000382:    4441           06134                           TC       INCR                                  #  INDEX REGISTER INCREMENT
000383:    4442           06153                           TC       XAD                                   #  INDEX REGISTER ADD FROM ERASABLE
000384:    4443           06147                           TC       XSU                                   #  INDEX REGISTER SUBTRACT FROM ERASABLE
000385:    4444           06062                           TC       AST                                   #  ADDRESS TO STEP TRUE
000386:    4445           06067                           TC       AXC                                   #  ADDRESS TO INDEX COMPLEMENTED
000387:    4446           06115                           TC       TIX                                   #  TRANSFER ON INDEX
000388:    4447           06352                           TC       NOLOAD                                #  LEAVE MPAC (OR VAC) LOADED
000389:    4450           06174                           TC       ITA1                                  #  TRANSFER ADDRESS
000390:    4451           06434                           TC       SWITCHEM                              #  SWITCH AND TEST INSTRUCTIONS
000391:    4452           06341                           TC       NEXT                                  #  LODON AND ITCQ
000392:
000393:    4453           07463        UNAJUMP            TC       TMOVE                                 #  FOR TP AS WELL
000394:    4454           04024                           TC       VMOVE
000395:    4455           07212                           TC       UNIT
000396:    4456           06261                           TC       ABVAL1                                #  ABVAL
000397:    4457           06226                           TC       VSQ                                   #  SQUARE OF VECTOR LENGTH
000398:    4460           06316                           TC       SSP                                   #  ABSOLUTE VALUE OF SCALAR
000399:    4461           06755                           TC       ARCSIN1
000400:    4462           06757                           TC       ARCCOS1
000401:    4463           06620                           TC       SIN1
000402:    4464           06622                           TC       COS1
000403:    4465           07453                           TC       SQRTS
000404:    4466           06323                           TC       SQUARE
000405:    4467           06325                           TC       COMP                                  #  COMPLEMENT
000406:    4470           04024                           TC       DMOVE
000407:    4471           06336                           TC       SMOVE
000408:    4472           06160                           TC       VDEF                                  #  VECTOR DEFINE
000409:
000410:                                                                                                  # # Page 48
000411:
000412:    4473           00003        THREE              OCT      3
000413:    4474           00002                           OCT      2
000414:    4475           00006        NO.WDS             OCT      6                                     #  3, 2, 6 ORDER IMPORTANT FOR PUSH-DOWN.
000415:
000416:    4476           37777        POSMAX             OCT      37777                                 #  MUST BE 2 LOCATIONS BEFORE NEGMAX
000417:    4477           00005        FIVE               OCT      5
000418:    4500     4477               LIMITS             EQUALS   POSMAX     +1                         #  USED BY CDU COUNTER ARITHMETIC PROGRAMS.
000419:
000420:    4500           40000        BIT15              OCT      40000
000421:    4501           20000        BIT14              OCT      20000
000422:    4502           10000        BIT13              OCT      10000
000423:    4503           04000        BIT12              OCT      04000
000424:    4504           02000        BIT11              OCT      02000
000425:    4505           01000        BIT10              OCT      01000
000426:    4506           00400        BIT9               OCT      00400
000427:    4507           00200        BIT8               OCT      00200
000428:    4510           00100        BIT7               OCT      00100
000429:    4511           00040        BIT6               OCT      00040
000430:    4512           00020        BIT5               OCT      00020
000431:    4513           00010        BIT4               OCT      00010
000432:    4514           00004        BIT3               OCT      00004
000433:    4515           00002        BIT2               OCT      00002
000434:    4516           00001        BIT1               OCT      00001
000435:
000436:    4517     4502               QUARTER            EQUALS   BIT13
000437:    4517     4513               EIGHT              EQUALS   BIT4
000438:    4517     4516               ONE                EQUALS   BIT1
000439:    4517     4504               ERASTEST           EQUALS   BIT11
000440:    4517                        BUGBITS            EQUALS   5777
000441:    4517                        ATSBITS            EQUALS   5777
000442:    4517     4340               NEG2               EQUALS   MINUS2
000443:    4517     4475               SIX                EQUALS   NO.WDS
000444:    4517     4335               NEG1               EQUALS   MINUS1
000445:    4517     4500               NEGSIGN            EQUALS   BIT15
000446:
000447:    4517           76057        RELTEST            DEC      -976       B-14
000448:    4520           57777 77777  NEG1/2             2DEC     -.5
000449:    4522           20000 00000  POS1/2             2DEC     .5
000450:    4524     4522               HALF               EQUALS   POS1/2
000451:
000452:                                                                                                  # # Page 49
000453:
000454:    4524           40101        TCS1               CS       BUF        +2                         #  USED BY DMP, ETC
000455:    4525           50117                           TS       MPAC       +2
000456:    4526           40100                           CS       BUF        +1
000457:    4527           50116                           TS       MPAC       +1
000458:    4530           40077                           CS       BUF
000459:    4531           50115                           TS       MPAC
000460:    4532           00001                           TC       Q
000461:
000462:    4533           20062        TCA1               INDEX    ADDRWD                                #  TRIPLE PRECISION CLEAR AND ADD
000463:    4534           40002                           CS       2
000464:    4535           40000                           CS       A
000465:    4536           04540                           TC       +2
000466:
000467:    4537           35501        DCA1               XCH      ZERO                                  #  DOUBLE PRECISION CLEAR AND ADD
000468:    4540           50117                           TS       MPAC       +2                         #    (CLEARS MPAC +2)
000469:    4541           20062                           INDEX    ADDRWD
000470:    4542           40001                           CS       1
000471:    4543           40000                           CS       A
000472:    4544           50116                           TS       MPAC       +1
000473:    4545           20062                           INDEX    ADDRWD
000474:    4546           40000                           CS       0
000475:    4547           40000                           CS       A
000476:    4550           50115                           TS       MPAC
000477:    4551           04211                           TC       LOADRET                               #  PREPARE TO DECODE NEXT ADDRESS
000478:
000479:    4552           40117        STORE3             CS       MPAC       +2                         #  TRIPLE PRECISION TRANSFER TO STORAGE
000480:    4553           40000                           CS       A
000481:    4554           20062                           INDEX    ADDRWD
000482:    4555           50002                           TS       2
000483:    4556           40116        DTS1               CS       MPAC       +1                         #  DOUBLE PRECISION TRANSFER TO STORAGE
000484:    4557           40000                           CS       A
000485:    4560           20062                           INDEX    ADDRWD
000486:    4561           50001        TSQ                TS       1
000487:    4562           40115                           CS       MPAC
000488:    4563           40000        MSIGN              CS       A
000489:    4564           20062                           INDEX    ADDRWD
000490:    4565           50000                           TS       0
000491:    4566           04005        NEQRET             TC       NEWEQUN                               #  START NEW EQUATION
000492:
000493:    4567     4552               TTS1               EQUALS   STORE3
000494:                                                                                                  #                                                        35W
000495:
000496:                                                                                                  # # Page 50
000497:
000498:    4567           30076        DOBR               XCH      POLISH                                #  DOES BRANCHES
000499:    4570           04602                           TC       DOBR2
000500:
000501:    4571           40061        EXIT2              CS       BANKSET                               #  COMPLETE EXIT EXECUTION BY CALLING IN
000502:    4572           50015                           TS       BANKREG                               #  BANK OF OBJECT INTERPRETIVE PROGRAM.
000503:    4573           00121                           TC       ADRLOC
000504:
000505:    4574           40061        SWF/F              CS       BANKSET                               #  BRANCHING TEST INSTRUCTION
000506:    4575           50015                           TS       BANKREG                               #  RETURNS HERE TO PICK UP BRANCHING ADDRES
000507:    4576           20121                           INDEX    ADRLOC
000508:    4577           30000                           CAF      0                                     #  BRANCH IS ALAWAYS TO FIXED.
000509:    4600           64335                           AD       NEG1                                  #  UNDO YULISH INCREMENT.
000510:    4601           64500                           AD       BIT15
000511:
000512:    4602           50015        DOBR2              TS       BANKREG
000513:    4603           74606                           MASK     LOW10
000514:    4604           64610                           AD       6K-1
000515:    4605           04001                           TC       INTPRET    +1
000516:
000517:    4606           01777        LOW10              OCT      1777
000518:    4607           00777        LOW9               OCT      777
000519:    4610           05777        6K-1               OCT      5777
000520:
000521:    4611           30001        VCA1               XCH      Q                                     #  VECTOR CLEAR-AND-ADD ROUTINE
000522:    4612           50104                           TS       TEM5
000523:    4613           34500                           CAF      NEGSIGN
000524:    4614           04632                           TC       VECMOVE
000525:    4615           00104                           TC       TEM5
000526:
000527:    4616           30001        VCS1               XCH      Q                                     #  DP VECTOR CLEAR-AND-SUBTRACT
000528:    4617           50104                           TS       TEM5
000529:    4620           34713                           CAF      NOOP
000530:    4621           04614                           TC       VCA1       +3
000531:
000532:    4622           30062        VTS1               XCH      ADDRWD                                #  TRANSFER TO STORAGE
000533:    4623           30070                           XCH      VACLOC                                #  EXCHANGE VACLOC AND ADDRWD AND DO AN
000534:    4624           50062                           TS       ADDRWD                                #  EFFECTIVE *CLEAR-AND-ADD*
000535:    4625           34500                           CAF      NEGSIGN
000536:    4626           04632                           TC       VECMOVE
000537:    4627           30062                           XCH      ADDRWD                                #  RESTORE VACLOC
000538:    4630           50070                           TS       VACLOC
000539:    4631           04005                           TC       NEWEQUN                               #  THIS ONLY HAPPENS AT END OF EQUATION
000540:
000541:                                                                                                  # # Page 51
000542:
000543:    4632           50102        VECMOVE            TS       TEM2                                  #  MOVES A DP VECTOR IN THE FASTEST WAY
000544:    4633           20062                           INDEX    ADDRWD                                #  AVAILABLE. USED BY VCA, VCS, AND VTS.
000545:    4634           40005                           CS       5
000546:    4635           20102                           INDEX    TEM2
000547:    4636           00000                           0        0                                     #  COM FOR VCA, VTS. NOOP FOR VCS.
000548:    4637           20070                           INDEX    VACLOC
000549:    4640           50005                           TS       5
000550:
000551:    4641           20062                           INDEX    ADDRWD
000552:    4642           40004                           CS       4
000553:    4643           20102                           INDEX    TEM2
000554:    4644           00000                           0        0
000555:    4645           20070                           INDEX    VACLOC
000556:    4646           50004                           TS       4
000557:
000558:    4647           20062                           INDEX    ADDRWD
000559:    4650           40003        OCT40003           CS       3                                     #  CONSTANT USED BY UNARY LOAD ROUTINE.
000560:    4651           20102                           INDEX    TEM2
000561:    4652           00000                           0        0
000562:    4653           20070                           INDEX    VACLOC
000563:    4654           50003                           TS       3
000564:
000565:    4655           20062                           INDEX    ADDRWD
000566:    4656           40002        OCT40002           CS       2
000567:    4657           20102                           INDEX    TEM2
000568:    4660           00000                           0        0
000569:    4661           20070                           INDEX    VACLOC
000570:    4662           50002                           TS       2
000571:
000572:    4663           20062                           INDEX    ADDRWD
000573:    4664           40001        CSQ                CS       1                                     #  CONSTANT USED BY WAITLIST
000574:    4665           20102                           INDEX    TEM2
000575:    4666           00000                           0        0
000576:    4667           20070                           INDEX    VACLOC
000577:    4670           50001                           TS       1
000578:
000579:    4671           20062                           INDEX    ADDRWD
000580:    4672           40000                           CS       0
000581:    4673           20102                           INDEX    TEM2
000582:    4674           00000                           0        0
000583:    4675           20070                           INDEX    VACLOC
000584:    4676           50000                           TS       0
000585:
000586:    4677           00001                           TC       Q                                     #  DONE
000587:
000588:                                                                                                  # # Page 52
000589:
000590:    4700           35501        STZ1               CAF      ZERO
000591:    4701           20062                           INDEX    ADDRWD
000592:    4702           50000                           TS       0
000593:
000594:    4703           40061        RE-ENTER           CS       BANKSET                               #  ROUTINE  SIMILAR TO 'DANZIG' EXCEPT THAT
000595:    4704           50015                           TS       BANKREG                               #  NO PUSHING DOWN IS DONE AT END OF EQUN.
000596:
000597:    4705           10063                           CCS      ORDER                                 #  IT IS USED BY MISCELLANEOUS INSTRUCTIONS
000598:    4706           04200                           TC       LOWWD                                 #  AND BRANCHES WHICH FAILED
000599:
000600:    4707           20120                           INDEX    LOC                                   #  IF WE HAD RETURNED DIRECTLY TO THE MAIN
000601:    4710           40001                           CS       1
000602:    4711           10000                           CCS      A
000603:    4712           04065                           TC       IPROC                                 #  IT IS USED BY BRANCH INSTRUCTIONS WHICH
000604:    4713           30000        NOOP               NOOP                                           #  IN CASE THE FIRST ADDRESS WAS INACTIVE
000605:
000606:    4714           20121                           INDEX    ADRLOC                                #  SEE IF A LEFT-OVER ADDRESS
000607:    4715           40001                           CS       1
000608:    4716           10000                           CCS      A
000609:    4717           04005                           TC       NEWEQUN                               #  NO - START NEW EQUATION
000610:    4720           00177        LOW7               OCT      177
000611:    4721           04044                           TC       STORADR                               #  YES - MUST BE STORE ADDRESS
000612:
000613:    4722     4701               STOR1              EQUALS   STZ1       +1
000614:
000615:                                                                                                  # # Page 53
000616:
000617:    4722           10020        TAG                CCS      CYR                                   #  SETS TAG1 ACCORDING TO SIGN BIT IN CYR
000618:    4723           35501                           CAF      ZERO
000619:    4724           10000                           CCS      A                                     #  SKIP NEXT INS WITHOUT CHANGING Q
000620:    4725           34516                           CAF      ONE
000621:    4726           60067                           AD       FIXLOC                                #  INDEXES AND STEPS IN VAC AREA
000622:    4727           50075                           TS       TAG1
000623:    4730           00001                           TC       Q
000624:
000625:    4731           00077        TCBUF              ADRES    BUF
000626:
000627:    4732           04747        DSU2               TC       DPSET                                 #  DP SUBTRACT
000628:    4733           05055                           TC       ADDTOSUB
000629:    4734           04767                           TC       DAD2       +1
000630:
000631:    4735           04747        DBSU               TC       DPSET
000632:    4736           04742                           TC       DACCOM                                #  COMPLEMENT DP ACCUM
000633:    4737           04767                           TC       DAD2       +1                         #  AND ADD
000634:
000635:    4740           40117        MPACCOM            CS       MPAC       +2                         #  COMPLEMENT MPAC
000636:    4741           50117                           TS       MPAC       +2
000637:    4742           40116        DACCOM             CS       MPAC       +1
000638:    4743           50116                           TS       MPAC       +1
000639:    4744           40115                           CS       MPAC
000640:    4745           50115                           TS       MPAC
000641:    4746           00001                           TC       Q
000642:
000643:    4747           44516        DPSET              CS       ONE                                   #  SET UP DP MODE AND LOAD IF NECESSARY
000644:    4750           50065                           TS       MODE
000645:    4751           10066                           CCS      NEWEQIND
000646:    4752           04203                           TC       LOAD
000647:    4753           00001                           TC       Q
000648:
000649:    4754           45501        VECSET             CS       ZERO                                  #  SIMILARLY FOR VECTORS
000650:    4755           50065                           TS       MODE
000651:    4756           10066                           CCS      NEWEQIND
000652:    4757           04203                           TC       LOAD
000653:    4760           00001                           TC       Q
000654:
000655:    4761           45503        TPSET              CS       TWO                                   #  AND FOR TP
000656:    4762           50065                           TS       MODE
000657:    4763           10066                           CCS      NEWEQIND
000658:    4764           04203                           TC       LOAD
000659:    4765           00001                           TC       Q
000660:
000661:                                                                                                  # # Page 54
000662:
000663:    4766           04747        DAD2               TC       DPSET                                 #  DOUBLE PRECISION ADD INSTRUCTION
000664:    4767           34772                           CAF      DAD2       +4
000665:    4770           05020                           TC       DAD1                                  #  PROGRAM USES CLOSED SUBROUTINE DAD1,
000666:    4771           04024                           TC       INT1                                  #  WITH ADDRESSES SET UP IN ADDRWD, TEM2
000667:
000668:    4772           00115                 +4        ADRES    MPAC
000669:
000670:    4773           04761        TSU1               TC       TPSET                                 #  TRIPLE PRECISION SUBTRACT INSTRUCTION
000671:    4774           05055                           TC       ADDTOSUB
000672:    4775           04777                           TC       TRAD       +1
000673:
000674:    4776           04761        TRAD               TC       TPSET                                 #  TRIPLE PRECISION ADD INSTRUCTION
000675:    4777           05001                           TC       +2
000676:    5000           04024                           TC       INT1
000677:
000678:    5001           30001                 +3        XCH      Q
000679:    5002           50104                           TS       TEM5
000680:    5003           34772                           CAF      DAD2       +4
000681:    5004           50102                           TS       TEM2
000682:    5005           20000                           INDEX    A
000683:    5006           30002                           XCH      2
000684:    5007           20062                           INDEX    ADDRWD
000685:    5010           60002                           AD       2
000686:    5011           20102                           INDEX    TEM2
000687:    5012           50002                           TS       2                                     #  AGAIN SKIPPING, AS IN DAD1
000688:    5013           35501                           CAF      ZERO
000689:    5014           20102                           INDEX    TEM2
000690:    5015           60001                           AD       1
000691:    5016           05023                           TC       DAD1       +3                         #  FINISH IN DAD1
000692:
000693:    5017           00104                           TC       TEM5                                  #  RETURN
000694:
000695:                                                                                                  # # Page 55
000696:
000697:    5020           50102        DAD1               TS       TEM2                                  #  DOUBLE PRECISION ADD ROUTINE
000698:    5021           20102                           INDEX    TEM2                                  #  POLYNOMIAL EVALUATOR ENTERS HERE.
000699:    5022           30001                           XCH      1
000700:    5023           20062                 +3        INDEX    ADDRWD
000701:    5024           60001                           AD       1
000702:    5025           20102                           INDEX    TEM2
000703:    5026           50001                           TS       1                                     #  SKIPS IF OVERFLOW WITH COUNT IN A
000704:    5027           35501                           CAF      ZERO                                  #  NO OVERFLOW IF HERE
000705:    5030           20102                           INDEX    TEM2                                  #  ARRIVE HERE WITH 1 OR -1 IN A IF OVERFLO
000706:    5031           60000                           AD       0
000707:    5032           20062                           INDEX    ADDRWD
000708:    5033           60000                           AD       0
000709:    5034           20102                           INDEX    TEM2
000710:    5035           50000                           TS       0                                     #  AND AGIN SKIP IF OVERFLOW
000711:    5036           00001                           TC       Q                                     #  EXIT IF NONE
000712:    5037           50122                           TS       OVFIND                                #  SAVE ANY OVERFLOW FOR BOV TESTING
000713:    5040           00001                           TC       Q
000714:
000715:    5041           50105        8TO2               TS       TEM8                                  #  MOVES THE DP WORD LOCATED AT THE ADDRESS
000716:    5042           20000                           INDEX    A                                     #  IN A TO THE ADDRESS IN TEM2
000717:    5043           40000                           CS       0
000718:    5044           40000                           CS       A
000719:    5045           20102                           INDEX    TEM2
000720:    5046           50000                           TS       0
000721:    5047           20105                           INDEX    TEM8
000722:    5050           40001                           CS       1
000723:    5051           40000                           CS       A
000724:    5052           20102                           INDEX    TEM2
000725:    5053           50001                           TS       1
000726:    5054           00001                           TC       Q
000727:
000728:    5055           30062        ADDTOSUB           XCH      ADDRWD                                #  BY PUTTING THE APPROPRIATE BITS IN
000729:    5056           65777                           AD       ATSBITS                               #  ADDRWD, DAD1 DOES A DOUBLE SUBTRACT IN-
000730:    5057           50062                           TS       ADDRWD                                #  STEAD OF A DOUBLE ADD.
000731:    5060           00001                           TC       Q
000732:
000733:                                                                                                  # # Page 56
000734:
000735:    5061           04747        DMP2               TC       DPSET                                 #  DP MULTIPLY (AND ROUND) ROUTINE
000736:    5062           30062                           XCH      ADDRWD
000737:    5063           65777                           AD       BUGBITS                               #  MAKE EXENDED CODE ADDRESS.
000738:    5064           50103        DSQ2               TS       TEM4                                  #  ENTRY FROM DSQ ROUTINE.
000739:    5065           34772                           XCH      DAD2       +4                         #  C(DAD2 +4) = TC MPAC
000740:    5066           05102                           TC       DMP1                                  #  EXECUTE MULTIPLY AT DMP1, THEN EXIT
000741:    5067           04524                           TC       TCS1                                  #  VIA TCS1 TO MOVE (BUF TO BUF+2)
000742:                                                                                                  #  INTO (MPAC TO MPAC+2).
000743:
000744:    5070           40020        OCT40020           CS       CYR
000745:    5071           10020                           CCS      CYR
000746:    5072           34772        MPACRND            CAF      DAD2       +4                         #  SET UP ROUND SUBROUTINE TO ROUND MPAC.
000747:    5073           05443                           TC       PREROUND   +1
000748:    5074           04024                           TC       DANZIG
000749:
000750:    5075           04747        SHIFTR1            TC       DPSET                                 #  TSRT INSTRUCTION.
000751:    5076           50015                           TS       BANKREG                               #  SUBROUTINE IN BANK 0
000752:    5077           06042                           TC       TRUE2                                 #  GET INTEGER ADDRESS BACK
000753:    5100           06232                           TC       SHIFTR     -1                         #  WITH DECREMENTED COUNT IN A.
000754:    5101           04024                           TC       DANZIG
000755:
000756:                                                                                                  # # Page 57
000757:
000758:    5102           50102        DMP1               TS       TEM2                                  #  GENERAL PURPOSE DP MULTIPLICATION
000759:    5103           20102                           INDEX    TEM2                                  #  POLYNOMIAL ENTERS HERE.
000760:    5104           40001                           CS       1
000761:    5105           50034                           TS       OVCTR                                 #  -N1 TO OVCTR
000762:    5106           20103                           INDEX    TEM4
000763:    5107           40001                           MP       1                                     #  -M1N1
000764:    5110           30034                           XCH      OVCTR                                 #  -U(M1N1) TO OVCTR, -N1 TO A
000765:    5111           20103                           INDEX    TEM4
000766:    5112           40000                           MP       0                                     #  -M0N1
000767:    5113           30034                           XCH      OVCTR                                 #  -U(M0N1) TO OVCTR, -U(M1N1) TO A
000768:    5114           60003                           AD       LP                                    #  MAYBE INCREMENT -U(M0N1) IN OVCTR
000769:    5115           30100                           XCH      BUF        +1                         #  -L(M0N1)-U(M1N1) TO BUF+1
000770:    5116           20102                           INDEX    TEM2
000771:    5117           40000                           CS       0
000772:    5120           50101                           TS       BUF        +2                         #  -N0 TO BUF+2
000773:    5121           20103                           INDEX    TEM4
000774:    5122           40001                           MP       1                                     #  -M1N0
000775:    5123           30034                           XCH      OVCTR                                 #  -U(M1N0) TO OVCTR, -U(M0N1) TO A
000776:    5124           30100                           XCH      BUF        +1                         #  -U(M0N1) TO BUF+1, -L(M0N1)-U(M1N1) TO A
000777:    5125           60003                           AD       LP                                    #  MAYBE INCREMENT -U(M1N0) IN OVCTR
000778:    5126           30101                           XCH      BUF        +2                         #  -L(M1N0)-L(M0N1)-U(M1N1) TO BUF+2, -N0 TO A
000779:    5127           20103                           INDEX    TEM4
000780:    5130           40000                           MP       0                                     #  -M0N0
000781:    5131           30034                           XCH      OVCTR                                 #  -U(M0N0) TO OVCTR, -U(M1N0) TO A
000782:    5132           60003                           AD       LP
000783:    5133           30100                           XCH      BUF        +1
000784:    5134           60100                           AD       BUF        +1
000785:    5135           30100                           XCH      BUF        +1
000786:    5136           30034                           XCH      OVCTR
000787:    5137           50077                           TS       BUF
000788:    5140           00001                           TC       Q
000789:
000790:                                                                                                  #        TIMING:  86 MC +-2  OR 1.032 MS +-0.024
000791:
000792:                                                                                                  # # Page 58
000793:
000794:    5141           04747        BDDV               TC       DPSET                                 #  BACKWARDS DP DIVIDE
000795:    5142           34516                           CAF      ONE                                   #  SET SWITCH
000796:    5143           05145                           TC       +2                                    #  AND GO ON AS USUAL
000797:
000798:    5144           04747        DDV                TC       DPSET                                 #  REGULAR DP DIVIDE
000799:    5145           50110                           TS       DVSW                                  #  DPSET RETURNS WITH 0 IN A
000800:    5146           35553                           CAF      LDANZIG                               #  RETURN TO DANZIG
000801:    5147           50076                           TS       TEMQ3
000802:    5150           34731                           CAF      TCBUF
000803:    5151           50102                           TS       TEM2
000804:    5152           30062                           XCH      ADDRWD
000805:    5153           05041                           TC       8TO2                                  #  X,X+1 INTO BUF, BUF+1
000806:
000807:    5154           35501                           CAF      ZERO
000808:    5155           50015                           TS       BANKREG                               #  CALL IN BANK 0
000809:    5156           06776                           TC       DDV0                                  #  TO BANK 0 PORTION
000810:
000811:    5157           30001        DMP                XCH      Q                                     #  DP MULTIPLY ROUTINE WHICH CAN BE CALLED
000812:    5160           50104                           TS       TEM5                                  #  BY TC DMP, FOLLOWED BY A WORD CONTAINING
000813:    5161           20000                           INDEX    A                                     #  THE ADDRESS OF THE MULTIPLIER WITH
000814:    5162           30000                           CAF      0                                     #  BITS IN THE ORDER CODE TO CALL IN MP
000815:    5163           50103                           TS       TEM4                                  #  IN THE EXTENDED CODE (UNKNOWN AS YET)
000816:    5164           34772                           CAF      DAD2       +4
000817:    5165           05102                           TC       DMP1
000818:    5166           04524                           TC       TCS1
000819:    5167           20104                           INDEX    TEM5                                  #  TIME IS 120 MC+-2, OR ABOUT 1.44 MS
000820:    5170           00001                           TC       1                                     #  RETURN TO INSTRUCTION AFTER ADDRESS WORD
000821:
000822:    5171           30001        DAD                XCH      Q                                     #  DP ADD ROUTINE WORKING JUST AS MP ABOVE
000823:    5172           50104                           TS       TEM5                                  #  HERE, HOWEVER, ONLY *ADRES X* IS NEEDED
000824:    5173           20000                           INDEX    A                                     #  SINCE AD IS PART OF THE REGULAR CODE
000825:    5174           30000                           CAF      0
000826:    5175           50062                           TS       ADDRWD
000827:    5176           34772                           CAF      DAD2       +4
000828:    5177           05020                           TC       DAD1
000829:    5200           20104                           INDEX    TEM5
000830:    5201           00001                           TC       1                                     #  TIME IS 48+-2 MC OR 576 MICRO-SEC.
000831:
000832:                                                                                                  # # Page 59
000833:
000834:    5202           30001        VACCOM             XCH      Q                                     #  COMPLEMENT THE APPROPRIATE VAC
000835:    5203           50104                           TS       TEM5
000836:    5204           40070                           CS       VACLOC
000837:    5205           40000                           COM
000838:    5206           30062                           XCH      ADDRWD
000839:    5207           50103                           TS       TEM4
000840:    5210           04620                           TC       VCS1       +2
000841:
000842:    5211           04754        VSU1               TC       VECSET                                #  DP VECTOR SUBTRACT
000843:    5212           05055                           TC       ADDTOSUB
000844:    5213           05222                           TC       VAD1       +1                         #  USES VAD ROUTINE WITH SUBS
000845:
000846:    5214           04754        BVSU1              TC       VECSET                                #  DP VECTOR BACKWARDS SUBTRACT
000847:    5215           05202                           TC       VACCOM                                #  JUST COMPLEMENT VAC
000848:    5216           30103                           XCH      TEM4
000849:    5217           50062                           TS       ADDRWD
000850:    5220           05222                           TC       VAD1       +1                         #  AND ADD
000851:
000852:    5221           04754        VAD1               TC       VECSET
000853:    5222           30070                           XCH      VACLOC                                #  DP VECTOR ADD
000854:    5223           50070                           TS       VACLOC
000855:    5224           05020                           TC       DAD1
000856:    5225           05242                           TC       AD2
000857:    5226           05412                           TC       INCRT2
000858:    5227           05020                           TC       DAD1
000859:    5230           05242                           TC       AD2
000860:    5231           05412                           TC       INCRT2
000861:    5232           05020                           TC       DAD1
000862:    5233           04024                           TC       INT1
000863:
000864:                                                                                                  # # Page 60
000865:
000866:    5234           04754        DOT1               TC       VECSET                                #  DP DOT PRODUCT ROUTINE
000867:    5235           05246                           TC       DOT2
000868:    5236           04740                           TC       MPACCOM
000869:    5237           44516        DPEXIT             CS       ONE                                   #  CHANGE MODE TO DOUBLE-PRECISION
000870:    5240           50065                           TS       MODE
000871:    5241           04024                           TC       DANZIG
000872:
000873:    5242           30062        AD2                XCH      ADDRWD
000874:    5243           65503                           AD       TWO
000875:    5244           50062                           TS       ADDRWD
000876:    5245           00001                           TC       Q
000877:
000878:    5246           35503        DOT2               XCH      TWO                                   #  SUBROUTINE DOT2 COMPUTES THE TRIPLE-
000879:    5247           50064                           TS       TEM11
000880:    5250           34731                           XCH      TCBUF                                 #  SIGN, IN MPAC TO MPAC+2.
000881:    5251           30062                           XCH      ADDRWD
000882:    5252           65777                           AD       BUGBITS
000883:    5253           50103                           TS       TEM4
000884:    5254           30001                           XCH      Q
000885:    5255           50105                           TS       TEM8
000886:    5256           30070                           XCH      VACLOC
000887:    5257           50070                           TS       VACLOC
000888:    5260           05102                           TC       DMP1
000889:    5261           30077                           XCH      BUF
000890:    5262           50115                           TS       MPAC
000891:    5263           30100                           XCH      BUF        +1
000892:    5264           50116                           TS       MPAC       +1
000893:    5265           30101                           XCH      BUF        +2
000894:    5266           50117                           TS       MPAC       +2
000895:    5267           05302                           TC       INCRT4
000896:    5270           05412                           TC       INCRT2
000897:    5271           05102                           TC       DMP1
000898:    5272           05001                           TC       TRAD       +3
000899:    5273           05302                           TC       INCRT4
000900:    5274           30070                           XCH      VACLOC
000901:    5275           50070                           TS       VACLOC
000902:    5276           65502                           AD       FOUR
000903:    5277           05102                           TC       DMP1
000904:    5300           05001                           TC       TRAD       +3
000905:    5301           00105                           TC       TEM8
000906:
000907:                                                                                                  # # Page 61
000908:
000909:    5302           30103        INCRT4             XCH      TEM4
000910:    5303           60064                           AD       TEM11
000911:    5304           50103                           TS       TEM4
000912:    5305           00001                           TC       Q
000913:
000914:    5306           04754        VXM1               TC       VECSET                                #  DP VECTOR TIMES MATRIX
000915:    5307           40062                           CS       ADDRWD
000916:    5310           50107                           TS       TEM10
000917:    5311           35503                           XCH      TWO
000918:    5312           50106                           TS       TEM9
000919:    5313           34475                           XCH      SIX
000920:    5314           05247                           TC       DOT2       +1
000921:    5315           05324                           TC       MXV2                                  #  REST OF OPERATION USES MXV ROUTINE
000922:
000923:    5316           04754        MXV1               TC       VECSET                                #  MATRIX TIMES DP VECTOR
000924:    5317           40062                           CS       ADDRWD
000925:    5320           50107                           TS       TEM10
000926:    5321           34475                           XCH      SIX                                   #  PROGRAM USES DOT PRODUCT ROUTINES TO
000927:    5322           50106                           TS       TEM9
000928:    5323           05246                           TC       DOT2
000929:
000930:    5324           35475        MXV2               CAF      K2                                    #  USES VBUF
000931:    5325           05347                           TC       STORDAC
000932:    5326           40107                           CS       TEM10
000933:    5327           60106                           AD       TEM9
000934:    5330           50107                           TS       TEM10
000935:    5331           50062                           TS       ADDRWD
000936:    5332           05250                           TC       DOT2       +2
000937:
000938:    5333           35476                           CAF      K2         +1
000939:    5334           05347                           TC       STORDAC
000940:    5335           30107                           XCH      TEM10
000941:    5336           60106                           AD       TEM9
000942:    5337           50062                           TS       ADDRWD
000943:    5340           05250                           TC       DOT2       +2
000944:                                                                                                  # # Page 62
000945:    5341           35475                           CAF      K2
000946:    5342           50062                           TS       ADDRWD
000947:    5343           65502                           AD       FOUR
000948:    5344           05347                           TC       STORDAC
000949:    5345           04611                           TC       VCA1
000950:    5346           04024                           TC       DANZIG
000951:
000952:    5347           50103        STORDAC            TS       TEM4                                  #  SUBROUTINE TO STORE MPAC, MPAC+1 IN
000953:    5350           40115                           CS       MPAC                                  #  ADDRESSES INDICATED BY C(A) AT ENTRY.
000954:    5351           20103                           INDEX    TEM4
000955:    5352           50000                           TS       0
000956:    5353           40116                           CS       MPAC       +1
000957:    5354           20103                           INDEX    TEM4
000958:    5355           50001                           TS       1
000959:    5356           00001                           TC       Q
000960:
000961:    5357           10066        VXSC1              CCS      NEWEQIND                              #  DP VECTOR TIMES SCALAR
000962:    5360           04754                           TC       VECSET                                #  LOAD INSTRUCTION
000963:    5361           10065                           CCS      MODE                                  #  IF NOT, WHICH MODE ARE WE IN
000964:    5362           00007        SEVEN              OCT      7
000965:    5363           77762        MINUS13            DEC      -13        B-14
000966:
000967:    5364           05370                           TC       VECCHECK
000968:
000969:    5365           30062                           XCH      ADDRWD
000970:    5366           65777                           AD       BUGBITS                               #  TO CALL IN MP
000971:    5367           05372                           TC       VXSC2
000972:
000973:    5370           04611        VECCHECK           TC       VCA1                                  #  USE ADDRWD TO LOAD VECTOR
000974:    5371           34231                           CAF      BUGMPAC
000975:
000976:                                                                                                  # # Page 63
000977:
000978:    5372           50103        VXSC2              TS       TEM4
000979:    5373           40070                           CS       VACLOC
000980:    5374           40000                           COM
000981:    5375           05102                           TC       DMP1
000982:    5376           05442                           TC       PREROUND
000983:    5377           05466                           TC       STB
000984:    5400           05412                           TC       INCRT2
000985:    5401           05102                           TC       DMP1
000986:    5402           05444                           TC       ROUND
000987:    5403           05466                           TC       STB
000988:    5404           05412                           TC       INCRT2
000989:    5405           05102                           TC       DMP1
000990:    5406           05444                           TC       ROUND
000991:    5407           05466                           TC       STB
000992:    5410           45501        ZEROEXIT           CS       ZERO                                  #  CHANGE MODE TO VECTOR
000993:    5411           05240                           TC       DPEXIT     +1
000994:
000995:    5412     4024               INT1               EQUALS   DANZIG
000996:
000997:    5412           30102        INCRT2             XCH      TEM2
000998:    5413           65503                           AD       TWO
000999:    5414           50102                           TS       TEM2
001000:    5415           00001                           TC       Q
001001:
001002:                                                                                                  # # Page 64
001003:
001004:    5416           30117        SHORTMP            XCH      MPAC       +2                         #  MULTIPLY THE CONTENTS OF MPAC,MPAC+1,
001005:    5417           25777                           EXTEND                                         #  MPAC+2 BY THE SINGLE PRECISION NUMBER
001006:    5420           40117                           MP       MPAC       +2                         #  ARRIVING IN A.
001007:    5421           30117                           XCH      MPAC       +2
001008:
001009:    5422           30116        SHORTMP2           XCH      MPAC       +1                         #  FASTER BUT SLOPPIER VERSION FOR DP
001010:    5423           25777                           EXTEND
001011:    5424           40116                           MP       MPAC       +1
001012:    5425           50034                           TS       OVCTR
001013:    5426           30003                           XCH      LP
001014:    5427           60117                           AD       MPAC       +2                         #  THE SHORTMP2 RESULT WILL BE OFF IN THE
001015:    5430           30117                           XCH      MPAC       +2                         #    LAST BIT IF THIS AD OVERFLOWS.
001016:    5431           30115                           XCH      MPAC
001017:    5432           25777                           EXTEND
001018:    5433           40116                           MP       MPAC       +1
001019:    5434           30034                           XCH      OVCTR
001020:    5435           60003                           AD       LP
001021:    5436           30116                           XCH      MPAC       +1
001022:    5437           30034                           XCH      OVCTR                                 #  ARGUMENT IN OVCTR UPON EXIT
001023:    5440           50115                           TS       MPAC
001024:    5441           00001                           TC       Q
001025:
001026:    5442           34731        PREROUND           CAF      TCBUF
001027:    5443           50105                           TS       TEM8
001028:
001029:    5444           35501        ROUND              CAF      ZERO                                  #  ROUND THE TRIPLE-PRECISION NUMBER WHOSE
001030:    5445           20105                           INDEX    TEM8                                  #  ADDRESS IS IN TEM8 TO DOUBLE-PRECISION,
001031:    5446           30002                           XCH      2                                     #  SETTING THE LOWEST ORDER OF THE THREE
001032:    5447           60000                           DOUBLE                                         #  WORDS TO ZERO IN THE PROCESS
001033:    5450           50034                           TS       OVCTR
001034:    5451           00001                           TC       Q                                     #  DONE IF DOESNT SKIP
001035:
001036:    5452           20105                           INDEX    TEM8
001037:    5453           60001                           AD       1
001038:    5454           20105                           INDEX    TEM8
001039:    5455           50001                           TS       1
001040:    5456           00001                           TC       Q
001041:
001042:    5457           20105                           INDEX    TEM8
001043:    5460           60000                           AD       0
001044:    5461           20105                           INDEX    TEM8
001045:    5462           50000                           TS       0                                     #  ANY CARRIES BEYOND THIS POINT ARE
001046:    5463           00001                           TC       Q                                     #  OVERFLOW
001047:
001048:    5464           50122                           TS       OVFIND
001049:    5465           00001                           TC       Q
001050:
001051:                                                                                                  # # Page 65
001052:
001053:    5466           40077        STB                CS       BUF
001054:    5467           20102                           INDEX    TEM2
001055:    5470           50000                           TS       0
001056:    5471           40100                           CS       BUF        +1
001057:    5472           20102                           INDEX    TEM2
001058:    5473           50001                           TS       1
001059:    5474           00001                           TC       Q
001060:
001061:    5475           00071        K2                 0        VBUF
001062:    5476           00073                           0        VBUF       +2
001063:    5477           00075                           0        VBUF       +4
001064:
001065:    5500     5473               STORTEST           EQUALS   K2         -2
001066:
001067:    5500           00002        SEQ                OCT      2
001068:    5501           00000        ZERO               OCT      0
001069:    5502           00004        FOUR               OCT      4
001070:    5503           00002        TWO                OCT      2
001071:    5504           77777        NEG0               OCT      -0
001072:
001073:    5505           04754        VPROJ1             TC       VECSET                                #  VECTOR PROJECT
001074:    5506           05246                           TC       DOT2                                  #  LEAVES (VAC,X)VAC IN VAC
001075:    5507           04742                           TC       DACCOM
001076:    5510           05371                           TC       VXSC2      -1                         #  FINISH IN VXSC (USING MPAC)
001077:
001078:    5511           04754        CROSS1             TC       VECSET                                #  DP VECTOR CROSS PRODUCT (BOTH WAYS)
001079:    5512           34731                           XCH      TCBUF
001080:    5513           30062                           XCH      ADDRWD
001081:    5514           65777                           AD       BUGBITS                               #  AGAIN FOR MP
001082:    5515           50104                           TS       BASE
001083:    5516           65503                           AD       TWO                                   #  WHERE THE VECTOR X IS THAT ADDRESSED
001084:    5517           50103                           TS       TEM4                                  #  BY THE ORDER, AND V IS C(VAC).
001085:    5520           35503                           XCH      TWO
001086:
001087:                                                                                                  # # Page 66
001088:
001089:    5521           50107        LUP                TS       IND
001090:    5522           20107                           INDEX    IND
001091:    5523           35500                           XCH      SEQ
001092:    5524           60070                           AD       VACLOC
001093:    5525           05102                           TC       DMP1
001094:    5526           20107                           INDEX    IND
001095:    5527           35502                           XCH      SEQ        +2
001096:    5530           65475                           AD       K2
001097:    5531           50105                           TS       TEM6
001098:    5532           50102                           TS       TEM2
001099:    5533           05466                           TC       STB
001100:    5534           20107                           INDEX    IND
001101:    5535           35500                           XCH      SEQ
001102:    5536           60104                           AD       BASE
001103:    5537           50103                           TS       TEM4
001104:    5540           20107                           INDEX    IND
001105:    5541           35501                           XCH      SEQ        +1
001106:    5542           60070                           AD       VACLOC
001107:    5543           05102                           TC       DMP1
001108:    5544           30105                           XCH      TEM6
001109:    5545           05020                           TC       DAD1
001110:    5546           10107                           CCS      IND
001111:    5547           05521                           TC       LUP
001112:
001113:    5550           35475        CREXIT             XCH      K2
001114:    5551           50062                           TS       ADDRWD
001115:    5552           04616                           TC       VCS1                                  #  VXV
001116:    5553           04024        LDANZIG            TC       DANZIG
001117:
001118:                                                                                                  # # Page 67
001119:
001120:                                                                                                  #  DOUBLE-PRECISION POLYNOMIAL EVALUATION ROUTINE.
001121:
001122:                                                                                                  #  PROGRAM ENTRY
001123:                                                                                                  #
001124:                                                                                                  #  L             TC      POLY
001125:                                                                                                  #                                                                    N
001126:                                                                                                  #  L+1           OCT     -2N             COMPUTES A  +A X + ... + A X , WHERE
001127:                                                                                                  #                                                  0   1           N
001128:                                                                                                  #  L+2           D.P.    - A             X = C(MPAC).
001129:                                                                                                  #                           0
001130:
001131:                                                                                                  #  -   -   -   -   -   -   -   -
001132:
001133:                                                                                                  #  L+2+N         D.P.    - A
001134:                                                                                                  #                           N
001135:
001136:                                                                                                  #  L+4+2N        NEXT OPERATION
001137:
001138:    5554           35610        POLY               CAF      BUGBITS2                              #  CONTAINS XCADR VBUF
001139:    5555           50103                           TS       TEM4
001140:    5556           35501                           CAF      ZERO                                  #  ZERO INTO BUF, BUF+1 TO START POLYLUP
001141:    5557           50077                           TS       BUF
001142:    5560           50100                           TS       BUF        +1
001143:
001144:    5561           30115                           XCH      MPAC                                  #  ARGUMENT  X  INTO 6T, 7T
001145:    5562           50071                           TS       VBUF                                  #  TEMPORARY STORAGE
001146:    5563           30116                           XCH      MPAC       +1
001147:    5564           50072                           TS       VBUF       +1
001148:
001149:    5565           34772                           CAF      DAD2       +4                         #  ADDRESS OF MPAC
001150:    5566           50102                           TS       TEM2
001151:
001152:    5567           20001                           INDEX    Q                                     #  2N  INTO 10T
001153:    5570           30000                           CAF      0
001154:    5571           50107                           TS       TEM10
001155:    5572           60001                           AD       Q                                     #  EXIT ADDRESS INTO 11T
001156:    5573           64473                           AD       THREE
001157:    5574           50106                           TS       TEM9
001158:    5575           05601                           TC       POLYLUP    +3
001159:
001160:                                                                                                  # # Page 68
001161:
001162:    5576           50107        POLYLUP            TS       TEM10
001163:    5577           05103                           TC       DMP1       +1
001164:
001165:    5600           30062                           XCH      ADDRWD
001166:    5601           64340                 +3        AD       NEG2                                  #  REDUCE COEFFICIENT INDEX BY 1
001167:    5602           50062                           TS       ADDRWD                                #  COEFFICIENT LOC IN ADDRWD FOR USE BY
001168:    5603           04526                           TC       TCS1       +2                         #  -BUF,BUF+1 INTO MPAC,MPAC+1
001169:    5604           05021                           TC       DAD1       +1                         #  - COEFF + (BUF) INTO BUF
001170:
001171:    5605           10107                           CCS      TEM10
001172:    5606           64335                           AD       NEG1                                  #  THE AD NEG1 ORDER, -0 WILL BE THE END
001173:    5607           05576                           TC       POLYLUP
001174:
001175:    5610           50070        BUGBITS2           XCADR    VBUF                                  #  USED BY POLY
001176:
001177:    5611           00106                           TC       TEM9                                  #  RETURN
001178:
001179:                                                                                                  # # Page 69
001180:
001181:    5612           40061        ITCF               CS       BANKSET                               #  ITC - UNCONDITIONAL TRANSFER
001182:    5613           30121                           XCH      ADRLOC                                #  PLACE IN QPRET THE POLISH ADDRESS OF
001183:    5614           74606                           MASK     LOW10                                 #  THE NEXT EQUATION. ITC MUST BE THE LAST
001184:    5615           60121                           AD       ADRLOC                                #  NON-BLANK OPERATOR IN AN EQUATION
001185:    5616           64516                           AD       ONE
001186:    5617           20067                           INDEX    FIXLOC
001187:    5620           50052                           TS       QPRET
001188:    5621           10062                           CCS      ADDRWD
001189:    5622           04001                           TC       INTPRET    +1                         #  BANKREG ALREADY SET
001190:
001191:    5623           10122        BOVF               CCS      OVFIND                                #  BRANCH IF OVERFLOW INDICATOR IS ON
001192:    5624           05626                           TC       +2                                    #  OVFIND CAN BE EITHER -1, 0, OR +1
001193:    5625           04024                           TC       DANZIG                                #  IT WAS OFF - DISPATCH NEXT OPERATOR.
001194:    5626           50122                           TS       OVFIND                                #  IT WAS ON - SET TO 0 (OFF)
001195:    5627           04567                           TC       DOBR                                  #  AND DO THE BRANCH
001196:
001197:    5630           04754        VSLT1              TC       VECSET                                #  DP VECTOR SHIFT LEFT
001198:    5631           50015                           TS       BANKREG
001199:    5632           06477                           TC       VSLT2
001200:
001201:    5633           04754        VSRT1              TC       VECSET                                #  DP VECTOR SHIFT RIGHT
001202:    5634           50116                           TS       MPAC       +1                         #  SET SHIFTING BIT IN MPAC,MPAC+1
001203:    5635           50015                           TS       BANKREG                               #  CALL IN BANK ZERO.
001204:    5636           06042                           TC       TRUE2                                 #  GET INTEGER ADDRESS
001205:    5637           65363                           AD       NEG13
001206:    5640           10000                           CCS      A
001207:    5641           05650                           TC       VSRT3
001208:    5642           77761        NEG14              DEC      -14        B-14
001209:    5643           05644                           TC       +1
001210:    5644           20062                           INDEX    ADDRWD
001211:    5645           34500                           CAF      BIT15
001212:    5646           50115                           TS       MPAC
001213:    5647           05371                           TC       VECCHECK   +1                         #  FINISH IN VXSC ROUTINE.
001214:
001215:    5650           20000        VSRT3              INDEX    A
001216:    5651           34501                           CAF      BIT14
001217:    5652           30116                           XCH      MPAC       +1                         #  WHICH PREVIOUSLY CONTAINED A ZERO
001218:    5653           05646                           TC       VSRT3      -2
001219:
001220:    5777                                           SETLOC   5777                                  #  STANDARD LOCATION FOR EXTENDING BITS
001221:
001222:    5777           47777        OPOVF              XCADR    0

End of include-file FIXED-FIXED_INTERPRETER_SECTION.agc.  Parent file is MAIN.agc


