
Source Code


000002:                                                                                                  #  Copyright:    Public domain.
000003:                                                                                                  #  Filename:     IMU_PERFORMANCE_TESTS_1.agc
000004:                                                                                                  #  Purpose:      Part of the source code for Solarium build 55. This
000005:                                                                                                  #                is for the Command Module's (CM) Apollo Guidance
000006:                                                                                                  #                Computer (AGC), for Apollo 6.
000007:                                                                                                  #  Assembler:    yaYUL --block1
000008:                                                                                                  #  Contact:      Jim Lawton <jim DOT lawton AT gmail DOT com>
000009:                                                                                                  #  Website:      www.ibiblio.org/apollo/index.html
000010:                                                                                                  #  Page scans:   www.ibiblio.org/apollo/ScansForConversion/Solarium055/
000011:                                                                                                  #  Mod history:  2009-10-04 JL   Created.
000012:                                                                                                  #                2009-10-30 JL   Fixed filename comment.
000013:                                                                                                  #                2016-08-20 RSB  Typos
000014:                                                                                                  #                2016-08-23 RSB  More of the same.
000015:
000016:                                                                                                  # # Page 392
000017:
000018: 12,6000                                           SETLOC   24000
000019:
000020: 12,6000           45501        ALGNTST            CS       ZERO                                  #  SXT-NB-IMU FINE ALIGNMENT TEST
000021: 12,6001           50677                           TS       CDUIND
000022: 12,6002           05654                           TC       BANKCALL
000023: 12,6003           30000                           CADR     IMUZERO
000024:
000025: 12,6004           35501        OPTDATA            CAF      ZERO                                  #  CHECK TARGET AZIMUTH AND ELEVATION
000026: 12,6005           51400                           TS       STARS
000027: 12,6006           64516                           AD       ONE
000028: 12,6007           50620                           TS       DSPTEM1    +2
000029: 12,6010           37740                           CAF      V05N30E
000030: 12,6011           03100                           TC       NVSUB
000031: 12,6012           03315                           TC       PRENVBSY
000032: 12,6013           21400                           INDEX    STARS
000033: 12,6014           31346                           XCH      TAZ
000034: 12,6015           50616                           TS       DSPTEM1
000035: 12,6016           21400                           INDEX    STARS
000036: 12,6017           31350                           XCH      TEL
000037: 12,6020           50617                           TS       DSPTEM1    +1
000038: 12,6021           07162                           TC       CHECKLD                               #  R1 = AZIMUTH = +XXX.XX
000039: 12,6022           00661                           OCT      00661                                 #  R2 = ELEVATION = +XX.XXX
000040: 12,6023           07406                           TC       ENDTEST
000041: 12,6024           30616                           XCH      DSPTEM1
000042: 12,6025           21400                           INDEX    STARS
000043: 12,6026           51346                           TS       TAZ
000044: 12,6027           30617                           XCH      DSPTEM1    +1
000045: 12,6030           21400                           INDEX    STARS
000046: 12,6031           51350                           TS       TEL
000047: 12,6032           11400                           CCS      STARS
000048: 12,6033           06036                           TC       +3
000049: 12,6034           34516                           CAF      ONE
000050: 12,6035           06005                           TC       OPTDATA    +1
000051:
000052: 12,6036           51213                           TS       COARSAGN
000053: 12,6037           51313                           TS       EROPTN
000054: 12,6040           50035                           TS       TIME2
000055: 12,6041           51224                           TS       NDXCTR
000056: 12,6042           67741                           AD       72DEC
000057: 12,6043           51307                           TS       MAXPTS2
000058:
000059: 12,6044           05654                           TC       BANKCALL
000060: 12,6045           70515                           CADR     LATAZCHK
000061:
000062: 12,6046           05654                           TC       BANKCALL
000063: 12,6047           70552                           CADR     TARGSM
000064:
000065: 12,6050           37742        POSLOAD            CAF      V21N30E                               #  R1 POSITION 1,2,3
000066: 12,6051           03100                           TC       NVSUB
000067: 12,6052           03315                           TC       PRENVBSY
000068: 12,6053           03136                           TC       ENDIDLE
000069:                                                                                                  # # Page 393
000070: 12,6054           07406                           TC       ENDTEST
000071: 12,6055           06050                           TC       -5
000072: 12,6056           30616                           XCH      DSPTEM1
000073: 12,6057           51223                           TS       POSITON
000074: 12,6060           40000                           COM
000075: 12,6061           74514                           MASK     BIT3
000076: 12,6062           10000                           CCS      A
000077: 12,6063           06065                           TC       +2
000078: 12,6064           07107                           TC       DSPYLOAD
000079: 12,6065           34516                           CAF      ONE
000080: 12,6066           51305                           TS       COAROFIN
000081: 12,6067           05654                           TC       BANKCALL
000082: 12,6070           70241                           CADR     FINDNAVB                              #  COARSE ALIGN MARKS
000083: 12,6071           05654                           TC       BANKCALL
000084: 12,6072           30331                           CADR     IMUSTALL                              #  WAIT FOR IMUZERO COMPLETION
000085: 12,6073           07406                           TC       ENDTEST
000086:
000087:
000088:
000089: 12,6074           05654                           TC       BANKCALL
000090: 12,6075           71037                           CADR     POSNJUMP
000091:
000092: 12,6076           05654        POSNRETN           TC       BANKCALL
000093: 12,6077           70444                           CADR     PUTPOSX
000094:
000095: 12,6100           11213                           CCS      COARSAGN
000096: 12,6101           06103                           TC       +2
000097: 12,6102           06106                           TC       +4
000098: 12,6103           10215                           CCS      NEWJOB
000099: 12,6104           02101                           TC       CHANG1
000100: 12,6105           06100                           TC       -5
000101: 12,6106           07331                           TC       OGCZERO
000102:
000103: 12,6107           05654                           TC       BANKCALL
000104: 12,6110           30143                           CADR     IMUFINE                               #  INITIATE FINE ALIGN MODE
000105: 12,6111           05654                           TC       BANKCALL
000106: 12,6112           30331                           CADR     IMUSTALL                              #  WAIT FOR IMUFINE COMPLETION
000107: 12,6113           07406                           TC       ENDTEST
000108:
000109: 12,6114           35501                           CAF      ZERO
000110: 12,6115           51305                           TS       COAROFIN
000111: 12,6116           05654                           TC       BANKCALL
000112: 12,6117           70241                           CADR     FINDNAVB                              #  FINE ALIGN MARKS
000113: 12,6120           03362                           TC       FREEDSP
000114: 12,6121           05654                           TC       BANKCALL
000115: 12,6122           70461                           CADR     SMDCALC                               #  FINE ALIGN TORQUING
000116: 12,6123           05654                           TC       BANKCALL
000117: 12,6124           30331                           CADR     IMUSTALL                              #  WAIT FOR PULSING COMPLETION
000118: 12,6125           07406                           TC       ENDTEST
000119:
000120:                                                                                                  # # Page 394
000121:
000122: 12,6126           05654        ERFINAL            TC       BANKCALL
000123: 12,6127           71515                           CADR     STOPHOR
000124: 12,6130           11313        ERRETN             CCS      EROPTN
000125: 12,6131           06126                           TC       ERFINAL
000126: 12,6132           06134                           TC       +2
000127: 12,6133           07406                           TC       ENDTEST
000128: 12,6134           20017                           INHINT
000129: 12,6135           07277                           TC       TPTIME
000130: 12,6136           20016                           RELINT
000131: 12,6137           35501                           CAF      ZERO
000132: 12,6140           50044                           TS       PIPAX
000133: 12,6141           50045                           TS       PIPAY
000134: 12,6142           50046                           TS       PIPAZ
000135: 12,6143           51230                           TS       STOREPL
000136: 12,6144           51224                           TS       NDXCTR                                #  UPDATE STORAGE LOCATION
000137: 12,6145           05654                           TC       BANKCALL
000138: 12,6146           70660                           CADR     STORRSLT
000139: 12,6147           20017                           INHINT
000140: 12,6150           37743                           CAF      60SEC
000141: 12,6151           02173                           TC       WAITLIST
000142: 12,6152           24155                           CADR     PIP1
000143: 12,6153           36202                           CAF      PIP2ADR
000144: 12,6154           02127                           TC       JOBSLEEP
000145:
000146: 12,6155           36202        PIP1               CAF      PIP2ADR
000147: 12,6156           02060                           TC       JOBWAKE
000148: 12,6157           02256                           TC       TASKOVER
000149:
000150: 12,6160           41226        PIP2               CS       PIPNDX
000151: 12,6161           51221                           TS       PIPINDEX
000152: 12,6162           06613                           TC       CHECKG
000153: 12,6163           20016                           RELINT
000154: 12,6164           05654                           TC       BANKCALL
000155: 12,6165           70660                           CADR     STORRSLT
000156: 12,6166           41227                           CS       PIPNDX     +1
000157: 12,6167           51221                           TS       PIPINDEX
000158: 12,6170           06613                           TC       CHECKG
000159: 12,6171           20016                           RELINT
000160: 12,6172           05654                           TC       BANKCALL
000161: 12,6173           70660                           CADR     STORRSLT
000162: 12,6174           20017                           INHINT
000163: 12,6175           37744                           CAF      30SEC
000164: 12,6176           02173                           TC       WAITLIST
000165: 12,6177           24155                           CADR     PIP1
000166: 12,6200           36202                           CAF      PIP2ADR
000167: 12,6201           02127                           TC       JOBSLEEP
000168: 12,6202           24160        PIP2ADR            CADR     PIP2
000169:
000170:                                                                                                  # # Page 395
000171:
000172: 12,6203           37742        GYROTORK           CAF      V21N30E
000173: 12,6204           03100                           TC       NVSUB
000174: 12,6205           03315                           TC       PRENVBSY
000175: 12,6206           03136                           TC       ENDIDLE
000176: 12,6207           07406                           TC       ENDTEST
000177: 12,6210           06211                           TC       +1
000178: 12,6211           30616                           XCH      DSPTEM1
000179: 12,6212           51561                           TS       TESTNO
000180: 12,6213           51570                           TS       CALCDIR
000181: 12,6214           03362                           TC       FREEDSP
000182: 12,6215           34502                           CAF      QUARTER
000183: 12,6216           51316                           TS       AZIMUTH
000184: 12,6217           51214                           TS       GENPL      +76D
000185: 12,6220           34475                           CAF      SIX
000186: 12,6221           51231                           TS       NBPOS
000187: 12,6222           11561                           CCS      TESTNO
000188: 12,6223           51561                           TS       TESTNO
000189: 12,6224           06231                           TC       +5
000190: 12,6225           51561                           TS       TESTNO
000191: 12,6226           46365                           CS       BURSTPOS
000192: 12,6227           51562                           TS       SAVE
000193: 12,6230           06233                           TC       +3
000194: 12,6231           36365                           CAF      BURSTPOS
000195: 12,6232           51562                           TS       SAVE
000196: 12,6233           41561                           CS       TESTNO
000197: 12,6234           65503                           AD       TWO
000198: 12,6235           51566                           TS       NEGCDU2
000199: 12,6236           10000                           CCS      A
000200: 12,6237           34516                           CAF      ONE
000201: 12,6240           06243                           TC       +3
000202: 12,6241           06242                           TC       +1
000203: 12,6242           34473                           CAF      THREE
000204: 12,6243           51223                           TS       POSITON
000205: 12,6244           06540                           TC       STEVEIN
000206:
000207:
000208:
000209: 12,6245           41566        TORK               CS       NEGCDU2
000210: 12,6246           40000                           COM
000211: 12,6247           10000                           CCS      A
000212: 12,6250           21561                           INDEX    TESTNO
000213: 12,6251           40047                           CS       CDUX
000214: 12,6252           06254                           TC       +2
000215: 12,6253           40047                           CS       CDUX
000216: 12,6254           51565                           TS       NEGCDU1
000217: 12,6255           41561                           CS       TESTNO
000218: 12,6256           40000                           COM
000219: 12,6257           61561                           AD       TESTNO
000220: 12,6260           51567                           TS       LOCNO
000221: 12,6261           36366                           CAF      ITERNO
000222:                                                                                                  # # Page 396
000223: 12,6262           51571        BLOGS              TS       BUBBLE
000224: 12,6263           20017                           INHINT
000225: 12,6264           36367                           CAF      TIMEINCR
000226: 12,6265           02173                           TC       WAITLIST
000227: 12,6266           24313                           CADR     WAKEUP
000228: 12,6267           20016                           RELINT
000229: 12,6270           34477                           CAF      FIVE
000230: 12,6271           51563                           TS       PLOW
000231: 12,6272           35501                           CAF      ZERO
000232: 12,6273           21563                           INDEX    PLOW
000233: 12,6274           51234                           TS       GYROD
000234: 12,6275           11563                           CCS      PLOW
000235: 12,6276           06271                           TC       -5
000236: 12,6277           41562                           CS       SAVE
000237: 12,6300           40000                           COM
000238: 12,6301           21567                           INDEX    LOCNO
000239: 12,6302           51235                           TS       GYROD      +1
000240: 12,6303           36370                           CAF      LLGYROD
000241: 12,6304           05654                           TC       BANKCALL
000242: 12,6305           31347                           CADR     GYROSPNT
000243: 12,6306           05654                           TC       BANKCALL
000244: 12,6307           30331                           CADR     IMUSTALL
000245: 12,6310           07406                           TC       ENDTEST
000246: 12,6311           36371                           CAF      WAKECADR
000247: 12,6312           02127                           TC       JOBSLEEP
000248: 12,6313           36371        WAKEUP             CAF      WAKECADR
000249: 12,6314           02060                           TC       JOBWAKE
000250: 12,6315           02256                           TC       TASKOVER
000251: 12,6316           11571        WAKE               CCS      BUBBLE
000252: 12,6317           06262                           TC       BLOGS
000253: 12,6320           41566                           CS       NEGCDU2
000254: 12,6321           40000                           COM
000255: 12,6322           10000                           CCS      A
000256: 12,6323           21561                           INDEX    TESTNO
000257: 12,6324           40047                           CS       CDUX
000258: 12,6325           06327                           TC       +2
000259: 12,6326           40047                           CS       CDUX
000260: 12,6327           51566                           TS       NEGCDU2
000261: 12,6330           11570                           CCS      CALCDIR                               #  DONE TO INSURE PROPER SIGN
000262: 12,6331           41565                           CS       NEGCDU1
000263: 12,6332           06336                           TC       +4
000264: 12,6333           41566                           CS       NEGCDU2
000265: 12,6334           51566                           TS       NEGCDU2
000266: 12,6335           06337                           TC       +2
000267: 12,6336           51565                           TS       NEGCDU1
000268: 12,6337           20017                           INHINT
000269: 12,6340           41566                           CS       NEGCDU2
000270: 12,6341           40000                           CS       A
000271: 12,6342           50600                           TS       ITEMP2
000272: 12,6343           41565                           CS       NEGCDU1
000273:                                                                                                  # # Page 397
000274: 12,6344           05654                           TC       BANKCALL
000275: 12,6345           21410                           CADR     2SCOMDIF
000276: 12,6346           20016                           RELINT
000277: 12,6347           51564                           TS       CUSSANG
000278: 12,6350           25777                           EXTEND
000279: 12,6351           44477                           MP       FIVE
000280: 12,6352           40003                           CS       LP
000281: 12,6353           50616                           TS       DSPTEM1
000282: 12,6354           03302                           TC       GRABDSP
000283: 12,6355           03310                           TC       PREGBSY
000284: 12,6356           05654                           TC       BANKCALL
000285: 12,6357           14000                           CADR     FLASHON
000286: 12,6360           37745                           CAF      V07N30E
000287: 12,6361           03100                           TC       NVSUB
000288: 12,6362           03315                           TC       PRENVBSY
000289: 12,6363           03136                           TC       ENDIDLE
000290: 12,6364           07406                           TC       ENDTEST
000291:
000292:
000293:
000294: 12,6365           00400        BURSTPOS           DEC      256        B-14
000295: 12,6366           07777        ITERNO             DEC      4095       B-14
000296: 12,6367           00030        TIMEINCR           DEC      24         B-14
000297: 12,6370           01235        LLGYROD            ADRES    GYROD      +1
000298: 12,6371           24316        WAKECADR           CADR     WAKE
000299:
000300:                                                                                                  # # Page 398
000301:
000302:                                                                                                  #  THIS IS A ROUGH CHECK PROGRAM FOR THE IMU GYROS AND ACCELEROMETERS
000303:
000304: 12,6372           34502        IMUCHK             CAF      QUARTER
000305: 12,6373           51316                           TS       AZIMUTH
000306: 12,6374           03362                           TC       FREEDSP
000307: 12,6375           35501                           CAF      ZERO
000308: 12,6376           51317                           TS       AZIMUTH    +1
000309: 12,6377           34475                           CAF      SIX
000310: 12,6400           51231                           TS       NBPOS
000311: 12,6401           34513                           CAF      BIT4
000312: 12,6402           51223                           TS       POSITON
000313: 12,6403           40000                           CS       A
000314: 12,6404           51214                           TS       GENPL      +76D
000315: 12,6405           06540                           TC       STEVEIN
000316:
000317: 12,6406           05654        IMUCHKR            TC       BANKCALL                              #  CHECKS COARSE ALIGN AND GYRO TORQUING
000318: 12,6407           30205                           CADR     IMULOCK                               #  CHECK ALL MODE SWITCHING
000319: 12,6410           05654                           TC       BANKCALL
000320: 12,6411           30331                           CADR     IMUSTALL
000321: 12,6412           07406                           TC       ENDTEST
000322:
000323: 12,6413           05654                           TC       BANKCALL
000324: 12,6414           30216                           CADR     IMUREENT
000325: 12,6415           05654                           TC       BANKCALL
000326: 12,6416           30331                           CADR     IMUSTALL
000327: 12,6417           07406                           TC       ENDTEST
000328:
000329: 12,6420           05654                           TC       BANKCALL
000330: 12,6421           30143                           CADR     IMUFINE
000331: 12,6422           35501                           CAF      ZERO
000332: 12,6423           50044                           TS       PIPAX
000333: 12,6424           50045                           TS       PIPAY
000334: 12,6425           50046                           TS       PIPAZ
000335: 12,6426           05654                           TC       BANKCALL
000336: 12,6427           30331                           CADR     IMUSTALL
000337: 12,6430           07406                           TC       ENDTEST
000338:
000339: 12,6431           34516                           CAF      ONE
000340: 12,6432           51224                           TS       RESULTCT
000341: 12,6433           51223                           TS       POSITON
000342:
000343: 12,6434           35503        IMUCHK1            CAF      TWO                                   #  MEASURE TIME OF OCCURRENCE OF EACH
000344: 12,6435           51221        IMUCHK2            TS       PIPINDEX                              #  PIP PULSE. ALSO STORE VELOCITY
000345: 12,6436           20017                           INHINT
000346: 12,6437           06613                           TC       CHECKG
000347: 12,6440           40045                           CS       PIPAY
000348: 12,6441           40000                           CS       A
000349: 12,6442           21223                           INDEX    POSITON
000350: 12,6443           51300                           TS       DATAPL     +30D
000351: 12,6444           40046                           CS       PIPAZ
000352:                                                                                                  # # Page 399
000353: 12,6445           40000                           CS       A
000354: 12,6446           21223                           INDEX    POSITON
000355: 12,6447           51302                           TS       DATAPL     +32D
000356: 12,6450           20016                           RELINT
000357: 12,6451           07235                           TC       DATALD1
000358: 12,6452           31224                           XCH      RESULTCT
000359: 12,6453           64477                           AD       FIVE
000360: 12,6454           51224                           TS       RESULTCT
000361: 12,6455           11221                           CCS      PIPINDEX
000362: 12,6456           06435                           TC       IMUCHK2
000363: 12,6457           11223                           CCS      POSITON
000364: 12,6460           06462                           TC       +2
000365: 12,6461           06470                           TC       COMPUT
000366: 12,6462           51223                           TS       POSITON
000367: 12,6463           34511                           CAF      BIT6
000368: 12,6464           07355                           TC       WARTMAL
000369: 12,6465           11220                           CCS      COUNTPL
000370: 12,6466           07377                           TC       WARTMAL2
000371: 12,6467           06434                           TC       IMUCHK1
000372:
000373:
000374:
000375: 12,6470           35501        COMPUT             CAF      ZERO                                  #  CALC V1XV2 ANDROOT(GX)2+(GY)2+(GZ)2
000376: 12,6471           51242                           TS       DATAPL
000377: 12,6472           51247                           TS       DATAPL     +5
000378: 12,6473           51254                           TS       DATAPL     +10D
000379: 12,6474           31300                           XCH      DATAPL     +30D
000380: 12,6475           51305                           TS       DATAPL     +35D
000381: 12,6476           35501                           CAF      ZERO
000382: 12,6477           31302                           XCH      DATAPL     +32D
000383: 12,6500           51307                           TS       DATAPL     +37D
000384: 12,6501           35503                           CAF      TWO
000385: 12,6502           51261                           TS       DATAPL     +15D
000386: 12,6503           51266                           TS       DATAPL     +20D
000387: 12,6504           51273                           TS       DATAPL     +25D
000388: 12,6505           51304                           TS       DATAPL     +34D
000389: 12,6506           51306                           TS       DATAPL     +36D
000390:
000391: 12,6507           05654                           TC       BANKCALL
000392: 12,6510           71365                           CADR     CHKCALC
000393:
000394:                                                                                                  # # Page 400
000395:
000396: 12,6511           35501        GYDRFT             CAF      ZERO
000397: 12,6512           51232                           TS       TESTNDX
000398:
000399: 12,6513           34511        SFTSTIN            CAF      BIT6                                  #  PIP SCALE FACTOR TEST ENTRY
000400: 12,6514           51231                           TS       NBPOS
000401: 12,6515           35501                           CAF      ZERO
000402: 12,6516           51214                           TS       GENPL      +76D
000403: 12,6517           34516                           CAF      ONE
000404: 12,6520           51223                           TS       POSITON
000405:
000406: 12,6521           05654        GYRDRFT1           TC       BANKCALL
000407: 12,6522           70515                           CADR     LATAZCHK
000408:
000409: 12,6523           07226        GYRDRFT2           TC       SHOWLD                                #  LOAD NAVBASE TILT ANGLE IN DEGREES
000410: 12,6524           05654                           TC       BANKCALL
000411: 12,6525           25205                           CADR     SHOW
000412: 12,6526           03362                           TC       FREEDSP
000413: 12,6527           11231                           CCS      NBPOS                                 #  NUMBER IN POSITON.FOR VERTICAL DRIFT
000414: 12,6530           06536                           TC       LTNDX+                                #  TEST IN LAB LOAD + NUMBER IN TESTNDX
000415: 12,6531           06534                           TC       LTNDX0
000416: 12,6532           33232                           CAF      TEN
000417: 12,6533           06537                           TC       +4
000418: 12,6534           34475        LTNDX0             CAF      SIX
000419: 12,6535           06537                           TC       +2
000420: 12,6536           35501        LTNDX+             CAF      ZERO
000421: 12,6537           51231                           TS       NBPOS
000422:
000423: 12,6540           45501        STEVEIN            CS       ZERO
000424: 12,6541           50677                           TS       CDUIND
000425: 12,6542           40000                           CS       A
000426: 12,6543           51216                           TS       LTSTNDX
000427: 12,6544           05654                           TC       BANKCALL
000428: 12,6545           30000                           CADR     IMUZERO
000429: 12,6546           05654                           TC       BANKCALL
000430: 12,6547           30331                           CADR     IMUSTALL
000431: 12,6550           07406                           TC       ENDTEST
000432:
000433: 12,6551           05654                           TC       BANKCALL
000434: 12,6552           71131                           CADR     NBPOSPL
000435:
000436: 12,6553           05654        POSGMBL            TC       BANKCALL
000437: 12,6554           70444                           CADR     PUTPOSX
000438:
000439: 12,6555           05654                           TC       BANKCALL
000440: 12,6556           30143                           CADR     IMUFINE
000441: 12,6557           05654                           TC       BANKCALL
000442: 12,6560           30331                           CADR     IMUSTALL
000443: 12,6561           07406                           TC       ENDTEST
000444: 12,6562           40047                           CS       CDUX
000445: 12,6563           40000                           CS       A
000446:                                                                                                  # # Page 401
000447: 12,6564           27755                           INDEX    FLNDX12                               #  FIXED BY *UNEEDA* DEBUGGING SERVICE
000448: 12,6565           50006                           TS       6
000449: 12,6566           40050                           CS       CDUY
000450: 12,6567           40000                           CS       A
000451: 12,6570           27755                           INDEX    FLNDX12                               #  FIXED BY *UNEEDA* DEBUGGING SERVICE
000452: 12,6571           50002                           TS       2
000453: 12,6572           40051                           CS       CDUZ
000454: 12,6573           40000                           CS       A
000455: 12,6574           27755                           INDEX    FLNDX12                               #  FIXED BY *UNEEDA* DEBUGGING SERVICE
000456: 12,6575           50004                           TS       4
000457: 12,6576           05654                           TC       BANKCALL                              #  READ CDU ANGLES AND COMPLETE
000458: 12,6577           70732                           CADR     FALNE1
000459:
000460:
000461:
000462: 12,6600           11214        FALNED             CCS      GENPL      +76D
000463: 12,6601           06245                           TC       TORK
000464: 12,6602           06604                           TC       +2
000465: 12,6603           06406                           TC       IMUCHKR
000466: 12,6604           05654                           TC       BANKCALL
000467: 12,6605           71576                           CADR     FALNED1
000468:
000469:                                                                                                  # # Page 402
000470:
000471: 12,6606           37746        ACCELTST           CAF      NINTHOU
000472: 12,6607           51215                           TS       TESTTIME                              #  ACCELEROMETER OUTPUT TO GRAVITY
000473: 12,6610           45501                           CS       ZERO
000474: 12,6611           51232                           TS       TESTNDX
000475: 12,6612           06513                           TC       SFTSTIN
000476:
000477:                                                                                                  # # Page 403
000478:
000479: 12,6613           30001        CHECKG             XCH      Q                                     #  PIP PULSE CATCHING ROUTINE
000480: 12,6614           31225                           XCH      QPLACE
000481:
000482: 12,6615           20016        CHECKG1            RELINT
000483: 12,6616           10215                           CCS      NEWJOB
000484: 12,6617           02101                           TC       CHANG1
000485: 12,6620           20017                           INHINT
000486: 12,6621           35501                           CAF      ZERO
000487: 12,6622           21221                           INDEX    PIPINDEX
000488: 12,6623           30044                           XCH      PIPAX
000489: 12,6624           51230                           TS       STOREPL
000490: 12,6625           11230                           CCS      STOREPL
000491: 12,6626           06632                           TC       CHECKP
000492: 12,6627           06676                           TC       RESTORE1
000493: 12,6630           06645                           TC       CHECKM
000494: 12,6631           06676                           TC       RESTORE1
000495:
000496: 12,6632           34511        CHECKP             CAF      BIT6                                  #  LOOKS FOR ONE MORE   PULSE
000497: 12,6633           51222        CHECKP1            TS       PIPANO
000498: 12,6634           21221                           INDEX    PIPINDEX
000499: 12,6635           10044                           CCS      PIPAX
000500: 12,6636           06660                           TC       CHECKG3
000501: 12,6637           06642                           TC       +3
000502: 12,6640           06676                           TC       RESTORE1
000503: 12,6641           06642                           TC       +1
000504: 12,6642           11222                           CCS      PIPANO
000505: 12,6643           06633                           TC       CHECKP1
000506: 12,6644           06676                           TC       RESTORE1
000507: 12,6645           34511        CHECKM             CAF      BIT6                                  #  LOOK FOR ONE MORE  INUS
000508: 12,6646           51222        CHECKM1            TS       PIPANO
000509: 12,6647           21221                           INDEX    PIPINDEX
000510: 12,6650           10044                           CCS      PIPAX
000511: 12,6651           06676                           TC       RESTORE1
000512: 12,6652           06655                           TC       +3
000513: 12,6653           06660                           TC       CHECKG3
000514: 12,6654           06655                           TC       +1
000515: 12,6655           11222                           CCS      PIPANO
000516: 12,6656           06646                           TC       CHECKM1
000517: 12,6657           06676                           TC       RESTORE1
000518:
000519: 12,6660           07277        CHECKG3            TC       TPTIME
000520:
000521: 12,6661           34513                           CAF      BIT4
000522: 12,6662           51222        CHECKG5            TS       PIPANO
000523: 12,6663           21221                           INDEX    PIPINDEX
000524: 12,6664           10044                           CCS      PIPAX
000525: 12,6665           06671                           TC       +4
000526: 12,6666           06676                           TC       RESTORE1
000527: 12,6667           06671                           TC       +2
000528: 12,6670           06676                           TC       RESTORE1
000529:                                                                                                  # # Page 404
000530: 12,6671           11222                           CCS      PIPANO
000531: 12,6672           06662                           TC       CHECKG5
000532: 12,6673           06700        NREAD              TC       RESTORE
000533: 12,6674           51230                           TS       STOREPL
000534: 12,6675           01225                           TC       QPLACE
000535:
000536: 12,6676           06700        RESTORE1           TC       RESTORE
000537: 12,6677           06615                           TC       CHECKG1
000538:
000539: 12,6700           31230        RESTORE            XCH      STOREPL
000540: 12,6701           21221                           INDEX    PIPINDEX
000541: 12,6702           60044                           AD       PIPAX
000542: 12,6703           21221                           INDEX    PIPINDEX
000543: 12,6704           50044                           TS       PIPAX
000544: 12,6705           00001                           TC       Q
000545:
000546:                                                                                                  # # Page 405
000547:
000548: 12,6706           20017        WEIKPL             INHINT
000549: 12,6707           06613                           TC       CHECKG
000550: 12,6710           20016                           RELINT
000551: 12,6711           35502                           CAF      FOUR
000552: 12,6712           61224                           AD       RESULTCT
000553: 12,6713           51224                           TS       RESULTCT
000554: 12,6714           07235                           TC       DATALD1
000555: 12,6715           11220                           CCS      COUNTPL
000556: 12,6716           06734                           TC       DOSCTEST
000557: 12,6717           05654                           TC       BANKCALL
000558: 12,6720           71207                           CADR     RESULTS
000559:
000560:                                                                                                  # # Page 406
000561:
000562: 12,6721           11232        TSTJUMP            CCS      TESTNDX
000563: 12,6722           06751                           TC       LABTEST
000564: 12,6723           07416                           TC       SCRTEST
000565: 12,6724           06751                           TC       LABTEST
000566: 12,6725           34516        PIPTST             CAF      ONE                                   #  MEASURE PIP PULSE RATE FOR 90 SEC.
000567: 12,6726           51220                           TS       COUNTPL
000568: 12,6727           35501                           CAF      ZERO
000569: 12,6730           21221                           INDEX    PIPINDEX
000570: 12,6731           50044                           TS       PIPAX
000571: 12,6732           51224                           TS       RESULTCT
000572: 12,6733           06706                           TC       WEIKPL
000573:
000574: 12,6734           51220        DOSCTEST           TS       COUNTPL                               #  HORIZ DRIFT TEST SET UP TO
000575: 12,6735           20017                           INHINT                                         #  READ EAST PIP FOUR TIMES
000576: 12,6736           41215                           CS       TESTTIME
000577: 12,6737           40000                           CS       A
000578: 12,6740           02173                           TC       WAITLIST
000579: 12,6741           24745                           CADR     CARRYON
000580: 12,6742           20016                           RELINT
000581: 12,6743           36750                           CAF      CONCADR
000582: 12,6744           02127                           TC       JOBSLEEP
000583:
000584: 12,6745           36750        CARRYON            CAF      CONCADR
000585: 12,6746           02060                           TC       JOBWAKE
000586: 12,6747           02256                           TC       TASKOVER
000587:
000588: 12,6750           24706        CONCADR            CADR     WEIKPL
000589:
000590:                                                                                                  # # Page 407
000591:
000592: 12,6751           11216        LABTEST            CCS      LTSTNDX                               #  SET UP TO MEASURE VERTICAL DRIFT
000593: 12,6752           07066                           TC       CDUD
000594: 12,6753           35501                           CAF      ZERO
000595: 12,6754           51424                           TS       XSM
000596: 12,6755           51432                           TS       XSM        +6
000597: 12,6756           51440                           TS       XSM        +12D
000598: 12,6757           34511        CDUCK              CAF      BIT6
000599: 12,6760           51230        CDUCK1             TS       STOREPL
000600: 12,6761           07061                           TC       STOPHOR1
000601:
000602: 12,6762           11230                           CCS      STOREPL
000603: 12,6763           06760                           TC       CDUCK1
000604: 12,6764           35501                           CAF      ZERO
000605: 12,6765           21233                           INDEX    CDUNDX
000606: 12,6766           50047                           TS       CDUX
000607: 12,6767           34511        CDUCK2             CAF      BIT6
000608: 12,6770           51230        CDUCK3             TS       STOREPL
000609: 12,6771           21233                           INDEX    CDUNDX
000610: 12,6772           10047                           CCS      CDUX
000611: 12,6773           07003                           TC       CDUCK4
000612: 12,6774           06777                           TC       +3
000613: 12,6775           06760                           TC       CDUCK1
000614: 12,6776           07003                           TC       CDUCK4
000615: 12,6777           11230                           CCS      STOREPL
000616: 12,7000           06770                           TC       CDUCK3
000617: 12,7001           07061                           TC       STOPHOR1
000618: 12,7002           06767                           TC       CDUCK2
000619: 12,7003           02676        CDUCK4             TC       READTIME
000620: 12,7004           20016                           RELINT
000621: 12,7005           40572                           CS       RUPTSTOR
000622: 12,7006           51242                           TS       DATAPL
000623: 12,7007           40573                           CS       RUPTSTOR   +1
000624: 12,7010           51243                           TS       DATAPL     +1
000625: 12,7011           34473                           CAF      THREE
000626: 12,7012           51230        CDUCK5             TS       STOREPL
000627: 12,7013           07061                           TC       STOPHOR1
000628:
000629: 12,7014           11230                           CCS      STOREPL
000630: 12,7015           07012                           TC       CDUCK5
000631: 12,7016           21233                           INDEX    CDUNDX
000632: 12,7017           10047                           CCS      CDUX
000633: 12,7020           07024                           TC       POSPLS
000634: 12,7021           06760                           TC       CDUCK1
000635: 12,7022           06760                           TC       CDUCK1
000636: 12,7023           07032                           TC       NEGPLS
000637:
000638: 12,7024           41232        POSPLS             CS       TESTNDX                               #  INITIALIZES VERTICAL DRIFT TEST
000639: 12,7025           10000                           CCS      A
000640: 12,7026           07101                           TC       LONGTST
000641: 12,7027           30000                           NOOP
000642:                                                                                                  # # Page 408
000643: 12,7030           47747                           CS       SXTTR
000644: 12,7031           07037                           TC       +6
000645: 12,7032           41232        NEGPLS             CS       TESTNDX
000646: 12,7033           10000                           CCS      A
000647: 12,7034           07101                           TC       LONGTST
000648: 12,7035           30000                           NOOP
000649: 12,7036           37747                           CAF      SXTTR
000650: 12,7037           21233                           NDX      CDUNDX
000651: 12,7040           50047                           TS       CDUX
000652:
000653: 12,7041           07061        CDUCK6             TC       STOPHOR1
000654: 12,7042           34511                           CAF      BIT6
000655: 12,7043           51230        CDUCK7             TS       STOREPL
000656: 12,7044           21233                           INDEX    CDUNDX
000657: 12,7045           10047                           CCS      CDUX
000658: 12,7046           07052                           TC       +4
000659: 12,7047           07055                           TC       CDUD1
000660: 12,7050           07052                           TC       +2
000661: 12,7051           07055                           TC       CDUD1
000662: 12,7052           11230                           CCS      STOREPL
000663: 12,7053           07043                           TC       CDUCK7
000664: 12,7054           07041                           TC       CDUCK6
000665:
000666: 12,7055           34510        CDUD1              CAF      BIT7
000667: 12,7056           21233                           INDEX    CDUNDX
000668: 12,7057           50047                           TS       CDUX
000669: 12,7060           07066                           TC       CDUD
000670:
000671:
000672:
000673: 12,7061           30001        STOPHOR1           XCH      Q
000674: 12,7062           51225                           TS       QPLACE
000675: 12,7063           05654                           TC       BANKCALL
000676: 12,7064           71515                           CADR     STOPHOR
000677: 12,7065           01225                           TC       QPLACE
000678:
000679:                                                                                                  # # Page 409
000680:
000681: 12,7066           21233        CDUD               INDEX    CDUNDX
000682: 12,7067           30047                           XCH      CDUX
000683: 12,7070           51215                           TS       GENPL      +77D
000684: 12,7071           02676                           TC       READTIME
000685: 12,7072           20016                           RELINT
000686: 12,7073           40572                           CS       RUPTSTOR
000687: 12,7074           51244                           TS       DATAPL     +2
000688: 12,7075           40573                           CS       RUPTSTOR   +1
000689: 12,7076           51245                           TS       DATAPL     +3
000690: 12,7077           05654                           TC       BANKCALL
000691: 12,7100           71241                           CADR     CDUCALC
000692:
000693:
000694:
000695: 12,7101           37757        LONGTST            CAF      DECX                                  #   CHANGED BY MR. FIXIT.
000696: 12,7102           51230                           TS       STOREPL                               #  VERTICAL ERECTION FOR 14480 SECONDS
000697: 12,7103           34516                           CAF      ONE
000698: 12,7104           51216                           TS       LTSTNDX
000699: 12,7105           05654                           TC       BANKCALL
000700: 12,7106           71614                           CADR     FRECT      +2
000701: 12,7107           30001        DSPYLOAD           XCH      Q
000702: 12,7110           51225                           TS       QPLACE
000703: 12,7111           07113                           TC       +2
000704: 12,7112           51224                           TS       NDXCTR
000705: 12,7113           21224                           INDEX    NDXCTR
000706: 12,7114           41432                           CS       YSM
000707: 12,7115           40000                           COM
000708: 12,7116           50616                           TS       DSPTEM1
000709: 12,7117           21224                           INDEX    NDXCTR
000710: 12,7120           41433                           CS       YSM        +1
000711: 12,7121           40000                           COM
000712: 12,7122           50617                           TS       DSPTEM1    +1
000713: 12,7123           41224                           CS       NDXCTR
000714: 12,7124           40000                           COM
000715: 12,7125           67152                           AD       YSMCADR
000716: 12,7126           50620                           TS       DSPTEM1    +2
000717: 12,7127           05654                           TC       BANKCALL
000718: 12,7130           14000                           CADR     FLASHON
000719: 12,7131           37740                           CAF      V05N30E
000720: 12,7132           03100                           TC       NVSUB
000721: 12,7133           03315                           TC       PRENVBSY
000722: 12,7134           37745                           CAF      V07N30E
000723: 12,7135           03100                           TC       NVSUB
000724: 12,7136           03315                           TC       PRENVBSY
000725: 12,7137           03136                           TC       ENDIDLE                               #  WAIT FOR DATA OR PROCEED
000726: 12,7140           07406                           TC       ENDTEST
000727: 12,7141           07143                           TC       +2
000728: 12,7142           07113                           TC       DSPYLOAD   +4                         #  RE-DISPLAY IF DATA LOADED
000729: 12,7143           41224                           CS       NDXCTR
000730: 12,7144           63232                           AD       TEN
000731:                                                                                                  # # Page 410
000732: 12,7145           10000                           CCS      A
000733: 12,7146           35503                           CAF      TWO
000734: 12,7147           61224                           AD       NDXCTR
000735: 12,7150           07112                           TC       DSPYLOAD   +3
000736: 12,7151           01225                           TC       QPLACE
000737: 12,7152           01432        YSMCADR            CADR     YSM
000738:
000739:                                                                                                  # # Page 411
000740:
000741: 12,7153           05706        LATAZCK1           TC       MAKECADR
000742: 12,7154           51574                           TS       RETBB
000743: 12,7155           07162                           TC       CHECKLD
000744: 12,7156           00661                           OCT      00661
000745: 12,7157           07406                           TC       ENDTEST
000746: 12,7160           31574                           XCH      RETBB
000747: 12,7161           05723                           TC       BANKJUMP
000748:
000749:
000750:
000751: 12,7162           30001        CHECKLD            XCH      Q
000752: 12,7163           51310                           TS       QPLAC
000753: 12,7164           21310                           INDEX    QPLAC
000754: 12,7165           30000                           XCH      A
000755: 12,7166           03100                           TC       NVSUB
000756: 12,7167           07202                           TC       CHECKLD1
000757: 12,7170           05654                           TC       BANKCALL
000758: 12,7171           14000                           CADR     FLASHON
000759: 12,7172           03136                           TC       ENDIDLE
000760: 12,7173           07176                           TC       +3
000761: 12,7174           07200                           TC       +4
000762: 12,7175           07164                           TC       CHECKLD    +2
000763: 12,7176           21310                           INDEX    QPLAC
000764: 12,7177           00001                           TC       Q
000765: 12,7200           21310                           INDEX    QPLAC
000766: 12,7201           00002                           TC       2
000767: 12,7202           37204        CHECKLD1           CAF      CHECKLD2
000768: 12,7203           03320                           TC       NVSUBUSY
000769: 12,7204           25164        CHECKLD2           CADR     CHECKLD    +2
000770:
000771:                                                                                                  # # Page 412
000772:
000773: 12,7205           05706        SHOW               TC       MAKECADR
000774: 12,7206           51573                           TS       RETAA
000775: 12,7207           41223        SHOW1              CS       POSITON
000776: 12,7210           40000                           CS       A
000777: 12,7211           50623                           TS       DSPTEM2    +2
000778: 12,7212           05654                           TC       BANKCALL
000779: 12,7213           14000                           CADR     FLASHON
000780: 12,7214           37751                           CAF      VB06N66
000781: 12,7215           03100                           TC       NVSUB
000782: 12,7216           03315                           TC       PRENVBSY
000783: 12,7217           03136                           TC       ENDIDLE
000784: 12,7220           07406                           TC       ENDTEST
000785: 12,7221           07224                           TC       +3
000786: 12,7222           07226                           TC       SHOWLD
000787: 12,7223           07207                           TC       SHOW1
000788: 12,7224           31573                           XCH      RETAA
000789: 12,7225           05723                           TC       BANKJUMP
000790:
000791:
000792:
000793:
000794:
000795: 12,7226           41231        SHOWLD             CS       NBPOS
000796: 12,7227           40000                           CS       A
000797: 12,7230           50621                           TS       DSPTEM2
000798: 12,7231           41232                           CS       TESTNDX
000799: 12,7232           40000                           CS       A
000800: 12,7233           50622                           TS       DSPTEM2    +1
000801: 12,7234           00001                           TC       Q
000802:
000803:
000804:
000805:
000806:
000807: 12,7235           41230        DATALD1            CS       STOREPL
000808: 12,7236           40000                           CS       A
000809: 12,7237           21224                           INDEX    RESULTCT
000810: 12,7240           51242                           TS       DATAPL
000811: 12,7241           40115                           CS       MPAC
000812: 12,7242           40000                           CS       A
000813: 12,7243           21224                           INDEX    RESULTCT
000814: 12,7244           51243                           TS       DATAPL     +1
000815: 12,7245           40116                           CS       MPAC       +1
000816: 12,7246           40000                           CS       A
000817: 12,7247           21224                           INDEX    RESULTCT
000818: 12,7250           51244                           TS       DATAPL     +2
000819: 12,7251           40117                           CS       MPAC       +2
000820: 12,7252           40000                           CS       A
000821: 12,7253           21224                           INDEX    RESULTCT
000822: 12,7254           51245                           TS       DATAPL     +3
000823:                                                                                                  # # Page 413
000824: 12,7255           00001                           TC       Q
000825:
000826:                                                                                                  # # Page 414
000827:
000828: 12,7256           05654        FINISH             TC       BANKCALL
000829: 12,7257           25205                           CADR     SHOW
000830: 12,7260           34511                           CAF      BIT6
000831: 12,7261           51231                           TS       NBPOS
000832: 12,7262           34516                           CAF      ONE
000833: 12,7263           61223                           AD       POSITON
000834: 12,7264           51223                           TS       POSITON
000835: 12,7265           41223                           CS       POSITON
000836: 12,7266           67752                           AD       DEC11
000837: 12,7267           10000                           CCS      A
000838: 12,7270           07272                           TC       +2
000839: 12,7271           07406                           TC       ENDTEST
000840: 12,7272           20017                           INHINT
000841: 12,7273           34501                           CAF      PRIO20
000842: 12,7274           02046                           TC       FINDVAC
000843: 12,7275           24523                           CADR     GYRDRFT2
000844: 12,7276           02124                           TC       ENDOFJOB
000845:
000846:                                                                                                  # # Page 415
000847:
000848: 12,7277           30001        TPTIME             XCH      Q
000849: 12,7300           51310                           TS       QPLAC
000850: 12,7301           40035                           CS       TIME2
000851: 12,7302           40000                           CS       A
000852: 12,7303           50115                           TS       MPAC
000853: 12,7304           40036                           CS       TIME1
000854: 12,7305           40000                           CS       A
000855: 12,7306           50116                           TS       MPAC       +1
000856: 12,7307           20017                           INHINT
000857: 12,7310           02712                           TC       FINETIME
000858: 12,7311           20016                           RELINT
000859: 12,7312           50117                           TS       MPAC       +2
000860: 12,7313           10000                           CCS      A
000861: 12,7314           07323                           TC       +7
000862: 12,7315           40035                           CS       TIME2
000863: 12,7316           40000                           CS       A
000864: 12,7317           50115                           TS       MPAC
000865: 12,7320           40036                           CS       TIME1
000866: 12,7321           40000                           CS       A
000867: 12,7322           50116                           TS       MPAC       +1
000868: 12,7323           30117                           XCH      MPAC       +2
000869: 12,7324           25777                           EXTEND
000870: 12,7325           44504                           MP       BIT11
000871: 12,7326           30003                           XCH      LP
000872: 12,7327           50117                           TS       MPAC       +2
000873: 12,7330           01310                           TC       QPLAC
000874:
000875:                                                                                                  # # Page 416
000876:
000877: 12,7331           30001        OGCZERO            XCH      Q                                     #  ZERO RESIDUAL TORQUING
000878: 12,7332           51225                           TS       QPLACE
000879: 12,7333           34477                           CAF      FIVE
000880: 12,7334           50034                           TS       OVCTR
000881: 12,7335           35501                           CAF      ZERO
000882: 12,7336           20034                           INDEX    OVCTR
000883: 12,7337           51520                           TS       OGC
000884: 12,7340           10034                           CCS      OVCTR
000885: 12,7341           07334                           TC       OGCZERO    +3
000886: 12,7342           01225                           TC       QPLACE
000887:
000888:
000889:
000890: 12,7343           30001        FLTRZERO           XCH      Q
000891: 12,7344           51225                           TS       QPLACE
000892: 12,7345           34477                           CAF      FIVE
000893: 12,7346           50034                           TS       OVCTR
000894: 12,7347           35501                           CAF      ZERO
000895: 12,7350           20034                           INDEX    OVCTR
000896: 12,7351           51114                           TS       FILDELX
000897: 12,7352           10034                           CCS      OVCTR
000898: 12,7353           07346                           TC       FLTRZERO   +3
000899: 12,7354           01225                           TC       QPLACE
000900:
000901:                                                                                                  # # Page 417
000902:
000903: 12,7355           30001        WARTMAL            XCH      Q
000904: 12,7356           51225                           TS       QPLACE
000905: 12,7357           40001                           CS       Q
000906: 12,7360           51220                           TS       COUNTPL
000907: 12,7361           11220        WARTMAL4           CCS      COUNTPL
000908: 12,7362           07366                           TC       +4
000909: 12,7363           01225                           TC       QPLACE
000910: 12,7364           07366                           TC       +2
000911: 12,7365           07360                           TC       WARTMAL4   -1
000912: 12,7366           20017                           INHINT
000913: 12,7367           34504                           CAF      BIT11
000914: 12,7370           02173                           TC       WAITLIST
000915: 12,7371           25403                           CADR     WARTMAL3
000916: 12,7372           20016                           RELINT
000917: 12,7373           11220                           CCS      COUNTPL
000918: 12,7374           01225                           TC       QPLACE
000919: 12,7375           01225                           TC       QPLACE
000920: 12,7376           30000                           NOOP
000921: 12,7377           51220        WARTMAL2           TS       COUNTPL
000922: 12,7400           37402                           CAF      WTMLCADR
000923: 12,7401           02127                           TC       JOBSLEEP
000924: 12,7402           25361        WTMLCADR           CADR     WARTMAL4
000925: 12,7403           37402        WARTMAL3           CAF      WTMLCADR
000926: 12,7404           02060                           TC       JOBWAKE
000927: 12,7405           02256                           TC       TASKOVER
000928:
000929:                                                                                                  # # Page 418
000930:
000931: 12,7406           03362        ENDTEST            TC       FREEDSP
000932: 12,7407           02362                           TC       NEWMODE
000933: 12,7410           00000                           OCT      00000
000934: 12,7411           45501                           CS       ZERO
000935: 12,7412           50677                           TS       CDUIND
000936: 12,7413           05654                           TC       BANKCALL
000937: 12,7414           30453                           CADR     MKRELEAS
000938: 12,7415           02124                           TC       ENDOFJOB
000939:
000940:                                                                                                  # # Page 419
000941:
000942: 12,7416           35501        SCRTEST            CAF      ZERO
000943: 12,7417           51242                           TS       DATAPL
000944: 12,7420           51101                           TS       GENPL      +1
000945: 12,7421           51102                           TS       GENPL      +2
000946: 12,7422           51103                           TS       GENPL      +3
000947: 12,7423           51104                           TS       GENPL      +4
000948: 12,7424           35503                           CAF      TWO
000949: 12,7425           51233                           TS       CDUNDX
000950: 12,7426           20017                           INHINT
000951: 12,7427           37746                           CAF      NINTHOU
000952: 12,7430           02173                           TC       WAITLIST
000953: 12,7431           25435                           CADR     CARYON
000954: 12,7432           20016                           RELINT
000955: 12,7433           37440                           CAF      CONTCADR
000956: 12,7434           02127                           TC       JOBSLEEP
000957:
000958: 12,7435           37440        CARYON             CAF      CONTCADR
000959: 12,7436           02060                           TC       JOBWAKE
000960: 12,7437           02256                           TC       TASKOVER
000961:
000962: 12,7440           25441        CONTCADR           CADR     ULES
000963:
000964:
000965:
000966: 12,7441           20017        ULES               INHINT
000967: 12,7442           06613                           TC       CHECKG
000968: 12,7443           20016                           RELINT
000969: 12,7444           07235                           TC       DATALD1
000970: 12,7445           35502                           CAF      FOUR
000971: 12,7446           51224                           TS       RESULTCT
000972: 12,7447           07235                           TC       DATALD1
000973: 12,7450           07455                           TC       +5
000974: 12,7451           51233        REPEET             TS       CDUNDX                                #  CDUNDX USED FOR CONV
000975: 12,7452           34477                           CAF      FIVE
000976: 12,7453           61224                           AD       RESULTCT
000977: 12,7454           51224                           TS       RESULTCT
000978: 12,7455           37756                           CAF      DEC1500                               #   LENGTH OF TEST SELECTED IN LAB
000979: 12,7456           51220        SUMSUM             TS       COUNTPL
000980: 12,7457           20017                           INHINT
000981: 12,7460           33232                           CAF      TEN                                   #   LENGTH OF SAMPLE SELECTED BY LAB TEST
000982: 12,7461           02173                           TC       WAITLIST
000983: 12,7462           25467                           CADR     REPMAL
000984: 12,7463           20016                           RELINT
000985: 12,7464           37466                           CAF      REPCADR
000986: 12,7465           02127                           TC       JOBSLEEP
000987:
000988: 12,7466           25473        REPCADR            CADR     RETPLS
000989:
000990: 12,7467           37466        REPMAL             CAF      REPCADR
000991: 12,7470           02060                           TC       JOBWAKE
000992:                                                                                                  # # Page 420
000993: 12,7471           02256                           TC       TASKOVER
000994:
000995: 12,7472           07501        RETADR             ADRES    RETHERE
000996:
000997: 12,7473           37472        RETPLS             CAF      RETADR
000998: 12,7474           51225                           TS       QPLACE
000999: 12,7475           20017                           INHINT
001000: 12,7476           35501                           CAF      ZERO
001001: 12,7477           51230                           TS       STOREPL
001002: 12,7500           06660                           TC       CHECKG3
001003: 12,7501           20016        RETHERE            RELINT
001004: 12,7502           41242                           CS       DATAPL
001005: 12,7503           61230                           AD       STOREPL
001006: 12,7504           51100                           TS       GENPL
001007: 12,7505           05654                           TC       BANKCALL
001008: 12,7506           71532                           CADR     SCRINTP
001009:
001010: 12,7507           11233                           CCS      CDUNDX
001011: 12,7510           07451                           TC       REPEET
001012: 12,7511           05654                           TC       BANKCALL
001013: 12,7512           71207                           CADR     RESULTS
001014:
001015:                                                                                                  # # Page 421
001016:
001017: 12,7513           35501        POSSET             CAF      ZERO
001018: 12,7514           51224                           TS       RESULTCT
001019: 12,7515           37753                           CAF      MTRXLD1
001020: 12,7516           50034                           TS       OVCTR
001021: 12,7517           35501                           CAF      ZERO
001022: 12,7520           20034                           INDEX    OVCTR
001023: 12,7521           51424                           TS       XSM
001024: 12,7522           10034                           CCS      OVCTR
001025: 12,7523           07516                           TC       -5
001026: 12,7524           21223                           INDEX    POSITON
001027: 12,7525           07526                           TC       +1
001028: 12,7526           07406                           TC       ENDTEST
001029: 12,7527           07542                           TC       POSN1
001030: 12,7530           07561                           TC       POSN2
001031: 12,7531           07601                           TC       POSN3
001032: 12,7532           07616                           TC       POSN4
001033: 12,7533           07632                           TC       POSN5
001034: 12,7534           07647                           TC       POSN6
001035: 12,7535           07661                           TC       POSN7
001036: 12,7536           07677                           TC       POSN8
001037: 12,7537           07714                           TC       POSN9
001038: 12,7540           07732                           TC       POSN10
001039: 12,7541           07735                           TC       POSN11
001040: 12,7542           34522        POSN1              CAF      HALF                                  #  X UP Y SOUTH Z EAST
001041: 12,7543           51424                           TS       XSM
001042: 12,7544           51434                           TS       YSM        +2
001043: 12,7545           51444                           TS       ZSM        +4
001044: 12,7546           11232                           CCS      TESTNDX
001045: 12,7547           07551                           TC       +2
001046: 12,7550           07556                           TC       LPNDX1
001047: 12,7551           30000                           NOOP
001048: 12,7552           35501                           CAF      ZERO
001049: 12,7553           51221                           TS       PIPINDEX
001050: 12,7554           51233                           TS       CDUNDX
001051: 12,7555           06553                           TC       POSGMBL
001052: 12,7556           35503        LPNDX1             CAF      TWO
001053: 12,7557           51221                           TS       PIPINDEX
001054: 12,7560           06553                           TC       POSGMBL
001055: 12,7561           34522        POSN2              CAF      HALF                                  #  X DOWN Y WEST ZNORTH
001056: 12,7562           40000                           COM
001057: 12,7563           51424                           TS       XSM
001058: 12,7564           51436                           TS       YSM        +4
001059: 12,7565           51442                           TS       ZSM        +2
001060: 12,7566           11232                           CCS      TESTNDX
001061: 12,7567           07571                           TC       +2
001062: 12,7570           07576                           TC       LPNDX2
001063: 12,7571           30000                           NOOP
001064: 12,7572           35501                           CAF      ZERO
001065: 12,7573           51233                           TS       CDUNDX
001066: 12,7574           51221                           TS       PIPINDEX
001067:                                                                                                  # # Page 422
001068: 12,7575           06553                           TC       POSGMBL
001069: 12,7576           34516        LPNDX2             CAF      ONE
001070: 12,7577           51221                           TS       PIPINDEX
001071: 12,7600           06553                           TC       POSGMBL
001072: 12,7601           34522        POSN3              CAF      HALF                                  #  Z UP Y WEST X NORTH
001073: 12,7602           51440                           TS       ZSM
001074: 12,7603           40000                           COM
001075: 12,7604           51426                           TS       XSM        +2
001076: 12,7605           51436                           TS       YSM        +4
001077: 12,7606           11232                           CCS      TESTNDX
001078: 12,7607           07613                           TC       LCNDX3
001079: 12,7610           07576                           TC       LPNDX2
001080: 12,7611           30000                           NOOP
001081: 12,7612           07556                           TC       LPNDX1
001082:
001083: 12,7613           35501        LCNDX3             CAF      ZERO
001084: 12,7614           51233                           TS       CDUNDX
001085: 12,7615           06553                           TC       POSGMBL
001086: 12,7616           34522        POSN4              CAF      HALF                                  #  Z DOWN Y SOUTH X EAST
001087: 12,7617           51430                           TS       XSM        +4
001088: 12,7620           51434                           TS       YSM        +2
001089: 12,7621           40000                           COM
001090: 12,7622           51440                           TS       ZSM
001091: 12,7623           11232                           CCS      TESTNDX
001092: 12,7624           07613                           TC       LCNDX3
001093: 12,7625           07630                           TC       LPNDX4
001094: 12,7626           30000                           NOOP
001095: 12,7627           07556                           TC       LPNDX1
001096:
001097: 12,7630           51221        LPNDX4             TS       PIPINDEX
001098: 12,7631           06553                           TC       POSGMBL
001099: 12,7632           34522        POSN5              CAF      HALF                                  #  Y UP Z NORTH X WEST
001100: 12,7633           51432                           TS       YSM
001101: 12,7634           40000                           COM
001102: 12,7635           51430                           TS       XSM        +4
001103: 12,7636           51442                           TS       ZSM        +2
001104: 12,7637           11232                           CCS      TESTNDX
001105: 12,7640           07644                           TC       LCNDX5
001106: 12,7641           07630                           TC       LPNDX4
001107: 12,7642           07644                           TC       LCNDX5
001108: 12,7643           07576                           TC       LPNDX2
001109:
001110: 12,7644           34516        LCNDX5             CAF      ONE
001111: 12,7645           51233                           TS       CDUNDX
001112: 12,7646           06553                           TC       POSGMBL
001113: 12,7647           34522        POSN6              CAF      HALF                                  #  Y DOWN Z EAST X SOUTH
001114: 12,7650           51426                           TS       XSM        +2
001115: 12,7651           51444                           TS       ZSM        +4
001116: 12,7652           40000                           COM
001117: 12,7653           51432                           TS       YSM
001118:                                                                                                  # # Page 423
001119: 12,7654           11232                           CCS      TESTNDX
001120: 12,7655           07644                           TC       LCNDX5
001121: 12,7656           07556                           TC       LPNDX1
001122: 12,7657           07644                           TC       LCNDX5
001123: 12,7660           07576                           TC       LPNDX2
001124:
001125: 12,7661           37754        POSN7              CAF      ROOT2/4                               # # (jiml) was "ROOT 2/4"
001126: 12,7662           51440                           TS       ZSM
001127: 12,7663           51442                           TS       ZSM        +2
001128: 12,7664           51432                           TS       YSM
001129: 12,7665           40000                           COM
001130: 12,7666           51434                           TS       YSM        +2
001131: 12,7667           34522                           CAF      HALF
001132: 12,7670           51430                           TS       XSM        +4
001133: 12,7671           35501                           CAF      ZERO
001134: 12,7672           51221                           TS       PIPINDEX
001135: 12,7673           11231                           CCS      NBPOS
001136: 12,7674           06523                           TC       GYRDRFT2
001137: 12,7675           51232                           TS       TESTNDX
001138: 12,7676           06553                           TC       POSGMBL
001139: 12,7677           37754        POSN8              CAF      ROOT2/4                               # # (jiml) was "ROOT 2/4"
001140: 12,7700           51432                           TS       YSM
001141: 12,7701           51434                           TS       YSM        +2
001142: 12,7702           51424                           TS       XSM
001143: 12,7703           40000                           COM
001144: 12,7704           51426                           TS       XSM        +2
001145: 12,7705           34522                           CAF      HALF
001146: 12,7706           51444                           TS       ZSM        +4
001147: 12,7707           35503                           CAF      TWO
001148: 12,7710           51221                           TS       PIPINDEX
001149: 12,7711           35501                           CAF      ZERO
001150: 12,7712           51232                           TS       TESTNDX
001151: 12,7713           06553                           TC       POSGMBL
001152: 12,7714           37754        POSN9              CAF      ROOT2/4                               # # (jiml) was "ROOT 2/4"
001153: 12,7715           51424                           TS       XSM
001154: 12,7716           51426                           TS       XSM        +2
001155: 12,7717           51440                           TS       ZSM
001156: 12,7720           40000                           COM
001157: 12,7721           51442                           TS       ZSM        +2
001158: 12,7722           34522                           CAF      HALF
001159: 12,7723           51436                           TS       YSM        +4
001160: 12,7724           34516                           CAF      ONE
001161: 12,7725           51221                           TS       PIPINDEX
001162: 12,7726           11231                           CCS      NBPOS
001163: 12,7727           06523                           TC       GYRDRFT2
001164: 12,7730           51232                           TS       TESTNDX
001165: 12,7731           06553                           TC       POSGMBL
001166: 12,7732           44516        POSN10             CS       ONE                                   #  POSITION FOR LONG TEST FOR ADIAY
001167: 12,7733           51232                           TS       TESTNDX
001168: 12,7734           07632                           TC       POSN5
001169:                                                                                                  # # Page 424
001170: 12,7735           44516        POSN11             CS       ONE
001171: 12,7736           51232                           TS       TESTNDX
001172: 12,7737           07647                           TC       POSN6
001173:
001174:                                                                                                  # # Page 425
001175:
001176: 12,7740           00530        V05N30E            OCT      00530
001177: 12,7741           00110        72DEC              DEC      72         B-14
001178: 12,7742           02130        V21N30E            OCT      02130
001179: 12,7743           13560        60SEC              DEC      6000       B-14
001180: 12,7744           05670        30SEC              DEC      3000       B-14
001181: 12,7745           00730        V07N30E            OCT      00730
001182: 12,7746           21450        NINTHOU            DEC      9000       B-14
001183: 12,7747           00100        SXTTR              DEC      64         B-14                       #     THIS FIXES  INACCURACY DUE TO ENCODER
001184: 12,7750           00264        DEC180             DEC      180        B-14
001185: 12,7751           00666        VB06N66            OCT      00666
001186: 12,7752           00013        DEC11              DEC      11         B-14
001187: 12,7753           00021        MTRXLD1            DEC      17         B-14
001188: 12,7754           13241        ROOT2/4            DEC      .35355339                             # # (jiml) was "ROOT 2/4"
001189: 12,7755           01100        FLNDX12            ADRES    GENPL                                 #  FIXED BY *UNEEDA* DEBUGGING SERVICE
001190: 12,7756           02734        DEC1500            DEC      1500       B-14
001191: 12,7757           02650        DECX               DEC      1448       B-14

End of include-file IMU_PERFORMANCE_TESTS_1.agc.  Parent file is MAIN.agc


