
Source Code


000002:                                                                                                  ## Copyright:   Public domain.
000003:                                                                                                  ## Filename:    IMU_PERFORMANCE_TESTS_2.agc
000004:                                                                                                  ## Purpose:     Part of the source code for Solarium build 55. This
000005:                                                                                                  ##              is for the Command Module's (CM) Apollo Guidance
000006:                                                                                                  ##              Computer (AGC), for Apollo 6.
000007:                                                                                                  ## Assembler:   yaYUL --block1
000008:                                                                                                  ## Contact:     Jim Lawton <jim DOT lawton AT gmail DOT com>
000009:                                                                                                  ## Website:     www.ibiblio.org/apollo/index.html
000010:                                                                                                  ## Page Scans:  www.ibiblio.org/apollo/ScansForConversion/Solarium055/
000011:                                                                                                  ## Mod history: 2009-10-04 JL   Created.
000012:                                                                                                  ##              2009-10-30 JL   Fixed filename comment.
000013:                                                                                                  ##              2016-08-20 RSB  Typos.
000014:                                                                                                  ##              2016-08-23 RSB  More of the same.
000015:                                                                                                  ##              2016-12-28 RSB  Proofed comment text using octopus/ProoferComments,
000016:                                                                                                  ##                              and fixed errors found.
000017:


000019:
000020: 34,6000                                           SETLOC   70000
000021:
000022: 34,6000           05654        MISALIGN           TC       BANKCALL
000023: 34,6001           25331                           CADR     OGCZERO
000024: 34,6002           03302                           TC       GRABDSP
000025: 34,6003           03310                           TC       PREGBSY
000026: 34,6004           33533                           CAF      11DEC
000027: 34,6005           51311                           TS       PTS
000028: 34,6006           35501                           CAF      ZERO
000029: 34,6007           51312                           TS       PTS        +1
000030: 34,6010           51224        BBB                TS       NDXCTR
000031: 34,6011           21224                           INDEX    NDXCTR
000032: 34,6012           41204                           CS       GENPL      +68D
000033: 34,6013           21224                           INDEX    NDXCTR
000034: 34,6014           61212                           AD       GENPL      +74D
000035: 34,6015           21224                           INDEX    NDXCTR
000036: 34,6016           51212                           TS       GENPL      +74D
000037: 34,6017           36235                           CAF      63DEC
000038: 34,6020           61224                           AD       NDXCTR
000039: 34,6021           10000                           CCS      A
000040: 34,6022           44473                           CS       THREE
000041: 34,6023           61224                           AD       NDXCTR
000042: 34,6024           06010                           TC       BBB
000043: 34,6025           51224        CCCC               TS       NDXCTR
000044: 34,6026           04000                           TC       INTPRET
000045: 34,6027           73576                           LXA,1    0
000046: 34,6030           01225                                    NDXCTR
000047: 34,6031           44175                           DMOVE*   1
000048: 34,6032           66776                           DSU
000049: 34,6033           02421                                    GENPL      +72D,1
000050: 34,6034           01101                                    GENPL
000051: 34,6035           36421                           STORE    GENPL      +72D,1
000052: 34,6036           77576                           EXIT     0
000053: 34,6037           41224                           CS       NDXCTR
000054: 34,6040           66236                           AD       69DEC
000055: 34,6041           10000                           CCS      A
000056: 34,6042           34473                           CAF      THREE
000057: 34,6043           61224                           AD       NDXCTR
000058: 34,6044           06025                           TC       CCCC
000059: 34,6045           51100                           TS       GENPL
000060: 34,6046           51101                           TS       GENPL      +1
000061: 34,6047           51312                           TS       RUN
000062: 34,6050           34473                           CAF      THREE
000063: 34,6051           51224        DDDD               TS       NDXCTR
000064: 34,6052           04000                           TC       INTPRET
000065: 34,6053           73576                           LXA,1    0
000066: 34,6054           01225                                    NDXCTR
000067: 34,6055           66376                           DSU*     0
000068: 34,6056           02421                                    GENPL      +72D,1
000069: 34,6057           02405                                    GENPL      +66D,1
000070: 34,6060           47575                           NOLOD    1


000072: 34,6061           56740                           TSRT     DAD*
000073: 34,6062           00002                                    1
000074: 34,6063           02405                                    GENPL      +66D,1
000075: 34,6064           36421                           STORE    GENPL      +72D,1
000076: 34,6065           47575                           NOLOD    1
000077: 34,6066           63742                           TSLT     DAD
000078: 34,6067           00003                                    2
000079: 34,6070           01521                                    OGC
000080: 34,6071           33521                           STORE    OGC
000081: 34,6072           44174                           DMOVE*   2
000082: 34,6073           63643                           TSLT     DSQ
000083: 34,6074           70776                           DAD
000084: 34,6075           02421                                    GENPL      +72D,1
000085: 34,6076           00005                                    4
000086: 34,6077           01525                                    MGC
000087: 34,6100           33525                           STORE    MGC
000088: 34,6101           77576                           EXIT     0
000089: 34,6102           41312                           CS       RUN
000090: 34,6103           40000                           COM
000091: 34,6104           61224                           AD       NDXCTR
000092: 34,6105           40000                           COM
000093: 34,6106           66235                           AD       63DEC
000094: 34,6107           10000                           CCS      A
000095: 34,6110           34475                           CAF      SIX
000096: 34,6111           61224                           AD       NDXCTR
000097: 34,6112           06051                           TC       DDDD
000098: 34,6113           61312                           AD       RUN
000099: 34,6114           51224        EEEE               TS       NDXCTR
000100: 34,6115           21224                           INDEX    NDXCTR
000101: 34,6116           41113                           CS       GENPL      +11D
000102: 34,6117           40000                           COM
000103: 34,6120           51572                           TS       TEMDELV
000104: 34,6121           35501                           CAF      ZERO
000105: 34,6122           51573                           TS       TEMDELV    +1
000106: 34,6123           04000                           TC       INTPRET
000107: 34,6124           71576                           LXC,1    0
000108: 34,6125           01225                                    NDXCTR
000109: 34,6126           45176                           DMOVE    0
000110: 34,6127           77777                                    -
000111: 34,6130           47574                           NOLOD    2
000112: 34,6131           63706                           TSLT     BDDV
000113: 34,6132           70776                           DAD
000114: 34,6133           00006                                    5
000115: 34,6134           01573                                    TEMDELV
000116: 34,6135           01523                                    IGC
000117: 34,6136           33523                           STORE    IGC
000118: 34,6137           63775                           TSLT     1
000119: 34,6140           61776                           BDDV
000120: 34,6141           77777                                    -
000121: 34,6142           00004                                    3


000123: 34,6143           01573                                    TEMDELV
000124: 34,6144           44174                           DMOVE*   2
000125: 34,6145           63722                           TSLT     DMP
000126: 34,6146           70776                           DAD
000127: 34,6147           02223                                    GENPL      +9D,1
000128: 34,6150           00005                                    4
000129: 34,6151           77777                                    -
000130: 34,6152           01101                                    GENPL
000131: 34,6153           33101                           STORE    GENPL
000132: 34,6154           77576                           EXIT     0
000133: 34,6155           41224                           CS       NDXCTR
000134: 34,6156           66235                           AD       63DEC
000135: 34,6157           61312                           AD       RUN
000136: 34,6160           64341                           AD       NEG3
000137: 34,6161           10000                           CCS      A
000138: 34,6162           34475                           CAF      SIX
000139: 34,6163           61224                           AD       NDXCTR
000140: 34,6164           06114                           TC       EEEE
000141: 34,6165           04000                           TC       INTPRET
000142: 34,6166           64776                           DMP      0
000143: 34,6167           01521                                    OGC
000144: 34,6170           01101                                    GENPL
000145: 34,6171           64775                           DMP      1
000146: 34,6172           66776                           DSU
000147: 34,6173           01525                                    MGC
000148: 34,6174           01523                                    IGC
000149: 34,6175           51175                           DSQ      1
000150: 34,6176           56776                           TSRT
000151: 34,6177           01521                                    OGC
000152: 34,6200           00002                                    1
000153: 34,6201           63774                           TSLT     2
000154: 34,6202           64732                           DMP      DSU
000155: 34,6203           61722                           BDDV     DMP
000156: 34,6204           01312                                    PTS
000157: 34,6205           00012                                    11
000158: 34,6206           01525                                    MGC
000159: 34,6207           77777                                    -
000160: 34,6210           77777                                    -
000161: 34,6211           30234                                    K
000162: 34,6212           32622                           STORE    DSPTEM2
000163: 34,6213           77576                           EXIT     0
000164: 34,6214           05654                           TC       BANKCALL
000165: 34,6215           14000                           CADR     FLASHON
000166: 34,6216           37730                           CAF      V06N66E
000167: 34,6217           03100                           TC       NVSUB
000168: 34,6220           03315                           TC       PRENVBSY
000169: 34,6221           03136                           TC       ENDIDLE
000170: 34,6222           06237                           TC       ENDTEST1
000171: 34,6223           34473                           CAF      THREE
000172: 34,6224           51312                           TS       RUN


000174: 34,6225           05654                           TC       BANKCALL
000175: 34,6226           25331                           CADR     OGCZERO
000176: 34,6227           35501                           CAF      ZERO
000177: 34,6230           51100                           TS       GENPL
000178: 34,6231           51101                           TS       GENPL      +1
000179: 34,6232           06051                           TC       DDDD
000180:
000181:
000182:
000183: 34,6233           02321 00000  K                  2DEC     1.233      E3         B-14
000184: 34,6235           00077        63DEC              DEC      63         B-14
000185: 34,6236           00105        69DEC              DEC      69         B-14
000186:
000187:
000188:
000189: 34,6237           05654        ENDTEST1           TC       BANKCALL
000190: 34,6240           25406                           CADR     ENDTEST
000191:


000193:
000194: 34,6241           05706        FINDNAVB           TC       MAKECADR
000195: 34,6242           51573                           TS       RETAA
000196: 34,6243           05654                           TC       BANKCALL
000197: 34,6244           30453                           CADR     MKRELEAS
000198: 34,6245           34516                           CAF      ONE
000199: 34,6246           50616                           TS       DSPTEM1
000200: 34,6247           37731                           CAF      V01N30E                               #  MARK ON TARGET 1
000201: 34,6250           03100                           TC       NVSUB
000202: 34,6251           03315                           TC       PRENVBSY
000203: 34,6252           34516                           CAF      ONE
000204: 34,6253           05654                           TC       BANKCALL
000205: 34,6254           30406                           CADR     SXTMARK
000206: 34,6255           05654                           TC       BANKCALL
000207: 34,6256           30327                           CADR     OPTSTALL
000208: 34,6257           06237                           TC       ENDTEST1
000209: 34,6260           20735                           INDEX    MARKSTAT
000210: 34,6261           40000                           CS       0
000211: 34,6262           40000                           CS       A
000212: 34,6263           51302                           TS       VACADR                                #  TIME OF MARK
000213: 34,6264           20735                           INDEX    MARKSTAT
000214: 34,6265           40001                           CS       1
000215: 34,6266           40000                           CS       A
000216: 34,6267           51303                           TS       VACADR     +1
000217: 34,6270           40735                           CS       MARKSTAT
000218: 34,6271           51304                           TS       MKSTAT1
000219: 34,6272           05654                           TC       BANKCALL
000220: 34,6273           30453                           CADR     MKRELEAS
000221: 34,6274           35503                           CAF      TWO
000222: 34,6275           50616                           TS       DSPTEM1
000223: 34,6276           37731                           CAF      V01N30E                               #  MARK ON TARGET 4
000224: 34,6277           03100                           TC       NVSUB
000225: 34,6300           03315                           TC       PRENVBSY
000226: 34,6301           34516                           CAF      ONE
000227: 34,6302           05654                           TC       BANKCALL
000228: 34,6303           30406                           CADR     SXTMARK
000229: 34,6304           11305                           CCS      COAROFIN                              #  COARSE ALIGN OR FINE ALIGN MARKS
000230: 34,6305           06374                           TC       CLGNMARK
000231: 34,6306           41304                           CS       MKSTAT1
000232: 34,6307           65503                           AD       TWO
000233: 34,6310           20067                           INDEX    FIXLOC
000234: 34,6311           50050                           TS       S1                                    #  BASE ADDRESS GIMBAL ANGLES
000235: 34,6312           04000                           TC       INTPRET                               #  OPT-NB-SM    TARGET 1
000236: 34,6313           73576                           LXA,1    0
000237: 34,6314           01305                                    MKSTAT1
000238: 34,6315           76776                           ITC      0
000239: 34,6316           04733                                    SXTNB
000240: 34,6317           44775                           VSLT     1
000241: 34,6320           76776                           ITC
000242: 34,6321           00041                                    STARM
000243: 34,6322           00001                                    0


000245: 34,6323           04524                                    NBSM
000246: 34,6324           47576                           NOLOD    0
000247: 34,6325           33403                           STORE    STARAD
000248: 34,6326           45176                           DMOVE    0
000249: 34,6327           01303                                    VACADR
000250: 34,6330           33175                           STORE    TMARK
000251: 34,6331           77576                           EXIT     0
000252:
000253: 34,6332           04000        EARRTCOM           TC       INTPRET                               #  COMPENSATE BETWEEN FINE ALIGN MARKS
000254: 34,6333           76776                           ITC      0
000255: 34,6334           30613                                    EARTHR
000256: 34,6335           76776                           ITC      0
000257: 34,6336           30634                                    OUTGYR
000258: 34,6337           77576                           EXIT     0
000259: 34,6340           05654                           TC       BANKCALL
000260: 34,6341           30331                           CADR     IMUSTALL
000261: 34,6342           06237                           TC       ENDTEST1
000262: 34,6343           10734                           CCS      OPTCADR
000263: 34,6344           06347                           TC       +3
000264: 34,6345           06332                           TC       EARRTCOM
000265: 34,6346           06347                           TC       +1
000266: 34,6347           05654                           TC       BANKCALL
000267: 34,6350           30327                           CADR     OPTSTALL
000268: 34,6351           06237                           TC       ENDTEST1
000269: 34,6352           35503                           CAF      TWO
000270: 34,6353           60735                           AD       MARKSTAT
000271: 34,6354           20067                           INDEX    FIXLOC
000272: 34,6355           50050                           TS       S1                                    #  BASE ADDRESS GIMBAL ANGLES
000273: 34,6356           04000                           TC       INTPRET                               #  OPT-NB-SM    TARGET 4
000274: 34,6357           71576                           LXC,1    0
000275: 34,6360           00736                                    MARKSTAT
000276: 34,6361           76776                           ITC      0
000277: 34,6362           04733                                    SXTNB
000278: 34,6363           44775                           VSLT     1
000279: 34,6364           76776                           ITC
000280: 34,6365           00041                                    STARM
000281: 34,6366           00001                                    0
000282: 34,6367           04524                                    NBSM
000283: 34,6370           47576                           NOLOD    0
000284: 34,6371           33411                           STORE    STARAD     +6
000285: 34,6372           76776                           ITC      0
000286: 34,6373           30421                                    MATXDET
000287:
000288: 34,6374           04000        CLGNMARK           TC       INTPRET                               #  OPT-NB       TARGET 1
000289: 34,6375           73576                           LXA,1    0
000290: 34,6376           01305                                    MKSTAT1
000291: 34,6377           76776                           ITC      0
000292: 34,6400           04733                                    SXTNB
000293: 34,6401           75176                           VMOVE    0
000294: 34,6402           00041                                    STARM


000296: 34,6403           33403                           STORE    STARAD
000297: 34,6404           77576                           EXIT     0
000298: 34,6405           05654                           TC       BANKCALL
000299: 34,6406           30327                           CADR     OPTSTALL
000300: 34,6407           06237                           TC       ENDTEST1
000301: 34,6410           04000                           TC       INTPRET                               #  OPT-NB       TARGET 4
000302: 34,6411           71576                           LXC,1    0
000303: 34,6412           00736                                    MARKSTAT
000304: 34,6413           76776                           ITC      0
000305: 34,6414           04733                                    SXTNB
000306: 34,6415           75176                           VMOVE    0
000307: 34,6416           00041                                    STARM
000308: 34,6417           33411                           STORE    STARAD     +6
000309:
000310: 34,6420           75176        MATXDET            VMOVE    0                                     #  CALCULATE TRANSFORMATION MATRIX
000311: 34,6421           01101                                    TAR1POS
000312: 34,6422           32007                           STORE    6
000313: 34,6423           75176                           VMOVE    0
000314: 34,6424           01107                                    TAR1POS    +6
000315: 34,6425           32015                           STORE    12D
000316: 34,6426           76776                           ITC      0
000317: 34,6427           04761                                    AXISGEN
000318: 34,6430           75176                           VMOVE    0
000319: 34,6431           01477                                    XDC
000320: 34,6432           33403                           STORE    STARAD
000321: 34,6433           75176                           VMOVE    0
000322: 34,6434           01505                                    YDC
000323: 34,6435           33411                           STORE    STARAD     +6
000324: 34,6436           75176                           VMOVE    0
000325: 34,6437           01513                                    ZDC
000326: 34,6440           33417                           STORE    STARAD     +12D
000327: 34,6441           77576                           EXIT     0
000328: 34,6442           31573                           XCH      RETAA
000329: 34,6443           05723                           TC       BANKJUMP
000330:


000332:
000333: 34,6444           05706        PUTPOSX            TC       MAKECADR
000334: 34,6445           51573                           TS       RETAA
000335: 34,6446           04000                           TC       INTPRET
000336: 34,6447           76776                           ITC      0
000337: 34,6450           04644                                    CALCGA
000338: 34,6451           77576                           EXIT     0
000339: 34,6452           05654                           TC       BANKCALL
000340: 34,6453           30104                           CADR     IMUCOARS                              #  INITIATE COARSE ALIGN MODE
000341: 34,6454           05654                           TC       BANKCALL
000342: 34,6455           30331                           CADR     IMUSTALL                              #  WAIT FOR IMUCOARS COMPLETION
000343: 34,6456           06237                           TC       ENDTEST1
000344: 34,6457           31573                           XCH      RETAA
000345: 34,6460           05723                           TC       BANKJUMP
000346:
000347:
000348:
000349: 34,6461           05706        SMDCALC            TC       MAKECADR
000350: 34,6462           51573                           TS       RETAA
000351: 34,6463           04000                           TC       INTPRET
000352: 34,6464           52775                           MXV      1
000353: 34,6465           44776                           VSLT
000354: 34,6466           01425                                    XSM
000355: 34,6467           01403                                    STARAD
000356: 34,6470           00002                                    1
000357: 34,6471           33477                           STORE    XDC
000358: 34,6472           52775                           MXV      1
000359: 34,6473           44776                           VSLT
000360: 34,6474           01433                                    YSM
000361: 34,6475           01403                                    STARAD
000362: 34,6476           00002                                    1
000363: 34,6477           33505                           STORE    YDC
000364: 34,6500           41775                           VXV      1
000365: 34,6501           44776                           VSLT
000366: 34,6502           01477                                    XDC
000367: 34,6503           01505                                    YDC
000368: 34,6504           00002                                    1
000369: 34,6505           33513                           STORE    ZDC
000370: 34,6506           76776                           ITC      0
000371: 34,6507           04353                                    CALCGTA
000372: 34,6510           76776                           ITC      0
000373: 34,6511           30634                                    OUTGYR
000374: 34,6512           77576                           EXIT     0
000375: 34,6513           31573                           XCH      RETAA
000376: 34,6514           05723                           TC       BANKJUMP
000377:


000379:
000380: 34,6515           05706        LATAZCHK           TC       MAKECADR
000381: 34,6516           51573                           TS       RETAA
000382: 34,6517           04000                           TC       INTPRET                               #  CHECK LATITUDE AND NAVBASE AZIMUTH
000383: 34,6520           63776                           TSLT     0
000384: 34,6521           01315                                    LATITUDE
000385: 34,6522           00003                                    2
000386: 34,6523           32620                           STORE    DSPTEM1    +1
000387: 34,6524           45175                           DMOVE    1
000388: 34,6525           76575                           RTB      EXIT
000389: 34,6526           01317                                    AZIMUTH
000390: 34,6527           20325                                    1STO2S
000391: 34,6530           30115                           XCH      MPAC
000392: 34,6531           50616                           TS       DSPTEM1
000393: 34,6532           05654                           TC       BANKCALL
000394: 34,6533           25153                           CADR     LATAZCK1
000395:
000396: 34,6534           04000                           TC       INTPRET
000397: 34,6535           43175                           SMOVE    1
000398: 34,6536           76576                           RTB
000399: 34,6537           00617                                    DSPTEM1
000400: 34,6540           20304                                    CDULOGIC
000401: 34,6541           33317                           STORE    AZIMUTH
000402: 34,6542           43175                           SMOVE    1
000403: 34,6543           56776                           TSRT
000404: 34,6544           00620                                    DSPTEM1    +1
000405: 34,6545           00003                                    2
000406: 34,6546           33315                           STORE    LATITUDE
000407: 34,6547           77576                           EXIT     0
000408: 34,6550           31573                           XCH      RETAA
000409: 34,6551           05723                           TC       BANKJUMP
000410:


000412:
000413: 34,6552           04000        TARGSM             TC       INTPRET
000414: 34,6553           76776                           ITC      0
000415: 34,6554           31755                                    ERTHRVEN
000416: 34,6555           76776                           ITC      0
000417: 34,6556           03475                                    PROCTARG
000418: 34,6557           75176                           VMOVE    0
000419: 34,6560           01403                                    TARGET1
000420: 34,6561           33101                           STORE    TAR1POS
000421: 34,6562           75176                           VMOVE    0
000422: 34,6563           01411                                    TARGET1    +6
000423: 34,6564           33107                           STORE    TAR1POS    +6
000424: 34,6565           76776                           ITC      0
000425: 34,6566           03446                                    MAKEXSM
000426: 34,6567           77576                           EXIT     0
000427: 34,6570           05654                           TC       BANKCALL
000428: 34,6571           24050                           CADR     POSLOAD
000429:


000431:
000432: 34,6572           76576        ALGNINIT           RTB      0
000433: 34,6573           20271                                    ZEROVAC
000434: 34,6574           45176                           DMOVE    0
000435: 34,6575           05174                                    ZERODP
000436: 34,6576           55175                           COS      1
000437: 34,6577           47176                           COMP
000438: 34,6600           01315                                    LATITUDE
000439: 34,6601           57175                           SIN      1
000440: 34,6602           41166                           VDEF     VXSC                                  #  (SIN,-COS,0)
000441: 34,6603           01315                                    LATITUDE
000442: 34,6604           31733                                    OMEG/MS
000443: 34,6605           33177                           STORE    VMARK
000444: 34,6606           76576                           RTB      0
000445: 34,6607           20253                                    LOADTIME
000446: 34,6610           33175                           STORE    TMARK
000447: 34,6611           40576                           ITCQ     0
000448:


000450:
000451: 34,6612           76576        EARTHR             RTB      0
000452: 34,6613           20253                                    LOADTIME
000453: 34,6614           32051                           STORE    S1
000454: 34,6615           47573                           NOLOD    3
000455: 34,6616           66716                           DSU      TSLT
000456: 34,6617           75652                           VXSC     MXV
000457: 34,6620           50776                           VAD
000458: 34,6621           01175                                    TMARK
000459: 34,6622           00013                                    10D
000460: 34,6623           01177                                    VMARK
000461: 34,6624           01425                                    XSM
000462: 34,6625           01521                                    OGC
000463: 34,6626           33521                           STORE    OGC
000464: 34,6627           45176                           DMOVE    0
000465: 34,6630           00051                                    S1
000466: 34,6631           33175                           STORE    TMARK
000467: 34,6632           40576                           ITCQ     0
000468:


000470:
000471: 34,6633           75575        OUTGYR             AXT,1    1
000472: 34,6634           55561                           AST,1    AXT,2
000473: 34,6635           00007                                    6
000474: 34,6636           00003                                    2
000475: 34,6637           00001                                    0
000476: 34,6640           56376        OUTGYR1            TSRT*    0
000477: 34,6641           03255                                    OGC        +6,1
000478: 34,6642           00022                                    8D,2
000479: 34,6643           36505                           STORE    GYROD      +6,1
000480: 34,6644           63375                           TSLT*    1
000481: 34,6645           65376                           BDSU*
000482: 34,6646           02505                                    GYROD      +6,1
000483: 34,6647           00022                                    8D,2
000484: 34,6650           03255                                    OGC        +6,1
000485: 34,6651           37255                           STORE    OGC        +6,1
000486: 34,6652           51576                           TIX,1    0
000487: 34,6653           30641                                    OUTGYR1
000488: 34,6654           75575                           AXT,1    1
000489: 34,6655           76401                           RTB      ITCQ
000490: 34,6656           01235                                    GYROD
000491: 34,6657           20376                                    PULSEIMU
000492:
000493:
000494:
000495:
000496:
000497:
000498: 34,6660           05706        STORRSLT           TC       MAKECADR
000499: 34,6661           51573                           TS       RETAA
000500: 34,6662           04000                           TC       INTPRET
000501: 34,6663           71576                           LXC,1    0
000502: 34,6664           01225                                    NDXCTR
000503: 34,6665           47574                           NOLOD    2
000504: 34,6666           63722                           TSLT     DMP
000505: 34,6667           76576                           RTB
000506: 34,6670           00011                                    8D
000507: 34,6671           31735                                    SCALFTR
000508: 34,6672           20404                                    SGNAGREE
000509: 34,6673           36201                           STORE    GENPL,1
000510: 34,6674           77576                           EXIT     0
000511: 34,6675           31230                           XCH      STOREPL
000512: 34,6676           21224                           INDEX    NDXCTR
000513: 34,6677           51102                           TS       GENPL      +2
000514: 34,6700           41224                           CS       NDXCTR
000515: 34,6701           61307                           AD       MAXPTS2
000516: 34,6702           10000                           CCS      A
000517: 34,6703           34473                           CAF      THREE
000518: 34,6704           61224                           AD       NDXCTR
000519: 34,6705           06711                           TC       +4
000520: 34,6706           11313                           CCS      EROPTN


000522: 34,6707           06237                           TC       ENDTEST1
000523: 34,6710           06000                           TC       MISALIGN
000524:


000526:
000527: 34,6711           51224                           TS       NDXCTR
000528: 34,6712           31573                           XCH      RETAA
000529: 34,6713           05723                           TC       BANKJUMP
000530:


000532:
000533: 34,6714           75575        TJLAL              AXT,1    1
000534: 34,6715           55576                           AST,1
000535: 34,6716           00007                                    6
000536: 34,6717           00003                                    2
000537: 34,6720           66375        TJLAL1             DSU*     1
000538: 34,6721           64740                           DMP      DAD*
000539: 34,6722           02017                                    DELVX      +6,1
000540: 34,6723           02245                                    FILDELX    +6,1
000541: 34,6724           31751                                    VRECTC3
000542: 34,6725           02245                                    FILDELX    +6,1
000543: 34,6726           36245                           STORE    FILDELX    +6,1
000544: 34,6727           51576                           TIX,1    0
000545: 34,6730           30721                                    TJLAL1
000546: 34,6731           40576                           ITCQ     0
000547:


000549:
000550: 34,6732           35503        FALNE1             CAF      TWO
000551: 34,6733           67740                           AD       FLNDX
000552: 34,6734           20067                           INDEX    FIXLOC
000553: 34,6735           50050                           TS       S1
000554: 34,6736           04000                           TC       INTPRET
000555: 34,6737           52775                           MXV      1
000556: 34,6740           44772                           VSLT     ITC
000557: 34,6741           01425                                    XSM
000558: 34,6742           01403                                    STARAD
000559: 34,6743           00002                                    1
000560: 34,6744           04524                                    NBSM
000561: 34,6745           47576                           NOLOD    0
000562: 34,6746           33477                           STORE    XDC
000563: 34,6747           52775                           MXV      1
000564: 34,6750           44772                           VSLT     ITC
000565: 34,6751           01433                                    YSM
000566: 34,6752           01403                                    STARAD
000567: 34,6753           00002                                    1
000568: 34,6754           04524                                    NBSM
000569: 34,6755           47576                           NOLOD    0
000570: 34,6756           33505                           STORE    YDC
000571: 34,6757           41775                           VXV      1
000572: 34,6760           44776                           VSLT
000573: 34,6761           01477                                    XDC
000574: 34,6762           01505                                    YDC
000575: 34,6763           00002                                    1
000576: 34,6764           33513                           STORE    ZDC
000577: 34,6765           76776                           ITC      0
000578: 34,6766           04353                                    CALCGTA
000579: 34,6767           76776                           ITC      0
000580: 34,6770           30634                                    OUTGYR
000581: 34,6771           77576                           EXIT     0
000582: 34,6772           05654                           TC       BANKCALL
000583: 34,6773           30331                           CADR     IMUSTALL
000584: 34,6774           06237                           TC       ENDTEST1
000585: 34,6775           05654                           TC       BANKCALL
000586: 34,6776           24600                           CADR     FALNED
000587:


000589:
000590: 34,6777           47575        VERTRECT           NOLOD    1
000591: 34,7000           51622                           VXM      VSLT
000592: 34,7001           01425                                    XSM
000593: 34,7002           00002                                    1
000594: 34,7003           32001                           STORE    0
000595: 34,7004           45176                           DMOVE    0
000596: 34,7005           00043                                    VAC        +2
000597: 34,7006           47176                           COMP     0
000598: 34,7007           00045                                    VAC        +4
000599: 34,7010           43175                           SMOVE    1
000600: 34,7011           41176                           VDEF
000601: 34,7012           05174                                    ZERODP
000602: 34,7013           47575                           NOLOD    1
000603: 34,7014           75622                           VXSC     VSLT
000604: 34,7015           31737                                    INTCON1
000605: 34,7016           00002                                    1
000606: 34,7017           74773                           VSU      3
000607: 34,7020           71766                           BOV      VXSC
000608: 34,7021           44642                           VSLT     VAD
000609: 34,7022           52642                           MXV      VAD
000610: 34,7023           00001                                    0
000611: 34,7024           00023                                    18D
000612: 34,7025           31037                                    ERECTND
000613: 34,7026           31737                                    INTCON1
000614: 34,7027           00002                                    1
000615: 34,7030           77777                                    -
000616: 34,7031           01425                                    XSM
000617: 34,7032           01521                                    OGC
000618: 34,7033           33521                           STORE    OGC
000619: 34,7034           75176                           VMOVE    0
000620: 34,7035           32023                           STORE    18D
000621: 34,7036           40576        ERECTND            ITCQ     0
000622:


000624:
000625: 34,7037           21223        POSNJUMP           INDEX    POSITON
000626: 34,7040           07041                           TC       +1
000627: 34,7041           06237                           TC       ENDTEST1
000628: 34,7042           07050                           TC       POS1
000629: 34,7043           07055                           TC       POS2
000630: 34,7044           07075                           TC       POS3
000631: 34,7045           07121                           TC       POS4
000632: 34,7046           05654                           TC       BANKCALL
000633: 34,7047           24076                           CADR     POSNRETN
000634:
000635: 34,7050           44516        POS1               CS       ONE
000636: 34,7051           51226                           TS       PIPNDX
000637: 34,7052           45503                           CS       TWO
000638: 34,7053           51227                           TS       PIPNDX     +1
000639: 34,7054           07046                           TC       POS1       -2
000640:
000641:
000642:
000643: 34,7055           04000        POS2               TC       INTPRET
000644: 34,7056           75175                           VMOVE    1
000645: 34,7057           47176                           COMP
000646: 34,7060           01425                                    XSM
000647: 34,7061           75176                           VMOVE    0
000648: 34,7062           01441                                    ZSM
000649: 34,7063           33425                           STORE    XSM
000650: 34,7064           75176                           VMOVE    0
000651: 34,7065           77777                                    -
000652: 34,7066           33441                           STORE    ZSM
000653: 34,7067           77576                           EXIT     0
000654: 34,7070           45501                           CS       ZERO
000655: 34,7071           51226                           TS       PIPNDX
000656: 34,7072           44516                           CS       ONE
000657: 34,7073           51227                           TS       PIPNDX     +1
000658: 34,7074           07046                           TC       POS1       -2
000659:
000660:
000661:
000662: 34,7075           04000        POS3               TC       INTPRET
000663: 34,7076           75176                           VMOVE    0
000664: 34,7077           01425                                    XSM
000665: 34,7100           75176                           VMOVE    0
000666: 34,7101           01441                                    ZSM
000667: 34,7102           75176                           VMOVE    0
000668: 34,7103           01433                                    YSM
000669: 34,7104           33441                           STORE    ZSM
000670: 34,7105           75176                           VMOVE    0
000671: 34,7106           77777                                    -
000672: 34,7107           33425                           STORE    XSM
000673: 34,7110           75176                           VMOVE    0
000674: 34,7111           77777                                    -


000676: 34,7112           33433                           STORE    YSM
000677: 34,7113           77576                           EXIT     0
000678: 34,7114           45501                           CS       ZERO
000679: 34,7115           51226                           TS       PIPNDX
000680: 34,7116           45503                           CS       TWO
000681: 34,7117           51227                           TS       PIPNDX     +1
000682: 34,7120           07046                           TC       POS1       -2
000683:


000685:
000686: 34,7121           04000        POS4               TC       INTPRET
000687: 34,7122           41775                           VXV      1
000688: 34,7123           73176                           UNIT
000689: 34,7124           01433                                    YSM
000690: 34,7125           01441                                    ZSM
000691: 34,7126           33425                           STORE    XSM
000692: 34,7127           77576                           EXIT     0
000693: 34,7130           07046                           TC       POS1       -2
000694:
000695:
000696:
000697: 34,7131           37741        NBPOSPL            CAF      MTRXLD
000698: 34,7132           50034                           TS       OVCTR                                 #  ZERO STARAD
000699: 34,7133           35501                           CAF      ZERO
000700: 34,7134           20034                           INDEX    OVCTR
000701: 34,7135           51402                           TS       STARAD
000702: 34,7136           10034                           CCS      OVCTR
000703: 34,7137           07132                           TC       NBPOSPL    +1
000704:
000705: 34,7140           04000                           TC       INTPRET                               #  SETS UP AZIMUTH AND VERTICAL VECTORS
000706: 34,7141           76576                           RTB      0                                     #  FOR AXISGEN,RESULTS TO BE USED IN CALCGA
000707: 34,7142           20271                                    ZEROVAC                               #  TO COMPUTE COARSE ALIGN ANGLES
000708: 34,7143           53575                           AXC,1    1
000709: 34,7144           57557                           XSU,1    VMOVE*
000710: 34,7145           31671                                    SCNBAZ
000711: 34,7146           01232                                    NBPOS
000712: 34,7147           00001                                    0,1
000713: 34,7150           33403                           STORE    STARAD                                #  AZIMUTH IN NB COORDS
000714: 34,7151           53575                           AXC,1    1
000715: 34,7152           57557                           XSU,1    VMOVE*
000716: 34,7153           31711                                    SCNBVER
000717: 34,7154           01232                                    NBPOS
000718: 34,7155           00001                                    0,1
000719: 34,7156           33411                           STORE    STARAD     +6                         #  VERTICAL IN NB COORDS
000720: 34,7157           55175                           COS      1
000721: 34,7160           47176                           COMP
000722: 34,7161           01317                                    AZIMUTH
000723: 34,7162           32011                           STORE    8D
000724:
000725: 34,7163           57176                           SIN      0
000726: 34,7164           01317                                    AZIMUTH
000727: 34,7165           32013                           STORE    10D                                   #  AZIMUTH IN CER
000728: 34,7166           75176                           VMOVE    0
000729: 34,7167           31717                                    LABNBVER
000730: 34,7170           32015                           STORE    12D                                   #   VERTICAL IN CER
000731: 34,7171           76776                           ITC      0
000732: 34,7172           04761                                    AXISGEN
000733:
000734: 34,7173           75176                           VMOVE    0
000735: 34,7174           01477                                    XDC


000737: 34,7175           33403                           STORE    STARAD
000738:
000739: 34,7176           75176                           VMOVE    0
000740: 34,7177           01505                                    YDC
000741: 34,7200           33411                           STORE    STARAD     +6
000742:
000743: 34,7201           75176                           VMOVE    0
000744: 34,7202           01513                                    ZDC
000745: 34,7203           33417                           STORE    STARAD     +12D
000746: 34,7204           77576                           EXIT     0
000747: 34,7205           05654                           TC       BANKCALL
000748: 34,7206           25513                           CADR     POSSET
000749:


000751:
000752: 34,7207           11232        RESULTS            CCS      TESTNDX
000753: 34,7210           07241                           TC       CDUCALC
000754: 34,7211           07260                           TC       PIPCALC
000755: 34,7212           07241                           TC       CDUCALC
000756: 34,7213           41246        SFCALC             CS       DATAPL     +4
000757: 34,7214           61252                           AD       DATAPL     +8D
000758: 34,7215           51242                           TS       DATAPL
000759:
000760: 34,7216           04000                           TC       INTPRET
000761: 34,7217           54775                           TSU      1
000762: 34,7220           63631                           TSLT     ROUND
000763: 34,7221           01254                                    DATAPL     +9D
000764: 34,7222           01250                                    DATAPL     +5
000765: 34,7223           00017                                    14D
000766: 34,7224           43174                           SMOVE    2
000767: 34,7225           64712                           DMP      DDV
000768: 34,7226           76576                           RTB
000769: 34,7227           01243                                    DATAPL
000770: 34,7230           31743                                    DC585
000771: 34,7231           00001                                    0
000772: 34,7232           20404                                    SGNAGREE
000773: 34,7233           32622                           STORE    DSPTEM2
000774: 34,7234           77576                           EXIT     0
000775: 34,7235           03302                           TC       GRABDSP
000776: 34,7236           03310                           TC       PREGBSY
000777: 34,7237           05654                           TC       BANKCALL
000778: 34,7240           25256                           CADR     FINISH
000779:


000781:
000782: 34,7241           04000        CDUCALC            TC       INTPRET
000783: 34,7242           66774                           DSU      2
000784: 34,7243           61722                           BDDV     DMP
000785: 34,7244           76576                           RTB
000786: 34,7245           01245                                    DATAPL     +2
000787: 34,7246           01243                                    DATAPL
000788: 34,7247           01215                                    GENPL      +76D
000789: 34,7250           31745                                    ERUNITS                               #  2DEC.66666
000790: 34,7251           20404                                    SGNAGREE
000791: 34,7252           32622                           STORE    DSPTEM2
000792: 34,7253           77576                           EXIT     0
000793:
000794: 34,7254           03302                           TC       GRABDSP
000795: 34,7255           03310                           TC       PREGBSY
000796: 34,7256           05654                           TC       BANKCALL
000797: 34,7257           25256                           CADR     FINISH
000798:


000800:
000801: 34,7260           04000        PIPCALC            TC       INTPRET
000802: 34,7261           76576                           RTB      0
000803: 34,7262           20265                                    FRESHPD
000804: 34,7263           54775                           TSU      1
000805: 34,7264           63631                           TSLT     ROUND
000806: 34,7265           01105                                    GENPL      +4
000807: 34,7266           01244                                    DATAPL     +1
000808: 34,7267           00014                                    11D
000809: 34,7270           51176                           DSQ      0
000810: 34,7271           00001                                    0                                     #  T1(2) IN 2,3
000811: 34,7272           64775                           DMP      1
000812: 34,7273           41176                           VDEF
000813: 34,7274           00001                                    0
000814: 34,7275           00003                                    2
000815: 34,7276           33132                           STORE    GENPL      +25D
000816: 34,7277           54775                           TSU      1
000817: 34,7300           63631                           TSLT     ROUND
000818: 34,7301           01112                                    GENPL      +9D
000819: 34,7302           01244                                    DATAPL     +1
000820: 34,7303           00014                                    11D
000821: 34,7304           51176                           DSQ      0
000822: 34,7305           00001                                    0
000823: 34,7306           64775                           DMP      1                                     #  T2(2) IN 6
000824: 34,7307           41176                           VDEF
000825: 34,7310           00001                                    0
000826: 34,7311           00003                                    2
000827: 34,7312           33140                           STORE    GENPL      +31D
000828: 34,7313           54775                           TSU      1
000829: 34,7314           63631                           TSLT     ROUND
000830: 34,7315           01117                                    GENPL      +14D
000831: 34,7316           01244                                    DATAPL     +1D
000832: 34,7317           00014                                    11D
000833: 34,7320           51176                           DSQ      0
000834: 34,7321           00001                                    0
000835: 34,7322           64775                           DMP      1
000836: 34,7323           41176                           VDEF
000837: 34,7324           00001                                    0
000838: 34,7325           00003                                    2
000839: 34,7326           33146                           STORE    GENPL      +37D
000840: 34,7327           41775                           VXV      1
000841: 34,7330           42776                           DOT
000842: 34,7331           01140                                    GENPL      +31D
000843: 34,7332           01146                                    GENPL      +37D
000844: 34,7333           01132                                    GENPL      +25D
000845: 34,7334           33156                           STORE    GENPL      +45D                       #  D2
000846: 34,7335           45176                           DMOVE    0
000847: 34,7336           01110                                    GENPL      +7
000848: 34,7337           33132                           STORE    GENPL      +25D
000849: 34,7340           45176                           DMOVE    0
000850: 34,7341           01115                                    GENPL      +12D


000852: 34,7342           33140                           STORE    GENPL      +31D
000853: 34,7343           45176                           DMOVE    0
000854: 34,7344           01122                                    GENPL      +17D
000855: 34,7345           33146                           STORE    GENPL      +37D
000856: 34,7346           41774                           VXV      2
000857: 34,7347           42712                           DOT      DDV
000858: 34,7350           64771                           DMP      RTB
000859: 34,7351           01140                                    GENPL      +31D
000860: 34,7352           01146                                    GENPL      +37D
000861: 34,7353           01132                                    GENPL      +25D
000862: 34,7354           01156                                    GENPL      +45D
000863: 34,7355           31747                                    ERUNITS2
000864: 34,7356           20404                                    SGNAGREE
000865: 34,7357           32622                           STORE    DSPTEM2
000866: 34,7360           77576                           EXIT     0
000867: 34,7361           03302                           TC       GRABDSP
000868: 34,7362           03310                           TC       PREGBSY
000869: 34,7363           05654                           TC       BANKCALL
000870: 34,7364           25256                           CADR     FINISH
000871:


000873:
000874: 34,7365           04000        CHKCALC            TC       INTPRET
000875: 34,7366           76575                           RTB      1
000876: 34,7367           76576                           RTB
000877: 34,7370           20271                                    ZEROVAC
000878: 34,7371           20265                                    FRESHPD
000879: 34,7372           54775                           TSU      1
000880: 34,7373           63631                           TSLT     ROUND
000881: 34,7374           01264                                    DATAPL     +17D
000882: 34,7375           01245                                    DATAPL     +2
000883: 34,7376           00015                                    12D
000884: 34,7377           66774                           DSU      2
000885: 34,7400           63722                           TSLT     DMP
000886: 34,7401           62776                           DDV
000887: 34,7402           01262                                    DATAPL     +15D
000888: 34,7403           01243                                    DATAPL
000889: 34,7404           00015                                    12D
000890: 34,7405           31743                                    DC585                                 #  GZ IN 0,1
000891: 34,7406           54775                           TSU      1
000892: 34,7407           63631                           TSLT     ROUND
000893: 34,7410           01271                                    DATAPL     +22D
000894: 34,7411           01252                                    DATAPL     +7
000895: 34,7412           00015                                    12D
000896: 34,7413           66774                           DSU      2
000897: 34,7414           63722                           TSLT     DMP
000898: 34,7415           62776                           DDV
000899: 34,7416           01267                                    DATAPL     +20D
000900: 34,7417           01250                                    DATAPL     +5
000901: 34,7420           00015                                    12D
000902: 34,7421           31743                                    DC585                                 #  GY IN 2,3
000903: 34,7422           54775                           TSU      1
000904: 34,7423           63631                           TSLT     ROUND
000905: 34,7424           01276                                    DATAPL     +27D
000906: 34,7425           01257                                    DATAPL     +12D
000907: 34,7426           00015                                    12D
000908: 34,7427           33216                           STORE    TESTTIME
000909: 34,7430           66774                           DSU      2
000910: 34,7431           63722                           TSLT     DMP
000911: 34,7432           62603                           DDV      VDEF
000912: 34,7433           01274                                    DATAPL     +25D
000913: 34,7434           01255                                    DATAPL     +10D
000914: 34,7435           00015                                    12D
000915: 34,7436           31743                                    DC585
000916: 34,7437           01216                                    TESTTIME                              #  G IN 0,1,2,3,4,5
000917: 34,7440           71175                           ABVAL    1
000918: 34,7441           63771                           TSLT     RTB
000919: 34,7442           00001                                    0
000920: 34,7443           00002                                    1
000921: 34,7444           20404                                    SGNAGREE
000922: 34,7445           32622                           STORE    DSPTEM2
000923: 34,7446           77576                           EXIT     0


000925: 34,7447           03302                           TC       GRABDSP
000926: 34,7450           03310                           TC       PREGBSY
000927: 34,7451           05654                           TC       BANKCALL
000928: 34,7452           25205                           CADR     SHOW
000929:
000930: 34,7453           04000                           TC       INTPRET
000931: 34,7454           45176                           DMOVE    0
000932: 34,7455           01303                                    DATAPL     +32D
000933: 34,7456           45176                           DMOVE    0
000934: 34,7457           01301                                    DATAPL     +30D
000935: 34,7460           45174                           DMOVE    2
000936: 34,7461           41153                           VDEF     UNIT
000937: 34,7462           44776                           VSLT
000938: 34,7463           01255                                    DATAPL     +10D
000939: 34,7464           00002                                    1                                     #  V1 IN 6,7,8,9,10,11
000940: 34,7465           45176                           DMOVE    0
000941: 34,7466           01307                                    DATAPL     +36D
000942: 34,7467           45176                           DMOVE    0
000943: 34,7470           01305                                    DATAPL     +34D
000944: 34,7471           45174                           DMOVE    2
000945: 34,7472           41153                           VDEF     UNIT
000946: 34,7473           44776                           VSLT
000947: 34,7474           01274                                    DATAPL     +25D
000948: 34,7475           00002                                    1                                     #  V2 IN 12,13,14,15,1 ,17
000949:
000950: 34,7476           41773                           VXV      3
000951: 34,7477           71116                           ABVAL    TSLT
000952: 34,7500           62722                           DDV      DMP
000953: 34,7501           76576                           RTB
000954: 34,7502           00007                                    6
000955: 34,7503           00015                                    12D
000956: 34,7504           00002                                    1
000957: 34,7505           01216                                    TESTTIME
000958: 34,7506           31753                                    ERUNITS1
000959: 34,7507           20404                                    SGNAGREE
000960: 34,7510           32622                           STORE    DSPTEM2
000961: 34,7511           77576                           EXIT     0
000962:
000963: 34,7512           05654                           TC       BANKCALL
000964: 34,7513           25205                           CADR     SHOW
000965: 34,7514           06237                           TC       ENDTEST1
000966:


000968:
000969: 34,7515           05706        STOPHOR            TC       MAKECADR
000970: 34,7516           51573                           TS       RETAA
000971: 34,7517           04000                           TC       INTPRET
000972: 34,7520           76776                           ITC      0
000973: 34,7521           30613                                    EARTHR
000974: 34,7522           76776                           ITC      0
000975: 34,7523           30634                                    OUTGYR
000976: 34,7524           77576                           EXIT     0
000977: 34,7525           05654                           TC       BANKCALL
000978: 34,7526           30331                           CADR     IMUSTALL
000979: 34,7527           06237                           TC       ENDTEST1
000980: 34,7530           31573                           XCH      RETAA
000981: 34,7531           05723                           TC       BANKJUMP
000982:


000984:
000985: 34,7532           05706        SCRINTP            TC       MAKECADR
000986: 34,7533           51573                           TS       RETAA
000987: 34,7534           04000                           TC       INTPRET
000988: 34,7535           47575                           NOLOD    1
000989: 34,7536           54776                           TSU
000990: 34,7537           01250                                    DATAPL     +5
000991: 34,7540           32001                           STORE    0                                     #  T1:T0
000992:
000993: 34,7541           47575                           NOLOD    1
000994: 34,7542           60776                           TAD
000995: 34,7543           01250                                    DATAPL     +5
000996: 34,7544           33250                           STORE    DATAPL     +5                         #  TN
000997:
000998: 34,7545           77174                           TMOVE    2
000999: 34,7546           63631                           TSLT     ROUND
001000: 34,7547           64742                           DMP      DAD
001001: 34,7550           00001                                    0
001002: 34,7551           00015                                    12D
001003: 34,7552           01101                                    GENPL
001004: 34,7553           01103                                    GENPL      +2
001005: 34,7554           33103                           STORE    GENPL      +2
001006: 34,7555           77576                           EXIT     0
001007:
001008: 34,7556           11220                           CCS      COUNTPL
001009: 34,7557           07574                           TC       SUMSUM1
001010:
001011: 34,7560           04000                           TC       INTPRET
001012: 34,7561           71576                           LXC,1    0
001013: 34,7562           01225                                    RESULTCT                              #  FIRST=4
001014: 34,7563           77176                           TMOVE    0                                     #  SECOND=9
001015: 34,7564           01250                                    DATAPL     +5
001016: 34,7565           36201                           STORE    GENPL,1
001017: 34,7566           45176                           DMOVE    0
001018: 34,7567           01103                                    GENPL      +2
001019: 34,7570           36207                           STORE    GENPL      +3,1
001020: 34,7571           77576                           EXIT     0
001021: 34,7572           31573                           XCH      RETAA
001022: 34,7573           05723                           TC       BANKJUMP
001023:
001024:
001025:
001026: 34,7574           05654        SUMSUM1            TC       BANKCALL
001027: 34,7575           25456                           CADR     SUMSUM
001028:


001030:
001031: 34,7576           04000        FALNED1            TC       INTPRET
001032: 34,7577           76776                           ITC      0
001033: 34,7600           30573                                    ALGNINIT
001034: 34,7601           77576                           EXIT     0
001035: 34,7602           11232                           CCS      TESTNDX
001036: 34,7603           07666                           TC       LABTEST1
001037: 34,7604           07606                           TC       +2
001038: 34,7605           07606                           TC       +1
001039: 34,7606           05654                           TC       BANKCALL
001040: 34,7607           25331                           CADR     OGCZERO
001041: 34,7610           05654                           TC       BANKCALL
001042: 34,7611           25343                           CADR     FLTRZERO
001043: 34,7612           34510        FRECT              CAF      BIT7
001044: 34,7613           51230                           TS       STOREPL
001045: 34,7614           35501                           CAF      ZERO                                  #  VERTICAL ERECTION BY NULLING PIPAS
001046: 34,7615           50044                           TS       PIPAX
001047: 34,7616           50045                           TS       PIPAY
001048: 34,7617           50046                           TS       PIPAZ
001049: 34,7620           33232        WARTNEW            CAF      TEN                                   #  CALL A SPADE A SPADE...HOMER
001050: 34,7621           51220                           TS       COUNTPL
001051: 34,7622           20017                           INHINT
001052: 34,7623           33562                           CAF      50DEC
001053: 34,7624           02173                           TC       WAITLIST
001054: 34,7625           71631                           CADR     WARTNEW1
001055: 34,7626           37630                           CAF      WART2ADR
001056: 34,7627           02127                           TC       JOBSLEEP
001057: 34,7630           71634        WART2ADR           CADR     WART2NEW
001058: 34,7631           37630        WARTNEW1           CAF      WART2ADR
001059: 34,7632           02060                           TC       JOBWAKE
001060: 34,7633           02256                           TC       TASKOVER
001061: 34,7634           04000        WART2NEW           TC       INTPRET
001062: 34,7635           76576                           RTB      0
001063: 34,7636           20346                                    READPIPS
001064: 34,7637           33002                           STORE    DELVX
001065: 34,7640           76776                           ITC      0
001066: 34,7641           30715                                    TJLAL
001067: 34,7642           77576                           EXIT     0
001068: 34,7643           11220                           CCS      COUNTPL
001069: 34,7644           07621                           TC       WARTNEW    +1
001070: 34,7645           04000                           TC       INTPRET
001071: 34,7646           75175                           VMOVE    1
001072: 34,7647           76776                           ITC
001073: 34,7650           01115                                    FILDELX
001074: 34,7651           31000                                    VERTRECT
001075: 34,7652           76776                           ITC      0
001076: 34,7653           30613                                    EARTHR
001077: 34,7654           76776                           ITC      0
001078: 34,7655           30634                                    OUTGYR
001079: 34,7656           77576                           EXIT     0
001080: 34,7657           05654                           TC       BANKCALL


001082: 34,7660           30331                           CADR     IMUSTALL
001083: 34,7661           06237                           TC       ENDTEST1
001084:
001085: 34,7662           11230                           CCS      STOREPL
001086: 34,7663           07613                           TC       FRECT      +1
001087: 34,7664           05654                           TC       BANKCALL
001088: 34,7665           24721                           CADR     TSTJUMP
001089:
001090:
001091:
001092: 34,7666           05654        LABTEST1           TC       BANKCALL
001093: 34,7667           24751                           CADR     LABTEST
001094:


001096:
001097: 34,7670           67222 51710  SCNBAZ             2DEC     -.27232                               #  AZIMUTH OF NB IS ERAD IN AS Z AXIS EAST
001098: 34,7672           00000 00000                     2DEC     0          B-28
001099: 34,7674           15327 37747                     2DEC     .4194335
001100: 34,7676           00000 00000  LABNBAZ            2DEC     0          B-28
001101: 34,7700           00000 00000                     2DEC     0          B-28
001102: 34,7702           20000 00000                     2DEC     .5
001103: 34,7704           00000 00000  LABNBAZ1           2DEC     0          B-28
001104: 34,7706           00000 00000                     2DEC     0          B-28
001105: 34,7710           15327 37747  SCNBVER            2DEC     .4194335
001106: 34,7712           00000 00000                     2DEC     0          B-28
001107: 34,7714           10555 26067                     2DEC     .27232
001108: 34,7716           20000 00000  LABNBVER           2DEC     .5
001109: 34,7720           00000 00000                     2DEC     0          B-28
001110: 34,7722           00000 00000                     2DEC     0          B-28
001111: 34,7724           00000 00000  LBNBVER1           2DEC     0          B-28
001112: 34,7726           57777 77777                     2DEC     -.5
001113: 34,7730           00666        V06N66E            OCT      00666
001114: 34,7731           00130        V01N30E            OCT      00130
001115: 34,7732           03711 33265  OMEG/MS            2DEC     .12169524
001116: 34,7734           24365 30244  SCALFTR            2DEC     .64
001117: 34,7736           24000        INTCON1            DEC      40         B+8
001118: 34,7737           00000                           DEC      0          B-14
001119: 34,7740           01100        FLNDX              ADRES    GENPL
001120: 34,7741           00021        MTRXLD             DEC      17         B-14
001121: 34,7742           01111 00000  DC585              2DEC     585        B+14
001122: 34,7744           00406 36355  ERUNITS            2DEC     4308205    B-28                       #  CONSTANT CORRECTED FOR SIDEREAL RATE
001123: 34,7746           00002 12725  ERUNITS2           2DEC     38357      B-28
001124: 34,7750           03146 14632  VRECTC3            2DEC     .1


001126: 34,7752           00051 33163  ERUNITS1           2DEC     685683     B-28
001127:


001129:
001130: 34,7754           76576        ERTHRVEN           RTB      0
001131: 34,7755           20271                                    ZEROVAC
001132: 34,7756           55176                           COS      0
001133: 34,7757           01315                                    LATITUDE
001134: 34,7760           45176                           DMOVE    0
001135: 34,7761           05174                                    ZERODP
001136: 34,7762           57175                           SIN      1
001137: 34,7763           41166                           VDEF     VXSC
001138: 34,7764           01315                                    LATITUDE
001139: 34,7765           31733                                    OMEG/MS
001140: 34,7766           33177                           STORE    VMARK
001141: 34,7767           40576                           ITCQ     0

End of include-file IMU_PERFORMANCE_TESTS_2.agc.  Parent file is MAIN.agc


