
Source Code


000002:                                                                                                  ## Copyright:   Public domain.
000003:                                                                                                  ## Filename:    IMU_COMPENSATION_PACKAGE.agc
000004:                                                                                                  ## Purpose:     Part of the source code for Solarium build 55. This
000005:                                                                                                  ##              is for the Command Module's (CM) Apollo Guidance
000006:                                                                                                  ##              Computer (AGC), for Apollo 6.
000007:                                                                                                  ## Assembler:   yaYUL --block1
000008:                                                                                                  ## Contact:     Jim Lawton <jim DOT lawton AT gmail DOT com>
000009:                                                                                                  ## Website:     www.ibiblio.org/apollo/index.html
000010:                                                                                                  ## Page Scans:  www.ibiblio.org/apollo/ScansForConversion/Solarium055/
000011:                                                                                                  ## Mod history: 2009-09-29 JL   Created.
000012:                                                                                                  ##              2016-08-18 RSB  Typos.
000013:                                                                                                  ##              2016-12-28 RSB  Proofed comment text using octopus/ProoferComments,
000014:                                                                                                  ##                              and fixed errors found.
000015:


000017:
000018:                                                                                                  #        THE FOLLWOING ROUTINE IS DESIGNED TO COMPENSATE FOR PIPA BIAS AND SCALE FACTOR ERROR. ATTHE SAME TIME,
000019:                                                                                                  #  IT ACCUMULATES GYRO TORQUE COMMANDS NECESSARY TO COMPENSATE FOR THE ASSOCIATED BIAS AND ACCELERATION-CAUSED GYRO
000020:                                                                                                  #  DRIFTS. THIS ROUTINE EXPECTS TO FIND PIPA READINGS IN THE MAJOR PARTS OF DELV (DELVX, DELVY, DELVZ), WITH THE
000021:                                                                                                  #  MINOR PARTS IRRELEVANT. OUTPUT FROM 1/PIPA IS DOUBLE PRECISION COMPENSATED DATA, THE MINOR PART OF WHICH USUALLY
000022:                                                                                                  #  CONTAINS ALL THE COMPENSATION. 1/PIPA MUST BE CALLED AT LEAST EVERY 2.56 SECONDS, DUE TO SCALING CONSIDERATIONS.
000023:                                                                                                  #  SPECIFICALLY, THE CORRECTION IS:
000024:
000025:                                                                                                  #        PIPA  = PIPA (1 + SCALE FACTOR ERROR) - BIAS DELTAT
000026:                                                                                                  #            C       I
000027:
000028:                                                                                                  #  WHERE PIPA  IS THE COMPENSATED DATA OBTAINED FROM THE SAMPLED PIPA .
000029:                                                                                                  #            C                                                       I
000030:
000031:
000032:
000033: 14,7017                                           BANK     14
000034: 14,7017           35502        1/PIPA             CAF      FOUR                                  #  LOOP TO PROCESS INPUT PIPA DATA.
000035: 14,7020           50101                 +1        TS       BUF        +2
000036: 14,7021           20000                           INDEX    A
000037: 14,7022           41001                           CS       DELVX                                 #  SAMPLED PIPA INTO MPAC
000038: 14,7023           50115                           TS       MPAC
000039: 14,7024           20101                           INDEX    BUF        +2                         #  SUBTRACT BIAS TERM (LESS THAN 1 BIT).
000040: 14,7025           40736                           CS       PIPABIAS
000041: 14,7026           25777                           EXTEND
000042: 14,7027           40755                           MP       1/PIPADT                              #  SUPPLIED BY USER SCALED AT CS 2(-8),
000043: 14,7030           50116                           TS       MPAC       +1
000044:
000045: 14,7031           40115                           CS       MPAC                                  #  SHIFT THE PIPA READING LEFT THREE PLACES
000046: 14,7032           50115                           TS       MPAC
000047: 14,7033           25777                           EXTEND                                         #  IN PREPARATION FOR SCALE FACTOR
000048: 14,7034           44513                           MP       BIT4                                  #  CORRECTION. IF IT OVERFLOWS, SHIFT THE
000049: 14,7035           10000                           CCS      A                                     #  SCALE FACTOR ERROR RIGHT 11 PLACES
000050: 14,7036           07216                           TC       PIPOVF                                #  TAKING A LOSS IN PRECISION.
000051:
000052: 14,7037           07041                           TC       +2                                    #  THE ABOVE HAPPENS AT DELTA VS OF OVER
000053: 14,7040           07216                           TC       PIPOVF                                #  12 G-SECS., RESULTING IN A SCALE FACTOR
000054: 14,7041           20101                           INDEX    BUF        +2                         #  CORRECTION GOOD ONLY TO 60 PPM.
000055: 14,7042           40737                           CS       PIPASCF
000056: 14,7043           40000                           COM
000057: 14,7044           25777                           EXTEND
000058: 14,7045           40003                           MP       LP
000059: 14,7046           60116                           AD       MPAC       +1                         #  ADD TO BIAS CORRECTION.
000060: 14,7047           20101                           INDEX    BUF        +2
000061: 14,7050           51002                           TS       DELVX      +1                         #  AND MAYBE SKIP.
000062: 14,7051           35501                           CAF      ZERO
000063:
000064: 14,7052           60115                           AD       MPAC
000065: 14,7053           20101                           INDEX    BUF        +2
000066: 14,7054           51001                           TS       DELVX


000068:
000069: 14,7055           10101        PIPJUMP            CCS      BUF        +2                         #  LOOP TO PROCESS NEXT COMPONENT.
000070: 14,7056           64335                           AD       NEG1
000071: 14,7057           07020                           TC       1/PIPA     +1
000072: 14,7060           00756        LGCOMP             ADRES    GCOMP
000073:


000075:
000076:                                                                                                  #        THE FOLLOWING ROUTINE COMPUTES THE GYRO TORQUES NECESSARY TO COMPENSATE FOR THE ACCELERATION-SENSITIVE
000077:                                                                                                  #  DRIFTS DUE TO THE DATA JUST PROCESSED, AND SUMS THEM INTO THE GCOMP REGISTERS.
000078:
000079: 14,7061           50101                           TS       GCOMPSW                               #  SET GYRO TORQUE INDICATOR TO ZERO.
000080: 14,7062           50077                           TS       BUF                                   #  RELATIVE ADDRESS OF PRESENT COMPONENT.
000081:
000082: 14,7063           41001                           CS       DELVX                                 #  PROCESS X COMPONENT.
000083: 14,7064           50115                           TS       MPAC
000084: 14,7065           41002                           CS       DELVX      +1
000085: 14,7066           50116                           TS       MPAC       +1
000086: 14,7067           40747                           CS       ADIAX
000087: 14,7070           07145                           TC       GCOMPSUB   -1
000088:
000089: 14,7071           41003                           CS       DELVY
000090: 14,7072           50115                           TS       MPAC
000091: 14,7073           41004                           CS       DELVY      +1
000092: 14,7074           50116                           TS       MPAC       +1
000093: 14,7075           40752                           CS       ADSRAX
000094: 14,7076           07146                           TC       GCOMPSUB
000095:
000096: 14,7077           40744                           CS       GBIASX                                #  ADD IN BIAS DRIFTS.
000097: 14,7100           07171                           TC       DRIFTSUB
000098:
000099: 14,7101           41003                           CS       DELVY                                 #  COMPUTE Y GYRO COMPENSATION.
000100: 14,7102           50115                           TS       MPAC
000101: 14,7103           41004                           CS       DELVY      +1
000102: 14,7104           50116                           TS       MPAC       +1
000103: 14,7105           40750                           CS       ADIAY
000104: 14,7106           07145                           TC       GCOMPSUB   -1
000105:
000106: 14,7107           41005                           CS       DELVZ
000107: 14,7110           50115                           TS       MPAC
000108: 14,7111           41006                           CS       DELVZ      +1
000109: 14,7112           50116                           TS       MPAC       +1
000110: 14,7113           40753                           CS       ADSRAY
000111: 14,7114           07146                           TC       GCOMPSUB
000112:
000113: 14,7115           40745                           CS       GBIASY
000114: 14,7116           07171                           TC       DRIFTSUB
000115:


000117: 14,7117           41003                           CS       DELVY                                 #  CORRESPONDING PATTERN FOR Z GYRO.
000118: 14,7120           50115                           TS       MPAC
000119: 14,7121           41004                           CS       DELVY      +1
000120: 14,7122           50116                           TS       MPAC       +1
000121: 14,7123           40754                           CS       ADSRAZ
000122: 14,7124           07145                           TC       GCOMPSUB   -1
000123:
000124: 14,7125           41005                           CS       DELVZ
000125: 14,7126           50115                           TS       MPAC
000126: 14,7127           41006                           CS       DELVZ      +1
000127: 14,7130           50116                           TS       MPAC       +1
000128: 14,7131           40751                           CS       ADIAZ
000129: 14,7132           07145                           TC       GCOMPSUB   -1
000130:
000131: 14,7133           40746                           CS       GBIASZ
000132: 14,7134           07171                           TC       DRIFTSUB
000133:
000134: 14,7135           10101                           CCS      GCOMPSW                               #  NON-ZERO IF TIME TO PUT OUT COMPENSATION
000135: 14,7136           07140                           TC       +2
000136: 14,7137           05702                           TC       SWRETURN                              #  TORQUES NOT BIG ENOUGH YET.
000137:
000138: 14,7140           20017                           INHINT
000139: 14,7141           32170                           CAF      PRIO35                                #  REQUEST COMPENSATION JOB
000140: 14,7142           02052                           TC       NOVAC
000141: 14,7143           31237                           CADR     1/GYRO
000142:
000143: 14,7144           06020                           TC       MODEEXIT                              #  RELINT AND RETURN TO SWRETURN.
000144:


000146:
000147:                                                                                                  #        SUBROUTINES USED TO ACCUMULATE GYRO COMPENSATION COMMANDS.
000148:
000149: 14,7145           40000                 -1        COM                                            #  (ENTERS HERE TO RE-COMPLEMENT INPUT).
000150: 14,7146           30116        GCOMPSUB           XCH      MPAC       +1                         #  DOES DP BY SINGLE MULTIPLY WITH DP ADD
000151: 14,7147           25777                           EXTEND                                         #  TO STORAGE.
000152: 14,7150           40116                           MP       MPAC       +1
000153: 14,7151           30116                           XCH      MPAC       +1
000154: 14,7152           25777                           EXTEND
000155: 14,7153           40115                           MP       MPAC
000156: 14,7154           50034                           TS       OVCTR
000157: 14,7155           30003                           XCH      LP
000158: 14,7156           60116                           AD       MPAC       +1                         #  (AND MAYBE INCREMENT OVCTR).
000159:
000160: 14,7157           20077        BIASCOMP           INDEX    BUF                                   #  BIAS COMPENSATION ENTERS HERE.
000161: 14,7160           60757                           AD       GCOMP      +1
000162: 14,7161           20077                           INDEX    BUF
000163: 14,7162           30757                           XCH      GCOMP      +1
000164: 14,7163           30034                           XCH      OVCTR
000165: 14,7164           20077                           INDEX    BUF
000166: 14,7165           60756                           AD       GCOMP
000167: 14,7166           20077                           INDEX    BUF
000168: 14,7167           50756                           TS       GCOMP
000169:
000170: 14,7170           00001                           TC       Q
000171:


000173:
000174:                                                                                                  #        SUBROUTINE WHICH ADDS IN GYRO BIAS DRIFT, TESTS TORQUE SIZE TO SEE IF COMMANDS SHOULD BE PUT OUT, AND
000175:                                                                                                  #  ADVANCES GCOMP POINTER.
000176:
000177: 14,7171           30001        DRIFTSUB           XCH      Q
000178: 14,7172           50100                           TS       BUF        +1
000179: 14,7173           30001                           XCH      Q
000180: 14,7174           25777                           EXTEND
000181: 14,7175           40755                           MP       1/PIPADT
000182: 14,7176           25777                           EXTEND                                         #  RESULT WAS IN GYRO PULSES X 2(+2).
000183: 14,7177           45502                           MP       FOUR                                  #  RE-SCALE TO ADD INTO GCOMP REGISTER.
000184: 14,7200           50034                           TS       OVCTR
000185: 14,7201           30003                           XCH      LP                                    #  GO TO STANDARD INCREMENT ROUTINE.
000186: 14,7202           07157        DRFTSUB2           TC       BIASCOMP
000187:
000188: 14,7203           35503                           CAF      TWO                                   #  INCREMENT POINTER AND
000189: 14,7204           60077                           AD       BUF
000190: 14,7205           30077                           XCH      BUF                                   #  CHECK MAGNITUDE OF TORQUE COMMAND. IF
000191: 14,7206           20000                           INDEX    A                                     #  SUFFICIENTLY LARGE, SET GCOMPSW PNZ TO
000192: 14,7207           10756                           CCS      GCOMP                                 #  CALL FOR COMPENSATION JOB, 1/GYRO.
000193: 14,7210           07212                           TC       +2                                    #  GETS DABS OF COMMAND.
000194: 14,7211           00100                           TC       BUF        +1
000195:
000196: 14,7212           77260                           MASK     COMPCHK
000197: 14,7213           10000                           CCS      A
000198: 14,7214           50101                           TS       GCOMPSW
000199: 14,7215           00100                           TC       BUF        +1                         #  RETURN.
000200:


000202:
000203:                                                                                                  #        (1/PIPA COMES HERE IF PIPA COUNTER SHOWED A DELTA V OF OVER 12 G-SEC.)
000204:
000205: 14,7216           20101        PIPOVF             INDEX    BUF        +2                         #  SHIFT THE SCALE FACTOR RIGHT 11 ON OVF.
000206: 14,7217           40737                           CS       PIPASCF
000207: 14,7220           40000                           COM
000208: 14,7221           25777                           EXTEND
000209: 14,7222           44513                           MP       BIT4
000210: 14,7223           25777                           EXTEND                                         #  FORM DP INCREMENT TO DELV IN THIS CASE.
000211: 14,7224           40115                           MP       MPAC
000212: 14,7225           50034                           TS       OVCTR
000213:
000214: 14,7226           30003                           XCH      LP
000215: 14,7227           60116                           AD       MPAC       +1                         #  MAYBE INCREMENTING OVCTR.
000216: 14,7230           20101                           INDEX    BUF        +2
000217: 14,7231           31002                           XCH      DELVX      +1                         #  NO SKIP SINCE OVCTR SET.
000218: 14,7232           30034                           XCH      OVCTR
000219: 14,7233           60115                           AD       MPAC
000220: 14,7234           20101                           INDEX    BUF        +2
000221: 14,7235           31001                           XCH      DELVX
000222: 14,7236           07055                           TC       PIPJUMP                               #  JUMP ON LOOP COUNTER.
000223:


000225:
000226:                                                                                                  #        THE FOLLOWING JOB IS INITIATED BY 1/PIPA TO PUT OUT COMPENSATING GYRO TORQUE COMMANDS.
000227:
000228: 14,7237           34504        1/GYRO             CAF      BIT11                                 #  IF MODE SWITCH IN PROGRESS, DONT PUT
000229: 14,7240           70646                           MASK     FLAGWRD1                              #  OUT COMPENSATION THIS TIME.
000230: 14,7241           10000                           CCS      A
000231: 14,7242           02124                           TC       ENDOFJOB
000232:
000233: 14,7243           03416                           TC       FLAG1UP                               #  SHOW IMU ACTIVITY
000234: 14,7244           02000                           OCT      02000                                 #  FLAG TURNED OFF BY GYRO ROUTINES.
000235:
000236: 14,7245           37060                           CAF      LGCOMP                                #  DISABLE THE T4RUPT CDU DRIVE THEMSELVES.
000237: 14,7246           05654                           TC       BANKCALL
000238: 14,7247           31347                           CADR     GYROSPNT                              #  NO TWITCH (2+2-) ON ZERO INPUT.
000239:
000240: 14,7250           05654                           TC       BANKCALL
000241: 14,7251           30331                           CADR     IMUSTALL
000242: 14,7252           03066                           TC       CURTAINS
000243:
000244: 14,7253           35501                           CAF      ZERO                                  #  ZERO GCOMP REGSITERS SINCE COMMANDS HAVE
000245: 14,7254           50756                           TS       GCOMP                                 #  BEEN PUT OUT.
000246: 14,7255           50760                           TS       GCOMP      +2
000247: 14,7256           50762                           TS       GCOMP      +4
000248:
000249: 14,7257           02124                           TC       ENDOFJOB
000250:
000251: 14,7260           77740        COMPCHK            OCT      -37                                   #  COMMANDS MUST BE AT LEAST 32 PLS.
000252:


000254:
000255:                                                                                                  #        THE FOLLOWING ROUTINE SUPPLIES GYRO DRIFT COMPENSATION DURING THOSE PORTIONS OF A MISSION WHICH DO NOT
000256:                                                                                                  #  USE PIPA DATA. THIS JOB IS CALLED EVERY 81.93 SECONDS (WHEN APPROPRIATE) BY THE IDLE TASK.
000257:
000258: 14,7261           40036        BIASONLY           CS       TIME1                                 #  COMPUTE TIME DIFFERENCE (ALMOST ALWAYS
000259: 14,7262           40000                           COM                                            #  81.93 SECS.).
000260: 14,7263           30755                           XCH      OLDBT1
000261: 14,7264           40000                           COM
000262: 14,7265           60755                           AD       OLDBT1
000263: 14,7266           10000        BONLY2             CCS      A                                     #  LASTBIAS ENTERS HERE.
000264: 14,7267           64516                           AD       ONE
000265: 14,7270           07275                           TC       BONLY3
000266: 14,7271           07273                           TC       +2
000267: 14,7272           02124                           TC       ENDOFJOB                              #  MAY HAVE A COMPUTED DIFF = 0.
000268:
000269: 14,7273           40000                           COM
000270: 14,7274           64476                           AD       POSMAX
000271:
000272: 14,7275           25777        BONLY3             EXTEND                                         #  FORM DELTA-T AT 2(+8) CS.
000273: 14,7276           44506                           MP       BIT9                                  #  SHIFT RIGHT 6.
000274: 14,7277           50115                           TS       MPAC
000275: 14,7300           50106                           TS       TEM9
000276: 14,7301           30003                           XCH      LP
000277: 14,7302           50116                           TS       MPAC       +1
000278: 14,7303           50107                           TS       TEM10
000279: 14,7304           35501                           CAF      ZERO
000280: 14,7305           50101                           TS       GCOMPSW
000281: 14,7306           50077                           TS       BUF
000282:
000283: 14,7307           40744                           CS       GBIASX                                #  DO X, Y, AND THEN Z.
000284: 14,7310           07331                           TC       FBIASSUB
000285:
000286: 14,7311           40106                           CS       TEM9                                  #  RELOAD DT.
000287: 14,7312           50115                           TS       MPAC
000288: 14,7313           40107                           CS       TEM10
000289: 14,7314           50116                           TS       MPAC       +1
000290: 14,7315           40745                           CS       GBIASY
000291: 14,7316           07330                           TC       FBIASSUB   -1
000292:
000293: 14,7317           40106                           CS       TEM9
000294: 14,7320           50115                           TS       MPAC
000295: 14,7321           40107                           CS       TEM10
000296: 14,7322           50116                           TS       MPAC       +1
000297: 14,7323           40746                           CS       GBIASZ
000298: 14,7324           07330                           TC       FBIASSUB   -1


000300: 14,7325           10101                           CCS      GCOMPSW                               #  PUT OUT COMPENSATION IF CALLED FOR.
000301: 14,7326           07237                           TC       1/GYRO
000302: 14,7327           02124                           TC       ENDOFJOB
000303:
000304: 14,7330           40000                 -1        COM
000305: 14,7331           30001        FBIASSUB           XCH      Q
000306: 14,7332           50100                           TS       BUF        +1
000307: 14,7333           35501                           CAF      ZERO
000308: 14,7334           50117                           TS       MPAC       +2
000309: 14,7335           30001                           XCH      Q
000310: 14,7336           05416                           TC       SHORTMP
000311: 14,7337           30115                           XCH      MPAC
000312: 14,7340           50034                           TS       OVCTR
000313: 14,7341           30116                           XCH      MPAC       +1
000314: 14,7342           07202                           TC       DRFTSUB2                              #  RETURN TO CALLER VIA BUF +1.
000315:
000316: 14,7343           30755        LASTBIAS           XCH      OLDBT1                                #  COMES HERE FOR TRANSITION TO PIPA READ-
000317: 14,7344           40000                           COM                                            #  ING MODE. NEW VALUE OF 1/PIPADT ARRIVES
000318: 14,7345           60115                           AD       MPAC                                  #  IN A WITH WITH TIME1 AT PIPA ZEROING IN
000319: 14,7346           07266                           TC       BONLY2                                #  MPAC. EXITS VIA ENDOFJOB.

End of include-file IMU_COMPENSATION_PACKAGE.agc.  Parent file is MAIN.agc


