
Source Code


000002:                                                                                                  ## Copyright:   Public domain.
000003:                                                                                                  ## Filename:    INTERRUPT_TRANSFER_ROUTINES.agc
000004:                                                                                                  ## Purpose:     Part of the source code for Solarium build 55. This
000005:                                                                                                  ##              is for the Command Module's (CM) Apollo Guidance
000006:                                                                                                  ##              Computer (AGC), for Apollo 6.
000007:                                                                                                  ## Assembler:   yaYUL --block1
000008:                                                                                                  ## Contact:     Jim Lawton <jim DOT lawton AT gmail DOT com>
000009:                                                                                                  ## Website:     www.ibiblio.org/apollo/index.html
000010:                                                                                                  ## Page Scans:  www.ibiblio.org/apollo/ScansForConversion/Solarium055/
000011:                                                                                                  ## Mod history: 2009-09-14 JL   Created.
000012:                                                                                                  ##              2016-08-18 RSB  Some corrections.
000013:                                                                                                  ##              2016-12-28 RSB  Proofed comment text using octopus/ProoferComments,
000014:                                                                                                  ##                              but no errors found.
000015:


000017:    2000                                           SETLOC   2000
000018:
000019:    2000           50026                           TS       ARUPT
000020:    2001           30001                           XCH      Q
000021:    2002           30027                           XCH      QRUPT
000022:    2003           02177                           TC       T3RUPT
000023:
000024:    2004           50026                           TS       ARUPT
000025:    2005           30001                           XCH      Q
000026:    2006           30027                           XCH      QRUPT
000027:    2007           02034                           TC       ERRUPT
000028:
000029:    2010           50026                           TS       ARUPT
000030:    2011           30001                           XCH      Q
000031:    2012           30027                           XCH      QRUPT
000032:    2013           02630                           TC       T4RUPT                                #  OUTPUT CONTROL.
000033:
000034:    2014           50026                           TS       ARUPT
000035:    2015           30001                           XCH      Q
000036:    2016           30027                           XCH      QRUPT
000037:    2017           02042                           TC       KEYRUPT
000038:
000039:    2020           50026                           TS       ARUPT
000040:    2021           30001                           XCH      Q
000041:    2022           30027                           XCH      QRUPT
000042:    2023           02037                           TC       UPRUPT
000043:
000044:    2024           50026                           TS       ARUPT
000045:    2025           30001                           XCH      Q
000046:    2026           30027                           XCH      QRUPT
000047:    2027           02377                           TC       DOWNRUPT                              #  DOWNLINK.
000048:
000049:    2030           20017                           INHINT                                         #  GOJAM - PARITY ALARM, POWER FAIL, ETC.
000050:    2031           32075                           CAF      EXECBANK
000051:
000052:    2032           50015                           TS       BANKREG
000053:    2033           07005                           TC       GOPROG
000054:


000056:    2034           03007        ERRUPT             TC       ALARM                                 #  ***NO ERRUPTS IN SYSTEM 5***
000057:    2035           01101                           OCT      01101
000058:    2036           02266                           TC       NBRESUME
000059:
000060:    2037           32075        UPRUPT             CAF      UPBANK                                #  CALL IN BANK WITH UPRUPT PROGRAM.
000061:    2040           30015                           XCH      BANKREG
000062:    2041           07375                           TC       UPRUPTB
000063:
000064:    2042           32045        KEYRUPT            CAF      MODEBANK
000065:    2043           30015                           XCH      BANKREG
000066:    2044           06461                           TC       KEYRUPTA
000067:
000068:    2045           30461        MODEBANK           CADR     KEYRUPTA

End of include-file INTERRUPT_TRANSFER_ROUTINES.agc.  Parent file is MAIN.agc


