
Source Code


000002:                                                                                                  #  Copyright:    Public domain.
000003:                                                                                                  #  Filename:     INTERRUPT_TRANSFER_ROUTINES.agc
000004:                                                                                                  #  Purpose:      Part of the source code for Solarium build 55. This
000005:                                                                                                  #                is for the Command Module's (CM) Apollo Guidance
000006:                                                                                                  #                Computer (AGC), for Apollo 6.
000007:                                                                                                  #  Assembler:    yaYUL --block1
000008:                                                                                                  #  Contact:      Jim Lawton <jim DOT lawton AT gmail DOT com>
000009:                                                                                                  #  Website:      www.ibiblio.org/apollo/index.html
000010:                                                                                                  #  Page scans:   www.ibiblio.org/apollo/ScansForConversion/Solarium055/
000011:                                                                                                  #  Mod history:  2009-09-14 JL   Created.
000012:                                                                                                  #                2016-08-18 RSB  Some corrections.
000013:
000014:                                                                                                  # # Page 35
000015:    2000                                           SETLOC   2000
000016:
000017:    2000           50026                           TS       ARUPT
000018:    2001           30001                           XCH      Q
000019:    2002           30027                           XCH      QRUPT
000020:    2003           02177                           TC       T3RUPT
000021:
000022:    2004           50026                           TS       ARUPT
000023:    2005           30001                           XCH      Q
000024:    2006           30027                           XCH      QRUPT
000025:    2007           02034                           TC       ERRUPT
000026:
000027:    2010           50026                           TS       ARUPT
000028:    2011           30001                           XCH      Q
000029:    2012           30027                           XCH      QRUPT
000030:    2013           02630                           TC       T4RUPT                                #  OUTPUT CONTROL.
000031:
000032:    2014           50026                           TS       ARUPT
000033:    2015           30001                           XCH      Q
000034:    2016           30027                           XCH      QRUPT
000035:    2017           02042                           TC       KEYRUPT
000036:
000037:    2020           50026                           TS       ARUPT
000038:    2021           30001                           XCH      Q
000039:    2022           30027                           XCH      QRUPT
000040:    2023           02037                           TC       UPRUPT
000041:
000042:    2024           50026                           TS       ARUPT
000043:    2025           30001                           XCH      Q
000044:    2026           30027                           XCH      QRUPT
000045:    2027           02377                           TC       DOWNRUPT                              #  DOWNLINK.
000046:
000047:    2030           20017                           INHINT                                         #  GOJAM - PARITY ALARM, POWER FAIL, ETC.
000048:    2031           32075                           CAF      EXECBANK
000049:
000050:    2032           50015                           TS       BANKREG
000051:    2033           07005                           TC       GOPROG
000052:
000053:                                                                                                  # # Page 36
000054:    2034           03007        ERRUPT             TC       ALARM                                 #  ***NO ERRUPTS IN SYSTEM 5***
000055:    2035           01101                           OCT      01101
000056:    2036           02266                           TC       NBRESUME
000057:
000058:    2037           32075        UPRUPT             CAF      UPBANK                                #  CALL IN BANK WITH UPRUPT PROGRAM.
000059:    2040           30015                           XCH      BANKREG
000060:    2041           07375                           TC       UPRUPTB
000061:
000062:    2042           32045        KEYRUPT            CAF      MODEBANK
000063:    2043           30015                           XCH      BANKREG
000064:    2044           06461                           TC       KEYRUPTA
000065:
000066:    2045           30461        MODEBANK           CADR     KEYRUPTA

End of include-file INTERRUPT_TRANSFER_ROUTINES.agc.  Parent file is MAIN.agc


