
Source Code


000002:                                                                                                  ## Copyright:   Public domain.
000003:                                                                                                  ## Filename:    INTER-BANK_COMMUNICATION.agc
000004:                                                                                                  ## Purpose:     Part of the source code for Solarium build 55. This
000005:                                                                                                  ##              is for the Command Module's (CM) Apollo Guidance
000006:                                                                                                  ##              Computer (AGC), for Apollo 6.
000007:                                                                                                  ## Assembler:   yaYUL --block1
000008:                                                                                                  ## Contact:     Jim Lawton <jim DOT lawton AT gmail DOT com>
000009:                                                                                                  ## Website:     www.ibiblio.org/apollo/index.html
000010:                                                                                                  ## Page Scans:  www.ibiblio.org/apollo/ScansForConversion/Solarium055/
000011:                                                                                                  ## Mod history: 2009-09-15 JL   Created.
000012:                                                                                                  ##              2016-08-19 RSB  Typos.
000013:                                                                                                  ##              2016-12-28 RSB  Proofed comment text using octopus/ProoferComments,
000014:                                                                                                  ##                              but no errors found.
000015:


000017:
000018:                                                                                                  #        THE FOLLOWING SUBROUTINES ARE INTENDED TO FACILITATE INTER-BANK COMMUNICATION. ROUTINES ARE PROVIDED
000019:                                                                                                  #  FOR JUMPING TO A LOCATION IN ANOTHER BANK, CALLING A SUBROUTINE IN ANOTHER BANK, AND OBTAINING DATA FROM ANOTHER
000020:                                                                                                  #  BANK. IN ADDITION, A ROUTINE IS PROVIDED FOR MAKING UP A RETURN_ADDRESS CADR FOR USE BY THE CALLED SUBROUTINE.
000021:
000022:    5654                                           BANK     2
000023:    5654           50062        BANKCALL           TS       ADDRWD                                #  SUBROUTINE CALL WITH TRANSMISSION BOTH
000024:    5655           30001                           XCH      Q                                     #  WAYS IN A. THE CADR OF THE CALLED
000025:    5656           64516                           AD       ONE                                   #  ROUTINE SHOULD IMMEDIATELY FOLLOW THE
000026:    5657           50001                           TS       Q                                     #  TC BANKCALL.
000027:    5660           20000                           INDEX    A
000028:    5661           27777                           CAF      0          -1                         #  PICK UP CADR AND FALL INTO SWCALL.
000029:
000030:    5662           50071        SWCALL             TS       TEMQS                                 #  SWCALL IS ALOS USED TO CALL SUBROUTINES
000031:    5663           30015                           XCH      BANKREG                               #  IN OTHER BANKS, BUT THE CADR ARRIVES IN
000032:    5664           50072                           TS       BANKTEM                               #  A. DATA MAY BE TRANSMITTED BACK TO THE
000033:    5665           30001                           XCH      Q                                     #  CALLING PROGRAM IN A, HOWEVER.
000034:    5666           30071                           XCH      TEMQS                                 #  RETURN INFORMATION NOW COMPLETE.
000035:    5667           50114                           TS       ESCAPE
000036:    5670           72667                           MASK     70K                                   #  PROVISION FOR CALLING A ROUTINE IN
000037:    5671           10000                           CCS      A                                     #  FIXED-FIXED (OF QUESTIONABLE VALUE).
000038:    5672           05674                           TC       +2                                    #  SPECIAL TREATMENT REQUIRED IF NON-ZERO.
000039:    5673           05676                           TC       +3                                    #  INPUT CADR OK AS IS.
000040:
000041:    5674           40015                           CS       BANKREG                               #  FORM PROPER 12 BIT ADDRESS.
000042:    5675           64373                           AD       6K
000043:    5676           60114                 +3        AD       ESCAPE                                #  PROPER CADRS COME HERE WITH C(A) = 0.
000044:    5677           30062                           XCH      ADDRWD                                #  SO A CAN TRANSMIT WITH BANKCALL.
000045:    5700           20062                           INDEX    ADDRWD
000046:    5701           00000                           TC       0                                     #  SETTING Q TO SWRETURN.
000047:
000048:    5702           30072        SWRETURN           XCH      BANKTEM                               #  RETURN TO CALLER, TRANSMITTING THROUGH A
000049:    5703           50015                           TS       BANKREG
000050:    5704           30072                           XCH      BANKTEM                               #  RESTORE A AS UPON ARRIVAL TO SWRETURN.
000051:    5705           00071                           TC       TEMQS                                 #  RETURN.
000052:


000054:
000055:    5706           35501        MAKECADR           CAF      ZERO                                  #  LEAVES RETURN-ADDRESS CADR (AS SET BY
000056:    5707           60071                           AD       TEMQS                                 #  SWCALL OR BANKCALL) IN ADDRWD.
000057:    5710           50062                           TS       ADDRWD
000058:    5711           62165                           AD       32K                                   #  SEE IF BANK INFORMATION NEEDED (USUAL).
000059:    5712           50034                           TS       OVCTR
000060:    5713           00001                           TC       Q                                     #  ADDRWD SET OK IF NO OVERFLOW (IN FF).
000061:
000062:    5714           30034                           XCH      OVCTR                                 #  CONTAINS LOW 10 BITS ONLY.
000063:    5715           60072                           AD       BANKTEM
000064:    5716           50062                           TS       ADDRWD                                #  RETURN CADR NOW COMPLETE.
000065:    5717           00001                           TC       Q
000066:
000067:    5720     2165               32K                EQUALS   PRIO32
000068:    5720           30001        POSTJUMP           XCH      Q                                     #  ONE-WAY BANK TO BANK JUMP, WITH NO
000069:    5721           20000                           INDEX    A                                     #  RETURN ADDRESS. THIS VERSION TRANSMITS
000070:    5722           30000                           CAF      0                                     #  THROUGH A IF DESIRED.
000071:
000072:    5723           50015        BANKJUMP           TS       BANKREG                               #  SAME AS ABOVE ONLY ADDRESS ARRIVES IN A.
000073:    5724           74606                           MASK     LOW10                                 #  BANKJUMP AND POSTJUMP MAY BE USED IN
000074:    5725           30001                           XCH      Q                                     #  INTERRUPT OR UNDER EXEC, BUT BANKCALL
000075:    5726           20001                           INDEX    Q                                     #  AND SWCALL MAY BE USED ONLY UNDER EXEC.
000076:    5727           06000                           TC       6000
000077:
000078:
000079:    5730           50114        DATACALL           TS       ESCAPE                                #  SUBROUTINE TO RETRIEVE DATA IN ANOTHER
000080:    5731           30015                           XCH      BANKREG                               #  BANK. THE CADR OF THE LOCATION OF INTER-
000081:    5732           30114                           XCH      ESCAPE                                #  EST ARRIVES IN A AND ITS CONTENTS ARE IN
000082:    5733           74606                           MASK     LOW10                                 #  A ON EXIT. THIS MAY BE USED ONLY UNDER
000083:    5734           20000                           INDEX    A                                     #  EXECUTIVE.
000084:    5735           36000                           CAF      6000                                  #  REQUESTED DATA NOW ACQUIRED.
000085:
000086:    5736           30114                           XCH      ESCAPE
000087:    5737           50015                           TS       BANKREG
000088:    5740           30114                           XCH      ESCAPE
000089:    5741           00001                           TC       Q
000090:


000092:
000093:                                                                                                  #        THE FOLLOWING ROUTINES ARE INTERRUPT ANALOGS OF BANKCALL AND SWCALL. BANK-TO-BANK ONLY.
000094:
000095:    5742           50637        IBNKCALL           TS       RUPTREG1
000096:    5743           30001                           XCH      Q
000097:    5744           64516                           AD       ONE
000098:    5745           50001                           TS       Q
000099:    5746           20000                           INDEX    A
000100:    5747           27777                           CAF      0          -1
000101:
000102:    5750           50641        ISWCALL            TS       RUPTREG3
000103:    5751           30015                           XCH      BANKREG
000104:    5752           50640                           TS       RUPTREG2
000105:    5753           30001                           XCH      Q
000106:    5754           30641                           XCH      RUPTREG3
000107:    5755           74606                           MASK     LOW10
000108:    5756           30637                           XCH      RUPTREG1
000109:    5757           20637                           INDEX    RUPTREG1
000110:    5760           06000                           TC       6000
000111:
000112:    5761           30640        ISWRETRN           XCH      RUPTREG2
000113:    5762           50015                           TS       BANKREG
000114:    5763           30640                           XCH      RUPTREG2
000115:    5764           00641                           TC       RUPTREG3

End of include-file INTER-BANK_COMMUNICATION.agc.  Parent file is MAIN.agc


