
Source Code


000002:                                                                                                  #  Copyright:    Public domain.
000003:                                                                                                  #  Filename:     INTER-BANK_COMMUNICATION.agc
000004:                                                                                                  #  Purpose:      Part of the source code for Solarium build 55. This
000005:                                                                                                  #                is for the Command Module's (CM) Apollo Guidance
000006:                                                                                                  #                Computer (AGC), for Apollo 6.
000007:                                                                                                  #  Assembler:    yaYUL --block1
000008:                                                                                                  #  Contact:      Jim Lawton <jim DOT lawton AT gmail DOT com>
000009:                                                                                                  #  Website:      www.ibiblio.org/apollo/index.html
000010:                                                                                                  #  Page scans:   www.ibiblio.org/apollo/ScansForConversion/Solarium055/
000011:                                                                                                  #  Mod history:  2009-09-15 JL   Created.
000012:                                                                                                  #                2016-08-19 RSB  Typos.
000013:
000014:                                                                                                  # # Page 290
000015:
000016:                                                                                                  #        THE FOLLOWING SUBROUTINES ARE INTENDED TO FACILITATE INTER-BANK COMMUNICATION. ROUTINES ARE PROVIDED
000017:                                                                                                  #  FOR JUMPING TO A LOCATION IN ANOTHER BANK, CALLING A SUBROUTINE IN ANOTHER BANK, AND OBTAINING DATA FROM ANOTHER
000018:                                                                                                  #  BANK. IN ADDITION, A ROUTINE IS PROVIDED FOR MAKING UP A RETURN_ADDRESS CADR FOR USE BY THE CALLED SUBROUTINE.
000019:
000020:    5654                                           BANK     2
000021:    5654           50062        BANKCALL           TS       ADDRWD                                #  SUBROUTINE CALL WITH TRANSMISSION BOTH
000022:    5655           30001                           XCH      Q                                     #  WAYS IN A. THE CADR OF THE CALLED
000023:    5656           64516                           AD       ONE                                   #  ROUTINE SHOULD IMMEDIATELY FOLLOW THE
000024:    5657           50001                           TS       Q                                     #  TC BANKCALL.
000025:    5660           20000                           INDEX    A
000026:    5661           27777                           CAF      0          -1                         #  PICK UP CADR AND FALL INTO SWCALL.
000027:
000028:    5662           50071        SWCALL             TS       TEMQS                                 #  SWCALL IS ALOS USED TO CALL SUBROUTINES
000029:    5663           30015                           XCH      BANKREG                               #  IN OTHER BANKS, BUT THE CADR ARRIVES IN
000030:    5664           50072                           TS       BANKTEM                               #  A. DATA MAY BE TRANSMITTED BACK TO THE
000031:    5665           30001                           XCH      Q                                     #  CALLING PROGRAM IN A, HOWEVER.
000032:    5666           30071                           XCH      TEMQS                                 #  RETURN INFORMATION NOW COMPLETE.
000033:    5667           50114                           TS       ESCAPE
000034:    5670           72667                           MASK     70K                                   #  PROVISION FOR CALLING A ROUTINE IN
000035:    5671           10000                           CCS      A                                     #  FIXED-FIXED (OF QUESTIONABLE VALUE).
000036:    5672           05674                           TC       +2                                    #  SPECIAL TREATMENT REQUIRED IF NON-ZERO.
000037:    5673           05676                           TC       +3                                    #  INPUT CADR OK AS IS.
000038:
000039:    5674           40015                           CS       BANKREG                               #  FORM PROPER 12 BIT ADDRESS.
000040:    5675           64373                           AD       6K
000041:    5676           60114                 +3        AD       ESCAPE                                #  PROPER CADRS COME HERE WITH C(A) = 0.
000042:    5677           30062                           XCH      ADDRWD                                #  SO A CAN TRANSMIT WITH BANKCALL.
000043:    5700           20062                           INDEX    ADDRWD
000044:    5701           00000                           TC       0                                     #  SETTING Q TO SWRETURN.
000045:
000046:    5702           30072        SWRETURN           XCH      BANKTEM                               #  RETURN TO CALLER, TRANSMITTING THROUGH A
000047:    5703           50015                           TS       BANKREG
000048:    5704           30072                           XCH      BANKTEM                               #  RESTORE A AS UPON ARRIVAL TO SWRETURN.
000049:    5705           00071                           TC       TEMQS                                 #  RETURN.
000050:
000051:                                                                                                  # # Page 291
000052:
000053:    5706           35501        MAKECADR           CAF      ZERO                                  #  LEAVES RETURN-ADDRESS CADR (AS SET BY
000054:    5707           60071                           AD       TEMQS                                 #  SWCALL OR BANKCALL) IN ADDRWD.
000055:    5710           50062                           TS       ADDRWD
000056:    5711           62165                           AD       32K                                   #  SEE IF BANK INFORMATION NEEDED (USUAL).
000057:    5712           50034                           TS       OVCTR
000058:    5713           00001                           TC       Q                                     #  ADDRWD SET OK IF NO OVERFLOW (IN FF).
000059:
000060:    5714           30034                           XCH      OVCTR                                 #  CONTAINS LOW 10 BITS ONLY.
000061:    5715           60072                           AD       BANKTEM
000062:    5716           50062                           TS       ADDRWD                                #  RETURN CADR NOW COMPLETE.
000063:    5717           00001                           TC       Q
000064:
000065:    5720     2165               32K                EQUALS   PRIO32
000066:    5720           30001        POSTJUMP           XCH      Q                                     #  ONE-WAY BANK TO BANK JUMP, WITH NO
000067:    5721           20000                           INDEX    A                                     #  RETURN ADDRESS. THIS VERSION TRANSMITS
000068:    5722           30000                           CAF      0                                     #  THROUGH A IF DESIRED.
000069:
000070:    5723           50015        BANKJUMP           TS       BANKREG                               #  SAME AS ABOVE ONLY ADDRESS ARRIVES IN A.
000071:    5724           74606                           MASK     LOW10                                 #  BANKJUMP AND POSTJUMP MAY BE USED IN
000072:    5725           30001                           XCH      Q                                     #  INTERRUPT OR UNDER EXEC, BUT BANKCALL
000073:    5726           20001                           INDEX    Q                                     #  AND SWCALL MAY BE USED ONLY UNDER EXEC.
000074:    5727           06000                           TC       6000
000075:
000076:
000077:    5730           50114        DATACALL           TS       ESCAPE                                #  SUBROUTINE TO RETRIEVE DATA IN ANOTHER
000078:    5731           30015                           XCH      BANKREG                               #  BANK. THE CADR OF THE LOCATION OF INTER-
000079:    5732           30114                           XCH      ESCAPE                                #  EST ARRIVES IN A AND ITS CONTENTS ARE IN
000080:    5733           74606                           MASK     LOW10                                 #  A ON EXIT. THIS MAY BE USED ONLY UNDER
000081:    5734           20000                           INDEX    A                                     #  EXECUTIVE.
000082:    5735           36000                           CAF      6000                                  #  REQUESTED DATA NOW ACQUIRED.
000083:
000084:    5736           30114                           XCH      ESCAPE
000085:    5737           50015                           TS       BANKREG
000086:    5740           30114                           XCH      ESCAPE
000087:    5741           00001                           TC       Q
000088:
000089:                                                                                                  # # Page 292
000090:
000091:                                                                                                  #        THE FOLLOWING ROUTINES ARE INTERRUPT ANALOGS OF BANKCALL AND SWCALL. BANK-TO-BANK ONLY.
000092:
000093:    5742           50637        IBNKCALL           TS       RUPTREG1
000094:    5743           30001                           XCH      Q
000095:    5744           64516                           AD       ONE
000096:    5745           50001                           TS       Q
000097:    5746           20000                           INDEX    A
000098:    5747           27777                           CAF      0          -1
000099:
000100:    5750           50641        ISWCALL            TS       RUPTREG3
000101:    5751           30015                           XCH      BANKREG
000102:    5752           50640                           TS       RUPTREG2
000103:    5753           30001                           XCH      Q
000104:    5754           30641                           XCH      RUPTREG3
000105:    5755           74606                           MASK     LOW10
000106:    5756           30637                           XCH      RUPTREG1
000107:    5757           20637                           INDEX    RUPTREG1
000108:    5760           06000                           TC       6000
000109:
000110:    5761           30640        ISWRETRN           XCH      RUPTREG2
000111:    5762           50015                           TS       BANKREG
000112:    5763           30640                           XCH      RUPTREG2
000113:    5764           00641                           TC       RUPTREG3

End of include-file INTER-BANK_COMMUNICATION.agc.  Parent file is MAIN.agc


