
Source Code


000002:                                                                                                  ## Copyright:   Public domain.
000003:                                                                                                  ## Filename:    IRIG_PULSE-TORQUING_ROUTINES.agc
000004:                                                                                                  ## Purpose:     Part of the source code for Solarium build 55. This
000005:                                                                                                  ##              is for the Command Module's (CM) Apollo Guidance
000006:                                                                                                  ##              Computer (AGC), for Apollo 6.
000007:                                                                                                  ## Assembler:   yaYUL --block1
000008:                                                                                                  ## Contact:     Jim Lawton <jim DOT lawton AT gmail DOT com>
000009:                                                                                                  ## Website:     www.ibiblio.org/apollo/index.html
000010:                                                                                                  ## Page Scans:  www.ibiblio.org/apollo/ScansForConversion/Solarium055/
000011:                                                                                                  ## Mod history: 2009-10-07 JL   Created.
000012:                                                                                                  ##              2016-12-28 RSB  Proofed comment text using octopus/ProoferComments,
000013:                                                                                                  ##                              and fixed errors found.
000014:


000016:
000017:                                                                                                  #        THE FOLLOWING PULSE-TORQUING OPTIONS ARE AVAILABLE:
000018:
000019:                                                                                                  #        GYROSPNT                SINGLE PRECISION INPUTS WITH NO TWITCH (IE ZERO OUTPUT ON ZERO COMMAND).
000020:                                                                                                  #        GYROSPTW                SINGLE PRECISION INPUT WITH TWITCH ON ZERO (2+ THEN 2-).
000021:                                                                                                  #        GYRODPNT                DOUBLE PRECISION INPUTS (SIGN AGREEMENT UNNECESSARY) WITH NO TWITCH.
000022:
000023:                                                                                                  #  ALL OF THE ABOVE SHOULD BE FOLLOWED EVENTUALLY BY A CALL TO IMUSTALL.
000024:
000025:
000026:
000027: 14,7347                                           BANK     14
000028: 14,7347           50115        GYROSPNT           TS       MPAC                                  #  ADDRESS OF THREE REGISTER COMMAND SET
000029: 14,7350           10764                           CCS      LGYRO                                 #  ARRIVES IN A. SEE IF GYRO ROUTINES BUSY.
000030: 14,7351           07524                           TC       GYROBUSY                              #  (AND RETURN WHEN AVAILABLE.)
000031:
000032: 14,7352           35503        SPNT               CAF      TWO                                   #  SET UP LOOP TO AUGMENT (+ OR -) EACH
000033: 14,7353           50116                           TS       MPAC       +1                         #  COMMAND BY TWO IF NON-ZERO.
000034: 14,7354           60000                           DOUBLE
000035: 14,7355           60115                           AD       MPAC
000036: 14,7356           50077                           TS       BUF
000037: 14,7357           20000                           INDEX    A
000038: 14,7360           10000                           CCS      0
000039: 14,7361           35503                           CAF      TWO
000040: 14,7362           07364                           TC       +2                                    #  (NO INCREMENT IF +-0).
000041: 14,7363           45503                           CS       TWO
000042: 14,7364           20077                           INDEX    BUF
000043: 14,7365           60000                           AD       0
000044: 14,7366           20077                           INDEX    BUF
000045: 14,7367           30000                           XCH      0                                     #  (JUST TO BE SAFE).
000046:
000047: 14,7370           10116                           CCS      MPAC       +1
000048: 14,7371           07353                           TC       SPNT       +1
000049:
000050: 14,7372           20017        SPGYREX            INHINT
000051: 14,7373           34516                           CAF      ONE
000052: 14,7374           02173                           TC       WAITLIST
000053: 14,7375           21504                           CADR     DOGYROSP
000054:
000055: 14,7376           44473        GYROEX2            CS       THREE                                 #  INITIALIZE CDUIND TO START GYRO TASKS
000056: 14,7377           50677                           TS       CDUIND                                #  AT Y GYRO (ORDER IS YZX).
000057: 14,7400           45502                           CS       FOUR
000058: 14,7401           60115                           AD       MPAC                                  #  SET LGYROD PNZ TO INDICATE GYRO ACTIVITY
000059: 14,7402           50764                           TS       LGYRO                                 #  AND USE LGYRO TO STORE THE ADDRESS OFF
000060: 14,7403           06020                           TC       MODEEXIT                              #  THE COMMANDS.
000061:


000063:
000064:                                                                                                  #        SINGLE PRECISION WITH TWITCH.
000065:
000066: 14,7404           50115        GYROSPTW           TS       MPAC
000067: 14,7405           10764                           CCS      LGYRO                                 #  SAME PROLOGUE AS GYROSPNT
000068: 14,7406           07524                           TC       GYROBUSY
000069:
000070: 14,7407           35503        SPTW               CAF      TWO                                   #  SET UP LOOP TO AUGMENT BY 2 (+ OR-),
000071: 14,7410           50116                           TS       MPAC       +1                         #  WITH A PLUS TWO AUGMENT ON +-0.
000072: 14,7411           60000                           DOUBLE
000073: 14,7412           60115                           AD       MPAC
000074: 14,7413           50077                           TS       BUF
000075: 14,7414           20000                           INDEX    A
000076: 14,7415           10000                           CCS      0
000077: 14,7416           07421                           TC       +3
000078: 14,7417           07421                           TC       +2
000079: 14,7420           07423                           TC       +3
000080:
000081: 14,7421           35503                           CAF      TWO
000082: 14,7422           07424                           TC       +2
000083:
000084: 14,7423           45503                 +3        CS       TWO
000085: 14,7424           20077                           INDEX    BUF
000086: 14,7425           60000                           AD       0
000087: 14,7426           20077                           INDEX    BUF
000088: 14,7427           30000                           XCH      0
000089:
000090: 14,7430           10116                           CCS      MPAC       +1
000091: 14,7431           07410                           TC       SPTW       +1
000092:
000093: 14,7432           07372                           TC       SPGYREX                               #  SET UP PULSE-TORQUING TASKS.
000094:


000096:
000097:                                                                                                  #        DOUBLE PRECISION INPUTS WITH NO TWITCH ON ZERO.
000098:
000099: 14,7433           50113        GYRODPNT           TS       ARETURN                               #  SAVE ADDRESS OF INPUT COMMANDS.
000100: 14,7434           05706                           TC       MAKECADR                              #  SAVE RETURN ADDRESS SINCE WE MUST
000101: 14,7435           30062                           XCH      ADDRWD                                #  DO A BANKCALL TO TPAGREE.
000102: 14,7436           50064                           TS       TEM11
000103: 14,7437           35501                           CAF      ZERO
000104: 14,7440           50117                           TS       MPAC       +2
000105: 14,7441           35503        DPNT               CAF      TWO
000106:
000107: 14,7442           50077                           TS       BUF                                   #  THIS LOOP FORCES SIGN AGREEMENT IN THE
000108: 14,7443           60000                           DOUBLE                                         #  DP INPUT COMMANDS, AUGMENTING ON
000109: 14,7444           60113                           AD       ARETURN                               #  NON-ZERO.
000110: 14,7445           50100                           TS       BUF        +1
000111: 14,7446           20000                           INDEX    A
000112: 14,7447           30000                           XCH      0
000113: 14,7450           50115                           TS       MPAC
000114: 14,7451           20100                           INDEX    BUF        +1
000115: 14,7452           30001                           XCH      1
000116: 14,7453           50116                           TS       MPAC       +1
000117: 14,7454           05654                           TC       BANKCALL
000118: 14,7455           07154                           CADR     TPAGREE
000119:
000120: 14,7456           10000                           CCS      A                                     #  AUGMENT BYTWO IF NON-ZERO. TPAGREE
000121: 14,7457           35503                           CAF      TWO                                   #  RETURNS +1,-0,-1.
000122: 14,7460           65503                           AD       TWO
000123: 14,7461           64340                           AD       NEG2
000124:
000125: 14,7462           60116                           AD       MPAC       +1                         #  DIVIDE BY POSMAX - IE PLACE IN THE MAJOR
000126: 14,7463           60115                           AD       MPAC                                  #  PART OF EACH COMMAND THE NUMBER OF
000127: 14,7464           20100                           INDEX    BUF        +1                         #  POSMAX PULSE TRAINS TO BE PUT OUT,
000128: 14,7465           50001                           TS       1                                     #  LEAVING THE REMAINDER IN THE MINOR PART.
000129: 14,7466           07476                           TC       +8D
000130:
000131: 14,7467           50001                           TS       Q                                     #  ON OVERFLOW, ADD +-1 TO THE MINOR PART
000132: 14,7470           20100                           INDEX    BUF        +1                         #  AS WELL AS THE MAJOR PART.
000133: 14,7471           60001                           AD       1
000134: 14,7472           20100                           INDEX    BUF        +1                         #  NO OVERFLOW HERE.
000135: 14,7473           50001                           TS       1
000136: 14,7474           30001                           XCH      Q
000137: 14,7475           07477                           TC       +2
000138:
000139: 14,7476           35501                 +8D       CAF      ZERO
000140: 14,7477           60115                           AD       MPAC
000141: 14,7500           20100                           INDEX    BUF        +1
000142: 14,7501           30000                           XCH      0


000144: 14,7502           10077                           CCS      BUF
000145: 14,7503           07442                           TC       DPNT       +1
000146:
000147: 14,7504           30113                           XCH      ARETURN                               #  PREPARE FOR POSSIBLE GYROBUSY CALL.
000148: 14,7505           50115                           TS       MPAC
000149: 14,7506           10764                           CCS      LGYRO
000150: 14,7507           07543                           TC       GYROBSY2
000151:
000152: 14,7510           32261                           CAF      BANKMASK
000153: 14,7511           70064                           MASK     TEM11
000154: 14,7512           50072                           TS       BANKTEM
000155: 14,7513           34606                           CAF      LOW10
000156: 14,7514           70064                           MASK     TEM11
000157: 14,7515           64373                           AD       6K
000158: 14,7516           50071                           TS       TEMQS
000159: 14,7517           20017                           INHINT
000160: 14,7520           34516                           CAF      ONE
000161: 14,7521           02173                           TC       WAITLIST
000162: 14,7522           21571                           CADR     DOGYRO
000163:
000164: 14,7523           07376                           TC       GYROEX2
000165:


000167:
000168:                                                                                                  #        GYRO STALLING ROUTINES - CALLED VERY RARELY BY AT MOST ONE ROUTINE AT A TIME.
000169:
000170: 14,7524           30001        GYROBUSY           XCH      Q                                     #  RETURN ADDRESS TO MPAC.
000171: 14,7525           50117                           TS       MPAC       +2
000172:
000173: 14,7526           05706                           TC       MAKECADR                              #  CALLERS RETURN CADR TO MPAC +1.
000174: 14,7527           30062                           XCH      ADDRWD
000175: 14,7530           50116                           TS       MPAC       +1
000176: 14,7531           37547        REGSLEEP           CAF      CADRNEWG
000177: 14,7532           02127                           TC       JOBSLEEP                              #  AT STANDARD LOCATION.
000178:
000179: 14,7533           10764        NEWGYRO            CCS      LGYRO                                 #  SEE IF ROUTINES STILL AVAILABLE (SHOULD
000180: 14,7534           07531                           TC       REGSLEEP                              #  BE). IF NOT, WAIT SOME MORE.
000181:
000182: 14,7535           30116                           XCH      MPAC       +1                         #  RESTORE RETURN CADR TO STANDARD SWCALL
000183: 14,7536           50072                           TS       BANKTEM                               #  (BANKCALL) FORM.
000184: 14,7537           74606                           MASK     LOW10
000185: 14,7540           64373                           AD       6K
000186: 14,7541           50071                           TS       TEMQS
000187: 14,7542           00117                           TC       MPAC       +2
000188:
000189: 14,7543           30001        GYROBSY2           XCH      Q                                     #  DP WAIT.
000190: 14,7544           50117                           TS       MPAC       +2
000191: 14,7545           30064                           XCH      TEM11
000192: 14,7546           07530                           TC       REGSLEEP   -1
000193:
000194: 14,7547           31533        CADRNEWG           CADR     NEWGYRO
000195:


000197:
000198:                                                                                                  #        TASKS FOR SENDING OUT SINGLE PRECISION COMMANDS.
000199:
000200: 10,7504                                           BANK     10
000201: 10,7504           07704        DOGYROSP           TC       SETUPSUB                              #  COMMON INITIALIZATION SUBROUTINE.
000202: 10,7505           20641                           INDEX    RUPTREG3
000203: 10,7506           10000                           CCS      0                                     #  PUT OUT NEXT COMMAND.
000204: 10,7507           07523                           TC       POSGOUTS
000205: 10,7510           07512                           TC       GYROADVS                              #  NO COMMAND IF +-0.
000206: 10,7511           07537                           TC       NEGGOUTS
000207:
000208: 10,7512           40677        GYROADVS           CS       CDUIND                                #  ADVANCE TO NEXT GYRO IN ORDER YZX.
000209: 10,7513           20000                           INDEX    A
000210: 10,7514           07513                           TC       -1
000211: 10,7515           07721                           TC       ENDGYRO
000212: 10,7516           34475                           CAF      SIX
000213: 10,7517           64340                           AD       NEG2
000214: 10,7520           40000                           COM
000215: 10,7521           50677                           TS       CDUIND
000216: 10,7522           07504                           TC       DOGYROSP
000217:
000218: 10,7523           64516        POSGOUTS           AD       ONE
000219: 10,7524           50034                           TS       OVCTR
000220: 10,7525           06631                           TC       OUT2SUB                               #  PUT OUT COMMAND, SAVING COMMAND FOR
000221: 10,7526           07672                           TC       GETDT                                 #  DT COMPUTATION.
000222: 10,7527           30032                           XCH      LPRUPT
000223: 10,7530           02173                           TC       WAITLIST
000224: 10,7531           21533                           CADR     TWEAKSP                               #  PUT OUT 2- WHEN COMMAND IS OUT.
000225: 10,7532           02256                           TC       TASKOVER                              #  ALL FOR NOW.
000226:
000227: 10,7533           07704        TWEAKSP            TC       SETUPSUB                              #  INITIALIZE.
000228: 10,7534           45503                           CS       TWO                                   #  PUT OUT 2- AND ADVANCE TO NEXT GYRO.
000229: 10,7535           06631                           TC       OUT2SUB
000230: 10,7536           07512                           TC       GYROADVS
000231:
000232: 10,7537           64516        NEGGOUTS           AD       ONE                                   #  GET ABS OF COMMAND AND SAVE IN OVCTR.
000233: 10,7540           50034                           TS       OVCTR
000234:
000235: 10,7541           35503                           CAF      TWO                                   #  PUT OUT 2+ BEFORE NEGATIVE PULSE TRAIN.
000236: 10,7542           06631                           TC       OUT2SUB
000237: 10,7543           07672                           TC       GETDT                                 #  COMPUTE WAITLIST DELTA T.
000238:
000239: 10,7544           35362                           CAF      SEVEN                                 #  PUT IN A DELAY TO ALLOW 2+ PULSES
000240: 10,7545           10000                           CCS      A                                     #  ENOUGH TIME TO GET OUT (3 PULSE TIMES).
000241: 10,7546           07545                           TC       -1
000242:
000243: 10,7547           40034                           CS       OVCTR                                 #  PUT OUT NEGATIVE COMMAND.
000244: 10,7550           06631                           TC       OUT2SUB
000245:
000246: 10,7551           30032                           XCH      LPRUPT                                #  CALL WAITLIST FOR TASK DUE WHEN PULSE
000247: 10,7552           02173                           TC       WAITLIST                              #  TRAIN COMPLETE.


000249: 10,7553           21512                           CADR     GYROADVS
000250: 10,7554           02256                           TC       TASKOVER
000251:


000253:
000254:                                                                                                  #        WAITLIST TASKS TO SEND OUT DP PULSE TRAINS TO THE GYROS.
000255:
000256: 10,7555           07704        TWEAKGY            TC       SETUPSUB                              #  FINISHED WITH POSITIVE TRAINS TO A GYRO.
000257: 10,7556           45503                           CS       TWO                                   #   SEND OUT 2- TO LEAVE GYRO IN - STATE.
000258: 10,7557           06631                           TC       OUT2SUB
000259:
000260: 10,7560           40677        GYROADV            CS       CDUIND                                #  ADVANCE TO THE NEXT GYRO IN ORDER YZX.
000261: 10,7561           74720                           MASK     LOW7                                  #  BIT14 IS 1 IF 2+ PULSES HAD BEEN SENT
000262: 10,7562           20000                           INDEX    A                                     #   BEFORE A NEGATIVE COMMAND.
000263: 10,7563           07562                           TC       -1
000264: 10,7564           07715                           TC       ENDGYRO1
000265: 10,7565           34475                           CAF      SIX
000266: 10,7566           64340                           AD       NEG2                                  #  (CAME HERE FROM TC WITH C(A)=4.)
000267: 10,7567           40000                           COM
000268: 10,7570           50677                           TS       CDUIND
000269:
000270: 10,7571           07704        DOGYRO             TC       SETUPSUB                              #  SERVICE GYRO WHOSE *NUMBER* IS IN CDUIND
000271: 10,7572           20641                           INDEX    RUPTREG3
000272: 10,7573           10000                           CCS      0                                     #  MAJOR PART IS POSMAX COUNT.
000273: 10,7574           07605                           TC       DOPOSMAX                              #  PUT OUT POSMAX.
000274: 10,7575           07577                           TC       DOMINOR
000275: 10,7576           07615                           TC       DONEGMAX
000276:
000277: 10,7577           20641        DOMINOR            INDEX    RUPTREG3                              #  SEND OUT REMAINDER OF COMMAND.
000278: 10,7600           10001                           CCS      1
000279: 10,7601           07640                           TC       POSGOUT
000280: 10,7602           07556                           TC       TWEAKGY    +1                         #  FINISHED WITH LONG . PULSE TRAIN.
000281: 10,7603           07650                           TC       NEGGOUT
000282: 10,7604           07560                           TC       GYROADV                               #  DONE WITH LONG - TRAIN OR ZERO INPUT.
000283:
000284: 10,7605           20641        DOPOSMAX           INDEX    RUPTREG3                              #  PUT AWAY DECREMENTED POSMAX COUNT.
000285: 10,7606           50000                           TS       0
000286: 10,7607           34476                           CAF      POSMAX
000287: 10,7610           06631        DOMAX              TC       OUT2SUB
000288: 10,7611           37740                           CAF      FULLDT
000289:
000290: 10,7612           02173        GYROWAIT           TC       WAITLIST
000291: 10,7613           21571                           CADR     DOGYRO
000292: 10,7614           02256                           TC       TASKOVER
000293:


000295:
000296: 10,7615           40000        DONEGMAX           COM
000297: 10,7616           20641                           INDEX    RUPTREG3
000298: 10,7617           50000                           TS       0                                     #  DECREMENTED POSMAX (NEGMAX) COUNT.
000299: 10,7620           40677                           CS       CDUIND                                #  SEE IF 2+ PULSES HAVE BEEN PUT OUT YET,
000300: 10,7621           74520                           MASK     NEG1/2                                #   LEAVING WORD THAT THEY WILL BE OUT
000301: 10,7622           64501                           AD       BIT14                                 #   BY TASKOVER TIME.
000302: 10,7623           40000                           COM
000303: 10,7624           30677                           XCH      CDUIND
000304: 10,7625           74501                           MASK     BIT14
000305: 10,7626           10000                           CCS      A
000306: 10,7627           07631                           TC       +2
000307: 10,7630           07636                           TC       NEGMAX2                               #  ALREADY OUT.
000308:
000309: 10,7631           35503                           CAF      TWO                                   #  NOT OUT YET - DO SO.
000310: 10,7632           06631                           TC       OUT2SUB
000311: 10,7633           35503                           CAF      TWO                                   #  WAIT FOR THEM TO GET OUT BEFORE DELIVER-
000312: 10,7634           10000                           CCS      A                                     #   ING THE REAL COMMAND.
000313: 10,7635           07634                           TC       -1
000314:
000315: 10,7636           44476        NEGMAX2            CS       POSMAX
000316: 10,7637           07610                           TC       DOMAX
000317:
000318: 10,7640           64516        POSGOUT            AD       ONE                                   #  FRACTIONAL POSITIVE COMMAND.
000319: 10,7641           50034                           TS       OVCTR
000320: 10,7642           06631                           TC       OUT2SUB                               #  DELIVER COMMAND.
000321: 10,7643           07672                           TC       GETDT                                 #  GET TIME TO END OF PULSE TRAIN.
000322: 10,7644           30032                           XCH      LPRUPT                                #  (ANSWER LEFT IN LPRUPT).
000323: 10,7645           02173                           TC       WAITLIST
000324: 10,7646           21555                           CADR     TWEAKGY                               #  SUPPLY 2- PULSES AT END.
000325: 10,7647           02256                           TC       TASKOVER
000326:
000327: 10,7650           64516        NEGGOUT            AD       ONE                                   #  FRACTIONAL NEGATIVE COMMAND.
000328: 10,7651           50034                           TS       OVCTR
000329: 10,7652           40677                           CS       CDUIND                                #  SEE IF 2+ PULSES ALREADY OUT.
000330: 10,7653           74501                           MASK     BIT14
000331: 10,7654           10000                           CCS      A
000332: 10,7655           07663                           TC       NEGGOUT2
000333:
000334: 10,7656           35503                           CAF      TWO
000335: 10,7657           06631                           TC       OUT2SUB
000336:
000337: 10,7660           35362                           CAF      SEVEN                                 #  ALLOW AT LEAST 3 PULSE TIMES FOR THE 2+
000338: 10,7661           10000                           CCS      A                                     #  PULSES TO GET OUT.
000339: 10,7662           07661                           TC       -1
000340:
000341: 10,7663           07672        NEGGOUT2           TC       GETDT
000342: 10,7664           40034                           CS       OVCTR                                 #  DELIVER COMMAND.
000343: 10,7665           06631                           TC       OUT2SUB
000344: 10,7666           30032                           XCH      LPRUPT                                #  GET WAITLIST DT LEFT BY  GETDT  .
000345: 10,7667           02173                           TC       WAITLIST


000347: 10,7670           21560                           CADR     GYROADV
000348: 10,7671           02256                           TC       TASKOVER
000349:


000351:
000352:                                                                                                  #        SUBROUTINES USED BY TASKS.
000353:
000354: 10,7672           30003        GETDT              XCH      LP                                    #  COMPUTE NUMBER OF 10 MS TICKS IT WILL
000355: 10,7673           50032                           TS       LPRUPT                                #   TAKE THE PULSE TRAIN WHOSE MAGNITUDE IS
000356: 10,7674           34505                           CAF      BIT10                                 #   IN OVCTR TO BE DELIVERED AT A RATE OF
000357: 10,7675           25777                           EXTEND                                         #   3200 PPS.
000358: 10,7676           40034                           MP       OVCTR
000359: 10,7677           65503                           AD       TWO                                   #  INTERRUPT AND ROUND-OFF UNCERTAINTIES.
000360: 10,7700           30032                           XCH      LPRUPT                                #  LEAVE ANSWER IN LPRUPT.
000361: 10,7701           25777                           EXTEND
000362: 10,7702           44516                           MP       ONE
000363: 10,7703           00001                           TC       Q
000364:
000365:
000366:
000367: 10,7704           35501        SETUPSUB           CAF      ZERO                                  #  SETS UP MISCELLANEOUS REGISTERS.
000368: 10,7705           50640                           TS       RUPTREG2                              #  USED BY OUT2SUB.
000369: 10,7706           40677                           CS       CDUIND
000370: 10,7707           74720                           MASK     LOW7                                  #  KILL 2+ BIT.
000371: 10,7710           50637                           TS       RUPTREG1
000372: 10,7711           60000                           DOUBLE
000373: 10,7712           60764                           AD       LGYRO
000374: 10,7713           50641                           TS       RUPTREG3                              #  USED FOR INDEXING GYROD SET.
000375: 10,7714           00001                           TC       Q
000376:
000377: 10,7715           34516        ENDGYRO1           CAF      ONE                                   #  SPLIT INTO TWO TASKS SO IT WONT LAST TOO
000378: 10,7716           02173                           TC       WAITLIST                              #  LONG IN ANY ONE INTERRUPT.
000379: 10,7717           21721                           CADR     ENDGYRO
000380: 10,7720           02256                           TC       TASKOVER
000381:
000382: 10,7721           35501        ENDGYRO            CAF      ZERO                                  #  SHOW THAT THE GYROS ARE NOW AVAILABLE.
000383: 10,7722           50764                           TS       LGYRO
000384:
000385: 10,7723           30007                           XCH      IN3                                   #  RESTORE CDUIND
000386: 10,7724           30007                           XCH      IN3                                   #  BY CHECKING IMU MODE
000387: 10,7725           77737                           MASK     OCT122                                #  IMUCOARS, IMUATTC, IMUREENT MASK
000388: 10,7726           10000                           CCS      A
000389: 10,7727           45501                           CS       ZERO                                  #  TO +0 IF MODES ACTIVE
000390: 10,7730           40000                           COM                                            #  TO -0 IF INACTIVE
000391: 10,7731           50677                           TS       CDUIND
000392:
000393: 10,7732           37736                           CAF      LNEWGYRO                              #  WAKE UP ANY JOB WHICH MIGHT BE WAITING
000394: 10,7733           02060                           TC       JOBWAKE                               #  FOR THE GYROS (AT MOST ONE).
000395:
000396: 10,7734           05720                           TC       POSTJUMP                              #  RETURN TO ENDIMU SEQUENCE IN MAIN MODE
000397: 10,7735           30171                           CADR     IMUFINED                              #  BANK (CHECKS IMU AND CDU FAIL SIGNALS).
000398:
000399: 10,7736           31533        LNEWGYRO           CADR     NEWGYRO                               #  STANDARD SLEEPING LOCATION FOR GYROBUSY.
000400: 10,7737           00122        OCT122             OCT      122
000401: 10,7740           01001        FULLDT             DEC      5.13       E2

End of include-file IRIG_PULSE-TORQUING_ROUTINES.agc.  Parent file is MAIN.agc


