
Source Code


000002:                                                                                                  #  Copyright:    Public domain.
000003:                                                                                                  #  Filename:     KEYRUPT_UPRUPT_FRESH_START.agc
000004:                                                                                                  #  Purpose:      Part of the source code for Solarium build 55. This
000005:                                                                                                  #                is for the Command Module's (CM) Apollo Guidance
000006:                                                                                                  #                Computer (AGC), for Apollo 6.
000007:                                                                                                  #  Assembler:    yaYUL --block1
000008:                                                                                                  #  Contact:      Jim Lawton <jim DOT lawton AT gmail DOT com>
000009:                                                                                                  #  Website:      www.ibiblio.org/apollo/index.html
000010:                                                                                                  #  Page Scans:   www.ibiblio.org/apollo/ScansForConversion/Solarium055/
000011:                                                                                                  #  Mod history:  2009-09-15 JL   Created.
000012:                                                                                                  #                2016-08-17 RSB  Corrected a duplicated symbol TFAIL2 on p. 479.


000014:
000015: 04,7363                                           BANK     4
000016: 04,7363           73220        KEYRUPT1           MASK     LOW5                                  #  C(IN0) IN A
000017: 04,7364           50642                           TS       RUPTREG4
000018: 04,7365           02736                           TC       LODSAMPT                              #  TIME IS SNATCHED IN RUPT FOR NOUN 65
000019: 04,7366           32166                           CAF      PRIO33
000020: 04,7367           02052                           TC       NOVAC
000021: 04,7370           14006                           CADR     CHARIN
000022: 04,7371           30642        NOKEYBUF           XCH      RUPTREG4
000023: 04,7372           20601                           INDEX    LOCCTR
000024: 04,7373           50115                           TS       MPAC                                  #  LEAVE 5 BIT KEY CODE IN MPAC FOR CHARIN
000025: 04,7374           02264                           TC       RESUME
000026:


000028:
000029: 04,7375           50030        UPRUPTB            TS       BANKRUPT
000030: 04,7376           02677                           TC       READTIME   +1                         #  TIME IS SNATCHED IN RUPT FOR NOUN 65
000031: 04,7377           35501                           CAF      ZERO
000032: 04,7400           30041                           XCH      UPLINK                                #  ZERO UPLINK
000033: 04,7401           50600                           TS       KEYTEMP1
000034: 04,7402           10717                           CCS      DSPTAB     +7                         #  TURN ON UPACT LIGHT
000035: 04,7403           07405                           TC       +2                                    #  UPACT = BIT 11 OF DSPTAB +7
000036: 04,7404           37510                           CAF      B12-1                                 #  SAFETY PLAY
000037: 04,7405           64516                           AD       ONE
000038: 04,7406           50571                           TS       KEYTEMP2                              #  MAG OF DSPTAB +7 INTO KEYTEMP2
000039: 04,7407           74504                           MASK     BIT11
000040: 04,7410           10000                           CCS      A
000041: 04,7411           07421                           TC       UPRPT1                                #  BIT 11 ALREADY DONE
000042: 04,7412           30571                           XCH      KEYTEMP2                              #  BIT 11 = 0
000043: 04,7413           64504                           AD       BIT11
000044: 04,7414           40000                           CS       A                                     #  STORE NEGATIVELY
000045: 04,7415           30717                           XCH      DSPTAB     +7
000046: 04,7416           10000                           CCS      A
000047: 04,7417           07511                           TC       INCNOUTU                              #  PREVIOUS CONTENTS WAS +
000048: 04,7420           30000                           NOOP                                           #  SAFETY PLAY
000049: 04,7421           33220        UPRPT1             CAF      LOW5                                  #  TEST FOR TRIPLE CHAR REDUNDANCY
000050: 04,7422           70600                           MASK     KEYTEMP1                              #  LOW5 OF WORD
000051: 04,7423           30600                           XCH      KEYTEMP1                              #  LOW5 INTO KEYTEMP1
000052: 04,7424           30021                           XCH      SR                                    #  WHOLE WORD INTO SR
000053: 04,7425           50571                           TS       KEYTEMP2                              #  ORIGINAL SR INTO KEYTEMP2
000054: 04,7426           07472                           TC       SRGHT5
000055: 04,7427           73220                           MASK     LOW5                                  #  MID 5
000056: 04,7430           67507                           AD       HI10
000057: 04,7431           07501                           TC       UPTEST
000058: 04,7432           07472                           TC       SRGHT5
000059: 04,7433           73220                           MASK     LOW5                                  #  HIGH 5
000060: 04,7434           40000                           COM
000061: 04,7435           07501                           TC       UPTEST
000062: 04,7436           07466        UPOK               TC       RESTORSR                              #  CODE IS GOOD
000063: 04,7437           47443                           CS       ELRCODE                               #  IF CODE = ERROR LIGHT RESET, PUT +0
000064: 04,7440           60600                           AD       KEYTEMP1                              #  INTO UPLOCK (BIT2 OF STATE)
000065: 04,7441           10000                           CCS      A                                     #  IF CODE NOT= ELR, PASS CODE ONLY IF
000066: 04,7442           07451                           TC       TSTUPLOK                              #  UPLOCK=0 (BIT 2 OF STATE)
000067: 04,7443           00022        ELRCODE            OCT      22
000068: 04,7444           07451                           TC       TSTUPLOK
000069: 04,7445           44515                           CS       BIT2                                  #  0 INTO UPLOCK (BIT 2 OF STATE)
000070: 04,7446           70645                           MASK     UPLOCK
000071: 04,7447           50645                           TS       UPLOCK
000072: 04,7450           07455                           TC       ACCEPTUP
000073: 04,7451           34515        TSTUPLOK           CAF      BIT2
000074: 04,7452           70645                           MASK     UPLOCK
000075: 04,7453           10000                           CCS      A
000076: 04,7454           02264                           TC       RESUME                                #  UPLOCK = 1 (BIT2 OF STATE)
000077: 04,7455           30600        ACCEPTUP           XCH      KEYTEMP1                              #  UPLOCK = 0 (BIT2 OF STATE)
000078: 04,7456           07364                           TC       KEYRUPT1   +1
000079:


000081:
000082: 04,7457           07466        TMFAIL2            TC       RESTORSR                              #  CODE IS BAD
000083: 04,7460           44515                           CS       BIT2                                  #  LOCK OUT FURTHER UPLINK ACTIVITY (BY
000084: 04,7461           70645                           MASK     UPLOCK                                #  PUTTING 1 INTO UPLOCK, BIT 2 OF STATE)
000085: 04,7462           64515                           AD       BIT2                                  #  UNTIL ERROR LIGHT RESET IS SENT UP
000086: 04,7463           50645                           TS       UPLOCK                                #  UPLINK.
000087: 04,7464           02571        TMFAIL1            TC       TMALM
000088: 04,7465           02264                           TC       RESUME
000089:
000090: 04,7466           30571        RESTORSR           XCH      KEYTEMP2
000091: 04,7467           60000                           DOUBLE
000092: 04,7470           50021                           TS       SR
000093: 04,7471           00001                           TC       Q
000094:
000095: 04,7472     2571               TMALM              EQUALS   TMFAIL                                #  TM FAIL LIGHT ON (IN DOWNRUPT).
000096:
000097: 04,7472           40021        SRGHT5             CS       SR
000098: 04,7473           40021                           CS       SR
000099: 04,7474           40021                           CS       SR
000100: 04,7475           40021                           CS       SR
000101: 04,7476           40021                           CS       SR
000102: 04,7477           40000                           CS       A
000103: 04,7500           00001                           TC       Q                                     #  DELIVERS WORD UNCOMPLEMENTED
000104:
000105: 04,7501           60600        UPTEST             AD       KEYTEMP1
000106: 04,7502           10000                           CCS      A
000107: 04,7503           07457                           TC       TMFAIL2
000108: 04,7504           03062                           TC       CCSHOLE
000109: 04,7505           07457                           TC       TMFAIL2
000110: 04,7506           00001                           TC       Q
000111:
000112: 04,7507           77740        HI10               OCT      77740
000113: 04,7510     2075               UPBANK             EQUALS   EXECBANK                              #  IN SAME BANK AS EXEC.
000114:
000115: 04,7510           03777        B12-1              OCT      3777
000116:
000117: 04,7511           30707        INCNOUTU           XCH      NOUT
000118: 04,7512           64516                           AD       ONE
000119: 04,7513           50707                           TS       NOUT
000120: 04,7514           20001                           INDEX    Q
000121: 04,7515           00001        UPLAST             TC       1
000122:
000123:                                                                                                  #  UPACT IS TURNED OFF BY VBRELDSP, ALSO BY ERROR LIGHT RESET.
000124:


000126:
000127:                                                                                                  #  THE RECEPTION OF A BAD CODE BY UPLINK LOCKS OUT FURTHER UPLINK ACTIVITY
000128:                                                                                                  #  BY PLACING A 1 INTO UPLOCK (BIT2 OF STATE). BIT9 (AND BIT11) OF TMKEYBUF
000129:                                                                                                  #  IS SET TO 1 TO SEND AN INDICATION OF THIS SITUATION DOWN THE DOWNLINK.
000130:                                                                                                  #  THE UPLINK INTERLOCK IS ALLOWED WHEN AN ERROR LIGHT RESET CODE IS SENT
000131:                                                                                                  #  UP THE UPLINK, OR WHEN A FRESH START IS PERFORMED.

End of include-file KEYRUPT_UPRUPT_FRESH_START.agc.  Parent file is MAIN.agc


