
Source Code


000002:                                                                                                  ## Copyright:   Public domain.
000003:                                                                                                  ## Filename:    KEYRUPT_UPRUPT_FRESH_START.agc
000004:                                                                                                  ## Purpose:     Part of the source code for Solarium build 55. This
000005:                                                                                                  ##              is for the Command Module's (CM) Apollo Guidance
000006:                                                                                                  ##              Computer (AGC), for Apollo 6.
000007:                                                                                                  ## Assembler:   yaYUL --block1
000008:                                                                                                  ## Contact:     Jim Lawton <jim DOT lawton AT gmail DOT com>
000009:                                                                                                  ## Website:     www.ibiblio.org/apollo/index.html
000010:                                                                                                  ## Page Scans:  www.ibiblio.org/apollo/ScansForConversion/Solarium055/
000011:                                                                                                  ## Mod history: 2009-09-15 JL   Created.
000012:                                                                                                  ##              2016-08-17 RSB  Corrected a duplicated symbol TFAIL2 on p. 479.
000013:                                                                                                  ##              2016-12-28 RSB  Proofed comment text using octopus/ProoferComments,
000014:                                                                                                  ##                              and fixed errors found.
000015:


000017:
000018: 04,7363                                           BANK     4
000019: 04,7363           73220        KEYRUPT1           MASK     LOW5                                  #  C(IN0) IN A
000020: 04,7364           50642                           TS       RUPTREG4
000021: 04,7365           02736                           TC       LODSAMPT                              #  TIME IS SNATCHED IN RUPT FOR NOUN 65
000022: 04,7366           32166                           CAF      PRIO33
000023: 04,7367           02052                           TC       NOVAC
000024: 04,7370           14006                           CADR     CHARIN
000025: 04,7371           30642        NOKEYBUF           XCH      RUPTREG4
000026: 04,7372           20601                           INDEX    LOCCTR
000027: 04,7373           50115                           TS       MPAC                                  #  LEAVE 5 BIT KEY CDE IN MPAC FOR CHARIN
000028: 04,7374           02264                           TC       RESUME
000029:


000031:
000032: 04,7375           50030        UPRUPTB            TS       BANKRUPT
000033: 04,7376           02677                           TC       READTIME   +1                         #  TIME IS SNATCHED IN RUPT FOR NOUN 65
000034: 04,7377           35501                           CAF      ZERO
000035: 04,7400           30041                           XCH      UPLINK                                #  ZERO UPLINK
000036: 04,7401           50600                           TS       KEYTEMP1
000037: 04,7402           10717                           CCS      DSPTAB     +7                         #  TURN ON UPACT LIGHT
000038: 04,7403           07405                           TC       +2                                    #  UPACT = BIT 11 OF DSPTAB +7
000039: 04,7404           37510                           CAF      B12-1                                 #  SAFETY PLAY
000040: 04,7405           64516                           AD       ONE
000041: 04,7406           50571                           TS       KEYTEMP2                              #  MAG OF DSPTAB +7 INTO KEYTEMP2
000042: 04,7407           74504                           MASK     BIT11
000043: 04,7410           10000                           CCS      A
000044: 04,7411           07421                           TC       UPRPT1                                #  BIT 11 ALREADY ONE
000045: 04,7412           30571                           XCH      KEYTEMP2                              #  BIT 11 = 0
000046: 04,7413           64504                           AD       BIT11
000047: 04,7414           40000                           CS       A                                     #  STORE NEGATIVELY
000048: 04,7415           30717                           XCH      DSPTAB     +7
000049: 04,7416           10000                           CCS      A
000050: 04,7417           07511                           TC       INCNOUTU                              #  PREVIOUS CONTENTS WAS +
000051: 04,7420           30000                           NOOP                                           #  SAFETY PLAY
000052: 04,7421           33220        UPRPT1             CAF      LOW5                                  #  TEST FOR TRIPLE CHAR REDUNDANCY
000053: 04,7422           70600                           MASK     KEYTEMP1                              #  LOW5 OF WORD
000054: 04,7423           30600                           XCH      KEYTEMP1                              #  LOW5 INTO KEYTEMP1
000055: 04,7424           30021                           XCH      SR                                    #  WHOLE WORD INTO SR
000056: 04,7425           50571                           TS       KEYTEMP2                              #  ORIGINAL SR INTO KEYTEMP2
000057: 04,7426           07472                           TC       SRGHT5
000058: 04,7427           73220                           MASK     LOW5                                  #  MID 5
000059: 04,7430           67507                           AD       HI10
000060: 04,7431           07501                           TC       UPTEST
000061: 04,7432           07472                           TC       SRGHT5
000062: 04,7433           73220                           MASK     LOW5                                  #  HIGH 5
000063: 04,7434           40000                           COM
000064: 04,7435           07501                           TC       UPTEST
000065: 04,7436           07466        UPOK               TC       RESTORSR                              #  CODE IS GOOD
000066: 04,7437           47443                           CS       ELRCODE                               #  IF CODE = ERROR LIGHT RESET, PUT +0
000067: 04,7440           60600                           AD       KEYTEMP1                              #  INTO UPLOCK (BIT2 OF STATE)
000068: 04,7441           10000                           CCS      A                                     #  IF CODE NOT= ELR, PASS CODE ONLY IF
000069: 04,7442           07451                           TC       TSTUPLOK                              #  UPLOCK=0 (BIT 2 OF STATE)
000070: 04,7443           00022        ELRCODE            OCT      22
000071: 04,7444           07451                           TC       TSTUPLOK
000072: 04,7445           44515                           CS       BIT2                                  #  0 INTO UPLOCK (BIT 2 OF STATE)
000073: 04,7446           70645                           MASK     UPLOCK
000074: 04,7447           50645                           TS       UPLOCK
000075: 04,7450           07455                           TC       ACCEPTUP
000076: 04,7451           34515        TSTUPLOK           CAF      BIT2
000077: 04,7452           70645                           MASK     UPLOCK
000078: 04,7453           10000                           CCS      A
000079: 04,7454           02264                           TC       RESUME                                #  UPLOCK = 1 (BIT2 OF STATE)
000080: 04,7455           30600        ACCEPTUP           XCH      KEYTEMP1                              #  UPLOCK = 0 (BIT2 OF STATE)
000081: 04,7456           07364                           TC       KEYRUPT1   +1
000082:


000084:
000085: 04,7457           07466        TMFAIL2            TC       RESTORSR                              #  CODE IS BAD
000086: 04,7460           44515                           CS       BIT2                                  #  LOCK OUT FURTHER UPLINK ACTIVITY (BY
000087: 04,7461           70645                           MASK     UPLOCK                                #  PUTTING 1 INTO UPLOCK, BIT 2 OF STATE)
000088: 04,7462           64515                           AD       BIT2                                  #  UNTIL ERROR LIGHT RESET IS SENT UP
000089: 04,7463           50645                           TS       UPLOCK                                #  UPLINK.
000090: 04,7464           02571        TMFAIL1            TC       TMALM
000091: 04,7465           02264                           TC       RESUME
000092:
000093: 04,7466           30571        RESTORSR           XCH      KEYTEMP2
000094: 04,7467           60000                           DOUBLE
000095: 04,7470           50021                           TS       SR
000096: 04,7471           00001                           TC       Q
000097:
000098: 04,7472     2571               TMALM              EQUALS   TMFAIL                                #  TM FAIL LIGHT ON (IN DOWNRUPT).
000099:
000100: 04,7472           40021        SRGHT5             CS       SR
000101: 04,7473           40021                           CS       SR
000102: 04,7474           40021                           CS       SR
000103: 04,7475           40021                           CS       SR
000104: 04,7476           40021                           CS       SR
000105: 04,7477           40000                           CS       A
000106: 04,7500           00001                           TC       Q                                     #  DELIVERS WORD UNCOMPLEMENTED
000107:
000108: 04,7501           60600        UPTEST             AD       KEYTEMP1
000109: 04,7502           10000                           CCS      A
000110: 04,7503           07457                           TC       TMFAIL2
000111: 04,7504           03062                           TC       CCSHOLE
000112: 04,7505           07457                           TC       TMFAIL2
000113: 04,7506           00001                           TC       Q
000114:
000115: 04,7507           77740        HI10               OCT      77740
000116: 04,7510     2075               UPBANK             EQUALS   EXECBANK                              #  IN SAME BANK AS EXEC.
000117:
000118: 04,7510           03777        B12-1              OCT      3777
000119:
000120: 04,7511           30707        INCNOUTU           XCH      NOUT
000121: 04,7512           64516                           AD       ONE
000122: 04,7513           50707                           TS       NOUT
000123: 04,7514           20001                           INDEX    Q
000124: 04,7515           00001        UPLAST             TC       1
000125:
000126:                                                                                                  #  UPACT IS TURNED OFF BY VBRELDSP, ALSO BY ERROR LIGHT RESET.
000127:


000129:
000130:                                                                                                  #  THE RECEPTION OF A BAD CODE BY UPLINK LOCKS OUT FURTHER UPLINK ACTIVITY
000131:                                                                                                  #  BY PLACING A 1 INTO UPLOCK (BIT2 OF STATE). BIT9 (AND BIT11) OF TMKEYBUF
000132:                                                                                                  #  IS SET TO 1 TO SEND AN INDICATION OF THIS SITUATION DOWN THE DOWNLINK.
000133:                                                                                                  #  THE UPLINK INTERLOCK IS ALLOWED WHEN AN ERROR LIGHT RESET CODE IS SENT
000134:                                                                                                  #  UP THE UPLINK, OR WHEN A FRESH START IS PERFORMED.

End of include-file KEYRUPT_UPRUPT_FRESH_START.agc.  Parent file is MAIN.agc


