
Source Code


000002:                                                                                                  ## Copyright:   Public domain.
000003:                                                                                                  ## Filename:    MODE_SWITCHING_AND_MARK_ROUTINES.agc
000004:                                                                                                  ## Purpose:     Part of the source code for Solarium build 55. This
000005:                                                                                                  ##              is for the Command Module's (CM) Apollo Guidance
000006:                                                                                                  ##              Computer (AGC), for Apollo 6.
000007:                                                                                                  ## Assembler:   yaYUL --block1
000008:                                                                                                  ## Contact:     Jim Lawton <jim DOT lawton AT gmail DOT com>
000009:                                                                                                  ## Website:     www.ibiblio.org/apollo/index.html
000010:                                                                                                  ## Page Scans:  www.ibiblio.org/apollo/ScansForConversion/Solarium055/
000011:                                                                                                  ## Mod history: 2009-10-06 JL   Created.
000012:                                                                                                  ##              2016-08-18 RSB  Typos.
000013:                                                                                                  ##              2016-08-23 RSB  More of the same.
000014:                                                                                                  ##              2016-12-28 RSB  Proofed comment text using octopus/ProoferComments,
000015:                                                                                                  ##                              and fixed errors found.
000016:


000018:
000019:                                                                                                  #        THE FOLLOWING SET OF PROGRAMS ARE USED TO SELECTTHE VARIOUS MODES OF THE IMU AND OPTICS. THE FOLLOWING
000020:                                                                                                  #  MODES ARE POSSIBLE:
000021:
000022:                                                                                                  #        IMUZERO     ZEROS IMU CDUS.
000023:                                                                                                  #        IMUCOARS    COARSE ALIGNS IMU.
000024:                                                                                                  #        IMURECOR    RETURNS IMU FROM FINE ALIGN TO COARSE ALIGN
000025:                                                                                                  #        IMUFINE     PREPARES TO PULSE TORQUE THE GYROS.
000026:                                                                                                  #  IMUFINNW     SWITCHES TO FINE WITH NO DELAY FOR IRIG CENTERING-DONT  ENTER FROM COARSE ALIGN MODE.
000027:                                                                                                  #        IMUATTC     USE IMU FOR S/C ATTITUDE CONTROL.
000028:                                                                                                  #        IMUREENT    USE IMU FOR ROLL RE-ENTRY.
000029:                                                                                                  #        IMULOCK     LOCKS IMU CDUS.
000030:
000031:                                                                                                  #        IMUFINIS(**)RELEASES IMU
000032:                                                                                                  #        IMUSTALL(*) IMU MODE IDLING AND ERROR CHECKING.
000033:
000034:
000035:
000036:                                                                                                  #        OPTZERO     ZERO OPTICS CDUS.
000037:                                                                                                  #        OPTCOARS    DUMMY OPTICS COARSE-ALIGN MODE.
000038:                                                                                                  #        OPTTRKON    OPTICS TRACKER ON.
000039:
000040:                                                                                                  #        SCTMARK     REQUEST N SCANNING TELESCOPE MARKS.
000041:                                                                                                  #        SXTMARK     REQUEST N SEXTANT MARKS.
000042:                                                                                                  #        MKRELEAS(**)RELEASE MARK SYSTEM.
000043:
000044:                                                                                                  #        OPTFINIS(**)RELEASE OPTICS.
000045:                                                                                                  #        OPTSTALL(*) OPTICS MODE-IDLING AND ERROR CHECKING.
000046:
000047:
000048:
000049:                                                                                                  #        OPTICS AND IMU MODE ROUTINES MAY BE USED CONCURRENTLY.
000050:
000051:                                                                                                  #        IN ADDITION, A ROUTINE WHICH INCREMENTS ANY DESIRED 2S COMPLEMENT ANGLE BY AN INPUT AMOUNT IS
000052:                                                                                                  #  INCLUDED (CDUINC).
000053:
000054:
000055:
000056:                                                                                                  #        CALLING SEQUENCE IS AS FOLLOWS:
000057:
000058:                                                                                                  #  L-1   CAF     NO.MARKS        (FOR SCTMARK AND SXTMARK ONLY).
000059:                                                                                                  #  L     TC      BANKCALL
000060:                                                                                                  #  L+1   CADR    (SUBRO)         ANY OF THE 14 MODE ROUTINES OR CDUINC.
000061:
000062:
000063:
000064:                                                                                                  #        (*)     THE STALL ROUTINES ARE CALLED TO TERMINATE ANY MODE REQUEST. THE REQUESTING JOB IS STALLED UNTIL
000065:                                                                                                  #  THE MODE-SWITCHING IS COMPLETE (WITH VAC-AREA PROTECTED) AND RETURN IS TO L+2 IF UNSUCCESSFUL AND L+3 IF THE
000066:                                                                                                  #  DESIRED MODE WAS SUCCESSFULLY ACHIEVED.
000067:
000068:                                                                                                  #        (**)    NO STALL ROUTINE NECESSARY IN CONJUNCTION WITH THIS REQUEST.
000069:


000071:
000072:                                                                                                  #        SPECIAL DP TIME COUNTER READING ROUTINE.
000073:
000074:    2676                                           BANK     1
000075:    2676           20017        READTIME           INHINT                                         #  ENTRY IF UNDER EXECUTIVE.
000076:    2677           40035                           CS       TIME2                                 #  ENTRY IF IN INTERRUPT.
000077:    2700           50572                           TS       RUPTSTOR
000078:    2701           40036                           CS       TIME1
000079:    2702           50573                           TS       RUPTSTOR   +1
000080:    2703           10000                           CCS      A                                     #  IF MINOR PART ZERO, MAJOR PART COULD
000081:    2704           00001                           TC       Q
000082:    2705           10000                           CCS      A
000083:    2706           00001                           TC       Q
000084:    2707           40035                           CS       TIME2                                 #  UP, SO READ IT AGIN.
000085:    2710           50572                           TS       RUPTSTOR
000086:    2711           00001                           TC       Q
000087:
000088:                                                                                                  #        ROUTINE TO READ FINE TIME IN IN2 EVEN IF IT CHANGES AS ITS BEING READ. CALL IN INHINT.
000089:
000090:    2712           30006        FINETIME           XCH      IN2                                   #  MAY BE CALLED UNDER EXEC OR RUPT.
000091:    2713           30006                           XCH      IN2
000092:    2714           72356                           MASK     FINEMASK                              #  NOTE THAT THE OR OF TWO STATES A AND B
000093:    2715           50577                           TS       ITEMP1                                #  IS NOT LESS THAN EITHER A OR B.
000094:    2716           30006                           XCH      IN2
000095:    2717           72356                           MASK     FINEMASK
000096:    2720           50600                           TS       ITEMP2
000097:    2721           40000                           COM                                            #  SELECT THE MINIMUM OF THE LAST TWO
000098:    2722           60577                           AD       ITEMP1                                #  STATES READ.
000099:    2723           10000                           CCS      A
000100:    2724           30600                           XCH      ITEMP2
000101:    2725           00001                           TC       Q
000102:    2726           30000                           NOOP
000103:    2727           30577                           XCH      ITEMP1
000104:    2730           00001                           TC       Q
000105:
000106:                                                                                                  #        SUBROUTINE TO ZERO IMU CDU COUNTERS.
000107:
000108:    2731           35501        ZEROICTR           CAF      ZERO                                  #  USED BY AUTOMATIC AND MANUAL ZEROING
000109:    2732           50047                           TS       CDUX                                  #   ROUTINES.
000110:    2733           50050                           TS       CDUY
000111:    2734           50051                           TS       CDUZ
000112:    2735           00001                           TC       Q
000113:
000114:
000115:
000116:    2736           40572        LODSAMPT           CS       RUPTSTOR                              #  TIME IS SNATCHED IN RUPT FOR NOUN 65
000117:    2737           30643                           XCH      SAMPTIME
000118:    2740           40573                           CS       RUPTSTOR   +1
000119:    2741           30644                           XCH      SAMPTIME   +1
000120:    2742           00001                           TC       Q
000121:


000123:
000124:                                                                                                  #        SETZLIT SETS THE ZERO ENCODER LAMP ACCORDING TO THE DESIRED-MODE REGISTERS DESKSET AND DESOPSET.
000125:
000126:    2743           30001        SETZLIT            XCH      Q
000127:    2744           50577                           TS       ITEMP1
000128:
000129:    2745           10731                           CCS      DESKSET
000130:    2746           02752                           TC       +4                                    #  COMPUTER COMMANDING-MAY BE ZEROING.
000131:    2747           02756                           TC       OPTZTEST                              #  NOT MANUAL ZERO.
000132:    2750           02773        TURNONZ            TC       ZLITON                                #  MANUAL ZEROING MODE.
000133:    2751           00577                           TC       ITEMP1
000134:
000135:    2752           64516                 +4        AD       ONE
000136:    2753           74516                           MASK     BIT1
000137:    2754           10000                           CCS      A
000138:    2755           02750                           TC       TURNONZ                               #  COMPUTER COMMANDING ZERO-ENCODER
000139:
000140:    2756           10732        OPTZTEST           CCS      DESOPSET
000141:    2757           02762                           TC       +3                                    #  MAY BE COMMANDING OPTICS ZERO.
000142:    2760           02766                           TC       ZLITOFF                               #  NOT MANUAL ZERO-TURN LIGHT OFF.
000143:    2761           02750                           TC       TURNONZ                               #  MANUAL OPTICS
000144:
000145:    2762           64516                 +3        AD       ONE
000146:    2763           74503                           MASK     BIT12
000147:    2764           10000                           CCS      A
000148:    2765           02750                           TC       TURNONZ
000149:
000150:    2766           45070        ZLITOFF            CS       ZLITBITS                              #  TURN OFF ZERO ENCODER LAMP.
000151:    2767           70723                           MASK     DSPTAB     +11D
000152:    2770           64500                           AD       BIT15
000153:    2771           50723                           TS       DSPTAB     +11D
000154:    2772           00577                           TC       ITEMP1
000155:
000156:    2773           45070        ZLITON             CS       ZLITBITS                              #  TURN ON ZERO-ENCODER LAMP.
000157:    2774           70723                           MASK     DSPTAB     +11D
000158:    2775           65070                           AD       ZLITBITS
000159:    2776           50723                           TS       DSPTAB     +11D
000160:    2777           00001                           TC       Q
000161:
000162:    3000     5070               ZLITBITS           EQUALS   OCT40020                              #  CS CYR IN DMP.
000163:


000165:
000166:                                                                                                  #        IMU ZEROING ROUTINE.
000167:
000168: 14,6000                                           SETLOC   30000
000169:
000170: 14,6000           44516        IMUZERO            CS       ONE                                   #  DISABLE CDU DRIVE
000171: 14,6001           50677                           TS       CDUIND                                #   BY SETTING CDUIND NEGATIVE.
000172:
000173: 14,6002           06245                           TC       SETKANDC                              #  GO TO SUBROUTINE TO SWITCH C RELAYS
000174: 14,6003           00051                           OCT      00051                                 #   = C(DESKSET)=COMP CONT+ZERO+FINE
000175: 14,6004           40011                           OCT      40011                                 #   = C SETTING FOR FINE + ZERO
000176: 14,6005           02773                           TC       ZLITON                                #  TURN ON ENCODER ZEROING LAMP
000177:
000178: 14,6006           44513                           CS       BIT4                                  #  DISABLE IMU FAIL FOR 5 SEC IN CASE WE
000179: 14,6007           70726                           MASK     OLDERR                                #  JUST CAME OUT OF COARSE ALIGN.
000180: 14,6010           64513                           AD       BIT4
000181: 14,6011           50726                           TS       OLDERR
000182: 14,6012           34505                           CAF      BIT10
000183: 14,6013           02173                           TC       WAITLIST
000184: 14,6014           30201                           CADR     IFAILOK
000185:
000186: 14,6015           36077                           CAF      35SECS                                #  SET A WAITLIST CALL FOR 35 SECONDS
000187: 14,6016           02173                           TC       WAITLIST                              #   SO  THOSE SHAFTS WILL HAVE TIME TO GET
000188: 14,6017           30022                           CADR     IMUZEROD                              #  THERE.
000189: 14,6020           20016        MODEEXIT           RELINT                                         #  GENERAL EXIT FROM MODE SWITCH PROGS
000190: 14,6021           05702                           TC       SWRETURN                              #   WHICH LEAVES VIA SWCALL EXIT
000191:
000192: 14,6022           02731        IMUZEROD           TC       ZEROICTR                              #  GO AND ZERO X, Y, AND Z COUNTERS
000193:
000194: 14,6023           06070                           TC       KCHECK                                #  SEE IF SYSTEM STILL FUNCTIONING OK.
000195: 14,6024           06246        MOREZERO           TC       SETKANDC   +1                         #  CALL FOR 10 SECONDS OF FINE ALIGN TO
000196: 14,6025           00050                           OCT      00050                                 #   ALLOW CDUS TO GO AT LEAST 90 DEGREES
000197: 14,6026           40010                           OCT      40010                                 #   OF THE WAY HOME UNLESS THE PLATFORM IS
000198: 14,6027           36101                           CAF      10SECS                                #   SITTING AT ANY FALSE NULLS.
000199: 14,6030           02173                           TC       WAITLIST
000200: 14,6031           30033                           CADR     ZEROATTC                              #  WE WILL GO INTO ATTITUTE CONTROL NEXT.
000201: 14,6032           02256                           TC       TASKOVER
000202:
000203: 14,6033           06070        ZEROATTC           TC       KCHECK                                #  USUAL SYSTEM CHECK.
000204: 14,6034           06246                           TC       SETKANDC   +1                         #  COMMAND ATTITUDE CONTROL (WITHOUT ATTC
000205: 14,6035           00060                           OCT      00060                                 #   LAMP LIT) SO THAT WE CAN DRIVE THE CDUS
000206: 14,6036           41000                           OCT      41000                                 #  (LIGHT ON AFTER ALL) AWAY FROM FALSE NUL
000207: 14,6037           36103                           CAF      320MS
000208: 14,6040           02173                           TC       WAITLIST
000209: 14,6041           30043                           CADR     ZERODRVE                              #  WAIT FOR MODE SWITCH BEFORE ENABLING CDU
000210: 14,6042           02256                           TC       TASKOVER                              #   DRIVE IN T4RUPT.


000212:
000213: 14,6043           06070        ZERODRVE           TC       KCHECK                                #  VERIFY SWITCH TO ATTITUDE CONTROL.
000214: 14,6044           34502                           CAF      QUARTER                               #  WE WILL DRIVE THE CDUS TOWARD 45 DEGREES
000215: 14,6045           50700                           TS       THETAD                                #   FOR 2SECS (ABOUT 10 DEGREES OF MOVEMENT
000216: 14,6046           50701                           TS       THETAD     +1                         #   AT MOST). THIS WILL DRIVE ANY CDUS OFF
000217: 14,6047           50702                           TS       THETAD     +2                         #   FALSE NULLS WITHOUT MOVING THE PLATFORM
000218: 14,6050           35501                           CAF      ZERO
000219: 14,6051           50677                           TS       CDUIND                                #  CDU LOOPS ARE NOW ENABLED.
000220: 14,6052           36102                           CAF      2SECS
000221: 14,6053           02173                           TC       WAITLIST
000222: 14,6054           30056                           CADR     REZFINE                               #  GO BACK TO FINE ALIGN WHEN DONE.
000223: 14,6055           02256                           TC       TASKOVER
000224:
000225: 14,6056           06070        REZFINE            TC       KCHECK                                #  VERIFY MODE SWITCH AS USUAL.
000226: 14,6057           06246                           TC       SETKANDC   +1                         #  CALL FOR 20 SECONDS OF FINE ALIGN TO
000227: 14,6060           00050                           OCT      00050                                 #   ALLOW ENOUGH TIME FOR THE CDUS TO FIND
000228: 14,6061           40010                           OCT      40010                                 #   THE GIMBALS.
000229: 14,6062           44516                           CS       ONE
000230: 14,6063           50677                           TS       CDUIND                                #  CDU LOOPS NOW DISABLED.
000231: 14,6064           36100                           CAF      20SECS
000232: 14,6065           02173                           TC       WAITLIST
000233: 14,6066           30171                           CADR     IMUFINED                              #  CHECK FORPRESENCE OF IMU OR CDU FAILS.
000234: 14,6067           02256                           TC       TASKOVER
000235:
000236:
000237:
000238: 14,6070           10727        KCHECK             CCS      WASKSET                               #  RETURN TO CALLER IF SYSTEM OK - SET UP
000239: 14,6071           00001                           TC       Q                                     #   ERROR RETURN AT ENDIMU OTHERWISE.
000240: 14,6072           06264                           TC       ENDIMU
000241: 14,6073           00001                           TC       Q
000242: 14,6074           06264                           TC       ENDIMU
000243:
000244: 14,6075           21450        90SECS             DEC      90.00      E2
000245: 14,6076           10624        45SECS             DEC      45.00      E2                         #  TIME FOR IMUCDU COARSE ALIGN.
000246: 14,6077           06654        35SECS             DEC      35.00      E2                         #  TIME FOR IMUCDU ZERO ENCODER.
000247: 14,6100           03720        20SECS             DEC      20.00      E2
000248: 14,6101           01750        10SECS             DEC      10.00      E2
000249: 14,6102           00310        2SECS              DEC      2.00       E2
000250: 14,6103           00040        320MS              DEC      .32        E2
000251:


000253:
000254:                                                                                                  #  IMU COARSE ALIGN PROGRAM
000255:
000256: 14,6104           06245        IMUCOARS           TC       SETKANDC                              #  SET DESIRED C AND K RELAY SETTINGS.
000257: 14,6105           00042                           OCT      00042                                 #    COMPUTER CONTROL . COARSE ALIGN.
000258: 14,6106           40002                           OCT      40002                                 #    C RELAY COARSE ALIGN.
000259:
000260: 14,6107           02743                           TC       SETZLIT                               #  SERVICE THE ZERO ENCODER LAMP
000261:
000262: 14,6110           36103                           CAF      320MS                                 #  SET WAITLIST CALL FOR 320 M.S. TO
000263: 14,6111           02173                           TC       WAITLIST                              #   ACCOMMODATE CONTACT BOUNCE + T4RUPT LAG
000264: 14,6112           30125                           CADR     BEGINCOM
000265: 14,6113           06020                           TC       MODEEXIT
000266:
000267:
000268:
000269: 14,6114           40047        RECOARSD           CS       CDUX                                  #  GOING BACK INTO COARSE ALIGN FROM FINE
000270: 14,6115           40000                           COM                                            #  ALIGN. PUT CDU COUNTER VALUES INTO
000271: 14,6116           50700                           TS       THETAD                                #  DESIRED ANGLE REGISTERS AND ENABLE THE
000272: 14,6117           40050                           CS       CDUY                                  #  T4RUPT CDU DRIVE.
000273: 14,6120           40000                           COM
000274: 14,6121           50701                           TS       THETAD     +1
000275: 14,6122           40051                           CS       CDUZ
000276: 14,6123           40000                           COM
000277: 14,6124           50702                           TS       THETAD     +2
000278:
000279: 14,6125           06070        BEGINCOM           TC       KCHECK                                #  VERIFY CORRECTNESS OF PRESENT MODE.
000280: 14,6126           35501        STARTCRS           CAF      ZERO                                  #  ENABLE CDU LOOP CLOSURE
000281: 14,6127           50677                           TS       CDUIND
000282:
000283: 14,6130           36076                           CAF      45SECS
000284: 14,6131           02173                           TC       WAITLIST                              #   CDU LOOPS TO SETTLE
000285: 14,6132           30214                           CADR     COARSDON
000286: 14,6133           02256                           TC       TASKOVER
000287:


000289:
000290:                                                                                                  #  IMU FINE ALIGN PROGRAM
000291:
000292: 14,6134           06245        IMURECOR           TC       SETKANDC                              #  GO INTO COARSE ALIGN FROM FINE ALIGN.
000293: 14,6135           00042                           OCT      00042                                 #  (SEE REMARKS ON RECOARSD FOR FURTHER
000294: 14,6136           40002                           OCT      40002                                 #    DETAILS).
000295: 14,6137           36103                           CAF      320MS                                 #  USUAL CONTACT CLOSURE AND SAMPLE TIME
000296: 14,6140           02173                           TC       WAITLIST
000297: 14,6141           30114                           CADR     RECOARSD
000298: 14,6142           06160                           TC       DISEXIT                               #  DISABLE GYRO ACTIVITY.
000299:
000300: 14,6143           06245        IMUFINE            TC       SETKANDC                              #  SET UP C RELAY PATTERN AND DESIRED K
000301: 14,6144           00050                           OCT      00050                                 #   DES K = COMPUTER CONTROL + FINE
000302: 14,6145           40010                           OCT      40010                                 #       C = FINE ALIGN
000303:
000304: 14,6146           44513                           CS       BIT4                                  #  COMES THROUGH HERE AFTER EVERY COARSE
000305: 14,6147           70726                           MASK     OLDERR                                #  ALIGN. SET BIT 4 OF OLDERR TO INHIBIT
000306: 14,6150           64513                           AD       BIT4                                  #  IMU FAIL FOR ANOTHER 5 SECONDS.
000307: 14,6151           50726                           TS       OLDERR
000308:
000309: 14,6152           34505                           CAF      BIT10
000310: 14,6153           02173                           TC       WAITLIST
000311: 14,6154           30201                           CADR     IFAILOK
000312:
000313: 14,6155           36075                           CAF      90SECS                                #  SET WAITLIST CALL FOR 90 SEC. TO ALLOW
000314: 14,6156           02173                           TC       WAITLIST                              #   GYROS TO RE-CENTER BEFORE IRIG PULSE
000315: 14,6157           30171                           CADR     IMUFINED                              #   TORQUING
000316: 14,6160           44516        DISEXIT            CS       ONE                                   #  DISABLE T4 IMU (CDU OR GYRO) ACTIVITY.
000317: 14,6161           50677                           TS       CDUIND
000318: 14,6162           06020                           TC       MODEEXIT
000319:
000320:
000321:
000322: 14,6163           06757        IMUFINNW           TC       TSTIMACT
000323:
000324: 14,6164           06245                           TC       SETKANDC
000325: 14,6165           00050                           OCT      00050
000326: 14,6166           40010                           OCT      40010
000327: 14,6167           36103                           CAF      320MS
000328: 14,6170           06156                           TC       DISEXIT    -2
000329:


000331:
000332: 14,6171           03430        IMUFINED           TC       FLAG1DWN
000333: 14,6172           02000                           OCT      02000
000334:
000335: 14,6173           06264                           TC       ENDIMU
000336:
000337: 14,6174           34503                           CAF      BIT12                                 #  NO IMU FAILS, PLEASE.
000338: 14,6175           70726                           MASK     OLDERR
000339: 14,6176           10000                           CCS      A
000340: 14,6177           06305                           TC       FAILEND
000341: 14,6200           06314                           TC       GOODEND
000342:
000343: 14,6201           44513        IFAILOK            CS       BIT4                                  #  ENABLE IMU FAIL 5 SECONDS AFTER COMING
000344: 14,6202           70726                           MASK     OLDERR                                #  OUT OF COARSE ALIGN.
000345: 14,6203           50726                           TS       OLDERR
000346: 14,6204           02256                           TC       TASKOVER
000347:


000349:
000350:                                                                                                  #  CDU LOCK PROGRAM
000351:
000352: 14,6205           06245        IMULOCK            TC       SETKANDC                              #  SET APPROPRIATE K AND C CONFIGS.
000353: 14,6206           00044                           OCT      00044
000354: 14,6207           40004                           OCT      40004
000355:
000356: 14,6210           36103                           CAF      320MS
000357: 14,6211           02173                           TC       WAITLIST                              #   PLACE.
000358: 14,6212           30214                           CADR     IMULOCKD
000359: 14,6213           06160                           TC       DISEXIT
000360:
000361: 14,6214           06264        IMULOCKD           TC       ENDIMU
000362: 14,6215           06314                           TC       GOODEND
000363:
000364: 14,6216  14,6214               COARSDON           EQUALS   IMULOCKD
000365:


000367:
000368:                                                                                                  #  IMU RE-ENTRY AND ATTITUDE CONTROL PROGRAMS
000369:
000370: 14,6216           06757        IMUREENT           TC       TSTIMACT
000371: 14,6217           06245                           TC       SETKANDC
000372: 14,6220           00140                           OCT      00140
000373: 14,6221           42000                           OCT      42000
000374: 14,6222           06227                           TC       ENABEXIT
000375:
000376:
000377:
000378: 14,6223           06757        IMUATTC            TC       TSTIMACT
000379: 14,6224           06245                           TC       SETKANDC
000380: 14,6225           00060                           OCT      00060
000381: 14,6226           41000                           OCT      41000
000382:
000383: 14,6227           36103        ENABEXIT           CAF      320MS
000384: 14,6230           02173                           TC       WAITLIST
000385: 14,6231           30233                           CADR     ENABLE
000386: 14,6232           06160                           TC       DISEXIT                               #  DISABLE POSSIBLE GYRO ACTIVITY.
000387:
000388: 14,6233           03430        ENABLE             TC       FLAG1DWN
000389: 14,6234           02000                           OCT      02000
000390:
000391: 14,6235           06264                           TC       ENDIMU
000392:
000393: 14,6236           35501                           CAF      ZERO                                  #  ENABLE CDU LOOPS
000394: 14,6237           50677                           TS       CDUIND
000395: 14,6240           06314                           TC       GOODEND
000396:                                                                                                  #  NOTICE THAT NO INSPECTION OF CDU AND IMU
000397:                                                                                                  #  ERROR SIGNALS IS MADE SINCE IN THESE
000398:                                                                                                  #  MODES THE MAIN PROGRAM MUST CHECK THE
000399:                                                                                                  #  STATUS OF THESE SIGNALS PERIODICALLY.
000400:
000401:
000402:
000403:                                                                                                  #        IMUFINIS - TO BE CALLED AT THE END OF COMPUTER-CONTROLLED MODE SWITCHING. PLACES MODE SAMPLING INTO
000404:                                                                                                  #  MANUAL CONTROL, SWITCHES THE SYSTEM TO FINE ALIGN, AND DISABLES THE T4RUPT CDU DRIVE. NO CALL TO IMUSTALL IS
000405:                                                                                                  #  REQUIRED HERE.
000406:
000407: 14,6241           06245        IMUFINIS           TC       SETKANDC
000408: 14,6242           00000                           OCT      00000                                 #  0 MEANS COMPUTER IS NO LONGER IN CONTROL
000409: 14,6243           40010                           OCT      40010                                 #  FINE ALIGN C-RELAY CODE.
000410: 14,6244           06160                           TC       DISEXIT
000411:


000413:
000414:                                                                                                  #        SUBROUTINE USED BY MODE-SWITCHING PROGRAMS TO SET DESIRED K- AND C-RELAY SETTINGS.
000415:
000416: 14,6245           20017        SETKANDC           INHINT                                         #  INHINT AND EXIT WITH INTERRUPT INHIBITED
000417: 14,6246           20001                           INDEX    Q
000418: 14,6247           30000                           CAF      0
000419: 14,6250           50731                           TS       DESKSET                               #  DESIRED K-RELAY SETTING AS READ IN IN3.
000420:
000421: 14,6251           36260                           CAF      OFFMSK                                #  SET C-RELAYS FOR ZERO ENCODER, COARSE
000422: 14,6252           70723                           MASK     DSPTAB     +11D                       #    ALIGN, FINE ALIGN, LOCK CDU, ROLL
000423: 14,6253           20001                           INDEX    Q                                     #    RE-ENTRY, AND ATTITUDE CONTROL LAMP.
000424: 14,6254           60001                           AD       1
000425: 14,6255           50723                           TS       DSPTAB     +11D
000426:
000427: 14,6256           20001                           INDEX    Q
000428: 14,6257           00002                           TC       2                                     #  RETURN TO CALLER IN INHINT.
000429:
000430: 14,6260           34760        OFFMSK             OCT      34760
000431:


000433:
000434:                                                                                                  #        WHEN A MODE-SWITCHING TASK IS DISPATCHED TO INDICATE THE END OF A MODE-SWITCH, ENDIMU (OR ENDOPT) IS
000435:                                                                                                  #  CALLED TO WAKE UP ANY JOB IMUSTALL (OPTSTALL) MIGHT HAVE PUT TO SLEEP AND THEN CHECK WASKSET (WASOPSET) TO SEE
000436:                                                                                                  #  THAT THE MODE-SWITCH WAS SUCCESSFUL.
000437:
000438: 14,6261           35503        ENDOPT             CAF      TWO
000439: 14,6262           64476                           AD       POSMAX
000440: 14,6263           50034                           TS       OVCTR                                 #  SKIP WITH C(A) = 1.
000441:
000442: 14,6264           35501        ENDIMU             CAF      ZERO
000443: 14,6265           50640                           TS       RUPTREG2                              #  0 FOR IMU, 1 FOR OPTICS.
000444:
000445: 14,6266           30001                           XCH      Q
000446: 14,6267           50637                           TS       RUPTREG1
000447:
000448: 14,6270           20640                           INDEX    RUPTREG2
000449: 14,6271           10733                           CCS      MODECADR                              #  SEE IF IMUSTALL (OPTSTALL) PUT A JOB
000450: 14,6272           06274                           TC       +2                                    #  TO SLEEP.
000451: 14,6273           06300                           TC       ENDMODE                               #  +0 IF NOT.
000452: 14,6274           34516                           CAF      ONE                                   #  SET PROPER MODECADR TO 1 TO INDICATE
000453: 14,6275           20640                           INDEX    RUPTREG2                              #  A JOB WAS AWAKENED.
000454: 14,6276           30733                           XCH      MODECADR
000455: 14,6277           02060                           TC       JOBWAKE
000456:
000457: 14,6300           20640        ENDMODE            INDEX    RUPTREG2                              #  CHECK PROPER *WAS* REGISTER TO SEE IF
000458: 14,6301           10727                           CCS      WASKSET                               #   SWITCH WAS SUCCESSFUL.
000459: 14,6302           00637                           TC       RUPTREG1                              #  YES - RETURN FOR MORE CHECKING IF OK.
000460: 14,6303           06305                           TC       +2                                    #  FAILED - STILL WAITING TO SWITCH.
000461: 14,6304           00637                           TC       RUPTREG1                              #  MANUAL INHIBIT.
000462:
000463: 14,6305           20640        FAILEND            INDEX    RUPTREG2                              #  COMES HERE TO SIGNAL ERROR RETURN FROM
000464: 14,6306           10733                           CCS      MODECADR                              #   MODE STALL ROUTINES.
000465: 14,6307           06311                           TC       +2                                    #  JOB WAS WAKENED EARLIER - EXIT W/O INCR.
000466: 14,6310           40000                           COM                                            #  NO WAKE-UP - SET MODECADR TO -0 FOR FAIL
000467: 14,6311           20640        LVENDMOD           INDEX    RUPTREG2
000468: 14,6312           50733                           TS       MODECADR
000469: 14,6313           02256                           TC       TASKOVER
000470:
000471: 14,6314           20640        GOODEND            INDEX    RUPTREG2                              #  COMES HERE TO SIGNAL A SUCCESSFUL SWITCH
000472: 14,6315           10733                           CCS      MODECADR
000473: 14,6316           06321                           TC       BUMPJOB                               #  JOB WAS AWAKENED - INCREMENT LOC.
000474: 14,6317           44516                           CS       ONE                                   #  NO WAKE - SET MODECADR TO -1 TO INDICATE
000475: 14,6320           06311                           TC       LVENDMOD                              #   SUCCESS.
000476:
000477: 14,6321           20601        BUMPJOB            INDEX    LOCCTR                                #  ARRIVES WITH C(A) = 0. LOCCTR SET TO
000478: 14,6322           30120                           XCH      LOC                                   #   AWAKENED JOB REGISTERS.
000479: 14,6323           64335                           AD       MINUS1                                #  LOC IS NEGATIVE FOR BASIC JOBS.
000480: 14,6324           20601                           INDEX    LOCCTR
000481: 14,6325           30120                           XCH      LOC
000482: 14,6326           06311                           TC       LVENDMOD                              #  SET MODECADR TO +0 AND EXIT.
000483:


000485:
000486:                                                                                                  #        WHEN A JOB WHICH REQUESTED A MODE SWITCH MUST IDLE UNTIL THE SWITCH IS COMPLETE, IT COMES TO IMUSTALL
000487:                                                                                                  #  (OR OPTSTALL) TO WAIT FOR THE COMPLETION AND TO DO ERROR CHECKING. RETURN IS TO THE LOCATION IMMEDIATELY FOLLOW-
000488:                                                                                                  #  ING THE CALLING SEQUENCE IF THE SWITCH WAS UNSUCCESSFUL, AND THE NEXT LOCATION IF IT WAS SUCCESSFUL. ANY
000489:                                                                                                  #  IDLING IS DONE BY PUTTING THE JOB TO SLEEP, SO THAT A VAC AREA (IF USED) WOULD BE PRESERVED.
000490:
000491: 14,6327           34516        OPTSTALL           CAF      ONE                                   #  0 FOR IMU AND 1 FOR OPTICS AS USUAL.
000492: 14,6330           06332                           TC       +2
000493:
000494: 14,6331           35501        IMUSTALL           CAF      ZERO
000495: 14,6332           20017                           INHINT                                         #  ONE SUB-SYSTEM AT A TIME ONLY.
000496: 14,6333           50640                           TS       RUPTREG2
000497: 14,6334           20000                           INDEX    A
000498: 14,6335           10733                           CCS      MODECADR                              #  SEE IF MODE SWITCH IS COMPLETE.
000499: 14,6336           06357                           TC       MODABORT                              #  VERY ILL IF SOMEONE ALREADY WAITING.
000500: 14,6337           06352                           TC       MODESLP                               #  MODE SWITCH INCOMPLETE - PUT JOB TO REST
000501: 14,6340           06344                           TC       MODEGOOD                              #  -1 INDICATES A SUCCESSFULLY COMPLETED SW
000502:
000503: 14,6341           20640        MG2                INDEX    RUPTREG2                              #  -0 MEANS FINISHED BUT FAILED.
000504: 14,6342           50733                           TS       MODECADR                              #  RESET TO +0.
000505: 14,6343           06020                           TC       MODEEXIT                              #  RELINT AND RETURN VIA SWCALL.
000506:
000507: 14,6344           10000        MODEGOOD           CCS      A                                     #  SEE THAT MODECADR WAS INDEED -1.
000508: 14,6345           06357                           TC       MODABORT                              #  VERY ILL IF SOMEONE ALREADY WAITING.
000509: 14,6346           30071                           XCH      TEMQS                                 #  INCREMENT RETURN TO INDICATE SUCCESS.
000510: 14,6347           64516                           AD       ONE
000511: 14,6350           30071                           XCH      TEMQS                                 #  BRING +0 BACK
000512: 14,6351           06341                           TC       MG2                                   #  TO RESET MODECADR AND EXIT.
000513:
000514: 14,6352           05706        MODESLP            TC       MAKECADR                              #  MAKE CADR FROM SWCALL RETUN ADDRESS.
000515: 14,6353           30062                           XCH      ADDRWD
000516: 14,6354           20640                           INDEX    RUPTREG2
000517: 14,6355           50733                           TS       MODECADR
000518: 14,6356           02127                           TC       JOBSLEEP
000519:
000520: 14,6357           03044        MODABORT           TC       ABORT                                 #  IMU OR OPTSTALL ABORT.
000521: 14,6360           01210                           OCT      01210
000522:
000523: 14,6361                        ENDSTALL           EQUALS
000524:


000526:
000527:                                                                                                  #        THE FOLLOWING ROUTINE INCREMENTS IN 2S COMPLEMENT THE REGISTER WHOSE ADDRESS IS IN ADDRWD BY THE
000528:                                                                                                  #  QUANTITY FOUND IN TEM2.  THIS MAY BE USED TO INCREMENT DESIRED IMU AND OPTICS CDU ANGLES OR ANY OTHER 2S
000529:                                                                                                  #  COMPLEMENT (+0 UNEQUAL TO -0) QUANTITY.
000530:
000531: 14,6361           50102        CDUINC             TS       TEM2                                  #  1S COMPLEMENT INCREMENT ARRIVING IN A.
000532: 14,6362           20077                           INDEX    BUF
000533: 14,6363           10000                           CCS      0                                     #  THE 16TH BIT OF A WILL BE USED TO
000534: 14,6364           64516                           AD       ONE                                   #  ACHIEVE THE REQUIRED 32,768 DISTINCT
000535: 14,6365           06371                           TC       +4                                    #  STATES.
000536:
000537: 14,6366           64516                           AD       ONE
000538: 14,6367           64516                           AD       ONE                                   #  A MAY HAVE OVERFLOW PRESENT HERE.
000539: 14,6370           40000                           COM                                            #  DESIRED -1 IF DESIRED WAS NEGATIVE.
000540:
000541: 14,6371           60102                 +4        AD       TEM2                                  #  AND MAYBE OVERFLOW SOME MORE.
000542: 14,6372           10000                           CCS      A                                     #  BACK TO 2S COMPLEMENT.
000543: 14,6373           64516                           AD       ONE                                   #    NOTE THAT CCS TREATS A AS A 16 BIT NO.
000544: 14,6374           06376                           TC       +2
000545: 14,6375           40000                           COM
000546: 14,6376           50034                           TS       OVCTR                                 #  REVERTS -0 TO +0.
000547: 14,6377           06403                           TC       +4                                    #  NO OVERFLOW - PLANT NEW DESIRED.
000548:
000549: 14,6400           20000                           INDEX    A                                     #  OVERFLOW - SIMULATE UN-CORRECTED SIGN.
000550: 14,6401           34477                           CAF      LIMITS                                #  37777 FOR NEGATIVE - 40000 IF PLUS.
000551: 14,6402           60034                           AD       OVCTR                                 #  OVERFLOW-CORRECTED DIFFERENCE.
000552:
000553: 14,6403           20077                 +4        INDEX    BUF
000554: 14,6404           50000                           TS       0                                     #  NEW ANGLE.
000555:
000556: 14,6405           05702                           TC       SWRETURN                              #  RETURN TO CALLER.
000557:


000559:
000560:                                                                                                  #        MARK REQUESTING ROUTINES.
000561:
000562: 14,6406           20017        SXTMARK            INHINT
000563: 14,6407           50637                           TS       RUPTREG1                              #  NUMBER OF MARKS REQUESTED.
000564:
000565: 14,6410           10735                           CCS      MARKSTAT                              #  SEE IF MARK BUTTON ALREADY SNATCHED.
000566: 14,6411           06413                           TC       +2                                    #  YES - ALARM AND END THE STRAY JOB.
000567: 14,6412           06416                           TC       MARKOK                                #  +0 INDICATES AVAILABLE.
000568:
000569: 14,6413           03007                           TC       ALARM
000570: 14,6414           00105                           OCT      00105
000571: 14,6415           02124                           TC       ENDOFJOB
000572:
000573: 14,6416           10216        MARKOK             CCS      VAC1USE                               #  FIND A VAC AREA TO STORE THE MARKS IN.
000574: 14,6417           06432                           TC       MKVACFND
000575: 14,6420           10272                           CCS      VAC2USE
000576: 14,6421           06432                           TC       MKVACFND
000577: 14,6422           10346                           CCS      VAC3USE
000578: 14,6423           06432                           TC       MKVACFND
000579: 14,6424           10422                           CCS      VAC4USE
000580: 14,6425           06432                           TC       MKVACFND
000581: 14,6426           10476                           CCS      VAC5USE
000582: 14,6427           06432                           TC       MKVACFND
000583:
000584: 14,6430           03044                           TC       ABORT                                 #  VAC AREAS ALL OCCUPIED - ABORT.
000585: 14,6431           01207                           OCT      01207
000586:
000587: 14,6432           65503        MKVACFND           AD       TWO                                   #  ADDRESS OF VAC.
000588: 14,6433           50735                           TS       MARKSTAT
000589: 14,6434           20000                           INDEX    A
000590: 14,6435           50052                           TS       QPRET                                 #  USED TO SHOW NEXT AVAILABLE MARK SLOT.
000591:
000592: 14,6436           35501                           CAF      ZERO                                  #  SHOW VACAREA IS OCCUPIED.
000593: 14,6437           20735                           INDEX    MARKSTAT
000594: 14,6440           47777                           TS       0          -1
000595:
000596: 14,6441           34503                           CAF      BIT12                                 #  PLACE DESIRED NUMBER OF MARKS IN 12 - 14
000597: 14,6442           25777                           EXTEND
000598: 14,6443           40637                           MP       RUPTREG1
000599: 14,6444           30003                           XCH      LP
000600: 14,6445           60735                           AD       MARKSTAT                              #  JUST CONTAINS LOW 9 BITS OF VAC ADDRESS.
000601: 14,6446           50735                           TS       MARKSTAT
000602:
000603: 14,6447           32165        MARKEXIT           CAF      PRIO32
000604: 14,6450           02052                           TC       NOVAC
000605: 14,6451           30677                           CADR     MKVB51
000606: 14,6452           06020                           TC       MODEEXIT
000607:


000609:
000610:                                                                                                  #        MARK SYSTEM RELEASING ROUTINE.
000611:
000612: 14,6453           35501        MKRELEAS           CAF      ZERO                                  #  SHOW MARK SYSTEM NOW AVAILABLE.
000613: 14,6454           30735                           XCH      MARKSTAT
000614: 14,6455           10000                           CCS      A
000615: 14,6456           20000                           INDEX    A
000616: 14,6457           50000                           TS       0
000617:
000618: 14,6460           05702                           TC       SWRETURN
000619:


000621:
000622:                                                                                                  #        KEYRUPT LEAD-IN AND MARK/MARK ACCEPT PROGRAMS.
000623:
000624: 14,6461           50030        KEYRUPTA           TS       BANKRUPT
000625: 14,6462           40053        MARK               CS       OPTY                                  #  PRECISION OPTICS DRIVE - GATHER DATA
000626: 14,6463           50577                           TS       RUPTSTOR   +5                         #  IMMEDIATELY AND THEN TRANSFER TO VAC.
000627:
000628: 14,6464           40052                           CS       OPTX                                  #  SHAFT OPTICS ENCODER.
000629: 14,6465           50575                           TS       RUPTSTOR   +3
000630:
000631: 14,6466           40050                           CS       CDUY                                  #  READ INNER-MIDDLE-OUTER IMUCDUS.
000632: 14,6467           50574                           TS       RUPTSTOR   +2
000633:
000634: 14,6470           40051                           CS       CDUZ
000635: 14,6471           50576                           TS       RUPTSTOR   +4
000636:
000637: 14,6472           40047                           CS       CDUX
000638: 14,6473           50600                           TS       RUPTSTOR   +6
000639:
000640: 14,6474           02677                           TC       READTIME   +1                         #  SPECIAL DP TIME COUNTER-READING ROUTINE.
000641:
000642: 14,6475           34512                           CAF      BIT5                                  #  DO NOT ACCEPT KEYCODE UNLESS PREVIOUS
000643: 14,6476           70645                           MASK     STATE                                 #  KEYCODE HAS DISAPPEARED FROM IN0 (SEE
000644: 14,6477           10000                           CCS      A                                     #  T4RUPTA). IF SO, BIT5 OF STATE = 0.
000645: 14,6500           02264                           TC       RESUME                                #  IF NOT, BIT5 = 1.
000646:
000647: 14,6501           44512                           CS       BIT5                                  #  ACCEPT CODE AND BLOCK KEYRUPTS UNTIL
000648: 14,6502           70645                           MASK     STATE                                 #  PRESENT KEYCODE HAS GONE AWAY.
000649: 14,6503           64512                           AD       BIT5
000650: 14,6504           50645                           TS       STATE
000651:
000652: 14,6505           10004                           CCS      IN0                                   #  SEE IF KEYCODE OR MARK.
000653: 14,6506           64516                           AD       ONE
000654: 14,6507           06674                           TC       KEYCALL
000655: 14,6510           06511                           TC       +1                                    #  IN0 SHOULD NEVER CONTAIN -0.
000656:
000657: 14,6511           30007                           XCH      IN3                                   #  NOW FIND OUT IF IT WAS A MARK-REJECT.
000658: 14,6512           30007                           XCH      IN3
000659: 14,6513           74503                           MASK     BIT12                                 #  OPT ZERO/MARK REJECT BIT.
000660: 14,6514           10000                           CCS      A
000661: 14,6515           06611                           TC       MKREJECT


000663:
000664: 14,6516           10735                           CCS      MARKSTAT                              #  SEE IF MARKS BEING CALLED FOR.
000665: 14,6517           06543                           TC       MARK2
000666:
000667: 14,6520           30575                           XCH      RUPTSTOR   +3                         #  STORE IN OBTAINED MPAC COMPLEMENTED.
000668: 14,6521           50637                           TS       RUPTREG1                              #  OPTICS ANGLES AND MINOR PART OF TIME.
000669: 14,6522           30577                           XCH      RUPTSTOR   +5                         #  -OPTX, -OPTY, AND -TIME1.
000670: 14,6523           50640                           TS       RUPTREG2
000671: 14,6524           30573                           XCH      RUPTSTOR   +1
000672: 14,6525           50641                           TS       RUPTREG3
000673:
000674: 14,6526           32143                           CAF      PRIO5                                 #  CALL SPECIAL DISPLAY JOB
000675: 14,6527           02052                           TC       NOVAC
000676: 14,6530           30651                           CADR     MARKDISP
000677:
000678: 14,6531           30637                           XCH      RUPTREG1                              #  PLANT INFORMATION IN MPAC OF REGISTER
000679: 14,6532           20601                           INDEX    LOCCTR                                #  SET.
000680: 14,6533           50115                           TS       MPAC
000681: 14,6534           30640                           XCH      RUPTREG2
000682: 14,6535           20601                           INDEX    LOCCTR
000683: 14,6536           50116                           TS       MPAC       +1
000684: 14,6537           30641                           XCH      RUPTREG3
000685: 14,6540           20601                           INDEX    LOCCTR
000686: 14,6541           50117                           TS       MPAC       +2
000687:
000688: 14,6542           02264                           TC       RESUME
000689:


000691:
000692: 14,6543           66676        MARK2              AD       74K                                   #  SEE IF ANY MORE MARKS CALLED FOR.
000693: 14,6544           10000                           CCS      A
000694: 14,6545           06552                           TC       MARK3
000695: 14,6546           76777        BIT10BAR           OCT      -1000
000696: 14,6547           03007        BADMARK            TC       ALARM
000697: 14,6550           00106                           OCT      00106
000698: 14,6551           02264                           TC       RESUME                                #  NO FURTHER ACTION HERE.
000699:
000700: 14,6552           64516        MARK3              AD       ONE                                   #  SET BIT 10 = 1 TO ENABLE MARK
000701: 14,6553           76546                           MASK     BIT10BAR                              #  REJECT.
000702: 14,6554           64505                           AD       BIT10
000703: 14,6555           50735                           TS       MARKSTAT
000704:
000705: 14,6556           74607                           MASK     LOW9                                  #  SET UP REGISTER TRANSFER LOOP.
000706: 14,6557           50640                           TS       RUPTREG2                              #  ADVANCE POINTER IN QPRET.
000707: 14,6560           20000                           INDEX    A
000708: 14,6561           30052                           XCH      QPRET                                 #  PICK UP MARK SLOT-POINTER.
000709: 14,6562           64475                           AD       SIX
000710: 14,6563           50637                           TS       RUPTREG1
000711: 14,6564           64516                           AD       ONE
000712: 14,6565           20640                           INDEX    RUPTREG2
000713: 14,6566           50052                           TS       QPRET
000714: 14,6567           34475                           CAF      SIX                                   #  LOOP SEVEN TIMES.
000715:
000716: 14,6570           50640        READLOOP           TS       RUPTREG2
000717: 14,6571           20000                           INDEX    A
000718: 14,6572           40572                           CS       RUPTSTOR
000719: 14,6573           20637                           INDEX    RUPTREG1
000720: 14,6574           50000                           TS       0
000721: 14,6575           10637                           CCS      RUPTREG1                              #  ADDRESS NEXT LOCATION IN VAC.
000722: 14,6576           50637                           TS       RUPTREG1
000723: 14,6577           10640                           CCS      RUPTREG2
000724: 14,6600           06570                           TC       READLOOP
000725:
000726: 14,6601           32261                           CAF      HI5                                   #  IF ALL REQUESTED MARKS MADE, CHANGE
000727: 14,6602           70735                           MASK     MARKSTAT                              #  DSKY TO VERB 50 FLASHING.
000728: 14,6603           10000                           CCS      A
000729: 14,6604           02264                           TC       RESUME
000730: 14,6605           32165                           CAF      PRIO32
000731: 14,6606           02052                           TC       NOVAC
000732: 14,6607           30750                           CADR     MKVB50
000733: 14,6610           02264                           TC       RESUME                                #  DONE.
000734:


000736:
000737: 14,6611           10735        MKREJECT           CCS      MARKSTAT                              #  SEE IF MARKS BEING ACCEPTED.
000738: 14,6612           06616                           TC       REJECT2
000739: 14,6613           03007                           TC       ALARM                                 #  CURSE IF NOT.
000740: 14,6614           00107                           OCT      00107
000741: 14,6615           02256                           TC       TASKOVER                              #  (UNTIL MK ACCEPT BUTTON AVAILABLE).
000742:
000743: 14,6616           44505        REJECT2            CS       BIT10                                 #  SEE IF MARK HAD BEEN MADE SINCE LAST
000744: 14,6617           70735                           MASK     MARKSTAT                              #  MARK REJECT, AND SET BIT 10 TO ZERO TO
000745: 14,6620           30735                           XCH      MARKSTAT                              #  SHOW MARK REJECT.
000746: 14,6621           74505                           MASK     BIT10
000747: 14,6622           10000                           CCS      A
000748: 14,6623           06627                           TC       REJECT3
000749:
000750: 14,6624           03007                           TC       ALARM                                 #  DONT ACCEPT TWO MARK REJECTS TOGETHER.
000751: 14,6625           00110                           OCT      00110
000752: 14,6626           02256                           TC       TASKOVER                              #  (UNTIL MK REJECT BUTTON AVAILABLE).
000753:
000754: 14,6627           34607        REJECT3            CAF      LOW9                                  #  DECREMENT POINTER TO REJECT MARK.
000755: 14,6630           70735                           MASK     MARKSTAT
000756: 14,6631           50577                           TS       ITEMP1
000757: 14,6632           45362                           CS       SEVEN
000758: 14,6633           20577                           INDEX    ITEMP1
000759: 14,6634           60052                           AD       QPRET
000760: 14,6635           20577                           INDEX    ITEMP1
000761: 14,6636           50052                           TS       QPRET                                 #  NEW POINTER.
000762:
000763: 14,6637           34503                           CAF      BIT12                                 #  INCREMENT MARKS-TO-BE-ACCEPTED FIELD
000764: 14,6640           60735                           AD       MARKSTAT                              #  AND IF FIELD IS NOW NON-ZERO, CHANGE
000765: 14,6641           30735                           XCH      MARKSTAT                              #  DSKY TO VERB 51 FLASHING TO INDICATE
000766: 14,6642           72261                           MASK     HI5                                   #  MORE MARKS REQUIRED.
000767: 14,6643           10000                           CCS      A
000768: 14,6644           02256                           TC       TASKOVER                              #  (UNTIL BUTTON AVAIL.)
000769: 14,6645           32165                           CAF      PRIO32
000770: 14,6646           02052                           TC       NOVAC
000771: 14,6647           30755                           CADR     REMKVB51
000772: 14,6650           02256                           TC       TASKOVER
000773:


000775:
000776: 14,6651           03302        MARKDISP           TC       GRABDSP                               #  SPECIAL JOB TO DISPLAY UNCALLED-FOR MARK
000777: 14,6652           03310                           TC       PREGBSY
000778:
000779: 14,6653           40115        REMKDSP            CS       MPAC                                  #  THE MPAC REGISTERS CONTIN -OPTX, -OPTY,
000780: 14,6654           50616                           TS       DSPTEM1
000781: 14,6655           40116                           CS       MPAC       +1
000782: 14,6656           50617                           TS       DSPTEM1    +1
000783: 14,6657           40117                           CS       MPAC       +2
000784: 14,6660           50621                           TS       DSPTEM2
000785: 14,6661           35501                           CAF      ZERO
000786: 14,6662           50620                           TS       DSPTEM1    +2
000787:
000788: 14,6663           36672                           CAF      MKDSPCOD                              #  NOUN-VERB FOR MARK DISPLAY.
000789: 14,6664           03100                           TC       NVSUB
000790: 14,6665           06670                           TC       MKDSPBSY                              #  IF BUSY.
000791:
000792: 14,6666           03362        ENDMKDSP           TC       FREEDSP
000793:
000794: 14,6667           02124                           TC       ENDOFJOB
000795:
000796: 14,6670           36673        MKDSPBSY           CAF      LREMKDSP                              #  TAKE DATA OUT OF MPAC WHEN RE-AWAKENED.
000797: 14,6671           03320                           TC       NVSUBUSY
000798:
000799: 14,6672           00656        MKDSPCOD           OCT      00656
000800: 14,6673           30653        LREMKDSP           CADR     REMKDSP
000801:
000802: 14,6674           05720        KEYCALL            TC       POSTJUMP                              #  GO TO KEYBOARD/DISPLAY BANK WITH A
000803: 14,6675           10001                           CADR     KEYRUPTC                              #  GO THRU STANDARD LOC.
000804:
000805: 14,6676           74000        74K                OCT      74000
000806:
000807: 14,6677  14,6406               SCTMARK            EQUALS   SXTMARK
000808:


000810:
000811:                                                                                                  #        KEYBOARD AND DISPLAY ROUTINES FOR MARK PROCEDURES.
000812:
000813:                                                                                                  #        FLASH VERB 51 WHEN WAITING FOR MARKS, CHANGING TO VERB 50 FLASHING WHEN ALL ARE IN.
000814:
000815: 14,6677           36753        MKVB51             CAF      VB51                                  #  ASSUME USING PROGRAM HAS GRABBED DSP.
000816: 14,6700           03100                           TC       NVSUB
000817: 14,6701           03315                           TC       PRENVBSY
000818: 14,6702           05654                           TC       BANKCALL
000819: 14,6703           14000                           CADR     FLASHON
000820: 14,6704           03136                           TC       ENDIDLE
000821: 14,6705           06736                           TC       MKVB5X                                #  DONT RESPOND TO PROCEED OR TERMINATE.
000822: 14,6706           06736                           TC       MKVB5X
000823:
000824: 14,6707           36747                           CAF      OCT76                                 #  ON ENTER, SEE IF DATA LOADED INSTEAD.
000825: 14,6710           70602                           MASK     VERBREG
000826: 14,6711           66714                           AD       -OCT50                                #  VERBS 50 AND 51 CAUSE END MARK ROUTINES.
000827: 14,6712           10000                           CCS      A
000828: 14,6713           06736                           TC       MKVB5X                                #  ON DATA LOAD, RE-DISPLAY ORIGINAL VERB.
000829: 14,6714           77727        -OCT50             OCT      -50
000830: 14,6715           06736                           TC       MKVB5X
000831:
000832: 14,6716           34607                           CAF      LOW9
000833: 14,6717           70735                           MASK     MARKSTAT
000834: 14,6720           50735                           TS       MARKSTAT                              #  VAC ADR IN MARKSTAT AND NO. MARKS MADE
000835: 14,6721           40000                           COM
000836: 14,6722           20735                           INDEX    MARKSTAT                              #  WILL BE LEFT IN QPRET.
000837: 14,6723           60052                           AD       QPRET
000838: 14,6724           25777                           EXTEND
000839: 14,6725           44503                           MP       BIT12
000840: 14,6726           64516                           AD       ONE
000841: 14,6727           20735                           INDEX    MARKSTAT
000842: 14,6730           50052                           TS       QPRET
000843:
000844: 14,6731           20017                           INHINT                                         #  GO SERVICE OPTSTALL INTERFACE WITH
000845: 14,6732           34516                           CAF      ONE                                   #  USING PROGRAM.
000846: 14,6733           02173                           TC       WAITLIST
000847: 14,6734           30744                           CADR     ENDMARKS
000848: 14,6735           02124                           TC       ENDOFJOB
000849:


000851:
000852: 14,6736           32261        MKVB5X             CAF      HI5                                   #  RE-DISPLAY VERB 51 IF MORE MARKS
000853: 14,6737           70735                           MASK     MARKSTAT                              #  WANTED AND VERB 50 IF ALL IN.
000854: 14,6740           10000                           CCS      A
000855: 14,6741           34510                           CAF      BIT7                                  #  (MAKES VERB 51).
000856: 14,6742           66746                           AD       VB50
000857: 14,6743           06700                           TC       MKVB51     +1
000858:
000859: 14,6744           06261        ENDMARKS           TC       ENDOPT
000860: 14,6745           06314                           TC       GOODEND
000861:
000862: 14,6746           05000        VB50               OCT      5000
000863: 14,6747           00076        OCT76              OCT      76
000864:
000865:                                                                                                  #        ON RECEIPT OF LAST REQUESTED MARK, DISPLAY VERB 50 (STILL FLASHING).
000866:
000867: 14,6750           36746        MKVB50             CAF      VB50
000868: 14,6751           50110                           TS       NVTEMP                                #  SPECIAL ENTRY TO NVSUB WHICH AVOIDS BUSY
000869: 14,6752           03105                           TC       NVSUB      +5                         #  TEST.
000870: 14,6753           05100        VB51               OCT      5100
000871: 14,6754           02124                           TC       ENDOFJOB
000872:
000873:                                                                                                  #        IF THE ABOVE IS REJECTED, REVERT TO VERB 51.
000874:
000875: 14,6755           36753        REMKVB51           CAF      VB51
000876: 14,6756           06751                           TC       MKVB50     +1
000877:


000879:
000880:                                                                                                  #        THE FOLLOWING ROUTINE ALLOWS INTERLOCKING OF IMU COMPENSATION AND CERTAIN IMU MODE CHANGES WHICH ARE
000881:                                                                                                  #  MEANINGFUL AFTER THE IMU HAS BEEN ALIGNED. THESE INCLUDE IMUFINNW, IMUATTC, AND IMUREENT.
000882:
000883: 14,6757           20017        TSTIMACT           INHINT                                         #  TEST IMU ACTIVITY BIT TO SEE IF GYROS
000884: 14,6760           30001                           XCH      Q
000885: 14,6761           50117                           TS       MPAC       +2
000886: 14,6762           44504                           CS       BIT11                                 #  BEING TORQUED NOW.
000887: 14,6763           70646                           MASK     FLAGWRD1
000888: 14,6764           64504                           AD       BIT11
000889: 14,6765           30646                           XCH      FLAGWRD1
000890: 14,6766           74504                           MASK     BIT11
000891: 14,6767           10000                           CCS      A
000892: 14,6770           06772                           TC       +2                                    #  IMU BUSY.
000893: 14,6771           00117                           TC       MPAC       +2                         #  CHANNEL AVAILABLE - PROCEED AS USUAL.
000894:
000895: 14,6772           30072                           XCH      BANKTEM                               #  PUT THE JOB TO SLEEP FOR MAX TIME IT
000896: 14,6773           50115                           TS       MPAC                                  #  SHOULD TAKE TO COMPENSATE.
000897: 14,6774           30071                           XCH      TEMQS
000898: 14,6775           50116                           TS       MPAC       +1
000899: 14,6776           36103                           CAF      320MS
000900: 14,6777           02173                           TC       WAITLIST
000901: 14,7000           31003                           CADR     IMACT2
000902: 14,7001           37010                           CAF      LIMUACTW
000903: 14,7002           02127                           TC       JOBSLEEP
000904:
000905:                                                                                                  #        WAKE UP THE JOB AND SETTHE ACTIVITY FLAG.
000906:
000907: 14,7003           37010        IMACT2             CAF      LIMUACTW
000908: 14,7004           02060                           TC       JOBWAKE
000909: 14,7005           03416                           TC       FLAG1UP
000910: 14,7006           02000                           OCT      02000
000911: 14,7007           02256                           TC       TASKOVER
000912:
000913: 14,7010           31011        LIMUACTW           CADR     IMUACTW
000914:
000915: 14,7011           20017        IMUACTW            INHINT
000916: 14,7012           30115                           XCH      MPAC                                  #  PROCEED WITH MODE SWITCH.
000917: 14,7013           50072                           TS       BANKTEM
000918: 14,7014           30116                           XCH      MPAC       +1
000919: 14,7015           50071                           TS       TEMQS
000920: 14,7016           00117                           TC       MPAC       +2

End of include-file MODE_SWITCHING_AND_MARK_ROUTINES.agc.  Parent file is MAIN.agc


