
Source Code


000002:                                                                                                  ## Copyright:   Public domain.
000003:                                                                                                  ## Filename:    ORBITAL_INTEGRATION_PROGRAM.agc
000004:                                                                                                  ## Purpose:     Part of the source code for Solarium build 55. This
000005:                                                                                                  ##              is for the Command Module's (CM) Apollo Guidance
000006:                                                                                                  ##              Computer (AGC), for Apollo 6.
000007:                                                                                                  ## Assembler:   yaYUL --block1
000008:                                                                                                  ## Contact:     Jim Lawton <jim DOT lawton AT gmail DOT com>
000009:                                                                                                  ## Website:     www.ibiblio.org/apollo/index.html
000010:                                                                                                  ## Page Scans:  www.ibiblio.org/apollo/ScansForConversion/Solarium055/
000011:                                                                                                  ## Mod history: 2009-09-22 JL   Created.
000012:                                                                                                  ##              2016-08-20 RSB  Typos.
000013:                                                                                                  ##              2016-12-28 RSB  Proofed comment text using octopus/ProoferComments,
000014:                                                                                                  ##                              and fixed errors found.
000015:


000017:
000018: 23,6000                                           BANK     23
000019:
000020:                                                                                                  #    *** SCALING FACTORS AND ARGUMENTS ***
000021:
000022: 23,6000                        DEL                =        2
000023: 23,6000                        DEL+E              =        2
000024: 23,6000                        2DEL               =        4
000025: 23,6000                        2DEL+E             =        4
000026: 23,6000                        E                  =        0
000027: 23,6000                        RSCALE             =        16D
000028: 23,6000                        VSCALE             =        6
000029: 23,6000                        TSCALE             =        27D
000030: 23,6000                        2VSCALE            =        12D
000031: 23,6000                        4RSCALE            =        64D
000032: 23,6000                        R+VSCALE           =        22D
000033:
000034:                                                                                                  #        FBR3 SETS UP A TIMESTEP CALL TO KEPLER.
000035:
000036: 23,6000           56775        FBR3               TSRT     1
000037: 23,6001           46542                           ROUND    DAD
000038: 23,6002           01265                                    H
000039: 23,6003           00012                                    TSCALE     -18D
000040: 23,6004           01145                                    TC
000041: 23,6005           33261                           STORE    TAU
000042:
000043: 23,6006           64774                           DMP      2
000044: 23,6007           56631                           TSRT     ROUND
000045: 23,6010           70776                           DAD
000046: 23,6011           07431                                    EARTHTAB
000047: 23,6012           01263                                    DT/2
000048: 23,6013           00015                                    12D
000049: 23,6014           01147                                    TET
000050: 23,6015           33147                           STORE    TET
000051:
000052: 23,6016           76776                           ITC      0
000053: 23,6017           06027                                    KEPLER
000054:
000055: 23,6020           76776                           ITC      0
000056: 23,6021           06066                                    KEPLER2
000057:
000058: 23,6022           76776        GETKTIME           ITC      0
000059: 23,6023           06145                                    KTIMEN+1
000060:
000061: 23,6024           76776                           ITC      0
000062: 23,6025           06225                                    KEPLER3
000063:


000065:
000066:                                                                                                  #        THIS ORBITAL KEPLER SUBROUTINE FINDS THE POSITION AND VELOCITY OF THE VEHICLE AFTER TIME FOUND IN
000067:                                                                                                  #  GIVENT  SINCE RECTIFICATION TO POSITION  RRECT  AND VELOCITY  VRECT  . THE RESULTING POSITION AND VELOCITY ARE
000068:                                                                                                  #  LEFT IN  FOUNDR  AND  FOUNDV  , RESPECTIVELY.
000069:
000070: 23,6026           73575        KEPLER             LXA,1    1                                     #  UNIT OF RECTIFICATION POSITION TO 0
000071: 23,6027           67553                           SXA,1    UNIT
000072: 23,6030           00070                                    FIXLOC
000073: 23,6031           00124                                    PUSHLOC
000074: 23,6032           01101                                    RRECT
000075:
000076: 23,6033           63776                           TSLT     0                                     #  AND LENGTH OF ORIGINAL IN 6.
000077: 23,6034           00037                                    30D
000078: 23,6035           00002                                    1
000079:
000080: 23,6036           67173                           VSQ      3                                     #  A4 TO REGISTER 8.
000081: 23,6037           46522                           ROUND    DMP
000082: 23,6040           63732                           TSLT     DSU
000083: 23,6041           63631                           TSLT     ROUND
000084: 23,6042           01107                                    VRECT
000085: 23,6043           00007                                    6                                     #  LENGTH OF POSITION AT RECTIFICATION.
000086: 23,6044           00004                                    2DEL+E     -1
000087: 23,6045           07445                                    DP1/2
000088: 23,6046           00002                                    1
000089:
000090: 23,6047           47573                           NOLOD    3                                     #  ALPHA TO REGISTER 10.
000091: 23,6050           56633                           TSRT     COMP
000092: 23,6051           70672                           DAD      TSRT
000093: 23,6052           62776                           DDV
000094: 23,6053           00002                                    1
000095: 23,6054           07445                                    DP1/2
000096: 23,6055           00004                                    2DEL+E     -1
000097: 23,6056           00007                                    6
000098:
000099: 23,6057           42775                           DOT      1                                     #  A1 TO REGISTER 12.
000100: 23,6060           63631                           TSLT     ROUND
000101: 23,6061           01101                                    RRECT
000102: 23,6062           01107                                    VRECT
000103: 23,6063           00003                                    DEL+E
000104:
000105: 23,6064           40576                           ITCQ     0
000106:


000108:
000109: 23,6065           73175        KEPLER2            UNIT     1
000110: 23,6066           74412                           AXT,2    DOT
000111: 23,6067           01131                                    RCV
000112: 23,6070           00013                                    10D                                   #  SET MAXIMUM ITERATION COUNT TO 10.
000113: 23,6071           01137                                    VCV                                   #  IR/2 . VC IN 14
000114:
000115: 23,6072           63776                           TSLT     0
000116: 23,6073           00037                                    30D
000117: 23,6074           00002                                    1
000118: 23,6075           33255                           STORE    ALPHAM                                #  RC IN ALPHAM.
000119:
000120: 23,6076           56775                           TSRT     1
000121: 23,6077           46512                           ROUND    DDV
000122: 23,6100           01263                                    DT/2
000123: 23,6101           00012                                    TSCALE     -18D
000124: 23,6102           01255                                    ALPHAM                                #  Q IN 16.
000125:
000126: 23,6103           56772                           TSRT     4
000127: 23,6104           62732                           DDV      DSU
000128: 23,6105           55666                           DMPR     DMPR
000129: 23,6106           55661                           DMPR     AST,2
000130: 23,6107           63776                           TSLT
000131: 23,6110           07445                                    DP1/2
000132: 23,6111           00004                                    2DEL+E     -1
000133: 23,6112           01255                                    ALPHAM
000134: 23,6113           00013                                    10D                                   #  1/4RC - ALPHA
000135: 23,6114           00021                                    16D                                   #  Q (  )
000136: 23,6115           00021                                    16D                                   #  Q Q (  )
000137: 23,6116           06306                                    DP1/3
000138: 23,6117           00002                                    1
000139: 23,6120           00011                                    2DEL       +4
000140:
000141: 23,6121           55775                           DMPR     1
000142: 23,6122           63776                           TSLT
000143: 23,6123           00017                                    14D
000144: 23,6124           00021                                    16D
000145: 23,6125           00006                                    DEL        +3
000146:
000147: 23,6126           47572                           NOLOD    4
000148: 23,6127           65666                           BDSU     DMPR
000149: 23,6130           65732                           BDSU     DSU
000150: 23,6131           64716                           DMP      TSLT
000151: 23,6132           46542                           ROUND    DAD
000152: 23,6133           07445                                    DP1/2
000153: 23,6134           77777                                    -                                     #  20
000154: 23,6135           07445                                    DP1/2
000155: 23,6136           77777                                    -                                     #  18
000156: 23,6137           77777                                    -                                     #  16
000157: 23,6140           00002                                    1
000158: 23,6141           01151                                    XKEP


000160: 23,6142           33151                           STORE    XKEP
000161:
000162: 23,6143           40576                           ITCQ     0
000163:


000165:
000166:                                                                                                  #  ITERATING EQUATIONS - GIVEN X IN MPAC AND 14D, FIND TIME OF FLIGHT.
000167:
000168:
000169:
000170: 23,6144           47571        KTIMEN+1           NOLOD    5                                     #  FORM ALPHA X-SQUARED AND CALL S AND C.
000171: 23,6145           51031                           DSQ      ROUND
000172: 23,6146           64716                           DMP      TSLT
000173: 23,6147           46555                           ROUND    LXA,1                                 #  AND SET PD INDICATOR TO 16 AS WELL.
000174: 23,6150           63535                           INCR,1   SXA,1
000175: 23,6151           45572                           ITA      ITC
000176: 23,6152           00013                                    10D                                   #  ALPHA
000177: 23,6153           00005                                    2DEL
000178: 23,6154           00070                                    FIXLOC
000179: 23,6155           00021                                    16D
000180: 23,6156           00124                                    PUSHLOC
000181: 23,6157           01273                                    GMODE
000182: 23,6160           06312                                    S(X)C(X)
000183:
000184: 23,6161           47572                           NOLOD    4                                     #  S RETURNS IN MPAC, C ON TOP OF PDL.
000185: 23,6162           64716                           DMP      TSLT
000186: 23,6163           64716                           DMP      TSLT
000187: 23,6164           64716                           DMP      TSLT
000188: 23,6165           46576                           ROUND
000189: 23,6166           01151                                    XKEP
000190: 23,6167           00005                                    4
000191: 23,6170           01151                                    XKEP
000192: 23,6171           00002                                    E          +1
000193: 23,6172           01151                                    XKEP
000194: 23,6173           00002                                    1
000195: 23,6174           32030                           STORE    23D                                   #  A3.
000196:
000197: 23,6175           47575                           NOLOD    1
000198: 23,6176           55776                           DMPR
000199: 23,6177           00011                                    8D
000200:
000201: 23,6200           64774                           DMP      2
000202: 23,6201           63722                           TSLT     DMP
000203: 23,6202           63631                           TSLT     ROUND
000204: 23,6203           01151                                    XKEP
000205: 23,6204           00021                                    16D                                   #  VALUE OF C.
000206: 23,6205           00006                                    5
000207: 23,6206           01151                                    XKEP
000208: 23,6207           00003                                    E          +2
000209: 23,6210           32026                           STORE    21D                                   #  A2.
000210:
000211: 23,6211           47574                           NOLOD    2
000212: 23,6212           64672                           DMP      TSRT
000213: 23,6213           46542                           ROUND    DAD
000214: 23,6214           00015                                    12D                                   #  A1.
000215: 23,6215           00003                                    2


000217: 23,6216           55775                           DMPR     1
000218: 23,6217           70776                           DAD
000219: 23,6220           00007                                    6
000220: 23,6221           01151                                    XKEP                                  #  COMPUTED TIME TO PD+18.
000221:
000222: 23,6222           44576                           ITCI     0
000223: 23,6223           01273                                    GMODE
000224:
000225: 23,6224           47575        KEPLER3            NOLOD    1                                     #  COMPARE COMPUTED TIME WITH GIVEN TIME.
000226: 23,6225           65776                           BDSU
000227: 23,6226           01261                                    GIVENT
000228: 23,6227           32021                           STORE    16D                                   #  DIFFERENCE TO REGISTER 16.
000229:
000230: 23,6230           77576                           EXIT     0                                     #  FOR DUMP ONLY  **************
000231: 23,6231           04000        DUMPDUMP           TC       INTPRET
000232:
000233: 23,6232           47573                           NOLOD    3
000234: 23,6233           65132                           ABS      DSU
000235: 23,6234           73641                           BMN      TIX,2
000236: 23,6235           76776                           ITC
000237: 23,6236           06300                                    KEPSILON                              #  SEE IF WITHIN EPSILON OF GIVEN TIME.
000238: 23,6237           06407                                    GETRANDV                              #  IF SO, GET R AND V AND EXIT.
000239:
000240: 23,6240           06243                                    GETNEWX
000241: 23,6241           06407                                    GETRANDV
000242:
000243: 23,6242           64772        GETNEWX            DMP      4
000244: 23,6243           63631                           TSLT     ROUND
000245: 23,6244           65722                           BDSU     DMP
000246: 23,6245           53514                           AXC,1    TSLT*
000247: 23,6246           46576                           ROUND
000248: 23,6247           00013                                    10D                                   #  ALPHA
000249: 23,6250           00030                                    23D                                   #  A3
000250: 23,6251           00005                                    2DEL+E
000251: 23,6252           01151                                    XKEP
000252: 23,6253           00015                                    12D                                   #  A1
000253: 23,6254           00004                                    E          -3
000254: 23,6255           00001                                    0,1
000255: 23,6256           32023                           STORE    18D
000256:
000257: 23,6257           64774                           DMP      2
000258: 23,6260           63631                           TSLT     ROUND
000259: 23,6261           70742                           DAD      DAD
000260: 23,6262           00026                                    21D                                   #  A2
000261: 23,6263           00011                                    8D                                    #  A4
000262: 23,6264           00002                                    1
000263: 23,6265           77777                                    -
000264: 23,6266           00007                                    6                                     #  R0
000265:
000266: 23,6267           62775                           DDV      1


000268: 23,6270           70776                           DAD
000269: 23,6271           00021                                    16D
000270: 23,6272           00023                                    18D
000271: 23,6273           01151                                    XKEP
000272: 23,6274           33151                           STORE    XKEP
000273:
000274: 23,6275           76776                           ITC      0
000275: 23,6276           06023                                    GETKTIME
000276:


000278:
000279:                                                                                                  #  CONSTANTS.
000280:
000281: 23,6277           00000        KEPSILON           OCT      00000
000282: 23,6300           00002                           OCT      00002
000283: 23,6301           14000 00000  THREE/8            2DEC     .375
000284: 23,6303           10000 00000  DP1/4              2DEC     .25
000285: 23,6305           12525 12525  DP1/3              2DEC     .333333333
000286: 23,6307  23,6303               DQUARTER           EQUALS   DP1/4
000287: 23,6307           02000 00000  POS1/16            2DEC     .0625
000288: 23,6311  23,6303               POS1/4             EQUALS   DP1/4
000289: 23,6311  23,6301               3/8                EQUALS   THREE/8
000290:


000292:
000293:                                                                                                  #        SUBROUTINE FOR COMPUTING THE UNIVERSAL CONIC FUNCTIONS S(X) AND C(X). THE ACTUAL OUTPUT OF THIS ROUTINE
000294:                                                                                                  #  CONSISTS OF SCALED VERSIONS DEFINED AS FOLLOWS:
000295:
000296:                                                                                                  #                        S (X) = S(64X)                  C (X) = C(64X)/4
000297:                                                                                                  #                         S                               S
000298:
000299:                                                                                                  #        IT IS ASSUMED THAT THE INPUT ARRIVES IN MPAC,MPAC+1, AND THAT IT LIES BETWEEN -30/64 AND 40/64. UPON
000300:                                                                                                  #  EXIT, S(X) WILL BE LEFT IN MPAC,MPAC+1 AND C(X) ON TOP OF THE PUSHDOWN LIST.
000301:
000302:
000303:
000304: 23,6311           47576        S(X)C(X)           NOLOD    0                                     #  SAVE ARGUMENT
000305: 23,6312           32033                           STORE    XSTOREX
000306:
000307: 23,6313           47574                           NOLOD    2                                     #           2
000308: 23,6314           76443                           RTB      DSQ                                   #  COMPUTE A (X)
000309: 23,6315           46576                           ROUND
000310: 23,6316           06351                                    A(X)
000311: 23,6317           32031                           STORE    ASQ
000312:
000313: 23,6320           47573                           NOLOD    3                                     #         2          2
000314: 23,6321           64716                           DMP      TSLT                                  #  C (X)=A (.25 - 2XA ) TO PUSHDOWN LIST
000315: 23,6322           46526                           ROUND    BDSU                                  #   S
000316: 23,6323           55776                           DMPR
000317: 23,6324           00033                                    XSTOREX
000318: 23,6325           00002                                    1
000319: 23,6326           06304                                    POS1/4
000320: 23,6327           00031                                    ASQ
000321:
000322: 23,6330           56775                           TSRT     1                                     #   2
000323: 23,6331           46576                           ROUND                                          #  A /4 TO PUSHDOWN LIST
000324: 23,6332           00031                                    ASQ
000325: 23,6333           00003                                    2
000326:
000327: 23,6334           45174                           DMOVE    2                                     #   2
000328: 23,6335           76443                           RTB      DSQ                                   #  B  TO PUSHDOWN LIST
000329: 23,6336           46576                           ROUND
000330: 23,6337           00033                                    XSTOREX
000331: 23,6340           06370                                    B(X)
000332:
000333: 23,6341           55774                           DMPR     2                                     #               2        2    2
000334: 23,6342           65666                           BDSU     DMPR                                  #  LEAVE S (X)=B (.0625-A X)+A /4 IN MPAC
000335: 23,6343           70601                           DAD      ITCQ                                  #         S
000336: 23,6344           00033                                    XSTOREX
000337: 23,6345           00031                                    ASQ
000338: 23,6346           06310                                    POS1/16
000339:
000340: 23,6347                        XSTOREX            =        26D
000341: 23,6347                        ASQ                =        24D
000342: 23,6347           70707                           OCT      70707                                 #  THIS HAS TO BE NEGATIVE TO TERMINATE EQN
000343:


000345:
000346: 23,6350           05554        A(X)               TC       POLY                                  #  A AND B POLYNOMIALS WHOSE COEFFICI-
000347:
000348: 23,6351           00012                           DEC      10         B-14                       #    ENTS WERE OBTAINED WITH THE *AUTO-
000349:
000350: 23,6352           26501 07463                     2DEC     7.071067810 E-1                        #    CURVEFIT* PROGRAM
000351: 23,6354           60724 60210                     2DEC     -4.714045180 E-1
000352: 23,6356           03010 26256                     2DEC     9.42808914 E-2
000353: 23,6360           77554 74242                     2DEC     -8.9791893 E-3
000354: 23,6362           00010 05475                     2DEC     4.989987   E-4
000355: 23,6364           77777 66460                     2DEC     -1.79357   E-5
000356:
000357: 23,6366           04024                           TC       DANZIG                                #  RE-ENTER INTERPRETER
000358:
000359:
000360:
000361: 23,6367           05554        B(X)               TC       POLY
000362:
000363: 23,6370           00012                           DEC      10         B-14
000364:
000365: 23,6371           32101 17270                     2DEC     8.164965793 E-1
000366: 23,6373           65431 40174                     2DEC     -3.265986572 E-1
000367: 23,6375           01710 10660                     2DEC     5.90988980 E-2
000368: 23,6377           77676 52270                     2DEC     -4.0085592 E-3
000369: 23,6401           00004 21652                     2DEC     2.781528   E-4
000370: 23,6403           77777 71323                     2DEC     -1.25610   E-5
000371:
000372: 23,6405           04024                           TC       DANZIG                                #  RETURN AS BEFORE
000373:


000375:
000376:                                                                                                  #  ROUTINE FOR OBTAINING R AND V, NOW THAT THE PROPER X HAS BEEN FOUND.
000377:
000378:
000379:
000380: 23,6406           73574        GETRANDV           LXA,1    2
000381: 23,6407           63535                           INCR,1   SXA,1
000382: 23,6410           47166                           COMP     VXSC
000383: 23,6411           00070                                    FIXLOC
000384: 23,6412           00032                                    25D
000385: 23,6413           00124                                    PUSHLOC
000386: 23,6414           00026                                    21D                                   #  AZ FROM LAST ITERATION.
000387: 23,6415           00001                                    0                                     #  UNIT OF GIVEN POSITION VECTOR.
000388:
000389: 23,6416           66774                           DSU      2
000390: 23,6417           63766                           TSLT     VXSC
000391: 23,6420           50622                           VAD      VSLT
000392: 23,6421           00023                                    18D                                   #  LAST VALUE OF T.
000393: 23,6422           00030                                    23D                                   #  LAST VALUE OF A3.
000394: 23,6423           00004                                    DEL        +1
000395: 23,6424           01107                                    VRECT
000396: 23,6425           77777                                    -
000397: 23,6426           00002                                    1
000398:
000399: 23,6427           47575                           NOLOD    1                                     #  ADDITION MUST BE DONE IN THIS ORDER.
000400: 23,6430           50642                           VAD      VAD
000401: 23,6431           01101                                    RRECT
000402: 23,6432           33131                           STORE    FOUNDR                                #  RESULTING CONIC POSITION.
000403:
000404: 23,6433           47575                           NOLOD    1                                     #  LENGTH OF ABOVE TO PD+16.
000405: 23,6434           71116                           ABVAL    TSLT
000406: 23,6435           00002                                    1
000407: 23,6436           32021                           STORE    16D
000408:
000409: 23,6437           64772                           DMP      4
000410: 23,6440           63631                           TSLT     ROUND
000411: 23,6441           66672                           DSU      TSRT
000412: 23,6442           62766                           DDV      VXSC
000413: 23,6443           44776                           VSLT
000414: 23,6444           00013                                    10D                                   #  ALPHA.
000415: 23,6445           00030                                    23D                                   #  A3
000416: 23,6446           00005                                    2DEL+E
000417: 23,6447           01151                                    XKEP
000418: 23,6450           00003                                    DEL+E
000419: 23,6451           00021                                    16D                                   #  LENGTH OF FOUND POSITION.
000420: 23,6452           00001                                    0                                     #  UNIT OF RECTIFICATION POSITION.
000421: 23,6453           00004                                    3
000422: 23,6454           56773                           TSRT     3
000423: 23,6455           66712                           DSU      DDV
000424: 23,6456           75642                           VXSC     VAD
000425: 23,6457           44776                           VSLT


000427: 23,6460           00021                                    16D
000428: 23,6461           00002                                    1
000429: 23,6462           00026                                    21D
000430: 23,6463           00021                                    16D
000431: 23,6464           01107                                    VRECT
000432: 23,6465           77777                                    -
000433: 23,6466           00002                                    1
000434: 23,6467           33137                           STORE    FOUNDV                                #  THIS COMPLETES THE CALCULATION.
000435:
000436: 23,6470           44576                           ITCI     0
000437: 23,6471           01272                                    HBRANCH
000438:


000440:
000441:                                                                                                  #        THE POSTRUE ROUTINES SET UP THE BETA VECTOR AND OTHER INITIAL CONDITIONS FOR THE NEXT ACCOMP.
000442:
000443:
000444:
000445: 23,6472           73573        POSTRUE            LXA,1    3
000446: 23,6473           67426                           SXA,1    VSRT
000447: 23,6474           50751                           VAD      LXA,2
000448: 23,6475           73535                           LXA,1    SXA,1
000449: 23,6476           01312                                    SCALDELT                              #  SETS UP SCALE A.
000450: 23,6477           01307                                    SCALEA
000451: 23,6500           01153                                    ALPHAV
000452: 23,6501           00015                                    RSCALE     -4
000453: 23,6502           01131                                    RCV                                   #  POSITION OUTPUT OF KEPLER.
000454: 23,6503           01306                                    DIFEQCNT
000455: 23,6504           01313                                    SCALER
000456: 23,6505           01310                                    SCALEB                                #  SET UP SCALE B AND G MODE.
000457: 23,6506           33161                           STORE    BETAV
000458:
000459: 23,6507           67776                           BHIZ     0
000460: 23,6510           01304                                    WMATFLAG                              #  TEST W MATRIX FLAG.
000461: 23,6511           06516                                    ACCOMP
000462:
000463: 23,6512           75176                           VMOVE    0
000464: 23,6513           01161                                    BETAV
000465: 23,6514           36422                           STORE    VECTAB,2                              #  SAVE R/PV IN VECTAB FOR W MATRIX UPDATE.
000466:


000468:
000469:                                                                                                  #  AGC ROUTINE TO COMPUTE ACCELERATION COMPONENTS.
000470:
000471:
000472:
000473: 23,6515           73176        ACCOMP             UNIT     0                                     #  UNITIZE ALPHA VECTOR
000474: 23,6516           01153                                    ALPHAV
000475: 23,6517           33153                           STORE    ALPHAV
000476:
000477: 23,6520           45176                           DMOVE    0                                     #  SAVE LENGTH OF ALPHA VECTOR
000478: 23,6521           00037                                    30D
000479: 23,6522           33255                           STORE    ALPHAM
000480:
000481: 23,6523           72776                           STZ      0
000482: 23,6524           00123                                    OVFIND
000483:
000484: 23,6525           45773        ACCOMP2            VSRT     3                                     #          2
000485: 23,6526           67155                           VSQ      LXA,1                                 #  NORMED B  TO PD.
000486: 23,6527           67476                           SXA,1    TSLC
000487: 23,6530           46576                           ROUND
000488: 23,6531           01161                                    BETAV
000489: 23,6532           00002                                    1
000490: 23,6533           00070                                    FIXLOC
000491: 23,6534           00124                                    PUSHLOC
000492: 23,6535           00051                                    S1
000493:
000494: 23,6536           57775                           TSLC     1                                     #  NORMALIZE (LESS ONE) LENGTH OF ALPHA
000495: 23,6537           56776                           TSRT                                           #    SAVING NORM. SCALE FACTOR IN X1
000496: 23,6540           01255                                    ALPHAM
000497: 23,6541           00047                                    X1
000498: 23,6542           00002                                    1                                     #   C(PDL+2)= ALMOST NORMED ALPHAM
000499:
000500: 23,6543           73176                           UNIT     0                                     #  SAME PROCEDURE FOR BETA VECTOR
000501: 23,6544           01161                                    BETAV
000502: 23,6545           33161                           STORE    BETAV
000503:
000504: 23,6546           45176                           DMOVE    0
000505: 23,6547           00037                                    30D
000506: 23,6550           33257                           STORE    BETAM
000507:
000508: 23,6551           47574                           NOLOD    2
000509: 23,6552           57706                           TSLC     BDDV                                  #  FORM NORMALIZED QUOTIENT ALPHAM/BETAM
000510: 23,6553           56631                           TSRT     ROUND
000511: 23,6554           00050                                    X2
000512: 23,6555           77777                                    -
000513: 23,6556           00002                                    1                                     #  C(PDL +2) = ALMOST NORMALIZED RHO.


000515: 23,6557           70573                           LXC,2    3                                     #  C(X2) = -SCALE(RHO) + 1.
000516: 23,6560           60501                           XAD,2    XAD,2                                 #        = -S(B)-N(B)+S(A)+N(A)+1
000517: 23,6561           56511                           XSU,2    INCR,2
000518: 23,6562           47470                           NOLOD    TSRT*
000519: 23,6563           00050                                    X2
000520: 23,6564           01307                                    SCALEA
000521: 23,6565           00047                                    X1
000522: 23,6566           01310                                    SCALEB
000523: 23,6567           00003                                    2
000524: 23,6570           00002                                    0,2
000525:
000526: 23,6571           47575                           NOLOD    1                                     #  RHO/4 PD +6
000527: 23,6572           56631                           TSRT     ROUND
000528: 23,6573           00003                                    2
000529:
000530: 23,6574           42774                           DOT      2
000531: 23,6575           63631                           TSLT     ROUND                                 #   (RHO/4)- 2 (ALPHAV/2.BETAV/2)
000532: 23,6576           65776                           BDSU                                           #               TO PDL +6
000533: 23,6577           01153                                    ALPHAV
000534: 23,6600           01161                                    BETAV
000535: 23,6601           00002                                    1
000536:
000537: 23,6602           47575                           NOLOD    1                                     #  Q/4 = RHO(C(PDL +4)) TO PD +8D
000538: 23,6603           55776                           DMPR
000539: 23,6604           00005                                    4
000540:
000541: 23,6605           47575                           NOLOD    1                                     #  (Q + 1)/4 TO PD +10D.
000542: 23,6606           70776                           DAD
000543: 23,6607           06304                                    DQUARTER
000544:
000545: 23,6610           47575                           NOLOD    1                                     #             3/2
000546: 23,6611           53066                           SQRT     DMPR                                  #  ((Q + 1)/4)    TO PD +12D.
000547: 23,6612           00013                                    10D
000548:
000549: 23,6613           47575                           NOLOD    1                                     #                      3/2
000550: 23,6614           63742                           TSLT     DAD                                   #  (1/4) + 2((Q + 1)/4)    TO PD +14D.
000551: 23,6615           00002                                    1
000552: 23,6616           06304                                    DQUARTER


000554: 23,6617           70773                           DAD      3                                     #                 -
000555: 23,6620           55716                           DMPR     TSLT                                  #  (G/2)(C(PD +4))B/2 TO PD +16D.
000556: 23,6621           70712                           DAD      DDV
000557: 23,6622           55766                           DMPR     VXSC
000558: 23,6623           00013                                    10D
000559: 23,6624           07445                                    DP1/2
000560: 23,6625           00011                                    8D
000561: 23,6626           00002                                    1
000562: 23,6627           06302                                    THREE/8
000563: 23,6630           00017                                    14D
000564: 23,6631           00007                                    6
000565: 23,6632           01161                                    BETAV
000566:
000567: 23,6633           45775                           VSRT     1                                     #  A12 + C(PD +16D) TO PD +16D.
000568: 23,6634           50776                           VAD
000569: 23,6635           01153                                    ALPHAV
000570: 23,6636           00004                                    3
000571:
000572: 23,6637           64771                           DMP      5                                     #  -
000573: 23,6640           57631                           TSLC     ROUND                                 #  GAMMA TO PD +22D, -SCALE(GAMMA)-1 TO
000574: 23,6641           61745                           BDDV     LXC,1                                 #  X1.
000575: 23,6642           61505                           XAD,1    XAD,1
000576: 23,6643           61505                           XAD,1    XAD,1
000577: 23,6644           47166                           COMP     VXSC
000578: 23,6645           00001                                    0
000579: 23,6646           00015                                    12D
000580: 23,6647           00052                                    S2
000581: 23,6650           00003                                    2
000582: 23,6651           00050                                    X2                                    #  C(X2) = SCALE (RHO).
000583: 23,6652           00052                                    S2                                    #  C(S2) = N((B.B/4)(...)3/2)
000584: 23,6653           00051                                    S1                                    #  C(S1) = N(B.B/4)
000585: 23,6654           01310                                    SCALEB
000586: 23,6655           01310                                    SCALEB
000587: 23,6656           00021                                    16D                                   #  RESULT OF PRECEDING EQUATION.
000588:
000589: 23,6657           47575                           NOLOD    1                                     #  -SCALE(GAMMA)-1 IS LEFT IN X1.
000590: 23,6660           44376                           VSLT*                                          #  ADJUST GAMMA TO SCALE OF -32.
000591: 23,6661           00077                                    31D,1
000592: 23,6662           33203                           STORE    FV
000593:
000594: 23,6663           75176                           VMOVE    0
000595: 23,6664           01161                                    BETAV
000596: 23,6665           33153                           STORE    ALPHAV                                #  BETA VECTOR INTO ALPHA FOR NEXT ACCOMP.
000597:
000598: 23,6666           45176                           DMOVE    0
000599: 23,6667           01257                                    BETAM
000600: 23,6670           33255                           STORE    ALPHAM


000602:
000603:                                                                                                  #        THE  OBLATE  ROUTINE COMPUTES THE ACCELERATION DUE THE THE EARTHS OBLATENESS. IT USES THE UNIT OF THE
000604:                                                                                                  #  VEHICLE POSITION VECTOR FOUND IN ALPHAV AND THE DISTANCE TO THE CENTER OF THE EARTH IN ALPHAM. THIS IS ADDED TO
000605:                                                                                                  #  THE SUM OF THE DISTURBING ACCELERATIONS IN FV AND THE PROPER DIFEQ STAGE IS CALLED VIA X1.
000606:
000607:
000608:
000609: 23,6671           73575        OBLATE             LXA,1    1
000610: 23,6672           67516                           SXA,1    TSLT
000611: 23,6673           00070                                    FIXLOC                                #  SET PUSH-DOWN COUNTER TO ZERO.
000612: 23,6674           00124                                    PUSHLOC
000613: 23,6675           01255                                    ALPHAM
000614: 23,6676           00002                                    1
000615: 23,6677           33255                           STORE    ALPHAM
000616:
000617: 23,6700           55776                           DMPR     0                                     #  P2'/8 TO REGISTER 0.
000618: 23,6701           01157                                    ALPHAV     +4                         #  Z COMPONENT OF POSITION IS COS PHI.
000619: 23,6702           07435                                    3/4
000620:
000621: 23,6703           51174                           DSQ      2                                     #  P3'/4 TO REGISTER 2.
000622: 23,6704           63666                           TSLT     DMPR
000623: 23,6705           66776                           DSU
000624: 23,6706           01157                                    ALPHAV     +4
000625: 23,6707           00004                                    3
000626: 23,6710           07433                                    15/16
000627: 23,6711           06302                                    3/8
000628:
000629: 23,6712           47574                           NOLOD    2                                     #  P4'/16 TO REGISTER 4.
000630: 23,6713           55666                           DMPR     DMPR
000631: 23,6714           63776                           TSLT
000632: 23,6715           01157                                    ALPHAV     +4
000633: 23,6716           07211                                    7/12
000634: 23,6717           00002                                    1                                     #  TO STACK.
000635:
000636: 23,6720           55775                           DMPR     1                                     #  FINISH P4'/16.
000637: 23,6721           65776                           BDSU
000638: 23,6722           00001                                    P2'/8
000639: 23,6723           07231                                    2/3
000640:
000641: 23,6724           47575                           NOLOD    1                                     #  BEGIN COMPUTING P5'/128.
000642: 23,6725           55666                           DMPR     DMPR
000643: 23,6726           01157                                    ALPHAV     +4
000644: 23,6727           07213                                    9/16


000646: 23,6730           55770                           DMPR     6                                     #  FINISH P5'/128 AND TERM USING UNIT
000647: 23,6731           65722                           BDSU     DMP                                   #  POSITION VECTOR AT ALPHA.
000648: 23,6732           63672                           TSLT     TSRT
000649: 23,6733           62742                           DDV      DAD
000650: 23,6734           55672                           DMPR     TSRT
000651: 23,6735           62742                           DDV      DAD
000652: 23,6736           75776                           VXSC
000653: 23,6737           00003                                    P3'/4
000654: 23,6740           07215                                    5/128
000655: 23,6741           77777                                    -
000656: 23,6742           07443                                    J4REQ/J3
000657: 23,6743           00003                                    2
000658: 23,6744           00003                                    RSCALE     -14D
000659: 23,6745           01255                                    ALPHAM
000660: 23,6746           00005                                    P4'/16
000661: 23,6747           07441                                    2J3RE/J2
000662: 23,6750           00003                                    RSCALE     -14D
000663: 23,6751           01255                                    ALPHAM
000664: 23,6752           00003                                    P3'/4
000665: 23,6753           01153                                    ALPHAV
000666: 23,6754           33153                           STORE    ALPHAV
000667:
000668: 23,6755           64774                           DMP      2                                     #  COMPUTE TERM USING IZ.
000669: 23,6756           63672                           TSLT     TSRT
000670: 23,6757           62742                           DDV      DAD
000671: 23,6760           07443                                    J4REQ/J3
000672: 23,6761           77777                                    -
000673: 23,6762           00002                                    1
000674: 23,6763           00003                                    RSCALE     -14D
000675: 23,6764           01255                                    ALPHAM


000677: 23,6765           56774                           TSRT     2
000678: 23,6766           55712                           DMPR     DDV
000679: 23,6767           70726                           DAD      BDSU
000680: 23,6770           07441                                    2J3RE/J2
000681: 23,6771           00006                                    RSCALE     -11D
000682: 23,6772           77777                                    -
000683: 23,6773           01255                                    ALPHAM
000684: 23,6774           77777                                    -
000685: 23,6775           01157                                    ALPHAV     +4
000686: 23,6776           33157                           STORE    ALPHAV     +4
000687:
000688: 23,6777           51172                           DSQ      4
000689: 23,7000           51076                           DSQ      TSLC
000690: 23,7001           61766                           BDDV     VXSC
000691: 23,7002           63420                           INCR,1   VSLT*                                 #  SHIFTS LEFT ON+, RIGHT ON -.
000692: 23,7003           50776                           VAD
000693: 23,7004           01255                                    ALPHAM
000694: 23,7005           00047                                    X1
000695: 23,7006           07437                                    J2REQSQ
000696: 23,7007           01153                                    ALPHAV
000697: 23,7010           00015                                    4RSCALE    -52D
000698: 23,7011           00001                                    0,1
000699: 23,7012           01203                                    FV
000700: 23,7013           33203                           STORE    FV


000702:
000703:                                                                                                  #        THE DRAG ROUTINE IS AN INSERTION TO THE OBLATE ROUTINE. IT USES
000704:                                                                                                  #  THE VEHICLE POSITION VECTOR FOUND IN RCV. THE DISTANCE TO THE CENTER OF
000705:                                                                                                  #  THE EARTH IN ALPHAM, AND THE VEHICLE VELOCITY VECTOR IN VCV.
000706:
000707:                                                                                                  #        IT APPROXIMATES THE U.S. STD ATMOSPHERE 1962 (OVER THE RANGE OF
000708:                                                                                                  #  100 TO 300 KM ABOVE SEA LEVEL) WITH AN EQUATION OF THE FORM
000709:                                                                                                  #                                              2      3      4  4
000710:                                                                                                  #                RHO = BASERHO /((1 +C1 X +C2 X  +C3 X  +C4 X )  ).
000711:
000712:                                                                                                  #        IT ASSUMES THE VEHICLE MASS TO BE THAT EXPECTED AFTER THE
000713:                                                                                                  #  FIFTH SPS BURN.
000714:
000715:
000716: 23,7014           56774        DENSITY            TSRT     2                                     #  IF THE ALTITUDE IS GREATER THAN THE
000717: 23,7015           66616                           DSU      BPL                                   #        CEILING ALTITUDE, DENCEIL (300 KM),
000718: 23,7016           76776                           ITC                                            #        SKIP THE DRAG CALCULATIONS AND GO
000719: 23,7017           07475                                    DENCEIL                               #        TO NBRANCH.
000720: 23,7020           00003                                    RSCALE     -14D
000721: 23,7021           01255                                    ALPHAM
000722: 23,7022           07025                                    DENSITY1
000723: 23,7023           07104                                    NBRANCH
000724:
000725: 23,7024           56774        DENSITY1           TSRT     2                                     #  NORMALIZE ALTITUDE FOR AIR DENSITY
000726: 23,7025           65716                           BDSU     TSLT                                  #        FUNCTION SO THAT IT RANGES FROM
000727: 23,7026           62716                           DDV      TSLT                                  #        0 TO 1 OVER THE ALTITUDES OF 100 KM
000728: 23,7027           07447                                    DENBASE                               #        TO 300 KM RELATIVE TO THE REFERENCE
000729: 23,7030           00003                                    RSCALE     -14D                       #        SPHERE AND STORE IN DENALT.
000730: 23,7031           01255                                    ALPHAM
000731: 23,7032           00007                                    6
000732: 23,7033           07451                                    DENFACT
000733: 23,7034           00003                                    RSCALE     -14D
000734: 23,7035           32033                           STORE    DENALT
000735:
000736: 23,7036           47567        DRAG1              NOLOD    7                                     #  CALCULATE SCALAR PART OF DRAG, I.E.,
000737: 23,7037           64742                           DMP      DAD                                   #        ((RHO)(AREA)(DRAG COEFF))/MASS.
000738: 23,7040           64742                           DMP      DAD
000739: 23,7041           64742                           DMP      DAD                                   #        LEAVE IN PDL AS D. P. NUMBER
000740: 23,7042           64742                           DMP      DAD
000741: 23,7043           63643                           TSLT     DSQ
000742: 23,7044           51116                           DSQ      TSLT
000743: 23,7045           61776                           BDDV
000744: 23,7046           07453                                    DEN4
000745: 23,7047           07455                                    DEN3
000746: 23,7050           00033                                    DENALT
000747: 23,7051           07457                                    DEN2
000748: 23,7052           00033                                    DENALT
000749: 23,7053           07461                                    DEN1
000750: 23,7054           00033                                    DENALT
000751: 23,7055           07463                                    DEN0
000752: 23,7056           00002                                    1


000754: 23,7057           00003                                    2
000755: 23,7060           07465                                    PACD/M
000756: 23,7061           41774        DRAG2              VXV      2
000757: 23,7062           75420                           AXT,1    VSLT*
000758: 23,7063           74776                           VSU
000759: 23,7064           07467                                    OMEGA
000760: 23,7065           01131                                    RCV
000761: 23,7066           00030                                    23D
000762: 23,7067           00055                                    R+VSCALE,1
000763: 23,7070           01137                                    VCV
000764: 23,7071           47573                           NOLOD    3
000765: 23,7072           71166                           ABVAL    VXSC
000766: 23,7073           75765                           VXSC     AXT,1
000767: 23,7074           44242                           VSLT*    VAD
000768: 23,7075           77777                                    -                                     #  (-1/2)(ABVAL(-V))(V)
000769: 23,7076           77777                                    -                                     #                            -   -
000770: 23,7077           00002                                    1                                     #  (-1/2)(RHO A CD/M)(ABVAL(-V))(V)
000771: 23,7100           00001                                    2VSCALE    -12D,1
000772: 23,7101           01203                                    FV
000773: 23,7102           33203                           STORE    FV                                    #  SUM OF PERTURB ACCELERATIONS
000774: 23,7103           73575        NBRANCH            LXA,1    1
000775: 23,7104           76376                           ITC*
000776: 23,7105           01306                                    DIFEQCNT
000777: 23,7106           16405                                    DIFEQ,1
000778:


000780:
000781:                                                                                                  #        BEGIN INTEGRATION STEP WITH RECTIFICATION TEST.
000782:
000783:
000784:
000785: 23,7107           71174        TIMESTEP           ABVAL    2                                     #  RECTIFICATION REQUIRED IF THE LENGTH OF
000786: 23,7110           66756                           DSU      BMN                                   #  DELTA IS GREATER THAN .5 (8 KM).
000787: 23,7111           76776                           ITC
000788: 23,7112           01115                                    YV
000789: 23,7113           06304                                    DP1/4
000790: 23,7114           07117                                    INTGRATE
000791: 23,7115           07144                                    RECTIFY                               #  CALL RECTIFICATION SUBROUTINE.
000792:
000793: 23,7116           75573        INTGRATE           AXT,1    3                                     #  INITIALIZE INDEXES AND SWITCHES.
000794: 23,7117           67565                           SXA,1    AXT,1
000795: 23,7120           67415                           SXA,1    TEST
000796: 23,7121           42576                           SWITCH
000797: 23,7122           06001                                    FBR3
000798: 23,7123           01271                                    FBRANCH                               #  EXIT FROM DIFEQCOM
000799: 23,7124           06473                                    POSTRUE
000800: 23,7125           01272                                    HBRANCH                               #  EXIT FROM KEPLER.
000801: 23,7126           00002                                    JSWITCH                               #  0 FOR STATE VECTOR, 1 FOR W MATRIX.
000802: 23,7127           07132                                    +2                                    #  TURN IT OFF HERE.
000803: 23,7130           00002                                    JSWITCH
000804:


000806:
000807: 23,7131           75176        DIFEQ0             VMOVE    0                                     #  POSITION DEVIATION INTO ALPHA.
000808: 23,7132           01115                                    YV
000809: 23,7133           33153                           STORE    ALPHAV
000810:
000811: 23,7134           45176                           DMOVE    0                                     #  START H AT 0.
000812: 23,7135           07227                                    DPZERO
000813: 23,7136           33265                           STORE    H                                     #  GOES 0(DELT/2)DELT.
000814:
000815: 23,7137           47576                           NOLOD    0                                     #  ZERO DIFEQCNT AND REGISTER FOLLOWING.
000816: 23,7140           33306                           STORE    DIFEQCNT                              #  GOES 0(-12D)(-24D).
000817:
000818: 23,7141           44576                           ITCI     0                                     #  BEGIN AT ADDRESS IN HBRANCH.
000819: 23,7142           01272                                    HBRANCH
000820:


000822:
000823:                                                                                                  #        THE RECTIFY SUBROUTINE IS CALLED BY THE INTEGRATION PROGRAM (AND OCCASIONALLY BY THE MEASUREMENT
000824:                                                                                                  #  INCORPORATION ROUTINES) TO ESTABLISH A NEW CONIC.
000825:
000826:
000827:
000828: 23,7143           45775        RECTIFY            VSRT     1                                     #  RECTIFY - FORM TOTAL POSITION AND VEL.
000829: 23,7144           50776                           VAD                                            #  ADJUST SCALE DIFFERENCE (ASSUMED
000830: 23,7145           01115                                    TDELTAV
000831: 23,7146           00015                                    RSCALE     -4
000832: 23,7147           01131                                    RCV
000833: 23,7150           33101                           STORE    RRECT
000834:
000835: 23,7151           47576                           NOLOD    0                                     #  SET UP CONIC 'ANSWER' FOR TIMESTEP.
000836: 23,7152           33131                           STORE    RCV
000837:
000838: 23,7153           75574                           AXT,1    2
000839: 23,7154           75020                           VMOVE    VSLT*
000840: 23,7155           50776                           VAD
000841: 23,7156           00011                                    VSCALE     -14D
000842: 23,7157           01123                                    TNUV
000843: 23,7160           00001                                    0,1
000844: 23,7161           01137                                    VCV
000845: 23,7162           33107                           STORE    VRECT
000846:
000847: 23,7163           47576                           NOLOD    0
000848: 23,7164           33137                           STORE    VCV
000849:
000850: 23,7165           75575                           AXT,1    1                                     #  ZERO DELTA, NU, AND TIME SINCE RECTIFI-
000851: 23,7166           55423                           AST,1    DMOVE
000852: 23,7167           00015                                    12D
000853: 23,7170           00003                                    2
000854: 23,7171           07227                                    DPZERO
000855: 23,7172           33145                           STORE    TC
000856:
000857: 23,7173           47576                           NOLOD    0
000858: 23,7174           33151                           STORE    XKEP                                  #  ZERO X.
000859:
000860: 23,7175           47576        ZEROLOOP           NOLOD    0                                     #  INDEXES CAUSE LOOP TO ZERO 6 CONSECUTIVE
000861: 23,7176           36261                           STORE    YV         +12D,1                     #  DP NUMBERS (DELTA AND NU ARE ADJACENT).
000862:
000863: 23,7177           51575                           TIX,1    1                                     #  LOOP OR START INTEGRATION STEP IF DONE.
000864: 23,7200           40576                           ITCQ
000865: 23,7201           07176                                    ZEROLOOP
000866:


000868:
000869:                                                                                                  #        THE THREE DIFEQ ROUTINES - DIFEQ+0, DIFEQ+12, AND DIFEQ+24 - ARE ENTERED TO PROCESS THE CONTRIBUTIONS
000870:                                                                                                  #  AT THE BEGINNING, MIDDLE, AND END OF THE TIME STEP, RESPECTIVELY. THE UPDATING IS DONE BY THE NYSTROM METHOD.
000871:
000872:
000873:
000874: 23,7202           45776        DIFEQ+0            VSRT     0
000875: 23,7203           01203                                    FV
000876: 23,7204           00004                                    3
000877: 23,7205           33167                           STORE    PHIV
000878:
000879: 23,7206           76776                           ITC      0
000880: 23,7207           07354                                    DIFEQCOM
000881:
000882: 23,7210           22525 12525  7/12               2DEC     .5833333333                            #  ENTRIES MUST BE 12 WORDS APART SO FILL
000883: 23,7212           22000 00000  9/16               2DEC     9          B-4                        #  HOLES WITH CONSTANTS
000884: 23,7214           01200 00000  5/128              2DEC     5          B-7
000885:
000886: 23,7216           45775        DIFEQ+12           VSRT     1
000887: 23,7217           50776                           VAD
000888: 23,7220           01203                                    FV
000889: 23,7221           00002                                    1
000890: 23,7222           01167                                    PHIV
000891: 23,7223           33175                           STORE    PSIV
000892:
000893: 23,7224           76776                           ITC      0
000894: 23,7225           07346                                    DIFEQCOM   -6
000895:
000896: 23,7226           00000 00000  DPZERO             2DEC     0.0
000897:
000898: 23,7230           25252 25253  DP2/3              2DEC     .6666666667
000899:
000900: 23,7232           75773        DIFEQ+24           VXSC     3                                     #  DO FINAL CALCULATION FOR Y AND Z.
000901: 23,7233           75622                           VXSC     VSLT
000902: 23,7234           50766                           VAD      VXSC
000903: 23,7235           50776                           VAD
000904: 23,7236           01167                                    PHIV
000905: 23,7237           01265                                    H
000906: 23,7240           07231                                    DP2/3
000907: 23,7241           00002                                    1
000908: 23,7242           01123                                    ZV
000909: 23,7243           01265                                    H
000910: 23,7244           01115                                    YV
000911: 23,7245           33115                           STORE    YV


000913: 23,7246           45772                           VSRT     4
000914: 23,7247           50766                           VAD      VXSC
000915: 23,7250           75622                           VXSC     VSLT
000916: 23,7251           50615                           VAD      TEST                                  #  SEE IF THIS IS STATE VECTOR OR W COLUMN.
000917: 23,7252           75576                           AXT,1
000918: 23,7253           01203                                    FV
000919: 23,7254           00004                                    3
000920: 23,7255           01175                                    PSIV
000921: 23,7256           01265                                    H
000922: 23,7257           07231                                    DP2/3
000923: 23,7260           00002                                    1
000924: 23,7261           01123                                    ZV
000925: 23,7262           00002                                    JSWITCH
000926: 23,7263           07314                                    ENDSTATE
000927: 23,7264           00001                                    0
000928: 23,7265           37564                           STORE    W          +72D,2                     #  VELOCITY COLUMN VECTOR.
000929:
000930: 23,7266           75176                           VMOVE    0
000931: 23,7267           01115                                    YV
000932: 23,7270           37454                           STORE    W          +36D,2                     #  POSITION COLUMN VECTOR.
000933:
000934: 23,7271           50576                           TIX,2    0
000935: 23,7272           07304                                    NEXTCOL
000936:
000937: 23,7273           75176                           VMOVE    0
000938: 23,7274           01002                                    DELTAV
000939: 23,7275           33115                           STORE    TDELTAV
000940:
000941: 23,7276           75176                           VMOVE    0
000942: 23,7277           01010                                    NUV
000943: 23,7300           33123                           STORE    TNUV
000944:
000945: 23,7301           44576                           ITCI     0
000946: 23,7302           01305                                    STEPEXIT
000947:
000948: 23,7303           74176        NEXTCOL            VMOVE*   0                                     #  SET UP NEXT COLUMNS OF W MATRIX.
000949: 23,7304           03454                                    W          +36D,2
000950: 23,7305           33115                           STORE    YV
000951:
000952: 23,7306           74176                           VMOVE*   0
000953: 23,7307           03564                                    W          +72D,2
000954: 23,7310           33123                           STORE    ZV
000955:
000956: 23,7311           76776                           ITC      0
000957: 23,7312           07132                                    DIFEQ0
000958:
000959: 23,7313           47576        ENDSTATE           NOLOD    0
000960: 23,7314           33123                           STORE    TNUV


000962: 23,7315           56775                           TSRT     1                                     #  UPDATE TIME SINCE RECTIFICATION.
000963: 23,7316           46542                           ROUND    DAD
000964: 23,7317           01265                                    H
000965: 23,7320           00012                                    TSCALE     -18D
000966: 23,7321           01145                                    TC
000967: 23,7322           33145                           STORE    TC
000968:
000969: 23,7323           67776                           BHIZ     0
000970: 23,7324           01304                                    WMATFLAG
000971: 23,7325           07302                                    NEXTCOL    -2
000972:
000973: 23,7326           76776                           ITC      0
000974: 23,7327           07331                                    SETWINT                               #  FOR NOW
000975: 23,7330           74572        SETWINT            AXT,2    4                                     #  SET UP W MATRIX EXTRAPOLATION ROUTINES.
000976: 23,7331           54565                           AST,2    AXT,1                                 #  PROGRAM DESCRIPTION IS AT  DOW..  .
000977: 23,7332           67535                           SXA,1    SXA,1
000978: 23,7333           42565                           SWITCH   AXT,1
000979: 23,7334           76776                           ITC
000980: 23,7335           00045                                    36D
000981: 23,7336           00007                                    6
000982: 23,7337           07377                                    DOW..
000983: 23,7340           01271                                    FBRANCH
000984: 23,7341           01272                                    HBRANCH
000985: 23,7342           00002                                    JSWITCH
000986: 23,7343           00001                                    0
000987: 23,7344           07304                                    NEXTCOL
000988:


000990:
000991:                                                                                                  #        COMES HERE TO FINISH FIRST TWO DIFEQ COMPUTATIONS.
000992:
000993:
000994:
000995: 23,7345           45775                 -6        VSRT     1                                     #  ENTERS HERE FROM DIFEQ+12 MIDPOINT
000996: 23,7346           50776                           VAD                                            #  COMPUTATION.
000997: 23,7347           01203                                    FV
000998: 23,7350           00003                                    2
000999: 23,7351           01167                                    PHIV
001000: 23,7352           33167                           STORE    PHIV
001001:
001002: 23,7353           70775        DIFEQCOM           DAD      1                                     #  INCREMENT H AND DIFEQCNT.
001003: 23,7354           63535                           INCR,1   SXA,1
001004: 23,7355           01263                                    DT/2
001005: 23,7356           01265                                    H
001006: 23,7357           77764                                    -12D
001007: 23,7360           01306                                    DIFEQCNT                              #  DIFEQCNT SET FOR NEXT ENTRY.
001008: 23,7361           33265                           STORE    H
001009:
001010: 23,7362           75774                           VXSC     2
001011: 23,7363           45642                           VSRT     VAD
001012: 23,7364           75642                           VXSC     VAD
001013: 23,7365           01203                                    FV
001014: 23,7366           01265                                    H
001015: 23,7367           00002                                    1
001016: 23,7370           01123                                    ZV
001017: 23,7371           01265                                    H
001018: 23,7372           01115                                    YV
001019: 23,7373           33153                           STORE    ALPHAV
001020:
001021: 23,7374           44576                           ITCI     0                                     #  EXIT VIA FBRANCH.
001022: 23,7375           01271                                    FBRANCH
001023:
001024: 23,7376  23,7202               DIFEQ              EQUALS   DIFEQ+0
001025:


001027:
001028:                                                                                                  #        ORBITAL ROUTINE FOR EXTRAPOLATING THE W MATRIX. IT COMPUTES THE
001029:                                                                                                  #  SECOND DERIVATIVE OF EACH COLUMN POSITION VECTOR OF THE MATRIX AND CALLS
001030:                                                                                                  #  THE NYSTOM INTEGRATION ROUTINES TO SOLVE THE DIFFERENTIAL EQUATIONS. THE
001031:                                                                                                  #  PROGRAM USES A TABLE OF VEHICLE POSITION VECTORS COMPUTED DURING THE
001032:                                                                                                  #  INTEGRATION OF THE VEHICLES POSITION AND VELOCITY.
001033:
001034: 23,7376           45776        DOW..              VSRT     0
001035: 23,7377           01153                                    ALPHAV
001036: 23,7400           00005                                    4
001037:
001038: 23,7401           72174                           UNIT*    2                                     #  X1 REFERENCES THE TABLE OF POSITION
001039: 23,7402           40766                           VPROJ    VXSC                                  #  VECTORS AND CALLS THE CORRECT DIFEQ PROG
001040: 23,7403           74776                           VSU
001041: 23,7404           02421                                    VECTAB,1
001042: 23,7405           01153                                    ALPHAV
001043: 23,7406           07435                                    3/4
001044:
001045: 23,7407           64772                           DMP      4                                     #  CUBE OF LENGTH OF POSITION VECTOR
001046: 23,7410           57631                           TSLC     ROUND                                 #  DIVIDES VECTOR IN PUSH-DOWN LIST TO
001047: 23,7411           61766                           BDDV     VXSC                                  #  FORM FINAL RESULT.
001048: 23,7412           64511                           XCHX,2   INCR,2                                #  INCREMENT COMPENSATES FOR .5 R IN 30D.
001049: 23,7413           44351                           VSLT*    LXA,2
001050: 23,7414           00035                                    28D
001051: 23,7415           00037                                    30D
001052: 23,7416           00051                                    S1
001053: 23,7417           06304                                    DP1/4
001054: 23,7420           77777                                    -
001055: 23,7421           00051                                    S1
001056: 23,7422           00004                                    3
001057: 23,7423           00002                                    0,2
001058: 23,7424           00051                                    S1
001059: 23,7425           33203                           STORE    FV
001060:
001061: 23,7426           76376                           ITC*     0                                     #  CALL NYSTROM ROUTINES ACCORDING TO X1.
001062: 23,7427           16405                                    DIFEQ,1
001063:


001065:
001066: 23,7430           24214 11244  EARTHTAB           2DEC     .6335627                              #  400 / SQRT(MU).
001067: 23,7432           36000 00000  15/16              2DEC     15.        B-4
001068: 23,7434           30000 00000  3/4                2DEC     3.0        B-2
001069: 23,7436           12577 24106  J2REQSQ            2DEC     .335914874
001070: 23,7440           77711 71033  2J3RE/J2           2DEC     -.003309146
001071: 23,7442           23377 06703  J4REQ/J3           2DEC     .60932709
001072: 23,7444  23,7230               2/3                EQUALS   DP2/3
001073: 23,7444                        P2'/8              EQUALS   0
001074: 23,7444                        P3'/4              EQUALS   2
001075: 23,7444                        P4'/16             EQUALS   4
001076:
001077: 23,7444           20000 00000  DP1/2              2DEC     .5
001078: 23,7446           14467 00000  DENBASE            2DEC     6455       B-14                       #  EARTHRAD +100 KM SCALED AT 2 TO THE (14)
001079: 23,7450           31000 00000  DENFACT            2DEC     0.781250                              #  200/256
001080: 23,7452           70345 62314  DEN4               2DEC     -7.55161127 B-5                        #  CONSTANTS FOR DENSITY FUNCTION SCALED AT
001081: 23,7454           25201 06602  DEN3               2DEC     21.2523654 B-5                        #        2 TO THE (5)
001082: 23,7456           54046 46744  DEN2               2DEC     -19.9253572 B-5
001083: 23,7460           20033 11303  DEN1               2DEC     16.0533069 B-5
001084: 23,7462           01000 00000  DEN0               2DEC     1.0        B-5
001085: 23,7464           00000 23042  PACD/M             2DEC     0.0000363648                            #  (RHO AREA CD)/MASS AT 100KM
001086: 23,7466           00000 00000  OMEGA              2DEC     0          B-28                       #  EARTH ROT VECTOR/SQRT(MU) SCALED
001087: 23,7470           00000 00000                     2DEC     0          B-28                       #        AT 2 TO THE (-23) KM TO (-3/2)
001088: 23,7472           37002 12436                     2DEC     0.968892208
001089: 23,7474                        DENALT             =        26D                                   #  TEMPORARY STORAGE FOR ALTITUDE
001090: 23,7474           14777 00000  DENCEIL            2DEC     6655       B-14                       #  EARTHRAD +300 KM SCALED AT 2(14)

End of include-file ORBITAL_INTEGRATION_PROGRAM.agc.  Parent file is MAIN.agc


