
Source Code


000002:                                                                                                  ## Copyright:   Public domain.
000003:                                                                                                  ## Filename:    ORBITAL_INTEGRATION_FOR_501.agc
000004:                                                                                                  ## Purpose:     Part of the source code for Solarium build 55. This
000005:                                                                                                  ##              is for the Command Module's (CM) Apollo Guidance
000006:                                                                                                  ##              Computer (AGC), for Apollo 6.
000007:                                                                                                  ## Assembler:   yaYUL --block1
000008:                                                                                                  ## Contact:     Jim Lawton <jim DOT lawton AT gmail DOT com>
000009:                                                                                                  ## Website:     www.ibiblio.org/apollo/index.html
000010:                                                                                                  ## Page Scans:  www.ibiblio.org/apollo/ScansForConversion/Solarium055/
000011:                                                                                                  ## Mod history: 2009-09-22 JL   Created.
000012:                                                                                                  ##              2009-09-22 JL   Fixed typo.
000013:                                                                                                  ##              2009-10-30 JL   Fixed filename comment.
000014:                                                                                                  ##              2016-12-28 RSB  Proofed comment text using octopus/ProoferComments,
000015:                                                                                                  ##                              and fixed errors found.
000016:


000018:
000019: 30,6000                                           SETLOC   60000
000020:
000021: 30,6000           53574        AVETOMD1           AXC,1    2
000022: 30,6001           45535                           ITA      SXA,1
000023: 30,6002           76776                           ITC
000024: 30,6003           00002                                    1
000025: 30,6004           01303                                    MIDEXIT
000026: 30,6005           01301                                    MEASMODE
000027: 30,6006           20015                                    AVETOMID
000028:
000029: 30,6007           53575        AVETOMD2           AXC,1    1
000030: 30,6010           45535                           ITA      SXA,1
000031: 30,6011           00003                                    2
000032: 30,6012           01303                                    MIDEXIT
000033: 30,6013           01301                                    MEASMODE
000034:
000035: 30,6014           75170        AVETOMID           VMOVE    6
000036: 30,6015           75535                           AXT,1    SXA,1
000037: 30,6016           75535                           AXT,1    SXA,1
000038: 30,6017           75535                           AXT,1    SXA,1
000039: 30,6020           75535                           AXT,1    SXA,1
000040: 30,6021           75535                           AXT,1    SXA,1
000041: 30,6022           75535                           AXT,1    SXA,1
000042: 30,6023           15575                                    ZEROVEC
000043: 30,6024           00001                                    0
000044: 30,6025           01304                                    WMATFLAG                              #  TURN OFF WMATRIX INTEGRATION.
000045: 30,6026           00021                                    RSCALE
000046: 30,6027           01313                                    SCALER                                #  SET SCALE OF POSITION.
000047: 30,6030           00005                                    4
000048: 30,6031           01312                                    SCALDELT                              #  ALSO DEVIATION.
000049: 30,6032           00023                                    18D
000050: 30,6033           01311                                    SCALEDT                               #  AND TIME STEP.
000051: 30,6034           07431                                    EARTHTAB
000052: 30,6035           01040                                    PBODY
000053: 30,6036           20070                                    TESTTET
000054: 30,6037           01305                                    STEPEXIT
000055: 30,6040           33115                           STORE    TDELTAV                               #  ZERO POSITION DEVIATION.
000056:
000057: 30,6041           47576                           NOLOD    0
000058: 30,6042           33123                           STORE    TNUV                                  #  ALSO VELOCITY.
000059:
000060: 30,6043           47576                           NOLOD    0                                     #  AND TIME SINCE RECTIFICATION, TIME,
000061: 30,6044           33145                           STORE    TC                                    #  AND KEPLER X.


000063: 30,6045           75575                           AXT,1    1
000064: 30,6046           55576                           AST,1
000065: 30,6047           00015                                    12D
000066: 30,6050           00007                                    6
000067:
000068: 30,6051           75375        RVTOMID            VXSC*    1                                     #  TRANSFORM POSITION AND VELOCITY TO
000069: 30,6052           51622                           VXM      VSLT
000070: 30,6053           02231                                    RRECT      +12D,1
000071: 30,6054           27273                                    SCLRAVMD   +12D,1
000072: 30,6055           01052                                    REFSMMAT
000073: 30,6056           00003                                    2
000074: 30,6057           36231                           STORE    RRECT      +12D,1
000075:
000076: 30,6060           47576                           NOLOD    0
000077: 30,6061           36311                           STORE    RCV        +12D,1
000078:
000079: 30,6062           51576                           TIX,1    0
000080: 30,6063           20052                                    RVTOMID
000081:
000082: 30,6064           45176                           DMOVE    0
000083: 30,6065           01211                                    TAVEGON
000084: 30,6066           33267                           STORE    TDEC
000085:


000087:
000088: 30,6067           77576        TESTTET            EXIT     0                                     #  FOR DUMP ONLY
000089: 30,6070           04000                           TC       INTPRET
000090: 30,6071           71575                           LXC,1    1
000091: 30,6072           55445                           AST,1    TIX,1
000092: 30,6073           01301                                    MEASMODE
000093: 30,6074           00002                                    1
000094: 30,6075           20101                                    +3
000095:
000096: 30,6076           76776                           ITC      0
000097: 30,6077           20104                                    +4
000098:
000099: 30,6100           43576                           TEST     0
000100: 30,6101           00023                                    UPDATFLG
000101: 30,6102           10310                                    NOSTATE
000102:
000103: 30,6103           72776                           STZ      0
000104: 30,6104           00123                                    OVFIND
000105:
000106: 30,6105           66774                           DSU      2
000107: 30,6106           76516                           RTB      TSLT
000108: 30,6107           62776                           DDV
000109: 30,6110           01267                                    TDEC
000110: 30,6111           01147                                    TET
000111: 30,6112           20404                                    SGNAGREE
000112: 30,6113           00014                                    11D
000113: 30,6114           07431                                    EARTHTAB
000114: 30,6115           33263                           STORE    DT/2
000115:
000116: 30,6116           71773                           BOV      3
000117: 30,6117           65132                           ABS      DSU
000118: 30,6120           73742                           BMN      DAD
000119: 30,6121           66756                           DSU      BMN
000120: 30,6122           20132                                    USEMAXDT
000121: 30,6123           01263                                    DT/2
000122: 30,6124           20246                                    DT/2MIN
000123: 30,6125           20141                                    DODCSION
000124: 30,6126           20246                                    DT/2MIN
000125: 30,6127           20250                                    DT/2MAX
000126: 30,6130           07110                                    TIMESTEP
000127:
000128: 30,6131           45175        USEMAXDT           DMOVE    1
000129: 30,6132           53776                           SIGN
000130: 30,6133           20250                                    DT/2MAX
000131: 30,6134           01263                                    DT/2
000132: 30,6135           33263                           STORE    DT/2
000133:
000134: 30,6136           76776                           ITC      0
000135: 30,6137           07110                                    TIMESTEP
000136:


000138:
000139: 30,6140           76776        DODCSION           ITC      0                                     #  RECTIFY TO OBTAIN FULL POSITION
000140: 30,6141           07144                                    RECTIFY                               #  AND VELOCUTY VECTORS.
000141:
000142: 30,6142           43175                           SMOVE    1
000143: 30,6143           73636                           BMN      BZE
000144: 30,6144           01301                                    MEASMODE                              #  TEST MEASMODE.
000145: 30,6145           20176                                    AVEGON                                #  MEASMODE = -1.
000146: 30,6146           20222                                    IGN-4SEC                              #  MEASMODE = 0.
000147:
000148: 30,6147           75575                           AXT,1    1                                     #  MEASMODE = +1.
000149: 30,6150           55576                           AST,1
000150: 30,6151           00015                                    12D
000151: 30,6152           00007                                    6
000152:
000153: 30,6153           75375        RVTOAVE            VXSC*    1                                     #  TRANSFORM POSITION AND VELOCITY VECTORS
000154: 30,6154           52622                           MXV      VSLT
000155: 30,6155           02231                                    RRECT      +12D,1
000156: 30,6156           27277                                    SCLRMDAV   +12D,1
000157: 30,6157           01052                                    REFSMMAT
000158: 30,6160           00002                                    1
000159: 30,6161           36231                           STORE    RIGNTION   +12D,1
000160:
000161: 30,6162           75375                           VXSC*    1
000162: 30,6163           52622                           MXV      VSLT
000163: 30,6164           02461                                    RAVEGON    +12D,1
000164: 30,6165           27277                                    SCLRMDAV   +12D,1
000165: 30,6166           01052                                    REFSMMAT
000166: 30,6167           00002                                    1
000167: 30,6170           36461                           STORE    RAVEGON    +12D,1
000168:
000169: 30,6171           51576                           TIX,1    0
000170: 30,6172           20154                                    RVTOAVE
000171:
000172: 30,6173           44576                           ITCI     0
000173: 30,6174           01303                                    MIDEXIT                               #  RETURN.
000174:


000176:
000177: 30,6175           75176        AVEGON             VMOVE    0                                     #  SAVE POSITION AND VELOCITY AT
000178: 30,6176           01101                                    RRECT                                 #  AVERAGE G ON TIME.
000179: 30,6177           33215                           STORE    RAVEGON
000180:
000181: 30,6200           75176                           VMOVE    0
000182: 30,6201           01107                                    VRECT
000183: 30,6202           33223                           STORE    VAVEGON
000184:
000185: 30,6203           71575                           LXC,1    1
000186: 30,6204           55445                           AST,1    TIX,1
000187: 30,6205           01301                                    MEASMODE
000188: 30,6206           00002                                    1
000189: 30,6207           20150                                    RVTOAVE    -4
000190:
000191: 30,6210           70775                           DAD      1
000192: 30,6211           75535                           AXT,1    SXA,1
000193: 30,6212           01267                                    TDEC
000194: 30,6213           20242                                    12M56S                                #  12 MINUTES, 56 SECS
000195: 30,6214           00001                                    0
000196: 30,6215           01301                                    MEASMODE                              #  MAKE MEASMODE 0.
000197: 30,6216           33267                           STORE    TDEC
000198:
000199: 30,6217           76776                           ITC      0
000200: 30,6220           20070                                    TESTTET                               #  CONTINUE INTEGRATION.
000201:
000202:
000203:
000204: 30,6221           75775        IGN-4SEC           VXSC     1                                     #  TRANSFORM AND SAVE POSITION ONLY
000205: 30,6222           52622                           MXV      VSLT
000206: 30,6223           01101                                    RRECT
000207: 30,6224           13524                                    SCLRMDAV
000208: 30,6225           01052                                    REFSMMAT
000209: 30,6226           00002                                    1
000210: 30,6227           33231                           STORE    RIG-4SEC
000211:
000212: 30,6230           70775                           DAD      1
000213: 30,6231           75535                           AXT,1    SXA,1
000214: 30,6232           01267                                    TDEC
000215: 30,6233           20244                                    4SECONDS                              #  ADD 4 SECONDS TO DECISION TIME.
000216: 30,6234           00002                                    1
000217: 30,6235           01301                                    MEASMODE                              #  MAKE MEASMODE +1.
000218: 30,6236           33267                           STORE    TDEC
000219:
000220: 30,6237           76776                           ITC      0
000221: 30,6240           20070                                    TESTTET                               #  DO LAST INTEGRATION STEP.
000222:


000224: 30,6241           00004 27440  12M56S             2DEC     77600      B-28                       #  12 MINUTES, 56 SECS
000225: 30,6243           00000 00620  4SECONDS           2DEC     400        B-28
000226: 30,6245           00000 14452  DT/2MIN            2DEC     .000024
000227: 30,6247           12317 00451  DT/2MAX            2DEC     .65027077  B-1                        #  .075 HOUR MAXIMUM TIME STEP
000228: 30,6251           30000        INITMSK            OCT      30000

End of include-file ORBITAL_INTEGRATION_FOR_501.agc.  Parent file is MAIN.agc


