
Source Code


000002:                                                                                                  #  Copyright:    Public domain.
000003:                                                                                                  #  Filename:     ORBITAL_INTEGRATION_FOR_501.agc
000004:                                                                                                  #  Purpose:      Part of the source code for Solarium build 55. This
000005:                                                                                                  #                is for the Command Module's (CM) Apollo Guidance
000006:                                                                                                  #                Computer (AGC), for Apollo 6.
000007:                                                                                                  #  Assembler:    yaYUL --block1
000008:                                                                                                  #  Contact:      Jim Lawton <jim DOT lawton AT gmail DOT com>
000009:                                                                                                  #  Website:      www.ibiblio.org/apollo/index.html
000010:                                                                                                  #  Page scans:   www.ibiblio.org/apollo/ScansForConversion/Solarium055/
000011:                                                                                                  #  Mod history:  2009-09-22 JL   Created.
000012:                                                                                                  #                2009-09-22 JL   Fixed typo.
000013:                                                                                                  #                2009-10-30 JL   Fixed filename comment.
000014:
000015:                                                                                                  # # Page 326
000016:
000017: 30,6000                                           SETLOC   60000
000018:
000019: 30,6000           53574        AVETOMD1           AXC,1    2
000020: 30,6001           45535                           ITA      SXA,1
000021: 30,6002           76776                           ITC
000022: 30,6003           00002                                    1
000023: 30,6004           01303                                    MIDEXIT
000024: 30,6005           01301                                    MEASMODE
000025: 30,6006           20015                                    AVETOMID
000026:
000027: 30,6007           53575        AVETOMD2           AXC,1    1
000028: 30,6010           45535                           ITA      SXA,1
000029: 30,6011           00003                                    2
000030: 30,6012           01303                                    MIDEXIT
000031: 30,6013           01301                                    MEASMODE
000032:
000033: 30,6014           75170        AVETOMID           VMOVE    6
000034: 30,6015           75535                           AXT,1    SXA,1
000035: 30,6016           75535                           AXT,1    SXA,1
000036: 30,6017           75535                           AXT,1    SXA,1
000037: 30,6020           75535                           AXT,1    SXA,1
000038: 30,6021           75535                           AXT,1    SXA,1
000039: 30,6022           75535                           AXT,1    SXA,1
000040: 30,6023           15575                                    ZEROVEC
000041: 30,6024           00001                                    0
000042: 30,6025           01304                                    WMATFLAG                              #  TURN OFF WMATRIX INTEGRATION.
000043: 30,6026           00021                                    RSCALE
000044: 30,6027           01313                                    SCALER                                #  SET SCALE OF POSITION.
000045: 30,6030           00005                                    4
000046: 30,6031           01312                                    SCALDELT                              #  ALSO DEVIATION.
000047: 30,6032           00023                                    18D
000048: 30,6033           01311                                    SCALEDT                               #  AND TIME STEP.
000049: 30,6034           07431                                    EARTHTAB
000050: 30,6035           01040                                    PBODY
000051: 30,6036           20070                                    TESTTET
000052: 30,6037           01305                                    STEPEXIT
000053: 30,6040           33115                           STORE    TDELTAV                               #  ZERO POSITION DEVIATION.
000054:
000055: 30,6041           47576                           NOLOD    0
000056: 30,6042           33123                           STORE    TNUV                                  #  ALSO VELOCITY.
000057:
000058: 30,6043           47576                           NOLOD    0                                     #  AND TIME SINCE RECTIFICATION, TIME,
000059: 30,6044           33145                           STORE    TC                                    #  AND KEPLER X.
000060:                                                                                                  # # Page 327
000061: 30,6045           75575                           AXT,1    1
000062: 30,6046           55576                           AST,1
000063: 30,6047           00015                                    12D
000064: 30,6050           00007                                    6
000065:
000066: 30,6051           75375        RVTOMID            VXSC*    1                                     #  TRANSFORM POSITION AND VELOCTY TO
000067: 30,6052           51622                           VXM      VSLT
000068: 30,6053           02231                                    RRECT      +12D,1
000069: 30,6054           27273                                    SCLRAVMD   +12D,1
000070: 30,6055           01052                                    REFSMMAT
000071: 30,6056           00003                                    2
000072: 30,6057           36231                           STORE    RRECT      +12D,1
000073:
000074: 30,6060           47576                           NOLOD    0
000075: 30,6061           36311                           STORE    RCV        +12D,1
000076:
000077: 30,6062           51576                           TIX,1    0
000078: 30,6063           20052                                    RVTOMID
000079:
000080: 30,6064           45176                           DMOVE    0
000081: 30,6065           01211                                    TAVEGON
000082: 30,6066           33267                           STORE    TDEC
000083:
000084:                                                                                                  # # Page 328
000085:
000086: 30,6067           77576        TESTTET            EXIT     0                                     #  FOR DUMP ONLY
000087: 30,6070           04000                           TC       INTPRET
000088: 30,6071           71575                           LXC,1    1
000089: 30,6072           55445                           AST,1    TIX,1
000090: 30,6073           01301                                    MEASMODE
000091: 30,6074           00002                                    1
000092: 30,6075           20101                                    +3
000093:
000094: 30,6076           76776                           ITC      0
000095: 30,6077           20104                                    +4
000096:
000097: 30,6100           43576                           TEST     0
000098: 30,6101           00023                                    UPDATFLG
000099: 30,6102           10310                                    NOSTATE
000100:
000101: 30,6103           72776                           STZ      0
000102: 30,6104           00123                                    OVFIND
000103:
000104: 30,6105           66774                           DSU      2
000105: 30,6106           76516                           RTB      TSLT
000106: 30,6107           62776                           DDV
000107: 30,6110           01267                                    TDEC
000108: 30,6111           01147                                    TET
000109: 30,6112           20404                                    SGNAGREE
000110: 30,6113           00014                                    11D
000111: 30,6114           07431                                    EARTHTAB
000112: 30,6115           33263                           STORE    DT/2
000113:
000114: 30,6116           71773                           BOV      3
000115: 30,6117           65132                           ABS      DSU
000116: 30,6120           73742                           BMN      DAD
000117: 30,6121           66756                           DSU      BMN
000118: 30,6122           20132                                    USEMAXDT
000119: 30,6123           01263                                    DT/2
000120: 30,6124           20246                                    DT/2MIN
000121: 30,6125           20141                                    DODCSION
000122: 30,6126           20246                                    DT/2MIN
000123: 30,6127           20250                                    DT/2MAX
000124: 30,6130           07110                                    TIMESTEP
000125:
000126: 30,6131           45175        USEMAXDT           DMOVE    1
000127: 30,6132           53776                           SIGN
000128: 30,6133           20250                                    DT/2MAX
000129: 30,6134           01263                                    DT/2
000130: 30,6135           33263                           STORE    DT/2
000131:
000132: 30,6136           76776                           ITC      0
000133: 30,6137           07110                                    TIMESTEP
000134:
000135:                                                                                                  # # Page 329
000136:
000137: 30,6140           76776        DODCSION           ITC      0                                     #  RECTIFY TO OBTAIN FULL POSITION
000138: 30,6141           07144                                    RECTIFY                               #  AND VELOCUTY VECTORS.
000139:
000140: 30,6142           43175                           SMOVE    1
000141: 30,6143           73636                           BMN      BZE
000142: 30,6144           01301                                    MEASMODE                              #  TEST MEASMODE.
000143: 30,6145           20176                                    AVEGON                                #  MEASMODE = -1.
000144: 30,6146           20222                                    IGN-4SEC                              #  MEASMODE = 0.
000145:
000146: 30,6147           75575                           AXT,1    1                                     #  MEASMODE = +1.
000147: 30,6150           55576                           AST,1
000148: 30,6151           00015                                    12D
000149: 30,6152           00007                                    6
000150:
000151: 30,6153           75375        RVTOAVE            VXSC*    1                                     #  TRANSFORM POSITION AND VELOCITY VECTORS
000152: 30,6154           52622                           MXV      VSLT
000153: 30,6155           02231                                    RRECT      +12D,1
000154: 30,6156           27277                                    SCLRMDAV   +12D,1
000155: 30,6157           01052                                    REFSMMAT
000156: 30,6160           00002                                    1
000157: 30,6161           36231                           STORE    RIGNTION   +12D,1
000158:
000159: 30,6162           75375                           VXSC*    1
000160: 30,6163           52622                           MXV      VSLT
000161: 30,6164           02461                                    RAVEGON    +12D,1
000162: 30,6165           27277                                    SCLRMDAV   +12D,1
000163: 30,6166           01052                                    REFSMMAT
000164: 30,6167           00002                                    1
000165: 30,6170           36461                           STORE    RAVEGON    +12D,1
000166:
000167: 30,6171           51576                           TIX,1    0
000168: 30,6172           20154                                    RVTOAVE
000169:
000170: 30,6173           44576                           ITCI     0
000171: 30,6174           01303                                    MIDEXIT                               #  RETURN.
000172:
000173:                                                                                                  # # Page 330
000174:
000175: 30,6175           75176        AVEGON             VMOVE    0                                     #  SAVE POSITION AND VELOCTY AT
000176: 30,6176           01101                                    RRECT                                 #  AVERAGE G ON TIME.
000177: 30,6177           33215                           STORE    RAVEGON
000178:
000179: 30,6200           75176                           VMOVE    0
000180: 30,6201           01107                                    VRECT
000181: 30,6202           33223                           STORE    VAVEGON
000182:
000183: 30,6203           71575                           LXC,1    1
000184: 30,6204           55445                           AST,1    TIX,1
000185: 30,6205           01301                                    MEASMODE
000186: 30,6206           00002                                    1
000187: 30,6207           20150                                    RVTOAVE    -4
000188:
000189: 30,6210           70775                           DAD      1
000190: 30,6211           75535                           AXT,1    SXA,1
000191: 30,6212           01267                                    TDEC
000192: 30,6213           20242                                    12M56S                                #  12 MINUTES, 56 SECS
000193: 30,6214           00001                                    0
000194: 30,6215           01301                                    MEASMODE                              #  MAKE MEASMODE 0.
000195: 30,6216           33267                           STORE    TDEC
000196:
000197: 30,6217           76776                           ITC      0
000198: 30,6220           20070                                    TESTTET                               #  CONTINUE INTEGRATION.
000199:
000200:
000201:
000202: 30,6221           75775        IGN-4SEC           VXSC     1                                     #  TRANSFORM AND SAVE POSITION ONLY
000203: 30,6222           52622                           MXV      VSLT
000204: 30,6223           01101                                    RRECT
000205: 30,6224           13524                                    SCLRMDAV
000206: 30,6225           01052                                    REFSMMAT
000207: 30,6226           00002                                    1
000208: 30,6227           33231                           STORE    RIG-4SEC
000209:
000210: 30,6230           70775                           DAD      1
000211: 30,6231           75535                           AXT,1    SXA,1
000212: 30,6232           01267                                    TDEC
000213: 30,6233           20244                                    4SECONDS                              #  ADD 4 SECONDS TO DECISION TIME.
000214: 30,6234           00002                                    1
000215: 30,6235           01301                                    MEASMODE                              #  MAKE MEASMODE +1.
000216: 30,6236           33267                           STORE    TDEC
000217:
000218: 30,6237           76776                           ITC      0
000219: 30,6240           20070                                    TESTTET                               #  DO LAST INTEGRATION STEP.
000220:
000221:                                                                                                  # # Page 331
000222: 30,6241           00004 27440  12M56S             2DEC     77600      B-28                       #  12 MINUTES, 56 SECS
000223: 30,6243           00000 00620  4SECONDS           2DEC     400        B-28
000224: 30,6245           00000 14452  DT/2MIN            2DEC     .000024
000225: 30,6247           12317 00451  DT/2MAX            2DEC     .65027077  B-1                        #  .075 HOUR MAXIMUM TIME STEP
000226: 30,6251           30000        INITMSK            OCT      30000

End of include-file ORBITAL_INTEGRATION_FOR_501.agc.  Parent file is MAIN.agc


