
Source Code


000002:                                                                                                  ## Copyright:   Public domain.
000003:                                                                                                  ## Filename:    PINBALL_GAME_BUTTONS_AND_LIGHTS.agc
000004:                                                                                                  ## Purpose:     Part of the source code for Solarium build 55. This
000005:                                                                                                  ##              is for the Command Module's (CM) Apollo Guidance
000006:                                                                                                  ##              Computer (AGC), for Apollo 6.
000007:                                                                                                  ## Assembler:   yaYUL --block1
000008:                                                                                                  ## Contact:     Jim Lawton <jim DOT lawton AT gmail DOT com>
000009:                                                                                                  ## Website:     www.ibiblio.org/apollo/index.html
000010:                                                                                                  ## Page Scans:  www.ibiblio.org/apollo/ScansForConversion/Solarium055/
000011:                                                                                                  ## Mod history: 2009-09-23 JL   Created.
000012:                                                                                                  ##              2016-08-19 RSB  Typos.
000013:                                                                                                  ##              2016-08-20 RSB  More typos.
000014:                                                                                                  ##              2016-12-28 RSB  Proofed comment text using octopus/ProoferComments,
000015:                                                                                                  ##                              and fixed errors found.
000016:                                                                                                  ##              2017-01-28 RSB  WTIH -> WITH.
000017:                                                                                                  ##              2017-02-08 RSB  Comment-text fixes noted while proofing Artemis 72.
000018:                                                                                                  ##              2017-03-08 RSB  Comment-text fixes noted in proofing Luminary 116.
000019:


000021:
000022:                                                                                                  #  KEYBOARD AND DISPLAY PROGRAM
000023:
000024:
000025:
000026:                                                                                                  #  THE FOLLOWING QUOTATION IS PROVIDED THROUGH THE COUTESY OF THE AUTHORS.
000027:
000028:                                                                                                  #        ::IT WILL BE PROVED TO THY FACE THAT THOU HAST MEN ABOUT THEE THAT
000029:                                                                                                  #  USUALLY TALK OF A NOUN AND A VERB, AND SUCH ABOMINABLE WORDS AS NO
000030:                                                                                                  #  CHRISTIAN EAR CAN ENDURE TO HEAR.::
000031:
000032:                                                                                                  #                        HENRY 6, ACT 2, SCENE 4
000033:
000034:
000035:                                                                                                  #  SUMMARY OF ERASABLE ASSIGNMENTS FOR KEYBOARD AND DISPLAY PROGRAM
000036:                                                                                                  #  WHICH ARE ALL DEFINED ELSEWHERE.
000037:
000038:
000039:
000040:                                                                                                  #                SETLOC  627
000041:
000042:                                                                                                  #  BUFFER STORAGE AREAS FOR ROUTINES USING DISPLAY OR LOAD ROUTINES.
000043:                                                                                                  #  DSPTEM1       ERASE   +2              BUFFER STORAGE AREA 1 (MOSTLY FOR TIME)
000044:                                                                                                  #  DSPTEM2       ERASE   +2              BUFFER STORAGE AREA 2 (MOSTLY FOR DEG)
000045:
000046:                                                                                                  #  ERASABLE ASSIGNMENTS SPECIFIC TO PINBALL
000047:
000048:
000049:
000050:                                                                                                  #  ERASABLES RESERVED FOR EXECUTIVE ACTION
000051:
000052:                                                                                                  #  DSPCOUNT      ERASE                   DISPLAY POSITION INDICATOR
000053:                                                                                                  #  DECBRNCH      ERASE                   +DEC, - DEC, OCT INDICATOR
000054:                                                                                                  #  VERBREG       ERASE                   VERB CODE
000055:                                                                                                  #  NOUNREG       ERASE                   NOUN CODE
000056:                                                                                                  #  XREG          ERASE                   R1 INPUT BUFFER
000057:                                                                                                  #  YREG          ERASE                   R2 INPUT BUFFER
000058:                                                                                                  #  ZREG          ERASE                   R3 INPUT BUFFER
000059:                                                                                                  #  XREGLP        ERASE                   LO PART OF XREG (FOR DEC CONV ONLY)
000060:                                                                                                  #  YREGLP        ERASE                   LO PART OF YREG (FOR DEC CONV ONLY)
000061:                                                                                                  #  ZREGLP        ERASE                   LO PART OF ZREG (FOR DEC CONV ONLY)
000062:                                                                                                  #  MODREG        ERASE                   MODE CODE
000063:                                                                                                  #  DSPLOCK       =       STATE (BIT4)    KEYBOARD/SUBROUTINE CALL INTERLOCK
000064:                                                                                                  #  REQRET        ERASE                   RETURN REGISTER FOR LOAD
000065:                                                                                                  #  LOADSTAT      ERASE                   STATUS INDICATOR FOR LOADTST
000066:                                                                                                  #  CLPASS        ERASE                   PASS INDICATOR CLEAR
000067:                                                                                                  #  NOUT          ERASE                   ACTIVITY COUNTER FOR DSPTAB
000068:                                                                                                  #  NOUNADD       ERASE                   MACHINE ADDRESS FOR NOUN
000069:                                                                                                  #  MONSAVE       ERASE                   N/V CODE FOR MONITOR. ALSO ACTIVITY
000070:                                                                                                  #  MONSAVE1      ERASE                   NOUNADD STORAGE FOR MONITOR WITH MATBS
000071:                                                                                                  #  DSPTAB        ERASE   +13D            0-10, DISPLAY PANEL BUFFER. 11-13, C RELAYS


000073:                                                                                                  #  CADRSTOR      ERASE                   ENDIDLE STORAGE
000074:                                                                                                  #  GRABLOCK      ERASE                   INTERNAL INTERLOCK FOR DISPLAY SYSTEM
000075:                                                                                                  #  NVSBCADR      ERASE                   NVSUB STORAGE FOR CALLING CADR
000076:                                                                                                  #  DSPLIST       ERASE   +2              WAITING LIST FOR DSP SYST INTERNAL USE
000077:                                                                                                  #  END OF ERASABLES RESERVED FOR EXECUTIVE ACTION
000078:
000079:                                                                                                  #  ERASABLES RESERVED FOR INTERRUPT ACTION
000080:
000081:                                                                                                  #  IN0WORD       ERASE                   INPUT CODE STORAGE (KEYRUPT OR UPRUPT)
000082:                                                                                                  #  DSPCNT        ERASE                   COUNTER FOR DSPOUT
000083:
000084:
000085:
000086:                                                                                                  #  TEMPORARY ERASABLES FOR EXECUTIVE ACTION
000087:
000088:                                                                                                  #  DSEXIT        =       COMPON          RETURN FOR DSPIN
000089:                                                                                                  #  EXITEM        =       COMPON          RETURN FOR SCALE FACTOR ROUTINE SELECT
000090:                                                                                                  #  BLANKRET      =       COMPON          RETURN FOR 2BLANK
000091:
000092:                                                                                                  #  WRDRET        =       TEM9            RETURN FOR 5BLANK
000093:                                                                                                  #  WDRET         =       TEM9            RETURN FOR DSPWD
000094:                                                                                                  #  DECRET        =       TEM9            RETURN FOR PUTCOM(DEC LOAD)
000095:                                                                                                  #  21/22REG      =       TEM9            TEMP FOR CHARIN
000096:
000097:                                                                                                  #  UPDATRET      =       ORDER           RETURN FOR UPDATNN, UPDATVB
000098:                                                                                                  #  CHAR          =       ORDER           TEMP FOR CHARIN
000099:                                                                                                  #  ERCNT         =       ORDER           COUNTER FOR ERROR LIGHT RESET
000100:                                                                                                  #  DECOUNT       =       ORDER           COUNTER FOR SCALING AND DISPLAY (DEC)
000101:
000102:                                                                                                  #  SGNON         =       TEM11           TEMP FOR +,- ON
000103:                                                                                                  #  NOUNTEM       =       TEM11           COUNTER FOR MIXNOUN FETCH
000104:                                                                                                  #  DISTEM        =       TEM11           COUNTER FOR OCTAL DISPLAY VERBS
000105:                                                                                                  #  DECTEM        =       TEM11           COUNTER FOR FETCH (DEC DISPLAY VERBS)
000106:                                                                                                  #  DECTEM1       =       TEM11           TEMP FOR NUM
000107:
000108:                                                                                                  #  SGNOFF        =       DVSW            TEMP FOR +,- ON
000109:                                                                                                  #  NVTEMP        =       DVSW            TEMP FOR NVSUB
000110:                                                                                                  #  SFTEMP1       =       DVSW            STORAGE FOR SF CONST HI PART (=SFTEMP2-1)
000111:                                                                                                  #  DECTEM2       =       DVSW            TEMP FOR NUM
000112:
000113:                                                                                                  #  CODE          =       BRANCHQ         FOR DSPIN
000114:                                                                                                  #  SFTEMP2       =       BRANCHQ         STORAGE FOR SF CONST LO PART (=SFTEMP1+1)
000115:
000116:                                                                                                  #  ENTRET        =       MODE            EXIT FROM ENTER
000117:
000118:                                                                                                  #  PROGREG       =       VBUF +2         FOR GO EXEC PROGRAM
000119:                                                                                                  #  MIXTEMP       =       VBUF +2         FOR MIXNOUN DATA
000120:                                                                                                  #  SIGNRET       =       VBUF +2         RETURN FOR +,- ON
000121:


000123:
000124:                                                                                                  #  ALSO PROGREG+1, PROGREG+2. MIXTEMP+1, MIXTEMP+2.
000125:
000126:                                                                                                  #  WDCNT         =       VBUF +5         CHAR COUNTER FOR DSPWD
000127:                                                                                                  #  INREL         =       VBUF +5         INPUT BUFFER SELECTOR ( X,Y,Z, REG )
000128:
000129:                                                                                                  #  MIXBR         =       TEM10           INDICATOR FOR MIXED OR NORMAL NOUN
000130:                                                                                                  #  DSPMMTEM      =       TEM10           DSPCOUNT SAVE FOR DSPMM
000131:
000132:                                                                                                  #  MONTEM        =       NEWEQIND        TEMP RETURN FOR MONITOR
000133:                                                                                                  #  DSREL         =       TEM2            REL ADDRESS FOR DSPIN (TEM2 USED BY DAD1)
000134:
000135:                                                                                                  #  DSMAG         =       TEM4            MAGNITUDE STORE FOR DSPIN
000136:                                                                                                  #  IDADDTEM      =       TEM4            MIXNOUN INDIRECT ADDRESS STORAGE
000137:
000138:                                                                                                  #  COUNT         =       TEM5            FOR DSPIN  (TEM5 IS USED BY DAD)
000139:                                                                                                  #  LSTPTR        =       ARETURN         LIST POINTER FOR GRABUSY
000140:                                                                                                  #  RELRET        =       ARETURN         RETURN FOR RELDSP
000141:                                                                                                  #  FREERET       =       ARETURN         RETURN FOR FREEDSP
000142:
000143:                                                                                                  #  CADRTEM       =       ESCAPE          TEMP STORAGE FOR GRAB ROUTINES
000144:
000145:                                                                                                  #  NNADTEM       ERASE                   TEMP FOR NOUN ADDRESS TABLE ENTRY
000146:                                                                                                  #  NNTYPTEM      ERASE                   TEMP FOR NOUN TYPE TABLE ENTRY
000147:                                                                                                  #  IDAD1TEM      ERASE                   TEMP FOR INDIR ADRES TABLE ENTRY(MIXNN)
000148:                                                                                                  #                                        MUST = IDAD2TEM-1, = IDAD3TEM-2.
000149:                                                                                                  #  IDAD2TEM      ERASE                   TEMP FOR INDIR ADRES TABLE ENTRY(MIXNN)
000150:                                                                                                  #                                        MUST = IDAD1TEM+1, = IDAD3TEM-1.
000151:                                                                                                  #  IDAD3TEM      ERASE                   TEMP FOR INDIR ADRES TABLE ENTRY(MIXNN)
000152:                                                                                                  #                                        MUST = IDAD1TEM+2, = IDAD2TEM+1.
000153:
000154:
000155:
000156:                                                                                                  #  TEMPORARY ERASABLES FOR INTERRUPT ACTION
000157:
000158:                                                                                                  #  KEYTEMP1      =       WTEXIT          TEMP FOR KEYRUPT, UPRUPT
000159:                                                                                                  #  DSRUPTEM      =       WTEXIT          TEMP FOR DSPOUT
000160:                                                                                                  #  KEYTEMP2      =       RUPTAGN         TEMP FOR KEYRUPT, UPRUPT
000161:


000163:
000164:                                                                                                  #  THE INPUT CODES ASSUMED FOR THE KEYBOARD ARE,
000165:                                                                                                  #  0             10000
000166:                                                                                                  #  1             00001
000167:                                                                                                  #  9             01001
000168:                                                                                                  #  VERB          10001
000169:                                                                                                  #  ERROR RES     10010
000170:                                                                                                  #  KEY RLSE      11001
000171:                                                                                                  #  +             11010
000172:                                                                                                  #  -             11011
000173:                                                                                                  #  ENTER         11100
000174:                                                                                                  #  CLEAR         11110
000175:                                                                                                  #  NOUN          11111
000176:
000177:
000178:
000179:                                                                                                  #  OUTPUT FORMAT FOR DISPLAY PANEL. SET OUT0 TO  AAAABCCCCCDDDDD.
000180:                                                                                                  #  A-S SELECT A RELAYWORD. THIS DETERMINES WHICH PAIR OF CHARACTERS ARE
000181:                                                                                                  #  ENERGIZED.
000182:                                                                                                  #  B FOR SPECIAL RELAYS SUCH AS SIGNS ETC.
000183:                                                                                                  #  C-S  5 BIT RELAY CODE FOR LEFT CHAR OF PAIR SELECTED BY RELAYWORD
000184:                                                                                                  #  D-S  5 BIT RELAY CODE FOR RIGHTCHAR OF PAIR SELECTED BY RELAYWORD.
000185:
000186:                                                                                                  #  THE PANEL APPEARS AS FOLLOWS,
000187:                                                                                                  #  MD1   MD2                             (MAJOR MODE)
000188:                                                                                                  #  VD1   VD2 (VERB)      ND1     ND2     (NOUN)
000189:                                                                                                  #  R1D1  R1D2    R1D3    R1D4    R1D5    (R1)
000190:                                                                                                  #  R2D1  R2D2    R2D3    R2D4    R2D5    (R2)
000191:                                                                                                  #  R3D1  R3D2    R3D3    R3D4    R3D5    (R3)
000192:
000193:                                                                                                  #  EACH OF THESE IS GIVEN A DSPCOUNT NUMBER FOR USE WITHIN COMPUTATION ONLY
000194:                                                                                                  #  MD1   25      R2D1    11              ALL ARE OCTAL
000195:                                                                                                  #  MD2   24      R2D2    10
000196:                                                                                                  #  VD1   23      R2D3    7
000197:                                                                                                  #  VD2   22      R2D4    6
000198:                                                                                                  #  ND1   21      R2D5    5
000199:                                                                                                  #  ND2   20      R3D1    4
000200:                                                                                                  #  R1D1  16      R3D2    3
000201:                                                                                                  #  R1D2  15      R3D3    2
000202:                                                                                                  #  R1D3  14      R3D4    1
000203:                                                                                                  #  R1D4  13      R3D5    0
000204:                                                                                                  #  R1D5  12
000205:
000206:
000207:
000208:                                                                                                  #  THERE IS AN 11 REGISTER TABLE (DSPTAB) FOR THE DISPLAY PANEL.
000209:
000210:                                                                                                  #  DSPTAB        RELAYWD         BIT11           BITS 10-6       BITS 5-1
000211:                                                                                                  #  RELADD
000212:                                                                                                  #  10            1011                            MD1 (25)        MD2  (24)
000213:                                                                                                  #  9             1010            FLASH           VD1 (23)        VD2  (22)


000215:                                                                                                  #  8             1001                            ND1 (21)        ND2  (20)
000216:                                                                                                  #  7             1000            UPACT                           R1D1 (16)
000217:                                                                                                  #  6             0111            +R1             R1D2 (15)       R1D3 (14)
000218:                                                                                                  #  5             0110            -R1             R1D4 (13)       R1D5 (12)
000219:                                                                                                  #  4             0101            +R2             R2D1 (11)       R2D2 (10)
000220:                                                                                                  #  3             0100            -R2             R2D3 (7)        R2D4 (6)
000221:                                                                                                  #  2             0011                            R2D5 (5)        R3D1 (4)
000222:                                                                                                  #  1             0010            +R3             R3D2 (3)        R3D3 (2)
000223:                                                                                                  #  0             0001            -R3             R3D4 (1)        R3D5 (0)
000224:                                                                                                  #                0000        NO RELAYWORD
000225:
000226:
000227:
000228:                                                                                                  #  THE 5 BIT RELAY CODES ARE,
000229:                                                                                                  #  BLANK         00000
000230:                                                                                                  #  0             10101
000231:                                                                                                  #  1             00011
000232:                                                                                                  #  2             11001
000233:                                                                                                  #  3             11011
000234:                                                                                                  #  4             01111
000235:                                                                                                  #  5             11110
000236:                                                                                                  #  6             11100
000237:                                                                                                  #  7             10011
000238:                                                                                                  #  8             11101
000239:                                                                                                  #  9             11111
000240:


000242:
000243: 06,6000                                           SETLOC   14000
000244:
000245: 06,6000           30001        FLASHON            XCH      Q
000246: 06,6001           50112                           TS       DSEXIT
000247: 06,6002           07453                           TC       FLASHON1
000248:
000249: 06,6003           30001        FLASHOFF           XCH      Q
000250: 06,6004           50112                           TS       DSEXIT
000251: 06,6005           07462                           TC       FLASHOF1
000252:                                                                                                  #  END OF STANDARD LEAD INS.
000253:
000254:
000255:
000256: 06,6006           03265        CHARIN             TC       DSPLOCK1                              #  BLOCK DISPLAY SYST BUT SAVE OLD
000257: 06,6007           74513                           MASK     BIT4                                  #  C(DSPLOCK) FOR ERROR LIGHT RESET.
000258: 06,6010           50106                           TS       21/22REG
000259: 06,6011           30115                           XCH      MPAC
000260: 06,6012           50063                           TS       CHAR
000261: 06,6013           20000                           INDEX    A
000262: 06,6014           06015                           TC       +1                                    #  INPUT CODE    FUNCTION
000263: 06,6015           07440                           TC       CHARALRM                              #  0
000264: 06,6016           06072                           TC       NUM                                   #  1
000265: 06,6017           06072                           TC       NUM                                   #  2
000266: 06,6020           06072                           TC       NUM                                   #  3
000267: 06,6021           06072                           TC       NUM                                   #  4
000268: 06,6022           06072                           TC       NUM                                   #  5
000269: 06,6023           06072                           TC       NUM                                   #  6
000270: 06,6024           06072                           TC       NUM                                   #  7
000271: 06,6025           06063                           TC       89TEST                                #  10                8
000272: 06,6026           06063                           TC       89TEST                                #  11                9
000273: 06,6027           07440                           TC       CHARALRM                              #  12
000274: 06,6030           07440                           TC       CHARALRM                              #  13
000275: 06,6031           07440                           TC       CHARALRM                              #  14
000276: 06,6032           07440                           TC       CHARALRM                              #  15
000277: 06,6033           07440                           TC       CHARALRM                              #  16
000278: 06,6034           07440                           TC       CHARALRM                              #  17
000279: 06,6035           06070                           TC       NUM        -2                         #  20                0
000280: 06,6036           06252                           TC       VERB                                  #  21                VERB
000281: 06,6037           06402                           TC       ERROR                                 #  22                ERROR LIGHT RESET
000282: 06,6040           06057                           TC       ABORTCAL                              #  23                ABORT
000283: 06,6041           07440                           TC       CHARALRM                              #  24
000284: 06,6042           07440                           TC       CHARALRM                              #  25
000285: 06,6043           07440                           TC       CHARALRM                              #  26
000286: 06,6044           07440                           TC       CHARALRM                              #  27
000287: 06,6045           07440                           TC       CHARALRM                              #  30
000288: 06,6046           07475                           TC       VBRELDSP                              #  31                KEY RELEASE
000289: 06,6047           06316                           TC       POSGN                                 #  32                +
000290: 06,6050           06302                           TC       NEGSGN                                #  33                -
000291: 06,6051           06055                           TC       ENTERJMP                              #  34                ENTER
000292: 06,6052           07440                           TC       CHARALRM                              #  35


000294: 06,6053           06501                           TC       CLEAR                                 #  36                CLEAR
000295: 06,6054           06274                           TC       NOUN                                  #  37                NOUN
000296:
000297:
000298:
000299: 06,6055           05720        ENTERJMP           TC       POSTJUMP
000300: 06,6056           16007                           CADR     ENTER
000301:
000302: 06,6057           36062        ABORTCAL           CAF      OCT32
000303: 06,6060           05720                           TC       POSTJUMP                              #  FORCE DECODING OF VERB 72 AND DO RELDSP.
000304: 06,6061           16136                           CADR     JAMEXTVB
000305:
000306: 06,6062           00032        OCT32              OCT      32
000307:
000308:
000309:
000310: 06,6063           34473        89TEST             CAF      THREE
000311: 06,6064           70615                           MASK     DECBRNCH
000312: 06,6065           10000                           CCS      A
000313: 06,6066           06072                           TC       NUM                                   #  IF DECBRNCH IS +, 8 OR 9 OK
000314: 06,6067           07440                           TC       CHARALRM                              #  IF DECBRNCH IS +0, REJECT 8 OR 9
000315:
000316:
000317:
000318:                                                                                                  #  NUM ASSEMBLES OCTAL 3 BITS AT A TIME. FOR DECIMAL IT CONVERTS INCOMING
000319:                                                                                                  #  WORD AS A FRACTION, KEEPING RESULTS TO DP.
000320:                                                                                                  #  OCTAL RESULTS ARE LEFT IN XREG, YREG, OR ZREG. HI PART OF DEC IN XREG,
000321:                                                                                                  #  YREG, ZREG. THE LOW PARTS IN XREGLP, YREGLP, OR ZREGLP)
000322:                                                                                                  #  DECBRNCH IS LEFT AT +0 FOR OCT, +1 FOR + DEC, +2 FOR - DEC.
000323:                                                                                                  #  IF DSPCOUNT WAS LEFT -, NO MORE DATA IS ACCEPTED.
000324:
000325: 06,6070           35501                           CAF      ZERO
000326: 06,6071           50063                           TS       CHAR
000327: 06,6072           10614        NUM                CCS      DSPCOUNT
000328: 06,6073           06077                           TC       +4                                    #  +
000329: 06,6074           06077                           TC       +3                                    #  +0
000330: 06,6075           06076                           TC       +1                                    #  -BLOCK DATA IN IF DSPCOUNT IS -
000331: 06,6076           02124                           TC       ENDOFJOB                              #  -0
000332: 06,6077           06222                           TC       GETINREL
000333: 06,6100           10633                           CCS      CLPASS                                #  IF CLPASS IS + OR +0, MAKE IT +0.
000334: 06,6101           35501                           CAF      ZERO
000335: 06,6102           50633                           TS       CLPASS
000336: 06,6103           06104                           TC       +1
000337: 06,6104           20063                           INDEX    CHAR
000338: 06,6105           32652                           CAF      RELTAB
000339: 06,6106           73220                           MASK     LOW5
000340: 06,6107           50111                           TS       CODE
000341: 06,6110           30614                           XCH      DSPCOUNT
000342: 06,6111           50104                           TS       COUNT
000343: 06,6112           50614                           TS       DSPCOUNT


000345: 06,6113           07341                           TC       DSPIN
000346: 06,6114           34473                           CAF      THREE
000347: 06,6115           70615                           MASK     DECBRNCH
000348: 06,6116           10000                           CCS      A                                     #  +0, OCTAL.  +1, + DEC.  +2, - DEC.
000349: 06,6117           06130                           TC       DECTOBIN                              #  +
000350: 06,6120           20076                           INDEX    INREL                                 #  +0 OCTAL
000351: 06,6121           30602                           XCH      VERBREG
000352: 06,6122           50022                           TS       CYL
000353: 06,6123           40022                           CS       CYL
000354: 06,6124           40022                           CS       CYL
000355: 06,6125           30022                           XCH      CYL
000356: 06,6126           60063                           AD       CHAR
000357: 06,6127           06146                           TC       ENDNMTST
000358: 06,6130           20076        DECTOBIN           INDEX    INREL
000359: 06,6131           30602                           XCH      VERBREG
000360: 06,6132           50115                           TS       MPAC                                  #  SUM X 2EXP-14 IN MPAC
000361: 06,6133           35501                           CAF      ZERO
000362: 06,6134           50116                           TS       MPAC       +1
000363: 06,6135           33232                           CAF      TEN                                   #  10 X 2EXP-14
000364: 06,6136           05416                           TC       SHORTMP                               #  10SUM X 2EXP-28 IN MPAC, MPAC+1
000365: 06,6137           30116                           XCH      MPAC       +1
000366: 06,6140           60063                           AD       CHAR
000367: 06,6141           50116                           TS       MPAC       +1
000368: 06,6142           06146                           TC       ENDNMTST                              #  NO OF
000369: 06,6143           60115                           AD       MPAC                                  #  OF MUST BE 5TH CHAR
000370: 06,6144           50115                           TS       MPAC
000371: 06,6145           06165                           TC       DECEND
000372: 06,6146           20076        ENDNMTST           INDEX    INREL
000373: 06,6147           50602                           TS       VERBREG
000374: 06,6150           40614                           CS       DSPCOUNT
000375: 06,6151           20076                           INDEX    INREL
000376: 06,6152           66211                           AD       CRITCON
000377: 06,6153           10000                           CCS      A
000378: 06,6154           07440                           TC       CHARALRM                              #  +      PATHOLOGICAL CASE
000379: 06,6155           07440                           TC       CHARALRM                              #  +0    IMPOSSIBLE
000380: 06,6156           06206                           TC       MORNUM                                #  -
000381: 06,6157           34473        ENDNUM             CAF      THREE
000382: 06,6160           70615                           MASK     DECBRNCH
000383: 06,6161           10000                           CCS      A
000384: 06,6162           06165                           TC       DECEND
000385: 06,6163           40614        ENDALL             CS       DSPCOUNT                              #  BLOCK NUMIN BY PLACING DSPCOUNT
000386: 06,6164           06207                           TC       MORNUM     +1                         #  NEGATIVELY
000387: 06,6165           34473        DECEND             CAF      THREE
000388: 06,6166           70615                           MASK     DECBRNCH
000389: 06,6167           20000                           INDEX    A
000390: 06,6170           06170                           TC       +0
000391: 06,6171           06175                           TC       +DECSGN                               #  + DEC
000392: 06,6172           05157                           TC       DMP                                   #  - DEC
000393: 06,6173           56217                           XCADR    NEGDECON
000394: 06,6174           06177                           TC       ENDECOM                               #  MULT SUM X 2EXP-28 IN MPAC, MPAC+1 BY


000396: 06,6175           05157        +DECSGN            TC       DMP                                   #  2EXP14/10EXP5. GIVES (SUM/10EXP5)X2EXP-14
000397: 06,6176           56215                           XCADR    DECON                                 #  IN MPAC, +1, +2.
000398: 06,6177           30117        ENDECOM            XCH      MPAC       +2
000399: 06,6200           20076                           INDEX    INREL
000400: 06,6201           50605                           TS       XREGLP     -2
000401: 06,6202           30116                           XCH      MPAC       +1
000402: 06,6203           20076                           INDEX    INREL
000403: 06,6204           50602                           TS       VERBREG
000404: 06,6205           06163                           TC       ENDALL
000405: 06,6206           10614        MORNUM             CCS      DSPCOUNT                              #  DECREMENT DSPCOUNT
000406: 06,6207           50614                           TS       DSPCOUNT
000407: 06,6210           02124                           TC       ENDOFJOB
000408:
000409: 06,6211           00022        CRITCON            OCT      22                                    #  (DEC 18)
000410: 06,6212           00020                           OCT      20                                    #  (DEC 16)
000411: 06,6213           00012                           OCT      12                                    #  (DEC 10)
000412: 06,6214           00005                           OCT      5
000413: 06,6215           00000                           OCT      0
000414:
000415: 06,6216           05174 13261  DECON              2DEC     1          E-5        B14             #  2EXP14/10EXP5 = .16384 DEC
000416:
000417: 06,6220           72603        NEGDECON           OCT      72603
000418: 06,6221           64516                           OCT      64516
000419:
000420:
000421:
000422:                                                                                                  #  GETINREL GETS PROPER DATA REG REL ADDRESS FOR CURRENT C(DSPCOUNT) AND
000423:                                                                                                  #  PUTS IN INTO INREL. +0 VERBREG, 1 NOUNREG, 2 XREG, 3 YREG, 4 ZREG.
000424:
000425: 06,6222           20614        GETINREL           INDEX    DSPCOUNT
000426: 06,6223           36226                           CAF      INRELTAB
000427: 06,6224           50076                           TS       INREL                                 #  (A TEMP, REG)
000428: 06,6225           00001                           TC       Q
000429:
000430: 06,6226           00004        INRELTAB           OCT      4                                     #  R3D5 (DSPCOUNT = 0)
000431: 06,6227           00004                           OCT      4                                     #  R3D4           =(1)
000432: 06,6230           00004                           OCT      4                                     #  R3D3           =(2)
000433: 06,6231           00004                           OCT      4                                     #  R3D2           =(3)
000434: 06,6232           00004                           OCT      4                                     #  R3D1           =(4)
000435: 06,6233           00003                           OCT      3                                     #  R2D5           =(5)
000436: 06,6234           00003                           OCT      3                                     #  R2D4           =(6)
000437: 06,6235           00003                           OCT      3                                     #  R2D3           =(7)
000438: 06,6236           00003                           OCT      3                                     #  R2D2           =(8D)
000439: 06,6237           00003                           OCT      3                                     #  R2D1           =(9D)
000440: 06,6240           00002                           OCT      2                                     #  R1D5           =(10D)
000441: 06,6241           00002                           OCT      2                                     #  R1D4           =(11D)
000442: 06,6242           00002                           OCT      2                                     #  R1D3           =(12D)
000443: 06,6243           00002                           OCT      2                                     #  R1D2           =(13D)
000444: 06,6244           00002                           OCT      2                                     #  R1D1           =(14D)
000445: 06,6245           03062                           TC       CCSHOLE                               #  NO DSPCOUNT NUMBER = 15D


000447: 06,6246           00001                           OCT      1                                     #  ND2            =(16D)
000448: 06,6247           00001                           OCT      1                                     #  ND1            =(17D)
000449: 06,6250           00000                           OCT      0                                     #  VD2            =(18D)
000450: 06,6251           00000                           OCT      0                                     #  VD1            =(19D)
000451:
000452:
000453:
000454: 06,6252           35501        VERB               CAF      ZERO
000455: 06,6253           50602                           TS       VERBREG
000456: 06,6254           50111                           TS       CODE                                  #  VERB CANT USE 2BLANK SINCE THAT TURNS
000457: 06,6255           33227                           CAF      VD1                                   #  THE FLASH OFF
000458: 06,6256           50614                           TS       DSPCOUNT
000459: 06,6257           50104                           TS       COUNT
000460: 06,6260           07341                           TC       DSPIN
000461: 06,6261           36211                           CAF      VD2
000462: 06,6262           50104                           TS       COUNT
000463: 06,6263           35501                           CAF      ZERO
000464: 06,6264           50111                           TS       CODE
000465: 06,6265           07341                           TC       DSPIN
000466: 06,6266           35501        N/VCOM             CAF      ZERO
000467: 06,6267           50615                           TS       DECBRNCH
000468: 06,6270           50613                           TS       REQRET                                #  SET FOR ENTPAS0
000469: 06,6271           33147                           CAF      ENDINST                               #  IF DSPALARM OCCURS BEFORE FIRST ENTPAS0
000470: 06,6272           50065                           TS       ENTRET                                #  OR NVSUB, ENTRET MUST ALREADY BE SET
000471:                                                                                                  #  TO TC ENDOFJOB
000472: 06,6273           02124                           TC       ENDOFJOB
000473: 06,6274           35501        NOUN               CAF      ZERO
000474: 06,6275           50603                           TS       NOUNREG
000475: 06,6276           33230                           CAF      ND1                                   #  ND1, OCT 21 (DEC 17)
000476: 06,6277           50614                           TS       DSPCOUNT
000477: 06,6300           06621                           TC       2BLANK
000478: 06,6301           06266                           TC       N/VCOM
000479:
000480:
000481:
000482: 06,6302  06,6211               VD2                =        CRITCON                               #  OCT 22
000483:
000484:
000485:
000486: 06,6302           06357        NEGSGN             TC       SIGNTEST
000487: 06,6303           06343                           TC       -ON
000488: 06,6304           35503                           CAF      TWO
000489: 06,6305           60615        BOTHSGN            AD       DECBRNCH                              #  SET DEC COMP BIT TO 1 (IN DECBRNCH)
000490: 06,6306           20076                           INDEX    INREL                                 #  BIT 5 FOR R1
000491: 06,6307           64510                           AD       BIT7                                  #  BIT 4 FOR R2
000492: 06,6310           50615                           TS       DECBRNCH                              #  BIT 3 FOR R3
000493: 06,6311           10633        FIXCLPAS           CCS      CLPASS                                #  IF CLPASS IS + OR +0, MAKE IT +0.
000494: 06,6312           35501                           CAF      ZERO
000495: 06,6313           50633                           TS       CLPASS
000496: 06,6314           06315                           TC       +1


000498: 06,6315           02124                           TC       ENDOFJOB
000499:
000500: 06,6316           06357        POSGN              TC       SIGNTEST
000501: 06,6317           06322                           TC       +ON
000502: 06,6320           34516                           CAF      ONE
000503: 06,6321           06305                           TC       BOTHSGN
000504:
000505: 06,6322           30001        +ON                XCH      Q
000506: 06,6323           50073                           TS       SIGNRET
000507: 06,6324           06222                           TC       GETINREL
000508: 06,6325           20076                           INDEX    INREL
000509: 06,6326           36352                           CAF      SGNTAB     -2
000510: 06,6327           50110                           TS       SGNOFF
000511: 06,6330           64516                           AD       ONE
000512: 06,6331           50064                           TS       SGNON
000513: 06,6332           35501        SGNCOM             CAF      ZERO
000514: 06,6333           50111                           TS       CODE
000515: 06,6334           30110                           XCH      SGNOFF
000516: 06,6335           07426                           TC       11DSPIN
000517: 06,6336           34504                           CAF      BIT11
000518: 06,6337           50111                           TS       CODE
000519: 06,6340           30064                           XCH      SGNON
000520: 06,6341           07426                           TC       11DSPIN
000521: 06,6342           00073                           TC       SIGNRET
000522: 06,6343           30001        -ON                XCH      Q
000523: 06,6344           50073                           TS       SIGNRET
000524: 06,6345           06222                           TC       GETINREL
000525: 06,6346           20076                           INDEX    INREL
000526: 06,6347           36352                           CAF      SGNTAB     -2
000527: 06,6350           50064                           TS       SGNON
000528: 06,6351           64516                           AD       ONE
000529: 06,6352           50110                           TS       SGNOFF
000530: 06,6353           06332                           TC       SGNCOM
000531:
000532: 06,6354           00005        SGNTAB             OCT      5                                     #  -R1
000533: 06,6355           00003                           OCT      3                                     #  -R2
000534: 06,6356           00000                           OCT      0                                     #  -R3
000535:
000536:
000537:
000538: 06,6357           30001        SIGNTEST           XCH      Q                                     #  ALLOWS +,- ONLY WHEN DSPCOUNT=R1D1,
000539: 06,6360           50073                           TS       SIGNRET                               #  R2D1, OR R3D1. ALLOWS ONLY FIRST OF
000540: 06,6361           34473                           CAF      THREE                                 #  CONSECUTIVE +/- CHARACTERS
000541: 06,6362           70615                           MASK     DECBRNCH
000542: 06,6363           10000                           CCS      A                                     #  IF LOW2 BITS OF DECBRNCH NOT = 0, SIGN
000543: 06,6364           02124                           TC       ENDOFJOB                              #  FOR THIS WORD ALREADY IN. REJECT.
000544: 06,6365           43171                           CS       R1D1
000545: 06,6366           06374                           TC       SGNTST1
000546: 06,6367           43172                           CS       R2D1
000547: 06,6370           06374                           TC       SGNTST1


000549: 06,6371           43173                           CS       R3D1
000550: 06,6372           06374                           TC       SGNTST1
000551: 06,6373           02124                           TC       ENDOFJOB                              #  NO MATCH FOUND. SIGN ILLEGAL
000552: 06,6374           60614        SGNTST1            AD       DSPCOUNT
000553: 06,6375           10000                           CCS      A
000554: 06,6376           00001                           TC       Q
000555: 06,6377           03062                           TC       CCSHOLE
000556: 06,6400           00001                           TC       Q
000557: 06,6401           00073                           TC       SIGNRET                               #  SIGN LEGAL
000558:
000559:
000560:
000561:                                                                                                  #  ERROR LIGHT RESET RESETS TMALM, DSPALARM (CHECK FAIL), PROGALM, UNBLOCKS
000562:                                                                                                  #  ENDPULSES, RESETS ERRUPT TRAP. IT ALSO FORCES BIT 12 OF ALL DSPTAB
000563:                                                                                                  #  ENTRIES TO ONE. RESETS UPACT LIGHT.
000564:
000565: 06,6402           44513        ERROR              CS       BIT4                                  #  RESTORE ORIGINAL C(DSPLOCK) BIT4 OF
000566: 06,6403           20017                           INHINT                                         #  STATE. THUS ERROR LIGHT RESET LEAVES
000567: 06,6404           70645                           MASK     DSPLOCK                               #  DSPLOCK UNCHANGED.
000568: 06,6405           60106                           AD       21/22REG
000569: 06,6406           50645                           TS       DSPLOCK
000570: 06,6407           44510                           CS       BIT7                                  #  RESET ERRUPT TRAP
000571: 06,6410           70011                           MASK     OUT1
000572: 06,6411           64510                           AD       BIT7
000573: 06,6412           50011                           TS       OUT1
000574: 06,6413           46500                           CS       CFAILCON                              #  RESET THE C RELAYS FOR IMU FAIL, CDUFAIL
000575: 06,6414           70723                           MASK     DSPTAB     +11D                       #  PIPA FAIL.
000576: 06,6415           64500                           AD       BIT15
000577: 06,6416           50723                           TS       DSPTAB     +11D
000578: 06,6417           46476                           CS       ERCON
000579: 06,6420           70011                           MASK     OUT1
000580: 06,6421           50011                           TS       OUT1
000581: 06,6422           33232        TSTAB              CAF      BINCON                                #  (DEC 10)
000582: 06,6423           50063                           TS       ERCNT                                 #  ERCNT = COUNT
000583: 06,6424           20017                           INHINT
000584: 06,6425           20063                           INDEX    ERCNT
000585: 06,6426           10710                           CCS      DSPTAB
000586: 06,6427           64516                           AD       ONE
000587: 06,6430           06435                           TC       ERPLUS
000588: 06,6431           64516                           AD       ONE
000589: 06,6432           40000        ERMINUS            CS       A
000590: 06,6433           76477                           MASK     NOTBIT12
000591: 06,6434           06440                           TC       ERCOM
000592: 06,6435           40000        ERPLUS             CS       A
000593: 06,6436           76477                           MASK     NOTBIT12
000594: 06,6437           40000                           CS       A                                     #  MIGHT WANT TO RESET CLPASS, DECBRNCH,
000595: 06,6440           20063        ERCOM              INDEX    ERCNT                                 #  ETC.
000596: 06,6441           50710                           TS       DSPTAB
000597: 06,6442           20016                           RELINT
000598: 06,6443           10063                           CCS      ERCNT


000600: 06,6444           06423                           TC       TSTAB      +1
000601: 06,6445           10727                           CCS      WASKSET
000602: 06,6446           06455                           TC       ERROPT
000603: 06,6447           06455                           TC       ERROPT
000604: 06,6450           06455                           TC       ERROPT
000605: 06,6451           30007                           XCH      IN3
000606: 06,6452           30007                           XCH      IN3
000607: 06,6453           74720                           MASK     LOW7
000608: 06,6454           50727                           TS       WASKSET
000609:
000610: 06,6455           10730        ERROPT             CCS      WASOPSET
000611: 06,6456           06465                           TC       ERROR1
000612: 06,6457           06465                           TC       ERROR1
000613: 06,6460           06465                           TC       ERROR1
000614: 06,6461           30007                           XCH      IN3
000615: 06,6462           30007                           XCH      IN3
000616: 06,6463           76475                           MASK     OPTICSB
000617: 06,6464           50730                           TS       WASOPSET
000618:
000619: 06,6465           35501        ERROR1             CAF      ZERO
000620: 06,6466           51763                           TS       FAILREG
000621: 06,6467           50726                           TS       OLDERR
000622: 06,6470           51764                           TS       SFAIL
000623: 06,6471           50111                           TS       CODE
000624: 06,6472           35362                           CAF      SEVEN
000625: 06,6473           07426                           TC       11DSPIN                               #  TURN OFF UPACT LIGHT
000626: 06,6474           02124                           TC       ENDOFJOB
000627:
000628: 06,6475           35000        OPTICSB            OCT      35000
000629: 06,6476           01131        ERCON              OCT      01131                                 #  BITS 1, 4, 5, 7, 10.
000630:                                                                                                  #  PROGALM, TMFAIL, CHECK FAIL, ERRUPT TRAP
000631:                                                                                                  #  END PULSES.
000632:
000633: 06,6477           73777        NOTBIT12           OCT      73777
000634: 06,6500           40340        CFAILCON           OCT      40340
000635:
000636:
000637:
000638:                                                                                                  #  CLEAR BLANKS WHICH R1, R2, R3 IS CURRENT OR LAST TO BE DISPLAYED (PERTINE
000639:                                                                                                  #  NT XREG,YREG,ZREG IS CLEARED). SUCCESSIVE CLEARS TAKE CARE OF EACH RX
000640:                                                                                                  #  L/ RC UNTIL R1 IS DONE. THEN NO FURTHER ACTION
000641:
000642:                                                                                                  #  THE SINGLE COMPONENT LOAD VERBS ALLOW ONLY THE SINGLE RC THAT IS
000643:                                                                                                  #  APPROPRIATE TO BE CLEARED.
000644:
000645:                                                                                                  #  CLPASS        +0  PASS0, CAN BE BACKED UP
000646:                                                                                                  #                +NZ  HIPASS, CAN BE BACKED UP
000647:                                                                                                  #                -NZ  PASS0, CANNOT BE BACKED UP
000648:
000649: 06,6501           10614        CLEAR              CCS      DSPCOUNT


000651: 06,6502           64516                           AD       ONE
000652: 06,6503           06505                           TC       +2
000653: 06,6504           64516                           AD       ONE
000654: 06,6505           20000                           INDEX    A                                     #  DO NOT CHANGE DSPCOUNT BECAUSE MAY
000655: 06,6506           36226                           CAF      INRELTAB                              #  FAIL LEGALTST.
000656: 06,6507           50076                           TS       INREL                                 #  MUST SET INREL, EVEN FOR HIPASS.
000657: 06,6510           10633                           CCS      CLPASS
000658: 06,6511           06516                           TC       CLPASHI                               #  +
000659: 06,6512           06514                           TC       +2                                    #  +0    IF CLPASS IS +0 OR -, IT IS PASS0
000660: 06,6513           06514                           TC       +1                                    #  -
000661: 06,6514           06545                           TC       LEGALTST
000662: 06,6515           06535                           TC       CLEAR1
000663: 06,6516           10076        CLPASHI            CCS      INREL
000664: 06,6517           50076                           TS       INREL
000665: 06,6520           06545                           TC       LEGALTST
000666: 06,6521           30613                           XCH      REQRET
000667: 06,6522           66617                           AD       DOUBLK     +2                         #  +3 TO - NUMBER. BACKS UP DATA REQUESTS
000668: 06,6523           50613                           TS       REQRET
000669: 06,6524           30076                           XCH      INREL
000670: 06,6525           50073                           TS       MIXTEMP                               #  TEMP STORAGE FOR INREL
000671: 06,6526           30602                           XCH      VERBREG                               #  DECREMENT VERB AND RE-DISPLAY
000672: 06,6527           64335                           AD       NEG1
000673: 06,6530           50602                           TS       VERBREG
000674: 06,6531           05654                           TC       BANKCALL
000675: 06,6532           16346                           CADR     UPDATVB
000676: 06,6533           30073                           XCH      MIXTEMP
000677: 06,6534           50076                           TS       INREL                                 #  RESTORE INREL
000678: 06,6535           06542        CLEAR1             TC       CLR5
000679: 06,6536           34516                           CAF      ONE
000680: 06,6537           60633                           AD       CLPASS                                #  ONLY IF CLPASS IS + OR +0,
000681: 06,6540           50633                           TS       CLPASS                                #  SET FOR HIGHER PASS.
000682: 06,6541           02124                           TC       ENDOFJOB
000683: 06,6542           30001        CLR5               XCH      Q
000684: 06,6543           50106                           TS       WRDRET                                #  USES 5BLANK  BUT AVOIDS ITS TC GETINREL
000685: 06,6544           06557                           TC       5BLANK     +3
000686: 06,6545           45503        LEGALTST           CS       TWO
000687: 06,6546           60076                           AD       INREL
000688: 06,6547           10000                           CCS      A
000689: 06,6550           00001                           TC       Q                                     #  LEGAL  INREL G/ 2
000690: 06,6551           03062                           TC       CCSHOLE
000691: 06,6552           02124                           TC       ENDOFJOB                              #  ILLEGAL   INREL= 0,1
000692: 06,6553           00001                           TC       Q                                     #  LEGAL    INREL = 2
000693:
000694:
000695:
000696:                                                                                                  #  5BLANK BLANKS 5 CHAR DISPLAY WORD IN R1, R2, OR R3. IT ALSO ZEROES XREG,
000697:                                                                                                  #  YREG, OR ZREG. PLACE ANY + DSPCOUNT NUMBER FOR PERTINENT RC INTO DSPCOUNT
000698:                                                                                                  #  DSPCOUNT IS LEFT SET TO LEFT MOST DSP NUMB FOR RC JUST BLANKED.
000699:
000700: 06,6554           30001        5BLANK             XCH      Q


000702: 06,6555           50106                           TS       WRDRET
000703: 06,6556           06222                           TC       GETINREL
000704: 06,6557           35501                           CAF      ZERO
000705: 06,6560           20076                           INDEX    INREL
000706: 06,6561           50602                           TS       VERBREG                               #  ZERO X, Y, Z REG.
000707: 06,6562           20076                           INDEX    INREL
000708: 06,6563           50605                           TS       XREGLP     -2
000709: 06,6564           50111                           TS       CODE
000710: 06,6565           20076                           INDEX    INREL                                 #  ZERO PERTINENT DEC COMP BIT.
000711: 06,6566           44510                           CS       BIT7                                  #  PROTECT OTHERS
000712: 06,6567           70615                           MASK     DECBRNCH
000713: 06,6570           76620                           MASK     BRNCHCON                              #  ZERO LOW 2 BITS.
000714: 06,6571           50615                           TS       DECBRNCH
000715: 06,6572           20076                           INDEX    INREL
000716: 06,6573           36610                           CAF      SINBLANK   -2                         #  BLANK ISOLATED CHAR SEPARATELY
000717: 06,6574           50104                           TS       COUNT
000718: 06,6575           07341                           TC       DSPIN
000719: 06,6576           20076        5BLANK1            INDEX    INREL
000720: 06,6577           36613                           CAF      DOUBLK     -2
000721: 06,6600           50614                           TS       DSPCOUNT
000722: 06,6601           06621                           TC       2BLANK
000723: 06,6602           45503                           CS       TWO
000724: 06,6603           60614                           AD       DSPCOUNT
000725: 06,6604           50614                           TS       DSPCOUNT
000726: 06,6605           06621                           TC       2BLANK
000727: 06,6606           20076                           INDEX    INREL
000728: 06,6607           33167                           CAF      R1D1       -2
000729: 06,6610           50614                           TS       DSPCOUNT                              #  SET DSPCOUNT TO LEFT MOST DSP NUMBER
000730: 06,6611           00106                           TC       WRDRET                                #  OF REG. JUST BLANKED
000731:
000732: 06,6612           00016        SINBLANK           OCT      16                                    #  DEC 14
000733: 06,6613           00005                           OCT      5
000734: 06,6614           00004                           OCT      4
000735: 06,6615           00015        DOUBLK             OCT      15                                    #  DEC 13
000736: 06,6616           00011                           OCT      11                                    #  DEC 9
000737: 06,6617           00003                           OCT      3
000738:
000739: 06,6620           77774        BRNCHCON           OCT      77774
000740:
000741:                                                                                                  #  2BLANK BLANKS TWO CHAR. PLACE DSP NUMBER OF LEFT CHAR  OF THE PAIR INTO
000742:                                                                                                  #  DSPCOUNT. THIS NUMBER IS LEFT IN DSPCOUNT
000743:
000744: 06,6621           30001        2BLANK             XCH      Q
000745: 06,6622           50112                           TS       BLANKRET
000746: 06,6623           40614                           CS       DSPCOUNT
000747: 06,6624           40000                           CS       A
000748: 06,6625           50021                           TS       SR
000749: 06,6626           46637                           CS       BLANKCON
000750: 06,6627           20017                           INHINT
000751: 06,6630           20021                           INDEX    SR


000753: 06,6631           30710                           XCH      DSPTAB
000754: 06,6632           10000                           CCS      A
000755: 06,6633           06640                           TC       INCNOUT                               #  IF OLD CONTENTS +,+1 TO NOUT
000756: 06,6634           03062                           TC       CCSHOLE
000757: 06,6635           20016                           RELINT                                         #  IF -,NOUT OK
000758: 06,6636           00112                           TC       BLANKRET
000759: 06,6637           04000        BLANKCON           OCT      4000
000760:
000761: 06,6640           30707        INCNOUT            XCH      NOUT
000762: 06,6641           64516                           AD       ONE
000763: 06,6642           50707                           TS       NOUT
000764: 06,6643           20001                           INDEX    Q
000765: 06,6644           00001                           TC       1                                     #  RETURN TO 2+ L(CALLING TC)
000766:


000768:
000769:                                                                                                  #  ENTER PASS 0 IS THE EXECUTE FUNCTION. HIGHER ORDER ENTERS ARE TO LOAD
000770:                                                                                                  #  DATA. THE SIGN OF REQRET DETERMINES THE PASS, + FOR PASS 0,- FOR HIGHER
000771:                                                                                                  #  PASSES.
000772:
000773: 07,6000                                           SETLOC   16000
000774:
000775: 07,6000           07354        NVSUBB             TC       NVSUB1                                #  STANDARD LEAD INS, DONT MOVE.
000776: 07,6001           07434        GRABUSYB           TC       GRABUSY1
000777: 07,6002           07456        NVSUBSYB           TC       NVSUBSY1
000778: 07,6003           30001        DSPMM              XCH      Q
000779: 07,6004           50063                           TS       UPDATRET
000780: 07,6005           07423                           TC       DSPMM1
000781: 07,6006           06705        LOADLV1            TC       LOADLV
000782:                                                                                                  #  END OF STANDARD LEAD INS.
000783:
000784:
000785:
000786: 07,6007           35501        ENTER              CAF      ZERO
000787: 07,6010           50633                           TS       CLPASS
000788: 07,6011           33147                           CAF      ENDINST
000789: 07,6012           50065                           TS       ENTRET
000790: 07,6013           10613                           CCS      REQRET
000791: 07,6014           06035                           TC       ENTPAS0                               #  IF +, PASS 0
000792: 07,6015           06035                           TC       ENTPAS0                               #  IF +, PASS 0
000793: 07,6016           06017                           TC       +1                                    #  IF -, NOT PASS 0
000794: 07,6017           34473                           CAF      THREE                                 #  IF DEC, ALARM IF LESS THAN 5 CHAR IN.
000795: 07,6020           70615                           MASK     DECBRNCH                              #  BUT LEAVE REQRET - AND FLASH ON, SO
000796: 07,6021           10000                           CCS      A                                     #  OPERATOR CAN SUPPLY MISSING NUMERICAL
000797: 07,6022           06024                           TC       +2                                    #  CHARACTERS AND CONTINUE.
000798: 07,6023           06030                           TC       ACCEPTWD                              #  OCTAL. ANY NUMBER OF CHAR OK.
000799: 07,6024           10614                           CCS      DSPCOUNT
000800: 07,6025           06356                           TC       GODSPALM                              #  LESS THAN 5 CHAR DEC(DSPCOUNT IS +)
000801: 07,6026           06356                           TC       GODSPALM                              #  LESS THAN 5 CHAR DEC(DSPCOUNT IS +)
000802: 07,6027           06030                           TC       +1                                    #  5 CHAR IN (DSPCOUNT IS -)
000803: 07,6030           40613        ACCEPTWD           CS       REQRET                                #  5 CHAR IN (DSPCOUNT IS -)
000804: 07,6031           50613                           TS       REQRET                                #  SET REQRET +.
000805: 07,6032           05654                           TC       BANKCALL
000806: 07,6033           14003                           CADR     FLASHOFF
000807: 07,6034           00613                           TC       REQRET
000808:
000809: 07,6035     0065               ENTEXIT            =        ENTRET
000810:
000811: 07,6035           35501        ENTPAS0            CAF      ZERO                                  #   NOUN VERB SUB ENTERS HERE
000812: 07,6036           50615                           TS       DECBRNCH
000813: 07,6037           40602        TESTVB             CS       VERBREG                               #  IF VERB IS 32-77, SKIP NOUN TEST
000814: 07,6040           66043                           AD       LOWVERB                               #  32-VB
000815: 07,6041           10000                           CCS      A
000816: 07,6042           06046                           TC       TESTNN                                #  VERB L/ 32
000817: 07,6043           00032        LOWVERB            OCT      32                                    #  LOWER VERB THAT AVOIDS NOUN TEST
000818: 07,6044           06045                           TC       +1                                    #  VERB G/ 32


000820: 07,6045           06130                           TC       VERBFAN                               #  VERB=32
000821: 07,6046           36107        TESTNN             CAF      LODNNLOC                              #  SWITCH BANKS TO NOUN TABLE READING
000822: 07,6047           05662                           TC       SWCALL                                #  ROUTINE.
000823: 07,6050           20107                           INDEX    MIXBR
000824: 07,6051           06051                           TC       +0
000825: 07,6052           06054                           TC       +2                                    #  NORMAL
000826: 07,6053           06210                           TC       MIXNOUN                               #  MIXED
000827: 07,6054           10054                           CCS      NNADTEM                               #  NORMAL
000828: 07,6055           06126                           TC       VERBFAN    -2                         #       NORMAL IF +
000829: 07,6056           06356                           TC       GODSPALM                              #  NOT IN USE   IF +0
000830: 07,6057           06067                           TC       REQADD                                #  SPECIFY MACHINE ADDRESS IF -
000831: 07,6060           33173                           CAF      R3D1                                  #  AUGMENT MACHINE ADDRESS IF -0
000832: 07,6061           50614                           TS       DSPCOUNT
000833: 07,6062           30624                           XCH      NOUNADD
000834: 07,6063           64516                           AD       ONE
000835: 07,6064           50624                           TS       NOUNADD
000836: 07,6065           07225                           TC       DSPOCTWD
000837: 07,6066           06130                           TC       VERBFAN
000838: 07,6067           34500        REQADD             CAF      BIT15                                 #  SET CLPASS FOR PASS0 ONLY
000839: 07,6070           50633                           TS       CLPASS
000840: 07,6071           43147                           CS       ENDINST
000841: 07,6072           60065                           AD       ENTEXIT
000842: 07,6073           10000                           CCS      A                                     #  TEST IF REACHED HERE FROM INTERNAL OR
000843: 07,6074           06110                           TC       INTMATBS                              #                FROM EXTERNAL
000844: 07,6075           03062                           TC       CCSHOLE
000845: 07,6076           06110                           TC       INTMATBS
000846: 07,6077           06304                           TC       REQDATZ                               #  EXTERNAL MACH ADDR TO BE SPECIFIED
000847: 07,6100           10615                           CCS      DECBRNCH
000848: 07,6101           06356                           TC       GODSPALM                              #  ALARM IF DECIMAL USED FOR MATBS
000849: 07,6102           30606                           XCH      ZREG                                  #  OCTAL USED    OK
000850: 07,6103           50624                           TS       NOUNADD
000851: 07,6104           36107                           CAF      LODNNLOC                              #  SWITCH BANKS TO NOUN TABLE READING
000852: 07,6105           05662                           TC       SWCALL                                #  ROUTINE.
000853: 07,6106           06130                           TC       VERBFAN
000854:
000855: 07,6107           13153        LODNNLOC           CADR     LODNNTAB
000856:
000857: 07,6110           44513        INTMATBS           CS       BIT4
000858: 07,6111           70602                           MASK     VERBREG                               #  MAKES VB 15 LOOK LIKE VB 05.
000859: 07,6112           66115                           AD       NEG5
000860: 07,6113           10000                           CCS      A
000861: 07,6114           06120                           TC       DSPADD                                #  VB NOT = 05 OR 15, DISPLAY ADDRESS.
000862: 07,6115           77772        NEG5               OCT      77772
000863: 07,6116           06120                           TC       DSPADD                                #  VB NOT = 05 OR 15, DISPLAY ADDRESS.
000864: 07,6117           06130                           TC       VERBFAN                               #  VB = 05 OR 15, DO NOT DISPLAY ADDRESS.
000865: 07,6120           33173        DSPADD             CAF      R3D1
000866: 07,6121           50614                           TS       DSPCOUNT
000867: 07,6122           40624                           CS       NOUNADD
000868: 07,6123           40000                           CS       A
000869: 07,6124           07225                           TC       DSPOCTWD


000871: 07,6125           06130                           TC       VERBFAN
000872:
000873: 07,6126           64516                           AD       ONE
000874: 07,6127           50624                           TS       NOUNADD
000875: 07,6130           46143        VERBFAN            CS       LST2CON
000876: 07,6131           60602                           AD       VERBREG                               #  VERB-LST2CON
000877: 07,6132           10000                           CCS      A
000878: 07,6133           64516                           AD       ONE                                   #  VERB G/ LST2CON
000879: 07,6134           06136                           TC       +2
000880: 07,6135           06145                           TC       VBFANDIR                              #  VERB L/ LST2CON
000881: 07,6136           50115        JAMEXTVB           TS       MPAC                                  #  SPECIAL ENTRY FOR FORCING EXTENDED VERB.
000882: 07,6137           03323                           TC       RELDSP                                #  RELEASE DISPLAY SYST
000883: 07,6140           30115                           XCH      MPAC                                  #  ALSO TURN OFF RELEASE DISPLAY SYST LIGHT
000884: 07,6141           66144                           AD       LST2CADR
000885: 07,6142           05723                           TC       BANKJUMP
000886: 07,6143           00040        LST2CON            OCT      40                                    #  FIRST LST2 VERB
000887: 07,6144           12000        LST2CADR           CADR     LST2FAN                               #  THE LIST2 FAN IS LOCATED IN BANK 05
000888:
000889: 07,6145           20602        VBFANDIR           INDEX    VERBREG
000890: 07,6146           36150                           CAF      VERBTAB
000891: 07,6147           05723                           TC       BANKJUMP
000892:
000893: 07,6150           16356        VERBTAB            CADR     GODSPALM                              #  VB00 ILLEGAL
000894: 07,6151           16372                           CADR     DSPA                                  #  VB01 DISPLAY OCT COMP 1 (R1)
000895: 07,6152           16377                           CADR     DSPB                                  #  VB02 DISPLAY OCT COMP 2 (R1)
000896: 07,6153           16404                           CADR     DSPC                                  #  VB03 DISPLAY OCT COMP 3 (R1)
000897: 07,6154           16365                           CADR     DSPAB                                 #  VB04 DISPLAY OCT COMP 1,2 (R1,R2)
000898: 07,6155           16360                           CADR     DSPABC                                #  VB05 DISPLAY OCT COMP 1,2,3 (R1,R2,R3)
000899: 07,6156           16476                           CADR     DECDSP                                #  VB06 DECIMAL DISPLAY
000900: 07,6157           15030                           CADR     DSPDPDEC                              #  VB07 DP DECIMAL DISPLAY (R1,R2)
000901: 07,6160           17342                           CADR     VBRQWAIT                              #  VB10 REQUEST WAITLIST
000902: 07,6161           17102                           CADR     MONITOR                               #  VB11 MONITOR OCT COMP 1 (R1)
000903: 07,6162           17102                           CADR     MONITOR                               #  VB12 MONITOR OCT COMP 2 (R1)
000904: 07,6163           17102                           CADR     MONITOR                               #  VB13 MONITOR OCT COMP 3 (R1)
000905: 07,6164           17102                           CADR     MONITOR                               #  VB14 MONITOR OCT COMP 1,2 (R1,R2)
000906: 07,6165           17102                           CADR     MONITOR                               #  VB15 MONITOR OCT COMP 1,2,3 (R1,R2,R3)
000907: 07,6166           17102                           CADR     MONITOR                               #  VB16 MONITOR DECIMAL
000908: 07,6167           17102                           CADR     MONITOR                               #  VB17 MONITOR DP DEC  (R1,R2)
000909: 07,6170           17321        REQEXLOC           CADR     VBRQEXEC                              #  VB20 REQUEST EXECUTIVE
000910: 07,6171           16645                           CADR     ALOAD                                 #  VB21 LOAD COMP 1 (R1)
000911: 07,6172           16655                           CADR     BLOAD                                 #  VB22 LOAD COMP 2 (R2)
000912: 07,6173           16671                           CADR     CLOAD                                 #  VB23 LOAD COMP 3 (R3)
000913: 07,6174           16620                           CADR     ABLOAD                                #  VB24 LOAD COMP 1,2 (R1,R2)
000914: 07,6175           16564                           CADR     ABCLOAD                               #  VB25 LOAD COMP 1,2,3 (R1,R2,R3)
000915: 07,6176           16356                           CADR     GODSPALM                              #  VB26 SPARE
000916: 07,6177           16356                           CADR     GODSPALM                              #  VB27 SPARE
000917: 07,6200           16356                           CADR     GODSPALM                              #  VB30 SPARE
000918: 07,6201           17216                           CADR     DSPBANK                               #  VB31 BANK DISPLAY
000919: 07,6202           15503                           CADR     BUMP                                  #  VB32 C(R2) INTO R3, C(R1) INTO R2
000920: 07,6203           15465                           CADR     VBPROC                                #  VB33 PROCEED WITHOUT DATA


000922: 07,6204           15472                           CADR     VBTERM                                #  VB34 TERMINATE CURRENT TEST OR LOAD REQ
000923: 07,6205           15475                           CADR     VBRELDSP                              #  VB35 RELEASE DISPLAY SYST
000924: 07,6206           10000                           CADR     SLAPB                                 #  VB36 FRESH START
000925: 07,6207           17273                           CADR     MMCHANG                               #  VB37 CHANGE MAJOR MODE
000926:
000927:
000928:
000929:                                                                                                  #  THE LIST2 VERBFAN IS LOCATED IN BANK 05.
000930:


000932:
000933:                                                                                                  #  NNADTAB CONTAINS A RELATIVE ADDRESS, IDADDREL(IN LOW 10 BITS), REFERRING
000934:                                                                                                  #  TO WHERE 3 CONSECUTIVE ADDRESSES ARE STORED (IN IDADDTAB).
000935:                                                                                                  #  MIXNOUN GETS DATA AND STORES IN MIXTEMP,+1,+2. IT SETS NOUNADD FOR
000936:                                                                                                  #  MIXTEMP.
000937:
000938: 07,6210           10054        MIXNOUN            CCS      NNADTEM
000939: 07,6211           06215                           TC       +4                                    #  +  IN USE
000940: 07,6212           06356                           TC       GODSPALM                              #  +0  NOT IN USE
000941: 07,6213           06215                           TC       +2                                    #  -  IN USE
000942: 07,6214           06215                           TC       +1                                    #  -0  IN USE
000943: 07,6215           44475                           CS       SIX
000944: 07,6216           60602                           AD       VERBREG
000945: 07,6217           10000                           CCS      A                                     #  AVOID MIXNOUN SWAP FOR OTHER THAN
000946: 07,6220           06130                           TC       VERBFAN                               #        DISPLAY VERBS
000947: 07,6221           03062                           TC       CCSHOLE
000948: 07,6222           06223                           TC       +1
000949: 07,6223           35503                           CAF      TWO
000950: 07,6224           50064        MIXNN1             TS       NOUNTEM
000951: 07,6225           66254                           AD       MIXAD
000952: 07,6226           50624                           TS       NOUNADD                               #  SET NOUNADD TO MIXTEMP + K
000953: 07,6227           20064                           INDEX    NOUNTEM
000954: 07,6230           40056                           CS       IDAD1TEM                              #  GET IDADDTAB ENTRY FOR COMPONENT K
000955: 07,6231           40000                           CS       A                                     #  OF NOUN.
000956: 07,6232           50063                           TS       DECOUNT
000957:                                                                                                  #  TEST FOR DP (FOR OCT DISPLAY). IF SO, GET
000958:                                                                                                  #    MINOR PART ONLY.
000959: 07,6233           72261                           MASK     HI5
000960: 07,6234           03203                           TC       LEFT5                                 #  SF ROUT NUMBER IN A
000961: 07,6235           06255                           TC       DPTEST
000962: 07,6236           06242                           TC       MIXNN2                                #  NO DP
000963: 07,6237           34516                           CAF      ONE                                   #  DP  GET MINOR PART
000964: 07,6240           60063                           AD       DECOUNT
000965: 07,6241           50063                           TS       DECOUNT
000966: 07,6242           30063        MIXNN2             XCH      DECOUNT
000967: 07,6243           74606                           MASK     LOW10                                 #  ESUBK (NO DP)  OR  (ESUBK)+1    FOR DP
000968: 07,6244           20000                           INDEX    A                                     #  PICK UP C(ESUBK)  NOT DP
000969: 07,6245           40000                           CS       0                                     #  OR C((ESUBK)+1)  FOR DP MINOR PART
000970: 07,6246           40000                           CS       A
000971: 07,6247           20624                           INDEX    NOUNADD
000972: 07,6250           30000                           XCH      0                                     #  STORE IN MIXTEM + K
000973: 07,6251           10064                           CCS      NOUNTEM
000974: 07,6252           06224                           TC       MIXNN1
000975: 07,6253           06130                           TC       VERBFAN
000976:
000977: 07,6254           00073        MIXAD              TC       MIXTEMP
000978:
000979:
000980:
000981: 07,6255           50110        DPTEST             TS       SFTEMP1                               #  ENTER WITH SF ROUT NUMBER IN A.
000982: 07,6256           30001                           XCH      Q                                     #  RETURNS TO L+1 IF NO DP


000984: 07,6257           30110                           XCH      SFTEMP1                               #  RETURNS TO L+2 IF DP
000985: 07,6260           20000                           INDEX    A
000986: 07,6261           06262                           TC       +1
000987: 07,6262           00110                           TC       SFTEMP1                               #  OCTAL ONLY  NO DP
000988: 07,6263           00110                           TC       SFTEMP1                               #  FRACT NO DP
000989: 07,6264           00110                           TC       SFTEMP1                               #  DEG  NO DP
000990: 07,6265           00110                           TC       SFTEMP1                               #  ARITH  NO DP
000991: 07,6266           06272                           TC       DPTEST1                               #  DP1OUT
000992: 07,6267           06272                           TC       DPTEST1                               #  DP2OUT
000993: 07,6270           00110                           TC       SFTEMP1                               #  OPDEG  NO DP
000994: 07,6271           06272                           TC       DPTEST1                               #  DP3OUT
000995: 07,6272           20110        DPTEST1            INDEX    SFTEMP1
000996: 07,6273           00001                           TC       1                                     #  RETURN TO L+2
000997:
000998:
000999:
001000: 07,6274           40001        REQDATX            CS       Q
001001: 07,6275           50613                           TS       REQRET
001002: 07,6276           33171                           CAF      R1D1
001003: 07,6277           06307                           TC       REQCOM
001004: 07,6300           40001        REQDATY            CS       Q
001005: 07,6301           50613                           TS       REQRET
001006: 07,6302           33172                           CAF      R2D1
001007: 07,6303           06307                           TC       REQCOM
001008: 07,6304           40001        REQDATZ            CS       Q
001009: 07,6305           50613                           TS       REQRET
001010: 07,6306           33173                           CAF      R3D1
001011: 07,6307           50614        REQCOM             TS       DSPCOUNT
001012: 07,6310           05654                           TC       BANKCALL
001013: 07,6311           14554                           CADR     5BLANK
001014: 07,6312           05654                           TC       BANKCALL
001015: 07,6313           14000                           CADR     FLASHON
001016: 07,6314           43147                           CS       ENDINST
001017: 07,6315           60065                           AD       ENTEXIT
001018: 07,6316           10000                           CCS      A
001019: 07,6317           06323                           TC       +4                                    #  ENTEXIT NOT ENDOFJOB. NVSUB INITIATED
001020: 07,6320           03062                           TC       CCSHOLE
001021: 07,6321           06323                           TC       +2                                    #  ENTEXIT NOT ENDOFJOB. NVSUB INITIATED
001022: 07,6322           00065                           TC       ENTEXIT                               #  ENTEXIT = ENDOFJOB. EXTERNALLY INITIATED
001023: 07,6323           45501                           CS       ZERO                                  #  NVSUB INITIATED LOAD. SET CADRSTOR TO -0
001024: 07,6324           50627                           TS       CADRSTOR
001025: 07,6325           00065                           TC       ENTEXIT
001026:
001027:                                                                                                  #  IF NVSUB INITIATED LOAD, SET CADRSTOR TO -0 TO TELL RECALTST TO RELEASE
001028:                                                                                                  #  DISPLAY IF ENDIDLE WAS NOT USED. (NECESSARY FOR DATAWAIT)
001029:
001030:
001031:
001032: 07,6326           50603                           TS       NOUNREG
001033: 07,6327           30001        UPDATNN            XCH      Q


001035: 07,6330           50063                           TS       UPDATRET
001036: 07,6331           36107                           CAF      LODNNLOC                              #  SWITCH BANKS TO NOUN TABLE READING
001037: 07,6332           05662                           TC       SWCALL                                #  ROUTINE.
001038: 07,6333           10054                           CCS      NNADTEM
001039: 07,6334           64516                           AD       ONE                                   #  NORMAL
001040: 07,6335           06340                           TC       PUTADD
001041: 07,6336           06341                           TC       PUTADD     +1                         #  MATBS  DONT CHANGE NOUNADD
001042: 07,6337           06341                           TC       PUTADD     +1                         #  MATBI  DONT CHANGE NOUNADD
001043: 07,6340           50624        PUTADD             TS       NOUNADD
001044: 07,6341           33230                           CAF      ND1
001045: 07,6342           50614                           TS       DSPCOUNT
001046: 07,6343           40603                           CS       NOUNREG
001047: 07,6344           06353                           TC       UPDAT1
001048:
001049: 07,6345           50602                           TS       VERBREG
001050: 07,6346           30001        UPDATVB            XCH      Q
001051: 07,6347           50063                           TS       UPDATRET
001052: 07,6350           33227                           CAF      VD1
001053: 07,6351           50614                           TS       DSPCOUNT
001054: 07,6352           40602                           CS       VERBREG
001055: 07,6353           40000        UPDAT1             CS       A
001056: 07,6354           07261                           TC       DSP2BIT
001057: 07,6355           00063                           TC       UPDATRET
001058:
001059:
001060:
001061: 07,6356           05720        GODSPALM           TC       POSTJUMP
001062: 07,6357           15442                           CADR     DSPALARM
001063:


001065:
001066:                                                                                                  #        NOUN TABLES
001067:                                                                                                  #  NOUN CODE L/55, NORMAL CASE. NOUN CODE G/E 55, MIXED NOUN CASE.
001068:                                                                                                  #  FOR NORMAL CASE, NNADTAB CONTAINS ONE MACHINE ADDRESS FOR EACH NOUN.
001069:                                                                                                  #  +0 INDICATES NOUN NOT USED.   - ENTRY IDICATES MACHINE ADDRESS TO BE
001070:                                                                                                  #  SPECIFIED.      -0 ENTRY INDICATES AUGMENT OF LAST MACHINE ADDRESS.
001071:
001072:                                                                                                  #  FOR MIXED CASE, NNADTAB CONTAINS ONE INDIRECT ADDRESS(IDADDREL) IN LOW
001073:                                                                                                  #  10 BITS, AND THE COMPONENT CODE NUMBER IN THE HIGH 5 BITS.
001074:
001075:                                                                                                  #  NNTYPTAB IS A PACKED TABLE OF THE FORM MMMMMNNNNNPPPPP.
001076:
001077:                                                                                                  #  FOR THE NORMAL CASE, M-S ARE THE COMPONENT CODE NUMBER.
001078:                                                                                                  #                       N-S ARE THE SF ROUTINE CODE NUMBER.
001079:                                                                                                  #                       P-S ARE THE SF CONSTANT CODE NUMBER.
001080:
001081:                                                                                                  #  MIXED CASE,M-S ARE THE SF CONSTANT3 CODE NUMBER       3 COMPONENT CASE
001082:                                                                                                  #             N-S ARE THE SF CONSTANT2 CODE NUMBER
001083:                                                                                                  #             P-S ARE THE SF CONSTANT1 CODE NUMBER
001084:                                                                                                  #             N-S ARE THE SF CONSTANT2 CODE NUMBER       2 COMPONENT CASE
001085:                                                                                                  #             P-S ARE THE SF CONSTANT1 CODE NUMBER
001086:                                                                                                  #             P-S ARE THE SF CONSTANT1 CODE NUMBER        1 COMPONENT CASE
001087:
001088:                                                                                                  #  THERE IS ALSO AN INDIRECT ADDRESS TABLE(IDADDTAB) FOR MIXED CASE ONLY.
001089:                                                                                                  #  ENTRY IS OF FORM RRRRREEEEEEEEEE. IDADDREL IS THE RELATIVE ADDRESS OF
001090:                                                                                                  #  THE FIRST OF THESE ENTRIES.
001091:                                                                                                  #  R-S ARE THE SF ROUTINE CODE NUMBERS FOR COMPONENT K
001092:                                                                                                  #  E-S ARE THE MACHINE ADDRESS FOR COMPONENT K
001093:                                                                                                  #  THERE IS ONE ENTRY IN THIS TABLE FOR EACH COMPONENT OF A MIXED NOUN
001094:                                                                                                  #  THEY ARE LISTED IN ORDER OF ASCENDING K.
001095:
001096:                                                                                                  #  IN OCTAL DISPLAY AND LOAD (OCT OR DEC) VERBS, EXCLUDE USE OF VERBS WHOSE
001097:                                                                                                  #  COMPONENT NUMBER IS GREATER THAN THE NUMBER OF COMPONENTS IN NOUN.
001098:                                                                                                  #  ALL MACHINE ADDRESS TO BE SPECIFIED NOUNS ARE 1 COMPONENT.
001099:                                                                                                  #  ONLY EXCEPTION IS NOUN 01 TO ALLOW OCTAL DISPLAYS AND LOADS OF
001100:                                                                                                  #  AN UNCONTOLLED NUMBER OF COMPONENTS.
001101:
001102:
001103:
001104:                                                                                                  #  IN MULTI-COMPONENT LOAD VERBS, NO MIXING OF OCTAL AND DECIMAL DATA
001105:                                                                                                  #  COMPONENT WORDS IS ALLOWED. ALARM IF VIOLATION.
001106:
001107:                                                                                                  #  IN DECIMAL LOADS OF DATA, 5 NUMERICAL CHARACTERS MUST BE KEYED IN
001108:                                                                                                  #  BEFORE EACH ENTER. IF NOT, ALARM.
001109:


001111:
001112:                                                                                                  #        DISPLAY VERBS
001113: 07,6360           45503        DSPABC             CS       TWO
001114: 07,6361           06430                           TC       COMPTEST
001115: 07,6362           20624                           INDEX    NOUNADD
001116: 07,6363           40002                           CS       2
001117: 07,6364           30101                           XCH      BUF        +2
001118: 07,6365           44516        DSPAB              CS       ONE
001119: 07,6366           06430                           TC       COMPTEST
001120: 07,6367           20624                           INDEX    NOUNADD
001121: 07,6370           40001                           CS       1
001122: 07,6371           30100                           XCH      BUF        +1
001123: 07,6372           06457        DSPA               TC       TSTFORDP
001124: 07,6373           20624                           INDEX    NOUNADD
001125: 07,6374           40000                           CS       0
001126: 07,6375           30077        DSPCOM1            XCH      BUF
001127: 07,6376           06411                           TC       DSPCOM2
001128: 07,6377           44516        DSPB               CS       ONE
001129: 07,6400           06430                           TC       COMPTEST
001130: 07,6401           20624                           INDEX    NOUNADD
001131: 07,6402           40001                           CS       1
001132: 07,6403           06375                           TC       DSPCOM1
001133: 07,6404           45503        DSPC               CS       TWO
001134: 07,6405           06430                           TC       COMPTEST
001135: 07,6406           20624                           INDEX    NOUNADD
001136: 07,6407           40002                           CS       2
001137: 07,6410           06375                           TC       DSPCOM1
001138: 07,6411           45503        DSPCOM2            CS       TWO                                   #  A  B  C  AB  ABC
001139: 07,6412           60602                           AD       VERBREG                               #  -1 -0 +1 +2  +3   IN A
001140: 07,6413           10000                           CCS      A                                     #  +0 +0 +0 +1  +2    IN A AFTER CCS
001141: 07,6414           06417                           TC       DSPCOM3
001142: 07,6415           00065                           TC       ENTEXIT
001143: 07,6416           06417                           TC       +1
001144: 07,6417           50064        DSPCOM3            TS       DISTEM                                #  +0,+1,+2 INTO DISTEM
001145: 07,6420           20000                           INDEX    A
001146: 07,6421           33171                           CAF      R1D1
001147: 07,6422           50614                           TS       DSPCOUNT
001148: 07,6423           20064                           INDEX    DISTEM
001149: 07,6424           40077                           CS       BUF
001150: 07,6425           07225                           TC       DSPOCTWD
001151: 07,6426           30064                           XCH      DISTEM
001152: 07,6427           06413                           TC       DSPCOM2    +2
001153:
001154:                                                                                                  #  COMPTEST ALARMS IF COMPONENT NUMBER OF VERB(LOAD OR OCT DISPLAY) IS
001155:                                                                                                  #  GREATER THAN THE HIGHEST COMPONENT NUMBER OF NOUN.
001156:                                                                                                  #  NOUN 01 IS EXCLUDED FROM TEST.
001157: 07,6430           50110        COMPTEST           TS       SFTEMP1                               #  - VERB COMP
001158: 07,6431           30001                           XCH      Q
001159: 07,6432           50111                           TS       SFTEMP2
001160: 07,6433           44516        COMPTST1           CS       ONE
001161: 07,6434           60603                           AD       NOUNREG


001163: 07,6435           10000                           CCS      A
001164: 07,6436           06442                           TC       +4                                    #  NOUN NOT = 01
001165: 07,6437           03062                           TC       CCSHOLE
001166: 07,6440           06442                           TC       +2                                    #  NOUN NOT = 01
001167: 07,6441           00111                           TC       SFTEMP2                               #  NOUN = 01. ANY COMP OK
001168: 07,6442           20107                           INDEX    MIXBR
001169: 07,6443           36473                           CAF      COMPICK    -1
001170: 07,6444           20000                           INDEX    A
001171: 07,6445           40000                           CS       0                                     #  MUST NOT DESTROY NNADTEM OR NNTYPTEM
001172: 07,6446           40000                           CS       A
001173: 07,6447           72261                           MASK     HI5
001174: 07,6450           03203                           TC       LEFT5                                 #  NOUN COMP
001175: 07,6451           60110                           AD       SFTEMP1                               #  NOUN COMP - VERB COMP
001176: 07,6452           10000                           CCS      A
001177: 07,6453           00111                           TC       SFTEMP2                               #  NOUN COMP G/ VERB COMP
001178: 07,6454           03062                           TC       CCSHOLE
001179: 07,6455           06356                           TC       GODSPALM                              #  NOUN COMP L/ VERB COMP
001180: 07,6456           00111                           TC       SFTEMP2                               #  NOUN COMP = VERB COMP
001181:
001182:
001183:
001184: 07,6457           30001        TSTFORDP           XCH      Q                                     #  TEST FOR DP. IF SO, GET MINOR PART ONLY.
001185: 07,6460           50063                           TS       DECOUNT
001186: 07,6461           20107                           INDEX    MIXBR
001187: 07,6462           06462                           TC       +0
001188: 07,6463           06465                           TC       +2                                    #  NORMAL
001189: 07,6464           00063                           TC       DECOUNT                               #  MIXED CASE ALREADY HANDLED IN MIXNOUN
001190: 07,6465           06740                           TC       SFRUTNOR
001191: 07,6466           06255                           TC       DPTEST
001192: 07,6467           00063                           TC       DECOUNT                               #  NO DP
001193: 07,6470           30624                           XCH      NOUNADD                               #  DP
001194: 07,6471           64516                           AD       ONE
001195: 07,6472           50624                           TS       NOUNADD                               #  E+1 INTO NOUNADD FOR MINOR PART.
001196: 07,6473           00063                           TC       DECOUNT
001197:
001198:
001199:
001200: 07,6474           00055        COMPICK            ADRES    NNTYPTEM
001201: 07,6475           00054                           ADRES    NNADTEM
001202:
001203: 07,6476           20107        DECDSP             INDEX    MIXBR                                 #  NORMAL                MIXED
001204: 07,6477           36473                           CAF      COMPICK    -1                         #  ADRES NNTYPTEM        ADRES NNADTEM
001205: 07,6500           20000                           INDEX    A
001206: 07,6501           40000                           CS       0                                     #  MUST NOT DESTROY NNADTEM OR NNTYPTEM
001207: 07,6502           40000                           CS       A                                     #  C(NNTYPTEM)           C(NNADTEM)
001208: 07,6503           72261                           MASK     HI5                                   #  GET HI5 OF NNTYPTAB(NORM) OF NNADTAB(MIX)
001209: 07,6504           03203                           TC       LEFT5
001210: 07,6505           50063                           TS       DECOUNT                               #  COMP NUMBER INTO DECOUNT
001211: 07,6506           50064        DSPDCGET           TS       DECTEM                                #  PICKS UP DATA
001212: 07,6507           60624                           AD       NOUNADD                               #  DECTEM  1COMP +0, 2COMP +1, 3COMP +2


001214: 07,6510           20000                           INDEX    A
001215: 07,6511           40000                           CS       0
001216: 07,6512           20064                           INDEX    DECTEM
001217: 07,6513           30604                           XCH      XREG                                  #  CANT USE BUF SINCE DMP USES IT.
001218: 07,6514           10064                           CCS      DECTEM
001219: 07,6515           06506                           TC       DSPDCGET                              #  MORE TO GET
001220: 07,6516           35501        DSPDCPUT           CAF      ZERO                                  #  DISPLAYS DATA
001221: 07,6517           50116                           TS       MPAC       +1                         #  DECOUNT 1COMP +0, 2COMP +1, 3COMP +2
001222: 07,6520           50117                           TS       MPAC       +2
001223: 07,6521           20063                           INDEX    DECOUNT
001224: 07,6522           33171                           CAF      R1D1
001225: 07,6523           50614                           TS       DSPCOUNT
001226: 07,6524           20063                           INDEX    DECOUNT
001227: 07,6525           40604                           CS       XREG
001228: 07,6526           50115                           TS       MPAC
001229: 07,6527           06756                           TC       SFCONUM                               #  SF CON NUMB IN A
001230: 07,6530           50111                           TS       SFTEMP2
001231: 07,6531           05654                           TC       BANKCALL                              #  SWITCH BANKS TO SF CONSTANT READING
001232: 07,6532           13213                           CADR     GTSFOUT                               #  ROUTINE. LOADS SFTEMP1, SFTEMP2.
001233: 07,6533           20107                           INDEX    MIXBR
001234: 07,6534           06534                           TC       +0
001235: 07,6535           06540                           TC       DSPSFNOR
001236: 07,6536           06746                           TC       SFRUTMIX
001237: 07,6537           06551                           TC       DECDSP3
001238:
001239: 07,6540           06740        DSPSFNOR           TC       SFRUTNOR
001240: 07,6541           06551                           TC       DECDSP3
001241:
001242: 07,6542           05654        DSPDCEND           TC       BANKCALL                              #  ALL SFOUT ROUTINES END HERE
001243: 07,6543           15241                           CADR     DSPDECWD
001244: 07,6544           10063                           CCS      DECOUNT
001245: 07,6545           06547                           TC       +2
001246: 07,6546           00065                           TC       ENTEXIT
001247: 07,6547           50063                           TS       DECOUNT
001248: 07,6550           06516                           TC       DSPDCPUT                              #  MORE TO DISPLAY
001249:
001250:
001251:
001252: 07,6551           20000        DECDSP3            INDEX    A
001253: 07,6552           36554                           CAF      SFOUTABR
001254: 07,6553           05723                           TC       BANKJUMP
001255:
001256: 07,6554           15442        SFOUTABR           CADR     DSPALARM                              #  ALARM IF DEC DISP WITH OCTAL ONLY NOUN
001257: 07,6555           16542                           CADR     DSPDCEND
001258: 07,6556           14645                           CADR     DEGOUTSF
001259: 07,6557           14743                           CADR     ARTOUTSF
001260:
001261: 07,6560           14752                           CADR     DP1OUTSF
001262: 07,6561           14757                           CADR     DP2OUTSF
001263: 07,6562           14653                           CADR     OPDEGOUT


001265: 07,6563           14761                           CADR     DP3OUTSF
001266: 07,6564                        ENDRTOUT           EQUALS
001267:
001268:
001269:
001270:                                                                                                  #        THE FOLLOWING IS A TYPICAL SF ROUTINE. IT USES MPAC. LEAVES RESU
001271:                                                                                                  #  LTS IN MPAC, MPAC+1. ENDS WITH TC DSPDCEND
001272:
001273:
001274:
001275: 06,6645                                           SETLOC   INCNOUT    +5
001276:
001277:                                                                                                  #     DEGOUTSF SCALES BY .18 THE LOW 14 BITS OF ANGLE , ADDING .18 FOR
001278:                                                                                                  #  NUMBERS IN THE NEGATIVE (AGC) RANGE.
001279:
001280: 06,6645           35501        DEGOUTSF           CAF      ZERO
001281: 06,6646           50117                           TS       MPAC       +2                         #  SET INDEX FOR FULL SCALE
001282: 06,6647           06707                           TC       FIXRANGE
001283: 06,6650           06652                           TC       +2                                    #  NO AUGMENT NEEDED (SFTEMP1 AND 2 ARE 0)
001284: 06,6651           06700                           TC       SETAUG                                #  SET AUGMENTER ACCORDING TO C(MPAC +2)
001285: 06,6652           06722                           TC       DEGCOM
001286:
001287:                                                                                                  #    OPDEGOUT SCALES BY .09 FOR ONE RANGE AND BY .45 FOR THE OTHER.
001288:                                                                                                  #  FOR THE .45 RANGE A .2 BIAS IS ALSO ADDED.
001289:
001290:
001291:
001292:                                                                                                  #  OPDEGOUT USED TO TEST BIT 13 OF WASOPSET (1 = 90 DEG RANGE, 0 = 180).
001293:                                                                                                  #  SINCE THAT BIT IS ALWAYS 1 IN BLOCK 50 - 100, DON;T TEST IT NOW
001294: 06,6653           10115        OPDEGOUT           CCS      MPAC                                  #  90 DEG RANGE ALWAYS
001295: 06,6654           30115                           XCH      MPAC                                  #  IF POS OR POS 0 THEN ADD BIAS AND
001296: 06,6655           06660                           TC       +3                                    #  CORRECT FOR POSSIBLE OVERFLOW
001297: 06,6656           06670                           TC       NEGOPT                                #  IF NEG NON ZERO
001298: 06,6657           64335                           AD       NEG1                                  #  IF NEG ZERO SUBTRACT 1
001299: 06,6660           66742                           AD       20BIAS
001300: 06,6661           50115        BIASCOM            TS       MPAC                                  #  TEST FOR OVERFLOW
001301: 06,6662           06666                           TC       +4                                    #  NO OVFLOW
001302: 06,6663           34500                           CAF      BIT15                                 #  IF OVFLOW
001303: 06,6664           60115                           AD       MPAC
001304: 06,6665           50115                           TS       MPAC
001305: 06,6666           35503                           CAF      TWO                                   #  SET MULTIPLIER TO .45
001306: 06,6667           06646                           TC       DEGOUTSF   +1
001307:
001308: 06,6670           30115        NEGOPT             XCH      MPAC                                  #  NEGATIVE CASE
001309: 06,6671           66742                           AD       20BIAS
001310: 06,6672           10000                           CCS      A
001311: 06,6673           06661                           TC       BIASCOM                               #  IF POS THEN SUBTRACT 1 BECAUSE OF 2SCOM
001312: 06,6674           03062                           TC       CCSHOLE
001313: 06,6675           64516                           AD       ONE                                   #  IF NEG RESTORE SUM
001314: 06,6676           40000                           COM                                            #  IF NEG 0 LEAVE NEG 0


001316: 06,6677           06661                           TC       BIASCOM
001317:
001318: 06,6700           20117        SETAUG             INDEX    MPAC       +2                         #  LOADS SFTEMP1 AND SFTEMP2 WITH THE
001319: 06,6701           36737                           CAF      DEGTAB2                               #  DP AUGMENTER CONSTANT
001320: 06,6702           50111                           TS       SFTEMP2
001321: 06,6703           20117                           INDEX    MPAC       +2
001322: 06,6704           36734                           CAF      DEGTAB1
001323: 06,6705           50110                           TS       SFTEMP1
001324: 06,6706           00001                           TC       Q
001325:
001326: 06,6707           30001        FIXRANGE           XCH      Q                                     #  IF MPAC IS + RETURN TO L+1
001327: 06,6710           50106                           TS       WDRET                                 #  IF MPAC IS - RETURN TO L+2 AFTER
001328: 06,6711           10115                           CCS      MPAC                                  #  MASKING OUT THE SIGN BIT
001329: 06,6712           00106                           TC       WDRET
001330: 06,6713           00106                           TC       WDRET
001331: 06,6714           06715                           TC       +1
001332: 06,6715           44500                           CS       BIT15
001333: 06,6716           70115                           MASK     MPAC
001334: 06,6717           50115                           TS       MPAC
001335: 06,6720           20106                           INDEX    WDRET
001336: 06,6721           00001                           TC       1
001337:
001338: 06,6722           20117        DEGCOM             INDEX    MPAC       +2                         #  LOADS MULTIPLIER, DOES SHORTMP, AND
001339: 06,6723           36737                           CAF      DEGTAB2                               #  ADDS AUGMENTER.
001340: 06,6724           50116                           TS       MPAC       +1
001341: 06,6725           20117                           INDEX    MPAC       +2
001342: 06,6726           36734                           CAF      DEGTAB1
001343: 06,6727           30115                           XCH      MPAC                                  #  ADJUSTED ANGLE IN A
001344: 06,6730           05416                           TC       SHORTMP
001345: 06,6731           05171                           TC       DAD
001346: 06,6732           00110                           ADRES    SFTEMP1
001347: 06,6733           06750                           TC       SCOUTEND
001348:
001349:
001350:
001351: 06,6734           05605        DEGTAB1            OCT      05605                                 #  HIGH PART OF  .18
001352: 06,6735           02702                           OCT      02702                                 #                .09
001353: 06,6736           16314                           OCT      16314                                 #  .45
001354:
001355: 06,6737           03656        DEGTAB2            OCT      03656                                 #  LOW PART OF   .18
001356: 06,6740           21727                           OCT      21727                                 #                .09
001357: 06,6741           31463                           OCT      31463                                 #  .45
001358:
001359: 06,6742           16040        20BIAS             OCT      16040                                 #  20 DEG BIAS FOR OPTICS
001360:
001361: 06,6743           30111        ARTOUTSF           XCH      SFTEMP2                               #  ASSUMES POINT AT LEFT OF DP SFCON.
001362: 06,6744           50116                           TS       MPAC       +1
001363: 06,6745           30110                           XCH      SFTEMP1                               #  HI PART OF SFCONSTANT
001364: 06,6746           30115                           XCH      MPAC
001365: 06,6747           05416                           TC       SHORTMP


001367: 06,6750           05720        SCOUTEND           TC       POSTJUMP
001368: 06,6751           16542                           CADR     DSPDCEND
001369:
001370: 06,6752           06764        DP1OUTSF           TC       DPOUT                                 #  SCALES MPAC, MPAC +1 BY DP SCALE FACTOR
001371: 06,6753           30117                           XCH      MPAC       +2                         #  IN SFTEMP1, SFTEMP2.  THEN SCALE RESULT
001372: 06,6754           30116                           XCH      MPAC       +1                         #  BY B14.
001373: 06,6755           50115                           TS       MPAC
001374: 06,6756           06750                           TC       SCOUTEND
001375:
001376:
001377:
001378: 06,6757           06764        DP2OUTSF           TC       DPOUT                                 #  SCALES MPAC, MPAC +1 BY DP SCALE FACTOR
001379: 06,6760           06750                           TC       SCOUTEND
001380:
001381:
001382:
001383: 06,6761           06764        DP3OUTSF           TC       DPOUT                                 #  ASSUMES POINT BETWEEN BITS 7-8 OF HIGH
001384: 06,6762           07213                           TC       TPLEFT7                               #  PART OF SFCON. SHIFTS RESULTS LEFT 7.
001385: 06,6763           06750                           TC       SCOUTEND
001386:
001387:
001388:
001389:                                                                                                  #  DPOUT PICKS UP FRESH DATA FOR BOTH HI AND LO COMPONENTS.
001390:                                                                                                  #  THIS IS NEEDED FOR TIME DISPLAY.
001391:
001392: 06,6764           30001        DPOUT              XCH      Q
001393: 06,6765           50122                           TS       OVFIND
001394: 06,6766           20107                           INDEX    MIXBR
001395: 06,6767           06767                           TC       +0
001396: 06,6770           07025                           TC       DPOUTNOR
001397: 06,6771           20063                           INDEX    DECOUNT
001398: 06,6772           40056                           CS       IDAD1TEM                              #  GET IDADDTAB ENTRY FOR COMPONENT K
001399: 06,6773           40000                           CS       A                                     #  OF NOUN.
001400: 06,6774           74606                           MASK     LOW10                                 #  E SUBK
001401: 06,6775           50117        DPOUTCOM           TS       MPAC       +2
001402: 06,6776           20017                           INHINT
001403: 06,6777           20117                           INDEX    MPAC       +2
001404: 06,7000           40000                           CS       0                                     #  MIXED         NORMAL
001405: 06,7001           40000                           COM                                            #  C(ESUBK)      C(E)
001406: 06,7002           30115                           XCH      MPAC
001407: 06,7003           20117                           INDEX    MPAC       +2
001408: 06,7004           40001                           CS       1                                     #  C((E SUBK)+1) C(E+1)
001409: 06,7005           20016                           RELINT
001410: 06,7006           40000                           COM
001411: 06,7007           30116                           XCH      MPAC       +1
001412: 06,7010           10116                           CCS      MPAC       +1                         #  TEST IF LOW PART +0 IN CASE PICKING UP
001413: 06,7011           07014                           TC       +3                                    #  TIME, IF SO COULD HAVE OVFLOD, SO GET
001414: 06,7012           07021                           TC       +0CASE                                #  UP TO DATE HIGH PART. IF NOT +0, NO
001415: 06,7013           07014                           TC       +1                                    #  PROBLEM.
001416: 06,7014           05157        +0RET              TC       DMP


001418: 06,7015           50107                           XCADR    SFTEMP1
001419: 06,7016           05654                           TC       BANKCALL
001420: 06,7017           07154                           CADR     TPAGREE
001421: 06,7020           00122                           TC       OVFIND
001422:
001423: 06,7021           20117        +0CASE             INDEX    MPAC       +2
001424: 06,7022           60000                           AD       0
001425: 06,7023           30115                           XCH      MPAC
001426: 06,7024           07014                           TC       +0RET
001427:
001428: 06,7025           40624        DPOUTNOR           CS       NOUNADD
001429: 06,7026           40000                           CS       A                                     #  E
001430: 06,7027           06775                           TC       DPOUTCOM
001431:
001432:                                                                                                  #  THIS IS A SPECIAL PURPOSE VERB FOR DISPLAYING A DOUBLE PRECISION AGC
001433:                                                                                                  #  WORD AS 10 DECIMAL DIGITS ON THE AGC DISPLAY PANEL.  IT CAN BE USED WITH
001434:                                                                                                  #  ANY NOUN, EXCEPT MIXED NOUNS. IT DISPLAYS THE CONTENTS
001435:                                                                                                  #  OF THE REGISTER NOUNADD IS POINTING TO.  IF USED WITH NOUNS WHICH ARE
001436:                                                                                                  #  INHERENTLY NOT DP SUCH AS THE CDU COUNTERS THE DISPLAY WILL BE GARBAGE.
001437:                                                                                                  #  DISPLAY IS IN R1 AND R2 ONLY WITH THE SIGN IN R1.
001438:
001439:
001440:
001441: 06,7030           20107        DSPDPDEC           INDEX    MIXBR
001442: 06,7031           07031                           TC       +0
001443: 06,7032           07034                           TC       +2                                    #  NORMAL NOUN
001444: 06,7033           07442                           TC       DSPALARM
001445: 06,7034           20624                           INDEX    NOUNADD
001446: 06,7035           40000                           CS       0
001447: 06,7036           40000                           COM
001448: 06,7037           30115                           XCH      MPAC                                  #  LOAD MPAC WITH HIGH ORDER PART
001449: 06,7040           20624                           INDEX    NOUNADD
001450: 06,7041           40001                           CS       1
001451: 06,7042           40000                           COM
001452: 06,7043           30116                           XCH      MPAC       +1                         #  LOAD MPAC+1 WITH LOW ORDER PART
001453: 06,7044           33171                           CAF      R1D1
001454: 06,7045           50614                           TS       DSPCOUNT
001455: 06,7046           35501                           CAF      ZERO
001456: 06,7047           50117                           TS       MPAC       +2
001457: 06,7050           05654                           TC       BANKCALL
001458: 06,7051           07154                           CADR     TPAGREE
001459: 06,7052           07315                           TC       DSP2DEC
001460: 06,7053           00065        ENDDPDEC           TC       ENTEXIT
001461:


001463:
001464:                                                                                                  #        LOAD VERBS
001465:
001466:
001467:
001468: 07,6564                                           SETLOC   ENDRTOUT
001469:
001470: 07,6564           45503        ABCLOAD            CS       TWO
001471: 07,6565           06430                           TC       COMPTEST
001472: 07,6566           36715                           CAF      VBSP1LD
001473: 07,6567           06345                           TC       UPDATVB    -1
001474: 07,6570           06274                           TC       REQDATX
001475: 07,6571           36716                           CAF      VBSP2LD
001476: 07,6572           06345                           TC       UPDATVB    -1
001477: 07,6573           06300                           TC       REQDATY
001478: 07,6574           36717                           CAF      VBSP3LD
001479: 07,6575           06345                           TC       UPDATVB    -1
001480: 07,6576           06304                           TC       REQDATZ
001481:
001482:
001483:
001484: 07,6577           44475        PUTXYZ             CS       SIX                                   #  TEST THAT THE 3 DATA WORDS LOADED ARE
001485: 07,6600           06720                           TC       ALLDC/OC                              #  ALL DEC OR ALL OCT.
001486: 07,6601           36107                           CAF      LODNNLOC                              #  SWITCH BANKS TO NOUN TABLE READING
001487: 07,6602           05662                           TC       SWCALL                                #  ROUTINE.
001488: 07,6603           35501                           CAF      ZERO                                  #  X COMP
001489: 07,6604           07000                           TC       PUTCOM
001490: 07,6605           20624                           INDEX    NOUNADD
001491: 07,6606           50000                           TS       0
001492: 07,6607           34516                           CAF      ONE                                   #  Y COMP
001493: 07,6610           07000                           TC       PUTCOM
001494: 07,6611           20624                           INDEX    NOUNADD
001495: 07,6612           50001                           TS       1
001496: 07,6613           35503                           CAF      TWO                                   #  Z COMP
001497: 07,6614           07000                           TC       PUTCOM
001498: 07,6615           20624                           INDEX    NOUNADD
001499: 07,6616           50002                           TS       2
001500: 07,6617           06705                           TC       LOADLV
001501:
001502: 07,6620           44516        ABLOAD             CS       ONE
001503: 07,6621           06430                           TC       COMPTEST
001504: 07,6622           36715                           CAF      VBSP1LD
001505: 07,6623           06345                           TC       UPDATVB    -1
001506: 07,6624           06274                           TC       REQDATX
001507: 07,6625           36716                           CAF      VBSP2LD
001508: 07,6626           06345                           TC       UPDATVB    -1
001509: 07,6627           06300                           TC       REQDATY
001510: 07,6630           44477        PUTXY              CS       FIVE                                  #  TEST THAT THE 2 DATA WORDS LOADED ARE
001511: 07,6631           06720                           TC       ALLDC/OC                              #  ALL DEC OR ALL OCT.
001512: 07,6632           36107                           CAF      LODNNLOC                              #  SWITCH BANKS TO NOUN TABLE READING
001513: 07,6633           05662                           TC       SWCALL                                #  ROUTINE.


001515: 07,6634           35501                           CAF      ZERO                                  #  X COMP
001516: 07,6635           07000                           TC       PUTCOM
001517: 07,6636           20624                           INDEX    NOUNADD
001518: 07,6637           50000                           TS       0
001519: 07,6640           34516                           CAF      ONE                                   #  Y COMP
001520: 07,6641           07000                           TC       PUTCOM
001521: 07,6642           20624                           INDEX    NOUNADD
001522: 07,6643           50001                           TS       1
001523: 07,6644           06705                           TC       LOADLV
001524:
001525: 07,6645           06274        ALOAD              TC       REQDATX
001526: 07,6646           36107                           CAF      LODNNLOC                              #  SWITCH BANKS TO NOUN TABLE READING
001527: 07,6647           05662                           TC       SWCALL                                #  ROUTINE.
001528: 07,6650           35501                           CAF      ZERO                                  #  X COMP
001529: 07,6651           07000                           TC       PUTCOM
001530: 07,6652           20624                           INDEX    NOUNADD
001531: 07,6653           50000                           TS       0
001532: 07,6654           06705                           TC       LOADLV
001533:
001534: 07,6655           44516        BLOAD              CS       ONE
001535: 07,6656           06430                           TC       COMPTEST
001536: 07,6657           34500                           CAF      BIT15                                 #  SET CLPASS FOR PASS0 ONLY
001537: 07,6660           50633                           TS       CLPASS
001538: 07,6661           06300                           TC       REQDATY
001539: 07,6662           36107                           CAF      LODNNLOC                              #  SWITCH BANKS TO NOUN TABLE READING
001540: 07,6663           05662                           TC       SWCALL                                #  ROUTINE.
001541: 07,6664           34516                           CAF      ONE
001542: 07,6665           07000                           TC       PUTCOM
001543: 07,6666           20624                           INDEX    NOUNADD
001544: 07,6667           50001                           TS       1
001545: 07,6670           06705                           TC       LOADLV
001546:
001547: 07,6671           45503        CLOAD              CS       TWO
001548: 07,6672           06430                           TC       COMPTEST
001549: 07,6673           34500                           CAF      BIT15                                 #  SET CLPASS FOR PASS0 ONLY
001550: 07,6674           50633                           TS       CLPASS
001551: 07,6675           06304                           TC       REQDATZ
001552: 07,6676           36107                           CAF      LODNNLOC                              #  SWITCH BANKS TO NOUN TABLE READING
001553: 07,6677           05662                           TC       SWCALL                                #  ROUTINE.
001554: 07,6700           35503                           CAF      TWO
001555: 07,6701           07000                           TC       PUTCOM
001556: 07,6702           20624                           INDEX    NOUNADD
001557: 07,6703           50002                           TS       2
001558: 07,6704           06705                           TC       LOADLV
001559:
001560: 07,6705           35501        LOADLV             CAF      ZERO
001561: 07,6706           50615                           TS       DECBRNCH
001562: 07,6707           45501                           CS       ZERO
001563: 07,6710           50632                           TS       LOADSTAT
001564: 07,6711           43227                           CS       VD1                                   #  TO BLOCK NUMERICAL CHARACTERS AND


001566: 07,6712           50614                           TS       DSPCOUNT                              #  CLEARS AFTER A COMPLETED LOAD
001567: 07,6713           05720                           TC       POSTJUMP                              #  AFTER COMPLETED LOAD, GO TO RECALTST
001568: 07,6714           15600                           CADR     RECALTST                              #  TO SEE IF THERE IS RECALL FROM ENDIDLE.
001569:
001570: 07,6715           00021        VBSP1LD            OCT      21                                    #  VB21 = ALOAD
001571: 07,6716           00022        VBSP2LD            OCT      22                                    #  VB22 = BLOAD
001572: 07,6717           00023        VBSP3LD            OCT      23                                    #  VB23 = CLOAD
001573:
001574:
001575:
001576: 07,6720           50063        ALLDC/OC           TS       DECOUNT                               #  TESTS THAT DATA WORDS LOADED ARE EITHER
001577: 07,6721           30001                           XCH      Q                                     #  ALL DEC OR ALL OCT. ALARMS IF NOT.
001578: 07,6722           50106                           TS       DECRET
001579: 07,6723           40615                           CS       DECBRNCH
001580: 07,6724           50021                           TS       SR
001581: 07,6725           40021                           CS       SR
001582: 07,6726           40021                           CS       SR                                    #  SHIFTED RIGHT 2
001583: 07,6727           10000                           CCS      A                                     #  DEC COMP BITS IN LOW 3
001584: 07,6730           06732                           TC       +2                                    #  SOME ONES IN LOW 3
001585: 07,6731           00106                           TC       DECRET                                #  ALL ZEROS. ALL OCTAL.  OK
001586: 07,6732           60063                           AD       DECOUNT                               #  DEC COMP = 7 FOR 3COMP, =6 FOR 2COMP
001587: 07,6733           10000                           CCS      A                                     #  (BUT IT HAS BEEN DECREMENTED BY CCS)
001588: 07,6734           06356                           TC       GODSPALM                              #  MUST MATCH 6 FOR 3COMP, 5 FOR 2COMP.
001589: 07,6735           03062                           TC       CCSHOLE
001590: 07,6736           06356                           TC       GODSPALM
001591: 07,6737           00106                           TC       DECRET                                #  ALL REQUIRED ARE DEC. OK
001592:
001593:
001594:
001595: 07,6740           30001        SFRUTNOR           XCH      Q                                     #  GETS SF ROUTINE NUMBER FOR NORMAL CASE
001596: 07,6741           50112                           TS       EXITEM
001597: 07,6742           33221                           CAF      MID5
001598: 07,6743           70055                           MASK     NNTYPTEM
001599: 07,6744           03174                           TC       RIGHT5
001600: 07,6745           00112                           TC       EXITEM                                #  SF ROUTINE NUMBER IN A
001601:
001602: 07,6746           30001        SFRUTMIX           XCH      Q                                     #  GETS SF ROUTINE NUMBER FOR MIXED CASE
001603: 07,6747           50112                           TS       EXITEM
001604: 07,6750           20063                           INDEX    DECOUNT
001605: 07,6751           40056                           CS       IDAD1TEM                              #  GET IDADDTAB ENTRY FOR COMPONENT K
001606: 07,6752           40000                           CS       A                                     #  OF NOUN.
001607: 07,6753           72261                           MASK     HI5
001608: 07,6754           03203                           TC       LEFT5
001609: 07,6755           00112                           TC       EXITEM                                #  SF ROUTINE NUMBER IN A
001610:
001611: 07,6756           30001        SFCONUM            XCH      Q                                     #  GETS SF CONSTANT NUMBER
001612: 07,6757           50112                           TS       EXITEM
001613: 07,6760           20107                           INDEX    MIXBR
001614: 07,6761           06761                           TC       +0
001615: 07,6762           06775                           TC       CONUMNOR                              #  NORMAL NOUN


001617: 07,6763           20063                           INDEX    DECOUNT                               #  MIXED NOUN
001618: 07,6764           33220                           CAF      LOW5
001619: 07,6765           70055                           MASK     NNTYPTEM
001620: 07,6766           20063                           INDEX    DECOUNT
001621: 07,6767           26772                           INDEX    DISPLACE
001622: 07,6770           00000                           TC       0
001623:                                                                                                  #  DO TC SFRET (DECOUNT=0),DO TC RIGHT5(DECOUNT=1), DO TC LEFT5 (DECOUNT=2)
001624: 07,6771           00112        SFRET              TC       EXITEM                                #  SF CON NUMBER IN A
001625:
001626: 07,6772           06771        DISPLACE           TC       SFRET
001627: 07,6773           03174                           TC       RIGHT5
001628: 07,6774           03203                           TC       LEFT5
001629:
001630: 07,6775           33220        CONUMNOR           CAF      LOW5                                  #  NORMAL NOUN ALWAYS GETS LOW 5 OF
001631: 07,6776           70055                           MASK     NNTYPTEM
001632: 07,6777           00112                           TC       EXITEM
001633:
001634:
001635:
001636: 07,7000           50063        PUTCOM             TS       DECOUNT
001637: 07,7001           30001                           XCH      Q
001638: 07,7002           50106                           TS       DECRET
001639: 07,7003           35501                           CAF      ZERO
001640: 07,7004           50122                           TS       OVFIND
001641: 07,7005           20063                           INDEX    DECOUNT
001642: 07,7006           30607                           XCH      XREGLP
001643: 07,7007           50116                           TS       MPAC       +1
001644: 07,7010           20063                           INDEX    DECOUNT
001645: 07,7011           30604                           XCH      XREG
001646: 07,7012           50115                           TS       MPAC
001647: 07,7013           20107                           INDEX    MIXBR
001648: 07,7014           07014                           TC       +0
001649: 07,7015           07043                           TC       PUTNORM                               #  NORMAL NOUN
001650:                                                                                                  #  IF MIXNOUN, PLACE ADDRESS FOR COMPONENT K INTO NOUNADD
001651: 07,7016           20063                           INDEX    DECOUNT
001652: 07,7017           40056                           CS       IDAD1TEM                              #  GET IDADDTAB ENTRY FOR COMPONENT K
001653: 07,7020           40000                           CS       A                                     #  OF NOUN.
001654: 07,7021           74606                           MASK     LOW10                                 #  EK    FOR CURRENT NOUN
001655: 07,7022           25777                           EXTEND
001656: 07,7023           60063                           SU       DECOUNT
001657: 07,7024           50624                           TS       NOUNADD                               #  PLACE (E SUB K) - K INTO NOUNADD
001658: 07,7025           10615                           CCS      DECBRNCH
001659: 07,7026           07055                           TC       PUTDECSF                              #  +  DEC
001660: 07,7027           06746                           TC       SFRUTMIX                              #  +0 OCTAL
001661: 07,7030           06255                           TC       DPTEST
001662: 07,7031           07053                           TC       PUTCOM2                               #  NO DP
001663:                                                                                                  #  TEST FOR DP SCALE FOR OCT LOAD. IF SO,
001664:                                                                                                  #  +0 INTO MAJOR PART. SET NOUNADD FOR
001665:                                                                                                  #  LOADING OCTAL WORD INTO MINOR PART.
001666: 07,7032           34516        PUTDPCOM           CAF      ONE                                   #  DP


001668: 07,7033           60624                           AD       NOUNADD
001669: 07,7034           50624                           TS       NOUNADD                               #  (ESUBK)-K+1  OR  E+1
001670: 07,7035           60063                           AD       DECOUNT                               #  NOUNADD NOW SET FOR MINOR PART
001671: 07,7036           50063                           TS       DECOUNT                               #  (ESUBK)+1  OR  E+1  INTO DECOUNT
001672: 07,7037           35501                           CAF      ZERO                                  #  NOUNADD SET FOR MINOR PART
001673: 07,7040           20063                           INDEX    DECOUNT
001674: 07,7041           47777                           TS       0          -1                         #  ZERO MAJOR PART(ESUBK OR E)
001675: 07,7042           07053                           TC       PUTCOM2
001676:
001677: 07,7043           10615        PUTNORM            CCS      DECBRNCH
001678: 07,7044           07055                           TC       PUTDECSF                              #  +  DEC
001679: 07,7045           06740                           TC       SFRUTNOR                              #  +0  OCTAL
001680: 07,7046           06255                           TC       DPTEST
001681: 07,7047           07053                           TC       PUTCOM2                               #  NO DP
001682: 07,7050           35501                           CAF      ZERO
001683: 07,7051           50063                           TS       DECOUNT
001684: 07,7052           07032                           TC       PUTDPCOM
001685:
001686: 07,7053           30115        PUTCOM2            XCH      MPAC
001687: 07,7054           00106                           TC       DECRET
001688:
001689:                                                                                                  #  PUTDECSF FINDS MIXBR AND DECOUNT STILL SET FROM PUTCOM
001690:
001691: 07,7055           06756        PUTDECSF           TC       SFCONUM                               #  SF CON NUMB IN A
001692: 07,7056           50111                           TS       SFTEMP2
001693: 07,7057           05654                           TC       BANKCALL                              #  SWITCH BANKS TO SF CONSTANT READING
001694: 07,7060           13222                           CADR     GTSFIN                                #  ROUTINE. LOADS SFTEMP1, SFTEMP2.
001695: 07,7061           20107                           INDEX    MIXBR
001696: 07,7062           07062                           TC       +0
001697: 07,7063           07066                           TC       PUTSFNOR
001698: 07,7064           06746                           TC       SFRUTMIX
001699: 07,7065           07067                           TC       PUTDCSF2
001700: 07,7066           06740        PUTSFNOR           TC       SFRUTNOR
001701:
001702: 07,7067           20000        PUTDCSF2           INDEX    A
001703: 07,7070           37072                           CAF      SFINTABR
001704: 07,7071           05723                           TC       BANKJUMP                              #  SWITCH BANKS FOR EXPANSHION ROOM
001705: 07,7072           15442        SFINTABR           CADR     DSPALARM                              #  ALARM IF DEC LOAD WITH OCTAL ONLY NOUN
001706: 07,7073           15140                           CADR     BINROUND
001707: 07,7074           15054                           CADR     DEGINSF
001708: 07,7075           15127                           CADR     ARTHINSF
001709: 07,7076           15161                           CADR     DPINSF
001710: 07,7077           15207                           CADR     DPINSF2
001711: 07,7100           15143                           CADR     OPTDEGIN
001712: 07,7101           15161                           CADR     DPINSF                                #  SAME AS ARITHDP1
001713: 07,7102                        ENDRUTIN           EQUALS
001714:
001715:
001716:
001717:                                                                                                  #  SCALE FACTORS FOR THOSE ROUTINES NEEDING THEM ARE AVAILABLE IN SFTEMP1.


001719:                                                                                                  #  ALL SFIN ROUTINES USE MPAC MPAC+1. LEAVE RESULT IN A. END WITH TC DECRET
001720:
001721:
001722:
001723: 06,7054                                           SETLOC   ENDDPDEC   +1
001724:
001725:                                                                                                  #  DEGINSF APPLIES 1000/180 * 5.55555(10) = 5.43434(8)
001726:
001727: 06,7054           05157        DEGINSF            TC       DMP                                   #  SF ROUTINE FOR DEC DEGREES
001728: 06,7055           57121                           XCADR    DEGCON1                               #  MULT BY 5.5  5(10)X2/-3
001729: 06,7056           10116                           CCS      MPAC       +1                         #  THIS ROUNDS OFF MPAC+1 BEFORE SHIFT
001730: 06,7057           34504                           CAF      BIT11                                 #  LEFT 3, AND CAUSES 360.00 TO OF/UF
001731: 06,7060           07062                           TC       +2                                    #  WHEN SHIFTED LEFT AND ALARM.
001732: 06,7061           44504                           CS       BIT11
001733: 06,7062           60116                           AD       MPAC       +1
001734: 06,7063           07226                           TC       2ROUND     +2
001735: 06,7064           05654                           TC       BANKCALL                              #  LEFT 1
001736: 06,7065           06367                           CADR     SL1        +3
001737: 06,7066           05654        DEGINSF2           TC       BANKCALL                              #  LEFT 2
001738: 06,7067           06367                           CADR     SL1        +3
001739: 06,7070           07235                           TC       TESTOFUF
001740: 06,7071           05654                           TC       BANKCALL                              #  RETURNS IF NO OF/UF
001741: 06,7072           06367                           CADR     SL1        +3                         #  LEFT 3
001742: 06,7073           10115                           CCS      MPAC
001743: 06,7074           07100                           TC       SIGNFIX                               #  IF +, GO TO SIGNFIX
001744: 06,7075           07100                           TC       SIGNFIX                               #  IF +0, GO TO SIGNFIX
001745: 06,7076           40000                           COM                                            #  IF - , USE -MAGNITUDE +1
001746: 06,7077           50115                           TS       MPAC                                  #  IF -0, USE +0
001747: 06,7100           10122        SIGNFIX            CCS      OVFIND
001748: 06,7101           07116                           TC       SGNTO1                                #  IF OVERFLOW
001749: 06,7102           07112                           TC       ENDSCALE                              #  NO OVERFLOW/UNDERFLOW
001750: 06,7103           10115                           CCS      MPAC                                  #  IF UF FORCE SIGN TO 0 EXCEPT -180
001751: 06,7104           03062                           TC       CCSHOLE
001752: 06,7105           07114                           TC       NEG180
001753: 06,7106           07107                           TC       +1
001754: 06,7107           30115                           XCH      MPAC
001755: 06,7110           74476                           MASK     POSMAX
001756: 06,7111           50115                           TS       MPAC
001757: 06,7112           05720        ENDSCALE           TC       POSTJUMP
001758: 06,7113           17053                           CADR     PUTCOM2
001759:
001760: 06,7114           44476        NEG180             CS       POSMAX
001761: 06,7115           07111                           TC       ENDSCALE   -1
001762:
001763: 06,7116           40115        SGNTO1             CS       MPAC                                  #  IF OF FORCE SIGN TO 1
001764: 06,7117           74476                           MASK     POSMAX
001765: 06,7120           40000                           CS       A
001766: 06,7121           07111                           TC       ENDSCALE   -1
001767:
001768: 06,7122           26161 30707  DEGCON1            2DEC     5.555555555 B-3


001770: 06,7124           21616 07071  DEGCON2            2DEC     2.222222222 B-2
001771: 06,7126           71527        NEG.2              OCT      -06250                                #  = .197753906  I.E. THE BIAS SCALED
001772:
001773: 06,7127           05157        ARTHINSF           TC       DMP                                   #  SCALES MPAC, +1 BY SFTEMP1, SFTEMP2.
001774: 06,7130           50107                           XCADR    SFTEMP1                               #  ASSUMES POINT BETWEEN HI AND LO PARTS
001775: 06,7131           30117                           XCH      MPAC       +2                         #  OF SFCON. SHIFTS RESULTS LEFT BY 14.
001776: 06,7132           30116                           XCH      MPAC       +1                         #  (BY TAKING RESULTS FROM MPAC+1, MPAC+2)
001777: 06,7133           30115                           XCH      MPAC
001778: 06,7134           10000                           CCS      A
001779: 06,7135           07442                           TC       DSPALARM                              #  TOO LARGE A LOAD
001780: 06,7136           07140                           TC       BINROUND
001781: 06,7137           07442                           TC       DSPALARM                              #  TOO LARGE A LOAD
001782: 06,7140           07224        BINROUND           TC       2ROUND
001783: 06,7141           07235                           TC       TESTOFUF
001784: 06,7142           07112                           TC       ENDSCALE                              #  RETURNS IF NO OF/UF
001785:
001786:
001787:
001788: 06,7143           10115        OPTDEGIN           CCS      MPAC                                  #  OPTICS SCALING ROUTINE
001789: 06,7144           07150                           TC       OPDEGIN2                              #  LOW RANGE   0 TO 90 DEG ALWAYS
001790: 06,7145           07150                           TC       OPDEGIN2
001791: 06,7146           07442                           TC       DSPALARM                              #  REJECT - INPUT. ALARM
001792: 06,7147           07442                           TC       DSPALARM                              #  DITTO
001793:
001794:
001795:
001796:                                                                                                  #  NO LONGER DO WE TEST BIT 13 OF WASOPSET TO DETERMINE RANGE. RANGE NOW
001797:                                                                                                  #  IS ALWAYS 90 DEG (BLOCK 50 - 100)
001798:
001799:
001800:
001801: 06,7150           30115        OPDEGIN2           XCH      MPAC                                  #  RANGE IS 90 DEG
001802: 06,7151           67126                           AD       NEG.2                                 #  SUBTRACT BIAS
001803: 06,7152           50115                           TS       MPAC
001804: 06,7153           05157                           TC       DMP                                   #  MULT BY 100 / 45  B-2
001805: 06,7154           57123                           XCADR    DEGCON2
001806: 06,7155           34503                           CAF      BIT12                                 #  ROUND AS IN DEGINSF
001807: 06,7156           60116                           AD       MPAC       +1
001808: 06,7157           07226                           TC       2ROUND     +2
001809: 06,7160           07066                           TC       DEGINSF2
001810:
001811: 06,7161           05157        DPINSF             TC       DMP                                   #  SCALES MPAC, MPAC +1 BY SFTEMP1,
001812: 06,7162           50107                           XCADR    SFTEMP1                               #  SFTEMP2.  STORES LOW PART OF RESULT
001813: 06,7163           30117                           XCH      MPAC       +2                         #  IN (E SUBK) +1 OR E+1
001814: 06,7164           60000                           DOUBLE
001815: 06,7165           50117                           TS       MPAC       +2
001816: 06,7166           35501                           CAF      ZERO
001817: 06,7167           60116                           AD       MPAC       +1
001818: 06,7170           07226                           TC       2ROUND     +2


001820: 06,7171           07235                           TC       TESTOFUF
001821: 06,7172           20107                           INDEX    MIXBR                                 #  RETURNS IF NO OF/UF
001822: 06,7173           07173                           TC       +0
001823: 06,7174           07205                           TC       DPINORM
001824: 06,7175           30063                           XCH      DECOUNT                               #  MIXEDNOUN
001825: 06,7176           50063                           TS       DECOUNT
001826: 06,7177           60624        DPINCOM            AD       NOUNADD                               #      MIXED               NORMAL
001827: 06,7200           50001                           TS       Q                                     #    E SUBK            E
001828: 06,7201           30116                           XCH      MPAC       +1
001829: 06,7202           20001                           INDEX    Q
001830: 06,7203           50001                           TS       1                                     #  PLACE LOW PART IN
001831: 06,7204           07112                           TC       ENDSCALE                              #  (E SUBK) +1    MIXED
001832: 06,7205           35501        DPINORM            CAF      ZERO                                  #  E +1         NORMAL
001833: 06,7206           07177                           TC       DPINCOM
001834:
001835:
001836:
001837: 06,7207           05157        DPINSF2            TC       DMP                                   #  ASSUMES POINT BETWEEN BITS 7-8 OF HIGH
001838: 06,7210           50107                           XCADR    SFTEMP1                               #  PART OF SF CONST. DPINSF2 SHIFTS RESULTS
001839: 06,7211           07213                           TC       TPLEFT7                               #  LEFT BY 7, ROUNDS MPAC+2 INTO MPAC+1.
001840: 06,7212           07163                           TC       DPINSF     +2
001841:
001842: 06,7213           30001        TPLEFT7            XCH      Q                                     #  OPERATES ON MPAC, MPAC+1, MPAC+2
001843: 06,7214           50111                           TS       SFTEMP2
001844: 06,7215           34475                           CAF      SIX                                   #  LEFT BY 7
001845: 06,7216           50110        LEFT7COM           TS       SFTEMP1
001846: 06,7217           05654                           TC       BANKCALL
001847: 06,7220           06364                           CADR     SL1
001848: 06,7221           10110                           CCS      SFTEMP1
001849: 06,7222           07216                           TC       LEFT7COM
001850: 06,7223           00111                           TC       SFTEMP2
001851:
001852:
001853:
001854: 06,7224           30116        2ROUND             XCH      MPAC       +1
001855: 06,7225           60000                           DOUBLE
001856: 06,7226           50116                           TS       MPAC       +1
001857: 06,7227           00001                           TC       Q                                     #  IF MPAC+1 DOES NOT OF/UF
001858: 06,7230           60115                           AD       MPAC
001859: 06,7231           50115                           TS       MPAC
001860: 06,7232           00001                           TC       Q                                     #  IF MPAC DOES NOT OF/UF
001861: 06,7233           50122                           TS       OVFIND
001862: 06,7234           00001        2RNDEND            TC       Q
001863:
001864:
001865:
001866: 06,7235           10122        TESTOFUF           CCS      OVFIND                                #  RETURNS IF NO OF/UF
001867: 06,7236           07442                           TC       DSPALARM                              #  OF


001869: 06,7237           00001                           TC       Q
001870: 06,7240           07442                           TC       DSPALARM                              #  UF
001871:


001873:
001874:                                                                                                  #  MONITOR ALLOWS OTHER KEYBOARD ACTIVITY. IT IS ENDED BY VERB TERMINATE,
001875:                                                                                                  #  ANY NVSUB CALL THAT PASSES THE DSPLOCK, OR ANOTHER MONITOR.
001876:
001877:                                                                                                  #  MONITOR ACTION IS SUSPENDED, BUT NOT ENDED, BY ANY KEYBOARD ACTION,
001878:                                                                                                  #  EXCEPT ERROR LIGHT RESET. IT BEGINS AGAIN WHEN KEY RELEASE IS PERFORMED.
001879:                                                                                                  #  MONITOR SAVES THE NOUN AND APPROPRIATE DISPLAY VERB IN MONSAVE. IT SAVES
001880:                                                                                                  #  NOUNADD IN MONSAVE1, IF NOUN = MACHINE ADDRESS TO BE SPECIFIED. BIT 15 OF
001881:                                                                                                  #  MONSAVE1 IS THE KILL MONITOR SIGNAL (KILLER BIT).
001882:
001883:                                                                                                  #  MONSAVE INDICATES IF MONITOR IS ON (+=ON, +0=OFF)
001884:                                                                                                  #  IF MONSAVE IS +, MONITOR ENTERS NO REQUEST, BUT TURNS KILLER BIT OFF.
001885:                                                                                                  #  IF MONSAVE IS +0, MONITOR ENTERS REQUEST AND TURNS KILLER BIT OFF.
001886:
001887:                                                                                                  #  NVSUB AND VB=TERMINATE TURN KILL MONITOR BIT ON.
001888:
001889:                                                                                                  #  IF KILLER BIT IS ON, MONREQ ENTERS NO FURTHER REQUESTS, ZEROS MONSAVE
001890:                                                                                                  #  AND MONSAVE1 (TURNING OFF KILLER BIT).
001891:
001892:
001893:
001894:                                                                                                  #  MONITOR DOSENT TEST FOR MATBS SINCE NVSUB CAN HANDLE INTERNAL MATBS NOW
001895:
001896: 07,7102                                           SETLOC   ENDRUTIN
001897:
001898: 07,7102           44500        MONITOR            CS       BIT15
001899: 07,7103           70624                           MASK     NOUNADD
001900: 07,7104           50116        MONIT1             TS       MPAC       +1                         #  TEMP STORAGE
001901: 07,7105           37421                           CAF      LOW6
001902: 07,7106           70602                           MASK     VERBREG
001903: 07,7107           03203                           TC       LEFT5
001904: 07,7110           50022                           TS       CYL
001905: 07,7111           30022                           XCH      CYL
001906: 07,7112           60603                           AD       NOUNREG
001907: 07,7113           50115                           TS       MPAC                                  #  TEMP STORAGE
001908: 07,7114           40630                           CS       GRABLOCK                              #  NEITHER CASE SEARCHES LIST.
001909: 07,7115           65503                           AD       TWO
001910: 07,7116           10000                           CCS      A
001911: 07,7117           03356                           TC       RELDSP1                               #  GRABLOCK=0,1. +0 INTO DSPLOCK AND
001912: 07,7120           07123                           TC       +3                                    #  TURN OFF KEY RLSE LIGHT.
001913: 07,7121           03062                           TC       CCSHOLE
001914: 07,7122           03257                           TC       DSPLOCK0                              #  GRABLOCK=2. +0 INTO DSPLOCK (BIT4 OF
001915:                                                                                                  #  STATE) AND LEAVE KEY RELEASE LIGHT ALONE
001916: 07,7123           20017                           INHINT
001917: 07,7124           10625                           CCS      MONSAVE
001918: 07,7125           07131                           TC       +4                                    #  IF MONSAVE WAS +, NO REQUEST
001919: 07,7126           34516                           CAF      ONE                                   #  IF MONSAVE WAS 0, REQUEST MONREQ
001920: 07,7127           02173                           TC       WAITLIST
001921: 07,7130           17137                           CADR     MONREQ
001922: 07,7131           30115                           XCH      MPAC
001923: 07,7132           50625                           TS       MONSAVE                               #  PLACE MONITOR VERB AND NOUN INTO MONSAVE
001924: 07,7133           30116                           XCH      MPAC       +1


001926: 07,7134           50626                           TS       MONSAVE1                              #  ZERO THE KILL MONITOR BIT
001927: 07,7135           20016                           RELINT
001928: 07,7136           00065                           TC       ENTRET
001929:
001930:
001931:
001932: 07,7137           02677        MONREQ             TC       READTIME   +1                         #  CALLED BY WAITLIST
001933: 07,7140           02736                           TC       LODSAMPT                              #  TIME IS SNATCHED IN RUPT FOR NOUN 65
001934: 07,7141           10626                           CCS      MONSAVE1
001935: 07,7142           07146                           TC       +4                                    #  IF KILLER BIT = 0, ENTER REQUESTS
001936: 07,7143           07146                           TC       +3                                    #  IF KILLER BIT = 0, ENTER REQUESTS
001937: 07,7144           07155                           TC       KILLMON                               #  IF KILLER BIT = 1, NO REQUESTS
001938: 07,7145           07155                           TC       KILLMON                               #  IF KILLER BIT = 1, NO REQUESTS
001939: 07,7146           37161                           CAF      MONDEL
001940: 07,7147           02173                           TC       WAITLIST                              #  ENTER WAITLIST REQUEST FOR MONREQ
001941: 07,7150           17137                           CADR     MONREQ
001942: 07,7151           32164                           CAF      PRIO31
001943: 07,7152           02052                           TC       NOVAC                                 #  ENTER EXEC REQUEST FOR MONDO
001944: 07,7153           17162                           CADR     MONDO
001945: 07,7154           02256                           TC       TASKOVER
001946:
001947: 07,7155           35501        KILLMON            CAF      ZERO                                  #  ZERO MONSAVE AND TURN KILLER BIT OFF
001948: 07,7156           50625                           TS       MONSAVE
001949: 07,7157           50626                           TS       MONSAVE1                              #  TURN OFF KILL MONITOR BIT.
001950: 07,7160           02256                           TC       TASKOVER
001951:
001952:
001953:
001954: 07,7161           00144        MONDEL             OCT      144                                   #  FOR 1 SEC MONITOR INTERVALS
001955:
001956:
001957:
001958: 07,7162           10626        MONDO              CCS      MONSAVE1                              #  CALLED BY EXEC
001959: 07,7163           07167                           TC       +4                                    #  IF KILLER BIT = 0, CONTINUE
001960: 07,7164           07167                           TC       +3                                    #  IF KILLER BIT = 0, CONTINUE
001961: 07,7165           02124                           TC       ENDOFJOB                              #  IN CASE TERMINATE CAME SINCE LAST MONREQ
001962: 07,7166           02124                           TC       ENDOFJOB                              #  IN CASE TERMINATE CAME SINCE LAST MONREQ
001963: 07,7167           03274                           TC       TSTDSPLK                              #  PERFORMS CCS DSPLOCK
001964: 07,7170           07214                           TC       MONBUSY                               #  NVSUB IS BUSY
001965: 07,7171           37421                           CAF      LOW6                                  #  NVSUB IS AVAILABLE
001966: 07,7172           70625                           MASK     MONSAVE
001967: 07,7173           50110                           TS       NVTEMP
001968: 07,7174           03121                           TC       NVSUBMON                              #  PLACE NOUN INTO NOUNREG AND DISPLAY IT
001969: 07,7175           02124                           TC       ENDOFJOB                              #  IN CASE OF ALARM DURING DISPLAY
001970: 07,7176           37212                           CAF      MONMASK
001971: 07,7177           70625                           MASK     MONSAVE                               #  CHANGE MONITOR VERB TO DISPLAY VERB
001972: 07,7200           03174                           TC       RIGHT5
001973: 07,7201           50020                           TS       CYR
001974: 07,7202           30020                           XCH      CYR
001975: 07,7203           50602                           TS       VERBREG


001977: 07,7204           37213                           CAF      MONBACK                               #  SET RETURN TO PASTEVB AFTER DATA DISPLAY
001978: 07,7205           50065                           TS       ENTRET
001979: 07,7206           44500                           CS       BIT15
001980: 07,7207           70626                           MASK     MONSAVE1
001981: 07,7210           50624                           TS       NOUNADD
001982: 07,7211           06046        ENDMONDO           TC       TESTNN
001983:
001984:    3071                                           SETLOC   ENDFAILF
001985:    3071           33077        PASTEVB            CAF      MIDSIX
001986:    3072           70625                           MASK     MONSAVE
001987:    3073           50110                           TS       NVTEMP                                #  PLACE MONITOR VERB INTO VERBREG AND
001988:    3074           03121                           TC       NVSUBMON                              #        DISPLAY IT.
001989:    3075           03076                           TC       +1                                    #  IN CASE OF ALARM DURING DISPLAY
001990:    3076           02124        ENDPASTE           TC       ENDOFJOB
001991:
001992:    3077           07700        MIDSIX             OCT      07700
001993:
001994: 07,7212                                           SETLOC   ENDMONDO   +1
001995: 07,7212           00700        MONMASK            OCT      700
001996: 07,7213           03071        MONBACK            ADRES    PASTEVB
001997:
001998: 07,7214           03250        MONBUSY            TC       RELDSPON                              #  TURN KEY RELEASE LIGHT
001999: 07,7215           02124                           TC       ENDOFJOB
002000:
002001:                                                                                                  #  DSPBANK IS USED TO DISPLAY (IN OCTAL) ANY FIXED REGISTER IN BANK.
002002:                                                                                                  #  IT IS USED WITH NOUN = MACHINE ADDRESS TO BE SPECIFIED. THE CADR OF THE
002003:                                                                                                  #  DESIRED LOCATION IS THEN PUNCHED IN.
002004:
002005: 07,7216           33171        DSPBANK            CAF      R1D1
002006: 07,7217           50614                           TS       DSPCOUNT
002007: 07,7220           40624                           CS       NOUNADD
002008: 07,7221           40000                           CS       A
002009: 07,7222           05730                           TC       DATACALL
002010: 07,7223           07225                           TC       DSPOCTWD
002011: 07,7224           02124                           TC       ENDOFJOB
002012:
002013:
002014:
002015: 06,7241                                           SETLOC   TESTOFUF   +4
002016:
002017:                                                                                                  #   DSPDECWD CONVERTS C(MPAC) AND C(MPAC +1)TO A SIGN AND 5 CHAR DECIMAL
002018:                                                                                                  #  STARTING IN LOC SPECIFIED IN DSPCOUNT
002019:
002020: 06,7241           30001        DSPDECWD           XCH      Q                                     #  USES SHORTMP THROUGHOUT
002021: 06,7242           50106                           TS       WDRET
002022: 06,7243           10115                           CCS      MPAC


002024: 06,7244           07253                           TC       +7
002025: 06,7245           07253                           TC       +6
002026: 06,7246           64516                           AD       ONE
002027: 06,7247           50115                           TS       MPAC
002028: 06,7250           06343                           TC       -ON
002029: 06,7251           40116                           CS       MPAC       +1
002030: 06,7252           07255                           TC       +3
002031: 06,7253           06322                           TC       +ON
002032: 06,7254           30116                           XCH      MPAC       +1
002033: 06,7255           67314                           AD       DECROUND
002034: 06,7256           50116                           TS       MPAC       +1
002035: 06,7257           35501                           CAF      ZERO
002036: 06,7260           60115                           AD       MPAC
002037: 06,7261           50115                           TS       MPAC
002038: 06,7262           07266                           TC       +4
002039: 06,7263           34476                           CAF      POSMAX
002040: 06,7264           50115                           TS       MPAC
002041: 06,7265           50116                           TS       MPAC       +1
002042: 06,7266           35502                           CAF      FOUR
002043: 06,7267           50076        DSPDCWD1           TS       WDCNT
002044: 06,7270           33232                           CAF      BINCON
002045: 06,7271           05416                           TC       SHORTMP
002046: 06,7272           20115        TRACE1             INDEX    MPAC
002047: 06,7273           32652                           CAF      RELTAB
002048: 06,7274           73220                           MASK     LOW5
002049: 06,7275           50111                           TS       CODE
002050: 06,7276           35501                           CAF      ZERO
002051: 06,7277           30117                           XCH      MPAC       +2
002052: 06,7300           30116                           XCH      MPAC       +1
002053: 06,7301           50115                           TS       MPAC
002054: 06,7302           30614                           XCH      DSPCOUNT
002055: 06,7303           50104        TRACE1S            TS       COUNT
002056: 06,7304           10000                           CCS      A                                     #  DECREMENT DSPCOUNT EXCEPT AT +0
002057: 06,7305           50614                           TS       DSPCOUNT
002058: 06,7306           07341                           TC       DSPIN
002059: 06,7307           10076                           CCS      WDCNT
002060: 06,7310           07267                           TC       DSPDCWD1
002061: 06,7311           43227                           CS       VD1
002062: 06,7312           50614                           TS       DSPCOUNT
002063: 06,7313           00106                           TC       WDRET
002064:
002065: 06,7314           02476        DECROUND           OCT      02476
002066:
002067:
002068:
002069:                                                                                                  #  DSP2DEC CONVERTS C(MPAC) AND C(MPAC+1) INTO A SIGN AND 10 CHAR DECIMAL
002070:                                                                                                  #  STARTING IN THE LOC SPECIFIED IN DSPCOUNT.
002071:
002072: 06,7315           30001        DSP2DEC            XCH      Q
002073: 06,7316           50106                           TS       WDRET


002075: 06,7317           35501                           CAF      ZERO
002076: 06,7320           50111                           TS       CODE
002077: 06,7321           34473                           CAF      THREE
002078: 06,7322           07426                           TC       11DSPIN                               #  -R2 OFF
002079: 06,7323           35502                           CAF      FOUR
002080: 06,7324           07426                           TC       11DSPIN                               #  +R2 OFF
002081: 06,7325           10115                           CCS      MPAC
002082: 06,7326           07336                           TC       +8D
002083: 06,7327           07336                           TC       +7
002084: 06,7330           64516                           AD       ONE
002085: 06,7331           50115                           TS       MPAC
002086: 06,7332           06343                           TC       -ON
002087: 06,7333           40116                           CS       MPAC       +1
002088: 06,7334           50116                           TS       MPAC       +1
002089: 06,7335           07337                           TC       +2
002090: 06,7336           06322                           TC       +ON
002091: 06,7337           33172                           CAF      R2D1
002092: 06,7340           07267        END2DEC            TC       DSPDCWD1
002093:
002094:
002095:
002096: 07,7225                                           SETLOC   DSPBANK    +7
002097:
002098:                                                                                                  #  DSPOCTWD DISPLAYS C(A) UPON ENTRY AS A 5 CHAR OCT STARTING IN THE DSP
002099:                                                                                                  #  CHAR SPECIFIED IN DSPCOUNT. IT STOPS AFTER 5 CHAR HAVE BEEN DISPLAYED.
002100:
002101: 07,7225           50022        DSPOCTWD           TS       CYL
002102: 07,7226           30001                           XCH      Q
002103: 07,7227           50106                           TS       WDRET
002104: 07,7230           30614                           XCH      DSPCOUNT
002105: 07,7231           64501                           AD       BIT14                                 #  TO BLANK SIGNS
002106: 07,7232           50614                           TS       DSPCOUNT
002107: 07,7233           35502                           CAF      FOUR
002108: 07,7234           50076        WDAGAIN            TS       WDCNT
002109: 07,7235           40022                           CS       CYL
002110: 07,7236           40022                           CS       CYL
002111: 07,7237           40022                           CS       CYL
002112: 07,7240           40000                           CS       A
002113: 07,7241           75362                           MASK     DSPMSK
002114: 07,7242           20000                           INDEX    A
002115: 07,7243           32652                           CAF      RELTAB
002116: 07,7244           73220                           MASK     LOW5
002117: 07,7245           50111                           TS       CODE
002118: 07,7246           30614                           XCH      DSPCOUNT
002119: 07,7247           50104                           TS       COUNT
002120: 07,7250           10000                           CCS      A                                     #  DECREMENT DSPCOUNT EXCEPT AT +0
002121: 07,7251           50614                           TS       DSPCOUNT
002122: 07,7252           05720                           TC       POSTJUMP
002123: 07,7253           15434                           CADR     DSPOCTIN
002124: 07,7254           10076        OCTBACK            CCS      WDCNT
002125: 07,7255           07234                           TC       WDAGAIN                               #  +


002127: 07,7256           43227        DSPLV              CS       VD1                                   #  TO BLOCK NUMERICAL CHARACTERS, CLEARS,
002128: 07,7257           50614                           TS       DSPCOUNT                              #  AND SIGNS AFTER A COMPLETED DISPLAY.
002129: 07,7260           00106                           TC       WDRET
002130:
002131: 07,7261     5362               DSPMSK             =        SEVEN
002132:
002133:
002134:
002135:                                                                                                  #  DSP2BIT DISPLAYS C(A) UPON ENTRY AS A 2 CHAR OCT BEGINNING IN THE DSP
002136:                                                                                                  #  LOC SPECIFIED IN DSPCOUNT BY PRE CYCLING RIGHT C(A) AND USING THE LOGIC
002137:                                                                                                  #  OF THE 5 CHAR OCTAL DISPLAY
002138:
002139: 07,7261           50020        DSP2BIT            TS       CYR
002140: 07,7262           30001                           XCH      Q
002141: 07,7263           50106                           TS       WDRET
002142: 07,7264           34516                           CAF      ONE
002143: 07,7265           50076                           TS       WDCNT
002144: 07,7266           40020                           CS       CYR
002145: 07,7267           40020                           CS       CYR
002146: 07,7270           30020                           XCH      CYR
002147: 07,7271           50022                           TS       CYL
002148: 07,7272           07241                           TC       WDAGAIN    +5
002149:
002150:
002151:
002152:                                                                                                  #  FOR DSPIN PLACE 0/25 OCT INTO COUNT, 5 BIT RELAY CODE INTO CODE. BOTH
002153:                                                                                                  #  ARE DESTROYED. IF BIT14 OF COUNT IS 1, SIGN IS BLANKED WITH LEFT CHAR.
002154:                                                                                                  #  FOR DSPIN1 PLACE 0,1 INTO BIT11 OF CODE, 2 INTO COUNT, REL ADDRESS OF
002155:                                                                                                  #  DSPTAB ENTRY INTO DSREL.
002156:
002157: 06,7341                                           SETLOC   END2DEC    +1
002158:
002159: 06,7341           30001        DSPIN              XCH      Q
002160: 06,7342           50112                           TS       DSEXIT
002161: 06,7343           33220                           CAF      LOW5
002162: 06,7344           70104                           MASK     COUNT
002163: 06,7345           50021                           TS       SR
002164: 06,7346           30021                           XCH      SR
002165: 06,7347           50102                           TS       DSREL
002166: 06,7350           34516                           CAF      BIT1
002167: 06,7351           70104                           MASK     COUNT
002168: 06,7352           10000                           CCS      A
002169: 06,7353           07355                           TC       +2                                    #  LEFT IF COUNT IS ODD
002170: 06,7354           07365                           TC       DSPIN1     -1                         #  RIGHT IF COUNT IS EVEN
002171: 06,7355           30111                           XCH      CODE
002172: 06,7356           03212                           TC       SLEFT5                                #  DOES NOT USE CYL
002173: 06,7357           50111                           TS       CODE
002174: 06,7360           34501                           CAF      BIT14
002175: 06,7361           70104                           MASK     COUNT
002176: 06,7362           10000                           CCS      A


002178: 06,7363           35503                           CAF      TWO                                   #  BIT14 = 1, BLANK SIGN
002179: 06,7364           64516                           AD       ONE                                   #  BIT14 = 0, LEAVE SIGN ALONE
002180: 06,7365           50104                           TS       COUNT                                 #  +0 INTO COUNT FOR RIGHT
002181:                                                                                                  #  +1 INTO COUNT FOR LEFT (SIGN LEFT ALONE)
002182:                                                                                                  #  +3 INTO COUNT FOR LEFT (TO BLANK SIGN)
002183: 06,7366           20017        DSPIN1             INHINT
002184: 06,7367           20102                           INDEX    DSREL
002185: 06,7370           10710                           CCS      DSPTAB
002186: 06,7371           07373                           TC       +2                                    #  IF +
002187: 06,7372           03062                           TC       CCSHOLE
002188: 06,7373           64516                           AD       ONE                                   #  IF-
002189: 06,7374           50103                           TS       DSMAG
002190: 06,7375           20104                           INDEX    COUNT
002191: 06,7376           77422                           MASK     DSMSK
002192: 06,7377           25777                           EXTEND
002193: 06,7400           60111                           SU       CODE
002194: 06,7401           10000                           CCS      A
002195: 06,7402           07406                           TC       DFRNT                                 #  IF+
002196: 06,7403           03062                           TC       CCSHOLE
002197: 06,7404           07406                           TC       DFRNT                                 #  IF-
002198: 06,7405           07420                           TC       DSLV                                  #  IF -0
002199: 06,7406           20104        DFRNT              INDEX    COUNT
002200: 06,7407           47422                           CS       DSMSK                                 #  MASK WITH 77740,76037, OR 75777
002201: 06,7410           70103                           MASK     DSMAG
002202: 06,7411           60111                           AD       CODE
002203: 06,7412           40000                           CS       A
002204: 06,7413           20102                           INDEX    DSREL
002205: 06,7414           30710                           XCH      DSPTAB
002206: 06,7415           10000                           CCS      A
002207: 06,7416           06640                           TC       INCNOUT
002208: 06,7417           03062                           TC       CCSHOLE
002209: 06,7420           20016        DSLV               RELINT
002210: 06,7421           00112                           TC       DSEXIT
002211:
002212: 06,7422           00037        DSMSK              OCT      37
002213: 06,7423           01740                           OCT      1740
002214: 06,7424           02000                           OCT      2000
002215: 06,7425           03740                           OCT      3740
002216:
002217:
002218:
002219:                                                                                                  #  FOR 11DSPIN, PUT REL ADDRESSS OF DSPTAB ENTRY INTO A, 1 IN BIT11 OR 0 IN
002220:                                                                                                  #  BIT11 OF CODE.
002221:
002222: 06,7426           50102        11DSPIN            TS       DSREL
002223: 06,7427           35503                           CAF      TWO
002224: 06,7430           50104                           TS       COUNT
002225: 06,7431           30001                           XCH      Q
002226: 06,7432           50112                           TS       DSEXIT
002227: 06,7433           07366                           TC       DSPIN1


002229:
002230: 06,7434           07341        DSPOCTIN           TC       DSPIN                                 #  SO DSPOCTWD DOESNT USE SWCALL
002231: 06,7435           37437                           CAF      +2
002232: 06,7436           05723                           TC       BANKJUMP
002233: 06,7437           17254        ENDSPOCT           CADR     OCTBACK
002234:
002235:
002236:
002237:                                                                                                  #  DSPALARM FINDS TC NVSUBEND IN ENTRET FOR NVSUB INITIATED ROUTINES.
002238:                                                                                                  #  ABORT WITH OCT 01501.
002239:                                                                                                  #  DSPALARM FINDS TC ENDOFJOB IN ENTRET FOR KEYBOARD INITIATED ROUTINES.
002240:                                                                                                  #  DO TC ENTRET.
002241:
002242: 06,7440           33147        CHARALRM           CAF      ENDINST                               #  ALARMS WHICH MUST DO ENDOFJOBS COME
002243: 06,7441           50065                           TS       ENTRET                                #  HERE. ALLOWS ENTRET TO BE TEMP ERASABLE
002244:
002245: 06,7442           03233        DSPALARM           TC       FALTON                                #  TURN ON CHECK FAIL LIGHT.
002246: 06,7443           47447                           CS       NVSBENDL
002247: 06,7444           60065                           AD       ENTEXIT
002248: 06,7445           10000                           CCS      A
002249: 06,7446           00065                           TC       ENTEXIT                               #  NOT NVSUB INITIATED.
002250: 06,7447           03125        NVSBENDL           TC       NVSUBEND
002251: 06,7450           00065                           TC       ENTEXIT                               #  NOT NVSUB INITIATED.
002252: 06,7451           03044                           TC       ABORT                                 #  NVSUB INITIATED.
002253: 06,7452           01501                           OCT      01501
002254:
002255:
002256:
002257: 06,7453           34504        FLASHON1           CAF      BIT11                                 #  GETS HERE THRU FLASHON(STANDARD LEAD IN)
002258: 06,7454           50111                           TS       CODE
002259: 06,7455           37464                           CAF      FLASHLOC
002260: 06,7456           50102                           TS       DSREL
002261: 06,7457           35503                           CAF      TWO
002262: 06,7460           50104                           TS       COUNT
002263: 06,7461           07366                           TC       DSPIN1
002264: 06,7462           35501        FLASHOF1           CAF      ZERO                                  #  GETS HERE THRU FLASHOFF(STANDARD LEAD IN
002265: 06,7463           07454                           TC       FLASHON1   +1
002266: 06,7464           00011        FLASHLOC           OCT      11
002267:
002268:
002269:
002270:                                                                                                  #  MMCHANG USES NOUN DISPLAY UNTIL ENTER. THEN IT USES MODE DISP.
002271:                                                                                                  #  IT GOES TO MODROUT WITH THE NEW M M CODE IN A, BUT NOT DISPLAYED IN
002272:                                                                                                  #  MM LIGHTS.
002273:
002274: 07,7273                                           SETLOC   DSP2BIT    +10D
002275:
002276: 07,7273           07306        MMCHANG            TC       REQMM
002277: 07,7274           35501                           CAF      ZERO
002278: 07,7275           30603                           XCH      NOUNREG
002279: 07,7276           50115                           TS       MPAC


002281: 07,7277           33230                           CAF      ND1
002282: 07,7300           50614                           TS       DSPCOUNT
002283: 07,7301           05654                           TC       BANKCALL
002284: 07,7302           14621                           CADR     2BLANK
002285: 07,7303           30115                           XCH      MPAC
002286: 07,7304           05720                           TC       POSTJUMP
002287: 07,7305           10002                           CADR     MODROUTB                              #  GO THRU STANDARD LOC.
002288:
002289:
002290:
002291: 07,7306           40001        REQMM              CS       Q
002292: 07,7307           50613                           TS       REQRET
002293: 07,7310           33230                           CAF      ND1
002294: 07,7311           50614                           TS       DSPCOUNT
002295: 07,7312           35501                           CAF      ZERO
002296: 07,7313           50603                           TS       NOUNREG
002297: 07,7314           05654                           TC       BANKCALL
002298: 07,7315           14621                           CADR     2BLANK
002299: 07,7316           05654                           TC       BANKCALL
002300: 07,7317           14000                           CADR     FLASHON
002301: 07,7320           00065                           TC       ENTEXIT
002302:
002303:
002304:
002305:                                                                                                  #  VBRQEXEC ENTERS REQUEST TO EXEC     FOR ANY ADDRESS WITH ANY PRIORITY.
002306:                                                                                                  #  IT DOES ENDOFJOB AFTER ENTERING REQUEST.ASSUMES PRIO  PRELOADED INTO
002307:                                                                                                  #  BITS 10-14 OF FIRST REGISTER OF TEMP AREA, WITH BIT1=0 FOR NOVAC, BIT1
002308:                                                                                                  #  =1 FOR FINDVAC). THE VERB IS USED WITH NOUN=MACHINE ADDRESS TO BE
002309:                                                                                                  #  SPECIFIED. CADR JOBADDR IS PUNCHED IN. DISPLAY SYST IS RELEASED.
002310:
002311: 07,7321           33147        VBRQEXEC           CAF      ENDINST
002312: 07,7322           50075                           TS       PROGREG    +2
002313: 07,7323           03323                           TC       RELDSP
002314: 07,7324           34516                           CAF      BIT1
002315: 07,7325           70616                           MASK     DSPTEM1                               #  ********
002316: 07,7326           10000                           CCS      A
002317: 07,7327           07340                           TC       SETVAC                                #  IF BIT1 =1, FINDVAC
002318: 07,7330           33223                           CAF      TCNOVAC                               #  IF BIT1 =0, NOVAC
002319: 07,7331           50073        REQEX1             TS       PROGREG                               #  TC NOVAC OR TC FINDVAC INTO PROGREG
002320: 07,7332           30624                           XCH      NOUNADD
002321: 07,7333           50074                           TS       PROGREG    +1                         #  CADR JOBADDR INTO PROGREG +1
002322: 07,7334           44516                           CS       BIT1
002323: 07,7335           70616                           MASK     DSPTEM1                               #  *******
002324: 07,7336           20017                           INHINT
002325: 07,7337           00073                           TC       PROGREG
002326:
002327: 07,7340           33226        SETVAC             CAF      TCFINDVC
002328: 07,7341           07331                           TC       REQEX1
002329:
002330:                                                                                                  #  VBRQWAIT ENTERS REQUEST TO WAITLIST FOR ANY ADDRESS WITH ANY DELAY.


002332:                                                                                                  #  IT DOES ENDOFJOB AFTER ENTERING REQUEST.ASSUMES DELAY PRELOADED IN FIRST
002333:                                                                                                  #  REGISTER OF TEMP AREA. THE VERB IS USED WITH NOUN= MACHINE ADDRESS TO
002334:                                                                                                  #  BE SPECIFIED. CADR TASKADDR IS PUNCHED IN. DISPLAY SYST IS RELEASED.
002335:
002336: 07,7342           33147        VBRQWAIT           CAF      ENDINST
002337: 07,7343           50075                           TS       PROGREG    +2                         #  TC ENDOFJOB INTO PROGREG+2
002338: 07,7344           03323                           TC       RELDSP
002339: 07,7345           33224                           CAF      TCWAIT
002340: 07,7346           50073                           TS       PROGREG                               #  TC WAITLIST INTO PROGREG
002341: 07,7347           30624                           XCH      NOUNADD
002342: 07,7350           50074                           TS       PROGREG    +1                         #  CADR TASKADDR INTO PROGREG+1
002343: 07,7351           20017                           INHINT
002344: 07,7352           30616                           XCH      DSPTEM1                               #  DELTA T IN A
002345: 07,7353           00073        ENDRQWT            TC       PROGREG
002346:
002347:
002348:
002349: 06,7465                                           SETLOC   FLASHLOC   +1
002350: 06,7465           34516        VBPROC             CAF      ONE                                   #  PROCEED WITHOUT DATA
002351: 06,7466           50632                           TS       LOADSTAT
002352: 06,7467           03323                           TC       RELDSP
002353: 06,7470           06003                           TC       FLASHOFF
002354: 06,7471           07600                           TC       RECALTST                              #  SEE IF THERE IS ANY RECALL FROM ENDIDLE
002355:
002356:
002357:
002358: 06,7472           03127        VBTERM             TC       KILMONON                              #  TURN ON KILL MONITOR BIT
002359: 06,7473           44516                           CS       ONE
002360: 06,7474           07466                           TC       VBPROC     +1                         #  TERM VERB SETS LOADSTAT NEG
002361:
002362:
002363:                                                                                                  #  FLASH IS TURNED OFF ONLY BY PROCEED WITHOUT DATA, TERMINATE, END OF LOAD
002364:
002365:
002366:                                                                                                  #  VBRELDSP TURNS OFF RELEASE DISPLAY SYSTEM LIGHT(AND SEARCHES LIST ONLY
002367:                                                                                                  #  IF THIS LIGHT WAS TURNED ON BY NVSUBUSY), AND TURNS OFF UPACT LIGHT.
002368:
002369: 06,7475           35501        VBRELDSP           CAF      ZERO                                  #  RELEASE DISPLAY SYST
002370: 06,7476           50111                           TS       CODE                                  #  TURN OFF UPACT LIGHT
002371: 06,7477           35362                           CAF      SEVEN
002372: 06,7500           07426                           TC       11DSPIN
002373: 06,7501           03323                           TC       RELDSP                                #  SEARCHES LIST
002374: 06,7502           02124                           TC       ENDOFJOB
002375:
002376:
002377:
002378:                                                                                                  #  BUMP SHIFTS WORD DISPLAYED IN R2 TO R3, R1 TO R2. IT BLANKS R1.


002380:
002381: 06,7503           34477        BUMP               CAF      FIVE                                  #  R2D5
002382: 06,7504           50614                           TS       DSPCOUNT
002383: 06,7505           50104                           TS       COUNT
002384: 06,7506           34516                           CAF      ONE                                   #  SHIFT DATA OF R2 TO R3, R1 TO R2
002385: 06,7507           70104                           MASK     COUNT
002386: 06,7510           30104                           XCH      COUNT                                 #  +0 INTO COUNT IF EVEN (RIGHT)
002387: 06,7511           50021                           TS       SR                                    #  +1 INTO COUNT IF ODD (LEFT)
002388: 06,7512           30021                           XCH      SR                                    #  DSREL IN A
002389: 06,7513           20000                           INDEX    A
002390: 06,7514           10710                           CCS      DSPTAB
002391: 06,7515           07517                           TC       +2
002392: 06,7516           03062                           TC       CCSHOLE
002393: 06,7517           64516                           AD       ONE                                   #  DSMAG IN A
002394: 06,7520           20104                           INDEX    COUNT
002395: 06,7521           77422                           MASK     DSMSK
002396: 06,7522           20104                           INDEX    COUNT
002397: 06,7523           07524                           TC       +1
002398: 06,7524           07526                           TC       +2                                    #  EVEN(RIGHT)  OK
002399: 06,7525           03174                           TC       RIGHT5                                #  ODD(LEFT)  SHIFT RIGHT
002400: 06,7526           50111                           TS       CODE
002401: 06,7527           44477                           CS       FIVE
002402: 06,7530           60614                           AD       DSPCOUNT                              #  DSPCOUNT-5
002403: 06,7531           10000                           CCS      A                                     #  TO PREVENT -0
002404: 06,7532           64516                           AD       ONE
002405: 06,7533           07535                           TC       +2
002406: 06,7534           03062                           TC       CCSHOLE
002407: 06,7535           50104                           TS       COUNT
002408: 06,7536           07341                           TC       DSPIN                                 #  CODE ALREADY IN CODE
002409: 06,7537           40614                           CS       DSPCOUNT
002410: 06,7540           63171                           AD       R1D1                                  #  OCT 16
002411: 06,7541           10000                           CCS      A
002412: 06,7542           30614                           XCH      DSPCOUNT                              #  +, DSPCOUNT L/ OCT 16
002413: 06,7543           64516                           AD       ONE                                   #  INCREMENT DSPCOUNT
002414: 06,7544           07504                           TC       BUMP       +1
002415:
002416: 06,7545           35501        SWSGN              CAF      ZERO                                  #  -0, DSPCOUNT= OCT 16. DO SIGN SHIFT
002417: 06,7546           50614                           TS       DSPCOUNT
002418: 06,7547           67576                           AD       SWTAB      +2                         #  OCT 3
002419: 06,7550           20000                           INDEX    A                                     #  PICKUP ORDER , DSREL=3,4,5,6.
002420: 06,7551           10710                           CCS      DSPTAB                                #                   (-R2,+R2,-R1,+R1)
002421: 06,7552           07554                           TC       +2
002422: 06,7553           03062                           TC       CCSHOLE
002423: 06,7554           64516                           AD       ONE
002424: 06,7555           74504                           MASK     BIT11
002425: 06,7556           50111                           TS       CODE
002426: 06,7557           20614                           INDEX    DSPCOUNT
002427: 06,7560           37574                           CAF      SWTAB                                 #  PUT AWAY ORDER, DSREL= 0,1,3,4.
002428: 06,7561           07426                           TC       11DSPIN                               #                   (-R3,+R3,-R2,+R2.)
002429: 06,7562           40614                           CS       DSPCOUNT
002430: 06,7563           67576                           AD       SWTAB      +2                         #  OCT 3


002432: 06,7564           10000                           CCS      A
002433: 06,7565           30614                           XCH      DSPCOUNT                              #  +, DSPCOUNT L/ 3
002434: 06,7566           64516                           AD       ONE                                   #  INCREMENT DSPCOUNT
002435: 06,7567           07546                           TC       SWSGN      +1
002436: 06,7570           33171                           CAF      R1D1                                  #  -0,       DSPCOUNT = 3
002437: 06,7571           50614                           TS       DSPCOUNT
002438: 06,7572           06554                           TC       5BLANK                                #  BLANKS R1
002439: 06,7573           00065                           TC       ENTEXIT
002440:
002441: 06,7574           00000        SWTAB              OCT      0                                     #  -R3
002442: 06,7575           00001                           OCT      1                                     #  +R3
002443: 06,7576           00003                           OCT      3                                     #  -R2
002444: 06,7577           00004                           OCT      4                                     #  +R2
002445:
002446:
002447:
002448:                                                                                                  #  NVSUB IS USED FOR SUB ROUTINE CALLS FROM WITHIN COMPUTER. IT CAN BE
002449:                                                                                                  #  USED TO DO ANY THING THE KEYBOARD CAN CALL. PLACE  ...VVVVVVNNNNNN
002450:                                                                                                  #  INTO A.      V-S ARE 6 BIT VERB CODE. N-S , 6 BIT NOUN CODE.
002451:
002452:                                                                                                  #  NVSUB CAN BE USED WITH MACH ADDR TO BE SPEC BY PLACING THE ADDRESS IN
002453:                                                                                                  #  MPAC+2 BEFORE THE STANDARD NVSUB CALL.
002454:
002455:                                                                                                  #   NVSUB RETURNS TO 2+ CALLING LOC AFTER PERFORMING TASK, IF DISPLAY
002456:                                                                                                  #  SYSTEM IS AVAILABLE. THE NEW NOUN AND VERB CODES ARE DISPLAYED.
002457:                                                                                                  #  IF V:S =0, THE NEW NOUN CODE IS DISPLAYED ONLY(RETURN WITH NO FURTHER
002458:                                                                                                  #  ACTION). IF N-S =0, THE NEW VERB CODE IS DISPLAYED ONLY(RETURN WITH NO
002459:                                                                                                  #  FURTHER ACTION).
002460:
002461:                                                                                                  #  IT RETURNS TO 1+ CALLING LOC WITHOUT PERFORMING TASK, IF DISPLAY
002462:                                                                                                  #  SYSTEM IS BLOCKED (NOTHING IS DISPLAYED IN THIS CASE).
002463:                                                                                                  #  IT DOES TC ABORT (WITH OCT 01501) IF IT ENCOUNTERS A DISPLAY PROGRAM
002464:                                                                                                  #  ALARM CONDITION BEFORE RETURN TO CALLER.
002465:
002466:                                                                                                  #  THE DISPLAY SYSTEM IS BLOCKED BY THE DEPRESSION OF ANY
002467:                                                                                                  #  KEY, EXCEPT ERROR LIGHT RESET. ALSO BY ENDIDLE.
002468:                                                                                                  #        IT IS RELEASED BY SPECIAL VERB = RELEASE DISPLAY, ALL GO TO VERBS,
002469:                                                                                                  #  PROCEED WITHOUT DATA, TERMINATE, INITIALIZE EXECUTIVE,
002470:                                                                                                  #  RECALL PART OF RECALTST IF ENDIDLE WAS USED,
002471:                                                                                                  #  IN RECALTST IF NVSUB INITIATED LOAD AND ENDIDLE WAS NOT USED,
002472:                                                                                                  #  VB = REQUEST EXECUTIVE, VB = REQUEST WAITLIST,
002473:                                                                                                  #  MONITOR SET UP.
002474:
002475:                                                                                                  #  A NVSUB CALL THAT PASSES DSPLOCK ENDS OLD MONITOR.
002476:
002477:                                                                                                  #  DSPLOCK IS THE INTERLOCK FOR USE OF KEYBOARD AND DISPLAY SYSTEM WHICH
002478:                                                                                                  #  LOCKS OUT INTERNAL USE WHENEVER THERE IS EXTERNAL KEYBOARD ACTION.
002479:
002480:                                                                                                  #  NVSUB IN F/F PLACES 2 + CALLING CADR INTO NVSBCADR, TC NVSUBEND INTO
002481:                                                                                                  #  ENTRET. IT WILL HANDLE A CALL FROM F/F OK, BUT WILL NOT RESTORE BANKREG


002483:                                                                                                  #  TO ITS ORIGINAL CONTENTS.
002484:
002485:    3100                                           SETLOC   MIDSIX     +1
002486:    3100           50110        NVSUB              TS       NVTEMP                                #  IN FIXED FIXED
002487:    3101           34513                           CAF      BIT4
002488:    3102           70645                           MASK     DSPLOCK                               #  BIT4 OF STATE
002489:    3103           10000                           CCS      A
002490:    3104           00001                           TC       Q                                     #  DSP SYST BLOCKED. RET TO 1+ CALLING LOC
002491:    3105           30001                           XCH      Q                                     #  DSP SYST AVAILABLE
002492:    3106           64516                           AD       ONE
002493:    3107           50071                           TS       TEMQS                                 #  2+ CALLING CADR INTO TEMQS
002494:    3110           03127                           TC       KILMONON                              #  TURN ON KILL MONITOR BIT
002495:    3111           33120        NVSUBCOM           CAF      NVSUBANK
002496:    3112           30015                           XCH      BANKREG
002497:    3113           50072                           TS       BANKTEM
002498:    3114           05706                           TC       MAKECADR
002499:    3115           30062                           XCH      ADDRWD
002500:    3116           50631                           TS       NVSBCADR
002501:    3117           06000                           TC       NVSUBB                                #  GO TO NVSUB1 THRU STANDARD LOC
002502:    3120           17354        NVSUBANK           CADR     NVSUB1                                #  BANK NUMB OF NVSUB1
002503:
002504:    3121           30001        NVSUBMON           XCH      Q                                     #  MONDO COMES HERE
002505:    3122           64516                           AD       ONE
002506:    3123           50071                           TS       TEMQS
002507:    3124           03111                           TC       NVSUBCOM
002508:
002509:
002510:
002511:    3125           30631        NVSUBEND           XCH      NVSBCADR
002512:    3126           05662                           TC       SWCALL
002513:
002514:
002515:
002516: 07,7354                                           SETLOC   ENDRQWT    +1
002517: 07,7354           37373        NVSUB1             CAF      ENTSET                                #  IN BANK
002518: 07,7355           50065                           TS       ENTRET                                #  SET RETURN TO NVSUBEND
002519: 07,7356           37421                           CAF      LOW6
002520: 07,7357           70110                           MASK     NVTEMP
002521: 07,7360           50115                           TS       MPAC                                  #  TEMP STORAGE
002522: 07,7361           37422                           CAF      MID6
002523: 07,7362           70110                           MASK     NVTEMP
002524: 07,7363           03174                           TC       RIGHT5
002525: 07,7364           50020                           TS       CYR
002526: 07,7365           30020                           XCH      CYR
002527: 07,7366           50116                           TS       MPAC       +1                         #  TEMP STORAGE
002528: 07,7367           10115                           CCS      MPAC                                  #  TEST NOUN
002529: 07,7370           07374                           TC       +4                                    #  IF NOUN NOT +0, GO ON
002530: 07,7371           30116                           XCH      MPAC       +1
002531: 07,7372           06345                           TC       UPDATVB    -1                         #  IF NOUN = +0, DISPLAY VERB . THEN RETURN


002533: 07,7373           03125        ENTSET             TC       NVSUBEND
002534: 07,7374           10116                           CCS      MPAC       +1                         #  TEST VERB
002535: 07,7375           07401                           TC       +4                                    #  IF VERB NOT +0, GO ON
002536: 07,7376           30115                           XCH      MPAC
002537: 07,7377           06326                           TC       UPDATNN    -1                         #  IF VERB = +0, DISPLAY NOUN . THEN RETURN
002538: 07,7400           03125                           TC       NVSUBEND
002539: 07,7401           30116                           XCH      MPAC       +1
002540: 07,7402           06345                           TC       UPDATVB    -1                         #  IF BOTH NOUN AND VERB NOT +0, DISPLAY
002541: 07,7403           30115                           XCH      MPAC                                  #  BOTH AND GO TO ENTPAS0
002542: 07,7404           06326                           TC       UPDATNN    -1
002543: 07,7405           10054                           CCS      NNADTEM                               #  NOUN TABLES WERE READ IN UPDATNN.
002544: 07,7406           07411                           TC       +3                                    #  NORMAL
002545: 07,7407           06356                           TC       GODSPALM                              #  NOUN NOT IN USE
002546: 07,7410           07416                           TC       MATBSUB
002547: 07,7411           35501        NVSUB2             CAF      ZERO
002548: 07,7412           50632                           TS       LOADSTAT                              #  SET FOR WAITING FOR DATA CONDITION
002549: 07,7413           50633                           TS       CLPASS
002550: 07,7414           50613                           TS       REQRET                                #  SET REQRET FOR PASS 0.
002551: 07,7415           06035                           TC       ENTPAS0
002552:
002553: 07,7416           30117        MATBSUB            XCH      MPAC       +2                         #  NVSUB CALL LEFT ADDRES FOR MATBS IN
002554: 07,7417           50624                           TS       NOUNADD                               #  MPAC+2.
002555: 07,7420           07411                           TC       NVSUB2
002556:
002557:
002558:
002559: 07,7421           00077        LOW6               OCT      77
002560: 07,7422           07700        MID6               OCT      7700
002561:
002562:    3127                                           SETLOC   NVSUBEND   +2
002563:    3127           44500        KILMONON           CS       BIT15                                 #  FORCE BIT 15 OF MONSAVE1 TO 1.
002564:    3130           20017                           INHINT                                         #          THIS IS THE KILL MONITOR BIT.
002565:    3131           70626                           MASK     MONSAVE1
002566:    3132           64500                           AD       BIT15
002567:    3133           50626                           TS       MONSAVE1
002568:    3134           20016                           RELINT
002569:    3135           00001                           TC       Q
002570:
002571:
002572:
002573:                                                                                                  #  LOADSTAT  +0 INACTIVE(WAITING FOR DATA). SET BY NVSUB
002574:                                                                                                  #            +1  PROCEED NO DATA. SET BY SPECIAL VERB
002575:                                                                                                  #           -1 TERMINATE   SET BY SPECIAL VERB
002576:                                                                                                  #           -0 DATA IN   SET BY END OF LOAD ROUTINE
002577:
002578:                                                                                                  #  L  TC ENDIDLE  (FIXED FIXED)
002579:                                                                                                  #  ROUTINES THAT REQUEST LOADS THROUGH NVSUB SHOULD USE ENDIDLE WHILE
002580:                                                                                                  #  WAITING FOR THE DATA TO BE LOADED. ENDIDLE PUTS CURRENT JOB TO SLEEP.


002582:                                                                                                  #  RECALTST TESTS LOADSTAT AND WAKES JOB UP TO,
002583:                                                                                                  #  L+1 FOR TERMINATE
002584:                                                                                                  #  L+2 FOR PROCEED WITHOUT DATA
002585:                                                                                                  #  L+3 FOR DATA IN
002586:                                                                                                  #  IT DOES NOTHING     IF LOADSTAT INDICATES WAITING FOR DATA.
002587:
002588:    3136           30001        ENDIDLE            XCH      Q                                     #  NOVAC ROUTINES ENTER HERE
002589:    3137           50071                           TS       TEMQS
002590:    3140           30015                           XCH      BANKREG
002591:    3141           50072                           TS       BANKTEM
002592:    3142           05706                           TC       MAKECADR
002593:    3143           03265                           TC       DSPLOCK1                              #  MAKE DSPLOCK BUSY (BIT 4 OF STATE)
002594:    3144           30062                           XCH      ADDRWD
002595:    3145           50627                           TS       CADRSTOR
002596:    3146           02127                           TC       JOBSLEEP
002597:
002598:
002599:
002600:    3147           02124        ENDINST            TC       ENDOFJOB
002601:
002602:    3150           05777        BNKCON             OCT      5777
002603:
002604:
002605:
002606:                                                                                                  #  JAMTERM ALLOWS PROGRAMS TO PERFORM THE TERMINATE FUNCTION.
002607:                                                                                                  #  IT DOES ENDOFJOB.
002608:
002609:    3151           33554        JAMTERM            CAF      TWENTY8
002610:    3152           50613                           TS       REQRET                                #  LEAVE ENTER AT PASS 0
002611:    3153           05654                           TC       BANKCALL
002612:    3154           16345                           CADR     UPDATVB    -1                         #  DISPLAY VB 34
002613:    3155           05720                           TC       POSTJUMP
002614:    3156           15472                           CADR     VBTERM
002615:
002616:
002617:
002618:                                                                                                  #  DATAWAIT IS AN ALTERNATIVE TO ENDIDLE. IT RETURNS IMMEDIATELY IF
002619:                                                                                                  #  LOADSTAT INDICATES THAT DATA IS ALREADY IN, OR PROCEED OR TERMINATE HAS
002620:                                                                                                  #  BEEN EXECUTED. RETURN FORMAT IS SAME AS FOR ENDIDLE.
002621:                                                                                                  #  DATAWAIT SHOULD BE USED ONLY AFTER REQUESTING A LOAD VERB.
002622:
002623:    3157           30001        DATAWAIT           XCH      Q
002624:    3160           50071                           TS       TEMQS
002625:    3161           10632                           CCS      LOADSTAT
002626:    3162           03167                           TC       DATWAIT1                              #  PROCEED,RETURN TO L+2.
002627:    3163           03140                           TC       ENDIDLE    +2                         #  STILL WAITING. GO TO SLEEP.
002628:    3164           00071                           TC       TEMQS                                 #  TERMINATE. RETURN TO L+1.
002629:    3165           20071                           INDEX    TEMQS                                 #  DATA IN. RETURN TO L+3.
002630:    3166           00002                           TC       2
002631:    3167           20071        DATWAIT1           INDEX    TEMQS                                 #  RETURN TO L+2


002633:    3170           00001                           TC       1
002634:
002635:                                                                                                  #  DATAWAIT DOES NOT RELEASE DISPLAY SYST. IT IS RELEASED AT END OF NVSUB
002636:                                                                                                  #  INITIATED LOAD, IF ENDIDLE WAS NOT USED.
002637:
002638:
002639:
002640: 07,7423                                           SETLOC   MID6       +1
002641:                                                                                                  #  DSPMM  PLACE MAJOR MODE CODE INTO MODREG
002642:
002643: 07,7423           33231        DSPMM1             CAF      MD1                                   #  GETS HERE THRU DSPMM (STANDARD LEAD IN)
002644: 07,7424           30614                           XCH      DSPCOUNT                              #  SAVE DSPCOUNT
002645: 07,7425           50107                           TS       DSPMMTEM
002646: 07,7426           40612                           CS       MODREG
002647: 07,7427           40000                           CS       A
002648: 07,7430           07261                           TC       DSP2BIT
002649: 07,7431           30107                           XCH      DSPMMTEM                              #  RESTORE DSPCOUNT
002650: 07,7432           50614                           TS       DSPCOUNT
002651: 07,7433           00063        ENDSPMM1           TC       UPDATRET
002652:
002653:
002654:
002655:                                                                                                  #  RECALTST IS ENTERED DIRECTLY AFTER DATA IS
002656:                                                                                                  #  LOADED, TERMINATE VERB IS EXECUTED, OR THE PROCEED WITHOUT DATA VERB IS
002657:                                                                                                  #  EXECUTED. IT WAKES UP JOB THAT DID TC ENDIDLE.
002658:
002659:                                                                                                  #  IF NVSUB INITIATED LOAD, AND ENDIDLE WAS NOT USED, THEN IT RELEASES
002660:                                                                                                  #  DISPLAY SYST. (NEEDED FOR DATAWAIT)
002661:
002662: 06,7600                                           SETLOC   SWTAB      +4
002663:
002664: 06,7600           10627        RECALTST           CCS      CADRSTOR
002665: 06,7601           07606                           TC       RECAL1
002666: 06,7602           02124                           TC       ENDOFJOB                              #  NORMAL EXIT IF KEYBOARD INITIATED
002667: 06,7603           07606                           TC       RECAL1
002668: 06,7604           50627                           TS       CADRSTOR                              #  -0. CONCLUSION OF NVSUB INITIATED LOAD.
002669: 06,7605           07624                           TC       RECAL3                                #  +0 INTO CADRSTOR, RELEASE DISPLAY,
002670:                                                                                                  #     AND ENDOFJOB. NEEDED FOR DATAWAIT.
002671: 06,7606           35501        RECAL1             CAF      ZERO
002672: 06,7607           30627                           XCH      CADRSTOR
002673: 06,7610           20017                           INHINT
002674: 06,7611           02060                           TC       JOBWAKE
002675: 06,7612           10632                           CCS      LOADSTAT
002676: 06,7613           07630                           TC       DOPROC                                #  + PROCEED WITHOUT DATA
002677: 06,7614           02124                           TC       ENDOFJOB                              #  PATHALOGICAL CASE EXIT
002678: 06,7615           07626                           TC       DOTERM                                #  -   TERMINATE
002679: 06,7616           45503                           CS       TWO
002680: 06,7617           20601        RECAL2             INDEX    LOCCTR
002681: 06,7620           60120                           AD       LOC                                   #  LOC IS - FOR BASIC JOBS
002682: 06,7621           20601                           INDEX    LOCCTR


002684: 06,7622           50120                           TS       LOC
002685: 06,7623           20016                           RELINT
002686: 06,7624           03356        RECAL3             TC       RELDSP1                               #  DOES NOT SEARCH LIST
002687: 06,7625           02124                           TC       ENDOFJOB
002688:
002689: 06,7626           35501        DOTERM             CAF      ZERO
002690: 06,7627           07617                           TC       RECAL2
002691:
002692: 06,7630           44516        DOPROC             CS       ONE
002693: 06,7631           07617                           TC       RECAL2
002694:


002696:
002697:                                                                                                  #  THE FOLLOWING REFERS TO THE NOUN TABLES
002698:
002699:
002700:
002701: 07,7431                                           SETLOC   DSPMM1     +6
002702:
002703:                                                                                                  #  COMPONENT CODE NUMBER         INTERPRETATION
002704:
002705:                                                                                                  #  00000                         1 COMPONENT
002706:                                                                                                  #  00001                         2 COMPONENT (EACH S P)
002707:                                                                                                  #  00010                         3 COMPONENT (EACH SP)
002708:
002709:
002710:
002711:                                                                                                  #  SF ROUTINE CODE NUMBER        INTERPRETATION
002712:
002713:                                                                                                  #  00000         OCTAL ONLY
002714:                                                                                                  #  00001         STRAIGHT FRACTIONAL
002715:                                                                                                  #  00010         DEGREES (XXX.XX)
002716:                                                                                                  #  00011         ARITHMETIC SF
002717:                                                                                                  #  00100         ARITH DP1       OUT(MULT BY 2/14 AT END)        IN(STRAIGHT)
002718:                                                                                                  #  00101         ARITH DP2       OUT(STRAIGHT)                   IN(SL 7 AT END)
002719:                                                                                                  #  00110         OPTICS DEGREES(XX.XXX MAX 89.999) OR (XXX.XX MAX 179.99)
002720:                                                                                                  #  00111         ARITH DP3       OUT ( SL 7 AT END)              IN ( STRAIGHT)
002721:                                                                                                  #  END OF SF ROUTINE CODE NUMBERS
002722:
002723:
002724:
002725:                                                                                                  #  SF CONSTANT CODE NUMBER       INTERPRETATION
002726:
002727:                                                                                                  #  00000                         WHOLE
002728:                                                                                                  #  00000                         TIME SEC(XXX.XX)SAME AS WHOLE (ARITH DP1)
002729:                                                                                                  #  00001                         TIME HOURS(XXX.XX) USE ARITH DP2
002730:                                                                                                  #  00010                         DEGREES
002731:                                                                                                  #  00010                         OPTICS DEGREES
002732:                                                                                                  #  00011                         GYRO DEGREES(XX.XXX) USE ARITH DP1
002733:                                                                                                  #  00100                         GYRO BIAS DRIFT .BBXXXXX MILLIRAD/SEC
002734:                                                                                                  #  00101                         GYRO AXIS ACCEL. DRIFT
002735:                                                                                                  #                                .BBXXXXX (MILLIRAD/SEC) / (CM/SEC SEC)
002736:                                                                                                  #  00110                         PIPA BIAS X.XXXX CM/SEC SEC
002737:                                                                                                  #  00111                         PIPA SCALE FACTOR ERROR
002738:                                                                                                  #                                        XXXXX. PARTS/MILLION
002739:                                                                                                  #  01000                         POSITION(XXXX.X KILOMETERS) USE ARITHDP3
002740:                                                                                                  #  01001                         VELOCITY(XXXX.X METERS/SEC) USE ARITHDP2
002741:                                                                                                  #  01010                         TIME HOURS(XXX.XX)WEEKS INSIDE(ARITHDP2)
002742:                                                                                                  #  01011                         ELEVATION DEGREES(89.999MAX) USE ARITH
002743:                                                                                                  #  01100                         VG FOR 501 (XXXX.X MET/SEC)  USE ARITH
002744:                                                                                                  #  END OF SF CONSTANT CODE NUMBERS
002745:


002747:                                                                                                  #  FOR GREATER THAN SINGLE PRECISION SCALES, PUT ADDRESS OF MAJOR PART INTO
002748:                                                                                                  #  NOUN TABLES.
002749:                                                                                                  #  OCTAL LOADS PLACE +0 INTO MAJOR PART, DATA INTO MINOR PART.
002750:                                                                                                  #  OCTAL DISPLAYS SHOW MINOR PART ONLY.
002751:                                                                                                  #  TO GET AT BOTH MAJOR AND MINOR PARTS (IN OCTAL), USE NOUN 01.
002752:


002754:
002755:                                                                                                  #  THE FOLLOWING ROUTINES ARE FOR READING THE NOUN TABLES AND THE SF TABLES
002756:                                                                                                  #  (WHICH ARE IN A SEPARATE BANK FROM THE REST OF PINBALL). THESE READING
002757:                                                                                                  #  ROUTINES ARE IN THE SAME BANK AS THE TABLES. THEY ARE CALLED BY SWCALL.
002758:
002759:
002760:
002761:                                                                                                  #  LODNNTAB LOADS NNADTEM WITH THE NNADTAB ENTRY, NNTYPTEM WITH THE
002762:                                                                                                  #  NNTYPTAB ENTRY. IF THE NOUN IS MIXED, IDAD1TEM IS LOADED WITH THE FIRST
002763:                                                                                                  #  IDADDTAB ENTRY, IDAD2TEM THE SECOND IDADDTAB ENTRY, IDAD3TEM THE THIRD
002764:                                                                                                  #  IDADDTAB ENTRY. MIXBR IS SET FOR MIXED OR NORMAL NOUN.
002765:
002766: 05,7153                                           SETLOC   ENDEXTVS
002767: 05,7153           30001        LODNNTAB           XCH      Q
002768: 05,7154           50060                           TS       IDAD3TEM                              #  SAVE RETURN ADDRESS IN IDAD3TEM
002769: 05,7155           20603                           INDEX    NOUNREG
002770: 05,7156           37231                           CAF      NNADTAB
002771: 05,7157           50054                           TS       NNADTEM
002772: 05,7160           20603                           INDEX    NOUNREG
002773: 05,7161           37331                           CAF      NNTYPTAB
002774: 05,7162           50055                           TS       NNTYPTEM
002775: 05,7163           40603                           CS       NOUNREG
002776: 05,7164           67167                           AD       MIXCON
002777: 05,7165           10000                           CCS      A
002778: 05,7166           07210                           TC       LODNORM                               #  NOUN L/ FIRST MIXED NOUN
002779: 05,7167           00055        MIXCON             OCT      55                                    #  FIRST MIXED NOUN = 55.
002780: 05,7170           07171                           TC       +1
002781: 05,7171           35503        LODMIXNN           CAF      TWO                                   #  NOUN G/E FIRST MIXED NOUN
002782: 05,7172           50107                           TS       MIXBR
002783: 05,7173           34606                           CAF      LOW10
002784: 05,7174           70054                           MASK     NNADTEM
002785: 05,7175           50001                           TS       Q                                     #  IDADDREL INTO Q
002786: 05,7176           20000                           INDEX    A
002787: 05,7177           37515                           CAF      IDADDTAB
002788: 05,7200           50056                           TS       IDAD1TEM                              #  LOAD IDAD1TEM WITH FIRST IDADDTAB ENTRY.
002789: 05,7201           20001                           INDEX    Q
002790: 05,7202           37516                           CAF      IDADDTAB   +1
002791: 05,7203           50057                           TS       IDAD2TEM                              #  LOAD IDAD2TEM WITH 2ND IDADDTAB ENTRY.
002792: 05,7204           20001                           INDEX    Q
002793: 05,7205           37517                           CAF      IDADDTAB   +2                         #  LOAD IDAD3TEM WITH 3RD IDADDTAB ENTRY.
002794: 05,7206           30060        LODNLV             XCH      IDAD3TEM                              #  PUT RETURN ADDESS INTO A.
002795: 05,7207           00000                           TC       A
002796:
002797: 05,7210           34516        LODNORM            CAF      ONE
002798: 05,7211           50107                           TS       MIXBR
002799: 05,7212           07206                           TC       LODNLV
002800:
002801:
002802:
002803:                                                                                                  #  GTSFOUT LOADS SFTEMP1, SFTEMP2 WITH THE DP SFOUTAB ENTRIES.


002805:
002806: 05,7213           20111        GTSFOUT            INDEX    SFTEMP2                               #  SF CONUM ARRIVES IN SFTEMP2.
002807: 05,7214           37463                           CAF      SFOUTAB1
002808: 05,7215           50110                           TS       SFTEMP1
002809: 05,7216           20111                           INDEX    SFTEMP2
002810: 05,7217           37500                           CAF      SFOUTAB2
002811: 05,7220           50111                           TS       SFTEMP2
002812: 05,7221           00001                           TC       Q
002813:
002814:
002815:
002816:                                                                                                  #  GTSFIN LOADS SFTEMP1, SFTEMP2 WITH THE DP SFINTAB ENTRIES.
002817:
002818: 05,7222           20111        GTSFIN             INDEX    SFTEMP2                               #  SF CONUM ARRIVES IN SFTEMP2.
002819: 05,7223           37431                           CAF      SFINTAB1
002820: 05,7224           50110                           TS       SFTEMP1
002821: 05,7225           20111                           INDEX    SFTEMP2
002822: 05,7226           37446                           CAF      SFINTAB2
002823: 05,7227           50111                           TS       SFTEMP2
002824: 05,7230           00001                           TC       Q
002825:
002826:
002827:
002828:                                                                                                  #  NN   NORMAL NOUNS
002829: 05,7231           00000        NNADTAB            OCT      00000                                 #  00 NOT IN USE
002830: 05,7232           40000                           OCT      40000                                 #  01 SPECIFY MACHINE ADDRESS (FRACTIONAL)
002831: 05,7233           40000                           OCT      40000                                 #  02 SPECIFY MACHINE ADDRESS (WHOLE)
002832: 05,7234           40000                           OCT      40000                                 #  03 SPECIFY MACHINE ADDRESS (DEGREES)
002833: 05,7235           40000                           OCT      40000                                 #  04 SPECIFY MACHINE ADDRESS (HOURS)
002834: 05,7236           40000                           OCT      40000                                 #  05 SPECIFY MACHINE ADDRESS (SECONDS)
002835: 05,7237           40000                           OCT      40000                                 #  06 SPECIFY MACHINE ADDRESS (GYRO DEG)
002836: 05,7240           40000                           OCT      40000                                 #  07 SPECIFY MACHINE ADDRESS (Y OPT DEG.)
002837: 05,7241           00000                           OCT      00000                                 #  10 SPARE
002838: 05,7242           00000                           OCT      00000                                 #  11 SPARE
002839: 05,7243           00000                           OCT      00000                                 #  12 SPARE
002840: 05,7244           00000                           OCT      00000                                 #  13 SPARE
002841: 05,7245           00000                           OCT      00000                                 #  14 SPARE
002842: 05,7246           77777                           OCT      77777                                 #  15 INCREMENT MACHINE ADDRESS
002843: 05,7247           00035                           OCT      00035                                 #  16 TIME SECONDS
002844: 05,7250           00035                           OCT      00035                                 #  17 TIME HOURS
002845: 05,7251           00047                           ADRES    CDUX                                  #  20 ICDU
002846: 05,7252           00044                           ADRES    PIPAX                                 #  21 PIPAS
002847: 05,7253           00700                           ADRES    THETAD                                #  22 NEW ANGLES I
002848: 05,7254           00621                           ADRES    DSPTEM2                               #  23 DELTA ANGLES I
002849: 05,7255           00616                           ADRES    DSPTEM1                               #  24 DELTA TIME (SEC)
002850: 05,7256           00616                           ADRES    DSPTEM1                               #  25 CHECKLIST
002851: 05,7257           00616                           ADRES    DSPTEM1                               #  26 PRIO/DELAY
002852: 05,7260           01762                           ADRES    SMODE                                 #  27 SELF TEST ON/OFF SWITCH
002853: 05,7261           00616                           ADRES    DSPTEM1                               #  30 STAR NUMBERS
002854: 05,7262           01763                           ADRES    FAILREG                               #  31 FAILREG, SFAIL, ERCOUNT
002855: 05,7263           01266                           ADRES    TDEC                                  #  32 DECISION TIME (MIDCOURSE)


002857: 05,7264           01146                           ADRES    TET                                   #  33 EPHEMERIS TIME(MIDCOURSE)
002858: 05,7265           01276                           ADRES    MEASQ                                 #  34 MEASURED QUANTITY (MIDCOURSE)
002859: 05,7266           01314                           ADRES    ROLL                                  #  35 ROLL, PITCH, YAW
002860: 05,7267           00616                           ADRES    LANDMARK                              #  36 LANDMARK DATA 1
002861: 05,7270           00621                           ADRES    LANDMARK   +3                         #  37 LANDMARK DATA 2
002862: 05,7271           00616                           ADRES    DSPTEM1                               #  40 VG FOR 501
002863: 05,7272           00000                           OCT      00000                                 #  41 SPARE
002864: 05,7273           00000                           OCT      00000                                 #  42 SPARE
002865: 05,7274           00000                           OCT      00000                                 #  43 SPARE
002866: 05,7275           00000                           OCT      00000                                 #  44 SPARE
002867: 05,7276           00000                           OCT      00000                                 #  45 SPARE
002868: 05,7277           00000                           OCT      00000                                 #  46 SPARE
002869: 05,7300           00000                           OCT      00000                                 #  47 SPARE
002870: 05,7301           00000                           OCT      00000                                 #  50 SPARE
002871: 05,7302           00000                           OCT      00000                                 #  51 SPARE
002872: 05,7303           00744                           ADRES    GBIASX                                #  52 GYRO BIAS DRIFT
002873: 05,7304           00747                           ADRES    ADIAX                                 #  53 GYRO INPUT AXIS ACCELERATION DRIFT
002874: 05,7305           00752                           ADRES    ADSRAX                                #  54 GYRO SPIN AXIS ACCELERATION DRIFT
002875:
002876:                                                                                                  #  NN  MIXED NOUNS
002877: 05,7306           02000                           OCT      02000                                 #  55 OCDU
002878: 05,7307           04002                           OCT      04002                                 #  56 UNCALLED MARK DATA (OCDU & TIME(SEC))
002879: 05,7310           02005                           OCT      02005                                 #  57 NEW ANGLES OCDU
002880: 05,7311           04007                           OCT      04007                                 #  60 IMU MODE STATUS
002881: 05,7312           02012                           OCT      02012                                 #  61 TARGET AZIMUTH AND ELEVATION
002882: 05,7313           04062                           OCT      04062                                 #  62 RE-ENTRY VARIABLES
002883: 05,7314           02016                           OCT      02016                                 #  63 OCDUX AND TIME(SEC)
002884: 05,7315           02020                           OCT      02020                                 #  64 OCDUY AND TIME(SEC)
002885: 05,7316           02022                           OCT      02022                                 #  65 SAMPLED TIME (HOURS AND SECONDS)
002886:                                                                                                  #        (FETCHED IN INTERRUPT)
002887: 05,7317           04024                           OCT      04024                                 #  66 SYSTEM TEST RESULTS
002888: 05,7320           04027                           OCT      04027                                 #  67 DELTA GYRO ANGLES
002889: 05,7321           04032                           OCT      04032                                 #  70 PIPA BIAS
002890: 05,7322           04035                           OCT      04035                                 #  71 PIPA SCALE FACTOR ERROR
002891: 05,7323           04040                           OCT      04040                                 #  72 DELTA POSITION
002892: 05,7324           04043                           OCT      04043                                 #  73 DELTA VELOCITY
002893: 05,7325           04046                           OCT      04046                                 #  74 MEASUREMENT DATA (MIDCOURSE)
002894: 05,7326           04051                           OCT      04051                                 #  75 MEASUREMENT DEVIATIONS (MIDCOURSE)
002895: 05,7327           04054                           OCT      04054                                 #  76 POSITION VECTOR
002896: 05,7330           04057                           OCT      04057                                 #  77 VELOCITY VECTOR
002897:
002898:
002899:
002900:                                                                                                  #  NN        NORMAL NOUNS
002901: 05,7331           00000        NNTYPTAB           OCT      00000                                 #  00 NOT IN USE
002902: 05,7332           00040                           OCT      00040                                 #  01 1COMP  FRACTIONAL
002903: 05,7333           00140                           OCT      00140                                 #  02 1COMP  WHOLE
002904: 05,7334           00102                           OCT      00102                                 #  03 1COMP  DEGREES
002905: 05,7335           00241                           OCT      00241                                 #  04 1COMP  HOURS
002906: 05,7336           00200                           OCT      00200                                 #  05 1COMP  SECONDS


002908: 05,7337           00203                           OCT      00203                                 #  06 1COMP  GYRO DEGREES
002909: 05,7340           00302                           OCT      00302                                 #  07 1COMP  Y OPT DEGREES
002910: 05,7341           00000                           OCT      00000                                 #  10        SPARE
002911: 05,7342           00000                           OCT      00000                                 #  11        SPARE
002912: 05,7343           00000                           OCT      00000                                 #  12        SPARE
002913: 05,7344           00000                           OCT      00000                                 #  13        SPARE
002914: 05,7345           00000                           OCT      00000                                 #  14        SPARE
002915: 05,7346           00000                           OCT      00000                                 #  15 1COMP  OCTAL ONLY
002916: 05,7347           00200                           OCT      00200                                 #  16 1COMP  SECONDS
002917: 05,7350           00241                           OCT      00241                                 #  17 3COMP  HOURS
002918: 05,7351           04102                           OCT      04102                                 #  20 3COMP  DEGREES
002919: 05,7352           04140                           OCT      04140                                 #  21 3COMP  WHOLE
002920: 05,7353           04102                           OCT      04102                                 #  22 3COMP  DEGREES
002921: 05,7354           04102                           OCT      04102                                 #  23 3COMP  DEGREES
002922: 05,7355           00200                           OCT      00200                                 #  24 1COMP  SECONDS
002923: 05,7356           00140                           OCT      00140                                 #  25 1COMP  WHOLE
002924: 05,7357           00140                           OCT      00140                                 #  26 1COMP  WHOLE
002925: 05,7360           00140                           OCT      00140                                 #  27 1COMP  WHOLE
002926: 05,7361           04140                           OCT      04140                                 #  30 3COMP  WHOLE
002927: 05,7362           04000                           OCT      04000                                 #  31 3COMP  OCTAL ONLY
002928: 05,7363           00252                           OCT      00252                                 #  32 3COMP  TIME WEEKS
002929: 05,7364           00252                           OCT      00252                                 #  33 3COMP  TIME WEEKS
002930: 05,7365           00350                           OCT      00350                                 #  34 3COMP  POSITION
002931: 05,7366           04102                           OCT      04102                                 #  35 3COMP  DEGREES
002932: 05,7367           04000                           OCT      04000                                 #  36 3COMP  OCTAL ONLY
002933: 05,7370           04000                           OCT      04000                                 #  37 3COMP  OCTAL ONLY
002934: 05,7371           04154                           OCT      04154                                 #  40 3COMP  VG FOR 501
002935: 05,7372           00000                           OCT      00000                                 #  41        SPARE
002936: 05,7373           00000                           OCT      00000                                 #  42        SPARE
002937: 05,7374           00000                           OCT      00000                                 #  43        SPARE
002938: 05,7375           00000                           OCT      00000                                 #  44        SPARE
002939: 05,7376           00000                           OCT      00000                                 #  45        SPARE
002940: 05,7377           00000                           OCT      00000                                 #  46        SPARE
002941: 05,7400           00000                           OCT      00000                                 #  47        SPARE
002942: 05,7401           00000                           OCT      00000                                 #  50        SPARE
002943: 05,7402           00000                           OCT      00000                                 #  51        SPARE
002944: 05,7403           04144                           OCT      04144                                 #  52 3COMP  GYRO BIAS DRIFT
002945: 05,7404           04145                           OCT      04145                                 #  53 3COMP  GYRO AXIS ACCEL. DRIFT
002946: 05,7405           04145                           OCT      04145                                 #  54 3COMP  GYRO AXIS ACCEL. DRIFT
002947:
002948:                                                                                                  #  NN        MIXED NOUNS
002949: 05,7406           00102                           OCT      00102                                 #  55 2COMP  DEGREES, Y OPT DEGREES
002950: 05,7407           00102                           OCT      00102                                 #  56 3COMP  DEGREES, Y OPT DEGREES, SECS
002951: 05,7410           00102                           OCT      00102                                 #  57 2COMP  DEGREES, Y OPT DEGREES
002952: 05,7411           00000                           OCT      00000                                 #  60 3COMP  OCTAL ONLY
002953: 05,7412           00542                           OCT      00542                                 #  61 2COMP  DEGREES, ELEVATION DEGREES
002954: 05,7413           00000                           OCT      00000                                 #  62 3COMP  SECS, WHOLE, WHOLE
002955: 05,7414           00002                           OCT      00002                                 #  63 2COMP  DEGREES, SECS
002956: 05,7415           00002                           OCT      00002                                 #  64 2COMP  Y OPT DEGREES, SECS
002957: 05,7416           00001                           OCT      00001                                 #  65 2COMP  HOURS, SECONDS


002959: 05,7417           00000                           OCT      00000                                 #  66 3COMP  WHOLE, FRACTIONAL, WHOLE
002960: 05,7420           06143                           OCT      06143                                 #  67 3COMP  GYRO DEGREES FOR EACH
002961: 05,7421           14306                           OCT      14306                                 #  70 3COMP  PIPA BIAS FOR EACH
002962: 05,7422           16347                           OCT      16347                                 #  71 3COMP  PIPA SCALE FACTOR ERR.FOR EACH
002963: 05,7423           20410                           OCT      20410                                 #  72 3COMP  POSITION FOR EACH
002964: 05,7424           22451                           OCT      22451                                 #  73 3COMP  VELOCITY FOR EACH
002965: 05,7425           00412                           OCT      00412                                 #  74 3COMP  TIME WEEKS, POSITION, WHOLE
002966: 05,7426           20450                           OCT      20450                                 #  75 3COMP  POSITION, VELOCITY, POSITION
002967: 05,7427           20410                           OCT      20410                                 #  76 3COMP  POSITION FOR EACH
002968: 05,7430           22451                           OCT      22451                                 #  77 3COMP  VELOCITY FOR EACH
002969:
002970:
002971:
002972: 05,7431           00006        SFINTAB1           OCT      00006                                 #  WHOLE,TIME(SEC)               HIGH PART
002973: 05,7432           00253                           OCT      00253                                 #  TIME HOURS(=1.3-, PT. BETWEEN BITS 7-8)
002974: 05,7433           00000                           OCT      0                                     #  DEGREES
002975: 05,7434           00021                           OCT      00021                                 #  GYRO DEGREES
002976: 05,7435           00001                           OCT      00001                                 #  GYRO BIAS DRIFT
002977: 05,7436           00011                           OCT      00011                                 #  GYRO AXIS ACCEL. DRIFT
002978: 05,7437           00004                           OCT      00004                                 #  PIPA BIAS
002979: 05,7440           00314                           OCT      00314                                 #  PIPA SCALE ERROR
002980: 05,7441           23420                           OCT      23420                                 #  POSITION
002981: 05,7442           00201                           OCT      00201                                 #  VELOCITY (POINT BETWEEN BITS 7-8)
002982: 05,7443           01371                           OCT      01371                                 #  TIME WEEKS (POINT BETWEEN BITS 7-8)
002983: 05,7444           00001                           OCT      00001                                 #  ELEVATION DEGREES
002984: 05,7445           00003                           OCT      00003                                 #  VG FOR 501
002985:                                                                                                  #  END OF SFINTAB1
002986:
002987:
002988:
002989: 05,7446           03240        SFINTAB2           OCT      03240                                 #  WHOLE, TIME(SEC)              LO PART
002990: 05,7447           25124                           OCT      25124                                 #  TIME HOURS
002991: 05,7450           00000                           OCT      0                                     #  DEGREES ( SFCON IN DEGINSF)
002992: 05,7451           30707                           OCT      30707                                 #  GYRO DEGREES
002993: 05,7452           02133                           OCT      02133                                 #  GYRO BIAS DRIFT
002994: 05,7453           30322                           OCT      30322                                 #  GYRO AXIS ACCEL. DRIFT
002995: 05,7454           14021                           OCT      14021                                 #  PIPA BIAS
002996: 05,7455           31463                           OCT      31463                                 #  PIPA SCALE ERROR
002997: 05,7456           00000                           OCT      00000                                 #  POSITION
002998: 05,7457           30327                           OCT      30327                                 #  VELOCITY
002999: 05,7460           34750                           OCT      34750                                 #  TIME WEEKS
003000: 05,7461           03434                           OCT      03434                                 #  ELEVATION DEGREES
003001: 05,7462           04000                           OCT      04000                                 #  VG FOR 501
003002:                                                                                                  #  END OF SFINTAB2
003003:
003004:
003005:
003006: 05,7463           05174        SFOUTAB1           OCT      05174                                 #  WHOLE, TIME(SEC)              HIGH PART
003007: 05,7464           27670                           OCT      27670                                 #  TIME HOURS
003008: 05,7465           00000                           OCT      0                                     #  DEGREES


003010: 05,7466           01631                           OCT      01631                                 #  GYRO DEGREES
003011: 05,7467           35753                           OCT      35753                                 #  GYRO BIAS DRIFT
003012: 05,7470           03216                           OCT      03216                                 #  GYRO AXIS ACCEL. DRIFT
003013: 05,7471           07237                           OCT      07237                                 #  PIPA BIAS
003014: 05,7472           00120                           OCT      00120                                 #  PIPA SCALE ERROR
003015: 05,7473           00321                           OCT      00321                                 #  POSITION (POINT BETWEEN BITS 7-8)
003016: 05,7474           37441                           OCT      37441                                 #  VELOCITY
003017: 05,7475           05300                           OCT      05300                                 #  TIME WEEKS
003018: 05,7476           34631                           OCT      34631                                 #  ELEVATION DEGREES
003019: 05,7477           12172                           OCT      12172                                 #  VG FOR 501
003020:                                                                                                  #  END OF SFOUTAB1
003021:
003022:
003023:
003024: 05,7500           13261        SFOUTAB2           OCT      13261                                 #  WHOLE, TIME(SEC)              LO PART
003025: 05,7501           31357                           OCT      31357                                 #  TIME HOURS
003026: 05,7502           00000                           OCT      0                                     #  DEGREES
003027: 05,7503           23146                           OCT      23146                                 #  GYRO DEGREES
003028: 05,7504           32323                           OCT      32323                                 #  GYRO BIAS DRIFT
003029: 05,7505           06400                           OCT      06400                                 #  GYRO AXIS ACCEL. DRIFT
003030: 05,7506           37776                           OCT      37776                                 #  PIPA BIAS
003031: 05,7507           00000                           OCT      00000                                 #  PIPA SCALE ERROR
003032: 05,7510           26706                           OCT      26706                                 #  POSITION
003033: 05,7511           14247                           OCT      14247                                 #  VELOCITY
003034: 05,7512           20305                           OCT      20305                                 #  TIME WEEKS
003035: 05,7513           23146                           OCT      23146                                 #  ELEVATION DEGREES
003036: 05,7514           34121                           OCT      34121                                 #  VG FOR 501
003037:                                                                                                  #  END OF SFOUTAB2
003038:
003039:
003040:
003041:                                                                                                  #  MIXNOUN  SF ROUT              REG
003042: 05,7515           04052        IDADDTAB           CADR     OPTX       +04000                     #  01       DEGREES              52
003043: 05,7516           14053                           CADR     OPTY       +14000                     #  01       Y OPT DEGREES        53
003044: 05,7517           04616                           CADR     DSPTEM1    +04000                     #  02       DEGREES              627
003045: 05,7520           14617                           CADR     DSPTEM1    +14001                     #  02       Y OPT DEGREES        630
003046: 05,7521           10620                           CADR     DSPTEM1    +10002                     #  02       SEC                  631
003047: 05,7522           04704                           CADR     DESOPTX    +04000                     #  03       DEGREES              724
003048: 05,7523           14705                           CADR     DESOPTX    +14001                     #  03       Y OPT DEGREES        725
003049: 05,7524           00007                           CADR     IN3                                   #  04       OCTAL ONLY
003050: 05,7525           00727                           CADR     WASKSET                               #  04       OCTAL ONLY
003051: 05,7526           00726                           CADR     OLDERR                                #  04       OCTAL ONLY
003052: 05,7527           04616                           CADR     DSPTEM1    +04000                     #  05       DEGREES
003053: 05,7530           06617                           CADR     DSPTEM1    +06001                     #  05       ELEVATION DEGREES
003054: 05,7531           00000                           OCT      00000                                 #  N 62 WAS 2COMP. CHANGED TO 3COMP. MOVED
003055: 05,7532           00000                           OCT      00000                                 #  TO END OF IDADDTAB TO PRESERVE TABLE.
003056: 05,7533           04052                           CADR     OPTX       +04000                     #  07       DEGREES              52
003057: 05,7534           10035                           CADR     TIME2      +10000                     #  07       SEC                  35
003058: 05,7535           14053                           CADR     OPTY       +14000                     #  10       Y OPT DEGREES        53
003059: 05,7536           10035                           CADR     TIME2      +10000                     #  10       SEC                  35


003061: 05,7537           12643                           CADR     SAMPTIME   +12000                     #  11       HOURS                655
003062: 05,7540           10643                           CADR     SAMPTIME   +10000                     #  11       SECONDS              655
003063: 05,7541           06621                           CADR     DSPTEM2    +06000                     #  12       WHOLE                632
003064: 05,7542           02622                           CADR     DSPTEM2    +02001                     #  12       FRACTIONAL           633
003065: 05,7543           06623                           CADR     DSPTEM2    +06002                     #  12       WHOLE                634
003066: 05,7544           11520                           CADR     OGC        +10000                     #  13       GYRO DEGREES
003067: 05,7545           11522                           CADR     OGC        +10002                     #  13       GYRO DEGREES
003068: 05,7546           11524                           CADR     OGC        +10004                     #  13       GYRO DEGREES
003069: 05,7547           06736                           CADR     PBIASX     +06000                     #  14       PIPA BIAS
003070: 05,7550           06740                           CADR     PBIASY     +06000                     #  14       PIPA BIAS
003071: 05,7551           06742                           CADR     PBIASZ     +06000                     #  14       PIPA BIAS
003072: 05,7552           06737                           CADR     PIPASCFX   +06000                     #  15       PIPA SCALE FACTOR ERROR
003073: 05,7553           06741                           CADR     PIPASCFY   +06000                     #  15       PIPA SCALE FACTOR ERROR
003074: 05,7554           06743                           CADR     PIPASCFZ   +06000                     #  15       PIPA SCALE FACTOR ERROR
003075: 05,7555           17152                           CADR     DELR       +16000                     #  16       POSITION
003076: 05,7556           17154                           CADR     DELR       +16002                     #  16       POSITION
003077: 05,7557           17156                           CADR     DELR       +16004                     #  16       POSITION
003078: 05,7560           13160                           CADR     DELVEL     +12000                     #  17       VELOCITY
003079: 05,7561           13162                           CADR     DELVEL     +12002                     #  17       VELOCITY
003080: 05,7562           13164                           CADR     DELVEL     +12004                     #  17       VELOCITY
003081: 05,7563           13266                           CADR     TDEC       +12000                     #  20       TIME WEEKS
003082: 05,7564           17276                           CADR     MEASQ      +16000                     #  20       POSITION
003083: 05,7565           07300                           CADR     MEASMODE   +06000                     #  20       WHOLE
003084: 05,7566           16616                           CADR     DSPTEM1    +16000                     #  21       POSITION
003085: 05,7567           12620                           CADR     DSPTEM1    +12002                     #  21       VELOCITY
003086: 05,7570           17276                           CADR     DELTAQ     +16000                     #  21       POSITION
003087: 05,7571           16616                           CADR     DSPTEM1    +16000                     #  22       POSITION
003088: 05,7572           16620                           CADR     DSPTEM1    +16002                     #  22       POSITION
003089: 05,7573           16622                           CADR     DSPTEM1    +16004                     #  22       POSITION
003090: 05,7574           12616                           CADR     DSPTEM1    +12000                     #  23       VELOCITY
003091: 05,7575           12620                           CADR     DSPTEM1    +12002                     #  23       VELOCITY
003092: 05,7576           12622                           CADR     DSPTEM1    +12004                     #  23       VELOCITY
003093: 05,7577           10035                           CADR     TIME2      +10000                     #  06       SEC
003094: 05,7600           07617                           CADR     V          +06000                     #  06       WHOLE
003095: 05,7601           07110                           CADR     THETAH     +06000                     #  06       WHOLE
003096: 05,7602           00000                           OCT      00000                                 #           SPARE
003097: 05,7603           00000                           OCT      00000                                 #           SPARE
003098: 05,7604           00000                           OCT      00000                                 #           SPARE
003099:


003101:
003102:                                                                                                  #  MISCELLANEOUS SERVICE ROUTINES
003103:
003104:
003105:
003106:    3171                                           SETLOC   DATWAIT1   +2
003107:
003108:    3171           00016        R1D1               OCT      16
003109:    3172           00011        R2D1               OCT      11
003110:    3173           00004        R3D1               OCT      4
003111:
003112:    3174           50020        RIGHT5             TS       CYR
003113:    3175           40020                           CS       CYR
003114:    3176           40020                           CS       CYR
003115:    3177           40020                           CS       CYR
003116:    3200           40020                           CS       CYR
003117:    3201           30020                           XCH      CYR
003118:    3202           00001                           TC       Q
003119:
003120:    3203           50022        LEFT5              TS       CYL
003121:    3204           40022                           CS       CYL
003122:    3205           40022                           CS       CYL
003123:    3206           40022                           CS       CYL
003124:    3207           40022                           CS       CYL
003125:    3210           30022                           XCH      CYL
003126:    3211           00001                           TC       Q
003127:
003128:    3212           60000        SLEFT5             DOUBLE
003129:    3213           60000                           DOUBLE
003130:    3214           60000                           DOUBLE
003131:    3215           60000                           DOUBLE
003132:    3216           60000                           DOUBLE
003133:    3217           00001                           TC       Q
003134:
003135:
003136:
003137:    3220           00037        LOW5               OCT      37
003138:    3221           01740        MID5               OCT      1740
003139:    3222           76000                           OCT      76000                                 #  MUST STAY HERE.
003140:
003141:    3223           02052        TCNOVAC            TC       NOVAC
003142:    3224           02173        TCWAIT             TC       WAITLIST
003143:    3225           02256        TCTSKOVR           TC       TASKOVER
003144:    3226           02046        TCFINDVC           TC       FINDVAC
003145:
003146:
003147:
003148:    3227           00023        VD1                OCT      23
003149:    3230           00021        ND1                OCT      21
003150:    3231           00025        MD1                OCT      25
003151:


003153:
003154:    3232           00012        BINCON             DEC      10         B-14
003155:
003156:    3233     3232               TEN                EQUALS   BINCON
003157:
003158:    3233           20017        FALTON             INHINT                                         #  TURN PROGRAM CHECK LIGHT ON
003159:    3234           44512                           CS       BIT5                                  #  OUT1,BIT5(ALSO KNOWN AS ILLEGAL ORDER)
003160:    3235           70011                           MASK     OUT1
003161:    3236           64512                           AD       BIT5
003162:    3237           50011                           TS       OUT1
003163:    3240           20016                           RELINT
003164:    3241           00001                           TC       Q
003165:
003166:    3242           20017        FALTOF             INHINT                                         #  TURN PROGRAM CHECK LIGHT OFF
003167:    3243           44512                           CS       BIT5
003168:    3244           70011                           MASK     OUT1
003169:    3245           50011                           TS       OUT1
003170:    3246           20016                           RELINT
003171:    3247           00001                           TC       Q
003172:
003173:    3250           20017        RELDSPON           INHINT                                         #  TURN ON RELEASE DISPLAY SYST LIGHT
003174:    3251           44514                           CS       BIT3
003175:    3252           70011                           MASK     OUT1
003176:    3253           64514                           AD       BIT3
003177:    3254           50011                           TS       OUT1
003178:    3255           20016                           RELINT
003179:    3256           00001                           TC       Q
003180:
003181:    3257           44513        DSPLOCK0           CS       BIT4
003182:    3260           20017                           INHINT                                         #  DSPLOCK = BIT4 OF STATE
003183:    3261           70645                           MASK     DSPLOCK
003184:    3262           50645                           TS       DSPLOCK
003185:    3263           20016                           RELINT
003186:    3264           00001                           TC       Q
003187:
003188:    3265           44513        DSPLOCK1           CS       BIT4
003189:    3266           20017                           INHINT                                         #  DSPLOCK = BIT4 OF STATE
003190:    3267           70645                           MASK     DSPLOCK
003191:    3270           64513                           AD       BIT4
003192:    3271           30645                           XCH      DSPLOCK                               #  LEAVES OLD C(DSPLOCK) IN A.
003193:    3272           20016                           RELINT
003194:    3273           00001                           TC       Q
003195:
003196:    3274           34513        TSTDSPLK           CAF      BIT4                                  #  SIMULATES CCS DSPLOCK
003197:    3275           70645                           MASK     DSPLOCK
003198:    3276           10000                           CCS      A
003199:    3277           00001                           TC       Q                                     #  DSPLOCK = 1, RETURN TO L+1
003200:    3300           20001                           INDEX    Q
003201:    3301           00001                           TC       1                                     #  DSPLOCK = 0, RETURN TO L+1
003202:


003204:
003205:                                                                                                  #  INTERNAL ROUTINES THAT USE THE KEYBOARD AND DISPLAY SYSTEM(THRU
003206:                                                                                                  #  NVSUB) MUST  TC GRABDSP  BEFOREHAND , TO GRAB THE DISPLAY SYSTEM AND
003207:                                                                                                  #  MAKE IT BUSY TO OTHER INTERNAL USERS.
003208:
003209:                                                                                                  #        WHEN FINISHED , THERE MUST BE A TC FREEDSP , TO RELEASE THE
003210:                                                                                                  #  SYSTEM FOR OTHER INTERNAL USERS.
003211:
003212:                                                                                                  #        THE CALLING SEQUENCES ARE
003213:                                                                                                  #  L     TC      GRABDSP
003214:                                                                                                  #  L+1   RETURN HERE WHEN SYSTEM IS ALREADY GRABBED
003215:                                                                                                  #  L+2   RETURN HERE MEANS YOU HAVE IT
003216:
003217:                                                                                                  #  L     TC      NVSUB
003218:                                                                                                  #  L+1   RETURN HERE IF OPERATOR HAS INTERVENED
003219:                                                                                                  #  L+2   RETURN HERE AFTER EXECUTION
003220:
003221:
003222:
003223:                                                                                                  #        A ROUTINE CALLED GRABUSY IS PROVIDED (USE IS OPTIONAL) TO PUT YOUR
003224:                                                                                                  #  JOB TO SLEEP UNTIL  THE SYSTEM IS FREED BY THE JOB HOLDING IT.
003225:                                                                                                  #  YOUR CADR IS PUT AT FIRST AVAILABLE SLOT IN A WAITING LIST (FIFO).
003226:
003227:                                                                                                  #        THE CALLING SEQUENCE IS
003228:                                                                                                  #                CAF     WAKECADR
003229:                                                                                                  #                TC      GRABUSY
003230:
003231:                                                                                                  #        A ROUTINE CALLED  NVSUBUSY IS PROVIDED (USE IS OPTIONAL)  TO PUT
003232:                                                                                                  #  YOUR JOB TO SLEEP UNTIL THE OPERATOR RELEASES IT. YOUR CADR IS PUT
003233:                                                                                                  #  ON TOP OF A WAITING LIST (FIFO). IT ALSO TURNS ON KEY RELEASE LIGHT.
003234:
003235:                                                                                                  #  THE CALLING SEQUENCE IS
003236:                                                                                                  #  CAF WAKECADR
003237:                                                                                                  #  TC NVSUBUSY
003238:
003239:
003240:
003241:                                                                                                  #  AFTER A TC FREEDSP, THE INTERNAL INTERLOCK IS KEPT BUSY FOR 10 SECONDS,
003242:                                                                                                  #  AFTER WHICH A CADR IS CALLED FROM THE LIST. THIS INSURES THAT ALL
003243:                                                                                                  #  DISPLAYS WAITING WILL BE VISIBLE.
003244:
003245:
003246:
003247:                                                                                                  #  GRABLOCK IS THE INTERNAL INTERLOCK FOR THE USE OF THE KEYBOARD
003248:                                                                                                  #  AND DISPLAY SYSTEM.
003249:                                                                                                  #  +0  FREE
003250:                                                                                                  #  +1  SOME INTERNAL ROUTINE HAS GRABBED DSP SYST
003251:                                                                                                  #  +2  SOME INTERNAL ROUTINE HAS GONE TO NVSUBUSY
003252:


003254:
003255:    3302           10630        GRABDSP            CCS      GRABLOCK
003256:    3303           00001                           TC       Q                                     #  GRABBED. RETURN TO L+1
003257:    3304           34516                           CAF      ONE                                   #  NOT GRABBED. SET TO +1
003258:    3305           50630                           TS       GRABLOCK                              #  AND RETURN TO L+2
003259:    3306           20001                           INDEX    Q
003260:    3307           00001                           TC       1
003261:
003262:
003263:
003264:    3310           34606        PREGBSY            CAF      LOW10                                 #  SPECIAL ENTRANCE FOR ROUTINES IN BANKS
003265:    3311           70001                           MASK     Q                                     #  DESIRING THE CADR OF 1 + (LOC FROM WHICH
003266:    3312           60015                           AD       BANKREG                               #  TC PREGBSY WAS DONE) TO BE ENTERED.
003267:    3313           05720        GRABUSY            TC       POSTJUMP
003268:    3314           16001                           CADR     GRABUSYB
003269: 07,7434                                           SETLOC   ENDSPMM1   +1
003270:
003271: 07,7434           50114        GRABUSY1           TS       CADRTEM
003272: 07,7435           10630                           CCS      GRABLOCK
003273: 07,7436           07441                           TC       +3                                    #  STILL GRABBED
003274: 07,7437           30114                           XCH      CADRTEM                               #  NOT GRABBED SO DO DIRECT CALL
003275: 07,7440           05723                           TC       BANKJUMP
003276: 07,7441           35503                           CAF      TWO
003277: 07,7442           50113                           TS       LSTPTR
003278: 07,7443           20113                           INDEX    LSTPTR                                #  SEARCH LIST FOR FIRST AVAILABLE SPACE
003279: 07,7444           10634                           CCS      DSPLIST                               #  FROM BOTTOM.
003280: 07,7445           07447                           TC       +2
003281: 07,7446           07452                           TC       PUTINLST                              #  SPACE FOUND
003282: 07,7447           10113                           CCS      LSTPTR                                #  DECREMENT POINTER
003283: 07,7450           07442                           TC       -6
003284: 07,7451           07526                           TC       LSTFULL
003285: 07,7452           30114        PUTINLST           XCH      CADRTEM
003286: 07,7453           20113                           INDEX    LSTPTR
003287: 07,7454           50634                           TS       DSPLIST
003288: 07,7455           02127                           TC       JOBSLEEP
003289:
003290:
003291:
003292:    3315                                           SETLOC   GRABUSY    +2
003293:    3315           43322        PRENVBSY           CS       6K+3                                  #  SPECIAL ENTRANCE FOR ROUTINES IN BANKS
003294:    3316           60001                           AD       Q                                     #  DESIRING THE CADR OF (LOC FROM WHICH THE
003295:    3317           60015                           AD       BANKREG                               #  TC PRENVBSY WAS DONE) -2 TO BE ENTERED.
003296:    3320           05720        NVSUBUSY           TC       POSTJUMP
003297:    3321           16002                           CADR     NVSUBSYB
003298:    3322           06003        6K+3               OCT      6003                                  #  TC PRENVBSY WAS DONE) -2 TO BE ENTERED.
003299:
003300: 07,7456                                           SETLOC   PUTINLST   +4
003301: 07,7456           50114        NVSUBSY1           TS       CADRTEM
003302: 07,7457           03274                           TC       TSTDSPLK                              #  TEST IF REALLY LOCKED OUT
003303: 07,7460           07463                           TC       +3                                    #  STILL BUSY
003304: 07,7461           30114                           XCH      CADRTEM                               #  DSPLOCK = +0 SO RETURN DIRECTLY


003306: 07,7462           05723                           TC       BANKJUMP
003307: 07,7463           35503                           CAF      TWO                                   #  SET FOR GRABBED STATE AND NVSUBUSY USE
003308: 07,7464           50630                           TS       GRABLOCK
003309: 07,7465           30114                           XCH      CADRTEM
003310: 07,7466           30636                           XCH      DSPLIST    +2                         #  ENTER CADR INTO FIRST POSITION OF LIST
003311: 07,7467           30635                           XCH      DSPLIST    +1                         #        (BOTTOM)
003312: 07,7470           30634                           XCH      DSPLIST
003313: 07,7471           10000                           CCS      A
003314: 07,7472           07526                           TC       LSTFULL
003315: 07,7473           07475                           TC       +2
003316: 07,7474           07526                           TC       LSTFULL
003317: 07,7475           03250                           TC       RELDSPON
003318: 07,7476           40636                           CS       DSPLIST    +2
003319: 07,7477           40000                           COM
003320: 07,7500           02127        ENDNVBSY           TC       JOBSLEEP
003321:
003322:    3323                                           SETLOC   NVSUBUSY   +3
003323:
003324:    3323           30001        RELDSP             XCH      Q                                     #  SET DSPLOCK TO +0, TURN RELDSP LIGHT
003325:    3324           50113                           TS       RELRET                                #  OFF,  SEARCH DSPLIST
003326:    3325           34335                           CAF      NEG1
003327:    3326           60630                           AD       GRABLOCK
003328:    3327           10000                           CCS      A                                     #  SEARCH LIST ONLY IF GRABLOCK = +2
003329:    3330           03334                           TC       +4                                    #        (SOMEONE USED NVSUBUSY)
003330:    3331           03062                           TC       CCSHOLE
003331:    3332           03351                           TC       RELDSP2
003332:    3333           03351                           TC       RELDSP2
003333:    3334           35501                           CAF      ZERO
003334:    3335           30634                           XCH      DSPLIST
003335:    3336           30635                           XCH      DSPLIST    +1
003336:    3337           30636                           XCH      DSPLIST    +2
003337:    3340           50114                           TS       CADRTEM
003338:    3341           10000                           CCS      A
003339:    3342           03344                           TC       +2
003340:    3343           03351                           TC       RELDSP2                               #  LIST EMPTY
003341:    3344           30114                           XCH      CADRTEM
003342:    3345           20017                           INHINT
003343:    3346           02060                           TC       JOBWAKE
003344:    3347           34516                           CAF      ONE
003345:    3350           50630                           TS       GRABLOCK
003346:    3351           44514        RELDSP2            CS       BIT3
003347:    3352           70011                           MASK     OUT1
003348:    3353           50011                           TS       OUT1
003349:    3354           03257                           TC       DSPLOCK0                              #  0 INTO DSPLOCK (BIT4 OF STATE)
003350:                                                                                                  #  RELINT IS DONE IN DSPLOCK0.
003351:    3355           00113                           TC       RELRET
003352:    3356           30001        RELDSP1            XCH      Q                                     #  SET DSPLOCK TO +0, RELDSP LIGHT OFF,
003353:    3357           50113                           TS       RELRET                                #  NO LIST SEARCH
003354:    3360           20017                           INHINT
003355:    3361           03351                           TC       RELDSP2
003356:


003358:
003359:    3362           30001        FREEDSP            XCH      Q
003360:    3363           50113                           TS       FREERET
003361:    3364           20017                           INHINT
003362:    3365           33372                           CAF      SHOTIME
003363:    3366           02173                           TC       WAITLIST
003364:    3367           17501                           CADR     FREEWAIT
003365:    3370           20016                           RELINT
003366:    3371           00113                           TC       FREERET
003367:
003368:    3372           00257        SHOTIME            DEC      175        B-14                       #  SET FOR 1.75 SECS FOR 501
003369: 07,7501                                           SETLOC   ENDNVBSY   +1
003370:
003371: 07,7501           32164        FREEWAIT           CAF      PRIO31                                #  CALLED BY T3RUPT
003372: 07,7502           02052                           TC       NOVAC
003373: 07,7503           17505                           CADR     FREDSPDO
003374: 07,7504           02256                           TC       TASKOVER
003375:
003376:
003377:
003378: 07,7505           35501        FREDSPDO           CAF      ZERO                                  #  CALLED BY EXECUTIVE
003379: 07,7506           30634                           XCH      DSPLIST
003380: 07,7507           30635                           XCH      DSPLIST    +1
003381: 07,7510           30636                           XCH      DSPLIST    +2
003382: 07,7511           50114                           TS       CADRTEM
003383: 07,7512           10000                           CCS      A
003384: 07,7513           07515                           TC       +2
003385: 07,7514           07524                           TC       LSTEMPTY
003386: 07,7515           30114                           XCH      CADRTEM
003387: 07,7516           20017                           INHINT
003388: 07,7517           02060                           TC       JOBWAKE
003389: 07,7520           20016                           RELINT
003390: 07,7521           34516                           CAF      ONE                                   #  SET FOR GRABBED CONDITION
003391: 07,7522           50630                           TS       GRABLOCK
003392: 07,7523           02124                           TC       ENDOFJOB
003393: 07,7524           35501        LSTEMPTY           CAF      ZERO                                  #  SET FOR FREE CONDITION
003394: 07,7525           07522                           TC       -3
003395:
003396:
003397:
003398: 07,7526           03044        LSTFULL            TC       ABORT
003399: 07,7527           01206                           OCT      01206                                 #  PINBALL WAITING LINE FULL.

End of include-file PINBALL_GAME__BUTTONS_AND_LIGHTS.agc.  Parent file is MAIN.agc


