
Source Code


000002:                                                                                                  #  Copyright:    Public domain.
000003:                                                                                                  #  Filename:     POWERED_FLIGHT_SUBROUTINES.agc
000004:                                                                                                  #  Purpose:      Part of the source code for Solarium build 55. This
000005:                                                                                                  #                is for the Command Module's (CM) Apollo Guidance
000006:                                                                                                  #                Computer (AGC), for Apollo 6.
000007:                                                                                                  #  Assembler:    yaYUL --block1
000008:                                                                                                  #  Contact:      Jim Lawton <jim DOT lawton AT gmail DOT com>
000009:                                                                                                  #  Website:      www.ibiblio.org/apollo/index.html
000010:                                                                                                  #  Page Scans:   www.ibiblio.org/apollo/ScansForConversion/Solarium055/
000011:                                                                                                  #  Mod history:  2009-09-27 JL   Created.
000012:                                                                                                  #                2016-08-20 RSB  Typos.
000013:                                                                                                  #                2016-08-21 RSB  More typos.
000014:                                                                                                  #                2016-08-23 RSB  More of the same.
000015:                                                                                                  #                2016-08-24 RSB  And a few final ones!
000016:


000018:                                                                                                  #  THIS ROUTINE ENTERED AT CDUTRIG READS PRESENT CDU REGISTERS AND STORES THEM SCALED AT ONE REVOLUTION AS A DP
000019:                                                                                                  #  VECTOR IN CDUTEMP. IT COMPUTES SIN,COS(CDUX,Y,Z) AND STORES THEM IN SINCDU,+2,+4 AND COSCDU,+2,+4 RESPECTIVELY
000020:                                                                                                  #  SCALED AT S(+1). WHEN ENTERED AT THETRIG THE ROUTINE PERFORMS THE SAME FUNCTION WITH THE DESIRED CDU ANGLE REG-
000021:                                                                                                  #  ISTERS THETAD,+1,+2. ENTER WITH C(X1) =6 FOR X,Y,Z ( =4 FOR Y,Z ONLY)
000022:
000023:
000024:
000025: 25,6000                                           SETLOC   52000
000026: 25,6000           77576        CDUTRIG            EXIT     0
000027:
000028: 25,6001           20017                           INHINT
000029: 25,6002           40047                           CS       CDUX
000030: 25,6003           51314                           TS       CDUTEMP
000031: 25,6004           40050                           CS       CDUY
000032: 25,6005           51316                           TS       CDUTEMP    +2
000033: 25,6006           40051                           CS       CDUZ
000034: 25,6007           51320                           TS       CDUTEMP    +4
000035: 25,6010           20016                           RELINT
000036: 25,6011           06023                           TC       JUMP3
000037:
000038: 25,6012           77576        THETRIG            EXIT     0
000039:
000040: 25,6013           20017                           INHINT
000041: 25,6014           40700                           CS       THETAD
000042: 25,6015           51314                           TS       CDUTEMP
000043: 25,6016           40701                           CS       THETAD     +1
000044: 25,6017           51316                           TS       CDUTEMP    +2
000045: 25,6020           40702                           CS       THETAD     +2
000046: 25,6021           51320                           TS       CDUTEMP    +4
000047: 25,6022           20016                           RELINT
000048:
000049: 25,6023           40647        JUMP3              CS       FLAGWRD2                              #  TEST IF CDUX FLAG SET
000050: 25,6024           74501                           MASK     BIT14                                 #  (CDUXFLAG MASK)
000051: 25,6025           10000                           CCS      A
000052: 25,6026           06037                           TC       JUMP8                                 #  IT IS NOT
000053: 25,6027           34302                           CAF      LOW11
000054: 25,6030           71314                           MASK     CDUTEMP
000055: 25,6031           50022                           TS       CYL
000056: 25,6032           40022                           CS       CYL
000057: 25,6033           40022                           CS       CYL
000058: 25,6034           40022                           CS       CYL
000059: 25,6035           30022                           XCH      CYL
000060: 25,6036           31314                           XCH      CDUTEMP
000061:
000062: 25,6037           04000        JUMP8              TC       INTPRET
000063:
000064: 25,6040           55576        SINCOS             AST,1    0
000065: 25,6041           00003                                    2
000066:
000067: 25,6042           42175        REPEAT1            SMOVE*   1


000069: 25,6043           47171                           COMP     RTB
000070: 25,6044           02645                                    CDUTEMP    +6,1
000071: 25,6045           20304                                    CDULOGIC
000072: 25,6046           36645                           STORE    CDUTEMP    +6,1
000073:
000074: 25,6047           47575                           NOLOD    1
000075: 25,6050           57176                           SIN
000076: 25,6051           36675                           STORE    SINCDU     +6,1
000077:
000078: 25,6052           54176                           COS*     0
000079: 25,6053           02645                                    CDUTEMP    +6,1
000080: 25,6054           36711                           STORE    COSCDU     +6,1
000081:
000082: 25,6055           51574                           TIX,1    2
000083: 25,6056           65116                           ABS      TSLT                                  #  TEST IF COS(THETAD+2) LESS THAN COS(60)
000084: 25,6057           71775                           BOV      EXIT
000085: 25,6060           12043                                    REPEAT1
000086: 25,6061           01343                                    COSCDU     +4
000087: 25,6062           00003                                    2
000088: 25,6063           12070                                    NOGIMLOC                              #  IT IS NOT. NO NEED TO ALARM
000089:
000090: 25,6064           03007                           TC       ALARM
000091: 25,6065           01407                           OCT      01407
000092:
000093: 25,6066           04000                           TC       INTPRET
000094:
000095: 25,6067           40576        NOGIMLOC           ITCQ     0
000096:
000097: 25,6070           77760        HIGH11             OCT      77760
000098:


000100:
000101:                                                                                                  #  THIS ROUTINE COMPUTES DESIRED CDU(GIMBAL) ANGLES GIVEN THE DESIRED NAV. BASE AXES IN XNB AS THREE HALF UNIT
000102:                                                                                                  #  VECTORS IN STABLE MEMBER COORDINATES. THE DESIRED CDUX,Y,Z APPEAR IN MPAC, +1, +2 AT THE SAME SCALING AS CDUX,
000103:                                                                                                  #  Y, Z WITH THE INTERPRETER SET TO THE TP MODE
000104:
000105:
000106:
000107: 25,6071           45575        CALCCDU            ITA      1
000108: 25,6072           76776                           ITC
000109: 25,6073           00051                                    S1
000110: 25,6074           04353                                    CALCGTA
000111:
000112: 25,6075           43575                           TEST     1                                     #  IF CDUXFLAG SET, RESCALE OGC TO 8 REVS
000113: 25,6076           76576                           RTB
000114: 25,6077           00043                                    CDUXFLAG
000115: 25,6100           12103                                    GETOGC
000116: 25,6101           20721                                    CDUXFIX
000117:
000118: 25,6102           75175        GETOGC             VMOVE    1
000119: 25,6103           76421                           RTB      ITCI
000120: 25,6104           01521                                    OGC
000121: 25,6105           20624                                    V1STO2S
000122: 25,6106           00051                                    S1
000123:


000125:
000126:                                                                                                  #  THIS ROUTINE COMPUTES THE MATRIX WHICH TRANSFORMS FROM STABLE MEMBER COORDINATES TO NAV. BASE COORDINATES. IT
000127:                                                                                                  #  REQUIRES SIN,COS(CDUX,Y,Z) IN SINCDU, +2, +4 AND COSCDU, +2, +4 RESPECTIVBELY SCALED TO ONE HALF. THE MATRIX IS
000128:                                                                                                  #  STORED IN X,Y,ZNB AS THREE HALF UNIT ROW VECTORS
000129:
000130:
000131:
000132: 25,6107           64775        CALCSMNB           DMP      1
000133: 25,6110           47176                           COMP
000134: 25,6111           01333                                    SINCDU     +2
000135: 25,6112           01343                                    COSCDU     +4
000136:
000137: 25,6113           56776                           TSRT     0
000138: 25,6114           01335                                    SINCDU     +4
000139: 25,6115           00002                                    1
000140:
000141: 25,6116           64775                           DMP      1
000142: 25,6117           41022                           VDEF     VSLT
000143: 25,6120           01341                                    COSCDU     +2
000144: 25,6121           01343                                    COSCDU     +4
000145: 25,6122           00002                                    1
000146: 25,6123           33477                           STORE    XNB
000147:
000148: 25,6124           64775                           DMP      1
000149: 25,6125           63776                           TSLT
000150: 25,6126           01331                                    SINCDU
000151: 25,6127           01335                                    SINCDU     +4
000152: 25,6130           00002                                    1
000153: 25,6131           32033                           STORE    26D
000154:
000155: 25,6132           47575                           NOLOD    1
000156: 25,6133           64776                           DMP
000157: 25,6134           01333                                    SINCDU     +2
000158:
000159: 25,6135           64775                           DMP      1
000160: 25,6136           66776                           DSU
000161: 25,6137           01337                                    COSCDU
000162: 25,6140           01341                                    COSCDU     +2
000163:
000164: 25,6141           64775                           DMP      1
000165: 25,6142           47176                           COMP
000166: 25,6143           01331                                    SINCDU
000167: 25,6144           01343                                    COSCDU     +4
000168:
000169: 25,6145           64776                           DMP      0
000170: 25,6146           01337                                    COSCDU
000171: 25,6147           01333                                    SINCDU     +2
000172:
000173: 25,6150           64774                           DMP      2
000174: 25,6151           70603                           DAD      VDEF
000175: 25,6152           44776                           VSLT


000177: 25,6153           01341                                    COSCDU     +2
000178: 25,6154           00033                                    26D
000179: 25,6155           77777                                    -
000180: 25,6156           00002                                    1
000181: 25,6157           33513                           STORE    ZNB
000182:
000183: 25,6160           47575                           NOLOD    1
000184: 25,6161           41622                           VXV      VSLT
000185: 25,6162           01477                                    XNB
000186: 25,6163           00002                                    1
000187: 25,6164           33505                           STORE    YNB
000188:
000189: 25,6165           40576                           ITCQ     0
000190:


000192:
000193:                                                                                                  #  ROUTINE CALCSCNB TRANSFORMS A MATRIX OF HALF UNIT VECTORS ALONG SPACECRAFT AXES, XSCD, INTO A MATRIX OF HALF
000194:                                                                                                  #  UNIT VECTORS ALONG NAV. BASE AXES, XNB. ROUTINE CALCNBSC DOES THE INVERSE, STORING THE MATRIX OF UNIT VECTORS
000195:                                                                                                  #  ALONG SPACECRAFT AXES IN XSC
000196:
000197:
000198:
000199: 25,6166           75776        CALCSCNB           VXSC     0
000200: 25,6167           01411                                    XSCD
000201: 25,6170           12241                                    COS33
000202:
000203: 25,6171           75775                           VXSC     1
000204: 25,6172           46776                           BVSU
000205: 25,6173           01425                                    ZSCD
000206: 25,6174           12237                                    SIN33
000207: 25,6175           33477                           STORE    XNB
000208:
000209: 25,6176           75176                           VMOVE    0
000210: 25,6177           01417                                    YSCD
000211: 25,6200           33505                           STORE    YNB
000212:
000213: 25,6201           75776                           VXSC     0
000214: 25,6202           01411                                    XSCD
000215: 25,6203           12237                                    SIN33
000216:
000217: 25,6204           75775                           VXSC     1
000218: 25,6205           50776                           VAD
000219: 25,6206           01425                                    ZSCD
000220: 25,6207           12241                                    COS33
000221: 25,6210           33513                           STORE    ZNB
000222:
000223: 25,6211           40576                           ITCQ     0
000224:


000226:
000227: 25,6212           75776        CALCNBSC           VXSC     0
000228: 25,6213           01477                                    XNB
000229: 25,6214           12241                                    COS33
000230:
000231: 25,6215           75775                           VXSC     1
000232: 25,6216           50776                           VAD
000233: 25,6217           01513                                    ZNB
000234: 25,6220           12237                                    SIN33
000235: 25,6221           33367                           STORE    XSC
000236:
000237: 25,6222           75176                           VMOVE    0
000238: 25,6223           01505                                    YNB
000239: 25,6224           33375                           STORE    YSC
000240:
000241: 25,6225           75776                           VXSC     0
000242: 25,6226           01477                                    XNB
000243: 25,6227           12237                                    SIN33
000244:
000245: 25,6230           75775                           VXSC     1
000246: 25,6231           74776                           VSU
000247: 25,6232           01513                                    ZNB
000248: 25,6233           12241                                    COS33
000249: 25,6234           33403                           STORE    ZSC
000250:
000251: 25,6235           40576                           ITCQ     0
000252:
000253: 25,6236           21333 13542  SIN33              2DEC     0.544639000
000254: 25,6240           32654 30735  COS33              2DEC     0.838670600
000255:


000257:
000258:                                                                                                  #  THIS SUBROUTINE COMPUTES INCREMENTAL CHANGES IN CDU(GIMBAL) ANGLES FROM INCREMENTAL ANGULAR CHANGES ABOUT SM AXES.
000259:                                                                                                  #  IT REQUIRES SM INCREMENTS AS A DP VECTOR SCALED AT ONE REVOLUTION, SIN,COS(CDUY,Z,X) IN SINCDU, +2, +4
000260:                                                                                                  #  AND COSCDU, +2, +4 RESPECTIVELY, SCALED TO ONE HALF. CDU INCREMENTS APPEAR IN THE VAC SCALED AT ONE REV.
000261:
000262: 25,6242           64776        SMCDURES           DMP      0
000263: 25,6243           00041                                    32D
000264: 25,6244           01341                                    COSCDU     +2
000265:
000266: 25,6245           64775                           DMP      1
000267: 25,6246           65712                           BDSU     DDV
000268: 25,6247           00045                                    36D
000269: 25,6250           01333                                    SINCDU     +2
000270: 25,6251           77777                                    -
000271: 25,6252           01343                                    COSCDU     +4
000272: 25,6253           32027                           STORE    22D
000273:
000274: 25,6254           47574                           NOLOD    2
000275: 25,6255           64716                           DMP      TSLT
000276: 25,6256           65776                           BDSU
000277: 25,6257           01335                                    SINCDU     +4
000278: 25,6260           00002                                    1
000279: 25,6261           00043                                    34D
000280: 25,6262           32031                           STORE    24D
000281:
000282: 25,6263           64776                           DMP      0
000283: 25,6264           00041                                    32D
000284: 25,6265           01333                                    SINCDU     +2
000285:
000286: 25,6266           64775                           DMP      1
000287: 25,6267           70716                           DAD      TSLT
000288: 25,6270           00045                                    36D
000289: 25,6271           01341                                    COSCDU     +2
000290: 25,6272           77777                                    -
000291: 25,6273           00002                                    1
000292: 25,6274           32033                           STORE    26D
000293:
000294: 25,6275           75175                           VMOVE    1
000295: 25,6276           40576                           ITCQ
000296: 25,6277           00027                                    22D
000297:


000299:                                                                                                  #  THIS SUBROUTINE COMPUTES INCREMENTAL ANGULAR CHANGES ABOUT NAV. BASE AXES FROM INCREMENTAL CDU ANGLE CHANGES. IT
000300:                                                                                                  #  REQUIRES THE CDU INCREMENTS AS A DP VECTOR IN DCDU, +2, +4, SCALED AT ONE REVOLUTION. SIN,COS(CDUY,Z,X) MUST BE
000301:                                                                                                  #  IN SINCDU, +2, +4, AND COSCDU, +2, +4 RESPECTIVELY SCALED AT ONE HALF. INCREMENTAL NAV. BASE ANGLES APPEAR IN
000302:                                                                                                  #  DNB, +2, +4 SCALED AT ONE REVOLUTION.
000303:
000304:
000305:
000306: 25,6300           64775        CDUNBRES           DMP      1
000307: 25,6301           63776                           TSLT
000308: 25,6302           01343                                    COSCDU     +4
000309: 25,6303           01347                                    DCDU       +2
000310: 25,6304           00002                                    1
000311: 25,6305           32033                           STORE    26D
000312:
000313: 25,6306           47575                           NOLOD    1
000314: 25,6307           64776                           DMP
000315: 25,6310           01331                                    SINCDU
000316:
000317: 25,6311           64775                           DMP      1
000318: 25,6312           66776                           DSU
000319: 25,6313           01337                                    COSCDU
000320: 25,6314           01351                                    DCDU       +4
000321:
000322: 25,6315           64776                           DMP      0
000323: 25,6316           00033                                    26D
000324: 25,6317           01337                                    COSCDU
000325:
000326: 25,6320           64775                           DMP      1
000327: 25,6321           70776                           DAD
000328: 25,6322           01331                                    SINCDU
000329: 25,6323           01351                                    DCDU       +4
000330:
000331: 25,6324           56776                           TSRT     0
000332: 25,6325           01345                                    DCDU
000333: 25,6326           00002                                    1
000334:
000335: 25,6327           64774                           DMP      2
000336: 25,6330           70603                           DAD      VDEF
000337: 25,6331           44776                           VSLT
000338: 25,6332           01335                                    SINCDU     +4
000339: 25,6333           01347                                    DCDU       +2
000340: 25,6334           77777                                    -
000341: 25,6335           00002                                    1
000342: 25,6336           33353                           STORE    DNB
000343:
000344: 25,6337           40576                           ITCQ     0
000345:


000347:
000348:                                                                                                  #  THIS SUBROUTINE COMPUTES INCREMENTAL CHANGES TO CDU ANGLES FROM INCREMENTAL ANGULAR CHANGES ABOUT NAV. BASE AXES.
000349:                                                                                                  #  IT REQUIRES THE INCREMENTAL NAV. BASE ANGLES AS A DP VECTOR IN VAC SCALED AT ONE REVOLUTION. SIN,COS(CDUY,Z,X)
000350:                                                                                                  #  MUST BE IN SINCDU, COSCDU RESPECTIVELY SCALED AT 2(+1). IT LEAVES CDU INCREMENTS AS A DP VECTOR IN DCDU AT THE
000351:                                                                                                  #  SAME SCALING
000352:
000353:
000354:
000355: 25,6340           64776        NBCDURES           DMP      0
000356: 25,6341           00045                                    36D
000357: 25,6342           01331                                    SINCDU
000358:
000359: 25,6343           64775                           DMP      1
000360: 25,6344           66712                           DSU      DDV
000361: 25,6345           00043                                    34D
000362: 25,6346           01337                                    COSCDU
000363: 25,6347           77777                                    -
000364: 25,6350           01343                                    COSCDU     +4
000365: 25,6351           33347                           STORE    DCDU       +2
000366:
000367: 25,6352           47574                           NOLOD    2
000368: 25,6353           64633                           DMP      COMP
000369: 25,6354           63742                           TSLT     DAD
000370: 25,6355           01335                                    SINCDU     +4
000371: 25,6356           00002                                    1
000372: 25,6357           00041                                    32D
000373: 25,6360           33345                           STORE    DCDU
000374:
000375: 25,6361           64776                           DMP      0
000376: 25,6362           00043                                    34D
000377: 25,6363           01331                                    SINCDU
000378:
000379: 25,6364           64775                           DMP      1
000380: 25,6365           70716                           DAD      TSLT
000381: 25,6366           00045                                    36D
000382: 25,6367           01337                                    COSCDU
000383: 25,6370           77777                                    -
000384: 25,6371           00002                                    1
000385: 25,6372           33351                           STORE    DCDU       +4
000386:
000387: 25,6373           40576                           ITCQ     0
000388:


000390:
000391:                                                                                                  #  THIS ROUTINE RESOLVES THE SMALL ANGLE VECTOR STORED AS SM COMPONENTS IN VAC. SCALED TO ONE REVOLUTION, INTO
000392:                                                                                                  #  COMMANDED CDU ANGLE CHANGES VAC, +2,+4, SCALED TO ONE REVOLUTION, THROUGH THE DESIRED CDU ANGLES DEFINED BY
000393:                                                                                                  #  THETAD,+1,+2. THE ROUTINE THEN INCREMENTS THETAD,+1,+2 IN 2S COMP. AT CDUX,Y,Z SCALING
000394:
000395:
000396:
000397: 25,6374           45575        CDUDRIVE           ITA      1
000398: 25,6375           75572                           AXT,1    ITC
000399: 25,6376           00052                                    S2
000400: 25,6377           00005                                    4
000401: 25,6400           12013                                    THETRIG
000402:
000403: 25,6401           76776        CDUDRVE2           ITC      0
000404: 25,6402           12243                                    SMCDURES
000405:
000406: 25,6403           43575                           TEST     1                                     #  TEST IF CDUX FLAG SET
000407: 25,6404           56776                           TSRT
000408: 25,6405           00043                                    CDUXFLAG
000409: 25,6406           12413                                    CDUDRVE1
000410: 25,6407           00041                                    32D
000411: 25,6410           00005                                    4
000412: 25,6411           32041                           STORE    32D
000413:
000414: 25,6412           47574        CDUDRVE1           NOLOD    2                                     #  RESCALE DCDU AND BRANCH TO
000415: 25,6413           44771                           VSLT     RTB                                   #  INCREMENT THETAD
000416: 25,6414           44576                           ITCI
000417: 25,6415           00002                                    1
000418: 25,6416           20416                                    INCRCDUS
000419: 25,6417           00052                                    S2
000420:


000422:
000423:                                                                                                  #  THE FOLLOWING SERIES OF CLOSED SUBROUTINES COMPUTE THE REQUIRED VELOCITY VR, SCALED TO 2(+8)M/CS, VELOCITY-TO-BE
000424:                                                                                                  #  -GAINED VG, SCALED TO 2(+7)M/CS, AND THE MDOIFIED B-VECTOR CBDT, SCALED TO 2(+4)M/CS, FOR THE DIFFERENT PHASES
000425:                                                                                                  #  OF POWERED FLIGHT.
000426:
000427:
000428:
000429: 25,6420           75176        CALCVGB            VMOVE    0
000430: 25,6421           01417                                    VR
000431: 25,6422           33411                           STORE    CBDT                                  #  (CBDT USED HERE AS TEMP. STORAGE FOR VR)
000432:
000433: 25,6423           45575                           ITA      1
000434: 25,6424           73421                           LXA,1    ITCI
000435: 25,6425           00052                                    S2
000436: 25,6426           01042                                    XSHIFT
000437: 25,6427           01471                                    VRCADR
000438:
000439: 25,6430           47575        CALCCBDT           NOLOD    1
000440: 25,6431           74622                           VSU      VSLT
000441: 25,6432           01411                                    CBDT                                  #  OLD VR
000442: 25,6433           00005                                    4                                     #  D(VR) TO PD SCALED AT 2(+4) M/CS
000443:
000444: 25,6434           75775                           VXSC     1
000445: 25,6435           50766                           VAD      VXSC
000446: 25,6436           01010                                    GRAVITY
000447: 25,6437           01030                                    DELTAT
000448: 25,6440           77777                                    -
000449: 25,6441           15573                                    CFACTOR                               #  SCALED AT 2(+0)
000450: 25,6442           33411                           STORE    CBDT                                  #  SCALED AT 2(+4) M/CS
000451:
000452: 25,6443           44775                           VSLT     1
000453: 25,6444           74752                           VSU      STZ
000454: 25,6445           01417                                    VR
000455: 25,6446           00002                                    1
000456: 25,6447           00774                                    VN
000457: 25,6450           00123                                    OVFIND                                #  FIRST PASS THRU CALCVGB MAY OVERFLOW
000458: 25,6451           33353                           STORE    VG                                    #  SCALED AT 2(+7) M/CS
000459:
000460: 25,6452           44576                           ITCI     0
000461: 25,6453           00052                                    S2
000462:


000464:
000465:                                                                                                  #  THESE ROUTINES COMPUTE VR FOR THE TWO NOMINAL SPS BURNS OF FLIGHT 501
000466: 25,6454           75575        501SPS1            AXT,1    1                                     #  C(X1) = +0  (SPS1)
000467: 25,6455           74572                           AXT,2    ITC                                   #  C(X2) =+1  (SPS1)
000468: 25,6456           00001                                    0
000469: 25,6457           00002                                    1
000470: 25,6460           12466                                    +5
000471:
000472: 25,6461           53575        501SPS2            AXC,1    1                                     #  C(X1) = -2  (SPS2)
000473: 25,6462           52576                           AXC,2                                          #  C(X2) =-1  (SPS2)
000474: 25,6463           00003                                    2
000475: 25,6464           00002                                    1
000476:
000477: 25,6465           44170                           DMOVE*   6
000478: 25,6466           62732                           DDV      DSU
000479: 25,6467           51130                           DSQ      DSU*
000480: 25,6470           65122                           ABS      DMP
000481: 25,6471           62272                           DDV*     TSRT
000482: 25,6472           53056                           SQRT     SIGN
000483: 25,6473           75776                           VXSC
000484: 25,6474           03325                                    SEMILAT,1                             #  SCALED AT 2(+27)M
000485: 25,6475           01024                                    RMAG                                  #  SCALED AT 2(+25)M
000486: 25,6476           15565                                    DP2(-2)
000487: 25,6477           03315                                    ESQ(VR),1                             #  SCALED AT 2(+4)
000488: 25,6500           13376                                    MUE                                   #  SCALED AT 2(+38) M(+3)/CS(+2)
000489: 25,6501           03325                                    SEMILAT,1
000490: 25,6502           00006                                    5
000491: 25,6503           00050                                    X2
000492: 25,6504           01016                                    UNITR                                 #  VRAD TO PD  SCALED AT 2(+11) M/CS
000493:
000494: 25,6505           45174                           DMOVE    2
000495: 25,6506           64312                           DMP*     DDV
000496: 25,6507           53176                           SQRT
000497: 25,6510           13542                                    MUE(41)
000498: 25,6511           03325                                    SEMILAT,1
000499: 25,6512           01026                                    RMAGSQ                                #  SCALED AT 2(+50)M(+2)
000500:                                                                                                  #  VHOR MAG. TO PD SCALED AT 2(+9) M/CS
000501: 25,6513           41773                           VXV      3
000502: 25,6514           73006                           UNIT     VXV
000503: 25,6515           75642                           VXSC     VAD
000504: 25,6516           44776                           VSLT
000505: 25,6517           01016                                    UNITR
000506: 25,6520           01107                                    VIGNTION
000507: 25,6521           01016                                    UNITR
000508: 25,6522           77777                                    -
000509: 25,6523           77777                                    -
000510: 25,6524           00004                                    3
000511: 25,6525           33417                           STORE    VR
000512:
000513: 25,6526           76776                           ITC      0
000514: 25,6527           12431                                    CALCCBDT
000515:


000517:
000518:                                                                                                  #  THIS ROUTINE COMPUTES VG, CBDT, FOR LANDING AREA CONTROL DURING BOOST ABORTS ON FLIGHT 501
000519:
000520:
000521:
000522: 25,6530           41775        501ABORT           VXV      1
000523: 25,6531           44776                           VSLT
000524: 25,6532           00766                                    RN
000525: 25,6533           00774                                    VN
000526: 25,6534           00002                                    1                                     #  4 SCALED 2(+31) M(+2)/CS
000527:
000528: 25,6535           47575                           NOLOD    1
000529: 25,6536           73176                           UNIT
000530: 25,6537           33367                           STORE    UNITRXV                               #  UNIT NORMAL TO PLANE, IP  2(+1)
000531:
000532: 25,6540           66775                           DSU      1
000533: 25,6541           56776                           TSRT
000534: 25,6542           13131                                    RINTALT
000535: 25,6543           01024                                    RMAG
000536: 25,6544           00003                                    2                                     #  (RE - R) MAG SCALED 2(+27)
000537:
000538: 25,6545           41775                           VXV      1
000539: 25,6546           44776                           VSLT
000540: 25,6547           01367                                    UNITRXV                               #  IP
000541: 25,6550           01016                                    UNITR                                 #  IR
000542: 25,6551           00002                                    1                                     #  TIMES 2
000543: 25,6552           33375                           STORE    UNITHORZ                              #  UNIT HORIZONTAL IN PLANE, IHP  2(+1)
000544:
000545: 25,6553           47575                           NOLOD    1
000546: 25,6554           42776                           DOT
000547: 25,6555           00774                                    VN                                    #  IHP.V  SCALED 2(+8)
000548:
000549: 25,6556           42774                           DOT      2
000550: 25,6557           56712                           TSRT     DDV
000551: 25,6560           64776                           DMP
000552: 25,6561           00774                                    VN
000553: 25,6562           01016                                    UNITR                                 #  IR.V  SCALED 2(+8)
000554: 25,6563           00004                                    3                                     #  TIMES 2(-3)
000555: 25,6564           77777                                    -                                     #  DIVIDE BY IHP.V SCALED 2(+8)
000556: 25,6565           13131                                    RINTALT                               #  RE COT(GAMMA) SCALED  2(+28)
000557:
000558: 25,6566           67175                           VSQ      1
000559: 25,6567           62776                           DDV
000560: 25,6570           00001                                    0                                     #  H SCALED 2(+31)
000561: 25,6571           13376                                    MUE                                   #  H(SQ)/MUE = P SCALED 2(+24)
000562:
000563: 25,6572           67175                           VSQ      1
000564: 25,6573           56712                           TSRT     DDV
000565: 25,6574           00774                                    VN                                    #  V(SQ) 2(+14)
000566: 25,6575           00005                                    4                                     #  TIMES 2(-4)
000567: 25,6576           13376                                    MUE                                   #  V(SQ)/MUE  SCALED 2(-20)


000569: 25,6577           62774                           DDV      2
000570: 25,6600           66722                           DSU      DMP
000571: 25,6601           65776                           BDSU
000572: 25,6602           13133                                    DP2(-4)
000573: 25,6603           01024                                    RMAG
000574: 25,6604           77777                                    -
000575: 25,6605           13131                                    RINTALT
000576: 25,6606           13133                                    DP2(-4)                               #  (1+RE((V**2/2 MUE)-1/R))  SCALED 2(+4)
000577:
000578: 25,6607           47574                           NOLOD    2
000579: 25,6610           73653                           BMN      SQRT
000580: 25,6611           64716                           DMP      TSLT
000581: 25,6612           13115                                    SMACHECK                              #  SMA LESS THAN RE/2
000582: 25,6613           13153                                    V400
000583: 25,6614           00003                                    2                                     #  VE TO PD SCALED 2(+7)  M/CS
000584:
000585: 25,6615           66775                           DSU      1
000586: 25,6616           43776                           BPL
000587: 25,6617           13157                                    VCRIT                                 #  22,000 FT/SEC SCALED 2(+7) M/CS
000588: 25,6620           77777                                    -                                     #  VE SCALED 2(+7) M/CS
000589: 25,6621           13104                                    GETRANGE                              #  SET RANGE TO MINRANGE
000590:
000591: 25,6622           64774                           DMP      2
000592: 25,6623           70722                           DAD      DMP
000593: 25,6624           70716                           DAD      TSLT
000594: 25,6625           00017                                    14D                                   #  VE SCALED 2(+7)
000595: 25,6626           13147                                    KRANGE2
000596: 25,6627           13145                                    KRANGE1
000597: 25,6630           00017                                    14D                                   #  VE SCALED 2(+7)
000598: 25,6631           13143                                    KRANGE0
000599: 25,6632           00005                                    4
000600: 25,6633           32025                           STORE    20D                                   #  ENTRY RANGE ANGLE SCALED 2(+0) REVS.
000601:
000602: 25,6634           47575        GOTRANGE           NOLOD    1
000603: 25,6635           55166                           COS      VXSC
000604: 25,6636           01531                                    RTATLANT                              #  RADIAL COMP UNIT TARG VECT  2(+2)
000605:
000606: 25,6637           57175                           SIN      1
000607: 25,6640           63776                           TSLT
000608: 25,6641           00025                                    20D
000609: 25,6642           00002                                    1                                     #  SINCE OF RANGE ANGLE  2(+0)
000610:
000611: 25,6643           41775                           VXV      1
000612: 25,6644           73176                           UNIT
000613: 25,6645           01531                                    RTATLANT
000614: 25,6646           01016                                    UNITR
000615: 25,6647           32027                           STORE    22D                                   #  -UNITN, -IN, DESIRED NORMAL SCALED 2(+1)
000616:
000617: 25,6650           47574                           NOLOD    2
000618: 25,6651           41766                           VXV      VXSC


000620: 25,6652           50622                           VAD      VSLT
000621: 25,6653           01531                                    RTATLANT
000622: 25,6654           77777                                    -
000623: 25,6655           77777                                    -
000624: 25,6656           00002                                    1
000625: 25,6657           33433                           STORE    RTARG                                 #  UNIT TARGET VECTOR SCALED 2(+1)
000626:
000627: 25,6660           64771                           DMP      5
000628: 25,6661           62732                           DDV      DSU
000629: 25,6662           73653                           BMN      SQRT
000630: 25,6663           64726                           DMP      BDSU
000631: 25,6664           61746                           BDDV     BOV
000632: 25,6665           76472                           RTB      TSRT
000633: 25,6666           13131                                    RINTALT                               #  RE SCALED 2(+25)
000634: 25,6667           77777                                    -
000635: 25,6670           77777                                    -                                     #  P SCALED 2(+24)
000636: 25,6671           13135                                    DP2(-6)
000637: 25,6672           13121                                    GAMCHECK                              #  COT(GAMMAE) SQ NEGATIVE
000638: 25,6673           01024                                    RMAG                                  #  R COT(GAMMAE) SCALED 2(+28)
000639: 25,6674           77777                                    -                                     #  RE COT(GAMMA) SCALED 2(+28)
000640: 25,6675           77777                                    -                                     #  (RE - R) SCALED 2(+27)
000641: 25,6676           13125                                    TANCHECK                              #  TAN(THETAFF/2) EXCEEDS ----
000642: 25,6677           20265                                    FRESHPD                               #  ZERO PD POINTER
000643: 25,6700           00010                                    7D                                    #  X = TAN(THETAFF/2) SCALED 2(+6)
000644:
000645: 25,6701           47575                           NOLOD    1
000646: 25,6702           51142                           DSQ      DAD
000647: 25,6703           13141                                    DP2(-12)                              #  DENOMINATOR SCALED 2(+12)
000648:
000649: 25,6704           47574                           NOLOD    2
000650: 25,6705           66633                           DSU      COMP
000651: 25,6706           62776                           DDV
000652: 25,6707           13137                                    DP2(-11)                              #  1 - X(SQ) SCALED 2(+12)
000653: 25,6710           00003                                    2                                     #  COSEFF SCALED 2(+0)
000654:
000655: 25,6711           42774                           DOT      2
000656: 25,6712           63732                           TSLT     DSU
000657: 25,6713           43776                           BPL
000658: 25,6714           01016                                    UNITR
000659: 25,6715           01433                                    RTARG
000660: 25,6716           00003                                    2                                     #  COS ANGLE R TO TARG 2(+0)
000661: 25,6717           00005                                    4                                     #  COS FREE FALL ANGLE 2(+0)
000662: 25,6720           13111                                    PASTIT                                #  FF ANGLE EXCEEDS ANGLE TO TARGET
000663:
000664: 25,6721           56775                           TSRT     1
000665: 25,6722           62766                           DDV      VXSC
000666: 25,6723           00001                                    0
000667: 25,6724           00006                                    5
000668: 25,6725           00003                                    2                                     #  SINEFF SCALED 2(+0)
000669: 25,6726           01375                                    UNITHORZ                              #  IHP SINEFF SCALED 2(+1)


000671: 25,6727           75775                           VXSC     1
000672: 25,6730           50762                           VAD      VSU
000673: 25,6731           01016                                    UNITR
000674: 25,6732           00005                                    4                                     #  IR COSEFF 2(+1)
000675: 25,6733           77777                                    -                                     #  UNIT VECTOR ALONG ENTRY-POINT VECT 2(+1)
000676: 25,6734           01433                                    RTARG                                 #  MINUS UNIT TARGET VECTOR  2(+1)
000677:
000678: 25,6735           47575                           NOLOD    1
000679: 25,6736           71176                           ABVAL
000680: 25,6737           32003                           STORE    2                                     #  D SCALED 2(+2)
000681:
000682: 25,6740           71174                           ABVAL    2
000683: 25,6741           75612                           VXSC     DOT
000684: 25,6742           56776                           TSRT
000685: 25,6743           00774                                    VN
000686: 25,6744           01375                                    UNITHORZ
000687: 25,6745           00027                                    22D                                   #  -UNITN 2(+1)
000688: 25,6746           00002                                    1                                     #  DELTA V NORMAL SCALED 2(+11)
000689:
000690: 25,6747           71174                           ABVAL    2
000691: 25,6750           65716                           BDSU     TSLT
000692: 25,6751           65176                           ABS
000693: 25,6752           01425                                    DIFFVECT                              #  MAG OLD DIFFVECT 2(+2) AFTER ABVAL
000694: 25,6753           00003                                    2                                     #  NEW MAG DIFFVECT 2(+2)
000695: 25,6754           00002                                    1                                     #  DELD SCALED 2(+1)
000696:
000697: 25,6755           47576                           NOLOD    0
000698: 25,6756           32001                           STORE    0                                     #  DELD TO PD 0 ALSO
000699:
000700: 25,6757           64773                           DMP      3
000701: 25,6760           56712                           TSRT     DDV
000702: 25,6761           70706                           DAD      BDDV
000703: 25,6762           71672                           BOV      TSRT
000704: 25,6763           01030                                    DELTAT
000705: 25,6764           00003                                    2
000706: 25,6765           00016                                    13D
000707: 25,6766           77777                                    -
000708: 25,6767           13155                                    TGOBIAS                               #  5 SECS
000709: 25,6770           77777                                    -                                     #  ATTEMPT TO COMPUTE NEW ANORMAL 2(-12)
000710: 25,6771           13066                                    ANOVFLOW                              #  IF OVF, ANORMAL = 8 FT/S/S SIGN DELTA V
000711: 25,6772           00004                                    3                                     #  SCALE AN TRIAL BACK TO 2(-9)
000712: 25,6773           33441                           STORE    ANORMAL                               #  ANORMAL SCALED 2(-9) M/CS(+2)
000713:
000714: 25,6774           47575        GO-ON              NOLOD    1
000715: 25,6775           75776                           VXSC
000716: 25,6776           01367                                    UNITRXV                               #  ANORMAL ALONG IP SCALED 2(-8)
000717:
000718: 25,6777           75775                           VXSC     1
000719: 25,7000           71176                           ABVAL
000720: 25,7001           01002                                    DELV


000722: 25,7002           21742                                    KPIP
000723: 25,7003           32005                           STORE    4                                     #  MEASURED DELTA V SCALED 2(+5)
000724:
000725: 25,7004           47573                           NOLOD    3
000726: 25,7005           62722                           DDV      DMP
000727: 25,7006           63766                           TSLT     VXSC
000728: 25,7007           50753                           VAD      UNIT
000729: 25,7010           01030                                    DELTAT
000730: 25,7011           13167                                    FULHAM                                #  APPROX COS OF THRUST ONTO HORIZ PLANE
000731: 25,7012           00006                                    5
000732: 25,7013           01375                                    UNITHORZ                              #  COEF OF SIN TERM OF IT SCALED 2(+1)
000733:
000734: 25,7014           62775                           DDV      1
000735: 25,7015           63142                           ASIN     DAD
000736: 25,7016           13165                                    RVH                                   #  RADIUS TO VISUAL HORIZON SCALED 2(+26) M
000737: 25,7017           01024                                    RMAG                                  #  R SCALED 2(+25)
000738: 25,7020           01443                                    LOOKANG                               #  PHI SCALED 2(+0) REV.
000739:
000740: 25,7021           47575                           NOLOD    1
000741: 25,7022           55166                           COS      VXSC
000742: 25,7023           01016                                    UNITR                                 #  COS(PHI) IR SCALED 2(+2)
000743:
000744: 25,7024           57174                           SIN      2
000745: 25,7025           75762                           VXSC     VSU
000746: 25,7026           44776                           VSLT
000747: 25,7027           00023                                    18D                                   #  PHI
000748: 25,7030           00015                                    12D                                   #  SIN COEF SCALED 2(+1)
000749: 25,7031           77777                                    -                                     #  COS(PHI) SCALED 2(+2)
000750: 25,7032           00002                                    1                                     #  UNIT FINAL, IT, SCALED 2(+1)
000751:
000752: 25,7033           64773                           DMP      3
000753: 25,7034           62716                           DDV      TSLT
000754: 25,7035           71672                           BOV      TSRT
000755: 25,7036           75771                           VXSC     RTB
000756: 25,7037           00003                                    2                                     #  D  2(+2)
000757: 25,7040           00005                                    4                                     #  DELTA V  2(+5)
000758: 25,7041           00001                                    0                                     #  DELTA D  2(+1)
000759: 25,7042           00002                                    1                                     #  IS MAG VG GR THAN 2(+5) M/CS
000760: 25,7043           13074                                    FIXVG                                 #  IF YES, SET MAG VG TO 2(+5) M/CS
000761: 25,7044           00002                                    1                                     #  IF NO, SCALE MAG VG BACK TO 2(+6)
000762: 25,7045           77777                                    -                                     #  IT  2(+1)
000763: 25,7046           20265                                    FRESHPD                               #  ZERO PD POINTER
000764: 25,7047           33353                           STORE    VG                                    #  VG SCALED 2(+7) M/CS
000765:
000766: 25,7050           75176        PREXIT             VMOVE    0
000767: 25,7051           00007                                    6
000768: 25,7052           33425                           STORE    DIFFVECT                              #  SAVE NEW DIFFVECT SCALED 2(+1)
000769:
000770: 25,7053           75176                           VMOVE    0
000771: 25,7054           15575                                    ZEROVEC


000773: 25,7055           33411                           STORE    CBDT                                  #  CBDT = 0 FOR 501 ABORTS
000774:
000775: 25,7056           44576                           ITCI     0
000776: 25,7057           00052                                    S2                                    #  RETURN
000777:
000778: 25,7060           04000        CHEKEXIT           TC       INTPRET                               #  EXIT FOR VR CHECK FAILURES
000779:
000780: 25,7061           76575                           RTB      1
000781: 25,7062           76776                           ITC
000782: 25,7063           20265                                    FRESHPD                               #  ZERO PD POINTER
000783: 25,7064           25657                                    VRFAIL
000784:
000785: 25,7065           53776        ANOVFLOW           SIGN     0
000786: 25,7066           13161                                    ANPSEUDO                              #  AN = 8 FT/S/S SIGNED WITH DELTA V
000787: 25,7067           00015                                    12D                                   #  DELTA V
000788: 25,7070           33441                           STORE    ANORMAL
000789:
000790: 25,7071           76776                           ITC      0
000791: 25,7072           12775                                    GO-ON
000792:
000793: 25,7073           75175        FIXVG              VMOVE    1
000794: 25,7074           75771                           VXSC     RTB
000795: 25,7075           77777                                    -                                     #  IT  2(+1)
000796: 25,7076           15573                                    DP2(-1)
000797: 25,7077           20265                                    FRESHPD                               #  ZERO PD POINTER
000798: 25,7100           33353                           STORE    VG                                    #  MAG VG 2(+5) M/CS SCALED 2(+7)
000799:
000800: 25,7101           76776                           ITC      0
000801: 25,7102           13051                                    PREXIT                                #  GO CLOSE OUT 501 ABORT
000802:
000803: 25,7103           45176        GETRANGE           DMOVE    0
000804: 25,7104           13151                                    MINRANGE
000805: 25,7105           32025                           STORE    20D                                   #  FREEZE RANGE ANGLE AT MINRANGE
000806:
000807: 25,7106           76776                           ITC      0
000808: 25,7107           12635                                    GOTRANGE                              #  CONTINUE
000809:
000810: 25,7110           77576        PASTIT             EXIT     0
000811: 25,7111           03007                           TC       ALARM
000812: 25,7112           01403                           OCT      01403
000813: 25,7113           07060                           TC       CHEKEXIT
000814:
000815: 25,7114           77576        SMACHECK           EXIT     0
000816: 25,7115           03007                           TC       ALARM
000817: 25,7116           01404                           OCT      01404
000818: 25,7117           07060                           TC       CHEKEXIT
000819:
000820: 25,7120           77576        GAMCHECK           EXIT     0
000821: 25,7121           03007                           TC       ALARM
000822: 25,7122           01405                           OCT      01405


000824: 25,7123           07060                           TC       CHEKEXIT
000825:
000826: 25,7124           77576        TANCHECK           EXIT     0
000827: 25,7125           03007                           TC       ALARM
000828: 25,7126           01406                           OCT      01406
000829: 25,7127           07060                           TC       CHEKEXIT
000830:
000831: 25,7130           06145 33650  RINTALT            2DEC     6500085    B-25                       #  400K FT RADIUS
000832: 25,7132           02000 00000  DP2(-4)            2DEC     0.0625
000833: 25,7134           00400 00000  DP2(-6)            2DEC     0.015625
000834: 25,7136           00010 00000  DP2(-11)           2DEC     0.000488281
000835: 25,7140           00004 00000  DP2(-12)           2DEC     0.000244141
000836: 25,7142           06010 35650  KRANGE0            2DEC     0.188045173                            #                  2(+4)
000837: 25,7144           51120 56532  KRANGE1            2DEC     -.713839193                            #                  2(+11)
000838: 25,7146           25641 36206  KRANGE2            2DEC     0.681759381                            #                  2(+18)
000839: 25,7150           00467 16603  MINRANGE           2DEC     0.019010080                            #  6.8436288 DEG   2(+0) REVS.
000840: 25,7152           33537 15244  V400               2DEC     0.865198746                            #  110.7454396     2(+7) M/CS
000841: 25,7154           00000 37200  TGOBIAS            2DEC     0.000059605                            #  5 SECS          2(+23) CS
000842: 25,7156           20607 05301  VCRIT              2DEC     0.523875000                            #  22,000 FT/SEC   2(+7) M/CS
000843: 25,7160           03775 17232  ANPSEUDO           2DEC     0.124846080                            #  8 FT/S/S        2(-9) M/CS/CS
000844: 25,7162           06052 12650  RE                 2DEC     0.190084130                            #  6.378165 E6 M   2(+25) M
000845: 25,7164           03025 05324  RVH                2DEC     0.095042065                            #  6.378165 E6 M   2(+26) M
000846: 25,7166           36044 03661  FULHAM             2DEC     0.9397046                             #  COS 20 DEG.
000847:


000849:
000850:                                                                                                  #  THESE ROUTINES COMPUTE VR TO ACHIEVE A CIRCULAR EARTH- OR MOON-CENTERED ORBIT
000851:
000852:
000853:
000854: 25,7170           45175        EARTHORB           DMOVE    1
000855: 25,7171           76776                           ITC
000856: 25,7172           13376                                    MUE
000857: 25,7173           13201                                    SQRTMU/R
000858:
000859: 25,7174           45175        LUNDEBST           DMOVE    1
000860: 25,7175           63576                           INCR,1
000861: 25,7176           13400                                    MUM
000862: 25,7177           00007                                    6D
000863:
000864: 25,7200           47574        SQRTMU/R           NOLOD    2
000865: 25,7201           62714                           DDV      TSLT*
000866: 25,7202           53176                           SQRT
000867: 25,7203           01024                                    RMAG
000868: 25,7204           00021                                    8D,1                                  #  C(X1) =14-N  (EARTH)
000869:                                                                                                  #        =20-N  (MOON)
000870: 25,7205           41775                           VXV      1
000871: 25,7206           73166                           UNIT     VXSC
000872: 25,7207           01016                                    UNITR
000873: 25,7210           01323                                    UNITN
000874: 25,7211           33417                           STORE    VR                                    #  VR SCALED AT 2(+8)M/CS
000875:
000876: 25,7212           76776                           ITC      0
000877: 25,7213           12431                                    CALCCBDT
000878:


000880:
000881:                                                                                                  #  THIS ROUTINE COMPUTES VR TO ACHIEVE HYPERBOLIC VELOCITY VF FOR TRANSEARTH INJECTION
000882:
000883:
000884:
000885: 25,7214           62775        TRANSEAR           DDV      1
000886: 25,7215           63376                           TSLT*
000887: 25,7216           13400                                    MUM
000888: 25,7217           01024                                    RMAG
000889: 25,7220           00011                                    4,1
000890:
000891: 25,7221           73176                           UNIT     0
000892: 25,7222           01323                                    VF                                    #  VF SCALED AT 2(+4)M/CS
000893: 25,7223           33367                           STORE    UNITF
000894:
000895: 25,7224           47572                           NOLOD    4
000896: 25,7225           42742                           DOT      DAD
000897: 25,7226           64716                           DMP      TSLT
000898: 25,7227           61742                           BDDV     DAD
000899: 25,7230           53176                           SQRT
000900: 25,7231           01016                                    UNITR
000901: 25,7232           15565                                    DP2(-2)
000902: 25,7233           00035                                    28D                                   #  (VF SQ)
000903: 25,7234           00004                                    3
000904: 25,7235           77777                                    -
000905: 25,7236           13263                                    DP2(-10)
000906: 25,7237           32033                           STORE    26D                                   #  SCALED AT 2(+5)
000907:
000908: 25,7240           47575                           NOLOD    1
000909: 25,7241           70766                           DAD      VXSC
000910: 25,7242           13261                                    DP2(-5)
000911: 25,7243           01367                                    UNITF
000912:
000913: 25,7244           66774                           DSU      2
000914: 25,7245           75642                           VXSC     VAD
000915: 25,7246           75622                           VXSC     VSLT
000916: 25,7247           00033                                    26D
000917: 25,7250           13261                                    DP2(-5)
000918: 25,7251           01016                                    UNITR
000919: 25,7252           77777                                    -
000920: 25,7253           00037                                    30D                                   #  (VF)
000921: 25,7254           00003                                    2
000922: 25,7255           33417                           STORE    VR                                    #  VR SCALED AT 2(+8)M/CS
000923:
000924: 25,7256           76776                           ITC      0
000925: 25,7257           12431                                    CALCCBDT
000926:
000927: 25,7260           01000 00000  DP2(-5)            2DEC     0.03125
000928: 25,7262           00020 00000  DP2(-10)           2DEC     0.000976563
000929:


000931:
000932:                                                                                                  #  THIS ROUTINE COMPUTES VR TO ACHIEVE A TRANSLUNAR ELLIPSE DEFINED BY A TARGET VECTOR RTRNSLUN AND A SMEI MAJOR
000933:                                                                                                  #  AXIS SMA
000934:
000935:
000936:
000937: 25,7264           63775        TRANSLUN           TSLT     1
000938: 25,7265           53176                           SQRT
000939: 25,7266           13376                                    MUE
000940: 25,7267           00002                                    1
000941:
000942: 25,7270           45175                           DMOVE    1
000943: 25,7271           56376                           TSRT*
000944: 25,7272           00037                                    30D                                   #  (RN)
000945: 25,7273           00025                                    10D,1                                 #  RN RESCALED TO 2(+26)M
000946:
000947: 25,7274           75174                           VMOVE    2
000948: 25,7275           45232                           VSRT*    BVSU
000949: 25,7276           73026                           UNIT     VSRT
000950: 25,7277           00766                                    RN
000951: 25,7300           00025                                    10D,1                                 #  RTRNSLUN-RMAG SCALED AT 2(+25)M
000952: 25,7301           01323                                    RTRNSLUN
000953: 25,7302           00002                                    1
000954:
000955: 25,7303           45775                           VSRT     1
000956: 25,7304           46776                           BVSU
000957: 25,7305           01016                                    UNITR
000958: 25,7306           00002                                    1
000959: 25,7307           33367                           STORE    UNITD
000960:
000961: 25,7310           47575                           NOLOD    1
000962: 25,7311           50776                           VAD
000963: 25,7312           01016                                    UNITR
000964: 25,7313           33375                           STORE    UNITS
000965:
000966: 25,7314           71174                           ABVAL    2
000967: 25,7315           70742                           DAD      DAD
000968: 25,7316           56776                           TSRT
000969: 25,7317           01323                                    RTRNSLUN
000970: 25,7320           00037                                    30D                                   #  (C)
000971: 25,7321           77777                                    -                                     #  (RN)
000972: 25,7322           00002                                    1
000973: 25,7323           33433                           STORE    S                                     #  S SCALED AT 2(+26)M
000974:
000975: 25,7324           47575                           NOLOD    1
000976: 25,7325           66676                           DSU      TSLC
000977: 25,7326           00037                                    30D                                   #  (C)
000978: 25,7327           00050                                    X2
000979: 25,7330           33435                           STORE    DN
000980:
000981: 25,7331           47575                           NOLOD    1


000983: 25,7332           56326                           TSRT*    BDSU
000984: 25,7333           00016                                    6,2
000985: 25,7334           01437                                    SMA
000986:
000987: 25,7335           64773                           DMP      3
000988: 25,7336           61711                           BDDV     INCR,2
000989: 25,7337           63253                           TSLT*    SQRT
000990: 25,7340           53766                           SIGN     VXSC
000991: 25,7341           01437                                    SMA
000992: 25,7342           01435                                    DN
000993: 25,7343           77777                                    -
000994: 25,7344           00021                                    16D
000995: 25,7345           00002                                    0,2
000996: 25,7346           01425                                    SGNTHETA
000997: 25,7347           01375                                    UNITS
000998:
000999: 25,7350           56775                           TSRT     1
001000: 25,7351           65672                           BDSU     TSRT
001001: 25,7352           01433                                    S
001002: 25,7353           00007                                    6D
001003: 25,7354           01437                                    SMA
001004: 25,7355           00005                                    4
001005:
001006: 25,7356           64772                           DMP      4
001007: 25,7357           61653                           BDDV     SQRT
001008: 25,7360           56766                           TSRT     VXSC
001009: 25,7361           50622                           VAD      VSLT
001010: 25,7362           75776                           VXSC
001011: 25,7363           01437                                    SMA
001012: 25,7364           01433                                    S
001013: 25,7365           77777                                    -
001014: 25,7366           00007                                    6
001015: 25,7367           01367                                    UNITD
001016: 25,7370           77777                                    -
001017: 25,7371           00012                                    9D
001018: 25,7372           33417                           STORE    VR                                    #  VR SCALED AT 2(+8)M/CS
001019:
001020: 25,7373           76776                           ITC      0
001021: 25,7374           12431                                    CALCCBDT
001022:
001023: 25,7375           04507 33420  MUE                2DEC     0.145011008                            #  3.98603223 E14 SCALED 2(+38)M(+3)/CS(+2)
001024: 25,7377           03516 10273  MUM                2DEC     0.114151696                            #  4.90277800 E08 SCALED 2(+32)M(+3)/CS(+2)
001025:


001027:
001028:                                                                                                  #  THIS ROUTINE COMPUTES THE DESIRED THRUST DIRECTION AS A HALF UNIT VECTOR XSC. IT COMPUTES THE HALF UNIT VECTOR
001029:                                                                                                  #  YSC ALONG RN*XSC  (I.E. DEFINES A PITCH AXIS HORIZONTAL, YAW AXIS UP ROLL ATTITUDE) AND ZSC ALONG XSC*YSC. IT
001030:                                                                                                  #  REQUIRES PRIOR PASSES THROUGH ROUTINES CALCRVG AND CALCVGB TO ESTABLISH UNITR, VG, AND CBDT. X1 MUST CONTAIN
001031:                                                                                                  #  0,2,4... TO LOAD THE APPROPRIATE INTEGRATED INITIAL THRUST ACCELERATION MAGNITUDE ATDT
001032:
001033:
001034:
001035: 25,7401           73176        CALCXSC            UNIT     0
001036: 25,7402           01353                                    VG
001037: 25,7403           33353                           STORE    UNITVG
001038:
001039: 25,7404           47574                           NOLOD    2
001040: 25,7405           40622                           VPROJ    VSLT
001041: 25,7406           46776                           BVSU
001042: 25,7407           01411                                    CBDT                                  #  SCALED AT 2(+4)M/CS
001043: 25,7410           00003                                    2
001044: 25,7411           01411                                    CBDT
001045:
001046: 25,7412           47571                           NOLOD    5
001047: 25,7413           71110                           ABVAL    DDV*
001048: 25,7414           51126                           DSQ      BDSU
001049: 25,7415           53120                           SQRT     DMP*
001050: 25,7416           63766                           TSLT     VXSC
001051: 25,7417           50753                           VAD      UNIT
001052: 25,7420           03631                                    ATDT,1                                #  SCALED AT 2(+5)M/CS
001053: 25,7421           21043                                    NEARONE
001054: 25,7422           03631                                    ATDT,1
001055: 25,7423           00003                                    2
001056: 25,7424           01353                                    UNITVG
001057: 25,7425           33367                           STORE    XSC
001058:
001059: 25,7426           47574                           NOLOD    2
001060: 25,7427           41753                           VXV      UNIT
001061: 25,7430           47176                           COMP
001062: 25,7431           01016                                    UNITR
001063: 25,7432           33375                           STORE    YSC
001064:
001065: 25,7433           43575                           TEST     1
001066: 25,7434           75033                           VMOVE    COMP
001067: 25,7435           00054                                    SPS2FLAG
001068: 25,7436           13442                                    HEADWN2
001069: 25,7437           01375                                    YSC
001070: 25,7440           33375                           STORE    YSC
001071:
001072: 25,7441           47574        HEADWN2            NOLOD    2
001073: 25,7442           41753                           VXV      UNIT
001074: 25,7443           47176                           COMP
001075: 25,7444           01367                                    XSC
001076: 25,7445           33403                           STORE    ZSC


001078: 25,7446           40576                           ITCQ     0
001079:


001081:
001082:                                                                                                  #        THIS ROUTINE RESOLVES THE VECTOR IN RTINIT THROUGH AN ANGULAR ROTATION WIE(DTEAROT) SCALED AT ONE REV-
001083:                                                                                                  #  OLUTION ABOUT THE UNIT POLAR AXIS UMITW. IT REQUIRES DTEAROT SCALED AT 2(+28)CS. IT LEAVES THE RESOLVED
001084:                                                                                                  #  VECTOR IN RT WITH EASTERLY AND NORMAL COMPONENTS IN RTEAST AND RTNORM RESPECTIVELY, AT THE SAME SCALING. FOR
001085:                                                                                                  #  CONTINUOUS UPDATING ONLY ONE ENTRY AT EARROT1 IS REQUIRED, WITH SUBSEQUENT ENTRIES AT EARROT2
001086:
001087:
001088:
001089: 25,7447           41775        EARROT1            VXV      1
001090: 25,7450           44776                           VSLT
001091: 25,7451           01044                                    UNITW
001092: 25,7452           01115                                    RTINIT
001093: 25,7453           00003                                    2
001094: 25,7454           33123                           STORE    RTEAST
001095:
001096: 25,7455           47575                           NOLOD    1
001097: 25,7456           41622                           VXV      VSLT
001098: 25,7457           01044                                    UNITW
001099: 25,7460           00002                                    1
001100: 25,7461           33131                           STORE    RTNORM
001101:
001102: 25,7462           72775        EARROT2            STZ      1                                     #  BRANCH TO OVERADAY UNTIL DTEAROT
001103: 25,7463           62746                           DDV      BOV                                   #  LESS THAN ONE SIDEREAL DAY
001104: 25,7464           00123                                    OVFIND
001105: 25,7465           01145                                    DTEAROT
001106: 25,7466           13520                                    1/WIE                                 #  TIME FOR ONE SIDEREAL REVOLUTION
001107: 25,7467           13507                                    OVERADAY
001108: 25,7470           32037                           STORE    30D
001109:
001110: 25,7471           47574                           NOLOD    2
001111: 25,7472           55132                           COS      DSU
001112: 25,7473           75776                           VXSC
001113: 25,7474           15573                                    DP2(-1)
001114: 25,7475           01131                                    RTNORM
001115:
001116: 25,7476           57174                           SIN      2
001117: 25,7477           75642                           VXSC     VAD
001118: 25,7500           50776                           VAD
001119: 25,7501           00037                                    30D
001120: 25,7502           01123                                    RTEAST
001121: 25,7503           01115                                    RTINIT
001122: 25,7504           33215                           STORE    RT
001123:
001124: 25,7505           40576                           ITCQ     0
001125:
001126: 25,7506           53775        OVERADAY           SIGN     1
001127: 25,7507           65776                           BDSU
001128: 25,7510           13520                                    1/WIE
001129: 25,7511           01145                                    DTEAROT
001130: 25,7512           01145                                    DTEAROT
001131: 25,7513           33145                           STORE    DTEAROT


001133: 25,7514           43776                           BPL      0                                     #  GO BACK WITHOUT DISTRUBING QPRET.
001134: 25,7515           13520                                    1/WIE                                 #  ANY POSITIVE CONSTANT WILL DO.
001135: 25,7516           13463                                    EARROT2
001136:
001137: 25,7517           01015 34732  1/WIE              2DEC     0.032098629                            #  8.61641000 E4 SECS SCALED AT 2(+28)CS
001138:


001140:
001141:                                                                                                  #  CONVERSION CONSTANTS FOR FREE FALL INTEGRATION PROGRAM
001142:
001143: 25,7521           20304 23351  SCLRAVMD           2DEC     .512
001144: 25,7523           37200 00000  SCLRMDAV           2DEC     1000       B-10
001145: 25,7525           21601 34056  SCLTAVMD           2DEC     4.4384169  B-3
001146: 25,7527           24605 15301  SCLVAVMD           2DEC     .64876819
001147: 25,7531           30523 00147  SCLVMDAV           2DEC     .770691300
001148:
001149:
001150:                                                                                                  #  POWERED FLIGHT CONSTANTS. DELCDU SCALED AT KE/2 REVS (KE =A/P GAIN=1.5) EVS (KE =A/P GAIN =1.5)
001151: 25,7533           00134 27361  DELCDU             2DEC     0.00566                               #                        ( =1.02 DEG)
001152: 25,7535           00113 26154                     2DEC     0.00462                               #                        ( =0.83 DEG)
001153: 25,7537           00216 33625                     2DEC     0.00872                               #                        ( =1.57 DEG)
001154: 25,7541           00450 37342  MUE(41)            2DEC     .145011008 B-3                        #  SCALED AT 2(+41)M(+3)/CS(+2)
001155:


001157:
001158:                                                                                                  #  ROUTINE CALCMANU COMPUTES THE SEQUENCE OF MANEUVERS REQUIRED IN GOING FROM AN INITIAL ATTITUDE DEFINED BY THE
001159:                                                                                                  #  EULER ANGLES IN THETAD,+1,+2 WHICH ARE THE PRESENT OUTER, MIDDLE, INNER GIMBAL ANGLES, TO AN ATTITUDE DEFINED
001160:                                                                                                  #  BY THE MATRIX X,Y,ZSCD, THE DESIRED BODY AXES. CALCMANU WILL EXIT WITH A MANEUVER ANGLE IN THETAMAN SCALED AT
001161:                                                                                                  #  1 REV, AND THE HALF UNIT VECTOR IN WC. ROTATIONS ARE BASED ON A PITCH/YAW-THEN-ROLL POLICY. IF THIS
001162:                                                                                                  #  POLICY WOULD CAUSE GIMBAL LOCK, A ROLL-PITCH/YAW-ROLL IS ADOPTED. IN EXTREMELY RARE CASES, INVOLVING MANEU-
001163:                                                                                                  #  VERS FROM ONE GIMBAL LOCK AREA TO THE OTHER, THE POLICY MAY BE PITCH/YAW-ROLL-PITCH/YAW-ROLL, OR EVEN ROLL-
001164:                                                                                                  #  PITCH/YAW-ROLL-PITCH/YAW-ROLL. IN ALL CASES, IF THE MANEUVER IS A ROLL, ROLLFLAG WILL BE ON. IF THERE IS NO
001165:                                                                                                  #  MANEUVER REQUIRED,(VEHICLE LESS THAN ABOUT 3 DEGS AWAY FROM DESIRED ATTITUDE), CALCFLAG WILL BEOFF.
001166:                                                                                                  #  OTHERWISE, CALCFLAG IS ON. CALCMANU PRESUMES THAT INITIAL CONDITIONS AND FINAL CONDITIONS ARE NOT IN GIMBAL LOCK
001167: 26,6000                                           SETLOC   54000
001168: 26,6000           77576        CALCMANU           EXIT     0
001169:
001170: 26,6001           03440                           TC       FLAG2UP
001171: 26,6002           12000                           OCT      12000                                 #  SET BACKFLAG, CALCFLAG
001172:
001173: 26,6003           03452                           TC       FLAG2DWN
001174: 26,6004           04600                           OCT      04600                                 #  REMOVE ROLLFLAG  ,NEGFLAG,BEGINFLAG
001175:
001176: 26,6005           04000                           TC       INTPRET
001177:
001178: 26,6006           75575                           AXT,1    1
001179: 26,6007           45572                           ITA      ITC
001180: 26,6010           00007                                    6
001181: 26,6011           01472                                    EXITCADR
001182: 26,6012           12013                                    THETRIG
001183:
001184: 26,6013           76776                           ITC      0
001185: 26,6014           12110                                    CALCSMNB                              #  COMPUTE X,Y,ZNB
001186:
001187: 26,6015           76776                           ITC      0
001188: 26,6016           12213                                    CALCNBSC                              #  COMPUTE X,Y,ZSC
001189:
001190: 26,6017           74575                           AXT,2    1
001191: 26,6020           76576                           RTB                                            #  SET X2 TO 0
001192: 26,6021           00001                                    0
001193: 26,6022           20265                                    FRESHPD                               #  SET PD POINTER TO 0
001194:
001195: 26,6023           42774                           DOT      2
001196: 26,6024           65132                           ABS      DSU
001197: 26,6025           43776                           BPL
001198: 26,6026           01367                                    XSC
001199: 26,6027           01411                                    XSCD
001200: 26,6030           15655                                    COSSIX
001201: 26,6031           14102                                    180/ZERO
001202:
001203: 26,6032           41775        NOT179             VXV      1
001204: 26,6033           73176                           UNIT
001205: 26,6034           01367                                    XSC
001206: 26,6035           01411                                    XSCD
001207: 26,6036           33323                           STORE    WC


001209:
001210: 26,6037           65175        ACCEPTWC           ABS      1
001211: 26,6040           66616                           DSU      BPL
001212: 26,6041           01325                                    WC         +2
001213: 26,6042           15543                                    COS27                                 #  IF WC IS 27 OR LESS DEGS AWAY FROM
001214: 26,6043           15520                                    GETPTCH                               #  +,- YSM, GIMBAL LOCK IS IMPOSSIBLE
001215:
001216: 26,6044           41775                           VXV      1                                     #  PITCH/YAW MAY CAUSE GIMBAL LOCK. VARIOUS
001217: 26,6045           41753                           VXV      UNIT                                  #  TESTS MUST BE MADE
001218: 26,6046           01323                                    WC
001219: 26,6047           15601                                    UNITY                                 #  MP IS POINT OF CLOSEST APPROACH TO +YSM
001220: 26,6050           01323                                    WC                                    #  MP TO PD AT 0
001221:
001222: 26,6051           45176                           DMOVE    0
001223: 26,6052           15575                                    ZEROVEC
001224: 26,6053           32020                           STORE    15D
001225:
001226: 26,6054           47575                           NOLOD    1
001227: 26,6055           41776                           VXV
001228: 26,6056           01411                                    XSCD                                  #  MP*XSCD TO PD AT 6
001229:
001230: 26,6057           41775                           VXV      1
001231: 26,6060           42616                           DOT      BPL
001232: 26,6061           00001                                    0
001233: 26,6062           01367                                    XSC
001234: 26,6063           77777                                    -                                     #  BRANCH TO BEGINARC IF ARC FROM XSC TO
001235: 26,6064           14351                                    BEGINARC                              #  XSCD DOES NOT INCLUDE MP OR -MP
001236:
001237: 26,6065           50775                           VAD      1
001238: 26,6066           42616                           DOT      BPL
001239: 26,6067           01367                                    XSC
001240: 26,6070           01411                                    XSCD
001241: 26,6071           00001                                    0
001242: 26,6072           14076                                    PLUSPOLE
001243:
001244: 26,6073           42576                           SWITCH   0
001245: 26,6074           00050                                    NEGFLAG                               #  -MP IS ON ARC
001246:
001247: 26,6075           76776        PLUSPOLE           ITC      0
001248: 26,6076           14201                                    NORMLIMS
001249:
001250: 26,6077           76776                           ITC      0
001251: 26,6100           14316                                    FILENORM
001252:
001253: 26,6101           42775        180/ZERO           DOT      1
001254: 26,6102           73776                           BMN
001255: 26,6103           01367                                    XSC
001256: 26,6104           01411                                    XSCD
001257: 26,6105           15351                                    180CASE
001258:
001259: 26,6106           47575                           NOLOD    1


001261: 26,6107           66756                           DSU      BMN
001262: 26,6110           15541                                    COS3
001263: 26,6111           15401                                    NOGIMTST
001264:
001265: 26,6112           42773                           DOT      3
001266: 26,6113           75622                           VXSC     VSLT
001267: 26,6114           74633                           VSU      COMP
001268: 26,6115           73012                           UNIT     DOT
001269: 26,6116           01425                                    ZSCD
001270: 26,6117           01367                                    XSC
001271: 26,6120           01367                                    XSC
001272: 26,6121           00003                                    2
001273: 26,6122           01425                                    ZSCD
001274: 26,6123           01403                                    ZSC                                   #  COSROLL TO PD AT 0 SCALED AT 2(2)
001275:
001276: 26,6124           47575                           NOLOD    1
001277: 26,6125           66616                           DSU      BPL
001278: 26,6126           15655                                    COSSIX
001279: 26,6127           14171                                    CALCSNAP
001280:
001281: 26,6130           41775                           VXV      1                                     #  ROLL IS REQUIRED
001282: 26,6131           42776                           DOT
001283: 26,6132           01403                                    ZSC
001284: 26,6133           01425                                    ZSCD
001285: 26,6134           01367                                    XSC                                   #  XSC.(ZSC*ZSCD) TO PD AT 2
001286:
001287: 26,6135           63775                           TSLT     1
001288: 26,6136           61056                           ACOS     SIGN
001289: 26,6137           00001                                    0
001290: 26,6140           00002                                    1
001291: 26,6141           33455                           STORE    THETAMAN
001292:
001293: 26,6142           65174                           ABS      2
001294: 26,6143           66756                           DSU      BMN
001295: 26,6144           76776                           ITC
001296: 26,6145           01371                                    XSC        +2
001297: 26,6146           15545                                    COS63
001298: 26,6147           14152                                    NOTEST
001299: 26,6150           15240                                    ROLLTEST                              #  SHORT ROLL MAY GO THROUGH GIMBAL LOCK
001300:
001301: 26,6151           53775        NOTEST             SIGN     1                                     #  ATTACH SIGN OF THETAMAN TO WC
001302: 26,6152           75776                           VXSC
001303: 26,6153           21043                                    NEARONE
001304: 26,6154           01455                                    THETAMAN
001305: 26,6155           01367                                    XSC
001306: 26,6156           33323                           STORE    WC
001307:
001308: 26,6157           65176                           ABS      0                                     #  THETAMAN MUST BE +VE FOR MANUJOB
001309: 26,6160           01455                                    THETAMAN
001310: 26,6161           33455                           STORE    THETAMAN


001312: 26,6162           77576                           EXIT     0
001313:
001314: 26,6163           03440                           TC       FLAG2UP
001315: 26,6164           04000                           OCT      04000                                 #  SET ROLLFLAG
001316:
001317: 26,6165           04000                           TC       INTPRET
001318:
001319: 26,6166           44576                           ITCI     0
001320: 26,6167           01472                                    EXITCADR                              #  EXIT ON THE ROLL WHEN PITCH/YAW IS OVER
001321:
001322: 26,6170           42575        CALCSNAP           SWITCH   1                                     #  WE ARE THERE
001323: 26,6171           76776                           ITC
001324: 26,6172           00046                                    CALCFLAG                              #  REMOVE CALCFLAG
001325: 26,6173           12167                                    CALCSCNB
001326:
001327: 26,6174           76776                           ITC      0
001328: 26,6175           12072                                    CALCCDU                               #  SET THETAD,S TO CORRECT VALUES
001329:
001330: 26,6176           44576                           ITCI     0
001331: 26,6177           01472                                    EXITCADR                              #  THIS IS THE LAST EXIT FROM CALCMANU
001332:
001333: 26,6200           45574        NORMLIMS           ITA      2
001334: 26,6201           76455                           RTB      AXC,1                                 #  SET PD TO 18
001335: 26,6202           65103                           ABS      ACOS
001336: 26,6203           01455                                    THETAMAN                              #  (TEMPORARY STORAGE)
001337: 26,6204           15645                                    SETPD18
001338: 26,6205           00003                                    2                                     #  -2 TO X1
001339: 26,6206           00003                                    2                                     #  C TO 18
001340:
001341: 26,6207           47575        BACKLIM            NOLOD    1
001342: 26,6210           65776                           BDSU
001343: 26,6211           15557                                    30DEG                                 #  30-C TO 20 AT 4PI
001344:
001345: 26,6212           55176                           COS      0
001346: 26,6213           00025                                    20D                                   #  COS(30-C) TO PD AT 22
001347:
001348: 26,6214           57174                           SIN      2
001349: 26,6215           62722                           DDV      DMP
001350: 26,6216           61072                           ACOS     TSRT
001351: 26,6217           00025                                    20D
001352: 26,6220           77777                                    -
001353: 26,6221           15551                                    1/TAN33                               #  (T/TAN33 SCALED AT 2(1) )
001354: 26,6222           00002                                    1                                     #  OKA TO 22 AT 4PI
001355:
001356: 26,6223           45176                           DMOVE    0
001357: 26,6224           15563                                    90DEG                                 #  90 DEGREES TO 24
001358:
001359: 26,6225           43176                           SMOVE    0
001360: 26,6226           00047                                    X1                                    #  X1 TO 26


001362: 26,6227           45174                           DMOVE    2
001363: 26,6230           47056                           COMP     SIGN
001364: 26,6231           70633                           DAD      COMP
001365: 26,6232           15563                                    90DEG                                 #  -180 IF X1=-2,0 IF X1=0, TO 24
001366:
001367: 26,6233           45175                           DMOVE    1
001368: 26,6234           43433                           TEST     COMP
001369: 26,6235           15563                                    90DEG                                 #  90DEG SCALED AT 4PI
001370: 26,6236           00050                                    NEGFLAG
001371: 26,6237           14242                                    POSPOLE
001372: 26,6240           32033                           STORE    26D
001373:
001374:                                                                                                  #  +90 IN MPAC IF FLAG=0
001375:                                                                                                  #  -90 IN MPAC IF FLAG=1
001376: 26,6241           47575        POSPOLE            NOLOD    1
001377: 26,6242           53776                           SIGN
001378: 26,6243           01325                                    WC         +2
001379:
001380:                                                                                                  #  +90 IN 24 IF
001381:                                                                                                  #    A) FLAG=0, WC +2 POS
001382:                                                                                                  #    B) FLAG=1, WC +2 NEG
001383:                                                                                                  #  -90 IN 24 IF
001384:                                                                                                  #    A) FLAG=0, WC +2 NEG
001385:                                                                                                  #    B) FLAG=1, WC +2 POS
001386: 26,6244           47575                           NOLOD    1
001387: 26,6245           66776                           DSU
001388: 26,6246           00031                                    24D                                   #  180J-90SIGMIM TO 28
001389:
001390: 26,6247           43175                           SMOVE    1
001391: 26,6250           47776                           BZE
001392: 26,6251           00047                                    X1
001393: 26,6252           14300                                    CNEGLIMS                              #  TO CNEGLIMS IF X1 IS ZERO
001394:
001395: 26,6253           66776                           DSU      0
001396: 26,6254           00035                                    28D
001397: 26,6255           00027                                    22D
001398: 26,6256           32007                           STORE    6                                     #  NBL1 TO 6, SCALED AT 4PI
001399:
001400: 26,6257           70776                           DAD      0
001401: 26,6260           00027                                    22D
001402: 26,6261           32010                           STORE    7                                     #  NEL1 TO 7
001403:
001404: 26,6262           66775                           DSU      1
001405: 26,6263           43776                           BPL
001406: 26,6264           00023                                    18D
001407: 26,6265           15561                                    3DEG
001408: 26,6266           14314                                    ENDNORMS
001409:
001410: 26,6267           75575                           AXT,1    1
001411: 26,6270           76433                           RTB      COMP


001413: 26,6271           00001                                    0                                     #  SET X1 TO 0
001414: 26,6272           15651                                    SETPD20
001415: 26,6273           00023                                    18D                                   #  COMPLEMENT C
001416: 26,6274           32023                           STORE    18D
001417:
001418: 26,6275           76776                           ITC      0
001419: 26,6276           14210                                    BACKLIM                               #  BACKLIMITS EXIST IF C LESS THAN 3
001420:
001421: 26,6277           66776        CNEGLIMS           DSU      0
001422: 26,6300           00035                                    28D
001423: 26,6301           00027                                    22D
001424: 26,6302           32011                           STORE    8D                                    #  NBL0 TO 8
001425:
001426: 26,6303           70774                           DAD      2
001427: 26,6304           73535                           LXA,1    SXA,1
001428: 26,6305           75576                           AXT,1
001429: 26,6306           00035                                    28D
001430: 26,6307           00027                                    22D
001431: 26,6310           00116                                    MPAC
001432: 26,6311           00012                                    9D                                    #  NEL0 TO 9, PROTECTING 10
001433: 26,6312           00001                                    0                                     #  RESET X1 TO 0
001434:
001435: 26,6313           44576        ENDNORMS           ITCI     0                                     #  END OF NORMLIMS CALCULATIONS
001436: 26,6314           01455                                    THETAMAN                              #  END OF NORMLIMS CALCS
001437:
001438: 26,6315           43176        FILENORM           SMOVE    0
001439: 26,6316           00007                                    6D                                    #  6 INTO 10 IF X1=0 ,OR
001440: 26,6317           34025                           STORE    10D,1                                 #  6 INTO 12 IF X1=-2
001441:
001442: 26,6320           43175                           SMOVE    1                                     #  7 INTO 11 IF X1=0  , OR
001443: 26,6321           62576                           INCR,2                                         #  7 INTO 13 IF X1=-2
001444: 26,6322           00010                                    7
001445: 26,6323           77776                          -         2                                     #  MOVE LIMIT LIST POINTER BY -2 (TO -2)
001446: 26,6324           34027                           STORE    11D,1
001447:
001448: 26,6325           43175                           SMOVE    1
001449: 26,6326           73611                           BMN      SWITCH
001450: 26,6327           00047                                    X1
001451: 26,6330           14341                                    SET15D
001452: 26,6331           00044                                    BACKFLAG                              #  SET BACKFLAG
001453:
001454: 26,6332           43176                           SMOVE    0
001455: 26,6333           00011                                    8D
001456: 26,6334           32015                           STORE    12D                                   #  8 INTO 12 IF X1=0
001457:
001458: 26,6335           43176                           SMOVE    0
001459: 26,6336           00012                                    9D
001460: 26,6337           32016                           STORE    13D                                   #  9 INTO 13 IF X1=0
001461:
001462: 26,6340           45175        SET15D             DMOVE    1


001464: 26,6341           43433                           TEST     COMP
001465: 26,6342           15573                                    UNITX
001466: 26,6343           00050                                    NEGFLAG
001467: 26,6344           14347                                    PLUSMP
001468: 26,6345           32020                           STORE    15D
001469:
001470: 26,6346           47576        PLUSMP             NOLOD    0
001471: 26,6347           32020                           STORE    15D
001472:
001473: 26,6350           75575        BEGINARC           AXT,1    1
001474: 26,6351           42576                           SWITCH                                         #  SET X1 TO 0
001475: 26,6352           00001                                    0
001476: 26,6353           00051                                    BEGINFLG                              #  SET BEGINFLG
001477:
001478: 26,6354           76575        ENDCHEK            RTB      1
001479: 26,6355           77576                           EXIT
001480: 26,6356           15645                                    SETPD18
001481:
001482: 26,6357           03452                           TC       FLAG2DWN
001483: 26,6360           00400                           OCT      00400                                 #  REMOVE NEGFLAG
001484:
001485: 26,6361           04000                           TC       INTPRET
001486:
001487: 26,6362           64175                           ABS*     1
001488: 26,6363           65616                           BDSU     BPL
001489: 26,6364           02761                                    XSC        +2,1
001490: 26,6365           15545                                    COS63                                 #  IS END CLOSE TO A POLE Q.
001491: 26,6366           14714                                    OVERYET                               #  BRANCH TO OVERYET IF NOT
001492:
001493: 26,6367           43575        SETWARN            TEST     1
001494: 26,6370           42576                           SWITCH
001495: 26,6371           00051                                    BEGINFLG
001496: 26,6372           14375                                    DONTSET                               #  SET ROLLFLAG IF BEGINNING OF ARC NEAR
001497: 26,6373           00045                                    ROLLFLAG                              #    LOCK
001498:
001499: 26,6374           44175        DONTSET            DMOVE*   1
001500: 26,6375           43611                           BPL      SWITCH
001501: 26,6376           02761                                    XSC        +2,1
001502: 26,6377           14402                                    POSPOLE1                              #  IF XSC +2,1 NEG, SET NEGFLAG
001503: 26,6400           00050                                    NEGFLAG
001504:
001505: 26,6401           43174        POSPOLE1           SMOVE    2
001506: 26,6402           43556                           TEST     BMN
001507: 26,6403           76776                           ITC
001508: 26,6404           00020                                    15D
001509: 26,6405           00050                                    NEGFLAG
001510: 26,6406           14412                                    NEAR+MP
001511: 26,6407           14714                                    OVERYET
001512: 26,6410           14416                                    F2


001514:
001515: 26,6411           47575        NEAR+MP            NOLOD    1
001516: 26,6412           47616                           BZE      BPL
001517: 26,6413           14416                                    F2
001518: 26,6414           14714                                    OVERYET
001519:
001520: 26,6415           42776        F2                 DOT      0
001521: 26,6416           01411                                    XSCD
001522: 26,6417           00001                                    0
001523:
001524: 26,6420           42774                           DOT      2
001525: 26,6421           66615                           DSU      TEST
001526: 26,6422           47176                           COMP
001527: 26,6423           01367                                    XSC
001528: 26,6424           00001                                    0
001529: 26,6425           77777                                    -
001530: 26,6426           00050                                    NEGFLAG
001531: 26,6427           14432                                    BEGIN1
001532: 26,6430           33433                           STORE    DTEMP1
001533:
001534: 26,6431           47575        BEGIN1             NOLOD    1
001535: 26,6432           43433                           TEST     COMP
001536: 26,6433           00051                                    BEGINFLG
001537: 26,6434           14437                                    BEGIN2
001538: 26,6435           33433                           STORE    DTEMP1
001539:
001540: 26,6436           47575        BEGIN2             NOLOD    1
001541: 26,6437           43776                           BPL
001542: 26,6440           14714                                    OVERYET
001543:
001544: 26,6441           43174        F3                 SMOVE    2                                     #  SPLITMANU( IF IT HAPPENS) NEEDS TO KNOW
001545: 26,6442           66615                           DSU      TEST                                  #  WHICH LIMITS REFER TO THE BEGINNING OF
001546: 26,6443           47176                           COMP
001547: 26,6444           00050                                    X2
001548: 26,6445           15567                                    DP2(-13)
001549: 26,6446           00051                                    BEGINFLG
001550: 26,6447           14452                                    F4
001551: 26,6450           32051                           STORE    S1
001552:
001553:                                                                                                  #  IF S1=+,-2, THEN THE LIMITS ABOUT TO BE
001554:                                                                                                  #  CALCULATED WILL END UP IN PD AT 0
001555:                                                                                                  #  IF S1=+,-4, THE LIMITS WILL END UP AT
001556:                                                                                                  #  2,4 IN PD
001557:                                                                                                  #  IF S1 IS NEG, THEN THE TAGGED LIMITS
001558:                                                                                                  #  ARE THE ONES NOT TO USE IN SPLTMANU
001559:                                                                                                  #  IF S1 IS POS, THE TAGGED LIMITS SHOULD
001560:                                                                                                  #  BE USED
001561: 26,6451           47576        F4                 NOLOD    0
001562: 26,6452           32051                           STORE    S1
001563:
001564: 26,6453           45175                           DMOVE    1


001566: 26,6454           43433                           TEST     COMP
001567: 26,6455           15573                                    UNITX
001568: 26,6456           00051                                    BEGINFLG
001569: 26,6457           14462                                    F5
001570: 26,6460           33433                           STORE    DTEMP1
001571:
001572: 26,6461           47575        F5                 NOLOD    1
001573: 26,6462           43433                           TEST     COMP
001574: 26,6463           00050                                    NEGFLAG
001575: 26,6464           14467                                    F6
001576: 26,6465           33433                           STORE    DTEMP1
001577:
001578: 26,6466           47575        F6                 NOLOD    1
001579: 26,6467           53776                           SIGN
001580: 26,6470           01325                                    WC         +2
001581: 26,6471           33433                           STORE    DTEMP1
001582:
001583: 26,6472           64176                           ABS*     0
001584: 26,6473           02761                                    XSC        +2,1                       #  COSC TO 18 AT 2(1)
001585:
001586: 26,6474           56774                           TSRT     2
001587: 26,6475           66711                           DSU      INCR,2
001588: 26,6476           73776                           BMN
001589: 26,6477           00023                                    18D
001590: 26,6500           00002                                    1
001591: 26,6501           15541                                    COS3
001592: 26,6502           77776                          -         2
001593: 26,6503           14511                                    SOMESUN
001594:
001595: 26,6504           76776                           ITC      0
001596: 26,6505           14201                                    NORMLIMS
001597:
001598: 26,6506           76776                           ITC      0
001599: 26,6507           14673                                    ALLSHADE
001600:
001601: 26,6510           74173        SOMESUN            VMOVE*   3
001602: 26,6511           41604                           VXV      VXV*
001603: 26,6512           73033                           UNIT     COMP
001604: 26,6513           43433                           TEST     COMP
001605: 26,6514           02755                                    XSC,1
001606: 26,6515           15601                                    UNITY
001607: 26,6516           02755                                    XSC,1
001608: 26,6517           00050                                    NEGFLAG
001609: 26,6520           14523                                    POSP1
001610: 26,6521           32025                           STORE    20D
001611:
001612: 26,6522           73575        POSP1              LXA,1    1
001613: 26,6523           47576                           NOLOD
001614: 26,6524           00047                                    X1


001616: 26,6525           61175                           ACOS     1
001617: 26,6526           56776                           TSRT
001618: 26,6527           00023                                    18D
001619: 26,6530           00002                                    1                                     #  C/2 TO 26 SCALED AT 2PI
001620:
001621: 26,6531           47575                           NOLOD    1
001622: 26,6532           66673                           DSU      SIN
001623: 26,6533           15553                                    1.5DEG                                #  SIN(C/2-1.5) TO 28
001624:
001625: 26,6534           66775                           DSU      1
001626: 26,6535           57122                           SIN      DMP
001627: 26,6536           15555                                    31.5DEG
001628: 26,6537           00033                                    26D                                   #  SIN(C/2-1.5)SIN,31.5-C/2) TO 28
001629:
001630: 26,6540           70775                           DAD      1
001631: 26,6541           57176                           SIN
001632: 26,6542           00033                                    26D                                   #  SIN(C/2+1.5) TO PD AT 30
001633: 26,6543           15553                                    1.5DEG
001634:
001635: 26,6544           70774                           DAD      2
001636: 26,6545           57122                           SIN      DMP
001637: 26,6546           61653                           BDDV     SQRT
001638: 26,6547           00033                                    26D
001639: 26,6550           15555                                    31.5DEG
001640: 26,6551           32045                           STORE    VACZ
001641:
001642: 26,6552           45176                           DMOVE    0
001643: 26,6553           21043                                    NEARONE
001644: 26,6554           32041                           STORE    VACX
001645:
001646: 26,6555           76575                           RTB      1                                     #  PD SET TO AVOID CONFLICT WITH ARCTAN
001647: 26,6556           76526                           RTB      BDSU
001648: 26,6557           15643                                    SETPD6
001649: 26,6560           20504                                    ARCTAN
001650: 26,6561           15565                                    DP2(-2)
001651: 26,6562           32033                           STORE    26D                                   #  SA AT 26 SCALED AT 4PI
001652:
001653: 26,6563           42776                           DOT      0
001654: 26,6564           01323                                    WC
001655: 26,6565           00025                                    20D                                   #  TO PD TO SIGN AR IN NEXT EQUATION
001656:
001657: 26,6566           74172                           VMOVE*   4
001658: 26,6567           41753                           VXV      UNIT
001659: 26,6570           42633                           DOT      COMP
001660: 26,6571           63703                           TSLT     ACOS
001661: 26,6572           56656                           TSRT     SIGN
001662: 26,6573           02755                                    XSC,1                                 #  POINT.UNIT(WC*XSC,1)
001663: 26,6574           01323                                    WC
001664: 26,6575           00025                                    20D
001665: 26,6576           00002                                    1


001667: 26,6577           00002                                    1                                     #  AR TO THETAMAN, SCALED AT 4PI
001668: 26,6600           33455                           STORE    THETAMAN
001669:
001670: 26,6601           66776                           DSU      0
001671: 26,6602           01455                                    THETAMAN
001672: 26,6603           00033                                    26D
001673: 26,6604           34026                           STORE    10D,2                                 #  AR-SA
001674:
001675: 26,6605           76575                           RTB      1
001676: 26,6606           70776                           DAD
001677: 26,6607           15647                                    SETPD28
001678: 26,6610           01455                                    THETAMAN
001679: 26,6611           34030                           STORE    11D,2                                 #  AR+SA
001680:
001681: 26,6612           74175                           VMOVE*   1
001682: 26,6613           42723                           DOT      ABS
001683: 26,6614           02755                                    XSC,1                                 #  ABS(XSC,1.MP) TO 26 AT 2(2)
001684: 26,6615           00001                                    0
001685:
001686: 26,6616           65175                           ABS      1
001687: 26,6617           61176                           ACOS
001688: 26,6620           00003                                    2                                     #  ACOS(ABS(MP.UNITY)) TO 28
001689:
001690: 26,6621           47574                           NOLOD    2
001691: 26,6622           70663                           DAD      COS
001692: 26,6623           64716                           DMP      TSLT
001693: 26,6624           15557                                    30DEG
001694: 26,6625           00033                                    26D
001695: 26,6626           00002                                    1
001696: 26,6627           32021                           STORE    16D                                   #  COSB TO 16 AT 2(2)
001697:
001698: 26,6630           66773                           DSU      3
001699: 26,6631           65063                           ABS      COS
001700: 26,6632           64716                           DMP      TSLT
001701: 26,6633           65616                           BDSU     BPL
001702: 26,6634           15557                                    30DEG
001703: 26,6635           77777                                    -
001704: 26,6636           77777                                    -
001705: 26,6637           00002                                    1
001706: 26,6640           15571                                    C33
001707: 26,6641           14714                                    OVERYET                               #  IF C33-COSA POS
001708:
001709: 26,6642           76776                           ITC      0
001710: 26,6643           14201                                    NORMLIMS
001711:
001712: 26,6644           66775                           DSU      1
001713: 26,6645           73776                           BMN
001714: 26,6646           15571                                    C33
001715: 26,6647           00021                                    16D
001716: 26,6650           14673                                    ALLSHADE


001718: 26,6651           44176                           DMOVE*   0
001719: 26,6652           00030                                    11D,2                                 #  11D,2 TO PD FOR PROTECTION
001720:
001721: 26,6653           43776                           BPL      0
001722: 26,6654           01433                                    DTEMP1
001723: 26,6655           14666                                    11MANU
001724:
001725: 26,6656           43176                           SMOVE    0
001726: 26,6657           00007                                    6                                     #  NBL1 REPLACES AR-SA
001727: 26,6660           34026                           STORE    10D,2
001728:
001729: 26,6661           45176                           DMOVE    0
001730: 26,6662           34030                           STORE    11D,2                                 #  NOW REINSERT 11,2
001731:
001732: 26,6663           76776                           ITC      0
001733: 26,6664           14714                                    OVERYET
001734:
001735: 26,6665           43176        11MANU             SMOVE    0
001736: 26,6666           00010                                    7
001737: 26,6667           34030                           STORE    11D,2
001738:
001739: 26,6670           76776                           ITC      0
001740: 26,6671           14714                                    OVERYET
001741:
001742: 26,6672           43775        ALLSHADE           BPL      1
001743: 26,6673           41423                           LODON    DMOVE
001744: 26,6674           01433                                    DTEMP1
001745: 26,6675           14706                                    12MANU
001746: 26,6676           00007                                    6
001747: 26,6677           34026                           STORE    10D,2
001748:
001749: 26,6700           43176                           SMOVE    0
001750: 26,6701           00012                                    9D
001751: 26,6702           34030                           STORE    11D,2
001752:
001753: 26,6703           76776                           ITC      0
001754: 26,6704           14714                                    OVERYET
001755:
001756: 26,6705           43176        12MANU             SMOVE    0
001757: 26,6706           00011                                    8D
001758: 26,6707           34026                           STORE    10D,2
001759:
001760: 26,6710           43176                           SMOVE    0
001761: 26,6711           00010                                    7
001762: 26,6712           34030                           STORE    11D,2
001763:
001764: 26,6713           43175        OVERYET            SMOVE    1
001765: 26,6714           70636                           DAD      BZE
001766: 26,6715           00050                                    X2
001767: 26,6716           13141                                    DP2(-12)


001769: 26,6717           14731                                    FINISHUP
001770:
001771: 26,6720           43574                           TEST     2                                     #  ENDCHEK IS DONE TWICE, FOR THE
001772: 26,6721           53411                           AXC,1    SWITCH                                #  BEGINNING AND FOR THE END OF THE ARC
001773: 26,6722           76776                           ITC
001774: 26,6723           00051                                    BEGINFLG
001775: 26,6724           14731                                    FINISHUP
001776: 26,6725           00023                                    18D                                   #  -18 TO X1
001777: 26,6726           00051                                    BEGINFLG                              #  REMOVE BEGINFLG
001778: 26,6727           14355                                    ENDCHEK                               #  GO BACK, GET LIMITS FOR END OF ARC
001779:
001780: 26,6730           43175        FINISHUP           SMOVE    1
001781: 26,6731           47776                           BZE
001782: 26,6732           00050                                    X2
001783: 26,6733           15520                                    GETPTCH                               #  NO LIMITS DETECTED
001784:
001785: 26,6734           76575                           RTB      1
001786: 26,6735           41776                           VXV
001787: 26,6736           15651                                    SETPD20
001788: 26,6737           01477                                    XNB
001789: 26,6740           01367                                    XSC                                   #  XNB*XSC TO PD AT 20
001790:
001791: 26,6741           41775                           VXV      1
001792: 26,6742           42776                           DOT
001793: 26,6743           01323                                    WC
001794: 26,6744           01367                                    XSC
001795: 26,6745           00025                                    20D
001796: 26,6746           32023                           STORE    18D                                   #  (WC*XSC).(XNB*XSC) TO 18
001797:
001798: 26,6747           73173                           UNIT     3
001799: 26,6750           42633                           DOT      COMP
001800: 26,6751           63703                           TSLT     ACOS
001801: 26,6752           53672                           SIGN     TSRT
001802: 26,6753           77777                                    -
001803: 26,6754           01323                                    WC
001804: 26,6755           00002                                    1
001805: 26,6756           77777                                    -
001806: 26,6757           00002                                    1
001807: 26,6760           34032                           STORE    12D,2                                 #  SCALED AT 4PI
001808:
001809: 26,6761           43175                           SMOVE    1
001810: 26,6762           52565                           AXC,2    AXT,1
001811: 26,6763           00050                                    X2
001812: 26,6764           00001                                    0
001813: 26,6765           00001                                    0                                     #  0 INTO X2 AND X1
001814: 26,6766           32037                           STORE    30D                                   #  SAVE X2
001815:
001816: 26,6767           42175        22MANU             SMOVE*   1
001817: 26,6770           66776                           DSU
001818: 26,6771           00034                                    13D,2


001820: 26,6772           00015                                    12D
001821:
001822: 26,6773           47575        23MANU             NOLOD    1
001823: 26,6774           66616                           DSU      BPL
001824: 26,6775           15573                                    360DEG
001825: 26,6776           14774                                    23MANU
001826:
001827: 26,6777           47575        20MANU             NOLOD    1
001828: 26,7000           70756                           DAD      BMN
001829: 26,7001           15573                                    360DEG
001830: 26,7002           15000                                    20MANU
001831: 26,7003           34001                           STORE    0,1
001832:
001833: 26,7004           73575                           LXA,1    1
001834: 26,7005           62515                           INCR,2   INCR,1
001835: 26,7006           00047                                    X1
001836: 26,7007           77777                                    -1
001837: 26,7010           77776                                    -2
001838:
001839: 26,7011           43175                           SMOVE    1
001840: 26,7012           65756                           BDSU     BMN
001841: 26,7013           00050                                    X2
001842: 26,7014           00037                                    30D
001843: 26,7015           14770                                    22MANU
001844:
001845: 26,7016           70775                           DAD      1
001846: 26,7017           47776                           BZE
001847: 26,7020           00037                                    30D
001848: 26,7021           15567                                    DP2(-13)
001849: 26,7022           15333                                    EZCASE
001850:
001851: 26,7023           66775                           DSU      1
001852: 26,7024           73776                           BMN
001853: 26,7025           00005                                    4
001854: 26,7026           00001                                    0
001855: 26,7027           15106                                    30MANU
001856:
001857: 26,7030           66775                           DSU      1
001858: 26,7031           73776                           BMN
001859: 26,7032           00003                                    2
001860: 26,7033           00001                                    0
001861: 26,7034           15061                                    31MANU
001862:
001863: 26,7035           66775                           DSU      1
001864: 26,7036           73776                           BMN
001865: 26,7037           00003                                    2
001866: 26,7040           00005                                    4
001867: 26,7041           15434                                    SPLITMNU
001868:
001869: 26,7042           66775                           DSU      1


001871: 26,7043           73776                           BMN
001872: 26,7044           00007                                    6
001873: 26,7045           00001                                    0
001874: 26,7046           15520                                    GETPTCH
001875:
001876: 26,7047           43574                           TEST     2
001877: 26,7050           56732                           TSRT     DSU
001878: 26,7051           76776                           ITC
001879: 26,7052           00044                                    BACKFLAG                              #  (BACKFLAG DOWN MEANS DO BACKTEST
001880: 26,7053           15317                                    BACKTEST
001881: 26,7054           00001                                    0
001882: 26,7055           00002                                    1
001883: 26,7056           00007                                    6
001884: 26,7057           15204                                    40MANU
001885:
001886: 26,7060           66775        31MANU             DSU      1
001887: 26,7061           73776                           BMN
001888: 26,7062           00007                                    6
001889: 26,7063           00001                                    0
001890: 26,7064           15100                                    33MANU
001891:
001892: 26,7065           43574        333MANU            TEST     2
001893: 26,7066           70672                           DAD      TSRT
001894: 26,7067           66772                           DSU      ITC
001895: 26,7070           00044                                    BACKFLAG
001896: 26,7071           15317                                    BACKTEST
001897: 26,7072           00001                                    0
001898: 26,7073           00003                                    2
001899: 26,7074           00002                                    1
001900: 26,7075           00007                                    6
001901: 26,7076           15204                                    40MANU
001902:
001903: 26,7077           66775        33MANU             DSU      1
001904: 26,7100           73772                           BMN      ITC
001905: 26,7101           00007                                    6
001906: 26,7102           00003                                    2
001907: 26,7103           15066                                    333MANU
001908: 26,7104           15520                                    GETPTCH
001909:
001910: 26,7105           66775        30MANU             DSU      1
001911: 26,7106           73776                           BMN
001912: 26,7107           00003                                    2
001913: 26,7110           00001                                    0
001914: 26,7111           15131                                    35MANU
001915:
001916: 26,7112           66775                           DSU      1
001917: 26,7113           73776                           BMN
001918: 26,7114           00007                                    6
001919: 26,7115           00005                                    4
001920: 26,7116           15520                                    GETPTCH


001922:
001923: 26,7117           43574        38MANU             TEST     2
001924: 26,7120           56732                           TSRT     DSU
001925: 26,7121           76776                           ITC
001926: 26,7122           00044                                    BACKFLAG
001927: 26,7123           15317                                    BACKTEST
001928: 26,7124           00005                                    4
001929: 26,7125           00002                                    1
001930: 26,7126           00007                                    6
001931: 26,7127           15204                                    40MANU
001932:
001933: 26,7130           66775        35MANU             DSU      1
001934: 26,7131           73776                           BMN
001935: 26,7132           00003                                    2
001936: 26,7133           00005                                    4
001937: 26,7134           15151                                    36MANU
001938:
001939: 26,7135           66775                           DSU      1
001940: 26,7136           73776                           BMN
001941: 26,7137           00007                                    6
001942: 26,7140           00003                                    2
001943: 26,7141           15170                                    37MANU
001944:
001945: 26,7142           66775                           DSU      1
001946: 26,7143           43772                           BPL      ITC
001947: 26,7144           00007                                    6
001948: 26,7145           00001                                    0
001949: 26,7146           15120                                    38MANU
001950: 26,7147           15520                                    GETPTCH
001951:
001952: 26,7150           66775        36MANU             DSU      1
001953: 26,7151           73776                           BMN
001954: 26,7152           00007                                    6
001955: 26,7153           00005                                    4
001956: 26,7154           15176                                    366MANU
001957:
001958: 26,7155           43574        368MANU            TEST     2
001959: 26,7156           70672                           DAD      TSRT
001960: 26,7157           66772                           DSU      ITC
001961: 26,7160           00044                                    BACKFLAG
001962: 26,7161           15317                                    BACKTEST
001963: 26,7162           00005                                    4
001964: 26,7163           00003                                    2
001965: 26,7164           00002                                    1
001966: 26,7165           00007                                    6
001967: 26,7166           15204                                    40MANU
001968:
001969: 26,7167           66775        37MANU             DSU      1
001970: 26,7170           73772                           BMN      ITC
001971: 26,7171           00007                                    6
001972: 26,7172           00005                                    4


001974: 26,7173           15520                                    GETPTCH
001975: 26,7174           15120                                    38MANU
001976:
001977: 26,7175           66775        366MANU            DSU      1
001978: 26,7176           73772                           BMN      ITC
001979: 26,7177           00007                                    6
001980: 26,7200           00003                                    2
001981: 26,7201           15156                                    368MANU
001982: 26,7202           15520                                    GETPTCH
001983:
001984: 26,7203           47574        40MANU             NOLOD    2                                     #  ROLL IS IN MPAC,MPAC +1,SCALED AT 4PI
001985: 26,7204           66756                           DSU      BMN
001986: 26,7205           66772                           DSU      ITC
001987: 26,7206           15565                                    DP2(-2)
001988: 26,7207           15213                                    41MANU
001989: 26,7210           15565                                    DP2(-2)
001990: 26,7211           15225                                    42MANU
001991:
001992: 26,7212           47574        41MANU             NOLOD    2
001993: 26,7213           70616                           DAD      BPL
001994: 26,7214           70772                           DAD      ITC
001995: 26,7215           15573                                    360DEG
001996: 26,7216           15222                                    43MANU
001997: 26,7217           15565                                    DP2(-2)
001998: 26,7220           15225                                    42MANU
001999:
002000: 26,7221           47575        43MANU             NOLOD    1
002001: 26,7222           66776                           DSU
002002: 26,7223           15565                                    DP2(-2)
002003:
002004: 26,7224           47575        42MANU             NOLOD    1
002005: 26,7225           63776                           TSLT
002006: 26,7226           00002                                    1
002007: 26,7227           33455                           STORE    THETAMAN                              #  ROLL IN THETAMAN, SCALED AT 2PI
002008:
002009: 26,7230           43576                           TEST     0
002010: 26,7231           00045                                    ROLLFLAG                              #  IF ROLLFLAG ISNT ON
002011: 26,7232           15657                                    DONE                                  #  WE ARE DONE
002012:
002013: 26,7233           76776                           ITC      0
002014: 26,7234           15240                                    ROLLTEST                              #  SHORT WAY ROLL MAY HIT GIMBAL LOCK
002015:
002016: 26,7235           76776                           ITC      0
002017: 26,7236           15657                                    DONE
002018:
002019: 26,7237           76574        ROLLTEST           RTB      2
002020: 26,7240           41606                           VXV      VXV
002021: 26,7241           73176                           UNIT
002022: 26,7242           20265                                    FRESHPD
002023: 26,7243           01367                                    XSC


002025: 26,7244           01477                                    XNB
002026: 26,7245           01367                                    XSC                                   #  TEMP1 TO DP AT 0
002027:
002028: 26,7246           53774                           SIGN     2
002029: 26,7247           75606                           VXSC     VXV
002030: 26,7250           41753                           VXV      UNIT
002031: 26,7251           21043                                    NEARONE
002032: 26,7252           01371                                    XSC        +2
002033: 26,7253           01367                                    XSC
002034: 26,7254           15601                                    UNITY
002035: 26,7255           01367                                    XSC
002036:
002037: 26,7256           42775                           DOT      1
002038: 26,7257           63703                           TSLT     ACOS
002039: 26,7260           00001                                    0
002040: 26,7261           00007                                    6
002041: 26,7262           00002                                    1
002042: 26,7263           32021                           STORE    16D
002043:
002044: 26,7264           65175                           ABS      1
002045: 26,7265           66756                           DSU      BMN
002046: 26,7266           01455                                    THETAMAN
002047: 26,7267           00021                                    16D
002048: 26,7270           15316                                    ENDTST
002049:
002050: 26,7271           75174                           VMOVE    2
002051: 26,7272           41612                           VXV      DOT
002052: 26,7273           73776                           BMN
002053: 26,7274           77777                                    -
002054: 26,7275           77777                                    -
002055: 26,7276           01367                                    XSC
002056: 26,7277           15310                                    50MANU
002057:
002058: 26,7300           45175                           DMOVE    1
002059: 26,7301           43742                           BPL      DAD
002060: 26,7302           01455                                    THETAMAN
002061: 26,7303           15316                                    ENDTST
002062: 26,7304           21043                                    NEARONE
002063: 26,7305           33455                           STORE    THETAMAN
002064:
002065: 26,7306           40576                           ITCQ     0
002066:
002067: 26,7307           45175        50MANU             DMOVE    1
002068: 26,7310           73732                           BMN      DSU
002069: 26,7311           01455                                    THETAMAN
002070: 26,7312           15316                                    ENDTST
002071: 26,7313           21043                                    NEARONE
002072: 26,7314           33455                           STORE    THETAMAN
002073:
002074: 26,7315           40576        ENDTST             ITCQ     0
002075:


002077:
002078: 26,7316           72575        BACKTEST           LXA,2    1
002079: 26,7317           42576                           SWITCH
002080: 26,7320           00037                                    30D                                   #  RESET SAVED X2
002081: 26,7321           00044                                    BACKFLAG                              #  TURN BACKFLAG ON (DONT DO AGAIN)
002082:
002083: 26,7322           43176                           SMOVE    0
002084: 26,7323           00013                                    10D
002085: 26,7324           32015                           STORE    12D
002086:
002087: 26,7325           73575                           LXA,1    1
002088: 26,7326           67572                           SXA,1    ITC
002089: 26,7327           00014                                    11D
002090: 26,7330           00016                                    13D
002091: 26,7331           14731                                    FINISHUP
002092:
002093: 26,7332           66775        EZCASE             DSU      1
002094: 26,7333           73776                           BMN
002095: 26,7334           00003                                    2
002096: 26,7335           00001                                    0
002097: 26,7336           15520                                    GETPTCH                               #  NO ROLL REQ,D
002098:
002099: 26,7337           43574                           TEST     2
002100: 26,7340           56732                           TSRT     DSU
002101: 26,7341           76776                           ITC
002102: 26,7342           00044                                    BACKFLAG
002103: 26,7343           15317                                    BACKTEST
002104: 26,7344           00001                                    0
002105: 26,7345           00002                                    1
002106: 26,7346           00003                                    2
002107: 26,7347           15204                                    40MANU
002108:
002109: 26,7350           47575        180CASE            NOLOD    1
002110: 26,7351           70616                           DAD      BPL
002111: 26,7352           15653                                    COSONE
002112: 26,7353           14033                                    NOT179
002113:
002114: 26,7354           42774                           DOT      2
002115: 26,7355           65132                           ABS      DSU
002116: 26,7356           43776                           BPL
002117: 26,7357           01367                                    XSC
002118: 26,7360           15601                                    UNITY
002119: 26,7361           15653                                    COSONE
002120: 26,7362           15374                                    ZEROWC
002121:
002122: 26,7363           41775                           VXV      1
002123: 26,7364           41753                           VXV      UNIT
002124: 26,7365           01367                                    XSC
002125: 26,7366           15601                                    UNITY
002126: 26,7367           01367                                    XSC
002127: 26,7370           33323                           STORE    WC


002129: 26,7371           76776                           ITC      0
002130: 26,7372           14040                                    ACCEPTWC
002131:
002132: 26,7373           75176        ZEROWC             VMOVE    0
002133: 26,7374           01403                                    ZSC
002134: 26,7375           33323                           STORE    WC
002135:
002136: 26,7376           76776                           ITC      0
002137: 26,7377           14040                                    ACCEPTWC
002138:
002139: 26,7400           41775        NOGIMTST           VXV      1
002140: 26,7401           73176                           UNIT
002141: 26,7402           01367                                    XSC
002142: 26,7403           01411                                    XSCD
002143: 26,7404           33323                           STORE    WC
002144:
002145: 26,7405           76776                           ITC      0
002146: 26,7406           15520                                    GETPTCH
002147:
002148: 26,7407           65175        DONE1              ABS      1
002149: 26,7410           66756                           DSU      BMN
002150: 26,7411           01455                                    THETAMAN
002151: 26,7412           15553                                    1.5DEG
002152: 26,7413           15520                                    GETPTCH
002153:
002154: 26,7414           53775                           SIGN     1
002155: 26,7415           75776                           VXSC
002156: 26,7416           21043                                    NEARONE
002157: 26,7417           01455                                    THETAMAN
002158: 26,7420           01367                                    XSC
002159: 26,7421           33323                           STORE    WC
002160:
002161: 26,7422           65176                           ABS      0
002162: 26,7423           01455                                    THETAMAN
002163: 26,7424           33455                           STORE    THETAMAN
002164:
002165: 26,7425           77576                           EXIT     0
002166:
002167: 26,7426           03440                           TC       FLAG2UP
002168: 26,7427           04000                           OCT      04000                                 #  SET ROLLFLAG
002169:
002170: 26,7430           04000                           TC       INTPRET
002171:
002172: 26,7431           44576                           ITCI     0                                     #  EXIT FOR ROLL THAT AVOIDS GIMBAL LOCK IN
002173: 26,7432           01472                                    EXITCADR                              #  SUBSEQUENT PITCH/YAW MANEUVER
002174:
002175: 26,7433           43173        SPLITMNU           SMOVE    3
002176: 26,7434           65132                           ABS      DSU
002177: 26,7435           67605                           BHIZ     LODON
002178: 26,7436           43016                           SMOVE    BPL


002180: 26,7437           00051                                    S1
002181: 26,7440           15567                                    DP2(-13)
002182: 26,7441           15502                                    SPLIT1
002183: 26,7442           00051                                    S1
002184: 26,7443           15460                                    SPLIT3
002185:
002186: 26,7444           66775        SPLIT2             DSU      1
002187: 26,7445           73776                           BMN
002188: 26,7446           00007                                    6
002189: 26,7447           00001                                    0
002190: 26,7450           15507                                    SPLIT5
002191:
002192: 26,7451           56775                           TSRT     1
002193: 26,7452           66772                           DSU      ITC
002194: 26,7453           00001                                    0
002195: 26,7454           00002                                    1
002196: 26,7455           00007                                    6
002197: 26,7456           15204                                    40MANU
002198:
002199: 26,7457           66775        SPLIT3             DSU      1
002200: 26,7460           43776                           BPL
002201: 26,7461           00007                                    6
002202: 26,7462           00005                                    4
002203: 26,7463           15472                                    SPLIT4
002204:
002205: 26,7464           66775                           DSU      1
002206: 26,7465           43776                           BPL
002207: 26,7466           00007                                    6
002208: 26,7467           00003                                    2
002209: 26,7470           15507                                    SPLIT5
002210:
002211: 26,7471           70774        SPLIT4             DAD      2
002212: 26,7472           56732                           TSRT     DSU
002213: 26,7473           76776                           ITC
002214: 26,7474           00003                                    2
002215: 26,7475           00005                                    4
002216: 26,7476           00002                                    1
002217: 26,7477           00007                                    6
002218: 26,7500           15204                                    40MANU
002219:
002220: 26,7501           43175        SPLIT1             SMOVE    1
002221: 26,7502           43772                           BPL      ITC
002222: 26,7503           00051                                    S1
002223: 26,7504           15445                                    SPLIT2
002224: 26,7505           15460                                    SPLIT3
002225:
002226: 26,7506           76776        SPLIT5             ITC      0
002227: 26,7507           15530                                    CALCPTCH
002228:
002229: 26,7510           45175                           DMOVE    1


002231: 26,7511           56776                           TSRT
002232: 26,7512           01455                                    THETAMAN
002233: 26,7513           00002                                    1
002234: 26,7514           33455                           STORE    THETAMAN
002235:
002236: 26,7515           76776                           ITC      0
002237: 26,7516           15522                                    GETPTCH2
002238: 26,7517           76776        GETPTCH            ITC      0
002239: 26,7520           15530                                    CALCPTCH
002240:
002241: 26,7521           77576        GETPTCH2           EXIT     0
002242:
002243: 26,7522           03452                           TC       FLAG2DWN
002244: 26,7523           04000                           OCT      04000                                 #  REMOVE ROLLFLAG
002245:
002246: 26,7524           04000                           TC       INTPRET
002247:
002248: 26,7525           44576                           ITCI     0
002249: 26,7526           01472                                    EXITCADR                              #  EXIT FOR PITCH/YAW PORTION OF MANEUVER
002250:
002251: 26,7527           42775        CALCPTCH           DOT      1
002252: 26,7530           63703                           TSLT     ACOS
002253: 26,7531           01367                                    XSC
002254: 26,7532           01411                                    XSCD
002255: 26,7533           00002                                    1
002256: 26,7534           33455                           STORE    THETAMAN
002257:
002258: 26,7535           40576                           ITCQ     0
002259:
002260: 26,7536           03062                           TC       CCSHOLE
002261: 26,7537           03062                           TC       CCSHOLE
002262:
002263: 26,7540           07772 14276  COS3               2DEC     .249657385                            #  SCALED AT 2(4)
002264: 26,7542           16203 04007  COS27              2DEC     .445503260                            #  SCALED AT 2(1)
002265: 26,7544           07207 02705  COS63              2DEC     .226995250                            #  SCALED AT 2(1)
002266: 26,7546           15666 17272  COS30              2DEC     .433012700                            #  SCALED AT 2(1)
002267: 26,7550           30506 22276  1/TAN33            2DEC     .76993250                             #  SCALED AT 2(1)
002268: 26,7552           00104 10421  1.5DEG             2DEC     .004166666                            #  SCALED AT 2PI
002269: 26,7554           02631 23146  31.5DEG            2DEC     .0875                                 #  SCALED AT 2PI
002270: 26,7556           02525 12524  30DEG              2DEC     .08333333                             #  SCALED AT 2PI
002271: 26,7560           00210 21041  3DEG               2DEC     .00833333                             #  SCALED AT 2PI


002273: 26,7562           04000 00000  90DEG              2DEC     0.125                                 #  SCALED AT 4PI
002274: 26,7564           10000 00000  DP2(-2)            2DEC     0.25
002275: 26,7566  26,7564               SIN30              EQUALS   DP2(-2)
002276: 26,7566           00002 00000  DP2(-13)           2OCT     0000200000
002277: 26,7570           06553 06165  C33                2DEC     .209667643
002278: 26,7572           20000 00000  UNITX              2DEC     0.5
002279: 26,7574           00000 00000  ZEROVEC            2DEC     0.0
002280: 26,7576           00000 00000                     2DEC     0.0
002281: 26,7600           00000 00000  UNITY              2DEC     0.0
002282: 26,7602           20000 00000                     2DEC     0.5
002283: 26,7604           00000 00000                     2DEC     0.0
002284: 26,7606           15326 14356  SCNBMAT            2DEC     0.419335300
002285: 26,7610           00000 00000                     2DEC     0.0
002286: 26,7612           67222 52116                     2DEC     -.272319500
002287: 26,7614           00000 00000                     2DEC     0.0
002288: 26,7616           20000 00000                     2DEC     0.5
002289: 26,7620           00000 00000                     2DEC     0.0
002290: 26,7622           10555 25661                     2DEC     0.272319500
002291: 26,7624           00000 00000                     2DEC     0.0
002292: 26,7626           15326 14356                     2DEC     0.419335300
002293: 26,7630           00133 00327  DTH                2DEC     0.005555                              #  2.0 DEG SCALED AT 2PI
002294: 26,7632           00243 32703                     2DEC     0.01                                  #  3.6 DEG
002295: 26,7634           00525 12374                     2DEC     0.020833                              #  7.5 DEG
002296:
002297:
002298: 26,7636           33540        SETPD16            CAF      SIXTN
002299: 26,7637           60067                           AD       FIXLOC
002300: 26,7640           50123                           TS       PUSHLOC


002302: 26,7641           04703                           TC       RE-ENTER
002303:
002304: 26,7642           34475        SETPD6             CAF      SIX
002305: 26,7643           07637                           TC       SETPD16    +1
002306:
002307: 26,7644           33542        SETPD18            CAF      EIGHTN
002308: 26,7645           07637                           TC       SETPD16    +1
002309:
002310: 26,7646           33554        SETPD28            CAF      TWENTY8
002311: 26,7647           07637                           TC       SETPD16    +1
002312:
002313: 26,7650           33544        SETPD20            CAF      TWENTY0
002314: 26,7651           07637                           TC       SETPD16    +1
002315:
002316: 26,7652           07777 14256  COSONE             2DEC     .2499625                              #  SCALED AT 2(4)
002317: 26,7654           07737 27116  COSSIX             2DEC     .2480300                              #  SCALED AT 2(4)
002318: 26,7656  26,7572               180DEG             EQUALS   UNITX                                 #  SCALED AT 2PI.
002319: 26,7656  26,7572               DP2(-1)            EQUALS   UNITX
002320: 26,7656  26,7572               360DEG             EQUALS   UNITX                                 #  SCALED AT 4PI.
002321: 26,7656  26,7572               CFACTOR            EQUALS   UNITX
002322:
002323: 26,7656           42774        DONE               DOT      2
002324: 26,7657           70616                           DAD      BPL
002325: 26,7660           41406                           LODON    VXV
002326: 26,7661           01367                                    XSC
002327: 26,7662           01411                                    XSCD
002328: 26,7663           15655                                    COSSIX
002329: 26,7664           15410                                    DONE1
002330: 26,7665           15601                                    UNITY
002331: 26,7666           01477                                    XNB
002332:
002333: 26,7667           53775                           SIGN     1
002334: 26,7670           75753                           VXSC     UNIT
002335: 26,7671           21043                                    NEARONE
002336: 26,7672           01501                                    XNB        +2
002337: 26,7673           33323                           STORE    WC
002338:
002339: 26,7674           45175                           DMOVE    1
002340: 26,7675           56776                           TSRT
002341: 26,7676           15557                                    30DEG
002342: 26,7677           00002                                    1
002343: 26,7700           33455                           STORE    THETAMAN
002344:
002345: 26,7701           76776                           ITC      0
002346: 26,7702           15522                                    GETPTCH2
002347:
002348: 26,7703           14250 00520  R280K              2DEC     6.463509   E6         B-24


002350: 26,7705           14313 27520  R400K              2DEC     6.500085   E6         B-24
002351: 26,7707           00134 05075  DP.36              2DEC     .36        B-6

End of include-file POWERED_FLIGHT_SUBROUTINES.agc.  Parent file is MAIN.agc


