
Source Code


000002:                                                                                                  ## Copyright:   Public domain.
000003:                                                                                                  ## Filename:    PRELAUNCH_ALIGNMENT_PROGRAM.agc
000004:                                                                                                  ## Purpose:     Part of the source code for Solarium build 55. This
000005:                                                                                                  ##              is for the Command Module's (CM) Apollo Guidance
000006:                                                                                                  ##              Computer (AGC), for Apollo 6.
000007:                                                                                                  ## Assembler:   yaYUL --block1
000008:                                                                                                  ## Contact:     Jim Lawton <jim DOT lawton AT gmail DOT com>
000009:                                                                                                  ## Website:     www.ibiblio.org/apollo/index.html
000010:                                                                                                  ## Page Scans:  www.ibiblio.org/apollo/ScansForConversion/Solarium055/
000011:                                                                                                  ## Mod history: 2009-10-05 JL   Created.
000012:                                                                                                  ##              2009-10-30 JL   Fixed filename comment.
000013:                                                                                                  ##              2016-08-20 RSB  Resolved Jim's uncertainty about TP.
000014:                                                                                                  ##              2016-08-23 RSB  Typos.
000015:                                                                                                  ##              2016-12-28 RSB  Proofed comment text using octopus/ProoferComments,
000016:                                                                                                  ##                              and fixed errors found.
000017:                                                                                                  ##              2021-05-30 ABS  Fixed capitalization of a page marker comment.
000018:


000020:
000021:                                                                                                  #  THE PRELAUNCH ALIGNMENT PROGRAM CONSISTS OF TWO PARTS- VERTICAL ERECTION AND GYROCOMPASSING. IN THE FIRST CASE
000022:                                                                                                  #  THE Z PIPA INPUTS ARE USED TO CONTROL THE Y GYRO IN SUCH A WAY THAT THESE INPUTS ARE NULLED. A SIMILAR SIT-
000023:                                                                                                  #  UATION APPLIES TO THE Y PIPA INPUTS AND THE Z GYRO.IN THE GYROCOMPASSING CASE, THE Y PIPA INPUTS ARE USED IN
000024:                                                                                                  #  EXACTLY THE SAME FASHION AS IN VERTICAL ERECTION. THE Z PIPA INPUTS ARE SPLIT BETWEEN THE Y GYRO TO HOLD THE
000025:                                                                                                  #  VERTICAL AND THE X GYRO TO POINT THE Z AXIS ALONG SOME DESIRED AZIMUTH.
000026:
000027:
000028:
000029:                                                                                                  #  WHILE PRELAUNCH IS ACTIVE IT STAYS IN THE EXECUTIVE AND USES THE SLEEP/WAKE FEATURES. BY THIS MEANS MOST
000030:                                                                                                  #  ERASABLE USAGE IS CONFINED TO A VAC AREA. THE ASSIGNMENT IS AS FOLLOWS-
000031:
000032: 30,6252                        SINLAM             =        34D                                   #  SIN OF LATITUDE
000033: 30,6252                        COSLAM             =        36D                                   #  COSINE OF LATITUDE
000034: 30,6252                        SINAZ              =        2                                     #  SIN OF AZIMUTH
000035: 30,6252                        COSAZ              =        4                                     #  COSINE OF AZIMUTH
000036: 21,6000                                           SETLOC   42000
000037:
000038: 21,6000           04000        TOP1               TC       INTPRET
000039:
000040: 21,6001           45175                           DMOVE    1                                     #  THIS START DISPLAYS ALL INPUTS FOR CHEK
000041: 21,6002           76575                           RTB      EXIT
000042: 21,6003           01317                                    AZIMUTH
000043: 21,6004           20325                                    1STO2S
000044:
000045: 21,6005           03302                           TC       GRABDSP
000046: 21,6006           03310                           TC       PREGBSY
000047:
000048: 21,6007           30115                           XCH      MPAC
000049: 21,6010           50616                           TS       DSPTEM1
000050: 21,6011           35501                           CAF      ZERO
000051: 21,6012           50617                           TS       DSPTEM1    +1
000052:
000053: 21,6013           07542                           TC       CHECKNV                               #  DISPLAY AZIMUTH
000054: 21,6014           00661                           OCT      00661                                 #  (N.B. CAN NOT BE MODIFIED    ...ALK)
000055:
000056: 21,6015           06745                           TC       PRELEXIT   -1
000057:
000058: 21,6016           04000                           TC       INTPRET
000059:
000060: 21,6017           63776                           TSLT     0
000061: 21,6020           01315                                    LATITUDE
000062: 21,6021           00003                                    2
000063: 21,6022           32620                           STORE    DSPTEM1    +1
000064:
000065: 21,6023           45175                           DMOVE    1
000066: 21,6024           76575                           RTB      EXIT
000067: 21,6025           01353                                    VAZ
000068: 21,6026           20325                                    1STO2S
000069:
000070: 21,6027           30115                           XCH      MPAC


000072: 21,6030           50616                           TS       DSPTEM1
000073:
000074: 21,6031           07542                           TC       CHECKNV                               #  DISPLAY VEHICLE AZIMUTH, LATITUDE
000075: 21,6032           00661                           OCT      00661                                 #  (SEE N.B. ABOVE)
000076:
000077: 21,6033           06745                           TC       PRELEXIT   -1
000078:
000079: 21,6034           03362                           TC       FREEDSP                               #  DONE WITH DSKY.
000080:
000081: 21,6035           04000                           TC       INTPRET
000082:
000083: 21,6036           45175        TOP3               DMOVE    1                                     #  COMPUTES GIMBAL ANGLES
000084: 21,6037           76565                           RTB      AXT,1
000085: 21,6040           15617                                    SCNBMAT    +8D
000086: 21,6041           20271                                    ZEROVAC
000087: 21,6042           00023                                    18D
000088: 21,6043           32001                           STORE    0
000089:
000090: 21,6044           55176                           COS      0
000091: 21,6045           01353                                    VAZ
000092: 21,6046           32011                           STORE    8D
000093:
000094: 21,6047           47576                           NOLOD    0
000095: 21,6050           32021                           STORE    16D
000096:
000097: 21,6051           57176                           SIN      0
000098: 21,6052           01353                                    VAZ
000099: 21,6053           32017                           STORE    14D
000100:
000101: 21,6054           47575                           NOLOD    1
000102: 21,6055           47065                           COMP     AST,1
000103: 21,6056           00007                                    6
000104: 21,6057           32013                           STORE    10D
000105:
000106: 21,6060           74175        TOP33              VMOVE*   1
000107: 21,6061           51622                           VXM      VSLT
000108: 21,6062           33461                                    SCNBMAT    +18D,1
000109: 21,6063           00001                                    0
000110: 21,6064           00002                                    1
000111: 21,6065           37241                           STORE    XNB        +18D,1
000112:
000113: 21,6066           51576                           TIX,1    0
000114: 21,6067           02061                                    TOP33
000115:
000116: 21,6070           76776                           ITC      0
000117: 21,6071           03446                                    MAKEXSM
000118:
000119: 21,6072           76776                           ITC      0
000120: 21,6073           04644                                    CALCGA


000122: 21,6074           47575                           NOLOD    1
000123: 21,6075           77176                           TP
000124: 21,6076           33323                           STORE    PRELXGA
000125:
000126: 21,6077           77576                           EXIT     0
000127:
000128:                                                                                                  #  ENTER AT TOP2 IF GIMBAL ANGLES, AZIMUTH, LATITUDE ALREADY KEYED IN
000129:
000130:
000131:
000132: 21,6100           05654        TOP2               TC       BANKCALL                              #  GO AND START CDU ZEROING
000133: 21,6101           30000                           CADR     IMUZERO
000134:
000135: 21,6102           02362                           TC       NEWMODE
000136: 21,6103           00001                           OCT      01                                    #  INITIALIZATION.
000137:
000138: 21,6104           33543                           CAF      NINETEEN                              #  INITIALIZE ERASABLE MEMORY TO ZEROS
000139: 21,6105           31446        ZEROS1             XCH      THETAY
000140: 21,6106           35501                           CAF      ZERO
000141: 21,6107           21446                           INDEX    THETAY
000142: 21,6110           51356                           TS       FILTER
000143: 21,6111           11446                           CCS      THETAY
000144: 21,6112           06105                           TC       ZEROS1
000145:
000146: 21,6113           33533                           CAF      ELEVEN
000147: 21,6114           31446        ZEROS2             XCH      THETAY
000148: 21,6115           35501                           CAF      ZERO
000149: 21,6116           21446                           INDEX    THETAY
000150: 21,6117           51446                           TS       THETAY
000151: 21,6120           11446                           CCS      THETAY
000152: 21,6121           06114                           TC       ZEROS2
000153:
000154: 21,6122           33571                           CAF      SIXHNDRD                              #  INITIALIZE FOR 5 MIN VERTICAL
000155: 21,6123           51320                           TS       GYROCSW
000156:
000157: 21,6124           05654                           TC       BANKCALL                              #  INITIALIZATION COMPLETE SO STALL
000158: 21,6125           30331                           CADR     IMUSTALL
000159: 21,6126           06746                           TC       PRELEXIT
000160:
000161:
000162:
000163: 21,6127           41322                           CS       PRELXGA                               #  LOAD DESIRED CDU ANGLES.
000164: 21,6130           40000                           COM
000165: 21,6131           50700                           TS       THETAD
000166: 21,6132           41323                           CS       PRELYGA
000167: 21,6133           40000                           COM
000168: 21,6134           50701                           TS       THETAD     +1
000169: 21,6135           41324                           CS       PRELZGA
000170: 21,6136           40000                           COM
000171: 21,6137           50702                           TS       THETAD     +2


000173: 21,6140           02276                           TC       PHASCHNG                              #  GO INTO COARSE ALIGN PHASE.
000174: 21,6141           02103                           OCT      02103                                 #  3.17 RESTART.
000175:
000176: 21,6142           05654        REPL11             TC       BANKCALL
000177: 21,6143           30104                           CADR     IMUCOARS
000178:
000179: 21,6144           05654                           TC       BANKCALL                              #  NOTHING TO DO BUT SPEEP
000180: 21,6145           30331                           CADR     IMUSTALL
000181: 21,6146           06746                           TC       PRELEXIT
000182:
000183:
000184:
000185: 21,6147           02276        STARTPL2           TC       PHASCHNG                              #  START FINE ALIGN - INITIALIZATION PHASE.
000186: 21,6150           02203                           OCT      02203                                 #  3.18 RESTART.
000187:
000188: 21,6151           05654        REPL12             TC       BANKCALL
000189: 21,6152           30143                           CADR     IMUFINE
000190:
000191: 21,6153           02676                           TC       READTIME
000192: 21,6154           40572                           CS       RUPTSTOR
000193: 21,6155           51370                           TS       PREVTIME
000194: 21,6156           40573                           CS       RUPTSTOR   +1
000195: 21,6157           51371                           TS       PREVTIME   +1
000196: 21,6160           20016                           RELINT
000197:
000198: 21,6161           05654                           TC       BANKCALL                              #  SLEEP
000199: 21,6162           30331                           CADR     IMUSTALL
000200: 21,6163           06746                           TC       PRELEXIT
000201:
000202:
000203:
000204: 21,6164           02362                           TC       NEWMODE                               #  SET MAJOR MODE TO VERTICAL ERECTION
000205: 21,6165           00005                           OCT      5                                     #  (COUNTING)
000206:
000207: 21,6166           35501                           CAF      ZERO
000208: 21,6167           51332                           TS       INFLANG
000209: 21,6170           51333                           TS       INFLANG    +1
000210: 21,6171           51334                           TS       INFLANG    +2
000211: 21,6172           51335                           TS       INFLANG    +3
000212: 21,6173           51336                           TS       INFLANG    +4
000213: 21,6174           51337                           TS       INFLANG    +5
000214: 21,6175           50045                           TS       PIPAY                                 #  SET ALL PIPAS TO ZERO
000215: 21,6176           50046                           TS       PIPAZ
000216: 21,6177           50044                           TS       PIPAX
000217:
000218: 21,6200           33532                           CAF      NINE
000219: 21,6201           51321                           TS       PRELTEMP
000220:
000221: 21,6202           37011                           CAF      PLPIPADT                              #  SET UP DELTA TIME FOR IMU COMPENSATION.
000222: 21,6203           50755                           TS       1/PIPADT


000224: 21,6204           20017                           INHINT
000225: 21,6205           37002                           CAF      PRELDT                                #  SET WAITLIST TO WAKE JOB
000226: 21,6206           02173                           TC       WAITLIST
000227: 21,6207           42211                           CADR     PRELALTS
000228:
000229: 21,6210           02124                           TC       ENDOFJOB
000230:


000232:
000233:                                                                                                  #        PRELAUNCH WAITLIST TASK - EXECUTED EVERY .5 SEC. IN LOOP.
000234:
000235: 21,6211           36264        PRELALTS           CAF      PIPCAD21
000236: 21,6212           05750                           TC       ISWCALL
000237:
000238: 21,6213           33544                           CAF      TWENTY0
000239: 21,6214           02312                           TC       NEWPHASE
000240: 21,6215           00003                           OCT      3
000241:
000242: 21,6216           40036        REDO3.20           CS       TIME1
000243: 21,6217           50665                           TS       TBASE3
000244:
000245: 21,6220           35503                           CAF      TWO
000246: 21,6221           51035                           TS       PIPAGE
000247:
000248: 21,6222           30006                           XCH      IN2                                   #  TEST IN2 FOR GRR OR LIFT-OFF
000249: 21,6223           30006                           XCH      IN2
000250: 21,6224           77017                           MASK     BITS56
000251: 21,6225           10000                           CCS      A
000252: 21,6226           06242                           TC       PRELTERM
000253:
000254: 21,6227           34515                           CAF      BIT2                                  #  CHECK IF LIFT-OFF HAS OCCURRED
000255: 21,6230           70646                           MASK     FLAGWRD1
000256: 21,6231           10000                           CCS      A
000257: 21,6232           06242                           TC       PRELTERM                              #  IT HAS. TERMINATE PRELAUNCH
000258:
000259: 21,6233           37002                           CAF      PRELDT                                #  SELF-SUSTAINING WAITLIST CALL
000260: 21,6234           02173                           TC       WAITLIST
000261: 21,6235           42211                           CADR     PRELALTS
000262:
000263: 21,6236           34501        NOPLWAIT           CAF      PRIO20
000264: 21,6237           02046                           TC       FINDVAC
000265: 21,6240           42270                           CADR     PRAWAKE
000266:
000267: 21,6241           02256                           TC       TASKOVER                              #  RESUME
000268:
000269: 21,6242           40573        PRELTERM           CS       RUPTSTOR   +1                         #  N.B. READTIME IS DONE IN PIPASR ABOVE
000270: 21,6243           51467                           TS       TIME1GR
000271: 21,6244           40572                           CS       RUPTSTOR
000272: 21,6245           51466                           TS       TIME2GR
000273:
000274: 21,6246           41467                           CS       TIME1GR
000275: 21,6247           50667                           TS       TBASE5
000276:
000277: 21,6250           34516                           CAF      ONE
000278: 21,6251           02312                           TC       NEWPHASE
000279: 21,6252           00005                           OCT      00005
000280:
000281: 21,6253           10000                           CCS      A
000282: 21,6254           06236                           TC       NOPLWAIT


000284: 21,6255           06256                           TC       +1
000285:
000286: 21,6256           37014                           CAF      2SEC21                                #  CALL READACCS IN 2 SECS
000287: 21,6257           02173                           TC       WAITLIST
000288: 21,6260           65152                           CADR     READACCS
000289:
000290: 21,6261           06236                           TC       NOPLWAIT
000291:
000292: 21,6262           36265        REPRELAL           CAF      REPIP21
000293: 21,6263           06212                           TC       PRELALTS   +1
000294:
000295: 21,6264           61313        PIPCAD21           CADR     PIPASR
000296: 21,6265           61364        REPIP21            CADR     REPIPASR
000297:


000299:
000300: 21,6266           07223        REDO3.21           TC       PRLRSTOR
000301: 21,6267           06301                           TC       RE3.21
000302:
000303: 21,6270           07174        PRAWAKE            TC       PRLSAVE
000304:
000305: 21,6271           10654                           CCS      PHASE5                                #  CHECK IF GRR HAS OCCURED.
000306: 21,6272           33543                           CAF      NINETEEN                              #  3.19 RESTART.
000307: 21,6273           06275                           TC       +2
000308: 21,6274           33545                           CAF      TWENTY1                               #  3.21 RESTART.
000309: 21,6275           02312                           TC       NEWPHASE
000310: 21,6276           00003                           OCT      3
000311:
000312: 21,6277           05654                           TC       BANKCALL
000313: 21,6300           31017                           CADR     1/PIPA
000314:
000315: 21,6301           04000        RE3.21             TC       INTPRET
000316:
000317: 21,6302           43176                           SMOVE    0                                     #  ZERO TO THEAT-SOUTH
000318: 21,6303           03005                                    ZEROPR
000319: 21,6304           33455                           STORE    THETASTH
000320:
000321: 21,6305           47576                           NOLOD    0
000322: 21,6306           33457                           STORE    THETAE                                #  ZERO TO THETA EAST
000323:
000324: 21,6307           76575                           RTB      1
000325: 21,6310           57176                           SIN
000326: 21,6311           20271                                    ZEROVAC
000327: 21,6312           01315                                    LATITUDE
000328: 21,6313           32043                           STORE    SINLAM
000329:
000330: 21,6314           55176                           COS      0
000331: 21,6315           01315                                    LATITUDE
000332: 21,6316           32045                           STORE    COSLAM
000333:
000334: 21,6317           43175                           SMOVE    1
000335: 21,6320           66776                           DSU
000336: 21,6321           03001                                    90DEGAZ
000337: 21,6322           01317                                    AZIMUTH
000338:
000339: 21,6323           57176                           SIN      0
000340: 21,6324           00001                                    0
000341: 21,6325           32003                           STORE    SINAZ
000342:
000343: 21,6326           55176                           COS      0
000344: 21,6327           32005                           STORE    COSAZ
000345:
000346: 21,6330           77576                           EXIT     0
000347:
000348: 21,6331           10654                           CCS      PHASE5                                #  CHECK IF GRR HAS OCCURRED
000349: 21,6332           07032                           TC       PRELTER1


000351: 21,6333           06334                           TC       +1
000352:
000353: 21,6334           02346                           TC       CHECKMM                               #  CHECK IF VERTICAL ERECTION (UNCONDIT.)
000354: 21,6335           00005                           OCT      5
000355: 21,6336           06340                           TC       +2
000356: 21,6337           06451                           TC       NOGYROCM
000357:
000358: 21,6340           02346                           TC       CHECKMM                               #  CHECK IF VERTICAL ERECTION (UNCONDIT.)
000359: 21,6341           00006                           OCT      6
000360: 21,6342           06344                           TC       +2
000361: 21,6343           06457                           TC       TJL
000362:
000363: 21,6344           02346        DOGYROC            TC       CHECKMM                               #  CHECK IF OPTICAL VERIFICATION
000364: 21,6345           00003                           OCT      3
000365: 21,6346           06352                           TC       DOGYROC1
000366:
000367: 21,6347           04000        JSTERTHR           TC       INTPRET
000368:
000369: 21,6350           76776                           ITC      0
000370: 21,6351           02360                                    EARTHRR
000371:
000372: 21,6352           02362        DOGYROC1           TC       NEWMODE
000373: 21,6353           00002                           OCT      2
000374:
000375: 21,6354           04000        DOGYROC2           TC       INTPRET
000376:
000377: 21,6355           76776                           ITC      0
000378: 21,6356           02575                                    GYROCOM
000379:
000380: 21,6357           76776        EARTHRR            ITC      0
000381: 21,6360           02515                                    EARTHRAT
000382:
000383: 21,6361           45176        ENDOFPR            DMOVE    0
000384: 21,6362           01465                                    PIPTIME
000385: 21,6363           33371                           STORE    PREVTIME
000386:
000387: 21,6364           77576                           EXIT     0
000388:
000389: 21,6365           11321                           CCS      PRELTEMP
000390: 21,6366           06436                           TC       JUMPY
000391:
000392: 21,6367           10764                           CCS      LGYRO                                 #  IF BUSY GO AROUND LOOP AGAIN
000393: 21,6370           06437                           TC       JUMPY      +1                         #  WAIT TIL NEXT TIME.  PRELTEM = 0 STILL.
000394:
000395: 21,6371           35501        PTORQUE            CAF      ZERO                                  #  INITIALIZE TORQUING REGISTERS AND RESET
000396: 21,6372           31452                           XCH      THETAX
000397: 21,6373           61333                           AD       INFLANG    +1
000398: 21,6374           51341                           TS       GYROANG    +1
000399: 21,6375           35501                           CAF      ZERO
000400: 21,6376           61332                           AD       INFLANG


000402: 21,6377           51340                           TS       GYROANG
000403:
000404:
000405:
000406: 21,6400           35501                           CAF      ZERO
000407: 21,6401           31446                           XCH      THETAY
000408: 21,6402           61335                           AD       INFLANG    +3
000409: 21,6403           51343                           TS       GYROANG    +3
000410: 21,6404           35501                           CAF      ZERO
000411: 21,6405           61334                           AD       INFLANG    +2
000412: 21,6406           51342                           TS       GYROANG    +2
000413:
000414: 21,6407           35501                           CAF      ZERO
000415: 21,6410           31450                           XCH      THETAZ
000416: 21,6411           61337                           AD       INFLANG    +5
000417: 21,6412           51345                           TS       GYROANG    +5
000418: 21,6413           35501                           CAF      ZERO
000419: 21,6414           61336                           AD       INFLANG    +4
000420: 21,6415           51344                           TS       GYROANG    +4
000421:
000422: 21,6416           35501                           CAF      ZERO
000423: 21,6417           51332                           TS       INFLANG
000424: 21,6420           51333                           TS       INFLANG    +1
000425: 21,6421           51334                           TS       INFLANG    +2
000426: 21,6422           51335                           TS       INFLANG    +3
000427: 21,6423           51336                           TS       INFLANG    +4
000428: 21,6424           51337                           TS       INFLANG    +5
000429:
000430: 21,6425           33532                           CAF      NINE
000431: 21,6426           51321                           TS       PRELTEMP
000432:
000433: 21,6427           02276                           TC       PHASCHNG
000434: 21,6430           02603                           OCT      02603
000435:
000436: 21,6431           20017                           INHINT                                         #  SET UP TORQUING JOB
000437: 21,6432           32162                           CAF      PRIO27
000438: 21,6433           02052                           TC       NOVAC
000439: 21,6434           42442                           CADR     SPITGYRO
000440: 21,6435           02124                           TC       ENDOFJOB
000441:
000442: 21,6436           51321        JUMPY              TS       PRELTEMP
000443:
000444: 21,6437           02276                           TC       PHASCHNG
000445: 21,6440           02603                           OCT      02603
000446:
000447: 21,6441           02124                           TC       ENDOFJOB
000448:
000449:
000450:
000451: 21,6442           37030        SPITGYRO           CAF      LGYROANG


000453: 21,6443           05654                           TC       BANKCALL
000454: 21,6444           31433                           CADR     GYRODPNT
000455:
000456: 21,6445           05654                           TC       BANKCALL
000457: 21,6446           30331                           CADR     IMUSTALL
000458: 21,6447           02124                           TC       ENDOFJOB
000459: 21,6450           02124                           TC       ENDOFJOB
000460:


000462:
000463:                                                                                                  #        VERTICAL ERECTION PROCEDURES.
000464:
000465: 21,6451           11320        NOGYROCM           CCS      GYROCSW                               #  COUNT DOWN FOR 5 MIN OF VERTICAL ERECT.
000466: 21,6452           06456                           TC       MORE                                  #   IF MORE TO COME.
000467: 21,6453           02362                           TC       NEWMODE                               #  IF NOT, GO INTO GYROCOMP. (MM 02)
000468: 21,6454           00002                           OCT      2
000469:
000470: 21,6455           06457                           TC       +2
000471:
000472: 21,6456           51320        MORE               TS       GYROCSW
000473:
000474: 21,6457           04000        TJL                TC       INTPRET
000475:
000476: 21,6460           76776                           ITC      0
000477: 21,6461           02515                                    EARTHRAT
000478:
000479: 21,6462           66775                           DSU      1
000480: 21,6463           64742                           DMP      DAD
000481: 21,6464           01004                                    DELVY
000482: 21,6465           01363                                    FILDELY
000483: 21,6466           02765                                    VERECTC3
000484: 21,6467           01363                                    FILDELY
000485: 21,6470           33363                           STORE    FILDELY
000486:
000487: 21,6471           53575                           AXC,1    1
000488: 21,6472           52572                           AXC,2    ITC
000489: 21,6473           00003                                    2
000490: 21,6474           00001                                    0
000491: 21,6475           02661                                    VERECT
000492:
000493: 21,6476           66775                           DSU      1
000494: 21,6477           64742                           DMP      DAD
000495: 21,6500           01006                                    DELVZ
000496: 21,6501           01361                                    FILDELZ
000497: 21,6502           02765                                    VERECTC3
000498: 21,6503           01361                                    FILDELZ
000499: 21,6504           33361                           STORE    FILDELZ
000500:
000501: 21,6505           53574                           AXC,1    2
000502: 21,6506           47433                           NOLOD    COMP
000503: 21,6507           76776                           ITC
000504: 21,6510           00001                                    0
000505: 21,6511           02661                                    VERECT
000506:
000507: 21,6512           76776                           ITC      0
000508: 21,6513           02362                                    ENDOFPR
000509:


000511:
000512:                                                                                                  #        CALCULATION OF EARTH RATE
000513:
000514: 21,6514           66775        EARTHRAT           DSU      1
000515: 21,6515           63666                           TSLT     DMPR
000516: 21,6516           01465                                    PIPTIME
000517: 21,6517           01371                                    PREVTIME
000518: 21,6520           00014                                    11D
000519: 21,6521           03010                                    GOMEGA
000520:
000521: 21,6522           64775                           DMP      1                                     #   SIN(LAMBDE).DT.LENGTH OMEGA + THETA X
000522: 21,6523           63742                           TSLT     DAD
000523: 21,6524           00001                                    0
000524: 21,6525           00043                                    SINLAM
000525: 21,6526           00002                                    1
000526: 21,6527           01453                                    THETAX
000527: 21,6530           33453                           STORE    THETAX
000528:
000529: 21,6531           64775                           DMP      1                                     #  -COS(LAMBDA).DT.LENGTH OMEGA + THETA STH
000530: 21,6532           63726                           TSLT     BDSU
000531: 21,6533           77777                                    -
000532: 21,6534           00045                                    COSLAM
000533: 21,6535           00002                                    1
000534: 21,6536           01455                                    THETASTH
000535: 21,6537           33455                           STORE    THETASTH
000536:
000537: 21,6540           64775                           DMP      1                                     #   COS(AZIMUTH). SOUTH COMPONENT
000538: 21,6541           63776                           TSLT
000539: 21,6542           01455                                    THETASTH                              #                        TO P.D. LIST
000540: 21,6543           00005                                    COSAZ
000541: 21,6544           00002                                    1
000542:
000543: 21,6545           64774                           DMP      2                                     #   Y COMPONENT = SIN(AZIMUTH).EAST COMP
000544: 21,6546           63742                           TSLT     DAD                                   #                   + COS(AZIMUTH). SOUTH
000545: 21,6547           70776                           DAD
000546: 21,6550           01457                                    THETAE                                #                                    COMP
000547: 21,6551           00003                                    SINAZ
000548: 21,6552           00002                                    1
000549: 21,6553           01447                                    THETAY
000550: 21,6554           33447                           STORE    THETAY
000551:
000552: 21,6555           64775                           DMP      1                                     #   SIN(AZIMUTH). SOUTH COMPONENT
000553: 21,6556           63776                           TSLT
000554: 21,6557           00003                                    SINAZ                                 #                        TO P.D. LIST
000555: 21,6560           01455                                    THETASTH
000556:
000557: 21,6561           00002                                    1
000558: 21,6562           64774                           DMP      2                                     #  Z COMPONENT = COS(AZIMUTH.EAST COMP
000559: 21,6563           63732                           TSLT     DSU
000560: 21,6564           70776                           DAD
000561: 21,6565           00005                                    COSAZ                                 #               -SIN(AZIMUTH).SOUTH COMP


000563: 21,6566           01457                                    THETAE
000564: 21,6567           00002                                    1
000565: 21,6570           77777                                    -
000566: 21,6571           01451                                    THETAZ
000567: 21,6572           33451                           STORE    THETAZ
000568:
000569: 21,6573           40576                           ITCQ     0
000570:


000572:
000573:                                                                                                  #        COMPUTATION OF GYROCOMPASS COMMAND
000574:
000575: 21,6574           45575        GYROCOM            ITA      1
000576: 21,6575           64716                           DMP      TSLT
000577: 21,6576           00052                                    S2
000578: 21,6577           01006                                    DELVZ
000579: 21,6600           00005                                    COSAZ
000580: 21,6601           00002                                    1
000581:
000582: 21,6602           64775                           DMP      1                                     #  DELTA-V(EAST)= COS(AZ).DELTA-V(Z)
000583: 21,6603           63742                           TSLT     DAD
000584: 21,6604           01004                                    DELVY
000585: 21,6605           00003                                    SINAZ
000586: 21,6606           00002                                    1
000587: 21,6607           33361                           STORE    DELE
000588:
000589: 21,6610           53574                           AXC,1    2
000590: 21,6611           52435                           AXC,2    NOLOD
000591: 21,6612           47172                           COMP     ITC
000592: 21,6613           00007                                    6
000593: 21,6614           00003                                    2
000594: 21,6615           02661                                    VERECT
000595:
000596: 21,6616           64775                           DMP      1                                     #  SIN(AZ).DELTA-V(Z)
000597: 21,6617           63776                           TSLT
000598: 21,6620           01006                                    DELVZ
000599: 21,6621           00003                                    SINAZ
000600: 21,6622           00002                                    1
000601:
000602: 21,6623           64775                           DMP      1                                     #  DELTA-V(SOUTH= COS(AZ.DELTA-V(Y)
000603: 21,6624           63732                           TSLT     DSU
000604: 21,6625           01004                                    DELVY
000605: 21,6626           00005                                    COSAZ
000606: 21,6627           00002                                    1
000607: 21,6630           33363                           STORE    DELS
000608:
000609: 21,6631           64776                           DMP      0
000610: 21,6632           01363                                    DELS                                  #   C1. DELTA-V(SOUTH) TO P.D. LIST
000611: 21,6633           02767                                    GYRCMC1
000612:
000613: 21,6634           64775                           DMP      1                                     #  FILTER = C1. DELTA-V(SOUTH)
000614: 21,6635           70776                           DAD                                            #          +C2. FILTER
000615: 21,6636           01357                                    FILTER
000616: 21,6637           02771                                    GYRCMC2
000617: 21,6640           33357                           STORE    FILTER
000618:
000619: 21,6641           47574                           NOLOD    2
000620: 21,6642           64716                           DMP      TSLT
000621: 21,6643           70776                           DAD
000622: 21,6644           02773                                    GYRCMC3


000624: 21,6645           00010                                    7
000625: 21,6646           01453                                    THETAX
000626: 21,6647           33453                           STORE    THETAX
000627:
000628: 21,6650           64775                           DMP      1                                     #  EAST-TORQUING ANGLE = C4.FILTER
000629: 21,6651           63776                           TSLT
000630: 21,6652           01363                                    DELS
000631: 21,6653           02775                                    GYRCMC4
000632: 21,6654           00004                                    3
000633: 21,6655           33457                           STORE    THETAE
000634:
000635: 21,6656           44576                           ITCI     0
000636: 21,6657           00052                                    S2
000637:


000639:
000640:                                                                                                  #  VERTICAL ERECTION SUBROUTINE
000641:
000642:                                                                                                  #  VERECT - VERTICAL ERECTION      ENTERED IN INT. MODE WITH
000643:                                                                                                  #                    SUBROUTINE            C(X1)= 2 FOR C(MPAC)= DEL-V Y
000644:                                                                                                  #                                               = 0     C(MPAC)=-DEL-V Z
000645:                                                                                                  #                                               = 6 FOR C(MPAC)=-DEL-V E
000646:                                                                                                  #                                   FOR THESE THREE CASES OUTPUT WILL BE
000647:                                                                                                  #                                                THETA-Z
000648:                                                                                                  #                                                THETA-Y
000649:                                                                                                  #                                                THETA-S RESPECTIVELY.
000650:                                                                                                  #                                   LOOP CONSTANTS ARE DETERMINED BY
000651:                                                                                                  #                                          C(X2)= 0 NO GYROCOMPASSING
000652:                                                                                                  #                                                 2    GYROCOMPASSING
000653:
000654:
000655:
000656: 21,6660           47576        VERECT             NOLOD    0
000657:
000658: 21,6661           32001                           STORE    0
000659:
000660: 21,6662           47575                           NOLOD    1
000661: 21,6663           70376                           DAD*
000662: 21,6664           02751                                    INT,1                                 #  COMPUTE INTEGRAL OF DEL-V = INT
000663: 21,6665           36751                           STORE    INT,1
000664:
000665: 21,6666           45175                           DMOVE    1
000666: 21,6667           64316                           DMP*     TSLT
000667: 21,6670           00001                                    0
000668: 21,6671           05732                                    VERECTC1,2
000669: 21,6672           00006                                    5
000670:
000671: 21,6673           64375                           DMP*     1
000672: 21,6674           70342                           DAD*     DAD
000673: 21,6675           02751                                    INT,1                                 #  THETA = THETA + C1 DEL-V  + C2 INT
000674: 21,6676           05742                                    VERECTC2,2
000675: 21,6677           03115                                    THETAY,1
000676: 21,6700           37115                           STORE    THETAY,1
000677:
000678: 21,6701           40576                           ITCQ     0
000679:


000681:
000682:                                                                                                  #        PRELAUNCH MANUAL REQUEST PROCESSOR.
000683:
000684: 21,6702           34501        STARTPL            CAF      PRIO20                                #  ENTER EXECUTIVE REQUEST ON START-UP.
000685: 21,6703           02046                           TC       FINDVAC
000686: 21,6704           42147                           CADR     STARTPL2
000687: 21,6705           05702                           TC       SWRETURN
000688:
000689: 21,6706           44513        PLSTCHK            CS       EIGHT                                 #  PRELAUNCH COMES HERE WHENEVER A PHASE
000690: 21,6707           60115                           AD       MPAC                                  #  REFERENCE IS MADE TO SEE IF A MANUAL
000691: 21,6710           10000                           CCS      A                                     #  REQUEST HAS BEEN ENTERED THROUGH MASTER
000692: 21,6711           00001                           TC       Q                                     #  CONTROL. ALL SUCH PHASES ARE LESS THAN 8
000693: 21,6712           24000        PLPRIO             OCT      24000
000694: 21,6713           06714                           TC       +1
000695:
000696: 21,6714           20115                           INDEX    MPAC                                  #  SEE WHICH MANUAL MODE REQUESTED.
000697: 21,6715           06715                           TC       +0
000698: 21,6716           06000                           TC       TOP1                                  #  1 - INITIALIZATION 1.
000699: 21,6717           06100                           TC       TOP2                                  #  2 - INITIALIZATION 2.
000700: 21,6720           07252                           TC       OPTCHK                                #  3 - DO OPTICAL CHECK
000701:
000702: 21,6721           10727        PLFINCHK           CCS      WASKSET                               #  SEE IF IN FINE ALIGN.
000703: 21,6722           06726                           TC       3CHECK
000704: 21,6723           06746                           TC       PRELEXIT                              #  SYSTEM IN BAD SHAPE.
000705: 21,6724           06733                           TC       DOPLCHNG                              #  DO THE CHANGE ANYWAY.
000706: 21,6725           06746                           TC       PRELEXIT                              #  SYSTEM IN BAD SHAPE.
000707:
000708: 21,6726           66731        3CHECK             AD       -CCSFINE
000709: 21,6727           10000                           CCS      A
000710: 21,6730           06000                           TC       TOP1
000711: 21,6731           77730        -CCSFINE           OCT      -47                                   #  WASKSET IS 50 FOR FINE ALIGN.
000712: 21,6732           06000                           TC       TOP1
000713:
000714: 21,6733           20115        DOPLCHNG           INDEX    MPAC
000715: 21,6734           06732                           TC       -2
000716: 21,6735           06741                           TC       DOPL14
000717:
000718: 21,6736           02362        DOPL15             TC       NEWMODE                               #  SET MAJOR MODE TO GYROCOMPASSING
000719: 21,6737           00002                           OCT      2
000720:
000721: 21,6740           06344                           TC       DOGYROC
000722:
000723: 21,6741           02362        DOPL14             TC       NEWMODE                               #  SET MAJOR MODE TO UNCONDITIONAL VERT-
000724: 21,6742           00006                           OCT      6                                     #  ICAL ERECTION
000725:
000726: 21,6743           06457                           TC       TJL
000727:


000729:
000730:                                                                                                  #        PRELAUNCH GO-SEQUENCE PROCESSOR.
000731:
000732:                                                                                                  #          HAS BEEN DELETED.  SEE GENERAL RESTARTS.   ...DJL
000733:
000734: 21,6744           00050        FINECODE           OCT      50                                    #  FINE ALIGN AND COMPUTER CONTROL.
000735:
000736:                                                                                                  #        PRELAUNCH TERMINATION.
000737:
000738: 21,6745           03362                           TC       FREEDSP
000739: 21,6746           05654        PRELEXIT           TC       BANKCALL                              #  RETURN IMU TO MANUAL CONTROL.
000740: 21,6747           30241                           CADR     IMUFINIS
000741:
000742: 21,6750           44516        ENDJ3OUT           CS       ONE
000743: 21,6751           02312                           TC       NEWPHASE
000744: 21,6752           00003                           OCT      3
000745:
000746: 21,6753           02124                           TC       ENDOFJOB
000747:


000749:
000750:                                                                                                  #  PRELAUNCH BANK STORED CONSTANTS
000751:
000752: 21,6754           24000 00000  VERECTC1           2DEC     20.        B-5                        #  VERTICAL LOOP CONSTANTS
000753: 21,6756           02000 00000                     2DEC     2          B-5
000754: 21,6760           14631 23146  VERECTC2           2DEC     .4
000755: 21,6762           00101 21116                     2DEC     .004
000756: 21,6764           03146 14632  VERECTC3           2DEC     .1
000757: 21,6766           03146 14632  GYRCMC1            2DEC     0.1
000758: 21,6770           34631 23146  GYRCMC2            2DEC     0.9
000759: 21,6772           56777 77777  GYRCMC3            2DEC     -68        B-7
000760: 21,6774           20000 00000  GYRCMC4            2DEC     4          B-3
000761: 21,6776           03610 01227  LABLAT             2DEC     .117678252                            #  LATITUDE OF IL-7
000762: 21,7000           10000 00000  90DEGAZ            2DEC     .25                                   #  90 DEG. FROM NORTH = EAST
000763: 21,7002           00062        PRELDT             DEC      .5         E2                         #  HALF SECOND PRELAUNCH CYCLE
000764:
000765: 21,7003           42270        WAKEPRAD           CADR     PRAWAKE                               #  WAKING ADDRESS FOR PRELAUNCH
000766:
000767: 21,7004           00000        ZEROPR             OCT      0                                     #  OUR OWN PERSONAL COPY OF ZERO
000768:
000769: 21,7005           03711 33265  LOMEGA             2DEC     .12169524                             #  EARTH RATE IN IRIG PULSES PER .01 SEC.
000770: 21,7007           37116 32652  GOMEGA             2DEC     0.97356192                            #  EARTH RATE IN IRIG PULSES/CS
000771: 21,7011           06200        PLPIPADT           DEC      50         B+6
000772: 21,7012           77746        -.25SC21           DEC      -25        B-14
000773: 21,7013           77715        NEG.5SEC           DEC      -50        B-14
000774:
000775: 21,7014           00310        2SEC21             DEC      200        B-14
000776: 21,7015           00000 00372  DP2.5SEC           2DEC     250        B-28
000777: 21,7017           00060        BITS56             DEC      48         B-14
000778: 21,7020           37116 32666  SIDEDAYS           2DEC*    .011605763 E-5        B23*            #  FRACTION OF T2-T1 IN SIDEREAL DAY
000779: 21,7022           13644 33772  LOCALUP            2DEC     .738876298 B-1
000780: 21,7024           00000 00000                     2DEC     .0                                    #  VECTOR AT TIME C(T2,T1) = 0
000781: 21,7026           12620 03315                     2DEC     .673841098 B-1


000783: 21,7030           01340        LGYROANG           ADRES    GYROANG
000784: 21,7031           00011        IX                 DEC      9          B-14
000785:


000787:
000788:                                                                                                  #  PRELAUNCH TERMINATION PHASE(AFTER G.R. SIGNAL)
000789:
000790:
000791:
000792: 21,7032           04000        PRELTER1           TC       INTPRET
000793:
000794: 21,7033           70776                           DAD      0
000795: 21,7034           01371                                    PREVTIME
000796: 21,7035           03016                                    DP2.5SEC
000797: 21,7036           33371                           STORE    PREVTIME
000798:
000799: 21,7037           76776                           ITC      0
000800: 21,7040           02515                                    EARTHRAT                              #  CHANGED BY MR. FIXIT.
000801:
000802: 21,7041           77576                           EXIT     0
000803:
000804: 21,7042           35501                           CAF      ZERO
000805: 21,7043           51340                           TS       GYROANG
000806: 21,7044           51342                           TS       GYROANG    +2
000807: 21,7045           51344                           TS       GYROANG    +4
000808:
000809: 21,7046           31452                           XCH      THETAX
000810: 21,7047           51341                           TS       GYROANG    +1
000811: 21,7050           31446                           XCH      THETAY
000812: 21,7051           51343                           TS       GYROANG    +3
000813: 21,7052           31450                           XCH      THETAZ
000814: 21,7053           51345                           TS       GYROANG    +5
000815:
000816: 21,7054           20017                           INHINT
000817: 21,7055           32164                           CAF      PRIO31                                #   CHANGED BY MR. FIXIT.
000818: 21,7056           02052                           TC       NOVAC
000819: 21,7057           42442                           CADR     SPITGYRO
000820: 21,7060           20016                           RELINT
000821:
000822: 21,7061           02362                           TC       NEWMODE
000823: 21,7062           00004                           OCT      04                                    #  INERTIAL REFERENCE.
000824:
000825: 21,7063           04000                           TC       INTPRET
000826:
000827: 21,7064           70776                           DAD      0                                     #  FORM TIME SINCE LAUNCH VECTOR IN
000828: 21,7065           01074                                    DTEPOCH                               #  INERTIAL Z-X PLANE
000829: 21,7066           01467                                    TIME2GR
000830: 21,7067           33145                           STORE    DTEAROT
000831:
000832: 21,7070           76776                           ITC      0                                     #  BRANCH TO FORCE WT TO LESS THAN 1 REV
000833: 21,7071           13463                                    EARROT2
000834:
000835: 21,7072           57176                           SIN      0                                     #  FORM INERTIAL Z-X PLANE LOCAL VERTICAL
000836: 21,7073           01315                                    LATITUDE


000838: 21,7074           45176                           DMOVE    0
000839: 21,7075           05174                                    ZERODP
000840:
000841: 21,7076           55175                           COS      1
000842: 21,7077           41176                           VDEF
000843: 21,7100           01315                                    LATITUDE
000844: 21,7101           32041                           STORE    VAC
000845:
000846: 21,7102           43576                           TEST     0                                     #  TEST IF BIT IS ON. IF NOT SET IT ON
000847: 21,7103           00006                                    NBSMBIT
000848: 21,7104           03167                                    NBITON
000849:
000850: 21,7105           75575        ROTXY              AXT,1    1                                     #  ROTATE PROJECTION OF LOCAL VERTICAL ON
000851: 21,7106           74572                           AXT,2    ITC                                   #  INERTIAL X-Y PLANE ABOUT Z-AXIS
000852: 21,7107           00003                                    2
000853: 21,7110           00005                                    4
000854: 21,7111           04566                                    ACCUROT
000855:
000856: 21,7112           47576                           NOLOD    0
000857: 21,7113           33052                           STORE    REFSMMAT                              #  PRESENT LOCAL VERTICAL VECTOR IS X-AXIS
000858:
000859: 21,7114           45176                           DMOVE    0
000860: 21,7115           05174                                    ZERODP
000861:
000862: 21,7116           45176                           DMOVE    0
000863: 21,7117           00041                                    VAC
000864:
000865: 21,7120           47175                           COMP     1                                     #  FORM UNIT EAST VECTOR AT GRR
000866: 21,7121           41153                           VDEF     UNIT
000867: 21,7122           00043                                    VAC        +2
000868:
000869: 21,7123           47575                           NOLOD    1                                     #  FORM UNIT SOUTH VECTOR
000870: 21,7124           41753                           VXV      UNIT
000871: 21,7125           01052                                    REFSMMAT
000872:
000873: 21,7126           66776                           DSU      0                                     #  FORM AZIMUTH SOUTH OF EAST AT GRR
000874: 21,7127           01317                                    AZIMUTH
000875: 21,7130           03001                                    90DEGAZ
000876: 21,7131           32037                           STORE    30D
000877:
000878: 21,7132           47575                           NOLOD    1
000879: 21,7133           57166                           SIN      VXSC
000880: 21,7134           33066                           STORE    REFSMMAT   +12D                       #  (TEMPORARY STORAGE)
000881:
000882: 21,7135           55174                           COS      2                                     #  FORM SM Z-AXIS
000883: 21,7136           75642                           VXSC     VAD
000884: 21,7137           73176                           UNIT
000885: 21,7140           00037                                    30D
000886: 21,7141           77777                                    -
000887: 21,7142           01066                                    REFSMMAT   +12D


000889: 21,7143           33066                           STORE    REFSMMAT   +12D
000890:
000891: 21,7144           47575                           NOLOD    1                                     #  FORM SM Y-AXIS BY CROSS PRODUCT
000892: 21,7145           41753                           VXV      UNIT
000893: 21,7146           01052                                    REFSMMAT
000894: 21,7147           33060                           STORE    REFSMMAT   +6
000895:
000896: 21,7150           41775                           VXV      1                                     #  INITIALISE VN, GRAVITY GIVEN RN, UNITW
000897: 21,7151           75776                           VXSC
000898: 21,7152           01044                                    UNITW
000899: 21,7153           00766                                    RN                                    #  SCALED AT 2(+25) METERS
000900: 21,7154           03173                                    WIE
000901: 21,7155           32774                           STORE    VN                                    #  SCALED AT 2(+7)M/CS
000902:
000903: 21,7156           75175                           VMOVE    1
000904: 21,7157           76776                           ITC
000905: 21,7160           00766                                    RN
000906: 21,7161           21643                                    CALCGRAV
000907:
000908: 21,7162           77576                           EXIT     0
000909:
000910: 21,7163           32164                           CAF      PRIO31                                #  GUESS WHAT WE:RE DOING
000911: 21,7164           50755                           TS       1/PIPADT                              #  GIVE UP  WOULD YOU BELEIVE 2 SECONDS
000912:
000913: 21,7165           06750                           TC       ENDJ3OUT                              #  TERMINATE PRELAUNCH. (PHASE = INACTIVE.)
000914:
000915:
000916:
000917: 21,7166           42575        NBITON             SWITCH   1
000918: 21,7167           76776                           ITC
000919: 21,7170           00006                                    NBSMBIT
000920: 21,7171           03106                                    ROTXY
000921:
000922: 21,7172           14167 34104  WIE                2DEC*    7.29211505 E-7        B+19*           #  RAD/CS SCALED AT 2(-19)
000923:


000925:
000926: 21,7174           30001        PRLSAVE            XCH      Q                                     #  SAVE CURRENT VARIABLES FOR RESTARTS
000927: 21,7175           50116                           TS       MPAC       +1
000928:
000929: 21,7176           33535                           CAF      THIRTEEN
000930: 21,7177           50115        AGAIN1             TS       MPAC
000931: 21,7200           20115                           INDEX    MPAC
000932: 21,7201           41356                           CS       FILTER
000933: 21,7202           20115                           INDEX    MPAC
000934: 21,7203           51243                           TS       PTEMP
000935: 21,7204           10115                           CCS      MPAC
000936: 21,7205           07177                           TC       AGAIN1
000937:
000938: 21,7206           33533                           CAF      ELEVEN
000939: 21,7207           50115        AGAIN2             TS       MPAC
000940: 21,7210           20115                           INDEX    MPAC
000941: 21,7211           41446                           CS       THETAY
000942: 21,7212           20115                           INDEX    MPAC
000943: 21,7213           51261                           TS       PTEMP      +14D
000944: 21,7214           10115                           CCS      MPAC
000945: 21,7215           07207                           TC       AGAIN2
000946:
000947: 21,7216           41321                           CS       PRELTEMP
000948: 21,7217           51275                           TS       PTEMP      +26D
000949: 21,7220           41320                           CS       GYROCSW
000950: 21,7221           51276                           TS       PTEMP      +27D
000951:
000952: 21,7222           00116                           TC       MPAC       +1
000953:
000954: 21,7223           30001        PRLRSTOR           XCH      Q                                     #  RESTORE OLD VALUES OF VARIABLES
000955: 21,7224           50116                           TS       MPAC       +1
000956:
000957: 21,7225           33535                           CAF      THIRTEEN
000958: 21,7226           50115        AGAIN3             TS       MPAC
000959: 21,7227           20115                           INDEX    MPAC
000960: 21,7230           41243                           CS       PTEMP
000961: 21,7231           20115                           INDEX    MPAC
000962: 21,7232           51356                           TS       FILTER
000963: 21,7233           10115                           CCS      MPAC
000964: 21,7234           07226                           TC       AGAIN3
000965:
000966: 21,7235           33533                           CAF      ELEVEN
000967: 21,7236           50115        AGAIN4             TS       MPAC
000968: 21,7237           20115                           INDEX    MPAC
000969: 21,7240           41261                           CS       PTEMP      +14D
000970: 21,7241           20115                           INDEX    MPAC
000971: 21,7242           51446                           TS       THETAY
000972: 21,7243           10115                           CCS      MPAC
000973: 21,7244           07236                           TC       AGAIN4
000974:
000975: 21,7245           41275                           CS       PTEMP      +26D


000977: 21,7246           51321                           TS       PRELTEMP
000978: 21,7247           41276                           CS       PTEMP      +27D
000979: 21,7250           51320                           TS       GYROCSW
000980:
000981: 21,7251           00116                           TC       MPAC       +1
000982:


000984:
000985:                                                                                                  #  PRELAUNCH CHECK PROCEDURE (USES THE Z-NORTH SYSTEM OF AXES)
000986:
000987:
000988:
000989: 21,7252           20017        OPTCHK             INHINT
000990: 21,7253           32150                           CAF      PRIO14
000991: 21,7254           02046                           TC       FINDVAC                               #  CALL WITH PRIORITY OF TWENTY
000992: 21,7255           43262                           CADR     CHKOPT
000993:
000994: 21,7256           34514                           CAF      BIT3
000995: 21,7257           50115                           TS       MPAC
000996: 21,7260           06721                           TC       PLFINCHK
000997: 21,7261           06354                           TC       DOGYROC2
000998:
000999: 21,7262           03302        CHKOPT             TC       GRABDSP
001000: 21,7263           03310                           TC       PREGBSY
001001:
001002: 21,7264           02362                           TC       NEWMODE
001003: 21,7265           00003                           OCT      03
001004:
001005: 21,7266           35501                           CAF      ZERO
001006: 21,7267           51400                           TS       STARS
001007: 21,7270           64516                           AD       ONE
001008: 21,7271           50620                           TS       DSPTEM1    +2
001009: 21,7272           37540                           CAF      V06N30P
001010: 21,7273           03100                           TC       NVSUB
001011: 21,7274           03315                           TC       PRENVBSY
001012: 21,7275           21400                           INDEX    STARS
001013: 21,7276           31346                           XCH      TAZ
001014: 21,7277           50616                           TS       DSPTEM1
001015: 21,7300           21400                           INDEX    STARS
001016: 21,7301           31350                           XCH      TEL
001017: 21,7302           50617                           TS       DSPTEM1    +1
001018:
001019: 21,7303           07542                           TC       CHECKNV
001020: 21,7304           00661                           OCT      00661
001021: 21,7305           07441                           TC       CHEXIT
001022: 21,7306           30616                           XCH      DSPTEM1
001023: 21,7307           21400                           INDEX    STARS
001024: 21,7310           51346                           TS       TAZ
001025: 21,7311           30617                           XCH      DSPTEM1    +1
001026: 21,7312           21400                           INDEX    STARS
001027: 21,7313           51350                           TS       TEL
001028:
001029: 21,7314           11400                           CCS      STARS
001030: 21,7315           07320                           TC       +3
001031: 21,7316           34516                           CAF      ONE
001032: 21,7317           07267                           TC       CHKOPT     +5
001033: 21,7320           50620                           TS       DSPTEM1    +2


001035: 21,7321           35503                           CAF      TWO
001036: 21,7322           50617                           TS       DSPTEM1    +1
001037: 21,7323           34516                           CAF      ONE
001038: 21,7324           50616                           TS       DSPTEM1                               #  SETS UP STAR NUMBER DISPLAY
001039:
001040: 21,7325           37540                           CAF      V06N30P
001041: 21,7326           03100                           TC       NVSUB
001042: 21,7327           03315                           TC       PRENVBSY
001043: 21,7330           35503                           CAF      TWO
001044: 21,7331           05654                           TC       BANKCALL
001045: 21,7332           30406                           CADR     SXTMARK
001046: 21,7333           05654                           TC       BANKCALL
001047: 21,7334           30327                           CADR     OPTSTALL
001048: 21,7335           07441                           TC       CHEXIT
001049: 21,7336           04000                           TC       INTPRET
001050:
001051: 21,7337           76776                           ITC      0
001052: 21,7340           03475                                    PROCTARG
001053:
001054: 21,7341           76776                           ITC      0
001055: 21,7342           03446                                    MAKEXSM                               #  COMPUTE DESIRED SM ORIENTAYION IN REC
001056:
001057: 21,7343           52775                           MXV      1
001058: 21,7344           44776                           VSLT
001059: 21,7345           01403                                    TARGET1
001060: 21,7346           01425                                    XSM
001061: 21,7347           00002                                    1
001062: 21,7350           33403                           STORE    STARAD
001063: 21,7351           52775                           MXV      1
001064: 21,7352           44776                           VSLT
001065: 21,7353           01411                                    TARGET1    +6
001066: 21,7354           01425                                    XSM
001067: 21,7355           00002                                    1
001068: 21,7356           33411                           STORE    STARAD     +6
001069:
001070: 21,7357           71574                           LXC,1    2
001071: 21,7360           74471                           AXT,2    XSU,2
001072: 21,7361           66572                           SXA,2    ITC
001073: 21,7362           00736                                    MARKSTAT
001074: 21,7363           00003                                    2
001075: 21,7364           00047                                    X1
001076: 21,7365           00051                                    S1
001077: 21,7366           04733                                    SXTNB
001078:
001079: 21,7367           76776                           ITC      0
001080: 21,7370           04524                                    NBSM
001081:
001082: 21,7371           75176                           VMOVE    0
001083: 21,7372           00041                                    STARM
001084: 21,7373           33375                           STORE    VECTEM


001086: 21,7374           71574                           LXC,1    2
001087: 21,7375           63561                           INCR,1   AXT,2
001088: 21,7376           56531                           XSU,2    SXA,2
001089: 21,7377           00736                                    MARKSTAT
001090: 21,7400           77771                                    -7
001091: 21,7401           00003                                    2
001092: 21,7402           00047                                    X1
001093: 21,7403           00051                                    S1
001094:
001095: 21,7404           76776                           ITC      0
001096: 21,7405           04733                                    SXTNB
001097:
001098: 21,7406           76776                           ITC      0
001099: 21,7407           04524                                    NBSM
001100:
001101: 21,7410           75176                           VMOVE    0
001102: 21,7411           00041                                    STARM
001103: 21,7412           32015                           STORE    12D
001104:
001105: 21,7413           75176                           VMOVE    0
001106: 21,7414           01375                                    VECTEM
001107: 21,7415           32007                           STORE    6                                     #  TO AVOID ERASABLE BIND
001108:
001109: 21,7416           76776                           ITC      0                                     #  FIND DESIRED SM IN PRESENT SM
001110: 21,7417           04761                                    AXISGEN
001111:
001112: 21,7420           76776                           ITC      0                                     #  CALCULATE REQUIRED PULSE TORQUE IN GYROD
001113: 21,7421           04353                                    CALCGTA
001114:
001115: 21,7422           45776                           VSRT     0
001116: 21,7423           01521                                    OGC
001117: 21,7424           00011                                    8D
001118: 21,7425           33521                           STORE    OGC                                   #  CHANGE UNITS FROM 2PI TO GYRO PULSES
001119:
001120: 21,7426           77576                           EXIT     0
001121:
001122:
001123:
001124: 21,7427           05654                           TC       BANKCALL
001125: 21,7430           30453                           CADR     MKRELEAS
001126: 21,7431           07542                           TC       CHECKNV
001127: 21,7432           00667                           OCT      00667
001128: 21,7433           07441                           TC       CHEXIT
001129: 21,7434           04000                           TC       INTPRET
001130:
001131: 21,7435           75176                           VMOVE    0
001132: 21,7436           01521                                    OGC                                   #  GETS SUMMED INTO PRELAUNCH
001133: 21,7437           33333                           STORE    INFLANG
001134:
001135: 21,7440           77576                           EXIT     0


001137:
001138: 21,7441           03362        CHEXIT             TC       FREEDSP
001139: 21,7442           02362                           TC       NEWMODE
001140: 21,7443           00002                           OCT      02
001141: 21,7444           02124                           TC       ENDOFJOB
001142:


001144:
001145:                                                                                                  #  SUBROUTINE TO COMPUTE DESIRED SM AXES IN REC
001146:
001147: 21,7445           77576        MAKEXSM            EXIT     0
001148: 21,7446           37541                           CAF      XVII
001149: 21,7447           50077                           TS       BUF
001150: 21,7450           35501                           CAF      ZERO                                  #  ZERO ALL OF XSM
001151: 21,7451           20077                           INDEX    BUF
001152: 21,7452           51424                           TS       XSM
001153: 21,7453           10077                           CCS      BUF
001154: 21,7454           07447                           TC       MAKEXSM    +2
001155: 21,7455           34522                           CAF      HALF
001156: 21,7456           51424                           TS       XSM                                   #  HALF UNIT MATRIX IS COMPUTED
001157:
001158: 21,7457           04000                           TC       INTPRET
001159:
001160: 21,7460           55176                           COS      0
001161: 21,7461           01317                                    AZIMUTH
001162: 21,7462           33435                           STORE    XSM        +8D
001163:
001164: 21,7463           47576                           NOLOD    0
001165: 21,7464           33445                           STORE    XSM        +16D
001166:
001167: 21,7465           57176                           SIN      0
001168: 21,7466           01317                                    AZIMUTH
001169: 21,7467           33443                           STORE    XSM        +14D
001170:
001171: 21,7470           47176                           COMP     0
001172: 21,7471           01443                                    XSM        +14D
001173: 21,7472           33437                           STORE    XSM        +10D
001174:
001175: 21,7473           40576                           ITCQ     0
001176:


001178:
001179:                                                                                                  #  ROUTINE TO CONVERT TARGET AZIMUTH AND ELEVATIONS TO VECTORS
001180:
001181:
001182:
001183: 21,7474           75575        PROCTARG           AXT,1    1
001184: 21,7475           74461                           AXT,2    AST,2
001185: 21,7476           00002                                    1
001186: 21,7477           00015                                    12D
001187: 21,7500           00007                                    6
001188:
001189: 21,7501           42175        PROC1              SMOVE*   1
001190: 21,7502           56776                           TSRT
001191: 21,7503           02723                                    TEL        +1,1
001192: 21,7504           00003                                    2
001193: 21,7505           32001                           STORE    0
001194:
001195: 21,7506           57176                           SIN      0
001196: 21,7507           00001                                    0
001197: 21,7510           37036                           STORE    TARGET1    +12D,2
001198: 21,7511           55176                           COS      0
001199: 21,7512           00001                                    0                                     #  PUSH DOWN THE COSINE OF ELEVATION
001200:
001201: 21,7513           42175                           SMOVE*   1
001202: 21,7514           76576                           RTB
001203: 21,7515           02717                                    TAZ        +1,1
001204: 21,7516           20304                                    CDULOGIC
001205: 21,7517           32003                           STORE    2                                     #  THEN Y=0.5SIN(AZ)COS(EL)
001206:
001207: 21,7520           57175                           SIN      1
001208: 21,7521           64716                           DMP      TSLT
001209: 21,7522           00003                                    2
001210: 21,7523           00001                                    0
001211: 21,7524           00002                                    1
001212: 21,7525           37042                           STORE    TARGET1    +14D,2
001213:
001214: 21,7526           55175                           COS      1
001215: 21,7527           64716                           DMP      TSLT
001216: 21,7530           00003                                    2
001217: 21,7531           77777                                    -
001218: 21,7532           00002                                    1
001219: 21,7533           37046                           STORE    TARGET1    +16D,2
001220: 21,7534           75575                           AXT,1    1
001221: 21,7535           50401                           TIX,2    ITCQ
001222: 21,7536           00001                                    0
001223: 21,7537           03502                                    PROC1
001224:


001226:
001227:                                                                                                  #  ROUTINE TO ROTATE COORDINATE SYSTEM BY EARTHRATE TIMES TIME           ON
001228:
001229:
001230:
001231: 21,7540           00630        V06N30P            OCTAL    00630
001232: 21,7541           00021        XVII               DEC      17         B-14
001233:


001235:
001236:                                                                                                  #  ROUTINE TO DISPLAY STORED DATA FOR CHECKING AND MODIFICATION,VERB NOUN
001237:                                                                                                  #  IS STORED AT L +1,RETURN IS TO L +2 FOR TERMINATE,L +3 FOR GOOD DATA OR PROCEDE
001238:
001239:
001240:
001241: 21,7542           30001        CHECKNV            XCH      Q
001242: 21,7543           51354                           TS       CHKNVTEM
001243: 21,7544           21354                           INDEX    CHKNVTEM
001244: 21,7545           30000                           XCH      A
001245:
001246: 21,7546           03100                           TC       NVSUB
001247: 21,7547           07562                           TC       CHECKNV1
001248: 21,7550           05654                           TC       BANKCALL
001249: 21,7551           14000                           CADR     FLASHON
001250:
001251: 21,7552           03136                           TC       ENDIDLE
001252: 21,7553           07556                           TC       +3
001253: 21,7554           07560                           TC       +4
001254: 21,7555           07544                           TC       CHECKNV    +2
001255:
001256: 21,7556           21354                           INDEX    CHKNVTEM
001257: 21,7557           00001                           TC       Q
001258: 21,7560           21354                           INDEX    CHKNVTEM
001259: 21,7561           00002                           TC       Z
001260:
001261: 21,7562           37564        CHECKNV1           CAF      CHECKNV2
001262: 21,7563           03320                           TC       NVSUBUSY
001263: 21,7564           43544        CHECKNV2           CADR     CHECKNV    +2

End of include-file PRELAUNCH_ALIGNMENT_PROGRAM.agc.  Parent file is MAIN.agc


