
Source Code


000002:                                                                                                  ## Copyright:   Public domain.
000003:                                                                                                  ## Filename:    PRELAUNCH_ALIGNMENT_PROGRAM.agc
000004:                                                                                                  ## Purpose:     Part of the source code for Solarium build 55. This
000005:                                                                                                  ##              is for the Command Module's (CM) Apollo Guidance
000006:                                                                                                  ##              Computer (AGC), for Apollo 6.
000007:                                                                                                  ## Assembler:   yaYUL --block1
000008:                                                                                                  ## Contact:     Jim Lawton <jim DOT lawton AT gmail DOT com>
000009:                                                                                                  ## Website:     www.ibiblio.org/apollo/index.html
000010:                                                                                                  ## Page Scans:  www.ibiblio.org/apollo/ScansForConversion/Solarium055/
000011:                                                                                                  ## Mod history: 2009-10-05 JL   Created.
000012:                                                                                                  ##              2009-10-30 JL   Fixed filename comment.
000013:                                                                                                  ##              2016-08-20 RSB  Resolved Jim's uncertainty about TP.
000014:                                                                                                  ##              2016-08-23 RSB  Typos.
000015:                                                                                                  ##              2016-12-28 RSB  Proofed comment text using octopus/ProoferComments,
000016:                                                                                                  ##                              and fixed errors found.
000017:


000019:
000020:                                                                                                  #  THE PRELAUNCH ALIGNMENT PROGRAM CONSISTS OF TWO PARTS- VERTICAL ERECTION AND GYROCOMPASSING. IN THE FIRST CASE
000021:                                                                                                  #  THE Z PIPA INPUTS ARE USED TO CONTROL THE Y GYRO IN SUCH A WAY THAT THESE INPUTS ARE NULLED. A SIMILAR SIT-
000022:                                                                                                  #  UATION APPLIES TO THE Y PIPA INPUTS AND THE Z GYRO.IN THE GYROCOMPASSING CASE, THE Y PIPA INPUTS ARE USED IN
000023:                                                                                                  #  EXACTLY THE SAME FASHION AS IN VERTICAL ERECTION. THE Z PIPA INPUTS ARE SPLIT BETWEEN THE Y GYRO TO HOLD THE
000024:                                                                                                  #  VERTICAL AND THE X GYRO TO POINT THE Z AXIS ALONG SOME DESIRED AZIMUTH.
000025:
000026:
000027:
000028:                                                                                                  #  WHILE PRELAUNCH IS ACTIVE IT STAYS IN THE EXECUTIVE AND USES THE SLEEP/WAKE FEATURES. BY THIS MEANS MOST
000029:                                                                                                  #  ERASABLE USAGE IS CONFINED TO A VAC AREA. THE ASSIGNMENT IS AS FOLLOWS-
000030:
000031: 30,6252                        SINLAM             =        34D                                   #  SIN OF LATITUDE
000032: 30,6252                        COSLAM             =        36D                                   #  COSINE OF LATITUDE
000033: 30,6252                        SINAZ              =        2                                     #  SIN OF AZIMUTH
000034: 30,6252                        COSAZ              =        4                                     #  COSINE OF AZIMUTH
000035: 21,6000                                           SETLOC   42000
000036:
000037: 21,6000           04000        TOP1               TC       INTPRET
000038:
000039: 21,6001           45175                           DMOVE    1                                     #  THIS START DISPLAYS ALL INPUTS FOR CHEK
000040: 21,6002           76575                           RTB      EXIT
000041: 21,6003           01317                                    AZIMUTH
000042: 21,6004           20325                                    1STO2S
000043:
000044: 21,6005           03302                           TC       GRABDSP
000045: 21,6006           03310                           TC       PREGBSY
000046:
000047: 21,6007           30115                           XCH      MPAC
000048: 21,6010           50616                           TS       DSPTEM1
000049: 21,6011           35501                           CAF      ZERO
000050: 21,6012           50617                           TS       DSPTEM1    +1
000051:
000052: 21,6013           07542                           TC       CHECKNV                               #  DISPLAY AZIMUTH
000053: 21,6014           00661                           OCT      00661                                 #  (N.B. CAN NOT BE MODIFIED    ...ALK)
000054:
000055: 21,6015           06745                           TC       PRELEXIT   -1
000056:
000057: 21,6016           04000                           TC       INTPRET
000058:
000059: 21,6017           63776                           TSLT     0
000060: 21,6020           01315                                    LATITUDE
000061: 21,6021           00003                                    2
000062: 21,6022           32620                           STORE    DSPTEM1    +1
000063:
000064: 21,6023           45175                           DMOVE    1
000065: 21,6024           76575                           RTB      EXIT
000066: 21,6025           01353                                    VAZ
000067: 21,6026           20325                                    1STO2S
000068:
000069: 21,6027           30115                           XCH      MPAC


000071: 21,6030           50616                           TS       DSPTEM1
000072:
000073: 21,6031           07542                           TC       CHECKNV                               #  DISPLAY VEHICLE AZIMUTH, LATITUDE
000074: 21,6032           00661                           OCT      00661                                 #  (SEE N.B. ABOVE)
000075:
000076: 21,6033           06745                           TC       PRELEXIT   -1
000077:
000078: 21,6034           03362                           TC       FREEDSP                               #  DONE WITH DSKY.
000079:
000080: 21,6035           04000                           TC       INTPRET
000081:
000082: 21,6036           45175        TOP3               DMOVE    1                                     #  COMPUTES GIMBAL ANGLES
000083: 21,6037           76565                           RTB      AXT,1
000084: 21,6040           15617                                    SCNBMAT    +8D
000085: 21,6041           20271                                    ZEROVAC
000086: 21,6042           00023                                    18D
000087: 21,6043           32001                           STORE    0
000088:
000089: 21,6044           55176                           COS      0
000090: 21,6045           01353                                    VAZ
000091: 21,6046           32011                           STORE    8D
000092:
000093: 21,6047           47576                           NOLOD    0
000094: 21,6050           32021                           STORE    16D
000095:
000096: 21,6051           57176                           SIN      0
000097: 21,6052           01353                                    VAZ
000098: 21,6053           32017                           STORE    14D
000099:
000100: 21,6054           47575                           NOLOD    1
000101: 21,6055           47065                           COMP     AST,1
000102: 21,6056           00007                                    6
000103: 21,6057           32013                           STORE    10D
000104:
000105: 21,6060           74175        TOP33              VMOVE*   1
000106: 21,6061           51622                           VXM      VSLT
000107: 21,6062           33461                                    SCNBMAT    +18D,1
000108: 21,6063           00001                                    0
000109: 21,6064           00002                                    1
000110: 21,6065           37241                           STORE    XNB        +18D,1
000111:
000112: 21,6066           51576                           TIX,1    0
000113: 21,6067           02061                                    TOP33
000114:
000115: 21,6070           76776                           ITC      0
000116: 21,6071           03446                                    MAKEXSM
000117:
000118: 21,6072           76776                           ITC      0
000119: 21,6073           04644                                    CALCGA


000121: 21,6074           47575                           NOLOD    1
000122: 21,6075           77176                           TP
000123: 21,6076           33323                           STORE    PRELXGA
000124:
000125: 21,6077           77576                           EXIT     0
000126:
000127:                                                                                                  #  ENTER AT TOP2 IF GIMBAL ANGLES, AZIMUTH, LATITUDE ALREADY KEYED IN
000128:
000129:
000130:
000131: 21,6100           05654        TOP2               TC       BANKCALL                              #  GO AND START CDU ZEROING
000132: 21,6101           30000                           CADR     IMUZERO
000133:
000134: 21,6102           02362                           TC       NEWMODE
000135: 21,6103           00001                           OCT      01                                    #  INITIALIZATION.
000136:
000137: 21,6104           33543                           CAF      NINETEEN                              #  INITIALIZE ERASABLE MEMORY TO ZEROS
000138: 21,6105           31446        ZEROS1             XCH      THETAY
000139: 21,6106           35501                           CAF      ZERO
000140: 21,6107           21446                           INDEX    THETAY
000141: 21,6110           51356                           TS       FILTER
000142: 21,6111           11446                           CCS      THETAY
000143: 21,6112           06105                           TC       ZEROS1
000144:
000145: 21,6113           33533                           CAF      ELEVEN
000146: 21,6114           31446        ZEROS2             XCH      THETAY
000147: 21,6115           35501                           CAF      ZERO
000148: 21,6116           21446                           INDEX    THETAY
000149: 21,6117           51446                           TS       THETAY
000150: 21,6120           11446                           CCS      THETAY
000151: 21,6121           06114                           TC       ZEROS2
000152:
000153: 21,6122           33571                           CAF      SIXHNDRD                              #  INITIALIZE FOR 5 MIN VERTICAL
000154: 21,6123           51320                           TS       GYROCSW
000155:
000156: 21,6124           05654                           TC       BANKCALL                              #  INITIALIZATION COMPLETE SO STALL
000157: 21,6125           30331                           CADR     IMUSTALL
000158: 21,6126           06746                           TC       PRELEXIT
000159:
000160:
000161:
000162: 21,6127           41322                           CS       PRELXGA                               #  LOAD DESIRED CDU ANGLES.
000163: 21,6130           40000                           COM
000164: 21,6131           50700                           TS       THETAD
000165: 21,6132           41323                           CS       PRELYGA
000166: 21,6133           40000                           COM
000167: 21,6134           50701                           TS       THETAD     +1
000168: 21,6135           41324                           CS       PRELZGA
000169: 21,6136           40000                           COM
000170: 21,6137           50702                           TS       THETAD     +2


000172: 21,6140           02276                           TC       PHASCHNG                              #  GO INTO COARSE ALIGN PHASE.
000173: 21,6141           02103                           OCT      02103                                 #  3.17 RESTART.
000174:
000175: 21,6142           05654        REPL11             TC       BANKCALL
000176: 21,6143           30104                           CADR     IMUCOARS
000177:
000178: 21,6144           05654                           TC       BANKCALL                              #  NOTHING TO DO BUT SPEEP
000179: 21,6145           30331                           CADR     IMUSTALL
000180: 21,6146           06746                           TC       PRELEXIT
000181:
000182:
000183:
000184: 21,6147           02276        STARTPL2           TC       PHASCHNG                              #  START FINE ALIGN - INITIALIZATION PHASE.
000185: 21,6150           02203                           OCT      02203                                 #  3.18 RESTART.
000186:
000187: 21,6151           05654        REPL12             TC       BANKCALL
000188: 21,6152           30143                           CADR     IMUFINE
000189:
000190: 21,6153           02676                           TC       READTIME
000191: 21,6154           40572                           CS       RUPTSTOR
000192: 21,6155           51370                           TS       PREVTIME
000193: 21,6156           40573                           CS       RUPTSTOR   +1
000194: 21,6157           51371                           TS       PREVTIME   +1
000195: 21,6160           20016                           RELINT
000196:
000197: 21,6161           05654                           TC       BANKCALL                              #  SLEEP
000198: 21,6162           30331                           CADR     IMUSTALL
000199: 21,6163           06746                           TC       PRELEXIT
000200:
000201:
000202:
000203: 21,6164           02362                           TC       NEWMODE                               #  SET MAJOR MODE TO VERTICAL ERECTION
000204: 21,6165           00005                           OCT      5                                     #  (COUNTING)
000205:
000206: 21,6166           35501                           CAF      ZERO
000207: 21,6167           51332                           TS       INFLANG
000208: 21,6170           51333                           TS       INFLANG    +1
000209: 21,6171           51334                           TS       INFLANG    +2
000210: 21,6172           51335                           TS       INFLANG    +3
000211: 21,6173           51336                           TS       INFLANG    +4
000212: 21,6174           51337                           TS       INFLANG    +5
000213: 21,6175           50045                           TS       PIPAY                                 #  SET ALL PIPAS TO ZERO
000214: 21,6176           50046                           TS       PIPAZ
000215: 21,6177           50044                           TS       PIPAX
000216:
000217: 21,6200           33532                           CAF      NINE
000218: 21,6201           51321                           TS       PRELTEMP
000219:
000220: 21,6202           37011                           CAF      PLPIPADT                              #  SET UP DELTA TIME FOR IMU COMPENSATION.
000221: 21,6203           50755                           TS       1/PIPADT


000223: 21,6204           20017                           INHINT
000224: 21,6205           37002                           CAF      PRELDT                                #  SET WAITLIST TO WAKE JOB
000225: 21,6206           02173                           TC       WAITLIST
000226: 21,6207           42211                           CADR     PRELALTS
000227:
000228: 21,6210           02124                           TC       ENDOFJOB
000229:


000231:
000232:                                                                                                  #        PRELAUNCH WAITLIST TASK - EXECUTED EVERY .5 SEC. IN LOOP.
000233:
000234: 21,6211           36264        PRELALTS           CAF      PIPCAD21
000235: 21,6212           05750                           TC       ISWCALL
000236:
000237: 21,6213           33544                           CAF      TWENTY0
000238: 21,6214           02312                           TC       NEWPHASE
000239: 21,6215           00003                           OCT      3
000240:
000241: 21,6216           40036        REDO3.20           CS       TIME1
000242: 21,6217           50665                           TS       TBASE3
000243:
000244: 21,6220           35503                           CAF      TWO
000245: 21,6221           51035                           TS       PIPAGE
000246:
000247: 21,6222           30006                           XCH      IN2                                   #  TEST IN2 FOR GRR OR LIFT-OFF
000248: 21,6223           30006                           XCH      IN2
000249: 21,6224           77017                           MASK     BITS56
000250: 21,6225           10000                           CCS      A
000251: 21,6226           06242                           TC       PRELTERM
000252:
000253: 21,6227           34515                           CAF      BIT2                                  #  CHECK IF LIFT-OFF HAS OCCURRED
000254: 21,6230           70646                           MASK     FLAGWRD1
000255: 21,6231           10000                           CCS      A
000256: 21,6232           06242                           TC       PRELTERM                              #  IT HAS. TERMINATE PRELAUNCH
000257:
000258: 21,6233           37002                           CAF      PRELDT                                #  SELF-SUSTAINING WAITLIST CALL
000259: 21,6234           02173                           TC       WAITLIST
000260: 21,6235           42211                           CADR     PRELALTS
000261:
000262: 21,6236           34501        NOPLWAIT           CAF      PRIO20
000263: 21,6237           02046                           TC       FINDVAC
000264: 21,6240           42270                           CADR     PRAWAKE
000265:
000266: 21,6241           02256                           TC       TASKOVER                              #  RESUME
000267:
000268: 21,6242           40573        PRELTERM           CS       RUPTSTOR   +1                         #  N.B. READTIME IS DONE IN PIPASR ABOVE
000269: 21,6243           51467                           TS       TIME1GR
000270: 21,6244           40572                           CS       RUPTSTOR
000271: 21,6245           51466                           TS       TIME2GR
000272:
000273: 21,6246           41467                           CS       TIME1GR
000274: 21,6247           50667                           TS       TBASE5
000275:
000276: 21,6250           34516                           CAF      ONE
000277: 21,6251           02312                           TC       NEWPHASE
000278: 21,6252           00005                           OCT      00005
000279:
000280: 21,6253           10000                           CCS      A
000281: 21,6254           06236                           TC       NOPLWAIT


000283: 21,6255           06256                           TC       +1
000284:
000285: 21,6256           37014                           CAF      2SEC21                                #  CALL READACCS IN 2 SECS
000286: 21,6257           02173                           TC       WAITLIST
000287: 21,6260           65152                           CADR     READACCS
000288:
000289: 21,6261           06236                           TC       NOPLWAIT
000290:
000291: 21,6262           36265        REPRELAL           CAF      REPIP21
000292: 21,6263           06212                           TC       PRELALTS   +1
000293:
000294: 21,6264           61313        PIPCAD21           CADR     PIPASR
000295: 21,6265           61364        REPIP21            CADR     REPIPASR
000296:


000298:
000299: 21,6266           07223        REDO3.21           TC       PRLRSTOR
000300: 21,6267           06301                           TC       RE3.21
000301:
000302: 21,6270           07174        PRAWAKE            TC       PRLSAVE
000303:
000304: 21,6271           10654                           CCS      PHASE5                                #  CHECK IF GRR HAS OCCURED.
000305: 21,6272           33543                           CAF      NINETEEN                              #  3.19 RESTART.
000306: 21,6273           06275                           TC       +2
000307: 21,6274           33545                           CAF      TWENTY1                               #  3.21 RESTART.
000308: 21,6275           02312                           TC       NEWPHASE
000309: 21,6276           00003                           OCT      3
000310:
000311: 21,6277           05654                           TC       BANKCALL
000312: 21,6300           31017                           CADR     1/PIPA
000313:
000314: 21,6301           04000        RE3.21             TC       INTPRET
000315:
000316: 21,6302           43176                           SMOVE    0                                     #  ZERO TO THEAT-SOUTH
000317: 21,6303           03005                                    ZEROPR
000318: 21,6304           33455                           STORE    THETASTH
000319:
000320: 21,6305           47576                           NOLOD    0
000321: 21,6306           33457                           STORE    THETAE                                #  ZERO TO THETA EAST
000322:
000323: 21,6307           76575                           RTB      1
000324: 21,6310           57176                           SIN
000325: 21,6311           20271                                    ZEROVAC
000326: 21,6312           01315                                    LATITUDE
000327: 21,6313           32043                           STORE    SINLAM
000328:
000329: 21,6314           55176                           COS      0
000330: 21,6315           01315                                    LATITUDE
000331: 21,6316           32045                           STORE    COSLAM
000332:
000333: 21,6317           43175                           SMOVE    1
000334: 21,6320           66776                           DSU
000335: 21,6321           03001                                    90DEGAZ
000336: 21,6322           01317                                    AZIMUTH
000337:
000338: 21,6323           57176                           SIN      0
000339: 21,6324           00001                                    0
000340: 21,6325           32003                           STORE    SINAZ
000341:
000342: 21,6326           55176                           COS      0
000343: 21,6327           32005                           STORE    COSAZ
000344:
000345: 21,6330           77576                           EXIT     0
000346:
000347: 21,6331           10654                           CCS      PHASE5                                #  CHECK IF GRR HAS OCCURRED
000348: 21,6332           07032                           TC       PRELTER1


000350: 21,6333           06334                           TC       +1
000351:
000352: 21,6334           02346                           TC       CHECKMM                               #  CHECK IF VERTICAL ERECTION (UNCONDIT.)
000353: 21,6335           00005                           OCT      5
000354: 21,6336           06340                           TC       +2
000355: 21,6337           06451                           TC       NOGYROCM
000356:
000357: 21,6340           02346                           TC       CHECKMM                               #  CHECK IF VERTICAL ERECTION (UNCONDIT.)
000358: 21,6341           00006                           OCT      6
000359: 21,6342           06344                           TC       +2
000360: 21,6343           06457                           TC       TJL
000361:
000362: 21,6344           02346        DOGYROC            TC       CHECKMM                               #  CHECK IF OPTICAL VERIFICATION
000363: 21,6345           00003                           OCT      3
000364: 21,6346           06352                           TC       DOGYROC1
000365:
000366: 21,6347           04000        JSTERTHR           TC       INTPRET
000367:
000368: 21,6350           76776                           ITC      0
000369: 21,6351           02360                                    EARTHRR
000370:
000371: 21,6352           02362        DOGYROC1           TC       NEWMODE
000372: 21,6353           00002                           OCT      2
000373:
000374: 21,6354           04000        DOGYROC2           TC       INTPRET
000375:
000376: 21,6355           76776                           ITC      0
000377: 21,6356           02575                                    GYROCOM
000378:
000379: 21,6357           76776        EARTHRR            ITC      0
000380: 21,6360           02515                                    EARTHRAT
000381:
000382: 21,6361           45176        ENDOFPR            DMOVE    0
000383: 21,6362           01465                                    PIPTIME
000384: 21,6363           33371                           STORE    PREVTIME
000385:
000386: 21,6364           77576                           EXIT     0
000387:
000388: 21,6365           11321                           CCS      PRELTEMP
000389: 21,6366           06436                           TC       JUMPY
000390:
000391: 21,6367           10764                           CCS      LGYRO                                 #  IF BUSY GO AROUND LOOP AGAIN
000392: 21,6370           06437                           TC       JUMPY      +1                         #  WAIT TIL NEXT TIME.  PRELTEM = 0 STILL.
000393:
000394: 21,6371           35501        PTORQUE            CAF      ZERO                                  #  INITIALIZE TORQUING REGISTERS AND RESET
000395: 21,6372           31452                           XCH      THETAX
000396: 21,6373           61333                           AD       INFLANG    +1
000397: 21,6374           51341                           TS       GYROANG    +1
000398: 21,6375           35501                           CAF      ZERO
000399: 21,6376           61332                           AD       INFLANG


000401: 21,6377           51340                           TS       GYROANG
000402:
000403:
000404:
000405: 21,6400           35501                           CAF      ZERO
000406: 21,6401           31446                           XCH      THETAY
000407: 21,6402           61335                           AD       INFLANG    +3
000408: 21,6403           51343                           TS       GYROANG    +3
000409: 21,6404           35501                           CAF      ZERO
000410: 21,6405           61334                           AD       INFLANG    +2
000411: 21,6406           51342                           TS       GYROANG    +2
000412:
000413: 21,6407           35501                           CAF      ZERO
000414: 21,6410           31450                           XCH      THETAZ
000415: 21,6411           61337                           AD       INFLANG    +5
000416: 21,6412           51345                           TS       GYROANG    +5
000417: 21,6413           35501                           CAF      ZERO
000418: 21,6414           61336                           AD       INFLANG    +4
000419: 21,6415           51344                           TS       GYROANG    +4
000420:
000421: 21,6416           35501                           CAF      ZERO
000422: 21,6417           51332                           TS       INFLANG
000423: 21,6420           51333                           TS       INFLANG    +1
000424: 21,6421           51334                           TS       INFLANG    +2
000425: 21,6422           51335                           TS       INFLANG    +3
000426: 21,6423           51336                           TS       INFLANG    +4
000427: 21,6424           51337                           TS       INFLANG    +5
000428:
000429: 21,6425           33532                           CAF      NINE
000430: 21,6426           51321                           TS       PRELTEMP
000431:
000432: 21,6427           02276                           TC       PHASCHNG
000433: 21,6430           02603                           OCT      02603
000434:
000435: 21,6431           20017                           INHINT                                         #  SET UP TORQUING JOB
000436: 21,6432           32162                           CAF      PRIO27
000437: 21,6433           02052                           TC       NOVAC
000438: 21,6434           42442                           CADR     SPITGYRO
000439: 21,6435           02124                           TC       ENDOFJOB
000440:
000441: 21,6436           51321        JUMPY              TS       PRELTEMP
000442:
000443: 21,6437           02276                           TC       PHASCHNG
000444: 21,6440           02603                           OCT      02603
000445:
000446: 21,6441           02124                           TC       ENDOFJOB
000447:
000448:
000449:
000450: 21,6442           37030        SPITGYRO           CAF      LGYROANG


000452: 21,6443           05654                           TC       BANKCALL
000453: 21,6444           31433                           CADR     GYRODPNT
000454:
000455: 21,6445           05654                           TC       BANKCALL
000456: 21,6446           30331                           CADR     IMUSTALL
000457: 21,6447           02124                           TC       ENDOFJOB
000458: 21,6450           02124                           TC       ENDOFJOB
000459:


000461:
000462:                                                                                                  #        VERTICAL ERECTION PROCEDURES.
000463:
000464: 21,6451           11320        NOGYROCM           CCS      GYROCSW                               #  COUNT DOWN FOR 5 MIN OF VERTICAL ERECT.
000465: 21,6452           06456                           TC       MORE                                  #   IF MORE TO COME.
000466: 21,6453           02362                           TC       NEWMODE                               #  IF NOT, GO INTO GYROCOMP. (MM 02)
000467: 21,6454           00002                           OCT      2
000468:
000469: 21,6455           06457                           TC       +2
000470:
000471: 21,6456           51320        MORE               TS       GYROCSW
000472:
000473: 21,6457           04000        TJL                TC       INTPRET
000474:
000475: 21,6460           76776                           ITC      0
000476: 21,6461           02515                                    EARTHRAT
000477:
000478: 21,6462           66775                           DSU      1
000479: 21,6463           64742                           DMP      DAD
000480: 21,6464           01004                                    DELVY
000481: 21,6465           01363                                    FILDELY
000482: 21,6466           02765                                    VERECTC3
000483: 21,6467           01363                                    FILDELY
000484: 21,6470           33363                           STORE    FILDELY
000485:
000486: 21,6471           53575                           AXC,1    1
000487: 21,6472           52572                           AXC,2    ITC
000488: 21,6473           00003                                    2
000489: 21,6474           00001                                    0
000490: 21,6475           02661                                    VERECT
000491:
000492: 21,6476           66775                           DSU      1
000493: 21,6477           64742                           DMP      DAD
000494: 21,6500           01006                                    DELVZ
000495: 21,6501           01361                                    FILDELZ
000496: 21,6502           02765                                    VERECTC3
000497: 21,6503           01361                                    FILDELZ
000498: 21,6504           33361                           STORE    FILDELZ
000499:
000500: 21,6505           53574                           AXC,1    2
000501: 21,6506           47433                           NOLOD    COMP
000502: 21,6507           76776                           ITC
000503: 21,6510           00001                                    0
000504: 21,6511           02661                                    VERECT
000505:
000506: 21,6512           76776                           ITC      0
000507: 21,6513           02362                                    ENDOFPR
000508:


000510:
000511:                                                                                                  #        CALCULATION OF EARTH RATE
000512:
000513: 21,6514           66775        EARTHRAT           DSU      1
000514: 21,6515           63666                           TSLT     DMPR
000515: 21,6516           01465                                    PIPTIME
000516: 21,6517           01371                                    PREVTIME
000517: 21,6520           00014                                    11D
000518: 21,6521           03010                                    GOMEGA
000519:
000520: 21,6522           64775                           DMP      1                                     #   SIN(LAMBDE).DT.LENGTH OMEGA + THETA X
000521: 21,6523           63742                           TSLT     DAD
000522: 21,6524           00001                                    0
000523: 21,6525           00043                                    SINLAM
000524: 21,6526           00002                                    1
000525: 21,6527           01453                                    THETAX
000526: 21,6530           33453                           STORE    THETAX
000527:
000528: 21,6531           64775                           DMP      1                                     #  -COS(LAMBDA).DT.LENGTH OMEGA + THETA STH
000529: 21,6532           63726                           TSLT     BDSU
000530: 21,6533           77777                                    -
000531: 21,6534           00045                                    COSLAM
000532: 21,6535           00002                                    1
000533: 21,6536           01455                                    THETASTH
000534: 21,6537           33455                           STORE    THETASTH
000535:
000536: 21,6540           64775                           DMP      1                                     #   COS(AZIMUTH). SOUTH COMPONENT
000537: 21,6541           63776                           TSLT
000538: 21,6542           01455                                    THETASTH                              #                        TO P.D. LIST
000539: 21,6543           00005                                    COSAZ
000540: 21,6544           00002                                    1
000541:
000542: 21,6545           64774                           DMP      2                                     #   Y COMPONENT = SIN(AZIMUTH).EAST COMP
000543: 21,6546           63742                           TSLT     DAD                                   #                   + COS(AZIMUTH). SOUTH
000544: 21,6547           70776                           DAD
000545: 21,6550           01457                                    THETAE                                #                                    COMP
000546: 21,6551           00003                                    SINAZ
000547: 21,6552           00002                                    1
000548: 21,6553           01447                                    THETAY
000549: 21,6554           33447                           STORE    THETAY
000550:
000551: 21,6555           64775                           DMP      1                                     #   SIN(AZIMUTH). SOUTH COMPONENT
000552: 21,6556           63776                           TSLT
000553: 21,6557           00003                                    SINAZ                                 #                        TO P.D. LIST
000554: 21,6560           01455                                    THETASTH
000555:
000556: 21,6561           00002                                    1
000557: 21,6562           64774                           DMP      2                                     #  Z COMPONENT = COS(AZIMUTH.EAST COMP
000558: 21,6563           63732                           TSLT     DSU
000559: 21,6564           70776                           DAD
000560: 21,6565           00005                                    COSAZ                                 #               -SIN(AZIMUTH).SOUTH COMP


000562: 21,6566           01457                                    THETAE
000563: 21,6567           00002                                    1
000564: 21,6570           77777                                    -
000565: 21,6571           01451                                    THETAZ
000566: 21,6572           33451                           STORE    THETAZ
000567:
000568: 21,6573           40576                           ITCQ     0
000569:


000571:
000572:                                                                                                  #        COMPUTATION OF GYROCOMPASS COMMAND
000573:
000574: 21,6574           45575        GYROCOM            ITA      1
000575: 21,6575           64716                           DMP      TSLT
000576: 21,6576           00052                                    S2
000577: 21,6577           01006                                    DELVZ
000578: 21,6600           00005                                    COSAZ
000579: 21,6601           00002                                    1
000580:
000581: 21,6602           64775                           DMP      1                                     #  DELTA-V(EAST)= COS(AZ).DELTA-V(Z)
000582: 21,6603           63742                           TSLT     DAD
000583: 21,6604           01004                                    DELVY
000584: 21,6605           00003                                    SINAZ
000585: 21,6606           00002                                    1
000586: 21,6607           33361                           STORE    DELE
000587:
000588: 21,6610           53574                           AXC,1    2
000589: 21,6611           52435                           AXC,2    NOLOD
000590: 21,6612           47172                           COMP     ITC
000591: 21,6613           00007                                    6
000592: 21,6614           00003                                    2
000593: 21,6615           02661                                    VERECT
000594:
000595: 21,6616           64775                           DMP      1                                     #  SIN(AZ).DELTA-V(Z)
000596: 21,6617           63776                           TSLT
000597: 21,6620           01006                                    DELVZ
000598: 21,6621           00003                                    SINAZ
000599: 21,6622           00002                                    1
000600:
000601: 21,6623           64775                           DMP      1                                     #  DELTA-V(SOUTH= COS(AZ.DELTA-V(Y)
000602: 21,6624           63732                           TSLT     DSU
000603: 21,6625           01004                                    DELVY
000604: 21,6626           00005                                    COSAZ
000605: 21,6627           00002                                    1
000606: 21,6630           33363                           STORE    DELS
000607:
000608: 21,6631           64776                           DMP      0
000609: 21,6632           01363                                    DELS                                  #   C1. DELTA-V(SOUTH) TO P.D. LIST
000610: 21,6633           02767                                    GYRCMC1
000611:
000612: 21,6634           64775                           DMP      1                                     #  FILTER = C1. DELTA-V(SOUTH)
000613: 21,6635           70776                           DAD                                            #          +C2. FILTER
000614: 21,6636           01357                                    FILTER
000615: 21,6637           02771                                    GYRCMC2
000616: 21,6640           33357                           STORE    FILTER
000617:
000618: 21,6641           47574                           NOLOD    2
000619: 21,6642           64716                           DMP      TSLT
000620: 21,6643           70776                           DAD
000621: 21,6644           02773                                    GYRCMC3


000623: 21,6645           00010                                    7
000624: 21,6646           01453                                    THETAX
000625: 21,6647           33453                           STORE    THETAX
000626:
000627: 21,6650           64775                           DMP      1                                     #  EAST-TORQUING ANGLE = C4.FILTER
000628: 21,6651           63776                           TSLT
000629: 21,6652           01363                                    DELS
000630: 21,6653           02775                                    GYRCMC4
000631: 21,6654           00004                                    3
000632: 21,6655           33457                           STORE    THETAE
000633:
000634: 21,6656           44576                           ITCI     0
000635: 21,6657           00052                                    S2
000636:


000638:
000639:                                                                                                  #  VERTICAL ERECTION SUBROUTINE
000640:
000641:                                                                                                  #  VERECT - VERTICAL ERECTION      ENTERED IN INT. MODE WITH
000642:                                                                                                  #                    SUBROUTINE            C(X1)= 2 FOR C(MPAC)= DEL-V Y
000643:                                                                                                  #                                               = 0     C(MPAC)=-DEL-V Z
000644:                                                                                                  #                                               = 6 FOR C(MPAC)=-DEL-V E
000645:                                                                                                  #                                   FOR THESE THREE CASES OUTPUT WILL BE
000646:                                                                                                  #                                                THETA-Z
000647:                                                                                                  #                                                THETA-Y
000648:                                                                                                  #                                                THETA-S RESPECTIVELY.
000649:                                                                                                  #                                   LOOP CONSTANTS ARE DETERMINED BY
000650:                                                                                                  #                                          C(X2)= 0 NO GYROCOMPASSING
000651:                                                                                                  #                                                 2    GYROCOMPASSING
000652:
000653:
000654:
000655: 21,6660           47576        VERECT             NOLOD    0
000656:
000657: 21,6661           32001                           STORE    0
000658:
000659: 21,6662           47575                           NOLOD    1
000660: 21,6663           70376                           DAD*
000661: 21,6664           02751                                    INT,1                                 #  COMPUTE INTEGRAL OF DEL-V = INT
000662: 21,6665           36751                           STORE    INT,1
000663:
000664: 21,6666           45175                           DMOVE    1
000665: 21,6667           64316                           DMP*     TSLT
000666: 21,6670           00001                                    0
000667: 21,6671           05732                                    VERECTC1,2
000668: 21,6672           00006                                    5
000669:
000670: 21,6673           64375                           DMP*     1
000671: 21,6674           70342                           DAD*     DAD
000672: 21,6675           02751                                    INT,1                                 #  THETA = THETA + C1 DEL-V  + C2 INT
000673: 21,6676           05742                                    VERECTC2,2
000674: 21,6677           03115                                    THETAY,1
000675: 21,6700           37115                           STORE    THETAY,1
000676:
000677: 21,6701           40576                           ITCQ     0
000678:


000680:
000681:                                                                                                  #        PRELAUNCH MANUAL REQUEST PROCESSOR.
000682:
000683: 21,6702           34501        STARTPL            CAF      PRIO20                                #  ENTER EXECUTIVE REQUEST ON START-UP.
000684: 21,6703           02046                           TC       FINDVAC
000685: 21,6704           42147                           CADR     STARTPL2
000686: 21,6705           05702                           TC       SWRETURN
000687:
000688: 21,6706           44513        PLSTCHK            CS       EIGHT                                 #  PRELAUNCH COMES HERE WHENEVER A PHASE
000689: 21,6707           60115                           AD       MPAC                                  #  REFERENCE IS MADE TO SEE IF A MANUAL
000690: 21,6710           10000                           CCS      A                                     #  REQUEST HAS BEEN ENTERED THROUGH MASTER
000691: 21,6711           00001                           TC       Q                                     #  CONTROL. ALL SUCH PHASES ARE LESS THAN 8
000692: 21,6712           24000        PLPRIO             OCT      24000
000693: 21,6713           06714                           TC       +1
000694:
000695: 21,6714           20115                           INDEX    MPAC                                  #  SEE WHICH MANUAL MODE REQUESTED.
000696: 21,6715           06715                           TC       +0
000697: 21,6716           06000                           TC       TOP1                                  #  1 - INITIALIZATION 1.
000698: 21,6717           06100                           TC       TOP2                                  #  2 - INITIALIZATION 2.
000699: 21,6720           07252                           TC       OPTCHK                                #  3 - DO OPTICAL CHECK
000700:
000701: 21,6721           10727        PLFINCHK           CCS      WASKSET                               #  SEE IF IN FINE ALIGN.
000702: 21,6722           06726                           TC       3CHECK
000703: 21,6723           06746                           TC       PRELEXIT                              #  SYSTEM IN BAD SHAPE.
000704: 21,6724           06733                           TC       DOPLCHNG                              #  DO THE CHANGE ANYWAY.
000705: 21,6725           06746                           TC       PRELEXIT                              #  SYSTEM IN BAD SHAPE.
000706:
000707: 21,6726           66731        3CHECK             AD       -CCSFINE
000708: 21,6727           10000                           CCS      A
000709: 21,6730           06000                           TC       TOP1
000710: 21,6731           77730        -CCSFINE           OCT      -47                                   #  WASKSET IS 50 FOR FINE ALIGN.
000711: 21,6732           06000                           TC       TOP1
000712:
000713: 21,6733           20115        DOPLCHNG           INDEX    MPAC
000714: 21,6734           06732                           TC       -2
000715: 21,6735           06741                           TC       DOPL14
000716:
000717: 21,6736           02362        DOPL15             TC       NEWMODE                               #  SET MAJOR MODE TO GYROCOMPASSING
000718: 21,6737           00002                           OCT      2
000719:
000720: 21,6740           06344                           TC       DOGYROC
000721:
000722: 21,6741           02362        DOPL14             TC       NEWMODE                               #  SET MAJOR MODE TO UNCONDITIONAL VERT-
000723: 21,6742           00006                           OCT      6                                     #  ICAL ERECTION
000724:
000725: 21,6743           06457                           TC       TJL
000726:


000728:
000729:                                                                                                  #        PRELAUNCH GO-SEQUENCE PROCESSOR.
000730:
000731:                                                                                                  #          HAS BEEN DELETED.  SEE GENERAL RESTARTS.   ...DJL
000732:
000733: 21,6744           00050        FINECODE           OCT      50                                    #  FINE ALIGN AND COMPUTER CONTROL.
000734:
000735:                                                                                                  #        PRELAUNCH TERMINATION.
000736:
000737: 21,6745           03362                           TC       FREEDSP
000738: 21,6746           05654        PRELEXIT           TC       BANKCALL                              #  RETURN IMU TO MANUAL CONTROL.
000739: 21,6747           30241                           CADR     IMUFINIS
000740:
000741: 21,6750           44516        ENDJ3OUT           CS       ONE
000742: 21,6751           02312                           TC       NEWPHASE
000743: 21,6752           00003                           OCT      3
000744:
000745: 21,6753           02124                           TC       ENDOFJOB
000746:


000748:
000749:                                                                                                  #  PRELAUNCH BANK STORED CONSTANTS
000750:
000751: 21,6754           24000 00000  VERECTC1           2DEC     20.        B-5                        #  VERTICAL LOOP CONSTANTS
000752: 21,6756           02000 00000                     2DEC     2          B-5
000753: 21,6760           14631 23146  VERECTC2           2DEC     .4
000754: 21,6762           00101 21116                     2DEC     .004
000755: 21,6764           03146 14632  VERECTC3           2DEC     .1
000756: 21,6766           03146 14632  GYRCMC1            2DEC     0.1
000757: 21,6770           34631 23146  GYRCMC2            2DEC     0.9
000758: 21,6772           56777 77777  GYRCMC3            2DEC     -68        B-7
000759: 21,6774           20000 00000  GYRCMC4            2DEC     4          B-3
000760: 21,6776           03610 01227  LABLAT             2DEC     .117678252                            #  LATITUDE OF IL-7
000761: 21,7000           10000 00000  90DEGAZ            2DEC     .25                                   #  90 DEG. FROM NORTH = EAST
000762: 21,7002           00062        PRELDT             DEC      .5         E2                         #  HALF SECOND PRELAUNCH CYCLE
000763:
000764: 21,7003           42270        WAKEPRAD           CADR     PRAWAKE                               #  WAKING ADDRESS FOR PRELAUNCH
000765:
000766: 21,7004           00000        ZEROPR             OCT      0                                     #  OUR OWN PERSONAL COPY OF ZERO
000767:
000768: 21,7005           03711 33265  LOMEGA             2DEC     .12169524                             #  EARTH RATE IN IRIG PULSES PER .01 SEC.
000769: 21,7007           37116 32652  GOMEGA             2DEC     0.97356192                            #  EARTH RATE IN IRIG PULSES/CS
000770: 21,7011           06200        PLPIPADT           DEC      50         B+6
000771: 21,7012           77746        -.25SC21           DEC      -25        B-14
000772: 21,7013           77715        NEG.5SEC           DEC      -50        B-14
000773:
000774: 21,7014           00310        2SEC21             DEC      200        B-14
000775: 21,7015           00000 00372  DP2.5SEC           2DEC     250        B-28
000776: 21,7017           00060        BITS56             DEC      48         B-14
000777: 21,7020           37116 32666  SIDEDAYS           2DEC*    .011605763 E-5        B23*            #  FRACTION OF T2-T1 IN SIDEREAL DAY
000778: 21,7022           13644 33772  LOCALUP            2DEC     .738876298 B-1
000779: 21,7024           00000 00000                     2DEC     .0                                    #  VECTOR AT TIME C(T2,T1) = 0
000780: 21,7026           12620 03315                     2DEC     .673841098 B-1


000782: 21,7030           01340        LGYROANG           ADRES    GYROANG
000783: 21,7031           00011        IX                 DEC      9          B-14
000784:


000786:
000787:                                                                                                  #  PRELAUNCH TERMINATION PHASE(AFTER G.R. SIGNAL)
000788:
000789:
000790:
000791: 21,7032           04000        PRELTER1           TC       INTPRET
000792:
000793: 21,7033           70776                           DAD      0
000794: 21,7034           01371                                    PREVTIME
000795: 21,7035           03016                                    DP2.5SEC
000796: 21,7036           33371                           STORE    PREVTIME
000797:
000798: 21,7037           76776                           ITC      0
000799: 21,7040           02515                                    EARTHRAT                              #  CHANGED BY MR. FIXIT.
000800:
000801: 21,7041           77576                           EXIT     0
000802:
000803: 21,7042           35501                           CAF      ZERO
000804: 21,7043           51340                           TS       GYROANG
000805: 21,7044           51342                           TS       GYROANG    +2
000806: 21,7045           51344                           TS       GYROANG    +4
000807:
000808: 21,7046           31452                           XCH      THETAX
000809: 21,7047           51341                           TS       GYROANG    +1
000810: 21,7050           31446                           XCH      THETAY
000811: 21,7051           51343                           TS       GYROANG    +3
000812: 21,7052           31450                           XCH      THETAZ
000813: 21,7053           51345                           TS       GYROANG    +5
000814:
000815: 21,7054           20017                           INHINT
000816: 21,7055           32164                           CAF      PRIO31                                #   CHANGED BY MR. FIXIT.
000817: 21,7056           02052                           TC       NOVAC
000818: 21,7057           42442                           CADR     SPITGYRO
000819: 21,7060           20016                           RELINT
000820:
000821: 21,7061           02362                           TC       NEWMODE
000822: 21,7062           00004                           OCT      04                                    #  INERTIAL REFERENCE.
000823:
000824: 21,7063           04000                           TC       INTPRET
000825:
000826: 21,7064           70776                           DAD      0                                     #  FORM TIME SINCE LAUNCH VECTOR IN
000827: 21,7065           01074                                    DTEPOCH                               #  INERTIAL Z-X PLANE
000828: 21,7066           01467                                    TIME2GR
000829: 21,7067           33145                           STORE    DTEAROT
000830:
000831: 21,7070           76776                           ITC      0                                     #  BRANCH TO FORCE WT TO LESS THAN 1 REV
000832: 21,7071           13463                                    EARROT2
000833:
000834: 21,7072           57176                           SIN      0                                     #  FORM INERTIAL Z-X PLANE LOCAL VERTICAL
000835: 21,7073           01315                                    LATITUDE


000837: 21,7074           45176                           DMOVE    0
000838: 21,7075           05174                                    ZERODP
000839:
000840: 21,7076           55175                           COS      1
000841: 21,7077           41176                           VDEF
000842: 21,7100           01315                                    LATITUDE
000843: 21,7101           32041                           STORE    VAC
000844:
000845: 21,7102           43576                           TEST     0                                     #  TEST IF BIT IS ON. IF NOT SET IT ON
000846: 21,7103           00006                                    NBSMBIT
000847: 21,7104           03167                                    NBITON
000848:
000849: 21,7105           75575        ROTXY              AXT,1    1                                     #  ROTATE PROJECTION OF LOCAL VERTICAL ON
000850: 21,7106           74572                           AXT,2    ITC                                   #  INERTIAL X-Y PLANE ABOUT Z-AXIS
000851: 21,7107           00003                                    2
000852: 21,7110           00005                                    4
000853: 21,7111           04566                                    ACCUROT
000854:
000855: 21,7112           47576                           NOLOD    0
000856: 21,7113           33052                           STORE    REFSMMAT                              #  PRESENT LOCAL VERTICAL VECTOR IS X-AXIS
000857:
000858: 21,7114           45176                           DMOVE    0
000859: 21,7115           05174                                    ZERODP
000860:
000861: 21,7116           45176                           DMOVE    0
000862: 21,7117           00041                                    VAC
000863:
000864: 21,7120           47175                           COMP     1                                     #  FORM UNIT EAST VECTOR AT GRR
000865: 21,7121           41153                           VDEF     UNIT
000866: 21,7122           00043                                    VAC        +2
000867:
000868: 21,7123           47575                           NOLOD    1                                     #  FORM UNIT SOUTH VECTOR
000869: 21,7124           41753                           VXV      UNIT
000870: 21,7125           01052                                    REFSMMAT
000871:
000872: 21,7126           66776                           DSU      0                                     #  FORM AZIMUTH SOUTH OF EAST AT GRR
000873: 21,7127           01317                                    AZIMUTH
000874: 21,7130           03001                                    90DEGAZ
000875: 21,7131           32037                           STORE    30D
000876:
000877: 21,7132           47575                           NOLOD    1
000878: 21,7133           57166                           SIN      VXSC
000879: 21,7134           33066                           STORE    REFSMMAT   +12D                       #  (TEMPORARY STORAGE)
000880:
000881: 21,7135           55174                           COS      2                                     #  FORM SM Z-AXIS
000882: 21,7136           75642                           VXSC     VAD
000883: 21,7137           73176                           UNIT
000884: 21,7140           00037                                    30D
000885: 21,7141           77777                                    -
000886: 21,7142           01066                                    REFSMMAT   +12D


000888: 21,7143           33066                           STORE    REFSMMAT   +12D
000889:
000890: 21,7144           47575                           NOLOD    1                                     #  FORM SM Y-AXIS BY CROSS PRODUCT
000891: 21,7145           41753                           VXV      UNIT
000892: 21,7146           01052                                    REFSMMAT
000893: 21,7147           33060                           STORE    REFSMMAT   +6
000894:
000895: 21,7150           41775                           VXV      1                                     #  INITIALISE VN, GRAVITY GIVEN RN, UNITW
000896: 21,7151           75776                           VXSC
000897: 21,7152           01044                                    UNITW
000898: 21,7153           00766                                    RN                                    #  SCALED AT 2(+25) METERS
000899: 21,7154           03173                                    WIE
000900: 21,7155           32774                           STORE    VN                                    #  SCALED AT 2(+7)M/CS
000901:
000902: 21,7156           75175                           VMOVE    1
000903: 21,7157           76776                           ITC
000904: 21,7160           00766                                    RN
000905: 21,7161           21643                                    CALCGRAV
000906:
000907: 21,7162           77576                           EXIT     0
000908:
000909: 21,7163           32164                           CAF      PRIO31                                #  GUESS WHAT WE:RE DOING
000910: 21,7164           50755                           TS       1/PIPADT                              #  GIVE UP  WOULD YOU BELEIVE 2 SECONDS
000911:
000912: 21,7165           06750                           TC       ENDJ3OUT                              #  TERMINATE PRELAUNCH. (PHASE = INACTIVE.)
000913:
000914:
000915:
000916: 21,7166           42575        NBITON             SWITCH   1
000917: 21,7167           76776                           ITC
000918: 21,7170           00006                                    NBSMBIT
000919: 21,7171           03106                                    ROTXY
000920:
000921: 21,7172           14167 34104  WIE                2DEC*    7.29211505 E-7        B+19*           #  RAD/CS SCALED AT 2(-19)
000922:


000924:
000925: 21,7174           30001        PRLSAVE            XCH      Q                                     #  SAVE CURRENT VARIABLES FOR RESTARTS
000926: 21,7175           50116                           TS       MPAC       +1
000927:
000928: 21,7176           33535                           CAF      THIRTEEN
000929: 21,7177           50115        AGAIN1             TS       MPAC
000930: 21,7200           20115                           INDEX    MPAC
000931: 21,7201           41356                           CS       FILTER
000932: 21,7202           20115                           INDEX    MPAC
000933: 21,7203           51243                           TS       PTEMP
000934: 21,7204           10115                           CCS      MPAC
000935: 21,7205           07177                           TC       AGAIN1
000936:
000937: 21,7206           33533                           CAF      ELEVEN
000938: 21,7207           50115        AGAIN2             TS       MPAC
000939: 21,7210           20115                           INDEX    MPAC
000940: 21,7211           41446                           CS       THETAY
000941: 21,7212           20115                           INDEX    MPAC
000942: 21,7213           51261                           TS       PTEMP      +14D
000943: 21,7214           10115                           CCS      MPAC
000944: 21,7215           07207                           TC       AGAIN2
000945:
000946: 21,7216           41321                           CS       PRELTEMP
000947: 21,7217           51275                           TS       PTEMP      +26D
000948: 21,7220           41320                           CS       GYROCSW
000949: 21,7221           51276                           TS       PTEMP      +27D
000950:
000951: 21,7222           00116                           TC       MPAC       +1
000952:
000953: 21,7223           30001        PRLRSTOR           XCH      Q                                     #  RESTORE OLD VALUES OF VARIABLES
000954: 21,7224           50116                           TS       MPAC       +1
000955:
000956: 21,7225           33535                           CAF      THIRTEEN
000957: 21,7226           50115        AGAIN3             TS       MPAC
000958: 21,7227           20115                           INDEX    MPAC
000959: 21,7230           41243                           CS       PTEMP
000960: 21,7231           20115                           INDEX    MPAC
000961: 21,7232           51356                           TS       FILTER
000962: 21,7233           10115                           CCS      MPAC
000963: 21,7234           07226                           TC       AGAIN3
000964:
000965: 21,7235           33533                           CAF      ELEVEN
000966: 21,7236           50115        AGAIN4             TS       MPAC
000967: 21,7237           20115                           INDEX    MPAC
000968: 21,7240           41261                           CS       PTEMP      +14D
000969: 21,7241           20115                           INDEX    MPAC
000970: 21,7242           51446                           TS       THETAY
000971: 21,7243           10115                           CCS      MPAC
000972: 21,7244           07236                           TC       AGAIN4
000973:
000974: 21,7245           41275                           CS       PTEMP      +26D


000976: 21,7246           51321                           TS       PRELTEMP
000977: 21,7247           41276                           CS       PTEMP      +27D
000978: 21,7250           51320                           TS       GYROCSW
000979:
000980: 21,7251           00116                           TC       MPAC       +1
000981:


000983:
000984:                                                                                                  #  PRELAUNCH CHECK PROCEDURE (USES THE Z-NORTH SYSTEM OF AXES)
000985:
000986:
000987:
000988: 21,7252           20017        OPTCHK             INHINT
000989: 21,7253           32150                           CAF      PRIO14
000990: 21,7254           02046                           TC       FINDVAC                               #  CALL WITH PRIORITY OF TWENTY
000991: 21,7255           43262                           CADR     CHKOPT
000992:
000993: 21,7256           34514                           CAF      BIT3
000994: 21,7257           50115                           TS       MPAC
000995: 21,7260           06721                           TC       PLFINCHK
000996: 21,7261           06354                           TC       DOGYROC2
000997:
000998: 21,7262           03302        CHKOPT             TC       GRABDSP
000999: 21,7263           03310                           TC       PREGBSY
001000:
001001: 21,7264           02362                           TC       NEWMODE
001002: 21,7265           00003                           OCT      03
001003:
001004: 21,7266           35501                           CAF      ZERO
001005: 21,7267           51400                           TS       STARS
001006: 21,7270           64516                           AD       ONE
001007: 21,7271           50620                           TS       DSPTEM1    +2
001008: 21,7272           37540                           CAF      V06N30P
001009: 21,7273           03100                           TC       NVSUB
001010: 21,7274           03315                           TC       PRENVBSY
001011: 21,7275           21400                           INDEX    STARS
001012: 21,7276           31346                           XCH      TAZ
001013: 21,7277           50616                           TS       DSPTEM1
001014: 21,7300           21400                           INDEX    STARS
001015: 21,7301           31350                           XCH      TEL
001016: 21,7302           50617                           TS       DSPTEM1    +1
001017:
001018: 21,7303           07542                           TC       CHECKNV
001019: 21,7304           00661                           OCT      00661
001020: 21,7305           07441                           TC       CHEXIT
001021: 21,7306           30616                           XCH      DSPTEM1
001022: 21,7307           21400                           INDEX    STARS
001023: 21,7310           51346                           TS       TAZ
001024: 21,7311           30617                           XCH      DSPTEM1    +1
001025: 21,7312           21400                           INDEX    STARS
001026: 21,7313           51350                           TS       TEL
001027:
001028: 21,7314           11400                           CCS      STARS
001029: 21,7315           07320                           TC       +3
001030: 21,7316           34516                           CAF      ONE
001031: 21,7317           07267                           TC       CHKOPT     +5
001032: 21,7320           50620                           TS       DSPTEM1    +2


001034: 21,7321           35503                           CAF      TWO
001035: 21,7322           50617                           TS       DSPTEM1    +1
001036: 21,7323           34516                           CAF      ONE
001037: 21,7324           50616                           TS       DSPTEM1                               #  SETS UP STAR NUMBER DISPLAY
001038:
001039: 21,7325           37540                           CAF      V06N30P
001040: 21,7326           03100                           TC       NVSUB
001041: 21,7327           03315                           TC       PRENVBSY
001042: 21,7330           35503                           CAF      TWO
001043: 21,7331           05654                           TC       BANKCALL
001044: 21,7332           30406                           CADR     SXTMARK
001045: 21,7333           05654                           TC       BANKCALL
001046: 21,7334           30327                           CADR     OPTSTALL
001047: 21,7335           07441                           TC       CHEXIT
001048: 21,7336           04000                           TC       INTPRET
001049:
001050: 21,7337           76776                           ITC      0
001051: 21,7340           03475                                    PROCTARG
001052:
001053: 21,7341           76776                           ITC      0
001054: 21,7342           03446                                    MAKEXSM                               #  COMPUTE DESIRED SM ORIENTAYION IN REC
001055:
001056: 21,7343           52775                           MXV      1
001057: 21,7344           44776                           VSLT
001058: 21,7345           01403                                    TARGET1
001059: 21,7346           01425                                    XSM
001060: 21,7347           00002                                    1
001061: 21,7350           33403                           STORE    STARAD
001062: 21,7351           52775                           MXV      1
001063: 21,7352           44776                           VSLT
001064: 21,7353           01411                                    TARGET1    +6
001065: 21,7354           01425                                    XSM
001066: 21,7355           00002                                    1
001067: 21,7356           33411                           STORE    STARAD     +6
001068:
001069: 21,7357           71574                           LXC,1    2
001070: 21,7360           74471                           AXT,2    XSU,2
001071: 21,7361           66572                           SXA,2    ITC
001072: 21,7362           00736                                    MARKSTAT
001073: 21,7363           00003                                    2
001074: 21,7364           00047                                    X1
001075: 21,7365           00051                                    S1
001076: 21,7366           04733                                    SXTNB
001077:
001078: 21,7367           76776                           ITC      0
001079: 21,7370           04524                                    NBSM
001080:
001081: 21,7371           75176                           VMOVE    0
001082: 21,7372           00041                                    STARM
001083: 21,7373           33375                           STORE    VECTEM


001085: 21,7374           71574                           LXC,1    2
001086: 21,7375           63561                           INCR,1   AXT,2
001087: 21,7376           56531                           XSU,2    SXA,2
001088: 21,7377           00736                                    MARKSTAT
001089: 21,7400           77771                                    -7
001090: 21,7401           00003                                    2
001091: 21,7402           00047                                    X1
001092: 21,7403           00051                                    S1
001093:
001094: 21,7404           76776                           ITC      0
001095: 21,7405           04733                                    SXTNB
001096:
001097: 21,7406           76776                           ITC      0
001098: 21,7407           04524                                    NBSM
001099:
001100: 21,7410           75176                           VMOVE    0
001101: 21,7411           00041                                    STARM
001102: 21,7412           32015                           STORE    12D
001103:
001104: 21,7413           75176                           VMOVE    0
001105: 21,7414           01375                                    VECTEM
001106: 21,7415           32007                           STORE    6                                     #  TO AVOID ERASABLE BIND
001107:
001108: 21,7416           76776                           ITC      0                                     #  FIND DESIRED SM IN PRESENT SM
001109: 21,7417           04761                                    AXISGEN
001110:
001111: 21,7420           76776                           ITC      0                                     #  CALCULATE REQUIRED PULSE TORQUE IN GYROD
001112: 21,7421           04353                                    CALCGTA
001113:
001114: 21,7422           45776                           VSRT     0
001115: 21,7423           01521                                    OGC
001116: 21,7424           00011                                    8D
001117: 21,7425           33521                           STORE    OGC                                   #  CHANGE UNITS FROM 2PI TO GYRO PULSES
001118:
001119: 21,7426           77576                           EXIT     0
001120:
001121:
001122:
001123: 21,7427           05654                           TC       BANKCALL
001124: 21,7430           30453                           CADR     MKRELEAS
001125: 21,7431           07542                           TC       CHECKNV
001126: 21,7432           00667                           OCT      00667
001127: 21,7433           07441                           TC       CHEXIT
001128: 21,7434           04000                           TC       INTPRET
001129:
001130: 21,7435           75176                           VMOVE    0
001131: 21,7436           01521                                    OGC                                   #  GETS SUMMED INTO PRELAUNCH
001132: 21,7437           33333                           STORE    INFLANG
001133:
001134: 21,7440           77576                           EXIT     0


001136:
001137: 21,7441           03362        CHEXIT             TC       FREEDSP
001138: 21,7442           02362                           TC       NEWMODE
001139: 21,7443           00002                           OCT      02
001140: 21,7444           02124                           TC       ENDOFJOB
001141:


001143:
001144:                                                                                                  #  SUBROUTINE TO COMPUTE DESIRED SM AXES IN REC
001145:
001146: 21,7445           77576        MAKEXSM            EXIT     0
001147: 21,7446           37541                           CAF      XVII
001148: 21,7447           50077                           TS       BUF
001149: 21,7450           35501                           CAF      ZERO                                  #  ZERO ALL OF XSM
001150: 21,7451           20077                           INDEX    BUF
001151: 21,7452           51424                           TS       XSM
001152: 21,7453           10077                           CCS      BUF
001153: 21,7454           07447                           TC       MAKEXSM    +2
001154: 21,7455           34522                           CAF      HALF
001155: 21,7456           51424                           TS       XSM                                   #  HALF UNIT MATRIX IS COMPUTED
001156:
001157: 21,7457           04000                           TC       INTPRET
001158:
001159: 21,7460           55176                           COS      0
001160: 21,7461           01317                                    AZIMUTH
001161: 21,7462           33435                           STORE    XSM        +8D
001162:
001163: 21,7463           47576                           NOLOD    0
001164: 21,7464           33445                           STORE    XSM        +16D
001165:
001166: 21,7465           57176                           SIN      0
001167: 21,7466           01317                                    AZIMUTH
001168: 21,7467           33443                           STORE    XSM        +14D
001169:
001170: 21,7470           47176                           COMP     0
001171: 21,7471           01443                                    XSM        +14D
001172: 21,7472           33437                           STORE    XSM        +10D
001173:
001174: 21,7473           40576                           ITCQ     0
001175:


001177:
001178:                                                                                                  #  ROUTINE TO CONVERT TARGET AZIMUTH AND ELEVATIONS TO VECTORS
001179:
001180:
001181:
001182: 21,7474           75575        PROCTARG           AXT,1    1
001183: 21,7475           74461                           AXT,2    AST,2
001184: 21,7476           00002                                    1
001185: 21,7477           00015                                    12D
001186: 21,7500           00007                                    6
001187:
001188: 21,7501           42175        PROC1              SMOVE*   1
001189: 21,7502           56776                           TSRT
001190: 21,7503           02723                                    TEL        +1,1
001191: 21,7504           00003                                    2
001192: 21,7505           32001                           STORE    0
001193:
001194: 21,7506           57176                           SIN      0
001195: 21,7507           00001                                    0
001196: 21,7510           37036                           STORE    TARGET1    +12D,2
001197: 21,7511           55176                           COS      0
001198: 21,7512           00001                                    0                                     #  PUSH DOWN THE COSINE OF ELEVATION
001199:
001200: 21,7513           42175                           SMOVE*   1
001201: 21,7514           76576                           RTB
001202: 21,7515           02717                                    TAZ        +1,1
001203: 21,7516           20304                                    CDULOGIC
001204: 21,7517           32003                           STORE    2                                     #  THEN Y=0.5SIN(AZ)COS(EL)
001205:
001206: 21,7520           57175                           SIN      1
001207: 21,7521           64716                           DMP      TSLT
001208: 21,7522           00003                                    2
001209: 21,7523           00001                                    0
001210: 21,7524           00002                                    1
001211: 21,7525           37042                           STORE    TARGET1    +14D,2
001212:
001213: 21,7526           55175                           COS      1
001214: 21,7527           64716                           DMP      TSLT
001215: 21,7530           00003                                    2
001216: 21,7531           77777                                    -
001217: 21,7532           00002                                    1
001218: 21,7533           37046                           STORE    TARGET1    +16D,2
001219: 21,7534           75575                           AXT,1    1
001220: 21,7535           50401                           TIX,2    ITCQ
001221: 21,7536           00001                                    0
001222: 21,7537           03502                                    PROC1
001223:


001225:
001226:                                                                                                  #  ROUTINE TO ROTATE COORDINATE SYSTEM BY EARTHRATE TIMES TIME           ON
001227:
001228:
001229:
001230: 21,7540           00630        V06N30P            OCTAL    00630
001231: 21,7541           00021        XVII               DEC      17         B-14
001232:


001234:
001235:                                                                                                  #  ROUTINE TO DISPLAY STORED DATA FOR CHECKING AND MODIFICATION,VERB NOUN
001236:                                                                                                  #  IS STORED AT L +1,RETURN IS TO L +2 FOR TERMINATE,L +3 FOR GOOD DATA OR PROCEDE
001237:
001238:
001239:
001240: 21,7542           30001        CHECKNV            XCH      Q
001241: 21,7543           51354                           TS       CHKNVTEM
001242: 21,7544           21354                           INDEX    CHKNVTEM
001243: 21,7545           30000                           XCH      A
001244:
001245: 21,7546           03100                           TC       NVSUB
001246: 21,7547           07562                           TC       CHECKNV1
001247: 21,7550           05654                           TC       BANKCALL
001248: 21,7551           14000                           CADR     FLASHON
001249:
001250: 21,7552           03136                           TC       ENDIDLE
001251: 21,7553           07556                           TC       +3
001252: 21,7554           07560                           TC       +4
001253: 21,7555           07544                           TC       CHECKNV    +2
001254:
001255: 21,7556           21354                           INDEX    CHKNVTEM
001256: 21,7557           00001                           TC       Q
001257: 21,7560           21354                           INDEX    CHKNVTEM
001258: 21,7561           00002                           TC       Z
001259:
001260: 21,7562           37564        CHECKNV1           CAF      CHECKNV2
001261: 21,7563           03320                           TC       NVSUBUSY
001262: 21,7564           43544        CHECKNV2           CADR     CHECKNV    +2

End of include-file PRELAUNCH_ALIGNMENT_PROGRAM.agc.  Parent file is MAIN.agc


