
Source Code


000002:                                                                                                  #  Copyright:    Public domain.
000003:                                                                                                  #  Filename:     PRELAUNCH_ALIGNMENT_PROGRAM.agc
000004:                                                                                                  #  Purpose:      Part of the source code for Solarium build 55. This
000005:                                                                                                  #                is for the Command Module's (CM) Apollo Guidance
000006:                                                                                                  #                Computer (AGC), for Apollo 6.
000007:                                                                                                  #  Assembler:    yaYUL --block1
000008:                                                                                                  #  Contact:      Jim Lawton <jim DOT lawton AT gmail DOT com>
000009:                                                                                                  #  Website:      www.ibiblio.org/apollo/index.html
000010:                                                                                                  #  Page scans:   www.ibiblio.org/apollo/ScansForConversion/Solarium055/
000011:                                                                                                  #  Mod history:  2009-10-05 JL   Created.
000012:                                                                                                  #                2009-10-30 JL   Fixed filename comment.
000013:                                                                                                  #                2016-08-20 RSB  Resolved Jim's uncertainty about TP.
000014:                                                                                                  #                2016-08-23 RSB  Typos.
000015:
000016:                                                                                                  # # Page 332
000017:
000018:                                                                                                  #  THE PRELAUNCH ALIGNMENT PROGRAM CONSISTS OF TWO PARTS- VERTICAL ERECTION AND GYROCOMPASSING. IN THE FIRST CASE
000019:                                                                                                  #  THE Z PIPA INPUTS ARE USED TO CONTROL THE Y GYRO IN SUCH A WAY THAT THESE INPUTS ARE NULLED. A SIMILAR SIT-
000020:                                                                                                  #  UATION APPLIES TO THE Y PIPA INPUTS AND THE Z GYRO.IN THE GYROCOMPASSING CASE, THE Y PIPA INPUTS ARE USED IN
000021:                                                                                                  #  EXACTLY THE SAME FASHION AS IN VERTICAL ERECTION. THE Z PIPA INPUTS ARE SPLIT BETWEEN THE Y GYRO TO HOLD THE
000022:                                                                                                  #  VERTICAL AND THE X GYRO TO POINT THE Z AXIS ALONG SOME DESIRED AZIMUTH.
000023:
000024:
000025:
000026:                                                                                                  #  WHILE PRELAUNCH IS ACTIVE IT STAYS IN THE EXECUTIVE AND USES THE SLEEP/WAKE FEATURES. BY THIS MEANS MOST
000027:                                                                                                  #  ERASABLE USAGE IS CONFINED TO A VAC AREA. THE ASSIGNMENT IS AS FOLLOWS-
000028:
000029: ???????                        SINLAM             =        34D                                   #  SIN OF LATITUDE
000030: ???????                        COSLAM             =        36D                                   #  COSINE OF LATITUDE
000031: ???????                        SINAZ              =        2                                     #  SIN OF AZIMUTH
000032: ???????                        COSAZ              =        4                                     #  COSINE OF AZIMUTH
000033: 21,6000                                           SETLOC   42000
000034:
000035: 21,6000           04000        TOP1               TC       INTPRET
000036:
000037: 21,6001           45175                           DMOVE    1                                     #  THIS START DISPLAYS ALL INPUTS FOR CHEK
000038: 21,6002           76575                           RTB      EXIT
000039: 21,6003           01317                                    AZIMUTH
000040: 21,6004           20325                                    1STO2S
000041:
000042: 21,6005           03302                           TC       GRABDSP
000043: 21,6006           03310                           TC       PREGBSY
000044:
000045: 21,6007           30115                           XCH      MPAC
000046: 21,6010           50616                           TS       DSPTEM1
000047: 21,6011           35501                           CAF      ZERO
000048: 21,6012           50617                           TS       DSPTEM1    +1
000049:
000050: 21,6013           07542                           TC       CHECKNV                               #  DISPLAY AZIMUTH
000051: 21,6014           00661                           OCT      00661                                 #  (N.B. CAN NOT BE MODIFIED    ...ALK)
000052:
000053: 21,6015           06745                           TC       PRELEXIT   -1
000054:
000055: 21,6016           04000                           TC       INTPRET
000056:
000057: 21,6017           63776                           TSLT     0
000058: 21,6020           01315                                    LATITUDE
000059: 21,6021           00003                                    2
000060: 21,6022           32620                           STORE    DSPTEM1    +1
000061:
000062: 21,6023           45175                           DMOVE    1
000063: 21,6024           76575                           RTB      EXIT
000064: 21,6025           01353                                    VAZ
000065: 21,6026           20325                                    1STO2S
000066:
000067: 21,6027           30115                           XCH      MPAC
000068:                                                                                                  # # Page 333
000069: 21,6030           50616                           TS       DSPTEM1
000070:
000071: 21,6031           07542                           TC       CHECKNV                               #  DISPLAY VEHICLE AZIMUTH, LATITUDE
000072: 21,6032           00661                           OCT      00661                                 #  (SEE N.B. ABOVE)
000073:
000074: 21,6033           06745                           TC       PRELEXIT   -1
000075:
000076: 21,6034           03362                           TC       FREEDSP                               #  DONE WITH DSKY.
000077:
000078: 21,6035           04000                           TC       INTPRET
000079:
000080: 21,6036           45175        TOP3               DMOVE    1                                     #  COMPUTES GIMBAL ANGLES
000081: 21,6037           76565                           RTB      AXT,1
000082: 21,6040           15617                                    SCNBMAT    +8D
000083: 21,6041           20271                                    ZEROVAC
000084: 21,6042           00023                                    18D
000085: 21,6043           32001                           STORE    0
000086:
000087: 21,6044           55176                           COS      0
000088: 21,6045           01353                                    VAZ
000089: 21,6046           32011                           STORE    8D
000090:
000091: 21,6047           47576                           NOLOD    0
000092: 21,6050           32021                           STORE    16D
000093:
000094: 21,6051           57176                           SIN      0
000095: 21,6052           01353                                    VAZ
000096: 21,6053           32017                           STORE    14D
000097:
000098: 21,6054           47575                           NOLOD    1
000099: 21,6055           47065                           COMP     AST,1
000100: 21,6056           00007                                    6
000101: 21,6057           32013                           STORE    10D
000102:
000103: 21,6060           74175        TOP33              VMOVE*   1
000104: 21,6061           51622                           VXM      VSLT
000105: 21,6062           33461                                    SCNBMAT    +18D,1
000106: 21,6063           00001                                    0
000107: 21,6064           00002                                    1
000108: 21,6065           37241                           STORE    XNB        +18D,1
000109:
000110: 21,6066           51576                           TIX,1    0
000111: 21,6067           02061                                    TOP33
000112:
000113: 21,6070           76776                           ITC      0
000114: 21,6071           03446                                    MAKEXSM
000115:
000116: 21,6072           76776                           ITC      0
000117: 21,6073           04644                                    CALCGA
000118:                                                                                                  # # Page 334
000119: 21,6074           47575                           NOLOD    1
000120: 21,6075           77176                           TP
000121: 21,6076           33323                           STORE    PRELXGA
000122:
000123: 21,6077           77576                           EXIT     0
000124:
000125:                                                                                                  #  ENTER AT TOP2 IF GIMBAL ANGLES, AZIMUTH, LATITUDE ALREADY KEYED IN
000126:
000127:
000128:
000129: 21,6100           05654        TOP2               TC       BANKCALL                              #  GO AND START CDU ZEROING
000130: 21,6101           30000                           CADR     IMUZERO
000131:
000132: 21,6102           02362                           TC       NEWMODE
000133: 21,6103           00001                           OCT      01                                    #  INITIALIZATION.
000134:
000135: 21,6104           33543                           CAF      NINETEEN                              #  INITIALIZE ERASABLE MEMORY TO ZEROS
000136: 21,6105           31446        ZEROS1             XCH      THETAY
000137: 21,6106           35501                           CAF      ZERO
000138: 21,6107           21446                           INDEX    THETAY
000139: 21,6110           51356                           TS       FILTER
000140: 21,6111           11446                           CCS      THETAY
000141: 21,6112           06105                           TC       ZEROS1
000142:
000143: 21,6113           33533                           CAF      ELEVEN
000144: 21,6114           31446        ZEROS2             XCH      THETAY
000145: 21,6115           35501                           CAF      ZERO
000146: 21,6116           21446                           INDEX    THETAY
000147: 21,6117           51446                           TS       THETAY
000148: 21,6120           11446                           CCS      THETAY
000149: 21,6121           06114                           TC       ZEROS2
000150:
000151: 21,6122           33571                           CAF      SIXHNDRD                              #  INITIALIZE FOR 5 MIN VERTICAL
000152: 21,6123           51320                           TS       GYROCSW
000153:
000154: 21,6124           05654                           TC       BANKCALL                              #  INITIALIZATION COMPLETE SO STALL
000155: 21,6125           30331                           CADR     IMUSTALL
000156: 21,6126           06746                           TC       PRELEXIT
000157:
000158:
000159:
000160: 21,6127           41322                           CS       PRELXGA                               #  LOAD DESIRED CDU ANGLES.
000161: 21,6130           40000                           COM
000162: 21,6131           50700                           TS       THETAD
000163: 21,6132           41323                           CS       PRELYGA
000164: 21,6133           40000                           COM
000165: 21,6134           50701                           TS       THETAD     +1
000166: 21,6135           41324                           CS       PRELZGA
000167: 21,6136           40000                           COM
000168: 21,6137           50702                           TS       THETAD     +2
000169:                                                                                                  # # Page 335
000170: 21,6140           02276                           TC       PHASCHNG                              #  GO INTO COARSE ALIGN PHASE.
000171: 21,6141           02103                           OCT      02103                                 #  3.17 RESTART.
000172:
000173: 21,6142           05654        REPL11             TC       BANKCALL
000174: 21,6143           30104                           CADR     IMUCOARS
000175:
000176: 21,6144           05654                           TC       BANKCALL                              #  NOTHING TO DO BUT SPEEP
000177: 21,6145           30331                           CADR     IMUSTALL
000178: 21,6146           06746                           TC       PRELEXIT
000179:
000180:
000181:
000182: 21,6147           02276        STARTPL2           TC       PHASCHNG                              #  START FINE ALIGN - INITIALIZATION PHASE.
000183: 21,6150           02203                           OCT      02203                                 #  3.18 RESTART.
000184:
000185: 21,6151           05654        REPL12             TC       BANKCALL
000186: 21,6152           30143                           CADR     IMUFINE
000187:
000188: 21,6153           02676                           TC       READTIME
000189: 21,6154           40572                           CS       RUPTSTOR
000190: 21,6155           51370                           TS       PREVTIME
000191: 21,6156           40573                           CS       RUPTSTOR   +1
000192: 21,6157           51371                           TS       PREVTIME   +1
000193: 21,6160           20016                           RELINT
000194:
000195: 21,6161           05654                           TC       BANKCALL                              #  SLEEP
000196: 21,6162           30331                           CADR     IMUSTALL
000197: 21,6163           06746                           TC       PRELEXIT
000198:
000199:
000200:
000201: 21,6164           02362                           TC       NEWMODE                               #  SET MAJOR MODE TO VERTICAL ERECTION
000202: 21,6165           00005                           OCT      5                                     #  (COUNTING)
000203:
000204: 21,6166           35501                           CAF      ZERO
000205: 21,6167           51332                           TS       INFLANG
000206: 21,6170           51333                           TS       INFLANG    +1
000207: 21,6171           51334                           TS       INFLANG    +2
000208: 21,6172           51335                           TS       INFLANG    +3
000209: 21,6173           51336                           TS       INFLANG    +4
000210: 21,6174           51337                           TS       INFLANG    +5
000211: 21,6175           50045                           TS       PIPAY                                 #  SET ALL PIPAS TO ZERO
000212: 21,6176           50046                           TS       PIPAZ
000213: 21,6177           50044                           TS       PIPAX
000214:
000215: 21,6200           33532                           CAF      NINE
000216: 21,6201           51321                           TS       PRELTEMP
000217:
000218: 21,6202           37011                           CAF      PLPIPADT                              #  SET UP DELTA TIME FOR IMU COMPENSATION.
000219: 21,6203           50755                           TS       1/PIPADT
000220:                                                                                                  # # Page 336
000221: 21,6204           20017                           INHINT
000222: 21,6205           37002                           CAF      PRELDT                                #  SET WAITLIST TO WAKE UP JOB
000223: 21,6206           02173                           TC       WAITLIST
000224: 21,6207           42211                           CADR     PRELALTS
000225:
000226: 21,6210           02124                           TC       ENDOFJOB
000227:
000228:                                                                                                  # # Page 337
000229:
000230:                                                                                                  #        PRELAUNCH WAITLIST TASK - EXECUTED EVERY .5 SEC. IN LOOP.
000231:
000232: 21,6211           36264        PRELALTS           CAF      PIPCAD21
000233: 21,6212           05750                           TC       ISWCALL
000234:
000235: 21,6213           33544                           CAF      TWENTY0
000236: 21,6214           02312                           TC       NEWPHASE
000237: 21,6215           00003                           OCT      3
000238:
000239: 21,6216           40036        REDO3.20           CS       TIME1
000240: 21,6217           50665                           TS       TBASE3
000241:
000242: 21,6220           35503                           CAF      TWO
000243: 21,6221           51035                           TS       PIPAGE
000244:
000245: 21,6222           30006                           XCH      IN2                                   #  TEST IN2 FOR GRR OR LIFT-OFF
000246: 21,6223           30006                           XCH      IN2
000247: 21,6224           77017                           MASK     BITS56
000248: 21,6225           10000                           CCS      A
000249: 21,6226           06242                           TC       PRELTERM
000250:
000251: 21,6227           34515                           CAF      BIT2                                  #  CHECK IF LIFT-OFF HAS OCCURRED
000252: 21,6230           70646                           MASK     FLAGWRD1
000253: 21,6231           10000                           CCS      A
000254: 21,6232           06242                           TC       PRELTERM                              #  IT HAS. TERMINATE PRELAUNCH
000255:
000256: 21,6233           37002                           CAF      PRELDT                                #  SELF-SUSTAINING WAITLIST CALL
000257: 21,6234           02173                           TC       WAITLIST
000258: 21,6235           42211                           CADR     PRELALTS
000259:
000260: 21,6236           34501        NOPLWAIT           CAF      PRIO20
000261: 21,6237           02046                           TC       FINDVAC
000262: 21,6240           42270                           CADR     PRAWAKE
000263:
000264: 21,6241           02256                           TC       TASKOVER                              #  RESUME
000265:
000266: 21,6242           40573        PRELTERM           CS       RUPTSTOR   +1                         #  N.B. READTIME IS DONE IN PIPASR ABOVE
000267: 21,6243           51467                           TS       TIME1GR
000268: 21,6244           40572                           CS       RUPTSTOR
000269: 21,6245           51466                           TS       TIME2GR
000270:
000271: 21,6246           41467                           CS       TIME1GR
000272: 21,6247           50667                           TS       TBASE5
000273:
000274: 21,6250           34516                           CAF      ONE
000275: 21,6251           02312                           TC       NEWPHASE
000276: 21,6252           00005                           OCT      00005
000277:
000278: 21,6253           10000                           CCS      A
000279: 21,6254           06236                           TC       NOPLWAIT
000280:                                                                                                  # # Page 338
000281: 21,6255           06256                           TC       +1
000282:
000283: 21,6256           37014                           CAF      2SEC21                                #  CALL READACCS IN 2 SECS
000284: 21,6257           02173                           TC       WAITLIST
000285: 21,6260           65152                           CADR     READACCS
000286:
000287: 21,6261           06236                           TC       NOPLWAIT
000288:
000289: 21,6262           36265        REPRELAL           CAF      REPIP21
000290: 21,6263           06212                           TC       PRELALTS   +1
000291:
000292: 21,6264           61313        PIPCAD21           CADR     PIPASR
000293: 21,6265           61364        REPIP21            CADR     REPIPASR
000294:
000295:                                                                                                  # # Page 339
000296:
000297: 21,6266           07223        REDO3.21           TC       PRLRSTOR
000298: 21,6267           06301                           TC       RE3.21
000299:
000300: 21,6270           07174        PRAWAKE            TC       PRLSAVE
000301:
000302: 21,6271           10654                           CCS      PHASE5                                #  CHECK IF GRR HAS OCCURED.
000303: 21,6272           33543                           CAF      NINETEEN                              #  3.19 RESTART.
000304: 21,6273           06275                           TC       +2
000305: 21,6274           33545                           CAF      TWENTY1                               #  3.21 RESTART.
000306: 21,6275           02312                           TC       NEWPHASE
000307: 21,6276           00003                           OCT      3
000308:
000309: 21,6277           05654                           TC       BANKCALL
000310: 21,6300           31017                           CADR     1/PIPA
000311:
000312: 21,6301           04000        RE3.21             TC       INTPRET
000313:
000314: 21,6302           43176                           SMOVE    0                                     #  ZERO TO THEAT-SOUTH
000315: 21,6303           03005                                    ZEROPR
000316: 21,6304           33455                           STORE    THETASTH
000317:
000318: 21,6305           47576                           NOLOD    0
000319: 21,6306           33457                           STORE    THETAE                                #  ZERO TO THETA EAST
000320:
000321: 21,6307           76575                           RTB      1
000322: 21,6310           57176                           SIN
000323: 21,6311           20271                                    ZEROVAC
000324: 21,6312           01315                                    LATITUDE
000325: 21,6313           32043                           STORE    SINLAM
000326:
000327: 21,6314           55176                           COS      0
000328: 21,6315           01315                                    LATITUDE
000329: 21,6316           32045                           STORE    COSLAM
000330:
000331: 21,6317           43175                           SMOVE    1
000332: 21,6320           66776                           DSU
000333: 21,6321           03001                                    90DEGAZ
000334: 21,6322           01317                                    AZIMUTH
000335:
000336: 21,6323           57176                           SIN      0
000337: 21,6324           00001                                    0
000338: 21,6325           32003                           STORE    SINAZ
000339:
000340: 21,6326           55176                           COS      0
000341: 21,6327           32005                           STORE    COSAZ
000342:
000343: 21,6330           77576                           EXIT     0
000344:
000345: 21,6331           10654                           CCS      PHASE5                                #  CHECK IF GRR HAS OCCURRED
000346: 21,6332           07032                           TC       PRELTER1
000347:                                                                                                  # # Page 340
000348: 21,6333           06334                           TC       +1
000349:
000350: 21,6334           02346                           TC       CHECKMM                               #  CHECK IF VERTICAL ERECTION (UNCONDIT.)
000351: 21,6335           00005                           OCT      5
000352: 21,6336           06340                           TC       +2
000353: 21,6337           06451                           TC       NOGYROCM
000354:
000355: 21,6340           02346                           TC       CHECKMM                               #  CHECK IF VERTICAL ERECTION (UNCONDIT.)
000356: 21,6341           00006                           OCT      6
000357: 21,6342           06344                           TC       +2
000358: 21,6343           06457                           TC       TJL
000359:
000360: 21,6344           02346        DOGYROC            TC       CHECKMM                               #  CHECK IF OPTICAL VERIFICATION
000361: 21,6345           00003                           OCT      3
000362: 21,6346           06352                           TC       DOGYROC1
000363:
000364: 21,6347           04000        JSTERTHR           TC       INTPRET
000365:
000366: 21,6350           76776                           ITC      0
000367: 21,6351           02360                                    EARTHRR
000368:
000369: 21,6352           02362        DOGYROC1           TC       NEWMODE
000370: 21,6353           00002                           OCT      2
000371:
000372: 21,6354           04000        DOGYROC2           TC       INTPRET
000373:
000374: 21,6355           76776                           ITC      0
000375: 21,6356           02575                                    GYROCOM
000376:
000377: 21,6357           76776        EARTHRR            ITC      0
000378: 21,6360           02515                                    EARTHRAT
000379:
000380: 21,6361           45176        ENDOFPR            DMOVE    0
000381: 21,6362           01465                                    PIPTIME
000382: 21,6363           33371                           STORE    PREVTIME
000383:
000384: 21,6364           77576                           EXIT     0
000385:
000386: 21,6365           11321                           CCS      PRELTEMP
000387: 21,6366           06436                           TC       JUMPY
000388:
000389: 21,6367           10764                           CCS      LGYRO                                 #  IF BUSY GO AROUND LOOP AGAIN
000390: 21,6370           06437                           TC       JUMPY      +1                         #  WAIT TIL NEXT TIME.  PRELTEM = 0 STILL.
000391:
000392: 21,6371           35501        PTORQUE            CAF      ZERO                                  #  INITIALIZE TORQUING REGISTERS AND RESET
000393: 21,6372           31452                           XCH      THETAX
000394: 21,6373           61333                           AD       INFLANG    +1
000395: 21,6374           51341                           TS       GYROANG    +1
000396: 21,6375           35501                           CAF      ZERO
000397: 21,6376           61332                           AD       INFLANG
000398:                                                                                                  # # Page 341
000399: 21,6377           51340                           TS       GYROANG
000400:
000401:
000402:
000403: 21,6400           35501                           CAF      ZERO
000404: 21,6401           31446                           XCH      THETAY
000405: 21,6402           61335                           AD       INFLANG    +3
000406: 21,6403           51343                           TS       GYROANG    +3
000407: 21,6404           35501                           CAF      ZERO
000408: 21,6405           61334                           AD       INFLANG    +2
000409: 21,6406           51342                           TS       GYROANG    +2
000410:
000411: 21,6407           35501                           CAF      ZERO
000412: 21,6410           31450                           XCH      THETAZ
000413: 21,6411           61337                           AD       INFLANG    +5
000414: 21,6412           51345                           TS       GYROANG    +5
000415: 21,6413           35501                           CAF      ZERO
000416: 21,6414           61336                           AD       INFLANG    +4
000417: 21,6415           51344                           TS       GYROANG    +4
000418:
000419: 21,6416           35501                           CAF      ZERO
000420: 21,6417           51332                           TS       INFLANG
000421: 21,6420           51333                           TS       INFLANG    +1
000422: 21,6421           51334                           TS       INFLANG    +2
000423: 21,6422           51335                           TS       INFLANG    +3
000424: 21,6423           51336                           TS       INFLANG    +4
000425: 21,6424           51337                           TS       INFLANG    +5
000426:
000427: 21,6425           33532                           CAF      NINE
000428: 21,6426           51321                           TS       PRELTEMP
000429:
000430: 21,6427           02276                           TC       PHASCHNG
000431: 21,6430           02603                           OCT      02603
000432:
000433: 21,6431           20017                           INHINT
000434: 21,6432           32162                           CAF      PRIO27
000435: 21,6433           02052                           TC       NOVAC
000436: 21,6434           42442                           CADR     SPITGYRO
000437: 21,6435           02124                           TC       ENDOFJOB
000438:
000439: 21,6436           51321        JUMPY              TS       PRELTEMP
000440:
000441: 21,6437           02276                           TC       PHASCHNG
000442: 21,6440           02603                           OCT      02603
000443:
000444: 21,6441           02124                           TC       ENDOFJOB
000445:
000446:
000447:
000448: 21,6442           37030        SPITGYRO           CAF      LGYROANG
000449:                                                                                                  # # Page 342
000450: 21,6443           05654                           TC       BANKCALL
000451: 21,6444           31433                           CADR     GYRODPNT
000452:
000453: 21,6445           05654                           TC       BANKCALL
000454: 21,6446           30331                           CADR     IMUSTALL
000455: 21,6447           02124                           TC       ENDOFJOB
000456: 21,6450           02124                           TC       ENDOFJOB
000457:
000458:                                                                                                  # # Page 343
000459:
000460:                                                                                                  #        VERTICAL ERECTION PROCEDURES.
000461:
000462: 21,6451           11320        NOGYROCM           CCS      GYROCSW                               #  COUNT DOWN FOR 5 MIN OF VERTICAL ERECT.
000463: 21,6452           06456                           TC       MORE                                  #   IF MORE TO COME.
000464: 21,6453           02362                           TC       NEWMODE                               #  IF NOT, GO INTO GYROCOMP. (MM 02)
000465: 21,6454           00002                           OCT      2
000466:
000467: 21,6455           06457                           TC       +2
000468:
000469: 21,6456           51320        MORE               TS       GYROCSW
000470:
000471: 21,6457           04000        TJL                TC       INTPRET
000472:
000473: 21,6460           76776                           ITC      0
000474: 21,6461           02515                                    EARTHRAT
000475:
000476: 21,6462           66775                           DSU      1
000477: 21,6463           64742                           DMP      DAD
000478: 21,6464           01004                                    DELVY
000479: 21,6465           01363                                    FILDELY
000480: 21,6466           02765                                    VERECTC3
000481: 21,6467           01363                                    FILDELY
000482: 21,6470           33363                           STORE    FILDELY
000483:
000484: 21,6471           53575                           AXC,1    1
000485: 21,6472           52572                           AXC,2    ITC
000486: 21,6473           00003                                    2
000487: 21,6474           00001                                    0
000488: 21,6475           02661                                    VERECT
000489:
000490: 21,6476           66775                           DSU      1
000491: 21,6477           64742                           DMP      DAD
000492: 21,6500           01006                                    DELVZ
000493: 21,6501           01361                                    FILDELZ
000494: 21,6502           02765                                    VERECTC3
000495: 21,6503           01361                                    FILDELZ
000496: 21,6504           33361                           STORE    FILDELZ
000497:
000498: 21,6505           53574                           AXC,1    2
000499: 21,6506           47433                           NOLOD    COMP
000500: 21,6507           76776                           ITC
000501: 21,6510           00001                                    0
000502: 21,6511           02661                                    VERECT
000503:
000504: 21,6512           76776                           ITC      0
000505: 21,6513           02362                                    ENDOFPR
000506:
000507:                                                                                                  # # Page 344
000508:
000509:                                                                                                  #        CALCULATION OF EARTH RATE
000510:
000511: 21,6514           66775        EARTHRAT           DSU      1
000512: 21,6515           63666                           TSLT     DMPR
000513: 21,6516           01465                                    PIPTIME
000514: 21,6517           01371                                    PREVTIME
000515: 21,6520           00014                                    11D
000516: 21,6521           03010                                    GOMEGA
000517:
000518: 21,6522           64775                           DMP      1                                     #   SIN(LAMBDE).DT.LENGTH OMEGA + THETA X
000519: 21,6523           63742                           TSLT     DAD
000520: 21,6524           00001                                    0
000521: 21,6525           00043                                    SINLAM
000522: 21,6526           00002                                    1
000523: 21,6527           01453                                    THETAX
000524: 21,6530           33453                           STORE    THETAX
000525:
000526: 21,6531           64775                           DMP      1                                     #  -COS(LAMBDA).DT.LENGTH OMEGA + THETA STH
000527: 21,6532           63726                           TSLT     BDSU
000528: 21,6533           77777                                    -
000529: 21,6534           00045                                    COSLAM
000530: 21,6535           00002                                    1
000531: 21,6536           01455                                    THETASTH
000532: 21,6537           33455                           STORE    THETASTH
000533:
000534: 21,6540           64775                           DMP      1                                     #   COS(AZIMUTH). SOUTH COMPONENT
000535: 21,6541           63776                           TSLT
000536: 21,6542           01455                                    THETASTH                              #                        TO P.D. LIST
000537: 21,6543           00005                                    COSAZ
000538: 21,6544           00002                                    1
000539:
000540: 21,6545           64774                           DMP      2                                     #   Y COMPONENT = SIN(AZIMUTH).EAST COMP
000541: 21,6546           63742                           TSLT     DAD                                   #                   + COS(AZIMUTH). SOUTH
000542: 21,6547           70776                           DAD
000543: 21,6550           01457                                    THETAE                                #                                    COMP
000544: 21,6551           00003                                    SINAZ
000545: 21,6552           00002                                    1
000546: 21,6553           01447                                    THETAY
000547: 21,6554           33447                           STORE    THETAY
000548:
000549: 21,6555           64775                           DMP      1                                     #   SIN(AZIMUTH). SOUTH COMPONENT
000550: 21,6556           63776                           TSLT
000551: 21,6557           00003                                    SINAZ                                 #                        TO P.D. LIST
000552: 21,6560           01455                                    THETASTH
000553:
000554: 21,6561           00002                                    1
000555: 21,6562           64774                           DMP      2                                     #  Z COMPONENT = COS(AZIMUTH.EAST COMP)
000556: 21,6563           63732                           TSLT     DSU
000557: 21,6564           70776                           DAD
000558: 21,6565           00005                                    COSAZ                                 #               -SIN(AZIMUTH).SOUTH COMP
000559:                                                                                                  # # Page 345
000560: 21,6566           01457                                    THETAE
000561: 21,6567           00002                                    1
000562: 21,6570           77777                                    -
000563: 21,6571           01451                                    THETAZ
000564: 21,6572           33451                           STORE    THETAZ
000565:
000566: 21,6573           40576                           ITCQ     0
000567:
000568:                                                                                                  # # Page 346
000569:
000570:                                                                                                  #        COMPUTATION OF GYROCOMPASS COMMAND
000571:
000572: 21,6574           45575        GYROCOM            ITA      1
000573: 21,6575           64716                           DMP      TSLT
000574: 21,6576           00052                                    S2
000575: 21,6577           01006                                    DELVZ
000576: 21,6600           00005                                    COSAZ
000577: 21,6601           00002                                    1
000578:
000579: 21,6602           64775                           DMP      1                                     #  DELTA-V(EAST)= COS(AZ).DELTA-V(Z)
000580: 21,6603           63742                           TSLT     DAD
000581: 21,6604           01004                                    DELVY
000582: 21,6605           00003                                    SINAZ
000583: 21,6606           00002                                    1
000584: 21,6607           33361                           STORE    DELE
000585:
000586: 21,6610           53574                           AXC,1    2
000587: 21,6611           52435                           AXC,2    NOLOD
000588: 21,6612           47172                           COMP     ITC
000589: 21,6613           00007                                    6
000590: 21,6614           00003                                    2
000591: 21,6615           02661                                    VERECT
000592:
000593: 21,6616           64775                           DMP      1                                     #  SIN(AZ).DELTA-V(Z)
000594: 21,6617           63776                           TSLT
000595: 21,6620           01006                                    DELVZ
000596: 21,6621           00003                                    SINAZ
000597: 21,6622           00002                                    1
000598:
000599: 21,6623           64775                           DMP      1                                     #  DELTA-V(SOUTH= COS(AZ.DELTA-V(Y)
000600: 21,6624           63732                           TSLT     DSU
000601: 21,6625           01004                                    DELVY
000602: 21,6626           00005                                    COSAZ
000603: 21,6627           00002                                    1
000604: 21,6630           33363                           STORE    DELS
000605:
000606: 21,6631           64776                           DMP      0
000607: 21,6632           01363                                    DELS                                  #   C1. DELTA-V(SOUTH) TO P.D. LIST
000608: 21,6633           02767                                    GYRCMC1
000609:
000610: 21,6634           64775                           DMP      1                                     #  FILTER = C1. DELTA-V(SOUTH)
000611: 21,6635           70776                           DAD                                            #          +C2. FILTER
000612: 21,6636           01357                                    FILTER
000613: 21,6637           02771                                    GYRCMC2
000614: 21,6640           33357                           STORE    FILTER
000615:
000616: 21,6641           47574                           NOLOD    2
000617: 21,6642           64716                           DMP      TSLT
000618: 21,6643           70776                           DAD
000619: 21,6644           02773                                    GYRCMC3
000620:                                                                                                  # # Page 347
000621: 21,6645           00010                                    7
000622: 21,6646           01453                                    THETAX
000623: 21,6647           33453                           STORE    THETAX
000624:
000625: 21,6650           64775                           DMP      1                                     #  EAST-TORQUING ANGLE = C4.FILTER
000626: 21,6651           63776                           TSLT
000627: 21,6652           01363                                    DELS
000628: 21,6653           02775                                    GYRCMC4
000629: 21,6654           00004                                    3
000630: 21,6655           33457                           STORE    THETAE
000631:
000632: 21,6656           44576                           ITCI     0
000633: 21,6657           00052                                    S2
000634:


000636:
000637:                                                                                                  #  VERTICAL ERECTION SUBROUTINE
000638:
000639:                                                                                                  #  VERECT - VERTICAL ERECTION      ENTERED IN INT. MODE WITH
000640:                                                                                                  #                    SUBROUTINE            C(X1)= 2 FOR C(MPAC)= DEL-V Y
000641:                                                                                                  #                                               = 0     C(MPAC)=-DEL-V Z
000642:                                                                                                  #                                               = 6 FOR C(MPAC)=-DEL-V E
000643:                                                                                                  #                                   FOR THESE THREE CASES OUTPUT WILL BE
000644:                                                                                                  #                                                THETA-Z
000645:                                                                                                  #                                                THETA-Y
000646:                                                                                                  #                                                THETA-S RESPECTIVELY.
000647:                                                                                                  #                                   LOOP CONSTANTS ARE DETERMINED BY
000648:                                                                                                  #                                          C(X2)= 0 NO GYROCOMPASSING
000649:                                                                                                  #                                                 2    GYROCOMPASSING
000650:
000651:
000652:
000653: 21,6660           47576        VERECT             NOLOD    0
000654:
000655: 21,6661           32001                           STORE    0
000656:
000657: 21,6662           47575                           NOLOD    1
000658: 21,6663           70376                           DAD*
000659: 21,6664           02751                                    INT,1                                 #  COMPUTE INTEGRAL OF DEL-V = INT
000660: 21,6665           36751                           STORE    INT,1
000661:
000662: 21,6666           45175                           DMOVE    1
000663: 21,6667           64316                           DMP*     TSLT
000664: 21,6670           00001                                    0
000665: 21,6671           05732                                    VERECTC1,2
000666: 21,6672           00006                                    5
000667:
000668: 21,6673           64375                           DMP*     1
000669: 21,6674           70342                           DAD*     DAD
000670: 21,6675           02751                                    INT,1                                 #  THETA = THETA + C1 DEL-V  + C2 INT
000671: 21,6676           05742                                    VERECTC2,2
000672: 21,6677           03115                                    THETAY,1
000673: 21,6700           37115                           STORE    THETAY,1
000674:
000675: 21,6701           40576                           ITCQ     0
000676:
000677:                                                                                                  # # Page 349
000678:
000679:                                                                                                  #        PRELAUNCH MANUAL REQUEST PROCESSOR.
000680:
000681: 21,6702           34501        STARTPL            CAF      PRIO20                                #  ENTER EXECUTIVE REQUEST ON START-UP.
000682: 21,6703           02046                           TC       FINDVAC
000683: 21,6704           42147                           CADR     STARTPL2
000684: 21,6705           05702                           TC       SWRETURN
000685:
000686: 21,6706           44513        PLSTCHK            CS       EIGHT                                 #  PRELAUNCH COMES HERE WHENEVER A PHASE
000687: 21,6707           60115                           AD       MPAC                                  #  REFERENCE IS MADE TO SEE IF A MANUAL
000688: 21,6710           10000                           CCS      A                                     #  REQUEST HAS BEEN ENTERED THROUGH MASTER
000689: 21,6711           00001                           TC       Q                                     #  CONTROL. ALL SUCH PHASES ARE LESS THAN 8
000690: 21,6712           24000        PLPRIO             OCT      24000
000691: 21,6713           06714                           TC       +1
000692:
000693: 21,6714           20115                           INDEX    MPAC                                  #  SEE WHICH MANUAL MODE REQUESTED.
000694: 21,6715           06715                           TC       +0
000695: 21,6716           06000                           TC       TOP1                                  #  1 - INITIALIZATION 1.
000696: 21,6717           06100                           TC       TOP2                                  #  2 - INITIALIZATION 2.
000697: 21,6720           07252                           TC       OPTCHK                                #  3 - DO OPTICAL CHECK
000698:
000699: 21,6721           10727        PLFINCHK           CCS      WASKSET                               #  SEE IF IN FINE ALIGN.
000700: 21,6722           06726                           TC       3CHECK
000701: 21,6723           06746                           TC       PRELEXIT                              #  SYSTEM IN BAD SHAPE.
000702: 21,6724           06733                           TC       DOPLCHNG                              #  DO THE CHANGE ANYWAY.
000703: 21,6725           06746                           TC       PRELEXIT                              #  SYSTEM IN BAD SHAPE.
000704:
000705: 21,6726           66731        3CHECK             AD       -CCSFINE
000706: 21,6727           10000                           CCS      A
000707: 21,6730           06000                           TC       TOP1
000708: 21,6731           77730        -CCSFINE           OCT      -47                                   #  WASKSET IS 50 FOR FINE ALIGN.
000709: 21,6732           06000                           TC       TOP1
000710:
000711: 21,6733           20115        DOPLCHNG           INDEX    MPAC
000712: 21,6734           06732                           TC       -2
000713: 21,6735           06741                           TC       DOPL14
000714:
000715: 21,6736           02362        DOPL15             TC       NEWMODE                               #  SET MAJOR MODE TO GYROCOMPASSING
000716: 21,6737           00002                           OCT      2
000717:
000718: 21,6740           06344                           TC       DOGYROC
000719:
000720: 21,6741           02362        DOPL14             TC       NEWMODE                               #  SET MAJOR MODE TO UNCONDITIONAL VERT-
000721: 21,6742           00006                           OCT      6                                     #  ICAL ERECTION
000722:
000723: 21,6743           06457                           TC       TJL
000724:
000725:                                                                                                  # # Page 350
000726:
000727:                                                                                                  #        PRELAUNCH GO-SEQUENCE PROCESSOR.
000728:
000729:                                                                                                  #          HAS BEEN DELETED.  SEE GENERAL RESTARTS.   ...DJL
000730:
000731: 21,6744           00050        FINECODE           OCT      50                                    #  FINE ALIGN AND COMPUTER CONTROL.
000732:
000733:                                                                                                  #        PRELAUNCH TERMINATION.
000734:
000735: 21,6745           03362                           TC       FREEDSP
000736: 21,6746           05654        PRELEXIT           TC       BANKCALL
000737: 21,6747           30241                           CADR     IMUFINIS
000738:
000739: 21,6750           44516        ENDJ3OUT           CS       ONE
000740: 21,6751           02312                           TC       NEWPHASE
000741: 21,6752           00003                           OCT      3
000742:
000743: 21,6753           02124                           TC       ENDOFJOB
000744:
000745:                                                                                                  # # Page 351
000746:
000747:                                                                                                  #  PRELAUNCH BANK STORED CONSTANTS
000748:
000749: 21,6754           24000 00000  VERECTC1           2DEC     20.        B-5                        #  VERTICAL LOOP CONSTANTS
000750: 21,6756           02000 00000                     2DEC     2          B-5
000751: 21,6760           14631 23146  VERECTC2           2DEC     .4
000752: 21,6762           00101 21116                     2DEC     .004
000753: 21,6764           03146 14632  VERECTC3           2DEC     .1
000754: 21,6766           03146 14632  GYRCMC1            2DEC     0.1
000755: 21,6770           34631 23146  GYRCMC2            2DEC     0.9
000756: 21,6772           56777 77777  GYRCMC3            2DEC     -68        B-7
000757: 21,6774           20000 00000  GYRCMC4            2DEC     4          B-3
000758: 21,6776           03610 01227  LABLAT             2DEC     .117678252                            #  LATITUDE OF IL-7
000759: 21,7000           10000 00000  90DEGAZ            2DEC     .25                                   #  90 DEG. FROM NORTH = EAST
000760: 21,7002           00062        PRELDT             DEC      .5         E2                         #  HALF SECOND PRELAUNCH CYCLE
000761:
000762: 21,7003           42270        WAKEPRAD           CADR     PRAWAKE                               #  WAKING ADDRESS FOR PRELAUNCH
000763:
000764: 21,7004           00000        ZEROPR             OCT      0                                     #  OUR OWN PERSONAL COPY OF ZERO
000765:
000766: 21,7005           03711 33265  LOMEGA             2DEC     .12169524                             #  EARTH RATE IN IRIG PULSES PER .01 SEC.
000767: 21,7007           37116 32652  GOMEGA             2DEC     0.97356192                            #  EARTH RATE IN IRIG PULSES/CS
000768: 21,7011           06200        PLPIPADT           DEC      50         B+6
000769: 21,7012           77746        -.25SC21           DEC      -25        B-14
000770: 21,7013           77715        NEG.5SEC           DEC      -50        B-14
000771:
000772: 21,7014           00310        2SEC21             DEC      200        B-14
000773: 21,7015           00000 00372  DP2.5SEC           2DEC     250        B-28
000774: 21,7017           00060        BITS56             DEC      48         B-14
000775: 21,7020           37116 32666  SIDEDAYS           2DEC*    .011605763 E-5        B23*            #  FRACTION OF T2-T1 IN SIDEREAL DAY
000776: 21,7022           13644 33772  LOCALUP            2DEC     .738876298 B-1
000777: 21,7024           00000 00000                     2DEC     .0                                    #  VECTOR AT TIME C(T2,T1) = 0
000778: 21,7026           12620 03315                     2DEC     .673841098 B-1
000779:                                                                                                  # # Page 352
000780: 21,7030           01340        LGYROANG           ADRES    GYROANG
000781: 21,7031           00011        IX                 DEC      9          B-14
000782:
000783:                                                                                                  # # Page 353
000784:
000785:                                                                                                  #  PRELAUNCH TERMINATION PHASE(AFTER G.R. SIGNAL)
000786:
000787:
000788:
000789: 21,7032           04000        PRELTER1           TC       INTPRET
000790:
000791: 21,7033           70776                           DAD      0
000792: 21,7034           01371                                    PREVTIME
000793: 21,7035           03016                                    DP2.5SEC
000794: 21,7036           33371                           STORE    PREVTIME
000795:
000796: 21,7037           76776                           ITC      0
000797: 21,7040           02515                                    EARTHRAT                              #  CHANGED BY MR. FIXIT.
000798:
000799: 21,7041           77576                           EXIT     0
000800:
000801: 21,7042           35501                           CAF      ZERO
000802: 21,7043           51340                           TS       GYROANG
000803: 21,7044           51342                           TS       GYROANG    +2
000804: 21,7045           51344                           TS       GYROANG    +4
000805:
000806: 21,7046           31452                           XCH      THETAX
000807: 21,7047           51341                           TS       GYROANG    +1
000808: 21,7050           31446                           XCH      THETAY
000809: 21,7051           51343                           TS       GYROANG    +3
000810: 21,7052           31450                           XCH      THETAZ
000811: 21,7053           51345                           TS       GYROANG    +5
000812:
000813: 21,7054           20017                           INHINT
000814: 21,7055           32164                           CAF      PRIO31                                #   CHANGED BY MR. FIXIT.
000815: 21,7056           02052                           TC       NOVAC
000816: 21,7057           42442                           CADR     SPITGYRO
000817: 21,7060           20016                           RELINT
000818:
000819: 21,7061           02362                           TC       NEWMODE
000820: 21,7062           00004                           OCT      04                                    #  INERTIAL REFERENCE.
000821:
000822: 21,7063           04000                           TC       INTPRET
000823:
000824: 21,7064           70776                           DAD      0                                     #  FORM TIME SINCE LAUNCH VECTOR IN
000825: 21,7065           01074                                    DTEPOCH                               #  INERTIAL Z-X PLANE
000826: 21,7066           01467                                    TIME2GR
000827: 21,7067           33145                           STORE    DTEAROT
000828:
000829: 21,7070           76776                           ITC      0                                     #  BRANCH TO FORCE WT TO LESS THAN 1 REV
000830: 21,7071           13463                                    EARROT2
000831:
000832: 21,7072           57176                           SIN      0                                     #  FORM INERTIAL Z-X PLANE LOCAL VERTICAL
000833: 21,7073           01315                                    LATITUDE
000834:                                                                                                  # # Page 354
000835: 21,7074           45176                           DMOVE    0
000836: 21,7075           05174                                    ZERODP
000837:
000838: 21,7076           55175                           COS      1
000839: 21,7077           41176                           VDEF
000840: 21,7100           01315                                    LATITUDE
000841: 21,7101           32041                           STORE    VAC
000842:
000843: 21,7102           43576                           TEST     0                                     #  TEST IF BIT IS ON. IF NOT SET IT ON
000844: 21,7103           00006                                    NBSMBIT
000845: 21,7104           03167                                    NBITON
000846:
000847: 21,7105           75575        ROTXY              AXT,1    1                                     #  ROTATE PROJECTION OF LOCAL VERTICAL ON
000848: 21,7106           74572                           AXT,2    ITC                                   #  INERTIAL X-Y PLANE ABOUT Z-AXIS
000849: 21,7107           00003                                    2
000850: 21,7110           00005                                    4
000851: 21,7111           04566                                    ACCUROT
000852:
000853: 21,7112           47576                           NOLOD    0
000854: 21,7113           33052                           STORE    REFSMMAT                              #  PRESENT LOCAL VERTICAL VECTOR IS X-AXIS
000855:
000856: 21,7114           45176                           DMOVE    0
000857: 21,7115           05174                                    ZERODP
000858:
000859: 21,7116           45176                           DMOVE    0
000860: 21,7117           00041                                    VAC
000861:
000862: 21,7120           47175                           COMP     1                                     #  FORM UNIT EAST VECTOR AT GRR
000863: 21,7121           41153                           VDEF     UNIT
000864: 21,7122           00043                                    VAC        +2
000865:
000866: 21,7123           47575                           NOLOD    1                                     #  FORM UNIT SOUTH VECTOR
000867: 21,7124           41753                           VXV      UNIT
000868: 21,7125           01052                                    REFSMMAT
000869:
000870: 21,7126           66776                           DSU      0                                     #  FORM AZIMUTH SOUTH OF EAST AT GRR
000871: 21,7127           01317                                    AZIMUTH
000872: 21,7130           03001                                    90DEGAZ
000873: 21,7131           32037                           STORE    30D
000874:
000875: 21,7132           47575                           NOLOD    1
000876: 21,7133           57166                           SIN      VXSC
000877: 21,7134           33066                           STORE    REFSMMAT   +12D                       #  (TEMPORARY STORAGE)
000878:
000879: 21,7135           55174                           COS      2                                     #  FORM SM Z-AXIS
000880: 21,7136           75642                           VXSC     VAD
000881: 21,7137           73176                           UNIT
000882: 21,7140           00037                                    30D
000883: 21,7141           77777                                    -
000884: 21,7142           01066                                    REFSMMAT   +12D
000885:                                                                                                  # # Page 355
000886: 21,7143           33066                           STORE    REFSMMAT   +12D
000887:
000888: 21,7144           47575                           NOLOD    1                                     #  FORM SM Y-AXIS BY CROSS PRODUCT
000889: 21,7145           41753                           VXV      UNIT
000890: 21,7146           01052                                    REFSMMAT
000891: 21,7147           33060                           STORE    REFSMMAT   +6
000892:
000893: 21,7150           41775                           VXV      1                                     #  INITIALISE VN, GRAVITY GIVEN RN, UNITW
000894: 21,7151           75776                           VXSC
000895: 21,7152           01044                                    UNITW
000896: 21,7153           00766                                    RN                                    #  SCALED AT 2(+25) METERS
000897: 21,7154           03173                                    WIE
000898: 21,7155           32774                           STORE    VN                                    #  SCALED AT 2(+7)M/CS
000899:
000900: 21,7156           75175                           VMOVE    1
000901: 21,7157           76776                           ITC
000902: 21,7160           00766                                    RN
000903: 21,7161           21643                                    CALCGRAV
000904:
000905: 21,7162           77576                           EXIT     0
000906:
000907: 21,7163           32164                           CAF      PRIO31                                #  GUESS WHAT WE'RE DOING
000908: 21,7164           50755                           TS       1/PIPADT                              #  GIVE UP  WOULD YOU BELEIVE 2 SECONDS
000909:
000910: 21,7165           06750                           TC       ENDJ3OUT                              #  TERMINATE PRELAUNCH. (PHASE = INACTIVE.)
000911:
000912:
000913:
000914: 21,7166           42575        NBITON             SWITCH   1
000915: 21,7167           76776                           ITC
000916: 21,7170           00006                                    NBSMBIT
000917: 21,7171           03106                                    ROTXY
000918:
000919: 21,7172           14167 34104  WIE                2DEC*    7.29211505 E-7        B+19*           #  RAD/CS SCALED AT 2(-19)
000920:
000921:                                                                                                  # # Page 356
000922:
000923: 21,7174           30001        PRLSAVE            XCH      Q                                     #  SAVE CURRENT VARIABLES FOR RESTARTS
000924: 21,7175           50116                           TS       MPAC       +1
000925:
000926: 21,7176           33535                           CAF      THIRTEEN
000927: 21,7177           50115        AGAIN1             TS       MPAC
000928: 21,7200           20115                           INDEX    MPAC
000929: 21,7201           41356                           CS       FILTER
000930: 21,7202           20115                           INDEX    MPAC
000931: 21,7203           51243                           TS       PTEMP
000932: 21,7204           10115                           CCS      MPAC
000933: 21,7205           07177                           TC       AGAIN1
000934:
000935: 21,7206           33533                           CAF      ELEVEN
000936: 21,7207           50115        AGAIN2             TS       MPAC
000937: 21,7210           20115                           INDEX    MPAC
000938: 21,7211           41446                           CS       THETAY
000939: 21,7212           20115                           INDEX    MPAC
000940: 21,7213           51261                           TS       PTEMP      +14D
000941: 21,7214           10115                           CCS      MPAC
000942: 21,7215           07207                           TC       AGAIN2
000943:
000944: 21,7216           41321                           CS       PRELTEMP
000945: 21,7217           51275                           TS       PTEMP      +26D
000946: 21,7220           41320                           CS       GYROCSW
000947: 21,7221           51276                           TS       PTEMP      +27D
000948:
000949: 21,7222           00116                           TC       MPAC       +1
000950:
000951: 21,7223           30001        PRLRSTOR           XCH      Q                                     #  RESTORE OLD VALUES OF VARIABLES
000952: 21,7224           50116                           TS       MPAC       +1
000953:
000954: 21,7225           33535                           CAF      THIRTEEN
000955: 21,7226           50115        AGAIN3             TS       MPAC
000956: 21,7227           20115                           INDEX    MPAC
000957: 21,7230           41243                           CS       PTEMP
000958: 21,7231           20115                           INDEX    MPAC
000959: 21,7232           51356                           TS       FILTER
000960: 21,7233           10115                           CCS      MPAC
000961: 21,7234           07226                           TC       AGAIN3
000962:
000963: 21,7235           33533                           CAF      ELEVEN
000964: 21,7236           50115        AGAIN4             TS       MPAC
000965: 21,7237           20115                           INDEX    MPAC
000966: 21,7240           41261                           CS       PTEMP      +14D
000967: 21,7241           20115                           INDEX    MPAC
000968: 21,7242           51446                           TS       THETAY
000969: 21,7243           10115                           CCS      MPAC
000970: 21,7244           07236                           TC       AGAIN4
000971:
000972: 21,7245           41275                           CS       PTEMP      +26D
000973:                                                                                                  # # Page 357
000974: 21,7246           51321                           TS       PRELTEMP
000975: 21,7247           41276                           CS       PTEMP      +27D
000976: 21,7250           51320                           TS       GYROCSW
000977:
000978: 21,7251           00116                           TC       MPAC       +1
000979:
000980:                                                                                                  # # Page 358
000981:
000982:                                                                                                  #  PRELAUNCH CHECK PROCEDURE (USES THE Z-NORTH SYSTEM OF AXES)
000983:
000984:
000985:
000986: 21,7252           20017        OPTCHK             INHINT
000987: 21,7253           32150                           CAF      PRIO14
000988: 21,7254           02046                           TC       FINDVAC                               #  CALL WITH PRIORITY OF TWENTY
000989: 21,7255           43262                           CADR     CHKOPT
000990:
000991: 21,7256           34514                           CAF      BIT3
000992: 21,7257           50115                           TS       MPAC
000993: 21,7260           06721                           TC       PLFINCHK
000994: 21,7261           06354                           TC       DOGYROC2
000995:
000996: 21,7262           03302        CHKOPT             TC       GRABDSP
000997: 21,7263           03310                           TC       PREGBSY
000998:
000999: 21,7264           02362                           TC       NEWMODE
001000: 21,7265           00003                           OCT      03
001001:
001002: 21,7266           35501                           CAF      ZERO
001003: 21,7267           51400                           TS       STARS
001004: 21,7270           64516                           AD       ONE
001005: 21,7271           50620                           TS       DSPTEM1    +2
001006: 21,7272           37540                           CAF      V06N30P
001007: 21,7273           03100                           TC       NVSUB
001008: 21,7274           03315                           TC       PRENVBSY
001009: 21,7275           21400                           INDEX    STARS
001010: 21,7276           31346                           XCH      TAZ
001011: 21,7277           50616                           TS       DSPTEM1
001012: 21,7300           21400                           INDEX    STARS
001013: 21,7301           31350                           XCH      TEL
001014: 21,7302           50617                           TS       DSPTEM1    +1
001015:
001016: 21,7303           07542                           TC       CHECKNV
001017: 21,7304           00661                           OCT      00661
001018: 21,7305           07441                           TC       CHEXIT
001019: 21,7306           30616                           XCH      DSPTEM1
001020: 21,7307           21400                           INDEX    STARS
001021: 21,7310           51346                           TS       TAZ
001022: 21,7311           30617                           XCH      DSPTEM1    +1
001023: 21,7312           21400                           INDEX    STARS
001024: 21,7313           51350                           TS       TEL
001025:
001026: 21,7314           11400                           CCS      STARS
001027: 21,7315           07320                           TC       +3
001028: 21,7316           34516                           CAF      ONE
001029: 21,7317           07267                           TC       CHKOPT     +5
001030: 21,7320           50620                           TS       DSPTEM1    +2
001031:                                                                                                  # # Page 359
001032: 21,7321           35503                           CAF      TWO
001033: 21,7322           50617                           TS       DSPTEM1    +1
001034: 21,7323           34516                           CAF      ONE
001035: 21,7324           50616                           TS       DSPTEM1                               #  SET UP STAR NUMBER DISPLAY
001036:
001037: 21,7325           37540                           CAF      V06N30P
001038: 21,7326           03100                           TC       NVSUB
001039: 21,7327           03315                           TC       PRENVBSY
001040: 21,7330           35503                           CAF      TWO
001041: 21,7331           05654                           TC       BANKCALL
001042: 21,7332           30406                           CADR     SXTMARK
001043: 21,7333           05654                           TC       BANKCALL
001044: 21,7334           30327                           CADR     OPTSTALL
001045: 21,7335           07441                           TC       CHEXIT
001046: 21,7336           04000                           TC       INTPRET
001047:
001048: 21,7337           76776                           ITC      0
001049: 21,7340           03475                                    PROCTARG
001050:
001051: 21,7341           76776                           ITC      0
001052: 21,7342           03446                                    MAKEXSM                               #  COMPUTE DESIRED SM ORIENTATION IN REC
001053:
001054: 21,7343           52775                           MXV      1
001055: 21,7344           44776                           VSLT
001056: 21,7345           01403                                    TARGET1
001057: 21,7346           01425                                    XSM
001058: 21,7347           00002                                    1
001059: 21,7350           33403                           STORE    STARAD
001060: 21,7351           52775                           MXV      1
001061: 21,7352           44776                           VSLT
001062: 21,7353           01411                                    TARGET1    +6
001063: 21,7354           01425                                    XSM
001064: 21,7355           00002                                    1
001065: 21,7356           33411                           STORE    STARAD     +6
001066:
001067: 21,7357           71574                           LXC,1    2
001068: 21,7360           74471                           AXT,2    XSU,2
001069: 21,7361           66572                           SXA,2    ITC
001070: 21,7362           00736                                    MARKSTAT
001071: 21,7363           00003                                    2
001072: 21,7364           00047                                    X1
001073: 21,7365           00051                                    S1
001074: 21,7366           04733                                    SXTNB
001075:
001076: 21,7367           76776                           ITC      0
001077: 21,7370           04524                                    NBSM
001078:
001079: 21,7371           75176                           VMOVE    0
001080: 21,7372           00041                                    STARM
001081: 21,7373           33375                           STORE    VECTEM
001082:                                                                                                  # # Page 360
001083: 21,7374           71574                           LXC,1    2
001084: 21,7375           63561                           INCR,1   AXT,2
001085: 21,7376           56531                           XSU,2    SXA,2
001086: 21,7377           00736                                    MARKSTAT
001087: 21,7400           77771                                    -7
001088: 21,7401           00003                                    2
001089: 21,7402           00047                                    X1
001090: 21,7403           00051                                    S1
001091:
001092: 21,7404           76776                           ITC      0
001093: 21,7405           04733                                    SXTNB
001094:
001095: 21,7406           76776                           ITC      0
001096: 21,7407           04524                                    NBSM
001097:
001098: 21,7410           75176                           VMOVE    0
001099: 21,7411           00041                                    STARM
001100: 21,7412           32015                           STORE    12D
001101:
001102: 21,7413           75176                           VMOVE    0
001103: 21,7414           01375                                    VECTEM
001104: 21,7415           32007                           STORE    6                                     #  TO AVOID ERASABLE BIND
001105:
001106: 21,7416           76776                           ITC      0                                     #  FIND DESIRED SM IN PRESENT SM
001107: 21,7417           04761                                    AXISGEN
001108:
001109: 21,7420           76776                           ITC      0                                     #  CALCULATE REQUIRED PULSE TORQUE IN GYROD
001110: 21,7421           04353                                    CALCGTA
001111:
001112: 21,7422           45776                           VSRT     0
001113: 21,7423           01521                                    OGC
001114: 21,7424           00011                                    8D
001115: 21,7425           33521                           STORE    OGC                                   #  CHANGE UNITS FROM 2PI TO GYRO PULSES
001116:
001117: 21,7426           77576                           EXIT     0
001118:
001119:
001120:
001121: 21,7427           05654                           TC       BANKCALL
001122: 21,7430           30453                           CADR     MKRELEAS
001123: 21,7431           07542                           TC       CHECKNV
001124: 21,7432           00667                           OCT      00667
001125: 21,7433           07441                           TC       CHEXIT
001126: 21,7434           04000                           TC       INTPRET
001127:
001128: 21,7435           75176                           VMOVE    0
001129: 21,7436           01521                                    OGC                                   #  GETS SUMMED INTO PRELAUNCH
001130: 21,7437           33333                           STORE    INFLANG
001131:
001132: 21,7440           77576                           EXIT     0
001133:                                                                                                  # # Page 361
001134:
001135: 21,7441           03362        CHEXIT             TC       FREEDSP
001136: 21,7442           02362                           TC       NEWMODE
001137: 21,7443           00002                           OCT      02
001138: 21,7444           02124                           TC       ENDOFJOB
001139:
001140:                                                                                                  # # Page 362
001141:
001142:                                                                                                  #  SUBROUTINE TO COMPUTE DESIRED SM AXES IN REC
001143:
001144: 21,7445           77576        MAKEXSM            EXIT     0
001145: 21,7446           37541                           CAF      XVII
001146: 21,7447           50077                           TS       BUF
001147: 21,7450           35501                           CAF      ZERO                                  #  ZERO ALL OF XSM
001148: 21,7451           20077                           INDEX    BUF
001149: 21,7452           51424                           TS       XSM
001150: 21,7453           10077                           CCS      BUF
001151: 21,7454           07447                           TC       MAKEXSM    +2
001152: 21,7455           34522                           CAF      HALF
001153: 21,7456           51424                           TS       XSM                                   #  HALF UNIT MATRIX IS COMPUTED
001154:
001155: 21,7457           04000                           TC       INTPRET
001156:
001157: 21,7460           55176                           COS      0
001158: 21,7461           01317                                    AZIMUTH
001159: 21,7462           33435                           STORE    XSM        +8D
001160:
001161: 21,7463           47576                           NOLOD    0
001162: 21,7464           33445                           STORE    XSM        +16D
001163:
001164: 21,7465           57176                           SIN      0
001165: 21,7466           01317                                    AZIMUTH
001166: 21,7467           33443                           STORE    XSM        +14D
001167:
001168: 21,7470           47176                           COMP     0
001169: 21,7471           01443                                    XSM        +14D
001170: 21,7472           33437                           STORE    XSM        +10D
001171:
001172: 21,7473           40576                           ITCQ     0
001173:
001174:                                                                                                  # # Page 363
001175:
001176:                                                                                                  #  ROUTINE TO CONVERT TARGET AZIMUTH AND ELEVATIONS TO VECTORS
001177:
001178:
001179:
001180: 21,7474           75575        PROCTARG           AXT,1    1
001181: 21,7475           74461                           AXT,2    AST,2
001182: 21,7476           00002                                    1
001183: 21,7477           00015                                    12D
001184: 21,7500           00007                                    6
001185:
001186: 21,7501           42175        PROC1              SMOVE*   1
001187: 21,7502           56776                           TSRT
001188: 21,7503           02723                                    TEL        +1,1
001189: 21,7504           00003                                    2
001190: 21,7505           32001                           STORE    0
001191:
001192: 21,7506           57176                           SIN      0
001193: 21,7507           00001                                    0
001194: 21,7510           37036                           STORE    TARGET1    +12D,2
001195: 21,7511           55176                           COS      0
001196: 21,7512           00001                                    0                                     #  PUSH DOWN THE COSINE OF ELEVATION
001197:
001198: 21,7513           42175                           SMOVE*   1
001199: 21,7514           76576                           RTB
001200: 21,7515           02717                                    TAZ        +1,1
001201: 21,7516           20304                                    CDULOGIC
001202: 21,7517           32003                           STORE    2                                     #  THEN Y=0.5SIN(AZ)COS(EL)
001203:
001204: 21,7520           57175                           SIN      1
001205: 21,7521           64716                           DMP      TSLT
001206: 21,7522           00003                                    2
001207: 21,7523           00001                                    0
001208: 21,7524           00002                                    1
001209: 21,7525           37042                           STORE    TARGET1    +14D,2
001210:
001211: 21,7526           55175                           COS      1
001212: 21,7527           64716                           DMP      TSLT
001213: 21,7530           00003                                    2
001214: 21,7531           77777                                    -
001215: 21,7532           00002                                    1
001216: 21,7533           37046                           STORE    TARGET1    +16D,2
001217: 21,7534           75575                           AXT,1    1
001218: 21,7535           50401                           TIX,2    ITCQ
001219: 21,7536           00001                                    0
001220: 21,7537           03502                                    PROC1
001221:
001222:                                                                                                  # # Page 364
001223:
001224:                                                                                                  #  ROUTINE TO ROTATE COORDINATE SYSTEM BY EARTHRATE TIMES TIME           ON
001225:
001226:
001227:
001228: 21,7540           00630        V06N30P            OCTAL    00630
001229: 21,7541           00021        XVII               DEC      17         B-14
001230:
001231:                                                                                                  # # Page 365
001232:
001233:                                                                                                  #  ROUTINE TO DISPLAY STORED DATA FOR CHECKING AND MODIFICATION,VERB NOUN
001234:                                                                                                  #  IS STORED AT L +1,RETURN IS TO L +2 FOR TERMINATE,L +3 FOR GOOD DATA OR PROCEDE
001235:
001236:
001237:
001238: 21,7542           30001        CHECKNV            XCH      Q
001239: 21,7543           51354                           TS       CHKNVTEM
001240: 21,7544           21354                           INDEX    CHKNVTEM
001241: 21,7545           30000                           XCH      A
001242:
001243: 21,7546           03100                           TC       NVSUB
001244: 21,7547           07562                           TC       CHECKNV1
001245: 21,7550           05654                           TC       BANKCALL
001246: 21,7551           14000                           CADR     FLASHON
001247:
001248: 21,7552           03136                           TC       ENDIDLE
001249: 21,7553           07556                           TC       +3
001250: 21,7554           07560                           TC       +4
001251: 21,7555           07544                           TC       CHECKNV    +2
001252:
001253: 21,7556           21354                           INDEX    CHKNVTEM
001254: 21,7557           00001                           TC       Q
001255: 21,7560           21354                           INDEX    CHKNVTEM
001256: 21,7561           00002                           TC       Z
001257:
001258: 21,7562           37564        CHECKNV1           CAF      CHECKNV2
001259: 21,7563           03320                           TC       NVSUBUSY
001260: 21,7564           43544        CHECKNV2           CADR     CHECKNV    +2

End of include-file PRELAUNCH_ALIGNMENT_PROGRAM.agc.  Parent file is MAIN.agc


