
Source Code


000002:                                                                                                  #  Copyright:    Public domain.
000003:                                                                                                  #  Filename:     REENTRY_CONTROL.agc
000004:                                                                                                  #  Purpose:      Part of the source code for Solarium build 55. This
000005:                                                                                                  #                is for the Command Module's (CM) Apollo Guidance
000006:                                                                                                  #                Computer (AGC), for Apollo 6.
000007:                                                                                                  #  Assembler:    yaYUL --block1
000008:                                                                                                  #  Contact:      Jim Lawton <jim DOT lawton AT gmail DOT com>
000009:                                                                                                  #  Website:      www.ibiblio.org/apollo/index.html
000010:                                                                                                  #  Page scans:   www.ibiblio.org/apollo/ScansForConversion/Solarium055/
000011:                                                                                                  #  Mod history:  2009-09-30 JL   Created.
000012:                                                                                                  #                2016-08-20 RSB  Typos.
000013:                                                                                                  #                2016-08-21 RSB  More typos.
000014:                                                                                                  #                2016-08-24 RSB  Last (code) typo in Solarium, I think!
000015:
000016:                                                                                                  # # Page 698
000017:
000018: 27,6000                                           SETLOC   56000
000019:
000020:                                                                                                  #        THE PIPUP SECTION IS A TASK WHICH READS THE PIPAS EVERY .5
000021:                                                                                                  #  SECONDS. ACCELERATION HISTORY OVER THE LAST TWO SECONDS (FOUR READINGS)
000022:                                                                                                  #  IS MAINTAINED  IN THE XPIPBUF, YPIPBUF, AND ZPIPBUF REGISTERS. EACH PIPA
000023:                                                                                                  #  READING IS SUMMED INTO THE XPIPSUM ETC. REGISTERS, AND EVERY FOURTH READ
000024:                                                                                                  #  ING AVERAGE G IS CALLED TO USE THE SUMMED READINGS TO UPDATE POSITION
000025:                                                                                                  #  AND VELOCITY AND SET THE PIPSUM REGISTERS TO ZERO.
000026:
000027:                                                                                                  #    GOES THRU PIPUP ONLY ONCE EVERY 2 SEC.  (ELSEWHERE MORE OFTEN.)
000028:
000029: 27,6000           61364                           CADR     REPIPASR
000030: 27,6001           36000        REPIPUP            CAF      -1
000031: 27,6002           06005                           TC       PIPUP      +1                         #  REREAD PIPAS IF NECESSARY.
000032:
000033: 27,6003           61313                           CADR     PIPASR
000034: 27,6004           36003        PIPUP              CAF      -1
000035: 27,6005           05750                           TC       ISWCALL                               #   GO TO PIPAREAD SUBROUTINE.
000036:
000037: 27,6006           33535                           CAF      THIRTN                                #  PICK UP AT REDO5.13
000038: 27,6007           02312                           TC       NEWPHASE
000039: 27,6010           00005                           OCT      5                                     #  5.13 RESTART.  (NO TIME CALL.)
000040:
000041: 27,6011           37200        REDO5.13           CAF      DT
000042: 27,6012           02173                           TC       WAITLIST
000043: 27,6013           56004                           CADR     PIPUP
000044:
000045: 27,6014           41465                           CS       PIPTIME    +1
000046: 27,6015           50667                           TS       TBASE5                                #  SAVE NEW TIME.
000047:
000048: 27,6016           36032                           CAF      IPIPDT
000049: 27,6017           02173                           TC       WAITLIST
000050: 27,6020           57147                           CADR     INTERPIP                              #  READ ACCELERATION MORE OFTEN.
000051:
000052: 27,6021           32152                           CAF      PRIO16
000053: 27,6022           02046                           TC       FINDVAC
000054: 27,6023           56033                           CADR     ENTRYTOP
000055:
000056: 27,6024           35503                           CAF      TWO
000057: 27,6025           51414                           TS       PIPCTR
000058:
000059: 27,6026           33536                           CAF      FOURTN                                #  THIS WILL PICK UP AT ENTRYTOP + 3.
000060: 27,6027           02312                           TC       NEWPHASE
000061: 27,6030           00005                           OCT      5                                     #  5.14 RESTART.
000062:
000063: 27,6031           02256                           TC       TASKOVER
000064:
000065:
000066:
000067: 27,6032           00062        IPIPDT             DEC      50         B-14
000068:
000069:                                                                                                  # # Page 699
000070:
000071:                                                                                                  #        JOB WHICH PROCESSES PIPA READINGS TO UPDATE POSITION AND VELOCI
000072:
000073: 27,6033           31350        ENTRYTOP           XCH      TENTRY                                #  UPDATE ENTRY TIME.
000074: 27,6034           65503                           AD       TWO
000075: 27,6035           31350                           XCH      TENTRY                                #  IN SECS SINCE START OF ENTRY.
000076:
000077: 27,6036           34516                           CAF      ONE
000078: 27,6037           51035                           TS       PIPAGE
000079:
000080: 27,6040           41001                           CS       DELVX
000081: 27,6041           51403                           TS       XPIPBUF    +3
000082: 27,6042           41003                           CS       DELVY
000083: 27,6043           51407                           TS       YPIPBUF    +3
000084: 27,6044           41005                           CS       DELVZ                                 #  SAVE PIP COUNTS.
000085: 27,6045           51413                           TS       ZPIPBUF    +3
000086:
000087: 27,6046           02276                           TC       PHASCHNG
000088: 27,6047           01705                           OCT      01705                                 #  5.15 RESTART PICKS UP AT REFAZE4.
000089: 27,6050           05654                           TC       BANKCALL                              #  COMPENSATE THE PIPA DATA
000090: 27,6051           31017                           CADR     1/PIPA
000091:
000092: 27,6052           04000        REFAZE4            TC       INTPRET
000093:
000094: 27,6053           76776                           ITC      0                                     #  GO TO AVERAGE G INTEGRATION ROUTINES TO
000095: 27,6054           21551                                    CALCRVG                               #  USE PIPA READINGS TO UPDATE POSIITON AND
000096:                                                                                                  #  VELOCITY.
000097: 27,6055           02276                           TC       PHASCHNG
000098: 27,6056           02105                           OCT      02105                                 #  5.17 RESTART AT REFAZE8.
000099:
000100: 27,6057           04000        REFAZE8            TC       INTPRET
000101:
000102:                                                                                                  # # Page 700
000103:
000104:                                                                                                  #   PROCESS AVERAGE G OUTPUT...SCALE IT AND GET INPUT DATA
000105:
000106: 27,6060           75776        SCALEPOP           VXSC     0
000107: 27,6061           00774                                    VPIP                                  #  KVSCALE = (12800/.3048)0(25766.1973 X2)
000108: 27,6062           21132                                    KVSCALE                               #  KVSCALE = .81491944
000109: 27,6063           33315                           STORE    (V)                                   #  V VECTOR
000110:
000111: 27,6064           43574                           TEST     2
000112: 27,6065           41766                           VXV      VXSC                                  #  (VREL) = (V) + KWE UNITR*UNITW
000113: 27,6066           50776                           VAD
000114: 27,6067           00010                                    RELVELSW                              #  SWITCH NUMBER.
000115: 27,6070           16077                                    GETUNITV
000116: 27,6071           01016                                    UNITR
000117: 27,6072           01044                                    UNITW
000118: 27,6073           21154                                    KWE
000119: 27,6074           01315                                    (V)
000120: 27,6075           33315                           STORE    (V)                                   #  NEW VECTOR IS RELATIVE.
000121:
000122: 27,6076           47575        GETUNITV           NOLOD    1
000123: 27,6077           73176                           UNIT
000124: 27,6100           33570                           STORE    UNITV                                 #  HALF MAX. OF COURSE.
000125:
000126: 27,6101           63776                           TSLT     0
000127: 27,6102           00035                                    28D                                   #  RESCALE MAGNITUDE SQUARED.
000128: 27,6103           00003                                    2                                     #  SHIFT COUNT.  (2 BECAUSE HALF-LEN SQRD
000129: 27,6104           33343                           STORE    VSQUARE
000130:
000131: 27,6105           66776                           DSU      0
000132: 27,6106           01343                                    VSQUARE
000133: 27,6107           21055                                    FOURTH
000134: 27,6110           33432                           STORE    LEQ
000135:
000136: 27,6111           63776                           TSLT     0
000137: 27,6112           00037                                    30D
000138: 27,6113           00002                                    1
000139: 27,6114           33620                           STORE    V
000140:
000141: 27,6115           42775                           DOT      1
000142: 27,6116           63776                           TSLT
000143: 27,6117           01315                                    (V)
000144: 27,6120           01016                                    UNITR
000145: 27,6121           00002                                    1
000146: 27,6122           33347                           STORE    RDOT
000147:                                                                                                  # # Page 701
000148: 27,6123           45176                           DMOVE    0                                     #   SAVE OLD DRAG VALUE.
000149: 27,6124           01363                                    D
000150: 27,6125           33416                           STORE    DOLD
000151:
000152: 27,6126           71174                           ABVAL    2
000153: 27,6127           63722                           TSLT     DMP
000154: 27,6130           47776                           BZE
000155: 27,6131           01002                                    DELV                                  #  KASCALE=5.85 16384/(4 .3048 805 100)
000156: 27,6132           00003                                    2                                     #  2 FOR 2 SEC,  3 FOR 1 SEC, 4 FOR  .5 --
000157: 27,6133           21134                                    KASCALE                               #   = 3.   /4                       /25
000158: 27,6134           21024                                    SETMIND
000159: 27,6135           33363                           STORE    D                                     #  ACCELERATION   (DRAG, ALMOST)
000160:
000161: 27,6136           41775        GETUNI             VXV      1                                     #  UNI = UNIT(V*R)
000162: 27,6137           73176                           UNIT
000163: 27,6140           01315                                    (V)                                   #  COULD USE UNITV.
000164: 27,6141           01016                                    UNITR
000165: 27,6142           33562                           STORE    UNI                                   #  INERTIAL OR RELATIVE AS IS (V).
000166:
000167:                                                                                                  #        SOME OF THE FOLLOWING TARGETTING MIGHT BE DONE LESS OFTEN THAN ABOVE.
000168:
000169: 27,6143           43575                           TEST     1                                     #  THIS TEST MIGHT BE COMBINED WITH  THE
000170: 27,6144           45176                           DMOVE                                          #  PREVIOUS ONE IF ALL CALCULATIONS ARE
000171: 27,6145           00010                                    RELVELSW                              #  DONE EVERY CYCLE.
000172: 27,6146           20773                                    GETETA
000173: 27,6147           01465                                    PIPTIME
000174: 27,6150           33145                           STORE    DTEAROT
000175:
000176:                                                                                                  # # Page 702
000177:
000178: 27,6151           76776        UPDATERT           ITC      0                                     #  UPDATE PREDICTED TARGET VECTOR RT
000179: 27,6152           13463                                    EARROT2
000180:
000181: 27,6153           47575                           NOLOD    1
000182: 27,6154           42771                           DOT      RTB                                   #  SINCE (RT) UNIT VEC, THIS IS 1/4 MAX.
000183: 27,6155           01562                                    UNI                                   #  LATANG = RT.UNI
000184: 27,6156           20265                                    FRESHPD
000185: 27,6157           33113                           STORE    LATANG                                #  LATANG = MAC LATANGLE/4 (NO 2 PI)
000186:                                                                                                  #  UNUSUAL SCALING FOR LATANG. ( = ASIN L.
000187:
000188: 27,6160           42773        GETANGLE           DOT      3                                     #  THETA = ARCOS(RT.UNITR)
000189: 27,6161           66616                           DSU      BPL                                   #  RT IS UNIT VECTOR
000190: 27,6162           70716                           DAD      TSLT
000191: 27,6163           61176                           ACOS
000192: 27,6164           01215                                    RT
000193: 27,6165           01016                                    UNITR
000194: 27,6166           21064                                    NEAR1/4                               #  TO IMPROVE ACCURACY, CALC RANGE BY
000195: 27,6167           21031                                    TINYTHET                              #  TINYTHET IF HIGH ORDER PART OF
000196: 27,6170           21064                                    NEAR1/4                               #  ARCCOS ARGUMENT IS ZERO
000197: 27,6171           00002                                    1
000198: 27,6172           33111                           STORE    THETAH
000199:
000200: 27,6173           77576                           EXIT     0
000201:
000202: 27,6174           02276        REFAZE10           TC       PHASCHNG
000203: 27,6175           02205                           OCT      02205                                 #  5.18 RESTART AT REFAZE10
000204: 27,6176           04000                           TC       INTPRET
000205:                                                                                                  # # Page 703
000206:
000207:                                                                                                  #        JUMP TO A PARTICULAR RE-ENTRY PHASE.
000208:
000209: 27,6177           44576        SEQUENCE           ITCI     0                                     #  BRANCHES TO VARIOUS CONTROL PHASES.
000210: 27,6200           01375                                    GOTOADDR                              #  ADDRESS OF PHASE EQS STORED HERE.
000211:
000212:                                                                                                  #        GOTOADDR CONTAINS THE ADDRESS OF THE ROLL COMMAND EQUATIONS
000213:                                                                                                  #  APPROPRIATE TO THE CURRENT PHASE OF RE-ENTRY.  SEQUENCING IS AS FOLLOWS:
000214:
000215:                                                                                                  #  INITROLL SET HERE INITIALLY. HOLDS INITIAL ROLL ATTITUDE UNTIL KAT  EX-
000216:                                                                                                  #           CEEDED. THEN HOLDS NEW ROLL ATTITUDE UNTIL VRTHRESH EXCEEDED.
000217:                                                                                                  #           THEN BRANCHES TO
000218:
000219:                                                                                                  #  HUNTEST  THIS SECTION CHECKS TO SEE IF THE PREDICTED RANGE AT NOMINAL
000220:                                                                                                  #           L/D FROM PRESENT CONDITIONS IS LESS THAN THE DESIRED RANGE.
000221:                                                                                                  #             IF NOT-- A ROLL COMMAND IS GENERATED BY THE CONSTANT DRAG
000222:                                                                                                  #             CONTROLLER.
000223:                                                                                                  #             IF SO-- CONTROL AND GOTOADDR ARE SET TO  UPCONTRL
000224:                                                                                                  #           USUALLY NO ITERATION IS INVOLVED EXCEPT IF THE RANGE DESIRED IS
000225:                                                                                                  #           TOO LONG ON THE FIRST PASS THRU HUNTEST.
000226:
000227:                                                                                                  #  UPCONTRL CONTROLS ROLL DURING THE SUPER-CIRCULAR PHASE. UPCONTRL IS TERM
000228:                                                                                                  #           INATED EITHER (A) WHEN THE DRAG (AS MEASURED BY THE PIPAS)
000229:                                                                                                  #           FALLS BELOW Q7, OR (B) IF RDOT IS NEGATIVE AND REFERENCE VL
000230:                                                                                                  #           EXCEEDS V.  IN CASE (A), GOTOADDR IS SET TO KEP2 AND IN (B) TO
000231:                                                                                                  #           PREDICT3, SKIPPING THE KEPLER PHASE OF ENTRY.
000232:
000233:                                                                                                  #  KEP2     GOTOADDR IS SET HERE DURING THE KEPLER PHASE TO MONITOR DRAG.
000234:                                                                                                  #           SPACECRAFT IS INSTANTANEOUSLY TRIMMED IN PITCH AND YAW TO THE
000235:                                                                                                  #           COMPUTED RELATIVE VELOCITY VECTOR.  THE LAST COMPUTED ROLL
000236:                                                                                                  #           ANGLE IS MAINTAINED.  WHEN THE MEASURED DRAG EXCEEDS Q7+.5,
000237:                                                                                                  #           GOTOADDR IS SET TO
000238:
000239:                                                                                                  #  PREDICT3 THIS CONTROLS THE FINAL SUB-ORBITAL PHASE. ROLL COMMANDS CEASE
000240:                                                                                                  #           WHEN V IS LESS THAN VQUIT.  AN EXIT IS MADE TO TERMALT WHEN
000241:                                                                                                  #           TERMINAL ALTITUDE IS REACHED.
000242:
000243:                                                                                                  # # Page 704
000244:
000245:                                                                                                  #        OUT OF SEQUENCE SUBSECTION TO COMPUTE ETA.
000246:
000247: 30,6772                                           BANK     30
000248: 30,6772           43575        GETETA             TEST     1
000249: 30,6773           64776                           DMP                                            #  NOT USED AT LOW VEL WHERE THETA NEG.
000250: 30,6774           00011                                    EGSW
000251: 30,6775           21010                                    SUBETA                                #  BRANCHES IF INTO EQ. GLIDE PHASE.
000252: 30,6776           01111                                    THETAH
000253: 30,6777           21136                                    KTETA                                 #   = 1000X2PI/(2)E14 163.84
000254: 30,7000           33357                           STORE    ETA                                   #  DONT REALLY WANT IT, BUT NO PUSH WANTED
000255:
000256: 30,7001           47575        GETETA2            NOLOD    1
000257: 30,7002           70776                           DAD
000258: 30,7003           01465                                    PIPTIME
000259: 30,7004           33145                           STORE    DTEAROT
000260:
000261: 30,7005           76776                           ITC      0
000262: 30,7006           16152                                    UPDATERT
000263:
000264: 30,7007           66775        SUBETA             DSU      1                                     #  SWITCH FROM INERTIAL TO RELATIVE
000265: 30,7010           43611                           BPL      SWITCH                                #  VELOCITY WHEN V LESS THAN .5 VSAT.
000266: 30,7011           01620                                    V
000267: 30,7012           21055                                    FOURTH
000268: 30,7013           21016                                    SUBETA2
000269: 30,7014           00010                                    RELVELSW                              #  SHOULD CHANGE TO OFF (NON-BRANCH) STATE
000270:
000271: 30,7015           64775        SUBETA2            DMP      1
000272: 30,7016           62772                           DDV      ITC
000273: 30,7017           01111                                    THETAH
000274: 30,7020           21140                                    KT                                    #  KT = RE(2 PI)/ 2 VS 16384 163.84
000275: 30,7021           01620                                    V                                     #                         /2 VSAT
000276: 30,7022           21002                                    GETETA2
000277:
000278: 30,7023           45176        SETMIND            DMOVE    0                                     #  MAKE D NON-ZERO.
000279: 30,7024           21061                                    1BITDP
000280: 30,7025           33363                           STORE    D
000281:
000282: 30,7026           76776                           ITC      0
000283: 30,7027           16137                                    GETUNI
000284:
000285: 30,7030           47573        TINYTHET           NOLOD    3                                     #  ENTER WITH  X-.249
000286: 30,7031           66723                           DSU      ABS                                   #  GET 1/4 - MPAC
000287: 30,7032           63653                           TSLT     SQRT                                  #  SCALE UP BEFORE SQRT.
000288: 30,7033           64776                           DMP                                            #  HAS FACTOR FOR UP SCALING.
000289: 30,7034           21062                                    1BITDP     +1                         #  X = SQRT(2(1-COSX)),   IN RADIANS
000290: 30,7035           00016                                    13D                                   #  X/2PI=(1/64PI)(SQRT(((1-COSX)/4)2EXP13)
000291: 30,7036           21156                                    KACOS
000292: 30,7037           33111                           STORE    THETAH
000293:
000294: 30,7040           76576                           RTB      0                                     #  OFF TO PRE-SEQUENCE...
000295:                                                                                                  # # Page 705
000296: 30,7041           16175                                    REFAZE10
000297:
000298:                                                                                                  # # Page 706
000299:
000300:                                                                                                  #        MAINTAINS INITIAL ROLL UNTIL D = KAT, GOES INTO HUNTEST WHEN
000301:                                                                                                  #  RDOT = VRCONT.
000302:
000303:
000304:
000305: 31,6677                                           BANK     31
000306:
000307: 31,6677           56475        KEPCADR1           CADR     KEP2
000308: 31,6700           63007        HUNTCADR           CADR     HUNTEST
000309:
000310: 31,6701           45176        INITROLL           DMOVE    0
000311: 31,6702           01576                                    INITL/D
000312: 31,6703           33223                           STORE    L/D
000313:
000314: 31,6704           43574                           TEST     2                                     #  IF D-.05 G NEG, GOT TO LIMITL/D
000315: 31,6705           66756                           DSU      BMN                                   #   IF NOT, SET .05 G SWITCH FOR SCS
000316: 31,6706           77576                           EXIT
000317:                                                                                                  #  RDOT = VRCONT.
000318:
000319:
000320: 31,6707           00020                                    INRLSW
000321: 31,6710           22770                                    INITRL1
000322: 31,6711           01363                                    D
000323: 31,6712           21142                                    .05G
000324: 31,6713           16740                                    LIMITL/D
000325:
000326: 31,6714           03373                           TC       RELAYON                               #  SEND .05 G SIGNAL TO SCS.
000327: 31,6715           40100                           OCT      40100
000328: 31,6716           02362                           TC       NEWMODE                               #  SET MODE TO AFTER .05 G STATE.
000329: 31,6717           00064                           OCT      00064
000330: 31,6720           04000                           TC       INTPRET
000331:
000332: 31,6721           45176                           DMOVE    0                                     #  MAY WANT THIS IN UPDWNTST FOR 278
000333: 31,6722           21144                                    LAD
000334: 31,6723           33223                           STORE    L/D
000335:
000336: 31,6724           47576                           NOLOD    0
000337: 31,6725           33576                           STORE    INITL/D
000338:
000339: 31,6726           42574                           SWITCH   2                                     #  IF V-FINAL NEG, GO TO FINAL PHASE
000340: 31,6727           66616                           DSU      BPL
000341: 31,6730           77576                           EXIT
000342: 31,6731           00020                                    INRLSW
000343: 31,6732           01620                                    V
000344: 31,6733           21230                                    VFINAL
000345: 31,6734           22743                                    UPDWNTST
000346:
000347: 31,6735           36677                           CAF      KEPCADR1
000348: 31,6736           51374                           TS       GOTOADDR
000349:                                                                                                  # # Page 707
000350: 31,6737           04000                           TC       INTPRET
000351:
000352: 31,6740           76776                           ITC      0
000353: 31,6741           16740                                    LIMITL/D
000354:
000355: 31,6742           62776        UPDWNTST           DDV      0
000356: 31,6743           01347                                    RDOT
000357: 31,6744           01620                                    V                                     #  RESULT INTO PD
000358:
000359: 31,6745           47571                           NOLOD    5                                     #  IF V-VFINAL+K(RDOT/V)CUBED POS,L/D=-LAD
000360: 31,6746           51122                           DSQ      DMP
000361: 31,6747           62732                           DDV      DSU
000362: 31,6750           70746                           DAD      BOV
000363: 31,6751           73605                           BMN      LODON
000364: 31,6752           47176                           COMP
000365: 31,6753           77777                                    -
000366: 31,6754           21226                                    K44
000367: 31,6755           21230                                    VFINAL
000368: 31,6756           01620                                    V
000369: 31,6757           16740                                    LIMITL/D
000370: 31,6760           16740                                    LIMITL/D
000371: 31,6761           21144                                    LAD
000372: 31,6762           33576                           STORE    INITL/D
000373:
000374: 31,6763           47576                           NOLOD    0
000375: 31,6764           33223                           STORE    L/D
000376:
000377: 31,6765           76776                           ITC      0
000378: 31,6766           16740                                    LIMITL/D
000379:
000380: 31,6767           66774        INITRL1            DSU      2                                     #  IF KAT-D POS, GO TO OUT WITH COMMAND
000381: 31,6770           43605                           BPL      LODON                                 #      IF NEG,  L/D = LAD
000382: 31,6771           45176                           DMOVE
000383: 31,6772           21232                                    KAT
000384: 31,6773           01363                                    D
000385: 31,6774           23000                                    VRTHRES
000386: 31,6775           21144                                    LAD                                   #  WHEN D GREATER THAN KAT, L/D = LAD
000387: 31,6776           33223                           STORE    L/D
000388:
000389: 31,6777           70775        VRTHRES            DAD      1                                     #  IF RDOT + VRCONT NEG, GO TO STEER
000390: 31,7000           73775                           BMN      EXIT                                  #  IF POS, SET SELECTOR TO HUNTEST.
000391: 31,7001           01347                                    RDOT
000392: 31,7002           21172                                    VRCONT
000393: 31,7003           16740                                    LIMITL/D                              #   DO LATERAL CONTROL IF NEEDED.
000394:                                                                                                  #                                SPACER
000395: 31,7004           36700                           CAF      HUNTCADR
000396: 31,7005           51374                           TS       GOTOADDR                              #  AND FALL THRU INTO HUNTEST.
000397:
000398:                                                                                                  # # Page 708
000399:
000400:                                                                                                  #   ... HUNTEST SECTION... CHECKS TO SEE WHEN PREDICTED RANGE = DESIRED ONE
000401:
000402:                                                                                                  #                                        KEEP WITH ABOVE CODING........
000403:
000404: 31,7006           04000                           TC       INTPRET
000405:
000406: 31,7007           45176        HUNTEST            DMOVE    0
000407: 31,7010           21051                                    LEWD1
000408: 31,7011           33341                           STORE    LEWD
000409:
000410: 31,7012           66774                           DSU      2
000411: 31,7013           73605                           BMN      LODON
000412: 31,7014           45176                           DMOVE
000413: 31,7015           01363                                    D
000414: 31,7016           21122                                    C20
000415: 31,7017           23026                                    HUNTESTA
000416: 31,7020           21053                                    LEWD2
000417: 31,7021           33341                           STORE    LEWD
000418:
000419: 31,7022           45176                           DMOVE    0
000420: 31,7023           01363                                    D                                     #  A1 = D
000421: 31,7024           33101                           STORE    A1
000422:
000423: 31,7025           45176        HUNTESTA           DMOVE    0                                     #   IF RDOT POS, TEM1B = LAD
000424: 31,7026           21144                                    LAD
000425: 31,7027           33421                           STORE    TEM1B
000426:
000427: 31,7030           73775                           BMN      1
000428: 31,7031           41423                           LODON    DMOVE
000429: 31,7032           01347                                    RDOT
000430: 31,7033           23037                                    A0CALC
000431: 31,7034           01341                                    LEWD
000432: 31,7035           33421                           STORE    TEM1B
000433:
000434: 31,7036           62775        A0CALC             DDV      1                                     #  V1 = V + RDOT/TEM1B
000435: 31,7037           70776                           DAD
000436: 31,7040           01347                                    RDOT
000437: 31,7041           01421                                    TEM1B
000438: 31,7042           01620                                    V
000439: 31,7043           33365                           STORE    V1
000440:
000441: 31,7044           51173                           DSQ      3                                     #  A0=(V1/V)SQ(D0+RDOT SQ/(TEM1B 2 C1 HS)
000442: 31,7045           62712                           DDV      DDV
000443: 31,7046           70722                           DAD      DMP
000444: 31,7047           64712                           DMP      DDV
000445: 31,7050           01347                                    RDOT
000446: 31,7051           01421                                    TEM1B
000447: 31,7052           21220                                    2C1HS
000448: 31,7053           01363                                    D
000449: 31,7054           01365                                    V1
000450:                                                                                                  # # Page 709
000451: 31,7055           01365                                    V1
000452: 31,7056           01343                                    VSQUARE
000453: 31,7057           33602                           STORE    A0
000454:
000455: 31,7060           43776                           BPL      0                                     #  IF RDOT NEG, A1 = A0
000456: 31,7061           01347                                    RDOT
000457: 31,7062           23067                                    TESTHSW
000458:
000459: 31,7063           45176                           DMOVE    0
000460: 31,7064           01602                                    A0
000461: 31,7065           33101                           STORE    A1
000462:
000463: 31,7066           43575        TESTHSW            TEST     1                                     #  IF HUNTSW1 ON (BRANCH), GO TO HUNTEST1
000464: 31,7067           42576                           SWITCH
000465: 31,7070           00012                                    HUNTSW1
000466: 31,7071           23106                                    HUNTEST1
000467: 31,7072           00012                                    HUNTSW1
000468:
000469: 31,7073           45176                           DMOVE    0                                     #  ZERO DIFFOLD THE FIRST TIME THRU.
000470: 31,7074           21057                                    3ZEROS
000471: 31,7075           33325                           STORE    DIFFOLD
000472:
000473: 31,7076           70776                           DAD      0                                     #  V1OLD = V1 + C18  (500FPS)
000474: 31,7077           01365                                    V1                                    #  MAKES OLD VCORR -500 AND NEW +500 ..
000475: 31,7100           21066                                    C18                                   #  INITIAL VALUE ON VCORR = -500 FPS SO
000476: 31,7101           33371                           STORE    V1OLD                                 #  (IN+TIAL 0ALUES IF NEEDED ON 1ST PASS.
000477:
000478: 31,7102           45176                           DMOVE    0                                     #  Q7 = Q7F
000479: 31,7103           21104                                    Q7F
000480: 31,7104           33327                           STORE    Q7
000481:
000482: 31,7105           64774        HUNTEST1           DMP      2                                     #  ALP = A0 2HSD/LWD / V1 V1
000483: 31,7106           62771                           DDV      RTB
000484: 31,7107           62712                           DDV      DDV
000485: 31,7110           01602                                    A0
000486: 31,7111           21220                                    2C1HS
000487: 31,7112           01365                                    V1
000488: 31,7113           20265                                    FRESHPD
000489: 31,7114           01365                                    V1
000490: 31,7115           01341                                    LEWD
000491: 31,7116           33630                           STORE    ALP
000492:
000493: 31,7117           47575                           NOLOD    1
000494: 31,7120           65706                           BDSU     BDDV
000495: 31,7121           21043                                    NEARONE                               #  FACT1 = V1 / (1 - ALP)
000496: 31,7122           01365                                    V1
000497: 31,7123           33632                           STORE    FACT1
000498:
000499: 31,7124           66775                           DSU      1
000500: 31,7125           64712                           DMP      DDV                                   #  FACT2 = ALP(ALP - 1) / AD
000501:                                                                                                  # # Page 710
000502: 31,7126           01630                                    ALP
000503: 31,7127           21043                                    NEARONE
000504: 31,7130           01630                                    ALP
000505: 31,7131           01602                                    A0
000506: 31,7132           33331                           STORE    FACT2
000507:
000508: 31,7133           64774                           DMP      2                                     #  VL = FACT1(1 - SQRT(ALP + Q7 FACT2))
000509: 31,7134           70653                           DAD      SQRT
000510: 31,7135           65722                           BDSU     DMP
000511: 31,7136           01327                                    Q7
000512: 31,7137           01331                                    FACT2
000513: 31,7140           01630                                    ALP
000514: 31,7141           21043                                    NEARONE
000515: 31,7142           01632                                    FACT1
000516: 31,7143           33616                           STORE    VL
000517:
000518: 31,7144           47574                           NOLOD    2                                     #  GAMMAL = LEWD(V1-VL)/VL
000519: 31,7145           65722                           BDSU     DMP
000520: 31,7146           62776                           DDV
000521: 31,7147           01365                                    V1
000522: 31,7150           01341                                    LEWD
000523: 31,7151           01616                                    VL
000524: 31,7152           32027                           STORE    GAMMAL1                               #  GAMMAL1 USED IN UPCONTRL
000525:
000526: 31,7153           66775                           DSU      1                                     #  IF VL-VMIN NEG, GO TO SHORT
000527: 31,7154           73776                           BMN
000528: 31,7155           01616                                    VL
000529: 31,7156           21106                                    VMIN
000530: 31,7157           16532                                    PREFINAL                              #  PREFINAL = SHORT
000531:
000532: 31,7160           51176                           DSQ      0                                     #  VBARS = VL VL
000533: 31,7161           01616                                    VL
000534: 31,7162           33604                           STORE    VBARS
000535:
000536: 31,7163           66775                           DSU      1                                     #  IF VSAT - VL NEG, GO TO CONSTD.
000537: 31,7164           73776                           BMN
000538: 31,7165           21174                                    HALVE                                 #  VSAT = .5
000539: 31,7166           01616                                    VL
000540: 31,7167           16405                                    BECONSTD                              #  GOTOADDR MAY BE SIDETRACKED.
000541: 31,7170           33440                           STORE    DVL                                   #  DVL = VSAT - VL
000542:
000543: 31,7171           45176                           DMOVE    0
000544: 31,7172           21174                                    HALVE                                 #  VS = VSAT
000545: 31,7173           33612                           STORE    VS
000546:
000547: 31,7174           47574                           NOLOD    2
000548: 31,7175           66756                           DSU      BMN                                   #  IF V1 GREATER THAN VSAT, GO ON.
000549: 31,7176           65776                           BDSU
000550: 31,7177           01365                                    V1
000551: 31,7200           23207                                    GETDHOOK
000552:                                                                                                  # # Page 711
000553: 31,7201           01440                                    DVL                                   #  DVL = DVL - (VSAT-V1) = V1 - VL
000554: 31,7202           33440                           STORE    DVL
000555:
000556: 31,7203           45176                           DMOVE    0
000557: 31,7204           01365                                    V1
000558: 31,7205           33612                           STORE    VS                                    #  VS = V1
000559:
000560: 31,7206           56773        GETDHOOK           TSRT     3                                     #  DHOOK = ((1-VS/FACT1)SQ -ALP)/FACT2
000561: 31,7207           62726                           DDV      BDSU
000562: 31,7210           63643                           TSLT     DSQ
000563: 31,7211           66712                           DSU      DDV
000564: 31,7212           01612                                    VS
000565: 31,7213           00002                                    1
000566: 31,7214           01632                                    FACT1
000567: 31,7215           21174                                    HALVE
000568: 31,7216           00002                                    1
000569: 31,7217           01630                                    ALP
000570: 31,7220           01331                                    FACT2
000571: 31,7221           33434                           STORE    DHOOK
000572:
000573: 31,7222           56775                           TSRT     1                                     #  RESCALE BY 32.
000574: 31,7223           62732                           DDV      DSU
000575: 31,7224           01434                                    DHOOK
000576: 31,7225           00006                                    5
000577: 31,7226           01327                                    Q7
000578: 31,7227           21160                                    CHOOK
000579: 31,7230           33436                           STORE    AHOOKDV
000580:
000581: 31,7231           47572                           NOLOD    4
000582: 31,7232           70722                           DAD      DMP                                   #  GAMMAL = GAMMAL1-CH1 DVLSQ(1+AHOOK DVL
000583: 31,7233           64722                           DMP      DMP                                   #         /DHOOK VBARS
000584: 31,7234           62712                           DDV      DDV
000585: 31,7235           65756                           BDSU     BMN
000586: 31,7236           21162                                    1/8TH
000587: 31,7237           21164                                    CH1
000588: 31,7240           01440                                    DVL
000589: 31,7241           01440                                    DVL
000590: 31,7242           01434                                    DHOOK
000591: 31,7243           01604                                    VBARS
000592: 31,7244           00027                                    GAMMAL1
000593: 31,7245           23450                                    NEGAMA                                #  FIND CONDITIONS FOR GAMMAL = 0.
000594: 31,7246           33610                           STORE    GAMMAL
000595:                                                                                                  # # Page 712
000596:
000597:                                                                                                  #    ... PREDICT RANGES FOR EACH PHASE OF TRAJECTORY...
000598:
000599: 31,7247           51175        RANGER             DSQ      1
000600: 31,7250           56726                           TSRT     BDSU                                  #  COSG = 1-GAMMAL SQ/2 , TRUNCATED SERIES
000601: 31,7251           01610                                    GAMMAL
000602: 31,7252           00003                                    2
000603: 31,7253           21174                                    HALVE
000604: 31,7254           33606                           STORE    COSG/2
000605:
000606: 31,7255           66773                           DSU      3
000607: 31,7256           64722                           DMP      DMP                                   #  E=SQRT(1+VBARS-2)VBARS COSG COSG)
000608: 31,7257           64716                           DMP      TSLT
000609: 31,7260           70653                           DAD      SQRT
000610: 31,7261           01604                                    VBARS
000611: 31,7262           21174                                    HALVE
000612: 31,7263           01604                                    VBARS
000613: 31,7264           01606                                    COSG/2
000614: 31,7265           01606                                    COSG/2
000615: 31,7266           00003                                    2                                     #  MULT BY 4
000616: 31,7267           21072                                    C1/16                                 #  E  (E/4 REALLY) INTO PD.
000617:
000618: 31,7270           64774                           DMP      2                                     #  ASKEP/2 = ARCSIN(VBARS COSG SING/E)
000619: 31,7271           64712                           DMP      DDV
000620: 31,7272           63116                           ASIN     TSLT
000621: 31,7273           01604                                    VBARS
000622: 31,7274           01606                                    COSG/2
000623: 31,7275           01610                                    GAMMAL
000624: 31,7276           77777                                    -                                     #  E FROM PD.
000625: 31,7277           00002                                    1                                     #  ASKEP INTO PD.
000626:
000627: 31,7300           64775                           DMP      1                                     #  ASP1 = Q2 +Q3(VL-Q4) = Q2' + Q3 VL
000628: 31,7301           70742                           DAD      DAD
000629: 31,7302           01616                                    VL
000630: 31,7303           21076                                    Q3
000631: 31,7304           21074                                    Q2                                    #  ASP1 + ASKEP INTO PD.
000632:
000633: 31,7305           64776                           DMP      0                                     #  MODIFY GAMMAL1
000634: 31,7306           00027                                    GAMMAL1
000635: 31,7307           21234                                    POINT8
000636: 31,7310           64775                           DMP      1
000637: 31,7311           70776                           DAD
000638: 31,7312           01610                                    GAMMAL
000639: 31,7313           21236                                    POINT2
000640: 31,7314           32027                           STORE    GAMMAL1
000641:
000642: 31,7315           51173                           DSQ      3                                     #  ASPUP = -C12 LOG(V1 V1 Q7/VBARS D)/GAN
000643: 31,7316           64712                           DMP      DDV                                   #                                 AL1
000644: 31,7317           62771                           DDV      RTB
000645: 31,7320           64712                           DMP      DDV
000646: 31,7321           01365                                    V1
000647:                                                                                                  # # Page 713
000648: 31,7322           01327                                    Q7
000649: 31,7323           01604                                    VBARS
000650: 31,7324           01602                                    A0
000651: 31,7325           20437                                    LOG
000652: 31,7326           21110                                    C12
000653: 31,7327           00027                                    GAMMAL1
000654:
000655: 31,7330           64775                           DMP      1
000656: 31,7331           64712                           DMP      DDV
000657: 31,7332           21166                                    KC3
000658: 31,7333           01347                                    RDOT
000659: 31,7334           01620                                    V
000660: 31,7335           01602                                    A0
000661:
000662: 31,7336           66774                           DSU      2
000663: 31,7337           64742                           DMP      DAD
000664: 31,7340           70742                           DAD      DAD
000665: 31,7341           21102                                    Q6
000666: 31,7342           01610                                    GAMMAL
000667: 31,7343           21100                                    Q5
000668:
000669: 31,7344           47575                           NOLOD    1
000670: 31,7345           65672                           BDSU     TSRT
000671: 31,7346           01111                                    THETAH
000672: 31,7347           00005                                    4
000673: 31,7350           33225                           STORE    DIFF
000674:
000675: 31,7351           47572                           NOLOD    4
000676: 31,7352           65132                           ABS      DSU
000677: 31,7353           73615                           BMN      TEST
000678: 31,7354           41556                           LODON    BMN
000679: 31,7355           41532                           LODON    DSU
000680: 31,7356           21124                                    25NM
000681: 31,7357           16203                                    GOTOUPSY
000682: 31,7360           00013                                    HIND
000683: 31,7361           23370                                    GETVCOR
000684: 31,7362           01225                                    DIFF
000685: 31,7363           16377                                    DCONSTD
000686:
000687: 31,7364           01365                                    V1
000688: 31,7365           01371                                    V1OLD
000689: 31,7366           33600                           STORE    VCORR
000690:
000691: 31,7367           66774        GETVCOR            DSU      2
000692: 31,7370           56712                           TSRT     DDV
000693: 31,7371           61672                           BDDV     TSRT
000694: 31,7372           01325                                    DIFFOLD
000695: 31,7373           01225                                    DIFF
000696: 31,7374           00003                                    2
000697: 31,7375           01600                                    VCORR
000698:                                                                                                  # # Page 714
000699: 31,7376           01225                                    DIFF
000700: 31,7377           00003                                    2
000701: 31,7400           33600                           STORE    VCORR
000702:
000703: 31,7401           77576                           EXIT     0
000704:
000705: 31,7402           02276                           TC       PHASCHNG                              #  HAVE GROUP 3 PICK UP AT PREHUNT.
000706: 31,7403           02003                           OCT      02003                                 #  3.16 RESTART.
000707:
000708: 31,7404           37514                           CAF      ADENDEXT                              #  SIDETRACK NEXT PASS UNTIL THIS ONE DONE.
000709: 31,7405           51374                           TS       GOTOADDR                              #  ONLY AFTER RESTART IS LEFT AFTER DETOUR.
000710:
000711: 31,7406           35501                           CAF      ZERO                                  #  ZERO OVFIND TO GUARD AGAINST FUTURE BOV
000712: 31,7407           50122                           TS       OVFIND
000713:
000714: 31,7410           04000                           TC       INTPRET
000715:
000716: 31,7411           47574                           NOLOD    2
000717: 31,7412           65616                           BDSU     BPL                                   #  IS VCORR - 1000 POS.
000718: 31,7413           70776                           DAD                                            #  VCORR = 1000
000719: 31,7414           21120                                    VCORLIM
000720: 31,7415           23421                                    CHKVL
000721: 31,7416           01600                                    VCORR                                 #  LEAVING VCORLIM IN MPAC
000722: 31,7417           33600                           STORE    VCORR
000723:
000724: 31,7420           70774        CHKVL              DAD      2
000725: 31,7421           66756                           DSU      BMN                                   #  IF VL + VCORR - VSAT POS, VCORR=VCORR/
000726: 31,7422           41472                           LODON    TSRT
000727: 31,7423           01600                                    VCORR
000728: 31,7424           01616                                    VL
000729: 31,7425           21174                                    HALVE
000730: 31,7426           23433                                    GETNUV1
000731: 31,7427           01600                                    VCORR
000732: 31,7430           00002                                    1
000733: 31,7431           33600                           STORE    VCORR
000734:
000735: 31,7432           70776        GETNUV1            DAD      0
000736: 31,7433           01365                                    V1
000737: 31,7434           01600                                    VCORR
000738: 31,7435           33365                           STORE    V1
000739:
000740: 31,7436           45176                           DMOVE    0                                     #  SAVE OLD VALUE OF ASP
000741: 31,7437           01225                                    DIFF
000742: 31,7440           33325                           STORE    DIFFOLD
000743:
000744: 31,7441           43575                           TEST     1                                     #  SET HIND AND GO TO HUNTEST1
000745: 31,7442           42572                           SWITCH   ITC
000746: 31,7443           00013                                    HIND
000747: 31,7444           23106                                    HUNTEST1
000748: 31,7445           00013                                    HIND
000749:                                                                                                  # # Page 715
000750: 31,7446           23106                                    HUNTEST1
000751:
000752:
000753:
000754: 31,7447           47575        NEGAMA             NOLOD    1                                     #  ENTER WITH GAMMAL IN  MPAC
000755: 31,7450           64722                           DMP      DMP                                   #  FIND GAMMAL VL / 3
000756: 31,7451           01616                                    VL
000757: 31,7452           21045                                    1/3RD                                 #    .. AND PUSH DOWN PARTIAL RESULT..
000758:
000759: 31,7453           64776                           DMP      0
000760: 31,7454           01341                                    LEWD
000761: 31,7455           21045                                    1/3RD                                 #  PUSH LEWD/3 ALSO
000762: 31,7456           70773                           DAD      3
000763: 31,7457           64722                           DMP      DMP                                   #   DEL VL = GAMMAL VL/3)/(LEWD/3 - DVL(2/3
000764: 31,7460           62712                           DDV      DDV                                   #       + AHOOKDV)(CH1 GS/DHOOK VL1))
000765: 31,7461           65706                           BDSU     BDDV
000766: 31,7462           01436                                    AHOOKDV
000767: 31,7463           21047                                    1/12TH
000768: 31,7464           01440                                    DVL
000769: 31,7465           21164                                    CH1
000770: 31,7466           01434                                    DHOOK
000771: 31,7467           01616                                    VL                                    #  2 OUT OF ,1 INTO PUSH
000772:
000773: 31,7470           70776                           DAD      0
000774: 31,7471           01616                                    VL
000775: 31,7472           33616                           STORE    VL                                    #   VL = VL + DEL VL
000776:
000777: 31,7473           47573                           NOLOD    3                                     #   VL IS IN MPAC
000778: 31,7474           62726                           DDV      BDSU                                  #   Q7 = ((1-VL/FACT1)SQ - ALP)/ FACT2
000779: 31,7475           51132                           DSQ      DSU
000780: 31,7476           62776                           DDV
000781: 31,7477           01632                                    FACT1
000782: 31,7500           21043                                    NEARONE
000783: 31,7501           01630                                    ALP
000784: 31,7502           01331                                    FACT2
000785: 31,7503           33327                           STORE    Q7
000786:
000787: 31,7504           51176                           DSQ      0                                     #  GET NEW VBARS.
000788: 31,7505           01616                                    VL
000789: 31,7506           33604                           STORE    VBARS
000790:
000791: 31,7507           45176                           DMOVE    0
000792: 31,7510           21057                                    3ZEROS
000793: 31,7511           33610                           STORE    GAMMAL                                #   GAMAL = 0
000794:
000795: 31,7512           76776                           ITC      0
000796: 31,7513           23250                                    RANGER
000797:
000798:                                                                                                  # # Page 716
000799:
000800: 31,7514           56513        ADENDEXT           CADR     ENDEXIT
000801:
000802: 31,7515           03462        PREHUNT            TC       STATEUP                               #  SET HUNTSW1 AND HIND SWITCHES
000803: 31,7516           00140                           OCT      00140
000804:
000805: 31,7517           07006                           TC       HUNTEST    -1
000806:
000807: 27,6201                                           BANK     27
000808:
000809: 27,6201           56216        UPCADR             CADR     UPCONTRL
000810:
000811: 27,6202           77576        GOTOUPSY           EXIT     0                                     #  BACK TO BASIC
000812:
000813: 27,6203           36201        HUNTDUMP           CAF      UPCADR                                #  RESET GOTOADDR
000814: 27,6204           51374                           TS       GOTOADDR
000815: 27,6205           02362                           TC       NEWMODE                               #  CHANGE MODE TO SIGNAL END OF HUNT-TEST.
000816: 27,6206           00065                           OCT      00065
000817:
000818: 27,6207           44516                           CS       ONE                                   #  MAKE GROUP 3 INACTIVE WHEN DONE WITH
000819: 27,6210           02312                           TC       NEWPHASE                              #        THE ITERATIONS.
000820: 27,6211           00003                           OCT      3                                     #  GROUP 3.
000821:
000822: 27,6212           40067                           CS       FIXLOC                                #  RESET PUSHDOWN POINTER
000823: 27,6213           40000                           COM
000824: 27,6214           50123                           TS       PUSHLOC
000825:
000826: 27,6215           04000                           TC       INTPRET                               #  ...AND FALL INTO UPCONTROL...
000827:
000828:                                                                                                  # # Page 717
000829:
000830:                                                                                                  #  THIS SECTION IS THE UPCONTROL FOR THE SUPERCIRCULAR PHASE
000831:
000832: 27,6216           66773        UPCONTRL           DSU      3                                     #  IF V-V1 POS, GO TO DOWNCONTROL
000833: 27,6217           43605                           BPL      LODON                                 #  IF D-Q7 NEG, GO TO KEP
000834: 27,6220           66756                           DSU      BMN
000835: 27,6221           41556                           LODON    BMN                                   #  IF RDOT NEG, GO TO VLTEST
000836: 27,6222           01620                                    V                                     #  VLTEST TESTS FOR START OF FINAL PHASE
000837: 27,6223           01365                                    V1
000838: 27,6224           16442                                    DOWNCNTL
000839: 27,6225           01363                                    D
000840: 27,6226           01327                                    Q7
000841: 27,6227           16470                                    KEP                                   #  SET CONSTS. ETC FOR BALLISTIC PHASE.
000842: 27,6230           01347                                    RDOT
000843: 27,6231           16524                                    VLTEST
000844:
000845: 27,6232           66775        CONT1              DSU      1
000846: 27,6233           43776                           BPL
000847: 27,6234           01363                                    D                                     #  IF D-A0 NEG,L/D=LAD,GO TO 310
000848: 27,6235           01602                                    A0
000849: 27,6236           16671                                    GOPOSLAD
000850: 27,6237           64774                           DMP      2                                     #  VREF=FACT1(1-SQRT(FACT2 D + ALP))
000851: 27,6240           70653                           DAD      SQRT
000852: 27,6241           65722                           BDSU     DMP
000853: 27,6242           01363                                    D
000854: 27,6243           01331                                    FACT2
000855: 27,6244           01630                                    ALP
000856: 27,6245           21043                                    NEARONE
000857: 27,6246           01632                                    FACT1
000858: 27,6247           33624                           STORE    VREF
000859:
000860: 27,6250           47575                           NOLOD    1                                     #  RDOTREF = LEWD(V1-VREF)
000861: 27,6251           65722                           BDSU     DMP
000862: 27,6252           01365                                    V1
000863: 27,6253           01341                                    LEWD
000864: 27,6254           33626                           STORE    RDOTREF
000865:
000866: 27,6255           66775                           DSU      1                                     #  IF VSAT - VREF NEG, GO TO CONTINU2
000867: 27,6256           73635                           BMN      NOLOD                                 #  NOLOD TO PUSH DOWN (HALVE-VREF)
000868: 27,6257           01612                                    VS
000869: 27,6260           01624                                    VREF                                  #  NO RDHOOK UNTIL VREF LESS THAN VSAT.
000870: 27,6261           16303                                    CONTINU2                              #  PUSHING DOWN IF NO BRANCH.
000871:
000872: 27,6262           47571                           NOLOD    5                                     #  RDHOOK=CH1(AHOOKDVL/DVL(DV+1))DV DV
000873: 27,6263           64712                           DMP      DDV                                   #        /DHOOK VREF
000874: 27,6264           70722                           DAD      DMP                                   #  WHERE DV = VS - VREF
000875: 27,6265           64722                           DMP      DMP
000876: 27,6266           62712                           DDV      DDV
000877: 27,6267           65776                           BDSU
000878: 27,6270           01436                                    AHOOKDV
000879: 27,6271           01440                                    DVL
000880:                                                                                                  # # Page 718
000881: 27,6272           21162                                    1/8TH
000882: 27,6273           21164                                    CH1
000883: 27,6274           00001                                    0                                     #   ABOVE SHOULD HAVE PUSHED INTO LOC 0.
000884: 27,6275           77777                                    -
000885: 27,6276           01434                                    DHOOK
000886: 27,6277           01624                                    VREF
000887: 27,6300           01626                                    RDOTREF
000888: 27,6301           33626                           STORE    RDOTREF                               #   RDOTREF = RDOTREF - RDHOOK
000889:
000890: 27,6302           66775        CONTINU2           DSU      1                                     #  BYPASS FACTOR CALC, IF D-Q7MIN NEG.'
000891: 27,6303           73776                           BMN
000892: 27,6304           01363                                    D
000893: 27,6305           21240                                    Q7MIN
000894: 27,6306           16320                                    CONTINU3
000895:
000896: 27,6307           66776                           DSU      0
000897: 27,6310           01101                                    A1                                    #  FACTOR = (D-Q7)/(A1-Q7)
000898: 27,6311           01327                                    Q7                                    #   PARTIAL RESULT IN PD
000899:
000900: 27,6312           66775                           DSU      1
000901: 27,6313           62776                           DDV
000902: 27,6314           01363                                    D
000903: 27,6315           01327                                    Q7
000904: 27,6316           33622                           STORE    FACTOR
000905:
000906: 27,6317           66773        CONTINU3           DSU      3                                     #  L/D = LEWD
000907: 27,6320           64712                           DMP      DDV                                   #   -((RDOT-RDOTREF)F1/KB1+V-VREF)F1/KB2
000908: 27,6321           70732                           DAD      DSU
000909: 27,6322           64712                           DMP      DDV
000910: 27,6323           01347                                    RDOT
000911: 27,6324           01626                                    RDOTREF
000912: 27,6325           01622                                    FACTOR
000913: 27,6326           21112                                    KB1
000914: 27,6327           01620                                    V
000915: 27,6330           01624                                    VREF
000916: 27,6331           01622                                    FACTOR
000917: 27,6332           21114                                    KB2                                   #  DELTA L/D INTO PD
000918:
000919: 27,6333           71773                           BOV      3                                     #  NONLINEAR CIRCUIT FOR REDUCING HIGH
000920: 27,6334           65132                           ABS      DSU                                   #  GAINS HERE
000921: 27,6335           73722                           BMN      DMP
000922: 27,6336           70656                           DAD      SIGN
000923: 27,6337           16372                                    GOMXL/D1
000924: 27,6340           00001                                    0
000925: 27,6341           21242                                    PT1/16
000926: 27,6342           16346                                    NEXT1
000927: 27,6343           21224                                    POINT1
000928: 27,6344           21242                                    PT1/16
000929: 27,6345           63775        NEXT1              TSLT     1
000930: 27,6346           70746                           DAD      BOV
000931:                                                                                                  # # Page 719
000932: 27,6347           77777                                    -
000933: 27,6350           00005                                    4
000934: 27,6351           01341                                    LEWD
000935: 27,6352           16372                                    GOMXL/D1                              #  PUSHES IF NO BRANCH, NO MATTER
000936:
000937: 27,6353           47576        NEGTESTS           NOLOD    0
000938: 27,6354           33223                           STORE    L/D
000939:
000940: 27,6355           47573                           NOLOD    3                                     #  IF L/D NEG, AND D-C20 POS, L/D = 0
000941: 27,6356           43605                           BPL      LODON
000942: 27,6357           66756                           DSU      BMN
000943: 27,6360           64776                           DMP
000944: 27,6361           16740                                    LIMITL/D
000945: 27,6362           01363                                    D
000946: 27,6363           21122                                    C20
000947: 27,6364           16740                                    LIMITL/D
000948: 27,6365           21057                                    3ZEROS                                #  L/D=0 NO NEG LIFT
000949: 27,6366           33223                           STORE    L/D
000950:
000951: 27,6367           76776                           ITC      0
000952: 27,6370           16740                                    LIMITL/D
000953:
000954: 27,6371           76575        GOMXL/D1           RTB      1
000955: 27,6372           64772                           DMP      ITC
000956: 27,6373           20607                                    SIGNMPAC
000957: 27,6374           21144                                    LAD
000958: 27,6375           16354                                    NEGTESTS
000959:
000960:                                                                                                  # # Page 720
000961:
000962:                                                                                                  #        CONSTANT DRAG CONTROLLER
000963: 27,6376           45176        DCONSTD            DMOVE    0
000964: 27,6377           01225                                    DIFF                                  #  SAVE OLD VALUE OF DIFF FOR NEXT PASS.
000965: 27,6400           33325                           STORE    DIFFOLD
000966:
000967: 27,6401           45176                           DMOVE    0                                     #  V1OLD = V1
000968: 27,6402           01365                                    V1
000969: 27,6403           33371                           STORE    V1OLD
000970:
000971: 27,6404           75575        BECONSTD           AXT,1    1                                     #  RESETS GOTOADDR  TO GO TO HUNTEST
000972: 27,6405           76535                           RTB      SXA,1
000973: 27,6406           23010                                    HUNTEST
000974: 27,6407           20265                                    FRESHPD
000975: 27,6410           01375                                    GOTOADDR
000976:
000977: 27,6411           64776        CONSTD             DMP      0
000978: 27,6412           01432                                    LEQ
000979: 27,6413           21200                                    C/D0                                  #  C/D0 LEQ INTO PD
000980:
000981: 27,6414           64774                           DMP      2
000982: 27,6415           62742                           DDV      DAD
000983: 27,6416           64742                           DMP      DAD
000984: 27,6417           21206                                    2HS                                   #  RDOTREF = - 2 HS D0/V
000985: 27,6420           21116                                    C19                                   #  D0 = C19
000986: 27,6421           01620                                    V
000987: 27,6422           01347                                    RDOT
000988: 27,6423           21130                                    K2D                                   #  C/D0 LEQ + K2D(RDOT-RDOTREF) INTO PD
000989:
000990: 27,6424           45176                           DMOVE    0
000991: 27,6425           21116                                    C19
000992: 27,6426           66773        CONSTD1            DSU      3
000993: 27,6427           64742                           DMP      DAD
000994: 27,6430           63746                           TSLT     BOV
000995: 27,6431           76776                           ITC
000996: 27,6432           01363                                    D
000997: 27,6433           77777                                    -
000998: 27,6434           21126                                    K1D
000999: 27,6435           77777                                    -
001000: 27,6436           00011                                    8D
001001: 27,6437           16372                                    GOMXL/D1
001002: 27,6440           16354                                    NEGTESTS
001003:
001004: 27,6441           66774        DOWNCNTL           DSU      2                                     #  RDTR = LAD(V1-V)
001005: 27,6442           64742                           DMP      DAD
001006: 27,6443           64742                           DMP      DAD
001007: 27,6444           01620                                    V
001008: 27,6445           01365                                    V1
001009: 27,6446           21144                                    LAD
001010: 27,6447           01347                                    RDOT
001011: 27,6450           21130                                    K2D
001012:                                                                                                  # # Page 721
001013: 27,6451           21146                                    LAD/256                               #  LAD + K2D(RDOT-RDTR) INTO PD
001014:
001015: 27,6452           66775                           DSU      1
001016: 27,6453           51112                           DSQ      DDV
001017: 27,6454           01365                                    V1
001018: 27,6455           01620                                    V
001019: 27,6456           21222                                    2C1HSLAD                              #  (V1-V)SQ/(2 C1 HS/LAD) INTO PD
001020:
001021: 27,6457           51174                           DSQ      2                                     #  DREF = (V/V1)SQ A0 - PD
001022: 27,6460           62706                           DDV      BDDV
001023: 27,6461           66776                           DSU
001024: 27,6462           01365                                    V1
001025: 27,6463           01343                                    VSQUARE
001026: 27,6464           01602                                    A0
001027:
001028: 27,6465           76776                           ITC      0
001029: 27,6466           16427                                    CONSTD1
001030:
001031: 27,6467           77576        KEP                EXIT     0
001032:
001033: 27,6470           36521                           CAF      KEPCADR                               #  SET GOTOADDR TO KEPLER PHASE.
001034: 27,6471           51374                           TS       GOTOADDR
001035: 27,6472           02362                           TC       NEWMODE                               #  SET MODE TO KEPLER PHASE.
001036: 27,6473           00066                           OCT      00066
001037:
001038: 27,6474           04000                           TC       INTPRET
001039:
001040: 27,6475           66775        KEP2               DSU      1
001041: 27,6476           73775                           BMN      EXIT
001042: 27,6477           01363                                    D
001043: 27,6500           21142                                    .05G
001044: 27,6501           16516                                    NO.05G
001045:
001046: 27,6502           03373                           TC       RELAYON
001047: 27,6503           40100                           OCT      40100                                 #  SEND .05G INDICATION
001048: 27,6504           04000                           TC       INTPRET
001049:
001050: 27,6505           70775        KEP3               DAD      1                                     #  IF Q7+KDMIN - D NEG, GO TO FINAL PHASE
001051: 27,6506           66756                           DSU      BMN
001052: 27,6507           01327                                    Q7                                    #   MIN DRAG = Q7 + .5 FT/SEC/SEC
001053: 27,6510           21070                                    KDMIN
001054: 27,6511           01363                                    D
001055: 27,6512           16532                                    PREFINAL                              #   FALL THRU IF POS...
001056:
001057: 27,6513           77576        ENDEXIT            EXIT     0                                     #   GOTOADDR IS SET HERE DURING VLHUNT.
001058: 27,6514           07032                           TC       OVERNOUT
001059:
001060: 27,6515           77576        NO.05G             EXIT     0
001061: 27,6516           03405                           TC       RELAYOFF                              #  REMOVE .05G INDICATION
001062: 27,6517           40100                           OCT      40100
001063:                                                                                                  # # Page 722
001064: 27,6520           06504                           TC       KEP3       -1
001065:
001066: 27,6521           56475        KEPCADR            CADR     KEP2
001067: 27,6522           56544        P3CADR             CADR     PREDICT3
001068:
001069: 27,6523           66775        VLTEST             DSU      1                                     #  IF V-VL-C18 NEG,EGSW=1,SELECTOR=PREDIC
001070: 27,6524           66616                           DSU      BPL                                   #  GO TO PREDICT3
001071: 27,6525           01620                                    V
001072: 27,6526           01616                                    VL
001073: 27,6527           21066                                    C18
001074: 27,6530           16233                                    CONT1
001075:
001076: 27,6531           42575        PREFINAL           SWITCH   1                                     #  CHANGE GOTOADDR TO PREDICT3 AND FALL
001077: 27,6532           77576                           EXIT                                           #  INTO PREDICT3
001078: 27,6533           00011                                    EGSW
001079:
001080: 27,6534           44516                           CS       ONE
001081: 27,6535           02312                           TC       NEWPHASE
001082: 27,6536           00003                           OCT      3
001083:
001084: 27,6537           36522                           CAF      P3CADR
001085: 27,6540           51374                           TS       GOTOADDR                              #  SET TO PREDICT3 PHASE.
001086: 27,6541           02362                           TC       NEWMODE
001087: 27,6542           00067                           OCT      00067
001088:
001089: 27,6543           04000                           TC       INTPRET                               #  ... AND FALL INTO PRDICT3...
001090:
001091:                                                                                                  # # Page 723
001092:
001093:                                                                                                  #    SUBORBITAL CONTROL  (REFERENCE TRAJECTORY BY TABLE LOOKUP.)
001094:
001095: 27,6544           66772        PREDICT3           DSU      4
001096: 27,6545           73605                           BMN      LODON                                 #  IF V - VQUIT NEG,  STOP STEERING
001097: 27,6546           43576                           TEST
001098: 27,6547           41612                           VXV      DOT                                   #  IF (RT)*UNITR.UNI NEG, SET GONEPAST
001099: 27,6550           73775                           BMN      EXIT
001100: 27,6551           01620                                    V
001101: 27,6552           21120                                    VQUIT
001102: 27,6553           17006                                    STEER
001103: 27,6554           00007                                    GONEPAST
001104: 27,6555           16700                                    GONEGLAD
001105: 27,6556           01215                                    RT
001106: 27,6557           01016                                    UNITR
001107: 27,6560           01562                                    UNI                                   #  (MIGHT SAVE THIS FROM EARLIER..
001108: 27,6561           16676                                    SETGPAST
001109:
001110: 27,6562           45642                           CS       NEG14
001111: 27,6563           51107        BACK               TS       JJ
001112:
001113: 27,6564           41617                           CS       V
001114: 27,6565           21107                           INDEX    JJ
001115: 27,6566           67203                           AD       VREFER                                #  VREF - V, HIGHEST VREF AT END OF TABLE.
001116: 27,6567           10000                           CCS      A                                     #  IF VREF-V POS LOOP BACK
001117: 27,6570           11107                           CCS      JJ                                    #  DECREMENT JJ, JJ CANNOT BE ZERO
001118: 27,6571           06563                           TC       BACK
001119:
001120: 27,6572           64516                           AD       ONE
001121: 27,6573           51420                           TS       TEM1B                                 #  V-VREF UN TEM1B (MUST BE POSITIIVE NUM)
001122:
001123: 27,6574           21107                           INDEX    JJ
001124: 27,6575           47203                           CS       VREFER
001125: 27,6576           21107                           INDEX    JJ
001126: 27,6577           67204                           AD       VREFER     +1                         #  V(K+1) - V(K)     (POS NUM)
001127: 27,6600           31420                           XCH      TEM1B
001128: 27,6601           25777                           EXTEND
001129: 27,6602           51420                           DV       TEM1B
001130: 27,6603           51422                           TS       GRAD                                  #  GRAD = (V-VREF)/(VK+1 - VK)   (POS NUM
001131:
001132: 27,6604           34477                           CAF      FIVE
001133: 27,6605           51421        BACK2              TS       M1
001134: 27,6606           37201                           CAF      DEC15
001135: 27,6607           61107                           AD       JJ
001136: 27,6610           51107                           TS       JJ
001137: 27,6611           20000                           INDEX    A
001138: 27,6612           47203                           CS       VREFER
001139: 27,6613           21107                           INDEX    JJ
001140: 27,6614           67204                           AD       VREFER     +1                         #  X(K+1) - X(K)
001141: 27,6615           25777                           EXTEND
001142: 27,6616           41422                           MP       GRAD
001143:                                                                                                  # # Page 724
001144: 27,6617           21107                           INDEX    JJ
001145: 27,6620           67203                           AD       VREFER
001146: 27,6621           21421                           INDEX    M1
001147: 27,6622           51100                           TS       FX                                    #  FX = AK + GRAD (AK+1 - AK)
001148: 27,6623           11421                           CCS      M1
001149: 27,6624           06605                           TC       BACK2
001150:
001151: 27,6625           41101                           CS       FX         +1                         #  DON'T DESTROY FX +1
001152: 27,6626           40000                           COM
001153: 27,6627           61362                           AD       D
001154: 27,6630           25777                           EXTEND
001155: 27,6631           41105                           MP       FX         +5                         #  F1
001156: 27,6632           51420                           TS       TEM1B                                 #  TEM1B= F1(D-DREF)
001157:
001158: 27,6633           41346                           CS       RDOT                                  #  FORM RDOTREF - RDOT
001159: 27,6634           60000                           DOUBLE
001160: 27,6635           60000                           DOUBLE                                         #  SCALE UP BY 8 FOR THIS PHASE.
001161: 27,6636           60000                           DOUBLE
001162: 27,6637           61103                           AD       FX         +3                         #  RDOTREF
001163: 27,6640           25777                           EXTEND
001164: 27,6641           41104                           MP       FX         +4                         #  F2
001165: 27,6642           61420                           AD       TEM1B                                 #  ADD F2(DADV1-DADVR)
001166: 27,6643           61102                           AD       FX         +2                         #  RTOGO
001167: 27,6644           31106                           XCH      PREDANG                               #  NO OVERFLOW SKIP PLEASE.
001168: 27,6645           04000                           TC       INTPRET
001169:
001170: 27,6646           43175                           SMOVE    1
001171: 27,6647           56726                           TSRT     BDSU                                  #  THETAH - PRED ANGLE
001172: 27,6650           01107                                    PREDANG
001173: 27,6651           00004                                    3
001174: 27,6652           01111                                    THETAH
001175:
001176: 27,6653           43173                           SMOVE    3
001177: 27,6654           61716                           BDDV     TSLT
001178: 27,6655           71742                           BOV      DAD
001179: 27,6656           71776                           BOV
001180: 27,6657           01101                                    FX                                    #  FX = DRANGE/D L/D = Y
001181: 27,6660           77777                                    -
001182: 27,6661           00006                                    5
001183: 27,6662           16705                                    GOMAXL/D
001184: 27,6663           21170                                    LOD
001185: 27,6664           16705                                    GOMAXL/D
001186: 27,6665           33223                           STORE    L/D
001187:
001188: 27,6666           76776                           ITC      0
001189: 27,6667           16712                                    GLIMITER
001190:
001191: 27,6670           45176        GOPOSLAD           DMOVE    0
001192: 27,6671           21144                                    LAD
001193: 27,6672           33223                           STORE    L/D
001194:                                                                                                  # # Page 725
001195: 27,6673           76776                           ITC      0
001196: 27,6674           16740                                    LIMITL/D
001197:
001198: 27,6675           42576        SETGPAST           SWITCH   0                                     #  SHOULD BE BY TARGET IF HERE.
001199: 27,6676           00007                                    GONEPAST
001200:
001201: 27,6677           47176        GONEGLAD           COMP     0
001202: 27,6700           21144                                    LAD                                   #  L/D = - LAD
001203: 27,6701           33223                           STORE    L/D
001204:
001205: 27,6702           76776                           ITC      0
001206: 27,6703           16712                                    GLIMITER
001207:
001208: 27,6704           76575        GOMAXL/D           RTB      1
001209: 27,6705           64776                           DMP                                            #  L/D = LAD SIG(MPAC)
001210: 27,6706           20607                                    SIGNMPAC
001211: 27,6707           21144                                    LAD
001212: 27,6710           33223                           STORE    L/D                                   #  AND FALLS INTO LIMITL/D SECTION.
001213:
001214: 27,6711           66774        GLIMITER           DSU      2                                     #  IF GMAX/2-D POS, GO TO LIMITL/D
001215: 27,6712           43742                           BPL      DAD                                   #  IF GMAX-D NEG, GO TO GOPOSLAD
001216: 27,6713           73722                           BMN      DMP
001217: 27,6714           21202                                    GMAX/2
001218: 27,6715           01363                                    D
001219: 27,6716           16740                                    LIMITL/D
001220: 27,6717           21202                                    GMAX/2
001221: 27,6720           16671                                    GOPOSLAD
001222: 27,6721           21206                                    2HS                                   #  2HS(GMAX-D) INTO PD
001223:
001224: 27,6722           64775                           DMP      1
001225: 27,6723           70722                           DAD      DMP
001226: 27,6724           01432                                    LEQ
001227: 27,6725           21204                                    1/GMAX
001228: 27,6726           21144                                    LAD                                   #  2HS(GMAX-D) (LEQ/GMAX+LAD) INTO PD
001229:
001230: 27,6727           62774                           DDV      2
001231: 27,6730           70653                           DAD      SQRT                                  #  XLIM = SQRT(PD+(2HSGMAX/V)SQ)
001232: 27,6731           70756                           DAD      BMN                                   #  IF RDOT+XLIM NEG, L/D=LAD
001233: 27,6732           21210                                    2HSGMXSQ
001234: 27,6733           01343                                    VSQUARE
001235: 27,6734           77777                                    -
001236: 27,6735           01347                                    RDOT                                  #  KGLIM2= -5 SCALED
001237: 27,6736           16671                                    GOPOSLAD
001238:
001239:                                                                                                  # # Page 726
001240:
001241:                                                                                                  #  COMES HERE TO COMPUTE ROLL COMMAND, CHECK LATERAL ERRORS, AND STEER
001242: 27,6737           43575        LIMITL/D           TEST     1                                     #  NO LATERAL CONTROL IF PAST TARGET
001243: 27,6740           64742                           DMP      DAD                                   #  Y = KLAT VSQUARE + LATBIAS
001244: 27,6741           00007                                    GONEPAST
001245: 27,6742           16776                                    L355
001246: 27,6743           01343                                    VSQUARE
001247: 27,6744           21150                                    KLAT
001248: 27,6745           21152                                    LATBIAS
001249: 27,6746           32025                           STORE    Y
001250:
001251: 27,6747           65172        L350               ABS      4                                     #  IF ABS(L/D)-L/DCMINR NEG, GO TO L353
001252: 27,6750           66756                           DSU      BMN
001253: 27,6751           41456                           LODON    SIGN                                  #  IF K2ROLL LATANG NEG, GO TO L357
001254: 27,6752           73605                           BMN      LODON
001255: 27,6753           56776                           TSRT                                           #  Y = Y/2
001256: 27,6754           01223                                    L/D
001257: 27,6755           21176                                    L/DCMINR
001258: 27,6756           16766                                    L353
001259: 27,6757           01113                                    LATANG
001260: 27,6760           01373                                    K2ROLL
001261: 27,6761           17070                                    L357
001262: 27,6762           00025                                    Y
001263: 27,6763           00002                                    1
001264: 27,6764           32025                           STORE    Y
001265:
001266: 27,6765           53774        L353               SIGN     2                                     #  IF LATANG SIGN(K2ROLL) - Y POS, SWITCH
001267: 27,6766           66756                           DSU      BMN                                   #  IF POS, GO TO BL361 IN BASIC.
001268: 27,6767           76576                           RTB
001269: 27,6770           01113                                    LATANG
001270: 27,6771           01373                                    K2ROLL
001271: 27,6772           00025                                    Y
001272: 27,6773           16776                                    L355
001273: 27,6774           17045                                    BL361
001274:
001275: 27,6775           62774        L355               DDV      2                                     #  ROLLC = ACOS((L/D)/LAD)
001276: 27,6776           56703                           TSRT     ACOS
001277: 27,6777           53776                           SIGN                                           #  ROLLC = ROLLC SIGN(K2ROLL)
001278: 27,7000           01223                                    L/D
001279: 27,7001           21144                                    LAD
001280: 27,7002           00002                                    1
001281: 27,7003           01373                                    K2ROLL
001282: 27,7004           33473                           STORE    ROLLC
001283:                                                                                                  # # Page 727
001284:
001285: 27,7005           77576        STEER              EXIT     0
001286: 27,7006           34503        STEER2             CAF      BIT12                                 #  1/8 TH.
001287: 27,7007           25777                           EXTEND
001288: 27,7010           41472                           MP       ROLLC                                 #  SCALE ROLL OUTPUT FOR 16 SPEED.
001289: 27,7011           50115                           TS       MPAC
001290:
001291: 27,7012           34504                           CAF      BIT11                                 #  1/16 TH.
001292: 27,7013           25777                           EXTEND
001293: 27,7014           41352                           MP       ROLLBIAS                              #  BIAS AOG FROM LIFT UP ORIENTATION
001294: 27,7015           60115                           AD       MPAC                                  #  ROLL = ROLLC/8 + ROLLBIAS/16 + K1ROLL
001295: 27,7016           61450                           AD       K1ROLL
001296: 27,7017           50115                           TS       MPAC                                  #   AFRAID TO STORE POSS BAD NUM IN THETAD
001297: 27,7020           07024                           TC       +4                                    #   SKIPS ON OVERFLOW
001298: 27,7021           20000                           INDEX    A
001299: 27,7022           34477                           CAF      LIMITS                                #   ALLOW OVERFLOW (GO TO NEGMAX FROM POSMX
001300: 27,7023           60115                           AD       MPAC
001301:
001302: 27,7024           20017                           INHINT
001303: 27,7025           50700                           TS       THETAD                                #   THETAD = X CDU = ROLL
001304: 27,7026           44514                           CS       BIT3
001305: 27,7027           70675                           MASK     TMMARKER
001306: 27,7030           64514                           AD       BIT3                                  #   SET BIT 3 IN TMMARKER WHEN THETAD COMP
001307: 27,7031           50675                           TS       TMMARKER
001308: 27,7032           02276        OVERNOUT           TC       PHASCHNG                              #  RECYCLE GROUP 5 TO PIPUP WAIT STATE.
001309: 27,7033           01405                           OCT      01405                                 #  5.12 RESTART.  (PIPUP SYNCED WITH 2 SEC)
001310:
001311: 27,7034           03302                           TC       GRABDSP
001312: 27,7035           07042                           TC       ENDENTRY
001313:
001314: 27,7036           37043                           CAF      V06N62                                #  DISPLAY TIME, VELOCITY, AND THETAH
001315: 27,7037           03100                           TC       NVSUB
001316: 27,7040           03250                           TC       RELDSPON
001317:
001318: 27,7041           03362                           TC       FREEDSP
001319:
001320: 27,7042           02124        ENDENTRY           TC       ENDOFJOB
001321:
001322:
001323:
001324: 27,7043           00662        V06N62             OCT      00662
001325:
001326:                                                                                                  # # Page 728
001327:
001328: 27,7044           41372        BL361              CS       K2ROLL                                #  K2ROLL = - K2ROLL
001329: 27,7045           51372                           TS       K2ROLL
001330:
001331: 27,7046           11222                           CCS      L/D                                   #  IF L/D POS, EXIT
001332: 27,7047           04703                           TC       RE-ENTER                              #  SO IT WONT STORE IN PUSH LIST.
001333: 27,7050           04703                           TC       RE-ENTER
001334: 27,7051           07053                           TC       +2
001335: 27,7052           04703                           TC       RE-ENTER
001336:
001337: 27,7053           11372                           CCS      K2ROLL                                #  K1ROLL = K1ROLL + K3ROLL SIGN(K2ROLL)
001338: 27,7054           37202                           CAF      K3ROLL                                #  K3ROLL = - .125
001339: 27,7055           07057                           TC       +2
001340: 27,7056           47202                           CS       K3ROLL
001341: 27,7057           61450                           AD       K1ROLL
001342: 27,7060           51450                           TS       K1ROLL
001343: 27,7061           04703                           TC       RE-ENTER                              #  SKIPS THIS ON OVERFLOW.
001344:
001345: 27,7062           20000                           INDEX    A                                     #  POSMAX + 1 = NEGMAX  ETC.
001346: 27,7063           34477                           CAF      LIMITS                                #  NO LIMIT ON NUMBER OF ROLL REVS DURING
001347: 27,7064           61450                           AD       K1ROLL                                #      ENTRY.   (ROUTINE IS GENERAL.)
001348: 27,7065           51450                           TS       K1ROLL                                #  STILL DOESNT WORRY ABOUT 2SCOMP, THO.
001349: 27,7066           04703                           TC       RE-ENTER
001350:
001351:
001352:
001353: 27,7067           53776        L357               SIGN     0
001354: 27,7070           21176                                    L/DCMINR                              #  L/D = L/DCMINR SIGN(L/D)
001355: 27,7071           01223                                    L/D
001356: 27,7072           33223                           STORE    L/D
001357:
001358: 27,7073           76776                           ITC      0
001359: 27,7074           16776                                    L355
001360:
001361:                                                                                                  # # Page 729
001362:
001363:                                                                                                  #        ROUTINE TO PREDICT AND SET PITCH ANGLE FOR 2ND ENTRY CONDITIONS.
001364:
001365: 27,7075           32150        UPTHETA3           CAF      PRIO14
001366: 27,7076           02046                           TC       FINDVAC
001367: 27,7077           57101                           CADR     UPTHETA1
001368:
001369: 27,7100           02256                           TC       TASKOVER
001370:
001371: 27,7101           04000        UPTHETA1           TC       INTPRET                               #   STARTS OFF IN BASIC
001372:
001373: 27,7102           76776        UPTHETA            ITC      0                                     #  FIND DESIRED SPACECRAFT ORIENTATION.
001374: 27,7103           21244                                    GETUNB
001375:
001376: 27,7104           76776                           ITC      0                                     #  GET OGC, IGC, MGC.,GIMBAL COMMANDS
001377: 27,7105           04353                                    CALCGTA
001378:
001379: 27,7106           66775                           DSU      1                                     #  GET UNCORRECTED ROLLBIAS
001380: 27,7107           77576                           EXIT
001381: 27,7110           01521                                    OGC
001382: 27,7111           00017                                    ROLLCTEM
001383:
001384: 27,7112           30115                           XCH      MPAC
001385: 27,7113           60000                           DOUBLE
001386: 27,7114           50117                           TS       MPAC       +2
001387: 27,7115           07121                           TC       +4                                    #  OVERFLOW CORRECT
001388: 27,7116           20000                           INDEX    A
001389: 27,7117           34477                           CAF      LIMITS
001390: 27,7120           60117                           AD       MPAC       +2
001391:
001392: 27,7121           31352                           XCH      ROLLBIAS                              #  STORE NEW VALUE AND FETCH OLD.
001393: 27,7122           40000                           COM
001394: 27,7123           50117                           TS       MPAC       +2
001395: 27,7124           61352                           AD       ROLLBIAS
001396: 27,7125           50000                           TS       A                                     #  LIMIT CHANGE IN ROLLBIAS TO 180 DEG.
001397: 27,7126           07131                           TC       +3
001398:
001399: 27,7127           40117                           CS       MPAC       +2
001400: 27,7130           51352                           TS       ROLLBIAS                              #  USE OLD VALUE IF TOO BIG.
001401:
001402: 27,7131           41522                           CS       IGC
001403: 27,7132           40000                           COM
001404: 27,7133           60000                           DOUBLE
001405: 27,7134           30701                           XCH      THETAD     +1                         #  COMMAND PITCH ANGLE. (NO SKIPS)
001406:
001407: 27,7135           41524                           CS       MGC
001408: 27,7136           40000                           COM
001409: 27,7137           60000                           DOUBLE                                         #  CHANGE FROMINTERPRETER SCALING TO CDU
001410: 27,7140           30702                           XCH      THETAD     +2                         #  YAW, MG ANGLE COMMAND
001411:
001412: 27,7141           20017                           INHINT
001413:                                                                                                  # # Page 730
001414: 27,7142           37146                           CAF      PITCHDT                               #  CALL UP ATTITUDE CONTROL LOOP PITCHDT
001415: 27,7143           02173                           TC       WAITLIST                              #  SECONDS AFTER FINISHING THIS TIME.
001416: 27,7144           57075                           CADR     UPTHETA3
001417:
001418: 27,7145           02124        UPNOVER            TC       ENDOFJOB
001419:
001420:
001421:
001422: 27,7146           00003        PITCHDT            DEC      3          B-14
001423:
001424:                                                                                                  # # Page 731
001425:
001426:                                                                                                  #    PIPAS ARE READ (BUT NOT CLEARED) AT A HIGHER RATE HERE.
001427:
001428: 27,7147           40044        INTERPIP           CS       PIPAX
001429: 27,7150           21414                           INDEX    PIPCTR
001430: 27,7151           51400                           TS       XPIPBUF
001431: 27,7152           40045                           CS       PIPAY
001432: 27,7153           21414                           INDEX    PIPCTR
001433: 27,7154           51404                           TS       YPIPBUF
001434: 27,7155           40046                           CS       PIPAZ
001435: 27,7156           21414                           INDEX    PIPCTR
001436: 27,7157           51410                           TS       ZPIPBUF
001437:
001438: 27,7160           11414                           CCS      PIPCTR
001439: 27,7161           07165                           TC       +4
001440: 27,7162           35503                           CAF      TWO
001441: 27,7163           51414                           TS       PIPCTR
001442: 27,7164           02256                           TC       TASKOVER                              #  WOULD GO TO PIPSETUP IF SMOOTHER WRITTEN
001443: 27,7165           51414                           TS       PIPCTR
001444:
001445: 27,7166           37177                           CAF      IPIPDT1
001446: 27,7167           02173                           TC       WAITLIST
001447: 27,7170           57147                           CADR     INTERPIP
001448:
001449: 27,7171           02256                           TC       TASKOVER
001450:
001451:
001452:
001453: 27,7172           32151        PIPSETUP           CAF      PRIO15                                #  LOWER THAN AVG G - HIGHER THAN UPTHETA.
001454: 27,7173           02052                           TC       NOVAC
001455: 27,7174           57176                           CADR     SMOOTHER
001456: 27,7175           02256                           TC       TASKOVER
001457:
001458:
001459:
001460: 27,7176           02124        SMOOTHER           TC       ENDOFJOB                              #  WHEN WRITTEN, FIND A GOOD BANK FOR THIS.
001461:
001462:
001463:
001464: 27,7177           00062        IPIPDT1            DEC      50         B-14
001465:
001466:                                                                                                  # # Page 732
001467:
001468:                                                                                                  #  DETERMINE TIME TO OPEN CHUTE HERE IF NEEDED
001469:
001470: 27,7200                                           BANK     27
001471:
001472: 27,7200           00310        DT                 DEC      200        B-14                       #  MAIN LOOP DT.
001473: 27,7201           00017        DEC15              DEC      15         B-14
001474:
001475: 27,7202           73777        K3ROLL             DEC      -.125
001476:
001477:                                                                                                  #  DEFINED BY EQUALS
001478:
001479: 27,7203                        ASP                EQUALS   0
001480: 27,7203                        Y                  EQUALS   20D                                   #  TEMP
001481: 27,7203                        GAMMAL1            EQUALS   22D
001482: 27,7203     1100               A1                 EQUALS   FX
001483:
001484:                                                                                                  # # Page 733
001485:
001486:                                                                                                  #        TABLE USED FOR SUB-ORBITAL REFERENCE TRAJECTORY CONTROL.
001487:
001488:
001489:
001490: 27,7203           00000        VREFER             DEC      0          B-14                       #  REFERENCE VELOCITY SCALED V/51532.3946
001491: 27,7204           00153                           DEC      .006539                               #  15 POINTS ARE STORED AS THE INDEPENDENT
001492: 27,7205           00527                           DEC      .020958                               #  VARIABLE AND THEN SIX 15 POINT FUNC-
001493: 27,7206           01235                           DEC      .040809                               #  TIONS OF V ARE STORED CONSECUTIVELY
001494: 27,7207           02337                           DEC      .076107
001495: 27,7210           03721                           DEC      .122156
001496: 27,7211           05230                           DEC      .165546
001497: 27,7212           06213                           DEC      .196012
001498: 27,7213           10550                           DEC      .271945
001499: 27,7214           11717                           DEC      .309533
001500: 27,7215           13314                           DEC      .356222
001501: 27,7216           14736                           DEC      .404192
001502: 27,7217           16255                           DEC      .448067
001503: 27,7220           16457                           DEC      .456023
001504: 27,7221           25570                           DEC      .67918                                #  HIGH VELOCITY FOR SAFETY
001505:
001506: 27,7222           77573                           DEC      -.008035                              #  DRANGE/DA     SCALED DRDA/(2700/805)
001507: 27,7223           77573                           DEC      -.008035
001508: 27,7224           77516                           DEC      -.010820
001509: 27,7225           77360                           DEC      -.016550
001510: 27,7226           77106                           DEC      -.026935
001511: 27,7227           76516                           DEC      -.042039
001512: 27,7230           76071                           DEC      -.058974
001513: 27,7231           75570                           DEC      -.070721
001514: 27,7232           74661                           DEC      -.098538
001515: 27,7233           74436                           DEC      -.107482
001516: 27,7234           73212                           DEC      -.147762
001517: 27,7235           71640                           DEC      -.193289
001518: 27,7236           54557                           DEC      -.602557
001519: 27,7237           40000                           DEC      -.99999
001520: 27,7240           40000                           DEC      -.99999
001521:
001522: 27,7241           00000                           DEC      0          B-14                       #  -DRANGE/DRDOT
001523: 27,7242           00000                           DEC      0          B-14                       #  SCALED((2VS/8 2700) DR/DRDOT)
001524: 27,7243           77632                           DEC      -.0494520  B-3
001525: 27,7244           77563                           DEC      -.0683663  B-3
001526: 27,7245           77354                           DEC      -.1343468  B-3
001527: 27,7246           76712                           DEC      -.2759846  B-3
001528: 27,7247           76066                           DEC      -.4731437  B-3
001529: 27,7250           75322                           DEC      -.6472087  B-3
001530: 27,7251           73237                           DEC      -1.171693  B-3
001531: 27,7252           72104                           DEC      -1.466382  B-3
001532: 27,7253           70301                           DEC      -1.905171  B-3
001533: 27,7254           65635                           DEC      -2.547990  B-3
001534: 27,7255           57311                           DEC      -4.151220  B-3
001535: 27,7256           50575                           DEC      -5.813617  B-3
001536:                                                                                                  # # Page 734
001537: 27,7257           50575                           DEC      -5.813617  B-3
001538:
001539: 27,7260           76265                           DEC      -.00642065 B3                         #  RDOTREF       SCALED (8 RDT/2VS)
001540: 27,7261           76265                           DEC      -.00642065 B3
001541: 27,7262           74435                           DEC      -.0134426  B3
001542: 27,7263           74333                           DEC      -.013947   B3
001543: 27,7264           74433                           DEC      -.013462   B3
001544: 27,7265           74763                           DEC      -.011813   B3
001545: 27,7266           75432                           DEC      -.0095631  B3
001546: 27,7267           75735                           DEC      -.00806946 B3
001547: 27,7270           76200                           DEC      -.006828   B3
001548: 27,7271           75735                           DEC      -.00806946 B3
001549: 27,7272           75140                           DEC      -.0109791  B3
001550: 27,7273           74075                           DEC      -.0151496  B3
001551: 27,7274           73312                           DEC      -.0179817  B3
001552: 27,7275           73732                           DEC      -.0159061  B3
001553: 27,7276           73732                           DEC      -.0159061  B3
001554:
001555: 27,7277           00000                           DEC      0          B-14                       #  RANGE TO GO SCALED RTOGO/2700
001556: 27,7300           00000                           DEC      0          B-14
001557: 27,7301           00020                           DEC      .00100                                #        2.7 NM
001558: 27,7302           00066                           DEC      .0032963                              #        8.9
001559: 27,7303           00206                           DEC      .0081852                              #        22.1
001560: 27,7304           00431                           DEC      .017148
001561: 27,7305           00712                           DEC      .027926
001562: 27,7306           01136                           DEC      .037
001563: 27,7307           02015                           DEC      .063296
001564: 27,7310           02374                           DEC      .077889
001565: 27,7311           03123                           DEC      .098815
001566: 27,7312           04051                           DEC      .127519
001567: 27,7313           05767                           DEC      .186963
001568: 27,7314           07476                           DEC      .238148
001569: 27,7315           07476                           DEC      .238148
001570:
001571: 27,7316           76511                           DEC      -.042360                              #  -AREF   SCALED AREF/805
001572: 27,7317           76511                           DEC      -.042360
001573: 27,7320           76234                           DEC      -.052919
001574: 27,7321           75472                           DEC      -.074534
001575: 27,7322           74604                           DEC      -.101242
001576: 27,7323           74210                           DEC      -.116646
001577: 27,7324           74052                           DEC      -.122360
001578: 27,7325           73735                           DEC      -.127081
001579: 27,7326           73217                           DEC      -.147453
001580: 27,7327           73013                           DEC      -.155528
001581: 27,7330           73155                           DEC      -.149565
001582: 27,7331           74151                           DEC      -.118509
001583: 27,7332           76703                           DEC      -.034907
001584: 27,7333           77575                           DEC      -.007950
001585: 27,7334           77575                           DEC      -.007950
001586:
001587:                                                                                                  # # Page 735
001588: 27,7335           00006                           DEC      .000371                               #  DRANGE/D L/D SCALED Y/2700
001589: 27,7336           00006                           DEC      .000371
001590: 27,7337           00116                           DEC      .004770
001591: 27,7340           00204                           DEC      .008081
001592: 27,7341           00407                           DEC      .016030
001593: 27,7342           01113                           DEC      .035815
001594: 27,7343           02161                           DEC      .069422
001595: 27,7344           03260                           DEC      .104519
001596: 27,7345           03717                           DEC      .122
001597: 27,7346           05411                           DEC      .172407
001598: 27,7347           10057                           DEC      .252852
001599: 27,7350           13476                           DEC      .363148
001600: 27,7351           20324                           DEC      .512963
001601: 27,7352           21677                           DEC      .558519
001602: 27,7353           21677                           DEC      .558519                               #  END OF STORED REFERENCE
001603:
001604:                                                                                                  # # Page 736
001605:
001606:                                                                                                  #     CONTINUATION OF RE-ENTRY SECTION IN 2ND BANK.  (CONSTANTS AND M923=8
001607:
001608: 30,7042                                           BANK     30
001609: 30,7042           37777 37777  NEARONE            2DEC     .999999999
001610: 30,7044           12525 12525  1/3RD              2DEC     .333333333                            #        ONE THIRD
001611: 30,7046           02525 12525  1/12TH             2DEC     .0833333333                            #  ONE TWELFTH
001612:                                                                                                  #  VSAT = 25766.1973 FT/SEC.
001613:
001614:                                                                                                  #  RE = 21,202,900  FEET
001615:
001616: 30,7050           03146 14632  LEWD1              2DEC     .1
001617: 30,7052           06314 31463  LEWD2              2DEC     .2
001618: 30,7054           10000 00000  FOURTH             2DEC     .25
001619: 30,7056           00000 00000  3ZEROS             2DEC     0          B-28
001620: 30,7060           00000 00001  1BITDP             2OCT     0000000001                            #  DOUBLE PREC 1 BIT
001621: 30,7062           00000                           DEC      0          B-14
001622: 30,7063           07777 00000  NEAR1/4            2OCT     0777700000                            #  1/4 LESS 1 BIT IN UPPER PART.
001623: 30,7065           00236 36763  C18                2DEC     .0097026346                            #  500/2VS
001624: 30,7067           00012 05512  KDMIN              2DEC     .00062111801                            #  .5/805
001625: 30,7071           02000 00000  C1/16              2DEC     .0625                                 #  1/16
001626: 30,7073           76407 76670  Q2                 2DEC     -.046388889                            #  -1002/21600 =(643/21600-Q2(23500/2VS))
001627: 30,7075           05260 05572  Q3                 2DEC     .167003132                            #  .07 2VS/21600
001628: 30,7077           12343 21616  Q5                 2DEC     .326388889                            #  .3 23500/21600
001629: 30,7101           01073 26234  Q6                 2DEC     .034893617                            #  820/23500
001630: 30,7103           00172 03571  Q7F                2DEC     .0074534161                            #  6/805    (VALUE OF Q7 IN FIXED MEM.)
001631: 30,7105           13132 33062  VMIN               2DEC     .34929485                             #  18000/2VS
001632: 30,7107           00160 05104  C12                2DEC     .00684572901                            #  32 28500/(21102900 2 PI)
001633: 30,7111           11322 32265  KB1                2DEC     .29411765                             #  1/3.4
001634: 30,7113           75047 72454  KB2                2DEC     -.0057074322 B4                         #  -16/(.0034 2 VS)
001635:                                                                                                  # # Page 737
001636: 30,7115           05125 33500  C19                2DEC     .16149068                             #  130/805
001637: 30,7117           00475 35746  VCORLIM            2DEC     .019405269                            #  1000/2VS
001638: 30,7121  30,7117               VQUIT              EQUALS   VCORLIM                               #  BOTH ARE 1000 FT/SEC
001639: 30,7121           06751 27515  C20                2DEC     .21739130                             #  (175 FPSS) LIFT UP IF ABOVE C20
001640: 30,7123           00001 05732  25NM               2DEC     .0011574074 B-4                        #  25/(21600 16)         (25 NAUT MILES)
001641: 30,7125           01003 06315  K1D                2DEC     .0314453125                            #  .01 805/256
001642: 30,7127           71435 75516  K2D                2DEC     -.201298418                            #  -.001 2VS/256
001643: 30,7131           32047 24367  KVSCALE            2DEC     .81491944                             #  12800/(2 VS .3048)
001644: 30,7133           37200 05636  KASCALE            2DEC     .97657358                             #  5.85 16384/(4 .3048 100 805)
001645: 30,7135           00046 13137  KTETA              2DEC*    .383495203 E2         B-14*           #   1000 2PI/16384(163.84)
001646: 30,7137           00017 30730  KT                 2DEC*    .157788327 E2         B-14*           #  RE(2PI)/2VS(16384)163.84
001647: 30,7141           00040 30447  .05G               2DEC     .002                                  #  .05/25
001648: 30,7143           11463 06315  LAD                2DEC     .3
001649: 30,7145           00023 06315  LAD/256            2DEC     .001171875                            #  .3/256
001650: 30,7147           00314 31463  KLAT               2DEC     .0125
001651: 30,7151           00000 17565  LATBIAS            2DEC     .00003                                #  APPRX .5 NM/ 4(21600/2 PI)
001652: 30,7153           03657 00206  KWE                2DEC     .120056652
001653: 30,7155           00121 17460  KACOS              2DEC     .004973592                            #  1/32(2PI)
001654: 30,7157           01000 00000  CHOOK              2DEC     1          B-5                        #  .25/8
001655: 30,7161           04000 00000  1/8TH              2DEC     .125
001656: 30,7163           07534 05075  CH1                2DEC     .24                                   #  8 CH1/25              (CH1 = .75)
001657: 30,7165           75267 64700  KC3                2DEC     -.082540747                            #  KC3 (2VS)SQ /2PI 2S 32.2 LAD R
001658: 30,7167           05605 03656  LOD                2DEC     .18
001659: 30,7171           00336 21610  VRCONT             2DEC     .0135836886                            #  700/2 VSAT
001660: 30,7173           20000 00000  HALVE              2DEC     .5
001661:                                                                                                  # # Page 738
001662: 30,7175  27,7202               NEG1/8             EQUALS   K3ROLL                                #  ONLY A SINGLE PRECISION NUMBER.
001663: 30,7175           11207 05301  L/DCMINR           2DEC     .2895                                 #  LAD COS(15 DEG)
001664: 30,7177           77700 62716  C/D0               2DEC     -.00387019231
001665: 30,7201           06314 31463  GMAX/2             2DEC     .2                                    #  5/25
001666: 30,7203           14631 23146  1/GMAX             2DEC     .4
001667: 30,7205           00433 02775  2HS                2DEC     .0172786611                            #  2 28500 25 32.2/(4 VS VS)
001668: 30,7207           00000 31027  2HSGMXSQ           2DEC     .000047768341                            #  ((2 28500 322/(4VS VS))SQ
001669: 30,7211           04555 27667  KWIEM              2DEC     .147323336                            #  RESULT IN METERS OVER 12800
001670: 30,7213           37173 26300  COS(13)            2DEC     .9763                                 #  REAL COS OF 12.5 DEG. NOT 1/2 COSINE.
001671: 30,7215           71045 73065  -SIN(13)           2DEC     -.21644                               #  REAL SIN OF 12.5 DEG.  NO FACTOR OF 1/2
001672:
001673:
001674: 30,7217           00541 33575  2C1HS              2DEC     .0215983264                            #  2 1.25 28500 805/(2 VS)SQ
001675: 30,7221           02233 21637  2C1HSLAD           2DEC     .071994421                            #  2 1.25 28500 805/(.3 4 VS VS)
001676: 30,7223           03146 14632  POINT1             2DEC     .1
001677: 30,7225           00034 30623  K44                2DEC     .00175626224                            #  2 VS/(156 57.3 57.3 57.3)
001678: 30,7227           17414 14575  VFINAL             2DEC     .48513173                             #  25000/2 VS
001679: 30,7231           02436 27024  KAT                2DEC     .08                                   #  2 G-S (2/25)
001680: 30,7233           31463 06315  POINT8             2DEC     .8
001681: 30,7235           06314 31463  POINT2             2DEC     .2
001682: 30,7237           01310 13103  Q7MIN              2DEC     .043478261                            #  35/805
001683: 30,7241           00146 14632  PT1/16             2DEC     .00625
001684:
001685:                                                                                                  #  ... END OF RE-ENTRY CONSTANTS ...
001686:
001687:                                                                                                  # # Page 739
001688:
001689:                                                                                                  #        CLOSED SUBROUTINE TO COMPUTE DESIRED NAV BASE ORIENTATION
001690:                                                                                                  #        NEEDED DURING ENTRY PHASE.
001691:
001692:                                                                                                  #        ENTER WITH VN, UNITR, UNITW, AND ROLLC
001693:                                                                                                  #        COMPUTES UXNB, UYNB, AND UZNB.  (NAV BASE UNIT VECTORS)
001694:
001695:
001696:
001697: 30,7243           76573        GETUNB             RTB      3                                     #  RESET PUSH COUNTER.
001698: 30,7244           41766                           VXV      VXSC                                  #  GET VELOCITY OF ATMOSPHERE
001699: 30,7245           50753                           VAD      UNIT                                  #  GET UVA., RELATIVE VELOCITY
001700: 30,7246           75776                           VXSC                                           #  RESOLVE BY COS OF 13 DEG.
001701: 30,7247           20265                                    FRESHPD
001702: 30,7250           01016                                    UNITR
001703: 30,7251           01044                                    UNITW                                 #  NEG OF REAL VEL.
001704: 30,7252           21212                                    KWIEM                                 #  EARTH RATE CONST IN METERS X 4.
001705: 30,7253           00774                                    VN
001706: 30,7254           21214                                    COS(13)                               #  UVA COS(13) INTO PD.
001707:
001708: 30,7255           47575                           NOLOD    1
001709: 30,7256           41753                           VXV      UNIT                                  #  UYA = UNIT(VA*RN)
001710: 30,7257           01016                                    UNITR
001711: 30,7260           32021                           STORE    16D                                   #  UYA INTO LOC 16 OF VAC AREA.
001712:
001713: 30,7261           45176                           DMOVE    0                                     #  SAVE ROLLC SO THAT IT CANNOT CHNGE
001714: 30,7262           01473                                    ROLLC                                 #    DURING THIS SUBROUTINE
001715: 30,7263           32017                           STORE    ROLLCTEM                              #  INTO LOC 14 OF PUSH LIST
001716:
001717: 30,7264           47575                           NOLOD    1                                     #  COS(ROLLC)
001718: 30,7265           55166                           COS      VXSC                                  #  UYA COS(ROLLC).  PUSH INTO LOC 6.
001719: 30,7266           00021                                    16D
001720:
001721: 30,7267           57176                           SIN      0
001722: 30,7270           00017                                    ROLLCTEM                              #  SIN(ROLLC) INTO PD AT LOC 12.
001723:
001724: 30,7271           41774                           VXV      2                                     #  UNA = UNIT(UYA*UVA)
001725: 30,7272           73166                           UNIT     VXSC                                  #  UNB = UYA COS(ROLL) + UNA SIN(ROLL)
001726: 30,7273           50753                           VAD      UNIT                                  #  UNIT COULD BE REPLACED BY  VSLT   1.
001727: 30,7274           00021                                    16D                                   #    UYA STORED AT LOC 16
001728: 30,7275           00001                                    0                                     #  UVA FIRST ITEM INTO PUSH LIST
001729: 30,7276           33505                           STORE    UYNB                                  #  1 SCAL AND  1 VEC FROM PD.
001730:
001731: 30,7277           47574                           NOLOD    2
001732: 30,7300           41753                           VXV      UNIT                                  #  UN = UNIT (UYNB*UVA)
001733: 30,7301           75762                           VXSC     VSU                                   #  UXNB = -UN SIN(13) -UVA COS(13)
001734: 30,7302           00001                                    0
001735: 30,7303           21216                                    -SIN(13)                              #  PULLS UVA COS(13) FROM PD.
001736: 30,7304           33477                           STORE    UXNB
001737:
001738: 30,7305           47575                           NOLOD    1
001739:                                                                                                  # # Page 740
001740: 30,7306           41622                           VXV      VSLT                                  #  UZNB = UXNB*UYNB
001741: 30,7307           01505                                    UYNB
001742: 30,7310           00002                                    1
001743: 30,7311           33513                           STORE    UZNB
001744:
001745: 30,7312           40576                           ITCQ     0                                     #  AND RETURN.
001746:
001747:
001748:
001749: 30,7313                        ROLLCTEM           EQUALS   14D
001750:
001751:                                                                                                  # # Page 741
001752:
001753:                                                                                                  #     SUBROUTINE TO READ PIPA COUNTERS, TRING TO BE VERY CAREFUL SO THAT
001754:                                                                                                  #  IT WILL BE RESTARTABLE.
001755:
001756:                                                                                                  #        (ARRIVE IN INTERRUPTED STATE OR INHIBITED AFTER RESTART.)
001757:                                                                                                  #     (EXIT IS THRU  ISWRETRN)
001758:
001759: 30,7313           45501        PIPASR             CS       ZERO                                  #  PUT THESE INTO THE IMPOSSIBLE STATE
001760: 30,7314           51031                           TS       TEMX                                  #  FOR THEIR INITIAL VALUES.
001761: 30,7315           51032                           TS       TEMY
001762: 30,7316           51033                           TS       TEMZ
001763: 30,7317           35501                           CAF      ZERO
001764: 30,7320           51002                           TS       DELVX      +1
001765: 30,7321           51004                           TS       DELVY      +1                         #  PIP COUNTERS MAY NOT HAVE POS ZERO IN
001766: 30,7322           51006                           TS       DELVZ      +1
001767: 30,7323           51035                           TS       PIPAGE                                #  ZERO THIS TO INDICATE IN PIPA READING.
001768:
001769: 30,7324           02677        REPIP1             TC       READTIME   +1                         #  PROBABLY NOT NEEDED SINCE NOT MUCH
001770: 30,7325           40573                           CS       RUPTSTOR   +1                         #  CHANCE OF TIME1 OVERFLOWING NOW.  (BUT
001771: 30,7326           51465                           TS       PIPTIME    +1                         #  JUST POSSIBLE IF MANY RESTARTS.
001772: 30,7327           40572                           CS       RUPTSTOR
001773: 30,7330           51464                           TS       PIPTIME
001774:
001775: 30,7331           40044                           CS       PIPAX
001776: 30,7332           51034                           TS       TEMXY
001777: 30,7333           31031                           XCH      TEMX                                  #  PUT NEGZERO INTO PIPACTRS AS READ.
001778: 30,7334           30044                           XCH      PIPAX
001779: 30,7335           51001        REPIP1B            TS       DELVX
001780: 30,7336           51002                           TS       DELVX      +1                         #  DOUBLE SAVE.
001781:
001782: 30,7337           40045        REPIP2             CS       PIPAY
001783: 30,7340           51034                           TS       TEMXY
001784: 30,7341           31032                           XCH      TEMY
001785: 30,7342           30045                           XCH      PIPAY
001786: 30,7343           51003        REPIP2B            TS       DELVY
001787: 30,7344           51004                           TS       DELVY      +1
001788:
001789: 30,7345           40046        REPIP3             CS       PIPAZ                                 #  REPEAT PROCESS FOR Z PIPA.
001790: 30,7346           51034                           TS       TEMXY                                 #  SAVE NEG OF PIPA READ
001791: 30,7347           31033                           XCH      TEMZ                                  #  SAVE HERE AS PICK UP NEGZERO
001792: 30,7350           30046                           XCH      PIPAZ                                 #  RESETTING PIPA AS READ OUT)
001793: 30,7351           51005        REPIP3B            TS       DELVZ                                 #  AND STORE IN Z.
001794: 30,7352           51006                           TS       DELVZ      +1                         #  SHOWS THAT IT REALLY MADE IT.
001795:
001796: 30,7353           45501        REPIP4             CS       ZERO                                  #  LEAVE THEM AT NEGZERO
001797: 30,7354           51002                           TS       DELVX      +1
001798: 30,7355           51004                           TS       DELVY      +1
001799: 30,7356           51006                           TS       DELVZ      +1
001800: 30,7357           44516                           CS       BIT1
001801: 30,7360           70675                           MASK     TMMARKER
001802: 30,7361           64516                           AD       BIT1                                  #  SET BIT 1 IN TM MARKER.
001803:                                                                                                  # # Page 742
001804: 30,7362           50675                           TS       TMMARKER
001805: 30,7363           05761                           TC       ISWRETRN                              #  AND EXIT.  SHOULD HAVE COME THRU ICALL
001806:
001807:                                                                                                  # # Page 743
001808:
001809:                                                                                                  #        ROUTINE TO RESTART IF READING PIPA COUNTERS.
001810:
001811: 30,7364           11035        REPIPASR           CCS      PIPAGE                                #  WAS I READING PIPS.
001812: 30,7365           07313                           TC       PIPASR                                #  NO.. PIPAGE = PLUS CONST.
001813: 30,7366           11006                           CCS      DELVZ      +1                         #   PIPAGE = 0  (I WAS READING PIPS.)
001814: 30,7367           07353                           TC       REPIP4                                #   Z WAS READ OK.
001815: 30,7370           07373                           TC       +3                                    #   Z NOT DONE, CHECK Y.
001816: 30,7371           07353                           TC       REPIP4
001817: 30,7372           07353                           TC       REPIP4
001818: 30,7373           11004                           CCS      DELVY      +1                         #  HAS IT CHANGED FROM ITS +ZERO INIT VALU
001819: 30,7374           07377                           TC       +3                                    #  YES, Y DONE. TRY TO REDO Z.
001820: 30,7375           07406                           TC       CHKDELVX                              #  NO, GO LOOK AT X.
001821: 30,7376           07377                           TC       +1                                    #  YES.
001822: 30,7377           11033                           CCS      TEMZ                                  #  DOES TEMZ STILL = -0.
001823: 30,7400           07404                           TC       +4                                    #  NO TRY TO RESTORE
001824: 30,7401           07404                           TC       +3
001825: 30,7402           07404                           TC       +2
001826: 30,7403           07345                           TC       REPIP3                                #  YES, GO BACK AND READ Z AGAIN.
001827: 30,7404           41034                           CS       TEMXY                                 #  MUCH MORE LOGIC COULD BE INCORPORATED
001828: 30,7405           07351                           TC       REPIP3B                               #  TO CHECK PIPA CTR FOR SIZE.
001829:
001830: 30,7406           11002        CHKDELVX           CCS      DELVX      +1                         #  HAS THIS CHANGED.
001831: 30,7407           07412                           TC       +3                                    #  YES
001832: 30,7410           07421                           TC       CHKTEMX                               #  NI.
001833: 30,7411           07412                           TC       +1                                    #  YES
001834: 30,7412           11032                           CCS      TEMY
001835: 30,7413           07417                           TC       +4
001836: 30,7414           07417                           TC       +3
001837: 30,7415           07417                           TC       +2
001838: 30,7416           07337                           TC       REPIP2
001839: 30,7417           41034                           CS       TEMXY
001840: 30,7420           07343                           TC       REPIP2B
001841:
001842: 30,7421           11031        CHKTEMX            CCS      TEMX                                  #  HAS THIS CHANGED.
001843: 30,7422           07426                           TC       +4                                    #  YES
001844: 30,7423           07426                           TC       +3                                    #  YES
001845: 30,7424           07426                           TC       +2                                    #  YES
001846: 30,7425           07324                           TC       REPIP1                                #  NO
001847: 30,7426           41034                           CS       TEMXY
001848: 30,7427           07335                           TC       REPIP1B
001849:
001850:                                                                                                  # # Page 744
001851:
001852:                                                                                                  #   ENTRY INITIALIZATION ROUTINE.
001853:                                                                                                  #   -----------------------------
001854: 30,7430           02276        STARTENT           TC       PHASCHNG                              #  KEEP UPTHETA RUNNING IN CASE OF RESTART
001855: 30,7431           03204                           OCT      03204                                 #  4.26 RESTART.
001856:
001857: 30,7432           02276                           TC       PHASCHNG                              #  PICK UP CURRENT STRING AT NEWMODE63.
001858: 30,7433           02305                           OCT      02305                                 #  5.19 RESTART.  RESYNCING PIPUP ALSO.
001859:
001860: 30,7434           20017                           INHINT
001861: 30,7435           32150                           CAF      PRIO14                                #  ESTABLISH UPTHETA FOR 1ST TIME.
001862: 30,7436           02046                           TC       FINDVAC
001863: 30,7437           57101                           CADR     UPTHETA1                              #  START UPTHETA JOB.
001864:
001865: 30,7440           20016                           RELINT
001866: 30,7441           02362        NUMODE63           TC       NEWMODE
001867: 30,7442           00063                           OCT      00063                                 #  ENTRY PHASE = MODE 63
001868:
001869: 30,7443           37516                           CAF      INITCADR
001870: 30,7444           51374                           TS       GOTOADDR
001871: 30,7445           37517                           CAF      EARGCADR
001872: 30,7446           51042                           TS       CALCG
001873: 30,7447           35501                           CAF      ZERO
001874: 30,7450           51350                           TS       TENTRY
001875: 30,7451           51352                           TS       ROLLBIAS
001876: 30,7452           37520                           CAF      NUDELTAT
001877: 30,7453           51027                           TS       DELTAT
001878: 30,7454           37521                           CAF      NU/PIPDT
001879: 30,7455           50755                           TS       1/PIPADT
001880: 30,7456           47522                           CS       ENTMASK
001881: 30,7457           20017                           INHINT                                         #  INITIALIZE SWITCHES (BITS6:10,15 IN
001882: 30,7460           70645                           MASK     STATE                                 #  STATE) 6=GONEPAST,7=RELVELSW,8=EGSW
001883: 30,7461           67523                           AD       ENTRYSW                               #  9=HUNTSW1, 10=HIND, 15=INRLSW
001884: 30,7462           50645                           TS       STATE                                 #  ALL BUT RELVELSW SET TO NON-BRANCH (1)
001885: 30,7463           20016                           RELINT
001886: 30,7464           04000                           TC       INTPRET
001887:
001888: 30,7465           76574                           RTB      2                                     #  SET CDUX AGAIN JUST IN CASE.
001889: 30,7466           41612                           VXV      DOT
001890: 30,7467           47171                           COMP     RTB
001891: 30,7470           20721                                    CDUXFIX
001892: 30,7471           00774                                    VN
001893: 30,7472           01016                                    UNITR
001894: 30,7473           01115                                    RTINIT                                #  THIS GIVES LATANG.
001895: 30,7474           20607                                    SIGNMPAC                              #  GETS SIGN OF MPAC
001896: 30,7475           33373                           STORE    K2ROLL                                #  K2ROLL = -SIGN(LATANG)
001897:
001898: 30,7476           42775                           DOT      1
001899: 30,7477           63703                           TSLT     ACOS
001900: 30,7500           01016                                    UNITR
001901: 30,7501           01115                                    RTINIT
001902:                                                                                                  # # Page 745
001903: 30,7502           00002                                    1
001904: 30,7503           33111                           STORE    THETAH
001905:
001906: 30,7504           75176                           VMOVE    0
001907: 30,7505           01215                                    RT
001908: 30,7506           33115                           STORE    RTINIT
001909:
001910: 30,7507           47176                           COMP     0
001911: 30,7510           01145                                    DTEAROT
001912: 30,7511           33145                           STORE    DTEAROT
001913:
001914: 30,7512           76776                           ITC      0
001915: 30,7513           13450                                    EARROT1
001916: 30,7514           76576                           RTB      0
001917: 30,7515           17033                                    OVERNOUT                              #  EXIT SETTING RESTART BITS TO 5.12 FOR EN
001918:
001919:
001920:
001921: 30,7516           62701        INITCADR           CADR     INITROLL
001922: 30,7517           61664        EARGCADR           CADR     CALCGEAR
001923: 30,7520           14400        NUDELTAT           DEC      200        B5
001924: 30,7521           31000        NU/PIPDT           DEC      200        B6
001925: 30,7522           01741        ENTMASK            OCT      01741
001926: 30,7523           01341        ENTRYSW            OCT      01341

End of include-file REENTRY_CONTROL.agc.  Parent file is MAIN.agc


