
Source Code


000002:                                                                                                  ## Copyright:   Public domain.
000003:                                                                                                  ## Filename:    RESTART_CONTROL.agc
000004:                                                                                                  ## Purpose:     Part of the source code for Solarium build 55. This
000005:                                                                                                  ##              is for the Command Module's (CM) Apollo Guidance
000006:                                                                                                  ##              Computer (AGC), for Apollo 6.
000007:                                                                                                  ## Assembler:   yaYUL --block1
000008:                                                                                                  ## Contact:     Jim Lawton <jim DOT lawton AT gmail DOT com>
000009:                                                                                                  ## Website:     www.ibiblio.org/apollo/index.html
000010:                                                                                                  ## Page Scans:  www.ibiblio.org/apollo/ScansForConversion/Solarium055/
000011:                                                                                                  ## Mod history: 2009-09-21 JL   Created.
000012:                                                                                                  ##              2016-08-22 RSB  Typos.
000013:                                                                                                  ##              2016-12-28 RSB  Proofed comment text using octopus/ProoferComments,
000014:                                                                                                  ##                              and fixed errors found.
000015:


000017:
000018:    2276                                           BANK     1
000019:
000020:                                                                                                  #  OF THE PHASE TABLE IN ALMOST CONTSTANT AGREEMENT. CALLING SEQUENCES ARE AS FOLLOWS:
000021:
000022:                                                                                                  #                TC      PHASCHNG        CHANGE GROUP G TO PHASE PPP (127 MAX).
000023:                                                                                                  #                OCT     PPP0G           (CALL UNDER EXECUTIVE ONLY)
000024:
000025:                                                                                                  #                CAF     --              CHANGE GROUP G TO THE PHASE ARRIVING IN
000026:                                                                                                  #                TC      NEWPHASE        A (MAY BE CALLED ANYTIME).
000027:                                                                                                  #                OCT     0000G
000028:
000029:                                                                                                  #        IN EACH CASE THE OLD PHASE IS RETURNED TO THE CALLER IN A. IF THE OLD PHASE WAS +0, CONTROL IS
000030:                                                                                                  #  GIVEN TO A ROUTINE SPECIFIED IN A CADR TABLE. THIS ROUTINE MAY EXIT OR RETURN TO CALLER VIA SWRETURN.
000031:
000032:    2276           30001        PHASCHNG           XCH      Q
000033:    2277           20017                           INHINT
000034:    2300           50642                           TS       RUPTREG4
000035:    2301           20000                           INDEX    A
000036:    2302           30000                           CAF      0
000037:    2303           50601                           TS       PHASDATA
000038:    2304           73220                           MASK     LOW5                                  #  (MAY WANT MORE GROUPS SOME DAY)
000039:    2305           30601                           XCH      PHASDATA
000040:    2306           25777                           EXTEND
000041:    2307           42311                           MP       -BIT9                                 #  NOTE LP NOT SAVED.
000042:    2310           02321                           TC       PHASCH2
000043:
000044:    2311           77377        -BIT9              OCT      -400
000045:
000046:    2312           20017        NEWPHASE           INHINT
000047:    2313           30001                           XCH      Q
000048:    2314           50642                           TS       RUPTREG4
000049:    2315           20000                           INDEX    A
000050:    2316           30000                           CAF      0
000051:    2317           50601                           TS       PHASDATA
000052:
000053:    2320           40001                           CS       Q
000054:    2321           20601        PHASCH2            INDEX    PHASDATA
000055:    2322           50655                           TS       -PHASE1    -1                         #  PHASE1 IS FOR PROG NUM 1.
000056:    2323           40000                           COM
000057:    2324           20601                           INDEX    PHASDATA
000058:    2325           30647                           XCH      PHASE1     -1                         #  INTO PHASE1 FOR PROG 1.
000059:
000060:    2326           10000                           CCS      A
000061:    2327           02332                           TC       +3
000062:
000063:    2330           02341                           TC       UPT                                   #  ON +0.
000064:
000065:    2331           45503                           CS       TWO                                   #  -1 IS INACTIVE STATE
000066:    2332           64516                 +3        AD       ONE
000067:
000068:    2333           30642        PHASEXIT           XCH      RUPTREG4


000070:    2334           64516                           AD       ONE
000071:    2335           50001                           TS       Q                                     #  WE MUST RELINT BEFORE RETURN.
000072:    2336           30642                           XCH      RUPTREG4                              #  OLD PHASE BITS.
000073:    2337           20016                           RELINT
000074:    2340           00001                           TC       Q
000075:
000076:    2341           20601        UPT                INDEX    PHASDATA
000077:    2342           36651                           CAF      UPTCADR    -1
000078:    2343           05662                           TC       SWCALL
000079:
000080:    2344           35501                           CAF      ZERO                                  #  IF RETURN
000081:    2345           02333                           TC       PHASEXIT
000082:


000084:
000085:                                                                                                  #        MAJOR MODE LIGHT MAINTENANCE ROUTINES.
000086:
000087:                                                                                                  #        ROUTINE TO CHECK EQUALITY BETWEEN THE MAJOR MODE DISPLAY AND THE ARGUMENT AT CALLER +1. RETURNS TO
000088:                                                                                                  #  CALLER +2 IF NOT AND CALLER +3 IF SO.
000089:
000090:    2346           34516        CHECKMM            CAF      ONE
000091:    2347           60001                           AD       Q
000092:    2350           30001                           XCH      Q
000093:    2351           20000                           INDEX    A
000094:    2352           40000                           CS       0
000095:    2353           60612                           AD       MODREG
000096:    2354           10000                           CCS      A
000097:    2355           00001                           TC       Q
000098:    2356           00017        FINEMASK           OCT      17
000099:    2357           00001                           TC       Q
000100:    2360           20001                           INDEX    Q
000101:    2361           00001                           TC       Q
000102:
000103:                                                                                                  #        TO UPDATE THE MAJOR MODE LIGHTS:
000104:
000105:    2362           20001        NEWMODE            INDEX    Q
000106:    2363           30000                           CAF      0
000107:    2364           50612                           TS       MODREG
000108:    2365           33314                           CAF      GRABUSY    +1                         #  CADR OF BANK CONTAINING DSPMM.
000109:    2366           30015                           XCH      BANKREG
000110:    2367           50116                           TS       MPAC       +1                         #  MPACS NOT USED BY DSPMM.
000111:    2370           30001                           XCH      Q
000112:    2371           50115                           TS       MPAC
000113:    2372           06003                           TC       DSPMM
000114:
000115:    2373           30116                           XCH      MPAC       +1
000116:    2374           50015                           TS       BANKREG
000117:    2375           20115                           INDEX    MPAC
000118:    2376           00001                           TC       1
000119:


000121:
000122:                                                                                                  #  PROGRAM PRGSTALL IS AN EXECUTIVE INTERLOCK ROUTINE. REQUESTING PROGS DO
000123:                                                                                                  #                TC      BANKCALL
000124:                                                                                                  #                CADR    PRGSTALL
000125:                                                                                                  #  RETURN IS TO L+2 AFTER TWO PROGS HAVE CALLED.
000126:
000127:
000128:
000129: 04,6624                                           BANK     4
000130: 04,6624           20017        PRGSTALL           INHINT
000131: 04,6625           40645                           CS       STATE
000132: 04,6626           74516                           MASK     PRGBIT
000133: 04,6627           50001                           TS       Q
000134: 04,6630           44516                           CS       PRGBIT
000135: 04,6631           70645                           MASK     STATE
000136: 04,6632           60001                           AD       Q
000137: 04,6633           50645                           TS       STATE
000138: 04,6634           10001                           CCS      Q
000139: 04,6635           06642                           TC       PRGSLEEP
000140: 04,6636           36651                           CAF      LPRGRET
000141: 04,6637           02060                           TC       JOBWAKE
000142: 04,6640           20016                           RELINT
000143: 04,6641           05702                           TC       SWRETURN
000144:
000145: 04,6642           05706        PRGSLEEP           TC       MAKECADR
000146: 04,6643           30062                           XCH      ADDRWD
000147: 04,6644           50117                           TS       MPAC       +2
000148: 04,6645           36651                           CAF      LPRGRET
000149: 04,6646           02127                           TC       JOBSLEEP
000150:
000151: 04,6647           30117        PRGRET             XCH      MPAC       +2
000152: 04,6650           05723                           TC       BANKJUMP
000153:
000154: 04,6651           10647        LPRGRET            CADR     PRGRET
000155: 04,6652     4516               PRGBIT             EQUALS   BIT1
000156:
000157: 04,6652           10652        UPTCADR            CADR     10652
000158:


000160:
000161:                                                                                                  #        PINBALL COMES TO MODROUT ON RECEIVING THE NEW MODE REQUESTED BY VERB 37. THE DESIRED MODE IN IS A
000162:                                                                                                  #  ON ARRIVAL.
000163:
000164: 04,6653           20017        MODROUT            INHINT
000165: 04,6654           64341                           AD       NEG3                                  #  FOR FLIGHT 501, ONLY MODES 01 AND 03 MAY
000166: 04,6655           10000                           CCS      A                                     #  BE INITIATED BY VERB 37.
000167: 04,6656           06703                           TC       V37BAD
000168: 04,6657           03062                           TC       CCSHOLE
000169: 04,6660           06670                           TC       1CHECK                                #  SEE IF 01 CALLED FOR.
000170:
000171: 04,6661           02346                           TC       CHECKMM                               #  MODE 03 REQUESTED - DEMANDS MODE 02
000172: 04,6662           00002                           OCT      02                                    #  PRESENTLY.
000173: 04,6663           06703                           TC       V37BAD
000174:
000175: 04,6664           32150                           CAF      PRIO14                                #  START OPTICAL CHECK.
000176: 04,6665           02046                           TC       FINDVAC
000177: 04,6666           43262                           CADR     CHKOPT
000178: 04,6667           02124                           TC       ENDOFJOB
000179:
000180: 04,6670           64335        1CHECK             AD       MINUS1                                #  SEE IF 01 REQUESTED.
000181: 04,6671           10000                           CCS      A
000182: 04,6672           06703                           TC       V37BAD
000183: 04,6673           03062                           TC       CCSHOLE
000184: 04,6674           06703                           TC       V37BAD
000185:
000186: 04,6675           10612                           CCS      MODREG                                #  DEMAND IDLE MODE.
000187: 04,6676           06703                           TC       V37BAD
000188:
000189: 04,6677           34501                           CAF      PRIO20
000190: 04,6700           02046                           TC       FINDVAC
000191: 04,6701           42000                           CADR     TOP1
000192: 04,6702           02124                           TC       ENDOFJOB
000193:
000194: 04,6703           03233        V37BAD             TC       FALTON                                #  ILLEGAL REQUEST.
000195: 04,6704           02124                           TC       ENDOFJOB
000196:

End of include-file RESTART_CONTROL.agc.  Parent file is MAIN.agc


