
Source Code


000002:                                                                                                  #  Copyright:    Public domain.
000003:                                                                                                  #  Filename:     RESTART_CONTROL.agc
000004:                                                                                                  #  Purpose:      Part of the source code for Solarium build 55. This
000005:                                                                                                  #                is for the Command Module's (CM) Apollo Guidance
000006:                                                                                                  #                Computer (AGC), for Apollo 6.
000007:                                                                                                  #  Assembler:    yaYUL --block1
000008:                                                                                                  #  Contact:      Jim Lawton <jim DOT lawton AT gmail DOT com>
000009:                                                                                                  #  Website:      www.ibiblio.org/apollo/index.html
000010:                                                                                                  #  Page scans:   www.ibiblio.org/apollo/ScansForConversion/Solarium055/
000011:                                                                                                  #  Mod history:  2009-09-21 JL   Created.
000012:                                                                                                  #                2016-08-22 RSB  Typos.
000013:
000014:                                                                                                  # # Page 120
000015:
000016:    2276                                           BANK     1
000017:
000018:                                                                                                  #  OF THE PHASE TABLE IN ALMOST CONSTANT AGREEMENT. CALLING SEQUENCES ARE AS FOLLOWS:
000019:
000020:                                                                                                  #                TC      PHASCHNG        CHANGE GROUP G TO PHASE PPP (127 MAX).
000021:                                                                                                  #                OCT     PPP0G           (CALL UNDER EXECUTIVE ONLY)
000022:
000023:                                                                                                  #                CAF     --              CHANGE GROUP G TO THE PHASE ARRIVING IN
000024:                                                                                                  #                TC      NEWPHASE        A (MAY BE CALLED ANYTIME).
000025:                                                                                                  #                OCT     0000G
000026:
000027:                                                                                                  #        IN EACH CASE THE OLD PHASE IS RETURNED TO THE CALLED IN A. IF THE OLD PHASE WAS +0, CONTROL IS
000028:                                                                                                  #  GIVEN TO A ROUTINE SPECIFIED IN A CADR TABLE. THIS ROUTINE MAY EXIT OR RETURN TO CALLER VIA SWRETURN.
000029:
000030:    2276           30001        PHASCHNG           XCH      Q
000031:    2277           20017                           INHINT
000032:    2300           50642                           TS       RUPTREG4
000033:    2301           20000                           INDEX    A
000034:    2302           30000                           CAF      0
000035:    2303           50601                           TS       PHASDATA
000036:    2304           73220                           MASK     LOW5                                  #  (MAY WANT MORE GROUPS SOME DAY)
000037:    2305           30601                           XCH      PHASDATA
000038:    2306           25777                           EXTEND
000039:    2307           42311                           MP       -BIT9                                 #  NOTE LP NOT SAVED.
000040:    2310           02321                           TC       PHASCH2
000041:
000042:    2311           77377        -BIT9              OCT      -400
000043:
000044:    2312           20017        NEWPHASE           INHINT
000045:    2313           30001                           XCH      Q
000046:    2314           50642                           TS       RUPTREG4
000047:    2315           20000                           INDEX    A
000048:    2316           30000                           CAF      0
000049:    2317           50601                           TS       PHASDATA
000050:
000051:    2320           40001                           CS       Q
000052:    2321           20601        PHASCH2            INDEX    PHASDATA
000053:    2322           50655                           TS       -PHASE1    -1                         #  PHASE1 IS FOR PROG NUM 1.
000054:    2323           40000                           COM
000055:    2324           20601                           INDEX    PHASDATA
000056:    2325           30647                           XCH      PHASE1     -1                         #  INTO PHASE1 FOR PROG 1.
000057:
000058:    2326           10000                           CCS      A
000059:    2327           02332                           TC       +3
000060:
000061:    2330           02341                           TC       UPT                                   #  ON +0.
000062:
000063:    2331           45503                           CS       TWO                                   #  -1 IS INACTIVE STATE
000064:    2332           64516                 +3        AD       ONE
000065:
000066:    2333           30642        PHASEXIT           XCH      RUPTREG4
000067:                                                                                                  # # Page 121
000068:    2334           64516                           AD       ONE
000069:    2335           50001                           TS       Q                                     #  WE MUST RELINT BEFORE RETURN.
000070:    2336           30642                           XCH      RUPTREG4                              #  OLD PHASE BITS.
000071:    2337           20016                           RELINT
000072:    2340           00001                           TC       Q
000073:
000074:    2341           20601        UPT                INDEX    PHASDATA
000075:    2342           36651                           CAF      UPTCADR    -1
000076:    2343           05662                           TC       SWCALL
000077:
000078:    2344           35501                           CAF      ZERO                                  #  IF RETURN
000079:    2345           02333                           TC       PHASEXIT
000080:
000081:                                                                                                  # # Page 122
000082:
000083:                                                                                                  #        MAJOR MODE LIGHT MAINTENANCE ROUTINES.
000084:
000085:                                                                                                  #        ROUTINE TO CHECK EQUALITY BETWEEN THE MAJOR MODE DISPLAY AND THE ARGUMENT AT CALLER +1. RETURNS TO
000086:                                                                                                  #  CALLER +2 IF NOT AND CALLER +3 IF SO.
000087:
000088:    2346           34516        CHECKMM            CAF      ONE
000089:    2347           60001                           AD       Q
000090:    2350           30001                           XCH      Q
000091:    2351           20000                           INDEX    A
000092:    2352           40000                           CS       0
000093:    2353           60612                           AD       MODREG
000094:    2354           10000                           CCS      A
000095:    2355           00001                           TC       Q
000096:    2356           00017        FINEMASK           OCT      17
000097:    2357           00001                           TC       Q
000098:    2360           20001                           INDEX    Q
000099:    2361           00001                           TC       Q
000100:
000101:                                                                                                  #        TO UPDATE THE MAJOR MODE LIGHTS:
000102:
000103:    2362           20001        NEWMODE            INDEX    Q
000104:    2363           30000                           CAF      0
000105:    2364           50612                           TS       MODREG
000106:    2365           33314                           CAF      GRABUSY    +1                         #  CADR OF BANK CONTAINING DSPMM.
000107:    2366           30015                           XCH      BANKREG
000108:    2367           50116                           TS       MPAC       +1                         #  MPACS NOT USED BY DSPMM.
000109:    2370           30001                           XCH      Q
000110:    2371           50115                           TS       MPAC
000111:    2372           06003                           TC       DSPMM
000112:
000113:    2373           30116                           XCH      MPAC       +1
000114:    2374           50015                           TS       BANKREG
000115:    2375           20115                           INDEX    MPAC
000116:    2376           00001                           TC       1
000117:
000118:                                                                                                  # # Page 123
000119:
000120:                                                                                                  #  PROGRAM PRGSTALL IS AN EXECUTIVE INTERLOCK ROUTINE. REQUESTING PROGS DO
000121:                                                                                                  #                TC      BANKCALL
000122:                                                                                                  #                CADR    PRGSTALL
000123:                                                                                                  #  RETURN IS TO L+2 AFTER TWO PROGS HAVE CALLED.
000124:
000125:
000126:
000127: 04,6624                                           BANK     4
000128: 04,6624           20017        PRGSTALL           INHINT
000129: 04,6625           40645                           CS       STATE
000130: 04,6626           74516                           MASK     PRGBIT
000131: 04,6627           50001                           TS       Q
000132: 04,6630           44516                           CS       PRGBIT
000133: 04,6631           70645                           MASK     STATE
000134: 04,6632           60001                           AD       Q
000135: 04,6633           50645                           TS       STATE
000136: 04,6634           10001                           CCS      Q
000137: 04,6635           06642                           TC       PRGSLEEP
000138: 04,6636           36651                           CAF      LPRGRET
000139: 04,6637           02060                           TC       JOBWAKE
000140: 04,6640           20016                           RELINT
000141: 04,6641           05702                           TC       SWRETURN
000142:
000143: 04,6642           05706        PRGSLEEP           TC       MAKECADR
000144: 04,6643           30062                           XCH      ADDRWD
000145: 04,6644           50117                           TS       MPAC       +2
000146: 04,6645           36651                           CAF      LPRGRET
000147: 04,6646           02127                           TC       JOBSLEEP
000148:
000149: 04,6647           30117        PRGRET             XCH      MPAC       +2
000150: 04,6650           05723                           TC       BANKJUMP
000151:
000152: 04,6651           10647        LPRGRET            CADR     PRGRET
000153: 04,6652     4516               PRGBIT             EQUALS   BIT1
000154:
000155: 04,6652           10652        UPTCADR            CADR     -0
000156:
000157:                                                                                                  # # Page 124
000158:
000159:                                                                                                  #        PINBALL COMES TO MODROUT ON RECEIVING THE NEW MODE REQUESTED BY VERB 37. THE DESIRED MODE IS IN A
000160:                                                                                                  #  ON ARRIVAL.
000161:
000162: 04,6653           20017        MODROUT            INHINT
000163: 04,6654           64341                           AD       NEG3                                  #  FOR FLIGHT 501, ONLY MODES 01 AND 03 MAY
000164: 04,6655           10000                           CCS      A                                     #  BE INITIATED BY VERB 37.
000165: 04,6656           06703                           TC       V37BAD
000166: 04,6657           03062                           TC       CCSHOLE
000167: 04,6660           06670                           TC       1CHECK                                #  SEE IF 01 CALLED FOR.
000168:
000169: 04,6661           02346                           TC       CHECKMM                               #  MODE 03 REQUESTED - DEMANDS MODE 02
000170: 04,6662           00002                           OCT      02                                    #  PRESENTLY.
000171: 04,6663           06703                           TC       V37BAD
000172:
000173: 04,6664           32150                           CAF      PRIO14                                #  START OPTICAL CHECK.
000174: 04,6665           02046                           TC       FINDVAC
000175: 04,6666           43262                           CADR     CHKOPT
000176: 04,6667           02124                           TC       ENDOFJOB
000177:
000178: 04,6670           64335        1CHECK             AD       MINUS1                                #  SEE IF 01 REQUESTED.
000179: 04,6671           10000                           CCS      A
000180: 04,6672           06703                           TC       V37BAD
000181: 04,6673           03062                           TC       CCSHOLE
000182: 04,6674           06703                           TC       V37BAD
000183:
000184: 04,6675           10612                           CCS      MODREG                                #  DEMAND IDLE MODE.
000185: 04,6676           06703                           TC       V37BAD
000186:
000187: 04,6677           34501                           CAF      PRIO20
000188: 04,6700           02046                           TC       FINDVAC
000189: 04,6701           42000                           CADR     TOP1
000190: 04,6702           02124                           TC       ENDOFJOB
000191:
000192: 04,6703           03233        V37BAD             TC       FALTON                                #  ILLEGAL REQUEST.
000193: 04,6704           02124                           TC       ENDOFJOB
000194:

End of include-file RESTART_CONTROL.agc.  Parent file is MAIN.agc


