
Source Code


000002:                                                                                                  #  Copyright:    Public domain.
000003:                                                                                                  #  Filename:     SUM-CHECK_END_OF_RECORD_MARKS.agc
000004:                                                                                                  #  Purpose:      Part of the source code for Solarium build 55. This
000005:                                                                                                  #                is for the Command Module's (CM) Apollo Guidance
000006:                                                                                                  #                Computer (AGC), for Apollo 6.
000007:                                                                                                  #  Assembler:    yaYUL --block1
000008:                                                                                                  #  Contact:      Jim Lawton <jim DOT lawton AT gmail DOT com>
000009:                                                                                                  #  Website:      www.ibiblio.org/apollo/index.html
000010:                                                                                                  #  Page scans:   www.ibiblio.org/apollo/ScansForConversion/Solarium055/
000011:                                                                                                  #  Mod history:  2009-09-15 JL   Created.
000012:                                                                                                  #                2016-08-23 RSB  Typos.
000013:
000014:                                                                                                  # # Page 759
000015:
000016:                                                                                                  #  EACH VALID BANK MUST HAVE AN EOR CONSISTING OF TWO TC SELF WORDS TO
000017:                                                                                                  #  SIGNIFY THE END OF GOOD PARITY DATA.
000018:
000019:    3574                                           BANK     1
000020:
000021:    3574           03574                           TC       -0
000022:    3575           03575                           TC       -0
000023:
000024:    5765                                           BANK     2
000025:
000026:    5765           05765                           TC       -0
000027:    5766           05766                           TC       -0
000028:
000029: 03,7465                                           BANK     3
000030:
000031: 03,7465           07465                           TC       -0
000032: 03,7466           07466                           TC       -0
000033:
000034: 04,7516                                           BANK     4
000035:
000036: 04,7516           07516                           TC       -0
000037: 04,7517           07517                           TC       -0
000038:
000039: 05,7605                                           BANK     5
000040:
000041: 05,7605           07605                           TC       -0
000042: 05,7606           07606                           TC       -0
000043:
000044: 06,7632                                           BANK     6
000045:
000046: 06,7632           07632                           TC       -0
000047: 06,7633           07633                           TC       -0
000048:
000049: 07,7530                                           BANK     7
000050:
000051: 07,7530           07530                           TC       -0
000052: 07,7531           07531                           TC       -0
000053:
000054: 10,7741                                           BANK     10
000055:
000056: 10,7741           07741                           TC       -0
000057: 10,7742           07742                           TC       -0
000058:
000059: 11,7734                                           BANK     11
000060:
000061: 11,7734           07734                           TC       -0
000062: 11,7735           07735                           TC       -0
000063:
000064: 12,7760                                           BANK     12
000065:
000066: 12,7760           07760                           TC       -0
000067:                                                                                                  # # Page 760
000068: 12,7761           07761                           TC       -0
000069:
000070: 13,7347                                           BANK     13
000071:
000072: 13,7347           07347                           TC       -0
000073: 13,7350           07350                           TC       -0
000074:
000075: 14,7573                                           BANK     14
000076:
000077: 14,7573           07573                           TC       -0
000078: 14,7574           07574                           TC       -0
000079:
000080: 21,7565                                           BANK     21
000081:
000082: 21,7565           07565                           TC       -0
000083: 21,7566           07566                           TC       -0
000084:
000085: 22,7203                                           BANK     22
000086:
000087: 22,7203           07203                           TC       -0
000088: 22,7204           07204                           TC       -0
000089:
000090: 23,7476                                           BANK     23
000091:
000092: 23,7476           07476                           TC       -0
000093: 23,7477           07477                           TC       -0
000094:
000095: 24,6512                                           BANK     24
000096:
000097: 24,6512           06512                           TC       -0
000098: 24,6513           06513                           TC       -0
000099:
000100: 25,7543                                           BANK     25
000101:
000102: 25,7543           07543                           TC       -0
000103: 25,7544           07544                           TC       -0
000104:
000105: 26,7772                                           BANK     26
000106:
000107: 26,7772           07772                           TC       -0
000108: 26,7773           07773                           TC       -0
000109:
000110: 27,7354                                           BANK     27
000111:
000112: 27,7354           07354                           TC       -0
000113: 27,7355           07355                           TC       -0
000114:
000115: 30,7755                                           BANK     30
000116:
000117: 30,7755           07755                           TC       -0
000118:                                                                                                  # # Page 761
000119: 30,7756           07756                           TC       -0
000120:
000121: 31,7535                                           BANK     31
000122:
000123: 31,7535           07535                           TC       -0
000124: 31,7536           07536                           TC       -0
000125:
000126: 32,7743                                           BANK     32
000127:
000128: 32,7743           07743                           TC       -0
000129: 32,7744           07744                           TC       -0
000130:
000131: 33,7446                                           BANK     33
000132:
000133: 33,7446           07446                           TC       -0
000134: 33,7447           07447                           TC       -0
000135:
000136: 34,7770                                           BANK     34
000137:
000138: 34,7770           07770                           TC       -0
000139: 34,7771           07771                           TC       -0
000140:
000141:                                                                                                  #  END OF REVISION 0 OF PROGRAM SOLRUM55 BY NASA 1021108-021                     LAST ASSEMBLED ON NOV 26, 1966

End of include-file SUM-CHECK_END_OF_RECORD_MARKS.agc.  Parent file is MAIN.agc


