
Source Code


000002:                                                                                                  #  Copyright:    Public domain.
000003:                                                                                                  #  Filename:     T4RUPT_OUTPUT_CONTROL_PROGRAMS.agc
000004:                                                                                                  #  Purpose:      Part of the source code for Solarium build 55. This
000005:                                                                                                  #                is for the Command Module's (CM) Apollo Guidance
000006:                                                                                                  #                Computer (AGC), for Apollo 6.
000007:                                                                                                  #  Assembler:    yaYUL --block1
000008:                                                                                                  #  Contact:      Jim Lawton <jim DOT lawton AT gmail DOT com>
000009:                                                                                                  #  Website:      www.ibiblio.org/apollo/index.html
000010:                                                                                                  #  Page scans:   www.ibiblio.org/apollo/ScansForConversion/Solarium055/
000011:                                                                                                  #  Mod history:  2009-10-02 JL   Created.
000012:                                                                                                  #                2016-08-18 RSB  Typo.
000013:                                                                                                  #                2016-08-23 RSB  More of the same.
000014:
000015:                                                                                                  # # Page 159
000016:
000017:                                                                                                  #  T4RUPT OUTPUT CONTROL PROGRAMS
000018:
000019:                                                                                                  #  RELTAB IS A PACKED TABLE. RELAYWORD CODE IN UPPER 4 BITS, RELAY CODE
000020:                                                                                                  #  IN LOWER 5 BITS.
000021:
000022:    2630                                           BANK     1
000023:    2630           35501        T4RUPT             CAF      ZERO                                  #  ALONSO THINKS THIS SHOULD BE TURNED OFF
000024:    2631           50010                           TS       OUT0                                  #  EVERY 60 MS AS A MATTER OF COURSE.
000025:    2632           10033                           CCS      DSRUPTSW                              #  SEE IF THIS IS A SPECIAL RUPT TO
000026:    2633           02643                           TC       REGRUPT    +1                         #  ZERO OUT0 20MS AFTER IT WAS DRIVEN BY
000027:    2634           02642                           TC       REGRUPT                               #  DSPOUT. IF SO, DSRUPTSW IS NNZ.
000028:
000029:    2635           64516                           AD       ONE                                   #  RESTORE DSRUPTSW TO ITS POSITIVE VALUE.
000030:    2636           50033                           TS       DSRUPTSW
000031:
000032:    2637           32651                           CAF      40MSRUPT                              #  SET TIME4 TO INTERRUPT 40 MS FROM NOW.
000033:    2640           50040                           TS       TIME4                                 #  RE-ESTABLISHING THE REGULAR 60 MS
000034:    2641           02266                           TC       NBRESUME                              #  PATTERN. THEN DO NO-BANK-SWITCH RESUME.
000035:
000036:    2642           35362        REGRUPT            CAF      SEVEN                                 #  REGULAR 60 MS RUPT - COUNT DOWN ON
000037:    2643           50033                 +1        TS       DSRUPTSW                              #  DSRUPTSW.
000038:
000039:    2644           32650                           CAF      LT4RUPTA                              #  CALL IN APPROPRIATE BANK.
000040:    2645           30015                           XCH      BANKREG                               #  SAVE BANKREG FOR RESUME.
000041:    2646           50030                           TS       BANKRUPT
000042:    2647           06115                           TC       T4RUPTA
000043:
000044:    2650           20115        LT4RUPTA           CADR     T4RUPTA
000045:
000046:    2651           37774        40MSRUPT           OCT      37774                                 #  INTERRUPT IN 40 MS.
000047:
000048:
000049:    2652           04025        RELTAB             OCT      04025
000050:    2653           10003                           OCT      10003
000051:    2654           14031                           OCT      14031
000052:    2655           20033                           OCT      20033
000053:    2656           24017                           OCT      24017
000054:    2657           30036                           OCT      30036
000055:    2660           34034                           OCT      34034
000056:    2661           40023                           OCT      40023
000057:    2662           44035                           OCT      44035
000058:    2663           50037                           OCT      50037
000059:    2664           54000                           OCT      54000
000060:    2665           60000        RELTAB11           OCT      60000
000061:    2666           64000                           OCT      64000
000062:    2667           70000        70K                OCT      70000                                 #  ALSO USEFUL AS A BANK-SWITCHING MASK.
000063:
000064:                                                                                                  # # Page 160
000065:
000066:                                                                                                  #        ROUTINE TO ZERO (OR PSEUDO-ZERO) THE OPTICS COUNTERS.
000067:
000068:    2670           35501        ZEROOCTR           CAF      ZERO
000069:    2671           50052                           TS       OPTX
000070:                                                                                                  #  RIGHT HERE WE USED TO TEST BIT 13 OF WASOPSET. NOW ASSUME
000071:                                                                                                  #  UNCONDITIONALLY THAT SXT POWER IS ON (BIT 13 = 1).
000072:    2672           42675                           CS       20DEGS                                #  SET OPTY APPROX -20 DEGS (SXT ON)
000073:    2673           50053                           TS       OPTY
000074:    2674           00001                           TC       Q
000075:
000076:    2675           16037        20DEGS             DEC      7199       B-14
000077:
000078:                                                                                                  # # Page 161
000079:
000080:                                                                                                  #        SWITCHED-BANK POSITION OF T4RUPT.
000081:
000082: 10,6115                                           BANK     10
000083: 10,6115           30034        T4RUPTA            XCH      OVCTR                                 #  SAVE OVCTR.
000084: 10,6116           50031                           TS       OVRUPT
000085:
000086: 10,6117           37047                           CAF      60MSRUPT                              #  T4 NORMALLY INTERRUPTS EVERY 60 MS.
000087: 10,6120           50040                           TS       TIME4
000088:
000089: 10,6121           30004                           XCH      IN0                                   #  RESET IN0 TO PRESENT VALUE OF DESCRETES.
000090: 10,6122           36140                           CAF      DSKYMASK                              #  RESET DOUBLE-ENTRY INTERLOCK IF KEYCODE
000091: 10,6123           70004                           MASK     IN0                                   #  HAS DISAPPEARED.
000092: 10,6124           10000                           CCS      A
000093: 10,6125           06133                           TC       DSKYON
000094: 10,6126           06130                           TC       +2                                    #  RESET.
000095: 10,6127           06133                           TC       DSKYON
000096:
000097: 10,6130           44512                           CS       BIT5
000098: 10,6131           70645                           MASK     STATE
000099: 10,6132           50645                           TS       STATE
000100:
000101: 10,6133           10677        DSKYON             CCS      CDUIND                                #  DO AN IMU-CDU IF DESIRED.
000102: 10,6134           06142                           TC       DOIMUCDU   +1                         #  WITH NEW CDUIND IN A.
000103: 10,6135           06141                           TC       DOIMUCDU                              #  SET COUNT TO 2.
000104:
000105: 10,6136           06223                           TC       DSRUPTBR                              #  NO CDU. NNZ MEANS CDUS ARE RESERVED.
000106: 10,6137           06223                           TC       DSRUPTBR                              #  -0 MEANS THEY ARE AVAILABLE.
000107:
000108:
000109:
000110: 10,6140           40037        DSKYMASK           OCT      40037                                 #  INCLUDES KEYCODE AND MARK BIT.
000111:
000112:                                                                                                  # # Page 162
000113:
000114:                                                                                                  #        T4RUPT IMU CDU DRIVE - SERVICED EVERY 60 MS.
000115:
000116: 10,6141           35503        DOIMUCDU           CAF      TWO                                   #  SET CDUIND BACK TO 2.
000117: 10,6142           50677                 +1        TS       CDUIND
000118:
000119: 10,6143           30003                           XCH      LP                                    #  SAVE LP FOR IMU CDU DRIVE ONLY.
000120: 10,6144           50032                           TS       LPRUPT
000121:
000122: 10,6145           20677                           INDEX    CDUIND                                #  0 FOR X, 1 FOR Y, AND 2 FOR Z.
000123: 10,6146           40700                           CS       THETAD                                #  PICK UP DESIRED ANGLE.
000124: 10,6147           50600                           TS       ITEMP2
000125:
000126: 10,6150           20677                           INDEX    CDUIND
000127: 10,6151           40047                           CS       CDUX                                  #  READ AND SAVE CDU COUNTER.
000128: 10,6152           07410                           TC       2SCOMDIF                              #  DIFFERENCE WITH -0 UNEQUAL TO +0.
000129:
000130: 10,6153           25777                           EXTEND                                         #  RETURNS WITH DIFFERENCE IN A.
000131: 10,6154           46215                           MP       KG
000132: 10,6155           50577                           TS       ITEMP1                                #  COMMAND TO TEMP STORAGE
000133: 10,6156           10000                           CCS      A                                     #  CHECK SIGNUM OF COMMAND
000134: 10,6157           06166                           TC       POSCOM2
000135: 10,6160           06220                           TC       CDURSM
000136: 10,6161           06163                           TC       NEGCOM2
000137: 10,6162           06220                           TC       CDURSM
000138:                                                                                                  # # Page 163
000139:
000140: 10,6163           50577        NEGCOM2            TS       ITEMP1                                #  SAVE CCS OF COMMAND.
000141: 10,6164           40677                           CS       CDUIND                                #  USE NEGATIVE TO SELECT OUT2 PATTERN.
000142: 10,6165           06171                           TC       CDUOUT
000143:
000144: 10,6166           50577        POSCOM2            TS       ITEMP1                                #  SAME AS ABOVE EXCEPT 1+CDUIND SELECTS.
000145: 10,6167           34516                           CAF      ONE
000146: 10,6170           60677                           AD       CDUIND
000147:
000148: 10,6171           50034        CDUOUT             TS       OVCTR
000149: 10,6172           36200                           CAF      DUMCODE                               #  CODE WHICH INTERRUPTS OUT2 PULSES DURING
000150: 10,6173           30012                           XCH      OUT2                                  #   OUT2 MODIFICATION, BUT ALLOWS DETEC-
000151: 10,6174           77465                           MASK     LOW8                                  #   TION OF THE VERY RARE EVENT THAT THE
000152: 10,6175           30012                           XCH      OUT2                                  #   PULSE THATRESETS ANOTHER FIELD OF OUT2
000153: 10,6176           66201                           AD       -DUMCODE                              #   WAS REQUESTED DURING THE ORIGINAL
000154: 10,6177           10000                           CCS      A                                     #   XCH OUT2.
000155: 10,6200           02040        DUMCODE            OCT      02040                                 #  INCOMPLETE OUT2 SETTINGS (X AND OPTX).
000156: 10,6201           75737        -DUMCODE           OCT      -2040
000157: 10,6202           07377                           TC       JACKPOT                               #  THE PROBABILITY OF THIS IS ABOUT ZERO.
000158:
000159: 10,6203           40577                           CS       ITEMP1                                #  FORM 1.0 - ABS(COMMAND).
000160: 10,6204           64476                           AD       POSMAX
000161: 10,6205           50042                           TS       OUTCR1
000162:
000163: 10,6206           36200                           CAF      DUMCODE
000164: 10,6207           30012                           XCH      OUT2                                  #  NOW ENABLE OUTCR1 BY SETTING OUT2.
000165: 10,6210           20034                           INDEX    OVCTR
000166: 10,6211           67452                           AD       CDUCODES   +2
000167: 10,6212           30012                           XCH      OUT2
000168: 10,6213           66201                           AD       -DUMCODE
000169: 10,6214           10000                           CCS      A
000170:
000171: 10,6215           05605        KG                 DEC      .18                                   #  CDU DRIVING GAIN
000172: 10,6216           03062                           TC       CCSHOLE
000173: 10,6217           07377                           TC       JACKPOT
000174:
000175: 10,6220           34516        CDURSM             CAF      ONE                                   #  RESTORE LP.
000176: 10,6221           25777                           EXTEND
000177: 10,6222           40032                           MP       LPRUPT
000178:
000179:                                                                                                  # # Page 164
000180:
000181:                                                                                                  #        BRANCH ACCORDING TO DSRUPTSW  AND PERFORM THE APPROPRIATE DSRUPT FUNCTIONS.
000182:
000183: 10,6223           20033        DSRUPTBR           INDEX    DSRUPTSW                              #  JUMP ON DSRUPTSW.
000184: 10,6224           06225                           TC       +1
000185: 10,6225           06701                           TC       TMCHECK                               #  =0
000186: 10,6226           06447                           TC       LOSCAN                                #  LOOK FOR LIFT OFF EVERY 480 MS.
000187: 10,6227           06701                           TC       TMCHECK
000188: 10,6230           06355                           TC       NWALM                                 #  INITIATE NIGHT WATCHMAN JOB.
000189: 10,6231           06701                           TC       TMCHECK                               #  =4
000190: 10,6232           06501                           TC       OPTTEST                               #  =5    SERVICE OPTICS CDUS.
000191: 10,6233           06701                           TC       TMCHECK                               #  =6
000192:
000193:                                                                                                  # # Page 165
000194:
000195:                                                                                                  #        SYSTEM FAILURE INPUT BITS MONITOR - ENTERED EVERY 480 MS BY T4RUPT.
000196:
000197: 10,6234           10726        ERRORMON           CCS      OLDERR                                #  IGNORE BITS IF C(OLDERR) = 40000
000198: 10,6235           06240                           TC       ERRMON                                #  ORDINARILY POSITIVE.
000199: 10,6236           06240                           TC       ERRMON
000200: 10,6237           06463                           TC       ENDT4ERR
000201:
000202: 10,6240           30006        ERRMON             XCH      IN2                                   #  REFRESH LAST-SAMPLED-ERRORS REGISTER.
000203: 10,6241           30006                           XCH      IN2
000204: 10,6242           76252                           MASK     ERRMASK
000205: 10,6243           50600                           TS       ITEMP2
000206: 10,6244           36252                           CAF      ERRMASK
000207: 10,6245           70726                           MASK     OLDERR
000208: 10,6246           40000                           COM
000209: 10,6247           60600                           AD       ITEMP2
000210: 10,6250           10000                           CCS      A
000211: 10,6251           06255                           TC       ERRCHANG                              #  CHANGED.
000212: 10,6252           07000        ERRMASK            OCT      07000                                 #  IMU, CDU, AND PIPA FAIL.
000213: 10,6253           06255                           TC       ERRCHANG
000214: 10,6254           06463                           TC       ENDT4ERR                              #  EXIT - NO CHANGE HAS TAKEN PLACE.
000215:
000216: 10,6255           46252        ERRCHANG           CS       ERRMASK                               #  UPDATE IMU FAIL BITS IN OLDERRR.
000217: 10,6256           70726                           MASK     OLDERR
000218: 10,6257           60600                           AD       ITEMP2
000219: 10,6260           50726                           TS       OLDERR
000220:
000221: 10,6261           36277                           CAF      LITESOUT
000222: 10,6262           70723                           MASK     DSPTAB     +11D
000223: 10,6263           64500                           AD       BIT15                                 #  TO INDICATE CHANGE.
000224: 10,6264           50723                           TS       DSPTAB     +11D
000225:
000226: 10,6265           35503                           CAF      TWO                                   #  TURN ON LIGHTS ACCORDING TO C(OLDERR).
000227: 10,6266           50600        ERRSCAN            TS       ITEMP2
000228: 10,6267           20000                           INDEX    A
000229: 10,6270           34503                           CAF      BIT12                                 #  SELECT BIT IN OLDERR.
000230: 10,6271           70726                           MASK     OLDERR
000231: 10,6272           10000                           CCS      A
000232: 10,6273           06300                           TC       BITON                                 #  BIT IS PRESENT.
000233:
000234: 10,6274           10600        ERRSCAN3           CCS      ITEMP2                                #  LOOP THREE TIMES THROUGH.
000235: 10,6275           06266                           TC       ERRSCAN
000236:
000237: 10,6276           06463                           TC       ENDT4ERR                              #  FINISHED.
000238:
000239: 10,6277           37437        LITESOUT           OCT      37437
000240:
000241:                                                                                                  # # Page 166
000242:
000243:                                                                                                  #        PROCESS ERROR SIGNALS PRESENT. NOTE THAT C(WASKSET) INDICATES THE STATE OF THE SYSTEM SINCE NO RELAYS
000244:                                                                                                  #  HAVE BEEN SWITCHED IN THE LAST 120 MS, AND KSAMP WAS EXECUTED 60 MS AGO.
000245:
000246: 10,6300           20600        BITON              INDEX    ITEMP2                                #  2, 1, OR 0.
000247: 10,6301           06302                           TC       +1
000248: 10,6302           06305                           TC       IMUFAIL
000249: 10,6303           06346                           TC       PIPAFAIL
000250: 10,6304           06327                           TC       CDUFAIL
000251:
000252: 10,6305           10727        IMUFAIL            CCS      WASKSET                               #  FAILURE NO LEGITMATE IF IN COARSE ALIGN
000253: 10,6306           06316                           TC       IMUFAIL2                              #  PURSUE THIS ONE.
000254: 10,6307           06350                           TC       NOFAIL                                #  NO MODE-DEPENDENT FAILURE MONITORING
000255: 10,6310           06350                           TC       NOFAIL                                #  IF MODING FAILURE OR PROCEDURAL FAILURE.
000256: 10,6311           06350                           TC       NOFAIL
000257:
000258: 10,6312           34507        IMUFAIL3           CAF      BIT8                                  #  TURN ON IMU FAIL LIGHT.
000259: 10,6313           60723        FAILITON           AD       DSPTAB     +11D                       #  (WHICH HAD BEEN ZEROED IN ALL LIGHT
000260: 10,6314           50723                           TS       DSPTAB     +11D                       #  POSITIONS).
000261: 10,6315           06274                           TC       ERRSCAN3                              #  PROCESS NEXT INPUT BIT.
000262:
000263: 10,6316           64516        IMUFAIL2           AD       ONE                                   #  SEE IF COASE ALIGN ACHIEVED.
000264: 10,6317           74515                           MASK     BIT2
000265: 10,6320           10000                           CCS      A
000266: 10,6321           06350                           TC       NOFAIL
000267: 10,6322           34513                           CAF      BIT4                                  #  SEE IF WITHIN 5 SECONDS OF COARSE ALIGN.
000268: 10,6323           70726                           MASK     OLDERR
000269: 10,6324           10000                           CCS      A
000270: 10,6325           06350                           TC       NOFAIL                                #  IF SO.
000271: 10,6326           06312                           TC       IMUFAIL3                              #  FAILED.
000272:
000273: 10,6327           10727        CDUFAIL            CCS      WASKSET
000274: 10,6330           06336                           TC       CDUFAIL2                              #  FAILURE ONLY IF IN FINE ALIGN.
000275: 10,6331           06350                           TC       NOFAIL                                #  (SEE NOTE FOR IMUFAIL).
000276: 10,6332           06350                           TC       NOFAIL
000277: 10,6333           06350                           TC       NOFAIL
000278:
000279: 10,6334           34511        CDUFAIL3           CAF      BIT6                                  #  CDU FAIL LIGHT ON.
000280: 10,6335           06313                           TC       FAILITON
000281:
000282: 10,6336           44511        CDUFAIL2           CS       BIT6                                  #  TURN ON FAIL LIGHT ONLY IF IN FINE ALIGN
000283: 10,6337           70727                           MASK     WASKSET
000284: 10,6340           66343                           AD       -BIT4
000285: 10,6341           10000                           CCS      A
000286: 10,6342           06350                           TC       NOFAIL
000287: 10,6343           77767        -BIT4              OCT      -10
000288: 10,6344           06350                           TC       NOFAIL
000289: 10,6345           06334                           TC       CDUFAIL3                              #  TURN ON THE LIGHT.
000290:
000291: 10,6346           34510        PIPAFAIL           CAF      BIT7                                  #  TURN ON FAIL LIGHT UNCONDITIONALLY.
000292: 10,6347           06313                           TC       FAILITON
000293:                                                                                                  # # Page 167
000294:
000295: 10,6350           20600        NOFAIL             INDEX    ITEMP2                                #  COMES HERE IF PRESENT MODE INHIBITS FAIL
000296: 10,6351           44503                           CS       BIT12                                 #  BITS. THIS MAINTAINS PRESENT ACTUAL
000297: 10,6352           70726                           MASK     OLDERR                                #  ERRORS IN OLDERR FOR THE NIGHT WATCH-
000298: 10,6353           50726                           TS       OLDERR                                #  MANS BENEFIT, IN PARTICULAR.
000299: 10,6354           06274                           TC       ERRSCAN3
000300:
000301:                                                                                                  # # Page 168
000302:
000303:                                                                                                  #        NIGHT-WATCHMAN ALARM, SERVICED EVERY 480 MS BY T4RUPT.
000304:
000305: 10,6355           32171        NWALM              CAF      PRIO36
000306: 10,6356           02052                           TC       NOVAC
000307: 10,6357           20364                           CADR     NWJOB
000308:
000309: 10,6360           44505                           CS       BIT10                                 #  RESET BLOCK-ENDPULSE EVERY HALF SECOND.
000310: 10,6361           70011                           MASK     OUT1
000311: 10,6362           50011                           TS       OUT1
000312:
000313: 10,6363           06463                           TC       S4BSCAN
000314:
000315:
000316:
000317:                                                                                                  #        NIGHT-WATCHMAN JOB - DIDDLES TMALM FOR 24 MICRO-SEC AFTER VERIFYING THAT NEWJOB IS BEING TESTED.
000318:
000319: 10,6364           37503        NWJOB              CAF      NWMASK                                #  DONT ISSUE SIGNAL IF IMU, PIPA, OR
000320: 10,6365           20017                           INHINT
000321: 10,6366           70726                           MASK     OLDERR                                #  RESTART FAIL IS ON.
000322: 10,6367           10000                           CCS      A
000323: 10,6370           06405                           TC       NONNWJOB
000324: 10,6371           44513        DONW               CS       BIT4
000325: 10,6372           70011                           MASK     OUT1
000326: 10,6373           50001                           TS       Q
000327: 10,6374           40011                           CS       OUT1
000328: 10,6375           74513                           MASK     BIT4
000329: 10,6376           60001                           AD       Q
000330: 10,6377           30011                           XCH      OUT1
000331: 10,6400           50011                           TS       OUT1
000332: 10,6401           44514                           CS       BIT3                                  #  RESET INHIBIT INDICATOR.
000333: 10,6402           70726                           MASK     OLDERR
000334: 10,6403           50726                           TS       OLDERR
000335: 10,6404           02124                           TC       ENDOFJOB
000336:
000337: 10,6405           62261        NONNWJOB           AD       BANKMASK                              #  SEE IF PIPA FAIL ONLY PROBLEM.
000338: 10,6406           10000                           CCS      A
000339: 10,6407           06427                           TC       NOINH
000340: 10,6410           06427                           TC       NOINH
000341: 10,6411           06427                           TC       NOINH
000342:
000343: 10,6412           45362                           CS       SEVEN                                 #  CHECK FOR MODES 22 - 27.
000344: 10,6413           70612                           MASK     MODREG
000345: 10,6414           66417                           AD       -MODE20
000346: 10,6415           10000                           CCS      A
000347: 10,6416           06427                           TC       NOINH
000348: 10,6417           77757        -MODE20            OCT      -20
000349: 10,6420           06427                           TC       NOINH
000350:
000351: 10,6421           46425                           CS       MODE21                                #  NO MODE 20.
000352: 10,6422           60612                           AD       MODREG
000353:                                                                                                  # # Page 169
000354: 10,6423           10000                           CCS      A
000355: 10,6424           06371                           TC       DONW
000356: 10,6425           00021        MODE21             OCT      21
000357: 10,6426           06371                           TC       DONW
000358:
000359: 10,6427           44514        NOINH              CS       BIT3                                  #  SEE IF WE HAVE HAD TWO CONSECUTIVE
000360: 10,6430           70726                           MASK     OLDERR                                #  CONSECUTIVE INHIBITS.
000361: 10,6431           64514                           AD       BIT3
000362: 10,6432           30726                           XCH      OLDERR
000363: 10,6433           74514                           MASK     BIT3
000364: 10,6434           10000                           CCS      A
000365: 10,6435           06437                           TC       +2
000366: 10,6436           02124                           TC       ENDOFJOB
000367: 10,6437           20016                           RELINT
000368: 10,6440           02346                           TC       CHECKMM                               #  SET MM 77 IF REQUIRED.
000369: 10,6441           00077                           OCT      77
000370: 10,6442           06444                           TC       +2
000371: 10,6443           02124                           TC       ENDOFJOB
000372: 10,6444           02362                           TC       NEWMODE
000373: 10,6445           00077                           OCT      77                                    #  G AND N FLUSHED.
000374: 10,6446           02124                           TC       ENDOFJOB
000375:
000376:                                                                                                  # # Page 170
000377:
000378:                                                                                                  #        SCAN FOR LIFT-OFF EVERY 480 MS.
000379:
000380: 10,6447           40006        LOSCAN             CS       IN2
000381: 10,6450           40006                           CS       IN2
000382: 10,6451           74512                           MASK     BIT5
000383: 10,6452           10000                           CCS      A
000384: 10,6453           06463                           TC       S4BSCAN
000385: 10,6454           34515                           CAF      BIT2                                  #  SEE IF SIGNAL ALREADY RECEIVED.
000386: 10,6455           70646                           MASK     FLAGWRD1
000387: 10,6456           10000                           CCS      A
000388: 10,6457           06463                           TC       S4BSCAN
000389:
000390: 10,6460           32157                           CAF      PRIO24
000391: 10,6461           02046                           TC       FINDVAC
000392: 10,6462           64000                           CADR     LIFTOFF
000393:
000394:                                                                                                  #        S4B SEPARATE SCANNER - ENTERED EVERY 120 MS.
000395:
000396: 10,6463           30006        S4BSCAN            XCH      IN2
000397: 10,6464           30006                           XCH      IN2
000398: 10,6465           74507                           MASK     BIT8
000399: 10,6466           10000                           CCS      A
000400: 10,6467           06471                           TC       +2                                    #  IF BIT ON.
000401: 10,6470           06534                           TC       CDRVE                                 #  NORMAL CASE.
000402:
000403: 10,6471           34507                           CAF      BIT8                                  #  SEE IF FIRST TIME BIT ON.
000404: 10,6472           70646                           MASK     STATE      +1
000405: 10,6473           10000                           CCS      A
000406: 10,6474           06534                           TC       CDRVE                                 #  NO ACTION UNLESS FIRST TIME ON.
000407:
000408: 10,6475           32160                           CAF      PRIO25
000409: 10,6476           02046                           TC       FINDVAC
000410: 10,6477           64336                           CADR     S4BSMSEP
000411: 10,6500           06534                           TC       CDRVE
000412:
000413: 10,6501  10,6463               NOOPTCDU           EQUALS   S4BSCAN
000414: 10,6501  10,6463               ENDT4ERR           EQUALS   S4BSCAN
000415:
000416:                                                                                                  # # Page 171
000417:
000418:                                                                                                  #        OPTICS CDU DRIVING PROGRAM, SERVICED EVERY 480 MS BY DSRUPT.
000419:
000420: 10,6501           10703        OPTTEST            CCS      OPTIND                                #  PNZ FOR ACTIVE, NEGATIVE FOR INACTIVE.
000421: 10,6502           06507                           TC       +5                                    #  DRIVE CDU.
000422: 10,6503           06506                           TC       +3                                    #  DRIVE CDU.
000423: 10,6504           06463                           TC       NOOPTCDU                              #  NNZ MEANS RESERVED.
000424: 10,6505           06463                           TC       NOOPTCDU                              #  -0 MEANS AVAILABLE.
000425:
000426: 10,6506           34516                 +3        CAF      ONE                                   #  GOES 1(-1)0.
000427: 10,6507           50703                 +5        TS       OPTIND
000428:
000429: 10,6510           50637                           TS       RUPTREG1                              #  SET UP OUT2SUB TO START OUT-COUNTER.
000430: 10,6511           34516                           CAF      ONE                                   #  (TO ADDRESS OUTCR2).
000431: 10,6512           50640                           TS       RUPTREG2
000432:
000433: 10,6513           10703                           CCS      OPTIND                                #  DRIVE OPTICS Y DIFFERENT THAN OTHERS.
000434: 10,6514           06525                           TC       BLIVOT3                               #  OVF UNCORRECTION WONT WORK FOR OPTY.
000435:
000436: 10,6515           20703        REGDIFF            INDEX    OPTIND
000437: 10,6516           40704                           CS       DESOPTX                               #  DESIRED ANGLES.
000438: 10,6517           50600                           TS       ITEMP2
000439:
000440: 10,6520           20703                           INDEX    OPTIND
000441: 10,6521           40052                           CS       OPTX                                  #  READ COUNTER.
000442: 10,6522           07410                           TC       2SCOMDIF                              #  TAKES DIFFERENCE WITH -0 UNEQUAL TO +0.
000443:
000444: 10,6523           06631        OPTOUT             TC       OUT2SUB
000445:
000446: 10,6524           06463                           TC       S4BSCAN
000447:
000448: 10,6525           40053        BLIVOT3            CS       OPTY                                  #  IF THE DIFFERENCE OVERFLOWS, THE ERROR
000449: 10,6526           60705                           AD       DESOPTX    +1                         #   ERROR SIGNAL IS GREATER THAN 16383, SO
000450: 10,6527           50001                           TS       Q                                     #   JUST THROW IN POSMAX WITH THE RIGHT
000451: 10,6530           06515                           TC       REGDIFF                               #   SIGN AND CALL IT A DAY. OTHERWISE FOLL-
000452:
000453: 10,6531           20000                           INDEX    A                                     #   THE USUAL PROCEDURES.
000454: 10,6532           44477                           CS       LIMITS
000455: 10,6533           06523                           TC       OPTOUT
000456:
000457:                                                                                                  # # Page 172
000458:
000459:                                                                                                  #        CDRVE  CHANGES A BANK OF C RELAYS IF ANY CHANGE IS INDICATED IN THE C-RELAY PORTION OF DSPTAB.
000460:
000461: 10,6534           10725        CDRVE              CCS      DSPTAB     +13D                       #  SPACECRAFT RELAYS HAVE HIGHEST PRIORITY.
000462: 10,6535           06544                           TC       CDRVE1
000463: 10,6536           06544                           TC       CDRVE1
000464:
000465: 10,6537           34302                           CAF      LOW11
000466: 10,6540           70725                           MASK     DSPTAB     +13D
000467: 10,6541           50725                           TS       DSPTAB     +13D
000468: 10,6542           62667                           AD       RELTAB11   +2
000469: 10,6543           06623                           TC       DSPLAYC
000470:
000471: 10,6544           10723        CDRVE1             CCS      DSPTAB     +11D                       #  IMU AND CAUTION LIGHTS.
000472: 10,6545           06554                           TC       CDRVE2
000473: 10,6546           06554                           TC       CDRVE2
000474:
000475: 10,6547           34302                           CAF      LOW11
000476: 10,6550           70723                           MASK     DSPTAB     +11D
000477: 10,6551           50723                           TS       DSPTAB     +11D
000478: 10,6552           62665                           AD       RELTAB11
000479: 10,6553           06623                           TC       DSPLAYC
000480:
000481: 10,6554           10724        CDRVE2             CCS      DSPTAB     +12D                       #  OPTICS.
000482: 10,6555           06564                           TC       DSPOUT
000483: 10,6556           06564                           TC       DSPOUT
000484:
000485: 10,6557           34302                           CAF      LOW11
000486: 10,6560           70724                           MASK     DSPTAB     +12D
000487: 10,6561           50724                           TS       DSPTAB     +12D
000488: 10,6562           62666                           AD       RELTAB11   +1
000489: 10,6563           06623                           TC       DSPLAYC
000490:
000491: 10,6564           10707        DSPOUT             CCS      NOUT                                  #  ENTERED IN INTERRUPTED STATE AT END OF
000492: 10,6565           06567                           TC       +2                                    #                          DSRUPT
000493: 10,6566           02262                           TC       LVDSRUPT
000494: 10,6567           50707                           TS       NOUT
000495: 10,6570           45501                           CS       ZERO
000496: 10,6571           50600                           TS       DSRUPTEM                              #  SET TO -0 FOR 1ST PASS THRU DSPTAB
000497: 10,6572           30706                           XCH      DSPCNT
000498: 10,6573           65504                           AD       NEG0                                  #  TO PREVENT +0
000499: 10,6574           50706                           TS       DSPCNT
000500: 10,6575           20706        DSPSCAN            INDEX    DSPCNT
000501: 10,6576           10710                           CCS      DSPTAB
000502: 10,6577           10706                           CCS      DSPCNT                                #  IF DSPTAB ENTRY +, SKIP
000503: 10,6600           06573                           TC       DSPSCAN    -2                         #  IF DSPCNT +, AGAIN
000504: 10,6601           06612                           TC       DSPLAY                                #  IF DSPTAB ENTRY -, DISPLAY
000505: 10,6602           00012        TABLNTH            OCT      12                                    #  DEC 10   LENGTH OF DSPTAB
000506: 10,6603           10600                           CCS      DSRUPTEM                              #  IF DSRUPTEM=+0,2ND PASS THRU DSPTAB
000507: 10,6604           03062                           TC       CCSHOLE                               #  (DSPCNT=0). +0 INTO NOUT, RESUME.
000508: 10,6605           50707                           TS       NOUT
000509:                                                                                                  # # Page 173
000510: 10,6606           02262                           TC       LVDSRUPT
000511: 10,6607           50600                           TS       DSRUPTEM                              #  IF DSRUPTEM=-0,1ST PASS THRU DSPTAB
000512: 10,6610           36602                           CAF      TABLNTH                               #  (DSPCNT=0). +0 INTO DSRUPTEM. PASS AGAIN
000513: 10,6611           06574                           TC       DSPSCAN    -1
000514:
000515: 10,6612           64516        DSPLAY             AD       ONE
000516: 10,6613           20706                           INDEX    DSPCNT
000517: 10,6614           50710                           TS       DSPTAB                                #  REPLACE POSITIVELY
000518: 10,6615           74302                           MASK     LOW11                                 #  REMOVE BITS 12 TO 15
000519: 10,6616           50600                           TS       DSRUPTEM
000520: 10,6617           32261                           CAF      HI5
000521: 10,6620           20706                           INDEX    DSPCNT
000522: 10,6621           72652                           MASK     RELTAB                                #  PICK UP BITS 12 TO 15 OF RELTAB ENTRY
000523: 10,6622           60600                           AD       DSRUPTEM
000524: 10,6623           50010        DSPLAYC            TS       OUT0
000525: 10,6624           37126                           CAF      20MSRUPT                              #  SET T4 TO INTERRUPT IN 20 MS SO OUT0 MAY
000526: 10,6625           50040                           TS       TIME4                                 #  BE TURNED OFF AS SOON AS POSSIBLE. WHEN
000527: 10,6626           40033                           CS       DSRUPTSW                              #  THIS RUPT OCCURS, T4 IS RESET TO FIRE
000528: 10,6627           50033                           TS       DSRUPTSW                              #  IN 40MS, RE-ESTABLISHING THE REGULAR 60.
000529:
000530: 10,6630           02262                           TC       LVDSRUPT
000531:
000532: 10,6631     2262               LVDSRUPT           EQUALS   OVRESUME
000533:
000534:                                                                                                  # # Page 174
000535:
000536:                                                                                                  #        OUT2SUB IS USED BY THE GYRO DRIVE AND THE OPTICS CDU DRIVE TO SET THE PROPER SECTION OF OUT2 AND THE
000537:                                                                                                  #  PROPER OUT-COUNTER TO DELIVER THE COMMAND ARRIVING IN A.
000538:
000539: 10,6631           50577        OUT2SUB            TS       ITEMP1                                #  SIGNED COMMAND.
000540: 10,6632           30001                           XCH      Q
000541: 10,6633           50600                           TS       ITEMP2
000542: 10,6634           10577                           CCS      ITEMP1
000543: 10,6635           06644                           TC       POSCOM
000544: 10,6636           00600                           TC       ITEMP2                                #  RETURN TO CALLER ON EITHER ZERO.
000545: 10,6637           06641                           TC       NEGCOM
000546: 10,6640           00600                           TC       ITEMP2
000547:
000548: 10,6641           50577        NEGCOM             TS       ITEMP1                                #  CCS OF COMMAND LEFT IN ITEMP1
000549: 10,6642           40637                           CS       RUPTREG1                              #  0 AND 1 FOR OPTICS - 2, 3, AND 4 FOR GYR
000550: 10,6643           06647                           TC       SETOUT2
000551:
000552: 10,6644           50577        POSCOM             TS       ITEMP1                                #  CCS OF COMMAND.
000553: 10,6645           34516                           CAF      ONE
000554: 10,6646           60637                           AD       RUPTREG1
000555:
000556:                                                                                                  # # Page 175
000557:
000558: 10,6647           50642        SETOUT2            TS       RUPTREG4
000559: 10,6650           36200                           CAF      DUMCODE                               #  FOR A DESCRIPTION OF THIS OUT2 PROCEDURE
000560: 10,6651           30012                           XCH      OUT2                                  #  SEE THE IMUCDU DRIVE PROGRAM EARLIER IN
000561: 10,6652           20640                           INDEX    RUPTREG2                              #  T4RUPT.
000562: 10,6653           77465                           MASK     OUT2MASK
000563: 10,6654           30012                           XCH      OUT2
000564: 10,6655           66201                           AD       -DUMCODE
000565: 10,6656           10000                           CCS      A
000566: 10,6657           03062                           TC       CCSHOLE
000567: 10,6660           03062                           TC       CCSHOLE
000568: 10,6661           07377                           TC       JACKPOT
000569:
000570: 10,6662           40577                           CS       ITEMP1                                #  ABS(COMMAND) - 1.
000571: 10,6663           64476                           AD       POSMAX                                #  FORMS 1.0 - ABS(COMMAND).
000572: 10,6664           20640                           INDEX    RUPTREG2
000573: 10,6665           50042                           TS       OUTCR1
000574:
000575: 10,6666           36200                           CAF      DUMCODE                               #  ENABLE THE APPROPRIATE OUTCR BY SETTING
000576: 10,6667           30012                           XCH      OUT2                                  #  THE PROPER CODE IN OUT2
000577: 10,6670           20642                           INDEX    RUPTREG4
000578: 10,6671           67473                           AD       OPTCODES   +1
000579: 10,6672           30012                           XCH      OUT2
000580: 10,6673           66201                           AD       -DUMCODE
000581: 10,6674           10000                           CCS      A
000582: 10,6675           03062                           TC       CCSHOLE
000583: 10,6676           03062                           TC       CCSHOLE
000584: 10,6677           07377                           TC       JACKPOT
000585:
000586: 10,6700           00600                           TC       ITEMP2
000587:
000588: 10,6701                        NOGYROC            EQUALS
000589:
000590: 10,6701                        ENDGYROC           EQUALS
000591:
000592:                                                                                                  # # Page 176
000593:
000594:                                                                                                  #  ALTERNATE 120 MS LEG OF T4RUPT.
000595:
000596: 10,6701           35362        TMCHECK            CAF      SEVEN                                 #  ALLOW UP TO SEVEN TM WORDS UNTIL NEXT
000597: 10,6702           30670                           XCH      TELCOUNT                              #  DSRUPT0 EXECUTION. CHECK LAST TM PERIOD
000598: 10,6703           66705                           AD       NEG7                                  #  TO SEE IF AT LEAST ONE WORD WENT OUT.
000599: 10,6704           10000                           CCS      A                                     #  THIS SATISFIES BOTH HIGH- AND LOW-POWER.
000600:
000601: 10,6705           77770        NEG7               DEC      -7         B-14
000602: 10,6706           03062                           TC       CCSHOLE
000603: 10,6707           06711                           TC       +2                                    #  OK - PROCEED.
000604: 10,6710           02571                           TC       TMFAIL                                #  TURN ON TM FAIL LIGHT BEFORE KSAMP.
000605:
000606: 10,6711           30007        MODESAMP           XCH      IN3                                   #  SAMPLE MODE BITS AND TUCK THEM AWAY
000607: 10,6712           30007                           XCH      IN3                                   #  FOR KSAMP AND OPTSAMP.
000608: 10,6713           50637                           TS       KSAMPTEM
000609: 10,6714           74720                           MASK     LOW7
000610: 10,6715           30637                           XCH      KSAMPTEM
000611: 10,6716           76770                           MASK     OPTBITS
000612: 10,6717           50640                           TS       OSAMPTEM
000613: 10,6720           30004                           XCH      IN0                                   #  THIS CLEARS THE KEY CODE WITHIN 120MS
000614:                                                                                                  #   OF THE TIME THE KEY WAS RELEASED.
000615:
000616: 10,6721           50034                           TS       OVCTR                                 #  SEE IF INHIBIT UP-SYNC BIT IS ON.
000617: 10,6722           74510                           MASK     BIT7
000618: 10,6723           10000                           CCS      A
000619: 10,6724           02571                           TC       TMFAIL                                #  IF SO, TURN ON TELEMETRY FAIL LIGHT.
000620:
000621: 10,6725           10034                           CCS      OVCTR                                 #  SEE IF MARK BUTTON DOWN.
000622: 10,6726           06734                           TC       OPTSAMP
000623: 10,6727           06734                           TC       OPTSAMP
000624: 10,6730           06731                           TC       +1
000625: 10,6731           37003                           CAF      NOMKACPT                              #  DONT INCLUDE MARK ACCEPT INFORMATION.
000626: 10,6732           70640                           MASK     OSAMPTEM
000627: 10,6733           50640                           TS       OSAMPTEM
000628:
000629:                                                                                                  # # Page 177
000630:
000631:                                                                                                  #        OPTICS MODE SAMPLING.
000632:
000633: 10,6734           10732        OPTSAMP            CCS      DESOPSET                              #  IS COMPUTER COMMANDING
000634: 10,6735           06751                           TC       OPTCOMM                               #  YES
000635: 10,6736           07043                           TC       NOOPCOM                               #  NO
000636:
000637: 10,6737           34503                           CAF      BIT12                                 #  MAKE SURE WE ARE STILL ZEROING
000638: 10,6740           70640                           MASK     OSAMPTEM                              #  (THIS PORTION ENTERED FOR 30 SEC. DURING
000639: 10,6741           60730                           AD       WASOPSET                              #     MANUAL OPTICS ZERO).
000640: 10,6742           74503                           MASK     BIT12                                 #  SEE IF CDU-ZERO BIT HAS CHANGED.
000641: 10,6743           10000                           CCS      A                                     #  ALARM IF SO.
000642: 10,6744           06746                           TC       +2
000643: 10,6745           07074                           TC       LVOPTSMP
000644:
000645: 10,6746           03007                           TC       ALARM                                 #  IF NOT, ALARM ON
000646: 10,6747           00101                           OCT      00101                                 #  OPTICS ALARM NO. 1.
000647: 10,6750           07074                           TC       LVOPTSMP
000648:
000649: 10,6751           34501        OPTCOMM            CAF      BIT14                                 #  SEE IF COMPUTER-ON SWITCH JUST CHANGED.
000650: 10,6752           70730                           MASK     WASOPSET                              #  FORM WAS BIT14 - IS BIT14.
000651: 10,6753           50001                           TS       Q
000652: 10,6754           34501                           CAF      BIT14
000653: 10,6755           70640                           MASK     OSAMPTEM                              #  PRESENT INPUT BITS.
000654: 10,6756           40000                           COM
000655: 10,6757           60001                           AD       Q
000656: 10,6760           10000                           CCS      A
000657: 10,6761           07010                           TC       COMP.OFF                              #  SWITCH JUST TURNED OFF.
000658: 10,6762           34760        OFFMASK            OCT      34760                                 #  USED FOR SETTING IMU C-RELAYS.
000659: 10,6763           07017                           TC       COMP.ON                               #  SWITCH JUST TURNED ON.
000660:
000661: 10,6764           40732        OPTCOMM2           CS       DESOPSET                              #  SEE IF DESIRED MODE ACHIEVED.
000662: 10,6765           60640                           AD       OSAMPTEM
000663: 10,6766           10000                           CCS      A
000664: 10,6767           06773                           TC       OPTCTEST                              #  COMMAND NOT EQUAL TO ACTUAL
000665: 10,6770           35000        OPTBITS            OCT      35000
000666: 10,6771           07000                           TC       OPTCOMM3                              #  NO MATCH - SEE IF COMP ON ONLY MISMATCH.
000667: 10,6772           07074                           TC       LVOPTSMP                              #  DONE IF MODES AGREE.
000668:
000669: 10,6773           10724        OPTCTEST           CCS      DSPTAB     +12D                       #  IS CHANGE COMING.
000670: 10,6774           07027                           TC       OPTCFAIL                              #  NO - C-RELAY FAILURE OR UNWANTED MANUAL
000671: 10,6775           07027                           TC       OPTCFAIL                              #  INTERVENTION.
000672:
000673: 10,6776           35501                           CAF      ZERO                                  #  LEAVE WAITING FLAG IN WASOPSET.
000674: 10,6777           07075                           TC       LVOPTSMP   +1
000675:
000676: 10,7000           67176        OPTCOMM3           AD       -BIT14+1                              #  NO ERROR IF COMPUTER-ON ONLE ONE DIFF.
000677: 10,7001           10000                           CCS      A
000678: 10,7002           06773                           TC       OPTCTEST
000679: 10,7003           31000        NOMKACPT           OCT      31000
000680: 10,7004           06773                           TC       OPTCTEST
000681:                                                                                                  # # Page 178
000682: 10,7005           34501                           CAF      BIT14                                 #  IN THIS CASE, SET COMP.ON BIT TO 1 IN
000683: 10,7006           60640                           AD       OSAMPTEM                              #  WASOPSET TO PREVENT +0 FOR CORRECT MODES
000684: 10,7007           07075                           TC       LVOPTSMP   +1
000685:
000686: 10,7010           10703        COMP.OFF           CCS      OPTIND                                #  TAKE AGC OUT OF CDU LOOP IF APPROPRIATE.
000687: 10,7011           07013                           TC       +2
000688: 10,7012           07013                           TC       +1                                    #  POSITIVE MEANS COMPUTER WAS IN LOOP.
000689: 10,7013           34516                           CAF      ONE                                   #  LEAVE CDUS RESERVED (RARE).
000690: 10,7014           40000                           COM                                            #  -0 REVERTS TO -0.
000691: 10,7015           50703                           TS       OPTIND
000692:
000693: 10,7016           06764                           TC       OPTCOMM2                              #  DO MODE CHECK.
000694:
000695: 10,7017           10703        COMP.ON            CCS      OPTIND                                #  PUT AGC BACK INTO CDU LOOP IF DESIRED.
000696: 10,7020           07023                           TC       ONALARM                               #  (THIS SHOULD NEVER HAPPEN).
000697: 10,7021           07023                           TC       ONALARM
000698: 10,7022           07041                           TC       ONOK                                  #  CDUS HAD BEEN RESERVED.
000699:
000700: 10,7023           07034        ONALARM            TC       OFAILTST                              #  SEE IF FAIL FLAG ALREADY SET.
000701: 10,7024           03007                           TC       ALARM                                 #  ALARM AND SET FAILURE FLAG.
000702: 10,7025           00104                           OCT      00104
000703: 10,7026           07032                           TC       OFAILSET
000704:
000705: 10,7027           07034        OPTCFAIL           TC       OFAILTST                              #  SEE IF ALARM ALREADY SOUNDED.
000706: 10,7030           03007                           TC       ALARM                                 #  ALARM AND SET FAIL FLAG IF NOT.
000707: 10,7031           00102                           OCT      00102
000708:
000709: 10,7032           45501        OFAILSET           CS       ZERO
000710: 10,7033           07075                           TC       LVOPTSMP   +1                         #  SET FAIL FLAG AND EXIT.
000711:
000712: 10,7034           10730        OFAILTST           CCS      WASOPSET                              #  RETURNS TO CALLER IF NO FAILURE ALARM
000713: 10,7035           00001                           TC       Q                                     #  GIVEN. EXITS WITHOUT CHANGING WASOPSET
000714: 10,7036           00001                           TC       Q                                     #  IF SO.
000715: 10,7037           07076                           TC       NOOPRSET
000716: 10,7040           07076                           TC       NOOPRSET
000717:
000718: 10,7041           50703        ONOK               TS       OPTIND                                #  SET OPTIND TO +0 TO ACTIVE CDU DRIVE.
000719: 10,7042           06764                           TC       OPTCOMM2                              #  DO MODE AGREEMENT CHECK.
000720:
000721: 10,7043           40730        NOOPCOM            CS       WASOPSET                              #  ENTERS HERE IF COMPUTER NOT COMMANDING.
000722: 10,7044           60640                           AD       OSAMPTEM                              #  SEE IF ANY CHANGES SINCE LAST LOCK.
000723: 10,7045           10000                           CCS      A
000724: 10,7046           07052                           TC       NOOPCOM1                              #  CHANGED.
000725: 10,7047           37772        60MSRUPT           OCT      37772                                 #  UNUSED CCS BRANCH.
000726: 10,7050           07052                           TC       NOOPCOM1                              #  CHANGED.
000727: 10,7051           07074                           TC       LVOPTSMP                              #  NO CHANGE - NORMAL EXIT IN MANUAL.
000728:
000729: 10,7052           40730        NOOPCOM1           CS       WASOPSET                              #  SEE IF MANUAL CDU-ZERO JUST REQUESTED.
000730: 10,7053           74503                           MASK     BIT12
000731: 10,7054           70640                           MASK     OSAMPTEM
000732:                                                                                                  # # Page 179
000733: 10,7055           10000                           CCS      A
000734: 10,7056           07360                           TC       MANOPTZ                               #  CALL MANUAL OPTICS ZERO SUBROUTINE.
000735:                                                                                                  #  (THIS RECONCILES OPTICS-ZERO C-RELAY).
000736:
000737:                                                                                                  #  WE USED TO TEST HERE TO SEE IF THE SXT-ON SWITCH HAS CHANGED.
000738:                                                                                                  #  SINCE IN BLOCK 50 - 100 IT IS ALWAYS ON, WE DON'T NOW.
000739: 10,7057           34505        RECONTRK           CAF      BIT10                                 #  RECONCILE TRKR-ON C-RELAY.
000740: 10,7060           70640                           MASK     OSAMPTEM
000741: 10,7061           10000                           CCS      A
000742: 10,7062           34515                           CAF      BIT2                                  #  TURN ON TRKR-ON C-RELAY.
000743: 10,7063           64500                           AD       BIT15
000744: 10,7064           30724                           XCH      DSPTAB     +12D
000745: 10,7065           77254                           MASK     OCT37775                              #  CHANGE BITS 2 AND 15.
000746: 10,7066           60724                           AD       DSPTAB     +12D
000747: 10,7067           50724                           TS       DSPTAB     +12D
000748:
000749: 10,7070           30640                           XCH      OSAMPTEM                              #  SET WASOPSET AND CALL SETZLIT TO
000750: 10,7071           50730                           TS       WASOPSET                              #  SET ZERO-ENCODER LIGHT.
000751: 10,7072           02743                           TC       SETZLIT
000752: 10,7073           07076                           TC       NOOPRSET
000753:
000754: 10,7074           30640        LVOPTSMP           XCH      OSAMPTEM
000755: 10,7075           50730                           TS       WASOPSET
000756:
000757: 10,7076                        NOOPRSET           EQUALS                                         #  DONT RESET WASOPSET.
000758:
000759:                                                                                                  # # Page 180
000760:
000761:                                                                                                  #  KSAMP         ENTERED EVERY 120 MS DURING T4RUPT. SAMPLES STATUS OF
000762:                                                                                                  #  -----         IMU MODE SWITCHES.
000763:                                                                                                  #                SETS C(WASKSET)=C(DESKSET) FOR SUCCESSFUL COMP. COMM.
000764:                                                                                                  #                               =+0 FOR WAITING(START-UP,CONTACT BOUNCE)
000765:                                                                                                  #                               =-X FOR ASTRONAUT COMM. IGNORE
000766:                                                                                                  #                               =-0 FOR SYSTEM FAILURE
000767:
000768:
000769:
000770: 10,7076           10727        KSAMP              CCS      WASKSET                               #  TEST FOR IGNORE
000771: 10,7077           07102                           TC       +3
000772: 10,7100           07102                           TC       +2
000773: 10,7101           02262                           TC       ENDKSAMP
000774:
000775: 10,7102           10731                           CCS      DESKSET                               #  C(DESKSET)=DESIRED K RELAY SETTING
000776: 10,7103           07250                           TC       KSAMP1                                #            =+0 FOR COMPUTER NOT COMM.
000777: 10,7104           07117                           TC       KSAMP4                                #            -DESIRED K SETTING FOR MAN 0.
000778:
000779: 10,7105           34516                           CAF      BIT1                                  #  ENTERS HERE TO BE SURE MANUAL CDU ZERO
000780: 10,7106           70637                           MASK     KSAMPTEM                              #  LASTS AT LEAST 30 SEC.
000781: 10,7107           60727                           AD       WASKSET                               #  ALARM IF CDU-ZERO SWITCH CHANGED STATE.
000782: 10,7110           74516                           MASK     BIT1
000783: 10,7111           10000                           CCS      A
000784: 10,7112           07114                           TC       +2
000785: 10,7113           07260                           TC       LVKSAMP
000786:
000787: 10,7114           03007                           TC       ALARM
000788: 10,7115           00201                           OCT      00201                                 #  CDU NOT SEROED PROPERLY.
000789: 10,7116           07260                           TC       LVKSAMP
000790:
000791: 10,7117           30637        KSAMP4             XCH      KSAMPTEM                              #  NO COMPUTER COMMAND.
000792: 10,7120           30727                           XCH      WASKSET                               #  CURRENT STATUS TO WASKSET
000793: 10,7121           50637                           TS       KSAMPTEM                              #  (FOR EVENTUAL USE BY MANUAL ZERO TEST).
000794: 10,7122           40000                           CS       A
000795: 10,7123           60727                           AD       WASKSET
000796: 10,7124           10000                           CCS      A
000797: 10,7125           07211                           TC       KSAMP2B                               #  SEE IF TRNSW JUST ON AND IS ONLY CHANGE.
000798: 10,7126           37776        20MSRUPT           OCT      37776                                 #  UNUSED CCS BRANCH - USED TO CAUSE 0 OUT0
000799: 10,7127           07131                           TC       KSAMP2
000800: 10,7130           02262                           TC       ENDKSAMP                              #  EXIT ON NO CHANGE IN MODE.
000801:
000802: 10,7131           34511        KSAMP2             CAF      BIT6                                  #  CHANGE IN MODE
000803: 10,7132           70727                           MASK     WASKSET
000804: 10,7133           10000                           CCS      A                                     #  IS TRNSW ON MANUAL
000805: 10,7134           07217                           TC       TRNSWON                               #  SEE IF START-UP OR PILOTS BUTTON ON.
000806:
000807: 10,7135           40727                           CS       WASKSET                               #  TEST FOR START UP SEQUENCE
000808: 10,7136           77336                           MASK     FINE+CRS                              #  START-UP=FINE AND COARSE IN MANUAL.
000809: 10,7137           10000                           CCS      A
000810: 10,7140           07145                           TC       MANZTEST
000811:                                                                                                  # # Page 181
000812:
000813: 10,7141           36762        SETCOARS           CAF      OFFMASK
000814: 10,7142           70723                           MASK     DSPTAB     +11D
000815: 10,7143           64656                           AD       OCT40002
000816: 10,7144           07206                           TC       SETC       +3
000817:
000818: 10,7145           40637        MANZTEST           CS       KSAMPTEM                              #  SEE IF MANUAL ZERO SWITCH JUST ON.
000819: 10,7146           74516                           MASK     BIT1
000820: 10,7147           70727                           MASK     WASKSET
000821: 10,7150           10000                           CCS      A
000822: 10,7151           07337                           TC       MANCDU                                #  MANUAL IMU CDU ZERO JUST REQUESTED.
000823:
000824: 10,7152           40637                           CS       KSAMPTEM                              #  IF PREVIOUS MODE WAS COARSE ALIGN,
000825: 10,7153           74515                           MASK     BIT2                                  #  DISABLE IMU FAIL FOR THE NEXT 8 SECS.
000826: 10,7154           10000                           CCS      A
000827: 10,7155           07165                           TC       PRERECON
000828:
000829: 10,7156           44513                           CS       BIT4
000830: 10,7157           70726                           MASK     OLDERR
000831: 10,7160           64513                           AD       BIT4
000832: 10,7161           50726                           TS       OLDERR
000833:
000834: 10,7162           34505                           CAF      BIT10
000835: 10,7163           02173                           TC       WAITLIST
000836: 10,7164           30201                           CADR     IFAILOK
000837:
000838: 10,7165           36762        PRERECON           CAF      OFFMASK                               #  MANUAL MODE CHANGE.
000839: 10,7166           70723                           MASK     DSPTAB     +11D                       #  SO THE C-RELAYS MUST BE UPDATED.
000840: 10,7167           64500                           AD       BIT15                                 #  ALL ARE TURNED OFF AND THE RIGHT ONES
000841: 10,7170           50723                           TS       DSPTAB     +11D                       #  ARE TURNED ON BY SCANNING IN3.
000842:
000843: 10,7171           40727                           CS       WASKSET                               #  UPDATE C-RELAYS SO THEY AGREE WITH THE
000844: 10,7172           50034                           TS       OVCTR                                 #  CURRENT MODE. THE SCAN IS FROM LEFT TO
000845: 10,7173           34475                           CAF      SIX                                   #  RIGHT SO THE PILOTS BUTTON WORKS OK.
000846:
000847: 10,7174           50637        RECONCIL           TS       KSAMPTEM
000848: 10,7175           30034                           XCH      OVCTR                                 #  NEXT BIT INTO POSITION.
000849: 10,7176           60000        -BIT14+1           DOUBLE
000850: 10,7177           50034                           TS       OVCTR
000851: 10,7200           74507                           MASK     BIT8
000852: 10,7201           10000                           CCS      A
000853: 10,7202           07243                           TC       RECONLUP                              #  LOOP TO EXAMINE NEXT BIT.
000854:
000855: 10,7203           20637        SETC               INDEX    KSAMPTEM
000856: 10,7204           37456                           CAF      MODECHNG                              #  NEW IMU C-RELAY SETTINGS.
000857: 10,7205           60723                           AD       DSPTAB     +11D
000858: 10,7206           50723                 +3        TS       DSPTAB     +11D
000859: 10,7207           02743                           TC       SETZLIT                               #  UPDATE THE ZERO ENCODER LAMP.
000860: 10,7210           02262                           TC       ENDKSAMP
000861:
000862: 10,7211           67214        KSAMP2B            AD       LOW5BAR                               #  NO ERROR IF TRNSW JUST ON IS ONLY CHANGE
000863:                                                                                                  # # Page 182
000864: 10,7212           10000                           CCS      A
000865: 10,7213           07131                           TC       KSAMP2
000866: 10,7214           77740        LOW5BAR            OCT      -37
000867: 10,7215           07131                           TC       KSAMP2
000868: 10,7216           02262                           TC       ENDKSAMP                              #  ORIGINAL DIFFERENCE WAS JUST BIT 6.
000869:
000870: 10,7217           37335        TRNSWON            CAF      OCT14                                 #  THE PILOTS BUTTON HAS CHANGED IF THERE
000871: 10,7220           70727                           MASK     WASKSET                               #  HAS BEEN A CHANGE IN THE FINE ALIGN OR
000872: 10,7221           60637                           AD       KSAMPTEM                              #  LOCK CDU BITS WITH THE SYSTEM IN ATTI-
000873: 10,7222           77335                           MASK     OCT14                                 #  TUDE CONTROL AS WELL.
000874: 10,7223           10000                           CCS      A
000875: 10,7224           07226                           TC       +2
000876: 10,7225           07233                           TC       STARTCHK                              #  NO - SEE IF SYSTEM CYCLING UP.
000877:
000878: 10,7226           34512                           CAF      BIT5                                  #  OK SO FAR ON PILOTS BUTTON. SEE IF
000879: 10,7227           70727                           MASK     WASKSET                               #  SYSTEM WAS AND IS IN ATTITUDE CONTROL.
000880: 10,7230           70637                           MASK     KSAMPTEM
000881: 10,7231           10000                           CCS      A
000882: 10,7232           02262                           TC       ENDKSAMP                              #  YES - LEAVE THE C-RELAYS IN ATTITUDE C.
000883:
000884: 10,7233           40637        STARTCHK           CS       KSAMPTEM                              #  SEE IF COARSE-ALIGN JUST ON. IF SO,
000885: 10,7234           74515                           MASK     BIT2                                  #  IF SO, THE SYSTEM IS CYCLING UP SO SET
000886: 10,7235           70727                           MASK     WASKSET                               #  THE C-RELAYS FOR COARSE ALIGN.
000887: 10,7236           10000                           CCS      A
000888: 10,7237           07141                           TC       SETCOARS                              #  USUAL RECONCILING WOULDNT WORK HERE.
000889:
000890: 10,7240           03007        MODALARM           TC       ALARM                                 #  UN-CALLED-FOR MODE CHANGE WITH COMPUTER
000891: 10,7241           00204                           OCT      00204                                 #  DOING MODE SWITCHING.
000892: 10,7242           02262                           TC       ENDKSAMP
000893:
000894: 10,7243           10637        RECONLUP           CCS      KSAMPTEM
000895: 10,7244           07174                           TC       RECONCIL
000896:
000897: 10,7245           03007                           TC       ALARM                                 #  NO IMU MODE INDICATOR BITS GIVEN.
000898: 10,7246           00203                           OCT      00203
000899: 10,7247           02262                           TC       ENDKSAMP
000900:
000901:
000902:
000903: 10,7250           40731        KSAMP1             CS       DESKSET                               #  IS PRESENT MODE = COMMANDED
000904: 10,7251           60637                           AD       KSAMPTEM
000905: 10,7252           10000                           CCS      A
000906: 10,7253           07263                           TC       KSAMP1A
000907: 10,7254           37775        OCT37775           OCT      37775                                 #  UNUSED CCS BRANCH - USED TO SET TRKR-ON.
000908: 10,7255           07263                           TC       KSAMP1A
000909:
000910: 10,7256           10726                           CCS      OLDERR                                #  TURN OFF THE PILOTS BUTTON BIT IF ON.
000911: 10,7257           07331                           TC       PIBUTOFF
000912:
000913: 10,7260           30637        LVKSAMP            XCH      KSAMPTEM                              #  YES
000914:                                                                                                  # # Page 183
000915: 10,7261           50727                           TS       WASKSET
000916: 10,7262           02262                           TC       ENDKSAMP
000917:
000918: 10,7263           34516        KSAMP1A            CAF      BIT1                                  #  IS COMPUTER TRYING TO ZERO CDU AND
000919: 10,7264           70731                           MASK     DESKSET                               #  GETTING COARSE ALIGN.
000920: 10,7265           60000                           DOUBLE
000921: 10,7266           70637                           MASK     KSAMPTEM
000922: 10,7267           10000                           CCS      A
000923: 10,7270           07322                           TC       IMUSTART                              #  YES.
000924:
000925: 10,7271           37315                           CAF      OCT60                                 #  SEE IF PILOTS BUTTON IS ON.
000926: 10,7272           70731                           MASK     DESKSET                               #  CHECK THAT TRNSW ON AND ATTITUDE CONTROL
000927: 10,7273           70637                           MASK     KSAMPTEM                              #  ARE DESIRED AND ACTUAL AND THAT EITHER
000928: 10,7274           40000                           COM                                            #  FINE ALIGN (FOLLOW) OR LOCK CDU (HOLD)
000929: 10,7275           77315                           MASK     OCT60                                 #  ARE PRESENT IN ADDITION. IF SO, SET BIT
000930: 10,7276           10000                           CCS      A                                     #  1 OD OLDERR TO INDICATE THIS CONDITION.
000931: 10,7277           07312                           TC       KSAMP2A                               #  MISSION PROGRAMS WILL DETECT THIS CON-
000932: 10,7300           37335                           CAF      OCT14                                 #  DIRION WHEN THEY TEST OLDERR AS THEY DO
000933: 10,7301           70637                           MASK     KSAMPTEM                              #  PERIODICALLY.
000934: 10,7302           10000                           CCS      A
000935: 10,7303           07305                           TC       +2
000936: 10,7304           07312                           TC       KSAMP2A
000937:
000938: 10,7305           44516                           CS       ONE
000939: 10,7306           70726                           MASK     OLDERR
000940: 10,7307           64516                           AD       ONE
000941: 10,7310           50726                           TS       OLDERR
000942: 10,7311           07260                           TC       LVKSAMP
000943:
000944: 10,7312           10727        KSAMP2A            CCS      WASKSET                               #  CHECK ON PREVIOUS ACTIVITIES
000945: 10,7313           07317                           TC       KSAMP3A                               #   NORMAL OPERATION
000946: 10,7314           07317                           TC       KSAMP3A                               #  WAITING
000947: 10,7315           00060        OCT60              OCT      60
000948: 10,7316           02262                           TC       ENDKSAMP                              #  SYSTEM FAILURE
000949:
000950: 10,7317           10723        KSAMP3A            CCS      DSPTAB     +11D                       #  SEE IF BANK IS TO BE CHANGED.
000951: 10,7320           07324                           TC       SYSFAIL                               #  NO - SYSTEM FAILURE.
000952: 10,7321           07324                           TC       SYSFAIL
000953:
000954: 10,7322           35501        IMUSTART           CAF      WAITFLAG                              #  SET WAITING FLAG AND EXIT.
000955: 10,7323           07261                           TC       LVKSAMP    +1
000956:
000957: 10,7324           45501        SYSFAIL            CS       ZERO                                  #  IMU SYSTEM FAILURE.
000958: 10,7325           50727                           TS       WASKSET
000959: 10,7326           03007                           TC       ALARM                                 #  CALL ALARM SUBROUTINE FOR DISPLAY.
000960: 10,7327           00202                           OCT      00202
000961: 10,7330           02262                           TC       ENDKSAMP
000962:
000963: 10,7331           44516        PIBUTOFF           CS       ONE
000964: 10,7332           70726                           MASK     OLDERR                                #  BIT 1 OF OLDERR IS 1 IF THE PILOTS
000965:                                                                                                  # # Page 184
000966: 10,7333           50726                           TS       OLDERR                                #  BUTTON IS ON WHILE THE COMPUTERS
000967: 10,7334           07260                           TC       LVKSAMP                               #  COMMANDING.
000968:
000969: 10,7335           00014        OCT14              OCT      14
000970: 10,7336           00012        FINE+CRS           OCT      12
000971: 10,7337     5501               WAITFLAG           EQUALS   ZERO
000972:
000973: 10,7337     2262               ENDKSAMP           EQUALS   LVDSRUPT
000974:
000975:                                                                                                  # # Page 185
000976:
000977:                                                                                                  #        MANUAL CDU-ZERO PROGRAMS FOR IMU AND OPTICS CDUS.
000978:
000979: 10,7337           45503        MANCDU             CS       TWO                                   #  INITIATE MANUAL CDU ZERO MONITOR.
000980: 10,7340           50731                           TS       DESKSET                               #  (C-RELAYS WILL BE SET BY RECONCIL).
000981: 10,7341           37501                           CAF      35SCNDS
000982: 10,7342           02173                           TC       WAITLIST
000983: 10,7343           21350                           CADR     MANIZD
000984:
000985: 10,7344           36762                           CAF      OFFMASK                               #  USUAL RECONCILING WOULDNT WORK HERE
000986: 10,7345           70723                           MASK     DSPTAB     +11D                       #  SINCE THE SCAN IS FROM LEFT TO RIGHT.
000987: 10,7346           67456                           AD       MODECHNG
000988: 10,7347           07206                           TC       SETC       +3
000989:
000990:                                                                                                  #        WAITLIST TASK TO COMPLETE MANUAL ZERO. TURNS OFF LIGHT TO INDICCATE COMPLETION.
000991:
000992: 10,7350           02731        MANIZD             TC       ZEROICTR                              #  ZERO COUNTERS.
000993: 10,7351           10731                           CCS      DESKSET                               #  SET DESKSET TO +0 TO RESUME MANUAL
000994: 10,7352           07356                           TC       +4                                    #  MODE MONITORING UNLESS THE SYSTEM WAS
000995: 10,7353           07356                           TC       +3                                    #  PLACED UNDER COMPUTER CONTROL BY ANOTHER
000996: 10,7354           35501                           CAF      ZERO                                  #  PROGRAM DURING THE 35 SEC. WAIT.
000997: 10,7355           50731                           TS       DESKSET
000998: 10,7356           02743                           TC       SETZLIT                               #  TURN OFF LIGHT IF APPROPRIATE.
000999: 10,7357           02256                           TC       TASKOVER
001000:
001001:                                                                                                  # # Page 186
001002:
001003:                                                                                                  #        MANUAL OPTICS ZEROING PROCEDURES.
001004: 10,7360           37502        MANOPTZ            CAF      60SCNDS                               #  MANUAL OPTICS ZEROING ROUTINE.
001005: 10,7361           02173                           TC       WAITLIST                              #  CALL WAITLIST FOR 30 SEC. WAIT
001006: 10,7362           21372                           CADR     MANOZD
001007: 10,7363           45503                           CS       TWO                                   #  SET ZEROING FLAG IN DESOPSET.
001008: 10,7364           50732                           TS       DESOPSET
001009: 10,7365           44664                           CS       CSQ                                   #  RECONCILE ZERO OPTICS C RELAY
001010: 10,7366           70724                           MASK     DSPTAB     +12D
001011: 10,7367           64664                           AD       CSQ
001012: 10,7370           50724                           TS       DSPTAB     +12D
001013: 10,7371           07057                           TC       RECONTRK
001014:
001015:                                                                                                  #        WAITLIST TASK TO COMPLETE MANUAL OPTICS ZERO.
001016:
001017: 10,7372           35501        MANOZD             CAF      ZERO
001018: 10,7373           50732                           TS       DESOPSET                              #  LEAVE MANUAL ZERO MONITOR
001019: 10,7374           02671                           TC       ZEROOCTR   +1                         #  SET OPTICS COUNTERS.
001020: 10,7375           02743                           TC       SETZLIT                               #  TURN OFF LIGHT (POSSIBLY) AS SIGNAL.
001021: 10,7376           02256                           TC       TASKOVER
001022:
001023:                                                                                                  # # Page 187
001024:
001025:                                                                                                  #        PROCEDURE TO TURN OFF AN OUTCR WHOSE RESET PULSE WAS INITIATED DURING THE FIRST OF TWO  XCH OUT2  IN-
001026:
001027:                                                                                                  #  STRUCTIONS USED IN UPDATING THE CONTENTS OF OUT2. THE OCCURRENCE OF THIS IS EXTREMELY RARE.
001028:
001029: 10,7377           74511        JACKPOT            MASK     BIT6                                  #  SEE WHICH FIELD TURNED OFF UNEXPECTEDLY.
001030: 10,7400           10000                           CCS      A
001031: 10,7401           37406                           CAF      OCT00767                              #  IMU - MAKE UP MASK  OCT 00377  .
001032: 10,7402           67407                           AD       OCT77407                              #  OPTICS - MAKE UP MASK  OCT 77407  .
001033: 10,7403           70012                           MASK     OUT2                                  #  THE PROBLEM WILL NOT RECUR HERE SINCE
001034: 10,7404           50012                           TS       OUT2                                  #  THIS IS WITHIN 26 MCT OF THE LAST PULSE.
001035: 10,7405           00001                           TC       Q
001036:
001037: 10,7406           00767        OCT00767           OCT      00767
001038: 10,7407           77407        OCT77407           OCT      77407
001039:
001040:                                                                                                  # # Page 188
001041:
001042:                                                                                                  #        THE FOLLOWING PROGRAM TAKES A 2S COMPLEMENT DIFFERENCE BETWEEN THE ACTUAL CDU COUNTER AND THE DESIRED
001043:                                                                                                  #  SETTING. THE AGC AD INSTRUCTION BY ITSELF CANNOT BE USED SINCE +0 = -0 THERE. TO COMPENSATE, IF THE SIGNS OF
001044:                                                                                                  #  THE OPERANDS ARE DIFFERENT AND THE ROTATION NECESSARY TO NULL OUT THE ERROR PASSES THROUGH ZERO (NO OVERFLOW
001045:                                                                                                  #  OCCURS IN DIFFERENCING THE DESIRED AND ACTUAL), A ONE WITH THE SIGN OF THE DESIRED ANGLE IS ADDEDTO THE DIFFER-
001046:                                                                                                  #  ENCE.
001047:
001048: 10,7410           50577        2SCOMDIF           TS       ITEMP1                                #  NEGATIVE OF CDU COUNTER ARRIVES IN A.
001049: 10,7411           30001                           XCH      Q
001050: 10,7412           50574                           TS       ITEMP3
001051: 10,7413           40600                           CS       ITEMP2                                #  C(ITEMP2) = -THE APPROPRIATE DES. ANGLE.
001052: 10,7414           60577                           AD       ITEMP1
001053: 10,7415           50034                           TS       OVCTR
001054: 10,7416           07423                           TC       2SCOM2                                #  IF NO OVERFLOW, SEE IF +-1 MUST BE ADDED
001055:
001056: 10,7417           20000        UNCOROVF           INDEX    A                                     #  IF OVERFLOW, SIMPLY DO OVERFLOW UNCOR-
001057: 10,7420           34477                           CAF      LIMITS                                #  RECTION AND EXIT.
001058: 10,7421           60034                           AD       OVCTR
001059: 10,7422           00574                           TC       ITEMP3
001060:
001061: 10,7423           10577        2SCOM2             CCS      ITEMP1                                #  NO OVERFLOW - SEE IF SIGNS OF INPUTS ARE
001062: 10,7424           07435                           TC       EXAM2                                 #  DIFFERENT.
001063: 10,7425           07435                           TC       EXAM2
001064: 10,7426           07427                           TC       +1
001065: 10,7427           10600                           CCS      ITEMP2
001066: 10,7430           07443                           TC       INCEX-                                #  ADD -1 AND EXIT HERE.
001067: 10,7431           07443                           TC       INCEX-
001068: 10,7432           07433                           TC       +1
001069:
001070: 10,7433           30034        DIFEX              XCH      OVCTR                                 #  ORIGINAL DIFFERENCE IS OK IF SIGNS SAME.
001071: 10,7434           00574                           TC       ITEMP3
001072:
001073: 10,7435           10600        EXAM2              CCS      ITEMP2
001074: 10,7436           07433                           TC       DIFEX                                 #  SIGNS SAME HERE.
001075: 10,7437           07433                           TC       DIFEX
001076: 10,7440           07441                           TC       +1                                    #  ADD +1 TO DIFFERENCE HERE.
001077:
001078: 10,7441           34516                           CAF      ONE
001079: 10,7442           07444                           TC       +2
001080: 10,7443           44516        INCEX-             CS       ONE
001081: 10,7444           60034                           AD       OVCTR
001082: 10,7445           50034                           TS       OVCTR
001083: 10,7446           00574                           TC       ITEMP3                                #  NORMAL TRAIN OF EVENTS.
001084: 10,7447           07417                           TC       UNCOROVF                              #  THIS ONLY HAPPENS AT 180 DEGREES.
001085:
001086:                                                                                                  # # Page 189
001087:
001088:                                                                                                  #        OUTCTR SETTINGS FOR OUT2, AND C-RELAY SETTING CONSTANTS FOR IMU MODES.
001089:
001090: 10,7450           50400        CDUCODES           OCT      50400                                 #  -Z CDU
001091: 10,7451           51000                           OCT      51000                                 #  -Y CDU
001092: 10,7452           52000                           OCT      52000                                 #  -X CDU
001093: 10,7453           32000                           OCT      32000                                 #  +X CDU
001094: 10,7454           31000                           OCT      31000                                 #  +Y CDU
001095: 10,7455           30400                           OCT      30400                                 #  +Z CDU
001096:
001097: 10,7456           40011        MODECHNG           OCT      40011                                 #  (THIS CONSTANT IS NEVER USED BY RECONCIL
001098: 10,7457           00002                           OCT      00002                                 #   BUT ONLY BY THE MANUAL ZEROING PROG.)
001099: 10,7460           00004                           OCT      00004
001100: 10,7461           00010                           OCT      00010
001101: 10,7462           01000                           OCT      01000
001102: 10,7463           00000                           OCT      00000                                 #  (TRANSFER SWITCH - NOT USED).
001103: 10,7464           02000                           OCT      02000
001104:
001105:                                                                                                  #        ZERO-ENCODER LIGHT NOT COVERED HERE.
001106:
001107: 10,7465           00377        LOW8               OCT      377
001108: 10,7466  10,7465               OUT2MASK           EQUALS   LOW8
001109: 10,7466           77407        OPTMASK            OCT      77407                                 #  COMPLEMENT OF OUTCR2 ACTIVITY BITS.
001110:
001111: 10,7467           44400                           OCT      44400                                 #  -Z GYRO
001112: 10,7470           45000                           OCT      45000                                 #  -Y GYRO
001113: 10,7471           46000                           OCT      46000                                 #  -X GYRO.
001114:
001115: 10,7472           00220        OPTCODES           OCT      00220                                 #  -Y OPTICS CDU.
001116: 10,7473           00240                           OCT      00240                                 #  -X OPTICS CDU.
001117: 10,7474           00140                           OCT      00140                                 #  +X OPTICS CDU.
001118: 10,7475           00120                           OCT      00120                                 #  +Y OPTICS CDU.
001119:
001120: 10,7476           26000                           OCT      26000                                 #  +X GYRO
001121: 10,7477           25000                           OCT      25000                                 #  +Y GYRO
001122: 10,7500           24400                           OCT      24400                                 #  +Z GYRO.
001123:
001124: 10,7501           06654        35SCNDS            DEC      35.        E2                         #  FOR MANUAL IMUCDU ZEROING.
001125: 10,7502           13560        60SCNDS            DEC      60.        E2                         #  FOR MANUAL OPTICS ZEROING.
001126: 10,7503           06022        NWMASK             OCT      06022                                 #  IMU, PIPA, RESTART FAIL AND CURTAINS.
001127: 10,7504     2261               HI5                EQUALS   BANKMASK

End of include-file T4RUPT_OUTPUT_CONTROL_PROGRAMS.agc.  Parent file is MAIN.agc


