
Source Code


000002:                                                                                                  #  Copyright:    Public domain.
000003:                                                                                                  #  Filename:     TIME_OF_FREE-FALL_CALCULATIONS.agc
000004:                                                                                                  #  Purpose:      Part of the source code for Solarium build 55. This
000005:                                                                                                  #                is for the Command Module's (CM) Apollo Guidance
000006:                                                                                                  #                Computer (AGC), for Apollo 6.
000007:                                                                                                  #  Assembler:    yaYUL --block1
000008:                                                                                                  #  Contact:      Jim Lawton <jim DOT lawton AT gmail DOT com>
000009:                                                                                                  #  Website:      www.ibiblio.org/apollo/index.html
000010:                                                                                                  #  Page scans:   www.ibiblio.org/apollo/ScansForConversion/Solarium055/
000011:                                                                                                  #  Mod history:  2009-10-04 JL   Created.
000012:                                                                                                  #                2016-08-20 RSB  Typos.
000013:
000014:                                                                                                  # # Page 682


000016:
000017:                                                                                                  # # Page 683
000018:
000019:                                                                                                  #  CONIC TIME OF FLIGHT CALCULATION.   PROGRAM CALCULATES THE FREE-FALL TIME OF FLIGHT FROM PRESENT POSITION RN
000020:                                                                                                  #  AND VELOCITY VN TO A RADIUS SPECIFIED BY RTERM, CORRESPONDING TO 280K OR400K FEET ALTITUDE.
000021:                                                                                                  #  THE POSITION  RN MAY BE ON EITHER SIDE OF THE ELLIPSE, BUT  RTERM  IS   CONSIDERED ON THE INBOUND SIDE.
000022:
000023:                                                                                                  #  THE EQUATION IS       TFF = ( DEL E - (Q2-Q1) ) / (ALFA SQRT( ALFA MUE) )
000024:
000025:                                                                                                  #  AND                   Q2 = -SQRT( RTERM ALFA (2-RTERM ALFA) -LCP ALFA )       (INBOUND SIDE)          LEQ +/-  LCE
000026:                                                                                                  #                             -  -
000027:                                                                                                  #                        Q1 = RN.VN  SQRT(ALFA/MUE)                                                      LEQ +/-  LCE
000028:
000029:                                                                                                  #  PROGRAM REQUIREMENTS ON ENTERING.
000030:                                                                                                  #        1.  PUSHDOWN LIST IS ZEROED.
000031:                                                                                                  #        2.  INPUTS: POSITION  RN 2(-24) M,  VELOCITY  VN  2(-7)  M/CS
000032:
000033:                                                                                                  #  THE PROGRAM EXITS WITH ONE OF THE FOLLOWING IN TFF.
000034:                                                                                                  #                        A. TFF = FLIGHT TIME.  NORMAL CASE FOR POSITIVE FLIGHT  TIME LESS THAN ONE ORBITAL PERIOD.
000035:                                                                                                  #                        B. TFF=+0.  THIS INDICATES THAT THE TRAJECTORY HAS GONE PAST RTERM AND THE PRESENT ALTITUDE IS
000036:                                                                                                  #                           LESS THAN THE SPECIFIED TERMINAL ALTITUDE.
000037:                                                                                                  #                        C. TFF = POSMAX.  THIS INDICATES THAT THE ELLIPTICAL CONIC FROM THE PRESENT POSITION WILL NOT
000038:                                                                                                  #                           RETURN TO THE SPECIFIED ALTITUDE.
000039:                                                                                                  #  THE FOLLOWING QUANTITIES REMAIN IN THE PUSHLIST
000040:                                                                                                  #        ALFA                    2(+21) IN PDL 10D
000041:                                                                                                  #        (2-RTERM ALFA)          2(-3)  IN PDL 6
000042:                                                                                                  #        RTERM ALFA              2(-3)  IN PDL 4
000043:                                                                                                  #        LCP ALFA                2(-6)  IN PDL 2
000044:
000045:                                                                                                  #  THUS THE CALLING PROGRAM CAN CALCULATE TERMINAL VELOCITY, VTERM, AND COS GAMMA USING RESIDUE FROM
000046:                                                                                                  #  CALCTFF.
000047:
000048:                                                                                                  #             2
000049:                                                                                                  #        VTERM  (RTERM/MUE) = (2-RTERM ALFA)
000050:
000051:                                                                                                  #           2
000052:                                                                                                  #        SIN GAMMA = 1 - (LCP ALFA / RTERM ALFA(2-RTERM ALFA)  )
000053:
000054:                                                                                                  #           2
000055:                                                                                                  #        COS GAMMA = LCP ALFA /(RTERM ALFA (2-RTERM ALFA)  )
000056:
000057:                                                                                                  #  QUANTITIES ARE NORMALIZED BY LCE TO OBTAIN BEST ACCURACY IN COMPUTING, ESPACIALLY FOR SPARCTAN.  PROGRAM
000058:                                                                                                  #  ACCEPTS LCE  LEQ 1.0.  THE SMALLEST LCE WHICH IS  NORMALIZED IS 2(-4),  ALTHOUGH THIS MAY BE EXTENDED IF
000059:                                                                                                  #  DESIRED.  (LCE  L  2(-3) ALL HAVE SAME SCALING)
000060:
000061:                                                                                                  # # Page 684
000062:
000063:                                                                                                  #  TEMPORARY ERASABLE ASSIGNMENTS FOR TFF COMPUTATIONS                   PUSHLIST 00 - 19D, X1
000064:
000065: ???????                        RTERM              =        14D
000066:
000067: 31,6000                                           BANK     31
000068: 31,6000           77576        CALCTFF            EXIT     0
000069:
000070: 31,6001           11723                           CCS      REFSWTCH                              #  SEE IF GROUND DESIRES 280K FF REFERENCE
000071: 31,6002           06006                           TC       +4                                    #  NO
000072: 31,6003           06006                           TC       +3
000073: 31,6004           35501                           CAF      ZERO
000074: 31,6005           06012                           TC       +5
000075:
000076: 31,6006           36320                           CAF      NOMBURN                               #  TEST IF ANY NOMINAL BURN (SPS1,SPS2,)
000077: 31,6007           70647                           MASK     FLAGWRD2                              #  SPS3, SPS4, ARRST FLAG SET
000078: 31,6010           10000                           CCS      A
000079: 31,6011           45503                           CS       TWO
000080: 31,6012           20067                           INDEX    FIXLOC                                #  X1=-2 FOR 400K FT. AND 0 FOR 280K FT.
000081: 31,6013           50046                           TS       X1
000082: 31,6014           04000                           TC       INTPRET
000083: 31,6015           44175                           DMOVE*   1
000084: 31,6016           76576                           RTB
000085: 31,6017           33607                                    R280K,1
000086: 31,6020           20265                                    FRESHPD
000087: 31,6021           32017                           STORE    RTERM                                 #   2(-24)
000088:
000089: 31,6022           67174                           VSQ      2
000090: 31,6023           64722                           DMP      DMP
000091: 31,6024           63726                           TSLT     BDSU
000092: 31,6025           00774                                    VN                                    #  VEL  2 (-7)
000093: 31,6026           22307                                    1/MUE                                 #  2 (+35)
000094: 31,6027           01024                                    RMAG                                  #  2(-25)
000095: 31,6030           00002                                    1
000096: 31,6031           06304                                    DP1/4                                 #  RMAG ALFA   2 (-3)            TO PDL 0,1
000097:
000098: 31,6032           47575                           NOLOD    1
000099: 31,6033           56712                           TSRT     DDV
000100: 31,6034           00002                                    1
000101: 31,6035           01024                                    RMAG
000102: 31,6036           32013                           STORE    10D
000103:
000104: 31,6037           47575                           NOLOD    1
000105: 31,6040           73776                           BMN
000106: 31,6041           22465                                    HIECC
000107:
000108: 31,6042           64774                           DMP      2
000109: 31,6043           53122                           SQRT     DMP
000110: 31,6044           57706                           TSLC     BDDV
000111: 31,6045           00013                                    10D                                   #  ALFA  2(+21)
000112: 31,6046           22311                                    MUE(37)
000113:                                                                                                  # # Page 685
000114: 31,6047           00013                                    10D                                   #  ALFA
000115: 31,6050           00024                                    19D                                   #  -N. SAVE FOR GETTFF1
000116: 31,6051           22313                                    DP2PI/16
000117: 31,6052           32015                           STORE    12D                                   #  ORB PERIOD  2PI/ALFA SQRT(ALFA MUE)
000118:                                                                                                  #  2(-17-N)
000119: 31,6053           41773                           VXV      3
000120: 31,6054           44733                           VSLT     VSQ
000121: 31,6055           64722                           DMP      DMP
000122: 31,6056           76576                           RTB
000123: 31,6057           00766                                    RN
000124: 31,6060           00774                                    VN                                    #  MTRS/CS   2(-7)
000125: 31,6061           00002                                    1
000126: 31,6062           22307                                    1/MUE                                 #  2(+35)
000127: 31,6063           00013                                    10D                                   #  ALFA  2(+21)
000128: 31,6064           22255                                    NORMBYE                               #  GET NORM COUNT BASED ON LCE SQ.
000129:                                                                                                  #  LCP ALFA  2(-6)               TO PDL 2,3
000130:
000131: 31,6065           47575                           NOLOD    1
000132: 31,6066           66616                           DSU      BPL
000133: 31,6067           15710                                    DP.36
000134: 31,6070           22077                                    LOECC
000135:
000136: 31,6071           66775                           DSU      1
000137: 31,6072           73776                           BMN
000138: 31,6073           00013                                    10D
000139: 31,6074           22322                                    ALFALIM
000140: 31,6075           22465                                    HIECC
000141:
000142: 31,6076           64776        LOECC              DMP      0
000143: 31,6077           00017                                    RTERM                                 #  2(-24)
000144: 31,6100           00013                                    10D                                   #  ALFA  2(+21)
000145:                                                                                                  #  RTERM ALFA  2(-3)             TO PDL 4,5
000146:
000147: 31,6101           66776                           DSU      0
000148: 31,6102           06304                                    DP1/4
000149: 31,6103           00005                                    4                                     #  RTERM ALFA  2(-3)
000150:                                                                                                  #  (2-RTERM ALFA)  2(-3)         TO PDL 6,7
000151:
000152: 31,6104           64775                           DMP      1
000153: 31,6105           53176                           SQRT
000154: 31,6106           00013                                    10D                                   #  ALFA  2(+21)
000155: 31,6107           22307                                    1/MUE                                 #  2(+35)                        TO PDL 8,9
000156:
000157: 31,6110           42774                           DOT      2
000158: 31,6111           63722                           TSLT     DMP
000159: 31,6112           76576                           RTB
000160: 31,6113           00766                                    RN
000161: 31,6114           00774                                    VN                                    #  2(-7)
000162: 31,6115           00002                                    1
000163: 31,6116           77777                                    -                                     #  LEAVE Q1  2(-3) IN MPAC
000164:                                                                                                  # # Page 686
000165: 31,6117           22143                                    ARGQ1                                 #  SAVE  MPAC FOR GONE PAST TEST. , NORMLZE
000166: 31,6120           32011                           STORE    8D                                    #  Q1  (OR Q1/2 OR 2Q1 OR 4Q1)
000167:
000168: 31,6121           64774                           DMP      2                                     #   CALCULATE Q2
000169: 31,6122           66771                           DSU      RTB
000170: 31,6123           70776                           DAD
000171: 31,6124           77777                                    -                                     #  (2-RTERM ALFA) 2(-3) FROM PDL 6,7
000172: 31,6125           77777                                    -                                     #  RTERM ALFA 2(-3) FROM PDL 4,5
000173: 31,6126           77777                                    -                                     #  LCP ALFA 2(-3) FROM PDL 2,3
000174: 31,6127           22155                                    ARGQ2                                 #  TEST SGN, TAKE ROOT  (RT DOT NEG)
000175:                                                                                                  #  RETURN -Q2 (OR -Q2/2 OR -2Q2 OR -4Q2)
000176: 31,6130           00011                                    8D                                    #  Q1  (AT SIMILAR SCALE)
000177: 31,6131           32011                           STORE    8D                                    #  Q1-Q2  ( OR /2 OR2 OR4)
000178:                                                                                                  #  LEQ +/- 2LCE  (OR 1 OR 4 OR 8)
000179:
000180: 31,6132           66775                           DSU      1
000181: 31,6133           76522                           RTB      DMP
000182: 31,6134           00007                                    6                                     #  2-RTERM ALFA 2(-3)
000183: 31,6135           77777                                    -                                     #  2-RTERM ALFA-RMAG ALFA  2(-3) IN MPAC
000184: 31,6136           22213                                    GETTFF                                #  C(MPAC) = DEN  2(-3)
000185: 31,6137           00015                                    12D                                   #  ORB PERIOD    2(-17-N)
000186: 31,6140           33457                           STORE    TFF
000187: 31,6141           40576                           ITCQ     0
000188: 31,6142           20067        ARGQ1              INDEX    FIXLOC
000189: 31,6143           20020                           INDEX    16D                                   #  COUNT BY ONES
000190: 31,6144           34513                           CAF      BIT4                                  #  EFFECTIVE SH L 3  ( 2 OR 4 OR 5)
000191: 31,6145           05416                           TC       SHORTMP
000192: 31,6146           30117                           XCH      MPAC       +2                         #  MOVE UP
000193: 31,6147           30116                           XCH      MPAC       +1
000194: 31,6150           50115                           TS       MPAC                                  #  MPAC IS L .5 AS REQD BY TEST LATER.
000195: 31,6151           20067                           INDEX    FIXLOC
000196: 31,6152           50022                           TS       18D                                   #  SAVE FOR GONE PAST TEST.
000197: 31,6153           04024                           TC       DANZIG
000198:
000199: 31,6154           20067        ARGQ2              INDEX    FIXLOC
000200: 31,6155           20021                           INDEX    17D                                   #  SH L BY 2,S
000201: 31,6156           34510                           CAF      BIT7                                  #  DO EFFECTIVE SHL 6    (4 OR 8 OR 10)
000202: 31,6157           05416                           TC       SHORTMP                               #  TP ENTRY , C(MPAC+2) VALID.
000203: 31,6160           35501                           CAF      ZERO
000204: 31,6161           30117                           XCH      MPAC       +2
000205: 31,6162           30116                           XCH      MPAC       +1
000206: 31,6163           50115                           TS       MPAC
000207:
000208: 31,6164           10115                           CCS      MPAC
000209: 31,6165           06177                           TC       Q2ROOT
000210: 31,6166           06170                           TC       +2
000211: 31,6167           06202                           TC       NEGQ2                                 #  NO FREEFALL CONIC TO RTERM FROM HERE.
000212:
000213: 31,6170           10116                           CCS      MPAC       +1                         #  CK LO WORD. IF NEG, ASSUME ROUNDOFF.
000214: 31,6171           06177                           TC       Q2ROOT
000215:                                                                                                  # # Page 687
000216: 31,6172           04024                           TC       DANZIG
000217: 31,6173           35501        NOROOT             CAF      ZERO                                  #  NEG ARG FROM ROUNDOFF. SET =0.
000218: 31,6174           50115                           TS       MPAC
000219: 31,6175           50116                           TS       MPAC       +1
000220: 31,6176           04024                           TC       DANZIG
000221:
000222: 31,6177           05654        Q2ROOT             TC       BANKCALL                              #  GO TAKE DP SQRT
000223: 31,6200           07322                           CADR     SQRT3                                 #  C(MPAC +2) =0
000224: 31,6201           04024                           TC       DANZIG
000225:
000226: 31,6202           34476        NEGQ2              CAF      POSMAX                                #  THIS WILL LEAVE PUSHLOC AT PDL2
000227: 31,6203           51456                           TS       TFF
000228: 31,6204           51457                           TS       TFF        +1
000229: 31,6205           40067                           CS       FIXLOC                                #  BUT RESET IT.
000230: 31,6206           40000                           COM
000231: 31,6207           50123                           TS       PUSHLOC
000232:
000233: 31,6210           04000                           TC       INTPRET
000234:
000235: 31,6211           40576                           ITCQ     0                                     #  AND RETURN TO CALLING PROGRAM.
000236:
000237:                                                                                                  #  ENTER WITH (2-RTERM ALFA-RMAG ALFA) 2(-3) IN MPAC,+1. Q1-Q2 IN PDL 8,9
000238:
000239: 31,6212           20067        GETTFF             INDEX    FIXLOC
000240: 31,6213           20020                           INDEX    16D                                   #  COUNT BY 1,5
000241: 31,6214           34513                           CAF      BIT4                                  #  EFFECTIVE SL 3  (2 OR 4 OR 5 )
000242: 31,6215           05416                           TC       SHORTMP                               #  C(MPAC +1,+2) = DEN    ON RETURN.
000243: 31,6216           20067                           INDEX    FIXLOC                                #  (UNSCALD NUM AND DEN LEQ +/- 2 LCE)
000244: 31,6217           40010                           CS       8D
000245: 31,6220           30116                           XCH      MPAC       +1                         #  SAVE Q2-Q1,  GET DEN
000246: 31,6221           50115                           TS       MPAC                                  #  AND SAVE.
000247: 31,6222           20067                           INDEX    FIXLOC
000248: 31,6223           20020                           INDEX    16D                                   #  COUNT BY 1,5
000249: 31,6224           36316                           CAF      -1/2PI
000250: 31,6225           25777                           EXTEND
000251: 31,6226           40116                           MP       MPAC       +1
000252: 31,6227           50117                           TS       MPAC       +2                         #  -(Q2-Q1) /2PI    SAVED
000253:
000254: 31,6230           06323                           TC       SPARCTAN                              #  NUM=C(MPAC+1),DEN=C(MPAC)
000255:                                                                                                  #  RETURN WITH DEL ECC. ANOM/2PI IN A
000256:                                                                                                  #  RANGE (0,1)
000257: 31,6231           60117                           AD       MPAC       +2
000258: 31,6232           30115                           XCH      MPAC                                  #  TFF NORM=(DEL E:(Q2:Q1))/2PI
000259:                                                                                                  #  FOLLOWING TEST VALID WHEN SPTEM3 L .5
000260: 31,6233           20067                           INDEX    FIXLOC
000261: 31,6234           30022                           XCH      18D                                   #  IF BOTH SGN Q1 AND SGN ATAN ARE
000262: 31,6235           66237                           AD       +2                                    #  NEG, THEN SET TFF, +1  =+0.  (-3/4+1 )
000263: 31,6236           60072                           AD       SGNATAN                               #  LEFT BY SPARCTAN
000264: 31,6237           50000                           TS       A                                     #  (=50K =-3/4 +1 FOR OVFL TEST)
000265: 31,6240           06243                           TC       GETTFF3                               #  OK, GO ON
000266:                                                                                                  # # Page 688
000267: 31,6241           35501                           CAF      ZERO
000268: 31,6242           06203                           TC       NEGQ2      +1                         #  GONE PAST. SET TFF=0.
000269:
000270: 31,6243           20067        GETTFF3            INDEX    FIXLOC
000271: 31,6244           20023                           INDEX    19D                                   #  -N.  BIT4 BELOW VALID FOR N LEQ 10D.
000272: 31,6245           34513                           CAF      BIT4                                  #  SCALE FACTOR,  2(-11+N)
000273: 31,6246           25777                           EXTEND
000274: 31,6247           40115                           MP       MPAC
000275: 31,6250           50115                           TS       MPAC
000276: 31,6251           30003                           XCH      LP
000277: 31,6252           50116                           TS       MPAC       +1                         #  NOW READY TO MULT BY ORB PERIOD
000278: 31,6253           04024                           TC       DANZIG
000279:
000280:                                                                                                  #  TO IMPROVE PRECISION OF SPARCTAN AT SMALLER LCE, COME HERE TO GET NORMALIZATION FACTOR
000281:                                                                                                  #  BASED ON SIZE OF LCE SQ.  SHIFT BY 2,S. SCALING RESULTING FROM BELOW YIELDS AT LEAST ONE LEAD ZERO IN
000282:                                                                                                  #  NUM AND DEN USED IN SPARCTAN.
000283:
000284: 31,6254           36303        NORMBYE            CAF      OCT37440                              #  BRACKET SIZE BY OVFL TESTS
000285: 31,6255           60115                           AD       MPAC                                  #  C(MPAC) = (1-LCE SQ)  2(-6)
000286: 31,6256           50000                           TS       A
000287: 31,6257           06275                           TC       ENORM0                                #  HERE IF LCE GEQ 2(-1)
000288: 31,6260           66304                           AD       OCTNEG30                              #  (EFFECTIVE CONST  37410)
000289: 31,6261           50000                           TS       A
000290: 31,6262           06277                           TC       ENORM1                                #  HERE IF LCE GEQ 2(-2)
000291: 31,6263           66305                           AD       OCTNEG6                               #  (EFFECTIVE CONST  37402)
000292: 31,6264           50000                           TS       A
000293: 31,6265           06301                           TC       ENORM2                                #  HERE IF LCE GEQ 2(-3)
000294: 31,6266           44515                           CS       BIT2                                  #  HERE IF LCE  L  2(-3)
000295: 31,6267           20067        ENORM3             INDEX    FIXLOC
000296: 31,6270           50020                           TS       16D                                   #  COUNT FOR SL BY 1,S ALSO NEEDED
000297: 31,6271           60000                           AD       A
000298: 31,6272           20067                           INDEX    FIXLOC
000299: 31,6273           50021                           TS       17D                                   #  COUNT FOR SL BY 2,S.
000300: 31,6274           04024                           TC       DANZIG
000301:
000302: 31,6275           34516        ENORM0             CAF      BIT1
000303: 31,6276           06267                           TC       ENORM3
000304: 31,6277           35501        ENORM1             CAF      ZERO
000305: 31,6300           06267                           TC       ENORM3
000306: 31,6301           44516        ENORM2             CS       BIT1
000307: 31,6302           06267                           TC       ENORM3
000308:
000309: 31,6303           37440        OCT37440           OCT      37440
000310: 31,6304           77747        OCTNEG30           OCT      -00030
000311: 31,6305           77771        OCTNEG6            OCT      -00006
000312:
000313: 31,6306           33453 02065  1/MUE              2DEC*    .250876044 E-10       B35*            #  CS SQ/M CUBE
000314: 31,6310           11217 27040  MUE(37)            2DEC*    3.986032233 E10        B-37*           #  CS SQ/M CUBE
000315:                                                                                                  # # Page 689
000316: 31,6312           14441 37327  DP2PI/16           2DEC     .39269909
000317: 31,6314           76563                           DEC      -.15915494 B-2
000318: 31,6315           75347                           DEC      -.15915494 B-1
000319: 31,6316           72717        -1/2PI             DEC      -.15915494
000320: 31,6317           65640                           DEC      -.15915494 B1
000321: 31,6320           00171        NOMBURN            OCT      00171
000322: 31,6321           04316 25750  ALFALIM            2DEC     6.562      E-8        B21
000323:
000324:                                                                                                  # # Page 690
000325:
000326:                                                                                                  #  INVERSE TANGENT.     THE SINGLE PRECISION ARCTAN IS BASED ON A HASTINGS  3 TERM POLYNOMIAL.  THE PROGRAM
000327:                                                                                                  #  ACCEPTS  NUM  AND  DEN  , WHERE  TAN(THETA) = NUM/DEN, AND GIVES  THETA/PI  IN THE RANGE (0,1)
000328:                                                                                                  #  ENTER WITH C(MPAC +1) = NUM, AND C(MPAC) = DEN.   NOTE THAT FOR CALCTFF, THETA = DEL E/2.
000329:                                                                                                  #  SPARCTAN USES 3 SP TEMPORARIES:  SPTEMQ, SPTEM1, SPTEM2
000330:
000331:                                                                                                  #  TEMPORARY ERASABLE ASSIGNMENTS FOR SPARCTAN ROUTINE
000332:
000333: 31,6323     0071               SPTEMQ             =        VBUF
000334: 31,6323     0072               SPTEM1             =        VBUF       +1
000335: 31,6323     0073               SPTEM2             =        VBUF       +2
000336: 31,6323     0071               SPATANQ            EQUALS   SPTEMQ
000337: 31,6323     0072               SGNATAN            EQUALS   SPTEM1
000338:
000339: 31,6323           30001        SPARCTAN           XCH      Q
000340: 31,6324           50071                           TS       SPATANQ
000341:
000342: 31,6325           34502                           CAF      BIT13                                 #  1/4 = PI/4
000343: 31,6326           50073                           TS       SPTEM2
000344: 31,6327           50072                           TS       SGNATAN                               #  IF NUM=0, THETA=0
000345: 31,6330           10116                           CCS      MPAC       +1                         #  NUM
000346: 31,6331           06341                           TC       TESTDEN                               #  IF DEN =0, THETA=90 DEG SGN(NUM)
000347: 31,6332           06341                           TC       TESTDEN                               #  MUST STILL TEST DEN.
000348: 31,6333           06335                           TC       +2                                    #  INDETREMINATE CASE 0/0 CONSIDERED AS 90D
000349: 31,6334           06340                           TC       TESTDEN    -1
000350: 31,6335           40072                           CS       SGNATAN
000351: 31,6336           50072                           TS       SGNATAN
000352: 31,6337           40116                           CS       MPAC       +1
000353: 31,6340           50116                           TS       MPAC       +1                         #  ABVAL OF NUM.
000354:
000355: 31,6341           10115        TESTDEN            CCS      MPAC                                  #  DEN
000356: 31,6342           06355                           TC       SPATAN1
000357: 31,6343           06434                           TC       SPATAN4                               #  90 DEG CASE
000358: 31,6344           06346                           TC       +2
000359: 31,6345           06434                           TC       SPATAN4                               #  90 DEG CASE
000360: 31,6346           40072                           CS       SGNATAN
000361: 31,6347           50072                           TS       SGNATAN
000362: 31,6350           40115                           CS       MPAC
000363: 31,6351           50115                           TS       MPAC                                  #  ABVAL OF DEN.
000364:
000365: 31,6352           10116                           CCS      MPAC       +1                         #  EITHER POS OR +0. WAS NUM ZERO
000366: 31,6353           06341                           TC       TESTDEN                               #  NO, GO ON
000367: 31,6354           00071                           TC       SPATANQ                               #  YES, THETA =0      RETURN
000368:
000369: 31,6355           25777        SPATAN1            EXTEND                                         #  HERE NEGLECT 1 BIT OF CCS. LOST IN MP.
000370: 31,6356           46362                           MP       ITANC0                                #  POLY TRANSITION TEST.
000371: 31,6357           60116                           AD       MPAC       +1                         #  NUM  (PNZ, SO +0 IN CCS IMPOSS)
000372: 31,6360           10000                           CCS      A                                     #  IF NEG, USE Z=N/D FOR POLY.
000373: 31,6361           06367                           TC       SPATAN2                               #  IF POS, USE Z=(N-D)/(N+D) FOR POLY.
000374: 31,6362           67237        ITANC0             DEC      -.2714558                             #  =-(1-K)/(1+K), AND K=.573
000375: 31,6363           35501                           CAF      ZERO                                  #  THIS FORM OF POLY HAS BETTER BEHAVIOR
000376:                                                                                                  # # Page 691
000377: 31,6364           50073                           TS       SPTEM2                                #  NEAR ORIGIN. REPLACE PI/4 BY ZERO.
000378: 31,6365           30116                           XCH      MPAC       +1                         #  SET +0 TO FIT IN WITH CALC BELOW.
000379: 31,6366           06371                           TC       SPATAN3
000380:
000381: 31,6367           40115        SPATAN2            CS       MPAC                                  #  N-D AND N+D WILL NOT OVFL IN AD IF LCE
000382:                                                                                                  #  L 1.0 DUE TO NORMALIZATION BY LCE.
000383: 31,6370           60116                           AD       MPAC       +1                         #  NUM
000384: 31,6371           50021        SPATAN3            TS       SR
000385: 31,6372           30115                           XCH      MPAC
000386: 31,6373           60116                           AD       MPAC       +1
000387: 31,6374           50000                           TS       A                                     #  DID IT OVFL..
000388: 31,6375           06401                           TC       SPATAN5                               #  NO, GO DO DV.
000389: 31,6376           30021                           XCH      SR                                    #  YES, SHIFT BOTH NUM AND DEN R1.
000390: 31,6377           30021                           XCH      SR                                    #  (NUM-DEN)/4 IN SR
000391: 31,6400           64522                           AD       HALF                                  #  (NUM+DEN)/2 IN A.
000392:
000393: 31,6401           50115        SPATAN5            TS       MPAC                                  #  NORMALLY, (NUM+DEN)
000394: 31,6402           30021                           XCH      SR                                    #  NORMALLY, (NUM-DEN) /2
000395: 31,6403           25777                           EXTEND
000396: 31,6404           50115                           DV       MPAC                                  #  NO OVFL PROB.
000397: 31,6405           50115                           TS       MPAC                                  #  Z/2= (NUM-DEN)/2(NUM+DEN)
000398:                                                                                                  #  Z/2 = NUM/2DEN       NEAR ORIGIN
000399:
000400: 31,6406           25777                           EXTEND
000401: 31,6407           40000                           SQUARE
000402: 31,6410           50116                           TS       MPAC       +1                         #  Z Z/4
000403: 31,6411           25777                           EXTEND
000404: 31,6412           46441                           MP       ITANC7
000405: 31,6413           66440                           AD       ITANC5
000406: 31,6414           25777                           EXTEND
000407: 31,6415           40116                           MP       MPAC       +1
000408: 31,6416           66437                           AD       ITANC3
000409: 31,6417           25777                           EXTEND
000410: 31,6420           40116                           MP       MPAC       +1
000411: 31,6421           66436                           AD       ITANC1
000412: 31,6422           60000                           DOUBLE
000413: 31,6423           25777                           EXTEND
000414: 31,6424           40115                           MP       MPAC
000415: 31,6425           60073                           AD       SPTEM2                                #  EITHER 1/4=PI/4 OR 0
000416: 31,6426           50001                           TS       Q                                     #  C(A)=THETA/PI ,RANGE( 0 ,.5) SEE NOTE
000417: 31,6427           10072                           CCS      SGNATAN
000418: 31,6430           30001                           XCH      Q                                     #  AFFIX SGN FOR POLY TO HAVE RANGE (-.5,.5
000419: 31,6431           00071                           TC       SPATANQ
000420: 31,6432           40001                           CS       Q
000421: 31,6433           64522                           AD       HALF
000422: 31,6434           64522        SPATAN4            AD       HALF                                  #  90 DEG CASE COME HERE
000423: 31,6435           00071                           TC       SPATANQ                               #  RETURN WITH THETA/  PI IN A. RANGE(0,1)
000424:                                                                                                  #  POLY GIVES THETA/ PI RANGE(-.5,+.5)
000425:
000426:                                                                                                  #  NOTE *** RETURN TO CALCTFF  WITH  DEL E/2 PI IN A, RANGE (0,1).       SINCE THE OUTPUT OF  SPARCTAN ,
000427:                                                                                                  # # Page 692
000428:                                                                                                  #  IS IN THE RANGE (0,1), THE +/- 90 DEG CASES ARE IDENTICAL.  FURTHER SINCE  FOR  CALCTFF, THE ANGLE THETA/PI
000429:                                                                                                  #  EQUALS DEL E/2 PI,  SPARCTAN  CONSIDERS BOTH 0 DEG AND 180 DEG AS 0 DEG.  SHOULD PROGRAMS OTHER THAN  CALCTFF
000430:                                                                                                  #  DESIRE ARC TANGENTS, THEN  SPARCTAN  CAN BE MADE GENERAL.
000431:
000432: 31,6436           12133        ITANC1             DEC      .318060008                            #  =C1 /PI
000433: 31,6437           62723        ITANC3             DEC      -.40894149                            #  = 4 C3/PI
000434: 31,6440           27656        ITANC5             DEC      .7449806                              #  16 C5/PI
000435: 31,6441           46450        ITANC7             DEC      -.79435682                            #  64 C5 /PI                                     74W
000436:
000437:                                                                                                  # # Page 693
000438:
000439: 31,6442           73773        HIECC1             BMN      3
000440: 31,6443           71405                           LXC,1    LODON
000441: 31,6444           45070                           DMOVE    TSRT*
000442: 31,6445           76576                           RTB
000443: 31,6446           00017                                    14D
000444: 31,6447           22457                                    TFFMAX
000445: 31,6450           00024                                    19D
000446: 31,6451           00015                                    12D
000447: 31,6452           00027                                    11D,1
000448: 31,6453           20265                                    FRESHPD
000449: 31,6454           33457                           STORE    TFF
000450:
000451: 31,6455           40576                           ITCQ     0
000452:
000453: 31,6456           45175        TFFMAX             DMOVE    1
000454: 31,6457           76576                           RTB
000455: 31,6460           21043                                    NEARONE
000456: 31,6461           20265                                    FRESHPD
000457: 31,6462           33457                           STORE    TFF
000458:
000459: 31,6463           40576                           ITCQ     0
000460:
000461: 31,6464           45175        HIECC              DMOVE    1
000462: 31,6465           76576                           RTB
000463: 31,6466           00013                                    10D
000464: 31,6467           20265                                    FRESHPD
000465: 31,6470           32017                           STORE    14D
000466:
000467: 31,6471           41775                           VXV      1
000468: 31,6472           71116                           ABVAL    TSLT
000469: 31,6473           00766                                    RN
000470: 31,6474           00774                                    VN
000471: 31,6475           00003                                    2
000472:
000473: 31,6476           47575                           NOLOD    1
000474: 31,6477           64716                           DMP      TSLT
000475: 31,6500           22307                                    1/MUE
000476: 31,6501           00002                                    1                                     #  H/MUE  B5  PD2,3
000477:
000478: 31,6502           47575                           NOLOD    1
000479: 31,6503           64776                           DMP
000480: 31,6504           00001                                    0                                     #   H H/MUE  B-26  PD4,5
000481: 31,6505           73174                           UNIT     2
000482: 31,6506           42722                           DOT      DMP
000483: 31,6507           63643                           TSLT     DSQ
000484: 31,6510           00766                                    RN
000485: 31,6511           00774                                    VN
000486: 31,6512           00003                                    2
000487: 31,6513           00003                                    2
000488: 31,6514           62774                           DDV      2
000489:                                                                                                  # # Page 694
000490: 31,6515           66643                           DSU      DSQ
000491: 31,6516           70653                           DAD      SQRT
000492: 31,6517           00005                                    4D
000493: 31,6520           01024                                    RMAG
000494: 31,6521           22674                                    TWO(-2)                               #  E  B-1  PD6,7
000495:
000496: 31,6522           47576                           NOLOD    0
000497: 31,6523           33726                           STORE    ECC
000498:
000499: 31,6524           47575                           NOLOD    1
000500: 31,6525           65672                           BDSU     TSRT
000501: 31,6526           22674                                    TWO(-2)
000502: 31,6527           00002                                    1                                     #  B-2    DEL    PD8,9
000503:
000504: 31,6530           56776                           TSRT     0
000505: 31,6531           00005                                    4
000506: 31,6532           00002                                    1                                     #  PD10,11  B-27
000507:
000508: 31,6533           66775                           DSU      1
000509: 31,6534           61776                           BDDV
000510: 31,6535           22674                                    TWO(-2)
000511: 31,6536           00011                                    8D                                    #  H H/MUE(2-DEL)  B-25  =RPAR  PD10,11
000512:
000513: 31,6537           56775                           TSRT     1
000514: 31,6540           65616                           BDSU     BPL
000515: 31,6541           15706                                    R400K
000516: 31,6542           00002                                    1
000517: 31,6543           00013                                    10D
000518: 31,6544           22457                                    TFFMAX
000519:
000520: 31,6545           42775                           DOT      1
000521: 31,6546           43776                           BPL
000522: 31,6547           00766                                    RN
000523: 31,6550           00774                                    VN
000524: 31,6551           22443                                    HIECC1
000525:
000526: 31,6552           62774                           DDV      2
000527: 31,6553           66672                           DSU      TSRT
000528: 31,6554           62776                           DDV
000529: 31,6555           00005                                    4D
000530: 31,6556           01024                                    RMAG
000531: 31,6557           22674                                    TWO(-2)
000532: 31,6560           00002                                    1
000533: 31,6561           00007                                    6D                                    #  COSTH  PD12,13  B-1
000534:
000535: 31,6562           47575                           NOLOD    1
000536: 31,6563           73726                           BMN      BDSU
000537: 31,6564           22457                                    TFFMAX
000538: 31,6565           22674                                    TWO(-2)
000539:                                                                                                  # # Page 695
000540: 31,6566           70774                           DAD      2
000541: 31,6567           61653                           BDDV     SQRT
000542: 31,6570           47176                           COMP
000543: 31,6571           22674                                    TWO(-2)
000544: 31,6572           00015                                    12D                                   #  PD14,15 B0  TAN(TH/2)
000545:
000546: 31,6573           56774                           TSRT     2
000547: 31,6574           61732                           BDDV     DSU
000548: 31,6575           56712                           TSRT     DDV
000549: 31,6576           15706                                    R400K
000550: 31,6577           00002                                    1
000551: 31,6600           00005                                    4D
000552: 31,6601           22674                                    TWO(-2)
000553: 31,6602           00002                                    1
000554: 31,6603           00007                                    6D
000555:
000556: 31,6604           47575                           NOLOD    1
000557: 31,6605           73726                           BMN      BDSU
000558: 31,6606           22457                                    TFFMAX
000559: 31,6607           22674                                    TWO(-2)
000560:
000561: 31,6610           70774                           DAD      2
000562: 31,6611           61653                           BDDV     SQRT
000563: 31,6612           47176                           COMP
000564: 31,6613           22674                                    TWO(-2)
000565: 31,6614           00021                                    16D                                   #  TAN(TH/2)  PD18,19
000566:
000567: 31,6615           56775                           TSRT     1
000568: 31,6616           70776                           DAD
000569: 31,6617           00011                                    8D
000570: 31,6620           00002                                    1
000571: 31,6621           22674                                    TWO(-2)
000572:
000573: 31,6622           66775                           DSU      1
000574: 31,6623           73722                           BMN      DMP
000575: 31,6624           00023                                    18D
000576: 31,6625           00017                                    14D
000577: 31,6626           22665                                    TFF0                                  #  (1+DEL/4)(TANTH1/2)-TAN(TH/2))
000578:
000579: 31,6627           51175                           DSQ      1
000580: 31,6630           64776                           DMP
000581: 31,6631           00023                                    18D
000582: 31,6632           00023                                    18D                                   #  (TAN(TH1/2))CUBED  PD22,23
000583:
000584: 31,6633           51175                           DSQ      1
000585: 31,6634           64726                           DMP      BDSU
000586: 31,6635           00017                                    14D
000587: 31,6636           00017                                    14D                                   #  PD22,23   B0
000588:
000589: 31,6637           56774                           TSRT     2
000590:                                                                                                  # # Page 696
000591: 31,6640           65722                           BDSU     DMP
000592: 31,6641           70776                           DAD
000593: 31,6642           00011                                    8D
000594: 31,6643           00002                                    1
000595: 31,6644           22676                                    DP1/3S
000596: 31,6645           77777                                    -
000597: 31,6646           00025                                    20D
000598:
000599: 31,6647           64773                           DMP      3
000600: 31,6650           63653                           TSLT     SQRT
000601: 31,6651           64722                           DMP      DMP
000602: 31,6652           56771                           TSRT     RTB
000603: 31,6653           00013                                    10D
000604: 31,6654           22307                                    1/MUE
000605: 31,6655           00002                                    1
000606: 31,6656           00013                                    10D
000607: 31,6657           00027                                    22D
000608: 31,6660           00010                                    7D
000609: 31,6661           20265                                    FRESHPD
000610: 31,6662           33457                           STORE    TFF
000611:
000612: 31,6663           40576                           ITCQ     0
000613:
000614: 31,6664           45175        TFF0               DMOVE    1
000615: 31,6665           76576                           RTB
000616: 31,6666           05174                                    ZERODP
000617: 31,6667           20265                                    FRESHPD
000618: 31,6670           33457                           STORE    TFF
000619:
000620: 31,6671           40576                           ITCQ     0
000621:
000622: 31,6672           40576                           ITCQ     0
000623:
000624: 31,6673           20000 00000  TWO(-2)            2DEC     .5
000625: 31,6675           05252 25253  DP1/3S             2DEC     .3333333333 B-1

End of include-file TIME_OF_FREE-FALL_CALCULATIONS.agc.  Parent file is MAIN.agc


