
Source Code


000002:                                                                                                  #  Copyright:    Public domain.
000003:                                                                                                  #  Filename:     WAITLIST.agc
000004:                                                                                                  #  Purpose:      Part of the source code for Solarium build 55. This
000005:                                                                                                  #                is for the Command Module's (CM) Apollo Guidance
000006:                                                                                                  #                Computer (AGC), for Apollo 6.
000007:                                                                                                  #  Assembler:    yaYUL --block1
000008:                                                                                                  #  Contact:      Jim Lawton <jim DOT lawton AT gmail DOT com>
000009:                                                                                                  #  Website:      www.ibiblio.org/apollo/index.html
000010:                                                                                                  #  Page scans:   www.ibiblio.org/apollo/ScansForConversion/Solarium055/
000011:                                                                                                  #  Mod history:  2009-09-21 JL   Created.
000012:                                                                                                  #                2016-08-18 RSB  Some fixes.
000013:
000014:                                                                                                  # # Page 111
000015:
000016:                                                                                                  #  CHECK-OUT STATUS - UNIT VERIFICATION COMPLETE MAY, 1965               EXCEPT LONGCALL SECTION.
000017:
000018:                                                                                                  #  DO NOT CHANGE THIS SECTION WITHOUT PRB APPROVAL.
000019:
000020:                                                                                                  #  GROUNDRULE....DELTA T SHOULD NOT EXCEED 12000 (= 2 MINUTES)
000021:
000022:    2173                                           BANK     1
000023:    2173           50577        WAITLIST           TS       DELT                                  #  STORE DELTA T = TD - T (TD = DESIRED
000024:    2174           30001                           XCH      Q                                     #    TIME FOR FUTURE ACTION).
000025:    2175           02065                           TC       EXECCOM                               #  PICK UP TASK ADDRESS AND SAVE BANKREG.
000026:    2176           06374                           TC       WTLST3
000027:
000028: 04,6374                                           BANK     4
000029: 04,6374           40037        WTLST3             CS       TIME3
000030: 04,6375           66376                           AD       +1                                    #  CCS  A  = + 1/4
000031: 04,6376           10000                           CCS      A                                     #  TEST  1/4 - C(TIME3).  IF POSITIVE,
000032:                                                                                                  #  IT MEANS THAT TIME3 OVERFLOW HAS OCCURRED PRIOR TO CS  TIME3 AND THAT
000033:                                                                                                  #  C(TIME3) = T - T1, INSTEAD OF 1.0 - (T1 - T).  THE FOLLOWING FOUR
000034:                                                                                                  #  ORDERS SET C(A) = TD - T1 + 1 IN EITHER CASE.  C(CSQ) = CS  Q = 40001
000035:                                                                                                  #  AND  C(TSQ) = TS  Q = 50001   NOTATION...   1 - 00001,  1.0 = 37777+1
000036:
000037: 04,6377           64664                           AD       CSQ                                   #  OVERFLOW HAS OCCURRED.  SET C(A) =
000038: 04,6400           40000                           CS       A                                     #  T - T1 + 3/4 - 1
000039:
000040:                                                                                                  #  NORMAL CASE (C(A) MINUS) YIELDS SAME C(A)  -(-(1.0-(T1-T))+1/4)-1
000041:
000042: 04,6401           64561                           AD       TSQ                                   #  TS  Q  = - 3/4 + 2
000043: 04,6402           60577                           AD       DELT                                  #  RESULT = TD - T1 + 1
000044:                                                                                                  #                10W
000045:                                                                                                  # # Page 112
000046: 04,6403           10000                           CCS      A                                     #  TEST TD - T1 + 1
000047:
000048: 04,6404           60552                           AD       LST1                                  #  IF TD - T1 POS, GO TO WTLST5 WITH
000049: 04,6405           06451                           TC       WTLST5                                #  C(A) = (TD - T1) + C(LST1) = TD-T2+1
000050:
000051: 04,6406           06407                           TC       +1
000052: 04,6407           40577                           CS       DELT
000053:
000054:                                                                                                  #  NOTE THAT THIS PROGRAM SECTION IS NEVER ENTERED WHEN T-T1 G/E -1,
000055:                                                                                                  #  SINCE TD-T1+1 = (TD-T) + (T-T1+1), AND DELTA T = TD-T G/E +1.  (G/E
000056:                                                                                                  #  SYMBOL MEANS GREATER THAN OR EQUAL TO).  THUS THERE NEED BE NO CON-
000057:                                                                                                  #  CERN OVER A PREVIOUS OR IMMINENT OVERFLOW OF TIME3 HERE.
000058:
000059: 04,6410           64522                           AD       POS1/2                                #  WHEN TD IS NEXT, FORM QUANTITY
000060: 04,6411           64522                           AD       POS1/2                                #    1.0 - DELTA T = 1.0 - (TD - T)
000061: 04,6412           30037                           XCH      TIME3
000062: 04,6413           64563                           AD       MSIGN
000063: 04,6414           60577                           AD       DELT
000064: 04,6415           50577                           TS       DELT
000065: 04,6416           35501                           CAF      ZERO
000066: 04,6417           30577                           XCH      DELT
000067: 04,6420           30552        WTLST4             XCH      LST1
000068: 04,6421           30553                           XCH      LST1       +1
000069: 04,6422           30554                           XCH      LST1       +2
000070: 04,6423           30555                           XCH      LST1       +3
000071: 04,6424           30556                           XCH      LST1       +4
000072: 04,6425           30557                           XCH      LST1       +5
000073: 04,6426           30560                           XCH      LST1       +6
000074: 04,6427           30573                           XCH      EXECTEM2                              #  TASK ADDRESS.
000075: 04,6430           20577                           INDEX    NVAL
000076: 04,6431           06432                           TC       +1
000077: 04,6432           30561                           XCH      LST2
000078: 04,6433           30562                           XCH      LST2       +1
000079: 04,6434           30563                           XCH      LST2       +2
000080: 04,6435           30564                           XCH      LST2       +3
000081: 04,6436           30565                           XCH      LST2       +4
000082: 04,6437           30566                           XCH      LST2       +5                         #  AT END, CHECK THAT C(LST2+5) IS STD
000083: 04,6440           30567                           XCH      LST2       +6
000084: 04,6441           30570                           XCH      LST2       +7
000085: 04,6442           62260                           AD       ENDTASK                               #    END ITEM, AS CHECK FOR EXCEEDING
000086:                                                                                                  #    THE LENGTH OF THE LIST.
000087: 04,6443           10000                           CCS      A
000088: 04,6444           03044                           TC       ABORT                                 #  WAITLIST OVERFLOW.
000089: 04,6445           01203                           OCT      01203
000090: 04,6446           06444                           TC       -2
000091:
000092: 04,6447           30572                           XCH      EXECTEM1                              #  RETURN TO CALLER.
000093: 04,6450           02076                           TC       LVWTLIST                              #  SAME ROUTINE AS FINDVAC, ETC., EXIT.
000094:
000095:                                                                                                  # # Page 113
000096:
000097: 04,6451           10000        WTLST5             CCS      A                                     #  TEST  TD - T2 + 1
000098: 04,6452           60553                           AD       LST1       +1
000099: 04,6453           06457                           TC       +4
000100: 04,6454           64516                           AD       ONE
000101: 04,6455           06535                           TC       WTLST2
000102: 04,6456           00001                           OCT      1
000103:
000104: 04,6457           10000                 +4        CCS      A                                     #  TEST  TD - T3 + 1
000105: 04,6460           60554                           AD       LST1       +2
000106: 04,6461           06465                           TC       +4
000107: 04,6462           64516                           AD       ONE
000108: 04,6463           06535                           TC       WTLST2
000109: 04,6464           00002                           OCT      2
000110:
000111: 04,6465           10000                 +4        CCS      A                                     #  TEST  TD - T4 + 1
000112: 04,6466           60555                           AD       LST1       +3
000113: 04,6467           06473                           TC       +4
000114: 04,6470           64516                           AD       ONE
000115: 04,6471           06535                           TC       WTLST2
000116: 04,6472           00003                           OCT      3
000117:
000118: 04,6473           10000                 +4        CCS      A                                     #  TEST  TD - T5 + 1
000119: 04,6474           60556                           AD       LST1       +4
000120: 04,6475           06501                           TC       +4
000121: 04,6476           64516                           AD       ONE
000122: 04,6477           06535                           TC       WTLST2
000123: 04,6500           00004                           OCT      4
000124:
000125: 04,6501           10000                 +4        CCS      A                                     #  TEST  TD - T6 + 1
000126: 04,6502           60557                           AD       LST1       +5
000127: 04,6503           06507                           TC       +4
000128: 04,6504           64516                           AD       ONE
000129: 04,6505           06535                           TC       WTLST2
000130: 04,6506           00005                           OCT      5
000131:
000132:                                                                                                  # # Page 114
000133: 04,6507           10000                 +4        CCS      A
000134: 04,6510           60560                           AD       LST1       +6
000135: 04,6511           06515                           TC       +4
000136: 04,6512           64516                           AD       ONE
000137: 04,6513           06535                           TC       WTLST2
000138: 04,6514           00006                           OCT      6
000139:
000140: 04,6515           10000                 +4        CCS      A
000141: 04,6516           06523                           TC       WTALARM
000142: 04,6517           30000                           NOOP
000143: 04,6520           64516                           AD       ONE
000144: 04,6521           06535                           TC       WTLST2
000145: 04,6522           00007                           OCT      7
000146:
000147: 04,6523           03044        WTALARM            TC       ABORT
000148: 04,6524           01204                           OCT      01204
000149:
000150: 04,6525     2076               LVWTLIST           EQUALS   FOUNDVAC
000151:
000152: 04,6525           10647        SVCT3X             CCS      FLAGWRD2                              #  IF DURING FREE-FALL AND AFTER
000153: 04,6526           02256                           TC       TASKOVER                              #  PLATFORM HAS BEEN ALIGNED, COMPENSATE
000154: 04,6527           02256                           TC       TASKOVER                              #  FOR GYRO BIAS DRIFT.
000155: 04,6530           06531                           TC       +1
000156:
000157: 04,6531           32170                           CAF      PRIO35
000158: 04,6532           02052                           TC       NOVAC
000159: 04,6533           31261                           CADR     BIASONLY
000160: 04,6534           02256        LTSKOV             TC       TASKOVER                              #  USED BY LONGCALL.
000161:
000162:                                                                                                  #  C(TIME3) = 1.0 - (T1 - T)
000163:
000164:                                                                                                  #  C(LST1  ) = - (T2 - T1) + 1
000165:                                                                                                  #  C(LST1+1) = - (T3 - T2) + 1
000166:                                                                                                  #  C(LST1+2) = - (T4 - T3) + 1
000167:                                                                                                  #  C(LST1+3) = - (T5 - T4) + 1
000168:                                                                                                  #  C(LST1+4) = - (T6 - T5) + 1
000169:
000170:                                                                                                  #  C(LST2  ) = TC  TASK1
000171:                                                                                                  #  C(LST2+1) = TC  TASK2
000172:                                                                                                  #  C(LST2+2) = TC  TASK3
000173:                                                                                                  #  C(LST2+3) = TC  TASK4
000174:                                                                                                  #  C(LST2+4) = TC  TASK5                                         11W
000175:
000176:                                                                                                  # # Page 115
000177:
000178:                                                                                                  #  THE ENTRY TO WTLST2 JUST PRECEDING OCT  N  IS FOR T  LE TD LE T   -1.
000179:                                                                                                  #                                                     N           N+1
000180:                                                                                                  #  (LE MEANS LESS THAT OR EQUAL TO).  AT ENTRY, C(A) = -(TD - T   + 1)
000181:                                                                                                  #                                                              N+1
000182:
000183:                                                                                                  #  THE LST1 ENTRY -(T   - T +1) IS TO BE REPLACED BY -(TD - T + 1), AND
000184:                                                                                                  #                    N+1   N                                 N
000185:
000186:                                                                                                  #  THE ENTRY -(T   - TD + 1) IS TO BE INSERTED IMMEDIATELY FOLLOWING.
000187:                                                                                                  #               N+1
000188:
000189: 04,6535           30001        WTLST2             XCH      Q                                     #  NEW C(Q) = -(TD - T   + 1)
000190: 04,6536           20000                           INDEX    A                                     #                     N+1
000191: 04,6537           30000                           CAF      0
000192: 04,6540           50577                           TS       NVAL                                  #  VALUE OF N INTO NVAL
000193:
000194: 04,6541           34516                           CAF      ONE
000195: 04,6542           60001                           AD       Q
000196: 04,6543           20577                           INDEX    NVAL                                  #  C(A) = -(TD - T ) + 1.
000197: 04,6544           60551                           AD       LST1       -1                         #                 N
000198:
000199: 04,6545           20577                           INDEX    NVAL
000200: 04,6546           50551                           TS       LST1       -1
000201:
000202: 04,6547           40001                           CS       Q                                     #  -C(Q) = -(T    - TD) + 1
000203: 04,6550           20577                           INDEX    NVAL                                  #             N+1
000204: 04,6551           06420                           TC       WTLST4
000205:
000206:                                                                                                  # # Page 116
000207:
000208:                                                                                                  #  THIS ROUTINE HANDLES TASKS MORE THAN 120 SECS IN THE FUTURE. IT REQUIRES CALL TIME IN LONGTIME, +1 SCALED SAME
000209:                                                                                                  #  AS TIME2, 1 AND THE TASK ADDRESS IN CALLCADR. ENTER WITH
000210:                                                                                                  #                                                                TC      IBNKCALL
000211:                                                                                                  #                                                                CADR    LONGCALL
000212:                                                                                                  #  THE ROUTINE ONLY HANDLES ONE CALL AT A TIME
000213:
000214: 04,6552           30001        LONGCALL           XCH      Q
000215: 04,6553           51466                           TS       LONGEXIT
000216:
000217: 04,6554           31461                           XCH      LONGTIME   +1
000218: 04,6555           60000                           DOUBLE
000219: 04,6556           51461                           TS       LONGTIME   +1
000220: 04,6557           35501                           CAF      ZERO
000221: 04,6560           61460                           AD       LONGTIME
000222: 04,6561           61460                           AD       LONGTIME
000223: 04,6562           51460                           TS       LONGTIME
000224: 04,6563           06565                           TC       +2
000225: 04,6564           06564                           TC       -0                                    #  ERROR TRAP.   DT TOO BIG
000226:
000227: 04,6565           34516                           CAF      ONE
000228: 04,6566           61461                           AD       LONGTIME   +1
000229: 04,6567           64476                           AD       POSMAX
000230: 04,6570           51461                           TS       LONGTIME   +1
000231: 04,6571           35501                           CAF      ZERO
000232:
000233: 04,6572           61460                           AD       LONGTIME
000234: 04,6573           64476                           AD       POSMAX
000235: 04,6574           51460                           TS       LONGTIME
000236: 04,6575           03062                           TC       CCSHOLE
000237:
000238: 04,6576           34501                           CAF      BIT14
000239: 04,6577           25777                           EXTEND
000240: 04,6600           41461                           MP       LONGTIME   +1
000241: 04,6601           51461                           TS       LONGTIME   +1
000242:
000243: 04,6602           11460        LONGCYCL           CCS      LONGTIME
000244: 04,6603           06613                           TC       LOOPAGIN
000245:
000246: 04,6604           11461                           CCS      LONGTIME   +1                         #  TEST FOR LOWER ORDER ZERO
000247: 04,6605           06607                           TC       +2
000248: 04,6606           06622                           TC       GETCADR
000249:
000250: 04,6607           31461                           XCH      LONGTIME   +1
000251: 04,6610           02173                           TC       WAITLIST
000252: 04,6611           10622                           CADR     GETCADR
000253:
000254: 04,6612           06617                           TC       LONGC1
000255: 04,6613           51460        LOOPAGIN           TS       LONGTIME
000256:                                                                                                  # # Page 117
000257: 04,6614           34501                           CAF      BIT14
000258: 04,6615           02173                           TC       WAITLIST
000259: 04,6616           10602                           CADR     LONGCYCL
000260:
000261: 04,6617           36534        LONGC1             CAF      LTSKOV
000262: 04,6620           31466                           XCH      LONGEXIT
000263: 04,6621           00000                           XAQ
000264:
000265: 04,6622           31467        GETCADR            XCH      CALLCADR
000266: 04,6623           05723                           TC       BANKJUMP
000267:
000268:                                                                                                  # # Page 118
000269:
000270:                                                                                                  #        ENTERS HERE ON T3 RUPT TO DISPATCH WAITLISTED TASK.
000271:
000272:    2177                                           SETLOC   WAITLIST   +4                         #  BACK TO FF.
000273:
000274:    2177           30015        T3RUPT             XCH      BANKREG                               #   TIME 3 OVERFLOW INTERRUPT PROGRAM
000275:    2200           50030                           TS       BANKRUPT
000276:    2201           30034                           XCH      OVCTR                                 #  1.  PICK UP CONTENTS OF THE OVERFLOW
000277:    2202           50031                           TS       OVRUPT                                #     AND SAVE IN OVRUPT FOR ENTIRE T3RUPT.
000278:
000279:    2203           45501        T3RUPT2            CS       ZERO                                  #  SET RUPTAGN TO -0 INITIALLY, AND SET
000280:    2204           50571                           TS       RUPTAGN                               #  T3 TO -0 WHILE WE MAKE UP ITS NEW
000281:    2205           30037                           XCH      TIME3                                 #  CONTENTS SO WE CAN DETECT AN INCREMENT
000282:    2206           50001                           TS       Q                                     #  OCCURING IN THE PROCESS.
000283:
000284:    2207           34520                           CAF      NEG1/2
000285:    2210           30560                           XCH      LST1       +6
000286:    2211           30557                           XCH      LST1       +5
000287:    2212           30556                           XCH      LST1       +4                         #  3.  MOVE UP LST1 CONTENTS, ENTERING
000288:    2213           30555                           XCH      LST1       +3                         #      A VALUE OF 1/2 +1 AT THE BOTTOM
000289:    2214           30554                           XCH      LST1       +2                         #      FOR T6-T5, CORRESPONDING TO THE
000290:    2215           30553                           XCH      LST1       +1                         #      INTERNAL 81.93 SEC FOR ENDTASK.
000291:    2216           30552                           XCH      LST1
000292:    2217           64476                           AD       POSMAX                                #  4. SET T3 = 1.0 - T2 -T USING LIST 1.
000293:    2220           60001                           AD       Q                                     #  SAMPLED T3.
000294:    2221           50000                           TS       A                                     #  SEE IF NEW T3 HAS OVERFLOW. IF SO, NEXT
000295:    2222           02226                           TC       +4                                    #  TASK IS DUE THIS T3 RUPT AND SET RUPTAGN
000296:    2223           30571                           XCH      RUPTAGN                               #  ACCORDINGLY.
000297:    2224           34516                           CAF      ONE
000298:    2225           30571                           XCH      RUPTAGN
000299:
000300:    2226           30037                 +4        XCH      TIME3
000301:    2227           10000                           CCS      A                                     #  T3 IS ALMOST ALWAYS -0 UNLESS AN
000302:    2230           34516                           CAF      ONE                                   #  INCREMENT OCCURRED IN WHICH CASE WE MUST
000303:    2231           60037                           AD       TIME3                                 #  ADD IT TO THE NEW T3.
000304:    2232           02272                           TC       XTRAINC
000305:
000306:                                                                                                  # # Page 119
000307:
000308:    2233           42260        T3DSP              CS       ENDTASK
000309:    2234           30570                           XCH      LST2       +7
000310:    2235           30567                           XCH      LST2       +6
000311:    2236           30566                           XCH      LST2       +5                         #        ENTERING THE ENDTASK AT BOTTOM.
000312:    2237           30565                           XCH      LST2       +4
000313:    2240           30564                           XCH      LST2       +3
000314:    2241           30563                           XCH      LST2       +2
000315:    2242           30562                           XCH      LST2       +1
000316:    2243           30561                           XCH      LST2                                  #  9.  PICK UP TOP TASK ON LIST
000317:
000318:    2244           50015                           TS       BANKREG                               #  SWITCH BANKS IF NECESSARY
000319:    2245           50577                           TS       ITEMP1
000320:    2246           72667                           MASK     70K
000321:    2247           10000                           CCS      A
000322:    2250           02252                           TC       +2                                    #  IF +
000323:    2251           00577                           TC       ITEMP1
000324:    2252           30577                           XCH      ITEMP1
000325:    2253           74606                           MASK     LOW10
000326:    2254           20000                           INDEX    A
000327:    2255           06000                           TC       6000
000328:
000329:
000330:
000331:                                                                                                  #  RETURN, AFTER EXECUTION OF TIME3 OVERFLOW TASK.
000332:
000333:    2256           10571        TASKOVER           CCS      RUPTAGN                               #  IF +1 RETURN TO T3RUPT, IF -0 RESUME.
000334:    2257           02203                           TC       T3RUPT2                               #  DISPATCH NEXT TASK IF IT WAS DUE.
000335:
000336:    2260           67774        ENDTASK           -CADR     SVCT3
000337:    2261           76000        BANKMASK           OCT      76000
000338:
000339:    2262           30031        OVRESUME           XCH      OVRUPT                                #  OVCTR RESTORE AND BANKREG RESTORE.
000340:    2263           50034                           TS       OVCTR
000341:
000342:    2264           30030        RESUME             XCH      BANKRUPT                              #  STANDARD BANK-SWITCH RESUME.
000343:    2265           50015                           TS       BANKREG
000344:
000345:    2266           30027        NBRESUME           XCH      QRUPT                                 #  NO-BANK-SWITCH RESUME.
000346:    2267           50001                           TS       Q
000347:    2270           30026                           XCH      ARUPT
000348:    2271           20025                           RESUME
000349:
000350:                                                                                                  #        FINISH UP RARE EVENT OF EXTRA INCREMENT TO T3.
000351:
000352:    2272           50037        XTRAINC            TS       TIME3
000353:    2273           02233                           TC       T3DSP                                 #  USUAL CASE.
000354:    2274           50571                           TS       RUPTAGN                               #  EVEN MORE RARE - THE NEXT TASK IS DUE
000355:    2275           02233                           TC       T3DSP                                 #  THIS T3RUPT.
000356:
000357:

End of include-file WAITLIST.agc.  Parent file is MAIN.agc


