
Source Code


000002:                                                                                                  ## Copyright:   Public domain.
000003:                                                                                                  ## Filename:    ALARM_AND_ABORT.agc
000004:                                                                                                  ## Purpose:     A section of Sundial E.
000005:                                                                                                  ##              It is part of the reconstructed source code for the final
000006:                                                                                                  ##              release of the Block II Command Module system test software. No
000007:                                                                                                  ##              original listings of this program are available; instead, this
000008:                                                                                                  ##              file was created via disassembly of dumps of Sundial core rope
000009:                                                                                                  ##              modules and comparison with other AGC programs.
000010:                                                                                                  ## Assembler:   yaYUL
000011:                                                                                                  ## Contact:     Ron Burkey <info@sandroid.org>.
000012:                                                                                                  ## Website:     www.ibiblio.org/apollo/index.html
000013:                                                                                                  ## Mod history: 2023-06-22 MAS  Created from Aurora 12.
000014:                                                                                                  ##              2023-06-30 MAS  Updated for Sundial E.
000015:
000016:
000017:                                                                                                  #           THE FOLLOWING SUBROUTINE MAY BE CALLED TO DISPLAY A NON-ABORTIVE ALARM CONDITION. IT MAY BE CALLED
000018:                                                                                                  #  EITHER IN INTERRUPT OR UNDER EXECUTIVE CONTROL.
000019:
000020:                                                                                                  #           CALLING SEQUENCE IS AS FOLLOWS:
000021:
000022:                                                                                                  #           TC     ALARM
000023:                                                                                                  #           OCT    AAANN           ALARM NO. NN IN GENERAL AREA AAA.
000024:                                                                                                  #                                  (RETURNS HERE)
000025:
000026:    5644                                           SETLOC   ENDPINBF
000027:    5644     1363                                  EBANK=   FAILREG
000028:
000029:    5644           00004        ALARM              INHINT
000030:    5645           56002                           XCH      Q
000031:    5646           54077                           TS       RUPTREG4
000032:
000033:    5647           11363                           CCS      FAILREG                               #  SEE IF ONE FAILURE HAS OCCURRED SINCE
000034:                                                                                                  #   THE LAST ERROR RESET.
000035:    5650           05656                           TC       MULTFAIL                              #  YES - INDICATE MULTIPLE FAILURES.
000036:    5651           05661                           TC       NEWALARM                              #  FIRST SINCE RESET.
000037:
000038:    5652           30077        MULTEXIT           CA       RUPTREG4                              #  FREE RUPTREG4 BEFORE RELINT.
000039:    5653           00003                           RELINT
000040:    5654           50000                           INDEX    A
000041:    5655           00001                           TC       1                                     #  RETURN TO CALLER.
000042:
000043:    5656           66042        MULTFAIL           AD       OCT40001                              #  BIT 15 = 1 INDICATES MULTIPLE FAILURES.
000044:    5657           55363                           TS       FAILREG
000045:    5660           05652                           TC       MULTEXIT
000046:
000047:    5661           05671        NEWALARM           TC       PROGLARM                              #  TURN ON THE PROGRAM ALARM LIGHT.
000048:
000049:    5662           34450                           CAF      PRIO37
000050:    5663           04276                           TC       NOVAC
000051:    5664           03113 02002                     2CADR    DOALARM                               #  CALL (SEPARATE) JOB FOR DISPLAY.
000052:
000053:    5666           50077                           INDEX    RUPTREG4
000054:    5667           30000                           CAF      0
000055:    5670           05657                           TC       MULTFAIL   +1
000056:
000057:    5671           45676        PROGLARM           CS       OCT40400                              #  TURN ON PROGRAM ALARM LIGHT VIA OUT0.
000058:    5672           70322                           MASK     DSPTAB     +11D
000059:    5673           65676                           AD       OCT40400
000060:    5674           54322                           TS       DSPTAB     +11D
000061:    5675           00002                           TC       Q
000062:
000063:    5676           40400        OCT40400           OCT      40400
000064:
000065:                                                                                                  #           THE FOLLOWING ROUTINE IS CALLED TO INITIATE AN ABORT. FAILREG IS SET (ACCORDING TO THE MULTIPLE
000066:                                                                                                  #  FAILURES CONVENTION) AND A RE-START IS INITIATED BY TC-SELF. THIS IS CALLED ONLY UNDER RARE CIRCUMSTANCES.
000067:
000068:    5677           00004        ABORT              INHINT                                         #  MAY BE CALLED IN INTERRUPT OR UNDER EXEC
000069:    5700           50002                           INDEX    Q                                     #  PICK UP FAILURE CODE.
000070:    5701           30000                           CAF      0
000071:    5702           54065                           TS       ITEMP1
000072:
000073:    5703           11363                           CCS      FAILREG                               #  SEE IF THIS IS A MULTIPLE FAILURE.
000074:    5704           05707                           TC       SETMULTF                              #  SET BIT 15 TO INDICATE YES.
000075:    5705           05711                           TC       NEWABORT                              #  FIRST FAILURE.
000076:
000077:    5706           05706        WHIMPER            TC       WHIMPER                               #  NOT WITH A BANG...
000078:
000079:    5707           66042        SETMULTF           AD       OCT40001                              #  RESTORE AND SET BIT 15.
000080:    5710           05713                           TC       +3
000081:
000082:    5711           05671        NEWABORT           TC       PROGLARM                              #  FIRST FAILURE - TURN ON ALARM LIGHT.
000083:    5712           56065                           XCH      ITEMP1
000084:    5713           55363                 +3        TS       FAILREG
000085:    5714           05706                           TC       WHIMPER                               #  UNIVERSAL ABORT LOCATION.
000086:
000087:    5715           56002        CCSHOLE            XCH      Q
000088:    5716           55364                           TS       SFAIL
000089:
000090:    5717           05677                           TC       ABORT
000091:    5720           01103                           OCT      1103
000092:
000093:    5721                        ENDFAILF           EQUALS
000094:
000095:                                                                                                  #           JOB WHICH CALLS NVSUB FOR ALARM DISPLAY.
000096:
000097: 01,3113                                           SETLOC   ENDKRURS
000098:
000099: 01,3113           05550        DOALARM            TC       GRABWAIT                              #  DISPLAY FAILREG.
000100: 01,3114           33117                           CAF      FAILDISP
000101: 01,3115           05563                           TC       NVSBWAIT
000102:
000103: 01,3116           04352                           TC       EJFREE                                #  FREE DISPLAY AND END JOB.
000104:
000105: 01,3117           00531        FAILDISP           OCT      00531
000106:
000107: 01,3120                        ENDFAILS           EQUALS

End of include-file ALARM_AND_ABORT.agc.  Parent file is MAIN.agc


