
Source Code


000002:                                                                                                  ## Copyright:   Public domain.
000003:                                                                                                  ## Filename:    CSM_AND_SATURN_INTEGRATED_TESTS.agc
000004:                                                                                                  ## Purpose:     A section of Sundial E.
000005:                                                                                                  ##              It is part of the reconstructed source code for the final
000006:                                                                                                  ##              release of the Block II Command Module system test software. No
000007:                                                                                                  ##              original listings of this program are available; instead, this
000008:                                                                                                  ##              file was created via disassembly of dumps of Sundial core rope
000009:                                                                                                  ##              modules and comparison with other AGC programs.
000010:                                                                                                  ## Assembler:   yaYUL
000011:                                                                                                  ## Contact:     Ron Burkey <info@sandroid.org>.
000012:                                                                                                  ## Website:     www.ibiblio.org/apollo/index.html
000013:                                                                                                  ## Mod history: 2023-06-22 MAS  Created from Aurora 12.
000014:                                                                                                  ##              2023-06-30 MAS  Updated for Sundial E.
000015:
000016:
000017:
000018: 07,2720                                           SETLOC   ENDINFSS
000019: 07,2720  E4,1407                                  EBANK=   JETSTEP
000020:
000021:                                                                                                  #  CSM & SATURN TESTS  ENTRY AND INITIALIZATION JOB.
000022:
000023:                                                                                                  #        THIS JOB INITIALIZES THE ERASABLE TABLES FOR THE CSM AND SATURN TESTS AND PUTS THE
000024:                                                                                                  #  FOLLOWING PROGRAMS UNDER WAITLIST CONTROL.
000025:                                                                                                  #             (1) RCS JET SET TASK
000026:                                                                                                  #             (2) ENGINE ON - OFF TASK
000027:                                                                                                  #             (3) SPS ENGINE GIMBAL TRIM TASK
000028:                                                                                                  #             (4) SATURN STEERING TASK
000029:                                                                                                  #             (5) INTERFACE CHANNEL LOOK TASK
000030:
000031:
000032: 07,2720           05550        CSISTART           TC       GRABWAIT                              #  SO NOTHING DISRUPTS THE LOAD.
000033: 07,2721           33155                           CAF      JSTEPADR                              #  THE START OF THE LIST.
000034: 07,2722           54003                           TS       EBANK
000035: 07,2723           10000        CSI3               CCS      A
000036: 07,2724           54142                           TS       MPAC       +2
000037: 07,2725           33163        CSI2               CAF      V04N01K                               #  DISPLAY PRESENT CONTENTS IN R2.
000038: 07,2726           05563                           TC       NVSBWAIT
000039: 07,2727           24142                           INCR     MPAC       +2
000040: 07,2730           33156                           CAF      V21N02K
000041: 07,2731           05563                           TC       NVSBWAIT                              #  IN CASE IT,S BUSY BUT IT SHOULDN,T BE.
000042: 07,2732           04724                           TC       ENDIDLE                               #  WHILE LOADING.
000043: 07,2733           02736                           TC       +3                                    #  V34E. TERMINATE LOAD OF THIS LIST
000044:                                                                                                  #  SECTION, GO TO NEW SECTION OR TO TEST.
000045: 07,2734           02735                           TC       +1                                    #  V33E. PRESENT CONTENTS OK, PROCEED TO
000046:                                                                                                  #  NEXT LOCATION IN LIST.
000047: 07,2735           02725                           TC       CSI2
000048: 07,2736           33157                           CAF      V21N30K
000049: 07,2737           05563                           TC       NVSBWAIT
000050: 07,2740           04724                           TC       ENDIDLE
000051: 07,2741           04352                           TC       EJFREE
000052: 07,2742           02745                           TC       CSI4
000053: 07,2743           30333                           CAE      DSPTEM1                               #  NEW ADDRESS.
000054: 07,2744           02723                           TC       CSI3
000055: 07,2745           47651        CSI4               CS       TWO
000056: 07,2746           61547                           AD       TESTIDX
000057: 07,2747           00006                           EXTEND
000058: 07,2750           62752                           BZMF     +2
000059: 07,2751           03152                           TC       TIDXALRM
000060:
000061: 07,2752           51547                           INDEX    TESTIDX
000062: 07,2753           02754                           TC       +1
000063: 07,2754           03114                           TC       CSITEST0
000064: 07,2755           02757                           TC       CSITEST1
000065: 07,2756           03054                           TC       CSITEST2
000066:
000067: 07,2757           37650        CSITEST1           CAF      BIT3
000068: 07,2760           00006                           EXTEND
000069: 07,2761           02030                           RAND     30
000070: 07,2762           10000                           CCS      A
000071: 07,2763           02765                           TC       +2
000072: 07,2764           02770                           TC       CMCCHECK
000073:
000074: 07,2765           33162                           CAF      OCT400
000075: 07,2766           03032                           TC       PERFORM
000076: 07,2767           02770                           TC       CMCCHECK
000077:
000078: 07,2770           00006        CMCCHECK           EXTEND
000079: 07,2771           00031                           READ     31
000080: 07,2772           10000                           CCS      A
000081: 07,2773           03002                           TC       NOOPTCHK
000082: 07,2774           03002                           TC       NOOPTCHK
000083: 07,2775           02776                           TC       +1
000084: 07,2776           33163                           CAF      OCT401
000085: 07,2777           03032                           TC       PERFORM
000086: 07,3000           02770                           TC       CMCCHECK
000087: 07,3001           03050                           TC       PERFFAIL
000088:
000089: 07,3002           37646        NOOPTCHK           CAF      BIT5
000090: 07,3003           00006                           EXTEND
000091: 07,3004           02033                           RAND     33
000092: 07,3005           10000                           CCS      A
000093: 07,3006           03013                           TC       CSI1STRT
000094: 07,3007           33165                           CAF      OCT403
000095: 07,3010           03032                           TC       PERFORM
000096: 07,3011           03002                           TC       NOOPTCHK
000097: 07,3012           03050                           TC       PERFFAIL
000098:
000099: 07,3013           37660        CSI1STRT           CAF      NEG0
000100: 07,3014           54350                           TS       OPTIND
000101:
000102: 07,3015           47651                           CS       BIT2
000103: 07,3016           00006                           EXTEND
000104: 07,3017           03012                           WAND     12
000105:
000106: 07,3020           37657                           CAF      ZERO
000107: 07,3021           54053                           TS       OPTYCMD
000108: 07,3022           54054                           TS       OPTXCMD
000109:
000110: 07,3023           00004                           INHINT
000111: 07,3024           37652                           CAF      ONE
000112: 07,3025           04451                           TC       WAITLIST
000113: 07,3026           03363 16004                     2CADR    TRIMTOP
000114:
000115: 07,3030           00003                           RELINT
000116: 07,3031           03114                           TC       CSITEST0
000117:
000118:
000119: 07,3032           54333        PERFORM            TS       DSPTEM1
000120: 07,3033           00006                           EXTEND
000121: 07,3034           23400                           QXCH     QCSI
000122: 07,3035           33161                           CAF      V01N25K
000123: 07,3036           05563                           TC       NVSBWAIT
000124: 07,3037           34420                           CAF      VB50                                  #  PLEASE PERFORM.
000125: 07,3040           05563                           TC       NVSBWAIT
000126: 07,3041           05525                           TC       FLASHON                               #  ANY RESPONSE TURNS IT OFF.
000127: 07,3042           04724                           TC       ENDIDLE                               #  WAIT FOR SOMEONE TO DO SOMETHING.
000128: 07,3043           04352                           TC       EJFREE                                #  V34E. TERMINATE THE TASK.
000129: 07,3044           03046                           TC       +2                                    #  V33E. RETURN TO Q +1.
000130: 07,3045           01400                           TC       QCSI                                  #  ENTER. RETURN TO Q.
000131: 07,3046           51400                           INDEX    QCSI
000132: 07,3047           00001                           TC       1
000133:
000134: 07,3050           05644        PERFFAIL           TC       ALARM
000135: 07,3051           01404                           OCT      01404
000136: 07,3052           05474                           TC       FALTON
000137: 07,3053           04352                           TC       EJFREE
000138:
000139:
000140:
000141: 07,3054           03136        CSITEST2           TC       ICDUCHK
000142: 07,3055           03057                           TC       +2
000143: 07,3056           04352                           TC       EJFREE
000144:
000145: 07,3057           37641                           CAF      BIT10
000146: 07,3060           00006                           EXTEND
000147: 07,3061           02030                           RAND     30
000148: 07,3062           10000                           CCS      A
000149: 07,3063           03065                           TC       +2
000150: 07,3064           03071                           TC       CSI2STRT
000151:
000152: 07,3065           33164                           CAF      OCT402
000153: 07,3066           03032                           TC       PERFORM
000154: 07,3067           03054                           TC       CSITEST2
000155: 07,3070           03050                           TC       PERFFAIL
000156:
000157: 07,3071           11561        CSI2STRT           CCS      NOSIVBNJ
000158: 07,3072           03076                           TC       +4
000159: 07,3073           37636                           CAF      BIT13
000160: 07,3074           00006                           EXTEND
000161: 07,3075           05012                           WOR      12
000162:
000163: 07,3076           47645                           CS       BIT6
000164: 07,3077           00006                           EXTEND
000165: 07,3100           03012                           WAND     12
000166:
000167: 07,3101           00004                           INHINT
000168: 07,3102           33166                           CAF      .5SEC
000169: 07,3103           04451                           TC       WAITLIST
000170: 07,3104           03522 16004                     2CADR    SATSTART
000171:
000172: 07,3106           00003                           RELINT
000173:
000174: 07,3107           37657                           CAF      ZERO
000175: 07,3110           54050                           TS       CDUXCMD
000176: 07,3111           54051                           TS       CDUYCMD
000177: 07,3112           54052                           TS       CDUZCMD
000178:
000179: 07,3113           03126                           TC       CSITEST3
000180:
000181: 07,3114           00004        CSITEST0           INHINT
000182: 07,3115           37651                           CAF      TWO
000183: 07,3116           04451                           TC       WAITLIST
000184: 07,3117           03213 16004                     2CADR    JETSTART
000185:
000186: 07,3121           37652                           CAF      ONE
000187: 07,3122           04451                           TC       WAITLIST
000188: 07,3123           03272 16004                     2CADR    ENGSTART
000189:
000190: 07,3125           00003                           RELINT
000191:
000192: 07,3126           37227        CSITEST3           CAF      FIVE
000193: 07,3127           00004                           INHINT
000194: 07,3130           04451                           TC       WAITLIST
000195: 07,3131           03755 16004                     2CADR    LOOKTOP
000196:
000197: 07,3133           33160                           CAF      V47K
000198: 07,3134           05563                           TC       NVSBWAIT
000199: 07,3135           04352                           TC       EJFREE
000200:
000201: 07,3136           00006        ICDUCHK            EXTEND
000202: 07,3137           23400                           QXCH     QCSI
000203: 07,3140           37666                           CAF      OCTHIRTY
000204: 07,3141           00006                           EXTEND
000205: 07,3142           02012                           RAND     12
000206: 07,3143           10000                           CCS      A
000207: 07,3144           03146                           TC       +2
000208: 07,3145           01400                           TC       QCSI
000209:
000210: 07,3146           05644                           TC       ALARM
000211: 07,3147           01405                           OCT      01405
000212: 07,3150           51400                           INDEX    QCSI
000213: 07,3151           00001                           TC       1
000214:
000215: 07,3152           05644        TIDXALRM           TC       ALARM
000216: 07,3153           01401                           OCT      01401
000217: 07,3154           04352                           TC       EJFREE
000218:
000219: 07,3155           02007        JSTEPADR           ECADR    JETSTEP
000220: 07,3156           02102        V21N02K            OCT      02102
000221: 07,3157           02130        V21N30K            OCT      02130
000222: 07,3160           04700        V47K               OCT      04700
000223: 07,3161           00125        V01N25K            OCT      00125
000224: 07,3162           00400        OCT400             OCT      400
000225: 07,3163           00401        OCT401             OCT      401
000226: 07,3164  07,3163               V04N01K            =        OCT401
000227: 07,3164           00402        OCT402             OCT      402
000228: 07,3165           00403        OCT403             OCT      403
000229: 07,3166           00062        .5SEC              DEC      50         B-14
000230: 07,3167           70000        SATMASK            OCT      70000
000231:
000232:                                                                                                  #  CSM & SATURN TESTS   RCS JETSET TASK
000233:                                                                                                  #      THIS JOB ISSUES A PROFILE OF  JET ON-OFF SIGNALS AS DETERMINED BY THE CONSTANTS IN A SET OF SIX REGISTERS.
000234:                                                                                                  #  THE SIX REGISTERS ARE, (1) NTIMES, THE NUMBER OF TIMES A PARTICULAR STEP WILL BE PERFORMED. (2) NEXTTIME, THE
000235:                                                                                                  #  TIME BETWEEN STEPS, A MAXIMUM OF 2 MINUTES, (3) JETONTM, THE TIME TO TURN THE JETS ON, SCALED FOR T3, (4) JET-
000236:                                                                                                  #  OFFTM, THE TIME AFTER ONTM TO TURN THE JETS OFF, (5) XJETS, THE PARTICULAR X JETS TO BE TURNED ON AND OFF
000237:                                                                                                  #  DURING EACH REPEAT OF A STEP, AND (6) YZJETS,, THE Y AND Z JETS TO BE TURNED ON AND OFF DURING EACH REPEAT OF A
000238:                                                                                                  #  STEP.  XJETS AND YZJETS MUST BE IN THE SAME FORMAT AS CHANNELS 5 AND6 RESPECTIVELY.  THERE ARE EIGHT SETS OF
000239:                                                                                                  #  THESE SIX REGISTERS.
000240:                                                                                                  #      THE REGISTER JETSTEP IS USED TO INDEX THE 8 SETS OF REGISTERS, THE ALLOWABLE VALUES OF JETSTEP ARE +0 THRU 7
000241:                                                                                                  #      THIS JOB WILL BE ENTERED BUT IMMEDIATELY ENDED IF THE INITIAL VALUES OF JETSTEP AND NTIMES ARE +0.
000242:
000243: 07,3170           00006        JTENGCHK           EXTEND
000244: 07,3171           63173                           BZMF     JTENGALM
000245: 07,3172           00002                           TC       Q
000246: 07,3173           05644        JTENGALM           TC       ALARM
000247: 07,3174           01402                           OCT      1402
000248: 07,3175           04505                           TC       TASKOVER
000249:
000250: 07,3176           00006        STEERCHK           EXTEND
000251: 07,3177           63201                           BZMF     STEERALM
000252: 07,3200           00002                           TC       Q
000253: 07,3201           05644        STEERALM           TC       ALARM
000254: 07,3202           01403                           OCT      1403
000255: 07,3203           51547                           INDEX    TESTIDX
000256: 07,3204           00000                           TC       0
000257: 07,3205           03466                           TC       TRIMSTOP
000258: 07,3206           03667                           TC       SATSTOP
000259:
000260: 07,3207           11407        NEXTSET            CCS      JETSTEP                               #  IT MAY BE ZERO.
000261: 07,3210           03212                           TC       +2                                    #  NOPE
000262: 07,3211           04505                           TC       TASKOVER                              #  IT IS SO WE ARE DONE WITH THIS TASK.
000263: 07,3212           55407                           TS       JETSTEP
000264:
000265: 07,3213           47656        JETSTART           CS       SEVEN
000266: 07,3214           61407                           AD       JETSTEP
000267: 07,3215           00006                           EXTEND
000268: 07,3216           63220                           BZMF     +2
000269: 07,3217           03173                           TC       JTENGALM
000270:
000271: 07,3220           51407                           NDX      JETSTEP                               #  ENTER HERE.
000272: 07,3221           11410                           CCS      NTIMES                                #  SEE IF THIS STEP IS FINISHED.
000273: 07,3222           03224                           TC       +2                                    #  NO
000274: 07,3223           03207                           TC       NEXTSET                               #  YES
000275: 07,3224           51407                           NDX      JETSTEP
000276: 07,3225           31420                           CAE      NEXTTIME                              #  MUST BE SCALED FOR T3.  REMEMBER TO BIAS
000277:                                                                                                  #  THIS FOR ON TIME.
000278: 07,3226           03170                           TC       JTENGCHK
000279: 07,3227           04472                           TC       VARDELAY
000280:
000281: 07,3230           51407        JTOP               NDX      JETSTEP
000282: 07,3231           11410                           CCS      NTIMES                                #  FOR LOOPING.
000283: 07,3232           03234                           TC       +2
000284: 07,3233           03207                           TC       NEXTSET
000285: 07,3234           51407                           NDX      JETSTEP
000286: 07,3235           31430                           CAE      JETONTM                               #  SCALED FOR T3.  TIME FOR JETS ON.
000287: 07,3236           03170                           TC       JTENGCHK
000288: 07,3237           04472                           TC       VARDELAY
000289:
000290: 07,3240           51407        JETON              NDX      JETSTEP
000291: 07,3241           31440                           CAE      XJETS                                 #  MUST BE IN CHANNEL 5 FORMAT.
000292: 07,3242           00006                           EXTEND
000293: 07,3243           01005                           WRITE    5
000294: 07,3244           51407                           NDX      JETSTEP
000295: 07,3245           31450                           CAE      YZJETS                                #  MUST BE IN CHANNEL 6 FORMAT.
000296: 07,3246           00006                           EXTEND
000297: 07,3247           01006                           WRITE    6
000298: 07,3250           51407                           NDX      JETSTEP
000299: 07,3251           31460                           CAE      JETOFFTM
000300: 07,3252           03170                           TC       JTENGCHK
000301: 07,3253           04472                           TC       VARDELAY
000302:
000303: 07,3254           37657        JETOFF             CAF      ZERO
000304: 07,3255           00006                           EXTEND
000305: 07,3256           01005                           WRITE    5
000306: 07,3257           00006                           EXTEND
000307: 07,3260           01006                           WRITE    6
000308: 07,3261           51407                           NDX      JETSTEP
000309: 07,3262           11410                           CCS      NTIMES
000310: 07,3263           51407                           NDX      JETSTEP
000311: 07,3264           55410                           TS       NTIMES                                #  ONE LESS TIME.
000312: 07,3265           03230                           TC       JTOP
000313:
000314:                                                                                                  #  CSM & SATURN TESTS  ENGINE ON - OFF TASK
000315:                                                                                                  #  THIS TASK TURNS THE CSM SPS ENGINE ON AND OFF ACCORDING TO THE CONSTANTS STORED IN THE FIVE SETS OF
000316:                                                                                                  #  REGISTERS, (1) CYLTIMES, WHICH CONTAINS THE NUMBER OF TIMES A PARTICULARSTEP WILL BE REPEATED, (2) NEXTCYLT,
000317:                                                                                                  #   WHICH CONTAINS THE TIME BETWEEN STEPS SCALED FOR T3, (3) ONTIME, WHICH CONTAINS THE TIME TO TURN THE ENGINE ON
000318:                                                                                                  #  WHICH ALSO DETERMINES THE LENGTH OF TIME THE ENGIME WILL BE OFF WITHIN A SERIES OF ON:OFF CYCLES, (4) OFFTIME,
000319:                                                                                                  #   WHICH CONTAINS THE NUMBER OF 2 MINUTES BEFORE THE ENGINE WILL BE TURNED OFF, AND (5) OFFTIMER, WHICH
000320:                                                                                                  #  CONTAINS THE RESIDUAL TIME BEFORE THE ENGINE WILL BE TURNED OFF.  OFFTIME AND OFFTIMER DETERMINE THE LENGTH
000321:                                                                                                  #  OF TIME THE ENGINE WILL BE ON IN ANY ONE CYCLE. THERE ARE THREE SETS OF THESE REGISTERS.
000322:                                                                                                  #      THE ENGSTEP REGISTER IS USED AS AN INDEX TO PICK UP A PARTICULAR SET  OF THE ABOVE 5 REGISTERS.  THIS TASK
000323:                                                                                                  #  WILL BE ENTERED BUT IMMEDIATELY ENDED IF ENGSTEP AND CYLTIMES = +0.     THE ALLOWABLE VALUES OF ENGSTEP ARE +0,
000324:                                                                                                  #  1 AND 2.
000325:
000326: 07,3266           11470        NXTONOFF           CCS      ENGSTEP
000327: 07,3267           03271                           TC       +2
000328: 07,3270           04505                           TC       TASKOVER                              #  EXIT HERE WHEN STEP AND CYL ARE +0.
000329: 07,3271           55470                           TS       ENGSTEP                               #  ONE LESS.
000330:
000331: 07,3272           37662        ENGSTART           CAF      NEG2
000332: 07,3273           61470                           AD       ENGSTEP
000333: 07,3274           00006                           EXTEND
000334: 07,3275           63277                           BZMF     +2
000335: 07,3276           03173                           TC       JTENGALM
000336:
000337: 07,3277           51470                           NDX      ENGSTEP                               #  ENTER HERE.
000338: 07,3300           11471                           CCS      CYLTIMES                              #  NUM OF EACH  ON/OFF SET
000339: 07,3301           03303                           TC       +2
000340: 07,3302           03266                           TC       NXTONOFF                              #  NO MORE OF THIS SET
000341: 07,3303           51470                           NDX      ENGSTEP
000342: 07,3304           31474                           CAE      NEXTCYLT                              #  START OF NEXT CYCLE.
000343: 07,3305           03170                           TC       JTENGCHK
000344: 07,3306           04472                           TC       VARDELAY
000345:
000346: 07,3307           51470        ENGONTM            NDX      ENGSTEP
000347: 07,3310           31502                           CAE      OFFTIME
000348: 07,3311           55406                           TS       OFFTMBUF
000349: 07,3312           51470                           NDX      ENGSTEP
000350: 07,3313           31477                           CAE      ONTIME
000351: 07,3314           03170                           TC       JTENGCHK
000352: 07,3315           04472                           TC       VARDELAY
000353:
000354: 07,3316           44441        ENGSET             CS       PRIO30
000355: 07,3317           00006                           EXTEND
000356: 07,3320           02011                           RAND     11
000357: 07,3321           67636                           AD       BIT13
000358: 07,3322           00006                           EXTEND
000359: 07,3323           01011                           WRITE    11                                    #  ENG ON = 1, ENG OFF = 0.
000360: 07,3324           11406        ENGRST             CCS      OFFTMBUF
000361: 07,3325           03351                           TC       LTIMEON                               #  AT LEAST 2MIN. BEFORE ENGINE OFF.
000362: 07,3326           51470                           NDX      ENGSTEP
000363: 07,3327           31505                           CAE      OFFTIMER                              #  LESS THAN 2MIN. TO ENGINE OFF.
000364: 07,3330           03170                           TC       JTENGCHK
000365: 07,3331           04472                           TC       VARDELAY
000366:
000367: 07,3332           44441        ENGRESET           CS       PRIO30                                #  BITS 13 AND 14.
000368: 07,3333           00006                           EXTEND
000369: 07,3334           02011                           RAND     11
000370: 07,3335           67635                           AD       BIT14
000371: 07,3336           00006                           EXTEND
000372: 07,3337           01011                           WRITE    11                                    #  ENG ON = 0, ENG OFF = 1.
000373: 07,3340           51470                           NDX      ENGSTEP
000374: 07,3341           11471                           CCS      CYLTIMES
000375: 07,3342           10000                           CCS      A
000376: 07,3343           03345                           TC       +2
000377: 07,3344           03266                           TC       NXTONOFF                              #  WAS ONE.
000378: 07,3345           67652                           AD       ONE                                   #  WAS MORE THAN ONE.
000379: 07,3346           51470                           NDX      ENGSTEP
000380: 07,3347           55471                           TS       CYLTIMES
000381: 07,3350           03307                           TC       ENGONTM
000382:
000383: 07,3351           11406        LTIMEON            CCS      OFFTMBUF                              #  IS THERE ANY MORE.
000384: 07,3352           03354                           TC       +2                                    #  YES.
000385: 07,3353           03324                           TC       ENGRST                                #  NO.
000386: 07,3354           55406                           TS       OFFTMBUF
000387: 07,3355           33362                           CAF      2MIN
000388: 07,3356           04451                           TC       WAITLIST
000389: 07,3357  E4,1470                                  EBANK=   ENGSTEP
000390: 07,3357           03351 16004                     2CADR    LTIMEON
000391:
000392: 07,3361           04505                           TC       TASKOVER
000393:
000394: 07,3362           27340        2MIN               DEC      12000      B-14
000395:
000396:                                                                                                  #  CSM & SATURN TESTS  TRIM TASK
000397:                                                                                                  #  THIS PROGRAM ISSUES A PROFILE OF PITCH AND ROLL TRIM COMMANDS TO THE SPS ENGINE GIMBAL IN ACCORDANCEWITH
000398:                                                                                                  #  THE VALUE S IN THE TRIMSTEP REGISTER AND THE 12 SETS OF 5 REGISTERS CALLED NUMTIMES, STEPDLYT, TRIMONT, TRIMOFFT
000399:                                                                                                  #  AND TRIMIND.  TRIMSTEP IS USED TO PICK UP A PARTICULAR SET OF THE 5 REGISTERS AND HAS ALLOWABLE VALUES FROM +0
000400:                                                                                                  #  THROUGH +11 DECIMAL.  THE 5 REGISTERS IN EACH SET ARE DEFINED AS FOLLOWS
000401:                                                                                                  #      (1) NUMTIMES DETERMINES THE NUMBER OF TIMES THE COMMAND IN TRIMIND  WILL BE ISSUED.  VALUES FROM +0 TO
000402:                                                                                                  #  OCT 37777 ARE PERMITTED.
000403:                                                                                                  #      (2) STEPDLYT DETERMINES THE TIME BETWEEN THE START OF A STEP AND THE BEGINNING OF TRIMONT.  STEPDLYT MUST BE
000404:                                                                                                  #  FORMATTED FOR T3, ITS MAXIMUM VALUE IS 2 MINUTES.
000405:                                                                                                  #      (3) TRIMONT DETERMINES THE TIME BETWEEN THE END OF STEPDLYT OR TRIMOFFT AND THE TIME THE TRIM COMMANDS ARE
000406:                                                                                                  #  ISSUED.  IT MUST BE FORMATTED FOR T3.
000407:                                                                                                  #      (4) TRIMOFFT DETERMINES THE LENGTH OF TIME THE TRIM COMMAND WILL BE ON, FORMATTED FOR T3.
000408:                                                                                                  #      (5) TRIMIND DETERMINES THE PITCH AND ROLL COMMAND TO BE ISSUED.  THE FORMAT IS, BIT9=1=+ PITCH COMMAND,
000409:                                                                                                  #  BIT10=1=-PITCH, BIT11=1= +ROLL, BIT12=1= -ROLL.  A BIT=0 INDICATES NO COMMAND.  ANY COMBINATION OF COMMANDS IS
000410:                                                                                                  #  PERMITTED.
000411:                                                                                                  #     THIS TASK WILL BE ENTERED BUT IMMEDIATELY ENDED IF TRIMSTEP AND NUMTIMES = +0.
000412:
000413: 07,3363           37643        TRIMTOP            CAF      BIT8                                  #  ENTER HERE.
000414: 07,3364           00006                           EXTEND
000415: 07,3365           05012                           WOR      12
000416: 07,3366           37227                           CAF      FIVE
000417: 07,3367           04472                           TC       VARDELAY
000418:
000419: 07,3370           37651                           CAF      BIT2
000420: 07,3371           00006                           EXTEND
000421: 07,3372           05012                           WOR      12
000422:
000423: 07,3373           33166                           CAF      .5SEC
000424: 07,3374           04472                           TC       VARDELAY
000425:
000426: 07,3375           47227        TRIMTOP1           CS       FIVE
000427: 07,3376           61510                           AD       TRIMSTEP
000428: 07,3377           00006                           EXTEND
000429: 07,3400           63402                           BZMF     +2
000430: 07,3401           03201                           TC       STEERALM
000431:
000432: 07,3402           51510                           NDX      TRIMSTEP
000433: 07,3403           11511                           CCS      NUMTIMES
000434: 07,3404           03406                           TC       +2
000435: 07,3405           03515                           TC       NEXTTRIM
000436: 07,3406           51510                           NDX      TRIMSTEP
000437: 07,3407           31517                           CAE      STEPDLYT
000438: 07,3410           03176                           TC       STEERCHK
000439: 07,3411           04472                           TC       VARDELAY
000440:
000441: 07,3412           51510        TRIMSET            NDX      TRIMSTEP
000442: 07,3413           31525                           CAE      TRIMONT
000443: 07,3414           03176                           TC       STEERCHK
000444: 07,3415           04472                           TC       VARDELAY
000445:
000446: 07,3416           51510        TRIMON             NDX      TRIMSTEP
000447: 07,3417           31533                           CAE      TRIMPTCH
000448: 07,3420           54054                           TS       OPTXCMD
000449: 07,3421           51510                           NDX      TRIMSTEP
000450: 07,3422           31541                           CAE      TRIMYAW
000451: 07,3423           54053                           TS       OPTYCMD
000452:
000453: 07,3424           00006                           EXTEND
000454: 07,3425           63427                           BZMF     +2
000455: 07,3426           03430                           TC       +2
000456: 07,3427           40000                           COM
000457: 07,3430           55405                           TS       TRIMYBUF
000458:
000459: 07,3431           40054                           CS       OPTXCMD
000460: 07,3432           00006                           EXTEND
000461: 07,3433           63435                           BZMF     +2
000462: 07,3434           03436                           TC       +2
000463: 07,3435           40000                           COM
000464: 07,3436           00006                           EXTEND
000465: 07,3437           61405                           SU       TRIMYBUF
000466: 07,3440           10000                           CCS      A
000467: 07,3441           03445                           TC       +4
000468: 07,3442           03453                           TC       TRIMUSEY
000469: 07,3443           03453                           TC       TRIMUSEY
000470: 07,3444           03453                           TC       TRIMUSEY
000471:
000472: 07,3445           40054                           CS       OPTXCMD
000473: 07,3446           00006                           EXTEND
000474: 07,3447           63451                           BZMF     +2
000475: 07,3450           03454                           TC       TRIMUSEP
000476: 07,3451           40000                           COM
000477: 07,3452           03454                           TC       TRIMUSEP
000478:
000479: 07,3453           31405        TRIMUSEY           CA       TRIMYBUF
000480:
000481: 07,3454           00006        TRIMUSEP           EXTEND
000482: 07,3455           77641                           MP       BIT10
000483: 07,3456           63166                           AD       .5SEC
000484: 07,3457           04451                           TC       WAITLIST
000485: 07,3460           03504 16004                     2CADR    NUMSTEP
000486:
000487: 07,3462           34421                           CAF      11,12
000488: 07,3463           00006                           EXTEND
000489: 07,3464           05014                           WOR      14                                    #  TRIM STARTS.
000490:
000491: 07,3465           04505                           TC       TASKOVER
000492:
000493: 07,3466           47643        TRIMSTOP           CS       BIT8                                  #  TRIM GOES OFF.
000494: 07,3467           00006                           EXTEND
000495: 07,3470           03012                           WAND     12
000496:
000497: 07,3471           37227                           CAF      FIVE
000498: 07,3472           04472                           TC       VARDELAY
000499:
000500: 07,3473           47651                           CS       BIT2
000501: 07,3474           00006                           EXTEND
000502: 07,3475           03012                           WAND     12
000503:
000504: 07,3476           37657                           CAF      ZERO
000505: 07,3477           54054                           TS       OPTXCMD
000506: 07,3500           54053                           TS       OPTYCMD
000507:
000508: 07,3501           37661                           CAF      NEGONE
000509: 07,3502           54350                           TS       OPTIND
000510: 07,3503           04505                           TC       TASKOVER
000511:
000512: 07,3504           51510        NUMSTEP            NDX      TRIMSTEP
000513: 07,3505           11511                           CCS      NUMTIMES
000514: 07,3506           10000                           CCS      A
000515: 07,3507           03511                           TC       +2
000516: 07,3510           03515                           TC       NEXTTRIM                              #  WAS ONE.
000517: 07,3511           67652                           AD       ONE
000518: 07,3512           51510                           NDX      TRIMSTEP
000519: 07,3513           55511                           TS       NUMTIMES
000520: 07,3514           03412                           TC       TRIMSET
000521:
000522: 07,3515           11510        NEXTTRIM           CCS      TRIMSTEP
000523: 07,3516           03520                           TC       +2
000524: 07,3517           03466                           TC       TRIMSTOP                              #  EXIT HERE.
000525: 07,3520           55510                           TS       TRIMSTEP                              #  LESS ONE.
000526: 07,3521           03375                           TC       TRIMTOP1
000527:
000528: 07,3522           37642        SATSTART           CAF      BIT9
000529: 07,3523           00006                           EXTEND
000530: 07,3524           05012                           WOR      12
000531:
000532: 07,3525           47636                           CS       BIT13
000533: 07,3526           00006                           EXTEND
000534: 07,3527           03012                           WAND     12
000535:
000536: 07,3530           37227                           CAF      FIVE
000537: 07,3531           04472                           TC       VARDELAY
000538:
000539: 07,3532           37645                           CAF      BIT6
000540: 07,3533           00006                           EXTEND
000541: 07,3534           05012                           WOR      12
000542:
000543: 07,3535           33166                           CAF      .5SEC
000544: 07,3536           04472                           TC       VARDELAY
000545:
000546: 07,3537           47655        SATSTRT1           CS       NINE
000547: 07,3540           61562                           AD       SATSTEP
000548: 07,3541           00006                           EXTEND
000549: 07,3542           63544                           BZMF     +2
000550: 07,3543           03201                           TC       STEERALM
000551:
000552: 07,3544           51562                           NDX      SATSTEP
000553: 07,3545           11563                           CCS      SATTIMES
000554: 07,3546           03550                           TC       +2
000555: 07,3547           03725                           TC       NEXTSAT
000556: 07,3550           51562                           NDX      SATSTEP
000557: 07,3551           31575                           CAE      SATDELAY
000558: 07,3552           03176                           TC       STEERCHK
000559: 07,3553           04472                           TC       VARDELAY
000560:
000561: 07,3554           51562        SATSET             NDX      SATSTEP
000562: 07,3555           31607                           CAE      SATONT
000563: 07,3556           03176                           TC       STEERCHK
000564: 07,3557           04472                           TC       VARDELAY
000565:
000566: 07,3560           03136                           TC       ICDUCHK
000567: 07,3561           03563                           TC       +2
000568: 07,3562           03667                           TC       SATSTOP
000569: 07,3563           51562                           NDX      SATSTEP
000570: 07,3564           31621                           CAE      SATPITCH
000571: 07,3565           54051                           TS       CDUYCMD
000572: 07,3566           51562                           NDX      SATSTEP
000573: 07,3567           31633                           CAE      SATYAW
000574: 07,3570           54052                           TS       CDUZCMD
000575: 07,3571           51562                           NDX      SATSTEP
000576: 07,3572           31645                           CAE      SATROLL
000577: 07,3573           54050                           TS       CDUXCMD
000578:
000579: 07,3574           00006                           EXTEND
000580: 07,3575           63577                           BZMF     +2
000581: 07,3576           03600                           TC       +2
000582: 07,3577           40000                           COM
000583: 07,3600           55403                           TS       SATRBUF
000584:
000585: 07,3601           30051                           CA       CDUYCMD
000586: 07,3602           00006                           EXTEND
000587: 07,3603           63605                           BZMF     +2
000588: 07,3604           03606                           TC       +2
000589: 07,3605           40000                           COM
000590: 07,3606           55401                           TS       SATPBUF
000591: 07,3607           00006                           EXTEND
000592: 07,3610           61403                           SU       SATRBUF
000593: 07,3611           10000                           CCS      A
000594: 07,3612           03616                           TC       +4
000595: 07,3613           03633                           TC       SATCHKRY
000596: 07,3614           03633                           TC       SATCHKRY
000597: 07,3615           03633                           TC       SATCHKRY
000598:
000599: 07,3616           30052                           CA       CDUZCMD
000600: 07,3617           00006                           EXTEND
000601: 07,3620           63622                           BZMF     +2
000602: 07,3621           03623                           TC       +2
000603: 07,3622           40000                           COM
000604: 07,3623           55402                           TS       SATYBUF
000605:
000606: 07,3624           00006                           EXTEND
000607: 07,3625           61401                           SU       SATPBUF
000608: 07,3626           10000                           CCS      A
000609: 07,3627           03654                           TC       SATUSEY
000610: 07,3630           03650                           TC       SATUSEP
000611: 07,3631           03650                           TC       SATUSEP
000612: 07,3632           03650                           TC       SATUSEP
000613:
000614: 07,3633           30052        SATCHKRY           CA       CDUZCMD
000615: 07,3634           00006                           EXTEND
000616: 07,3635           63637                           BZMF     +2
000617: 07,3636           03640                           TC       +2
000618: 07,3637           40000                           COM
000619: 07,3640           55402                           TS       SATYBUF
000620:
000621: 07,3641           00006                           EXTEND
000622: 07,3642           61403                           SU       SATRBUF
000623: 07,3643           10000                           CCS      A
000624: 07,3644           03654                           TC       SATUSEY
000625: 07,3645           03652                           TC       SATUSER
000626: 07,3646           03652                           TC       SATUSER
000627: 07,3647           03652                           TC       SATUSER
000628:
000629: 07,3650           31401        SATUSEP            CA       SATPBUF
000630: 07,3651           03655                           TC       SATSTEER
000631:
000632: 07,3652           31403        SATUSER            CA       SATRBUF
000633: 07,3653           03655                           TC       SATSTEER
000634:
000635: 07,3654           31402        SATUSEY            CA       SATYBUF
000636:
000637: 07,3655           00006        SATSTEER           EXTEND
000638: 07,3656           77641                           MP       BIT10
000639: 07,3657           63166                           AD       .5SEC
000640: 07,3660           04451                           TC       WAITLIST
000641: 07,3661           03714 16004                     2CADR    STEERSTP
000642:
000643: 07,3663           33167                           CAF      SATMASK
000644: 07,3664           00006                           EXTEND
000645: 07,3665           05014                           WOR      14
000646: 07,3666           04505                           TC       TASKOVER
000647:
000648: 07,3667           47642        SATSTOP            CS       BIT9
000649: 07,3670           00006                           EXTEND
000650: 07,3671           03012                           WAND     12
000651:
000652: 07,3672           37227                           CAF      FIVE
000653: 07,3673           04472                           TC       VARDELAY
000654:
000655: 07,3674           47645                           CS       BIT6
000656: 07,3675           00006                           EXTEND
000657: 07,3676           03012                           WAND     12
000658:
000659: 07,3677           37657                           CAF      ZERO
000660: 07,3700           54050                           TS       CDUXCMD
000661: 07,3701           54051                           TS       CDUYCMD
000662: 07,3702           54052                           TS       CDUZCMD
000663:
000664: 07,3703           37635                           CAF      BIT14
000665: 07,3704           00006                           EXTEND
000666: 07,3705           05012                           WOR      12
000667:
000668: 07,3706           33166                           CAF      .5SEC
000669: 07,3707           04472                           TC       VARDELAY
000670:
000671: 07,3710           47635                           CS       BIT14
000672: 07,3711           00006                           EXTEND
000673: 07,3712           03012                           WAND     12
000674:
000675: 07,3713           04505                           TC       TASKOVER
000676:
000677: 07,3714           51562        STEERSTP           NDX      SATSTEP
000678: 07,3715           11563                           CCS      SATTIMES
000679: 07,3716           10000                           CCS      A
000680: 07,3717           03721                           TC       +2
000681: 07,3720           03725                           TC       NEXTSAT
000682: 07,3721           67652                           AD       ONE
000683: 07,3722           51562                           NDX      SATSTEP
000684: 07,3723           55563                           TS       SATTIMES
000685: 07,3724           03554                           TC       SATSET
000686:
000687: 07,3725           11562        NEXTSAT            CCS      SATSTEP
000688: 07,3726           03730                           TC       +2
000689: 07,3727           03667                           TC       SATSTOP
000690: 07,3730           55562                           TS       SATSTEP
000691: 07,3731           03537                           TC       SATSTRT1
000692:
000693:
000694:                                                                                                  #  CSM & SATURN TESTS  INTERFACE LOOK TASK.
000695:
000696:                                                                                                  #      THIS PROGRAM KEEPS A RUNNING HISTORY OF THE STATE OF ALL THE BITS IN INPUT CHANNELS 30, 31, 32 AND 33.
000697:                                                                                                  #  IT DOES THIS BY DETECTING A CHANGE OF AN INPUT BIT FROM AN INITIAL ONE STATE TO A ZERO STATE OR FROM AN INITIAL
000698:                                                                                                  #  ZERO TO A ONE.  THE HISTORY IS MAINTAINED IN TWO BUFFER REGISTERS FOR EACH CHANNEL, ONE FOR STORING ONE TO ZERO
000699:                                                                                                  #  CHANGES (30BUF1, +1, +2, AND +3) AND ONE FOR ZERO TO ONE CHANGES (30BUF0, +1 +2 AND +3).  THE OPERATOR MUST
000700:                                                                                                  #  LOAD THE INITIAL STATES OF THE INPUT CHANNELS INTO THEIR RESPECTIVE BUFFER REGISTERS BEFORE THIS PROGRAM IS IN-
000701:                                                                                                  #  ITIATED.
000702:                                                                                                  #      TO ALLOW THIS PROGRAM TO RUN C(QUITLOOK) MUST BE SET GREATER THAN +0 BEFORE IT IS STARTED.  IF THE OPERATOR
000703:                                                                                                  #  DOES NOT DESIRE THIS PROGRAM TO RUN HE SHOULD SET C(QUITLOOK)=+0 BEFORE STARTING THE FCS TEST.  AFTER THIS TASK
000704:                                                                                                  #  IS RUNNING THE OPERATOR CAN STOP IT BY SETTING C(QUITLOOK) = +0.
000705:                                                                                                  #      NO DISPLAYS OF EITHER THE BUFFER REGISTERS OR CHANNELS ARE INCORPORATED INTO THIS PROGRAM.  THIS WAS DONE TO
000706:                                                                                                  #  ALLOW THE TEST OPERATOR MONITORING FLEXIBILITY.  FOR REAL TIME MONITORING IT IS SUGGESTED THAT THE BUFFER
000707:                                                                                                  #  REGISTERS BE DISPLAYED WITH THE MONITOR VERBS (11 THROUGH 15).  ON THE OTHER HAND, THE OPERATOR MAY ELECT TO
000708:                                                                                                  #  PERFORM NO REAL TIME MONITORING UNTIL THE TEST IS COMPLETED, WHEN THE BUFFER REGISTERS WOULD BE CALLED FOR
000709:                                                                                                  #  DISPLAY (VERB 01) AND RECORDED.
000710:
000711: 07,3732           55404        LOOKLOOP           TS       CHCNTR                                #  3, 2, 1, 0.
000712: 07,3733           51404                           NDX      CHCNTR
000713: 07,3734           31550                           CAE      30BUF1
000714: 07,3735           00006                           EXTEND
000715: 07,3736           51404                           NDX      CHCNTR
000716: 07,3737           02030                           RAND     30                                    #  DETECTS CHANGES FROM 1 TO 0.
000717: 07,3740           51404                           NDX      CHCNTR
000718: 07,3741           57550                           XCH      30BUF1                                #  STORE NEW ZEROS.
000719: 07,3742           51404                           NDX      CHCNTR
000720: 07,3743           31554                           CAE      30BUF0
000721: 07,3744           00006                           EXTEND
000722: 07,3745           51404                           NDX      CHCNTR
000723: 07,3746           04030                           ROR      30                                    #  DETECTS CHANGES FROM 0 TO 1.
000724: 07,3747           51404                           NDX      CHCNTR
000725: 07,3750           57554                           XCH      30BUF0                                #  STORE NEW ONES.
000726: 07,3751           11404                           CCS      CHCNTR                                #  IS THIS SCAN DONE.
000727: 07,3752           03732                           TC       LOOKLOOP                              #  NO.
000728: 07,3753           37654                           CAF      TEN                                   #  YES.  100MS RECALL.
000729: 07,3754           04472                           TC       VARDELAY
000730:
000731: 07,3755           11560        LOOKTOP            CCS      QUITLOOK                              #  IS THIS TASK WANTED.
000732: 07,3756           03760                           TC       +2                                    #  YES.
000733: 07,3757           04505                           TC       TASKOVER                              #  NO.
000734: 07,3760           36165                           CAF      THREE                                 #  START SCAN OF CHANNELS.
000735: 07,3761           03732                           TC       LOOKLOOP
000736:
000737: 07,3762                        ENDCSITS           =

End of include-file CSM_AND_SATURN_INTEGRATED_TESTS.agc.  Parent file is MAIN.agc


