
Source Code


000002:                                                                                                  ## Copyright:   Public domain.
000003:                                                                                                  ## Filename:    DOWN-TELEMETRY_PROGRAM.agc
000004:                                                                                                  ## Purpose:     A section of Sundial E.
000005:                                                                                                  ##              It is part of the reconstructed source code for the final
000006:                                                                                                  ##              release of the Block II Command Module system test software. No
000007:                                                                                                  ##              original listings of this program are available; instead, this
000008:                                                                                                  ##              file was created via disassembly of dumps of Sundial core rope
000009:                                                                                                  ##              modules and comparison with other AGC programs.
000010:                                                                                                  ## Assembler:   yaYUL
000011:                                                                                                  ## Contact:     Ron Burkey <info@sandroid.org>.
000012:                                                                                                  ## Website:     www.ibiblio.org/apollo/index.html
000013:                                                                                                  ## Mod history: 2023-06-22 MAS  Created from Aurora 12.
000014:                                                                                                  ##              2023-06-30 MAS  Updated for Sundial E.
000015:
000016: 05,3517                                           SETLOC   ENDPINS2
000017: 05,3517  E7,1430                                  EBANK=   DNTMBUFF
000018:
000019:                                                                                                  #        THIS ROUTINE IS INITITATED EVERY 20MS BY AN INTERRUPT TRIGGERED
000020:                                                                                                  #  BY THE RECEIPT OF AN ENDPULSE FROM THE SPACECRAFT TELEMETRY PROGRAMMER.
000021:
000022: 05,3517           54016        DODOWNTM           TS       BANKRUPT                              #  DO APPROPRIATE TM PHASE.
000023: 05,3520           51426                           INDEX    DNTMGOTO
000024: 05,3521           10000                           TCF      0
000025:
000026: 05,3522           30413        DNPHASE1           CA       DNLSTADR                              #  ONCE PER CYCLE (1 SECOND), AN ID IS SENT
000027: 05,3523           55425                           TS       LDATALST                              #  AND THE DATA LIST SWITCHED TO THAT
000028: 05,3524           76426                           MASK     LOW10                                 #  SELECTED BY A MISSION OR TEST PROGRAM.
000029: 05,3525           00006                           EXTEND
000030: 05,3526           01034                           WRITE    DNTM1
000031: 05,3527           47644                           CS       BIT7                                  #  WORD ORDER BIT IS 0 FOR ID OWRD ONLY.
000032: 05,3530           00006                           EXTEND
000033: 05,3531           03013                           WAND     13
000034:
000035: 05,3532           33662                           CAF      LDNPHAS2                              #  SWITCH TO PHASE 2.
000036: 05,3533           55426                           TS       DNTMGOTO
000037: 05,3534           33671                           CAF      LOWIDCOD                              #  SPECIAL ID CODE IN L.
000038: 05,3535           13621                           TCF      TMEXITL
000039:
000040: 05,3536           37644        DNPHASE2           CAF      BIT7                                  #  SET WORD ORDER BACK TO 1 FOR REMAINDER
000041: 05,3537           00006                           EXTEND                                         #  OF CYCLE AND SET UP TO PICK UP 12 PAIRS
000042: 05,3540           05013                           WOR      13                                    #  FROM ANYWHERE IN COMMON ERASABLE OR E7.
000043:
000044: 05,3541           37657                           CAF      ZERO
000045: 05,3542           54065                           TS       ITEMP1                                #  TAKE SNAPSHOT OF 12 DP WORDS.
000046: 05,3543           37654                           CAF      TEN
000047:
000048: 05,3544           54066        LOOP               TS       ITEMP2                                #  THESE 12 DP WORDS ARE READ INTO AN
000049: 05,3545           61425                           AD       LDATALST                              #  INTERMEDIATE BUFFER SO THEY REFER TO THE
000050: 05,3546           00006                           EXTEND                                         #  SAME POINT IN THE EXECUTION OF A MISSION
000051: 05,3547           50000                           INDEX    A                                     #  PROGRAM. THE WORDS MAY BE IN NON-
000052: 05,3550           50032                           INDEX    26D
000053: 05,3551           30001                           DCA      0                                     #  12 OF THE DATA LIST ARE USED AS
000054: 05,3552           50065                           INDEX    ITEMP1                                #  ADDRESSES OF THE DESIRED DATA.
000055: 05,3553           53431                           DXCH     DNTMBUFF
000056:
000057: 05,3554           37651                           CAF      TWO
000058: 05,3555           26065                           ADS      ITEMP1
000059: 05,3556           10066                           CCS      ITEMP2
000060: 05,3557           13544                           TCF      LOOP
000061:
000062: 05,3560           33670                           CAF      DEC11                                 #  SET UP TO SEND 11 REMAINING WORDS
000063: 05,3561           55427                           TS       TMINDEX
000064: 05,3562           33663                           CAF      LDNPHASX
000065: 05,3563           55426                           TS       DNTMGOTO
000066:
000067: 05,3564           00006                           EXTEND
000068: 05,3565           51425                           INDEX    LDATALST
000069: 05,3566           50045                           INDEX    37D
000070: 05,3567           30001                           DCA      0
000071: 05,3570           13616                           TCF      DNTMEXIT
000072:
000073: 05,3571           55427        DNPHASXA           TS       TMINDEX
000074: 05,3572           00006                           EXTEND
000075: 05,3573           50000                           INDEX    A                                     #  SENDS SNAPSHOT BUFFER.
000076: 05,3574           53701                           INDEX    FIXLISTB
000077: 05,3575           30001                           DCA      0
000078: 05,3576           13616                           TCF      DNTMEXIT
000079:
000080: 05,3577           11427        DNPHASEX           CCS      TMINDEX                               #  AT END OF SNAPSHOT TRANSMISSION, SET UP
000081: 05,3600           13571                           TCF      DNPHASXA                              #  TO SEND 26 PRS FROM ANY ERASABLE LOC AS
000082:
000083: 05,3601           33664                           CAF      LDNPHAS3                              #  SPECIFIED BY WORDS 1 - 26 OF THE DATA
000084: 05,3602           55426                           TS       DNTMGOTO                              #  LIST.
000085: 05,3603           33667                           CAF      NOGENWDS
000086:
000087: 05,3604           55427        PHASE3A            TS       TMINDEX                               #  GET DP WORD FROM ANY EBANK.
000088: 05,3605           61425                           AD       LDATALST
000089: 05,3606           00006                           EXTEND
000090: 05,3607           50000                           INDEX    A
000091: 05,3610           30001                           DCA      0                                     #  THIS GETS THE ADDRESS - MUST USE DCA
000092: 05,3611           54003                           TS       EBANK
000093: 05,3612           75466                           MASK     LOW8
000094: 05,3613           00006                           EXTEND
000095: 05,3614           50000                           INDEX    A
000096: 05,3615           31401                           DCA      3400                                  #  (NOTE ASSEMBLY AS DCA 1400)
000097: 05,3616           00006        DNTMEXIT           EXTEND                                         #  GENERAL DNTM EXIT LOCATION.
000098: 05,3617           01034                           WRITE    DNTM1
000099: 05,3620           30001                           CA       L
000100: 05,3621           00006        TMEXITL            EXTEND
000101: 05,3622           01035                           WRITE    DNTM2
000102: 05,3623           14513                           TCF      NOQRSM
000103:
000104: 05,3624           11427        DNPHASE3           CCS      TMINDEX
000105: 05,3625           13604                           TCF      PHASE3A
000106:
000107: 05,3626           33665                           CAF      LDNPHAS4                              #  SEND FIXED FORMAT LIST OF DSPTAB AND
000108: 05,3627           55426                           TS       DNTMGOTO                              #  T2, T1.
000109: 05,3630           36162                           CAF      SIX
000110:
000111: 05,3631           55427        PHASE4A            TS       TMINDEX
000112: 05,3632           00006                           EXTEND                                         #  FIXED DATA LIST FOR DSPTAB AND TIME.
000113: 05,3633           50000                           INDEX    A
000114: 05,3634           53672                           INDEX    FIXLIST
000115: 05,3635           30001                           DCA      0
000116: 05,3636           13616                           TCF      DNTMEXIT
000117: 05,3637           11427        DNPHASE4           CCS      TMINDEX
000118: 05,3640           13631                           TCF      PHASE4A
000119:
000120: 05,3641           33666                           CAF      LPHASE5                               #  SET UP FOR CHANNEL TRANSMISSION.
000121: 05,3642           55426                           TS       DNTMGOTO
000122: 05,3643           36165                           CAF      THREE                                 #  FOUR PAIRS OF CHANNELS.
000123:
000124: 05,3644           55427        PHASE5A            TS       TMINDEX
000125: 05,3645           00006                           EXTEND
000126: 05,3646           50000                           INDEX    A
000127: 05,3647           53720                           INDEX    FIXLSTCL
000128: 05,3650           00000                           READ     0
000129: 05,3651           54001                           TS       L
000130: 05,3652           00006                           EXTEND
000131: 05,3653           51427                           INDEX    TMINDEX
000132: 05,3654           53714                           INDEX    FIXLSTCA
000133: 05,3655           00000                           READ     0
000134: 05,3656           13616                           TCF      DNTMEXIT
000135: 05,3657           11427        DNPHASE5           CCS      TMINDEX
000136: 05,3660           13644                           TCF      PHASE5A
000137: 05,3661           13522                           TCF      DNPHASE1                              #  START NEXT CYCLE.
000138:                                                                                                  #        CONSTNATS AND FIXED FORMAT DATA LIST.
000139: 05,3662           03536        LDNPHAS2           ADRES    DNPHASE2
000140: 05,3663           03577        LDNPHASX           ADRES    DNPHASEX
000141: 05,3664           03624        LDNPHAS3           ADRES    DNPHASE3
000142: 05,3665           03637        LDNPHAS4           ADRES    DNPHASE4
000143: 05,3666           03657        LPHASE5            ADRES    DNPHASE5
000144:
000145: 05,3667           00031        NOGENWDS           DEC      25         B-14                       #  26 WORDS SENT DURING PHASE 3.
000146: 05,3670           00013        DEC11              DEC      11         B-14
000147: 05,3671           00437        LOWIDCOD           OCT      00437                                 #  FOD'S CHOICE.
000148:
000149: 05,3672           00024        FIXLIST            ADRES    TIME2                                 #  FIXED-FORMAT PORTION INCLUDES BUFFER,
000150: 05,3673           00321                           ADRES    DSPTAB     +10D                       #  DSPTAB, AND TIME.
000151: 05,3674           00317                           ADRES    DSPTAB     +8D
000152: 05,3675           00315                           ADRES    DSPTAB     +6
000153: 05,3676           00313                           ADRES    DSPTAB     +4
000154: 05,3677           00311                           ADRES    DSPTAB     +2
000155: 05,3700           00307                           ADRES    DSPTAB
000156:
000157: 05,3701           01454        FIXLISTB           ADRES    DNTMBUFF   +20D
000158: 05,3702           01452                           ADRES    DNTMBUFF   +18D
000159: 05,3703           01450                           ADRES    DNTMBUFF   +16D
000160: 05,3704           01446                           ADRES    DNTMBUFF   +14D
000161: 05,3705           01444                           ADRES    DNTMBUFF   +12D
000162: 05,3706           01442                           ADRES    DNTMBUFF   +10D
000163: 05,3707           01440                           ADRES    DNTMBUFF   +8D
000164: 05,3710           01436                           ADRES    DNTMBUFF   +6D
000165: 05,3711           01434                           ADRES    DNTMBUFF   +4D
000166: 05,3712           01432                           ADRES    DNTMBUFF   +2D
000167: 05,3713           01430                           ADRES    DNTMBUFF
000168:
000169: 05,3714           00032        FIXLSTCA           OCT      32                                    #  CHANNEL ADDRESSES.
000170: 05,3715           00030                           OCT      30
000171: 05,3716           00013                           OCT      13
000172: 05,3717           00011                           OCT      11
000173:
000174: 05,3720           00033        FIXLSTCL           OCT      33
000175: 05,3721           00031                           OCT      31
000176: 05,3722           00014                           OCT      14
000177: 05,3723           00012                           OCT      12
000178:                                                                                                  #        NOMINAL SUNDIAL DOWNLIST.
000179: 05,3724           00342        NOMDNLST           ECADR    UPLOCK
000180: 05,3725           02635                           ECADR    PIPAE
000181: 05,3726           02633                           ECADR    PIPAN
000182: 05,3727           02741                           ECADR    WPLATT
000183: 05,3730           02737                           ECADR    WPLATI
000184: 05,3731           02735                           ECADR    WPLATO
000185: 05,3732           02641                           ECADR    VLAUN
000186: 05,3733           02631                           ECADR    ANGX
000187: 05,3734           02627                           ECADR    ANGY
000188: 05,3735           02623                           ECADR    ANGZ
000189: 05,3736           02705                           ECADR    GAZIMUTH
000190: 05,3737           02637                           ECADR    DRIFTT
000191: 05,3740           02635                           ECADR    DRIFTI
000192: 05,3741           02633                           ECADR    DRIFTO
000193: 05,3742           00365                           ECADR    MARKSTAT
000194: 05,3743           00402                           ECADR    THETAD     +2
000195: 05,3744           00400                           ECADR    THETAD
000196: 05,3745           00363                           ECADR    IMUCADR
000197: 05,3746           00356                           ECADR    DESOPMOD
000198: 05,3747           00354                           ECADR    OPTMODES
000199: 05,3750           01362                           ECADR    REDOCTR                               #  INCLUDES FAILREG.
000200: 05,3751           00063                           ECADR    STATE      +2
000201: 05,3752           00061                           ECADR    STATE
000202: 05,3753           00035                           ECADR    OPTY
000203: 05,3754           00034                           ECADR    CDUZ
000204: 05,3755           00032                           ECADR    CDUX
000205: 05,3756           00403                           ADRES    DESOPTT
000206: 05,3757           00361                           ADRES    IMODES30
000207: 05,3760           01364                           ADRES    SFAIL
000208: 05,3761           01360                           ADRES    SELFRET
000209: 05,3762           00411                           ADRES    DELVX      +4
000210: 05,3763           00407                           ADRES    DELVX      +2
000211: 05,3764           00405                           ADRES    DELVX
000212: 05,3765           00150                           ADRES    LOC
000213: 05,3766           00152                           ADRES    PUSHLOC
000214: 05,3767           00043                           ADRES    BMAGY
000215: 05,3770           00041                           ADRES    PIPAZ
000216: 05,3771           00037                           ADRES    PIPAX
000217: 05,3772                        ENDDNTMS           EQUALS

End of include-file DOWN-TELEMETRY_PROGRAM.agc.  Parent file is MAIN.agc


