
Source Code


000002:                                                                                                  ## Copyright:   Public domain.
000003:                                                                                                  ## Filename:    ERASABLE_ASSIGNMENTS.agc
000004:                                                                                                  ## Purpose:     A section of Sundial E.
000005:                                                                                                  ##              It is part of the reconstructed source code for the final
000006:                                                                                                  ##              release of the Block II Command Module system test software. No
000007:                                                                                                  ##              original listings of this program are available; instead, this
000008:                                                                                                  ##              file was created via disassembly of dumps of Sundial core rope
000009:                                                                                                  ##              modules and comparison with other AGC programs.
000010:                                                                                                  ## Assembler:   yaYUL
000011:                                                                                                  ## Contact:     Ron Burkey <info@sandroid.org>.
000012:                                                                                                  ## Website:     www.ibiblio.org/apollo/index.html
000013:                                                                                                  ## Mod history: 2023-06-22 MAS  Created from Aurora 12.
000014:                                                                                                  ##              2023-06-30 MAS  Updated for Sundial E.
000015:
000016:
000017: ???????                        A                  EQUALS   0
000018: ???????                        L                  EQUALS   1                                     #  L AND Q ARE BOTH CHANNELS AND REGISTERS.
000019: ???????                        Q                  EQUALS   2
000020: ???????                        EBANK              EQUALS   3
000021: ???????                        FBANK              EQUALS   4
000022: ???????                        Z                  EQUALS   5                                     #  ADJACENT TO FBANK AND BBANK FOR DXCH Z
000023: ???????                        BBANK              EQUALS   6                                     #  (DTCB) AND DXCH FBANK (DTCF).
000024:                                                                                                  #  REGISTER 7 IS A ZERO-SOURCE, USED BY ZL.
000025:
000026: ???????                        ARUPT              EQUALS   10                                    #  INTERRUPT STORAGE.
000027: ???????                        LRUPT              EQUALS   11
000028: ???????                        QRUPT              EQUALS   12
000029: ???????                        SAMPTIME           EQUALS   13                                    #  SAMPLED TIME 1 & 2.
000030: ???????                        ZRUPT              EQUALS   15                                    #  (13 AND 14 ARE SPARES.)
000031: ???????                        BANKRUPT           EQUALS   16                                    #  USUALLY HOLDS FBANK OR BBANK.
000032: ???????                        BRUPT              EQUALS   17                                    #  RESUME ADDRESS AS WELL.
000033:
000034: ???????                        CYR                EQUALS   20
000035: ???????                        SR                 EQUALS   21
000036: ???????                        CYL                EQUALS   22
000037: ???????                        EDOP               EQUALS   23                                    #  EDITS INTERPRETIVE OPERATION CODE PAIRS.
000038:
000039:
000040: ???????                        TIME2              EQUALS   24
000041: ???????                        TIME1              EQUALS   25
000042: ???????                        TIME3              EQUALS   26
000043: ???????                        TIME4              EQUALS   27
000044: ???????                        TIME5              EQUALS   30
000045: ???????                        TIME6              EQUALS   31
000046: ???????                        CDUX               EQUALS   32
000047: ???????                        CDUY               EQUALS   33
000048: ???????                        CDUZ               EQUALS   34
000049: ???????                        OPTY               EQUALS   35
000050: ???????                        OPTX               EQUALS   36
000051: ???????                        PIPAX              EQUALS   37
000052: ???????                        PIPAY              EQUALS   40
000053: ???????                        PIPAZ              EQUALS   41
000054: ???????                        BMAGX              EQUALS   42
000055: ???????                        RHCP               EQUALS   42
000056: ???????                        BMAGY              EQUALS   43
000057: ???????                        RHCY               EQUALS   43
000058: ???????                        BMAGZ              EQUALS   44
000059: ???????                        RHCR               EQUALS   44
000060: ???????                        INLINK             EQUALS   45
000061: ???????                        RNRAD              EQUALS   46
000062: ???????                        GYROCTR            EQUALS   47
000063: ???????                        GYROCMD            EQUALS   47
000064: ???????                        CDUXCMD            EQUALS   50
000065: ???????                        CDUYCMD            EQUALS   51
000066:
000067: ???????                        CDUZCMD            EQUALS   52
000068: ???????                        OPTYCMD            EQUALS   53
000069: ???????                        OPTXCMD            EQUALS   54
000070: ???????                        EMSD               EQUALS   55
000071: ???????                        THRUST             EQUALS   55
000072: ???????                        LEMONM             EQUALS   56
000073: ???????                        OUTLINK            EQUALS   57
000074: ???????                        ALTM               EQUALS   60
000075:
000076:    0067                                           SETLOC   67                                    #  DECODED REGISTER FOR NIGHT-WATCHMAN ALM.
000077:    0067                        NEWJOB             ERASE
000078:
000079:    0070                        LVSQUARE           EQUALS   34D                                   #  SQUARE OF VECTOR INPUT TO ABVAL AND UNIT
000080:    0070                        LV                 EQUALS   36D                                   #  LENGTH OF VECTOR INPUT TO UNIT.
000081:    0070                        X1                 EQUALS   38D                                   #  INTERPRETIVE SPECIAL REGISTERS RELATIVE
000082:    0070                        X2                 EQUALS   39D                                   #  TO THE WORK AREA.
000083:    0070                        S1                 EQUALS   40D
000084:    0070                        S2                 EQUALS   41D
000085:    0070                        QPRET              EQUALS   42D
000086:
000087:
000088:                                                                                                  #  GENERAL ERASABLE ASSIGNMENTS.
000089:
000090:    0061                                           SETLOC   61
000091:
000092:                                                                                                  #  INTERPRETIVE SWITCH RESERVATIONS.
000093:
000094:    0061                        STATE              ERASE    +3                                    #  60 SWITCHES PRESENTLY.
000095:
000096:                                                                                                  #  INTERPRETIVE SWITCH BIT ASSIGNMENTS:
000097:
000098:    0065                        WMATFLAG           EQUALS   0
000099:    0065                        JSWITCH            EQUALS   1
000100:    0065                        MIDFLAG            EQUALS   2
000101:    0065                        MOONFLAG           EQUALS   3
000102:    0065                        NBSMBIT            EQUALS   4
000103:    0065                        COAROFIN           EQUALS   5
000104:    0065                        BODYFLAG           EQUALS   6
000105:    0065                        IMUSE              EQUALS   7
000106:    0065                        OPTUSE             EQUALS   8D
000107:                                                                                                  #  END OF SWITCH ASSIGNMENTS
000108:
000109:                                                                                                  #        THE FOLLOWING SET COMPRISES THE INTERRUPT TEMPORARY STORAGE POO
000110:
000111:                                                                                                  #        ANY OF THESE MAY BE USED AS TEMPORARIES DURING INTERRUPT OR WITH INTERRUPT INHIBITED. THE ITEMP SERIES
000112:                                                                                                  #  IS USED DURING CALLS TO THE EXECUTIVE AND WAITLIST - THE RUPTREGS ARE NOT.
000113:
000114:    0065                        ITEMP1             ERASE
000115:    0066     0065               WAITEXIT           EQUALS   ITEMP1
000116:    0066     0065               EXECTEM1           EQUALS   ITEMP1
000117:
000118:    0066                        ITEMP2             ERASE
000119:    0067     0066               WAITBANK           EQUALS   ITEMP2
000120:    0067     0066               EXECTEM2           EQUALS   ITEMP2
000121:
000122:    0070                                           SETLOC   70
000123:
000124:    0070                        ITEMP3             ERASE
000125:    0071     0070               RUPTSTOR           EQUALS   ITEMP3
000126:    0071     0070               WAITADR            EQUALS   ITEMP3
000127:    0071     0070               NEWPRIO            EQUALS   ITEMP3
000128:
000129:    0071                        ITEMP4             ERASE
000130:    0072     0071               LOCCTR             EQUALS   ITEMP4
000131:    0072     0071               WAITTEMP           EQUALS   ITEMP4
000132:
000133:    0072                        ITEMP5             ERASE
000134:    0073     0072               NEWLOC             EQUALS   ITEMP5
000135:
000136:    0073                        ITEMP6             ERASE
000137:                                                                                                  #  NEWLOC+1      EQUALS          ITEMP6                          DP ADDRESS.
000138:
000139:    0074                        RUPTREG1           ERASE
000140:    0075                        RUPTREG2           ERASE
000141:    0076                        RUPTREG3           ERASE
000142:    0077                        RUPTREG4           ERASE
000143:    0100     0077               KEYTEMP1           EQUALS   RUPTREG4
000144:    0100     0077               DSRUPTEM           EQUALS   RUPTREG4
000145:
000146:                                                                                                  #        THE FOLLOWING ARE EXECUTIVE TEMPORARIES WHICH MAY BE USED BETWEEN CCS NEWJOB INQUIRIES.
000147:    0100                        INTB15+            ERASE                                          #  REFLECTS 15TH BIT OF INDEXABLE ADDRESSES
000148:    0101     0100               DSEXIT             =        INTB15+                               #  RETURN FOR DSPIN
000149:    0101     0100               EXITEM             =        INTB15+                               #  RETURN FOR SCALE FACTOR ROUTINE SELECT
000150:    0101     0100               BLANKRET           =        INTB15+                               #  RETURN FOR 2BLANK
000151:
000152:    0101                        INTBIT15           ERASE                                          #  SIMILAR TO ABOVE.
000153:    0102     0101               WRDRET             =        INTBIT15                              #  RETURN FOR 5BLANK
000154:    0102     0101               WDRET              =        INTBIT15                              #  RETURN FOR DSPWD
000155:    0102     0101               DECRET             =        INTBIT15                              #  RETURN FOR PUTCOM(DEC LOAD)
000156:    0102     0101               21/22REG           =        INTBIT15                              #  TEMP FOR CHARIN
000157:
000158:                                                                                                  #        THE REGISTERS BETWEEN ADDRWD AND PRIORITY MUST STAY IN THE FOLLOWING ORDER FOR INTERPRETIVE TRACE.
000159:
000160:    0102                        ADDRWD             ERASE                                          #  12 BIT INTERPRETIVE OPERAND SUB-ADDRESS.
000161:    0103                        POLISH             ERASE                                          #  HOLDS CADR MADE FROM POLISH ADDRESS.
000162:    0104     0103               UPDATRET           =        POLISH                                #  RETURN FOR UPDATNN, UPDATVB
000163:    0104     0103               CHAR               =        POLISH                                #  TEMP FOR CHARIN
000164:    0104     0103               ERCNT              =        POLISH                                #  COUNTER FOR ERROR LIGHT RESET
000165:    0104     0103               DECOUNT            =        POLISH                                #  COUNTER FOR SCALING AND DISPLAY (DEC)
000166:
000167:    0104                        FIXLOC             ERASE                                          #  WORK AREA ADDRESS.
000168:
000169:    0105                        OVFIND             ERASE                                          #  SET NON-ZERO ON OVERFLOW.
000170:
000171:    0106                        VBUF               ERASE    +5                                    #  TEMPORARY STORAGE USED FOR VECTORS.
000172:    0114     0106               SGNON              =        VBUF                                  #  TEMP FOR +,- ON
000173:    0114     0106               NOUNTEM            =        VBUF                                  #  COUNTER FOR MIXNOUN FETCH
000174:    0114     0106               DISTEM             =        VBUF                                  #  COUNTER FOR OCTAL DISPLAY VERBS
000175:    0114     0106               DECTEM             =        VBUF                                  #  COUNTER FOR FETCH (DEC DISPLAY VERBS)
000176:
000177:    0114     0107               SGNOFF             =        VBUF       +1                         #  TEMP FOR +,- ON
000178:    0114     0107               NVTEMP             =        VBUF       +1                         #  TEMP FOR NVSUB
000179:    0114     0107               SFTEMP1            =        VBUF       +1                         #  STORAGE FOR SF CONST HI PART(=SFTEMP2-1)
000180:
000181:    0114     0110               CODE               =        VBUF       +2                         #  FOR DSPIN
000182:    0114     0110               SFTEMP2            =        VBUF       +2                         #  STORAGE FOR SF CONST LO PART(=SFTEMP1+1)
000183:    0114     0111               MIXTEMP            =        VBUF       +3                         #  FOR MIXNOUN DATA
000184:    0114     0111               SIGNRET            =        VBUF       +3                         #  RETURN FOR +,- ON
000185:
000186:                                                                                                  #  ALSO MIXTEMP+1 = VBUF+4, MIXTEMP+2 = VBUF+5.
000187:
000188:    0114                        BUF                ERASE    +2                                    #  TEMPORARY SCALAR STORAGE.
000189:    0117                        BUF2               ERASE    +1
000190:    0121     0114               INDEXLOC           EQUALS   BUF                                   #  CONTAINS ADDRESS OF SPECIFIED INDEX.
000191:    0121     0114               SWWORD             EQUALS   BUF                                   #  ADDRESS OF SWITCH WORD.
000192:    0121     0115               SWBIT              EQUALS   BUF        +1                         #  SWITCH BIT WITHIN SWITCH WORD.
000193:    0121                        MPTEMP             ERASE                                          #  TEMPORARY USED IN MULTIPLY AND SHIFT.
000194:    0122                        DOTINC             ERASE                                          #  COMPONENT INCREMENT FOR DOT SUBROUTINE.
000195:    0123     0122               DVSIGN             EQUALS   DOTINC                                #  DETERMINES SIGN OF DDV RESULT.
000196:    0123     0122               ESCAPE             EQUALS   DOTINC                                #  USED IN ARCSIN/ARCCOS.
000197:    0123     0122               ENTRET             =        DOTINC                                #  EXIT FROM ENTER
000198:
000199:    0123                        DOTRET             ERASE                                          #  RETURN FROM DOT SUBROUTINE.
000200:    0124     0123               DVNORMCT           EQUALS   DOTRET                                #  DIVIDEND NORMALIZATION COUNT IN DDV.
000201:    0124     0123               ESCAPE2            EQUALS   DOTRET                                #  ALTERNATE ARCSIN/ARCCOS SWITCH.
000202:    0124     0123               WDCNT              =        DOTRET                                #  CHAR COUNTER FOR DSPWD
000203:    0124     0123               INREL              =        DOTRET                                #  INPUT BUFFER SELECTOR ( X,Y,Z, REG )
000204:
000205:    0124                        MATINC             ERASE                                          #  VECTOR INCREMENT IN MXV AND VXM.
000206:    0125     0124               MAXDVSW            EQUALS   MATINC                                #  +0 IF DP QUOTIENT IS NEAR ONE - ELSE -1.
000207:    0125     0124               POLYCNT            EQUALS   MATINC                                #  POLYNOMIAL LOOP COUNTER
000208:    0125     0124               DSPMMTEM           =        MATINC                                #  DSPCOUNT SAVE FOR DSPMM
000209:    0125     0124               MIXBR              =        MATINC                                #  INDICATOR FOR MIXED OR NORMAL NOUN
000210:
000211:    0125                        TEM1               ERASE                                          #  EXEC TEMP
000212:    0126     0125               POLYRET            =        TEM1
000213:    0126     0125               DSREL              =        TEM1                                  #  REL ADDRESS FOR DSPIN
000214:
000215:    0126                        TEM2               ERASE                                          #  EXEC TEMP
000216:    0127     0126               DSMAG              =        TEM2                                  #  MAGNITUDE STORE FOR DSPIN
000217:    0127     0126               IDADDTEM           =        TEM2                                  #  MIXNOUN INDIRECT ADDRESS STORAGE
000218:
000219:    0127                        TEM3               ERASE                                          #  EXEC TEMP
000220:    0130     0127               COUNT              =        TEM3                                  #  FOR DSPIN
000221:
000222:    0130                        TEM4               ERASE                                          #  EXEC TEMP
000223:    0131     0130               LSTPTR             =        TEM4                                  #  LIST POINTER FOR GRABUSY
000224:    0131     0130               RELRET             =        TEM4                                  #  RETURN FOR RELDSP
000225:    0131     0130               FREERET            =        TEM4                                  #  RETURN FOR FREEDSP
000226:
000227:    0131                        TEM5               ERASE                                          #  EXEC TEMP
000228:    0132     0131               NOUNADD            =        TEM5                                  #  TEMP STORAGE FOR NOUN ADDRESS
000229:
000230:    0132                        NNADTEM            ERASE                                          #  TEMP FOR NOUN ADDRESS TABLE ENTRY
000231:    0133                        NNTYPTEM           ERASE                                          #  TEMP FOR NOUN TYPE TABLE ENTRY
000232:    0134                        IDAD1TEM           ERASE                                          #  TEMP FOR INDIR ADRESS TABLE ENTRY(MIXNN)
000233:                                                                                                  #  MUST = IDAD2TEM-1, = IDAD3TEM-2.
000234:    0135                        IDAD2TEM           ERASE                                          #  TEMP FOR INDIR ADRESS TABLE ENTRY(MIXNN)
000235:                                                                                                  #  MUST = IDAD1TEM+1, = IDAD3TEM-1.
000236:    0136                        IDAD3TEM           ERASE                                          #  TEMP FOR INDIR ADRESS TABLE ENTRY(MIXNN)
000237:                                                                                                  #  MUST = IDAD1TEM+2, = IDAD2TEM+1.
000238:    0137                        RUTMXTEM           ERASE                                          #  TEMP FOR SF ROUT TABLE ENTRY(MIXNN ONLY)
000239:
000240:
000241:
000242:                                                                                                  #        STORAGE USED BY THE EXECUTIVE.
000243:
000244:    0140                        MPAC               ERASE    +6                                    #  MULTI-PURPOSE ACCUMULATOR.
000245:    0147                        MODE               ERASE                                          #  +1 FOR TP, +0 FOR DP, OR -1 FOR VECTOR.
000246:    0150                        LOC                ERASE                                          #  LOCATION ASSOCIATED WITH JOB.
000247:    0151                        BANKSET            ERASE                                          #  USUALLY CONTAINS BBANK SETTING.
000248:    0152                        PUSHLOC            ERASE                                          #  WORD OF PACKED INTERPRETIVE PARAMETERS.
000249:    0153                        PRIORITY           ERASE                                          #  PRIORITY OF PRESENT JOB AND WORK AREA.
000250:
000251:    0154                                           ERASE    +71D                                  #  SEVEN SETS OF 12 REGISTERS EACH.
000252:
000253:                                                                                                  #  THE FOLLOWING REGISTERS ARE RESERVED FOR PINBALL
000254:
000255:
000256:                                                                                                  #  RESERVED FOR PINBALL EXECUTIVE ACTION
000257:
000258:    0264                        DSPCOUNT           ERASE                                          #  DISPLAY POSITION INDICATOR
000259:    0265                        DECBRNCH           ERASE                                          #  +DEC, - DEC, OCT INDICATOR
000260:    0266                        VERBREG            ERASE                                          #  VERB CODE
000261:    0267                        NOUNREG            ERASE                                          #  NOUN CODE
000262:    0270                        XREG               ERASE                                          #  R1 INPUT BUFFER
000263:    0271                        YREG               ERASE                                          #  R2 INPUT BUFFER
000264:    0272                        ZREG               ERASE                                          #  R3 INPUT BUFFER
000265:    0273                        XREGLP             ERASE                                          #  LO PART OF XREG (FOR DEC CONV ONLY)
000266:    0274                        YREGLP             ERASE                                          #  LO PART OF YREG (FOR DEC CONV ONLY)
000267:    0275                        ZREGLP             ERASE                                          #  LO PART OF ZREG (FOR DEC CONV ONLY)
000268:    0276                        MODREG             ERASE                                          #  MODE CODE
000269:    0277                        DSPLOCK            ERASE                                          #  KEYBOARD/SUBROUTINE CALL INTERLOCK
000270:    0300                        REQRET             ERASE                                          #  RETURN REGISTER FOR LOAD
000271:    0301                        LOADSTAT           ERASE                                          #  STATUS INDICATOR FOR LOADTST
000272:    0302                        CLPASS             ERASE                                          #  PASS INDICATOR CLEAR
000273:    0303                        NOUT               ERASE                                          #  ACTIVITY COUNTER FOR DSPTAB
000274:    0304                        NOUNCADR           ERASE                                          #  MACHINE CADR FOR NOUN
000275:    0305                        MONSAVE            ERASE                                          #  N/V CODE FOR MONITOR. (= MONSAVE1-1)
000276:    0306                        MONSAVE1           ERASE                                          #  NOUNCADR FOR MONITOR(MATBS) =MONSAVE+1
000277:    0307                        DSPTAB             ERASE    +11D                                  #  0-10D, DISPLAY PANEL BUFF. 11D, C/S LTS.
000278:    0323                        CADRSTOR           ERASE                                          #  ENDIDLE STORAGE
000279:    0324                        GRABLOCK           ERASE                                          #  INTERNAL INTERLOCK FOR DISPLAY SYSTEM
000280:    0325                        NVQTEM             ERASE                                          #  NVSUB STORAGE FOR CALLING ADDRESS
000281:                                                                                                  #  MUST = NVBNKTEM-1
000282:    0326                        NVBNKTEM           ERASE                                          #  NVSUB STORAGE FOR CALLING BANK
000283:                                                                                                  #  MUST = NVQTEM+1
000284:    0327                        DSPLIST            ERASE    +2                                    #  WAITING LIST FOR DSP SYST INTERNAL USE
000285:    0332                        EXTVBACT           ERASE                                          #  EXTENDED VERB ACTIVITY INTERLOCK
000286:    0333                        DSPTEM1            ERASE    +2                                    #  BUFFER STORAGE AREA 1 (MOSTLY FOR TIME)
000287:    0336                        DSPTEM2            ERASE    +2                                    #  BUFFER STORAGE AREA 2 (MOSTLY FOR DEG)
000288:                                                                                                  #  END OF ERASABLES RESERVED FOR PINBALL EXECUTIVE ACTION
000289:
000290:
000291:
000292:                                                                                                  #  RESERVED FOR PINBALL INTERRUPT ACTION
000293:
000294:    0341                        DSPCNT             ERASE                                          #  COUNTER FOR DSPOUT
000295:    0342                        UPLOCK             ERASE                                          #  BIT1 = UPLINK INTERLOCK (ACTIVATED BY
000296:                                                                                                  #  RECEPTION OF A BAD MESSAGE IN UPLINK)
000297:                                                                                                  #  END OF ERASABLES RESERVED FOR PINBALL INTERRUPT ACTION
000298:
000299:
000300:
000301:                                                                                                  #         DAP STORAGE IN NON-SWITCHED ERASABLE.
000302:
000303:    0343                        T6LOC              ERASE    +1
000304:    0345     0343               T6ADR              EQUALS   T6LOC
000305:    0345                        T5LOC              ERASE    +1
000306:    0347     0345               T5ADR              EQUALS   T5LOC
000307:
000308:                                                                                                  #  ASSIGNMENTS FOR T4RUPT PROGRAM
000309:    0347                        DSRUPTSW           ERASE
000310:    0350                        OPTIND             ERASE
000311:    0351                        LGYRO              ERASE
000312:    0352                        COMMANDO           ERASE    +1
000313:
000314:
000315:                                                                                                  #  END OF T4RUPT ASSIGNMENTS
000316:
000317:
000318:    0354                        OPTMODES           ERASE
000319:    0355                        SWSAMPLE           ERASE
000320:    0356                        DESOPMOD           ERASE
000321:    0357                        WTOPTION           ERASE
000322:    0360                        ZOPTCNT            ERASE
000323:    0361                        IMODES30           ERASE
000324:    0362                        IMODES33           ERASE
000325:    0363                        MODECADR           ERASE    +1
000326:    0365     0363               IMUCADR            EQUALS   MODECADR
000327:    0365     0364               OPTCADR            EQUALS   MODECADR   +1
000328:
000329:    0365                        MARKSTAT           ERASE
000330:
000331:                                                                                                  #  THE FOLLOWING REGS ARE USED BY THE STANDBY VERBS
000332:
000333:    0366                        TIMESAV            ERASE    +1
000334:    0370                        SCALSAV            ERASE    +1
000335:    0372                        TIMAR              ERASE    +1
000336:    0374                        TIMEDIFF           ERASE    +1
000337:
000338:    0400                                           SETLOC   400
000339:
000340:    0400                        THETAD             ERASE    +2
000341:    0403                        DESOPTT            ERASE                                          #  DESIRED OPTICS CDU ANGLES.
000342:    0404                        DESOPTS            ERASE
000343:    0405                        DELVX              ERASE    +5
000344:
000345:
000346:
000347:                                                                                                  #         DOWNLINK LIST ADDRESS.
000348:    0413                        DNLSTADR           ERASE
000349:
000350:
000351:    0414                        VAC1USE            ERASE
000352:    0415                        VAC1               ERASE    +42D
000353:    0470                        VAC2USE            ERASE
000354:    0471                        VAC2               ERASE    +42D
000355:    0544                        VAC3USE            ERASE
000356:    0545                        VAC3               ERASE    +42D
000357:    0620                        VAC4USE            ERASE
000358:    0621                        VAC4               ERASE    +42D
000359:    0674                        VAC5USE            ERASE
000360:    0675                        VAC5               ERASE    +42D
000361:
000362:    0750                        SUMEBANK           ERASE
000363:    0751                        SUMADDR            ERASE
000364:    0752                        SUMEND             ERASE
000365:    0753                        ERASUM             ERASE
000366:
000367:    1000                                           SETLOC   1000
000368:
000369:    1000                        GEOMTRX            ERASE    +17D
000370:    1022                        GEOSAVED           ERASE
000371:    1023                        LTHOTSAV           ERASE
000372:    1024                        ANGXSAV            ERASE    +1
000373:    1026                        GAZ1SAV            ERASE
000374:
000375:    1071                                           SETLOC   1071
000376:                                                                                                  #        WAITLIST REPEAT FLAG:
000377:
000378:    1071                        RUPTAGN            ERASE
000379:    1072     1071               KEYTEMP2           =        RUPTAGN                               #  TEMP FOR KEYRUPT, UPRUPT
000380:
000381:                                                                                                  #        PHASE TABLE AND RESTART COUNTER.
000382:
000383:    1072                        -PHASE0            ERASE
000384:    1073                        PHASE0             ERASE
000385:    1074                        -PHASE1            ERASE
000386:    1075                        PHASE1             ERASE
000387:    1076                        -PHASE2            ERASE
000388:    1077                        PHASE2             ERASE
000389:    1100                        -PHASE3            ERASE
000390:    1101                        PHASE3             ERASE
000391:    1102                        -PHASE4            ERASE
000392:    1103                        PHASE4             ERASE
000393:    1104                        -PHASE5            ERASE
000394:    1105                        PHASE5             ERASE
000395:
000396:                                                                                                  #  ERASABLE FOR SINGLE PRECISION SUBROUTINES.
000397:
000398:    1106                        HALFY              ERASE
000399:    1107                        ROOTRET            ERASE
000400:    1110                        SQRARG             ERASE
000401:    1111     1106               TEMK               EQUALS   HALFY
000402:    1111     1107               SQ                 EQUALS   ROOTRET
000403:
000404:    1111                        1/PIPADT           ERASE                                          #  IMU COMPENSATION PACKAGE
000405:    1112     1111               OLDBT1             =        1/PIPADT
000406:
000407:                                                                                                  #  ASSIGNMENTS RESERVED EXCLUSIVELY FOR SELF-CHECK
000408:    1112                        SELFERAS           ERASE    1357       -          1377
000409:
000410:    1112                        ERESTORE           =        1357
000411:    1112                        SELFRET            =        1360
000412:    1112                        SMODE              =        1361
000413:    1112                        REDOCTR            =        1362                                  #  KEEPS TRACK OF RESTARTS
000414:    1112                        FAILREG            =        1363
000415:    1112                        SFAIL              =        1364
000416:    1112                        ERCOUNT            =        1365
000417:    1112                        SCOUNT             =        1366
000418:    1112                        SKEEP1             =        1371
000419:    1112                        SKEEP2             =        1372
000420:    1112                        SKEEP3             =        1373
000421:    1112                        SKEEP4             =        1374
000422:    1112                        SKEEP5             =        1375
000423:    1112                        SKEEP6             =        1376
000424:    1112                        SKEEP7             =        1377
000425:
000426:                                                                                                  #  WAITLIST TASK LISTS
000427:
000428: E3,1400                                           SETLOC   1400
000429:
000430: E3,1400                        LST1               ERASE    +7                                    #  DELTA T'S.
000431: E3,1410                        LST2               ERASE    +17D                                  #  2CADR TASK ADDRESSES.
000432:
000433:                                                                                                  #  IMU COMPENSATION PARAMETERS:
000434:
000435: E3,1432                        NBDX               ERASE                                          #  GYRO BIAS DRIFTS
000436: E3,1433  E3,1432               GBIASX             =        NBDX
000437: E3,1433                        NBDY               ERASE
000438: E3,1434                        NBDZ               ERASE
000439:
000440: E3,1435                        ADIAX              ERASE                                          #  ACCELERATION SENSITIVE DRIFT ALONG THE
000441: E3,1436                        ADIAY              ERASE                                          #  INPUT AXIS
000442: E3,1437                        ADIAZ              ERASE
000443:
000444: E3,1440                        ADSRAX             ERASE                                          #  ACCELERATION SENSITIVE DRIFT ALONG THE
000445: E3,1441                        ADSRAY             ERASE                                          #  SPIN REFERENCE AXIS
000446: E3,1442                        ADSRAZ             ERASE
000447:
000448: E3,1443                        PBIASX             ERASE                                          #  PIPA BIAS AND PIPA SCALE FACTOR TERMS
000449: E3,1444  E3,1443               PIPABIAS           =        PBIASX                                #        INTERMIXED.
000450: E3,1444                        PIPASCFX           ERASE
000451: E3,1445  E3,1444               PIPASCF            =        PIPASCFX
000452: E3,1445                        PBIASY             ERASE
000453: E3,1446                        PIPASCFY           ERASE
000454: E3,1447                        PBIASZ             ERASE
000455: E3,1450                        PIPASCFZ           ERASE
000456:
000457: E3,1451                        GCOMP              ERASE    +5                                    #  CONTAINS COMPENSATING TORQUES
000458:
000459: E3,1457  E3,1451               COMMAND            EQUALS   GCOMP
000460: E3,1457  E3,1454               CDUIND             EQUALS   GCOMP      +3
000461:
000462:                                                                                                  #        ASSIGNMENTS FOR PRESENTLY UNUSED NOUNS.
000463: E3,1457                        ROLL               ERASE    +2
000464: E3,1462                        LANDMARK           ERASE    +5
000465:
000466: E4,1400                                           SETLOC   2000
000467:
000468: E4,1400                        AMEMORY            ERASE    +150D
000469:                                                                                                  #        THE FOLLOWING A MEMORY LOCATIONS ARE USED BY MID-COURSE NAVIGATION:
000470:
000471: E4,1627  E4,1400               RRECT              EQUALS   AMEMORY    +000D
000472: E4,1627  E4,1400               RIGNTION           EQUALS   AMEMORY    +000D
000473: E4,1627  E4,1406               VRECT              EQUALS   AMEMORY    +006D
000474: E4,1627  E4,1406               VIGNTION           EQUALS   AMEMORY    +006D
000475: E4,1627  E4,1414               TDELTAV            EQUALS   AMEMORY    +012D
000476: E4,1627  E4,1414               NEWDLTAV           EQUALS   AMEMORY    +012D
000477: E4,1627  E4,1422               TNUV               EQUALS   AMEMORY    +018D
000478: E4,1627  E4,1422               NEWNUV             EQUALS   AMEMORY    +018D
000479: E4,1627  E4,1430               RCV                EQUALS   AMEMORY    +024D
000480: E4,1627  E4,1430               FOUNDR             EQUALS   AMEMORY    +024D
000481: E4,1627  E4,1436               VCV                EQUALS   AMEMORY    +030D
000482: E4,1627  E4,1436               FOUNDV             EQUALS   AMEMORY    +030D
000483: E4,1627  E4,1444               TC                 EQUALS   AMEMORY    +036D
000484: E4,1627  E4,1446               TET                EQUALS   AMEMORY    +038D
000485: E4,1627  E4,1450               XKEP               EQUALS   AMEMORY    +040D
000486: E4,1627  E4,1452               ALPHAV             EQUALS   AMEMORY    +042D
000487: E4,1627  E4,1452               DELR               EQUALS   AMEMORY    +042D
000488: E4,1627  E4,1460               BETAV              EQUALS   AMEMORY    +048D
000489: E4,1627  E4,1460               DELVEL             EQUALS   AMEMORY    +048D
000490: E4,1627  E4,1466               PHIV               EQUALS   AMEMORY    +054D
000491: E4,1627  E4,1466               BVECTOR            EQUALS   AMEMORY    +054D
000492: E4,1627  E4,1474               PSIV               EQUALS   AMEMORY    +060D
000493: E4,1627  E4,1502               FV                 EQUALS   AMEMORY    +066D
000494:
000495: E4,1627  E4,1510               VECTAB             EQUALS   AMEMORY    +072D
000496:
000497: E4,1627  E4,1510               TAVEGON            EQUALS   AMEMORY    +072D
000498: E4,1627  E4,1512               TRESUME            EQUALS   AMEMORY    +074D
000499: E4,1627  E4,1514               RAVEGON            EQUALS   AMEMORY    +076D
000500: E4,1627  E4,1522               VAVEGON            EQUALS   AMEMORY    +082D
000501: E4,1627  E4,1530               RIG-4SEC           EQUALS   AMEMORY    +088D
000502: E4,1627  E4,1554               ALPHAM             EQUALS   AMEMORY    +108D
000503: E4,1627  E4,1556               BETAM              EQUALS   AMEMORY    +110D
000504: E4,1627  E4,1560               TAU                EQUALS   AMEMORY    +112D
000505: E4,1627  E4,1560               GIVENT             EQUALS   AMEMORY    +112D
000506: E4,1627  E4,1562               DT/2               EQUALS   AMEMORY    +114D
000507: E4,1627  E4,1564               H                  EQUALS   AMEMORY    +116D
000508: E4,1627  E4,1566               TDEC               EQUALS   AMEMORY    +118D
000509: E4,1627  E4,1570               FBRANCH            EQUALS   AMEMORY    +120D
000510: E4,1627  E4,1571               HBRANCH            EQUALS   AMEMORY    +121D
000511: E4,1627  E4,1572               GMODE              EQUALS   AMEMORY    +122D
000512: E4,1627  E4,1573               QREADY             EQUALS   AMEMORY    +123D
000513: E4,1627  E4,1574               MEASQ              EQUALS   AMEMORY    +124D
000514: E4,1627  E4,1576               DELTAQ             EQUALS   AMEMORY    +126D
000515:
000516: E4,1627  E4,1600               MEASMODE           EQUALS   AMEMORY    +128D
000517: E4,1627  E4,1601               NVCODE             EQUALS   AMEMORY    +129D
000518: E4,1627  E4,1602               MIDEXIT            EQUALS   AMEMORY    +130D
000519: E4,1627  E4,1602               DSPRTRN            EQUALS   AMEMORY    +130D
000520: E4,1627  E4,1603               INCORPEX           EQUALS   AMEMORY    +131D
000521: E4,1627  E4,1604               STEPEXIT           EQUALS   AMEMORY    +132D
000522: E4,1627  E4,1605               DIFEQCNT           EQUALS   AMEMORY    +133D
000523: E4,1627  E4,1605               NORMGAM            EQUALS   AMEMORY    +133D
000524: E4,1627  E4,1606               SCALEA             EQUALS   AMEMORY    +134D
000525: E4,1627  E4,1607               SCALEB             EQUALS   AMEMORY    +135D
000526: E4,1627  E4,1610               SCALDT             EQUALS   AMEMORY    +136D
000527: E4,1627  E4,1611               SCALDELT           EQUALS   AMEMORY    +137D
000528: E4,1627  E4,1612               SCALER             EQUALS   AMEMORY    +138D
000529:
000530: E4,1627  E4,1613               YV                 EQUALS   AMEMORY    +139D
000531: E4,1627  E4,1621               ZV                 EQUALS   AMEMORY    +145D
000532:
000533: E4,1627                        PBODY              ERASE
000534: E4,1630                        W                  ERASE    +071D
000535:
000536:                                                                                                  #   THE FOLLOWING ERASABLE REGISTERS ARE USED BY THE  ENTRY AND INITIALIZATION JOB OF THE CSM & SATURN TEST.
000537:
000538: E4,1740  E4,1400               QCSI               EQUALS   AMEMORY    +000D
000539: E4,1740  E4,1401               SATPBUF            EQUALS   AMEMORY    +001D
000540: E4,1740  E4,1402               SATYBUF            EQUALS   AMEMORY    +002D
000541: E4,1740  E4,1403               SATRBUF            EQUALS   AMEMORY    +003D
000542: E4,1740  E4,1404               CHCNTR             EQUALS   AMEMORY    +004D
000543: E4,1740  E4,1405               TRIMYBUF           EQUALS   AMEMORY    +005D
000544: E4,1740  E4,1406               OFFTMBUF           EQUALS   AMEMORY    +006D
000545:
000546:                                                                                                  #    THE FOLLOWING ERASABLE REGISTERS ARE USED BY THE JETSET TASK.
000547:
000548: E4,1740  E4,1407               JETSTEP            EQUALS   AMEMORY    +007D
000549: E4,1740  E4,1410               NTIMES             EQUALS   AMEMORY    +008D
000550: E4,1740  E4,1420               NEXTTIME           EQUALS   AMEMORY    +016D
000551: E4,1740  E4,1430               JETONTM            EQUALS   AMEMORY    +024D
000552: E4,1740  E4,1440               XJETS              EQUALS   AMEMORY    +032D
000553: E4,1740  E4,1450               YZJETS             EQUALS   AMEMORY    +040D
000554: E4,1740  E4,1460               JETOFFTM           EQUALS   AMEMORY    +048D
000555:
000556:                                                                                                  #     THE FOLLOWING ERASABLE REGISTERS ARE USED BY THE ENGINE ON-OFF TASK.
000557:
000558: E4,1740  E4,1470               ENGSTEP            EQUALS   AMEMORY    +056D
000559: E4,1740  E4,1471               CYLTIMES           EQUALS   AMEMORY    +057D
000560: E4,1740  E4,1474               NEXTCYLT           EQUALS   AMEMORY    +060D
000561: E4,1740  E4,1477               ONTIME             EQUALS   AMEMORY    +063D
000562: E4,1740  E4,1502               OFFTIME            EQUALS   AMEMORY    +066D
000563: E4,1740  E4,1505               OFFTIMER           EQUALS   AMEMORY    +069D
000564:
000565:                                                                                                  #    THE FOLLOWING ERASABLE REGISTERS ARE USED BY THE TRIM TASK.
000566:
000567: E4,1740  E4,1510               TRIMSTEP           EQUALS   AMEMORY    +072D
000568: E4,1740  E4,1511               NUMTIMES           EQUALS   AMEMORY    +073D
000569: E4,1740  E4,1517               STEPDLYT           EQUALS   AMEMORY    +079D
000570: E4,1740  E4,1525               TRIMONT            EQUALS   AMEMORY    +085D
000571: E4,1740  E4,1533               TRIMPTCH           EQUALS   AMEMORY    +091D
000572: E4,1740  E4,1541               TRIMYAW            EQUALS   AMEMORY    +097D
000573:
000574:                                                                                                  #   THE FOLLOWING ERASABLE REGISTERS ARE USED BY THE INTERFACE LOOK TASK.
000575:
000576: E4,1740  E4,1547               TESTIDX            EQUALS   AMEMORY    +103D
000577: E4,1740  E4,1550               30BUF1             EQUALS   AMEMORY    +104D
000578: E4,1740  E4,1554               30BUF0             EQUALS   AMEMORY    +108D
000579: E4,1740  E4,1560               QUITLOOK           EQUALS   AMEMORY    +112D
000580:
000581:
000582:                                                                                                  #    THE FOLLOWING ERASABLE REGISTERS ARE USED BY THE SATURN STEERING TASK.
000583:
000584: E4,1740  E4,1561               NOSIVBNJ           EQUALS   AMEMORY    +113D
000585: E4,1740  E4,1562               SATSTEP            EQUALS   AMEMORY    +114D
000586: E4,1740  E4,1563               SATTIMES           EQUALS   AMEMORY    +115D
000587: E4,1740  E4,1575               SATDELAY           EQUALS   AMEMORY    +125D
000588: E4,1740  E4,1607               SATONT             EQUALS   AMEMORY    +135D
000589: E4,1740  E4,1621               SATPITCH           EQUALS   AMEMORY    +145D
000590: E4,1740  E4,1633               SATYAW             EQUALS   AMEMORY    +155D
000591: E4,1740  E4,1645               SATROLL            EQUALS   AMEMORY    +165D
000592:
000593: E5,1400                                           SETLOC   2400
000594:                                                                                                  #  THE FOLLOWING ERASABLE LOCATIONS ARE UTILIZED BY THE IN-FLIGHT ALIGNMENT ROUTINES
000595:
000596: E5,1400                        XSM                ERASE    +17D
000597: E5,1422  E5,1406               YSM                =        XSM        +6
000598: E5,1422  E5,1414               ZSM                =        XSM        +12D
000599: E5,1422                        XDC                ERASE    +17D
000600: E5,1444  E5,1430               YDC                =        XDC        +6
000601: E5,1444  E5,1436               ZDC                =        XDC        +12D
000602: E5,1444  E5,1422               XNB                =        XDC
000603: E5,1444  E5,1430               YNB                =        XDC        +6
000604: E5,1444  E5,1436               ZNB                =        XDC        +12D
000605: E5,1444                        STARAD             ERASE    +17D
000606: E5,1466                        STAR               ERASE    +5
000607: E5,1474                        SAC                ERASE    +1
000608: E5,1476                        PAC                ERASE    +1
000609: E5,1500                        OGC                ERASE    +1
000610: E5,1502                        IGC                ERASE    +1
000611: E5,1504                        MGC                ERASE    +1
000612: E5,1506                        ZPRIME             =        22D
000613: E5,1506                        PDA                =        22D
000614: E5,1506                        COSTH              =        16D
000615: E5,1506                        SINTH              =        18D
000616: E5,1506                        THETA              =        20D
000617: E5,1506                        STARM              =        32D
000618:
000619:
000620:
000621:                                                                                                  #  THE FOLLOWING ERASABLE LOCATIONS ARE UTILIZED BY THE SYSTEM TESTS
000622: E5,1506                        AZIMUTH            ERASE    +1
000623: E5,1510                        LATITUDE           ERASE    +1
000624:
000625: E5,1512                        EROPTN             ERASE
000626: E5,1513                        ERVECTOR           ERASE    +5
000627: E5,1521                        GYROD              ERASE    +5
000628: E5,1527                        LENGTHOT           ERASE
000629: E5,1530                        LOSVEC             ERASE    +5
000630: E5,1536  E5,1530               SXTOPTN            =        LOSVEC
000631: E5,1536  E5,1531               TARG1/2            =        LOSVEC     +1
000632: E5,1536                        NBPOS              ERASE
000633: E5,1537                        NDXCTR             ERASE
000634: E5,1540                        PIPANO             ERASE
000635: E5,1541                        PIPINDEX           ERASE
000636: E5,1542                        PIPNDX             ERASE    +1
000637: E5,1544                        POSITON            ERASE
000638: E5,1545                        QPLAC              ERASE
000639:
000640: E5,1546                        QPLACE             ERASE
000641: E5,1547                        QPLACES            ERASE
000642: E5,1550                        RUN                ERASE
000643: E5,1551                        STOREPL            ERASE
000644: E5,1552                        SOUTHDR            ERASE
000645: E5,1553                        TAZEL1             ERASE    +5
000646: E5,1561                        TEMPTIME           ERASE    +1
000647: E5,1563                        TESTNO             ERASE
000648: E5,1564                        TMARK              ERASE    +1
000649: E5,1566                        SHAFTA             ERASE
000650: E5,1567                        GENPL              ERASE    +111D
000651:
000652: E5,1747  E5,1567               CDUTIMEI           =        GENPL
000653: E5,1747  E5,1571               CDUTIMEF           =        GENPL      +2
000654: E5,1747  E5,1573               IMU/OPT            =        GENPL      +4
000655: E5,1747  E5,1573               CDUDANG            =        GENPL      +4
000656: E5,1747  E5,1574               CDUREADF           =        GENPL      +5
000657: E5,1747  E5,1575               CDUREADI           =        GENPL      +6
000658: E5,1747  E5,1576               CDULIMIT           =        GENPL      +7
000659:
000660: E5,1747  E5,1573               TEMPADD            =        GENPL      +4
000661: E5,1747  E5,1574               TEMP               =        GENPL      +5
000662: E5,1747  E5,1575               NOBITS             =        GENPL      +6
000663: E5,1747  E5,1576               CHAN               =        GENPL      +7
000664:
000665: E5,1747  E5,1577               LOS1               =        GENPL      +8D
000666: E5,1747  E5,1605               LOS2               =        GENPL      +14D
000667:
000668: E5,1747  E5,1613               CALCDIR            EQUALS   GENPL      +20D
000669: E5,1747  E5,1614               CDUFLAG            EQUALS   GENPL      +21D
000670: E5,1747  E5,1615               GYTOBETQ           EQUALS   GENPL      +22D
000671: E5,1747  E5,1616               OPTNREG            EQUALS   GENPL      +23D
000672: E5,1747  E5,1617               SAVE               EQUALS   GENPL      +24D                       #  THREE CONSEC LOC
000673: E5,1747  E5,1622               SFCONST1           EQUALS   GENPL      +27D
000674: E5,1747  E5,1623               TIMER              EQUALS   GENPL      +28D
000675:
000676: E5,1747  E5,1625               DATAPL             EQUALS   GENPL      +30D
000677: E5,1747  E5,1567               RDSP               EQUALS   GENPL                                 #  FIX LATER   POSSIBLY KEEP1
000678: E5,1747  E5,1667               MASKREG            EQUALS   GENPL      +64D
000679: E5,1747  E5,1671               CDUNDX             EQUALS   GENPL      +66D
000680: E5,1747  E5,1672               RESULTCT           EQUALS   GENPL      +67D
000681: E5,1747  E5,1675               COUNTPL            EQUALS   GENPL      +70D
000682:
000683: E5,1747  E5,1676               CDUANG             EQUALS   GENPL      +71D
000684: E5,1747  E5,1567               AINLA              =        GENPL                                 #  110 DEC OR 156 OCT LOCATIONS
000685:
000686: E5,1747  E5,1567               XSM1               EQUALS   AINLA
000687: E5,1747  E5,1611               ERCOMP1            EQUALS   AINLA      +18D
000688: E5,1747  E5,1617               GYROANG            EQUALS   AINLA      +24D
000689: E5,1747  E5,1623               AZERR              EQUALS   AINLA      +28D
000690: E5,1747  E5,1625               FILDELV            EQUALS   AINLA      +30D
000691: E5,1747  E5,1633               THETAN             EQUALS   AINLA      +36D
000692: E5,1747  E5,1641               PREVTIME           EQUALS   AINLA      +42D
000693: E5,1747  E5,1643               ERVECT1            EQUALS   AINLA      +44D
000694: E5,1747  E5,1651               VECTEM             EQUALS   AINLA      +50D
000695: E5,1747  E5,1657               GYROCSW            EQUALS   AINLA      +56D
000696: E5,1747  E5,1660               PRELTEMP           EQUALS   AINLA      +57D
000697: E5,1747  E5,1661               QSAVED             EQUALS   AINLA      +58D
000698: E5,1747  E5,1663               TAZ                EQUALS   AINLA      +60D
000699: E5,1747  E5,1665               TEL                EQUALS   AINLA      +62D
000700: E5,1747  E5,1667               LATITUD1           EQUALS   AINLA      +64D
000701: E5,1747  E5,1671               PIPTIME            EQUALS   AINLA      +66D
000702: E5,1747  E5,1673               TARGET1            EQUALS   AINLA      +68D
000703: E5,1747  E5,1707               PTEMP              EQUALS   AINLA      +80D
000704: E5,1747  E5,1763               AZIMUTH1           EQUALS   AINLA      +124D
000705: E5,1747  E5,1765               STARS              EQUALS   AINLA      +126D
000706:
000707: E5,1747  E5,1567               ALX1S              EQUALS   AINLA                                 #  IN
000708: E5,1747  E5,1570               CMPX1              EQUALS   AINLA      +1D                        #  IND
000709: E5,1747  E5,1571               ALK                EQUALS   AINLA      +2D                        #  GAINS
000710: E5,1747  E5,1605               WANGO              EQUALS   AINLA      +14D                       #  VERT ERATE
000711: E5,1747  E5,1607               WANGI              EQUALS   AINLA      +16D                       #  HO
000712: E5,1747  E5,1611               WANGT              EQUALS   AINLA      +18D                       #  T
000713: E5,1747  E5,1611               TORQNDX            =        WANGT
000714: E5,1747  E5,1613               FILDELVX           EQUALS   AINLA      +20D
000715: E5,1747  E5,1615               FILDELVY           EQUALS   AINLA      +22D
000716: E5,1747  E5,1617               FILDELVZ           EQUALS   AINLA      +24D
000717: E5,1747  E5,1621               INTY               EQUALS   AINLA      +26D                       #  SOUTH PIP INTE
000718: E5,1747  E5,1623               ANGZ               EQUALS   AINLA      +28D                       #  EAST AXIS
000719: E5,1747  E5,1625               INTZ               EQUALS   AINLA      +30D                       #  EAST PIP I
000720: E5,1747  E5,1627               ANGY               EQUALS   AINLA      +32D                       #  SOUTH
000721: E5,1747  E5,1631               ANGX               EQUALS   AINLA      +34D                       #  VE
000722: E5,1747  E5,1633               PIPAN              EQUALS   AINLA      +36D
000723: E5,1747  E5,1633               DRIFTO             EQUALS   AINLA      +36D                       #  VERT
000724: E5,1747  E5,1635               PIPAE              EQUALS   AINLA      +38D
000725: E5,1747  E5,1635               DRIFTI             EQUALS   AINLA      +38D                       #  SOU
000726: E5,1747  E5,1637               DRIFTT             EQUALS   AINLA      +40D                       #  EAST AX
000727: E5,1747  E5,1641               VLAUN              EQUALS   AINLA      +42D                       #  LAUNCH
000728: E5,1747  E5,1643               ACCWD              EQUALS   AINLA      +44D                       #  LAUN
000729: E5,1747  E5,1651               POSNV              EQUALS   AINLA      +50D                       #  LAUNC
000730: E5,1747  E5,1653               DPIPAY             EQUALS   AINLA      +52D                       #  SOUTH
000731: E5,1747  E5,1657               DPIPAZ             EQUALS   AINLA      +56D                       #  NORTH PIP INCREMENT
000732: E5,1747  E5,1661               ALTIM              EQUALS   AINLA      +58D                       #  LENG
000733: E5,1747  E5,1662               ALTIMS             EQUALS   AINLA      +59D                       #   INDEX
000734: E5,1747  E5,1663               ALDK               EQUALS   AINLA      +60D                       #   TIME CONSTAN
000735: E5,1747  E5,1701               GAZ1               EQUALS   AINLA      +74D
000736: E5,1747  E5,1703               GTSOPNDZ           EQUALS   AINLA      +76D
000737: E5,1747  E5,1704               GEOCOMPS           EQUALS   AINLA      +77D
000738: E5,1747  E5,1705               GAZIMUTH           EQUALS   AINLA      +78D
000739: E5,1747  E5,1707               SPDRIFT            EQUALS   AINLA      +80D
000740: E5,1747  E5,1712               SINGAZ             EQUALS   AINLA      +83D
000741: E5,1747  E5,1714               COSGAZ             EQUALS   AINLA      +85D
000742: E5,1747  E5,1721               BPLAC              EQUALS   AINLA      +90D
000743: E5,1747  E5,1733               XNB1               EQUALS   AINLA      +100D
000744: E5,1747  E5,1735               WPLATO             EQUALS   AINLA      +102D
000745: E5,1747  E5,1737               WPLATI             EQUALS   AINLA      +104D
000746: E5,1747  E5,1741               WPLATT             EQUALS   AINLA      +106D
000747: E5,1747  E5,1741               YNB1               EQUALS   AINLA      +106D
000748: E5,1747  E5,1743               DELM               EQUALS   AINLA      +108D
000749: E5,1747  E5,1747               ZNB1               EQUALS   AINLA      +112D
000750: E5,1747  E5,1753               ZERONDX            EQUALS   AINLA      +116D
000751: E5,1747  E5,1754               PRELMTRX           EQUALS   AINLA      +117D
000752: E5,1747  E5,1754               TRANSM1            =        PRELMTRX
000753: E5,1747  E5,1776               PREMTRXC           EQUALS   AINLA      +135D
000754: E5,1747  E5,1777               OPDATRET           EQUALS   AINLA      +136D
000755:
000756: E5,1747  E5,1567               BMEMORY            EQUALS   GENPL
000757: E5,1747     0405               ERCOMP             EQUALS   DELVX
000758: E5,1747     0407               DELVY              EQUALS   DELVX      +2
000759: E5,1747     0411               DELVZ              EQUALS   DELVX      +4
000760: E7,1425                                           SETLOC   3425
000761:
000762:                                                                                                  #        DOWNLINK STORAGE.
000763: E7,1425                        LDATALST           ERASE
000764: E7,1426                        DNTMGOTO           ERASE
000765: E7,1427                        TMINDEX            ERASE
000766: E7,1430                        DNTMBUFF           ERASE    +21D                                  #  SNAPSHOT BUFFER.
000767:
000768:                                                                                                  #        STORAGE FOR INBIT SCANNER.
000769:
000770: E7,1456                        LAST30             ERASE    +2                                    #  LAST SAMPLED INBITS.
000771: E7,1461                        MSGCNT             ERASE

End of include-file ERASABLE_ASSIGNMENTS.agc.  Parent file is MAIN.agc


