
Source Code


000002:                                                                                                  ## Copyright:   Public domain.
000003:                                                                                                  ## Filename:    EXTENDED_VERBS.agc
000004:                                                                                                  ## Purpose:     A section of Sundial E.
000005:                                                                                                  ##              It is part of the reconstructed source code for the final
000006:                                                                                                  ##              release of the Block II Command Module system test software. No
000007:                                                                                                  ##              original listings of this program are available; instead, this
000008:                                                                                                  ##              file was created via disassembly of dumps of Sundial core rope
000009:                                                                                                  ##              modules and comparison with other AGC programs.
000010:                                                                                                  ## Assembler:   yaYUL
000011:                                                                                                  ## Contact:     Ron Burkey <info@sandroid.org>.
000012:                                                                                                  ## Website:     www.ibiblio.org/apollo/index.html
000013:                                                                                                  ## Mod history: 2023-06-22 MAS  Created from Aurora 12.
000014:                                                                                                  ##              2023-06-30 MAS  Updated for Sundial E.
000015:
000016:
000017: 11,2000                                           BANK     11
000018: 11,2000  E5,1500                                  EBANK=   OGC
000019:
000020:                                                                                                  #  FAN-OUT
000021:
000022: 11,2000           02070        LST2FAN            TC       VBZERO                                #  VB40 ZERO (USED WITH NOUN 20 OR 40 ONLY)
000023: 11,2001           02073                           TC       VBCOARK                               #  VB41 COARSE ALIGN (USED WITH NOUN 20 OR
000024:                                                                                                  #                                  40 ONLY)
000025: 11,2002           02171                           TC       IMUFINEK                              #  VB42 FINE ALIGN IMU
000026: 11,2003           02416                           TC       IMUATTCK                              #  VB43  LOAD IMU ATTITUDE ERROR METERS.
000027: 11,2004           02066                           TC       ALM/END                               #  ILLEGAL VERB.
000028: 11,2005           02066                           TC       ALM/END                               #  ILLEGAL VERB.
000029: 11,2006           02066                           TC       ALM/END                               #  ILLEGAL VERB.
000030: 11,2007           02401                           TC       DOCSITST                              #  VB47 PERFORM CSM & SATURN TEST
000031: 11,2010           02255                           TC       GOLOADLV                              #  VB50 PLEASE PERFORM
000032: 11,2011           02255                           TC       GOLOADLV                              #  VB51 PLEASE MARK
000033: 11,2012           02403                           TC       CKOPTVB                               #  VB52 OPTICAL VERIFICATION FOR PRELAUNCH
000034: 11,2013           02066                           TC       ALM/END                               #  ILLEGAL VERB.
000035: 11,2014           02261                           TC       TORQGYRS                              #  VB54 PULSE TORQUE GYROS
000036: 11,2015           02276                           TC       ALINTIME                              #  VB55 ALIGN TIME
000037: 11,2016           02377                           TC       GOSHOSUM                              #  VB56 PERFORM BANKSUM
000038: 11,2017           02322                           TC       SYSTEST                               #  VB57 PERFORM SYSTEM TEST
000039: 11,2020           02574                           TC       PRESTAND                              #  VB60 PREPARE FOR STANDBY
000040: 11,2021           02640                           TC       POSTAND                               #  VB61 RECOVER FROM STANDBY
000041: 11,2022           02460                           TC       SETUPMSG                              #  VB62 SCAM CSM INBITS
000042: 11,2023           12024                           TCF      +1
000043: 11,2024           12066                           TCF      ALM/END
000044: 11,2025           12066                           TCF      ALM/END
000045: 11,2026           12027                           TCF      +1
000046: 11,2027           12066                           TCF      ALM/END
000047: 11,2030           12066                           TCF      ALM/END
000048: 11,2031           12066                           TCF      ALM/END
000049: 11,2032           12066                           TCF      ALM/END
000050: 11,2033           12066                           TCF      ALM/END
000051: 11,2034           12066                           TCF      ALM/END
000052: 11,2035           12066                           TCF      ALM/END
000053: 11,2036           12066                           TCF      ALM/END
000054: 11,2037           02066                           TC       ALM/END
000055:
000056: 11,2040           37650        TESTXACT           CAF      BIT3
000057: 11,2041           70332                           MASK     EXTVBACT
000058: 11,2042           10000                           CCS      A
000059: 11,2043           02053                           TC       XACTALM
000060:
000061: 11,2044           47650        XACT1              CS       BIT3
000062: 11,2045           00004                           INHINT
000063: 11,2046           70332                           MASK     EXTVBACT
000064: 11,2047           67650                           AD       BIT3
000065: 11,2050           54332                           TS       EXTVBACT
000066:
000067: 11,2051           00003                           RELINT
000068: 11,2052           00002                           TC       Q
000069:
000070: 11,2053           05474        XACTALM            TC       FALTON
000071: 11,2054           04353                           TC       ENDOFJOB
000072:
000073: 11,2055           05632        TERMEXTV           TC       FREEDSP                               #  IF WE GET A TERMINATE INSTEAD OF A LOAD.
000074:
000075: 11,2056           02060        ENDEXTVB           TC       XACT0
000076: 11,2057           04353                           TC       ENDOFJOB
000077:
000078: 11,2060           47650        XACT0              CS       BIT3
000079: 11,2061           00004                           INHINT
000080: 11,2062           70332                           MASK     EXTVBACT
000081: 11,2063           54332                           TS       EXTVBACT
000082: 11,2064           00003                           RELINT
000083: 11,2065           00002        XACT0Q             TC       Q
000084:
000085:
000086:
000087: 11,2066           05474        ALM/END            TC       FALTON
000088: 11,2067           02056                           TC       ENDEXTVB
000089:
000090:
000091:
000092: 11,2070           02076        VBZERO             TC       OP/INERT
000093: 11,2071           02110                           TC       IMUZEROK                              #  RETURN HERE IF NOUN = ICDU(20)
000094: 11,2072           02066                           TC       ALM/END                               #  RETURN HERE IF NOUN = OCDU(55)
000095:                                                                                                  #          (NOT IN USE YET)
000096:
000097: 11,2073           02076        VBCOARK            TC       OP/INERT
000098: 11,2074           02117                           TC       IMUCOARK                              #  RETURN HERE IF NOUN = ICDU (20)
000099: 11,2075           02221                           TC       OPTCOARK                              #  RETURN HERE IF NOUN = OCDU (55)
000100:
000101:                                                                                                  #  RETURNS TO L+1 IF IMU AND L+2 IF OPT.
000102:
000103: 11,2076           47646        OP/INERT           CS       BIT5                                  #  OCT20
000104: 11,2077           60267                           AD       NOUNREG
000105: 11,2100           00006                           EXTEND
000106: 11,2101           12065                           BZF      XACT0Q                                #  IF = 20.
000107:
000108: 11,2102           24002                           INCR     Q
000109: 11,2103           62107                           AD       OPIMDIFF                              #  = -35 OCT.
000110: 11,2104           00006                           EXTEND
000111: 11,2105           12065                           BZF      XACT0Q
000112:
000113: 11,2106           02066                           TC       ALM/END                               #  ILLEGAL.
000114:
000115: 11,2107           77742        OPIMDIFF           OCT      -35
000116:
000117:                                                                                                  #  KEYBOARD REQUEST TO ZERO IMU ENCODERS
000118:
000119: 11,2110           02040        IMUZEROK           TC       TESTXACT                              #  ZERO ENCODERS.
000120: 11,2111           04064                           TC       BANKCALL
000121: 11,2112           26000                           CADR     IMUZERO
000122:
000123: 11,2113           04064                           TC       BANKCALL                              #  STALL
000124: 11,2114           26730                           CADR     IMUSTALL
000125: 11,2115           02116                           TC       +1
000126:
000127: 11,2116           02056                           TC       ENDEXTVB
000128:
000129:                                                                                                  #  KEYBOARD REQUEST TO COARSE ALIGN THE IMU
000130:
000131: 11,2117           02040        IMUCOARK           TC       TESTXACT                              #  COARSE ALIGN FROM KEYBOARD.
000132: 11,2120           05550                           TC       GRABWAIT
000133: 11,2121           32137                           CAF      VNLODCDU                              #  CALL FOR THETAD LOAD
000134: 11,2122           05563                           TC       NVSBWAIT
000135: 11,2123           04724                           TC       ENDIDLE                               #  STALL WAITING FOR THE LOAD
000136: 11,2124           02055                           TC       TERMEXTV
000137: 11,2125           02141                           TC       ICSDEL                                #  PROCEED - ASK FOR INCREMENTAL LOAD.
000138:
000139: 11,2126           32140        ICORK2             CAF      IMUCOARV                              #  RE-DISPLAY COARSE ALIGN VERB.
000140: 11,2127           05563                           TC       NVSBWAIT
000141: 11,2130           05632                           TC       FREEDSP                               #  RELEASE THE DISPLAYS
000142:
000143: 11,2131           04064                           TC       BANKCALL                              #  CALL MODE SWITCHING PROG
000144: 11,2132           26055                           CADR     IMUCOARS
000145:
000146: 11,2133           04064                           TC       BANKCALL                              #  STALL
000147: 11,2134           26730                           CADR     IMUSTALL
000148: 11,2135           02056                           TC       ENDEXTVB
000149: 11,2136           02056                           TC       ENDEXTVB
000150:
000151: 11,2137           02522        VNLODCDU           OCT      02522
000152: 11,2140           04100        IMUCOARV           OCT      04100
000153:
000154:                                                                                                  #           PROVISION FOR COARSE ALIGN TO INCREMENTAL ANGLES.
000155:
000156: 11,2141           32167        ICSDEL             CAF      DELLOAD
000157: 11,2142           05563                           TC       NVSBWAIT                              #  REQUEST LOAD OF DELTA ICDU ANGLES.
000158: 11,2143           04724                           TC       ENDIDLE
000159: 11,2144           02055                           TC       TERMEXTV
000160: 11,2145           02126                           TC       ICORK2                                #  PROCEED WITHOUT DATA HERE TOO.
000161: 11,2146           02150                           TC       INCLOOP                               #  LOOP TO INCREMENT THETAD FROM DSPTEM2.
000162: 11,2147           02126                           TC       ICORK2                                #  RE-DISPLAY COARSE ALIGN VERB.
000163:
000164: 11,2150           56002        INCLOOP            XCH      Q                                     #  INCREMENTS THETADS IN 2S COMPLEMENT FROM
000165: 11,2151           54140                           TS       MPAC                                  #   THREE ANGLE INCREMENTS IN DSPTEM2S.
000166: 11,2152           32170                           CAF      LTHD+2
000167: 11,2153           54114                           TS       BUF                                   #  SET UP FOR CDUINC.
000168: 11,2154           37651                           CAF      TWO                                   #  THREE TIMES THROUGH.
000169:
000170: 11,2155           54141        INCLOOP2           TS       MPAC       +1
000171: 11,2156           50000                           INDEX    A
000172: 11,2157           56336                           XCH      DSPTEM2                               #  INCREMENT TO TEM2 FOR CDUINC.
000173: 11,2160           04064                           TC       BANKCALL
000174: 11,2161           11662                           CADR     CDUINC
000175: 11,2162           10114                           CCS      BUF
000176: 11,2163           54114                           TS       BUF
000177: 11,2164           10141                           CCS      MPAC       +1
000178: 11,2165           02155                           TC       INCLOOP2
000179:
000180: 11,2166           00140                           TC       MPAC                                  #  RETURN WHEN FINISHED.
000181:
000182: 11,2167           02523        DELLOAD            OCT      02523
000183: 11,2170           00402        LTHD+2             ADRES    THETAD     +2
000184:
000185:                                                                                                  #  KEYBOARD REQUEST TO FINE ALIGN AND GYRO TORQUE IMU
000186:
000187: 11,2171           02040        IMUFINEK           TC       TESTXACT                              #  FINE ALIGN WITH GYRO TORQUING.
000188: 11,2172           05550                           TC       GRABWAIT
000189: 11,2173           32217                           CAF      VNLODGYR                              #  CALL FOR LOAD OF GYRO COMMANDS
000190: 11,2174           05563                           TC       NVSBWAIT
000191: 11,2175           04724                           TC       ENDIDLE                               #  HOLD UP FOR THE DATA LOAD
000192: 11,2176           02055                           TC       TERMEXTV
000193: 11,2177           02200                           TC       +1                                    #  PROCEED WITHOUT A LOAD
000194:
000195: 11,2200           32220                           CAF      IMUFINEV                              #  RE-DISPLAY OUR OWN VERB
000196: 11,2201           05563                           TC       NVSBWAIT
000197: 11,2202           05632                           TC       FREEDSP                               #  RELEASE DISPLAYS
000198:
000199: 11,2203           04064                           TC       BANKCALL                              #  CALL MODE SWITCH PROG
000200: 11,2204           26227                           CADR     IMUFINE
000201:
000202: 11,2205           04064                           TC       BANKCALL                              #  HIBERNATION
000203: 11,2206           26730                           CADR     IMUSTALL
000204: 11,2207           02056                           TC       ENDEXTVB
000205:
000206: 11,2210           32274        FINEK2             CAF      LGYROBIN                              #  PINBALL LEFT COMMANDS IN OGC REGIST5RS
000207: 11,2211           04064                           TC       BANKCALL
000208: 11,2212           26333                           CADR     IMUPULSE
000209:
000210: 11,2213           04064                           TC       BANKCALL                              #  WAIT FOR PULSES TO GET OUT.
000211: 11,2214           26730                           CADR     IMUSTALL
000212: 11,2215           02056                           TC       ENDEXTVB
000213: 11,2216           02056                           TC       ENDEXTVB
000214:
000215: 11,2217           02567        VNLODGYR           OCT      02567
000216: 11,2220           04200        IMUFINEV           OCT      04200                                 #  FINE ALIGN VERB
000217:
000218:                                                                                                  #  TEMPORARY ROUTINE TO RUN THE OPTICS CDUS FROM THE KEYBOARD
000219:
000220: 11,2221           10355        OPTCOARK           CCS      SWSAMPLE                              #  SEE IF SWITCH AT COMPUTER
000221: 11,2222           02227                           TC       +5                                    #  SWITCH AT COMPUTER
000222: 11,2223           02224                           TC       +1                                    #  NOT ON COMPUTER
000223: 11,2224           05474                           TC       FALTON                                #  TURN ON OPERATOR ERR
000224: 11,2225           05644                           TC       ALARM                                 #  AND ALARM
000225: 11,2226           00115                           OCT      00115
000226:
000227: 11,2227           10350                           CCS      OPTIND                                #  SEE IF OPTICS AVAILABLE
000228: 11,2230           02236                           TC       OPTC1                                 #  IN USE
000229: 11,2231           02236                           TC       OPTC1                                 #  IN USE
000230: 11,2232           02236                           TC       OPTC1                                 #  IN USE
000231:
000232: 11,2233           05644                           TC       ALARM                                 #  OPTICS RESERVED (OPTIND=-0)
000233: 11,2234           00117                           OCT      00117
000234: 11,2235           04353                           TC       ENDOFJOB
000235:
000236: 11,2236           05550        OPTC1              TC       GRABWAIT
000237: 11,2237           32254                           CAF      VNLDOCDU                              #  VERB-NOUN TO LOAD OPTICS CDUS
000238: 11,2240           05563                           TC       NVSBWAIT
000239: 11,2241           04724                           TC       ENDIDLE
000240: 11,2242           02055                           TC       TERMEXTV
000241: 11,2243           02244                           TC       +1                                    #  PROCEED
000242:
000243: 11,2244           32140                           CAF      OPTCOARV                              #  RE-DISPLAY OUR OWN VERB
000244: 11,2245           04673                           TC       NVSUB
000245: 11,2246           05555                           TC       PRENVBSY
000246: 11,2247           05632                           TC       FREEDSP
000247:
000248: 11,2250           37652                           CAF      ONE
000249: 11,2251           54350                           TS       OPTIND                                #  SET COARS WORKING
000250:
000251: 11,2252           02056                           TC       ENDEXTVB
000252: 11,2253           02056                           TC       ENDEXTVB
000253:
000254: 11,2254           02457        VNLDOCDU           OCT      02457
000255: 11,2255  11,2140               OPTCOARV           EQUALS   IMUCOARV                              #  DIFFERENT NOUNS.
000256:
000257:
000258:                                                                                                  #  PLEASE PERFORM VERB AND PLEASE MARK VERB ----- PRESSING ENTER INDICATES
000259:                                                                                                  #  ACTION REQUESTED HAS BEEN PERFORMED, AND DOES SAME RECALL AS A COMPLETED
000260:                                                                                                  #  LOAD.  OPERATOR SHOULD DO VB PROCEED WITHOUT DATA IF HE WISHES NOT TO
000261:                                                                                                  #  PERFORM THE REQUESTED ACTION.
000262:
000263: 11,2255           05531        GOLOADLV           TC       FLASHOFF
000264: 11,2256           02060                           TC       XACT0
000265: 11,2257           04103                           TC       POSTJUMP
000266: 11,2260           12002                           CADR     LOADLV1
000267:
000268:                                                                                                  #  KEYBOARD REQUEST TO PULSE TORQUE IRIGA
000269:
000270:
000271:
000272: 11,2261           02040        TORQGYRS           TC       TESTXACT                              #  GYRO TORQUING WITH NO MODE-SWITCH.
000273: 11,2262           05550                           TC       GRABWAIT
000274: 11,2263           32217                           CAF      VNLODGYR
000275: 11,2264           05563                           TC       NVSBWAIT
000276: 11,2265           04724                           TC       ENDIDLE
000277: 11,2266           02055                           TC       TERMEXTV
000278: 11,2267           02270                           TC       +1
000279: 11,2270           32275                           CAF      TORQGYRV                              #  RE-DISPLAY OUR OWN VERB
000280: 11,2271           05563                           TC       NVSBWAIT
000281: 11,2272           05632                           TC       FREEDSP
000282: 11,2273           12210                           TCF      FINEK2
000283:
000284: 11,2274           00405        LGYROBIN           ECADR    DELVX
000285: 11,2275           05400        TORQGYRV           OCT      05400
000286:
000287:                                                                                                  #  ALIGN TIME
000288: 11,2276           32321        ALINTIME           CAF      VNLODDT                               #  USES NVSUBMON. DOES NOT TEST DSPLOCK.
000289: 11,2277           54107                           TS       NVTEMP                                #  DOES NOT KILL MONITOR.
000290: 11,2300           04707                           TC       NVSUBMON
000291: 11,2301           04353                           TC       ENDOFJOB                              #  IN CASE OF ALARM IN LOAD REQUEST SET UP.
000292: 11,2302           04724                           TC       ENDIDLE
000293: 11,2303           04353                           TC       ENDOFJOB                              #  TERMINATE
000294: 11,2304           04353                           TC       ENDOFJOB                              #  PROCEED WITHOUT DATA
000295: 11,2305           00004        UPDATIME           INHINT                                         #  DELTA TIME IS IN DSPTEM1, +1.
000296: 11,2306           37657                           CAF      ZERO
000297: 11,2307           54142                           TS       MPAC       +2                         #  NEEDED FOR TP AGREE
000298: 11,2310           54001                           TS       L                                     #  ZERO T1 & 2 WHILE ALIGNING.
000299: 11,2311           52025                           DXCH     TIME2
000300: 11,2312           52141                           DXCH     MPAC
000301: 11,2313           52334                           DXCH     DSPTEM1                               #  INCREMENT.
000302: 11,2314           20141                           DAS      MPAC
000303:
000304: 11,2315           07230                           TC       TPAGREE                               #  FORCE SIGN AGREEMENT.
000305: 11,2316           52141                           DXCH     MPAC                                  #  NEW CLOCK.
000306: 11,2317           20025                           DAS      TIME2
000307: 11,2320           04353                           TC       ENDOFJOB
000308:
000309: 11,2321           02124        VNLODDT            OCT      02124                                 #  V/N FOR LOAD DELTA TIME
000310:
000311:                                                                                                  #           SELECT AND INITIATE DESIRED SYSTEM TEST PROGRAM.
000312:
000313: 11,2322  E5,1546                                  EBANK=   QPLACE
000314:
000315: 11,2322           10276        SYSTEST            CCS      MODREG                                #  DEMAND MODE 00.
000316: 11,2323           12053                           TCF      XACTALM
000317:
000318: 11,2324           05550                           TC       GRABWAIT
000319: 11,2325           32376        REDO               CAF      LQPL                                  #  ASK FOR TEST OPTION (1 - 7).
000320: 11,2326           54142                           TS       MPAC       +2
000321: 11,2327           32375                           CAF      TESTNV
000322: 11,2330           05563                           TC       NVSBWAIT
000323: 11,2331           04724                           TC       ENDIDLE
000324: 11,2332           04352                           TC       EJFREE
000325: 11,2333           02325                           TC       REDO
000326:
000327: 11,2334           04572                           TC       NEWMODEX
000328: 11,2335           00007                           OCT      07
000329:
000330: 11,2336           00004                           INHINT
000331: 11,2337           37635                           CAF      PRIO20
000332: 11,2340           04307                           TC       FINDVAC
000333: 11,2341           02344 22005                     2CADR    TSELECT
000334:
000335: 11,2343           04353                           TC       ENDOFJOB                              #  LEAVING DISPLAY GRABBED FOR SYSTEM TEST.
000336:
000337: 11,2344           47665        TSELECT            CS       LOW4                                  #    OCTAL 17 OPTIONS WITHOUT OPERATOR ERRO
000338: 11,2345           61546                           AD       QPLACE
000339: 11,2346           00006                           EXTEND
000340: 11,2347           62352                           BZMF     +3
000341: 11,2350           05474                           TC       FALTON
000342: 11,2351           02325                           TC       REDO
000343: 11,2352           51546                           INDEX    QPLACE
000344: 11,2353           32355                           CAF      TESTCADR
000345: 11,2354           04106                           TC       BANKJUMP
000346:
000347: 11,2355           22066        TESTCADR           CADR     ALM/END                               #  0  ILLEGAL
000348: 11,2356           36000                           CADR     IMUTEST                               #  1  GYRO DRIFT TEST
000349: 11,2357           36026                           CADR     IMUBACK                               #  2 REPEAT OF IMUTEST
000350: 11,2360           14000                           CADR     SXTNBIMU                              #  3  IMU ALIGNMENT TEST
000351: 11,2361           36230                           CADR     OPCHK                                 #  4  IMU CHECK
000352: 11,2362           36373                           CADR     GYRSFTST                              #  5  GYRO TORQUING TEST
000353: 11,2363           32044                           CADR     STARTPL                               #  6  GYROCOMPASS TEST
000354: 11,2364           35164                           CADR     GTSCPSS                               #  7. OPTIMUM COMPASS
000355: 11,2365           30000                           CADR     SAMODCHK                              #  10 SEMI-AUTOMATIC MODING CHECK
000356: 11,2366           31132                           CADR     SAUTOIFS                              #  11 SEMI-AUTOMATIC INTERFACE TEST
000357: 11,2367           15336                           CADR     SXTANGCK                              #  12 SXT ANGLE CHECK
000358: 11,2370           30500                           CADR     CTRLDISP                              #  13 CONTROLS AND DISPLAYS TEST
000359: 11,2371           31234                           CADR     SUMERASE                              #  14 ERASABLE SUM
000360:
000361: 11,2372           15374                           CADR     ZEROERAS
000362: 11,2373           22066                           CADR     ALM/END
000363: 11,2374           22066                           CADR     ALM/END
000364: 11,2375           02101        TESTNV             OCT      2101
000365: 11,2376           02546        LQPL               ECADR    QPLACE
000366:
000367: 11,2377           04103        GOSHOSUM           TC       POSTJUMP                              #  START ROUTINE TO DISPLAY SUM OF EACH
000368: 11,2400           21453                           CADR     SHOWSUM                               #  BANK ON DSKY
000369:
000370: 11,2401           04103        DOCSITST           TC       POSTJUMP
000371: 11,2402           16720                           CADR     CSISTART
000372:
000373:                                                                                                  #           CKOPTVB     VERB 52             DESCRIPTION
000374:                                                                                                  #               OPTICAL VERIFICATION FOR PRELAUNCH.
000375:                                                                                                  #               1. SCHEDULE OPTCHK, OPTICAL VERIFICATION SUBPROGRAM, WITH PRIORITY 17.
000376:
000377: 11,2403           47651        CKOPTVB            CS       TWO
000378: 11,2404           60276                           AD       MODREG                                #  I WONDER IF PRELAUNCH IS RUNNING
000379: 11,2405           00006                           EXTEND
000380: 11,2406           12410                           BZF      +2
000381: 11,2407           02053                           TC       XACTALM                               #  NOT RUNNING OPERATOR ERROR
000382: 11,2410           00004                           INHINT
000383: 11,2411           34431                           CAF      PRIO17                                #   PRELAUNCH OPTICAL VERIFICATION
000384: 11,2412           04307                           TC       FINDVAC
000385: 11,2413  E5,1546                                  EBANK=   QPLACE
000386: 11,2413           02665 32005                     2CADR    OPTCHK
000387: 11,2415           04353                           TC       ENDOFJOB
000388:
000389:
000390:                                                                                                  #           VB 43  IMU ATTITUDE ERROR METER LOADER.
000391:
000392: 11,2416           02040        IMUATTCK           TC       TESTXACT
000393: 11,2417           42456                           CS       OCT50K                                #  REMOVE COARSE AND ECTR ENABLE.
000394: 11,2420           00006                           EXTEND
000395: 11,2421           03012                           WAND     12
000396:
000397: 11,2422           05550                           TC       GRABWAIT
000398: 11,2423           32137                           CAF      VNLODCDU
000399: 11,2424           05563                           TC       NVSBWAIT
000400: 11,2425           04724                           TC       ENDIDLE
000401: 11,2426           02055                           TC       TERMEXTV
000402: 11,2427           02430                           TC       +1
000403: 11,2430           37645                           CAF      BIT6                                  #  ENABLE ERROR COUNTER.
000404: 11,2431           00006                           EXTEND
000405: 11,2432           05012                           WOR      12
000406: 11,2433           00004                           INHINT
000407: 11,2434           04451                           TC       WAITLIST                              #  PUT OUT COMMAND IN .32 SECS.
000408: 11,2435           02440 22005                     2CADR    ATTCK2
000409:
000410: 11,2437           12055                           TCF      TERMEXTV                              #  FREES DISPLAY.
000411:
000412: 11,2440           37651        ATTCK2             CAF      TWO                                   #  PUT OUT ALL COMMANDS - CDU WILL DO LIMIT
000413: 11,2441           54002                           TS       Q                                     #  INCASE OF EXCESS DATA.
000414: 11,2442           50000                           INDEX    A
000415: 11,2443           30400                           CA       THETAD
000416: 11,2444           00006                           EXTEND
000417: 11,2445           77636                           MP       BIT13                                 #  SHIFT RIGHT 2.
000418: 11,2446           50002                           INDEX    Q
000419: 11,2447           54050                           TS       CDUXCMD
000420: 11,2450           10002                           CCS      Q
000421: 11,2451           12441                           TCF      ATTCK2     +1
000422:
000423: 11,2452           32457        ATTCK3             CAF      OCT70K
000424: 11,2453           00006                           EXTEND
000425: 11,2454           05014                           WOR      14
000426: 11,2455           14505                           TCF      TASKOVER
000427:
000428: 11,2456           00050        OCT50K             OCT      50
000429: 11,2457           70000        OCT70K             OCT      70000
000430:
000431:                                                                                                  #           PROGRAM TO SCAN CHANNELS 30 - 32 FOR CHANGES IN SELECTED INBITS. CALLED BY SPECIAL VERB.
000432:
000433: 11,2460  E7,1461                                  EBANK=   MSGCNT
000434:
000435: 11,2460           37652        SETUPMSG           CAF      BIT1                                  #  BEGIN SCAN.
000436: 11,2461           00004                           INHINT
000437: 11,2462           04451                           TC       WAITLIST
000438: 11,2463           02470 22007                     2CADR    MSGSCAN    +2
000439:
000440: 11,2465           04353                           TC       ENDOFJOB
000441:
000442: 11,2466           04467        MSGSCAN            TC       FIXDELAY
000443: 11,2467           00062                           DEC      50         B-14
000444:
000445: 11,2470           37651                           CAF      TWO                                   #  SCAN ALL 3 CHANNELS FOR CHANGES.
000446: 11,2471           55461                           TS       MSGCNT
000447: 11,2472           50000                           INDEX    A
000448: 11,2473           31456                           CA       LAST30                                #  OLD VALUE OF INBITS.
000449: 11,2474           00006                           EXTEND
000450: 11,2475           51461                           INDEX    MSGCNT
000451: 11,2476           06030                           RXOR     30
000452: 11,2477           51461                           INDEX    MSGCNT
000453: 11,2500           72527                           MASK     30MSGMSK
000454: 11,2501           00006                           EXTEND
000455: 11,2502           12524                           BZF      NOMSG
000456:
000457: 11,2503           54002                           TS       Q                                     #  SAVE DIFFERENCE.
000458: 11,2504           51461                           INDEX    MSGCNT
000459: 11,2505           23456                           LXCH     LAST30                                #  UPDATE OLD VALUE.
000460: 11,2506           00006                           EXTEND
000461: 11,2507           06001                           RXOR     L
000462: 11,2510           51461                           INDEX    MSGCNT
000463: 11,2511           55456                           TS       LAST30
000464:
000465: 11,2512           40000                           COM
000466: 11,2513           56002                           XCH      Q
000467: 11,2514           70002                           MASK     Q                                     #  SEE IF ANY OF CHANGED BITS JUST ON.
000468: 11,2515           00006                           EXTEND
000469: 11,2516           12524                           BZF      NOMSG                                 #  NO MESSAGE IF SO.
000470:
000471: 11,2517           32532                           CAF      OKT30
000472: 11,2520           61461                           AD       MSGCNT
000473: 11,2521           54075                           TS       RUPTREG2
000474:
000475: 11,2522           40002                           CS       Q
000476: 11,2523           02540                           TC       VMESSAGE
000477:
000478: 11,2524           11461        NOMSG              CCS      MSGCNT
000479: 11,2525           12471                           TCF      MSGSCAN    +3
000480: 11,2526           12466                           TCF      MSGSCAN
000481:
000482: 11,2527           01077        30MSGMSK           OCT      1077
000483: 11,2530           77777                           OCT      77777
000484: 11,2531           02077                           OCT      2077
000485:
000486: 11,2532           00030        OKT30              OCT      30
000487:
000488:                                                                                                  #           MESSAGE DISPLAY - 3 COMPONENT OCTAL.
000489:
000490: 11,2533           54075        MESSAGE            TS       RUPTREG2                              #  NEW CHANNEL CONTENTS ARRIVE IN A.
000491: 11,2534           50002                           INDEX    Q                                     #  CHANNEL NUMBER IN OCTAL AT CALLER +1.
000492: 11,2535           30000                           CAF      0
000493: 11,2536           24002                           INCR     Q
000494: 11,2537           56075                           XCH      RUPTREG2
000495:
000496: 11,2540           54074        VMESSAGE           TS       RUPTREG1                              #  FOR VARIABLE CHANNEL.
000497: 11,2541           00006                           EXTEND
000498: 11,2542           22076                           QXCH     RUPTREG3
000499: 11,2543           34440                           CAF      PRIO27                                #  FIRE UP SPECIAL JOB.
000500: 11,2544           04276                           TC       NOVAC
000501: 11,2545           02556 22007                     2CADR    DOMSG
000502:
000503: 11,2547           52075                           DXCH     RUPTREG1                              #  NEW CONTENTS TO MPAC - CHANNEL NUMBER TO
000504: 11,2550           50071                           INDEX    LOCCTR                                #  MPAC +1.
000505: 11,2551           52141                           DXCH     MPAC
000506: 11,2552           30025                           CA       TIME1
000507: 11,2553           50071                           INDEX    LOCCTR
000508: 11,2554           54142                           TS       MPAC       +2
000509: 11,2555           00076                           TC       RUPTREG3
000510:
000511: 11,2556           05550        DOMSG              TC       GRABWAIT
000512: 11,2557           00006                           EXTEND
000513: 11,2560           30141                           DCA      MPAC
000514: 11,2561           52334                           DXCH     DSPTEM1
000515: 11,2562           30142                           CA       MPAC       +2
000516: 11,2563           54335                           TS       DSPTEM1    +2
000517: 11,2564           32573                           CAF      MSGVN
000518: 11,2565           04673                           TC       NVSUB
000519: 11,2566           12570                           TCF      MSGBUSY
000520: 11,2567           04352                           TC       EJFREE
000521:
000522: 11,2570           32572        MSGBUSY            CAF      +2
000523: 11,2571           05560                           TC       NVSUBUSY
000524: 11,2572           22557                           CADR     DOMSG      +1
000525:
000526: 11,2573           00535        MSGVN              OCT      0535
000527:
000528:
000529:                                                                                                  #  VB 60 PREPARE FOR STANDBY OPERATION
000530:
000531:                                                                                                  #  ROUTINE WRITTEN FOR TEST ROPES ONLY*** MUST BE UPDATED TO INCLUDE
000532:                                                                                                  #                                  FLIGHT REQUIREMENTS FOR FLIGHT OPERATION
000533:
000534: 11,2574  E3,1400                                  EBANK=   LST1
000535:
000536: 11,2574           00004        PRESTAND           INHINT                                         #  COMES HERE FROM LST2FAN
000537: 11,2575           30025                           CA       TIME1
000538: 11,2576           54366                           TS       TIMESAV                               #  THIS ROUTINE WILL LOOK AT TIME1 UNTIL
000539: 11,2577           32532                           CAF      OKT30                                 #   TIME1 IS INCREMENTED, THEN IT WILL
000540: 11,2600           54372        LONGER             TS       TIMAR                                 #  SNATCH THE MISSION TIME REGS AND STORE
000541: 11,2601           40366                           CS       TIMESAV                               #  THEM IN TIMESAV FOR LATER ISE IN ARITH.
000542: 11,2602           60025                           AD       TIME1                                 #  OPERATIONS WHICH SHOULD FIND THE
000543: 11,2603           00006                           EXTEND                                         #  STANDING DIFFERENCE BETWEEN THE SCALAR
000544: 11,2604           12611                           BZF      CHKTIME                               #  AND THE TIME1-TIME2S REGS.
000545:
000546: 11,2605           00006                           EXTEND
000547: 11,2606           30025                           DCA      TIME2                                 #  READ AND STORE THE DP TIME AND GO
000548: 11,2607           52367                           DXCH     TIMESAV                               #  READ THE SCALAR USING THE EXISTING PROG
000549: 11,2610           12617                           TCF      CATCHFIN                              #  FINETIME.
000550:
000551: 11,2611           10372        CHKTIME            CCS      TIMAR                                 #  MUST WATCH THE TIME SPENT IN INHINT OR
000552: 11,2612           02600                           TC       LONGER                                #  THE COPS MIGHT CATCH US.
000553: 11,2613           00003                           RELINT
000554: 11,2614           10067                           CCS      NEWJOB
000555: 11,2615           04317                           TC       CHANG1
000556: 11,2616           02577                           TC       LONGER     -1                         #  GO BACK AND LOOK AGAIN
000557:
000558: 11,2617           05721        CATCHFIN           TC       FINETIME                              #  WILL READ CHANNELS 3 AND 4 AND RETURN
000559: 11,2620           52371                           DXCH     SCALSAV                               #  WITH 3 IN A AND 4 IN L..
000560: 11,2621           00003                           RELINT
000561: 11,2622           47647                           CS       BIT4
000562: 11,2623           70361                           MASK     IMODES30                              #  INHIBIT THE IMU FAIL LIGHT.
000563: 11,2624           67647                           AD       BIT4
000564: 11,2625           54361                           TS       IMODES30
000565:
000566: 11,2626           37647                           CAF      BIT4                                  #  SET ALL CHAN 12 BITS EXCEPT C/A TO ZERO.
000567: 11,2627           00006                           EXTEND                                         #  THIS IS NECESSARY SO THAT THE GIMBALS DO
000568: 11,2630           03012                           WAND     12                                    #  NOT DRIFT INTO GIMBALLOCK IF THE SYSTEM
000569:
000570: 11,2631           37647                           CAF      BIT4                                  #  SHOULD BE IN OPERATE AT THE TIME STBY
000571: 11,2632           00006                           EXTEND                                         #  WAS STARTED.  THIS SECTION WILL MAKE
000572: 11,2633           05012                           WOR      12                                    #  SURE THE IMU IS IN C/A.....
000573:
000574: 11,2634           37640                           CAF      BIT11                                 #  WHEN BIT 11 IS PRESENT IN CHANNEL 13 THE
000575: 11,2635           00006                           EXTEND                                         #  DSKY PB. CAN THEN ENERGIZE THE STANDBY
000576: 11,2636           05013                           WOR      13                                    #  RELAY IN THE CGC PWR SUPPLIES....
000577: 11,2637           04353                           TC       ENDOFJOB                              #  GO TO DUMMY JOB UNTIL YOU DIE...
000578:
000579:                                                                                                  #   VB 61 RECOVER FROM STANDBY OPERATION
000580:
000581:                                                                                                  #  ROUTINE WRITTEN FOR TEST ROPES ONLY**** MUST BE UPDATED TO INCLUDE
000582:                                                                                                  #                  FLIGHT REQUIREMENTS FOR FLIGHT OPERATIONS SEQUENCES....
000583:
000584: 11,2640           05721        POSTAND            TC       FINETIME                              #  COMES HERE FROM LST2FAN
000585: 11,2641           52373                           DXCH     TIMAR                                 #  READ THE SCALAR AND SEE IF IT OVERFLOW-
000586: 11,2642           00003                           RELINT                                         #  ED WHILE THE CGC WAS IN STBY, IF SO
000587: 11,2643           30372                           CAE      TIMAR                                 #  THE OVERFLOW MUST BE ADDED OR IT WILL
000588: 11,2644           00006                           EXTEND                                         #  SEEM THAT THE REALATIVITY THEORY WORKS
000589: 11,2645           60370                           SU       SCALSAV                               #  BETTER THAN IT SHOULD...
000590: 11,2646           00006                           EXTEND
000591: 11,2647           62672                           BZMF     ADDTIME                               #  IF ITS NEG. IT MUST HAVE OV:FLWD..
000592:
000593: 11,2650           06000                           TC       INTPRET
000594: 11,2651           45345                           DLOAD    DSU                                   #  IF IT DID NOT OV-FLW. FIND OUT HOW LONG
000595: 11,2652           00373                                    TIMAR                                 #  THE CGC WAS IN STBY BY SUBTRACTING THE
000596: 11,2653           00371                                    SCALSAV                               #  SCALAR AT THE START OF STBY FROM THE
000597: 11,2654           45061                           SRR      RTB                                   #  SCALAR AT THE END OF STBY AND THEN ADD
000598: 11,2655           01606                                    5                                     #  THE DIFFERENCE TO THE TIME EXISTING
000599: 11,2656           11600                                    SGNAGREE                              #  WHEN THE SCALAR WAS READ AT STBY ENTRY**
000600: 11,2657           77615                           DAD
000601: 11,2660           00367                                    TIMESAV
000602: 11,2661           00373                           STORE    TIMAR
000603: 11,2662           77776                           EXIT
000604:
000605: 11,2663           00006        CORCTTIM           EXTEND
000606: 11,2664           30373                           DCA      TIMAR                                 #  THIS IS THE CORRECTED TIME TO BE READ
000607: 11,2665           52025                           DXCH     TIME2                                 #  INTO TIME1 AND TIME2 REGS. ADDR 24-25
000608:
000609: 11,2666           47640                           CS       BIT11
000610: 11,2667           00006                           EXTEND                                         #  DISABLE THE DSKY STBY PUSHBUTTON.
000611: 11,2670           03013                           WAND     13
000612: 11,2671           04353                           TC       ENDOFJOB
000613:
000614: 11,2672           00006        ADDTIME            EXTEND
000615: 11,2673           37632                           DCA      DPOSMAX                               #  IF THE SCALAR OVERFLOWED, FIND OUT HOW
000616: 11,2674           52375                           DXCH     TIMEDIFF                              #  MUCH TIME REMAINED WHEN READ THE FIRST
000617: 11,2675           06000                           TC       INTPRET                               #  TIME AND THEN ADD THE PRESENT READING-
000618: 11,2676           45345                           DLOAD    DSU                                   #  WHICH WILL BE THE TOTAL TIME SPENT IN
000619: 11,2677           00375                                    TIMEDIFF                              #  STANDBY, TO WHICH THE TIME AT STBY
000620: 11,2700           00371                                    SCALSAV                               #  MAY BE ADDED TO FIND THE PRESENT TIME
000621: 11,2701           54215                           DAD      SRR                                   #  CORRECT TO 10 MSEC..
000622: 11,2702           00373                                    TIMAR                                 #  **** THE TIME IN STANDBY MODE MUST NOT
000623: 11,2703           01606                                    5                                     #  EXCEED 23 HOURS IF TIME IS TO BE
000624: 11,2704           77615                           DAD                                            #  CORRECTLY COMPUTED BY THIS ROUTINE.*****
000625: 11,2705           00367                                    TIMESAV
000626: 11,2706           00373                           STORE    TIMAR
000627: 11,2707           77776                           EXIT
000628: 11,2710           02663                           TC       CORCTTIM
000629:
000630: 11,2711                        ENDEXTVS           EQUALS

End of include-file EXTENDED_VERBS.agc.  Parent file is MAIN.agc


