
Source Code


000002:                                                                                                  ## Copyright:   Public domain.
000003:                                                                                                  ## Filename:    IMU_MODE_SWITCHING_ROUTINES.agc
000004:                                                                                                  ## Purpose:     A section of Sundial E.
000005:                                                                                                  ##              It is part of the reconstructed source code for the final
000006:                                                                                                  ##              release of the Block II Command Module system test software. No
000007:                                                                                                  ##              original listings of this program are available; instead, this
000008:                                                                                                  ##              file was created via disassembly of dumps of Sundial core rope
000009:                                                                                                  ##              modules and comparison with other AGC programs.
000010:                                                                                                  ## Assembler:   yaYUL
000011:                                                                                                  ## Contact:     Ron Burkey <info@sandroid.org>.
000012:                                                                                                  ## Website:     www.ibiblio.org/apollo/index.html
000013:                                                                                                  ## Mod history: 2023-06-22 MAS  Created from Aurora 12.
000014:                                                                                                  ##              2023-06-30 MAS  Updated for Sundial E.
000015:
000016:
000017:    4654                                           SETLOC   ENDT4FF
000018:    4654  E3,1451                                  EBANK=   COMMAND
000019:
000020:                                                                                                  #  FIXED-FIXED ROUTINES.
000021:    4654           37657        ZEROICDU           CAF      ZERO                                  #  ZERO ICDU COUNTERS.
000022:    4655           54032                           TS       CDUX
000023:    4656           54033                           TS       CDUY
000024:    4657           54034                           TS       CDUZ
000025:    4660           00002                           TC       Q
000026:
000027:    4661           00620        4SECS              DEC      400        B-14
000028:    4662           00454        3SECS              DEC      300        B-14
000029:    4663           00310        2SECS              DEC      200        B-14
000030:
000031:    4664                        ENDIMODF           EQUALS
000032:
000033:                                                                                                  #  IMU ZEROING ROUTINE.
000034:
000035: 13,2000                                           BANK     13
000036:
000037: 13,2000           00004        IMUZERO            INHINT                                         #  ROUTINE TO ZERO ICDUS.
000038: 13,2001           13365                           TCF      IMUZERO1
000039: 13,2002           70061                           MASK     STATE                                 #  PROGRAM IS USING THE IMU.
000040: 13,2003           67643                           AD       IMUSEFLG
000041: 13,2004           54061                           TS       STATE
000042:
000043: 13,2005           02664                           TC       CAGETSTQ                              #  IF IMU COMING UP, TURN-ON PROGRAM WILL
000044: 13,2006           12033                           TCF      MODEEXIT                              #  DO ALL THE WORK.
000045:
000046: 13,2007           42755                           CS       BITS3&4                               #  INHIBIT ICDUFAIL AND IMUFAIL (IN CASE WE
000047: 13,2010           70361                           MASK     IMODES30                              #  JUST CAME OUT OF COARSE ALIGN).
000048: 13,2011           62755                           AD       BITS3&4
000049: 13,2012           54361                           TS       IMODES30
000050:
000051: 13,2013           42756                           CS       BITS4&6                               #  SEND ZERO ENCODE WITH COARSE AND ERROR
000052: 13,2014           00006                           EXTEND                                         #  COUNTER DISABLED.
000053: 13,2015           03012                           WAND     12
000054:
000055: 13,2016           37646                           CAF      BIT5
000056: 13,2017           00006                           EXTEND
000057: 13,2020           05012                           WOR      12
000058:
000059: 13,2021           37645                           CAF      BIT6                                  #  WAIT 320 MS TO GIVE AGS ADEQUATE TIME TO
000060: 13,2022           04451                           TC       WAITLIST                              #  RECEIVE ITS PULSE TRAIN.
000061: 13,2023           02035 26003                     2CADR    IMUZERO2
000062:
000063: 13,2025           40361                           CS       IMODES30                              #  SEE IF IMU OPERATING AND ALARM IF NOT.
000064: 13,2026           77642                           MASK     BIT9
000065: 13,2027           10000                           CCS      A
000066: 13,2030           12033                           TCF      MODEEXIT
000067:
000068: 13,2031           05644                           TC       ALARM
000069: 13,2032           00210                           OCT      210
000070:
000071: 13,2033           00003        MODEEXIT           RELINT                                         #  GENERAL MODE-SWITCHING EXIT.
000072: 13,2034           14077                           TCF      SWRETURN
000073:
000074: 13,2035           02664        IMUZERO2           TC       CAGETSTQ                              #  POSSIBLY SWITCH TO TURN-ON PROGRAM.
000075: 13,2036           14505                           TCF      TASKOVER
000076:
000077: 13,2037           04654                           TC       ZEROICDU                              #  ZERO COUNTERS.
000078: 13,2040           47646                           CS       BIT5                                  #  REMOVE ZERO DISCRETE.
000079: 13,2041           00006                           EXTEND
000080: 13,2042           03012                           WAND     12
000081:
000082: 13,2043           34661                           CAF      4SECS                                 #  WAIT FOR COUNTERS TO SYNCRONIZE.
000083: 13,2044           04472                           TC       VARDELAY
000084:
000085: 13,2045           02664        IMUZERO3           TC       CAGETSTQ
000086: 13,2046           14505                           TCF      TASKOVER
000087:
000088: 13,2047           42755                           CS       BITS3&4                               #  REMOVE IMUFAIL AND ICDUFAIL INHIBIT.
000089: 13,2050           70361                           MASK     IMODES30
000090: 13,2051           54361                           TS       IMODES30
000091:
000092: 13,2052           04132                           TC       IBNKCALL                              #  SET ISS WARNING IF EITHER OF ABOVE ARE
000093: 13,2053           25176                           CADR     SETISSW                               #  PRESENT.
000094:
000095: 13,2054           12647                           TCF      ENDIMU
000096:
000097:                                                                                                  #  IMU COARSE ALIGN MODE.
000098:
000099: 13,2055           37647        IMUCOARS           CAF      BIT4                                  #  SEND COARSE ALIGN ENABLE DISCRETE
000100: 13,2056           00004                           INHINT
000101: 13,2057           00006                           EXTEND
000102: 13,2060           05012                           WOR      CHAN12
000103:
000104: 13,2061           47647                           CS       BIT4                                  #  INHIBIT IMU FAIL.
000105: 13,2062           70361                           MASK     IMODES30
000106: 13,2063           67647                           AD       BIT4
000107: 13,2064           54361                           TS       IMODES30
000108:
000109: 13,2065           36162                           CAF      SIX
000110: 13,2066           04451                           TC       WAITLIST
000111: 13,2067           02072 26003                     2CADR    COARS
000112:
000113: 13,2071           12033                           TCF      MODEEXIT
000114:
000115: 13,2072           02657        COARS              TC       CAGETEST
000116: 13,2073           37645                           CAF      BIT6                                  #  ENABLE ALL THREE ISS CDU ERROR COUNTERS
000117: 13,2074           00006                           EXTEND
000118: 13,2075           05012                           WOR      CHAN12
000119:
000120: 13,2076           37651                           CAF      TWO                                   #  SET CDU INDICATOR
000121: 13,2077           55454        COARS1             TS       CDUIND
000122:
000123: 13,2100           51454                           INDEX    CDUIND                                #  COMPUTE THETAD - THETAA IN 1:S
000124: 13,2101           30400                           CA       THETAD                                #    COMPLEMENT FORM
000125: 13,2102           00006                           EXTEND
000126: 13,2103           51454                           INDEX    CDUIND
000127: 13,2104           20032                           MSU      CDUX
000128: 13,2105           00006                           EXTEND
000129: 13,2106           77636                           MP       BIT13                                 #  SHIFT RIGHT 2
000130: 13,2107           56001                           XCH      L                                     #  ROUND
000131: 13,2110           60000                           DOUBLE
000132: 13,2111           54065                           TS       ITEMP1
000133: 13,2112           12114                           TCF      +2
000134: 13,2113           26001                           ADS      L
000135:
000136: 13,2114           51454                           INDEX    CDUIND                                #  DIFFERENCE TO BE COMPUTED
000137: 13,2115           23451                           LXCH     COMMAND
000138: 13,2116           11454                           CCS      CDUIND
000139: 13,2117           02077                           TC       COARS1
000140:
000141: 13,2120           37651                           CAF      TWO                                   #  MINIMUM OF 4 MS WAIT
000142: 13,2121           04472                           TC       VARDELAY
000143:
000144: 13,2122           02657        COARS2             TC       CAGETEST                              #  DONT CONTINUE IF CAGED.
000145: 13,2123           54065                           TS       ITEMP1                                #  SETS TO +0.
000146: 13,2124           37651                           CAF      TWO                                   #  SET CDU INDICATOR
000147: 13,2125           55454                 +3        TS       CDUIND
000148:
000149: 13,2126           51454                           INDEX    CDUIND
000150: 13,2127           11451                           CCS      COMMAND                               #  NUMBER OF PULSES REQUIRED
000151: 13,2130           02134                           TC       COMPOS                                #  GREATER THAN MAX ALLOWED
000152: 13,2131           02143                           TC       NEXTCDU    +1
000153: 13,2132           02206                           TC       COMNEG
000154: 13,2133           02143                           TC       NEXTCDU    +1
000155:
000156: 13,2134           62761        COMPOS             AD       -COMMAX                               #  COMMAX = MAX NUMBER OF PULSES ALLOWED
000157: 13,2135           00006                           EXTEND                                         #    MINUS ONE
000158: 13,2136           62216                           BZMF     COMZERO
000159: 13,2137           51454                           INDEX    CDUIND
000160: 13,2140           55451                           TS       COMMAND                               #  REDUCE COMMAND BY MAX NUMBER OF PULSES
000161: 13,2141           42762                           CS       -COMMAX-                              #    ALLOWED
000162:
000163: 13,2142           24065        NEXTCDU            INCR     ITEMP1
000164: 13,2143           51454                           INDEX    CDUIND
000165: 13,2144           54050                           TS       CDUXCMD                               #  SET UP COMMAND REGISTER.
000166:
000167: 13,2145           11454                           CCS      CDUIND
000168: 13,2146           02125                           TC       COARS2     +3
000169:
000170: 13,2147           10065                           CCS      ITEMP1                                #  SEE IF ANY PULSES TO GO OUT.
000171: 13,2150           12222                           TCF      SENDPULS
000172:
000173: 13,2151           04467                           TC       FIXDELAY                              #  WAIT FOR GIMBALS TO SETTLE.
000174: 13,2152           00226                           DEC      150        B-14
000175:
000176: 13,2153           37651                           CAF      TWO                                   #  AT END OF COMMAND, CHECK TO SEE THAT
000177: 13,2154           54065        CHKCORS            TS       ITEMP1                                #  GIMBALS ARE WITHIN 2 DEGREES OF THETAD.
000178: 13,2155           50000                           INDEX    A
000179: 13,2156           30032                           CA       CDUX
000180: 13,2157           00006                           EXTEND
000181: 13,2160           50065                           INDEX    ITEMP1
000182: 13,2161           20400                           MSU      THETAD
000183: 13,2162           10000                           CCS      A
000184: 13,2163           12177                           TCF      COARSERR
000185: 13,2164           12166                           TCF      CORSCHK2
000186: 13,2165           12177                           TCF      COARSERR
000187:
000188: 13,2166           10065        CORSCHK2           CCS      ITEMP1
000189: 13,2167           12154                           TCF      CHKCORS
000190: 13,2170           55451                           TS       GCOMP                                 #  ZERO GYRO COMPENSATION REGISTERS IN
000191: 13,2171           55452                           TS       GCOMP      +1                         #  PREPARATION FOR COMPENSATION.
000192: 13,2172           55453                           TS       GCOMP      +2
000193: 13,2173           55454                           TS       GCOMP      +3
000194: 13,2174           55455                           TS       GCOMP      +4
000195: 13,2175           55456                           TS       GCOMP      +5
000196:
000197: 13,2176           12647                           TCF      ENDIMU                                #  END OF COARSE ALIGNMENT.
000198:
000199: 13,2177           62205        COARSERR           AD       COARSTOL                              #  2 DEGREES.
000200: 13,2200           00006                           EXTEND
000201: 13,2201           62166                           BZMF     CORSCHK2
000202:
000203: 13,2202           05644                           TC       ALARM                                 #  COARSE ALIGN ERROR.
000204: 13,2203           00211                           OCT      211
000205:
000206: 13,2204           12655                           TCF      IMUBAD
000207:
000208: 13,2205           77511        COARSTOL           DEC      -.01111                               #  2 DEGREES SCALED AT HALF-REVOLUTIONS.
000209:
000210: 13,2206           62761        COMNEG             AD       -COMMAX
000211: 13,2207           00006                           EXTEND
000212: 13,2210           62216                           BZMF     COMZERO
000213: 13,2211           40000                           COM
000214: 13,2212           51454                           INDEX    CDUIND
000215: 13,2213           55451                           TS       COMMAND
000216: 13,2214           32762                           CA       -COMMAX-
000217: 13,2215           02142                           TC       NEXTCDU
000218:
000219: 13,2216           37657        COMZERO            CAF      ZERO
000220: 13,2217           51454                           INDEX    CDUIND
000221: 13,2220           57451                           XCH      COMMAND
000222: 13,2221           02142                           TC       NEXTCDU
000223:
000224: 13,2222           32760        SENDPULS           CAF      13,14,15
000225: 13,2223           00006                           EXTEND
000226: 13,2224           05014                           WOR      CHAN14
000227: 13,2225           32763                           CAF      600MS
000228: 13,2226           12121                           TCF      COARS2     -1                         #  AND THEN TO VARDELAY.
000229:
000230:                                                                                                  #  IMU FINE ALIGN MODE SWITCH.
000231:
000232: 13,2227           00004        IMUFINE            INHINT
000233: 13,2230           02671                           TC       CAGETSTJ                              #  SEE IF IMU BEING CAGED.
000234:
000235: 13,2231           42757                           CS       BITS4-6                               #  RESET ZERO, COARSE, AND ECTR ENABLE.
000236: 13,2232           00006                           EXTEND
000237: 13,2233           03012                           WAND     12
000238:
000239: 13,2234           37641                           CAF      BIT10                                 #  IMU FAIL WAS INHIBITED DURING THE
000240: 13,2235           04451                           TC       WAITLIST                              #  PRESUMABLY PRECEDING COARSE ALIGN.  LEAVE
000241: 13,2236           02247 26003                     2CADR    IFAILOK                               #  IT ON FOR THE FIRST 5 SECS OF FINE ALIGN
000242:
000243: 13,2240           32764                           CAF      90SEC                                 #  GYRO RE-CENTERING TIME.
000244: 13,2241           04451                           TC       WAITLIST
000245: 13,2242           02245 26003                     2CADR    IMUFINED
000246:
000247: 13,2244           12033                           TCF      MODEEXIT
000248:
000249: 13,2245           02657        IMUFINED           TC       CAGETEST                              #  SEE THAT NO ONE HAS CAGED THE IMU.
000250: 13,2246           12647                           TCF      ENDIMU
000251:
000252: 13,2247           02664        IFAILOK            TC       CAGETSTQ                              #  ENABLE IMU FAIL UNLESS IMU BEING CAGED.
000253: 13,2250           14505                           TCF      TASKOVER                              #  IT IS.
000254:
000255: 13,2251           37647                           CAF      BIT4                                  #  DONT RESET IMU FAIL INHIBIT IF SOMEONE
000256: 13,2252           00006                           EXTEND                                         #  HAS GONE INTO COARSE ALIGN.
000257: 13,2253           02012                           RAND     12
000258: 13,2254           10000                           CCS      A
000259: 13,2255           14505                           TCF      TASKOVER
000260:
000261: 13,2256           47636                           CS       BIT13                                 #  RESET IMUFAIL.
000262: 13,2257           70361                           MASK     IMODES30
000263: 13,2260           67636                           AD       BIT13
000264: 13,2261           54361                           TS       IMODES30
000265:
000266: 13,2262           47647                           CS       BIT4
000267: 13,2263           70361        PFAILOK2           MASK     IMODES30
000268: 13,2264           54361                           TS       IMODES30
000269: 13,2265           14505                           TCF      TASKOVER
000270:
000271: 13,2266           02664        PFAILOK            TC       CAGETSTQ                              #  ENABLE PIP FAIL PROG ALARM.
000272: 13,2267           14505                           TCF      TASKOVER
000273:
000274: 13,2270           47641                           CS       BIT10                                 #  RESET IMU AND PIPA FAIL BITS.
000275: 13,2271           70361                           MASK     IMODES30
000276: 13,2272           67641                           AD       BIT10
000277: 13,2273           54361                           TS       IMODES30
000278:
000279: 13,2274           47636                           CS       BIT13
000280: 13,2275           70362                           MASK     IMODES33
000281: 13,2276           67636                           AD       BIT13
000282: 13,2277           54362                           TS       IMODES33
000283:
000284: 13,2300           47646                           CS       BIT5
000285: 13,2301           12263                           TCF      PFAILOK2
000286:
000287:                                                                                                  #  ROUTINES TO INITIATE AND TERMINATE PROGRAM USE OF THE PIPAS. NO IMUSTALL REQUIRED IN EITHER CASE.
000288:
000289: 13,2302           02664        PIPUSE             TC       CAGETSTQ                              #  DONT ENABLE PIPA FAIL IF IMU BEING CAGED
000290: 13,2303           14077                           TCF      SWRETURN
000291:
000292: 13,2304           00004                           INHINT
000293: 13,2305           37657                           CAF      ZERO                                  #  ZERO COUNTERS.
000294: 13,2306           54037                           TS       PIPAX
000295: 13,2307           54040                           TS       PIPAY
000296: 13,2310           54041                           TS       PIPAZ
000297:
000298: 13,2311           47652                           CS       BIT1                                  #  IF PIPA FAILS FROM NOW ON (UNTIL
000299: 13,2312           70361                           MASK     IMODES30                              #  PIPFREE), LIGHT ISS WARNING.
000300: 13,2313           54361                           TS       IMODES30
000301:
000302: 13,2314           04132        PIPFREE2           TC       IBNKCALL                              #  ISS WARNING MIGHT COME ON NOW.
000303: 13,2315           25176                           CADR     SETISSW                               #  (OR GO OFF ON PIPFREE).
000304:
000305: 13,2316           12033                           TCF      MODEEXIT
000306:
000307: 13,2317           00004        PIPFREE            INHINT                                         #  PROGRAM DONE WITH PIPAS. DONT LIGHT
000308: 13,2320           47652                           CS       BIT1                                  #  ISS WARNING.
000309: 13,2321           70361                           MASK     IMODES30
000310: 13,2322           67652                           AD       BIT1
000311: 13,2323           54361                           TS       IMODES30
000312:
000313: 13,2324           77641                           MASK     BIT10                                 #  IF PIP FAIL ON, DO PROG ALSRM AND RESET
000314: 13,2325           10000                           CCS      A                                     #  ISS WARNING.
000315: 13,2326           12033                           TCF      MODEEXIT
000316:
000317: 13,2327           05644                           TC       ALARM
000318: 13,2330           00212                           OCT      212
000319:
000320: 13,2331           00004                           INHINT
000321:
000322: 13,2332           12314                           TCF      PIPFREE2
000323:
000324:                                                                                                  #           THE FOLLOWING ROUTINE TORQUES THE IRIGS ACCORDING TO DOUBLE PRECISION INPUTS IN THE SIX REGISTERS
000325:                                                                                                  #  BEGINNING AT THE ECADR ARRIVING IN A. THE MINIMUM SIZE OF ANY PULSE TRAIN IS 16 PULSES (.25 CDU COUNTS). THE
000326:                                                                                                  #  UNSENT PORTION OF THE COMMAND IS LEFT INTACT IN THE INPUT COMMAND REGISTERS.
000327:
000328: 13,2333  E3,1400                                  EBANK=   1400                                  #  VARIABLE, ACTUALLY.
000329:
000330: 13,2333           54145        IMUPULSE           TS       MPAC       +5                         #  SAVE ARRIVING ECADR.
000331: 13,2334           02671                           TC       CAGETSTJ                              #  DONT PROCEED IF IMU BEING CAGED.
000332:
000333: 13,2335           10351                           CCS      LGYRO                                 #  SEE IF GYROS BUSY.
000334: 13,2336           02400                           TC       GYROBUSY                              #  SLEEP.
000335:
000336: 13,2337           54142                           TS       MPAC       +2
000337: 13,2340           37645                           CAF      BIT6                                  #  ENABLE THE POWER SUPPLY.
000338: 13,2341           00006                           EXTEND
000339: 13,2342           05014                           WOR      14
000340:
000341: 13,2343           37650                           CAF      FOUR
000342: 13,2344           00004        GWAKE2             INHINT                                         #  (IF A JOB WAS PUT TO SLEEP, THE POWER
000343: 13,2345           04451                           TC       WAITLIST                              #  SUPPLY IS LEFT ON BY THE WAKING JOB).
000344: 13,2346           02416 26003                     2CADR    STRTGYRO
000345:
000346: 13,2350           30145                           CA       MPAC       +5                         #  SET UP EBANK, SAVING CALLER'S EBANK FOR
000347: 13,2351           56003                           XCH      EBANK                                 #  RESTORATION ON RETURN.
000348: 13,2352           56145                           XCH      MPAC       +5
000349: 13,2353           54351                           TS       LGYRO                                 #  RESERVES GYROS.
000350: 13,2354           75466                           MASK     LOW8
000351: 13,2355           54065                           TS       ITEMP1
000352:
000353: 13,2356           37651                           CAF      TWO                                   #  FORCE SIGN AGREEMENT ON INPUTS.
000354: 13,2357           54143        GYROAGRE           TS       MPAC       +3
000355: 13,2360           60000                           DOUBLE
000356: 13,2361           60065                           AD       ITEMP1
000357: 13,2362           54144                           TS       MPAC       +4
000358: 13,2363           00006                           EXTEND
000359: 13,2364           50000                           INDEX    A
000360: 13,2365           31401                           DCA      1400
000361: 13,2366           52141                           DXCH     MPAC
000362: 13,2367           07230                           TC       TPAGREE
000363: 13,2370           52141                           DXCH     MPAC
000364: 13,2371           50144                           INDEX    MPAC       +4
000365: 13,2372           53401                           DXCH     1400
000366:
000367: 13,2373           10143                           CCS      MPAC       +3
000368: 13,2374           12357                           TCF      GYROAGRE
000369:
000370: 13,2375           30145                           CA       MPAC       +5                         #  RESTORE CALLER'S EBANK.
000371: 13,2376           54003                           TS       EBANK
000372: 13,2377           12033                           TCF      MODEEXIT
000373:
000374:                                                                                                  #  ROUTINES TO ALLOW TORQUING BY ONLY ONE JOB AT A TIME.
000375:
000376: 13,2400           00006        GYROBUSY           EXTEND                                         #  SAVE RETURN 2FCADR.
000377: 13,2401           30120                           DCA      BUF2
000378: 13,2402           52141                           DXCH     MPAC
000379: 13,2403           32415        REGSLEEP           CAF      LGWAKE
000380: 13,2404           14331                           TCF      JOBSLEEP
000381:
000382: 13,2405           10351        GWAKE              CCS      LGYRO                                 #  WHEN AWAKENED, SEE IF GYROS STILL BUSY.
000383: 13,2406           12403                           TCF      REGSLEEP                              #  IF SO, SLEEP SOME MORE.
000384:
000385: 13,2407           54142                           TS       MPAC       +2
000386: 13,2410           00006                           EXTEND
000387: 13,2411           30141                           DCA      MPAC
000388: 13,2412           52120                           DXCH     BUF2                                  #  RESTORE SWRETURN INFO.
000389: 13,2413           37652                           CAF      ONE
000390: 13,2414           12344                           TCF      GWAKE2
000391:
000392: 13,2415           26405        LGWAKE             CADR     GWAKE
000393:
000394:                                                                                                  #  GYRO-TORQUING WAITLIST TASKS.
000395:
000396: 13,2416           42644        STRTGYRO           CS       GDESELCT                              #  DE-SELECT LAST GYRO.
000397: 13,2417           00006                           EXTEND
000398: 13,2420           03014                           WAND     14
000399:
000400: 13,2421           02657                           TC       CAGETEST
000401:
000402: 13,2422           30351        STRTGYR2           CA       LGYRO                                 #  JUMP ON PHASE COUNTER IN BITS 13-14.
000403: 13,2423           00006                           EXTEND
000404: 13,2424           77647                           MP       BIT4
000405: 13,2425           50000                           INDEX    A
000406: 13,2426           12427                           TCF      +1
000407: 13,2427           02456                           TC       GSELECT                               #  =0. DO Y GYRO.
000408: 13,2430           00202                           OCT      00202
000409:
000410: 13,2431           02456                           TC       GSELECT                               #  =1. DO Z GYRO.
000411: 13,2432           00302                           OCT      00302
000412:
000413: 13,2433           02454                           TC       GSELECT    -2                         #  =2. DO X GYRO.
000414: 13,2434           00100                           OCT      00100
000415:
000416: 13,2435           37657                           CAF      ZERO                                  #  =3. DONE
000417: 13,2436           54351                           TS       LGYRO
000418: 13,2437           32415                           CAF      LGWAKE                                #  WAKE A POSSIBLE SLEEPING JOB.
000419: 13,2440           04335                           TC       JOBWAKE
000420:
000421: 13,2441           37651                           CAF      BIT2                                  #  DONT RESET POWER SUPPLY IF BIT SET
000422: 13,2442           70362                           MASK     IMODES33                              #  (ONLY DURING GYRO TORQUE SCALE FACTOR
000423: 13,2443           10000                           CCS      A                                     #  TEST).
000424: 13,2444           12453                           TCF      NORESET
000425:
000426: 13,2445           10071                           CCS      LOCCTR                                #  IF A JOB WAS AWAKENED, DONT RESET GYRO
000427: 13,2446           12453                           TCF      NORESET                               #  ENABLE.
000428:
000429: 13,2447           12453                           TCF      NORESET
000430:
000431: 13,2450           47645                           CS       BIT6                                  #  IF NO JOB AWAKENED, RESET GYRO ENABLE.
000432: 13,2451           00006                           EXTEND
000433: 13,2452           03014                           WAND     14
000434:
000435: 13,2453           12245        NORESET            TCF      IMUFINED
000436:
000437: 13,2454           47650                 -2        CS       FOUR                                  #  SPECIAL ENTRY TO REGRESS LGYRO FOR X.
000438: 13,2455           26351                           ADS      LGYRO
000439:
000440: 13,2456           50002        GSELECT            INDEX    Q                                     #  SELECT GYRO.
000441: 13,2457           30000                           CAF      0                                     #  PACKED WORD CONTAINS GYRO SELECT BITS
000442: 13,2460           54071                           TS       ITEMP4                                #  AND INCREMENT TO LGYRO.
000443: 13,2461           77656                           MASK     SEVEN
000444: 13,2462           67636                           AD       BIT13
000445: 13,2463           26351                           ADS      LGYRO
000446: 13,2464           54003                           TS       EBANK
000447: 13,2465           75466                           MASK     LOW8
000448: 13,2466           54065                           TS       ITEMP1
000449:
000450: 13,2467           47656                           CS       SEVEN
000451: 13,2470           70071                           MASK     ITEMP4
000452: 13,2471           54071                           TS       ITEMP4
000453:
000454: 13,2472           00006                           EXTEND                                         #  MOVE DP COMMAND TO RUPTREGS FOR TESTING.
000455: 13,2473           50065                           INDEX    ITEMP1
000456: 13,2474           31401                           DCA      1400
000457: 13,2475           52075                           DXCH     RUPTREG1
000458:
000459: 13,2476           10074                           CCS      RUPTREG1
000460: 13,2477           12512                           TCF      MAJ+
000461: 13,2500           12502                           TCF      +2
000462: 13,2501           12625                           TCF      MAJ-
000463:
000464: 13,2502           10075                           CCS      RUPTREG2
000465: 13,2503           12507                           TCF      MIN+
000466: 13,2504           12422                           TCF      STRTGYR2
000467: 13,2505           12622                           TCF      MIN-
000468: 13,2506           12422                           TCF      STRTGYR2
000469:
000470: 13,2507           62543        MIN+               AD       -GYROMIN                              #  SMALL POSITIVE COMMAND. SEE IF AT LEAST
000471: 13,2510           00006                           EXTEND                                         #  16 GYRO PULSES.
000472: 13,2511           62422                           BZMF     STRTGYR2
000473:
000474: 13,2512           00006        MAJ+               EXTEND                                         #  DEFINITE POSITIVE OUTPUT.
000475: 13,2513           32646                           DCA      GYROFRAC
000476: 13,2514           20075                           DAS      RUPTREG1
000477:
000478: 13,2515           30071                           CA       ITEMP4                                #  SELECT POSITIVE TORQUING FOR THIS GYRO.
000479: 13,2516           00006                           EXTEND
000480: 13,2517           05014                           WOR      14
000481:
000482: 13,2520           36027                           CAF      LOW7                                  #  LEAVE NUMBER OF POSSIBLE 8192 AUGMENTS
000483: 13,2521           70075                           MASK     RUPTREG2                              #  TO INITIAL COMMAND IN MAJOR PART OF LONG
000484: 13,2522           56075                           XCH      RUPTREG2                              #  TERM STORAGE AND TRUNCATED FRACTION
000485: 13,2523           00006        GMERGE             EXTEND                                         #  IN MINOR PART. THE MAJOR PART WILL BE
000486: 13,2524           77643                           MP       BIT8                                  #  COUNTED DOWN TO ZERO IN THE COURSE OF
000487: 13,2525           54066                           TS       ITEMP2                                #  PUTTING OUT THE ENTIRE COMMAND.
000488: 13,2526           30074                           CA       RUPTREG1
000489: 13,2527           00006                           EXTEND
000490: 13,2530           77642                           MP       BIT9
000491: 13,2531           54074                           TS       RUPTREG1
000492: 13,2532           30001                           CA       L
000493: 13,2533           00006                           EXTEND
000494: 13,2534           77635                           MP       BIT14
000495: 13,2535           26066                           ADS      ITEMP2                                #  INITIAL COMMAND.
000496:
000497: 13,2536           00006                           EXTEND                                         #  SEE IF MORE THAN ONE PULSE TRAIN NEEDED
000498: 13,2537           30075                           DCA      RUPTREG1                              #  (MORE THAN 16383 PULSES).
000499: 13,2540           67661                           AD       MINUS1
000500: 13,2541           10000                           CCS      A
000501: 13,2542           12566                           TCF      LONGGYRO
000502: 13,2543           77600        -GYROMIN           OCT      -177                                  #  MAY BE ADJUSTED TO SPECIFY MINIMUM CMD.
000503:
000504: 13,2544           12550                           TCF      +4
000505:
000506: 13,2545           37635                           CAF      BIT14
000507: 13,2546           26066                           ADS      ITEMP2
000508: 13,2547           37657                           CAF      ZERO
000509:
000510: 13,2550           50065                 +4        INDEX    ITEMP1
000511: 13,2551           53401                           DXCH     1400
000512: 13,2552           30066                           CA       ITEMP2                                #  ENTIRE COMMAND.
000513: 13,2553           54047        LASTSEG            TS       GYROCMD
000514: 13,2554           00006                           EXTEND
000515: 13,2555           77641                           MP       BIT10                                 #  WAITLIST DT
000516: 13,2556           66165                           AD       THREE                                 #  TRUNCATION AND PHASE UNCERTAINTIES.
000517: 13,2557           04451                           TC       WAITLIST
000518: 13,2560           02416 26003                     2CADR    STRTGYRO
000519:
000520: 13,2562           37641        GYROEXIT           CAF      BIT10                                 #  TURN ON GYRO ACTIVITY TO START TRAIN.
000521: 13,2563           00006                           EXTEND
000522: 13,2564           05014                           WOR      14
000523: 13,2565           14505                           TCF      TASKOVER
000524:
000525: 13,2566           50065        LONGGYRO           INDEX    ITEMP1
000526: 13,2567           53401                           DXCH     1400                                  #  INITIAL COMMAND OUT PLUS N AUGMENTS OF
000527: 13,2570           37635                           CAF      BIT14                                 #  8192. INITIAL COMMAND IS AT LEAST 8192.
000528: 13,2571           60066                           AD       ITEMP2
000529: 13,2572           54047                           TS       GYROCMD
000530:
000531: 13,2573           00006        AUG3               EXTEND                                         #  GET WAITLIST DT TO TIME WHEN TRAIN IS
000532: 13,2574           77641                           MP       BIT10                                 #  ALMOST OUT.
000533: 13,2575           67663                           AD       NEG3
000534: 13,2576           04451                           TC       WAITLIST
000535: 13,2577           02602 26003                     2CADR    8192AUG
000536:
000537: 13,2601           12562                           TCF      GYROEXIT
000538:
000539: 13,2602           02657        8192AUG            TC       CAGETEST
000540:
000541: 13,2603           30351                           CA       LGYRO                                 #  ADD 8192 PULSES TO GYROCMD
000542: 13,2604           54003                           TS       EBANK
000543: 13,2605           75466                           MASK     LOW8
000544: 13,2606           54065                           TS       ITEMP1
000545:
000546: 13,2607           50065                           INDEX    ITEMP1                                #  SEE IF THIS IS THE LAST AUG.
000547: 13,2610           11400                           CCS      1400
000548: 13,2611           12615                           TCF      AUG2                                  #  MORE TO COME.
000549:
000550: 13,2612           37635                           CAF      BIT14
000551: 13,2613           26047                           ADS      GYROCMD
000552: 13,2614           12554                           TCF      LASTSEG    +1
000553:
000554: 13,2615           50065        AUG2               INDEX    ITEMP1
000555: 13,2616           55400                           TS       1400
000556: 13,2617           37635                           CAF      BIT14
000557: 13,2620           26047                           ADS      GYROCMD
000558: 13,2621           12573                           TCF      AUG3                                  #  COMPUTE DT.
000559:
000560: 13,2622           62543        MIN-               AD       -GYROMIN                              #  POSSIBLE NEGATIVE OUTPUT.
000561: 13,2623           00006                           EXTEND
000562: 13,2624           62422                           BZMF     STRTGYR2
000563:
000564: 13,2625           00006        MAJ-               EXTEND                                         #  DEFINITE NEGATIVE OUTPUT.
000565: 13,2626           42646                           DCS      GYROFRAC
000566: 13,2627           20075                           DAS      RUPTREG1
000567:
000568: 13,2630           30071                           CA       ITEMP4                                #  SELECT NEGATIVE TORQUING FOR THIS GYRO.
000569: 13,2631           67642                           AD       BIT9
000570: 13,2632           00006                           EXTEND
000571: 13,2633           05014                           WOR      14
000572:
000573: 13,2634           40074                           CS       RUPTREG1                              #  SET UP RUPTREGS TO FALL INTO GMERGE.
000574: 13,2635           54074                           TS       RUPTREG1                              #  ALL NUMBERS PUT INTO GYROCMD ARE
000575: 13,2636           40075                           CS       RUPTREG2                              #  POSITIVE - BIT9 OF CHAN 14 DETERMINES
000576: 13,2637           76027                           MASK     LOW7                                  #  THE SIGN OF THE COMMAND.
000577: 13,2640           40000                           COM
000578: 13,2641           56075                           XCH      RUPTREG2
000579: 13,2642           40000                           COM
000580: 13,2643           12523                           TCF      GMERGE
000581:
000582: 13,2644           01700        GDESELCT           OCT      1700                                  #  TURN OFF SELECT AND ACTIVITY BITS.
000583:
000584: 13,2645           00000 00034  GYROFRAC           2DEC     .215       B          -21
000585:
000586:                                                                                                  #  IMU MODE SWITCHING ROUTINES COME HERE WHEN ACTION COMPLETE.
000587:
000588: 13,2647           00006        ENDIMU             EXTEND                                         #  MODE IS BAD IF CAGE HAS OCCURED OR IF
000589: 13,2650           00011                           READ     11                                    #  ISS WARNING IS ON.
000590: 13,2651           77652                           MASK     BIT1
000591: 13,2652           10000                           CCS      A
000592: 13,2653           12655                           TCF      IMUBAD
000593:
000594: 13,2654           12703        IMUGOOD            TCF      GOODEND                               #  WITH C(A) = 0.
000595:
000596: 13,2655           37657        IMUBAD             CAF      ZERO
000597: 13,2656           12700                           TCF      BADEND
000598:
000599: 13,2657           37645        CAGETEST           CAF      BIT6                                  #  SUBROUTINE TO TERMINATE IMU MODE
000600: 13,2660           70361                           MASK     IMODES30                              #  SWITCH IF IMU HAS BEEN CAGED.
000601: 13,2661           10000                           CCS      A
000602: 13,2662           12655                           TCF      IMUBAD                                #  DIRECTLY.
000603: 13,2663           00002                           TC       Q                                     #  WITH C(A) = +0.
000604:
000605: 13,2664           40361        CAGETSTQ           CS       IMODES30                              #  SKIP IF IMU NOT BEING CAGED.
000606: 13,2665           77645                           MASK     BIT6
000607: 13,2666           10000                           CCS      A
000608: 13,2667           24002                           INCR     Q
000609: 13,2670           00002                           TC       Q
000610:
000611: 13,2671           40361        CAGETSTJ           CS       IMODES30                              #  IF DURING MODE SWITCH INITIALIZATION
000612: 13,2672           77645                           MASK     BIT6                                  #  IT IS FOUND THAT THE IMU IS BEING CAGED,
000613: 13,2673           10000                           CCS      A                                     #  SET IMUCADR TO -0 TO INDICATE OPERATION
000614: 13,2674           00002                           TC       Q                                     #  COMPLETE BUT FAILED. RETURN IMMEDIATELY
000615:
000616: 13,2675           47657                           CS       ZERO                                  #  TO SWRETURN.
000617: 13,2676           54363                           TS       IMUCADR
000618: 13,2677           12033                           TCF      MODEEXIT
000619:
000620:                                                                                                  #           GENERALIZED MODE SWITCHING TERMINATION. ENTER AT GOODEND FOR SUCCESSFUL COMPLETION OF AN I/O OPERATION
000621:                                                                                                  #  OR AT BADEND FOR A N UNSUCCESSFUL ONE. C(A) OR ARRIVAL =0 FOR IMU, 1 FOR OPTICS.
000622:
000623: 13,2700           54075        BADEND             TS       RUPTREG2                              #  DEVICE INDEX.
000624: 13,2701           47657                           CS       ZERO                                  #  FOR FAILURE.
000625: 13,2702           12705                           TCF      GOODEND    +2
000626:
000627: 13,2703           54075        GOODEND            TS       RUPTREG2
000628: 13,2704           47652                           CS       ONE                                   #  FOR SUCCESS.
000629:
000630: 13,2705           54076                           TS       RUPTREG3
000631: 13,2706           50075                           INDEX    RUPTREG2                              #  SEE IF USING PROGRAM ASLEEP.
000632: 13,2707           10363                           CCS      MODECADR
000633: 13,2710           12712                           TCF      +2                                    #  YES - WAKE IT UP.
000634: 13,2711           12722                           TCF      ENDMODE                               #  IF 0, PROGRAM NOT IN YET.
000635:
000636: 13,2712           37657                           CAF      ZERO                                  #  WAKE SLEEPING PROGRAM.
000637: 13,2713           50075                           INDEX    RUPTREG2
000638: 13,2714           56363                           XCH      MODECADR
000639: 13,2715           04335                           TC       JOBWAKE
000640:
000641: 13,2716           40076                           CS       RUPTREG3                              #  ADVANCE LOC IF SUCCESSFUL.
000642: 13,2717           50071                           INDEX    LOCCTR
000643: 13,2720           26150                           ADS      LOC
000644:
000645: 13,2721           14505                           TCF      TASKOVER
000646:
000647: 13,2722           30076        ENDMODE            CA       RUPTREG3                              #  -0 INDICATES OPERATION COMPLETE BUT
000648: 13,2723           50075                           INDEX    RUPTREG2                              #  UNSUCCESSFUL - -1 INDICATES COMPLETE AND
000649: 13,2724           54363                           TS       MODECADR                              #  SUCCESSFUL.
000650: 13,2725           14505                           TCF      TASKOVER
000651:
000652:                                                                                                  #  GENERAL STALLING ROUTINE. USING PROGRAMS COME HERE TO WAIT FOR I/O COMPLETION.
000653:
000654: 13,2726           37652        AOTSTALL           CAF      ONE                                   #  AOT.
000655: 13,2727           02731                           TC       STALL
000656:
000657: 13,2730  13,2726               OPTSTALL           EQUALS   AOTSTALL
000658:
000659: 13,2730           37657        IMUSTALL           CAF      ZERO                                  #  IMU.
000660:
000661: 13,2731           00004        STALL              INHINT
000662: 13,2732           54075                           TS       RUPTREG2                              #  SAVE DEVICE INDEX.
000663: 13,2733           50000                           INDEX    A                                     #  SEE IF OPERATION COMPLETE.
000664: 13,2734           10363                           CCS      MODECADR
000665: 13,2735           12753                           TCF      MODABORT                              #  ALLOWABLE STATES ARE +0, -1, AND -0.
000666: 13,2736           12747                           TCF      MODESLP                               #  OPERATION INCOMPLETE.
000667: 13,2737           12743                           TCF      MODEGOOD                              #  COMPLETE AND GOOD IF = -1.
000668:
000669: 13,2740           50075        MG2                INDEX    RUPTREG2                              #  COMPLETE AND FAILED IF -0. RESET TO +0.
000670: 13,2741           54363                           TS       MODECADR                              #  RETURN TO CALLER.
000671: 13,2742           12033                           TCF      MODEEXIT
000672:
000673: 13,2743           10000        MODEGOOD           CCS      A                                     #  MAKE SURE INITIAL STATE -1.
000674: 13,2744           12753                           TCF      MODABORT
000675:
000676: 13,2745           24117                           INCR     BUF2                                  #  IF SO, INCREMENT RETURN ADDRESS AND
000677: 13,2746           12740                           TCF      MG2                                   #  RETURN IMMEDIATELY, SETTING CADR = +0.
000678:
000679: 13,2747           04113        MODESLP            TC       MAKECADR                              #  CALL FROM SWITCHABLE FIXED ONLY.
000680: 13,2750           50075                           INDEX    RUPTREG2
000681: 13,2751           54363                           TS       MODECADR
000682: 13,2752           14331                           TCF      JOBSLEEP
000683:
000684: 13,2753           05677        MODABORT           TC       ABORT                                 #  TWO PROGRAMS USING SAME DEVICE.
000685: 13,2754           01210                           OCT      1210
000686:
000687:                                                                                                  #  CONSTANTS FOR MODE SWITCHING ROUTINES
000688:
000689: 13,2755           00014        BITS3&4            OCT      14
000690: 13,2756           00050        BITS4&6            OCT      00050
000691: 13,2757           00070        BITS4-6            OCT      00070
000692: 13,2760     7643               IMUSEFLG           EQUALS   BIT8                                  #  INTERPRETER SWITCH 7.
000693: 13,2760           70000        13,14,15           OCT      70000
000694:
000695: 13,2761           77500        -COMMAX            DEC      -191       B-14
000696: 13,2762           77477        -COMMAX-           DEC      -192       B-14
000697: 13,2763           00074        600MS              DEC      60         B-14
000698: 13,2764     4662               3SECSM             EQUALS   3SECS
000699: 13,2764           21450        90SEC              DEC      9000       B-14
000700:
000701: 13,2765                        ENDIMODS           EQUALS
000702:
000703:


000707: 13,3365                                           SETLOC   ENDAMODS
000708:
000709: 13,3365           37647        IMUZERO1           CAF      BIT4                                  #  DONT ZERO CDUS IF IMU IN GIMBAL LOCK AND
000710: 13,3366           00006                           EXTEND                                         #  COARSE ALIGN.
000711: 13,3367           02012                           RAND     12
000712: 13,3370           60000                           DOUBLE
000713: 13,3371           60000                           DOUBLE
000714: 13,3372           70322                           MASK     DSPTAB     +11D
000715: 13,3373           10000                           CCS      A
000716: 13,3374           13377                           TCF      +3
000717:
000718: 13,3375           47643                           CS       IMUSEFLG
000719: 13,3376           12002                           TCF      IMUZERO    +2
000720:
000721: 13,3377           05644                           TC       ALARM                                 #  IF SO.
000722: 13,3400           00206                           OCT      206
000723:
000724: 13,3401           12675                           TCF      CAGETSTJ   +4
000725:
000726: 13,3402                        ENDIMPS            EQUALS

End of include-file IMU_MODE_SWITCHING_ROUTINES.agc.  Parent file is MAIN.agc


