
Source Code


000002:                                                                                                  ## Copyright:   Public domain.
000003:                                                                                                  ## Filename:    IMU_PERFORMANCE_TESTS_3.agc
000004:                                                                                                  ## Purpose:     A section of Sundial E.
000005:                                                                                                  ##              It is part of the reconstructed source code for the final
000006:                                                                                                  ##              release of the Block II Command Module system test software. No
000007:                                                                                                  ##              original listings of this program are available; instead, this
000008:                                                                                                  ##              file was created via disassembly of dumps of Sundial core rope
000009:                                                                                                  ##              modules and comparison with other AGC programs.
000010:                                                                                                  ## Assembler:   yaYUL
000011:                                                                                                  ## Contact:     Ron Burkey <info@sandroid.org>.
000012:                                                                                                  ## Website:     www.ibiblio.org/apollo/index.html
000013:                                                                                                  ## Mod history: 2023-06-22 MAS  Created from Aurora 12.
000014:                                                                                                  ##              2023-06-30 MAS  Updated for Sundial E.
000015:
000016:
000017: 14,2000                                           BANK     14
000018: 14,2000  E5,1400                                  EBANK=   XSM
000019:
000020: 14,2000           37657        SAMODCHK           CAF      ZERO
000021: 14,2001           55550                           TS       RUN
000022:
000023: 14,2002           02314                           TC       ZEROMODE
000024: 14,2003           02172                           TC       OPRTRDLY
000025:
000026: 14,2004           37657                           CAF      ZERO
000027: 14,2005           02152                           TC       THETADLD
000028:
000029: 14,2006           32441                           CAF      45ANG
000030: 14,2007           02152                           TC       THETADLD
000031:
000032: 14,2010           02401                           TC       FNZEROFN
000033:
000034: 14,2011           32442                           CAF      71ANG
000035: 14,2012           02152                           TC       THETADLD
000036:
000037: 14,2013           32443                           CAF      90ANG
000038: 14,2014           02152                           TC       THETADLD
000039:
000040: 14,2015           32444                           CAF      135ANG
000041: 14,2016           02152                           TC       THETADLD
000042:
000043: 14,2017           32441                           CAF      45ANG
000044: 14,2020           02154                           TC       THETADLD   +2
000045:
000046: 14,2021           02401                           TC       FNZEROFN
000047:
000048: 14,2022           42444                           CS       135ANG
000049: 14,2023           02152                           TC       THETADLD
000050:
000051: 14,2024           42441                           CS       45ANG
000052: 14,2025           02154                           TC       THETADLD   +2
000053:
000054: 14,2026           02401                           TC       FNZEROFN
000055:
000056: 14,2027           42441                           CS       45ANG
000057: 14,2030           02152                           TC       THETADLD
000058:
000059: 14,2031           02401                           TC       FNZEROFN
000060:
000061: 14,2032           42442                           CS       71ANG
000062: 14,2033           02152                           TC       THETADLD
000063:
000064: 14,2034           37657                           CAF      ZERO
000065: 14,2035           02152                           TC       THETADLD
000066:
000067: 14,2036           32465                           CAF      IMUADRS
000068: 14,2037           55573                           TS       IMU/OPT
000069:
000070: 14,2040           37651                           CAF      TWO
000071: 14,2041           55671        CHK2               TS       CDUNDX
000072:
000073: 14,2042           32447                           CAF      170ANG
000074: 14,2043           51671                           INDEX    CDUNDX
000075: 14,2044           54400                           TS       THETAD
000076:
000077: 14,2045           04064                           TC       BANKCALL
000078: 14,2046           26055                           CADR     IMUCOARS
000079:
000080: 14,2047           32445                           CAF      10ANG
000081: 14,2050           02236                           TC       CDURATE
000082:
000083: 14,2051           32446                           CAF      160ANG
000084: 14,2052           02236                           TC       CDURATE
000085:
000086: 14,2053           02261                           TC       CALCRATE
000087:
000088: 14,2054           04064                           TC       BANKCALL
000089: 14,2055           26730                           CADR     IMUSTALL
000090: 14,2056           12142                           TCF      ENDTST03
000091:
000092: 14,2057           37657                           CAF      ZERO
000093: 14,2060           51671                           INDEX    CDUNDX
000094: 14,2061           54400                           TS       THETAD
000095:
000096: 14,2062           04064                           TC       BANKCALL
000097: 14,2063           26055                           CADR     IMUCOARS
000098:
000099: 14,2064           04064                           TC       BANKCALL
000100: 14,2065           26730                           CADR     IMUSTALL
000101: 14,2066           12142                           TCF      ENDTST03
000102:
000103: 14,2067           00006                           EXTEND
000104: 14,2070           27573                           DIM      IMU/OPT
000105:
000106: 14,2071           11671                           CCS      CDUNDX
000107: 14,2072           12041                           TCF      CHK2
000108:
000109: 14,2073           02343                           TC       FINEZERO
000110: 14,2074           02343                           TC       FINEZERO
000111:
000112: 14,2075           37657                           CAF      ZERO
000113: 14,2076           02152                           TC       THETADLD
000114:
000115: 14,2077           32466                           CAF      OPTADRS
000116: 14,2100           55573                           TS       IMU/OPT
000117:
000118: 14,2101           37652                           CAF      ONE
000119: 14,2102           55671        CHK3               TS       CDUNDX
000120:
000121: 14,2103           42440                           CS       TRUNZERO
000122: 14,2104           54403                           TS       DESOPTT
000123:
000124: 14,2105           51671                           INDEX    CDUNDX
000125: 14,2106           32144                           CAF      RATECMD
000126: 14,2107           51671                           INDEX    CDUNDX
000127: 14,2110           54403                           TS       DESOPTT
000128:
000129: 14,2111           37657                           CAF      ZERO
000130: 14,2112           54350                           TS       OPTIND
000131:
000132: 14,2113           51671                           INDEX    CDUNDX
000133: 14,2114           32146                           CAF      RATEPT1
000134: 14,2115           02236                           TC       CDURATE
000135:
000136: 14,2116           11671                           CCS      CDUNDX
000137: 14,2117           12124                           TCF      CHK4
000138:
000139: 14,2120           31574                           CA       CDUREADF
000140: 14,2121           00006                           EXTEND
000141: 14,2122           77636                           MP       BIT13
000142: 14,2123           55574                           TS       CDUREADF
000143:
000144: 14,2124           51671        CHK4               INDEX    CDUNDX
000145: 14,2125           32150                           CAF      RATEPT2
000146: 14,2126           02236                           TC       CDURATE
000147:
000148: 14,2127           11671                           CCS      CDUNDX
000149: 14,2130           12135                           TCF      CHK5
000150:
000151: 14,2131           31574                           CA       CDUREADF
000152: 14,2132           00006                           EXTEND
000153: 14,2133           77636                           MP       BIT13
000154: 14,2134           55574                           TS       CDUREADF
000155:
000156: 14,2135           02261        CHK5               TC       CALCRATE
000157: 14,2136           00006                           EXTEND
000158: 14,2137           27573                           DIM      IMU/OPT
000159: 14,2140           11671                           CCS      CDUNDX
000160: 14,2141           12102                           TCF      CHK3
000161:
000162: 14,2142           04064        ENDTST03           TC       BANKCALL
000163: 14,2143           14756                           CADR     ENDTEST
000164:
000165:
000166: 14,2144           11031        RATECMD            OCT      11031
000167: 14,2145           37777                           OCT      37777
000168:
000169: 14,2146           62514        RATEPT1            OCT      62514
000170: 14,2147           01615                           OCT      01615
000171:
000172: 14,2150           07213        RATEPT2            OCT      07213
000173: 14,2151           34344                           OCT      34344
000174:
000175:
000176: 14,2152           54400        THETADLD           TS       THETAD
000177: 14,2153           54401                           TS       THETAD     +1
000178: 14,2154           54402                           TS       THETAD     +2
000179:
000180: 14,2155           00006                           EXTEND
000181: 14,2156           23546                           QXCH     QPLACE
000182:
000183: 14,2157           37656                           CAF      SEVEN
000184: 14,2160           55551        THLD1              TS       STOREPL
000185:
000186: 14,2161           04064                           TC       BANKCALL
000187: 14,2162           26055                           CADR     IMUCOARS
000188: 14,2163           04064                           TC       BANKCALL
000189: 14,2164           26730                           CADR     IMUSTALL
000190: 14,2165           12142                           TCF      ENDTST03
000191:
000192: 14,2166           11551                           CCS      STOREPL
000193: 14,2167           02160                           TC       THLD1
000194:
000195: 14,2170           02172                           TC       OPRTRDLY
000196:
000197: 14,2171           01546                           TC       QPLACE
000198:
000199:
000200: 14,2172           00006        OPRTRDLY           EXTEND
000201: 14,2173           23545                           QXCH     QPLAC
000202:
000203: 14,2174           25550                           INCR     RUN
000204: 14,2175           32462                           CAF      V06N20X
000205: 14,2176           05563                           TC       NVSBWAIT
000206: 14,2177           30000                           CA       A
000207: 14,2200           30000                           CA       A
000208: 14,2201           47646                           CS       BIT5
000209: 14,2202           61550                           AD       RUN
000210: 14,2203           00006                           EXTEND
000211: 14,2204           62207                           BZMF     +3
000212: 14,2205           32455                           CAF      OPTRUN
000213: 14,2206           12210                           TCF      +2
000214: 14,2207           31550                           CA       RUN
000215: 14,2210           72450                           MASK     6LOW
000216: 14,2211           05563                           TC       NVSBWAIT
000217: 14,2212           05525                           TC       FLASHON
000218: 14,2213           04724                           TC       ENDIDLE
000219: 14,2214           12142                           TCF      ENDTST03
000220: 14,2215           12217                           TCF      +2
000221: 14,2216           12175                           TCF      OPRTRDLY   +3
000222:
000223: 14,2217           05531                           TC       FLASHOFF
000224: 14,2220           01545                           TC       QPLAC
000225:
000226:
000227:
000228: 14,2221           00006        CH30DSPY           EXTEND
000229: 14,2222           23546                           QXCH     QPLACE
000230:
000231: 14,2223           32454                           CAF      OCT30
000232: 14,2224           54142                           TS       MPAC       +2
000233: 14,2225           32457                           CAF      V01N10X
000234: 14,2226           05563                           TC       NVSBWAIT
000235: 14,2227           05525                           TC       FLASHON
000236: 14,2230           04724                           TC       ENDIDLE
000237: 14,2231           12142                           TCF      ENDTST03
000238: 14,2232           12234                           TCF      +2
000239: 14,2233           12223                           TCF      CH30DSPY   +2
000240:
000241: 14,2234           05531                           TC       FLASHOFF
000242: 14,2235           01546                           TC       QPLACE
000243:
000244:
000245:
000246: 14,2236           00006        CDURATE            EXTEND
000247: 14,2237           23546                           QXCH     QPLACE
000248:
000249: 14,2240           55576                           TS       CDULIMIT
000250:
000251: 14,2241           10067                           CCS      NEWJOB
000252: 14,2242           04317                           TC       CHANG1
000253:
000254: 14,2243           41576                           CS       CDULIMIT
000255: 14,2244           51573                           INDEX    IMU/OPT
000256: 14,2245           60000                           AD       0                                     #  CATCH FIRST PULSE
000257: 14,2246           00006                           EXTEND
000258: 14,2247           62241                           BZMF     CDURATE    +3                         #  LOOK AGAIN
000259:
000260: 14,2250           51573                           INDEX    IMU/OPT
000261: 14,2251           30000                           CAE      0
000262: 14,2252           57574                           XCH      CDUREADF                              #  CDU FINAL READING
000263: 14,2253           57575                           XCH      CDUREADI                              #  CDU INITIAL READING
000264:
000265: 14,2254           05721                           TC       FINETIME
000266: 14,2255           53572                           DXCH     CDUTIMEF                              #  DP FINAL TIME
000267: 14,2256           53570                           DXCH     CDUTIMEI                              #  DP INITIAL READING
000268:
000269: 14,2257           00003                           RELINT
000270: 14,2260           01546                           TC       QPLACE
000271:
000272:
000273:
000274:
000275: 14,2261           00006        CALCRATE           EXTEND
000276: 14,2262           23546                           QXCH     QPLACE
000277:
000278: 14,2263           53575                           DXCH     CDUREADF
000279: 14,2264           00006                           EXTEND
000280: 14,2265           20001                           MSU      L
000281: 14,2266           55676                           TS       CDUANG
000282:
000283: 14,2267           06000                           TC       INTPRET
000284: 14,2270           45345                           DLOAD    DSU
000285: 14,2271           01572                                    CDUTIMEF
000286: 14,2272           01570                                    CDUTIMEI
000287: 14,2273           67206                           PUSH     SLOAD
000288: 14,2274           01677                                    CDUANG
000289: 14,2275           56261                           SR       DDV
000290: 14,2276           00617                                    14D
000291: 14,2277           45005                           DMP      RTB
000292: 14,2300           30477                                    DEG/SEC
000293: 14,2301           11600                                    SGNAGREE
000294: 14,2302           00337                           STORE    DSPTEM2
000295:
000296: 14,2303           77776                           EXIT
000297:
000298: 14,2304           32463        RATEDSP            CAF      V06N66X
000299: 14,2305           05563                           TC       NVSBWAIT
000300: 14,2306           05525                           TC       FLASHON
000301: 14,2307           04724                           TC       ENDIDLE
000302: 14,2310           12142                           TCF      ENDTST03
000303: 14,2311           12313                           TCF      +2
000304: 14,2312           12304                           TCF      RATEDSP
000305:
000306: 14,2313           01546                           TC       QPLACE
000307:
000308:
000309: 14,2314           00006        ZEROMODE           EXTEND
000310: 14,2315           23546                           QXCH     QPLACE
000311:
000312: 14,2316           04064                           TC       BANKCALL
000313: 14,2317           26000                           CADR     IMUZERO
000314: 14,2320           04064                           TC       BANKCALL
000315: 14,2321           26730                           CADR     IMUSTALL
000316: 14,2322           12142                           TCF      ENDTST03
000317:
000318: 14,2323           01546                           TC       QPLACE
000319:
000320:
000321:
000322:
000323: 14,2324           42456        ZEROMAIN           CS       4+6BITS
000324: 14,2325           00006                           EXTEND
000325: 14,2326           03012                           WAND     12
000326:
000327: 14,2327           37646                           CAF      BIT5
000328: 14,2330           00006                           EXTEND
000329: 14,2331           05012                           WOR      12
000330:
000331: 14,2332           00002                           TC       Q
000332:
000333:
000334:
000335: 14,2333           00006        FINEALGN           EXTEND
000336: 14,2334           23546                           QXCH     QPLACE
000337:
000338: 14,2335           04064                           TC       BANKCALL
000339: 14,2336           26227                           CADR     IMUFINE
000340: 14,2337           04064                           TC       BANKCALL
000341: 14,2340           26730                           CADR     IMUSTALL
000342: 14,2341           12142                           TCF      ENDTST03
000343:
000344: 14,2342           01546                           TC       QPLACE
000345:
000346:
000347:
000348: 14,2343           00006        FINEZERO           EXTEND
000349: 14,2344           23545                           QXCH     QPLAC
000350:
000351: 14,2345           04064                           TC       BANKCALL
000352: 14,2346           26000                           CADR     IMUZERO
000353:
000354: 14,2347           37651                           CAF      TWO
000355: 14,2350           55512                           TS       EROPTN
000356: 14,2351           37650                           CAF      FOUR
000357: 14,2352           55544                           TS       POSITON
000358:
000359: 14,2353           00004                           INHINT
000360: 14,2354           47641                           CS       BIT10
000361: 14,2355           70061                           MASK     STATE
000362: 14,2356           67641                           AD       BIT10
000363: 14,2357           54061                           TS       STATE
000364: 14,2360           00003                           RELINT
000365:
000366:
000367: 14,2361           04064                           TC       BANKCALL
000368: 14,2362           14767                           CADR     CSMLAB
000369:
000370: 14,2363           05550        SAMODRTN           TC       GRABWAIT
000371:
000372: 14,2364           02324                           TC       ZEROMAIN
000373:
000374: 14,2365           37640                           CAF      BIT11
000375: 14,2366           04451                           TC       WAITLIST
000376: 14,2367  E5,1400                                  EBANK=   XSM
000377: 14,2367           02373 30005                     2CADR    DSPY30
000378:
000379: 14,2371           32475                           CAF      CH30WAKE
000380: 14,2372           04331                           TC       JOBSLEEP
000381:
000382: 14,2373           32475        DSPY30             CAF      CH30WAKE
000383: 14,2374           04335                           TC       JOBWAKE
000384: 14,2375           04505                           TC       TASKOVER
000385:
000386: 14,2376           02221        DSPYCH30           TC       CH30DSPY
000387: 14,2377           02314                           TC       ZEROMODE
000388:
000389: 14,2400           01545                           TC       QPLAC
000390:
000391:
000392: 14,2401           00006        FNZEROFN           EXTEND
000393: 14,2402           23545                           QXCH     QPLAC
000394:
000395: 14,2403           02333                           TC       FINEALGN
000396:
000397: 14,2404           30032                           CAE      CDUX
000398: 14,2405           55574                           TS       CDUREADF
000399: 14,2406           30033                           CAE      CDUY
000400: 14,2407           55575                           TS       CDUREADI
000401: 14,2410           30034                           CAE      CDUZ
000402: 14,2411           55576                           TS       CDULIMIT
000403:
000404: 14,2412           02314                           TC       ZEROMODE
000405:
000406: 14,2413           31574        FZF2               CAE      CDUREADF
000407: 14,2414           00006                           EXTEND
000408: 14,2415           20032                           MSU      CDUX
000409: 14,2416           54333                           TS       DSPTEM1
000410:
000411: 14,2417           31575                           CAE      CDUREADI
000412: 14,2420           00006                           EXTEND
000413: 14,2421           20033                           MSU      CDUY
000414: 14,2422           54334                           TS       DSPTEM1    +1
000415:
000416: 14,2423           31576                           CAE      CDULIMIT
000417: 14,2424           00006                           EXTEND
000418: 14,2425           20034                           MSU      CDUZ
000419: 14,2426           54335                           TS       DSPTEM1    +2
000420:
000421: 14,2427           32460        FZFDSP             CAF      V05N30X
000422: 14,2430           05563                           TC       NVSBWAIT
000423: 14,2431           05525                           TC       FLASHON
000424: 14,2432           04724                           TC       ENDIDLE
000425: 14,2433           12142                           TCF      ENDTST03
000426: 14,2434           12436                           TCF      +2
000427: 14,2435           12427                           TCF      FZFDSP
000428:
000429: 14,2436           25550                           INCR     RUN
000430: 14,2437           01545                           TC       QPLAC
000431:
000432: 14,2440           16037        TRUNZERO           OCT      16037
000433: 14,2441           10000        45ANG              OCT      10000
000434: 14,2442           14477        71ANG              OCT      14477
000435: 14,2443           20000        90ANG              OCT      20000
000436: 14,2444           30000        135ANG             OCT      30000
000437: 14,2445           01616        10ANG              OCT      01616
000438: 14,2446           34344        160ANG             OCT      34344
000439: 14,2447           36162        170ANG             OCT      36162
000440:
000441: 14,2450           00077        6LOW               OCT      77
000442: 14,2451           00052        2,4,6              OCT      00052
000443: 14,2452           00450        4,6,9              OCT      00450
000444: 14,2453           70000        BIT13-15           OCT      70000
000445: 14,2454           00030        OCT30              OCT      30
000446: 14,2455           00055        OPTRUN             OCT      55
000447: 14,2456           00050        4+6BITS            OCT      00050
000448:
000449: 14,2457           00110        V01N10X            OCT      00110
000450: 14,2460           00530        V05N30X            OCT      00530
000451: 14,2461           00630        V06N30X            OCT      00630
000452: 14,2462           00620        V06N20X            OCT      00620
000453: 14,2463           00666        V06N66X            OCT      00666
000454: 14,2464           03300        V33N00X            OCT      03300
000455:
000456: 14,2465           00034        IMUADRS            ADRES    CDUZ
000457: 14,2466           00036        OPTADRS            ADRES    OPTX
000458:
000459: 14,2467           30523        ATERWAKE           CADR     ATTERCMD
000460: 14,2470           01545        QPLACADR           GENADR   QPLAC
000461: 14,2471           30571        TAKEWAKE           CADR     TAKEOUT
000462: 14,2472           30633        NXTTWAKE           CADR     NEXTTAKE
000463: 14,2473           30677        TVCSWAKE           CADR     TVCSETUP
000464: 14,2474           30727        TVCOWAKE           CADR     TVCOUT
000465: 14,2475           30376        CH30WAKE           CADR     DSPYCH30
000466:
000467: 14,2476           00043 05000  DEG/SEC            2DEC     576000     B-28
000468:
000469:
000470:
000471: 14,2500           37657        CTRLDISP           CAF      ZERO
000472: 14,2501           55550                           TS       RUN
000473:
000474: 14,2502           02314                           TC       ZEROMODE
000475:
000476: 14,2503           37657                           CAF      ZERO
000477: 14,2504           02152                           TC       THETADLD
000478:
000479: 14,2505           37657                           CAF      ZERO
000480: 14,2506           55563                           TS       TESTNO
000481:
000482: 14,2507           42456        ATTERROR           CS       4+6BITS
000483: 14,2510           00006                           EXTEND
000484: 14,2511           03012                           WAND     12
000485:
000486: 14,2512           37650                           CAF      FOUR
000487: 14,2513           04451                           TC       WAITLIST
000488: 14,2514           02520 30005                     2CADR    ATTERR
000489:
000490: 14,2516           32467                           CAF      ATERWAKE
000491: 14,2517           04331                           TC       JOBSLEEP
000492:
000493: 14,2520           32467        ATTERR             CAF      ATERWAKE
000494: 14,2521           04335                           TC       JOBWAKE
000495: 14,2522           04505                           TC       TASKOVER
000496:
000497: 14,2523           47645        ATTERCMD           CS       BIT6
000498: 14,2524           67651                           AD       BIT2
000499: 14,2525           61563                           AD       TESTNO
000500: 14,2526           00006                           EXTEND
000501: 14,2527           62531                           BZMF     +2
000502: 14,2530           12547                           TCF      TAKEOVER
000503:
000504: 14,2531           03030                           TC       THETADER
000505: 14,2532           37645                           CAF      BIT6
000506: 14,2533           00006                           EXTEND
000507: 14,2534           05012                           WOR      12
000508:
000509: 14,2535           00004                           INHINT
000510: 14,2536           37651                           CAF      TWO
000511: 14,2537           04451                           TC       WAITLIST
000512: 14,2540           03040 30005                     2CADR    FDAIOUT
000513: 14,2542           00003                           RELINT
000514:
000515: 14,2543           03016                           TC       THETADSP
000516:
000517: 14,2544           36165                           CAF      THREE
000518: 14,2545           27563                           ADS      TESTNO
000519: 14,2546           12507                           TCF      ATTERROR
000520:
000521: 14,2547           37657        TAKEOVER           CAF      ZERO
000522: 14,2550           02152                           TC       THETADLD
000523:
000524: 14,2551           37657                           CAF      ZERO
000525: 14,2552           55563                           TS       TESTNO
000526: 14,2553           02221                           TC       CH30DSPY
000527:
000528: 14,2554           42452        TAKEOVR1           CS       4,6,9
000529: 14,2555           00006                           EXTEND
000530: 14,2556           03012                           WAND     12
000531:
000532: 14,2557           00004                           INHINT
000533: 14,2560           37644                           CAF      BIT7
000534: 14,2561           04451                           TC       WAITLIST
000535: 14,2562           02566 30005                     2CADR    TAKE
000536:
000537: 14,2564           32471                           CAF      TAKEWAKE
000538: 14,2565           04331                           TC       JOBSLEEP
000539:
000540: 14,2566           32471        TAKE               CAF      TAKEWAKE
000541: 14,2567           04335                           TC       JOBWAKE
000542: 14,2570           04505                           TC       TASKOVER
000543:
000544: 14,2571           47645        TAKEOUT            CS       BIT6
000545: 14,2572           67651                           AD       BIT2
000546: 14,2573           61563                           AD       TESTNO
000547: 14,2574           00006                           EXTEND
000548: 14,2575           62577                           BZMF     +2
000549: 14,2576           12637                           TCF      TVCTEST
000550:
000551: 14,2577           37642                           CAF      BIT9
000552: 14,2600           00006                           EXTEND
000553: 14,2601           05012                           WOR      12
000554:
000555: 14,2602           37646                           CAF      BIT5
000556: 14,2603           04451                           TC       WAITLIST
000557: 14,2604           02610 30005                     2CADR    ICDUEN
000558:
000559: 14,2606           32472                           CAF      NXTTWAKE
000560: 14,2607           04331                           TC       JOBSLEEP
000561:
000562: 14,2610           37645        ICDUEN             CAF      BIT6
000563: 14,2611           00006                           EXTEND
000564: 14,2612           05012                           WOR      12
000565:
000566: 14,2613           03030                           TC       THETADER
000567:
000568: 14,2614           00006                           EXTEND
000569: 14,2615           51563                           INDEX    TESTNO
000570: 14,2616           32743                           DCA      IMUANGLE
000571: 14,2617           52051                           DXCH     CDUXCMD
000572: 14,2620           51563                           INDEX    TESTNO
000573: 14,2621           32744                           CAF      IMUANGLE   +2
000574: 14,2622           54052                           TS       CDUZCMD
000575:
000576: 14,2623           37651                           CAF      TWO
000577: 14,2624           04472                           TC       VARDELAY
000578:
000579: 14,2625           32453                           CAF      BIT13-15
000580: 14,2626           00006                           EXTEND
000581: 14,2627           05014                           WOR      14
000582:
000583: 14,2630           32472                           CAF      NXTTWAKE
000584: 14,2631           04335                           TC       JOBWAKE
000585: 14,2632           04505                           TC       TASKOVER
000586:
000587: 14,2633           03016        NEXTTAKE           TC       THETADSP
000588: 14,2634           36165                           CAF      THREE
000589: 14,2635           27563                           ADS      TESTNO
000590: 14,2636           12554                           TCF      TAKEOVR1
000591:
000592: 14,2637           37657        TVCTEST            CAF      ZERO
000593: 14,2640           02152                           TC       THETADLD
000594:
000595: 14,2641           37657                           CAF      ZERO
000596: 14,2642           55563                           TS       TESTNO
000597:
000598: 14,2643           36165                           CAF      THREE
000599: 14,2644           54402                           TS       THETAD     +2
000600:
000601: 14,2645           37646                           CAF      BIT5
000602: 14,2646           00006                           EXTEND
000603: 14,2647           02033                           RAND     33
000604: 14,2650           10000                           CCS      A
000605: 14,2651           12653                           TCF      +2
000606: 14,2652           05474                           TC       FALTON
000607: 14,2653           02221                           TC       CH30DSPY
000608:
000609: 14,2654           37650                           CAF      FOUR
000610: 14,2655           27546                           ADS      QPLACE
000611: 14,2656           24142                           INCR     MPAC       +2
000612: 14,2657           02225                           TC       CH30DSPY   +4
000613:
000614: 14,2660           42451        TVCENABL           CS       2,4,6
000615: 14,2661           00006                           EXTEND
000616: 14,2662           03012                           WAND     12
000617:
000618: 14,2663           37643                           CAF      BIT8
000619: 14,2664           00006                           EXTEND
000620: 14,2665           05012                           WOR      12
000621:
000622: 14,2666           37646                           CAF      BIT5
000623: 14,2667           04451                           TC       WAITLIST
000624: 14,2670           02674 30005                     2CADR    TVCS
000625:
000626: 14,2672           32473                           CAF      TVCSWAKE
000627: 14,2673           04331                           TC       JOBSLEEP
000628:
000629: 14,2674           32473        TVCS               CAF      TVCSWAKE
000630: 14,2675           04335                           TC       JOBWAKE
000631: 14,2676           04505                           TC       TASKOVER
000632:
000633: 14,2677           47654        TVCSETUP           CS       TEN
000634: 14,2700           61563                           AD       TESTNO
000635: 14,2701           00006                           EXTEND
000636: 14,2702           62704                           BZMF     +2
000637: 14,2703           12735                           TCF      TVCOVER
000638:
000639: 14,2704           37651                           CAF      BIT2
000640: 14,2705           00006                           EXTEND
000641: 14,2706           05012                           WOR      12
000642: 14,2707           51563                           INDEX    TESTNO
000643: 14,2710           33003                           CAF      TVCANGLE
000644: 14,2711           54400                           TS       THETAD
000645: 14,2712           54053                           TS       OPTYCMD
000646: 14,2713           40000                           COM
000647: 14,2714           54401                           TS       THETAD     +1
000648: 14,2715           54054                           TS       OPTXCMD
000649:
000650: 14,2716           37651                           CAF      TWO
000651: 14,2717           04451                           TC       WAITLIST
000652: 14,2720           02724 30005                     2CADR    TVCWAIT
000653:
000654: 14,2722           32474                           CAF      TVCOWAKE
000655: 14,2723           04331                           TC       JOBSLEEP
000656:
000657: 14,2724           32474        TVCWAIT            CAF      TVCOWAKE
000658: 14,2725           04335                           TC       JOBWAKE
000659: 14,2726           04505                           TC       TASKOVER
000660:
000661: 14,2727           34421        TVCOUT             CAF      11,12
000662: 14,2730           00006                           EXTEND
000663: 14,2731           05014                           WOR      14
000664: 14,2732           03016                           TC       THETADSP
000665: 14,2733           25563                           INCR     TESTNO
000666: 14,2734           12660                           TCF      TVCENABL
000667:
000668: 14,2735           47643        TVCOVER            CS       BIT8
000669: 14,2736           00006                           EXTEND
000670: 14,2737           03012                           WAND     12
000671: 14,2740           03016                           TC       THETADSP
000672: 14,2741           02142                           TC       ENDTST03
000673:
000674: 14,2742           00601        IMUANGLE           DEC      +385       B-14
000675: 14,2743           77176                           DEC      -385       B-14
000676: 14,2744           00601                           DEC      +385       B-14
000677:
000678: 14,2745           00600                           DEC      +384       B-14
000679: 14,2746           77177                           DEC      -384       B-14
000680: 14,2747           00600                           DEC      +384       B-14
000681:
000682: 14,2750           00240                           DEC      +160       B-14
000683: 14,2751           77537                           DEC      -160       B-14
000684: 14,2752           00240                           DEC      +160       B-14
000685:
000686: 14,2753           00207                           DEC      +135       B-14
000687: 14,2754           77570                           DEC      -135       B-14
000688: 14,2755           00207                           DEC      +135       B-14
000689:
000690: 14,2756           00132                           DEC      +90        B-14
000691: 14,2757           77645                           DEC      -90        B-14
000692: 14,2760           00132                           DEC      +90        B-14
000693:
000694: 14,2761           00000                           DEC      +0         B-14
000695: 14,2762           00000                           DEC      +0         B-14
000696: 14,2763           77645                           DEC      -90        B-14
000697:
000698: 14,2764           77645                           DEC      -90        B-14
000699: 14,2765           00132                           DEC      +90        B-14
000700: 14,2766           77570                           DEC      -135       B-14
000701:
000702: 14,2767           77570                           DEC      -135       B-14
000703: 14,2770           00207                           DEC      +135       B-14
000704: 14,2771           77537                           DEC      -160       B-14
000705:
000706: 14,2772           77537                           DEC      -160       B-14
000707: 14,2773           00240                           DEC      +160       B-14
000708: 14,2774           77177                           DEC      -384       B-14
000709:
000710: 14,2775           77177                           DEC      -384       B-14
000711: 14,2776           00600                           DEC      +384       B-14
000712: 14,2777           77176                           DEC      -385       B-14
000713:
000714: 14,3000           77176                           DEC      -385       B-14
000715: 14,3001           00601                           DEC      +385       B-14
000716: 14,3002           00000                           DEC      +0         B-14
000717:
000718: 14,3003           00601        TVCANGLE           DEC      +385       B-14
000719: 14,3004           00600                           DEC      +384       B-14
000720: 14,3005           00240                           DEC      +160       B-14
000721: 14,3006           00207                           DEC      +135       B-14
000722: 14,3007           00132                           DEC      +90        B-14
000723: 14,3010           00000                           DEC      +0         B-14
000724: 14,3011           77645                           DEC      -90        B-14
000725: 14,3012           77570                           DEC      -135       B-14
000726: 14,3013           77537                           DEC      -160       B-14
000727: 14,3014           77177                           DEC      -384       B-14
000728: 14,3015           77176                           DEC      -385       B-14
000729:
000730: 14,3016           00006        THETADSP           EXTEND
000731: 14,3017           23545                           QXCH     QPLAC
000732: 14,3020           30400                           CA       THETAD
000733: 14,3021           54333                           TS       DSPTEM1
000734: 14,3022           30401                           CA       THETAD     +1
000735: 14,3023           54334                           TS       DSPTEM1    +1
000736: 14,3024           30402                           CA       THETAD     +2
000737: 14,3025           54335                           TS       DSPTEM1    +2
000738: 14,3026           32461                           CAF      V06N30X
000739: 14,3027           12176                           TCF      OPRTRDLY   +4
000740:
000741: 14,3030           00006        THETADER           EXTEND
000742: 14,3031           51563                           INDEX    TESTNO
000743: 14,3032           32743                           DCA      IMUANGLE
000744: 14,3033           52401                           DXCH     THETAD
000745: 14,3034           51563                           INDEX    TESTNO
000746: 14,3035           32744                           CAF      IMUANGLE   +2
000747: 14,3036           54402                           TS       THETAD     +2
000748: 14,3037           00002                           TC       Q
000749:
000750: 14,3040           30400        FDAIOUT            CA       THETAD
000751: 14,3041           54050                           TS       CDUXCMD
000752: 14,3042           30401                           CA       THETAD     +1
000753: 14,3043           54051                           TS       CDUYCMD
000754: 14,3044           30402                           CA       THETAD     +2
000755: 14,3045           54052                           TS       CDUZCMD
000756: 14,3046           04132                           TC       IBNKCALL
000757: 14,3047           22452                           CADR     ATTCK3
000758:
000759:
000760: 14,3050           00006        SILVER             EXTEND
000761: 14,3051           23546                           QXCH     QPLACE                                #   SHOULD BE ADDRESS OF STRTWACH
000762:
000763: 14,3052           11613                           CCS      CALCDIR                               #  2F COMMAND IS POSITIVE THE MINUS TORQ
000764: 14,3053           37642                           CAF      BIT9                                  #   WINDING IS TO BE ENERGIZED
000765: 14,3054           03056                           TC       +2
000766: 14,3055           03060                           TC       TORK                                  #   COMMAND IS NEG SO USE PLUS WINDING
000767: 14,3056           00006                           EXTEND
000768: 14,3057           05014                           WOR      14C                                   #   SELECTS THE MINUS WINDING
000769:
000770: 14,3060           37632        TORK               CAF      POSMAX
000771: 14,3061           54047                           TS       GYROCTR                               #  16383 PULSES =2.8125 DEG LESS ONE PULSE
000772:
000773: 14,3062           11615                           CCS      GYTOBETQ                              #  C(K)= 1 FOR X, -0 FOR Y, -1FOR Z.
000774: 14,3063           03067                           TC       SELECTX
000775: 14,3064           05715                           TC       CCSHOLE
000776: 14,3065           03077                           TC       SELECTZ
000777: 14,3066           03073                           TC       SELECTY
000778: 14,3067           33103        SELECTX            CAF      TORKX                                 #  BBITS 7AND 10 IN CHANNEL 14 WILL
000779: 14,3070           00006                           EXTEND                                         #   SELECT X GYRO AND TURN ON BCSW 1/3200
000780: 14,3071           05014                           WOR      14C                                   #  SSEC LATER BY CHANNEL OUTPUT DESIGN.....
000781: 14,3072           01546                           TC       QPLACE
000782:
000783: 14,3073           33104        SELECTY            CAF      TORKY                                 #  BBITS 8 AND 10 TO TORQ Y GYRO
000784: 14,3074           00006                           EXTEND
000785: 14,3075           05014                           WOR      14C
000786: 14,3076           01546                           TC       QPLACE
000787:
000788: 14,3077           33105        SELECTZ            CAF      TORKZ                                 #  BBITS 7,8AND 10 TO TORQZ GYRO
000789: 14,3100           00006                           EXTEND
000790: 14,3101           05014                           WOR      14C
000791: 14,3102           01546                           TC       QPLACE
000792: 14,3103           01100        TORKX              OCT      01100
000793: 14,3104           01200        TORKY              OCT      01200
000794: 14,3105           01300        TORKZ              OCT      01300
000795:
000796: 14,3106           04064        REDYTORK           TC       BANKCALL
000797: 14,3107           26730                           CADR     IMUSTALL
000798: 14,3110           12142                           TCF      ENDTST03
000799:
000800: 14,3111           04064                           TC       BANKCALL
000801: 14,3112           14740                           CADR     OGCZERO
000802:
000803: 14,3113           06000                           TC       INTPRET
000804: 14,3114           77634                           CALL
000805: 14,3115           14416                                    ERTHRVSE                              #  SETS UP EARTHRATE ANGLES AND TIME
000806: 14,3116           77776                           EXIT
000807: 14,3117           31616                           CA       OPTNREG                               #  INITIALIZE CDUNDX FOR PULSE CATCHING
000808: 14,3120           67662                           AD       NEG2                                  #  C(K) WAS 4 2 1 NOW C(A) IS 2 0 -1
000809: 14,3121           55615                           TS       GYTOBETQ                              #  C(K) = 2,0,-1 FOR  X,Y,Z.
000810: 14,3122           00006                           EXTEND
000811: 14,3123           13126                           BZF      +3
000812: 14,3124           37651                           CAF      TWO
000813: 14,3125           03127                           TC       +2
000814: 14,3126           37652                           CAF      ONE
000815: 14,3127           55671                           TS       CDUNDX                                #  C(K) = 1 FOR Y, 2 FOR Z CDU SELECT
000816: 14,3130           04064                           TC       BANKCALL
000817: 14,3131           36473                           CADR     ENABLE
000818:
000819:
000820:                                                                                                  #  THIS REVISION REFLECTS CHANGES AS OF
000821:                                                                                                  #   1/31/66
000822:                                                                                                  #  ENGINE ON/OFF NOW IN CHANNEL ELEVEN.  THE BITS FOR EACH CHANNEL GET TURNED ON ALL AT ONCE.  THEY STAY ON UNTIL
000823:                                                                                                  #   :ENTER:IS PUSHED.  THEN THEY ALL GO OUT AND THE NEXT CHANNEL:S BITS ARE TURNED ON.
000824:                                                                                                  #  CHANNEL 5  BITS 1-8
000825:                                                                                                  #  CHANNEL 6  BITS 1-8
000826:                                                                                                  #  CHANNEL 11 BITS  13,14
000827:                                                                                                  #  CHANNEL 12 BITS 9-14
000828:                                                                                                  #  FOLLOWING THE CHANNEL 12 TESTS ENTER IS PRESSED.  CHANNEL 12 IS SET TO ZERO AND THE NEXT TEST BEGUN. LOW9
000829:                                                                                                  #  GOES IN LOCATION (COUNTER) 55.
000830:                                                                                                  #  INCREASE THROTTLE RATE DESCENT ENGINE
000831:                                                                                                  #  :ENTER: NOW CAUSES THE CONTENTS OF 55 TO BE MADE NEGATIVE
000832:                                                                                                  #  DECREASE THROTTLE RATE DESCENT ENGINE
000833:                                                                                                  #  THE NEXT :ENTER: ZEROS THE REGISTER AND SENDS A PULSE TRAIN (HERE ALTERN
000834:                                                                                                  #  ZEROS FOR CLARITY) TO THE ALTITUDE METER.
000835:                                                                                                  #  THE NEXT :ENTER: WILL ADVANCE THE TEST TO THE ALTITUDE RATE METER TEST.
000836:                                                                                                  #  THE NEXT :ENTER : WILL TERMINATE THE TEST.
000837:
000838: 14,3132           37657        SAUTOIFS           CA       ZERO
000839: 14,3133           55576                           TS       CHAN
000840: 14,3134           55574                           TS       TEMP
000841: 14,3135           03137                           TC       DINO
000842: 14,3136           25576        BACK1              INCR     CHAN
000843:
000844: 14,3137           51576        DINO               INDEX    CHAN
000845: 14,3140           33142                           CA       SAUTLOCS
000846: 14,3141           14070                           TCF      SWCALL
000847: 14,3142           31167        SAUTLOCS           CADR     CHAN5D
000848: 14,3143           31172                           CADR     CHAN6D
000849: 14,3144           31200                           CADR     CHAN11D
000850: 14,3145           31212                           CADR     CHAN12D
000851: 14,3146           31223                           CADR     PTITRDE
000852:
000853: 14,3147           35466        2ENTRY             CA       LOW8                                  #  CHANNEL 6 RETURNS HERE
000854: 14,3150           00006                           EXTEND
000855: 14,3151           51574                           INDEX    TEMP
000856: 14,3152           01005                           WRITE    5
000857: 14,3153           37227                           CA       FIVE
000858: 14,3154           61574                           AD       TEMP
000859: 14,3155           54142                           TS       MPAC       +2
000860: 14,3156           33232        3ENTRY             CA       V05N30D                               #  CH11,12 RETURN HERE TO USE THE DISPLAY
000861: 14,3157           05563                           TC       NVSBWAIT
000862: 14,3160           33231                           CAF      V01N10D
000863: 14,3161           05563                           TC       NVSBWAIT
000864: 14,3162           33233                           CAF      WAITER                                #  WAITER IS 03300
000865: 14,3163           05563                           TC       NVSBWAIT
000866: 14,3164           04724                           TC       ENDIDLE
000867: 14,3165           02142                           TC       ENDTST03
000868: 14,3166           03136                           TC       BACK1
000869: 14,3167           37227        CHAN5D             CA       FIVE
000870: 14,3170           54335                           TS       DSPTEM1    +2
000871: 14,3171           03147                           TC       2ENTRY
000872:
000873: 14,3172           24335        CHAN6D             INCR     DSPTEM1    +2
000874: 14,3173           25574                           INCR     TEMP
000875: 14,3174           37657                           CAF      ZERO
000876: 14,3175           00006                           EXTEND
000877: 14,3176           01005                           WRITE    5                                     #  GET RID OF CHANNEL 5 BITS
000878: 14,3177           03147                           TC       2ENTRY
000879: 14,3200           33227        CHAN11D            CA       OCT11
000880: 14,3201           54142                           TS       MPAC       +2
000881: 14,3202           37657                           CAF      ZERO
000882: 14,3203           00006                           EXTEND
000883: 14,3204           01006                           WRITE    6
000884: 14,3205           37636                           CA       BIT13
000885: 14,3206           54333                           TS       DSPTEM1
000886: 14,3207           00006                           EXTEND
000887: 14,3210           05011                           WOR      11                                    #  WOR IS NON EXCLUSIVE OR
000888: 14,3211           03156                           TC       3ENTRY
000889: 14,3212           24142        CHAN12D            INCR     MPAC       +2
000890: 14,3213           47636                           CS       BIT13
000891: 14,3214           00006                           EXTEND
000892: 14,3215           03011                           WAND     11
000893: 14,3216           33230                           CA       CH12BITS
000894: 14,3217           54333                           TS       DSPTEM1
000895: 14,3220           00006                           EXTEND
000896: 14,3221           05012                           WOR      12
000897: 14,3222           03156                           TC       3ENTRY
000898: 14,3223           43230        PTITRDE            CS       CH12BITS
000899: 14,3224           00006                           EXTEND
000900: 14,3225           03012                           WAND     12
000901: 14,3226           02142                           TC       ENDTST03
000902:
000903: 14,3227           00011        OCT11              OCT      11
000904: 14,3230           30000        CH12BITS           OCT      30000
000905: 14,3231           00110        V01N10D            OCT      00110
000906: 14,3232           00530        V05N30D            OCT      00530
000907: 14,3233           03300        WAITER             OCT      03300
000908:
000909:
000910: 14,3234           33272        SUMERASE           CAF      SUMEBADR
000911: 14,3235           54142                           TS       MPAC       +2
000912: 14,3236           33270                           CAF      V25N01E
000913: 14,3237           05563                           TC       NVSBWAIT
000914: 14,3240           04724                           TC       ENDIDLE
000915: 14,3241           02142                           TC       ENDTST03
000916: 14,3242           02142                           TC       ENDTST03
000917: 14,3243           37657                           CAF      ZERO
000918: 14,3244           54753                           TS       ERASUM
000919: 14,3245           30750                           CA       SUMEBANK
000920: 14,3246           54003                           TS       EBANK
000921:
000922: 14,3247           50751        SUMELOOP           INDEX    SUMADDR
000923: 14,3250           30000                           CA       0
000924: 14,3251           60753                           AD       ERASUM
000925: 14,3252           54753                           TS       ERASUM
000926: 14,3253           03255                           TC       +2
000927: 14,3254           26753                           ADS      ERASUM
000928:
000929: 14,3255           40751                           CS       SUMADDR
000930: 14,3256           60752                           AD       SUMEND
000931: 14,3257           00006                           EXTEND
000932: 14,3260           13263                           BZF      SUMEDONE
000933: 14,3261           24751                           INCR     SUMADDR
000934: 14,3262           03247                           TC       SUMELOOP
000935:
000936: 14,3263           33273        SUMEDONE           CAF      ESUMADR
000937: 14,3264           54142                           TS       MPAC       +2
000938: 14,3265           33271                           CAF      V01N01E
000939: 14,3266           05563                           TC       NVSBWAIT
000940: 14,3267           02142                           TC       ENDTST03
000941:
000942: 14,3270           02501        V25N01E            OCT      02501
000943: 14,3271           00101        V01N01E            OCT      00101
000944: 14,3272           00750        SUMEBADR           ADRES    SUMEBANK
000945: 14,3273           00753        ESUMADR            ADRES    ERASUM
000946:
000947: 14,3274                        ENDIMUS3           EQUALS

End of include-file IMU_PERFORMANCE_TESTS_3.agc.  Parent file is MAIN.agc


