
Source Code


000002:                                                                                                  ## Copyright:   Public domain.
000003:                                                                                                  ## Filename:    IMU_PERFORMANCE_TESTS_2.agc
000004:                                                                                                  ## Purpose:     A section of Sundial E.
000005:                                                                                                  ##              It is part of the reconstructed source code for the final
000006:                                                                                                  ##              release of the Block II Command Module system test software. No
000007:                                                                                                  ##              original listings of this program are available; instead, this
000008:                                                                                                  ##              file was created via disassembly of dumps of Sundial core rope
000009:                                                                                                  ##              modules and comparison with other AGC programs.
000010:                                                                                                  ## Assembler:   yaYUL
000011:                                                                                                  ## Contact:     Ron Burkey <info@sandroid.org>.
000012:                                                                                                  ## Website:     www.ibiblio.org/apollo/index.html
000013:                                                                                                  ## Mod history: 2023-06-22 MAS  Created from Aurora 12.
000014:                                                                                                  ##              2023-06-30 MAS  Updated for Sundial E.
000015:
000016:
000017: 17,2000                                           BANK     17
000018: 17,2000  E5,1400                                  EBANK=   XSM
000019:
000020:
000021:
000022: 17,2000           37657        IMUTEST            CA       ZERO
000023: 17,2001           55637                           TS       DRIFTT
000024: 17,2002           55704                           TS       GEOCOMPS
000025: 17,2003           55712                           TS       SINGAZ
000026: 17,2004           55713                           TS       SINGAZ     +1
000027: 17,2005           55715                           TS       COSGAZ     +1
000028: 17,2006           37635                           CAF      HALF
000029: 17,2007           55714                           TS       COSGAZ
000030: 17,2010           06000        GEOIMUTT           TC       INTPRET                               #  OPTIMUM COMPASS COMES IN HERE
000031: 17,2011           77634                           CALL
000032: 17,2012           14541                                    LATAZCHK
000033: 17,2013           77776                           EXIT
000034: 17,2014           37652                           CA       ONE
000035: 17,2015           55544                           TS       POSITON
000036:
000037: 17,2016           54340                           TS       DSPTEM2    +2
000038: 17,2017           37657                           CA       ZERO
000039: 17,2020           54402                           TS       THETAD     +2
000040: 17,2021           04064                           TC       BANKCALL
000041: 17,2022           26000                           CADR     IMUZERO
000042: 17,2023           04064                           TC       BANKCALL
000043: 17,2024           26730                           CADR     IMUSTALL
000044: 17,2025           13737                           TCF      ENDTEST1
000045: 17,2026           37657        IMUBACK            CA       ZERO
000046: 17,2027           54337                           TS       DSPTEM2    +1
000047: 17,2030           55537                           TS       NDXCTR
000048: 17,2031           55611                           TS       TORQNDX
000049: 17,2032           55612                           TS       TORQNDX    +1
000050: 17,2033           33631                           CAF      TESTTIME
000051: 17,2034           54336                           TS       DSPTEM2
000052: 17,2035           37657                           CAF      ZERO
000053: 17,2036           54402                           TS       THETAD     +2
000054: 17,2037           04064                           TC       BANKCALL                              #  ISS RETURNS IN COARSE ALIGN MODE TO
000055: 17,2040           26055                           CADR     IMUCOARS                              #  ENABLE OPERATOR TO DECIDE WHAT TO DO
000056:                                                                                                  #  ABOUT GIMBAL LOCK
000057:
000058: 17,2041           04064                           TC       BANKCALL
000059: 17,2042           26730                           CADR     IMUSTALL
000060: 17,2043           13737                           TCF      ENDTEST1
000061: 17,2044           03563                           TC       SHOWLD
000062: 17,2045           03572                           TC       SHOW
000063: 17,2046           03263                           TC       NBPOSPL
000064: 17,2047           03023                           TC       POSGMBL
000065: 17,2050           02110                           TC       PIPACHK                               #  IF MGA IS 60DEG+ PROG WILL STAY IN COARS
000066:                                                                                                  #  ALIGN AND MEASURE VERITCAL PIPA RATE
000067: 17,2051           03050                           TC       FALNE
000068: 17,2052           04064                           TC       BANKCALL
000069:
000070: 17,2053           26730                           CADR     IMUSTALL
000071: 17,2054           13737                           TCF      ENDTEST1
000072:
000073: 17,2055           06000        GUESS              TC       INTPRET                               #  CALCULATE -COS LATITUDE AND SIN LATITUDE
000074: 17,2056           71545                           DLOAD    COS                                   #  FOR ESTIMATE
000075: 17,2057           01511                                    LATITUDE
000076: 17,2060           72476                           DCOMP    SL1
000077: 17,2061           07610                           STODL    WANGI
000078: 17,2062           01511                                    LATITUDE
000079: 17,2063           72556                           SIN      SL1
000080: 17,2064           01606                           STORE    WANGO                                 #  LOAD TRANSITION MATRIX INTO ERASABLE
000081: 17,2065           77776                           EXIT
000082: 17,2066           03606        JUMPLOAD           TC       LOADGTSM
000083: 17,2067           04064                           TC       BANKCALL
000084: 17,2070           34000                           CADR     ESTIMS
000085: 17,2071           04517        TORQUE             TC       PHASCHNG                              #  FILTER TORQUES PLTFM AND SETS UP ERATE
000086: 17,2072           00000                           OCT      00000
000087:
000088: 17,2073           06000                           TC       INTPRET
000089: 17,2074           77634                           CALL
000090: 17,2075           14416                                    ERTHRVSE
000091: 17,2076           77776                           EXIT
000092:
000093: 17,2077           04064                           TC       BANKCALL
000094: 17,2100           14740                           CADR     OGCZERO
000095:
000096: 17,2101           37657                           CA       ZERO
000097: 17,2102           54336                           TS       DSPTEM2
000098: 17,2103           31635                           CA       DRIFTI
000099: 17,2104           54337                           TS       DSPTEM2    +1
000100: 17,2105           51544                           INDEX    POSITON
000101: 17,2106           55551                           TS       SOUTHDR    -1
000102: 17,2107           03572                           TC       SHOW
000103:
000104: 17,2110           51537        PIPACHK            INDEX    NDXCTR                                #  TORQUE PLATFORM TO CORRECT  LEVELING ERR
000105: 17,2111           02112                           TC       +1                                    #  IN PREPARATION TO MEASURING VERTICAL
000106: 17,2112           04064                           TC       BANKCALL                              #  PIPA OUTPUT PULSE RATE
000107: 17,2113           14433                           CADR     EARTHR
000108:
000109: 17,2114           37641                           CA       BIT10                                 #  IN THE ALLOTED TIME INTERVAL
000110: 17,2115           55527                           TS       LENGTHOT
000111: 17,2116           37652                           CA       ONE
000112: 17,2117           55672                           TS       RESULTCT
000113: 17,2120           37657                           CA       ZERO                                  #  ZERO PIPA COUNTER INITIALLY
000114: 17,2121           51541                           INDEX    PIPINDEX
000115: 17,2122           54037                           TS       PIPAX
000116: 17,2123           55625                           TS       DATAPL
000117: 17,2124           55631                           TS       DATAPL     +4
000118: 17,2125           33646                           CA       DEC18                                 #   LOOP 18 TIMES 5.12 SEC "ACH. EACH INCR.
000119: 17,2126           03131                           TC       WAITLOOP                              #  WILL ALSO CORRECT EARTH RATE
000120: 17,2127           51672                           INDEX    RESULTCT
000121: 17,2130           02131                           TC       +1
000122: 17,2131           30000                           CA       A
000123: 17,2132           00004                           INHINT
000124: 17,2133           02715                           TC       CHECKG
000125: 17,2134           00003                           RELINT
000126: 17,2135           03011                           TC       DATALD
000127: 17,2136           37227                           CA       FIVE
000128: 17,2137           55672                           TS       RESULTCT
000129: 17,2140           51537                           INDEX    NDXCTR
000130: 17,2141           02142                           TC       +1
000131: 17,2142           04064                           TC       BANKCALL
000132: 17,2143           14433                           CADR     EARTHR
000133: 17,2144           11675                           CCS      COUNTPL
000134: 17,2145           03146                           TC       WAITLP2
000135: 17,2146           00004                           INHINT
000136: 17,2147           02715                           TC       CHECKG
000137: 17,2150           00003                           RELINT
000138: 17,2151           03011                           TC       DATALD
000139: 17,2152           00006                           EXTEND
000140: 17,2153           41626                           DCS      DATAPL
000141: 17,2154           21632                           DAS      DATAPL     +4
000142:
000143: 17,2155           06000                           TC       INTPRET
000144: 17,2156           45345                           DLOAD    DSU
000145: 17,2157           01634                                    DATAPL     +6
000146: 17,2160           01630                                    DATAPL     +2
000147: 17,2161           56325                           PDDL     DDV
000148: 17,2162           01632                                    DATAPL     +4
000149: 17,2163           77612                           SL4
000150: 17,2164           41325                           PDDL     DMP
000151: 17,2165           37636                                    DEC585
000152: 17,2166           77624                           RTB
000153: 17,2167           11600                                    SGNAGREE
000154: 17,2170           00337                           STORE    DSPTEM2
000155: 17,2171           77776                           EXIT
000156: 17,2172           03572                           TC       SHOW
000157: 17,2173           33627        VERTDRFT           CA       3998DEC                               #  NUMBER OF SECONDS TO SPEND ESTIMATING
000158: 17,2174           55527                           TS       LENGTHOT
000159: 17,2175           51544                           INDEX    POSITON
000160: 17,2176           41550                           CS       SOUTHDR    -2
000161: 17,2177           55637                           TS       DRIFTT
000162: 17,2200           03606                           TC       LOADGTSM
000163: 17,2201           04064                           TC       BANKCALL                              #  THIS WILL CORRECT FOR EARTH RATE DURING
000164: 17,2202           14433                           CADR     EARTHR                                #  TIME SPENT IN SHOW ABOVE*
000165: 17,2203           30032                           CA       CDUX                                  #  STOORE AXIS  FOR LAB CALC OF DRIFT
000166: 17,2204           55530                           TS       LOSVEC
000167: 17,2205           37657                           CA       ZERO                                  #  ALLOW ONLY SOUTH GYRO EARTH RATE COMPENS
000168: 17,2206           55400                           TS       XSM
000169: 17,2207           55401                           TS       XSM        +1
000170: 17,2210           55404                           TS       XSM        +4
000171: 17,2211           55405                           TS       XSM        +5
000172: 17,2212           55406                           TS       YSM
000173: 17,2213           55407                           TS       YSM        +1
000174:
000175: 17,2214           55412                           TS       YSM        +4
000176: 17,2215           55413                           TS       YSM        +5
000177: 17,2216           55414                           TS       ZSM
000178: 17,2217           55415                           TS       ZSM        +1
000179: 17,2220           55420                           TS       ZSM        +4
000180: 17,2221           55421                           TS       ZSM        +5
000181: 17,2222           37632        GUESS1             CAF      POSMAX
000182: 17,2223           55611                           TS       TORQNDX
000183: 17,2224           55612                           TS       TORQNDX    +1
000184: 17,2225           04064                           TC       BANKCALL
000185: 17,2226           34000                           CADR     ESTIMS
000186: 17,2227           03717                           TC       VALMIS
000187:
000188: 17,2230           33637        OPCHK              CAF      DELYOFF                               #  AUTOMATIC TEST FOR SYSTEM OPERATION
000189: 17,2231           00006                           EXTEND
000190: 17,2232           02030                           RAND     30                                    #  CHECK TO SEE IF IMU IS ON
000191: 17,2233           10000                           CCS      A
000192: 17,2234           02366                           TC       ALARMS
000193: 17,2235           33632                           CAF      V16N20S
000194: 17,2236           05563                           TC       NVSBWAIT
000195:
000196: 17,2237           05632                           TC       FREEDSP
000197: 17,2240           04064                           TC       BANKCALL
000198: 17,2241           26000                           CADR     IMUZERO
000199: 17,2242           04064                           TC       BANKCALL
000200: 17,2243           26730                           CADR     IMUSTALL
000201:
000202: 17,2244           13737                           TCF      ENDTEST1
000203: 17,2245           37643                           CA       BIT8                                  #  ZERO ALL ERASEABLE USED IN TEST
000204: 17,2246           55753                           TS       ZERONDX
000205: 17,2247           33642                           CA       GENPLAD
000206: 17,2250           03155                           TC       ZEROING
000207: 17,2251           03263                           TC       NBPOSPL                               #  ALIGN ANGLE COMPUTATION
000208:
000209: 17,2252           03023                           TC       POSGMBL                               #  COARSE ALIGN THOSE GIMBALS NOW
000210: 17,2253           05677                           TC       ABORT
000211:
000212: 17,2254           03050                           TC       FALNE                                 #  FINE ALIGN PLATFORM BY TORQUING GYROS
000213:
000214: 17,2255           04064                           TC       BANKCALL
000215: 17,2256           26730                           CADR     IMUSTALL
000216: 17,2257           13737                           TCF      ENDTEST1
000217: 17,2260           37651                           CA       TWO
000218: 17,2261           55671        CDUCHECK           TS       CDUNDX                                #  THIS LOOP CHECKS FOR NO ERROR BETWEEN
000219: 17,2262           51671                           INDEX    CDUNDX                                #  DESIRED CDU ANGLES AND THE ACTUAL ANGLES
000220: 17,2263           40400                           CS       THETAD
000221: 17,2264           51671                           INDEX    CDUNDX
000222: 17,2265           60032                           AD       CDUX
000223: 17,2266           55551                           TS       STOREPL
000224: 17,2267           11551                           CCS      STOREPL
000225: 17,2270           02276                           TC       ERRMASK
000226: 17,2271           02273                           TC       NOERR
000227: 17,2272           02276                           TC       ERRMASK
000228: 17,2273           11671        NOERR              CCS      CDUNDX
000229: 17,2274           02261                           TC       CDUCHECK
000230: 17,2275           02302                           TC       LOADIC
000231: 17,2276           73645        ERRMASK            MASK     LOWTWO                                #  ALLOW THREE BIT ERRORS
000232: 17,2277           10000                           CCS      A
000233: 17,2300           02366                           TC       ALARMS
000234: 17,2301           02273                           TC       NOERR
000235: 17,2302           37652        LOADIC             CA       ONE
000236: 17,2303           55672                           TS       RESULTCT
000237: 17,2304           47652                           CS       ONE
000238:
000239: 17,2305           55667                           TS       MASKREG                               #  SETS UP AZIMUTH AND VERTICAL VECTORS FOR
000240:
000241: 17,2306           37657                           CA       ZERO
000242: 17,2307           54037                           TS       PIPAX
000243: 17,2310           54040                           TS       PIPAY
000244: 17,2311           54041                           TS       PIPAZ
000245:
000246: 17,2312           37636                           CA       BIT13
000247: 17,2313           55527                           TS       LENGTHOT                              #  VECTOR IN PIPA COUNTERS
000248: 17,2314           37652                           CA       ONE
000249: 17,2315           03131                           TC       WAITLOOP
000250: 17,2316           11675                           CCS      COUNTPL
000251: 17,2317           03146                           TC       WAITLP2
000252: 17,2320           33705                           CA       DEC13
000253: 17,2321           03131                           TC       WAITLOOP
000254: 17,2322           37651        OPCHK1             CA       TWO
000255: 17,2323           55541        OPCHK2             TS       PIPINDEX
000256: 17,2324           00004                           INHINT
000257: 17,2325           02715                           TC       CHECKG
000258: 17,2326           00003                           RELINT
000259: 17,2327           37657                           CA       ZERO
000260: 17,2330           51541                           INDEX    PIPINDEX
000261: 17,2331           54037                           TS       PIPAX
000262: 17,2332           03011                           TC       DATALD                                #  LOAD PIPA DATA AND TIME IN DATAPL
000263: 17,2333           57672                           XCH      RESULTCT
000264: 17,2334           67650                           AD       FOUR
000265: 17,2335           55672                           TS       RESULTCT
000266: 17,2336           11541                           CCS      PIPINDEX
000267: 17,2337           02323                           TC       OPCHK2
000268: 17,2340           47650        READOUT            CS       FOUR
000269: 17,2341           61672                           AD       RESULTCT
000270: 17,2342           55672                           TS       RESULTCT
000271: 17,2343           22007                           ZL
000272: 17,2344           51672                           INDEX    RESULTCT
000273: 17,2345           31625                           CA       DATAPL
000274: 17,2346           22000                           LXCH     A
000275: 17,2347           51672                           INDEX    RESULTCT
000276: 17,2350           21571                           DAS      GENPL      +1
000277: 17,2351           31672                           CA       RESULTCT
000278: 17,2352           71667                           MASK     MASKREG
000279: 17,2353           10000                           CCS      A
000280: 17,2354           02340                           TC       READOUT
000281: 17,2355           37654                           CA       TEN
000282: 17,2356           66165                           AD       THREE
000283: 17,2357           55672                           TS       RESULTCT
000284: 17,2360           40000                           CS       A
000285: 17,2361           55667                           TS       MASKREG
000286: 17,2362           11675                           CCS      COUNTPL
000287: 17,2363           03146                           TC       WAITLP2
000288: 17,2364           03167                           TC       COMPUT
000289: 17,2365           13737        RADCK              TCF      ENDTEST1                              #  NO RADAR IN CM
000290:
000291: 17,2366           56002        ALARMS             XCH      Q
000292: 17,2367           55546                           TS       QPLACE
000293: 17,2370           05644                           TC       ALARM
000294: 17,2371           01411                           OCT      1411
000295: 17,2372           01546                           TC       QPLACE
000296:
000297: 17,2373           06000        GYRSFTST           TC       INTPRET                               #  START ADRESS FOR IRIG SF TEST
000298: 17,2374           77634                           CALL
000299: 17,2375           14541                                    LATAZCHK                              #  LOAD AZ AND LAT
000300: 17,2376           77776                           EXIT
000301: 17,2377           33622        TESTCALL           CAF      V21N30E
000302: 17,2400           05563                           TC       NVSBWAIT                              #  LOAD + OR - 1 FOR + OR - X TEST (+00001)
000303: 17,2401           04724                           TC       ENDIDLE                               #  LOAD + OR - 2 FOR + OR - Y TEST
000304: 17,2402           13737                           TCF      ENDTEST1                              #  LOAD + OR - 3 FOR + OR - Z TEST
000305: 17,2403           02377                           TC       TESTCALL
000306: 17,2404           56333                           XCH      DSPTEM1
000307: 17,2405           55613                           TS       CALCDIR
000308: 17,2406           00006                           EXTEND                                         #  THIS ROUTINE LOOKS AT THE SIZE OF THE
000309: 17,2407           62414                           BZMF     NEGSIZ                                #  ENTRY MADE BY THE OPERATOR, IF HE DID NO
000310: 17,2410           77663        SIZLOOK            MASK     NEG3                                  #  T ENTER TEST NO THAT IS W/I PERMISSIBLE
000311: 17,2411           00006                           EXTEND                                         #  RANGE- HE WILL BE ASKED TO LOAD AGAIN.
000312: 17,2412           13741                           BZF      GUDENT1                               #    THIS IS CONSIDERED NECESSARY BECAUSE
000313: 17,2413           02377                           TC       TESTCALL                              #  OF FOLLOWING INDEXED TC WHICH COULD
000314:
000315: 17,2414           40000        NEGSIZ             COM                                            #  SEND THE COMPUTER OFF INTO THE BOONDOCKS
000316: 17,2415           02410                           TC       SIZLOOK                               #  TO PLAY WITH ITSELF IF THE OPERATOR
000317: 17,2416           31613        GUDENTRY           CA       CALCDIR                               #  MAKES ABAD ENTRY******
000318: 17,2417           67650                           AD       FOUR
000319: 17,2420           50000                           INDEX    A
000320: 17,2421           02422                           TC       +1
000321: 17,2422           02377                           TC       TESTCALL
000322: 17,2423           02431                           TC       +6                                    #  C(A)=+00001 FOR -Z
000323: 17,2424           02430                           TC       +4                                    #  C(A)=+00002 FOR -Y
000324: 17,2425           02427                           TC       +2                                    #  C(A)=+00003 FOR -X
000325: 17,2426           02422                           TC       -4                                    #  C(A)=+00004   ERROR
000326: 17,2427           02432                           TC       +3                                    #  C(A)=+00005 FOR +X
000327: 17,2430           02436                           TC       +6
000328: 17,2431           02441                           TC       +10
000329: 17,2432           37650                           CAF      FOUR
000330: 17,2433           55544                           TS       POSITON                               #  4 IS FOR A.L. POSN 4 USED FOR X SF TEST
000331: 17,2434           02443                           TC       +7
000332: 17,2435           02443                           TC       +6
000333: 17,2436           37651                           CAF      TWO
000334: 17,2437           55544                           TS       POSITON                               #  +2 IS A.L. POS 2 USED FOR Y SF TEST
000335: 17,2440           02443                           TC       +3
000336: 17,2441           37652                           CAF      ONE
000337: 17,2442           55544                           TS       POSITON                               #  +1 IS A.L. POS 1 USED FOR Z SF TEST
000338: 17,2443           55616                           TS       OPTNREG                               #  C(K) = (4,2,1) FOR X,Y,Z
000339: 17,2444           55620                           TS       SAVE       +1
000340: 17,2445           05632                           TC       FREEDSP
000341: 17,2446           37657                           CAF      ZERO
000342: 17,2447           55536                           TS       NBPOS                                 #  SET UP NB COORD TO Z NORTH, X UP
000343: 17,2450           55621                           TS       SAVE       +2                         #  INITIALIZE FOR EARTHR DESIGNATE USAGE
000344: 17,2451           55563                           TS       TESTNO                                #  INITIALIZE FOR TEST ABORT ROUTINE
000345: 17,2452           55614                           TS       CDUFLAG                               #  ZEROS FOR STRTWACH USE
000346: 17,2453           33624                           CAF      SFCONST
000347:
000348: 17,2454           55622                           TS       SFCONST1                              #  FOR DIVISION DURING CALCFSE
000349:
000350: 17,2455           04064                           TC       BANKCALL
000351: 17,2456           26000                           CADR     IMUZERO
000352: 17,2457           04064                           TC       BANKCALL
000353: 17,2460           26730                           CADR     IMUSTALL
000354: 17,2461           13737                           TCF      ENDTEST1
000355: 17,2462           03263                           TC       NBPOSPL
000356: 17,2463           03023                           TC       POSGMBL
000357: 17,2464           13737                           TCF      ENDTEST1
000358: 17,2465           03050                           TC       FALNE
000359: 17,2466           04064                           TC       BANKCALL
000360: 17,2467           31106                           CADR     REDYTORK
000361: 17,2470           55552        WAITFIVE           TS       SOUTHDR
000362: 17,2471           37645                           CAF      BIT6                                  #  THIS SECTION CALLS FOR 2-32 MSEC WAITS
000363: 17,2472           02505                           TC       DIRECTN    -5
000364: 17,2473           37645        ENABLE             CAF      BIT6
000365: 17,2474           00006                           EXTEND                                         #  ENABLE GYRO TORQUING LOOP BY TURNING
000366: 17,2475           05014                           WOR      14C                                   #  ON CAL MODULE RELAY
000367:
000368: 17,2476           00004                           INHINT
000369: 17,2477           47651                           CS       TWO                                   #  SETS UP EXEC SWITCH SO IMUPULSE WILL
000370: 17,2500           70362                           MASK     IMODES33                              #  NOT TURN OFF GYRO TORQ ENABLE RELAY
000371: 17,2501           67651                           AD       TWO
000372: 17,2502           54362                           TS       IMODES33
000373: 17,2503           37651                           CAF      TWO
000374: 17,2504           55552                           TS       SOUTHDR
000375: 17,2505           55527                           TS       LENGTHOT                              #   20 MSEC DELAY FOR GYRO LOOP STABILIZAT.
000376: 17,2506           37652                           CA       ONE
000377: 17,2507           03131                           TC       WAITLOOP
000378: 17,2510           11675                           CCS      COUNTPL
000379: 17,2511           03146                           TC       WAITLP2
000380: 17,2512           04064        DIRECTN            TC       BANKCALL                              #   TORQUING ROUTINE IN IMU PERFORMANCE
000381: 17,2513           31050                           CADR     SILVER                                #     BANK 3
000382: 17,2514           11552                           CCS      SOUTHDR                               #  A ONE FIRST TIME THROUGH, THEN ZERO
000383: 17,2515           02470                           TC       WAITFIVE
000384:
000385: 17,2516           11614        STRTWACH           CCS      CDUFLAG                               #   RETURNS HERE VIA QPLACE FROM SILVER
000386: 17,2517           02600                           TC       CDUZOTST                              #  BEEN CAUGHT AND CDU THROUGH ZERO IS
000387: 17,2520           11620                           CCS      SAVE       +1
000388: 17,2521           02540                           TC       LOOKCDUP   -4
000389: 17,2522           02544                           TC       LOOKCDUP
000390: 17,2523           37657        CORRECT            CAF      ZERO
000391: 17,2524           54351                           TS       LGYRO                                 #   RELEASES GYROS FOR IMUPULSE USAGE
000392: 17,2525           04064                           TC       BANKCALL                              #  EARTHRATE CORRECTION TO GYROS NOT EAST
000393: 17,2526           14433                           CADR     EARTHR                                #  OR WEST
000394: 17,2527           37652                           CAF      ONE
000395: 17,2530           54351                           TS       LGYRO                                 #  RESERVES GYROS FOR S.F. TEST TORQUING
000396: 17,2531           55621                           TS       SAVE       +2                         #  INITIALIZES TO INSURE 5.6 DEG OF TORQ)
000397: 17,2532           27563                           ADS      TESTNO                                #  INCR THE BURST COUNTER, WHICH IS USED TO
000398:
000399: 17,2533           41563                           CS       TESTNO                                #  COUNT THE NO. OF ITMES THE GYRO COUNTER
000400: 17,2534           77227                           MASK     FIVE                                  #  IS LOADED, IF A TENTH LOAD IS REQUESTED
000401: 17,2535           00006                           EXTEND                                         #  THE SFE IS TOO LARGE TO BE MEANINGFULL
000402: 17,2536           12706                           BZF      STOPTEST                              #  OR THE CDU,S ARE NOT WORKING.
000403: 17,2537           02512                           TC       DIRECTN
000404:
000405: 17,2540           37657                           CAF      ZERO                                  #  ZEROS CDU REG WHICH WILL BE USED TO
000406: 17,2541           55620                           TS       SAVE       +1
000407: 17,2542           51671                           INDEX    CDUNDX                                #  MEASURE ANGLE.
000408: 17,2543           54032                           TS       CDUX
000409: 17,2544           00004        LOOKCDUP           INHINT
000410: 17,2545           37646                           CAF      BIT5
000411: 17,2546           55623        STILLOOK           TS       TIMER
000412: 17,2547           51671                           INDEX    CDUNDX                                #  LOOKS FOR FIRST CDU PULSE AFTER TORQUING
000413: 17,2550           10032                           CCS      CDUX                                  #  STARTS
000414: 17,2551           02563                           TC       OUTPLUS                               #  HERE IS PLUS PULSE
000415: 17,2552           02555                           TC       TIMEWACH
000416: 17,2553           02366                           TC       ALARMS                                #  TTELL OPERATOR FIRST CDU PULSE WAS MISSD
000417: 17,2554           02574                           TC       OUTNEG                                #  HERE IS MINUS PULSE
000418: 17,2555           11623        TIMEWACH           CCS      TIMER                                 #  WATCHES TIME IN INHINT SO COPS WILL NOT
000419: 17,2556           02546                           TC       STILLOOK                              #  CATCH US
000420: 17,2557           00003                           RELINT
000421:
000422: 17,2560           10067                           CCS      NEWJOB
000423: 17,2561           04317                           TC       CHANG1
000424: 17,2562           02544                           TC       LOOKCDUP                              #  KEEP WATCHING IF THE PULSE IS NOT HERE
000425:
000426: 17,2563           43623        OUTPLUS            CS       DESANGLE                              #  -2047 CDU PULSES ADDED TO CDU REG SO
000427: 17,2564           51671                           INDEX    CDUNDX                                #  ZERO CROSSOVER CAN BE DETECTED
000428: 17,2565           54032                           TS       CDUX
000429: 17,2566           37652        LOADFLAG           CAF      ONE
000430: 17,2567           55614                           TS       CDUFLAG
000431: 17,2570           30047                           CA       GYROCTR                               #  GYRO TORQ CMDS LEFT OUT OF FIRST 5.625
000432: 17,2571           55617                           TS       SAVE                                  #  DEG COMMANDED WHEN CDU PULSE ARRIVED
000433: 17,2572           00003                           RELINT
000434: 17,2573           02600                           TC       CDUZOTST
000435:
000436: 17,2574           33623        OUTNEG             CA       DESANGLE
000437: 17,2575           51671                           INDEX    CDUNDX
000438: 17,2576           54032                           TS       CDUX
000439: 17,2577           02566                           TC       LOADFLAG
000440:
000441: 17,2600           51671        CDUZOTST           INDEX    CDUNDX
000442: 17,2601           10032                           CCS      CDUX
000443: 17,2602           02606                           TC       +4
000444: 17,2603           02623                           TC       ENDWATCH
000445: 17,2604           02606                           TC       +2
000446: 17,2605           02623                           TC       ENDWATCH
000447: 17,2606           37641                           CAF      BIT10                                 #  RAND WITH BIT 10 TO SEE IF STILL TORQ.
000448: 17,2607           00006                           EXTEND
000449:
000450: 17,2610           02014                           RAND     14C
000451: 17,2611           10000                           CCS      A
000452: 17,2612           02620                           TC       +6
000453:
000454: 17,2613           11621                           CCS      SAVE       +2                         #  SEE IF 2.8DEG OR 5.6 DEG SINCE LAST
000455: 17,2614           02616                           TC       +2                                    # EEARTHR USE, IF 2.8 DEG, DO 2.8 MORE
000456: 17,2615           02523                           TC       CORRECT                               #   THEN GO TO CORRECT
000457: 17,2616           55621                           TS       SAVE       +2
000458: 17,2617           02512                           TC       DIRECTN
000459: 17,2620           10067                           CCS      NEWJOB
000460: 17,2621           04317                           TC       CHANG1
000461: 17,2622           02600                           TC       CDUZOTST
000462:
000463: 17,2623           00004        ENDWATCH           INHINT                                         #  WWILL STOR GYROCTR AT END OF 2048 CDU
000464: 17,2624           37657                           CAF      ZERO                                  #  PULSES AND STOP TORQ BY ZEROING REQUESTS
000465: 17,2625           54351                           TS       LGYRO                                 #   RELEASE GYROS FOR OTHERS USAGE
000466: 17,2626           56047                           XCH      GYROCTR
000467: 17,2627           55620                           TS       SAVE       +1                         #  AND STOPS TORQUING BY ZEROING TORQ
000468: 17,2630           47651                           CS       TWO
000469: 17,2631           70362                           MASK     IMODES33                              #  THIS TURNS OFF EXEC SWITCH SO THE GYRO
000470: 17,2632           54362                           TS       IMODES33                              #  TORQ. ENABLE RELAY CAN BE TURNED OFF.
000471: 17,2633           00003                           RELINT
000472: 17,2634           31617        CALCSFE            CA       SAVE                                  #  GYROCTR AT TEST START
000473: 17,2635           00006                           EXTEND
000474: 17,2636           61620                           SU       SAVE       +1                         #  GYROCTR AT TEST END
000475: 17,2637           55621                           TS       SAVE       +2
000476: 17,2640           00006                           EXTEND
000477: 17,2641           62660                           BZMF     ARITH                                 #  SEE IF IT IS NEG OR ZERO,IF NEG,SFE IS +
000478: 17,2642           73625                           MASK     SIZCHK
000479: 17,2643           00006                           EXTEND                                         #  THIS ROUTINE TESTS SAVE-(SAVE+1) TO SEE
000480: 17,2644           12652                           BZF      NEGSFE                                #  IF THE RESULT IS WITHIN PERMISSIBLE SIZE
000481: 17,2645           41621                           CS       SAVE       +2                         #  AND DETERMINES POLARITY OF SFE USING THE
000482: 17,2646           73625                           MASK     SIZCHK                                #  PRESENCE OR ABSENCE OF BITS 12,13,14.
000483: 17,2647           00006                           EXTEND                                         #  IF BITS ARE PRESENT IN POSITIVE SAVE +2
000484: 17,2650           12654                           BZF      POSSFE                                #  THEN THE SFE MUST BE POS. IF DIFFERENCE
000485: 17,2651           02706                           TC       STOPTEST                              #  IS GREATER THAN 2047 PULSES FROM THE
000486: 17,2652           31621        NEGSFE             CAE      SAVE       +2                         #  IDEAL NO OF PULSES, THE SFE EXCEEDS
000487: 17,2653           02660                           TC       ARITH                                 #  15600 PPM, THE TEST IS NOT VALID AND
000488:
000489:                                                                                                  #  THEREFORE ABORTS AND TURNS ON PROGRAM ALARM
000490: 17,2654           37632        POSSFE             CAF      POSMAX                                #  POS SFE DEFINITION = IRIG SF IN SEC OF
000491: 17,2655           00006                           EXTEND                                         #  ARC PER PULSE IS GREATER THAN
000492: 17,2656           61621                           SU       SAVE       +2                         #  .61798095703125  SEC OF ARC/ PULSE
000493: 17,2657           02661                           TC       ARITH      +1
000494:
000495: 17,2660           40000        ARITH              COM
000496: 17,2661           22007                           ZL
000497: 17,2662           00006                           EXTEND
000498: 17,2663           11622                           DV       SFCONST1
000499: 17,2664           54336        LOADIT             TS       DSPTEM2
000500:
000501: 17,2665           02666                           TC       DATADSP
000502:
000503: 17,2666           05535        DATADSP            TC       GRABDSP
000504: 17,2667           05543                           TC       PREGBSY
000505: 17,2670           31613                           CA       CALCDIR
000506: 17,2671           54340                           TS       DSPTEM2    +2                         #  DISPLAYS TEST NO JUST PERFORMED
000507: 17,2672           33630                           CAF      VB06N66                               #   R3 = TEST NO JUST PERFORMED
000508: 17,2673           05563                           TC       NVSBWAIT
000509: 17,2674           05525                           TC       FLASHON
000510: 17,2675           04724                           TC       ENDIDLE                               #  TO END TEST DO V34E
000511: 17,2676           02700                           TC       +2
000512: 17,2677           02377                           TC       TESTCALL                              #  TO CONTINUE TEST DO V33E
000513: 17,2700           04064        STOPTST1           TC       BANKCALL
000514: 17,2701           26000                           CADR     IMUZERO
000515: 17,2702           04064                           TC       BANKCALL
000516: 17,2703           26730                           CADR     IMUSTALL
000517: 17,2704           13737                           TCF      ENDTEST1
000518: 17,2705           13737                           TCF      ENDTEST1
000519:
000520: 17,2706           05644        STOPTEST           TC       ALARM
000521: 17,2707           01604                           OCT      1604
000522: 17,2710           37657                           CAF      ZERO
000523: 17,2711           54351                           TS       LGYRO                                 #  **** RELEASE GYROS FOR OTHERS USAGE*****
000524: 17,2712           02700                           TC       STOPTST1
000525: 17,2713           04064                           TC       BANKCALL
000526: 17,2714           37737                           CADR     ENDTEST1
000527:
000528: 17,2715           00006        CHECKG             EXTEND                                         #  PIP PULSE CATCHING ROUTINE
000529: 17,2716           23546                           QXCH     QPLACE                                #  RECORDS TIME AT OCCURRENCE OF A DELTA V
000530: 17,2717           00003        CHECKG1            RELINT                                         #  KEEPS CONTENT OF PIPA REG INTACT
000531: 17,2720           10067                           CCS      NEWJOB
000532: 17,2721           04317                           TC       CHANG1
000533: 17,2722           00004                           INHINT
000534: 17,2723           37657                           CAF      ZERO
000535: 17,2724           51541                           INDEX    PIPINDEX
000536: 17,2725           56037                           XCH      PIPAX
000537: 17,2726           55551                           TS       STOREPL
000538: 17,2727           11551                           CCS      STOREPL
000539: 17,2730           02734                           TC       CHECKP
000540: 17,2731           03007                           TC       RESTOREA
000541: 17,2732           02747                           TC       CHECKM
000542: 17,2733           03007                           TC       RESTOREA
000543: 17,2734           37645        CHECKP             CAF      BIT6                                  #  LOOKS FOR ONE MORE PLUS PULSE
000544: 17,2735           55540                           TS       PIPANO
000545: 17,2736           51541                           INDEX    PIPINDEX
000546: 17,2737           10037                           CCS      PIPAX
000547: 17,2740           02762                           TC       CHECKG3
000548: 17,2741           02744                           TC       +3
000549: 17,2742           03007                           TC       RESTOREA
000550: 17,2743           02744                           TC       +1
000551: 17,2744           11540                           CCS      PIPANO
000552: 17,2745           02735                           TC       CHECKP     +1
000553: 17,2746           03007                           TC       RESTOREA
000554: 17,2747           37645        CHECKM             CAF      BIT6                                  #  LOOKS FOR ONE MORE MINUS PULSE
000555: 17,2750           55540                           TS       PIPANO
000556: 17,2751           51541                           INDEX    PIPINDEX
000557: 17,2752           10037                           CCS      PIPAX
000558: 17,2753           03007                           TC       RESTOREA
000559: 17,2754           02757                           TC       +3
000560: 17,2755           02762                           TC       CHECKG3
000561: 17,2756           02757                           TC       +1
000562: 17,2757           11540                           CCS      PIPANO
000563: 17,2760           02750                           TC       CHECKM     +1
000564: 17,2761           03007                           TC       RESTOREA
000565: 17,2762           05721        CHECKG3            TC       FINETIME                              #  TIME IN DOUBLE PRECISION LEFT IN MPAC
000566:
000567: 17,2763           52141                           DXCH     MPAC
000568: 17,2764           37647                           CAF      BIT4
000569: 17,2765           55540        CHECKG5            TS       PIPANO
000570: 17,2766           51541                           INDEX    PIPINDEX
000571: 17,2767           10037                           CCS      PIPAX
000572: 17,2770           02774                           TC       +4
000573: 17,2771           03007                           TC       RESTOREA
000574: 17,2772           02774                           TC       +2
000575: 17,2773           03007                           TC       RESTOREA
000576: 17,2774           11540                           CCS      PIPANO
000577: 17,2775           02765                           TC       CHECKG5
000578:
000579: 17,2776           03001        NREAD              TC       RESTORE
000580: 17,2777           55551                           TS       STOREPL
000581: 17,3000           01546                           TC       QPLACE
000582: 17,3001           57551        RESTORE            XCH      STOREPL                               #  A WILL CONTAIN PREVIOUS PIPA CNTR CONTEN
000583: 17,3002           51541                           INDEX    PIPINDEX                              #  STOREPL WILL CONTAIN ZERO
000584: 17,3003           60037                           AD       PIPAX
000585: 17,3004           51541                           INDEX    PIPINDEX
000586: 17,3005           54037                           TS       PIPAX
000587: 17,3006           00002                           TC       Q
000588:
000589: 17,3007           03001        RESTOREA           TC       RESTORE
000590: 17,3010           02717                           TC       CHECKG1
000591: 17,3011           31551        DATALD             CA       STOREPL
000592: 17,3012           51672                           INDEX    RESULTCT
000593: 17,3013           55625                           TS       DATAPL
000594: 17,3014           30140                           CA       MPAC
000595: 17,3015           51672                           INDEX    RESULTCT
000596: 17,3016           55626                           TS       DATAPL     +1
000597: 17,3017           30141                           CA       MPAC       +1
000598: 17,3020           51672                           INDEX    RESULTCT
000599: 17,3021           55627                           TS       DATAPL     +2
000600: 17,3022           00002                           TC       Q
000601:
000602:
000603:
000604:
000605:
000606: 17,3023           00006        POSGMBL            EXTEND                                         #  COARSE ALIGNING SUBROUTINE
000607: 17,3024           23546                           QXCH     QPLACE
000608:
000609: 17,3025           06000                           TC       INTPRET
000610: 17,3026           77634                           CALL
000611: 17,3027           16226                                    CALCGA
000612: 17,3030           77776                           EXIT
000613:
000614: 17,3031           04064                           TC       BANKCALL
000615: 17,3032           26055                           CADR     IMUCOARS
000616: 17,3033           33047                           CA       GMLOCKCK                              #  IF FAILREG CONTAINS 401 WILL RETURN TO
000617: 17,3034           71363                           MASK     FAILREG
000618: 17,3035           10000                           CCS      A                                     #  L +1, OTHERWISE TO L +2.
000619: 17,3036           03041                           TC       LOCK
000620: 17,3037           25546                           INCR     QPLACE
000621: 17,3040           03043                           TC       +3
000622: 17,3041           37651        LOCK               CA       TWO
000623: 17,3042           55537                           TS       NDXCTR
000624: 17,3043           04064                           TC       BANKCALL
000625: 17,3044           26730                           CADR     IMUSTALL
000626: 17,3045           13737                           TCF      ENDTEST1
000627: 17,3046           01546                           TC       QPLACE
000628: 17,3047           00401        GMLOCKCK           OCT      00401
000629:
000630: 17,3050           00006        FALNE              EXTEND                                         #  TORQUES GYROS TO NULL OVT DIFFERENCE
000631: 17,3051           23546                           QXCH     QPLACE                                #  BETWEEN DESIRED SM ORIENTATION WITH RESP
000632: 17,3052           04064                           TC       BANKCALL                              #  TO NBASE AND ACTUAL
000633: 17,3053           26000                           CADR     IMUZERO
000634: 17,3054           04064                           TC       BANKCALL
000635: 17,3055           26730                           CADR     IMUSTALL
000636: 17,3056           13737                           TCF      ENDTEST1
000637: 17,3057           04064                           TC       BANKCALL
000638: 17,3060           26227                           CADR     IMUFINE
000639: 17,3061           04064                           TC       BANKCALL
000640: 17,3062           26730                           CADR     IMUSTALL
000641: 17,3063           13737                           TCF      ENDTEST1
000642: 17,3064           30032        FALNE1             CA       CDUX
000643: 17,3065           50104                           INDEX    FIXLOC
000644: 17,3066           54024                           TS       24
000645: 17,3067           30033                           CA       CDUY
000646: 17,3070           50104                           INDEX    FIXLOC
000647: 17,3071           54020                           TS       20
000648: 17,3072           30034                           CA       CDUZ
000649: 17,3073           50104                           INDEX    FIXLOC
000650: 17,3074           54022                           TS       22
000651: 17,3075           37646                           CA       BIT5
000652: 17,3076           60104                           AD       FIXLOC
000653: 17,3077           50104                           INDEX    FIXLOC
000654: 17,3100           54050                           TS       S1
000655: 17,3101           06000                           TC       INTPRET
000656: 17,3102           64375                           VLOAD    MXV
000657: 17,3103           01401                                    XSM
000658: 17,3104           01445                                    STARAD
000659: 17,3105           77772                           VSL1
000660: 17,3106           36041                           STCALL   32D
000661: 17,3107           16130                                    NBSM
000662: 17,3110           23423                           STOVL    XDC
000663: 17,3111           01407                                    YSM
000664: 17,3112           76521                           MXV      VSL1
000665: 17,3113           01445                                    STARAD
000666: 17,3114           36041                           STCALL   32D
000667: 17,3115           16130                                    NBSM
000668: 17,3116           23431                           STOVL    YDC
000669: 17,3117           01423                                    XDC
000670: 17,3120           76435                           VXV      VSL1
000671: 17,3121           01431                                    YDC
000672: 17,3122           37437                           STCALL   ZDC
000673: 17,3123           16000                                    CALCGTA
000674: 17,3124           77776                           EXIT
000675: 17,3125           33644                           CA       OGCPL
000676: 17,3126           04064                           TC       BANKCALL
000677: 17,3127           26333                           CADR     IMUPULSE
000678: 17,3130           01546                           TC       QPLACE
000679:
000680: 17,3131           00006        WAITLOOP           EXTEND                                         #  LOOPS IN X SEC INCREMENTS FOR NUMBER OF
000681: 17,3132           23545                           QXCH     QPLAC
000682: 17,3133           55675                           TS       COUNTPL                               #  NUMBER PUT INTO LENGTHOT
000683: 17,3134           11675        WAITLP1            CCS      COUNTPL
000684: 17,3135           03137                           TC       +2
000685: 17,3136           01545                           TC       QPLAC
000686: 17,3137           00004                           INHINT
000687: 17,3140           31527                           CAE      LENGTHOT
000688: 17,3141           04451                           TC       WAITLIST
000689: 17,3142           03152 36005                     2CADR    WAITLP3
000690: 17,3144           00003                           RELINT
000691: 17,3145           01545                           TC       QPLAC
000692:
000693: 17,3146           55675        WAITLP2            TS       COUNTPL                               #  ENTER HERE AFTER DOING CALLING JOB
000694: 17,3147           33151                           CAF      WTLPCADR
000695: 17,3150           04331                           TC       JOBSLEEP
000696: 17,3151           37134        WTLPCADR           CADR     WAITLP1
000697: 17,3152           33151        WAITLP3            CAF      WTLPCADR
000698: 17,3153           04335                           TC       JOBWAKE
000699: 17,3154           04505                           TC       TASKOVER
000700:
000701:
000702:
000703:
000704:
000705: 17,3155           54001        ZEROING            TS       L
000706: 17,3156           13160                           TCF      +2
000707: 17,3157           55753        ZEROING1           TS       ZERONDX
000708: 17,3160           37657                           CAF      ZERO
000709: 17,3161           50001                           INDEX    L
000710: 17,3162           54000                           TS       0
000711: 17,3163           24001                           INCR     L
000712: 17,3164           11753                           CCS      ZERONDX
000713: 17,3165           13157                           TCF      ZEROING1
000714: 17,3166           00002                           TC       Q
000715: 17,3167           06000        COMPUT             TC       INTPRET                               #  CALCULATE LENGTH OF GRAVITY VECTOR AS
000716: 17,3170           77170                           AXT,1    AXT,2                                 #  MEASURED BY ACCELEROMETERS
000717: 17,3171           00026                                    22D
000718: 17,3172           00012                                    10D
000719: 17,3173           77731                           SSP
000720: 17,3174           00051                                    S1
000721: 17,3175           00004                                    4
000722: 17,3176           77731                           SSP
000723: 17,3177           00052                                    S2
000724: 17,3200           00004                                    4
000725:
000726: 17,3201           44743        LOPDELOP           DLOAD*   DSU*
000727: 17,3202           76121                                    DATAPL     +24D,2
000728: 17,3203           01656                                    DATAPL     +24D,1
000729: 17,3204           41323                           PDDL*    DMP
000730: 17,3205           76157                                    GENPL      +24D,2
000731: 17,3206           37636                                    DEC585
000732: 17,3207           42471                           DDV      SL4
000733: 17,3210           55504                           TIX,2    VDEF
000734: 17,3211           37216                                    NEXT
000735: 17,3212           45046                           ABVAL    RTB
000736: 17,3213           11600                                    SGNAGREE
000737: 17,3214           36337                           STCALL   DSPTEM2
000738: 17,3215           37220                                    KODU
000739: 17,3216           60006        NEXT               PUSH     TIX,1
000740: 17,3217           37201                                    LOPDELOP
000741: 17,3220           77776        KODU               EXIT
000742: 17,3221           05550                           TC       GRABWAIT
000743: 17,3222           03572                           TC       SHOW
000744: 17,3223           06000                           TC       INTPRET
000745: 17,3224           41535                           SLOAD    PUSH
000746: 17,3225           01627                                    DATAPL     +1
000747: 17,3226           41535                           SLOAD    PUSH
000748: 17,3227           01633                                    DATAPL     +5
000749: 17,3230           55535                           SLOAD    VDEF
000750: 17,3231           01637                                    DATAPL     +11
000751: 17,3232           76456                           UNIT     VSL1
000752: 17,3233           77606                           PUSH
000753: 17,3234           41535                           SLOAD    PUSH
000754: 17,3235           01643                                    DATAPL     +15
000755: 17,3236           41535                           SLOAD    PUSH
000756: 17,3237           01647                                    DATAPL     +21
000757: 17,3240           55535                           SLOAD    VDEF
000758: 17,3241           01653                                    DATAPL     +25
000759: 17,3242           76456                           UNIT     VSL1
000760: 17,3243           45325                           PDDL     DSU
000761: 17,3244           01654                                    DATAPL     +26
000762: 17,3245           01640                                    DATAPL     +12
000763: 17,3246           77612                           SL4
000764: 17,3247           77652                           SL3
000765: 17,3250           23530                           STOVL    LENGTHOT
000766: 17,3251           51435                           VXV      ABVAL
000767: 17,3252           56205                           DMP      DDV
000768: 17,3253           37641                                    ERUNITS
000769: 17,3254           01530                                    LENGTHOT
000770: 17,3255           77624                           RTB
000771: 17,3256           11600                                    SGNAGREE
000772: 17,3257           00337                           STORE    DSPTEM2
000773: 17,3260           77776                           EXIT
000774: 17,3261           03572                           TC       SHOW
000775: 17,3262           12365                           TCF      RADCK
000776:
000777: 17,3263           00006        NBPOSPL            EXTEND                                         #  SETS UP AZIMUTH AND VERTICAL VECTORS FOR
000778: 17,3264           23546                           QXCH     QPLACE                                #  AXISGEN,RESULTS TO BE USED IN CALCGA TO
000779: 17,3265           06000                           TC       INTPRET
000780: 17,3266           54160                           AXC,1    XSU,1                                 #  AZIMUTH IN NB COORDS
000781: 17,3267           37655                                    SCNBAZ
000782: 17,3270           01536                                    NBPOS
000783: 17,3271           77773                           VLOAD*
000784: 17,3272           00001                                    0,1
000785: 17,3273           01445                           STORE    STARAD
000786:
000787: 17,3274           54160                           AXC,1    XSU,1                                 #  VERITCAL IN NB COORDS
000788: 17,3275           37671                                    SCNBVER
000789: 17,3276           01536                                    NBPOS
000790: 17,3277           77773                           VLOAD*
000791: 17,3300           00001                                    0,1
000792: 17,3301           07453                           STODL    STARAD     +6
000793: 17,3302           16711                                    ZERODP
000794: 17,3303           06007                           STODL    6D
000795: 17,3304           01507                                    AZIMUTH
000796: 17,3305           57546                           COS      DCOMP
000797: 17,3306           06011                           STODL    8D
000798: 17,3307           01507                                    AZIMUTH
000799: 17,3310           77756                           SIN
000800: 17,3311           00013                           STORE    10D                                   #  VERTICAL IN CER
000801: 17,3312           77775                           VLOAD
000802: 17,3313           37672                                    SCNBVER
000803: 17,3314           36015                           STCALL   12D
000804: 17,3315           16344                                    AXISGEN
000805: 17,3316           77776                           EXIT
000806:
000807: 17,3317           33634        SELPOSN            CA       DEC17
000808: 17,3320           55753                           TS       ZERONDX
000809: 17,3321           33654                           CA       XSMADR
000810: 17,3322           03155                           TC       ZEROING
000811:
000812: 17,3323           51544                           INDEX    POSITON
000813: 17,3324           03325                           TC       +1
000814: 17,3325           03457                           TC       OPCHKPOS                              #  OPCHK WILL PUT ZERO IN POSITON
000815: 17,3326           03346                           TC       POSN1
000816: 17,3327           03355                           TC       POSN2
000817: 17,3330           03362                           TC       POSN3
000818: 17,3331           03374                           TC       POSN4
000819: 17,3332           03413                           TC       POSN5
000820: 17,3333           03423                           TC       POSN6
000821: 17,3334           03433                           TC       POSN7
000822: 17,3335           03446                           TC       POSN8
000823: 17,3336           03475                           TC       POSN9
000824: 17,3337           03506                           TC       POSN10
000825: 17,3340           03517                           TC       POSN11
000826: 17,3341           03525                           TC       POSN12
000827: 17,3342           03533                           TC       POSN13
000828: 17,3343           03541                           TC       POSN14
000829: 17,3344           03547                           TC       POSN15
000830: 17,3345           03555                           TC       POSN16
000831:
000832:                                                                                                  #  WE WILL DENOTE THE FLASHING DISPLAY OF A HORIZONTAL TEST BY DH
000833:                                                                                                  #  (XXX.XX MERU) AND A VERTICAL TEST BY DV (XXX.XX MERU) EACH POSITION TELL
000834:                                                                                                  #  HOW THE DISPLAYS ARE RELATED TO TTHE DRIFT COEFFICIENTS BEING MEASURED.
000835:                                                                                                  #  NOTE THAT IT IS ILLEGAL TO RUN VERTICAL IN POS 6,4, OR 2 WITHOUT FIRST
000836:                                                                                                  #  RUNNING HORIZONTAL OF POS 5,3, OR1. THIS IS BECAUSE THE HORIZ DRIFT CALC
000837:                                                                                                  #  IN 1,3, OR 5 IS USED AS EAST DRIFFFT FOR VERTICAL TEST. THIS IS DONE BY
000838:                                                                                                  #  THE MACHINE AUTOMATICALLY EXCEPT FOR VERTICAL POSITION 6 WHICH THE
000839:                                                                                                  #  OPERATOR MUST DO. (SEE POSITION 6 BELOW)
000840: 17,3346           37635        POSN1              CA       HALF                                  #  X UP, Y SOUTH, Z EAST
000841: 17,3347           55400                           TS       XSM
000842: 17,3350           55410                           TS       YSM        +2                         #    NBDY = DH
000843: 17,3351           55420                           TS       ZSM        +4
000844: 17,3352           37657        NGUBGH             CA       ZERO
000845: 17,3353           55541                           TS       PIPINDEX
000846: 17,3354           01546                           TC       QPLACE
000847:
000848:
000849:
000850: 17,3355           47635        POSN2              CS       HALF                                  #  X DOWN, Y WEST, Z NORTH
000851: 17,3356           55400                           TS       XSM
000852: 17,3357           55412                           TS       YSM        +4                         #   NBDZ =DH ,NBDX -ADIAX= -DV
000853: 17,3360           55416                           TS       ZSM        +2
000854: 17,3361           03352                           TC       NGUBGH
000855:
000856:
000857:
000858: 17,3362           37635        POSN3              CA       HALF                                  #  Z UP, Y WEST ,X NORTH
000859: 17,3363           55414                           TS       ZSM
000860: 17,3364           40000                           COM                                            #   NBDX = -DH
000861: 17,3365           55402                           TS       XSM        +2
000862: 17,3366           55412                           TS       YSM        +4
000863: 17,3367           37651        NSFLAGD            CA       TWO
000864: 17,3370           55541                           TS       PIPINDEX
000865: 17,3371           37657        NSBUGD             CA       ZERO
000866: 17,3372           55637                           TS       DRIFTT
000867: 17,3373           01546                           TC       QPLACE
000868:
000869:
000870:
000871: 17,3374           47635        POSN4              CS       HALF                                  #  Y SOUTH, X EAST, Z DOWN
000872: 17,3375           55414                           TS       ZSM                                   #   NBDY +ADSRAY=DH
000873: 17,3376           06000                           TC       INTPRET                               #   NBDZ +ADIAZ =DV
000874: 17,3377           77745                           DLOAD
000875: 17,3400           01713                                    SINGAZ
000876: 17,3401           01413                           STORE    YSM        +4
000877: 17,3402           77676                           DCOMP
000878: 17,3403           07403                           STODL    XSM        +2
000879: 17,3404           01715                                    COSGAZ
000880: 17,3405           01411                           STORE    YSM        +2
000881: 17,3406           01405                           STORE    XSM        +4
000882: 17,3407           77776                           EXIT
000883: 17,3410           37651        NSFLAG             CA       TWO
000884: 17,3411           55541                           TS       PIPINDEX
000885: 17,3412           01546                           TC       QPLACE
000886:
000887: 17,3413           37635        POSN5              CA       HALF                                  #  Y UP, Z NORTH, X WEST
000888: 17,3414           55406                           TS       YSM
000889: 17,3415           40000                           COM                                            #   NBDZ-ADSRAZ =DH
000890: 17,3416           55404                           TS       XSM        +4
000891: 17,3417           55416                           TS       ZSM        +2
000892: 17,3420           37652                           CA       ONE
000893: 17,3421           55541                           TS       PIPINDEX
000894: 17,3422           03371                           TC       NSBUGD
000895:
000896:
000897:
000898:                                                                                                  #  TO RUN POSITION 6 VERTICAL AFTER PIP TEST POS 6 IS DISPLAYED THE OPERATR
000899:                                                                                                  #  MUST CALCULATE FROM 2.5 -NBDZ-ADSRAZ  (XXX.XX)MERU.    WHEN PI
000900:                                                                                                  #  IP DATA FLASHES DO VERB 33 ENTER. THIS STARTS VERTICAL TEST. THEN THE
000901:                                                                                                  #  DATA XXX.XX MERU AS CALCULATED MUST BE ENTERED INTO DRIFTT. IE VERB 21
000902:                                                                                                  #  ENTER NOUN 01 ENTER LOCATION OF DRIFTT ENTER + (OR -) XXXXX ENTER
000903: 17,3423           37635        POSN6              CA       HALF                                  #  Y DOWN, Z EAST, X SOUTH
000904: 17,3424           55402                           TS       XSM        +2
000905: 17,3425           55420                           TS       ZSM        +4
000906: 17,3426           40000                           COM                                            #   NBDX +ADSRAX = DH, NBDY -ADIAY = -DV
000907: 17,3427           55406                           TS       YSM
000908: 17,3430           37652        NGFLAG             CA       ONE
000909: 17,3431           55541                           TS       PIPINDEX
000910: 17,3432           01546                           TC       QPLACE
000911:
000912:
000913:
000914: 17,3433           47635        POSN7              CS       HALF                                  #  Z UP-EAST,Y UP-WEST,X NORTH.THIS POSITON
000915: 17,3434           55402                           TS       XSM        +2
000916: 17,3435           33650                           CA       ROOT1/2
000917: 17,3436           55406                           TS       YSM                                   #   NBDX - .707 ADSRAX = -DH
000918: 17,3437           55414                           TS       ZSM
000919: 17,3440           55420                           TS       ZSM        +4
000920: 17,3441           40000                           COM
000921: 17,3442           55412                           TS       YSM        +4
000922: 17,3443           37657        GEORGES            CA       ZERO
000923: 17,3444           55363                           TS       FAILREG
000924: 17,3445           03371                           TC       NSBUGD
000925:
000926:
000927:
000928: 17,3446           37635        POSN8              CA       HALF                                  #  Z UP-SOUTH,Y UP-NORTH,X EAST.THIS POSITN
000929: 17,3447           55404                           TS       XSM        +4
000930: 17,3450           33650                           CA       ROOT1/2                               #   .707(-NBDZ-NBDY) +.5(ADIAZ-ADIAY)
000931: 17,3451           55406                           TS       YSM                                   #  +.5(ADSRAY +ADSRAZ)=DH
000932: 17,3452           55416                           TS       ZSM        +2
000933: 17,3453           55414                           TS       ZSM
000934: 17,3454           40000                           COM
000935: 17,3455           55410                           TS       YSM        +2
000936: 17,3456           03371                           TC       NSBUGD
000937:
000938: 17,3457           33651        OPCHKPOS           CA       ROOT1SQ                               #  OG=+45DEG,IG=-45DEG,MG=+45DEG.
000939: 17,3460           55400                           TS       XSM
000940: 17,3461           55410                           TS       YSM        +2
000941: 17,3462           55412                           TS       YSM        +4
000942: 17,3463           55414                           TS       ZSM
000943: 17,3464           33650                           CA       ROOT1/2
000944: 17,3465           55406                           TS       YSM
000945: 17,3466           33653                           CA       ROOT3SQ
000946: 17,3467           55402                           TS       XSM        +2
000947: 17,3470           55420                           TS       ZSM        +4
000948: 17,3471           43652                           CS       ROOT2SQ
000949: 17,3472           55404                           TS       XSM        +4
000950: 17,3473           55416                           TS       ZSM        +2
000951: 17,3474           01546                           TC       QPLACE
000952:
000953: 17,3475           37635        POSN9              CA       HALF                                  #  X UP EAST,Y UP WEST,Z SOUTH.THIS POSITON
000954: 17,3476           55416                           TS       ZSM        +2
000955: 17,3477           33650                           CA       ROOT1/2                               #   -NBDZ +.707 SRAZ =DH
000956: 17,3500           55400                           TS       XSM
000957: 17,3501           55404                           TS       XSM        +4
000958: 17,3502           55406                           TS       YSM
000959: 17,3503           40000                           COM
000960: 17,3504           55412                           TS       YSM        +4
000961: 17,3505           03371                           TC       NSBUGD
000962:
000963:
000964:
000965: 17,3506           37635        POSN10             CA       HALF                                  #  X UP NORTH, Y UP SOUTH,Z EAST.THIS POSITN
000966: 17,3507           55420                           TS       ZSM        +4
000967: 17,3510           33650                           CA       ROOT1/2                               #    .707(NBDY -NBDX) +.5(ADIAY -ADIAX)
000968: 17,3511           55400                           TS       XSM                                   #   +.5(ADSRAX) = DH
000969: 17,3512           55406                           TS       YSM
000970: 17,3513           55410                           TS       YSM        +2
000971: 17,3514           40000                           COM
000972: 17,3515           55402                           TS       XSM        +2
000973: 17,3516           03371                           TC       NSBUGD
000974:
000975:
000976:
000977: 17,3517           37635        POSN11             CA       HALF                                  #  X NORTH, Y WEST, Z DOWN
000978: 17,3520           55402                           TS       XSM        +2
000979: 17,3521           40000                           COM
000980: 17,3522           55412                           TS       YSM        +4
000981: 17,3523           55414                           TS       ZSM
000982: 17,3524           03367                           TC       NSFLAGD
000983:
000984: 17,3525           47635        POSN12             CS       HALF                                  #  X DOWN, Y NORTH, Z WEST
000985: 17,3526           55400                           TS       XSM
000986: 17,3527           55420                           TS       ZSM        +4
000987: 17,3530           40000                           COM
000988: 17,3531           55410                           TS       YSM        +2
000989: 17,3532           03352                           TC       NGUBGH
000990:
000991: 17,3533           47635        POSN13             CS       HALF                                  #  X UP, Y EAST, Z SOUTH
000992: 17,3534           55416                           TS       ZSM        +2
000993: 17,3535           40000                           COM
000994: 17,3536           55400                           TS       XSM
000995: 17,3537           55412                           TS       YSM        +4
000996: 17,3540           03352                           TC       NGUBGH
000997:
000998: 17,3541           47635        POSN14             CS       HALF                                  #  X EAST, Y DOWN, Z SOUTH
000999: 17,3542           55406                           TS       YSM
001000: 17,3543           55416                           TS       ZSM        +2
001001: 17,3544           40000                           COM
001002: 17,3545           55404                           TS       XSM        +4
001003: 17,3546           03430                           TC       NGFLAG
001004:
001005: 17,3547           47635        POSN15             CS       HALF                                  #  X NORTH, Y UP, Z WEST
001006: 17,3550           55420                           TS       ZSM        +4
001007: 17,3551           40000                           COM
001008: 17,3552           55406                           TS       YSM
001009: 17,3553           55402                           TS       XSM        +2
001010: 17,3554           03430                           TC       NGFLAG
001011:
001012: 17,3555           47635        POSN16             CS       HALF                                  #  X WEST, Y NORTH, Z UP
001013: 17,3556           55404                           TS       XSM        +4
001014: 17,3557           40000                           COM
001015: 17,3560           55410                           TS       YSM        +2
001016: 17,3561           55414                           TS       ZSM
001017: 17,3562           03410                           TC       NSFLAG
001018:
001019: 17,3563           30336        SHOWLD             CA       DSPTEM2
001020: 17,3564           55527                           TS       LENGTHOT
001021: 17,3565           30337                           CA       DSPTEM2    +1
001022: 17,3566           55536                           TS       NBPOS
001023: 17,3567           30340                           CA       DSPTEM2    +2
001024:
001025: 17,3570           55544                           TS       POSITON
001026: 17,3571           00002                           TC       Q
001027:
001028: 17,3572           00006        SHOW               EXTEND
001029: 17,3573           23546                           QXCH     QPLACE
001030: 17,3574           31544        SHOW1              CA       POSITON
001031: 17,3575           54340                           TS       DSPTEM2    +2
001032: 17,3576           33630                           CA       VB06N66
001033: 17,3577           05563                           TC       NVSBWAIT
001034: 17,3600           05525                           TC       FLASHON
001035: 17,3601           04724                           TC       ENDIDLE
001036: 17,3602           03730                           TC       FINISH
001037: 17,3603           01546                           TC       QPLACE
001038: 17,3604           03563                           TC       SHOWLD
001039: 17,3605           13574                           TCF      SHOW1
001040:
001041:
001042:
001043: 17,3606           00006        LOADGTSM           EXTEND                                         #  THIS LOADS XSM INTO GEOMATRX
001044: 17,3607           23546                           QXCH     QPLACE
001045: 17,3610           06000                           TC       INTPRET
001046: 17,3611           77775                           VLOAD
001047: 17,3612           01401                                    XSM
001048: 17,3613           23001                           STOVL    GEOMTRX
001049: 17,3614           01407                                    YSM
001050: 17,3615           23007                           STOVL    GEOMTRX    +6
001051: 17,3616           01415                                    ZSM
001052: 17,3617           01015                           STORE    GEOMTRX    +12D
001053: 17,3620           77776                           EXIT
001054: 17,3621           01546                           TC       QPLACE
001055:
001056: 17,3622                        14C                EQUALS   0014
001057: 17,3622           02130        V21N30E            OCT      02130
001058: 17,3623           04000        DESANGLE           DEC      2048       B-14
001059: 17,3624           04143        SFCONST            DEC      .13107
001060: 17,3625           34000        SIZCHK             OCT      34000
001061: 17,3626           00264        180DEC             DEC      180        B-14
001062: 17,3627           07636        3998DEC            DEC      3998       B-14
001063: 17,3630           00666        VB06N66            OCT      00666
001064: 17,3631           01604        TESTTIME           DEC      900        B-14
001065: 17,3632           01620        V16N20S            OCT      01620
001066: 17,3633           01640        V16N40S            OCT      01640
001067: 17,3634           00021        DEC17              DEC      17         B-14
001068: 17,3635           02222 00000  DEC585             2DEC     585        B+15
001069: 17,3637           00400        DELYOFF            OCT      00400
001070: 17,3640           00024 35474  ERUNITS            2DEC     342844     B-28
001071: 17,3642           01506        GENPLAD            GENADR   AZIMUTH
001072: 17,3643           02521        GYRODPL            ECADR    GYROD
001073: 17,3644           02500        OGCPL              ECADR    OGC
001074: 17,3645           77774        LOWTWO             OCT      77774
001075: 17,3646           00022        DEC18              DEC      18         B-14
001076: 17,3647           10000        45DEG              OCT      10000
001077: 17,3650           13241        ROOT1/2            DEC      .353553
001078: 17,3651           10000        ROOT1SQ            DEC      .250000
001079: 17,3652           15520        ROOT2SQ            DEC      .426776
001080: 17,3653           02260        ROOT3SQ            DEC      .073223
001081: 17,3654           01400        XSMADR             GENADR   XSM
001082:
001083: 17,3655           00000 00000  SCNBAZ             2DEC     0          B-28
001084: 17,3657           00000 00000                     2DEC     0          B-28
001085: 17,3661           20000 00000                     2DEC     .50
001086:
001087: 17,3663           10555 26067  LABNBAZ            2DEC     .27232
001088: 17,3665           00000 00000                     2DEC     0          B-28
001089: 17,3667           15327 37747                     2DEC     .4194335
001090:
001091: 17,3671           20000 00000  SCNBVER            2DEC     .5
001092: 17,3673           00000 00000                     2DEC     0          B-28
001093: 17,3675           00000 00000                     2DEC     0          B-28
001094:
001095: 17,3677           15327 37747  LABNBVER           2DEC     .4194335
001096: 17,3701           00000 00000                     2DEC     0          B-28
001097: 17,3703           67222 51710                     2DEC     -.27232
001098:
001099: 17,3705           00015        DEC13              DEC      13         B-14
001100:


001103: 17,3706           37640        U17,3706           CAF      BIT11
001104: 17,3707           54003                           TS       EBANK
001105: 17,3710           51400                           INDEX    QCSI
001106: 17,3711           01400                           TC       QCSI
001107:
001108: 17,3712           37640        U17,3712           CAF      BIT11
001109: 17,3713           67642                           AD       BIT9
001110: 17,3714           54003                           TS       EBANK
001111: 17,3715           51567                           INDEX    GENPL
001112: 17,3716           01567                           TC       GENPL
001113:
001114: 17,3717           04517        VALMIS             TC       PHASCHNG
001115: 17,3720           00000                           OCT      00000
001116: 17,3721           31633                           CA       DRIFTO
001117: 17,3722           54337                           TS       DSPTEM2    +1
001118: 17,3723           30032                           CA       CDUX                                  #  STORE OG ANGLE FOR LAB CALC OF DRIFT**
001119: 17,3724           55531                           TS       LOSVEC     +1
001120: 17,3725           37657                           CA       ZERO
001121: 17,3726           54336                           TS       DSPTEM2
001122: 17,3727           03572                           TC       SHOW
001123:
001124:
001125:
001126: 17,3730           37652        FINISH             CA       ONE
001127: 17,3731           61544                           AD       POSITON
001128: 17,3732           54340                           TS       DSPTEM2    +2
001129: 17,3733           37651                           CA       TWO
001130: 17,3734           55546                           TS       QPLACE
001131: 17,3735           04064                           TC       BANKCALL
001132: 17,3736           22336                           CADR     TSELECT    -6
001133: 17,3737           04064        ENDTEST1           TC       BANKCALL
001134: 17,3740           14756                           CADR     ENDTEST
001135:
001136: 17,3741           37657        GUDENT1            CA       ZERO
001137: 17,3742           55712                           TS       SINGAZ
001138: 17,3743           55713                           TS       SINGAZ     +1
001139: 17,3744           55715                           TS       COSGAZ     +1
001140: 17,3745           37635                           CAF      HALF
001141: 17,3746           55714                           TS       COSGAZ
001142: 17,3747           12416                           TCF      GUDENTRY
001143:
001144: 17,3750                        ENDIMUS2           =

End of include-file IMU_PERFORMANCE_TESTS_2.agc.  Parent file is MAIN.agc


