
Source Code


000002:                                                                                                  ## Copyright:   Public domain.
000003:                                                                                                  ## Filename:    IMU_PERFORMANCE_TESTS_1.agc
000004:                                                                                                  ## Purpose:     A section of Sundial E.
000005:                                                                                                  ##              It is part of the reconstructed source code for the final
000006:                                                                                                  ##              release of the Block II Command Module system test software. No
000007:                                                                                                  ##              original listings of this program are available; instead, this
000008:                                                                                                  ##              file was created via disassembly of dumps of Sundial core rope
000009:                                                                                                  ##              modules and comparison with other AGC programs.
000010:                                                                                                  ## Assembler:   yaYUL
000011:                                                                                                  ## Contact:     Ron Burkey <info@sandroid.org>.
000012:                                                                                                  ## Website:     www.ibiblio.org/apollo/index.html
000013:                                                                                                  ## Mod history: 2023-06-22 MAS  Created from Aurora 12.
000014:                                                                                                  ##              2023-06-30 MAS  Updated for Sundial E.
000015:
000016:
000017: 06,2000                                           BANK     6
000018: 06,2000  E5,1400                                  EBANK=   XSM
000019:
000020:
000021:
000022: 06,2000           37652        SXTNBIMU           CAF      ONE                                   #  SXT-NB-IMU FINE ALIGNMENT TEST
000023: 06,2001           55512                           TS       EROPTN                                #  ... TEST CAPABILITY ...
000024:
000025: 06,2002           04064                           TC       BANKCALL
000026: 06,2003           26000                           CADR     IMUZERO                               #  IMU ZERO ENCODER MODE
000027: 06,2004           06000                           TC       INTPRET
000028: 06,2005           77634                           CALL
000029: 06,2006           14541                                    LATAZCHK                              #  TO LOAD AZIMUTH (SM) AND LATITUDE
000030: 06,2007           77634                           CALL
000031: 06,2010           14273                                    MAKEXSMD                              #  TO SET UP A STABLE MEMBER DESIRED MATRIX
000032: 06,2011           47014                           SET      CALL
000033: 06,2012           00065                                    COAROFIN                              #  FOR COARSE OR FINE ALIGN MARKS
000034: 06,2013           14416                                    ERTHRVSE                              #  TO CALCULATE EARTH RATE VECTOR
000035: 06,2014           77776                           EXIT
000036:
000037: 06,2015           33430        POSLOAD            CAF      V25N30E                               #  R1  0000X ENTER     POSITION 1,2, OR 3
000038: 06,2016           05563                           TC       NVSBWAIT                              #  R2  00000 ENTER     00001 FOR LAB OPTION
000039: 06,2017           04724                           TC       ENDIDLE                               #  R3  0000X ENTER     00001 TO DRIVE SXT
000040: 06,2020           12756                           TCF      ENDTEST
000041: 06,2021           12015                           TCF      -4
000042: 06,2022           56333                           XCH      DSPTEM1                               #  DO NOT USE POSITION 3 WITH NAV BASE AT
000043: 06,2023           55544                           TS       POSITON                               #     ZERO DEGREE TILT ANGLE. (GIMBAL LOCK)
000044:
000045: 06,2024           10334                           CCS      DSPTEM1    +1
000046: 06,2025           12767                           TCF      CSMLAB                                #  SPECIAL LAB TEST TO BYPASS MARKS
000047:
000048: 06,2026           30335                           CA       DSPTEM1    +2
000049: 06,2027           55530                           TS       SXTOPTN
000050: 06,2030           10000                           CCS      A
000051: 06,2031           03071                           TC       OPTNB
000052:
000053: 06,2032           02607                           TC       POSNJUMP                              #  SET UP STABLE MEMBER DESIRED COORDINATES
000054:
000055: 06,2033           02512                           TC       OPTDATA                               #  TARGETS 1,2 AZIMUTH AND ELEVATION
000056:
000057: 06,2034           02133                           TC       FINDNAVB                              #  COARSE ALIGN MARKS
000058:
000059: 06,2035           04064                           TC       BANKCALL
000060: 06,2036           26730                           CADR     IMUSTALL                              #  INSURE IMUZERO COMPLETION
000061: 06,2037           12756                           TCF      ENDTEST
000062:
000063: 06,2040           02257                           TC       PUTPOSX                               #  TO COARSE ALIGN STABLE MEMBER
000064:
000065: 06,2041           02750                           TC       GMLCKCHK                              #  CHECK FOR GIMBAL LOCK BEFORE FINE ALIGN
000066: 06,2042           02740                           TC       OGCZERO                               #  FOR EARTH RATE COMPENSATION
000067:
000068: 06,2043           04064                           TC       BANKCALL
000069: 06,2044           26227                           CADR     IMUFINE                               #  FINE ALIGN MODE
000070: 06,2045           04064                           TC       BANKCALL
000071: 06,2046           26730                           CADR     IMUSTALL
000072: 06,2047           12756                           TCF      ENDTEST
000073:
000074: 06,2050           02133                           TC       FINDNAVB                              #  FINE ALIGN MARKS
000075:
000076: 06,2051           05632                           TC       FREEDSP                               #  FREE DISPLAY SYSTEM
000077:
000078: 06,2052           02316                           TC       SMDCALC                               #  TO FINE ALIGN STABLE MEMBER
000079:
000080: 06,2053           04064        ERFINAL            TC       BANKCALL                              #  LAST EARTH RATE SHOT
000081: 06,2054           14433                           CADR     EARTHR
000082: 06,2055           11512                           CCS      EROPTN                                #  IF DESIRED TO COMPENSATE CONTINUALLY
000083: 06,2056           12063                           TCF      MONSTART                              #      CHANGE BY V21 N02 E XXXXX E 00000 E
000084: 06,2057           12053                           TCF      ERFINAL
000085: 06,2060           12756                           TCF      ENDTEST
000086: 06,2061           55512                           TS       EROPTN
000087: 06,2062           02053                           TC       ERFINAL
000088:
000089: 06,2063           05721        MONSTART           TC       FINETIME                              #  TIME AT INITIAL MISALIGNMENT
000090: 06,2064           52141                           DXCH     MPAC
000091: 06,2065           00003                           RELINT
000092: 06,2066           37657                           CAF      ZERO                                  #  ZERO PIPA COUNTERS
000093: 06,2067           54037                           TS       PIPAX
000094: 06,2070           54040                           TS       PIPAY
000095: 06,2071           54041                           TS       PIPAZ
000096: 06,2072           55551                           TS       STOREPL
000097: 06,2073           55537                           TS       NDXCTR
000098: 06,2074           02465                           TC       STORRSLT                              #  STORE T(INITIAL) AND PIPAI = 0
000099:
000100: 06,2075           00004                           INHINT
000101: 06,2076           33441                           CAF      60SEC                                 #  INSURE PIPAI VARIES IN ONE DIRECTION
000102: 06,2077           04451                           TC       WAITLIST
000103: 06,2100           02104 14005                     2CADR    PIP1
000104:
000105: 06,2102           32132                           CAF      PIP2ADR
000106: 06,2103           04331                           TC       JOBSLEEP
000107:
000108: 06,2104           32132        PIP1               CAF      PIP2ADR
000109: 06,2105           04335                           TC       JOBWAKE
000110: 06,2106           04505                           TC       TASKOVER
000111:
000112: 06,2107           31542        PIP2               CAE      PIPNDX
000113: 06,2110           55541                           TS       PIPINDEX                              #  POS1 PIPAY     POS2 PIPAX     POS3 PIPAX
000114: 06,2111           04064                           TC       BANKCALL
000115: 06,2112           36715                           CADR     CHECKG                                #  SYNC ON PIPA PULSE
000116:
000117: 06,2113           00003                           RELINT
000118:
000119: 06,2114           02465                           TC       STORRSLT                              #  STORE TIME AND PIPAI
000120:
000121: 06,2115           31543                           CAE      PIPNDX     +1
000122: 06,2116           55541                           TS       PIPINDEX                              #  POS1 PIPAZ    POS2 PIPAY    POS3 PIPAZ
000123: 06,2117           04064                           TC       BANKCALL
000124: 06,2120           36715                           CADR     CHECKG                                #  SYNC ON PIPA PULSE
000125:
000126: 06,2121           00003                           RELINT
000127: 06,2122           02465                           TC       STORRSLT                              #  STORE TIME AND PIPAI
000128:
000129: 06,2123           00004                           INHINT
000130: 06,2124           33440                           CAF      30SEC                                 #  MONITOR PIPAS AT 30 SECOND INTERVALS
000131: 06,2125           04451                           TC       WAITLIST
000132: 06,2126           02104 14005                     2CADR    PIP1
000133: 06,2130           32132                           CAF      PIP2ADR
000134: 06,2131           04331                           TC       JOBSLEEP
000135: 06,2132           14107        PIP2ADR            CADR     PIP2
000136:
000137: 06,2133           00006        FINDNAVB           EXTEND                                         #  MARKS * CALC NB OR SM WRT EARTH REF
000138: 06,2134           23546                           QXCH     QPLACE
000139:
000140: 06,2135           04064                           TC       BANKCALL
000141: 06,2136           27033                           CADR     MKRELEAS                              #  RELEASE MARK SYSTEM
000142: 06,2137           37652                           CAF      ONE
000143: 06,2140           54333                           TS       DSPTEM1
000144: 06,2141           33424                           CAF      V01N30E                               #  DISPLAY 00001 IN R1
000145: 06,2142           05563                           TC       NVSBWAIT
000146: 06,2143           31530                           CA       SXTOPTN
000147: 06,2144           00006                           EXTEND
000148: 06,2145           12150                           BZF      +3
000149: 06,2146           37657                           CAF      ZERO
000150: 06,2147           03112                           TC       TARGDRVE
000151: 06,2150           37652                           CAF      ONE                                   #  TO INDICATE GROUND MARKS
000152: 06,2151           04064                           TC       BANKCALL
000153: 06,2152           26765                           CADR     SXTMARK                               #  MARK ON TARGET 1
000154:
000155: 06,2153           04064                           TC       BANKCALL
000156: 06,2154           26726                           CADR     OPTSTALL                              #  INSURE SUCCESSFUL MARK
000157: 06,2155           12756                           TCF      ENDTEST
000158: 06,2156           00006                           EXTEND
000159: 06,2157           50365                           INDEX    MARKSTAT
000160: 06,2160           30001                           DCA      0
000161: 06,2161           53565                           DXCH     TMARK                                 #  TIME(PRES) FOR EARTH RATE COMPENSATION
000162:
000163: 06,2162           02252                           TC       GIMANGS1
000164:
000165: 06,2163           06000                           TC       INTPRET
000166: 06,2164           47140                           LXC,1    CALL
000167: 06,2165           00365                                    MARKSTAT                              #  BASE ADDRESS VAC AREA FOR SXTNB
000168: 06,2166           16310                                    SXTNB                                 #  OPTICS TO NAV BASE COORDINATE FRAME
000169: 06,2167           47014                           BON      CALL
000170: 06,2170           00305                                    COAROFIN                              #  COARSE MARKS = 0    FINE MARKS = 1
000171: 06,2171           14173                                    +2
000172: 06,2172           16130                                    NBSM                                  #  NAV BASE DIRECT TO STABLE MEMBER
000173: 06,2173           01445                           STORE    STARAD                                #  TARGET 1 WRT NAV BASE OR STABLE MEMBER
000174: 06,2174           01600                           STORE    LOS1                                  #  ...FOR K...
000175: 06,2175           77776                           EXIT
000176:
000177: 06,2176           04064                           TC       BANKCALL
000178: 06,2177           27033                           CADR     MKRELEAS                              #  RELEASE MARK SYSTEM
000179: 06,2200           37651                           CAF      TWO
000180: 06,2201           54333                           TS       DSPTEM1
000181: 06,2202           33424                           CAF      V01N30E                               #  DISPLAY 00002 IN R1
000182: 06,2203           05563                           TC       NVSBWAIT
000183: 06,2204           31530                           CA       SXTOPTN
000184: 06,2205           00006                           EXTEND
000185: 06,2206           12211                           BZF      +3
000186: 06,2207           36162                           CAF      SIX
000187: 06,2210           03112                           TC       TARGDRVE
000188: 06,2211           37652                           CAF      ONE                                   #  TO INDICATE GROUND MARKS
000189: 06,2212           04064                           TC       BANKCALL
000190: 06,2213           26765                           CADR     SXTMARK                               #  MARK ON TARGET 2
000191:
000192: 06,2214           37641                           CAF      BIT10
000193: 06,2215           70061                           MASK     STATE                                 #  BIT10 = COAROFIN
000194: 06,2216           10000                           CCS      A
000195: 06,2217           12225                           TCF      EARRTCOM   +5                         #  IF COARSE ALIGN MARKS
000196:
000197: 06,2220           04064        EARRTCOM           TC       BANKCALL                              #  EARTH RATE COMPENSATION BETWEEN MARKS
000198: 06,2221           14433                           CADR     EARTHR
000199: 06,2222           10364                           CCS      OPTCADR                               #  +0 IF MARK BUTTON NOT DEPRESSED
000200: 06,2223           12226                           TCF      +3
000201: 06,2224           12220                           TCF      EARRTCOM                              #  CONTINUE TO COMPENSATE FOR EARTH RATE
000202: 06,2225           12226                           TCF      +1
000203: 06,2226           04064                           TC       BANKCALL
000204: 06,2227           26726                           CADR     OPTSTALL                              #  INSURE SUCCESSFUL MARK
000205: 06,2230           12756                           TCF      ENDTEST
000206:
000207: 06,2231           02252                           TC       GIMANGS1
000208:
000209: 06,2232           06000                           TC       INTPRET
000210: 06,2233           47140                           LXC,1    CALL
000211: 06,2234           00365                                    MARKSTAT                              #  BASE ADDRESS VAC AREA FOR SXTNB
000212: 06,2235           16310                                    SXTNB                                 #  OPTICS TO NAV BASE COORDINATE FRAME
000213: 06,2236           47014                           BONCLR   CALL                                  #  SET TO ZERO FOR FINE ALIGN MARKS
000214: 06,2237           00205                                    COAROFIN                              #  COARSE MARKS = 0    FINE MARKS = 1
000215: 06,2240           14242                                    +2
000216: 06,2241           16130                                    NBSM                                  #  NAV BASE DIRECT TO STABLE MEMBER
000217: 06,2242           01453                           STORE    STARAD     +6                         #  TARGET 2 WRT NAV BASE OR STABLE MEMBER
000218: 06,2243           01606                           STORE    LOS2                                  #  ...FOR K...
000219:
000220: 06,2244           77634        MAXDET             CALL
000221: 06,2245           14360                                    TAR/EREF                              #  TARGETS 1,2 WRT EARTH REF FRAME
000222: 06,2246           77634                           CALL
000223: 06,2247           16344                                    AXISGEN                               #  NAV BASE OR SM WRT EARTH REF FRAME
000224: 06,2250           77776                           EXIT
000225: 06,2251           01546                           TC       QPLACE
000226:
000227:
000228:
000229: 06,2252           37651        GIMANGS1           CAF      TWO                                   #  BASE ADDRESS GIMBAL ANGLES FOR NBSM
000230: 06,2253           60365                           AD       MARKSTAT
000231: 06,2254           50104                           INDEX    FIXLOC
000232: 06,2255           54050                           TS       S1
000233: 06,2256           00002                           TC       Q
000234:
000235: 06,2257           00006        PUTPOSX            EXTEND                                         #  COARSE ALIGNS STABLE MEMBER
000236: 06,2260           23546                           QXCH     QPLACE
000237:
000238: 06,2261           06000                           TC       INTPRET
000239: 06,2262           77634                           CALL
000240: 06,2263           16226                                    CALCGA                                #  CALCULATE COARSE ALIGN GIMBAL ANGLES
000241: 06,2264           77776                           EXIT
000242:
000243: 06,2265           04064                           TC       BANKCALL
000244: 06,2266           26055                           CADR     IMUCOARS                              #  COARSE ALIGN MODE
000245: 06,2267           04064                           TC       BANKCALL
000246: 06,2270           26730                           CADR     IMUSTALL
000247: 06,2271           12756                           TCF      ENDTEST
000248: 06,2272           01546                           TC       QPLACE
000249:
000250:
000251:
000252: 06,2273           77776        MAKEXSMD           EXIT                                           #  XSM V   YSM SW   ZSM SE
000253: 06,2274           33433                           CAF      17DEC                                 #  ZERO XSM, YSM, AND ZSM
000254: 06,2275           55753                           TS       ZERONDX
000255: 06,2276           33450                           CAF      XSMADRX
000256: 06,2277           04064                           TC       BANKCALL
000257: 06,2300           37155                           CADR     ZEROING                               #          VERT       SOUTH      EAST
000258:
000259: 06,2301           37635                           CAF      HALF                                  #  XSM    * +1          0          0     *
000260: 06,2302           55400                           TS       XSM                                   #         *                              *
000261: 06,2303           06000                           TC       INTPRET                               #         *                              *
000262: 06,2304           73545                           DLOAD    SIN                                   #  YSM    *  0      +SIN(AZ)    +COS(AZ) *
000263: 06,2305           01507                                    AZIMUTH                               #         *                              *
000264: 06,2306           01411                           STORE    XSM        +8D                        #         *                              *
000265: 06,2307           07421                           STODL    XSM        +16D                       #  ZSM    *  0      -COS(AZ)    +SIN(AZ) *
000266: 06,2310           01507                                    AZIMUTH
000267: 06,2311           77746                           COS
000268: 06,2312           01413                           STORE    XSM        +10D
000269: 06,2313           77676                           DCOMP
000270: 06,2314           01417                           STORE    XSM        +14D
000271: 06,2315           77616                           RVQ
000272:
000273:
000274:
000275: 06,2316           00006        SMDCALC            EXTEND                                         #  FINE ALIGNS STABLE MEMBER
000276: 06,2317           23546                           QXCH     QPLACE
000277:
000278: 06,2320           06000                           TC       INTPRET
000279: 06,2321           64375                           VLOAD    MXV
000280: 06,2322           01401                                    XSM                                   #  XSM DESIRED WRT EARTH REF FRAME
000281: 06,2323           01445                                    STARAD                                #  THEN TO SM PRESENT OR NAV BASE FRAME
000282: 06,2324           43172                           VSL1     BOFF
000283: 06,2325           00345                                    COAROFIN                              #  BIT10 FOR CSMLAB TEST
000284: 06,2326           14331                                    +3
000285: 06,2327           36041                           STCALL   32D
000286: 06,2330           16130                                    NBSM                                  #  THEN TO SM PRESENT FRAME
000287: 06,2331           23423                           STOVL    XDC
000288: 06,2332           01407                                    YSM                                   #  YSM DESIRED WRT EARTH REF FRAME
000289:
000290: 06,2333           76521                           MXV      VSL1
000291: 06,2334           01445                                    STARAD                                #  THEN TO SM PRESENT OR NAV BASE FRAME
000292: 06,2335           77614                           BOFF
000293: 06,2336           00345                                    COAROFIN                              #  BIT10 FOR CSMLAB TEST
000294: 06,2337           14342                                    +3
000295: 06,2340           36041                           STCALL   32D
000296: 06,2341           16130                                    NBSM                                  #  THEN TO SM PRESENT FRAME
000297: 06,2342           23431                           STOVL    YDC
000298: 06,2343           01423                                    XDC
000299:
000300: 06,2344           76435                           VXV      VSL1
000301: 06,2345           01431                                    YDC
000302: 06,2346           37437                           STCALL   ZDC                                   #  ZSM DESIRED WRT SM PRESENT FRAME
000303: 06,2347           16000                                    CALCGTA                               #  CALCULATE FINE ALIGN TORQUING ANGLES
000304:
000305: 06,2350           45170                           AXT,1    RTB
000306:
000307: 06,2351           02500                           ECADR    OGC                                   #  X1 = BASE ADDRESS OF TORQUING ANGLES
000308: 06,2352           11707                                    PULSEIMU                              #  TO PUT OUT GYRO TORQUING PULSES
000309: 06,2353           77776                           EXIT
000310:
000311: 06,2354           04064                           TC       BANKCALL
000312: 06,2355           26730                           CADR     IMUSTALL                              #  WAIT FOR PULSES TO GET OUT
000313: 06,2356           12756                           TCF      ENDTEST
000314: 06,2357           01546                           TC       QPLACE
000315:
000316: 06,2360           77170        TAR/EREF           AXT,1    AXT,2                                 #                TARGET VECTOR
000317: 06,2361           00002                                    2                                     #  SIN(EL)  -COS(AZ)COS(EL)  SIN(AZ)COS(EL)
000318: 06,2362           00014                                    12D
000319: 06,2363           40331                           SSP      SETPD
000320: 06,2364           00052                                    S2
000321: 06,2365           00006                                    6                                     #  TARGET 1                        TARGET 2
000322: 06,2366           00001                                    0
000323:
000324: 06,2367           60533        TAR1               SLOAD*   SR2                                   #  X1=2  X2=12  S2=6 . X1=0  X2=6  S2=6
000325: 06,2370           01557                                    TAZEL1     +3,1
000326: 06,2371           00001                           STORE    0                                     #  PD00           ELEVATION            PD00
000327: 06,2372           77756                           SIN
000328: 06,2373           12023                           STODL    18D,2                                 #  PD06  ***       SIN(EL)        ***  PD12
000329:
000330: 06,2374           00001                                    0
000331: 06,2375           41546                           COS      PUSH                                  #  PDOO            COS(EL)             PD00
000332: 06,2376           45133                           SLOAD*   RTB
000333: 06,2377           01556                                    TAZEL1     +2,1
000334: 06,2400           11537                                    CDULOGIC
000335: 06,2401           00003                           STORE    2                                     #  PD02            AZIMUTH             PD02
000336: 06,2402           41356                           SIN      DMP
000337: 06,2403           00001                                    0
000338: 06,2404           77752                           SL1
000339: 06,2405           12027                           STODL    22D,2                                 #  PD10  ***   +SIN(AZ)COS(EL)    ***  PD16
000340:
000341: 06,2406           00003                                    2
000342: 06,2407           41346                           COS      DMP
000343: 06,2410           57552                           SL1      DCOMP
000344: 06,2411           04025                           STORE    20D,2                                 #  PD08  ***   -COS(AZ)COS(EL)    ***  PD14
000345:
000346: 06,2412           61170                           AXT,1    TIX,2
000347: 06,2413           00000                                    0
000348: 06,2414           14367                                    TAR1
000349: 06,2415           77616                           RVQ
000350:
000351: 06,2416           65345        ERTHRVSE           DLOAD    PDDL
000352: 06,2417           16711                                    ZERODP                                #  PD24 = (SIN -COS  0)(OMEG/MS)
000353: 06,2420           01511                                    LATITUDE
000354: 06,2421           57546                           COS      DCOMP
000355: 06,2422           73525                           PDDL     SIN
000356: 06,2423           01511                                    LATITUDE                              #  EARTH RATE = .1504 ARCSEC / 10 MSEC
000357: 06,2424           74266                           VDEF     VXSC                                  #  1.618 GYRO PULSES = 1 ARCSEC
000358: 06,2425           15454                                    OMEG/MS                               #  OMEG/MS = .243... GYRO PULSES / 10 MSEC
000359: 06,2426           01514                           STORE    ERVECTOR
000360:
000361: 06,2427           77624                           RTB
000362: 06,2430           11534                                    LOADTIME
000363: 06,2431           01565                           STORE    TMARK                                 #  TIME FOR GYRO DRIFT - PIPA SCALE FACTOR
000364: 06,2432           77616                           RVQ
000365:
000366:
000367:
000368:
000369:
000370: 06,2433           04113        EARTHR             TC       MAKECADR                              #  CLACULATES AND COMPENSATES EARTH RATE
000371: 06,2434           55547                           TS       QPLACES
000372:
000373: 06,2435           06000                           TC       INTPRET
000374: 06,2436           77624                           RTB
000375: 06,2437           11534                                    LOADTIME                              #  T(PRESENT)
000376: 06,2440           01562                           STORE    TEMPTIME
000377: 06,2441           54225                           DSU      SL
000378: 06,2442           01565                                    TMARK                                 #  T(PRES) - T(PREV) = DT    SCALED 10 MSEC
000379: 06,2443           00212                                    9D                                    #  2 TO 21ST POWER = 1 REVOLUTION
000380: 06,2444           64361                           VXSC     MXV
000381: 06,2445           01514                                    ERVECTOR                              #  VT = (SIN  -COS  0)(OMEG/MS)(DT)
000382: 06,2446           01401                                    XSM                                   #  (XSM)(VT) = EARTH RATE COMPENSATION
000383: 06,2447           77655                           VAD
000384: 06,2450           00406                                    ERCOMP
000385: 06,2451           06406                           STODL    ERCOMP
000386: 06,2452           01562                                    TEMPTIME
000387: 06,2453           01565                           STORE    TMARK                                 #  T(PREVIOUS)
000388:
000389: 06,2454           45170                           AXT,1    RTB
000390: 06,2455           00405                           ECADR    ERCOMP
000391: 06,2456           11707                                    PULSEIMU                              #  TO PUT OUT GYRO TORQUING PULSES
000392: 06,2457           77776                           EXIT
000393:
000394: 06,2460           04064                           TC       BANKCALL
000395: 06,2461           26730                           CADR     IMUSTALL                              #  WAIT FOR PULSES TO GET OUT
000396: 06,2462           12756                           TCF      ENDTEST
000397: 06,2463           31547                           CAE      QPLACES
000398: 06,2464           14106                           TCF      BANKJUMP
000399:
000400: 06,2465           00006        STORRSLT           EXTEND
000401: 06,2466           23546                           QXCH     QPLACE
000402:
000403: 06,2467           06000                           TC       INTPRET                               #  DP TIME IN MPAC SCALED .312(5) MSEC
000404: 06,2470           54340                           LXC,1    SL
000405: 06,2471           01537                                    NDXCTR
000406: 06,2472           00204                                    3
000407: 06,2473           45005                           DMP      RTB
000408: 06,2474           15452                                    SCALFTR
000409: 06,2475           11600                                    SGNAGREE
000410: 06,2476           03570                           STORE    GENPL,1                               #  STORE DP TIME
000411: 06,2477           77776                           EXIT
000412:
000413: 06,2500           57551                           XCH      STOREPL                               #  CONTAINS C(PIPAI)
000414: 06,2501           51537                           INDEX    NDXCTR
000415: 06,2502           55571                           TS       GENPL      +2                         #  STORE PIPA COUNTER READING
000416: 06,2503           41537                           CS       NDXCTR
000417: 06,2504           63437                           AD       72DEC
000418: 06,2505           00006                           EXTEND
000419: 06,2506           63135                           BZMF     MISALIGN                              #  TO CALCULATE MISALIGNMENT
000420: 06,2507           36165                           CAF      THREE
000421: 06,2510           27537                           ADS      NDXCTR
000422: 06,2511           01546                           TC       QPLACE
000423:
000424: 06,2512           00006        OPTDATA            EXTEND                                         #  CALLS FOR AZIMUTH AND ELEVATION OF
000425: 06,2513           23546                           QXCH     QPLACE                                #     TARGET 1, THEN TARGET 2
000426:
000427: 06,2514           37652                           CAF      BIT1                                  #  AZIMUTH CLOCKWISE FROM NORTH TO TARGET
000428: 06,2515           22007                           ZL                                             #  ELEVATION MEASURED FROM HORIZONTAL
000429: 06,2516           23550                           LXCH     RUN
000430: 06,2517           54335                           TS       DSPTEM1    +2
000431: 06,2520           33425                           CAF      V05N30E                               #  DISPLAY TARGET NUMBER IN R3
000432: 06,2521           05563                           TC       NVSBWAIT
000433: 06,2522           51550                           INDEX    RUN
000434: 06,2523           53554                           DXCH     TAZEL1
000435: 06,2524           52334                           DXCH     DSPTEM1
000436:
000437: 06,2525           02565                           TC       CHECKLD                               #  R1  +- XXX.XX    AZIMUTH IN DEGREES
000438: 06,2526           00661                           OCT      00661                                 #  R2  +- XX.XXX    ELEVATION IN DEGREES
000439: 06,2527           12756                           TCF      ENDTEST                               #  R3      0000X    TARGET NUMBER 1 OR 2
000440:
000441: 06,2530           52334                           DXCH     DSPTEM1                               #  TAZEL1        TARGET 1 AZIMUTH
000442: 06,2531           51550                           INDEX    RUN
000443: 06,2532           53554                           DXCH     TAZEL1                                #  TAZEL1 +2     TARGET 2 AZIMUTH
000444: 06,2533           11550                           CCS      RUN
000445: 06,2534           12540                           TCF      +4
000446: 06,2535           37651                           CAF      TWO
000447: 06,2536           54001                           TS       L
000448: 06,2537           12516                           TCF      OPTDATA    +4                         #  MPAC    1ST PASS = 0    2ND PASS = 2
000449: 06,2540           01546                           TC       QPLACE
000450:
000451: 06,2541           62545        LATAZCHK           DLOAD    SL2                                   #  CALLS FOR AZIMUTH (SM) AND LATITUDE
000452: 06,2542           01511                                    LATITUDE
000453: 06,2543           06335                           STODL    DSPTEM1    +1
000454: 06,2544           01507                                    AZIMUTH                               #  ...NOT REALLY...
000455:
000456: 06,2545           77424                           RTB      EXIT
000457: 06,2546           11602                                    1STO2S                                #  FRACTION OF REVOLUTION TO 2S COMPLEMENT
000458:
000459: 06,2547           56140                           XCH      MPAC                                  #  AZIMUTH MUST BE 135 DEGREES R1 = .13500
000460: 06,2550           54333                           TS       DSPTEM1                               #     FOR SXT-NB-IMU FINE ALIGNMENT TEST
000461: 06,2551           02565                           TC       CHECKLD                               #  R1  +- XXX.XX    AZIMUTH IN DEGREES (SM)
000462: 06,2552           00661                           OCT      00661                                 #  R2  +- XX.XXX    LATITUDE IN DEGREES
000463: 06,2553           12756                           TCF      ENDTEST                               #  R3               NOT USED
000464:
000465: 06,2554           06000                           TC       INTPRET
000466: 06,2555           45135                           SLOAD    RTB
000467: 06,2556           00334                                    DSPTEM1
000468: 06,2557           11537                                    CDULOGIC                              #  BACK TO FRACTION OF REVOLUTION
000469: 06,2560           01507                           STORE    AZIMUTH
000470:
000471: 06,2561           60535                           SLOAD    SR2
000472: 06,2562           00335                                    DSPTEM1    +1
000473: 06,2563           01511                           STORE    LATITUDE
000474: 06,2564           77616                           RVQ
000475:
000476:
000477: 06,2565           00006        CHECKLD            EXTEND
000478: 06,2566           23545                           QXCH     QPLAC
000479:
000480: 06,2567           51545                           INDEX    QPLAC
000481: 06,2570           30000                           CA       A
000482: 06,2571           04673                           TC       NVSUB
000483: 06,2572           12604                           TCF      CHECKLD1
000484:
000485: 06,2573           05525                           TC       FLASHON
000486:
000487: 06,2574           04724                           TC       ENDIDLE                               #  CHANGE R1  V21 N61 E  +- XXX.XX E
000488: 06,2575           12600                           TCF      +3                                    #  CHANGE R2  V22 N61 E  +- XX.XXX E
000489: 06,2576           12602                           TCF      +4                                    #  VERIFY, THEN PROCEED WITH VERB 33 ENTER
000490: 06,2577           12567                           TCF      CHECKLD    +2
000491: 06,2600           51545                           INDEX    QPLAC
000492: 06,2601           00001                           TC       1
000493: 06,2602           51545                           INDEX    QPLAC
000494: 06,2603           00002                           TC       2
000495:
000496: 06,2604           32606        CHECKLD1           CAF      CHECKLD2
000497: 06,2605           05560                           TC       NVSUBUSY
000498: 06,2606           14567        CHECKLD2           CADR     CHECKLD    +2
000499:
000500: 06,2607           00006        POSNJUMP           EXTEND                                         #  POSITIONS FOR SXTNBIMU
000501: 06,2610           23546                           QXCH     QPLACE
000502:
000503: 06,2611           51544                           INDEX    POSITON
000504: 06,2612           12613                           TCF      +1
000505: 06,2613           12756                           TCF      ENDTEST
000506: 06,2614           12621                           TCF      POS1
000507: 06,2615           12626                           TCF      POS2
000508: 06,2616           12644                           TCF      POS3
000509: 06,2617           12665                           TCF      POS4
000510: 06,2620           12717                           TCF      POS5
000511:
000512:
000513:
000514: 06,2621           37652        POS1               CAF      ONE                                   #  XSM = V    YSM = SW    ZSM = SE
000515: 06,2622           55542                           TS       PIPNDX
000516: 06,2623           37651                           CAF      TWO
000517: 06,2624           55543                           TS       PIPNDX     +1                         #  MONITOR PIPAY AND PIPAZ
000518: 06,2625           01546                           TC       QPLACE
000519:
000520:
000521:
000522: 06,2626           06000        POS2               TC       INTPRET                               #  XSM = SE   YSM = SW    ZSM = -V
000523: 06,2627           57575                           VLOAD    VCOMP
000524: 06,2630           01401                                    XSM
000525: 06,2631           77715                           PDVL
000526: 06,2632           01415                                    ZSM
000527: 06,2633           23401                           STOVL    XSM
000528: 06,2634           77626                           STADR
000529: 06,2635           76362                           STORE    ZSM
000530: 06,2636           77776                           EXIT
000531: 06,2637           37657                           CAF      ZERO
000532: 06,2640           55542                           TS       PIPNDX
000533: 06,2641           37652                           CAF      ONE
000534: 06,2642           55543                           TS       PIPNDX     +1                         #  MONITOR PIPAX AND PIPAY
000535: 06,2643           01546                           TC       QPLACE
000536:
000537:
000538:
000539: 06,2644           06000        POS3               TC       INTPRET                               #  XSM = SE    YSM = V    ZSM = SW
000540: 06,2645           63375                           VLOAD    PDVL
000541: 06,2646           01401                                    XSM
000542: 06,2647           01407                                    YSM
000543: 06,2650           77715                           PDVL
000544: 06,2651           01415                                    ZSM
000545: 06,2652           23401                           STOVL    XSM
000546:
000547: 06,2653           77626                           STADR
000548: 06,2654           54362                           STOVL    ZSM
000549:
000550: 06,2655           77626                           STADR
000551: 06,2656           76370                           STORE    YSM
000552: 06,2657           77776                           EXIT
000553: 06,2660           37657                           CAF      ZERO
000554: 06,2661           55542                           TS       PIPNDX
000555: 06,2662           37651                           CAF      TWO
000556: 06,2663           55543                           TS       PIPNDX     +1                         #  MONITOR PIPAX AND PIPAZ
000557: 06,2664           01546                           TC       QPLACE
000558:
000559:
000560:
000561: 06,2665           37646        POS4               CAF      BIT5                                  #  OPTION TO ALIGN SM TO SPECIFIED ANGLES
000562: 06,2666           60104                           AD       FIXLOC
000563: 06,2667           50104                           INDEX    FIXLOC
000564: 06,2670           54050                           TS       S1                                    #  BASE ADDRESS GIMBAL ANGLES
000565: 06,2671           33431                           CAF      V25N22E                               #  R1  +- XXX.XX   OUTER GIMBAL ANGLE
000566: 06,2672           05563                           TC       NVSBWAIT                              #  R2  +- XXX.XX   INNER GIMBAL ANGLE
000567: 06,2673           04724                           TC       ENDIDLE                               #  R3  +- XXX.XX   MIDDLE GIMBAL ANGLE
000568: 06,2674           12756                           TCF      ENDTEST
000569: 06,2675           12671                           TCF      -4
000570: 06,2676           30400                           CA       THETAD                                #  SET UP ANGLES FOR SMNB
000571: 06,2677           50104                           INDEX    FIXLOC
000572: 06,2700           54024                           TS       24
000573: 06,2701           30401                           CA       THETAD     +1
000574: 06,2702           50104                           INDEX    FIXLOC
000575: 06,2703           54020                           TS       20
000576: 06,2704           30402                           CA       THETAD     +2
000577: 06,2705           50104                           INDEX    FIXLOC
000578: 06,2706           54022                           TS       22
000579:
000580: 06,2707           06000                           TC       INTPRET
000581: 06,2710           47024                           RTB      CALL
000582: 06,2711           11734                                    TRANSPSE                              #  EARTH REF WRT NAV BASE
000583: 06,2712           16576                                    SMD/EREF                              #  STABLE MEMBER DESIRED WRT EARTH REF
000584: 06,2713           77624                           RTB
000585: 06,2714           11734                                    TRANSPSE                              #  BACK TO NAV BASE WRT TO EARTH REF
000586: 06,2715           77776                           EXIT
000587: 06,2716           01546                           TC       QPLACE
000588:
000589: 06,2717           31546        POS5               CA       QPLACE                                #  OPTION TO ALIGN SM TO ANY ORIENTATION
000590: 06,2720           55551                           TS       STOREPL                               #    WRT EARTH REFERENCE FRAME
000591:
000592: 06,2721           02512                           TC       OPTDATA                               #  LOAD YSM AND ZSM AZIMUTH AND ELEVATION
000593:
000594: 06,2722           06000                           TC       INTPRET
000595: 06,2723           77634                           CALL
000596: 06,2724           14360                                    TAR/EREF                              #  CALC YSM AND ZSM WRT EARTH REF. FRAME
000597: 06,2725           41575                           VLOAD    PUSH
000598: 06,2726           00007                                    6D
000599: 06,2727           01407                           STORE    YSM
000600: 06,2730           76435                           VXV      VSL1
000601: 06,2731           00015                                    12D
000602: 06,2732           01401                           STORE    XSM                                   #  XSM = (YSM) X (ZSM)
000603: 06,2733           76435                           VXV      VSL1
000604: 06,2734           77626                           STADR
000605: 06,2735           76362                           STORE    ZSM                                   #  ZSM = (XSM) X (YSM)
000606: 06,2736           77776                           EXIT
000607:
000608: 06,2737           01551                           TC       STOREPL
000609: 06,2740           00006        OGCZERO            EXTEND                                         #  ZERO EARTH RATE TORQUING ANGLES
000610: 06,2741           23546                           QXCH     QPLACE
000611:
000612: 06,2742           06000                           TC       INTPRET
000613: 06,2743           77775                           VLOAD
000614: 06,2744           16711                                    ZERODP                                #  VECTOR IN THIS CASE
000615: 06,2745           00406                           STORE    ERCOMP
000616: 06,2746           77776                           EXIT
000617: 06,2747           01546                           TC       QPLACE
000618:
000619:
000620:
000621:
000622:
000623: 06,2750           37645        GMLCKCHK           CAF      BIT6                                  #  CHECK FOR GIMBAL LOCK  (MGA GREATER 70)
000624: 06,2751           70322                           MASK     DSPTAB     +11D
000625: 06,2752           00006                           EXTEND
000626: 06,2753           12755                           BZF      +2
000627: 06,2754           12756                           TCF      ENDTEST
000628: 06,2755           00002                           TC       Q
000629:
000630:
000631:
000632:
000633:
000634: 06,2756           47643        ENDTEST            CS       IMUSEFLG                              #  BIT8
000635: 06,2757           00004                           INHINT
000636: 06,2760           70061                           MASK     STATE
000637: 06,2761           54061                           TS       STATE
000638:
000639: 06,2762           04572                           TC       NEWMODEX
000640: 06,2763           00000                           OCT      00000
000641:
000642: 06,2764           04064                           TC       BANKCALL
000643: 06,2765           27033                           CADR     MKRELEAS                              #  RELEASE MARK SYSTEM
000644: 06,2766           04352                           TC       EJFREE
000645:
000646: 06,2767           06000        CSMLAB             TC       INTPRET
000647: 06,2770           57575                           VLOAD    VCOMP
000648: 06,2771           16703                                    ZUNIT
000649:
000650: 06,2772           01431                           STORE    YNB                                   #  XNB MATRIX USED IN CALCGA
000651: 06,2773           23453                           STOVL    STARAD     +6                         #  STARAD MATRIX USED IN AXISGEN * SMDCALC
000652: 06,2774           16707                                    XUNIT
000653:
000654: 06,2775           01423                           STORE    XNB                                   #  *XNB*   *1    0    0* *V*
000655: 06,2776           23445                           STOVL    STARAD                                #  *   *   *           * * *
000656: 06,2777           16705                                    YUNIT                                 #  *YNB* = *0    0    1* *S*
000657: 06,3000           01437                           STORE    ZNB                                   #  *   *   *           * * *
000658: 06,3001           01461                           STORE    STARAD     +12D                       #  *ZNB*   *0   -1    0* *E*
000659: 06,3002           77776                           EXIT
000660:
000661: 06,3003           41544                           CS       POSITON
000662: 06,3004           66165                           AD       THREE
000663: 06,3005           00006                           EXTEND
000664: 06,3006           13010                           BZF      +2
000665: 06,3007           13023                           TCF      CSMLAB1
000666:
000667: 06,3010           06000                           TC       INTPRET
000668: 06,3011           57575                           VLOAD    VCOMP
000669: 06,3012           01423                                    XNB
000670: 06,3013           77715                           PDVL                                           #  *XNB*   * 0   -1    0* *V*
000671: 06,3014           01437                                    ZNB                                   #  *   *   *            * * *
000672: 06,3015           01423                           STORE    XNB                                   #  *YNB* = * 0    0    1* *S*
000673: 06,3016           23445                           STOVL    STARAD                                #  *   *   *            * * *
000674: 06,3017           77626                           STADR                                          #  *ZNB*   *-1    0    0* * *
000675: 06,3020           76340                           STORE    ZNB
000676: 06,3021           01461                           STORE    STARAD     +12D
000677: 06,3022           77776                           EXIT
000678:
000679: 06,3023           04064        CSMLAB1            TC       BANKCALL
000680: 06,3024           26730                           CADR     IMUSTALL                              #  INSURE IMUZERO COMPLETION
000681:
000682: 06,3025           12756                           TCF      ENDTEST
000683:
000684: 06,3026           02607                           TC       POSNJUMP                              #  SET UP STABLE MEMBER DESIRED COORDINATES
000685: 06,3027           05632                           TC       FREEDSP                               #  FREE DISPLAY SYSTEM
000686: 06,3030           02257                           TC       PUTPOSX                               #  TO COARSE ALIGN STABLE MEMBER
000687:
000688: 06,3031           02750                           TC       GMLCKCHK
000689:
000690: 06,3032           04064                           TC       BANKCALL
000691: 06,3033           26227                           CADR     IMUFINE                               #  FINE ALIGN MODE
000692: 06,3034           04064                           TC       BANKCALL
000693: 06,3035           26730                           CADR     IMUSTALL
000694: 06,3036           12756                           TCF      ENDTEST
000695:
000696: 06,3037           30032                           CA       CDUX
000697: 06,3040           50104                           INDEX    FIXLOC
000698: 06,3041           54024                           TS       24
000699: 06,3042           30033                           CA       CDUY
000700: 06,3043           50104                           INDEX    FIXLOC
000701: 06,3044           54020                           TS       20
000702: 06,3045           30034                           CA       CDUZ
000703: 06,3046           50104                           INDEX    FIXLOC
000704: 06,3047           54022                           TS       22
000705:
000706: 06,3050           37646                           CAF      BIT5
000707: 06,3051           60104                           AD       FIXLOC
000708: 06,3052           50104                           INDEX    FIXLOC
000709: 06,3053           54050                           TS       S1
000710:
000711: 06,3054           02316                           TC       SMDCALC                               #  TO FINE ALIGN STABLE MEMBER
000712:
000713: 06,3055           06000                           TC       INTPRET                               #  IF EARTH RATE COMPENSATION DESIRED
000714: 06,3056           77624                           RTB
000715: 06,3057           11534                                    LOADTIME
000716: 06,3060           01565                           STORE    TMARK
000717: 06,3061           77776                           EXIT
000718:
000719: 06,3062           41512                           CS       EROPTN
000720: 06,3063           67651                           AD       TWO
000721: 06,3064           00006                           EXTEND
000722: 06,3065           13067                           BZF      +2
000723:
000724: 06,3066           12055                           TCF      ERFINAL    +2
000725:
000726: 06,3067           04064                           TC       BANKCALL
000727: 06,3070           30363                           CADR     SAMODRTN                              #  RETURN TO SEMI-AUTOMATIC MODING TEST
000728:
000729:
000730: 06,3071           00006        OPTNB              EXTEND
000731: 06,3072           23547                           QXCH     QPLACES
000732:
000733: 06,3073           02512                           TC       OPTDATA                               #  LOAD YNB AND ZNB AZIMUTH AND ELEVATION
000734:
000735: 06,3074           06000                           TC       INTPRET
000736: 06,3075           77634                           CALL
000737: 06,3076           14360                                    TAR/EREF                              #  CALC YNB AND ZNB WRT EARTH REF. FRAME
000738: 06,3077           41575                           VLOAD    PUSH
000739: 06,3100           00007                                    6D
000740: 06,3101           01431                           STORE    YNB
000741: 06,3102           76435                           VXV      VSL1
000742: 06,3103           00015                                    12D
000743: 06,3104           01423                           STORE    XNB                                   #  XNB = (YNB) X (ZNB)
000744: 06,3105           76435                           VXV      VSL1
000745: 06,3106           77626                           STADR
000746: 06,3107           76340                           STORE    ZNB                                   #  ZNB = (XNB) X (YNB)
000747: 06,3110           77776                           EXIT
000748:
000749: 06,3111           01547                           TC       QPLACES
000750:
000751:
000752: 06,3112           00006        TARGDRVE           EXTEND
000753: 06,3113           23545                           QXCH     QPLAC
000754: 06,3114           55531                           TS       TARG1/2
000755: 06,3115           06000                           TC       INTPRET
000756: 06,3116           77634                           CALL
000757: 06,3117           14360                                    TAR/EREF
000758: 06,3120           76740                           LXC,1    VLOAD*
000759: 06,3121           01531                                    TARG1/2
000760: 06,3122           00007                                    6D,1
000761: 06,3123           37467                           STCALL   STAR
000762: 06,3124           16502                                    SXTANG
000763: 06,3125           77776                           EXIT
000764: 06,3126           31474                           CA       SAC
000765: 06,3127           54404                           TS       DESOPTS
000766: 06,3130           31476                           CA       PAC
000767: 06,3131           54403                           TS       DESOPTT
000768: 06,3132           37657        RETARG             CAF      ZERO
000769: 06,3133           54350                           TS       OPTIND
000770: 06,3134           01545                           TC       QPLAC
000771:
000772:
000773: 06,3135           05550        MISALIGN           TC       GRABWAIT                              #  DISPLAY SYSTEM WAS FREED
000774: 06,3136           37657                           CAF      ZERO
000775: 06,3137           55537                           TS       NDXCTR
000776: 06,3140           51537        BBBB               INDEX    NDXCTR
000777: 06,3141           41673                           CS       GENPL      +68D
000778: 06,3142           51537                           INDEX    NDXCTR
000779: 06,3143           27701                           ADS      GENPL      +74D
000780: 06,3144           33435                           CAF      63DEC
000781: 06,3145           61537                           AD       NDXCTR
000782: 06,3146           10000                           CCS      A
000783: 06,3147           46165                           CS       THREE
000784: 06,3150           27537                           ADS      NDXCTR
000785: 06,3151           13140                           TCF      BBBB
000786: 06,3152           55537                           TS       NDXCTR
000787:
000788:
000789:
000790: 06,3153           06000        CCCC               TC       INTPRET
000791: 06,3154           70750                           LXA,1    DLOAD*
000792: 06,3155           01537                                    NDXCTR
000793: 06,3156           01700                                    GENPL      +72D,1
000794: 06,3157           77625                           DSU
000795: 06,3160           01570                                    GENPL
000796: 06,3161           03700                           STORE    GENPL      +72D,1
000797: 06,3162           77776                           EXIT
000798: 06,3163           41537                           CS       NDXCTR
000799: 06,3164           63436                           AD       69DEC
000800: 06,3165           10000                           CCS      A
000801: 06,3166           36165                           CAF      THREE
000802: 06,3167           27537                           ADS      NDXCTR
000803: 06,3170           13153                           TCF      CCCC
000804: 06,3171           55550                           TS       RUN
000805: 06,3172           36165                           CAF      THREE
000806: 06,3173           55537                           TS       NDXCTR
000807:
000808:
000809:
000810: 06,3174           06000        DDDD               TC       INTPRET
000811: 06,3175           77775                           VLOAD
000812: 06,3176           16711                                    ZERODP
000813: 06,3177           00031                           STORE    24D
000814: 06,3200           00037                           STORE    30D
000815: 06,3201           77735                           SLOAD
000816: 06,3202           15433                                    11DEC
000817: 06,3203           00041                           STORE    32D
000818: 06,3204           77776                           EXIT
000819:
000820: 06,3205           06000        DDDD1              TC       INTPRET
000821: 06,3206           70750                           LXA,1    DLOAD*
000822: 06,3207           01537                                    NDXCTR
000823:
000824: 06,3210           01700                                    GENPL      +72D,1
000825: 06,3211           41423                           DSU*     PUSH
000826: 06,3212           01672                                    GENPL      +66D,1
000827: 06,3213           42742                           SR1      DAD*
000828: 06,3214           01672                                    GENPL      +66D,1
000829: 06,3215           03700                           STORE    GENPL      +72D,1
000830:
000831: 06,3216           43312                           SL2      DAD
000832: 06,3217           00031                                    24D
000833: 06,3220           14031                           STODL*   24D
000834: 06,3221           01700                                    GENPL      +72D,1
000835: 06,3222           63412                           SL4      DSQ
000836: 06,3223           77615                           DAD
000837: 06,3224           00033                                    26D
000838: 06,3225           00033                           STORE    26D
000839: 06,3226           77776                           EXIT
000840: 06,3227           31550                           CAE      RUN
000841: 06,3230           61537                           AD       NDXCTR
000842: 06,3231           40000                           COM
000843: 06,3232           63435                           AD       63DEC
000844: 06,3233           10000                           CCS      A
000845: 06,3234           36162                           CAF      SIX
000846: 06,3235           27537                           ADS      NDXCTR
000847: 06,3236           13205                           TCF      DDDD1
000848: 06,3237           61550                           AD       RUN
000849: 06,3240           55537                           TS       NDXCTR
000850:
000851:
000852:
000853: 06,3241           06000        EEEE               TC       INTPRET
000854: 06,3242           66740                           LXC,1    SLOAD*
000855: 06,3243           01537                                    NDXCTR
000856: 06,3244           01603                                    GENPL      +11D,1
000857: 06,3245           00043                           STORE    34D
000858: 06,3246           77745                           DLOAD
000859: 06,3247           54206                           PUSH     SL
000860: 06,3250           00211                                    8D
000861: 06,3251           43265                           BDDV     DAD
000862: 06,3252           00043                                    34D
000863: 06,3253           00035                                    28D
000864: 06,3254           06035                           STODL    28D
000865: 06,3255           55261                           SL       BDDV
000866: 06,3256           00207                                    6
000867: 06,3257           00043                                    34D
000868: 06,3260           42523                           PDDL*    SL4
000869: 06,3261           01601                                    GENPL      +9D,1
000870: 06,3262           77605                           DMP
000871: 06,3263           77615                           DAD
000872: 06,3264           00037                                    30D
000873: 06,3265           00037                           STORE    30D
000874:
000875: 06,3266           77776                           EXIT
000876: 06,3267           41537                           CS       NDXCTR
000877: 06,3270           63434                           AD       60DEC
000878: 06,3271           61550                           AD       RUN
000879: 06,3272           10000                           CCS      A
000880: 06,3273           36162                           CAF      SIX
000881: 06,3274           27537                           ADS      NDXCTR
000882: 06,3275           13241                           TCF      EEEE
000883:
000884:
000885:
000886: 06,3276           06000                           TC       INTPRET
000887: 06,3277           41345                           DLOAD    DMP
000888: 06,3300           00031                                    24D
000889: 06,3301           00037                                    30D
000890: 06,3302           41325                           PDDL     DMP
000891: 06,3303           00033                                    26D
000892: 06,3304           00035                                    28D
000893: 06,3305           77625                           DSU
000894: 06,3306           63525                           PDDL     DSQ
000895: 06,3307           00031                                    24D
000896: 06,3310           65342                           SR1      PDDL
000897: 06,3311           00041                                    32D
000898: 06,3312           41261                           SL       DMP
000899: 06,3313           00212                                    11
000900: 06,3314           00033                                    26D
000901: 06,3315           55225                           DSU      BDDV
000902: 06,3316           54205                           DMP      SL
000903: 06,3317           15446                                    KKKK
000904: 06,3320           00204                                    3
000905: 06,3321           00337                           STORE    DSPTEM2
000906: 06,3322           77776                           EXIT
000907:
000908: 06,3323           31544                           CA       POSITON
000909: 06,3324           54340                           TS       DSPTEM2    +2
000910:
000911: 06,3325           33427                           CAF      V06N66E
000912: 06,3326           05563                           TC       NVSBWAIT
000913: 06,3327           05525                           TC       FLASHON
000914: 06,3330           04724                           TC       ENDIDLE
000915: 06,3331           12756                           TCF      ENDTEST
000916: 06,3332           36165                           CAF      THREE
000917: 06,3333           55550                           TS       RUN
000918: 06,3334           37657                           CAF      ZERO
000919: 06,3335           13173                           TCF      DDDD       -1
000920:
000921:
000922:
000923:                                                                                                  #       THE SXT ANGLE CHECKING PROGRAM PROVIDES A SIMPLE VERIFICATION OF THE ACCURACY OF THE SXT,  THE IDEA IS TO
000924:                                                                                                  #  COMPUTE THE ANGLE BETWEEN TWO LINES OF SIGHT AS INDICATED BY THE SXT, WHICH IS WHAT THIS PROGRAM DOES.
000925:                                                                                                  #  INDEPENDENT KNOWLEDGE OF THE INCLUDED ANGLE PROVIDES A COMPARISON AND THUS A MEASURE OF THE SXT ACCURACY.
000926:                                                                                                  #        THE ISS NEED NOT BE ON TO RUN THIS PROGRAM.
000927:
000928:
000929:
000930: 06,3336           37657        SXTANGCK           CAF      ZERO
000931: 06,3337           55530                           TS       SXTOPTN
000932:
000933: 06,3340           06000                           TC       INTPRET
000934: 06,3341           77414                           SET      EXIT                                  #  IN CASE THE ISS IS OFF.
000935: 06,3342           00065                                    COAROFIN
000936: 06,3343           02133                           TC       FINDNAVB                              #  FOR LOS1 AND LOS2.
000937: 06,3344           06000                           TC       INTPRET
000938: 06,3345           47375                           VLOAD    VXV
000939: 06,3346           01600                                    LOS1
000940: 06,3347           01606                                    LOS2
000941: 06,3350           77646                           ABVAL
000942: 06,3351           22023                           STOVL    SINTH                                 #  SINTH = ABVAL (VXV ).
000943: 06,3352           01600                                    LOS1
000944: 06,3353           77641                           DOT
000945: 06,3354           01606                                    LOS2
000946: 06,3355           36021                           STCALL   COSTH                                 #  COSTH = V.V
000947: 06,3356           16051                                    ARCTRIG
000948: 06,3357           77624                           RTB
000949: 06,3360           11602                                    1STO2S                                #  DP 1S COMP TO SP 2S COMP.
000950: 06,3361           00025                           STORE    THETA
000951: 06,3362           77776                           EXIT
000952: 06,3363           33447                           CAF      THETAADR
000953: 06,3364           60104                           AD       FIXLOC
000954: 06,3365           54142                           TS       MPAC       +2
000955: 06,3366           33426                           CAF      V06N03E                               #  XXX.XX DEGREES IN R1.
000956: 06,3367           05563                           TC       NVSBWAIT
000957: 06,3370           37651                           CAF      TWO
000958: 06,3371           02756                           TC       ENDTEST
000959: 06,3372           02756                           TC       ENDTEST
000960: 06,3373           02756                           TC       ENDTEST
000961:
000962: 06,3374  E3,1400                                  EBANK=   1400
000963: 06,3374           00004        ZEROERAS           INHINT                                         #  PROGRAM BY MUNTZ TO ZERO ERASEABLE
000964: 06,3375           37657                           CAF      ZERO
000965: 06,3376           54026                           TS       TIME3
000966: 06,3377           33423                           CAF      OCT27
000967: 06,3400           54003                           TS       EBANK
000968: 06,3401           22007        ZEROLP             ZL
000969: 06,3402           50000                           INDEX    A
000970: 06,3403           23401                           LXCH     1401
000971: 06,3404           67651                           AD       TWO
000972: 06,3405           26003                           ADS      EBANK
000973: 06,3406           75466                           MASK     LOW8
000974: 06,3407           10000                           CCS      A
000975: 06,3410           13401                           TCF      ZEROLP
000976: 06,3411           10003                           CCS      EBANK
000977: 06,3412           13415                           TCF      ZEROLP1
000978: 06,3413           04103                           TC       POSTJUMP
000979: 06,3414           24000                           CADR     SLAP1
000980: 06,3415           00003        ZEROLP1            RELINT
000981: 06,3416           37657                           CAF      ZERO                                  #  KEEP T4RUPT GOING, BUT NOT CYCLING.
000982: 06,3417           54347                           TS       DSRUPTSW
000983: 06,3420           47652                           CS       ONE
000984: 06,3421           00004                           INHINT
000985: 06,3422           13401                           TCF      ZEROLP
000986: 06,3423           00027        OCT27              OCT      27
000987:
000988: 06,3424  E5,1500                                  EBANK=   OGC
000989: 06,3424           00130        V01N30E            OCT      00130                                 #  FOR FINDNAVB
000990: 06,3425           00530        V05N30E            OCT      00530                                 #  FOR OPTDATA
000991: 06,3426           00603        V06N03E            OCT      00603
000992: 06,3427           00666        V06N66E            OCT      00666
000993: 06,3430           02530        V25N30E            OCT      02530                                 #  FOR POSITION LOAD
000994: 06,3431           02522        V25N22E            OCT      02522                                 #  FOR POS4
000995:
000996: 06,3432           00013        11DEC              DEC      11         B-14
000997: 06,3433           00021        17DEC              DEC      17         B-14
000998: 06,3434           00074        60DEC              DEC      60         B-14
000999: 06,3435           00077        63DEC              DEC      63         B-14
001000: 06,3436           00105        69DEC              DEC      69         B-14                       #  FOR MISALIGN
001001: 06,3437           00110        72DEC              DEC      72         B-14                       #  FOR STORRSLT
001002:
001003: 06,3440           05670        30SEC              DEC      3000       B-14                       #  3000 X 10 MSEC
001004: 06,3441           13560        60SEC              DEC      6000       B-14                       #  6000 X 10 MSEC
001005:
001006: 06,3442           01500        OGCADR             ADRES    OGC                                   #  FOR ZEROING
001007: 06,3443           01567        GENPLAD1           ADRES    GENPL
001008: 06,3444           02567        GENPLADR           ECADR    GENPL                                 #  FOR POS4
001009: 06,3445           02316 00000  KKKK               2DEC     1230       B-14                       #  210.39 B-14 FOR LEM
001010:
001011: 06,3447           00024        THETAADR           ECADR    THETA
001012: 06,3450           01400        XSMADRX            ADRES    XSM                                   #  FOR MAKEXSMD
001013:
001014: 06,3451           24365 30244  SCALFTR            2DEC     .64                                   #  FOR STORRSLT
001015:
001016: 06,3453           07623 26552  OMEG/MS            2DEC     .24339048                             #  GYRO PULSES / 10 MSEC
001017:
001018:
001019: 06,3455           04113        OPTDATA2           TC       MAKECADR
001020: 06,3456           55777                           TS       OPDATRET
001021: 06,3457           02512                           TC       OPTDATA
001022: 06,3460           31777                           CA       OPDATRET
001023: 06,3461           14106                           TCF      BANKJUMP
001024:
001025: 06,3462                        ENDIMUS1           EQUALS
001026:
001027:                                                                                                  #           THE FOLLOWING ROUTINE READS THE CLOCK AND SCALAR (CHANNELS 3 AND 4) INTO A AND L, INSURING THAT THE
001028:                                                                                                  #  DATA WAS NOT IN TRANSITION WHEN IT WAS READ.
001029:    5721                                           SETLOC   ENDFAILF
001030:    5721           00004        FINETIME           INHINT                                         #  RETURNS WITH INTERRUPT INHIBITED.
001031:    5722           00006                           EXTEND
001032:    5723           00004                           READ     LOSCALAR
001033:    5724           54001                           TS       L
001034:
001035:    5725           00006                           EXTEND                                         #  SEE IF 2 READINGS AGREE. IF NOT, READ
001036:    5726           06004                           RXOR     LOSCALAR                              #  LOSCALAR AGAIN.
001037:    5727           00006                           EXTEND
001038:    5730           15734                           BZF      +4
001039:
001040:    5731           00006                           EXTEND                                         #  IF CLOCK RIPPLED BEFORE, IT WONT NOW.
001041:    5732           00004                           READ     LOSCALAR
001042:    5733           54001                           TS       L
001043:
001044:    5734           47632                 +4        CS       POSMAX                                #  IF LOW PART CONTAINS SOMETHING LESS THAN
001045:    5735           60001                           AD       L                                     #  POSMAX, THE HIGH PART CAN BE READ SAFELY
001046:    5736           00006                           EXTEND
001047:    5737           15722                           BZF      FINETIME   +1                         #  TRY AGAIN - CONDITION WILL DISAPPEAR.
001048:
001049:    5740           00006                           EXTEND
001050:    5741           00003                           READ     HISCALAR
001051:    5742           00002                           TC       Q
001052:
001053:    5743                        ENDIMUF            EQUALS

End of include-file IMU_PERFORMANCE_TESTS_1.agc.  Parent file is MAIN.agc


