
Source Code


000002:                                                                                                  ## Copyright:   Public domain.
000003:                                                                                                  ## Filename:    INTERRUPT_LEAD_INS.agc
000004:                                                                                                  ## Purpose:     A section of Sundial E.
000005:                                                                                                  ##              It is part of the reconstructed source code for the final
000006:                                                                                                  ##              release of the Block II Command Module system test software. No
000007:                                                                                                  ##              original listings of this program are available; instead, this
000008:                                                                                                  ##              file was created via disassembly of dumps of Sundial core rope
000009:                                                                                                  ##              modules and comparison with other AGC programs.
000010:                                                                                                  ## Assembler:   yaYUL
000011:                                                                                                  ## Contact:     Ron Burkey <info@sandroid.org>.
000012:                                                                                                  ## Website:     www.ibiblio.org/apollo/index.html
000013:                                                                                                  ## Mod history: 2023-06-22 MAS  Created from Aurora 12.
000014:                                                                                                  ##              2023-06-30 MAS  Updated for Sundial E.
000015:
000016:    4000                                           SETLOC   4000
000017:
000018:    4000           00004                           INHINT                                         #  GO
000019:    4001           34054                           CAF      GOBB
000020:    4002           56006                           XCH      BBANK
000021:    4003           12064                           TCF      GOPROG
000022:
000023:    4004           52011                           DXCH     ARUPT                                 #  T6RUPT
000024:    4005           34055                           CAF      T6RPTBB
000025:    4006           56006                           XCH      BBANK
000026:    4007           14514                           TCF      RESUME     +3                         #  ***FIX LATER***
000027:
000028:    4010           52011                           DXCH     ARUPT                                 #  T5RUPT
000029:    4011           00006                           EXTEND
000030:    4012           30346                           DCA      T5LOC                                 #  T5LOC EQUALS T5ADR
000031:    4013           52006                           DTCB
000032:
000033:    4014           52011                           DXCH     ARUPT                                 #  T3RUPT
000034:    4015           34056                           CAF      T3RPTBB
000035:    4016           56006                           XCH      BBANK
000036:    4017           12736                           TCF      T3RUPT
000037:
000038:    4020           52011                           DXCH     ARUPT                                 #  T4RUPT
000039:    4021           37657                           CAF      ZERO
000040:    4022           14616                           TCF      T4RUPT
000041:    4023     0347                                  EBANK=   DSRUPTSW
000042:    4023           24000        T4RPTBB            BBCON    T4RUPTA
000043:
000044:    4024           52011                           DXCH     ARUPT                                 #  KEYRUPT1
000045:    4025           34057                           CAF      KEYRPTBB
000046:    4026           56006                           XCH      BBANK
000047:    4027           12773                           TCF      KEYRUPT1
000048:
000049:    4030           52011                           DXCH     ARUPT                                 #  KEYRUPT2
000050:    4031           34060                           CAF      MKRUPTBB
000051:    4032           56006                           XCH      BBANK
000052:    4033           13046                           TCF      MARKRUPT
000053:
000054:    4034           52011                           DXCH     ARUPT                                 #  UPRUPT
000055:    4035           34057                           CAF      UPRPTBB
000056:    4036           56006                           XCH      BBANK
000057:    4037           13013                           TCF      UPRUPT
000058:
000059:    4040           52011                           DXCH     ARUPT                                 #  DOWNRUPT
000060:    4041           34061                           CAF      DWNRPTBB
000061:    4042           56006                           XCH      BBANK
000062:    4043           13517                           TCF      DODOWNTM
000063:
000064:    4044           52011                           DXCH     ARUPT                                 #  RADAR RUPT
000065:    4045           34062                           CAF      RDRPTBB
000066:    4046           56006                           XCH      BBANK
000067:    4047           14514                           TCF      RESUME     +3                         #  NOT USED
000068:
000069:    4050           52011                           DXCH     ARUPT                                 #  HAND CONTROL RUPT
000070:    4051           34063                           CA       HCRUPTBB
000071:    4052           56006                           XCH      BBANK
000072:    4053           14514                           TCF      RESUME     +3                         #  NOT USED
000073:
000074:    4054  E3,1400                                  EBANK=   LST1                                  #  RESTART USES E0, E3
000075:    4054           24003        GOBB               BBCON    GOPROG
000076:
000077:    4055     0025                                  EBANK=   TIME1
000078:    4055           04000        T6RPTBB            BBCON    RESUME                                #  ***FIX LATER***
000079:
000080:    4056  E3,1400                                  EBANK=   LST1
000081:    4056           02003        T3RPTBB            BBCON    T3RUPT
000082:
000083:    4057     0077                                  EBANK=   KEYTEMP1
000084:    4057           02000        KEYRPTBB           BBCON    KEYRUPT1
000085:
000086:    4060     0365                                  EBANK=   MARKSTAT
000087:    4060           26000        MKRUPTBB           BBCON    MARKRUPT
000088:
000089:    4061     4057               UPRPTBB            =        KEYRPTBB
000090:
000091:    4061  E7,1430                                  EBANK=   DNTMBUFF
000092:    4061           12007        DWNRPTBB           BBCON    DODOWNTM
000093:
000094:    4062     0025                                  EBANK=   TIME1
000095:    4062           04000        RDRPTBB            BBCON    RESUME                                #  NOT USED
000096:
000097:    4063     0025                                  EBANK=   TIME1
000098:    4063           04000        HCRUPTBB           BBCON    RESUME                                #  NOT USED
000099:
000100:    4064                        ENDINTFF           EQUALS

End of include-file INTERRUPT_LEAD_INS.agc.  Parent file is MAIN.agc


