
Source Code


000002:                                                                                                  ## Copyright:   Public domain.
000003:                                                                                                  ## Filename:    INTER-BANK_COMMUNICATION.agc
000004:                                                                                                  ## Purpose:     A section of Sundial E.
000005:                                                                                                  ##              It is part of the reconstructed source code for the final
000006:                                                                                                  ##              release of the Block II Command Module system test software. No
000007:                                                                                                  ##              original listings of this program are available; instead, this
000008:                                                                                                  ##              file was created via disassembly of dumps of Sundial core rope
000009:                                                                                                  ##              modules and comparison with other AGC programs.
000010:                                                                                                  ## Assembler:   yaYUL
000011:                                                                                                  ## Contact:     Ron Burkey <info@sandroid.org>.
000012:                                                                                                  ## Website:     www.ibiblio.org/apollo/index.html
000013:                                                                                                  ## Mod history: 2023-06-22 MAS  Created from Aurora 12.
000014:                                                                                                  ##              2023-06-30 MAS  Updated for Sundial E.
000015:
000016:                                                                                                  #           THE FOLLOWING ROUTINE CAN BE USED TO CALL A SUBROUTINE IN ANOTHER BANK. IN THE BANKCALL VERSION, THE
000017:                                                                                                  #  CADR OF THE SUBROUTINE IMMEDIATELY FOLLOWS THE  TC BANKCALL  INSTRUCTION, WITH C(A) AND C(L) PRESERVED.
000018:
000019:    4064                                           SETLOC   ENDINTFF
000020:    4064           52120        BANKCALL           DXCH     BUF2                                  #  SAVE INCOMING A,L.
000021:    4065           50002                           INDEX    Q                                     #  PICK UP CADR.
000022:    4066           30000                           CA       0
000023:    4067           24002                           INCR     Q                                     #  SO WE RETURN TO THE LOC. AFTER THE CADR.
000024:
000025:                                                                                                  #           SWCALL IS IDENTICAL TO BANKCALL, EXCEPT THAT THE CADR ARRIVES IN A.
000026:
000027:    4070           54001        SWCALL             TS       L
000028:    4071           22004                           LXCH     FBANK                                 #  SWITCH BANKS, SAVING RETURN.
000029:    4072           76426                           MASK     LOW10                                 #  GET SUB-ADDRESS OF CADR.
000030:    4073           56002                           XCH      Q                                     #  A,L NOW CONTAINS DP RETURN.
000031:    4074           52120                           DXCH     BUF2                                  #  RESTORING INPUTS IF THIS IS A BANKCALL.
000032:    4075           50002                           INDEX    Q
000033:    4076           02000                           TC       10000                                 #  SETTING Q TO SWRETURN.
000034:
000035:    4077           56120        SWRETURN           XCH      BUF2       +1                         #  COMES HERE TO RETURN TO CALLER. C(A,L)
000036:    4100           56004                           XCH      FBANK                                 #  ARE PRESERVED FOR RETURN.
000037:    4101           56120                           XCH      BUF2       +1
000038:    4102           00117                           TC       BUF2
000039:
000040:                                                                                                  #           THE FOLLOWING ROUTINE CAN BE USED AS A UNILATERAL JUMP WITH C(A,L) PRESERVED AND THE CADR IMMEDIATELY
000041:                                                                                                  #  FOLLOWING THE TC POSTJUMP INSTRUCTION.
000042:
000043:    4103           56002        POSTJUMP           XCH      Q                                     #  SAVE INCOMING C(A).
000044:    4104           50000                           INDEX    A                                     #  GET CADR.
000045:    4105           30000                           CA       0
000046:
000047:                                                                                                  #           BANKJUMP IS THE SAME AS POSTJUMP, EXCEPT THAT THE CADR ARRIVES IN A.
000048:
000049:    4106           54004        BANKJUMP           TS       FBANK
000050:    4107           76426                           MASK     LOW10
000051:    4110           56002                           XCH      Q                                     #  RESTORING INPUT C(A) IF THIS WAS A
000052:    4111           50002                           INDEX    Q                                     #  POSTJUMP.
000053:    4112           12000                           TCF      10000
000054:
000055:                                                                                                  #  THE FOLLOWING ROUTINE GETS THE RETURN CADR SAVED BY SWCALL OR BANKCALL AND LEAVES IT IN A.
000056:
000057:    4113           36426        MAKECADR           CAF      LOW10
000058:    4114           70117                           MASK     BUF2
000059:    4115           60120                           AD       BUF2       +1
000060:    4116           00002                           TC       Q
000061:
000062:                                                                                                  #  THE FOLLOWING ROUTINE OBTAINS THE TWO WORDS BEGINNING AT THE ADDRESS ARRIVING IN A, AND LEAVES THEM IN
000063:                                                                                                  #  A,L.
000064:
000065:    4117           54001        DATACALL           TS       L
000066:    4120           22004                           LXCH     FBANK
000067:    4121           22121                           LXCH     MPTEMP                                #  SAVE FORMER BANK.
000068:    4122           76426                           MASK     LOW10
000069:    4123           00006                           EXTEND
000070:    4124           50000                           INDEX    A
000071:    4125           32001                           DCA      10000
000072:
000073:    4126           56121                           XCH      MPTEMP
000074:    4127           54004                           TS       FBANK                                 #  RESTORE FBANK.
000075:    4130           30121                           CA       MPTEMP
000076:    4131           00002                           TC       Q
000077:
000078:                                                                                                  #  THE FOLLOWING ROUTINES ARE IDENTICAL TO BANKCALL AND SWCALL EXCEPT THAT THEY ARE USED IN INTERRUPT.
000079:
000080:    4132           52077        IBNKCALL           DXCH     RUPTREG3                              #  USES RUPTREG3,4 FOR DP RETURN ADDRESS.
000081:    4133           50002                           INDEX    Q
000082:    4134           30000                           CAF      0
000083:    4135           24002                           INCR     Q
000084:
000085:    4136           54001        ISWCALL            TS       L
000086:    4137           22004                           LXCH     FBANK
000087:    4140           76426                           MASK     LOW10
000088:    4141           56002                           XCH      Q
000089:    4142           52077                           DXCH     RUPTREG3
000090:    4143           50002                           INDEX    Q
000091:    4144           02000                           TC       10000
000092:
000093:    4145           56077        ISWRETRN           XCH      RUPTREG4
000094:    4146           56004                           XCH      FBANK
000095:    4147           56077                           XCH      RUPTREG4
000096:    4150           00076                           TC       RUPTREG3
000097:
000098:    4151                        ENDIBNKF           EQUALS

End of include-file INTER-BANK_COMMUNICATION.agc.  Parent file is MAIN.agc


