
Source Code


000002:                                                                                                  ## Copyright:   Public domain.
000003:                                                                                                  ## Filename:    OPTIMUM_PRELAUNCH_ALIGNMENT_CALIBRATION.agc
000004:                                                                                                  ## Purpose:     A section of Sundial E.
000005:                                                                                                  ##              It is part of the reconstructed source code for the final
000006:                                                                                                  ##              release of the Block II Command Module system test software. No
000007:                                                                                                  ##              original listings of this program are available; instead, this
000008:                                                                                                  ##              file was created via disassembly of dumps of Sundial core rope
000009:                                                                                                  ##              modules and comparison with other AGC programs.
000010:                                                                                                  ## Assembler:   yaYUL
000011:                                                                                                  ## Contact:     Ron Burkey <info@sandroid.org>.
000012:                                                                                                  ## Website:     www.ibiblio.org/apollo/index.html
000013:                                                                                                  ## Mod history: 2023-06-22 MAS  Created from Aurora 12.
000014:                                                                                                  ##              2023-06-30 MAS  Updated for Sundial E.
000015:
000016:
000017:                                                                                                  #  THIS PROGRAM USES A VERTICAL,SOUTH,EAST COORDINATE SYSTEM FOR PIPAS
000018: 16,2000                                           BANK     16
000019: 16,2000  E5,1400                                  EBANK=   XSM
000020:
000021:                                                                                                  #  G SCHMIDT SIMPLIFIED ESTIMATION PROGRAM FOR ALIGNMENT CALIBRATION. THE
000022:                                                                                                  #  PROGRAM IS COMPLETELY RESTART PROFED. DATA STORED IN BANK4.
000023: 16,2000           31704        ESTIMS             CA       GEOCOMPS
000024: 16,2001           55022                           TS       GEOSAVED
000025: 16,2002           00006                           EXTEND
000026: 16,2003           62006                           BZMF     ESTIMS1
000027: 16,2004           04064                           TC       BANKCALL
000028: 16,2005           14433                           CADR     EARTHR
000029:
000030: 16,2006           04517        ESTIMS1            TC       PHASCHNG
000031: 16,2007           00101                           OCT      00101
000032:
000033: 16,2010           00004        RSTGTS1            INHINT                                         #   COMES HERE PHASE1 RESTART
000034: 16,2011           31022                           CA       GEOSAVED
000035: 16,2012           55704                           TS       GEOCOMPS
000036:
000037: 16,2013           33177                           CAF      1SEC
000038: 16,2014           04451                           TC       WAITLIST
000039: 16,2015           02205 34005                     2CADR    ALLOOP
000040:
000041: 16,2017           37657                           CAF      ZERO                                  #  ZERO THE PIPAS
000042: 16,2020           54037                           TS       PIPAX
000043: 16,2021           54040                           TS       PIPAY
000044: 16,2022           54041                           TS       PIPAZ
000045: 16,2023           55661                           TS       ALTIM
000046:
000047: 16,2024           33176                           CAF      13DECML
000048: 16,2025           55753                           TS       ZERONDX
000049: 16,2026           32114                           CAF      LINTY
000050: 16,2027           04064                           TC       BANKCALL
000051: 16,2030           37155                           CADR     ZEROING
000052:
000053: 16,2031           00003                           RELINT
000054: 16,2032           37645                           CAF      BIT6
000055: 16,2033           55753                           TS       ZERONDX
000056: 16,2034           32115                           CAF      LVLAUN
000057: 16,2035           04064                           TC       BANKCALL
000058: 16,2036           37155                           CADR     ZEROING
000059: 16,2037           37656                           CAF      SEVEN
000060: 16,2040           55753                           TS       ZERONDX
000061: 16,2041           33174                           CAF      LALK4
000062: 16,2042           04064                           TC       BANKCALL
000063: 16,2043           37155                           CADR     ZEROING
000064: 16,2044           06000                           TC       INTPRET
000065: 16,2045           77745                           DLOAD
000066: 16,2046           35155                                    INTVAL
000067: 16,2047           22051                           STOVL    S1
000068: 16,2050           35157                                    INTVAL     +2
000069: 16,2051           23570                           STOVL    ALX1S
000070: 16,2052           34127                                    GEORGED
000071: 16,2053           23755                           STOVL    TRANSM1
000072: 16,2054           34135                                    GEORGEC
000073: 16,2055           23763                           STOVL    TRANSM1    +6
000074: 16,2056           34143                                    GEORGEB
000075: 16,2057           01771                           STORE    TRANSM1    +12D
000076: 16,2060           77776                           EXIT
000077:
000078: 16,2061           11704                           CCS      GEOCOMPS
000079: 16,2062           02173                           TC       SETUPALK
000080: 16,2063           02111                           TC       NOCHORLD
000081:
000082: 16,2064           37652                           CAF      ONE
000083: 16,2065           55704                           TS       GEOCOMPS
000084:
000085: 16,2066           06000                           TC       INTPRET
000086: 16,2067           57535        SETDRIFT           SLOAD    DCOMP
000087: 16,2070           01712                                    SPDRIFT    +2
000088: 16,2071           77606                           PUSH
000089: 16,2072           41535                           SLOAD    PUSH
000090: 16,2073           01711                                    SPDRIFT    +1
000091: 16,2074           55535                           SLOAD    VDEF
000092: 16,2075           01710                                    SPDRIFT
000093: 16,2076           76505                           VXM      VSL1
000094: 16,2077           01401                                    XSM
000095: 16,2100           01634                           STORE    DRIFTO
000096: 16,2101           77776                           EXIT
000097:
000098: 16,2102           04064                           TC       BANKCALL
000099: 16,2103           37606                           CADR     LOADGTSM
000100:
000101: 16,2104           11776                           CCS      PREMTRXC
000102: 16,2105           02111                           TC       NOCHORLD
000103: 16,2106           06000                           TC       INTPRET
000104: 16,2107           77650                           GOTO
000105: 16,2110           34476                                    BOOP       -3
000106:
000107: 16,2111           04517        NOCHORLD           TC       PHASCHNG
000108: 16,2112           00301                           OCT      00301
000109: 16,2113           04353                           TC       ENDOFJOB
000110:
000111: 16,2114           01621        LINTY              GENADR   INTY
000112: 16,2115           01640        LVLAUN             GENADR   VLAUN      -1
000113:
000114: 16,2116           30341 22444  PIPASC             2DEC     .76376833
000115:
000116: 16,2120           57223 66451  VELSC              2DEC     -.52223476                            #  512/980.402
000117:
000118: 16,2122           05427 12577  ALSK               2DEC     .17329931                             #  SSWAY VEL GAIN X 980.402/4096
000119:
000120: 16,2124           77567 44202                     2DEC     -.00835370                            #  SSWAY ACCEL GAIN X 980.402/4096
000121:
000122: 16,2126           47762 75077  GEORGED            2DEC     -.75079894
000123:
000124: 16,2130           73511 61546                     2DEC     -.13613567
000125:
000126: 16,2132           73733 67243                     2DEC     -.12721382
000127:
000128: 16,2134           36256 35610  GEORGEC            2DEC     .94817689
000129:
000130: 16,2136           16631 34443                     2DEC     .46251787
000131:
000132: 16,2140           11243 22276                     2DEC     .29123377
000133:
000134: 16,2142           65174 70374  GEORGEB            2DEC     -.33613492
000135:
000136: 16,2144           11762 06753                     2DEC     .31165878
000137:
000138: 16,2146           60047 67652                     2DEC     -.49757417
000139:
000140: 16,2150           24276 14066  GEORGEJ            2DEC     .63661977
000141:
000142: 16,2152           23073 11773  GEORGEK            2DEC     .59737013
000143:
000144: 16,2154           31103 36651  PI/4.0             2DEC     .78539816
000145:
000146: 16,2156           02521        AINGYRO            ECADR    GYROD
000147:
000148: 16,2157           00074        ALX1S1             DEC      60         B-14
000149: 16,2160           77776                           DEC      -1         B-14
000150: 16,2161           00115 22254                     2DEC     .00473468
000151: 16,2163           00000 02423                     2DEC     .000004839
000152:
000153: 16,2165           77775 52725  ALK1               2DEC     -.00016228
000154: 16,2167           77735 54660                     2DEC     -.00211173
000155: 16,2171           00000 07635                     2DEC     .00001489
000156:
000157: 16,2173           33200        SETUPALK           CAF      150DECML
000158: 16,2174           55527                           TS       LENGTHOT
000159:
000160: 16,2175           06000                           TC       INTPRET
000161: 16,2176           77775                           VLOAD
000162: 16,2177           34160                                    ALX1S1
000163: 16,2200           23570                           STOVL    ALX1S
000164: 16,2201           34166                                    ALK1
000165: 16,2202           01576                           STORE    ALK        +4
000166: 16,2203           77650                           GOTO
000167: 16,2204           34067                                    SETDRIFT
000168:
000169: 16,2205           00004        ALLOOP             INHINT
000170: 16,2206           41075                           CS       PHASE1
000171: 16,2207           66165                           AD       THREE
000172: 16,2210           00006                           EXTEND
000173: 16,2211           12213                           BZF      +2
000174: 16,2212           03261                           TC       SOMEERRR
000175:
000176: 16,2213           31661                           CA       ALTIM
000177: 16,2214           55022                           TS       GEOSAVED
000178: 16,2215           04517                           TC       PHASCHNG
000179: 16,2216           00201                           OCT      00201
000180: 16,2217           02221                           TC       +2
000181:
000182: 16,2220           00004        ALLOOP1            INHINT                                         #  RESTARTS COME IN HERE
000183: 16,2221           31022                           CA       GEOSAVED
000184: 16,2222           55661                           TS       ALTIM
000185: 16,2223           10000                           CCS      A
000186: 16,2224           03261                           TC       SOMEERRR                              #  SHOULD NEVER HIT THIS LOCATION
000187: 16,2225           55662                           TS       ALTIMS
000188: 16,2226           40000                           CS       A
000189: 16,2227           55661                           TS       ALTIM
000190: 16,2230           31527                           CA       LENGTHOT
000191: 16,2231           00006                           EXTEND
000192: 16,2232           62237                           BZMF     ALLOOP2
000193: 16,2233           33177                           CAF      1SEC
000194: 16,2234           04451                           TC       WAITLIST
000195: 16,2235           02205 34005                     2CADR    ALLOOP
000196:
000197: 16,2237           37657        ALLOOP2            CAF      ZERO
000198: 16,2240           55614                           TS       FILDELVX   +1
000199: 16,2241           55616                           TS       FILDELVY   +1
000200: 16,2242           55620                           TS       FILDELVZ   +1
000201: 16,2243           56037                           XCH      PIPAX
000202: 16,2244           55613                           TS       FILDELVX
000203: 16,2245           37657                           CAF      ZERO
000204: 16,2246           56040                           XCH      PIPAY
000205: 16,2247           55615                           TS       FILDELVY
000206: 16,2250           37657                           CAF      ZERO
000207: 16,2251           56041                           XCH      PIPAZ
000208: 16,2252           55617                           TS       FILDELVZ
000209: 16,2253           00003                           RELINT
000210: 16,2254           37635        SPECSTS            CAF      PRIO20
000211: 16,2255           04307                           TC       FINDVAC
000212: 16,2256           02275 34005                     2CADR    ALFLT                                 #  START THE JOB
000213:
000214: 16,2260           04505                           TC       TASKOVER
000215:
000216: 16,2261           72174        ALKCG              AXT,2    LXA,1                                 #  LOADS SLOPES AND TIME CONSTANTS AT RQST
000217: 16,2262           00014                                    12D
000218: 16,2263           01567                                    ALX1S
000219: 16,2264           62143        ALKCG2             DLOAD*   INCR,1
000220: 16,2265           35155                                    ALFDK      +156D,1
000221: 16,2266           77775                           DEC      -2         B-14
000222: 16,2267           05676                           STORE    ALDK       +10D,2
000223: 16,2270           66104                           TIX,2    SXA,1
000224: 16,2271           34264                                    ALKCG2
000225: 16,2272           01567                                    ALX1S
000226: 16,2273           77650                           GOTO
000227: 16,2274           34327                                    ALFLT2
000228:
000229: 16,2275           03566        ALFLT              TC       STOREDTA                              #   STORE DATA IN CASE OF RESTART IN JOB
000230: 16,2276           31527                           CA       LENGTHOT
000231: 16,2277           55023                           TS       LTHOTSAV
000232: 16,2300           04517                           TC       PHASCHNG                              #  THIS IS THE JOB DONE EVERY ITERATION
000233: 16,2301           01101                           OCT      01101
000234: 16,2302           02320                           TC       NORMLOP
000235: 16,2303           33565        REALFLT            CA       GEOBND1
000236: 16,2304           54003                           TS       EBANK
000237:
000238: 16,2305           03607        ALFLT1             TC       LOADSTDT                              #  COMES HERE ON RESTART
000239:
000240: 16,2306           31023                           CA       LTHOTSAV
000241: 16,2307           55527                           TS       LENGTHOT
000242: 16,2310           00006                           EXTEND
000243: 16,2311           62320                           BZMF     NORMLOP
000244: 16,2312           00004                           INHINT
000245: 16,2313           37644                           CAF      BIT7
000246: 16,2314           04451                           TC       WAITLIST
000247: 16,2315           02205 34005                     2CADR    ALLOOP
000248:
000249: 16,2317           00003                           RELINT
000250:
000251: 16,2320           06000        NORMLOP            TC       INTPRET
000252: 16,2321           77745                           DLOAD
000253: 16,2322           35155                                    INTVAL
000254: 16,2323           00051                           STORE    S1                                    #  STEP REGISTERS MAY HAVE BEEN WIPED OUT
000255: 16,2324           53135                           SLOAD    BZE
000256: 16,2325           01663                                    ALTIMS
000257: 16,2326           34261                                    ALKCG
000258:
000259: 16,2327           61375        ALFLT2             VLOAD    VXM
000260: 16,2330           01614                                    FILDELVX
000261: 16,2331           01001                                    GEOMTRX
000262: 16,2332           01614                           STORE    FILDELVX
000263: 16,2333           57545                           DLOAD    DCOMP
000264: 16,2334           01616                                    FILDELVY
000265: 16,2335           07654                           STODL    DPIPAY
000266: 16,2336           01620                                    FILDELVZ
000267: 16,2337           01660                           STORE    DPIPAZ
000268:
000269: 16,2340           76001                           SETPD    AXT,1                                 #  MEASUREMENT INCORPORATION ROUTINES.
000270: 16,2341           00001                                    0
000271: 16,2342           00010                                    8D
000272:
000273: 16,2343           41343        DELMLP             DLOAD*   DMP
000274: 16,2344           01664                                    DPIPAY     +8D,1
000275: 16,2345           34117                                    PIPASC
000276: 16,2346           41061                           SLR      BOVB
000277: 16,2347           01213                                    10D
000278: 16,2350           35265                                    SOMERR1
000279: 16,2351           77617                           BDSU*
000280: 16,2352           01632                                    INTY       +8D,1
000281: 16,2353           03632                           STORE    INTY       +8D,1
000282: 16,2354           40725                           PDDL     DMP*
000283: 16,2355           34121                                    VELSC
000284: 16,2356           01652                                    VLAUN      +8D,1
000285: 16,2357           77732                           SL2R
000286: 16,2360           45425                           DSU      STADR
000287: 16,2361           74023                           STORE    DELM       +8D,1
000288: 16,2362           03756                           STORE    DELM       +10D,1
000289: 16,2363           77100                           TIX,1    AXT,2
000290: 16,2364           34343                                    DELMLP
000291: 16,2365           00004                                    4
000292: 16,2366           56743        ALILP              DLOAD*   DMPR*
000293: 16,2367           76201                                    ALK        +4,2
000294: 16,2370           76107                                    ALDK       +4,2
000295: 16,2371           05576                           STORE    ALK        +4,2
000296: 16,2372           77104                           TIX,2    AXT,2
000297: 16,2373           34366                                    ALILP
000298: 16,2374           00010                                    8D
000299: 16,2375           66140        ALKLP              LXC,1    SXA,1
000300: 16,2376           01570                                    CMPX1
000301: 16,2377           01570                                    CMPX1
000302: 16,2400           56743                           DLOAD*   DMPR*
000303: 16,2401           01573                                    ALK        +1,1
000304: 16,2402           76023                                    DELM       +8D,2
000305: 16,2403           77613                           DAD*
000306: 16,2404           76145                                    INTY       +8D,2
000307: 16,2405           21632                           STODL*   INTY       +8D,2
000308: 16,2406           76171                                    ALK        +12D,2
000309: 16,2407           77613                           DAD*
000310: 16,2410           76077                                    ALDK       +12D,2
000311: 16,2411           05606                           STORE    ALK        +12D,2
000312: 16,2412           42673                           DMPR*    DAD*
000313: 16,2413           76023                                    DELM       +8D,2
000314: 16,2414           76135                                    INTY       +16D,2
000315: 16,2415           21642                           STODL*   INTY       +16D,2
000316: 16,2416           34124                                    ALSK       +1,1
000317: 16,2417           76403                           DMP*     SL1R
000318: 16,2420           76023                                    DELM       +8D,2
000319: 16,2421           77613                           DAD*
000320: 16,2422           76125                                    VLAUN      +8D,2
000321: 16,2423           05652                           STORE    VLAUN      +8D,2
000322: 16,2424           76104                           TIX,2    AXT,1
000323: 16,2425           34375                                    ALKLP
000324: 16,2426           00010                                    8D
000325:
000326:
000327: 16,2427           57343        LOOSE              DLOAD*   DMPR
000328: 16,2430           01652                                    VLAUN      +8D,1
000329: 16,2431           01755                                    TRANSM1
000330: 16,2432           77752                           SL1
000331: 16,2433           57323                           PDDL*    DMPR
000332: 16,2434           01662                                    POSNV      +8D,1
000333: 16,2435           01757                                    TRANSM1    +2
000334: 16,2436           57323                           PDDL*    DMPR
000335: 16,2437           01662                                    POSNV      +8D,1
000336: 16,2440           01761                                    TRANSM1    +4
000337: 16,2441           57323                           PDDL*    DMPR
000338: 16,2442           01662                                    POSNV      +8D,1
000339: 16,2443           01763                                    TRANSM1    +6
000340: 16,2444           57323                           PDDL*    DMPR
000341: 16,2445           01652                                    VLAUN      +8D,1
000342: 16,2446           01765                                    TRANSM1    +8D
000343: 16,2447           77615                           DAD
000344: 16,2450           57323                           PDDL*    DMPR
000345: 16,2451           01654                                    ACCWD      +8D,1
000346: 16,2452           01767                                    TRANSM1    +10D
000347: 16,2453           45415                           DAD      STADR
000348: 16,2454           60115                           STODL*   POSNV      +8D,1
000349: 16,2455           01652                                    VLAUN      +8D,1
000350: 16,2456           77675                           DMPR
000351: 16,2457           01771                                    TRANSM1    +12D
000352: 16,2460           77615                           DAD
000353: 16,2461           57323                           PDDL*    DMPR
000354: 16,2462           01654                                    ACCWD      +8D,1
000355: 16,2463           01773                                    TRANSM1    +14D
000356: 16,2464           45415                           DAD      STADR
000357: 16,2465           60125                           STODL*   VLAUN      +8D,1
000358: 16,2466           01654                                    ACCWD      +8D,1
000359: 16,2467           77675                           DMPR
000360: 16,2470           01775                                    TRANSM1    +16D
000361: 16,2471           77615                           DAD
000362: 16,2472           45415                           DAD      STADR
000363: 16,2473           74123                           STORE    ACCWD      +8D,1
000364: 16,2474           77700                           TIX,1
000365: 16,2475           34427                                    LOOSE
000366:
000367:
000368: 16,2476           76174                           AXT,2    AXT,1                                 #  EVALUATE SINES AND COSINES
000369: 16,2477           00006                                    6
000370: 16,2500           00002                                    2
000371: 16,2501           57343        BOOP               DLOAD*   DMPR
000372: 16,2502           01634                                    ANGX       +2,1
000373: 16,2503           34151                                    GEORGEJ
000374: 16,2504           77722                           SR2R
000375: 16,2505           73406                           PUSH     SIN
000376: 16,2506           56172                           SL1R     XAD,1
000377: 16,2507           00046                                    X1
000378: 16,2510           13730                           STODL    BPLAC      +6,2
000379: 16,2511           77746                           COS
000380: 16,2512           05736                           STORE    WPLATO,2                              #  COSINES
000381: 16,2513           77704                           TIX,2
000382: 16,2514           34501                                    BOOP
000383: 16,2515           62545                           DLOAD    SL2
000384: 16,2516           01726                                    BPLAC      +4
000385: 16,2517           77615                           DAD
000386: 16,2520           01622                                    INTY
000387: 16,2521           07622                           STODL    INTY
000388: 16,2522           01724                                    BPLAC      +2
000389: 16,2523           56405                           DMP      SL3R
000390: 16,2524           01734                                    BPLAC      +10D
000391: 16,2525           77615                           DAD
000392: 16,2526           01626                                    INTZ
000393: 16,2527           07626                           STODL    INTZ
000394: 16,2530           01730                                    BPLAC      +6
000395: 16,2531           57275                           DMPR     DMPR
000396: 16,2532           01732                                    BPLAC      +8D
000397: 16,2533           01726                                    BPLAC      +4
000398: 16,2534           77712                           SL2
000399: 16,2535           57325                           PDDL     DMPR
000400: 16,2536           01722                                    BPLAC
000401: 16,2537           01724                                    BPLAC      +2
000402: 16,2540           77615                           DAD
000403: 16,2541           77675                           DMPR
000404: 16,2542           01610                                    WANGI
000405: 16,2543           57325                           PDDL     DMPR
000406: 16,2544           01732                                    BPLAC      +8D
000407: 16,2545           01734                                    BPLAC      +10D
000408: 16,2546           66405                           DMP      SL2R
000409: 16,2547           01606                                    WANGO
000410: 16,2550           77621                           BDSU
000411: 16,2551           01634                                    DRIFTO
000412: 16,2552           45425                           DSU      STADR
000413: 16,2553           70041                           STODL    WPLATO
000414: 16,2554           01730                                    BPLAC      +6
000415: 16,2555           41275                           DMPR     DMP
000416: 16,2556           01734                                    BPLAC      +10D
000417: 16,2557           01610                                    WANGI
000418: 16,2560           77732                           SL2R
000419: 16,2561           57325                           PDDL     DMPR
000420: 16,2562           01606                                    WANGO
000421: 16,2563           01726                                    BPLAC      +4
000422: 16,2564           77615                           DAD
000423: 16,2565           01636                                    DRIFTI
000424: 16,2566           77625                           DSU
000425: 16,2567           57325                           PDDL     DMPR
000426: 16,2570           01612                                    WANGT
000427: 16,2571           01610                                    WANGI
000428: 16,2572           45415                           DAD      STADR
000429: 16,2573           70037                           STODL    WPLATI
000430: 16,2574           01732                                    BPLAC      +8D
000431: 16,2575           76405                           DMP      SL1R
000432: 16,2576           01722                                    BPLAC
000433: 16,2577           57325                           PDDL     DMPR
000434: 16,2600           01724                                    BPLAC      +2
000435: 16,2601           01730                                    BPLAC      +6
000436: 16,2602           76405                           DMP      SL1R
000437: 16,2603           01726                                    BPLAC      +4
000438: 16,2604           77621                           BDSU
000439: 16,2605           77675                           DMPR
000440: 16,2606           01610                                    WANGI
000441: 16,2607           57325                           PDDL     DMPR
000442: 16,2610           01724                                    BPLAC      +2
000443: 16,2611           01734                                    BPLAC      +10D
000444: 16,2612           76405                           DMP      SL1R
000445: 16,2613           01606                                    WANGO
000446: 16,2614           77621                           BDSU
000447: 16,2615           01640                                    DRIFTT
000448: 16,2616           45415                           DAD      STADR                                 #   WPLATT NOW IN MPAC
000449: 16,2617           76035                           STORE    WPLATT                                #  PUSH IT DOWN-X IT BY SANG +2
000450: 16,2620           74475                           DMPR     SR1R
000451: 16,2621           01724                                    BPLAC      +2
000452: 16,2622           57325                           PDDL     DMPR
000453: 16,2623           01736                                    WPLATO
000454: 16,2624           01732                                    BPLAC      +8D
000455: 16,2625           77615                           DAD
000456: 16,2626           77671                           DDV
000457: 16,2627           01734                                    BPLAC      +10D
000458: 16,2630           57206                           PUSH     DMPR
000459: 16,2631           34153                                    GEORGEK
000460: 16,2632           43261                           SRR      DAD
000461: 16,2633           01616                                    13D
000462: 16,2634           01632                                    ANGX
000463: 16,2635           07632                           STODL    ANGX
000464: 16,2636           43275                           DMPR     DAD
000465: 16,2637           01726                                    BPLAC      +4
000466: 16,2640           01740                                    WPLATI
000467: 16,2641           54275                           DMPR     SRR
000468: 16,2642           34153                                    GEORGEK
000469: 16,2643           01616                                    13D
000470: 16,2644           77615                           DAD
000471: 16,2645           01630                                    ANGY
000472: 16,2646           07630                           STODL    ANGY
000473: 16,2647           01732                                    BPLAC      +8D
000474: 16,2650           76405                           DMP      SL1R                                  #  MULTIPLY X WPLATT -SL1- PUSH AND RELOAD
000475: 16,2651           01742                                    WPLATT
000476: 16,2652           57325                           PDDL     DMPR
000477: 16,2653           01724                                    BPLAC      +2
000478: 16,2654           01736                                    WPLATO
000479: 16,2655           77621                           BDSU
000480: 16,2656           54275                           DMPR     SRR
000481: 16,2657           34153                                    GEORGEK
000482: 16,2660           01616                                    13D
000483: 16,2661           77615                           DAD
000484: 16,2662           01624                                    ANGZ
000485: 16,2663           01624                           STORE    ANGZ
000486: 16,2664           77776                           EXIT
000487:
000488: 16,2665           11527        ONCEMORE           CCS      LENGTHOT
000489: 16,2666           02677                           TC       SLEEPIE
000490: 16,2667           03463                           TC       SETUPER
000491:
000492: 16,2670           11704                           CCS      GEOCOMPS
000493: 16,2671           02705                           TC       SAVEST
000494:
000495: 16,2672           11611                           CCS      TORQNDX
000496: 16,2673           02675                           TC       +2
000497: 16,2674           03201                           TC       GOAGAIN
000498: 16,2675           04064                           TC       BANKCALL
000499: 16,2676           37717                           CADR     VALMIS
000500:
000501: 16,2677           55527        SLEEPIE            TS       LENGTHOT                              #  TEST NOT OVER-DECREMENT LENGTHOT
000502: 16,2700           04517                           TC       PHASCHNG                              #   CHANGE PHASE
000503: 16,2701           00301                           OCT      00301
000504: 16,2702           11611                           CCS      TORQNDX                               #  ARE WE DOING VERTDRIFT
000505: 16,2703           02715                           TC       EARTTPRQ                              #  YES,DO HOR ERATE TORQ THEN SLEEP
000506: 16,2704           04353                           TC       ENDOFJOB
000507:
000508: 16,2705           06000        SAVEST             TC       INTPRET
000509: 16,2706           77745                           DLOAD
000510: 16,2707           01632                                    ANGX
000511: 16,2710           07025                           STODL    ANGXSAV
000512: 16,2711           01702                                    GAZ1
000513: 16,2712           01027                           STORE    GAZ1SAV
000514: 16,2713           77776                           EXIT
000515: 16,2714           03201                           TC       GOAGAIN
000516:
000517: 16,2715           04064        EARTTPRQ           TC       BANKCALL                              #  IN VERTDRIFT,ADD HOR ERATE AND SLEEP
000518: 16,2716           14433                           CADR     EARTHR
000519: 16,2717           04353                           TC       ENDOFJOB
000520:
000521: 16,2720           77743        ALFDK              DEC      -28        B-14                       #  SLOPES AND TIME CONSTANTS FOR FIRST 30SC
000522: 16,2721           77776                           DEC      -1         B-14
000523: 16,2722           35143 10237                     2DEC     .91230833                             #  TIME CONSTANTS-PIPA OUTPUTS
000524:
000525: 16,2724           31766 26106                     2DEC     .81193187                             #  TIME CONSTANT-ERECTION ANGLES
000526:
000527: 16,2726           77772 43677                     2DEC     -.00035882                            #  SLOPE-AZIMUTH ANGLE
000528:
000529: 16,2730           77777 77661                     2DEC     -.00000029                            #  SLOPE-VERTICAL DRIFT
000530:
000531: 16,2732           00002 05420                     2DEC     .00013262                             #  SLOPE-NORTH SOUTH DRIFT
000532:
000533:
000534: 16,2734           77705                           DEC      -58        B-14                       #  31-90 SEC
000535: 16,2735           77776                           DEC      -1         B-14
000536: 16,2736           37560 05346                     2DEC     .99122133
000537:
000538: 16,2740           37522 15525                     2DEC     .98940595
000539:
000540: 16,2742           77763 41604                     2DEC     -.00079010
000541:
000542: 16,2744           77777 76470                     2DEC     -.00000265
000543:
000544: 16,2746           00007 02201                     2DEC     .00043154
000545:
000546:
000547: 16,2750           77767                           DEC      -8         B-14                       #  91-100 SEC
000548: 16,2751           77776                           DEC      -1         B-14
000549: 16,2752           37773 10042                     2DEC     .99971021
000550:
000551: 16,2754           37747 30232                     2DEC     .99852047
000552:
000553: 16,2756           00006 37666                     2DEC     .00042697
000554:
000555: 16,2760           77777 76703                     2DEC     -.00000213
000556:
000557: 16,2762           00001 36147                     2DEC     .00011864
000558:
000559: 16,2764           77635                           DEC      -98        B-14                       #  101-200 SEC
000560: 16,2765           77776                           DEC      -1         B-14
000561: 16,2766           37666 11022                     2DEC     .99550063
000562:
000563: 16,2770           37532 33647                     2DEC     .98992124
000564:
000565: 16,2772           00007 03641                     2DEC     .00043452
000566:
000567: 16,2774           77777 75713                     2DEC     -.00000401
000568:
000569: 16,2776           77774 54605                     2DEC     -.00021980
000570:
000571:
000572: 16,3000           77407                           DEC      -248       B-14                       #  201-450 SEC
000573: 16,3001           77776                           DEC      -1         B-14
000574: 16,3002           37712 16755                     2DEC     .99673264
000575:
000576: 16,3004           37630 01160                     2DEC     .99365467
000577:
000578: 16,3006           00000 23600                     2DEC     .00003767
000579:
000580: 16,3010           77777 63663                     2DEC     -.00002317
000581:
000582: 16,3012           77777 56527                     2DEC     -.00003305
000583:
000584:
000585: 16,3014           77255                           DEC      -338       B-14                       #  451-790 SEC
000586: 16,3015           77776                           DEC      -1         B-14
000587: 16,3016           37763 23341                     2DEC     .99924362
000588:
000589: 16,3020           37755 26170                     2DEC     .99888274
000590:
000591: 16,3022           00000 00254                     2DEC     .00000064
000592:
000593: 16,3024           77777 52755                     2DEC     -.00004012
000594:
000595: 16,3026           77777 76764                     2DEC     -.00000195
000596:
000597:
000598: 16,3030           77147                           DEC      -408       B-14                       #  791-1200 SEC
000599: 16,3031           77776                           DEC      -1         B-14
000600: 16,3032           37772 02343                     2DEC     .99963845
000601:
000602: 16,3034           37761 30560                     2DEC     .99913162
000603:
000604: 16,3036           00000 00362                     2DEC     .00000090
000605:
000606: 16,3040           00000 17261                     2DEC     .00002927
000607:
000608: 16,3042           77777 77671                     2DEC     -.00000026
000609:
000610:
000611: 16,3044           77015                           DEC      -498       B-14                       #  1201-1700 SEC
000612: 16,3045           77776                           DEC      -1         B-14
000613: 16,3046           37765 12403                     2DEC     .99934865
000614:
000615: 16,3050           37752 20062                     2DEC     .99868793
000616:
000617: 16,3052           00000 00224                     2DEC     .00000055
000618:
000619: 16,3054           00000 06150                     2DEC     .00001183
000620:
000621: 16,3056           77777 77762                     2DEC     -.00000005
000622:
000623:
000624: 16,3060           77161                           DEC      -398       B-14                       #  1701-2100 SEC
000625: 16,3061           77776                           DEC      -1         B-14
000626: 16,3062           37767 12513                     2DEC     .99947099
000627:
000628: 16,3064           37756 30343                     2DEC     .99894799
000629:
000630: 16,3066           00000 00060                     2DEC     .00000018
000631:
000632: 16,3070           00000 01445                     2DEC     .00000300
000633:
000634: 16,3072           77777 77774                     2DEC     -.00000001
000635:
000636:
000637: 16,3074           76651                           DEC      -598       B-14                       #  2101-2700 SEC
000638: 16,3075           77776                           DEC      -1         B-14
000639: 16,3076           37771 02603                     2DEC     .99957801
000640:
000641: 16,3100           37762 10061                     2DEC     .99916095
000642:
000643: 16,3102           00000 00023                     2DEC     .00000007
000644:
000645: 16,3104           00000 00402                     2DEC     .00000096
000646:
000647: 16,3106           00000 00000                     2DEC     .00000000
000648:
000649:
000650: 16,3110           76505                           DEC      -698       B-14                       #  2700-3400 SEC
000651: 16,3111           77776                           DEC      -1         B-14
000652: 16,3112           37772 22005                     2DEC     .99966814
000653:
000654: 16,3114           37765 05560                     2DEC     .99933952
000655:
000656: 16,3116           00000 00005                     2DEC     .00000002
000657:
000658: 16,3120           00000 00113                     2DEC     .00000028
000659:
000660: 16,3122           00000 00000                     2DEC     .00000000
000661:
000662:
000663: 16,3124           76651                           DEC      -598       B-14                       #  3401-4000 SEC
000664: 16,3125           77776                           DEC      -1         B-14
000665: 16,3126           37773 20750                     2DEC     .99972716
000666:
000667: 16,3130           37767 03044                     2DEC     .99945654
000668:
000669: 16,3132           00000 00003                     2DEC     .00000001
000670:
000671: 16,3134           00000 00033                     2DEC     .00000010
000672:
000673: 16,3136           00000 00000                     2DEC     .00000000
000674:
000675:
000676: 16,3140           40577                           DEC      -16000     B-14                       #  4001- SEC
000677: 16,3141           77776                           DEC      -1         B-14
000678: 16,3142           37777 37775                     2DEC     .99999999
000679:
000680: 16,3144           37777 37775                     2DEC     .99999999
000681:
000682: 16,3146           00000 00000                     2DEC     .00000000
000683:
000684: 16,3150           00000 00000                     2DEC     .00000000
000685:
000686: 16,3152           00000 00000                     2DEC     .00000000
000687:
000688:
000689: 16,3154           00004        INTVAL             OCT      4
000690: 16,3155           00002                           OCT      2
000691: 16,3156           00234                           DEC      156        B-14
000692: 16,3157           77776                           DEC      -1         B-14
000693: 16,3160           35730 00035  SOUPLY             2DEC     .93505870                             #  INITIAL GAINS FOR PIP OUTPUTS
000694: 16,3162           10317 17550                     2DEC     .26266423                             #  INITIAL GAINS/4 FOR ERECTION ANGLES
000695:
000696:
000697: 16,3164           47652        GTSCPSS            CS       ONE
000698: 16,3165           55704                           TS       GEOCOMPS                              #  THIS IS THE LEAD IN FOR COMPASS
000699: 16,3166           37657                           CA       ZERO
000700: 16,3167           55703                           TS       GTSOPNDZ
000701: 16,3170           55776                           TS       PREMTRXC
000702: 16,3171           03274                           TC       CALCXSM
000703: 16,3172           04064                           TC       BANKCALL
000704: 16,3173           36010                           CADR     GEOIMUTT                              #  TO IMU PERF TESTS 2
000705:
000706: 16,3174           01575        LALK4              GENADR   ALK        +4D
000707: 16,3175           01000        GBIT10             OCT      01000
000708: 16,3176           00015        13DECML            DEC      13         B-14
000709: 16,3177           00144        1SEC               DEC      100        B-14
000710: 16,3200           00226        150DECML           DEC      150        B-14
000711:
000712: 16,3201           04517        GOAGAIN            TC       PHASCHNG
000713: 16,3202           00401                           OCT      00401
000714:
000715: 16,3203           31704                           CA       GEOCOMPS
000716: 16,3204           55022                           TS       GEOSAVED
000717: 16,3205           10000                           CCS      A
000718: 16,3206           03212                           TC       +4
000719: 16,3207           03230                           TC       SETUPER1
000720: 16,3210           03270                           TC       SOMERR2
000721: 16,3211           03227                           TC       GOAGAIN1
000722:
000723: 16,3212           06000                           TC       INTPRET
000724: 16,3213           77745                           DLOAD
000725: 16,3214           01025                                    ANGXSAV
000726: 16,3215           07632                           STODL    ANGX
000727: 16,3216           01027                                    GAZ1SAV
000728: 16,3217           01702                           STORE    GAZ1
000729:
000730: 16,3220           41225                           DSU      DMP
000731: 16,3221           01706                                    GAZIMUTH
000732: 16,3222           34155                                    PI/4.0
000733: 16,3223           43272                           SL3R     DAD
000734: 16,3224           01632                                    ANGX
000735: 16,3225           01632                           STORE    ANGX
000736: 16,3226           77776                           EXIT
000737:
000738: 16,3227           03274        GOAGAIN1           TC       CALCXSM
000739:
000740: 16,3230           06000        SETUPER1           TC       INTPRET
000741: 16,3231           65345                           DLOAD    PDDL                                  #  ANGLES FROM DRIFT TEST ONLY
000742: 16,3232           01624                                    ANGZ
000743: 16,3233           01630                                    ANGY
000744: 16,3234           55525                           PDDL     VDEF
000745: 16,3235           01632                                    ANGX
000746: 16,3236           74276                           VCOMP    VXSC
000747: 16,3237           34151                                    GEORGEJ
000748: 16,3240           74521                           MXV      VSR1
000749: 16,3241           01001                                    GEOMTRX
000750: 16,3242           01522                           STORE    GYROD
000751: 16,3243           77776                           EXIT
000752:
000753:
000754: 16,3244           04517        TORQINCH           TC       PHASCHNG
000755: 16,3245           00501                           OCT      00501
000756: 16,3246           32156                           CA       AINGYRO
000757: 16,3247           04064                           TC       BANKCALL
000758: 16,3250           26333                           CADR     IMUPULSE
000759: 16,3251           04064                           TC       BANKCALL
000760: 16,3252           26730                           CADR     IMUSTALL
000761: 16,3253           03270                           TC       SOMERR2                               #  BAD GYRO TORQUE-END OF TEST
000762:
000763: 16,3254           11022        RETORQIN           CCS      GEOSAVED
000764: 16,3255           03316                           TC       GCSTART
000765: 16,3256           04064                           TC       BANKCALL
000766: 16,3257           36071                           CADR     TORQUE
000767:
000768: 16,3260           03425                           TC       GOGAZCHK
000769:
000770: 16,3261           00003        SOMEERRR           RELINT
000771: 16,3262           05644                           TC       ALARM
000772: 16,3263           01600                           OCT      1600
000773: 16,3264           02665                           TC       ONCEMORE
000774:
000775: 16,3265           05644        SOMERR1            TC       ALARM
000776: 16,3266           01601                           OCT      1601
000777: 16,3267           02665                           TC       ONCEMORE
000778:
000779: 16,3270           05644        SOMERR2            TC       ALARM
000780: 16,3271           01602                           OCT      1602
000781: 16,3272           04064                           TC       BANKCALL
000782: 16,3273           14756                           CADR     ENDTEST
000783:
000784: 16,3274           00006        CALCXSM            EXTEND
000785: 16,3275           23547                           QXCH     QPLACES
000786: 16,3276           06000                           TC       INTPRET
000787: 16,3277           77745                           DLOAD
000788: 16,3300           01706                                    GAZIMUTH
000789: 16,3301           01702                           STORE    GAZ1
000790: 16,3302           73406                           PUSH     SIN
000791: 16,3303           07713                           STODL    SINGAZ
000792: 16,3304           77746                           COS
000793: 16,3305           01715                           STORE    COSGAZ
000794: 16,3306           01411                           STORE    YSM        +2
000795: 16,3307           07405                           STODL    XSM        +4
000796: 16,3310           01713                                    SINGAZ
000797: 16,3311           01413                           STORE    YSM        +4
000798: 16,3312           77676                           VCOMP
000799: 16,3313           01403                           STORE    XSM        +2
000800: 16,3314           77776                           EXIT
000801: 16,3315           01547                           TC       QPLACES
000802:
000803: 16,3316           11703        GCSTART            CCS      GTSOPNDZ
000804: 16,3317           03321                           TC       +2
000805: 16,3320           02000                           TC       ESTIMS
000806: 16,3321           03463                           TC       SETUPER
000807:
000808: 16,3322           00004                           INHINT
000809: 16,3323           37657                           CAF      ZERO
000810: 16,3324           55613                           TS       FILDELVX
000811: 16,3325           55615                           TS       FILDELVY
000812: 16,3326           55617                           TS       FILDELVZ
000813:
000814: 16,3327           33177                           CAF      1SEC
000815: 16,3330           04451                           TC       WAITLIST
000816: 16,3331           03337 34005                     2CADR    GAZCHECK
000817:
000818: 16,3333           00003                           RELINT
000819: 16,3334           04517                           TC       PHASCHNG
000820: 16,3335           00601                           OCT      00601
000821: 16,3336           04353                           TC       ENDOFJOB
000822:
000823: 16,3337           41701        GAZCHECK           CS       GAZ1
000824: 16,3340           61705                           AD       GAZIMUTH
000825: 16,3341           00006                           EXTEND
000826: 16,3342           13346                           BZF      GAZCHK2
000827:
000828: 16,3343           37652        GAZCHK1            CA       ONE
000829: 16,3344           55617                           TS       FILDELVZ
000830: 16,3345           03363                           TC       GCHKOUT
000831:
000832: 16,3346           41702        GAZCHK2            CS       GAZ1       +1
000833: 16,3347           31706                           CA       GAZIMUTH   +1
000834: 16,3350           00006                           EXTEND
000835: 16,3351           13353                           BZF      +2
000836: 16,3352           03343                           TC       GAZCHK1
000837:
000838: 16,3353           11613                           CCS      FILDELVX
000839: 16,3354           03370                           TC       GAZCHK3
000840: 16,3355           00004                           INHINT
000841: 16,3356           33177                           CAF      1SEC
000842: 16,3357           04451                           TC       WAITLIST
000843: 16,3360           03337 34005                     2CADR    GAZCHECK
000844:
000845: 16,3362           00003                           RELINT
000846:
000847: 16,3363           37635        GCHKOUT            CAF      PRIO20
000848: 16,3364           04307                           TC       FINDVAC
000849: 16,3365           03373 34005                     2CADR    GTSPHAS7
000850:
000851: 16,3367           04505                           TC       TASKOVER
000852:
000853: 16,3370           37652        GAZCHK3            CAF      ONE
000854: 16,3371           55615                           TS       FILDELVY
000855: 16,3372           03363                           TC       GCHKOUT
000856:
000857: 16,3373           04517        GTSPHAS7           TC       PHASCHNG
000858: 16,3374           00701                           OCT      00701
000859:
000860: 16,3375           04064                           TC       BANKCALL
000861: 16,3376           14433                           CADR     EARTHR
000862: 16,3377           11617        CALCANGX           CCS      FILDELVZ
000863: 16,3400           03402                           TC       +2
000864: 16,3401           03437                           TC       ENDGCHK
000865:
000866: 16,3402           06000                           TC       INTPRET
000867: 16,3403           45345                           DLOAD    DSU
000868: 16,3404           01702                                    GAZ1
000869: 16,3405           01706                                    GAZIMUTH
000870: 16,3406           56405                           DMP      SL3R
000871: 16,3407           34155                                    PI/4.0
000872: 16,3410           01632                           STORE    ANGX
000873: 16,3411           77776                           EXIT
000874:
000875: 16,3412           04517                           TC       PHASCHNG
000876: 16,3413           01001                           OCT      01001
000877:
000878: 16,3414           37657        RESETGTS           CAF      ZERO
000879: 16,3415           55627                           TS       ANGY
000880: 16,3416           55630                           TS       ANGY       +1
000881: 16,3417           55623                           TS       ANGZ
000882: 16,3420           55624                           TS       ANGZ       +1
000883: 16,3421           55617                           TS       SAVE
000884: 16,3422           40000                           CS       A
000885: 16,3423           55704                           TS       GEOCOMPS
000886: 16,3424           03201                           TC       GOAGAIN
000887:
000888: 16,3425           03463        GOGAZCHK           TC       SETUPER
000889: 16,3426           00004                           INHINT
000890: 16,3427           37652                           CAF      ONE
000891: 16,3430           55704                           TS       GEOCOMPS
000892: 16,3431           33177                           CAF      1SEC
000893: 16,3432           04451                           TC       WAITLIST
000894: 16,3433           03337 34005                     2CADR    GAZCHECK
000895:
000896: 16,3435           00003                           RELINT
000897: 16,3436           03441                           TC       +3
000898:
000899: 16,3437           11615        ENDGCHK            CCS      FILDELVY
000900: 16,3440           03444                           TC       +4
000901: 16,3441           04517                           TC       PHASCHNG
000902: 16,3442           00601                           OCT      00601
000903: 16,3443           04353                           TC       ENDOFJOB
000904:
000905: 16,3444           37657                           CAF      ZERO
000906: 16,3445           55703                           TS       GTSOPNDZ
000907: 16,3446           02000                           TC       ESTIMS
000908:
000909: 16,3447           11615        RECALCAX           CCS      FILDELVY
000910: 16,3450           03377                           TC       CALCANGX
000911: 16,3451           11617                           CCS      FILDELVZ
000912: 16,3452           03377                           TC       CALCANGX
000913: 16,3453           03463                           TC       SETUPER
000914: 16,3454           00004                           INHINT
000915: 16,3455           33177                           CAF      1SEC
000916: 16,3456           04451                           TC       WAITLIST
000917: 16,3457           03337 34005                     2CADR    GAZCHECK
000918:
000919: 16,3461           00003                           RELINT
000920: 16,3462           03377                           TC       CALCANGX
000921:
000922: 16,3463           00006        SETUPER            EXTEND                                         #  SUBROUTINE CALLED IN 3 PLACES
000923: 16,3464           23547                           QXCH     QPLACES
000924: 16,3465           06000                           TC       INTPRET
000925: 16,3466           77634                           CALL
000926: 16,3467           14416                                    ERTHRVSE
000927: 16,3470           77776                           EXIT
000928: 16,3471           04064                           TC       BANKCALL
000929: 16,3472           14740                           CADR     OGCZERO
000930: 16,3473           01547                           TC       QPLACES
000931:
000932: 16,3474           51075        OPTMSTRT           INDEX    PHASE1
000933: 16,3475           03475                           TC       +0
000934: 16,3476           03507                           TC       GTSGTS1
000935: 16,3477           03514                           TC       GTSGTS2
000936: 16,3500           03521                           TC       GTSGTS3
000937: 16,3501           03526                           TC       GTSGTS4
000938: 16,3502           03533                           TC       GTSGTS5
000939: 16,3503           03540                           TC       GTSGTS6
000940: 16,3504           03545                           TC       GTSGTS7
000941: 16,3505           03552                           TC       GTSGTS10
000942: 16,3506           03557                           TC       GTSGTS11
000943:
000944:
000945: 16,3507           37635        GTSGTS1            CAF      PRIO20
000946: 16,3510           04307                           TC       FINDVAC
000947: 16,3511           02010 34005                     2CADR    RSTGTS1
000948:
000949: 16,3513           04077                           TC       SWRETURN
000950: 16,3514           37652        GTSGTS2            CAF      ONE
000951: 16,3515           04451                           TC       WAITLIST
000952: 16,3516           02220 34005                     2CADR    ALLOOP1
000953:
000954: 16,3520           04077                           TC       SWRETURN
000955: 16,3521           37652        GTSGTS3            CAF      ONE
000956: 16,3522           04451                           TC       WAITLIST
000957: 16,3523           02205 34005                     2CADR    ALLOOP
000958:
000959: 16,3525           04077                           TC       SWRETURN
000960: 16,3526           37635        GTSGTS4            CAF      PRIO20
000961: 16,3527           04307                           TC       FINDVAC
000962: 16,3530           03201 34005                     2CADR    GOAGAIN
000963:
000964: 16,3532           04077                           TC       SWRETURN
000965: 16,3533           37635        GTSGTS5            CAF      PRIO20
000966: 16,3534           04307                           TC       FINDVAC
000967: 16,3535           03254 34005                     2CADR    RETORQIN
000968:
000969: 16,3537           04077                           TC       SWRETURN
000970: 16,3540           37652        GTSGTS6            CAF      ONE
000971: 16,3541           04451                           TC       WAITLIST
000972: 16,3542           03337 34005                     2CADR    GAZCHECK
000973:
000974: 16,3544           04077                           TC       SWRETURN
000975:
000976: 16,3545           37635        GTSGTS7            CAF      PRIO20
000977: 16,3546           04307                           TC       FINDVAC
000978: 16,3547           03447 34005                     2CADR    RECALCAX
000979:
000980: 16,3551           04077                           TC       SWRETURN
000981: 16,3552           37635        GTSGTS10           CAF      PRIO20
000982: 16,3553           04307                           TC       FINDVAC
000983: 16,3554           03414 34005                     2CADR    RESETGTS
000984:
000985: 16,3556           04077                           TC       SWRETURN
000986: 16,3557           37635        GTSGTS11           CAF      PRIO20
000987: 16,3560           04307                           TC       FINDVAC
000988: 16,3561           02303 34005                     2CADR    REALFLT
000989:
000990: 16,3563           04077                           TC       SWRETURN
000991:
000992: 16,3564           02000        GEOBND             OCT      02000                                 #   BANK 4  -THIS IS THE STORE DTA SECTION
000993: 16,3565           02400        GEOBND1            OCT      02400                                 #  BANK NUMBER 5
000994:
000995:
000996: 16,3566           33564        STOREDTA           CAF      GEOBND
000997: 16,3567           54001                           TS       L
000998: 16,3570           37644                           CAF      BIT7
000999: 16,3571           54140                           TS       MPAC
001000: 16,3572           50140                           INDEX    MPAC
001001: 16,3573           31567                           CA       ALX1S
001002: 16,3574           22003                           LXCH     EBANK
001003: 16,3575  E4,1407                                  EBANK=   JETSTEP
001004: 16,3575           50140                           INDEX    MPAC
001005: 16,3576           55407                           TS       JETSTEP
001006: 16,3577           22003                           LXCH     EBANK
001007: 16,3600  E5,1400                                  EBANK=   XSM
001008: 16,3600           10140                           CCS      MPAC
001009: 16,3601           13603                           TCF      +2
001010: 16,3602           00002                           TC       Q
001011: 16,3603           54140                           TS       MPAC
001012: 16,3604           33564                           CAF      GEOBND
001013: 16,3605           54001                           TS       L
001014: 16,3606           13572                           TCF      STOREDTA   +4
001015:
001016:
001017: 16,3607           37644        LOADSTDT           CAF      BIT7
001018: 16,3610           54140                           TS       MPAC
001019: 16,3611           33564                           CA       GEOBND
001020: 16,3612           56003                           XCH      EBANK
001021: 16,3613           54001                           TS       L
001022: 16,3614  E4,1407                                  EBANK=   JETSTEP
001023: 16,3614           50140                           INDEX    MPAC
001024: 16,3615           31407                           CA       JETSTEP
001025: 16,3616           22003                           LXCH     EBANK
001026: 16,3617  E5,1400                                  EBANK=   XSM
001027: 16,3617           50140                           INDEX    MPAC
001028: 16,3620           55567                           TS       ALX1S
001029: 16,3621           10140                           CCS      MPAC
001030: 16,3622           13624                           TCF      +2
001031: 16,3623           00002                           TC       Q
001032: 16,3624           54140                           TS       MPAC
001033: 16,3625           13611                           TCF      LOADSTDT   +2
001034:
001035:                                                                                                  #  OPTICAL VERIFICATION ROUTINES FOR GYROCOMPASS
001036:
001037: 16,3626           04572        GCOMPVER           TC       NEWMODEX
001038: 16,3627           00010                           OCT      10
001039: 16,3630           04064                           TC       BANKCALL
001040: 16,3631           27033                           CADR     MKRELEAS
001041: 16,3632           37652                           CAF      ONE
001042: 16,3633           55703                           TS       GTSOPNDZ
001043:
001044: 16,3634           04064                           TC       BANKCALL
001045: 16,3635           15455                           CADR     OPTDATA2
001046:
001047: 16,3636           37652                           CAF      ONE
001048: 16,3637           55527                           TS       LENGTHOT
001049: 16,3640           00004                           INHINT
001050: 16,3641           33772                           CAF      10SECS
001051: 16,3642           04451                           TC       WAITLIST
001052: 16,3643           03650 34005                     2CADR    GCOMP2
001053:
001054: 16,3645           00003                           RELINT
001055: 16,3646           33767                           CAF      LGCOMP3
001056: 16,3647           04331                           TC       JOBSLEEP
001057:
001058: 16,3650           33767        GCOMP2             CAF      LGCOMP3
001059: 16,3651           04335                           TC       JOBWAKE
001060: 16,3652           04505                           TC       TASKOVER
001061:
001062: 16,3653           37652        GCOMP3             CAF      ONE
001063: 16,3654           54333                           TS       DSPTEM1
001064: 16,3655           37651                           CAF      TWO
001065: 16,3656           54334                           TS       DSPTEM1    +1
001066: 16,3657           33770                           CAF      V06N30E
001067: 16,3660           05563                           TC       NVSBWAIT
001068: 16,3661           37651                           CAF      TWO
001069: 16,3662           04064                           TC       BANKCALL
001070: 16,3663           26765                           CADR     SXTMARK
001071: 16,3664           04064                           TC       BANKCALL
001072: 16,3665           26726                           CADR     OPTSTALL
001073: 16,3666           03764                           TC       GTSOPTCS
001074:
001075: 16,3667           06000                           TC       INTPRET
001076: 16,3670           77634                           CALL
001077: 16,3671           14360                                    TAR/EREF
001078: 16,3672           64375                           VLOAD    MXV
001079: 16,3673           00007                                    6
001080: 16,3674           01401                                    XSM
001081: 16,3675           77772                           VSL1
001082: 16,3676           23445                           STOVL    STARAD
001083: 16,3677           00015                                    12D
001084: 16,3700           76521                           MXV      VSL1
001085: 16,3701           01401                                    XSM
001086: 16,3702           01453                           STORE    STARAD     +6D
001087: 16,3703           77140                           LXC,1    AXT,2
001088: 16,3704           00365                                    MARKSTAT
001089: 16,3705           00002                                    2
001090: 16,3706           67064                           XSU,2    SXA,2
001091: 16,3707           00046                                    X1
001092: 16,3710           00050                                    S1
001093: 16,3711           77634                           CALL
001094: 16,3712           16310                                    SXTNB
001095: 16,3713           77634                           CALL
001096: 16,3714           16130                                    NBSM
001097: 16,3715           01531                           STORE    LOSVEC
001098:
001099: 16,3716           62140                           LXC,1    INCR,1
001100: 16,3717           00365                                    MARKSTAT
001101: 16,3720           77770                           DEC      -7         B-14
001102: 16,3721           55174                           AXT,2    XSU,2
001103: 16,3722           00002                                    2
001104: 16,3723           00046                                    X1
001105: 16,3724           47134                           SXA,2    CALL
001106: 16,3725           00050                                    S1
001107: 16,3726           16310                                    SXTNB
001108: 16,3727           77634                           CALL
001109: 16,3730           16130                                    NBSM
001110: 16,3731           22015                           STOVL    12D
001111: 16,3732           01531                                    LOSVEC
001112: 16,3733           36007                           STCALL   6D
001113: 16,3734           16344                                    AXISGEN
001114: 16,3735           77634                           CALL
001115: 16,3736           16000                                    CALCGTA
001116: 16,3737           77776                           EXIT
001117:
001118: 16,3740           33771        GCOMP4             CAF      V06N60E
001119: 16,3741           05563                           TC       NVSBWAIT
001120: 16,3742           05525                           TC       FLASHON
001121: 16,3743           04724                           TC       ENDIDLE
001122: 16,3744           03755                           TC       GCOMP5
001123: 16,3745           13747                           TCF      +2
001124: 16,3746           13740                           TCF      GCOMP4
001125:
001126: 16,3747           06000                           TC       INTPRET
001127: 16,3750           53375                           VLOAD    VAD
001128: 16,3751           01501                                    OGC
001129: 16,3752           00406                                    ERCOMP
001130: 16,3753           00406                           STORE    ERCOMP
001131: 16,3754           77776                           EXIT
001132:
001133: 16,3755           37652        GCOMP5             CAF      ONE
001134: 16,3756           55613                           TS       FILDELVX
001135: 16,3757           04064                           TC       BANKCALL
001136: 16,3760           27033                           CADR     MKRELEAS
001137: 16,3761           04572                           TC       NEWMODEX
001138: 16,3762           00007                           OCT      07
001139: 16,3763           04353                           TC       ENDOFJOB
001140:
001141: 16,3764           05644        GTSOPTCS           TC       ALARM
001142: 16,3765           01603                           OCT      01603
001143: 16,3766           03755                           TC       GCOMP5
001144:
001145: 16,3767           35653        LGCOMP3            CADR     GCOMP3
001146: 16,3770           00630        V06N30E            OCT      00630
001147: 16,3771           00660        V06N60E            OCT      00660
001148: 16,3772           01750        10SECS             DEC      1000       B-14
001149:
001150: 16,3773                        ENDPREL1           EQUALS

End of include-file OPTIMUM_PRELAUNCH_ALIGNMENT_CALIBRATION.agc.  Parent file is MAIN.agc


