
Source Code


000002:                                                                                                  ## Copyright:   Public domain.
000003:                                                                                                  ## Filename:    PHASE_TABLE_MAINTENANCE.agc
000004:                                                                                                  ## Purpose:     A section of Sundial E.
000005:                                                                                                  ##              It is part of the reconstructed source code for the final
000006:                                                                                                  ##              release of the Block II Command Module system test software. No
000007:                                                                                                  ##              original listings of this program are available; instead, this
000008:                                                                                                  ##              file was created via disassembly of dumps of Sundial core rope
000009:                                                                                                  ##              modules and comparison with other AGC programs.
000010:                                                                                                  ## Assembler:   yaYUL
000011:                                                                                                  ## Contact:     Ron Burkey <info@sandroid.org>.
000012:                                                                                                  ## Website:     www.ibiblio.org/apollo/index.html
000013:                                                                                                  ## Mod history: 2023-06-22 MAS  Created from Aurora 12.
000014:                                                                                                  ##              2023-06-30 MAS  Updated for Sundial E.
000015:
000016:                                                                                                  #        THE FOLLOWING ROUTINES ARE PROVIDED TO MAINTAIN THE PHASE TABLE. TWO ROUTINES ARE AVAILABLE:
000017:
000018:                                                                                                  #                TC      PHASCHNG        SLOWER BUT LESS STORAGE.
000019:                                                                                                  #                OCT     PPPGG           CHANGE RESTART GROUP GG TO PHASE PPP
000020:                                                                                                  #                                        (PPP IS A SIGNED 8 BIT NUMBER).
000021:
000022:                                                                                                  #                CA      PPPPP           NEW PHASE ARRIVES IN A.
000023:                                                                                                  #                TC      NEWPHASE
000024:                                                                                                  #                OCT     000GG           UPDATES GG.
000025:
000026:                                                                                                  #        IN ALL CASES THE OLD PHASE RETURNS IN A. IF THE OLD PHASE WAS NEGATIVE, CALL A ROUTINE USING THE
000027:                                                                                                  #  CORRESPONDING TERMCADR.
000028:
000029:    4517                                           SETLOC   ENDWAITF
000030:
000031:    4517           00004        PHASCHNG           INHINT
000032:    4520           50002                           INDEX    Q
000033:    4521           30000                           CAF      0                                     #  GET PARAMETER WORD.
000034:    4522           54077                           TS       RUPTREG4
000035:    4523           75455                           MASK     LOW5                                  #  GROUP NUMBER 0 - 37.
000036:    4524           60000                           DOUBLE
000037:    4525           56077                           XCH      RUPTREG4
000038:    4526           00006                           EXTEND
000039:    4527           77642                           MP       BIT9                                  #  SIGNED NEW PHASE.
000040:    4530           14537                           TCF      PHASCH2
000041:
000042:    4531           00004        NEWPHASE           INHINT                                         #  NEW PHASE ARRIVES IN A.
000043:    4532           54077                           TS       RUPTREG4
000044:    4533           50002                           INDEX    Q
000045:    4534           30000                           CAF      0                                     #  GROUP NUMBER.
000046:    4535           60000                           DOUBLE
000047:    4536           56077                           XCH      RUPTREG4
000048:
000049:    4537           54001        PHASCH2            TS       L                                     #  DIRECT VERSION.
000050:    4540           40000                           COM                                            #  COMPLEMENTED VERSION IMMEDIATELY PRE-
000051:    4541           50077                           INDEX    RUPTREG4                              #  CEDES THE DIRECT ONE.
000052:    4542           53073                           DXCH     -PHASE0                               #  COPIES DISAGREE FOR MINIMUM TIME.
000053:    4543           00006                           EXTEND
000054:    4544           64560                           BZMF     PHASEXIT                              #  IF NO DERAIL.
000055:
000056:    4545           54074                           TS       RUPTREG1                              #  IF NEGATIVE, SAVE ABSOLUTE VALUE OF
000057:    4546           00006                           EXTEND                                         #  OLD PHASE AND RETURN Q.
000058:    4547           22075                           QXCH     RUPTREG2
000059:    4550           30077                           CA       RUPTREG4                              #  GET BACK GROUP NUMBER.
000060:    4551           00006                           EXTEND
000061:    4552           77635                           MP       HALF
000062:    4553           50000                           INDEX    A                                     #  SELECT TERMCADR.
000063:    4554           34564                           CAF      TERMCADR
000064:    4555           04136                           TC       ISWCALL
000065:
000066:    4556           52075                           DXCH     RUPTREG1                              #  -OLD PHASE BITS TO A - RETURN -1 TO L.
000067:    4557           22002                           LXCH     Q
000068:
000069:    4560           40000        PHASEXIT           COM                                            #  RETURN OLD PHASE IN A.
000070:    4561           00003                           RELINT
000071:    4562           50002                           INDEX    Q
000072:    4563           00001                           TC       1
000073:
000074:    4564           00000        TERMCADR           CADR     10000                                 #  FILLED IN AS NEEDED.
000075:    4565           00000                           CADR     10000
000076:    4566           00000                           CADR     10000
000077:    4567           00000                           CADR     10000
000078:    4570           00000                           CADR     10000
000079:    4571           00000                           CADR     10000
000080:
000081:                                                                                                  #        SUBROUTINE TO UPDATE THE PROGRAM NUMBER DISPLAY ON THE DSKY.
000082:
000083:    4572           50002        NEWMODEX           INDEX    Q                                     #  UPDATE MODREG.
000084:    4573           30000                           CAF      0
000085:    4574           24002                           INCR     Q
000086:    4575           56276                           XCH      MODREG
000087:    4576           40000                           COM                                            #  IF NO CHANGE IN MODE, RETURN IMMEDIATELY
000088:    4577           60276                           AD       MODREG
000089:    4600           00006                           EXTEND
000090:    4601           14615                           BZF      TCQ
000091:
000092:    4602           34604                           CAF      +2                                    #  CALL PINBALL SUBROUTINE.
000093:    4603           14070                           TCF      SWCALL                                #  WITH Q SET TO CALLERS RETURN.
000094:
000095:    4604           12001                           CADR     DSPMM
000096:
000097:                                                                                                  #        RETURN TO CALLER +3 IF MODE = THAT AT CALLER +1. OTHERWISE RETURN TO CALLER +2.
000098:
000099:    4605           50002        CHECKMM            INDEX    Q
000100:    4606           40000                           CS       0
000101:    4607           60276                           AD       MODREG
000102:    4610           00006                           EXTEND
000103:    4611           14614                           BZF      +3
000104:
000105:    4612           50002                           INDEX    Q
000106:    4613           00001                           TC       1                                     #  NO MATCH.
000107:
000108:    4614           50002                           INDEX    Q
000109:    4615           00002        TCQ                TC       2                                     #  (ALWAYS AVAILABLE TO BZF & BZMF)
000110:
000111:    4616                        ENDPHMNF           EQUALS

End of include-file PHASE_TABLE_MAINTENANCE.agc.  Parent file is MAIN.agc


