
Source Code


000002:                                                                                                  ## Copyright:   Public domain.
000003:                                                                                                  ## Filename:    PINBALL_GAME__BUTTONS_AND_LIGHTS.agc
000004:                                                                                                  ## Purpose:     A section of Sundial E.
000005:                                                                                                  ##              It is part of the reconstructed source code for the final
000006:                                                                                                  ##              release of the Block II Command Module system test software. No
000007:                                                                                                  ##              original listings of this program are available; instead, this
000008:                                                                                                  ##              file was created via disassembly of dumps of Sundial core rope
000009:                                                                                                  ##              modules and comparison with other AGC programs.
000010:                                                                                                  ## Assembler:   yaYUL
000011:                                                                                                  ## Contact:     Ron Burkey <info@sandroid.org>.
000012:                                                                                                  ## Website:     www.ibiblio.org/apollo/index.html
000013:                                                                                                  ## Mod history: 2023-06-22 MAS  Created from Aurora 12.
000014:                                                                                                  ##              2023-06-30 MAS  Updated for Sundial E.
000015:                                                                                                  ##              2023-07-03 MAS  Corrected a corrupted comment and some whitespace.
000016:
000017:
000018:
000019:                                                                                                  #  KEYBOARD AND DISPLAY PROGRAM
000020:
000021:
000022:
000023:                                                                                                  #  THE FOLLOWING QUOTATION IS PROVIDED THROUGH THE COUTESY OF THE AUTHORS.
000024:
000025:                                                                                                  #        ::IT WILL BE PROVED TO THY FACE THAT THOU HAST MEN ABOUT THEE THAT
000026:                                                                                                  #  USUALLY TALK OF A NOUN AND A VERB, AND SUCH ABOMINABLE WORDS AS NO
000027:                                                                                                  #  CHRISTIAN EAR CAN ENDURE TO HEAR.::
000028:
000029:                                                                                                  #                       HENRY 6, ACT 2, SCENE 4
000030:
000031:
000032:
000033:                                                                                                  #  THE FOLLOWING ASSIGNMENTS FOR PINBALL ARE MADE ELSEWHERE
000034:
000035:
000036:
000037:                                                                                                  #  RESERVED FOR PINBALL EXECUTIVE ACTION
000038:
000039:                                                                                                  #  DSPCOUNT      ERASE                   DISPLAY POSITION INDICATOR
000040:                                                                                                  #  DECBRNCH      ERASE                   +DEC, -DEC, OCT INDICATOR
000041:                                                                                                  #  VERBREG       ERASE                   VERB CODE
000042:                                                                                                  #  NOUNREG       ERASE                   NOUN CODE
000043:                                                                                                  #  XREG          ERASE                   R1 INPUT BUFFER
000044:                                                                                                  #  YREG          ERASE                   R2 INPUT BUFFER
000045:                                                                                                  #  ZREG          ERASE                   R3 INPUT BUFFER
000046:                                                                                                  #  XREGLP        ERASE                   LO PART OF XREG (FOR DEC CONV ONLY)
000047:                                                                                                  #  YREGLP        ERASE                   LO PART OF YREG (FOR DEC CONV ONLY)
000048:                                                                                                  #  ZREGLP        ERASE                   LO PART OF ZREG (FOR DEC CONV ONLY)
000049:                                                                                                  #  MODREG        ERASE                   MODE CODE
000050:                                                                                                  #  DSPLOCK       ERASE                   KEYBOARD/SUBROUTINE CALL INTERLOCK
000051:                                                                                                  #  REQRET        ERASE                   RETURN REGISTER FOR LOAD
000052:                                                                                                  #  LOADSTAT      ERASE                   STATUS INDICATOR FOR LOADTST
000053:                                                                                                  #  CLPASS        ERASE                   PASS INDICATOR CLEAR
000054:                                                                                                  #  NOUT          ERASE                   ACTIVITY COUNTER FOR DSPTAB
000055:                                                                                                  #  NOUNCADR      ERASE                   MACHINE CADR FOR NOUN
000056:                                                                                                  #  MONSAVE       ERASE                   N/V CODE FOR MONITOR. (= MONSAVE1-1)
000057:                                                                                                  #  MONSAVE1      ERASE                   NOUNCADR FOR MONITOR(MATBS) =MONSAVE +1
000058:                                                                                                  #  DSPTAB        ERASE           +13D    0-10,DISPLAY PANEL BUFFER.11-13,C RELAYS
000059:                                                                                                  #  CADRSTOR      ERASE                   ENDIDLE STORAGE
000060:                                                                                                  #  GRABLOCK      ERASE                   INTERNAL INTERLOCK FOR DISPLAY SYSTEM
000061:                                                                                                  #  NVQTEM        ERASE                   NVSUB STORAGE FOR CALLING ADDRESS
000062:                                                                                                  #                                        MUST = NVBNKTEM-1
000063:                                                                                                  #  NVBNKTEM      ERASE                   NVSUB STORAGE FOR CALLING BANK
000064:                                                                                                  #                                        MUST = NVQTEM+1
000065:                                                                                                  #  DSPLIST       ERASE           +2      WAITING LIST FOR DSP SYST INTERNAL USE
000066:                                                                                                  #  EXTVBACT      REASE                   EXTENDED VERB ACTIVITY INTERLOCK
000067:                                                                                                  #  DSPTEM1       ERASE           +2      BUFFER STORAGE AREA 1 (MOSTLY FOR TIME)
000068:                                                                                                  #  DSPTEM2       ERASE           +2      BUFFER STORAGE AREA 2 (MOSTLY FOR DEG)
000069:
000070:
000071:                                                                                                  #  END OF ERASABLES RESERVED FOR PINBALL EXECUTIVE ACTION
000072:
000073:
000074:
000075:                                                                                                  #  TEMPORARIES FOR PINBALL EXECUTIVE ACTION
000076:
000077:                                                                                                  #  DSEXIT   =      INTB15+         RETURN FOR DSPIN
000078:                                                                                                  #  EXITEM   =      INTB15+         RETURN FOR SCALE FACTOR ROUTINE SELECT
000079:                                                                                                  #  BLANKRET =      INTB15+         RETURN FOR 2BLANK
000080:
000081:                                                                                                  #  WRDRET   =      INTBIT15        RETURN FOR 5BLANK
000082:                                                                                                  #  WDRET    =      INTBIT15        RETURN FOR DSPWD
000083:                                                                                                  #  DECRET   =      INTBIT15        RETURN FOR PUTCOM(DEC LOAD)
000084:                                                                                                  #  21/22REG =      INTBIT15        TEMP FOR CHARIN
000085:
000086:                                                                                                  #  UPDATRET =      POLISH          RETURN FOR UPDATNN, UPDATVB
000087:                                                                                                  #  CHAR     =      POLISH          TEMP FOR CHARIN
000088:                                                                                                  #  ERCNT    =      POLISH          COUNTER FOR ERROR LIGHT RESET
000089:                                                                                                  #  DECOUNT  =      POLISH          COUNTER FOR SCALING AND DISPLAY (DEC)
000090:
000091:                                                                                                  #  SGNON    =      VBUF            TEMP FOR +,- ON
000092:                                                                                                  #  NOUNTEM  =      VBUF            COUNTER FOR MIXNOUN FETCH
000093:                                                                                                  #  DISTEM   =      VBUF            COUNTER FOR OCTAL DISPLAY VERBS
000094:                                                                                                  #  DECTEM   =      VBUF            COUNTER FOR FETCH (DEC DISPLAY VERBS)
000095:
000096:                                                                                                  #  SGNOFF   =       VBUF   +1      TEMP FOR +,- ON
000097:                                                                                                  #  NVTEMP   =       VBUF   +1      TEMP FOR NVSUB
000098:                                                                                                  #  SFTEMP1  =       VBUF   +1      STORAGE FOR SF CONST HI PART (=SFTEMP2-1)
000099:
000100:                                                                                                  #  CODE     =       VBUF   +2      FOR DSPIN
000101:                                                                                                  #  SFTEMP2  =       VBUF   +2      STORAGE FOR SF CONST LO PART (=SFTEMP1+1)
000102:
000103:                                                                                                  #  MIXTEMP  =       VBUF   +3      FOR MIXNOUN DATA
000104:                                                                                                  #  SIGNRET  =       VBUF   +3      RETURN FOR +,- ON
000105:
000106:                                                                                                  #  ALSO MIXTEMP+1 = VBUF+4, MIXTEMP+2 = VBUF+5.
000107:
000108:                                                                                                  #  ENTRET   =       DOTINC          EXIT FROM ENTER
000109:
000110:                                                                                                  #  WDCNT    =       DOTRET          CHAR COUNTER FOR DSPWD
000111:                                                                                                  #  INREL    =       DOTRET          INPUT BUFFER SELECTOR ( X, Y, Z, REG )
000112:
000113:                                                                                                  #  DSPMMTEM =       MATINC          DSPCOUNT SAVE FOR DSPMM
000114:                                                                                                  #  MIXBR    =       MATINC          INDICATOR FOR MIXED OR NORMAL NOUN
000115:
000116:                                                                                                  #  TEM1     ERASE                   EXEC TEMP
000117:                                                                                                  #  DSREL    =       TEM1            REL ADDRESS FOR DSPIN
000118:
000119:                                                                                                  #  TEM2     ERASE                   EXEC TEMP
000120:                                                                                                  #  DSMAG    =       TEM2            MAGNITUDE STORE FOR DSPIN
000121:
000122:                                                                                                  #  IDADDTEM =       TEM2            MIXNOUN INDIRECT ADDRESS STORAGE
000123:
000124:                                                                                                  #  TEM3     ERASE                   EXEC TEMP
000125:                                                                                                  #  COUNT    =       TEM3            FOR DSPIN
000126:
000127:                                                                                                  #  TEM4     ERASE                   EXEC TEMP
000128:                                                                                                  #  LSTPTR   =       TEM4            LIST POINTER FOR GRABUSY
000129:                                                                                                  #  RELRET   =       TEM4            RETURN FOR RELDSP
000130:                                                                                                  #  FREERET  =       TEM4            RETURN FOR FREEDSP
000131:
000132:                                                                                                  #  TEM5     ERASE                   EXEC TEMP
000133:                                                                                                  #  NOUNADD  =       TEM5            TEMP STORAGE FOR NOUN ADDRESS
000134:
000135:                                                                                                  #  NNADTEM  ERASE                   TEMP FOR NOUN ADDRESS TABLE ENTRY
000136:                                                                                                  #  NNTYPTEM ERASE                   TEMP FOR NOUN TYPE TABLE ENTRY
000137:                                                                                                  #  IDAD1TEM ERASE                   TEMP FOR INDIR ADRESS TABLE ENTRY(MIXNN)
000138:                                                                                                  #                                   MUST = IDAD2TEM-1, = IDAD3TEM-2.
000139:                                                                                                  #  IDAD2TEM ERASE                   TEMP FOR INDIR ADRESS TABLE ENTRY(MIXNN)
000140:                                                                                                  #                                   MUST = IDAD1TEM+1, = IDAD3TEM-1.
000141:                                                                                                  #  IDAD3TEM ERASE                   TEMP FOR INDIR ADRESS TABLE ENTRY(MIXNN)
000142:                                                                                                  #                                   MUST = IDAD1TEM+2,  = IDAD2TEM+1.
000143:                                                                                                  #  RUTMXTEM ERASE                   TEMP FOR SF ROUT TABLE ENTRY(MIXNN ONLY)
000144:                                                                                                  #  END OF TEMPORARIES FOR PINBALL EXECUTIVE ACTION
000145:
000146:
000147:
000148:                                                                                                  #  RESERVED FOR PINBALL INTERRUPT ACTION
000149:
000150:                                                                                                  #  DSPCNT   ERASE                   COUNTER FOR DSPOUT
000151:                                                                                                  #  UPLOCK   ERASE                   BIT1 = UPLINK INTERLOCK (ACTIVATED BY
000152:                                                                                                  #                                                                            RECEPTION OF A BAD MESSAGE IN UPLINK)
000153:                                                                                                  #  END OF ERASABLES RESERVED FOR PINBALL INTERRUPT ACTION
000154:
000155:
000156:
000157:                                                                                                  #  TEMPORARIES FOR PINBALL INTERRUPT ACTION
000158:
000159:                                                                                                  #  KEYTEMP1 =       WAITEXIT        TEMP FOR KEYRUPT, UPRUPT
000160:                                                                                                  #  DSRUPTEM =       WAITEXIT        TEMP FOR DSPOUT
000161:                                                                                                  #  KEYTEMP2 =       RUPTAGN         TEMP FOR KEYRUPT, UPRUPT
000162:                                                                                                  #  END OF TEMPORARIES FOR PINBALL INTERRUPT ACTION
000163:
000164:
000165:                                                                                                  #  THE INPUT CODES ASSUMED FOR THE KEYBOARD ARE,
000166:                                                                                                  #  0        10000
000167:                                                                                                  #  1        00001
000168:                                                                                                  #  9        01001
000169:                                                                                                  #  VERB     10001
000170:                                                                                                  #  ERROR RES10010
000171:                                                                                                  #  KEY RLSE 11001
000172:                                                                                                  #  +        11010
000173:                                                                                                  #  -        11011
000174:                                                                                                  #  ENTER    11100
000175:                                                                                                  #  CLEAR    11110
000176:                                                                                                  #  NOUN     11111
000177:
000178:
000179:
000180:                                                                                                  #  OUTPUT FORMAT FOR DISPLAY PANEL. SET OUT0 TO AAAABCCCCCDDDDD.
000181:                                                                                                  #  A-S SELECT A RELAYWORD. THIS DETERMINES WHICH PAIR OF CHARACTERS ARE
000182:                                                                                                  #  ENERGIZED.
000183:                                                                                                  #  B FOR SPECIAL RELAYS SUCH AS SIGNS ETC.
000184:                                                                                                  #  C-S  5 BIT RELAY CODE FOR LEFT CHAR OF PAIR SELECTED BY RELAYWORD
000185:                                                                                                  #  D-S  5 BIT RELAY CODE FOR RIGHT CHAR OF PAIR SELECTED BY RELAYWORD.
000186:
000187:                                                                                                  #  THE PANEL APPEARS AS FOLLOWS,
000188:                                                                                                  #  MD1    MD2                         (MAJOR MODE)
000189:                                                                                                  #  VD1    VD2 (VERB)    ND1    ND2    (NOUN)
000190:                                                                                                  #  R1D1   R1D2   R1D3   R1D4   R1D5   (R1)
000191:                                                                                                  #  R2D1   R2D2   R2D3   R2D4   R2D5   (R2)
000192:                                                                                                  #  R3D1   R3D2   R3D3   R3D4   R3D5   (R3)
000193:
000194:                                                                                                  #  EACH OF THESE IS GIVEN A DSPCOUNT NUMBER FOR USE WITHIN COMPUTATION ONLY
000195:                                                                                                  #  MD1   25     R2D1  11         ALL ARE OCTAL
000196:                                                                                                  #  MD2   24     R2D2  10
000197:                                                                                                  #  VD1   23     R2D3   7
000198:                                                                                                  #  VD2   22     R2D4   6
000199:                                                                                                  #  ND1   21     R2D5   5
000200:                                                                                                  #  ND2   20     R3D1   4
000201:                                                                                                  #  R1D1  16     R3D2   3
000202:                                                                                                  #  R1D2  15     R3D3   2
000203:                                                                                                  #  R1D3  14     R3D4   1
000204:                                                                                                  #  R1D4  13     R3D5   0
000205:                                                                                                  #  R1D5  12
000206:
000207:
000208:
000209:                                                                                                  #  THERE IS AN 11 REGISTER TABLE (DSPTAB) FOR THE DISPLAY PANEL.
000210:
000211:                                                                                                  #  DSPTAB RELAYWD       BIT11     BITS 10-6     BITS 5-1
000212:                                                                                                  #  RELADD
000213:                                                                                                  #  10     1011                    MD1 (25)      MD2 (24)
000214:                                                                                                  #  9      1010                    VD1 (23)      VD2 (22)
000215:
000216:                                                                                                  #  8      1001                    ND1 (21)      ND2 (20)
000217:                                                                                                  #  7      1000                                  R1D1 (16)
000218:                                                                                                  #  6      0111          +R1       R1D2 (15)     R1D3 (14)
000219:                                                                                                  #  5      0110          -R1       R1D4 (13)     R1D5 (12)
000220:                                                                                                  #  4      0101          +R2       R2D1 (11)     R2D2 (10)
000221:                                                                                                  #  3      0100          -R2       R2D3 (7)      R2D4 (6)
000222:                                                                                                  #  2      0011                    R2D5 (5)      R3D1 (4)
000223:                                                                                                  #  1      0010          +R3       R3D2 (3)      R3D3 (2)
000224:                                                                                                  #  0      0001          -R3       R3D4 (1)      R3D5 (0)
000225:                                                                                                  #         0000   NO RELAYWORD
000226:
000227:
000228:
000229:                                                                                                  #  THE 5 BIT RELAY CODES ARE,
000230:                                                                                                  #  BLANK      00000
000231:                                                                                                  #  0          10101
000232:                                                                                                  #  1          00011
000233:                                                                                                  #  2          11001
000234:                                                                                                  #  3          11011
000235:                                                                                                  #  4          01111
000236:                                                                                                  #  5          11110
000237:                                                                                                  #  6          11100
000238:                                                                                                  #  7          10011
000239:                                                                                                  #  8          11101
000240:                                                                                                  #  9          11111
000241:
000242:
000243:                                                                                                  #  START OF EXECUTIVE SECTION OF PINBALL
000244:
000245:
000246:
000247: 04,2000                                           SETLOC   20000
000248:
000249: 04,2000           03450        GRABUSYB           TC       GRABUSY1                              #  STANDARD LEAD INS. DONT MOVE.
000250: 04,2001           03472        NVSUBSYB           TC       NVSUBSY1
000251:
000252: 04,2002           37652        CHARIN             CAF      ONE                                   #  BLOCK DISPLAY SYST
000253: 04,2003           56277                           XCH      DSPLOCK                               #  MAKE DSP SYST BUSY, BUT SAVE OLD
000254: 04,2004           54101                           TS       21/22REG                              #  C(DSPLOCK) FOR ERROR LIGHT RESET.
000255: 04,2005           56140                           XCH      MPAC
000256: 04,2006           54103                           TS       CHAR
000257: 04,2007           50000                           INDEX    A
000258: 04,2010           02011                           TC       +1                                    #  INPUT CODE     FUNCTION
000259: 04,2011           03271                           TC       CHARALRM                              #  0
000260: 04,2012           02062                           TC       NUM                                   #  1
000261: 04,2013           02062                           TC       NUM                                   #  2
000262: 04,2014           02062                           TC       NUM                                   #  3
000263: 04,2015           02062                           TC       NUM                                   #  4
000264: 04,2016           02062                           TC       NUM                                   #  5
000265: 04,2017           02062                           TC       NUM                                   #  6
000266: 04,2020           02062                           TC       NUM                                   #  7
000267: 04,2021           02053                           TC       89TEST                                #  10                 8
000268: 04,2022           02053                           TC       89TEST                                #  11                 9
000269: 04,2023           03271                           TC       CHARALRM                              #  12
000270: 04,2024           03271                           TC       CHARALRM                              #  13
000271: 04,2025           03271                           TC       CHARALRM                              #  14
000272: 04,2026           03271                           TC       CHARALRM                              #  15
000273: 04,2027           03271                           TC       CHARALRM                              #  16
000274: 04,2030           03271                           TC       CHARALRM                              #  17
000275: 04,2031           02060                           TC       NUM        -2                         #  20                 0
000276: 04,2032           02235                           TC       VERB                                  #  21                 VERB
000277: 04,2033           02343                           TC       ERROR                                 #  22                 ERROR LIGHT RESET
000278: 04,2034           03271                           TC       CHARALRM                              #  23
000279: 04,2035           03271                           TC       CHARALRM                              #  24
000280: 04,2036           03271                           TC       CHARALRM                              #  25
000281: 04,2037           03271                           TC       CHARALRM                              #  26
000282: 04,2040           03271                           TC       CHARALRM                              #  27
000283: 04,2041           03271                           TC       CHARALRM                              #  30
000284: 04,2042           03314                           TC       VBRELDSP                              #  31                 KEY RELEASE
000285: 04,2043           02267                           TC       POSGN                                 #  32                 +
000286: 04,2044           02254                           TC       NEGSGN                                #  33                 -
000287: 04,2045           02051                           TC       ENTERJMP                              #  34                 ENTER
000288: 04,2046           03271                           TC       CHARALRM                              #  35
000289: 04,2047           02425                           TC       CLEAR                                 #  36                 CLEAR
000290: 04,2050           02250                           TC       NOUN                                  #  37                 NOUN
000291:
000292: 04,2051           04103        ENTERJMP           TC       POSTJUMP
000293: 04,2052           12003                           CADR     ENTER
000294:
000295: 04,2053           36165        89TEST             CAF      THREE
000296: 04,2054           70265                           MASK     DECBRNCH
000297: 04,2055           10000                           CCS      A
000298: 04,2056           02062                           TC       NUM                                   #  IF DECBRNCH IS +, 8 OR 9 OK
000299: 04,2057           03271                           TC       CHARALRM                              #  IF DECBRNCH IS +0, REJECT 8 OR 9
000300:
000301:
000302:
000303:                                                                                                  #  NUM ASSEMBLES OCTAL 3 BITS AT A TIME. FOR DECIMAL IT CONVERTS INCOMING
000304:                                                                                                  #  WORD AS A FRACTION, KEEPING RESULTS TO DP.
000305:                                                                                                  #  OCTAL RESULTS ARE LEFT IN XREG, YREG, OR ZREG. HI PART OF DEC IN XREG,
000306:                                                                                                  #  YREG, ZREG. THE LOW PARTS IN XREGLP, YREGLP, OR ZREGLP)
000307:                                                                                                  #  DECBRNCH IS LEFT AT +0 FOR OCT, +1 FOR + DEC, +2 FOR - DEC.
000308:                                                                                                  #  IF DSPCOUNT WAS LEFT -, NO MORE DATA IS ACCEPTED.
000309:
000310: 04,2060           37657                           CAF      ZERO
000311: 04,2061           54103                           TS       CHAR
000312: 04,2062           10264        NUM                CCS      DSPCOUNT
000313: 04,2063           02067                           TC       +4                                    #  +
000314: 04,2064           02067                           TC       +3                                    #  +0
000315: 04,2065           02066                           TC       +1                                    #  -BLOCK DATA IN IF DSPCOUNT IS -
000316: 04,2066           04353                           TC       ENDOFJOB                              #  -0
000317: 04,2067           02205                           TC       GETINREL
000318: 04,2070           10302                           CCS      CLPASS                                #  IF CLPASS IS + OR +0, MAKE IT +0.
000319: 04,2071           37657                           CAF      ZERO
000320: 04,2072           54302                           TS       CLPASS
000321: 04,2073           02074                           TC       +1
000322: 04,2074           50103                           INDEX    CHAR
000323: 04,2075           34640                           CAF      RELTAB
000324: 04,2076           75455                           MASK     LOW5
000325: 04,2077           54110                           TS       CODE
000326: 04,2100           30264                           CA       DSPCOUNT
000327: 04,2101           54127                           TS       COUNT
000328: 04,2102           03175                           TC       DSPIN
000329: 04,2103           36165                           CAF      THREE
000330: 04,2104           70265                           MASK     DECBRNCH
000331: 04,2105           10000                           CCS      A                                     #  +0, OCTAL.  +1, + DEC.  +2, - DEC.
000332: 04,2106           02117                           TC       DECTOBIN                              #  +
000333: 04,2107           50123                           INDEX    INREL                                 #  +0 OCTAL
000334: 04,2110           56266                           XCH      VERBREG
000335: 04,2111           54022                           TS       CYL
000336: 04,2112           40022                           CS       CYL
000337: 04,2113           40022                           CS       CYL
000338: 04,2114           56022                           XCH      CYL
000339: 04,2115           60103                           AD       CHAR
000340: 04,2116           02134                           TC       ENDNMTST
000341: 04,2117           50123        DECTOBIN           INDEX    INREL
000342:
000343:
000344: 04,2120           56266                           XCH      VERBREG
000345: 04,2121           54140                           TS       MPAC                                  #  SUM X 2EXP-14 IN MPAC
000346: 04,2122           37657                           CAF      ZERO
000347: 04,2123           54141                           TS       MPAC       +1
000348: 04,2124           37654                           CAF      TEN                                   #  10 X 2EXP-14
000349: 04,2125           07261                           TC       SHORTMP                               #  10SUM X 2EXP-28 IN MPAC, MPAC+1
000350: 04,2126           56141                           XCH      MPAC       +1
000351: 04,2127           60103                           AD       CHAR
000352: 04,2130           54141                           TS       MPAC       +1
000353: 04,2131           02134                           TC       ENDNMTST                              #  NO OF
000354: 04,2132           26140                           ADS      MPAC                                  #  OF MUST BE 5TH CHAR
000355: 04,2133           02152                           TC       DECEND
000356: 04,2134           50123        ENDNMTST           INDEX    INREL
000357: 04,2135           54266                           TS       VERBREG
000358: 04,2136           40264                           CS       DSPCOUNT
000359: 04,2137           50123                           INDEX    INREL
000360: 04,2140           62176                           AD       CRITCON
000361: 04,2141           00006                           EXTEND
000362: 04,2142           12144                           BZF      ENDNUM                                #  -0, DSPCOUNT = CRITCON
000363: 04,2143           02173                           TC       MORNUM                                #  - , DSPCOUNT G/ CRITCON
000364: 04,2144           36165        ENDNUM             CAF      THREE
000365: 04,2145           70265                           MASK     DECBRNCH
000366: 04,2146           10000                           CCS      A
000367: 04,2147           02152                           TC       DECEND
000368: 04,2150           40264        ENDALL             CS       DSPCOUNT                              #  BLOCK NUMIN BY PLACING DSPCOUNT
000369: 04,2151           02174                           TC       MORNUM     +1                         #  NEGATIVELY
000370: 04,2152           07063        DECEND             TC       DMP                                   #  MULT SUM X 2EXP-28 IN MPAC, MPAC+1 BY
000371: 04,2153           02203                           ADRES    DECON                                 #  2EXP14/10EXP5. GIVES(SUM/10EXP5)X2EXP-14
000372: 04,2154           36165                           CAF      THREE                                 #  IN MPAC, +1, +2.
000373: 04,2155           70265                           MASK     DECBRNCH
000374: 04,2156           50000                           INDEX    A
000375: 04,2157           02157                           TC       +0
000376: 04,2160           02164                           TC       +DECSGN
000377: 04,2161           00006                           EXTEND                                         #  - CASE
000378: 04,2162           40142                           DCS      MPAC       +1
000379: 04,2163           52142                           DXCH     MPAC       +1
000380: 04,2164           56142        +DECSGN            XCH      MPAC       +2
000381: 04,2165           50123                           INDEX    INREL
000382: 04,2166           54271                           TS       XREGLP     -2
000383: 04,2167           56141                           XCH      MPAC       +1
000384: 04,2170           50123                           INDEX    INREL
000385: 04,2171           54266                           TS       VERBREG
000386: 04,2172           02150                           TC       ENDALL
000387: 04,2173           10264        MORNUM             CCS      DSPCOUNT                              #  DECREMENT DSPCOUNT
000388: 04,2174           54264                           TS       DSPCOUNT
000389: 04,2175           04353                           TC       ENDOFJOB
000390:
000391: 04,2176           00022        CRITCON            OCT      22                                    #  (DEC 18)
000392: 04,2177           00020                           OCT      20                                    #  (DEC 16)
000393: 04,2200           00012                           OCT      12                                    #  (DEC 10)
000394:
000395: 04,2201           00005                           OCT      5
000396: 04,2202           00000                           OCT      0
000397:
000398: 04,2203           05174 13261  DECON              2DEC     E-5        B14                        #  2EXP14/10EXP5 = .16384 DEC
000399:
000400:
000401:                                                                                                  #  GETINREL GETS PROPER DATA REG REL ADDRESS FOR CURRENT C(DSPCOUNT) AND
000402:                                                                                                  #  PUTS IN INTO INREL. +0 VERBREG, 1 NOUNREG, 2 XREG, 3 YREG, 4 ZREG.
000403:
000404: 04,2205           50264        GETINREL           INDEX    DSPCOUNT
000405: 04,2206           32211                           CAF      INRELTAB
000406: 04,2207           54123                           TS       INREL                                 #  (A TEMP, REG)
000407: 04,2210           00002                           TC       Q
000408:
000409: 04,2211           00004        INRELTAB           OCT      4                                     #  R3D5 (DSPCOUNT = 0)
000410: 04,2212           00004                           OCT      4                                     #  R3D4           =(1)
000411: 04,2213           00004                           OCT      4                                     #  R3D3           =(2)
000412: 04,2214           00004                           OCT      4                                     #  R3D2           =(3)
000413: 04,2215           00004                           OCT      4                                     #  R3D1           =(4)
000414: 04,2216           00003                           OCT      3                                     #  R2D5           =(5)
000415: 04,2217           00003                           OCT      3                                     #  R2D4           =(6)
000416: 04,2220           00003                           OCT      3                                     #  R2D3           =(7)
000417: 04,2221           00003                           OCT      3                                     #  R2D2           =(8D)
000418: 04,2222           00003                           OCT      3                                     #  R2D1           =(9D)
000419: 04,2223           00002                           OCT      2                                     #  R1D5           =(10D)
000420: 04,2224           00002                           OCT      2                                     #  R1D4           =(11D)
000421: 04,2225           00002                           OCT      2                                     #  R1D3           =(12D)
000422: 04,2226           00002                           OCT      2                                     #  R1D2           =(13D)
000423: 04,2227           00002                           OCT      2                                     #  R1D1           =(14D)
000424: 04,2230           05715                           TC       CCSHOLE                               #  NO DSPCOUNT NUMBER = 15D
000425: 04,2231           00001                           OCT      1                                     #  ND2            =(16D)
000426: 04,2232           00001                           OCT      1                                     #  ND1            =(17D)
000427: 04,2233           00000                           OCT      0                                     #  VD2            =(18D)
000428: 04,2234           00000                           OCT      0                                     #  VD1            =(19D)
000429:
000430: 04,2235           37657        VERB               CAF      ZERO
000431: 04,2236           54266                           TS       VERBREG
000432: 04,2237           35470                           CAF      VD1
000433: 04,2240           54264        NVCOM              TS       DSPCOUNT
000434: 04,2241           02535                           TC       2BLANK
000435: 04,2242           37657                           CAF      ZERO
000436: 04,2243           54265                           TS       DECBRNCH
000437: 04,2244           54300                           TS       REQRET                                #  SET FOR ENTPAS0
000438: 04,2245           34734                           CAF      ENDINST                               #  IF DSPALARM OCCURS BEFORE FIRST ENTPAS0
000439: 04,2246           54122                           TS       ENTRET                                #  OR NVSUB, ENTRET MUST ALREADY BE SET
000440:                                                                                                  #  TO TC ENDOFJOB
000441: 04,2247           04353                           TC       ENDOFJOB
000442:
000443: 04,2250           37657        NOUN               CAF      ZERO
000444: 04,2251           54267                           TS       NOUNREG
000445: 04,2252           35471                           CAF      ND1                                   #  ND1, OCT 21 (DEC 17)
000446: 04,2253           02240                           TC       NVCOM
000447:
000448:
000449:
000450: 04,2254           02326        NEGSGN             TC       SIGNTEST
000451: 04,2255           02313                           TC       -ON
000452: 04,2256           37651                           CAF      TWO
000453: 04,2257           50123        BOTHSGN            INDEX    INREL                                 #  SET DEC COMP BIT TO 1 (IN DECBRNCH)
000454: 04,2260           67644                           AD       BIT7                                  #  BIT 5 FOR R1, BIT 4 FOR R2,
000455: 04,2261           26265                           ADS      DECBRNCH                              #  BIT 3 FOR R3.
000456: 04,2262           10302        FIXCLPAS           CCS      CLPASS                                #  IF CLPASS IS + OR +0, MAKE IT +0.
000457: 04,2263           37657                           CAF      ZERO
000458: 04,2264           54302                           TS       CLPASS
000459: 04,2265           02266                           TC       +1
000460: 04,2266           04353                           TC       ENDOFJOB
000461:
000462: 04,2267           02326        POSGN              TC       SIGNTEST
000463: 04,2270           02273                           TC       +ON
000464: 04,2271           37652                           CAF      ONE
000465: 04,2272           02257                           TC       BOTHSGN
000466:
000467: 04,2273           22002        +ON                LXCH     Q
000468: 04,2274           02205                           TC       GETINREL
000469: 04,2275           50123                           INDEX    INREL
000470: 04,2276           32321                           CAF      SGNTAB     -2
000471: 04,2277           54107                           TS       SGNOFF
000472: 04,2300           67652                           AD       ONE
000473: 04,2301           54106                           TS       SGNON
000474: 04,2302           37657        SGNCOM             CAF      ZERO
000475: 04,2303           54110                           TS       CODE
000476: 04,2304           56107                           XCH      SGNOFF
000477: 04,2305           03257                           TC       11DSPIN
000478: 04,2306           37640                           CAF      BIT11
000479: 04,2307           54110                           TS       CODE
000480: 04,2310           56106                           XCH      SGNON
000481: 04,2311           03257                           TC       11DSPIN
000482: 04,2312           00001                           TC       L
000483: 04,2313           22002        -ON                LXCH     Q
000484: 04,2314           02205                           TC       GETINREL
000485: 04,2315           50123                           INDEX    INREL
000486: 04,2316           32321                           CAF      SGNTAB     -2
000487: 04,2317           54106                           TS       SGNON
000488: 04,2320           67652                           AD       ONE
000489: 04,2321           54107                           TS       SGNOFF
000490: 04,2322           02302                           TC       SGNCOM
000491:
000492: 04,2323           00005        SGNTAB             OCT      5                                     #  -R1
000493:
000494: 04,2324           00003                           OCT      3                                     #  -R2
000495: 04,2325           00000                           OCT      0                                     #  -R3
000496:
000497:
000498:
000499: 04,2326           22002        SIGNTEST           LXCH     Q                                     #  ALLOWS +,- ONLY WHEN DSPCOUNT=R1D1,
000500: 04,2327           45426                           CS       R1D1                                  #  R2D1, OR R3D1.
000501: 04,2330           02336                           TC       SGNTST1
000502: 04,2331           45427                           CS       R2D1
000503: 04,2332           02336                           TC       SGNTST1
000504: 04,2333           45430                           CS       R3D1
000505: 04,2334           02336                           TC       SGNTST1
000506: 04,2335           04353                           TC       ENDOFJOB                              #  NO MATCH FOUND. SIGN ILLEGAL
000507: 04,2336           60264        SGNTST1            AD       DSPCOUNT
000508: 04,2337           00006                           EXTEND
000509: 04,2340           12342                           BZF      +2                                    #  MATCH FOUND
000510: 04,2341           00002                           TC       Q
000511: 04,2342           00001                           TC       L                                     #  SIGN LEGAL
000512:
000513:
000514:
000515:                                                                                                  #  ERROR LIGHT RESET (RSET) TURNS OFF,
000516:                                                                                                  #  UPLINK ACTIVITY, AUTO, HOLD, FREE, NO ATT, OPERATOR ERROR,
000517:                                                                                                  #  PROG ALM, TRACKER FAIL.
000518:                                                                                                  #  LEAVES GIMBAL LOCK ALONE.
000519:                                                                                                  #  IT ALSO ZEROES THE :TEST ALARM: OUT BIT, WHICH TURNS OFF STBY,RESTART.
000520:                                                                                                  #  IT ALSO SETS :CAUTION RESET: TO 1.
000521:                                                                                                  #  IT ALSO FORCES BIT 12 OF ALL DSPTAB ENTRIES TO 1.
000522:
000523: 04,2343           56101        ERROR              XCH      21/22REG                              #  RESTORE ORIGINAL C(DSPLOCK). THUS ERROR
000524: 04,2344           54277                           TS       DSPLOCK                               #  LIGHT RESET LEAVES DSPLOCK UNCHANGED.
000525: 04,2345           00004                           INHINT
000526: 04,2346           37641                           CAF      BIT10                                 #  TURN ON :CAUTION RESET: OUTBIT
000527: 04,2347           00006                           EXTEND
000528: 04,2350           05011                           WOR      DSALMOUT                              #  BIT10 CHAN 11
000529: 04,2351           37645                           CAF      BIT6                                  #  LEAVE GIMBAL LOCK LAMP INTACT,
000530: 04,2352           70322                           MASK     DSPTAB     +11D                       #  TURNING OFF, AUTO, HOLD, FREE, NO ATT.,
000531: 04,2353           67634                           AD       BIT15                                 #  PROG ALARM, AND TRACKER.
000532: 04,2354           54322                           TS       DSPTAB     +11D
000533: 04,2355           44430                           CS       PRIO16                                #  RESET FAIL BITS WHICH GENERATE PROG
000534: 04,2356           70362                           MASK     IMODES33                              #  ALARM SO THAT IF THE FAILURE STILL
000535: 04,2357           64430                           AD       PRIO16                                #  EXISTS, THE ALARM WILL COME BACK.
000536: 04,2360           54362                           TS       IMODES33
000537: 04,2361           47641                           CS       BIT10
000538: 04,2362           70361                           MASK     IMODES30
000539: 04,2363           67641                           AD       BIT10
000540: 04,2364           54361                           TS       IMODES30
000541:
000542: 04,2365           47641                           CS       BIT10                                 #  TURN OFF :TEST ALARM: OUTBIT.
000543: 04,2366           00006                           EXTEND
000544: 04,2367           03013                           WAND     CHAN13
000545: 04,2370           42422                           CS       ERCON                                 #  TURN OFF UPLINK ACTIVITY,
000546: 04,2371           00006                           EXTEND                                         #  OPERATOR ERROR.
000547: 04,2372           03011                           WAND     DSALMOUT
000548: 04,2373           35473        TSTAB              CAF      BINCON                                #  (DEC 10)
000549: 04,2374           54103                           TS       ERCNT                                 #  ERCNT = COUNT
000550: 04,2375           00004                           INHINT
000551: 04,2376           50103                           INDEX    ERCNT
000552: 04,2377           10307                           CCS      DSPTAB
000553: 04,2400           67652                           AD       ONE
000554: 04,2401           02406                           TC       ERPLUS
000555: 04,2402           67652                           AD       ONE
000556: 04,2403           40000        ERMINUS            CS       A
000557: 04,2404           72424                           MASK     NOTBIT12
000558: 04,2405           02411                           TC       ERCOM
000559: 04,2406           40000        ERPLUS             CS       A
000560: 04,2407           72424                           MASK     NOTBIT12
000561: 04,2410           40000                           CS       A                                     #  MIGHT WANT TO RESET CLPASS, DECBRNCH,
000562: 04,2411           50103        ERCOM              INDEX    ERCNT                                 #  ETC.
000563: 04,2412           54307                           TS       DSPTAB
000564: 04,2413           00003                           RELINT
000565: 04,2414           10103                           CCS      ERCNT
000566: 04,2415           02374                           TC       TSTAB      +1
000567: 04,2416           37657                           CAF      ZERO
000568: 04,2417           55363                           TS       FAILREG
000569: 04,2420           55364                           TS       SFAIL
000570: 04,2421           04353                           TC       ENDOFJOB
000571:
000572: 04,2422           00104        ERCON              OCT      104                                   #  CHAN 11 BITS 3,7.
000573:                                                                                                  #  UPLINK ACTIVITY, AND OPERATOR ERROR.
000574: 04,2423           00240        BITS6,8            OCT      240
000575: 04,2424           73777        NOTBIT12           OCT      73777
000576:
000577:
000578:
000579:                                                                                                  #  CLEAR BLANKS WHICH R1, R2, R3 IS CURRENT OR LAST TO BE DISPLAYED(PERTINE
000580:                                                                                                  #  NT XREG,YREG,ZREG IS CLEARED). SUCCESSIVE CLEARS TAKE CARE OF EACH RX
000581:                                                                                                  #  L/ RC UNTIL R1 IS DONE. THEN NO FURTHER ACTION
000582:
000583:                                                                                                  #  THE SINGLE COMPONENT LOAD VERBS ALLOW ONLY THE SINGLE RC THAT IS
000584:                                                                                                  #  APPROPRIATE TO BE CLEARED.
000585:
000586:                                                                                                  #  CLPASS      +0 PASS0, CAN BE BACKED UP
000587:                                                                                                  #              +NZ HIPASS, CAN BE BACKED UP
000588:                                                                                                  #              -NZ PASS0, CANNOT BE BACKED UP
000589:
000590:
000591: 04,2425           10264        CLEAR              CCS      DSPCOUNT
000592: 04,2426           67652                           AD       ONE
000593: 04,2427           02431                           TC       +2
000594: 04,2430           67652                           AD       ONE
000595: 04,2431           54264                           TS       DSPCOUNT                              #  MAG OF DSPCOUNT
000596: 04,2432           02205                           TC       GETINREL                              #  MUST SET INREL, EVEN FOR HIPASS
000597: 04,2433           10302                           CCS      CLPASS
000598: 04,2434           02442                           TC       CLPASHI                               #  +
000599: 04,2435           02437                           TC       +2                                    #  +0    IF CLPASS IS +0 OR -, IT IS PASS0
000600: 04,2436           02437                           TC       +1                                    #  -
000601: 04,2437           30123                           CA       INREL
000602: 04,2440           02464                           TC       LEGALTST
000603: 04,2441           02457                           TC       CLEAR1
000604: 04,2442           10123        CLPASHI            CCS      INREL
000605: 04,2443           54123                           TS       INREL
000606: 04,2444           02464                           TC       LEGALTST
000607: 04,2445           32533                           CAF      DOUBLK     +2                         #  +3 TO - NUMBER. BACKS DATA REQUESTS.
000608: 04,2446           26300                           ADS      REQRET
000609: 04,2447           30123                           CA       INREL
000610: 04,2450           54111                           TS       MIXTEMP                               #  TEMP STORAGE FOR INREL
000611: 04,2451           00006                           EXTEND
000612: 04,2452           26266                           DIM      VERBREG                               #  DECREMENT VERB AND RE-DISPLAY
000613: 04,2453           04064                           TC       BANKCALL
000614: 04,2454           12315                           CADR     UPDATVB
000615: 04,2455           30111                           CA       MIXTEMP
000616: 04,2456           54123                           TS       INREL                                 #  RESTORE INREL
000617: 04,2457           02462        CLEAR1             TC       CLR5
000618: 04,2460           24302                           INCR     CLPASS                                #  ONLY IF CLPASS IS + OR +0,
000619: 04,2461           04353                           TC       ENDOFJOB                              #  SET FOR HIGHER PASS.
000620: 04,2462           22002        CLR5               LXCH     Q                                     #  USES 5BLANK BUT AVOIDS ITS TC GETINREL
000621: 04,2463           02474                           TC       5BLANK     +2
000622: 04,2464           67662        LEGALTST           AD       NEG2
000623: 04,2465           10000                           CCS      A
000624: 04,2466           00002                           TC       Q                                     #  LEGAL         INREL G/ 2
000625: 04,2467           05715                           TC       CCSHOLE
000626: 04,2470           04353                           TC       ENDOFJOB                              #  ILLEGAL       INREL= 0,1
000627: 04,2471           00002                           TC       Q                                     #  LEGAL        INREL = 2
000628:
000629:
000630:
000631:                                                                                                  #  5BLANK BLANKS 5 CHAR DISPLAY WORD IN R1, R2, OR R3. IT ALSO ZEROES XREG,
000632:                                                                                                  #  YREG, OR ZREG.PLACE ANY + DSPCOUNT NUMBER FOR PERTINENT RC INTO DSPCOUNT
000633:                                                                                                  #  DSPCOUNT IS LEFT SET TO LEFT MOST DSP NUMB FOR RC JUST BLANKED.
000634:
000635: 04,2472           22002        5BLANK             LXCH     Q
000636: 04,2473           02205                           TC       GETINREL
000637: 04,2474           37657                           CAF      ZERO
000638: 04,2475           50123                           INDEX    INREL
000639: 04,2476           54266                           TS       VERBREG                               #  ZERO X, Y, Z REG.
000640: 04,2477           50123                           INDEX    INREL
000641:
000642:
000643: 04,2500           54271                           TS       XREGLP     -2
000644: 04,2501           54110                           TS       CODE
000645: 04,2502           50123                           INDEX    INREL                                 #  ZERO PERTINENT DEC COMP BIT.
000646: 04,2503           47644                           CS       BIT7                                  #  PROTECT OTHERS
000647: 04,2504           70265                           MASK     DECBRNCH
000648: 04,2505           72534                           MASK     BRNCHCON                              #  ZERO LOW 2 BITS.
000649: 04,2506           54265                           TS       DECBRNCH
000650: 04,2507           50123                           INDEX    INREL
000651: 04,2510           32524                           CAF      SINBLANK   -2                         #  BLANK ISOLATED CHAR SEPARATELY
000652: 04,2511           54127                           TS       COUNT
000653: 04,2512           03175                           TC       DSPIN
000654: 04,2513           50123        5BLANK1            INDEX    INREL
000655: 04,2514           32527                           CAF      DOUBLK     -2
000656: 04,2515           54264                           TS       DSPCOUNT
000657: 04,2516           02535                           TC       2BLANK
000658: 04,2517           47651                           CS       TWO
000659: 04,2520           26264                           ADS      DSPCOUNT
000660: 04,2521           02535                           TC       2BLANK
000661: 04,2522           50123                           INDEX    INREL
000662: 04,2523           35424                           CAF      R1D1       -2
000663: 04,2524           54264                           TS       DSPCOUNT                              #  SET DSPCOUNT TO LEFT MOST DSP NUMBER
000664: 04,2525           00001                           TC       L                                     #  OF REG. JUST BLANKED
000665:
000666: 04,2526           00016        SINBLANK           OCT      16                                    #  DEC 14
000667: 04,2527           00005                           OCT      5
000668: 04,2530           00004                           OCT      4
000669: 04,2531           00015        DOUBLK             OCT      15                                    #  DEC 13
000670: 04,2532           00011                           OCT      11                                    #  DEC 9
000671: 04,2533           00003                           OCT      3
000672:
000673: 04,2534           77774        BRNCHCON           OCT      77774
000674:
000675:                                                                                                  #  2BLANK BLANKS TWO CHAR. PLACE DSP NUMBER OF LEFT CHAR  OF THE PAIR INTO
000676:                                                                                                  #  DSPCOUNT. THIS NUMBER IS LEFT IN DSPCOUNT
000677:
000678: 04,2535           30264        2BLANK             CA       DSPCOUNT
000679: 04,2536           54021                           TS       SR
000680: 04,2537           42550                           CS       BLANKCON
000681: 04,2540           00004                           INHINT
000682: 04,2541           50021                           INDEX    SR
000683: 04,2542           56307                           XCH      DSPTAB
000684: 04,2543           00006                           EXTEND
000685: 04,2544           62546                           BZMF     +2                                    #  IF OLD CONTENTS -, NOUT OK
000686: 04,2545           24303                           INCR     NOUT                                  #  IF OLD CONTENTS +, +1 TO NOUT
000687: 04,2546           00003                           RELINT                                         #  IF -, NOUT OK
000688: 04,2547           00002                           TC       Q
000689: 04,2550           04000        BLANKCON           OCT      4000
000690:
000691:
000692:                                                                                                  #  ENTER PASS 0 IS THE EXECUTE FUNCTION. HIGHER ORDER ENTERS ARE TO LOAD
000693:                                                                                                  #  DATA. THE SIGN OF REQRET DETERMINES THE PASS, + FOR PASS 0,- FOR HIGHER
000694:                                                                                                  #  PASSES.
000695:
000696:
000697:
000698:                                                                                                  #  MACHINE CADR TO BE SPECIFIED (MCTBS) NOUNS DESIRE AN ECADR TO BE LOADED
000699:                                                                                                  #  WHEN USED WITH LOAD VERBS, MONITOR VERBS, OR DISPLAY VERBS (EXCEPT
000700:                                                                                                  #  VERB = FIXED MEMORY DISPLAY, WHICH REQUIRES AN FCADR).
000701:
000702:
000703:
000704: 05,2000                                           SETLOC   22000
000705:
000706: 05,2000           03344        NVSUBB             TC       NVSUB1                                #  STANDARD LEAD INS. DONT MOVE.
000707: 05,2001           13403        DSPMM              TCF      DSPMM1
000708: 05,2002           02663        LOADLV1            TC       LOADLV
000709:                                                                                                  #  END OF STANDARD LEAD INS.
000710:
000711:
000712:
000713: 05,2003           37657        ENTER              CAF      ZERO
000714: 05,2004           54302                           TS       CLPASS
000715: 05,2005           34734                           CAF      ENDINST
000716: 05,2006           54122                           TS       ENTRET
000717: 05,2007           10300                           CCS      REQRET
000718: 05,2010           02031                           TC       ENTPAS0                               #  IF +, PASS 0
000719: 05,2011           02031                           TC       ENTPAS0                               #  IF +, PASS 0
000720: 05,2012           02013                           TC       +1                                    #  IF -, NOT PASS 0
000721: 05,2013           36165                           CAF      THREE                                 #  IF DEC, ALARM IF LESS THAN 5 CHAR IN,
000722: 05,2014           70265                           MASK     DECBRNCH                              #  BUT LEAVE REQRET - AND FLASH ON, SO
000723: 05,2015           10000                           CCS      A                                     #  OPERATOR CAN SUPPLY MISSING NUMERICAL
000724: 05,2016           02020                           TC       +2                                    #  CHARACTERS AND CONTINUE.
000725: 05,2017           02024                           TC       ACCEPTWD                              #  OCTAL. ANY NUMBER OF CHAR OK.
000726: 05,2020           10264                           CCS      DSPCOUNT
000727: 05,2021           02324                           TC       GODSPALM                              #  LESS THAN 5 CHAR DEC(DSPCOUNT IS +)
000728: 05,2022           02324                           TC       GODSPALM                              #  LESS THAN 5 CHAR DEC(DSPCOUNT IS +)
000729: 05,2023           02024                           TC       +1                                    #  5 CHAR IN (DSPCOUNT IS -)
000730: 05,2024           40300        ACCEPTWD           CS       REQRET                                #  5 CHAR IN (DSPCOUNT IS -)
000731: 05,2025           54300                           TS       REQRET                                #  SET REQRET +.
000732: 05,2026           05531                           TC       FLASHOFF
000733: 05,2027           00300                           TC       REQRET
000734:
000735: 05,2030     0122               ENTEXIT            =        ENTRET
000736:
000737: 05,2030           00030        LOWVERB            OCT      30                                    #  LOWER VERB THAT AVOIDS NOUN TEST
000738:
000739: 05,2031           37657        ENTPAS0            CAF      ZERO                                  #   NOUN VERB SUB ENTERS HERE
000740: 05,2032           54265                           TS       DECBRNCH
000741: 05,2033           40266        TESTVB             CS       VERBREG                               #  IF VERB IS 30-77, SKIP NOUN TEST
000742:
000743:
000744: 05,2034           62030                           AD       LOWVERB                               #  30-VB
000745: 05,2035           00006                           EXTEND
000746: 05,2036           62116                           BZMF     VERBFAN                               #  VERB G/ E 30
000747: 05,2037           00006        TESTNN             EXTEND                                         #  VERB L/ 30
000748: 05,2040           32076                           DCA      LODNNLOC                              #  SWITCH BANKS TO NOUN TABLE READING
000749: 05,2041           52006                           DXCH     Z                                     #  ROUTINE.
000750: 05,2042           50124                           INDEX    MIXBR
000751: 05,2043           02043                           TC       +0
000752: 05,2044           02046                           TC       +2                                    #  NORMAL
000753: 05,2045           02176                           TC       MIXNOUN                               #  MIXED
000754: 05,2046           10132                           CCS      NNADTEM                               #  NORMAL
000755: 05,2047           02114                           TC       VERBFAN    -2                         #        NORMAL  IF +
000756: 05,2050           02324                           TC       GODSPALM                              #  NOT IN USE     IF +0
000757: 05,2051           02055                           TC       REQADD                                #  SPECIFY MACHINE CADR IF -
000758: 05,2052           24304                           INCR     NOUNCADR                              #  AUGMENT MACHINE CADR IF -0
000759: 05,2053           05420                           TC       SETNADD                               #  ECADR FROM NOUNCADR. SETS EB, NOUNADD.
000760: 05,2054           02102                           TC       INTMCTBS   +2
000761: 05,2055           37634        REQADD             CAF      BIT15                                 #  SET CLPASS FOR PASS0 ONLY
000762: 05,2056           54302                           TS       CLPASS
000763: 05,2057           44734                           CS       ENDINST                               #  TEST IF REACHED HERE FROM INTERNAL OR
000764: 05,2060           60122                           AD       ENTEXIT                               #              FROM EXTERNAL
000765: 05,2061           00006                           EXTEND
000766: 05,2062           12064                           BZF      +2                                    #  EXTERNAL MACH CADR TO BE SPECIFIED
000767: 05,2063           02100                           TC       INTMCTBS
000768: 05,2064           02256                           TC       REQDATZ                               #  EXTERNAL MACH CADR TO BE SPECIFIED
000769: 05,2065           10265                           CCS      DECBRNCH
000770: 05,2066           02324                           TC       GODSPALM                              #  ALARM IF DECIMAL USED FOR MCTBS
000771: 05,2067           56272                           XCH      ZREG                                  #  OCTAL USED    OK
000772: 05,2070           05412                           TC       SETNCADR                              #  ECADR INTO NOUNCADR. SET EB, NOUNADD.
000773: 05,2071           00006                           EXTEND
000774: 05,2072           32076                           DCA      LODNNLOC                              #  SWITCH BANKS TO NOUN TABLE READING
000775: 05,2073           52006                           DXCH     Z                                     #  ROUTINE.
000776: 05,2074           02116                           TC       VERBFAN
000777:
000778: 05,2075     0264                                  EBANK=   DSPCOUNT
000779: 05,2075           04745 04000  LODNNLOC           2CADR    LODNNTAB
000780:
000781: 05,2077           77772        NEG5               OCT      77772
000782:
000783: 05,2100           30142        INTMCTBS           CA       MPAC       +2                         #  INTERNAL MACH CADR TO BE SPECIFIED.
000784: 05,2101           05412                           TC       SETNCADR                              #  ECADR INTO NOUNCADR. SET EB, NOUNADD.
000785: 05,2102           47647                           CS       BIT4                                  #  NVSUB CALL LEFT CADR IN MPAC+2 FOR MACH
000786: 05,2103           70266                           MASK     VERBREG                               #  CADR TO BE SPECIFIED.
000787: 05,2104           62077                           AD       NEG5                                  #  MASKING MAKES VB15 LOOK LIKE VB05.
000788: 05,2105           00006                           EXTEND
000789: 05,2106           12116                           BZF      VERBFAN                               #  VB = 05 OR 15, DO NOT DISPLAY CADR.
000790: 05,2107           35430                           CAF      R3D1                                  #  VB NOT = 05 OR 15, DISPLAY CADR.
000791: 05,2110           54264                           TS       DSPCOUNT
000792: 05,2111           30304                           CA       NOUNCADR
000793: 05,2112           03222                           TC       DSPOCTWD
000794:
000795:
000796: 05,2113           02116                           TC       VERBFAN
000797:
000798: 05,2114           67652                           AD       ONE
000799: 05,2115           05412                           TC       SETNCADR                              #  ECADR INTO NOUNCADR. SETS EB, NOUNADD.
000800: 05,2116           42131        VERBFAN            CS       LST2CON
000801: 05,2117           60266                           AD       VERBREG                               #  VERB-LST2CON
000802: 05,2120           10000                           CCS      A
000803: 05,2121           67652                           AD       ONE                                   #  VERB G/ LST2CON
000804: 05,2122           02124                           TC       +2
000805: 05,2123           02133                           TC       VBFANDIR                              #  VERB L/ LST2CON
000806: 05,2124           54140                           TS       MPAC
000807: 05,2125           05572                           TC       RELDSP                                #  RELEASE DISPLAY SYST
000808: 05,2126           56140                           XCH      MPAC                                  #  ALSO TURN OFF RELEASE DISPLAY SYST LIGHT
000809: 05,2127           62132                           AD       LST2CADR
000810: 05,2130           04106                           TC       BANKJUMP
000811: 05,2131           00040        LST2CON            OCT      40                                    #  FIRST LST2 VERB
000812: 05,2132           22000        LST2CADR           CADR     LST2FAN
000813:
000814: 05,2133           50266        VBFANDIR           INDEX    VERBREG
000815: 05,2134           32136                           CAF      VERBTAB
000816: 05,2135           04106                           TC       BANKJUMP
000817:
000818: 05,2136           12324        VERBTAB            CADR     GODSPALM                              #  VB00 ILLEGAL
000819: 05,2137           12340                           CADR     DSPA                                  #  VB01 DISPLAY OCT COMP 1 (R1)
000820: 05,2140           12345                           CADR     DSPB                                  #  VB02 DISPLAY OCT COMP 2 (R1)
000821: 05,2141           12352                           CADR     DSPC                                  #  VB03 DISPLAY OCT COMP 3 (R1)
000822: 05,2142           12333                           CADR     DSPAB                                 #  VB04 DISPLAY OCT COMP 1,2 (R1,R2)
000823: 05,2143           12326                           CADR     DSPABC                                #  VB05 DISPLAY OCT COMP 1,2,3 (R1,R2,R3)
000824: 05,2144           12445                           CADR     DECDSP                                #  VB06 DECIMAL DISPLAY
000825: 05,2145           10700                           CADR     DSPDPDEC                              #  VB07 DP DECIMAL DISPLAY (R1,R2)
000826: 05,2146           11273                           CADR     DSPALARM                              #  VB10 SPARE
000827: 05,2147           13077                           CADR     MONITOR                               #  VB11 MONITOR OCT COMP 1 (R1)
000828: 05,2150           13077                           CADR     MONITOR                               #  VB12 MONITOR OCT COMP 2 (R1)
000829: 05,2151           13077                           CADR     MONITOR                               #  VB13 MONITOR OCT COMP 3 (R1)
000830: 05,2152           13077                           CADR     MONITOR                               #  VB14 MONITOR OCT COMP 1,2 (R1,R2)
000831: 05,2153           13077                           CADR     MONITOR                               #  VB15 MONITOR OCT COMP 1,2,3 (R1,R2,R3)
000832: 05,2154           13077                           CADR     MONITOR                               #  VB16 MONITOR DECIMAL
000833: 05,2155           13077                           CADR     MONITOR                               #  VB17 MONITOR DP DEC (R1,R2)
000834: 05,2156           12324                           CADR     GODSPALM                              #  VB20 SPARE
000835: 05,2157           12620                           CADR     ALOAD                                 #  VB21 LOAD COMP 1 (R1)
000836: 05,2160           12631                           CADR     BLOAD                                 #  VB22 LOAD COMP 2 (R2)
000837: 05,2161           12646                           CADR     CLOAD                                 #  VB23 LOAD COMP 3 (R3)
000838: 05,2162           12572                           CADR     ABLOAD                                #  VB24 LOAD COMP 1,2 (R1,R2)
000839: 05,2163           12535                           CADR     ABCLOAD                               #  VB25 LOAD COMP 1,2,3 (R1,R2,R3)
000840: 05,2164           12324                           CADR     GODSPALM                              #  VB26 SPARE
000841: 05,2165           13214                           CADR     DSPFMEM                               #  VB27 FIXED MEMORY DISPLAY
000842:                                                                                                  #  THE FOLLOWING VERBS MAKE NO NOUN TEST
000843: 05,2166           13314        REQEXLOC           CADR     VBRQEXEC                              #  VB30 REQUEST EXECUTIVE
000844: 05,2167           13340                           CADR     VBRQWAIT                              #  VB31 REQUEST WAITLIST
000845: 05,2170           11321                           CADR     BUMP                                  #  VB32 C(R2) INTO R3, C(R1) INTO R2
000846:
000847:
000848: 05,2171           11304                           CADR     VBPROC                                #  VB33 PROCEED WITHOUT DATA
000849: 05,2172           11311                           CADR     VBTERM                                #  VB34 TERMINATE CURRENT TEST OR LOAD REQ
000850: 05,2173           13414                           CADR     VBTSTLTS                              #  VB35 TEST LIGHTS
000851: 05,2174           24000                           CADR     SLAP1                                 #  VB36 FRESH START
000852: 05,2175           13267        ENDVBFAN           CADR     MMCHANG                               #  VB37 CHANGE MAJOR MODE
000853:
000854:
000855:
000856:                                                                                                  #  THE LIST2 VERBFAN IS LOCATED IN THE EXTENDED VERB BANK.
000857:
000858:
000859:
000860:                                                                                                  #  NNADTAB CONTAINS A RELATIVE ADDRESS, IDADDREL(IN LOW 10 BITS), REFERRING
000861:                                                                                                  #  TO WHERE 3 CONSECUTIVE ADDRESSES ARE STORED (IN IDADDTAB).
000862:                                                                                                  #  MIXNOUN GETS DATA AND STORES IN MIXTEMP,+1,+2. IT SETS NOUNADD FOR
000863:                                                                                                  #   MIXTEMP.
000864:
000865: 05,2176           10132        MIXNOUN            CCS      NNADTEM
000866: 05,2177           02203                           TC       +4                                    #  + IN USE
000867: 05,2200           02324                           TC       GODSPALM                              #  +0 NOT IN USE
000868: 05,2201           02203                           TC       +2                                    #  - IN USE
000869: 05,2202           02203                           TC       +1                                    #  -0 IN USE
000870: 05,2203           46162                           CS       SIX
000871: 05,2204           60266                           AD       VERBREG
000872: 05,2205           00006                           EXTEND
000873: 05,2206           62210                           BZMF     +2                                    #  VERB L/E 6
000874: 05,2207           02116                           TC       VERBFAN                               #  AVOID MIXNOUN SWAP IF VB NOT = DISPLAY
000875: 05,2210           37651                           CAF      TWO
000876: 05,2211           54103        MIXNN1             TS       DECOUNT
000877: 05,2212           62235                           AD       MIXAD
000878: 05,2213           54131                           TS       NOUNADD                               #  SET NOUNADD TO MIXTEMP + K
000879: 05,2214           50103                           INDEX    DECOUNT                               #  GET IDADDTAB ENTRY FOR COMPONENT K
000880: 05,2215           30134                           CA       IDAD1TEM                              #  OF NOUN.
000881: 05,2216           54106                           TS       NOUNTEM
000882:                                                                                                  #  TEST FOR DP (FOR OCT DISPLAY). IF SO, GET
000883:                                                                                                  #    MINOR PART ONLY.
000884: 05,2217           02721                           TC       SFRUTMIX                              #  GET SF ROUT NUMBER IN A
000885: 05,2220           02236                           TC       DPTEST
000886: 05,2221           02223                           TC       MIXNN2                                #  NO DP
000887: 05,2222           24106                           INCR     NOUNTEM                               #  DP GET MINOR PART
000888: 05,2223           30106        MIXNN2             CA       NOUNTEM
000889: 05,2224           75465                           MASK     LOW11                                 #  ESUBK (NO DP) OR (ESUBK)+1     FOR DP
000890: 05,2225           05422                           TC       SETEBANK                              #  SET EBANK, LEAVE EADRES IN A.
000891: 05,2226           50000                           INDEX    A                                     #  PICK UP C(ESUBK)  NOT DP
000892: 05,2227           30000                           CA       0                                     #  OR C((ESUBK)+1)  FOR DP MINOR PART
000893: 05,2230           50131                           INDEX    NOUNADD
000894: 05,2231           56000                           XCH      0                                     #  STORE IN MIXTEM + K
000895: 05,2232           10103                           CCS      DECOUNT
000896: 05,2233           02211                           TC       MIXNN1
000897: 05,2234           02116                           TC       VERBFAN
000898:
000899: 05,2235           00111        MIXAD              TC       MIXTEMP
000900:
000901:
000902:
000903:                                                                                                  #  DPTEST   ENTER WITH SF ROUT NUMBER IN A.
000904:                                                                                                  #           RETURNS TO L+1 IF NO DP.
000905:                                                                                                  #           RETURNS TO L+2 IF DP.
000906:
000907: 05,2236           50000        DPTEST             INDEX    A
000908: 05,2237           12240                           TCF      +1
000909: 05,2240           00002                           TC       Q                                     #  OCTAL ONLY NO DP
000910:
000911:
000912: 05,2241           00002                           TC       Q                                     #  FRACT NO DP
000913: 05,2242           00002                           TC       Q                                     #  DEG  NO DP
000914: 05,2243           00002                           TC       Q                                     #  ARITH  NO DP
000915: 05,2244           12250                           TCF      DPTEST1                               #  DP1OUT
000916: 05,2245           12250                           TCF      DPTEST1                               #  DP2OUT
000917: 05,2246           00002                           TC       Q                                     #  OPDEG  NO DP
000918: 05,2247           12250                           TCF      DPTEST1                               #  DP3OUT
000919: 05,2250           50002        DPTEST1            INDEX    Q
000920: 05,2251           00001                           TC       1                                     #  RETURN TO L+2
000921:
000922:
000923:
000924: 05,2252           35426        REQDATX            CAF      R1D1
000925: 05,2253           12257                           TCF      REQCOM
000926: 05,2254           35427        REQDATY            CAF      R2D1
000927: 05,2255           12257                           TCF      REQCOM
000928: 05,2256           35430        REQDATZ            CAF      R3D1
000929: 05,2257           54264        REQCOM             TS       DSPCOUNT
000930: 05,2260           40002                           CS       Q
000931: 05,2261           54300                           TS       REQRET
000932: 05,2262           04064                           TC       BANKCALL
000933: 05,2263           10472                           CADR     5BLANK
000934: 05,2264           05525                           TC       FLASHON
000935: 05,2265           44734                           CS       ENDINST
000936: 05,2266           60122                           AD       ENTEXIT
000937: 05,2267           00006                           EXTEND
000938: 05,2270           12273                           BZF      ENDRQDAT                              #  ENTEXIT = ENDOFJOB. EXTERNALLY INITIATED
000939: 05,2271           47657                           CS       ZERO                                  #  ENTEXIT NOT ENDOFJOB. NVSUB INITIATED
000940: 05,2272           54323                           TS       CADRSTOR                              #  NVSUB INITIATED LOAD. SET CADRSTOR TO -0
000941: 05,2273           00122        ENDRQDAT           TC       ENTEXIT
000942:
000943:                                                                                                  #  IF NVSUB INITIATED LOAD, SET CADRSTOR TO -0 TO TELL RECALTST TO RELEASE
000944:                                                                                                  #  DISPLAY IF ENDIDLE WAS NOT USED. (NECESSARY FOR DATAWAIT)
000945:
000946:
000947: 05,2274           54267                           TS       NOUNREG
000948: 05,2275           56002        UPDATNN            XCH      Q
000949: 05,2276           54103                           TS       UPDATRET
000950: 05,2277           00006                           EXTEND
000951: 05,2300           32076                           DCA      LODNNLOC                              #  SWITCH BANKS TO NOUN TABLE READING
000952: 05,2301           52006                           DXCH     Z                                     #  ROUTINE.
000953: 05,2302           10132                           CCS      NNADTEM
000954: 05,2303           67652                           AD       ONE                                   #  NORMAL
000955: 05,2304           12307                           TCF      PUTADD
000956: 05,2305           12310                           TCF      PUTADD     +1                         #  MCTBS  DONT CHANGE NOUNADD
000957: 05,2306           12310                           TCF      PUTADD     +1                         #  MCTBI  DONT CHANGE NOUNADD
000958: 05,2307           05412        PUTADD             TC       SETNCADR                              #  ECADR INTO NOUNCADR. SETS EB, NOUNADD.
000959: 05,2310           35471                           CAF      ND1
000960: 05,2311           54264                           TS       DSPCOUNT
000961:
000962:
000963: 05,2312           30267                           CA       NOUNREG
000964: 05,2313           12322                           TCF      UPDAT1
000965:
000966: 05,2314           54266                           TS       VERBREG
000967: 05,2315           56002        UPDATVB            XCH      Q
000968: 05,2316           54103                           TS       UPDATRET
000969: 05,2317           35470                           CAF      VD1
000970: 05,2320           54264                           TS       DSPCOUNT
000971: 05,2321           30266                           CA       VERBREG
000972: 05,2322           03255        UPDAT1             TC       DSP2BIT
000973: 05,2323           00103                           TC       UPDATRET
000974:
000975:
000976:
000977: 05,2324           04103        GODSPALM           TC       POSTJUMP
000978: 05,2325           11273                           CADR     DSPALARM
000979:
000980:
000981:                                                                                                  #           NOUN TABLES
000982:                                                                                                  #  NOUN CODE L/55, NORMAL CASE.  NOUN CODE G/E 55, MIXED NOUN CASE.
000983:                                                                                                  #  FOR NORMAL CASE, NNADTAB CONTAINS ONE       ECADR    FOR EACH NOUN.
000984:                                                                                                  #  +0 INDICATES NOUN NOT USED.   - ENTRY INDICATES MACHINE CADR(E OR F) TO
000985:                                                                                                  #  BE SPECIFIED. -1 INDICATES CHANNEL TO BE SPECIFIED. -0 INDICATES AUGMENT
000986:                                                                                                  #  OF LAST MACHINE CADR SUPPLIED.
000987:
000988:                                                                                                  #  FOR MIXED CASE, NNADTAB CONTAINS ONE INDIRECT ADDRESS(IDADDREL) IN LOW
000989:                                                                                                  #  10 BITS, AND THE COMPONENT CODE NUMBER IN THE HIGH 5 BITS.
000990:
000991:                                                                                                  #  NNTYPTAB IS A PACKED TABLE OF THE FORM MMMMMNNNNNPPPPP.
000992:
000993:                                                                                                  #  FOR THE NORMAL CASE, M-S ARE THE COMPONENT CODE NUMBER.
000994:                                                                                                  #                       N-S ARE THE SF ROUTINE CODE NUMBER.
000995:                                                                                                  #                       P-S ARE THE SF CONSTANT CODE NUMBER.
000996:
000997:                                                                                                  #  MIXED CASE,M-S ARE THE SF CONSTANT3 CODE NUMBER     3 COMPONENT CASE
000998:                                                                                                  #             N-S ARE THE SF CONSTANT2 CODE NUMBER
000999:                                                                                                  #             P-S ARE THE SF CONSTANT1 CODE NUMBER
001000:                                                                                                  #             N-S ARE THE SF CONSTANT2 CODE NUMBER     2 COMPONENT CASE
001001:                                                                                                  #             P-S ARE THE SF CONSTANT1 CODE NUMBER
001002:                                                                                                  #             P-S ARE THE SF CONSTANT1 CODE NUMBER      1 COMPONENT CASE
001003:
001004:                                                                                                  #  THERE IS ALSO AN INDIRECT ADDRESS TABLE(IDADDTAB) FOR MIXED CASE ONLY.
001005:                                                                                                  #  EACH ENTRY CONTAINS ONE ECADR.    IDADDREL IS THE RELATIVE ADDRESS OF
001006:                                                                                                  #  THE FIRST OF THESE ENTRIES.
001007:                                                                                                  #  THERE IS ONE ENTRY IN THIS TABLE FOR EACH COMPONENT OF A MIXED NOUN
001008:                                                                                                  #  THEY ARE LISTED IN ORDER OF ASCENDING K.
001009:
001010:                                                                                                  #  THERE IS ALSO A SCALE FACTOR ROUTINE NUMBER TABLE( RUTMXTAB ) FOR MIXED
001011:                                                                                                  #  CASE ONLY. THERE IS ONE ENTRY PER MIXED NOUN. THE FORM IS,
001012:                                                                                                  #        QQQQQRRRRRSSSSS
001013:                                                                                                  #  Q-S ARE THE SF ROUTINE 3 CODE NUMBER     3 COMPONENT CASE
001014:                                                                                                  #  R-S ARE THE SF ROUTINE 2 CODE NUMBER
001015:                                                                                                  #  S-S ARE THE SF ROUTINE 1 CODE NUMBER
001016:                                                                                                  #  R-S ARE THE SF ROUTINE 2 CODE NUMBER     2 COMPONENT CASE
001017:                                                                                                  #  S-S ARE THE SF ROUTINE 1 CODE NUMBER
001018:
001019:                                                                                                  #  IN OCTAL DISPLAY AND LOAD (OCT OR DEC) VERBS, EXCLUDE USE OF VERBS WHOSE
001020:                                                                                                  #  COMPONENT NUMBER IS GREATER THAN THE NUMBER OF COMPONENTS IN NOUN.
001021:                                                                                                  #  ALL MACHINE ADDRESS TO BE SPECIFIED NOUNS ARE 1 COMPONENT.
001022:                                                                                                  #  ONLY EXCEPTION IS NOUN 01 TO ALLOW OCTAL DISPLAYS AND LOADS OF
001023:                                                                                                  #  AN UNCONTOLLED NUMBER OF COMPONENTS.
001024:
001025:
001026:
001027:                                                                                                  #  IN MULTI-COMPONENT LOAD VERBS, NO MIXING OF OCTAL AND DECIMAL DATA
001028:                                                                                                  #  COMPONENT WORDS IS ALLOWED. ALARM IF VIOLATION.
001029:
001030:
001031:                                                                                                  #  IN DECIMAL LOADS OF DATA, 5 NUMERICAL CHARACTERS MUST BE KEYED IN
001032:                                                                                                  #  BEFORE EACH ENTER. IF NOT, ALARM.
001033:
001034:
001035:                                                                                                  #           DISPLAY VERBS
001036: 05,2326           47651        DSPABC             CS       TWO
001037: 05,2327           02376                           TC       COMPTEST
001038: 05,2330           50131                           INDEX    NOUNADD
001039: 05,2331           40002                           CS       2
001040: 05,2332           56116                           XCH      BUF        +2
001041: 05,2333           47652        DSPAB              CS       ONE
001042: 05,2334           02376                           TC       COMPTEST
001043: 05,2335           50131                           INDEX    NOUNADD
001044: 05,2336           40001                           CS       1
001045: 05,2337           56115                           XCH      BUF        +1
001046: 05,2340           02420        DSPA               TC       TSTFORDP
001047: 05,2341           50131                           INDEX    NOUNADD
001048: 05,2342           40000                           CS       0
001049: 05,2343           56114        DSPCOM1            XCH      BUF
001050: 05,2344           02357                           TC       DSPCOM2
001051: 05,2345           47652        DSPB               CS       ONE
001052: 05,2346           02376                           TC       COMPTEST
001053: 05,2347           50131                           INDEX    NOUNADD
001054: 05,2350           40001                           CS       1
001055: 05,2351           02343                           TC       DSPCOM1
001056: 05,2352           47651        DSPC               CS       TWO
001057: 05,2353           02376                           TC       COMPTEST
001058: 05,2354           50131                           INDEX    NOUNADD
001059: 05,2355           40002                           CS       2
001060: 05,2356           02343                           TC       DSPCOM1
001061: 05,2357           47651        DSPCOM2            CS       TWO                                   #  A  B  C  AB ABC
001062: 05,2360           60266                           AD       VERBREG                               #  -1 -0 +1 +2 +3   IN A
001063: 05,2361           10000                           CCS      A                                     #  +0 +0 +0 +1 +2    IN A AFTER CCS
001064: 05,2362           02365                           TC       DSPCOM3
001065: 05,2363           00122                           TC       ENTEXIT
001066: 05,2364           02365                           TC       +1
001067: 05,2365           54106        DSPCOM3            TS       DISTEM                                #  +0,+1,+2 INTO DISTEM
001068: 05,2366           50000                           INDEX    A
001069: 05,2367           35426                           CAF      R1D1
001070: 05,2370           54264                           TS       DSPCOUNT
001071: 05,2371           50106                           INDEX    DISTEM
001072: 05,2372           40114                           CS       BUF
001073: 05,2373           03222                           TC       DSPOCTWD
001074: 05,2374           56106                           XCH      DISTEM
001075: 05,2375           02361                           TC       DSPCOM2    +2
001076:
001077:                                                                                                  #  COMPTEST ALARMS IF COMPONENT NUMBER OF VERB(LOAD OR OCT DISPLAY) IS
001078:                                                                                                  #  GREATER THAN THE HIGHEST COMPONENT NUMBER OF NOUN.
001079:                                                                                                  #  NOUN 01 IS EXCLUDED FROM TEST.
001080: 05,2376           54107        COMPTEST           TS       SFTEMP1                               #  - VERB COMP
001081: 05,2377           22002                           LXCH     Q
001082: 05,2400           47652        COMPTST1           CS       ONE
001083: 05,2401           60267                           AD       NOUNREG
001084: 05,2402           00006                           EXTEND
001085:
001086:
001087: 05,2403           12417                           BZF      NDCMPTST                              #  NOUN = 01, ANY COMP OK
001088: 05,2404           50124                           INDEX    MIXBR                                 #  NOUN NOT = 01.
001089: 05,2405           32442                           CAF      COMPICK    -1
001090: 05,2406           50000                           INDEX    A
001091: 05,2407           30000                           CA       0
001092: 05,2410           75457                           MASK     HI5
001093: 05,2411           05440                           TC       LEFT5                                 #  NOUN COMP
001094: 05,2412           60107                           AD       SFTEMP1                               #  NOUN COMP - VERB COMP
001095: 05,2413           10000                           CCS      A
001096: 05,2414           00001                           TC       L                                     #  NOUN COMP G/ VERB COMP
001097: 05,2415           05715                           TC       CCSHOLE
001098: 05,2416           02324                           TC       GODSPALM                              #  NOUN COMP L/ VERB COMP
001099: 05,2417           00001        NDCMPTST           TC       L                                     #  NOUN COMP = VERB COMP
001100:
001101:
001102:
001103: 05,2420           22002        TSTFORDP           LXCH     Q                                     #  TEST FOR DP. IF SO, GET MINOR PART ONLY.
001104: 05,2421           30132                           CA       NNADTEM
001105: 05,2422           67652                           AD       ONE                                   #  IF NNADTEM = -1, CHANNEL TO BE SPECIFIED
001106: 05,2423           00006                           EXTEND
001107: 05,2424           12436                           BZF      CHANDSP
001108: 05,2425           50124                           INDEX    MIXBR
001109: 05,2426           02426                           TC       +0
001110: 05,2427           02431                           TC       +2                                    #  NORMAL
001111: 05,2430           00001                           TC       L                                     #  MIXED CASE ALREADY HANDLED IN MIXNOUN
001112: 05,2431           02713                           TC       SFRUTNOR
001113: 05,2432           02236                           TC       DPTEST
001114: 05,2433           00001                           TC       L                                     #  NO DP
001115: 05,2434           24131                           INCR     NOUNADD                               #  DP    E+1 INTO NOUNADD FOR MINOR PART.
001116: 05,2435           00001                           TC       L
001117:
001118:
001119:
001120: 05,2436           00006        CHANDSP            EXTEND
001121: 05,2437           50304                           INDEX    NOUNCADR
001122: 05,2440           00000                           READ     0
001123: 05,2441           40000                           CS       A
001124: 05,2442           12343                           TCF      DSPCOM1
001125:
001126:
001127:
001128: 05,2443           00133        COMPICK            ADRES    NNTYPTEM
001129: 05,2444           00132                           ADRES    NNADTEM
001130:
001131: 05,2445           50124        DECDSP             INDEX    MIXBR                                 #  NORMAL                MIXED
001132: 05,2446           32442                           CAF      COMPICK    -1                         #  ADRES NNTYPTEM        ADRES NNADTEM
001133: 05,2447           50000                           INDEX    A
001134: 05,2450           30000                           CA       0                                     #  C(NNTYPTEM)           C(NNADTEM)
001135: 05,2451           75457                           MASK     HI5                                   #  GET HI5 OF NNTYPTAB(NORM)OF NNADTAB(MIX)
001136: 05,2452           05440                           TC       LEFT5
001137:
001138:
001139: 05,2453           54103                           TS       DECOUNT                               #  COMP NUMBER INTO DECOUNT
001140: 05,2454           54106        DSPDCGET           TS       DECTEM                                #  PICKS UP DATA
001141: 05,2455           60131                           AD       NOUNADD                               #  DECTEM 1COMP +0, 2COMP +1, 3COMP +2
001142: 05,2456           50000                           INDEX    A
001143: 05,2457           40000                           CS       0
001144: 05,2460           50106                           INDEX    DECTEM
001145: 05,2461           56270                           XCH      XREG                                  #  CANT USE BUF SINCE DMP USES IT.
001146: 05,2462           10106                           CCS      DECTEM
001147: 05,2463           02454                           TC       DSPDCGET                              #  MORE TO GET
001148: 05,2464           37657        DSPDCPUT           CAF      ZERO                                  #  DISPLAYS DATA
001149: 05,2465           54141                           TS       MPAC       +1                         #  DECOUNT 1COMP +0, 2COMP +1, 3COMP +2
001150: 05,2466           54142                           TS       MPAC       +2
001151: 05,2467           50103                           INDEX    DECOUNT
001152: 05,2470           35426                           CAF      R1D1
001153: 05,2471           54264                           TS       DSPCOUNT
001154: 05,2472           50103                           INDEX    DECOUNT
001155: 05,2473           40270                           CS       XREG
001156: 05,2474           54140                           TS       MPAC
001157: 05,2475           02734                           TC       SFCONUM                               #  2X ( SF CON NUMB ) IN A
001158: 05,2476           54107                           TS       SFTEMP1
001159: 05,2477           00006                           EXTEND                                         #  SWITCH BANKS TO SF CONSTANT TABLE
001160: 05,2500           32512                           DCA      GTSFOUTL                              #     READING ROUTINE.
001161: 05,2501           52006                           DXCH     Z                                     #  LOADS SFTEMP1, SFTEMP2.
001162: 05,2502           50124                           INDEX    MIXBR
001163: 05,2503           02503                           TC       +0
001164: 05,2504           02507                           TC       DSPSFNOR
001165: 05,2505           02721                           TC       SFRUTMIX
001166: 05,2506           02522                           TC       DECDSP3
001167:
001168: 05,2507           02713        DSPSFNOR           TC       SFRUTNOR
001169: 05,2510           02522                           TC       DECDSP3
001170:
001171: 05,2511     0264                                  EBANK=   DSPCOUNT
001172: 05,2511           05004 04000  GTSFOUTL           2CADR    GTSFOUT
001173:
001174: 05,2513           04064        DSPDCEND           TC       BANKCALL                              #  ALL SFOUT ROUTINES END HERE
001175: 05,2514           11075                           CADR     DSPDECWD
001176: 05,2515           10103                           CCS      DECOUNT
001177: 05,2516           02520                           TC       +2
001178: 05,2517           00122                           TC       ENTEXIT
001179: 05,2520           54103                           TS       DECOUNT
001180: 05,2521           02464                           TC       DSPDCPUT                              #  MORE TO DISPLAY
001181:
001182: 05,2522           50000        DECDSP3            INDEX    A
001183: 05,2523           32525                           CAF      SFOUTABR
001184: 05,2524           04106                           TC       BANKJUMP
001185:
001186:
001187: 05,2525           11273        SFOUTABR           CADR     DSPALARM                              #  ALARM IF DEC DISP WITH OCTAL ONLY NOUN
001188: 05,2526           12513                           CADR     DSPDCEND
001189: 05,2527           10551                           CADR     DEGOUTSF
001190: 05,2530           10636                           CADR     ARTOUTSF
001191: 05,2531           10643                           CADR     DP1OUTSF
001192: 05,2532           10650                           CADR     DP2OUTSF
001193: 05,2533           10557                           CADR     OPDEGOUT
001194: 05,2534           10652                           CADR     DP3OUTSF
001195: 05,2535                        ENDRTOUT           EQUALS
001196:
001197:
001198:
001199:                                                                                                  #          THE FOLLOWING IS ATYPICAL SF ROUTINE. IT USES MPAC. LEAVES RESU
001200:                                                                                                  #  LTS IN MPAC, MPAC+1. ENDS WITH TC DSPDCEND
001201:
001202:
001203:
001204: 04,2551                                           SETLOC   BLANKCON   +1
001205:
001206:                                                                                                  #     DEGOUTSF SCALES BY .18 THE LOW 14 BITS OF ANGLE, ADDING .18 FOR
001207:                                                                                                  #  NUMBERS IN THE NEGATIVE (AGC) RANGE.
001208:
001209: 04,2551           37657        DEGOUTSF           CAF      ZERO
001210: 04,2552           54142                           TS       MPAC       +2                         #  SET INDEX FOR FULL SCALE
001211: 04,2553           02610                           TC       FIXRANGE
001212: 04,2554           02556                           TC       +2                                    #  NO AUGMENT NEEDED (SFTEMP1 AND 2 ARE 0)
001213: 04,2555           02603                           TC       SETAUG                                #  SET AUGMENTER ACCORDING TO C(MPAC +2)
001214: 04,2556           02621                           TC       DEGCOM
001215:
001216:                                                                                                  #  OPDEGOUT SCALES BY .45 (THE RANGE IS 90 DEGREES) AND ADDS A 20 DEG BIAS.
001217:
001218: 04,2557           10140        OPDEGOUT           CCS      MPAC                                  #  RANGE IS 90 DEG
001219: 04,2560           56140                           XCH      MPAC                                  #  IF POS OR POS 0 THEN ADD BIAS AND
001220: 04,2561           02564                           TC       +3                                    #  CORRECT FOR POSSIBLE OVERFLOW
001221: 04,2562           02573                           TC       NEGOPT                                #  IF NEG NON ZERO
001222: 04,2563           67661                           AD       NEG1                                  #  IF NEG ZERO SUBTRACT 1
001223: 04,2564           62635                           AD       20BIAS
001224: 04,2565           54140        BIASCOM            TS       MPAC                                  #  TEST FOR OVERFLOW
001225: 04,2566           02571                           TC       +3                                    #  NO OVFLOW
001226: 04,2567           37634                           CAF      BIT15                                 #  IF OVFLOW
001227: 04,2570           26140                           ADS      MPAC
001228: 04,2571           37651                           CAF      TWO                                   #  SET MULTIPLIER TO .45
001229: 04,2572           02552                           TC       DEGOUTSF   +1
001230:
001231: 04,2573           56140        NEGOPT             XCH      MPAC                                  #  NEGATIVE CASE
001232: 04,2574           62635                           AD       20BIAS
001233: 04,2575           10000                           CCS      A
001234: 04,2576           02565                           TC       BIASCOM                               #  IF POS THEN SUBTRACT 1 BECAUSE OF 2SCOM
001235: 04,2577           05715                           TC       CCSHOLE
001236: 04,2600           67652                           AD       ONE                                   #  IF NEG RESTORE SUM
001237:
001238:
001239: 04,2601           40000                           COM                                            #  IF NEG 0 LEAVE NEG 0
001240: 04,2602           02565                           TC       BIASCOM
001241:
001242: 04,2603           00006        SETAUG             EXTEND                                         #  LOADS SFTEMP1 AND SFTEMP2 WITH THE
001243: 04,2604           50142                           INDEX    MPAC       +2                         #  DP AUGMENTER CONSTANT
001244: 04,2605           32632                           DCA      DEGTAB
001245: 04,2606           52110                           DXCH     SFTEMP1
001246: 04,2607           00002                           TC       Q
001247:
001248: 04,2610           10140        FIXRANGE           CCS      MPAC                                  #  IF MPAC IS + RETURN TO L+1
001249: 04,2611           00002                           TC       Q                                     #  IF MPAC IS - RETURN TO L+2 AFTER
001250: 04,2612           00002                           TC       Q                                     #  MASKING OUT THE SIGN BIT
001251: 04,2613           12614                           TCF      +1
001252: 04,2614           47634                           CS       BIT15
001253: 04,2615           70140                           MASK     MPAC
001254: 04,2616           54140                           TS       MPAC
001255: 04,2617           50002                           INDEX    Q
001256: 04,2620           00001                           TC       1
001257:
001258: 04,2621           00006        DEGCOM             EXTEND                                         #  LOADS MULTIPLIER, DOES SHORTMP, AND
001259: 04,2622           50142                           INDEX    MPAC       +2                         #  ADDS AUGMENTER.
001260: 04,2623           32632                           DCA      DEGTAB
001261: 04,2624           52141                           DXCH     MPAC                                  #  ADJUSTED ANGLE IN A
001262: 04,2625           07261                           TC       SHORTMP
001263: 04,2626           52110                           DXCH     SFTEMP1
001264: 04,2627           20141                           DAS      MPAC
001265: 04,2630           02641                           TC       SCOUTEND
001266:
001267: 04,2631           05605        DEGTAB             OCT      05605                                 #  HI PART OF    .18
001268: 04,2632           03656                           OCT      03656                                 #  LOW PART OF   .18
001269: 04,2633           16314                           OCT      16314                                 #  HI PART OF    .45
001270: 04,2634           31463                           OCT      31463                                 #  LO PART OF    .45
001271:
001272: 04,2635           16040        20BIAS             OCT      16040                                 #  20 DEG BIAS FOR OPTICS
001273:
001274: 04,2636           52110        ARTOUTSF           DXCH     SFTEMP1                               #  ASSUMES POINT AT LEFT OF DP SFCON
001275: 04,2637           52141                           DXCH     MPAC
001276: 04,2640           07261                           TC       SHORTMP
001277: 04,2641           04103        SCOUTEND           TC       POSTJUMP
001278: 04,2642           12513                           CADR     DSPDCEND
001279:
001280: 04,2643           02655        DP1OUTSF           TC       DPOUT                                 #  SCALES MPAC, MPAC +1 BY DP SCALE FACTOR
001281: 04,2644           56142                           XCH      MPAC       +2                         #  IN SFTEMP1, SFTEMP2.  THEN SCALE RESULT
001282: 04,2645           56141                           XCH      MPAC       +1                         #  BY B14.
001283: 04,2646           54140                           TS       MPAC
001284: 04,2647           02641                           TC       SCOUTEND
001285:
001286:
001287: 04,2650           02655        DP2OUTSF           TC       DPOUT                                 #  SCALES MPAC, MPAC +1 BY DP SCALE FACTOR
001288: 04,2651           02641                           TC       SCOUTEND
001289:
001290:
001291:
001292: 04,2652           02655        DP3OUTSF           TC       DPOUT                                 #  ASSUMES POINT BETWEEN BITS 7-8 OF HIGH
001293: 04,2653           03050                           TC       TPLEFT7                               #  PART OF SFCON. SHIFTS RESULTS LEFT 7.
001294: 04,2654           02641                           TC       SCOUTEND
001295:
001296:
001297:
001298:                                                                                                  #  DPOUT PICKS UP FRESH DATA FOR BOTH HI AND LO COMPONENTS.
001299:                                                                                                  #  THIS IS NEEDED FOR TIME DISPLAY.
001300:
001301: 04,2655           56002        DPOUT              XCH      Q
001302: 04,2656           54105                           TS       OVFIND
001303: 04,2657           50124                           INDEX    MIXBR
001304: 04,2660           02660                           TC       +0
001305: 04,2661           02676                           TC       DPOUTNOR
001306: 04,2662           50103                           INDEX    DECOUNT                               #  GET IDADDTAB ENTRY FOR COMPONENT K
001307: 04,2663           30134                           CA       IDAD1TEM                              #      OF NOUN.
001308: 04,2664           75465                           MASK     LOW11                                 #  E SUBK
001309: 04,2665           05422                           TC       SETEBANK                              #  SET EB, LEAVE EADRES IN A.
001310: 04,2666           00006        DPOUTCOM           EXTEND
001311: 04,2667           50000                           INDEX    A                                     #  MIXED         NORMAL
001312: 04,2670           30001                           DCA      0                                     #  C(ESUBK)      C(E)
001313: 04,2671           52141                           DXCH     MPAC                                  #  C((E SUBK)+1)      C(E+1)
001314: 04,2672           07230                           TC       TPAGREE
001315: 04,2673           07063                           TC       DMP
001316: 04,2674           00107                           ADRES    SFTEMP1
001317: 04,2675           00105                           TC       OVFIND
001318:
001319: 04,2676           30131        DPOUTNOR           CA       NOUNADD                               #  E
001320: 04,2677           02666                           TC       DPOUTCOM
001321:
001322:
001323:
001324:                                                                                                  #  THIS IS A SPECIAL PURPOSE VERB FOR DISPLAYING A DOUBLE PRECISION AGC
001325:                                                                                                  #  WORD AS 10 DECIMAL DIGITS ON THE AGC DISPLAY PANEL.  IT CAN BE USED WITH
001326:                                                                                                  #  ANY NOUN, EXCEPT MIXED NOUNS. IT DISPLAYS THE CONTENTS
001327:                                                                                                  #  OF THE REGISTER NOUNADD IS POINTING TO .  IF USED WITH NOUNS WHICH ARE
001328:                                                                                                  #  INHERENTLY NOT DP SUCH AS THE CDU COUNTERS THE DISPLAY WILL BE GARBAGE.
001329:                                                                                                  #  DISPLAY IS IN R1 AND R2 ONLY WITH THE SIGN IN R1.
001330:
001331:
001332:
001333: 04,2700           50124        DSPDPDEC           INDEX    MIXBR
001334: 04,2701           02701                           TC       +0
001335: 04,2702           02704                           TC       +2                                    #  NORMAL NOUN
001336: 04,2703           03273                           TC       DSPALARM
001337:
001338: 04,2704           00006                           EXTEND
001339: 04,2705           50131                           INDEX    NOUNADD
001340: 04,2706           30001                           DCA      0
001341: 04,2707           52141                           DXCH     MPAC
001342: 04,2710           35426                           CAF      R1D1
001343: 04,2711           54264                           TS       DSPCOUNT
001344: 04,2712           37657                           CAF      ZERO
001345: 04,2713           54142                           TS       MPAC       +2
001346: 04,2714           07230                           TC       TPAGREE
001347: 04,2715           03151                           TC       DSP2DEC
001348: 04,2716           00122        ENDDPDEC           TC       ENTEXIT
001349:
001350:                                                                                                  #           LOAD VERBS
001351:
001352:
001353:
001354: 05,2535                                           SETLOC   ENDRTOUT
001355:
001356: 05,2535           47651        ABCLOAD            CS       TWO
001357: 05,2536           02376                           TC       COMPTEST
001358: 05,2537           32673                           CAF      VBSP1LD
001359: 05,2540           02314                           TC       UPDATVB    -1
001360: 05,2541           02252                           TC       REQDATX
001361: 05,2542           32674                           CAF      VBSP2LD
001362: 05,2543           02314                           TC       UPDATVB    -1
001363: 05,2544           02254                           TC       REQDATY
001364: 05,2545           32675                           CAF      VBSP3LD
001365: 05,2546           02314                           TC       UPDATVB    -1
001366: 05,2547           02256                           TC       REQDATZ
001367:
001368:
001369:
001370: 05,2550           46162        PUTXYZ             CS       SIX                                   #  TEST THAT THE 3 DATA WORDS LOADED ARE
001371: 05,2551           02676                           TC       ALLDC/OC                              #  ALL DEC OR ALL OCT.
001372: 05,2552           00006                           EXTEND
001373: 05,2553           32076                           DCA      LODNNLOC                              #  SWITCH BANKS TO NOUN TABLE READING
001374: 05,2554           52006                           DXCH     Z                                     #  ROUTINE.
001375: 05,2555           37657                           CAF      ZERO                                  #  X COMP
001376: 05,2556           02762                           TC       PUTCOM
001377: 05,2557           50131                           INDEX    NOUNADD
001378: 05,2560           54000                           TS       0
001379: 05,2561           37652                           CAF      ONE                                   #  Y COMP
001380: 05,2562           02762                           TC       PUTCOM
001381: 05,2563           50131                           INDEX    NOUNADD
001382: 05,2564           54001                           TS       1
001383: 05,2565           37651                           CAF      TWO                                   #  Z COMP
001384: 05,2566           02762                           TC       PUTCOM
001385: 05,2567           50131                           INDEX    NOUNADD
001386: 05,2570           54002                           TS       2
001387: 05,2571           02663                           TC       LOADLV
001388:
001389: 05,2572           47652        ABLOAD             CS       ONE
001390: 05,2573           02376                           TC       COMPTEST
001391: 05,2574           32673                           CAF      VBSP1LD
001392: 05,2575           02314                           TC       UPDATVB    -1
001393: 05,2576           02252                           TC       REQDATX
001394: 05,2577           32674                           CAF      VBSP2LD
001395: 05,2600           02314                           TC       UPDATVB    -1
001396: 05,2601           02254                           TC       REQDATY
001397: 05,2602           47227        PUTXY              CS       FIVE                                  #  TEST THAT THE 2 DATA WORDS LOADED ARE
001398: 05,2603           02676                           TC       ALLDC/OC                              #  ALL DEC OR ALL OCT.
001399: 05,2604           00006                           EXTEND
001400:
001401: 05,2605           32076                           DCA      LODNNLOC                              #  SWITCH BANKS TO NOUN TABLE READING
001402: 05,2606           52006                           DXCH     Z                                     #  ROUTINE.
001403: 05,2607           37657                           CAF      ZERO                                  #  X COMP
001404: 05,2610           02762                           TC       PUTCOM
001405: 05,2611           50131                           INDEX    NOUNADD
001406: 05,2612           54000                           TS       0
001407: 05,2613           37652                           CAF      ONE                                   #  Y COMP
001408: 05,2614           02762                           TC       PUTCOM
001409: 05,2615           50131                           INDEX    NOUNADD
001410: 05,2616           54001                           TS       1
001411: 05,2617           02663                           TC       LOADLV
001412:
001413: 05,2620           02252        ALOAD              TC       REQDATX
001414: 05,2621           00006                           EXTEND
001415: 05,2622           32076                           DCA      LODNNLOC                              #  SWITCH BANKS TO NOUN TABLE READING
001416: 05,2623           52006                           DXCH     Z                                     #  ROUTINE.
001417: 05,2624           37657                           CAF      ZERO                                  #  X COMP
001418: 05,2625           02762                           TC       PUTCOM
001419: 05,2626           50131                           INDEX    NOUNADD
001420: 05,2627           54000                           TS       0
001421: 05,2630           02663                           TC       LOADLV
001422:
001423: 05,2631           47652        BLOAD              CS       ONE
001424: 05,2632           02376                           TC       COMPTEST
001425: 05,2633           37634                           CAF      BIT15                                 #  SET CLPASS FOR PASS0 ONLY
001426: 05,2634           54302                           TS       CLPASS
001427: 05,2635           02254                           TC       REQDATY
001428: 05,2636           00006                           EXTEND
001429: 05,2637           32076                           DCA      LODNNLOC                              #  SWITCH BANKS TO NOUN TABLE READING
001430: 05,2640           52006                           DXCH     Z                                     #  ROUTINE.
001431: 05,2641           37652                           CAF      ONE
001432: 05,2642           02762                           TC       PUTCOM
001433: 05,2643           50131                           INDEX    NOUNADD
001434: 05,2644           54001                           TS       1
001435: 05,2645           02663                           TC       LOADLV
001436:
001437: 05,2646           47651        CLOAD              CS       TWO
001438: 05,2647           02376                           TC       COMPTEST
001439: 05,2650           37634                           CAF      BIT15                                 #  SET CLPASS FOR PASS0 ONLY
001440: 05,2651           54302                           TS       CLPASS
001441: 05,2652           02256                           TC       REQDATZ
001442: 05,2653           00006                           EXTEND
001443: 05,2654           32076                           DCA      LODNNLOC                              #  SWITCH BANKS TO NOUN TABLE READING
001444: 05,2655           52006                           DXCH     Z                                     #  ROUTINE.
001445: 05,2656           37651                           CAF      TWO
001446: 05,2657           02762                           TC       PUTCOM
001447: 05,2660           50131                           INDEX    NOUNADD
001448: 05,2661           54002                           TS       2
001449: 05,2662           02663                           TC       LOADLV
001450:
001451: 05,2663           37657        LOADLV             CAF      ZERO
001452: 05,2664           54265                           TS       DECBRNCH
001453: 05,2665           47657                           CS       ZERO
001454: 05,2666           54301                           TS       LOADSTAT
001455: 05,2667           45470                           CS       VD1                                   #  TO BLOCK NUMERICAL CHARACTERS AND
001456: 05,2670           54264                           TS       DSPCOUNT                              #  CLEARS AFTER A COMPLETED LOAD
001457: 05,2671           04103                           TC       POSTJUMP                              #  AFTER COMPLETED LOAD, GO TO RECALTST
001458: 05,2672           11416                           CADR     RECALTST                              #  TO SEE IF THERE IS RECALL FROM ENDIDLE.
001459:
001460: 05,2673           00021        VBSP1LD            OCT      21                                    #  VB21 = ALOAD
001461: 05,2674           00022        VBSP2LD            OCT      22                                    #  VB22 = BLOAD
001462: 05,2675           00023        VBSP3LD            OCT      23                                    #  VB23 = CLOAD
001463:
001464:
001465:
001466: 05,2676           54103        ALLDC/OC           TS       DECOUNT                               #  TESTS THAT DATA WORDS LOADED ARE EITHER
001467: 05,2677           40265                           CS       DECBRNCH                              #  ALL DEC OR ALL OCT. ALARMS IF NOT.
001468: 05,2700           54021                           TS       SR
001469: 05,2701           40021                           CS       SR
001470: 05,2702           40021                           CS       SR                                    #  SHIFTED RIGHT 2
001471: 05,2703           10000                           CCS      A                                     #  DEC COMP BITS IN LOW 3
001472: 05,2704           12706                           TCF      +2                                    #  SOME ONES IN LOW 3
001473: 05,2705           00002                           TC       Q                                     #  ALL ZEROS. ALL OCTAL.  OK
001474: 05,2706           60103                           AD       DECOUNT                               #  DEC COMP = 7 FOR 3COMP, =6 FOR 2COMP
001475: 05,2707           00006                           EXTEND                                         #  (BUT IT HAS BEEN DECREMENTED BY CCS)
001476: 05,2710           12712                           BZF      +2                                    #  MUST MATCH 6 FOR 3COMP, 5 FOR 2COMP.
001477: 05,2711           02324                           TC       GODSPALM
001478: 05,2712           00002        GOQ                TC       Q                                     #  ALL REQUIRED ARE DEC. OK
001479:
001480:
001481:
001482: 05,2713           56002        SFRUTNOR           XCH      Q                                     #  GETS SF ROUTINE NUMBER FOR NORMAL CASE
001483: 05,2714           54100                           TS       EXITEM                                #  CANT USE L FOR RETURN. TSTFORDP USES L.
001484: 05,2715           35456                           CAF      MID5
001485: 05,2716           70133                           MASK     NNTYPTEM
001486: 05,2717           05431                           TC       RIGHT5
001487: 05,2720           00100                           TC       EXITEM                                #  SF ROUTINE NUMBER IN A
001488:
001489: 05,2721           56002        SFRUTMIX           XCH      Q                                     #  GETS SF ROUTINE NUMBER FOR MIXED CASE
001490: 05,2722           54100                           TS       EXITEM
001491: 05,2723           50103                           INDEX    DECOUNT
001492: 05,2724           32753                           CAF      DISPLACE                              #  PUT TC GOQ, TC RIGHT5, OR TC LEFT5 IN L
001493: 05,2725           54001                           TS       L
001494: 05,2726           50103                           INDEX    DECOUNT
001495: 05,2727           35455                           CAF      LOW5                                  #  LOW5, MID5, OR HI5 IN A
001496: 05,2730           70137                           MASK     RUTMXTEM                              #  GET HI5, MID5, OR LOW5 OF RUTMXTAB ENTRY
001497: 05,2731           50001                           INDEX    L
001498: 05,2732           00000                           TC       0
001499:                                                                                                  #  DO TC GOQ(DECOUNT=0), DO TC RIGHT5(DECOUNT=1), DO TC LEFT5(DECOUNT=2).
001500: 05,2733           00100        SFRET1             TC       EXITEM                                #  SF ROUTINE NUMBER IN A
001501:
001502: 05,2734           56002        SFCONUM            XCH      Q                                     #  GETS 2X( SF CONSTANT NUMBER)
001503: 05,2735           54100                           TS       EXITEM
001504: 05,2736           50124                           INDEX    MIXBR
001505: 05,2737           02737                           TC       +0
001506: 05,2740           02756                           TC       CONUMNOR                              #  NORMAL NOUN
001507: 05,2741           50103                           INDEX    DECOUNT                               #  MIXED NOUN
001508: 05,2742           32753                           CAF      DISPLACE
001509: 05,2743           54001                           TS       L                                     #  PUT TC GOQ, TC RIGHT5, OR TC LEFT5 IN L
001510: 05,2744           50103                           INDEX    DECOUNT
001511: 05,2745           35455                           CAF      LOW5
001512: 05,2746           70133                           MASK     NNTYPTEM
001513: 05,2747           50001                           INDEX    L
001514: 05,2750           00000                           TC       0
001515:                                                                                                  #  DO TC GOQ(DECOUNT=0), DO TC RIGHT5(DECOUNT=1), DO TC LEFT5(DECOUNT=2).
001516: 05,2751           60000        SFRET              DOUBLE                                         #  2X(SF CONSTANT NUMBER ) IN A
001517: 05,2752           00100                           TC       EXITEM
001518:
001519: 05,2753           02712        DISPLACE           TC       GOQ
001520: 05,2754           05431                           TC       RIGHT5
001521: 05,2755           05440                           TC       LEFT5
001522:
001523: 05,2756           35455        CONUMNOR           CAF      LOW5                                  #  NORMAL NOUN ALWAYS GETS LOW 5 OF
001524: 05,2757           70133                           MASK     NNTYPTEM                              #  NNTYPTAB FOR SF CONUM.
001525: 05,2760           60000                           DOUBLE
001526: 05,2761           00100                           TC       EXITEM                                #  2X( SF CONSTANT NUMBER) IN A
001527:
001528:
001529:
001530: 05,2762           54103        PUTCOM             TS       DECOUNT
001531: 05,2763           56002                           XCH      Q
001532: 05,2764           54101                           TS       DECRET
001533: 05,2765           37657                           CAF      ZERO
001534: 05,2766           54105                           TS       OVFIND
001535: 05,2767           50103                           INDEX    DECOUNT
001536: 05,2770           56273                           XCH      XREGLP
001537: 05,2771           54141                           TS       MPAC       +1
001538: 05,2772           50103                           INDEX    DECOUNT
001539: 05,2773           56270                           XCH      XREG
001540: 05,2774           54140                           TS       MPAC
001541: 05,2775           50124                           INDEX    MIXBR
001542: 05,2776           02776                           TC       +0
001543: 05,2777           03023                           TC       PUTNORM                               #  NORMAL NOUN
001544:                                                                                                  #  IF MIXNOUN, PLACE ADDRESS FOR COMPONENT K INTO NOUNADD, SET EBANK BITS.
001545: 05,3000           50103                           INDEX    DECOUNT                               #  GET IDADDTAB ENTRY FOR COMPONENT K
001546: 05,3001           30134                           CA       IDAD1TEM                              #          OF NOUN.
001547: 05,3002           75465                           MASK     LOW11                                 #  (ECADR)SUBK FOR CURRENT COMP OF NOUN
001548: 05,3003           05412                           TC       SETNCADR                              #  ECADR INTO NOUNCADR. SETS EB, NOUNADD.
001549: 05,3004           00006                           EXTEND                                         #  C(NOUNADD) IN A UPON RETURN
001550: 05,3005           60103                           SU       DECOUNT                               #  PLACE (ESUBK)-K INTO NOUNADD
001551: 05,3006           54131                           TS       NOUNADD
001552:
001553: 05,3007           10265                           CCS      DECBRNCH
001554: 05,3010           03051                           TC       PUTDECSF                              #  +  DEC
001555: 05,3011           02721                           TC       SFRUTMIX                              #  +0  OCTAL
001556: 05,3012           02236                           TC       DPTEST
001557: 05,3013           03040                           TC       PUTCOM2                               #  NO DP
001558:                                                                                                  #  TEST FOR DP SCALE FOR OCT LOAD. IF SO,
001559:                                                                                                  #  +0 INTO MAJOR PART. SET NOUNADD FOR
001560:                                                                                                  #  LOADING OCTAL WORD INTO MINOR PART.
001561: 05,3014           24131        PUTDPCOM           INCR     NOUNADD                               #  DP  (ESUBK)-K+1  OR  E+1
001562: 05,3015           30131                           CA       NOUNADD                               #  NOUNADD NOW SET FOR MINOR PART
001563: 05,3016           26103                           ADS      DECOUNT                               #  (ESUBK)+1  OR  E+1  INTO DECOUNT
001564: 05,3017           37657                           CAF      ZERO                                  #  NOUNADD SET FOR MINOR PART
001565: 05,3020           50103                           INDEX    DECOUNT
001566: 05,3021           53777                           TS       0          -1                         #  ZERO MAJOR PART(ESUBK OR E)
001567: 05,3022           03040                           TC       PUTCOM2
001568:
001569: 05,3023           05420        PUTNORM            TC       SETNADD                               #  ECADR FROM NOUNCADR. SETS EB, NOUNADD.
001570: 05,3024           10265                           CCS      DECBRNCH
001571: 05,3025           03051                           TC       PUTDECSF                              #  +  DEC
001572: 05,3026           02713                           TC       SFRUTNOR                              #  +0  OCTAL
001573: 05,3027           02236                           TC       DPTEST
001574: 05,3030           03034                           TC       PUTCOM2    -4                         #  NO DP
001575: 05,3031           37657                           CAF      ZERO                                  #  DP
001576: 05,3032           54103                           TS       DECOUNT
001577: 05,3033           03014                           TC       PUTDPCOM
001578:
001579: 05,3034           30132                           CA       NNADTEM
001580: 05,3035           67652                           AD       ONE                                   #  IF NNADTEM = -1, CHANNEL TO BE SPECIFIED
001581: 05,3036           00006                           EXTEND
001582: 05,3037           13044                           BZF      CHANLOAD
001583: 05,3040           56140        PUTCOM2            XCH      MPAC
001584: 05,3041           00101                           TC       DECRET
001585:
001586: 05,3042     0264                                  EBANK=   DSPCOUNT
001587: 05,3042           05012 04000  GTSFINLC           2CADR    GTSFIN
001588:
001589: 05,3044           56140        CHANLOAD           XCH      MPAC
001590: 05,3045           00006                           EXTEND
001591: 05,3046           50304                           INDEX    NOUNCADR
001592: 05,3047           01000                           WRITE    0
001593: 05,3050           02663                           TC       LOADLV
001594:
001595:
001596:
001597:                                                                                                  #  PUTDECSF FINDS MIXBR AND DECOUNT STILL SET FROM PUTCOM
001598:
001599: 05,3051           02734        PUTDECSF           TC       SFCONUM                               #  2X(SF CON NUMB) IN A
001600: 05,3052           54107                           TS       SFTEMP1
001601:
001602: 05,3053           00006                           EXTEND                                         #  SWITCH BANKS TO SF CONSTANT TABLE
001603: 05,3054           33043                           DCA      GTSFINLC                              #  READING ROUTINE.
001604: 05,3055           52006                           DXCH     Z                                     #  LOADS SFTEMP1, SFTEMP2.
001605: 05,3056           50124                           INDEX    MIXBR
001606: 05,3057           03057                           TC       +0
001607: 05,3060           03063                           TC       PUTSFNOR
001608: 05,3061           02721                           TC       SFRUTMIX
001609: 05,3062           03064                           TC       PUTDCSF2
001610: 05,3063           02713        PUTSFNOR           TC       SFRUTNOR
001611:
001612: 05,3064           50000        PUTDCSF2           INDEX    A
001613: 05,3065           33067                           CAF      SFINTABR
001614: 05,3066           04106                           TC       BANKJUMP                              #  SWITCH BANKS FOR EXPANSHION ROOM
001615: 05,3067           11273        SFINTABR           CADR     DSPALARM                              #  ALARM IF DEC LOAD WITH OCTAL ONLY NOUN
001616:
001617: 05,3070           10777                           CADR     BINROUND
001618: 05,3071           10717                           CADR     DEGINSF
001619: 05,3072           10767                           CADR     ARTHINSF
001620: 05,3073           11017                           CADR     DPINSF
001621: 05,3074           11044                           CADR     DPINSF2
001622: 05,3075           11002                           CADR     OPTDEGIN
001623: 05,3076           11017                           CADR     DPINSF                                #  SAME AS ARITHDP1
001624: 05,3077                        ENDRUTIN           EQUALS
001625:
001626:
001627:
001628:                                                                                                  #  SCALE FACTORS FOR THOSE ROUTINES NEEDING THEM ARE AVAILABLE IN SFTEMP1.
001629:                                                                                                  #  ALL SFIN ROUTINES USE MPAC MPAC+1. LEAVE RESULT IN A. END WITH TC DECRET
001630:
001631:
001632:
001633: 04,2717                                           SETLOC   ENDDPDEC   +1
001634:
001635:                                                                                                  #  DEGINSF APPLIES 1000/180 = 5.55555(10) = 5.43434(8)
001636:
001637: 04,2717           07063        DEGINSF            TC       DMP                                   #  SF ROUTINE FOR DEC DEGREES
001638: 04,2720           02762                           ADRES    DEGCON1                               #  MULT BY 5.5 5(10)X2EXP-3
001639: 04,2721           10141                           CCS      MPAC       +1                         #  THIS ROUNDS OFF MPAC+1 BEFORE SHIFT
001640: 04,2722           37640                           CAF      BIT11                                 #  LEFT 3, AND CAUSES 360.00 TO OF/UF
001641: 04,2723           02725                           TC       +2                                    #  WHEN SHIFTED LEFT AND ALARM.
001642: 04,2724           47640                           CS       BIT11
001643: 04,2725           60141                           AD       MPAC       +1
001644: 04,2726           03062                           TC       2ROUND     +2
001645: 04,2727           05514                           TC       TPSL1                                 #  LEFT 1
001646: 04,2730           05514        DEGINSF2           TC       TPSL1                                 #  LEFT 2
001647: 04,2731           03071                           TC       TESTOFUF
001648: 04,2732           05514                           TC       TPSL1                                 #  RETURNS IF NO OF/UF (LEFT3)
001649: 04,2733           10140                           CCS      MPAC
001650: 04,2734           02740                           TC       SIGNFIX                               #  IF +, GO TO SIGNFIX
001651: 04,2735           02740                           TC       SIGNFIX                               #  IF +0, GO TO SIGNFIX
001652: 04,2736           40000                           COM                                            #  IF -, USE -MAGNITUDE +1
001653:
001654: 04,2737           54140                           TS       MPAC                                  #  IF -0, USE +0
001655: 04,2740           10105        SIGNFIX            CCS      OVFIND
001656: 04,2741           02756                           TC       SGNTO1                                #  IF OVERFLOW
001657: 04,2742           02752                           TC       ENDSCALE                              #  NO OVERFLOW/UNDERFLOW
001658: 04,2743           10140                           CCS      MPAC                                  #  IF UF FORCE SIGN TO 0 EXCEPT -180
001659: 04,2744           05715                           TC       CCSHOLE
001660: 04,2745           02754                           TC       NEG180
001661: 04,2746           02747                           TC       +1
001662: 04,2747           56140                           XCH      MPAC
001663: 04,2750           77632                           MASK     POSMAX
001664: 04,2751           54140                           TS       MPAC
001665: 04,2752           04103        ENDSCALE           TC       POSTJUMP
001666: 04,2753           13040                           CADR     PUTCOM2
001667:
001668: 04,2754           47632        NEG180             CS       POSMAX
001669: 04,2755           02751                           TC       ENDSCALE   -1
001670:
001671: 04,2756           40140        SGNTO1             CS       MPAC                                  #  IF OF FORCE SIGN TO 1
001672: 04,2757           77632                           MASK     POSMAX
001673: 04,2760           40000                           CS       A
001674: 04,2761           02751                           TC       ENDSCALE   -1
001675:
001676: 04,2762           26161 30707  DEGCON1            2DEC     5.555555555 B-3
001677:
001678: 04,2764           21616 07071  DEGCON2            2DEC     2.222222222 B-2
001679:
001680: 04,2766           71527        NEG.2              OCT      -06250                                #  = .197753906  I.E. THE BIAS SCALED
001681:
001682: 04,2767           07063        ARTHINSF           TC       DMP                                   #  SCALES MPAC, +1 BY SFTEMP1, SFTEMP2.
001683: 04,2770           00107                           ADRES    SFTEMP1                               #  ASSUMES POINT BETWEEN HI AND LO PARTS
001684: 04,2771           56142                           XCH      MPAC       +2                         #  OF SFCON. SHIFTS RESULTS LEFT BY 14.
001685: 04,2772           56141                           XCH      MPAC       +1                         #  (BY TAKING RESULTS FROM MPAC+1, MPAC+2)
001686: 04,2773           56140                           XCH      MPAC
001687: 04,2774           00006                           EXTEND
001688: 04,2775           12777                           BZF      BINROUND
001689: 04,2776           03273                           TC       DSPALARM                              #  TOO LARGE A LOAD
001690: 04,2777           03060        BINROUND           TC       2ROUND
001691: 04,3000           03071                           TC       TESTOFUF
001692: 04,3001           02752                           TC       ENDSCALE                              #  RETURNS IF NO OF/UF
001693:
001694:
001695:
001696: 04,3002           10140        OPTDEGIN           CCS      MPAC                                  #  OPTICS SCALING ROUTINE
001697: 04,3003           03007                           TC       +4
001698: 04,3004           03007                           TC       +3
001699: 04,3005           03273                           TC       DSPALARM                              #  REJECT NEGATIVE INPUT
001700: 04,3006           03273                           TC       DSPALARM                              #          DITTO
001701: 04,3007           32766        OPDEGIN2           CAF      NEG.2                                 #  RANGE IS 90 DEG
001702: 04,3010           26140                           ADS      MPAC                                  #  SUBTRACT BIAS
001703: 04,3011           07063                           TC       DMP                                   #  MULT BY 100 / 45  B-2
001704:
001705: 04,3012           02764                           ADRES    DEGCON2
001706: 04,3013           37637                           CAF      BIT12                                 #  ROUND AS IN DEGINSF
001707: 04,3014           60141                           AD       MPAC       +1
001708: 04,3015           03062                           TC       2ROUND     +2
001709: 04,3016           02730                           TC       DEGINSF2
001710:
001711: 04,3017           07063        DPINSF             TC       DMP                                   #  SCALES MPAC, MPAC +1 BY SFTEMP1,
001712: 04,3020           00107                           ADRES    SFTEMP1                               #  SFTEMP2.  STORES LOW PART OF RESULT
001713: 04,3021           56142                           XCH      MPAC       +2                         #  IN (E SUBK) +1 OR E+1
001714: 04,3022           60000                           DOUBLE
001715: 04,3023           54142                           TS       MPAC       +2
001716: 04,3024           37657                           CAF      ZERO
001717: 04,3025           60141                           AD       MPAC       +1
001718: 04,3026           03062                           TC       2ROUND     +2
001719: 04,3027           03071                           TC       TESTOFUF
001720: 04,3030           50124                           INDEX    MIXBR                                 #  RETURNS IF NO OF/UF
001721: 04,3031           03031                           TC       +0
001722: 04,3032           03042                           TC       DPINORM
001723: 04,3033           30103                           CA       DECOUNT                               #  MIXEDNOUN
001724: 04,3034           60131        DPINCOM            AD       NOUNADD                               #      MIXED                NORMAL
001725: 04,3035           54002                           TS       Q                                     #    E SUBK             E
001726: 04,3036           56141                           XCH      MPAC       +1
001727: 04,3037           50002                           INDEX    Q
001728: 04,3040           54001                           TS       1                                     #  PLACE LOW PART IN
001729: 04,3041           02752                           TC       ENDSCALE                              #  (E SUBK) +1    MIXED
001730: 04,3042           37657        DPINORM            CAF      ZERO                                  #  E +1         NORMAL
001731: 04,3043           03034                           TC       DPINCOM
001732:
001733:
001734:
001735: 04,3044           07063        DPINSF2            TC       DMP                                   #  ASSUMES POINT BETWEEN BITS 7-8 OF HIGH
001736: 04,3045           00107                           ADRES    SFTEMP1                               #  PART OF SF CONST. DPINSF2 SHIFTS RESULTS
001737: 04,3046           03050                           TC       TPLEFT7                               #  LEFT BY 7, ROUNDS MPAC+2 INTO MPAC+1.
001738: 04,3047           03021                           TC       DPINSF     +2
001739:
001740:
001741:
001742: 04,3050           56002        TPLEFT7            XCH      Q                                     #  OPERATES ON MPAC, MPAC+1, MPAC+2
001743: 04,3051           54110                           TS       SFTEMP2                               #  CANT USE L FOR RETURN. TPSL1 USES L.
001744: 04,3052           36162                           CAF      SIX                                   #  LEFT BY 7
001745: 04,3053           54107        LEFT7COM           TS       SFTEMP1
001746: 04,3054           05514                           TC       TPSL1
001747: 04,3055           10107                           CCS      SFTEMP1
001748: 04,3056           03053                           TC       LEFT7COM
001749: 04,3057           00110                           TC       SFTEMP2
001750:
001751: 04,3060           56141        2ROUND             XCH      MPAC       +1
001752: 04,3061           60000                           DOUBLE
001753:
001754: 04,3062           54141                           TS       MPAC       +1
001755: 04,3063           00002                           TC       Q                                     #  IF MPAC+1 DOES NOT OF/UF
001756: 04,3064           60140                           AD       MPAC
001757: 04,3065           54140                           TS       MPAC
001758: 04,3066           00002                           TC       Q                                     #  IF MPAC DOES NOT OF/UF
001759: 04,3067           54105                           TS       OVFIND
001760: 04,3070           00002        2RNDEND            TC       Q
001761:
001762:
001763:
001764: 04,3071           10105        TESTOFUF           CCS      OVFIND                                #  RETURNS IF NO OF/UF
001765: 04,3072           03273                           TC       DSPALARM                              #  OF
001766: 04,3073           00002                           TC       Q
001767: 04,3074           03273                           TC       DSPALARM                              #  UF
001768:
001769:                                                                                                  #  MONITOR ALLOWS OTHER KEYBOARD ACTIVITY. IT IS ENDED BY VERB TERMINATE,
001770:                                                                                                  #  ANY NVSUB CALL THAT PASSES THE DSPLOCK, OR ANOTHER MONITOR.
001771:
001772:                                                                                                  #  MONITOR ACTION IS SUSPENDED, BUT NOT ENDED, BY ANY KEYBOARD ACTION,
001773:                                                                                                  #  EXCEPT ERROR LIGHT RESET. IT BEGINS AGAIN WHEN KEY RELEASE IS PERFORMED.
001774:                                                                                                  #  MONITOR SAVES THE NOUN AND APPROPRIATE DISPLAY VERB IN MONSAVE. IT SAVES
001775:                                                                                                  #  NOUNCADR IN MONSAVE1, IF NOUN = MACHINE CADR TO BE SPECIFIED. BIT 15 OF
001776:                                                                                                  #  MONSAVE1 IS THE KILL MONITOR SIGNAL (KILLER BIT).
001777:
001778:                                                                                                  #  MONSAVE INDICATES IF MONITOR IS ON (+=ON, +0=OFF)
001779:                                                                                                  #  IF MONSAVE IS +, MONITOR ENTERS NO REQUEST, BUT TURNS KILLER BIT OFF.
001780:                                                                                                  #  IF MONSAVE IS +0, MONITOR ENTERS REQUEST AND TURNS KILLER BIT OFF.
001781:
001782:                                                                                                  #  NVSUB  AND VB=TERMINATE TURN KILL MONITOR BIT ON.
001783:
001784:                                                                                                  #  IF KILLER BIT IS ON, MONREQ ENTERS NO FURTHER REQUESTS, ZEROS MONSAVE
001785:                                                                                                  #  AND MONSAVE1 (TURNING OFF KILLER BIT).
001786:
001787:                                                                                                  #  MONITOR DOSENT TEST FOR MATBS SINCE NVSUB CAN HANDLE INTERNAL MATBS NOW
001788: 05,3077                                           SETLOC   ENDRUTIN
001789:
001790: 05,3077           47634        MONITOR            CS       BIT15
001791: 05,3100           70304                           MASK     NOUNCADR
001792: 05,3101           54141        MONIT1             TS       MPAC       +1                         #  TEMP STORAGE
001793: 05,3102           33401                           CAF      LOW6
001794: 05,3103           70266                           MASK     VERBREG
001795: 05,3104           05440                           TC       LEFT5
001796: 05,3105           54022                           TS       CYL
001797: 05,3106           56022                           XCH      CYL
001798: 05,3107           60267                           AD       NOUNREG
001799: 05,3110           54140                           TS       MPAC                                  #  TEMP STORAGE
001800: 05,3111           40324                           CS       GRABLOCK                              #  NEITHER CASE SEARCHES LIST.
001801: 05,3112           67651                           AD       TWO
001802: 05,3113           10000                           CCS      A
001803: 05,3114           05615                           TC       RELDSP1                               #  GRABLOCK=0,1, +0 INTO DSPLOCK AND
001804: 05,3115           03121                           TC       +4                                    #  TURN OFF KEY RLSE LIGHT.
001805: 05,3116           05715                           TC       CCSHOLE
001806: 05,3117           37657                           CAF      ZERO                                  #  GRABLOCK=2, +0 INTO DSPLOCK AND
001807: 05,3120           54277                           TS       DSPLOCK                               #  LEAVE KEY RLSE LIGHT ALONE
001808: 05,3121           00004                           INHINT
001809: 05,3122           10305                           CCS      MONSAVE
001810: 05,3123           03130                           TC       +5                                    #  IF MONSAVE WAS +, NO REQUEST
001811: 05,3124           37652                           CAF      ONE                                   #  IF MONSAVE WAS 0, REQUEST MONREQ
001812: 05,3125           04451                           TC       WAITLIST
001813: 05,3126     0264                                  EBANK=   DSPCOUNT
001814: 05,3126           03134 12000                     2CADR    MONREQ
001815:
001816: 05,3130           52141                           DXCH     MPAC                                  #  PLACE MONITOR VERB AND NOUN INTO MONSAVE
001817:
001818: 05,3131           52306                           DXCH     MONSAVE                               #  ZERO THE KILL MONITOR BIT
001819: 05,3132           00003                           RELINT
001820: 05,3133           00122                           TC       ENTRET
001821:
001822:
001823:
001824: 05,3134           05510        MONREQ             TC       LODSAMPT                              #  CALLED BY WAITLIST
001825: 05,3135           10306                           CCS      MONSAVE1                              #  TIME IS SNATCHED IN RUPT FOR NOUN 65
001826: 05,3136           03142                           TC       +4                                    #  IF KILLER BIT = 0, ENTER REQUESTS
001827: 05,3137           03142                           TC       +3                                    #  IF KILLER BIT = 0, ENTER REQUESTS
001828: 05,3140           03153                           TC       KILLMON                               #  IF KILLER BIT = 1, NO REQUESTS
001829: 05,3141           03153                           TC       KILLMON                               #  IF KILLER BIT = 1, NO REQUESTS
001830: 05,3142           33157                           CAF      MONDEL
001831: 05,3143           04451                           TC       WAITLIST                              #  ENTER WAITLIST REQUEST FOR MONREQ
001832: 05,3144     0264                                  EBANK=   DSPCOUNT
001833: 05,3144           03134 12000                     2CADR    MONREQ
001834: 05,3146           35464                           CAF      CHRPRIO
001835: 05,3147           04276                           TC       NOVAC                                 #  ENTER EXEC REQUEST FOR MONDO
001836: 05,3150     0264                                  EBANK=   DSPCOUNT
001837: 05,3150           03160 12000                     2CADR    MONDO
001838:
001839: 05,3152           04505                           TC       TASKOVER
001840:
001841: 05,3153           37657        KILLMON            CAF      ZERO                                  #  ZERO MONSAVE AND TURN KILLER BIT OFF
001842: 05,3154           54305                           TS       MONSAVE
001843: 05,3155           54306                           TS       MONSAVE1                              #  TURN OFF KILL MONITOR BIT.
001844: 05,3156           04505                           TC       TASKOVER
001845:
001846:
001847:
001848: 05,3157           00144        MONDEL             OCT      144                                   #  FOR 1 SEC MONITOR INTERVALS
001849:
001850:
001851:
001852: 05,3160           10306        MONDO              CCS      MONSAVE1                              #  CALLED BY EXEC
001853: 05,3161           03165                           TC       +4                                    #  IF KILLER BIT = 0, CONTINUE
001854: 05,3162           03165                           TC       +3                                    #  IF KILLER BIT = 0, CONTINUE
001855: 05,3163           04353                           TC       ENDOFJOB                              #  IN CASE TERMINATE CAME SINCE LAST MONREQ
001856: 05,3164           04353                           TC       ENDOFJOB                              #  IN CASE TERMINATE CAME SINCE LAST MONREQ
001857: 05,3165           10277                           CCS      DSPLOCK
001858: 05,3166           03212                           TC       MONBUSY                               #  NVSUB IS BUSY
001859: 05,3167           33401                           CAF      LOW6                                  #  NVSUB IS AVAILABLE
001860: 05,3170           70305                           MASK     MONSAVE
001861: 05,3171           54107                           TS       NVTEMP
001862: 05,3172           04707                           TC       NVSUBMON                              #  PLACE NOUN INTO NOUNREG AND DISPLAY IT
001863: 05,3173           04353                           TC       ENDOFJOB                              #  IN CASE OF ALARM DURING DISPLAY
001864: 05,3174           33210                           CAF      MONMASK
001865: 05,3175           70305                           MASK     MONSAVE                               #  CHANGE MONITOR VERB TO DISPLAY VERB
001866: 05,3176           05431                           TC       RIGHT5
001867:
001868: 05,3177           54020                           TS       CYR
001869: 05,3200           56020                           XCH      CYR
001870: 05,3201           54266                           TS       VERBREG
001871: 05,3202           33211                           CAF      MONBACK                               #  SET RETURN TO PASTEVB AFTER DATA DISPLAY
001872: 05,3203           54122                           TS       ENTRET
001873: 05,3204           47634                           CS       BIT15
001874: 05,3205           70306                           MASK     MONSAVE1                              #  PUT ECADR INTO MPAC +2.  INTMCTBS WILL
001875: 05,3206           54142                           TS       MPAC       +2                         #  DISPLAY IT AND SET NOUNCADR, NOUNADD,
001876: 05,3207           02037        ENDMONDO           TC       TESTNN                                #  EBANK.
001877:
001878:    4664                                           SETLOC   ENDIMODF
001879:
001880:    4664           34672        PASTEVB            CAF      MIDSIX
001881:    4665           70305                           MASK     MONSAVE
001882:    4666           54107                           TS       NVTEMP                                #  PLACE MONITOR VERB INTO VERBREG AND
001883:    4667           04707                           TC       NVSUBMON                              #       DISPLAY IT.
001884:    4670           04671                           TC       +1                                    #  IN CASE OF ALARM DURING DISPLAY
001885:    4671           04353        ENDPASTE           TC       ENDOFJOB
001886:
001887:    4672           07700        MIDSIX             OCT      07700
001888:
001889:
001890:
001891: 05,3210                                           SETLOC   ENDMONDO   +1
001892: 05,3210           00700        MONMASK            OCT      700
001893: 05,3211           04664        MONBACK            ADRES    PASTEVB
001894:
001895: 05,3212           05504        MONBUSY            TC       RELDSPON                              #  TURN KEY RELEASE LIGHT
001896: 05,3213           04353                           TC       ENDOFJOB
001897:
001898:
001899:
001900:                                                                                                  #  DSPFMEM IS USED TO DISPLAY (IN OCTAL) ANY FIXED REGISTER.
001901:                                                                                                  #  IT IS USED WITH NOUN = MACHINE CADR TO BE SPECIFIED. THE FCADR OF THE
001902:                                                                                                  #  DESIRED LOCATION IS THEN PUNCHED IN. IT HANDLES F/F ( FCADR 4000-7777)
001903:
001904: 05,3214           35426        DSPFMEM            CAF      R1D1                                  #  IF F/F, DATACALL USES BANK 02 OR 03.
001905: 05,3215           54264                           TS       DSPCOUNT
001906: 05,3216           30304                           CA       NOUNCADR                              #  ORIGINAL FCADR LOADED STILL IN NOUNCADR.
001907: 05,3217           04117                           TC       DATACALL
001908: 05,3220           03222                           TC       DSPOCTWD
001909: 05,3221           04353                           TC       ENDOFJOB
001910:
001911:                                                                                                  #   DSPDECWD CONVERTS C(MPAC) AND C(MPAC+1) TO A SIGN AND 5 CHAR DECIMAL
001912:                                                                                                  #  STARTING IN LOC SPECIFIED IN DSPCOUNT
001913:
001914: 04,3075                                           SETLOC   TESTOFUF   +4
001915: 04,3075           56002        DSPDECWD           XCH      Q                                     #  USES SHORTMP THROUGHOUT
001916: 04,3076           54101                           TS       WDRET                                 #  CANT USE L FOR RETURN.+ON USES L.
001917: 04,3077           10140                           CCS      MPAC
001918: 04,3100           03107                           TC       +7
001919: 04,3101           03107                           TC       +6
001920: 04,3102           67652                           AD       ONE
001921: 04,3103           54140                           TS       MPAC
001922: 04,3104           02313                           TC       -ON
001923: 04,3105           40141                           CS       MPAC       +1
001924: 04,3106           03111                           TC       +3
001925: 04,3107           02273                           TC       +ON
001926: 04,3110           56141                           XCH      MPAC       +1
001927: 04,3111           63150                           AD       DECROUND
001928: 04,3112           54141                           TS       MPAC       +1
001929: 04,3113           37657                           CAF      ZERO
001930: 04,3114           60140                           AD       MPAC
001931: 04,3115           54140                           TS       MPAC
001932: 04,3116           03122                           TC       +4
001933: 04,3117           37632                           CAF      POSMAX
001934: 04,3120           54140                           TS       MPAC
001935: 04,3121           54141                           TS       MPAC       +1
001936: 04,3122           37650                           CAF      FOUR
001937: 04,3123           54123        DSPDCWD1           TS       WDCNT
001938: 04,3124           35473                           CAF      BINCON
001939: 04,3125           07261                           TC       SHORTMP
001940: 04,3126           50140        TRACE1             INDEX    MPAC
001941: 04,3127           34640                           CAF      RELTAB
001942: 04,3130           75455                           MASK     LOW5
001943: 04,3131           54110                           TS       CODE
001944: 04,3132           37657                           CAF      ZERO
001945: 04,3133           56142                           XCH      MPAC       +2
001946: 04,3134           56141                           XCH      MPAC       +1
001947: 04,3135           54140                           TS       MPAC
001948: 04,3136           56264                           XCH      DSPCOUNT
001949: 04,3137           54127        TRACE1S            TS       COUNT
001950: 04,3140           10000                           CCS      A                                     #  DECREMENT DSPCOUNT EXCEPT AT +0
001951: 04,3141           54264                           TS       DSPCOUNT
001952: 04,3142           03175                           TC       DSPIN
001953: 04,3143           10123                           CCS      WDCNT
001954: 04,3144           03123                           TC       DSPDCWD1
001955: 04,3145           45470                           CS       VD1
001956: 04,3146           54264                           TS       DSPCOUNT
001957: 04,3147           00101                           TC       WDRET
001958:
001959: 04,3150           02476        DECROUND           OCT      02476
001960:
001961:                                                                                                  #  DSP2DEC CONVERTS C(MPAC) AND C(MPAC+1) INTO A SIGN AND 10 CHAR DECIMAL
001962:                                                                                                  #  STARTING IN THE LOC SPECIFIED IN DSPCOUNT.
001963:
001964: 04,3151           56002        DSP2DEC            XCH      Q                                     #  MUST USE SAME RETURN AS DSPDECWD
001965: 04,3152           54101                           TS       WDRET
001966: 04,3153           37657                           CAF      ZERO
001967: 04,3154           54110                           TS       CODE
001968: 04,3155           36165                           CAF      THREE
001969: 04,3156           03257                           TC       11DSPIN                               #  -R2 OFF
001970: 04,3157           37650                           CAF      FOUR
001971: 04,3160           03257                           TC       11DSPIN                               #  +R2 OFF
001972: 04,3161           10140                           CCS      MPAC
001973: 04,3162           03172                           TC       +8D
001974: 04,3163           03172                           TC       +7
001975: 04,3164           67652                           AD       ONE
001976: 04,3165           54140                           TS       MPAC
001977: 04,3166           02313                           TC       -ON
001978: 04,3167           40141                           CS       MPAC       +1
001979: 04,3170           54141                           TS       MPAC       +1
001980: 04,3171           03173                           TC       +2
001981: 04,3172           02273                           TC       +ON
001982: 04,3173           35427                           CAF      R2D1
001983: 04,3174           03123        END2DEC            TC       DSPDCWD1
001984:
001985:
001986:
001987: 05,3222                                           SETLOC   DSPFMEM    +6
001988:                                                                                                  #  DSPOCTWD DISPLAYS C(A) UPON ENTRY AS A 5 CHAR OCT STARTING IN THE DSP
001989:                                                                                                  #  CHAR SPECIFIED IN DSPCOUNT. IT STOPS AFTER 5 CHAR HAVE BEEN DISPLAYED.
001990:
001991: 05,3222           54022        DSPOCTWD           TS       CYL
001992: 05,3223           56002                           XCH      Q
001993: 05,3224           54101                           TS       WDRET                                 #  MUST USE SAME RETURN AS DSP2BIT.
001994: 05,3225           37635                           CAF      BIT14                                 #  TO BLANK SIGNS
001995: 05,3226           26264                           ADS      DSPCOUNT
001996: 05,3227           37650                           CAF      FOUR
001997: 05,3230           54123        WDAGAIN            TS       WDCNT
001998: 05,3231           40022                           CS       CYL
001999: 05,3232           40022                           CS       CYL
002000: 05,3233           40022                           CS       CYL
002001: 05,3234           40000                           CS       A
002002: 05,3235           77656                           MASK     DSPMSK
002003: 05,3236           50000                           INDEX    A
002004: 05,3237           34640                           CAF      RELTAB
002005: 05,3240           75455                           MASK     LOW5
002006: 05,3241           54110                           TS       CODE
002007: 05,3242           56264                           XCH      DSPCOUNT
002008: 05,3243           54127                           TS       COUNT
002009: 05,3244           10000                           CCS      A                                     #  DECREMENT DSPCOUNT EXCEPT AT +0
002010: 05,3245           54264                           TS       DSPCOUNT
002011:
002012: 05,3246           04103                           TC       POSTJUMP
002013: 05,3247           11265                           CADR     DSPOCTIN
002014: 05,3250           10123        OCTBACK            CCS      WDCNT
002015: 05,3251           03230                           TC       WDAGAIN                               #  +
002016: 05,3252           45470        DSPLV              CS       VD1                                   #  TO BLOCK NUMERICAL CHARACTERS, CLEARS,
002017: 05,3253           54264                           TS       DSPCOUNT                              #  AND SIGNS AFTER A COMPLETED DISPLAY.
002018: 05,3254           00101                           TC       WDRET
002019:
002020: 05,3255     7656               DSPMSK             =        SEVEN
002021:
002022:
002023:
002024:                                                                                                  #  DSP2BIT DISPLAYS C(A) UPON ENTRY AS A 2 CHAR OCT BEGINNING IN THE DSP
002025:                                                                                                  #  LOC SPECIFIED IN DSPCOUNT BY PRE CYCLING RIGHT C(A) AND USING THE LOGIC
002026:                                                                                                  #  OF THE 5 CHAR OCTAL DISPLAY
002027:
002028: 05,3255           54020        DSP2BIT            TS       CYR
002029: 05,3256           56002                           XCH      Q
002030: 05,3257           54101                           TS       WDRET                                 #  CANT USE L AS RETURN. UPDATNN USES L.
002031: 05,3260           37652                           CAF      ONE
002032: 05,3261           54123                           TS       WDCNT
002033: 05,3262           40020                           CS       CYR
002034: 05,3263           40020                           CS       CYR
002035: 05,3264           56020                           XCH      CYR
002036: 05,3265           54022                           TS       CYL
002037: 05,3266           03235                           TC       WDAGAIN    +5
002038:
002039:
002040:
002041:                                                                                                  #  FOR DSPIN PLACE 0/25 OCT INTO COUNT, 5 BIT RELAY CODE INTO CODE. BOTH
002042:                                                                                                  #  ARE DESTROYED. IF BIT14 OF COUNT IS 1, SIGN IS BLANKED WITH LEFT CHAR.
002043:                                                                                                  #  FOR DSPIN1 PLACE 0,1 INTO BIT11 OF CODE, 2 INTO COUNT, REL ADDRESS OF
002044:                                                                                                  #  DSPTAB ENTRY INTO DSREL.
002045:
002046: 04,3175                                           SETLOC   END2DEC    +1
002047:
002048: 04,3175           56002        DSPIN              XCH      Q                                     #  CANT USE L FOR RETURN, SINCE MANY OF THE
002049: 04,3176           54100                           TS       DSEXIT                                #  ROUTINES CALLING DSPIN USE L AS RETURN.
002050: 04,3177           35455                           CAF      LOW5
002051: 04,3200           70127                           MASK     COUNT
002052: 04,3201           54021                           TS       SR
002053: 04,3202           56021                           XCH      SR
002054: 04,3203           54125                           TS       DSREL
002055: 04,3204           37652                           CAF      BIT1
002056: 04,3205           70127                           MASK     COUNT
002057: 04,3206           10000                           CCS      A
002058: 04,3207           03211                           TC       +2                                    #  LEFT IF COUNT IS ODD
002059: 04,3210           03221                           TC       DSPIN1     -1                         #  RIGHT IF COUNT IS EVEN
002060: 04,3211           56110                           XCH      CODE
002061: 04,3212           05447                           TC       SLEFT5                                #  DOES NOT USE CYL
002062:
002063: 04,3213           54110                           TS       CODE
002064: 04,3214           37635                           CAF      BIT14
002065: 04,3215           70127                           MASK     COUNT
002066: 04,3216           10000                           CCS      A
002067: 04,3217           37651                           CAF      TWO                                   #  BIT14 = 1, BLANK SIGN
002068: 04,3220           67652                           AD       ONE                                   #  BIT14 = 0, LEAVE SIGN ALONE
002069: 04,3221           54127                           TS       COUNT                                 #  +0 INTO COUNT FOR RIGHT
002070:                                                                                                  #  +1 INTO COUNT FOR LEFT (SIGN LEFT ALONE)
002071:                                                                                                  #  +3 INTO COUNT FOR LEFT (TO BLANK SIGN)
002072: 04,3222           00004        DSPIN1             INHINT
002073: 04,3223           50125                           INDEX    DSREL
002074: 04,3224           10307                           CCS      DSPTAB
002075: 04,3225           03227                           TC       +2                                    #  IF +
002076: 04,3226           05715                           TC       CCSHOLE
002077: 04,3227           67652                           AD       ONE                                   #  IF -
002078: 04,3230           54126                           TS       DSMAG
002079: 04,3231           50127                           INDEX    COUNT
002080: 04,3232           73253                           MASK     DSMSK
002081: 04,3233           00006                           EXTEND
002082: 04,3234           60110                           SU       CODE
002083: 04,3235           00006                           EXTEND
002084: 04,3236           13251                           BZF      DSLV                                  #  SAME
002085: 04,3237           50127        DFRNT              INDEX    COUNT
002086: 04,3240           43253                           CS       DSMSK                                 #  MASK WITH 77740,76037, OR 75777
002087: 04,3241           70126                           MASK     DSMAG
002088: 04,3242           60110                           AD       CODE
002089: 04,3243           40000                           CS       A
002090: 04,3244           50125                           INDEX    DSREL
002091: 04,3245           56307                           XCH      DSPTAB
002092: 04,3246           00006                           EXTEND
002093: 04,3247           63251                           BZMF     DSLV                                  #  DSPTAB ENTRY WAS -
002094: 04,3250           24303                           INCR     NOUT                                  #  DSPTAB ENTRY WAS +
002095: 04,3251           00003        DSLV               RELINT
002096: 04,3252           00100                           TC       DSEXIT
002097:
002098: 04,3253           00037        DSMSK              OCT      37
002099: 04,3254           01740                           OCT      1740
002100: 04,3255           02000                           OCT      2000
002101: 04,3256           03740                           OCT      3740
002102:
002103:
002104:
002105:                                                                                                  #  FOR 11DSPIN, PUT REL ADDRESSS OF DSPTAB ENTRY INTO A, 1 IN BIT11 OR 0 IN
002106:                                                                                                  #  BIT11 OF CODE.
002107:
002108: 04,3257           54125        11DSPIN            TS       DSREL
002109: 04,3260           37651                           CAF      TWO
002110: 04,3261           54127                           TS       COUNT
002111: 04,3262           56002                           XCH      Q                                     #  MUST USE SAME RETURN AS DSPIN
002112: 04,3263           54100                           TS       DSEXIT
002113:
002114: 04,3264           03222                           TC       DSPIN1
002115:
002116:
002117:
002118: 04,3265           03175        DSPOCTIN           TC       DSPIN                                 #  SO DSPOCTWD DOESNT USE SWCALL
002119: 04,3266           33270                           CAF      +2
002120: 04,3267           04106                           TC       BANKJUMP
002121: 04,3270           13250        ENDSPOCT           CADR     OCTBACK
002122:
002123:
002124:
002125:                                                                                                  #  DSPALARM FINDS TC NVSUBEND IN ENTRET FOR NVSUB INITIATED ROUTINES.
002126:                                                                                                  #  ABORT WITH 01501.
002127:                                                                                                  #  DSPALARM FINDS TC ENDOFJOB IN ENTRET FOR KEYBOARD INITIATED ROUTINES.
002128:                                                                                                  #  DO TC ENTRET.
002129:
002130: 04,3271           34734        CHARALRM           CAF      ENDINST                               #  ALARMS WHICH MUST DO ENDOFJOBS COME
002131: 04,3272           54122                           TS       ENTRET                                #  HERE. ALLOWS ENTRET TO BE TEMP ERASABLE
002132:
002133: 04,3273           05474        DSPALARM           TC       FALTON                                #  TURN ON OPERATOR ERROR LIGHT
002134: 04,3274           43303                           CS       NVSBENDL
002135: 04,3275           60122                           AD       ENTEXIT
002136: 04,3276           00006                           EXTEND
002137: 04,3277           13301                           BZF      +2                                    #  NVSUB INITIATED. ABORT
002138: 04,3300           00122                           TC       ENTEXIT                               #  NOT NVSUB INITIATED.
002139: 04,3301           05677                           TC       ABORT
002140: 04,3302           01501                           OCT      01501
002141: 04,3303           04713        NVSBENDL           TC       NVSUBEND
002142:
002143:
002144:
002145:                                                                                                  #  MMCHANG USES NOUN DISPLAY UNTIL ENTER. THEN IT USES MODE DISP.
002146:                                                                                                  #  IT GOES TO MODROUT WITH THE NEW M M CODE IN A, BUT NOT DISPLAYED IN
002147:                                                                                                  #  M M LIGHTS.
002148:
002149: 05,3267                                           SETLOC   DSP2BIT    +10D
002150:
002151: 05,3267           03302        MMCHANG            TC       REQMM
002152: 05,3270           37657                           CAF      ZERO
002153: 05,3271           56267                           XCH      NOUNREG
002154: 05,3272           54140                           TS       MPAC
002155: 05,3273           35471                           CAF      ND1
002156: 05,3274           54264                           TS       DSPCOUNT
002157: 05,3275           04064                           TC       BANKCALL
002158: 05,3276           10535                           CADR     2BLANK
002159: 05,3277           30140                           CA       MPAC
002160: 05,3300           04103                           TC       POSTJUMP
002161: 05,3301           11273                           CADR     MODROUTB                              #  GO THRU STANDARD LOC.
002162:
002163: 05,3302  04,3273               MODROUTB           =        DSPALARM                              #  **FIX LATER**
002164: 05,3302           40002        REQMM              CS       Q
002165: 05,3303           54300                           TS       REQRET
002166: 05,3304           35471                           CAF      ND1
002167: 05,3305           54264                           TS       DSPCOUNT
002168: 05,3306           37657                           CAF      ZERO
002169: 05,3307           54267                           TS       NOUNREG
002170: 05,3310           04064                           TC       BANKCALL
002171: 05,3311           10535                           CADR     2BLANK
002172: 05,3312           05525                           TC       FLASHON
002173: 05,3313           00122                           TC       ENTEXIT
002174:
002175:
002176:
002177:                                                                                                  #  VBRQEXEC ENTERS REQUEST TO EXEC     FOR ANY ADDRESS WITH ANY PRIORITY.
002178:                                                                                                  #  IT DOES ENDOFJOB AFTER ENTERING REQUEST. DISPLAY SYST IS RELEASED.
002179:                                                                                                  #  IT ASSUMES NOUN 26 HAS BEEN PRELOADED WITH
002180:                                                                                                  #  COMPONENT 1  PRIORITY(BITS 10-14) BIT1=0 FOR NOVAC, BIT1=1 FOR FINDVAC.
002181:                                                                                                  #  COMPONENT 2  JOB ADRES (12 BIT )
002182:                                                                                                  #  COMPONENT 3  BBCON
002183:
002184: 05,3314           37652        VBRQEXEC           CAF      BIT1
002185: 05,3315           70333                           MASK     DSPTEM1
002186: 05,3316           10000                           CCS      A
002187: 05,3317           03336                           TC       SETVAC                                #  IF BIT1 = 1, FINDVAC
002188: 05,3320           35460                           CAF      TCNOVAC                               #  IF BIT1 = 0, NOVAC
002189: 05,3321           54140        REQEX1             TS       MPAC                                  #  TC NOVAC OR TC FINDVAC INTO MPAC
002190: 05,3322           47652                           CS       BIT1
002191: 05,3323           70333                           MASK     DSPTEM1
002192: 05,3324           54144                           TS       MPAC       +4                         #  PRIO INTO MPAC+4 AS A TEMP
002193: 05,3325           05572        REQUESTC           TC       RELDSP
002194: 05,3326           34734                           CA       ENDINST
002195: 05,3327           54143                           TS       MPAC       +3                         #  TC ENDOFJOB INTO MPAC+3
002196: 05,3330           00006                           EXTEND
002197: 05,3331           30335                           DCA      DSPTEM1    +1                         #  JOB ADRES INTO MPAC+1
002198: 05,3332           52142                           DXCH     MPAC       +1                         #  BBCON INTO MPAC+2
002199: 05,3333           30144                           CA       MPAC       +4                         #  PRIO IN A
002200: 05,3334           00004                           INHINT
002201: 05,3335           00140                           TC       MPAC
002202:
002203: 05,3336           35463        SETVAC             CAF      TCFINDVC
002204: 05,3337           03321                           TC       REQEX1
002205:
002206:                                                                                                  #  VBRQWAIT ENTERS REQUEST TO WAITLIST FOR ANY ADDRESS WITH ANY DELAY.
002207:                                                                                                  #  IT DOES ENDOFJOB AFTER ENTERING REQUEST.DISPLAY SYST IS RELEASED.
002208:                                                                                                  #  IT ASSUMES NOUN 26 HAS BEEN PRELOADED WITH
002209:                                                                                                  #  COMPONENT 1  DELAY (LOW BITS)
002210:                                                                                                  #  COMPONENT 2  TASK ADRES (12 BIT)
002211:                                                                                                  #  COMPONENT 3  BBCON
002212:
002213: 05,3340           35461        VBRQWAIT           CAF      TCWAIT
002214: 05,3341           54140                           TS       MPAC                                  #  TC WAITLIST INTO MPAC
002215: 05,3342           30333                           CA       DSPTEM1                               #  TIME DELAY
002216: 05,3343           03324        ENDRQWT            TC       REQUESTC   -1
002217:
002218:                                                                                                  #  REQUESTC WILL PUT TASK ADRES INTO MPAC+1, BBCON INTO MPAC+2,
002219:                                                                                                  #  TC ENDOFJOB INTO MPAC+3. IT WILL TAKE TIME DELAY OUT OF MPAC+4 AND
002220:                                                                                                  #  LEAVE IT IN A, INHINT AND TC MPAC.
002221:
002222:
002223:
002224: 04,3304                                           SETLOC   NVSBENDL   +1
002225: 04,3304           37652        VBPROC             CAF      ONE                                   #  PROCEED WITHOUT DATA
002226: 04,3305           54301                           TS       LOADSTAT
002227: 04,3306           05572                           TC       RELDSP
002228: 04,3307           05531                           TC       FLASHOFF
002229: 04,3310           03416                           TC       RECALTST                              #  SEE IF THERE IS ANY RECALL FROM ENDIDLE
002230:
002231:
002232:
002233: 04,3311           04715        VBTERM             TC       KILMONON                              #  TURN ON KILL MONITOR BIT
002234: 04,3312           47652                           CS       ONE
002235: 04,3313           03305                           TC       VBPROC     +1                         #  TERM VERB SETS LOADSTAT NEG
002236:
002237:
002238:
002239:                                                                                                  #  FLASH IS TURNED OFF ONLY BY PROCEED WITHOUT DATA, TERMINATE, END OF LOAD
002240:
002241:
002242:
002243:                                                                                                  #  VBRELDSP TURNS OFF RELEASE DISPLAY SYSTEM LIGHT(AND SEARCHES LIST ONLY
002244:                                                                                                  #  IF THIS LIGHT WAS TURNED ON BY NVSUBUSY), AND TURNS OFF UPACT LIGHT.
002245:
002246: 04,3314           47650        VBRELDSP           CS       BIT3
002247: 04,3315           00006                           EXTEND
002248: 04,3316           03011                           WAND     DSALMOUT                              #  TURN OFF UPACT LIGHT
002249: 04,3317           05572                           TC       RELDSP                                #  SEARCHES LIST
002250: 04,3320           04353                           TC       ENDOFJOB
002251:
002252:
002253:
002254:                                                                                                  #  BUMP SHIFTS WORD DISPLAYED IN R2 TO R3, R1 TO R2. IT BLANKS R1.
002255:
002256: 04,3321           37227        BUMP               CAF      FIVE                                  #  R2D5
002257: 04,3322           54264                           TS       DSPCOUNT
002258: 04,3323           54127                           TS       COUNT
002259: 04,3324           37652                           CAF      ONE                                   #  SHIFT DATA OF R2 TO R3, R1 TO R2
002260: 04,3325           70127                           MASK     COUNT
002261: 04,3326           56127                           XCH      COUNT                                 #  +0 INTO COUNT IF EVEN (RIGHT)
002262: 04,3327           54021                           TS       SR                                    #  +1 INTO COUNT IF ODD (LEFT)
002263:
002264: 04,3330           56021                           XCH      SR                                    #  DSREL IN A
002265: 04,3331           50000                           INDEX    A
002266: 04,3332           10307                           CCS      DSPTAB
002267: 04,3333           03335                           TC       +2
002268: 04,3334           05715                           TC       CCSHOLE
002269: 04,3335           67652                           AD       ONE                                   #  DSMAG IN A
002270: 04,3336           50127                           INDEX    COUNT
002271: 04,3337           73253                           MASK     DSMSK
002272: 04,3340           50127                           INDEX    COUNT
002273: 04,3341           03342                           TC       +1
002274: 04,3342           03344                           TC       +2                                    #  EVEN(RIGHT)  OK
002275: 04,3343           05431                           TC       RIGHT5                                #  ODD(LEFT)  SHIFT RIGHT
002276: 04,3344           54110                           TS       CODE
002277: 04,3345           47227                           CS       FIVE
002278: 04,3346           60264                           AD       DSPCOUNT                              #  DSPCOUNT-5
002279: 04,3347           10000                           CCS      A                                     #  TO PREVENT -0
002280: 04,3350           67652                           AD       ONE
002281: 04,3351           03353                           TC       +2
002282: 04,3352           05715                           TC       CCSHOLE
002283: 04,3353           54127                           TS       COUNT
002284: 04,3354           03175                           TC       DSPIN                                 #  CODE ALREADY IN CODE
002285: 04,3355           40264                           CS       DSPCOUNT
002286: 04,3356           65426                           AD       R1D1                                  #  OCT 16
002287: 04,3357           10000                           CCS      A
002288: 04,3360           56264                           XCH      DSPCOUNT                              #  +, DSPCOUNT L/ OCT 16
002289: 04,3361           67652                           AD       ONE                                   #  INCREMENT DSPCOUNT
002290: 04,3362           03322                           TC       BUMP       +1
002291:
002292: 04,3363           37657        SWSGN              CAF      ZERO                                  #  -0, DSPCOUNT= OCT 16. DO SIGN SHIFT
002293: 04,3364           54264                           TS       DSPCOUNT
002294: 04,3365           63414                           AD       SWTAB      +2                         #  OCT 3
002295: 04,3366           50000                           INDEX    A                                     #  PICKUP ORDER , DSREL=3,4,5,6.
002296: 04,3367           10307                           CCS      DSPTAB                                #                   (-R2,+R2,-R1,+R1)
002297: 04,3370           03372                           TC       +2
002298: 04,3371           05715                           TC       CCSHOLE
002299: 04,3372           67652                           AD       ONE
002300: 04,3373           77640                           MASK     BIT11
002301: 04,3374           54110                           TS       CODE
002302: 04,3375           50264                           INDEX    DSPCOUNT
002303: 04,3376           33412                           CAF      SWTAB                                 #  PUT AWAY ORDER, DSREL= 0,1,3,4.
002304: 04,3377           03257                           TC       11DSPIN                               #                   (-R3,+R3,-R2,+R2.)
002305: 04,3400           40264                           CS       DSPCOUNT
002306: 04,3401           63414                           AD       SWTAB      +2                         #  OCT 3
002307: 04,3402           10000                           CCS      A
002308: 04,3403           56264                           XCH      DSPCOUNT                              #  +, DSPCOUNT L/ 3
002309: 04,3404           67652                           AD       ONE                                   #  INCREMENT DSPCOUNT
002310: 04,3405           03364                           TC       SWSGN      +1
002311: 04,3406           35426                           CAF      R1D1                                  #  -0,       DSPCOUNT = 3
002312: 04,3407           54264                           TS       DSPCOUNT
002313: 04,3410           02472                           TC       5BLANK                                #  BLANKS R1
002314:
002315: 04,3411           00122                           TC       ENTEXIT
002316:
002317: 04,3412           00000        SWTAB              OCT      0                                     #  -R3
002318: 04,3413           00001                           OCT      1                                     #  +R3
002319: 04,3414           00003                           OCT      3                                     #  -R2
002320: 04,3415           00004                           OCT      4                                     #  +R2
002321:
002322:                                                                                                  #  NVSUB IS USED FOR SUBROUTINE CALLS FROM WITHIN COMPUTER. IT CAN BE
002323:                                                                                                  #  USED TO DO ANY THING THE KEYBOARD CAN CALL. PLACE ...VVVVVVNNNNNN
002324:                                                                                                  #  INTO A.      V-S ARE 6BIT VERB CODE. N-S , 6 BIT NOUN CODE.
002325:
002326:                                                                                                  #  NVSUB CAN BE USED WITH MACH CADR TO BE SPEC BY PLACING THE CADR INTO
002327:                                                                                                  #  MPAC+2 BEFORE THE STANDARD NVSUB CALL.
002328:
002329:                                                                                                  #   NVSUB RETURNS TO 2+ CALLING LOC AFTER PERFORMING TASK, IF DISPLAY
002330:                                                                                                  #  SYSTEM IS AVAILABLE. THE NEW NOUN AND VERB CODES ARE DISPLAYED.
002331:                                                                                                  #  IF V:S =0, THE NEW NOUN CODE IS DISPLAYED ONLY(RETURN WITH NO FURTHER
002332:                                                                                                  #  ACTION). IF N-S =0, THE NEW VERB CODE IS DISPLAYED ONLY(RETURN WITH NO
002333:                                                                                                  #  FURTHER ACTION).
002334:
002335:                                                                                                  #  IT RETURNS TO 1+ CALLING LOC WITHOUT PERFORMING TASK, IF DISPLAY
002336:                                                                                                  #  SYSTEM IS BLOCKED (NOTHING IS DISPLAYED IN THIS CASE).
002337:                                                                                                  #  IT DOES TC ABORT (WITH OCT 01501) IF IT ENCOUNTERS A DISPLAY PROGRAM
002338:                                                                                                  #  ALARM CONDITION BEFORE RETURN TO CALLER.
002339:
002340:                                                                                                  #  THE DISPLAY SYSTEM IS BLOCKED BY THE DEPRESSION OF ANY
002341:                                                                                                  #  KEY, EXCEPT ERROR LIGHT RESET. ALSO BY ENDIDLE.
002342:                                                                                                  #       IT IS RELEASED BY SPECIAL VERB = RELEASE DISPLAY, ALL GO TO VERBS.
002343:                                                                                                  #  PROCEED WITHOUT DATA, TERMINATE, INITIALIZE EXECUTIVE,
002344:                                                                                                  #  RECALL PART OF RECALTST IF ENDIDLE WAS USED,
002345:                                                                                                  #  IN RECALTST IF NVSUB INITIATED LOAD AND ENDIDLE WAS NOT USED,
002346:                                                                                                  #  VB = REQUEST EXECUTIVE, VB = REQUEST WAITLIST,
002347:                                                                                                  #  MONITOR SET UP.
002348:
002349:                                                                                                  #  A NVSUB CALL THAT PASSES DSPLOCK ENDS OLD MONITOR.
002350:
002351:                                                                                                  #  DSPLOCK IS THE INTERLOCK FOR USE OF KEYBOARD AND DISPLAY SYSTEM WHICH
002352:                                                                                                  #  LOCKS OUT INTERNAL USE WHENEVER THERE IS EXTERNAL KEYBOARD ACTION.
002353:
002354:                                                                                                  #  NVSUB IN FIXED-FIXED PLACES 2+CALLING LOC INTO NVQTEM, TC NVSUBEND INTO
002355:                                                                                                  #  ENTRET. (THIS WILL RESTORE OLD CALLING BANK BITS)
002356:
002357:    4673                                           SETLOC   MIDSIX     +1
002358:    4673           54107        NVSUB              TS       NVTEMP                                #  IN FIXED FIXED
002359:    4674           10277                           CCS      DSPLOCK
002360:    4675           00002                           TC       Q                                     #  DSP SYST BLOCKED. RET TO 1+ CALLING LOC
002361:    4676           30002                           CA       Q                                     #  DSP SYST AVAILABLE
002362:    4677           67652                           AD       ONE
002363:    4700           54325                           TS       NVQTEM                                #  2+ CALLING LOC INTO NVQTEM
002364:    4701           04715                           TC       KILMONON                              #  TURN ON KILL MONITOR BIT
002365:    4702           34706        NVSUBCOM           CAF      NVSBBBNK
002366:
002367:    4703           56006                           XCH      BBANK
002368:    4704           54326                           TS       NVBNKTEM
002369:    4705           02000                           TC       NVSUBB                                #  GO TO NVSUB1 THRU STANDARD LOC
002370:    4706     0264                                  EBANK=   DSPCOUNT
002371:    4706           12000        NVSBBBNK           BBCON    NVSUB1
002372:
002373:    4707           30002        NVSUBMON           CA       Q                                     #  MONDO COMES HERE
002374:    4710           67652                           AD       ONE
002375:    4711           54325                           TS       NVQTEM                                #  2 + CALLING LOC INTO NVQTEM
002376:    4712           04702                           TC       NVSUBCOM
002377:
002378:    4713           52326        NVSUBEND           DXCH     NVQTEM                                #  NVBNKTEM MUST = NVQTEM+1
002379:    4714           52006                           DXCH     Z                                     #  DTCB
002380:
002381: 05,3344                                           SETLOC   ENDRQWT    +1
002382:
002383: 05,3344           33363        NVSUB1             CAF      ENTSET                                #  IN BANK
002384: 05,3345           54122                           TS       ENTRET                                #  SET RETURN TO NVSUBEND
002385: 05,3346           33401                           CAF      LOW6
002386: 05,3347           70107                           MASK     NVTEMP
002387: 05,3350           54140                           TS       MPAC                                  #  TEMP STORAGE
002388: 05,3351           33402                           CAF      MID6
002389: 05,3352           70107                           MASK     NVTEMP
002390: 05,3353           05431                           TC       RIGHT5
002391: 05,3354           54020                           TS       CYR
002392: 05,3355           56020                           XCH      CYR
002393: 05,3356           54141                           TS       MPAC       +1                         #  TEMP STORAGE
002394: 05,3357           10140                           CCS      MPAC                                  #  TEST NOUN
002395: 05,3360           03364                           TC       +4                                    #  IF NOUN NOT +0, GO ON
002396: 05,3361           56141                           XCH      MPAC       +1
002397: 05,3362           02314                           TC       UPDATVB    -1                         #  IF NOUN = +0, DISPLAY VERB, THEN RETURN
002398: 05,3363           04713        ENTSET             TC       NVSUBEND
002399: 05,3364           10141                           CCS      MPAC       +1                         #  TEST VERB
002400: 05,3365           03371                           TC       +4                                    #  IF VERB NOT +0, GO ON
002401: 05,3366           56140                           XCH      MPAC
002402: 05,3367           02274                           TC       UPDATNN    -1                         #  IF VERB = +0, DISPLAY NOUN. THEN RETURN
002403: 05,3370           04713                           TC       NVSUBEND
002404: 05,3371           56141                           XCH      MPAC       +1
002405: 05,3372           02314                           TC       UPDATVB    -1                         #  IF BOTH NOUN AND VERB NOT +0, DISPLAY
002406: 05,3373           56140                           XCH      MPAC                                  #  BOTH AND GO TO ENTPAS0
002407: 05,3374           02274                           TC       UPDATNN    -1
002408: 05,3375           37657                           CAF      ZERO
002409: 05,3376           54301                           TS       LOADSTAT                              #  SET FOR WAITING FOR DATA CONDITION
002410: 05,3377           54302                           TS       CLPASS
002411: 05,3400           02031                           TC       ENTPAS0
002412:
002413:                                                                                                  #  IF INTERNAL MACH CADR TO BE SPECIFIED, MPAC+2 WILL BE PLACED INTO
002414:                                                                                                  #  NOUNCADR IN ENTPAS0 (INTMCTBS ).
002415:
002416:
002417:
002418: 05,3401           00077        LOW6               OCT      77
002419: 05,3402           07700        MID6               OCT      7700
002420:
002421:    4715                                           SETLOC   NVSUBEND   +2
002422:    4715           47634        KILMONON           CS       BIT15                                 #  FORCE BIT 15 OF MONSAVE1 TO 1.
002423:    4716           00004                           INHINT                                         #          THIS IS THE KILL MONITOR BIT.
002424:    4717           70306                           MASK     MONSAVE1
002425:    4720           67634                           AD       BIT15
002426:    4721           54306                           TS       MONSAVE1
002427:    4722           00003                           RELINT
002428:    4723           00002                           TC       Q
002429:
002430:
002431:
002432:                                                                                                  #  LOADSTAT  +0 INACTIVE (WAITING FOR DATA). SET BY NVSUB
002433:                                                                                                  #            +1  PROCEED NO DATA. SET BY SPECIAL VERB
002434:                                                                                                  #           -1 TERMINATE   SET BY SPECIAL VERB
002435:                                                                                                  #           -0 DATA IN   SET BY END OF LOAD ROUTINE
002436:
002437:
002438:
002439:                                                                                                  #  L  TC ENDIDLE  (FIXED FIXED)
002440:                                                                                                  #  ROUTINES THAT REQUEST LOADS THROUGH NVSUB SHOULD USE ENDIDLE WHILE
002441:                                                                                                  #  WAITING FOR THE DATA TO BE LOADED. ENDIDLE PUTS CURRENT JOB TO SLEEP.
002442:                                                                                                  #  ENDIDLE CANNOT BE CALLED FROM ERASABLE MEMORY, SINCE JOBSLEEP AND
002443:                                                                                                  #  JOBWAKE CAN HANDLE ONLY FIXED MEMORY.
002444:                                                                                                  #  RECALTST TESTS LOADSTAT AND WAKES JOB UP TO,
002445:                                                                                                  #  L+1      FOR TERMINATE
002446:                                                                                                  #  L+2      FOR PROCEED WITHOUT DATA
002447:                                                                                                  #  L+3      FOR DATA IN
002448:                                                                                                  #  IT DOES NOTHING     IF LOADSTAT INDICATES WAITING FOR DATA.
002449:
002450:    4724           37652        ENDIDLE            CAF      ONE
002451:    4725           54277                           TS       DSPLOCK
002452:    4726           22004                           LXCH     FBANK
002453:    4727           56002                           XCH      Q
002454:    4730           52120                           DXCH     BUF2
002455:    4731           04113                           TC       MAKECADR
002456:    4732           54323                           TS       CADRSTOR
002457:    4733           04331                           TC       JOBSLEEP
002458:
002459:
002460:
002461:    4734           04353        ENDINST            TC       ENDOFJOB
002462:
002463:                                                                                                  #  DATAWAIT IS AN ALTERNATIVE TO ENDIDLE, IT RETURNS IMMEDIATELY IF
002464:                                                                                                  #  LOADSTAT INDICATES THAT DATA IS ALREADY IN, OR PROCEED OR TERMINATE HAS
002465:                                                                                                  #  BEEN EXECUTED. RETURN FORMAT IS SAME AS FOR ENDIDLE.
002466:                                                                                                  #  DATAWAIT CANNOT BE CALLED FROM ERASABLE MEMORY, SINCE JOBSLEEP
002467:                                                                                                  #  AND JOBWAKE CAN HANDLE ONLY FIXED MEMORY.
002468:                                                                                                  #  DATAWAIT SHOULD BE USED ONLY AFTER REQUESTING A LOAD VERB.
002469:
002470:    4735           10301        DATAWAIT           CCS      LOADSTAT
002471:
002472:    4736           14743                           TCF      DATWAIT1                              #  PROCEED. RETURN TO L+2.
002473:    4737           14724                           TCF      ENDIDLE                               #  STILL WAITING. GO TO SLEEP.
002474:    4740           00002                           TC       Q                                     #  TERMINATE. RETURN TO L+1.
002475:    4741           50002                           INDEX    Q                                     #  DATA IN. RETURN TO L+3.
002476:    4742           00002                           TC       2
002477:    4743           50002        DATWAIT1           INDEX    Q                                     #  RETURN TO L+2.
002478:    4744           00001                           TC       1
002479:
002480:                                                                                                  #  DATAWAIT DOES NOT RELEASE DISPLAY SYST. IT IS RELEASED AT END OF NVSUB
002481:                                                                                                  #  INITIATED LOAD, IF ENDIDLE WAS NOT USED.
002482:
002483:
002484:
002485: 05,3403                                           SETLOC   MID6       +1
002486:                                                                                                  #  DSPMM PLACE MAJOR MODE CODE INTO MODREG
002487:
002488: 05,3403           35472        DSPMM1             CAF      MD1                                   #  GETS HERE THRU DSPMM (STANDARD LEAD IN)
002489: 05,3404           56264                           XCH      DSPCOUNT
002490: 05,3405           54124                           TS       DSPMMTEM                              #  SAVE DSPCOUNT
002491: 05,3406           30276                           CA       MODREG
002492: 05,3407           22002                           LXCH     Q
002493: 05,3410           03255                           TC       DSP2BIT
002494: 05,3411           56124                           XCH      DSPMMTEM                              #  RESTORE DSPCOUNT
002495: 05,3412           54264                           TS       DSPCOUNT
002496: 05,3413           00001        DSPMMEND           TC       L
002497:
002498:
002499:
002500:                                                                                                  #  RECALTST IS ENTERED DIRECTLY AFTER DATA IS
002501:                                                                                                  #  LOADED, TERMINATE VERB IS EXECUTED, OR THE PROCEED WITHOUT DATA VERB IS
002502:                                                                                                  #  EXECUTED. IT WAKES UP JOB THAT DID TC ENDIDLE.
002503:
002504:                                                                                                  #  IF NVSUB INITIATED LOAD, AND ENDIDLE WAS NOT USED, THEN IT RELEASES
002505:                                                                                                  #  DISPLAY SYST. (NEEDED FOR DATAWAIT)
002506:
002507: 04,3416                                           SETLOC   SWTAB      +4
002508:
002509: 04,3416           10323        RECALTST           CCS      CADRSTOR
002510: 04,3417           03424                           TC       RECAL1
002511: 04,3420           04353                           TC       ENDOFJOB                              #  NORMAL EXIT IF KEYBOARD INITIATED
002512: 04,3421           03424                           TC       RECAL1
002513: 04,3422           54323                           TS       CADRSTOR                              #  -0. CONCLUSION OF NVSUB INITIATED LOAD.
002514: 04,3423           03442                           TC       RECAL3                                #  +0 INTO CADRSTOR. RELEASE DISPLAY,
002515:                                                                                                  #     AND ENDOFJOB. NEEDED FOR DATAWAIT.
002516: 04,3424           37657        RECAL1             CAF      ZERO
002517: 04,3425           56323                           XCH      CADRSTOR
002518: 04,3426           00004                           INHINT
002519: 04,3427           04335                           TC       JOBWAKE
002520: 04,3430           10301                           CCS      LOADSTAT
002521: 04,3431           03446                           TC       DOPROC                                #  + PROCEED WITHOUT DATA
002522:
002523: 04,3432           04353                           TC       ENDOFJOB                              #  PATHALOGICAL CASE EXIT
002524: 04,3433           03444                           TC       DOTERM                                #  -   TERMINATE
002525: 04,3434           37651                           CAF      TWO
002526: 04,3435           50071        RECAL2             INDEX    LOCCTR
002527: 04,3436           60150                           AD       LOC                                   #  LOC IS + FOR BASIC JOBS
002528: 04,3437           50071                           INDEX    LOCCTR
002529: 04,3440           54150                           TS       LOC
002530: 04,3441           00003                           RELINT
002531: 04,3442           05615        RECAL3             TC       RELDSP1                               #  DOES NOT SEARCH LIST
002532: 04,3443           04353                           TC       ENDOFJOB
002533:
002534: 04,3444           37657        DOTERM             CAF      ZERO
002535: 04,3445           03435                           TC       RECAL2
002536:
002537: 04,3446           37652        DOPROC             CAF      ONE
002538: 04,3447           03435                           TC       RECAL2
002539:
002540:                                                                                                  #  THE FOLLOWING REFERS TO THE NOUN TABLES
002541:
002542:
002543:
002544:                                                                                                  #  COMPONENT CODE NUMBER           INTERPRETATION
002545:
002546:                                                                                                  #  00000                           1 COMPONENT
002547:                                                                                                  #  00001                           2 COMPONENT (EACH S P)
002548:                                                                                                  #  00010                           3 COMPONENT (EACH SP)
002549:
002550:
002551:
002552:                                                                                                  #  SF ROUTINE CODE NUMBER          INTERPRETATION
002553:
002554:                                                                                                  #  00000    OCTAL ONLY
002555:                                                                                                  #  00001    STRAIGHT FRACTIONAL
002556:                                                                                                  #  00010    DEGREES (XXX.XX)
002557:                                                                                                  #  00011    ARITHMETIC SF
002558:                                                                                                  #  00100    ARITH DP1   OUT(MULT BY 2/14 AT END)     IN (STRAIGHT)
002559:                                                                                                  #  00101    ARITH DP2   OUT (STRAIGHT)               IN (SL 7 AT END)
002560:                                                                                                  #  00110    OPTICS DEGREES(XX.XXX MAX 89.999) OR (XXX.XX MAX 179.99)
002561:                                                                                                  #  00111    ARITH DP3   OUT (SL 7 AT END)        IN ( STRAIGHT)
002562:                                                                                                  #  END OF SF ROUTINE CODE NUMBERS
002563:
002564:                                                                                                  #  SF CONSTANT CODE NUMBER         INTERPRETATION
002565:
002566:                                                                                                  #  00000                           WHOLE
002567:                                                                                                  #  00000                           TIME SEC(XXX.XX)SAME AS WHOLE(ARITH DP1)
002568:                                                                                                  #  00001                           TIME HOURS(XXX.XX) USE ARITH DP2
002569:                                                                                                  #  00010                           DEGREES
002570:                                                                                                  #  00010                           OPTICS DEGREES
002571:                                                                                                  #  00011                           GYRO DEGREES (XX.XXX)  USE ARITHDP3
002572:                                                                                                  #  00100                           GYRO BIAS DRIFT .BBXXXXX MILLIRAD/SEC
002573:                                                                                                  #  00101                           GYRO AXIS ACCEL. DRIFT
002574:                                                                                                  #                                  .BBXXXXX (MILLIRAD/SEC) / (CM/SEC SEC)
002575:                                                                                                  #  00110                           PIPA BIAS X.XXXX CM/SEC SEC
002576:                                                                                                  #  00111                           PIPA SCALE FACTOR ERROR
002577:                                                                                                  #                                      XXXXX. PARTS/MILLION
002578:                                                                                                  #  01000                           POSITION(XXXX.X KILOMETERS) USE ARITHDP3
002579:                                                                                                  #  01001                           VELOCITY(XXXX.X METERS/SEC) USE ARITHDP2
002580:                                                                                                  #  01010                           TIME HOURS(XXX.XX)WEEKS INSIDE(ARITHDP2)
002581:                                                                                                  #  01011                           ELEVATION DEGREES(89.999MAX) USE ARITH
002582:                                                                                                  #  END OF SF CONSTANT CODE NUMBERS
002583:
002584:
002585:
002586:                                                                                                  #  FOR GREATER THAN SINGLE PRECISION SCALES, PUT ADDRESS OF MAJOR PART INTO
002587:                                                                                                  #  NOUN TABLES.
002588:                                                                                                  #  OCTAL LOADS PLACE +0 INTO MAJOR PART, DATA INTO MINOR PART.
002589:                                                                                                  #  OCTAL DISPLAYS SHOW MINOR PART ONLY.
002590:                                                                                                  #  TO GET AT BOTH MAJOR AND MINOR PARTS (IN OCTAL), USE NOUN 01.
002591:
002592:                                                                                                  #  THE FOLLOWING ROUTINES ARE FOR READING THE NOUN TABLES AND THE SF TABLES
002593:                                                                                                  #  (WHICH ARE IN A SEPARATE BANK FROM THE REST OF PINBALL). THESE READING
002594:                                                                                                  #  ROUTINES ARE IN THE SAME BANK AS THE TABLES. THEY ARE CALLED BY DXCH Z.
002595:
002596:
002597:
002598:                                                                                                  #  LODNNTAB LOADS NNADTEM WITH THE NNADTAB ENTRY, NNTYPTEM WITH THE
002599:                                                                                                  #  NNTYPTAB ENTRY. IF THE NOUN IS MIXED, IDAD1TEM IS LOADED WITH THE FIRST
002600:                                                                                                  #  IDADDTAB ENTRY, IDAD2TEM THE SECOND IDADDTAB ENTRY, IDAD3TEM THE THIRD
002601:                                                                                                  #  IDADDTAB ENTRY, RUTMXTEM WITH THE RUTMXTAB ENTRY. MIXBR IS SET FOR
002602:                                                                                                  #  MIXED OR NORMAL NOUN.
002603:
002604:    4745                                           SETLOC   DATWAIT1   +2
002605:
002606:    4745           52136        LODNNTAB           DXCH     IDAD2TEM                              #  SAVE RETURN INFO IN IDAD2TEM, IDAD3TEM.
002607:    4746           50267                           INDEX    NOUNREG
002608:    4747           35017                           CAF      NNADTAB
002609:    4750           54132                           TS       NNADTEM
002610:    4751           50267                           INDEX    NOUNREG
002611:    4752           35117                           CAF      NNTYPTAB
002612:    4753           54133                           TS       NNTYPTEM
002613:    4754           40267                           CS       NOUNREG
002614:    4755           65003                           AD       MIXCON
002615:    4756           00006                           EXTEND
002616:    4757           64763                           BZMF     LODMIXNN                              #  NOUN NUMBER G/E FIRST MIXED NOUN
002617:    4760           37652                           CAF      ONE                                   #  NOUN NUMBER L/ FIRST MIXED NOUN
002618:    4761           54124                           TS       MIXBR                                 #  NORMAL.  +1 INTO MIXBR.
002619:    4762           05001                           TC       LODNLV
002620:    4763           37651        LODMIXNN           CAF      TWO                                   #  MIXED.  +2 INTO MIXBR.
002621:    4764           54124                           TS       MIXBR
002622:    4765           50267                           INDEX    NOUNREG
002623:    4766           35312                           CAF      RUTMXTAB   -55
002624:    4767           54137                           TS       RUTMXTEM
002625:    4770           36426                           CAF      LOW10
002626:    4771           70132                           MASK     NNADTEM
002627:    4772           54002                           TS       Q                                     #  TEMP
002628:    4773           50000                           INDEX    A
002629:    4774           35277                           CAF      IDADDTAB
002630:    4775           54134                           TS       IDAD1TEM                              #  LOAD IDAD1TEM WITH FIRST IDADDTAB ENTRY
002631:    4776           00006                           EXTEND
002632:    4777           50002                           INDEX    Q                                     #  LOAD IDAD2TEM WITH 2ND IDADDTAB ENTRY
002633:    5000           35301                           DCA      IDADDTAB   +1                         #  LOAD IDAD3TEM WITH 3RD IDADDTAB ENTRY.
002634:    5001           52136        LODNLV             DXCH     IDAD2TEM                              #  PUT RETURN INFO INTO A, L.
002635:    5002           52006                           DXCH     Z
002636:
002637:    5003           00055        MIXCON             OCT      55                                    #  FIRST MIXED NOUN = 55.
002638:
002639:
002640:
002641:                                                                                                  #  GTSFOUT LOADS SFTEMP1, SFTEMP2 WITH THE DP SFOUTAB ENTRIES.
002642:
002643:    5004           52110        GTSFOUT            DXCH     SFTEMP1                               #  2X(SFCONUM) ARRIVES IN SFTEMP1.
002644:    5005           00006                           EXTEND
002645:    5006           50000                           INDEX    A
002646:    5007           35250                           DCA      SFOUTAB
002647:    5010           52110        SFCOM              DXCH     SFTEMP1
002648:    5011           52006                           DXCH     Z
002649:
002650:
002651:
002652:                                                                                                  #  GTSFIN LOADS SFTEMP1, SFTEMP2 WITH THE DP SFINTAB ENTRIES.
002653:
002654:    5012           52110        GTSFIN             DXCH     SFTEMP1                               #  2X(SFCONUM) ARRIVES IN SFTEMP1.
002655:    5013           00006                           EXTEND
002656:    5014           50000                           INDEX    A
002657:    5015           35220                           DCA      SFINTAB
002658:    5016           15010                           TCF      SFCOM
002659:
002660:
002661:
002662:                                                                                                  #  NN  NORMAL NOUNS
002663:    5017           00000        NNADTAB            OCT      00000                                 #  00 NOT IN USE
002664:    5020           40000                           OCT      40000                                 #  01 SPECIFY MACHINE ADDRESS (FRACTIONAL)
002665:    5021           40000                           OCT      40000                                 #  02 SPECIFY MACHINE ADDRESS (WHOLE)
002666:    5022           40000                           OCT      40000                                 #  03 SPECIFY MACHINE ADDRESS (DEGREES)
002667:    5023           40000                           OCT      40000                                 #  04 SPECIFY MACHINE ADDRESS (HOURS)
002668:    5024           40000                           OCT      40000                                 #  05 SPECIFY MACHINE ADDRESS (SECONDS)
002669:    5025           40000                           OCT      40000                                 #  06 SPECIFY MACHINE ADDRESS (GYRO DEG)
002670:    5026           40000                           OCT      40000                                 #  07 SPECIFY MACHINE ADDRESS (Y OPT DEG.)
002671:    5027           77776                           OCT      77776                                 #  10 CHANNEL TO BE SPECIFIED
002672:    5030           00000                           OCT      00000                                 #  11 SPARE
002673:    5031           00000                           OCT      00000                                 #  12 SPARE
002674:    5032           00000                           OCT      00000                                 #  13 SPARE
002675:    5033           00000                           OCT      00000                                 #  14 SPARE
002676:    5034           77777                           OCT      77777                                 #  15 INCREMENT MACHINE ADDRESS
002677:    5035           00024                           ECADR    TIME2                                 #  16 TIME SECONDS
002678:    5036           00024                           ECADR    TIME2                                 #  17 TIME HOURS
002679:    5037           00032                           ECADR    CDUX                                  #  20 ICDU
002680:    5040           00037                           ECADR    PIPAX                                 #  21 PIPAS
002681:    5041           00400                           ECADR    THETAD                                #  22 NEW ANGLES I
002682:    5042           00336                           ECADR    DSPTEM2                               #  23 DELTA ANGLES I
002683:    5043           00333                           ECADR    DSPTEM1                               #  24 DELTA TIME (SEC)
002684:    5044           00333                           ECADR    DSPTEM1                               #  25 CHECKLIST
002685:    5045           00333                           ECADR    DSPTEM1                               #  26 PRIO/DELAY, ADRES, BBCON
002686:    5046           01361                           ECADR    SMODE                                 #  27 SELF TEST ON/OFF SWITCH
002687:    5047           00333                           ECADR    DSPTEM1                               #  30 STAR NUMBERS
002688:    5050           01363                           ECADR    FAILREG                               #  31 FAILREG
002689:    5051           02166                           ECADR    TDEC                                  #  32 DECISION TIME (MIDCOURSE)
002690:    5052           02046                           ECADR    TET                                   #  33 EPHEMERIS TIME (MIDCOURSE)
002691:    5053           02174                           ECADR    MEASQ                                 #  34 MEASURED QUANTITY (MIDCOURSE)
002692:    5054           00333                           ECADR    DSPTEM1                               #  35 INBIT MESSAGE
002693:
002694:    5055           01462                           ECADR    LANDMARK                              #  36 LANDMARK DATA 1
002695:    5056           01465                           ECADR    LANDMARK   +3                         #  37 LANDMARK DATA 2
002696:    5057           00000                           OCT      00000                                 #  40 SPARE
002697:    5060           00000                           OCT      00000                                 #  41 SPARE
002698:    5061           00000                           OCT      00000                                 #  42 SPARE
002699:    5062           00000                           OCT      00000                                 #  43 SPARE
002700:    5063           00000                           OCT      00000                                 #  44 SPARE
002701:    5064           00000                           OCT      00000                                 #  45 SPARE
002702:    5065           00000                           OCT      00000                                 #  46 SPARE
002703:    5066           00000                           OCT      00000                                 #  47 SPARE
002704:    5067           00000                           OCT      00000                                 #  50 SPARE
002705:    5070           00000                           OCT      00000                                 #  51 SPARE
002706:    5071           01432                           ECADR    GBIASX                                #  52 GYRO BIAS DRIFT
002707:    5072           01435                           ECADR    ADIAX                                 #  53 GYRO INPUT AXIS ACCELERATION DRIFT
002708:    5073           01440                           ECADR    ADSRAX                                #  54 GYRO SPIN AXIS ACCELERATION DRIFT
002709:
002710:                                                                                                  #  NN  MIXED NOUNS
002711:    5074           02000                           OCT      02000                                 #  55 OCDU
002712:    5075           04002                           OCT      04002                                 #  56 UNCALLED MARK DATA (OCDU & TIME(SEC))
002713:    5076           02005                           OCT      02005                                 #  57 NEW ANGLES OCDU
002714:    5077           04007                           OCT      04007                                 #  60 DELTA GYRO ANGLES FOR PRELAUNCH
002715:    5100           02012                           OCT      02012                                 #  61 TARGET AZIMUTH AND ELEVATION
002716:    5101           02014                           OCT      02014                                 #  62 ICDUZ AND TIME(SEC)
002717:    5102           02016                           OCT      02016                                 #  63 OCDUX AND TIME(SEC)
002718:    5103           02020                           OCT      02020                                 #  64 OCDUY AND TIME(SEC)
002719:    5104           02022                           OCT      02022                                 #  65 SAMPLED TIME (HOURS AND SECONDS)
002720:                                                                                                  #       (FETCHED IN INTERRUPT)
002721:    5105           04024                           OCT      04024                                 #  66 SYSTEM TEST RESULTS
002722:    5106           04027                           OCT      04027                                 #  67 DELTA GYRO ANGLES
002723:    5107           04032                           OCT      04032                                 #  70 PIPA BIAS
002724:    5110           04035                           OCT      04035                                 #  71 PIPA SCALE FACTOR ERROR
002725:    5111           04040                           OCT      04040                                 #  72 DELTA POSITION
002726:    5112           04043                           OCT      04043                                 #  73 DELTA VELOCITY
002727:    5113           04046                           OCT      04046                                 #  74 MEASUREMENT DATA (MIDCOURSE)
002728:    5114           04051                           OCT      04051                                 #  75 MEASUREMENT DEVIATIONS (MIDCOURSE)
002729:    5115           04054                           OCT      04054                                 #  76 POSITION VECTOR
002730:    5116           04057                           OCT      04057                                 #  77 VELOCITY VECTOR
002731:
002732:
002733:
002734:                                                                                                  #  NN        NORMAL NOUNS
002735:    5117           00000        NNTYPTAB           OCT      00000                                 #  00 NOT IN USE
002736:    5120           00040                           OCT      00040                                 #  01 1COMP FRACTIONAL
002737:    5121           00140                           OCT      00140                                 #  02 1COMP WHOLE
002738:    5122           00102                           OCT      00102                                 #  03 1COMP DEGREES
002739:    5123           00241                           OCT      00241                                 #  04 1COMP HOURS
002740:    5124           00200                           OCT      00200                                 #  05 1COMP SECONDS
002741:    5125           00343                           OCT      00343                                 #  06 1COMP GYRO DEGREES
002742:    5126           00302                           OCT      00302                                 #  07 1COMP  Y OPT DEGREES
002743:    5127           00000                           OCT      00000                                 #  10 1COMP OCTAL ONLY
002744:    5130           00000                           OCT      00000                                 #  11        SPARE
002745:    5131           00000                           OCT      00000                                 #  12        SPARE
002746:    5132           00000                           OCT      00000                                 #  13        SPARE
002747:    5133           00000                           OCT      00000                                 #  14        SPARE
002748:    5134           00000                           OCT      00000                                 #  15 1COMP  OCTAL ONLY
002749:    5135           00200                           OCT      00200                                 #  16 1COMP  SECONDS
002750:    5136           00241                           OCT      00241                                 #  17 1COMP  HOURS
002751:    5137           04102                           OCT      04102                                 #  20 3COMP  DEGREES
002752:    5140           04140                           OCT      04140                                 #  21 3COMP  WHOLE
002753:    5141           04102                           OCT      04102                                 #  22 3COMP  DEGREES
002754:    5142           04102                           OCT      04102                                 #  23 3COMP  DEGREES
002755:    5143           00200                           OCT      00200                                 #  24 1COMP  SECONDS
002756:    5144           00140                           OCT      00140                                 #  25 1COMP  WHOLE
002757:    5145           04000                           OCT      04000                                 #  26 3COMP  OCTAL ONLY
002758:    5146           00140                           OCT      00140                                 #  27 1COMP  WHOLE
002759:    5147           04140                           OCT      04140                                 #  30 3COMP  WHOLE
002760:    5150           04000                           OCT      04000                                 #  31 3COMP  OCTAL ONLY
002761:    5151           00252                           OCT      00252                                 #  32 1COMP  TIME WEEKS
002762:    5152           00252                           OCT      00252                                 #  33 1COMP  TIME WEEKS
002763:    5153           00350                           OCT      00350                                 #  34 1COMP  POISTION
002764:    5154           04000                           OCT      04000                                 #  35 3COMP  OCTAL ONLY
002765:    5155           04000                           OCT      04000                                 #  36 3COMP  OCTAL ONLY
002766:    5156           04000                           OCT      04000                                 #  37 3COMP  OCTAL ONLY
002767:    5157           00000                           OCT      00000                                 #  40        SPARE
002768:    5160           00000                           OCT      00000                                 #  41        SPARE
002769:    5161           00000                           OCT      00000                                 #  42        SPARE
002770:    5162           00000                           OCT      00000                                 #  43        SPARE
002771:    5163           00000                           OCT      00000                                 #  44        SPARE
002772:    5164           00000                           OCT      00000                                 #  45        SPARE
002773:    5165           00000                           OCT      00000                                 #  46        SPARE
002774:    5166           00000                           OCT      00000                                 #  47        SPARE
002775:    5167           00000                           OCT      00000                                 #  50        SPARE
002776:    5170           00000                           OCT      00000                                 #  51        SPARE
002777:    5171           04144                           OCT      04144                                 #  52 3COMP  GYRO BIAS DRIFT
002778:    5172           04145                           OCT      04145                                 #  53 3COMP  GYRO AXIS ACCEL. DRIFT
002779:    5173           04145                           OCT      04145                                 #  54 3COMP  GYRO AXIS ACCEL. DRIFT
002780:
002781:                                                                                                  #  NN        MIXED NOUNS
002782:    5174           00102                           OCT      00102                                 #  55 2COMP  DEGREES, Y OPT DEGREES
002783:    5175           00102                           OCT      00102                                 #  56 3COMP  DEGREES, Y OPT DEGREES, SECS
002784:    5176           00102                           OCT      00102                                 #  57 2COMP  DEGREES, Y OPT DEGREES
002785:    5177           06143                           OCT      06143                                 #  60 3COMP  GYRO DEGREES FOR EACH
002786:    5200           00542                           OCT      00542                                 #  61 2COMP  DEGREES, ELEVATION DEGREES
002787:    5201           00002                           OCT      00002                                 #  62 2COMP  DEGREES, SECS
002788:    5202           00002                           OCT      00002                                 #  63 2COMP  DEGREES, SECS
002789:    5203           00002                           OCT      00002                                 #  64 2COMP  Y OPT DEGREES, SECS
002790:    5204           00001                           OCT      00001                                 #  65 2COMP  HOURS, SECONDS
002791:    5205           00000                           OCT      00000                                 #  66 3COMP  WHOLE, FRACTIONAL, WHOLE
002792:    5206           06143                           OCT      06143                                 #  67 3COMP  GYRO DEGREES FOR EACH
002793:    5207           14306                           OCT      14306                                 #  70 3COMP  PIPA BIAS FOR EACH
002794:    5210           16347                           OCT      16347                                 #  71 3COMP  PIPA SCALE FACTOR ERR.FOR EACH
002795:    5211           20410                           OCT      20410                                 #  72 3COMP  POSITION FOR EACH
002796:    5212           22451                           OCT      22451                                 #  73 3COMP  VELOCITY FOR EACH
002797:    5213           00412                           OCT      00412                                 #  74 3COMP  TIME WEEKS, POSITION, WHOLE
002798:    5214           20450                           OCT      20450                                 #  75 3COMP  POSITION, VELOCITY, POSITION
002799:    5215           20410                           OCT      20410                                 #  76 3COMP  POSITION FOR EACH
002800:    5216           22451                           OCT      22451                                 #  77 3COMP  VELOCITY FOR EACH
002801:
002802:
002803:
002804:    5217           00006        SFINTAB            OCT      00006                                 #  WHOLE,TIME(SEC)
002805:    5220           03240                           OCT      03240
002806:    5221           00253                           OCT      00253                                 #  TIME HOURS ( = 1.3..... )
002807:    5222           25124                           OCT      25124                                 #    (POINT BETWEEN BITS 7-8 )
002808:    5223           00000                           OCT      0                                     #  DEGREES (SFCON IN DEGINSF)
002809:    5224           00000                           OCT      0
002810:    5225           10707                           OCT      10707                                 #  GYRO DEGREES
002811:    5226           03434                           OCT      03434
002812:    5227           00001                           OCT      00001                                 #  GYRO BIAS DRIFT
002813:    5230           02133                           OCT      02133
002814:    5231           00011                           OCT      00011                                 #  GYRO AXIS ACCEL. DRIFT
002815:    5232           30322                           OCT      30322
002816:    5233           00004                           OCT      00004                                 #  PIPA BIAS
002817:    5234           14021                           OCT      14021
002818:    5235           00314                           OCT      00314                                 #  PIPA SCALE ERROR.
002819:    5236           31463                           OCT      31463
002820:    5237           23420                           OCT      23420                                 #  POSITION
002821:    5240           00000                           OCT      00000
002822:    5241           00201                           OCT      00201                                 #  VELOCITY
002823:    5242           30327                           OCT      30327                                 #  ( POINT BETWEEN BITS 7-8 )
002824:    5243           01371                           OCT      01371                                 #  TIME WEEKS
002825:    5244           34750                           OCT      34750                                 #  ( POINT BETWEEN BITS 7-8 )
002826:    5245           00001                           OCT      00001                                 #  ELEVATION DEGREES
002827:    5246           03434                           OCT      03434
002828:                                                                                                  #  END OF SFINTAB
002829:
002830:
002831:
002832:    5247           05174        SFOUTAB            OCT      05174                                 #  WHOLE, TIME(SEC)
002833:    5250           13261                           OCT      13261
002834:    5251           27670                           OCT      27670                                 #  TIME HOURS
002835:    5252           31357                           OCT      31357
002836:    5253           00000                           OCT      0                                     #  DEGREES
002837:    5254           00000                           OCT      0
002838:    5255           00714                           OCT      00714                                 #  GYRO DEGREES
002839:    5256           31463                           OCT      31463                                 #  (POINT BETWEEN BITS 7-8)
002840:    5257           35753                           OCT      35753                                 #  GYRO BIAS DRIFT
002841:    5260           32323                           OCT      32323
002842:    5261           03216                           OCT      03216                                 #  GYRO AXIS ACCEL. DRIFT
002843:    5262           06400                           OCT      06400
002844:    5263           07237                           OCT      07237                                 #  PIPA BIAS
002845:    5264           37776                           OCT      37776
002846:    5265           00120                           OCT      00120                                 #  PIPA SCALE ERROR
002847:    5266           00000                           OCT      00000
002848:    5267           00321                           OCT      00321                                 #  POSITION
002849:    5270           26706                           OCT      26706                                 #  ( POINT BETWEEN BITS 7-8 )
002850:    5271           37441                           OCT      37441                                 #  VELOCITY
002851:    5272           14247                           OCT      14247
002852:    5273           05300                           OCT      05300                                 #  TIME WEEKS
002853:    5274           20305                           OCT      20305
002854:    5275           34631                           OCT      34631                                 #  ELEVATION DEGREES
002855:    5276           23146                           OCT      23146
002856:                                                                                                  #  END OF SFOUTAB
002857:
002858:
002859:                                                                                                  #  MIXNOUN   SF ROUT
002860:    5277           00036        IDADDTAB           ECADR    OPTX                                  #  01       DEGREES
002861:    5300           00035                           ECADR    OPTY                                  #  01       Y OPT DEGREES
002862:    5301           00333                           ECADR    DSPTEM1                               #  02       DEGREES
002863:    5302           00334                           ECADR    DSPTEM1    +1                         #  02       Y OPT DEGREES
002864:    5303           00335                           ECADR    DSPTEM1    +2                         #  02       SEC
002865:    5304           00404                           ECADR    DESOPTS                               #  03       DEGREES
002866:    5305           00403                           ECADR    DESOPTT                               #  03       Y OPT DEGREES
002867:    5306           02500                           ECADR    OGC                                   #  04       GYRO DEGREES
002868:    5307           02502                           ECADR    IGC                                   #  04       GYRO DEGREES
002869:    5310           02504                           ECADR    MGC                                   #  04       GYRO DEGREES
002870:    5311           00333                           ECADR    DSPTEM1                               #  05       DEGREES
002871:    5312           00334                           ECADR    DSPTEM1    +1                         #  05       ELEVATION DEGREES
002872:    5313           00034                           ECADR    CDUZ                                  #  06       DEGREES
002873:    5314           00024                           ECADR    TIME2                                 #  06       SEC
002874:    5315           00036                           ECADR    OPTX                                  #  07       DEGREES
002875:    5316           00024                           ECADR    TIME2                                 #  07       SEC
002876:    5317           00035                           ECADR    OPTY                                  #  10       Y OPT DEGREES
002877:    5320           00024                           ECADR    TIME2                                 #  10       SEC
002878:    5321           00013                           ECADR    SAMPTIME                              #  11       HOURS
002879:    5322           00013                           ECADR    SAMPTIME                              #  11       SECONDS
002880:    5323           00336                           ECADR    DSPTEM2                               #  12       WHOLE
002881:    5324           00337                           ECADR    DSPTEM2    +1                         #  12       FRACTIONAL
002882:    5325           00340                           ECADR    DSPTEM2    +2                         #  12       WHOLE
002883:    5326           00405                           ECADR    DELVX                                 #  13       GYRO DEGREES
002884:    5327           00407                           ECADR    DELVX      +2                         #  13       GYRO DEGREES
002885:    5330           00411                           ECADR    DELVX      +4                         #  13       GYRO DEGREES
002886:    5331           01443                           ECADR    PBIASX                                #  14       PIPA BIAS
002887:    5332           01445                           ECADR    PBIASY                                #  14       PIPA BIAS
002888:    5333           01447                           ECADR    PBIASZ                                #  14       PIPA BIAS
002889:    5334           01444                           ECADR    PIPASCFX                              #  15       PIPA SCALE FACTOR ERROR
002890:    5335           01446                           ECADR    PIPASCFY                              #  15       PIPA SCALE FACTOR ERROR
002891:    5336           01450                           ECADR    PIPASCFZ                              #  15       PIPA SCALE FACTOR ERROR
002892:    5337           02052                           ECADR    DELR                                  #  16       POSITION
002893:    5340           02054                           ECADR    DELR       +2                         #  16       POSITION
002894:    5341           02056                           ECADR    DELR       +4                         #  16       POSITION
002895:    5342           02060                           ECADR    DELVEL                                #  17       VELOCITY
002896:    5343           02062                           ECADR    DELVEL     +2                         #  17       VELOCITY
002897:    5344           02064                           ECADR    DELVEL     +4                         #  17       VELOCITY
002898:    5345           02166                           ECADR    TDEC                                  #  20       TIME WEEKS
002899:    5346           02174                           ECADR    MEASQ                                 #  20       POSITION
002900:    5347           02200                           ECADR    MEASMODE                              #  20       WHOLE
002901:    5350           00333                           ECADR    DSPTEM1                               #  21       POSITION
002902:    5351           00335                           ECADR    DSPTEM1    +2                         #  21       VELOCITY
002903:    5352           02176                           ECADR    DELTAQ                                #  21       POSITION
002904:    5353           00333                           ECADR    DSPTEM1                               #  22       POSITION
002905:    5354           00335                           ECADR    DSPTEM1    +2                         #  22       POSITION
002906:    5355           00337                           ECADR    DSPTEM1    +4                         #  22       POSITION
002907:    5356           00333                           ECADR    DSPTEM1                               #  23       VELOCITY
002908:    5357           00335                           ECADR    DSPTEM1    +2                         #  23       VELOCITY
002909:    5360           00337                           ECADR    DSPTEM1    +4                         #  23       VELOCITY
002910:    5361           00000                           OCT      00000                                 #           SPARE
002911:    5362           00000                           OCT      00000                                 #           SPARE
002912:    5363           00000                           OCT      00000                                 #           SPARE
002913:    5364           00000                           OCT      00000                                 #           SPARE
002914:    5365           00000                           OCT      00000                                 #           SPARE
002915:    5366           00000                           OCT      00000                                 #           SPARE
002916:                                                                                                  #  END OF IDADDTAB
002917:
002918:
002919:
002920:                                                                                                  #  MIXNOUN  SF ROUT
002921:    5367           00302        RUTMXTAB           OCT      00302                                 #  01  DEGREES, Y OPT DEGREES
002922:    5370           10302                           OCT      10302                                 #  02  DEGREES, Y OPT DEGREES, SECONDS
002923:    5371           00302                           OCT      00302                                 #  03  DEGREES, Y OPT DEGREES
002924:    5372           16347                           OCT      16347                                 #  04  GYRO DEGREES (FOR EACH)
002925:    5373           00142                           OCT      00142                                 #  05  DEGREES, ELEVATION DEGREES
002926:    5374           00202                           OCT      00202                                 #  06  DEGREES, SECONDS
002927:    5375           00202                           OCT      00202                                 #  07  DEGREES, SECONDS
002928:    5376           00206                           OCT      00206                                 #  10  Y OPT DEGREES, SECONDS
002929:    5377           00205                           OCT      00205                                 #  11  HOURS, SECONDS
002930:    5400           06043                           OCT      06043                                 #  12  WHOLE, FRACTIONAL, WHOLE
002931:    5401           16347                           OCT      16347                                 #  13  GYRO DEGREES (FOR EACH)
002932:    5402           06143                           OCT      06143                                 #  14  PIPA BIAS (FOR EACH)
002933:    5403           06143                           OCT      06143                                 #  15  PIPA SCALE FACTOR ERROR (FOR EACH)
002934:    5404           16347                           OCT      16347                                 #  16  POSITION (FOR EACH)
002935:    5405           12245                           OCT      12245                                 #  17  VELOCITY (FOR EACH)
002936:    5406           06345                           OCT      06345                                 #  20  TIME WEEKS, POSITION, WHOLE
002937:    5407           16247                           OCT      16247                                 #  21  POSITION, VELOCITY, POSITION
002938:    5410           16347                           OCT      16347                                 #  22  POSITION (FOR EACH)
002939:    5411           12245                           OCT      12245                                 #  23  VELOCITY (FOR EACH)
002940:                                                                                                  #  END OF RUTMXTAB
002941:
002942:
002943:
002944:                                                                                                  #  MISCELLANEOUS SERVICE ROUTINES IN FIXED/FIXED
002945:
002946:
002947:
002948:                                                                                                  #  SETNCADR      E CADR ARRIVES IN A. IT IS STORED IN NOUNCADR. EBANK BITS
002949:                                                                                                  #                ARE SET.  E ADRES IS DERIVED AND PUT INTO NOUNADD.
002950:
002951:    5412           54304        SETNCADR           TS       NOUNCADR                              #  STORE ECADR
002952:    5413           54003                           TS       EBANK                                 #  SET EBANK BITS
002953:    5414           75466                           MASK     LOW8
002954:    5415           65467                           AD       OCT1400
002955:    5416           54131                           TS       NOUNADD                               #  PUT E ADRES INTO NOUNADD
002956:    5417           00002                           TC       Q
002957:
002958:
002959:
002960:                                                                                                  #  SETNADD       GETS E CADR FROM NOUNCADR, SETS EBANK BITS, DERIVES
002961:                                                                                                  #                E ADRES AND PUTS IT INTO NOUNADD.
002962:
002963:    5420           30304        SETNADD            CA       NOUNCADR
002964:    5421           15413                           TCF      SETNCADR   +1
002965:
002966:
002967:
002968:                                                                                                  #  SETEBANK      E CADR ARRIVES IN A. EBANK BITS ARE SET. E ADRES IS
002969:                                                                                                  #                DERIVED AND LEFT IN A.
002970:
002971:    5422           54003        SETEBANK           TS       EBANK      ANK        BITS
002972:    5423           75466                           MASK     LOW8
002973:    5424           65467                           AD       OCT1400    S          LEFT
002974:    5425           00002                           TC       Q
002975:
002976:
002977:
002978:    5426           00016        R1D1               OCT      16
002979:    5427           00011        R2D1               OCT      11
002980:    5430           00004        R3D1               OCT      4
002981:
002982:    5431           54020        RIGHT5             TS       CYR
002983:    5432           40020                           CS       CYR
002984:    5433           40020                           CS       CYR
002985:    5434           40020                           CS       CYR
002986:    5435           40020                           CS       CYR
002987:    5436           56020                           XCH      CYR
002988:    5437           00002                           TC       Q
002989:
002990:    5440           54022        LEFT5              TS       CYL
002991:    5441           40022                           CS       CYL
002992:
002993:    5442           40022                           CS       CYL
002994:    5443           40022                           CS       CYL
002995:    5444           40022                           CS       CYL
002996:    5445           56022                           XCH      CYL
002997:    5446           00002                           TC       Q
002998:
002999:    5447           60000        SLEFT5             DOUBLE
003000:    5450           60000                           DOUBLE
003001:    5451           60000                           DOUBLE
003002:    5452           60000                           DOUBLE
003003:    5453           60000                           DOUBLE
003004:    5454           00002                           TC       Q
003005:
003006:
003007:
003008:    5455           00037        LOW5               OCT      37
003009:    5456           01740        MID5               OCT      1740
003010:    5457           76000        HI5                OCT      76000                                 #  MUST STAY HERE
003011:
003012:    5460           04276        TCNOVAC            TC       NOVAC
003013:    5461           04451        TCWAIT             TC       WAITLIST
003014:    5462           04505        TCTSKOVR           TC       TASKOVER
003015:    5463           04307        TCFINDVC           TC       FINDVAC
003016:
003017:
003018:
003019:    5464           30000        CHRPRIO            OCT      30000                                 #  EXEC PRIORITY OF CHARIN
003020:
003021:
003022:
003023:    5465           03777        LOW11              OCT      3777
003024:    5466     5465               B12-1              EQUALS   LOW11
003025:    5466           00377        LOW8               OCT      377
003026:    5467           01400        OCT1400            OCT      1400
003027:
003028:
003029:
003030:    5470           00023        VD1                OCT      23
003031:    5471           00021        ND1                OCT      21
003032:    5472           00025        MD1                OCT      25
003033:
003034:    5473           00012        BINCON             DEC      10         B-14
003035:
003036:    5474           37644        FALTON             CA       BIT7                                  #  TURN ON OPERATOR ERROR LIGHT
003037:    5475           00006                           EXTEND
003038:    5476           05011                           WOR      DSALMOUT                              #  BIT 7 OF CHANNEL 11
003039:    5477           00002                           TC       Q
003040:
003041:    5500           47644        FALTOF             CS       BIT7                                  #  TURN OFF OPERATOR ERROR LIGHT
003042:    5501           00006                           EXTEND
003043:
003044:    5502           03011                           WAND     DSALMOUT                              #  BIT 7 OF CHANNEL 11
003045:    5503           00002                           TC       Q
003046:
003047:    5504           37646        RELDSPON           CAF      BIT5                                  #  TURN ON KEY RELEASE LIGHT
003048:    5505           00006                           EXTEND
003049:    5506           05011                           WOR      DSALMOUT                              #  BIT 5 OF CHANNEL 11
003050:    5507           00002                           TC       Q
003051:
003052:    5510           00006        LODSAMPT           EXTEND
003053:    5511           30025                           DCA      TIME2
003054:    5512           52014                           DXCH     SAMPTIME
003055:    5513           00002                           TC       Q
003056:
003057:
003058:
003059:    5514           00006        TPSL1              EXTEND                                         #  SHIFTS MPAC, +1, +2 LEFT 1
003060:    5515           30142                           DCA      MPAC       +1                         #  LEAVES OVFIND SET TO +/- 1 FOR OF/UF
003061:    5516           20142                           DAS      MPAC       +1
003062:    5517           60140                           AD       MPAC
003063:    5520           26140                           ADS      MPAC
003064:    5521           54007                           TS       7                                     #  TS A DOES NOT CHANGE A ON OF/UF.
003065:    5522           00002                           TC       Q                                     #  NO NET OF/UF
003066:    5523           54105                           TS       OVFIND                                #  OVFIND SET TO +/- 1 FOR OF/UF
003067:    5524           00002                           TC       Q
003068:
003069:
003070:
003071:    5525           37645        FLASHON            CAF      BIT6                                  #  TURN ON V/N FLASH
003072:    5526           00006                           EXTEND                                         #  BIT 6 OF CHANNEL 11
003073:    5527           05011                           WOR      DSALMOUT
003074:    5530           00002                           TC       Q
003075:
003076:
003077:
003078:    5531           47645        FLASHOFF           CS       BIT6                                  #  TURN OFF V/N FLASH
003079:    5532           00006                           EXTEND
003080:    5533           03011                           WAND     DSALMOUT                              #  BIT 6 OF CHANNEL 11
003081:    5534           00002                           TC       Q
003082:
003083:                                                                                                  #  INTERNAL ROUTINES THAT USE THE KEYBOARD AND DISPLAY SYSTEM(THRU
003084:                                                                                                  #  NVSUB) MUST  TC GRABDSP  BEFOREHAND , TO GRAB THE DISPLAY SYSTEM AND
003085:                                                                                                  #  MAKE IT BUSY TO OTHER INTERNAL USERS.
003086:
003087:                                                                                                  #        WHEN FINISHED , THERE MUST BE A TC FREEDSP , TO RELEASE THE
003088:                                                                                                  #  SYSTEM FOR OTHER INTERNAL USERS.
003089:
003090:                                                                                                  #        THE CALLING SEQUENCES ARE
003091:                                                                                                  #  L        TC     GRABDSP
003092:                                                                                                  #  L+1      RETURN HERE WHEN SYSTEM IS ALREADY GRABBED
003093:                                                                                                  #  L+2      RETURN HERE MEANS YOU HAVE IT
003094:
003095:                                                                                                  #  L        TC     NVSUB
003096:                                                                                                  #  L+1      RETURN HERE IF OPERATOR HAS INTERVENED
003097:                                                                                                  #  L+2      RETURN HERE AFTER EXECUTION
003098:
003099:
003100:
003101:                                                                                                  #        A ROUTINE CALLED GRABUSY IS PROVIDED (USE IS OPTIONAL) TO PUT YOUR
003102:                                                                                                  #  JOB TO SLEEP UNTIL THE SYSTEM IS FREED BY THE JOB HOLDING IT.
003103:                                                                                                  #  GRABUSY CANNOT BE CALLED FROM E MEMORY, SINCE JOBSLEEP AND JOBWAKE
003104:                                                                                                  #  HANDLE ONLY FIXED MEMORY.
003105:                                                                                                  #  YOUR CADR IS PUT AT FIRST AVAILABLE SLOT IN A WAITING LIST (FIFO).
003106:
003107:                                                                                                  #        THE CALLING SEQUENCE IS
003108:                                                                                                  #           CAF    WAKEFCADR
003109:                                                                                                  #           TC     GRABUSY
003110:
003111:                                                                                                  #        A ROUTINE CALLED NVSUBUSY IS PROVIDED (USE IS OPTIONAL)  TO PUT
003112:                                                                                                  #  YOUR JOB TO SLEEP UNTIL THE OPERATOR RELEASES IT.
003113:                                                                                                  #  NVSUBUSY CANNOT BE CALLED FROM E MEMORY, SINCE JOBSLEEP AND JOBWAKE
003114:                                                                                                  #  HANDLE ONLY FIXED MEMORY.
003115:                                                                                                  #                                              YOUR CADR IS PUT
003116:                                                                                                  #  ON TOP OF A WAITING LIST (FIFO). IT ALSO TURNS ON KEY RELEASE LIGHT.
003117:
003118:                                                                                                  #         THE CALLING SEQUENCE IS
003119:                                                                                                  #           CAF    WAKEFCADR
003120:                                                                                                  #           TC     NVSUBUSY
003121:
003122:
003123:                                                                                                  #  AFTER A TC FREEDSP, THE INTERNAL INTERLOCK IS KEPT BUSY FOR 10 SECONDS,
003124:                                                                                                  #  AFTER WHICH A CADR IS CALLED FROM THE LIST. THIS INSURES THAT ALL
003125:                                                                                                  #  DISPLAYS WAITING WILL BE VISIBLE.
003126:
003127:
003128:
003129:                                                                                                  #  GRABLOCK IS THE INTERNAL INTERLOCK FOR THE USE OF THE KEYBOARD
003130:                                                                                                  #  AND DISPLAY SYSTEM.
003131:                                                                                                  #  +0  FREE
003132:
003133:                                                                                                  #  +1  SOME INTERNAL ROUTINE HAS GRABBED DSP SYST
003134:                                                                                                  #  +2  SOME INTERNAL ROUTINE HAS GONE TO NVSUBUSY
003135:
003136:
003137:
003138:    5535           10324        GRABDSP            CCS      GRABLOCK
003139:    5536           00002                           TC       Q                                     #  ALREADY GRABBED, RETURN TO L+1
003140:    5537           37652                           CAF      ONE                                   #  NOT GRABBED, SET TO +1
003141:    5540           54324                           TS       GRABLOCK                              #  AND RETURN TO L+2
003142:    5541           50002                           INDEX    Q
003143:    5542           00001                           TC       1
003144:
003145:
003146:
003147:    5543           36426        PREGBSY            CAF      LOW10                                 #  SPECIAL ENTRANCE FOR ROUTINES IN FIXED
003148:    5544           70002                           MASK     Q                                     #  BANKS ONLY DESIRING THE FCADR OF
003149:    5545           60004                           AD       FBANK                                 #  1 + (LOC FROM WHICH TC PREGBSY WAS DONE)
003150:    5546           04103        GRABUSY            TC       POSTJUMP                              #  TO BE ENTERED.
003151:    5547           10000                           CADR     GRABUSYB
003152: 04,3450                                           SETLOC   DOPROC     +2
003153: 04,3450           54001        GRABUSY1           TS       L
003154: 04,3451           10324                           CCS      GRABLOCK
003155: 04,3452           03455                           TC       +3                                    #  STILL GRABBED
003156: 04,3453           30001                           CA       L                                     #  NOT GRABBED SO DO DIRECT CALL
003157: 04,3454           04106                           TC       BANKJUMP
003158: 04,3455           37651                           CAF      TWO
003159: 04,3456           54130                           TS       LSTPTR
003160: 04,3457           50130                           INDEX    LSTPTR                                #  SEARCH LIST FOR FIRST AVAILABLE SPACE
003161: 04,3460           10327                           CCS      DSPLIST                               #  FROM BOTTOM.
003162: 04,3461           03463                           TC       +2
003163: 04,3462           03466                           TC       PUTINLST                              #  SPACE FOUND
003164: 04,3463           10130                           CCS      LSTPTR                                #  DECREMENT POINTER
003165: 04,3464           03456                           TC       -6
003166: 04,3465           03532                           TC       LSTFULL
003167: 04,3466           30001        PUTINLST           CA       L
003168: 04,3467           50130                           INDEX    LSTPTR
003169: 04,3470           54327                           TS       DSPLIST
003170: 04,3471           04331                           TC       JOBSLEEP
003171:
003172:
003173:                                                                                                  #  GRABWAIT IS A SPECIAL ENTRANCE FOR ROUTINES IN FIXED BANKS ONLY. IF
003174:                                                                                                  #  SYSTEM IS NOT GRABBED, IT GRABS IT AND RETURNS TO L+1 ( L = LOC FROM
003175:                                                                                                  #  WHICH THE TC GRABWAIT WAS DONE). IF SYSTEM IS GRABBED, IT PUTS CALLING
003176:                                                                                                  #  JOB TO SLEEP WITH L+1 GOING INTO LIST FOR EVENTUAL WAKING UP WHEN
003177:                                                                                                  #  SYSTEM IS FREED.
003178:
003179:    5550                                           SETLOC   GRABUSY    +2
003180:    5550           10324        GRABWAIT           CCS      GRABLOCK
003181:    5551           15543                           TCF      PREGBSY                               #  GRABBED. PUT L+1 INTO LIST. GO TO SLEEP.
003182:
003183:    5552           37652                           CAF      ONE                                   #  NOT GRABBED. GRAB AND RETURN TO L+1.
003184:    5553           54324                           TS       GRABLOCK
003185:    5554           00002                           TC       Q
003186:
003187:
003188:
003189:    5555           45562        PRENVBSY           CS       2K+3                                  #  SPECIAL ENTRANCE FOR ROUTINES IN FIXED
003190:    5556           60002                           AD       Q                                     #  BANKS ONLY DESIRING THE FCADR OF(LOC
003191:    5557           60004                           AD       FBANK                                 #  FROM WHICH THE TC PRENVBSY WAS DONE) -2
003192:    5560           04103        NVSUBUSY           TC       POSTJUMP                              #  TO BE ENTERED.
003193:    5561           10001                           CADR     NVSUBSYB
003194:    5562           02003        2K+3               OCT      2003
003195:
003196: 04,3472                                           SETLOC   PUTINLST   +4
003197: 04,3472           54001        NVSUBSY1           TS       L
003198: 04,3473           10277                           CCS      DSPLOCK                               #  TEST IF REALLY LOCKED OUT
003199: 04,3474           03477                           TC       +3                                    #  STILL BUSY
003200: 04,3475           30001                           CA       L                                     #  DSPLOCK = +0 SO RETURN DIRECTLY
003201: 04,3476           04106                           TC       BANKJUMP
003202: 04,3477           37651                           CAF      TWO                                   #  SET FOR GRABBED STATE AND NVSUBUSY USE
003203: 04,3500           54324                           TS       GRABLOCK
003204: 04,3501           30001                           CA       L
003205: 04,3502           56331                           XCH      DSPLIST    +2                         #  ENTER CADR INTO FIRST POSITION OF LIST
003206: 04,3503           56330                           XCH      DSPLIST    +1                         #          (BOTTOM)
003207: 04,3504           56327                           XCH      DSPLIST
003208: 04,3505           10000                           CCS      A
003209: 04,3506           03532                           TC       LSTFULL
003210: 04,3507           03511                           TC       +2
003211: 04,3510           03532                           TC       LSTFULL
003212: 04,3511           05504                           TC       RELDSPON
003213: 04,3512           30001                           CA       L
003214: 04,3513           04331        ENDNVBSY           TC       JOBSLEEP
003215:
003216:
003217:
003218:                                                                                                  #  NVSBWAIT IS A SPECIAL ENTRANCE FOR ROUTINES IN FIXED BANKS ONLY. IF
003219:                                                                                                  #  SYSTEM IS NOT BUSY, IT EXECUTES V/N AND RETURNS TO L+1 (L= LOC FROM
003220:                                                                                                  #  WHICH THE TC NVSBWAIT WAS DONE). IF SYSTEM IS BUSY, IT PUTS CALLING JOB
003221:                                                                                                  #  TO SLEEP WITH L-1 GOING INTO LIST FOR EVENTUAL WAKING UP WHEN SYSTEM
003222:                                                                                                  #  IS NOT BUSY.
003223:
003224:    5563                                           SETLOC   NVSUBUSY   +3
003225:    5563           54107        NVSBWAIT           TS       NVTEMP
003226:    5564           10277                           CCS      DSPLOCK
003227:    5565           15570                           TCF      NVSBWT1                               #  BUSY
003228:    5566           30002                           CA       Q                                     #  FREE. NVSUB WILL SAVE L+1 FOR RETURN
003229:    5567           14700                           TCF      NVSUB      +5                         #  AFTER EXECUTION.
003230:    5570           24002        NVSBWT1            INCR     Q                                     #  L+2. PRENVBSY WILL PUT L-1 INTO LIST AND
003231:    5571           15555                           TCF      PRENVBSY                              #  GO TO SLEEP.
003232:
003233:    5572           56002        RELDSP             XCH      Q                                     #  SET DSPLOCK TO +0, TURN RELDSP LIGHT
003234:    5573           54130                           TS       RELRET                                #  OFF, SEARCH DSPLIST
003235:    5574           37661                           CAF      NEG1
003236:    5575           60324                           AD       GRABLOCK
003237:    5576           00006                           EXTEND                                         #  SEARCH LIST ONLY IF GRABLOCK = +2
003238:    5577           65605                           BZMF     RELDSP2                               #    (SOMEONE USED NVSUBUSY)
003239:    5600           05620                           TC       WKSEARCH
003240:    5601           05605                           TC       RELDSP2                               #  LIST EMPTY
003241:    5602           04335                           TC       JOBWAKE                               #  LIST NOT EMPTY
003242:    5603           37652                           CAF      ONE
003243:    5604           54324                           TS       GRABLOCK
003244:    5605           00004        RELDSP2            INHINT
003245:    5606           47646                           CS       BIT5                                  #  TURN OFF KEY RELEASE LIGHT
003246:    5607           00006                           EXTEND                                         #  (BIT 5 OF CHANNEL 11)
003247:    5610           03011                           WAND     DSALMOUT
003248:    5611           37657                           CAF      ZERO
003249:    5612           54277                           TS       DSPLOCK
003250:    5613           00003                           RELINT
003251:    5614           00130                           TC       RELRET
003252:    5615           56002        RELDSP1            XCH      Q                                     #  SET DSPLOCK TO +0. RELDSP LIGHT OFF.
003253:    5616           54130                           TS       RELRET                                #  NO LIST SEARCH
003254:    5617           05605                           TC       RELDSP2
003255:
003256:
003257:
003258:    5620           37657        WKSEARCH           CAF      ZERO                                  #  SEARCHES LIST. LEAVES RESULT IN A.
003259:    5621           56327                           XCH      DSPLIST                               #  IF EMPTY, RETURN TO L+1.
003260:    5622           56330                           XCH      DSPLIST    +1                         #  IF NOT EMPTY, INHINT AND RETURN TO L+2.
003261:    5623           56331                           XCH      DSPLIST    +2
003262:    5624           00006                           EXTEND
003263:    5625           15631                           BZF      +4                                    #  EMPTY
003264:    5626           00004                           INHINT                                         #  NOT EMPTY
003265:    5627           50002                           INDEX    Q                                     #  RETURN TO L+2
003266:    5630           00001                           TC       1
003267:    5631           00002                           TC       Q                                     #  RETURN TO L+1
003268:
003269:
003270:
003271:    5632           56002        FREEDSP            XCH      Q
003272:    5633           54130                           TS       FREERET
003273:    5634           00004                           INHINT
003274:    5635           35643                           CAF      SHOTIME
003275:    5636           04451                           TC       WAITLIST
003276:    5637     0264                                  EBANK=   DSPCOUNT
003277:    5637           03514 10000                     2CADR    FREEWAIT
003278:    5641           00003                           RELINT
003279:    5642           00130                           TC       FREERET
003280:
003281:    5643           01130        SHOTIME            DEC      600        B-14                       #  6 SECOND WAITING PERIOD.
003282:
003283:    5644                        ENDPINBF           EQUALS
003284:
003285: 04,3514                                           SETLOC   ENDNVBSY   +1
003286:
003287: 04,3514           35464        FREEWAIT           CAF      CHRPRIO                               #  CALLED BY T3RUPT
003288: 04,3515           04276                           TC       NOVAC
003289: 04,3516     0264                                  EBANK=   DSPCOUNT
003290: 04,3516           03521 10000                     2CADR    FREDSPD0
003291: 04,3520           04505                           TC       TASKOVER
003292:
003293:
003294:
003295: 04,3521           05620        FREDSPD0           TC       WKSEARCH                              #  CALLED BY EXECUTIVE
003296: 04,3522           03530                           TC       LSTEMPTY                              #  LIST EMPTY
003297: 04,3523           04335                           TC       JOBWAKE                               #  LIST NOT EMPTY
003298: 04,3524           00003                           RELINT
003299: 04,3525           37652                           CAF      ONE                                   #  SET FOR GRABBED CONDITION
003300: 04,3526           54324                           TS       GRABLOCK
003301: 04,3527           04353                           TC       ENDOFJOB
003302: 04,3530           37657        LSTEMPTY           CAF      ZERO                                  #  SET FOR FREE CONDITION
003303: 04,3531           03526                           TC       -3
003304:
003305:
003306:
003307: 04,3532           05677        LSTFULL            TC       ABORT
003308: 04,3533           01206                           OCT      01206                                 #  PINBALL WAITING LINE FULL.
003309:
003310: 04,3534                        ENDPINS1           EQUALS
003311:
003312:                                                                                                  #  VBTSTLTS TURNS ON ALL DISPLAY PANEL LIGHTS. AFTER 5 SEC, IT TURNS
003313:                                                                                                  #  OFF THE CAUTION AND STATUS LIGHTS.
003314:
003315: 05,3414                                           SETLOC   DSPMMEND   +1
003316:
003317: 05,3414           00004        VBTSTLTS           INHINT
003318: 05,3415           47652                           CS       BIT1                                  #  SET BIT 1 OF IMODES33 SO IMUMON WONT
003319: 05,3416           70362                           MASK     IMODES33                              #  TURN OUT ANY LAMPS.
003320: 05,3417           67652                           AD       BIT1
003321: 05,3420           54362                           TS       IMODES33
003322:
003323: 05,3421           33457                           CAF      TSTCON1                               #  TURN ON UPLINK ACTIVITY, TEMP, KEY RLSE,
003324: 05,3422           00006                           EXTEND                                         #  V/N FLASH, OPERATOR ERROR.
003325: 05,3423           05011                           WOR      DSALMOUT
003326: 05,3424           33460                           CAF      TSTCON2                               #  TURN ON NO ATT, GIMBAL LOCK, TRACKER,
003327: 05,3425           54322                           TS       DSPTAB     +11D                       #  PROG ALM.
003328: 05,3426           37641                           CAF      BIT10                                 #  TURN ON TEST ALARM OUTBIT
003329: 05,3427           00006                           EXTEND
003330: 05,3430           05013                           WOR      CHAN13
003331: 05,3431           37654                           CAF      TEN
003332: 05,3432           54103        TSTLTS1            TS       ERCNT
003333: 05,3433           43455                           CS       FULLDSP
003334: 05,3434           50103                           INDEX    ERCNT
003335: 05,3435           54307                           TS       DSPTAB
003336: 05,3436           10103                           CCS      ERCNT
003337: 05,3437           03432                           TC       TSTLTS1
003338: 05,3440           43456                           CS       FULLDSP1
003339: 05,3441           54310                           TS       DSPTAB     +1                         #  TURN ON 3 PLUS SIGNS
003340: 05,3442           54313                           TS       DSPTAB     +4
003341: 05,3443           54315                           TS       DSPTAB     +6
003342: 05,3444           37653                           CAF      ELEVEN
003343: 05,3445           54303                           TS       NOUT
003344: 05,3446           00003                           RELINT
003345: 05,3447           33462                           CAF      SHOLTS
003346: 05,3450           00004                           INHINT
003347: 05,3451           04451                           TC       WAITLIST
003348: 05,3452     0307                                  EBANK=   DSPTAB
003349: 05,3452           03463 12000                     2CADR    TSTLTS2
003350:
003351: 05,3454           04353                           TC       ENDOFJOB                              #  DSPLOCK IS LEFT BUSY (FROM KEYBOARD
003352:                                                                                                  #  ACTION) UNTIL TSTLTS3 TO INSURE THAT
003353:                                                                                                  #  LIGHTS TEST WILL BE SEEN.
003354:
003355:
003356:
003357: 05,3455           05675        FULLDSP            OCT      05675                                 #  DISPLAY ALL 8:S
003358: 05,3456           07675        FULLDSP1           OCT      07675                                 #  DISPLAY ALL 8:S AND +
003359: 05,3457           00175        TSTCON1            OCT      00175
003360:                                                                                                  #  UPLINK ACTIVITY, TEMP, KEY RLSE,
003361:                                                                                                  #  V/N FLASH, OPERATOR ERROR.
003362:
003363: 05,3460           40650        TSTCON2            OCT      40650                                 #  DSPTAB+11D BITS 4,6,8,9.
003364:                                                                                                  #  NO ATT, GIMBAL LOCK, TRACKER, PROG ALM.
003365: 05,3461           00115        TSTCON3            OCT      00115                                 #  CHAN 11 BITS 1, 3, 4, 7.
003366:                                                                                                  #  UPLINK ACTIVITY, TEMP, OPERATOR ERROR.
003367: 05,3462           00764        SHOLTS             OCT      764                                   #  5 SEC
003368:
003369:
003370:
003371: 05,3463           35464        TSTLTS2            CAF      CHRPRIO                               #  CALLED BY WAITLIST
003372: 05,3464           04276                           TC       NOVAC
003373: 05,3465     0307                                  EBANK=   DSPTAB
003374: 05,3465           03470 12000                     2CADR    TSTLTS3
003375:
003376: 05,3467           04505                           TC       TASKOVER
003377:
003378:
003379:
003380: 05,3470           43461        TSTLTS3            CS       TSTCON3                               #  CALLED BY EXECUTIVE
003381: 05,3471           00004                           INHINT
003382: 05,3472           00006                           EXTEND                                         #  TURN OFF  UPLINK ACTIVITY, TEMP,
003383: 05,3473           03011                           WAND     DSALMOUT                              #  OPERATOR ERROR.
003384: 05,3474           47641                           CS       BIT10                                 #  TURN OFF  TEST ALARM OUTBIT
003385: 05,3475           00006                           EXTEND
003386: 05,3476           03013                           WAND     CHAN13
003387: 05,3477           37634                           CAF      BIT15                                 #  TURN OFF AUTO, HOLD, FREE, NO ATT, SPARE
003388: 05,3500           54322                           TS       DSPTAB     +11D                       #  GIMBAL LOCK, SPARE, TRACKER, PROG ALM
003389: 05,3501           43515                           CS       13-11,1                               #  SET BITS TO INDICATE ALL LAMPS OUT. TEST
003390: 05,3502           70362                           MASK     IMODES33                              #  LIGHTS COMPLETE.
003391: 05,3503           64430                           AD       PRIO16
003392: 05,3504           54362                           TS       IMODES33
003393:
003394: 05,3505           43516                           CS       OCT55000
003395: 05,3506           70361                           MASK     IMODES30
003396: 05,3507           64427                           AD       PRIO15                                #  15000.
003397: 05,3510           54361                           TS       IMODES30
003398:
003399: 05,3511           00003                           RELINT
003400:
003401: 05,3512           02001                           TC       DSPMM                                 #  REDISPLAY C(MODREG)
003402: 05,3513           04103                           TC       POSTJUMP                              #  TURN OFF KEY RLSE LIGHT ( AND SEARCH LIST
003403: 05,3514           11311                           CADR     VBTERM                                #  IF APPROPRIATE).
003404:                                                                                                  #  TURN OFF V/N FLASH, SET LOADSTAT FOR
003405:                                                                                                  #  FOR TERMINATE CONDITION, AND GO TO
003406:                                                                                                  #  RECALTST. FINALLY DO TC ENDOFJOB.
003407:
003408: 05,3515           16001        13-11,1            OCT      16001
003409: 05,3516           55000        OCT55000           OCT      55000
003410: 05,3517                        ENDPINS2           EQUALS

End of include-file PINBALL_GAME__BUTTONS_AND_LIGHTS.agc.  Parent file is MAIN.agc


