
Source Code


000002:                                                                                                  ## Copyright:   Public domain.
000003:                                                                                                  ## Filename:    PINBALL_GAME__BUTTONS_AND_LIGHTS.agc
000004:                                                                                                  ## Purpose:     A section of Sundial E.
000005:                                                                                                  ##              It is part of the reconstructed source code for the final
000006:                                                                                                  ##              release of the Block II Command Module system test software. No
000007:                                                                                                  ##              original listings of this program are available; instead, this
000008:                                                                                                  ##              file was created via disassembly of dumps of Sundial core rope
000009:                                                                                                  ##              modules and comparison with other AGC programs.
000010:                                                                                                  ## Assembler:   yaYUL
000011:                                                                                                  ## Contact:     Ron Burkey <info@sandroid.org>.
000012:                                                                                                  ## Website:     www.ibiblio.org/apollo/index.html
000013:                                                                                                  ## Mod history: 2023-06-22 MAS  Created from Aurora 12.
000014:                                                                                                  ##              2023-06-30 MAS  Updated for Sundial E.
000015:
000016:
000017:
000018:                                                                                                  #  KEYBOARD AND DISPLAY PROGRAM
000019:
000020:
000021:
000022:                                                                                                  #  THE FOLLOWING QUOTATION IS PROVIDED THROUGH THE COUTESY OF THE AUTHORS.
000023:
000024:                                                                                                  #        ::IT WILL BE PROVED TO THY FACE THAT THOU HAST MEN ABOUT THEE THAT
000025:                                                                                                  #  USUALLY TALK OF A NOUN AND A VERB, AND SUCH ABOMINABLE WORDS AS NO
000026:                                                                                                  #  CHRISTIAN EAR CAN ENDURE TO HEAR.::
000027:
000028:                                                                                                  #                       HENRY 6, ACT 2, SCENE 4
000029:
000030:
000031:
000032:                                                                                                  #  THE FOLLOWING ASSIGNMENTS FOR PINBALL ARE MADE ELSEWHERE
000033:
000034:
000035:
000036:                                                                                                  #  RESERVED FOR PINBALL EXECUTIVE ACTION
000037:
000038:                                                                                                  #  DSPCOUNT      ERASE                   DISPLAY POSITION INDICATOR
000039:                                                                                                  #  DECBRNCH      ERASE                   +DEC, -DEC, OCT INDICATOR
000040:                                                                                                  #  VERBREG       ERASE                   VERB CODE
000041:                                                                                                  #  NOUNREG       ERASE                   NOUN CODE
000042:                                                                                                  #  XREG          ERASE                   R1 INPUT BUFFER
000043:                                                                                                  #  YREG          ERASE                   R2 INPUT BUFFER
000044:                                                                                                  #  ZREG          ERASE                   R3 INPUT BUFFER
000045:                                                                                                  #  XREGLP        ERASE                   LO PART OF XREG (FOR DEC CONV ONLY)
000046:                                                                                                  #  YREGLP        ERASE                   LO PART OF YREG (FOR DEC CONV ONLY)
000047:                                                                                                  #  ZREGLP        ERASE                   LO PART OF ZREG (FOR DEC CONV ONLY)
000048:                                                                                                  #  MODREG        ERASE                   MODE CODE
000049:                                                                                                  #  DSPLOCK       ERASE                   KEYBOARD/SUBROUTINE CALL INTERLOCK
000050:                                                                                                  #  REQRET        ERASE                   RETURN REGISTER FOR LOAD
000051:                                                                                                  #  LOADSTAT      ERASE                   STATUS INDICATOR FOR LOADTST
000052:                                                                                                  #  CLPASS        ERASE                   PASS INDICATOR CLEAR
000053:                                                                                                  #  NOUT          ERASE                   ACTIVITY COUNTER FOR DSPTAB
000054:                                                                                                  #  NOUNCADR      ERASE                   MACHINE CADR FOR NOUN
000055:                                                                                                  #  MONSAVE       ERASE                   N/V CODE FOR MONITOR. (= MONSAVE1-1)
000056:                                                                                                  #  MONSAVE1      ERASE                   NOUNCADR FOR MONITOR(MATBS) =MONSAVE +1
000057:                                                                                                  #  DSPTAB        ERASE           +13D    0-10,DISPLAY PANEL BUFFER.11-13,C RELAYS
000058:                                                                                                  #  CADRSTOR      ERASE                   ENDIDLE STORAGE
000059:                                                                                                  #  GRABLOCK      ERASE                   INTERNAL INTERLOCK FOR DISPLAY SYSTEM
000060:                                                                                                  #  NVQTEM        ERASE                   NVSUB STORAGE FOR CALLING ADDRESS
000061:                                                                                                  #                                        MUST = NVBNKTEM-1
000062:                                                                                                  #  NVBNKTEM      ERASE                   NVSUB STORAGE FOR CALLING BANK
000063:                                                                                                  #                                        MUST = NVQTEM+1
000064:                                                                                                  #  DSPLIST       ERASE           +2      WAITING LIST FOR DSP SYST INTERNAL USE
000065:                                                                                                  #  EXTVBACT      REASE                   EXTENDED VERB ACTIVITY INTERLOCK
000066:                                                                                                  #  DSPTEM1       ERASE           +2      BUFFER STORAGE AREA 1 (MOSTLY FOR TIME)
000067:                                                                                                  #  DSPTEM2       ERASE           +2      BUFFER STORAGE AREA 2 (MOSTLY FOR DEG)
000068:
000069:
000070:                                                                                                  #  END OF ERASABLES RESERVED FOR PINBALL EXECUTIVE ACTION
000071:
000072:
000073:
000074:                                                                                                  #  TEMPORARIES FOR PINBALL EXECUTIVE ACTION
000075:
000076:                                                                                                  #  DSEXIT   =      INTB15+         RETURN FOR DSPIN
000077:                                                                                                  #  EXITEM   =      INTB15+         RETURN FOR SCALE FACTOR ROUTINE SELECT
000078:                                                                                                  #  BLANKRET =      INTB15+         RETURN FOR 2BLANK
000079:
000080:                                                                                                  #  WRDRET   =      INTBIT15        RETURN FOR 5BLANK
000081:                                                                                                  #  WDRET    =      INTBIT15        RETURN FOR DSPWD
000082:                                                                                                  #  DECRET   =      INTBIT15        RETURN FOR PUTCOM(DEC LOAD)
000083:                                                                                                  #  21/22REG =      INTBIT15        TEMP FOR CHARIN
000084:
000085:                                                                                                  #  UPDATRET =      POLISH          RETURN FOR UPDATNN, UPDATVB
000086:                                                                                                  #  CHAR     =      POLISH          TEMP FOR CHARIN
000087:                                                                                                  #  ERCNT    =      POLISH          COUNTER FOR ERROR LIGHT RESET
000088:                                                                                                  #  DECOUNT  =      POLISH          COUNTER FOR SCALING AND DISPLAY (DEC)
000089:
000090:                                                                                                  #  SGNON    =      VBUF            TEMP FOR +,- ON
000091:                                                                                                  #  NOUNTEM  =      VBUF            COUNTER FOR MIXNOUN FETCH
000092:                                                                                                  #  DISTEM   =      VBUF            COUNTER FOR OCTAL DISPLAY VERBS
000093:                                                                                                  #  DECTEM   =      VBUF            COUNTER FOR FETCH (DEC DISPLAY VERBS)
000094:
000095:                                                                                                  #  SGNOFF   =       VBUF   +1      TEMP FOR +,- ON
000096:                                                                                                  #  NVTEMP   =       VBUF   +1      TEMP FOR NVSUB
000097:                                                                                                  #  SFTEMP1  =       VBUF   +1      STORAGE FOR SF CONST HI PART (=SFTEMP2-1)
000098:
000099:                                                                                                  #  CODE     =       VBUF   +2      FOR DSPIN
000100:                                                                                                  #  SFTEMP2  =       VBUF   +2      STORAGE FOR SF CONST LO PART (=SFTEMP1+1)
000101:
000102:                                                                                                  #  MIXTEMP  =       VBUF   +3      FOR MIXNOUN DATA
000103:                                                                                                  #  SIGNRET  =       VBUF   +3      RETURN FOR +,- ON
000104:
000105:                                                                                                  #  ALSO MIXTEMP+1 = VBUF+4, MIXTEMP+2 = VBUF+5.
000106:
000107:                                                                                                  #  ENTRET   =       DOTINC          EXIT FROM ENTER
000108:
000109:                                                                                                  #  WDCNT    =       DOTRET          CHAR COUNTER FOR DSPWD
000110:                                                                                                  #  INREL    =       DOTRET          INPUT BUFFER SELECTOR ( X, Y, Z, REG )
000111:
000112:                                                                                                  #  DSPMMTEM =       MATINC          DSPCOUNT SAVE FOR DSPMM
000113:                                                                                                  #  MIXBR    =       MATINC          INDICATOR FOR MIXED OR NORMAL NOUN
000114:
000115:                                                                                                  #  TEM1     ERASE                   EXEC TEMP
000116:                                                                                                  #  DSREL    =       TEM1            REL ADDRESS FOR DSPIN
000117:
000118:                                                                                                  #  TEM2     ERASE                   EXEC TEMP
000119:                                                                                                  #  DSMAG    =       TEM2            MAGNITUDE STORE FOR DSPIN
000120:
000121:                                                                                                  #  IDADDTEM =       TEM2            MIXNOUN INDIRECT ADDRESS STORAGE
000122:
000123:                                                                                                  #  TEM3     ERASE                   EXEC TEMP
000124:                                                                                                  #  COUNT    =       TEM3            FOR DSPIN
000125:
000126:                                                                                                  #  TEM4     ERASE                   EXEC TEMP
000127:                                                                                                  #  LSTPTR   =       TEM4            LIST POINTER FOR GRABUSY
000128:                                                                                                  #  RELRET   =       TEM4            RETURN FOR RELDSP
000129:                                                                                                  #  FREERET  =       TEM4            RETURN FOR FREEDSP
000130:
000131:                                                                                                  #  TEM5     ERASE                   EXEC TEMP
000132:                                                                                                  #  NOUNADD  =       TEM5            TEMP STORAGE FOR NOUN ADDRESS
000133:
000134:                                                                                                  #  NNADTEM  ERASE                   TEMP FOR NOUN ADDRESS TABLE ENTRY
000135:                                                                                                  #  NNTYPTEM ERASE                   TEMP FOR NOUN TYPE TABLE ENTRY
000136:                                                                                                  #  IDAD1TEM ERASE                   TEMP FOR INDIR ADRESS TABLE ENTRY(MIXNN)
000137:                                                                                                  #                                   MUST = IDAD2TEM-1, = IDAD3TEM-2.
000138:                                                                                                  #  IDAD2TEM ERASE                   TEMP FOR INDIR ADRESS TABLE ENTRY(MIXNN)
000139:                                                                                                  #                                   MUST = IDAD1TEM+1, = IDAD3TEM-1.
000140:                                                                                                  #  IDAD3TEM ERASE                   TEMP FOR INDIR ADRESS TABLE ENTRY(MIXNN)
000141:                                                                                                  #                                   MUST = IDAD1TEM+2,  = IDAD2TEM+1.
000142:                                                                                                  #  RUTMXTEM ERASE                   TEMP FOR SF ROUT TABLE ENTRY(MIXNN ONLY)
000143:                                                                                                  #  END OF TEMPORARIES FOR PINBALL EXECUTIVE ACTION
000144:
000145:
000146:
000147:                                                                                                  #  RESERVED FOR PINBALL INTERRUPT ACTION
000148:
000149:                                                                                                  #  DSPCNT   ERASE                   COUNTER FOR DSPOUT
000150:                                                                                                  #  UPLOCK   ERASE                   BIT1 = UPLINK INTERLOCK (ACTIVATED BY
000151:                                                                                                  #                                                                            RECEPTION OF A BAD MESSAGE IN UPLINK)
000152:                                                                                                  #  END OF ERASABLES RESERVED FOR PINBALL INTERRUPT ACTION
000153:
000154:
000155:
000156:                                                                                                  #  TEMPORARIES FOR PINBALL INTERRUPT ACTION
000157:
000158:                                                                                                  #  KEYTEMP1 =       WAITEXIT        TEMP FOR KEYRUPT, UPRUPT
000159:                                                                                                  #  DSRUPTEM =       WAITEXIT        TEMP FOR DSPOUT
000160:                                                                                                  #  KEYTEMP2 =       RUPTAGN         TEMP FOR KEYRUPT, UPRUPT
000161:                                                                                                  #  END OF TEMPORARIES FOR PINBALL INTERRUPT ACTION
000162:
000163:
000164:                                                                                                  #  THE INPUT CODES ASSUMED FOR THE KEYBOARD ARE,
000165:                                                                                                  #  0        10000
000166:                                                                                                  #  1        00001
000167:                                                                                                  #  9        01001
000168:                                                                                                  #  VERB     10001
000169:                                                                                                  #  ERROR RES10010
000170:                                                                                                  #  KEY RLSE 11001
000171:                                                                                                  #  +        11010
000172:                                                                                                  #  -        11011
000173:                                                                                                  #  ENTER    11100
000174:                                                                                                  #  CLEAR    11110
000175:                                                                                                  #  NOUN     11111
000176:
000177:
000178:
000179:                                                                                                  #  OUTPUT FORMAT FOR DISPLAY PANEL. SET OUT0 TO AAAABCCCCCDDDDD.
000180:                                                                                                  #  A-S SELECT A RELAYWORD. THIS DETERMINES WHICH PAIR OF CHARACTERS ARE
000181:                                                                                                  #  ENERGIZED.
000182:                                                                                                  #  B FOR SPECIAL RELAYS SUCH AS SIGNS ETC.
000183:                                                                                                  #  C-S  5 BIT RELAY CODE FOR LEFT CHAR OF PAIR SELECTED BY RELAYWORD
000184:                                                                                                  #  D-S  5 BIT RELAY CODE FOR RIGHT CHAR OF PAIR SELECTED BY RELAYWORD.
000185:
000186:                                                                                                  #  THE PANEL APPEARS AS FOLLOWS,
000187:                                                                                                  #  MD1    MD2                         (MAJOR MODE)
000188:                                                                                                  #  VD1    VD2 (VERB)    ND1    ND2    (NOUN)
000189:                                                                                                  #  R1D1   R1D2   R1D3   R1D4   R1D5   (R1)
000190:                                                                                                  #  R2D1   R2D2   R2D3   R2D4   R2D5   (R2)
000191:                                                                                                  #  R3D1   R3D2   R3D3   R3D4   R3D5   (R3)
000192:
000193:                                                                                                  #  EACH OF THESE IS GIVEN A DSPCOUNT NUMBER FOR USE WITHIN COMPUTATION ONLY
000194:                                                                                                  #  MD1   25     R2D1  11         ALL ARE OCTAL
000195:                                                                                                  #  MD2   24     R2D2  10
000196:                                                                                                  #  VD1   23     R2D3   7
000197:                                                                                                  #  VD2   22     R2D4   6
000198:                                                                                                  #  ND1   21     R2D5   5
000199:                                                                                                  #  ND2   20     R3D1   4
000200:                                                                                                  #  R1D1  16     R3D2   3
000201:                                                                                                  #  R1D2  15     R3D3   2
000202:                                                                                                  #  R1D3  14     R3D4   1
000203:                                                                                                  #  R1D4  13     R3D5   0
000204:                                                                                                  #  R1D5  12
000205:
000206:
000207:
000208:                                                                                                  #  THERE IS AN 11 REGISTER TABLE (DSPTAB) FOR THE DISPLAY PANEL.
000209:
000210:                                                                                                  #  DSPTAB RELAYWD       BIT11     BITS 10-6     BITS 5-1
000211:                                                                                                  #  RELADD
000212:                                                                                                  #  10     1011                    MD1 (25)      MD2 (24)
000213:                                                                                                  #  9      1010                    VD1 (23)      VD2 (22)
000214:
000215:                                                                                                  #  8      1001                    ND1 (21)      ND2 (20)
000216:                                                                                                  #  7      1000                                  R1D1 (16)
000217:                                                                                                  #  6      0111          +R1       R1D2 (15)     R1D3 (14)
000218:                                                                                                  #  5      0110          -R1       R1D4 (13)     R1D5 (12)
000219:                                                                                                  #  4      0101          +R2       R2D1 (11)     R2D2 (10)
000220:                                                                                                  #  3      0100          -R2       R2D3 (7)      R2D4 (6)
000221:                                                                                                  #  2      0011                    R2D5 (5)      R3D1 (4)
000222:                                                                                                  #  1      0010          +R3       R3D2 (3)      R3D3 (2)
000223:                                                                                                  #  0      0001          -R3       R3D4 (1)      R3D5 (0)
000224:                                                                                                  #         0000   NO RELAYWORD
000225:
000226:
000227:
000228:                                                                                                  #  THE 5 BIT RELAY CODES ARE,
000229:                                                                                                  #  BLANK      00000
000230:                                                                                                  #  0          10101
000231:                                                                                                  #  1          00011
000232:                                                                                                  #  2          11001
000233:                                                                                                  #  3          11011
000234:                                                                                                  #  4          01111
000235:                                                                                                  #  5          11110
000236:                                                                                                  #  6          11100
000237:                                                                                                  #  7          10011
000238:                                                                                                  #  8          11101
000239:                                                                                                  #  9          11111
000240:
000241:
000242:                                                                                                  #  START OF EXECUTIVE SECTION OF PINBALL
000243:
000244:
000245:
000246: 04,2000                                           SETLOC   20000
000247:
000248: 04,2000           03450        GRABUSYB           TC       GRABUSY1                              #  STANDARD LEAD INS. DONT MOVE.
000249: 04,2001           03472        NVSUBSYB           TC       NVSUBSY1
000250:
000251: 04,2002           37652        CHARIN             CAF      ONE                                   #  BLOCK DISPLAY SYST
000252: 04,2003           56277                           XCH      DSPLOCK                               #  MAKE DSP SYST BUSY, BUT SAVE OLD
000253: 04,2004           54101                           TS       21/22REG                              #  C(DSPLOCK) FOR ERROR LIGHT RESET.
000254: 04,2005           56140                           XCH      MPAC
000255: 04,2006           54103                           TS       CHAR
000256: 04,2007           50000                           INDEX    A
000257: 04,2010           02011                           TC       +1                                    #  INPUT CODE     FUNCTION
000258: 04,2011           03271                           TC       CHARALRM                              #  0
000259: 04,2012           02062                           TC       NUM                                   #  1
000260: 04,2013           02062                           TC       NUM                                   #  2
000261: 04,2014           02062                           TC       NUM                                   #  3
000262: 04,2015           02062                           TC       NUM                                   #  4
000263: 04,2016           02062                           TC       NUM                                   #  5
000264: 04,2017           02062                           TC       NUM                                   #  6
000265: 04,2020           02062                           TC       NUM                                   #  7
000266: 04,2021           02053                           TC       89TEST                                #  10                 8
000267: 04,2022           02053                           TC       89TEST                                #  11                 9
000268: 04,2023           03271                           TC       CHARALRM                              #  12
000269: 04,2024           03271                           TC       CHARALRM                              #  13
000270: 04,2025           03271                           TC       CHARALRM                              #  14
000271: 04,2026           03271                           TC       CHARALRM                              #  15
000272: 04,2027           03271                           TC       CHARALRM                              #  16
000273: 04,2030           03271                           TC       CHARALRM                              #  17
000274: 04,2031           02060                           TC       NUM        -2                         #  20                 0
000275: 04,2032           02235                           TC       VERB                                  #  21                 VERB
000276: 04,2033           02343                           TC       ERROR                                 #  22                 ERROR LIGHT RESET
000277: 04,2034           03271                           TC       CHARALRM                              #  23
000278: 04,2035           03271                           TC       CHARALRM                              #  24
000279: 04,2036           03271                           TC       CHARALRM                              #  25
000280: 04,2037           03271                           TC       CHARALRM                              #  26
000281: 04,2040           03271                           TC       CHARALRM                              #  27
000282: 04,2041           03271                           TC       CHARALRM                              #  30
000283: 04,2042           03314                           TC       VBRELDSP                              #  31                 KEY RELEASE
000284: 04,2043           02267                           TC       POSGN                                 #  32                 +
000285: 04,2044           02254                           TC       NEGSGN                                #  33                 -
000286: 04,2045           02051                           TC       ENTERJMP                              #  34                 ENTER
000287: 04,2046           03271                           TC       CHARALRM                              #  35
000288: 04,2047           02425                           TC       CLEAR                                 #  36                 CLEAR
000289: 04,2050           02250                           TC       NOUN                                  #  37                 NOUN
000290:
000291: 04,2051           04103        ENTERJMP           TC       POSTJUMP
000292: 04,2052           12003                           CADR     ENTER
000293:
000294: 04,2053           36165        89TEST             CAF      THREE
000295: 04,2054           70265                           MASK     DECBRNCH
000296: 04,2055           10000                           CCS      A
000297: 04,2056           02062                           TC       NUM                                   #  IF DECBRNCH IS +, 8 OR 9 OK
000298: 04,2057           03271                           TC       CHARALRM                              #  IF DECBRNCH IS +0, REJECT 8 OR 9
000299:
000300:
000301:
000302:                                                                                                  #  NUM ASSEMBLES OCTAL 3 BITS AT A TIME. FOR DECIMAL IT CONVERTS INCOMING
000303:                                                                                                  #  WORD AS A FRACTION, KEEPING RESULTS TO DP.
000304:                                                                                                  #  OCTAL RESULTS ARE LEFT IN XREG, YREG, OR ZREG. HI PART OF DEC IN XREG,
000305:                                                                                                  #  YREG, ZREG. THE LOW PARTS IN XREGLP, YREGLP, OR ZREGLP)
000306:                                                                                                  #  DECBRNCH IS LEFT AT +0 FOR OCT, +1 FOR + DEC, +2 FOR - DEC.
000307:                                                                                                  #  IF DSPCOUNT WAS LEFT -, NO MORE DATA IS ACCEPTED.
000308:
000309: 04,2060           37657                           CAF      ZERO
000310: 04,2061           54103                           TS       CHAR
000311: 04,2062           10264        NUM                CCS      DSPCOUNT
000312: 04,2063           02067                           TC       +4                                    #  +
000313: 04,2064           02067                           TC       +3                                    #  +0
000314: 04,2065           02066                           TC       +1                                    #  -BLOCK DATA IN IF DSPCOUNT IS -
000315: 04,2066           04353                           TC       ENDOFJOB                              #  -0
000316: 04,2067           02205                           TC       GETINREL
000317: 04,2070           10302                           CCS      CLPASS                                #  IF CLPASS IS + OR +0, MAKE IT +0.
000318: 04,2071           37657                           CAF      ZERO
000319: 04,2072           54302                           TS       CLPASS
000320: 04,2073           02074                           TC       +1
000321: 04,2074           50103                           INDEX    CHAR
000322: 04,2075           34640                           CAF      RELTAB
000323: 04,2076           75455                           MASK     LOW5
000324: 04,2077           54110                           TS       CODE
000325: 04,2100           30264                           CA       DSPCOUNT
000326: 04,2101           54127                           TS       COUNT
000327: 04,2102           03175                           TC       DSPIN
000328: 04,2103           36165                           CAF      THREE
000329: 04,2104           70265                           MASK     DECBRNCH
000330: 04,2105           10000                           CCS      A                                     #  +0, OCTAL.  +1, + DEC.  +2, - DEC.
000331: 04,2106           02117                           TC       DECTOBIN                              #  +
000332: 04,2107           50123                           INDEX    INREL                                 #  +0 OCTAL
000333: 04,2110           56266                           XCH      VERBREG
000334: 04,2111           54022                           TS       CYL
000335: 04,2112           40022                           CS       CYL
000336: 04,2113           40022                           CS       CYL
000337: 04,2114           56022                           XCH      CYL
000338: 04,2115           60103                           AD       CHAR
000339: 04,2116           02134                           TC       ENDNMTST
000340: 04,2117           50123        DECTOBIN           INDEX    INREL
000341:
000342:
000343: 04,2120           56266                           XCH      VERBREG
000344: 04,2121           54140                           TS       MPAC                                  #  SUM X 2EXP-14 IN MPAC
000345: 04,2122           37657                           CAF      ZERO
000346: 04,2123           54141                           TS       MPAC       +1
000347: 04,2124           37654                           CAF      TEN                                   #  10 X 2EXP-14
000348: 04,2125           07261                           TC       SHORTMP                               #  10SUM X 2EXP-28 IN MPAC, MPAC+1
000349: 04,2126           56141                           XCH      MPAC       +1
000350: 04,2127           60103                           AD       CHAR
000351: 04,2130           54141                           TS       MPAC       +1
000352: 04,2131           02134                           TC       ENDNMTST                              #  NO OF
000353: 04,2132           26140                           ADS      MPAC                                  #  OF MUST BE 5TH CHAR
000354: 04,2133           02152                           TC       DECEND
000355: 04,2134           50123        ENDNMTST           INDEX    INREL
000356: 04,2135           54266                           TS       VERBREG
000357: 04,2136           40264                           CS       DSPCOUNT
000358: 04,2137           50123                           INDEX    INREL
000359: 04,2140           62176                           AD       CRITCON
000360: 04,2141           00006                           EXTEND
000361: 04,2142           12144                           BZF      ENDNUM                                #  -0, DSPCOUNT = CRITCON
000362: 04,2143           02173                           TC       MORNUM                                #  - , DSPCOUNT G/ CRITCON
000363: 04,2144           36165        ENDNUM             CAF      THREE
000364: 04,2145           70265                           MASK     DECBRNCH
000365: 04,2146           10000                           CCS      A
000366: 04,2147           02152                           TC       DECEND
000367: 04,2150           40264        ENDALL             CS       DSPCOUNT                              #  BLOCK NUMIN BY PLACING DSPCOUNT
000368: 04,2151           02174                           TC       MORNUM     +1                         #  NEGATIVELY
000369: 04,2152           07063        DECEND             TC       DMP                                   #  MULT SUM X 2EXP-28 IN MPAC, MPAC+1 BY
000370: 04,2153           02203                           ADRES    DECON                                 #  2EXP14/10EXP5. GIVES(SUM/10EXP5)X2EXP-14
000371: 04,2154           36165                           CAF      THREE                                 #  IN MPAC, +1, +2.
000372: 04,2155           70265                           MASK     DECBRNCH
000373: 04,2156           50000                           INDEX    A
000374: 04,2157           02157                           TC       +0
000375: 04,2160           02164                           TC       +DECSGN
000376: 04,2161           00006                           EXTEND                                         #  - CASE
000377: 04,2162           40142                           DCS      MPAC       +1
000378: 04,2163           52142                           DXCH     MPAC       +1
000379: 04,2164           56142        +DECSGN            XCH      MPAC       +2
000380: 04,2165           50123                           INDEX    INREL
000381: 04,2166           54271                           TS       XREGLP     -2
000382: 04,2167           56141                           XCH      MPAC       +1
000383: 04,2170           50123                           INDEX    INREL
000384: 04,2171           54266                           TS       VERBREG
000385: 04,2172           02150                           TC       ENDALL
000386: 04,2173           10264        MORNUM             CCS      DSPCOUNT                              #  DECREMENT DSPCOUNT
000387: 04,2174           54264                           TS       DSPCOUNT
000388: 04,2175           04353                           TC       ENDOFJOB
000389:
000390: 04,2176           00022        CRITCON            OCT      22                                    #  (DEC 18)
000391: 04,2177           00020                           OCT      20                                    #  (DEC 16)
000392: 04,2200           00012                           OCT      12                                    #  (DEC 10)
000393:
000394: 04,2201           00005                           OCT      5
000395: 04,2202           00000                           OCT      0
000396:
000397: 04,2203           05174 13261  DECON              2DEC     E-5        B14                        #  2EXP14/10EXP5 = .16384 DEC
000398:
000399:
000400:                                                                                                  #  GETINREL GETS PROPER DATA REG REL ADDRESS FOR CURRENT C(DSPCOUNT) AND
000401:                                                                                                  #  PUTS IN INTO INREL. +0 VERBREG, 1 NOUNREG, 2 XREG, 3 YREG, 4 ZREG.
000402:
000403: 04,2205           50264        GETINREL           INDEX    DSPCOUNT
000404: 04,2206           32211                           CAF      INRELTAB
000405: 04,2207           54123                           TS       INREL                                 #  (A TEMP, REG)
000406: 04,2210           00002                           TC       Q
000407:
000408: 04,2211           00004        INRELTAB           OCT      4                                     #  R3D5 (DSPCOUNT = 0)
000409: 04,2212           00004                           OCT      4                                     #  R3D4           =(1)
000410: 04,2213           00004                           OCT      4                                     #  R3D3           =(2)
000411: 04,2214           00004                           OCT      4                                     #  R3D2           =(3)
000412: 04,2215           00004                           OCT      4                                     #  R3D1           =(4)
000413: 04,2216           00003                           OCT      3                                     #  R2D5           =(5)
000414: 04,2217           00003                           OCT      3                                     #  R2D4           =(6)
000415: 04,2220           00003                           OCT      3                                     #  R2D3           =(7)
000416: 04,2221           00003                           OCT      3                                     #  R2D2           =(8D)
000417: 04,2222           00003                           OCT      3                                     #  R2D1           =(9D)
000418: 04,2223           00002                           OCT      2                                     #  R1D5           =(10D)
000419: 04,2224           00002                           OCT      2                                     #  R1D4           =(11D)
000420: 04,2225           00002                           OCT      2                                     #  R1D3           =(12D)
000421: 04,2226           00002                           OCT      2                                     #  R1D2           =(13D)
000422: 04,2227           00002                           OCT      2                                     #  R1D1           =(14D)
000423: 04,2230           05715                           TC       CCSHOLE                               #  NO DSPCOUNT NUMBER = 15D
000424: 04,2231           00001                           OCT      1                                     #  ND2            =(16D)
000425: 04,2232           00001                           OCT      1                                     #  ND1            =(17D)
000426: 04,2233           00000                           OCT      0                                     #  VD2            =(18D)
000427: 04,2234           00000                           OCT      0                                     #  VD1            =(19D)
000428:
000429: 04,2235           37657        VERB               CAF      ZERO
000430: 04,2236           54266                           TS       VERBREG
000431: 04,2237           35470                           CAF      VD1
000432: 04,2240           54264        NVCOM              TS       DSPCOUNT
000433: 04,2241           02535                           TC       2BLANK
000434: 04,2242           37657                           CAF      ZERO
000435: 04,2243           54265                           TS       DECBRNCH
000436: 04,2244           54300                           TS       REQRET                                #  SET FOR ENTPAS0
000437: 04,2245           34734                           CAF      ENDINST                               #  IF DSPALARM OCCURS BEFORE FIRST ENTPAS0
000438: 04,2246           54122                           TS       ENTRET                                #  OR NVSUB, ENTRET MUST ALREADY BE SET
000439:                                                                                                  #  TO TC ENDOFJOB
000440: 04,2247           04353                           TC       ENDOFJOB
000441:
000442: 04,2250           37657        NOUN               CAF      ZERO
000443: 04,2251           54267                           TS       NOUNREG
000444: 04,2252           35471                           CAF      ND1                                   #  ND1, OCT 21 (DEC 17)
000445: 04,2253           02240                           TC       NVCOM
000446:
000447:
000448:
000449: 04,2254           02326        NEGSGN             TC       SIGNTEST
000450: 04,2255           02313                           TC       -ON
000451: 04,2256           37651                           CAF      TWO
000452: 04,2257           50123        BOTHSGN            INDEX    INREL                                 #  SET DEC COMP BIT TO 1 (IN DECBRNCH)
000453: 04,2260           67644                           AD       BIT7                                  #  BIT 5 FOR R1, BIT 4 FOR R2,
000454: 04,2261           26265                           ADS      DECBRNCH                              #  BIT 3 FOR R3.
000455: 04,2262           10302        FIXCLPAS           CCS      CLPASS                                #  IF CLPASS IS + OR +0, MAKE IT +0.
000456: 04,2263           37657                           CAF      ZERO
000457: 04,2264           54302                           TS       CLPASS
000458: 04,2265           02266                           TC       +1
000459: 04,2266           04353                           TC       ENDOFJOB
000460:
000461: 04,2267           02326        POSGN              TC       SIGNTEST
000462: 04,2270           02273                           TC       +ON
000463: 04,2271           37652                           CAF      ONE
000464: 04,2272           02257                           TC       BOTHSGN
000465:
000466: 04,2273           22002        +ON                LXCH     Q
000467: 04,2274           02205                           TC       GETINREL
000468: 04,2275           50123                           INDEX    INREL
000469: 04,2276           32321                           CAF      SGNTAB     -2
000470: 04,2277           54107                           TS       SGNOFF
000471: 04,2300           67652                           AD       ONE
000472: 04,2301           54106                           TS       SGNON
000473: 04,2302           37657        SGNCOM             CAF      ZERO
000474: 04,2303           54110                           TS       CODE
000475: 04,2304           56107                           XCH      SGNOFF
000476: 04,2305           03257                           TC       11DSPIN
000477: 04,2306           37640                           CAF      BIT11
000478: 04,2307           54110                           TS       CODE
000479: 04,2310           56106                           XCH      SGNON
000480: 04,2311           03257                           TC       11DSPIN
000481: 04,2312           00001                           TC       L
000482: 04,2313           22002        -ON                LXCH     Q
000483: 04,2314           02205                           TC       GETINREL
000484: 04,2315           50123                           INDEX    INREL
000485: 04,2316           32321                           CAF      SGNTAB     -2
000486: 04,2317           54106                           TS       SGNON
000487: 04,2320           67652                           AD       ONE
000488: 04,2321           54107                           TS       SGNOFF
000489: 04,2322           02302                           TC       SGNCOM
000490:
000491: 04,2323           00005        SGNTAB             OCT      5                                     #  -R1
000492:
000493: 04,2324           00003                           OCT      3                                     #  -R2
000494: 04,2325           00000                           OCT      0                                     #  -R3
000495:
000496:
000497:
000498: 04,2326           22002        SIGNTEST           LXCH     Q                                     #  ALLOWS +,- ONLY WHEN DSPCOUNT=R1D1,
000499: 04,2327           45426                           CS       R1D1                                  #  R2D1, OR R3D1.
000500: 04,2330           02336                           TC       SGNTST1
000501: 04,2331           45427                           CS       R2D1
000502: 04,2332           02336                           TC       SGNTST1
000503: 04,2333           45430                           CS       R3D1
000504: 04,2334           02336                           TC       SGNTST1
000505: 04,2335           04353                           TC       ENDOFJOB                              #  NO MATCH FOUND. SIGN ILLEGAL
000506: 04,2336           60264        SGNTST1            AD       DSPCOUNT
000507: 04,2337           00006                           EXTEND
000508: 04,2340           12342                           BZF      +2                                    #  MATCH FOUND
000509: 04,2341           00002                           TC       Q
000510: 04,2342           00001                           TC       L                                     #  SIGN LEGAL
000511:
000512:
000513:
000514:                                                                                                  #  ERROR LIGHT RESET (RSET) TURNS OFF,
000515:                                                                                                  #  UPLINK ACTIVITY, AUTO, HOLD, FREE, NO ATT, OPERATOR ERROR,
000516:                                                                                                  #  PROG ALM, TRACKER FAIL.
000517:                                                                                                  #  LEAVES GIMBAL LOCK ALONE.
000518:                                                                                                  #  IT ALSO ZEROES THE :TEST ALARM: OUT BIT, WHICH TURNS OFF STBY,RESTART.
000519:                                                                                                  #  IT ALSO SETS :CAUTION RESET: TO 1.
000520:                                                                                                  #  IT ALSO FORCES BIT 12 OF ALL DSPTAB ENTRIES TO 1.
000521:
000522: 04,2343           56101        ERROR              XCH      21/22REG                              #  RESTORE ORIGINAL C(DSPLOCK). THUS ERROR
000523: 04,2344           54277                           TS       DSPLOCK                               #  LIGHT RESET LEAVES DSPLOCK UNCHANGED.
000524: 04,2345           00004                           INHINT
000525: 04,2346           37641                           CAF      BIT10                                 #  TURN ON :CAUTION RESET: OUTBIT
000526: 04,2347           00006                           EXTEND
000527: 04,2350           05011                           WOR      DSALMOUT                              #  BIT10 CHAN 11
000528: 04,2351           37645                           CAF      BIT6                                  #  LEAVE GIMBAL LOCK LAMP INTACT,
000529: 04,2352           70322                           MASK     DSPTAB     +11D                       #  TURNING OFF, AUTO, HOLD, FREE, NO ATT.,
000530: 04,2353           67634                           AD       BIT15                                 #  PROG ALARM, AND TRACKER.
000531: 04,2354           54322                           TS       DSPTAB     +11D
000532: 04,2355           44430                           CS       PRIO16                                #  RESET FAIL BITS WHICH GENERATE PROG
000533: 04,2356           70362                           MASK     IMODES33                              #  ALARM SO THAT IF THE FAILURE STILL
000534: 04,2357           64430                           AD       PRIO16                                #  EXISTS, THE ALARM WILL COME BACK.
000535: 04,2360           54362                           TS       IMODES33
000536: 04,2361           47641                           CS       BIT10
000537: 04,2362           70361                           MASK     IMODES30
000538: 04,2363           67641                           AD       BIT10
000539: 04,2364           54361                           TS       IMODES30
000540:
000541: 04,2365           47641                           CS       BIT10                                 #  TURN OFF :TEST ALARM: OUTBIT.
000542: 04,2366           00006                           EXTEND
000543: 04,2367           03013                           WAND     CHAN13
000544: 04,2370           42422                           CS       ERCON                                 #  TURN OFF UPLINK ACTIVITY,
000545: 04,2371           00006                           EXTEND                                         #  OPERATOR ERROR.
000546: 04,2372           03011                           WAND     DSALMOUT
000547: 04,2373           35473        TSTAB              CAF      BINCON                                #  (DEC 10)
000548: 04,2374           54103                           TS       ERCNT                                 #  ERCNT = COUNT
000549: 04,2375           00004                           INHINT
000550: 04,2376           50103                           INDEX    ERCNT
000551: 04,2377           10307                           CCS      DSPTAB
000552: 04,2400           67652                           AD       ONE
000553: 04,2401           02406                           TC       ERPLUS
000554: 04,2402           67652                           AD       ONE
000555: 04,2403           40000        ERMINUS            CS       A
000556: 04,2404           72424                           MASK     NOTBIT12
000557: 04,2405           02411                           TC       ERCOM
000558: 04,2406           40000        ERPLUS             CS       A
000559: 04,2407           72424                           MASK     NOTBIT12
000560: 04,2410           40000                           CS       A                                     #  MIGHT WANT TO RESET CLPASS, DECBRNCH,
000561: 04,2411           50103        ERCOM              INDEX    ERCNT                                 #  ETC.
000562: 04,2412           54307                           TS       DSPTAB
000563: 04,2413           00003                           RELINT
000564: 04,2414           10103                           CCS      ERCNT
000565: 04,2415           02374                           TC       TSTAB      +1
000566: 04,2416           37657                           CAF      ZERO
000567: 04,2417           55363                           TS       FAILREG
000568: 04,2420           55364                           TS       SFAIL
000569: 04,2421           04353                           TC       ENDOFJOB
000570:
000571: 04,2422           00104        ERCON              OCT      104                                   #  CHAN 11 BITS 3,7.
000572:                                                                                                  #  UPLINK ACTIVITY, AND OPERATOR ERROR.
000573: 04,2423           00240        BITS6,8            OCT      240
000574: 04,2424           73777        NOTBIT12           OCT      73777
000575:
000576:
000577:
000578:                                                                                                  #  CLEAR BLANKS WHICH R1, R2, R3 IS CURRENT OR LAST TO BE DISPLAYED(PERTINE
000579:                                                                                                  #  NT XREG,YREG,ZREG IS CLEARED). SUCCESSIVE CLEARS TAKE CARE OF EACH RX
000580:                                                                                                  #  L/ RC UNTIL R1 IS DONE. THEN NO FURTHER ACTION
000581:
000582:                                                                                                  #  THE SINGLE COMPONENT LOAD VERBS ALLOW ONLY THE SINGLE RC THAT IS
000583:                                                                                                  #  APPROPRIATE TO BE CLEARED.
000584:
000585:                                                                                                  #  CLPASS      +0 PASS0, CAN BE BACKED UP
000586:                                                                                                  #              +NZ HIPASS, CAN BE BACKED UP
000587:                                                                                                  #              -NZ PASS0, CANNOT BE BACKED UP
000588:
000589:
000590: 04,2425           10264        CLEAR              CCS      DSPCOUNT
000591: 04,2426           67652                           AD       ONE
000592: 04,2427           02431                           TC       +2
000593: 04,2430           67652                           AD       ONE
000594: 04,2431           54264                           TS       DSPCOUNT                              #  MAG OF DSPCOUNT
000595: 04,2432           02205                           TC       GETINREL                              #  MUST SET INREL, EVEN FOR HIPASS
000596: 04,2433           10302                           CCS      CLPASS
000597: 04,2434           02442                           TC       CLPASHI                               #  +
000598: 04,2435           02437                           TC       +2                                    #  +0    IF CLPASS IS +0 OR -, IT IS PASS0
000599: 04,2436           02437                           TC       +1                                    #  -
000600: 04,2437           30123                           CA       INREL
000601: 04,2440           02464                           TC       LEGALTST
000602: 04,2441           02457                           TC       CLEAR1
000603: 04,2442           10123        CLPASHI            CCS      INREL
000604: 04,2443           54123                           TS       INREL
000605: 04,2444           02464                           TC       LEGALTST
000606: 04,2445           32533                           CAF      DOUBLK     +2                         #  +3 TO - NUMBER. BACKS DATA REQUESTS.
000607: 04,2446           26300                           ADS      REQRET
000608: 04,2447           30123                           CA       INREL
000609: 04,2450           54111                           TS       MIXTEMP                               #  TEMP STORAGE FOR INREL
000610: 04,2451           00006                           EXTEND
000611: 04,2452           26266                           DIM      VERBREG                               #  DECREMENT VERB AND RE-DISPLAY
000612: 04,2453           04064                           TC       BANKCALL
000613: 04,2454           12315                           CADR     UPDATVB
000614: 04,2455           30111                           CA       MIXTEMP
000615: 04,2456           54123                           TS       INREL                                 #  RESTORE INREL
000616: 04,2457           02462        CLEAR1             TC       CLR5
000617: 04,2460           24302                           INCR     CLPASS                                #  ONLY IF CLPASS IS + OR +0,
000618: 04,2461           04353                           TC       ENDOFJOB                              #  SET FOR HIGHER PASS.
000619: 04,2462           22002        CLR5               LXCH     Q                                     #  USES 5BLANK BUT AVOIDS ITS TC GETINREL
000620: 04,2463           02474                           TC       5BLANK     +2
000621: 04,2464           67662        LEGALTST           AD       NEG2
000622: 04,2465           10000                           CCS      A
000623: 04,2466           00002                           TC       Q                                     #  LEGAL         INREL G/ 2
000624: 04,2467           05715                           TC       CCSHOLE
000625: 04,2470           04353                           TC       ENDOFJOB                              #  ILLEGAL       INREL= 0,1
000626: 04,2471           00002                           TC       Q                                     #  LEGAL        INREL = 2
000627:
000628:
000629:
000630:                                                                                                  #  5BLANK BLANKS 5 CHAR DISPLAY WORD IN R1, R2, OR R3. IT ALSO ZEROES XREG,
000631:                                                                                                  #  YREG, OR ZREG.PLACE ANY + DSPCOUNT NUMBER FOR PERTINENT RC INTO DSPCOUNT
000632:                                                                                                  #  DSPCOUNT IS LEFT SET TO LEFT MOST DSP NUMB FOR RC JUST BLANKED.
000633:
000634: 04,2472           22002        5BLANK             LXCH     Q
000635: 04,2473           02205                           TC       GETINREL
000636: 04,2474           37657                           CAF      ZERO
000637: 04,2475           50123                           INDEX    INREL
000638: 04,2476           54266                           TS       VERBREG                               #  ZERO X, Y, Z REG.
000639: 04,2477           50123                           INDEX    INREL
000640:
000641:
000642: 04,2500           54271                           TS       XREGLP     -2
000643: 04,2501           54110                           TS       CODE
000644: 04,2502           50123                           INDEX    INREL                                 #  ZERO PERTINENT DEC COMP BIT.
000645: 04,2503           47644                           CS       BIT7                                  #  PROTECT OTHERS
000646: 04,2504           70265                           MASK     DECBRNCH
000647: 04,2505           72534                           MASK     BRNCHCON                              #  ZERO LOW 2 BITS.
000648: 04,2506           54265                           TS       DECBRNCH
000649: 04,2507           50123                           INDEX    INREL
000650: 04,2510           32524                           CAF      SINBLANK   -2                         #  BLANK ISOLATED CHAR SEPARATELY
000651: 04,2511           54127                           TS       COUNT
000652: 04,2512           03175                           TC       DSPIN
000653: 04,2513           50123        5BLANK1            INDEX    INREL
000654: 04,2514           32527                           CAF      DOUBLK     -2
000655: 04,2515           54264                           TS       DSPCOUNT
000656: 04,2516           02535                           TC       2BLANK
000657: 04,2517           47651                           CS       TWO
000658: 04,2520           26264                           ADS      DSPCOUNT
000659: 04,2521           02535                           TC       2BLANK
000660: 04,2522           50123                           INDEX    INREL
000661: 04,2523           35424                           CAF      R1D1       -2
000662: 04,2524           54264                           TS       DSPCOUNT                              #  SET DSPCOUNT TO LEFT MOST DSP NUMBER
000663: 04,2525           00001                           TC       L                                     #  OF REG. JUST BLANKED
000664:
000665: 04,2526           00016        SINBLANK           OCT      16                                    #  DEC 14
000666: 04,2527           00005                           OCT      5
000667: 04,2530           00004                           OCT      4
000668: 04,2531           00015        DOUBLK             OCT      15                                    #  DEC 13
000669: 04,2532           00011                           OCT      11                                    #  DEC 9
000670: 04,2533           00003                           OCT      3
000671:
000672: 04,2534           77774        BRNCHCON           OCT      77774
000673:
000674:                                                                                                  #  2BLANK BLANKS TWO CHAR. PLACE DSP NUMBER OF LEFT CHAR  OF THE PAIR INTO
000675:                                                                                                  #  DSPCOUNT. THIS NUMBER IS LEFT IN DSPCOUNT
000676:
000677: 04,2535           30264        2BLANK             CA       DSPCOUNT
000678: 04,2536           54021                           TS       SR
000679: 04,2537           42550                           CS       BLANKCON
000680: 04,2540           00004                           INHINT
000681: 04,2541           50021                           INDEX    SR
000682: 04,2542           56307                           XCH      DSPTAB
000683: 04,2543           00006                           EXTEND
000684: 04,2544           62546                           BZMF     +2                                    #  IF OLD CONTENTS -, NOUT OK
000685: 04,2545           24303                           INCR     NOUT                                  #  IF OLD CONTENTS +, +1 TO NOUT
000686: 04,2546           00003                           RELINT                                         #  IF -, NOUT OK
000687: 04,2547           00002                           TC       Q
000688: 04,2550           04000        BLANKCON           OCT      4000
000689:
000690:
000691:                                                                                                  #  ENTER PASS 0 IS THE EXECUTE FUNCTION. HIGHER ORDER ENTERS ARE TO LOAD
000692:                                                                                                  #  DATA. THE SIGN OF REQRET DETERMINES THE PASS, + FOR PASS 0,- FOR HIGHER
000693:                                                                                                  #  PASSES.
000694:
000695:
000696:
000697:                                                                                                  #  MACHINE CADR TO BE SPECIFIED (MCTBS) NOUNS DESIRE AN ECADR TO BE LOADED
000698:                                                                                                  #  WHEN USED WITH LOAD VERBS, MONITOR VERBS, OR DISPLAY VERBS (EXCEPT
000699:                                                                                                  #  VERB = FIXED MEMORY DISPLAY, WHICH REQUIRES AN FCADR).
000700:
000701:
000702:
000703: 05,2000                                           SETLOC   22000
000704:
000705: 05,2000           03344        NVSUBB             TC       NVSUB1                                #  STANDARD LEAD INS. DONT MOVE.
000706: 05,2001           13403        DSPMM              TCF      DSPMM1
000707: 05,2002           02663        LOADLV1            TC       LOADLV
000708:                                                                                                  #  END OF STANDARD LEAD INS.
000709:
000710:
000711:
000712: 05,2003           37657        ENTER              CAF      ZERO
000713: 05,2004           54302                           TS       CLPASS
000714: 05,2005           34734                           CAF      ENDINST
000715: 05,2006           54122                           TS       ENTRET
000716: 05,2007           10300                           CCS      REQRET
000717: 05,2010           02031                           TC       ENTPAS0                               #  IF +, PASS 0
000718: 05,2011           02031                           TC       ENTPAS0                               #  IF +, PASS 0
000719: 05,2012           02013                           TC       +1                                    #  IF -, NOT PASS 0
000720: 05,2013           36165                           CAF      THREE                                 #  IF DEC, ALARM IF LESS THAN 5 CHAR IN,
000721: 05,2014           70265                           MASK     DECBRNCH                              #  BUT LEAVE REQRET - AND FLASH ON, SO
000722: 05,2015           10000                           CCS      A                                     #  OPERATOR CAN SUPPLY MISSING NUMERICAL
000723: 05,2016           02020                           TC       +2                                    #  CHARACTERS AND CONTINUE.
000724: 05,2017           02024                           TC       ACCEPTWD                              #  OCTAL. ANY NUMBER OF CHAR OK.
000725: 05,2020           10264                           CCS      DSPCOUNT
000726: 05,2021           02324                           TC       GODSPALM                              #  LESS THAN 5 CHAR DEC(DSPCOUNT IS +)
000727: 05,2022           02324                           TC       GODSPALM                              #  LESS THAN 5 CHAR DEC(DSPCOUNT IS +)
000728: 05,2023           02024                           TC       +1                                    #  5 CHAR IN (DSPCOUNT IS -)
000729: 05,2024           40300        ACCEPTWD           CS       REQRET                                #  5 CHAR IN (DSPCOUNT IS -)
000730: 05,2025           54300                           TS       REQRET                                #  SET REQRET +.
000731: 05,2026           05531                           TC       FLASHOFF
000732: 05,2027           00300                           TC       REQRET
000733:
000734: 05,2030     0122               ENTEXIT            =        ENTRET
000735:
000736: 05,2030           00030        LOWVERB            OCT      30                                    #  LOWER VERB THAT AVOIDS NOUN TEST
000737:
000738: 05,2031           37657        ENTPAS0            CAF      ZERO                                  #   NOUN VERB SUB ENTERS HERE
000739: 05,2032           54265                           TS       DECBRNCH
000740: 05,2033           40266        TESTVB             CS       VERBREG                               #  IF VERB IS 30-77, SKIP NOUN TEST
000741:
000742:
000743: 05,2034           62030                           AD       LOWVERB                               #  30-VB
000744: 05,2035           00006                           EXTEND
000745: 05,2036           62116                           BZMF     VERBFAN                               #  VERB G/ E 30
000746: 05,2037           00006        TESTNN             EXTEND                                         #  VERB L/ 30
000747: 05,2040           32076                           DCA      LODNNLOC                              #  SWITCH BANKS TO NOUN TABLE READING
000748: 05,2041           52006                           DXCH     Z                                     #  ROUTINE.
000749: 05,2042           50124                           INDEX    MIXBR
000750: 05,2043           02043                           TC       +0
000751: 05,2044           02046                           TC       +2                                    #  NORMAL
000752: 05,2045           02176                           TC       MIXNOUN                               #  MIXED
000753: 05,2046           10132                           CCS      NNADTEM                               #  NORMAL
000754: 05,2047           02114                           TC       VERBFAN    -2                         #        NORMAL  IF +
000755: 05,2050           02324                           TC       GODSPALM                              #  NOT IN USE     IF +0
000756: 05,2051           02055                           TC       REQADD                                #  SPECIFY MACHINE CADR IF -
000757: 05,2052           24304                           INCR     NOUNCADR                              #  AUGMENT MACHINE CADR IF -0
000758: 05,2053           05420                           TC       SETNADD                               #  ECADR FROM NOUNCADR. SETS EB, NOUNADD.
000759: 05,2054           02102                           TC       INTMCTBS   +2
000760: 05,2055           37634        REQADD             CAF      BIT15                                 #  SET CLPASS FOR PASS0 ONLY
000761: 05,2056           54302                           TS       CLPASS
000762: 05,2057           44734                           CS       ENDINST                               #  TEST IF REACHED HERE FROM INTERNAL OR
000763: 05,2060           60122                           AD       ENTEXIT                               #              FROM EXTERNAL
000764: 05,2061           00006                           EXTEND
000765: 05,2062           12064                           BZF      +2                                    #  EXTERNAL MACH CADR TO BE SPECIFIED
000766: 05,2063           02100                           TC       INTMCTBS
000767: 05,2064           02256                           TC       REQDATZ                               #  EXTERNAL MACH CADR TO BE SPECIFIED
000768: 05,2065           10265                           CCS      DECBRNCH
000769: 05,2066           02324                           TC       GODSPALM                              #  ALARM IF DECIMAL USED FOR MCTBS
000770: 05,2067           56272                           XCH      ZREG                                  #  OCTAL USED    OK
000771: 05,2070           05412                           TC       SETNCADR                              #  ECADR INTO NOUNCADR. SET EB, NOUNADD.
000772: 05,2071           00006                           EXTEND
000773: 05,2072           32076                           DCA      LODNNLOC                              #  SWITCH BANKS TO NOUN TABLE READING
000774: 05,2073           52006                           DXCH     Z                                     #  ROUTINE.
000775: 05,2074           02116                           TC       VERBFAN
000776:
000777: 05,2075     0264                                  EBANK=   DSPCOUNT
000778: 05,2075           04745 04000  LODNNLOC           2CADR    LODNNTAB
000779:
000780: 05,2077           77772        NEG5               OCT      77772
000781:
000782: 05,2100           30142        INTMCTBS           CA       MPAC       +2                         #  INTERNAL MACH CADR TO BE SPECIFIED.
000783: 05,2101           05412                           TC       SETNCADR                              #  ECADR INTO NOUNCADR. SET EB, NOUNADD.
000784: 05,2102           47647                           CS       BIT4                                  #  NVSUB CALL LEFT CADR IN MPAC+2 FOR MACH
000785: 05,2103           70266                           MASK     VERBREG                               #  CADR TO BE SPECIFIED.
000786: 05,2104           62077                           AD       NEG5                                  #  MASKING MAKES VB15 LOOK LIKE VB05.
000787: 05,2105           00006                           EXTEND
000788: 05,2106           12116                           BZF      VERBFAN                               #  VB = 05 OR 15, DO NOT DISPLAY CADR.
000789: 05,2107           35430                           CAF      R3D1                                  #  VB NOT = 05 OR 15, DISPLAY CADR.
000790: 05,2110           54264                           TS       DSPCOUNT
000791: 05,2111           30304                           CA       NOUNCADR
000792: 05,2112           03222                           TC       DSPOCTWD
000793:
000794:
000795: 05,2113           02116                           TC       VERBFAN
000796:
000797: 05,2114           67652                           AD       ONE
000798: 05,2115           05412                           TC       SETNCADR                              #  ECADR INTO NOUNCADR. SETS EB, NOUNADD.
000799: 05,2116           42131        VERBFAN            CS       LST2CON
000800: 05,2117           60266                           AD       VERBREG                               #  VERB-LST2CON
000801: 05,2120           10000                           CCS      A
000802: 05,2121           67652                           AD       ONE                                   #  VERB G/ LST2CON
000803: 05,2122           02124                           TC       +2
000804: 05,2123           02133                           TC       VBFANDIR                              #  VERB L/ LST2CON
000805: 05,2124           54140                           TS       MPAC
000806: 05,2125           05572                           TC       RELDSP                                #  RELEASE DISPLAY SYST
000807: 05,2126           56140                           XCH      MPAC                                  #  ALSO TURN OFF RELEASE DISPLAY SYST LIGHT
000808: 05,2127           62132                           AD       LST2CADR
000809: 05,2130           04106                           TC       BANKJUMP
000810: 05,2131           00040        LST2CON            OCT      40                                    #  FIRST LST2 VERB
000811: 05,2132           22000        LST2CADR           CADR     LST2FAN
000812:
000813: 05,2133           50266        VBFANDIR           INDEX    VERBREG
000814: 05,2134           32136                           CAF      VERBTAB
000815: 05,2135           04106                           TC       BANKJUMP
000816:
000817: 05,2136           12324        VERBTAB            CADR     GODSPALM                              #  VB00 ILLEGAL
000818: 05,2137           12340                           CADR     DSPA                                  #  VB01 DISPLAY OCT COMP 1 (R1)
000819: 05,2140           12345                           CADR     DSPB                                  #  VB02 DISPLAY OCT COMP 2 (R1)
000820: 05,2141           12352                           CADR     DSPC                                  #  VB03 DISPLAY OCT COMP 3 (R1)
000821: 05,2142           12333                           CADR     DSPAB                                 #  VB04 DISPLAY OCT COMP 1,2 (R1,R2)
000822: 05,2143           12326                           CADR     DSPABC                                #  VB05 DISPLAY OCT COMP 1,2,3 (R1,R2,R3)
000823: 05,2144           12445                           CADR     DECDSP                                #  VB06 DECIMAL DISPLAY
000824: 05,2145           10700                           CADR     DSPDPDEC                              #  VB07 DP DECIMAL DISPLAY (R1,R2)
000825: 05,2146           11273                           CADR     DSPALARM                              #  VB10 SPARE
000826: 05,2147           13077                           CADR     MONITOR                               #  VB11 MONITOR OCT COMP 1 (R1)
000827: 05,2150           13077                           CADR     MONITOR                               #  VB12 MONITOR OCT COMP 2 (R1)
000828: 05,2151           13077                           CADR     MONITOR                               #  VB13 MONITOR OCT COMP 3 (R1)
000829: 05,2152           13077                           CADR     MONITOR                               #  VB14 MONITOR OCT COMP 1,2 (R1,R2)
000830: 05,2153           13077                           CADR     MONITOR                               #  VB15 MONITOR OCT COMP 1,2,3 (R1,R2,R3)
000831: 05,2154           13077                           CADR     MONITOR                               #  VB16 MONITOR DECIMAL
000832: 05,2155           13077                           CADR     MONITOR                               #  VB17 MONITOR DP DEC (R1,R2)
000833: 05,2156           12324                           CADR     GODSPALM                              #  VB20 SPARE
000834: 05,2157           12620                           CADR     ALOAD                                 #  VB21 LOAD COMP 1 (R1)
000835: 05,2160           12631                           CADR     BLOAD                                 #  VB22 LOAD COMP 2 (R2)
000836: 05,2161           12646                           CADR     CLOAD                                 #  VB23 LOAD COMP 3 (R3)
000837: 05,2162           12572                           CADR     ABLOAD                                #  VB24 LOAD COMP 1,2 (R1,R2)
000838: 05,2163           12535                           CADR     ABCLOAD                               #  VB25 LOAD COMP 1,2,3 (R1,R2,R3)
000839: 05,2164           12324                           CADR     GODSPALM                              #  VB26 SPARE
000840: 05,2165           13214                           CADR     DSPFMEM                               #  VB27 FIXED MEMORY DISPLAY
000841:                                                                                                  #  THE FOLLOWING VERBS MAKE NO NOUN TEST
000842: 05,2166           13314        REQEXLOC           CADR     VBRQEXEC                              #  VB30 REQUEST EXECUTIVE
000843: 05,2167           13340                           CADR     VBRQWAIT                              #  VB31 REQUEST WAITLIST
000844: 05,2170           11321                           CADR     BUMP                                  #  VB32 C(R2) INTO R3, C(R1) INTO R2
000845:
000846:
000847: 05,2171           11304                           CADR     VBPROC                                #  VB33 PROCEED WITHOUT DATA
000848: 05,2172           11311                           CADR     VBTERM                                #  VB34 TERMINATE CURRENT TEST OR LOAD REQ
000849: 05,2173           13414                           CADR     VBTSTLTS                              #  VB35 TEST LIGHTS
000850: 05,2174           24000                           CADR     SLAP1                                 #  VB36 FRESH START
000851: 05,2175           13267        ENDVBFAN           CADR     MMCHANG                               #  VB37 CHANGE MAJOR MODE
000852:
000853:
000854:
000855:                                                                                                  #  THE LIST2 VERBFAN IS LOCATED IN THE EXTENDED VERB BANK.
000856:
000857:
000858:
000859:                                                                                                  #  NNADTAB CONTAINS A RELATIVE ADDRESS, IDADDREL(IN LOW 10 BITS), REFERRING
000860:                                                                                                  #  TO WHERE 3 CONSECUTIVE ADDRESSES ARE STORED (IN IDADDTAB).
000861:                                                                                                  #  MIXNOUN GETS DATA AND STORES IN MIXTEMP,+1,+2. IT SETS NOUNADD FOR
000862:                                                                                                  #   MIXTEMP.
000863:
000864: 05,2176           10132        MIXNOUN            CCS      NNADTEM
000865: 05,2177           02203                           TC       +4                                    #  + IN USE
000866: 05,2200           02324                           TC       GODSPALM                              #  +0 NOT IN USE
000867: 05,2201           02203                           TC       +2                                    #  - IN USE
000868: 05,2202           02203                           TC       +1                                    #  -0 IN USE
000869: 05,2203           46162                           CS       SIX
000870: 05,2204           60266                           AD       VERBREG
000871: 05,2205           00006                           EXTEND
000872: 05,2206           62210                           BZMF     +2                                    #  VERB L/E 6
000873: 05,2207           02116                           TC       VERBFAN                               #  AVOID MIXNOUN SWAP IF VB NOT = DISPLAY
000874: 05,2210           37651                           CAF      TWO
000875: 05,2211           54103        MIXNN1             TS       DECOUNT
000876: 05,2212           62235                           AD       MIXAD
000877: 05,2213           54131                           TS       NOUNADD                               #  SET NOUNADD TO MIXTEMP + K
000878: 05,2214           50103                           INDEX    DECOUNT                               #  GET IDADDTAB ENTRY FOR COMPONENT K
000879: 05,2215           30134                           CA       IDAD1TEM                              #  OF NOUN.
000880: 05,2216           54106                           TS       NOUNTEM
000881:                                                                                                  #  TEST FOR DP (FOR OCT DISPLAY). IF SO, GET
000882:                                                                                                  #    MINOR PART ONLY.
000883: 05,2217           02721                           TC       SFRUTMIX                              #  GET SF ROUT NUMBER IN A
000884: 05,2220           02236                           TC       DPTEST
000885: 05,2221           02223                           TC       MIXNN2                                #  NO DP
000886: 05,2222           24106                           INCR     NOUNTEM                               #  DP GET MINOR PART
000887: 05,2223           30106        MIXNN2             CA       NOUNTEM
000888: 05,2224           75465                           MASK     LOW11                                 #  ESUBK (NO DP) OR (ESUBK)+1     FOR DP
000889: 05,2225           05422                           TC       SETEBANK                              #  SET EBANK, LEAVE EADRES IN A.
000890: 05,2226           50000                           INDEX    A                                     #  PICK UP C(ESUBK)  NOT DP
000891: 05,2227           30000                           CA       0                                     #  OR C((ESUBK)+1)  FOR DP MINOR PART
000892: 05,2230           50131                           INDEX    NOUNADD
000893: 05,2231           56000                           XCH      0                                     #  STORE IN MIXTEM + K
000894: 05,2232           10103                           CCS      DECOUNT
000895: 05,2233           02211                           TC       MIXNN1
000896: 05,2234           02116                           TC       VERBFAN
000897:
000898: 05,2235           00111        MIXAD              TC       MIXTEMP
000899:
000900:
000901:
000902:                                                                                                  #  DPTEST   ENTER WITH SF ROUT NUMBER IN A.
000903:                                                                                                  #           RETURNS TO L+1 IF NO DP.
000904:                                                                                                  #           RETURNS TO L+2 IF DP.
000905:
000906: 05,2236           50000        DPTEST             INDEX    A
000907: 05,2237           12240                           TCF      +1
000908: 05,2240           00002                           TC       Q                                     #  OCTAL ONLY NO DP
000909:
000910:
000911: 05,2241           00002                           TC       Q                                     #  FRACT NO DP
000912: 05,2242           00002                           TC       Q                                     #  DEG  NO DP
000913: 05,2243           00002                           TC       Q                                     #  ARITH  NO DP
000914: 05,2244           12250                           TCF      DPTEST1                               #  DP1OUT
000915: 05,2245           12250                           TCF      DPTEST1                               #  DP2OUT
000916: 05,2246           00002                           TC       Q                                     #  OPDEG  NO DP
000917: 05,2247           12250                           TCF      DPTEST1                               #  DP3OUT
000918: 05,2250           50002        DPTEST1            INDEX    Q
000919: 05,2251           00001                           TC       1                                     #  RETURN TO L+2
000920:
000921:
000922:
000923: 05,2252           35426        REQDATX            CAF      R1D1
000924: 05,2253           12257                           TCF      REQCOM
000925: 05,2254           35427        REQDATY            CAF      R2D1
000926: 05,2255           12257                           TCF      REQCOM
000927: 05,2256           35430        REQDATZ            CAF      R3D1
000928: 05,2257           54264        REQCOM             TS       DSPCOUNT
000929: 05,2260           40002                           CS       Q
000930: 05,2261           54300                           TS       REQRET
000931: 05,2262           04064                           TC       BANKCALL
000932: 05,2263           10472                           CADR     5BLANK
000933: 05,2264           05525                           TC       FLASHON
000934: 05,2265           44734                           CS       ENDINST
000935: 05,2266           60122                           AD       ENTEXIT
000936: 05,2267           00006                           EXTEND
000937: 05,2270           12273                           BZF      ENDRQDAT                              #  ENTEXIT = ENDOFJOB. EXTERNALLY INITIATED
000938: 05,2271           47657                           CS       ZERO                                  #  ENTEXIT NOT ENDOFJOB. NVSUB INITIATED
000939: 05,2272           54323                           TS       CADRSTOR                              #  NVSUB INITIATED LOAD. SET CADRSTOR TO -0
000940: 05,2273           00122        ENDRQDAT           TC       ENTEXIT
000941:
000942:                                                                                                  #  IF NVSUB INITIATED LOAD, SET CADRSTOR TO -0 TO TELL RECALTST TO RELEASE
000943:                                                                                                  #  DISPLAY IF ENDIDLE WAS NOT USED. (NECESSARY FOR DATAWAIT)
000944:
000945:
000946: 05,2274           54267                           TS       NOUNREG
000947: 05,2275           56002        UPDATNN            XCH      Q
000948: 05,2276           54103                           TS       UPDATRET
000949: 05,2277           00006                           EXTEND
000950: 05,2300           32076                           DCA      LODNNLOC                              #  SWITCH BANKS TO NOUN TABLE READING
000951: 05,2301           52006                           DXCH     Z                                     #  ROUTINE.
000952: 05,2302           10132                           CCS      NNADTEM
000953: 05,2303           67652                           AD       ONE                                   #  NORMAL
000954: 05,2304           12307                           TCF      PUTADD
000955: 05,2305           12310                           TCF      PUTADD     +1                         #  MCTBS  DONT CHANGE NOUNADD
000956: 05,2306           12310                           TCF      PUTADD     +1                         #  MCTBI  DONT CHANGE NOUNADD
000957: 05,2307           05412        PUTADD             TC       SETNCADR                              #  ECADR INTO NOUNCADR. SETS EB, NOUNADD.
000958: 05,2310           35471                           CAF      ND1
000959: 05,2311           54264                           TS       DSPCOUNT
000960:
000961:
000962: 05,2312           30267                           CA       NOUNREG
000963: 05,2313           12322                           TCF      UPDAT1
000964:
000965: 05,2314           54266                           TS       VERBREG
000966: 05,2315           56002        UPDATVB            XCH      Q
000967: 05,2316           54103                           TS       UPDATRET
000968: 05,2317           35470                           CAF      VD1
000969: 05,2320           54264                           TS       DSPCOUNT
000970: 05,2321           30266                           CA       VERBREG
000971: 05,2322           03255        UPDAT1             TC       DSP2BIT
000972: 05,2323           00103                           TC       UPDATRET
000973:
000974:
000975:
000976: 05,2324           04103        GODSPALM           TC       POSTJUMP
000977: 05,2325           11273                           CADR     DSPALARM
000978:
000979:
000980:                                                                                                  #           NOUN TABLES
000981:                                                                                                  #  NOUN CODE L/55, NORMAL CASE.  NOUN CODE G/E 55, MIXED NOUN CASE.
000982:                                                                                                  #  FOR NORMAL CASE, NNADTAB CONTAINS ONE       ECADR    FOR EACH NOUN.
000983:                                                                                                  #  +0 INDICATES NOUN NOT USED.   - ENTRY INDICATES MACHINE CADR(E OR F) TO
000984:                                                                                                  #  BE SPECIFIED. -1 INDICATES CHANNEL TO BE SPECIFIED. -0 INDICATES AUGMENT
000985:                                                                                                  #  OF LAST MACHINE CADR SUPPLIED.
000986:
000987:                                                                                                  #  FOR MIXED CASE, NNADTAB CONTAINS ONE INDIRECT ADDRESS(IDADDREL) IN LOW
000988:                                                                                                  #  10 BITS, AND THE COMPONENT CODE NUMBER IN THE HIGH 5 BITS.
000989:
000990:                                                                                                  #  NNTYPTAB IS A PACKED TABLE OF THE FORM MMMMMNNNNNPPPPP.
000991:
000992:                                                                                                  #  FOR THE NORMAL CASE, M-S ARE THE COMPONENT CODE NUMBER.
000993:                                                                                                  #                       N-S ARE THE SF ROUTINE CODE NUMBER.
000994:                                                                                                  #                       P-S ARE THE SF CONSTANT CODE NUMBER.
000995:
000996:                                                                                                  #  MIXED CASE,M-S ARE THE SF CONSTANT3 CODE NUMBER     3 COMPONENT CASE
000997:                                                                                                  #             N-S ARE THE SF CONSTANT2 CODE NUMBER
000998:                                                                                                  #             P-S ARE THE SF CONSTANT1 CODE NUMBER
000999:                                                                                                  #             N-S ARE THE SF CONSTANT2 CODE NUMBER     2 COMPONENT CASE
001000:                                                                                                  #             P-S ARE THE SF CONSTANT1 CODE NUMBER
001001:                                                                                                  #             P-S ARE THE SF CONSTANT1 CODE NUMBER      1 COMPONENT CASE
001002:
001003:                                                                                                  #  THERE IS ALSO AN INDIRECT ADDRESS TABLE(IDADDTAB) FOR MIXED CASE ONLY.
001004:                                                                                                  #  EACH ENTRY CONTAINS ONE ECADR.    IDADDREL IS THE RELATIVE ADDRESS OF
001005:                                                                                                  #  THE FIRST OF THESE ENTRIES.
001006:                                                                                                  #  THERE IS ONE ENTRY IN THIS TABLE FOR EACH COMPONENT OF A MIXED NOUN
001007:                                                                                                  #  THEY ARE LISTED IN ORDER OF ASCENDING K.
001008:
001009:                                                                                                  #  THERE IS ALSO A SCALE FACTOR ROUTINE NUMBER TABLE( RUTMXTAB ) FOR MIXED
001010:                                                                                                  #  CASE ONLY. THERE IS ONE ENTRY PER MIXED NOUN. THE FORM IS,
001011:                                                                                                  #        QQQQQRRRRRSSSSS
001012:                                                                                                  #  Q-S ARE THE SF ROUTINE 3 CODE NUMBER     3 COMPONENT CASE
001013:                                                                                                  #  R-S ARE THE SF ROUTINE 2 CODE NUMBER
001014:                                                                                                  #  S-S ARE THE SF ROUTINE 1 CODE NUMBER
001015:                                                                                                  #  R-S ARE THE SF ROUTINE 2 CODE NUMBER     2 COMPONENT CASE
001016:                                                                                                  #  S-S ARE THE SF ROUTINE 1 CODE NUMBER
001017:
001018:                                                                                                  #  IN OCTAL DISPLAY AND LOAD (OCT OR DEC) VERBS, EXCLUDE USE OF VERBS WHOSE
001019:                                                                                                  #  COMPONENT NUMBER IS GREATER THAN THE NUMBER OF COMPONENTS IN NOUN.
001020:                                                                                                  #  ALL MACHINE ADDRESS TO BE SPECIFIED NOUNS ARE 1 COMPONENT.
001021:                                                                                                  #  ONLY EXCEPTION IS NOUN 01 TO ALLOW OCTAL DISPLAYS AND LOADS OF
001022:                                                                                                  #  AN UNCONTOLLED NUMBER OF COMPONENTS.
001023:
001024:
001025:
001026:                                                                                                  #  IN MULTI-COMPONENT LOAD VERBS, NO MIXING OF OCTAL AND DECIMAL DATA
001027:                                                                                                  #  COMPONENT WORDS IS ALLOWED. ALARM IF VIOLATION.
001028:
001029:
001030:                                                                                                  #  IN DECIMAL LOADS OF DATA, 5 NUMERICAL CHARACTERS MUST BE KEYED IN
001031:                                                                                                  #  BEFORE EACH ENTER. IF NOT, ALARM.
001032:
001033:
001034:                                                                                                  #           DISPLAY VERBS
001035: 05,2326           47651        DSPABC             CS       TWO
001036: 05,2327           02376                           TC       COMPTEST
001037: 05,2330           50131                           INDEX    NOUNADD
001038: 05,2331           40002                           CS       2
001039: 05,2332           56116                           XCH      BUF        +2
001040: 05,2333           47652        DSPAB              CS       ONE
001041: 05,2334           02376                           TC       COMPTEST
001042: 05,2335           50131                           INDEX    NOUNADD
001043: 05,2336           40001                           CS       1
001044: 05,2337           56115                           XCH      BUF        +1
001045: 05,2340           02420        DSPA               TC       TSTFORDP
001046: 05,2341           50131                           INDEX    NOUNADD
001047: 05,2342           40000                           CS       0
001048: 05,2343           56114        DSPCOM1            XCH      BUF
001049: 05,2344           02357                           TC       DSPCOM2
001050: 05,2345           47652        DSPB               CS       ONE
001051: 05,2346           02376                           TC       COMPTEST
001052: 05,2347           50131                           INDEX    NOUNADD
001053: 05,2350           40001                           CS       1
001054: 05,2351           02343                           TC       DSPCOM1
001055: 05,2352           47651        DSPC               CS       TWO
001056: 05,2353           02376                           TC       COMPTEST
001057: 05,2354           50131                           INDEX    NOUNADD
001058: 05,2355           40002                           CS       2
001059: 05,2356           02343                           TC       DSPCOM1
001060: 05,2357           47651        DSPCOM2            CS       TWO                                   #  A  B  C  AB ABC
001061: 05,2360           60266                           AD       VERBREG                               #  -1 -0 +1 +2 +3   IN A
001062: 05,2361           10000                           CCS      A                                     #  +0 +0 +0 +1 +2    IN A AFTER CCS
001063: 05,2362           02365                           TC       DSPCOM3
001064: 05,2363           00122                           TC       ENTEXIT
001065: 05,2364           02365                           TC       +1
001066: 05,2365           54106        DSPCOM3            TS       DISTEM                                #  +0,+1,+2 INTO DISTEM
001067: 05,2366           50000                           INDEX    A
001068: 05,2367           35426                           CAF      R1D1
001069: 05,2370           54264                           TS       DSPCOUNT
001070: 05,2371           50106                           INDEX    DISTEM
001071: 05,2372           40114                           CS       BUF
001072: 05,2373           03222                           TC       DSPOCTWD
001073: 05,2374           56106                           XCH      DISTEM
001074: 05,2375           02361                           TC       DSPCOM2    +2
001075:
001076:                                                                                                  #  COMPTEST ALARMS IF COMPONENT NUMBER OF VERB(LOAD OR OCT DISPLAY) IS
001077:                                                                                                  #  GREATER THAN THE HIGHEST COMPONENT NUMBER OF NOUN.
001078:                                                                                                  #  NOUN 01 IS EXCLUDED FROM TEST.
001079: 05,2376           54107        COMPTEST           TS       SFTEMP1                               #  - VERB COMP
001080: 05,2377           22002                           LXCH     Q
001081: 05,2400           47652        COMPTST1           CS       ONE
001082: 05,2401           60267                           AD       NOUNREG
001083: 05,2402           00006                           EXTEND
001084:
001085:
001086: 05,2403           12417                           BZF      NDCMPTST                              #  NOUN = 01, ANY COMP OK
001087: 05,2404           50124                           INDEX    MIXBR                                 #  NOUN NOT = 01.
001088: 05,2405           32442                           CAF      COMPICK    -1
001089: 05,2406           50000                           INDEX    A
001090: 05,2407           30000                           CA       0
001091: 05,2410           75457                           MASK     HI5
001092: 05,2411           05440                           TC       LEFT5                                 #  NOUN COMP
001093: 05,2412           60107                           AD       SFTEMP1                               #  NOUN COMP - VERB COMP
001094: 05,2413           10000                           CCS      A
001095: 05,2414           00001                           TC       L                                     #  NOUN COMP G/ VERB COMP
001096: 05,2415           05715                           TC       CCSHOLE
001097: 05,2416           02324                           TC       GODSPALM                              #  NOUN COMP L/ VERB COMP
001098: 05,2417           00001        NDCMPTST           TC       L                                     #  NOUN COMP = VERB COMP
001099:
001100:
001101:
001102: 05,2420           22002        TSTFORDP           LXCH     Q                                     #  TEST FOR DP. IF SO, GET MINOR PART ONLY.
001103: 05,2421           30132                           CA       NNADTEM
001104: 05,2422           67652                           AD       ONE                                   #  IF NNADTEM = -1, CHANNEL TO BE SPECIFIED
001105: 05,2423           00006                           EXTEND
001106: 05,2424           12436                           BZF      CHANDSP
001107: 05,2425           50124                           INDEX    MIXBR
001108: 05,2426           02426                           TC       +0
001109: 05,2427           02431                           TC       +2                                    #  NORMAL
001110: 05,2430           00001                           TC       L                                     #  MIXED CASE ALREADY HANDLED IN MIXNOUN
001111: 05,2431           02713                           TC       SFRUTNOR
001112: 05,2432           02236                           TC       DPTEST
001113: 05,2433           00001                           TC       L                                     #  NO DP
001114: 05,2434           24131                           INCR     NOUNADD                               #  DP    E+1 INTO NOUNADD FOR MINOR PART.
001115: 05,2435           00001                           TC       L
001116:
001117:
001118:
001119: 05,2436           00006        CHANDSP            EXTEND
001120: 05,2437           50304                           INDEX    NOUNCADR
001121: 05,2440           00000                           READ     0
001122: 05,2441           40000                           CS       A
001123: 05,2442           12343                           TCF      DSPCOM1
001124:
001125:
001126:
001127: 05,2443           00133        COMPICK            ADRES    NNTYPTEM
001128: 05,2444           00132                           ADRES    NNADTEM
001129:
001130: 05,2445           50124        DECDSP             INDEX    MIXBR                                 #  NORMAL                MIXED
001131: 05,2446           32442                           CAF      COMPICK    -1                         #  ADRES NNTYPTEM        ADRES NNADTEM
001132: 05,2447           50000                           INDEX    A
001133: 05,2450           30000                           CA       0                                     #  C(NNTYPTEM)           C(NNADTEM)
001134: 05,2451           75457                           MASK     HI5                                   #  GET HI5 OF NNTYPTAB(NORM)OF NNADTAB(MIX)
001135: 05,2452           05440                           TC       LEFT5
001136:
001137:
001138: 05,2453           54103                           TS       DECOUNT                               #  COMP NUMBER INTO DECOUNT
001139: 05,2454           54106        DSPDCGET           TS       DECTEM                                #  PICKS UP DATA
001140: 05,2455           60131                           AD       NOUNADD                               #  DECTEM 1COMP +0, 2COMP +1, 3COMP +2
001141: 05,2456           50000                           INDEX    A
001142: 05,2457           40000                           CS       0
001143: 05,2460           50106                           INDEX    DECTEM
001144: 05,2461           56270                           XCH      XREG                                  #  CANT USE BUF SINCE DMP USES IT.
001145: 05,2462           10106                           CCS      DECTEM
001146: 05,2463           02454                           TC       DSPDCGET                              #  MORE TO GET
001147: 05,2464           37657        DSPDCPUT           CAF      ZERO                                  #  DISPLAYS DATA
001148: 05,2465           54141                           TS       MPAC       +1                         #  DECOUNT 1COMP +0, 2COMP +1, 3COMP +2
001149: 05,2466           54142                           TS       MPAC       +2
001150: 05,2467           50103                           INDEX    DECOUNT
001151: 05,2470           35426                           CAF      R1D1
001152: 05,2471           54264                           TS       DSPCOUNT
001153: 05,2472           50103                           INDEX    DECOUNT
001154: 05,2473           40270                           CS       XREG
001155: 05,2474           54140                           TS       MPAC
001156: 05,2475           02734                           TC       SFCONUM                               #  2X ( SF CON NUMB ) IN A
001157: 05,2476           54107                           TS       SFTEMP1
001158: 05,2477           00006                           EXTEND                                         #  SWITCH BANKS TO SF CONSTANT TABLE
001159: 05,2500           32512                           DCA      GTSFOUTL                              #     READING ROUTINE.
001160: 05,2501           52006                           DXCH     Z                                     #  LOADS SFTEMP1, SFTEMP2.
001161: 05,2502           50124                           INDEX    MIXBR
001162: 05,2503           02503                           TC       +0
001163: 05,2504           02507                           TC       DSPSFNOR
001164: 05,2505           02721                           TC       SFRUTMIX
001165: 05,2506           02522                           TC       DECDSP3
001166:
001167: 05,2507           02713        DSPSFNOR           TC       SFRUTNOR
001168: 05,2510           02522                           TC       DECDSP3
001169:
001170: 05,2511     0264                                  EBANK=   DSPCOUNT
001171: 05,2511           05004 04000  GTSFOUTL           2CADR    GTSFOUT
001172:
001173: 05,2513           04064        DSPDCEND           TC       BANKCALL                              #  ALL SFOUT ROUTINES END HERE
001174: 05,2514           11075                           CADR     DSPDECWD
001175: 05,2515           10103                           CCS      DECOUNT
001176: 05,2516           02520                           TC       +2
001177: 05,2517           00122                           TC       ENTEXIT
001178: 05,2520           54103                           TS       DECOUNT
001179: 05,2521           02464                           TC       DSPDCPUT                              #  MORE TO DISPLAY
001180:
001181: 05,2522           50000        DECDSP3            INDEX    A
001182: 05,2523           32525                           CAF      SFOUTABR
001183: 05,2524           04106                           TC       BANKJUMP
001184:
001185:
001186: 05,2525           11273        SFOUTABR           CADR     DSPALARM                              #  ALARM IF DEC DISP WITH OCTAL ONLY NOUN
001187: 05,2526           12513                           CADR     DSPDCEND
001188: 05,2527           10551                           CADR     DEGOUTSF
001189: 05,2530           10636                           CADR     ARTOUTSF
001190: 05,2531           10643                           CADR     DP1OUTSF
001191: 05,2532           10650                           CADR     DP2OUTSF
001192: 05,2533           10557                           CADR     OPDEGOUT
001193: 05,2534           10652                           CADR     DP3OUTSF
001194: 05,2535                        ENDRTOUT           EQUALS
001195:
001196:
001197:
001198:                                                                                                  #          THE FOLLOWING IS ATYPICAL SF ROUTINE. IT USES MPAC. LEAVES RESU
001199:                                                                                                  #  LTS IN MPAC, MPAC+1. ENDS WITH TC DSPDCEND
001200:
001201:
001202:
001203: 04,2551                                           SETLOC   BLANKCON   +1
001204:
001205:                                                                                                  #     DEGOUTSF SCALES BY .18 THE LOW 14 BITS OF ANGLE, ADDING .18 FOR
001206:                                                                                                  #  NUMBERS IN THE NEGATIVE (AGC) RANGE.
001207:
001208: 04,2551           37657        DEGOUTSF           CAF      ZERO
001209: 04,2552           54142                           TS       MPAC       +2                         #  SET INDEX FOR FULL SCALE
001210: 04,2553           02610                           TC       FIXRANGE
001211: 04,2554           02556                           TC       +2                                    #  NO AUGMENT NEEDED (SFTEMP1 AND 2 ARE 0)
001212: 04,2555           02603                           TC       SETAUG                                #  SET AUGMENTER ACCORDING TO C(MPAC +2)
001213: 04,2556           02621                           TC       DEGCOM
001214:
001215:                                                                                                  #  OPDEGOUT SCALES BY .45 (THE RANGE IS 90 DEGREES) AND ADDS A 20 DEG BIAS.
001216:
001217: 04,2557           10140        OPDEGOUT           CCS      MPAC                                  #  RANGE IS 90 DEG
001218: 04,2560           56140                           XCH      MPAC                                  #  IF POS OR POS 0 THEN ADD BIAS AND
001219: 04,2561           02564                           TC       +3                                    #  CORRECT FOR POSSIBLE OVERFLOW
001220: 04,2562           02573                           TC       NEGOPT                                #  IF NEG NON ZERO
001221: 04,2563           67661                           AD       NEG1                                  #  IF NEG ZERO SUBTRACT 1
001222: 04,2564           62635                           AD       20BIAS
001223: 04,2565           54140        BIASCOM            TS       MPAC                                  #  TEST FOR OVERFLOW
001224: 04,2566           02571                           TC       +3                                    #  NO OVFLOW
001225: 04,2567           37634                           CAF      BIT15                                 #  IF OVFLOW
001226: 04,2570           26140                           ADS      MPAC
001227: 04,2571           37651                           CAF      TWO                                   #  SET MULTIPLIER TO .45
001228: 04,2572           02552                           TC       DEGOUTSF   +1
001229:
001230: 04,2573           56140        NEGOPT             XCH      MPAC                                  #  NEGATIVE CASE
001231: 04,2574           62635                           AD       20BIAS
001232: 04,2575           10000                           CCS      A
001233: 04,2576           02565                           TC       BIASCOM                               #  IF POS THEN SUBTRACT 1 BECAUSE OF 2SCOM
001234: 04,2577           05715                           TC       CCSHOLE
001235: 04,2600           67652                           AD       ONE                                   #  IF NEG RESTORE SUM
001236:
001237:
001238: 04,2601           40000                           COM                                            #  IF NEG 0 LEAVE NEG 0
001239: 04,2602           02565                           TC       BIASCOM
001240:
001241: 04,2603           00006        SETAUG             EXTEND                                         #  LOADS SFTEMP1 AND SFTEMP2 WITH THE
001242: 04,2604           50142                           INDEX    MPAC       +2                         #  DP AUGMENTER CONSTANT
001243: 04,2605           32632                           DCA      DEGTAB
001244: 04,2606           52110                           DXCH     SFTEMP1
001245: 04,2607           00002                           TC       Q
001246:
001247: 04,2610           10140        FIXRANGE           CCS      MPAC                                  #  IF MPAC IS + RETURN TO L+1
001248: 04,2611           00002                           TC       Q                                     #  IF MPAC IS - RETURN TO L+2 AFTER
001249: 04,2612           00002                           TC       Q                                     #  MASKING OUT THE SIGN BIT
001250: 04,2613           12614                           TCF      +1
001251: 04,2614           47634                           CS       BIT15
001252: 04,2615           70140                           MASK     MPAC
001253: 04,2616           54140                           TS       MPAC
001254: 04,2617           50002                           INDEX    Q
001255: 04,2620           00001                           TC       1
001256:
001257: 04,2621           00006        DEGCOM             EXTEND                                         #  LOADS MULTIPLIER, DOES SHORTMP, AND
001258: 04,2622           50142                           INDEX    MPAC       +2                         #  ADDS AUGMENTER.
001259: 04,2623           32632                           DCA      DEGTAB
001260: 04,2624           52141                           DXCH     MPAC                                  #  ADJUSTED ANGLE IN A
001261: 04,2625           07261                           TC       SHORTMP
001262: 04,2626           52110                           DXCH     SFTEMP1
001263: 04,2627           20141                           DAS      MPAC
001264: 04,2630           02641                           TC       SCOUTEND
001265:
001266: 04,2631           05605        DEGTAB             OCT      05605                                 #  HI PART OF    .18
001267: 04,2632           03656                           OCT      03656                                 #  LOW PART OF   .18
001268: 04,2633           16314                           OCT      16314                                 #  HI PART OF    .45
001269: 04,2634           31463                           OCT      31463                                 #  LO PART OF    .45
001270:
001271: 04,2635           16040        20BIAS             OCT      16040                                 #  20 DEG BIAS FOR OPTICS
001272:
001273: 04,2636           52110        ARTOUTSF           DXCH     SFTEMP1                               #  ASSUMES POINT AT LEFT OF DP SFCON
001274: 04,2637           52141                           DXCH     MPAC
001275: 04,2640           07261                           TC       SHORTMP
001276: 04,2641           04103        SCOUTEND           TC       POSTJUMP
001277: 04,2642           12513                           CADR     DSPDCEND
001278:
001279: 04,2643           02655        DP1OUTSF           TC       DPOUT                                 #  SCALES MPAC, MPAC +1 BY DP SCALE FACTOR
001280: 04,2644           56142                           XCH      MPAC       +2                         #  IN SFTEMP1, SFTEMP2.  THEN SCALE RESULT
001281: 04,2645           56141                           XCH      MPAC       +1                         #  BY B14.
001282: 04,2646           54140                           TS       MPAC
001283: 04,2647           02641                           TC       SCOUTEND
001284:
001285:
001286: 04,2650           02655        DP2OUTSF           TC       DPOUT                                 #  SCALES MPAC, MPAC +1 BY DP SCALE FACTOR
001287: 04,2651           02641                           TC       SCOUTEND
001288:
001289:
001290:
001291: 04,2652           02655        DP3OUTSF           TC       DPOUT                                 #  ASSUMES POINT BETWEEN BITS 7-8 OF HIGH
001292: 04,2653           03050                           TC       TPLEFT7                               #  PART OF SFCON. SHIFTS RESULTS LEFT 7.
001293: 04,2654           02641                           TC       SCOUTEND
001294:
001295:
001296:
001297:                                                                                                  #  DPOUT PICKS UP FRESH DATA FOR BOTH HI AND LO COMPONENTS.
001298:                                                                                                  #  THIS IS NEEDED FOR TIME DISPLAY.
001299:
001300: 04,2655           56002        DPOUT              XCH      Q
001301: 04,2656           54105                           TS       OVFIND
001302: 04,2657           50124                           INDEX    MIXBR
001303: 04,2660           02660                           TC       +0
001304: 04,2661           02676                           TC       DPOUTNOR
001305: 04,2662           50103                           INDEX    DECOUNT                               #  GET IDADDTAB ENTRY FOR COMPONENT K
001306: 04,2663           30134                           CA       IDAD1TEM                              #      OF NOUN.
001307: 04,2664           75465                           MASK     LOW11                                 #  E SUBK
001308: 04,2665           05422                           TC       SETEBANK                              #  SET EB, LEAVE EADRES IN A.
001309: 04,2666           00006        DPOUTCOM           EXTEND
001310: 04,2667           50000                           INDEX    A                                     #  MIXED         NORMAL
001311: 04,2670           30001                           DCA      0                                     #  C(ESUBK)      C(E)
001312: 04,2671           52141                           DXCH     MPAC                                  #  C((E SUBK)+1)      C(E+1)
001313: 04,2672           07230                           TC       TPAGREE
001314: 04,2673           07063                           TC       DMP
001315: 04,2674           00107                           ADRES    SFTEMP1
001316: 04,2675           00105                           TC       OVFIND
001317:
001318: 04,2676           30131        DPOUTNOR           CA       NOUNADD                               #  E
001319: 04,2677           02666                           TC       DPOUTCOM
001320:
001321:
001322:
001323:                                                                                                  #  THIS IS A SPECIAL PURPOSE VERB FOR DISPLAYING A DOUBLE PRECISION AGC
001324:                                                                                                  #  WORD AS 10 DECIMAL DIGITS ON THE AGC DISPLAY PANEL.  IT CAN BE USED WITH
001325:                                                                                                  #  ANY NOUN, EXCEPT MIXED NOUNS. IT DISPLAYS THE CONTENTS
001326:                                                                                                  #  OF THE REGISTER NOUNADD IS POINTING TO .  IF USED WITH NOUNS WHICH ARE
001327:                                                                                                  #  INHERENTLY NOT DP SUCH AS THE CDU COUNTERS THE DISPLAY WILL BE GARBAGE.
001328:                                                                                                  #  DISPLAY IS IN R1 AND R2 ONLY WITH THE SIGN IN R1.
001329:
001330:
001331:
001332: 04,2700           50124        DSPDPDEC           INDEX    MIXBR
001333: 04,2701           02701                           TC       +0
001334: 04,2702           02704                           TC       +2                                    #  NORMAL NOUN
001335: 04,2703           03273                           TC       DSPALARM
001336:
001337: 04,2704           00006                           EXTEND
001338: 04,2705           50131                           INDEX    NOUNADD
001339: 04,2706           30001                           DCA      0
001340: 04,2707           52141                           DXCH     MPAC
001341: 04,2710           35426                           CAF      R1D1
001342: 04,2711           54264                           TS       DSPCOUNT
001343: 04,2712           37657                           CAF      ZERO
001344: 04,2713           54142                           TS       MPAC       +2
001345: 04,2714           07230                           TC       TPAGREE
001346: 04,2715           03151                           TC       DSP2DEC
001347: 04,2716           00122        ENDDPDEC           TC       ENTEXIT
001348:
001349:                                                                                                  #           LOAD VERBS
001350:
001351:
001352:
001353: 05,2535                                           SETLOC   ENDRTOUT
001354:
001355: 05,2535           47651        ABCLOAD            CS       TWO
001356: 05,2536           02376                           TC       COMPTEST
001357: 05,2537           32673                           CAF      VBSP1LD
001358: 05,2540           02314                           TC       UPDATVB    -1
001359: 05,2541           02252                           TC       REQDATX
001360: 05,2542           32674                           CAF      VBSP2LD
001361: 05,2543           02314                           TC       UPDATVB    -1
001362: 05,2544           02254                           TC       REQDATY
001363: 05,2545           32675                           CAF      VBSP3LD
001364: 05,2546           02314                           TC       UPDATVB    -1
001365: 05,2547           02256                           TC       REQDATZ
001366:
001367:
001368:
001369: 05,2550           46162        PUTXYZ             CS       SIX                                   #  TEST THAT THE 3 DATA WORDS LOADED ARE
001370: 05,2551           02676                           TC       ALLDC/OC                              #  ALL DEC OR ALL OCT.
001371: 05,2552           00006                           EXTEND
001372: 05,2553           32076                           DCA      LODNNLOC                              #  SWITCH BANKS TO NOUN TABLE READING
001373: 05,2554           52006                           DXCH     Z                                     #  ROUTINE.
001374: 05,2555           37657                           CAF      ZERO                                  #  X COMP
001375: 05,2556           02762                           TC       PUTCOM
001376: 05,2557           50131                           INDEX    NOUNADD
001377: 05,2560           54000                           TS       0
001378: 05,2561           37652                           CAF      ONE                                   #  Y COMP
001379: 05,2562           02762                           TC       PUTCOM
001380: 05,2563           50131                           INDEX    NOUNADD
001381: 05,2564           54001                           TS       1
001382: 05,2565           37651                           CAF      TWO                                   #  Z COMP
001383: 05,2566           02762                           TC       PUTCOM
001384: 05,2567           50131                           INDEX    NOUNADD
001385: 05,2570           54002                           TS       2
001386: 05,2571           02663                           TC       LOADLV
001387:
001388: 05,2572           47652        ABLOAD             CS       ONE
001389: 05,2573           02376                           TC       COMPTEST
001390: 05,2574           32673                           CAF      VBSP1LD
001391: 05,2575           02314                           TC       UPDATVB    -1
001392: 05,2576           02252                           TC       REQDATX
001393: 05,2577           32674                           CAF      VBSP2LD
001394: 05,2600           02314                           TC       UPDATVB    -1
001395: 05,2601           02254                           TC       REQDATY
001396: 05,2602           47227        PUTXY              CS       FIVE                                  #  TEST THAT THE 2 DATA WORDS LOADED ARE
001397: 05,2603           02676                           TC       ALLDC/OC                              #  ALL DEC OR ALL OCT.
001398: 05,2604           00006                           EXTEND
001399:
001400: 05,2605           32076                           DCA      LODNNLOC                              #  SWITCH BANKS TO NOUN TABLE READING
001401: 05,2606           52006                           DXCH     Z                                     #  ROUTINE.
001402: 05,2607           37657                           CAF      ZERO                                  #  X COMP
001403: 05,2610           02762                           TC       PUTCOM
001404: 05,2611           50131                           INDEX    NOUNADD
001405: 05,2612           54000                           TS       0
001406: 05,2613           37652                           CAF      ONE                                   #  Y COMP
001407: 05,2614           02762                           TC       PUTCOM
001408: 05,2615           50131                           INDEX    NOUNADD
001409: 05,2616           54001                           TS       1
001410: 05,2617           02663                           TC       LOADLV
001411:
001412: 05,2620           02252        ALOAD              TC       REQDATX
001413: 05,2621           00006                           EXTEND
001414: 05,2622           32076                           DCA      LODNNLOC                              #  SWITCH BANKS TO NOUN TABLE READING
001415: 05,2623           52006                           DXCH     Z                                     #  ROUTINE.
001416: 05,2624           37657                           CAF      ZERO                                  #  X COMP
001417: 05,2625           02762                           TC       PUTCOM
001418: 05,2626           50131                           INDEX    NOUNADD
001419: 05,2627           54000                           TS       0
001420: 05,2630           02663                           TC       LOADLV
001421:
001422: 05,2631           47652        BLOAD              CS       ONE
001423: 05,2632           02376                           TC       COMPTEST
001424: 05,2633           37634                           CAF      BIT15                                 #  SET CLPASS FOR PASS0 ONLY
001425: 05,2634           54302                           TS       CLPASS
001426: 05,2635           02254                           TC       REQDATY
001427: 05,2636           00006                           EXTEND
001428: 05,2637           32076                           DCA      LODNNLOC                              #  SWITCH BANKS TO NOUN TABLE READING
001429: 05,2640           52006                           DXCH     Z                                     #  ROUTINE.
001430: 05,2641           37652                           CAF      ONE
001431: 05,2642           02762                           TC       PUTCOM
001432: 05,2643           50131                           INDEX    NOUNADD
001433: 05,2644           54001                           TS       1
001434: 05,2645           02663                           TC       LOADLV
001435:
001436: 05,2646           47651        CLOAD              CS       TWO
001437: 05,2647           02376                           TC       COMPTEST
001438: 05,2650           37634                           CAF      BIT15                                 #  SET CLPASS FOR PASS0 ONLY
001439: 05,2651           54302                           TS       CLPASS
001440: 05,2652           02256                           TC       REQDATZ
001441: 05,2653           00006                           EXTEND
001442: 05,2654           32076                           DCA      LODNNLOC                              #  SWITCH BANKS TO NOUN TABLE READING
001443: 05,2655           52006                           DXCH     Z                                     #  ROUTINE.
001444: 05,2656           37651                           CAF      TWO
001445: 05,2657           02762                           TC       PUTCOM
001446: 05,2660           50131                           INDEX    NOUNADD
001447: 05,2661           54002                           TS       2
001448: 05,2662           02663                           TC       LOADLV
001449:
001450: 05,2663           37657        LOADLV             CAF      ZERO
001451: 05,2664           54265                           TS       DECBRNCH
001452: 05,2665           47657                           CS       ZERO
001453: 05,2666           54301                           TS       LOADSTAT
001454: 05,2667           45470                           CS       VD1                                   #  TO BLOCK NUMERICAL CHARACTERS AND
001455: 05,2670           54264                           TS       DSPCOUNT                              #  CLEARS AFTER A COMPLETED LOAD
001456: 05,2671           04103                           TC       POSTJUMP                              #  AFTER COMPLETED LOAD, GO TO RECALTST
001457: 05,2672           11416                           CADR     RECALTST                              #  TO SEE IF THERE IS RECALL FROM ENDIDLE.
001458:
001459: 05,2673           00021        VBSP1LD            OCT      21                                    #  VB21 = ALOAD
001460: 05,2674           00022        VBSP2LD            OCT      22                                    #  VB22 = BLOAD
001461: 05,2675           00023        VBSP3LD            OCT      23                                    #  VB23 = CLOAD
001462:
001463:
001464:
001465: 05,2676           54103        ALLDC/OC           TS       DECOUNT                               #  TESTS THAT DATA WORDS LOADED ARE EITHER
001466: 05,2677           40265                           CS       DECBRNCH                              #  ALL DEC OR ALL OCT. ALARMS IF NOT.
001467: 05,2700           54021                           TS       SR
001468: 05,2701           40021                           CS       SR
001469: 05,2702           40021                           CS       SR                                    #  SHIFTED RIGHT 2
001470: 05,2703           10000                           CCS      A                                     #  DEC COMP BITS IN LOW 3
001471: 05,2704           12706                           TCF      +2                                    #  SOME ONES IN LOW 3
001472: 05,2705           00002                           TC       Q                                     #  ALL ZEROS. ALL OCTAL.  OK
001473: 05,2706           60103                           AD       DECOUNT                               #  DEC COMP = 7 FOR 3COMP, =6 FOR 2COMP
001474: 05,2707           00006                           EXTEND                                         #  (BUT IT HAS BEEN DECREMENTED BY CCS)
001475: 05,2710           12712                           BZF      +2                                    #  MUST MATCH 6 FOR 3COMP, 5 FOR 2COMP.
001476: 05,2711           02324                           TC       GODSPALM
001477: 05,2712           00002        GOQ                TC       Q                                     #  ALL REQUIRED ARE DEC. OK
001478:
001479:
001480:
001481: 05,2713           56002        SFRUTNOR           XCH      Q                                     #  GETS SF ROUTINE NUMBER FOR NORMAL CASE
001482: 05,2714           54100                           TS       EXITEM                                #  CANT USE L FOR RETURN. TSTFORDP USES L.
001483: 05,2715           35456                           CAF      MID5
001484: 05,2716           70133                           MASK     NNTYPTEM
001485: 05,2717           05431                           TC       RIGHT5
001486: 05,2720           00100                           TC       EXITEM                                #  SF ROUTINE NUMBER IN A
001487:
001488: 05,2721           56002        SFRUTMIX           XCH      Q                                     #  GETS SF ROUTINE NUMBER FOR MIXED CASE
001489: 05,2722           54100                           TS       EXITEM
001490: 05,2723           50103                           INDEX    DECOUNT
001491: 05,2724           32753                           CAF      DISPLACE                              #  PUT TC GOQ, TC RIGHT5, OR TC LEFT5 IN L
001492: 05,2725           54001                           TS       L
001493: 05,2726           50103                           INDEX    DECOUNT
001494: 05,2727           35455                           CAF      LOW5                                  #  LOW5, MID5, OR HI5 IN A
001495: 05,2730           70137                           MASK     RUTMXTEM                              #  GET HI5, MID5, OR LOW5 OF RUTMXTAB ENTRY
001496: 05,2731           50001                           INDEX    L
001497: 05,2732           00000                           TC       0
001498:                                                                                                  #  DO TC GOQ(DECOUNT=0), DO TC RIGHT5(DECOUNT=1), DO TC LEFT5(DECOUNT=2).
001499: 05,2733           00100        SFRET1             TC       EXITEM                                #  SF ROUTINE NUMBER IN A
001500:
001501: 05,2734           56002        SFCONUM            XCH      Q                                     #  GETS 2X( SF CONSTANT NUMBER)
001502: 05,2735           54100                           TS       EXITEM
001503: 05,2736           50124                           INDEX    MIXBR
001504: 05,2737           02737                           TC       +0
001505: 05,2740           02756                           TC       CONUMNOR                              #  NORMAL NOUN
001506: 05,2741           50103                           INDEX    DECOUNT                               #  MIXED NOUN
001507: 05,2742           32753                           CAF      DISPLACE
001508: 05,2743           54001                           TS       L                                     #  PUT TC GOQ, TC RIGHT5, OR TC LEFT5 IN L
001509: 05,2744           50103                           INDEX    DECOUNT
001510: 05,2745           35455                           CAF      LOW5
001511: 05,2746           70133                           MASK     NNTYPTEM
001512: 05,2747           50001                           INDEX    L
001513: 05,2750           00000                           TC       0
001514:                                                                                                  #  DO TC GOQ(DECOUNT=0), DO TC RIGHT5(DECOUNT=1), DO TC LEFT5(DECOUNT=2).
001515: 05,2751           60000        SFRET              DOUBLE                                         #  2X(SF CONSTANT NUMBER ) IN A
001516: 05,2752           00100                           TC       EXITEM
001517:
001518: 05,2753           02712        DISPLACE           TC       GOQ
001519: 05,2754           05431                           TC       RIGHT5
001520: 05,2755           05440                           TC       LEFT5
001521:
001522: 05,2756           35455        CONUMNOR           CAF      LOW5                                  #  NORMAL NOUN ALWAYS GETS LOW 5 OF
001523: 05,2757           70133                           MASK     NNTYPTEM                              #  NNTYPTAB FOR SF CONUM.
001524: 05,2760           60000                           DOUBLE
001525: 05,2761           00100                           TC       EXITEM                                #  2X( SF CONSTANT NUMBER) IN A
001526:
001527:
001528:
001529: 05,2762           54103        PUTCOM             TS       DECOUNT
001530: 05,2763           56002                           XCH      Q
001531: 05,2764           54101                           TS       DECRET
001532: 05,2765           37657                           CAF      ZERO
001533: 05,2766           54105                           TS       OVFIND
001534: 05,2767           50103                           INDEX    DECOUNT
001535: 05,2770           56273                           XCH      XREGLP
001536: 05,2771           54141                           TS       MPAC       +1
001537: 05,2772           50103                           INDEX    DECOUNT
001538: 05,2773           56270                           XCH      XREG
001539: 05,2774           54140                           TS       MPAC
001540: 05,2775           50124                           INDEX    MIXBR
001541: 05,2776           02776                           TC       +0
001542: 05,2777           03023                           TC       PUTNORM                               #  NORMAL NOUN
001543:                                                                                                  #  IF MIXNOUN, PLACE ADDRESS FOR COMPONENT K INTO NOUNADD, SET EBANK BITS.
001544: 05,3000           50103                           INDEX    DECOUNT                               #  GET IDADDTAB ENTRY FOR COMPONENT K
001545: 05,3001           30134                           CA       IDAD1TEM                              #          OF NOUN.
001546: 05,3002           75465                           MASK     LOW11                                 #  (ECADR)SUBK FOR CURRENT COMP OF NOUN
001547: 05,3003           05412                           TC       SETNCADR                              #  ECADR INTO NOUNCADR. SETS EB, NOUNADD.
001548: 05,3004           00006                           EXTEND                                         #  C(NOUNADD) IN A UPON RETURN
001549: 05,3005           60103                           SU       DECOUNT                               #  PLACE (ESUBK)-K INTO NOUNADD
001550: 05,3006           54131                           TS       NOUNADD
001551:
001552: 05,3007           10265                           CCS      DECBRNCH
001553: 05,3010           03051                           TC       PUTDECSF                              #  +  DEC
001554: 05,3011           02721                           TC       SFRUTMIX                              #  +0  OCTAL
001555: 05,3012           02236                           TC       DPTEST
001556: 05,3013           03040                           TC       PUTCOM2                               #  NO DP
001557:                                                                                                  #  TEST FOR DP SCALE FOR OCT LOAD. IF SO,
001558:                                                                                                  #  +0 INTO MAJOR PART. SET NOUNADD FOR
001559:                                                                                                  #  LOADING OCTAL WORD INTO MINOR PART.
001560: 05,3014           24131        PUTDPCOM           INCR     NOUNADD                               #  DP  (ESUBK)-K+1  OR  E+1
001561: 05,3015           30131                           CA       NOUNADD                               #  NOUNADD NOW SET FOR MINOR PART
001562: 05,3016           26103                           ADS      DECOUNT                               #  (ESUBK)+1  OR  E+1  INTO DECOUNT
001563: 05,3017           37657                           CAF      ZERO                                  #  NOUNADD SET FOR MINOR PART
001564: 05,3020           50103                           INDEX    DECOUNT
001565: 05,3021           53777                           TS       0          -1                         #  ZERO MAJOR PART(ESUBK OR E)
001566: 05,3022           03040                           TC       PUTCOM2
001567:
001568: 05,3023           05420        PUTNORM            TC       SETNADD                               #  ECADR FROM NOUNCADR. SETS EB, NOUNADD.
001569: 05,3024           10265                           CCS      DECBRNCH
001570: 05,3025           03051                           TC       PUTDECSF                              #  +  DEC
001571: 05,3026           02713                           TC       SFRUTNOR                              #  +0  OCTAL
001572: 05,3027           02236                           TC       DPTEST
001573: 05,3030           03034                           TC       PUTCOM2    -4                         #  NO DP
001574: 05,3031           37657                           CAF      ZERO                                  #  DP
001575: 05,3032           54103                           TS       DECOUNT
001576: 05,3033           03014                           TC       PUTDPCOM
001577:
001578: 05,3034           30132                           CA       NNADTEM
001579: 05,3035           67652                           AD       ONE                                   #  IF NNADTEM = -1, CHANNEL TO BE SPECIFIED
001580: 05,3036           00006                           EXTEND
001581: 05,3037           13044                           BZF      CHANLOAD
001582: 05,3040           56140        PUTCOM2            XCH      MPAC
001583: 05,3041           00101                           TC       DECRET
001584:
001585: 05,3042     0264                                  EBANK=   DSPCOUNT
001586: 05,3042           05012 04000  GTSFINLC           2CADR    GTSFIN
001587:
001588: 05,3044           56140        CHANLOAD           XCH      MPAC
001589: 05,3045           00006                           EXTEND
001590: 05,3046           50304                           INDEX    NOUNCADR
001591: 05,3047           01000                           WRITE    0
001592: 05,3050           02663                           TC       LOADLV
001593:
001594:
001595:
001596:                                                                                                  #  PUTDECSF FINDS MIXBR AND DECOUNT STILL SET FROM PUTCOM
001597:
001598: 05,3051           02734        PUTDECSF           TC       SFCONUM                               #  2X(SF CON NUMB) IN A
001599: 05,3052           54107                           TS       SFTEMP1
001600:
001601: 05,3053           00006                           EXTEND                                         #  SWITCH BANKS TO SF CONSTANT TABLE
001602: 05,3054           33043                           DCA      GTSFINLC                              #  READING ROUTINE.
001603: 05,3055           52006                           DXCH     Z                                     #  LOADS SFTEMP1, SFTEMP2.
001604: 05,3056           50124                           INDEX    MIXBR
001605: 05,3057           03057                           TC       +0
001606: 05,3060           03063                           TC       PUTSFNOR
001607: 05,3061           02721                           TC       SFRUTMIX
001608: 05,3062           03064                           TC       PUTDCSF2
001609: 05,3063           02713        PUTSFNOR           TC       SFRUTNOR
001610:
001611: 05,3064           50000        PUTDCSF2           INDEX    A
001612: 05,3065           33067                           CAF      SFINTABR
001613: 05,3066           04106                           TC       BANKJUMP                              #  SWITCH BANKS FOR EXPANSHION ROOM
001614: 05,3067           11273        SFINTABR           CADR     DSPALARM                              #  ALARM IF DEC LOAD WITH OCTAL ONLY NOUN
001615:
001616: 05,3070           10777                           CADR     BINROUND
001617: 05,3071           10717                           CADR     DEGINSF
001618: 05,3072           10767                           CADR     ARTHINSF
001619: 05,3073           11017                           CADR     DPINSF
001620: 05,3074           11044                           CADR     DPINSF2
001621: 05,3075           11002                           CADR     OPTDEGIN
001622: 05,3076           11017                           CADR     DPINSF                                #  SAME AS ARITHDP1
001623: 05,3077                        ENDRUTIN           EQUALS
001624:
001625:
001626:
001627:                                                                                                  #  SCALE FACTORS FOR THOSE ROUTINES NEEDING THEM ARE AVAILABLE IN SFTEMP1.
001628:                                                                                                  #  ALL SFIN ROUTINES USE MPAC MPAC+1. LEAVE RESULT IN A. END WITH TC DECRET
001629:
001630:
001631:
001632: 04,2717                                           SETLOC   ENDDPDEC   +1
001633:
001634:                                                                                                  #  DEGINSF APPLIES 1000/180 = 5.55555(10) = 5.43434(8)
001635:
001636: 04,2717           07063        DEGINSF            TC       DMP                                   #  SF ROUTINE FOR DEC DEGREES
001637: 04,2720           02762                           ADRES    DEGCON1                               #  MULT BY 5.5 5(10)X2EXP-3
001638: 04,2721           10141                           CCS      MPAC       +1                         #  THIS ROUNDS OFF MPAC+1 BEFORE SHIFT
001639: 04,2722           37640                           CAF      BIT11                                 #  LEFT 3, AND CAUSES 360.00 TO OF/UF
001640: 04,2723           02725                           TC       +2                                    #  WHEN SHIFTED LEFT AND ALARM.
001641: 04,2724           47640                           CS       BIT11
001642: 04,2725           60141                           AD       MPAC       +1
001643: 04,2726           03062                           TC       2ROUND     +2
001644: 04,2727           05514                           TC       TPSL1                                 #  LEFT 1
001645: 04,2730           05514        DEGINSF2           TC       TPSL1                                 #  LEFT 2
001646: 04,2731           03071                           TC       TESTOFUF
001647: 04,2732           05514                           TC       TPSL1                                 #  RETURNS IF NO OF/UF (LEFT3)
001648: 04,2733           10140                           CCS      MPAC
001649: 04,2734           02740                           TC       SIGNFIX                               #  IF +, GO TO SIGNFIX
001650: 04,2735           02740                           TC       SIGNFIX                               #  IF +0, GO TO SIGNFIX
001651: 04,2736           40000                           COM                                            #  IF -, USE -MAGNITUDE +1
001652:
001653: 04,2737           54140                           TS       MPAC                                  #  IF -0, USE +0
001654: 04,2740           10105        SIGNFIX            CCS      OVFIND
001655: 04,2741           02756                           TC       SGNTO1                                #  IF OVERFLOW
001656: 04,2742           02752                           TC       ENDSCALE                              #  NO OVERFLOW/UNDERFLOW
001657: 04,2743           10140                           CCS      MPAC                                  #  IF UF FORCE SIGN TO 0 EXCEPT -180
001658: 04,2744           05715                           TC       CCSHOLE
001659: 04,2745           02754                           TC       NEG180
001660: 04,2746           02747                           TC       +1
001661: 04,2747           56140                           XCH      MPAC
001662: 04,2750           77632                           MASK     POSMAX
001663: 04,2751           54140                           TS       MPAC
001664: 04,2752           04103        ENDSCALE           TC       POSTJUMP
001665: 04,2753           13040                           CADR     PUTCOM2
001666:
001667: 04,2754           47632        NEG180             CS       POSMAX
001668: 04,2755           02751                           TC       ENDSCALE   -1
001669:
001670: 04,2756           40140        SGNTO1             CS       MPAC                                  #  IF OF FORCE SIGN TO 1
001671: 04,2757           77632                           MASK     POSMAX
001672: 04,2760           40000                           CS       A
001673: 04,2761           02751                           TC       ENDSCALE   -1
001674:
001675: 04,2762           26161 30707  DEGCON1            2DEC     5.555555555 B-3
001676:
001677: 04,2764           21616 07071  DEGCON2            2DEC     2.222222222 B-2
001678:
001679: 04,2766           71527        NEG.2              OCT      -06250                                #  = .197753906  I.E. THE BIAS SCALED
001680:
001681: 04,2767           07063        ARTHINSF           TC       DMP                                   #  SCALES MPAC, +1 BY SFTEMP1, SFTEMP2.
001682: 04,2770           00107                           ADRES    SFTEMP1                               #  ASSUMES POINT BETWEEN HI AND LO PARTS
001683: 04,2771           56142                           XCH      MPAC       +2                         #  OF SFCON. SHIFTS RESULTS LEFT BY 14.
001684: 04,2772           56141                           XCH      MPAC       +1                         #  (BY TAKING RESULTS FROM MPAC+1, MPAC+2)
001685: 04,2773           56140                           XCH      MPAC
001686: 04,2774           00006                           EXTEND
001687: 04,2775           12777                           BZF      BINROUND
001688: 04,2776           03273                           TC       DSPALARM                              #  TOO LARGE A LOAD
001689: 04,2777           03060        BINROUND           TC       2ROUND
001690: 04,3000           03071                           TC       TESTOFUF
001691: 04,3001           02752                           TC       ENDSCALE                              #  RETURNS IF NO OF/UF
001692:
001693:
001694:
001695: 04,3002           10140        OPTDEGIN           CCS      MPAC                                  #  OPTICS SCALING ROUTINE
001696: 04,3003           03007                           TC       +4
001697: 04,3004           03007                           TC       +3
001698: 04,3005           03273                           TC       DSPALARM                              #  REJECT NEGATIVE INPUT
001699: 04,3006           03273                           TC       DSPALARM                              #          DITTO
001700: 04,3007           32766        OPDEGIN2           CAF      NEG.2                                 #  RANGE IS 90 DEG
001701: 04,3010           26140                           ADS      MPAC                                  #  SUBTRACT BIAS
001702: 04,3011           07063                           TC       DMP                                   #  MULT BY 100 / 45  B-2
001703:
001704: 04,3012           02764                           ADRES    DEGCON2
001705: 04,3013           37637                           CAF      BIT12                                 #  ROUND AS IN DEGINSF
001706: 04,3014           60141                           AD       MPAC       +1
001707: 04,3015           03062                           TC       2ROUND     +2
001708: 04,3016           02730                           TC       DEGINSF2
001709:
001710: 04,3017           07063        DPINSF             TC       DMP                                   #  SCALES MPAC, MPAC +1 BY SFTEMP1,
001711: 04,3020           00107                           ADRES    SFTEMP1                               #  SFTEMP2.  STORES LOW PART OF RESULT
001712: 04,3021           56142                           XCH      MPAC       +2                         #  IN (E SUBK) +1 OR E+1
001713: 04,3022           60000                           DOUBLE
001714: 04,3023           54142                           TS       MPAC       +2
001715: 04,3024           37657                           CAF      ZERO
001716: 04,3025           60141                           AD       MPAC       +1
001717: 04,3026           03062                           TC       2ROUND     +2
001718: 04,3027           03071                           TC       TESTOFUF
001719: 04,3030           50124                           INDEX    MIXBR                                 #  RETURNS IF NO OF/UF
001720: 04,3031           03031                           TC       +0
001721: 04,3032           03042                           TC       DPINORM
001722: 04,3033           30103                           CA       DECOUNT                               #  MIXEDNOUN
001723: 04,3034           60131        DPINCOM            AD       NOUNADD                               #      MIXED                NORMAL
001724: 04,3035           54002                           TS       Q                                     #    E SUBK             E
001725: 04,3036           56141                           XCH      MPAC       +1
001726: 04,3037           50002                           INDEX    Q
001727: 04,3040           54001                           TS       1                                     #  PLACE LOW PART IN
001728: 04,3041           02752                           TC       ENDSCALE                              #  (E SUBK) +1    MIXED
001729: 04,3042           37657        DPINORM            CAF      ZERO                                  #  E +1         NORMAL
001730: 04,3043           03034                           TC       DPINCOM
001731:
001732:
001733:
001734: 04,3044           07063        DPINSF2            TC       DMP                                   #  ASSUMES POINT BETWEEN BITS 7-8 OF HIGH
001735: 04,3045           00107                           ADRES    SFTEMP1                               #  PART OF SF CONST. DPINSF2 SHIFTS RESULTS
001736: 04,3046           03050                           TC       TPLEFT7                               #  LEFT BY 7, ROUNDS MPAC+2 INTO MPAC+1.
001737: 04,3047           03021                           TC       DPINSF     +2
001738:
001739:
001740:
001741: 04,3050           56002        TPLEFT7            XCH      Q                                     #  OPERATES ON MPAC, MPAC+1, MPAC+2
001742: 04,3051           54110                           TS       SFTEMP2                               #  CANT USE L FOR RETURN. TPSL1 USES L.
001743: 04,3052           36162                           CAF      SIX                                   #  LEFT BY 7
001744: 04,3053           54107        LEFT7COM           TS       SFTEMP1
001745: 04,3054           05514                           TC       TPSL1
001746: 04,3055           10107                           CCS      SFTEMP1
001747: 04,3056           03053                           TC       LEFT7COM
001748: 04,3057           00110                           TC       SFTEMP2
001749:
001750: 04,3060           56141        2ROUND             XCH      MPAC       +1
001751: 04,3061           60000                           DOUBLE
001752:
001753: 04,3062           54141                           TS       MPAC       +1
001754: 04,3063           00002                           TC       Q                                     #  IF MPAC+1 DOES NOT OF/UF
001755: 04,3064           60140                           AD       MPAC
001756: 04,3065           54140                           TS       MPAC
001757: 04,3066           00002                           TC       Q                                     #  IF MPAC DOES NOT OF/UF
001758: 04,3067           54105                           TS       OVFIND
001759: 04,3070           00002        2RNDEND            TC       Q
001760:
001761:
001762:
001763: 04,3071           10105        TESTOFUF           CCS      OVFIND                                #  RETURNS IF NO OF/UF
001764: 04,3072           03273                           TC       DSPALARM                              #  OF
001765: 04,3073           00002                           TC       Q
001766: 04,3074           03273                           TC       DSPALARM                              #  UF
001767:
001768:                                                                                                  #  MONITOR ALLOWS OTHER KEYBOARD ACTIVITY. IT IS ENDED BY VERB TERMINATE,
001769:                                                                                                  #  ANY NVSUB CALL THAT PASSES THE DSPLOCK, OR ANOTHER MONITOR.
001770:
001771:                                                                                                  #  MONITOR ACTION IS SUSPENDED, BUT NOT ENDED, BY ANY KEYBOARD ACTION,
001772:                                                                                                  #  EXCEPT ERROR LIGHT RESET. IT BEGINS AGAIN WHEN KEY RELEASE IS PERFORMED.
001773:                                                                                                  #  MONITOR SAVES THE NOUN AND APPROPRIATE DISPLAY VERB IN MONSAVE. IT SAVES
001774:                                                                                                  #  NOUNCADR IN MONSAVE1, IF NOUN = MACHINE CADR TO BE SPECIFIED. BIT 15 OF
001775:                                                                                                  #  MONSAVE1 IS THE KILL MONITOR SIGNAL (KILLER BIT).
001776:
001777:                                                                                                  #  MONSAVE INDICATES IF MONITOR IS ON (+=ON, +0=OFF)
001778:                                                                                                  #  IF MONSAVE IS +, MONITOR ENTERS NO REQUEST, BUT TURNS KILLER BIT OFF.
001779:                                                                                                  #  IF MONSAVE IS +0, MONITOR ENTERS REQUEST AND TURNS KILLER BIT OFF.
001780:
001781:                                                                                                  #  NVSUB  AND VB=TERMINATE TURN KILL MONITOR BIT ON.
001782:
001783:                                                                                                  #  IF KILLER BIT IS ON, MONREQ ENTERS NO FURTHER REQUESTS, ZEROS MONSAVE
001784:                                                                                                  #  AND MONSAVE1 (TURNING OFF KILLER BIT).
001785:
001786:                                                                                                  #  MONITOR DOSENT TEST FOR MATBS SINCE NVSUB CAN HANDLE INTERNAL MATBS NOW
001787: 05,3077                                           SETLOC   ENDRUTIN
001788:
001789: 05,3077           47634        MONITOR            CS       BIT15
001790: 05,3100           70304                           MASK     NOUNCADR
001791: 05,3101           54141        MONIT1             TS       MPAC       +1                         #  TEMP STORAGE
001792: 05,3102           33401                           CAF      LOW6
001793: 05,3103           70266                           MASK     VERBREG
001794: 05,3104           05440                           TC       LEFT5
001795: 05,3105           54022                           TS       CYL
001796: 05,3106           56022                           XCH      CYL
001797: 05,3107           60267                           AD       NOUNREG
001798: 05,3110           54140                           TS       MPAC                                  #  TEMP STORAGE
001799: 05,3111           40324                           CS       GRABLOCK                              #  NEITHER CASE SEARCHES LIST.
001800: 05,3112           67651                           AD       TWO
001801: 05,3113           10000                           CCS      A
001802: 05,3114           05615                           TC       RELDSP1                               #  GRABLOCK=0,1, +0 INTO DSPLOCK AND
001803: 05,3115           03121                           TC       +4                                    #  TURN OFF KEY RLSE LIGHT.
001804: 05,3116           05715                           TC       CCSHOLE
001805: 05,3117           37657                           CAF      ZERO                                  #  GRABLOCK=2, +0 INTO DSPLOCK AND
001806: 05,3120           54277                           TS       DSPLOCK                               #  LEAVE KEY RLSE LIGHT ALONE
001807: 05,3121           00004                           INHINT
001808: 05,3122           10305                           CCS      MONSAVE
001809: 05,3123           03130                           TC       +5                                    #  IF MONSAVE WAS +, NO REQUEST
001810: 05,3124           37652                           CAF      ONE                                   #  IF MONSAVE WAS 0, REQUEST MONREQ
001811: 05,3125           04451                           TC       WAITLIST
001812: 05,3126     0264                                  EBANK=   DSPCOUNT
001813: 05,3126           03134 12000                     2CADR    MONREQ
001814:
001815: 05,3130           52141                           DXCH     MPAC                                  #  PLACE MONITOR VERB AND NOUN INTO MONSAVE
001816:
001817: 05,3131           52306                           DXCH     MONSAVE                               #  ZERO THE KILL MONITOR BIT
001818: 05,3132           00003                           RELINT
001819: 05,3133           00122                           TC       ENTRET
001820:
001821:
001822:
001823: 05,3134           05510        MONREQ             TC       LODSAMPT                              #  CALLED BY WAITLIST
001824: 05,3135           10306                           CCS      MONSAVE1                              #  TIME IS SNATCHED IN RUPT FOR NOUN 65
001825: 05,3136           03142                           TC       +4                                    #  IF KILLER BIT = 0, ENTER REQUESTS
001826: 05,3137           03142                           TC       +3                                    #  IF KILLER BIT = 0, ENTER REQUESTS
001827: 05,3140           03153                           TC       KILLMON                               #  IF KILLER BIT = 1, NO REQUESTS
001828: 05,3141           03153                           TC       KILLMON                               #  IF KILLER BIT = 1, NO REQUESTS
001829: 05,3142           33157                           CAF      MONDEL
001830: 05,3143           04451                           TC       WAITLIST                              #  ENTER WAITLIST REQUEST FOR MONREQ
001831: 05,3144     0264                                  EBANK=   DSPCOUNT
001832: 05,3144           03134 12000                     2CADR    MONREQ
001833: 05,3146           35464                           CAF      CHRPRIO
001834: 05,3147           04276                           TC       NOVAC                                 #  ENTER EXEC REQUEST FOR MONDO
001835: 05,3150     0264                                  EBANK=   DSPCOUNT
001836: 05,3150           03160 12000                     2CADR    MONDO
001837:
001838: 05,3152           04505                           TC       TASKOVER
001839:
001840: 05,3153           37657        KILLMON            CAF      ZERO                                  #  ZERO MONSAVE AND TURN KILLER BIT OFF
001841: 05,3154           54305                           TS       MONSAVE
001842: 05,3155           54306                           TS       MONSAVE1                              #  TURN OFF KILL MONITOR BIT.
001843: 05,3156           04505                           TC       TASKOVER
001844:
001845:
001846:
001847: 05,3157           00144        MONDEL             OCT      144                                   #  FOR 1 SEC MONITOR INTERVALS
001848:
001849:
001850:
001851: 05,3160           10306        MONDO              CCS      MONSAVE1                              #  CALLED BY EXEC
001852: 05,3161           03165                           TC       +4                                    #  IF KILLER BIT = 0, CONTINUE
001853: 05,3162           03165                           TC       +3                                    #  IF KILLER BIT = 0, CONTINUE
001854: 05,3163           04353                           TC       ENDOFJOB                              #  IN CASE TERMINATE CAME SINCE LAST MONREQ
001855: 05,3164           04353                           TC       ENDOFJOB                              #  IN CASE TERMINATE CAME SINCE LAST MONREQ
001856: 05,3165           10277                           CCS      DSPLOCK
001857: 05,3166           03212                           TC       MONBUSY                               #  NVSUB IS BUSY
001858: 05,3167           33401                           CAF      LOW6                                  #  NVSUB IS AVAILABLE
001859: 05,3170           70305                           MASK     MONSAVE
001860: 05,3171           54107                           TS       NVTEMP
001861: 05,3172           04707                           TC       NVSUBMON                              #  PLACE NOUN INTO NOUNREG AND DISPLAY IT
001862: 05,3173           04353                           TC       ENDOFJOB                              #  IN CASE OF ALARM DURING DISPLAY
001863: 05,3174           33210                           CAF      MONMASK
001864: 05,3175           70305                           MASK     MONSAVE                               #  CHANGE MONITOR VERB TO DISPLAY VERB
001865: 05,3176           05431                           TC       RIGHT5
001866:
001867: 05,3177           54020                           TS       CYR
001868: 05,3200           56020                           XCH      CYR
001869: 05,3201           54266                           TS       VERBREG
001870: 05,3202           33211                           CAF      MONBACK                               #  SET RETURN TO PASTEVB AFTER DATA DISPLAY
001871: 05,3203           54122                           TS       ENTRET
001872: 05,3204           47634                           CS       BIT15
001873: 05,3205           70306                           MASK     MONSAVE1                              #  PUT ECADR INTO MPAC +2.  INTMCTBS WILL
001874: 05,3206           54142                           TS       MPAC       +2                         #  DISPLAY IT AND SET NOUNCADR, NOUNADD,
001875: 05,3207           02037        ENDMONDO           TC       TESTNN                                #  EBANK.
001876:
001877:    4664                                           SETLOC   ENDIMODF
001878:
001879:    4664           34672        PASTEVB            CAF      MIDSIX
001880:    4665           70305                           MASK     MONSAVE
001881:    4666           54107                           TS       NVTEMP                                #  PLACE MONITOR VERB INTO VERBREG AND
001882:    4667           04707                           TC       NVSUBMON                              #       DISPLAY IT.
001883:    4670           04671                           TC       +1                                    #  IN CASE OF ALARM DURING DISPLAY
001884:    4671           04353        ENDPASTE           TC       ENDOFJOB
001885:
001886:    4672           07700        MIDSIX             OCT      07700
001887:
001888:
001889:
001890: 05,3210                                           SETLOC   ENDMONDO   +1
001891: 05,3210           00700        MONMASK            OCT      700
001892: 05,3211           04664        MONBACK            ADRES    PASTEVB
001893:
001894: 05,3212           05504        MONBUSY            TC       RELDSPON                              #  TURN KEY RELEASE LIGHT
001895: 05,3213           04353                           TC       ENDOFJOB
001896:
001897:
001898:
001899:                                                                                                  #  DSPFMEM IS USED TO DISPLAY (IN OCTAL) ANY FIXED REGISTER.
001900:                                                                                                  #  IT IS USED WITH NOUN = MACHINE CADR TO BE SPECIFIED. THE FCADR OF THE
001901:                                                                                                  #  DESIRED LOCATION IS THEN PUNCHED IN. IT HANDLES F/F ( FCADR 4000-7777)
001902:
001903: 05,3214           35426        DSPFMEM            CAF      R1D1                                  #  IF F/F, DATACALL USES BANK 02 OR 03.
001904: 05,3215           54264                           TS       DSPCOUNT
001905: 05,3216           30304                           CA       NOUNCADR                              #  ORIGINAL FCADR LOADED STILL IN NOUNCADR.
001906: 05,3217           04117                           TC       DATACALL
001907: 05,3220           03222                           TC       DSPOCTWD
001908: 05,3221           04353                           TC       ENDOFJOB
001909:
001910:                                                                                                  #   DSPDECWD CONVERTS C(MPAC) AND C(MPAC+1) TO A SIGN AND 5 CHAR DECIMAL
001911:                                                                                                  #  STARTING IN LOC SPECIFIED IN DSPCOUNT
001912:
001913: 04,3075                                           SETLOC   TESTOFUF   +4
001914: 04,3075           56002        DSPDECWD           XCH      Q                                     #  USES SHORTMP THROUGHOUT
001915: 04,3076           54101                           TS       WDRET                                 #  CANT USE L FOR RETURN.+ON USES L.
001916: 04,3077           10140                           CCS      MPAC
001917: 04,3100           03107                           TC       +7
001918: 04,3101           03107                           TC       +6
001919: 04,3102           67652                           AD       ONE
001920: 04,3103           54140                           TS       MPAC
001921: 04,3104           02313                           TC       -ON
001922: 04,3105           40141                           CS       MPAC       +1
001923: 04,3106           03111                           TC       +3
001924: 04,3107           02273                           TC       +ON
001925: 04,3110           56141                           XCH      MPAC       +1
001926: 04,3111           63150                           AD       DECROUND
001927: 04,3112           54141                           TS       MPAC       +1
001928: 04,3113           37657                           CAF      ZERO
001929: 04,3114           60140                           AD       MPAC
001930: 04,3115           54140                           TS       MPAC
001931: 04,3116           03122                           TC       +4
001932: 04,3117           37632                           CAF      POSMAX
001933: 04,3120           54140                           TS       MPAC
001934: 04,3121           54141                           TS       MPAC       +1
001935: 04,3122           37650                           CAF      FOUR
001936: 04,3123           54123        DSPDCWD1           TS       WDCNT
001937: 04,3124           35473                           CAF      BINCON
001938: 04,3125           07261                           TC       SHORTMP
001939: 04,3126           50140        TRACE1             INDEX    MPAC
001940: 04,3127           34640                           CAF      RELTAB
001941: 04,3130           75455                           MASK     LOW5
001942: 04,3131           54110                           TS       CODE
001943: 04,3132           37657                           CAF      ZERO
001944: 04,3133           56142                           XCH      MPAC       +2
001945: 04,3134           56141                           XCH      MPAC       +1
001946: 04,3135           54140                           TS       MPAC
001947: 04,3136           56264                           XCH      DSPCOUNT
001948: 04,3137           54127        TRACE1S            TS       COUNT
001949: 04,3140           10000                           CCS      A                                     #  DECREMENT DSPCOUNT EXCEPT AT +0
001950: 04,3141           54264                           TS       DSPCOUNT
001951: 04,3142           03175                           TC       DSPIN
001952: 04,3143           10123                           CCS      WDCNT
001953: 04,3144           03123                           TC       DSPDCWD1
001954: 04,3145           45470                           CS       VD1
001955: 04,3146           54264                           TS       DSPCOUNT
001956: 04,3147           00101                           TC       WDRET
001957:
001958: 04,3150           02476        DECROUND           OCT      02476
001959:
001960:                                                                                                  #  DSP2DEC CONVERTS C(MPAC) AND C(MPAC+1) INTO A SIGN AND 10 CHAR DECIMAL
001961:                                                                                                  #  STARTING IN THE LOC SPECIFIED IN DSPCOUNT.
001962:
001963: 04,3151           56002        DSP2DEC            XCH      Q                                     #  MUST USE SAME RETURN AS DSPDECWD
001964: 04,3152           54101                           TS       WDRET
001965: 04,3153           37657                           CAF      ZERO
001966: 04,3154           54110                           TS       CODE
001967: 04,3155           36165                           CAF      THREE
001968: 04,3156           03257                           TC       11DSPIN                               #  -R2 OFF
001969: 04,3157           37650                           CAF      FOUR
001970: 04,3160           03257                           TC       11DSPIN                               #  +R2 OFF
001971: 04,3161           10140                           CCS      MPAC
001972: 04,3162           03172                           TC       +8D
001973: 04,3163           03172                           TC       +7
001974: 04,3164           67652                           AD       ONE
001975: 04,3165           54140                           TS       MPAC
001976: 04,3166           02313                           TC       -ON
001977: 04,3167           40141                           CS       MPAC       +1
001978: 04,3170           54141                           TS       MPAC       +1
001979: 04,3171           03173                           TC       +2
001980: 04,3172           02273                           TC       +ON
001981: 04,3173           35427                           CAF      R2D1
001982: 04,3174           03123        END2DEC            TC       DSPDCWD1
001983:
001984:
001985:
001986: 05,3222                                           SETLOC   DSPFMEM    +6
001987:                                                                                                  #  DSPOCTWD DISPLAYS C(A) UPON ENTRY AS A 5 CHAR OCT STARTING IN THE DSP
001988:                                                                                                  #  CHAR SPECIFIED IN DSPCOUNT. IT STOPS AFTER 5 CHAR HAVE BEEN DISPLAYED.
001989:
001990: 05,3222           54022        DSPOCTWD           TS       CYL
001991: 05,3223           56002                           XCH      Q
001992: 05,3224           54101                           TS       WDRET                                 #  MUST USE SAME RETURN AS DSP2BIT.
001993: 05,3225           37635                           CAF      BIT14                                 #  TO BLANK SIGNS
001994: 05,3226           26264                           ADS      DSPCOUNT
001995: 05,3227           37650                           CAF      FOUR
001996: 05,3230           54123        WDAGAIN            TS       WDCNT
001997: 05,3231           40022                           CS       CYL
001998: 05,3232           40022                           CS       CYL
001999: 05,3233           40022                           CS       CYL
002000: 05,3234           40000                           CS       A
002001: 05,3235           77656                           MASK     DSPMSK
002002: 05,3236           50000                           INDEX    A
002003: 05,3237           34640                           CAF      RELTAB
002004: 05,3240           75455                           MASK     LOW5
002005: 05,3241           54110                           TS       CODE
002006: 05,3242           56264                           XCH      DSPCOUNT
002007: 05,3243           54127                           TS       COUNT
002008: 05,3244           10000                           CCS      A                                     #  DECREMENT DSPCOUNT EXCEPT AT +0
002009: 05,3245           54264                           TS       DSPCOUNT
002010:
002011: 05,3246           04103                           TC       POSTJUMP
002012: 05,3247           11265                           CADR     DSPOCTIN
002013: 05,3250           10123        OCTBACK            CCS      WDCNT
002014: 05,3251           03230                           TC       WDAGAIN                               #  +
002015: 05,3252           45470        DSPLV              CS       VD1                                   #  TO BLOCK NUMERICAL CHARACTERS, CLEARS,
002016: 05,3253           54264                           TS       DSPCOUNT                              #  AND SIGNS AFTER A COMPLETED DISPLAY.
002017: 05,3254           00101                           TC       WDRET
002018:
002019: 05,3255     7656               DSPMSK             =        SEVEN
002020:
002021:
002022:
002023:                                                                                                  #  DSP2BIT DISPLAYS C(A) UPON ENTRY AS A 2 CHAR OCT BEGINNING IN THE DSP
002024:                                                                                                  #  LOC SPECIFIED IN DSPCOUNT BY PRE CYCLING RIGHT C(A) AND USING THE LOGIC
002025:                                                                                                  #  OF THE 5 CHAR OCTAL DISPLAY
002026:
002027: 05,3255           54020        DSP2BIT            TS       CYR
002028: 05,3256           56002                           XCH      Q
002029: 05,3257           54101                           TS       WDRET                                 #  CANT USE L AS RETURN. UPDATNN USES L.
002030: 05,3260           37652                           CAF      ONE
002031: 05,3261           54123                           TS       WDCNT
002032: 05,3262           40020                           CS       CYR
002033: 05,3263           40020                           CS       CYR
002034: 05,3264           56020                           XCH      CYR
002035: 05,3265           54022                           TS       CYL
002036: 05,3266           03235                           TC       WDAGAIN    +5
002037:
002038:
002039:
002040:                                                                                                  #  FOR DSPIN PLACE 0/25 OCT INTO COUNT, 5 BIT RELAY CODE INTO CODE. BOTH
002041:                                                                                                  #  ARE DESTROYED. IF BIT14 OF COUNT IS 1, SIGN IS BLANKED WITH LEFT CHAR.
002042:                                                                                                  #  FOR DSPIN1 PLACE 0,1 INTO BIT11 OF CODE, 2 INTO COUNT, REL ADDRESS OF
002043:                                                                                                  #  DSPTAB ENTRY INTO DSREL.
002044:
002045: 04,3175                                           SETLOC   END2DEC    +1
002046:
002047: 04,3175           56002        DSPIN              XCH      Q                                     #  CANT USE L FOR RETURN, SINCE MANY OF THE
002048: 04,3176           54100                           TS       DSEXIT                                #  ROUTINES CALLING DSPIN USE L AS RETURN.
002049: 04,3177           35455                           CAF      LOW5
002050: 04,3200           70127                           MASK     COUNT
002051: 04,3201           54021                           TS       SR
002052: 04,3202           56021                           XCH      SR
002053: 04,3203           54125                           TS       DSREL
002054: 04,3204           37652                           CAF      BIT1
002055: 04,3205           70127                           MASK     COUNT
002056: 04,3206           10000                           CCS      A
002057: 04,3207           03211                           TC       +2                                    #  LEFT IF COUNT IS ODD
002058: 04,3210           03221                           TC       DSPIN1     -1                         #  RIGHT IF COUNT IS EVEN
002059: 04,3211           56110                           XCH      CODE
002060: 04,3212           05447                           TC       SLEFT5                                #  DOES NOT USE CYL
002061:
002062: 04,3213           54110                           TS       CODE
002063: 04,3214           37635                           CAF      BIT14
002064: 04,3215           70127                           MASK     COUNT
002065: 04,3216           10000                           CCS      A
002066: 04,3217           37651                           CAF      TWO                                   #  BIT14 = 1, BLANK SIGN
002067: 04,3220           67652                           AD       ONE                                   #  BIT14 = 0, LEAVE SIGN ALONE
002068: 04,3221           54127                           TS       COUNT                                 #  +0 INTO COUNT FOR RIGHT
002069:                                                                                                  #  +1 INTO COUNT FOR LEFT (SIGN LEFT ALONE)
002070:                                                                                                  #  +3 INTO COUNT FOR LEFT (TO BLANK SIGN)
002071: 04,3222           00004        DSPIN1             INHINT
002072: 04,3223           50125                           INDEX    DSREL
002073: 04,3224           10307                           CCS      DSPTAB
002074: 04,3225           03227                           TC       +2                                    #  IF +
002075: 04,3226           05715                           TC       CCSHOLE
002076: 04,3227           67652                           AD       ONE                                   #  IF -
002077: 04,3230           54126                           TS       DSMAG
002078: 04,3231           50127                           INDEX    COUNT
002079: 04,3232           73253                           MASK     DSMSK
002080: 04,3233           00006                           EXTEND
002081: 04,3234           60110                           SU       CODE
002082: 04,3235           00006                           EXTEND
002083: 04,3236           13251                           BZF      DSLV                                  #  SAME
002084: 04,3237           50127        DFRNT              INDEX    COUNT
002085: 04,3240           43253                           CS       DSMSK                                 #  MASK WITH 77740,76037, OR 75777
002086: 04,3241           70126                           MASK     DSMAG
002087: 04,3242           60110                           AD       CODE
002088: 04,3243           40000                           CS       A
002089: 04,3244           50125                           INDEX    DSREL
002090: 04,3245           56307                           XCH      DSPTAB
002091: 04,3246           00006                           EXTEND
002092: 04,3247           63251                           BZMF     DSLV                                  #  DSPTAB ENTRY WAS -
002093: 04,3250           24303                           INCR     NOUT                                  #  DSPTAB ENTRY WAS +
002094: 04,3251           00003        DSLV               RELINT
002095: 04,3252           00100                           TC       DSEXIT
002096:
002097: 04,3253           00037        DSMSK              OCT      37
002098: 04,3254           01740                           OCT      1740
002099: 04,3255           02000                           OCT      2000
002100: 04,3256           03740                           OCT      3740
002101:
002102:
002103:
002104:                                                                                                  #  FOR 11DSPIN, PUT REL ADDRESSS OF DSPTAB ENTRY INTO A, 1 IN BIT11 OR 0 IN
002105:                                                                                                  #  BIT11 OF CODE.
002106:
002107: 04,3257           54125        11DSPIN            TS       DSREL
002108: 04,3260           37651                           CAF      TWO
002109: 04,3261           54127                           TS       COUNT
002110: 04,3262           56002                           XCH      Q                                     #  MUST USE SAME RETURN AS DSPIN
002111: 04,3263           54100                           TS       DSEXIT
002112:
002113: 04,3264           03222                           TC       DSPIN1
002114:
002115:
002116:
002117: 04,3265           03175        DSPOCTIN           TC       DSPIN                                 #  SO DSPOCTWD DOESNT USE SWCALL
002118: 04,3266           33270                           CAF      +2
002119: 04,3267           04106                           TC       BANKJUMP
002120: 04,3270           13250        ENDSPOCT           CADR     OCTBACK
002121:
002122:
002123:
002124:                                                                                                  #  DSPALARM FINDS TC NVSUBEND IN ENTRET FOR NVSUB INITIATED ROUTINES.
002125:                                                                                                  #  ABORT WITH 01501.
002126:                                                                                                  #  DSPALARM FINDS TC ENDOFJOB IN ENTRET FOR KEYBOARD INITIATED ROUTINES.
002127:                                                                                                  #  DO TC ENTRET.
002128:
002129: 04,3271           34734        CHARALRM           CAF      ENDINST                               #  ALARMS WHICH MUST DO ENDOFJOBS COME
002130: 04,3272           54122                           TS       ENTRET                                #  HERE. ALLOWS ENTRET TO BE TEMP ERASABLE
002131:
002132: 04,3273           05474        DSPALARM           TC       FALTON                                #  TURN ON OPERATOR ERROR LIGHT
002133: 04,3274           43303                           CS       NVSBENDL
002134: 04,3275           60122                           AD       ENTEXIT
002135: 04,3276           00006                           EXTEND
002136: 04,3277           13301                           BZF      +2                                    #  NVSUB INITIATED. ABORT
002137: 04,3300           00122                           TC       ENTEXIT                               #  NOT NVSUB INITIATED.
002138: 04,3301           05677                           TC       ABORT
002139: 04,3302           01501                           OCT      01501
002140: 04,3303           04713        NVSBENDL           TC       NVSUBEND
002141:
002142:
002143:
002144:                                                                                                  #  MMCHANG USES NOUN DISPLAY UNTIL ENTER. THEN IT USES MODE DISP.
002145:                                                                                                  #  IT GOES TO MODROUT WITH THE NEW M M CODE IN A, BUT NOT DISPLAYED IN
002146:                                                                                                  #  M M LIGHTS.
002147:
002148: 05,3267                                           SETLOC   DSP2BIT    +10D
002149:
002150: 05,3267           03302        MMCHANG            TC       REQMM
002151: 05,3270           37657                           CAF      ZERO
002152: 05,3271           56267                           XCH      NOUNREG
002153: 05,3272           54140                           TS       MPAC
002154: 05,3273           35471                           CAF      ND1
002155: 05,3274           54264                           TS       DSPCOUNT
002156: 05,3275           04064                           TC       BANKCALL
002157: 05,3276           10535                           CADR     2BLANK
002158: 05,3277           30140                           CA       MPAC
002159: 05,3300           04103                           TC       POSTJUMP
002160: 05,3301           11273                           CADR     MODROUTB                              #  GO THRU STANDARD LOC.
002161:
002162: 05,3302  04,3273               MODROUTB           =        DSPALARM                              #  **FI*
002163: 05,3302           40002        REQMM              CS       Q
002164: 05,3303           54300                           TS       REQRET
002165: 05,3304           35471                           CAF      ND1
002166: 05,3305           54264                           TS       DSPCOUNT
002167: 05,3306           37657                           CAF      ZERO
002168: 05,3307           54267                           TS       NOUNREG
002169: 05,3310           04064                           TC       BANKCALL
002170: 05,3311           10535                           CADR     2BLANK
002171: 05,3312           05525                           TC       FLASHON
002172: 05,3313           00122                           TC       ENTEXIT
002173:
002174:
002175:
002176:                                                                                                  #  VBRQEXEC ENTERS REQUEST TO EXEC     FOR ANY ADDRESS WITH ANY PRIORITY.
002177:                                                                                                  #  IT DOES ENDOFJOB AFTER ENTERING REQUEST. DISPLAY SYST IS RELEASED.
002178:                                                                                                  #  IT ASSUMES NOUN 26 HAS BEEN PRELOADED WITH
002179:                                                                                                  #  COMPONENT 1  PRIORITY(BITS 10-14) BIT1=0 FOR NOVAC, BIT1=1 FOR FINDVAC.
002180:                                                                                                  #  COMPONENT 2  JOB ADRES (12 BIT )
002181:                                                                                                  #  COMPONENT 3  BBCON
002182:
002183: 05,3314           37652        VBRQEXEC           CAF      BIT1
002184: 05,3315           70333                           MASK     DSPTEM1
002185: 05,3316           10000                           CCS      A
002186: 05,3317           03336                           TC       SETVAC                                #  IF BIT1 = 1, FINDVAC
002187: 05,3320           35460                           CAF      TCNOVAC                               #  IF BIT1 = 0, NOVAC
002188: 05,3321           54140        REQEX1             TS       MPAC                                  #  TC NOVAC OR TC FINDVAC INTO MPAC
002189: 05,3322           47652                           CS       BIT1
002190: 05,3323           70333                           MASK     DSPTEM1
002191: 05,3324           54144                           TS       MPAC       +4                         #  PRIO INTO MPAC+4 AS A TEMP
002192: 05,3325           05572        REQUESTC           TC       RELDSP
002193: 05,3326           34734                           CA       ENDINST
002194: 05,3327           54143                           TS       MPAC       +3                         #  TC ENDOFJOB INTO MPAC+3
002195: 05,3330           00006                           EXTEND
002196: 05,3331           30335                           DCA      DSPTEM1    +1                         #  JOB ADRES INTO MPAC+1
002197: 05,3332           52142                           DXCH     MPAC       +1                         #  BBCON INTO MPAC+2
002198: 05,3333           30144                           CA       MPAC       +4                         #  PRIO IN A
002199: 05,3334           00004                           INHINT
002200: 05,3335           00140                           TC       MPAC
002201:
002202: 05,3336           35463        SETVAC             CAF      TCFINDVC
002203: 05,3337           03321                           TC       REQEX1
002204:
002205:                                                                                                  #  VBRQWAIT ENTERS REQUEST TO WAITLIST FOR ANY ADDRESS WITH ANY DELAY.
002206:                                                                                                  #  IT DOES ENDOFJOB AFTER ENTERING REQUEST.DISPLAY SYST IS RELEASED.
002207:                                                                                                  #  IT ASSUMES NOUN 26 HAS BEEN PRELOADED WITH
002208:                                                                                                  #  COMPONENT 1  DELAY (LOW BITS)
002209:                                                                                                  #  COMPONENT 2  TASK ADRES (12 BIT)
002210:                                                                                                  #  COMPONENT 3  BBCON
002211:
002212: 05,3340           35461        VBRQWAIT           CAF      TCWAIT
002213: 05,3341           54140                           TS       MPAC                                  #  TC WAITLIST INTO MPAC
002214: 05,3342           30333                           CA       DSPTEM1                               #  TIME DELAY
002215: 05,3343           03324        ENDRQWT            TC       REQUESTC   -1
002216:
002217:                                                                                                  #  REQUESTC WILL PUT TASK ADRES INTO MPAC+1, BBCON INTO MPAC+2,
002218:                                                                                                  #  TC ENDOFJOB INTO MPAC+3. IT WILL TAKE TIME DELAY OUT OF MPAC+4 AND
002219:                                                                                                  #  LEAVE IT IN A, INHINT AND TC MPAC.
002220:
002221:
002222:
002223: 04,3304                                           SETLOC   NVSBENDL   +1
002224: 04,3304           37652        VBPROC             CAF      ONE                                   #  PROCEED WITHOUT DATA
002225: 04,3305           54301                           TS       LOADSTAT
002226: 04,3306           05572                           TC       RELDSP
002227: 04,3307           05531                           TC       FLASHOFF
002228: 04,3310           03416                           TC       RECALTST                              #  SEE IF THERE IS ANY RECALL FROM ENDIDLE
002229:
002230:
002231:
002232: 04,3311           04715        VBTERM             TC       KILMONON                              #  TURN ON KILL MONITOR BIT
002233: 04,3312           47652                           CS       ONE
002234: 04,3313           03305                           TC       VBPROC     +1                         #  TERM VERB SETS LOADSTAT NEG
002235:
002236:
002237:
002238:                                                                                                  #  FLASH IS TURNED OFF ONLY BY PROCEED WITHOUT DATA, TERMINATE, END OF LOAD
002239:
002240:
002241:
002242:                                                                                                  #  VBRELDSP TURNS OFF RELEASE DISPLAY SYSTEM LIGHT(AND SEARCHES LIST ONLY
002243:                                                                                                  #  IF THIS LIGHT WAS TURNED ON BY NVSUBUSY), AND TURNS OFF UPACT LIGHT.
002244:
002245: 04,3314           47650        VBRELDSP           CS       BIT3
002246: 04,3315           00006                           EXTEND
002247: 04,3316           03011                           WAND     DSALMOUT                              #  TURN OFF UPACT LIGHT
002248: 04,3317           05572                           TC       RELDSP                                #  SEARCHES LIST
002249: 04,3320           04353                           TC       ENDOFJOB
002250:
002251:
002252:
002253:                                                                                                  #  BUMP SHIFTS WORD DISPLAYED IN R2 TO R3, R1 TO R2. IT BLANKS R1.
002254:
002255: 04,3321           37227        BUMP               CAF      FIVE                                  #  R2D5
002256: 04,3322           54264                           TS       DSPCOUNT
002257: 04,3323           54127                           TS       COUNT
002258: 04,3324           37652                           CAF      ONE                                   #  SHIFT DATA OF R2 TO R3, R1 TO R2
002259: 04,3325           70127                           MASK     COUNT
002260: 04,3326           56127                           XCH      COUNT                                 #  +0 INTO COUNT IF EVEN (RIGHT)
002261: 04,3327           54021                           TS       SR                                    #  +1 INTO COUNT IF ODD (LEFT)
002262:
002263: 04,3330           56021                           XCH      SR                                    #  DSREL IN A
002264: 04,3331           50000                           INDEX    A
002265: 04,3332           10307                           CCS      DSPTAB
002266: 04,3333           03335                           TC       +2
002267: 04,3334           05715                           TC       CCSHOLE
002268: 04,3335           67652                           AD       ONE                                   #  DSMAG IN A
002269: 04,3336           50127                           INDEX    COUNT
002270: 04,3337           73253                           MASK     DSMSK
002271: 04,3340           50127                           INDEX    COUNT
002272: 04,3341           03342                           TC       +1
002273: 04,3342           03344                           TC       +2                                    #  EVEN(RIGHT)  OK
002274: 04,3343           05431                           TC       RIGHT5                                #  ODD(LEFT)  SHIFT RIGHT
002275: 04,3344           54110                           TS       CODE
002276: 04,3345           47227                           CS       FIVE
002277: 04,3346           60264                           AD       DSPCOUNT                              #  DSPCOUNT-5
002278: 04,3347           10000                           CCS      A                                     #  TO PREVENT -0
002279: 04,3350           67652                           AD       ONE
002280: 04,3351           03353                           TC       +2
002281: 04,3352           05715                           TC       CCSHOLE
002282: 04,3353           54127                           TS       COUNT
002283: 04,3354           03175                           TC       DSPIN                                 #  CODE ALREADY IN CODE
002284: 04,3355           40264                           CS       DSPCOUNT
002285: 04,3356           65426                           AD       R1D1                                  #  OCT 16
002286: 04,3357           10000                           CCS      A
002287: 04,3360           56264                           XCH      DSPCOUNT                              #  +, DSPCOUNT L/ OCT 16
002288: 04,3361           67652                           AD       ONE                                   #  INCREMENT DSPCOUNT
002289: 04,3362           03322                           TC       BUMP       +1
002290:
002291: 04,3363           37657        SWSGN              CAF      ZERO                                  #  -0, DSPCOUNT= OCT 16. DO SIGN SHIFT
002292: 04,3364           54264                           TS       DSPCOUNT
002293: 04,3365           63414                           AD       SWTAB      +2                         #  OCT 3
002294: 04,3366           50000                           INDEX    A                                     #  PICKUP ORDER , DSREL=3,4,5,6.
002295: 04,3367           10307                           CCS      DSPTAB                                #                   (-R2,+R2,-R1,+R1)
002296: 04,3370           03372                           TC       +2
002297: 04,3371           05715                           TC       CCSHOLE
002298: 04,3372           67652                           AD       ONE
002299: 04,3373           77640                           MASK     BIT11
002300: 04,3374           54110                           TS       CODE
002301: 04,3375           50264                           INDEX    DSPCOUNT
002302: 04,3376           33412                           CAF      SWTAB                                 #  PUT AWAY ORDER, DSREL= 0,1,3,4.
002303: 04,3377           03257                           TC       11DSPIN                               #                   (-R3,+R3,-R2,+R2.)
002304: 04,3400           40264                           CS       DSPCOUNT
002305: 04,3401           63414                           AD       SWTAB      +2                         #  OCT 3
002306: 04,3402           10000                           CCS      A
002307: 04,3403           56264                           XCH      DSPCOUNT                              #  +, DSPCOUNT L/ 3
002308: 04,3404           67652                           AD       ONE                                   #  INCREMENT DSPCOUNT
002309: 04,3405           03364                           TC       SWSGN      +1
002310: 04,3406           35426                           CAF      R1D1                                  #  -0,       DSPCOUNT = 3
002311: 04,3407           54264                           TS       DSPCOUNT
002312: 04,3410           02472                           TC       5BLANK                                #  BLANKS R1
002313:
002314: 04,3411           00122                           TC       ENTEXIT
002315:
002316: 04,3412           00000        SWTAB              OCT      0                                     #  -R3
002317: 04,3413           00001                           OCT      1                                     #  +R3
002318: 04,3414           00003                           OCT      3                                     #  -R2
002319: 04,3415           00004                           OCT      4                                     #  +R2
002320:
002321:                                                                                                  #  NVSUB IS USED FOR SUBROUTINE CALLS FROM WITHIN COMPUTER. IT CAN BE
002322:                                                                                                  #  USED TO DO ANY THING THE KEYBOARD CAN CALL. PLACE ...VVVVVVNNNNNN
002323:                                                                                                  #  INTO A.      V-S ARE 6BIT VERB CODE. N-S , 6 BIT NOUN CODE.
002324:
002325:                                                                                                  #  NVSUB CAN BE USED WITH MACH CADR TO BE SPEC BY PLACING THE CADR INTO
002326:                                                                                                  #  MPAC+2 BEFORE THE STANDARD NVSUB CALL.
002327:
002328:                                                                                                  #   NVSUB RETURNS TO 2+ CALLING LOC AFTER PERFORMING TASK, IF DISPLAY
002329:                                                                                                  #  SYSTEM IS AVAILABLE. THE NEW NOUN AND VERB CODES ARE DISPLAYED.
002330:                                                                                                  #  IF V:S =0, THE NEW NOUN CODE IS DISPLAYED ONLY(RETURN WITH NO FURTHER
002331:                                                                                                  #  ACTION). IF N-S =0, THE NEW VERB CODE IS DISPLAYED ONLY(RETURN WITH NO
002332:                                                                                                  #  FURTHER ACTION).
002333:
002334:                                                                                                  #  IT RETURNS TO 1+ CALLING LOC WITHOUT PERFORMING TASK, IF DISPLAY
002335:                                                                                                  #  SYSTEM IS BLOCKED (NOTHING IS DISPLAYED IN THIS CASE).
002336:                                                                                                  #  IT DOES TC ABORT (WITH OCT 01501) IF IT ENCOUNTERS A DISPLAY PROGRAM
002337:                                                                                                  #  ALARM CONDITION BEFORE RETURN TO CALLER.
002338:
002339:                                                                                                  #  THE DISPLAY SYSTEM IS BLOCKED BY THE DEPRESSION OF ANY
002340:                                                                                                  #  KEY, EXCEPT ERROR LIGHT RESET. ALSO BY ENDIDLE.
002341:                                                                                                  #       IT IS RELEASED BY SPECIAL VERB = RELEASE DISPLAY, ALL GO TO VERBS.
002342:                                                                                                  #  PROCEED WITHOUT DATA, TERMINATE, INITIALIZE EXECUTIVE,
002343:                                                                                                  #  RECALL PART OF RECALTST IF ENDIDLE WAS USED,
002344:                                                                                                  #  IN RECALTST IF NVSUB INITIATED LOAD AND ENDIDLE WAS NOT USED,
002345:                                                                                                  #  VB = REQUEST EXECUTIVE, VB = REQUEST WAITLIST,
002346:                                                                                                  #  MONITOR SET UP.
002347:
002348:                                                                                                  #  A NVSUB CALL THAT PASSES DSPLOCK ENDS OLD MONITOR.
002349:
002350:                                                                                                  #  DSPLOCK IS THE INTERLOCK FOR USE OF KEYBOARD AND DISPLAY SYSTEM WHICH
002351:                                                                                                  #  LOCKS OUT INTERNAL USE WHENEVER THERE IS EXTERNAL KEYBOARD ACTION.
002352:
002353:                                                                                                  #  NVSUB IN FIXED-FIXED PLACES 2+CALLING LOC INTO NVQTEM, TC NVSUBEND INTO
002354:                                                                                                  #  ENTRET. (THIS WILL RESTORE OLD CALLING BANK BITS)
002355:
002356:    4673                                           SETLOC   MIDSIX     +1
002357:    4673           54107        NVSUB              TS       NVTEMP                                #  IN FIXED FIXED
002358:    4674           10277                           CCS      DSPLOCK
002359:    4675           00002                           TC       Q                                     #  DSP SYST BLOCKED. RET TO 1+ CALLING LOC
002360:    4676           30002                           CA       Q                                     #  DSP SYST AVAILABLE
002361:    4677           67652                           AD       ONE
002362:    4700           54325                           TS       NVQTEM                                #  2+ CALLING LOC INTO NVQTEM
002363:    4701           04715                           TC       KILMONON                              #  TURN ON KILL MONITOR BIT
002364:    4702           34706        NVSUBCOM           CAF      NVSBBBNK
002365:
002366:    4703           56006                           XCH      BBANK
002367:    4704           54326                           TS       NVBNKTEM
002368:    4705           02000                           TC       NVSUBB                                #  GO TO NVSUB1 THRU STANDARD LOC
002369:    4706     0264                                  EBANK=   DSPCOUNT
002370:    4706           12000        NVSBBBNK           BBCON    NVSUB1
002371:
002372:    4707           30002        NVSUBMON           CA       Q                                     #  MONDO COMES HERE
002373:    4710           67652                           AD       ONE
002374:    4711           54325                           TS       NVQTEM                                #  2 + CALLING LOC INTO NVQTEM
002375:    4712           04702                           TC       NVSUBCOM
002376:
002377:    4713           52326        NVSUBEND           DXCH     NVQTEM                                #  NVBNKTEM MUST = NVQTEM+1
002378:    4714           52006                           DXCH     Z                                     #  DTCB
002379:
002380: 05,3344                                           SETLOC   ENDRQWT    +1
002381:
002382: 05,3344           33363        NVSUB1             CAF      ENTSET                                #  IN BANK
002383: 05,3345           54122                           TS       ENTRET                                #  SET RETURN TO NVSUBEND
002384: 05,3346           33401                           CAF      LOW6
002385: 05,3347           70107                           MASK     NVTEMP
002386: 05,3350           54140                           TS       MPAC                                  #  TEMP STORAGE
002387: 05,3351           33402                           CAF      MID6
002388: 05,3352           70107                           MASK     NVTEMP
002389: 05,3353           05431                           TC       RIGHT5
002390: 05,3354           54020                           TS       CYR
002391: 05,3355           56020                           XCH      CYR
002392: 05,3356           54141                           TS       MPAC       +1                         #  TEMP STORAGE
002393: 05,3357           10140                           CCS      MPAC                                  #  TEST NOUN
002394: 05,3360           03364                           TC       +4                                    #  IF NOUN NOT +0, GO ON
002395: 05,3361           56141                           XCH      MPAC       +1
002396: 05,3362           02314                           TC       UPDATVB    -1                         #  IF NOUN = +0, DISPLAY VERB, THEN RETURN
002397: 05,3363           04713        ENTSET             TC       NVSUBEND
002398: 05,3364           10141                           CCS      MPAC       +1                         #  TEST VERB
002399: 05,3365           03371                           TC       +4                                    #  IF VERB NOT +0, GO ON
002400: 05,3366           56140                           XCH      MPAC
002401: 05,3367           02274                           TC       UPDATNN    -1                         #  IF VERB = +0, DISPLAY NOUN. THEN RETURN
002402: 05,3370           04713                           TC       NVSUBEND
002403: 05,3371           56141                           XCH      MPAC       +1
002404: 05,3372           02314                           TC       UPDATVB    -1                         #  IF BOTH NOUN AND VERB NOT +0, DISPLAY
002405: 05,3373           56140                           XCH      MPAC                                  #  BOTH AND GO TO ENTPAS0
002406: 05,3374           02274                           TC       UPDATNN    -1
002407: 05,3375           37657                           CAF      ZERO
002408: 05,3376           54301                           TS       LOADSTAT                              #  SET FOR WAITING FOR DATA CONDITION
002409: 05,3377           54302                           TS       CLPASS
002410: 05,3400           02031                           TC       ENTPAS0
002411:
002412:                                                                                                  #  IF INTERNAL MACH CADR TO BE SPECIFIED, MPAC+2 WILL BE PLACED INTO
002413:                                                                                                  #  NOUNCADR IN ENTPAS0 (INTMCTBS ).
002414:
002415:
002416:
002417: 05,3401           00077        LOW6               OCT      77
002418: 05,3402           07700        MID6               OCT      7700
002419:
002420:    4715                                           SETLOC   NVSUBEND   +2
002421:    4715           47634        KILMONON           CS       BIT15                                 #  FORCE BIT 15 OF MONSAVE1 TO 1.
002422:    4716           00004                           INHINT                                         #          THIS IS THE KILL MONITOR BIT.
002423:    4717           70306                           MASK     MONSAVE1
002424:    4720           67634                           AD       BIT15
002425:    4721           54306                           TS       MONSAVE1
002426:    4722           00003                           RELINT
002427:    4723           00002                           TC       Q
002428:
002429:
002430:
002431:                                                                                                  #  LOADSTAT  +0 INACTIVE (WAITING FOR DATA). SET BY NVSUB
002432:                                                                                                  #            +1  PROCEED NO DATA. SET BY SPECIAL VERB
002433:                                                                                                  #           -1 TERMINATE   SET BY SPECIAL VERB
002434:                                                                                                  #           -0 DATA IN   SET BY END OF LOAD ROUTINE
002435:
002436:
002437:
002438:                                                                                                  #  L  TC ENDIDLE  (FIXED FIXED)
002439:                                                                                                  #  ROUTINES THAT REQUEST LOADS THROUGH NVSUB SHOULD USE ENDIDLE WHILE
002440:                                                                                                  #  WAITING FOR THE DATA TO BE LOADED. ENDIDLE PUTS CURRENT JOB TO SLEEP.
002441:                                                                                                  #  ENDIDLE CANNOT BE CALLED FROM ERASABLE MEMORY, SINCE JOBSLEEP AND
002442:                                                                                                  #  JOBWAKE CAN HANDLE ONLY FIXED MEMORY.
002443:                                                                                                  #  RECALTST TESTS LOADSTAT AND WAKES JOB UP TO,
002444:                                                                                                  #  L+1      FOR TERMINATE
002445:                                                                                                  #  L+2      FOR PROCEED WITHOUT DATA
002446:                                                                                                  #  L+3      FOR DATA IN
002447:                                                                                                  #  IT DOES NOTHING     IF LOADSTAT INDICATES WAITING FOR DATA.
002448:
002449:    4724           37652        ENDIDLE            CAF      ONE
002450:    4725           54277                           TS       DSPLOCK
002451:    4726           22004                           LXCH     FBANK
002452:    4727           56002                           XCH      Q
002453:    4730           52120                           DXCH     BUF2
002454:    4731           04113                           TC       MAKECADR
002455:    4732           54323                           TS       CADRSTOR
002456:    4733           04331                           TC       JOBSLEEP
002457:
002458:
002459:
002460:    4734           04353        ENDINST            TC       ENDOFJOB
002461:
002462:                                                                                                  #  DATAWAIT IS AN ALTERNATIVE TO ENDIDLE, IT RETURNS IMMEDIATELY IF
002463:                                                                                                  #  LOADSTAT INDICATES THAT DATA IS ALREADY IN, OR PROCEED OR TERMINATE HAS
002464:                                                                                                  #  BEEN EXECUTED. RETURN FORMAT IS SAME AS FOR ENDIDLE.
002465:                                                                                                  #  DATAWAIT CANNOT BE CALLED FROM ERASABLE MEMORY, SINCE JOBSLEEP
002466:                                                                                                  #  AND JOBWAKE CAN HANDLE ONLY FIXED MEMORY.
002467:                                                                                                  #  DATAWAIT SHOULD BE USED ONLY AFTER REQUESTING A LOAD VERB.
002468:
002469:    4735           10301        DATAWAIT           CCS      LOADSTAT
002470:
002471:    4736           14743                           TCF      DATWAIT1                              #  PROCEED. RETURN TO L+2.
002472:    4737           14724                           TCF      ENDIDLE                               #  STILL WAITING. GO TO SLEEP.
002473:    4740           00002                           TC       Q                                     #  TERMINATE. RETURN TO L+1.
002474:    4741           50002                           INDEX    Q                                     #  DATA IN. RETURN TO L+3.
002475:    4742           00002                           TC       2
002476:    4743           50002        DATWAIT1           INDEX    Q                                     #  RETURN TO L+2.
002477:    4744           00001                           TC       1
002478:
002479:                                                                                                  #  DATAWAIT DOES NOT RELEASE DISPLAY SYST. IT IS RELEASED AT END OF NVSUB
002480:                                                                                                  #  INITIATED LOAD, IF ENDIDLE WAS NOT USED.
002481:
002482:
002483:
002484: 05,3403                                           SETLOC   MID6       +1
002485:                                                                                                  #  DSPMM PLACE MAJOR MODE CODE INTO MODREG
002486:
002487: 05,3403           35472        DSPMM1             CAF      MD1                                   #  GETS HERE THRU DSPMM (STANDARD LEAD IN)
002488: 05,3404           56264                           XCH      DSPCOUNT
002489: 05,3405           54124                           TS       DSPMMTEM                              #  SAVE DSPCOUNT
002490: 05,3406           30276                           CA       MODREG
002491: 05,3407           22002                           LXCH     Q
002492: 05,3410           03255                           TC       DSP2BIT
002493: 05,3411           56124                           XCH      DSPMMTEM                              #  RESTORE DSPCOUNT
002494: 05,3412           54264                           TS       DSPCOUNT
002495: 05,3413           00001        DSPMMEND           TC       L
002496:
002497:
002498:
002499:                                                                                                  #  RECALTST IS ENTERED DIRECTLY AFTER DATA IS
002500:                                                                                                  #  LOADED, TERMINATE VERB IS EXECUTED, OR THE PROCEED WITHOUT DATA VERB IS
002501:                                                                                                  #  EXECUTED. IT WAKES UP JOB THAT DID TC ENDIDLE.
002502:
002503:                                                                                                  #  IF NVSUB INITIATED LOAD, AND ENDIDLE WAS NOT USED, THEN IT RELEASES
002504:                                                                                                  #  DISPLAY SYST. (NEEDED FOR DATAWAIT)
002505:
002506: 04,3416                                           SETLOC   SWTAB      +4
002507:
002508: 04,3416           10323        RECALTST           CCS      CADRSTOR
002509: 04,3417           03424                           TC       RECAL1
002510: 04,3420           04353                           TC       ENDOFJOB                              #  NORMAL EXIT IF KEYBOARD INITIATED
002511: 04,3421           03424                           TC       RECAL1
002512: 04,3422           54323                           TS       CADRSTOR                              #  -0. CONCLUSION OF NVSUB INITIATED LOAD.
002513: 04,3423           03442                           TC       RECAL3                                #  +0 INTO CADRSTOR. RELEASE DISPLAY,
002514:                                                                                                  #     AND ENDOFJOB. NEEDED FOR DATAWAIT.
002515: 04,3424           37657        RECAL1             CAF      ZERO
002516: 04,3425           56323                           XCH      CADRSTOR
002517: 04,3426           00004                           INHINT
002518: 04,3427           04335                           TC       JOBWAKE
002519: 04,3430           10301                           CCS      LOADSTAT
002520: 04,3431           03446                           TC       DOPROC                                #  + PROCEED WITHOUT DATA
002521:
002522: 04,3432           04353                           TC       ENDOFJOB                              #  PATHALOGICAL CASE EXIT
002523: 04,3433           03444                           TC       DOTERM                                #  -   TERMINATE
002524: 04,3434           37651                           CAF      TWO
002525: 04,3435           50071        RECAL2             INDEX    LOCCTR
002526: 04,3436           60150                           AD       LOC                                   #  LOC IS + FOR BASIC JOBS
002527: 04,3437           50071                           INDEX    LOCCTR
002528: 04,3440           54150                           TS       LOC
002529: 04,3441           00003                           RELINT
002530: 04,3442           05615        RECAL3             TC       RELDSP1                               #  DOES NOT SEARCH LIST
002531: 04,3443           04353                           TC       ENDOFJOB
002532:
002533: 04,3444           37657        DOTERM             CAF      ZERO
002534: 04,3445           03435                           TC       RECAL2
002535:
002536: 04,3446           37652        DOPROC             CAF      ONE
002537: 04,3447           03435                           TC       RECAL2
002538:
002539:                                                                                                  #  THE FOLLOWING REFERS TO THE NOUN TABLES
002540:
002541:
002542:
002543:                                                                                                  #  COMPONENT CODE NUMBER           INTERPRETATION
002544:
002545:                                                                                                  #  00000                           1 COMPONENT
002546:                                                                                                  #  00001                           2 COMPONENT (EACH S P)
002547:                                                                                                  #  00010                           3 COMPONENT (EACH SP)
002548:
002549:
002550:
002551:                                                                                                  #  SF ROUTINE CODE NUMBER          INTERPRETATION
002552:
002553:                                                                                                  #  00000    OCTAL ONLY
002554:                                                                                                  #  00001    STRAIGHT FRACTIONAL
002555:                                                                                                  #  00010    DEGREES (XXX.XX)
002556:                                                                                                  #  00011    ARITHMETIC SF
002557:                                                                                                  #  00100    ARITH DP1   OUT(MULT BY 2/14 AT END)     IN (STRAIGHT)
002558:                                                                                                  #  00101    ARITH DP2   OUT (STRAIGHT)               IN (SL 7 AT END)
002559:                                                                                                  #  00110    OPTICS DEGREES(XX.XXX MAX 89.999) OR (XXX.XX MAX 179.99)
002560:                                                                                                  #  00111    ARITH DP3   OUT (SL 7 AT END)        IN ( STRAIGHT)
002561:                                                                                                  #  END OF SF ROUTINE CODE NUMBERS
002562:
002563:                                                                                                  #  SF CONSTANT CODE NUMBER         INTERPRETATION
002564:
002565:                                                                                                  #  00000                           WHOLE
002566:                                                                                                  #  00000                           TIME SEC(XXX.XX)SAME AS WHOLE(ARITH DP1)
002567:                                                                                                  #  00001                           TIME HOURS(XXX.XX) USE ARITH DP2
002568:                                                                                                  #  00010                           DEGREES
002569:                                                                                                  #  00010                           OPTICS DEGREES
002570:                                                                                                  #  00011                           GYRO DEGREES (XX.XXX)  USE ARITHDP3
002571:                                                                                                  #  00100                           GYRO BIAS DRIFT .BBXXXXX MILLIRAD/SEC
002572:                                                                                                  #  00101                           GYRO AXIS ACCEL. DRIFT
002573:                                                                                                  #                                  .BBXXXXX (MILLIRAD/SEC) / (CM/SEC SEC)
002574:                                                                                                  #  00110                           PIPA BIAS X.XXXX CM/SEC SEC
002575:                                                                                                  #  00111                           PIPA SCALE FACTOR ERROR
002576:                                                                                                  #                                      XXXXX. PARTS/MILLION
002577:                                                                                                  #  01000                           POSITION(XXXX.X KILOMETERS) USE ARITHDP3
002578:                                                                                                  #  01001                           VELOCITY(XXXX.X METERS/SEC) USE ARITHDP2
002579:                                                                                                  #  01010                           TIME HOURS(XXX.XX)WEEKS INSIDE(ARITHDP2)
002580:                                                                                                  #  01011                           ELEVATION DEGREES(89.999MAX) USE ARITH
002581:                                                                                                  #  END OF SF CONSTANT CODE NUMBERS
002582:
002583:
002584:
002585:                                                                                                  #  FOR GREATER THAN SINGLE PRECISION SCALES, PUT ADDRESS OF MAJOR PART INTO
002586:                                                                                                  #  NOUN TABLES.
002587:                                                                                                  #  OCTAL LOADS PLACE +0 INTO MAJOR PART, DATA INTO MINOR PART.
002588:                                                                                                  #  OCTAL DISPLAYS SHOW MINOR PART ONLY.
002589:                                                                                                  #  TO GET AT BOTH MAJOR AND MINOR PARTS (IN OCTAL), USE NOUN 01.
002590:
002591:                                                                                                  #  THE FOLLOWING ROUTINES ARE FOR READING THE NOUN TABLES AND THE SF TABLES
002592:                                                                                                  #  (WHICH ARE IN A SEPARATE BANK FROM THE REST OF PINBALL). THESE READING
002593:                                                                                                  #  ROUTINES ARE IN THE SAME BANK AS THE TABLES. THEY ARE CALLED BY DXCH Z.
002594:
002595:
002596:
002597:                                                                                                  #  LODNNTAB LOADS NNADTEM WITH THE NNADTAB ENTRY, NNTYPTEM WITH THE
002598:                                                                                                  #  NNTYPTAB ENTRY. IF THE NOUN IS MIXED, IDAD1TEM IS LOADED WITH THE FIRST
002599:                                                                                                  #  IDADDTAB ENTRY, IDAD2TEM THE SECOND IDADDTAB ENTRY, IDAD3TEM THE THIRD
002600:                                                                                                  #  IDADDTAB ENTRY, RUTMXTEM WITH THE RUTMXTAB ENTRY. MIXBR IS SET FOR
002601:                                                                                                  #  MIXED OR NORMAL NOUN.
002602:
002603:    4745                                           SETLOC   DATWAIT1   +2
002604:
002605:    4745           52136        LODNNTAB           DXCH     IDAD2TEM                              #  SAVE RETURN INFO IN IDAD2TEM, IDAD3TEM.
002606:    4746           50267                           INDEX    NOUNREG
002607:    4747           35017                           CAF      NNADTAB
002608:    4750           54132                           TS       NNADTEM
002609:    4751           50267                           INDEX    NOUNREG
002610:    4752           35117                           CAF      NNTYPTAB
002611:    4753           54133                           TS       NNTYPTEM
002612:    4754           40267                           CS       NOUNREG
002613:    4755           65003                           AD       MIXCON
002614:    4756           00006                           EXTEND
002615:    4757           64763                           BZMF     LODMIXNN                              #  NOUN NUMBER G/E FIRST MIXED NOUN
002616:    4760           37652                           CAF      ONE                                   #  NOUN NUMBER L/ FIRST MIXED NOUN
002617:    4761           54124                           TS       MIXBR                                 #  NORMAL.  +1 INTO MIXBR.
002618:    4762           05001                           TC       LODNLV
002619:    4763           37651        LODMIXNN           CAF      TWO                                   #  MIXED.  +2 INTO MIXBR.
002620:    4764           54124                           TS       MIXBR
002621:    4765           50267                           INDEX    NOUNREG
002622:    4766           35312                           CAF      RUTMXTAB   -55
002623:    4767           54137                           TS       RUTMXTEM
002624:    4770           36426                           CAF      LOW10
002625:    4771           70132                           MASK     NNADTEM
002626:    4772           54002                           TS       Q                                     #  TEMP
002627:    4773           50000                           INDEX    A
002628:    4774           35277                           CAF      IDADDTAB
002629:    4775           54134                           TS       IDAD1TEM                              #  LOAD IDAD1TEM WITH FIRST IDADDTAB ENTRY
002630:    4776           00006                           EXTEND
002631:    4777           50002                           INDEX    Q                                     #  LOAD IDAD2TEM WITH 2ND IDADDTAB ENTRY
002632:    5000           35301                           DCA      IDADDTAB   +1                         #  LOAD IDAD3TEM WITH 3RD IDADDTAB ENTRY.
002633:    5001           52136        LODNLV             DXCH     IDAD2TEM                              #  PUT RETURN INFO INTO A, L.
002634:    5002           52006                           DXCH     Z
002635:
002636:    5003           00055        MIXCON             OCT      55                                    #  FIRST MIXED NOUN = 55.
002637:
002638:
002639:
002640:                                                                                                  #  GTSFOUT LOADS SFTEMP1, SFTEMP2 WITH THE DP SFOUTAB ENTRIES.
002641:
002642:    5004           52110        GTSFOUT            DXCH     SFTEMP1                               #  2X(SFCONUM) ARRIVES IN SFTEMP1.
002643:    5005           00006                           EXTEND
002644:    5006           50000                           INDEX    A
002645:    5007           35250                           DCA      SFOUTAB
002646:    5010           52110        SFCOM              DXCH     SFTEMP1
002647:    5011           52006                           DXCH     Z
002648:
002649:
002650:
002651:                                                                                                  #  GTSFIN LOADS SFTEMP1, SFTEMP2 WITH THE DP SFINTAB ENTRIES.
002652:
002653:    5012           52110        GTSFIN             DXCH     SFTEMP1                               #  2X(SFCONUM) ARRIVES IN SFTEMP1.
002654:    5013           00006                           EXTEND
002655:    5014           50000                           INDEX    A
002656:    5015           35220                           DCA      SFINTAB
002657:    5016           15010                           TCF      SFCOM
002658:
002659:
002660:
002661:                                                                                                  #  NN  NORMAL NOUNS
002662:    5017           00000        NNADTAB            OCT      00000                                 #  00 NOT IN USE
002663:    5020           40000                           OCT      40000                                 #  01 SPECIFY MACHINE ADDRESS (FRACTIONAL)
002664:    5021           40000                           OCT      40000                                 #  02 SPECIFY MACHINE ADDRESS (WHOLE)
002665:    5022           40000                           OCT      40000                                 #  03 SPECIFY MACHINE ADDRESS (DEGREES)
002666:    5023           40000                           OCT      40000                                 #  04 SPECIFY MACHINE ADDRESS (HOURS)
002667:    5024           40000                           OCT      40000                                 #  05 SPECIFY MACHINE ADDRESS (SECONDS)
002668:    5025           40000                           OCT      40000                                 #  06 SPECIFY MACHINE ADDRESS (GYRO DEG)
002669:    5026           40000                           OCT      40000                                 #  07 SPECIFY MACHINE ADDRESS (Y OPT DEG.)
002670:    5027           77776                           OCT      77776                                 #  10 CHANNEL TO BE SPECIFIED
002671:    5030           00000                           OCT      00000                                 #  11 SPARE
002672:    5031           00000                           OCT      00000                                 #  12 SPARE
002673:    5032           00000                           OCT      00000                                 #  13 SPARE
002674:    5033           00000                           OCT      00000                                 #  14 SPARE
002675:    5034           77777                           OCT      77777                                 #  15 INCREMENT MACHINE ADDRESS
002676:    5035           00024                           ECADR    TIME2                                 #  16 TIME SECONDS
002677:    5036           00024                           ECADR    TIME2                                 #  17 TIME HOURS
002678:    5037           00032                           ECADR    CDUX                                  #  20 ICDU
002679:    5040           00037                           ECADR    PIPAX                                 #  21 PIPAS
002680:    5041           00400                           ECADR    THETAD                                #  22 NEW ANGLES I
002681:    5042           00336                           ECADR    DSPTEM2                               #  23 DELTA ANGLES I
002682:    5043           00333                           ECADR    DSPTEM1                               #  24 DELTA TIME (SEC)
002683:    5044           00333                           ECADR    DSPTEM1                               #  25 CHECKLIST
002684:    5045           00333                           ECADR    DSPTEM1                               #  26 PRIO/DELAY, ADRES, BBCON
002685:    5046           01361                           ECADR    SMODE                                 #  27 SELF TEST ON/OFF SWITCH
002686:    5047           00333                           ECADR    DSPTEM1                               #  30 STAR NUMBERS
002687:    5050           01363                           ECADR    FAILREG                               #  31 FAILREG
002688:    5051           02166                           ECADR    TDEC                                  #  32 DECISION TIME (MIDCOURSE)
002689:    5052           02046                           ECADR    TET                                   #  33 EPHEMERIS TIME (MIDCOURSE)
002690:    5053           02174                           ECADR    MEASQ                                 #  34 MEASURED QUANTITY (MIDCOURSE)
002691:    5054           00333                           ECADR    DSPTEM1                               #  35 INBIT MESSAGE
002692:
002693:    5055           01462                           ECADR    LANDMARK                              #  36 LANDMARK DATA 1
002694:    5056           01465                           ECADR    LANDMARK   +3                         #  37 LANDMARK DATA 2
002695:    5057           00000                           OCT      00000                                 #  40 SPARE
002696:    5060           00000                           OCT      00000                                 #  41 SPARE
002697:    5061           00000                           OCT      00000                                 #  42 SPARE
002698:    5062           00000                           OCT      00000                                 #  43 SPARE
002699:    5063           00000                           OCT      00000                                 #  44 SPARE
002700:    5064           00000                           OCT      00000                                 #  45 SPARE
002701:    5065           00000                           OCT      00000                                 #  46 SPARE
002702:    5066           00000                           OCT      00000                                 #  47 SPARE
002703:    5067           00000                           OCT      00000                                 #  50 SPARE
002704:    5070           00000                           OCT      00000                                 #  51 SPARE
002705:    5071           01432                           ECADR    GBIASX                                #  52 GYRO BIAS DRIFT
002706:    5072           01435                           ECADR    ADIAX                                 #  53 GYRO INPUT AXIS ACCELERATION DRIFT
002707:    5073           01440                           ECADR    ADSRAX                                #  54 GYRO SPIN AXIS ACCELERATION DRIFT
002708:
002709:                                                                                                  #  NN  MIXED NOUNS
002710:    5074           02000                           OCT      02000                                 #  55 OCDU
002711:    5075           04002                           OCT      04002                                 #  56 UNCALLED MARK DATA (OCDU & TIME(SEC))
002712:    5076           02005                           OCT      02005                                 #  57 NEW ANGLES OCDU
002713:    5077           04007                           OCT      04007                                 #  60 DELTA GYRO ANGLES FOR PRELAUNCH
002714:    5100           02012                           OCT      02012                                 #  61 TARGET AZIMUTH AND ELEVATION
002715:    5101           02014                           OCT      02014                                 #  62 ICDUZ AND TIME(SEC)
002716:    5102           02016                           OCT      02016                                 #  63 OCDUX AND TIME(SEC)
002717:    5103           02020                           OCT      02020                                 #  64 OCDUY AND TIME(SEC)
002718:    5104           02022                           OCT      02022                                 #  65 SAMPLED TIME (HOURS AND SECONDS)
002719:                                                                                                  #       (FETCHED IN INTERRUPT)
002720:    5105           04024                           OCT      04024                                 #  66 SYSTEM TEST RESULTS
002721:    5106           04027                           OCT      04027                                 #  67 DELTA GYRO ANGLES
002722:    5107           04032                           OCT      04032                                 #  70 PIPA BIAS
002723:    5110           04035                           OCT      04035                                 #  71 PIPA SCALE FACTOR ERROR
002724:    5111           04040                           OCT      04040                                 #  72 DELTA POSITION
002725:    5112           04043                           OCT      04043                                 #  73 DELTA VELOCITY
002726:    5113           04046                           OCT      04046                                 #  74 MEASUREMENT DATA (MIDCOURSE)
002727:    5114           04051                           OCT      04051                                 #  75 MEASUREMENT DEVIATIONS (MIDCOURSE)
002728:    5115           04054                           OCT      04054                                 #  76 POSITION VECTOR
002729:    5116           04057                           OCT      04057                                 #  77 VELOCITY VECTOR
002730:
002731:
002732:
002733:                                                                                                  #  NN        NORMAL NOUNS
002734:    5117           00000        NNTYPTAB           OCT      00000                                 #  00 NOT IN USE
002735:    5120           00040                           OCT      00040                                 #  01 1COMP FRACTIONAL
002736:    5121           00140                           OCT      00140                                 #  02 1COMP WHOLE
002737:    5122           00102                           OCT      00102                                 #  03 1COMP DEGREES
002738:    5123           00241                           OCT      00241                                 #  04 1COMP HOURS
002739:    5124           00200                           OCT      00200                                 #  05 1COMP SECONDS
002740:    5125           00343                           OCT      00343                                 #  06 1COMP GYRO DEGREES
002741:    5126           00302                           OCT      00302                                 #  07 1COMP  Y OPT DEGREES
002742:    5127           00000                           OCT      00000                                 #  10 1COMP OCTAL ONLY
002743:    5130           00000                           OCT      00000                                 #  11        SPARE
002744:    5131           00000                           OCT      00000                                 #  12        SPARE
002745:    5132           00000                           OCT      00000                                 #  13        SPARE
002746:    5133           00000                           OCT      00000                                 #  14        SPARE
002747:    5134           00000                           OCT      00000                                 #  15 1COMP  OCTAL ONLY
002748:    5135           00200                           OCT      00200                                 #  16 1COMP  SECONDS
002749:    5136           00241                           OCT      00241                                 #  17 1COMP  HOURS
002750:    5137           04102                           OCT      04102                                 #  20 3COMP  DEGREES
002751:    5140           04140                           OCT      04140                                 #  21 3COMP  WHOLE
002752:    5141           04102                           OCT      04102                                 #  22 3COMP  DEGREES
002753:    5142           04102                           OCT      04102                                 #  23 3COMP  DEGREES
002754:    5143           00200                           OCT      00200                                 #  24 1COMP  SECONDS
002755:    5144           00140                           OCT      00140                                 #  25 1COMP  WHOLE
002756:    5145           04000                           OCT      04000                                 #  26 3COMP  OCTAL ONLY
002757:    5146           00140                           OCT      00140                                 #  27 1COMP  WHOLE
002758:    5147           04140                           OCT      04140                                 #  30 3COMP  WHOLE
002759:    5150           04000                           OCT      04000                                 #  31 3COMP  OCTAL ONLY
002760:    5151           00252                           OCT      00252                                 #  32 1COMP  TIME WEEKS
002761:    5152           00252                           OCT      00252                                 #  33 1COMP  TIME WEEKS
002762:    5153           00350                           OCT      00350                                 #  34 1COMP  POISTION
002763:    5154           04000                           OCT      04000                                 #  35 3COMP  OCTAL ONLY
002764:    5155           04000                           OCT      04000                                 #  36 3COMP  OCTAL ONLY
002765:    5156           04000                           OCT      04000                                 #  37 3COMP  OCTAL ONLY
002766:    5157           00000                           OCT      00000                                 #  40        SPARE
002767:    5160           00000                           OCT      00000                                 #  41        SPARE
002768:    5161           00000                           OCT      00000                                 #  42        SPARE
002769:    5162           00000                           OCT      00000                                 #  43        SPARE
002770:    5163           00000                           OCT      00000                                 #  44        SPARE
002771:    5164           00000                           OCT      00000                                 #  45        SPARE
002772:    5165           00000                           OCT      00000                                 #  46        SPARE
002773:    5166           00000                           OCT      00000                                 #  47        SPARE
002774:    5167           00000                           OCT      00000                                 #  50        SPARE
002775:    5170           00000                           OCT      00000                                 #  51        SPARE
002776:    5171           04144                           OCT      04144                                 #  52 3COMP  GYRO BIAS DRIFT
002777:    5172           04145                           OCT      04145                                 #  53 3COMP  GYRO AXIS ACCEL. DRIFT
002778:    5173           04145                           OCT      04145                                 #  54 3COMP  GYRO AXIS ACCEL. DRIFT
002779:
002780:                                                                                                  #  NN        MIXED NOUNS
002781:    5174           00102                           OCT      00102                                 #  55 2COMP  DEGREES, Y OPT DEGREES
002782:    5175           00102                           OCT      00102                                 #  56 3COMP  DEGREES, Y OPT DEGREES, SECS
002783:    5176           00102                           OCT      00102                                 #  57 2COMP  DEGREES, Y OPT DEGREES
002784:    5177           06143                           OCT      06143                                 #  60 3COMP  GYRO DEGREES FOR EACH
002785:    5200           00542                           OCT      00542                                 #  61 2COMP  DEGREES, ELEVATION DEGREES
002786:    5201           00002                           OCT      00002                                 #  62 2COMP  DEGREES, SECS
002787:    5202           00002                           OCT      00002                                 #  63 2COMP  DEGREES, SECS
002788:    5203           00002                           OCT      00002                                 #  64 2COMP  Y OPT DEGREES, SECS
002789:    5204           00001                           OCT      00001                                 #  65 2COMP  HOURS, SECONDS
002790:    5205           00000                           OCT      00000                                 #  66 3COMP  WHOLE, FRACTIONAL, WHOLE
002791:    5206           06143                           OCT      06143                                 #  67 3COMP  GYRO DEGREES FOR EACH
002792:    5207           14306                           OCT      14306                                 #  70 3COMP  PIPA BIAS FOR EACH
002793:    5210           16347                           OCT      16347                                 #  71 3COMP  PIPA SCALE FACTOR ERR.FOR EACH
002794:    5211           20410                           OCT      20410                                 #  72 3COMP  POSITION FOR EACH
002795:    5212           22451                           OCT      22451                                 #  73 3COMP  VELOCITY FOR EACH
002796:    5213           00412                           OCT      00412                                 #  74 3COMP  TIME WEEKS, POSITION, WHOLE
002797:    5214           20450                           OCT      20450                                 #  75 3COMP  POSITION, VELOCITY, POSITION
002798:    5215           20410                           OCT      20410                                 #  76 3COMP  POSITION FOR EACH
002799:    5216           22451                           OCT      22451                                 #  77 3COMP  VELOCITY FOR EACH
002800:
002801:
002802:
002803:    5217           00006        SFINTAB            OCT      00006                                 #  WHOLE,TIME(SEC)
002804:    5220           03240                           OCT      03240
002805:    5221           00253                           OCT      00253                                 #  TIME HOURS ( = 1.3..... )
002806:    5222           25124                           OCT      25124                                 #    (POINT BETWEEN BITS 7-8 )
002807:    5223           00000                           OCT      0                                     #  DEGREES (SFCON IN DEGINSF)
002808:    5224           00000                           OCT      0
002809:    5225           10707                           OCT      10707                                 #  GYRO DEGREES
002810:    5226           03434                           OCT      03434
002811:    5227           00001                           OCT      00001                                 #  GYRO BIAS DRIFT
002812:    5230           02133                           OCT      02133
002813:    5231           00011                           OCT      00011                                 #  GYRO AXIS ACCEL. DRIFT
002814:    5232           30322                           OCT      30322
002815:    5233           00004                           OCT      00004                                 #  PIPA BIAS
002816:    5234           14021                           OCT      14021
002817:    5235           00314                           OCT      00314                                 #  PIPA SCALE ERROR.
002818:    5236           31463                           OCT      31463
002819:    5237           23420                           OCT      23420                                 #  POSITION
002820:    5240           00000                           OCT      00000
002821:    5241           00201                           OCT      00201                                 #  VELOCITY
002822:    5242           30327                           OCT      30327                                 #  ( POINT BETWEEN BITS 7-8 )
002823:    5243           01371                           OCT      01371                                 #  TIME WEEKS
002824:    5244           34750                           OCT      34750                                 #  ( POINT BETWEEN BITS 7-8 )
002825:    5245           00001                           OCT      00001                                 #  ELEVATION DEGREES
002826:    5246           03434                           OCT      03434
002827:                                                                                                  #  END OF SFINTAB
002828:
002829:
002830:
002831:    5247           05174        SFOUTAB            OCT      05174                                 #  WHOLE, TIME(SEC)
002832:    5250           13261                           OCT      13261
002833:    5251           27670                           OCT      27670                                 #  TIME HOURS
002834:    5252           31357                           OCT      31357
002835:    5253           00000                           OCT      0                                     #  DEGREES
002836:    5254           00000                           OCT      0
002837:    5255           00714                           OCT      00714                                 #  GYRO DEGREES
002838:    5256           31463                           OCT      31463                                 #  (POINT BETWEEN BITS 7-8)
002839:    5257           35753                           OCT      35753                                 #  GYRO BIAS DRIFT
002840:    5260           32323                           OCT      32323
002841:    5261           03216                           OCT      03216                                 #  GYRO AXIS ACCEL. DRIFT
002842:    5262           06400                           OCT      06400
002843:    5263           07237                           OCT      07237                                 #  PIPA BIAS
002844:    5264           37776                           OCT      37776
002845:    5265           00120                           OCT      00120                                 #  PIPA SCALE ERROR
002846:    5266           00000                           OCT      00000
002847:    5267           00321                           OCT      00321                                 #  POSITION
002848:    5270           26706                           OCT      26706                                 #  ( POINT BETWEEN BITS 7-8 )
002849:    5271           37441                           OCT      37441                                 #  VELOCITY
002850:    5272           14247                           OCT      14247
002851:    5273           05300                           OCT      05300                                 #  TIME WEEKS
002852:    5274           20305                           OCT      20305
002853:    5275           34631                           OCT      34631                                 #  ELEVATION DEGREES
002854:    5276           23146                           OCT      23146
002855:                                                                                                  #  END OF SFOUTAB
002856:
002857:
002858:                                                                                                  #  MIXNOUN   SF ROUT
002859:    5277           00036        IDADDTAB           ECADR    OPTX                                  #  01       DEGREES
002860:    5300           00035                           ECADR    OPTY                                  #  01       Y OPT DEGREES
002861:    5301           00333                           ECADR    DSPTEM1                               #  02       DEGREES
002862:    5302           00334                           ECADR    DSPTEM1    +1                         #  02       Y OPT DEGREES
002863:    5303           00335                           ECADR    DSPTEM1    +2                         #  02       SEC
002864:    5304           00404                           ECADR    DESOPTS                               #  03       DEGREES
002865:    5305           00403                           ECADR    DESOPTT                               #  03       Y OPT DEGREES
002866:    5306           02500                           ECADR    OGC                                   #  04       GYRO DEGREES
002867:    5307           02502                           ECADR    IGC                                   #  04       GYRO DEGREES
002868:    5310           02504                           ECADR    MGC                                   #  04       GYRO DEGREES
002869:    5311           00333                           ECADR    DSPTEM1                               #  05       DEGREES
002870:    5312           00334                           ECADR    DSPTEM1    +1                         #  05       ELEVATION DEGREES
002871:    5313           00034                           ECADR    CDUZ                                  #  06       DEGREES
002872:    5314           00024                           ECADR    TIME2                                 #  06       SEC
002873:    5315           00036                           ECADR    OPTX                                  #  07       DEGREES
002874:    5316           00024                           ECADR    TIME2                                 #  07       SEC
002875:    5317           00035                           ECADR    OPTY                                  #  10       Y OPT DEGREES
002876:    5320           00024                           ECADR    TIME2                                 #  10       SEC
002877:    5321           00013                           ECADR    SAMPTIME                              #  11       HOURS
002878:    5322           00013                           ECADR    SAMPTIME                              #  11       SECONDS
002879:    5323           00336                           ECADR    DSPTEM2                               #  12       WHOLE
002880:    5324           00337                           ECADR    DSPTEM2    +1                         #  12       FRACTIONAL
002881:    5325           00340                           ECADR    DSPTEM2    +2                         #  12       WHOLE
002882:    5326           00405                           ECADR    DELVX                                 #  13       GYRO DEGREES
002883:    5327           00407                           ECADR    DELVX      +2                         #  13       GYRO DEGREES
002884:    5330           00411                           ECADR    DELVX      +4                         #  13       GYRO DEGREES
002885:    5331           01443                           ECADR    PBIASX                                #  14       PIPA BIAS
002886:    5332           01445                           ECADR    PBIASY                                #  14       PIPA BIAS
002887:    5333           01447                           ECADR    PBIASZ                                #  14       PIPA BIAS
002888:    5334           01444                           ECADR    PIPASCFX                              #  15       PIPA SCALE FACTOR ERROR
002889:    5335           01446                           ECADR    PIPASCFY                              #  15       PIPA SCALE FACTOR ERROR
002890:    5336           01450                           ECADR    PIPASCFZ                              #  15       PIPA SCALE FACTOR ERROR
002891:    5337           02052                           ECADR    DELR                                  #  16       POSITION
002892:    5340           02054                           ECADR    DELR       +2                         #  16       POSITION
002893:    5341           02056                           ECADR    DELR       +4                         #  16       POSITION
002894:    5342           02060                           ECADR    DELVEL                                #  17       VELOCITY
002895:    5343           02062                           ECADR    DELVEL     +2                         #  17       VELOCITY
002896:    5344           02064                           ECADR    DELVEL     +4                         #  17       VELOCITY
002897:    5345           02166                           ECADR    TDEC                                  #  20       TIME WEEKS
002898:    5346           02174                           ECADR    MEASQ                                 #  20       POSITION
002899:    5347           02200                           ECADR    MEASMODE                              #  20       WHOLE
002900:    5350           00333                           ECADR    DSPTEM1                               #  21       POSITION
002901:    5351           00335                           ECADR    DSPTEM1    +2                         #  21       VELOCITY
002902:    5352           02176                           ECADR    DELTAQ                                #  21       POSITION
002903:    5353           00333                           ECADR    DSPTEM1                               #  22       POSITION
002904:    5354           00335                           ECADR    DSPTEM1    +2                         #  22       POSITION
002905:    5355           00337                           ECADR    DSPTEM1    +4                         #  22       POSITION
002906:    5356           00333                           ECADR    DSPTEM1                               #  23       VELOCITY
002907:    5357           00335                           ECADR    DSPTEM1    +2                         #  23       VELOCITY
002908:    5360           00337                           ECADR    DSPTEM1    +4                         #  23       VELOCITY
002909:    5361           00000                           OCT      00000                                 #           SPARE
002910:    5362           00000                           OCT      00000                                 #           SPARE
002911:    5363           00000                           OCT      00000                                 #           SPARE
002912:    5364           00000                           OCT      00000                                 #           SPARE
002913:    5365           00000                           OCT      00000                                 #           SPARE
002914:    5366           00000                           OCT      00000                                 #           SPARE
002915:                                                                                                  #  END OF IDADDTAB
002916:
002917:
002918:
002919:                                                                                                  #  MIXNOUN  SF ROUT
002920:    5367           00302        RUTMXTAB           OCT      00302                                 #  01  DEGREES, Y OPT DEGREES
002921:    5370           10302                           OCT      10302                                 #  02  DEGREES, Y OPT DEGREES, SECONDS
002922:    5371           00302                           OCT      00302                                 #  03  DEGREES, Y OPT DEGREES
002923:    5372           16347                           OCT      16347                                 #  04  GYRO DEGREES (FOR EACH)
002924:    5373           00142                           OCT      00142                                 #  05  DEGREES, ELEVATION DEGREES
002925:    5374           00202                           OCT      00202                                 #  06  DEGREES, SECONDS
002926:    5375           00202                           OCT      00202                                 #  07  DEGREES, SECONDS
002927:    5376           00206                           OCT      00206                                 #  10  Y OPT DEGREES, SECONDS
002928:    5377           00205                           OCT      00205                                 #  11  HOURS, SECONDS
002929:    5400           06043                           OCT      06043                                 #  12  WHOLE, FRACTIONAL, WHOLE
002930:    5401           16347                           OCT      16347                                 #  13  GYRO DEGREES (FOR EACH)
002931:    5402           06143                           OCT      06143                                 #  14  PIPA BIAS (FOR EACH)
002932:    5403           06143                           OCT      06143                                 #  15  PIPA SCALE FACTOR ERROR (FOR EACH)
002933:    5404           16347                           OCT      16347                                 #  16  POSITION (FOR EACH)
002934:    5405           12245                           OCT      12245                                 #  17  VELOCITY (FOR EACH)
002935:    5406           06345                           OCT      06345                                 #  20  TIME WEEKS, POSITION, WHOLE
002936:    5407           16247                           OCT      16247                                 #  21  POSITION, VELOCITY, POSITION
002937:    5410           16347                           OCT      16347                                 #  22  POSITION (FOR EACH)
002938:    5411           12245                           OCT      12245                                 #  23  VELOCITY (FOR EACH)
002939:                                                                                                  #  END OF RUTMXTAB
002940:
002941:
002942:
002943:                                                                                                  #  MISCELLANEOUS SERVICE ROUTINES IN FIXED/FIXED
002944:
002945:
002946:
002947:                                                                                                  #  SETNCADR      E CADR ARRIVES IN A. IT IS STORED IN NOUNCADR. EBANK BITS
002948:                                                                                                  #                ARE SET.  E ADRES IS DERIVED AND PUT INTO NOUNADD.
002949:
002950:    5412           54304        SETNCADR           TS       NOUNCADR                              #  STORE ECADR
002951:    5413           54003                           TS       EBANK                                 #  SET EBANK BITS
002952:    5414           75466                           MASK     LOW8
002953:    5415           65467                           AD       OCT1400
002954:    5416           54131                           TS       NOUNADD                               #  PUT E ADRES INTO NOUNADD
002955:    5417           00002                           TC       Q
002956:
002957:
002958:
002959:                                                                                                  #  SETNADD       GETS E CADR FROM NOUNCADR, SETS EBANK BITS, DERIVES
002960:                                                                                                  #                E ADRES AND PUTS IT INTO NOUNADD.
002961:
002962:    5420           30304        SETNADD            CA       NOUNCADR
002963:    5421           15413                           TCF      SETNCADR   +1
002964:
002965:
002966:
002967:                                                                                                  #  SETEBANK      E CADR ARRIVES IN A. EBANK BITS ARE SET. E ADRES IS
002968:                                                                                                  #                DERIVED AND LEFT IN A.
002969:
002970:    5422           54003        SETEBANK           TS       EBANK      ANK        BITS
002971:    5423           75466                           MASK     LOW8
002972:    5424           65467                           AD       OCT1400    S          LEFT
002973:    5425           00002                           TC       Q
002974:
002975:
002976:
002977:    5426           00016        R1D1               OCT      16
002978:    5427           00011        R2D1               OCT      11
002979:    5430           00004        R3D1               OCT      4
002980:
002981:    5431           54020        RIGHT5             TS       CYR
002982:    5432           40020                           CS       CYR
002983:    5433           40020                           CS       CYR
002984:    5434           40020                           CS       CYR
002985:    5435           40020                           CS       CYR
002986:    5436           56020                           XCH      CYR
002987:    5437           00002                           TC       Q
002988:
002989:    5440           54022        LEFT5              TS       CYL
002990:    5441           40022                           CS       CYL
002991:
002992:    5442           40022                           CS       CYL
002993:    5443           40022                           CS       CYL
002994:    5444           40022                           CS       CYL
002995:    5445           56022                           XCH      CYL
002996:    5446           00002                           TC       Q
002997:
002998:    5447           60000        SLEFT5             DOUBLE
002999:    5450           60000                           DOUBLE
003000:    5451           60000                           DOUBLE
003001:    5452           60000                           DOUBLE
003002:    5453           60000                           DOUBLE
003003:    5454           00002                           TC       Q
003004:
003005:
003006:
003007:    5455           00037        LOW5               OCT      37
003008:    5456           01740        MID5               OCT      1740
003009:    5457           76000        HI5                OCT      76000                                 #  MUST STAY HERE
003010:
003011:    5460           04276        TCNOVAC            TC       NOVAC
003012:    5461           04451        TCWAIT             TC       WAITLIST
003013:    5462           04505        TCTSKOVR           TC       TASKOVER
003014:    5463           04307        TCFINDVC           TC       FINDVAC
003015:
003016:
003017:
003018:    5464           30000        CHRPRIO            OCT      30000                                 #  EXEC PRIORITY OF CHARIN
003019:
003020:
003021:
003022:    5465           03777        LOW11              OCT      3777
003023:    5466     5465               B12-1              EQUALS   LOW11
003024:    5466           00377        LOW8               OCT      377
003025:    5467           01400        OCT1400            OCT      1400
003026:
003027:
003028:
003029:    5470           00023        VD1                OCT      23
003030:    5471           00021        ND1                OCT      21
003031:    5472           00025        MD1                OCT      25
003032:
003033:    5473           00012        BINCON             DEC      10         B-14
003034:
003035:    5474           37644        FALTON             CA       BIT7                                  #  TURN ON OPERATOR ERROR LIGHT
003036:    5475           00006                           EXTEND
003037:    5476           05011                           WOR      DSALMOUT                              #  BIT 7 OF CHANNEL 11
003038:    5477           00002                           TC       Q
003039:
003040:    5500           47644        FALTOF             CS       BIT7                                  #  TURN OFF OPERATOR ERROR LIGHT
003041:    5501           00006                           EXTEND
003042:
003043:    5502           03011                           WAND     DSALMOUT                              #  BIT 7 OF CHANNEL 11
003044:    5503           00002                           TC       Q
003045:
003046:    5504           37646        RELDSPON           CAF      BIT5                                  #  TURN ON KEY RELEASE LIGHT
003047:    5505           00006                           EXTEND
003048:    5506           05011                           WOR      DSALMOUT                              #  BIT 5 OF CHANNEL 11
003049:    5507           00002                           TC       Q
003050:
003051:    5510           00006        LODSAMPT           EXTEND
003052:    5511           30025                           DCA      TIME2
003053:    5512           52014                           DXCH     SAMPTIME
003054:    5513           00002                           TC       Q
003055:
003056:
003057:
003058:    5514           00006        TPSL1              EXTEND                                         #  SHIFTS MPAC, +1, +2 LEFT 1
003059:    5515           30142                           DCA      MPAC       +1                         #  LEAVES OVFIND SET TO +/- 1 FOR OF/UF
003060:    5516           20142                           DAS      MPAC       +1
003061:    5517           60140                           AD       MPAC
003062:    5520           26140                           ADS      MPAC
003063:    5521           54007                           TS       7                                     #  TS A DOES NOT CHANGE A ON OF/UF.
003064:    5522           00002                           TC       Q                                     #  NO NET OF/UF
003065:    5523           54105                           TS       OVFIND                                #  OVFIND SET TO +/- 1 FOR OF/UF
003066:    5524           00002                           TC       Q
003067:
003068:
003069:
003070:    5525           37645        FLASHON            CAF      BIT6                                  #  TURN ON V/N FLASH
003071:    5526           00006                           EXTEND                                         #  BIT 6 OF CHANNEL 11
003072:    5527           05011                           WOR      DSALMOUT
003073:    5530           00002                           TC       Q
003074:
003075:
003076:
003077:    5531           47645        FLASHOFF           CS       BIT6                                  #  TURN OFF V/N FLASH
003078:    5532           00006                           EXTEND
003079:    5533           03011                           WAND     DSALMOUT                              #  BIT 6 OF CHANNEL 11
003080:    5534           00002                           TC       Q
003081:
003082:                                                                                                  #  INTERNAL ROUTINES THAT USE THE KEYBOARD AND DISPLAY SYSTEM(THRU
003083:                                                                                                  #  NVSUB) MUST  TC GRABDSP  BEFOREHAND , TO GRAB THE DISPLAY SYSTEM AND
003084:                                                                                                  #  MAKE IT BUSY TO OTHER INTERNAL USERS.
003085:
003086:                                                                                                  #        WHEN FINISHED , THERE MUST BE A TC FREEDSP , TO RELEASE THE
003087:                                                                                                  #  SYSTEM FOR OTHER INTERNAL USERS.
003088:
003089:                                                                                                  #        THE CALLING SEQUENCES ARE
003090:                                                                                                  #  L        TC     GRABDSP
003091:                                                                                                  #  L+1      RETURN HERE WHEN SYSTEM IS ALREADY GRABBED
003092:                                                                                                  #  L+2      RETURN HERE MEANS YOU HAVE IT
003093:
003094:                                                                                                  #  L        TC     NVSUB
003095:                                                                                                  #  L+1      RETURN HERE IF OPERATOR HAS INTERVENED
003096:                                                                                                  #  L+2      RETURN HERE AFTER EXECUTION
003097:
003098:
003099:
003100:                                                                                                  #        A ROUTINE CALLED GRABUSY IS PROVIDED (USE IS OPTIONAL) TO PUT YOUR
003101:                                                                                                  #  JOB TO SLEEP UNTIL THE SYSTEM IS FREED BY THE JOB HOLDING IT.
003102:                                                                                                  #  GRABUSY CANNOT BE CALLED FROM E MEMORY, SINCE JOBSLEEP AND JOBWAKE
003103:                                                                                                  #  HANDLE ONLY FIXED MEMORY.
003104:                                                                                                  #  YOUR CADR IS PUT AT FIRST AVAILABLE SLOT IN A WAITING LIST (FIFO).
003105:
003106:                                                                                                  #        THE CALLING SEQUENCE IS
003107:                                                                                                  #           CAF    WAKEFCADR
003108:                                                                                                  #           TC     GRABUSY
003109:
003110:                                                                                                  #        A ROUTINE CALLED NVSUBUSY IS PROVIDED (USE IS OPTIONAL)  TO PUT
003111:                                                                                                  #  YOUR JOB TO SLEEP UNTIL THE OPERATOR RELEASES IT.
003112:                                                                                                  #  NVSUBUSY CANNOT BE CALLED FROM E MEMORY, SINCE JOBSLEEP AND JOBWAKE
003113:                                                                                                  #  HANDLE ONLY FIXED MEMORY.
003114:                                                                                                  #                                              YOUR CADR IS PUT
003115:                                                                                                  #  ON TOP OF A WAITING LIST (FIFO). IT ALSO TURNS ON KEY RELEASE LIGHT.
003116:
003117:                                                                                                  #         THE CALLING SEQUENCE IS
003118:                                                                                                  #           CAF    WAKEFCADR
003119:                                                                                                  #           TC     NVSUBUSY
003120:
003121:
003122:                                                                                                  #  AFTER A TC FREEDSP, THE INTERNAL INTERLOCK IS KEPT BUSY FOR 10 SECONDS,
003123:                                                                                                  #  AFTER WHICH A CADR IS CALLED FROM THE LIST. THIS INSURES THAT ALL
003124:                                                                                                  #  DISPLAYS WAITING WILL BE VISIBLE.
003125:
003126:
003127:
003128:                                                                                                  #  GRABLOCK IS THE INTERNAL INTERLOCK FOR THE USE OF THE KEYBOARD
003129:                                                                                                  #  AND DISPLAY SYSTEM.
003130:                                                                                                  #  +0  FREE
003131:
003132:                                                                                                  #  +1  SOME INTERNAL ROUTINE HAS GRABBED DSP SYST
003133:                                                                                                  #  +2  SOME INTERNAL ROUTINE HAS GONE TO NVSUBUSY
003134:
003135:
003136:
003137:    5535           10324        GRABDSP            CCS      GRABLOCK
003138:    5536           00002                           TC       Q                                     #  ALREADY GRABBED, RETURN TO L+1
003139:    5537           37652                           CAF      ONE                                   #  NOT GRABBED, SET TO +1
003140:    5540           54324                           TS       GRABLOCK                              #  AND RETURN TO L+2
003141:    5541           50002                           INDEX    Q
003142:    5542           00001                           TC       1
003143:
003144:
003145:
003146:    5543           36426        PREGBSY            CAF      LOW10                                 #  SPECIAL ENTRANCE FOR ROUTINES IN FIXED
003147:    5544           70002                           MASK     Q                                     #  BANKS ONLY DESIRING THE FCADR OF
003148:    5545           60004                           AD       FBANK                                 #  1 + (LOC FROM WHICH TC PREGBSY WAS DONE)
003149:    5546           04103        GRABUSY            TC       POSTJUMP                              #  TO BE ENTERED.
003150:    5547           10000                           CADR     GRABUSYB
003151: 04,3450                                           SETLOC   DOPROC     +2
003152: 04,3450           54001        GRABUSY1           TS       L
003153: 04,3451           10324                           CCS      GRABLOCK
003154: 04,3452           03455                           TC       +3                                    #  STILL GRABBED
003155: 04,3453           30001                           CA       L                                     #  NOT GRABBED SO DO DIRECT CALL
003156: 04,3454           04106                           TC       BANKJUMP
003157: 04,3455           37651                           CAF      TWO
003158: 04,3456           54130                           TS       LSTPTR
003159: 04,3457           50130                           INDEX    LSTPTR                                #  SEARCH LIST FOR FIRST AVAILABLE SPACE
003160: 04,3460           10327                           CCS      DSPLIST                               #  FROM BOTTOM.
003161: 04,3461           03463                           TC       +2
003162: 04,3462           03466                           TC       PUTINLST                              #  SPACE FOUND
003163: 04,3463           10130                           CCS      LSTPTR                                #  DECREMENT POINTER
003164: 04,3464           03456                           TC       -6
003165: 04,3465           03532                           TC       LSTFULL
003166: 04,3466           30001        PUTINLST           CA       L
003167: 04,3467           50130                           INDEX    LSTPTR
003168: 04,3470           54327                           TS       DSPLIST
003169: 04,3471           04331                           TC       JOBSLEEP
003170:
003171:
003172:                                                                                                  #  GRABWAIT IS A SPECIAL ENTRANCE FOR ROUTINES IN FIXED BANKS ONLY. IF
003173:                                                                                                  #  SYSTEM IS NOT GRABBED, IT GRABS IT AND RETURNS TO L+1 ( L = LOC FROM
003174:                                                                                                  #  WHICH THE TC GRABWAIT WAS DONE). IF SYSTEM IS GRABBED, IT PUTS CALLING
003175:                                                                                                  #  JOB TO SLEEP WITH L+1 GOING INTO LIST FOR EVENTUAL WAKING UP WHEN
003176:                                                                                                  #  SYSTEM IS FREED.
003177:
003178:    5550                                           SETLOC   GRABUSY    +2
003179:    5550           10324        GRABWAIT           CCS      GRABLOCK
003180:    5551           15543                           TCF      PREGBSY                               #  GRABBED. PUT L+1 INTO LIST. GO TO SLEEP.
003181:
003182:    5552           37652                           CAF      ONE                                   #  NOT GRABBED. GRAB AND RETURN TO L+1.
003183:    5553           54324                           TS       GRABLOCK
003184:    5554           00002                           TC       Q
003185:
003186:
003187:
003188:    5555           45562        PRENVBSY           CS       2K+3                                  #  SPECIAL ENTRANCE FOR ROUTINES IN FIXED
003189:    5556           60002                           AD       Q                                     #  BANKS ONLY DESIRING THE FCADR OF(LOC
003190:    5557           60004                           AD       FBANK                                 #  FROM WHICH THE TC PRENVBSY WAS DONE) -2
003191:    5560           04103        NVSUBUSY           TC       POSTJUMP                              #  TO BE ENTERED.
003192:    5561           10001                           CADR     NVSUBSYB
003193:    5562           02003        2K+3               OCT      2003
003194:
003195: 04,3472                                           SETLOC   PUTINLST   +4
003196: 04,3472           54001        NVSUBSY1           TS       L
003197: 04,3473           10277                           CCS      DSPLOCK                               #  TEST IF REALLY LOCKED OUT
003198: 04,3474           03477                           TC       +3                                    #  STILL BUSY
003199: 04,3475           30001                           CA       L                                     #  DSPLOCK = +0 SO RETURN DIRECTLY
003200: 04,3476           04106                           TC       BANKJUMP
003201: 04,3477           37651                           CAF      TWO                                   #  SET FOR GRABBED STATE AND NVSUBUSY USE
003202: 04,3500           54324                           TS       GRABLOCK
003203: 04,3501           30001                           CA       L
003204: 04,3502           56331                           XCH      DSPLIST    +2                         #  ENTER CADR INTO FIRST POSITION OF LIST
003205: 04,3503           56330                           XCH      DSPLIST    +1                         #          (BOTTOM)
003206: 04,3504           56327                           XCH      DSPLIST
003207: 04,3505           10000                           CCS      A
003208: 04,3506           03532                           TC       LSTFULL
003209: 04,3507           03511                           TC       +2
003210: 04,3510           03532                           TC       LSTFULL
003211: 04,3511           05504                           TC       RELDSPON
003212: 04,3512           30001                           CA       L
003213: 04,3513           04331        ENDNVBSY           TC       JOBSLEEP
003214:
003215:
003216:
003217:                                                                                                  #  NVSBWAIT IS A SPECIAL ENTRANCE FOR ROUTINES IN FIXED BANKS ONLY. IF
003218:                                                                                                  #  SYSTEM IS NOT BUSY, IT EXECUTES V/N AND RETURNS TO L+1 (L= LOC FROM
003219:                                                                                                  #  WHICH THE TC NVSBWAIT WAS DONE). IF SYSTEM IS BUSY, IT PUTS CALLING JOB
003220:                                                                                                  #  TO SLEEP WITH L-1 GOING INTO LIST FOR EVENTUAL WAKING UP WHEN SYSTEM
003221:                                                                                                  #  IS NOT BUSY.
003222:
003223:    5563                                           SETLOC   NVSUBUSY   +3
003224:    5563           54107        NVSBWAIT           TS       NVTEMP
003225:    5564           10277                           CCS      DSPLOCK
003226:    5565           15570                           TCF      NVSBWT1                               #  BUSY
003227:    5566           30002                           CA       Q                                     #  FREE. NVSUB WILL SAVE L+1 FOR RETURN
003228:    5567           14700                           TCF      NVSUB      +5                         #  AFTER EXECUTION.
003229:    5570           24002        NVSBWT1            INCR     Q                                     #  L+2. PRENVBSY WILL PUT L-1 INTO LIST AND
003230:    5571           15555                           TCF      PRENVBSY                              #  GO TO SLEEP.
003231:
003232:    5572           56002        RELDSP             XCH      Q                                     #  SET DSPLOCK TO +0, TURN RELDSP LIGHT
003233:    5573           54130                           TS       RELRET                                #  OFF, SEARCH DSPLIST
003234:    5574           37661                           CAF      NEG1
003235:    5575           60324                           AD       GRABLOCK
003236:    5576           00006                           EXTEND                                         #  SEARCH LIST ONLY IF GRABLOCK = +2
003237:    5577           65605                           BZMF     RELDSP2                               #    (SOMEONE USED NVSUBUSY)
003238:    5600           05620                           TC       WKSEARCH
003239:    5601           05605                           TC       RELDSP2                               #  LIST EMPTY
003240:    5602           04335                           TC       JOBWAKE                               #  LIST NOT EMPTY
003241:    5603           37652                           CAF      ONE
003242:    5604           54324                           TS       GRABLOCK
003243:    5605           00004        RELDSP2            INHINT
003244:    5606           47646                           CS       BIT5                                  #  TURN OFF KEY RELEASE LIGHT
003245:    5607           00006                           EXTEND                                         #  (BIT 5 OF CHANNEL 11)
003246:    5610           03011                           WAND     DSALMOUT
003247:    5611           37657                           CAF      ZERO
003248:    5612           54277                           TS       DSPLOCK
003249:    5613           00003                           RELINT
003250:    5614           00130                           TC       RELRET
003251:    5615           56002        RELDSP1            XCH      Q                                     #  SET DSPLOCK TO +0. RELDSP LIGHT OFF.
003252:    5616           54130                           TS       RELRET                                #  NO LIST SEARCH
003253:    5617           05605                           TC       RELDSP2
003254:
003255:
003256:
003257:    5620           37657        WKSEARCH           CAF      ZERO                                  #  SEARCHES LIST. LEAVES RESULT IN A.
003258:    5621           56327                           XCH      DSPLIST                               #  IF EMPTY, RETURN TO L+1.
003259:    5622           56330                           XCH      DSPLIST    +1                         #  IF NOT EMPTY, INHINT AND RETURN TO L+2.
003260:    5623           56331                           XCH      DSPLIST    +2
003261:    5624           00006                           EXTEND
003262:    5625           15631                           BZF      +4                                    #  EMPTY
003263:    5626           00004                           INHINT                                         #  NOT EMPTY
003264:    5627           50002                           INDEX    Q                                     #  RETURN TO L+2
003265:    5630           00001                           TC       1
003266:    5631           00002                           TC       Q                                     #  RETURN TO L+1
003267:
003268:
003269:
003270:    5632           56002        FREEDSP            XCH      Q
003271:    5633           54130                           TS       FREERET
003272:    5634           00004                           INHINT
003273:    5635           35643                           CAF      SHOTIME
003274:    5636           04451                           TC       WAITLIST
003275:    5637     0264                                  EBANK=   DSPCOUNT
003276:    5637           03514 10000                     2CADR    FREEWAIT
003277:    5641           00003                           RELINT
003278:    5642           00130                           TC       FREERET
003279:
003280:    5643           01130        SHOTIME            DEC      600        B-14                       #  6 SECOND WAITING PERIOD.
003281:
003282:    5644                        ENDPINBF           EQUALS
003283:
003284: 04,3514                                           SETLOC   ENDNVBSY   +1
003285:
003286: 04,3514           35464        FREEWAIT           CAF      CHRPRIO                               #  CALLED BY T3RUPT
003287: 04,3515           04276                           TC       NOVAC
003288: 04,3516     0264                                  EBANK=   DSPCOUNT
003289: 04,3516           03521 10000                     2CADR    FREDSPD0
003290: 04,3520           04505                           TC       TASKOVER
003291:
003292:
003293:
003294: 04,3521           05620        FREDSPD0           TC       WKSEARCH                              #  CALLED BY EXECUTIVE
003295: 04,3522           03530                           TC       LSTEMPTY                              #  LIST EMPTY
003296: 04,3523           04335                           TC       JOBWAKE                               #  LIST NOT EMPTY
003297: 04,3524           00003                           RELINT
003298: 04,3525           37652                           CAF      ONE                                   #  SET FOR GRABBED CONDITION
003299: 04,3526           54324                           TS       GRABLOCK
003300: 04,3527           04353                           TC       ENDOFJOB
003301: 04,3530           37657        LSTEMPTY           CAF      ZERO                                  #  SET FOR FREE CONDITION
003302: 04,3531           03526                           TC       -3
003303:
003304:
003305:
003306: 04,3532           05677        LSTFULL            TC       ABORT
003307: 04,3533           01206                           OCT      01206                                 #  PINBALL WAITING LINE FULL.
003308:
003309: 04,3534                        ENDPINS1           EQUALS
003310:
003311:                                                                                                  #  VBTSTLTS TURNS ON ALL DISPLAY PANEL LIGHTS. AFTER 5 SEC, IT TURNS
003312:                                                                                                  #  OFF THE CAUTION AND STATUS LIGHTS.
003313:
003314: 05,3414                                           SETLOC   DSPMMEND   +1
003315:
003316: 05,3414           00004        VBTSTLTS           INHINT
003317: 05,3415           47652                           CS       BIT1                                  #  SET BIT 1 OF IMODES33 SO IMUMON WONT
003318: 05,3416           70362                           MASK     IMODES33                              #  TURN OUT ANY LAMPS.
003319: 05,3417           67652                           AD       BIT1
003320: 05,3420           54362                           TS       IMODES33
003321:
003322: 05,3421           33457                           CAF      TSTCON1                               #  TURN ON UPLINK ACTIVITY, TEMP, KEY RLSE,
003323: 05,3422           00006                           EXTEND                                         #  V/N FLASH, OPERATOR ERROR.
003324: 05,3423           05011                           WOR      DSALMOUT
003325: 05,3424           33460                           CAF      TSTCON2                               #  TURN ON NO ATT, GIMBAL LOCK, TRACKER,
003326: 05,3425           54322                           TS       DSPTAB     +11D                       #  PROG ALM.
003327: 05,3426           37641                           CAF      BIT10                                 #  TURN ON TEST ALARM OUTBIT
003328: 05,3427           00006                           EXTEND
003329: 05,3430           05013                           WOR      CHAN13
003330: 05,3431           37654                           CAF      TEN
003331: 05,3432           54103        TSTLTS1            TS       ERCNT
003332: 05,3433           43455                           CS       FULLDSP
003333: 05,3434           50103                           INDEX    ERCNT
003334: 05,3435           54307                           TS       DSPTAB
003335: 05,3436           10103                           CCS      ERCNT
003336: 05,3437           03432                           TC       TSTLTS1
003337: 05,3440           43456                           CS       FULLDSP1
003338: 05,3441           54310                           TS       DSPTAB     +1                         #  TURN ON 3 PLUS SIGNS
003339: 05,3442           54313                           TS       DSPTAB     +4
003340: 05,3443           54315                           TS       DSPTAB     +6
003341: 05,3444           37653                           CAF      ELEVEN
003342: 05,3445           54303                           TS       NOUT
003343: 05,3446           00003                           RELINT
003344: 05,3447           33462                           CAF      SHOLTS
003345: 05,3450           00004                           INHINT
003346: 05,3451           04451                           TC       WAITLIST
003347: 05,3452     0307                                  EBANK=   DSPTAB
003348: 05,3452           03463 12000                     2CADR    TSTLTS2
003349:
003350: 05,3454           04353                           TC       ENDOFJOB                              #  DSPLOCK IS LEFT BUSY (FROM KEYBOARD
003351:                                                                                                  #  ACTION) UNTIL TSTLTS3 TO INSURE THAT
003352:                                                                                                  #  LIGHTS TEST WILL BE SEEN.
003353:
003354:
003355:
003356: 05,3455           05675        FULLDSP            OCT      05675                                 #  DISPLAY ALL 8:S
003357: 05,3456           07675        FULLDSP1           OCT      07675                                 #  DISPLAY ALL 8:S AND +
003358: 05,3457           00175        TSTCON1            OCT      00175
003359:                                                                                                  #  UPLINK ACTIVITY, TEMP, KEY RLSE,
003360:                                                                                                  #  V/N FLASH, OPERATOR ERROR.
003361:
003362: 05,3460           40650        TSTCON2            OCT      40650                                 #  DSPTAB+11D BITS 4,6,8,9.
003363:                                                                                                  #  NO ATT, GIMBAL LOCK, TRACKER, PROG ALM.
003364: 05,3461           00115        TSTCON3            OCT      00115                                 #  CHAN 11 BITS 1, 3, 4, 7.
003365:                                                                                                  #  UPLINK ACTIVITY, TEMP, OPERATOR ERROR.
003366: 05,3462           00764        SHOLTS             OCT      764                                   #  5 SEC
003367:
003368:
003369:
003370: 05,3463           35464        TSTLTS2            CAF      CHRPRIO                               #  CALLED BY WAITLIST
003371: 05,3464           04276                           TC       NOVAC
003372: 05,3465     0307                                  EBANK=   DSPTAB
003373: 05,3465           03470 12000                     2CADR    TSTLTS3
003374:
003375: 05,3467           04505                           TC       TASKOVER
003376:
003377:
003378:
003379: 05,3470           43461        TSTLTS3            CS       TSTCON3                               #  CALLED BY EXECUTIVE
003380: 05,3471           00004                           INHINT
003381: 05,3472           00006                           EXTEND                                         #  TURN OFF  UPLINK ACTIVITY, TEMP,
003382: 05,3473           03011                           WAND     DSALMOUT                              #  OPERATOR ERROR.
003383: 05,3474           47641                           CS       BIT10                                 #  TURN OFF  TEST ALARM OUTBIT
003384: 05,3475           00006                           EXTEND
003385: 05,3476           03013                           WAND     CHAN13
003386: 05,3477           37634                           CAF      BIT15                                 #  TURN OFF AUTO, HOLD, FREE, NO ATT, SPARE
003387: 05,3500           54322                           TS       DSPTAB     +11D                       #  GIMBAL LOCK, SPARE, TRACKER, PROG ALM
003388: 05,3501           43515                           CS       13-11,1                               #  SET BITS TO INDICATE ALL LAMPS OUT. TEST
003389: 05,3502           70362                           MASK     IMODES33                              #  LIGHTS COMPLETE.
003390: 05,3503           64430                           AD       PRIO16
003391: 05,3504           54362                           TS       IMODES33
003392:
003393: 05,3505           43516                           CS       OCT55000
003394: 05,3506           70361                           MASK     IMODES30
003395: 05,3507           64427                           AD       PRIO15                                #  15000.
003396: 05,3510           54361                           TS       IMODES30
003397:
003398: 05,3511           00003                           RELINT
003399:
003400: 05,3512           02001                           TC       DSPMM                                 #  REDISPLAY C(MODREG)
003401: 05,3513           04103                           TC       POSTJUMP                              #  TURN OFF KEY RLSE LIGHT ( AND SEARCH LIST
003402: 05,3514           11311                           CADR     VBTERM                                #  IF APPROPRIATE).
003403:                                                                                                  #  TURN OFF V/N FLASH, SET LOADSTAT FOR
003404:                                                                                                  #  FOR TERMINATE CONDITION, AND GO TO
003405:                                                                                                  #  RECALTST. FINALLY DO TC ENDOFJOB.
003406:
003407: 05,3515           16001        13-11,1            OCT      16001
003408: 05,3516           55000        OCT55000           OCT      55000
003409: 05,3517                        ENDPINS2           EQUALS

End of include-file PINBALL_GAME__BUTTONS_AND_LIGHTS.agc.  Parent file is MAIN.agc


