
Source Code


000002:                                                                                                  ## Copyright:   Public domain.
000003:                                                                                                  ## Filename:    PRELAUNCH_ALIGNMENT_PROGRAM.agc
000004:                                                                                                  ## Purpose:     A section of Sundial E.
000005:                                                                                                  ##              It is part of the reconstructed source code for the final
000006:                                                                                                  ##              release of the Block II Command Module system test software. No
000007:                                                                                                  ##              original listings of this program are available; instead, this
000008:                                                                                                  ##              file was created via disassembly of dumps of Sundial core rope
000009:                                                                                                  ##              modules and comparison with other AGC programs.
000010:                                                                                                  ## Assembler:   yaYUL
000011:                                                                                                  ## Contact:     Ron Burkey <info@sandroid.org>.
000012:                                                                                                  ## Website:     www.ibiblio.org/apollo/index.html
000013:                                                                                                  ## Mod history: 2023-06-30 MAS  Created.
000014:
000015: 15,2000                                           BANK     15
000016: 15,2000  E5,1400                                  EBANK=   XSM
000017:
000018: 15,2000           10000        2STODP1S           CCS      A
000019: 15,2001           67652                           AD       ONE
000020: 15,2002           12013                           TCF      2TO1OUT
000021: 15,2003           67652                           AD       ONE
000022: 15,2004           67652                           AD       ONE
000023: 15,2005           54000                           OVSK
000024: 15,2006           12012                           TCF      +4
000025: 15,2007           22007                           ZL
000026: 15,2010           47635                           CS       BIT14
000027: 15,2011           00002                           TC       Q
000028: 15,2012           40000                           COM
000029: 15,2013           00006        2TO1OUT            EXTEND
000030: 15,2014           77635                           MP       BIT14
000031: 15,2015           00002                           TC       Q
000032:
000033: 15,2016           20001        DP1STO2S           DDOUBL
000034: 15,2017           10000                           CCS      A
000035: 15,2020           67652                           AD       ONE
000036: 15,2021           12023                           TCF      +2
000037: 15,2022           40000                           COM
000038: 15,2023           54001                           TS       L
000039: 15,2024           00002                           TC       Q
000040: 15,2025           50000                           INDEX    A
000041: 15,2026           37633                           CAF      LIMITS
000042: 15,2027           26001                           ADS      L
000043: 15,2030           00002                           TC       Q
000044:
000045: 15,2031           00006        LODLATAZ           EXTEND
000046: 15,2032           23661                           QXCH     QSAVED
000047: 15,2033           32042                           CAF      V06N61E
000048: 15,2034           05563                           TC       NVSBWAIT
000049: 15,2035           05525                           TC       FLASHON
000050: 15,2036           04724                           TC       ENDIDLE
000051: 15,2037           02033                           TC       LODLATAZ   +2
000052: 15,2040           01661                           TC       QSAVED
000053: 15,2041           02033                           TC       LODLATAZ   +2
000054:
000055: 15,2042           00661        V06N61E            OCT      00661
000056: 15,2043           05550        UNUSED1            OCT      05550
000057:
000058: 15,2044           04572        STARTPL            TC       NEWMODEX
000059: 15,2045           00001                           OCT      01
000060: 15,2046           00006                           EXTEND
000061: 15,2047           31507                           DCA      AZIMUTH
000062: 15,2050           02016                           TC       DP1STO2S
000063: 15,2051           54333                           TS       DSPTEM1
000064:
000065: 15,2052           37657                           CAF      ZERO
000066: 15,2053           54334                           TS       DSPTEM1    +1
000067: 15,2054           02031                           TC       LODLATAZ
000068:
000069: 15,2055           30333                           CA       DSPTEM1
000070: 15,2056           02000                           TC       2STODP1S
000071: 15,2057           53507                           DXCH     AZIMUTH
000072: 15,2060           00006                           EXTEND
000073: 15,2061           31507                           DCA      AZIMUTH
000074: 15,2062           53764                           DXCH     AZIMUTH1
000075: 15,2063           53670                           DXCH     LATITUD1
000076: 15,2064           02016                           TC       DP1STO2S
000077: 15,2065           54333                           TS       DSPTEM1
000078: 15,2066           53511                           DXCH     LATITUDE
000079: 15,2067           20001                           DDOUBL
000080: 15,2070           20001                           DDOUBL
000081: 15,2071           54334                           TS       DSPTEM1    +1
000082: 15,2072           02031                           TC       LODLATAZ
000083:
000084: 15,2073           30333                           CA       DSPTEM1
000085: 15,2074           02000                           TC       2STODP1S
000086: 15,2075           53670                           DXCH     LATITUD1
000087: 15,2076           30334                           CA       DSPTEM1    +1
000088: 15,2077           00006                           EXTEND
000089: 15,2100           77636                           MP       BIT13
000090: 15,2101           53511                           DXCH     LATITUDE
000091: 15,2102           05632                           TC       FREEDSP
000092:
000093: 15,2103           00006                           EXTEND
000094: 15,2104           31670                           DCA      LATITUD1
000095: 15,2105           02016                           TC       DP1STO2S
000096: 15,2106           54140                           TS       MPAC
000097: 15,2107           00006                           EXTEND
000098: 15,2110           31764                           DCA      AZIMUTH1
000099: 15,2111           02016                           TC       DP1STO2S
000100: 15,2112           00006                           EXTEND
000101: 15,2113           20140                           MSU      MPAC
000102: 15,2114           02017                           TC       DP1STO2S   +1
000103: 15,2115           54400                           TS       THETAD
000104: 15,2116           37635                           CAF      BIT14
000105: 15,2117           54401                           TS       THETAD     +1
000106: 15,2120           37657                           CAF      ZERO
000107: 15,2121           54402                           TS       THETAD     +2
000108:
000109: 15,2122           04064                           TC       BANKCALL
000110: 15,2123           26000                           CADR     IMUZERO
000111: 15,2124           04064                           TC       BANKCALL
000112: 15,2125           26730                           CADR     IMUSTALL
000113: 15,2126           02632                           TC       PRELEXIT
000114:
000115: 15,2127           04517                           TC       PHASCHNG
000116: 15,2130           00100                           OCT      00100
000117:
000118: 15,2131           04064        REDO0.1            TC       BANKCALL
000119: 15,2132           26055                           CADR     IMUCOARS
000120: 15,2133           04064                           TC       BANKCALL
000121: 15,2134           26730                           CADR     IMUSTALL
000122: 15,2135           02632                           TC       PRELEXIT
000123:
000124: 15,2136           04517                           TC       PHASCHNG
000125: 15,2137           00200                           OCT      00200
000126:
000127: 15,2140           04064        REDO0.2            TC       BANKCALL
000128: 15,2141           26227                           CADR     IMUFINE
000129:
000130: 15,2142           32223                           CAF      DEC49
000131: 15,2143           54140        ZEROS1             TS       MPAC
000132: 15,2144           37657                           CAF      ZERO
000133: 15,2145           50140                           INDEX    MPAC
000134: 15,2146           55567                           TS       XSM1
000135: 15,2147           10140                           CCS      MPAC
000136: 15,2150           02143                           TC       ZEROS1
000137:
000138: 15,2151           00006                           EXTEND
000139: 15,2152           30025                           DCA      TIME2
000140: 15,2153           53642                           DXCH     PREVTIME
000141: 15,2154           04064                           TC       BANKCALL
000142: 15,2155           26730                           CADR     IMUSTALL
000143: 15,2156           02632                           TC       PRELEXIT
000144:
000145: 15,2157           04572                           TC       NEWMODEX
000146: 15,2160           00005                           OCT      05
000147:
000148: 15,2161           32224                           CAF      SIXHNDRD                              #  INITIALIZE FOR 5 MIN VERTICAL
000149: 15,2162           55657                           TS       GYROCSW
000150:
000151: 15,2163           04064                           TC       BANKCALL
000152: 15,2164           26302                           CADR     PIPUSE
000153:
000154: 15,2165           37655                           CAF      NINE
000155: 15,2166           55660                           TS       PRELTEMP
000156: 15,2167           06000                           TC       INTPRET
000157: 15,2170           73545                           DLOAD    SIN
000158: 15,2171           01511                                    LATITUDE
000159: 15,2172           41276                           DCOMP    DMP
000160: 15,2173           32544                                    GOMEGA
000161: 15,2174           07650                           STODL    ERVECT1    +4
000162: 15,2175           01511                                    LATITUDE
000163: 15,2176           41346                           COS      DMP
000164: 15,2177           32544                                    GOMEGA
000165: 15,2200           07644                           STODL    ERVECT1
000166: 15,2201           01764                                    AZIMUTH1
000167: 15,2202           71406                           PUSH     COS
000168: 15,2203           01570                           STORE    XSM1
000169: 15,2204           07600                           STODL    XSM1       +8D
000170: 15,2205           77756                           SIN
000171: 15,2206           01572                           STORE    XSM1       +2
000172: 15,2207           43076                           DCOMP    CLEAR
000173: 15,2210           00270                                    OPTUSE
000174: 15,2211           07576                           STODL    XSM1       +6
000175: 15,2212           32536                                    GEOCONS5
000176: 15,2213           01610                           STORE    WANGI
000177: 15,2214           77776                           EXIT
000178:
000179: 15,2215           00004                           INHINT
000180: 15,2216           32554                           CAF      PRELDT
000181: 15,2217           04451                           TC       WAITLIST
000182: 15,2220           02225 32005                     2CADR    PRELALTS
000183:
000184: 15,2222           04353                           TC       ENDOFJOB
000185:
000186: 15,2223           00061        DEC49              DEC      49         B-14
000187: 15,2224           01130        SIXHNDRD           DEC      600        B-14
000188:
000189:                                                                                                  #        PRELAUNCH WAITLIST TASK - EXECUTED EVERY .5 SEC. IN LOOP.
000190:
000191: 15,2225           37657        PRELALTS           CAF      ZERO
000192: 15,2226           56037                           XCH      PIPAX
000193: 15,2227           54405                           TS       DELVX
000194: 15,2230           37657                           CAF      ZERO
000195: 15,2231           56040                           XCH      PIPAY
000196: 15,2232           54407                           TS       DELVX      +2
000197: 15,2233           37657                           CAF      ZERO
000198: 15,2234           56041                           XCH      PIPAZ
000199: 15,2235           54411                           TS       DELVX      +4
000200: 15,2236           37657                           CAF      ZERO
000201: 15,2237           54406                           TS       DELVX      +1
000202: 15,2240           54410                           TS       DELVX      +3
000203: 15,2241           54412                           TS       DELVX      +5
000204:
000205: 15,2242           04517                           TC       PHASCHNG
000206: 15,2243           00300                           OCT      00300
000207:
000208: 15,2244           00006                           EXTEND
000209: 15,2245           30025                           DCA      TIME2
000210: 15,2246           53672                           DXCH     PIPTIME
000211:
000212: 15,2247           32554        REPRELAL           CAF      PRELDT                                #  SELF-SUSTAINING WAITLIST CALL
000213: 15,2250           04451                           TC       WAITLIST
000214: 15,2251           02225 32005                     2CADR    PRELALTS
000215:
000216: 15,2253           37635                           CAF      PRIO20
000217: 15,2254           04307                           TC       FINDVAC
000218: 15,2255           02262 32005                     2CADR    PRAWAKE
000219:
000220: 15,2257           04505                           TC       TASKOVER                              #  RESUME
000221:
000222: 15,2260           02654        REDO0.4            TC       PRLRSTOR
000223: 15,2261           02265                           TC       RE0.4
000224:
000225: 15,2262           02643        PRAWAKE            TC       PRLSAVE
000226: 15,2263           04517                           TC       PHASCHNG
000227: 15,2264           00400                           OCT      00400
000228:
000229: 15,2265           06000        RE0.4              TC       INTPRET
000230: 15,2266           61375                           VLOAD    VXM
000231: 15,2267           00406                                    DELVX
000232: 15,2270           01570                                    XSM1
000233: 15,2271           52372                           VSL1     VSU
000234: 15,2272           01626                                    FILDELV
000235: 15,2273           53361                           VXSC     VAD
000236: 15,2274           32546                                    GEOCONS1
000237: 15,2275           01626                                    FILDELV
000238: 15,2276           01626                           STORE    FILDELV
000239: 15,2277           77655                           VAD
000240: 15,2300           01634                                    THETAN
000241: 15,2301           01634                           STORE    THETAN
000242: 15,2302           77776                           EXIT
000243:
000244: 15,2303           04605                           TC       CHECKMM
000245: 15,2304           00005                           OCT      5
000246: 15,2305           02330                           TC       TJL
000247:
000248: 15,2306           11657        NOGYROCM           CCS      GYROCSW                               #  COUNT DOWN FOR 5 MIN OF VERTICAL ERECT.
000249: 15,2307           02312                           TC       MORE                                  #   IF MORE TO COME.
000250: 15,2310           04572                           TC       NEWMODEX                              #  IF NOT, GO INTO GYROCOMP. (MM 02)
000251: 15,2311           00002                           OCT      2
000252:
000253: 15,2312           55657        MORE               TS       GYROCSW
000254:
000255: 15,2313           06000                           TC       INTPRET
000256: 15,2314           74375                           VLOAD    VXSC
000257: 15,2315           01634                                    THETAN
000258: 15,2316           32542                                    GEOCONS2
000259: 15,2317           74255                           VAD      VXSC
000260: 15,2320           01626                                    FILDELV
000261: 15,2321           32552                                    DPPOSMAX
000262: 15,2322           53235                           VXV      VAD
000263: 15,2323           32532                                    PRUNITZ
000264: 15,2324           01612                                    ERCOMP1
000265: 15,2325           01612                           STORE    ERCOMP1
000266: 15,2326           77650                           GOTO
000267: 15,2327           32344                                    ENDOFPR
000268:
000269: 15,2330           06000        TJL                TC       INTPRET
000270: 15,2331           64375                           VLOAD    MXV
000271: 15,2332           01626                                    FILDELV
000272: 15,2333           32512                                    GEOCONS3
000273: 15,2334           77655                           VAD
000274: 15,2335           01612                                    ERCOMP1
000275: 15,2336           07612                           STODL    ERCOMP1
000276: 15,2337           01636                                    THETAN     +2
000277: 15,2340           43205                           DMP      DAD
000278: 15,2341           32540                                    GEOCONS4
000279: 15,2342           01612                                    ERCOMP1
000280: 15,2343           01612                           STORE    ERCOMP1
000281: 15,2344           77776        ENDOFPR            EXIT
000282:
000283: 15,2345           11660                           CCS      PRELTEMP
000284: 15,2346           02504                           TC       JUMPY
000285:
000286: 15,2347           10351                           CCS      LGYRO                                 #  IF BUSY GO AROUND LOOP AGAIN
000287: 15,2350           12505                           TCF      JUMPY      +1                         #  WAIT TIL NEXT TIME.  PRELTEM = 0 STILL.
000288:
000289: 15,2351           04605                           TC       CHECKMM
000290: 15,2352           00003                           OCT      03
000291: 15,2353           02362                           TC       UPDATAZ
000292:
000293: 15,2354           06000                           TC       INTPRET
000294: 15,2355           77775                           VLOAD
000295: 15,2356           32530                                    SCHZEROS
000296: 15,2357           01612                           STORE    ERCOMP1
000297: 15,2360           77650                           GOTO
000298: 15,2361           32427                                    EARTHRAT
000299:
000300: 15,2362           06000        UPDATAZ            TC       INTPRET
000301: 15,2363           45345                           DLOAD    DSU
000302: 15,2364           01507                                    AZIMUTH
000303: 15,2365           01764                                    AZIMUTH1
000304: 15,2366           41454                           BZE      PUSH
000305: 15,2367           32427                                    EARTHRAT
000306: 15,2370           51025                           DSU      BPL
000307: 15,2371           32550                                    2DEGS
000308: 15,2372           32401                                    TOOPOS
000309: 15,2373           43345                           DLOAD    DAD
000310: 15,2374           00001                                    0D
000311: 15,2375           32550                                    2DEGS
000312: 15,2376           52040                           BMN      GOTO
000313: 15,2377           32406                                    TOONEG
000314: 15,2400           32411                                    JUSTRITE
000315:
000316: 15,2401           77745        TOOPOS             DLOAD
000317: 15,2402           32550                                    2DEGS
000318: 15,2403           00001                           STORE    0D
000319: 15,2404           77650                           GOTO
000320: 15,2405           32411                                    JUSTRITE
000321:
000322: 15,2406           57545        TOONEG             DLOAD    DCOMP
000323: 15,2407           32550                                    2DEGS
000324: 15,2410           00001                           STORE    0D
000325:
000326: 15,2411           43345        JUSTRITE           DLOAD    DAD
000327: 15,2412           00001                                    0D
000328: 15,2413           01624                                    AZERR
000329: 15,2414           07624                           STODL    AZERR
000330: 15,2415           77615                           DAD
000331: 15,2416           01764                                    AZIMUTH1
000332: 15,2417           01764                           STORE    AZIMUTH1
000333: 15,2420           71406                           PUSH     COS
000334: 15,2421           01570                           STORE    XSM1
000335: 15,2422           07600                           STODL    XSM1       +8D
000336: 15,2423           77756                           SIN
000337: 15,2424           01572                           STORE    XSM1       +2
000338: 15,2425           77676                           DCOMP
000339: 15,2426           01576                           STORE    XSM1       +6
000340:
000341: 15,2427           45345        EARTHRAT           DLOAD    DSU
000342: 15,2430           01672                                    PIPTIME
000343: 15,2431           01642                                    PREVTIME
000344: 15,2432           43244                           BPL      DAD
000345: 15,2433           32435                                    ERTHR
000346: 15,2434           32552                                    DPPOSMAX
000347: 15,2435           74261        ERTHR              SL       VXSC
000348: 15,2436           00207                                    6D
000349: 15,2437           01644                                    ERVECT1
000350: 15,2440           64255                           VAD      MXV
000351: 15,2441           01612                                    ERCOMP1
000352: 15,2442           01570                                    XSM1
000353: 15,2443           53372                           VSL1     VAD
000354: 15,2444           01620                                    GYROANG
000355: 15,2445           23620                           STOVL    GYROANG
000356: 15,2446           32530                                    SCHZEROS
000357: 15,2447           01612                           STORE    ERCOMP1
000358: 15,2450           43014                           BOFF     CLEAR
000359: 15,2451           00350                                    OPTUSE
000360: 15,2452           32460                                    +6
000361: 15,2453           00270                                    OPTUSE
000362: 15,2454           53375                           VLOAD    VAD
000363: 15,2455           01620                                    GYROANG
000364: 15,2456           01501                                    OGC
000365: 15,2457           01620                           STORE    GYROANG
000366: 15,2460           77776                           EXIT
000367:
000368: 15,2461           00006                           EXTEND
000369: 15,2462           31672                           DCA      PIPTIME
000370: 15,2463           53642                           DXCH     PREVTIME
000371:
000372: 15,2464           04517                           TC       PHASCHNG
000373: 15,2465           00500                           OCT      00500
000374:
000375: 15,2466           37655                           CAF      NINE
000376: 15,2467           55660                           TS       PRELTEMP
000377: 15,2470           03062                           TC       GOSPITGY
000378:
000379: 15,2471           04276                           TC       NOVAC
000380: 15,2472           02475 32005                     2CADR    SPITGYRO
000381:
000382: 15,2474           04353                           TC       ENDOFJOB
000383:
000384: 15,2475           32510        SPITGYRO           CAF      LGYROANG
000385: 15,2476           04064                           TC       BANKCALL
000386: 15,2477           26333                           CADR     IMUPULSE
000387: 15,2500           04064                           TC       BANKCALL
000388: 15,2501           26730                           CADR     IMUSTALL
000389: 15,2502           02632                           TC       PRELEXIT
000390: 15,2503           14353                           TCF      ENDOFJOB
000391:
000392: 15,2504           55660        JUMPY              TS       PRELTEMP
000393: 15,2505           04517                           TC       PHASCHNG
000394: 15,2506           00500                           OCT      00500
000395: 15,2507           04353                           TC       ENDOFJOB
000396:
000397: 15,2510           02617        LGYROANG           ECADR    GYROANG
000398:
000399: 15,2511           00000 00000  GEOCONS3           2DEC     0          B-28
000400: 15,2513           01767 31666                     2DEC     .062
000401: 15,2515           00000 00000                     2DEC     0          B-28
000402: 15,2517           76010 46111                     2DEC     -.062
000403: 15,2521           00000 00000                     2DEC     0          B-28
000404: 15,2523           00000 00000                     2DEC     0          B-28
000405: 15,2525           40000 40000                     2DEC     -.999999999
000406: 15,2527           00000 00000  SCHZEROS           2DEC     0          B-28
000407: 15,2531           00000 00000  PRUNITZ            2DEC     0          B-28
000408: 15,2533           00000 00000                     2DEC     0          B-28
000409: 15,2535           20000 00000  GEOCONS5           2DEC     .5
000410:
000411: 15,2537           00000 17565  GEOCONS4           2DEC     .00003
000412: 15,2541           00121 35341  GEOCONS2           2DEC     .005
000413: 15,2543           37116 32652  GOMEGA             2DEC     0.97356192                            #  EARTH RATE IN IRIG PULSES/CS
000414: 15,2545           03146 14632  GEOCONS1           2DEC     .1
000415: 15,2547           00133 00554  2DEGS              2DEC     .005555555
000416: 15,2551           37777 37777  DPPOSMAX           2DEC     .999999999
000417: 15,2553           00053        DEC43              DEC      43         B-14
000418: 15,2554           00062        PRELDT             DEC      .5         E2                         #  HALF SECOND PRELAUNCH CYCLE
000419:
000420: 15,2555           51073        PRELGO             INDEX    PHASE0
000421: 15,2556           02556                           TC       +0
000422: 15,2557           02564                           TC       REPL1
000423: 15,2560           02571                           TC       REPL2
000424: 15,2561           02576                           TC       REPL3
000425: 15,2562           02603                           TC       REPL4
000426: 15,2563           02607                           TC       REPL5
000427:
000428: 15,2564           34432        REPL1              CAF      PRIO21
000429: 15,2565           04307                           TC       FINDVAC
000430: 15,2566           02131 32005                     2CADR    REDO0.1
000431:
000432: 15,2570           04077                           TC       SWRETURN
000433:
000434: 15,2571           34432        REPL2              CAF      PRIO21
000435: 15,2572           04307                           TC       FINDVAC
000436: 15,2573           02140 32005                     2CADR    REDO0.2
000437:
000438: 15,2575           04077                           TC       SWRETURN
000439:
000440: 15,2576           37652        REPL3              CAF      ONE
000441: 15,2577           04451                           TC       WAITLIST
000442: 15,2600           02247 32005                     2CADR    REPRELAL
000443:
000444: 15,2602           04077                           TC       SWRETURN
000445:
000446: 15,2603           34432        REPL4              CAF      PRIO21
000447: 15,2604           04307                           TC       FINDVAC
000448: 15,2605           02260 32005                     2CADR    REDO0.4
000449:
000450: 15,2607           32510        REPL5              CAF      LGYROANG
000451: 15,2610           54003                           TS       EBANK
000452: 15,2611           40025                           CS       TIME1
000453: 15,2612           61672                           AD       PIPTIME    +1
000454: 15,2613           00006                           EXTEND
000455: 15,2614           62616                           BZMF     +2
000456: 15,2615           67634                           AD       NEGMAX
000457: 15,2616           62554                           AD       PRELDT
000458: 15,2617           00006                           EXTEND
000459: 15,2620           62625                           BZMF     RIGHTGTS
000460: 15,2621           04451        WTGTSMPL           TC       WAITLIST
000461: 15,2622           02225 32005                     2CADR    PRELALTS
000462:
000463: 15,2624           04077                           TC       SWRETURN
000464:
000465: 15,2625           37652        RIGHTGTS           CAF      ONE
000466: 15,2626           04451                           TC       WAITLIST
000467: 15,2627           02225 32005                     2CADR    PRELALTS
000468:
000469: 15,2631           04077                           TC       SWRETURN
000470:
000471:                                                                                                  #        PRELAUNCH TERMINATION.
000472:
000473: 15,2632           04064        PRELEXIT           TC       BANKCALL
000474: 15,2633           26317                           CADR     PIPFREE
000475: 15,2634           00004                           INHINT
000476: 15,2635           47643                           CS       IMUSEFLG
000477: 15,2636           70061                           MASK     STATE
000478: 15,2637           54061                           TS       STATE
000479: 15,2640           04572                           TC       NEWMODEX
000480: 15,2641           00000                           OCT      0
000481: 15,2642           04353                           TC       ENDOFJOB
000482:
000483: 15,2643           32553        PRLSAVE            CAF      DEC43                                 #  SAVE CURRENT VARIABLES FOR RESTARTS
000484: 15,2644           54140                           TS       MPAC
000485: 15,2645           50140                           INDEX    MPAC
000486: 15,2646           31567                           CAF      XSM1
000487: 15,2647           50140                           INDEX    MPAC
000488: 15,2650           55707                           TS       PTEMP
000489: 15,2651           10140                           CCS      MPAC
000490: 15,2652           12644                           TCF      PRLSAVE    +1
000491: 15,2653           00002                           TC       Q
000492:
000493: 15,2654           32553        PRLRSTOR           CAF      DEC43                                 #  RESTORE OLD VALUES OF VARIABLES
000494: 15,2655           54140                           TS       MPAC
000495: 15,2656           50140                           INDEX    MPAC
000496: 15,2657           31707                           CA       PTEMP
000497: 15,2660           50140                           INDEX    MPAC
000498: 15,2661           55567                           TS       XSM1
000499: 15,2662           10140                           CCS      MPAC
000500: 15,2663           12655                           TCF      PRLRSTOR   +1
000501: 15,2664           00002                           TC       Q
000502:
000503:                                                                                                  #  PRELAUNCH CHECK PROCEDURE (USES THE Z-NORTH SYSTEM OF AXES)
000504:
000505: 15,2665           05550        OPTCHK             TC       GRABWAIT
000506: 15,2666           04572                           TC       NEWMODEX
000507: 15,2667           00003                           OCT      03
000508: 15,2670           04064                           TC       BANKCALL
000509: 15,2671           27033                           CADR     MKRELEAS
000510: 15,2672           37657                           CAF      ZERO
000511: 15,2673           55765                           TS       STARS
000512: 15,2674           67652                           AD       ONE
000513: 15,2675           54335                           TS       DSPTEM1    +2
000514: 15,2676           33030                           CAF      V06N30P
000515: 15,2677           05563                           TC       NVSBWAIT
000516: 15,2700           51765                           INDEX    STARS
000517: 15,2701           57663                           XCH      TAZ
000518: 15,2702           54333                           TS       DSPTEM1
000519: 15,2703           51765                           INDEX    STARS
000520: 15,2704           57665                           XCH      TEL
000521: 15,2705           54334                           TS       DSPTEM1    +1
000522: 15,2706           02031                           TC       LODLATAZ
000523: 15,2707           56333                           XCH      DSPTEM1
000524: 15,2710           51765                           INDEX    STARS
000525: 15,2711           55663                           TS       TAZ
000526: 15,2712           56334                           XCH      DSPTEM1    +1
000527: 15,2713           51765                           INDEX    STARS
000528: 15,2714           55665                           TS       TEL
000529: 15,2715           11765                           CCS      STARS
000530: 15,2716           12721                           TCF      +3
000531: 15,2717           37652                           CAF      ONE
000532: 15,2720           02673                           TC       OPTCHK     +6
000533:
000534: 15,2721           54335                           TS       DSPTEM1    +2
000535: 15,2722           37651                           CAF      TWO
000536: 15,2723           54334                           TS       DSPTEM1    +1
000537: 15,2724           37652                           CAF      ONE
000538: 15,2725           54333                           TS       DSPTEM1                               #  SETS UP STAR NUMBER DISPLAY
000539: 15,2726           33030                           CAF      V06N30P
000540: 15,2727           05563                           TC       NVSBWAIT
000541: 15,2730           37651                           CAF      TWO
000542: 15,2731           04064                           TC       BANKCALL
000543: 15,2732           26765                           CADR     SXTMARK
000544: 15,2733           04064                           TC       BANKCALL
000545: 15,2734           26726                           CADR     OPTSTALL
000546: 15,2735           03022                           TC       CHEXIT
000547:
000548: 15,2736           06000                           TC       INTPRET
000549: 15,2737           77634                           CALL
000550: 15,2740           33032                                    PROCTARG
000551: 15,2741           64375                           VLOAD    MXV
000552: 15,2742           01674                                    TARGET1
000553: 15,2743           01570                                    XSM1
000554: 15,2744           77772                           VSL1
000555: 15,2745           23445                           STOVL    STARAD
000556: 15,2746           01702                                    TARGET1    +6
000557: 15,2747           76521                           MXV      VSL1
000558: 15,2750           01570                                    XSM1
000559: 15,2751           01453                           STORE    STARAD     +6D
000560: 15,2752           77140                           LXC,1    AXT,2
000561: 15,2753           00365                                    MARKSTAT
000562: 15,2754           00002                                    2
000563: 15,2755           67064                           XSU,2    SXA,2
000564: 15,2756           00046                                    X1
000565: 15,2757           00050                                    S1
000566: 15,2760           77634                           CALL
000567: 15,2761           16310                                    SXTNB
000568: 15,2762           77634                           CALL
000569: 15,2763           16130                                    NBSM
000570: 15,2764           01652                           STORE    VECTEM
000571: 15,2765           62140                           LXC,1    INCR,1
000572: 15,2766           00365                                    MARKSTAT
000573: 15,2767           77770                           DEC      -7         B-14
000574: 15,2770           55174                           AXT,2    XSU,2
000575: 15,2771           00002                                    2
000576: 15,2772           00046                                    X1
000577: 15,2773           47134                           SXA,2    CALL
000578: 15,2774           00050                                    S1
000579: 15,2775           16310                                    SXTNB
000580: 15,2776           77634                           CALL
000581: 15,2777           16130                                    NBSM
000582: 15,3000           22015                           STOVL    12D
000583: 15,3001           01652                                    VECTEM
000584: 15,3002           00007                           STORE    6                                     #  TO AVOID ERASABLE BIND
000585:
000586: 15,3003           77634                           CALL                                           #  FIND DESIRED SM IN PRESENT SM
000587: 15,3004           16344                                    AXISGEN
000588:
000589: 15,3005           77634                           CALL                                           #  CALCULATE REQUIRED PULSE TORQUE IN GYROD
000590: 15,3006           16000                                    CALCGTA
000591: 15,3007           77776                           EXIT
000592:
000593: 15,3010           33031                           CAF      V06N60P
000594: 15,3011           05563                           TC       NVSBWAIT
000595: 15,3012           05525                           TC       FLASHON
000596: 15,3013           04724                           TC       ENDIDLE
000597: 15,3014           03022                           TC       CHEXIT
000598: 15,3015           03017                           TC       +2
000599: 15,3016           03010                           TC       -6
000600:
000601: 15,3017           06000                           TC       INTPRET
000602: 15,3020           77414                           SET      EXIT
000603: 15,3021           00070                                    OPTUSE
000604:
000605: 15,3022           05632        CHEXIT             TC       FREEDSP
000606: 15,3023           04064                           TC       BANKCALL
000607: 15,3024           27033                           CADR     MKRELEAS
000608:
000609: 15,3025           04572                           TC       NEWMODEX
000610: 15,3026           00002                           OCT      02
000611:
000612: 15,3027           04353                           TC       ENDOFJOB
000613:
000614: 15,3030           00630        V06N30P            OCT      00630
000615: 15,3031           00660        V06N60P            OCT      00660
000616:
000617:                                                                                                  #  ROUTINE TO CONVERT TARGET AZIMUTH AND ELEVATIONS TO VECTORS
000618:
000619: 15,3032           77170        PROCTARG           AXT,1    AXT,2
000620: 15,3033           00001                                    1
000621: 15,3034           00014                                    12D
000622: 15,3035           66731        PROC1              SSP      SLOAD*
000623: 15,3036           00052                                    S2
000624: 15,3037           00006                                    6
000625: 15,3040           01667                                    TEL        +1,1
000626: 15,3041           41502                           SR2      PUSH
000627: 15,3042           57556                           SIN      DCOMP
000628: 15,3043           13714                           STODL    TARGET1    +16D,2
000629: 15,3044           41546                           COS      PUSH                                  #  PUSH DOWN THE COSINE OF ELEVATION
000630: 15,3045           45133                           SLOAD*   RTB
000631: 15,3046           01665                                    TAZ        +1,1
000632: 15,3047           11537                                    CDULOGIC
000633: 15,3050           73406                           PUSH     SIN                                   #  THEN Y=0.5SIN(AZ)COS(EL)
000634: 15,3051           72405                           DMP      SL1
000635: 15,3052           00001                                    0D
000636: 15,3053           13712                           STODL    TARGET1    +14D,2
000637: 15,3054           41346                           COS      DMP
000638: 15,3055           76152                           SL1      AXT,1
000639: 15,3056           00000                                    0D
000640: 15,3057           05710                           STORE    TARGET1    +12D,2
000641: 15,3060           43504                           TIX,2    RVQ
000642: 15,3061           33035                                    PROC1
000643:


000647:
000648: 15,3062           00004        GOSPITGY           INHINT
000649: 15,3063           34437                           CAF      PRIO26
000650: 15,3064           04276                           TC       NOVAC
000651: 15,3065           02475 32005                     2CADR    SPITGYRO
000652:
000653: 15,3067           04353                           TC       ENDOFJOB
000654:
000655: 15,3070                        ENDPRELS           EQUALS

End of include-file PRELAUNCH_ALIGNMENT_PROGRAM.agc.  Parent file is MAIN.agc


