
Source Code


000002:                                                                                                  ## Copyright:   Public domain.
000003:                                                                                                  ## Filename:    SINGLE_PRECISION_SUBROUTINES.agc
000004:                                                                                                  ## Purpose:     A section of Sundial E.
000005:                                                                                                  ##              It is part of the reconstructed source code for the final
000006:                                                                                                  ##              release of the Block II Command Module system test software. No
000007:                                                                                                  ##              original listings of this program are available; instead, this
000008:                                                                                                  ##              file was created via disassembly of dumps of Sundial core rope
000009:                                                                                                  ##              modules and comparison with other AGC programs.
000010:                                                                                                  ## Assembler:   yaYUL
000011:                                                                                                  ## Contact:     Ron Burkey <info@sandroid.org>.
000012:                                                                                                  ## Website:     www.ibiblio.org/apollo/index.html
000013:                                                                                                  ## Mod history: 2023-06-22 MAS  Created from Aurora 12.
000014:                                                                                                  ##              2023-06-30 MAS  Updated for Sundial E.
000015:
000016:
000017:    4151                                           SETLOC   ENDIBNKF
000018:
000019:                                                                                                  #  SINGLE PRECISION SINE AND COSINE
000020:
000021:    4151           67635        SPCOS              AD       HALF                                  #  ARGUMENTS SCALED AT PI
000022:    4152           55106        SPSIN              TS       TEMK
000023:    4153           14155                           TCF      SPT
000024:    4154           41106                           CS       TEMK
000025:    4155           60000        SPT                DOUBLE
000026:    4156           55106                           TS       TEMK
000027:    4157           14172                           TCF      POLLEY
000028:    4160           57106                           XCH      TEMK
000029:    4161           51106                           INDEX    TEMK
000030:    4162           67633                           AD       LIMITS
000031:    4163           40000                           COM
000032:    4164           61106                           AD       TEMK
000033:    4165           55106                           TS       TEMK
000034:    4166           14172                           TCF      POLLEY
000035:    4167           50000                           INDEX    A
000036:    4170           37634                           CA       LIMITS     +1
000037:    4171           00002                           TC       Q
000038:    4172           00006        POLLEY             EXTEND
000039:    4173           71106                           MP       TEMK
000040:    4174           55107                           TS       SQ
000041:    4175           00006                           EXTEND
000042:    4176           74210                           MP       C5/2
000043:    4177           64207                           AD       C3/2
000044:    4200           00006                           EXTEND
000045:    4201           71107                           MP       SQ
000046:    4202           64206                           AD       C1/2
000047:    4203           00006                           EXTEND
000048:    4204           71106                           MP       TEMK
000049:    4205           00002                           TC       Q                                     #  RESULT SCALED AT 1
000050:    4206           31103        C1/2               DEC      .7853134
000051:    4207           65552        C3/2               DEC      -.3216146
000052:    4210           01124        C5/2               DEC      .0363551
000053:                                                                                                  #  ENTER WITH ARGUMENT IN A, EXIT WITH ROOT IN A.  IF GIVEN A NEGATIVE ARGUMENT, THE RETURN SKIPS WITH CCS RESULT.
000054:                                                                                                  #  MINUS ZERO RETURNS LIKE PLUS ZERO.
000055:                                                                                                  #  MAXIMUM ERROR IN ANSWER IS NO GREATER THAN 2 BITS.
000056:                                                                                                  #  INTERRUPT PROGRAMS USING SPROOT MUST SAVE AND RESTORE SR.
000057:
000058:
000059:
000060:    4211           55110        SPROOT             TS       SQRARG                                #  ENTER WITH C(A) = Y
000061:    4212           10000                           CCS      A
000062:    4213           14217                           TCF      POSARG                                #  IF PNZ, CONTINUE
000063:    4214           00002                           TC       Q                                     #  RETURN WITH 0 FOR +0
000064:    4215           24002                           INCR     Q
000065:    4216           00002                           TC       Q                                     #  RETURN WITH 0 FOR -0
000066:
000067:    4217           00006        POSARG             EXTEND
000068:    4220           23107                           QXCH     ROOTRET                               #  WILL BE CALLING SPROOT1
000069:    4221           64275                           AD       63/64+1                               #  B(A) = Y - 1
000070:    4222           54000                           OVSK
000071:    4223           14264                           TCF      SPROOT2
000072:    4224           57110                           XCH      SQRARG                                #  ARG JUGGLING
000073:
000074:    4225           55110        SPROOT3            TS       SQRARG
000075:    4226           54021                           TS       SR                                    #  C(A) = Y
000076:    4227           56021                           XCH      SR                                    #  (LOSE 1 BIT)
000077:    4230           55106                           TS       HALFY                                 #  HALFY = Y/2
000078:    4231           64273                           AD       -1/8                                  #  FORM Y/2 - 1/8
000079:    4232           10000                           CCS      A                                     #  TEST FOR FIRST GUESS
000080:    4233           64274                           AD       5/8+1                                 #  Y .G. 1/4, X = Y/2 + 1/2
000081:    4234           04241                           TC       HIGUESS                               #  +0 IMPOSSIBLE FROM ADDITION
000082:    4235           14236                           NOOP                                           #  Y .LE. 1/4, X/2 = Y + 1/16
000083:    4236           37640                           CAF      BIT11                                 #  1/16
000084:    4237           61110                           AD       SQRARG                                #  SQRARG = Y
000085:    4240           60000                           DOUBLE                                         #  X FROM X/2
000086:    4241           04254        HIGUESS            TC       SPROOT1
000087:    4242           04254                           TC       SPROOT1                               #  ITERATE TWICE
000088:    4243           57107                           XCH      ROOTRET                               #  SAVE ANSWER AND GET Q
000089:    4244           10000                           CCS      A
000090:    4245           57107                           XCH      ROOTRET                               #  NO SHIFT NEEDED
000091:    4246           04252                           TC       ROOTBCK
000092:    4247           57107                           XCH      ROOTRET                               #  Q NEG, SHIFT RIGHT THREE
000093:    4250           00006                           EXTEND
000094:    4251           77637                           MP       BIT12                                 #  EXP -3
000095:    4252           51107        ROOTBCK            INDEX    ROOTRET                               #  ROOTRET = Q - 1
000096:    4253           00001                           TC       1                                     #  RETURN, C(A) = SQRT(Y)
000097:
000098:    4254           56021        SPROOT1            XCH      SR                                    #  SR = X/2
000099:    4255           41106                           CS       HALFY                                 #  NEWTON ITER  X = X/2 + (Y/2 / X/2) / 2
000100:    4256           00006                           EXTEND
000101:    4257           10021                           DV       SR                                    #  C(SR) = X/2 DV DOES NOT EDIT
000102:    4260           56021                           XCH      SR
000103:    4261           00006                           EXTEND
000104:    4262           60021                           SU       SR
000105:    4263           00002                           TC       Q                                     #  C(A) = X (NEXT)
000106:
000107:    4264           41107        SPROOT2            CS       ROOTRET                               #  SET RETURN Q NEG, AS FLAG
000108:    4265           55107                           TS       ROOTRET
000109:    4266           37644                           CAF      BIT7                                  #  SHIFT FOR SIGNIFCANCE
000110:    4267           00006                           EXTEND
000111:    4270           71110                           MP       SQRARG
000112:    4271           30001                           CA       L                                     #  B(A) = 0
000113:    4272           04225                           TC       SPROOT3
000114:
000115:    4273           73777        -1/8               OCTAL    73777
000116:    4274           24001        5/8+1              OCTAL    24001
000117:    4275           37401        63/64+1            OCTAL    37401
000118:
000119:
000120:
000121:    4276                        ENDSUBSF           EQUALS

End of include-file SINGLE_PRECISION_SUBROUTINES.agc.  Parent file is MAIN.agc


