
Source Code


000002:                                                                                                  ## Copyright:   Public domain.
000003:                                                                                                  ## Filename:    SUM_CHECK_END_OF_BANK_MARKERS.agc
000004:                                                                                                  ## Purpose:     A section of Sundial E.
000005:                                                                                                  ##              It is part of the reconstructed source code for the final
000006:                                                                                                  ##              release of the Block II Command Module system test software. No
000007:                                                                                                  ##              original listings of this program are available; instead, this
000008:                                                                                                  ##              file was created via disassembly of dumps of Sundial core rope
000009:                                                                                                  ##              modules and comparison with other AGC programs.
000010:                                                                                                  ## Assembler:   yaYUL
000011:                                                                                                  ## Contact:     Ron Burkey <info@sandroid.org>.
000012:                                                                                                  ## Website:     www.ibiblio.org/apollo/index.html
000013:                                                                                                  ## Mod history: 2023-06-22 MAS  Created from Aurora 12.
000014:                                                                                                  ##              2023-06-30 MAS  Updated for Sundial E.
000015:
000016:
000017:    5743                                           SETLOC   ENDIMUF
000018:    5743           05743                           TC       -0
000019:    5744           05744                           TC       -0
000020:
000021:    7672                                           SETLOC   ENDINTF
000022:    7672           07672                           TC       -0
000023:    7673           07673                           TC       -0
000024:
000025: 00,3657                                           SETLOC   ENDINTS0
000026: 00,3657           03657                           TC       -0
000027: 00,3660           03660                           TC       -0
000028:
000029: 01,3265                                           SETLOC   ENDSLFS2
000030: 01,3265           03265                           TC       -0
000031: 01,3266           03266                           TC       -0
000032:
000033: 04,3772                                           SETLOC   ENDRTBSS
000034: 04,3772           03772                           TC       -0
000035: 04,3773           03773                           TC       -0
000036:
000037: 05,3772                                           SETLOC   ENDDNTMS
000038: 05,3772           03772                           TC       -0
000039: 05,3773           03773                           TC       -0
000040:
000041: 06,3462                                           SETLOC   ENDIMUS1
000042: 06,3462           03462                           TC       -0
000043: 06,3463           03463                           TC       -0
000044:
000045: 07,3762                                           SETLOC   ENDCSITS
000046: 07,3762           03762                           TC       -0
000047: 07,3763           03763                           TC       -0
000048:
000049: 10,3770                                           SETLOC   ENDSLFS1
000050: 10,3770           03770                           TC       -0
000051: 10,3771           03771                           TC       -0
000052:
000053: 11,2711                                           SETLOC   ENDEXTVS
000054: 11,2711           02711                           TC       -0
000055: 11,2712           02712                           TC       -0
000056:
000057: 12,3762                                           SETLOC   ENDFRPS
000058: 12,3762           03762                           TC       -0
000059: 12,3763           03763                           TC       -0
000060:
000061: 13,3402                                           SETLOC   ENDIMPS
000062: 13,3402           03402                           TC       -0
000063: 13,3403           03403                           TC       -0
000064:
000065: 14,3274                                           SETLOC   ENDIMUS3
000066: 14,3274           03274                           TC       -0
000067: 14,3275           03275                           TC       -0
000068:
000069: 15,3070                                           SETLOC   ENDPRELS
000070: 15,3070           03070                           TC       -0
000071: 15,3071           03071                           TC       -0
000072:
000073: 16,3773                                           SETLOC   ENDPREL1
000074: 16,3773           03773                           TC       -0
000075: 16,3774           03774                           TC       -0
000076:
000077: 17,3750                                           SETLOC   ENDIMUS2
000078: 17,3750           03750                           TC       -0
000079: 17,3751           03751                           TC       -0
000080:
000081: 20,2000                                           BANK     20
000082: 20,2000           02000                           TC       -0
000083: 20,2001           02001                           TC       -0
000084:
000085: 21,2000                                           BANK     21
000086: 21,2000           02000                           TC       -0
000087: 21,2001           02001                           TC       -0

End of include-file SUM_CHECK_END_OF_BANK_MARKERS.agc.  Parent file is MAIN.agc


