
Source Code


000002:                                                                                                  ## Copyright:   Public domain.
000003:                                                                                                  ## Filename:    T4RUPT_PROGRAM.agc
000004:                                                                                                  ## Purpose:     A section of Sundial E.
000005:                                                                                                  ##              It is part of the reconstructed source code for the final
000006:                                                                                                  ##              release of the Block II Command Module system test software. No
000007:                                                                                                  ##              original listings of this program are available; instead, this
000008:                                                                                                  ##              file was created via disassembly of dumps of Sundial core rope
000009:                                                                                                  ##              modules and comparison with other AGC programs.
000010:                                                                                                  ## Assembler:   yaYUL
000011:                                                                                                  ## Contact:     Ron Burkey <info@sandroid.org>.
000012:                                                                                                  ## Website:     www.ibiblio.org/apollo/index.html
000013:                                                                                                  ## Mod history: 2023-06-22 MAS  Created from Aurora 12.
000014:                                                                                                  ##              2023-06-30 MAS  Updated for Sundial E.
000015:
000016:
000017:    4616                                           SETLOC   ENDPHMNF
000018:
000019:    4616           00006        T4RUPT             EXTEND                                         #  ZERO OUT0 EVERY T4RUPT.
000020:    4617           01010                           WRITE    OUT0                                  #  (COMES HERE WITH +0 IN A)
000021:
000022:    4620           10347                           CCS      DSRUPTSW                              #  SEE IF THIS IS A SPECIAL RUPT TO
000023:    4621           14631                           TCF      REGRUPT    +1                         #  ZERO OUT0 20MS AFTER IT WAS DRIVEN BY
000024:    4622           14630                           TCF      REGRUPT                               #  DSPOUT. IF SO, DSRUPTSW IS NNZ.
000025:
000026:    4623           67652                           AD       ONE                                   #  RESTORE DSRUPTSW TO ITS POSITIVE VALUE.
000027:    4624           54347                           TS       DSRUPTSW
000028:
000029:    4625           34636        DSKYRSET           CAF      100MRUPT                              #  20 MS ON / 100 MS OFF.
000030:    4626           54027                           TS       TIME4
000031:    4627           14515                           TCF      NOQBRSM
000032:
000033:    4630           37656        REGRUPT            CAF      SEVEN                                 #  REGULAR 60 MS RUPT - COUNT DOWN ON
000034:    4631           54065                 +1        TS       ITEMP1                                #  DSRUPTSW.
000035:    4632           54347                           TS       DSRUPTSW
000036:
000037:    4633           34023                           CAF      T4RPTBB                               #  OFF TO SWITCHED BANK
000038:    4634           56006                           XCH      BBANK
000039:    4635           12432                           TCF      T4RUPTA
000040:
000041:    4636           37766        100MRUPT           DEC      16374      B-14
000042:    4637           74000        74K                OCT      74000
000043:
000044:                                                                                                  #  RELTAB IS A PACKED TABLE. RELAYWORD CODE IN UPPER 4 BITS, RELAY CODE
000045:                                                                                                  #  IN LOWER 5 BITS.
000046:
000047:    4640           04025        RELTAB             OCT      04025
000048:    4641           10003                           OCT      10003
000049:    4642           14031                           OCT      14031
000050:    4643           20033                           OCT      20033
000051:    4644           24017                           OCT      24017
000052:    4645           30036                           OCT      30036
000053:    4646           34034                           OCT      34034
000054:    4647           40023                           OCT      40023
000055:    4650           44035                           OCT      44035
000056:    4651           50037                           OCT      50037
000057:    4652           54000                           OCT      54000
000058:    4653           60000        RELTAB11           OCT      60000
000059:    4654                        ENDT4FF            EQUALS
000060:
000061:                                                                                                  #           SWITCHED-BANK PORTION.
000062:
000063: 12,2432                                           SETLOC   ENDFRESS
000064:
000065: 12,2432           54016        T4RUPTA            TS       BANKRUPT
000066: 12,2433           00006                           EXTEND
000067: 12,2434           22012                           QXCH     QRUPT
000068:
000069: 12,2435           10322        CDRVE              CCS      DSPTAB     +11D
000070: 12,2436           02445                           TC       DSPOUT
000071: 12,2437           02445                           TC       DSPOUT
000072:
000073: 12,2440           56322                           XCH      DSPTAB     +11D
000074: 12,2441           75465                           MASK     LOW11
000075: 12,2442           54322                           TS       DSPTAB     +11D
000076: 12,2443           64653                           AD       RELTAB11
000077: 12,2444           02505                           TC       DSPLAYC
000078:
000079:                                                                                                  #  DSPOUT PROGRAM. PUTS OUT DISPLAYS.
000080:
000081: 12,2445           10303        DSPOUT             CCS      NOUT                                  #  DRIVE DISPLAY SYSTEM RELAYS.
000082: 12,2446           12451                           TCF      +3
000083:
000084: 12,2447           32466        NODSPOUT           CAF      120MRUPT                              #  SET FOR RUPT IN 120 MS IF NO RELAYS.
000085: 12,2450           12512                           TCF      SETTIME4
000086:
000087: 12,2451           54303                           TS       NOUT
000088: 12,2452           47657                           CS       ZERO
000089: 12,2453           54077                           TS       DSRUPTEM                              #  SET TO -0 FOR 1ST PASS THRU DSPTAB
000090: 12,2454           56341                           XCH      DSPCNT
000091: 12,2455           67660                           AD       NEG0                                  #  TO PREVENT +0
000092: 12,2456           54341                           TS       DSPCNT
000093: 12,2457           50341        DSPSCAN            INDEX    DSPCNT
000094: 12,2460           10307                           CCS      DSPTAB
000095: 12,2461           10341                           CCS      DSPCNT                                #  IF DSPTAB ENTRY +, SKIP
000096: 12,2462           02455                           TC       DSPSCAN    -2                         #  IF DSPCNT +, AGAIN
000097: 12,2463           02474                           TC       DSPLAY                                #  IF DSPTAB ENTRY -, DISPLAY
000098: 12,2464           00012        TABLNTH            OCT      12                                    #  DEC 10   LENGTH OF DSPTAB
000099: 12,2465           10077                           CCS      DSRUPTEM                              #  IF DSRUPTEM=+0,2ND PASS THRU DSPTAB
000100: 12,2466           37764        120MRUPT           DEC      16372      B-14                       #  (DSPCNT = 0). +0 INTO NOUT.
000101: 12,2467           54303                           TS       NOUT
000102: 12,2470           12447                           TCF      NODSPOUT
000103: 12,2471           54077                           TS       DSRUPTEM                              #  IF DSRUPTEM=-0,1ST PASS THRU DSPTAB
000104: 12,2472           32464                           CAF      TABLNTH                               #  (DSPCNT=0). +0 INTO DSRUPTEM. PASS AGAIN
000105: 12,2473           02456                           TC       DSPSCAN    -1
000106:
000107: 12,2474           67652        DSPLAY             AD       ONE
000108: 12,2475           50341                           INDEX    DSPCNT
000109: 12,2476           54307                           TS       DSPTAB                                #  REPLACE POSITIVELY
000110: 12,2477           75465                           MASK     LOW11                                 #  REMOVE BITS 12 TO 15
000111: 12,2500           54077                           TS       DSRUPTEM
000112: 12,2501           35457                           CAF      HI5
000113: 12,2502           50341                           INDEX    DSPCNT
000114: 12,2503           74640                           MASK     RELTAB                                #  PICK UP BITS 12 TO 15 OF RELTAB ENTRY
000115: 12,2504           60077                           AD       DSRUPTEM
000116: 12,2505           00006        DSPLAYC            EXTEND
000117: 12,2506           01010                           WRITE    OUT0
000118:
000119: 12,2507           40347                           CS       DSRUPTSW
000120: 12,2510           54347                           TS       DSRUPTSW
000121: 12,2511           32525                           CAF      20MRUPT
000122:
000123: 12,2512           54027        SETTIME4           TS       TIME4
000124:                                                                                                  #  JUMP TO APPROPRIATE ONCE-PER SECOND (.96 SEC ACTUALLY) ACTIVITY
000125:
000126: 12,2513           50065        T4JUMP             INDEX    ITEMP1
000127: 12,2514           12515                           TCF      +1
000128:
000129: 12,2515           13575                           TCF      OPTDRIVE
000130: 12,2516           13274                           TCF      OPTMON
000131: 12,2517           12526                           TCF      IMUMON
000132: 12,2520           14511                           TCF      RESUME
000133: 12,2521           13575                           TCF      OPTDRIVE
000134: 12,2522           13274                           TCF      OPTMON
000135: 12,2523           12526                           TCF      IMUMON
000136: 12,2524           14511                           TCF      RESUME
000137:
000138: 12,2525           37776        20MRUPT            DEC      16382      B-14
000139:
000140:                                                                                                  #  IMU INBIT MONITOR - ENTERED EVERY 480 MS BY T4RUPT.
000141:
000142: 12,2526           37647        IMUMON             CAF      BIT4                                  #  SEE IF IN COARSE ALIGN.
000143: 12,2527           00006                           EXTEND
000144: 12,2530           02012                           RAND     12
000145: 12,2531           00006                           EXTEND
000146: 12,2532           12542                           BZF      IMUMON1                               #  NO.
000147:
000148: 12,2533           40322                           CS       DSPTAB     +11D                       #  YES. IS NO ATT LAMP ON
000149: 12,2534           77647                           MASK     BIT4
000150: 12,2535           00006                           EXTEND
000151: 12,2536           12552                           BZF      IMUMON2                               #  YES.
000152:
000153: 12,2537           33260                           CAF      OCT40010                              #  NO. TURN ON NO ATT LAMP.
000154: 12,2540           26322                           ADS      DSPTAB     +11D
000155: 12,2541           12552                           TCF      IMUMON2
000156:
000157: 12,2542           40322        IMUMON1            CS       DSPTAB     +11D                       #  IS NO ATT LAMP ON
000158: 12,2543           77647                           MASK     BIT4
000159: 12,2544           10000                           CCS      A
000160: 12,2545           02552                           TC       IMUMON2                               #  NO.
000161: 12,2546           30322                           CA       DSPTAB     +11D                       #  YES. TURN OFF NO ATT LAMP.
000162: 12,2547           73257                           MASK     OCT37767
000163: 12,2550           67634                           AD       BIT15
000164: 12,2551           54322                           TS       DSPTAB     +11D
000165:
000166: 12,2552           30361        IMUMON2            CA       IMODES30                              #  SEE IF THERE HAS BEEN A CHANGE IN THE
000167: 12,2553           00006                           EXTEND                                         #  RELEVENT BITS OF CHAN 30.
000168: 12,2554           06030                           RXOR     30
000169: 12,2555           73244                           MASK     30RDMSK
000170: 12,2556           00006                           EXTEND
000171: 12,2557           12607                           BZF      TNONTEST                              #  NO CHANGE IN STATUS.
000172:
000173: 12,2560           54074                           TS       RUPTREG1                              #  SAVE BITS WHICH HAVE CHANGED.
000174: 12,2561           22361                           LXCH     IMODES30                              #  UPDATE IMODES30.
000175: 12,2562           00006                           EXTEND
000176: 12,2563           06001                           RXOR     L
000177: 12,2564           54361                           TS       IMODES30
000178:
000179: 12,2565           47652                           CS       ONE
000180: 12,2566           56074                           XCH      RUPTREG1
000181: 12,2567           00006                           EXTEND
000182: 12,2570           63037                           BZMF     TLIM                                  #  CHANGE IN IMU TEMP.
000183: 12,2571           12573                           TCF      NXTIFBIT                              #  BEGIN BIT SCAN.
000184:
000185: 12,2572           67652                 -1        AD       ONE                                   #  (RE-ENTERS HERE FROM NXTIFAIL.)
000186: 12,2573           24074        NXTIFBIT           INCR     RUPTREG1                              #  ADVANCE BIT POSITION NUMBER.
000187: 12,2574           60000                 +1        DOUBLE
000188: 12,2575           54000                           TS       A                                     #  SKIP IF OVERFLOW.
000189: 12,2576           12573                           TCF      NXTIFBIT                              #  LOOK FOR BIT.
000190:
000191: 12,2577           56075                           XCH      RUPTREG2                              #  SAVE OVERFLOW-CORRECTED DATA.
000192: 12,2600           50074                           INDEX    RUPTREG1                              #  SELECT NEW VALUE OF THIS BIT.
000193: 12,2601           37635                           CAF      BIT14
000194: 12,2602           70361                           MASK     IMODES30
000195: 12,2603           50074                           INDEX    RUPTREG1
000196: 12,2604           03240                           TC       IFAILJMP
000197:
000198: 12,2605           10075        NXTIFAIL           CCS      RUPTREG2                              #  PROCESS ANY ADDITIONAL CHANGES.
000199: 12,2606           12572                           TCF      NXTIFBIT   -1
000200:
000201: 12,2607           40361        TNONTEST           CS       IMODES30                              #  AFTER PROCESSING ALL CHANGES, SEE IF IT
000202: 12,2610           77644                           MASK     BIT7                                  #  IS TIME TO ACT ON A TURN-ON SEQUENCE.
000203: 12,2611           10000                           CCS      A
000204: 12,2612           12735                           TCF      C33TEST                               #  NO - EXAMINE CHANNEL 33.
000205:
000206: 12,2613           37643                           CAF      BIT8                                  #  SEE IF FIRST SAMPLE OR SECOND.
000207: 12,2614           70361                           MASK     IMODES30
000208: 12,2615           10000                           CCS      A
000209: 12,2616           12622                           TCF      PROCTNON                              #  REACT AFTER SECOND SAMPLE.
000210:
000211: 12,2617           37643                           CAF      BIT8                                  #  IF FIRST SAMPLE, SET BIT TO REACT NEXT
000212: 12,2620           26361                           ADS      IMODES30                              #  TIME.
000213: 12,2621           12735                           TCF      C33TEST
000214:                                                                                                  #  PROCESS IMU TURN-ON REQUESTS AFTER WAITING 1 SAMPLE FOR ALL SIGNALS TO ARRIVE.
000215:
000216: 12,2622           43264        PROCTNON           CS       BITS7&8
000217: 12,2623           70361                           MASK     IMODES30
000218: 12,2624           54361                           TS       IMODES30
000219: 12,2625           77635                           MASK     BIT14                                 #  SEE IF TURN-ON REQUEST.
000220: 12,2626           10000                           CCS      A
000221: 12,2627           12720                           TCF      OPONLY                                #  OPERATE ON ONLY.
000222:
000223: 12,2630           40361                           CS       IMODES30                              #  IF TURN-ON REQUEST, WE SHOULD HAVE IMU
000224: 12,2631           77642                           MASK     BIT9                                  #  OPERATE.
000225: 12,2632           10000                           CCS      A
000226: 12,2633           12636                           TCF      +3
000227:
000228: 12,2634           05644                           TC       ALARM                                 #  ALARM IF NOT.
000229: 12,2635           00213                           OCT      213
000230:
000231: 12,2636           03225                 +3        TC       CAGESUB
000232: 12,2637           33272                           CAF      90SECS
000233: 12,2640           04451                           TC       WAITLIST
000234: 12,2641           02646 24007                     2CADR    ENDTNON
000235: 12,2643           12735                           TCF      C33TEST
000236:
000237: 12,2644           33272        RETNON             CAF      90SECS
000238: 12,2645           04472                           TC       VARDELAY
000239:
000240: 12,2646           47651        ENDTNON            CS       BIT2                                  #  RESET TURN-ON REQUEST FAIL BIT.
000241: 12,2647           70361                           MASK     IMODES30
000242: 12,2650           56361                           XCH      IMODES30
000243: 12,2651           77651                           MASK     BIT2                                  #  IF IT WAS OFF, SEND ISS DELAY COMPLETE.
000244: 12,2652           00006                           EXTEND
000245: 12,2653           12666                           BZF      ENDTNON2
000246:
000247: 12,2654           37635                           CAF      BIT14                                 #  IF IT WAS ON AND TURN-ON REQUEST NOW
000248: 12,2655           70361                           MASK     IMODES30                              #  PRESENT, RE-ENTER 90 SEC DELAY IN WL.
000249: 12,2656           00006                           EXTEND
000250: 12,2657           12644                           BZF      RETNON
000251:
000252: 12,2660           40061                           CS       STATE                                 #  IF IT IS NOT ON NOW, SEE IF A PROG WAS
000253: 12,2661           77643                           MASK     IMUSEFLG                              #  WAITING.
000254: 12,2662           10000                           CCS      A
000255: 12,2663           14505                           TCF      TASKOVER
000256: 12,2664           04103                           TC       POSTJUMP
000257: 12,2665           26655                           CADR     IMUBAD                                #  UNSUCCESSFUL TURN-ON.
000258:
000259: 12,2666           37634        ENDTNON2           CAF      BIT15                                 #  SEND ISS DELAY COMPLETE.
000260: 12,2667           00006                           EXTEND
000261: 12,2670           05012                           WOR      12
000262: 12,2671           04654        UNZ2               TC       ZEROICDU
000263:
000264: 12,2672           43261                           CS       BITS4&5                               #  REMOVE ZERO AND COARSE.
000265: 12,2673           00006                           EXTEND
000266: 12,2674           03012                           WAND     12
000267:
000268: 12,2675           34661                           CAF      4SECS                                 #  ALLOW 4 SECS FOR COUNTER TO FIND GIMBAL.
000269: 12,2676           04472                           TC       VARDELAY
000270:
000271: 12,2677           43262        ISSUP              CS       OCT54                                 #  REMOVE CAGING, IMU FAIL INHIBIT, AND
000272: 12,2700           70361                           MASK     IMODES30                              #  ICDUFAIL INHIBIT FLAGS.
000273: 12,2701           54361                           TS       IMODES30
000274:
000275: 12,2702           03176                           TC       SETISSW                               #  ISS WARNING MIGHT HAVE BEEN INHIBITED.
000276:
000277: 12,2703           47634                           CS       BIT15                                 #  REMOVE IMU DELAY COMPLETE DISCRETE.
000278: 12,2704           00006                           EXTEND
000279: 12,2705           03012                           WAND     12
000280:
000281: 12,2706           37640                           CAF      BIT11                                 #  DONT ENABLE PROG ALARM ON PIP FAIL FOR
000282: 12,2707           04451                           TC       WAITLIST                              #  ANOTHER 10 SECS.
000283: 12,2710           02266 26007                     2CADR    PFAILOK
000284: 12,2712           40061                           CS       STATE                                 #  SEE IF ANYONE IS WAITING FOR THE IMU AT
000285: 12,2713           77643                           MASK     IMUSEFLG                              #  IMUZERO. IF SO, WAKE THEM UP.
000286: 12,2714           10000                           CCS      A
000287: 12,2715           14505                           TCF      TASKOVER
000288:
000289: 12,2716           04103                           TC       POSTJUMP
000290: 12,2717           26647                           CADR     ENDIMU
000291:
000292: 12,2720           03737        OPONLY             TC       OPONLY1
000293: 12,2721           70061                           MASK     STATE                                 #  UNLESS SOMEONE IS USING THE IMU.
000294: 12,2722           10000                           CCS      A
000295: 12,2723           12735                           TCF      C33TEST
000296:
000297: 12,2724           03233                           TC       CAGESUB2                              #  SET TURNON FLAGS.
000298:
000299: 12,2725           37646                           CAF      BIT5
000300: 12,2726           00006                           EXTEND
000301: 12,2727           05012                           WOR      12
000302:
000303: 12,2730           37645                           CAF      BIT6                                  #  WAIT 300 MS FOR AGS TO RECEIVE SIGNAL.
000304: 12,2731           04451                           TC       WAITLIST
000305: 12,2732           02671 24007                     2CADR    UNZ2
000306: 12,2734           12735                           TCF      C33TEST
000307:                                                                                                  #  MONITOR CHANNEL 33 FLIP-FLOP INPUTS.
000308:
000309: 12,2735           30362        C33TEST            CA       IMODES33                              #  SEE IF RELEVENT CHAN33 BITS HAVE
000310: 12,2736           74430                           MASK     33RDMSK
000311: 12,2737           54001                           TS       L                                     #  CHANGED.
000312: 12,2740           34430                           CAF      33RDMSK
000313: 12,2741           00006                           EXTEND
000314: 12,2742           03033                           WAND     33                                    #  RESETS FLIP-FLOP INPUTS.
000315: 12,2743           00006                           EXTEND
000316: 12,2744           06001                           RXOR     L
000317: 12,2745           00006                           EXTEND
000318: 12,2746           12775                           BZF      GLOCKMON                              #  ON NO CHANGE.
000319:
000320: 12,2747           54074                           TS       RUPTREG1                              #  SAVE BITS WHICH HAVE CHANGED.
000321: 12,2750           22362                           LXCH     IMODES33
000322: 12,2751           00006                           EXTEND
000323: 12,2752           06001                           RXOR     L
000324: 12,2753           54362                           TS       IMODES33                              #  UPDATED IMODES33.
000325:
000326: 12,2754           37657                           CAF      ZERO
000327: 12,2755           56074                           XCH      RUPTREG1
000328: 12,2756           60000                           DOUBLE
000329: 12,2757           12762                           TCF      NXTIBT     +1                         #  SCAN FOR BIT CHANGES.
000330:
000331: 12,2760           67652                 -1        AD       ONE
000332: 12,2761           24074        NXTIBT             INCR     RUPTREG1
000333: 12,2762           60000                 +1        DOUBLE
000334: 12,2763           54000                           TS       A                                     #  (CODING IDENTICAL TO CHAN 30).
000335: 12,2764           12761                           TCF      NXTIBT
000336:
000337: 12,2765           56075                           XCH      RUPTREG2
000338: 12,2766           50074                           INDEX    RUPTREG1                              #  GET NEW VALUE OF BIT WHICH CHANGED.
000339: 12,2767           37636                           CAF      BIT13
000340: 12,2770           70362                           MASK     IMODES33
000341: 12,2771           50074                           INDEX    RUPTREG1
000342: 12,2772           03246                           TC       C33JMP
000343:
000344: 12,2773           10075        NXTFL33            CCS      RUPTREG2                              #  PROCESS POSSIBLE ADDITIONAL CHANGES.
000345: 12,2774           12760                           TCF      NXTIBT     -1
000346:                                                                                                  #  MONITOR FOR GIMBAL LOCK.
000347:
000348: 12,2775           10034        GLOCKMON           CCS      CDUZ
000349: 12,2776           13002                           TCF      GLOCKCHK                              #  SEE IF MAGNITUDE OF MGA IS GREATER THAN
000350: 12,2777           13010                           TCF      SETGLOCK                              #  70 DEGREES.
000351: 12,3000           13002                           TCF      GLOCKCHK
000352: 12,3001           13010                           TCF      SETGLOCK
000353:
000354: 12,3002           63035        GLOCKCHK           AD       -70DEGS
000355: 12,3003           00006                           EXTEND
000356: 12,3004           63007                           BZMF     SETGLOCK   -1                         #  NO LOCK.
000357:
000358: 12,3005           13726                           TCF      GLOCKCK1                              #  GIMAL LOCK.
000359: 12,3006           13010                           TCF      SETGLOCK
000360:
000361: 12,3007           37657                 -1        CAF      ZERO
000362: 12,3010           60322        SETGLOCK           AD       DSPTAB     +11D                       #  SEE IF PRESENT STATE OF GIMBAL LOCK LAMP
000363: 12,3011           77645                           MASK     BIT6                                  #  AGREES WITH DESIRED STATE BY HALF ADDING
000364: 12,3012           00006                           EXTEND                                         #  THE TWO.
000365: 12,3013           14511                           BZF      GLOCKOK                               #  OK AS IS.
000366:
000367: 12,3014           70322                           MASK     DSPTAB     +11D                       #  IF OFF, DONT TURN ON IF IMU BEING CAGED.
000368: 12,3015           10000                           CCS      A
000369: 12,3016           13032                           TCF      GLAMPTST                              #  TURN OFF UNLESS LAMP TEST IN PROGRESS.
000370:
000371: 12,3017           37645                           CAF      BIT6
000372: 12,3020           70361                           MASK     IMODES30
000373: 12,3021           10000                           CCS      A
000374: 12,3022           14511                           TCF      GLOCKOK
000375:
000376: 12,3023           40322        GLINVERT           CS       DSPTAB     +11D                       #  INVERT GIMBAL LOCK LAMP.
000377: 12,3024           77645                           MASK     BIT6
000378: 12,3025           67634                           AD       BIT15                                 #  TO INDICATE CHANGE IN DSPTAB +11D.
000379: 12,3026           56322                           XCH      DSPTAB     +11D
000380: 12,3027           73036                           MASK     OCT37737
000381: 12,3030           26322                           ADS      DSPTAB     +11D
000382: 12,3031           14511                           TCF      GLOCKOK
000383:
000384: 12,3032           03251        GLAMPTST           TC       LAMPTEST                              #  TURN OFF UNLESS LAMP TEST IN PROGRESS.
000385: 12,3033           14511                           TCF      GLOCKOK
000386: 12,3034           13023                           TCF      GLINVERT
000387:
000388: 12,3035           63434        -70DEGS            DEC      -.38888                               #  -70 DEGREES SCALED IN HALF-REVOLUTIONS.
000389: 12,3036           37737        OCT37737           OCT      37737
000390:                                                                                                  #  SUBROUTINES TO PROCESS INBIT CHANGES. NEW VALUE OF BIT ARRIVES IN A, EXCEPT FOR TLIM.
000391:
000392: 12,3037           77632        TLIM               MASK     POSMAX                                #  REMOVE BIT FROM WORD OF CHANGES AND SET
000393: 12,3040           54075                           TS       RUPTREG2                              #  DSKY TEMP LAMP ACCORDINGLY.
000394:
000395: 12,3041           10361                           CCS      IMODES30
000396: 12,3042           13050                           TCF      TEMPOK
000397: 12,3043           13050                           TCF      TEMPOK
000398:
000399: 12,3044           37647                           CAF      BIT4                                  #  TURN ON LAMP.
000400: 12,3045           00006                           EXTEND
000401: 12,3046           05011                           WOR      11
000402: 12,3047           12605                           TCF      NXTIFAIL
000403:
000404: 12,3050           03251        TEMPOK             TC       LAMPTEST                              #  IF TEMP NOW OK, DONT TURN OFF LAMP IF
000405: 12,3051           12605                           TCF      NXTIFAIL                              #  LAMP TEST IN PROGRESS.
000406:
000407: 12,3052           47647                           CS       BIT4
000408: 12,3053           00006                           EXTEND
000409: 12,3054           03011                           WAND     11
000410: 12,3055           12605                           TCF      NXTIFAIL
000411:
000412: 12,3056           37651        ITURNON            CAF      BIT2                                  #  IF DELAY REQUEST HAS GONE OFF
000413: 12,3057           70361                           MASK     IMODES30                              #  PREMATURELY, DO NOT PROCESS ANY CHANGES
000414: 12,3060           10000                           CCS      A                                     #  UNTIL THE CURRENT 90 SEC WAIT EXPIRES.
000415: 12,3061           12605                           TCF      NXTIFAIL
000416:
000417: 12,3062           37635                           CAF      BIT14                                 #  SEE IF JUST ON OR OFF.
000418: 12,3063           70361                           MASK     IMODES30
000419: 12,3064           00006                           EXTEND
000420: 12,3065           13101                           BZF      ITURNON2                              #  IF JUST ON.
000421:
000422: 12,3066           37634                           CAF      BIT15
000423: 12,3067           00006                           EXTEND                                         #  SEE IF DELAY PRESENT DISCRETE HAS BEEN
000424: 12,3070           02012                           RAND     12                                    #  SENT. IF SO, ACTION COMPLETE.
000425: 12,3071           00006                           EXTEND
000426: 12,3072           13074                           BZF      +2
000427: 12,3073           12605                           TCF      NXTIFAIL
000428:
000429: 12,3074           37651                           CAF      BIT2                                  #  IF NOT, SET BIT TO INDICATE REQUEST NOT
000430: 12,3075           26361                           ADS      IMODES30                              #  PRESENT FOR FULL DURATION.
000431: 12,3076           05644                           TC       ALARM
000432: 12,3077           00207                           OCTAL    207
000433: 12,3100           12605                           TCF      NXTIFAIL
000434:
000435: 12,3101           47644        ITURNON2           CS       BIT7                                  #  SET BIT 7 TO INITIATE WAIT OF 1 SAMPLE.
000436: 12,3102           70361                           MASK     IMODES30
000437: 12,3103           67644                           AD       BIT7
000438: 12,3104           54361                           TS       IMODES30
000439: 12,3105           12605                           TCF      NXTIFAIL
000440: 12,3106           10000        IMUCAGE            CCS      A                                     #  NO ACTION IF GOING OFF.
000441: 12,3107           12605                           TCF      NXTIFAIL
000442:
000443: 12,3110           43267                           CS       OCT71000                              #  TERMINATE ICDU AND GYRO PULSE TRAINS.
000444: 12,3111           00006                           EXTEND
000445: 12,3112           03014                           WAND     14
000446:
000447: 12,3113           03225                           TC       CAGESUB
000448:
000449: 12,3114           37657                           CAF      ZERO                                  #  ZERO COMMAND OUT-COUNTERS.
000450: 12,3115           54050                           TS       CDUXCMD
000451: 12,3116           54051                           TS       CDUYCMD
000452: 12,3117           54052                           TS       CDUZCMD
000453: 12,3120           54047                           TS       GYROCMD
000454:
000455: 12,3121           43266                           CS       OCT1700                               #  HAVING WAITED AT LEAST 27 MCT FROM
000456: 12,3122           00006                           EXTEND                                         #  GYRO PULSE TRAIN TERMINATION, WE CAN
000457: 12,3123           03014                           WAND     14                                    #  DE-SELECT THE GYROS.
000458:
000459: 12,3124           12605                           TCF      NXTIFAIL
000460:
000461: 12,3125           00006        IMUOP              EXTEND
000462: 12,3126           13136                           BZF      IMUOP2
000463:
000464: 12,3127           40061                           CS       STATE                                 #  IF GOING OFF, ALARM IF PROG USING IMU.
000465: 12,3130           77643                           MASK     IMUSEFLG
000466: 12,3131           10000                           CCS      A
000467: 12,3132           12605                           TCF      NXTIFAIL
000468:
000469: 12,3133           05644                           TC       ALARM
000470: 12,3134           00214                           OCT      214
000471: 12,3135           12605                           TCF      NXTIFAIL
000472:
000473: 12,3136           37651        IMUOP2             CAF      BIT2                                  #  SEE IF FAILED ISS TURN-ON SEQ IN PROG.
000474: 12,3137           70361                           MASK     IMODES30
000475: 12,3140           10000                           CCS      A
000476: 12,3141           12605                           TCF      NXTIFAIL                              #  IF SO, DONT PROCESS UNTIL PRESENT 90
000477: 12,3142           13101                           TCF      ITURNON2                              #  SECONDS EXPIRES.
000478:
000479: 12,3143           10000        PIPFAIL            CCS      A                                     #  SET BIT10 IN IMODES30 SO ALL ISS WARNING
000480: 12,3144           37641                           CAF      BIT10                                 #  INFO IS IN ONE REGISTER.
000481: 12,3145           56361                           XCH      IMODES30
000482: 12,3146           73271                           MASK     -BIT10
000483: 12,3147           26361                           ADS      IMODES30
000484:
000485: 12,3150           03176                           TC       SETISSW
000486:
000487: 12,3151           40361                           CS       IMODES30                              #  IF PIP FAIL DOESNT LIGHT ISS WARNING, DO
000488: 12,3152           77652                           MASK     BIT1                                  #  A PROGRAM ALARM IF IMU OPERATING BUT NOT
000489: 12,3153           10000                           CCS      A                                     #  CAGED OR BEING TURNED ON.
000490: 12,3154           12773                           TCF      NXTFL33
000491:
000492: 12,3155           30361                           CA       IMODES30
000493: 12,3156           73265                           MASK     OCT1720
000494: 12,3157           10000                           CCS      A
000495: 12,3160           12773                           TCF      NXTFL33                               #  ABOVE CONDITION NOT MET.
000496:
000497: 12,3161           05644                           TC       ALARM
000498: 12,3162           00212                           OCT      212
000499: 12,3163           12773                           TCF      NXTFL33
000500:
000501: 12,3164           10000        DNTMFAST           CCS      A                                     #  DO PROG ALARM IF TM TOO FAST.
000502: 12,3165           12773                           TCF      NXTFL33
000503:
000504: 12,3166           05644                           TC       ALARM
000505: 12,3167           01105                           OCT      1105
000506: 12,3170           12773                           TCF      NXTFL33
000507:
000508: 12,3171           10000        UPTMFAST           CCS      A                                     #  SAME AS DNLINK TOO FAST WITH DIFFERENT
000509: 12,3172           12773                           TCF      NXTFL33                               #  ALARM CODE.
000510:
000511: 12,3173           05644                           TC       ALARM
000512: 12,3174           01106                           OCT      1106
000513: 12,3175           12773                           TCF      NXTFL33
000514:                                                                                                  #  CLOSED SUBROUTINES FOR IMU MONITORING.
000515: 12,3176           33256        SETISSW            CAF      OCT15                                 #  SET ISS WARNING USING THE FAIL BITS IN
000516: 12,3177           70361                           MASK     IMODES30                              #  BITS 13, 12, AND 10 OF IMODES30 AND THE
000517: 12,3200           00006                           EXTEND                                         #  FAILURE INHIBIT BITS IN POSITIONS
000518: 12,3201           77641                           MP       BIT10                                 #  4, 3, AND 1.
000519: 12,3202           30361                           CA       IMODES30
000520: 12,3203           00006                           EXTEND
000521: 12,3204           04001                           ROR      L                                     #  0 INDICATES FAILURE.
000522: 12,3205           40000                           COM
000523: 12,3206           74427                           MASK     OCT15000
000524: 12,3207           10000                           CCS      A
000525: 12,3210           13221                           TCF      ISSWON                                #  FAILURE.
000526:
000527: 12,3211           37652        ISSWOFF            CAF      BIT1                                  #  DONT TURN OFF ISS WARNING IF LAMP TEST
000528: 12,3212           70362                           MASK     IMODES33                              #  IN PROGRESS.
000529: 12,3213           10000                           CCS      A
000530: 12,3214           00002                           TC       Q
000531:
000532: 12,3215           47652                           CS       BIT1
000533: 12,3216           00006                           EXTEND
000534: 12,3217           03011                           WAND     11
000535: 12,3220           00002                           TC       Q
000536:
000537: 12,3221           37652        ISSWON             CAF      BIT1
000538: 12,3222           00006                           EXTEND
000539: 12,3223           05011                           WOR      11
000540: 12,3224           00002                           TC       Q
000541:
000542: 12,3225           43270        CAGESUB            CS       BITS6&15                              #  SET OUTBITS AND INTERNAL FLAGS FOR
000543: 12,3226           00006                           EXTEND                                         #  SYSTEM TURN-ON OR CAGE. DISABLE THE
000544: 12,3227           03012                           WAND     12                                    #  ERROR COUNTER AND REMOVE IMU DELAY COMP.
000545: 12,3230           33261                           CAF      BITS4&5                               #  SEND ZERO AND COARSE.
000546: 12,3231           00006                           EXTEND
000547: 12,3232           05012                           WOR      12
000548:
000549: 12,3233           43263        CAGESUB2           CS       OCT75                                 #  SET FLAGS TO INDICATE CAGING OR TURN-ON,
000550: 12,3234           70361                           MASK     IMODES30                              #  AND TO INHIBIT ALL ISS WARNING INFO.
000551: 12,3235           63263                           AD       OCT75
000552: 12,3236           54361                           TS       IMODES30
000553:
000554: 12,3237           00002                           TC       Q
000555:
000556: 12,3240  12,3176               IMUFAIL            EQUALS   SETISSW
000557: 12,3240  12,3176               ICDUFAIL           EQUALS   SETISSW
000558:                                                                                                  #  JUMP TABLES AND CONSTANTS.
000559: 12,3240           13056        IFAILJMP           TCF      ITURNON                               #  CHANNEL 30 DISPATCH.
000560: 12,3241           13176                           TCF      IMUFAIL
000561: 12,3242           13176                           TCF      ICDUFAIL
000562: 12,3243           13106                           TCF      IMUCAGE
000563: 12,3244           76400        30RDMSK            OCT      76400                                 #  (BIT 10 NOT SAMPLED HERE).
000564: 12,3245           13125                           TCF      IMUOP
000565:
000566: 12,3246           13143        C33JMP             TCF      PIPFAIL                               #  CHANNEL 33 DISPATCH.
000567: 12,3247           13164                           TCF      DNTMFAST
000568: 12,3250           13171                           TCF      UPTMFAST
000569:
000570:                                                                                                  #  SUBROUTINE TO SKIP IF LAMP TEST NOT IN PROGRESS.
000571: 12,3251           40362        LAMPTEST           CS       IMODES33                              #  BIT1 OF IMODES33 = 1 IF LAMP TEST IN
000572: 12,3252           77652                           MASK     BIT1                                  #  PROGRESS.
000573: 12,3253           10000                           CCS      A
000574: 12,3254           24002                           INCR     Q
000575: 12,3255           00002                           TC       Q
000576:
000577: 12,3256     4430               33RDMSK            EQUALS   PRIO16
000578: 12,3256           00015        OCT15              OCT      15
000579: 12,3257           37767        OCT37767           OCT      37767
000580: 12,3260           40010        OCT40010           OCT      40010
000581: 12,3261           00030        BITS4&5            OCT      30
000582: 12,3262           00054        OCT54              OCT      54
000583: 12,3263           00075        OCT75              OCT      75
000584: 12,3264           00300        BITS7&8            OCT      300
000585: 12,3265           01720        OCT1720            OCT      1720
000586: 12,3266           01700        OCT1700            OCT      1700
000587: 12,3267     4427               OCT15000           EQUALS   PRIO15
000588: 12,3267           71000        OCT71000           OCT      71000
000589: 12,3270           40040        BITS6&15           OCT      40040
000590: 12,3271           76777        -BIT10             OCT      -1000
000591:
000592: 12,3272           21450        90SECS             DEC      9000       B-14
000593: 12,3273           00014        120MS              DEC      12         B-14
000594: 12,3274     4511               GLOCKOK            EQUALS   RESUME
000595:
000596:                                                                                                  #  OPTICS MONITORING AND ZERO ROUTINES
000597: 12,3274           30354        OPTMON             CA       OPTMODES                              #  MONITOR OPTICS INBITS IN CHAN 30 AND 33
000598: 12,3275           00006                           EXTEND
000599: 12,3276           06030                           RXOR     30                                    #  LOOK FOR OCDU FAIL BIT CHANGE
000600: 12,3277           77644                           MASK     BIT7
000601: 12,3300           54074                           TS       RUPTREG1                              #  STORE CHANGE BIT
000602: 12,3301           10000                           CCS      A
000603: 12,3302           03534                           TC       OCDUFTST                              #  PROCESS OCDUFAIL BIT CHANGE
000604:
000605: 12,3303           30354        33OPTMON           CA       OPTMODES                              #  LOOK FOR OPTICS MODE SWITCH CHANGE
000606: 12,3304           00006                           EXTEND
000607: 12,3305           06033                           RXOR     CHAN33
000608: 12,3306           77666                           MASK     OCTHIRTY
000609: 12,3307           26074                           ADS      RUPTREG1                              #  STORE INBIT CHANGES
000610: 12,3310           22354                           LXCH     OPTMODES
000611: 12,3311           00006                           EXTEND
000612: 12,3312           06001                           RXOR     L
000613: 12,3313           54354                           TS       OPTMODES                              #  UPDATE OPTMODES TO SHOW BIT  CHANGES
000614:
000615: 12,3314           40000                           COM                                            #  SAMPLE CURRENT SWITCH SETTING
000616: 12,3315           77666                           MASK     OCTHIRTY
000617: 12,3316           00006                           EXTEND
000618: 12,3317           13324                           BZF      SETSAMP                               #  MANUAL-SET ZERO IN SWSAMPLE
000619:
000620: 12,3320           77646                           MASK     BIT5                                  #  SEE IF CSC
000621: 12,3321           10000                           CCS      A
000622: 12,3322           03324                           TC       +2                                    #  CSC-SET SWSAMPLE POS
000623: 12,3323           37661                           CAF      NEGONE                                #  ZOPTICS-SET SWSAMPLE (-1)
000624: 12,3324           54355        SETSAMP            TS       SWSAMPLE                              #  CURRENT OPTICS SWITCH SETTING
000625:
000626: 12,3325           10356        PROCESSW           CCS      DESOPMOD                              #  BRANCH ON PREVIOUS SETTING
000627: 12,3326           03432                           TC       CSCDES                                #  CSC
000628: 12,3327           03404                           TC       MANUDES                               #  MANUAL
000629: 12,3330           03331                           TC       ZOPTDES                               #  ZERO OPTICS
000630: 12,3331           10355        ZOPTDES            CCS      SWSAMPLE                              #  IS SWITCH STILL AT ZOPTICS
000631: 12,3332           03351                           TC       ZTOCSC                                #  NOW AT CSC
000632: 12,3333           03341                           TC       ZTOMAN                                #  MANUAL
000633: 12,3334           03364                           TC       ZOPFINI                               #  ZOPTICS-SEE IF ZOPT PROCESSING
000634: 12,3335           03462                           TC       SETDESMD                              #  ZOPT NOT PROCESSING-NO ACTION
000635:
000636: 12,3336           10360                           CCS      ZOPTCNT                               #  ZOPT PROCESSING-CHECK COUNTER
000637: 12,3337           03461                           TC       SETCNT                                #  32 SAMPLE NOT FINISHED-SET COUNTER
000638: 12,3340           03465                           TC       SETZOEND                              #  32 SAMPLE WAIT COMPLETED-SET UP ZOP END
000639:
000640: 12,3341           03364        ZTOMAN             TC       ZOPFINI                               #  ZOP TO MANUAL-IS ZOPT DONE
000641: 12,3342           03462                           TC       SETDESMD                              #  YES-NORMAL EXIT
000642:
000643: 12,3343           05644        ZOPALARM           TC       ALARM                                 #  ALARM-SWITCHED ALTERED WHILE ZOPTICS
000644: 12,3344           00116                           OCT      00116
000645: 12,3345           33571                           CAF      OCT13                                 #  PROCESSING-SET RETURN OPTION
000646: 12,3346           54357                           TS       WTOPTION
000647:
000648: 12,3347           03375                           TC       CANZOPT                               #  CANCEL ZOPT
000649:
000650: 12,3350           03462                           TC       SETDESMD
000651:
000652: 12,3351           03364        ZTOCSC             TC       ZOPFINI                               #  SEE IF ZOPT PROCESSING
000653: 12,3352           03422                           TC       MANTOCSC   +3                         #  NO-CHECK RETURN TO COARS OPT
000654: 12,3353           05644                           TC       ALARM                                 #  ZOPT PROCESSING-ALARM
000655: 12,3354           00116                           OCT      00116
000656: 12,3355           03375                           TC       CANZOPT                               #  CANCEL ZOPT
000657: 12,3356           03417                           TC       MANTOCSC                              #  ZERO CNT-LOOK FOR COARS OPT RETURN
000658:
000659: 12,3357           37642        COARSLOK           CAF      BIT9                                  #  IF COARS OPT SINCE FSTART GO TO L+2
000660: 12,3360           70354                           MASK     OPTMODES                              #  RETURNS TO L+1 PROCESSING AND
000661: 12,3361           10000                           CCS      A
000662: 12,3362           24002                           INCR     Q                                     #  L+2 IF NOT
000663: 12,3363           00002                           TC       Q
000664: 12,3364           37652        ZOPFINI            CAF      BIT1                                  #  SEE IF END ZOPT TASK WORKING
000665: 12,3365           70354                           MASK     OPTMODES
000666: 12,3366           10000                           CCS      A
000667: 12,3367           04511                           TC       RESUME                                #  ZOPT TASK WORKING-WAIT ONE SAMPLE PERIOD
000668:
000669: 12,3370           37650                           CAF      BIT3                                  #  TEST IF ZOPTICS PROCESSING
000670: 12,3371           70354                           MASK     OPTMODES                              #  RETURNS TO L+1 PROCESSING AND
000671: 12,3372           10000                           CCS      A
000672: 12,3373           24002                           INCR     Q                                     #  L+2 IF NOT
000673: 12,3374           00002                           TC       Q
000674:
000675: 12,3375           46162        CANZOPT            CS       SIX                                   #  CANCEL ZERO OPTICS
000676: 12,3376           70354                           MASK     OPTMODES                              #  ZERO ZOPT PROCESSING BIT-ENABLE OCDUFAIL
000677: 12,3377           54354                           TS       OPTMODES
000678: 12,3400           47652                           CS       BIT1                                  #  MAKE SURE ZERO OCDU IS OFF
000679: 12,3401           00006                           EXTEND
000680: 12,3402           03012                           WAND     CHAN12
000681: 12,3403           00002                           TC       Q
000682:
000683: 12,3404           10355        MANUDES            CCS      SWSAMPLE                              #  SEE IF SWITCH STILL IN MANUAL MODE
000684: 12,3405           03417                           TC       MANTOCSC                              #  NOW AT CSC
000685: 12,3406           03414                           TC       MANTOMAN                              #  STILL MANUAL
000686: 12,3407           10357                           CCS      WTOPTION                              #  ZOPTICS-LOOK AT ZOPTICS RETURN OPTION
000687: 12,3410           03412                           TC       +2                                    #  5 SEC RETURN GOOD-CONTINUE ZOPTICS
000688: 12,3411           03457                           TC       OPTZERO                               #  ZOPTICS MUST START ANEW
000689:
000690: 12,3412           03525                           TC       INITZOPT                              #  SHOW ZERO OPTICS PROCESSING
000691: 12,3413           03462                           TC       SETDESMD                              #  NORMAL EXIT
000692:
000693: 12,3414           10357        MANTOMAN           CCS      WTOPTION                              #  DECREMENT RETURN OPTION TIME
000694: 12,3415           54357                           TS       WTOPTION
000695: 12,3416           03462                           TC       SETDESMD
000696:
000697: 12,3417           37657        MANTOCSC           CAF      ZERO                                  #  CANCEL ZOPT RETURN OPTION IF SET
000698: 12,3420           54357                           TS       WTOPTION
000699: 12,3421           54360                           TS       ZOPTCNT
000700:
000701: 12,3422           03357                           TC       COARSLOK                              #  CHECK FOR COARS OPT RETURN
000702: 12,3423           03462                           TC       SETDESMD                              #  NO COARS TASK-NO ACTION
000703:
000704: 12,3424           37652                           CAF      ONE                                   #  SET COARS OPT WORKING
000705: 12,3425           54350                           TS       OPTIND
000706: 12,3426           37651                           CAF      BIT2                                  #  ENABLE OPTICS CDU ERROR CNTS
000707: 12,3427           00006                           EXTEND
000708: 12,3430           05012                           WOR      CHAN12
000709:
000710: 12,3431           03462                           TC       SETDESMD
000711:
000712: 12,3432           10355        CSCDES             CCS      SWSAMPLE                              #  SEE IF SWITCH STILL AT CSC
000713: 12,3433           03462                           TC       SETDESMD                              #  STILL AT CSC
000714: 12,3434           03440                           TC       CSCTOMAN                              #  MANUAL
000715: 12,3435           33573        CSCTOZOP           CAF      OCT40                                 #  ZOPTICS-INITIALIZE FOR ZOPT
000716: 12,3436           54360                           TS       ZOPTCNT
000717: 12,3437           03525                           TC       INITZOPT
000718:
000719: 12,3440           10350        CSCTOMAN           CCS      OPTIND                                #  SEE IF COARS WORKING
000720: 12,3441           03445                           TC       CANCOARS                              #  COARS WORKING-SWITCH NOT CSC-KILL COARS
000721: 12,3442           03445                           TC       CANCOARS
000722: 12,3443           03444                           TC       +1                                    #  NO COARS-NORMAL EXIT
000723: 12,3444           03462                           TC       SETDESMD
000724: 12,3445           37661        CANCOARS           CA       NEGONE
000725: 12,3446           54350                           TS       OPTIND                                #  SET OPTIND (-1) TO SHOW NOT WORKING
000726: 12,3447           47651                           CS       BIT2                                  #  DISABLE OCDU ERR CNTS
000727: 12,3450           00006                           EXTEND
000728: 12,3451           03012                           WAND     CHAN12
000729: 12,3452           47642                           CS       BIT9                                  #  SET RETURN-TO-COARS BIT
000730: 12,3453           70354                           MASK     OPTMODES
000731: 12,3454           67642                           AD       BIT9
000732: 12,3455           54354                           TS       OPTMODES
000733:
000734: 12,3456           03462                           TC       SETDESMD
000735: 12,3457           03525        OPTZERO            TC       INITZOPT                              #  INITIALIZE ZERO OPTICS
000736:
000737: 12,3460           33573                           CA       OCT40                                 #  SET UP 32 SAMPLE WAIT
000738: 12,3461           54360        SETCNT             TS       ZOPTCNT
000739: 12,3462           30355        SETDESMD           CA       SWSAMPLE                              #  SET CURRENT SWITCH INDICATION-RESUME
000740: 12,3463           54356                           TS       DESOPMOD
000741: 12,3464           04511                           TC       RESUME
000742:
000743: 12,3465           37652        SETZOEND           CAF      BIT1                                  #  SEND ZERO OPTICS CDU
000744: 12,3466           00006                           EXTEND
000745: 12,3467           05012                           WOR      CHAN12
000746: 12,3470           33574                           CA       200MS                                 #  HOLD ZERO CDU FOR 200 MS
000747: 12,3471           04451                           TC       WAITLIST
000748: 12,3472           03501 24007                     2CADR    ENDZOPT
000749:
000750: 12,3474           47652                           CS       BIT1                                  #  SHOW ZOPTICS TASK WORKING
000751: 12,3475           70354                           MASK     OPTMODES
000752: 12,3476           67652                           AD       BIT1
000753: 12,3477           54354                           TS       OPTMODES
000754:
000755: 12,3500           03462                           TC       SETDESMD
000756:
000757: 12,3501           03520        ENDZOPT            TC       ZEROPCDU                              #  ZERO OCDU COUNTERS
000758: 12,3502           47652                           CS       BIT1                                  #  TURN OFF ZERO OCDU
000759: 12,3503           00006                           EXTEND
000760: 12,3504           03012                           WAND     CHAN12
000761: 12,3505           33574                           CAF      200MS                                 #  DELAY 200MS FOR OPTX TO RESYNCHRONIZE
000762: 12,3506           04472                           TC       VARDELAY
000763:
000764: 12,3507           47641                           CS       BIT10                                 #  SHOW ZOPTICS SINCE LAST FRESH START
000765: 12,3510           70354                           MASK     OPTMODES                              #      OR RESTART
000766: 12,3511           67641                           AD       BIT10
000767: 12,3512           54354                           TS       OPTMODES
000768:
000769: 12,3513           47656                           CS       SEVEN                                 #  ENABLE OCDUFAIL-SHOW OPTICS COMPLETE
000770: 12,3514           70354                           MASK     OPTMODES
000771: 12,3515           54354                           TS       OPTMODES
000772:
000773: 12,3516           03534                           TC       OCDUFTST                              #  CHECK OCDU FAIL BIT AFTER ENABLE
000774: 12,3517           04505                           TC       TASKOVER
000775:
000776: 12,3520           37657        ZEROPCDU           CAF      ZERO
000777: 12,3521           54036                           TS       OPTX                                  #  ZERO IN OPTX,-20 IN OPTY
000778: 12,3522           43572                           CS       20DEGS
000779: 12,3523           54035                           TS       OPTY
000780: 12,3524           00002                           TC       Q
000781:
000782: 12,3525           37657        INITZOPT           CAF      ZERO                                  #  INITIALIZE ZOPTICS-INHIBIT OCDUFAIL
000783: 12,3526           54357                           TS       WTOPTION                              #  AND SHOW OPTICS PROCESSING
000784: 12,3527           46162                           CS       SIX                                   #  SET ZERO OPTICS PROCESSING
000785: 12,3530           70354                           MASK     OPTMODES                              #      OPTICS CDU FAIL INHIBITED
000786: 12,3531           66162                           AD       SIX
000787: 12,3532           54354                           TS       OPTMODES
000788: 12,3533           00002                           TC       Q
000789:
000790:
000791: 12,3534           37644        OCDUFTST           CAF      BIT7                                  #  SEE IF OCDUFAIL ON OR OFF
000792: 12,3535           00006                           EXTEND
000793: 12,3536           02030                           RAND     30
000794: 12,3537           10000                           CCS      A
000795: 12,3540           13562                           TCF      OPFAILOF                              #  OCDUFAIL LIGHT OFF
000796:
000797: 12,3541           37651                           CAF      BIT2                                  #  OCDUFAIL LIGHT ON UNLESS INHIBITED
000798: 12,3542           70354                           MASK     OPTMODES
000799: 12,3543           10000                           CCS      A
000800: 12,3544           00002                           TC       Q                                     #  OCDUFAIL INHIBITED
000801:
000802: 12,3545           37643        OPFAILON           CAF      BIT8                                  #  ON BIT
000803: 12,3546           60322                           AD       DSPTAB     +11D
000804: 12,3547           77643                           MASK     BIT8
000805: 12,3550           00006        SETOFF             EXTEND
000806: 12,3551           14615                           BZF      TCQ                                   #  NO CHANGE
000807:
000808: 12,3552           54001                           TS       L
000809: 12,3553           30322                           CA       DSPTAB     +11D
000810: 12,3554           00006                           EXTEND
000811: 12,3555           06001                           RXOR     L
000812: 12,3556           77632                           MASK     POSMAX
000813: 12,3557           67634                           AD       BIT15                                 #  SHOW ACTION WANTED
000814: 12,3560           54322                           TS       DSPTAB     +11D
000815: 12,3561           00002                           TC       Q
000816:
000817: 12,3562           37652        OPFAILOF           CAF      BIT1                                  #  DONT TURN OFF IF LAMP TEST
000818: 12,3563           70362                           MASK     IMODES33
000819: 12,3564           10000                           CCS      A
000820: 12,3565           00002                           TC       Q                                     #  LAMP TEST IN PROGRESS
000821:
000822: 12,3566           37643                           CAF      BIT8                                  #  TURN OFF OCDUFAIL LIGHT
000823: 12,3567           70322                           MASK     DSPTAB     +11D
000824: 12,3570           13551                           TCF      SETOFF     +1
000825:
000826: 12,3571           00013        OCT13              OCT      13
000827: 12,3572     7666               OCTHIRTY           EQUALS   CALLCODE
000828: 12,3572           16037        20DEGS             DEC      7199       B-14
000829: 12,3573           00040        OCT40              OCT      40
000830: 12,3574           00024        200MS              DEC      20         B-14
000831:
000832:
000833:                                                                                                  #  OPTICS CDU DRIVING PROGRAM
000834:
000835: 12,3575           10350        OPTDRIVE           CCS      OPTIND
000836: 12,3576           03602                           TC       +4                                    #  WORK COARS OPTICS
000837: 12,3577           03602                           TC       +3                                    #  WORK COARS OPTICS
000838: 12,3600           04511                           TC       RESUME                                #  NO OPT
000839: 12,3601           04511                           TC       RESUME                                #  NO OPT
000840:
000841: 12,3602           10355                           CCS      SWSAMPLE                              #  SEE IF SWITCH AT CMC
000842: 12,3603           03606                           TC       +3
000843: 12,3604           04511                           TC       RESUME                                #  ZERO  (-1)         MANUAL  (+0)
000844: 12,3605           04511                           TC       RESUME
000845:
000846: 12,3606           37641                           CAF      BIT10                                 #  SEE IF OCDUS ZEROED SINCE LAST FSTART
000847: 12,3607           70354                           MASK     OPTMODES
000848: 12,3610           10000                           CCS      A
000849: 12,3611           03614                           TC       +3
000850: 12,3612           05644                           TC       ALARM                                 #  OPTICS NOT ZEROED
000851: 12,3613           00120                           OCT      00120
000852:
000853: 12,3614           37651                           CA       BIT2                                  #  SEE IF ERR CNTS ENABLED
000854: 12,3615           00006                           EXTEND
000855: 12,3616           02012                           RAND     12
000856: 12,3617           00006                           EXTEND
000857: 12,3620           13720                           BZF      SETBIT                                #  CNTS NOT ENABLED-DO IT AND RESUME
000858:
000859: 12,3621           37652                           CAF      ONE                                   #  INITIALIZE OPTIND
000860: 12,3622           54350        OPT2               TS       OPTIND
000861: 12,3623           00006                           EXTEND
000862: 12,3624           13656                           BZF      TRUNCMD                               #  CHECK TRUNION COMMAND
000863:
000864: 12,3625           50350        GETOPCMD           INDEX    OPTIND
000865: 12,3626           30403                           CA       DESOPTT                               #  PICK UP DESIRED OPT ANGLE
000866: 12,3627           00006                           EXTEND
000867: 12,3630           50350                           INDEX    OPTIND
000868: 12,3631           20035                           MSU      OPTY                                  #  GET DIFFERENCE
000869: 12,3632           00006                           EXTEND
000870: 12,3633           77636                           MP       BIT13
000871: 12,3634           56001                           XCH      L
000872: 12,3635           60000                           DOUBLE
000873: 12,3636           54065                           TS       ITEMP1
000874: 12,3637           13641                           TCF      +2                                    #  NO OVFL
000875:
000876: 12,3640           26001                           ADS      L                                     #  WITH OVFL
000877: 12,3641           50350        STORCMD            INDEX    OPTIND
000878: 12,3642           22352                           LXCH     COMMANDO                              #  STORE COMMAND
000879: 12,3643           10350                           CCS      OPTIND
000880: 12,3644           13622                           TCF      OPT2                                  #  GET NEXT COMMAND
000881:
000882: 12,3645           54065                           TS       ITEMP1                                #  INITIALIZE SEND INDICATOR TO ZERO
000883:
000884: 12,3646           37652        CMDSETUP           CAF      ONE                                   #  SET OPTIND
000885: 12,3647           54350                           TS       OPTIND
000886: 12,3650           50000                           INDEX    A
000887: 12,3651           10352                           CCS      COMMANDO                              #  GET SIGN OF COMMAND
000888: 12,3652           03670                           TC       POSOPCMD
000889: 12,3653           03675                           TC       NEXTOPT    +1                         #  ZERO COMMAND-SKIP SEND INDICATOR
000890: 12,3654           03704                           TC       NEGOPCMD
000891: 12,3655           03675                           TC       NEXTOPT    +1                         #  ZERO COMMAND
000892:
000893: 12,3656           40035        TRUNCMD            CS       OPTY                                  #  IF COMMAND GREATER THAN 45 DEG-COMMAND
000894: 12,3657           60403                           AD       DESOPTT                               #  45 DEG
000895: 12,3660           54002                           TS       Q
000896: 12,3661           03625                           TC       GETOPCMD                              #  LESS THAN 45 DEG-NORMAL OPERATION
000897:
000898: 12,3662           10000                           CCS      A                                     #  GREATER THAN 45 DEG-USE OPSMAX WITH
000899: 12,3663           37632                           CA       POSMAX                                #  CORRECT SIGN
000900: 12,3664           03666                           TC       +2
000901: 12,3665           47632                           CS       POSMAX
000902: 12,3666           54001                           TS       L
000903: 12,3667           03641                           TC       STORCMD
000904: 12,3670           63725        POSOPCMD           AD       MAXPLS1
000905: 12,3671           00006                           EXTEND
000906: 12,3672           63711                           BZMF     DELOPCMD                              #  COMMAND LESS THAN MAX PULSE
000907: 12,3673           43724                           CS       MAXPLS                                #  GREATER THAN MAX PULSE-USE MAX PULSE
000908:
000909: 12,3674           24065        NEXTOPT            INCR     ITEMP1                                #  SET SEND INDICATOR
000910: 12,3675           50350                           INDEX    OPTIND
000911: 12,3676           54053                           TS       OPTYCMD                               #  STORE PULSE IN SEND REG
000912:
000913: 12,3677           10350                           CCS      OPTIND
000914: 12,3700           03647                           TC       CMDSETUP   +1                         #  GET NEXT OPT
000915:
000916: 12,3701           10065                           CCS      ITEMP1                                #  ARE ANY PULSES TO GO
000917: 12,3702           13714                           TCF      SENDOCMD                              #  YES-SEND EM
000918: 12,3703           04511                           TC       RESUME                                #  NO
000919:
000920: 12,3704           63725        NEGOPCMD           AD       MAXPLS1
000921: 12,3705           00006                           EXTEND
000922: 12,3706           63711                           BZMF     DELOPCMD                              #  LESS THAN MAX PULSE
000923: 12,3707           33724                           CA       MAXPLS                                #  MAX PULSES
000924: 12,3710           13674                           TCF      NEXTOPT
000925: 12,3711           50350        DELOPCMD           INDEX    OPTIND
000926: 12,3712           56352                           XCH      COMMANDO                              #  SET UP SMALL COMMAND
000927: 12,3713           13674                           TCF      NEXTOPT
000928:
000929: 12,3714           34421        SENDOCMD           CAF      11,12                                 #  SEND OCDU DRIVE COMMANDS
000930: 12,3715           00006                           EXTEND
000931: 12,3716           05014                           WOR      14
000932: 12,3717           04511                           TC       RESUME
000933:
000934: 12,3720           37651        SETBIT             CAF      BIT2                                  #  ENABLE OCDU ERR CNTS
000935: 12,3721           00006                           EXTEND
000936: 12,3722           05012                           WOR      12
000937: 12,3723           04511                           TC       RESUME                                #  START COARS NEXT TIME AROUND
000938:
000939: 12,3724           77657        MAXPLS             DEC      -80        B-14
000940: 12,3725           77660        MAXPLS1            DEC      -79        B-14
000941: 12,3726     4421               11,12              EQUALS   PRIO6
000942:


000946:
000947: 12,3726           63736        GLOCKCK1           AD       -15DEGS                               #  SEE IF ABS(MGA) GREATER THAN 85 DEGREES.
000948: 12,3727           00006                           EXTEND
000949: 12,3730           63734                           BZMF     +4
000950:
000951: 12,3731           37647                           CAF      BIT4                                  #  IF SO, SYSTEM SHOULD BE IN COARSE ALIGN
000952: 12,3732           00006                           EXTEND                                         #  TO PREVENT GIMBAL RUNAWAY.
000953: 12,3733           05012                           WOR      12
000954:
000955: 12,3734           37645                           CAF      BIT6                                  #  TURN ON GIMBAL LOCK LAMP.
000956: 12,3735           13010                           TCF      SETGLOCK
000957:
000958: 12,3736           75252        -15DEGS            DEC      -.08333
000959:
000960: 12,3737           37647        OPONLY1            CAF      BIT4
000961: 12,3740           00006                           EXTEND                                         #  IF OPERATE ON ONLY AND WE ARE IN COARSE
000962: 12,3741           02012                           RAND     CHAN12                                #  ALIGN, DONT ZERO THE CDUS BECAUSE WE
000963: 12,3742           10000                           CCS      A                                     #  MIGHT BE IN GIMBAL LOCK. USE V41N20 TO
000964: 12,3743           12735                           TCF      C33TEST                               #  RECOVER.
000965:
000966: 12,3744           37643                           CAF      IMUSEFLG                              #  OTHERWISE, ZERO THE COUNTERS
000967: 12,3745           12721                           TCF      OPONLY     +1
000968:
000969: 12,3746                        ENDT4S             EQUALS

End of include-file T4RUPT_PROGRAM.agc.  Parent file is MAIN.agc


