
Source Code


000002:                                                                                                  ## Copyright:   Public domain.
000003:                                                                                                  ## Filename:    ERASABLE_ASSIGNMENTS.agc
000004:                                                                                                  ## Purpose:     Part of the source code for Retread 44 (revision 0). It was
000005:                                                                                                  ##              the very first program for the Block II AGC, created as an
000006:                                                                                                  ##              extensive rewrite of the Block I program Sunrise.
000007:                                                                                                  ##              This file is intended to be a faithful transcription, except
000008:                                                                                                  ##              that the code format has been changed to conform to the
000009:                                                                                                  ##              requirements of the yaYUL assembler rather than the
000010:                                                                                                  ##              original YUL assembler.
000011:                                                                                                  ## Reference:   pp. 5-13
000012:                                                                                                  ## Assembler:   yaYUL
000013:                                                                                                  ## Contact:     Ron Burkey <info@sandroid.org>.
000014:                                                                                                  ## Website:     www.ibiblio.org/apollo/index.html
000015:                                                                                                  ## Mod history: 2016-12-13 MAS  Created from Aurora 12 version.
000016:                                                                                                  ##              2016-12-16 MAS  Transcribed.
000017:                                                                                                  ##              2016-12-26 RSB  Proofed comment text using octopus/ProoferComments,
000018:                                                                                                  ##                              and fixed errors found.
000019:


000022:
000023: ???????                        A                  EQUALS   0
000024: ???????                        L                  EQUALS   1                                     #  L AND Q ARE BOTH CHANNELS AND REGISTERS.
000025: ???????                        Q                  EQUALS   2
000026: ???????                        EBANK              EQUALS   3
000027: ???????                        FBANK              EQUALS   4
000028: ???????                        Z                  EQUALS   5                                     #  ADJACENT TO FBANK AND BBANK FOR DXCH Z
000029: ???????                        BBANK              EQUALS   6                                     #  (DTCB) AND DXCH FBANK (DTCF).
000030:                                                                                                  #  REGISTER 7 IS A ZERO-SOURCE, USED BY ZL.
000031:
000032: ???????                        ARUPT              EQUALS   10                                    #  INTERRUPT STORAGE.
000033: ???????                        LRUPT              EQUALS   11
000034: ???????                        QRUPT              EQUALS   12
000035: ???????                        ZRUPT              EQUALS   15                                    #  (13 AND 14 ARE SPARES.)
000036: ???????                        BANKRUPT           EQUALS   16                                    #  USUALLY HOLDS FBANK OR BBANK.
000037: ???????                        BRUPT              EQUALS   17                                    #  RESUME ADDRESS AS WELL.
000038:
000039: ???????                        CYR                EQUALS   20
000040: ???????                        SR                 EQUALS   21
000041: ???????                        CYL                EQUALS   22
000042: ???????                        EDOP               EQUALS   23                                    #  EDITS INTERPRETIVE OPERATION CODE PAIRS.
000043:
000044:
000045:
000046: ???????                        TIME2              EQUALS   24
000047: ???????                        TIME1              EQUALS   25
000048: ???????                        TIME3              EQUALS   26
000049: ???????                        TIME4              EQUALS   27
000050: ???????                        TIME5              EQUALS   30
000051: ???????                        TIME6              EQUALS   31
000052: ???????                        CDUX               EQUALS   32
000053: ???????                        CDUY               EQUALS   33
000054: ???????                        CDUZ               EQUALS   34
000055: ???????                        OPTY               EQUALS   35
000056: ???????                        OPTX               EQUALS   36
000057: ???????                        PIPAX              EQUALS   37
000058: ???????                        PIPAY              EQUALS   40
000059: ???????                        PIPAZ              EQUALS   41
000060: ???????                        BMAGX              EQUALS   42
000061: ???????                        BMAGY              EQUALS   43
000062: ???????                        BMAGZ              EQUALS   44
000063: ???????                        INLINK             EQUALS   45
000064: ???????                        RNRAD              EQUALS   46
000065: ???????                        GYROCTR            EQUALS   47
000066: ???????                        CDUXCMD            EQUALS   50
000067: ???????                        CDUYCMD            EQUALS   51
000068: ???????                        CDUZCMD            EQUALS   52
000069: ???????                        OPTYCMD            EQUALS   53
000070: ???????                        OPTXCMD            EQUALS   54
000071: ???????                        EMSD               EQUALS   55
000072: ???????                        LEMONM             EQUALS   56


000074: ???????                        OUTLINK            EQUALS   57
000075: ???????                        ALTM               EQUALS   60
000076:
000077:    0067                                           SETLOC   67                                    #  DECODED REGISTER FOR NIGHT-WATCHMAN ALM.
000078:    0067                        NEWJOB             ERASE
000079:
000080:    0070                        LVSQUARE           EQUALS   34D                                   #  SQUARE OF VECTOR INPUT TO ABVAL AND UNIT
000081:    0070                        LV                 EQUALS   36D                                   #  LENGTH OF VECTOR INPUT TO UNIT.
000082:    0070                        X1                 EQUALS   38D                                   #  INTERPRETIVE SPECIAL REGISTERS RELATIVE
000083:    0070                        X2                 EQUALS   39D                                   #  TO THE WORK AREA.
000084:    0070                        S1                 EQUALS   40D
000085:    0070                        S2                 EQUALS   41D
000086:    0070                        QPRET              EQUALS   42D
000087:


000089:                                                                                                  #  GENERAL ERASABLE ASSIGNMENTS.
000090:
000091:                                                                                                  #           THE FOLLOWING ARE EXECUTIVE TEMPORARIES WHICH MAY BE USED BETWEEN CCS NEWJOB INQUIRIES.
000092:
000093:    0100                                           SETLOC   100
000094:
000095:    0100                        INTB15+            ERASE                                          #  REFLECTS 15TH BIT OF INDEXABLE ADDRESSES
000096:    0101     0100               DSEXIT             =        INTB15+                               #  RETURN FOR DSPIN
000097:    0101     0100               EXITEM             =        INTB15+                               #  RETURN FOR SCALE FACTOR ROUTINE SELECT
000098:    0101     0100               BLANKRET           =        INTB15+                               #  RETURN FOR 2BLANK
000099:
000100:    0101                        INTBIT15           ERASE                                          #  SIMILAR TO ABOVE.
000101:    0102     0101               WRDRET             =        INTBIT15                              #  RETURN FOR 5BLANK
000102:    0102     0101               WDRET              =        INTBIT15                              #  RETURN FOR DSPWD
000103:    0102     0101               DECRET             =        INTBIT15                              #  RETURN FOR PUTCOM(DEC LOAD)
000104:    0102     0101               21/22REG           =        INTBIT15                              #  TEMP FOR CHARIN
000105:
000106:    0102                        ADDRWD             ERASE                                          #  12 BIT INTERPRETIVE OPERAND SUB-ADDRESS.
000107:    0103                        POLISH             ERASE                                          #  HOLDS CADR MADE FROM POLISH ADDRESS.
000108:    0104     0103               UPDATRET           =        POLISH                                #  RETURN FOR UPDATNN, UPDATVB
000109:    0104     0103               CHAR               =        POLISH                                #  TEMP FOR CHARIN
000110:    0104     0103               ERCNT              =        POLISH                                #  COUNTER FOR ERROR LIGHT RESET
000111:    0104     0103               DECOUNT            =        POLISH                                #  COUNTER FOR SCALING AND DISPLAY (DEC)
000112:
000113:    0104                        FIXLOC             ERASE                                          #  WORK AREA ADDRESS.
000114:
000115:    0105                        OVFIND             ERASE                                          #  SET NON-ZERO ON OVERFLOW.
000116:
000117:    0106                        VBUF               ERASE    +5                                    #  TEMPORARY STORAGE USED FOR VECTORS.
000118:    0114     0106               SGNON              =        VBUF                                  #  TEMP FOR +,- ON
000119:    0114     0106               NOUNTEM            =        VBUF                                  #  COUNTER FOR MIXNOUN FETCH
000120:    0114     0106               DISTEM             =        VBUF                                  #  COUNTER FOR OCTAL DISPLAY VERBS
000121:    0114     0106               DECTEM             =        VBUF                                  #  COUNTER FOR FETCH (DEC DISPLAY VERBS)
000122:
000123:    0114     0107               SGNOFF             =        VBUF       +1                         #  TEMP FOR +,- ON
000124:    0114     0107               NVTEMP             =        VBUF       +1                         #  TEMP FOR NVSUB
000125:    0114     0107               SFTEMP1            =        VBUF       +1                         #  STORAGE FOR SF CONST HI PART(=SFTEMP2-1)
000126:
000127:    0114     0110               CODE               =        VBUF       +2                         #  FOR DSPIN
000128:    0114     0110               SFTEMP2            =        VBUF       +2                         #  STORAGE FOR SF CONST LO PART(=SFTEMP1+1)
000129:
000130:    0114     0111               MIXTEMP            =        VBUF       +3                         #  FOR MIXNOUN DATA
000131:    0114     0111               SIGNRET            =        VBUF       +3                         #  RETURN FOR +,- ON
000132:
000133:                                                                                                  #  ALSO MIXTEMP+1 = VBUF+4, MIXTEMP+2 = VBUF+5.
000134:
000135:    0114                        BUF                ERASE    +2                                    #  TEMPORARY SCALAR STORAGE.
000136:    0117                        BUF2               ERASE    +1
000137:    0121     0114               INDEXLOC           EQUALS   BUF                                   #  CONTAINS ADDRESS OF SPECIFIED INDEX.
000138:    0121     0114               SWWORD             EQUALS   BUF                                   #  ADDRESS OF SWITCH WORD.


000140:    0121     0115               SWBIT              EQUALS   BUF        +1                         #  SWITCH BIT WITHIN SWITCH WORD.
000141:    0121                        MPTEMP             ERASE                                          #  TEMPORARY USED IN MULTIPLY AND SHIFT.
000142:    0122                        DOTINC             ERASE                                          #  COMPONENT INCREMENT FOR DOT SUBROUTINE.
000143:    0123     0122               DVSIGN             EQUALS   DOTINC                                #  DETERMINES SIGN OF DDV RESULT.
000144:    0123     0122               ESCAPE             EQUALS   DOTINC                                #  USED IN ARCSIN/ARCCOS.
000145:    0123     0122               ENTRET             =        DOTINC                                #  EXIT FROM ENTER
000146:
000147:    0123                        DOTRET             ERASE                                          #  RETURN FROM DOT SUBROUTINE.
000148:    0124     0123               DVNORMCT           EQUALS   DOTRET                                #  DIVIDEND NORMALIZATION COUNT IN DDV.
000149:    0124     0123               ESCAPE2            EQUALS   DOTRET                                #  ALTERNATE ARCSIN/ARCCOS SWITCH.
000150:    0124     0123               WDCNT              =        DOTRET                                #  CHAR COUNTER FOR DSPWD
000151:    0124     0123               INREL              =        DOTRET                                #  INPUT BUFFER SELECTOR ( X,Y,Z, REG )
000152:
000153:    0124                        MATINC             ERASE                                          #  VECTOR INCREMENT IN MXV AND VXM.
000154:    0125     0124               MAXDVSW            EQUALS   MATINC                                #  +0 IF DP QUOTIENT IS NEAR ONE - ELSE -1.
000155:    0125     0124               POLYCNT            EQUALS   MATINC                                #  POLYNOMIAL LOOP COUNTER
000156:    0125     0124               DSPMMTEM           =        MATINC                                #  DSPCOUNT SAVE FOR DSPMM
000157:    0125     0124               MIXBR              =        MATINC                                #  INDICATOR FOR MIXED OR NORMAL NOUN
000158:
000159:    0125                        TEM1               ERASE                                          #  EXEC TEMP
000160:    0126     0125               POLYRET            =        TEM1
000161:    0126     0125               DSREL              =        TEM1                                  #  REL ADDRESS FOR DSPIN
000162:
000163:    0126                        TEM2               ERASE                                          #  EXEC TEMP
000164:    0127     0126               DSMAG              =        TEM2                                  #  MAGNITUDE STORE FOR DSPIN
000165:    0127     0126               IDADDTEM           =        TEM2                                  #  MIXNOUN INDIRECT ADDRESS STORAGE
000166:
000167:    0127                        TEM3               ERASE                                          #  EXEC TEMP
000168:    0130     0127               COUNT              =        TEM3                                  #  FOR DSPIN
000169:
000170:    0130                        TEM4               ERASE                                          #  EXEC TEMP
000171:    0131     0130               LSTPTR             =        TEM4                                  #  LIST POINTER FOR GRABUSY
000172:    0131     0130               RELRET             =        TEM4                                  #  RETURN FOR RELDSP
000173:    0131     0130               FREERET            =        TEM4                                  #  RETURN FOR FREEDSP
000174:
000175:    0131                        TEM5               ERASE                                          #  EXEC TEMP
000176:    0132     0131               NOUNADD            =        TEM5                                  #  TEMP STORAGE FOR NOUN ADDRESS
000177:
000178:    0132                        NNADTEM            ERASE                                          #  TEMP FOR NOUN ADDRESS TABLE ENTRY
000179:    0133                        NNTYPTEM           ERASE                                          #  TEMP FOR NOUN TYPE TABLE ENTRY
000180:    0134                        IDAD1TEM           ERASE                                          #  TEMP FOR INDIR ADRESS TABLE ENTRY(MIXNN)
000181:                                                                                                  #  MUST = IDAD2TEM-1, = IDAD3TEM-2.
000182:    0135                        IDAD2TEM           ERASE                                          #  TEMP FOR INDIR ADRESS TABLE ENTRY(MIXNN)
000183:                                                                                                  #  MUST = IDAD1TEM+1, = IDAD3TEM-1.
000184:    0136                        IDAD3TEM           ERASE                                          #  TEMP FOR INDIR ADRESS TABLE ENTRY(MIXNN)
000185:                                                                                                  #  MUST = IDAD1TEM+2, = IDAD2TEM+1.
000186:    0137                        RUTMXTEM           ERASE                                          #  TEMP FOR SF ROUT TABLE ENTRY(MIXNN ONLY)
000187:
000188:
000189:
000190:                                                                                                  #           STORAGE USED BY THE EXECUTIVE.
000191:


000193:    0140                        MPAC               ERASE    +6                                    #  MULTI-PURPOSE ACCUMULATOR.
000194:    0147                        MODE               ERASE                                          #  +1 FOR TP, +0 FOR DP, OR -1 FOR VECTOR.
000195:    0150                        LOC                ERASE                                          #  LOCATION ASSOCIATED WITH JOB.
000196:    0151                        BANKSET            ERASE                                          #  USUALLY CONTAINS BBANK SETTING.
000197:    0152                        PUSHLOC            ERASE                                          #  WORD OF PACKED INTERPRETIVE PARAMETERS.
000198:    0153                        PRIORITY           ERASE                                          #  PRIORITY OF PRESENT JOB AND WORK AREA.
000199:
000200:    0154                                           ERASE    +71D                                  #  SEVEN SETS OF 12 REGISTERS EACH.
000201:
000202:    0264                        VAC1USE            ERASE
000203:    0265                        VAC1               ERASE    +42D
000204:    0340                        VAC2USE            ERASE
000205:    0341                        VAC2               ERASE    +42D
000206:    0414                        VAC3USE            ERASE
000207:    0415                        VAC3               ERASE    +42D
000208:    0470                        VAC4USE            ERASE
000209:    0471                        VAC4               ERASE    +42D
000210:    0544                        VAC5USE            ERASE
000211:    0545                        VAC5               ERASE    +42D
000212:
000213:                                                                                                  #           INTERPRETIVE SWITCH RESERVATIONS.
000214:
000215:    0620                        STATE              ERASE    +3                                    #  60 SWITCHES PRESENTLY.
000216:
000217:                                                                                                  #           THE FOLLOWING SET COMPRISES THE INTERRUPT TEMPORARY STORAGE POOL.
000218:
000219:    0624                        WAITEXIT           ERASE
000220:    0625     0624               KEYTEMP1           =        WAITEXIT                              #  TEMP FOR KEYRUPT, UPRUPT
000221:    0625     0624               DSRUPTEM           =        WAITEXIT                              #  TEMP FOR DSPOUT
000222:
000223:    0625                        WAITBANK           ERASE
000224:    0626                        EXECTEM1           ERASE
000225:    0627                        EXECTEM2           ERASE
000226:    0630                        WAITADR            ERASE
000227:    0631                        WAITTEMP           ERASE
000228:
000229:    0632                        NEWPRIO            ERASE                                          #  EXECUTIVE RESERVATIONS (TEMP ONLY).
000230:    0633                        NEWLOC             ERASE    +1
000231:    0635                        LOCCTR             ERASE
000232:
000233:                                                                                                  #           WAITLIST REPEAT FLAG:
000234:
000235:    0636                        RUPTAGN            ERASE
000236:    0637     0636               KEYTEMP2           =        RUPTAGN                               #  TEMP FOR KEYRUPT, UPRUPT
000237:


000239:                                                                                                  #  THE FOLLOWING REGISTERS ARE RESERVED FOR PINBALL
000240:
000241:
000242:
000243:                                                                                                  #  RESERVED FOR PINBALL EXECUTIVE ACTION
000244:
000245:    0637                        DSPCOUNT           ERASE                                          #  DISPLAY POSITION INDICATOR
000246:    0640                        DECBRNCH           ERASE                                          #  +DEC, - DEC, OCT INDICATOR
000247:    0641                        VERBREG            ERASE                                          #  VERB CODE
000248:    0642                        NOUNREG            ERASE                                          #  NOUN CODE
000249:    0643                        XREG               ERASE                                          #  R1 INPUT BUFFER
000250:    0644                        YREG               ERASE                                          #  R2 INPUT BUFFER
000251:    0645                        ZREG               ERASE                                          #  R3 INPUT BUFFER
000252:    0646                        XREGLP             ERASE                                          #  LO PART OF XREG (FOR DEC CONV ONLY)
000253:    0647                        YREGLP             ERASE                                          #  LO PART OF YREG (FOR DEC CONV ONLY)
000254:    0650                        ZREGLP             ERASE                                          #  LO PART OF ZREG (FOR DEC CONV ONLY)
000255:    0651                        MODREG             ERASE                                          #  MODE CODE
000256:    0652                        DSPLOCK            ERASE                                          #  KEYBOARD/SUBROUTINE CALL INTERLOCK
000257:    0653                        REQRET             ERASE                                          #  RETURN REGISTER FOR LOAD
000258:    0654                        LOADSTAT           ERASE                                          #  STATUS INDICATOR FOR LOADTST
000259:    0655                        CLPASS             ERASE                                          #  PASS INDICATOR CLEAR
000260:    0656                        NOUT               ERASE                                          #  ACTIVITY COUNTER FOR DSPTAB
000261:    0657                        NOUNCADR           ERASE                                          #  MACHINE CADR FOR NOUN
000262:    0660                        MONSAVE            ERASE                                          #  N/V CODE FOR MONITOR. (= MONSAVE1-1)
000263:    0661                        MONSAVE1           ERASE                                          #  NOUNCADR FOR MONITOR(MATBS) =MONSAVE+1
000264:    0662                        DSPTAB             ERASE    +11D                                  #  0-10D, DISPLAY PANEL BUFF. 11D, C/S LTS.
000265:    0676                        CADRSTOR           ERASE                                          #  ENDIDLE STORAGE
000266:    0677                        GRABLOCK           ERASE                                          #  INTERNAL INTERLOCK FOR DISPLAY SYSTEM
000267:    0700                        NVQTEM             ERASE                                          #  NVSUB STORAGE FOR CALLING ADDRESS
000268:                                                                                                  #  MUST = NVBNKTEM-1
000269:    0701                        NVBNKTEM           ERASE                                          #  NVSUB STORAGE FOR CALLING BANK
000270:                                                                                                  #  MUST = NVQTEM+1
000271:    0702                        DSPLIST            ERASE    +2                                    #  WAITING LIST FOR DSP SYST INTERNAL USE
000272:    0705                        EXTVBACT           ERASE                                          #  EXTENDED VERB ACTIVITY INTERLOCK
000273:    0706                        DSPTEM1            ERASE    +2                                    #  BUFFER STORAGE AREA 1 (MOSTLY FOR TIME)
000274:    0711                        DSPTEM2            ERASE    +2                                    #  BUFFER STORAGE AREA 2 (MOSTLY FOR DEG)
000275:                                                                                                  #  END OF ERASABLES RESERVED FOR PINBALL EXECUTIVE ACTION
000276:
000277:
000278:
000279:                                                                                                  #  RESERVED FOR PINBALL INTERRUPT ACTION
000280:
000281:    0714                        DSPCNT             ERASE                                          #  COUNTER FOR DSPOUT
000282:    0715                        UPLOCK             ERASE                                          #  BIT1 = UPLINK INTERLOCK (ACTIVATED BY
000283:                                                                                                  #  RECEPTION OF A BAD MESSAGE IN UPLINK)
000284:                                                                                                  #  END OF ERASABLES RESERVED FOR PINBALL INTERRUPT ACTION
000285:


000287:                                                                                                  #  TEMPORARY PHONY ASSIGNMENTS TO KEEP PINBALL FROM HAVING BAD ASSEMBLIES
000288:
000289:    0716                        THETAD             ERASE    +2
000290:    0721                        FAILREG            ERASE
000291:    0722                        TDEC               ERASE    +1
000292:    0724                        TET                ERASE    +1
000293:    0726                        MEASQ              ERASE    +1
000294:    0730                        ROLL               ERASE    +2
000295:    0733                        LANDMARK           ERASE    +5
000296:    0741                        GBIASX             ERASE    +2
000297:    0744                        ADIAX              ERASE    +2
000298:    0747                        ADSRAX             ERASE    +2
000299:    0752                        DESOPTX            ERASE    +1
000300:    0754                        SAMPTIME           ERASE    +1
000301:    0756                        DELVX              ERASE    +5
000302:    0764                        PBIASX             ERASE
000303:    0765                        PIPASCFX           ERASE
000304:    0766                        PBIASY             ERASE
000305:    0767                        PIPASCFY           ERASE
000306:    0770                        PBIASZ             ERASE
000307:    0771                        PIPASCFZ           ERASE
000308:    1000                                           SETLOC   1000
000309:    1000                        DELR               ERASE    +5
000310:    1006                        DELVEL             ERASE    +5
000311:    1014                        MEASMODE           ERASE
000312:    1015                        DELTAQ             ERASE    +1
000313:    1017                        WASKSET            ERASE
000314:                                                                                                  #  END OF PHONY ASSIGNMENTS
000315:


000317:
000318:                                                                                                  #  ASSIGNMENTS FOR T4RUPT PROGRAM
000319:    1020                        DSRUPTSW           ERASE
000320:    1021                        OLDERR             ERASE
000321:    1022                        WASOPSET           ERASE
000322:                                                                                                  #  END OF T4RUPT ASSIGNMENTS
000323:
000324:
000325:
000326:                                                                                                  #  ASSIGNMENTS FOR DOWNRUPT
000327:
000328:    1023                        DISPBUF            ERASE
000329:    1024                        TMKEYBUF           ERASE
000330:                                                                                                  #  END OF DOWNRUPT ASSIGNMENTS
000331:
000332:
000333:
000334:                                                                                                  #  ASSIGNMENTS FOR SELF CHECK
000335:
000336:                                                                                                  #  ADDRESSES TO BE USED FOR INDEX INSTRUCTION WITHOUT EXTRACODES
000337:    1025                        NDX+0              ERASE
000338:    1026                        NDX+MAX            ERASE
000339:    1027                        NDXKEEP1           ERASE
000340:    1030                        NDXKEEP2           ERASE
000341:    1031                        NDXKEEP3           ERASE
000342:    1032                        NDXSELF1           ERASE
000343:    1033                        NDXSELF2           ERASE
000344:
000345:    1034                        KEEP1              ERASE
000346:    1035                        KEEP2              ERASE
000347:    1036                        KEEP3              ERASE
000348:    1037                        KEEP4              ERASE
000349:    1040                        KEEP5              ERASE
000350:    1041                        KEEP6              ERASE
000351:    1042                        KEEP7              ERASE
000352:
000353:    1043                        SELFRET            ERASE
000354:    1044                        SFAIL              ERASE
000355:    1045                        ERCOUNT            ERASE
000356:    1046                        SCOUNT             ERASE
000357:    1047                        SMODE              ERASE
000358:
000359:                                                                                                  #  END OF SELF CHECK ASSIGNMENTS
000360:
000361:
000362:
000363:                                                                                                  #  WAITLIST TASK LISTS:
000364:
000365: E3,1400                                           SETLOC   1400
000366:


000368: E3,1400                        LST1               ERASE    +4                                    #  DELTA TS.
000369: E3,1405                        LST2               ERASE    +11D                                  #  2CADR TASK ADDRESSES.

End of include-file ERASABLE_ASSIGNMENTS.agc.  Parent file is MAIN.agc


