
Source Code


000002:                                                                                                  ## Copyright:   Public domain.
000003:                                                                                                  ## Filename:    EXECUTIVE.agc
000004:                                                                                                  ## Purpose:     Part of the source code for Retread 44 (revision 0). It was
000005:                                                                                                  ##              the very first program for the Block II AGC, created as an
000006:                                                                                                  ##              extensive rewrite of the Block I program Sunrise.
000007:                                                                                                  ##              This file is intended to be a faithful transcription, except
000008:                                                                                                  ##              that the code format has been changed to conform to the
000009:                                                                                                  ##              requirements of the yaYUL assembler rather than the
000010:                                                                                                  ##              original YUL assembler.
000011:                                                                                                  ## Reference:   pp. 107-117
000012:                                                                                                  ## Assembler:   yaYUL
000013:                                                                                                  ## Contact:     Ron Burkey <info@sandroid.org>.
000014:                                                                                                  ## Website:     www.ibiblio.org/apollo/index.html
000015:                                                                                                  ## Mod history: 2016-12-13 MAS  Created from Aurora 12 version.
000016:                                                                                                  ##              2016-12-17 MAS  Transcribed.
000017:                                                                                                  ##              2016-12-18 MAS  Typos.
000018:                                                                                                  ##              2016-12-27 RSB  Proofed comment text using octopus/ProoferComments,
000019:                                                                                                  ##                              and fixed errors found.
000020:


000022:
000023:    4131                                           SETLOC   ENDIBNKF
000024:
000025:                                                                                                  #           TO ENTER A JOB REQUEST REQUIRING NO VAC AREA:
000026:
000027:    4131           54632        NOVAC              TS       NEWPRIO                               #  SAVE PRIORITY OF NEW JOB.
000028:    4132           00006                           EXTEND
000029:    4133           50002                           INDEX    Q                                     #  Q WILL BE UNDISTURBED THROUGHOUT.
000030:    4134           30001                           DCA      0                                     #  2CADR OF JOB ENTERED.
000031:    4135           52634                           DXCH     NEWLOC
000032:    4136           34214                           CAF      EXECBANK
000033:    4137           56004                           XCH      FBANK
000034:    4140           54626                           TS       EXECTEM1
000035:    4141           12241                           TCF      NOVAC2                                #  ENTER EXECUTIVE BANK.
000036:
000037:                                                                                                  #           TO ENTER A JOB REQUEST REQUIRING A VAC AREA - E.G., ALL (PARTIALLY) INTERPRETIVE JOBS.
000038:
000039:    4142           54632        FINDVAC            TS       NEWPRIO
000040:    4143           00006                           EXTEND
000041:    4144           50002                           INDEX    Q
000042:    4145           30001                           DCA      0
000043:    4146           52634                           DXCH     NEWLOC
000044:    4147           34214                           CAF      EXECBANK
000045:    4150           56004                           XCH      FBANK
000046:    4151           12220                           TCF      FINDVAC2                              #  OFF TO EXECUTIVE SWITCHED-BANK.
000047:
000048:                                                                                                  #           TO SUSPEND A BASIC JOB SO A HIGHER PRIORITY JOB MAY BE SERVICED:
000049:
000050:    4152           34214        CHANG1             CAF      EXECBANK
000051:    4153           54001                           TS       L
000052:    4154           30002                           CA       Q
000053:    4155           22006                 +3        LXCH     BBANK
000054:    4156           00004                           INHINT
000055:    4157           12316                           TCF      CHANJOB
000056:
000057:                                                                                                  #           TO SUSPEND AN INTERPRETIVE JOB:
000058:
000059:    4160           34214        CHANG2             CAF      EXECBANK
000060:    4161           54001                           TS       L
000061:    4162           40150                           CS       LOC                                   #  NEGATIVE LOC SHOWS JOB INTERPRETIVE.
000062:    4163           14155                           TCF      CHANG1     +3
000063:


000065:                                                                                                  #           TO VOLUNTARILY SUSPEND A JOB UNTIL THE COMPLETION OF SOME ANTICIPATED EVENT (I/O EVENT ETC.):
000066:
000067:    4164           54150        JOBSLEEP           TS       LOC
000068:    4165           34214                           CAF      EXECBANK
000069:    4166           54004                           TS       FBANK
000070:    4167           12375                           TCF      JOBSLP1
000071:
000072:                                                                                                  #           TO AWAKEN A JOB PUT TO SLEEP IN THE ABOVE FASHION:
000073:
000074:    4170           54633        JOBWAKE            TS       NEWLOC
000075:    4171           47645                           CS       TWO                                   #  EXIT IS VIA FINDVAC/NOVAC PROCEDURES.
000076:    4172           26002                           ADS      Q
000077:    4173           34214                           CAF      EXECBANK
000078:    4174           56004                           XCH      FBANK
000079:    4175           12406                           TCF      JOBWAKE2
000080:
000081:                                                                                                  #           TO CHANGE THE PRIORITY OF A JOB CURRENTLY UNDER EXECUTION:
000082:
000083:    4176           00004        PRIOCHNG           INHINT                                         #  NEW PRIORITY ARRIVES IN A. RETURNS TO
000084:    4177           54632                           TS       NEWPRIO                               #  CALLER AS SOON AS NEW JOB PRIORITY IS
000085:    4200           34214                           CAF      EXECBANK                              #  HIGHEST. PREPARE FOR POSSIBLE BASIC-
000086:    4201           56006                           XCH      BBANK                                 #  STYLE CHANGE-JOB.
000087:    4202           54151                           TS       BANKSET
000088:    4203           30002                           CA       Q
000089:    4204           12454                           TCF      PRIOCH2
000090:
000091:                                                                                                  #           TO REMOVE A JOB FROM EXECUTIVE CONSIDERATIONS:
000092:
000093:    4205           34214        ENDOFJOB           CAF      EXECBANK
000094:    4206           54004                           TS       FBANK
000095:    4207           12465                           TCF      ENDJOB1
000096:
000097:    4210           30626        ENDFIND            CA       EXECTEM1                              #  RETURN TO CALLER AFTER JOB ENTRY
000098:    4211           54004                           TS       FBANK                                 #  COMPLETE.
000099:    4212           50002                           INDEX    Q
000100:    4213           00002                           TC       2
000101:
000102:    4214           02220        EXECBANK           CADR     FINDVAC2
000103:


000105:                                                                                                  #           LOCATE AN AVAILABLE VAC AREA.
000106:
000107: 01,2220                                           SETLOC   ENDINTS1
000108:
000109: 01,2220           54626        FINDVAC2           TS       EXECTEM1                              #  (SAVE CALLER'S BANK FIRST.)
000110: 01,2221           10264                           CCS      VAC1USE
000111: 01,2222           12234                           TCF      VACFOUND
000112: 01,2223           10340                           CCS      VAC2USE
000113: 01,2224           12234                           TCF      VACFOUND
000114: 01,2225           10414                           CCS      VAC3USE
000115: 01,2226           12234                           TCF      VACFOUND
000116: 01,2227           10470                           CCS      VAC4USE
000117: 01,2230           12234                           TCF      VACFOUND
000118: 01,2231           10544                           CCS      VAC5USE
000119: 01,2232           12234                           TCF      VACFOUND
000120: 01,2233           02233                           TC       -0                                    #  ABORT IF NO VAC AREAS AVAILABLE.
000121:
000122: 01,2234           67645        VACFOUND           AD       TWO                                   #  RESERVE THIS VAC AREA BY STORING A ZERO
000123: 01,2235           22007                           ZL                                             #  IN ITS VAC USE REGISTER AND STORE THE
000124: 01,2236           50000                           INDEX    A                                     #  ADDRESS OF THE FIRST WORD OF IT IN THE
000125: 01,2237           21777                           LXCH     0          -1                         #  LOW NINE BITS OF THE PRIORITY WORD.
000126: 01,2240           26632                           ADS      NEWPRIO
000127:
000128: 01,2241           37653        NOVAC2             CAF      ZERO                                  #  NOVAC ENTERS HERE. FIND A CORE SET.
000129: 01,2242           54635                           TS       LOCCTR
000130: 01,2243           32250                           CAF      NO.CORES                              #  SEVEN SETS OF ELEVEN REGISTERS EACH.
000131: 01,2244           54627        NOVAC3             TS       EXECTEM2
000132: 01,2245           50635                           INDEX    LOCCTR
000133: 01,2246           10153                           CCS      PRIORITY                              #  EACH PRIORITY REGISTER CONTAINS -0 IF
000134: 01,2247           12310                           TCF      NEXTCORE                              #  THE CORRESPONDING CORE SET IS AVAILABLE.
000135: 01,2250           00006        NO.CORES           DEC      6          B-14
000136: 01,2251           12310                           TCF      NEXTCORE                              #  AN ACTIVE JOB HAS A POSITIVE PRIORITY
000137:                                                                                                  #  BUT A DORMANT JOB'S PRIORITY IS NEGATIVE
000138:


000140: 01,2252           30632        CORFOUND           CA       NEWPRIO                               #  SET THE PRIORITY OF THIS JOB IN THE CORE
000141: 01,2253           50635                           INDEX    LOCCTR                                #  SET'S PRIORITY REGISTER AND SET THE
000142: 01,2254           54153                           TS       PRIORITY                              #  JOB'S PUSH-DOWN POINTER AT THE BEGINNING
000143: 01,2255           72503                           MASK     LOW9                                  #  OF THE WORK AREA AND OVERFLOW INDICATOR
000144: 01,2256           50635                           INDEX    LOCCTR
000145: 01,2257           54152                           TS       PUSHLOC                               #  OFF TO PREPARE FOR INTERPRETIVE PROGRAMS
000146:
000147: 01,2260           10635                           CCS      LOCCTR                                #  IF CORE SET ZERO IS BEING LOADED, SET UP
000148: 01,2261           12275                           TCF      SETLOC                                #  OVFIND AND FIXLOC IMMEDIATELY .
000149: 01,2262           54105                           TS       OVFIND
000150: 01,2263           30152                           CA       PUSHLOC
000151: 01,2264           54104                           TS       FIXLOC
000152:
000153: 01,2265           10067        SPECTEST           CCS      NEWJOB                                #  SEE IF ANY ACTIVE JOBS WAITING (RARE).
000154: 01,2266           12275                           TCF      SETLOC                                #  MUST BE AWAKENED BUT UNCHANGED JOB.
000155: 01,2271                                           SETLOC   +2
000156: 01,2271           54067                           TS       NEWJOB                                #  +0 SHOWS ACTIVE JOB ALREADY SET.
000157: 01,2272           52634                           DXCH     NEWLOC
000158: 01,2273           52151                           DXCH     LOC
000159: 01,2274           14210                           TCF      ENDFIND
000160:
000161: 01,2275           52634        SETLOC             DXCH     NEWLOC                                #  SET UP THE LOCATION REGISTERS FOR THIS
000162: 01,2276           50635                           INDEX    LOCCTR
000163: 01,2277           52151                           DXCH     LOC
000164: 01,2300           50067                           INDEX    NEWJOB                                #  THIS INDEX INSTRUCTION INSURES THAT THE
000165: 01,2301           40153                           CS       PRIORITY                              #  HIGHEST ACTIVE PRIORITY WILL BE COMPARED
000166: 01,2302           60632                           AD       NEWPRIO                               #  WITH THE NEW PRIORITY TO SEE IF NEWJOB
000167: 01,2303           00006                           EXTEND                                         #  SHOULD BE SET TO SIGNAL A SWITCH.
000168: 01,2304           64210                           BZMF     ENDFIND
000169: 01,2305           30635                           CA       LOCCTR                                #  LOCCTR IS LEFT SET AT THIS CORE SET IF
000170: 01,2306           54067                           TS       NEWJOB                                #  THE CALLER WANTS TO LOAD ANY MPAC
000171: 01,2307           14210                           TCF      ENDFIND                               #  REGISTERS, ETC.
000172:
000173: 01,2310           32416        NEXTCORE           CAF      COREINC
000174: 01,2311           26635                           ADS      LOCCTR
000175: 01,2312           10627                           CCS      EXECTEM2
000176: 01,2313           12244                           TCF      NOVAC3
000177: 01,2314           02314                           TC       -0                                    #  ABORT IF NO MORE CORE SETS.
000178:


000180:                                                                                                  #           THE FOLLOWING ROUTINE SWAPS CORE SET 0 WITH THAT WHOSE RELATIVE ADDRESS IS IN NEWJOB.
000181:
000182: 01,2315           52151                 -1        DXCH     LOC
000183: 01,2316           50067        CHANJOB            INDEX    NEWJOB                                #  LOC ARRIVES IN A AND BBANK IN L.
000184: 01,2317           52151                           DXCH     LOC
000185: 01,2320           52151                           DXCH     LOC
000186:
000187: 01,2321           52141                           DXCH     MPAC                                  #  SWAP MULTI-PURPOSE ACCUMULATOR AREAS.
000188: 01,2322           50067                           INDEX    NEWJOB
000189: 01,2323           52141                           DXCH     MPAC
000190: 01,2324           52141                           DXCH     MPAC
000191: 01,2325           52143                           DXCH     MPAC       +2
000192: 01,2326           50067                           INDEX    NEWJOB
000193: 01,2327           52143                           DXCH     MPAC       +2
000194: 01,2330           52143                           DXCH     MPAC       +2
000195: 01,2331           52145                           DXCH     MPAC       +4
000196: 01,2332           50067                           INDEX    NEWJOB
000197: 01,2333           52145                           DXCH     MPAC       +4
000198: 01,2334           52145                           DXCH     MPAC       +4
000199: 01,2335           52147                           DXCH     MPAC       +6
000200: 01,2336           50067                           INDEX    NEWJOB
000201: 01,2337           52147                           DXCH     MPAC       +6
000202: 01,2340           52147                           DXCH     MPAC       +6
000203:
000204: 01,2341           37653                           CAF      ZERO
000205: 01,2342           56105                           XCH      OVFIND                                #  MAKE PUSHLOC NEGATIVE IF OVFIND NZ.
000206: 01,2343           00006                           EXTEND
000207: 01,2344           12347                           BZF      +3
000208: 01,2345           40152                           CS       PUSHLOC
000209: 01,2346           54152                           TS       PUSHLOC
000210:
000211: 01,2347           52153                           DXCH     PUSHLOC
000212: 01,2350           50067                           INDEX    NEWJOB
000213: 01,2351           52153                           DXCH     PUSHLOC
000214: 01,2352           52153                           DXCH     PUSHLOC                               #  SWAPS PUSHLOC AND PRIORITY.
000215: 01,2353           10152                           CCS      PUSHLOC                               #  SET OVERFLOW INDICATOR ACCORDING TO
000216: 01,2354           37653                           CAF      ZERO
000217: 01,2355           12362                           TCF      ENDPRCHG   -1
000218: 01,2356           40152                           CS       PUSHLOC
000219: 01,2357           54152                           TS       PUSHLOC
000220: 01,2360           37646                           CAF      ONE
000221: 01,2361           56105                           XCH      OVFIND
000222: 01,2362           54067                           TS       NEWJOB
000223:
000224: 01,2363           00003        ENDPRCHG           RELINT
000225: 01,2364           52151                           DXCH     LOC                                   #  BASIC JOBS HAVE POSITIVE ADDRESSES, SO
000226: 01,2365           00006                           EXTEND                                         #  DISPATCH WITH A DTCB.
000227: 01,2366           62370                           BZMF     +2                                    #  IF INTERPRETIVE, SET UP EBANK, ETC.
000228: 01,2367           52006                           DTCB
000229:


000231: 01,2370           40000                           COM                                            #  EPILOGUE TO JOB CHANGE FOR INTERPRETIVE
000232: 01,2371           54150                           TS       LOC                                   #  RESUME.
000233: 01,2372           36232                           CAF      FBANKMSK
000234: 01,2373           70001                           MASK     L
000235: 01,2374           16011                           TCF      INTRSM
000236:
000237:                                                                                                  #           COMPLETE JOBSLEEP PREPARATIONS.
000238:
000239: 01,2375           00004        JOBSLP1            INHINT
000240: 01,2376           40153                           CS       PRIORITY                              #  NNZ PRIORITY SHOWS JOB ASLEEP.
000241: 01,2377           54153                           TS       PRIORITY
000242: 01,2400           36027                           CAF      LOW7
000243: 01,2401           70006                           MASK     BBANK
000244: 01,2402           54151                           TS       BANKSET
000245: 01,2403           47653                           CS       ZERO
000246: 01,2404           54115        JOBSLP2            TS       BUF        +1                         #  HOLDS - HIGHEST PRIORITY.
000247: 01,2405           12475                           TCF      EJSCAN                                #  SCAN FOR HIGHEST PRIORITY ALA ENDOFJOB.
000248:


000250:                                                                                                  #           TO WAKE UP A JOB, EACH CORE SET IS FOUND TO LOCATE ALL JOBS WHICH ARE ASLEEP. IF THE FCADR IN THE
000251:                                                                                                  #  LOC REGISTER OF ANY SUCH JOB MATCHES THAT SUPPLIED BY THE CALLER, THAT JOB IS AWAKENED. IF NO JOB IS FOUND,
000252:                                                                                                  #  LOCCTR IS SET TO -1 AND NO FURTHER ACTION TAKES PLACE.
000253:
000254: 01,2406           54626        JOBWAKE2           TS       EXECTEM1
000255: 01,2407           37653                           CAF      ZERO                                  #  BEGIN CORE SET SCAN.
000256: 01,2410           54635                           TS       LOCCTR
000257: 01,2411           32250                           CAF      NO.CORES
000258: 01,2412           54627        JOBWAKE4           TS       EXECTEM2
000259: 01,2413           50635                           INDEX    LOCCTR
000260: 01,2414           10153                           CCS      PRIORITY
000261: 01,2415           12420                           TCF      JOBWAKE3                              #  ACTIVE JOB - CHECK NEXT CORE SET.
000262: 01,2416           00014        COREINC            DEC      12         B-14                       #  12 REGISTERS PER CORE SET.
000263: 01,2417           12427                           TCF      WAKETEST                              #  SLEEPING JOB - SEE IF CADR MATCHES.
000264:
000265: 01,2420           32416        JOBWAKE3           CAF      COREINC
000266: 01,2421           26635                           ADS      LOCCTR
000267: 01,2422           10627                           CCS      EXECTEM2
000268: 01,2423           12412                           TCF      JOBWAKE4
000269: 01,2424           47646                           CS       ONE                                   #  EXIT IF SLEEPING JOB NOT FOUND.
000270: 01,2425           54635                           TS       LOCCTR
000271: 01,2426           14210                           TCF      ENDFIND
000272:
000273: 01,2427           40633        WAKETEST           CS       NEWLOC
000274: 01,2430           50635                           INDEX    LOCCTR
000275: 01,2431           60150                           AD       LOC
000276: 01,2432           00006                           EXTEND
000277: 01,2433           12435                           BZF      +2                                    #  IF MATCH.
000278: 01,2434           12420                           TCF      JOBWAKE3                              #  EXAMINE NEXT CORE SET IF NO MATCH.
000279:
000280: 01,2435           50635                           INDEX    LOCCTR                                #  RE-COMPLEMENT PRIORITY TO SHOW JOB AWAKE
000281: 01,2436           40153                           CS       PRIORITY
000282: 01,2437           50635                           INDEX    LOCCTR
000283: 01,2440           54153                           TS       PRIORITY
000284:
000285: 01,2441           46232                           CS       FBANKMSK                              #  MAKE UP THE 2CADR OF THE WAKE ADDRESS
000286: 01,2442           70633                           MASK     NEWLOC                                #  USING THE CADR IN NEWLOC AND THE EBANK
000287: 01,2443           67634                           AD       2K                                    #  HALF OF BBANK SAVED IN BANKSET.
000288: 01,2444           56633                           XCH      NEWLOC
000289: 01,2445           76232                           MASK     FBANKMSK
000290: 01,2446           50635                           INDEX    LOCCTR
000291: 01,2447           60151                           AD       BANKSET
000292: 01,2450           54634                           TS       NEWLOC     +1
000293:
000294: 01,2451           10635                           CCS      LOCCTR                                #  SPECIAL TREATMENT IF THIS JOB WAS
000295: 01,2452           12275                           TCF      SETLOC                                #  ALREADY IN THE RUN (0) POSITION.
000296: 01,2453           12265                           TCF      SPECTEST
000297:


000299:                                                                                                  #           PRIORITY CHANGE. CHANGE THE CONTENTS OF PRIORITY AND SCAN FOR THE JOB OF HIGHEST PRIORITY.
000300:
000301: 01,2454           54150        PRIOCH2            TS       LOC
000302: 01,2455           37653                           CAF      ZERO                                  #  SET FLAG TO TELL ENDJOB SCANNER IF THIS
000303: 01,2456           54114                           TS       BUF                                   #  JOB IS STILL HIGHEST PRIORITY.
000304: 01,2457           32503                           CAF      LOW9
000305: 01,2460           70153                           MASK     PRIORITY
000306: 01,2461           60632                           AD       NEWPRIO
000307: 01,2462           54153                           TS       PRIORITY
000308: 01,2463           40000                           COM
000309: 01,2464           12404                           TCF      JOBSLP2                               #  AND TO EJSCAN.
000310:


000312:                                                                                                  #           RELEASE THIS CORE SET AND VAC AREA AND SCAN FOR THE JOB OF HIGHEST ACTIVE PRIORITY.
000313:
000314: 01,2465           00004        ENDJOB1            INHINT
000315: 01,2466           47653                           CS       ZERO
000316: 01,2467           54115                           TS       BUF        +1
000317: 01,2470           56153                           XCH      PRIORITY
000318: 01,2471           72503                           MASK     LOW9
000319: 01,2472           10000                           CCS      A
000320: 01,2473           50000                           INDEX    A
000321: 01,2474           54000                           TS       0
000322:
000323: 01,2475           10167        EJSCAN             CCS      PRIORITY   +12D
000324: 01,2476           02542                           TC       EJ1
000325: 01,2500                                           SETLOC   +1
000326: 01,2500           12501                           TCF      +1
000327:
000328: 01,2501           10203                           CCS      PRIORITY   +24D                       #  EXAMINE EACH PRIORITY REGISTER TO FIND
000329: 01,2502           02542                           TC       EJ1                                   #  THE JOB OF HIGHEST ACTIVE PRIORITY.
000330: 01,2503           00777        LOW9               OCT      00777
000331: 01,2504           12505                           TCF      +1
000332:
000333: 01,2505           10217                           CCS      PRIORITY   +36D
000334: 01,2506           02542                           TC       EJ1
000335: 01,2507           67624        -CCSPR             -CCS     PRIORITY
000336: 01,2510           12511                           TCF      +1
000337:
000338: 01,2511           10233                           CCS      PRIORITY   +48D
000339: 01,2512           02542                           TC       EJ1
000340: 01,2514                                           SETLOC   +1
000341: 01,2514           12515                           TCF      +1
000342:
000343: 01,2515           10247                           CCS      PRIORITY   +60D
000344: 01,2516           02542                           TC       EJ1
000345: 01,2520                                           SETLOC   +1
000346: 01,2520           12521                           TCF      +1
000347:
000348: 01,2521           10263                           CCS      PRIORITY   +72D
000349: 01,2522           02542                           TC       EJ1
000350: 01,2524                                           SETLOC   +1
000351: 01,2524           12525                           TCF      +1
000352:


000354:                                                                                                  #           EVALUATE THE RESULTS OF THE SCAN.
000355:
000356: 01,2525           10115                           CCS      BUF        +1                         #  SEE IF THERE ARE ANY ACTIVE JOBS WAITING
000357: 01,2530                                           SETLOC   +2
000358: 01,2530           12532                           TCF      +2
000359: 01,2531           14215                           TCF      DUMMYJOB
000360: 01,2532           10114                           CCS      BUF                                   #  BUF IS ZERO IF THIS IS A PRIOCHNG AND
000361: 01,2533           12535                           TCF      +2                                    #  CHANGED PRIORITY IS STILL HIGHEST.
000362: 01,2534           12363                           TCF      ENDPRCHG
000363:
000364: 01,2535           50000                           INDEX    A                                     #  OTHERWISE, SET NEWJOB TO THE RELATIVE
000365: 01,2536           27777                           CAF      0          -1                         #  ADDRESS OF THE NEW JOB'S CORE SET.
000366: 01,2537           62507                           AD       -CCSPR
000367: 01,2540           54067                           TS       NEWJOB
000368: 01,2541           12315                           TCF      CHANJOB    -1
000369:
000370: 01,2542           54116        EJ1                TS       BUF        +2
000371: 01,2543           60115                           AD       BUF        +1                         #  - OLD HIGH PRIORITY.
000372: 01,2544           10000                           CCS      A
000373: 01,2545           40116                           CS       BUF        +2
000374: 01,2546           12552                           TCF      EJ2                                   #  NEW HIGH PRIORITY.
000375: 01,2547           12550                           NOOP
000376: 01,2550           50002                           INDEX    Q
000377: 01,2551           00002                           TC       2                                     #  PROCEED WITH SEARCH.
000378:
000379: 01,2552           54115        EJ2                TS       BUF        +1
000380: 01,2553           00006                           EXTEND
000381: 01,2554           22114                           QXCH     BUF                                   #  FOR LOCATING CCS PRIORITY + X INSTR.
000382: 01,2555           50114                           INDEX    BUF
000383: 01,2556           00002                           TC       2
000384:
000385: 01,2557                        ENDEXECS           EQUALS
000386:


000388:                                                                                                  #           IDLING AND COMPUTER ACTIVITY (GREEN) LIGHT MAINTENANCE. THE IDLING ROUTINE IS NOT A JOB IN ITSELF,
000389:                                                                                                  #  BUT RATHER A SUBROUTINE OF THE EXECUTIVE.
000390:
000391:    4215                                           SETLOC   EXECBANK   +1
000392:
000393:    4215           47653        DUMMYJOB           CS       ZERO                                  #  SET NEWJOB TO -0 FOR IDLING.
000394:    4216           54067                           TS       NEWJOB
000395:    4217           00003                           RELINT
000396:    4220           47645                           CS       TWO                                   #  TURN OFF THE ACTIVITY LIGHT.
000397:    4221           00006                           EXTEND
000398:    4222           03011                           WAND     DSALMOUT
000399:    4223           14226                           TCF      CHECKNJ    +2
000400:
000401:    4224           00006        CHECKNJ            EXTEND                                         #  SPECIAL NEWJOB TEST FOR SELF-CHECK,
000402:    4225           23043                           QXCH     SELFRET                               #  WHICH RUNS UNDER EXECUTIVE CONTROL,
000403:    4226           10067                 +2        CCS      NEWJOB                                #  BUT DOES NOT HAVE A JOBS CORE REGISTERS.
000404:    4227           14241                           TCF      NUCHANGE                              #  NEW JOB REQUIRING A CHANGE JOB.
000405:    4230           37645                           CAF      TWO                                   #  NEW JOB ALREADY IN POSITION FOR
000406:    4231           14235                           TCF      NUDIRECT                              #  EXECUTION.
000407:
000408:    4232           34250                           CAF      SELFBANK                              #  RETURN TO SELF-CHECK.
000409:    4233           54004                           TS       FBANK
000410:    4234           01043                           TC       SELFRET
000411:
000412:    4235           00006        NUDIRECT           EXTEND                                         #  TURN THE GREEN LIGHT BACK ON.
000413:    4236           05011                           WOR      DSALMOUT
000414:    4237           52151                           DXCH     LOC                                   #  JOBS STARTED IN THIS FASHION MUST BE
000415:    4240           52006                           DTCB                                           #  BASIC.
000416:
000417:    4241           37645        NUCHANGE           CAF      TWO
000418:    4242           00006                           EXTEND
000419:    4243           05011                           WOR      DSALMOUT
000420:    4244           34214                           CAF      EXECBANK                              #  SWAP CORE SETS.
000421:    4245           54004                           TS       FBANK
000422:    4246           00004                           INHINT                                         #  CHANGE JOBS
000423:    4247           12315                           TCF      CHANJOB    -1
000424:
000425:    4250           21271        SELFBANK           CADR     ENDEDOP
000426:    4251                        ENDEXECF           EQUALS

End of include-file EXECUTIVE.agc.  Parent file is MAIN.agc


