
Source Code


000002:                                                                                                  ## Copyright:   Public domain.
000003:                                                                                                  ## Filename:    FRESH_START_AND_RESTART.agc
000004:                                                                                                  ## Purpose:     Part of the source code for Retread 44 (revision 0). It was
000005:                                                                                                  ##              the very first program for the Block II AGC, created as an
000006:                                                                                                  ##              extensive rewrite of the Block I program Sunrise.
000007:                                                                                                  ##              This file is intended to be a faithful transcription, except
000008:                                                                                                  ##              that the code format has been changed to conform to the
000009:                                                                                                  ##              requirements of the yaYUL assembler rather than the
000010:                                                                                                  ##              original YUL assembler.
000011:                                                                                                  ## Reference:   pp. 124-127
000012:                                                                                                  ## Assembler:   yaYUL
000013:                                                                                                  ## Contact:     Ron Burkey <info@sandroid.org>.
000014:                                                                                                  ## Website:     www.ibiblio.org/apollo/index.html
000015:                                                                                                  ## Mod history: 2016-12-13 MAS  Created from Aurora 12 version.
000016:                                                                                                  ##              2016-12-13 MAS  Transcribed.
000017:                                                                                                  ##              2016-12-27 RSB  Proofed comment text using octopus/ProoferComments,
000018:                                                                                                  ##                              and fixed errors found.
000019:


000023: 01,2677                                           SETLOC   ENDWAITS
000024:
000025: 01,2677           00004        SLAP1              INHINT                                         #  FRESH START. COMES HERE FROM PINBALL.
000026: 01,2700           37653                           CAF      ZERO                                  #   (ZERO FAILREG IN FRESH START ONLY).
000027: 01,2701           54721                           TS       FAILREG
000028: 01,2702           54715                           TS       UPLOCK                                #  FREE UPLINK INTERLOCK
000029: 01,2703           37630                           CAF      BIT15                                 #  TURNS OFF AUTO, HOLD, FREE, NO ATT,
000030: 01,2704           54675                           TS       DSPTAB     +11D                       #  SPARE, GIMBAL LOCK, SPARE, TRACKER,
000031:                                                                                                  #  PROG ALM (BITS 1-9 OF DSPTAB+11D),
000032:                                                                                                  #  IN FRESH START ONLY.
000033: 01,2705           47632                           CS       BIT13                                 #  TURN OFF :TEST ALARM: OUTBIT (CHAN13
000034: 01,2706           00006                           EXTEND                                         #  BIT10).  FRESH START ONLY.
000035: 01,2707           03013                           WAND     CHAN13
000036: 01,2710           47643                           CS       BIT4                                  #  TURN OFF TEMP (FRESH START ONLY)
000037: 01,2711           00006                           EXTEND
000038: 01,2712           03011                           WAND     DSALMOUT
000039: 01,2713           32722                           CAF      STARTEB
000040: 01,2714           54003                           TS       EBANK                                 #  SET FOR E3
000041: 01,2715           37653        SLAP2              CAF      ZERO
000042: 01,2716           55047                           TS       SMODE
000043: 01,2717           02723                           TC       STARTSUB                              #  SUBROUTINE DOES MOST OF THE WORK.
000044:
000045: 01,2720           14215                           TCF      DUMMYJOB
000046:
000047: 01,2721           02715        GOPROG             TC       SLAP2                                 #  COMES HERE FROM 4050  RESTART.
000048:
000049:
000050:
000051: 01,2722  E3,1400                                  EBANK=   LST1
000052: 01,2722           01400        STARTEB            ECADR    LST1
000053: 01,2723           56002        STARTSUB           XCH      Q
000054: 01,2724           54114                           TS       BUF                                   #  EXEC TEMPS ARE AVAILABLE TO US.
000055:
000056: 01,2725           37626                           CAF      POSMAX                                #  T3 AND T4 OVERFLOW AS SOON AS POSSIBLE.
000057: 01,2726           54026                           TS       TIME3                                 #    (POSMAX IS PSEUDO INTERRUPT SIGNAL IN
000058: 01,2727           54027                           TS       TIME4                                 #    CASE RUPT SIGNALLED BEFORE TS TIME3).
000059:
000060: 01,2730           37627                           CAF      NEG1/2                                #  INITIALIZE WAITLIST DELTA-TS.
000061: 01,2731           55404                           TS       LST1       +4
000062: 01,2732           55403                           TS       LST1       +3
000063: 01,2733           55402                           TS       LST1       +2
000064: 01,2734           55401                           TS       LST1       +1
000065: 01,2735           55400                           TS       LST1
000066:
000067: 01,2736           44267                           CS       ENDTASK
000068: 01,2737           55405                           TS       LST2
000069: 01,2740           55407                           TS       LST2       +2
000070: 01,2741           55411                           TS       LST2       +4
000071: 01,2742           55413                           TS       LST2       +6
000072: 01,2743           55415                           TS       LST2       +8D


000074: 01,2744           55417                           TS       LST2       +10D
000075: 01,2745           44270                           CS       ENDTASK    +1
000076: 01,2746           55406                           TS       LST2       +1
000077: 01,2747           55410                           TS       LST2       +3
000078: 01,2750           55412                           TS       LST2       +5
000079: 01,2751           55414                           TS       LST2       +7
000080: 01,2752           55416                           TS       LST2       +9D
000081: 01,2753           55420                           TS       LST2       +11D
000082:
000083: 01,2754           47653                           CS       ZERO                                  #  MAKE ALL EXECUTIVE REGISTER SETS
000084: 01,2755           54153                           TS       PRIORITY                              #  AVAILABLE.
000085: 01,2756           54167                           TS       PRIORITY   +12D
000086: 01,2757           54203                           TS       PRIORITY   +24D
000087: 01,2760           54217                           TS       PRIORITY   +36D
000088: 01,2761           54233                           TS       PRIORITY   +48D
000089: 01,2762           54247                           TS       PRIORITY   +60D
000090: 01,2763           54263                           TS       PRIORITY   +72D
000091:
000092: 01,2764           54067                           TS       NEWJOB                                #  SHOWS NO ACTIVE JOBS.
000093:
000094: 01,2765           33050                           CAF      VAC1ADRC                              #  MAKE ALL VAC AREAS AVAILABLE.
000095: 01,2766           54264                           TS       VAC1USE
000096: 01,2767           63051                           AD       LTHVACA
000097: 01,2770           54340                           TS       VAC2USE
000098: 01,2771           63051                           AD       LTHVACA
000099: 01,2772           54414                           TS       VAC3USE
000100: 01,2773           63051                           AD       LTHVACA
000101: 01,2774           54470                           TS       VAC4USE
000102: 01,2775           63051                           AD       LTHVACA
000103: 01,2776           54544                           TS       VAC5USE
000104:
000105: 01,2777           37646                           CAF      ONE                                   #  GIVES 110 MS TO GET READY FOR T4.
000106: 01,3000           55020                           TS       DSRUPTSW
000107: 01,3001           37650                           CAF      TEN                                   #  TURN OFF ALL DISPLAY SYSTEM RELAYS.
000108: 01,3002           54140        DSPOFF             TS       MPAC
000109: 01,3003           47633                           CS       BIT12
000110: 01,3004           50140                           INDEX    MPAC
000111: 01,3005           54662                           TS       DSPTAB
000112: 01,3006           10140                           CCS      MPAC
000113: 01,3007           03002                           TC       DSPOFF
000114:
000115: 01,3010           54045                           TS       INLINK
000116: 01,3011           54714                           TS       DSPCNT
000117: 01,3012           54651                           TS       MODREG
000118: 01,3013           54676                           TS       CADRSTOR
000119: 01,3014           54653                           TS       REQRET
000120: 01,3015           54655                           TS       CLPASS
000121: 01,3016           54652                           TS       DSPLOCK
000122: 01,3017           54660                           TS       MONSAVE                               #  KILL MONITOR
000123: 01,3020           54661                           TS       MONSAVE1


000125: 01,3021           54677                           TS       GRABLOCK
000126: 01,3022           54641                           TS       VERBREG
000127: 01,3023           54642                           TS       NOUNREG
000128: 01,3024           54702                           TS       DSPLIST
000129: 01,3025           54703                           TS       DSPLIST    +1
000130: 01,3026           54704                           TS       DSPLIST    +2
000131:


000133: 01,3027           54620                           TS       STATE                                 #  TURN OFF INTERPRETER SWITCHES.
000134: 01,3030           54621                           TS       STATE      +1
000135: 01,3031           54622                           TS       STATE      +2
000136: 01,3032           54623                           TS       STATE      +3
000137: 01,3033           54705                           TS       EXTVBACT                              #  MAKE EXTENDED VERBS AVAILABLE
000138: 01,3034           37647                           CAF      NOUTCON
000139: 01,3035           54656                           TS       NOUT
000140:
000141: 01,3036           43046                           CS       CHAN11C                               #  TURN OFF UPLINK ACTIVITY, KEY
000142: 01,3037           00006                           EXTEND                                         #  RLSE, V/N FLASH, OPERATOR ERROR
000143: 01,3040           03011                           WAND     DSALMOUT                              #  IN BOTH FRESH START AND RESTART.
000144: 01,3041           33047                           CAF      LESCHK                                #  SELF CHECK GO-TO REGISTER.
000145: 01,3042           55043                           TS       SELFRET
000146: 01,3043           44506                           CS       VD1
000147: 01,3044           54637                           TS       DSPCOUNT
000148: 01,3045           00114                           TC       BUF
000149:
000150: 01,3046           00164        CHAN11C            OCT      00164                                 #  CHAN 11 BITS 3,5,6,7.
000151:                                                                                                  #  UPLINK ACTIVITY, KEY RLSE,
000152:                                                                                                  #  V/N FLASH, OPERATOR ERROR.
000153: 01,3047           05010        LESCHK             ADRES    SMODECHK
000154: 01,3050           00264        VAC1ADRC           ADRES    VAC1USE
000155: 01,3051           00054        LTHVACA            DEC      44         B-14

End of include-file FRESH_START_AND_RESTART.agc.  Parent file is MAIN.agc


