
Source Code


000002:                                                                                                  ## Copyright:   Public domain.
000003:                                                                                                  ## Filename:    INTERRUPT_LEAD_INS.agc
000004:                                                                                                  ## Purpose:     Part of the source code for Retread 44 (revision 0). It was
000005:                                                                                                  ##              the very first program for the Block II AGC, created as an
000006:                                                                                                  ##              extensive rewrite of the Block I program Sunrise.
000007:                                                                                                  ##              This file is intended to be a faithful transcription, except
000008:                                                                                                  ##              that the code format has been changed to conform to the
000009:                                                                                                  ##              requirements of the yaYUL assembler rather than the
000010:                                                                                                  ##              original YUL assembler.
000011:                                                                                                  ## Reference:   pp. 15-16
000012:                                                                                                  ## Assembler:   yaYUL
000013:                                                                                                  ## Contact:     Ron Burkey <info@sandroid.org>.
000014:                                                                                                  ## Website:     www.ibiblio.org/apollo/index.html
000015:                                                                                                  ## Mod history: 2016-12-13 MAS  Created from Aurora 12 version.
000016:                                                                                                  ##              2016-12-16 MAS  Transcribed.
000017:                                                                                                  ##              2016-12-26 RSB  Proofed comment text using octopus/ProoferComments,
000018:                                                                                                  ##                              but no errors found.
000019:


000022:
000023:    4000                                           SETLOC   4000
000024:
000025:    4000           00004                           INHINT                                         #  GO
000026:    4001           34054                           CAF      GOBB
000027:    4002           56006                           XCH      BBANK
000028:    4003           12721                           TCF      GOPROG
000029:
000030:    4004           52011                           DXCH     ARUPT                                 #  T6RUPT
000031:    4005           34055                           CAF      T6RPTBB
000032:    4006           56006                           XCH      BBANK
000033:    4007           14330                           TCF      RESUME     +3                         #  ***FIX LATER***
000034:
000035:    4010           52011                           DXCH     ARUPT                                 #  T5RUPT
000036:    4011           34056                           CAF      T5RPTBB
000037:    4012           56006                           XCH      BBANK
000038:    4013           14330                           TCF      RESUME     +3                         #  ***FIX LATER***
000039:
000040:    4014           52011                           DXCH     ARUPT                                 #  T3RUPT
000041:    4015           34057                           CAF      T3RPTBB
000042:    4016           56006                           XCH      BBANK
000043:    4017           14272                           TCF      T3RUPT
000044:
000045:    4020           52011                           DXCH     ARUPT                                 #  T4RUPT
000046:    4021           34060                           CAF      T4RPTBB
000047:    4022           56006                           XCH      BBANK
000048:    4023           13052                           TCF      T4RUPT
000049:
000050:    4024           52011                           DXCH     ARUPT                                 #  KEYRUPT1
000051:    4025           34061                           CAF      KEYRPTBB
000052:    4026           56006                           XCH      BBANK
000053:    4027           13153                           TCF      KEYRUPT1
000054:
000055:    4030           52011                           DXCH     ARUPT                                 #  KEYRUPT2
000056:    4031           34061                           CAF      KEYRPTBB
000057:    4032           56006                           XCH      BBANK
000058:    4033           13175                           TCF      KEYRUPT2
000059:
000060:    4034           52011                           DXCH     ARUPT                                 #  UPRUPT
000061:    4035           34061                           CAF      UPRPTBB
000062:    4036           56006                           XCH      BBANK
000063:    4037           13205                           TCF      UPRUPT
000064:
000065:    4040           52011                           DXCH     ARUPT                                 #  DOWNRUPT
000066:    4041           34062                           CAF      DWNRPTBB
000067:    4042           56006                           XCH      BBANK
000068:    4043           14330                           TCF      RESUME     +3                         #  ***FIX LATER***
000069:
000070:    4044           50017                           RESUME                                         #  RADAR RUPT    ****FIX LATER******
000071:
000072:    4050                                           SETLOC   4050


000074:    4050           50017                           RESUME                                         #  HAND CONTROL RUPT   ***FIX LATER****
000075:
000076:
000077:
000078:    4054                                           SETLOC   4054
000079:
000080:
000081:    4054  E3,1400                                  EBANK=   LST1                                  #  RESTART USES E0, E3
000082:    4054           02003        GOBB               BBCON    GOPROG
000083:
000084:    4055     0025                                  EBANK=   TIME1
000085:    4055           04000        T6RPTBB            BBCON    RESUME                                #  ***FIX LATER***
000086:
000087:    4056     0025                                  EBANK=   TIME1
000088:    4056           04000        T5RPTBB            BBCON    RESUME                                #  ***FIX LATER***
000089:
000090:    4057  E3,1400                                  EBANK=   LST1
000091:    4057           04003        T3RPTBB            BBCON    T3RUPT
000092:
000093:    4060     1020                                  EBANK=   DSRUPTSW
000094:    4060           02002        T4RPTBB            BBCON    T4RUPT
000095:
000096:    4061     0624                                  EBANK=   KEYTEMP1
000097:    4061           02001        KEYRPTBB           BBCON    KEYRUPT1
000098:
000099:    4062     4061               UPRPTBB            =        KEYRPTBB
000100:
000101:    4062     0025                                  EBANK=   TIME1
000102:    4062           04000        DWNRPTBB           BBCON    RESUME                                #  ***FIX LATER ***
000103:
000104:    4063                        ENDINTFF           EQUALS

End of include-file INTERRUPT_LEAD_INS.agc.  Parent file is MAIN.agc


