
Source Code


000002:                                                                                                  ## Copyright:   Public domain.
000003:                                                                                                  ## Filename:    INTER-BANK_COMMUNICATION.agc
000004:                                                                                                  ## Purpose:     Part of the source code for Retread 44 (revision 0). It was
000005:                                                                                                  ##              the very first program for the Block II AGC, created as an
000006:                                                                                                  ##              extensive rewrite of the Block I program Sunrise.
000007:                                                                                                  ##              This file is intended to be a faithful transcription, except
000008:                                                                                                  ##              that the code format has been changed to conform to the
000009:                                                                                                  ##              requirements of the yaYUL assembler rather than the
000010:                                                                                                  ##              original YUL assembler.
000011:                                                                                                  ## Reference:   pp. 105-106
000012:                                                                                                  ## Assembler:   yaYUL
000013:                                                                                                  ## Contact:     Ron Burkey <info@sandroid.org>.
000014:                                                                                                  ## Website:     www.ibiblio.org/apollo/index.html
000015:                                                                                                  ## Mod history: 2016-12-13 MAS  Created from Aurora 12 version.
000016:                                                                                                  ##              2016-12-17 MAS  Transcribed.
000017:                                                                                                  ##              2016-12-27 RSB  Proofed comment text using octopus/ProoferComments,
000018:                                                                                                  ##                              but no errors found.
000019:


000022:
000023:                                                                                                  #           THE FOLLOWING ROUTINE CAN BE USED TO CALL A SUBROUTINE IN ANOTHER BANK. IN THE BANKCALL VERSION, THE
000024:                                                                                                  #  CADR OF THE SUBROUTINE IMMEDIATELY FOLLOWS THE  TC BANKCALL  INSTRUCTION, WITH C(A) AND C(L) PRESERVED.
000025:
000026:    4063                                           SETLOC   ENDINTFF
000027:
000028:    4063           52120        BANKCALL           DXCH     BUF2                                  #  SAVE INCOMING A,L.
000029:    4064           50002                           INDEX    Q                                     #  PICK UP CADR.
000030:    4065           30000                           CA       0
000031:    4066           24002                           INCR     Q                                     #  SO WE RETURN TO THE LOC. AFTER THE CADR.
000032:
000033:                                                                                                  #           SWCALL IS IDENTICAL TO BANKCALL, EXCEPT THAT THE CADR ARRIVES IN A.
000034:
000035:    4067           54001        SWCALL             TS       L
000036:    4070           22004                           LXCH     FBANK                                 #  SWITCH BANKS, SAVING RETURN.
000037:    4071           76425                           MASK     LOW10                                 #  GET SUB-ADDRESS OF CADR.
000038:    4072           56002                           XCH      Q                                     #  A,L NOW CONTAINS DP RETURN.
000039:    4073           52120                           DXCH     BUF2                                  #  RESTORING INPUTS IF THIS IS A BANKCALL.
000040:    4074           50002                           INDEX    Q
000041:    4075           02000                           TC       10000                                 #  SETTING Q TO SWRETURN.
000042:
000043:    4076           56120        SWRETURN           XCH      BUF2       +1                         #  COMES HERE TO RETURN TO CALLER. C(A,L)
000044:    4077           56004                           XCH      FBANK                                 #  ARE PRESERVED FOR RETURN.
000045:    4100           56120                           XCH      BUF2       +1
000046:    4101           00117                           TC       BUF2
000047:
000048:
000049:
000050:                                                                                                  #           THE FOLLOWING ROUTINE CAN BE USED AS A UNILATERAL JUMP WITH C(A,L) PRESERVED AND THE CADR IMMEDIATELY
000051:                                                                                                  #  FOLLOWING THE TC POSTJUMP INSTRUCTION.
000052:
000053:    4102           56002        POSTJUMP           XCH      Q                                     #  SAVE INCOMING C(A).
000054:    4103           50000                           INDEX    A                                     #  GET CADR.
000055:    4104           30000                           CA       0
000056:
000057:                                                                                                  #           BANKJUMP IS THE SAME AS POSTJUMP, EXCEPT THAT THE CADR ARRIVES IN A.
000058:
000059:    4105           54004        BANKJUMP           TS       FBANK
000060:    4106           76425                           MASK     LOW10
000061:    4107           56002                           XCH      Q                                     #  RESTORING INPUT C(A) IF THIS WAS A
000062:    4110           50002                           INDEX    Q                                     #  POSTJUMP.
000063:    4111           12000                           TCF      10000
000064:


000066:                                                                                                  #           THE FOLLOWING ROUTINE GETS THE RETURN CADR SAVED BY SWCALL OR BANKCALL AND LEAVES IT IN A.
000067:
000068:    4112           36425        MAKECADR           CAF      LOW10
000069:    4113           70117                           MASK     BUF2
000070:    4114           60120                           AD       BUF2       +1
000071:    4115           00002                           TC       Q
000072:
000073:                                                                                                  #           THE FOLLOWING ROUTINE OBTAINS THE TWO WORDS BEGINNING AT THE ADDRESS ARRIVING IN A, AND LEAVES THEM IN
000074:                                                                                                  #  A,L.
000075:
000076:    4116           54001        DATACALL           TS       L
000077:    4117           22004                           LXCH     FBANK
000078:    4120           22121                           LXCH     MPTEMP                                #  SAVE FORMER BANK.
000079:    4121           76425                           MASK     LOW10
000080:    4122           00006                           EXTEND
000081:    4123           50000                           INDEX    A
000082:    4124           32001                           DCA      10000
000083:
000084:    4125           56121                           XCH      MPTEMP
000085:    4126           54004                           TS       FBANK                                 #  RESTORE FBANK.
000086:    4127           30121                           CA       MPTEMP
000087:    4130           00002                           TC       Q
000088:
000089:    4131                        ENDIBNKF           EQUALS

End of include-file INTER-BANK_COMMUNICATION.agc.  Parent file is MAIN.agc


