
Source Code


000002:                                                                                                  ## Copyright:   Public domain.
000003:                                                                                                  ## Filename:    KEYRUPT,_UPRUPT.agc
000004:                                                                                                  ## Purpose:     Part of the source code for Retread 44 (revision 0). It was
000005:                                                                                                  ##              the very first program for the Block II AGC, created as an
000006:                                                                                                  ##              extensive rewrite of the Block I program Sunrise.
000007:                                                                                                  ##              This file is intended to be a faithful transcription, except
000008:                                                                                                  ##              that the code format has been changed to conform to the
000009:                                                                                                  ##              requirements of the yaYUL assembler rather than the
000010:                                                                                                  ##              original YUL assembler.
000011:                                                                                                  ## Reference:   pp. 131-134
000012:                                                                                                  ## Assembler:   yaYUL
000013:                                                                                                  ## Contact:     Ron Burkey <info@sandroid.org>.
000014:                                                                                                  ## Website:     www.ibiblio.org/apollo/index.html
000015:                                                                                                  ## Mod history: 2016-12-13 MAS  Created from Aurora 12 version.
000016:                                                                                                  ## Mod history: 2016-12-18 MAS  Transcribed.
000017:                                                                                                  ##              2016-12-27 RSB  Proofed comment text using octopus/ProoferComments,
000018:                                                                                                  ##                              but no errors found.
000019:


000022:
000023: 01,3153           54016        KEYRUPT1           TS       BANKRUPT
000024: 01,3154           56002                           XCH      Q
000025: 01,3155           54012                           TS       QRUPT
000026: 01,3156           04526                           TC       LODSAMPT                              #  TIME IS SNATCHED IN RUPT FOR NOUN 65.
000027: 01,3157           34473                           CAF      LOW5
000028: 01,3160           00006                           EXTEND
000029: 01,3161           02015                           RAND     MNKEYIN
000030: 01,3162           67634        KEYCOM             AD       BIT11
000031: 01,3163           55024                           TS       TMKEYBUF
000032: 01,3164           34502                           CAF      CHRPRIO
000033: 01,3165           04131                           TC       NOVAC
000034: 01,3166     0637                                  EBANK=   DSPCOUNT
000035: 01,3166           02002 10001                     2CADR    CHARIN
000036:
000037: 01,3170           34473                           CA       LOW5
000038: 01,3171           71024                           MASK     TMKEYBUF
000039: 01,3172           50635                           INDEX    LOCCTR
000040: 01,3173           54140                           TS       MPAC                                  #  LEAVE 5 BIT KEY CDE IN MPAC FOR CHARIN
000041: 01,3174           04325                           TC       RESUME
000042:
000043:
000044:
000045: 01,3175           54016        KEYRUPT2           TS       BANKRUPT
000046: 01,3176           56002                           XCH      Q
000047: 01,3177           54012                           TS       QRUPT
000048: 01,3200           04526                           TC       LODSAMPT                              #  TIME IS SNATCHED IN RUPT FOR NOUN 65.
000049: 01,3201           34473                           CAF      LOW5
000050: 01,3202           00006                           EXTEND
000051: 01,3203           02016                           RAND     NAVKEYIN
000052: 01,3204           03162                           TC       KEYCOM
000053:


000055:                                                                                                  #  UPRUPT PROGRAM
000056:
000057: 01,3205           54016        UPRUPT             TS       BANKRUPT
000058: 01,3206           56002                           XCH      Q
000059: 01,3207           54012                           TS       QRUPT
000060: 01,3210           04526                           TC       LODSAMPT                              #  TIME IS SNATCHED IN RUPT FOR NOUN 65.
000061: 01,3211           37653                           CAF      ZERO
000062: 01,3212           56045                           XCH      INLINK
000063: 01,3213           54624                           TS       KEYTEMP1
000064: 01,3214           37644                           CAF      BIT3                                  #  TURN ON UPACT LIGHT
000065: 01,3215           00006                           EXTEND                                         #  (BIT 3 OF CHANNEL 11)
000066: 01,3216           05011                           WOR      DSALMOUT
000067: 01,3217           34473        UPRUPT1            CAF      LOW5                                  #  TEST FOR TRIPLE CHAR REDUNDANCY
000068: 01,3220           70624                           MASK     KEYTEMP1                              #  LOW5 OF WORD
000069: 01,3221           56624                           XCH      KEYTEMP1                              #  LOW5 INTO KEYTEMP1
000070: 01,3222           56021                           XCH      SR                                    #  WHOLE WORD INTO SR
000071: 01,3223           54636                           TS       KEYTEMP2                              #  ORIGINAL SR INTO KEYTEMP2
000072: 01,3224           03274                           TC       SRGHT5
000073: 01,3225           74473                           MASK     LOW5                                  #  MID 5
000074: 01,3226           63311                           AD       HI10
000075: 01,3227           03303                           TC       UPTEST
000076: 01,3230           03274                           TC       SRGHT5
000077: 01,3231           74473                           MASK     LOW5                                  #  HIGH 5
000078: 01,3232           40000                           COM
000079: 01,3233           03303                           TC       UPTEST
000080: 01,3234           03270        UPOK               TC       RESTORSR                              #  CODE IS GOOD
000081: 01,3235           43241                           CS       ELRCODE                               #  IF CODE = ERROR LIGHT RESET, PUT +0
000082: 01,3236           60624                           AD       KEYTEMP1                              #  INTO BIT1 OF UPLOCK.
000083: 01,3237           10000                           CCS      A                                     #  IF CODE NOT= ELR, PASS CODE ONLY IF
000084: 01,3240           03247                           TC       TSTUPLOK                              #  BIT1 OF UPLOCK = 0.
000085: 01,3241           00022        ELRCODE            OCT      22
000086: 01,3242           03247                           TC       TSTUPLOK
000087: 01,3243           47646                           CS       BIT1                                  #  PUT 0 INTO BIT1 OF UPLOCK
000088: 01,3244           70715                           MASK     UPLOCK
000089: 01,3245           54715                           TS       UPLOCK
000090: 01,3246           03253                           TC       ACCEPTUP
000091: 01,3247           37646        TSTUPLOK           CAF      BIT1
000092: 01,3250           70715                           MASK     UPLOCK
000093: 01,3251           10000                           CCS      A
000094: 01,3252           04325                           TC       RESUME                                #  BIT1 OF UPLOCK = 1.
000095: 01,3253           56624        ACCEPTUP           XCH      KEYTEMP1                              #  BIT1 OF UPLOCK = 0.
000096: 01,3254           67641                           AD       BIT6
000097: 01,3255           03162                           TC       KEYCOM
000098:
000099: 01,3256           03270        TMFAIL2            TC       RESTORSR                              #  CODE IS BAD
000100: 01,3257           47646                           CS       BIT1                                  #  LOCK OUT FURTHER UPLINK ACTIVITY (BY
000101: 01,3260           70715                           MASK     UPLOCK                                #  PUTTING 1 INTO BIT1 OF UPLOCK) UNTIL ELR
000102: 01,3261           67646                           AD       BIT1                                  #  IS SENT UP UPLINK.
000103: 01,3262           54715                           TS       UPLOCK
000104: 01,3263           37636                           CAF      BIT9                                  #  SEND DOWN INDICATION THAT UPLINK HAS


000106: 01,3264           67634                           AD       BIT11                                 #  RECEIVED BAD CODE.
000107: 01,3265           55024                           TS       TMKEYBUF
000108: 01,3266           04325        TMFAIL1            TC       TMALM
000109: 01,3267           04325                           TC       RESUME
000110:
000111: 01,3270           56636        RESTORSR           XCH      KEYTEMP2
000112: 01,3271           60000                           DOUBLE
000113: 01,3272           54021                           TS       SR
000114: 01,3273           00002                           TC       Q
000115:
000116: 01,3274     4325               TMALM              =        RESUME                                #  FOR NOW
000117:
000118: 01,3274           40021        SRGHT5             CS       SR
000119: 01,3275           40021                           CS       SR
000120: 01,3276           40021                           CS       SR
000121: 01,3277           40021                           CS       SR
000122: 01,3300           40021                           CS       SR
000123: 01,3301           40000                           CS       A
000124: 01,3302           00002                           TC       Q                                     #  DELIVERS WORD UNCOMPLEMENTED
000125:
000126: 01,3303           60624        UPTEST             AD       KEYTEMP1
000127: 01,3304           10000                           CCS      A
000128: 01,3305           03256                           TC       TMFAIL2
000129: 01,3307                                           LOC      +1
000130: 01,3307           03256                           TC       TMFAIL2
000131: 01,3310           00002                           TC       Q
000132:
000133: 01,3311           77740        HI10               OCT      77740
000134: 01,3312     4214               UPBANK             EQUALS   EXECBANK                              #  IN SAME BANK AS EXEC.
000135:
000136: 01,3312           03777        B12-1              OCT      3777
000137:
000138:                                                                                                  #  UPACT IS TURNED OFF BY VBRELDSP, ALSO BY ERROR LIGHT RESET.
000139:


000141:                                                                                                  #  THE RECEPTION OF A BAD CODE BY UPLINK LOCKS OUT FURTHER UPLINK ACTIVITY
000142:                                                                                                  #  BY PLACING A 1 INTO BIT1 OF UPLOCK. BIT9 (ALONG WITH BIT11) OF TMKEYBUF
000143:                                                                                                  #  IS SET TO 1 TO SEND AN INDICATION OF THIS SITUATION DOWN THE DOWNLINK.
000144:                                                                                                  #  THE UPLINK INTERLOCK IS ALLOWED WHEN AN ERROR LIGHT RESET CODE IS SENT
000145:                                                                                                  #  UP THE UPLINK, OR WHEN A FRESH START IS PERFORMED.

End of include-file KEYRUPT,_UPRUPT.agc.  Parent file is MAIN.agc


