
Source Code


000002:                                                                                                  ## Copyright:   Public domain.
000003:                                                                                                  ## Filename:    PINBALL_GAME__BUTTONS_AND_LIGHTS.agc
000004:                                                                                                  ## Purpose:     Part of the source code for Retread 44 (revision 0). It was
000005:                                                                                                  ##              the very first program for the Block II AGC, created as an
000006:                                                                                                  ##              extensive rewrite of the Block I program Sunrise.
000007:                                                                                                  ##              This file is intended to be a faithful transcription, except
000008:                                                                                                  ##              that the code format has been changed to conform to the
000009:                                                                                                  ##              requirements of the yaYUL assembler rather than the
000010:                                                                                                  ##              original YUL assembler.
000011:                                                                                                  ## Reference:   pp. 135-209
000012:                                                                                                  ## Assembler:   yaYUL
000013:                                                                                                  ## Contact:     Ron Burkey <info@sandroid.org>.
000014:                                                                                                  ## Website:     www.ibiblio.org/apollo/index.html
000015:                                                                                                  ## Mod history: 2016-12-13 MAS  Created from Aurora 12 version.
000016:                                                                                                  ##              2016-12-18 MAS  Transcribed, then fixed typos.
000017:                                                                                                  ##              2016-12-27 RSB  Proofed comment text using octopus/ProoferComments,
000018:                                                                                                  ##                              and fixed errors found.
000019:                                                                                                  ##              2017-01-28 RSB  WTIH -> WITH.
000020:


000023:                                                                                                  #  KEYBOARD AND DISPLAY PROGRAM
000024:
000025:
000026:
000027:                                                                                                  #  THE FOLLOWING QUOTATION IS PROVIDED THROUGH THE COUTESY OF THE AUTHORS.
000028:
000029:                                                                                                  #        ::IT WILL BE PROVED TO THY FACE THAT THOU HAST MEN ABOUT THEE THAT
000030:                                                                                                  #  USUALLY TALK OF A NOUN AND A VERB, AND SUCH ABOMINABLE WORDS AS NO
000031:                                                                                                  #  CHRISTIAN EAR CAN ENDURE TO HEAR.::
000032:
000033:                                                                                                  #                       HENRY 6, ACT 2, SCENE 4


000036:
000037:
000038:
000039:                                                                                                  #  THE FOLLOWING ASSIGNMENTS FOR PINBALL ARE MADE ELSEWHERE
000040:
000041:
000042:
000043:                                                                                                  #  RESERVED FOR PINBALL EXECUTIVE ACTION
000044:
000045:                                                                                                  #  DSPCOUNT ERASE                  DISPLAY POSITION INDICATOR
000046:                                                                                                  #  DECBRNCH ERASE                  +DEC, - DEC, OCT INDICATOR
000047:                                                                                                  #  VERBREG  ERASE                  VERB CODE
000048:                                                                                                  #  NOUNREG  ERASE                  NOUN CODE
000049:                                                                                                  #  XREG     ERASE                  R1 INPUT BUFFER
000050:                                                                                                  #  YREG     ERASE                  R2 INPUT BUFFER
000051:                                                                                                  #  ZREG     ERASE                  R3 INPUT BUFFER
000052:                                                                                                  #  XREGLP   ERASE                  LO PART OF XREG (FOR DEC CONV ONLY)
000053:                                                                                                  #  YREGLP   ERASE                  LO PART OF YREG (FOR DEC CONV ONLY)
000054:                                                                                                  #  ZREGLP   ERASE                  LO PART OF ZREG (FOR DEC CONV ONLY)
000055:                                                                                                  #  MODREG   ERASE                  MODE CODE
000056:                                                                                                  #  DSPLOCK  ERASE                  KEYBOARD/SUBROUTINE CALL INTERLOCK
000057:                                                                                                  #  REQRET   ERASE                  RETURN REGISTER FOR LOAD
000058:                                                                                                  #  LOADSTAT ERASE                  STATUS INDICATOR FOR LOADTST
000059:                                                                                                  #  CLPASS   ERASE                  PASS INDICATOR CLEAR
000060:                                                                                                  #  NOUT     ERASE                  ACTIVITY COUNTER FOR DSPTAB
000061:                                                                                                  #  NOUNCADR ERASE                  MACHINE CADR FOR NOUN
000062:                                                                                                  #  MONSAVE  ERASE                  N/V CODE FOR MONITOR. (= MONSAVE1-1)
000063:                                                                                                  #  MONSAVE1 ERASE                  NOUNCADR FOR MONITOR(MATBS) =MONSAVE +1
000064:                                                                                                  #  DSPTAB   ERASE          +13D    0-10,DISPLAY PANEL BUFFER.11-13,C RELAYS
000065:                                                                                                  #  CADRSTOR ERASE                  ENDIDLE STORAGE
000066:                                                                                                  #  GRABLOCK ERASE                  INTERNAL INTERLOCK FOR DISPLAY SYSTEM
000067:                                                                                                  #  NVQTEM   ERASE                  NVSUB STORAGE FOR CALLING ADDRESS
000068:                                                                                                  #                                  MUST = NVBNKTEM-1
000069:                                                                                                  #  NVBNKTEM ERASE                  NVSUB STORAGE FOR CALLING BANK
000070:                                                                                                  #                                  MUST = NVQTEM+1
000071:                                                                                                  #  DSPLIST  ERASE          +2      WAITING LIST FOR DSP SYST INTERNAL USE
000072:                                                                                                  #  EXTVBACT REASE                  EXTENDED VERB ACTIVITY INTERLOCK
000073:                                                                                                  #  DSPTEM1  ERASE          +2      BUFFER STORAGE AREA 1 (MOSTLY FOR TIME)
000074:                                                                                                  #  DSPTEM2  ERASE          +2      BUFFER STORAGE AREA 2 (MOSTLY FOR DEG)
000075:


000077:                                                                                                  #  END OF ERASABLES RESERVED FOR PINBALL EXECUTIVE ACTION
000078:
000079:
000080:
000081:                                                                                                  #  TEMPORARIES FOR PINBALL EXECUTIVE ACTION
000082:
000083:                                                                                                  #  DSEXIT   =      INTB15+         RETURN FOR DSPIN
000084:                                                                                                  #  EXITEM   =      INTB15+         RETURN FOR SCALE FACTOR ROUTINE SELECT
000085:                                                                                                  #  BLANKRET =      INTB15+         RETURN FOR 2BLANK
000086:
000087:                                                                                                  #  WRDRET   =      INTBIT15        RETURN FOR 5BLANK
000088:                                                                                                  #  WDRET    =      INTBIT15        RETURN FOR DSPWD
000089:                                                                                                  #  DECRET   =      INTBIT15        RETURN FOR PUTCOM(DEC LOAD)
000090:                                                                                                  #  21/22REG =      INTBIT15        TEMP FOR CHARIN
000091:
000092:                                                                                                  #  UPDATRET =      POLISH          RETURN FOR UPDATNN, UPDATVB
000093:                                                                                                  #  CHAR     =      POLISH          TEMP FOR CHARIN
000094:                                                                                                  #  ERCNT    =      POLISH          COUNTER FOR ERROR LIGHT RESET
000095:                                                                                                  #  DECOUNT  =      POLISH          COUNTER FOR SCALING AND DISPLAY (DEC)
000096:
000097:                                                                                                  #  SGNON    =      VBUF            TEMP FOR +,- ON
000098:                                                                                                  #  NOUNTEM  =      VBUF            COUNTER FOR MIXNOUN FETCH
000099:                                                                                                  #  DISTEM   =      VBUF            COUNTER FOR OCTAL DISPLAY VERBS
000100:                                                                                                  #  DECTEM   =      VBUF            COUNTER FOR FETCH (DEC DISPLAY VERBS)
000101:
000102:                                                                                                  #  SGNOFF   =       VBUF   +1      TEMP FOR +,- ON
000103:                                                                                                  #  NVTEMP   =       VBUF   +1      TEMP FOR NVSUB
000104:                                                                                                  #  SFTEMP1  =       VBUF   +1      STORAGE FOR SF CONST HI PART (=SFTEMP2-1)
000105:
000106:                                                                                                  #  CODE     =       VBUF   +2      FOR DSPIN
000107:                                                                                                  #  SFTEMP2  =       VBUF   +2      STORAGE FOR SF CONST LO PART (=SFTEMP1+1)
000108:
000109:                                                                                                  #  MIXTEMP  =       VBUF   +3      FOR MIXNOUN DATA
000110:                                                                                                  #  SIGNRET  =       VBUF   +3      RETURN FOR +,- ON
000111:
000112:                                                                                                  #  ALSO MIXTEMP+1 = VBUF+4, MIXTEMP+2 = VBUF+5.
000113:
000114:                                                                                                  #  ENTRET   =       DOTINC          EXIT FROM ENTER
000115:
000116:                                                                                                  #  WDCNT    =       DOTRET          CHAR COUNTER FOR DSPWD
000117:                                                                                                  #  INREL    =       DOTRET          INPUT BUFFER SELECTOR ( X,Y,Z, REG )
000118:
000119:                                                                                                  #  DSPMMTEM =       MATINC          DSPCOUNT SAVE FOR DSPMM
000120:                                                                                                  #  MIXBR    =       MATINC          INDICATOR FOR MIXED OR NORMAL NOUN
000121:
000122:                                                                                                  #  TEM1     ERASE                   EXEC TEMP
000123:                                                                                                  #  DSREL    =       TEM1            REL ADDRESS FOR DSPIN
000124:
000125:                                                                                                  #  TEM2     ERASE                   EXEC TEMP
000126:                                                                                                  #  DSMAG    =       TEM2            MAGNITUDE STORE FOR DSPIN
000127:


000129:                                                                                                  #  IDADDTEM =       TEM2            MIXNOUN INDIRECT ADDRESS STORAGE
000130:
000131:                                                                                                  #  TEM3     ERASE                   EXEC TEMP
000132:                                                                                                  #  COUNT    =       TEM3            FOR DSPIN
000133:
000134:                                                                                                  #  TEM4     ERASE                   EXEC TEMP
000135:                                                                                                  #  LSTPTR   =       TEM4            LIST POINTER FOR GRABUSY
000136:                                                                                                  #  RELRET   =       TEM4            RETURN FOR RELDSP
000137:                                                                                                  #  FREERET  =       TEM4            RETURN FOR FREEDSP
000138:
000139:                                                                                                  #  TEM5     ERASE                   EXEC TEMP
000140:                                                                                                  #  NOUNADD  =       TEM5            TEMP STORAGE FOR NOUN ADDRESS
000141:
000142:                                                                                                  #  NNADTEM  ERASE                   TEMP FOR NOUN ADDRESS TABLE ENTRY
000143:                                                                                                  #  NNTYPTEM ERASE                   TEMP FOR NOUN TYPE TABLE ENTRY
000144:                                                                                                  #  IDAD1TEM ERASE                   TEMP FOR INDIR ADRESS TABLE ENTRY(MIXNN)
000145:                                                                                                  #                                   MUST = IDAD2TEM-1, = IDAD3TEM-2.
000146:                                                                                                  #  IDAD2TEM ERASE                   TEMP FOR INDIR ADRESS TABLE ENTRY(MIXNN)
000147:                                                                                                  #                                   MUST = IDAD1TEM+1, = IDAD3TEM-1.
000148:                                                                                                  #  IDAD3TEM ERASE                   TEMP FOR INDIR ADRESS TABLE ENTRY(MIXNN)
000149:                                                                                                  #                                   MUST = IDAD1TEM+2, = IDAD2TEM+1.
000150:                                                                                                  #  RUTMXTEM ERASE                   TEMP FOR SF ROUT TABLE ENTRY(MIXNN ONLY)
000151:                                                                                                  #  END OF TEMPORARIES FOR PINBALL EXECUTIVE ACTION
000152:
000153:
000154:
000155:                                                                                                  #  RESERVED FOR PINBALL INTERRUPT ACTION
000156:
000157:                                                                                                  #  DSPCNT   ERASE                  COUNTER FOR DSPOUT
000158:                                                                                                  #  UPLOCK   ERASE                  BIT1 = UPLINK INTERLOCK (ACTIVATED BY
000159:                                                                                                  #                                                                           RECEPTION OF A BAD MESSAGE IN UPLINK)
000160:                                                                                                  #  END OF ERASABLES RESERVED FOR PINBALL INTERRUPT ACTION
000161:
000162:
000163:
000164:                                                                                                  #  TEMPORARIES FOR PINBALL INTERRUPT ACTION
000165:
000166:                                                                                                  #  KEYTEMP1 =      WAITEXIT        TEMP FOR KEYRUPT, UPRUPT
000167:                                                                                                  #  DSRUPTEM =      WAITEXIT        TEMP FOR DSPOUT
000168:                                                                                                  #  KEYTEMP2 =      RUPTAGN         TEMP FOR KEYRUPT, UPRUPT
000169:                                                                                                  #  END OF TEMPORARIES FOR PINBALL INTERRUPT ACTION
000170:
000171:


000173:                                                                                                  #  THE INPUT CODES ASSUMED FOR THE KEYBOARD ARE,
000174:                                                                                                  #  0        10000
000175:                                                                                                  #  1        00001
000176:                                                                                                  #  9        01001
000177:                                                                                                  #  VERB     10001
000178:                                                                                                  #  ERROR RES10010
000179:                                                                                                  #  KEY RLSE 11001
000180:                                                                                                  #  +        11010
000181:                                                                                                  #  -        11011
000182:                                                                                                  #  ENTER    11100
000183:                                                                                                  #  CLEAR    11110
000184:                                                                                                  #  NOUN     11111
000185:
000186:
000187:
000188:                                                                                                  #  OUTPUT FORMAT FOR DISPLAY PANEL. SET OUT0 TO  AAAABCCCCCDDDDD.
000189:                                                                                                  #  A-S SELECT A RELAYWORD. THIS DETERMINES WHICH PAIR OF CHARACTERS ARE
000190:                                                                                                  #  ENERGIZED.
000191:                                                                                                  #  B FOR SPECIAL RELAYS SUCH AS SIGNS ETC.
000192:                                                                                                  #  C-S  5 BIT RELAY CODE FOR LEFT CHAR OF PAIR SELECTED BY RELAYWORD
000193:                                                                                                  #  D-S  5 BIT RELAY CODE FOR RIGHTCHAR OF PAIR SELECTED BY RELAYWORD.
000194:
000195:                                                                                                  #  THE PANEL APPEARS AS FOLLOWS,
000196:                                                                                                  #  MD1    MD2                         (MAJOR MODE)
000197:                                                                                                  #  VD1    VD2 (VERB)    ND1    ND2    (NOUN)
000198:                                                                                                  #  R1D1   R1D2   R1D3   R1D4   R1D5   (R1)
000199:                                                                                                  #  R2D1   R2D2   R2D3   R2D4   R2D5   (R2)
000200:                                                                                                  #  R3D1   R3D2   R3D3   R3D4   R3D5   (R3)
000201:
000202:                                                                                                  #  EACH OF THESE IS GIVEN A DSPCOUNT NUMBER FOR USE WITHIN COMPUTATION ONLY
000203:                                                                                                  #  MD1   25     R2D1  11         ALL ARE OCTAL
000204:                                                                                                  #  MD2   24     R2D2  10
000205:                                                                                                  #  VD1   23     R2D3   7
000206:                                                                                                  #  VD2   22     R2D4   6
000207:                                                                                                  #  ND1   21     R2D5   5
000208:                                                                                                  #  ND2   20     R3D1   4
000209:                                                                                                  #  R1D1  16     R3D2   3
000210:                                                                                                  #  R1D2  15     R3D3   2
000211:                                                                                                  #  R1D3  14     R3D4   1
000212:                                                                                                  #  R1D4  13     R3D5   0
000213:                                                                                                  #  R1D5  12
000214:
000215:
000216:
000217:                                                                                                  #  THERE IS AN 11 REGISTER TABLE (DSPTAB) FOR THE DISPLAY PANEL.
000218:
000219:                                                                                                  #  DSPTAB RELAYWD       BIT11     BITS 10-6     BITS 5-1
000220:                                                                                                  #  RELADD
000221:                                                                                                  #  10     1011                    MD1  (25)     MD2  (24)
000222:                                                                                                  #  9      1010                    VD1  (23)     VD2  (22)


000224:                                                                                                  #  8      1001                    ND1  (21)     ND2  (20)
000225:                                                                                                  #  7      1000                                  R1D1 (16)
000226:                                                                                                  #  6      0111          +R1       R1D2 (15)     R1D3 (14)
000227:                                                                                                  #  5      0110          -R1       R1D4 (13)     R1D5 (12)
000228:                                                                                                  #  4      0101          +R2       R2D1 (11)     R2D2 (10)
000229:                                                                                                  #  3      0100          -R2       R2D3 (7)      R2D4 (6)
000230:                                                                                                  #  2      0011                    R2D5 (5)      R3D1 (4)
000231:                                                                                                  #  1      0010          +R3       R3D2 (3)      R3D3 (2)
000232:                                                                                                  #  0      0001          -R3       R3D4 (1)      R3D5 (0)
000233:                                                                                                  #         0000   NO RELAYWORD
000234:
000235:
000236:
000237:                                                                                                  #  THE 5 BIT RELAY CODES ARE,
000238:                                                                                                  #  BLANK      00000
000239:                                                                                                  #  0          10101
000240:                                                                                                  #  1          00011
000241:                                                                                                  #  2          11001
000242:                                                                                                  #  3          11011
000243:                                                                                                  #  4          01111
000244:                                                                                                  #  5          11110
000245:                                                                                                  #  6          11100
000246:                                                                                                  #  7          10011
000247:                                                                                                  #  8          11101
000248:                                                                                                  #  9          11111
000249:


000251:                                                                                                  #  START OF EXECUTIVE SECTION OF PINBALL
000252:
000253:
000254:
000255: 04,2000                                           SETLOC   20000
000256:
000257: 04,2000           03432        GRABUSYB           TC       GRABUSY1                              #  STANDARD LEAD INS. DONT MOVE.
000258: 04,2001           03454        NVSUBSYB           TC       NVSUBSY1
000259:
000260: 04,2002           37646        CHARIN             CAF      ONE                                   #  BLOCK DISPLAY SYST
000261: 04,2003           56652                           XCH      DSPLOCK                               #  MAKE DSP SYST BUSY, BUT SAVE OLD
000262: 04,2004           54101                           TS       21/22REG                              #  C(DSPLOCK) FOR ERROR LIGHT RESET.
000263: 04,2005           56140                           XCH      MPAC
000264: 04,2006           54103                           TS       CHAR
000265: 04,2007           50000                           INDEX    A
000266: 04,2010           02011                           TC       +1                                    #  INPUT CODE     FUNCTION
000267: 04,2011           03253                           TC       CHARALRM                              #  0
000268: 04,2012           02062                           TC       NUM                                   #  1
000269: 04,2013           02062                           TC       NUM                                   #  2
000270: 04,2014           02062                           TC       NUM                                   #  3
000271: 04,2015           02062                           TC       NUM                                   #  4
000272: 04,2016           02062                           TC       NUM                                   #  5
000273: 04,2017           02062                           TC       NUM                                   #  6
000274: 04,2020           02062                           TC       NUM                                   #  7
000275: 04,2021           02053                           TC       89TEST                                #  10                 8
000276: 04,2022           02053                           TC       89TEST                                #  11                 9
000277: 04,2023           03253                           TC       CHARALRM                              #  12
000278: 04,2024           03253                           TC       CHARALRM                              #  13
000279: 04,2025           03253                           TC       CHARALRM                              #  14
000280: 04,2026           03253                           TC       CHARALRM                              #  15
000281: 04,2027           03253                           TC       CHARALRM                              #  16
000282: 04,2030           03253                           TC       CHARALRM                              #  17
000283: 04,2031           02060                           TC       NUM        -2                         #  20                 0
000284: 04,2032           02235                           TC       VERB                                  #  21                 VERB
000285: 04,2033           02343                           TC       ERROR                                 #  22                 ERROR LIGHT RESET
000286: 04,2034           03253                           TC       CHARALRM                              #  23
000287: 04,2035           03253                           TC       CHARALRM                              #  24
000288: 04,2036           03253                           TC       CHARALRM                              #  25
000289: 04,2037           03253                           TC       CHARALRM                              #  26
000290: 04,2040           03253                           TC       CHARALRM                              #  27
000291: 04,2041           03253                           TC       CHARALRM                              #  30
000292: 04,2042           03276                           TC       VBRELDSP                              #  31                 KEY RELEASE
000293: 04,2043           02267                           TC       POSGN                                 #  32                 +
000294: 04,2044           02254                           TC       NEGSGN                                #  33                 -
000295: 04,2045           02051                           TC       ENTERJMP                              #  34                 ENTER
000296: 04,2046           03253                           TC       CHARALRM                              #  35
000297: 04,2047           02407                           TC       CLEAR                                 #  36                 CLEAR
000298: 04,2050           02250                           TC       NOUN                                  #  37                 NOUN
000299:


000301: 04,2051           04102        ENTERJMP           TC       POSTJUMP
000302: 04,2052           12003                           CADR     ENTER
000303:
000304: 04,2053           36165        89TEST             CAF      THREE
000305: 04,2054           70640                           MASK     DECBRNCH
000306: 04,2055           10000                           CCS      A
000307: 04,2056           02062                           TC       NUM                                   #  IF DECBRNCH IS +, 8 OR 9 OK
000308: 04,2057           03253                           TC       CHARALRM                              #  IF DECBRNCH IS +0, REJECT 8 OR 9
000309:
000310:
000311:
000312:                                                                                                  #  NUM ASSEMBLES OCTAL 3 BITS AT A TIME. FOR DECIMAL IT CONVERTS INCOMING
000313:                                                                                                  #  WORD AS A FRACTION, KEEPING RESULTS TO DP.
000314:                                                                                                  #  OCTAL RESULTS ARE LEFT IN XREG, YREG, OR ZREG. HI PART OF DEC IN XREG,
000315:                                                                                                  #  YREG, ZREG. THE LOW PARTS IN XREGLP, YREGLP, OR ZREGLP)
000316:                                                                                                  #  DECBRNCH IS LEFT AT +0 FOR OCT, +1 FOR + DEC, +2 FOR - DEC.
000317:                                                                                                  #  IF DSPCOUNT WAS LEFT -, NO MORE DATA IS ACCEPTED.
000318:
000319: 04,2060           37653                           CAF      ZERO
000320: 04,2061           54103                           TS       CHAR
000321: 04,2062           10637        NUM                CCS      DSPCOUNT
000322: 04,2063           02067                           TC       +4                                    #  +
000323: 04,2064           02067                           TC       +3                                    #  +0
000324: 04,2065           02066                           TC       +1                                    #  -BLOCK DATA IN IF DSPCOUNT IS -
000325: 04,2066           04205                           TC       ENDOFJOB                              #  -0
000326: 04,2067           02205                           TC       GETINREL
000327: 04,2070           10655                           CCS      CLPASS                                #  IF CLPASS IS + OR +0, MAKE IT +0.
000328: 04,2071           37653                           CAF      ZERO
000329: 04,2072           54655                           TS       CLPASS
000330: 04,2073           02074                           TC       +1
000331: 04,2074           50103                           INDEX    CHAR
000332: 04,2075           34333                           CAF      RELTAB
000333: 04,2076           74473                           MASK     LOW5
000334: 04,2077           54110                           TS       CODE
000335: 04,2100           30637                           CA       DSPCOUNT
000336: 04,2101           54127                           TS       COUNT
000337: 04,2102           03157                           TC       DSPIN
000338: 04,2103           36165                           CAF      THREE
000339: 04,2104           70640                           MASK     DECBRNCH
000340: 04,2105           10000                           CCS      A                                     #  +0, OCTAL.  +1, + DEC.  +2, - DEC.
000341: 04,2106           02117                           TC       DECTOBIN                              #  +
000342: 04,2107           50123                           INDEX    INREL                                 #  +0 OCTAL
000343: 04,2110           56641                           XCH      VERBREG
000344: 04,2111           54022                           TS       CYL
000345: 04,2112           40022                           CS       CYL
000346: 04,2113           40022                           CS       CYL
000347: 04,2114           56022                           XCH      CYL
000348: 04,2115           60103                           AD       CHAR
000349: 04,2116           02134                           TC       ENDNMTST
000350: 04,2117           50123        DECTOBIN           INDEX    INREL
000351:


000353: 04,2120           56641                           XCH      VERBREG
000354: 04,2121           54140                           TS       MPAC                                  #  SUM X 2EXP-14 IN MPAC
000355: 04,2122           37653                           CAF      ZERO
000356: 04,2123           54141                           TS       MPAC       +1
000357: 04,2124           37650                           CAF      TEN                                   #  10 X 2EXP-14
000358: 04,2125           07257                           TC       SHORTMP                               #  10SUM X 2EXP-28 IN MPAC, MPAC+1
000359: 04,2126           56141                           XCH      MPAC       +1
000360: 04,2127           60103                           AD       CHAR
000361: 04,2130           54141                           TS       MPAC       +1
000362: 04,2131           02134                           TC       ENDNMTST                              #  NO OF
000363: 04,2132           26140                           ADS      MPAC                                  #  OF MUST BE 5TH CHAR
000364: 04,2133           02152                           TC       DECEND
000365: 04,2134           50123        ENDNMTST           INDEX    INREL
000366: 04,2135           54641                           TS       VERBREG
000367: 04,2136           40637                           CS       DSPCOUNT
000368: 04,2137           50123                           INDEX    INREL
000369: 04,2140           62176                           AD       CRITCON
000370: 04,2141           00006                           EXTEND
000371: 04,2142           12144                           BZF      ENDNUM                                #  -0, DSPCOUNT = CRITCON
000372: 04,2143           02173                           TC       MORNUM                                #  - , DSPCOUNT G/ CRITCON
000373: 04,2144           36165        ENDNUM             CAF      THREE
000374: 04,2145           70640                           MASK     DECBRNCH
000375: 04,2146           10000                           CCS      A
000376: 04,2147           02152                           TC       DECEND
000377: 04,2150           40637        ENDALL             CS       DSPCOUNT                              #  BLOCK NUMIN BY PLACING DSPCOUNT
000378: 04,2151           02174                           TC       MORNUM     +1                         #  NEGATIVELY
000379: 04,2152           07062        DECEND             TC       DMP                                   #  MULT SUM X 2EXP-28 IN MPAC, MPAC+1 BY
000380: 04,2153           02203                           ADRES    DECON                                 #  2EXP14/10EXP5. GIVES(SUM/10EXP5)X2EXP-14
000381: 04,2154           36165                           CAF      THREE                                 #  IN MPAC, +1, +2.
000382: 04,2155           70640                           MASK     DECBRNCH
000383: 04,2156           50000                           INDEX    A
000384: 04,2157           02157                           TC       +0
000385: 04,2160           02164                           TC       +DECSGN
000386: 04,2161           00006                           EXTEND                                         #  - CASE
000387: 04,2162           40142                           DCS      MPAC       +1
000388: 04,2163           52142                           DXCH     MPAC       +1
000389: 04,2164           56142        +DECSGN            XCH      MPAC       +2
000390: 04,2165           50123                           INDEX    INREL
000391: 04,2166           54644                           TS       XREGLP     -2
000392: 04,2167           56141                           XCH      MPAC       +1
000393: 04,2170           50123                           INDEX    INREL
000394: 04,2171           54641                           TS       VERBREG
000395: 04,2172           02150                           TC       ENDALL
000396: 04,2173           10637        MORNUM             CCS      DSPCOUNT                              #  DECREMENT DSPCOUNT
000397: 04,2174           54637                           TS       DSPCOUNT
000398: 04,2175           04205                           TC       ENDOFJOB
000399:
000400: 04,2176           00022        CRITCON            OCT      22                                    #  (DEC 18)
000401: 04,2177           00020                           OCT      20                                    #  (DEC 16)
000402: 04,2200           00012                           OCT      12                                    #  (DEC 10)


000404: 04,2201           00005                           OCT      5
000405: 04,2202           00000                           OCT      0
000406:
000407: 04,2203           05174 13261  DECON              2DEC     E-5        B14                        #  2EXP14/10EXP5 = .16384 DEC
000408:
000409:
000410:                                                                                                  #  GETINREL GETS PROPER DATA REG REL ADDRESS FOR CURRENT C(DSPCOUNT) AND
000411:                                                                                                  #  PUTS IN INTO INREL. +0 VERBREG, 1 NOUNREG, 2 XREG, 3 YREG, 4 ZREG.
000412:
000413: 04,2205           50637        GETINREL           INDEX    DSPCOUNT
000414: 04,2206           32211                           CAF      INRELTAB
000415: 04,2207           54123                           TS       INREL                                 #  (A TEMP. REG)
000416: 04,2210           00002                           TC       Q
000417:
000418: 04,2211           00004        INRELTAB           OCT      4                                     #  R3D5 (DSPCOUNT = 0)
000419: 04,2212           00004                           OCT      4                                     #  R3D4           =(1)
000420: 04,2213           00004                           OCT      4                                     #  R3D3           =(2)
000421: 04,2214           00004                           OCT      4                                     #  R3D2           =(3)
000422: 04,2215           00004                           OCT      4                                     #  R3D1           =(4)
000423: 04,2216           00003                           OCT      3                                     #  R2D5           =(5)
000424: 04,2217           00003                           OCT      3                                     #  R2D4           =(6)
000425: 04,2220           00003                           OCT      3                                     #  R2D3           =(7)
000426: 04,2221           00003                           OCT      3                                     #  R2D2           =(8D)
000427: 04,2222           00003                           OCT      3                                     #  R2D1           =(9D)
000428: 04,2223           00002                           OCT      2                                     #  R1D5           =(10D)
000429: 04,2224           00002                           OCT      2                                     #  R1D4           =(11D)
000430: 04,2225           00002                           OCT      2                                     #  R1D3           =(12D)
000431: 04,2226           00002                           OCT      2                                     #  R1D2           =(13D)
000432: 04,2227           00002                           OCT      2                                     #  R1D1           =(14D)
000433: 04,2231                                           LOC      +1                                    #  NO DSPCOUNT NUMBER = 15D
000434: 04,2231           00001                           OCT      1                                     #  ND2            =(16D)
000435: 04,2232           00001                           OCT      1                                     #  ND1            =(17D)
000436: 04,2233           00000                           OCT      0                                     #  VD2            =(18D)
000437: 04,2234           00000                           OCT      0                                     #  VD1            =(19D)
000438:
000439:
000440: 04,2235           37653        VERB               CAF      ZERO
000441: 04,2236           54641                           TS       VERBREG
000442: 04,2237           34506                           CAF      VD1
000443: 04,2240           54637        NVCOM              TS       DSPCOUNT
000444: 04,2241           02517                           TC       2BLANK
000445: 04,2242           37653                           CAF      ZERO
000446: 04,2243           54640                           TS       DECBRNCH
000447: 04,2244           54653                           TS       REQRET                                #  SET FOR ENTPAS0
000448: 04,2245           34417                           CAF      ENDINST                               #  IF DSPALARM OCCURS BEFORE FIRST ENTPAS0
000449: 04,2246           54122                           TS       ENTRET                                #  OR NVSUB, ENTRET MUST ALREADY BE SET
000450:                                                                                                  #  TO TC ENDOFJOB
000451: 04,2247           04205                           TC       ENDOFJOB
000452:


000454: 04,2250           37653        NOUN               CAF      ZERO
000455: 04,2251           54642                           TS       NOUNREG
000456: 04,2252           34507                           CAF      ND1                                   #  ND1, OCT 21 (DEC 17)
000457: 04,2253           02240                           TC       NVCOM
000458:
000459:
000460:
000461: 04,2254           02326        NEGSGN             TC       SIGNTEST
000462: 04,2255           02313                           TC       -ON
000463: 04,2256           37645                           CAF      TWO
000464: 04,2257           50123        BOTHSGN            INDEX    INREL                                 #  SET DEC COMP BIT TO 1 (IN DECBRNCH)
000465: 04,2260           67640                           AD       BIT7                                  #  BIT 5 FOR R1.  BIT 4 FOR R2.
000466: 04,2261           26640                           ADS      DECBRNCH                              #  BIT 3 FOR R3.
000467: 04,2262           10655        FIXCLPAS           CCS      CLPASS                                #  IF CLPASS IS + OR +0, MAKE IT +0.
000468: 04,2263           37653                           CAF      ZERO
000469: 04,2264           54655                           TS       CLPASS
000470: 04,2265           02266                           TC       +1
000471: 04,2266           04205                           TC       ENDOFJOB
000472:
000473: 04,2267           02326        POSGN              TC       SIGNTEST
000474: 04,2270           02273                           TC       +ON
000475: 04,2271           37646                           CAF      ONE
000476: 04,2272           02257                           TC       BOTHSGN
000477:
000478: 04,2273           22002        +ON                LXCH     Q
000479: 04,2274           02205                           TC       GETINREL
000480: 04,2275           50123                           INDEX    INREL
000481: 04,2276           32321                           CAF      SGNTAB     -2
000482: 04,2277           54107                           TS       SGNOFF
000483: 04,2300           67646                           AD       ONE
000484: 04,2301           54106                           TS       SGNON
000485: 04,2302           37653        SGNCOM             CAF      ZERO
000486: 04,2303           54110                           TS       CODE
000487: 04,2304           56107                           XCH      SGNOFF
000488: 04,2305           03241                           TC       11DSPIN
000489: 04,2306           37634                           CAF      BIT11
000490: 04,2307           54110                           TS       CODE
000491: 04,2310           56106                           XCH      SGNON
000492: 04,2311           03241                           TC       11DSPIN
000493: 04,2312           00001                           TC       L
000494: 04,2313           22002        -ON                LXCH     Q
000495: 04,2314           02205                           TC       GETINREL
000496: 04,2315           50123                           INDEX    INREL
000497: 04,2316           32321                           CAF      SGNTAB     -2
000498: 04,2317           54106                           TS       SGNON
000499: 04,2320           67646                           AD       ONE
000500: 04,2321           54107                           TS       SGNOFF
000501: 04,2322           02302                           TC       SGNCOM
000502:
000503: 04,2323           00005        SGNTAB             OCT      5                                     #  -R1


000505: 04,2324           00003                           OCT      3                                     #  -R2
000506: 04,2325           00000                           OCT      0                                     #  -R3
000507:
000508:
000509:
000510: 04,2326           22002        SIGNTEST           LXCH     Q                                     #  ALLOWS +,- ONLY WHEN DSPCOUNT=R1D1,
000511: 04,2327           44444                           CS       R1D1                                  #  R2D1, OR R3D1.
000512: 04,2330           02336                           TC       SGNTST1
000513: 04,2331           44445                           CS       R2D1
000514: 04,2332           02336                           TC       SGNTST1
000515: 04,2333           44446                           CS       R3D1
000516: 04,2334           02336                           TC       SGNTST1
000517: 04,2335           04205                           TC       ENDOFJOB                              #  NO MATCH FOUND. SIGN ILLEGAL
000518: 04,2336           60637        SGNTST1            AD       DSPCOUNT
000519: 04,2337           00006                           EXTEND
000520: 04,2340           12342                           BZF      +2                                    #  MATCH FOUND
000521: 04,2341           00002                           TC       Q
000522: 04,2342           00001                           TC       L                                     #  SIGN LEGAL
000523:
000524:
000525:
000526:                                                                                                  #  ERROR LIGHT RESET (RSET) TURNS OFF,
000527:                                                                                                  #  UPLINK ACTIVITY, AUTO, HOLD, FREE, NO ATT, OPERATOR ERROR, TEMP, GIMBAL
000528:                                                                                                  #  LOCK, PROG ALM, TRACKER.
000529:                                                                                                  #  IT ALSO ZEROES THE :TEST ALARM: OUT BIT, WHICH TURNS OFF STBY,RESTART.
000530:                                                                                                  #  IT ALSO FORCES BIT 12 OF ALL DSPTAB ENTRIES TO 1.
000531:
000532: 04,2343           56101        ERROR              XCH      21/22REG                              #  RESTORE ORIGINAL C(DSPLOCK). THUS ERROR
000533: 04,2344           54652                           TS       DSPLOCK                               #  LIGHT RESET LEAVES DSPLOCK UNCHANGED.
000534: 04,2345           37630                           CAF      BIT15                                 #  TURNS OFF  AUTO, HOLD, FREE, NO ATT,
000535: 04,2346           54675                           TS       DSPTAB     +11D                       #  GIMBAL LOCK, TRACKER, PROG ALM.
000536: 04,2347           47635                           CS       BIT10                                 #  TURN OFF :TEST ALARM: OUTBIT.
000537: 04,2350           00006                           EXTEND
000538: 04,2351           03013                           WAND     CHAN13
000539: 04,2352           42405                           CS       ERCON                                 #  TURNS OFF  UPLINK ACTIVITY, TEMP,
000540: 04,2353           00006                           EXTEND                                         #  OPERATOR ERROR.
000541: 04,2354           03011                           WAND     DSALMOUT
000542: 04,2355           34511        TSTAB              CAF      BINCON                                #  (DEC 10)
000543: 04,2356           54103                           TS       ERCNT                                 #  ERCNT = COUNT
000544: 04,2357           00004                           INHINT
000545: 04,2360           50103                           INDEX    ERCNT
000546: 04,2361           10662                           CCS      DSPTAB
000547: 04,2362           67646                           AD       ONE
000548: 04,2363           02370                           TC       ERPLUS
000549: 04,2364           67646                           AD       ONE
000550: 04,2365           40000        ERMINUS            CS       A
000551: 04,2366           72406                           MASK     NOTBIT12
000552: 04,2367           02373                           TC       ERCOM
000553: 04,2370           40000        ERPLUS             CS       A
000554: 04,2371           72406                           MASK     NOTBIT12


000556: 04,2372           40000                           CS       A                                     #  MIGHT WANT TO RESET CLPASS, DECBRNCH,
000557: 04,2373           50103        ERCOM              INDEX    ERCNT                                 #  ETC.
000558: 04,2374           54662                           TS       DSPTAB
000559: 04,2375           00003                           RELINT
000560: 04,2376           10103                           CCS      ERCNT
000561: 04,2377           02356                           TC       TSTAB      +1
000562: 04,2400           37653                           CAF      ZERO
000563: 04,2401           54721                           TS       FAILREG
000564: 04,2402           55021                           TS       OLDERR
000565: 04,2403           55044                           TS       SFAIL
000566: 04,2404           04205                           TC       ENDOFJOB
000567:
000568: 04,2405           00114        ERCON              OCT      00114                                 #  CHAN 11 BIT 3,4,7.
000569:                                                                                                  #  UPLINK ACTIVITY, TEMP, OPERATOR
000570:                                                                                                  #  ERROR.
000571: 04,2406           73777        NOTBIT12           OCT      73777
000572:
000573:
000574:
000575:                                                                                                  #  CLEAR BLANKS WHICH R1, R2, R3 IS CURRENT OR LAST TO BE DISPLAYED(PERTINE
000576:                                                                                                  #  NT XREG,YREG,ZREG IS CLEARED). SUCCESSIVE CLEARS TAKE CARE OF EACH RX
000577:                                                                                                  #  L/ RC UNTIL R1 IS DONE. THEN NO FURTHER ACTION
000578:
000579:                                                                                                  #  THE SINGLE COMPONENT LOAD VERBS ALLOW ONLY THE SINGLE RC THAT IS
000580:                                                                                                  #  APPROPRIATE TO BE CLEARED.
000581:
000582:                                                                                                  #  CLPASS   +0 PASS0, CAN BE BACKED UP
000583:                                                                                                  #           +NZ HIPASS, CAN BE BACKED UP
000584:                                                                                                  #           -NZ PASS0, CANNOT BE BACKED UP
000585:
000586: 04,2407           10637        CLEAR              CCS      DSPCOUNT
000587: 04,2410           67646                           AD       ONE
000588: 04,2411           02413                           TC       +2
000589: 04,2412           67646                           AD       ONE
000590: 04,2413           54637                           TS       DSPCOUNT                              #  MAG OF DSPCOUNT
000591: 04,2414           02205                           TC       GETINREL                              #  MUST SET INREL, EVEN FOR HIPASS
000592: 04,2415           10655                           CCS      CLPASS
000593: 04,2416           02424                           TC       CLPASHI                               #  +
000594: 04,2417           02421                           TC       +2                                    #  +0    IF CLPASS IS +0 OR -, IT IS PASS0
000595: 04,2420           02421                           TC       +1                                    #  -
000596: 04,2421           30123                           CA       INREL
000597: 04,2422           02446                           TC       LEGALTST
000598: 04,2423           02441                           TC       CLEAR1
000599: 04,2424           10123        CLPASHI            CCS      INREL
000600: 04,2425           54123                           TS       INREL
000601: 04,2426           02446                           TC       LEGALTST
000602: 04,2427           32515                           CAF      DOUBLK     +2                         #  +3 TO - NUMBER, BACKS DATA REQUESTS.
000603: 04,2430           26653                           ADS      REQRET
000604: 04,2431           30123                           CA       INREL
000605: 04,2432           54111                           TS       MIXTEMP                               #  TEMP STORAGE FOR INREL


000607: 04,2433           00006                           EXTEND
000608: 04,2434           26641                           DIM      VERBREG                               #  DECREMENT VERB AND RE-DISPLAY
000609: 04,2435           04063                           TC       BANKCALL
000610: 04,2436           12315                           CADR     UPDATVB
000611: 04,2437           30111                           CA       MIXTEMP
000612: 04,2440           54123                           TS       INREL                                 #  RESTORE INREL
000613: 04,2441           02444        CLEAR1             TC       CLR5
000614: 04,2442           24655                           INCR     CLPASS                                #  ONLY IF CLPASS IS + OR +0.
000615: 04,2443           04205                           TC       ENDOFJOB                              #  SET FOR HIGHER PASS.
000616: 04,2444           22002        CLR5               LXCH     Q                                     #  USES 5BLANK BUT AVOIDS ITS TC GETINREL
000617: 04,2445           02456                           TC       5BLANK     +2
000618: 04,2446           67656        LEGALTST           AD       NEG2
000619: 04,2447           10000                           CCS      A
000620: 04,2450           00002                           TC       Q                                     #  LEGAL  INREL G/ 2
000621: 04,2452                                           LOC      +1
000622: 04,2452           04205                           TC       ENDOFJOB                              #  ILLEGAL   INREL= 0,1
000623: 04,2453           00002                           TC       Q                                     #  LEGAL    INREL = 2
000624:
000625:
000626:
000627:                                                                                                  #  5BLANK BLANKS 5 CHAR DISPLAY WORD IN R1, R2, OR R3. IT ALSO ZEROES XREG,
000628:                                                                                                  #  YREG, OR ZREG.PLACE ANY + DSPCOUNT NUMBER FOR PERTINENT RC INTO DSPCOUNT
000629:                                                                                                  #  DSPCOUNT IS LEFT SET TO LEFT MOST DSP NUMB FOR RC JUST BLANKED.
000630:
000631: 04,2454           22002        5BLANK             LXCH     Q
000632: 04,2455           02205                           TC       GETINREL
000633: 04,2456           37653                           CAF      ZERO
000634: 04,2457           50123                           INDEX    INREL
000635: 04,2460           54641                           TS       VERBREG                               #  ZERO X, Y, Z REG.
000636: 04,2461           50123                           INDEX    INREL
000637: 04,2462           54644                           TS       XREGLP     -2
000638: 04,2463           54110                           TS       CODE
000639: 04,2464           50123                           INDEX    INREL                                 #  ZERO PERTINENT DEC COMP BIT.
000640: 04,2465           47640                           CS       BIT7                                  #  PROTECT OTHERS
000641: 04,2466           70640                           MASK     DECBRNCH
000642: 04,2467           72516                           MASK     BRNCHCON                              #  ZERO LOW 2 BITS.
000643: 04,2470           54640                           TS       DECBRNCH
000644: 04,2471           50123                           INDEX    INREL
000645: 04,2472           32506                           CAF      SINBLANK   -2                         #  BLANK ISOLATED CHAR SEPARATELY
000646: 04,2473           54127                           TS       COUNT
000647: 04,2474           03157                           TC       DSPIN
000648: 04,2475           50123        5BLANK1            INDEX    INREL
000649: 04,2476           32511                           CAF      DOUBLK     -2
000650: 04,2477           54637                           TS       DSPCOUNT
000651: 04,2500           02517                           TC       2BLANK
000652: 04,2501           47645                           CS       TWO
000653: 04,2502           26637                           ADS      DSPCOUNT
000654: 04,2503           02517                           TC       2BLANK
000655: 04,2504           50123                           INDEX    INREL
000656: 04,2505           34442                           CAF      R1D1       -2


000658: 04,2506           54637                           TS       DSPCOUNT                              #  SET DSPCOUNT TO LEFT MOST DSP NUMBER
000659: 04,2507           00001                           TC       L                                     #  OF REG. JUST BLANKED
000660:
000661: 04,2510           00016        SINBLANK           OCT      16                                    #  DEC 14
000662: 04,2511           00005                           OCT      5
000663: 04,2512           00004                           OCT      4
000664: 04,2513           00015        DOUBLK             OCT      15                                    #  DEC 13
000665: 04,2514           00011                           OCT      11                                    #  DEC 9
000666: 04,2515           00003                           OCT      3
000667:
000668: 04,2516           77774        BRNCHCON           OCT      77774
000669:
000670:                                                                                                  #  2BLANK BLANKS TWO CHAR. PLACE DSP NUMBER OF LEFT CHAR  OF THE PAIR INTO
000671:                                                                                                  #  DSPCOUNT. THIS NUMBER IS LEFT IN DSPCOUNT
000672:
000673: 04,2517           30637        2BLANK             CA       DSPCOUNT
000674: 04,2520           54021                           TS       SR
000675: 04,2521           42532                           CS       BLANKCON
000676: 04,2522           00004                           INHINT
000677: 04,2523           50021                           INDEX    SR
000678: 04,2524           56662                           XCH      DSPTAB
000679: 04,2525           00006                           EXTEND
000680: 04,2526           62530                           BZMF     +2                                    #  IF OLD CONTENTS -, NOUT OK
000681: 04,2527           24656                           INCR     NOUT                                  #  IF OLD CONTENTS +, +1 TO NOUT
000682: 04,2530           00003                           RELINT                                         #  IF -,NOUT OK
000683: 04,2531           00002                           TC       Q
000684: 04,2532           04000        BLANKCON           OCT      4000
000685:


000687:                                                                                                  #  ENTER PASS 0 IS THE EXECUTE FUNCTION. HIGHER ORDER ENTERS ARE TO LOAD
000688:                                                                                                  #  DATA. THE SIGN OF REQRET DETERMINES THE PASS, + FOR PASS 0,- FOR HIGHER
000689:                                                                                                  #  PASSES.
000690:
000691:
000692:
000693:                                                                                                  #  MACHINE CADR TO BE SPECIFIED (MCTBS) NOUNS DESIRE AN ECADR TO BE LOADED
000694:                                                                                                  #  WHEN USED WITH LOAD VERBS, MONITOR VERBS, OR DISPLAY VERBS (EXCEPT
000695:                                                                                                  #  VERB = FIXED MEMORY DISPLAY, WHICH REQUIRES AN FCADR).
000696:
000697:
000698:
000699: 05,2000                                           SETLOC   22000
000700:
000701: 05,2000           03344        NVSUBB             TC       NVSUB1                                #  STANDARD LEAD INS. DONT MOVE.
000702: 05,2001           13403        DSPMM              TCF      DSPMM1
000703: 05,2002           02663        LOADLV1            TC       LOADLV
000704:                                                                                                  #  END OF STANDARD LEAD INS.
000705:
000706:
000707:
000708: 05,2003           37653        ENTER              CAF      ZERO
000709: 05,2004           54655                           TS       CLPASS
000710: 05,2005           34417                           CAF      ENDINST
000711: 05,2006           54122                           TS       ENTRET
000712: 05,2007           10653                           CCS      REQRET
000713: 05,2010           02031                           TC       ENTPAS0                               #  IF +, PASS 0
000714: 05,2011           02031                           TC       ENTPAS0                               #  IF +, PASS 0
000715: 05,2012           02013                           TC       +1                                    #  IF -, NOT PASS 0
000716: 05,2013           36165                           CAF      THREE                                 #  IF DEC, ALARM IF LESS THAN 5 CHAR IN,
000717: 05,2014           70640                           MASK     DECBRNCH                              #  BUT LEAVE REQRET - AND FLASH ON, SO
000718: 05,2015           10000                           CCS      A                                     #  OPERATOR CAN SUPPLY MISSING NUMERICAL
000719: 05,2016           02020                           TC       +2                                    #  CHARACTERS AND CONTINUE.
000720: 05,2017           02024                           TC       ACCEPTWD                              #  OCTAL. ANY NUMBER OF CHAR OK.
000721: 05,2020           10637                           CCS      DSPCOUNT
000722: 05,2021           02324                           TC       GODSPALM                              #  LESS THAN 5 CHAR DEC(DSPCOUNT IS +)
000723: 05,2022           02324                           TC       GODSPALM                              #  LESS THAN 5 CHAR DEC(DSPCOUNT IS +)
000724: 05,2023           02024                           TC       +1                                    #  5 CHAR IN (DSPCOUNT IS -)
000725: 05,2024           40653        ACCEPTWD           CS       REQRET                                #  5 CHAR IN (DSPCOUNT IS -)
000726: 05,2025           54653                           TS       REQRET                                #  SET REQRET +.
000727: 05,2026           04547                           TC       FLASHOFF
000728: 05,2027           00653                           TC       REQRET
000729:
000730: 05,2030     0122               ENTEXIT            =        ENTRET
000731:
000732: 05,2030           00030        LOWVERB            OCT      30                                    #  LOWER VERB THAT AVOIDS NOUN TEST
000733:
000734: 05,2031           37653        ENTPAS0            CAF      ZERO                                  #   NOUN VERB SUB ENTERS HERE
000735: 05,2032           54640                           TS       DECBRNCH
000736: 05,2033           40641        TESTVB             CS       VERBREG                               #  IF VERB IS 30-77, SKIP NOUN TEST


000738: 05,2034           62030                           AD       LOWVERB                               #  30-VB
000739: 05,2035           00006                           EXTEND
000740: 05,2036           62116                           BZMF     VERBFAN                               #  VERB G/E 30
000741: 05,2037           00006        TESTNN             EXTEND                                         #  VERB L/ 30
000742: 05,2040           32076                           DCA      LODNNLOC                              #  SWITCH BANKS TO NOUN TABLE READING
000743: 05,2041           52006                           DXCH     Z                                     #  ROUTINE.
000744: 05,2042           50124                           INDEX    MIXBR
000745: 05,2043           02043                           TC       +0
000746: 05,2044           02046                           TC       +2                                    #  NORMAL
000747: 05,2045           02176                           TC       MIXNOUN                               #  MIXED
000748: 05,2046           10132                           CCS      NNADTEM                               #  NORMAL
000749: 05,2047           02114                           TC       VERBFAN    -2                         #       NORMAL  IF +
000750: 05,2050           02324                           TC       GODSPALM                              #  NOT IN USE    IF +0
000751: 05,2051           02055                           TC       REQADD                                #  SPECIFY MACHINE CADR IF -
000752: 05,2052           24657                           INCR     NOUNCADR                              #  AUGMENT MACHINE CADR IF -0
000753: 05,2053           04436                           TC       SETNADD                               #  ECADR FROM NOUNCADR, SETS EB, NOUNADD.
000754: 05,2054           02102                           TC       INTMCTBS   +2
000755: 05,2055           37630        REQADD             CAF      BIT15                                 #  SET CLPASS FOR PASS0 ONLY
000756: 05,2056           54655                           TS       CLPASS
000757: 05,2057           44417                           CS       ENDINST                               #  TEST IF REACHED HERE FROM INTERNAL OR
000758: 05,2060           60122                           AD       ENTEXIT                               #              FROM EXTERNAL
000759: 05,2061           00006                           EXTEND
000760: 05,2062           12064                           BZF      +2                                    #  EXTERNAL MACH CADR TO BE SPECIFIED
000761: 05,2063           02100                           TC       INTMCTBS
000762: 05,2064           02256                           TC       REQDATZ                               #  EXTERNAL MACH CADR TO BE SPECIFIED
000763: 05,2065           10640                           CCS      DECBRNCH
000764: 05,2066           02324                           TC       GODSPALM                              #  ALARM IF DECIMAL USED FOR MCTBS
000765: 05,2067           56645                           XCH      ZREG                                  #  OCTAL USED    OK
000766: 05,2070           04430                           TC       SETNCADR                              #  ECADR INTO NOUNCADR. SET EB, NOUNADD.
000767: 05,2071           00006                           EXTEND
000768: 05,2072           32076                           DCA      LODNNLOC                              #  SWITCH BANKS TO NOUN TABLE READING
000769: 05,2073           52006                           DXCH     Z                                     #  ROUTINE.
000770: 05,2074           02116                           TC       VERBFAN
000771:
000772: 05,2075     0637                                  EBANK=   DSPCOUNT
000773: 05,2075           02000 14001  LODNNLOC           2CADR    LODNNTAB
000774:
000775: 05,2077           77772        NEG5               OCT      77772
000776:
000777: 05,2100           30142        INTMCTBS           CA       MPAC       +2                         #  INTERNAL MACH CADR TO BE SPECIFIED.
000778: 05,2101           04430                           TC       SETNCADR                              #  ECADR INTO NOUNCADR. SET EB, NOUNADD.
000779: 05,2102           47643                           CS       BIT4                                  #  NVSUB CALL LEFT CADR IN MPAC+2 FOR MACH
000780: 05,2103           70641                           MASK     VERBREG                               #  CADR TO BE SPECIFIED.
000781: 05,2104           62077                           AD       NEG5                                  #  MASKING MAKES VB15 LOOK LIKE VB05.
000782: 05,2105           00006                           EXTEND
000783: 05,2106           12116                           BZF      VERBFAN                               #  VB = 05 OR 15, DO NOT DISPLAY CADR.
000784: 05,2107           34446                           CAF      R3D1                                  #  VB NOT = 05 OR 15, DISPLAY CADR.
000785: 05,2110           54637                           TS       DSPCOUNT
000786: 05,2111           30657                           CA       NOUNCADR
000787: 05,2112           03222                           TC       DSPOCTWD


000789: 05,2113           02116                           TC       VERBFAN
000790:
000791: 05,2114           67646                           AD       ONE
000792: 05,2115           04430                           TC       SETNCADR                              #  ECADR INTO NOUNCADR. SETS EB, NOUNADD.
000793: 05,2116           42131        VERBFAN            CS       LST2CON
000794: 05,2117           60641                           AD       VERBREG                               #  VERB-LST2CON
000795: 05,2120           10000                           CCS      A
000796: 05,2121           67646                           AD       ONE                                   #  VERB G/ LST2CON
000797: 05,2122           02124                           TC       +2
000798: 05,2123           02133                           TC       VBFANDIR                              #  VERB L/ LST2CON
000799: 05,2124           54140                           TS       MPAC
000800: 05,2125           04610                           TC       RELDSP                                #  RELEASE DISPLAY SYST
000801: 05,2126           56140                           XCH      MPAC                                  #  ALSO TURN OFF RELEASE DISPLAY SYST LIGHT
000802: 05,2127           62132                           AD       LST2CADR
000803: 05,2130           04105                           TC       BANKJUMP
000804: 05,2131           00040        LST2CON            OCT      40                                    #  FIRST LST2 VERB
000805: 05,2132           11255        LST2CADR           CADR     DSPALARM                              #  **FIX LATER**
000806:
000807: 05,2133           50641        VBFANDIR           INDEX    VERBREG
000808: 05,2134           32136                           CAF      VERBTAB
000809: 05,2135           04105                           TC       BANKJUMP
000810:
000811: 05,2136           12324        VERBTAB            CADR     GODSPALM                              #  VB00 ILLEGAL
000812: 05,2137           12340                           CADR     DSPA                                  #  VB01 DISPLAY OCT COMP 1 (R1)
000813: 05,2140           12345                           CADR     DSPB                                  #  VB02 DISPLAY OCT COMP 2 (R1)
000814: 05,2141           12352                           CADR     DSPC                                  #  VB03 DISPLAY OCT COMP 3 (R1)
000815: 05,2142           12333                           CADR     DSPAB                                 #  VB04 DISPLAY OCT COMP 1,2 (R1,R2)
000816: 05,2143           12326                           CADR     DSPABC                                #  VB05 DISPLAY OCT COMP 1,2,3 (R1,R2,R3)
000817: 05,2144           12445                           CADR     DECDSP                                #  VB06 DECIMAL DISPLAY
000818: 05,2145           10662                           CADR     DSPDPDEC                              #  VB07 DP DECIMAL DISPLAY (R1,R2)
000819: 05,2146           11255                           CADR     DSPALARM                              #  VB10 SPARE
000820: 05,2147           13077                           CADR     MONITOR                               #  VB11 MONITOR OCT COMP 1 (R1)
000821: 05,2150           13077                           CADR     MONITOR                               #  VB12 MONITOR OCT COMP 2 (R1)
000822: 05,2151           13077                           CADR     MONITOR                               #  VB13 MONITOR OCT COMP 3 (R1)
000823: 05,2152           13077                           CADR     MONITOR                               #  VB14 MONITOR OCT COMP 1,2 (R1,R2)
000824: 05,2153           13077                           CADR     MONITOR                               #  VB15 MONITOR OCT COMP 1,2,3 (R1,R2,R3)
000825: 05,2154           13077                           CADR     MONITOR                               #  VB16 MONITOR DECIMAL
000826: 05,2155           13077                           CADR     MONITOR                               #  VB17 MONITOR DP DEC (R1,R2)
000827: 05,2156           12324                           CADR     GODSPALM                              #  VB20 SPARE
000828: 05,2157           12620                           CADR     ALOAD                                 #  VB21 LOAD COMP 1 (R1)
000829: 05,2160           12631                           CADR     BLOAD                                 #  VB22 LOAD COMP 2 (R2)
000830: 05,2161           12646                           CADR     CLOAD                                 #  VB23 LOAD COMP 3 (R3)
000831: 05,2162           12572                           CADR     ABLOAD                                #  VB24 LOAD COMP 1,2 (R1,R2)
000832: 05,2163           12535                           CADR     ABCLOAD                               #  VB25 LOAD COMP 1,2,3 (R1,R2,R3)
000833: 05,2164           12324                           CADR     GODSPALM                              #  VB26 SPARE
000834: 05,2165           13214                           CADR     DSPFMEM                               #  VB27 FIXED MEMORY DISPLAY
000835:                                                                                                  #  THE FOLLOWING VERBS MAKE NO NOUN TEST
000836: 05,2166           13314        REQEXLOC           CADR     VBRQEXEC                              #  VB30 REQUEST EXECUTIVE
000837: 05,2167           13340                           CADR     VBRQWAIT                              #  VB31 REQUEST WAITLIST
000838: 05,2170           11303                           CADR     BUMP                                  #  VB32 C(R2) INTO R3, C(R1) INTO R2


000840: 05,2171           11266                           CADR     VBPROC                                #  VB33 PROCEED WITHOUT DATA
000841: 05,2172           11273                           CADR     VBTERM                                #  VB34 TERMINATE CURRENT TEST OR LOAD REQ
000842: 05,2173           13414                           CADR     VBTSTLTS                              #  VB35 TEST LIGHTS
000843: 05,2174           02677                           CADR     SLAP1                                 #  VB36 FRESH START
000844: 05,2175           13267        ENDVBFAN           CADR     MMCHANG                               #  VB37 CHANGE MAJOR MODE
000845:
000846:
000847:
000848:                                                                                                  #  THE LIST2 VERBFAN IS LOCATED IN THE EXTENDED VERB BANK.
000849:


000851:                                                                                                  #  NNADTAB CONTAINS A RELATIVE ADDRESS, IDADDREL(IN LOW 10 BITS), REFERRING
000852:                                                                                                  #  TO WHERE 3 CONSECUTIVE ADDRESSES ARE STORED (IN IDADDTAB).
000853:                                                                                                  #  MIXNOUN GETS DATA AND STORES IN MIXTEMP,+1,+2. IT SETS NOUNADD FOR
000854:                                                                                                  #   MIXTEMP.
000855:
000856: 05,2176           10132        MIXNOUN            CCS      NNADTEM
000857: 05,2177           02203                           TC       +4                                    #  +  IN USE
000858: 05,2200           02324                           TC       GODSPALM                              #  +0  NOT IN USE
000859: 05,2201           02203                           TC       +2                                    #  -  IN USE
000860: 05,2202           02203                           TC       +1                                    #  -0  IN USE
000861: 05,2203           46162                           CS       SIX
000862: 05,2204           60641                           AD       VERBREG
000863: 05,2205           00006                           EXTEND
000864: 05,2206           62210                           BZMF     +2                                    #  VERB L/E 6
000865: 05,2207           02116                           TC       VERBFAN                               #  AVOID MIXNOUN SWAP IF VB NOT = DISPLAY
000866: 05,2210           37645                           CAF      TWO
000867: 05,2211           54103        MIXNN1             TS       DECOUNT
000868: 05,2212           62235                           AD       MIXAD
000869: 05,2213           54131                           TS       NOUNADD                               #  SET NOUNADD TO MIXTEMP + K
000870: 05,2214           50103                           INDEX    DECOUNT                               #  GET IDADDTAB ENTRY FOR COMPONENT K
000871: 05,2215           30134                           CA       IDAD1TEM                              #  OF NOUN.
000872: 05,2216           54106                           TS       NOUNTEM
000873:                                                                                                  #  TEST FOR DP(FOR OCT DISPLAY). IF SO, GET
000874:                                                                                                  #    MINOR PART ONLY.
000875: 05,2217           02721                           TC       SFRUTMIX                              #  GET SF ROUT NUMBER IN A
000876: 05,2220           02236                           TC       DPTEST
000877: 05,2221           02223                           TC       MIXNN2                                #  NO DP
000878: 05,2222           24106                           INCR     NOUNTEM                               #  DP GET MINOR PART
000879: 05,2223           30106        MIXNN2             CA       NOUNTEM
000880: 05,2224           74503                           MASK     LOW11                                 #  ESUBK (NO DP) OR (ESUBK)+1     FOR DP
000881: 05,2225           04440                           TC       SETEBANK                              #  SET EBANK, LEAVE EADRES IN A.
000882: 05,2226           50000                           INDEX    A                                     #  PICK UP C(ESUBK)  NOT DP
000883: 05,2227           30000                           CA       0                                     #  OR C((ESUBK)+1)  FOR DP MINOR PART
000884: 05,2230           50131                           INDEX    NOUNADD
000885: 05,2231           56000                           XCH      0                                     #  STORE IN MIXTEM + K
000886: 05,2232           10103                           CCS      DECOUNT
000887: 05,2233           02211                           TC       MIXNN1
000888: 05,2234           02116                           TC       VERBFAN
000889:
000890: 05,2235           00111        MIXAD              TC       MIXTEMP
000891:
000892:
000893:
000894:                                                                                                  #  DPTEST   ENTER WITH SF ROUT NUMBER IN A.
000895:                                                                                                  #           RETURNS TO L+1 IF NO DP.
000896:                                                                                                  #           RETURNS TO L+2 IF DP.
000897:
000898: 05,2236           50000        DPTEST             INDEX    A
000899: 05,2237           12240                           TCF      +1
000900: 05,2240           00002                           TC       Q                                     #  OCTAL ONLY NO DP


000902: 05,2241           00002                           TC       Q                                     #  FRACT NO DP
000903: 05,2242           00002                           TC       Q                                     #  DEG  NO DP
000904: 05,2243           00002                           TC       Q                                     #  ARITH  NO DP
000905: 05,2244           12250                           TCF      DPTEST1                               #  DP1OUT
000906: 05,2245           12250                           TCF      DPTEST1                               #  DP2OUT
000907: 05,2246           00002                           TC       Q                                     #  OPDEG  NO DP
000908: 05,2247           12250                           TCF      DPTEST1                               #  DP3OUT
000909: 05,2250           50002        DPTEST1            INDEX    Q
000910: 05,2251           00001                           TC       1                                     #  RETURN TO L+2
000911:
000912:
000913:
000914: 05,2252           34444        REQDATX            CAF      R1D1
000915: 05,2253           12257                           TCF      REQCOM
000916: 05,2254           34445        REQDATY            CAF      R2D1
000917: 05,2255           12257                           TCF      REQCOM
000918: 05,2256           34446        REQDATZ            CAF      R3D1
000919: 05,2257           54637        REQCOM             TS       DSPCOUNT
000920: 05,2260           40002                           CS       Q
000921: 05,2261           54653                           TS       REQRET
000922: 05,2262           04063                           TC       BANKCALL
000923: 05,2263           10454                           CADR     5BLANK
000924: 05,2264           04543                           TC       FLASHON
000925: 05,2265           44417                           CS       ENDINST
000926: 05,2266           60122                           AD       ENTEXIT
000927: 05,2267           00006                           EXTEND
000928: 05,2270           12273                           BZF      ENDRQDAT                              #  ENTEXIT = ENDOFJOB. EXTERNALLY INITIATED
000929: 05,2271           47653                           CS       ZERO                                  #  ENTEXIT NOT ENDOFJOB. NVSUB INITIATED
000930: 05,2272           54676                           TS       CADRSTOR                              #  NVSUB INITIATED LOAD. SET CADRSTOR TO -0
000931: 05,2273           00122        ENDRQDAT           TC       ENTEXIT
000932:
000933:                                                                                                  #  IF NVSUB INITIATED LOAD, SET CADRSTOR TO -0 TO TELL RECALTST TO RELEASE
000934:                                                                                                  #  DISPLAY IF ENDIDLE WAS NOT USED. (NECESSARY FOR DATAWAIT)
000935:
000936:
000937:
000938: 05,2274           54642                           TS       NOUNREG
000939: 05,2275           56002        UPDATNN            XCH      Q
000940: 05,2276           54103                           TS       UPDATRET
000941: 05,2277           00006                           EXTEND
000942: 05,2300           32076                           DCA      LODNNLOC                              #  SWITCH BANKS TO NOUN TABLE READING
000943: 05,2301           52006                           DXCH     Z                                     #  ROUTINE.
000944: 05,2302           10132                           CCS      NNADTEM
000945: 05,2303           67646                           AD       ONE                                   #  NORMAL
000946: 05,2304           12307                           TCF      PUTADD
000947: 05,2305           12310                           TCF      PUTADD     +1                         #  MCTBS  DONT CHANGE NOUNADD
000948: 05,2306           12310                           TCF      PUTADD     +1                         #  MCTBI  DONT CHANGE NOUNADD
000949: 05,2307           04430        PUTADD             TC       SETNCADR                              #  ECADR INTO NOUNCADR. SETS EB, NOUNADD.
000950: 05,2310           34507                           CAF      ND1
000951: 05,2311           54637                           TS       DSPCOUNT


000953: 05,2312           30642                           CA       NOUNREG
000954: 05,2313           12322                           TCF      UPDAT1
000955:
000956: 05,2314           54641                           TS       VERBREG
000957: 05,2315           56002        UPDATVB            XCH      Q
000958: 05,2316           54103                           TS       UPDATRET
000959: 05,2317           34506                           CAF      VD1
000960: 05,2320           54637                           TS       DSPCOUNT
000961: 05,2321           30641                           CA       VERBREG
000962: 05,2322           03255        UPDAT1             TC       DSP2BIT
000963: 05,2323           00103                           TC       UPDATRET
000964:
000965:
000966:
000967: 05,2324           04102        GODSPALM           TC       POSTJUMP
000968: 05,2325           11255                           CADR     DSPALARM
000969:


000971:                                                                                                  #           NOUN   TABLES
000972:                                                                                                  #  NOUN CODE L/ 55, NORMAL CASE.  NOUN CODE G/E 55, MIXED NOUN CASE.
000973:                                                                                                  #  FOR NORMAL CASE, NNADTAB CONTAINS ONE       ECADR     FOR EACH NOUN.
000974:                                                                                                  #  +0 INDICATES NOUN NOT USED.   - ENTRY INDICATES MACHINE CADR(E OR F) TO
000975:                                                                                                  #  BE SPECIFIED. -1 INDICATES CHANNEL TO BE SPECIFIED. -0 INDICATES AUGMENT
000976:                                                                                                  #  OF LAST MACHINE CADR SUPPLIED.
000977:
000978:                                                                                                  #  FOR MIXED CASE, NNADTAB CONTAINS ONE INDIRECT ADDRESS(IDADDREL) IN LOW
000979:                                                                                                  #  10 BITS, AND THE COMPONENT CODE NUMBER IN THE HIGH 5 BITS.
000980:
000981:                                                                                                  #  NNTYPTAB IS A PACKED TABLE OF THE FORM MMMMMNNNNNPPPPP.
000982:
000983:                                                                                                  #  FOR THE NORMAL CASE, M-S ARE THE COMPONENT CODE NUMBER.
000984:                                                                                                  #                       N-S ARE THE SF ROUTINE CODE NUMBER.
000985:                                                                                                  #                       P-S ARE THE SF CONSTANT CODE NUMBER.
000986:
000987:                                                                                                  #  MIXED CASE,M-S ARE THE SF CONSTANT3 CODE NUMBER     3 COMPONENT CASE
000988:                                                                                                  #             N-S ARE THE SF CONSTANT2 CODE NUMBER
000989:                                                                                                  #             P-S ARE THE SF CONSTANT1 CODE NUMBER
000990:                                                                                                  #             N-S ARE THE SF CONSTANT2 CODE NUMBER     2 COMPONENT CASE
000991:                                                                                                  #             P-S ARE THE SF CONSTANT1 CODE NUMBER
000992:                                                                                                  #             P-S ARE THE SF CONSTANT1 CODE NUMBER      1 COMPONENT CASE
000993:
000994:                                                                                                  #  THERE IS ALSO AN INDIRECT ADDRESS TABLE(IDADDTAB) FOR MIXED CASE ONLY.
000995:                                                                                                  #  EACH ENTRY CONTAINS ONE ECADR.    IDADDREL IS THE RELATIVE ADDRESS OF
000996:                                                                                                  #  THE FIRST OF THESE ENTRIES.
000997:                                                                                                  #  THERE IS ONE ENTRY IN THIS TABLE FOR EACH COMPONENT OF A MIXED NOUN
000998:                                                                                                  #  THEY ARE LISTED IN ORDER OF ASCENDING K.
000999:
001000:                                                                                                  #  THERE IS ALSO A SCALE FACTOR ROUTINE NUMBER TABLE( RUTMXTAB ) FOR MIXED
001001:                                                                                                  #  CASE ONLY. THERE IS ONE ENTRY PER MIXED NOUN. THE FORM IS,
001002:                                                                                                  #        QQQQQRRRRRSSSSS
001003:                                                                                                  #  Q-S ARE THE SF ROUTINE 3 CODE NUMBER     3 COMPONENT CASE
001004:                                                                                                  #  R-S ARE THE SF ROUTINE 2 CODE NUMBER
001005:                                                                                                  #  S-S ARE THE SF ROUTINE 1 CODE NUMBER
001006:                                                                                                  #  R-S ARE THE SF ROUTINE 2 CODE NUMBER     2 COMPONENT CASE
001007:                                                                                                  #  S-S ARE THE SF ROUTINE 1 CODE NUMBER
001008:
001009:
001010:
001011:                                                                                                  #  IN OCTAL DISPLAY AND LOAD (OCT OR DEC) VERBS, EXCLUDE USE OF VERBS WHOSE
001012:                                                                                                  #  COMPONENT NUMBER IS GREATER THAN THE NUMBER OF COMPONENTS IN NOUN.
001013:                                                                                                  #  ALL MACHINE ADDRESS TO BE SPECIFIED NOUNS ARE 1 COMPONENT.
001014:                                                                                                  #  ONLY EXCEPTION IS NOUN 01 TO ALLOW OCTAL DISPLAYS AND LOADS OF
001015:                                                                                                  #  AN UNCONTOLLED NUMBER OF COMPONENTS.
001016:
001017:
001018:
001019:                                                                                                  #  IN MULTI-COMPONENT LOAD VERBS, NO MIXING OF OCTAL AND DECIMAL DATA
001020:                                                                                                  #  COMPONENT WORDS IS ALLOWED. ALARM IF VIOLATION.
001021:


001023:                                                                                                  #  IN DECIMAL LOADS OF DATA, 5 NUMERICAL CHARACTERS MUST BE KEYED IN
001024:                                                                                                  #  BEFORE EACH ENTER. IF NOT, ALARM.
001025:


001027:                                                                                                  #           DISPLAY VERBS
001028: 05,2326           47645        DSPABC             CS       TWO
001029: 05,2327           02376                           TC       COMPTEST
001030: 05,2330           50131                           INDEX    NOUNADD
001031: 05,2331           40002                           CS       2
001032: 05,2332           56116                           XCH      BUF        +2
001033: 05,2333           47646        DSPAB              CS       ONE
001034: 05,2334           02376                           TC       COMPTEST
001035: 05,2335           50131                           INDEX    NOUNADD
001036: 05,2336           40001                           CS       1
001037: 05,2337           56115                           XCH      BUF        +1
001038: 05,2340           02420        DSPA               TC       TSTFORDP
001039: 05,2341           50131                           INDEX    NOUNADD
001040: 05,2342           40000                           CS       0
001041: 05,2343           56114        DSPCOM1            XCH      BUF
001042: 05,2344           02357                           TC       DSPCOM2
001043: 05,2345           47646        DSPB               CS       ONE
001044: 05,2346           02376                           TC       COMPTEST
001045: 05,2347           50131                           INDEX    NOUNADD
001046: 05,2350           40001                           CS       1
001047: 05,2351           02343                           TC       DSPCOM1
001048: 05,2352           47645        DSPC               CS       TWO
001049: 05,2353           02376                           TC       COMPTEST
001050: 05,2354           50131                           INDEX    NOUNADD
001051: 05,2355           40002                           CS       2
001052: 05,2356           02343                           TC       DSPCOM1
001053: 05,2357           47645        DSPCOM2            CS       TWO                                   #  A  B  C  AB ABC
001054: 05,2360           60641                           AD       VERBREG                               #  -1 -0 +1 +2 +3   IN A
001055: 05,2361           10000                           CCS      A                                     #  +0 +0 +0 +1 +2    IN A AFTER CCS
001056: 05,2362           02365                           TC       DSPCOM3
001057: 05,2363           00122                           TC       ENTEXIT
001058: 05,2364           02365                           TC       +1
001059: 05,2365           54106        DSPCOM3            TS       DISTEM                                #  +0,+1,+2 INTO DISTEM
001060: 05,2366           50000                           INDEX    A
001061: 05,2367           34444                           CAF      R1D1
001062: 05,2370           54637                           TS       DSPCOUNT
001063: 05,2371           50106                           INDEX    DISTEM
001064: 05,2372           40114                           CS       BUF
001065: 05,2373           03222                           TC       DSPOCTWD
001066: 05,2374           56106                           XCH      DISTEM
001067: 05,2375           02361                           TC       DSPCOM2    +2
001068:
001069:                                                                                                  #  COMPTEST ALARMS IF COMPONENT NUMBER OF VERB(LOAD OR OCT DISPLAY) IS
001070:                                                                                                  #  GREATER THAN THE HIGHEST COMPONENT NUMBER OF NOUN.
001071:                                                                                                  #  NOUN 01 IS EXCLUDED FROM TEST.
001072: 05,2376           54107        COMPTEST           TS       SFTEMP1                               #  - VERB COMP
001073: 05,2377           22002                           LXCH     Q
001074: 05,2400           47646        COMPTST1           CS       ONE
001075: 05,2401           60642                           AD       NOUNREG
001076: 05,2402           00006                           EXTEND


001078: 05,2403           12417                           BZF      NDCMPTST                              #  NOUN = 01, ANY COMP OK
001079: 05,2404           50124                           INDEX    MIXBR                                 #  NOUN NOT = 01.
001080: 05,2405           32442                           CAF      COMPICK    -1
001081: 05,2406           50000                           INDEX    A
001082: 05,2407           30000                           CA       0
001083: 05,2410           74475                           MASK     HI5
001084: 05,2411           04456                           TC       LEFT5                                 #  NOUN COMP
001085: 05,2412           60107                           AD       SFTEMP1                               #  NOUN COMP - VERB COMP
001086: 05,2413           10000                           CCS      A
001087: 05,2414           00001                           TC       L                                     #  NOUN COMP G/ VERB COMP
001088: 05,2416                                           LOC      +1
001089: 05,2416           02324                           TC       GODSPALM                              #  NOUN COMP L/ VERB COMP
001090: 05,2417           00001        NDCMPTST           TC       L                                     #  NOUN COMP = VERB COMP
001091:
001092:
001093:
001094: 05,2420           22002        TSTFORDP           LXCH     Q                                     #  TEST FOR DP. IF SO, GET MINOR PART ONLY.
001095: 05,2421           30132                           CA       NNADTEM
001096: 05,2422           67646                           AD       ONE                                   #  IF NNADTEM = -1, CHANNEL TO BE SPECIFIED
001097: 05,2423           00006                           EXTEND
001098: 05,2424           12436                           BZF      CHANDSP
001099: 05,2425           50124                           INDEX    MIXBR
001100: 05,2426           02426                           TC       +0
001101: 05,2427           02431                           TC       +2                                    #  NORMAL
001102: 05,2430           00001                           TC       L                                     #  MIXED CASE ALREADY HANDLED IN MIXNOUN
001103: 05,2431           02713                           TC       SFRUTNOR
001104: 05,2432           02236                           TC       DPTEST
001105: 05,2433           00001                           TC       L                                     #  NO DP
001106: 05,2434           24131                           INCR     NOUNADD                               #  DP    E+1 INTO NOUNADD FOR MINOR PART.
001107: 05,2435           00001                           TC       L
001108:
001109:
001110:
001111: 05,2436           00006        CHANDSP            EXTEND
001112: 05,2437           50657                           INDEX    NOUNCADR
001113: 05,2440           00000                           READ     0
001114: 05,2441           40000                           CS       A
001115: 05,2442           12343                           TCF      DSPCOM1
001116:
001117:
001118:
001119: 05,2443           00133        COMPICK            ADRES    NNTYPTEM
001120: 05,2444           00132                           ADRES    NNADTEM
001121:
001122: 05,2445           50124        DECDSP             INDEX    MIXBR                                 #  NORMAL                MIXED
001123: 05,2446           32442                           CAF      COMPICK    -1                         #  ADRES NNTYPTEM        ADRES NNADTEM
001124: 05,2447           50000                           INDEX    A
001125: 05,2450           30000                           CA       0                                     #  C(NNTYPTEM)           C(NNADTEM)
001126: 05,2451           74475                           MASK     HI5                                   #  GET HI5 OF NNTYPTAB(NORM)OF NNADTAB(MIX)
001127: 05,2452           04456                           TC       LEFT5


001129: 05,2453           54103                           TS       DECOUNT                               #  COMP NUMBER INTO DECOUNT
001130: 05,2454           54106        DSPDCGET           TS       DECTEM                                #  PICKS UP DATA
001131: 05,2455           60131                           AD       NOUNADD                               #  DECTEM 1COMP +0, 2COMP +1, 3COMP +2
001132: 05,2456           50000                           INDEX    A
001133: 05,2457           40000                           CS       0
001134: 05,2460           50106                           INDEX    DECTEM
001135: 05,2461           56643                           XCH      XREG                                  #  CANT USE BUF SINCE DMP USES IT.
001136: 05,2462           10106                           CCS      DECTEM
001137: 05,2463           02454                           TC       DSPDCGET                              #  MORE TO GET
001138: 05,2464           37653        DSPDCPUT           CAF      ZERO                                  #  DISPLAYS DATA
001139: 05,2465           54141                           TS       MPAC       +1                         #  DECOUNT 1COMP +0, 2COMP +1, 3COMP +2
001140: 05,2466           54142                           TS       MPAC       +2
001141: 05,2467           50103                           INDEX    DECOUNT
001142: 05,2470           34444                           CAF      R1D1
001143: 05,2471           54637                           TS       DSPCOUNT
001144: 05,2472           50103                           INDEX    DECOUNT
001145: 05,2473           40643                           CS       XREG
001146: 05,2474           54140                           TS       MPAC
001147: 05,2475           02734                           TC       SFCONUM                               #  2X ( SF CON NUMB ) IN A
001148: 05,2476           54107                           TS       SFTEMP1
001149: 05,2477           00006                           EXTEND                                         #  SWITCH BANKS TO SF CONSTANT TABLE
001150: 05,2500           32512                           DCA      GTSFOUTL                              #     READING ROUTINE.
001151: 05,2501           52006                           DXCH     Z                                     #  LOADS SFTEMP1, SFTEMP2.
001152: 05,2502           50124                           INDEX    MIXBR
001153: 05,2503           02503                           TC       +0
001154: 05,2504           02507                           TC       DSPSFNOR
001155: 05,2505           02721                           TC       SFRUTMIX
001156: 05,2506           02522                           TC       DECDSP3
001157:
001158: 05,2507           02713        DSPSFNOR           TC       SFRUTNOR
001159: 05,2510           02522                           TC       DECDSP3
001160:
001161: 05,2511     0637                                  EBANK=   DSPCOUNT
001162: 05,2511           02037 14001  GTSFOUTL           2CADR    GTSFOUT
001163:
001164:
001165:
001166: 05,2513           04063        DSPDCEND           TC       BANKCALL                              #  ALL SFOUT ROUTINES END HERE
001167: 05,2514           11057                           CADR     DSPDECWD
001168: 05,2515           10103                           CCS      DECOUNT
001169: 05,2516           02520                           TC       +2
001170: 05,2517           00122                           TC       ENTEXIT
001171: 05,2520           54103                           TS       DECOUNT
001172: 05,2521           02464                           TC       DSPDCPUT                              #  MORE TO DISPLAY
001173:
001174:
001175:
001176: 05,2522           50000        DECDSP3            INDEX    A
001177: 05,2523           32525                           CAF      SFOUTABR
001178: 05,2524           04105                           TC       BANKJUMP
001179:


001181: 05,2525           11255        SFOUTABR           CADR     DSPALARM                              #  ALARM IF DEC DISP WITH OCTAL ONLY NOUN
001182: 05,2526           12513                           CADR     DSPDCEND
001183: 05,2527           10533                           CADR     DEGOUTSF
001184: 05,2530           10620                           CADR     ARTOUTSF
001185: 05,2531           10625                           CADR     DP1OUTSF
001186: 05,2532           10632                           CADR     DP2OUTSF
001187: 05,2533           10541                           CADR     OPDEGOUT
001188: 05,2534           10634                           CADR     DP3OUTSF
001189: 05,2535                        ENDRTOUT           EQUALS
001190:
001191:
001192:
001193:                                                                                                  #          THE FOLLOWING IS ATYPICAL SF ROUTINE . IT USES MPAC. LEAVES RESU
001194:                                                                                                  #  LTS IN MPAC, MPAC+1. ENDS WITH TC DSPDCEND
001195:
001196:
001197:
001198: 04,2533                                           SETLOC   BLANKCON   +1
001199:
001200:                                                                                                  #     DEGOUTSF SCALES BY .18 THE LOW 14 BITS OF ANGLE , ADDING .18 FOR
001201:                                                                                                  #  NUMBERS IN THE NEGATIVE (AGC) RANGE.
001202:
001203: 04,2533           37653        DEGOUTSF           CAF      ZERO
001204: 04,2534           54142                           TS       MPAC       +2                         #  SET INDEX FOR FULL SCALE
001205: 04,2535           02572                           TC       FIXRANGE
001206: 04,2536           02540                           TC       +2                                    #  NO AUGMENT NEEDED (SFTEMP1 AND 2 ARE 0)
001207: 04,2537           02565                           TC       SETAUG                                #  SET AUGMENTER ACCORDING TO C(MPAC +2)
001208: 04,2540           02603                           TC       DEGCOM
001209:
001210:                                                                                                  #  OPDEGOUT SCALES BY .45 (THE RANGE IS 90 DEGREES) AND ADDS A 20 DEG BIAS.
001211:
001212: 04,2541           10140        OPDEGOUT           CCS      MPAC                                  #  RANGE IS 90 DEG
001213: 04,2542           56140                           XCH      MPAC                                  #  IF POS OR POS 0 THEN ADD BIAS AND
001214: 04,2543           02546                           TC       +3                                    #  CORRECT FOR POSSIBLE OVERFLOW
001215: 04,2544           02555                           TC       NEGOPT                                #  IF NEG NON ZERO
001216: 04,2545           67655                           AD       NEG1                                  #  IF NEG ZERO SUBTRACT 1
001217: 04,2546           62617                           AD       20BIAS
001218: 04,2547           54140        BIASCOM            TS       MPAC                                  #  TEST FOR OVERFLOW
001219: 04,2550           02553                           TC       +3                                    #  NO OVFLOW
001220: 04,2551           37630                           CAF      BIT15                                 #  IF OVFLOW
001221: 04,2552           26140                           ADS      MPAC
001222: 04,2553           37645                           CAF      TWO                                   #  SET MULTIPLIER TO .45
001223: 04,2554           02534                           TC       DEGOUTSF   +1
001224:
001225: 04,2555           56140        NEGOPT             XCH      MPAC                                  #  NEGATIVE CASE
001226: 04,2556           62617                           AD       20BIAS
001227: 04,2557           10000                           CCS      A
001228: 04,2560           02547                           TC       BIASCOM                               #  IF POS THEN SUBTRACT 1 BECAUSE OF 2SCOM
001229: 04,2562                                           LOC      +1
001230: 04,2562           67646                           AD       ONE                                   #  IF NEG RESTORE SUM
001231:


001233: 04,2563           40000                           COM                                            #  IF NEG 0 LEAVE NEG 0
001234: 04,2564           02547                           TC       BIASCOM
001235:
001236: 04,2565           00006        SETAUG             EXTEND                                         #  LOADS SFTEMP1 AND SFTEMP2 WITH THE
001237: 04,2566           50142                           INDEX    MPAC       +2                         #  DP AUGMENTER CONSTANT
001238: 04,2567           32614                           DCA      DEGTAB
001239: 04,2570           52110                           DXCH     SFTEMP1
001240: 04,2571           00002                           TC       Q
001241:
001242: 04,2572           10140        FIXRANGE           CCS      MPAC                                  #  IF MPAC IS + RETURN TO L+1
001243: 04,2573           00002                           TC       Q                                     #  IF MPAC IS - RETURN TO L+2 AFTER
001244: 04,2574           00002                           TC       Q                                     #  MASKING OUT THE SIGN BIT
001245: 04,2575           12576                           TCF      +1
001246: 04,2576           47630                           CS       BIT15
001247: 04,2577           70140                           MASK     MPAC
001248: 04,2600           54140                           TS       MPAC
001249: 04,2601           50002                           INDEX    Q
001250: 04,2602           00001                           TC       1
001251:
001252: 04,2603           00006        DEGCOM             EXTEND                                         #  LOADS MULTIPLIER, DOES SHORTMP, AND
001253: 04,2604           50142                           INDEX    MPAC       +2                         #  ADDS AUGMENTER.
001254: 04,2605           32614                           DCA      DEGTAB
001255: 04,2606           52141                           DXCH     MPAC                                  #  ADJUSTED ANGLE IN A
001256: 04,2607           07257                           TC       SHORTMP
001257: 04,2610           52110                           DXCH     SFTEMP1
001258: 04,2611           20141                           DAS      MPAC
001259: 04,2612           02623                           TC       SCOUTEND
001260:
001261:
001262:
001263: 04,2613           05605        DEGTAB             OCT      05605                                 #  HI PART OF     .18
001264: 04,2614           03656                           OCT      03656                                 #  LOW PART OF    .18
001265: 04,2615           16314                           OCT      16314                                 #  HI PART OF     .45
001266: 04,2616           31463                           OCT      31463                                 #  LO PART OF     .45
001267:
001268: 04,2617           16040        20BIAS             OCT      16040                                 #  20 DEG BIAS FOR OPTICS
001269:
001270: 04,2620           52110        ARTOUTSF           DXCH     SFTEMP1                               #  ASSUMES POINT AT LEFT OF DP SFCON
001271: 04,2621           52141                           DXCH     MPAC
001272: 04,2622           07257                           TC       SHORTMP
001273: 04,2623           04102        SCOUTEND           TC       POSTJUMP
001274: 04,2624           12513                           CADR     DSPDCEND
001275:
001276: 04,2625           02637        DP1OUTSF           TC       DPOUT                                 #  SCALES MPAC, MPAC +1 BY DP SCALE FACTOR
001277: 04,2626           56142                           XCH      MPAC       +2                         #  IN SFTEMP1, SFTEMP2.  THEN SCALE RESULT
001278: 04,2627           56141                           XCH      MPAC       +1                         #  BY B14.
001279: 04,2630           54140                           TS       MPAC
001280: 04,2631           02623                           TC       SCOUTEND
001281:


001283: 04,2632           02637        DP2OUTSF           TC       DPOUT                                 #  SCALES MPAC, MPAC +1 BY DP SCALE FACTOR
001284: 04,2633           02623                           TC       SCOUTEND
001285:
001286:
001287:
001288: 04,2634           02637        DP3OUTSF           TC       DPOUT                                 #  ASSUMES POINT BETWEEN BITS 7-8 OF HIGH
001289: 04,2635           03032                           TC       TPLEFT7                               #  PART OF SFCON. SHIFTS RESULTS LEFT 7.
001290: 04,2636           02623                           TC       SCOUTEND
001291:
001292:
001293:
001294:                                                                                                  #  DPOUT PICKS UP FRESH DATA FOR BOTH HI AND LO COMPONENTS.
001295:                                                                                                  #  THIS IS NEEDED FOR TIME DISPLAY.
001296:
001297: 04,2637           56002        DPOUT              XCH      Q
001298: 04,2640           54105                           TS       OVFIND
001299: 04,2641           50124                           INDEX    MIXBR
001300: 04,2642           02642                           TC       +0
001301: 04,2643           02660                           TC       DPOUTNOR
001302: 04,2644           50103                           INDEX    DECOUNT                               #  GET IDADDTAB ENTRY FOR COMPONENT K
001303: 04,2645           30134                           CA       IDAD1TEM                              #      OF NOUN.
001304: 04,2646           74503                           MASK     LOW11                                 #  E SUBK
001305: 04,2647           04440                           TC       SETEBANK                              #  SET EB, LEAVE EADRES IN A.
001306: 04,2650           00006        DPOUTCOM           EXTEND
001307: 04,2651           50000                           INDEX    A                                     #  MIXED         NORMAL
001308: 04,2652           30001                           DCA      0                                     #  C(ESUBK)      C(E)
001309: 04,2653           52141                           DXCH     MPAC                                  #  C((E SUBK)+1)      C(E+1)
001310: 04,2654           07062                           TC       DMP
001311: 04,2655           00107                           ADRES    SFTEMP1
001312: 04,2656           07226                           TC       TPAGREE
001313: 04,2657           00105                           TC       OVFIND
001314:
001315: 04,2660           30131        DPOUTNOR           CA       NOUNADD                               #  E
001316: 04,2661           02650                           TC       DPOUTCOM
001317:
001318:
001319:
001320:                                                                                                  #  THIS IS A SPECIAL PURPOSE VERB FOR DISPLAYING A DOUBLE PRECISION AGC
001321:                                                                                                  #  WORD AS 10 DECIMAL DIGITS ON THE AGC DISPLAY PANEL.  IT CAN BE USED WITH
001322:                                                                                                  #  ANY NOUN, EXCEPT MIXED NOUNS. IT DISPLAYS THE CONTENTS
001323:                                                                                                  #  OF THE REGISTER NOUNADD IS POINTING TO .  IF USED WITH NOUNS WHICH ARE
001324:                                                                                                  #  INHERENTLY NOT DP SUCH AS THE CDU COUNTERS THE DISPLAY WILL BE GARBAGE.
001325:                                                                                                  #  DISPLAY IS IN R1 AND R2 ONLY WITH THE SIGN IN R1.
001326:
001327:
001328:
001329: 04,2662           50124        DSPDPDEC           INDEX    MIXBR
001330: 04,2663           02663                           TC       +0
001331: 04,2664           02666                           TC       +2                                    #  NORMAL NOUN
001332: 04,2665           03255                           TC       DSPALARM
001333:


001335: 04,2666           00006                           EXTEND
001336: 04,2667           50131                           INDEX    NOUNADD
001337: 04,2670           30001                           DCA      0
001338: 04,2671           52141                           DXCH     MPAC
001339: 04,2672           34444                           CAF      R1D1
001340: 04,2673           54637                           TS       DSPCOUNT
001341: 04,2674           37653                           CAF      ZERO
001342: 04,2675           54142                           TS       MPAC       +2
001343: 04,2676           07226                           TC       TPAGREE
001344: 04,2677           03133                           TC       DSP2DEC
001345: 04,2700           00122        ENDDPDEC           TC       ENTEXIT
001346:


001348:                                                                                                  #           LOAD   VERBS
001349:
001350:
001351:
001352: 05,2535                                           SETLOC   ENDRTOUT
001353:
001354: 05,2535           47645        ABCLOAD            CS       TWO
001355: 05,2536           02376                           TC       COMPTEST
001356: 05,2537           32673                           CAF      VBSP1LD
001357: 05,2540           02314                           TC       UPDATVB    -1
001358: 05,2541           02252                           TC       REQDATX
001359: 05,2542           32674                           CAF      VBSP2LD
001360: 05,2543           02314                           TC       UPDATVB    -1
001361: 05,2544           02254                           TC       REQDATY
001362: 05,2545           32675                           CAF      VBSP3LD
001363: 05,2546           02314                           TC       UPDATVB    -1
001364: 05,2547           02256                           TC       REQDATZ
001365:
001366:
001367:
001368: 05,2550           46162        PUTXYZ             CS       SIX                                   #  TEST THAT THE 3 DATA WORDS LOADED ARE
001369: 05,2551           02676                           TC       ALLDC/OC                              #  ALL DEC OR ALL OCT.
001370: 05,2552           00006                           EXTEND
001371: 05,2553           32076                           DCA      LODNNLOC                              #  SWITCH BANKS TO NOUN TABLE READING
001372: 05,2554           52006                           DXCH     Z                                     #  ROUTINE.
001373: 05,2555           37653                           CAF      ZERO                                  #  X COMP
001374: 05,2556           02762                           TC       PUTCOM
001375: 05,2557           50131                           INDEX    NOUNADD
001376: 05,2560           54000                           TS       0
001377: 05,2561           37646                           CAF      ONE                                   #  Y COMP
001378: 05,2562           02762                           TC       PUTCOM
001379: 05,2563           50131                           INDEX    NOUNADD
001380: 05,2564           54001                           TS       1
001381: 05,2565           37645                           CAF      TWO                                   #  Z COMP
001382: 05,2566           02762                           TC       PUTCOM
001383: 05,2567           50131                           INDEX    NOUNADD
001384: 05,2570           54002                           TS       2
001385: 05,2571           02663                           TC       LOADLV
001386:
001387: 05,2572           47646        ABLOAD             CS       ONE
001388: 05,2573           02376                           TC       COMPTEST
001389: 05,2574           32673                           CAF      VBSP1LD
001390: 05,2575           02314                           TC       UPDATVB    -1
001391: 05,2576           02252                           TC       REQDATX
001392: 05,2577           32674                           CAF      VBSP2LD
001393: 05,2600           02314                           TC       UPDATVB    -1
001394: 05,2601           02254                           TC       REQDATY
001395: 05,2602           47225        PUTXY              CS       FIVE                                  #  TEST THAT THE 2 DATA WORDS LOADED ARE
001396: 05,2603           02676                           TC       ALLDC/OC                              #  ALL DEC OR ALL OCT.
001397: 05,2604           00006                           EXTEND


001399: 05,2605           32076                           DCA      LODNNLOC                              #  SWITCH BANKS TO NOUN TABLE READING
001400: 05,2606           52006                           DXCH     Z                                     #  ROUTINE.
001401: 05,2607           37653                           CAF      ZERO                                  #  X COMP
001402: 05,2610           02762                           TC       PUTCOM
001403: 05,2611           50131                           INDEX    NOUNADD
001404: 05,2612           54000                           TS       0
001405: 05,2613           37646                           CAF      ONE                                   #  Y COMP
001406: 05,2614           02762                           TC       PUTCOM
001407: 05,2615           50131                           INDEX    NOUNADD
001408: 05,2616           54001                           TS       1
001409: 05,2617           02663                           TC       LOADLV
001410:
001411: 05,2620           02252        ALOAD              TC       REQDATX
001412: 05,2621           00006                           EXTEND
001413: 05,2622           32076                           DCA      LODNNLOC                              #  SWITCH BANKS TO NOUN TABLE READING
001414: 05,2623           52006                           DXCH     Z                                     #  ROUTINE.
001415: 05,2624           37653                           CAF      ZERO                                  #  X COMP
001416: 05,2625           02762                           TC       PUTCOM
001417: 05,2626           50131                           INDEX    NOUNADD
001418: 05,2627           54000                           TS       0
001419: 05,2630           02663                           TC       LOADLV
001420:
001421: 05,2631           47646        BLOAD              CS       ONE
001422: 05,2632           02376                           TC       COMPTEST
001423: 05,2633           37630                           CAF      BIT15                                 #  SET CLPASS FOR PASS0 ONLY
001424: 05,2634           54655                           TS       CLPASS
001425: 05,2635           02254                           TC       REQDATY
001426: 05,2636           00006                           EXTEND
001427: 05,2637           32076                           DCA      LODNNLOC                              #  SWITCH BANKS TO NOUN TABLE READING
001428: 05,2640           52006                           DXCH     Z                                     #  ROUTINE.
001429: 05,2641           37646                           CAF      ONE
001430: 05,2642           02762                           TC       PUTCOM
001431: 05,2643           50131                           INDEX    NOUNADD
001432: 05,2644           54001                           TS       1
001433: 05,2645           02663                           TC       LOADLV
001434:
001435: 05,2646           47645        CLOAD              CS       TWO
001436: 05,2647           02376                           TC       COMPTEST
001437: 05,2650           37630                           CAF      BIT15                                 #  SET CLPASS FOR PASS0 ONLY
001438: 05,2651           54655                           TS       CLPASS
001439: 05,2652           02256                           TC       REQDATZ
001440: 05,2653           00006                           EXTEND
001441: 05,2654           32076                           DCA      LODNNLOC                              #  SWITCH BANKS TO NOUN TABLE READING
001442: 05,2655           52006                           DXCH     Z                                     #  ROUTINE.
001443: 05,2656           37645                           CAF      TWO
001444: 05,2657           02762                           TC       PUTCOM
001445: 05,2660           50131                           INDEX    NOUNADD
001446: 05,2661           54002                           TS       2
001447: 05,2662           02663                           TC       LOADLV
001448:


001450: 05,2663           37653        LOADLV             CAF      ZERO
001451: 05,2664           54640                           TS       DECBRNCH
001452: 05,2665           47653                           CS       ZERO
001453: 05,2666           54654                           TS       LOADSTAT
001454: 05,2667           44506                           CS       VD1                                   #  TO BLOCK NUMERICAL CHARACTERS AND
001455: 05,2670           54637                           TS       DSPCOUNT                              #  CLEARS AFTER A COMPLETED LOAD
001456: 05,2671           04102                           TC       POSTJUMP                              #  AFTER COMPLETED LOAD, GO TO RECALTST
001457: 05,2672           11400                           CADR     RECALTST                              #  TO SEE IF THERE IS RECALL FROM ENDIDLE.
001458:
001459: 05,2673           00021        VBSP1LD            OCT      21                                    #  VB21 = ALOAD
001460: 05,2674           00022        VBSP2LD            OCT      22                                    #  VB22 = BLOAD
001461: 05,2675           00023        VBSP3LD            OCT      23                                    #  VB23 = CLOAD
001462:
001463:
001464:
001465: 05,2676           54103        ALLDC/OC           TS       DECOUNT                               #  TESTS THAT DATA WORDS LOADED ARE EITHER
001466: 05,2677           40640                           CS       DECBRNCH                              #  ALL DEC OR ALL OCT. ALARMS IF NOT.
001467: 05,2700           54021                           TS       SR
001468: 05,2701           40021                           CS       SR
001469: 05,2702           40021                           CS       SR                                    #  SHIFTED RIGHT 2
001470: 05,2703           10000                           CCS      A                                     #  DEC COMP BITS IN LOW 3
001471: 05,2704           12706                           TCF      +2                                    #  SOME ONES IN LOW 3
001472: 05,2705           00002                           TC       Q                                     #  ALL ZEROS. ALL OCTAL.  OK
001473: 05,2706           60103                           AD       DECOUNT                               #  DEC COMP = 7 FOR 3COMP, =6 FOR 2COMP
001474: 05,2707           00006                           EXTEND                                         #  (BUT IT HAS BEEN DECREMENTED BY CCS)
001475: 05,2710           12712                           BZF      +2                                    #  MUST MATCH 6 FOR 3COMP, 5 FOR 2COMP.
001476: 05,2711           02324                           TC       GODSPALM
001477: 05,2712           00002        GOQ                TC       Q                                     #  ALL REQUIRED ARE DEC. OK
001478:
001479:
001480:
001481: 05,2713           56002        SFRUTNOR           XCH      Q                                     #  GETS SF ROUTINE NUMBER FOR NORMAL CASE
001482: 05,2714           54100                           TS       EXITEM                                #  CANT USE L FOR RETURN. TSTFORDP USES L.
001483: 05,2715           34474                           CAF      MID5
001484: 05,2716           70133                           MASK     NNTYPTEM
001485: 05,2717           04447                           TC       RIGHT5
001486: 05,2720           00100                           TC       EXITEM                                #  SF ROUTINE NUMBER IN A
001487:
001488: 05,2721           56002        SFRUTMIX           XCH      Q                                     #  GETS SF ROUTINE NUMBER FOR MIXED CASE
001489: 05,2722           54100                           TS       EXITEM
001490: 05,2723           50103                           INDEX    DECOUNT
001491: 05,2724           32753                           CAF      DISPLACE                              #  PUT TC GOQ, TC RIGHT5, OR TC LEFT5 IN L
001492: 05,2725           54001                           TS       L
001493: 05,2726           50103                           INDEX    DECOUNT
001494: 05,2727           34473                           CAF      LOW5                                  #  LOW5, MID5, OR HI5 IN A
001495: 05,2730           70137                           MASK     RUTMXTEM                              #  GET HI5, MID5, OR LOW5 OF RUTMXTAB ENTRY
001496: 05,2731           50001                           INDEX    L
001497: 05,2732           00000                           TC       0
001498:                                                                                                  #  DO TC GOQ(DECOUNT=0), DO TC RIGHT5(DECOUNT=1), DO TC LEFT5(DECOUNT=2).
001499: 05,2733           00100        SFRET1             TC       EXITEM                                #  SF ROUTINE NUMBER IN A
001500:


001502: 05,2734           56002        SFCONUM            XCH      Q                                     #  GETS 2X( SF CONSTANT NUMBER)
001503: 05,2735           54100                           TS       EXITEM
001504: 05,2736           50124                           INDEX    MIXBR
001505: 05,2737           02737                           TC       +0
001506: 05,2740           02756                           TC       CONUMNOR                              #  NORMAL NOUN
001507: 05,2741           50103                           INDEX    DECOUNT                               #  MIXED NOUN
001508: 05,2742           32753                           CAF      DISPLACE
001509: 05,2743           54001                           TS       L                                     #  PUT TC GOQ, TC RIGHT5, OR TC LEFT5 IN L
001510: 05,2744           50103                           INDEX    DECOUNT
001511: 05,2745           34473                           CAF      LOW5
001512: 05,2746           70133                           MASK     NNTYPTEM
001513: 05,2747           50001                           INDEX    L
001514: 05,2750           00000                           TC       0
001515:                                                                                                  #  DO TC GOQ(DECOUNT=0), DO TC RIGHT5(DECOUNT=1), DO TC LEFT5(DECOUNT=2).
001516: 05,2751           60000        SFRET              DOUBLE                                         #  2X(SF CONSTANT NUMBER ) IN A
001517: 05,2752           00100                           TC       EXITEM
001518:
001519: 05,2753           02712        DISPLACE           TC       GOQ
001520: 05,2754           04447                           TC       RIGHT5
001521: 05,2755           04456                           TC       LEFT5
001522:
001523: 05,2756           34473        CONUMNOR           CAF      LOW5                                  #  NORMAL NOUN ALWAYS GETS LOW 5 OF
001524: 05,2757           70133                           MASK     NNTYPTEM                              #  NNTYPTAB FOR SF CONUM.
001525: 05,2760           60000                           DOUBLE
001526: 05,2761           00100                           TC       EXITEM                                #  2X( SF CONSTANT NUMBER) IN A
001527:
001528:
001529:
001530: 05,2762           54103        PUTCOM             TS       DECOUNT
001531: 05,2763           56002                           XCH      Q
001532: 05,2764           54101                           TS       DECRET
001533: 05,2765           37653                           CAF      ZERO
001534: 05,2766           54105                           TS       OVFIND
001535: 05,2767           50103                           INDEX    DECOUNT
001536: 05,2770           56646                           XCH      XREGLP
001537: 05,2771           54141                           TS       MPAC       +1
001538: 05,2772           50103                           INDEX    DECOUNT
001539: 05,2773           56643                           XCH      XREG
001540: 05,2774           54140                           TS       MPAC
001541: 05,2775           50124                           INDEX    MIXBR
001542: 05,2776           02776                           TC       +0
001543: 05,2777           03023                           TC       PUTNORM                               #  NORMAL NOUN
001544:                                                                                                  #  IF MIXNOUN, PLACE ADDRESS FOR COMPONENT K INTO NOUNADD, SET EBANK BITS.
001545: 05,3000           50103                           INDEX    DECOUNT                               #  GET IDADDTAB ENTRY FOR COMPONENT K
001546: 05,3001           30134                           CA       IDAD1TEM                              #          OF NOUN.
001547: 05,3002           74503                           MASK     LOW11                                 #  (ECADR)SUBK FOR CURRENT COMP OF NOUN
001548: 05,3003           04430                           TC       SETNCADR                              #  ECADR INTO NOUNCADR. SETS EB, NOUNADD.
001549: 05,3004           00006                           EXTEND                                         #  C(NOUNADD) IN A UPON RETURN
001550: 05,3005           60103                           SU       DECOUNT                               #  PLACE (ESUBK)-K INTO NOUNADD
001551: 05,3006           54131                           TS       NOUNADD
001552:


001554: 05,3007           10640                           CCS      DECBRNCH
001555: 05,3010           03051                           TC       PUTDECSF                              #  +  DEC
001556: 05,3011           02721                           TC       SFRUTMIX                              #  +0  OCTAL
001557: 05,3012           02236                           TC       DPTEST
001558: 05,3013           03040                           TC       PUTCOM2                               #  NO DP
001559:                                                                                                  #  TEST FOR DP SCALE FOR OCT LOAD. IF SO,
001560:                                                                                                  #  +0 INTO MAJOR PART. SET NOUNADD FOR
001561:                                                                                                  #  LOADING OCTAL WORD INTO MINOR PART.
001562: 05,3014           24131        PUTDPCOM           INCR     NOUNADD                               #  DP  (ESUBK)-K+1  OR  E+1
001563: 05,3015           30131                           CA       NOUNADD                               #  NOUNADD NOW SET FOR MINOR PART
001564: 05,3016           26103                           ADS      DECOUNT                               #  (ESUBK)+1  OR  E+1  INTO DECOUNT
001565: 05,3017           37653                           CAF      ZERO                                  #  NOUNADD SET FOR MINOR PART
001566: 05,3020           50103                           INDEX    DECOUNT
001567: 05,3021           53777                           TS       0          -1                         #  ZERO MAJOR PART(ESUBK OR E)
001568: 05,3022           03040                           TC       PUTCOM2
001569:
001570: 05,3023           04436        PUTNORM            TC       SETNADD                               #  ECADR FROM NOUNCADR. SETS EB, NOUNADD.
001571: 05,3024           10640                           CCS      DECBRNCH
001572: 05,3025           03051                           TC       PUTDECSF                              #  +  DEC
001573: 05,3026           02713                           TC       SFRUTNOR                              #  +0  OCTAL
001574: 05,3027           02236                           TC       DPTEST
001575: 05,3030           03034                           TC       PUTCOM2    -4                         #  NO DP
001576: 05,3031           37653                           CAF      ZERO                                  #  DP
001577: 05,3032           54103                           TS       DECOUNT
001578: 05,3033           03014                           TC       PUTDPCOM
001579:
001580: 05,3034           30132                           CA       NNADTEM
001581: 05,3035           67646                           AD       ONE                                   #  IF NNADTEM = -1, CHANNEL TO BE SPECIFIED
001582: 05,3036           00006                           EXTEND
001583: 05,3037           13044                           BZF      CHANLOAD
001584: 05,3040           56140        PUTCOM2            XCH      MPAC
001585: 05,3041           00101                           TC       DECRET
001586:
001587: 05,3042     0637                                  EBANK=   DSPCOUNT
001588: 05,3042           02045 14001  GTSFINLC           2CADR    GTSFIN
001589:
001590:
001591: 05,3044           56140        CHANLOAD           XCH      MPAC
001592: 05,3045           00006                           EXTEND
001593: 05,3046           50657                           INDEX    NOUNCADR
001594: 05,3047           01000                           WRITE    0
001595: 05,3050           02663                           TC       LOADLV
001596:
001597:
001598:
001599:                                                                                                  #  PUTDECSF FINDS MIXBR AND DECOUNT STILL SET FROM PUTCOM
001600:
001601: 05,3051           02734        PUTDECSF           TC       SFCONUM                               #  2X(SF CON NUMB) IN A
001602: 05,3052           54107                           TS       SFTEMP1
001603:


001605: 05,3053           00006                           EXTEND                                         #  SWITCH BANKS TO SF CONSTANT TABLE
001606: 05,3054           33043                           DCA      GTSFINLC                              #  READING ROUTINE.
001607: 05,3055           52006                           DXCH     Z                                     #  LOADS SFTEMP1, SFTEMP2.
001608: 05,3056           50124                           INDEX    MIXBR
001609: 05,3057           03057                           TC       +0
001610: 05,3060           03063                           TC       PUTSFNOR
001611: 05,3061           02721                           TC       SFRUTMIX
001612: 05,3062           03064                           TC       PUTDCSF2
001613: 05,3063           02713        PUTSFNOR           TC       SFRUTNOR
001614:
001615: 05,3064           50000        PUTDCSF2           INDEX    A
001616: 05,3065           33067                           CAF      SFINTABR
001617: 05,3066           04105                           TC       BANKJUMP                              #  SWITCH BANKS FOR EXPANSHION ROOM
001618: 05,3067           11255        SFINTABR           CADR     DSPALARM                              #  ALARM IF DEC LOAD WITH OCTAL ONLY NOUN
001619: 05,3070           10761                           CADR     BINROUND
001620: 05,3071           10701                           CADR     DEGINSF
001621: 05,3072           10751                           CADR     ARTHINSF
001622: 05,3073           11001                           CADR     DPINSF
001623: 05,3074           11026                           CADR     DPINSF2
001624: 05,3075           10764                           CADR     OPTDEGIN
001625: 05,3076           11001                           CADR     DPINSF                                #  SAME AS ARITHDP1
001626: 05,3077                        ENDRUTIN           EQUALS
001627:
001628:
001629:
001630:                                                                                                  #  SCALE FACTORS FOR THOSE ROUTINES NEEDING THEM ARE AVAILABLE IN SFTEMP1.
001631:                                                                                                  #  ALL SFIN ROUTINES USE MPAC MPAC+1. LEAVE RESULT IN A. END WITH TC DECRET
001632:
001633:
001634:
001635: 04,2701                                           SETLOC   ENDDPDEC   +1
001636:
001637:                                                                                                  #  DEGINSF APPLIES 1000/180 =5.55555(10) = 5.43434(8)
001638:
001639: 04,2701           07062        DEGINSF            TC       DMP                                   #  SF ROUTINE FOR DEC DEGREES
001640: 04,2702           02744                           ADRES    DEGCON1                               #  MULT BY 5.5 5(10)X2EXP-3
001641: 04,2703           10141                           CCS      MPAC       +1                         #  THIS ROUNDS OFF MPAC+1 BEFORE SHIFT
001642: 04,2704           37634                           CAF      BIT11                                 #  LEFT 3, AND CAUSES 360.00 TO OF/UF
001643: 04,2705           02707                           TC       +2                                    #  WHEN SHIFTED LEFT AND ALARM.
001644: 04,2706           47634                           CS       BIT11
001645: 04,2707           60141                           AD       MPAC       +1
001646: 04,2710           03044                           TC       2ROUND     +2
001647: 04,2711           04532                           TC       TPSL1                                 #  LEFT 1
001648: 04,2712           04532        DEGINSF2           TC       TPSL1                                 #  LEFT 2
001649: 04,2713           03053                           TC       TESTOFUF
001650: 04,2714           04532                           TC       TPSL1                                 #  RETURNS IF NO OF/UF (LEFT3)
001651: 04,2715           10140                           CCS      MPAC
001652: 04,2716           02722                           TC       SIGNFIX                               #  IF+, GO TO SIGNFIX
001653: 04,2717           02722                           TC       SIGNFIX                               #  IF +0, GO TO SIGNFIX
001654: 04,2720           40000                           COM                                            #  IF - , USE -MAGNITUDE +1


001656: 04,2721           54140                           TS       MPAC                                  #  IF -0, USE +0
001657: 04,2722           10105        SIGNFIX            CCS      OVFIND
001658: 04,2723           02740                           TC       SGNTO1                                #  IF OVERFLOW
001659: 04,2724           02734                           TC       ENDSCALE                              #  NO OVERFLOW/UNDERFLOW
001660: 04,2725           10140                           CCS      MPAC                                  #  IF UF FORCE SIGN TO 0 EXCEPT -180
001661: 04,2727                                           LOC      +1
001662: 04,2727           02736                           TC       NEG180
001663: 04,2730           02731                           TC       +1
001664: 04,2731           56140                           XCH      MPAC
001665: 04,2732           77626                           MASK     POSMAX
001666: 04,2733           54140                           TS       MPAC
001667: 04,2734           04102        ENDSCALE           TC       POSTJUMP
001668: 04,2735           13040                           CADR     PUTCOM2
001669:
001670: 04,2736           47626        NEG180             CS       POSMAX
001671: 04,2737           02733                           TC       ENDSCALE   -1
001672:
001673: 04,2740           40140        SGNTO1             CS       MPAC                                  #  IF OF FORCE SIGN TO 1
001674: 04,2741           77626                           MASK     POSMAX
001675: 04,2742           40000                           CS       A
001676: 04,2743           02733                           TC       ENDSCALE   -1
001677:
001678: 04,2744           26161 30707  DEGCON1            2DEC     5.555555555 B-3
001679:
001680: 04,2746           21616 07071  DEGCON2            2DEC     2.222222222 B-2
001681:
001682: 04,2750           71527        NEG.2              OCT      -06250                                #  = .197753906  I.E. THE BIAS SCALED
001683:
001684: 04,2751           07062        ARTHINSF           TC       DMP                                   #  SCALES MPAC, +1 BY SFTEMP1, SFTEMP2.
001685: 04,2752           00107                           ADRES    SFTEMP1                               #  ASSUMES POINT BETWEEN HI AND LO PARTS
001686: 04,2753           56142                           XCH      MPAC       +2                         #  OF SFCON. SHIFTS RESULTS LEFT BY 14.
001687: 04,2754           56141                           XCH      MPAC       +1                         #  (BY TAKING RESULTS FROM MPAC+1, MPAC+2)
001688: 04,2755           56140                           XCH      MPAC
001689: 04,2756           00006                           EXTEND
001690: 04,2757           12761                           BZF      BINROUND
001691: 04,2760           03255                           TC       DSPALARM                              #  TOO LARGE A LOAD
001692: 04,2761           03042        BINROUND           TC       2ROUND
001693: 04,2762           03053                           TC       TESTOFUF
001694: 04,2763           02734                           TC       ENDSCALE                              #  RETURNS IF NO OF/UF
001695:
001696:
001697:
001698: 04,2764           10140        OPTDEGIN           CCS      MPAC                                  #  OPTICS SCALING ROUTINE
001699: 04,2765           02771                           TC       +4
001700: 04,2766           02771                           TC       +3
001701: 04,2767           03255                           TC       DSPALARM                              #  REJECT NEGATIVE INPUT
001702: 04,2770           03255                           TC       DSPALARM                              #          DITTO
001703: 04,2771           32750        OPDEGIN2           CAF      NEG.2                                 #  RANGE IS 90 DEG
001704: 04,2772           26140                           ADS      MPAC                                  #  SUBTRACT BIAS
001705: 04,2773           07062                           TC       DMP                                   #  MULT BY 100 / 45  B-2


001707: 04,2774           02746                           ADRES    DEGCON2
001708: 04,2775           37633                           CAF      BIT12                                 #  ROUND AS IN DEGINSF
001709: 04,2776           60141                           AD       MPAC       +1
001710: 04,2777           03044                           TC       2ROUND     +2
001711: 04,3000           02712                           TC       DEGINSF2
001712:
001713: 04,3001           07062        DPINSF             TC       DMP                                   #  SCALES MPAC, MPAC +1 BY SFTEMP1,
001714: 04,3002           00107                           ADRES    SFTEMP1                               #  SFTEMP2.  STORES LOW PART OF RESULT
001715: 04,3003           56142                           XCH      MPAC       +2                         #  IN (E SUBK) +1 OR E+1
001716: 04,3004           60000                           DOUBLE
001717: 04,3005           54142                           TS       MPAC       +2
001718: 04,3006           37653                           CAF      ZERO
001719: 04,3007           60141                           AD       MPAC       +1
001720: 04,3010           03044                           TC       2ROUND     +2
001721: 04,3011           03053                           TC       TESTOFUF
001722: 04,3012           50124                           INDEX    MIXBR                                 #  RETURNS IF NO OF/UF
001723: 04,3013           03013                           TC       +0
001724: 04,3014           03024                           TC       DPINORM
001725: 04,3015           30103                           CA       DECOUNT                               #  MIXEDNOUN
001726: 04,3016           60131        DPINCOM            AD       NOUNADD                               #      MIXED                NORMAL
001727: 04,3017           54002                           TS       Q                                     #    E SUBK             E
001728: 04,3020           56141                           XCH      MPAC       +1
001729: 04,3021           50002                           INDEX    Q
001730: 04,3022           54001                           TS       1                                     #  PLACE LOW PART IN
001731: 04,3023           02734                           TC       ENDSCALE                              #  (E SUBK) +1    MIXED
001732: 04,3024           37653        DPINORM            CAF      ZERO                                  #  E +1         NORMAL
001733: 04,3025           03016                           TC       DPINCOM
001734:
001735:
001736:
001737: 04,3026           07062        DPINSF2            TC       DMP                                   #  ASSUMES POINT BETWEEN BITS 7-8 OF HIGH
001738: 04,3027           00107                           ADRES    SFTEMP1                               #  PART OF SF CONST. DPINSF2 SHIFTS RESULTS
001739: 04,3030           03032                           TC       TPLEFT7                               #  LEFT BY 7, ROUNDS MPAC+2 INTO MPAC+1.
001740: 04,3031           03003                           TC       DPINSF     +2
001741:
001742:
001743:
001744: 04,3032           56002        TPLEFT7            XCH      Q                                     #  OPERATES ON MPAC, MPAC+1, MPAC+2
001745: 04,3033           54110                           TS       SFTEMP2                               #  CANT USE L FOR RETURN. TPSL1 USES L.
001746: 04,3034           36162                           CAF      SIX                                   #  LEFT BY 7
001747: 04,3035           54107        LEFT7COM           TS       SFTEMP1
001748: 04,3036           04532                           TC       TPSL1
001749: 04,3037           10107                           CCS      SFTEMP1
001750: 04,3040           03035                           TC       LEFT7COM
001751: 04,3041           00110                           TC       SFTEMP2
001752:
001753:
001754:
001755: 04,3042           56141        2ROUND             XCH      MPAC       +1
001756: 04,3043           60000                           DOUBLE


001758: 04,3044           54141                           TS       MPAC       +1
001759: 04,3045           00002                           TC       Q                                     #  IF MPAC+1 DOES NOT OF/UF
001760: 04,3046           60140                           AD       MPAC
001761: 04,3047           54140                           TS       MPAC
001762: 04,3050           00002                           TC       Q                                     #  IF MPAC DOES NOT OF/UF
001763: 04,3051           54105                           TS       OVFIND
001764: 04,3052           00002        2RNDEND            TC       Q
001765:
001766:
001767:
001768: 04,3053           10105        TESTOFUF           CCS      OVFIND                                #  RETURNS IF NO OF/UF
001769: 04,3054           03255                           TC       DSPALARM                              #  OF
001770: 04,3055           00002                           TC       Q
001771: 04,3056           03255                           TC       DSPALARM                              #  UF
001772:


001774:                                                                                                  #  MONITOR ALLOWS OTHER KEYBOARD ACTIVITY. IT IS ENDED BY VERB TERMINATE,
001775:                                                                                                  #  ANY NVSUB CALL THAT PASSES THE DSPLOCK, OR ANOTHER MONITOR.
001776:
001777:                                                                                                  #  MONITOR ACTION IS SUSPENDED, BUT NOT ENDED, BY ANY KEYBOARD ACTION,
001778:                                                                                                  #  EXCEPT ERROR LIGHT RESET. IT BEGINS AGAIN WHEN KEY RELEASE IS PERFORMED.
001779:                                                                                                  #  MONITOR SAVES THE NOUN AND APPROPRIATE DISPLAY VERB IN MONSAVE. IT SAVES
001780:                                                                                                  #  NOUNCADR IN MONSAVE1, IF NOUN = MACHINE CADR TO BE SPECIFIED. BIT 15 OF
001781:                                                                                                  #  MONSAVE1 IS THE KILL MONITOR SIGNAL (KILLER BIT).
001782:
001783:                                                                                                  #  MONSAVE INDICATES IF MONITOR IS ON (+=ON, +0=OFF)
001784:                                                                                                  #  IF MONSAVE IS +, MONITOR ENTERS NO REQUEST, BUT TURNS KILLER BIT OFF.
001785:                                                                                                  #  IF MONSAVE IS +0, MONITOR ENTERS REQUEST AND TURNS KILLER BIT OFF.
001786:
001787:                                                                                                  #  NVSUB AND VB=TERMINATE TURN KILL MONITOR BIT ON.
001788:
001789:                                                                                                  #  IF KILLER BIT IS ON, MONREQ ENTERS NO FURTHER REQUESTS, ZEROS MONSAVE
001790:                                                                                                  #  AND MONSAVE1 (TURNING OFF KILLER BIT).
001791:
001792:
001793:
001794:                                                                                                  #  MONITOR DOSENT TEST FOR MATBS SINCE NVSUB CAN HANDLE INTERNAL MATBS NOW
001795: 05,3077                                           SETLOC   ENDRUTIN
001796:
001797: 05,3077           47630        MONITOR            CS       BIT15
001798: 05,3100           70657                           MASK     NOUNCADR
001799: 05,3101           54141        MONIT1             TS       MPAC       +1                         #  TEMP STORAGE
001800: 05,3102           33401                           CAF      LOW6
001801: 05,3103           70641                           MASK     VERBREG
001802: 05,3104           04456                           TC       LEFT5
001803: 05,3105           54022                           TS       CYL
001804: 05,3106           56022                           XCH      CYL
001805: 05,3107           60642                           AD       NOUNREG
001806: 05,3110           54140                           TS       MPAC                                  #  TEMP STORAGE
001807: 05,3111           40677                           CS       GRABLOCK                              #  NEITHER CASE SEARCHES LIST.
001808: 05,3112           67645                           AD       TWO
001809: 05,3113           10000                           CCS      A
001810: 05,3114           04633                           TC       RELDSP1                               #  GRABLOCK=0,1, +0 INTO DSPLOCK AND
001811: 05,3115           03121                           TC       +4                                    #  TURN OFF KEY RLSE LIGHT.
001812: 05,3117                                           LOC      +1
001813: 05,3117           37653                           CAF      ZERO                                  #  GRABLOCK=2, +0 INTO DSPLOCK AND
001814: 05,3120           54652                           TS       DSPLOCK                               #  LEAVE KEY RLSE LIGHT ALONE
001815: 05,3121           00004                           INHINT
001816: 05,3122           10660                           CCS      MONSAVE
001817: 05,3123           03130                           TC       +5                                    #  IF MONSAVE WAS +, NO REQUEST
001818: 05,3124           37646                           CAF      ONE                                   #  IF MONSAVE WAS 0, REQUEST MONREQ
001819: 05,3125           04251                           TC       WAITLIST
001820: 05,3126     0637                                  EBANK=   DSPCOUNT
001821: 05,3126           03134 12001                     2CADR    MONREQ
001822:
001823: 05,3130           52141                           DXCH     MPAC                                  #  PLACE MONITOR VERB AND NOUN INTO MONSAVE


001825: 05,3131           52661                           DXCH     MONSAVE                               #  ZERO THE KILL MONITOR BIT
001826: 05,3132           00003                           RELINT
001827: 05,3133           00122                           TC       ENTRET
001828:
001829:
001830:
001831: 05,3134           04526        MONREQ             TC       LODSAMPT                              #  CALLED BY WAITLIST
001832: 05,3135           10661                           CCS      MONSAVE1                              #  TIME IS SNATCHED IN RUPT FOR NOUN 65
001833: 05,3136           03142                           TC       +4                                    #  IF KILLER BIT = 0, ENTER REQUESTS
001834: 05,3137           03142                           TC       +3                                    #  IF KILLER BIT = 0, ENTER REQUESTS
001835: 05,3140           03153                           TC       KILLMON                               #  IF KILLER BIT = 1, NO REQUESTS
001836: 05,3141           03153                           TC       KILLMON                               #  IF KILLER BIT = 1, NO REQUESTS
001837: 05,3142           33157                           CAF      MONDEL
001838: 05,3143           04251                           TC       WAITLIST                              #  ENTER WAITLIST REQUEST FOR MONREQ
001839: 05,3144     0637                                  EBANK=   DSPCOUNT
001840: 05,3144           03134 12001                     2CADR    MONREQ
001841:
001842: 05,3146           34502                           CAF      CHRPRIO
001843: 05,3147           04131                           TC       NOVAC                                 #  ENTER EXEC REQUEST FOR MONDO
001844: 05,3150     0637                                  EBANK=   DSPCOUNT
001845: 05,3150           03160 12001                     2CADR    MONDO
001846:
001847: 05,3152           04321                           TC       TASKOVER
001848:
001849: 05,3153           37653        KILLMON            CAF      ZERO                                  #  ZERO MONSAVE AND TURN KILLER BIT OFF
001850: 05,3154           54660                           TS       MONSAVE
001851: 05,3155           54661                           TS       MONSAVE1                              #  TURN OFF KILL MONITOR BIT.
001852: 05,3156           04321                           TC       TASKOVER
001853:
001854:
001855:
001856: 05,3157           00144        MONDEL             OCT      144                                   #  FOR 1 SEC MONITOR INTERVALS
001857:
001858:
001859:
001860: 05,3160           10661        MONDO              CCS      MONSAVE1                              #  CALLED BY EXEC
001861: 05,3161           03165                           TC       +4                                    #  IF KILLER BIT = 0, CONTINUE
001862: 05,3162           03165                           TC       +3                                    #  IF KILLER BIT = 0, CONTINUE
001863: 05,3163           04205                           TC       ENDOFJOB                              #  IN CASE TERMINATE CAME SINCE LAST MONREQ
001864: 05,3164           04205                           TC       ENDOFJOB                              #  IN CASE TERMINATE CAME SINCE LAST MONREQ
001865: 05,3165           10652                           CCS      DSPLOCK
001866: 05,3166           03212                           TC       MONBUSY                               #  NVSUB IS BUSY
001867: 05,3167           33401                           CAF      LOW6                                  #  NVSUB IS AVAILABLE
001868: 05,3170           70660                           MASK     MONSAVE
001869: 05,3171           54107                           TS       NVTEMP
001870: 05,3172           04372                           TC       NVSUBMON                              #  PLACE NOUN INTO NOUNREG AND DISPLAY IT
001871: 05,3173           04205                           TC       ENDOFJOB                              #  IN CASE OF ALARM DURING DISPLAY
001872: 05,3174           33210                           CAF      MONMASK
001873: 05,3175           70660                           MASK     MONSAVE                               #  CHANGE MONITOR VERB TO DISPLAY VERB
001874: 05,3176           04447                           TC       RIGHT5


001876: 05,3177           54020                           TS       CYR
001877: 05,3200           56020                           XCH      CYR
001878: 05,3201           54641                           TS       VERBREG
001879: 05,3202           33211                           CAF      MONBACK                               #  SET RETURN TO PASTEVB AFTER DATA DISPLAY
001880: 05,3203           54122                           TS       ENTRET
001881: 05,3204           47630                           CS       BIT15
001882: 05,3205           70661                           MASK     MONSAVE1                              #  PUT ECADR INTO MPAC +2. INTMCTBS WILL
001883: 05,3206           54142                           TS       MPAC       +2                         #  DISPLAY IT AND SET NOUNCADR, NOUNADD,
001884: 05,3207           02037        ENDMONDO           TC       TESTNN                                #  EBANK.
001885:
001886:    4347                                           SETLOC   ENDT4FF
001887:
001888:    4347           34355        PASTEVB            CAF      MIDSIX
001889:    4350           70660                           MASK     MONSAVE
001890:    4351           54107                           TS       NVTEMP                                #  PLACE MONITOR VERB INTO VERBREG AND
001891:    4352           04372                           TC       NVSUBMON                              #       DISPLAY IT.
001892:    4353           04354                           TC       +1                                    #  IN CASE OF ALARM DURING DISPLAY
001893:    4354           04205        ENDPASTE           TC       ENDOFJOB
001894:
001895:    4355           07700        MIDSIX             OCT      07700
001896:
001897:
001898:
001899: 05,3210                                           SETLOC   ENDMONDO   +1
001900: 05,3210           00700        MONMASK            OCT      700
001901: 05,3211           04347        MONBACK            ADRES    PASTEVB
001902:
001903: 05,3212           04522        MONBUSY            TC       RELDSPON                              #  TURN KEY RELEASE LIGHT
001904: 05,3213           04205                           TC       ENDOFJOB
001905:
001906:
001907:
001908:                                                                                                  #  DSPFMEM IS USED TO DISPLAY (IN OCTAL) ANY FIXED REGISTER.
001909:                                                                                                  #  IT IS USED WITH NOUN = MACHINE CADR TO BE SPECIFIED. THE FCADR OF THE
001910:                                                                                                  #  DESIRED LOCATION IS THEN PUNCHED IN. IT HANDLES F/F ( FCADR 4000-7777)
001911:
001912: 05,3214           34444        DSPFMEM            CAF      R1D1                                  #  IF F/F, DATACALL USES BANK 02 OR 03.
001913: 05,3215           54637                           TS       DSPCOUNT
001914: 05,3216           30657                           CA       NOUNCADR                              #  ORIGINAL FCADR LOADED STILL IN NOUNCADR.
001915: 05,3217           04116                           TC       DATACALL
001916: 05,3220           03222                           TC       DSPOCTWD
001917: 05,3221           04205        ENDSPF             TC       ENDOFJOB
001918:


001920:                                                                                                  #   DSPDECWD CONVERTS C(MPAC) AND C(MPAC+1)TO A SIGN AND 5 CHAR DECIMAL
001921:                                                                                                  #  STARTING IN LOC SPECIFIED IN DSPCOUNT
001922:
001923: 04,3057                                           SETLOC   TESTOFUF   +4
001924:
001925: 04,3057           56002        DSPDECWD           XCH      Q                                     #  USES SHORTMP THROUGHOUT
001926: 04,3060           54101                           TS       WDRET                                 #  CANT USE L FOR RETURN.+ON USES L.
001927: 04,3061           10140                           CCS      MPAC
001928: 04,3062           03071                           TC       +7
001929: 04,3063           03071                           TC       +6
001930: 04,3064           67646                           AD       ONE
001931: 04,3065           54140                           TS       MPAC
001932: 04,3066           02313                           TC       -ON
001933: 04,3067           40141                           CS       MPAC       +1
001934: 04,3070           03073                           TC       +3
001935: 04,3071           02273                           TC       +ON
001936: 04,3072           56141                           XCH      MPAC       +1
001937: 04,3073           63132                           AD       DECROUND
001938: 04,3074           54141                           TS       MPAC       +1
001939: 04,3075           37653                           CAF      ZERO
001940: 04,3076           60140                           AD       MPAC
001941: 04,3077           54140                           TS       MPAC
001942: 04,3100           03104                           TC       +4
001943: 04,3101           37626                           CAF      POSMAX
001944: 04,3102           54140                           TS       MPAC
001945: 04,3103           54141                           TS       MPAC       +1
001946: 04,3104           37644                           CAF      FOUR
001947: 04,3105           54123        DSPDCWD1           TS       WDCNT
001948: 04,3106           34511                           CAF      BINCON
001949: 04,3107           07257                           TC       SHORTMP
001950: 04,3110           50140        TRACE1             INDEX    MPAC
001951: 04,3111           34333                           CAF      RELTAB
001952: 04,3112           74473                           MASK     LOW5
001953: 04,3113           54110                           TS       CODE
001954: 04,3114           37653                           CAF      ZERO
001955: 04,3115           56142                           XCH      MPAC       +2
001956: 04,3116           56141                           XCH      MPAC       +1
001957: 04,3117           54140                           TS       MPAC
001958: 04,3120           56637                           XCH      DSPCOUNT
001959: 04,3121           54127        TRACE1S            TS       COUNT
001960: 04,3122           10000                           CCS      A                                     #  DECREMENT DSPCOUNT EXCEPT AT +0
001961: 04,3123           54637                           TS       DSPCOUNT
001962: 04,3124           03157                           TC       DSPIN
001963: 04,3125           10123                           CCS      WDCNT
001964: 04,3126           03105                           TC       DSPDCWD1
001965: 04,3127           44506                           CS       VD1
001966: 04,3130           54637                           TS       DSPCOUNT
001967: 04,3131           00101                           TC       WDRET
001968:
001969: 04,3132           02476        DECROUND           OCT      02476
001970:


001972:                                                                                                  #  DSP2DEC CONVERTS C(MPAC) AND C(MPAC+1) INTO A SIGN AND 10 CHAR DECIMAL
001973:                                                                                                  #  STARTING IN THE LOC SPECIFIED IN DSPCOUNT.
001974:
001975: 04,3133           56002        DSP2DEC            XCH      Q
001976: 04,3134           54101                           TS       WDRET                                 #  MUST USE SAME RETURN AS DSPDECWD
001977: 04,3135           37653                           CAF      ZERO
001978: 04,3136           54110                           TS       CODE
001979: 04,3137           36165                           CAF      THREE
001980: 04,3140           03241                           TC       11DSPIN                               #  -R2 OFF
001981: 04,3141           37644                           CAF      FOUR
001982: 04,3142           03241                           TC       11DSPIN                               #  +R2 OFF
001983: 04,3143           10140                           CCS      MPAC
001984: 04,3144           03154                           TC       +8D
001985: 04,3145           03154                           TC       +7
001986: 04,3146           67646                           AD       ONE
001987: 04,3147           54140                           TS       MPAC
001988: 04,3150           02313                           TC       -ON
001989: 04,3151           40141                           CS       MPAC       +1
001990: 04,3152           54141                           TS       MPAC       +1
001991: 04,3153           03155                           TC       +2
001992: 04,3154           02273                           TC       +ON
001993: 04,3155           34445                           CAF      R2D1
001994: 04,3156           03105        END2DEC            TC       DSPDCWD1
001995:
001996:
001997:
001998: 05,3222                                           SETLOC   DSPFMEM    +6
001999:                                                                                                  #  DSPOCTWD DISPLAYS C(A) UPON ENTRY AS A 5 CHAR OCT STARTING IN THE DSP
002000:                                                                                                  #  CHAR SPECIFIED IN DSPCOUNT. IT STOPS AFTER 5 CHAR HAVE BEEN DISPLAYED.
002001:
002002: 05,3222           54022        DSPOCTWD           TS       CYL
002003: 05,3223           56002                           XCH      Q
002004: 05,3224           54101                           TS       WDRET                                 #  MUST USE SAME RETURN AS DSP2BIT.
002005: 05,3225           37631                           CAF      BIT14                                 #  TO BLANK SIGNS
002006: 05,3226           26637                           ADS      DSPCOUNT
002007: 05,3227           37644                           CAF      FOUR
002008: 05,3230           54123        WDAGAIN            TS       WDCNT
002009: 05,3231           40022                           CS       CYL
002010: 05,3232           40022                           CS       CYL
002011: 05,3233           40022                           CS       CYL
002012: 05,3234           40000                           CS       A
002013: 05,3235           77652                           MASK     DSPMSK
002014: 05,3236           50000                           INDEX    A
002015: 05,3237           34333                           CAF      RELTAB
002016: 05,3240           74473                           MASK     LOW5
002017: 05,3241           54110                           TS       CODE
002018: 05,3242           56637                           XCH      DSPCOUNT
002019: 05,3243           54127                           TS       COUNT
002020: 05,3244           10000                           CCS      A                                     #  DECREMENT DSPCOUNT EXCEPT AT +0
002021: 05,3245           54637                           TS       DSPCOUNT


002023: 05,3246           04102                           TC       POSTJUMP
002024: 05,3247           11247                           CADR     DSPOCTIN
002025: 05,3250           10123        OCTBACK            CCS      WDCNT
002026: 05,3251           03230                           TC       WDAGAIN                               #  +
002027: 05,3252           44506        DSPLV              CS       VD1                                   #  TO BLOCK NUMERICAL CHARACTERS, CLEARS,
002028: 05,3253           54637                           TS       DSPCOUNT                              #  AND SIGNS AFTER A COMPLETED DISPLAY.
002029: 05,3254           00101                           TC       WDRET
002030:
002031: 05,3255     7652               DSPMSK             =        SEVEN
002032:
002033:
002034:
002035:                                                                                                  #  DSP2BIT DISPLAYS C(A) UPON ENTRY AS A 2 CHAR OCT BEGINNING IN THE DSP
002036:                                                                                                  #  LOC SPECIFIED IN DSPCOUNT BY PRE CYCLING RIGHT C(A) AND USING THE LOGIC
002037:                                                                                                  #  OF THE 5 CHAR OCTAL DISPLAY
002038:
002039: 05,3255           54020        DSP2BIT            TS       CYR
002040: 05,3256           56002                           XCH      Q
002041: 05,3257           54101                           TS       WDRET                                 #  CANT USE L AS RETURN. UPDATNN USES L.
002042: 05,3260           37646                           CAF      ONE
002043: 05,3261           54123                           TS       WDCNT
002044: 05,3262           40020                           CS       CYR
002045: 05,3263           40020                           CS       CYR
002046: 05,3264           56020                           XCH      CYR
002047: 05,3265           54022                           TS       CYL
002048: 05,3266           03235                           TC       WDAGAIN    +5
002049:
002050:
002051:
002052:                                                                                                  #  FOR DSPIN PLACE 0/25 OCT INTO COUNT, 5 BIT RELAY CODE INTO CODE. BOTH
002053:                                                                                                  #  ARE DESTROYED. IF BIT14 OF COUNT IS 1, SIGN IS BLANKED WITH LEFT CHAR.
002054:                                                                                                  #  FOR DSPIN1 PLACE 0,1 INTO BIT11 OF CODE, 2 INTO COUNT, REL ADDRESS OF
002055:                                                                                                  #  DSPTAB ENTRY INTO DSREL.
002056:
002057: 04,3157                                           SETLOC   END2DEC    +1
002058:
002059: 04,3157           56002        DSPIN              XCH      Q                                     #  CANT USE L FOR RETURN, SINCE MANY OF THE
002060: 04,3160           54100                           TS       DSEXIT                                #  ROUTINES CALLING DSPIN USE L AS RETURN.
002061: 04,3161           34473                           CAF      LOW5
002062: 04,3162           70127                           MASK     COUNT
002063: 04,3163           54021                           TS       SR
002064: 04,3164           56021                           XCH      SR
002065: 04,3165           54125                           TS       DSREL
002066: 04,3166           37646                           CAF      BIT1
002067: 04,3167           70127                           MASK     COUNT
002068: 04,3170           10000                           CCS      A
002069: 04,3171           03173                           TC       +2                                    #  LEFT IF COUNT IS ODD
002070: 04,3172           03203                           TC       DSPIN1     -1                         #  RIGHT IF COUNT IS EVEN
002071: 04,3173           56110                           XCH      CODE
002072: 04,3174           04465                           TC       SLEFT5                                #  DOES NOT USE CYL


002074: 04,3175           54110                           TS       CODE
002075: 04,3176           37631                           CAF      BIT14
002076: 04,3177           70127                           MASK     COUNT
002077: 04,3200           10000                           CCS      A
002078: 04,3201           37645                           CAF      TWO                                   #  BIT14 = 1, BLANK SIGN
002079: 04,3202           67646                           AD       ONE                                   #  BIT14 = 0, LEAVE SIGN ALONE
002080: 04,3203           54127                           TS       COUNT                                 #  +0 INTO COUNT FOR RIGHT
002081:                                                                                                  #  +1 INTO COUNT FOR LEFT(SIGN LEFT ALONE)
002082:                                                                                                  #  +3 INTO COUNT FOR LEFT(TO BLANK SIGN)
002083: 04,3204           00004        DSPIN1             INHINT
002084: 04,3205           50125                           INDEX    DSREL
002085: 04,3206           10662                           CCS      DSPTAB
002086: 04,3207           03211                           TC       +2                                    #  IF +
002087: 04,3211                                           LOC      +1
002088: 04,3211           67646                           AD       ONE                                   #  IF -
002089: 04,3212           54126                           TS       DSMAG
002090: 04,3213           50127                           INDEX    COUNT
002091: 04,3214           73235                           MASK     DSMSK
002092: 04,3215           00006                           EXTEND
002093: 04,3216           60110                           SU       CODE
002094: 04,3217           00006                           EXTEND
002095: 04,3220           13233                           BZF      DSLV                                  #  SAME
002096: 04,3221           50127        DFRNT              INDEX    COUNT
002097: 04,3222           43235                           CS       DSMSK                                 #  MASK WITH 77740,76037, OR 75777
002098: 04,3223           70126                           MASK     DSMAG
002099: 04,3224           60110                           AD       CODE
002100: 04,3225           40000                           CS       A
002101: 04,3226           50125                           INDEX    DSREL
002102: 04,3227           56662                           XCH      DSPTAB
002103: 04,3230           00006                           EXTEND
002104: 04,3231           63233                           BZMF     DSLV                                  #  DSPTAB ENTRY WAS -
002105: 04,3232           24656                           INCR     NOUT                                  #  DSPTAB ENTRY WAS +
002106: 04,3233           00003        DSLV               RELINT
002107: 04,3234           00100                           TC       DSEXIT
002108:
002109: 04,3235           00037        DSMSK              OCT      37
002110: 04,3236           01740                           OCT      1740
002111: 04,3237           02000                           OCT      2000
002112: 04,3240           03740                           OCT      3740
002113:
002114:
002115:
002116:                                                                                                  #  FOR 11DSPIN, PUT REL ADDRESSS OF DSPTAB ENTRY INTO A, 1 IN BIT11 OR 0 IN
002117:                                                                                                  #  BIT11 OF CODE.
002118:
002119: 04,3241           54125        11DSPIN            TS       DSREL
002120: 04,3242           37645                           CAF      TWO
002121: 04,3243           54127                           TS       COUNT
002122: 04,3244           56002                           XCH      Q                                     #  MUST USE SAME RETURN AS DSPIN
002123: 04,3245           54100                           TS       DSEXIT


002125: 04,3246           03204                           TC       DSPIN1
002126:
002127:
002128:
002129: 04,3247           03157        DSPOCTIN           TC       DSPIN                                 #  SO DSPOCTWO DOESNT USE SWCALL
002130: 04,3250           33252                           CAF      +2
002131: 04,3251           04105                           TC       BANKJUMP
002132: 04,3252           13250        ENDSPOCT           CADR     OCTBACK
002133:
002134:
002135:
002136:                                                                                                  #  DSPALARM FINDS TC NVSUBEND IN ENTRET FOR NVSUB INITIATED ROUTINES.
002137:                                                                                                  #  ABORT WITH 01501.
002138:                                                                                                  #  DSPALARM FINDS TC ENDOFJOB IN ENTRET FOR KEYBOARD INITIATED ROUTINES.
002139:                                                                                                  #  DC TC ENTRET.
002140:
002141: 04,3253           34417        CHARALRM           CAF      ENDINST                               #  ALARMS WHICH MUST DO ENDOFJOBS COME
002142: 04,3254           54122                           TS       ENTRET                                #  HERE. ALLOWS ENTRET TO BE TEMP ERASABLE
002143:
002144: 04,3255           04512        DSPALARM           TC       FALTON                                #  TURN ON OPERATOR ERROR LIGHT
002145: 04,3256           43265                           CS       NVSBENDL
002146: 04,3257           60122                           AD       ENTEXIT
002147: 04,3260           00006                           EXTEND
002148: 04,3261           13263                           BZF      +2                                    #  NVSUB INITIATED. ABORT
002149: 04,3262           00122                           TC       ENTEXIT                               #  NOT NVSUB INITIATED.
002150: 04,3263           04662                           TC       ABORT
002151: 04,3264           01501                           OCT      01501
002152: 04,3265           04376        NVSBENDL           TC       NVSUBEND
002153:
002154:
002155:
002156:                                                                                                  #  MMCHANG USES NOUN DISPLAY UNTIL ENTER. THEN IT USES MODE DISP.
002157:                                                                                                  #  IT GOES TO MODROUT WITH THE NEW M M CODE IN A, BUT NOT DISPLAYED IN
002158:                                                                                                  #  M M LIGHTS.
002159:
002160: 05,3267                                           SETLOC   DSP2BIT    +10D
002161:
002162: 05,3267           03302        MMCHANG            TC       REQMM
002163: 05,3270           37653                           CAF      ZERO
002164: 05,3271           56642                           XCH      NOUNREG
002165: 05,3272           54140                           TS       MPAC
002166: 05,3273           34507                           CAF      ND1
002167: 05,3274           54637                           TS       DSPCOUNT
002168: 05,3275           04063                           TC       BANKCALL
002169: 05,3276           10517                           CADR     2BLANK
002170: 05,3277           30140                           CA       MPAC
002171: 05,3300           04102                           TC       POSTJUMP
002172: 05,3301           11255                           CADR     MODROUTB                              #  GO THRU STANDARD LOC.
002173:


002175: 05,3302  04,3255               MODROUTB           =        DSPALARM                              #  **FIX LATER**
002176: 05,3302           40002        REQMM              CS       Q
002177: 05,3303           54653                           TS       REQRET
002178: 05,3304           34507                           CAF      ND1
002179: 05,3305           54637                           TS       DSPCOUNT
002180: 05,3306           37653                           CAF      ZERO
002181: 05,3307           54642                           TS       NOUNREG
002182: 05,3310           04063                           TC       BANKCALL
002183: 05,3311           10517                           CADR     2BLANK
002184: 05,3312           04543                           TC       FLASHON
002185: 05,3313           00122                           TC       ENTEXIT
002186:
002187:
002188:
002189:                                                                                                  #  VBRQEXEC ENTERS REQUEST TO EXEC     FOR ANY ADDRESS WITH ANY PRIORITY.
002190:                                                                                                  #  IT DOES ENDOFJOB AFTER ENTERING REQUEST. DISPLAY SYST IS RELEASED.
002191:                                                                                                  #  IT ASSUMES NOUN 26 HAS BEEN PRELOADED WITH
002192:                                                                                                  #  COMPONENT 1  PRIORITY(BITS 10-14) BIT1=0 FOR NOVAC, BIT1=1 FOR FINDVAC.
002193:                                                                                                  #  COMPONENT 2  JOB ADRES (12 BIT )
002194:                                                                                                  #  COMPONENT 3  BBCON
002195:
002196: 05,3314           37646        VBRQEXEC           CAF      BIT1
002197: 05,3315           70706                           MASK     DSPTEM1
002198: 05,3316           10000                           CCS      A
002199: 05,3317           03336                           TC       SETVAC                                #  IF BIT1 = 1, FINDVAC
002200: 05,3320           34476                           CAF      TCNOVAC                               #  IF BIT1 = 0, NOVAC
002201: 05,3321           54140        REQEX1             TS       MPAC                                  #  TC NOVAC  OR  TC FINDVAC INTO MPAC
002202: 05,3322           47646                           CS       BIT1
002203: 05,3323           70706                           MASK     DSPTEM1
002204: 05,3324           54144                           TS       MPAC       +4                         #  PRIO INTO MPAC+4 AS A TEMP
002205: 05,3325           04610        REQUESTC           TC       RELDSP
002206: 05,3326           34417                           CA       ENDINST
002207: 05,3327           54143                           TS       MPAC       +3                         #  TC ENDOFJOB INTO MPAC+3
002208: 05,3330           00006                           EXTEND
002209: 05,3331           30710                           DCA      DSPTEM1    +1                         #  JOB ADRES INTO MPAC+1
002210: 05,3332           52142                           DXCH     MPAC       +1                         #  BBCON INTO MPAC+2
002211: 05,3333           30144                           CA       MPAC       +4                         #  PRIO IN A
002212: 05,3334           00004                           INHINT
002213: 05,3335           00140                           TC       MPAC
002214:
002215: 05,3336           34501        SETVAC             CAF      TCFINDVC
002216: 05,3337           03321                           TC       REQEX1
002217:
002218:                                                                                                  #  VBRQWAIT ENTERS REQUEST TO WAITLIST FOR ANY ADDRESS WITH ANY DELAY.
002219:                                                                                                  #  IT DOES ENDOFJOB AFTER ENTERING REQUEST.DISPLAY SYST IS RELEASED.
002220:                                                                                                  #  IT ASSUMES NOUN 26 HAS BEEN PRELOADED WITH
002221:                                                                                                  #  COMPONENT 1  DELAY (LOW BITS)
002222:                                                                                                  #  COMPONENT 2  TASK ADRES (12 BIT)
002223:                                                                                                  #  COMPONENT 3  BBCON
002224:


002226: 05,3340           34477        VBRQWAIT           CAF      TCWAIT
002227: 05,3341           54140                           TS       MPAC                                  #  TC WAITLIST INTO MPAC
002228: 05,3342           30706                           CA       DSPTEM1                               #  TIME DELAY
002229: 05,3343           03324        ENDRQWT            TC       REQUESTC   -1
002230:
002231:                                                                                                  #  REQUESTC WILL PUT TASK ADRES INTO MPAC+1, BBCON INTO MPAC+2,
002232:                                                                                                  #  TC ENDOFJOB INTO MPAC+3. IT WILL TAKE TIME DELAY OUT OF MPAC+4 AND
002233:                                                                                                  #  LEAVE IT IN A, INHINT AND TC MPAC.
002234:
002235:
002236:
002237: 04,3266                                           SETLOC   NVSBENDL   +1
002238: 04,3266           37646        VBPROC             CAF      ONE                                   #  PROCEED WITHOUT DATA
002239: 04,3267           54654                           TS       LOADSTAT
002240: 04,3270           04610                           TC       RELDSP
002241: 04,3271           04547                           TC       FLASHOFF
002242: 04,3272           03400                           TC       RECALTST                              #  SEE IF THERE IS ANY RECALL FROM ENDIDLE
002243:
002244:
002245:
002246: 04,3273           04400        VBTERM             TC       KILMONON                              #  TURN ON KILL MONITOR BIT
002247: 04,3274           47646                           CS       ONE
002248: 04,3275           03267                           TC       VBPROC     +1                         #  TERM VERB SETS LOADSTAT NEG
002249:
002250:
002251:
002252:                                                                                                  #  FLASH IS TURNED OFF ONLY BY PROCEED WITHOUT DATA, TERMINATE, END OF LOAD
002253:
002254:
002255:
002256:                                                                                                  #  VBRELDSP TURNS OFF RELEASE DISPLAY SYSTEM LIGHT(AND SEARCHES LIST ONLY
002257:                                                                                                  #  IF THIS LIGHT WAS TURNED ON BY NVSUBUSY), AND TURNS OFF UPACT LIGHT.
002258:
002259: 04,3276           47644        VBRELDSP           CS       BIT3
002260: 04,3277           00006                           EXTEND
002261: 04,3300           03011                           WAND     DSALMOUT                              #  TURN OFF UPACT LIGHT
002262: 04,3301           04610                           TC       RELDSP                                #  SEARCHES LIST
002263: 04,3302           04205                           TC       ENDOFJOB
002264:
002265:
002266:
002267:                                                                                                  #  BUMP SHIFTS WORD DISPLAYED IN R2 TO R3, R1 TO R2. IT BLANKS R1.
002268:
002269: 04,3303           37225        BUMP               CAF      FIVE                                  #  R2D5
002270: 04,3304           54637                           TS       DSPCOUNT
002271: 04,3305           54127                           TS       COUNT
002272: 04,3306           37646                           CAF      ONE                                   #  SHIFT DATA OF R2 TO R3, R1 TO R2
002273: 04,3307           70127                           MASK     COUNT
002274: 04,3310           56127                           XCH      COUNT                                 #  +0 INTO COUNT IF EVEN (RIGHT)
002275: 04,3311           54021                           TS       SR                                    #  +1 INTO COUNT IF ODD (LEFT)


002277: 04,3312           56021                           XCH      SR                                    #  DSREL IN A
002278: 04,3313           50000                           INDEX    A
002279: 04,3314           10662                           CCS      DSPTAB
002280: 04,3315           03317                           TC       +2
002281: 04,3317                                           LOC      +1
002282: 04,3317           67646                           AD       ONE                                   #  DSMAG IN A
002283: 04,3320           50127                           INDEX    COUNT
002284: 04,3321           73235                           MASK     DSMSK
002285: 04,3322           50127                           INDEX    COUNT
002286: 04,3323           03324                           TC       +1
002287: 04,3324           03326                           TC       +2                                    #  EVEN(RIGHT)  OK
002288: 04,3325           04447                           TC       RIGHT5                                #  ODD(LEFT)  SHIFT RIGHT
002289: 04,3326           54110                           TS       CODE
002290: 04,3327           47225                           CS       FIVE
002291: 04,3330           60637                           AD       DSPCOUNT                              #  DSPCOUNT-5
002292: 04,3331           10000                           CCS      A                                     #  TO PREVENT -0
002293: 04,3332           67646                           AD       ONE
002294: 04,3333           03335                           TC       +2
002295: 04,3335                                           LOC      +1
002296: 04,3335           54127                           TS       COUNT
002297: 04,3336           03157                           TC       DSPIN                                 #  CODE ALREADY IN CODE
002298: 04,3337           40637                           CS       DSPCOUNT
002299: 04,3340           64444                           AD       R1D1                                  #  OCT 16
002300: 04,3341           10000                           CCS      A
002301: 04,3342           56637                           XCH      DSPCOUNT                              #  +, DSPCOUNT L/ OCT 16
002302: 04,3343           67646                           AD       ONE                                   #  INCREMENT DSPCOUNT
002303: 04,3344           03304                           TC       BUMP       +1
002304:
002305: 04,3345           37653        SWSGN              CAF      ZERO                                  #  -0, DSPCOUNT= OCT 16. DO SIGN SHIFT
002306: 04,3346           54637                           TS       DSPCOUNT
002307: 04,3347           63376                           AD       SWTAB      +2                         #  OCT 3
002308: 04,3350           50000                           INDEX    A                                     #  PICKUP ORDER , DSREL=3,4,5,6.
002309: 04,3351           10662                           CCS      DSPTAB                                #                   (-R2,+R2,-R1,+R1)
002310: 04,3352           03354                           TC       +2
002311: 04,3354                                           LOC      +1
002312: 04,3354           67646                           AD       ONE
002313: 04,3355           77634                           MASK     BIT11
002314: 04,3356           54110                           TS       CODE
002315: 04,3357           50637                           INDEX    DSPCOUNT
002316: 04,3360           33374                           CAF      SWTAB                                 #  PUT AWAY ORDER, DSREL= 0,1,3,4.
002317: 04,3361           03241                           TC       11DSPIN                               #                   (-R3,+R3,-R2,+R2.)
002318: 04,3362           40637                           CS       DSPCOUNT
002319: 04,3363           63376                           AD       SWTAB      +2                         #  OCT 3
002320: 04,3364           10000                           CCS      A
002321: 04,3365           56637                           XCH      DSPCOUNT                              #  +, DSPCOUNT L/ 3
002322: 04,3366           67646                           AD       ONE                                   #  INCREMENT DSPCOUNT
002323: 04,3367           03346                           TC       SWSGN      +1
002324: 04,3370           34444                           CAF      R1D1                                  #  -0,       DSPCOUNT = 3
002325: 04,3371           54637                           TS       DSPCOUNT
002326: 04,3372           02454                           TC       5BLANK                                #  BLANKS R1


002328: 04,3373           00122                           TC       ENTEXIT
002329:
002330: 04,3374           00000        SWTAB              OCT      0                                     #  -R3
002331: 04,3375           00001                           OCT      1                                     #  +R3
002332: 04,3376           00003                           OCT      3                                     #  -R2
002333: 04,3377           00004                           OCT      4                                     #  +R2
002334:


002336:                                                                                                  #  NVSUB IS USED FOR SUB ROUTINE CALLS FROM WITHIN COMPUTER. IT CAN BE
002337:                                                                                                  #  USED TO DO ANY THING THE KEYBOARD CAN CALL. PLACE  ...VVVVVVNNNNNN
002338:                                                                                                  #  INTO A.      V-S ARE 6 BIT VERB CODE. N-S , 6 BIT NOUN CODE.
002339:
002340:                                                                                                  #  NVSUB CAN BE USED WITH MACH CADR TO BE SPEC BY PLACING THE CADR INTO
002341:                                                                                                  #  MPAC+2 BEFORE THE STANDARD NVSUB CALL.
002342:
002343:                                                                                                  #   NVSUB RETURNS TO 2+ CALLING LOC AFTER PERFORMING TASK, IF DISPLAY
002344:                                                                                                  #  SYSTEM IS AVAILABLE. THE NEW NOUN AND VERB CODES ARE DISPLAYED.
002345:                                                                                                  #  IF V:S =0, THE NEW NOUN CODE IS DISPLAYED ONLY(RETURN WITH NO FURTHER
002346:                                                                                                  #  ACTION). IF N-S =0, THE NEW VERB CODE IS DISPLAYED ONLY(RETURN WITH NO
002347:                                                                                                  #  FURTHER ACTION).
002348:
002349:                                                                                                  #  IT RETURNS TO 1+ CALLING LOC WITHOUT PERFORMING TASK, IF DISPLAY
002350:                                                                                                  #  SYSTEM IS BLOCKED (NOTHING IS DISPLAYED IN THIS CASE).
002351:                                                                                                  #  IT DOES TC ABORT (WITH OCT 01501) IF IT ENCOUNTERS A DISPLAY PROGRAM
002352:                                                                                                  #  ALARM CONDITION BEFORE RETURN TO CALLER.
002353:
002354:                                                                                                  #  THE DISPLAY SYSTEM IS BLOCKED BY THE DEPRESSION OF ANY
002355:                                                                                                  #  KEY, EXCEPT ERROR LIGHT RESET. ALSO BY ENDIDLE.
002356:                                                                                                  #       IT IS RELEASED BY SPECIAL VERB = RELEASE DISPLAY, ALL GO TO VERBS.
002357:                                                                                                  #  PROCEED WITHOUT DATA, TERMINATE, INITIALIZE EXECUTIVE,
002358:                                                                                                  #  RECALL PART OF RECALTST IF ENDIDLE WAS USED,
002359:                                                                                                  #  IN RECALTST IF NVSUB INITIATED LOAD AND ENDIDLE WAS NOT USED,
002360:                                                                                                  #  VB = REQUEST EXECUTIVE, VB = REQUEST WAITLIST,
002361:                                                                                                  #  MONITOR SET UP.
002362:
002363:                                                                                                  #  A NVSUB CALL THAT PASSES DSPLOCK ENDS OLD MONITOR.
002364:
002365:                                                                                                  #  DSPLOCK IS THE INTERLOCK FOR USE OF KEYBOARD AND DISPLAY SYSTEM WHICH
002366:                                                                                                  #  LOCKS OUT INTERNAL USE WHENEVER THERE IS EXTERNAL KEYBOARD ACTION.
002367:
002368:                                                                                                  #  NVSUB IN FIXED-FIXED PLACES 2+CALLING LOC INTO NVQTEM, TC NVSUBEND INTO
002369:                                                                                                  #  ENTRET. (THIS WILL RESTORE OLD CALLING BANK BITS)
002370:
002371:    4356                                           SETLOC   MIDSIX     +1
002372:    4356           54107        NVSUB              TS       NVTEMP                                #  IN FIXED FIXED
002373:    4357           10652                           CCS      DSPLOCK
002374:    4360           00002                           TC       Q                                     #  DSP SYST BLOCKED. RET TO 1+ CALLING LOC
002375:    4361           30002                           CA       Q                                     #  DSP SYST AVAILABLE
002376:    4362           67646                           AD       ONE
002377:    4363           54700                           TS       NVQTEM                                #  2+ CALLING LOC INTO NVQTEM
002378:    4364           04400                           TC       KILMONON                              #  TURN ON KILL MONITOR BIT
002379:    4365           34371        NVSUBCOM           CAF      NVSBBBNK
002380:
002381:    4366           56006                           XCH      BBANK
002382:    4367           54701                           TS       NVBNKTEM
002383:    4370           02000                           TC       NVSUBB                                #  GO TO NVSUB1 THRU STANDARD LOC
002384:    4371     0637                                  EBANK=   DSPCOUNT
002385:    4371           12001        NVSBBBNK           BBCON    NVSUB1
002386:


002388:    4372           30002        NVSUBMON           CA       Q                                     #  MONDO COMES HERE
002389:    4373           67646                           AD       ONE
002390:    4374           54700                           TS       NVQTEM                                #  2 + CALLING LOC INTO NVQTEM
002391:    4375           04365                           TC       NVSUBCOM
002392:
002393:
002394:
002395:    4376           52701        NVSUBEND           DXCH     NVQTEM                                #  NVBNKTEM MUST = NVQTEM+1
002396:    4377           52006                           DXCH     Z                                     #  DTCB
002397:
002398: 05,3344                                           SETLOC   ENDRQWT    +1
002399:
002400: 05,3344           33363        NVSUB1             CAF      ENTSET                                #  IN BANK
002401: 05,3345           54122                           TS       ENTRET                                #  SET RETURN TO NVSUBEND
002402: 05,3346           33401                           CAF      LOW6
002403: 05,3347           70107                           MASK     NVTEMP
002404: 05,3350           54140                           TS       MPAC                                  #  TEMP STORAGE
002405: 05,3351           33402                           CAF      MID6
002406: 05,3352           70107                           MASK     NVTEMP
002407: 05,3353           04447                           TC       RIGHT5
002408: 05,3354           54020                           TS       CYR
002409: 05,3355           56020                           XCH      CYR
002410: 05,3356           54141                           TS       MPAC       +1                         #  TEMP STORAGE
002411: 05,3357           10140                           CCS      MPAC                                  #  TEST NOUN
002412: 05,3360           03364                           TC       +4                                    #  IF NOUN NOT +0, GO ON
002413: 05,3361           56141                           XCH      MPAC       +1
002414: 05,3362           02314                           TC       UPDATVB    -1                         #  IF NOUN = +0, DISPLAY VERB, THEN RETURN
002415: 05,3363           04376        ENTSET             TC       NVSUBEND
002416: 05,3364           10141                           CCS      MPAC       +1                         #  TEST VERB
002417: 05,3365           03371                           TC       +4                                    #  IF VERB NOT +0, GO ON
002418: 05,3366           56140                           XCH      MPAC
002419: 05,3367           02274                           TC       UPDATNN    -1                         #  IF VERB = +0, DISPLAY NOUN. THEN RETURN
002420: 05,3370           04376                           TC       NVSUBEND
002421: 05,3371           56141                           XCH      MPAC       +1
002422: 05,3372           02314                           TC       UPDATVB    -1                         #  IF BOTH NOUN AND VERB NOT +0, DISPLAY
002423: 05,3373           56140                           XCH      MPAC                                  #  BOTH AND GO TO ENTPAS0
002424: 05,3374           02274                           TC       UPDATNN    -1
002425: 05,3375           37653                           CAF      ZERO
002426: 05,3376           54654                           TS       LOADSTAT                              #  SET FOR WAITING FOR DATA CONDITION
002427: 05,3377           54655                           TS       CLPASS
002428: 05,3400           02031                           TC       ENTPAS0
002429:
002430:                                                                                                  #  IF INTERNAL MACH CADR TO BE SPECIFIED, MPAC+2 WILL BE PLACED INTO
002431:                                                                                                  #  NOUNCADR IN ENTPAS0 (INTMCTBS ).
002432:
002433:
002434:
002435: 05,3401           00077        LOW6               OCT      77
002436: 05,3402           07700        MID6               OCT      7700
002437:


002439:    4400                                           SETLOC   NVSUBEND   +2
002440:    4400           47630        KILMONON           CS       BIT15                                 #  FORCE BIT 15 OF MONSAVE1 TO 1.
002441:    4401           00004                           INHINT                                         #          THIS IS THE KILL MONITOR BIT.
002442:    4402           70661                           MASK     MONSAVE1
002443:    4403           67630                           AD       BIT15
002444:    4404           54661                           TS       MONSAVE1
002445:    4405           00003                           RELINT
002446:    4406           00002                           TC       Q
002447:
002448:
002449:
002450:                                                                                                  #  LOADSTAT  +0 INACTIVE(WAITING FOR DATA). SET BY NVSUB
002451:                                                                                                  #            +1  PROCEED NO DATA. SET BY SPECIAL VERB
002452:                                                                                                  #           -1 TERMINATE   SET BY SPECIAL VERB
002453:                                                                                                  #           -0 DATA IN   SET BY END OF LOAD ROUTINE
002454:
002455:
002456:
002457:                                                                                                  #  L  TC ENDIDLE  (FIXED FIXED)
002458:                                                                                                  #  ROUTINES THAT REQUEST LOADS THROUGH NVSUB SHOULD USE ENDIDLE WHILE
002459:                                                                                                  #  WAITING FOR THE DATA TO BE LOADED. ENDIDLE PUTS CURRENT JOB TO SLEEP.
002460:                                                                                                  #  ENDIDLE CANNOT BE CALLED FROM ERASABLE MEMORY, SINCE JOBSLEEP AND
002461:                                                                                                  #  JOBWAKE CAN HANDLE ONLY FIXED MEMORY.
002462:                                                                                                  #  RECALTST TESTS LOADSTAT AND WAKES JOB UP TO,
002463:                                                                                                  #  L+1      FOR TERMINATE
002464:                                                                                                  #  L+2      FOR PROCEED WITHOUT DATA
002465:                                                                                                  #  L+3      FOR DATA IN
002466:                                                                                                  #  IT DOES NOTHING     IF LOADSTAT INDICATES WAITING FOR DATA.
002467:
002468:    4407           37646        ENDIDLE            CAF      ONE
002469:    4410           54652                           TS       DSPLOCK
002470:    4411           22004                           LXCH     FBANK
002471:    4412           56002                           XCH      Q
002472:    4413           52120                           DXCH     BUF2
002473:    4414           04112                           TC       MAKECADR
002474:    4415           54676                           TS       CADRSTOR
002475:    4416           04164                           TC       JOBSLEEP
002476:
002477:
002478:
002479:    4417           04205        ENDINST            TC       ENDOFJOB
002480:
002481:                                                                                                  #  DATAWAIT IS AN ALTERNATIVE TO ENDIDLE, IT RETURNS IMMEDIATELY IF
002482:                                                                                                  #  LOADSTAT INDICATES THAT DATA IS ALREADY IN, OR PROCEED OR TERMINATE HAS
002483:                                                                                                  #  BEEN EXECUTED. RETURN FORMAT IS SAME AS FOR ENDIDLE.
002484:                                                                                                  #  DATAWAIT CANNOT BE CALLED FROM ERASABLE MEMORY, SINCE JOBSLEEP
002485:                                                                                                  #  AND JOBWAKE CAN HANDLE ONLY FIXED MEMORY.
002486:                                                                                                  #  DATAWAIT SHOULD BE USED ONLY AFTER REQUESTING A LOAD VERB.
002487:
002488:    4420           10654        DATAWAIT           CCS      LOADSTAT


002490:    4421           14426                           TCF      DATWAIT1                              #  PROCEED. RETURN TO L+2.
002491:    4422           14407                           TCF      ENDIDLE                               #  STILL WAITING. GO TO SLEEP.
002492:    4423           00002                           TC       Q                                     #  TERMINATE. RETURN TO L+1.
002493:    4424           50002                           INDEX    Q                                     #  DATA IN. RETURN TO L+3.
002494:    4425           00002                           TC       2
002495:    4426           50002        DATWAIT1           INDEX    Q                                     #  RETURN TO L+2.
002496:    4427           00001                           TC       1
002497:
002498:                                                                                                  #  DATAWAIT DOES NOT RELEASE DISPLAY SYST. IT IS RELEASED AT END OF NVSUB
002499:                                                                                                  #  INITIATED LOAD, IF ENDIDLE WAS NOT USED.
002500:
002501:
002502:
002503: 05,3403                                           SETLOC   MID6       +1
002504:                                                                                                  #  DSPMM PLACE MAJOR MODE CODE INTO MODREG
002505:
002506: 05,3403           34510        DSPMM1             CAF      MD1                                   #  GETS HERE THRU DSPMM (STANDARD LEAD IN)
002507: 05,3404           56637                           XCH      DSPCOUNT
002508: 05,3405           54124                           TS       DSPMMTEM                              #  SAVE DSPCOUNT
002509: 05,3406           30651                           CA       MODREG
002510: 05,3407           22002                           LXCH     Q
002511: 05,3410           03255                           TC       DSP2BIT
002512: 05,3411           56124                           XCH      DSPMMTEM                              #  RESTORE DSPCOUNT
002513: 05,3412           54637                           TS       DSPCOUNT
002514: 05,3413           00001        DSPMMEND           TC       L
002515:
002516:
002517:
002518:                                                                                                  #  RECALTST IS ENTERED DIRECTLY AFTER DATA IS
002519:                                                                                                  #  LOADED, TERMINATE VERB IS EXECUTED, OR THE PROCEED WITHOUT DATA VERB IS
002520:                                                                                                  #  EXECUTED. IT WAKES UP JOB THAT DID TC ENDIDLE.
002521:
002522:                                                                                                  #  IF NVSUB INITIATED LOAD, AND ENDIDLE WAS NOT USED, THEN IT RELEASES
002523:                                                                                                  #  DISPLAY SYST. (NEEDED FOR DATAWAIT)
002524:
002525: 04,3400                                           SETLOC   SWTAB      +4
002526:
002527: 04,3400           10676        RECALTST           CCS      CADRSTOR
002528: 04,3401           03406                           TC       RECAL1
002529: 04,3402           04205                           TC       ENDOFJOB                              #  NORMAL EXIT IF KEYBOARD INITIATED
002530: 04,3403           03406                           TC       RECAL1
002531: 04,3404           54676                           TS       CADRSTOR                              #  -0. CONCLUSION OF NVSUB INITIATED LOAD.
002532: 04,3405           03424                           TC       RECAL3                                #  +0 INTO CADRSTOR. RELEASE DISPLAY,
002533:                                                                                                  #     AND ENDOFJOB. NEEDED FOR DATAWAIT.
002534: 04,3406           37653        RECAL1             CAF      ZERO
002535: 04,3407           56676                           XCH      CADRSTOR
002536: 04,3410           00004                           INHINT
002537: 04,3411           04170                           TC       JOBWAKE
002538: 04,3412           10654                           CCS      LOADSTAT
002539: 04,3413           03430                           TC       DOPROC                                #  + PROCEED WITHOUT DATA


002541: 04,3414           04205                           TC       ENDOFJOB                              #  PATHALOGICAL CASE EXIT
002542: 04,3415           03426                           TC       DOTERM                                #  -   TERMINATE
002543: 04,3416           37645                           CAF      TWO
002544: 04,3417           50635        RECAL2             INDEX    LOCCTR
002545: 04,3420           60150                           AD       LOC                                   #  LOC IS + FOR BASIC JOBS
002546: 04,3421           50635                           INDEX    LOCCTR
002547: 04,3422           54150                           TS       LOC
002548: 04,3423           00003                           RELINT
002549: 04,3424           04633        RECAL3             TC       RELDSP1                               #  DOES NOT SEARCH LIST
002550: 04,3425           04205                           TC       ENDOFJOB
002551:
002552: 04,3426           37653        DOTERM             CAF      ZERO
002553: 04,3427           03417                           TC       RECAL2
002554:
002555: 04,3430           37646        DOPROC             CAF      ONE
002556: 04,3431           03417                           TC       RECAL2
002557:


002559:                                                                                                  #  THE FOLLOWING REFERS TO THE NOUN TABLES
002560:
002561:
002562:
002563:                                                                                                  #  COMPONENT CODE NUMBER           INTERPRETATION
002564:
002565:                                                                                                  #  00000                           1 COMPONENT
002566:                                                                                                  #  00001                           2 COMPONENT (EACH S P)
002567:                                                                                                  #  00010                           3 COMPONENT (EACH SP)
002568:
002569:
002570:
002571:                                                                                                  #  SF ROUTINE CODE NUMBER          INTERPRETATION
002572:
002573:                                                                                                  #  00000    OCTAL ONLY
002574:                                                                                                  #  00001    STRAIGHT FRACTIONAL
002575:                                                                                                  #  00010    DEGREES (XXX.XX)
002576:                                                                                                  #  00011    ARITHMETIC SF
002577:                                                                                                  #  00100    ARITH DP1   OUT(MULT BY 2/14 AT END)      IN(STRAIGHT)
002578:                                                                                                  #  00101    ARITH DP2   OUT(STRAIGHT)                 IN(SL 7 AT END)
002579:                                                                                                  #  00110    OPTICS DEGREES(XX.XXX MAX 89.999) OR (XXX.XX MAX 179.99)
002580:                                                                                                  #  00111    ARITH DP3   OUT ( SL 7 AT END)       IN ( STRAIGHT)
002581:                                                                                                  #  END OF SF ROUTINE CODE NUMBERS
002582:
002583:
002584:
002585:                                                                                                  #  SF CONSTANT CODE NUMBER         INTERPRETATION
002586:
002587:                                                                                                  #  00000                           WHOLE
002588:                                                                                                  #  00000                           TIME SEC(XXX.XX)SAME AS WHOLE(ARITH DP1)
002589:                                                                                                  #  00001                           TIME HOURS(XXX.XX) USE ARITH DP2
002590:                                                                                                  #  00010                           DEGREES
002591:                                                                                                  #  00010                           OPTICS DEGREES
002592:                                                                                                  #  00011                           GYRO DEGREES(XX.XXX) USE ARITH DP1
002593:                                                                                                  #  00100                           GYRO BIAS DRIFT .BBXXXXX MILLIRAD/SEC
002594:                                                                                                  #  00101                           GYRO AXIS ACCEL. DRIFT
002595:                                                                                                  #                                  .BBXXXXX (MILLIRAD/SEC) / (CM/SEC SEC)
002596:                                                                                                  #  00110                           PIPA BIAS X.XXXX CM/SEC SEC
002597:                                                                                                  #  00111                           PIPA SCALE FACTOR ERROR
002598:                                                                                                  #                                      XXXXX. PARTS/MILLION
002599:                                                                                                  #  01000                           POSITION(XXXX.X KILOMETERS) USE ARITHDP3
002600:                                                                                                  #  01001                           VELOCITY(XXXX.X METERS/SEC) USE ARITHDP2
002601:                                                                                                  #  01010                           TIME HOURS(XXX.XX)WEEKS INSIDE(ARITHDP2)
002602:                                                                                                  #  01011                           ELEVATION DEGREES(89.999MAX) USE ARITH
002603:                                                                                                  #  END OF SF CONSTANT CODE NUMBERS
002604:
002605:
002606:
002607:                                                                                                  #  FOR GREATER THAN SINGLE PRECISION SCALES, PUT ADDRESS OF MAJOR PART INTO
002608:                                                                                                  #  NOUN TABLES.


002610:                                                                                                  #  OCTAL LOADS PLACE +0 INTO MAJOR PART, DATA INTO MINOR PART.
002611:                                                                                                  #  OCTAL DISPLAYS SHOW MINOR PART ONLY.
002612:                                                                                                  #  TO GET AT BOTH MAJOR AND MINOR PARTS (IN OCTAL), USE NOUN 01.
002613:


002615:                                                                                                  #  THE FOLLOWING ROUTINES ARE FOR READING THE NOUN TABLES AND THE SF TABLES
002616:                                                                                                  #  (WHICH ARE IN A SEPARATE BANK FROM THE REST OF PINBALL). THESE READING
002617:                                                                                                  #  ROUTINES ARE IN THE SAME BANK AS THE TABLES. THEY ARE CALLED BY DXCH Z.
002618:
002619:
002620:
002621:                                                                                                  #  LODNNTAB LOADS NNADTEM WITH THE NNADTAB ENTRY, NNTYPTEM WITH THE
002622:                                                                                                  #  NNTYPTAB ENTRY. IF THE NOUN IS MIXED, IDADITEM IS LOADED WITH THE FIRST
002623:                                                                                                  #  IDADDTAB ENTRY, IDAD2TEM THE SECOND IDADDTAB ENTRY, IDAD3TEM THE THIRD
002624:                                                                                                  #  IDADDTAB ENTRY, RUTMXTEM WITH THE RUTMXTAB ENTRY. MIXBR IS SET FOR
002625:                                                                                                  #  MIXED OR NORMAL NOUN.
002626:
002627: 06,2000                                           SETLOC   24000
002628:
002629: 06,2000           52136        LODNNTAB           DXCH     IDAD2TEM                              #  SAVE RETURN INFO IN IDAD2TEM, IDAD3TEM.
002630: 06,2001           50642                           INDEX    NOUNREG
002631: 06,2002           32052                           CAF      NNADTAB
002632: 06,2003           54132                           TS       NNADTEM
002633: 06,2004           50642                           INDEX    NOUNREG
002634: 06,2005           32152                           CAF      NNTYPTAB
002635: 06,2006           54133                           TS       NNTYPTEM
002636: 06,2007           40642                           CS       NOUNREG
002637: 06,2010           62036                           AD       MIXCON
002638: 06,2011           00006                           EXTEND
002639: 06,2012           62016                           BZMF     LODMIXNN                              #  NOUN NUMBER G/E FIRST MIXED NOUN
002640: 06,2013           37646                           CAF      ONE                                   #  NOUN NUMBER L/ FIRST MIXED NOUN
002641: 06,2014           54124                           TS       MIXBR                                 #  NORMAL.  +1 INTO MIXBR.
002642: 06,2015           02034                           TC       LODNLV
002643: 06,2016           37645        LODMIXNN           CAF      TWO                                   #  MIXED.  +2 INTO MIXBR.
002644: 06,2017           54124                           TS       MIXBR
002645: 06,2020           50642                           INDEX    NOUNREG
002646: 06,2021           32345                           CAF      RUTMXTAB   -55
002647: 06,2022           54137                           TS       RUTMXTEM
002648: 06,2023           36425                           CAF      LOW10
002649: 06,2024           70132                           MASK     NNADTEM
002650: 06,2025           54002                           TS       Q                                     #  TEMP
002651: 06,2026           50000                           INDEX    A
002652: 06,2027           32332                           CAF      IDADDTAB
002653: 06,2030           54134                           TS       IDAD1TEM                              #  LOAD IDAD1TEM WITH FIRST IDADDTAB ENTRY
002654: 06,2031           00006                           EXTEND
002655: 06,2032           50002                           INDEX    Q                                     #  LOAD IDAD2TEM WITH 2ND IDADDTAB ENTRY
002656: 06,2033           32334                           DCA      IDADDTAB   +1                         #  LOAD IDAD3TEM WITH 3RD IDADDTAB ENTRY.
002657: 06,2034           52136        LODNLV             DXCH     IDAD2TEM                              #  PUT RETURN INFO INTO A, L.
002658: 06,2035           52006                           DXCH     Z
002659:
002660: 06,2036           00055        MIXCON             OCT      55                                    #  FIRST MIXED NOUN = 55.
002661:
002662:
002663:
002664:                                                                                                  #  GTSFOUT LOADS SFTEMP1, SFTEMP2 WITH THE DP SFOUTAB ENTRIES.
002665:


002667: 06,2037           52110        GTSFOUT            DXCH     SFTEMP1                               #  2X(SFCONUM) ARRIVES IN SFTEMP1.


002669: 06,2040           00006                           EXTEND
002670: 06,2041           50000                           INDEX    A
002671: 06,2042           32303                           DCA      SFOUTAB
002672: 06,2043           52110        SFCOM              DXCH     SFTEMP1
002673: 06,2044           52006                           DXCH     Z
002674:
002675:
002676:
002677:                                                                                                  #  GTSFIN LOADS SFTEMP1, SFTEMP2 WITH THE DP SFINTAB ENTRIES.
002678:
002679: 06,2045           52110        GTSFIN             DXCH     SFTEMP1                               #  2X(SFCONUM) ARRIVES IN SFTEMP1.
002680: 06,2046           00006                           EXTEND
002681: 06,2047           50000                           INDEX    A
002682: 06,2050           32253                           DCA      SFINTAB
002683: 06,2051           12043                           TCF      SFCOM
002684:
002685:
002686:                                                                                                  #  NN  NORMAL NOUNS
002687: 06,2052           00000        NNADTAB            OCT      00000                                 #  00 NOT IN USE
002688: 06,2053           40000                           OCT      40000                                 #  01 SPECIFY MACHINE ADDRESS (FRACTIONAL)
002689: 06,2054           40000                           OCT      40000                                 #  02 SPECIFY MACHINE ADDRESS (WHOLE)
002690: 06,2055           40000                           OCT      40000                                 #  03 SPECIFY MACHINE ADDRESS (DEGREES)
002691: 06,2056           40000                           OCT      40000                                 #  04 SPECIFY MACHINE ADDRESS (HOURS)
002692: 06,2057           40000                           OCT      40000                                 #  05 SPECIFY MACHINE ADDRESS (SECONDS)
002693: 06,2060           40000                           OCT      40000                                 #  06 SPECIFY MACHINE ADDRESS (GYRO DEG)
002694: 06,2061           40000                           OCT      40000                                 #  07 SPECIFY MACHINE ADDRESS (Y OPT DEG.)
002695: 06,2062           77776                           OCT      77776                                 #  10 CHANNEL TO BE SPECIFIED
002696: 06,2063           00000                           OCT      00000                                 #  11 SPARE
002697: 06,2064           00000                           OCT      00000                                 #  12 SPARE
002698: 06,2065           00000                           OCT      00000                                 #  13 SPARE
002699: 06,2066           00000                           OCT      00000                                 #  14 SPARE
002700: 06,2067           77777                           OCT      77777                                 #  15 INCREMENT MACHINE ADDRESS
002701: 06,2070           00024                           ECADR    TIME2                                 #  16 TIME SECONDS
002702: 06,2071           00024                           ECADR    TIME2                                 #  17 TIME HOURS
002703: 06,2072           00032                           ECADR    CDUX                                  #  20 ICDU
002704: 06,2073           00037                           ECADR    PIPAX                                 #  21 PIPAS
002705: 06,2074           00716                           ECADR    THETAD                                #  22 NEW ANGLES I
002706: 06,2075           00711                           ECADR    DSPTEM2                               #  23 DELTA ANGLES I
002707: 06,2076           00706                           ECADR    DSPTEM1                               #  24 DELTA TIME (SEC)
002708: 06,2077           00706                           ECADR    DSPTEM1                               #  25 CHECKLIST
002709: 06,2100           00706                           ECADR    DSPTEM1                               #  26 PRIO/DELAY, ADRES, BBCON
002710: 06,2101           01047                           ECADR    SMODE                                 #  27 SELF TEST ON/OFF SWITCH
002711: 06,2102           00706                           ECADR    DSPTEM1                               #  30 STAR NUMBERS
002712: 06,2103           00721                           ECADR    FAILREG                               #  31 FAILREG
002713: 06,2104           00722                           ECADR    TDEC                                  #  32 DECISION TIME (MIDCOURSE)
002714: 06,2105           00724                           ECADR    TET                                   #  33 EPHEMERIS TIME (MIDCOURSE)
002715: 06,2106           00726                           ECADR    MEASQ                                 #  34 MEASURED QUANTITY (MIDCOURSE)
002716: 06,2107           00730                           ECADR    ROLL                                  #  35 ROLL, PITCH, YAW


002718: 06,2110           00733                           ECADR    LANDMARK                              #  36 LANDMARK DATA 1
002719: 06,2111           00736                           ECADR    LANDMARK   +3                         #  37 LANDMARK DATA 2
002720: 06,2112           00000                           OCT      00000                                 #  40 SPARE
002721: 06,2113           00000                           OCT      00000                                 #  41 SPARE
002722: 06,2114           00000                           OCT      00000                                 #  42 SPARE
002723: 06,2115           00000                           OCT      00000                                 #  43 SPARE
002724: 06,2116           00000                           OCT      00000                                 #  44 SPARE
002725: 06,2117           00000                           OCT      00000                                 #  45 SPARE
002726: 06,2120           00000                           OCT      00000                                 #  46 SPARE
002727: 06,2121           00000                           OCT      00000                                 #  47 SPARE
002728: 06,2122           00000                           OCT      00000                                 #  50 SPARE
002729: 06,2123           00000                           OCT      00000                                 #  51 SPARE
002730: 06,2124           00741                           ECADR    GBIASX                                #  52 GYRO BIAS DRIFT
002731: 06,2125           00744                           ECADR    ADIAX                                 #  53 GYRO INPUT AXIS ACCELERATION DRIFT
002732: 06,2126           00747                           ECADR    ADSRAX                                #  54 GYRO SPIN AXIS ACCELERATION DRIFT
002733:
002734:                                                                                                  #  NN  MIXED NOUNS
002735: 06,2127           02000                           OCT      02000                                 #  55 OCDU
002736: 06,2130           04002                           OCT      04002                                 #  56 UNCALLED MARK DATA (OCDU & TIME(SEC))
002737: 06,2131           02005                           OCT      02005                                 #  57 NEW ANGLES OCDU
002738: 06,2132           04007                           OCT      04007                                 #  60 IMU MODE STATUS
002739: 06,2133           02012                           OCT      02012                                 #  61 TARGET AZIMUTH AND ELEVATION
002740: 06,2134           02014                           OCT      02014                                 #  62 ICDUZ AND TIME(SEC)
002741: 06,2135           02016                           OCT      02016                                 #  63 OCDUX AND TIME(SEC)
002742: 06,2136           02020                           OCT      02020                                 #  64 OCDUY AND TIME(SEC)
002743: 06,2137           02022                           OCT      02022                                 #  65 SAMPLED TIME (HOURS AND SECONDS)
002744:                                                                                                  #       (FETCHED IN INTERRUPT)
002745: 06,2140           04024                           OCT      04024                                 #  66 SYSTEM TEST RESULTS
002746: 06,2141           04027                           OCT      04027                                 #  67 DELTA GYRO ANGLES
002747: 06,2142           04032                           OCT      04032                                 #  70 PIPA BIAS
002748: 06,2143           04035                           OCT      04035                                 #  71 PIPA SCALE FACTOR ERROR
002749: 06,2144           04040                           OCT      04040                                 #  72 DELTA POSITION
002750: 06,2145           04043                           OCT      04043                                 #  73 DELTA VELOCITY
002751: 06,2146           04046                           OCT      04046                                 #  74 MEASUREMENT DATA (MIDCOURSE)
002752: 06,2147           04051                           OCT      04051                                 #  75 MEASUREMENT DEVIATIONS (MIDCOURSE)
002753: 06,2150           04054                           OCT      04054                                 #  76 POSITION VECTOR
002754: 06,2151           04057                           OCT      04057                                 #  77 VELOCITY VECTOR
002755:
002756:
002757:
002758:                                                                                                  #  NN        NORMAL NOUNS
002759: 06,2152           00000        NNTYPTAB           OCT      00000                                 #  00 NOT IN USE
002760: 06,2153           00040                           OCT      00040                                 #  01 1COMP  FRACTIONAL
002761: 06,2154           00140                           OCT      00140                                 #  02 1COMP  WHOLE
002762: 06,2155           00102                           OCT      00102                                 #  03 1COMP  DEGREES
002763: 06,2156           00241                           OCT      00241                                 #  04 1COMP  HOURS
002764: 06,2157           00200                           OCT      00200                                 #  05 1COMP  SECONDS
002765: 06,2160           00203                           OCT      00203                                 #  06 1COMP  GYRO DEGREES
002766: 06,2161           00302                           OCT      00302                                 #  07 1COMP  Y OPT DEGREES
002767: 06,2162           00000                           OCT      00000                                 #  10 1COMP  OCTAL ONLY


002769: 06,2163           00000                           OCT      00000                                 #  11        SPARE
002770: 06,2164           00000                           OCT      00000                                 #  12        SPARE
002771: 06,2165           00000                           OCT      00000                                 #  13        SPARE
002772: 06,2166           00000                           OCT      00000                                 #  14        SPARE
002773: 06,2167           00000                           OCT      00000                                 #  15 1COMP  OCTAL ONLY
002774: 06,2170           00200                           OCT      00200                                 #  16 1COMP  SECONDS
002775: 06,2171           00241                           OCT      00241                                 #  17 1COMP  HOURS
002776: 06,2172           04102                           OCT      04102                                 #  20 3COMP  DEGREES
002777: 06,2173           04140                           OCT      04140                                 #  21 3COMP  WHOLE
002778: 06,2174           04102                           OCT      04102                                 #  22 3COMP  DEGREES
002779: 06,2175           04102                           OCT      04102                                 #  23 3COMP  DEGREES
002780: 06,2176           00200                           OCT      00200                                 #  24 1COMP  SECONDS
002781: 06,2177           00140                           OCT      00140                                 #  25 1COMP  WHOLE
002782: 06,2200           04000                           OCT      04000                                 #  26 3COMP  OCTAL ONLY
002783: 06,2201           00140                           OCT      00140                                 #  27 1COMP  WHOLE
002784: 06,2202           04140                           OCT      04140                                 #  30 3COMP  WHOLE
002785: 06,2203           02000                           OCT      02000                                 #  31 3COMP  OCTAL ONLY
002786: 06,2204           00252                           OCT      00252                                 #  32 1COMP  TIME WEEKS
002787: 06,2205           00252                           OCT      00252                                 #  33 1COMP  TIME WEEKS
002788: 06,2206           00350                           OCT      00350                                 #  34 1COMP  POSITION
002789: 06,2207           04102                           OCT      04102                                 #  35 3COMP  DEGREES
002790: 06,2210           04000                           OCT      04000                                 #  36 3COMP  OCTAL ONLY
002791: 06,2211           04000                           OCT      04000                                 #  37 3COMP  OCTAL ONLY
002792: 06,2212           00000                           OCT      00000                                 #  40        SPARE
002793: 06,2213           00000                           OCT      00000                                 #  41        SPARE
002794: 06,2214           00000                           OCT      00000                                 #  42        SPARE
002795: 06,2215           00000                           OCT      00000                                 #  43        SPARE
002796: 06,2216           00000                           OCT      00000                                 #  44        SPARE
002797: 06,2217           00000                           OCT      00000                                 #  45        SPARE
002798: 06,2220           00000                           OCT      00000                                 #  46        SPARE
002799: 06,2221           00000                           OCT      00000                                 #  47        SPARE
002800: 06,2222           00000                           OCT      00000                                 #  50        SPARE
002801: 06,2223           00000                           OCT      00000                                 #  51        SPARE
002802: 06,2224           04144                           OCT      04144                                 #  52 3COMP  GYRO BIAS DRIFT
002803: 06,2225           04145                           OCT      04145                                 #  53 3COMP  GYRO AXIS ACCEL. DRIFT
002804: 06,2226           04145                           OCT      04145                                 #  54 3COMP  GYRO AXIS ACCEL. DRIFT
002805:
002806:                                                                                                  #  NN        MIXED NOUNS
002807: 06,2227           00102                           OCT      00102                                 #  55 2COMP  DEGREES, Y OPT DEGREES
002808: 06,2230           00102                           OCT      00102                                 #  56 3COMP  DEGREES, Y OPT DEGREES, SECS
002809: 06,2231           00102                           OCT      00102                                 #  57 2COMP  DEGREES, Y OPT DEGREES
002810: 06,2232           00000                           OCT      00000                                 #  60 3COMP  OCTAL ONLY
002811: 06,2233           00542                           OCT      00542                                 #  61 2COMP  DEGREES, ELEVATION DEGREES
002812: 06,2234           00002                           OCT      00002                                 #  62 2COMP  DEGREES, SECS
002813: 06,2235           00002                           OCT      00002                                 #  63 2COMP  DEGREES, SECS
002814: 06,2236           00002                           OCT      00002                                 #  64 2COMP  Y OPT DEGREES, SECS
002815: 06,2237           00001                           OCT      00001                                 #  65 2COMP  HOURS, SECONDS
002816: 06,2240           00000                           OCT      00000                                 #  66 3COMP  WHOLE, FRACTIONAL, WHOLE
002817: 06,2241           06143                           OCT      06143                                 #  67 3COMP  GYRO DEGREES FOR EACH
002818: 06,2242           14306                           OCT      14306                                 #  70 3COMP  PIPA BIAS FOR EACH


002820: 06,2243           16347                           OCT      16347                                 #  71 3COMP  PIPA SCALE FACTOR ERR.FOR EACH
002821: 06,2244           20410                           OCT      20410                                 #  72 3COMP  POSITION FOR EACH
002822: 06,2245           22451                           OCT      22451                                 #  73 3COMP  VELOCITY FOR EACH
002823: 06,2246           00412                           OCT      00412                                 #  74 3COMP  TIME WEEKS, POSITION, WHOLE
002824: 06,2247           20450                           OCT      20450                                 #  75 3COMP  POSITION, VELOCITY, POSITION
002825: 06,2250           20410                           OCT      20410                                 #  76 3COMP  POSITION FOR EACH
002826: 06,2251           22451                           OCT      22451                                 #  77 3COMP  VELOCITY FOR EACH
002827:
002828:
002829:
002830: 06,2252           00006        SFINTAB            OCT      00006                                 #  WHOLE,TIME(SEC)
002831: 06,2253           03240                           OCT      03240
002832: 06,2254           00253                           OCT      00253                                 #  TIME HOURS ( = 1.3..... )
002833: 06,2255           25124                           OCT      25124                                 #    (POINT BETWEEN BITS 7-8 )
002834: 06,2256           00000                           OCT      0                                     #  DEGREES (SFCON IN DEGINSF)
002835: 06,2257           00000                           OCT      0
002836: 06,2260           00021                           OCT      00021                                 #  GYRO DEGREES
002837: 06,2261           30707                           OCT      30707
002838: 06,2262           00001                           OCT      00001                                 #  GYRO BIAS DRIFT
002839: 06,2263           02133                           OCT      02133
002840: 06,2264           00011                           OCT      00011                                 #  GYRO AXIS ACCEL. DRIFT
002841: 06,2265           30322                           OCT      30322
002842: 06,2266           00004                           OCT      00004                                 #  PIPA BIAS
002843: 06,2267           14021                           OCT      14021
002844: 06,2270           00314                           OCT      00314                                 #  PIPA SCALE ERROR.
002845: 06,2271           31463                           OCT      31463
002846: 06,2272           23420                           OCT      23420                                 #  POSITION
002847: 06,2273           00000                           OCT      00000
002848: 06,2274           00201                           OCT      00201                                 #  VELOCITY
002849: 06,2275           30327                           OCT      30327                                 #  ( POINT BETWEEN BITS 7-8 )
002850: 06,2276           01371                           OCT      01371                                 #  TIME WEEKS
002851: 06,2277           34750                           OCT      34750                                 #  ( POINT BETWEEN BITS 7-8 )
002852: 06,2300           00001                           OCT      00001                                 #  ELEVATION DEGREES
002853: 06,2301           03434                           OCT      03434
002854:                                                                                                  #  END OF SFINTAB
002855:
002856:
002857:
002858: 06,2302           05174        SFOUTAB            OCT      05174                                 #  WHOLE, TIME(SEC)
002859: 06,2303           13261                           OCT      13261
002860: 06,2304           27670                           OCT      27670                                 #  TIME HOURS
002861: 06,2305           31357                           OCT      31357
002862: 06,2306           00000                           OCT      0                                     #  DEGREES
002863: 06,2307           00000                           OCT      0
002864: 06,2310           01631                           OCT      01631                                 #  GYRO DEGREES
002865: 06,2311           23146                           OCT      23146
002866: 06,2312           35753                           OCT      35753                                 #  GYRO BIAS DRIFT
002867: 06,2313           32323                           OCT      32323
002868: 06,2314           03216                           OCT      03216                                 #  GYRO AXIS ACCEL. DRIFT
002869: 06,2315           06400                           OCT      06400


002871: 06,2316           07237                           OCT      07237                                 #  PIPA BIAS
002872: 06,2317           37776                           OCT      37776
002873: 06,2320           00120                           OCT      00120                                 #  PIPA SCALE ERROR
002874: 06,2321           00000                           OCT      00000
002875: 06,2322           00321                           OCT      00321                                 #  POSITION
002876: 06,2323           26706                           OCT      26706                                 #  ( POINT BETWEEN BITS 7-8 )
002877: 06,2324           37441                           OCT      37441                                 #  VELOCITY
002878: 06,2325           14247                           OCT      14247
002879: 06,2326           05300                           OCT      05300                                 #  TIME WEEKS
002880: 06,2327           20305                           OCT      20305
002881: 06,2330           34631                           OCT      34631                                 #  ELEVATION DEGREES
002882: 06,2331           23146                           OCT      23146
002883:                                                                                                  #  END OF SFOUTAB
002884:
002885:
002886:
002887:                                                                                                  #  MIXNOUN  SF ROUT
002888: 06,2332           00036        IDADDTAB           ECADR    OPTX                                  #  01       DEGREES
002889: 06,2333           00035                           ECADR    OPTY                                  #  01       Y OPT DEGREES
002890: 06,2334           00706                           ECADR    DSPTEM1                               #  02       DEGREES
002891: 06,2335           00707                           ECADR    DSPTEM1    +1                         #  02       Y OPT DEGREES
002892: 06,2336           00710                           ECADR    DSPTEM1    +2                         #  02       SEC
002893: 06,2337           00752                           ECADR    DESOPTX                               #  03       DEGREES
002894: 06,2340           00753                           ECADR    DESOPTX    +1                         #  03       Y OPT DEGREES
002895: 06,2341           01017                           ECADR    WASKSET                               #  04       OCTAL ONLY****CHANGE TO IN3****
002896: 06,2342           01017                           ECADR    WASKSET                               #  04       OCTAL ONLY
002897: 06,2343           01021                           ECADR    OLDERR                                #  04       OCTAL ONLY
002898: 06,2344           00706                           ECADR    DSPTEM1                               #  05       DEGREES
002899: 06,2345           00707                           ECADR    DSPTEM1    +1                         #  05       ELEVATION DEGREES
002900: 06,2346           00034                           ECADR    CDUZ                                  #  06       DEGREES
002901: 06,2347           00024                           ECADR    TIME2                                 #  06       SEC
002902: 06,2350           00036                           ECADR    OPTX                                  #  07       DEGREES
002903: 06,2351           00024                           ECADR    TIME2                                 #  07       SEC
002904: 06,2352           00035                           ECADR    OPTY                                  #  10       Y OPT DEGREES
002905: 06,2353           00024                           ECADR    TIME2                                 #  10       SEC
002906: 06,2354           00754                           ECADR    SAMPTIME                              #  11       HOURS
002907: 06,2355           00754                           ECADR    SAMPTIME                              #  11       SECONDS
002908: 06,2356           00711                           ECADR    DSPTEM2                               #  12       WHOLE
002909: 06,2357           00712                           ECADR    DSPTEM2    +1                         #  12       FRACTIONAL
002910: 06,2360           00713                           ECADR    DSPTEM2    +2                         #  12       WHOLE
002911: 06,2361           00756                           ECADR    DELVX                                 #  13       GYRO DEGREES
002912: 06,2362           00760                           ECADR    DELVX      +2                         #  13       GYRO DEGREES
002913: 06,2363           00762                           ECADR    DELVX      +4                         #  13       GYRO DEGREES
002914: 06,2364           00764                           ECADR    PBIASX                                #  14       PIPA BIAS
002915: 06,2365           00766                           ECADR    PBIASY                                #  14       PIPA BIAS
002916: 06,2366           00770                           ECADR    PBIASZ                                #  14       PIPA BIAS
002917: 06,2367           00765                           ECADR    PIPASCFX                              #  15       PIPA SCALE FACTOR ERROR
002918: 06,2370           00767                           ECADR    PIPASCFY                              #  15       PIPA SCALE FACTOR ERROR
002919: 06,2371           00771                           ECADR    PIPASCFZ                              #  15       PIPA SCALE FACTOR ERROR
002920: 06,2372           01000                           ECADR    DELR                                  #  16       POSITION


002922: 06,2373           01002                           ECADR    DELR       +2                         #  16       POSITION
002923: 06,2374           01004                           ECADR    DELR       +4                         #  16       POSITION
002924: 06,2375           01006                           ECADR    DELVEL                                #  17       VELOCITY
002925: 06,2376           01010                           ECADR    DELVEL     +2                         #  17       VELOCITY
002926: 06,2377           01012                           ECADR    DELVEL     +4                         #  17       VELOCITY
002927: 06,2400           00722                           ECADR    TDEC                                  #  20       TIME WEEKS
002928: 06,2401           00726                           ECADR    MEASQ                                 #  20       POSITION
002929: 06,2402           01014                           ECADR    MEASMODE                              #  20       WHOLE
002930: 06,2403           00706                           ECADR    DSPTEM1                               #  21       POSITION
002931: 06,2404           00710                           ECADR    DSPTEM1    +2                         #  21       VELOCITY
002932: 06,2405           01015                           ECADR    DELTAQ                                #  21       POSITION
002933: 06,2406           00706                           ECADR    DSPTEM1                               #  22       POSITION
002934: 06,2407           00710                           ECADR    DSPTEM1    +2                         #  22       POSITION
002935: 06,2410           00712                           ECADR    DSPTEM1    +4                         #  22       POSITION
002936: 06,2411           00706                           ECADR    DSPTEM1                               #  23       VELOCITY
002937: 06,2412           00710                           ECADR    DSPTEM1    +2                         #  23       VELOCITY
002938: 06,2413           00712                           ECADR    DSPTEM1    +4                         #  23       VELOCITY
002939: 06,2414           00000                           OCT      00000                                 #           SPARE
002940: 06,2415           00000                           OCT      00000                                 #           SPARE
002941: 06,2416           00000                           OCT      00000                                 #           SPARE
002942: 06,2417           00000                           OCT      00000                                 #           SPARE
002943: 06,2420           00000                           OCT      00000                                 #           SPARE
002944: 06,2421           00000                           OCT      00000                                 #           SPARE
002945:                                                                                                  #  END OF IDADDTAB
002946:
002947:
002948:
002949:                                                                                                  #  MIXNOUN  SF ROUT
002950: 06,2422           00302        RUTMXTAB           OCT      00302                                 #  01  DEGREES, Y OPT DEGREES
002951: 06,2423           10302                           OCT      10302                                 #  02  DEGREES, Y OPT DEGREES, SECONDS
002952: 06,2424           00302                           OCT      00302                                 #  03  DEGREES, Y OPT DEGREES
002953: 06,2425           00000                           OCT      00000                                 #  04  OCTAL ONLY
002954: 06,2426           00142                           OCT      00142                                 #  05  DEGREES, ELEVATION DEGREES
002955: 06,2427           00202                           OCT      00202                                 #  06  DEGREES, SECONDS
002956: 06,2430           00202                           OCT      00202                                 #  07  DEGREES, SECONDS
002957: 06,2431           00206                           OCT      00206                                 #  10  Y OPT DEGREES, SECONDS
002958: 06,2432           00205                           OCT      00205                                 #  11  HOURS, SECONDS
002959: 06,2433           06043                           OCT      06043                                 #  12  WHOLE, FRACTIONAL, WHOLE
002960: 06,2434           10204                           OCT      10204                                 #  13  GYRO DEGREES (FOR EACH)
002961: 06,2435           06143                           OCT      06143                                 #  14  PIPA BIAS (FOR EACH)
002962: 06,2436           06143                           OCT      06143                                 #  15  PIPA SCALE FACTOR ERROR (FOR EACH)
002963: 06,2437           16347                           OCT      16347                                 #  16  POSITION (FOR EACH)
002964: 06,2440           12245                           OCT      12245                                 #  17  VELOCITY (FOR EACH)
002965: 06,2441           06345                           OCT      06345                                 #  20  TIME WEEKS, POSITION, WHOLE
002966: 06,2442           16247                           OCT      16247                                 #  21  POSITION, VELOCITY, POSITION
002967: 06,2443           16347                           OCT      16347                                 #  22  POSITION (FOR EACH)
002968: 06,2444           12245                           OCT      12245                                 #  23  VELOCITY (FOR EACH)
002969:                                                                                                  #  END OF RUTMXTAB
002970:


002972:                                                                                                  #  MISCELLANEOUS SERVICE ROUTINES IN FIXED/FIXED
002973:
002974:
002975:
002976:    4430                                           SETLOC   DATWAIT1   +2
002977:
002978:                                                                                                  #  SETNCADR      E CADR ARRIVES IN A. IT IS STORED IN NOUNCADR. EBANK BITS
002979:                                                                                                  #                ARE SET. E ADRES IS DERIVED AND PUT INTO NOUNADD.
002980:
002981:    4430           54657        SETNCADR           TS       NOUNCADR                              #  STORE ECADR
002982:    4431           54003                           TS       EBANK                                 #  SET EBANK BITS
002983:    4432           74504                           MASK     LOW8
002984:    4433           64505                           AD       OCT1400
002985:    4434           54131                           TS       NOUNADD                               #  PUT E ADRES INTO NOUNADD
002986:    4435           00002                           TC       Q
002987:
002988:
002989:
002990:                                                                                                  #  SETNADD       GETS E CADR FROM NOUNCADR, SETS EBANK BITS, DERIVES
002991:                                                                                                  #                E ADRES AND PUTS IT INTO NOUNADD.
002992:
002993:    4436           30657        SETNADD            CA       NOUNCADR
002994:    4437           14431                           TCF      SETNCADR   +1
002995:
002996:
002997:
002998:                                                                                                  #  SETEBANK      E CADR ARRIVES IN A. EBANK BITS ARE SET. E ADRES IS
002999:                                                                                                  #                DERIVED AND LEFT IN A.
003000:
003001:    4440           54003        SETEBANK           TS       EBANK                                 #  SET EBANK BITS
003002:    4441           74504                           MASK     LOW8
003003:    4442           64505                           AD       OCT1400                               #  E ADRES LEFT IN A
003004:    4443           00002                           TC       Q
003005:
003006:
003007:
003008:    4444           00016        R1D1               OCT      16
003009:    4445           00011        R2D1               OCT      11
003010:    4446           00004        R3D1               OCT      4
003011:
003012:    4447           54020        RIGHT5             TS       CYR
003013:    4450           40020                           CS       CYR
003014:    4451           40020                           CS       CYR
003015:    4452           40020                           CS       CYR
003016:    4453           40020                           CS       CYR
003017:    4454           56020                           XCH      CYR
003018:    4455           00002                           TC       Q
003019:
003020:    4456           54022        LEFT5              TS       CYL
003021:    4457           40022                           CS       CYL


003023:    4460           40022                           CS       CYL
003024:    4461           40022                           CS       CYL
003025:    4462           40022                           CS       CYL
003026:    4463           56022                           XCH      CYL
003027:    4464           00002                           TC       Q
003028:
003029:    4465           60000        SLEFT5             DOUBLE
003030:    4466           60000                           DOUBLE
003031:    4467           60000                           DOUBLE
003032:    4470           60000                           DOUBLE
003033:    4471           60000                           DOUBLE
003034:    4472           00002                           TC       Q
003035:
003036:
003037:
003038:    4473           00037        LOW5               OCT      37
003039:    4474           01740        MID5               OCT      1740
003040:    4475           76000        HI5                OCT      76000                                 #  MUST STAY HERE
003041:
003042:    4476           04131        TCNOVAC            TC       NOVAC
003043:    4477           04251        TCWAIT             TC       WAITLIST
003044:    4500           04321        TCTSKOVR           TC       TASKOVER
003045:    4501           04142        TCFINDVC           TC       FINDVAC
003046:
003047:
003048:
003049:    4502           30000        CHRPRIO            OCT      30000                                 #  EXEC PRIORITY OF CHARIN
003050:
003051:
003052:
003053:    4503           03777        LOW11              OCT      3777
003054:    4504           00377        LOW8               OCT      377
003055:    4505           01400        OCT1400            OCT      1400
003056:
003057:
003058:
003059:    4506           00023        VD1                OCT      23
003060:    4507           00021        ND1                OCT      21
003061:    4510           00025        MD1                OCT      25
003062:
003063:    4511           00012        BINCON             DEC      10         B-14
003064:
003065:    4512           37640        FALTON             CA       BIT7                                  #  TURN ON OPERATOR ERROR LIGHT
003066:    4513           00006                           EXTEND
003067:    4514           05011                           WOR      DSALMOUT                              #  BIT 7 OF CHANNEL 11
003068:    4515           00002                           TC       Q
003069:
003070:    4516           47640        FALTOF             CS       BIT7                                  #  TURN OFF OPERATOR ERROR LIGHT
003071:    4517           00006                           EXTEND
003072:    4520           03011                           WAND     DSALMOUT                              #  BIT 7 OF CHANNEL 11


003074:    4521           00002                           TC       Q
003075:
003076:    4522           37642        RELDSPON           CAF      BIT5                                  #  TURN ON KEY RELEASE LIGHT
003077:    4523           00006                           EXTEND
003078:    4524           05011                           WOR      DSALMOUT                              #  BIT 5 OF CHANNEL 11
003079:    4525           00002                           TC       Q
003080:
003081:    4526           00006        LODSAMPT           EXTEND
003082:    4527           30025                           DCA      TIME2
003083:    4530           52755                           DXCH     SAMPTIME
003084:    4531           00002                           TC       Q
003085:
003086:
003087:
003088:    4532           00006        TPSL1              EXTEND                                         #  SHIFTS MPAC, +1, +2 LEFT 1
003089:    4533           30142                           DCA      MPAC       +1                         #  LEAVES OVFIND SET TO +/- 1 FOR OF/UF
003090:    4534           20142                           DAS      MPAC       +1
003091:    4535           60140                           AD       MPAC
003092:    4536           26140                           ADS      MPAC
003093:    4537           54007                           TS       7                                     #  TS A DOES NOT CHANGE A ON OF/UF.
003094:    4540           00002                           TC       Q                                     #  NO NET OF/UF
003095:    4541           54105                           TS       OVFIND                                #  OVFIND SET TO +/- 1 FOR OF/UF
003096:    4542           00002                           TC       Q
003097:
003098:
003099:
003100:    4543           37641        FLASHON            CAF      BIT6                                  #  TURN ON V/N FLASH
003101:    4544           00006                           EXTEND                                         #  BIT 6 OF CHANNEL 11
003102:    4545           05011                           WOR      DSALMOUT
003103:    4546           00002                           TC       Q
003104:
003105:
003106:
003107:    4547           47641        FLASHOFF           CS       BIT6                                  #  TURN OFF V/N FLASH
003108:    4550           00006                           EXTEND
003109:    4551           03011                           WAND     DSALMOUT                              #  BIT 6 OF CHANNEL 11
003110:    4552           00002                           TC       Q
003111:


003113:                                                                                                  #  INTERNAL ROUTINES THAT USE THE KEYBOARD AND DISPLAY SYSTEM(THRU
003114:                                                                                                  #  NVSUB) MUST  TC GRABDSP  BEFOREHAND , TO GRAB THE DISPLAY SYSTEM AND
003115:                                                                                                  #  MAKE IT BUSY TO OTHER INTERNAL USERS.
003116:
003117:                                                                                                  #        WHEN FINISHED , THERE MUST BE A TC FREEDSP , TO RELEASE THE
003118:                                                                                                  #  SYSTEM FOR OTHER INTERNAL USERS.
003119:
003120:                                                                                                  #        THE CALLING SEQUENCES ARE
003121:                                                                                                  #  L        TC     GRABDSP
003122:                                                                                                  #  L+1      RETURN HERE WHEN SYSTEM IS ALREADY GRABBED
003123:                                                                                                  #  L+2      RETURN HERE MEANS YOU HAVE IT
003124:
003125:                                                                                                  #  L        TC     NVSUB
003126:                                                                                                  #  L+1      RETURN HERE IF OPERATOR HAS INTERVENED
003127:                                                                                                  #  L+2      RETURN HERE AFTER EXECUTION
003128:
003129:
003130:
003131:                                                                                                  #        A ROUTINE CALLED GRABUSY IS PROVIDED (USE IS OPTIONAL) TO PUT YOUR
003132:                                                                                                  #  JOB TO SLEEP UNTIL  THE SYSTEM IS FREED BY THE JOB HOLDING IT.
003133:                                                                                                  #  GRABUSY CANNOT BE CALLED FROM E MEMORY, SINCE JOBSLEEP AND JOBWAKE
003134:                                                                                                  #  HANDLE ONLY FIXED MEMORY.
003135:                                                                                                  #  YOUR CADR IS PUT AT FIRST AVAILABLE SLOT IN A WAITING LIST (FIFO).
003136:
003137:                                                                                                  #        THE CALLING SEQUENCE IS
003138:                                                                                                  #           CAF    WAKEFCADR
003139:                                                                                                  #           TC     GRABUSY
003140:
003141:                                                                                                  #        A ROUTINE CALLED  NVSUBUSY IS PROVIDED (USE IS OPTIONAL)  TO PUT
003142:                                                                                                  #  YOUR JOB TO SLEEP UNTIL THE OPERATOR RELEASES IT.
003143:                                                                                                  #  NVSUBUSY CANNOT BE CALLED FROM E MEMORY, SINCE JOBSLEEP AND JOBWAKE
003144:                                                                                                  #  HANDLE ONLY FIXED MEMORY.
003145:                                                                                                  #                                              YOUR CADR IS PUT
003146:                                                                                                  #  ON TOP OF A WAITING LIST (FIFO). IT ALSO TURNS ON KEY RELEASE LIGHT.
003147:
003148:                                                                                                  #         THE CALLING SEQUENCE IS
003149:                                                                                                  #           CAF    WAKEFCADR
003150:                                                                                                  #           TC     NVSUBUSY
003151:
003152:
003153:                                                                                                  #  AFTER A TC FREEDSP, THE INTERNAL INTERLOCK IS KEPT BUSY FOR 10 SECONDS,
003154:                                                                                                  #  AFTER WHICH A CADR IS CALLED FROM THE LIST. THIS INSURES THAT ALL
003155:                                                                                                  #  DISPLAYS WAITING WILL BE VISIBLE.
003156:
003157:
003158:
003159:                                                                                                  #  GRABLOCK IS THE INTERNAL INTERLOCK FOR THE USE OF THE KEYBOARD
003160:                                                                                                  #  AND DISPLAY SYSTEM.
003161:                                                                                                  #  +0  FREE


003163:                                                                                                  #  +1  SOME INTERNAL ROUTINE HAS GRABBED DSP SYST
003164:                                                                                                  #  +2  SOME INTERNAL ROUTINE HAS GONE TO NVSUBUSY
003165:
003166:
003167:
003168:    4553           10677        GRABDSP            CCS      GRABLOCK
003169:    4554           00002                           TC       Q                                     #  ALREADY GRABBED, RETURN TO L+1
003170:    4555           37646                           CAF      ONE                                   #  NOT GRABBED, SET TO +1
003171:    4556           54677                           TS       GRABLOCK                              #  AND RETURN TO L+2
003172:    4557           50002                           INDEX    Q
003173:    4560           00001                           TC       1
003174:
003175:
003176:
003177:    4561           36425        PREGBSY            CAF      LOW10                                 #  SPECIAL ENTRANCE FOR ROUTINES IN FIXED
003178:    4562           70002                           MASK     Q                                     #  BANKS ONLY DESIRING THE FCADR OF
003179:    4563           60004                           AD       FBANK                                 #  1 + (LOC FROM WHICH TC PREGBSY WAS DONE)
003180:    4564           04102        GRABUSY            TC       POSTJUMP                              #  TO BE ENTERED.
003181:    4565           10000                           CADR     GRABUSYB
003182: 04,3432                                           SETLOC   DOPROC     +2
003183: 04,3432           54001        GRABUSY1           TS       L
003184: 04,3433           10677                           CCS      GRABLOCK
003185: 04,3434           03437                           TC       +3                                    #  STILL GRABBED
003186: 04,3435           30001                           CA       L                                     #  NOT GRABBED SO DO DIRECT CALL
003187: 04,3436           04105                           TC       BANKJUMP
003188: 04,3437           37645                           CAF      TWO
003189: 04,3440           54130                           TS       LSTPTR
003190: 04,3441           50130                           INDEX    LSTPTR                                #  SEARCH LIST FOR FIRST AVAILABLE SPACE
003191: 04,3442           10702                           CCS      DSPLIST                               #  FROM BOTTOM.
003192: 04,3443           03445                           TC       +2
003193: 04,3444           03450                           TC       PUTINLST                              #  SPACE FOUND
003194: 04,3445           10130                           CCS      LSTPTR                                #  DECREMENT POINTER
003195: 04,3446           03440                           TC       -6
003196: 04,3447           03514                           TC       LSTFULL
003197: 04,3450           30001        PUTINLST           CA       L
003198: 04,3451           50130                           INDEX    LSTPTR
003199: 04,3452           54702                           TS       DSPLIST
003200: 04,3453           04164                           TC       JOBSLEEP
003201:
003202:
003203:
003204:                                                                                                  #  GRABWAIT IS A SPECIAL ENTRANCE FOR ROUTINES IN FIXED BANKS ONLY. IF
003205:                                                                                                  #  SYSTEM IS NOT GRABBED, IT GRABS IT AND RETURNS TO L+1 ( L = LOC FROM
003206:                                                                                                  #  WHICH THE TC GRABWAIT WAS DONE). IF SYSTEM IS GRABBED, IT PUTS CALLING
003207:                                                                                                  #  JOB TO SLEEP WITH L+1 GOING INTO LIST FOR EVENTUAL WAKING UP WHEN
003208:                                                                                                  #  SYSTEM IS FREED.
003209:
003210:    4566                                           SETLOC   GRABUSY    +2
003211:    4566           10677        GRABWAIT           CCS      GRABLOCK
003212:    4567           14561                           TCF      PREGBSY                               #  GRABBED. PUT L+1 INTO LIST. GO TO SLEEP.


003214:    4570           37646                           CAF      ONE                                   #  NOT GRABBED. GRAB AND RETURN TO L+1.
003215:    4571           54677                           TS       GRABLOCK
003216:    4572           00002                           TC       Q
003217:
003218:
003219:
003220:    4573           44600        PRENVBSY           CS       2K+3                                  #  SPECIAL ENTRANCE FOR ROUTINES IN FIXED
003221:    4574           60002                           AD       Q                                     #  BANKS ONLY DESIRING THE FCADR OF(LOC
003222:    4575           60004                           AD       FBANK                                 #  FROM WHICH THE TC PRENVBSY WAS DONE) -2
003223:    4576           04102        NVSUBUSY           TC       POSTJUMP                              #  TO BE ENTERED.
003224:    4577           10001                           CADR     NVSUBSYB
003225:    4600           02003        2K+3               OCT      2003
003226:
003227: 04,3454                                           SETLOC   PUTINLST   +4
003228: 04,3454           54001        NVSUBSY1           TS       L
003229: 04,3455           10652                           CCS      DSPLOCK                               #  TEST IF REALLY LOCKED OUT
003230: 04,3456           03461                           TC       +3                                    #  STILL BUSY
003231: 04,3457           30001                           CA       L                                     #  DSPLOCK = +0 SO RETURN DIRECTLY
003232: 04,3460           04105                           TC       BANKJUMP
003233: 04,3461           37645                           CAF      TWO                                   #  SET FOR GRABBED STATE AND NVSUBUSY USE
003234: 04,3462           54677                           TS       GRABLOCK
003235: 04,3463           30001                           CA       L
003236: 04,3464           56704                           XCH      DSPLIST    +2                         #  ENTER CADR INTO FIRST POSITION OF LIST
003237: 04,3465           56703                           XCH      DSPLIST    +1                         #          (BOTTOM)
003238: 04,3466           56702                           XCH      DSPLIST
003239: 04,3467           10000                           CCS      A
003240: 04,3470           03514                           TC       LSTFULL
003241: 04,3471           03473                           TC       +2
003242: 04,3472           03514                           TC       LSTFULL
003243: 04,3473           04522                           TC       RELDSPON
003244: 04,3474           30001                           CA       L
003245: 04,3475           04164        ENDNVBSY           TC       JOBSLEEP
003246:
003247:
003248:
003249:                                                                                                  #  NVSBWAIT IS A SPECIAL ENTRANCE FOR ROUTINES IN FIXED BANKS ONLY. IF
003250:                                                                                                  #  SYSTEM IS NOT BUSY, IT EXECUTES V/N AND RETURNS TO L+1 (L= LOC FROM
003251:                                                                                                  #  WHICH THE TC NVSBWAIT WAS DONE). IF SYSTEM IS BUSY, IT PUTS CALLING JOB
003252:                                                                                                  #  TO SLEEP WITH L-1 GOING INTO LIST FOR EVENTUAL WAKING UP WHEN SYSTEM
003253:                                                                                                  #  IS NOT BUSY.
003254:
003255:    4601                                           SETLOC   NVSUBUSY   +3
003256:    4601           54107        NVSBWAIT           TS       NVTEMP
003257:    4602           10652                           CCS      DSPLOCK
003258:    4603           14606                           TCF      NVSBWT1                               #  BUSY
003259:    4604           30002                           CA       Q                                     #  FREE. NVSUB WILL SAVE L+1 FOR RETURN
003260:    4605           14363                           TCF      NVSUB      +5                         #  AFTER EXECUTION.
003261:    4606           24002        NVSBWT1            INCR     Q                                     #  L+2. PRENVBSY WILL PUT L-1 INTO LIST AND
003262:    4607           14573                           TCF      PRENVBSY                              #  GO TO SLEEP.
003263:


003265:    4610           56002        RELDSP             XCH      Q                                     #  SET DSPLOCK TO +0, TURN RELDSP LIGHT
003266:    4611           54130                           TS       RELRET                                #  OFF, SEARCH DSPLIST
003267:    4612           37655                           CAF      NEG1
003268:    4613           60677                           AD       GRABLOCK
003269:    4614           00006                           EXTEND                                         #  SEARCH LIST ONLY IF GRABLOCK = +2
003270:    4615           64623                           BZMF     RELDSP2                               #    (SOMEONE USED NVSUBUSY)
003271:    4616           04636                           TC       WKSEARCH
003272:    4617           04623                           TC       RELDSP2                               #  LIST EMPTY
003273:    4620           04170                           TC       JOBWAKE                               #  LIST NOT EMPTY
003274:    4621           37646                           CAF      ONE
003275:    4622           54677                           TS       GRABLOCK
003276:    4623           00004        RELDSP2            INHINT
003277:    4624           47642                           CS       BIT5                                  #  TURN OFF KEY RELEASE LIGHT
003278:    4625           00006                           EXTEND                                         #  (BIT 5 OF CHANNEL 11)
003279:    4626           03011                           WAND     DSALMOUT
003280:    4627           37653                           CAF      ZERO
003281:    4630           54652                           TS       DSPLOCK
003282:    4631           00003                           RELINT
003283:    4632           00130                           TC       RELRET
003284:    4633           56002        RELDSP1            XCH      Q                                     #  SET DSPLOCK TO +0, RELDSP LIGHT OFF.
003285:    4634           54130                           TS       RELRET                                #  NO LIST SEARCH
003286:    4635           04623                           TC       RELDSP2
003287:
003288:
003289:
003290:    4636           37653        WKSEARCH           CAF      ZERO                                  #  SEARCHES LIST. LEAVES RESULT IN A.
003291:    4637           56702                           XCH      DSPLIST                               #  IF EMPTY, RETURN TO L+1.
003292:    4640           56703                           XCH      DSPLIST    +1                         #  IF NOT EMPTY, INHINT AND RETURN TO L+2.
003293:    4641           56704                           XCH      DSPLIST    +2
003294:    4642           00006                           EXTEND
003295:    4643           14647                           BZF      +4                                    #  EMPTY
003296:    4644           00004                           INHINT                                         #  NOT EMPTY
003297:    4645           50002                           INDEX    Q                                     #  RETURN TO L+2
003298:    4646           00001                           TC       1
003299:    4647           00002                           TC       Q                                     #  RETURN TO L+1
003300:
003301:
003302:
003303:    4650           56002        FREEDSP            XCH      Q
003304:    4651           54130                           TS       FREERET
003305:    4652           00004                           INHINT
003306:    4653           34661                           CAF      SHOTIME
003307:    4654           04251                           TC       WAITLIST
003308:    4655     0637                                  EBANK=   DSPCOUNT
003309:    4655           03476 10001                     2CADR    FREEWAIT
003310:
003311:    4657           00003                           RELINT
003312:    4660           00130                           TC       FREERET
003313:
003314:    4661           01750        SHOTIME            OCT      1750
003315:


003317: 04,3476                                           SETLOC   ENDNVBSY   +1
003318:
003319: 04,3476           34502        FREEWAIT           CAF      CHRPRIO                               #  CALLED BY T3RUPT
003320: 04,3477           04131                           TC       NOVAC
003321: 04,3500     0637                                  EBANK=   DSPCOUNT
003322: 04,3500           03503 10001                     2CADR    FREDSPD0
003323:
003324: 04,3502           04321                           TC       TASKOVER
003325:
003326:
003327:
003328: 04,3503           04636        FREDSPD0           TC       WKSEARCH                              #  CALLED BY EXECUTIVE
003329: 04,3504           03512                           TC       LSTEMPTY                              #  LIST EMPTY
003330: 04,3505           04170                           TC       JOBWAKE                               #  LIST NOT EMPTY
003331: 04,3506           00003                           RELINT
003332: 04,3507           37646                           CAF      ONE                                   #  SET FOR GRABBED CONDITION
003333: 04,3510           54677                           TS       GRABLOCK
003334: 04,3511           04205                           TC       ENDOFJOB
003335: 04,3512           37653        LSTEMPTY           CAF      ZERO                                  #  SET FOR FREE CONDITION
003336: 04,3513           03510                           TC       -3
003337:
003338:
003339:
003340: 04,3514           04662        LSTFULL            TC       ABORT
003341: 04,3515           01206                           OCT      01206                                 #  PINBALL WAITING LINE FULL.
003342:
003343:    4662                                           SETLOC   SHOTIME    +1
003344:    4662           04662        ABORT              TC       ABORT                                 #  ****FIX LATER*****
003345:


003347:                                                                                                  #  VBTSTLTS TURNS ON ALL DISPLAY PANEL LIGHTS. AFTER 5 SEC, IT TURNS
003348:                                                                                                  #  OFF THE CAUTION AND STATUS LIGHTS.
003349:
003350: 05,3414                                           SETLOC   DSPMMEND   +1
003351:
003352: 05,3414           33453        VBTSTLTS           CAF      TSTCON1                               #  TURN ON UPLINK ACTIVITY, TEMP, KEY RLSE,
003353: 05,3415           00006                           EXTEND                                         #  V/N FLASH, OPERATOR ERROR.
003354: 05,3416           05011                           WOR      DSALMOUT
003355: 05,3417           33454                           CAF      TSTCON2                               #  TURN ON AUTO, HOLD, NO ATT, SPARE,
003356: 05,3420           54675                           TS       DSPTAB     +11D                       #  GIMBAL LOCK, SPARE, TRACKER, PROG ALM.
003357: 05,3421           37635                           CAF      BIT10                                 #  TURN ON TEST ALARM OUTBIT
003358: 05,3422           00006                           EXTEND
003359: 05,3423           05013                           WOR      CHAN13
003360: 05,3424           00004                           INHINT
003361: 05,3425           37650                           CAF      TEN
003362: 05,3426           54103        TSTLTS1            TS       ERCNT
003363: 05,3427           43451                           CS       FULLDSP
003364: 05,3430           50103                           INDEX    ERCNT
003365: 05,3431           54662                           TS       DSPTAB
003366: 05,3432           10103                           CCS      ERCNT
003367: 05,3433           03426                           TC       TSTLTS1
003368: 05,3434           43452                           CS       FULLDSP1
003369: 05,3435           54663                           TS       DSPTAB     +1                         #  TURN ON 3 PLUS SIGNS
003370: 05,3436           54666                           TS       DSPTAB     +4
003371: 05,3437           54670                           TS       DSPTAB     +6
003372: 05,3440           37647                           CAF      ELEVEN
003373: 05,3441           54656                           TS       NOUT
003374: 05,3442           00003                           RELINT
003375: 05,3443           33456                           CAF      SHOLTS
003376: 05,3444           00004                           INHINT
003377: 05,3445           04251                           TC       WAITLIST
003378: 05,3446     0662                                  EBANK=   DSPTAB
003379: 05,3446           03457 12001                     2CADR    TSTLTS2
003380:
003381: 05,3450           04205                           TC       ENDOFJOB                              #  DSPLOCK IS LEFT BUSY (FROM KEYBOARD
003382:                                                                                                  #  ACTION) UNTIL TSTLTS3 TO INSURE THAT
003383:                                                                                                  #  LIGHTS TEST WILL BE SEEN.
003384:
003385:
003386:
003387: 05,3451           05675        FULLDSP            OCT      05675                                 #  DISPLAY ALL 8:S
003388: 05,3452           07675        FULLDSP1           OCT      07675                                 #  DISPLAY ALL 8:S AND +
003389: 05,3453           00174        TSTCON1            OCT      00174                                 #  CHAN 11 BITS 3-7
003390:                                                                                                  #  UPLINK ACTIVITY, TEMP, KEY RLSE,
003391:                                                                                                  #  V/N FLASH, OPERATOR ERROR.
003392: 05,3454           40777        TSTCON2            OCT      40777                                 #  DSPTAB+11D BITS 1-9
003393:                                                                                                  #  AUTO, HOLD, FREE, NO ATT, SPARE,
003394:                                                                                                  #  GIMBAL LOCK, SPARE, TRACKER, PROG ALM.
003395: 05,3455           00114        TSTCON3            OCT      00114                                 #  CHAN 11  BITS 3,4,7
003396:                                                                                                  #  UPLINK ACTIVITY, TEMP, OPERATOR ERROR.


003398: 05,3456           00764        SHOLTS             OCT      764                                   #  5 SEC
003399:
003400:
003401:
003402: 05,3457           34502        TSTLTS2            CAF      CHRPRIO                               #  CALLED BY WAITLIST
003403: 05,3460           04131                           TC       NOVAC
003404: 05,3461     0662                                  EBANK=   DSPTAB
003405: 05,3461           03464 12001                     2CADR    TSTLTS3
003406:
003407: 05,3463           04321                           TC       TASKOVER
003408:
003409:
003410:
003411: 05,3464           43455        TSTLTS3            CS       TSTCON3                               #  CALLED BY EXECUTIVE
003412: 05,3465           00006                           EXTEND                                         #  TURN OFF  UPLINK ACTIVITY, TEMP,
003413: 05,3466           03011                           WAND     DSALMOUT                              #  OPERATOR ERROR.
003414: 05,3467           47635                           CS       BIT10                                 #  TURN OFF TEST ALARM OUTBIT
003415: 05,3470           00006                           EXTEND
003416: 05,3471           03013                           WAND     CHAN13
003417: 05,3472           37630                           CAF      BIT15                                 #  TURN OFF AUTO, HOLD, FREE, NO ATT, SPARE
003418: 05,3473           54675                           TS       DSPTAB     +11D                       #  GIMBAL LOCK, SPARE, TRACKER, PROG ALM
003419: 05,3474           02001                           TC       DSPMM                                 #  REDISPLAY C(MODREG)
003420: 05,3475           04102                           TC       POSTJUMP                              #  TURN OFF KEY RLSE LIGHT ( AND SEARCH LIST
003421: 05,3476           11273                           CADR     VBTERM                                #  IF APPROPRIATE).
003422:                                                                                                  #  TURN OFF V/N FLASH, SET LOADSTAT FOR
003423:                                                                                                  #  FOR TERMINATE CONDITION, AND GO TO
003424:                                                                                                  #  RECALTST. FINALLY DO TC ENDOFJOB.

End of include-file PINBALL_GAME__BUTTONS_AND_LIGHTS.agc.  Parent file is MAIN.agc


