
Source Code


000002:                                                                                                  ## Copyright:   Public domain.
000003:                                                                                                  ## Filename:    PINBALL_GAME__BUTTONS_AND_LIGHTS.agc
000004:                                                                                                  ## Purpose:     Part of the source code for Retread 44 (revision 0). It was
000005:                                                                                                  ##              the very first program for the Block II AGC, created as an
000006:                                                                                                  ##              extensive rewrite of the Block I program Sunrise.
000007:                                                                                                  ##              This file is intended to be a faithful transcription, except
000008:                                                                                                  ##              that the code format has been changed to conform to the
000009:                                                                                                  ##              requirements of the yaYUL assembler rather than the
000010:                                                                                                  ##              original YUL assembler.
000011:                                                                                                  ## Reference:   pp. 135-209
000012:                                                                                                  ## Assembler:   yaYUL
000013:                                                                                                  ## Contact:     Ron Burkey <info@sandroid.org>.
000014:                                                                                                  ## Website:     www.ibiblio.org/apollo/index.html
000015:                                                                                                  ## Mod history: 2016-12-13 MAS  Created from Aurora 12 version.
000016:                                                                                                  ##              2016-12-18 MAS  Transcribed, then fixed typos.
000017:                                                                                                  ##              2016-12-27 RSB  Proofed comment text using octopus/ProoferComments,
000018:                                                                                                  ##                              and fixed errors found.
000019:                                                                                                  ##              2017-01-28 RSB  WTIH -> WITH.
000020:                                                                                                  ##              2017-02-08 RSB  Comment-text fixes noted while proofing Artemis 72.
000021:                                                                                                  ##              2017-03-08 RSB  Changed DSPOCTWO to DSPOCTWD.
000022:                                                                                                  ##              2017-03-08 RSB  Comment-text fixes noted in proofing Luminary 116.
000023:                                                                                                  ##              2017-03-17 RSB  Comment-text fixes identified in diff'ing
000024:                                                                                                  ##                              Luminary 99 vs Comanche 55.
000025:                                                                                                  ##              2021-05-30 ABS  Removed ENDSPF symbol not present in scans.
000026:


000029:                                                                                                  #  KEYBOARD AND DISPLAY PROGRAM
000030:
000031:
000032:
000033:                                                                                                  #  THE FOLLOWING QUOTATION IS PROVIDED THROUGH THE COUTESY OF THE AUTHORS.
000034:
000035:                                                                                                  #        ::IT WILL BE PROVED TO THY FACE THAT THOU HAST MEN ABOUT THEE THAT
000036:                                                                                                  #  USUALLY TALK OF A NOUN AND A VERB, AND SUCH ABOMINABLE WORDS AS NO
000037:                                                                                                  #  CHRISTIAN EAR CAN ENDURE TO HEAR.::
000038:
000039:                                                                                                  #                       HENRY 6, ACT 2, SCENE 4


000042:
000043:
000044:
000045:                                                                                                  #  THE FOLLOWING ASSIGNMENTS FOR PINBALL ARE MADE ELSEWHERE
000046:
000047:
000048:
000049:                                                                                                  #  RESERVED FOR PINBALL EXECUTIVE ACTION
000050:
000051:                                                                                                  #  DSPCOUNT ERASE                  DISPLAY POSITION INDICATOR
000052:                                                                                                  #  DECBRNCH ERASE                  +DEC, - DEC, OCT INDICATOR
000053:                                                                                                  #  VERBREG  ERASE                  VERB CODE
000054:                                                                                                  #  NOUNREG  ERASE                  NOUN CODE
000055:                                                                                                  #  XREG     ERASE                  R1 INPUT BUFFER
000056:                                                                                                  #  YREG     ERASE                  R2 INPUT BUFFER
000057:                                                                                                  #  ZREG     ERASE                  R3 INPUT BUFFER
000058:                                                                                                  #  XREGLP   ERASE                  LO PART OF XREG (FOR DEC CONV ONLY)
000059:                                                                                                  #  YREGLP   ERASE                  LO PART OF YREG (FOR DEC CONV ONLY)
000060:                                                                                                  #  ZREGLP   ERASE                  LO PART OF ZREG (FOR DEC CONV ONLY)
000061:                                                                                                  #  MODREG   ERASE                  MODE CODE
000062:                                                                                                  #  DSPLOCK  ERASE                  KEYBOARD/SUBROUTINE CALL INTERLOCK
000063:                                                                                                  #  REQRET   ERASE                  RETURN REGISTER FOR LOAD
000064:                                                                                                  #  LOADSTAT ERASE                  STATUS INDICATOR FOR LOADTST
000065:                                                                                                  #  CLPASS   ERASE                  PASS INDICATOR CLEAR
000066:                                                                                                  #  NOUT     ERASE                  ACTIVITY COUNTER FOR DSPTAB
000067:                                                                                                  #  NOUNCADR ERASE                  MACHINE CADR FOR NOUN
000068:                                                                                                  #  MONSAVE  ERASE                  N/V CODE FOR MONITOR. (= MONSAVE1-1)
000069:                                                                                                  #  MONSAVE1 ERASE                  NOUNCADR FOR MONITOR(MATBS) =MONSAVE +1
000070:                                                                                                  #  DSPTAB   ERASE          +13D    0-10,DISPLAY PANEL BUFFER.11-13,C RELAYS
000071:                                                                                                  #  CADRSTOR ERASE                  ENDIDLE STORAGE
000072:                                                                                                  #  GRABLOCK ERASE                  INTERNAL INTERLOCK FOR DISPLAY SYSTEM
000073:                                                                                                  #  NVQTEM   ERASE                  NVSUB STORAGE FOR CALLING ADDRESS
000074:                                                                                                  #                                  MUST = NVBNKTEM-1
000075:                                                                                                  #  NVBNKTEM ERASE                  NVSUB STORAGE FOR CALLING BANK
000076:                                                                                                  #                                  MUST = NVQTEM+1
000077:                                                                                                  #  DSPLIST  ERASE          +2      WAITING LIST FOR DSP SYST INTERNAL USE
000078:                                                                                                  #  EXTVBACT REASE                  EXTENDED VERB ACTIVITY INTERLOCK
000079:                                                                                                  #  DSPTEM1  ERASE          +2      BUFFER STORAGE AREA 1 (MOSTLY FOR TIME)
000080:                                                                                                  #  DSPTEM2  ERASE          +2      BUFFER STORAGE AREA 2 (MOSTLY FOR DEG)
000081:


000083:                                                                                                  #  END OF ERASABLES RESERVED FOR PINBALL EXECUTIVE ACTION
000084:
000085:
000086:
000087:                                                                                                  #  TEMPORARIES FOR PINBALL EXECUTIVE ACTION
000088:
000089:                                                                                                  #  DSEXIT   =      INTB15+         RETURN FOR DSPIN
000090:                                                                                                  #  EXITEM   =      INTB15+         RETURN FOR SCALE FACTOR ROUTINE SELECT
000091:                                                                                                  #  BLANKRET =      INTB15+         RETURN FOR 2BLANK
000092:
000093:                                                                                                  #  WRDRET   =      INTBIT15        RETURN FOR 5BLANK
000094:                                                                                                  #  WDRET    =      INTBIT15        RETURN FOR DSPWD
000095:                                                                                                  #  DECRET   =      INTBIT15        RETURN FOR PUTCOM(DEC LOAD)
000096:                                                                                                  #  21/22REG =      INTBIT15        TEMP FOR CHARIN
000097:
000098:                                                                                                  #  UPDATRET =      POLISH          RETURN FOR UPDATNN, UPDATVB
000099:                                                                                                  #  CHAR     =      POLISH          TEMP FOR CHARIN
000100:                                                                                                  #  ERCNT    =      POLISH          COUNTER FOR ERROR LIGHT RESET
000101:                                                                                                  #  DECOUNT  =      POLISH          COUNTER FOR SCALING AND DISPLAY (DEC)
000102:
000103:                                                                                                  #  SGNON    =      VBUF            TEMP FOR +,- ON
000104:                                                                                                  #  NOUNTEM  =      VBUF            COUNTER FOR MIXNOUN FETCH
000105:                                                                                                  #  DISTEM   =      VBUF            COUNTER FOR OCTAL DISPLAY VERBS
000106:                                                                                                  #  DECTEM   =      VBUF            COUNTER FOR FETCH (DEC DISPLAY VERBS)
000107:
000108:                                                                                                  #  SGNOFF   =       VBUF   +1      TEMP FOR +,- ON
000109:                                                                                                  #  NVTEMP   =       VBUF   +1      TEMP FOR NVSUB
000110:                                                                                                  #  SFTEMP1  =       VBUF   +1      STORAGE FOR SF CONST HI PART (=SFTEMP2-1)
000111:
000112:                                                                                                  #  CODE     =       VBUF   +2      FOR DSPIN
000113:                                                                                                  #  SFTEMP2  =       VBUF   +2      STORAGE FOR SF CONST LO PART (=SFTEMP1+1)
000114:
000115:                                                                                                  #  MIXTEMP  =       VBUF   +3      FOR MIXNOUN DATA
000116:                                                                                                  #  SIGNRET  =       VBUF   +3      RETURN FOR +,- ON
000117:
000118:                                                                                                  #  ALSO MIXTEMP+1 = VBUF+4, MIXTEMP+2 = VBUF+5.
000119:
000120:                                                                                                  #  ENTRET   =       DOTINC          EXIT FROM ENTER
000121:
000122:                                                                                                  #  WDCNT    =       DOTRET          CHAR COUNTER FOR DSPWD
000123:                                                                                                  #  INREL    =       DOTRET          INPUT BUFFER SELECTOR ( X,Y,Z, REG )
000124:
000125:                                                                                                  #  DSPMMTEM =       MATINC          DSPCOUNT SAVE FOR DSPMM
000126:                                                                                                  #  MIXBR    =       MATINC          INDICATOR FOR MIXED OR NORMAL NOUN
000127:
000128:                                                                                                  #  TEM1     ERASE                   EXEC TEMP
000129:                                                                                                  #  DSREL    =       TEM1            REL ADDRESS FOR DSPIN
000130:
000131:                                                                                                  #  TEM2     ERASE                   EXEC TEMP
000132:                                                                                                  #  DSMAG    =       TEM2            MAGNITUDE STORE FOR DSPIN
000133:


000135:                                                                                                  #  IDADDTEM =       TEM2            MIXNOUN INDIRECT ADDRESS STORAGE
000136:
000137:                                                                                                  #  TEM3     ERASE                   EXEC TEMP
000138:                                                                                                  #  COUNT    =       TEM3            FOR DSPIN
000139:
000140:                                                                                                  #  TEM4     ERASE                   EXEC TEMP
000141:                                                                                                  #  LSTPTR   =       TEM4            LIST POINTER FOR GRABUSY
000142:                                                                                                  #  RELRET   =       TEM4            RETURN FOR RELDSP
000143:                                                                                                  #  FREERET  =       TEM4            RETURN FOR FREEDSP
000144:
000145:                                                                                                  #  TEM5     ERASE                   EXEC TEMP
000146:                                                                                                  #  NOUNADD  =       TEM5            TEMP STORAGE FOR NOUN ADDRESS
000147:
000148:                                                                                                  #  NNADTEM  ERASE                   TEMP FOR NOUN ADDRESS TABLE ENTRY
000149:                                                                                                  #  NNTYPTEM ERASE                   TEMP FOR NOUN TYPE TABLE ENTRY
000150:                                                                                                  #  IDAD1TEM ERASE                   TEMP FOR INDIR ADRESS TABLE ENTRY(MIXNN)
000151:                                                                                                  #                                   MUST = IDAD2TEM-1, = IDAD3TEM-2.
000152:                                                                                                  #  IDAD2TEM ERASE                   TEMP FOR INDIR ADRESS TABLE ENTRY(MIXNN)
000153:                                                                                                  #                                   MUST = IDAD1TEM+1, = IDAD3TEM-1.
000154:                                                                                                  #  IDAD3TEM ERASE                   TEMP FOR INDIR ADRESS TABLE ENTRY(MIXNN)
000155:                                                                                                  #                                   MUST = IDAD1TEM+2, = IDAD2TEM+1.
000156:                                                                                                  #  RUTMXTEM ERASE                   TEMP FOR SF ROUT TABLE ENTRY(MIXNN ONLY)
000157:                                                                                                  #  END OF TEMPORARIES FOR PINBALL EXECUTIVE ACTION
000158:
000159:
000160:
000161:                                                                                                  #  RESERVED FOR PINBALL INTERRUPT ACTION
000162:
000163:                                                                                                  #  DSPCNT   ERASE                  COUNTER FOR DSPOUT
000164:                                                                                                  #  UPLOCK   ERASE                  BIT1 = UPLINK INTERLOCK (ACTIVATED BY
000165:                                                                                                  #                                                                           RECEPTION OF A BAD MESSAGE IN UPLINK)
000166:                                                                                                  #  END OF ERASABLES RESERVED FOR PINBALL INTERRUPT ACTION
000167:
000168:
000169:
000170:                                                                                                  #  TEMPORARIES FOR PINBALL INTERRUPT ACTION
000171:
000172:                                                                                                  #  KEYTEMP1 =      WAITEXIT        TEMP FOR KEYRUPT, UPRUPT
000173:                                                                                                  #  DSRUPTEM =      WAITEXIT        TEMP FOR DSPOUT
000174:                                                                                                  #  KEYTEMP2 =      RUPTAGN         TEMP FOR KEYRUPT, UPRUPT
000175:                                                                                                  #  END OF TEMPORARIES FOR PINBALL INTERRUPT ACTION
000176:
000177:


000179:                                                                                                  #  THE INPUT CODES ASSUMED FOR THE KEYBOARD ARE,
000180:                                                                                                  #  0        10000
000181:                                                                                                  #  1        00001
000182:                                                                                                  #  9        01001
000183:                                                                                                  #  VERB     10001
000184:                                                                                                  #  ERROR RES10010
000185:                                                                                                  #  KEY RLSE 11001
000186:                                                                                                  #  +        11010
000187:                                                                                                  #  -        11011
000188:                                                                                                  #  ENTER    11100
000189:                                                                                                  #  CLEAR    11110
000190:                                                                                                  #  NOUN     11111
000191:
000192:
000193:
000194:                                                                                                  #  OUTPUT FORMAT FOR DISPLAY PANEL. SET OUT0 TO  AAAABCCCCCDDDDD.
000195:                                                                                                  #  A-S SELECT A RELAYWORD. THIS DETERMINES WHICH PAIR OF CHARACTERS ARE
000196:                                                                                                  #  ENERGIZED.
000197:                                                                                                  #  B FOR SPECIAL RELAYS SUCH AS SIGNS ETC.
000198:                                                                                                  #  C-S  5 BIT RELAY CODE FOR LEFT CHAR OF PAIR SELECTED BY RELAYWORD
000199:                                                                                                  #  D-S  5 BIT RELAY CODE FOR RIGHTCHAR OF PAIR SELECTED BY RELAYWORD.
000200:
000201:                                                                                                  #  THE PANEL APPEARS AS FOLLOWS,
000202:                                                                                                  #  MD1    MD2                         (MAJOR MODE)
000203:                                                                                                  #  VD1    VD2 (VERB)    ND1    ND2    (NOUN)
000204:                                                                                                  #  R1D1   R1D2   R1D3   R1D4   R1D5   (R1)
000205:                                                                                                  #  R2D1   R2D2   R2D3   R2D4   R2D5   (R2)
000206:                                                                                                  #  R3D1   R3D2   R3D3   R3D4   R3D5   (R3)
000207:
000208:                                                                                                  #  EACH OF THESE IS GIVEN A DSPCOUNT NUMBER FOR USE WITHIN COMPUTATION ONLY
000209:                                                                                                  #  MD1   25     R2D1  11         ALL ARE OCTAL
000210:                                                                                                  #  MD2   24     R2D2  10
000211:                                                                                                  #  VD1   23     R2D3   7
000212:                                                                                                  #  VD2   22     R2D4   6
000213:                                                                                                  #  ND1   21     R2D5   5
000214:                                                                                                  #  ND2   20     R3D1   4
000215:                                                                                                  #  R1D1  16     R3D2   3
000216:                                                                                                  #  R1D2  15     R3D3   2
000217:                                                                                                  #  R1D3  14     R3D4   1
000218:                                                                                                  #  R1D4  13     R3D5   0
000219:                                                                                                  #  R1D5  12
000220:
000221:
000222:
000223:                                                                                                  #  THERE IS AN 11 REGISTER TABLE (DSPTAB) FOR THE DISPLAY PANEL.
000224:
000225:                                                                                                  #  DSPTAB RELAYWD       BIT11     BITS 10-6     BITS 5-1
000226:                                                                                                  #  RELADD
000227:                                                                                                  #  10     1011                    MD1  (25)     MD2  (24)
000228:                                                                                                  #  9      1010                    VD1  (23)     VD2  (22)


000230:                                                                                                  #  8      1001                    ND1  (21)     ND2  (20)
000231:                                                                                                  #  7      1000                                  R1D1 (16)
000232:                                                                                                  #  6      0111          +R1       R1D2 (15)     R1D3 (14)
000233:                                                                                                  #  5      0110          -R1       R1D4 (13)     R1D5 (12)
000234:                                                                                                  #  4      0101          +R2       R2D1 (11)     R2D2 (10)
000235:                                                                                                  #  3      0100          -R2       R2D3 (7)      R2D4 (6)
000236:                                                                                                  #  2      0011                    R2D5 (5)      R3D1 (4)
000237:                                                                                                  #  1      0010          +R3       R3D2 (3)      R3D3 (2)
000238:                                                                                                  #  0      0001          -R3       R3D4 (1)      R3D5 (0)
000239:                                                                                                  #         0000   NO RELAYWORD
000240:
000241:
000242:
000243:                                                                                                  #  THE 5 BIT RELAY CODES ARE,
000244:                                                                                                  #  BLANK      00000
000245:                                                                                                  #  0          10101
000246:                                                                                                  #  1          00011
000247:                                                                                                  #  2          11001
000248:                                                                                                  #  3          11011
000249:                                                                                                  #  4          01111
000250:                                                                                                  #  5          11110
000251:                                                                                                  #  6          11100
000252:                                                                                                  #  7          10011
000253:                                                                                                  #  8          11101
000254:                                                                                                  #  9          11111
000255:


000257:                                                                                                  #  START OF EXECUTIVE SECTION OF PINBALL
000258:
000259:
000260:
000261: 04,2000                                           SETLOC   20000
000262:
000263: 04,2000           03432        GRABUSYB           TC       GRABUSY1                              #  STANDARD LEAD INS. DONT MOVE.
000264: 04,2001           03454        NVSUBSYB           TC       NVSUBSY1
000265:
000266: 04,2002           37646        CHARIN             CAF      ONE                                   #  BLOCK DISPLAY SYST
000267: 04,2003           56652                           XCH      DSPLOCK                               #  MAKE DSP SYST BUSY, BUT SAVE OLD
000268: 04,2004           54101                           TS       21/22REG                              #  C(DSPLOCK) FOR ERROR LIGHT RESET.
000269: 04,2005           56140                           XCH      MPAC
000270: 04,2006           54103                           TS       CHAR
000271: 04,2007           50000                           INDEX    A
000272: 04,2010           02011                           TC       +1                                    #  INPUT CODE     FUNCTION
000273: 04,2011           03253                           TC       CHARALRM                              #  0
000274: 04,2012           02062                           TC       NUM                                   #  1
000275: 04,2013           02062                           TC       NUM                                   #  2
000276: 04,2014           02062                           TC       NUM                                   #  3
000277: 04,2015           02062                           TC       NUM                                   #  4
000278: 04,2016           02062                           TC       NUM                                   #  5
000279: 04,2017           02062                           TC       NUM                                   #  6
000280: 04,2020           02062                           TC       NUM                                   #  7
000281: 04,2021           02053                           TC       89TEST                                #  10                 8
000282: 04,2022           02053                           TC       89TEST                                #  11                 9
000283: 04,2023           03253                           TC       CHARALRM                              #  12
000284: 04,2024           03253                           TC       CHARALRM                              #  13
000285: 04,2025           03253                           TC       CHARALRM                              #  14
000286: 04,2026           03253                           TC       CHARALRM                              #  15
000287: 04,2027           03253                           TC       CHARALRM                              #  16
000288: 04,2030           03253                           TC       CHARALRM                              #  17
000289: 04,2031           02060                           TC       NUM        -2                         #  20                 0
000290: 04,2032           02235                           TC       VERB                                  #  21                 VERB
000291: 04,2033           02343                           TC       ERROR                                 #  22                 ERROR LIGHT RESET
000292: 04,2034           03253                           TC       CHARALRM                              #  23
000293: 04,2035           03253                           TC       CHARALRM                              #  24
000294: 04,2036           03253                           TC       CHARALRM                              #  25
000295: 04,2037           03253                           TC       CHARALRM                              #  26
000296: 04,2040           03253                           TC       CHARALRM                              #  27
000297: 04,2041           03253                           TC       CHARALRM                              #  30
000298: 04,2042           03276                           TC       VBRELDSP                              #  31                 KEY RELEASE
000299: 04,2043           02267                           TC       POSGN                                 #  32                 +
000300: 04,2044           02254                           TC       NEGSGN                                #  33                 -
000301: 04,2045           02051                           TC       ENTERJMP                              #  34                 ENTER
000302: 04,2046           03253                           TC       CHARALRM                              #  35
000303: 04,2047           02407                           TC       CLEAR                                 #  36                 CLEAR
000304: 04,2050           02250                           TC       NOUN                                  #  37                 NOUN
000305:


000307: 04,2051           04102        ENTERJMP           TC       POSTJUMP
000308: 04,2052           12003                           CADR     ENTER
000309:
000310: 04,2053           36165        89TEST             CAF      THREE
000311: 04,2054           70640                           MASK     DECBRNCH
000312: 04,2055           10000                           CCS      A
000313: 04,2056           02062                           TC       NUM                                   #  IF DECBRNCH IS +, 8 OR 9 OK
000314: 04,2057           03253                           TC       CHARALRM                              #  IF DECBRNCH IS +0, REJECT 8 OR 9
000315:
000316:
000317:
000318:                                                                                                  #  NUM ASSEMBLES OCTAL 3 BITS AT A TIME. FOR DECIMAL IT CONVERTS INCOMING
000319:                                                                                                  #  WORD AS A FRACTION, KEEPING RESULTS TO DP.
000320:                                                                                                  #  OCTAL RESULTS ARE LEFT IN XREG, YREG, OR ZREG. HI PART OF DEC IN XREG,
000321:                                                                                                  #  YREG, ZREG. THE LOW PARTS IN XREGLP, YREGLP, OR ZREGLP)
000322:                                                                                                  #  DECBRNCH IS LEFT AT +0 FOR OCT, +1 FOR + DEC, +2 FOR - DEC.
000323:                                                                                                  #  IF DSPCOUNT WAS LEFT -, NO MORE DATA IS ACCEPTED.
000324:
000325: 04,2060           37653                           CAF      ZERO
000326: 04,2061           54103                           TS       CHAR
000327: 04,2062           10637        NUM                CCS      DSPCOUNT
000328: 04,2063           02067                           TC       +4                                    #  +
000329: 04,2064           02067                           TC       +3                                    #  +0
000330: 04,2065           02066                           TC       +1                                    #  -BLOCK DATA IN IF DSPCOUNT IS -
000331: 04,2066           04205                           TC       ENDOFJOB                              #  -0
000332: 04,2067           02205                           TC       GETINREL
000333: 04,2070           10655                           CCS      CLPASS                                #  IF CLPASS IS + OR +0, MAKE IT +0.
000334: 04,2071           37653                           CAF      ZERO
000335: 04,2072           54655                           TS       CLPASS
000336: 04,2073           02074                           TC       +1
000337: 04,2074           50103                           INDEX    CHAR
000338: 04,2075           34333                           CAF      RELTAB
000339: 04,2076           74473                           MASK     LOW5
000340: 04,2077           54110                           TS       CODE
000341: 04,2100           30637                           CA       DSPCOUNT
000342: 04,2101           54127                           TS       COUNT
000343: 04,2102           03157                           TC       DSPIN
000344: 04,2103           36165                           CAF      THREE
000345: 04,2104           70640                           MASK     DECBRNCH
000346: 04,2105           10000                           CCS      A                                     #  +0, OCTAL.  +1, + DEC.  +2, - DEC.
000347: 04,2106           02117                           TC       DECTOBIN                              #  +
000348: 04,2107           50123                           INDEX    INREL                                 #  +0 OCTAL
000349: 04,2110           56641                           XCH      VERBREG
000350: 04,2111           54022                           TS       CYL
000351: 04,2112           40022                           CS       CYL
000352: 04,2113           40022                           CS       CYL
000353: 04,2114           56022                           XCH      CYL
000354: 04,2115           60103                           AD       CHAR
000355: 04,2116           02134                           TC       ENDNMTST
000356: 04,2117           50123        DECTOBIN           INDEX    INREL
000357:


000359: 04,2120           56641                           XCH      VERBREG
000360: 04,2121           54140                           TS       MPAC                                  #  SUM X 2EXP-14 IN MPAC
000361: 04,2122           37653                           CAF      ZERO
000362: 04,2123           54141                           TS       MPAC       +1
000363: 04,2124           37650                           CAF      TEN                                   #  10 X 2EXP-14
000364: 04,2125           07257                           TC       SHORTMP                               #  10SUM X 2EXP-28 IN MPAC, MPAC+1
000365: 04,2126           56141                           XCH      MPAC       +1
000366: 04,2127           60103                           AD       CHAR
000367: 04,2130           54141                           TS       MPAC       +1
000368: 04,2131           02134                           TC       ENDNMTST                              #  NO OF
000369: 04,2132           26140                           ADS      MPAC                                  #  OF MUST BE 5TH CHAR
000370: 04,2133           02152                           TC       DECEND
000371: 04,2134           50123        ENDNMTST           INDEX    INREL
000372: 04,2135           54641                           TS       VERBREG
000373: 04,2136           40637                           CS       DSPCOUNT
000374: 04,2137           50123                           INDEX    INREL
000375: 04,2140           62176                           AD       CRITCON
000376: 04,2141           00006                           EXTEND
000377: 04,2142           12144                           BZF      ENDNUM                                #  -0, DSPCOUNT = CRITCON
000378: 04,2143           02173                           TC       MORNUM                                #  - , DSPCOUNT G/ CRITCON
000379: 04,2144           36165        ENDNUM             CAF      THREE
000380: 04,2145           70640                           MASK     DECBRNCH
000381: 04,2146           10000                           CCS      A
000382: 04,2147           02152                           TC       DECEND
000383: 04,2150           40637        ENDALL             CS       DSPCOUNT                              #  BLOCK NUMIN BY PLACING DSPCOUNT
000384: 04,2151           02174                           TC       MORNUM     +1                         #  NEGATIVELY
000385: 04,2152           07062        DECEND             TC       DMP                                   #  MULT SUM X 2EXP-28 IN MPAC, MPAC+1 BY
000386: 04,2153           02203                           ADRES    DECON                                 #  2EXP14/10EXP5. GIVES(SUM/10EXP5)X2EXP-14
000387: 04,2154           36165                           CAF      THREE                                 #  IN MPAC, +1, +2.
000388: 04,2155           70640                           MASK     DECBRNCH
000389: 04,2156           50000                           INDEX    A
000390: 04,2157           02157                           TC       +0
000391: 04,2160           02164                           TC       +DECSGN
000392: 04,2161           00006                           EXTEND                                         #  - CASE
000393: 04,2162           40142                           DCS      MPAC       +1
000394: 04,2163           52142                           DXCH     MPAC       +1
000395: 04,2164           56142        +DECSGN            XCH      MPAC       +2
000396: 04,2165           50123                           INDEX    INREL
000397: 04,2166           54644                           TS       XREGLP     -2
000398: 04,2167           56141                           XCH      MPAC       +1
000399: 04,2170           50123                           INDEX    INREL
000400: 04,2171           54641                           TS       VERBREG
000401: 04,2172           02150                           TC       ENDALL
000402: 04,2173           10637        MORNUM             CCS      DSPCOUNT                              #  DECREMENT DSPCOUNT
000403: 04,2174           54637                           TS       DSPCOUNT
000404: 04,2175           04205                           TC       ENDOFJOB
000405:
000406: 04,2176           00022        CRITCON            OCT      22                                    #  (DEC 18)
000407: 04,2177           00020                           OCT      20                                    #  (DEC 16)
000408: 04,2200           00012                           OCT      12                                    #  (DEC 10)


000410: 04,2201           00005                           OCT      5
000411: 04,2202           00000                           OCT      0
000412:
000413: 04,2203           05174 13261  DECON              2DEC     E-5        B14                        #  2EXP14/10EXP5 = .16384 DEC
000414:
000415:
000416:                                                                                                  #  GETINREL GETS PROPER DATA REG REL ADDRESS FOR CURRENT C(DSPCOUNT) AND
000417:                                                                                                  #  PUTS IN INTO INREL. +0 VERBREG, 1 NOUNREG, 2 XREG, 3 YREG, 4 ZREG.
000418:
000419: 04,2205           50637        GETINREL           INDEX    DSPCOUNT
000420: 04,2206           32211                           CAF      INRELTAB
000421: 04,2207           54123                           TS       INREL                                 #  (A TEMP, REG)
000422: 04,2210           00002                           TC       Q
000423:
000424: 04,2211           00004        INRELTAB           OCT      4                                     #  R3D5 (DSPCOUNT = 0)
000425: 04,2212           00004                           OCT      4                                     #  R3D4           =(1)
000426: 04,2213           00004                           OCT      4                                     #  R3D3           =(2)
000427: 04,2214           00004                           OCT      4                                     #  R3D2           =(3)
000428: 04,2215           00004                           OCT      4                                     #  R3D1           =(4)
000429: 04,2216           00003                           OCT      3                                     #  R2D5           =(5)
000430: 04,2217           00003                           OCT      3                                     #  R2D4           =(6)
000431: 04,2220           00003                           OCT      3                                     #  R2D3           =(7)
000432: 04,2221           00003                           OCT      3                                     #  R2D2           =(8D)
000433: 04,2222           00003                           OCT      3                                     #  R2D1           =(9D)
000434: 04,2223           00002                           OCT      2                                     #  R1D5           =(10D)
000435: 04,2224           00002                           OCT      2                                     #  R1D4           =(11D)
000436: 04,2225           00002                           OCT      2                                     #  R1D3           =(12D)
000437: 04,2226           00002                           OCT      2                                     #  R1D2           =(13D)
000438: 04,2227           00002                           OCT      2                                     #  R1D1           =(14D)
000439: 04,2231                                           LOC      +1                                    #  NO DSPCOUNT NUMBER = 15D
000440: 04,2231           00001                           OCT      1                                     #  ND2            =(16D)
000441: 04,2232           00001                           OCT      1                                     #  ND1            =(17D)
000442: 04,2233           00000                           OCT      0                                     #  VD2            =(18D)
000443: 04,2234           00000                           OCT      0                                     #  VD1            =(19D)
000444:
000445:
000446: 04,2235           37653        VERB               CAF      ZERO
000447: 04,2236           54641                           TS       VERBREG
000448: 04,2237           34506                           CAF      VD1
000449: 04,2240           54637        NVCOM              TS       DSPCOUNT
000450: 04,2241           02517                           TC       2BLANK
000451: 04,2242           37653                           CAF      ZERO
000452: 04,2243           54640                           TS       DECBRNCH
000453: 04,2244           54653                           TS       REQRET                                #  SET FOR ENTPAS0
000454: 04,2245           34417                           CAF      ENDINST                               #  IF DSPALARM OCCURS BEFORE FIRST ENTPAS0
000455: 04,2246           54122                           TS       ENTRET                                #  OR NVSUB, ENTRET MUST ALREADY BE SET
000456:                                                                                                  #  TO TC ENDOFJOB
000457: 04,2247           04205                           TC       ENDOFJOB
000458:


000460: 04,2250           37653        NOUN               CAF      ZERO
000461: 04,2251           54642                           TS       NOUNREG
000462: 04,2252           34507                           CAF      ND1                                   #  ND1, OCT 21 (DEC 17)
000463: 04,2253           02240                           TC       NVCOM
000464:
000465:
000466:
000467: 04,2254           02326        NEGSGN             TC       SIGNTEST
000468: 04,2255           02313                           TC       -ON
000469: 04,2256           37645                           CAF      TWO
000470: 04,2257           50123        BOTHSGN            INDEX    INREL                                 #  SET DEC COMP BIT TO 1 (IN DECBRNCH)
000471: 04,2260           67640                           AD       BIT7                                  #  BIT 5 FOR R1,  BIT 4 FOR R2,
000472: 04,2261           26640                           ADS      DECBRNCH                              #  BIT 3 FOR R3.
000473: 04,2262           10655        FIXCLPAS           CCS      CLPASS                                #  IF CLPASS IS + OR +0, MAKE IT +0.
000474: 04,2263           37653                           CAF      ZERO
000475: 04,2264           54655                           TS       CLPASS
000476: 04,2265           02266                           TC       +1
000477: 04,2266           04205                           TC       ENDOFJOB
000478:
000479: 04,2267           02326        POSGN              TC       SIGNTEST
000480: 04,2270           02273                           TC       +ON
000481: 04,2271           37646                           CAF      ONE
000482: 04,2272           02257                           TC       BOTHSGN
000483:
000484: 04,2273           22002        +ON                LXCH     Q
000485: 04,2274           02205                           TC       GETINREL
000486: 04,2275           50123                           INDEX    INREL
000487: 04,2276           32321                           CAF      SGNTAB     -2
000488: 04,2277           54107                           TS       SGNOFF
000489: 04,2300           67646                           AD       ONE
000490: 04,2301           54106                           TS       SGNON
000491: 04,2302           37653        SGNCOM             CAF      ZERO
000492: 04,2303           54110                           TS       CODE
000493: 04,2304           56107                           XCH      SGNOFF
000494: 04,2305           03241                           TC       11DSPIN
000495: 04,2306           37634                           CAF      BIT11
000496: 04,2307           54110                           TS       CODE
000497: 04,2310           56106                           XCH      SGNON
000498: 04,2311           03241                           TC       11DSPIN
000499: 04,2312           00001                           TC       L
000500: 04,2313           22002        -ON                LXCH     Q
000501: 04,2314           02205                           TC       GETINREL
000502: 04,2315           50123                           INDEX    INREL
000503: 04,2316           32321                           CAF      SGNTAB     -2
000504: 04,2317           54106                           TS       SGNON
000505: 04,2320           67646                           AD       ONE
000506: 04,2321           54107                           TS       SGNOFF
000507: 04,2322           02302                           TC       SGNCOM
000508:
000509: 04,2323           00005        SGNTAB             OCT      5                                     #  -R1


000511: 04,2324           00003                           OCT      3                                     #  -R2
000512: 04,2325           00000                           OCT      0                                     #  -R3
000513:
000514:
000515:
000516: 04,2326           22002        SIGNTEST           LXCH     Q                                     #  ALLOWS +,- ONLY WHEN DSPCOUNT=R1D1,
000517: 04,2327           44444                           CS       R1D1                                  #  R2D1, OR R3D1.
000518: 04,2330           02336                           TC       SGNTST1
000519: 04,2331           44445                           CS       R2D1
000520: 04,2332           02336                           TC       SGNTST1
000521: 04,2333           44446                           CS       R3D1
000522: 04,2334           02336                           TC       SGNTST1
000523: 04,2335           04205                           TC       ENDOFJOB                              #  NO MATCH FOUND. SIGN ILLEGAL
000524: 04,2336           60637        SGNTST1            AD       DSPCOUNT
000525: 04,2337           00006                           EXTEND
000526: 04,2340           12342                           BZF      +2                                    #  MATCH FOUND
000527: 04,2341           00002                           TC       Q
000528: 04,2342           00001                           TC       L                                     #  SIGN LEGAL
000529:
000530:
000531:
000532:                                                                                                  #  ERROR LIGHT RESET (RSET) TURNS OFF,
000533:                                                                                                  #  UPLINK ACTIVITY, AUTO, HOLD, FREE, NO ATT, OPERATOR ERROR, TEMP, GIMBAL
000534:                                                                                                  #  LOCK, PROG ALM, TRACKER.
000535:                                                                                                  #  IT ALSO ZEROES THE :TEST ALARM: OUT BIT, WHICH TURNS OFF STBY,RESTART.
000536:                                                                                                  #  IT ALSO FORCES BIT 12 OF ALL DSPTAB ENTRIES TO 1.
000537:
000538: 04,2343           56101        ERROR              XCH      21/22REG                              #  RESTORE ORIGINAL C(DSPLOCK). THUS ERROR
000539: 04,2344           54652                           TS       DSPLOCK                               #  LIGHT RESET LEAVES DSPLOCK UNCHANGED.
000540: 04,2345           37630                           CAF      BIT15                                 #  TURNS OFF  AUTO, HOLD, FREE, NO ATT,
000541: 04,2346           54675                           TS       DSPTAB     +11D                       #  GIMBAL LOCK, TRACKER, PROG ALM.
000542: 04,2347           47635                           CS       BIT10                                 #  TURN OFF :TEST ALARM: OUTBIT.
000543: 04,2350           00006                           EXTEND
000544: 04,2351           03013                           WAND     CHAN13
000545: 04,2352           42405                           CS       ERCON                                 #  TURNS OFF  UPLINK ACTIVITY, TEMP,
000546: 04,2353           00006                           EXTEND                                         #  OPERATOR ERROR.
000547: 04,2354           03011                           WAND     DSALMOUT
000548: 04,2355           34511        TSTAB              CAF      BINCON                                #  (DEC 10)
000549: 04,2356           54103                           TS       ERCNT                                 #  ERCNT = COUNT
000550: 04,2357           00004                           INHINT
000551: 04,2360           50103                           INDEX    ERCNT
000552: 04,2361           10662                           CCS      DSPTAB
000553: 04,2362           67646                           AD       ONE
000554: 04,2363           02370                           TC       ERPLUS
000555: 04,2364           67646                           AD       ONE
000556: 04,2365           40000        ERMINUS            CS       A
000557: 04,2366           72406                           MASK     NOTBIT12
000558: 04,2367           02373                           TC       ERCOM
000559: 04,2370           40000        ERPLUS             CS       A
000560: 04,2371           72406                           MASK     NOTBIT12


000562: 04,2372           40000                           CS       A                                     #  MIGHT WANT TO RESET CLPASS, DECBRNCH,
000563: 04,2373           50103        ERCOM              INDEX    ERCNT                                 #  ETC.
000564: 04,2374           54662                           TS       DSPTAB
000565: 04,2375           00003                           RELINT
000566: 04,2376           10103                           CCS      ERCNT
000567: 04,2377           02356                           TC       TSTAB      +1
000568: 04,2400           37653                           CAF      ZERO
000569: 04,2401           54721                           TS       FAILREG
000570: 04,2402           55021                           TS       OLDERR
000571: 04,2403           55044                           TS       SFAIL
000572: 04,2404           04205                           TC       ENDOFJOB
000573:
000574: 04,2405           00114        ERCON              OCT      00114                                 #  CHAN 11 BIT 3,4,7.
000575:                                                                                                  #  UPLINK ACTIVITY, TEMP, OPERATOR
000576:                                                                                                  #  ERROR.
000577: 04,2406           73777        NOTBIT12           OCT      73777
000578:
000579:
000580:
000581:                                                                                                  #  CLEAR BLANKS WHICH R1, R2, R3 IS CURRENT OR LAST TO BE DISPLAYED(PERTINE
000582:                                                                                                  #  NT XREG,YREG,ZREG IS CLEARED). SUCCESSIVE CLEARS TAKE CARE OF EACH RX
000583:                                                                                                  #  L/ RC UNTIL R1 IS DONE. THEN NO FURTHER ACTION
000584:
000585:                                                                                                  #  THE SINGLE COMPONENT LOAD VERBS ALLOW ONLY THE SINGLE RC THAT IS
000586:                                                                                                  #  APPROPRIATE TO BE CLEARED.
000587:
000588:                                                                                                  #  CLPASS   +0 PASS0, CAN BE BACKED UP
000589:                                                                                                  #           +NZ HIPASS, CAN BE BACKED UP
000590:                                                                                                  #           -NZ PASS0, CANNOT BE BACKED UP
000591:
000592: 04,2407           10637        CLEAR              CCS      DSPCOUNT
000593: 04,2410           67646                           AD       ONE
000594: 04,2411           02413                           TC       +2
000595: 04,2412           67646                           AD       ONE
000596: 04,2413           54637                           TS       DSPCOUNT                              #  MAG OF DSPCOUNT
000597: 04,2414           02205                           TC       GETINREL                              #  MUST SET INREL, EVEN FOR HIPASS
000598: 04,2415           10655                           CCS      CLPASS
000599: 04,2416           02424                           TC       CLPASHI                               #  +
000600: 04,2417           02421                           TC       +2                                    #  +0    IF CLPASS IS +0 OR -, IT IS PASS0
000601: 04,2420           02421                           TC       +1                                    #  -
000602: 04,2421           30123                           CA       INREL
000603: 04,2422           02446                           TC       LEGALTST
000604: 04,2423           02441                           TC       CLEAR1
000605: 04,2424           10123        CLPASHI            CCS      INREL
000606: 04,2425           54123                           TS       INREL
000607: 04,2426           02446                           TC       LEGALTST
000608: 04,2427           32515                           CAF      DOUBLK     +2                         #  +3 TO - NUMBER. BACKS DATA REQUESTS.
000609: 04,2430           26653                           ADS      REQRET
000610: 04,2431           30123                           CA       INREL
000611: 04,2432           54111                           TS       MIXTEMP                               #  TEMP STORAGE FOR INREL


000613: 04,2433           00006                           EXTEND
000614: 04,2434           26641                           DIM      VERBREG                               #  DECREMENT VERB AND RE-DISPLAY
000615: 04,2435           04063                           TC       BANKCALL
000616: 04,2436           12315                           CADR     UPDATVB
000617: 04,2437           30111                           CA       MIXTEMP
000618: 04,2440           54123                           TS       INREL                                 #  RESTORE INREL
000619: 04,2441           02444        CLEAR1             TC       CLR5
000620: 04,2442           24655                           INCR     CLPASS                                #  ONLY IF CLPASS IS + OR +0,
000621: 04,2443           04205                           TC       ENDOFJOB                              #  SET FOR HIGHER PASS.
000622: 04,2444           22002        CLR5               LXCH     Q                                     #  USES 5BLANK BUT AVOIDS ITS TC GETINREL
000623: 04,2445           02456                           TC       5BLANK     +2
000624: 04,2446           67656        LEGALTST           AD       NEG2
000625: 04,2447           10000                           CCS      A
000626: 04,2450           00002                           TC       Q                                     #  LEGAL  INREL G/ 2
000627: 04,2452                                           LOC      +1
000628: 04,2452           04205                           TC       ENDOFJOB                              #  ILLEGAL   INREL= 0,1
000629: 04,2453           00002                           TC       Q                                     #  LEGAL    INREL = 2
000630:
000631:
000632:
000633:                                                                                                  #  5BLANK BLANKS 5 CHAR DISPLAY WORD IN R1, R2, OR R3. IT ALSO ZEROES XREG,
000634:                                                                                                  #  YREG, OR ZREG.PLACE ANY + DSPCOUNT NUMBER FOR PERTINENT RC INTO DSPCOUNT
000635:                                                                                                  #  DSPCOUNT IS LEFT SET TO LEFT MOST DSP NUMB FOR RC JUST BLANKED.
000636:
000637: 04,2454           22002        5BLANK             LXCH     Q
000638: 04,2455           02205                           TC       GETINREL
000639: 04,2456           37653                           CAF      ZERO
000640: 04,2457           50123                           INDEX    INREL
000641: 04,2460           54641                           TS       VERBREG                               #  ZERO X, Y, Z REG.
000642: 04,2461           50123                           INDEX    INREL
000643: 04,2462           54644                           TS       XREGLP     -2
000644: 04,2463           54110                           TS       CODE
000645: 04,2464           50123                           INDEX    INREL                                 #  ZERO PERTINENT DEC COMP BIT.
000646: 04,2465           47640                           CS       BIT7                                  #  PROTECT OTHERS
000647: 04,2466           70640                           MASK     DECBRNCH
000648: 04,2467           72516                           MASK     BRNCHCON                              #  ZERO LOW 2 BITS.
000649: 04,2470           54640                           TS       DECBRNCH
000650: 04,2471           50123                           INDEX    INREL
000651: 04,2472           32506                           CAF      SINBLANK   -2                         #  BLANK ISOLATED CHAR SEPARATELY
000652: 04,2473           54127                           TS       COUNT
000653: 04,2474           03157                           TC       DSPIN
000654: 04,2475           50123        5BLANK1            INDEX    INREL
000655: 04,2476           32511                           CAF      DOUBLK     -2
000656: 04,2477           54637                           TS       DSPCOUNT
000657: 04,2500           02517                           TC       2BLANK
000658: 04,2501           47645                           CS       TWO
000659: 04,2502           26637                           ADS      DSPCOUNT
000660: 04,2503           02517                           TC       2BLANK
000661: 04,2504           50123                           INDEX    INREL
000662: 04,2505           34442                           CAF      R1D1       -2


000664: 04,2506           54637                           TS       DSPCOUNT                              #  SET DSPCOUNT TO LEFT MOST DSP NUMBER
000665: 04,2507           00001                           TC       L                                     #  OF REG. JUST BLANKED
000666:
000667: 04,2510           00016        SINBLANK           OCT      16                                    #  DEC 14
000668: 04,2511           00005                           OCT      5
000669: 04,2512           00004                           OCT      4
000670: 04,2513           00015        DOUBLK             OCT      15                                    #  DEC 13
000671: 04,2514           00011                           OCT      11                                    #  DEC 9
000672: 04,2515           00003                           OCT      3
000673:
000674: 04,2516           77774        BRNCHCON           OCT      77774
000675:
000676:                                                                                                  #  2BLANK BLANKS TWO CHAR. PLACE DSP NUMBER OF LEFT CHAR  OF THE PAIR INTO
000677:                                                                                                  #  DSPCOUNT. THIS NUMBER IS LEFT IN DSPCOUNT
000678:
000679: 04,2517           30637        2BLANK             CA       DSPCOUNT
000680: 04,2520           54021                           TS       SR
000681: 04,2521           42532                           CS       BLANKCON
000682: 04,2522           00004                           INHINT
000683: 04,2523           50021                           INDEX    SR
000684: 04,2524           56662                           XCH      DSPTAB
000685: 04,2525           00006                           EXTEND
000686: 04,2526           62530                           BZMF     +2                                    #  IF OLD CONTENTS -, NOUT OK
000687: 04,2527           24656                           INCR     NOUT                                  #  IF OLD CONTENTS +, +1 TO NOUT
000688: 04,2530           00003                           RELINT                                         #  IF -,NOUT OK
000689: 04,2531           00002                           TC       Q
000690: 04,2532           04000        BLANKCON           OCT      4000
000691:


000693:                                                                                                  #  ENTER PASS 0 IS THE EXECUTE FUNCTION. HIGHER ORDER ENTERS ARE TO LOAD
000694:                                                                                                  #  DATA. THE SIGN OF REQRET DETERMINES THE PASS, + FOR PASS 0,- FOR HIGHER
000695:                                                                                                  #  PASSES.
000696:
000697:
000698:
000699:                                                                                                  #  MACHINE CADR TO BE SPECIFIED (MCTBS) NOUNS DESIRE AN ECADR TO BE LOADED
000700:                                                                                                  #  WHEN USED WITH LOAD VERBS, MONITOR VERBS, OR DISPLAY VERBS (EXCEPT
000701:                                                                                                  #  VERB = FIXED MEMORY DISPLAY, WHICH REQUIRES AN FCADR).
000702:
000703:
000704:
000705: 05,2000                                           SETLOC   22000
000706:
000707: 05,2000           03344        NVSUBB             TC       NVSUB1                                #  STANDARD LEAD INS. DONT MOVE.
000708: 05,2001           13403        DSPMM              TCF      DSPMM1
000709: 05,2002           02663        LOADLV1            TC       LOADLV
000710:                                                                                                  #  END OF STANDARD LEAD INS.
000711:
000712:
000713:
000714: 05,2003           37653        ENTER              CAF      ZERO
000715: 05,2004           54655                           TS       CLPASS
000716: 05,2005           34417                           CAF      ENDINST
000717: 05,2006           54122                           TS       ENTRET
000718: 05,2007           10653                           CCS      REQRET
000719: 05,2010           02031                           TC       ENTPAS0                               #  IF +, PASS 0
000720: 05,2011           02031                           TC       ENTPAS0                               #  IF +, PASS 0
000721: 05,2012           02013                           TC       +1                                    #  IF -, NOT PASS 0
000722: 05,2013           36165                           CAF      THREE                                 #  IF DEC, ALARM IF LESS THAN 5 CHAR IN,
000723: 05,2014           70640                           MASK     DECBRNCH                              #  BUT LEAVE REQRET - AND FLASH ON, SO
000724: 05,2015           10000                           CCS      A                                     #  OPERATOR CAN SUPPLY MISSING NUMERICAL
000725: 05,2016           02020                           TC       +2                                    #  CHARACTERS AND CONTINUE.
000726: 05,2017           02024                           TC       ACCEPTWD                              #  OCTAL. ANY NUMBER OF CHAR OK.
000727: 05,2020           10637                           CCS      DSPCOUNT
000728: 05,2021           02324                           TC       GODSPALM                              #  LESS THAN 5 CHAR DEC(DSPCOUNT IS +)
000729: 05,2022           02324                           TC       GODSPALM                              #  LESS THAN 5 CHAR DEC(DSPCOUNT IS +)
000730: 05,2023           02024                           TC       +1                                    #  5 CHAR IN (DSPCOUNT IS -)
000731: 05,2024           40653        ACCEPTWD           CS       REQRET                                #  5 CHAR IN (DSPCOUNT IS -)
000732: 05,2025           54653                           TS       REQRET                                #  SET REQRET +.
000733: 05,2026           04547                           TC       FLASHOFF
000734: 05,2027           00653                           TC       REQRET
000735:
000736: 05,2030     0122               ENTEXIT            =        ENTRET
000737:
000738: 05,2030           00030        LOWVERB            OCT      30                                    #  LOWER VERB THAT AVOIDS NOUN TEST
000739:
000740: 05,2031           37653        ENTPAS0            CAF      ZERO                                  #   NOUN VERB SUB ENTERS HERE
000741: 05,2032           54640                           TS       DECBRNCH
000742: 05,2033           40641        TESTVB             CS       VERBREG                               #  IF VERB IS 30-77, SKIP NOUN TEST


000744: 05,2034           62030                           AD       LOWVERB                               #  30-VB
000745: 05,2035           00006                           EXTEND
000746: 05,2036           62116                           BZMF     VERBFAN                               #  VERB G/E 30
000747: 05,2037           00006        TESTNN             EXTEND                                         #  VERB L/ 30
000748: 05,2040           32076                           DCA      LODNNLOC                              #  SWITCH BANKS TO NOUN TABLE READING
000749: 05,2041           52006                           DXCH     Z                                     #  ROUTINE.
000750: 05,2042           50124                           INDEX    MIXBR
000751: 05,2043           02043                           TC       +0
000752: 05,2044           02046                           TC       +2                                    #  NORMAL
000753: 05,2045           02176                           TC       MIXNOUN                               #  MIXED
000754: 05,2046           10132                           CCS      NNADTEM                               #  NORMAL
000755: 05,2047           02114                           TC       VERBFAN    -2                         #       NORMAL  IF +
000756: 05,2050           02324                           TC       GODSPALM                              #  NOT IN USE    IF +0
000757: 05,2051           02055                           TC       REQADD                                #  SPECIFY MACHINE CADR IF -
000758: 05,2052           24657                           INCR     NOUNCADR                              #  AUGMENT MACHINE CADR IF -0
000759: 05,2053           04436                           TC       SETNADD                               #  ECADR FROM NOUNCADR. SETS EB, NOUNADD.
000760: 05,2054           02102                           TC       INTMCTBS   +2
000761: 05,2055           37630        REQADD             CAF      BIT15                                 #  SET CLPASS FOR PASS0 ONLY
000762: 05,2056           54655                           TS       CLPASS
000763: 05,2057           44417                           CS       ENDINST                               #  TEST IF REACHED HERE FROM INTERNAL OR
000764: 05,2060           60122                           AD       ENTEXIT                               #              FROM EXTERNAL
000765: 05,2061           00006                           EXTEND
000766: 05,2062           12064                           BZF      +2                                    #  EXTERNAL MACH CADR TO BE SPECIFIED
000767: 05,2063           02100                           TC       INTMCTBS
000768: 05,2064           02256                           TC       REQDATZ                               #  EXTERNAL MACH CADR TO BE SPECIFIED
000769: 05,2065           10640                           CCS      DECBRNCH
000770: 05,2066           02324                           TC       GODSPALM                              #  ALARM IF DECIMAL USED FOR MCTBS
000771: 05,2067           56645                           XCH      ZREG                                  #  OCTAL USED    OK
000772: 05,2070           04430                           TC       SETNCADR                              #  ECADR INTO NOUNCADR. SET EB, NOUNADD.
000773: 05,2071           00006                           EXTEND
000774: 05,2072           32076                           DCA      LODNNLOC                              #  SWITCH BANKS TO NOUN TABLE READING
000775: 05,2073           52006                           DXCH     Z                                     #  ROUTINE.
000776: 05,2074           02116                           TC       VERBFAN
000777:
000778: 05,2075     0637                                  EBANK=   DSPCOUNT
000779: 05,2075           02000 14001  LODNNLOC           2CADR    LODNNTAB
000780:
000781: 05,2077           77772        NEG5               OCT      77772
000782:
000783: 05,2100           30142        INTMCTBS           CA       MPAC       +2                         #  INTERNAL MACH CADR TO BE SPECIFIED.
000784: 05,2101           04430                           TC       SETNCADR                              #  ECADR INTO NOUNCADR. SET EB, NOUNADD.
000785: 05,2102           47643                           CS       BIT4                                  #  NVSUB CALL LEFT CADR IN MPAC+2 FOR MACH
000786: 05,2103           70641                           MASK     VERBREG                               #  CADR TO BE SPECIFIED.
000787: 05,2104           62077                           AD       NEG5                                  #  MASKING MAKES VB15 LOOK LIKE VB05.
000788: 05,2105           00006                           EXTEND
000789: 05,2106           12116                           BZF      VERBFAN                               #  VB = 05 OR 15, DO NOT DISPLAY CADR.
000790: 05,2107           34446                           CAF      R3D1                                  #  VB NOT = 05 OR 15, DISPLAY CADR.
000791: 05,2110           54637                           TS       DSPCOUNT
000792: 05,2111           30657                           CA       NOUNCADR
000793: 05,2112           03222                           TC       DSPOCTWD


000795: 05,2113           02116                           TC       VERBFAN
000796:
000797: 05,2114           67646                           AD       ONE
000798: 05,2115           04430                           TC       SETNCADR                              #  ECADR INTO NOUNCADR. SETS EB, NOUNADD.
000799: 05,2116           42131        VERBFAN            CS       LST2CON
000800: 05,2117           60641                           AD       VERBREG                               #  VERB-LST2CON
000801: 05,2120           10000                           CCS      A
000802: 05,2121           67646                           AD       ONE                                   #  VERB G/ LST2CON
000803: 05,2122           02124                           TC       +2
000804: 05,2123           02133                           TC       VBFANDIR                              #  VERB L/ LST2CON
000805: 05,2124           54140                           TS       MPAC
000806: 05,2125           04610                           TC       RELDSP                                #  RELEASE DISPLAY SYST
000807: 05,2126           56140                           XCH      MPAC                                  #  ALSO TURN OFF RELEASE DISPLAY SYST LIGHT
000808: 05,2127           62132                           AD       LST2CADR
000809: 05,2130           04105                           TC       BANKJUMP
000810: 05,2131           00040        LST2CON            OCT      40                                    #  FIRST LST2 VERB
000811: 05,2132           11255        LST2CADR           CADR     DSPALARM                              #  **FIX LATER**
000812:
000813: 05,2133           50641        VBFANDIR           INDEX    VERBREG
000814: 05,2134           32136                           CAF      VERBTAB
000815: 05,2135           04105                           TC       BANKJUMP
000816:
000817: 05,2136           12324        VERBTAB            CADR     GODSPALM                              #  VB00 ILLEGAL
000818: 05,2137           12340                           CADR     DSPA                                  #  VB01 DISPLAY OCT COMP 1 (R1)
000819: 05,2140           12345                           CADR     DSPB                                  #  VB02 DISPLAY OCT COMP 2 (R1)
000820: 05,2141           12352                           CADR     DSPC                                  #  VB03 DISPLAY OCT COMP 3 (R1)
000821: 05,2142           12333                           CADR     DSPAB                                 #  VB04 DISPLAY OCT COMP 1,2 (R1,R2)
000822: 05,2143           12326                           CADR     DSPABC                                #  VB05 DISPLAY OCT COMP 1,2,3 (R1,R2,R3)
000823: 05,2144           12445                           CADR     DECDSP                                #  VB06 DECIMAL DISPLAY
000824: 05,2145           10662                           CADR     DSPDPDEC                              #  VB07 DP DECIMAL DISPLAY (R1,R2)
000825: 05,2146           11255                           CADR     DSPALARM                              #  VB10 SPARE
000826: 05,2147           13077                           CADR     MONITOR                               #  VB11 MONITOR OCT COMP 1 (R1)
000827: 05,2150           13077                           CADR     MONITOR                               #  VB12 MONITOR OCT COMP 2 (R1)
000828: 05,2151           13077                           CADR     MONITOR                               #  VB13 MONITOR OCT COMP 3 (R1)
000829: 05,2152           13077                           CADR     MONITOR                               #  VB14 MONITOR OCT COMP 1,2 (R1,R2)
000830: 05,2153           13077                           CADR     MONITOR                               #  VB15 MONITOR OCT COMP 1,2,3 (R1,R2,R3)
000831: 05,2154           13077                           CADR     MONITOR                               #  VB16 MONITOR DECIMAL
000832: 05,2155           13077                           CADR     MONITOR                               #  VB17 MONITOR DP DEC (R1,R2)
000833: 05,2156           12324                           CADR     GODSPALM                              #  VB20 SPARE
000834: 05,2157           12620                           CADR     ALOAD                                 #  VB21 LOAD COMP 1 (R1)
000835: 05,2160           12631                           CADR     BLOAD                                 #  VB22 LOAD COMP 2 (R2)
000836: 05,2161           12646                           CADR     CLOAD                                 #  VB23 LOAD COMP 3 (R3)
000837: 05,2162           12572                           CADR     ABLOAD                                #  VB24 LOAD COMP 1,2 (R1,R2)
000838: 05,2163           12535                           CADR     ABCLOAD                               #  VB25 LOAD COMP 1,2,3 (R1,R2,R3)
000839: 05,2164           12324                           CADR     GODSPALM                              #  VB26 SPARE
000840: 05,2165           13214                           CADR     DSPFMEM                               #  VB27 FIXED MEMORY DISPLAY
000841:                                                                                                  #  THE FOLLOWING VERBS MAKE NO NOUN TEST
000842: 05,2166           13314        REQEXLOC           CADR     VBRQEXEC                              #  VB30 REQUEST EXECUTIVE
000843: 05,2167           13340                           CADR     VBRQWAIT                              #  VB31 REQUEST WAITLIST
000844: 05,2170           11303                           CADR     BUMP                                  #  VB32 C(R2) INTO R3, C(R1) INTO R2


000846: 05,2171           11266                           CADR     VBPROC                                #  VB33 PROCEED WITHOUT DATA
000847: 05,2172           11273                           CADR     VBTERM                                #  VB34 TERMINATE CURRENT TEST OR LOAD REQ
000848: 05,2173           13414                           CADR     VBTSTLTS                              #  VB35 TEST LIGHTS
000849: 05,2174           02677                           CADR     SLAP1                                 #  VB36 FRESH START
000850: 05,2175           13267        ENDVBFAN           CADR     MMCHANG                               #  VB37 CHANGE MAJOR MODE
000851:
000852:
000853:
000854:                                                                                                  #  THE LIST2 VERBFAN IS LOCATED IN THE EXTENDED VERB BANK.
000855:


000857:                                                                                                  #  NNADTAB CONTAINS A RELATIVE ADDRESS, IDADDREL(IN LOW 10 BITS), REFERRING
000858:                                                                                                  #  TO WHERE 3 CONSECUTIVE ADDRESSES ARE STORED (IN IDADDTAB).
000859:                                                                                                  #  MIXNOUN GETS DATA AND STORES IN MIXTEMP,+1,+2. IT SETS NOUNADD FOR
000860:                                                                                                  #   MIXTEMP.
000861:
000862: 05,2176           10132        MIXNOUN            CCS      NNADTEM
000863: 05,2177           02203                           TC       +4                                    #  +  IN USE
000864: 05,2200           02324                           TC       GODSPALM                              #  +0  NOT IN USE
000865: 05,2201           02203                           TC       +2                                    #  -  IN USE
000866: 05,2202           02203                           TC       +1                                    #  -0  IN USE
000867: 05,2203           46162                           CS       SIX
000868: 05,2204           60641                           AD       VERBREG
000869: 05,2205           00006                           EXTEND
000870: 05,2206           62210                           BZMF     +2                                    #  VERB L/E 6
000871: 05,2207           02116                           TC       VERBFAN                               #  AVOID MIXNOUN SWAP IF VB NOT = DISPLAY
000872: 05,2210           37645                           CAF      TWO
000873: 05,2211           54103        MIXNN1             TS       DECOUNT
000874: 05,2212           62235                           AD       MIXAD
000875: 05,2213           54131                           TS       NOUNADD                               #  SET NOUNADD TO MIXTEMP + K
000876: 05,2214           50103                           INDEX    DECOUNT                               #  GET IDADDTAB ENTRY FOR COMPONENT K
000877: 05,2215           30134                           CA       IDAD1TEM                              #  OF NOUN.
000878: 05,2216           54106                           TS       NOUNTEM
000879:                                                                                                  #  TEST FOR DP(FOR OCT DISPLAY). IF SO, GET
000880:                                                                                                  #    MINOR PART ONLY.
000881: 05,2217           02721                           TC       SFRUTMIX                              #  GET SF ROUT NUMBER IN A
000882: 05,2220           02236                           TC       DPTEST
000883: 05,2221           02223                           TC       MIXNN2                                #  NO DP
000884: 05,2222           24106                           INCR     NOUNTEM                               #  DP GET MINOR PART
000885: 05,2223           30106        MIXNN2             CA       NOUNTEM
000886: 05,2224           74503                           MASK     LOW11                                 #  ESUBK (NO DP) OR (ESUBK)+1     FOR DP
000887: 05,2225           04440                           TC       SETEBANK                              #  SET EBANK, LEAVE EADRES IN A.
000888: 05,2226           50000                           INDEX    A                                     #  PICK UP C(ESUBK)  NOT DP
000889: 05,2227           30000                           CA       0                                     #  OR C((ESUBK)+1)  FOR DP MINOR PART
000890: 05,2230           50131                           INDEX    NOUNADD
000891: 05,2231           56000                           XCH      0                                     #  STORE IN MIXTEM + K
000892: 05,2232           10103                           CCS      DECOUNT
000893: 05,2233           02211                           TC       MIXNN1
000894: 05,2234           02116                           TC       VERBFAN
000895:
000896: 05,2235           00111        MIXAD              TC       MIXTEMP
000897:
000898:
000899:
000900:                                                                                                  #  DPTEST   ENTER WITH SF ROUT NUMBER IN A.
000901:                                                                                                  #           RETURNS TO L+1 IF NO DP.
000902:                                                                                                  #           RETURNS TO L+2 IF DP.
000903:
000904: 05,2236           50000        DPTEST             INDEX    A
000905: 05,2237           12240                           TCF      +1
000906: 05,2240           00002                           TC       Q                                     #  OCTAL ONLY NO DP


000908: 05,2241           00002                           TC       Q                                     #  FRACT NO DP
000909: 05,2242           00002                           TC       Q                                     #  DEG  NO DP
000910: 05,2243           00002                           TC       Q                                     #  ARITH  NO DP
000911: 05,2244           12250                           TCF      DPTEST1                               #  DP1OUT
000912: 05,2245           12250                           TCF      DPTEST1                               #  DP2OUT
000913: 05,2246           00002                           TC       Q                                     #  OPDEG  NO DP
000914: 05,2247           12250                           TCF      DPTEST1                               #  DP3OUT
000915: 05,2250           50002        DPTEST1            INDEX    Q
000916: 05,2251           00001                           TC       1                                     #  RETURN TO L+2
000917:
000918:
000919:
000920: 05,2252           34444        REQDATX            CAF      R1D1
000921: 05,2253           12257                           TCF      REQCOM
000922: 05,2254           34445        REQDATY            CAF      R2D1
000923: 05,2255           12257                           TCF      REQCOM
000924: 05,2256           34446        REQDATZ            CAF      R3D1
000925: 05,2257           54637        REQCOM             TS       DSPCOUNT
000926: 05,2260           40002                           CS       Q
000927: 05,2261           54653                           TS       REQRET
000928: 05,2262           04063                           TC       BANKCALL
000929: 05,2263           10454                           CADR     5BLANK
000930: 05,2264           04543                           TC       FLASHON
000931: 05,2265           44417                           CS       ENDINST
000932: 05,2266           60122                           AD       ENTEXIT
000933: 05,2267           00006                           EXTEND
000934: 05,2270           12273                           BZF      ENDRQDAT                              #  ENTEXIT = ENDOFJOB. EXTERNALLY INITIATED
000935: 05,2271           47653                           CS       ZERO                                  #  ENTEXIT NOT ENDOFJOB. NVSUB INITIATED
000936: 05,2272           54676                           TS       CADRSTOR                              #  NVSUB INITIATED LOAD. SET CADRSTOR TO -0
000937: 05,2273           00122        ENDRQDAT           TC       ENTEXIT
000938:
000939:                                                                                                  #  IF NVSUB INITIATED LOAD, SET CADRSTOR TO -0 TO TELL RECALTST TO RELEASE
000940:                                                                                                  #  DISPLAY IF ENDIDLE WAS NOT USED. (NECESSARY FOR DATAWAIT)
000941:
000942:
000943:
000944: 05,2274           54642                           TS       NOUNREG
000945: 05,2275           56002        UPDATNN            XCH      Q
000946: 05,2276           54103                           TS       UPDATRET
000947: 05,2277           00006                           EXTEND
000948: 05,2300           32076                           DCA      LODNNLOC                              #  SWITCH BANKS TO NOUN TABLE READING
000949: 05,2301           52006                           DXCH     Z                                     #  ROUTINE.
000950: 05,2302           10132                           CCS      NNADTEM
000951: 05,2303           67646                           AD       ONE                                   #  NORMAL
000952: 05,2304           12307                           TCF      PUTADD
000953: 05,2305           12310                           TCF      PUTADD     +1                         #  MCTBS  DONT CHANGE NOUNADD
000954: 05,2306           12310                           TCF      PUTADD     +1                         #  MCTBI  DONT CHANGE NOUNADD
000955: 05,2307           04430        PUTADD             TC       SETNCADR                              #  ECADR INTO NOUNCADR. SETS EB, NOUNADD.
000956: 05,2310           34507                           CAF      ND1
000957: 05,2311           54637                           TS       DSPCOUNT


000959: 05,2312           30642                           CA       NOUNREG
000960: 05,2313           12322                           TCF      UPDAT1
000961:
000962: 05,2314           54641                           TS       VERBREG
000963: 05,2315           56002        UPDATVB            XCH      Q
000964: 05,2316           54103                           TS       UPDATRET
000965: 05,2317           34506                           CAF      VD1
000966: 05,2320           54637                           TS       DSPCOUNT
000967: 05,2321           30641                           CA       VERBREG
000968: 05,2322           03255        UPDAT1             TC       DSP2BIT
000969: 05,2323           00103                           TC       UPDATRET
000970:
000971:
000972:
000973: 05,2324           04102        GODSPALM           TC       POSTJUMP
000974: 05,2325           11255                           CADR     DSPALARM
000975:


000977:                                                                                                  #           NOUN   TABLES
000978:                                                                                                  #  NOUN CODE L/ 55, NORMAL CASE.  NOUN CODE G/E 55, MIXED NOUN CASE.
000979:                                                                                                  #  FOR NORMAL CASE, NNADTAB CONTAINS ONE       ECADR     FOR EACH NOUN.
000980:                                                                                                  #  +0 INDICATES NOUN NOT USED.   - ENTRY INDICATES MACHINE CADR(E OR F) TO
000981:                                                                                                  #  BE SPECIFIED. -1 INDICATES CHANNEL TO BE SPECIFIED. -0 INDICATES AUGMENT
000982:                                                                                                  #  OF LAST MACHINE CADR SUPPLIED.
000983:
000984:                                                                                                  #  FOR MIXED CASE, NNADTAB CONTAINS ONE INDIRECT ADDRESS(IDADDREL) IN LOW
000985:                                                                                                  #  10 BITS, AND THE COMPONENT CODE NUMBER IN THE HIGH 5 BITS.
000986:
000987:                                                                                                  #  NNTYPTAB IS A PACKED TABLE OF THE FORM MMMMMNNNNNPPPPP.
000988:
000989:                                                                                                  #  FOR THE NORMAL CASE, M-S ARE THE COMPONENT CODE NUMBER.
000990:                                                                                                  #                       N-S ARE THE SF ROUTINE CODE NUMBER.
000991:                                                                                                  #                       P-S ARE THE SF CONSTANT CODE NUMBER.
000992:
000993:                                                                                                  #  MIXED CASE,M-S ARE THE SF CONSTANT3 CODE NUMBER     3 COMPONENT CASE
000994:                                                                                                  #             N-S ARE THE SF CONSTANT2 CODE NUMBER
000995:                                                                                                  #             P-S ARE THE SF CONSTANT1 CODE NUMBER
000996:                                                                                                  #             N-S ARE THE SF CONSTANT2 CODE NUMBER     2 COMPONENT CASE
000997:                                                                                                  #             P-S ARE THE SF CONSTANT1 CODE NUMBER
000998:                                                                                                  #             P-S ARE THE SF CONSTANT1 CODE NUMBER      1 COMPONENT CASE
000999:
001000:                                                                                                  #  THERE IS ALSO AN INDIRECT ADDRESS TABLE(IDADDTAB) FOR MIXED CASE ONLY.
001001:                                                                                                  #  EACH ENTRY CONTAINS ONE ECADR.    IDADDREL IS THE RELATIVE ADDRESS OF
001002:                                                                                                  #  THE FIRST OF THESE ENTRIES.
001003:                                                                                                  #  THERE IS ONE ENTRY IN THIS TABLE FOR EACH COMPONENT OF A MIXED NOUN
001004:                                                                                                  #  THEY ARE LISTED IN ORDER OF ASCENDING K.
001005:
001006:                                                                                                  #  THERE IS ALSO A SCALE FACTOR ROUTINE NUMBER TABLE( RUTMXTAB ) FOR MIXED
001007:                                                                                                  #  CASE ONLY. THERE IS ONE ENTRY PER MIXED NOUN. THE FORM IS,
001008:                                                                                                  #        QQQQQRRRRRSSSSS
001009:                                                                                                  #  Q-S ARE THE SF ROUTINE 3 CODE NUMBER     3 COMPONENT CASE
001010:                                                                                                  #  R-S ARE THE SF ROUTINE 2 CODE NUMBER
001011:                                                                                                  #  S-S ARE THE SF ROUTINE 1 CODE NUMBER
001012:                                                                                                  #  R-S ARE THE SF ROUTINE 2 CODE NUMBER     2 COMPONENT CASE
001013:                                                                                                  #  S-S ARE THE SF ROUTINE 1 CODE NUMBER
001014:
001015:
001016:
001017:                                                                                                  #  IN OCTAL DISPLAY AND LOAD (OCT OR DEC) VERBS, EXCLUDE USE OF VERBS WHOSE
001018:                                                                                                  #  COMPONENT NUMBER IS GREATER THAN THE NUMBER OF COMPONENTS IN NOUN.
001019:                                                                                                  #  ALL MACHINE ADDRESS TO BE SPECIFIED NOUNS ARE 1 COMPONENT.
001020:                                                                                                  #  ONLY EXCEPTION IS NOUN 01 TO ALLOW OCTAL DISPLAYS AND LOADS OF
001021:                                                                                                  #  AN UNCONTOLLED NUMBER OF COMPONENTS.
001022:
001023:
001024:
001025:                                                                                                  #  IN MULTI-COMPONENT LOAD VERBS, NO MIXING OF OCTAL AND DECIMAL DATA
001026:                                                                                                  #  COMPONENT WORDS IS ALLOWED. ALARM IF VIOLATION.
001027:


001029:                                                                                                  #  IN DECIMAL LOADS OF DATA, 5 NUMERICAL CHARACTERS MUST BE KEYED IN
001030:                                                                                                  #  BEFORE EACH ENTER. IF NOT, ALARM.
001031:


001033:                                                                                                  #           DISPLAY VERBS
001034: 05,2326           47645        DSPABC             CS       TWO
001035: 05,2327           02376                           TC       COMPTEST
001036: 05,2330           50131                           INDEX    NOUNADD
001037: 05,2331           40002                           CS       2
001038: 05,2332           56116                           XCH      BUF        +2
001039: 05,2333           47646        DSPAB              CS       ONE
001040: 05,2334           02376                           TC       COMPTEST
001041: 05,2335           50131                           INDEX    NOUNADD
001042: 05,2336           40001                           CS       1
001043: 05,2337           56115                           XCH      BUF        +1
001044: 05,2340           02420        DSPA               TC       TSTFORDP
001045: 05,2341           50131                           INDEX    NOUNADD
001046: 05,2342           40000                           CS       0
001047: 05,2343           56114        DSPCOM1            XCH      BUF
001048: 05,2344           02357                           TC       DSPCOM2
001049: 05,2345           47646        DSPB               CS       ONE
001050: 05,2346           02376                           TC       COMPTEST
001051: 05,2347           50131                           INDEX    NOUNADD
001052: 05,2350           40001                           CS       1
001053: 05,2351           02343                           TC       DSPCOM1
001054: 05,2352           47645        DSPC               CS       TWO
001055: 05,2353           02376                           TC       COMPTEST
001056: 05,2354           50131                           INDEX    NOUNADD
001057: 05,2355           40002                           CS       2
001058: 05,2356           02343                           TC       DSPCOM1
001059: 05,2357           47645        DSPCOM2            CS       TWO                                   #  A  B  C  AB ABC
001060: 05,2360           60641                           AD       VERBREG                               #  -1 -0 +1 +2 +3   IN A
001061: 05,2361           10000                           CCS      A                                     #  +0 +0 +0 +1 +2    IN A AFTER CCS
001062: 05,2362           02365                           TC       DSPCOM3
001063: 05,2363           00122                           TC       ENTEXIT
001064: 05,2364           02365                           TC       +1
001065: 05,2365           54106        DSPCOM3            TS       DISTEM                                #  +0,+1,+2 INTO DISTEM
001066: 05,2366           50000                           INDEX    A
001067: 05,2367           34444                           CAF      R1D1
001068: 05,2370           54637                           TS       DSPCOUNT
001069: 05,2371           50106                           INDEX    DISTEM
001070: 05,2372           40114                           CS       BUF
001071: 05,2373           03222                           TC       DSPOCTWD
001072: 05,2374           56106                           XCH      DISTEM
001073: 05,2375           02361                           TC       DSPCOM2    +2
001074:
001075:                                                                                                  #  COMPTEST ALARMS IF COMPONENT NUMBER OF VERB(LOAD OR OCT DISPLAY) IS
001076:                                                                                                  #  GREATER THAN THE HIGHEST COMPONENT NUMBER OF NOUN.
001077:                                                                                                  #  NOUN 01 IS EXCLUDED FROM TEST.
001078: 05,2376           54107        COMPTEST           TS       SFTEMP1                               #  - VERB COMP
001079: 05,2377           22002                           LXCH     Q
001080: 05,2400           47646        COMPTST1           CS       ONE
001081: 05,2401           60642                           AD       NOUNREG
001082: 05,2402           00006                           EXTEND


001084: 05,2403           12417                           BZF      NDCMPTST                              #  NOUN = 01, ANY COMP OK
001085: 05,2404           50124                           INDEX    MIXBR                                 #  NOUN NOT = 01.
001086: 05,2405           32442                           CAF      COMPICK    -1
001087: 05,2406           50000                           INDEX    A
001088: 05,2407           30000                           CA       0
001089: 05,2410           74475                           MASK     HI5
001090: 05,2411           04456                           TC       LEFT5                                 #  NOUN COMP
001091: 05,2412           60107                           AD       SFTEMP1                               #  NOUN COMP - VERB COMP
001092: 05,2413           10000                           CCS      A
001093: 05,2414           00001                           TC       L                                     #  NOUN COMP G/ VERB COMP
001094: 05,2416                                           LOC      +1
001095: 05,2416           02324                           TC       GODSPALM                              #  NOUN COMP L/ VERB COMP
001096: 05,2417           00001        NDCMPTST           TC       L                                     #  NOUN COMP = VERB COMP
001097:
001098:
001099:
001100: 05,2420           22002        TSTFORDP           LXCH     Q                                     #  TEST FOR DP. IF SO, GET MINOR PART ONLY.
001101: 05,2421           30132                           CA       NNADTEM
001102: 05,2422           67646                           AD       ONE                                   #  IF NNADTEM = -1, CHANNEL TO BE SPECIFIED
001103: 05,2423           00006                           EXTEND
001104: 05,2424           12436                           BZF      CHANDSP
001105: 05,2425           50124                           INDEX    MIXBR
001106: 05,2426           02426                           TC       +0
001107: 05,2427           02431                           TC       +2                                    #  NORMAL
001108: 05,2430           00001                           TC       L                                     #  MIXED CASE ALREADY HANDLED IN MIXNOUN
001109: 05,2431           02713                           TC       SFRUTNOR
001110: 05,2432           02236                           TC       DPTEST
001111: 05,2433           00001                           TC       L                                     #  NO DP
001112: 05,2434           24131                           INCR     NOUNADD                               #  DP    E+1 INTO NOUNADD FOR MINOR PART.
001113: 05,2435           00001                           TC       L
001114:
001115:
001116:
001117: 05,2436           00006        CHANDSP            EXTEND
001118: 05,2437           50657                           INDEX    NOUNCADR
001119: 05,2440           00000                           READ     0
001120: 05,2441           40000                           CS       A
001121: 05,2442           12343                           TCF      DSPCOM1
001122:
001123:
001124:
001125: 05,2443           00133        COMPICK            ADRES    NNTYPTEM
001126: 05,2444           00132                           ADRES    NNADTEM
001127:
001128: 05,2445           50124        DECDSP             INDEX    MIXBR                                 #  NORMAL                MIXED
001129: 05,2446           32442                           CAF      COMPICK    -1                         #  ADRES NNTYPTEM        ADRES NNADTEM
001130: 05,2447           50000                           INDEX    A
001131: 05,2450           30000                           CA       0                                     #  C(NNTYPTEM)           C(NNADTEM)
001132: 05,2451           74475                           MASK     HI5                                   #  GET HI5 OF NNTYPTAB(NORM)OF NNADTAB(MIX)
001133: 05,2452           04456                           TC       LEFT5


001135: 05,2453           54103                           TS       DECOUNT                               #  COMP NUMBER INTO DECOUNT
001136: 05,2454           54106        DSPDCGET           TS       DECTEM                                #  PICKS UP DATA
001137: 05,2455           60131                           AD       NOUNADD                               #  DECTEM 1COMP +0, 2COMP +1, 3COMP +2
001138: 05,2456           50000                           INDEX    A
001139: 05,2457           40000                           CS       0
001140: 05,2460           50106                           INDEX    DECTEM
001141: 05,2461           56643                           XCH      XREG                                  #  CANT USE BUF SINCE DMP USES IT.
001142: 05,2462           10106                           CCS      DECTEM
001143: 05,2463           02454                           TC       DSPDCGET                              #  MORE TO GET
001144: 05,2464           37653        DSPDCPUT           CAF      ZERO                                  #  DISPLAYS DATA
001145: 05,2465           54141                           TS       MPAC       +1                         #  DECOUNT 1COMP +0, 2COMP +1, 3COMP +2
001146: 05,2466           54142                           TS       MPAC       +2
001147: 05,2467           50103                           INDEX    DECOUNT
001148: 05,2470           34444                           CAF      R1D1
001149: 05,2471           54637                           TS       DSPCOUNT
001150: 05,2472           50103                           INDEX    DECOUNT
001151: 05,2473           40643                           CS       XREG
001152: 05,2474           54140                           TS       MPAC
001153: 05,2475           02734                           TC       SFCONUM                               #  2X ( SF CON NUMB ) IN A
001154: 05,2476           54107                           TS       SFTEMP1
001155: 05,2477           00006                           EXTEND                                         #  SWITCH BANKS TO SF CONSTANT TABLE
001156: 05,2500           32512                           DCA      GTSFOUTL                              #     READING ROUTINE.
001157: 05,2501           52006                           DXCH     Z                                     #  LOADS SFTEMP1, SFTEMP2.
001158: 05,2502           50124                           INDEX    MIXBR
001159: 05,2503           02503                           TC       +0
001160: 05,2504           02507                           TC       DSPSFNOR
001161: 05,2505           02721                           TC       SFRUTMIX
001162: 05,2506           02522                           TC       DECDSP3
001163:
001164: 05,2507           02713        DSPSFNOR           TC       SFRUTNOR
001165: 05,2510           02522                           TC       DECDSP3
001166:
001167: 05,2511     0637                                  EBANK=   DSPCOUNT
001168: 05,2511           02037 14001  GTSFOUTL           2CADR    GTSFOUT
001169:
001170:
001171:
001172: 05,2513           04063        DSPDCEND           TC       BANKCALL                              #  ALL SFOUT ROUTINES END HERE
001173: 05,2514           11057                           CADR     DSPDECWD
001174: 05,2515           10103                           CCS      DECOUNT
001175: 05,2516           02520                           TC       +2
001176: 05,2517           00122                           TC       ENTEXIT
001177: 05,2520           54103                           TS       DECOUNT
001178: 05,2521           02464                           TC       DSPDCPUT                              #  MORE TO DISPLAY
001179:
001180:
001181:
001182: 05,2522           50000        DECDSP3            INDEX    A
001183: 05,2523           32525                           CAF      SFOUTABR
001184: 05,2524           04105                           TC       BANKJUMP
001185:


001187: 05,2525           11255        SFOUTABR           CADR     DSPALARM                              #  ALARM IF DEC DISP WITH OCTAL ONLY NOUN
001188: 05,2526           12513                           CADR     DSPDCEND
001189: 05,2527           10533                           CADR     DEGOUTSF
001190: 05,2530           10620                           CADR     ARTOUTSF
001191: 05,2531           10625                           CADR     DP1OUTSF
001192: 05,2532           10632                           CADR     DP2OUTSF
001193: 05,2533           10541                           CADR     OPDEGOUT
001194: 05,2534           10634                           CADR     DP3OUTSF
001195: 05,2535                        ENDRTOUT           EQUALS
001196:
001197:
001198:
001199:                                                                                                  #          THE FOLLOWING IS ATYPICAL SF ROUTINE . IT USES MPAC. LEAVES RESU
001200:                                                                                                  #  LTS IN MPAC, MPAC+1. ENDS WITH TC DSPDCEND
001201:
001202:
001203:
001204: 04,2533                                           SETLOC   BLANKCON   +1
001205:
001206:                                                                                                  #     DEGOUTSF SCALES BY .18 THE LOW 14 BITS OF ANGLE , ADDING .18 FOR
001207:                                                                                                  #  NUMBERS IN THE NEGATIVE (AGC) RANGE.
001208:
001209: 04,2533           37653        DEGOUTSF           CAF      ZERO
001210: 04,2534           54142                           TS       MPAC       +2                         #  SET INDEX FOR FULL SCALE
001211: 04,2535           02572                           TC       FIXRANGE
001212: 04,2536           02540                           TC       +2                                    #  NO AUGMENT NEEDED (SFTEMP1 AND 2 ARE 0)
001213: 04,2537           02565                           TC       SETAUG                                #  SET AUGMENTER ACCORDING TO C(MPAC +2)
001214: 04,2540           02603                           TC       DEGCOM
001215:
001216:                                                                                                  #  OPDEGOUT SCALES BY .45 (THE RANGE IS 90 DEGREES) AND ADDS A 20 DEG BIAS.
001217:
001218: 04,2541           10140        OPDEGOUT           CCS      MPAC                                  #  RANGE IS 90 DEG
001219: 04,2542           56140                           XCH      MPAC                                  #  IF POS OR POS 0 THEN ADD BIAS AND
001220: 04,2543           02546                           TC       +3                                    #  CORRECT FOR POSSIBLE OVERFLOW
001221: 04,2544           02555                           TC       NEGOPT                                #  IF NEG NON ZERO
001222: 04,2545           67655                           AD       NEG1                                  #  IF NEG ZERO SUBTRACT 1
001223: 04,2546           62617                           AD       20BIAS
001224: 04,2547           54140        BIASCOM            TS       MPAC                                  #  TEST FOR OVERFLOW
001225: 04,2550           02553                           TC       +3                                    #  NO OVFLOW
001226: 04,2551           37630                           CAF      BIT15                                 #  IF OVFLOW
001227: 04,2552           26140                           ADS      MPAC
001228: 04,2553           37645                           CAF      TWO                                   #  SET MULTIPLIER TO .45
001229: 04,2554           02534                           TC       DEGOUTSF   +1
001230:
001231: 04,2555           56140        NEGOPT             XCH      MPAC                                  #  NEGATIVE CASE
001232: 04,2556           62617                           AD       20BIAS
001233: 04,2557           10000                           CCS      A
001234: 04,2560           02547                           TC       BIASCOM                               #  IF POS THEN SUBTRACT 1 BECAUSE OF 2SCOM
001235: 04,2562                                           LOC      +1
001236: 04,2562           67646                           AD       ONE                                   #  IF NEG RESTORE SUM
001237:


001239: 04,2563           40000                           COM                                            #  IF NEG 0 LEAVE NEG 0
001240: 04,2564           02547                           TC       BIASCOM
001241:
001242: 04,2565           00006        SETAUG             EXTEND                                         #  LOADS SFTEMP1 AND SFTEMP2 WITH THE
001243: 04,2566           50142                           INDEX    MPAC       +2                         #  DP AUGMENTER CONSTANT
001244: 04,2567           32614                           DCA      DEGTAB
001245: 04,2570           52110                           DXCH     SFTEMP1
001246: 04,2571           00002                           TC       Q
001247:
001248: 04,2572           10140        FIXRANGE           CCS      MPAC                                  #  IF MPAC IS + RETURN TO L+1
001249: 04,2573           00002                           TC       Q                                     #  IF MPAC IS - RETURN TO L+2 AFTER
001250: 04,2574           00002                           TC       Q                                     #  MASKING OUT THE SIGN BIT
001251: 04,2575           12576                           TCF      +1
001252: 04,2576           47630                           CS       BIT15
001253: 04,2577           70140                           MASK     MPAC
001254: 04,2600           54140                           TS       MPAC
001255: 04,2601           50002                           INDEX    Q
001256: 04,2602           00001                           TC       1
001257:
001258: 04,2603           00006        DEGCOM             EXTEND                                         #  LOADS MULTIPLIER, DOES SHORTMP, AND
001259: 04,2604           50142                           INDEX    MPAC       +2                         #  ADDS AUGMENTER.
001260: 04,2605           32614                           DCA      DEGTAB
001261: 04,2606           52141                           DXCH     MPAC                                  #  ADJUSTED ANGLE IN A
001262: 04,2607           07257                           TC       SHORTMP
001263: 04,2610           52110                           DXCH     SFTEMP1
001264: 04,2611           20141                           DAS      MPAC
001265: 04,2612           02623                           TC       SCOUTEND
001266:
001267:
001268:
001269: 04,2613           05605        DEGTAB             OCT      05605                                 #  HI PART OF     .18
001270: 04,2614           03656                           OCT      03656                                 #  LOW PART OF    .18
001271: 04,2615           16314                           OCT      16314                                 #  HI PART OF     .45
001272: 04,2616           31463                           OCT      31463                                 #  LO PART OF     .45
001273:
001274: 04,2617           16040        20BIAS             OCT      16040                                 #  20 DEG BIAS FOR OPTICS
001275:
001276: 04,2620           52110        ARTOUTSF           DXCH     SFTEMP1                               #  ASSUMES POINT AT LEFT OF DP SFCON
001277: 04,2621           52141                           DXCH     MPAC
001278: 04,2622           07257                           TC       SHORTMP
001279: 04,2623           04102        SCOUTEND           TC       POSTJUMP
001280: 04,2624           12513                           CADR     DSPDCEND
001281:
001282: 04,2625           02637        DP1OUTSF           TC       DPOUT                                 #  SCALES MPAC, MPAC +1 BY DP SCALE FACTOR
001283: 04,2626           56142                           XCH      MPAC       +2                         #  IN SFTEMP1, SFTEMP2.  THEN SCALE RESULT
001284: 04,2627           56141                           XCH      MPAC       +1                         #  BY B14.
001285: 04,2630           54140                           TS       MPAC
001286: 04,2631           02623                           TC       SCOUTEND
001287:


001289: 04,2632           02637        DP2OUTSF           TC       DPOUT                                 #  SCALES MPAC, MPAC +1 BY DP SCALE FACTOR
001290: 04,2633           02623                           TC       SCOUTEND
001291:
001292:
001293:
001294: 04,2634           02637        DP3OUTSF           TC       DPOUT                                 #  ASSUMES POINT BETWEEN BITS 7-8 OF HIGH
001295: 04,2635           03032                           TC       TPLEFT7                               #  PART OF SFCON. SHIFTS RESULTS LEFT 7.
001296: 04,2636           02623                           TC       SCOUTEND
001297:
001298:
001299:
001300:                                                                                                  #  DPOUT PICKS UP FRESH DATA FOR BOTH HI AND LO COMPONENTS.
001301:                                                                                                  #  THIS IS NEEDED FOR TIME DISPLAY.
001302:
001303: 04,2637           56002        DPOUT              XCH      Q
001304: 04,2640           54105                           TS       OVFIND
001305: 04,2641           50124                           INDEX    MIXBR
001306: 04,2642           02642                           TC       +0
001307: 04,2643           02660                           TC       DPOUTNOR
001308: 04,2644           50103                           INDEX    DECOUNT                               #  GET IDADDTAB ENTRY FOR COMPONENT K
001309: 04,2645           30134                           CA       IDAD1TEM                              #      OF NOUN.
001310: 04,2646           74503                           MASK     LOW11                                 #  E SUBK
001311: 04,2647           04440                           TC       SETEBANK                              #  SET EB, LEAVE EADRES IN A.
001312: 04,2650           00006        DPOUTCOM           EXTEND
001313: 04,2651           50000                           INDEX    A                                     #  MIXED         NORMAL
001314: 04,2652           30001                           DCA      0                                     #  C(ESUBK)      C(E)
001315: 04,2653           52141                           DXCH     MPAC                                  #  C((E SUBK)+1)      C(E+1)
001316: 04,2654           07062                           TC       DMP
001317: 04,2655           00107                           ADRES    SFTEMP1
001318: 04,2656           07226                           TC       TPAGREE
001319: 04,2657           00105                           TC       OVFIND
001320:
001321: 04,2660           30131        DPOUTNOR           CA       NOUNADD                               #  E
001322: 04,2661           02650                           TC       DPOUTCOM
001323:
001324:
001325:
001326:                                                                                                  #  THIS IS A SPECIAL PURPOSE VERB FOR DISPLAYING A DOUBLE PRECISION AGC
001327:                                                                                                  #  WORD AS 10 DECIMAL DIGITS ON THE AGC DISPLAY PANEL.  IT CAN BE USED WITH
001328:                                                                                                  #  ANY NOUN, EXCEPT MIXED NOUNS. IT DISPLAYS THE CONTENTS
001329:                                                                                                  #  OF THE REGISTER NOUNADD IS POINTING TO .  IF USED WITH NOUNS WHICH ARE
001330:                                                                                                  #  INHERENTLY NOT DP SUCH AS THE CDU COUNTERS THE DISPLAY WILL BE GARBAGE.
001331:                                                                                                  #  DISPLAY IS IN R1 AND R2 ONLY WITH THE SIGN IN R1.
001332:
001333:
001334:
001335: 04,2662           50124        DSPDPDEC           INDEX    MIXBR
001336: 04,2663           02663                           TC       +0
001337: 04,2664           02666                           TC       +2                                    #  NORMAL NOUN
001338: 04,2665           03255                           TC       DSPALARM
001339:


001341: 04,2666           00006                           EXTEND
001342: 04,2667           50131                           INDEX    NOUNADD
001343: 04,2670           30001                           DCA      0
001344: 04,2671           52141                           DXCH     MPAC
001345: 04,2672           34444                           CAF      R1D1
001346: 04,2673           54637                           TS       DSPCOUNT
001347: 04,2674           37653                           CAF      ZERO
001348: 04,2675           54142                           TS       MPAC       +2
001349: 04,2676           07226                           TC       TPAGREE
001350: 04,2677           03133                           TC       DSP2DEC
001351: 04,2700           00122        ENDDPDEC           TC       ENTEXIT
001352:


001354:                                                                                                  #           LOAD   VERBS
001355:
001356:
001357:
001358: 05,2535                                           SETLOC   ENDRTOUT
001359:
001360: 05,2535           47645        ABCLOAD            CS       TWO
001361: 05,2536           02376                           TC       COMPTEST
001362: 05,2537           32673                           CAF      VBSP1LD
001363: 05,2540           02314                           TC       UPDATVB    -1
001364: 05,2541           02252                           TC       REQDATX
001365: 05,2542           32674                           CAF      VBSP2LD
001366: 05,2543           02314                           TC       UPDATVB    -1
001367: 05,2544           02254                           TC       REQDATY
001368: 05,2545           32675                           CAF      VBSP3LD
001369: 05,2546           02314                           TC       UPDATVB    -1
001370: 05,2547           02256                           TC       REQDATZ
001371:
001372:
001373:
001374: 05,2550           46162        PUTXYZ             CS       SIX                                   #  TEST THAT THE 3 DATA WORDS LOADED ARE
001375: 05,2551           02676                           TC       ALLDC/OC                              #  ALL DEC OR ALL OCT.
001376: 05,2552           00006                           EXTEND
001377: 05,2553           32076                           DCA      LODNNLOC                              #  SWITCH BANKS TO NOUN TABLE READING
001378: 05,2554           52006                           DXCH     Z                                     #  ROUTINE.
001379: 05,2555           37653                           CAF      ZERO                                  #  X COMP
001380: 05,2556           02762                           TC       PUTCOM
001381: 05,2557           50131                           INDEX    NOUNADD
001382: 05,2560           54000                           TS       0
001383: 05,2561           37646                           CAF      ONE                                   #  Y COMP
001384: 05,2562           02762                           TC       PUTCOM
001385: 05,2563           50131                           INDEX    NOUNADD
001386: 05,2564           54001                           TS       1
001387: 05,2565           37645                           CAF      TWO                                   #  Z COMP
001388: 05,2566           02762                           TC       PUTCOM
001389: 05,2567           50131                           INDEX    NOUNADD
001390: 05,2570           54002                           TS       2
001391: 05,2571           02663                           TC       LOADLV
001392:
001393: 05,2572           47646        ABLOAD             CS       ONE
001394: 05,2573           02376                           TC       COMPTEST
001395: 05,2574           32673                           CAF      VBSP1LD
001396: 05,2575           02314                           TC       UPDATVB    -1
001397: 05,2576           02252                           TC       REQDATX
001398: 05,2577           32674                           CAF      VBSP2LD
001399: 05,2600           02314                           TC       UPDATVB    -1
001400: 05,2601           02254                           TC       REQDATY
001401: 05,2602           47225        PUTXY              CS       FIVE                                  #  TEST THAT THE 2 DATA WORDS LOADED ARE
001402: 05,2603           02676                           TC       ALLDC/OC                              #  ALL DEC OR ALL OCT.
001403: 05,2604           00006                           EXTEND


001405: 05,2605           32076                           DCA      LODNNLOC                              #  SWITCH BANKS TO NOUN TABLE READING
001406: 05,2606           52006                           DXCH     Z                                     #  ROUTINE.
001407: 05,2607           37653                           CAF      ZERO                                  #  X COMP
001408: 05,2610           02762                           TC       PUTCOM
001409: 05,2611           50131                           INDEX    NOUNADD
001410: 05,2612           54000                           TS       0
001411: 05,2613           37646                           CAF      ONE                                   #  Y COMP
001412: 05,2614           02762                           TC       PUTCOM
001413: 05,2615           50131                           INDEX    NOUNADD
001414: 05,2616           54001                           TS       1
001415: 05,2617           02663                           TC       LOADLV
001416:
001417: 05,2620           02252        ALOAD              TC       REQDATX
001418: 05,2621           00006                           EXTEND
001419: 05,2622           32076                           DCA      LODNNLOC                              #  SWITCH BANKS TO NOUN TABLE READING
001420: 05,2623           52006                           DXCH     Z                                     #  ROUTINE.
001421: 05,2624           37653                           CAF      ZERO                                  #  X COMP
001422: 05,2625           02762                           TC       PUTCOM
001423: 05,2626           50131                           INDEX    NOUNADD
001424: 05,2627           54000                           TS       0
001425: 05,2630           02663                           TC       LOADLV
001426:
001427: 05,2631           47646        BLOAD              CS       ONE
001428: 05,2632           02376                           TC       COMPTEST
001429: 05,2633           37630                           CAF      BIT15                                 #  SET CLPASS FOR PASS0 ONLY
001430: 05,2634           54655                           TS       CLPASS
001431: 05,2635           02254                           TC       REQDATY
001432: 05,2636           00006                           EXTEND
001433: 05,2637           32076                           DCA      LODNNLOC                              #  SWITCH BANKS TO NOUN TABLE READING
001434: 05,2640           52006                           DXCH     Z                                     #  ROUTINE.
001435: 05,2641           37646                           CAF      ONE
001436: 05,2642           02762                           TC       PUTCOM
001437: 05,2643           50131                           INDEX    NOUNADD
001438: 05,2644           54001                           TS       1
001439: 05,2645           02663                           TC       LOADLV
001440:
001441: 05,2646           47645        CLOAD              CS       TWO
001442: 05,2647           02376                           TC       COMPTEST
001443: 05,2650           37630                           CAF      BIT15                                 #  SET CLPASS FOR PASS0 ONLY
001444: 05,2651           54655                           TS       CLPASS
001445: 05,2652           02256                           TC       REQDATZ
001446: 05,2653           00006                           EXTEND
001447: 05,2654           32076                           DCA      LODNNLOC                              #  SWITCH BANKS TO NOUN TABLE READING
001448: 05,2655           52006                           DXCH     Z                                     #  ROUTINE.
001449: 05,2656           37645                           CAF      TWO
001450: 05,2657           02762                           TC       PUTCOM
001451: 05,2660           50131                           INDEX    NOUNADD
001452: 05,2661           54002                           TS       2
001453: 05,2662           02663                           TC       LOADLV
001454:


001456: 05,2663           37653        LOADLV             CAF      ZERO
001457: 05,2664           54640                           TS       DECBRNCH
001458: 05,2665           47653                           CS       ZERO
001459: 05,2666           54654                           TS       LOADSTAT
001460: 05,2667           44506                           CS       VD1                                   #  TO BLOCK NUMERICAL CHARACTERS AND
001461: 05,2670           54637                           TS       DSPCOUNT                              #  CLEARS AFTER A COMPLETED LOAD
001462: 05,2671           04102                           TC       POSTJUMP                              #  AFTER COMPLETED LOAD, GO TO RECALTST
001463: 05,2672           11400                           CADR     RECALTST                              #  TO SEE IF THERE IS RECALL FROM ENDIDLE.
001464:
001465: 05,2673           00021        VBSP1LD            OCT      21                                    #  VB21 = ALOAD
001466: 05,2674           00022        VBSP2LD            OCT      22                                    #  VB22 = BLOAD
001467: 05,2675           00023        VBSP3LD            OCT      23                                    #  VB23 = CLOAD
001468:
001469:
001470:
001471: 05,2676           54103        ALLDC/OC           TS       DECOUNT                               #  TESTS THAT DATA WORDS LOADED ARE EITHER
001472: 05,2677           40640                           CS       DECBRNCH                              #  ALL DEC OR ALL OCT. ALARMS IF NOT.
001473: 05,2700           54021                           TS       SR
001474: 05,2701           40021                           CS       SR
001475: 05,2702           40021                           CS       SR                                    #  SHIFTED RIGHT 2
001476: 05,2703           10000                           CCS      A                                     #  DEC COMP BITS IN LOW 3
001477: 05,2704           12706                           TCF      +2                                    #  SOME ONES IN LOW 3
001478: 05,2705           00002                           TC       Q                                     #  ALL ZEROS. ALL OCTAL.  OK
001479: 05,2706           60103                           AD       DECOUNT                               #  DEC COMP = 7 FOR 3COMP, =6 FOR 2COMP
001480: 05,2707           00006                           EXTEND                                         #  (BUT IT HAS BEEN DECREMENTED BY CCS)
001481: 05,2710           12712                           BZF      +2                                    #  MUST MATCH 6 FOR 3COMP, 5 FOR 2COMP.
001482: 05,2711           02324                           TC       GODSPALM
001483: 05,2712           00002        GOQ                TC       Q                                     #  ALL REQUIRED ARE DEC. OK
001484:
001485:
001486:
001487: 05,2713           56002        SFRUTNOR           XCH      Q                                     #  GETS SF ROUTINE NUMBER FOR NORMAL CASE
001488: 05,2714           54100                           TS       EXITEM                                #  CANT USE L FOR RETURN. TSTFORDP USES L.
001489: 05,2715           34474                           CAF      MID5
001490: 05,2716           70133                           MASK     NNTYPTEM
001491: 05,2717           04447                           TC       RIGHT5
001492: 05,2720           00100                           TC       EXITEM                                #  SF ROUTINE NUMBER IN A
001493:
001494: 05,2721           56002        SFRUTMIX           XCH      Q                                     #  GETS SF ROUTINE NUMBER FOR MIXED CASE
001495: 05,2722           54100                           TS       EXITEM
001496: 05,2723           50103                           INDEX    DECOUNT
001497: 05,2724           32753                           CAF      DISPLACE                              #  PUT TC GOQ, TC RIGHT5, OR TC LEFT5 IN L
001498: 05,2725           54001                           TS       L
001499: 05,2726           50103                           INDEX    DECOUNT
001500: 05,2727           34473                           CAF      LOW5                                  #  LOW5, MID5, OR HI5 IN A
001501: 05,2730           70137                           MASK     RUTMXTEM                              #  GET HI5, MID5, OR LOW5 OF RUTMXTAB ENTRY
001502: 05,2731           50001                           INDEX    L
001503: 05,2732           00000                           TC       0
001504:                                                                                                  #  DO TC GOQ(DECOUNT=0), DO TC RIGHT5(DECOUNT=1), DO TC LEFT5(DECOUNT=2).
001505: 05,2733           00100        SFRET1             TC       EXITEM                                #  SF ROUTINE NUMBER IN A
001506:


001508: 05,2734           56002        SFCONUM            XCH      Q                                     #  GETS 2X( SF CONSTANT NUMBER)
001509: 05,2735           54100                           TS       EXITEM
001510: 05,2736           50124                           INDEX    MIXBR
001511: 05,2737           02737                           TC       +0
001512: 05,2740           02756                           TC       CONUMNOR                              #  NORMAL NOUN
001513: 05,2741           50103                           INDEX    DECOUNT                               #  MIXED NOUN
001514: 05,2742           32753                           CAF      DISPLACE
001515: 05,2743           54001                           TS       L                                     #  PUT TC GOQ, TC RIGHT5, OR TC LEFT5 IN L
001516: 05,2744           50103                           INDEX    DECOUNT
001517: 05,2745           34473                           CAF      LOW5
001518: 05,2746           70133                           MASK     NNTYPTEM
001519: 05,2747           50001                           INDEX    L
001520: 05,2750           00000                           TC       0
001521:                                                                                                  #  DO TC GOQ(DECOUNT=0), DO TC RIGHT5(DECOUNT=1), DO TC LEFT5(DECOUNT=2).
001522: 05,2751           60000        SFRET              DOUBLE                                         #  2X(SF CONSTANT NUMBER ) IN A
001523: 05,2752           00100                           TC       EXITEM
001524:
001525: 05,2753           02712        DISPLACE           TC       GOQ
001526: 05,2754           04447                           TC       RIGHT5
001527: 05,2755           04456                           TC       LEFT5
001528:
001529: 05,2756           34473        CONUMNOR           CAF      LOW5                                  #  NORMAL NOUN ALWAYS GETS LOW 5 OF
001530: 05,2757           70133                           MASK     NNTYPTEM                              #  NNTYPTAB FOR SF CONUM.
001531: 05,2760           60000                           DOUBLE
001532: 05,2761           00100                           TC       EXITEM                                #  2X( SF CONSTANT NUMBER) IN A
001533:
001534:
001535:
001536: 05,2762           54103        PUTCOM             TS       DECOUNT
001537: 05,2763           56002                           XCH      Q
001538: 05,2764           54101                           TS       DECRET
001539: 05,2765           37653                           CAF      ZERO
001540: 05,2766           54105                           TS       OVFIND
001541: 05,2767           50103                           INDEX    DECOUNT
001542: 05,2770           56646                           XCH      XREGLP
001543: 05,2771           54141                           TS       MPAC       +1
001544: 05,2772           50103                           INDEX    DECOUNT
001545: 05,2773           56643                           XCH      XREG
001546: 05,2774           54140                           TS       MPAC
001547: 05,2775           50124                           INDEX    MIXBR
001548: 05,2776           02776                           TC       +0
001549: 05,2777           03023                           TC       PUTNORM                               #  NORMAL NOUN
001550:                                                                                                  #  IF MIXNOUN, PLACE ADDRESS FOR COMPONENT K INTO NOUNADD, SET EBANK BITS.
001551: 05,3000           50103                           INDEX    DECOUNT                               #  GET IDADDTAB ENTRY FOR COMPONENT K
001552: 05,3001           30134                           CA       IDAD1TEM                              #          OF NOUN.
001553: 05,3002           74503                           MASK     LOW11                                 #  (ECADR)SUBK FOR CURRENT COMP OF NOUN
001554: 05,3003           04430                           TC       SETNCADR                              #  ECADR INTO NOUNCADR. SETS EB, NOUNADD.
001555: 05,3004           00006                           EXTEND                                         #  C(NOUNADD) IN A UPON RETURN
001556: 05,3005           60103                           SU       DECOUNT                               #  PLACE (ESUBK)-K INTO NOUNADD
001557: 05,3006           54131                           TS       NOUNADD
001558:


001560: 05,3007           10640                           CCS      DECBRNCH
001561: 05,3010           03051                           TC       PUTDECSF                              #  +  DEC
001562: 05,3011           02721                           TC       SFRUTMIX                              #  +0  OCTAL
001563: 05,3012           02236                           TC       DPTEST
001564: 05,3013           03040                           TC       PUTCOM2                               #  NO DP
001565:                                                                                                  #  TEST FOR DP SCALE FOR OCT LOAD. IF SO,
001566:                                                                                                  #  +0 INTO MAJOR PART. SET NOUNADD FOR
001567:                                                                                                  #  LOADING OCTAL WORD INTO MINOR PART.
001568: 05,3014           24131        PUTDPCOM           INCR     NOUNADD                               #  DP  (ESUBK)-K+1  OR  E+1
001569: 05,3015           30131                           CA       NOUNADD                               #  NOUNADD NOW SET FOR MINOR PART
001570: 05,3016           26103                           ADS      DECOUNT                               #  (ESUBK)+1  OR  E+1  INTO DECOUNT
001571: 05,3017           37653                           CAF      ZERO                                  #  NOUNADD SET FOR MINOR PART
001572: 05,3020           50103                           INDEX    DECOUNT
001573: 05,3021           53777                           TS       0          -1                         #  ZERO MAJOR PART(ESUBK OR E)
001574: 05,3022           03040                           TC       PUTCOM2
001575:
001576: 05,3023           04436        PUTNORM            TC       SETNADD                               #  ECADR FROM NOUNCADR. SETS EB, NOUNADD.
001577: 05,3024           10640                           CCS      DECBRNCH
001578: 05,3025           03051                           TC       PUTDECSF                              #  +  DEC
001579: 05,3026           02713                           TC       SFRUTNOR                              #  +0  OCTAL
001580: 05,3027           02236                           TC       DPTEST
001581: 05,3030           03034                           TC       PUTCOM2    -4                         #  NO DP
001582: 05,3031           37653                           CAF      ZERO                                  #  DP
001583: 05,3032           54103                           TS       DECOUNT
001584: 05,3033           03014                           TC       PUTDPCOM
001585:
001586: 05,3034           30132                           CA       NNADTEM
001587: 05,3035           67646                           AD       ONE                                   #  IF NNADTEM = -1, CHANNEL TO BE SPECIFIED
001588: 05,3036           00006                           EXTEND
001589: 05,3037           13044                           BZF      CHANLOAD
001590: 05,3040           56140        PUTCOM2            XCH      MPAC
001591: 05,3041           00101                           TC       DECRET
001592:
001593: 05,3042     0637                                  EBANK=   DSPCOUNT
001594: 05,3042           02045 14001  GTSFINLC           2CADR    GTSFIN
001595:
001596:
001597: 05,3044           56140        CHANLOAD           XCH      MPAC
001598: 05,3045           00006                           EXTEND
001599: 05,3046           50657                           INDEX    NOUNCADR
001600: 05,3047           01000                           WRITE    0
001601: 05,3050           02663                           TC       LOADLV
001602:
001603:
001604:
001605:                                                                                                  #  PUTDECSF FINDS MIXBR AND DECOUNT STILL SET FROM PUTCOM
001606:
001607: 05,3051           02734        PUTDECSF           TC       SFCONUM                               #  2X(SF CON NUMB) IN A
001608: 05,3052           54107                           TS       SFTEMP1
001609:


001611: 05,3053           00006                           EXTEND                                         #  SWITCH BANKS TO SF CONSTANT TABLE
001612: 05,3054           33043                           DCA      GTSFINLC                              #  READING ROUTINE.
001613: 05,3055           52006                           DXCH     Z                                     #  LOADS SFTEMP1, SFTEMP2.
001614: 05,3056           50124                           INDEX    MIXBR
001615: 05,3057           03057                           TC       +0
001616: 05,3060           03063                           TC       PUTSFNOR
001617: 05,3061           02721                           TC       SFRUTMIX
001618: 05,3062           03064                           TC       PUTDCSF2
001619: 05,3063           02713        PUTSFNOR           TC       SFRUTNOR
001620:
001621: 05,3064           50000        PUTDCSF2           INDEX    A
001622: 05,3065           33067                           CAF      SFINTABR
001623: 05,3066           04105                           TC       BANKJUMP                              #  SWITCH BANKS FOR EXPANSHION ROOM
001624: 05,3067           11255        SFINTABR           CADR     DSPALARM                              #  ALARM IF DEC LOAD WITH OCTAL ONLY NOUN
001625: 05,3070           10761                           CADR     BINROUND
001626: 05,3071           10701                           CADR     DEGINSF
001627: 05,3072           10751                           CADR     ARTHINSF
001628: 05,3073           11001                           CADR     DPINSF
001629: 05,3074           11026                           CADR     DPINSF2
001630: 05,3075           10764                           CADR     OPTDEGIN
001631: 05,3076           11001                           CADR     DPINSF                                #  SAME AS ARITHDP1
001632: 05,3077                        ENDRUTIN           EQUALS
001633:
001634:
001635:
001636:                                                                                                  #  SCALE FACTORS FOR THOSE ROUTINES NEEDING THEM ARE AVAILABLE IN SFTEMP1.
001637:                                                                                                  #  ALL SFIN ROUTINES USE MPAC MPAC+1. LEAVE RESULT IN A. END WITH TC DECRET
001638:
001639:
001640:
001641: 04,2701                                           SETLOC   ENDDPDEC   +1
001642:
001643:                                                                                                  #  DEGINSF APPLIES 1000/180 =5.55555(10) = 5.43434(8)
001644:
001645: 04,2701           07062        DEGINSF            TC       DMP                                   #  SF ROUTINE FOR DEC DEGREES
001646: 04,2702           02744                           ADRES    DEGCON1                               #  MULT BY 5.5 5(10)X2EXP-3
001647: 04,2703           10141                           CCS      MPAC       +1                         #  THIS ROUNDS OFF MPAC+1 BEFORE SHIFT
001648: 04,2704           37634                           CAF      BIT11                                 #  LEFT 3, AND CAUSES 360.00 TO OF/UF
001649: 04,2705           02707                           TC       +2                                    #  WHEN SHIFTED LEFT AND ALARM.
001650: 04,2706           47634                           CS       BIT11
001651: 04,2707           60141                           AD       MPAC       +1
001652: 04,2710           03044                           TC       2ROUND     +2
001653: 04,2711           04532                           TC       TPSL1                                 #  LEFT 1
001654: 04,2712           04532        DEGINSF2           TC       TPSL1                                 #  LEFT 2
001655: 04,2713           03053                           TC       TESTOFUF
001656: 04,2714           04532                           TC       TPSL1                                 #  RETURNS IF NO OF/UF (LEFT3)
001657: 04,2715           10140                           CCS      MPAC
001658: 04,2716           02722                           TC       SIGNFIX                               #  IF+, GO TO SIGNFIX
001659: 04,2717           02722                           TC       SIGNFIX                               #  IF +0, GO TO SIGNFIX
001660: 04,2720           40000                           COM                                            #  IF - , USE -MAGNITUDE +1


001662: 04,2721           54140                           TS       MPAC                                  #  IF -0, USE +0
001663: 04,2722           10105        SIGNFIX            CCS      OVFIND
001664: 04,2723           02740                           TC       SGNTO1                                #  IF OVERFLOW
001665: 04,2724           02734                           TC       ENDSCALE                              #  NO OVERFLOW/UNDERFLOW
001666: 04,2725           10140                           CCS      MPAC                                  #  IF UF FORCE SIGN TO 0 EXCEPT -180
001667: 04,2727                                           LOC      +1
001668: 04,2727           02736                           TC       NEG180
001669: 04,2730           02731                           TC       +1
001670: 04,2731           56140                           XCH      MPAC
001671: 04,2732           77626                           MASK     POSMAX
001672: 04,2733           54140                           TS       MPAC
001673: 04,2734           04102        ENDSCALE           TC       POSTJUMP
001674: 04,2735           13040                           CADR     PUTCOM2
001675:
001676: 04,2736           47626        NEG180             CS       POSMAX
001677: 04,2737           02733                           TC       ENDSCALE   -1
001678:
001679: 04,2740           40140        SGNTO1             CS       MPAC                                  #  IF OF FORCE SIGN TO 1
001680: 04,2741           77626                           MASK     POSMAX
001681: 04,2742           40000                           CS       A
001682: 04,2743           02733                           TC       ENDSCALE   -1
001683:
001684: 04,2744           26161 30707  DEGCON1            2DEC     5.555555555 B-3
001685:
001686: 04,2746           21616 07071  DEGCON2            2DEC     2.222222222 B-2
001687:
001688: 04,2750           71527        NEG.2              OCT      -06250                                #  = .197753906  I.E. THE BIAS SCALED
001689:
001690: 04,2751           07062        ARTHINSF           TC       DMP                                   #  SCALES MPAC, +1 BY SFTEMP1, SFTEMP2.
001691: 04,2752           00107                           ADRES    SFTEMP1                               #  ASSUMES POINT BETWEEN HI AND LO PARTS
001692: 04,2753           56142                           XCH      MPAC       +2                         #  OF SFCON. SHIFTS RESULTS LEFT BY 14.
001693: 04,2754           56141                           XCH      MPAC       +1                         #  (BY TAKING RESULTS FROM MPAC+1, MPAC+2)
001694: 04,2755           56140                           XCH      MPAC
001695: 04,2756           00006                           EXTEND
001696: 04,2757           12761                           BZF      BINROUND
001697: 04,2760           03255                           TC       DSPALARM                              #  TOO LARGE A LOAD
001698: 04,2761           03042        BINROUND           TC       2ROUND
001699: 04,2762           03053                           TC       TESTOFUF
001700: 04,2763           02734                           TC       ENDSCALE                              #  RETURNS IF NO OF/UF
001701:
001702:
001703:
001704: 04,2764           10140        OPTDEGIN           CCS      MPAC                                  #  OPTICS SCALING ROUTINE
001705: 04,2765           02771                           TC       +4
001706: 04,2766           02771                           TC       +3
001707: 04,2767           03255                           TC       DSPALARM                              #  REJECT NEGATIVE INPUT
001708: 04,2770           03255                           TC       DSPALARM                              #          DITTO
001709: 04,2771           32750        OPDEGIN2           CAF      NEG.2                                 #  RANGE IS 90 DEG
001710: 04,2772           26140                           ADS      MPAC                                  #  SUBTRACT BIAS
001711: 04,2773           07062                           TC       DMP                                   #  MULT BY 100 / 45  B-2


001713: 04,2774           02746                           ADRES    DEGCON2
001714: 04,2775           37633                           CAF      BIT12                                 #  ROUND AS IN DEGINSF
001715: 04,2776           60141                           AD       MPAC       +1
001716: 04,2777           03044                           TC       2ROUND     +2
001717: 04,3000           02712                           TC       DEGINSF2
001718:
001719: 04,3001           07062        DPINSF             TC       DMP                                   #  SCALES MPAC, MPAC +1 BY SFTEMP1,
001720: 04,3002           00107                           ADRES    SFTEMP1                               #  SFTEMP2.  STORES LOW PART OF RESULT
001721: 04,3003           56142                           XCH      MPAC       +2                         #  IN (E SUBK) +1 OR E+1
001722: 04,3004           60000                           DOUBLE
001723: 04,3005           54142                           TS       MPAC       +2
001724: 04,3006           37653                           CAF      ZERO
001725: 04,3007           60141                           AD       MPAC       +1
001726: 04,3010           03044                           TC       2ROUND     +2
001727: 04,3011           03053                           TC       TESTOFUF
001728: 04,3012           50124                           INDEX    MIXBR                                 #  RETURNS IF NO OF/UF
001729: 04,3013           03013                           TC       +0
001730: 04,3014           03024                           TC       DPINORM
001731: 04,3015           30103                           CA       DECOUNT                               #  MIXEDNOUN
001732: 04,3016           60131        DPINCOM            AD       NOUNADD                               #      MIXED                NORMAL
001733: 04,3017           54002                           TS       Q                                     #    E SUBK             E
001734: 04,3020           56141                           XCH      MPAC       +1
001735: 04,3021           50002                           INDEX    Q
001736: 04,3022           54001                           TS       1                                     #  PLACE LOW PART IN
001737: 04,3023           02734                           TC       ENDSCALE                              #  (E SUBK) +1    MIXED
001738: 04,3024           37653        DPINORM            CAF      ZERO                                  #  E +1         NORMAL
001739: 04,3025           03016                           TC       DPINCOM
001740:
001741:
001742:
001743: 04,3026           07062        DPINSF2            TC       DMP                                   #  ASSUMES POINT BETWEEN BITS 7-8 OF HIGH
001744: 04,3027           00107                           ADRES    SFTEMP1                               #  PART OF SF CONST. DPINSF2 SHIFTS RESULTS
001745: 04,3030           03032                           TC       TPLEFT7                               #  LEFT BY 7, ROUNDS MPAC+2 INTO MPAC+1.
001746: 04,3031           03003                           TC       DPINSF     +2
001747:
001748:
001749:
001750: 04,3032           56002        TPLEFT7            XCH      Q                                     #  OPERATES ON MPAC, MPAC+1, MPAC+2
001751: 04,3033           54110                           TS       SFTEMP2                               #  CANT USE L FOR RETURN. TPSL1 USES L.
001752: 04,3034           36162                           CAF      SIX                                   #  LEFT BY 7
001753: 04,3035           54107        LEFT7COM           TS       SFTEMP1
001754: 04,3036           04532                           TC       TPSL1
001755: 04,3037           10107                           CCS      SFTEMP1
001756: 04,3040           03035                           TC       LEFT7COM
001757: 04,3041           00110                           TC       SFTEMP2
001758:
001759:
001760:
001761: 04,3042           56141        2ROUND             XCH      MPAC       +1
001762: 04,3043           60000                           DOUBLE


001764: 04,3044           54141                           TS       MPAC       +1
001765: 04,3045           00002                           TC       Q                                     #  IF MPAC+1 DOES NOT OF/UF
001766: 04,3046           60140                           AD       MPAC
001767: 04,3047           54140                           TS       MPAC
001768: 04,3050           00002                           TC       Q                                     #  IF MPAC DOES NOT OF/UF
001769: 04,3051           54105                           TS       OVFIND
001770: 04,3052           00002        2RNDEND            TC       Q
001771:
001772:
001773:
001774: 04,3053           10105        TESTOFUF           CCS      OVFIND                                #  RETURNS IF NO OF/UF
001775: 04,3054           03255                           TC       DSPALARM                              #  OF
001776: 04,3055           00002                           TC       Q
001777: 04,3056           03255                           TC       DSPALARM                              #  UF
001778:


001780:                                                                                                  #  MONITOR ALLOWS OTHER KEYBOARD ACTIVITY. IT IS ENDED BY VERB TERMINATE,
001781:                                                                                                  #  ANY NVSUB CALL THAT PASSES THE DSPLOCK, OR ANOTHER MONITOR.
001782:
001783:                                                                                                  #  MONITOR ACTION IS SUSPENDED, BUT NOT ENDED, BY ANY KEYBOARD ACTION,
001784:                                                                                                  #  EXCEPT ERROR LIGHT RESET. IT BEGINS AGAIN WHEN KEY RELEASE IS PERFORMED.
001785:                                                                                                  #  MONITOR SAVES THE NOUN AND APPROPRIATE DISPLAY VERB IN MONSAVE. IT SAVES
001786:                                                                                                  #  NOUNCADR IN MONSAVE1, IF NOUN = MACHINE CADR TO BE SPECIFIED. BIT 15 OF
001787:                                                                                                  #  MONSAVE1 IS THE KILL MONITOR SIGNAL (KILLER BIT).
001788:
001789:                                                                                                  #  MONSAVE INDICATES IF MONITOR IS ON (+=ON, +0=OFF)
001790:                                                                                                  #  IF MONSAVE IS +, MONITOR ENTERS NO REQUEST, BUT TURNS KILLER BIT OFF.
001791:                                                                                                  #  IF MONSAVE IS +0, MONITOR ENTERS REQUEST AND TURNS KILLER BIT OFF.
001792:
001793:                                                                                                  #  NVSUB AND VB=TERMINATE TURN KILL MONITOR BIT ON.
001794:
001795:                                                                                                  #  IF KILLER BIT IS ON, MONREQ ENTERS NO FURTHER REQUESTS, ZEROS MONSAVE
001796:                                                                                                  #  AND MONSAVE1 (TURNING OFF KILLER BIT).
001797:
001798:
001799:
001800:                                                                                                  #  MONITOR DOSENT TEST FOR MATBS SINCE NVSUB CAN HANDLE INTERNAL MATBS NOW
001801: 05,3077                                           SETLOC   ENDRUTIN
001802:
001803: 05,3077           47630        MONITOR            CS       BIT15
001804: 05,3100           70657                           MASK     NOUNCADR
001805: 05,3101           54141        MONIT1             TS       MPAC       +1                         #  TEMP STORAGE
001806: 05,3102           33401                           CAF      LOW6
001807: 05,3103           70641                           MASK     VERBREG
001808: 05,3104           04456                           TC       LEFT5
001809: 05,3105           54022                           TS       CYL
001810: 05,3106           56022                           XCH      CYL
001811: 05,3107           60642                           AD       NOUNREG
001812: 05,3110           54140                           TS       MPAC                                  #  TEMP STORAGE
001813: 05,3111           40677                           CS       GRABLOCK                              #  NEITHER CASE SEARCHES LIST.
001814: 05,3112           67645                           AD       TWO
001815: 05,3113           10000                           CCS      A
001816: 05,3114           04633                           TC       RELDSP1                               #  GRABLOCK=0,1, +0 INTO DSPLOCK AND
001817: 05,3115           03121                           TC       +4                                    #  TURN OFF KEY RLSE LIGHT.
001818: 05,3117                                           LOC      +1
001819: 05,3117           37653                           CAF      ZERO                                  #  GRABLOCK=2, +0 INTO DSPLOCK AND
001820: 05,3120           54652                           TS       DSPLOCK                               #  LEAVE KEY RLSE LIGHT ALONE
001821: 05,3121           00004                           INHINT
001822: 05,3122           10660                           CCS      MONSAVE
001823: 05,3123           03130                           TC       +5                                    #  IF MONSAVE WAS +, NO REQUEST
001824: 05,3124           37646                           CAF      ONE                                   #  IF MONSAVE WAS 0, REQUEST MONREQ
001825: 05,3125           04251                           TC       WAITLIST
001826: 05,3126     0637                                  EBANK=   DSPCOUNT
001827: 05,3126           03134 12001                     2CADR    MONREQ
001828:
001829: 05,3130           52141                           DXCH     MPAC                                  #  PLACE MONITOR VERB AND NOUN INTO MONSAVE


001831: 05,3131           52661                           DXCH     MONSAVE                               #  ZERO THE KILL MONITOR BIT
001832: 05,3132           00003                           RELINT
001833: 05,3133           00122                           TC       ENTRET
001834:
001835:
001836:
001837: 05,3134           04526        MONREQ             TC       LODSAMPT                              #  CALLED BY WAITLIST
001838: 05,3135           10661                           CCS      MONSAVE1                              #  TIME IS SNATCHED IN RUPT FOR NOUN 65
001839: 05,3136           03142                           TC       +4                                    #  IF KILLER BIT = 0, ENTER REQUESTS
001840: 05,3137           03142                           TC       +3                                    #  IF KILLER BIT = 0, ENTER REQUESTS
001841: 05,3140           03153                           TC       KILLMON                               #  IF KILLER BIT = 1, NO REQUESTS
001842: 05,3141           03153                           TC       KILLMON                               #  IF KILLER BIT = 1, NO REQUESTS
001843: 05,3142           33157                           CAF      MONDEL
001844: 05,3143           04251                           TC       WAITLIST                              #  ENTER WAITLIST REQUEST FOR MONREQ
001845: 05,3144     0637                                  EBANK=   DSPCOUNT
001846: 05,3144           03134 12001                     2CADR    MONREQ
001847:
001848: 05,3146           34502                           CAF      CHRPRIO
001849: 05,3147           04131                           TC       NOVAC                                 #  ENTER EXEC REQUEST FOR MONDO
001850: 05,3150     0637                                  EBANK=   DSPCOUNT
001851: 05,3150           03160 12001                     2CADR    MONDO
001852:
001853: 05,3152           04321                           TC       TASKOVER
001854:
001855: 05,3153           37653        KILLMON            CAF      ZERO                                  #  ZERO MONSAVE AND TURN KILLER BIT OFF
001856: 05,3154           54660                           TS       MONSAVE
001857: 05,3155           54661                           TS       MONSAVE1                              #  TURN OFF KILL MONITOR BIT.
001858: 05,3156           04321                           TC       TASKOVER
001859:
001860:
001861:
001862: 05,3157           00144        MONDEL             OCT      144                                   #  FOR 1 SEC MONITOR INTERVALS
001863:
001864:
001865:
001866: 05,3160           10661        MONDO              CCS      MONSAVE1                              #  CALLED BY EXEC
001867: 05,3161           03165                           TC       +4                                    #  IF KILLER BIT = 0, CONTINUE
001868: 05,3162           03165                           TC       +3                                    #  IF KILLER BIT = 0, CONTINUE
001869: 05,3163           04205                           TC       ENDOFJOB                              #  IN CASE TERMINATE CAME SINCE LAST MONREQ
001870: 05,3164           04205                           TC       ENDOFJOB                              #  IN CASE TERMINATE CAME SINCE LAST MONREQ
001871: 05,3165           10652                           CCS      DSPLOCK
001872: 05,3166           03212                           TC       MONBUSY                               #  NVSUB IS BUSY
001873: 05,3167           33401                           CAF      LOW6                                  #  NVSUB IS AVAILABLE
001874: 05,3170           70660                           MASK     MONSAVE
001875: 05,3171           54107                           TS       NVTEMP
001876: 05,3172           04372                           TC       NVSUBMON                              #  PLACE NOUN INTO NOUNREG AND DISPLAY IT
001877: 05,3173           04205                           TC       ENDOFJOB                              #  IN CASE OF ALARM DURING DISPLAY
001878: 05,3174           33210                           CAF      MONMASK
001879: 05,3175           70660                           MASK     MONSAVE                               #  CHANGE MONITOR VERB TO DISPLAY VERB
001880: 05,3176           04447                           TC       RIGHT5


001882: 05,3177           54020                           TS       CYR
001883: 05,3200           56020                           XCH      CYR
001884: 05,3201           54641                           TS       VERBREG
001885: 05,3202           33211                           CAF      MONBACK                               #  SET RETURN TO PASTEVB AFTER DATA DISPLAY
001886: 05,3203           54122                           TS       ENTRET
001887: 05,3204           47630                           CS       BIT15
001888: 05,3205           70661                           MASK     MONSAVE1                              #  PUT ECADR INTO MPAC +2. INTMCTBS WILL
001889: 05,3206           54142                           TS       MPAC       +2                         #  DISPLAY IT AND SET NOUNCADR, NOUNADD,
001890: 05,3207           02037        ENDMONDO           TC       TESTNN                                #  EBANK.
001891:
001892:    4347                                           SETLOC   ENDT4FF
001893:
001894:    4347           34355        PASTEVB            CAF      MIDSIX
001895:    4350           70660                           MASK     MONSAVE
001896:    4351           54107                           TS       NVTEMP                                #  PLACE MONITOR VERB INTO VERBREG AND
001897:    4352           04372                           TC       NVSUBMON                              #       DISPLAY IT.
001898:    4353           04354                           TC       +1                                    #  IN CASE OF ALARM DURING DISPLAY
001899:    4354           04205        ENDPASTE           TC       ENDOFJOB
001900:
001901:    4355           07700        MIDSIX             OCT      07700
001902:
001903:
001904:
001905: 05,3210                                           SETLOC   ENDMONDO   +1
001906: 05,3210           00700        MONMASK            OCT      700
001907: 05,3211           04347        MONBACK            ADRES    PASTEVB
001908:
001909: 05,3212           04522        MONBUSY            TC       RELDSPON                              #  TURN KEY RELEASE LIGHT
001910: 05,3213           04205                           TC       ENDOFJOB
001911:
001912:
001913:
001914:                                                                                                  #  DSPFMEM IS USED TO DISPLAY (IN OCTAL) ANY FIXED REGISTER.
001915:                                                                                                  #  IT IS USED WITH NOUN = MACHINE CADR TO BE SPECIFIED. THE FCADR OF THE
001916:                                                                                                  #  DESIRED LOCATION IS THEN PUNCHED IN. IT HANDLES F/F ( FCADR 4000-7777)
001917:
001918: 05,3214           34444        DSPFMEM            CAF      R1D1                                  #  IF F/F, DATACALL USES BANK 02 OR 03.
001919: 05,3215           54637                           TS       DSPCOUNT
001920: 05,3216           30657                           CA       NOUNCADR                              #  ORIGINAL FCADR LOADED STILL IN NOUNCADR.
001921: 05,3217           04116                           TC       DATACALL
001922: 05,3220           03222                           TC       DSPOCTWD
001923: 05,3221           04205                           TC       ENDOFJOB
001924:


001926:                                                                                                  #   DSPDECWD CONVERTS C(MPAC) AND C(MPAC+1)TO A SIGN AND 5 CHAR DECIMAL
001927:                                                                                                  #  STARTING IN LOC SPECIFIED IN DSPCOUNT
001928:
001929: 04,3057                                           SETLOC   TESTOFUF   +4
001930:
001931: 04,3057           56002        DSPDECWD           XCH      Q                                     #  USES SHORTMP THROUGHOUT
001932: 04,3060           54101                           TS       WDRET                                 #  CANT USE L FOR RETURN.+ON USES L.
001933: 04,3061           10140                           CCS      MPAC
001934: 04,3062           03071                           TC       +7
001935: 04,3063           03071                           TC       +6
001936: 04,3064           67646                           AD       ONE
001937: 04,3065           54140                           TS       MPAC
001938: 04,3066           02313                           TC       -ON
001939: 04,3067           40141                           CS       MPAC       +1
001940: 04,3070           03073                           TC       +3
001941: 04,3071           02273                           TC       +ON
001942: 04,3072           56141                           XCH      MPAC       +1
001943: 04,3073           63132                           AD       DECROUND
001944: 04,3074           54141                           TS       MPAC       +1
001945: 04,3075           37653                           CAF      ZERO
001946: 04,3076           60140                           AD       MPAC
001947: 04,3077           54140                           TS       MPAC
001948: 04,3100           03104                           TC       +4
001949: 04,3101           37626                           CAF      POSMAX
001950: 04,3102           54140                           TS       MPAC
001951: 04,3103           54141                           TS       MPAC       +1
001952: 04,3104           37644                           CAF      FOUR
001953: 04,3105           54123        DSPDCWD1           TS       WDCNT
001954: 04,3106           34511                           CAF      BINCON
001955: 04,3107           07257                           TC       SHORTMP
001956: 04,3110           50140        TRACE1             INDEX    MPAC
001957: 04,3111           34333                           CAF      RELTAB
001958: 04,3112           74473                           MASK     LOW5
001959: 04,3113           54110                           TS       CODE
001960: 04,3114           37653                           CAF      ZERO
001961: 04,3115           56142                           XCH      MPAC       +2
001962: 04,3116           56141                           XCH      MPAC       +1
001963: 04,3117           54140                           TS       MPAC
001964: 04,3120           56637                           XCH      DSPCOUNT
001965: 04,3121           54127        TRACE1S            TS       COUNT
001966: 04,3122           10000                           CCS      A                                     #  DECREMENT DSPCOUNT EXCEPT AT +0
001967: 04,3123           54637                           TS       DSPCOUNT
001968: 04,3124           03157                           TC       DSPIN
001969: 04,3125           10123                           CCS      WDCNT
001970: 04,3126           03105                           TC       DSPDCWD1
001971: 04,3127           44506                           CS       VD1
001972: 04,3130           54637                           TS       DSPCOUNT
001973: 04,3131           00101                           TC       WDRET
001974:
001975: 04,3132           02476        DECROUND           OCT      02476
001976:


001978:                                                                                                  #  DSP2DEC CONVERTS C(MPAC) AND C(MPAC+1) INTO A SIGN AND 10 CHAR DECIMAL
001979:                                                                                                  #  STARTING IN THE LOC SPECIFIED IN DSPCOUNT.
001980:
001981: 04,3133           56002        DSP2DEC            XCH      Q
001982: 04,3134           54101                           TS       WDRET                                 #  MUST USE SAME RETURN AS DSPDECWD
001983: 04,3135           37653                           CAF      ZERO
001984: 04,3136           54110                           TS       CODE
001985: 04,3137           36165                           CAF      THREE
001986: 04,3140           03241                           TC       11DSPIN                               #  -R2 OFF
001987: 04,3141           37644                           CAF      FOUR
001988: 04,3142           03241                           TC       11DSPIN                               #  +R2 OFF
001989: 04,3143           10140                           CCS      MPAC
001990: 04,3144           03154                           TC       +8D
001991: 04,3145           03154                           TC       +7
001992: 04,3146           67646                           AD       ONE
001993: 04,3147           54140                           TS       MPAC
001994: 04,3150           02313                           TC       -ON
001995: 04,3151           40141                           CS       MPAC       +1
001996: 04,3152           54141                           TS       MPAC       +1
001997: 04,3153           03155                           TC       +2
001998: 04,3154           02273                           TC       +ON
001999: 04,3155           34445                           CAF      R2D1
002000: 04,3156           03105        END2DEC            TC       DSPDCWD1
002001:
002002:
002003:
002004: 05,3222                                           SETLOC   DSPFMEM    +6
002005:                                                                                                  #  DSPOCTWD DISPLAYS C(A) UPON ENTRY AS A 5 CHAR OCT STARTING IN THE DSP
002006:                                                                                                  #  CHAR SPECIFIED IN DSPCOUNT. IT STOPS AFTER 5 CHAR HAVE BEEN DISPLAYED.
002007:
002008: 05,3222           54022        DSPOCTWD           TS       CYL
002009: 05,3223           56002                           XCH      Q
002010: 05,3224           54101                           TS       WDRET                                 #  MUST USE SAME RETURN AS DSP2BIT.
002011: 05,3225           37631                           CAF      BIT14                                 #  TO BLANK SIGNS
002012: 05,3226           26637                           ADS      DSPCOUNT
002013: 05,3227           37644                           CAF      FOUR
002014: 05,3230           54123        WDAGAIN            TS       WDCNT
002015: 05,3231           40022                           CS       CYL
002016: 05,3232           40022                           CS       CYL
002017: 05,3233           40022                           CS       CYL
002018: 05,3234           40000                           CS       A
002019: 05,3235           77652                           MASK     DSPMSK
002020: 05,3236           50000                           INDEX    A
002021: 05,3237           34333                           CAF      RELTAB
002022: 05,3240           74473                           MASK     LOW5
002023: 05,3241           54110                           TS       CODE
002024: 05,3242           56637                           XCH      DSPCOUNT
002025: 05,3243           54127                           TS       COUNT
002026: 05,3244           10000                           CCS      A                                     #  DECREMENT DSPCOUNT EXCEPT AT +0
002027: 05,3245           54637                           TS       DSPCOUNT


002029: 05,3246           04102                           TC       POSTJUMP
002030: 05,3247           11247                           CADR     DSPOCTIN
002031: 05,3250           10123        OCTBACK            CCS      WDCNT
002032: 05,3251           03230                           TC       WDAGAIN                               #  +
002033: 05,3252           44506        DSPLV              CS       VD1                                   #  TO BLOCK NUMERICAL CHARACTERS, CLEARS,
002034: 05,3253           54637                           TS       DSPCOUNT                              #  AND SIGNS AFTER A COMPLETED DISPLAY.
002035: 05,3254           00101                           TC       WDRET
002036:
002037: 05,3255     7652               DSPMSK             =        SEVEN
002038:
002039:
002040:
002041:                                                                                                  #  DSP2BIT DISPLAYS C(A) UPON ENTRY AS A 2 CHAR OCT BEGINNING IN THE DSP
002042:                                                                                                  #  LOC SPECIFIED IN DSPCOUNT BY PRE CYCLING RIGHT C(A) AND USING THE LOGIC
002043:                                                                                                  #  OF THE 5 CHAR OCTAL DISPLAY
002044:
002045: 05,3255           54020        DSP2BIT            TS       CYR
002046: 05,3256           56002                           XCH      Q
002047: 05,3257           54101                           TS       WDRET                                 #  CANT USE L AS RETURN. UPDATNN USES L.
002048: 05,3260           37646                           CAF      ONE
002049: 05,3261           54123                           TS       WDCNT
002050: 05,3262           40020                           CS       CYR
002051: 05,3263           40020                           CS       CYR
002052: 05,3264           56020                           XCH      CYR
002053: 05,3265           54022                           TS       CYL
002054: 05,3266           03235                           TC       WDAGAIN    +5
002055:
002056:
002057:
002058:                                                                                                  #  FOR DSPIN PLACE 0/25 OCT INTO COUNT, 5 BIT RELAY CODE INTO CODE. BOTH
002059:                                                                                                  #  ARE DESTROYED. IF BIT14 OF COUNT IS 1, SIGN IS BLANKED WITH LEFT CHAR.
002060:                                                                                                  #  FOR DSPIN1 PLACE 0,1 INTO BIT11 OF CODE, 2 INTO COUNT, REL ADDRESS OF
002061:                                                                                                  #  DSPTAB ENTRY INTO DSREL.
002062:
002063: 04,3157                                           SETLOC   END2DEC    +1
002064:
002065: 04,3157           56002        DSPIN              XCH      Q                                     #  CANT USE L FOR RETURN, SINCE MANY OF THE
002066: 04,3160           54100                           TS       DSEXIT                                #  ROUTINES CALLING DSPIN USE L AS RETURN.
002067: 04,3161           34473                           CAF      LOW5
002068: 04,3162           70127                           MASK     COUNT
002069: 04,3163           54021                           TS       SR
002070: 04,3164           56021                           XCH      SR
002071: 04,3165           54125                           TS       DSREL
002072: 04,3166           37646                           CAF      BIT1
002073: 04,3167           70127                           MASK     COUNT
002074: 04,3170           10000                           CCS      A
002075: 04,3171           03173                           TC       +2                                    #  LEFT IF COUNT IS ODD
002076: 04,3172           03203                           TC       DSPIN1     -1                         #  RIGHT IF COUNT IS EVEN
002077: 04,3173           56110                           XCH      CODE
002078: 04,3174           04465                           TC       SLEFT5                                #  DOES NOT USE CYL


002080: 04,3175           54110                           TS       CODE
002081: 04,3176           37631                           CAF      BIT14
002082: 04,3177           70127                           MASK     COUNT
002083: 04,3200           10000                           CCS      A
002084: 04,3201           37645                           CAF      TWO                                   #  BIT14 = 1, BLANK SIGN
002085: 04,3202           67646                           AD       ONE                                   #  BIT14 = 0, LEAVE SIGN ALONE
002086: 04,3203           54127                           TS       COUNT                                 #  +0 INTO COUNT FOR RIGHT
002087:                                                                                                  #  +1 INTO COUNT FOR LEFT(SIGN LEFT ALONE)
002088:                                                                                                  #  +3 INTO COUNT FOR LEFT(TO BLANK SIGN)
002089: 04,3204           00004        DSPIN1             INHINT
002090: 04,3205           50125                           INDEX    DSREL
002091: 04,3206           10662                           CCS      DSPTAB
002092: 04,3207           03211                           TC       +2                                    #  IF +
002093: 04,3211                                           LOC      +1
002094: 04,3211           67646                           AD       ONE                                   #  IF -
002095: 04,3212           54126                           TS       DSMAG
002096: 04,3213           50127                           INDEX    COUNT
002097: 04,3214           73235                           MASK     DSMSK
002098: 04,3215           00006                           EXTEND
002099: 04,3216           60110                           SU       CODE
002100: 04,3217           00006                           EXTEND
002101: 04,3220           13233                           BZF      DSLV                                  #  SAME
002102: 04,3221           50127        DFRNT              INDEX    COUNT
002103: 04,3222           43235                           CS       DSMSK                                 #  MASK WITH 77740,76037, OR 75777
002104: 04,3223           70126                           MASK     DSMAG
002105: 04,3224           60110                           AD       CODE
002106: 04,3225           40000                           CS       A
002107: 04,3226           50125                           INDEX    DSREL
002108: 04,3227           56662                           XCH      DSPTAB
002109: 04,3230           00006                           EXTEND
002110: 04,3231           63233                           BZMF     DSLV                                  #  DSPTAB ENTRY WAS -
002111: 04,3232           24656                           INCR     NOUT                                  #  DSPTAB ENTRY WAS +
002112: 04,3233           00003        DSLV               RELINT
002113: 04,3234           00100                           TC       DSEXIT
002114:
002115: 04,3235           00037        DSMSK              OCT      37
002116: 04,3236           01740                           OCT      1740
002117: 04,3237           02000                           OCT      2000
002118: 04,3240           03740                           OCT      3740
002119:
002120:
002121:
002122:                                                                                                  #  FOR 11DSPIN, PUT REL ADDRESSS OF DSPTAB ENTRY INTO A, 1 IN BIT11 OR 0 IN
002123:                                                                                                  #  BIT11 OF CODE.
002124:
002125: 04,3241           54125        11DSPIN            TS       DSREL
002126: 04,3242           37645                           CAF      TWO
002127: 04,3243           54127                           TS       COUNT
002128: 04,3244           56002                           XCH      Q                                     #  MUST USE SAME RETURN AS DSPIN
002129: 04,3245           54100                           TS       DSEXIT


002131: 04,3246           03204                           TC       DSPIN1
002132:
002133:
002134:
002135: 04,3247           03157        DSPOCTIN           TC       DSPIN                                 #  SO DSPOCTWD DOESNT USE SWCALL
002136: 04,3250           33252                           CAF      +2
002137: 04,3251           04105                           TC       BANKJUMP
002138: 04,3252           13250        ENDSPOCT           CADR     OCTBACK
002139:
002140:
002141:
002142:                                                                                                  #  DSPALARM FINDS TC NVSUBEND IN ENTRET FOR NVSUB INITIATED ROUTINES.
002143:                                                                                                  #  ABORT WITH 01501.
002144:                                                                                                  #  DSPALARM FINDS TC ENDOFJOB IN ENTRET FOR KEYBOARD INITIATED ROUTINES.
002145:                                                                                                  #  DO TC ENTRET.
002146:
002147: 04,3253           34417        CHARALRM           CAF      ENDINST                               #  ALARMS WHICH MUST DO ENDOFJOBS COME
002148: 04,3254           54122                           TS       ENTRET                                #  HERE. ALLOWS ENTRET TO BE TEMP ERASABLE
002149:
002150: 04,3255           04512        DSPALARM           TC       FALTON                                #  TURN ON OPERATOR ERROR LIGHT
002151: 04,3256           43265                           CS       NVSBENDL
002152: 04,3257           60122                           AD       ENTEXIT
002153: 04,3260           00006                           EXTEND
002154: 04,3261           13263                           BZF      +2                                    #  NVSUB INITIATED. ABORT
002155: 04,3262           00122                           TC       ENTEXIT                               #  NOT NVSUB INITIATED.
002156: 04,3263           04662                           TC       ABORT
002157: 04,3264           01501                           OCT      01501
002158: 04,3265           04376        NVSBENDL           TC       NVSUBEND
002159:
002160:
002161:
002162:                                                                                                  #  MMCHANG USES NOUN DISPLAY UNTIL ENTER. THEN IT USES MODE DISP.
002163:                                                                                                  #  IT GOES TO MODROUT WITH THE NEW M M CODE IN A, BUT NOT DISPLAYED IN
002164:                                                                                                  #  M M LIGHTS.
002165:
002166: 05,3267                                           SETLOC   DSP2BIT    +10D
002167:
002168: 05,3267           03302        MMCHANG            TC       REQMM
002169: 05,3270           37653                           CAF      ZERO
002170: 05,3271           56642                           XCH      NOUNREG
002171: 05,3272           54140                           TS       MPAC
002172: 05,3273           34507                           CAF      ND1
002173: 05,3274           54637                           TS       DSPCOUNT
002174: 05,3275           04063                           TC       BANKCALL
002175: 05,3276           10517                           CADR     2BLANK
002176: 05,3277           30140                           CA       MPAC
002177: 05,3300           04102                           TC       POSTJUMP
002178: 05,3301           11255                           CADR     MODROUTB                              #  GO THRU STANDARD LOC.
002179:


002181: 05,3302  04,3255               MODROUTB           =        DSPALARM                              #  **FIX LATER**
002182: 05,3302           40002        REQMM              CS       Q
002183: 05,3303           54653                           TS       REQRET
002184: 05,3304           34507                           CAF      ND1
002185: 05,3305           54637                           TS       DSPCOUNT
002186: 05,3306           37653                           CAF      ZERO
002187: 05,3307           54642                           TS       NOUNREG
002188: 05,3310           04063                           TC       BANKCALL
002189: 05,3311           10517                           CADR     2BLANK
002190: 05,3312           04543                           TC       FLASHON
002191: 05,3313           00122                           TC       ENTEXIT
002192:
002193:
002194:
002195:                                                                                                  #  VBRQEXEC ENTERS REQUEST TO EXEC     FOR ANY ADDRESS WITH ANY PRIORITY.
002196:                                                                                                  #  IT DOES ENDOFJOB AFTER ENTERING REQUEST. DISPLAY SYST IS RELEASED.
002197:                                                                                                  #  IT ASSUMES NOUN 26 HAS BEEN PRELOADED WITH
002198:                                                                                                  #  COMPONENT 1  PRIORITY(BITS 10-14) BIT1=0 FOR NOVAC, BIT1=1 FOR FINDVAC.
002199:                                                                                                  #  COMPONENT 2  JOB ADRES (12 BIT )
002200:                                                                                                  #  COMPONENT 3  BBCON
002201:
002202: 05,3314           37646        VBRQEXEC           CAF      BIT1
002203: 05,3315           70706                           MASK     DSPTEM1
002204: 05,3316           10000                           CCS      A
002205: 05,3317           03336                           TC       SETVAC                                #  IF BIT1 = 1, FINDVAC
002206: 05,3320           34476                           CAF      TCNOVAC                               #  IF BIT1 = 0, NOVAC
002207: 05,3321           54140        REQEX1             TS       MPAC                                  #  TC NOVAC  OR  TC FINDVAC INTO MPAC
002208: 05,3322           47646                           CS       BIT1
002209: 05,3323           70706                           MASK     DSPTEM1
002210: 05,3324           54144                           TS       MPAC       +4                         #  PRIO INTO MPAC+4 AS A TEMP
002211: 05,3325           04610        REQUESTC           TC       RELDSP
002212: 05,3326           34417                           CA       ENDINST
002213: 05,3327           54143                           TS       MPAC       +3                         #  TC ENDOFJOB INTO MPAC+3
002214: 05,3330           00006                           EXTEND
002215: 05,3331           30710                           DCA      DSPTEM1    +1                         #  JOB ADRES INTO MPAC+1
002216: 05,3332           52142                           DXCH     MPAC       +1                         #  BBCON INTO MPAC+2
002217: 05,3333           30144                           CA       MPAC       +4                         #  PRIO IN A
002218: 05,3334           00004                           INHINT
002219: 05,3335           00140                           TC       MPAC
002220:
002221: 05,3336           34501        SETVAC             CAF      TCFINDVC
002222: 05,3337           03321                           TC       REQEX1
002223:
002224:                                                                                                  #  VBRQWAIT ENTERS REQUEST TO WAITLIST FOR ANY ADDRESS WITH ANY DELAY.
002225:                                                                                                  #  IT DOES ENDOFJOB AFTER ENTERING REQUEST.DISPLAY SYST IS RELEASED.
002226:                                                                                                  #  IT ASSUMES NOUN 26 HAS BEEN PRELOADED WITH
002227:                                                                                                  #  COMPONENT 1  DELAY (LOW BITS)
002228:                                                                                                  #  COMPONENT 2  TASK ADRES (12 BIT)
002229:                                                                                                  #  COMPONENT 3  BBCON
002230:


002232: 05,3340           34477        VBRQWAIT           CAF      TCWAIT
002233: 05,3341           54140                           TS       MPAC                                  #  TC WAITLIST INTO MPAC
002234: 05,3342           30706                           CA       DSPTEM1                               #  TIME DELAY
002235: 05,3343           03324        ENDRQWT            TC       REQUESTC   -1
002236:
002237:                                                                                                  #  REQUESTC WILL PUT TASK ADRES INTO MPAC+1, BBCON INTO MPAC+2,
002238:                                                                                                  #  TC ENDOFJOB INTO MPAC+3. IT WILL TAKE TIME DELAY OUT OF MPAC+4 AND
002239:                                                                                                  #  LEAVE IT IN A, INHINT AND TC MPAC.
002240:
002241:
002242:
002243: 04,3266                                           SETLOC   NVSBENDL   +1
002244: 04,3266           37646        VBPROC             CAF      ONE                                   #  PROCEED WITHOUT DATA
002245: 04,3267           54654                           TS       LOADSTAT
002246: 04,3270           04610                           TC       RELDSP
002247: 04,3271           04547                           TC       FLASHOFF
002248: 04,3272           03400                           TC       RECALTST                              #  SEE IF THERE IS ANY RECALL FROM ENDIDLE
002249:
002250:
002251:
002252: 04,3273           04400        VBTERM             TC       KILMONON                              #  TURN ON KILL MONITOR BIT
002253: 04,3274           47646                           CS       ONE
002254: 04,3275           03267                           TC       VBPROC     +1                         #  TERM VERB SETS LOADSTAT NEG
002255:
002256:
002257:
002258:                                                                                                  #  FLASH IS TURNED OFF ONLY BY PROCEED WITHOUT DATA, TERMINATE, END OF LOAD
002259:
002260:
002261:
002262:                                                                                                  #  VBRELDSP TURNS OFF RELEASE DISPLAY SYSTEM LIGHT(AND SEARCHES LIST ONLY
002263:                                                                                                  #  IF THIS LIGHT WAS TURNED ON BY NVSUBUSY), AND TURNS OFF UPACT LIGHT.
002264:
002265: 04,3276           47644        VBRELDSP           CS       BIT3
002266: 04,3277           00006                           EXTEND
002267: 04,3300           03011                           WAND     DSALMOUT                              #  TURN OFF UPACT LIGHT
002268: 04,3301           04610                           TC       RELDSP                                #  SEARCHES LIST
002269: 04,3302           04205                           TC       ENDOFJOB
002270:
002271:
002272:
002273:                                                                                                  #  BUMP SHIFTS WORD DISPLAYED IN R2 TO R3, R1 TO R2. IT BLANKS R1.
002274:
002275: 04,3303           37225        BUMP               CAF      FIVE                                  #  R2D5
002276: 04,3304           54637                           TS       DSPCOUNT
002277: 04,3305           54127                           TS       COUNT
002278: 04,3306           37646                           CAF      ONE                                   #  SHIFT DATA OF R2 TO R3, R1 TO R2
002279: 04,3307           70127                           MASK     COUNT
002280: 04,3310           56127                           XCH      COUNT                                 #  +0 INTO COUNT IF EVEN (RIGHT)
002281: 04,3311           54021                           TS       SR                                    #  +1 INTO COUNT IF ODD (LEFT)


002283: 04,3312           56021                           XCH      SR                                    #  DSREL IN A
002284: 04,3313           50000                           INDEX    A
002285: 04,3314           10662                           CCS      DSPTAB
002286: 04,3315           03317                           TC       +2
002287: 04,3317                                           LOC      +1
002288: 04,3317           67646                           AD       ONE                                   #  DSMAG IN A
002289: 04,3320           50127                           INDEX    COUNT
002290: 04,3321           73235                           MASK     DSMSK
002291: 04,3322           50127                           INDEX    COUNT
002292: 04,3323           03324                           TC       +1
002293: 04,3324           03326                           TC       +2                                    #  EVEN(RIGHT)  OK
002294: 04,3325           04447                           TC       RIGHT5                                #  ODD(LEFT)  SHIFT RIGHT
002295: 04,3326           54110                           TS       CODE
002296: 04,3327           47225                           CS       FIVE
002297: 04,3330           60637                           AD       DSPCOUNT                              #  DSPCOUNT-5
002298: 04,3331           10000                           CCS      A                                     #  TO PREVENT -0
002299: 04,3332           67646                           AD       ONE
002300: 04,3333           03335                           TC       +2
002301: 04,3335                                           LOC      +1
002302: 04,3335           54127                           TS       COUNT
002303: 04,3336           03157                           TC       DSPIN                                 #  CODE ALREADY IN CODE
002304: 04,3337           40637                           CS       DSPCOUNT
002305: 04,3340           64444                           AD       R1D1                                  #  OCT 16
002306: 04,3341           10000                           CCS      A
002307: 04,3342           56637                           XCH      DSPCOUNT                              #  +, DSPCOUNT L/ OCT 16
002308: 04,3343           67646                           AD       ONE                                   #  INCREMENT DSPCOUNT
002309: 04,3344           03304                           TC       BUMP       +1
002310:
002311: 04,3345           37653        SWSGN              CAF      ZERO                                  #  -0, DSPCOUNT= OCT 16. DO SIGN SHIFT
002312: 04,3346           54637                           TS       DSPCOUNT
002313: 04,3347           63376                           AD       SWTAB      +2                         #  OCT 3
002314: 04,3350           50000                           INDEX    A                                     #  PICKUP ORDER , DSREL=3,4,5,6.
002315: 04,3351           10662                           CCS      DSPTAB                                #                   (-R2,+R2,-R1,+R1)
002316: 04,3352           03354                           TC       +2
002317: 04,3354                                           LOC      +1
002318: 04,3354           67646                           AD       ONE
002319: 04,3355           77634                           MASK     BIT11
002320: 04,3356           54110                           TS       CODE
002321: 04,3357           50637                           INDEX    DSPCOUNT
002322: 04,3360           33374                           CAF      SWTAB                                 #  PUT AWAY ORDER, DSREL= 0,1,3,4.
002323: 04,3361           03241                           TC       11DSPIN                               #                   (-R3,+R3,-R2,+R2.)
002324: 04,3362           40637                           CS       DSPCOUNT
002325: 04,3363           63376                           AD       SWTAB      +2                         #  OCT 3
002326: 04,3364           10000                           CCS      A
002327: 04,3365           56637                           XCH      DSPCOUNT                              #  +, DSPCOUNT L/ 3
002328: 04,3366           67646                           AD       ONE                                   #  INCREMENT DSPCOUNT
002329: 04,3367           03346                           TC       SWSGN      +1
002330: 04,3370           34444                           CAF      R1D1                                  #  -0,       DSPCOUNT = 3
002331: 04,3371           54637                           TS       DSPCOUNT
002332: 04,3372           02454                           TC       5BLANK                                #  BLANKS R1


002334: 04,3373           00122                           TC       ENTEXIT
002335:
002336: 04,3374           00000        SWTAB              OCT      0                                     #  -R3
002337: 04,3375           00001                           OCT      1                                     #  +R3
002338: 04,3376           00003                           OCT      3                                     #  -R2
002339: 04,3377           00004                           OCT      4                                     #  +R2
002340:


002342:                                                                                                  #  NVSUB IS USED FOR SUB ROUTINE CALLS FROM WITHIN COMPUTER. IT CAN BE
002343:                                                                                                  #  USED TO DO ANY THING THE KEYBOARD CAN CALL. PLACE  ...VVVVVVNNNNNN
002344:                                                                                                  #  INTO A.      V-S ARE 6 BIT VERB CODE. N-S , 6 BIT NOUN CODE.
002345:
002346:                                                                                                  #  NVSUB CAN BE USED WITH MACH CADR TO BE SPEC BY PLACING THE CADR INTO
002347:                                                                                                  #  MPAC+2 BEFORE THE STANDARD NVSUB CALL.
002348:
002349:                                                                                                  #   NVSUB RETURNS TO 2+ CALLING LOC AFTER PERFORMING TASK, IF DISPLAY
002350:                                                                                                  #  SYSTEM IS AVAILABLE. THE NEW NOUN AND VERB CODES ARE DISPLAYED.
002351:                                                                                                  #  IF V:S =0, THE NEW NOUN CODE IS DISPLAYED ONLY(RETURN WITH NO FURTHER
002352:                                                                                                  #  ACTION). IF N-S =0, THE NEW VERB CODE IS DISPLAYED ONLY(RETURN WITH NO
002353:                                                                                                  #  FURTHER ACTION).
002354:
002355:                                                                                                  #  IT RETURNS TO 1+ CALLING LOC WITHOUT PERFORMING TASK, IF DISPLAY
002356:                                                                                                  #  SYSTEM IS BLOCKED (NOTHING IS DISPLAYED IN THIS CASE).
002357:                                                                                                  #  IT DOES TC ABORT (WITH OCT 01501) IF IT ENCOUNTERS A DISPLAY PROGRAM
002358:                                                                                                  #  ALARM CONDITION BEFORE RETURN TO CALLER.
002359:
002360:                                                                                                  #  THE DISPLAY SYSTEM IS BLOCKED BY THE DEPRESSION OF ANY
002361:                                                                                                  #  KEY, EXCEPT ERROR LIGHT RESET. ALSO BY ENDIDLE.
002362:                                                                                                  #       IT IS RELEASED BY SPECIAL VERB = RELEASE DISPLAY, ALL GO TO VERBS.
002363:                                                                                                  #  PROCEED WITHOUT DATA, TERMINATE, INITIALIZE EXECUTIVE,
002364:                                                                                                  #  RECALL PART OF RECALTST IF ENDIDLE WAS USED,
002365:                                                                                                  #  IN RECALTST IF NVSUB INITIATED LOAD AND ENDIDLE WAS NOT USED,
002366:                                                                                                  #  VB = REQUEST EXECUTIVE, VB = REQUEST WAITLIST,
002367:                                                                                                  #  MONITOR SET UP.
002368:
002369:                                                                                                  #  A NVSUB CALL THAT PASSES DSPLOCK ENDS OLD MONITOR.
002370:
002371:                                                                                                  #  DSPLOCK IS THE INTERLOCK FOR USE OF KEYBOARD AND DISPLAY SYSTEM WHICH
002372:                                                                                                  #  LOCKS OUT INTERNAL USE WHENEVER THERE IS EXTERNAL KEYBOARD ACTION.
002373:
002374:                                                                                                  #  NVSUB IN FIXED-FIXED PLACES 2+CALLING LOC INTO NVQTEM, TC NVSUBEND INTO
002375:                                                                                                  #  ENTRET. (THIS WILL RESTORE OLD CALLING BANK BITS)
002376:
002377:    4356                                           SETLOC   MIDSIX     +1
002378:    4356           54107        NVSUB              TS       NVTEMP                                #  IN FIXED FIXED
002379:    4357           10652                           CCS      DSPLOCK
002380:    4360           00002                           TC       Q                                     #  DSP SYST BLOCKED. RET TO 1+ CALLING LOC
002381:    4361           30002                           CA       Q                                     #  DSP SYST AVAILABLE
002382:    4362           67646                           AD       ONE
002383:    4363           54700                           TS       NVQTEM                                #  2+ CALLING LOC INTO NVQTEM
002384:    4364           04400                           TC       KILMONON                              #  TURN ON KILL MONITOR BIT
002385:    4365           34371        NVSUBCOM           CAF      NVSBBBNK
002386:
002387:    4366           56006                           XCH      BBANK
002388:    4367           54701                           TS       NVBNKTEM
002389:    4370           02000                           TC       NVSUBB                                #  GO TO NVSUB1 THRU STANDARD LOC
002390:    4371     0637                                  EBANK=   DSPCOUNT
002391:    4371           12001        NVSBBBNK           BBCON    NVSUB1
002392:


002394:    4372           30002        NVSUBMON           CA       Q                                     #  MONDO COMES HERE
002395:    4373           67646                           AD       ONE
002396:    4374           54700                           TS       NVQTEM                                #  2 + CALLING LOC INTO NVQTEM
002397:    4375           04365                           TC       NVSUBCOM
002398:
002399:
002400:
002401:    4376           52701        NVSUBEND           DXCH     NVQTEM                                #  NVBNKTEM MUST = NVQTEM+1
002402:    4377           52006                           DXCH     Z                                     #  DTCB
002403:
002404: 05,3344                                           SETLOC   ENDRQWT    +1
002405:
002406: 05,3344           33363        NVSUB1             CAF      ENTSET                                #  IN BANK
002407: 05,3345           54122                           TS       ENTRET                                #  SET RETURN TO NVSUBEND
002408: 05,3346           33401                           CAF      LOW6
002409: 05,3347           70107                           MASK     NVTEMP
002410: 05,3350           54140                           TS       MPAC                                  #  TEMP STORAGE
002411: 05,3351           33402                           CAF      MID6
002412: 05,3352           70107                           MASK     NVTEMP
002413: 05,3353           04447                           TC       RIGHT5
002414: 05,3354           54020                           TS       CYR
002415: 05,3355           56020                           XCH      CYR
002416: 05,3356           54141                           TS       MPAC       +1                         #  TEMP STORAGE
002417: 05,3357           10140                           CCS      MPAC                                  #  TEST NOUN
002418: 05,3360           03364                           TC       +4                                    #  IF NOUN NOT +0, GO ON
002419: 05,3361           56141                           XCH      MPAC       +1
002420: 05,3362           02314                           TC       UPDATVB    -1                         #  IF NOUN = +0, DISPLAY VERB, THEN RETURN
002421: 05,3363           04376        ENTSET             TC       NVSUBEND
002422: 05,3364           10141                           CCS      MPAC       +1                         #  TEST VERB
002423: 05,3365           03371                           TC       +4                                    #  IF VERB NOT +0, GO ON
002424: 05,3366           56140                           XCH      MPAC
002425: 05,3367           02274                           TC       UPDATNN    -1                         #  IF VERB = +0, DISPLAY NOUN. THEN RETURN
002426: 05,3370           04376                           TC       NVSUBEND
002427: 05,3371           56141                           XCH      MPAC       +1
002428: 05,3372           02314                           TC       UPDATVB    -1                         #  IF BOTH NOUN AND VERB NOT +0, DISPLAY
002429: 05,3373           56140                           XCH      MPAC                                  #  BOTH AND GO TO ENTPAS0
002430: 05,3374           02274                           TC       UPDATNN    -1
002431: 05,3375           37653                           CAF      ZERO
002432: 05,3376           54654                           TS       LOADSTAT                              #  SET FOR WAITING FOR DATA CONDITION
002433: 05,3377           54655                           TS       CLPASS
002434: 05,3400           02031                           TC       ENTPAS0
002435:
002436:                                                                                                  #  IF INTERNAL MACH CADR TO BE SPECIFIED, MPAC+2 WILL BE PLACED INTO
002437:                                                                                                  #  NOUNCADR IN ENTPAS0 (INTMCTBS ).
002438:
002439:
002440:
002441: 05,3401           00077        LOW6               OCT      77
002442: 05,3402           07700        MID6               OCT      7700
002443:


002445:    4400                                           SETLOC   NVSUBEND   +2
002446:    4400           47630        KILMONON           CS       BIT15                                 #  FORCE BIT 15 OF MONSAVE1 TO 1.
002447:    4401           00004                           INHINT                                         #          THIS IS THE KILL MONITOR BIT.
002448:    4402           70661                           MASK     MONSAVE1
002449:    4403           67630                           AD       BIT15
002450:    4404           54661                           TS       MONSAVE1
002451:    4405           00003                           RELINT
002452:    4406           00002                           TC       Q
002453:
002454:
002455:
002456:                                                                                                  #  LOADSTAT  +0 INACTIVE(WAITING FOR DATA). SET BY NVSUB
002457:                                                                                                  #            +1  PROCEED NO DATA. SET BY SPECIAL VERB
002458:                                                                                                  #           -1 TERMINATE   SET BY SPECIAL VERB
002459:                                                                                                  #           -0 DATA IN   SET BY END OF LOAD ROUTINE
002460:
002461:
002462:
002463:                                                                                                  #  L  TC ENDIDLE  (FIXED FIXED)
002464:                                                                                                  #  ROUTINES THAT REQUEST LOADS THROUGH NVSUB SHOULD USE ENDIDLE WHILE
002465:                                                                                                  #  WAITING FOR THE DATA TO BE LOADED. ENDIDLE PUTS CURRENT JOB TO SLEEP.
002466:                                                                                                  #  ENDIDLE CANNOT BE CALLED FROM ERASABLE MEMORY, SINCE JOBSLEEP AND
002467:                                                                                                  #  JOBWAKE CAN HANDLE ONLY FIXED MEMORY.
002468:                                                                                                  #  RECALTST TESTS LOADSTAT AND WAKES JOB UP TO,
002469:                                                                                                  #  L+1      FOR TERMINATE
002470:                                                                                                  #  L+2      FOR PROCEED WITHOUT DATA
002471:                                                                                                  #  L+3      FOR DATA IN
002472:                                                                                                  #  IT DOES NOTHING     IF LOADSTAT INDICATES WAITING FOR DATA.
002473:
002474:    4407           37646        ENDIDLE            CAF      ONE
002475:    4410           54652                           TS       DSPLOCK
002476:    4411           22004                           LXCH     FBANK
002477:    4412           56002                           XCH      Q
002478:    4413           52120                           DXCH     BUF2
002479:    4414           04112                           TC       MAKECADR
002480:    4415           54676                           TS       CADRSTOR
002481:    4416           04164                           TC       JOBSLEEP
002482:
002483:
002484:
002485:    4417           04205        ENDINST            TC       ENDOFJOB
002486:
002487:                                                                                                  #  DATAWAIT IS AN ALTERNATIVE TO ENDIDLE, IT RETURNS IMMEDIATELY IF
002488:                                                                                                  #  LOADSTAT INDICATES THAT DATA IS ALREADY IN, OR PROCEED OR TERMINATE HAS
002489:                                                                                                  #  BEEN EXECUTED. RETURN FORMAT IS SAME AS FOR ENDIDLE.
002490:                                                                                                  #  DATAWAIT CANNOT BE CALLED FROM ERASABLE MEMORY, SINCE JOBSLEEP
002491:                                                                                                  #  AND JOBWAKE CAN HANDLE ONLY FIXED MEMORY.
002492:                                                                                                  #  DATAWAIT SHOULD BE USED ONLY AFTER REQUESTING A LOAD VERB.
002493:
002494:    4420           10654        DATAWAIT           CCS      LOADSTAT


002496:    4421           14426                           TCF      DATWAIT1                              #  PROCEED. RETURN TO L+2.
002497:    4422           14407                           TCF      ENDIDLE                               #  STILL WAITING. GO TO SLEEP.
002498:    4423           00002                           TC       Q                                     #  TERMINATE. RETURN TO L+1.
002499:    4424           50002                           INDEX    Q                                     #  DATA IN. RETURN TO L+3.
002500:    4425           00002                           TC       2
002501:    4426           50002        DATWAIT1           INDEX    Q                                     #  RETURN TO L+2.
002502:    4427           00001                           TC       1
002503:
002504:                                                                                                  #  DATAWAIT DOES NOT RELEASE DISPLAY SYST. IT IS RELEASED AT END OF NVSUB
002505:                                                                                                  #  INITIATED LOAD, IF ENDIDLE WAS NOT USED.
002506:
002507:
002508:
002509: 05,3403                                           SETLOC   MID6       +1
002510:                                                                                                  #  DSPMM PLACE MAJOR MODE CODE INTO MODREG
002511:
002512: 05,3403           34510        DSPMM1             CAF      MD1                                   #  GETS HERE THRU DSPMM (STANDARD LEAD IN)
002513: 05,3404           56637                           XCH      DSPCOUNT
002514: 05,3405           54124                           TS       DSPMMTEM                              #  SAVE DSPCOUNT
002515: 05,3406           30651                           CA       MODREG
002516: 05,3407           22002                           LXCH     Q
002517: 05,3410           03255                           TC       DSP2BIT
002518: 05,3411           56124                           XCH      DSPMMTEM                              #  RESTORE DSPCOUNT
002519: 05,3412           54637                           TS       DSPCOUNT
002520: 05,3413           00001        DSPMMEND           TC       L
002521:
002522:
002523:
002524:                                                                                                  #  RECALTST IS ENTERED DIRECTLY AFTER DATA IS
002525:                                                                                                  #  LOADED, TERMINATE VERB IS EXECUTED, OR THE PROCEED WITHOUT DATA VERB IS
002526:                                                                                                  #  EXECUTED. IT WAKES UP JOB THAT DID TC ENDIDLE.
002527:
002528:                                                                                                  #  IF NVSUB INITIATED LOAD, AND ENDIDLE WAS NOT USED, THEN IT RELEASES
002529:                                                                                                  #  DISPLAY SYST. (NEEDED FOR DATAWAIT)
002530:
002531: 04,3400                                           SETLOC   SWTAB      +4
002532:
002533: 04,3400           10676        RECALTST           CCS      CADRSTOR
002534: 04,3401           03406                           TC       RECAL1
002535: 04,3402           04205                           TC       ENDOFJOB                              #  NORMAL EXIT IF KEYBOARD INITIATED
002536: 04,3403           03406                           TC       RECAL1
002537: 04,3404           54676                           TS       CADRSTOR                              #  -0. CONCLUSION OF NVSUB INITIATED LOAD.
002538: 04,3405           03424                           TC       RECAL3                                #  +0 INTO CADRSTOR. RELEASE DISPLAY,
002539:                                                                                                  #     AND ENDOFJOB. NEEDED FOR DATAWAIT.
002540: 04,3406           37653        RECAL1             CAF      ZERO
002541: 04,3407           56676                           XCH      CADRSTOR
002542: 04,3410           00004                           INHINT
002543: 04,3411           04170                           TC       JOBWAKE
002544: 04,3412           10654                           CCS      LOADSTAT
002545: 04,3413           03430                           TC       DOPROC                                #  + PROCEED WITHOUT DATA


002547: 04,3414           04205                           TC       ENDOFJOB                              #  PATHALOGICAL CASE EXIT
002548: 04,3415           03426                           TC       DOTERM                                #  -   TERMINATE
002549: 04,3416           37645                           CAF      TWO
002550: 04,3417           50635        RECAL2             INDEX    LOCCTR
002551: 04,3420           60150                           AD       LOC                                   #  LOC IS + FOR BASIC JOBS
002552: 04,3421           50635                           INDEX    LOCCTR
002553: 04,3422           54150                           TS       LOC
002554: 04,3423           00003                           RELINT
002555: 04,3424           04633        RECAL3             TC       RELDSP1                               #  DOES NOT SEARCH LIST
002556: 04,3425           04205                           TC       ENDOFJOB
002557:
002558: 04,3426           37653        DOTERM             CAF      ZERO
002559: 04,3427           03417                           TC       RECAL2
002560:
002561: 04,3430           37646        DOPROC             CAF      ONE
002562: 04,3431           03417                           TC       RECAL2
002563:


002565:                                                                                                  #  THE FOLLOWING REFERS TO THE NOUN TABLES
002566:
002567:
002568:
002569:                                                                                                  #  COMPONENT CODE NUMBER           INTERPRETATION
002570:
002571:                                                                                                  #  00000                           1 COMPONENT
002572:                                                                                                  #  00001                           2 COMPONENT (EACH S P)
002573:                                                                                                  #  00010                           3 COMPONENT (EACH SP)
002574:
002575:
002576:
002577:                                                                                                  #  SF ROUTINE CODE NUMBER          INTERPRETATION
002578:
002579:                                                                                                  #  00000    OCTAL ONLY
002580:                                                                                                  #  00001    STRAIGHT FRACTIONAL
002581:                                                                                                  #  00010    DEGREES (XXX.XX)
002582:                                                                                                  #  00011    ARITHMETIC SF
002583:                                                                                                  #  00100    ARITH DP1   OUT(MULT BY 2/14 AT END)      IN(STRAIGHT)
002584:                                                                                                  #  00101    ARITH DP2   OUT(STRAIGHT)                 IN(SL 7 AT END)
002585:                                                                                                  #  00110    OPTICS DEGREES(XX.XXX MAX 89.999) OR (XXX.XX MAX 179.99)
002586:                                                                                                  #  00111    ARITH DP3   OUT ( SL 7 AT END)       IN ( STRAIGHT)
002587:                                                                                                  #  END OF SF ROUTINE CODE NUMBERS
002588:
002589:
002590:
002591:                                                                                                  #  SF CONSTANT CODE NUMBER         INTERPRETATION
002592:
002593:                                                                                                  #  00000                           WHOLE
002594:                                                                                                  #  00000                           TIME SEC(XXX.XX)SAME AS WHOLE(ARITH DP1)
002595:                                                                                                  #  00001                           TIME HOURS(XXX.XX) USE ARITH DP2
002596:                                                                                                  #  00010                           DEGREES
002597:                                                                                                  #  00010                           OPTICS DEGREES
002598:                                                                                                  #  00011                           GYRO DEGREES(XX.XXX) USE ARITH DP1
002599:                                                                                                  #  00100                           GYRO BIAS DRIFT .BBXXXXX MILLIRAD/SEC
002600:                                                                                                  #  00101                           GYRO AXIS ACCEL. DRIFT
002601:                                                                                                  #                                  .BBXXXXX (MILLIRAD/SEC) / (CM/SEC SEC)
002602:                                                                                                  #  00110                           PIPA BIAS X.XXXX CM/SEC SEC
002603:                                                                                                  #  00111                           PIPA SCALE FACTOR ERROR
002604:                                                                                                  #                                      XXXXX. PARTS/MILLION
002605:                                                                                                  #  01000                           POSITION(XXXX.X KILOMETERS) USE ARITHDP3
002606:                                                                                                  #  01001                           VELOCITY(XXXX.X METERS/SEC) USE ARITHDP2
002607:                                                                                                  #  01010                           TIME HOURS(XXX.XX)WEEKS INSIDE(ARITHDP2)
002608:                                                                                                  #  01011                           ELEVATION DEGREES(89.999MAX) USE ARITH
002609:                                                                                                  #  END OF SF CONSTANT CODE NUMBERS
002610:
002611:
002612:
002613:                                                                                                  #  FOR GREATER THAN SINGLE PRECISION SCALES, PUT ADDRESS OF MAJOR PART INTO
002614:                                                                                                  #  NOUN TABLES.


002616:                                                                                                  #  OCTAL LOADS PLACE +0 INTO MAJOR PART, DATA INTO MINOR PART.
002617:                                                                                                  #  OCTAL DISPLAYS SHOW MINOR PART ONLY.
002618:                                                                                                  #  TO GET AT BOTH MAJOR AND MINOR PARTS (IN OCTAL), USE NOUN 01.
002619:


002621:                                                                                                  #  THE FOLLOWING ROUTINES ARE FOR READING THE NOUN TABLES AND THE SF TABLES
002622:                                                                                                  #  (WHICH ARE IN A SEPARATE BANK FROM THE REST OF PINBALL). THESE READING
002623:                                                                                                  #  ROUTINES ARE IN THE SAME BANK AS THE TABLES. THEY ARE CALLED BY DXCH Z.
002624:
002625:
002626:
002627:                                                                                                  #  LODNNTAB LOADS NNADTEM WITH THE NNADTAB ENTRY, NNTYPTEM WITH THE
002628:                                                                                                  #  NNTYPTAB ENTRY. IF THE NOUN IS MIXED, IDAD1TEM IS LOADED WITH THE FIRST
002629:                                                                                                  #  IDADDTAB ENTRY, IDAD2TEM THE SECOND IDADDTAB ENTRY, IDAD3TEM THE THIRD
002630:                                                                                                  #  IDADDTAB ENTRY, RUTMXTEM WITH THE RUTMXTAB ENTRY. MIXBR IS SET FOR
002631:                                                                                                  #  MIXED OR NORMAL NOUN.
002632:
002633: 06,2000                                           SETLOC   24000
002634:
002635: 06,2000           52136        LODNNTAB           DXCH     IDAD2TEM                              #  SAVE RETURN INFO IN IDAD2TEM, IDAD3TEM.
002636: 06,2001           50642                           INDEX    NOUNREG
002637: 06,2002           32052                           CAF      NNADTAB
002638: 06,2003           54132                           TS       NNADTEM
002639: 06,2004           50642                           INDEX    NOUNREG
002640: 06,2005           32152                           CAF      NNTYPTAB
002641: 06,2006           54133                           TS       NNTYPTEM
002642: 06,2007           40642                           CS       NOUNREG
002643: 06,2010           62036                           AD       MIXCON
002644: 06,2011           00006                           EXTEND
002645: 06,2012           62016                           BZMF     LODMIXNN                              #  NOUN NUMBER G/E FIRST MIXED NOUN
002646: 06,2013           37646                           CAF      ONE                                   #  NOUN NUMBER L/ FIRST MIXED NOUN
002647: 06,2014           54124                           TS       MIXBR                                 #  NORMAL.  +1 INTO MIXBR.
002648: 06,2015           02034                           TC       LODNLV
002649: 06,2016           37645        LODMIXNN           CAF      TWO                                   #  MIXED.  +2 INTO MIXBR.
002650: 06,2017           54124                           TS       MIXBR
002651: 06,2020           50642                           INDEX    NOUNREG
002652: 06,2021           32345                           CAF      RUTMXTAB   -55
002653: 06,2022           54137                           TS       RUTMXTEM
002654: 06,2023           36425                           CAF      LOW10
002655: 06,2024           70132                           MASK     NNADTEM
002656: 06,2025           54002                           TS       Q                                     #  TEMP
002657: 06,2026           50000                           INDEX    A
002658: 06,2027           32332                           CAF      IDADDTAB
002659: 06,2030           54134                           TS       IDAD1TEM                              #  LOAD IDAD1TEM WITH FIRST IDADDTAB ENTRY
002660: 06,2031           00006                           EXTEND
002661: 06,2032           50002                           INDEX    Q                                     #  LOAD IDAD2TEM WITH 2ND IDADDTAB ENTRY
002662: 06,2033           32334                           DCA      IDADDTAB   +1                         #  LOAD IDAD3TEM WITH 3RD IDADDTAB ENTRY.
002663: 06,2034           52136        LODNLV             DXCH     IDAD2TEM                              #  PUT RETURN INFO INTO A, L.
002664: 06,2035           52006                           DXCH     Z
002665:
002666: 06,2036           00055        MIXCON             OCT      55                                    #  FIRST MIXED NOUN = 55.
002667:
002668:
002669:
002670:                                                                                                  #  GTSFOUT LOADS SFTEMP1, SFTEMP2 WITH THE DP SFOUTAB ENTRIES.
002671:


002673: 06,2037           52110        GTSFOUT            DXCH     SFTEMP1                               #  2X(SFCONUM) ARRIVES IN SFTEMP1.


002675: 06,2040           00006                           EXTEND
002676: 06,2041           50000                           INDEX    A
002677: 06,2042           32303                           DCA      SFOUTAB
002678: 06,2043           52110        SFCOM              DXCH     SFTEMP1
002679: 06,2044           52006                           DXCH     Z
002680:
002681:
002682:
002683:                                                                                                  #  GTSFIN LOADS SFTEMP1, SFTEMP2 WITH THE DP SFINTAB ENTRIES.
002684:
002685: 06,2045           52110        GTSFIN             DXCH     SFTEMP1                               #  2X(SFCONUM) ARRIVES IN SFTEMP1.
002686: 06,2046           00006                           EXTEND
002687: 06,2047           50000                           INDEX    A
002688: 06,2050           32253                           DCA      SFINTAB
002689: 06,2051           12043                           TCF      SFCOM
002690:
002691:
002692:                                                                                                  #  NN  NORMAL NOUNS
002693: 06,2052           00000        NNADTAB            OCT      00000                                 #  00 NOT IN USE
002694: 06,2053           40000                           OCT      40000                                 #  01 SPECIFY MACHINE ADDRESS (FRACTIONAL)
002695: 06,2054           40000                           OCT      40000                                 #  02 SPECIFY MACHINE ADDRESS (WHOLE)
002696: 06,2055           40000                           OCT      40000                                 #  03 SPECIFY MACHINE ADDRESS (DEGREES)
002697: 06,2056           40000                           OCT      40000                                 #  04 SPECIFY MACHINE ADDRESS (HOURS)
002698: 06,2057           40000                           OCT      40000                                 #  05 SPECIFY MACHINE ADDRESS (SECONDS)
002699: 06,2060           40000                           OCT      40000                                 #  06 SPECIFY MACHINE ADDRESS (GYRO DEG)
002700: 06,2061           40000                           OCT      40000                                 #  07 SPECIFY MACHINE ADDRESS (Y OPT DEG.)
002701: 06,2062           77776                           OCT      77776                                 #  10 CHANNEL TO BE SPECIFIED
002702: 06,2063           00000                           OCT      00000                                 #  11 SPARE
002703: 06,2064           00000                           OCT      00000                                 #  12 SPARE
002704: 06,2065           00000                           OCT      00000                                 #  13 SPARE
002705: 06,2066           00000                           OCT      00000                                 #  14 SPARE
002706: 06,2067           77777                           OCT      77777                                 #  15 INCREMENT MACHINE ADDRESS
002707: 06,2070           00024                           ECADR    TIME2                                 #  16 TIME SECONDS
002708: 06,2071           00024                           ECADR    TIME2                                 #  17 TIME HOURS
002709: 06,2072           00032                           ECADR    CDUX                                  #  20 ICDU
002710: 06,2073           00037                           ECADR    PIPAX                                 #  21 PIPAS
002711: 06,2074           00716                           ECADR    THETAD                                #  22 NEW ANGLES I
002712: 06,2075           00711                           ECADR    DSPTEM2                               #  23 DELTA ANGLES I
002713: 06,2076           00706                           ECADR    DSPTEM1                               #  24 DELTA TIME (SEC)
002714: 06,2077           00706                           ECADR    DSPTEM1                               #  25 CHECKLIST
002715: 06,2100           00706                           ECADR    DSPTEM1                               #  26 PRIO/DELAY, ADRES, BBCON
002716: 06,2101           01047                           ECADR    SMODE                                 #  27 SELF TEST ON/OFF SWITCH
002717: 06,2102           00706                           ECADR    DSPTEM1                               #  30 STAR NUMBERS
002718: 06,2103           00721                           ECADR    FAILREG                               #  31 FAILREG
002719: 06,2104           00722                           ECADR    TDEC                                  #  32 DECISION TIME (MIDCOURSE)
002720: 06,2105           00724                           ECADR    TET                                   #  33 EPHEMERIS TIME (MIDCOURSE)
002721: 06,2106           00726                           ECADR    MEASQ                                 #  34 MEASURED QUANTITY (MIDCOURSE)
002722: 06,2107           00730                           ECADR    ROLL                                  #  35 ROLL, PITCH, YAW


002724: 06,2110           00733                           ECADR    LANDMARK                              #  36 LANDMARK DATA 1
002725: 06,2111           00736                           ECADR    LANDMARK   +3                         #  37 LANDMARK DATA 2
002726: 06,2112           00000                           OCT      00000                                 #  40 SPARE
002727: 06,2113           00000                           OCT      00000                                 #  41 SPARE
002728: 06,2114           00000                           OCT      00000                                 #  42 SPARE
002729: 06,2115           00000                           OCT      00000                                 #  43 SPARE
002730: 06,2116           00000                           OCT      00000                                 #  44 SPARE
002731: 06,2117           00000                           OCT      00000                                 #  45 SPARE
002732: 06,2120           00000                           OCT      00000                                 #  46 SPARE
002733: 06,2121           00000                           OCT      00000                                 #  47 SPARE
002734: 06,2122           00000                           OCT      00000                                 #  50 SPARE
002735: 06,2123           00000                           OCT      00000                                 #  51 SPARE
002736: 06,2124           00741                           ECADR    GBIASX                                #  52 GYRO BIAS DRIFT
002737: 06,2125           00744                           ECADR    ADIAX                                 #  53 GYRO INPUT AXIS ACCELERATION DRIFT
002738: 06,2126           00747                           ECADR    ADSRAX                                #  54 GYRO SPIN AXIS ACCELERATION DRIFT
002739:
002740:                                                                                                  #  NN  MIXED NOUNS
002741: 06,2127           02000                           OCT      02000                                 #  55 OCDU
002742: 06,2130           04002                           OCT      04002                                 #  56 UNCALLED MARK DATA (OCDU & TIME(SEC))
002743: 06,2131           02005                           OCT      02005                                 #  57 NEW ANGLES OCDU
002744: 06,2132           04007                           OCT      04007                                 #  60 IMU MODE STATUS
002745: 06,2133           02012                           OCT      02012                                 #  61 TARGET AZIMUTH AND ELEVATION
002746: 06,2134           02014                           OCT      02014                                 #  62 ICDUZ AND TIME(SEC)
002747: 06,2135           02016                           OCT      02016                                 #  63 OCDUX AND TIME(SEC)
002748: 06,2136           02020                           OCT      02020                                 #  64 OCDUY AND TIME(SEC)
002749: 06,2137           02022                           OCT      02022                                 #  65 SAMPLED TIME (HOURS AND SECONDS)
002750:                                                                                                  #       (FETCHED IN INTERRUPT)
002751: 06,2140           04024                           OCT      04024                                 #  66 SYSTEM TEST RESULTS
002752: 06,2141           04027                           OCT      04027                                 #  67 DELTA GYRO ANGLES
002753: 06,2142           04032                           OCT      04032                                 #  70 PIPA BIAS
002754: 06,2143           04035                           OCT      04035                                 #  71 PIPA SCALE FACTOR ERROR
002755: 06,2144           04040                           OCT      04040                                 #  72 DELTA POSITION
002756: 06,2145           04043                           OCT      04043                                 #  73 DELTA VELOCITY
002757: 06,2146           04046                           OCT      04046                                 #  74 MEASUREMENT DATA (MIDCOURSE)
002758: 06,2147           04051                           OCT      04051                                 #  75 MEASUREMENT DEVIATIONS (MIDCOURSE)
002759: 06,2150           04054                           OCT      04054                                 #  76 POSITION VECTOR
002760: 06,2151           04057                           OCT      04057                                 #  77 VELOCITY VECTOR
002761:
002762:
002763:
002764:                                                                                                  #  NN        NORMAL NOUNS
002765: 06,2152           00000        NNTYPTAB           OCT      00000                                 #  00 NOT IN USE
002766: 06,2153           00040                           OCT      00040                                 #  01 1COMP  FRACTIONAL
002767: 06,2154           00140                           OCT      00140                                 #  02 1COMP  WHOLE
002768: 06,2155           00102                           OCT      00102                                 #  03 1COMP  DEGREES
002769: 06,2156           00241                           OCT      00241                                 #  04 1COMP  HOURS
002770: 06,2157           00200                           OCT      00200                                 #  05 1COMP  SECONDS
002771: 06,2160           00203                           OCT      00203                                 #  06 1COMP  GYRO DEGREES
002772: 06,2161           00302                           OCT      00302                                 #  07 1COMP  Y OPT DEGREES
002773: 06,2162           00000                           OCT      00000                                 #  10 1COMP  OCTAL ONLY


002775: 06,2163           00000                           OCT      00000                                 #  11        SPARE
002776: 06,2164           00000                           OCT      00000                                 #  12        SPARE
002777: 06,2165           00000                           OCT      00000                                 #  13        SPARE
002778: 06,2166           00000                           OCT      00000                                 #  14        SPARE
002779: 06,2167           00000                           OCT      00000                                 #  15 1COMP  OCTAL ONLY
002780: 06,2170           00200                           OCT      00200                                 #  16 1COMP  SECONDS
002781: 06,2171           00241                           OCT      00241                                 #  17 1COMP  HOURS
002782: 06,2172           04102                           OCT      04102                                 #  20 3COMP  DEGREES
002783: 06,2173           04140                           OCT      04140                                 #  21 3COMP  WHOLE
002784: 06,2174           04102                           OCT      04102                                 #  22 3COMP  DEGREES
002785: 06,2175           04102                           OCT      04102                                 #  23 3COMP  DEGREES
002786: 06,2176           00200                           OCT      00200                                 #  24 1COMP  SECONDS
002787: 06,2177           00140                           OCT      00140                                 #  25 1COMP  WHOLE
002788: 06,2200           04000                           OCT      04000                                 #  26 3COMP  OCTAL ONLY
002789: 06,2201           00140                           OCT      00140                                 #  27 1COMP  WHOLE
002790: 06,2202           04140                           OCT      04140                                 #  30 3COMP  WHOLE
002791: 06,2203           02000                           OCT      02000                                 #  31 3COMP  OCTAL ONLY
002792: 06,2204           00252                           OCT      00252                                 #  32 1COMP  TIME WEEKS
002793: 06,2205           00252                           OCT      00252                                 #  33 1COMP  TIME WEEKS
002794: 06,2206           00350                           OCT      00350                                 #  34 1COMP  POSITION
002795: 06,2207           04102                           OCT      04102                                 #  35 3COMP  DEGREES
002796: 06,2210           04000                           OCT      04000                                 #  36 3COMP  OCTAL ONLY
002797: 06,2211           04000                           OCT      04000                                 #  37 3COMP  OCTAL ONLY
002798: 06,2212           00000                           OCT      00000                                 #  40        SPARE
002799: 06,2213           00000                           OCT      00000                                 #  41        SPARE
002800: 06,2214           00000                           OCT      00000                                 #  42        SPARE
002801: 06,2215           00000                           OCT      00000                                 #  43        SPARE
002802: 06,2216           00000                           OCT      00000                                 #  44        SPARE
002803: 06,2217           00000                           OCT      00000                                 #  45        SPARE
002804: 06,2220           00000                           OCT      00000                                 #  46        SPARE
002805: 06,2221           00000                           OCT      00000                                 #  47        SPARE
002806: 06,2222           00000                           OCT      00000                                 #  50        SPARE
002807: 06,2223           00000                           OCT      00000                                 #  51        SPARE
002808: 06,2224           04144                           OCT      04144                                 #  52 3COMP  GYRO BIAS DRIFT
002809: 06,2225           04145                           OCT      04145                                 #  53 3COMP  GYRO AXIS ACCEL. DRIFT
002810: 06,2226           04145                           OCT      04145                                 #  54 3COMP  GYRO AXIS ACCEL. DRIFT
002811:
002812:                                                                                                  #  NN        MIXED NOUNS
002813: 06,2227           00102                           OCT      00102                                 #  55 2COMP  DEGREES, Y OPT DEGREES
002814: 06,2230           00102                           OCT      00102                                 #  56 3COMP  DEGREES, Y OPT DEGREES, SECS
002815: 06,2231           00102                           OCT      00102                                 #  57 2COMP  DEGREES, Y OPT DEGREES
002816: 06,2232           00000                           OCT      00000                                 #  60 3COMP  OCTAL ONLY
002817: 06,2233           00542                           OCT      00542                                 #  61 2COMP  DEGREES, ELEVATION DEGREES
002818: 06,2234           00002                           OCT      00002                                 #  62 2COMP  DEGREES, SECS
002819: 06,2235           00002                           OCT      00002                                 #  63 2COMP  DEGREES, SECS
002820: 06,2236           00002                           OCT      00002                                 #  64 2COMP  Y OPT DEGREES, SECS
002821: 06,2237           00001                           OCT      00001                                 #  65 2COMP  HOURS, SECONDS
002822: 06,2240           00000                           OCT      00000                                 #  66 3COMP  WHOLE, FRACTIONAL, WHOLE
002823: 06,2241           06143                           OCT      06143                                 #  67 3COMP  GYRO DEGREES FOR EACH
002824: 06,2242           14306                           OCT      14306                                 #  70 3COMP  PIPA BIAS FOR EACH


002826: 06,2243           16347                           OCT      16347                                 #  71 3COMP  PIPA SCALE FACTOR ERR.FOR EACH
002827: 06,2244           20410                           OCT      20410                                 #  72 3COMP  POSITION FOR EACH
002828: 06,2245           22451                           OCT      22451                                 #  73 3COMP  VELOCITY FOR EACH
002829: 06,2246           00412                           OCT      00412                                 #  74 3COMP  TIME WEEKS, POSITION, WHOLE
002830: 06,2247           20450                           OCT      20450                                 #  75 3COMP  POSITION, VELOCITY, POSITION
002831: 06,2250           20410                           OCT      20410                                 #  76 3COMP  POSITION FOR EACH
002832: 06,2251           22451                           OCT      22451                                 #  77 3COMP  VELOCITY FOR EACH
002833:
002834:
002835:
002836: 06,2252           00006        SFINTAB            OCT      00006                                 #  WHOLE,TIME(SEC)
002837: 06,2253           03240                           OCT      03240
002838: 06,2254           00253                           OCT      00253                                 #  TIME HOURS ( = 1.3..... )
002839: 06,2255           25124                           OCT      25124                                 #    (POINT BETWEEN BITS 7-8 )
002840: 06,2256           00000                           OCT      0                                     #  DEGREES (SFCON IN DEGINSF)
002841: 06,2257           00000                           OCT      0
002842: 06,2260           00021                           OCT      00021                                 #  GYRO DEGREES
002843: 06,2261           30707                           OCT      30707
002844: 06,2262           00001                           OCT      00001                                 #  GYRO BIAS DRIFT
002845: 06,2263           02133                           OCT      02133
002846: 06,2264           00011                           OCT      00011                                 #  GYRO AXIS ACCEL. DRIFT
002847: 06,2265           30322                           OCT      30322
002848: 06,2266           00004                           OCT      00004                                 #  PIPA BIAS
002849: 06,2267           14021                           OCT      14021
002850: 06,2270           00314                           OCT      00314                                 #  PIPA SCALE ERROR.
002851: 06,2271           31463                           OCT      31463
002852: 06,2272           23420                           OCT      23420                                 #  POSITION
002853: 06,2273           00000                           OCT      00000
002854: 06,2274           00201                           OCT      00201                                 #  VELOCITY
002855: 06,2275           30327                           OCT      30327                                 #  ( POINT BETWEEN BITS 7-8 )
002856: 06,2276           01371                           OCT      01371                                 #  TIME WEEKS
002857: 06,2277           34750                           OCT      34750                                 #  ( POINT BETWEEN BITS 7-8 )
002858: 06,2300           00001                           OCT      00001                                 #  ELEVATION DEGREES
002859: 06,2301           03434                           OCT      03434
002860:                                                                                                  #  END OF SFINTAB
002861:
002862:
002863:
002864: 06,2302           05174        SFOUTAB            OCT      05174                                 #  WHOLE, TIME(SEC)
002865: 06,2303           13261                           OCT      13261
002866: 06,2304           27670                           OCT      27670                                 #  TIME HOURS
002867: 06,2305           31357                           OCT      31357
002868: 06,2306           00000                           OCT      0                                     #  DEGREES
002869: 06,2307           00000                           OCT      0
002870: 06,2310           01631                           OCT      01631                                 #  GYRO DEGREES
002871: 06,2311           23146                           OCT      23146
002872: 06,2312           35753                           OCT      35753                                 #  GYRO BIAS DRIFT
002873: 06,2313           32323                           OCT      32323
002874: 06,2314           03216                           OCT      03216                                 #  GYRO AXIS ACCEL. DRIFT
002875: 06,2315           06400                           OCT      06400


002877: 06,2316           07237                           OCT      07237                                 #  PIPA BIAS
002878: 06,2317           37776                           OCT      37776
002879: 06,2320           00120                           OCT      00120                                 #  PIPA SCALE ERROR
002880: 06,2321           00000                           OCT      00000
002881: 06,2322           00321                           OCT      00321                                 #  POSITION
002882: 06,2323           26706                           OCT      26706                                 #  ( POINT BETWEEN BITS 7-8 )
002883: 06,2324           37441                           OCT      37441                                 #  VELOCITY
002884: 06,2325           14247                           OCT      14247
002885: 06,2326           05300                           OCT      05300                                 #  TIME WEEKS
002886: 06,2327           20305                           OCT      20305
002887: 06,2330           34631                           OCT      34631                                 #  ELEVATION DEGREES
002888: 06,2331           23146                           OCT      23146
002889:                                                                                                  #  END OF SFOUTAB
002890:
002891:
002892:
002893:                                                                                                  #  MIXNOUN  SF ROUT
002894: 06,2332           00036        IDADDTAB           ECADR    OPTX                                  #  01       DEGREES
002895: 06,2333           00035                           ECADR    OPTY                                  #  01       Y OPT DEGREES
002896: 06,2334           00706                           ECADR    DSPTEM1                               #  02       DEGREES
002897: 06,2335           00707                           ECADR    DSPTEM1    +1                         #  02       Y OPT DEGREES
002898: 06,2336           00710                           ECADR    DSPTEM1    +2                         #  02       SEC
002899: 06,2337           00752                           ECADR    DESOPTX                               #  03       DEGREES
002900: 06,2340           00753                           ECADR    DESOPTX    +1                         #  03       Y OPT DEGREES
002901: 06,2341           01017                           ECADR    WASKSET                               #  04       OCTAL ONLY****CHANGE TO IN3****
002902: 06,2342           01017                           ECADR    WASKSET                               #  04       OCTAL ONLY
002903: 06,2343           01021                           ECADR    OLDERR                                #  04       OCTAL ONLY
002904: 06,2344           00706                           ECADR    DSPTEM1                               #  05       DEGREES
002905: 06,2345           00707                           ECADR    DSPTEM1    +1                         #  05       ELEVATION DEGREES
002906: 06,2346           00034                           ECADR    CDUZ                                  #  06       DEGREES
002907: 06,2347           00024                           ECADR    TIME2                                 #  06       SEC
002908: 06,2350           00036                           ECADR    OPTX                                  #  07       DEGREES
002909: 06,2351           00024                           ECADR    TIME2                                 #  07       SEC
002910: 06,2352           00035                           ECADR    OPTY                                  #  10       Y OPT DEGREES
002911: 06,2353           00024                           ECADR    TIME2                                 #  10       SEC
002912: 06,2354           00754                           ECADR    SAMPTIME                              #  11       HOURS
002913: 06,2355           00754                           ECADR    SAMPTIME                              #  11       SECONDS
002914: 06,2356           00711                           ECADR    DSPTEM2                               #  12       WHOLE
002915: 06,2357           00712                           ECADR    DSPTEM2    +1                         #  12       FRACTIONAL
002916: 06,2360           00713                           ECADR    DSPTEM2    +2                         #  12       WHOLE
002917: 06,2361           00756                           ECADR    DELVX                                 #  13       GYRO DEGREES
002918: 06,2362           00760                           ECADR    DELVX      +2                         #  13       GYRO DEGREES
002919: 06,2363           00762                           ECADR    DELVX      +4                         #  13       GYRO DEGREES
002920: 06,2364           00764                           ECADR    PBIASX                                #  14       PIPA BIAS
002921: 06,2365           00766                           ECADR    PBIASY                                #  14       PIPA BIAS
002922: 06,2366           00770                           ECADR    PBIASZ                                #  14       PIPA BIAS
002923: 06,2367           00765                           ECADR    PIPASCFX                              #  15       PIPA SCALE FACTOR ERROR
002924: 06,2370           00767                           ECADR    PIPASCFY                              #  15       PIPA SCALE FACTOR ERROR
002925: 06,2371           00771                           ECADR    PIPASCFZ                              #  15       PIPA SCALE FACTOR ERROR
002926: 06,2372           01000                           ECADR    DELR                                  #  16       POSITION


002928: 06,2373           01002                           ECADR    DELR       +2                         #  16       POSITION
002929: 06,2374           01004                           ECADR    DELR       +4                         #  16       POSITION
002930: 06,2375           01006                           ECADR    DELVEL                                #  17       VELOCITY
002931: 06,2376           01010                           ECADR    DELVEL     +2                         #  17       VELOCITY
002932: 06,2377           01012                           ECADR    DELVEL     +4                         #  17       VELOCITY
002933: 06,2400           00722                           ECADR    TDEC                                  #  20       TIME WEEKS
002934: 06,2401           00726                           ECADR    MEASQ                                 #  20       POSITION
002935: 06,2402           01014                           ECADR    MEASMODE                              #  20       WHOLE
002936: 06,2403           00706                           ECADR    DSPTEM1                               #  21       POSITION
002937: 06,2404           00710                           ECADR    DSPTEM1    +2                         #  21       VELOCITY
002938: 06,2405           01015                           ECADR    DELTAQ                                #  21       POSITION
002939: 06,2406           00706                           ECADR    DSPTEM1                               #  22       POSITION
002940: 06,2407           00710                           ECADR    DSPTEM1    +2                         #  22       POSITION
002941: 06,2410           00712                           ECADR    DSPTEM1    +4                         #  22       POSITION
002942: 06,2411           00706                           ECADR    DSPTEM1                               #  23       VELOCITY
002943: 06,2412           00710                           ECADR    DSPTEM1    +2                         #  23       VELOCITY
002944: 06,2413           00712                           ECADR    DSPTEM1    +4                         #  23       VELOCITY
002945: 06,2414           00000                           OCT      00000                                 #           SPARE
002946: 06,2415           00000                           OCT      00000                                 #           SPARE
002947: 06,2416           00000                           OCT      00000                                 #           SPARE
002948: 06,2417           00000                           OCT      00000                                 #           SPARE
002949: 06,2420           00000                           OCT      00000                                 #           SPARE
002950: 06,2421           00000                           OCT      00000                                 #           SPARE
002951:                                                                                                  #  END OF IDADDTAB
002952:
002953:
002954:
002955:                                                                                                  #  MIXNOUN  SF ROUT
002956: 06,2422           00302        RUTMXTAB           OCT      00302                                 #  01  DEGREES, Y OPT DEGREES
002957: 06,2423           10302                           OCT      10302                                 #  02  DEGREES, Y OPT DEGREES, SECONDS
002958: 06,2424           00302                           OCT      00302                                 #  03  DEGREES, Y OPT DEGREES
002959: 06,2425           00000                           OCT      00000                                 #  04  OCTAL ONLY
002960: 06,2426           00142                           OCT      00142                                 #  05  DEGREES, ELEVATION DEGREES
002961: 06,2427           00202                           OCT      00202                                 #  06  DEGREES, SECONDS
002962: 06,2430           00202                           OCT      00202                                 #  07  DEGREES, SECONDS
002963: 06,2431           00206                           OCT      00206                                 #  10  Y OPT DEGREES, SECONDS
002964: 06,2432           00205                           OCT      00205                                 #  11  HOURS, SECONDS
002965: 06,2433           06043                           OCT      06043                                 #  12  WHOLE, FRACTIONAL, WHOLE
002966: 06,2434           10204                           OCT      10204                                 #  13  GYRO DEGREES (FOR EACH)
002967: 06,2435           06143                           OCT      06143                                 #  14  PIPA BIAS (FOR EACH)
002968: 06,2436           06143                           OCT      06143                                 #  15  PIPA SCALE FACTOR ERROR (FOR EACH)
002969: 06,2437           16347                           OCT      16347                                 #  16  POSITION (FOR EACH)
002970: 06,2440           12245                           OCT      12245                                 #  17  VELOCITY (FOR EACH)
002971: 06,2441           06345                           OCT      06345                                 #  20  TIME WEEKS, POSITION, WHOLE
002972: 06,2442           16247                           OCT      16247                                 #  21  POSITION, VELOCITY, POSITION
002973: 06,2443           16347                           OCT      16347                                 #  22  POSITION (FOR EACH)
002974: 06,2444           12245                           OCT      12245                                 #  23  VELOCITY (FOR EACH)
002975:                                                                                                  #  END OF RUTMXTAB
002976:


002978:                                                                                                  #  MISCELLANEOUS SERVICE ROUTINES IN FIXED/FIXED
002979:
002980:
002981:
002982:    4430                                           SETLOC   DATWAIT1   +2
002983:
002984:                                                                                                  #  SETNCADR      E CADR ARRIVES IN A. IT IS STORED IN NOUNCADR. EBANK BITS
002985:                                                                                                  #                ARE SET. E ADRES IS DERIVED AND PUT INTO NOUNADD.
002986:
002987:    4430           54657        SETNCADR           TS       NOUNCADR                              #  STORE ECADR
002988:    4431           54003                           TS       EBANK                                 #  SET EBANK BITS
002989:    4432           74504                           MASK     LOW8
002990:    4433           64505                           AD       OCT1400
002991:    4434           54131                           TS       NOUNADD                               #  PUT E ADRES INTO NOUNADD
002992:    4435           00002                           TC       Q
002993:
002994:
002995:
002996:                                                                                                  #  SETNADD       GETS E CADR FROM NOUNCADR, SETS EBANK BITS, DERIVES
002997:                                                                                                  #                E ADRES AND PUTS IT INTO NOUNADD.
002998:
002999:    4436           30657        SETNADD            CA       NOUNCADR
003000:    4437           14431                           TCF      SETNCADR   +1
003001:
003002:
003003:
003004:                                                                                                  #  SETEBANK      E CADR ARRIVES IN A. EBANK BITS ARE SET. E ADRES IS
003005:                                                                                                  #                DERIVED AND LEFT IN A.
003006:
003007:    4440           54003        SETEBANK           TS       EBANK                                 #  SET EBANK BITS
003008:    4441           74504                           MASK     LOW8
003009:    4442           64505                           AD       OCT1400                               #  E ADRES LEFT IN A
003010:    4443           00002                           TC       Q
003011:
003012:
003013:
003014:    4444           00016        R1D1               OCT      16
003015:    4445           00011        R2D1               OCT      11
003016:    4446           00004        R3D1               OCT      4
003017:
003018:    4447           54020        RIGHT5             TS       CYR
003019:    4450           40020                           CS       CYR
003020:    4451           40020                           CS       CYR
003021:    4452           40020                           CS       CYR
003022:    4453           40020                           CS       CYR
003023:    4454           56020                           XCH      CYR
003024:    4455           00002                           TC       Q
003025:
003026:    4456           54022        LEFT5              TS       CYL
003027:    4457           40022                           CS       CYL


003029:    4460           40022                           CS       CYL
003030:    4461           40022                           CS       CYL
003031:    4462           40022                           CS       CYL
003032:    4463           56022                           XCH      CYL
003033:    4464           00002                           TC       Q
003034:
003035:    4465           60000        SLEFT5             DOUBLE
003036:    4466           60000                           DOUBLE
003037:    4467           60000                           DOUBLE
003038:    4470           60000                           DOUBLE
003039:    4471           60000                           DOUBLE
003040:    4472           00002                           TC       Q
003041:
003042:
003043:
003044:    4473           00037        LOW5               OCT      37
003045:    4474           01740        MID5               OCT      1740
003046:    4475           76000        HI5                OCT      76000                                 #  MUST STAY HERE
003047:
003048:    4476           04131        TCNOVAC            TC       NOVAC
003049:    4477           04251        TCWAIT             TC       WAITLIST
003050:    4500           04321        TCTSKOVR           TC       TASKOVER
003051:    4501           04142        TCFINDVC           TC       FINDVAC
003052:
003053:
003054:
003055:    4502           30000        CHRPRIO            OCT      30000                                 #  EXEC PRIORITY OF CHARIN
003056:
003057:
003058:
003059:    4503           03777        LOW11              OCT      3777
003060:    4504           00377        LOW8               OCT      377
003061:    4505           01400        OCT1400            OCT      1400
003062:
003063:
003064:
003065:    4506           00023        VD1                OCT      23
003066:    4507           00021        ND1                OCT      21
003067:    4510           00025        MD1                OCT      25
003068:
003069:    4511           00012        BINCON             DEC      10         B-14
003070:
003071:    4512           37640        FALTON             CA       BIT7                                  #  TURN ON OPERATOR ERROR LIGHT
003072:    4513           00006                           EXTEND
003073:    4514           05011                           WOR      DSALMOUT                              #  BIT 7 OF CHANNEL 11
003074:    4515           00002                           TC       Q
003075:
003076:    4516           47640        FALTOF             CS       BIT7                                  #  TURN OFF OPERATOR ERROR LIGHT
003077:    4517           00006                           EXTEND
003078:    4520           03011                           WAND     DSALMOUT                              #  BIT 7 OF CHANNEL 11


003080:    4521           00002                           TC       Q
003081:
003082:    4522           37642        RELDSPON           CAF      BIT5                                  #  TURN ON KEY RELEASE LIGHT
003083:    4523           00006                           EXTEND
003084:    4524           05011                           WOR      DSALMOUT                              #  BIT 5 OF CHANNEL 11
003085:    4525           00002                           TC       Q
003086:
003087:    4526           00006        LODSAMPT           EXTEND
003088:    4527           30025                           DCA      TIME2
003089:    4530           52755                           DXCH     SAMPTIME
003090:    4531           00002                           TC       Q
003091:
003092:
003093:
003094:    4532           00006        TPSL1              EXTEND                                         #  SHIFTS MPAC, +1, +2 LEFT 1
003095:    4533           30142                           DCA      MPAC       +1                         #  LEAVES OVFIND SET TO +/- 1 FOR OF/UF
003096:    4534           20142                           DAS      MPAC       +1
003097:    4535           60140                           AD       MPAC
003098:    4536           26140                           ADS      MPAC
003099:    4537           54007                           TS       7                                     #  TS A DOES NOT CHANGE A ON OF/UF.
003100:    4540           00002                           TC       Q                                     #  NO NET OF/UF
003101:    4541           54105                           TS       OVFIND                                #  OVFIND SET TO +/- 1 FOR OF/UF
003102:    4542           00002                           TC       Q
003103:
003104:
003105:
003106:    4543           37641        FLASHON            CAF      BIT6                                  #  TURN ON V/N FLASH
003107:    4544           00006                           EXTEND                                         #  BIT 6 OF CHANNEL 11
003108:    4545           05011                           WOR      DSALMOUT
003109:    4546           00002                           TC       Q
003110:
003111:
003112:
003113:    4547           47641        FLASHOFF           CS       BIT6                                  #  TURN OFF V/N FLASH
003114:    4550           00006                           EXTEND
003115:    4551           03011                           WAND     DSALMOUT                              #  BIT 6 OF CHANNEL 11
003116:    4552           00002                           TC       Q
003117:


003119:                                                                                                  #  INTERNAL ROUTINES THAT USE THE KEYBOARD AND DISPLAY SYSTEM(THRU
003120:                                                                                                  #  NVSUB) MUST  TC GRABDSP  BEFOREHAND , TO GRAB THE DISPLAY SYSTEM AND
003121:                                                                                                  #  MAKE IT BUSY TO OTHER INTERNAL USERS.
003122:
003123:                                                                                                  #        WHEN FINISHED , THERE MUST BE A TC FREEDSP , TO RELEASE THE
003124:                                                                                                  #  SYSTEM FOR OTHER INTERNAL USERS.
003125:
003126:                                                                                                  #        THE CALLING SEQUENCES ARE
003127:                                                                                                  #  L        TC     GRABDSP
003128:                                                                                                  #  L+1      RETURN HERE WHEN SYSTEM IS ALREADY GRABBED
003129:                                                                                                  #  L+2      RETURN HERE MEANS YOU HAVE IT
003130:
003131:                                                                                                  #  L        TC     NVSUB
003132:                                                                                                  #  L+1      RETURN HERE IF OPERATOR HAS INTERVENED
003133:                                                                                                  #  L+2      RETURN HERE AFTER EXECUTION
003134:
003135:
003136:
003137:                                                                                                  #        A ROUTINE CALLED GRABUSY IS PROVIDED (USE IS OPTIONAL) TO PUT YOUR
003138:                                                                                                  #  JOB TO SLEEP UNTIL  THE SYSTEM IS FREED BY THE JOB HOLDING IT.
003139:                                                                                                  #  GRABUSY CANNOT BE CALLED FROM E MEMORY, SINCE JOBSLEEP AND JOBWAKE
003140:                                                                                                  #  HANDLE ONLY FIXED MEMORY.
003141:                                                                                                  #  YOUR CADR IS PUT AT FIRST AVAILABLE SLOT IN A WAITING LIST (FIFO).
003142:
003143:                                                                                                  #        THE CALLING SEQUENCE IS
003144:                                                                                                  #           CAF    WAKEFCADR
003145:                                                                                                  #           TC     GRABUSY
003146:
003147:                                                                                                  #        A ROUTINE CALLED  NVSUBUSY IS PROVIDED (USE IS OPTIONAL)  TO PUT
003148:                                                                                                  #  YOUR JOB TO SLEEP UNTIL THE OPERATOR RELEASES IT.
003149:                                                                                                  #  NVSUBUSY CANNOT BE CALLED FROM E MEMORY, SINCE JOBSLEEP AND JOBWAKE
003150:                                                                                                  #  HANDLE ONLY FIXED MEMORY.
003151:                                                                                                  #                                              YOUR CADR IS PUT
003152:                                                                                                  #  ON TOP OF A WAITING LIST (FIFO). IT ALSO TURNS ON KEY RELEASE LIGHT.
003153:
003154:                                                                                                  #         THE CALLING SEQUENCE IS
003155:                                                                                                  #           CAF    WAKEFCADR
003156:                                                                                                  #           TC     NVSUBUSY
003157:
003158:
003159:                                                                                                  #  AFTER A TC FREEDSP, THE INTERNAL INTERLOCK IS KEPT BUSY FOR 10 SECONDS,
003160:                                                                                                  #  AFTER WHICH A CADR IS CALLED FROM THE LIST. THIS INSURES THAT ALL
003161:                                                                                                  #  DISPLAYS WAITING WILL BE VISIBLE.
003162:
003163:
003164:
003165:                                                                                                  #  GRABLOCK IS THE INTERNAL INTERLOCK FOR THE USE OF THE KEYBOARD
003166:                                                                                                  #  AND DISPLAY SYSTEM.
003167:                                                                                                  #  +0  FREE


003169:                                                                                                  #  +1  SOME INTERNAL ROUTINE HAS GRABBED DSP SYST
003170:                                                                                                  #  +2  SOME INTERNAL ROUTINE HAS GONE TO NVSUBUSY
003171:
003172:
003173:
003174:    4553           10677        GRABDSP            CCS      GRABLOCK
003175:    4554           00002                           TC       Q                                     #  ALREADY GRABBED, RETURN TO L+1
003176:    4555           37646                           CAF      ONE                                   #  NOT GRABBED, SET TO +1
003177:    4556           54677                           TS       GRABLOCK                              #  AND RETURN TO L+2
003178:    4557           50002                           INDEX    Q
003179:    4560           00001                           TC       1
003180:
003181:
003182:
003183:    4561           36425        PREGBSY            CAF      LOW10                                 #  SPECIAL ENTRANCE FOR ROUTINES IN FIXED
003184:    4562           70002                           MASK     Q                                     #  BANKS ONLY DESIRING THE FCADR OF
003185:    4563           60004                           AD       FBANK                                 #  1 + (LOC FROM WHICH TC PREGBSY WAS DONE)
003186:    4564           04102        GRABUSY            TC       POSTJUMP                              #  TO BE ENTERED.
003187:    4565           10000                           CADR     GRABUSYB
003188: 04,3432                                           SETLOC   DOPROC     +2
003189: 04,3432           54001        GRABUSY1           TS       L
003190: 04,3433           10677                           CCS      GRABLOCK
003191: 04,3434           03437                           TC       +3                                    #  STILL GRABBED
003192: 04,3435           30001                           CA       L                                     #  NOT GRABBED SO DO DIRECT CALL
003193: 04,3436           04105                           TC       BANKJUMP
003194: 04,3437           37645                           CAF      TWO
003195: 04,3440           54130                           TS       LSTPTR
003196: 04,3441           50130                           INDEX    LSTPTR                                #  SEARCH LIST FOR FIRST AVAILABLE SPACE
003197: 04,3442           10702                           CCS      DSPLIST                               #  FROM BOTTOM.
003198: 04,3443           03445                           TC       +2
003199: 04,3444           03450                           TC       PUTINLST                              #  SPACE FOUND
003200: 04,3445           10130                           CCS      LSTPTR                                #  DECREMENT POINTER
003201: 04,3446           03440                           TC       -6
003202: 04,3447           03514                           TC       LSTFULL
003203: 04,3450           30001        PUTINLST           CA       L
003204: 04,3451           50130                           INDEX    LSTPTR
003205: 04,3452           54702                           TS       DSPLIST
003206: 04,3453           04164                           TC       JOBSLEEP
003207:
003208:
003209:
003210:                                                                                                  #  GRABWAIT IS A SPECIAL ENTRANCE FOR ROUTINES IN FIXED BANKS ONLY. IF
003211:                                                                                                  #  SYSTEM IS NOT GRABBED, IT GRABS IT AND RETURNS TO L+1 ( L = LOC FROM
003212:                                                                                                  #  WHICH THE TC GRABWAIT WAS DONE). IF SYSTEM IS GRABBED, IT PUTS CALLING
003213:                                                                                                  #  JOB TO SLEEP WITH L+1 GOING INTO LIST FOR EVENTUAL WAKING UP WHEN
003214:                                                                                                  #  SYSTEM IS FREED.
003215:
003216:    4566                                           SETLOC   GRABUSY    +2
003217:    4566           10677        GRABWAIT           CCS      GRABLOCK
003218:    4567           14561                           TCF      PREGBSY                               #  GRABBED. PUT L+1 INTO LIST. GO TO SLEEP.


003220:    4570           37646                           CAF      ONE                                   #  NOT GRABBED. GRAB AND RETURN TO L+1.
003221:    4571           54677                           TS       GRABLOCK
003222:    4572           00002                           TC       Q
003223:
003224:
003225:
003226:    4573           44600        PRENVBSY           CS       2K+3                                  #  SPECIAL ENTRANCE FOR ROUTINES IN FIXED
003227:    4574           60002                           AD       Q                                     #  BANKS ONLY DESIRING THE FCADR OF(LOC
003228:    4575           60004                           AD       FBANK                                 #  FROM WHICH THE TC PRENVBSY WAS DONE) -2
003229:    4576           04102        NVSUBUSY           TC       POSTJUMP                              #  TO BE ENTERED.
003230:    4577           10001                           CADR     NVSUBSYB
003231:    4600           02003        2K+3               OCT      2003
003232:
003233: 04,3454                                           SETLOC   PUTINLST   +4
003234: 04,3454           54001        NVSUBSY1           TS       L
003235: 04,3455           10652                           CCS      DSPLOCK                               #  TEST IF REALLY LOCKED OUT
003236: 04,3456           03461                           TC       +3                                    #  STILL BUSY
003237: 04,3457           30001                           CA       L                                     #  DSPLOCK = +0 SO RETURN DIRECTLY
003238: 04,3460           04105                           TC       BANKJUMP
003239: 04,3461           37645                           CAF      TWO                                   #  SET FOR GRABBED STATE AND NVSUBUSY USE
003240: 04,3462           54677                           TS       GRABLOCK
003241: 04,3463           30001                           CA       L
003242: 04,3464           56704                           XCH      DSPLIST    +2                         #  ENTER CADR INTO FIRST POSITION OF LIST
003243: 04,3465           56703                           XCH      DSPLIST    +1                         #          (BOTTOM)
003244: 04,3466           56702                           XCH      DSPLIST
003245: 04,3467           10000                           CCS      A
003246: 04,3470           03514                           TC       LSTFULL
003247: 04,3471           03473                           TC       +2
003248: 04,3472           03514                           TC       LSTFULL
003249: 04,3473           04522                           TC       RELDSPON
003250: 04,3474           30001                           CA       L
003251: 04,3475           04164        ENDNVBSY           TC       JOBSLEEP
003252:
003253:
003254:
003255:                                                                                                  #  NVSBWAIT IS A SPECIAL ENTRANCE FOR ROUTINES IN FIXED BANKS ONLY. IF
003256:                                                                                                  #  SYSTEM IS NOT BUSY, IT EXECUTES V/N AND RETURNS TO L+1 (L= LOC FROM
003257:                                                                                                  #  WHICH THE TC NVSBWAIT WAS DONE). IF SYSTEM IS BUSY, IT PUTS CALLING JOB
003258:                                                                                                  #  TO SLEEP WITH L-1 GOING INTO LIST FOR EVENTUAL WAKING UP WHEN SYSTEM
003259:                                                                                                  #  IS NOT BUSY.
003260:
003261:    4601                                           SETLOC   NVSUBUSY   +3
003262:    4601           54107        NVSBWAIT           TS       NVTEMP
003263:    4602           10652                           CCS      DSPLOCK
003264:    4603           14606                           TCF      NVSBWT1                               #  BUSY
003265:    4604           30002                           CA       Q                                     #  FREE. NVSUB WILL SAVE L+1 FOR RETURN
003266:    4605           14363                           TCF      NVSUB      +5                         #  AFTER EXECUTION.
003267:    4606           24002        NVSBWT1            INCR     Q                                     #  L+2. PRENVBSY WILL PUT L-1 INTO LIST AND
003268:    4607           14573                           TCF      PRENVBSY                              #  GO TO SLEEP.
003269:


003271:    4610           56002        RELDSP             XCH      Q                                     #  SET DSPLOCK TO +0, TURN RELDSP LIGHT
003272:    4611           54130                           TS       RELRET                                #  OFF, SEARCH DSPLIST
003273:    4612           37655                           CAF      NEG1
003274:    4613           60677                           AD       GRABLOCK
003275:    4614           00006                           EXTEND                                         #  SEARCH LIST ONLY IF GRABLOCK = +2
003276:    4615           64623                           BZMF     RELDSP2                               #    (SOMEONE USED NVSUBUSY)
003277:    4616           04636                           TC       WKSEARCH
003278:    4617           04623                           TC       RELDSP2                               #  LIST EMPTY
003279:    4620           04170                           TC       JOBWAKE                               #  LIST NOT EMPTY
003280:    4621           37646                           CAF      ONE
003281:    4622           54677                           TS       GRABLOCK
003282:    4623           00004        RELDSP2            INHINT
003283:    4624           47642                           CS       BIT5                                  #  TURN OFF KEY RELEASE LIGHT
003284:    4625           00006                           EXTEND                                         #  (BIT 5 OF CHANNEL 11)
003285:    4626           03011                           WAND     DSALMOUT
003286:    4627           37653                           CAF      ZERO
003287:    4630           54652                           TS       DSPLOCK
003288:    4631           00003                           RELINT
003289:    4632           00130                           TC       RELRET
003290:    4633           56002        RELDSP1            XCH      Q                                     #  SET DSPLOCK TO +0, RELDSP LIGHT OFF.
003291:    4634           54130                           TS       RELRET                                #  NO LIST SEARCH
003292:    4635           04623                           TC       RELDSP2
003293:
003294:
003295:
003296:    4636           37653        WKSEARCH           CAF      ZERO                                  #  SEARCHES LIST. LEAVES RESULT IN A.
003297:    4637           56702                           XCH      DSPLIST                               #  IF EMPTY, RETURN TO L+1.
003298:    4640           56703                           XCH      DSPLIST    +1                         #  IF NOT EMPTY, INHINT AND RETURN TO L+2.
003299:    4641           56704                           XCH      DSPLIST    +2
003300:    4642           00006                           EXTEND
003301:    4643           14647                           BZF      +4                                    #  EMPTY
003302:    4644           00004                           INHINT                                         #  NOT EMPTY
003303:    4645           50002                           INDEX    Q                                     #  RETURN TO L+2
003304:    4646           00001                           TC       1
003305:    4647           00002                           TC       Q                                     #  RETURN TO L+1
003306:
003307:
003308:
003309:    4650           56002        FREEDSP            XCH      Q
003310:    4651           54130                           TS       FREERET
003311:    4652           00004                           INHINT
003312:    4653           34661                           CAF      SHOTIME
003313:    4654           04251                           TC       WAITLIST
003314:    4655     0637                                  EBANK=   DSPCOUNT
003315:    4655           03476 10001                     2CADR    FREEWAIT
003316:
003317:    4657           00003                           RELINT
003318:    4660           00130                           TC       FREERET
003319:
003320:    4661           01750        SHOTIME            OCT      1750
003321:


003323: 04,3476                                           SETLOC   ENDNVBSY   +1
003324:
003325: 04,3476           34502        FREEWAIT           CAF      CHRPRIO                               #  CALLED BY T3RUPT
003326: 04,3477           04131                           TC       NOVAC
003327: 04,3500     0637                                  EBANK=   DSPCOUNT
003328: 04,3500           03503 10001                     2CADR    FREDSPD0
003329:
003330: 04,3502           04321                           TC       TASKOVER
003331:
003332:
003333:
003334: 04,3503           04636        FREDSPD0           TC       WKSEARCH                              #  CALLED BY EXECUTIVE
003335: 04,3504           03512                           TC       LSTEMPTY                              #  LIST EMPTY
003336: 04,3505           04170                           TC       JOBWAKE                               #  LIST NOT EMPTY
003337: 04,3506           00003                           RELINT
003338: 04,3507           37646                           CAF      ONE                                   #  SET FOR GRABBED CONDITION
003339: 04,3510           54677                           TS       GRABLOCK
003340: 04,3511           04205                           TC       ENDOFJOB
003341: 04,3512           37653        LSTEMPTY           CAF      ZERO                                  #  SET FOR FREE CONDITION
003342: 04,3513           03510                           TC       -3
003343:
003344:
003345:
003346: 04,3514           04662        LSTFULL            TC       ABORT
003347: 04,3515           01206                           OCT      01206                                 #  PINBALL WAITING LINE FULL.
003348:
003349:    4662                                           SETLOC   SHOTIME    +1
003350:    4662           04662        ABORT              TC       ABORT                                 #  ****FIX LATER*****
003351:


003353:                                                                                                  #  VBTSTLTS TURNS ON ALL DISPLAY PANEL LIGHTS. AFTER 5 SEC, IT TURNS
003354:                                                                                                  #  OFF THE CAUTION AND STATUS LIGHTS.
003355:
003356: 05,3414                                           SETLOC   DSPMMEND   +1
003357:
003358: 05,3414           33453        VBTSTLTS           CAF      TSTCON1                               #  TURN ON UPLINK ACTIVITY, TEMP, KEY RLSE,
003359: 05,3415           00006                           EXTEND                                         #  V/N FLASH, OPERATOR ERROR.
003360: 05,3416           05011                           WOR      DSALMOUT
003361: 05,3417           33454                           CAF      TSTCON2                               #  TURN ON AUTO, HOLD, NO ATT, SPARE,
003362: 05,3420           54675                           TS       DSPTAB     +11D                       #  GIMBAL LOCK, SPARE, TRACKER, PROG ALM.
003363: 05,3421           37635                           CAF      BIT10                                 #  TURN ON TEST ALARM OUTBIT
003364: 05,3422           00006                           EXTEND
003365: 05,3423           05013                           WOR      CHAN13
003366: 05,3424           00004                           INHINT
003367: 05,3425           37650                           CAF      TEN
003368: 05,3426           54103        TSTLTS1            TS       ERCNT
003369: 05,3427           43451                           CS       FULLDSP
003370: 05,3430           50103                           INDEX    ERCNT
003371: 05,3431           54662                           TS       DSPTAB
003372: 05,3432           10103                           CCS      ERCNT
003373: 05,3433           03426                           TC       TSTLTS1
003374: 05,3434           43452                           CS       FULLDSP1
003375: 05,3435           54663                           TS       DSPTAB     +1                         #  TURN ON 3 PLUS SIGNS
003376: 05,3436           54666                           TS       DSPTAB     +4
003377: 05,3437           54670                           TS       DSPTAB     +6
003378: 05,3440           37647                           CAF      ELEVEN
003379: 05,3441           54656                           TS       NOUT
003380: 05,3442           00003                           RELINT
003381: 05,3443           33456                           CAF      SHOLTS
003382: 05,3444           00004                           INHINT
003383: 05,3445           04251                           TC       WAITLIST
003384: 05,3446     0662                                  EBANK=   DSPTAB
003385: 05,3446           03457 12001                     2CADR    TSTLTS2
003386:
003387: 05,3450           04205                           TC       ENDOFJOB                              #  DSPLOCK IS LEFT BUSY (FROM KEYBOARD
003388:                                                                                                  #  ACTION) UNTIL TSTLTS3 TO INSURE THAT
003389:                                                                                                  #  LIGHTS TEST WILL BE SEEN.
003390:
003391:
003392:
003393: 05,3451           05675        FULLDSP            OCT      05675                                 #  DISPLAY ALL 8:S
003394: 05,3452           07675        FULLDSP1           OCT      07675                                 #  DISPLAY ALL 8:S AND +
003395: 05,3453           00174        TSTCON1            OCT      00174                                 #  CHAN 11 BITS 3-7
003396:                                                                                                  #  UPLINK ACTIVITY, TEMP, KEY RLSE,
003397:                                                                                                  #  V/N FLASH, OPERATOR ERROR.
003398: 05,3454           40777        TSTCON2            OCT      40777                                 #  DSPTAB+11D BITS 1-9
003399:                                                                                                  #  AUTO, HOLD, FREE, NO ATT, SPARE,
003400:                                                                                                  #  GIMBAL LOCK, SPARE, TRACKER, PROG ALM.
003401: 05,3455           00114        TSTCON3            OCT      00114                                 #  CHAN 11  BITS 3,4,7
003402:                                                                                                  #  UPLINK ACTIVITY, TEMP, OPERATOR ERROR.


003404: 05,3456           00764        SHOLTS             OCT      764                                   #  5 SEC
003405:
003406:
003407:
003408: 05,3457           34502        TSTLTS2            CAF      CHRPRIO                               #  CALLED BY WAITLIST
003409: 05,3460           04131                           TC       NOVAC
003410: 05,3461     0662                                  EBANK=   DSPTAB
003411: 05,3461           03464 12001                     2CADR    TSTLTS3
003412:
003413: 05,3463           04321                           TC       TASKOVER
003414:
003415:
003416:
003417: 05,3464           43455        TSTLTS3            CS       TSTCON3                               #  CALLED BY EXECUTIVE
003418: 05,3465           00006                           EXTEND                                         #  TURN OFF  UPLINK ACTIVITY, TEMP,
003419: 05,3466           03011                           WAND     DSALMOUT                              #  OPERATOR ERROR.
003420: 05,3467           47635                           CS       BIT10                                 #  TURN OFF TEST ALARM OUTBIT
003421: 05,3470           00006                           EXTEND
003422: 05,3471           03013                           WAND     CHAN13
003423: 05,3472           37630                           CAF      BIT15                                 #  TURN OFF AUTO, HOLD, FREE, NO ATT, SPARE
003424: 05,3473           54675                           TS       DSPTAB     +11D                       #  GIMBAL LOCK, SPARE, TRACKER, PROG ALM
003425: 05,3474           02001                           TC       DSPMM                                 #  REDISPLAY C(MODREG)
003426: 05,3475           04102                           TC       POSTJUMP                              #  TURN OFF KEY RLSE LIGHT ( AND SEARCH LIST
003427: 05,3476           11273                           CADR     VBTERM                                #  IF APPROPRIATE).
003428:                                                                                                  #  TURN OFF V/N FLASH, SET LOADSTAT FOR
003429:                                                                                                  #  FOR TERMINATE CONDITION, AND GO TO
003430:                                                                                                  #  RECALTST. FINALLY DO TC ENDOFJOB.

End of include-file PINBALL_GAME__BUTTONS_AND_LIGHTS.agc.  Parent file is MAIN.agc


