
Source Code


000002:                                                                                                  ## Copyright:   Public domain.
000003:                                                                                                  ## Filename:    T4RUPT_PROGRAM.agc
000004:                                                                                                  ## Purpose:     Part of the source code for Retread 44 (revision 0). It was
000005:                                                                                                  ##              the very first program for the Block II AGC, created as an
000006:                                                                                                  ##              extensive rewrite of the Block I program Sunrise.
000007:                                                                                                  ##              This file is intended to be a faithful transcription, except
000008:                                                                                                  ##              that the code format has been changed to conform to the
000009:                                                                                                  ##              requirements of the yaYUL assembler rather than the
000010:                                                                                                  ##              original YUL assembler.
000011:                                                                                                  ## Reference:   pp. 128-130
000012:                                                                                                  ## Assembler:   yaYUL
000013:                                                                                                  ## Contact:     Ron Burkey <info@sandroid.org>.
000014:                                                                                                  ## Website:     www.ibiblio.org/apollo/index.html
000015:                                                                                                  ## Mod history: 2016-12-13 MAS  Created from Aurora 12 version.
000016:                                                                                                  ##              2016-12-18 MAS  Transcribed, then fixed typos.
000017:                                                                                                  ##              2016-12-27 RSB  Proofed comment text using octopus/ProoferComments,
000018:                                                                                                  ##                              but no errors found.
000019:


000021: 01,3052           54016        T4RUPT             TS       BANKRUPT
000022: 01,3053           56002                           XCH      Q
000023: 01,3054           54012                           TS       QRUPT
000024: 01,3055           37653                           CAF      ZERO
000025: 01,3056           00006                           EXTEND
000026: 01,3057           01010                           WRITE    OUT0
000027: 01,3060           11020                           CCS      DSRUPTSW
000028: 01,3061           03063                           TC       SPECRUPT                              #  ZERO OUT0 10 MS AFTER REGULAR T4RUPT.
000029: 01,3062           03072                           TC       T4RUPTA
000030:
000031: 01,3063           37653        SPECRUPT           CAF      ZERO
000032: 01,3064           55020                           TS       DSRUPTSW
000033: 01,3065           33071                           CAF      110MRUPT                              #  RE ESTABLISH 120 MS PERIOD
000034: 01,3066           54027                           TS       TIME4
000035: 01,3067           04325                           TC       RESUME
000036: 01,3070           37764        120MRUPT           OCT      37764
000037: 01,3071           37765        110MRUPT           OCT      37765
000038:
000039:
000040:
000041:                                                                                                  #  RELTAB IS A PACKED TABLE. RELAYWORD CODE IN UPPER 4 BITS, RELAY CODE
000042:                                                                                                  #  IN LOWER 5 BITS.
000043:
000044:    4333                                           SETLOC   ENDWAITF                              #  IN F/F
000045:
000046:    4333           04025        RELTAB             OCT      04025
000047:    4334           10003                           OCT      10003
000048:    4335           14031                           OCT      14031
000049:    4336           20033                           OCT      20033
000050:    4337           24017                           OCT      24017
000051:    4340           30036                           OCT      30036
000052:    4341           34034                           OCT      34034
000053:    4342           40023                           OCT      40023
000054:    4343           44035                           OCT      44035
000055:    4344           50037                           OCT      50037
000056:    4345           54000                           OCT      54000
000057:    4346           60000        RELTAB11           OCT      60000
000058:
000059:
000060:
000061:    4347                        ENDT4FF            EQUALS
000062:
000063:
000064:
000065: 01,3072                                           SETLOC   110MRUPT   +1                         #  IN BANK
000066:
000067: 01,3072           33070        T4RUPTA            CAF      120MRUPT
000068: 01,3073           54027                           TS       TIME4
000069: 01,3074           10675        CDRVE              CCS      DSPTAB     +11D
000070: 01,3075           03104                           TC       DSPOUT


000072: 01,3076           03104                           TC       DSPOUT
000073: 01,3077           56675                           XCH      DSPTAB     +11D
000074: 01,3100           74503                           MASK     LOW11
000075: 01,3101           54675                           TS       DSPTAB     +11D
000076: 01,3102           64346                           AD       RELTAB11
000077: 01,3103           03143                           TC       DSPLAYC
000078:


000080:                                                                                                  #  DSPOUT PROGRAM. PUTS OUT DISPLAYS.
000081:
000082: 01,3104           10656        DSPOUT             CCS      NOUT                                  #  ENTERED IN INTERRUPTED STATE AT END OF
000083: 01,3105           03107                           TC       +2                                    #                          DSRUPT
000084: 01,3106           04325                           TC       LVDSRUPT
000085: 01,3107           54656                           TS       NOUT
000086: 01,3110           47653                           CS       ZERO
000087: 01,3111           54624                           TS       DSRUPTEM                              #  SET TO -0 FOR 1ST PASS THRU DSPTAB
000088: 01,3112           56714                           XCH      DSPCNT
000089: 01,3113           67654                           AD       NEG0                                  #  TO PREVENT +0
000090: 01,3114           54714                           TS       DSPCNT
000091: 01,3115           50714        DSPSCAN            INDEX    DSPCNT
000092: 01,3116           10662                           CCS      DSPTAB
000093: 01,3117           10714                           CCS      DSPCNT                                #  IF DSPTAB ENTRY +, SKIP
000094: 01,3120           03113                           TC       DSPSCAN    -2                         #  IF DSPCNT +, AGAIN
000095: 01,3121           03132                           TC       DSPLAY                                #  IF DSPTAB ENTRY -, DISPLAY
000096: 01,3122           00012        TABLNTH            OCT      12                                    #  DEC 10   LENGTH OF DSPTAB
000097: 01,3123           10624                           CCS      DSRUPTEM                              #  IF DSRUPTEM=+0,2ND PASS THRU DSPTAB
000098: 01,3125                                           LOC      +1                                    #  (DSPCNT=0). +0 INTO NOUT, RESUME
000099: 01,3125           54656                           TS       NOUT
000100: 01,3126           04325                           TC       LVDSRUPT
000101: 01,3127           54624                           TS       DSRUPTEM                              #  IF DSRUPTEM=-0,1ST PASS THRU DSPTAB
000102: 01,3130           33122                           CAF      TABLNTH                               #  (DSPCNT=0). +0 INTO DSRUPTEM. PASS AGAIN
000103: 01,3131           03114                           TC       DSPSCAN    -1
000104:
000105: 01,3132           67646        DSPLAY             AD       ONE
000106: 01,3133           50714                           INDEX    DSPCNT
000107: 01,3134           54662                           TS       DSPTAB                                #  REPLACE POSITIVELY
000108: 01,3135           74503                           MASK     LOW11                                 #  REMOVE BITS 12 TO 15
000109: 01,3136           54624                           TS       DSRUPTEM
000110: 01,3137           34475                           CAF      HI5
000111: 01,3140           50714                           INDEX    DSPCNT
000112: 01,3141           74333                           MASK     RELTAB                                #  PICK UP BITS 12 TO 15 OF RELTAB ENTRY
000113: 01,3142           60624                           AD       DSRUPTEM
000114: 01,3143           00006        DSPLAYC            EXTEND
000115: 01,3144           01010                           WRITE    OUT0
000116: 01,3145           55023                           TS       DISPBUF                               #  THIS WILL BE SENT DOWN NEXT TM CYCLE.
000117:
000118: 01,3146           37626                           CAF      10MSRUPT                              #  SET T4 TO INTERRUPT IN 10 MS.
000119: 01,3147           54027                           TS       TIME4
000120: 01,3150           37646                           CAF      ONE
000121: 01,3151           55020                           TS       DSRUPTSW                              #  SET FOR SPECRUPT
000122:
000123: 01,3152           04325                           TC       LVDSRUPT
000124:
000125: 01,3153     4325               LVDSRUPT           EQUALS   RESUME
000126: 01,3153     7626               10MSRUPT           =        POSMAX

End of include-file T4RUPT_PROGRAM.agc.  Parent file is MAIN.agc


