
Source Code


000002:                                                                                                  ## Copyright:   Public domain.
000003:                                                                                                  ## Filename:    WAITLIST.agc
000004:                                                                                                  ## Purpose:     Part of the source code for Retread 44 (revision 0). It was
000005:                                                                                                  ##              the very first program for the Block II AGC, created as an
000006:                                                                                                  ##              extensive rewrite of the Block I program Sunrise.
000007:                                                                                                  ##              This file is intended to be a faithful transcription, except
000008:                                                                                                  ##              that the code format has been changed to conform to the
000009:                                                                                                  ##              requirements of the yaYUL assembler rather than the
000010:                                                                                                  ##              original YUL assembler.
000011:                                                                                                  ## Reference:   pp. 118-123
000012:                                                                                                  ## Assembler:   yaYUL
000013:                                                                                                  ## Contact:     Ron Burkey <info@sandroid.org>.
000014:                                                                                                  ## Website:     www.ibiblio.org/apollo/index.html
000015:                                                                                                  ## Mod history: 2016-12-13 MAS  Created from Aurora 12 version.
000016:                                                                                                  ##              2016-12-18 MAS  Transcribed.
000017:                                                                                                  ##              2016-12-27 RSB  Proofed comment text using octopus/ProoferComments,
000018:                                                                                                  ##                              and fixed errors found.
000019:                                                                                                  ##              2017-02-09 RSB  Comment-text fixes identified in proofing Artemis 72
000020:


000023:
000024:                                                                                                  #  GROUNDRULE....DELTA T SHOULD NOT EXCEED 12000 (= 2 MINUTES)
000025:
000026:    4251                                           SETLOC   ENDEXECF
000027:
000028:    4251  E3,1400                                  EBANK=   LST1                                  #  TASK LISTS IN SWITCHED E BANK.
000029:
000030:    4251           56002        WAITLIST           XCH      Q                                     #   SAVE DELTA T IN Q AND RETURN IN
000031:    4252           54624                           TS       WAITEXIT                              #  WAITEXIT.
000032:    4253           00006                           EXTEND
000033:    4254           50000                           INDEX    A
000034:    4255           30001                           DCA      0                                     #  PICK UP 2CADR OF TASK.
000035:    4256           54630                           TS       WAITADR                               #  BBCON WILL REMAIN IN L.
000036:    4257           34266        DLY2               CAF      WAITBB
000037:    4260           56006                           XCH      BBANK
000038:    4261           12557                           TCF      WAIT2
000039:
000040:                                                                                                  #           RETURN TO CALLER AFTER TASK INSERTION:
000041:
000042:    4262           30625        LVWTLIST           CA       WAITBANK
000043:    4263           54006                           TS       BBANK
000044:    4264           50624                           INDEX    WAITEXIT
000045:    4265           00002                           TC       2
000046:
000047:    4266           02003        WAITBB             BBCON    WAIT2
000048:
000049:                                                                                                  #  ENDTASK MUST BE ENTERED IN FIXED-FIXED SO IT IS DISTINGUISHABLE BY ITS ADRES ALONE.


000051:
000052:    4267           73506 73774  ENDTASK            -2CADR   SVCT3
000053:
000054:    4271           14321        SVCT3              TCF      TASKOVER
000055:


000057:                                                                                                  #           BEGIN TASK INSERTION.
000058:
000059: 01,2557                                           SETLOC   ENDEXECS
000060:
000061: 01,2557           54625        WAIT2              TS       WAITBANK                              #  BBANK OF CALLING PROGRAM.
000062: 01,2560           40026                           CS       TIME3
000063: 01,2561           62562                           AD       +1                                    #  CCS  A  = + 1/4
000064: 01,2562           10000                           CCS      A                                     #  TEST  1/4 - C(TIME3).  IF POSITIVE,
000065:                                                                                                  #          IT MEANS THAT TIME3 OVERFLOW HAS OCCURRED PRIOR TO CS  TIME3 AND THAT
000066:                                                                                                  #          C(TIME3) = T - T1, INSTEAD OF 1.0 - (T1 - T).  THE FOLLOWING FOUR
000067:                                                                                                  #          ORDERS SET C(A) = TD - T1 + 1 IN EITHER CASE.
000068:
000069: 01,2563           66042                           AD       OCT40001                              #  OVERFLOW HAS OCCURRED.  SET C(A) =
000070: 01,2564           40000                           CS       A                                     #  T - T1 + 3/4 - 1
000071:
000072:                                                                                                  #  NORMAL CASE (C(A) MINUS) YIELDS SAME C(A)  -(-(1.0-(T1-T))+1/4)-1
000073:
000074: 01,2565           62657                           AD       OCT50001
000075: 01,2566           60002                           AD       Q                                     #  RESULT = TD - T1 + 1.
000076:
000077: 01,2567           10000                           CCS      A                                     #  TEST TD - T1 + 1
000078:
000079: 01,2570           61400                           AD       LST1                                  #  IF TD - T1 POS, GO TO WTLST5 WITH
000080: 01,2571           12625                           TCF      WTLST5                                #  C(A) = (TD - T1) + C(LST1) = TD-T2+1
000081:
000082: 01,2572           12573                           NOOP
000083: 01,2573           40002                           CS       Q
000084:
000085:                                                                                                  #  NOTE THAT THIS PROGRAM SECTION IS NEVER ENTERED WHEN T-T1 G/E -1,
000086:                                                                                                  #  SINCE TD-T1+1 = (TD-T) + (T-T1+1), AND DELTA T = TD-T G/E +1 .  (G/E
000087:                                                                                                  #  SYMBOL MEANS GREATER THAN OR EQUAL TO).  THUS THERE NEED BE NO CON-
000088:                                                                                                  #  CERN OVER A PREVIOUS OR IMMINENT OVERFLOW OF TIME3 HERE.
000089:
000090: 01,2574           67631                           AD       POS1/2                                #  WHEN TD IS NEXT, FORM QUANTITY
000091: 01,2575           67631                           AD       POS1/2                                #    1.0 - DELTA T = 1.0 - (TD - T)
000092: 01,2576           56026                           XCH      TIME3
000093: 01,2577           67630                           AD       NEGMAX
000094: 01,2600           60002                           AD       Q                                     #  1.0 - DELTAT T NOW COMPLETE.
000095: 01,2601           00006                           EXTEND                                         #  ZERO INDEX Q.
000096: 01,2602           22007                           QXCH     7                                     #  (ZQ)
000097:


000099: 01,2603           57400        WTLST4             XCH      LST1
000100: 01,2604           57401                           XCH      LST1       +1
000101: 01,2605           57402                           XCH      LST1       +2
000102: 01,2606           57403                           XCH      LST1       +3
000103: 01,2607           57404                           XCH      LST1       +4
000104:
000105: 01,2610           30630                           CA       WAITADR                               #  (MINOR PART OF TASK CADR HAS BEEN IN L.)
000106: 01,2611           50002                           INDEX    Q
000107: 01,2612           12613                           TCF      +1
000108:
000109: 01,2613           53406                           DXCH     LST2
000110: 01,2614           53410                           DXCH     LST2       +2
000111: 01,2615           53412                           DXCH     LST2       +4
000112: 01,2616           53414                           DXCH     LST2       +6
000113: 01,2617           53416                           DXCH     LST2       +8D
000114: 01,2620           53420                           DXCH     LST2       +10D                       #  AT END, CHECK THAT C(LST2 +10) IS STD
000115: 01,2621           64267                           AD       ENDTASK                               #    END ITEM, AS CHECK FOR EXCEEDING
000116:                                                                                                  #    THE LENGTH OF THE LIST.
000117: 01,2622           00006                           EXTEND                                         #  DUMMY TASK ADRES SHOULD BE IN FIXED-
000118: 01,2623           14262                           BZF      LVWTLIST                              #  FIXED SO ITS ADRES ALONE DISTINGUISHES
000119: 01,2624           12663                           TCF      WTABORT                               #  IT.
000120:


000122:
000123: 01,2625           10000        WTLST5             CCS      A                                     #  TEST TD - T2 + 1
000124: 01,2626           61401                           AD       LST1       +1
000125: 01,2627           12633                           TCF      +4
000126: 01,2630           67646                           AD       ONE
000127: 01,2631           02664                           TC       WTLST2
000128: 01,2632           00001                           OCT      1
000129:
000130: 01,2633           10000                 +4        CCS      A                                     #  TEST TD - T3 + 1
000131: 01,2634           61402                           AD       LST1       +2
000132: 01,2635           12641                           TCF      +4
000133: 01,2636           67646                           AD       ONE
000134: 01,2637           02664                           TC       WTLST2
000135: 01,2640           00002                           OCT      2
000136:
000137: 01,2641           10000                 +4        CCS      A                                     #  TEST TD - T4 + 1
000138: 01,2642           61403                           AD       LST1       +3
000139: 01,2643           12647                           TCF      +4
000140: 01,2644           67646                           AD       ONE
000141: 01,2645           02664                           TC       WTLST2
000142: 01,2646           00003                           OCT      3
000143:
000144: 01,2647           10000                 +4        CCS      A                                     #  TEST TD - T5 + 1
000145: 01,2650           61404                           AD       LST1       +4
000146: 01,2651           12655                           TCF      +4
000147: 01,2652           67646                           AD       ONE
000148: 01,2653           02664                           TC       WTLST2
000149: 01,2654           00004                           OCT      4
000150:
000151: 01,2655           10000                 +4        CCS      A                                     #  TEST TD - T6 + 1
000152: 01,2656           12663                           TCF      WTABORT
000153: 01,2657           50001        OCT50001           OCT      50001
000154: 01,2660           67646                           AD       ONE
000155: 01,2661           02664                           TC       WTLST2
000156: 01,2662           00005                           OCT      5
000157:
000158: 01,2663           02663        WTABORT            TC       -0                                    #  LIST OVERFLOW.
000159:
000160:


000162:                                                                                                  #  THE ENTRY TO WTLST2 JUST PRECEDING OCT  N  IS FOR T  LE TD LE T   -1.
000163:                                                                                                  #                                                     N           N+1
000164:
000165:                                                                                                  #  (LE MEANS LESS THAN OR EQUAL TO).  AT ENTRY, C(A) = -(TD - T   + 1)
000166:                                                                                                  #                                                              N+1
000167:
000168:                                                                                                  #  THE LST1 ENTRY -(T   - T +1) IS TO BE REPLACED BY -(TD - T  + 1), AND
000169:                                                                                                  #                    N+1   N                                 N
000170:
000171:                                                                                                  #  THE ENTRY -(T   - TD + 1) IS TO BE INSERTED IMMEDIATELY FOLLOWING.
000172:                                                                                                  #               N+1
000173:
000174: 01,2664           54631        WTLST2             TS       WAITTEMP                              #      C(A) = -(TD - T   + 1)
000175: 01,2665           50002                           INDEX    Q
000176: 01,2666           30000                           CAF      0
000177: 01,2667           54002                           TS       Q                                     #  INDEX VALUE INTO Q.
000178:
000179: 01,2670           37646                           CAF      ONE
000180: 01,2671           60631                           AD       WAITTEMP
000181: 01,2672           50002                           INDEX    Q                                     #  C(A) = -(TD - T ) + 1.
000182: 01,2673           27377                           ADS      LST1       -1                         #                 N
000183:
000184: 01,2674           40631                           CS       WAITTEMP
000185: 01,2675           50002                           INDEX    Q
000186: 01,2676           12603                           TCF      WTLST4
000187:
000188: 01,2677                        ENDWAITS           EQUALS                                         #  LAST SWITCHABLE LOCATION.
000189:
000190:                                                                                                  #  C(TIME3)  = 1.0 - (T1 - T)
000191:
000192:                                                                                                  #  C(LST1  ) = - (T2 - T1) + 1
000193:                                                                                                  #  C(LST1+1) = - (T3 - T2) + 1
000194:                                                                                                  #  C(LST1+2) = - (T4 - T3) + 1
000195:                                                                                                  #  C(LST1+3) = - (T5 - T4) + 1
000196:                                                                                                  #  C(LST1+4) = - (T6 - T5) + 1
000197:
000198:                                                                                                  #  C(LST2   ) = 2CADR  TASK1
000199:                                                                                                  #  C(LST2+2 ) = 2CADR  TASK2
000200:                                                                                                  #  C(LST2+4 ) = 2CADR  TASK3
000201:                                                                                                  #  C(LST2+6 ) = 2CADR  TASK4
000202:                                                                                                  #  C(LST2+8 ) = 2CADR  TASK5
000203:                                                                                                  #  C(LST2+10) = 2CADR  TASK6
000204:


000206:                                                                                                  #           ENTERS HERE ON T3 RUPT TO DISPATCH WAITLISTED TASK.
000207:
000208:    4272                                           SETLOC   SVCT3      +1
000209:
000210:    4272           54016        T3RUPT             TS       BANKRUPT
000211:    4273           00006                           EXTEND
000212:    4274           22012                           QXCH     QRUPT
000213:
000214:    4275           37627        T3RUPT2            CAF      NEG1/2                                #  DISPATCH WAITLIST TASK.
000215:    4276           57404                           XCH      LST1       +4                         #  1.  MOVE UP LST1 CONTENTS, ENTERING
000216:    4277           57403                           XCH      LST1       +3                         #      A VALUE OF 1/2 +1 AT THE BOTTOM
000217:    4300           57402                           XCH      LST1       +2                         #      FOR T6-T5, CORRESPONDING TO THE
000218:    4301           57401                           XCH      LST1       +1                         #      INTERVAL 81.91 SEC FOR ENDTASK.
000219:    4302           57400                           XCH      LST1
000220:    4303           67626                           AD       POSMAX                                #  2. SET T3 = 1.0 - T2 -T USING LIST 1.
000221:    4304           26026                           ADS      TIME3                                 #  SO T3 WONT TICK DURING UPDATE.
000222:    4305           54636                           TS       RUPTAGN
000223:    4306           47653                           CS       ZERO
000224:    4307           54636                           TS       RUPTAGN                               #  SETS RUPTAGN TO +1 ON OVERFLOW.
000225:
000226:    4310           00006                           EXTEND                                         #  DISPATCH TASK.
000227:    4311           44270                           DCS      ENDTASK
000228:    4312           53420                           DXCH     LST2       +10D
000229:    4313           53416                           DXCH     LST2       +8D
000230:    4314           53414                           DXCH     LST2       +6
000231:    4315           53412                           DXCH     LST2       +4
000232:    4316           53410                           DXCH     LST2       +2
000233:    4317           53406                           DXCH     LST2
000234:
000235:    4320           52006                           DTCB
000236:
000237:
000238:
000239:                                                                                                  #  RETURN, AFTER EXECUTION OF TIME3 OVERFLOW TASK.
000240:
000241:    4321           10636        TASKOVER           CCS      RUPTAGN                               #  IF +1 RETURN TO T3RUPT, IF -0 RESUME.
000242:    4322           34266                           CAF      WAITBB
000243:    4323           54006                           TS       BBANK
000244:    4324           14275                           TCF      T3RUPT2                               #  DISPATCH NEXT TASK IF IT WAS DUE.
000245:
000246:    4325           00006        RESUME             EXTEND
000247:    4326           22012                           QXCH     QRUPT
000248:    4327           30016                           CA       BANKRUPT
000249:    4330           54006                           TS       BBANK
000250:    4331           52011                           DXCH     ARUPT
000251:    4332           50017                           RESUME
000252:
000253:    4333                        ENDWAITF           EQUALS                                         #  LAST FIXED-FIXED LOCATION OF T3RUPT.

End of include-file WAITLIST.agc.  Parent file is MAIN.agc


