
Source Code


000002:                                                                                                  ## Copyright:   Public domain.
000003:                                                                                                  ## Filename:    206_SERVICER_ROUTINES.agc
000004:                                                                                                  ## Purpose:     A module for revision 0 of BURST120 (Sunburst). It
000005:                                                                                                  ##              is part of the source code for the Lunar Module's
000006:                                                                                                  ##              (LM) Apollo Guidance Computer (AGC) for Apollo 5.
000007:                                                                                                  ## Assembler:   yaYUL
000008:                                                                                                  ## Contact:     Ron Burkey <info@sandroid.org>.
000009:                                                                                                  ## Website:     www.ibiblio.org/apollo/index.html
000010:                                                                                                  ## Mod history: 2016-09-30 RSB  Created draft version.
000011:                                                                                                  ##              2016-10-16 MAS  Began transcription.
000012:                                                                                                  ##              2016-10-17 MAS  Completed transcribing/disassembling/reconstructing. There are gaps in
000013:                                                                                                  ##                              comments, but instruction-wise it should be pretty close.
000014:                                                                                                  ##              2016-12-06 RSB  Comments proofed using octopus/ProoferComments,
000015:                                                                                                  ##                              changes made, though the general quality of the printout in this
000016:                                                                                                  ##                              section makes this a less-convincing procedure than it would normally
000017:                                                                                                  ##                              be.
000018:


000020:                                                                                                  #  **SERVICER ROUTINES**
000021:                                                                                                  #        MOD NO. 00      MODIFICATION BY A. KOSMALA      NOV. 1966
000022:                                                                                                  #        MOD NO.  1      MODIFICATION BY D. LICKLY       JAN 1967
000023:                                                                                                  #    *FUNCTIONAL DESCRIPTION*
000024:
000025:                                                                                                  #      THE NORMAL ENTRY TO THE THRUST MISSION CONTROL PROGRAM IS THROUGH PREREAD.  PREREAD SCHEDULES THE JOB
000026:                                                                                                  #  LASTBIAS.  BOOST PHASE ENTERS THE PREREAD ROUTINE AT BIBIBIAS, BYPASSING THE LASTBIAS JOB.  PIPS ARE CLEARED,
000027:                                                                                                  #  AVERAGE G FLAG IS SET, DRIFT FLAG IS UNSET.  DV MONITOR AND FINDCUD ARE INITIALIZED, THE JOB NORMLIZE IS
000028:                                                                                                  #  SCHEDULED, AND A WAITLIST CALL IS MADE TO START READACCS IN TWO SECONDS.
000029:
000030:                                                                                                  #      NORMLIZE PERFORMS THE SCALING AND INITIALIZATION REQUIRED PRIOR TO THE FIRST ENTRY TO AVERAGE G.
000031:
000032:                                                                                                  #      IN THE READACCS SECTION, THE ACCELEROMETERS ARE READ BY THE PIPASR SUBROUTINE.  IF THE AVERAGE G FLAG IS
000033:                                                                                                  #  SET, READACCS IS CALLED TO RECYCLE IN TWO SECONDS.  IF THE AVERAGE G FLAG IS DOWN, AVERAGE G EXIT (AVEGEXIT)
000034:                                                                                                  #  IS SET FOR THE FINAL PASS, AND READACCS IS NOT CALLED AGAIN.  IN EITHER CASE, THE SERVICER JOB IS ESTABLISHED.
000035:
000036:                                                                                                  #      THE SERVICER ROUTINE CHECKS FOR RUNAWAY PIPS (DELV GREATER THAN 3200 PULSES/SEC FOR 2 SEC) AND SENDS
000037:                                                                                                  #  ALARM CODE 205 IF BAD PIP IS FOUND.  PIPS ARE COMPENSATED IN 1/PIPA SUBROUTINE, MASS IS UPDATED BY MASSMON
000038:                                                                                                  #  SUBROUTINE, AND  AVERAGEG DOES THE NAVIGATION.  THE AVERAGE G ROUTINE UPDATES RN, VN, AND GDT/2 VECTORS, USING
000039:                                                                                                  #  THE SUBROUTINE CALCRVG.  CONTROL IS THEN TRANSFERRED TO THE MONITOR SPECIFIED BY DVSELECT.  DVSELECT IS SET BY
000040:                                                                                                  #  THE BOOST PHASE TO BOOSTMON, AND BY THE ENGINEON ROUTINE TO THE PGNCSMON.  USERS STARTING SERVICER BEFORE THE
000041:                                                                                                  #  ENGINE IS ON SHOULD INSURE BYPASSING DVMON INITIALLY BY SETTING DVSELECT TO THE GENADR OF AVERAGE G.
000042:
000043:                                                                                                  #      THE BOOST MONITOR (BOOSTMON) CHECKS DELV AGAINST THRSHLD+, THE THRESHOLD ACCELERATION FOR THE BOOST PHASE.
000044:                                                                                                  #  IF DELV IS BELOW THRESHOLD, INDICATING TERMINATION OF BOOST, MISSION PHASE 6 IS SCHEDULED AS A JOB, DVSELECT
000045:                                                                                                  #  IS ALTERED TO BYPASS BOOSTMON AND PROCEED DIRECTLY TO AVERAGE G.
000046:
000047:                                                                                                  #      THE PGNCS MONITOR (PGNCSMON) COMPARES ACTUAL THRUST TO THE THRESHOLD VALUE FOR THE +X ACCELERATION
000048:                                                                                                  #  (100 CM/SEC).  IF THRUST IS FOUND BELOW THIS VALUE FOR 3 CYCLES (I.E., 4 TO 6 SECONDS) AS DETERMINED BY DVCNTR,
000049:                                                                                                  #  AND THE ENGINE FLAG IS REMOVED, (INDICATING THAT THE ENGINE HAS BEEN TURNED OFF) CONTROL IS BRANCHED TO THE
000050:                                                                                                  #  LOCATION SPECIFIED BY DVMNEXIT, PREVIOUSLY SET BY THE USERS PROGRAM.  DVSELECT IS ALTERED TO BYPASS PNGCSMON IN
000051:                                                                                                  #  SUBSEQUENT PASSES.  IF, HOWEVER, THE ENGINE FLAG IS STILL ON AT THIS TIME, CONTROL IS TRANSFERRED TO ENGNFAIL.
000052:                                                                                                  #  THIS SENDS ALARM CODE 1405 AND KILLS THAT MISSION PHASE.  ANY TIME THE THRUST IS LESS THAN THE THRESHOLD VALUE,
000053:                                                                                                  #  THE STEERING IS DETACHED (NO EXIT VIA AVEGEXIT) AND EXIT IS MADE THRU SERVEXIT.
000054:
000055:                                                                                                  #      THE NORMAL EXIT IS THRU AVEGEXIT, WHICH MUST HAVE BEEN SET BY THE USER. THE FINAL EXIT, SET INTO AVEGEXIT BY
000056:                                                                                                  #  READACCS WHEN IT  FINDS THE AVERAGE G FLAG DOWN, SETS UP FREE FALL GYRO COMPENSATION, SETS THE DRIFT FLAG ON,
000057:                                                                                                  #  PERFORMS AVETOMID ROUTINE, AND TRANSFERS CONTROL TO P00H, THUS CLEARING  ALL ACTIVITY UNTIL A NEW MISSION
000058:                                                                                                  #  PHASE IS DUE.
000059:
000060:                                                                                                  #  ***** WARNING TO USERS *****
000061:
000062:                                                                                                  #  THE USER MUST SET DVMNEXIT TO THE 2CADR OF A JOB TO BE PERFORMED WHEN ENGINE SHUTDOWN IS DETECTED BY SERVICER.
000063:                                                                                                  #  IN GENERAL, THE AVERAGE G FLAG WILL BE TURNED OFF BY THE USER AT THAT TIME, ALLOWING JUST ONE MORE PASS THROUGH
000064:                                                                                                  #  AVERAGE G.  ALL ACTIVITY OF THE USERS MISSION PHASE MUST HAVE BEEN COMPLETED BEFORE THIS LAST PASS THROUGH
000065:                                                                                                  #  AVERAGE G, DUE TO THE PERFORMANCE OF P00H AS DESCRIBED ABOVE.
000066:
000067:                                                                                                  #      AVGEXIT MUST BE SET BY THE USER TO THE 2CADR OF THE JOB (E.G., STEERING) TO BE PERFORMED AFTER EACH PASS
000068:                                                                                                  #  THROUGH AVERAGE G.  IF NO OTHER JOB IS TO BE DONE, AVEGEXIT SHOULD BE SET TO SERVEXIT.
000069:


000071:                                                                                                  #      USER MUST INITIALIZE DVSELECT TO THE GENADR OF AVERAGE G UNLESS THE ENGINEON ROUTINE HAS BEEN PERFORMED
000072:                                                                                                  #  BEFORE THE START OF SERVICER.
000073:
000074:                                                                                                  #      USERS (EXCEPT FOR BOOST PHASE) MUST PERFORM MTDTOAVE ROUTINE BEFORE STARTING PREREAD.
000075:
000076:                                                                                                  #  CALLING SEQUENCE IS NORMAL WAITLIST CALL FOR PREREAD.  (READACCS WILL START TWO SECONDS LATER.)
000077:
000078:
000079:                                                                                                  #  SUBROUTINES CALLED
000080:
000081:                                                                                                  #  LASTBIAS  PIPASR  FLAG1UP  FLAG2DWN  NORMLIZE  READACCS  SERVICER  1/PIPA  MASSMON  AVERAGE G  CALCRVG
000082:                                                                                                  #  PHASCHNG  AVETOMID  POOH FORGETIT
000083:
000084:
000085:                                                                                                  #  NORMAL EXIT MODES .. AVEGEXIT, DVMNEXIT, TASKOVER, ENDOFJOB.
000086:
000087:                                                                                                  #  ALARM CODE 205 GIVEN IF RUNAWAY PIP.  PROGRAM THEN CONTINUES IN NORMAL SEQUENCE.
000088:                                                                                                  #  ALARM CODE 1405 GIVEN IF ENGINE FAILURE IS DETECTED.  PROGRAM THEN TERMINATES THE MISSION PHASE. (TO FORGETIT)
000089:
000090:
000091:                                                                                                  #      ERASABLE INITIALIZATION REQUIRED
000092:
000093:                                                                                                  #                 MASS .. INITIALIZED IN ERASABLE LOAD
000094:                                                                                                  #                 RAVEGON AND VAVEGON .. INITIALIZED IN ERASABLE LOAD - UPDATED BEFORE EACH CALL FOR PREREAD.
000095:
000096:
000097:                                                                                                  #  OUTPUT
000098:
000099:                                                                                                  #  DELV(6)  RN(6)  VN(6)  GDT/2(6)  CDUTEMP(6)  MASS(2)  DELAREA(2)  PIPTIME(2)  OLDBT1(1)
000100:
000101:
000102:                                                                                                  #  DEBRIS
000103:
000104:                                                                                                  #       CENTRALS ... A, L, Q
000105:
000106:                                                                                                  #       OTHER .... DVCNTR, ITEMP1, ITEMP2, RN1(6), VN1(6), GDT1/2(6), DAREATMP(2), MASSTEMP(2), PIPAGE, TEMX,
000107:
000108:                                                                                                  #                  TEMY, TEMZ, TEMXY, PIPCTR
000109:
000110:
000111:                                                                                                  #     *** THRUST MISSION CONTROL IS RESTART PROTECTED AND USES RESTART GROUP 5. ***
000112:


000114: 30,2000                                           BANK     30
000115: 30,2000  E5,1511                                  EBANK=   DVCNTR
000116:                                                                                                  #  *************************************             **************************************************************
000117:
000118: 30,2000           04161        PREREAD            TC       PHASCHNG
000119: 30,2001           07015                           OCT      07015
000120: 30,2002           77777                           OCT      77777
000121:
000122: 30,2003  E5,1511                                  EBANK=   DVCNTR
000123: 30,2003           02011 60065                     2CADR    BIBIBIAS                              #  SKIP LASTBIAS AFTER RESTART
000124:
000125: 30,2005           35653                           CAF      PRIO32
000126: 30,2006           05505                           TC       NOVAC
000127: 30,2007  E3,1444                                  EBANK=   NBDX
000128: 30,2007           03575 24063                     2CADR    LASTBIAS                              #  DO LAST GYRO COMPENSATION IN FREE FALL
000129:
000130: 30,2011           02574        BIBIBIAS           TC       PIPASR                                #  CLEAR + READ PIPS LAST TIME IN FREE FALL
000131:
000132: 30,2012           06051                           TC       FLAG1UP                               #  SET AVEG FLAG
000133: 30,2013           00001                           OCT      1
000134:
000135: 30,2014           31337                           CA       STARTDVC                              #  * PLEASE DONT MOVE-DVCNTR SHOULD BE


000138: 30,2015           55511                           TS       DVCNTR
000139:
000140: 30,2016           06076                           TC       FLAG2DWN                              #  KNOCK DOWN DRIFT FLAG
000141: 30,2017           40000                           OCT      40000
000142:
000143: 30,2020           37751                           CAF      EBANK4
000144: 30,2021           54003                           TS       EBANK
000145: 30,2022  E4,1640                                  EBANK=   AXIS                                  #  CORCT IS DEAD, LONG LIVE AXIS
000146:
000147: 30,2022           37746                           CAF      BIT14                                 #  INITIALIZE AXIS TO (0.5,0,0)
000148: 30,2023           55640                           TS       AXIS                                  #  FOR FINDCDUD
000149: 30,2024           37767                           CAF      ZERO
000150: 30,2025           55641                           TS       AXIS       +1
000151: 30,2026           55642                           TS       AXIS       +2
000152: 30,2027           55643                           TS       AXIS       +3
000153: 30,2030           55644                           TS       AXIS       +4
000154: 30,2031           55645                           TS       AXIS       +5
000155:
000156: 30,2032           37762                           CAF      TWO                                   #  DIRECT REREADAC TO READACCS IN CASE
000157: 30,2033           55161                           TS       PIPAGE                                #  OF A RESTART
000158:
000159: 30,2034           35644                           CAF      PRIO21                                #  SET UP TO DO NORMLIZE REQUIRED PRIOR
000160: 30,2035           05516                           TC       FINDVAC                               #  TO FIRST ENTRY TO AVERAGE G.
000161: 30,2036  E4,1514                                  EBANK=   RAVEGON
000162: 30,2036           02412 60064                     2CADR    NORMLIZE
000163:


000166: 30,2040           32235                           CAF      200DEC


000168: 30,2041           05663                           TC       WAITLIST
000169: 30,2042  E5,1511                                  EBANK=   DVCNTR
000170: 30,2042           02047 60065                     2CADR    READACCS
000171:


000173: 30,2044           04161                           TC       PHASCHNG
000174: 30,2045           40025                           OCT      40025


000176: 30,2046           15727                           TCF      TASKOVER
000177:


000179:                                                                                                  #  *************************************   READACCS   *************************************************************
000180: 30,2047  E5,1537                                  EBANK=   NEGXDV
000181: 30,2047           41000        READACCS           CS       T5ADR                                 #  TO PREVENT LOST DOWNRUPTS, ADJUST THE
000182: 30,2050           62125                           AD       FILTAD                                #  RELATIVE PHASING BETWEEN READACCS AND
000183: 30,2051           00006                           EXTEND                                         #  DAP FOR MINIMUM INTERFERENCE. THESE
000184: 30,2052           12060                           BZF      WASFILT                               #  TESTS ARE NECESSARY ONLY WHEN THE TRIM
000185:                                                                                                  #  GIMBAL IS BEING USED, BUT IT TAKES TOO
000186: 30,2053           41000                           CS       T5ADR                                 #  LONG TO CHECK FOR THIS SITUATION TO BE
000187: 30,2054           62126                           AD       GTSAD                                 #  WORTH IT.
000188: 30,2055           00006                           EXTEND
000189: 30,2056           12121                           BZF      SLIPONE
000190: 30,2057           12064                           TCF      PIPREAD
000191:
000192: 30,2060           40030        WASFILT            CS       TIME5
000193: 30,2061           67743                           AD       POSMAX
000194: 30,2062           00006                           EXTEND
000195: 30,2063           12121                           BZF      SLIPONE
000196:
000197: 30,2064           02574        PIPREAD            TC       PIPASR
000198:
000199: 30,2065           00006        PIPSDONE           EXTEND                                         #  SUPER HIGH-SPEED PHASE CHANGE TO
000200: 30,2066           32130                           DCA      5.31SET                               #  MINIMIZE THE TIME SPENT IN THE READACCS
000201: 30,2067           53110                           DXCH     -PHASE5                               #  TASK.
000202:
000203: 30,2070           37762        REDO5.31           CAF      TWO                                   #  SHOW PIPS HAVE BEEN READ FOR REREADAC.
000204: 30,2071           55161                           TS       PIPAGE
000205:
000206: 30,2072           40075        CHEKAVEG           CS       FLAGWRD1
000207: 30,2073           77763                           MASK     BIT1
000208: 30,2074           10000                           CCS      A                                     #  IF AVEG FLAG DOWN SET FINAL EXIT AVEG
000209: 30,2075           02116                           TC       AVEGOUT
000210:
000211: 30,2076           32235                           CAF      200DEC                                #  READ PIPS AT 2 SECOND INTERVALS
000212: 30,2077           05663                           TC       WAITLIST
000213: 30,2100  E5,1570                                  EBANK=   BMEMORY
000214: 30,2100           02047 60065                     2CADR    READACCS
000215:
000216: 30,2102           37746        MAKESERV           CAF      PRIO20                                #  ESTABLISH SERVICER ROUTINE
000217: 30,2103           05516                           TC       FINDVAC
000218: 30,2104  E5,1570                                  EBANK=   BMEMORY
000219: 30,2104           02133 60065                     2CADR    SERVICER
000220:
000221: 30,2106           00006                           EXTEND                                         #  HIGH SPEED PHASE CHANGE.
000222: 30,2107           32132                           DCA      5.6SET                                #  5.6 FOR REREADAC TASK & SERVICER JOB.
000223: 30,2110           53110                           DXCH     -PHASE5
000224: 30,2111           40025                           CS       TIME1                                 #  SET TBASE.
000225: 30,2112           55123                           TS       TBASE5
000226:
000227: 30,2113           15727                           TCF      TASKOVER                              #  END PREVIOUS READACCS WAITLIST TASK
000228:


000230: 30,2114  E5,1570                                  EBANK=   BMEMORY
000231: 30,2114           02574 60065  PIP2CADR           2CADR    PIPASR


000233:
000234: 30,2116           32124        AVEGOUT            CA       AVOUTADR
000235: 30,2117           55310                           TS       DVSELECT
000236: 30,2120           12102                           TCF      MAKESERV
000237:
000238: 30,2121           47763        SLIPONE            CS       ONE                                   #  RESCHEDULE DAP EVENT TO OCCUR 10 MS
000239: 30,2122           26030                           ADS      TIME5                                 #  FARTHER INTO THE FUTURE.


000241: 30,2123           12064                           TCF      PIPREAD
000242:


000246: 30,2124           02366        AVOUTADR           GENADR   AVGEND
000247: 30,2125           02015        FILTAD             GENADR   FILTER
000248: 30,2126           02572        GTSAD              GENADR   GTS


000250:
000251: 30,2127           77746 00031  5.31SET            2OCT     7774600031
000252:
000253: 30,2131           77771 00006  5.6SET             2OCT     7777100006
000254:


000256:
000257:                                                                                                  #  DO SAVEM AND RESTOREM LATER IF NORMAL RESTARTS SHOULD EVER RETURN
000258:
000259: 30,2133           37762        SERVICER           CAF      TWO
000260: 30,2134           55512        PIPCHECK           TS       PIPCTR
000261:
000262: 30,2135           60000                           DOUBLE
000263: 30,2136           50000                           INDEX    A


000272: 30,2137           10403                           CCS      DELVX
000273: 30,2140           02142                           TC       +2
000274: 30,2141           02150                           TC       PIPLOOP
000275:
000276: 30,2142           62233                           AD       -MAXDELV                              #  DO PIPA-SATURATION TEST BEFORE
000277: 30,2143           00006                           EXTEND
000278: 30,2144           62150                           BZMF     PIPLOOP                               #  COMPENSATION.
000279:
000280: 30,2145           04755                           TC       ALARM
000281: 30,2146           00205                           OCT      00205                                 #  SATURATED-PIPA ALARM  ***CHANGE LATER
000282: 30,2147           12152                           TCF      +3
000283:
000284: 30,2150           11512        PIPLOOP            CCS      PIPCTR


000286: 30,2151           12134                           TCF      PIPCHECK
000287:
000288: 30,2152           04161                           TC       PHASCHNG                              #  RESTART REREADAC + SERVICER
000289: 30,2153           16035                           OCT      16035
000290: 30,2154           20000                           OCT      20000
000291: 30,2155  E5,1570                                  EBANK=   BMEMORY
000292: 30,2155           02161 60065                     2CADR    GOMASS
000293:
000294: 30,2157           05206                           TC       BANKCALL                              #  PIPA COMPENSATION CALL
000295: 30,2160           25222                           CADR     1/PIPA
000296:
000297: 30,2161           06112        GOMASS             TC       INTPRET
000298: 30,2162           51575                           VLOAD    ABVAL
000299: 30,2163           00404                                    DELV
000300: 30,2164           36535                           STCALL   ABDELV
000301: 30,2165           61206                                    MASSMON
000302: 30,2166           77624                           CALL


000304: 30,2167           61137                                    CALCRVG
000305: 30,2170           77776                           EXIT


000307:
000308: 30,2171           04161                           TC       PHASCHNG
000309: 30,2172           10035                           OCT      10035
000310:
000311: 30,2173           00004        COPYCYCL           INHINT
000312: 30,2174           37760                           CAF      EIGHT
000313: 30,2175           54061                           TS       ITEMP1


000315: 30,2176           60000                           DOUBLE
000316: 30,2177           54062                           TS       ITEMP2
000317: 30,2200           00006                           EXTEND
000318: 30,2201           50062                           INDEX    ITEMP2
000319: 30,2202           31051                           DCA      RN1
000320: 30,2203           50062                           INDEX    ITEMP2
000321: 30,2204           53011                           DXCH     RN
000322: 30,2205           10061                           CCS      ITEMP1
000323: 30,2206           12175                           TCF      COPYCYCL   +2
000324: 30,2207           00006                           EXTEND
000325: 30,2210           31560                           DCA      DAREATMP
000326: 30,2211           53552                           DXCH     DELAREA
000327: 30,2212           00006                           EXTEND
000328: 30,2213           31562                           DCA      MASSTEMP
000329: 30,2214           53321                           DXCH     MASS
000330: 30,2215           00006                           EXTEND
000331: 30,2216           31307                           DCA      PIPTIME
000332: 30,2217           53327                           DXCH     STATIME                               #  STATE VECTOR TIME FOR DOWNLINK.
000333:
000334: 30,2220           37760                           CAF      BIT4                                  #   SIVBGONE BIT
000335: 30,2221           70075                           MASK     FLAGWRD1
000336: 30,2222           00006                           EXTEND
000337: 30,2223           12230                           BZF      CHGPHASE
000338:
000339: 30,2224           35655                           CAF      PRIO34
000340: 30,2225           05505                           TC       NOVAC
000341: 30,2226  E6,1542                                  EBANK=   DT
000342: 30,2226           02713 54066                     2BCADR   1/ACCS
000343:
000344: 30,2230           04161        CHGPHASE           TC       PHASCHNG
000345: 30,2231           10035                           OCT      10035
000346:
000347: 30,2232           01310                           TC       DVSELECT


000349:
000350:
000351: 30,2233  30,2251               AGSMON             EQUALS   AVERAGEG
000352:
000353: 30,2233           63401        -MAXDELV           DEC      -6398      B-14                       #  3200 PULSES/SEC FOR 2 SEC.  CCS TAKES 1.
000354:
000355:                                                                                                  #  **************************************************MAINTAIN THE ORDER OF THE CONSTANTS BETWEEN THE ASTERISKS.
000356: 30,2234           00620        PLUSXDVA           DEC      400        B-14                       #  200 CM/SEC(2)= ASCENT THRESHOLD
000357: 30,2235           00310        200DEC             DEC      200        B-14
000358: 30,2236           00055        PLUSXDVD           DEC      45         B-14                       #  22.5 CM/SEC SQ = DESCENT THRESHHOLD.
000359:                                                                                                  #  **************************************************
000360:
000361: 30,2237           37762        PGNCSMON           CAF      BIT2                                  #  CHECK CHANNEL 30 TO SEE IF STAGING HAS


000364: 30,2240           00006                           EXTEND
000365:


000368: 30,2241           02030                           RAND     30                                    #  AND DESCENT PLUSXDV IS USED -- OTHERWISE
000369: 30,2242           50000                           INDEX    A                                     #  THE ASCENT PLUSXDV IS EMPLOYED.
000370:


000376: 30,2243           42234                           CS       PLUSXDVA
000377: 30,2244           61534                           AD       ABDELV
000378: 30,2245           00006                           EXTEND
000379: 30,2246           62256                           BZMF     THRUSTLO
000380: 30,2247           31341                           CA       SETDVCNT
000381: 30,2250           55511                           TS       DVCNTR


000383:
000384: 30,2251           04161        AVERAGEG           TC       PHASCHNG


000387: 30,2252           10035                           OCT      10035
000388: 30,2253           00006                           EXTEND
000389: 30,2254           31073                           DCA      AVGEXIT
000390: 30,2255           52006                           DXCH     Z                                     #  AVERAGEG EXIT
000391:
000392:


000394: 30,2256           11511        THRUSTLO           CCS      DVCNTR
000395: 30,2257           12323                           TCF      SERVEXIT   -1                         #  NO STEERING IF NO THRUST.
000396: 30,2260           30075        NODV               CA       FLAGWRD1
000397: 30,2261           77757                           MASK     BIT5


000399: 30,2262           10000                           CCS      A
000400: 30,2263           12317                           TCF      ENGNFAIL                              #  YES.  GIVE FAIL ALARM.
000401: 30,2264           04161                           TC       PHASCHNG                              #  NO.  GO OUT THRU DVMNEXIT.
000402: 30,2265           10035                           OCT      10035
000403:


000405: 30,2266           32315                           CAF      AVEGADDR                              #  REMOVE DV MONITOR.
000406: 30,2267           55310                           TS       DVSELECT
000407:
000408: 30,2270           00006        DVEXIT             EXTEND                                         #  BRANCH TO SELECTED LOCATION
000409: 30,2271           31075                           DCA      DVMNEXIT
000410: 30,2272           52006                           DXCH     Z
000411:
000412: 30,2273           41534        BOOSTMON           CS       ABDELV                                #  COMPARE ABDELV TO THRSHLD+ TO DETECT
000413: 30,2274           62316                           AD       THRSHLD+                              #  BOOSTER SHUTDOWN
000414: 30,2275           00006                           EXTEND
000415: 30,2276           62251                           BZMF     AVERAGEG
000416:
000417: 30,2277           00004                           INHINT                                         #  SHUTDOWN HAS OCCURRED
000418: 30,2300           37746                           CAF      PRIO20
000419: 30,2301           05505                           TC       NOVAC                                 #  SET UP MISSION PHASE 6 JOB
000420: 30,2302  E5,1570                                  EBANK=   BMEMORY
000421: 30,2302           02504 56065                     2CADR    MP6JOB                                #  NO VAC AREA NEEDED
000422:
000423: 30,2304           04161                           TC       PHASCHNG


000425: 30,2305           07022                           OCT      07022
000426: 30,2306           20000                           OCT      20000
000427: 30,2307  E5,1570                                  EBANK=   BMEMORY
000428: 30,2307           02504 56065                     2CADR    MP6JOB


000430:


000434: 30,2311           04161                           TC       PHASCHNG
000435: 30,2312           10035                           OCT      10035
000436:


000438: 30,2313           32315        DVMNKILL           CAF      AVEGADDR                              #  REMOVE DV MONITOR FROM SERVICER
000439: 30,2314           55310                           TS       DVSELECT
000440:
000441: 30,2315           02251        AVEGADDR           TC       AVERAGEG
000442:
000443: 30,2316           01724        THRSHLD+           DEC      980        B-14                       #  BOOSTER SHUTDOWN AT 1/2 G OVER 2 SECS
000444:


000447: 30,2317           04755        ENGNFAIL           TC       ALARM
000448: 30,2320           01405                           OCT      1405                                  #  DVALARM.  ENGINE ON BUT NO THRUST.
000449:
000450: 30,2321           05225                           TC       POSTJUMP
000451: 30,2322           16007                           CADR     FORGETIT                              #  SHUTDOWN.


000453: 30,2323           55511                 -1        TS       DVCNTR
000454: 30,2324           04161        SERVEXIT           TC       PHASCHNG
000455: 30,2325           00035                           OCT      00035
000456:
000457: 30,2326           15567                           TCF      ENDOFJOB
000458:


000460:                                                                                                  #  ***** GIMBL MONITOR - USED PRIOR TO PGNCSMON IN DPS BURNS **************
000461:
000462: 30,2327  E5,1534                                  EBANK=   ABDELV
000463: 30,2327           31336        GIMBLMON           CA       SLOSHCTR                              #  FIRST CONDITION FOR USE OF TRIM GIMBAL-
000464: 30,2330           00006                           EXTEND                                         #      THAT SLOSH HAS NOT BUILT UP TO THE
000465: 30,2331           12357                           BZF      GIMBLOFF                              #      POINT THAT THE GIMBAL IS NOT USEFUL
000466: 30,2332           00006                           EXTEND
000467: 30,2333           27336                           DIM      SLOSHCTR
000468:
000469: 30,2334           42365                           CS       GTHRSHLD                              #  SECOND CONDITION FOR USE OF TRIM GIMBAL-
000470: 30,2335           61534                           AD       ABDELV                                #      THAT DPS THRUST HAS ATTAINED A FAIR
000471: 30,2336           00006                           EXTEND                                         #      DEGREE OF STABILITY


000473: 30,2337           62357                           BZMF     GIMBLOFF
000474:
000475: 30,2340           40076                           CS       FLAGWRD2                              #  THIRD CONDITION FOR USE OF TRIM GIMBAL-
000476: 30,2341           77760                           MASK     BIT4                                  #      THAT THROTTLING IS NOT NOW UNDERWAY.
000477: 30,2342           00006                           EXTEND                                         #      THIS FLAG IS SET WHEN THROTTLING IS
000478: 30,2343           12237                           BZF      PGNCSMON                              #      BEGUN AND RESET WHEN IT IS OVER.
000479:
000480: 30,2344           37752                           CA       BIT10                                 #  FOURTH CONDITION FOR USE OF TRIM GIMBAL-
000481: 30,2345           00006                           EXTEND                                         #      THAT GIMBAL HAS NOT FAILED
000482: 30,2346           02032                           RAND     32
000483: 30,2347           00006                           EXTEND


000485: 30,2350           12357                           BZF      GIMBLOFF
000486:
000487: 30,2351           00004        GIMBLON            INHINT                                         #  IF WE GET THIS FAR IT IS OK TO TURN ON
000488: 30,2352           47762                           CS       USEQRJTS                              #  THE GLORIOUS TRIM GIMBAL
000489: 30,2353           70077                           MASK     DAPBOOLS
000490: 30,2354           54077                           TS       DAPBOOLS
000491: 30,2355           00003                           RELINT


000493: 30,2356           12237                           TCF      PGNCSMON
000494:
000495: 30,2357           00004        GIMBLOFF           INHINT                                         #  IT IS NECESSARY FOR SOME REASON TO
000496: 30,2360           40077                           CS       DAPBOOLS                              #  TURN OFF THE TRIM GIMBAL
000497: 30,2361           77762                           MASK     USEQRJTS


000501: 30,2362           26077                           ADS      DAPBOOLS
000502: 30,2363           00003                           RELINT
000503: 30,2364           12237                           TCF      PGNCSMON
000504:
000505: 30,2365           00074        GTHRSHLD           DEC      60         B-14                       #  APPROXIMATELY 60 LBS THRUST
000506:


000513: 30,2366  E5,1506                                  EBANK=   DVTOTAL
000514: 30,2366           31307        AVGEND             CA       PIPTIME    +1                         #  FINAL AVERAGE G EXIT


000517: 30,2367           54765                           TS       OLDBT1                                #  SET UP FREE FALL GYRO COMPENSATION
000518:
000519: 30,2370           06060                           TC       FLAG2UP                               #  SET DRIFT FLAG
000520: 30,2371           40000                           OCT      40000
000521:
000522: 30,2372           00006                           EXTEND
000523: 30,2373           32411                           DCA      AVEMIDAD                              #  TRANSFER STATE VECTOR VIA AVETOMID
000524: 30,2374           52006                           DXCH     Z
000525:
000526: 30,2375           04161                           TC       PHASCHNG
000527: 30,2376           04025                           OCT      04025                                 #  P00H WILL TURN OFF PHASE5
000528:


000530: 30,2377           37756                           CA       BIT6
000531: 30,2400           70075                           MASK     FLAGWRD1                              #  FLAG IS UP BUT RATHER TO ENDOF JOB
000532: 30,2401           00006                           EXTEND
000533: 30,2402           14272                           BZF      P00H
000534: 30,2403           04161                           TC       PHASCHNG                              #  MAKE GROUP 5 INACTIVE
000535: 30,2404           00005                           OCT      5
000536:
000537: 30,2405           06067                           TC       FLAG1DWN                              #  NOT MORE THAN ONE USE OF THIS FLAG.
000538: 30,2406           00040                           OCT      00040
000539:
000540: 30,2407           15567                           TCF      ENDOFJOB
000541:
000542: 30,2410  E4,1630                                  EBANK=   AVMIDRTN
000543: 30,2410           02116 16064  AVEMIDAD           2CADR    AVETOMID
000544:


000546:                                                                                                  #     NORMLIZE PERFORMS THE INITIALIZATION REQUIRED PRIOR TO THE FIRST ENTRY TO AVERAGEG, AND SCALES RN SO THAT IT
000547:                                                                                                  #  HAS 1 LEADING BINARY ZERO. IN MOST MISSIONS, RN WILL BE SCALED AT 2(+29), BUT IN THE 206 MISSION, RN WILL BE
000548:                                                                                                  #  SCALED AT 2(+24)M.  TIME OF RN,VN IS IN STATIME FOR DWNLINK
000549:
000550:
000551: 30,2412  E4,1514                                  EBANK=   RAVEGON
000552: 30,2412           00004        NORMLIZE           INHINT
000553: 30,2413           37764                           CAF      ELEVEN                                #  INITIALIZE INDEX-DEC 11
000554: 30,2414           54070                           TS       RUPTREG1


000557: 30,2415           50070                           INDEX    RUPTREG1
000558: 30,2416           31514                           CA       RAVEGON
000559: 30,2417           50070                           INDEX    RUPTREG1
000560: 30,2420           55010                           TS       RN
000561: 30,2421           10070                           CCS      RUPTREG1
000562: 30,2422           12414                           TCF      NORMLIZE   +2


000564:
000565: 30,2423           00006                           EXTEND


000568: 30,2424           31511                           DCA      TAVEGON
000569: 30,2425           53327                           DXCH     STATIME                               #  S A     IM  F R  DWNLINK
000570: 30,2426           00003                           RELINT
000571: 30,2427           06112                           TC       INTPRET
000572: 30,2430           45175                           VLOAD    CALL


000574: 30,2431           01011                                    RN                                    #  LOAD RN VEC FOR CALCGRAV
000575: 30,2432           61103                                    CALCGRAV                              #  INITIALIZE UNITR RMAG GDT1
000576: 30,2433           01025                           STORE    GDT/2


000579: 30,2434           77776                           EXIT
000580: 30,2435           15567                           TCF      ENDOFJOB
000581:


000583:                                                                                                  #     VPATCHER IS AN ADAPTATION OF NORMLIZE WHICH IS CALLED AFTER MIDTOAVE HAS BEEN PERFORMED AND PRIOR TO
000584:                                                                                                  #  PREBURN PROGRAMS THAT REQUIRE IGNITION STATE POSITION, VELOCITY, AND GRAVITY VECTORS IN REGISTERS RN,VN, AND
000585:                                                                                                  #  GDT/2.  THE REGISTERS ARE RE-INITIALIZED BY NORMLIZE WHEN PREREAD CALLEDRED BY NORMLIZE WHEN PREREAD IS CALLED
000586:
000587:
000588:                                                                                                  #  NAME=               DATE=
000589:                                                                                                  #     VPATCHER            20 OCTOBER 1966
000590:                                                                                                  #  PROGRAMMER          SUBROUTINES CALLED
000591:                                                                                                  #     SCHULENBERG         CALCGRAV
000592:
000593:                                                                                                  #  CALLING SEQUENCE
000594:                                                                                                  #     IF IN BASIC   L-1 TC      INTPRET
000595:                                                                                                  #                   L   CALL    VPATCHER
000596:                                                                                                  #                   L+1 EXIT
000597:                                                                                                  #  NORMAL EXIT
000598:                                                                                                  #     AT L+1 OF CALLING SEQUENCE
000599:                                                                                                  #  DEBRIS
000600:                                                                                                  #     RN, VN, GDT/2, UNITR, RMAG
000601:
000602:                                                                                                  #  OUTPUT
000603:                                                                                                  #     VIGNITION IN VN*2(+7)M/CS
000604:                                                                                                  #     GDT/2 AT IGNITION IN GDT/2*2(+7)M/CS
000605:                                                                                                  #     UNIT RIGNITION IN UNITR *2(+1)M
000606:                                                                                                  #     RMAG AT 2(+24)M
000607:
000608: 30,2436           77420        VPATCHER           STQ      EXIT
000609: 30,2437           01155                                    TEMX
000610: 30,2440           00004                           INHINT
000611: 30,2441           37751                           CAF      EBANK4
000612: 30,2442           56003                           XCH      EBANK
000613: 30,2443           54071                           TS       RUPTREG2
000614: 30,2444           37764                           CAF      ELEVEN                                #  INITIALIZE INDEX TO DEC 11
000615: 30,2445           54070        VPATLOOP           TS       RUPTREG1
000616: 30,2446           50070                           INDEX    RUPTREG1


000618: 30,2447           31400                           CA       RIGNTION
000619: 30,2450           50070                           INDEX    RUPTREG1
000620: 30,2451           55010                           TS       RN                                    #  STORE RN,VN
000621: 30,2452           10070                           CCS      RUPTREG1


000623: 30,2453           12445                           TCF      VPATLOOP
000624: 30,2454           00006                           EXTEND
000625: 30,2455           31777                           DCA      TIGNTION
000626: 30,2456           53327                           DXCH     STATIME                               #  STATE TIME FOR DWNLINK
000627: 30,2457           30071                           CA       RUPTREG2
000628: 30,2460           54003                           TS       EBANK
000629: 30,2461           00003                           RELINT
000630: 30,2462           06112                           TC       INTPRET
000631: 30,2463           45175                           VLOAD    CALL


000635: 30,2464           01011                                    RN                                    #  LOAD RN VEC FOR CALCGRAV
000636: 30,2465           61103                                    CALCGRAV
000637:
000638: 30,2466           35025                           STCALL   GDT/2
000639: 30,2467           01155                                    TEMX
000640:


000642:                                                                                                  #  *********************************   FLAG SUBROUTINES   *********************************************************
000643:
000644:
000645:    6051                                           BLOCK    03
000646:                                                                                                  #     THE FLAG SUBROUTINES ARE USED TO SET OR RESET FLAGS (BITS) IN FLAGWRD1 AND FLAGWRD2. THE BIT(S) TO BE SET OR
000647:                                                                                                  #  RESET IS(ARE) INDICATED BY THE OCTAL NUMBER FOLLOWING THE TC CALL. THE CALLING SEQUENCES ARE -
000648:
000649:                                                                                                  #                                                   TC     FLAG1UP         SET BIT(S) IN FLAGWRD1 CORRESPONDING TO
000650:                                                                                                  #                                                   OCT    XXXXX           THE 1 BITS IN NUMBER XXXXX.
000651:
000652:                                                                                                  #                                                   TC     FLAG1DWN        RESET BIT(S) IN FLAGWRD1 CORRESPONDING
000653:                                                                                                  #                                                   OCT    XXXXX           TO THE 1 BITS IN NUMBER XXXXX.
000654:
000655:                                                                                                  #  THE CALLING SEQUENCES FOR FLAGWRD2 ARE SIMILAR.
000656:
000657:                                                                                                  #     NOTE THAT FLAGWRD1 AND FLAGWRD2 CORRESPOND TO INTERPRETIVE SWITCHES 15D THROUGH 44D.
000658:
000659:                                                                                                  #           FLAGWORD BITS ARE DEFINED IN LOG SECTION "ERASABLE ASSIGNMENTS"
000660:
000661:    6051           00004        FLAG1UP            INHINT                                         #  SET FLAG 1 SUBROUTINE
000662:    6052           40075                           CS       FLAGWRD1
000663:    6053           50002                           INDEX    Q
000664:    6054           70000                           MASK     0
000665:    6055           26075                           ADS      FLAGWRD1
000666:
000667:    6056           00003                           RELINT
000668:    6057           17015                           TCF      Q+1
000669:
000670:    6060           00004        FLAG2UP            INHINT                                         #  SET FLAG 2 SUBROUTINE
000671:    6061           40076                           CS       FLAGWRD2
000672:    6062           50002                           INDEX    Q
000673:    6063           70000                           MASK     0
000674:    6064           26076                           ADS      FLAGWRD2
000675:
000676:    6065           00003                           RELINT
000677:    6066           17015                           TCF      Q+1
000678:
000679:    6067           50002        FLAG1DWN           INDEX    Q                                     #  RESET FLAG 1 SUBROUTINE
000680:    6070           40000                           CS       0
000681:    6071           00004                           INHINT
000682:    6072           70075                           MASK     FLAGWRD1
000683:    6073           54075                           TS       FLAGWRD1
000684:    6074           00003                           RELINT
000685:    6075           17015                           TCF      Q+1
000686:
000687:    6076           50002        FLAG2DWN           INDEX    Q                                     #  RESET FLAG 2 SUBROUTINE
000688:    6077           40000                           CS       0
000689:    6100           00004                           INHINT


000691:    6101           70076                           MASK     FLAGWRD2
000692:    6102           54076                           TS       FLAGWRD2
000693:    6103           00003                           RELINT
000694:    6104           17015                           TCF      Q+1
000695:
000696:    6105           02327        GMBLMNAD           GENADR   GIMBLMON
000697:
000698:    6106           02237        PGNSCADR           GENADR   PGNCSMON
000699:
000700:    6107           00133        BURNDB             DEC      0.00556                               #  1 DEGREE DEADBAND SCALED AT PI RADIANS
000701:    6110           00033        NARROWDB           DEC      0.00167                               #  .3 DEGREE DEADBAND SCALED AT PI RADIANS
000702:    6111           00707        WIDEDB             DEC      0.02778                               #  5 DEGREE DEADBAND SCALED AT PI RADIANS

End of include-file 206_SERVICE_ROUTINES.agc.  Parent file is MAIN.agc


