
Source Code


000002:                                                                                                  ## Copyright:   Public domain.
000003:                                                                                                  ## Filename:    ALARM_AND_ABORT.agc
000004:                                                                                                  ## Purpose:     A module for revision 0 of BURST120 (Sunburst). It
000005:                                                                                                  ##              is part of the source code for the Lunar Module's
000006:                                                                                                  ##              (LM) Apollo Guidance Computer (AGC) for Apollo 5.
000007:                                                                                                  ## Assembler:   yaYUL
000008:                                                                                                  ## Contact:     Ron Burkey <info@sandroid.org>.
000009:                                                                                                  ## Website:     www.ibiblio.org/apollo/index.html
000010:                                                                                                  ## Mod history: 2016-09-30 RSB  Created draft version.
000011:                                                                                                  ##              2016-10-14 RSB  Transcribed.
000012:                                                                                                  ##              2016-10-31 RSB  Typos.
000013:                                                                                                  ##              2016-12-05 RSB  Comment-proofing pass with octopus/ProoferComments completed;
000014:                                                                                                  ##                              changes made.
000015:


000017:                                                                                                  #  PROGRAM DESCRIPTION                                     DATE- 9 FEB 1967
000018:                                                                                                  #  PROGRAM WRITTEN BY M.HAMILTON                LOG SECTION-ALARM AND ABORT
000019:                                                                                                  #  MOD BY- R.MELANSON TO ADD DOCUMENTATION      ASSEMBLY SUNBURST REV 107
000020:
000021:                                                                                                  #  FUNCTIONAL DESCRIPTION-
000022:                                                                                                  #    TO ILLUMINATE THE PROGRAM ALARM LAMP AND DISPLAY OCTAL ALARM OR ABORT
000023:                                                                                                  #    CODES VIA VERB 15 NOUN 50. OCTAL CODES SUPPLIED BY CALLING ROUTINE.
000024:
000025:                                                                                                  #  CALLING SEQUENCE-
000026:                                                                                                  #    L   TC    ALARM OR ABORT      (IN TASK OR JOB)
000027:                                                                                                  #    L+1 OCT   (OCTAL CODE IDENTIFYING CAUSE OF ALARM OR ABORT)
000028:
000029:                                                                                                  #  NORMAL EXIT MODE-
000030:                                                                                                  #    TO L+2 OF CALLING SEQUENCE IF ALARM
000031:                                                                                                  #    (TC TRAP) TO RESTART IF ABORT
000032:
000033:                                                                                                  #  ALARM OR ABORT EXIT MODE- NONE
000034:
000035:                                                                                                  #  OUTPUT-
000036:                                                                                                  #    ALARM OR ABORT OCTAL CODE IN ONE OF FAILREG REGISTERS FOR DISPLAY.
000037:
000038:                                                                                                  #  ERASABLE INITIALIZATION-
000039:                                                                                                  #    FAILREG THRU FAILREG +2 ZEROED BY FRESH START.
000040:
000041:                                                                                                  #  DEBRIS-
000042:                                                                                                  #    Q,A,L,ALMCADR,ALMCADR +1,RUPTREG4
000043:
000044:    4736                                           BLOCK    2
000045:
000046:    4736           00004        CCSHOLE            INHINT
000047:    4737           30002                           CA       Q
000048:    4740           55363                           TS       ALMCADR
000049:
000050:    4741           06003                           TC       ABORT2
000051:    4742           01103                           OCT      1103
000052:
000053:    4743           00004        CURTAINS           INHINT                                         #  SAVE 2CADR OF USER FOR CURTAINS DISPLAY
000054:    4744           30002                           CA       Q
000055:    4745           55363                           TS       ALMCADR
000056:
000057:    4746           04760                           TC       ALARM2
000058:    4747           00310                           OCT      00310
000059:
000060:    4750           00004        JETENTRY           INHINT
000061:    4751           34754                           CAF      CURTBB
000062:    4752           56006                           XCH      BBANK
000063:    4753           12007                           TCF      FORGETIT
000064:
000065:    4754  E3,1400                                  EBANK=   LST1
000066:    4754           16063        CURTBB             BBCON    FORGETIT
000067: 07,2103                                           BANK     07


000069: 07,2103           04632        LARMLARM           TC       GRABDSP
000070: 07,2104           15567                           TCF      ENDOFJOB
000071: 07,2105           12107                           TCF      DOALARM    +1
000072:
000073: 07,2106           04644        DOALARM            TC       GRABWAIT                              #  DISPLAY FAILREG.
000074: 07,2107           32112                           CAF      FAILDISP
000075: 07,2110           04657                           TC       NVSBWAIT
000076:
000077: 07,2111           05566                           TC       EJFREE                                #  FREE DISPLAY AND END JOB.
000078:
000079: 07,2112           01550        FAILDISP           OCT      01550                                 #  MONITOR DISPLAYS 3 FAILREG REGS
000080:
000081: 07,2113           04755        JETABORT           TC       ALARM
000082: 07,2114           00312                           OCT      00312
000083:
000084: 07,2115           14750                           TCF      JETENTRY
000085:
000086:                                                                                                  #  ALARM IS CALLED EITHER IN INTERRUPT OR UNDER EXECUTIVE CONTROL
000087:
000088:                                                                                                  #  CALLING SEQUENCE,
000089:
000090:                                                                                                  #                TC      ALARM
000091:                                                                                                  #                OCT     AAANN           ALARM NO. NN IN GENERAL AREA AAA.
000092:
000093:                                                                                                  #                                        (RETURNS HERE)
000094:
000095:
000096:    4755                                           BLOCK    02
000097:    4755           00004        ALARM              INHINT
000098:
000099:    4756           30002                           CA       Q
000100:    4757           55363                           TS       ALMCADR
000101:
000102:    4760           50002        ALARM2             INDEX    Q
000103:    4761           30000                           CA       0
000104:    4762           54001        BORTENT            TS       L                                     #  STORE RETURN -1 IN L
000105:
000106:    4763           30006                           CA       BBANK
000107:    4764           55364                           TS       ALMCADR    +1
000108:
000109:    4765           30002                           CA       Q
000110:    4766           54073                           TS       RUPTREG4
000111:
000112:    4767           11360        CHKFAIL1           CCS      FAILREG                               #  IS ANYTHING IN FAILREG
000113:    4770           14773                           TCF      CHKFAIL2                              #  YES TRY NEXT REG
000114:    4771           23360                           LXCH     FAILREG
000115:    4772           15005                           TCF      PROGLARM                              #  TURN ALARM LIGHT ON FOR FIRST ALARM
000116:
000117:    4773           11361        CHKFAIL2           CCS      FAILREG    +1


000119:    4774           14777                           TCF      FAIL3
000120:    4775           23361                           LXCH     FAILREG    +1
000121:    4776           15010                           TCF      ARMDSPON                              #  LIGHT ALREADY ON
000122:
000123:    4777           31362        FAIL3              CA       FAILREG    +2
000124:    5000           77743                           MASK     POSMAX
000125:    5001           10000                           CCS      A
000126:    5002           15020                           TCF      MULTFAIL
000127:    5003           23362                           LXCH     FAILREG    +2
000128:    5004           15010                           TCF      ARMDSPON                              #  LAST DISPLAY TURN ON UNTIL ERR RESET
000129:
000130:    5005           40326        PROGLARM           CS       DSPTAB     +11D
000131:    5006           76006                           MASK     OCT40400
000132:    5007           26326                           ADS      DSPTAB     +11D
000133:
000134:    5010           35660        ARMDSPON           CAF      PRIO37
000135:    5011           05505                           TC       NOVAC
000136:    5012     1360                                  EBANK=   FAILREG
000137:    5012           02103 16062                     2CADR    LARMLARM
000138:
000139:    5014           56073        MULTEXIT           XCH      RUPTREG4
000140:    5015           00003                           RELINT
000141:    5016           50000                           INDEX    A
000142:    5017           00001                           TC       1
000143:
000144:    5020           30001        MULTFAIL           CA       L
000145:    5021           67745                           AD       BIT15
000146:    5022           57362                           XCH      FAILREG    +2
000147:    5023           77743                           MASK     POSMAX
000148:    5024           55361                           TS       FAILREG    +1
000149:
000150:    5025           15014                           TCF      MULTEXIT
000151:
000152:    6000                                           BLOCK    03
000153:    6000           00004        ABORT              INHINT
000154:    6001           30002                           CA       Q
000155:    6002           55363                           TS       ALMCADR
000156:
000157:    6003           50002        ABORT2             INDEX    Q
000158:    6004           30000                           CAF      0
000159:    6005           04762                           TC       BORTENT
000160:    6006           40400        OCT40400           OCT      40400
000161:    6007           47750                           CS       BIT12                                 #  PUT RESTARTABILITY FLAG DOWN & GENERATE
000162:    6010           70075                           MASK     FLAGWRD1                              #  A RESTART TO YIELD A FAKESTRT.
000163:    6011           54075                           TS       FLAGWRD1
000164:    6012           16012        WHIMPER            TCF      WHIMPER
000165:

End of include-file ALARM_AND_ABORT.agc.  Parent file is MAIN.agc


