
Source Code


000002:                                                                                                  ## Copyright:   Public domain.
000003:                                                                                                  ## Filename:    ALARM_AND_ABORT.agc
000004:                                                                                                  ## Purpose:     A module for revision 0 of BURST120 (Sunburst). It
000005:                                                                                                  ##              is part of the source code for the Lunar Module's
000006:                                                                                                  ##              (LM) Apollo Guidance Computer (AGC) for Apollo 5.
000007:                                                                                                  ## Assembler:   yaYUL
000008:                                                                                                  ## Contact:     Ron Burkey <info@sandroid.org>.
000009:                                                                                                  ## Website:     www.ibiblio.org/apollo/index.html
000010:                                                                                                  ## Mod history: 2016-09-30 RSB  Created draft version.
000011:                                                                                                  ##              2016-10-14 RSB  Transcribed.
000012:                                                                                                  ##              2016-10-31 RSB  Typos.
000013:


000015:                                                                                                  #  PROGRAM DESCRIPTION                                     DATE- 9 FEB 1967
000016:                                                                                                  #  PROGRAM WRITTEN BY M.HAMILTON                LOG SECTION-ALARM AND ABORT
000017:                                                                                                  #  MOD BY- R.MELANSON TO ADD DOCUMENTATION      ASSEMBLY SUNBURST REV 107
000018:
000019:                                                                                                  #  FUNCTIONAL DESCRIPTION-
000020:                                                                                                  #    TO ILLUMINATE THE PROGRAM ALARM LAMP AND DISPLAY OCTAL ALARM OR ABORT
000021:                                                                                                  #    CODES VIA VERB 15 NOUN 50. OCTAL CODES SUPPLIED BY CALLING ROUTINE.
000022:
000023:                                                                                                  #  CALLING SEQUENCE-
000024:                                                                                                  #    L   TC    ALARM OR ABORT      (IN TASK OR JOB)
000025:                                                                                                  #    L+1 OCT   (OCTAL CODE IDENTIFYING CAUSE OF ALARM OR ABORT)
000026:
000027:                                                                                                  #  NORMAL EXIT MODE-
000028:                                                                                                  #    TO L+2 OF CALLING SEQUENCE IF ALARM
000029:                                                                                                  #    (TC TRAP) TO RESTART IF ABORT
000030:
000031:                                                                                                  #  ALARM OR ABORT EXIT MODE- NONE
000032:
000033:                                                                                                  #  OUTPUT-
000034:                                                                                                  #    ALARM OR ABORT OCTAL CODE IN ONE OF FAILREG REGISTERS FOR DISPLAY.
000035:
000036:                                                                                                  #  ERASABLE INITIALIZATION-
000037:                                                                                                  #    FAILREG THRU FAILREG +2 ZEROED BY FRESH START.
000038:
000039:                                                                                                  #  DEBRIS-
000040:                                                                                                  #    Q,A,L,ALMCADR,ALMCADR +1,RUPTREG4
000041:
000042:    4736                                           BLOCK    2
000043:
000044:    4736           00004        CCSHOLE            INHINT
000045:    4737           30002                           CA       Q
000046:    4740           55363                           TS       ALMCADR
000047:
000048:    4741           06003                           TC       ABORT2
000049:    4742           01103                           OCT      1103
000050:
000051:    4743           00004        CURTAINS           INHINT                                         #  SAVE 2CADR OF USER FOR CURTAINS DISPLAY
000052:    4744           30002                           CA       Q
000053:    4745           55363                           TS       ALMCADR
000054:
000055:    4746           04760                           TC       ALARM2
000056:    4747           00310                           OCT      00310
000057:
000058:    4750           00004        JETENTRY           INHINT
000059:    4751           34754                           CAF      CURTBB
000060:    4752           56006                           XCH      BBANK
000061:    4753           12007                           TCF      FORGETIT
000062:
000063:    4754  E3,1400                                  EBANK=   LST1
000064:    4754           16063        CURTBB             BBCON    FORGETIT
000065: 07,2103                                           BANK     07


000067: 07,2103           04632        LARMLARM           TC       GRABDSP
000068: 07,2104           15567                           TCF      ENDOFJOB
000069: 07,2105           12107                           TCF      DOALARM    +1
000070:
000071: 07,2106           04644        DOALARM            TC       GRABWAIT                              #  DISPLAY FAILREG
000072: 07,2107           32112                           CAF      FAILDISP
000073: 07,2110           04657                           TC       NVSBWAIT
000074:
000075: 07,2111           05566                           TC       EJFREE                                #  FREE DISPLAY AND END JOB.
000076:
000077: 07,2112           01550        FAILDISP           OCT      01550                                 #  MONITOR DISPLAYS 3 FAILREG REGS
000078:
000079: 07,2113           04755        JETABORT           TC       ALARM
000080: 07,2114           00312                           OCT      00312
000081:
000082: 07,2115           14750                           TCF      JETENTRY
000083:
000084:                                                                                                  #  ALARM IS CALLED EITHER IN INTERRUPT OR UNDER EXECUTIVE CONTROL
000085:
000086:                                                                                                  #  CALLING SEQUENCE,
000087:
000088:                                                                                                  #                TC      ALARM
000089:                                                                                                  #                OCT     AAANN           # ALARM NO. NN IN GENERAL AREA AAA.
000090:
000091:                                                                                                  #                                        # (RETURNS HERE)
000092:
000093:
000094:    4755                                           BLOCK    02
000095:    4755           00004        ALARM              INHINT
000096:
000097:    4756           30002                           CA       Q
000098:    4757           55363                           TS       ALMCADR
000099:
000100:    4760           50002        ALARM2             INDEX    Q
000101:    4761           30000                           CA       0
000102:    4762           54001        BORTENT            TS       L                                     #  STORE RETURN -1 IN L
000103:
000104:    4763           30006                           CA       BBANK
000105:    4764           55364                           TS       ALMCADR    +1
000106:
000107:    4765           30002                           CA       Q
000108:    4766           54073                           TS       RUPTREG4
000109:
000110:    4767           11360        CHKFAIL1           CCS      FAILREG                               #  IS ANYTHING IN FAILREG
000111:    4770           14773                           TCF      CHKFAIL2                              #  YES TRY NEXT REG
000112:    4771           23360                           LXCH     FAILREG
000113:    4772           15005                           TCF      PROGLARM                              #  TURN ALARM LIGHT ON FOR FIRST ALARM
000114:
000115:    4773           11361        CHKFAIL2           CCS      FAILREG    +1


000117:    4774           14777                           TCF      FAIL3
000118:    4775           23361                           LXCH     FAILREG    +1
000119:    4776           15010                           TCF      ARMDSPON                              #  LIGHT ALREADY ON
000120:
000121:    4777           31362        FAIL3              CA       FAILREG    +2
000122:    5000           77743                           MASK     POSMAX
000123:    5001           10000                           CCS      A
000124:    5002           15020                           TCF      MULTFAIL
000125:    5003           23362                           LXCH     FAILREG    +2
000126:    5004           15010                           TCF      ARMDSPON                              #  LAST DISPLAY TURN ON UNTIL ERR RESET
000127:
000128:    5005           40326        PROGLARM           CS       DSPTAB     +11D
000129:    5006           76006                           MASK     OCT40400
000130:    5007           26326                           ADS      DSPTAB     +11D
000131:
000132:    5010           35660        ARMDSPON           CAF      PRIO37
000133:    5011           05505                           TC       NOVAC
000134:    5012     1360                                  EBANK=   FAILREG
000135:    5012           02103 16062                     2CADR    LARMLARM
000136:
000137:    5014           56073        MULTEXIT           XCH      RUPTREG4
000138:    5015           00003                           RELINT
000139:    5016           50000                           INDEX    A
000140:    5017           00001                           TC       1
000141:
000142:    5020           30001        MULTFAIL           CA       L
000143:    5021           67745                           AD       BIT15
000144:    5022           57362                           XCH      FAILREG    +2
000145:    5023           77743                           MASK     POSMAX
000146:    5024           55361                           TS       FAILREG    +1
000147:
000148:    5025           15014                           TCF      MULTEXIT
000149:
000150:    6000                                           BLOCK    03
000151:    6000           00004        ABORT              INHINT
000152:    6001           30002                           CA       Q
000153:    6002           55363                           TS       ALMCADR
000154:
000155:    6003           50002        ABORT2             INDEX    Q
000156:    6004           30000                           CAF      0
000157:    6005           04762                           TC       BORTENT
000158:    6006           40400        OCT40400           OCT      40400
000159:    6007           47750                           CS       BIT12                                 #  PUT RESTARTABILITY FLAG DOWN & GENERATE
000160:    6010           70075                           MASK     FLAGWRD1                              #  A RESTART TO YIELD A FAKESTRT.
000161:    6011           54075                           TS       FLAGWRD1
000162:    6012           16012        WHIMPER            TCF      WHIMPER
000163:

End of include-file ALARM_AND_ABORT.agc.  Parent file is MAIN.agc


