
Source Code


000002:                                                                                                  ## Copyright:   Public domain.
000003:                                                                                                  ## Filename:    AOSTASK_AND_AOSJOB.agc
000004:                                                                                                  ## Purpose:     A module for revision 0 of BURST120 (Sunburst). It
000005:                                                                                                  ##              is part of the source code for the Lunar Module's
000006:                                                                                                  ##              (LM) Apollo Guidance Computer (AGC) for Apollo 5.
000007:                                                                                                  ## Assembler:   yaYUL
000008:                                                                                                  ## Contact:     Ron Burkey <info@sandroid.org>.
000009:                                                                                                  ## Website:     www.ibiblio.org/apollo/index.html
000010:                                                                                                  ## Mod history: 2016-09-30 RSB  Created draft version.
000011:                                                                                                  ##              2016-10-19 MAS  Transcribed.
000012:                                                                                                  ##              2016-10-30 RSB  Typos.
000013:                                                                                                  ##              2016-12-06 RSB  Comment-proofing with octopus/ProoferComments,
000014:                                                                                                  ##                              changes made.
000015:                                                                                                  ##              2017-06-09 RSB  Made corrections identified while transcribing
000016:                                                                                                  ##                              SUNBURST 37.
000017:


000019:                                                                                                  #  PROGRAM NAME: AOSTASK           MOD. NO. 1  DATE: NOVEMBER 20, 1966
000020:
000021:                                                                                                  #  AUTHOR: JONATHAN D. ADDELSTON (ADAMS ASSOCIATES)
000022:
000023:                                                                                                  #  THIS "WAITLIST TASK" IS EXECUTED EVERY 2 SECONDS DURING ASCENT (APS) BURNS.  IT ESTIMATES THE ACCELERATION DUE
000024:                                                                                                  #  TO THE ENGINE OFF-SET.  TO USE THESE ESTIMATES, IT ALSO CALCULATES TERMS TO ADD INTO THE LM DAP RATE DERIVATION
000025:                                                                                                  #  AND WEIGHTING FACTORS FOR THE ESTIMATE OF AOS AND FOR THE RATE DERIVATION.  FINALLY, IT ALSO SETS UP "AOSJOB"
000026:                                                                                                  #  THROUGH THE EXECUTIVE TO CALCULATE FUMCTIONS OF THE AOS.
000027:
000028:                                                                                                  #  CALLING SEQUENCE:
000029:
000030:                                                                                                  #                                          L -1     CAF    2SECSDAP
000031:                                                                                                  #                                          L        TC     WAITLIST
000032:                                                                                                  #                                                   EBANK= AOSQ
000033:                                                                                                  #                                          L +1, +2 2CADR  AOSTASK
000034:                                                                                                  #                                          L +3    (RETURN)
000035:
000036:                                                                                                  #  NORMAL EXIT MODE: "TASKOVER"    ALARM/ABORT MODE: NONE.
000037:
000038:                                                                                                  #  INPUT  APSGOING/DAPBOOLS
000039:                                                                                                  #         AOSQ,AOSR
000040:                                                                                                  #         COEFCTR
000041:                                                                                                  #         OLDWFORQ,OLDWFORR
000042:                                                                                                  #         SUMRATEQ,SUMRATER
000043:                                                                                                  #         OMEGAQ,OMEGAR
000044:


000050:                                                                                                  #  OUTPUT AOSQ,AOSR,AOSU,AOSV
000051:                                                                                                  #         AOSQTERM,AOSRTERM
000052:                                                                                                  #         SUMRATEQ,SUMRATER
000053:                                                                                                  #         KCOEFCTR
000054:
000055:                                                                                                  #  DEBRIS: A,L,ITEMP1,ITEMP2.
000056:
000057:                                                                                                  #  THE FOLLOWING LM DAP ERASABLES ARE ZEROED IN THE STARTDAP SECTION OF THE DAPIDLER PROGRAM AND THE COASTASC
000058:                                                                                                  #  SECTION OF THE AOSTASK.  THE ORDER MUST BE PRESERVED FOR THE INDEXING METHODS WHICH ARE EMPLOYED IN THOSE
000059:                                                                                                  #  SECTIONS AND ELSEWHERE.
000060:
000061:                                                                                                  #                                          AOSQ     ERASE   +3             ASCENT OFFSET ACCELERATION ESTIMATES:
000062:                                                                                                  #                                          AOSR     EQUALS AOSQ +1         ESTIMATED EVERY 2 SECONDS BY AOSTASK.
000063:                                                                                                  #                                          AOSU     EQUALS AOSQ +2         U,V-AXES ACCS FORMED BY VECTOR ADDITION.
000064:                                                                                                  #                                          AOSV     EQUALS AOSQ +3         SCALED AT PI/2 RADIANS/SECOND(2).
000065:
000066:                                                                                                  #                                          AOSQTERM ERASE   +1             (.1-.05K)AOS
000067:                                                                                                  #                                          AOSRTERM EQUALS AOSQTERM +1     SCALED AT PI/4 RADIANS/SECOND.
000068:
000069:                                                                                                  #                                          NJ+Q     ERASE   +7             2 JET OVER-RIDE FLAGS:
000070:                                                                                                  #                                          NJ-Q     EQUALS NJ+Q +1         WHENEVER THE OFFSET ACCELERATION ABOUT
000071:                                                                                                  #                                          NJ+R     EQUALS NJ+Q +2         AN AXIS IS SO HIGH THAT 2 JETS COULD NOT
000072:                                                                                                  #                                          NJ-R     EQUALS NJ+Q +3         CONTROL ATTITUDE SUCCESSFULLY, THEN NJ
000073:                                                                                                  #                                          NJ+U     EQUALS NJ+Q +4         FOR THAT AXIS (IN THE DIRECTION OPPOSING


000075:                                                                                                  #                                          NJ-U     EQUALS NJ+Q +5         AOS) IS SET TO 1.  OTHERWISE, THE VALUE
000076:                                                                                                  #                                          NJ+V     EQUALS NJ+Q +6         IS ZERO.  THESE FLAGS PREVENT TWO JETS
000077:                                                                                                  #                                          NJ-V     EQUALS NJ+Q +7         FROM BEING REQUESTED TO FIGHT THE AOS.
000078:


000080:
000081:                                                                                                  #  AOSTASK IS EXECUTED ONLY DURING POWERED ASCENT.  IF NO LONGER IN POWERED ASCENT, STOP THE CYCLING OF AOSTASK AND
000082:                                                                                                  #  SET UP VARIABLES FOR COASTING ASCENT.
000083:
000084: 20,3245                                           BANK     20
000085: 20,3245  E6,1660                                  EBANK=   AOSQ
000086:
000087:                                                                                                  #  KEEP TRACK OF LENGTH OF BURN FOR DETERMINATION OF WEIGHTING FACTOR K:
000088:
000089: 20,3245           31650        AOSTASK            CAE      KCOEFCTR                              #  TEST KCOEFCTR FOR INITIAL PASS
000090: 20,3246           00006                           EXTEND
000091: 20,3247           13376                           BZF      ZEROCOEF                              #  GO TO DISCONTINUITY SECTION FOR COEFFA.
000092:
000093: 20,3250           63427                           AD       DEC-399                               #  TEST KCOEFCTR FOR CONSTANT RANGE WHICH
000094: 20,3251           00006                           EXTEND                                         #  OCCURS WHEN DURATION OF BURN IS EQUAL TO
000095: 20,3252           63254                           BZMF     +2                                    #  OR GREATER THAN 400 SECONDS.  (SINCE
000096: 20,3253           13402                           TCF      KONENOW                               #  KCOEFCTR IS EVEN, 399 IS THE BREAK PT.)
000097:
000098:                                                                                                  #  FORM WEIGHTING FACTOR FOR ASCENT OFFSET ACCELERATION FILTER:  COEFFA = 0.00125(T) + 0.25
000099:
000100: 20,3254           33416                           CAF      0.00125                               #  COEFFA = 0.00125(T) + 0.25
000101: 20,3255           00006                           EXTEND
000102: 20,3256           71650                           MP       KCOEFCTR                              #  KCOEFCTR = T SCALED AT 2(+14)
000103: 20,3257           37747                           CAF      BIT13                                 #  (BIT13 = 1/4 = 0.25 SCALED AT 1.)
000104: 20,3260           60001                           AD       L
000105: 20,3261           54062        COEFFAST           TS       COEFFA                                #  (VOLATILE STORAGE.)
000106:
000107:                                                                                                  #  FORM WEIGHTING FACTOR FOR RATE DERIVATION: K = 0.0014(T) + 0.44
000108:
000109: 20,3262           33417                           CAF      0.0014                                #  K = 0.0014(T) + 0.44
000110: 20,3263           00006                           EXTEND
000111: 20,3264           71650                           MP       KCOEFCTR                              #  KCOEFCTR = T SCALED AT 2(+14)
000112: 20,3265           33424                           CAF      0.44
000113: 20,3266           60001                           AD       L
000114: 20,3267           54061                           TS       K                                     #  (VOLATILE STORAGE.)
000115: 20,3270           40000                           COM
000116: 20,3271           67743                           AD       POSMAX                                #  (1 BIT ERROR DOES DOES NOT COMPOUND.)
000117: 20,3272           55642                           TS       (1-K)                                 #  (1-K) SCALED AT 1.
000118:
000119: 20,3273           00006                           EXTEND
000120: 20,3274           77750                           MP       BIT12
000121: 20,3275           55643                           TS       (1-K)/8                               #  (1-K)/8 IS (1-K) SCALED AT 8.
000122:
000123: 20,3276           30061                           CAE      K                                     #  WFORP = WFORQR = K/DT = K/.1 = 10K
000124: 20,3277           00006                           EXTEND                                         #  SCALED AT 16/SECOND.
000125: 20,3300           73425                           MP       0.625                                 #  (CHANGES SCALE FACTOR FROM 1 TO 16/SEC.)
000126: 20,3301           55640                           TS       WFORP                                 #  WFORP IS IDENTICAL WFORQR EXCEPT FOR THE
000127: 20,3302           55641                           TS       WFORQR                                #  INITIALIZATION IN STARTDAP OF DAPIDLER.
000128:
000129: 20,3303           40061                           CS       K                                     #  FORM (.1-.05K) FROM K SCALED AT 1 FOR
000130: 20,3304           00006                           EXTEND                                         #  THE TORQUE VECTOR RECONSTRUCTION AND


000132: 20,3305           73421                           MP       0.05                                  #  ALSO FORM (.1-.05K) SCALED AT 1/2 FOR
000133: 20,3306           63422                           AD       0.1                                   #  THE OFFSET ACCELERATION TERM IN THE RATE
000134: 20,3307           60000                           DOUBLE                                         #  EBANK6 FOR USE IN T5RUPT WHILE THE
000135: 20,3310           54061                           TS       .1-.05K                               #  LATTER IS VOLATILE AND USED IN THIS TASK
000136:
000137:                                                                                                  #  BEGIN ESTIMATE OF OFFSET ACCELERATION FOR Q,R-AXES:
000138:
000139: 20,3311           30062        COEFFA1            CAE      COEFFA                                #  FORM COEFFA(AOSQ):
000140: 20,3312           00006                           EXTEND
000141: 20,3313           71660                           MP       AOSQ                                  #  FIRST TERM OF NEW AOSQ ESTIMATE:
000142: 20,3314           55660                           TS       AOSQ                                  #  SCALED AT PI/2 RADIANS/SECOND(2).
000143:
000144: 20,3315           30062                           CAE      COEFFA                                #  FORM COEFFA(AOSR):
000145: 20,3316           00006                           EXTEND
000146: 20,3317           71661                           MP       AOSR                                  #  FIRST TERM OF NEW AOSR ESTIMATE:
000147: 20,3320           55661                           TS       AOSR                                  #  SCALED AT PI/2 RADIANS/SECOMD(2).
000148:
000149: 20,3321           40062                           CS       COEFFA                                #  FORM .5(1-COEFFA) SCALED AT 2 FROM THE
000150: 20,3322           00006                           EXTEND                                         #  COEFFA SCALED AT 1.  COEFFA IS NOW THE
000151: 20,3323           77747                           MP       BIT13                                 #  SAME AS 2(COEFFA) SCALED AT 2, SO MUST
000152: 20,3324           67747                           AD       BIT13                                 #  MULTIPLY BY 1/4 TO GET .5(COEFFA). THEN,
000153: 20,3325           54062                           TS       .5-.5COF                              #  ADD 1/4 AS 1/2 SCALED AT 2 FOR RESULT.
000154:
000155:                                                                                                  #  FINISH OFFSET ACCELERATION ESTIMATES:
000156:
000157:                                                                                                  #  AOS  = COEFFA (AOS   ) + .5(1-COEFFA )(OMEGA -OMEGA   -SUMRATE )
000158:                                                                                                  #     T        T     T-2               T       T      T-2        T
000159:
000160: 20,3326           41416                           CS       OMEGAQ                                #  SAVE PRESENT -OMEGAQ FOR NEXT PASS AND
000161: 20,3327           57626                           XCH      OLDWFORQ                              #  PICK UP -(LAST OMEGAQ) FROM OLDWFORQ.
000162: 20,3330           00006                           EXTEND
000163: 20,3331           61624                           SU       SUMRATEQ                              #  FORM: W - OLDW - SUMRATE = SUM (Q-AXIS).
000164: 20,3332           61416                           AD       OMEGAQ                                #  SCALED AT PI/4 RADIANS/SECOND.
000165: 20,3333           00006                           EXTEND
000166: 20,3334           70062                           MP       .5-.5COF                              #  AOSQ = COEFFA(AOSQ)+.5(1-COEFFA)(SUMQ)
000167: 20,3335           27660                           ADS      AOSQ                                  #  SCALED AT PI/2 RADIANS/SECOND(2).
000168:
000169: 20,3336           41420                           CS       OMEGAR                                #  SAVE PRESENT -OMEGAQ FOR NEXT PASS AND
000170: 20,3337           57627                           XCH      OLDWFORR                              #  PICK UP -(LAST OMEGAR) FROM OLDWFORR.
000171: 20,3340           00006                           EXTEND
000172: 20,3341           61625                           SU       SUMRATER                              #  FORM: W - OLDW - SUMRATE = SUM (R-AXIS).
000173: 20,3342           61420                           AD       OMEGAR                                #  SCALED AT PI/4 RADIANS/SECOND.
000174: 20,3343           00006                           EXTEND
000175: 20,3344           70062                           MP       .5-.5COF                              #  AOSR = COEFFA(AOSR)+.5(1-COEFFA)(SUMR)
000176: 20,3345           27661                           ADS      AOSR                                  #  SCALED AT PI/2 RADIANS/SECOND(2).
000177:
000178:                                                                                                  #  CALCULATE THE OFFSET ACCELERATIONS FOR THE U,V-AXES:
000179:
000180: 20,3346           31660                           CAE      AOSQ                                  #  FIRST, CALCULATE AOSU:
000181: 20,3347           61661                           AD       AOSR


000183: 20,3350           00006                           EXTEND
000184: 20,3351           73426                           MP       0.70711
000185: 20,3352           55662                           TS       AOSU                                  #  SCALED AT PI/2 RADIANS/SECOND(2).
000186:
000187: 20,3353           41660                           CS       AOSQ                                  #  THEN, CALCULATE AOSV:
000188: 20,3354           61661                           AD       AOSR
000189: 20,3355           00006                           EXTEND
000190: 20,3356           73426                           MP       0.70711
000191: 20,3357           55663                           TS       AOSV                                  #  SCALED AT PI/2 RADIANS/SECOND(2).
000192:
000193:                                                                                                  #  FORM TERMS FOR RATE DERIVATION:
000194:
000195: 20,3360           30061                           CAE      .1-.05K                               #  FORM Q-AXIS RATE DERIVATION TERM:
000196: 20,3361           00006                           EXTEND
000197: 20,3362           71660                           MP       AOSQ                                  #  AOSQTERM = (.1-.05K)AOSQ
000198: 20,3363           55664                           TS       AOSQTERM                              #  SCALED AT PI/4 RADIANS/SECOND.
000199:
000200: 20,3364           30061                           CAE      .1-.05K                               #  FORM R-AXIS RATE DERIVATION TERM:
000201: 20,3365           00006                           EXTEND
000202: 20,3366           71661                           MP       AOSR                                  #  AOSRTERM = (.1-.05K)AOSR
000203: 20,3367           55665                           TS       AOSRTERM                              #  SCALED AT PI/4 RADIANS/SECOND.
000204:
000205:                                                                                                  #  SET ERASABLES FOR NEXT 2 SECOND INTERVAL:
000206:
000207: 20,3370           37762                           CAF      TWO                                   #  INCREMENT BURN DURATION TIMER BY 2 SECS.
000208: 20,3371           27650                           ADS      KCOEFCTR
000209:
000210: 20,3372           00006                           EXTEND                                         #  SET UP SUMRATES
000211: 20,3373           41623                           DCS      SAVRATEQ
000212: 20,3374           53625                           DXCH     SUMRATEQ
000213:
000214: 20,3375           15735                           TCF      NOQRSM
000215:                                                                                                  #  SPECIAL DISCONTINUITY SECTION FOR COEFFA ON FIRST PASS:
000216:
000217: 20,3376           37762        ZEROCOEF           CAF      TWO                                   #  INITIALIZE BURN DURATION TIMER TO TWO
000218: 20,3377           55650                           TS       KCOEFCTR                              #  SECONDS FOR THE DERIVATION OF K.
000219:
000220: 20,3400           37767                           CAF      ZERO                                  #  FOR THE FIRST PASS, SET COEFFA TO ZERO
000221: 20,3401           13261                           TCF      COEFFAST                              #  SINCE AOS ESTIMATES ARE NOW USELESS.
000222:
000223:                                                                                                  #  SPECIAL K AND COEFFA SETTINGS FOR BURNS LASTING 400 SECONDS OR MORE:
000224:
000225: 20,3402           00006        KONENOW            EXTEND                                         #  K=1, SO 1-K AT EITHER SCALING IS ZERO.
000226: 20,3403           33431                           DCA      DPZEROX                               #  (1-K)   SCALED AT 1.
000227: 20,3404           53643                           DXCH     (1-K)                                 #  (1-K)/8 SCALED AT 8.
000228:
000229: 20,3405           33425                           CAF      0.625                                 #  WFORP = WFORQR = K/DT = K/.1 = 10K = 10
000230: 20,3406           55640                           TS       WFORP                                 #  SCALED AT 16/SECOND.
000231: 20,3407           55641                           TS       WFORQR
000232:


000234: 20,3410           33422                           CAF      0.1                                   #  (.1-.05K) = 0.05 SINCE K = 1.
000235: 20,3411           54061                           TS       .1-.05K                               #  SCALED AT 1/2. (VOLATILE STORAGE.)
000236:
000237: 20,3412           35210                           CAF      BIT13-14                              #  COEFFA = 0.75
000238: 20,3413           54062                           TS       COEFFA                                #  SCALED AT 1.   (VOLATILE STORAGE.)
000239:
000240: 20,3414           13311                           TCF      COEFFA1                               #  GO BEGIN OFFSET ACCELERATION ESTIMATE.
000241:
000242:                                                                                                  #  CONSTANTS FOR AOSTASK:
000243:
000244: 20,3415           00000                           OCT      0                                     #  TO PRESERVE LOCATION OF 1/ACCS.
000245: 20,3416           00024        0.00125            DEC      0.00125
000246: 20,3417           00027        0.0014             DEC      0.0014
000247: 20,3420           00111        0.00444            DEC      0.00444
000248: 20,3421           01463        0.05               DEC      0.05
000249: 20,3422           03146        0.1                DEC      0.1
000250: 20,3423           12000        0.3125             DEC      0.3125
000251: 20,3424           16051        0.44               DEC      0.44
000252: 20,3425           24000        0.625              DEC      0.625
000253: 20,3426           26501        0.70711            DEC      0.70711
000254: 20,3427           77160        DEC-399            DEC      -399       B-14
000255: 20,3430           00000 00000  DPZEROX            2DEC     0          B-28
000256:
000257: 20,3432           00310        2SECSDAP           DEC      200        B-14
000258: 20,3433           20000        (1-K)S             DEC      0.5
000259: 20,3434           02000                           DEC      0.0625
000260:


000262:                                                                                                  #  PROGRAM NAME: WCHANGER          MOD. NO. 0  DATE: DECEMBER 9, 1966
000263:
000264:                                                                                                  #  THIS PROGRAM IS A WAITLIST TASK WHICH IS INITIATED FROM THE STARTDAP SECTION OF DAPIDLER.  IT IS EXECUTED
000265:                                                                                                  #  BETWEEN THE FIRST Q,R-AXES T5RUPT AND THE SECOND P-AXIS T5RUPT (I.E. 180 MS AFTER STARTDAP).  THE PURPOSE OF
000266:                                                                                                  #  WCHANGER IS TO RESET THE VARIABLE K (IN ALL ITS FORMS) FOR THE RATE DERIVATION FROM 1 TO 0.5.  (IT ALSO SETS THE
000267:                                                                                                  #  NOMINAL LM DAP DT TO 100 MS.)
000268:
000269:                                                                                                  #  CALLING SEQUENCE (FROM STARTDAP):
000270:
000271:                                                                                                  #                                          L -1     CAF    180MS
000272:                                                                                                  #                                          L        TC     WAITLIST
000273:                                                                                                  #                                                   EBANK= WFORQR
000274:                                                                                                  #                                          L +1     2CADR  WCHANGER
000275:                                                                                                  #                                          L +2    (BBCON)
000276:                                                                                                  #                                          L +3    (RETURN)
000277:
000278:                                                                                                  #  SUBROUTINES CALLED: WCHANGE.    NORMAL EXIT: TASKOVER.
000279:
000280:                                                                                                  #  INPUT: NONE.                    ALARM/ABORT EXITS: NONE.
000281:
000282:                                                                                                  #  OUTPUT: WFORP,WFORQR,(1-K),(1-K)/8.
000283:
000284: 20,3435           05270        WCHANGER           TC       IBNKCALL                              #  (WAITLIST TASK IS IN T3RUPT.)
000285: 20,3436           40162                           FCADR    WCHANGE                               #  SUBROUTINE DOES SETTING TO SAVE SPACE.
000286:                                                                                                  #  WE RETURN FROM WCHANGE WITH RANDOM EBANK, BUT WHO CARES.
000287: 20,3437           15727                           TCF      TASKOVER                              #  END THIS TASK.
000288:


000290:                                                                                                  #  INERPOLY COMPUTES IXX, IYY, IZZ, AND IN DESCENT, L,PVT-CG, ACCDOTQ, ACCDOTR,KQ,KQ2, KRDAP, KR2..
000291:                                                                                                  #  AFTER THE INERTIAS ARE COMPUTED, THEY ARE USED TO COMPUTE NEW VALUES OF
000292:                                                                                                  #  1JACC, 1JACCQ, 1JACCR, 1JACCU, 1JACCV AND 1/2JTSP.
000293:                                                                                                  #  INERPOLY EXITS BY .... TCF ENDOFJOB
000294:
000295:
000296: 26,2713                                           BANK     26
000297: 26,2713  E6,1452                                  EBANK=   IXX
000298: 26,2713           37762        1/ACCS             CA       BIT2
000299: 26,2714           00006                           EXTEND
000300: 26,2715           02030                           RAND     30
000301: 26,2716           10000                           CCS      A                                     #  CHOOSES ASCENT OR DESCENT COEF
000302: 26,2717           46311                           CS       THREE
000303: 26,2720           66306                           AD       SIX
000304: 26,2721           55621                           TS       INERCTRX
000305:
000306: 26,2722           37762                           CAF      TWO
000307: 26,2723           55620        STCTR              TS       INERCTR                               #  J=2,1,0 FOR IZZ,IYY,IXX
000308:
000309: 26,2724           00006                           EXTEND
000310: 26,2725           27621                           DIM      INERCTRX                              #  JX=5,4,3 OR 2,1,0 FOR Z,Y,X COEF
000311:
000312: 26,2726           31320        STCTR1             CA       MASS                                  #  IN KGS (+15)
000313: 26,2727           00006                           EXTEND
000314: 26,2730           51621                           INDEX    INERCTRX
000315: 26,2731           73136                           MP       INERCONC
000316: 26,2732           51621                           INDEX    INERCTRX
000317: 26,2733           63145                           AD       INERCONB
000318: 26,2734           00006                           EXTEND
000319: 26,2735           71320                           MP       MASS
000320: 26,2736           51621                           INDEX    INERCTRX
000321: 26,2737           63154                           AD       INERCONA
000322: 26,2740           51620                           INDEX    INERCTR
000323: 26,2741           55452                           TS       IXX                                   #  I(J)=(C(JX)MASS+B(JX))MASS+A(JX)  (+18)
000324:                                                                                                  #  I(-1)=L,PVT-CG  (+6)
000325:
000326: 26,2742           11620                           CCS      INERCTR                               #  COUNTER 2,1,0,-1
000327: 26,2743           12723                           TCF      STCTR
000328: 26,2744           12746                           TCF      COMMEQS
000329: 26,2745           13014                           TCF      LRESC
000330:
000331: 26,2746           00006        COMMEQS            EXTEND
000332: 26,2747           33163                           DCA      TORKJET                               #  500 FT-LBS. (+16) PI
000333: 26,2750           00006                           EXTEND
000334: 26,2751           11452                           DV       IXX
000335: 26,2752           55613                           TS       1JACC                                 #  SCALED BY PI/4
000336:
000337: 26,2753           00006                           EXTEND
000338: 26,2754           33165                           DCA      TORKJET1                              #  550 FT-LBS. (+16) PI
000339:


000341: 26,2755           00006                           EXTEND
000342: 26,2756           11453                           DV       IYY
000343: 26,2757           55614                           TS       1JACCQ                                #  SCALED BY PI/4
000344:
000345: 26,2760           00006                           EXTEND
000346: 26,2761           33165                           DCA      TORKJET1                              #  550 FT-LBS. (+16) PI
000347: 26,2762           00006                           EXTEND
000348: 26,2763           11454                           DV       IZZ
000349: 26,2764           55615                           TS       1JACCR                                #  SCALED BY PI/4
000350:
000351: 26,2765           61614                           AD       1JACCQ
000352: 26,2766           00006                           EXTEND
000353: 26,2767           73170                           MP       0.35356                               #  .70711 SCALED BY (+1)
000354: 26,2770           55616                           TS       1JACCU
000355: 26,2771           55617                           TS       1JACCV                                #  SCALED BY PI/4
000356:
000357: 26,2772           33166                           CAF      4JTORK
000358: 26,2773           55451                           TS       TEMPINER
000359: 26,2774           31452                           CAE      IXX
000360: 26,2775           22007                           ZL
000361: 26,2776           00006                           EXTEND
000362: 26,2777           11451                           DV       TEMPINER
000363: 26,3000           60000                           DOUBLE
000364: 26,3001           55440                           TS       1/2JTSP                               #  SCALED BY 1/PI (+8)
000365:
000366: 26,3002           37762                           CAF      BIT2
000367: 26,3003           00006                           EXTEND
000368: 26,3004           02030                           RAND     30
000369: 26,3005           10000                           CCS      A                                     #  COMPUTE L,PVT-CG IF IN DESCENT
000370: 26,3006           13010                           TCF      DES
000371: 26,3007           13132                           TCF      CONT1/AC
000372: 26,3010           47763        DES                CS       ONE
000373: 26,3011           55620                           TS       INERCTR
000374: 26,3012           55621                           TS       INERCTRX
000375: 26,3013           12726                           TCF      STCTR1
000376:
000377: 26,3014           31451        LRESC              CA       TEMPINER                              #  SCALED AT (+6)
000378: 26,3015           00006                           EXTEND
000379: 26,3016           77760                           MP       BIT4
000380: 26,3017           23450                           LXCH     L,PVT-CG                              #  SCALED AT 2(+3)
000381:
000382: 26,3020           33173                           CA       GFACT
000383: 26,3021           54144                           TS       MPAC                                  #  FOR DIVISION LATER
000384:
000385:                                                                                                  #  THIS SECTION COMPUTES THE RATE OF CHANGE OF ACCELERATION DUE TO THE ROTATION OF THE GIMBALS.  THE EQUATION IMPLE
000386:                                                                                                  #  MENTED IN BOTH THE Y-X PLANE AND THE Z-X PLANE IS --  D(ALPHA)/DT = TL/I*D(DELTA)/DT , WHERE
000387:                                                                                                  #       T = ENGINE THRUST FORCE
000388:                                                                                                  #       L = PIVOT TO CG DISTANCE OF ENGINE
000389:                                                                                                  #       I = MOMENT OF INERTIA
000390:


000392: 26,3022  E5,1534                                  EBANK=   ABDELV
000393: 26,3022           35661                           CA       EBANK5                                #  CHANGE EBANK TO GET ABDELV
000394: 26,3023           22000                           LXCH     A                                     #  THIS IS NECESSARY TO PRESERVE A WHILE
000395: 26,3024           22003                           LXCH     EBANK                                 #  SWITCHING EBANKS
000396:
000397: 26,3025           31534                           CAE      ABDELV                                #  SCALED AT 2(13) CM/SEC(2)
000398: 26,3026           22003                           LXCH     EBANK                                 #  RESTORE EBANK LEAVING A UNHARMED
000399:
000400: 26,3027  E6,1452                                  EBANK=   IXX
000401:
000402: 26,3027           00006                           EXTEND
000403: 26,3030           71320                           MP       MASS                                  #  SCALED AT 2(15) KG.
000404: 26,3031           00006                           EXTEND
000405: 26,3032           10144                           DV       MPAC                                  #  CONTAINS GFACT
000406:                                                                                                  #  MASS IS DIVIDED BY ACCELERATION OF GRAVITY IN ORDER TO MATCH THE UNITS OF IXX,IYY,IZZ, WHICH ARE SLUG-FT(2).
000407:                                                                                                  #  THE RATIO OF ACCELERATION FROM PIPAS TO ACCELERATION OF GRAVITY IS THE SAME IN METRIC OR ENGINEERING UNITS, SO
000408:                                                                                                  #  THAT IS UNCONVERTED.  2.20462 CONVERTS KG. TO LB.  NOW T IS IN A SCALED AT 2(14).
000409:
000410: 26,3033           00006                           EXTEND
000411: 26,3034           73174                           MP       DELDOT26                              #  .2 DEG/SEC AT PI/64 RADIANS/SECOND
000412: 26,3035           00006                           EXTEND
000413: 26,3036           71450                           MP       L,PVT-CG                              #  SCALED AT 8 FEET.
000414: 26,3037           00004                           INHINT
000415: 26,3040           52145                           DXCH     MPAC                                  #  SINCE THIS IS A JOB, MPAC IS AVAILABLE
000416: 26,3041           00006                           EXTEND
000417: 26,3042           30145                           DCA      MPAC
000418: 26,3043           00006                           EXTEND
000419: 26,3044           11454                           DV       IZZ                                   #  SCALED AT 2(18) SLUG-FT(2)
000420: 26,3045           55534                           TS       ACCDOTR                               #  SCALED AT PI/2(7)
000421: 26,3046           00006                           EXTEND
000422: 26,3047           30145                           DCA      MPAC
000423: 26,3050           00006                           EXTEND
000424: 26,3051           11453                           DV       IYY                                   #  SCALED AT 2(18) SLUG-FT(2)
000425: 26,3052           55532                           TS       ACCDOTQ                               #  SCALED AT PI/2(7)
000426: 26,3053           00006                           EXTEND
000427: 26,3054           73167                           MP       DGBF                                  #  .3ACCDOTQ SCALED AT PI/2(8)
000428: 26,3055           55526                           TS       KQ
000429: 26,3056           00006                           EXTEND
000430: 26,3057           70000                           SQUARE
000431: 26,3060           55527                           TS       KQ2                                   #  KQ(2)
000432:
000433: 26,3061           31534                           CAE      ACCDOTR                               #  .3ACCDOTR AT PI/2(8)
000434: 26,3062           00006                           EXTEND
000435: 26,3063           73167                           MP       DGBF
000436: 26,3064           55530                           TS       KRDAP
000437: 26,3065           00006                           EXTEND
000438: 26,3066           70000                           SQUARE
000439: 26,3067           55531                           TS       KR2
000440:
000441: 26,3070           00006                           EXTEND                                         #  NOW COMPUTE QACCDOT, RACCDOT, THE SIGNED


000443: 26,3071           00012                           READ     12                                    #  JERK TERMS.  STORE CHANNEL 12, WITH GIM
000444: 26,3072           54145                           TS       MPAC       +1                         #  BAL DRIVE BITS 9 THROUGH 12.  SET LOOP
000445: 26,3073           37762                           CAF      BIT2                                  #  INDEX TO COMPUTE RACCDOT, THEN QACCDOT.
000446: 26,3074           13076                           TCF      LOOP3
000447: 26,3075           37767                           CAF      ZERO                                  #  ACCDOTQ AND ACCDOTR ARE NOT NEGATIVE,
000448: 26,3076           54144        LOOP3              TS       MPAC                                  #  BECAUSE THEY ARE MAGNITUDES
000449: 26,3077           30145                           CA       MPAC       +1
000450: 26,3100           50144                           INDEX    MPAC                                  #  MASK CHANNEL IMAGE FOR ANY GIMBAL MOTION
000451: 26,3101           73125                           MASK     GIMBLBTS
000452: 26,3102           00006                           EXTEND
000453: 26,3103           13117                           BZF      ZACCDOT                               #  IF NONE, Q(R)ACCDOT IS ZERO.
000454: 26,3104           30145                           CA       MPAC       +1
000455: 26,3105           50144                           INDEX    MPAC                                  #  GIMBAL IS MOVING.  IS ROTATION POSITIVE.
000456: 26,3106           73126                           MASK     GIMBLBTS   +1
000457: 26,3107           00006                           EXTEND
000458: 26,3110           13114                           BZF      FRSTZERO                              #  IF NOT POSITIVE, BRANCH
000459: 26,3111           50144                           INDEX    MPAC                                  #  POSITIVE ROTATION, NEGATIVE Q(R)ACCDOT.
000460: 26,3112           41532                           CS       ACCDOTQ
000461: 26,3113           13120                           TCF      STACCDOT
000462: 26,3114           50144        FRSTZERO           INDEX    MPAC                                  #  NEGATIVE ROTATION, POSITIVE Q(R)ACCDOT.
000463: 26,3115           31532                           CA       ACCDOTQ
000464: 26,3116           13120                           TCF      STACCDOT
000465: 26,3117           37767        ZACCDOT            CAF      ZERO
000466: 26,3120           50144        STACCDOT           INDEX    MPAC
000467: 26,3121           55533                           TS       QACCDOT                               #  STORE Q(R)ACCDOT, COMPLEMENTED.
000468: 26,3122           10144                           CCS      MPAC
000469: 26,3123           13075                           TCF      LOOP3      -1                         #  NOW DO QACCDOT.
000470: 26,3124           13131                           TCF      +5                                    #  LOOP COMPLETED.  RELINT IS SAFE NOW.
000471: 26,3125           01400        GIMBLBTS           OCTAL    01400
000472: 26,3126           00400                           OCTAL    00400                                 #  BECAUSE OF TRIM GIMBAL POLARITY CHANGE,
000473: 26,3127           06000                           OCTAL    06000                                 #  THESE BIT VALUES CAUSE Q(R)ACCDOT TO BE
000474: 26,3130           02000                           OCTAL    02000                                 #  GENERATED WITH INVERTED SIGN.
000475:
000476: 26,3131           00003                           RELINT
000477:
000478: 26,3132           00006        CONT1/AC           EXTEND
000479: 26,3133           33172                           DCA      CONTCADR
000480: 26,3134           52005                           DTCF
000481: 26,3135           37573                           DEC      0.99191
000482: 26,3136           77763        INERCONC           DEC      -.00071
000483: 26,3137           46570                           DEC      -.78952
000484: 26,3140           46556                           DEC      -.79009
000485: 26,3141           00051                           DEC      0.00249
000486: 26,3142           54334                           DEC      -.61154
000487: 26,3143           54406                           DEC      -.60892
000488: 26,3144           46353                           DEC      -.79812
000489: 26,3145           05463        INERCONB           DEC      0.17497
000490: 26,3146           26214                           DEC      0.69605
000491: 26,3147           25021                           DEC      0.65726
000492: 26,3150           05676                           DEC      0.18347


000494: 26,3151           05006                           DEC      0.15660
000495: 26,3152           12613                           DEC      0.33662
000496: 26,3153           06364                           DEC      0.20239
000497: 26,3154           00012        INERCONA           DEC      0.00064
000498: 26,3155           75650                           DEC      -.06778
000499: 26,3156           76334                           DEC      -.04904
000500: 26,3157           77740                           DEC      -.00192
000501: 26,3160           00043                           DEC      0.00211
000502: 26,3161           77446                           DEC      -.01324
000503: 26,3162           00047 31173  TORKJET            2DEC     0.002428512
000504:
000505: 26,3164           00053 30441  TORKJET1           2DEC     0.002671365
000506:
000507: 26,3166           23712        4JTORK             DEC      .62170
000508: 26,3167           23146        DGBF               DEC      0.6                                   #  .3 SCALED AT 1/2
000509: 26,3170           13241        0.35356            DEC      0.35356                               #  0.70711 SCALED AT +1
000510:
000511:
000512:
000513: 26,3171           41440 03440  CONTCADR           2FCADR   1/ACCONT
000514:
000515: 26,3173           00674        GFACT              OCTAL    00674                                 #  979.24/2.20462 SCALED AT 2(14)
000516: 26,3174           02215        DELDOT26           DEC      .07111                                #  0.2 DEG/SEC SCALED AT PI/64 RAD/SEC
000517:


000519:                                                                                                  #  PROGRAM NAME: 1/ACCONT          MOD. NO. 2  DATE: JANUARY 9, 1967
000520:                                                                                                  #  PROGRAM DESIGN BY: RICHARD D. GOSS (MIT/IL)
000521:
000522:                                                                                                  #  IMPLEMENTATION BY: JONATHAN D. ADDELSTON (ADAMS ASSOCIATES)
000523:
000524:                                                                                                  #  LAST MODIFICATION BY: JONATHAN D. ADDELSTON
000525:                                                                                                  #  THIS PROGRAM IS PART OF AN EXECUTIVE JOB AND CALCULATES:
000526:
000527:                                                                                                  #           1. THE INVERSES OF THE NET ACCELERATIONS ABOUT ALL AXES (Q,R,U,V), IN ALL DIRECTIONS (+/-), AND ALL
000528:                                                                                                  #              COMBINATIONS OF JETS (2/4 FOR Q,R AND 1/2 FOR U,V).
000529:                                                                                                  #           2. THE INVERSES OF THE MINIMUM ACCELERATIONS FOR THE URGENCY AND TJETLAW COMPUTATION, DURING APS BURNS.
000530:                                                                                                  #           3. THE INITIAL INVERSE NET ACCELERATIONS USED FOR THE URGENCY COMPUTATION, DURING APS BURNS.
000531:                                                                                                  #           4. THE NJ FLAGS TO REQUIRE MANDATORY JET ACCELERATION DURING APS BURNS.
000532:
000533:                                                                                                  #  SUBROUTINES CALLED: INVACC.
000534:
000535:                                                                                                  #  CALLING SEQUENCE: CONTROL IS TRANSFERRED HERE FROM 1/ACCS SECTION.
000536:
000537:                                                                                                  #  NORMAL EXIT: ENDOFJOB.          ALARM/ABORT EXITS: NONE.
000538:
000539:                                                                                                  #  INPUT: AOSQ,AOSR,AOSU,AOSV,1JACCQ,1JACCR,1JACCU,1JACCV,APSGOING/DAPBOOLS.
000540:
000541:                                                                                                  #  DEBRIS: NONE.
000542:


000544: 20,3440                                           BANK     20
000545: 20,3440  E6,1660                                  EBANK=   AOSQ
000546:
000547:                                                                                                  #  SET UP LOOP FOR FOUR AXES (IN THE ORDER: V,U,R,Q):
000548:
000549: 20,3440           36311        1/ACCONT           CAF      THREE                                 #  JOBAXES IS USED TO PICK UP ONE OF FOUR.
000550: 20,3441           54144        INVLOOP            TS       JOBAXES                               #  ADJACENT REGISTERS, ALSO TO COUNT LOOP.
000551:
000552:                                                                                                  #  SET UP "TABPLACE" TO STORE 1/NETACC TABLE:
000553:
000554: 20,3442           00006                           EXTEND                                         #  TABPLACE = 4(JOBAXES)
000555: 20,3443           77761                           MP       FOUR                                  #  SINCE THERE ARE FOUR ENTRIES PER AXIS.
000556: 20,3444           22146                           LXCH     TABPLACE
000557:
000558:                                                                                                  #                                                       2
000559:                                                                                                  #             2(1JACC   ) + AOS    - 0.02 RADIANS/SECOND  GREATER THAN ZERO
000560:                                                                                                  #                    Q,R       Q,R
000561:                                                                                                  #         OR                                            2
000562:                                                                                                  #               1JACC     + AOS    - 0.02 RADIANS/SECOND  GREATER THAN ZERO
000563:                                                                                                  #                    U,V       U,V
000564:
000565: 20,3445           50144                           INDEX    JOBAXES                               #  THE INDEXED PICK-UP OF JET ACCELERATIONS
000566: 20,3446           31614                           CAE      1JACCQ                                #  USES THE FOLLOWING HAPPY COINCIDENCE:
000567: 20,3447           54150                           TS       TEMPACC                               #  1JACCU AND 1JACCV ARE SCALED AT PI/2 AS
000568: 20,3450           50144                           INDEX    JOBAXES                               #  ARE AOSU AND AOSV.  1JACCQ AND 1JACCR
000569: 20,3451           61660                           AD       AOSQ                                  #  ARE SCALED AT PI/4 AND THEREFORE ARE
000570: 20,3452           54151                           TS       TEMPNET                               #  EQUIVALENT TO 2(1JACCQ) AND 2(1JACCR)
000571: 20,3453           63753                           AD       -.02R/S2                              #  SCALED AT PI/2, AS ARE AOSQ AND AOSR.
000572: 20,3454           00006                           EXTEND
000573: 20,3455           63754                           BZMF     FIFTY1                                #  (BRANCH FOR CONSTANT VALUE OF INVERSE.)
000574:
000575:                                                                                                  #             1/NET+2    = 1/( 2(1JACC   ) + AOS   )
000576:                                                                                                  #                    Q,R              Q,R       Q,R
000577:                                                                                                  #         OR
000578:                                                                                                  #             1/NET+1    = 1/(   1JACC    + AOS   )
000579:                                                                                                  #                    U,V              U,V      U,V
000580:
000581: 20,3456           03762                           TC       INVACC
000582: 20,3457           50146        FIFTY1R            INDEX    TABPLACE
000583: 20,3460           55676                           TS       1/NET+2Q                              #  SCALED AT 2(+8)/PI SECONDS(2)/RADIAN.
000584:
000585:                                                                                                  #                                                       2
000586:                                                                                                  #             2(1JACC   ) - AOS    - 0.02 RADIANS/SECOND  GREATER THAN ZERO
000587:                                                                                                  #                    Q,R       Q,R
000588:                                                                                                  #         OR                                            2
000589:                                                                                                  #               1JACC     - AOS    - 0.02 RADIANS/SECOND  GREATER THAN ZERO
000590:                                                                                                  #                    U,V       U,V
000591:
000592: 20,3461           50144                           INDEX    JOBAXES                               #  THIS SECTION USES THE INDEXING TRICKS OF
000593: 20,3462           41660                           CS       AOSQ                                  #  THE FIRST PART (ABOVE), BUT USES THE


000595: 20,3463           54147                           TS       TEMPAOS                               #  TEMPORARY LOCATIONS AS FOLLOWS:
000596: 20,3464           60150                           AD       TEMPACC                               #  "TEMPAOS" SAVES -AOS FOR THIS AXIS.
000597: 20,3465           54151                           TS       TEMPNET                               #  "TEMPACC" HAS THE JET ACCELERATION.
000598: 20,3466           63753                           AD       -.02R/S2                              #  C(TEMPNET) ARE (JETACC-AOS) FOR DENOM.
000599: 20,3467           00006                           EXTEND
000600: 20,3470           63756                           BZMF     FIFTY2                                #  (BRANCH FOR CONSTANT VALUE OF INVERSE.)
000601:
000602:                                                                                                  #             1/NET-2    = 1/( 2(1JACC   ) - AOS   )
000603:                                                                                                  #                    Q,R              Q,R       Q,R
000604:                                                                                                  #         OR
000605:                                                                                                  #             1/NET-1    = 1/(   1JACC      - AOS   )
000606:                                                                                                  #                    U,V              U,V        U,V
000607:
000608: 20,3471           03762                           TC       INVACC
000609: 20,3472           50146        FIFTY2R            INDEX    TABPLACE
000610: 20,3473           55700                           TS       1/NET-2Q                              #  SCALED AT 2(+8)/PI SECONDS(2)/RADIAN.
000611:
000612:                                                                                                  #             1/NET-4    = 1/( 4(1JACC   ) - AOS   )
000613:                                                                                                  #                    Q,R              Q,R       Q,R
000614:                                                                                                  #         OR
000615:                                                                                                  #             1/NET-2    = 1/( 2(1JACC   ) - AOS   )
000616:                                                                                                  #                    U,V              U,V       U,V
000617:
000618: 20,3474           30150                           CAE      TEMPACC                               #  FIRST, FROM 2(1JACCQ,R) FORM 4(1JACCQ,R)
000619: 20,3475           60000                           DOUBLE                                         #  OR FROM 1JACCU,V FORM 2(1JACCU,V) AND
000620: 20,3476           54150                           TS       TEMPACC                               #  SAVE FOR NEXT INVERSE CALCULATION.
000621: 20,3477           60147                           AD       TEMPAOS                               #  THEN, COMPUTE EITHER 4(1JACCQ,R)-AOSQ,R
000622: 20,3500           54151                           TS       TEMPNET                               #  OR 2(1JACCU,V)-AOSU,V SCALED AT PI/2.
000623:
000624: 20,3501           03762                           TC       INVACC
000625: 20,3502           50146                           INDEX    TABPLACE
000626: 20,3503           55701                           TS       1/NET-4Q                              #  SCALED AT 2(+8)/PI SECONDS(2)/RADIAN.
000627:
000628:                                                                                                  #             1/NET+4    = 1/( 4(1JACC   ) + AOS   )
000629:                                                                                                  #                    Q,R              Q,R       Q,R
000630:                                                                                                  #         OR
000631:                                                                                                  #             1/NET+2    = 1/( 2(1JACC   ) + AOS   )
000632:                                                                                                  #                    U,V              U,V       U,V
000633:
000634: 20,3504           40147                           CS       TEMPAOS                               #  FIRST, COMPUTE EITHER 4(1JACCQ,R)+AOSQ,R
000635: 20,3505           60150                           AD       TEMPACC                               #  OR 2(1JACCU,V)+AOSU,V AND SAVE FOR THE
000636: 20,3506           54151                           TS       TEMPNET                               #  DIVISION (SCALED AT PI/2 RADIANS/SECOND)
000637:
000638: 20,3507           03762                           TC       INVACC
000639: 20,3510           50146                           INDEX    TABPLACE
000640: 20,3511           55677                           TS       1/NET+4Q                              #  SCALED AT 2(+8)/PI RADIANS(2)/SECOND.
000641:
000642:                                                                                                  #  TEST FOR END OF LOOP:
000643:
000644: 20,3512           10144                           CCS      JOBAXES                               #  IF "JOBAXES" PNZ, CONTINUE.


000646: 20,3513           13441                           TCF      INVLOOP                               #  IF "JOBAXES" ZERO, STOP.
000647:
000648:                                                                                                  #  TEST FOR ASCENT PROPULSION SYSTEM BURN:
000649:
000650: 20,3514           37754                           CAF      APSGOING                              #  IF LM IS IN COAST OR IN A DESCENT BURN,
000651: 20,3515           70077                           MASK     DAPBOOLS                              #  THEN THE AOSJOB IS TRIVIAL FROM HERE
000652: 20,3516           10000                           CCS      A                                     #  AND THIS TEST REDUCES THE COMPUTATION
000653: 20,3517           13531                           TCF      ASCJOB                                #  TIME IN THOSE CASES.
000654:
000655:                                                                                                  #  FILL IN DESCENT BURN OR COAST VALUES QUICKLY:
000656:
000657: 20,3520           31676                           CAE      1/NET+2Q                              #  FOR Q-AXIS URGENCY.
000658: 20,3521           55717                           TS       1/ACCQ
000659: 20,3522           31702                           CAE      1/NET+2R                              #  FOR R-AXIS URGENCY.
000660: 20,3523           55720                           TS       1/ACCR
000661:
000662: 20,3524           00004                           INHINT
000663: 20,3525           40077        POPNONJ            CS       DAPBOOLS                              #  SET BIT TO INDICATE DATA GOOD.
000664: 20,3526           77761                           MASK     DATAGOOD
000665: 20,3527           26077                           ADS      DAPBOOLS
000666: 20,3530           15567                           TCF      ENDOFJOB                              #  END THIS ITERATION OF AOSJOB.
000667:


000669:                                                                                                  #  IN ASCENT BURN, SO SET UP Q,R-AXES LOOP:
000670:
000671: 20,3531           36311        ASCJOB             CAF      THREE                                 #  SET UP THE TABLE INDICES:
000672: 20,3532           54144        QRJOB              TS       JOBAXES
000673: 20,3533           60000                           DOUBLE                                         #  AOS TABLE USES "JOBAXES"  (ADJACENT).
000674: 20,3534           54145                           TS       NJPLACE                               #  NJ  TABLE USES "NJPLACE"  (ONE APART).
000675: 20,3535           60000                           DOUBLE                                         #  NET TABLE USES "TABPLACE" (THREE APART).
000676: 20,3536           54146                           TS       TABPLACE
000677:
000678:                                                                                                  #                                          2
000679:                                                                                                  #  TEST ABVAL(AOS   ) - 0.02 RADIANS/SECOND  GREATER THAN ZERO:
000680:                                                                                                  #                Q,R
000681:
000682: 20,3537           50144                           INDEX    JOBAXES                               #  FORM ABVAL(AOS   ) AND SAVE FOR INVACC.
000683: 20,3540           11660                           CCS      AOSQ                                  #                Q,R
000684: 20,3541           67763                           AD       ONE
000685: 20,3542           13544                           TCF      +2
000686: 20,3543           67763                           AD       ONE
000687: 20,3544           54151                           TS       TEMPNET
000688: 20,3545           63753                           AD       -.02R/S2                              #  -0.02 RADIANS/SECOND(2) AT PI/2
000689: 20,3546           00006                           EXTEND
000690: 20,3547           63760                           BZMF     FIFTY3                                #  (BRANCH FOR CONSTANT VALUE OF INVERSE.)
000691:
000692:                                                                                                  #  CALCULATE 1/AMIN    = 1/ABVAL(AOS   ):
000693:                                                                                                  #                  Q,R              Q,R
000694:
000695: 20,3550           03762                           TC       INVACC                                #  (USE SUBROUTINE FOR INVERSE.)
000696: 20,3551           50144        FIFTY3R            INDEX    JOBAXES
000697: 20,3552           55721                           TS       1/AMINQ                               #  SAVE FOR USE BY URGENCY CALCULATIONS.
000698:
000699: 20,3553           40144                           CS       JOBAXES                               #  2 - C(JOBAXES) CAUSES A BRANCH ONLY WHEN
000700: 20,3554           67762                           AD       TWO                                   #  C(JOBAXES) = 3 OR 2, I.E. WHEN DOING
000701: 20,3555           00006                           EXTEND                                         #  U- OR V-AXIS PASS OF LOOP ONLY SET UP
000702: 20,3556           63703                           BZMF     UVNEXT                                #  1/AMINU OR 1/AMINV, RESPECTIVELY.
000703:
000704:                                                                                                  #                                                        2
000705:                                                                                                  #  TEST 2(1JACC   ) - ABVAL(AOS   ) - 0.06 RADIANS/SECOND  GREATER THAN ZERO:
000706:                                                                                                  #              Q,R             Q,R
000707:
000708: 20,3557           40151                           CS       TEMPNET                               #  "TEMPNET" IS ABVAL(AOSQ,R).
000709: 20,3560           50144                           INDEX    JOBAXES                               #  SAVE -ABVAL(AOSQ,R) FOR USE IN THE
000710: 20,3561           54152                           TS       ABVLAOSQ                              #  U,V-AXIS NJ COMPUTATION BELOW.
000711: 20,3562           61655                           AD       -.06R/S2                              #  -0.06 RADIANS/SECOND(2) SCALED AT PI/2.
000712: 20,3563           50144                           INDEX    JOBAXES
000713: 20,3564           61614                           AD       1JACCQ                                #  "1JACCQ,R" SCALED AT PI/4 RAD/SEC(2) ARE
000714: 20,3565           00006                           EXTEND                                         #  2(1JACCQ,R) SCALED AT PI/2 RAD/SEC(2).
000715: 20,3566           63630                           BZMF     OVERRIDE
000716:
000717:                                                                                                  #  SET FLAG NOT TO REQUEST MANDATORY FOUR JET OPERATION FOR +Q,+R ROTATION DURING THIS APS BURN (FOR NOW):


000719: 20,3567           37767                           CAF      ZERO                                  #  NJ = 0 ALLOWS THE URGENCY FUNCTIONS TO
000720: 20,3570           50145                           INDEX    NJPLACE                               #  ACTUALLY SELECT 2 JET ROTATION AS THE
000721: 20,3571           55666                           TS       NJ+Q                                  #  OPTIMAL POLICY.
000722:
000723:                                                                                                  #  TEST SIGN(AOS   ):
000724:                                                                                                  #               Q,R
000725:
000726: 20,3572           50144                           INDEX    JOBAXES                               #  THE SIGN OF AOSQ,R DETERMINES THE RATIO
000727: 20,3573           31660                           CAE      AOSQ                                  #  TO BE COMPUTED AS THE CORRECTION FACTOR
000728: 20,3574           00006                           EXTEND                                         #  IN THE URGENCY FUNCTION CALCULATION AND
000729: 20,3575           63613                           BZMF     URGRAT2                               #  ALSO SPECIFIES THE CURRECT NJ VALUES.
000730:
000731:                                                                                                  #  FIRST CASE FOR URGENCY RATIO:
000732:
000733: 20,3576           50146        URGRAT1            INDEX    TABPLACE                              #  CHOOSE THE -2 JET NET ACCELERATION
000734: 20,3577           31700                           CAE      1/NET-2Q                              #  INVERSE FOR USE IN URGENCY COMPUTATION.
000735: 20,3600           50144                           INDEX    JOBAXES
000736: 20,3601           55717                           TS       1/ACCQ
000737:
000738: 20,3602           22007                           ZL                                             #  PREVENT OVERFLOW FOR SMALL AOSQS
000739: 20,3603           50146                           INDEX    TABPLACE
000740: 20,3604           31676                           CAE      1/NET+2Q                              #          1/NET+2Q,R
000741: 20,3605           00006                           EXTEND                                         #  RATIO = ----------
000742: 20,3606           50146                           INDEX    TABPLACE                              #          1/NET-2Q,R
000743: 20,3607           11700                           DV       1/NET-2Q
000744: 20,3610           50144                           INDEX    JOBAXES
000745: 20,3611           55725                           TS       URGRATQ
000746:
000747: 20,3612           13654                           TCF      SWITNJS                               #  GO TO SET NJS.
000748:
000749:                                                                                                  #  SECOND CASE FOR URGENCY RATIO:
000750:
000751: 20,3613           50146        URGRAT2            INDEX    TABPLACE                              #  CHOOSE THE +2 JET NET ACCELERATION
000752: 20,3614           31676                           CAE      1/NET+2Q                              #  INVERSE FOR USE IN URGENCY COMPUTATION.
000753: 20,3615           22007                           ZL                                             #  PREVENT OVERFLOW ON ZERO BZMF BRANCH.
000754: 20,3616           50144                           INDEX    JOBAXES
000755: 20,3617           55717                           TS       1/ACCQ
000756:
000757: 20,3620           50146                           INDEX    TABPLACE
000758: 20,3621           31700                           CAE      1/NET-2Q                              #          1/NET-2Q,R
000759: 20,3622           00006                           EXTEND                                         #  RATIO = ----------
000760: 20,3623           50146                           INDEX    TABPLACE                              #          1/NET+2Q,R
000761: 20,3624           11676                           DV       1/NET+2Q
000762: 20,3625           50144                           INDEX    JOBAXES
000763: 20,3626           55725                           TS       URGRATQ
000764:
000765: 20,3627           13700                           TCF      NXTNJZER                              #  GO TO SET NJS.
000766:
000767:                                                                                                  #  SET FLAG TO INDICATE MANDATORY USE OF FOUR JETS TO FIGHT THE OFFSET ACCELERATION:


000769: 20,3630           37763        OVERRIDE           CAF      ONE                                   #  (THIS SHOULD BE DONE BEFORE THE INHINT.)
000770:
000771: 20,3631           00004                           INHINT                                         #  PREVENT POSSIBLY EPHEMERAL MANDATORY NJ
000772:                                                                                                  #  SETTING FROM AFFECTING JET SELECTION.
000773: 20,3632           50145                           INDEX    NJPLACE                               #  NJ = 1 FORCES THE URGENCY FUNCTIONS TO
000774: 20,3633           55666                           TS       NJ+Q                                  #  ACTUALLY SELECT 4 JET ROTATION AS THE
000775:                                                                                                  #  OPTIMAL POLICY (TO FIGHT THE AOS).
000776:
000777:                                                                                                  #  TEST SIGN(AOS   ):
000778:                                                                                                  #               Q,R
000779:
000780: 20,3634           50144                           INDEX    JOBAXES                               #  THE SIGN OF AOSQ,R DETERMINES THE RATIO
000781: 20,3635           31660                           CAE      AOSQ                                  #  TO BE COMPUTED AS THE CORRECTION FACTOR
000782: 20,3636           00006                           EXTEND                                         #  IN THE URGENCY FUNCTION CALCULATION AND
000783: 20,3637           63663                           BZMF     URGRAT4                               #  ALSO SPECIFIES THE CORRECT NJ VALUES.
000784:
000785:                                                                                                  #  THIRD CASE FOR URGENCY RATIO:
000786:
000787: 20,3640           50146        URGRAT3            INDEX    TABPLACE                              #  CHOOSE THE -4 JET NET ACCELERATION
000788: 20,3641           31701                           CAE      1/NET-4Q                              #  INVERSE FOR USE IN URGENCY COMPUTATION.
000789: 20,3642           50144                           INDEX    JOBAXES
000790: 20,3643           55717                           TS       1/ACCQ
000791:
000792: 20,3644           22007                           ZL
000793: 20,3645           50146                           INDEX    TABPLACE
000794: 20,3646           31676                           CAE      1/NET+2Q                              #          1/NET+2Q,R
000795: 20,3647           00006                           EXTEND                                         #  RATIO = ----------
000796: 20,3650           50146                           INDEX    TABPLACE                              #          1/NET-4Q,R
000797: 20,3651           11701                           DV       1/NET-4Q
000798: 20,3652           50144                           INDEX    JOBAXES
000799: 20,3653           55725                           TS       URGRATQ
000800:
000801:                                                                                                  #  RESET VALUES OF NJS FOR Q,R-AXIS:
000802:
000803: 20,3654           37767        SWITNJS            CAF      ZERO                                  #  SET NJ      = NJ      (FROM ABOVE)
000804: 20,3655           50145                           INDEX    NJPLACE                               #        -Q,-R     +Q,+R
000805: 20,3656           57666                           XCH      NJ+Q                                  #  AND
000806: 20,3657           50145                           INDEX    NJPLACE                               #      NJ      = 0.
000807: 20,3660           55667                           TS       NJ-Q                                  #        +Q,+R
000808:
000809: 20,3661           00003                           RELINT                                         #  SINCE NJS NOW VALID, ALLOW INTERRUPTS.
000810:
000811: 20,3662           13703                           TCF      UVNEXT                                #  GO TEST FOR ENTRY TO U,V-AXES LOGIC.
000812:
000813:                                                                                                  #  FOURTH CASE FOR URGENCY RATIO:
000814:
000815: 20,3663           00003        URGRAT4            RELINT                                         #  SINCE ALL NJS ALREADY SET ARE NOW KNOWN
000816:                                                                                                  #  TO BE VALID, ALLOW INTERRUPTS.
000817:
000818: 20,3664           50146                           INDEX    TABPLACE                              #  CHOOSE THE +4 JET NET ACCELERATION


000820: 20,3665           31677                           CAE      1/NET+4Q                              #  INVERSE FOR USE IN URGENCY COMPUTATION.
000821: 20,3666           22007                           ZL                                             #  -------------------------------------
000822: 20,3667           50144                           INDEX    JOBAXES
000823: 20,3670           55717                           TS       1/ACCQ
000824:
000825: 20,3671           50146                           INDEX    TABPLACE
000826: 20,3672           31700                           CAE      1/NET-2Q                              #          1/NET-2Q,R
000827: 20,3673           00006                           EXTEND                                         #  RATIO = ----------
000828: 20,3674           50146                           INDEX    TABPLACE                              #          1/NET+4Q,R
000829: 20,3675           11677                           DV       1/NET+4Q
000830: 20,3676           50144                           INDEX    JOBAXES
000831: 20,3677           55725                           TS       URGRATQ
000832:
000833:                                                                                                  #  SET NJ FOR NEGATIVE ROTATIONS:
000834:
000835: 20,3700           37767        NXTNJZER           CAF      ZERO                                  #  SET NJ      = 0  TO LET THE URGENCY
000836: 20,3701           50145                           INDEX    NJPLACE                               #        -Q,-R      FUNCTIONS SELECT 2 JET
000837: 20,3702           55667                           TS       NJ-Q                                  #                   -Q,-R ROTATION
000838:
000839:                                                                                                  #  TEST FOR END OF Q,R-AXES LOOP:
000840:
000841: 20,3703           10144        UVNEXT             CCS      JOBAXES                               #  JOBAXES = 1 MEANS GO DO Q-AXIS.
000842: 20,3704           13532                           TCF      QRJOB                                 #  JOBAXES = 0 MEANS GO DO U,V-AXES.
000843:


000845:                                                                                                  #  AFTER Q,R-AXES COMPLETE, DO U,V-AXES LOGIC:
000846: 20,3705           00004        UVJOB              INHINT                                         #  PREVENT POSSIBLY EPHEMERAL OPTIONAL NJ
000847:                                                                                                  #  SETTING FROM AFFECTING JET SELECTION.
000848: 20,3706           55672                           TS       NJ+U                                  #  FIRST, ARBITRARILY SET THE U,V-AXIS NJS
000849: 20,3707           55673                           TS       NJ-U                                  #  TO THE ZERO (OPTIONAL) VALUE UNTIL THE
000850: 20,3710           55674                           TS       NJ+V                                  #  TESTS ON AOS ARE MADE BELOW.  (ZERO IS
000851: 20,3711           55675                           TS       NJ-V                                  #  IN A FROM THE PRECEDING  "CCS JOBAXES".)
000852:
000853:                                                                                                  #                                                 2
000854:                                                                                                  #  TEST 1JACCQ - ABVAL(AOSQ) - 0.06 RADIANS/SECOND  GREATER THAN ZERO:
000855:
000856: 20,3712           31614                           CAE      1JACCQ                                #  1JACCQ SCALED AT PI/4 RADIANS/SECOND(2)
000857: 20,3713           00006                           EXTEND                                         #  MULTIPLYING BY ONE-HALF CHANGES SCALING
000858: 20,3714           77746                           MP       BIT14                                 #  TO PI/2 RADIANS/SECOND(2) AS AOSQ.
000859: 20,3715           61655                           AD       -.06R/S2                              #  -0.06 RADIANS/SECOND(2) SCALED AT PI/2.
000860: 20,3716           60152                           AD       ABVLAOSQ                              #  ABVLAOSQ IS -ABVAL(AOSQ) AT PI/2.
000861: 20,3717           00006                           EXTEND
000862: 20,3720           63731                           BZMF     POPNJ1                                #  (BRANCH TO TEST ON SIGN(AOSQ).)
000863:
000864:                                                                                                  #                                                 2
000865:                                                                                                  #  TEST 1JACCR - ABVAL(AOSR) - 0.06 RADIANS/SECOND  GREATER THAN ZERO:
000866:
000867: 20,3721           31615        POPNJ4             CAE      1JACCR                                #  1JACCR SCALED AT PI/4 RADIANS/SECOND(2).
000868: 20,3722           00006                           EXTEND                                         #  MULTIPLYING BY ONE-HALF CHANGES SCALING
000869: 20,3723           77746                           MP       BIT14                                 #  TO PI02 RADIANS/SECOND(2) AS AOSR.
000870: 20,3724           61655                           AD       -.06R/S2                              #  -0.06 RADIANS/SECOND(2) AT PI/2.
000871: 20,3725           60153                           AD       ABVLAOSR                              #  ABVLAOSR IS -BAVAL(AOSR) AT PI/2.
000872: 20,3726           00006                           EXTEND
000873: 20,3727           63742                           BZMF     POPNJ2                                #  (BRANCH TO TEST ON SIGN(AOSR).)
000874:
000875: 20,3730           13525                           TCF      POPNONJ                               #  GO SET DATA GOOD BIT.
000876:
000877:
000878:
000879: 20,3731           11660        POPNJ1             CCS      AOSQ                                  #  SINCE MAGNITUDE OF AOSQ LARGE, NONZERO.
000880: 20,3732           13737                           TCF      POPNJ3
000881: 20,3733           04736                           TC       CCSHOLE
000882: 20,3734           55672                           TS       NJ+U                                  #  SET NJS FOR LARGE NEGATIVE AOSQ.
000883: 20,3735           55675                           TS       NJ-V
000884: 20,3736           13721                           TCF      POPNJ4                                #  GO CHECK MAGNITUDE OF AOSR.
000885:
000886: 20,3737           55673        POPNJ3             TS       NJ-U                                  #  SET NJS FOR LARGE POSITIVE AOSQ.
000887: 20,3740           55674                           TS       NJ+V
000888: 20,3741           13721                           TCF      POPNJ4                                #  GO CHECK MAGNITUDE OF AOSR.
000889:
000890: 20,3742           11661        POPNJ2             CCS      AOSR                                  #  SINCE MAGNITUDE OF AOSR LARGE, NONZERO.
000891: 20,3743           13750                           TCF      POPNJ5
000892: 20,3744           11642        ACCFIFTY           DEC      0.30679                               #  .5(50) SEC(2)/RAD SCALED AT 2(+8)/PI.


000894: 20,3745           55672                           TS       NJ+U                                  #  SET NJS FOR LARGE NEGATIVE AOSR.
000895: 20,3746           55674                           TS       NJ+V
000896: 20,3747           13525                           TCF      POPNONJ                               #  END NICELY.
000897:
000898: 20,3750           55673        POPNJ5             TS       NJ-U                                  #  SET NJS FOR LARGE POSITIVE AOSR.
000899: 20,3751           55675                           TS       NJ-V
000900: 20,3752           13525                           TCF      POPNONJ                               #  END NICELY.
000901:
000902: 20,3753           77456        -.02R/S2           DEC      -.01273                               #  -0.02 RADIANS/SECOND(2) AT PI/2
000903:
000904:                                                                                                  #  THE FOLLOWING BRANCHES SUPPLY CONSTANT VALUES:
000905:
000906: 20,3754           33744        FIFTY1             CAF      ACCFIFTY
000907: 20,3755           13457                           TCF      FIFTY1R
000908:
000909: 20,3756           33744        FIFTY2             CAF      ACCFIFTY
000910: 20,3757           13472                           TCF      FIFTY2R
000911:
000912: 20,3760           33744        FIFTY3             CAF      ACCFIFTY
000913: 20,3761           13551                           TCF      FIFTY3R
000914:


000916:                                                                                                  #  SUBROUTINE NAME: INVACC         MOD. NO. 0  DATE: DECEMBER 3, 1966
000917:
000918:                                                                                                  #  AUTHOR: JONATHAN D. ADDELSTON (ADAMS ASSOCIATES)
000919:
000920:                                                                                                  #  THIS SUBROUTINE IS CALLED BY AOSJOB TO CALCULATE:
000921:
000922:                                                                                                  #                 0.5       WHERE TEMPNET IS SCALED AT PI/2 RADIANS/SECOND(2)
000923:                                                                                                  #      C(A) =   -------
000924:                                                                                                  #               TEMPNET     AND THE FRACTION IS SCALED AT 2(+8)/PI SEC(2)/RAD.
000925:
000926:                                                                                                  #  THIS SIMPLE COMPUTATION WAS SUBROUTINIZED DUE TO ITS FREQUENT USE.
000927:
000928:                                                                                                  #  CALLING SEQUENCE: TC  INVACC
000929:
000930:                                                                                                  #  SUBROUTINES CALLED: NONE.       NORMAL EXIT MODE: ONE INSTRUCTION AFTER CALL.
000931:
000932:                                                                                                  #  ALARM OR ABORT EXIT MODES: NONE.
000933:
000934:                                                                                                  #  INPUT: TEMPNET SCALED AT PI/2 RADIANS/SECONDS(2).
000935:
000936:                                                                                                  #  OUTPUT: C(A) SCALED AT 2(+8)/PI SECONDS(2)/RADIAN.
000937:
000938:                                                                                                  #  DEBRIS: L,Q.
000939:
000940: 20,3762           37755        INVACC             CAF      BIT7                                  #  BIT7 IS USED AS THE NUMERATOR 0.5 SINCE
000941: 20,3763           22007                           ZL
000942: 20,3764           00006                           EXTEND                                         #  "TEMPNET" IS SCALED AT PI/2 AND THE
000943: 20,3765           10151                           DV       TEMPNET
000944: 20,3766           00002                           TC       Q                                     #  INVERSE IS SCALED AT 2(+8)/PI.
000945:


000947:                                                                                                  #  START CODING FOR MODULE 3 REMAKE, AUGUST 1967***START CODING FOR MODULE 3 REMAKE, AUGUST 1967*******************
000948:
000949:                                                                                                  #  FROM DPSENGON: SET FLAGS FOR CRITICAL GTS ENTRIES.
000950:
000951: 20,3767           55310        SETCNTR            TS       DVSELECT                              #  SET SWITCH TO GO TO GIMBLMON
000952:
000953: 20,3770           00006                           EXTEND
000954: 20,3771           33774                           DCA      GETADR                                #  SPACE FOR NEW CODING IN BANK 17
000955: 20,3772           52006                           DXCH     Z
000956:
000957: 20,3773  E6,1744                                  EBANK=   TRIMCNTR
000958: 20,3773           02157 36066  GETADR             2CADR    GETCNTR
000959:
000960:                                                                                                  #  **END CODING FOR MODULE 3 REMAKE, AUGUST 1967*****END CODING FOR MODULE 3 REMAKE, AUGUST 1967*******************

End of include-file AOSTASK_AND_AOSJOB.agc.  Parent file is MAIN.agc


