
Source Code


000002:                                                                                                  ## Copyright:    Public domain.
000003:                                                                                                  ## Filename:     AS206_MISSION_SCHEDULING_PACKAGE.agc
000004:                                                                                                  ## Purpose:      A module for revision 0 of BURST120 (Sunburst). It
000005:                                                                                                  ##               is part of the source code for the Lunar Module's
000006:                                                                                                  ##               (LM) Apollo Guidance Computer (AGC) for Apollo 5.
000007:                                                                                                  ## Assembler:    yaYUL
000008:                                                                                                  ## Contact:      Ron Burkey <info@sandroid.org>.
000009:                                                                                                  ## Website:      www.ibiblio.org/apollo/index.html
000010:                                                                                                  ## Mod history:  2016-09-30 RSB  Created draft version.
000011:                                                                                                  ##               2016-10-29 MAS  Transcribed.
000012:


000014:                                                                                                  #           THE FOLLOWING ROUTINES IMPLEMENT THE MISSION SCHEDULING LOGIC AS DESCRIBED IN CHAPTER 4 OF THE
000015:                                                                                                  #  AS206 OPERATIONS PLAN. THE FOLLOWING ROUTINE IS ENTERED ONCE EACH SECOND FOR MOST OF THE DURATION OF THE
000016:                                                                                                  #  FLIGHT, ONCE LIFT-OFF HAS OCCURRED. AN EXCEPTION TO THIS IS THE TIME-CRI
000017:
000018:                                                                                                  #  RESTART  GROUP  FOR MISSION SCHEDULING PACKAGE IS GROUP 3.
000019:
000020: 31,2000                                           BANK     31
000021: 31,2000     1164                                  EBANK=   MTIMER4
000022:
000023: 31,2000           36311        MMAINT             CAF      THREE                                 #  LOOP TO PROCESS ALL FOUR TIMERS.
000024: 31,2001           54070        MLOOP              TS       RUPTREG1
000025:
000026: 31,2002           50000                           INDEX    A                                     #  LOOK AT TIMER.
000027: 31,2003           11164                           CCS      MTIMER4
000028: 31,2004           12010                           TCF      MCOUNT                                #  PNZ - ACTIVE AND COUNTING DOWN.
000029: 31,2005           12055                           TCF      MDUE                                  #  +0 - MISSION PHASE DUE.
000030: 31,2006           67763                           AD       ONE                                   #  NNZ - FREE BUT LOADED BY GROUND.
000031: 31,2007           40000                           COM                                            #  -0 - FREE.
000032: 31,2010           50070        MCOUNT             INDEX    RUPTREG1                              #  PLACE UPDATED TIMERS AND PHASE REGISTERS
000033: 31,2011           55174                           TS       MTIMER4T                              #  INTO COPY BUFFER FOR RESTART PROTECTION.
000034:
000035: 31,2012           10070        MDUERET            CCS      RUPTREG1
000036: 31,2013           12001                           TCF      MLOOP
000037:
000038: 31,2014           11201        MCHKST             CCS      STATECTR                              #  SEE IF POSSIBLY TIME FOR INTERNAL STATE
000039: 31,2015           12034                           TCF      MSTATEOK                              #  VECTOR EXTRAPOLATION.
000040:
000041: 31,2016           36311                           CAF      THREE                                 #  IF SO, DO UPDATE UNLESS WE ARE WITHIN 16
000042: 31,2017           54070        MSTATECK           TS       RUPTREG1                              #  SECONDS OF THE INITIATION OF ANY MISSION
000043: 31,2020           45343                           CS       LOW4                                  #  PHASE.
000044: 31,2021           50070                           INDEX    RUPTREG1
000045: 31,2022           71164                           MASK     MTIMER4
000046: 31,2023           00006                           EXTEND
000047: 31,2024           12033                           BZF      MSTATEOK   -1                         #  BRANCH IF PHASE DUE WITHIN 16 SECS.
000048:
000049: 31,2025           10070                           CCS      RUPTREG1
000050: 31,2026           12017                           TCF      MSTATECK
000051:
000052: 31,2027           35633                           CAF      PRIO5
000053: 31,2030           05516                           TC       FINDVAC                               #  TO DO THE INTEGRATION.
000054: 31,2031  E4,1566                                  EBANK=   TDEC
000055: 31,2031           02247 16064                     2CADR    STATEINT
000056:
000057: 31,2033           35204                 -1        CAF      STATECRI
000058: 31,2034           55201        MSTATEOK           TS       STATECTR
000059:
000060: 31,2035           04161                           TC       PHASCHNG
000061: 31,2036           00113                           OCT      00113
000062:
000063: 31,2037           32054        REDO3.11           CAF      1SEC


000065: 31,2040           05663                           TC       WAITLIST
000066: 31,2041     1164                                  EBANK=   MTIMER4
000067: 31,2041           02000 62062                     2CADR    MMAINT
000068:
000069: 31,2043           00006                           EXTEND
000070: 31,2044           31175                           DCA      MTIMER4T
000071: 31,2045           53165                           DXCH     MTIMER4
000072: 31,2046           00006                           EXTEND
000073: 31,2047           31177                           DCA      MTIMER4T   +2
000074: 31,2050           53167                           DXCH     MTIMER2
000075:
000076: 31,2051           04161                           TC       PHASCHNG
000077: 31,2052           40133                           OCT      40133
000078:
000079: 31,2053           05727                           TC       TASKOVER
000080:
000081: 31,2054           00144        1SEC               DEC      100        B-14
000082:


000084:                                                                                                  #           THE FOLLOWING CODING DISPATCHES DUE MISSION PHASES VIA A TABLE OF EXECUTIVE PRIORITIES AND 2CADRS.
000085:
000086: 31,2055           30070        MDUE               CA       RUPTREG1
000087: 31,2056           55200                           TS       MDUETEMP                              #  COPY FOR RESTART PROTECTION
000088:
000089: 31,2057           50070                           INDEX    RUPTREG1                              #  GET NUMBER OF NEW PHASE AND MP BY NUMBER
000090: 31,2060           31170                           CA       MPHASE4                               #  OF TABLE ENTRIES PER PHASE TO GET ADDRES
000091: 31,2061           00006                           EXTEND                                         #  OF TABLE ENTRY FOR THIS PHASE.
000092: 31,2062           12410                           BZF      BADPHASE                              #  INACTIVE MPHASE HERE IS VERY BAD.
000093: 31,2063           54764                           TS       PHASENUM                              #  HOLDS CURRENT MP NUMBER FOR DOWNLINK
000094: 31,2064           00006                           EXTEND
000095: 31,2065           76311                           MP       THREE
000096: 31,2066           50001                           INDEX    L
000097: 31,2067           32333                           CA       MTABLE                                #  PRIO, INHIBIT/ENABLE INFO., ETC.
000098: 31,2070           54071                           TS       RUPTREG2
000099: 31,2071           77765                           MASK     SEVEN                                 #  HONOR INHIBIT/ENABLE FUNCTION.
000100: 31,2072           70076                           MASK     FLAGWRD2
000101: 31,2073           10000                           CCS      A
000102: 31,2074           12117                           TCF      MBYPASS
000103:
000104: 31,2075           35660                           CAF      PRIO37
000105: 31,2076           70071                           MASK     RUPTREG2
000106: 31,2077           54063                           TS       NEWPRIO
000107: 31,2100           00006                           EXTEND
000108: 31,2101           50001                           INDEX    L                                     #  PICK UP 2CADR AND DO FINDVAC.
000109: 31,2102           32335                           DCA      MTABLE     +1
000110: 31,2103           05526                           TC       SPVAC
000111:
000112: 31,2104           04141                           TC       2PHSCHNG
000113: 31,2105           00032                           OCT      32                                    #  2.3 SPOT FOR REDOMDUE
000114: 31,2106           00003                           OCT      3                                     #  GROUP 3 OFF
000115:
000116: 31,2107           02121        MTIMEDWN           TC       MTIMEFIX
000117:
000118: 31,2110           35210                           CAF      PRIO30
000119: 31,2111           05505                           TC       NOVAC
000120: 31,2112     1164                                  EBANK=   MTIMER4
000121: 31,2112           02145 62062                     2CADR    UPDATKIL
000122:
000123: 31,2114           06076                           TC       FLAG2DWN
000124: 31,2115           00020                           OCT      20
000125:
000126: 31,2116           05727                           TC       TASKOVER
000127:
000128: 31,2117           02121        MBYPASS            TC       MTIMEFIX
000129: 31,2120           12012                           TCF      MDUERET
000130:
000131: 31,2121           47767        MTIMEFIX           CS       ZERO
000132: 31,2122           51200                           INDEX    MDUETEMP                              #  MAKE THIS MTIMER/MPHASE PAIR AVAILABLE.
000133: 31,2123           55164                           TS       MTIMER4
000134:


000136: 31,2124           51200                           INDEX    MDUETEMP
000137: 31,2125           55170                           TS       MPHASE4
000138: 31,2126           51200                           INDEX    MDUETEMP
000139: 31,2127           55174                           TS       MTIMER4T
000140: 31,2130           00002                           TC       Q
000141:


000143:                                                                                                  #  RESTART  ROUTIN E TO RESCHEDULE MISSION PHASE
000144:
000145: 31,2131           30764        REDOMDUE           CA       PHASENUM                              #  FIND PRIO AND 2CADR OF NEW MP IN TABLE.
000146: 31,2132           00006                           EXTEND
000147: 31,2133           76311                           MP       THREE
000148: 31,2134           50001                           INDEX    L
000149: 31,2135           32333                           CA       MTABLE
000150: 31,2136           75660                           MASK     PRIO37
000151: 31,2137           54063                           TS       NEWPRIO
000152: 31,2140           00006                           EXTEND
000153: 31,2141           50001                           INDEX    L
000154: 31,2142           32335                           DCA      MTABLE     +1
000155: 31,2143           05526                           TC       SPVAC                                 #  DO FINDVAC WITH 2CADR IN A +  L
000156: 31,2144           12107                           TCF      MTIMEDWN
000157:
000158:
000159:
000160:                                                                                                  #  DO A PSEUDO VERB 34 ENTER TO KILL AN UPDATE IN PROGRESS, AND TO RELEASE THE DSKY.
000161:
000162: 31,2145           32373        UPDATKIL           CAF      34OCT
000163: 31,2146           54304                           TS       REQRET
000164: 31,2147           05206                           TC       BANKCALL
000165: 31,2150           12314                           CADR     UPDATVB    -1
000166:
000167: 31,2151           05225                           TC       POSTJUMP
000168: 31,2152           11333                           CADR     VBTERM                                #  GOES TO ENDOFJOB WHEN DONE
000169:


000171:                                                                                                  #           THE FOLLOWING SUBROUTINE MAY BE USED BY MISSION PROGRAMS TO SET MISSION PHASE/TIMER PAIRS TO INITIATE
000172:                                                                                                  #  THE VARIOUS MISSION PHASES (SEE CHAPTER 4 OF THE GSOP).
000173:
000174:                                                                                                  #           CALLING SEQUENCE IS AS FOLLOWS:
000175:
000176:                                                                                                  #                                                   TC     MPENTRY         UNDER CONTROL OF EXEC OR RUPT.
000177:                                                                                                  #                                                   DEC    INDEX           INDEX OF TIMER (1 TO 4).
000178:                                                                                                  #                                                   DEC    PHASE           MISSION PHASE NUMBER.
000179:                                                                                                  #                                                   ADRES  DT              DT = TIME (SECONDS) TO INITIATION.
000180:                                                                                                  #                                                                          (EBANK MUST ALREADY BE SET.)
000181:
000182:    5126                                           BLOCK    02
000183:    5126           00004        MPENTRY            INHINT
000184:    5127           50002                           INDEX    Q                                     #  MAKE INTERNAL INDEX.
000185:    5130           40000                           CS       0
000186:    5131           67761                           AD       FOUR
000187:    5132           54070                           TS       RUPTREG1
000188:
000189:    5133           50000                           INDEX    A                                     #  IF THIS MISSION PHASE REGISTER IS NOT
000190:    5134           11170                           CCS      MPHASE4                               #  -0, IT HAS BEEN CHANGED BY THE GROUND,
000191:    5135           15144                           TCF      MENTRYT                               #  SO LEAVE IT ALONE
000192:    5136           15144                           TCF      MENTRYT
000193:    5137           15144                           TCF      MENTRYT
000194:
000195:    5140           50002                           INDEX    Q
000196:    5141           30001                           CAF      1
000197:    5142           50070                           INDEX    RUPTREG1
000198:    5143           55170                           TS       MPHASE4
000199:
000200:    5144           50070        MENTRYT            INDEX    RUPTREG1                              #  IF THE TIMER IS -0, SET IT TO THE INPUT
000201:    5145           11164                           CCS      MTIMER4                               #  VALUE, OTHERWISE, ASSUME IT HAS BEEN
000202:    5146           67763                           AD       ONE                                   #  SET BY THE GROUND AND JUST FORCE IT POS.
000203:    5147           15155                           TCF      MENTABS
000204:    5150           15146                           TCF      -2
000205:
000206:    5151           50002                           INDEX    Q
000207:    5152           30002                           CAF      2
000208:    5153           50000                           INDEX    A
000209:    5154           30000                           CA       0
000210:    5155           50070        MENTABS            INDEX    RUPTREG1
000211:    5156           55164                           TS       MTIMER4
000212:
000213:    5157           36311                           CAF      THREE                                 #  MAKE UP RETURN SO COMMON ROUTINE CAN BE
000214:    5160           60002                           AD       Q                                     #  USED TO INITATE TIMER COUNTING.
000215:    5161           55207                 -1        TS       MRETURN
000216:


000218:                                                                                                  #  SUBROUTINE TO START MISSION TIMERS IF THEY ARE NOT GOING ALREADY.
000219:
000220:    5162           30076        MSTART             CA       FLAGWRD2                              #  SEE IF TIMERS ENABLED ALREADY.
000221:    5163           77757                           MASK     BIT5
000222:    5164           10000                           CCS      A
000223:    5165           15202                           TCF      MDONE                                 #  YES - RETURN.
000224:
000225:    5166           15171                           TCF      +3                                    #  THERE USED TO BE A PHASE CHANGE HERE.
000226:    5167           04736                           TC       CCSHOLE
000227:    5170           04736                           TC       CCSHOLE
000228:
000229:    5171           06060                           TC       FLAG2UP                               #  SHOW TIMERS ENABLED.
000230:    5172           00020                           OCT      20
000231:
000232:    5173           00004                           INHINT
000233:
000234:    5174           35204                           CAF      STATECRI                              #  INITIALIZE STATE VECTOR EXTRAPOLATION
000235:    5175           55201                           TS       STATECTR                              #  TIMER.
000236:
000237:    5176           37763                           CAF      ONE
000238:    5177           05663                           TC       WAITLIST
000239:    5200     1164                                  EBANK=   MTIMER4
000240:    5200           02000 62062                     2CADR    MMAINT                                #  START COUNTER MAINTENANCE.
000241:
000242:    5202           00003        MDONE              RELINT
000243:    5203           01207                           TC       MRETURN
000244:
000245:    5204           01033        STATECRI           DEC      539        B-14                       #  CALLS FOR INTEGRATION EVERY 539 SEC.
000246:    5205           00145        1SEC+1             DEC      101        B-14
000247:


000249:                                                                                                  #  SUBROUTINE CALLS FOR VARIOUS UPDATE OPTIONS (SEE GSOP).  ENTER UNDER EXEC WITH INTERRUPT INHIBITED.
000250:
000251: 31,2153                                           BANK     31
000252: 31,2153           02265        DOV70              TC       MTIMERUP                              #  VERB 70
000253: 31,2154           12351                           TCF      ENDUP
000254:
000255: 31,2155           02221        DOV71              TC       MPHASEUP                              #  VERB 71
000256: 31,2156           12161                           TCF      DOV72      +2
000257:
000258: 31,2157           02221        DOV72              TC       MPHASEUP                              #  VERB 72
000259: 31,2160           02265                           TC       MTIMERUP
000260: 31,2161           31202                 +2        CA       UPPHASE                               #  FOR V72, WE DON'T ALTER THE MPHASE
000261: 31,2162           50070                           INDEX    RUPTREG1                              #  REGISTER UNTIL SURE THAT TIMER CHANGE
000262: 31,2163           55170                           TS       MPHASE4                               #  IS LEGAL.
000263: 31,2164           12351        TCFENDUP           TCF      ENDUP
000264:


000266:                                                                                                  #  INVERT INHIBIT/ENABLE SWITCH WHOSE INDEX IS IN UPINDEX (1 TO 3).  ENTER UNDER EXEC WITH INTERRUPT INHIBITED.
000267:
000268: 31,2165           47762        DOV73              CS       TWO
000269: 31,2166           61204                           AD       UPINDEX
000270: 31,2167           04323                           TC       MAGSUB                                #  SEE IF INDEX LEGIT.
000271: 31,2170           77776                           DEC      -1         B-14
000272: 31,2171           12356                           TCF      UPERROR
000273:
000274: 31,2172           51204                           INDEX    UPINDEX
000275: 31,2173           37760                           CAF      BIT3       -1                         #  BITS IN POSITIONS 3, 2, AND 1 OF
000276: 31,2174           54001                           TS       L                                     #  FLAGWRD2 (SEE SWITCH ASSIGNMENTS).
000277: 31,2175           30076                           CA       FLAGWRD2
000278: 31,2176           00006                           EXTEND
000279: 31,2177           06001                           RXOR     L
000280: 31,2200           54076                           TS       FLAGWRD2
000281: 31,2201           12351                           TCF      ENDUP
000282:
000283:                                                                                                  #           THE FOLLOWING CODING ISSUES THE SINGLE LMP COMMAND FOUND IN UPINDEX PROVIDED THE TIMERS ARE ENABLED
000284:                                                                                                  #  (NON TIME CRITICAL PHASE OF MISSION).
000285:
000286: 31,2202           40076        DOV67              CS       FLAGWRD2
000287: 31,2203           77757                           MASK     BIT5
000288: 31,2204           10000                           CCS      A
000289: 31,2205           12356                           TCF      UPERROR
000290:
000291: 31,2206           47754                           CS       BIT8                                  #  COMMAND MUST BE BETWEEN 1 AND 255.
000292: 31,2207           61204                           AD       UPINDEX
000293: 31,2210           04323                           TC       MAGSUB
000294: 31,2211           77600                           DEC      -127       B-14
000295: 31,2212           12356                           TCF      UPERROR
000296:
000297: 31,2213           32220                           CAF      TC1LMP
000298: 31,2214           55203                           TS       UPINDEX    -1
000299: 31,2215           32164                           CAF      TCFENDUP
000300: 31,2216           55205                           TS       UPINDEX    +1
000301: 31,2217           01203                           TC       UPINDEX    -1
000302:
000303: 31,2220           05060        TC1LMP             TC       1LMP                                  #  FOR ERASABLE CALL.
000304:


000306:                                                                                                  #           THE FOLLOWING CODING UPDATES A MISSION PHASE NUMBER WHOSE INDEX IS IN UPINDEX TO THE VALUE FOUND
000307:                                                                                                  #  IN UPPHASE. RETURN IS TO CALLER IF DATA OK, OR TO UPERROR IF DATA OUT OF RANGE.
000308:
000309: 31,2221           30002        MPHASEUP           CA       Q
000310: 31,2222           02250                           TC       CHKUPDEX                              #  CHECK INDEX VALUE AND MAKE INTERNAL NDX.
000311:
000312: 31,2223           11202                           CCS      UPPHASE                               #  CHECK ON SIZE OF PHASE.
000313: 31,2224           12230                           TCF      +4
000314: 31,2225           12356                           TCF      UPERROR
000315: 31,2226           12356                           TCF      UPERROR
000316: 31,2227           12356                           TCF      UPERROR
000317:
000318: 31,2230           04323                 +4        TC       MAGSUB
000319: 31,2231           77756                           OCT      -21                                   #  ALLOW PHASES 1 - 18D ONLY.
000320: 31,2232           12356                           TCF      UPERROR                               #  FOR BAD RETURN FROM MAGSUB
000321: 31,2233           41202                           CS       UPPHASE                               #  CHECK LEGALITY OF UPPHASE
000322: 31,2234           66306                           AD       SIX
000323: 31,2235           10000                           CCS      A
000324: 31,2236           12356                           TCF      UPERROR
000325: 31,2237           72400        MPLEGAL            OCT      72400                                 #  BITS 15 - 1 = 1 FOR MP 7 - 21 LEGAL
000326: 31,2240           12242                           TCF      +2
000327: 31,2241           12356                           TCF      UPERROR
000328:
000329: 31,2242           50000                           INDEX    A
000330: 31,2243           37745                           CA       BIT15
000331: 31,2244           72237                           MASK     MPLEGAL
000332: 31,2245           00006                           EXTEND
000333: 31,2246           12356                           BZF      UPERROR
000334:
000335: 31,2247           01207                           TC       MRETURN
000336:
000337:                                                                                                  #  MINOR SUBROUTINE TO CHECK MISSION TIMER/PHASE UPDATE INDEX AND LEAVE CORRESPONDING VALUE IN RUPTREG1.
000338:
000339:                                                                                                  #  TO BE ENTERED WITH INTERRUPT INHIBITED:
000340:
000341: 31,2250           55207        CHKUPDEX           TS       MRETURN                               #  CALLER'S RETURN ARRIVES IN A.
000342: 31,2251           11204                 +1        CCS      UPINDEX
000343: 31,2252           12256                           TCF      +4
000344: 31,2253           12356                           TCF      UPERROR
000345: 31,2254           12356                           TCF      UPERROR
000346: 31,2255           12356                           TCF      UPERROR
000347:
000348: 31,2256           75340                 +4        MASK     NEG3
000349: 31,2257           10000                           CCS      A
000350: 31,2260           12356                           TCF      UPERROR
000351:
000352: 31,2261           41204                           CS       UPINDEX                               #  MAKE INTERNAL VALUE.
000353: 31,2262           67761                           AD       FOUR
000354: 31,2263           54070                           TS       RUPTREG1
000355: 31,2264           00002                           TC       Q
000356:


000358:                                                                                                  #           THE FOLLOWING CODING UPDATES THE MISSION TIMER WHOSE INDEX IS IN UPINDEX BY ADDING THE CONTENTS OF UPDT
000359:                                                                                                  #  TO IT. OUTCOMES DEPEND ON WHETHER THE TIMER WAS COUNTING AT THE TIME, AND THE SIGN OF THE RESULT (SEE GSOP).
000360:
000361: 31,2265           30002        MTIMERUP           CA       Q                                     #  GO TO COMMON SUBROUTINE TO SAVE RETURN
000362: 31,2266           02250                           TC       CHKUPDEX                              #  AND CHECK INDEX.
000363: 31,2267           50070                           INDEX    RUPTREG1                              #  SEE IF TIMER IS COUNTING NOW.
000364: 31,2270           11164                           CCS      MTIMER4
000365: 31,2271           12276                           TCF      TUPBUSY                               #  POS INDICATES IT IS.
000366: 31,2272           12276                           TCF      TUPBUSY
000367: 31,2273           12274                           NOOP
000368:
000369: 31,2274           31203                           CA       UPDT                                  #  IF NOT BUSY, LOAD WITH DT DIRECTLY, WITH
000370: 31,2275           12303                           TCF      CTRABS                                #  NO CHANGE TO THE MAINTENANCE FLAG STATE.
000371:
000372: 31,2276           11203        TUPBUSY            CCS      UPDT                                  #  IF TIMER COUNTING, SEE IF DT ZERO.
000373: 31,2277           12306                           TCF      CTRAD                                 #  NZ - DO ADD.
000374: 31,2300           12303                           TCF      CTRABS                                #  +0 - PHASE DUE NEXT MAINTENANCE CYCLE.
000375: 31,2301           12306                           TCF      CTRAD
000376:
000377: 31,2302           47767                           CS       ZERO                                  #  IF -0, DISABLE TIMER.
000378: 31,2303           50070        CTRABS             INDEX    RUPTREG1
000379: 31,2304           55164                           TS       MTIMER4
000380: 31,2305           01207                           TC       MRETURN
000381:
000382: 31,2306           02314        CTRAD              TC       CTRADSUB
000383: 31,2307           10000                           CCS      A                                     #  IF RESULT NEGATIVE OR ZERO, PHASE DUE
000384: 31,2310           01207                           TC       MRETURN                               #  NEXT MAINTENANCE CYCLE.
000385: 31,2311           01207                           TC       MRETURN
000386: 31,2312           37767                           CAF      ZERO
000387: 31,2313           12303                           TCF      CTRABS                                #  (THIS ALONE REVERTS -0 TO +0.)
000388:
000389:
000390:
000391: 31,2314           31203        CTRADSUB           CA       UPDT
000392: 31,2315           50070                           INDEX    RUPTREG1
000393: 31,2316           61164                           AD       MTIMER4
000394: 31,2317           54000                           OVSK
000395: 31,2320           12322                           TCF      +2                                    #  NO OVERFLOW (NORMAL CASE).
000396: 31,2321           02356                           TC       UPERROR                               #  IF OVFLO, GO TO UPERROR WITH TIMER
000397: 31,2322           50070                           INDEX    RUPTREG1                              #  UNCHANGED.
000398: 31,2323           55164                           TS       MTIMER4
000399: 31,2324           00002                           TC       Q
000400:


000402:                                                                                                  #           THE FOLLOWING CODING IS THE SAME AS MTIMERUP BUT ACCEPTS DP GET IN UPGET (SEE GSOP).
000403:
000404: 31,2325           06112        MGETUP             TC       INTPRET                               #  MAKE SURE THIS ENTERED WITH VAC AREA.
000405:
000406: 31,2326           44234                           RTB      BDSU                                  #  TIME IN CS.
000407: 31,2327           33454                                    LOADTIME
000408: 31,2330           01206                                    UPGET
000409: 31,2331           54205                           DMP      SL                                    #  CONVERT TO SEC & MOVE TO MAJOR PART.
000410: 31,2332           22372                                    1/100
000411: 31,2333           20217                                    14D
000412: 31,2334           50004                           BOVB     BMN
000413: 31,2335           62356                                    UPERROR
000414: 31,2336           62355                                    UPERROR    -1                         #  (DOES AN EXIT.)
000415:
000416: 31,2337           77776                           EXIT
000417:
000418: 31,2340           00004                           INHINT
000419: 31,2341           37757                           CA       BIT5                                  #  INSURE THAT MAINTENANCE IS STILL ENABLED
000420: 31,2342           70076                           MASK     FLAGWRD2
000421: 31,2343           00006                           EXTEND
000422: 31,2344           12356                           BZF      UPERROR
000423:
000424: 31,2345           02251                           TC       CHKUPDEX   +1
000425: 31,2346           30144                           CA       MPAC                                  #  CONTAINS DT IN SECONDS.
000426: 31,2347           50070                           INDEX    RUPTREG1
000427: 31,2350           55164                           TS       MTIMER4                               #  INSERT DT DIRECTLY INTO TIMER.
000428:
000429:                                                                                                  #           GENERAL EXIT LOCATION FOR SUCCESSFULLY COMPLETED UPDATE:
000430:
000431: 31,2351           37767        ENDUP              CAF      ZERO                                  #  TURN OFF GROUP 6.
000432: 31,2352           04246                           TC       NEWPHASE
000433: 31,2353           00006                           OCT      6
000434:
000435: 31,2354           15567                           TCF      ENDOFJOB
000436:
000437:                                                                                                  #           EXIT FOR GENERAL UPDATE ERRORS (RANGE OF DATA, ETC.)
000438:
000439: 31,2355           77776                 -1        EXIT
000440:
000441: 31,2356           04571        UPERROR            TC       FALTON
000442: 31,2357           12351                           TCF      ENDUP                                 #  RELINT, & ENDOFJOB.
000443:


000445:                                                                                                  #           THE FOLLOWING TABLE SPECIFIES STARTING LOCATIONS AND PRIORITIES OF ALL 206 MISSION PHASES INITIATED BY
000446:                                                                                                  #  THE MISSION TIMERS (S4B-LEM SEP AND BEYOND). IT ALSO CONTAINS INHIBIT/ENABLE INFORMATION, ETC. EACH ENTRY
000447:                                                                                                  #  CONSISTS OF THREE WORDS. THE FIRST IS PACKED WITH SEVERAL PIECES OF INFORMATION, AND THE SECOND TWO CONTAIN THE
000448:                                                                                                  #  2CADR OF THE LOCATION AT WHICH THE PHASE IS TO BEGIN. THE INTERPRETATION OF WORD 1 IS AS FOLLOWS:
000449:
000450:                                                                                                  #           BIT15:         SPARE
000451:                                                                                                  #           BITS 14-10:    JOB PRIORITY.
000452:                                                                                                  #           BITS 9-5:      SPARE
000453:                                                                                                  #           BIT4:          1 IF TIMERS TO BE DISABLED ON PHASE INITIATION.
000454:                                                                                                  #           BIT3:          1 IF RCS TESTS (INHIBIT/ENABLE INFO).
000455:                                                                                                  #           BIT2:                  1 IF DPS COLD SOAK
000456:                                                                                                  #           BIT1:                  1 IF RCS COLD SOAK
000457:
000458:                                                                                                  #  NOTE SPARES COULD BE USED FOR SWITCHING DOWNLISTS, ETC.
000459:
000460:                                                                                                  #           PHASES 1 - 6 ARE NOT INCLUDED SINCE THEY ARE NOT INITIATED BY THE MISSION SCHEDULING ROUTINES.
000461: 31,2360           20010        MTABLE1            OCT      20010                                 #  MP7
000462: 31,2361  E4,1566                                  EBANK=   TDEC
000463: 31,2361           02474 52064                     2CADR    MP07JOB
000464:
000465: 31,2363           20012                           OCT      20012                                 #  MP8
000466: 31,2364  E3,1652                                  EBANK=   RATEINDX
000467: 31,2364           02564 56063                     2CADR    MP8JOB
000468:
000469: 31,2366           20010                           OCT      20010                                 #  MP9
000470: 31,2367  E4,1566                                  EBANK=   TDEC
000471: 31,2367           02724 66064                     2CADR    MP9JOB
000472:
000473: 31,2371           00243 32703  1/100              2DEC     0.01                                  #  MP 10.  UNUSED SLOT.
000474:
000475: 31,2373           00034        34OCT              OCT      00034
000476:
000477: 31,2374           20010                           OCT      20010                                 #  MP11
000478: 31,2375  E4,1566                                  EBANK=   TDEC
000479: 31,2375           02000 74064                     2CADR    MP11JOB
000480:
000481: 31,2377           04736                           TC       CCSHOLE                               #  MP 12.  UNUSED SLOT.
000482: 31,2400           04736                           TC       CCSHOLE
000483: 31,2401           04736                           TC       CCSHOLE
000484:
000485: 31,2402           20010                           OCT      20010                                 #  MP13
000486: 31,2403  E4,1566                                  EBANK=   TDEC
000487: 31,2403           03114 56064                     2CADR    MP13JOB
000488:
000489: 31,2405           04736                           TC       CCSHOLE                               #  MP 14.  UNUSED SLOT.
000490: 31,2406           04736                           TC       CCSHOLE
000491: 31,2407           04736                           TC       CCSHOLE
000492:
000493: 31,2410  31,2333               MTABLE             EQUALS   MTABLE1    -21D                       #  MP 1-6 NOT ACTUALLY INCLUDED IN TABLE.
000494:


000496: 31,2410           04755        BADPHASE           TC       ALARM                                 #  ALARM WHEN MPHASE COMES DUE BUT MPHASE
000497: 31,2411           00601                           OCT      00601                                 #  REGISTER IS ZERO (-0 MEANS INACTIVE).
000498:
000499: 31,2412           35660                           CAF      PRIO37
000500: 31,2413           05505                           TC       NOVAC
000501: 31,2414  E3,1400                                  EBANK=   LST1
000502: 31,2414           02007 16063                     2CADR    FORGETIT
000503:
000504: 31,2416           05727                           TC       TASKOVER

End of include-file AS206_MISSION_SCHEDULING_PACKAGE.agc.  Parent file is MAIN.agc


