
Source Code


000002:                                                                                                  ## Copyright:   Public domain.
000003:                                                                                                  ## Filename:    ATTITUDE_MANEUVER_ROUTINE.agc
000004:                                                                                                  ## Purpose:     A module for revision 0 of BURST120 (Sunburst). It
000005:                                                                                                  ##              is part of the source code for the Lunar Module's
000006:                                                                                                  ##              (LM) Apollo Guidance Computer (AGC) for Apollo 5.
000007:                                                                                                  ## Assembler:   yaYUL
000008:                                                                                                  ## Contact:     Ron Burkey <info@sandroid.org>.
000009:                                                                                                  ## Website:     www.ibiblio.org/apollo/index.html
000010:                                                                                                  ## Mod history: 2016-09-30 RSB  Created draft version.
000011:                                                                                                  ##              2016-10-20 MAS  Began adapting from Luminary 099.
000012:                                                                                                  ##              2016-10-21 MAS  Completed adapting/transcribing.
000013:                                                                                                  ##              2016-10-31 RSB  Typos.
000014:                                                                                                  ##              2016-11-01 RSB  More typos.
000015:                                                                                                  ##              2016-11-02 RSB  More typos.
000016:                                                                                                  ##              2016-12-06 RSB  Comment-proofing with octopus/ProoferComments,
000017:                                                                                                  ##                              changes made.
000018:                                                                                                  ##              2017-03-07 RSB  Comment-text fixes noted in proofing Luminary 116.
000019:                                                                                                  ##              2017-03-15 RSB  Comment-text fixes identified in 6-way
000020:                                                                                                  ##                              side-by-side diff of Sunburst 120 and
000021:                                                                                                  ##                              Luminary 69/99/116/131/210.
000022:                                                                                                  ##              2017-06-13 RSB  Some white-space corrections identified while
000023:                                                                                                  ##                              transcribing Sunburst 37.
000024:


000026:                                                                                                  #  BLOCK 2 LGC ATTITUDE MANEUVER ROUTINE-KALCMANU
000027:
000028:
000029:
000030:                                                                                                  #  MOD 1                          DATE  11/7/66       BY  DON KEENE
000031:                                                                                                  #  PROGRAM DESCRIPTION
000032:
000033:                                                                                                  #       KALCMANU IS A ROUTINE WHICH GENERATES COMMANDS FOR THE LM DAP TO CHANGE THE ATTITUDE OF THE SPACECRAFT
000034:                                                                                                  #  DURING FREE FALL.  IT IS DESIGNED TO MANEUVER THE SPACECRAFT FROM ITS INITIAL ORIENTATION TO SOME DESIRED
000035:                                                                                                  #  ORIENTATION SPECIFIED BY THE PROGRAM WHICH CALLS KALCMANU, AVOIDING GIMBAL LOCK IN THE PROCESS.  IN THE
000036:                                                                                                  #  MOD 1 VERSION, THIS DESIRED ATTITUDE CAN BE SPECIFIED IN ONE OF TWO WAYS
000037:
000038:                                                                                                  #       A) BY A SET OF THREE COMMANDED CDU ANGLES
000039:
000040:                                                                                                  #       B) BY A VECTOR IN STABLE MEMBER COORDINATES ALONG WHICH THE THRUST VECTOR (GIVEN IN SPACECRAFT
000041:                                                                                                  #          COORDINATES IS TO BE ALIGNED.
000042:
000043:                                                                                                  #       IF THE FIRST METHOD IS USED, THE THREE DESIRED CDU ANGLES MUST BE STORED AS 2:S COMPLEMENT SINGLE
000044:                                                                                                  #  PRECISION ANGLES IN THE THREE CONSECUTIVE LOCATIONS, CPHI, CTHETA, CPSI, WHERE
000045:
000046:                                                                                                  #       CPHI = COMMANDED OUTER GIMBAL ANGLE
000047:                                                                                                  #       CTHETA = COMMANDED INNER GIMBAL ANGLE
000048:                                                                                                  #       CPSI = COMMANDED MIDDLE GIMBAL ANGLE
000049:
000050:                                                                                                  #  THE ENTRY POINT IN KALCMANU FOR THIS METHOD IS KALCMAN3 (SEE SECTION 4)
000051:
000052:                                                                                                  #       THE SECOND METHOD MAY BE USED FOR POINTING THE THRUST AXIS OF THE SPACECRAFT.  IN THIS CASE THE AXIS TO
000053:                                                                                                  #  BE POINTED MUST APPEAR AS A HALF UNIT DOUBLE PRECISION VECTOR IN SUCCESSIVE LOCATIONS OF ERASABLE MEMORY
000054:                                                                                                  #  BEGINNING WITH THE LOCATION CALLED SCAXIS. THE COMPONENTS OF THIS VECTOR ARE GIVEN IN SPACECRAFT COORDINATES.
000055:                                                                                                  #  THE DIRECTION IN WHICH THIS AXIS IS TO BE POINTED MUST APPEAR AS A HALF UNIT DOUBLE PRECISION VECTOR IN
000056:                                                                                                  #  SUCCESSIVE LOCATIONS OF ERASABLE MEMORY BEGINNING WITH THE ADDRESS CALLED POINTVSM.  THE COMPONENTS OF
000057:                                                                                                  #  THIS VECTOR ARE GIVEN IN STABLE MEMBER COORDINATES.
000058:
000059:                                                                                                  #                                                                             -
000060:                                                                                                  #       KALCMANU DETERMINES THE DIRECTION OF THE SINGLE EQUIVALENT ROTATION (COF ALTERNATELY TERMED U) AND THE
000061:                                                                                                  #  MAGNITUDE OF THE ROTATION (AM) TO BRING THE S/C FROM ITS INITIAL ORIENTATION TO ITS FINAL ORIENTATION.
000062:                                                                                                  #  THIS DIRECTION REMAINS FIXED BOTH IN INERTIAL COORDINATES AND IN COMMANDED S/C AXES THROUGHOUT THE
000063:                                                                                                  #                   -
000064:                                                                                                  #  MANEUVER.  ONCE COF AND AM HAVE BEEN DETERMINED, KALCMANU THEN EXAMINES THE MANEUVER TO SEE IF IT WILL BRING
000065:                                                                                                  #                                        -
000066:                                                                                                  #  THE S/C THROUGH GIMBAL LOCK.  IF SO, COF AND AM ARE READJUSTED SO THAT THE S/C WILL JUST SKIM THE GIMBAL
000067:                                                                                                  #  LOCK ZONE AND ALIGN THE X-AXIS.  IN GENERAL A FINAL YAW  ABOUT X WILL BE NECESSARY TO COMPLETE THE MANEUVER.
000068:                                                                                                  #  NEEDLESS TO SAY, NEITHER THE INITIAL NOR THE FINAL ORIENTATION CAN BE IN GIMBAL LOCK.
000069:
000070:                                                                                                  #       FOR PROPER ATTITUDE CONTROL THE DIGITAL AUTOPILOT MUST BE GIVEN AN ATTITUDE REFERENCE WHICH IT CAN TRACK.
000071:                                                                                                  #  KALCMANU DOES THIS BY GENERATING A REFERENCE OF DESIRED GIMBAL ANGLES (CDUXD, CDUYD, CDUZD) WHICH ARE UPDATED
000072:                                                                                                  #  EVERY ONE SECOND DURING THE MANEUVER.  TO ACHIEVE A SMOOTHER SEQUENCE OF COMMANDS BETWEEN SUCCESSIVE UPDATES,
000073:                                                                                                  #  THE PROGRAM ALSO GENERATES A SET OF INCREMENTAL CDU ANGLES (DELDCDU) TO BE ADDED TO CDU DESIRED BY THE DIGITAL
000074:                                                                                                  #  AUTOPILOT.  KALCMANU ALSO CALCULATES THE COMPONENT MANEUVER RATES (OMEGAPD, OMEGAQD, OMEGARD), WHICH CAN
000075:                                                                                                  #                                       -


000077:                                                                                                  #  BE DETERMINED SIMPLY BY MULTIPLYING COF BY SOME SCALAR (ARATE) CORRESPONDING TO THE DESIRED ROTATIONAL RATE.
000078:
000079:                                                                                                  #       AUTOMATIC MANEUVERS ARE TIMED WITH THE HELP OF WAITLIST SO THAT AFTER A SPECIFIED INTERVAL THE Y AND Z
000080:                                                                                                  #  DESIRED RATES ARE SET TO ZERO AND THE DESIRED CDU ANGLES (CDUYD, CDUZD) ARE SET EQUAL TO THE FINAL DESIRED CDU
000081:                                                                                                  #  ANGLES (CTHETA, CPSI).  IF ANY YAW  REMAINS DUE TO GIMBAL LOCK AVOIDANCE, THE FINAL YAW  MANEUVER IS
000082:                                                                                                  #  CALCULATED AND THE DESIRED YAW  RATE SET TO SOME FIXED VALUE (ROLLRATE = + OR - 2 DEGREES PER SEC).
000083:                                                                                                  #  IN THIS CASE ONLY AN INCREMENTAL CDUX ANGLE (DELFROLL) IS SUPPLIED TO THE DAP.  AT THE END OF THE YAW
000084:                                                                                                  #  MANEUVER OR IN THE EVENT THAT THERE WAS NO FINAL YAW,  CDUXD IS SET EQUAL TO CPHI AND THE X-AXIS DESIRED
000085:                                                                                                  #  RATE SET TO ZERO.  THUS, UPON COMPLETION OF THE MANEUVER THE S/C WILL FINISH UP IN A LIMIT CYCLE ABOUT THE
000086:                                                                                                  #  DESIRED FINAL GIMBAL ANGLES.
000087:
000088:
000089:
000090:                                                                                                  #  PROGRAM LOGIC FLOW
000091:
000092:                                                                                                  #       KALCMANU IS CALLED AS A HIGH PRIORITY JOB WITH ENTRY POINTS AT KALCMAN3 AND VECPOINT.  IT FIRST PICKS
000093:                                                                                                  #  UP THE CURRENT CDU ANGLES TO BE USED AS THE BASIS FOR ALL COMPUTATIONS INVOLVING THE INITIAL S/C ORIENTATION.
000094:                                                                                                  #  IT THEN DETERMINES THE DIRECTION COSINE MATRICES RELATING BOTH THE INITIAL AND FINAL S/C ORIENTATION TO STABLE
000095:                                                                                                  #                *    *                                                                               *
000096:                                                                                                  #  MEMBER AXES (MIS, MFS).  IT ALSO COMPUTES THE MATRIX RELATING FINAL S/C AXES TO INITIAL S/C AXES (MFI).  THE
000097:                                                                                                  #  ANGLE OF ROTATION (AM) IS THEN EXTRACTED FROM THIS MATRIX, AND TESTS ARE MADE TO DETERMINE IF
000098:
000099:                                                                                                  #       A)  AM LESS THAN .25 DEGREES (MINANG)
000100:                                                                                                  #       B)  AM GREATER THAN 170 DEGREES (MAXANG)
000101:
000102:                                                                                                  #       IF AM LESS THAN .25 DEGREES, NO COMPLICATED AUTOMATIC MANEUVERING IS NECESSARY.  THEREFORE WE CAN SIMPLY
000103:                                                                                                  #  SET CDU DESIRED EQUAL TO THE FINAL CDU DESIRED ANGLES AND TERMINATE THE JOB.
000104:
000105:                                                                                                  #       IF AM IS GREATER THAN .25 DEGREES BUT LESS THAN 170 DEGREES, THE AXES OF THE SINGLE EQUIVALENT ROTATION
000106:                                                                                                  #    -                                                       *
000107:                                                                                                  #  (COF) IS EXTRACTED FROM THE SKEW SYMMETRIC COMPONENTS OF MFI.                            *     *
000108:                                                                                                  #       IF AM GREATER THAN 170 DEGREES AN ALTERNATE METHOD EMPLOYING THE SYMMETRIC PART OF MFI (MFISYM) IS USED
000109:                                                                                                  #                -
000110:                                                                                                  #  TO DETERMINE COF.
000111:
000112:                                                                                                  #       THE PROGRAM THEN CHECKS TO SEE IF THE MANEUVER AS COMPUTED WILL BRING THE S/C THROUGH GIMBAL LOCK.  IF
000113:                                                                                                  #  SO, A NEW MANEUVER IS CALCULATED WHICH WILL JUST SKIM THE GIMBAL LOCK ZONE AND ALIGN THE S/C X-AXIS.  THIS
000114:                                                                                                  #  METHOD ASSURES THAT THE ADDITIONAL MANEUVERING TO AVOID GIMBAL LOCK WILL BE KEPT TO A MINIMUM.  SINCE A FINAL
000115:                                                                                                  #  P AXIS YAW WILL BE NECESSARY, A SWITCH IS RESET (STATE SWITCH 31) TO ALLOW FOR THE COMPUTATION OF THIS FINAL
000116:                                                                                                  #  YAW.
000117:
000118:                                                                                                  #       AS STATED PREVIOUSLY KALCMANU GENERATES A SEQUENCE OF DESIRED GIMBAL ANGLES WHICH ARE UPDATED EVERY
000119:                                                                                                  #                                                                                               -
000120:                                                                                                  #  SECOND.  THIS IS ACCOMPLISHED BY A SMALL ROTATION OF THE DESIRED S/C FRAME ABOUT THE VECTOR COF.  THE NEW
000121:                                                                                                  #  DESIRED REFERENCE MATRIX IS THEN,
000122:
000123:                                                                                                  #                   *              *         *
000124:                                                                                                  #                  MIS       =    MIS       DEL
000125:                                                                                                  #                     N+1            N


000127:                                                                                                  #         *
000128:                                                                                                  #  WHERE DEL IS THE MATRIX CORRESPONDING TO THIS SMALL ROTATION.  THE NEW CDU ANGLES CAN THEN BE EXTRACTED
000129:                                                                                                  #        *
000130:                                                                                                  #  FROM MIS.
000131:
000132:                                                                                                  #       AT THE BEGINNING OF THE MANEUVER THE AUTOPILOT DESIRED RATES (OMEGAPD, OMEGAQD, OMEGARD) AND THE
000133:                                                                                                  #  MANEUVER TIMINGS ARE ESTABLISHED.  ON THE FIRST PASS AND ON ALL SUBSEQUENT UPDATES THE CDU DESIRED
000134:                                                                                                  #  ANGLES ARE LOADED WITH THE APPROPRIATE VALUES AND THE INCREMENTAL CDU ANGLES ARE COMPUTED.  THE AGC CLOCKS
000135:                                                                                                  #  (TIME1 AND TIME2) ARE THAN CHECKED TO SEE IF THE MANEUVER WILL TERMINATE BEFORE THE NEXT UPDATE.  IF
000136:                                                                                                  #  NOT, KALCMANU CALLS FOR ANOTHER UPDATE (RUN AS A JOB WITH PRIORITY TBD) IN ONE SECOND.  ANY DELAYS IN THIS
000137:                                                                                                  #  CALLING SEQUENCE ARE AUTOMATICALLY COMPENSATED IN CALLING FOR THE NEXT UPDATE.
000138:
000139:                                                                                                  #       IF IT IS FOUND THAT THE MANEUVER IS TO TERMINATE BEFORE THE NEXT UPDATE A ROUTINE IS CALLED (AS A WAIT-
000140:                                                                                                  #  LIST TASK) TO STOP THE MANEUVER AT THE APPROPRIATE TIME AS EXPLAINED ABOVE.
000141:
000142:
000143:
000144:                                                                                                  #  CALLING SEQUENCE
000145:
000146:                                                                                                  #       THE ENTRY POINT IN KALCMANU FOR POINTING THE THRUST AXIS OF THE SPACECRAFT IS VECPOINT
000147:
000148:                                                                                                  #       CAF        PRIO XX
000149:                                                                                                  #                       --
000150:                                                                                                  #       INHINT
000151:                                                                                                  #       TC         FINDVAC
000152:                                                                                                  #       2CADR      VECPOINT
000153:                                                                                                  #       RELINT
000154:
000155:                                                                                                  #       THE CALLING PROGRAM MUST ALSO SPECIFY THE DESIRED MANEUVERING RATES, PRESENTLY IN THE FORM OF A SINGLE
000156:                                                                                                  #  PRECISION NUMBER (RATEINDEX), WHICH IS LOADED WITH ONE OF FOUR VALUES 0, 2, 4, OR 6, CORRESPONDING TO ANGULAR
000157:                                                                                                  #  RATES OF .5, 2, 5, 10 DEGREES/SEC.  THERE IS ALSO A STATE SWITCH (33) WHICH MAY BE SET TO IGNORE ANY FINAL YAW
000158:                                                                                                  #  INCURRED BY AVOIDING GIMBAL LOCK.
000159:
000160:                                                                                                  #       WITH THIS INFORMATION KALCMANU WILL THEN GENERATE A SEQUENCE OF THREE CDU DESIRED ANGLES (CDUXD, CDUYD,
000161:                                                                                                  #  CDUZD), AND THREE INCREMENTAL ANGLES (DELDCDU, DELDCDU1, DELDCDU2) AS WELL AS THE COMPONENT MANEUVER RATES
000162:                                                                                                  #  (IN S/C AXES) TO BE USED BY THE LEM DAP IN PERFORMING THE AUTOMATIC MANEUVER.
000163:
000164:                                                                                                  #       THERE ARE TWO WAYS IN WHICH KALCMANU MAY BE INITIATED CORRESPONDING TO THE TWO METHODS OF SPECIFYING THE
000165:                                                                                                  #  DESIRED ATTITUDE OF THE SPACECRAFT.  IF METHOD 1 IS USED, THE COMMANDED GIMBAL ANGLES MUST BE PRECOMPUTED AND
000166:                                                                                                  #  STORED IN LOCATIONS CPHI, CTHETA, CPSI.  THE USER:S PROGRAM MUST THEN CLEAR STATE SWITCH NO 33 TO ALLOW THE
000167:                                                                                                  #  ATTITUDE MANEUVER ROUTINE TO PERFORM ANY FINAL P-AXIS YAW INCURRED BY AVOIDING GIMBAL LOCK.  THE MANEUVER IS
000168:                                                                                                  #  THEN INITIATED BY ESTABLISHING THE FOLLOWING EXECUTIVE JOB
000169:
000170:                                                                                                  #                         *
000171:                                                                                                  #       CAF     PRIO    XX
000172:                                                                                                  #                       --
000173:                                                                                                  #       INHINT
000174:                                                                                                  #       TC         FINDVAC
000175:                                                                                                  #       2CADR      KALCMAN3
000176:                                                                                                  #       RELINT
000177:


000179:                                                                                                  #  THE USER:S PROGRAM MAY EITHER CONTINUE OR WAIT FOR THE TERMINATION OF THE MANEUVER.  IF THE USER WISHES TO
000180:                                                                                                  #  WAIT, HE MAY PUT HIS JOB TO SLEEP WITH THE FOLLOWING INSTRUCTIONS
000181:
000182:                                                                                                  #       L          TC        BANKCALL
000183:                                                                                                  #       L+1        CADR      ATTSTALL
000184:                                                                                                  #       L+2        (BAD      RETURN)
000185:                                                                                                  #       L+3        (GOOD     RETURN)
000186:
000187:                                                                                                  #       UPON COMPLETION OF THE MANEUVER, THE PROGRAM WILL BE AWAKENED AT L+3 IF THE MANEUVER WAS COMPLETED
000188:                                                                                                  #  SUCCESSFULLY, OR AT L+2 IF THE MANEUVER WAS ABORTED.  THIS ABORT WOULD OCCUR IF THE INITIAL OR FINAL ATTITUDE
000189:                                                                                                  #  WAS IN GIMBAL LOCK.
000190:                                                                                                  #                                                                   -
000191:                                                                                                  #       IF THE SECOND METHOD IS USED, THE DESIRED THRUST DIRECTION, V , MUST BE COMPUTED AND STORED IN THE SIX
000192:                                                                                                  #                                                                    F
000193:                                                                                                  #  ERASABLE LOCATIONS BEGINNING WITH THE ADDRESS POINTVSM.  THE THRUST AXIS MUST BE LOADED INTO THE SIX ERASABLE
000194:                                                                                                  #  LOCATIONS BEGINNING WITH SC AXIS.  THE CALLER MUST THEN CLEAR (OR SET) STATE SWITCH NO 33 AND SPECIFY THE
000195:                                                                                                  #  DESIRED MANEUVERING RATE AS BEFORE.  THE MANEUVER IS THEN INITIATED BY THE EXECUTIVE CALL.
000196:
000197:
000198:
000199:                                                                                                  #  SUBROUTINES
000200:
000201:                                                                                                  #       KALCMANU USES A NUMBER OF INTERPRETIVE SUBROUTINES WHICH MAY BE OF GENERAL INTEREST.  SINCE THESE ROUTINES
000202:                                                                                                  #  WERE PROGRAMMED EXCLUSIVELY FOR KALCMANU, THEY ARE NOT, AS YET, GENERALLY AVAILABLE FOR USE BY OTHER PROGRAMS.
000203:
000204:                                                                                                  #       MXM3
000205:                                                                                                  #       ----
000206:
000207:                                                                                                  #       THIS SUBROUTINE MULTIPLIES TWO 3X3 MATRICES AND LEAVES THE RESULT IN THE FIRST 18 LOCATIONS OF THE PUSH
000208:                                                                                                  #  DOWN LIST, I.E.,
000209:
000210:                                                                                                  #                 (M    M    M )
000211:                                                                                                  #                 ( 0    1    2)
000212:                                                                                                  #        *        (            )       *         *
000213:                                                                                                  #        M    =   (M    M    M )  =    M1   X    M2
000214:                                                                                                  #                 ( 3    4    5)
000215:                                                                                                  #                 (            )
000216:                                                                                                  #                 (M    M    M )
000217:                                                                                                  #                 ( 6    7    8)
000218:
000219:                                                                                                  #                                                                                        *
000220:                                                                                                  #       INDEX REGISTER X1 MUST BE LOADED WITH THE COMPLEMENT OF THE STARTING ADDRESS FOR M1, AND X2 MUST BE
000221:                                                                                                  #                                                         *
000222:                                                                                                  #  LOADED WITH THE COMPLEMENT OF THE STARTING ADDRESS FOR M2.   THE ROUTINE USES THE FIRST 20 LOCATIONS OF THE PUSH
000223:                                                                                                  #  DOWN LIST.  THE FIRST ELEMENT OF THE MATRIX APPEARS IN PDO.  PUSH UP FOR M .
000224:                                                                                                  #                                                                            8
000225:
000226:                                                                                                  #       TRANSPOS
000227:                                                                                                  #       --------


000229:                                                                                                  #       THIS ROUTINE TRANSPOSES A 3X3 MATRIX AND LEAVES THE RESULT IN THE PUSH DOWN LIST, I.E.,
000230:                                                                                                  #
000231:                                                                                                  #        *         * T
000232:                                                                                                  #        M    =    M1
000233:
000234:                                                                                                  #  INDEX REGISTER X1 MUST CONTAIN THE COMPLEMENT OF THE STARTING ADDRESS FOR M1.  PUSH UP FOR THE FIRST AND SUB-
000235:                                                                                                  #                        *
000236:                                                                                                  #  SEQUENT COMPONENTS OF M.   THIS SUBROUTINE ALSO USES THE FIRST 20 LOCATIONS OF THE PUSH DOWN LIST.
000237:
000238:                                                                                                  #       CDU TO DCM
000239:                                                                                                  #       ----------
000240:
000241:                                                                                                  #       THIS SUBROUTINE CONVERTS THREE CDU ANGLES IN T(MPAC) TO A DIRECTION COSINE MATRIX (SCALED BY 2) RELATING
000242:                                                                                                  #  THE CORRESPONDING S/C ORIENTATIONS TO THE STABLE MEMBER FRAME.  THE FORMULAS FOR THIS CONVERSION ARE
000243:
000244:                                                                                                  #        M    =    COSY  COSZ
000245:                                                                                                  #         0
000246:
000247:                                                                                                  #        M    =    -COSY  SINZ  COSX  +  SINY  SINX
000248:                                                                                                  #         1
000249:
000250:                                                                                                  #        M    =    COSY  SINZ  SINX  +  SINY  COSX
000251:                                                                                                  #         2
000252:
000253:                                                                                                  #        M    =    SINZ
000254:                                                                                                  #         3
000255:
000256:                                                                                                  #        M    =    COSZ  COSX
000257:                                                                                                  #         4
000258:
000259:                                                                                                  #        M    =    -COSZ  SINX
000260:                                                                                                  #         5
000261:
000262:                                                                                                  #        M    =    -SINY  COSZ
000263:                                                                                                  #         6
000264:
000265:                                                                                                  #        M    =    SINY  SINZ  COSX  +  COSY  SINX
000266:                                                                                                  #         7
000267:
000268:                                                                                                  #        M    =    -SINY  SINZ  SINX  +  COSY  COSX
000269:                                                                                                  #         8
000270:
000271:                                                                                                  #  WHERE      X    =    OUTER GIMBAL ANGLE
000272:                                                                                                  #             Y    =    INNER GIMBAL ANGLE
000273:                                                                                                  #             Z    =    MIDDLE GIMBAL ANGLE
000274:
000275:                                                                                                  #       THE INTERPRETATION OF THIS MATRIX IS AS FOLLOWS
000276:
000277:                                                                                                  #       IF A , A , A  REPRESENT THE COMPONENTS OF A VECTOR IN S/C AXES THEN THE COMPONENTS OF THE SAME VECTOR IN
000278:                                                                                                  #           X   Y   Z


000280:                                                                                                  #  STABLE MEMBER AXES (B , B , B ) ARE
000281:                                                                                                  #                       X   Y   Z
000282:
000283:                                                                                                  #             (B )                (A )
000284:                                                                                                  #             ( X)                ( X)
000285:                                                                                                  #             (  )                (  )
000286:                                                                                                  #             (  )           *    (  )
000287:                                                                                                  #             (B )      =    M    (A )
000288:                                                                                                  #             ( Y)                ( Y)
000289:                                                                                                  #             (  )                (  )
000290:                                                                                                  #             (B )                (A )
000291:                                                                                                  #             ( Z)                ( Z)
000292:
000293:                                                                                                  #      THE SUBROUTINE WILL STORE THIS MATRIX IN SEQUENTIAL LOCATIONS OF ERASABLE MEMORY AS SPECIFIED BY THE CALLING
000294:                                                                                                  #                                                                                                              *
000295:                                                                                                  #  PROGRAM.  TO DO THIS THE CALLING PROGRAM MUST FIRST LOAD X2 WITH THE COMPLEMENT OF THE STARTING ADDRESS FOR M.
000296:
000297:                                                                                                  #       INTERNALLY, THE ROUTINE USES THE FIRST 16 LOCATIONS OF THE PUSH DOWN LIST, ALSO STEP REGISTER S1 AND INDEX
000298:                                                                                                  #  REGISTER X2.
000299:
000300:
000301:
000302:                                                                                                  #       DCM TO CDU
000303:                                                                                                  #       ----------
000304:                                                                                                  #                                                                            *
000305:                                                                                                  #       THIS ROUTINE EXTRACTS THE CDU ANGLES FROM A DIRECTION COSINE MATRIX (M SCALED BY 2) RELATING S/C AXIS TO
000306:                                                                                                  #                                                                                  *
000307:                                                                                                  #  STABLE MEMBER AXES.  X1 MUST CONTAIN THE COMPLEMENT OF THE STARTING ADDRESS FOR M.  THE SUBROUTINE LEAVES THE
000308:                                                                                                  #  CORRESPONDING GIMBAL ANGLES IN V(MPAC) AS DOUBLE PRECISION 1:S COMPLEMENT ANGLES SCALED BY 2PI.  THE FORMULAS
000309:                                                                                                  #  FOR THIS CONVERSION ARE
000310:
000311:                                                                                                  #        Z    =    ARCSIN (M  )
000312:                                                                                                  #                            3
000313:
000314:                                                                                                  #        Y    =    ARCSIN (-M /COSZ)
000315:                                                                                                  #                            6
000316:
000317:                                                                                                  #  IF M  IS NEGATIVE, Y IS REPLACED BY PI SGN Y - Y
000318:                                                                                                  #      0
000319:
000320:                                                                                                  #        X    =    ARCSIN (-M /COSZ)
000321:                                                                                                  #                            5
000322:
000323:                                                                                                  #  IF M  IS NEGATIVE X IS REPLACED BY PI SGN X - X
000324:                                                                                                  #      4
000325:
000326:                                                                                                  #       THIS ROUTINE DOES NOT SET THE PUSH DOWN POINTER, BUT USES THE NEXT 8 LOCATIONS OF THE PUSH DOWN LIST AND
000327:                                                                                                  #  RETURNS THE POINTER TO ITS ORIGINAL SETTING.  THIS PROCEDURE ALLOWS THE CALLER TO STORE THE MATRIX AT THE TOP OF
000328:                                                                                                  #  THE PUSH DOWN LIST.
000329:


000331:                                                                                                  #       DELCOMP
000332:                                                                                                  #       -------
000333:
000334:                                                                                                  #                                                           *
000335:                                                                                                  #       THIS ROUTINE COMPUTES THE DIRECTION COSINE MATRIX (DEL) RELATING ON
000336:                                                                                                  #                                                                           -
000337:                                                                                                  #  IS ROTATED WITH RESPECT TO THE FIRST BY AN ANGLE, A, ABOUT A UNIT VECTOR, U.  THE FORMULA FOR THIS MATRIX IS
000338:
000339:                                                                                                  #        *         *           --T           *
000340:                                                                                                  #        DEL  =    I  COSA  +  UU (1-COSA) + V SINA
000341:                                                                                                  #                                             X
000342:
000343:                                                                                                  #  WHERE      *         (1   0    0)
000344:                                                                                                  #             I    =    (0   1    0)
000345:                                                                                                  #                       (0   0    1)
000346:
000347:
000348:                                                                                                  #                          2
000349:                                                                                                  #                       (U        U U       U U )
000350:                                                                                                  #                       ( X        X Y       X Z)
000351:                                                                                                  #                       (                       )
000352:                                                                                                  #             --T       (           2           )
000353:                                                                                                  #             UU   =    (U U      U         U U )
000354:                                                                                                  #                       ( Y X      Y         Y Z)
000355:                                                                                                  #                       (                       )
000356:                                                                                                  #                       (                     2 )
000357:                                                                                                  #                       (U U      U U       U  )
000358:                                                                                                  #                       ( Z X      Z Y       Z  )
000359:
000360:
000361:                                                                                                  #                       (0        -U        U  )
000362:                                                                                                  #                       (           Z        Y )
000363:                                                                                                  #             *         (                      )
000364:                                                                                                  #             V    =    (U        0         -U )
000365:                                                                                                  #              X        ( Z                   X)
000366:                                                                                                  #                       (                      )
000367:                                                                                                  #                       (-U       U         0  )
000368:                                                                                                  #                       (  Y       X           )
000369:
000370:                                                                                                  #             -
000371:                                                                                                  #             U    =    UNIT ROTATION VECTOR RESOLVED INTO S/C AXES
000372:                                                                                                  #             A    =    ROTATION ANGLE
000373:
000374:                                                                                                  #                              *
000375:                                                                                                  #       THE INTERPRETATION OF DEL IS AS FOLLOWS
000376:
000377:                                                                                                  #       IF A , A , A  REPRESENT THE COMPONENT OF A VECTOR IN THE ROTATED FRAME, THEN THE COMPONENTS OF THE SAME
000378:                                                                                                  #           X   Y   Z
000379:                                                                                                  #  VECTOR IN THE ORIGINAL S/C AXES (B , B , B ) ARE
000380:                                                                                                  #                                    X   Y   Z


000382:                                                                                                  #             (B )                     (A )
000383:                                                                                                  #             ( X)                     ( X)
000384:                                                                                                  #             (  )            *        (  )
000385:                                                                                                  #             (B )      =    DEL       (A )
000386:                                                                                                  #             ( Y)                     ( Y)
000387:                                                                                                  #             (  )                     (  )
000388:                                                                                                  #             (B )                     (A )
000389:                                                                                                  #             ( Z)                     ( Z)
000390:
000391:                                                                                                  #       THE ROUTINE WILL STORE THIS MATRIX (SCALED UNITY) IN SEQUENTIAL LOCATIONS OF ERASABLE MEMORY BEGINNING WITH
000392:                                                                                                  #                                                                                              -
000393:                                                                                                  #  THE LOCATION CALLED DEL.  IN ORDER TO USE THE ROUTINE, THE CALLING PROGRAM MUST FIRST STORE U (A HALF UNIT
000394:                                                                                                  #  DOUBLE PRECISION VECTOR) IN THE SET OF ERASABLE LOCATIONS BEGINNING WITH THE ADDRESS CALLED COF.  THE ANGLE, A,
000395:                                                                                                  #  MUST THEN BE LOADED INTO D(MPAC).
000396:                                                                                                  #
000397:                                                                                                  #       INTERNALLY, THE PROGRAM ALSO USES THE FIRST 10 LOCATIONS OF THE PUSH DOWN LIST.
000398:
000399:
000400:
000401:                                                                                                  #       READCDUK
000402:                                                                                                  #       --------
000403:
000404:                                                                                                  #       THIS BASIC LANGUAGE SUBROUTINE LOADS T(MPAC) WITH THE THREE CDU ANGLES.
000405:
000406:
000407:
000408:                                                                                                  #      SIGNMPAC
000409:                                                                                                  #       --------
000410:
000411:                                                                                                  #       THIS IS A BASIC LANGUAGE SUBROUTINE WHICH LIMITS THE MAGNITUDE OF D(MPAC) TO + OR - DPOSMAX ON OVERFLOW.
000412:
000413:
000414:
000415:                                                                                                  #       PROGRAM STORAGE ALLOCATION
000416:
000417:                                                                                                  #             1)   FIXED MEMORY                       1059 WORDS
000418:                                                                                                  #             2)   ERASABLE MEMORY                      98
000419:                                                                                                  #             3)   STATE SWITCHES                        3
000420:                                                                                                  #             4)   FLAGS                                 1
000421:
000422:
000423:
000424:                                                                                                  #       JOB PRIORITIES
000425:
000426:                                                                                                  #             1)   KALCMANU                            TBD
000427:                                                                                                  #             2)   ONE SECOND UPDATE                   TBD
000428:
000429:
000430:
000431:
000432:                                                                                                  #       SUMMARY OF STATE SWITCHES AND FLAGWORDS USED BY KALCMANU.


000434:                                                                                                  #  STATE                FLAGWRD 2      SETTING             MEANING
000435:                                                                                                  #  SWITCH NO.            BIT NO.
000436:
000437:                                                                                                  #    *
000438:                                                                                                  #  31                      14            0       MANEUVER WENT THROUGH GIMBAL LOCK
000439:                                                                                                  #                                        1       MANEUVER DID NOT GO THROUGH GIMBAL LOCK
000440:
000441:                                                                                                  #    *
000442:                                                                                                  #  32                      13            0       CONTINUE UPDATE PROCESS
000443:                                                                                                  #                                        1       START UPDATE PROCESS
000444:
000445:                                                                                                  #  33                      12            0       PERFORM FINAL P-AXIS YAW IF REQUIRED
000446:                                                                                                  #                                        1       IGNORE ANY FINAL P-AXIS YAW
000447:
000448:                                                                                                  #  34                      11            0       SIGNAL END OF KALCMANU
000449:                                                                                                  #                                        1       KALCMANU IN PROCESS       USER MUST SET SWITCH BEFORE INITIATING
000450:
000451:
000452:                                                                                                  #          *  INTERNAL TO KALCMANU
000453:
000454:
000455:
000456:                                                                                                  #       SUGGESTIONS FOR PROGRAM INTEGRATION
000457:
000458:                                                                                                  #       THE FOLLOWING VARIABLES SHOULD BE ASSIGNED TO UNSWITCH ERASABLE
000459:
000460:                                                                                                  #                       CPHI
000461:                                                                                                  #                       CTHETA
000462:                                                                                                  #                       CPSI
000463:                                                                                                  #                       POINTVSM  +5
000464:                                                                                                  #                       SCAXIS    +5
000465:                                                                                                  #                       DELDCDU
000466:                                                                                                  #                       DELDCDU1
000467:                                                                                                  #                       DELDCDU2
000468:                                                                                                  #                       RATEINDX
000469:
000470:                                                                                                  #       THE FOLLOWING SUBROUTINES MAY BE PUT IN A DIFFERENT BANK
000471:
000472:                                                                                                  #                       MXM3
000473:                                                                                                  #                       TRANSPOS
000474:                                                                                                  #                       SIGNMPAC
000475:                                                                                                  #                       READCDUK
000476:                                                                                                  #                       CDUTODCM
000477:


000479: 34,2000                                           BANK     34
000480: 34,2000  E3,1535                                  EBANK=   MIS
000481: 34,2000           12001                           NOOP
000482: 34,2001           06112        VECPOINT           TC       INTPRET
000483: 34,2002           77634                           RTB
000484: 34,2003           73513                                    READCDUK                              #  READ THE PRESENT CDU ANGLES
000485: 34,2004           01533                           STORE    BCDU
000486: 34,2005           45164                           AXC,2    CALL                                  #  COMPUTE THE TRANSFORMATION FROM INITIAL
000487: 34,2006           01535                                    MIS                                   #  S/C AXES TO STABLE MEMBER AXES (MIS)
000488: 34,2007           70445                                    CDUTODCM
000489: 34,2010           61375                           VLOAD    VXM                                   #                                 -
000490: 34,2011           01656                                    POINTVSM                              #  RESOLVE THE POINTING DIRECTION VS INTO
000491: 34,2012           01536                                    MIS                                   #  INITIAL S/C AXES
000492: 34,2013           41456                           UNIT     PUSH
000493: 34,2014           53435                           VXV      UNIT                                  #  TAKE THE CROSS PRODUCT VF X VI
000494: 34,2015           01664                                    SCAXIS                                #  WHERE VI = SCAXIS
000495: 34,2016           57400                           BOV      VCOMP
000496: 34,2017           70042                                    PICKAXIS
000497: 34,2020           25624                           STOVL    COF
000498: 34,2021           01664                                    SCAXIS
000499: 34,2022           72441                           DOT      SL1
000500: 34,2023           77726                           ARCCOS
000501: 34,2024           77624        COMPMATX           CALL                                           #  NOW COMPUTE THE TRANSFORMATION FROM
000502: 34,2025           70564                                    DELCOMP                               #  FINAL S/C AXES TO INITIAL S/C AXES = MFI
000503: 34,2026           75160                           AXC,1    AXC,2                                 #  COMPUTE THE TRANSFORMATION FROM FINAL
000504: 34,2027           01535                                    MIS                                   #  S/C AXES TO STABLE MEMBER AXES
000505: 34,2030           01557                                    KEL
000506: 34,2031           77624                           CALL
000507: 34,2032           73417                                    MXM3                                  #  MFS IN PD LIST
000508: 34,2033           45160                           AXC,1    CALL
000509: 34,2034           00000                                    0                                     #  EXTRACT THE CDU ANGLES FROM THIS MATRIX
000510: 34,2035           70711                                    DCMTOCDU
000511: 34,2036           77634                           RTB
000512: 34,2037           33526                                    V1STO2S                               #  AND USE THEM AS THE COMMANDED CDU ANGLES
000513: 34,2040           35632                           STCALL   CPHI
000514: 34,2041           70070                                    KALCMAN3   +1                         #  PROCEED AS IF WE HAD BEEN GIVEN COMMAND
000515:                                                                                                  #  CDU ANGLES
000516: 34,2042           50375        PICKAXIS           VLOAD    DOT                                   #  IF VF X VI = 0. PUSH UP FOR VF
000517: 34,2043           01664                                    SCAXIS                                #  FIND VF . VI
000518: 34,2044           72240                           BMN      TLOAD                                 #  IF ANTIPARALLEL
000519: 34,2045           70051                                    ROT180
000520: 34,2046           01533                                    BCDU
000521: 34,2047           35632                           STCALL   CPHI                                  #  IF VF = VI
000522: 34,2050           70070                                    KALCMAN3   +1
000523:
000524: 34,2051           47375        ROT180             VLOAD    VXV                                   #  180 DEG ROTATION IS REQUIRED
000525: 34,2052           01544                                    MIS        +6                         #  Y STABLE MEMBER AXIS IN INITIAL S/C AXES
000526: 34,2053           30414                                    HALFA
000527: 34,2054           47256                           UNIT     VXV                                   #  FIND Y(SM) X X(I)
000528: 34,2055           01664                                    SCAXIS                                #  FIND UNIT (VI X UNIT(Y(SM) X X(I)))


000530: 34,2056           40056                           UNIT     BOV                                   #  PICK A VECTOR PERPENDICULAR TO VI IN THE
000531: 34,2057           70064                                    PICKX                                 #  PLANE CONTAINING Y(SM) AND X(I) SO THAT
000532: 34,2060           15624        XROT               STODL    COF                                   #  MANEUVER DOES NOT GO THRU GIMBAL LOCK
000533: 34,2061           30414                                    HALFA
000534: 34,2062           77650                           GOTO
000535: 34,2063           70024                                    COMPMATX
000536: 34,2064           52175        PICKX              VLOAD    GOTO                                  #  PICK THE X AXIS IN THIS CASE
000537: 34,2065           30414                                    HALFA
000538: 34,2066           70060                                    XROT
000539:
000540:                                                                                                  #  FIRST ENTRY POINT- KALCMAN3
000541:
000542:                                                                                                  #  THE THREE DESIRED CDU ANGLES MUST BE STORED AS SINGLE PRECISION TWOS COMPLEMENT ANGLES IN THE THREE SUCCESSIVE
000543:                                                                                                  #  LOCATIONS, CPHI, CTHETA, CPSI.
000544:
000545: 34,2067           06112        KALCMAN3           TC       INTPRET                               #  PICK UP THE CURRENT CDU ANGLES AND
000546: 34,2070           77634                           RTB                                            #    COMPUTE THE MATRIX FROM INITIAL S/C
000547: 34,2071           73513                                    READCDUK                              #    AXES TO FINAL S/C AXES
000548: 34,2072           01533                           STORE    BCDU                                  #  STORE INITIAL S/C ANGLES
000549: 34,2073           51535                           SLOAD    ABS
000550: 34,2074           01535                                    BCDU       +2                         #  CHECK MAGNITUDE OF MIDDLE GIMBAL ANGLE
000551: 34,2075           51025                           DSU      BPL
000552: 34,2076           30444                                    LOCKANGL                              #  IF GREATER THAN 60 DEG, ABORT MANEUVER
000553: 34,2077           70771                                    TOOBAD
000554: 34,2100           72364                           AXC,2    TLOAD
000555: 34,2101           01535                                    MIS
000556: 34,2102           01533                                    BCDU
000557: 34,2103           77624                           CALL                                           #  COMPUTE THE TRANSFORMATION FROM INITIAL
000558: 34,2104           70445                                    CDUTODCM                              #  S/C AXES TO STABLE MEMBER AXES
000559: 34,2105           51535                           SLOAD    ABS                                   #  CHECK THE MAGNITUDE OF THE DESIRED
000560: 34,2106           01634                                    CPSI                                  #  MIDDLE GIMBAL ANGLE
000561: 34,2107           51025                           DSU      BPL
000562: 34,2110           30444                                    LOCKANGL                              #  IF GREATER THAN 60 DEG, ABORT MANEUVER
000563: 34,2111           70771                                    TOOBAD
000564: 34,2112           72364                           AXC,2    TLOAD
000565: 34,2113           01557                                    MFS                                   #  PREPARE TO CALCULATE ARRAY MFS
000566: 34,2114           01632                                    CPHI
000567: 34,2115           77624                           CALL
000568: 34,2116           70445                                    CDUTODCM
000569: 34,2117           45160        SECAD              AXC,1    CALL                                  #  MIS AND MFS ARRAYS CALCULATED        $2
000570: 34,2120           01535                                    MIS
000571: 34,2121           73447                                    TRANSPOS
000572: 34,2122           77775                           VLOAD
000573: 34,2123           77626                           STADR
000574: 34,2124           52161                           STOVL    TMIS       +12D
000575: 34,2125           77626                           STADR
000576: 34,2126           52167                           STOVL    TMIS       +6
000577: 34,2127           77626                           STADR
000578: 34,2130           76175                           STORE    TMIS                                  #  TMIS = TRANSPOSE(MIS) SCALED BY 2
000579: 34,2131           75160                           AXC,1    AXC,2


000581: 34,2132           01601                                    TMIS
000582: 34,2133           01557                                    MFS
000583: 34,2134           77624                           CALL
000584: 34,2135           73417                                    MXM3
000585: 34,2136           45575                           VLOAD    STADR
000586: 34,2137           52203                           STOVL    MFI        +12D
000587: 34,2140           77626                           STADR
000588: 34,2141           52211                           STOVL    MFI        +6
000589: 34,2142           77626                           STADR
000590: 34,2143           76217                           STORE    MFI                                   #  MFI = TMIS MFS (SCALED BY 4)
000591: 34,2144           45001                           SETPD    CALL                                  #  TRANSPOSE MFI IN PD LIST
000592: 34,2145           00023                                    18D
000593: 34,2146           73456                                    TRNSPSPD
000594: 34,2147           45575                           VLOAD    STADR
000595: 34,2150           52161                           STOVL    TMFI       +12D
000596: 34,2151           77626                           STADR
000597: 34,2152           52167                           STOVL    TMFI       +6
000598: 34,2153           77626                           STADR
000599: 34,2154           76175                           STORE    TMFI                                  #  TMFI = TRANSPOSE (MFI)  SCALED BY 4
000600:
000601:                                                                                                  #  CALCULATE COFSKEW AND MFISYM
000602:
000603: 34,2155           45345                           DLOAD    DSU
000604: 34,2156           01604                                    TMFI       +2
000605: 34,2157           01562                                    MFI        +2
000606: 34,2160           45325                           PDDL     DSU                                   #  CALCULATE COF SCALED BY 2/SIN(AM)
000607: 34,2161           01564                                    MFI        +4
000608: 34,2162           01606                                    TMFI       +4
000609: 34,2163           45325                           PDDL     DSU
000610: 34,2164           01614                                    TMFI       +10D
000611: 34,2165           01572                                    MFI        +10D
000612: 34,2166           77666                           VDEF
000613: 34,2167           01635                           STORE    COFSKEW                               #  EQUALS MFISKEW
000614:
000615:                                                                                                  #  CALCULATE AM AND PROCEED ACCORDING TO ITS MAGNITUDE
000616:
000617: 34,2170           43345                           DLOAD    DAD
000618: 34,2171           01560                                    MFI
000619: 34,2172           01600                                    MFI        +16D
000620: 34,2173           43225                           DSU      DAD
000621: 34,2174           30426                                    QUARTA
000622: 34,2175           01570                                    MFI        +8D
000623: 34,2176           01645                           STORE    CAM                                   #  CAM = (MFI0+MFI4+MFI8-1)/2 HALF SCALE
000624: 34,2177           77726                           ARCCOS
000625: 34,2200           01643                           STORE    AM                                    #  AM=ARCCOS(CAM)  (AM SCALED BY 2)
000626: 34,2201           51025                           DSU      BPL
000627: 34,2202           30410                                    MINANG
000628: 34,2203           70214                                    CHECKMAX
000629: 34,2204           77751                           TLOAD                                          #  MANEUVER LESS THAN .25 DEGREES
000630: 34,2205           01632                                    CPHI                                  #  GO DIRECTLY INTO ATTITUDE HOLD


000632: 34,2206           00767                           STORE    CDUXD                                 #  ABOUT COMMANDED ANGLES
000633: 34,2207           77751                           TLOAD
000634: 34,2210           30416                                    NIL
000635: 34,2211           00775                           STORE    OMEGAPD                               #  ZERO DESIRED RATES
000636: 34,2212           34772                           STCALL   DELDCDU                               #  PREPARE TO END MANEUVER ON GOOD RETURN
000637: 34,2213           70761                                    ENDMANU
000638: 34,2214           45345        CHECKMAX           DLOAD    DSU
000639: 34,2215           01643                                    AM
000640: 34,2216           30412                                    MAXANG
000641: 34,2217           77244                           BPL      VLOAD
000642: 34,2220           70226                                    ALTCALC                               #  UNIT
000643: 34,2221           01635                                    COFSKEW                               #  COFSKEW
000644: 34,2222           77656                           UNIT
000645: 34,2223           01624                           STORE    COF                                   #  COF IS THE MANEUVER AXIS
000646: 34,2224           77650                           GOTO                                           #  SEE IF MANEUVER GOES THRU GIMBAL LOCK
000647: 34,2225           71006                                    LOCSKIRT
000648: 34,2226           53375        ALTCALC            VLOAD    VAD                                   #  IF AM GREATER THAN 170 DEGREES
000649: 34,2227           01560                                    MFI
000650: 34,2230           01602                                    TMFI
000651: 34,2231           77762                           VSR1
000652: 34,2232           25602                           STOVL    MFISYM
000653: 34,2233           01566                                    MFI        +6
000654: 34,2234           74455                           VAD      VSR1
000655: 34,2235           01610                                    TMFI       +6
000656: 34,2236           25610                           STOVL    MFISYM     +6
000657: 34,2237           01574                                    MFI        +12D
000658: 34,2240           74455                           VAD      VSR1
000659: 34,2241           01616                                    TMFI       +12D
000660: 34,2242           01616                           STORE    MFISYM     +12D                       #  MFISYM=(MFI+TMFI)/2   SCALED BY 4
000661:
000662:                                                                                                  #  CALCULATE COF
000663:
000664: 34,2243           70545                           DLOAD    SR1
000665: 34,2244           01645                                    CAM
000666: 34,2245           45325                           PDDL     DSU                                   #  PDO CAM                               $4
000667: 34,2246           30414                                    HALFA
000668: 34,2247           01645                                    CAM
000669: 34,2250           65204                           BOVB     PDDL                                  #  PD2 1 - CAM                           $2
000670: 34,2251           73501                                    SIGNMPAC
000671: 34,2252           01622                                    MFISYM     +16D
000672: 34,2253           56225                           DSU      DDV
000673: 34,2254           00001                                    0
000674: 34,2255           00003                                    2
000675: 34,2256           65366                           SQRT     PDDL                                  #  COFZ = SQRT(MFISYM8-CAM)/1-CAM)
000676: 34,2257           01612                                    MFISYM     +8D                        #                                $ ROOT 2
000677: 34,2260           56225                           DSU      DDV
000678: 34,2261           00001                                    0
000679: 34,2262           00003                                    2
000680: 34,2263           65366                           SQRT     PDDL                                  #  COFY = SQRT(MFISYM4-CAM)/(1-CAM)  $ROOT2


000682: 34,2264           01602                                    MFISYM
000683: 34,2265           56225                           DSU      DDV
000684: 34,2266           00001                                    0
000685: 34,2267           00003                                    2
000686: 34,2270           55566                           SQRT     VDEF                                  #  COFX = SQRT(MFISYM-CAM)/(1-CAM)  $ROOT 2
000687: 34,2271           77656                           UNIT
000688: 34,2272           01624                           STORE    COF
000689:
000690:                                                                                                  #  DETERMINE  LARGEST COF AND ADJUST ACCORDINGLY
000691:
000692: 34,2273           45345        COFMAXGO           DLOAD    DSU
000693: 34,2274           01624                                    COF
000694: 34,2275           01626                                    COF        +2
000695: 34,2276           71240                           BMN      DLOAD                                 #  COFY G COFX
000696: 34,2277           70306                                    COMP12
000697: 34,2300           01624                                    COF
000698: 34,2301           50025                           DSU      BMN
000699: 34,2302           01630                                    COF        +4
000700: 34,2303           70363                                    METHOD3                               #  COFZ G COFX OR COFY
000701: 34,2304           77650                           GOTO
000702: 34,2305           70337                                    METHOD1                               #  COFX G COFY OR COFZ
000703: 34,2306           45345        COMP12             DLOAD    DSU
000704: 34,2307           01626                                    COF        +2
000705: 34,2310           01630                                    COF        +4
000706: 34,2311           77640                           BMN
000707: 34,2312           70363                                    METHOD3                               #  COFZ G COFY OR COFX
000708:
000709: 34,2313           51145        METHOD2            DLOAD    BPL                                   #  COFY MAX
000710: 34,2314           01637                                    COFSKEW    +2                         #  UY
000711: 34,2315           70321                                    U2POS
000712: 34,2316           57575                           VLOAD    VCOMP
000713: 34,2317           01624                                    COF
000714: 34,2320           01624                           STORE    COF
000715: 34,2321           51145        U2POS              DLOAD    BPL
000716: 34,2322           01604                                    MFISYM     +2                         #  UX UY
000717: 34,2323           70327                                    OKU21
000718: 34,2324           57545                           DLOAD    DCOMP                                 #  SIGN OF UX OPPOSITE TO UY
000719: 34,2325           01624                                    COF
000720: 34,2326           01624                           STORE    COF
000721: 34,2327           51145        OKU21              DLOAD    BPL
000722: 34,2330           01614                                    MFISYM     +10D                       #  UY UZ
000723: 34,2331           71006                                    LOCSKIRT
000724: 34,2332           57545                           DLOAD    DCOMP                                 #  SIGN OF UZ OPPOSITE TO UY
000725: 34,2333           01630                                    COF        +4
000726: 34,2334           01630                           STORE    COF        +4
000727: 34,2335           77650                           GOTO
000728: 34,2336           71006                                    LOCSKIRT
000729: 34,2337           51145        METHOD1            DLOAD    BPL                                   #  COFX MAX
000730: 34,2340           01635                                    COFSKEW                               #  UX
000731: 34,2341           70345                                    U1POS


000733: 34,2342           57575                           VLOAD    VCOMP
000734: 34,2343           01624                                    COF
000735: 34,2344           01624                           STORE    COF
000736: 34,2345           51145        U1POS              DLOAD    BPL
000737: 34,2346           01604                                    MFISYM     +2                         #  UX UY
000738: 34,2347           70353                                    OKU12
000739: 34,2350           57545                           DLOAD    DCOMP
000740: 34,2351           01626                                    COF        +2                         #  SIGN OF UY OPPOSITE TO UX
000741: 34,2352           01626                           STORE    COF        +2
000742: 34,2353           51145        OKU12              DLOAD    BPL
000743: 34,2354           01606                                    MFISYM     +4                         #  UX UZ
000744: 34,2355           71006                                    LOCSKIRT
000745: 34,2356           57545                           DLOAD    DCOMP                                 #  SIGN OF UZ OPPOSITE TO UY
000746: 34,2357           01630                                    COF        +4
000747: 34,2360           01630                           STORE    COF        +4
000748: 34,2361           77650                           GOTO
000749: 34,2362           71006                                    LOCSKIRT
000750: 34,2363           51145        METHOD3            DLOAD    BPL                                   #  COFZ MAX
000751: 34,2364           01641                                    COFSKEW    +4                         #  UZ
000752: 34,2365           70371                                    U3POS
000753: 34,2366           57575                           VLOAD    VCOMP
000754: 34,2367           01624                                    COF
000755: 34,2370           01624                           STORE    COF
000756: 34,2371           51145        U3POS              DLOAD    BPL
000757: 34,2372           01606                                    MFISYM     +4                         #  UX UZ
000758: 34,2373           70377                                    OKU31
000759: 34,2374           57545                           DLOAD    DCOMP
000760: 34,2375           01624                                    COF                                   #  SIGN OF UX OPPOSITE TO UZ
000761: 34,2376           01624                           STORE    COF
000762: 34,2377           51145        OKU31              DLOAD    BPL
000763: 34,2400           01614                                    MFISYM     +10D                       #  UY UZ
000764: 34,2401           71006                                    LOCSKIRT
000765: 34,2402           57545                           DLOAD    DCOMP
000766: 34,2403           01626                                    COF        +2                         #  SIGN OF UY OPPOSITE TO UZ
000767: 34,2404           01626                           STORE    COF        +2
000768: 34,2405           77650                           GOTO
000769: 34,2406           71006                                    LOCSKIRT
000770:


000772:                                                                                                  #  MATRIX OPERATIONS
000773:
000774: 35,3417                                           BANK     35
000775: 35,3417  E3,1535                                  EBANK=   MIS
000776:
000777: 35,3417           77601        MXM3               SETPD                                          #  MXM3 MULTIPLIES 2 3X3 MATRICES
000778: 35,3420           00001                                    0                                     #  AND LEAVES RESULT IN PD LIST
000779: 35,3421           64743                           DLOAD*   PDDL*                                 #  ADDRESS OF 1ST MATRIX IN XR1
000780: 35,3422           77762                                    12D,2                                 #  ADDRESS OF 2ND MATRIX IN XR2
000781: 35,3423           77770                                    6,2
000782: 35,3424           55523                           PDDL*    VDEF                                  #  DEFINE VECTOR M2(COL 1)
000783: 35,3425           77776                                    0,2
000784: 35,3426           64717                           MXV*     PDDL*                                 #  M1XM2(COL 1) IN PD
000785: 35,3427           00001                                    0,1
000786: 35,3430           77760                                    14D,2
000787: 35,3431           64723                           PDDL*    PDDL*
000788: 35,3432           77766                                    8D,2
000789: 35,3433           77774                                    2,2
000790: 35,3434           63666                           VDEF     MXV*                                  #  DEFINE VECTOR M2(COL 2)
000791: 35,3435           00001                                    0,1
000792: 35,3436           64723                           PDDL*    PDDL*                                 #  M1XM2(COL 2) IN PD
000793: 35,3437           77756                                    16D,2
000794: 35,3440           77764                                    10D,2
000795: 35,3441           55523                           PDDL*    VDEF                                  #  DEFINE VECTOR M2(COL 3)
000796: 35,3442           77772                                    4,2
000797: 35,3443           41517                           MXV*     PUSH                                  #  M1XM2(COL 3) IN PD
000798: 35,3444           00001                                    0,1
000799: 35,3445           77650                           GOTO
000800: 35,3446           73456                                    TRNSPSPD                              #  REVERSE ROWS AND COLS IN PD AND
000801:                                                                                                  #                                  RETURN WITH M1XM2 IN PD LIST
000802:
000803: 35,3447           76601        TRANSPOS           SETPD    VLOAD*                                #  TRANSPOS TRANSPOSES A 3X3 MATRIX
000804: 35,3450           00001                                    0                                     #   AND LEAVES RESULT IN PD LIST
000805: 35,3451           00001                                    0,1                                   #  MATRIX ADDRESS IN XR1
000806: 35,3452           62713                           PDVL*    PDVL*
000807: 35,3453           00007                                    6,1
000808: 35,3454           00015                                    12D,1
000809: 35,3455           77606                           PUSH                                           #  MATRIX IN PD
000810: 35,3456           65345        TRNSPSPD           DLOAD    PDDL                                  #  ENTER WITH MATRIX IN PD LIST
000811: 35,3457           00003                                    2
000812: 35,3460           00007                                    6
000813: 35,3461           14003                           STODL    2
000814: 35,3462           77626                           STADR
000815: 35,3463           63770                           STODL    6
000816: 35,3464           00005                                    4
000817: 35,3465           77725                           PDDL
000818: 35,3466           00015                                    12D
000819: 35,3467           14005                           STODL    4
000820: 35,3470           77626                           STADR
000821: 35,3471           63762                           STODL    12D


000823: 35,3472           00013                                    10D
000824: 35,3473           77725                           PDDL
000825: 35,3474           00017                                    14D
000826: 35,3475           14013                           STODL    10D
000827: 35,3476           77626                           STADR
000828: 35,3477           77760                           STORE    14D
000829: 35,3500           77616                           RVQ                                            #  RETURN WITH TRANSPOSED MATRIX IN PD LIST
000830:


000832: 34,2407                                           BANK     34
000833: 34,2407  E3,1535                                  EBANK=   MIS
000834:
000835: 34,2407           00013 13563  MINANG             2DEC     0.00069375
000836:
000837: 34,2411           17070 34343  MAXANG             2DEC     0.472222222
000838:
000839: 34,2413           20000 00000  HALFA              2DEC     0.5
000840:
000841: 34,2415           00000 00000  NIL                2DEC     0.0
000842:
000843: 34,2417           00000 00000                     2DEC     0.0
000844:
000845: 34,2421           00000 00000                     2DEC     0.0
000846:
000847: 34,2423           20000 00000                     2DEC     0.5
000848:
000849: 34,2425           10000 00000  QUARTA             2DEC     .25
000850:                                                                                                  #           GIMBAL LOCK CONSTANTS
000851:
000852:                                                                                                  #  D = MGA CORRESPONDING TO GIMBAL LOCK = 60 DEGREES
000853:                                                                                                  #           NGL = BUFFER ANGLE (TO AVOID DIVISIONS BY ZERO) = 2 DEGREES
000854:
000855: 34,2427           15666 20443  SD                 2DEC     .433015                               #  = SIN(D)                      $2
000856:
000857: 34,2431           33555 01106  K3S1               2DEC     .86603                                #  = SIN(D)                      $1
000858:
000859: 34,2433           67777 77777  K4                 2DEC     -.25                                  #  = -COS(D)                     $2
000860:
000861: 34,2435           04000 00000  K4SQ               2DEC     .125                                  #  = COS(D)COS(D)                $2
000862:
000863: 34,2437           00216 36323  SNGLCD             2DEC     .008725                               #  = SIN(NGL)COS(D)              $2
000864:
000865: 34,2441           17773 00057  CNGL               2DEC     .499695                               #  COS(NGL)                      $2
000866:
000867: 34,2443           12525 12525  LOCKANGL           2DEC     .3333333333                            #  $60DEGG
000868:
000869: 35,3501                                           BANK     35
000870: 35,3501  E3,1535                                  EBANK=   MIS
000871:                                                                                                  #  ROUTINE FOR LIMITING THE SIZE OF MPAC ON OVERFLOW TO DP POSMAX OR DP NEGMAX
000872:
000873: 35,3501           00006        SIGNMPAC           EXTEND
000874: 35,3502           37743                           DCA      DPOSMAX
000875: 35,3503           52145                           DXCH     MPAC
000876: 35,3504           10000                           CCS      A
000877: 35,3505           37767                           CAF      ZERO
000878: 35,3506           16544                           TCF      SLOAD2     +2
000879: 35,3507           13510                           TCF      +1
000880: 35,3510           00006                           EXTEND


000882: 35,3511           47743                           DCS      DPOSMAX
000883: 35,3512           16542                           TCF      SLOAD2
000884:
000885:
000886:
000887:                                                                                                  #  INTERPRETIVE SUBROUTINE TO READ THE CDU ANGLES
000888:
000889: 35,3513           30034        READCDUK           CA       CDUZ                                  #  LOAD T(MPAC) WITH CDU ANGLES
000890: 35,3514           54146                           TS       MPAC       +2
000891: 35,3515           00006                           EXTEND
000892: 35,3516           30033                           DCA      CDUX                                  #  AND CHANGE MODE TO TRIPLE PRECISION
000893: 35,3517           16554                           TCF      TLOAD      +6
000894:
000895:
000896:
000897: 34,2445                                           BANK     34
000898: 34,2445  E3,1535                                  EBANK=   MIS
000899: 34,2445           66370        CDUTODCM           AXT,1    SSP
000900: 34,2446           00003                           OCT      3
000901: 34,2447           00051                                    S1
000902: 34,2450           00001                           OCT      1                                     #  SET XR1, S1, AND PD FOR LOOP
000903: 34,2451           00010                           STORE    7
000904: 34,2452           77601                           SETPD
000905: 34,2453           00001                                    0
000906: 34,2454           47133        LOOPSIN            SLOAD*   RTB
000907: 34,2455           00013                                    10D,1
000908: 34,2456           33457                                    CDULOGIC
000909: 34,2457           00013                           STORE    10D                                   #  LOAD PD WITH 0 SIN(PHI)
000910: 34,2460           65356                           SIN      PDDL                                  #               2 COS(PHI)
000911: 34,2461           00013                                    10D                                   #               4 SIN(THETA)
000912: 34,2462           41546                           COS      PUSH                                  #               6 COS(THETA)
000913: 34,2463           71300                           TIX,1    DLOAD                                 #               8 SIN(PSI)
000914: 34,2464           70454                                    LOOPSIN                               #              10 COS(PSI)
000915: 34,2465           00007                                    6
000916: 34,2466           72405                           DMP      SL1
000917: 34,2467           00013                                    10D
000918: 34,2470           10001                           STORE    0,2                                   #  C0=COS(THETA)COS(PSI)
000919: 34,2471           41345                           DLOAD    DMP
000920: 34,2472           00005                                    4
000921: 34,2473           00001                                    0
000922: 34,2474           41325                           PDDL     DMP                                   #  (PD6 SIN(THETA)SIN(PHI))
000923: 34,2475           00007                                    6
000924: 34,2476           00011                                    8D
000925: 34,2477           72405                           DMP      SL1
000926: 34,2500           00003                                    2
000927: 34,2501           72421                           BDSU     SL1
000928: 34,2502           00015                                    12D
000929: 34,2503           10003                           STORE    2,2                                   #  C1=-COS(THETA)SIN(PSI)COS(PHI)
000930: 34,2504           41345                           DLOAD    DMP
000931: 34,2505           00003                                    2


000933: 34,2506           00005                                    4
000934: 34,2507           41325                           PDDL     DMP                                   #  (PD7 COS(PHI)SIN(THETA)) SCALED 4
000935: 34,2510           00007                                    6
000936: 34,2511           00011                                    8D
000937: 34,2512           72405                           DMP      SL1
000938: 34,2513           00001                                    0
000939: 34,2514           72415                           DAD      SL1
000940: 34,2515           00017                                    14D
000941: 34,2516           10005                           STORE    4,2                                   #  C2=COS(THETA)SIN(PSI)SIN(PHI)
000942: 34,2517           77745                           DLOAD
000943: 34,2520           00011                                    8D
000944: 34,2521           10007                           STORE    6,2                                   #  C3=SIN(PSI)
000945: 34,2522           77745                           DLOAD
000946: 34,2523           00013                                    10D
000947: 34,2524           72405                           DMP      SL1
000948: 34,2525           00003                                    2
000949: 34,2526           10011                           STORE    8D,2                                  #  C4=COS(PSI)COS(PHI)
000950: 34,2527           41345                           DLOAD    DMP
000951: 34,2530           00013                                    10D
000952: 34,2531           00001                                    0
000953: 34,2532           72476                           DCOMP    SL1
000954: 34,2533           10013                           STORE    10D,2                                 #  C5=-COS(PSI)SIN(PHI)
000955: 34,2534           41345                           DLOAD    DMP
000956: 34,2535           00005                                    4
000957: 34,2536           00013                                    10D
000958: 34,2537           72476                           DCOMP    SL1
000959: 34,2540           10015                           STORE    12D,2                                 #  C6=-SIN(THETA)COS(PSI)
000960: 34,2541           77745                           DLOAD
000961: 34,2542           72405                           DMP      SL1                                   #   (PUSH UP 7)
000962: 34,2543           00011                                    8D
000963: 34,2544           41325                           PDDL     DMP                                   #   (PD7 COS(PHI)SIN(THETA)SIN(PSI)) SCALE 4
000964: 34,2545           00007                                    6
000965: 34,2546           00001                                    0
000966: 34,2547           72415                           DAD      SL1                                   #   (PUSH UP 7)
000967: 34,2550           77626                           STADR                                          #  C7=COS(PHI)SIN(THETA)SIN(PSI)
000968: 34,2551           67760                           STORE    14D,2                                 #   +COS(THETA)SIN(PHI)
000969: 34,2552           77745                           DLOAD
000970: 34,2553           72405                           DMP      SL1                                   #   (PUSH UP 6)
000971: 34,2554           00011                                    8D
000972: 34,2555           41325                           PDDL     DMP                                   #   (PD6 SIN(THETA)SIN(PHI)SIN(PSI)) SCALE 4
000973: 34,2556           00007                                    6
000974: 34,2557           00003                                    2
000975: 34,2560           72425                           DSU      SL1                                   #   (PUSH UP 6)
000976: 34,2561           77626                           STADR
000977: 34,2562           67756                           STORE    16D,2                                 #  C8=-SIN(THETA)SIN(PHI)SIN(PSI)
000978: 34,2563           77616                           RVQ                                            #   +COS(THETA)COS(PHI)
000979:
000980:                                                                                                  #  CALCULATION OF THE MATRIX DEL......
000981:
000982:                                                                                                  #           *      *               --T           *


000984:                                                                                                  #           DEL = (IDMATRIX)COS(A)+UU (1-COS(A))+UX SIN(A)         SCALED 1
000985:                                                                                                  #                 -
000986:                                                                                                  #           WHERE U IS A UNIT VECTOR (DP SCALED 2) ALONG THE AXIS OF ROTATION.
000987:                                                                                                  #           A IS THE ANGLE OF ROTATION (DP SCALED 2)
000988:                                                                                                  #                                              -
000989:                                                                                                  #           UPON ENTRY THE STARTING ADDRESS OF U IS COF, AND A IS IN MPAC
000990:
000991: 34,2564           41401        DELCOMP            SETPD    PUSH                                  #  MPAC CONTAINS THE ANGLE A
000992: 34,2565           00001                                    0
000993: 34,2566           65356                           SIN      PDDL                                  #  PD0 = SIN(A)
000994: 34,2567           41546                           COS      PUSH                                  #  PD2 = COS(A)
000995: 34,2570           65302                           SR2      PDDL                                  #  PD2 = COS(A)                          $8
000996: 34,2571           41021                           BDSU     BOVB
000997: 34,2572           30414                                    HALFA
000998: 34,2573           73501                                    SIGNMPAC
000999: 34,2574           77725                           PDDL                                           #  PD4 = 1-COS(A)
001000:
001001:                                                                                                  #  COMPUTE THE DIAGONAL COMPONENTS OF DEL
001002:
001003: 34,2575           01624                                    COF
001004: 34,2576           41316                           DSQ      DMP
001005: 34,2577           00005                                    4
001006: 34,2600           52415                           DAD      SL3                                   #  UXUX(1-COS(A))                        $8
001007: 34,2601           00003                                    2
001008: 34,2602           77604                           BOVB
001009: 34,2603           73501                                    SIGNMPAC
001010: 34,2604           15560                           STODL    KEL                                   #  UX UX(1-COS(A)) +COS(A)                $1
001011: 34,2605           01626                                    COF        +2
001012: 34,2606           41316                           DSQ      DMP
001013: 34,2607           00005                                    4
001014: 34,2610           52415                           DAD      SL3                                   #  UYUY(1-COS(A))                        $8
001015: 34,2611           00003                                    2
001016: 34,2612           77604                           BOVB
001017: 34,2613           73501                                    SIGNMPAC
001018: 34,2614           15570                           STODL    KEL        +8D                        #  UY UY(1-COS(A)) +COS(A)                $1
001019: 34,2615           01630                                    COF        +4
001020: 34,2616           41316                           DSQ      DMP
001021: 34,2617           00005                                    4
001022: 34,2620           52415                           DAD      SL3                                   #  UZUZ(1-COS(A))                        $8
001023: 34,2621           00003                                    2
001024: 34,2622           77604                           BOVB
001025: 34,2623           73501                                    SIGNMPAC
001026: 34,2624           01600                           STORE    KEL        +16D                       #  UZ UZ(1-COS(A)) +COS(A)                $1
001027:
001028:                                                                                                  #  COMPUTE THE OFF DIAGONAL TERMS OF DEL
001029:
001030: 34,2625           41345                           DLOAD    DMP
001031: 34,2626           01624                                    COF
001032: 34,2627           01626                                    COF        +2


001034: 34,2630           72405                           DMP      SL1
001035: 34,2631           00005                                    4
001036: 34,2632           41325                           PDDL     DMP                                   #  D6  UX UY (1-COS A)                $ 4
001037: 34,2633           01630                                    COF        +4
001038: 34,2634           00001                                    0
001039: 34,2635           43206                           PUSH     DAD                                   #  D8  UZ SIN A                       $ 4
001040: 34,2636           00007                                    6
001041: 34,2637           41112                           SL2      BOVB
001042: 34,2640           73501                                    SIGNMPAC
001043: 34,2641           15566                           STODL    KEL        +6
001044: 34,2642           62421                           BDSU     SL2
001045: 34,2643           77604                           BOVB
001046: 34,2644           73501                                    SIGNMPAC
001047: 34,2645           15562                           STODL    KEL        +2
001048: 34,2646           01624                                    COF
001049: 34,2647           41205                           DMP      DMP
001050: 34,2650           01630                                    COF        +4
001051: 34,2651           00005                                    4
001052: 34,2652           65352                           SL1      PDDL                                  #  D6  UX UZ (1-COS A )                $ 4
001053: 34,2653           01626                                    COF        +2
001054: 34,2654           41405                           DMP      PUSH                                  #  D8  UY SIN(A)
001055: 34,2655           00001                                    0
001056: 34,2656           62415                           DAD      SL2
001057: 34,2657           00007                                    6
001058: 34,2660           77604                           BOVB
001059: 34,2661           73501                                    SIGNMPAC
001060: 34,2662           15564                           STODL    KEL        +4                         #  UX UZ (1-COS(A))+UY SIN(A)
001061: 34,2663           62421                           BDSU     SL2
001062: 34,2664           77604                           BOVB
001063: 34,2665           73501                                    SIGNMPAC
001064: 34,2666           15574                           STODL    KEL        +12D                       #  UX UZ (1-COS(A))-UY SIN(A)
001065: 34,2667           01626                                    COF        +2
001066: 34,2670           41205                           DMP      DMP
001067: 34,2671           01630                                    COF        +4
001068: 34,2672           00005                                    4
001069: 34,2673           65352                           SL1      PDDL                                  #  D6  UY UZ (1-COS(A))                $ 4
001070: 34,2674           01624                                    COF
001071: 34,2675           41405                           DMP      PUSH                                  #  D8  UX SIN(A)
001072: 34,2676           00001                                    0
001073: 34,2677           62415                           DAD      SL2
001074: 34,2700           00007                                    6
001075: 34,2701           77604                           BOVB
001076: 34,2702           73501                                    SIGNMPAC
001077: 34,2703           15576                           STODL    KEL        +14D                       #  UY UZ(1-COS(A)) +UX SIN(A)
001078: 34,2704           62421                           BDSU     SL2
001079: 34,2705           77604                           BOVB
001080: 34,2706           73501                                    SIGNMPAC
001081: 34,2707           01572                           STORE    KEL        +10D                       #  UY UZ (1-COS(A)) -UX SIN(A)
001082: 34,2710           77616                           RVQ
001083:


001085:                                                                                                  #  DIRECTION COSINE MATRIX TO CDU ANGLE ROUTINE
001086:                                                                                                  #  X1 CONTAINS THE COMPLEMENT OF THE STARTING ADDRESS FOR MATRIX (SCALED 2)
001087:                                                                                                  #  LEAVES CDU ANGLES SCALED 2PI IN V(MPAC)
001088:                                                                                                  #  COS(MGA) WILL BE LEFT IN S1 (SCALED 1)
001089:
001090:                                                                                                  #  THE DIRECTION COSINE MATRIX RELATING S/C AXES TO STABLE MEMBER AXES CAN BE WRITTEN AS***
001091:
001092:                                                                                                  #           C =COS(THETA)COS(PSI)
001093:                                                                                                  #            0
001094:
001095:                                                                                                  #           C =-COS(THETA)SIN(PSI)COS(PHI)+SI (THETA)SIN(PHI)
001096:                                                                                                  #            1
001097:
001098:                                                                                                  #           C =COS(THETA)SIN(PSI)SIN(PHI) + S N(THETA)COS(PHI)
001099:                                                                                                  #            2
001100:
001101:                                                                                                  #           C =SIN(PSI)
001102:                                                                                                  #            3
001103:
001104:                                                                                                  #           C =COS(PSI)COS(PHI)
001105:                                                                                                  #            4
001106:
001107:                                                                                                  #           C =-COS(PSI)SIN(PHI)
001108:                                                                                                  #            5
001109:
001110:                                                                                                  #           C =-SIN(THETA)COS(PSI)
001111:                                                                                                  #            6
001112:
001113:                                                                                                  #           C =SIN(THETA)SIN(PSI)COS(PHI)+COS THETA)SIN(PHI)
001114:                                                                                                  #            7
001115:
001116:                                                                                                  #           C =-SIN(THETA)SIN(PSI)SIN(PHI)+CO (THETA)COS(PHI)
001117:                                                                                                  #            8
001118:
001119:                                                                                                  #           WHERE PHI = OGA
001120:                                                                                                  #                 THETA = IGA
001121:                                                                                                  #                 PSI = MGA
001122:
001123: 34,2711           67543        DCMTOCDU           DLOAD*   ARCSIN
001124: 34,2712           00007                                    6,1
001125: 34,2713           71406                           PUSH     COS                                   #  PD +0   PSI
001126: 34,2714           41152                           SL1      BOVB
001127: 34,2715           73501                                    SIGNMPAC
001128: 34,2716           00051                           STORE    S1
001129: 34,2717           57543                           DLOAD*   DCOMP
001130: 34,2720           00015                                    12D,1
001131: 34,2721           67471                           DDV      ARCSIN
001132: 34,2722           00051                                    S1
001133: 34,2723           51123                           PDDL*    BPL                                   #  PD +2  THETA
001134: 34,2724           00001                                    0,1                                   #  MUST CHECK THE SIGN OF COS(THETA)
001135: 34,2725           70737                                    OKTHETA                               #  TO DETERMINE THE PROPER QUADRANT
001136: 34,2726           57545                           DLOAD    DCOMP
001137: 34,2727           43244                           BPL      DAD
001138: 34,2730           70734                                    SUHALFA
001139: 34,2731           30414                                    HALFA
001140: 34,2732           77650                           GOTO
001141: 34,2733           70736                                    CALCPHI
001142: 34,2734           77625        SUHALFA            DSU


001144: 34,2735           30414                                    HALFA
001145: 34,2736           77606        CALCPHI            PUSH
001146: 34,2737           57543        OKTHETA            DLOAD*   DCOMP
001147: 34,2740           00013                                    10D,1
001148: 34,2741           67471                           DDV      ARCSIN
001149: 34,2742           00051                                    S1
001150: 34,2743           51123                           PDDL*    BPL                                   #  PUSH DOWN PHI
001151: 34,2744           00011                                    8D,1
001152: 34,2745           70757                                    OKPHI
001153: 34,2746           57545                           DLOAD    DCOMP                                 #  PUSH UP PHI
001154: 34,2747           43244                           BPL      DAD
001155: 34,2750           70754                                    SUHALFAP
001156: 34,2751           30414                                    HALFA
001157: 34,2752           77650                           GOTO
001158: 34,2753           70760                                    VECOFANG
001159: 34,2754           52025        SUHALFAP           DSU      GOTO
001160: 34,2755           30414                                    HALFA
001161: 34,2756           70760                                    VECOFANG
001162: 34,2757           77745        OKPHI              DLOAD                                          #  PUSH UP PHI
001163: 34,2760           43466        VECOFANG           VDEF     RVQ
001164:


001166:                                                                                                  #  ROUTINES FOR TERMINATING THE AUTOMATIC MANEUVER AND RETURNING TO USER
001167:
001168: 34,2761           77776        ENDMANU            EXIT
001169: 34,2762           37762                           CAF      TWO
001170: 34,2763           00004                           INHINT
001171: 34,2764           05663                           TC       WAITLIST                              #  PREPARE FOR A GOOD (NORMAL) RETURN VIA
001172: 34,2765  E3,1535                                  EBANK=   MIS
001173: 34,2765           03710 70063                     2CADR    GOODMANU                              #  GOODEND
001174:
001175: 34,2767           00003                           RELINT
001176: 34,2770           05567                           TC       ENDOFJOB
001177:
001178: 34,2771           77776        TOOBAD             EXIT                                           #  INITIAL OR FINAL GIMBAL ANGLES IN
001179: 34,2772           37762                           CAF      TWO                                   #  GIMBAL LOCK
001180: 34,2773           00004                           INHINT
001181: 34,2774           05663                           TC       WAITLIST
001182: 34,2775  E3,1535                                  EBANK=   MIS
001183: 34,2775           03001 70063                     2CADR    NOGO                                  #  PREPARE FOR A BAD RETURN VIA BADEND
001184:
001185: 34,2777           00003                           RELINT
001186: 34,3000           05567                           TC       ENDOFJOB
001187:
001188: 34,3001           06076        NOGO               TC       FLAG2DWN                              #  RESET BIT 11 OF FLAGWRD2 TO SIGNAL END
001189: 34,3002           02000                           OCT      2000                                  #  OF KALCMANU
001190: 34,3003           36311                           CAF      THREE
001191: 34,3004           05225                           TC       POSTJUMP                              #  RETURN UNDER WAITLIST VIA BADEND
001192: 34,3005           26715                           CADR     BADEND                                #  AND WAKE UP USER

End of include-file ATTITUDE_MANEUVER_ROUTINE.agc.  Parent file is MAIN.agc


