
Source Code


000002:                                                                                                  ## Copyright:    Public domain.
000003:                                                                                                  ## Filename:     AVERAGE_G_INTEGRATOR.agc
000004:                                                                                                  ## Purpose:      A module for revision 0 of BURST120 (Sunburst). It
000005:                                                                                                  ##               is part of the source code for the Lunar Module's
000006:                                                                                                  ##               (LM) Apollo Guidance Computer (AGC) for Apollo 5.
000007:                                                                                                  ## Assembler:    yaYUL
000008:                                                                                                  ## Contact:      Ron Burkey <info@sandroid.org>.
000009:                                                                                                  ## Website:      www.ibiblio.org/apollo/index.html
000010:                                                                                                  ## Mod history:  2016-09-30 RSB  Created draft version.
000011:                                                                                                  ##               2016-10-29 MAS  Adapted from Colossus 237.
000012:                                                                                                  ##               2016-10-31 RSB  Typos.
000013:


000015:                                                                                                  #  *************************************************************************************************************
000016:
000017:                                                                                                  #           ROUTINE CALCRVG INTEGRATES THE EQUATIONS OF MOTION BY AVERAGING THE THRUST AND GRAVITATIONAL
000018:                                                                                                  #  ACCELERATIONS OVER A TIME INTERVAL OF 2 SECONDS.
000019:
000020:                                                                                                  #           FOR THE EARTH-CENTERED GRAVITATIONAL FIELD, THE PERTURBATION DUE TO OBLATENESS IS COMPUTED TO THE FIRST
000021:                                                                                                  #  HARMONIC COEFFICIENT J.
000022:
000023:                                                                                                  #           ROUTINE CALCRVG REQUIRES...
000024:                                                                                                  #                  1) THRUST ACCELERATION INCREMENTS IN DELV SCALED SAME AS PIPAX,Y,Z
000025:                                                                                                  #                  2) VN SCALED 2(+7)M/CS.
000026:                                                                                                  #                  3) PUSHDOWN COUNTER SET TO ZERO.
000027:                                                                                                  #  IT LEAVES RN1 UPDATED (SCALED AT 2(+24)M, VN1 (SCALED AT 2(+7)M/CS), ANDGDT1/2 (SCALED AT 2(+7)M/CS).
000028:
000029:
000030: 30,3103                                           BANK     30
000031: 30,3103  E5,1544                                  EBANK=   EVEX
000032:
000033: 30,3103           77656        CALCGRAV           UNIT                                           #  ENTER WITH RN AT 2(+24)M IN VAC
000034: 30,3104           01033                           STORE    UNITR
000035: 30,3105           41441                           DOT      PUSH
000036: 30,3106           01041                                    UNITW
000037: 30,3107           56316                           DSQ      DDV
000038: 30,3110           21171                                    DP1/10
000039: 30,3111           65221                           BDSU     PDDL
000040: 30,3112           21167                                    DP1/8TH
000041: 30,3113           00045                                    36D
000042: 30,3114           15047                           STODL    RMAG
000043: 30,3115           21173                                    J(RE)SQ
000044: 30,3116           77671                           DDV
000045: 30,3117           00043                                    34D
000046: 30,3120           00041                           STORE    32D
000047: 30,3121           77605                           DMP
000048: 30,3122           65361                           VXSC     PDDL
000049: 30,3123           01033                                    UNITR
000050: 30,3124           74205                           DMP      VXSC
000051: 30,3125           00041                                    32D
000052: 30,3126           01041                                    UNITW
000053: 30,3127           53255                           VAD      VAD
000054: 30,3130           01033                                    UNITR
000055: 30,3131           56325                           PDDL     DDV
000056: 30,3132           21175                                    -MUDT
000057: 30,3133           00043                                    34D
000058: 30,3134           45561                           VXSC     STADR
000059: 30,3135           76712                           STORE    GDT1/2
000060:
000061: 30,3136           77616                           RVQ
000062:
000063: 30,3137           74375        CALCRVG            VLOAD    VXSC
000064: 30,3140           00404                                    DELV


000066: 30,3141           21165                                    KPIP1
000067: 30,3142           44006                           PUSH     STQ                                   #  DV/2 TO PD SCALED AT 2(+7)M/CS
000068: 30,3143           00037                                    31D
000069: 30,3144           41455                           VAD      PUSH                                  #  (DV-OLDGDT)/2 TO PD SCALED AT 2(+7)M/CS
000070: 30,3145           01025                                    GDT/2
000071: 30,3146           74255                           VAD      VXSC
000072: 30,3147           01017                                    VN
000073: 30,3150           21177                                    2SEC(17)
000074: 30,3151           77655                           VAD
000075: 30,3152           01011                                    RN
000076: 30,3153           35051                           STCALL   RN1                                   #  TEMP STORAGE OF RN SCALED 2(+24)M
000077: 30,3154           61103                                    CALCGRAV
000078:


000080: 30,3155           53255                           VAD      VAD
000081: 30,3156           77655                           VAD
000082: 30,3157           01017                                    VN
000083: 30,3160           35057                           STCALL   VN1                                   #  TEMP STORAGE OF VN SCALED 2(+7)M/CS
000084: 30,3161           00037                                    31D
000085:
000086: 30,3162           03215 27057  KPIP               2DEC     .1024                                 #  SCALES DELV TO 2(+4)
000087:
000088: 30,3164           00150 33343  KPIP1              2DEC     0.0064
000089:
000090: 30,3166           04000 00000  DP1/8TH            2DEC     0.125
000091:
000092: 30,3170           03146 14632  DP1/10             2DEC     0.1
000093:
000094: 30,3172           00036 30103  J(RE)SQ            2DEC     0.060066630 B-5                        #       SCALED AT 2(+45)
000095:
000096: 30,3174           77774 53772  -MUDT              2DEC*    -7.9720645 E+12       B-55*
000097:
000098: 30,3176           00031 00000  2SEC(17)           2DEC     200        B-17
000099:
000100: 30,3200           04000 00000  DP2(-3)            2DEC     0.125
000101:
000102: 30,3202           00224 17561  MUEARTH            2DEC     0.009063188                            #  3.98603223 E14 SCALED AT 2(42)M(3)/CS(2)
000103:
000104: 30,3204           00164 34414  MUMOON             2DEC     0.007134481                            #  4.90277800 E12 SCALED AT 2(36)M(3)/CS(2)

End of include-file AVERAGE_G_INTEGRATOR.agc.  Parent file is MAIN.agc


