
Source Code


000002:                                                                                                  ## Copyright:   Public domain.
000003:                                                                                                  ## Filename:    DAP_INTERFACE_SUBROUTINES.agc
000004:                                                                                                  ## Purpose:     A module for revision 0 of BURST120 (Sunburst). It
000005:                                                                                                  ##              is part of the source code for the Lunar Module's
000006:                                                                                                  ##              (LM) Apollo Guidance Computer (AGC) for Apollo 5.
000007:                                                                                                  ## Assembler:   yaYUL
000008:                                                                                                  ## Contact:     Ron Burkey <info@sandroid.org>.
000009:                                                                                                  ## Website:     www.ibiblio.org/apollo/index.html
000010:                                                                                                  ## Mod history: 2016-09-30 RSB  Created draft version from Luminary 099.
000011:                                                                                                  ##              2016-10-18 RSB  Completed transcription.
000012:                                                                                                  ##              2016-10-31 RSB  Typos.
000013:                                                                                                  ##              2016-11-01 RSB  More typos.
000014:                                                                                                  ##              2016-12-05 RSB  Comment-proofing with octopus/ProoferComments
000015:                                                                                                  ##                              completed, changes made.
000016:


000018: 20,2046                                           BANK     20
000019: 20,2046  E6,1542                                  EBANK=   DT
000020:
000021:                                                                                                  #  MOD 0         DATE    11/15/66        BY GEORGE W. CHERRY
000022:
000023:                                                                                                  #  FUNCTIONAL DESCRIPTION
000024:
000025:                                                                                                  #           HEREIN ARE A COLLECTION OF SUBROUTINES WHICH ALLOW MISSION CONTROL PROGRAMS TO CONTROL THE MODE
000026:                                                                                                  #           AND INTERFACE WITH THE DAP.
000027:
000028:                                                                                                  #  CALLING SEQUENCES
000029:
000030:                                                                                                  #  IN INTERRUPT OR WITH INTERRUPT INHIBITED
000031:                                                                                                  #           TC     IBNKCALL
000032:                                                                                                  #           FCADR  ROUTINE
000033:
000034:                                                                                                  #  IN A JOB WITHOUT INTERRUPT INHIBITED
000035:                                                                                                  #           INHINT
000036:                                                                                                  #           TC     IBNKCALL
000037:                                                                                                  #           FCADR  ROUTINE
000038:                                                                                                  #           RELINT
000039:
000040:                                                                                                  #  OUTPUT
000041:                                                                                                  #           SEE INDIVIDUAL ROUTINES BELOW
000042:
000043:                                                                                                  #  DEBRIS
000044:                                                                                                  #           A,L, AND SOMETIMES MDUETEMP
000045:


000047:                                                                                                  #  DAPBOOLS BITS AND NAMES
000048:
000049: 20,2046     7763               OURRCBIT           EQUALS   BIT1                                  #  INTERNAL DAP RATE COMMAND ACTIVITY FLAG
000050: 20,2046     7762               TRYGIMBL           EQUALS   BIT2                                  #  TRIM GIMBAL FLAG
000051: 20,2046     7761               DATAGOOD           EQUALS   BIT3                                  #  RECIPROCAL ACCELERATIONS OKAY FLAG
000052: 20,2046     7760               ACC4OR2X           EQUALS   BIT4                                  #  2 OR 4 JET Z-TRANSLATION MODE FLAG
000053: 20,2046     7757               AORBSYST           EQUALS   BIT5                                  #  P-AXIS ROTATION JET SYSTEM (A OR B) FLAG
000054: 20,2046     7756               ULLAGER            EQUALS   BIT6                                  #  INTERNAL ULLAGE REQUEST FLAG
000055: 20,2046     7755               DBSELECT           EQUALS   BIT7                                  #  DAP DEADBAND SELECT FLAG
000056: 20,2046     7754               APSGOING           EQUALS   BIT8                                  #  ASCENT PROPULSION SYSTEM BURN FLAG
000057: 20,2046     7753               VIZPHASE           EQUALS   BIT9                                  #  DESCENT VISIBILITY PHASE FLAG
000058: 20,2046     7752               PULSES             EQUALS   BIT10                                 #  MINIMUM IMPULSE RHC MODE FLAG
000059: 20,2046     7751               GODAPGO            EQUALS   BIT11                                 #  DAP ENABLING FLAG
000060: 20,2046     7750               MASSGOOD           EQUALS   BIT12                                 #  MASS OKAY FLAG
000061:
000062:                                                                                                  #  STILL AVAILABLE BIT13
000063:
000064: 20,2046     7746               AUTORHLD           EQUALS   BIT14                                 #  AUTOMATIC MODE RATE HOLD FLAG
000065: 20,2046     7745               SPSBACUP           EQUALS   BIT15                                 #  SPS BACKUP DAP FLAG
000066:
000067:
000068: 20,2046     7762               USEQRJTS           EQUALS   TRYGIMBL                              #  ALTERNATE TRIM GIMBAL FLAG
000069:
000070:                                                                                                  #               BIT     FLAGWORD   SWITCH   SWITCH    ON-STATE                      OFF-STATE
000071:                                                                                                  #  LOCATION    NUMBER    SYMBOL    NUMBER   SYMBOL    INDICATES                     INDICATES
000072:                                                                                                  #  --------   --------  --------   ------   ------    ---------                     ---------
000073:
000074:                                                                                                  #  DAPBOOLS      1      OURRCBIT     59               INTERNAL RATE COMMAND         NO INTERNAL RATE COMMAND
000075:                                                                                                  #                                                        ACTIVITY                      ACTIVITY  (LOCKED ON 0)
000076:                                                                                                  #                2      TRYGIMBL     58               TRIM GIMBAL CONTROL           TRIM GIMBAL CONTROL POSSIBLE
000077:                                                                                                  #                                                        IMPOSSIBLE
000078:                                                                                                  #                3      DATAGOOD     57               RECIPROCAL ACCELERATION       RECIPROCAL ACCELERATION
000079:                                                                                                  #                                                        PROBABLY CORRECT              PROBABLY INCORRECT
000080:                                                                                                  #                4      ACC4OR2X     56               P-AXIS 4 JET                  P-AXIS 2 JET
000081:                                                                                                  #                                                        X-TRANSLATION MODE            X-TRANSLATION MODE
000082:                                                                                                  #                                                        (LOCKED ON 1)
000083:                                                                                                  #                5      AORBSYST     55               P-FORCE COUPLES 15, 7 AND     P-FORCE COUPLES 4, 12 AND 3, 11
000084:                                                                                                  #                                                        16, 8
000085:                                                                                                  #                6      ULLAGER      54               INTERNAL ULLAGE REQUEST       NO INTERNAL ULLAGE REQUEST
000086:                                                                                                  #                7      DBSELECT     53               MAX DEADBAND SELECT           MIN DEADBAND SELECT
000087:                                                                                                  #                8      APSGOING     52               ASCENT PROPULSION SYSTEM      APS OFF
000088:                                                                                                  #                                                        BURN
000089:                                                                                                  #                9      VIZPHASE     51               DESCENT VISIBILITY PHASE      NOT IN DESCENT VISIBILITY
000090:                                                                                                  #                                                        (LOCKED ON 1)                 PHASE
000091:                                                                                                  #               10      PULSES       50               MINIMUM IMPULSE RHC MODE      RATE COMMAND RHC MODE
000092:                                                                                                  #                                                                                      (LOCKED ON 0)
000093:                                                                                                  #               11      GODAPGO      49               DAP ENABLED                   DAP IDLING
000094:                                                                                                  #               12      MASSGOOD     48               VALUE OF MASS PROBABLY        VALUE OF MASS PROBABLY
000095:                                                                                                  #                                                        CORRECT                       INCORRECT


000097:                                                                                                  #               13                   47               NOT AVAILABLE - STATE
000098:                                                                                                  #                                                        IRRELEVANT
000099:                                                                                                  #               14      AUTORHLD     46               AUTOMATIC RATE HOLD MODE      AUTOMATIC ATTITUDE HOLD
000100:                                                                                                  #               15      SPSBACUP     45               NOT IN SPS BACK-UP DAP MODE   SPS BACK-UP DAP MODE
000101:                                                                                                  #                                                        (LOCKED ON 1)
000102:
000103: 20,2046           36110        SETMINDB           CAF      NARROWDB
000104: 20,2047           54375                           TS       DB
000105: 20,2050           47755                           CS       DBSELECT
000106: 20,2051           70077                           MASK     DAPBOOLS
000107: 20,2052           54077                           TS       DAPBOOLS
000108: 20,2053           00002                           TC       Q
000109:
000110: 20,2054           36111        SETMAXDB           CAF      WIDEDB
000111: 20,2055           54375                           TS       DB
000112: 20,2056           40077                           CS       DAPBOOLS
000113: 20,2057           77755                           MASK     DBSELECT
000114: 20,2060           26077                           ADS      DAPBOOLS
000115: 20,2061           00002                           TC       Q
000116:
000117: 20,2062           40077        ULLAGE             CS       DAPBOOLS
000118: 20,2063           77756                           MASK     ULLAGER
000119: 20,2064           26077                           ADS      DAPBOOLS
000120: 20,2065           00002                           TC       Q
000121:
000122: 20,2066           47756        NOULLAGE           CS       ULLAGER
000123: 20,2067           70077                           MASK     DAPBOOLS
000124: 20,2070           54077                           TS       DAPBOOLS
000125: 20,2071           00002                           TC       Q
000126:
000127: 20,2072           12106        HOLDRATE           TCF      COMNEXIT                              #  REPLACE BY  CS DAPBOOLS  FOR RATE HOLD.
000128: 20,2073           77746                           MASK     AUTORHLD
000129: 20,2074           26077                           ADS      DAPBOOLS
000130:
000131: 20,2075           35632                           CAF      EBANK6
000132: 20,2076           56003                           XCH      EBANK
000133: 20,2077           54776                           TS       OMEGARD
000134:
000135: 20,2100           00006                           EXTEND
000136: 20,2101           31416                           DCA      OMEGAP
000137: 20,2102           52775                           DXCH     OMEGAPD
000138: 20,2103           31420                           CAE      OMEGAR
000139: 20,2104           56776                           XCH      OMEGARD
000140:
000141: 20,2105           54003                           TS       EBANK
000142:
000143: 20,2106           00006        COMNEXIT           EXTEND
000144: 20,2107           30034                           DCA      CDUY


000146: 20,2110           52770                           DXCH     CDUYD
000147: 20,2111           30032                           CAE      CDUX
000148: 20,2112           54766                           TS       CDUXD
000149:
000150: 20,2113           00002                           TC       Q
000151:
000152: 20,2114           47746        STOPRATE           CS       AUTORHLD
000153: 20,2115           70077                           MASK     DAPBOOLS
000154: 20,2116           54077                           TS       DAPBOOLS
000155:
000156: 20,2117           37767                           CAF      ZERO
000157: 20,2120           54774                           TS       OMEGAPD
000158: 20,2121           54775                           TS       OMEGAQD
000159: 20,2122           54776                           TS       OMEGARD
000160: 20,2123           54771                           TS       DELCDUX
000161: 20,2124           54772                           TS       DELCDUY
000162: 20,2125           54773                           TS       DELCDUZ
000163: 20,2126           12106                           TCF      COMNEXIT
000164:
000165: 20,2127  20,2072               SETRATE            EQUALS   HOLDRATE
000166:


000168:                                                                                                  #  SUBROUTINE NAME: 1. UPCOAST     MOD. NO. 1  DATE: DECEMBER 4, 1966
000169:                                                                                                  #                   2. ALLCOAST
000170:                                                                                                  #                   3. WCHANGE
000171:
000172:                                                                                                  #  AUTHOR: JONATHAN D. ADDELSTON (ADAMS ASSOCIATES)
000173:
000174:                                                                                                  #  "UPCOAST" SETS UP DAP VARIABLES TO THEIR ASCENT-COAST VALUES.
000175:
000176:                                                                                                  #  GROUNDRULE: IT MUST BE CALLED AS SOON AS ASCENT COAST IS DETECTED.
000177:
000178:                                                                                                  #  "ALLCOAST" SETS UP MANY DAP VARIABLES FOR "STARTDAP" IN "DAPIDLER".
000179:
000180:                                                                                                  #  GROUNDRULE: DESCOAST IS CALLED AS SOON AS DESCENT COAST IS DETECTED.
000181:
000182:                                                                                                  #  "WCHANGE" SETS UP THE VARIABLE FOR "WCHANGER" AS A STORAGE SAVING DEVICE.
000183:
000184:                                                                                                  #  CALLING SEQUENCE: (SAME AS ABOVE.)
000185:
000186:                                                                                                  #  SUBROUTINES CALLED: NONE.
000187:
000188:                                                                                                  #  ZERO: AOSQ,AOSR,AOSU,AOSV,AOSQTERM,AOSRTERM,ALL NJS.
000189:
000190:                                                                                                  #  SET URGRATQ AND URGRATR TO POSMAX.
000191:
000192:                                                                                                  #  OUTPUT: WFORP   (1-K)    MINIMPDB  APSGOING/DAPBOOLS
000193:                                                                                                  #           WFORQR  (1-K)/8  DBMINIMP  1/AMINQ  1/AMINR  1/AMINU  1/AMINV
000194:                                                                                                  #  DEBRIS: A,L.
000195:
000196:                                                                                                  #  ***** WARNING. *****  EBANK MUST BE SET TO 6.
000197:
000198: 20,2127                                           BANK     20
000199: 20,2127  E6,1640                                  EBANK=   WFORP
000200:
000201: 20,2127           35632        ALLCOAST           CAF      EBANK6
000202: 20,2130           56003                           XCH      EBANK
000203: 20,2131           54066                           TS       ITEMP6
000204:
000205: 20,2132           47754                           CS       APSGOING
000206: 20,2133           70077                           MASK     DAPBOOLS
000207: 20,2134           54077                           TS       DAPBOOLS
000208:
000209: 20,2135           37771                           CAF      NEGONE                                #  MAKES SPECIAL DAP APS CODING INACTIVE
000210: 20,2136           55732                           TS       AOSCOUNT
000211: 20,2137           33420                           CAF      0.00444
000212: 20,2140           55631                           TS       MINIMPDB                              #  IMPULSE DBS ARE SET TO 0.8 DEGREES.
000213: 20,2141           55632                           TS       DBMNMPAX                              #  (AND P-AXIS VALUE)
000214: 20,2142           55630                           TS       DBMINIMP
000215:
000216: 20,2143           37743                           CAF      POSMAX                                #  SET URGENCY FUNCTION CORRECTION RATIOS
000217: 20,2144           55725                           TS       URGRATQ                               #  TO ALMOST 1 BEFORE BEING SET IN AOSJOB.
000218:


000220: 20,2145           55726                           TS       URGRATR                               #  SCALED AT 1.
000221:
000222: 20,2146           33744                           CAF      ACCFIFTY                              #  INVERSE MINIMUM ACCELERATIONS ARE SET TO
000223: 20,2147           55721                           TS       1/AMINQ                               #  50 SECONDS(2)/RADIAN.  THESE VARIABLES
000224: 20,2150           55722                           TS       1/AMINR                               #  ARE SET TO HALF THAT VALUE WITH THE
000225: 20,2151           55723                           TS       1/AMINU                               #  SCALE FACTOR 2(+8)/PI.
000226: 20,2152           55724                           TS       1/AMINV
000227:
000228: 20,2153           32174                           CAF      13DEC                                 #  ZERO THE FOLLOWING DAP ERASABLES:
000229: 20,2154           55650        CLEARASC           TS       KCOEFCTR                              #  AOSQ  AOSQTERM  NJ+Q  NJ+U
000230: 20,2155           37767                           CAF      ZERO                                  #  AOSR  AOSRTERM  NJ-Q  NJ-U
000231: 20,2156           51650                           INDEX    KCOEFCTR                              #  AOSU            NJ+R  NJ+V
000232: 20,2157           55660                           TS       AOSQ                                  #  AOSV            NJ-R  NJ-V
000233: 20,2160           11650                           CCS      KCOEFCTR
000234: 20,2161           12154                           TCF      CLEARASC
000235:
000236: 20,2162           33423        WCHANGE            CAF      0.3125                                #  K = 0.5
000237: 20,2163           55640                           TS       WFORP                                 #  WFORP = WFORQR = K/DT = K/.1 = 10K = 5
000238: 20,2164           55641                           TS       WFORQR                                #  SCALED AT 16 PER SECOND.
000239:
000240: 20,2165           00006                           EXTEND                                         #  K = 0.5 IMPLIES (1-K) = 0.5:
000241: 20,2166           33434                           DCA      (1-K)S                                #  (1-K)   = 0.5    SINCE SCALED AT 1.
000242: 20,2167           53643                           DXCH     (1-K)                                 #  (1-K)/8 = 0.0625 SINCE SCALED AT 8.
000243:
000244:                                                                                                  #  *** NOTE THAT STARTDAP RESETS WFORP,WFORQR,(1-K),(1-K)/8. ***
000245:
000246: 20,2170           30066                           CAE      ITEMP6
000247: 20,2171           54003                           TS       EBANK
000248:
000249: 20,2172           00002                           TC       Q                                     #  RETURN
000250:
000251:
000252: 20,2173           00033        0.3DEGDB           DEC      0.00167
000253: 20,2174           00015        13DEC              DEC      13         B-14
000254:


000256:                                                                                                  #  APS AND DPS ENGINE-ON ROUTINES (MUST BE CALLED WITH INTERRUPT INHIBIT)
000257:                                                                                                  #  THE NAMES ENGINEON, ENGINOFF, AND ENGINOF1 ARE PRESERVED TO KEEP CURRENT
000258:                                                                                                  #  SIMULATIONS AND EDITS OUT OF TROUBLE.
000259:
000260: 20,2175           35632        APSENGON           CAF      EBANK6
000261: 20,2176           56003                           XCH      EBANK
000262: 20,2177           55312                           TS       TEVENT     +1
000263:
000264: 20,2200           47767                           CS       ZERO                                  #  DUMMYFIL WILL SET APSGOING BIT BECAUSE
000265: 20,2201           55732                           TS       AOSCOUNT                              #  OF MINUS ZERO IN AOSCOUNT
000266: 20,2202           36106                           CAF      PGNSCADR                              #  ACTIVATE PGNCS MONITOR
000267:
000268:                                                                                                  #  START CODING FOR MODULE 3 REMAKE, AUGUST 1967***START CODING FOR MODULE 3 REMAKE, AUGUST 1967******************
000269: 20,2203           13057        20INSRT            TCF      20INSRTA                              #  STORE TIME FOR ENGINOFF DELAY LOGIC.
000270:                                                                                                  #  **END CODING FOR MODULE 3 REMAKE, AUGUST 1967****END CODING FOR MODULE  3 REMAKE, AUGUST 1967******************
000271: 20,2204           40077                           CS       DAPBOOLS                              #  TURN TRIM GIMBAL OFF IN CASE WE DID FITH
000272: 20,2205           77762                           MASK     USEQRJTS
000273: 20,2206           26077                           ADS      DAPBOOLS
000274:
000275: 20,2207           42225                           CS       INPARAB                               #  MODIFY THE TJETLAW FOR ASCENT BURNS:
000276: 20,2210           55631                           TS       MINIMPDB                              #  (IN ONE EQUATION DELETE MINIMPDB AND
000277: 20,2211           37767                           CAF      ZERO                                  #  SHIFT THE SWITCHING CURVE TO THE ORIGIN)
000278: 20,2212           55630                           TS       DBMINIMP                              #  MINIMPDB = -DB, DBMINIMP = 0
000279:
000280: 20,2213           00006                           EXTEND                                         #  SET UP ASCENT URGENCY LIMITS SCALED AT
000281: 20,2214           32312                           DCA      ASCURGLM                              #  2(+9) SECONDS AND
000282: 20,2215           53477                           DXCH     URGLMS                                #  2(+4) SECONDS.
000283:
000284: 20,2216           00006                           EXTEND                                         #  SET UP ASCENT RATE COMMAND VALUES:
000285: 20,2217           32314                           DCA      ASCRATEC                              #  -2.0 DEGREES/SECOND SCALED AT PI/4 LIMIT
000286: 20,2220           53501                           DXCH     -2JETLIM                              #  -1.0 DEGREES/SECOND SCALED AT PI/4 DB
000287:
000288: 20,2221           32224                           CAF      -.06ACC                               #  SET ACC. LIMIT FOR INVERSE CALCULATION
000289: 20,2222           55655                           TS       -.06R/S2                              #  HERE FOR STAGING AT APS BURN.
000290: 20,2223           12235                           TCF      ENGINEON                              #  BYPASS THE SPECIAL DPS MONITOR SETUP
000291:
000292: 20,2224           76615        -.06ACC            DEC      -.03820                               #  -0.06 RADIANS/SECOND(2) AT PI/2
000293:
000294: 20,2225           00067        INPARAB            DEC      +.00333                               #  NOTE FOR AS206 USE -.6DB NOT -DB
000295:
000296: 20,2226           30003        DPSENGON           CA       EBANK                                 #  SAVE CALLER'S EBANK
000297: 20,2227           55312                           TS       TEVENT     +1
000298: 20,2230           36105                           CAF      GMBLMNAD                              #  GIMBLMON HANDLES THE TRIM GIMBAL ON/OFF
000299:                                                                                                  #  LOGIC AND EXITS TO PGNCSMON
000300:
000301:                                                                                                  #  START CODING FOR MODULE 3 REMAKE, AUGUST 1967***START CODING FOR MODULE 3 REMAKE, AUGUST 1967*******************
000302:
000303: 20,2231           13767        INSERT20           TCF      SETCNTR                               #  SET FLAGS FOR CRITICAL GTS ENTRIES.
000304:
000305:                                                                                                  #  **END CODING FOR MODULE 3 REMAKE, AUGUST 1967*****END CODING FOR MODULE  3 REMAKE, AUGUST 1967*******************
000306:


000308: 20,2232           47760                           CS       BIT4                                  #  CLEAR GIMBLMON INHIBIT FLAG JUST IN CASE
000309: 20,2233           70076                           MASK     FLAGWRD2                              #  IT HAD NOT BEEN RESET BY THROTTLE CONTRO
000310: 20,2234           54076                           TS       FLAGWRD2
000311:
000312: 20,2235           00006        ENGINEON           EXTEND                                         #  THE ENGINE-ON COMMAND IS RECORDED
000313: 20,2236           30025                           DCA      TIME2                                 #  FOR THE DOWNLINK
000314: 20,2237           53312                           DXCH     TEVENT
000315:
000316: 20,2240           31340                           CA       STOPDVC
000317: 20,2241           55341                           TS       SETDVCNT
000318: 20,2242           36107                           CA       BURNDB                                #  SET ONE DEGREE DEADBAND FOR THE BURN
000319: 20,2243           54375                           TS       DB
000320:
000321: 20,2244           45210                           CS       PRIO30                                #  TURN ON THE ENGINE - APS OR DPS
000322: 20,2245           00006                           EXTEND                                         #  DEPENDING ON THE ARM COMMAND
000323: 20,2246           02011                           RAND     11
000324: 20,2247           67747                           AD       BIT13
000325: 20,2250           00006                           EXTEND
000326: 20,2251           01011                           WRITE    11
000327:
000328: 20,2252           40075                           CS       FLAGWRD1                              #  SET ENGINBIT - THE BIT WILL BE CLEARED
000329: 20,2253           77757                           MASK     ENGINBIT                              #  IN ENGINOFF AND THUS NODV CAN CHECK IT
000330: 20,2254           26075                           ADS      FLAGWRD1                              #  TO ASCERTAIN NORMAL OR PREMATURE CUTOFF
000331:
000332: 20,2255           35661                           CA       EBANK5
000333: 20,2256           54003                           TS       EBANK
000334: 20,2257  E5,1511                                  EBANK=   DVCNTR
000335: 20,2257           31337                           CA       STARTDVC                              #  SET UP THE DV MONITOR
000336: 20,2260           55511                           TS       DVCNTR
000337: 20,2261           22003                           LXCH     EBANK                                 #  RESTORE CALLER:S EBANK
000338: 20,2262           00002                           TC       Q                                     #  RETURN TO CALLER
000339:


000341:                                                                                                  #  APS AND DPS ENGINE - OFF ROUTINE ( CALL WITH INTERRUPT INHIBITED )
000342:
000343:                                                                                                  #  START CODING FOR MODULE 3 REMAKE, AUGUST 1967***START CODING FOR MODULE 3 REMAKE, AUGUST 1967******************
000344: 20,2263           13064        ENGINOFF           TCF      20INSRTB                              #  PROCEED TO ENGINOFF DELAY LOGIC.
000345:
000346:                                                                                                  #  **END CODING FOR MODULE 3 REMAKE, AUGUST 1967****END CODING FOR MODULE  3 REMAKE, AUGUST 1967******************
000347: 20,2264           02127                           TC       ALLCOAST                              #  DO DAP COASTING FLIGHT INITIALIZATION.
000348:
000349: 20,2265           00006                           EXTEND
000350: 20,2266           30025                           DCA      TIME2                                 #  THE ENGINE - OFF COMMAND IS RECORDED
000351: 20,2267           53312                           DXCH     TEVENT                                #  FOR THE DOWNLINK
000352:
000353:                                                                                                  #  START CODING FOR MODULE 3 REMAKE, AUGUST 1967***START CODING FOR MODULE 3 REMAKE, AUGUST 1967******************
000354: 20,2270           00006                           EXTEND                                         #  RESTORE ORIGINAL Q SETTING.
000355: 20,2271           22376                           QXCH     /TEMP1/
000356:
000357:                                                                                                  #  **END CODING FOR MODULE 3 REMAKE, AUGUST 1967****END CODING FOR MODULE  3 REMAKE, AUGUST 1967******************
000358: 20,2272           40077                           CS       DAPBOOLS                              #  TURN TRIM GIMBAL OFF.
000359: 20,2273           77762                           MASK     USEQRJTS
000360: 20,2274           26077                           ADS      DAPBOOLS
000361: 20,2275           36106                           CAF      PGNSCADR                              #  MAKE SURE GIMBLMON DOES NOT TURN GIMBAL
000362: 20,2276           55310                           TS       DVSELECT                              #  BACK ON.
000363:
000364: 20,2277           45210        ENGINOF1           CS       PRIO30                                #  TURN OFF THE ENGINE
000365: 20,2300           00006                           EXTEND
000366: 20,2301           02011                           RAND     11
000367: 20,2302           67746                           AD       BIT14
000368: 20,2303           00006                           EXTEND
000369: 20,2304           01011                           WRITE    11
000370:
000371: 20,2305           47757                           CS       ENGINBIT                              #  CLEAR ENGINBIT - THIS IS AN INDICATION
000372: 20,2306           70075                           MASK     FLAGWRD1                              #  OF NORMAL SHUTDOWN
000373: 20,2307           54075                           TS       FLAGWRD1
000374:
000375:                                                                                                  #  START CODING FOR MODULE 3 REMAKE, AUGUST 1967***START CODING FOR MODULE 3 REMAKE, AUGUST 1967*******************
000376:
000377: 20,2310           13045        INSRT20A           TCF      RESETCTR                              #  GO DEACTIVATE EXTRAORDINARY GTS FLAGS.
000378:
000379:                                                                                                  #  THEN RETURN TO CALLER.
000380:                                                                                                  #  **END CODING FOR MODULE 3 REMAKE, AUGUST 1967*****END CODING FOR MODULE 3 REMAKE, AUGUST 1967*******************
000381:
000382: 20,2311     7757               ENGINBIT           EQUALS   BIT5
000383: 20,2311           77767        ASCURGLM           DEC      -0.25      B-9                        #  -0.25 SECONDS SCALED AT 2(+9).
000384: 20,2312           77377                           DEC      -0.25      B-4                        #  -0.25 SECONDS SCALED AT 2(+4).
000385: 20,2313           77001        ASCRATEC           OCTAL    77001                                 #  -1.4 DEG/SEC SCALED AT PI/4 RADIANS/SEC
000386: 20,2314           77555                           OCTAL    77555                                 #  -0.4 DEG/SEC SCALED AT PI/4 RADIANS/SEC
000387:
000388: 20,2315           22002        1STENGOF           LXCH     Q                                     #  COME HERE FROM FRESH START.
000389: 20,2316           02277                           TC       ENGINOF1                              #  JUST TURN OFF ENGINE
000390: 20,2317           22002                           LXCH     Q
000391:


000393: 20,2320           12127                           TCF      ALLCOAST                              #  AND SET UP FOR COAST.

End of include-file DAP_INTERFACE_SUBROUTINES.agc.  Parent file is MAIN.agc


