
Source Code


000002:                                                                                                  ## Copyright:    Public domain.
000003:                                                                                                  ## Filename:     DAPIDLER_PROGRAM.agc
000004:                                                                                                  ## Purpose:      A module for revision 0 of BURST120 (Sunburst). It
000005:                                                                                                  ##               is part of the source code for the Lunar Module's
000006:                                                                                                  ##               (LM) Apollo Guidance Computer (AGC) for Apollo 5.
000007:                                                                                                  ## Assembler:    yaYUL
000008:                                                                                                  ## Contact:      Ron Burkey <info@sandroid.org>.
000009:                                                                                                  ## Website:      www.ibiblio.org/apollo/index.html
000010:                                                                                                  ## Mod history:  2016-09-30 RSB  Created draft version.
000011:                                                                                                  ##               2016-10-21 HG   Transcribed
000012:                                                                                                  ##               2016-10-31 RSB  Typos.
000013:                                                                                                  ##               2016-11-01 RSB  More typos.
000014:


000016:                                                                                                  #  THE DAPIDLER PROGRAM IS STARTED BY FRESH START AND RESTART.             THE DAPIDLER PROGRAM IS DONE 10 TIMES
000017:                                                                                                  #  PER SECOND UNTIL THE ASTRONAUT DESIRES THE DAP TO WAKE UP, AND THE IMU AND CDUS ARE READY FOR USE BY THE DAP.
000018:                                                                                                  #  THE NECESSARY INITIALIZATION OF THE DAP IS DONE BY THE DAPIDLER PROGRAM.
000019:                                                                                                  #  ADDITIONAL WORK MUST BE DONE ON DAPIDLER IN THE FURTURE.
000020:
000021:
000022:
000023: 16,2005                                           BANK     16
000024: 16,2005  E6,1542                                  EBANK=   DT
000025:
000026: 16,2005           37756        CHEKBITS           CAF      BIT6
000027: 16,2006           70365                           MASK     IMODES30
000028: 16,2007           10000                           CCS      A
000029: 16,2010           12166                           TCF      MOREIDLE
000030:
000031: 16,2011           37760                           CAF      BIT4
000032: 16,2012           67757                           AD       BIT5
000033: 16,2013           00006                           EXTEND
000034: 16,2014           02012                           RAND     12
000035: 16,2015           10000                           CCS      A
000036: 16,2016           12166                           TCF      MOREIDLE
000037:
000038: 16,2017           37752                           CAF      BIT10                                 #  BIT10 OF 30 IS PNGCS CONTROL OF S/C
000039: 16,2020           00006                           EXTEND
000040: 16,2021           02030                           RAND     30                                    #  BITS IN 30 ARE INVERTED
000041: 16,2022           10000                           CCS      A
000042: 16,2023           12166                           TCF      MOREIDLE
000043:
000044: 16,2024           00006                           EXTEND
000045: 16,2025           00031                           READ     31                                    #  IF BOTH    BIT13 AND BIT14 ARE ONE
000046: 16,2026           40000                           COM                                            #  THEN MODE SELECT SWITCH IS IN OFF
000047: 16,2027           75210                           MASK     BIT13-14                              #  POSITION.
000048: 16,2030           00006                           EXTEND
000049: 16,2031           12166                           BZF      MOREIDLE                              #  HENCE DAP SHOULD BE OFF.
000050:
000051: 16,2032           37751                           CAF      GODAPGO
000052: 16,2033           70077                           MASK     DAPBOOLS
000053: 16,2034           00006                           EXTEND
000054: 16,2035           12166                           BZF      MOREIDLE
000055:
000056: 16,2036           00002                           RETURN
000057:


000059:                                                                                                  #  DAPIDLER ENTRY.
000060:
000061: 16,2037           22016        DAPIDLER           LXCH     BANKRUPT                              #  INTERRUPT LEAD INS (CONTINUED)
000062:                                                                                                  #  START CODING FOR MODULE 3 REMAKE, AUGUST 1967***START CODING FOR MODULE 3 REMAKE, AUGUST 1967*******************
000063: 16,2040           13627                           TCF      T5IDLERI
000064: 16,2041           04736                           TC       CCSHOLE
000065:
000066: 16,2042           37761        DAPIDLEI           CAF      DATAGOOD
000067:                                                                                                  #  **END CODING FOR MODULE 3 REMAKE, AUGUST 1967*****END CODING FOR MODULE 3 REMAKE, AUGUST 1967*******************
000068:
000069: 16,2043           70077                           MASK     DAPBOOLS
000070: 16,2044           00006                           EXTEND
000071: 16,2045           12207                           BZF      TESTMASS
000072: 16,2046           02005                           TC       CHEKBITS                              #  CHECK TO SEE IF LM DAP IS TO GO ON.
000073:
000074: 16,2047           05270        STARTDAP           TC       IBNKCALL
000075: 16,2050           40114                           FCADR    STOPRATE
000076: 16,2051           37767                           CAF      ZERO                                  #  *********** INITIALIZE: *********
000077: 16,2052           54031                           TS       TIME6                                 #  T6RUPT CLOCK
000078: 16,2053           55611                           TS       TP                                    #  RATE DERIVATION DTS
000079: 16,2054           55612                           TS       TQR
000080: 16,2055           55605                           TS       JETRATEQ                              #  Q,R JETRATES USED IN Q,R-AXES BEFORE
000081: 16,2056           55606                           TS       JETRATER                              #  BEING SET, GIVEN TQR ZERO.
000082: 16,2057           55463                           TS       LASTPER                               #  ATTITUDE ERROR RECORDS FOR EIGHTBALL.
000083: 16,2060           55464                           TS       LASTQER
000084: 16,2061           55465                           TS       LASTRER
000085: 16,2062           55466                           TS       PERROR
000086: 16,2063           55467                           TS       QERROR
000087: 16,2064           55470                           TS       RERROR
000088: 16,2065           55415                           TS       OMEGAP                                #  RATES IN BODY (PILOT) COORDINATES.
000089: 16,2066           55416                           TS       OMEGAQ
000090: 16,2067           55420                           TS       OMEGAR
000091: 16,2070           55002                           TS       T6NEXT                                #  JTLST VARIABLES.
000092: 16,2071           55003                           TS       T6NEXT     +1
000093: 16,2072           55473                           TS       ADDT6JTS
000094: 16,2073           55474                           TS       ADDTLT6
000095: 16,2074           55007                           TS       DELAYCTR                              #  MINIMUM IMPULSE RHC MODE COINTER.
000096: 16,2075           55417                           TS       ALPHAQ                                #  DESCENT ACCELERATION ESTIMATES.
000097: 16,2076           55421                           TS       ALPHAR
000098: 16,2077           55515                           TS       DISPLACT                              #  EIGHTBALL ROUTINE SWITCH.
000099: 16,2100           55642                           TS       (1-K)                                 #  K=1 FIRST PASS.
000100:
000101:                                                                                                  #  START CODING FOR MODULE 3 REMAKE, AUGUST 1967***START CODING FOR MODULE 3 REMAKE, AUGUST 1967*******************
000102:
000103: 16,2101           12455        INSRT16B           TCF      PROTCTOR                              #  RESTART PROTECT ENGINE-ON AND GIMBAL
000104:
000105:                                                                                                  #  **END CODING FOR MODULE 3 REMAKE, AUGUST 1967*****END CODING FOR MODULE 3 REMAKE, AUGUST 1967*******************
000106:
000107: 16,2102           37762                           CAF      BIT2                                  #  CHECK FOR STAGE
000108: 16,2103           00006                           EXTEND
000109:


000111: 16,2104           02030                           RAND     30
000112: 16,2105           00006                           EXTEND
000113: 16,2106           12117                           BZF      +9D                                   #  (BRANCH FOR ASCENT.)
000114:
000115: 16,2107           37767                           CAF      ZERO                                  #  1/ACCS BRANCHING VALUE IS ZERO FOR
000116: 16,2110           55655                           TS       -.06R/S2                              #  DESCENT IN LM DAP
000117:
000118: 16,2111           00006                           EXTEND                                         #  SET DESCENT URGENCY LIMIT = 1.5 SECONDS
000119: 16,2112           32251                           DCA      URGLMDWN                              #  AS BOUND TO USE MAXIMUM JETS.
000120: 16,2113           53477                           DXCH     URGLMS
000121: 16,2114           00006                           EXTEND                                         #  RATE ERROR LIMIT W/MIN JETS: 1.4 DEG/SEC
000122: 16,2115           32245                           DCA      RCOMDOWN                              #  RATE ERROR DB    W/MIN JETS: 0.4 DEG/SEC
000123: 16,2116           12126                           TCF      +8D
000124:
000125: 16,2117           32254                 +9D       CAF      ACCLIMIT                              #  1/ACCS BRANCHING VALUE MUST BE
000126: 16,2120           55655                           TS       -.06R/S2                              #  0.06 RADIANS/SECOND(2) FOR ASCENT DAP.
000127:
000128: 16,2121           00006                           EXTEND                                         #  SET ASCENT URGENCY LIMIT = .25 SECONDS
000129: 16,2122           32253                           DCA      URGLMUP                               #  AS BOUND TO USE MAXIMUM JETS.
000130: 16,2123           53477                           DXCH     URGLMS
000131: 16,2124           00006                           EXTEND                                         #  RATE ERROR LIMIT W/MIN JETS: 2.0 DEG/SEC
000132: 16,2125           32247                           DCA      RCOMNDUP                              #  RATE ERROR DB    W/MIN JETS: 1.0 DEG/SEC
000133: 16,2126           53501                 +8D       DXCH     -2JETLIM
000134:
000135:                                                                                                  #  SET UP "OLD" MEASURED CDU ANGLES:
000136:
000137: 16,2127           00006                           EXTEND
000138: 16,2130           30033                           DCA      CDUX                                  #  OLDXFORP AND OLDYFORP
000139: 16,2131           53426                           DXCH     OLDXFORP
000140: 16,2132           00006                           EXTEND
000141: 16,2133           30034                           DCA      CDUY                                  #  OLDYFORQ AND OLDZFORQ
000142: 16,2134           53430                           DXCH     OLDYFORQ
000143:
000144: 16,2135           32230                           CAF      0.62170
000145: 16,2136           55455                           TS       4JETTORK
000146: 16,2137           32231                           CAF      .68387                                #  2200 FT LBS. SCALED AT 2(10) X PI.
000147: 16,2140           55456                           TS       JETTORK4                              #  QR AXIS JET TORQUE FOR 4 JETS.
000148:                                                                                                  #  SET UP THE TORQUE VECTOR RECONSTRUCTION SWITCHES:
000149:
000150: 16,2141           00006                           EXTEND
000151: 16,2142           32241                           DCA      VISNORMQ                              #  PJUMPADR AND QJUMPADR
000152: 16,2143           53653                           DXCH     PJUMPADR
000153:
000154:                                                                                                  #  SET SWITCH TO SKIP Q,R-TJETLAW SQUARE ROOT:
000155:
000156:                                                                                                  #  SET UP INITIAL VALUES FOR WFORP AND WFORQR:
000157:
000158: 16,2144           00006                           EXTEND                                         #  SCALED AT 16:
000159: 16,2145           32243                           DCA      WFORPQRK                              #  WFORP  = K/DT = K/.1  = 1/.1  = 0.625
000160: 16,2146           53641                           DXCH     WFORP                                 #  WFORQR = K/DT = K/.15 = 1/.15 = 0.41667
000161:


000163: 16,2147           32236                           CAF      180MS
000164: 16,2150           05663                           TC       WAITLIST
000165: 16,2151  E6,1641                                  EBANK=   WFORQR
000166: 16,2151           03435 40066                     2CADR    WCHANGER
000167:
000168: 16,2153           00006                           EXTEND                                         #  SET UP P-AXIS TO GO TO DUMMYFIL
000169: 16,2154           32225                           DCA      DF2CADR
000170: 16,2155           53573                           DXCH     PFILTADR
000171:
000172: 16,2156           00006                           EXTEND
000173: 16,2157           32223                           DCA      PAXADIDL
000174: 16,2160           53001                           DXCH     T5ADR
000175: 16,2161           32226        SETTIME5           CAF      MS100
000176: 16,2162           54030                           TS       TIME5
000177: 16,2163           15733                           TCF      RESUME
000178: 16,2164  E6,1542                                  EBANK=   DT
000179: 16,2164           02037 34066  IDLERADR           2CADR    DAPIDLER
000180: 16,2166           42222        MOREIDLE           CS       PAXADIDL                              #  DAP SHOULD BE OFF
000181: 16,2167           61000                           AD       T5ADR
000182: 16,2170           00006                           EXTEND
000183: 16,2171           12176                           BZF      SHUTDOWN                              #  CHECK TO SEE WHETHER THIS IS FROM P-AXIS
000184:
000185: 16,2172           00006        SETT5ADR           EXTEND
000186: 16,2173           32165                           DCA      IDLERADR
000187: 16,2174           53001                           DXCH     T5ADR
000188: 16,2175           12161                           TCF      SETTIME5
000189:
000190: 16,2176           37767        SHUTDOWN           CAF      ZERO                                  #  COMMAND JETS OFF
000191: 16,2177           00006                           EXTEND
000192: 16,2200           01005                           WRITE    5
000193: 16,2201           00006                           EXTEND
000194: 16,2202           01006                           WRITE    6
000195:
000196: 16,2203           42220                           CS       BGIM23                                #  TURN TRIM GIMBAL OFF
000197: 16,2204           00006                           EXTEND
000198: 16,2205           03012                           WAND     12
000199:
000200: 16,2206           12172                           TCF      SETT5ADR
000201: 16,2207           37750        TESTMASS           CAF      MASSGOOD
000202: 16,2210           70077                           MASK     DAPBOOLS
000203: 16,2211           00006                           EXTEND
000204: 16,2212           12166                           BZF      MOREIDLE
000205:
000206: 16,2213           35655                           CAF      PRIO34
000207: 16,2214           05505                           TC       NOVAC
000208: 16,2215  E6,1542                                  EBANK=   DT
000209: 16,2215           02713 54066                     2BCADR   1/ACCS
000210:


000212: 16,2217           12172                           TCF      SETT5ADR
000213: 16,2220           07400        BGIM23             OCTAL    07400
000214: 16,2221           26501        .707P              DEC      .70711                                #  SQUARE ROOT OF 1/2
000215: 16,2222  E6,1415                                  EBANK=   OMEGAP
000216: 16,2222           02255 34066  PAXADIDL           2CADR    PAXIS
000217:
000218: 16,2224  E6,1417                                  EBANK=   ALPHAQ
000219: 16,2224           03642 34066  DF2CADR            2CADR    DUMMYFIL
000220:
000221: 16,2226           37766        MS100              OCTAL    37766
000222: 16,2227           00033        0.00167            DEC      0.00167
000223: 16,2230           23712        0.62170            DEC      0.62170
000224: 16,2231           25705        .68387             DEC      0.68387
000225: 16,2232           12000        0.31250            DEC      0.31250
000226:
000227: 16,2233           02215        DELTADOT           DEC      0.07111                               #  0.2 DEG/SEC SCALED AT PI/64
000228: 16,2234           11643        .5ACCMIN           DEC      0.30680
000229: 16,2235           00033        DBMNMP             DEC      0.00167                               #  .3 DEGREES SCALED AT PI RADIANS
000230:                                                                                                  #  TORQUE AND WEIGHTING CONSTANTS:
000231:
000232: 16,2236           00022        180MS              DEC      18         B-14                       #  180 MS WAITLIST DT.
000233: 16,2237           02315        .075DEC            DEC      0.075                                 #  100 MS JET PULSE TORQUE TERM WITH K = .5
000234: 16,2240           02404        VISNORMQ           GENADR   CHKVISFZ                              #  D.P. GENADR FOR INITIALIZATION OF THE
000235: 16,2241           02106                           GENADR   NORMALQ                               #  TORQUE VECTOR RECONSTRUCTION SWITCHES.
000236: 16,2242           24000        10AT16             DEC      0.625                                 #  INITIAL VALUE FOR WFORP.
000237: 16,2243           15253        6.6AT16            DEC      0.41667                               #  INITIAL VALUE FOR WFORQR.
000238: 16,2244  16,2242               WFORPQRK           EQUALS   10AT16                                #  D.P. NAME FOR BOTH CONSTANTS
000239:
000240:
000241:
000242: 16,2244           77001        RCOMDOWN           OCTAL    77001                                 #  -1.4 DEG/SEC SCALED AT PI/4 RADIANS/SEC.
000243: 16,2245           77555                           OCTAL    77555                                 #  -0.4 DEG/SEC SCALED AT PI/4 RADIANS/SEC.
000244: 16,2246           76447        RCOMNDUP           OCTAL    76447                                 #  -2.0 DEG/SEC SCALED AT PI/4 RADIANS/SEC.
000245: 16,2247           77223                           OCTAL    77223                                 #  -1.0 DEG/SEC SCALED AT PI/4 RADIANS/SEC.
000246: 16,2250           77717        URGLMDWN           DEC      -.00293                               #  -1.5 SECONDS SCALED AT 2(+9).
000247: 16,2251           74777                           DEC      -.09375                               #  -1.5 SECONDS SCALED AT 2(+4).
000248: 16,2252           77767        URGLMUP            DEC      -0.25      B-9                        #  -0.25 SECONDS SCALED AT 2(+9).
000249: 16,2253           77377                           DEC      -0.25      B-4                        #  -0.25 SECONDS SCALED AT 2(+4).
000250: 16,2254           76615        ACCLIMIT           DEC      -0.03820                              #  -.06 RADIANS/SECOND(2) SCALED AT PI/2.

End of include-file DAPIDLER_PROGRAM.agc.  Parent file is MAIN.agc


