
Source Code


000002:                                                                                                  ## Copyright:   Public domain.
000003:                                                                                                  ## Filename:    DUMMY_206_INITIALIZATION.agc
000004:                                                                                                  ## Purpose:     A module for revision 0 of BURST120 (Sunburst). It
000005:                                                                                                  ##              is part of the source code for the Lunar Module's
000006:                                                                                                  ##              (LM) Apollo Guidance Computer (AGC) for Apollo 5.
000007:                                                                                                  ## Assembler:   yaYUL
000008:                                                                                                  ## Contact:     Ron Burkey <info@sandroid.org>.
000009:                                                                                                  ## Website:     www.ibiblio.org/apollo/index.html
000010:                                                                                                  ## Mod history: 2016-09-30 RSB  Created draft version.
000011:                                                                                                  ##              2017-10-30 RSB  Finished transcription.
000012:


000014:                                                                                                  #  PROGRAM NAME - BEGIN206
000015:                                                                                                  #  MOD. NO. 3
000016:                                                                                                  #  MOD BY - D. LICKLY AND J. SAMPSON
000017:                                                                                                  #  DATE - NOV. 22, 1966
000018:                                                                                                  #  LOG SECTION - DUMMY 206 INITIALIZATION
000019:                                                                                                  #  ASSEMBLY - SUNBURST REVISION 36
000020:
000021:                                                                                                  #  FUNCTIONAL DESCRIPTION - START UP TO TWO DELAYED JOBS OR TASKS AFTER SLAP1 FOR SIMULATION PURPOSES.
000022:
000023:                                                                                                  #  FIXED INITIALIZATION REQUIRED - PATCH STARTDT1 AND STARTDT2 TO REPRESENT THE TIME2,TIME1 VALUE AT THE TIME AT
000024:                                                                                                  #                                    WHICH THE JOBS OR TASKS ARE TO BEGIN
000025:                                                                                                  #                                  PATCH CADR1 AND CADR2 IF SOME OTHER TASKS THAN TASK1 AND TASK2 ARE TO BE USED
000026:                                                                                                  #                                  PATCH CADR3 AND CADR4 TO THE 2CADR OF THE JOBS TO BE STARTED
000027:                                                                                                  #                                  PATCH 206BEGIN TO TC ENDOFJOB IF ONLY ONLY ONE TASK OR JOB IS TO BE STARTED
000028:                                                                                                  #                                  PATCH TASK1 AND TASK2 WITH DIFFERENT PRIORITIES IF DESIRED
000029:                                                                                                  #  SUBROUTINES CALLED - FINDVAC, WAITLIST
000030:
000031:                                                                                                  #  NORMAL EXIT MODES - ENDOFJOB, TASKOVER
000032:
000033:                                                                                                  #  ALARM OR ABORT EXIT MODES - NONE
000034:
000035:                                                                                                  #  OUTPUT - 2 WAITLIST OR FINDVAC CALLS FOR THE 2CADRS PATCHED IN
000036:
000037:                                                                                                  #  ERASABLE INITIALIZATION REQUIRED - NONE
000038:
000039:                                                                                                  #  DEBRIS - ITEMP1, CENTRALS, ERASABLES IN SUBROUTINES CALLED
000040:
000041:                                                                                                  #  NOTES - SINCE ONLY THE LOW ORDER PART OF STARTDT1 AND STARTDT2 ARE USED OT COMPUTE THE DELTAT FOR WAITLIST, THE
000042:                                                                                                  #    REQUIRED TASKS AND JOBS WILL BE CALLED WITHINT 163.84 SECONDS
000043:
000044:
000045: 35,3546                                           BANK     35
000046:
000047: 35,3546           00004        BEGIN206           INHINT
000048:
000049: 35,3547           40025                           CS       TIME1                                 #  PATCH SLAP1 TO COME HERE TO START UP TWO
000050: 35,3550           63573                           AD       STARTDT1   +1                         #    DELAYED TASKS OR JOBS FOR SIMULATIONS
000051: 35,3551           67746                           AD       BIT14
000052: 35,3552           67746                           AD       BIT14
000053: 35,3553           56061                           XCH      ITEMP1
000054:
000055: 35,3554           30061                           CA       ITEMP1
000056: 35,3555           05663                           TC       WAITLIST
000057: 35,3556     0061                                  EBANK=   ITEMP1
000058: 35,3556           03576 72060  CADR1              2CADR    TASK1                                 #  MAY BE PATCHED FOR ANOTHER TASK
000059:
000060: 35,3560           40025        206BEGIN           CS       TIME1                                 #  PATCH TO TC ENDOFJOB TO START 1 TASK
000061: 35,3561           63575                           AD       STARTDT2   +1
000062: 35,3562           67746                           AD       BIT14


000064: 35,3563           67746                           AD       BIT14
000065: 35,3564           56061                           XCH      ITEMP1
000066:
000067: 35,3565           30061                           CA       ITEMP1
000068: 35,3566           05663                           TC       WAITLIST
000069: 35,3567     0061                                  EBANK=   ITEMP1
000070: 35,3567           03603 72060  CADR2              2CADR    TASK2                                 #  COULD BE PATCHED
000071:
000072: 35,3571           05567                           TC       ENDOFJOB
000073:
000074:
000075: 35,3572           00000 01130  STARTDT1           2DEC     600        B-28                       #  PATCH
000076:
000077: 35,3574           00000 00310  STARTDT2           2DEC     200        B-28                       #  PATCH
000078:
000079: 35,3576           35641        TASK1              CAF      PRIO15                                #  ..OR YOUR OWN PRIORITY..
000080: 35,3577           05516                           TC       FINDVAC
000081: 35,3600           77777        CADR3              OCT      77777                                 #  BETTER PATCH A 2CADR HERE
000082: 35,3601           77777                           OCT      77777
000083: 35,3602           05727                           TC       TASKOVER
000084:
000085: 35,3603           37746        TASK2              CAF      PRIO20
000086: 35,3604           05516                           TC       FINDVAC
000087: 35,3605           77777        CADR4              OCT      77777                                 #  ..HERE ALSO..
000088: 35,3606           77777                           OCT      77777
000089: 35,3607           05727                           TC       TASKOVER
000090:

End of include-file DUMMY_206_INITIALIZATION.agc.  Parent file is MAIN.agc


