
Source Code


000002:                                                                                                  ## Copyright:    Public domain.
000003:                                                                                                  ## Filename:     EXECUTIVE.agc
000004:                                                                                                  ## Purpose:      A module for revision 0 of BURST120 (Sunburst). It
000005:                                                                                                  ##               is part of the source code for the Lunar Module's
000006:                                                                                                  ##               (LM) Apollo Guidance Computer (AGC) for Apollo 5.
000007:                                                                                                  ## Assembler:    yaYUL
000008:                                                                                                  ## Contact:      Ron Burkey <info@sandroid.org>.
000009:                                                                                                  ## Website:      www.ibiblio.org/apollo/index.html
000010:                                                                                                  ## Pages:        1049-1061
000011:                                                                                                  ## Mod history:  2016-09-30 RSB  Created draft version.
000012:                                                                                                  ##               2016-10-08 PDJ  Updated against Sunburst120 scan.
000013:                                                                                                  ##               2016-10-31 RSB  Some typos.
000014:                                                                                                  ##               2016-12-06 RSB  Comments proofed using octopus/ProoferComments,
000015:                                                                                                  ##                               changes made.
000016:


000018:    5505                                           BLOCK    02
000019:
000020:                                                                                                  #  TO ENTER A JOB REQUEST REQUIRING NO VAC AREA:
000021:
000022:    5505           54063        NOVAC              TS       NEWPRIO                               #  SAVE PRIORITY OF NEW JOB.
000023:    5506           00006                           EXTEND
000024:    5507           50002                           INDEX    Q                                     #  Q WILL BE UNDISTURBED THROUGHOUT.
000025:    5510           30001                           DCA      0                                     #  2CADR OF JOB ENTERED.
000026:    5511           52066                           DXCH     NEWLOC
000027:    5512           35575                           CAF      EXECBANK
000028:    5513           56004                           XCH      FBANK
000029:    5514           54061                           TS       EXECTEM1
000030:    5515           13105                           TCF      NOVAC2                                #  ENTER EXECUTIVE BANK.
000031:
000032:                                                                                                  #  TO ENTER A JOB REQUEST REQUIRING A VAC AREA - E.G., ALL (PARTIALLY) INTERPRETIVE JOBS.
000033:
000034:    5516           54063        FINDVAC            TS       NEWPRIO
000035:    5517           00006                           EXTEND
000036:    5520           50002                           INDEX    Q
000037:    5521           30001                           DCA      0
000038:    5522           52066                           DXCH     NEWLOC
000039:    5523           35575                           CAF      EXECBANK
000040:    5524           56004                           XCH      FBANK
000041:    5525           13063                           TCF      FINDVAC2                              #  OFF TO EXECUTIVE SWITCHED-BANK.
000042:
000043:                                                                                                  #  TO ENTER A FINDVAC WITH THE PRIORITY IN NEWPRIO TO THE 2CADR ARRIVING IN A AND L:
000044:
000045:    5526           56002        SPVAC              XCH      Q
000046:    5527           65336                           AD       NEG2
000047:    5530           56002                           XCH      Q
000048:    5531           15522                           TCF      FINDVAC    +4
000049:
000050:                                                                                                  #  TO SUSPEND A BASIC JOB SO A HIGHER PRIORITY JOB MAY BE SERVICED:
000051:
000052:    5532           35575        CHANG1             CAF      EXECBANK
000053:    5533           54001                           TS       L
000054:    5534           30002                           CA       Q
000055:    5535           22006                           LXCH     BBANK
000056:    5536           00004                 +4        INHINT
000057:    5537           13163                           TCF      CHANJOB
000058:
000059:                                                                                                  #  TO SUSPEND AN INTERPRETIVE JOB:
000060:
000061:    5540           35575        CHANG2             CAF      EXECBANK
000062:                                                                                                  #  ITRACE (4) REFERS TO "CHANG2".
000063:    5541           54006                           TS       BBANK
000064:    5542           40154                           CS       LOC                                   #  NEGATIVE LOC SHOWS JOB = INTERPRETIVE.
000065:    5543           22155                           LXCH     BANKSET                               #  BANKSET, NOT BBANK, HAS RIGHT CONTENTS.
000066:    5544           15536                           TCF      CHANG1     +4
000067:


000069:
000070:                                                                                                  #  TO VOLUNTARILY SUSPEND A JOB UNTIL THE COMPLETION OF SOME ANTICIPATED EVENT (I/O EVENT ETC.):
000071:
000072:    5545           54154        JOBSLEEP           TS       LOC
000073:    5546           35575                           CAF      EXECBANK
000074:    5547           54004                           TS       FBANK
000075:    5550           13244                           TCF      JOBSLP1
000076:
000077:                                                                                                  #  TO AWAKEN A JOB PUT TO SLEEP IN THE ABOVE FASHION:
000078:
000079:    5551           54065        JOBWAKE            TS       NEWLOC
000080:    5552           47762                           CS       TWO                                   #  EXIT IS VIA FINDVAC/NOVAC PROCEDURES.
000081:    5553           26002                           ADS      Q
000082:    5554           35575                           CAF      EXECBANK
000083:    5555           56004                           XCH      FBANK
000084:    5556           13255                           TCF      JOBWAKE2
000085:
000086:                                                                                                  #  TO CHANGE THE PRIORITY OF A JOB CURRENTLY UNDER EXECUTION:
000087:
000088:    5557           00004        PRIOCHNG           INHINT                                         #  NEW PRIORITY ARRIVES IN A.  RETURNS TO
000089:    5560           54063                           TS       NEWPRIO                               #  CALLER AS SOON AS NEW JOB PRIORITY IS
000090:    5561           35575                           CAF      EXECBANK                              #  HIGHEST.  PREPARE FOR POSSIBLE BASIC-
000091:    5562           56006                           XCH      BBANK                                 #  STYLE CHANGE-JOB.
000092:    5563           54155                           TS       BANKSET
000093:    5564           30002                           CA       Q
000094:    5565           13324                           TCF      PRIOCH2
000095:
000096:                                                                                                  #  TO FREE THE DISPLAY BEFORE ENDOFJOB:
000097:
000098:    5566           04724        EJFREE             TC       FREEDSP
000099:
000100:                                                                                                  #  TO REMOVE A JOB FROM EXECUTIVE CONSIDERATIONS:
000101:
000102:    5567           35575        ENDOFJOB           CAF      EXECBANK
000103:    5570           54004                           TS       FBANK
000104:    5571           13335                           TCF      ENDJOB1
000105:
000106:    5572           30061        ENDFIND            CA       EXECTEM1                              #  RETURN TO CALLER AFTER JOB ENTRY
000107:    5573           54004                           TS       FBANK                                 #  COMPLETE.
000108:    5574           17017                           TCF      Q+2
000109:    5575           03063        EXECBANK           CADR     FINDVAC2
000110:


000112:
000113:                                                                                                  #  LOCATE AN AVAILABLE VAC AREA.
000114:
000115: 01,3063                                           BANK     01
000116: 01,3063           54061        FINDVAC2           TS       EXECTEM1                              #  (SAVE CALLER'S BANK FIRST.)
000117: 01,3064           10430                           CCS      VAC1USE
000118: 01,3065           13100                           TCF      VACFOUND
000119: 01,3066           10504                           CCS      VAC2USE
000120: 01,3067           13100                           TCF      VACFOUND
000121: 01,3070           10560                           CCS      VAC3USE
000122: 01,3071           13100                           TCF      VACFOUND
000123: 01,3072           10634                           CCS      VAC4USE
000124: 01,3073           13100                           TCF      VACFOUND
000125: 01,3074           10710                           CCS      VAC5USE
000126: 01,3075           13100                           TCF      VACFOUND
000127: 01,3076           06000                           TC       ABORT
000128: 01,3077           01201                           OCT      1201                                  #  NO VAC AREAS.
000129:
000130: 01,3100           67762        VACFOUND           AD       TWO                                   #  RESERVE THIS VAC AREA BY STORING A ZERO
000131: 01,3101           22007                           ZL                                             #  IN ITS VAC USE REGISTER AND STORE THE
000132: 01,3102           50000                           INDEX    A                                     #  ADDRESS OF THE FIRST WORD OF IT IN THE
000133: 01,3103           21777                           LXCH     0          -1                         #  LOW NINE BITS OF THE PRIORITY WORD.
000134: 01,3104           26063                           ADS      NEWPRIO
000135:
000136: 01,3105           37767        NOVAC2             CAF      ZERO                                  #  NOVAC ENTERS HERE.  FIND A CORE SET.
000137: 01,3106           54064                           TS       LOCCTR
000138: 01,3107           33114                           CAF      NO.CORES                              #  SEVEN SETS OF ELEVEN REGISTERS EACH.
000139: 01,3110           54062        NOVAC3             TS       EXECTEM2
000140: 01,3111           50064                           INDEX    LOCCTR
000141: 01,3112           10157                           CCS      PRIORITY                              #  EACH PRIORITY REGISTER CONTAINS -0 IF
000142: 01,3113           13154                           TCF      NEXTCORE                              #  THE CORrESPONDING CORE SET IS AVAILABLE.
000143: 01,3114           00006        NO.CORES           DEC      6          B-14
000144: 01,3115           13154                           TCF      NEXTCORE                              #  AN ACTIVE JOB HAS A POSITIVE PRIORITY
000145:                                                                                                  #  BUT A DORMANT JOB'S PRIORITY IS NEGATIVE
000146:


000148:
000149: 01,3116           30063        CORFOUND           CA       NEWPRIO                               #  SET THE PRIORITY OF THIS JOB IN THE CORE
000150: 01,3117           50064                           INDEX    LOCCTR                                #  SET'S PRIORITY REGISTER AND SET THE
000151: 01,3120           54157                           TS       PRIORITY                              #  JOB'S PUSH-DOWN POINTER AT THE BEGINNING
000152: 01,3121           75341                           MASK     LOW9                                  #  OF THE WORK AREA AND OVERFLOW INDICATOR
000153: 01,3122           50064                           INDEX    LOCCTR
000154: 01,3123           54156                           TS       PUSHLOC                               #  OFF TO PREPARE FOR INTERPRETIVE PROGRAMS
000155:
000156: 01,3124           10064                           CCS      LOCCTR                                #  IF CORE SET ZERO IS BEING LOADED, SET UP
000157: 01,3125           13141                           TCF      SETLOC                                #  OVFIND AND FIXLOC IMMEDIATELY.
000158: 01,3126           54111                           TS       OVFIND
000159: 01,3127           30156                           CA       PUSHLOC
000160: 01,3130           54110                           TS       FIXLOC
000161:
000162: 01,3131           10067        SPECTEST           CCS      NEWJOB                                #  SEE IF ANY ACTIVE JOBS WAITING (RARE).
000163: 01,3132           13141                           TCF      SETLOC                                #  MUST BE AWAKENED BUT UNCHANGED JOB.
000164: 01,3133           04736                           TC       CCSHOLE
000165: 01,3134           04736                           TC       CCSHOLE
000166: 01,3135           54067                           TS       NEWJOB                                #  +0 SHOWS ACTIVE JOB ALREADY SET.
000167: 01,3136           52066                           DXCH     NEWLOC
000168: 01,3137           52155                           DXCH     LOC
000169: 01,3140           15572                           TCF      ENDFIND
000170:
000171: 01,3141           52066        SETLOC             DXCH     NEWLOC                                #  SET UP THE LOCATION REGISTERS FOR THIS
000172: 01,3142           50064                           INDEX    LOCCTR
000173: 01,3143           52155                           DXCH     LOC
000174: 01,3144           50067                           INDEX    NEWJOB                                #  THIS INDEX INSTRUCTION INSURES THAT THE
000175: 01,3145           40157                           CS       PRIORITY                              #  HIGHEST ACTIVE PRIORITY WILL BE COMPARED
000176: 01,3146           60063                           AD       NEWPRIO                               #  WITH THE NEW PRIORITY TO SEE IF NEWJOB
000177: 01,3147           00006                           EXTEND                                         #  SHOULD BE SET TO SIGNAL A SWITCH.
000178: 01,3150           65572                           BZMF     ENDFIND
000179: 01,3151           30064                           CA       LOCCTR                                #  LOCCTR IS LEFT SET AT THIS CORE SET IF
000180: 01,3152           54067                           TS       NEWJOB                                #  THE CALLER WANTS TO LOAD ANY MPAC
000181: 01,3153           15572                           TCF      ENDFIND                               #  REGISTERS, ETC.
000182:
000183: 01,3154           33265        NEXTCORE           CAF      COREINC
000184: 01,3155           26064                           ADS      LOCCTR
000185: 01,3156           10062                           CCS      EXECTEM2
000186: 01,3157           13110                           TCF      NOVAC3
000187: 01,3160           06000                           TC       ABORT                                 #  NO CORE SETS.
000188: 01,3161           01202                           OCT      1202
000189:


000191:
000192:                                                                                                  #  THE FOLLOWING ROUTINE SWAPS CORE SET 0 WITH THAT WHOSE RELATIVE ADDRESS IS IN NEWJOB.
000193:
000194: 01,3162           52155                 -1        DXCH     LOC
000195: 01,3163           50067        CHANJOB            INDEX    NEWJOB                                #  LOC ARRIVES IN A AND BBANK IN L.
000196: 01,3164           52155                           DXCH     LOC
000197: 01,3165           52155                           DXCH     LOC
000198:
000199: 01,3166           52145                           DXCH     MPAC                                  #  SWAP MULTI-PURPOSE ACCUMULATOR AREAS.
000200: 01,3167           50067                           INDEX    NEWJOB
000201: 01,3170           52145                           DXCH     MPAC
000202: 01,3171           52145                           DXCH     MPAC
000203: 01,3172           52147                           DXCH     MPAC       +2
000204: 01,3173           50067                           INDEX    NEWJOB
000205: 01,3174           52147                           DXCH     MPAC       +2
000206: 01,3175           52147                           DXCH     MPAC       +2
000207: 01,3176           52151                           DXCH     MPAC       +4
000208: 01,3177           50067                           INDEX    NEWJOB
000209: 01,3200           52151                           DXCH     MPAC       +4
000210: 01,3201           52151                           DXCH     MPAC       +4
000211: 01,3202           52153                           DXCH     MPAC       +6
000212: 01,3203           50067                           INDEX    NEWJOB
000213: 01,3204           52153                           DXCH     MPAC       +6
000214: 01,3205           52153                           DXCH     MPAC       +6
000215:
000216: 01,3206           37767                           CAF      ZERO
000217: 01,3207           56111                           XCH      OVFIND                                #  MAKE PUSHLOC NEGATIVE IF OVFIND NZ.
000218: 01,3210           00006                           EXTEND
000219: 01,3211           13214                           BZF      +3
000220: 01,3212           40156                           CS       PUSHLOC
000221: 01,3213           54156                           TS       PUSHLOC
000222:
000223: 01,3214           52157                           DXCH     PUSHLOC
000224: 01,3215           50067                           INDEX    NEWJOB
000225: 01,3216           52157                           DXCH     PUSHLOC
000226: 01,3217           52157                           DXCH     PUSHLOC                               #  SWAPS PUSHLOC AND PRIORITY.
000227: 01,3220           35341                           CAF      LOW9                                  #  SET FIXLOC TO BASE OF VAC AREA.
000228: 01,3221           70157                           MASK     PRIORITY
000229: 01,3222           54110                           TS       FIXLOC
000230:
000231: 01,3223           10156                           CCS      PUSHLOC                               #  SET OVERFLOW INDICATOR ACCORDING TO
000232: 01,3224           37767                           CAF      ZERO
000233: 01,3225           13232                           TCF      ENDPRCHG   -1
000234: 01,3226           40156                           CS       PUSHLOC
000235: 01,3227           54156                           TS       PUSHLOC
000236: 01,3230           37763                           CAF      ONE
000237: 01,3231           56111                           XCH      OVFIND
000238: 01,3232           54067                           TS       NEWJOB
000239:
000240: 01,3233           00003        ENDPRCHG           RELINT
000241: 01,3234           52155                           DXCH     LOC                                   #  BASIC JOBS HAVE POSITIVE ADDRESSES, SO
000242:


000244:
000245: 01,3235           00006                           EXTEND                                         #  DISPATCH WITH A DTCB.
000246: 01,3236           63240                           BZMF     +2                                    #  IF INTERPRETIVE, SET UP EBANK, ETC.
000247: 01,3237           52006                           DTCB
000248:


000250: 01,3240           40000                           COM                                            #  EPILOGUE TO JOB CHANGE FOR INTERPRETIVE
000251: 01,3241           67763                           AD       ONE
000252: 01,3242           54154                           TS       LOC                                   #  RESUME.
000253: 01,3243           16122                           TCF      INTRSM
000254:
000255:                                                                                                  #  COMPLETE JOBSLEEP PREPARATIONS.
000256:
000257: 01,3244           00004        JOBSLP1            INHINT
000258: 01,3245           40157                           CS       PRIORITY                              #  NNZ PRIORITY SHOWS JOB ASLEEP.
000259: 01,3246           54157                           TS       PRIORITY
000260: 01,3247           35342                           CAF      LOW7
000261: 01,3250           70006                           MASK     BBANK
000262: 01,3251           54155                           TS       BANKSET
000263: 01,3252           47767                           CS       ZERO
000264: 01,3253           54121        JOBSLP2            TS       BUF        +1                         #  HOLDS - HIGHEST PRIORITY.
000265: 01,3254           13345                           TCF      EJSCAN                                #  SCAN FOR HIGHEST PRIORITY ALA ENDOFJOB.
000266:


000268:
000269:                                                                                                  #  TO WAKE UP A JOB, EACH CORE SET IS FOUND TO LOCATE ALL JOBS WHICH ARE ASLEEP.  IF THE FCADR IN THE
000270:                                                                                                  #  LOC REGISTER OF ANY SUCH JOB MATCHES THAT SUPPLIED BY THE CALLER, THAT JOB IS AWAKENED.  IF NO JOB IS FOUND,
000271:                                                                                                  #  LOCCTR IS SET TO -1 AND NO FURTHER ACTION TAKES PLACE.
000272:
000273: 01,3255           54061        JOBWAKE2           TS       EXECTEM1
000274: 01,3256           37767                           CAF      ZERO                                  #  BEGIN CORE SET SCAN.
000275: 01,3257           54064                           TS       LOCCTR
000276: 01,3260           33114                           CAF      NO.CORES
000277: 01,3261           54062        JOBWAKE4           TS       EXECTEM2
000278: 01,3262           50064                           INDEX    LOCCTR
000279: 01,3263           10157                           CCS      PRIORITY
000280: 01,3264           13267                           TCF      JOBWAKE3                              #  ACTIVE JOB - CHECK NEXT CORE SET.
000281: 01,3265           00014        COREINC            DEC      12         B-14                       #  12 REGISTERS PER CORE SET.
000282: 01,3266           13276                           TCF      WAKETEST                              #  SLEEPING JOB - SEE IF CADR MATCHES.
000283:
000284: 01,3267           33265        JOBWAKE3           CAF      COREINC
000285: 01,3270           26064                           ADS      LOCCTR
000286: 01,3271           10062                           CCS      EXECTEM2
000287: 01,3272           13261                           TCF      JOBWAKE4
000288: 01,3273           47763                           CS       ONE                                   #  EXIT IF SLEEPINg JOB NOT FOUND.
000289: 01,3274           54064                           TS       LOCCTR
000290: 01,3275           15572                           TCF      ENDFIND
000291:
000292: 01,3276           40065        WAKETEST           CS       NEWLOC
000293: 01,3277           50064                           INDEX    LOCCTR
000294: 01,3300           60154                           AD       LOC
000295: 01,3301           00006                           EXTEND
000296: 01,3302           13304                           BZF      +2                                    #  IF MATCH.
000297: 01,3303           13267                           TCF      JOBWAKE3                              #  EXAMINE NEXT CORE SET IF NO MATCH.
000298:
000299: 01,3304           50064                           INDEX    LOCCTR                                #  RE-COMPLEMENT PRIORITY TO SHOW JOB AWAKE
000300: 01,3305           40157                           CS       PRIORITY
000301: 01,3306           54063                           TS       NEWPRIO
000302: 01,3307           50064                           INDEX    LOCCTR
000303: 01,3310           54157                           TS       PRIORITY
000304:
000305: 01,3311           46341                           CS       FBANKMSK                              #  MAKE UP THE 2CADR OF THE WAKE ADDRESS
000306: 01,3312           70065                           MASK     NEWLOC                                #  USING THE CADR IN NEWLOC AND THE EBANK
000307: 01,3313           67751                           AD       2K                                    #  HALF OF BBANK SAVED IN BANKSET.
000308: 01,3314           56065                           XCH      NEWLOC
000309: 01,3315           76341                           MASK     FBANKMSK
000310: 01,3316           50064                           INDEX    LOCCTR
000311: 01,3317           60155                           AD       BANKSET
000312: 01,3320           54066                           TS       NEWLOC     +1
000313:
000314: 01,3321           10064                           CCS      LOCCTR                                #  SPECIAL TREATMENT IF THIS JOB WAS
000315: 01,3322           13141                           TCF      SETLOC                                #  ALREADY IN THE RUN (0) POSITION.
000316: 01,3323           13131                           TCF      SPECTEST
000317:


000319:
000320:                                                                                                  #  PRIORITY CHANGE.  CHANGE THE CONTENTS OF PRIORITY AND SCAN FOR THE JOB OF HIGHEST PRIORITY.
000321:
000322: 01,3324           54154        PRIOCH2            TS       LOC
000323: 01,3325           37767                           CAF      ZERO                                  #  SET FLAG TO TELL ENDJOB SCANNER IF THIS
000324: 01,3326           54120                           TS       BUF                                   #  JOB IS STILL HIGHEST PRIORITY.
000325: 01,3327           35341                           CAF      LOW9
000326: 01,3330           70157                           MASK     PRIORITY
000327: 01,3331           60063                           AD       NEWPRIO
000328: 01,3332           54157                           TS       PRIORITY
000329: 01,3333           40000                           COM
000330: 01,3334           13253                           TCF      JOBSLP2                               #  AND TO EJSCAN.
000331:


000333:
000334:                                                                                                  #  RELEASE THIS CORE SET AND VAC AREA AND SCAN FOR THE JOB OF HIGHEST ACTIVE PRIORITY.
000335:
000336: 01,3335           00004        ENDJOB1            INHINT
000337: 01,3336           47767                           CS       ZERO
000338: 01,3337           54121                           TS       BUF        +1
000339: 01,3340           56157                           XCH      PRIORITY
000340: 01,3341           75341                           MASK     LOW9
000341: 01,3342           10000                           CCS      A
000342: 01,3343           50000                           INDEX    A
000343: 01,3344           54000                           TS       0
000344:
000345: 01,3345           10173        EJSCAN             CCS      PRIORITY   +12D
000346: 01,3346           03412                           TC       EJ1
000347: 01,3347           04736                           TC       CCSHOLE
000348: 01,3350           13351                           TCF      +1
000349:
000350: 01,3351           10207                           CCS      PRIORITY   +24D                       #  EXAMINE EACH PRIORITY REGISTER TO FIND
000351: 01,3352           03412                           TC       EJ1                                   #  THE JOB OF HIGHEST ACTIVE PRIORITY.
000352: 01,3353           04736                           TC       CCSHOLE
000353: 01,3354           13355                           TCF      +1
000354:
000355: 01,3355           10223                           CCS      PRIORITY   +36D
000356: 01,3356           03412                           TC       EJ1
000357: 01,3357           67620        -CCSPR             -CCS     PRIORITY
000358: 01,3360           13361                           TCF      +1
000359:
000360: 01,3361           10237                           CCS      PRIORITY   +48D
000361: 01,3362           03412                           TC       EJ1
000362: 01,3363           04736                           TC       CCSHOLE
000363: 01,3364           13365                           TCF      +1
000364:
000365: 01,3365           10253                           CCS      PRIORITY   +60D
000366: 01,3366           03412                           TC       EJ1
000367: 01,3367           04736                           TC       CCSHOLE
000368: 01,3370           13371                           TCF      +1
000369:
000370: 01,3371           10267                           CCS      PRIORITY   +72D
000371: 01,3372           03412                           TC       EJ1
000372: 01,3373           04736                           TC       CCSHOLE
000373: 01,3374           13375                           TCF      +1
000374:


000376:
000377:                                                                                                  #  EVALUATE THE RESULTS OF THE SCAN.
000378:
000379: 01,3375           10121                           CCS      BUF        +1                         #  SEE IF THERE ARE ANY ACTIVE JOBS WAITING
000380: 01,3376           04736                           TC       CCSHOLE
000381: 01,3377           04736                           TC       CCSHOLE
000382:
000383: 01,3400           13402                           TCF      +2
000384: 01,3401           15576                           TCF      DUMMYJOB
000385: 01,3402           10120                           CCS      BUF                                   #  BUF IS ZERO IF THIS IS A PRIOCHNG AND
000386: 01,3403           13405                           TCF      +2                                    #  CHANGED PRIORITY IS STILL HIGHEST.
000387: 01,3404           13233                           TCF      ENDPRCHG
000388:
000389: 01,3405           50000                           INDEX    A                                     #  OTHERWISE, SET NEWJOB TO THE RELATIVE
000390: 01,3406           27777                           CAF      0          -1                         #  ADDRESS OF THE NEW JOB'S CORE SET.
000391: 01,3407           63357                           AD       -CCSPR
000392: 01,3410           54067                           TS       NEWJOB
000393: 01,3411           13162                           TCF      CHANJOB    -1
000394:
000395: 01,3412           54122        EJ1                TS       BUF        +2
000396: 01,3413           60121                           AD       BUF        +1                         #  - OLD HIGH PRIORITY.
000397: 01,3414           10000                           CCS      A
000398: 01,3415           40122                           CS       BUF        +2
000399: 01,3416           13422                           TCF      EJ2                                   #  NEW HIGH PRIORITY.
000400: 01,3417           13420                           NOOP
000401: 01,3420           50002                           INDEX    Q
000402: 01,3421           00002                           TC       2                                     #  PROCEED WITH SEARCH.
000403:
000404: 01,3422           54121        EJ2                TS       BUF        +1
000405: 01,3423           00006                           EXTEND
000406: 01,3424           22120                           QXCH     BUF                                   #  FOR LOCATING CCS PRIORITY + X INSTR.
000407: 01,3425           50120                           INDEX    BUF
000408: 01,3426           00002                           TC       2
000409:


000411:
000412:                                                                                                  #  IDLING AND COMPUTER ACTIVITY (GREEN) LIGHT MAINTENANCE. THE IDLING ROUTINE IS NOT A JOB IN ITSELF,
000413:                                                                                                  #  BUT RATHER A SUBROUTINE OF THE EXECUTIVE.
000414:
000415:    5576                                           BLOCK    02
000416:    5576     1354                                  EBANK=   SELFRET                               #  SELF-CHECK STORAGE IN EBANK.
000417:
000418:    5576           47767        DUMMYJOB           CS       ZERO                                  #  SET NEWJOB TO -0 FOR IDLING.
000419:    5577           54067                           TS       NEWJOB
000420:    5600           00003                           RELINT
000421:    5601           47762                           CS       TWO                                   #  TURN OFF THE ACTIVITY LIGHT.
000422:    5602           00006                           EXTEND
000423:    5603           03011                           WAND     DSALMOUT
000424:    5604           15607                           TCF      CHECKNJ    +2
000425:
000426:    5605           00006        CHECKNJ            EXTEND                                         #  SPECIAL NEWJOB TEST FOR SELF-CHECK,
000427:    5606           23354                           QXCH     SELFRET                               #  WHICH RUNS UNDER EXECUTIVE CONTROL,
000428:    5607           10067                 +2        CCS      NEWJOB                                #  BUT DOES NOT HAVE A JOBS CORE REGISTERS.
000429:    5610           15622                           TCF      NUCHANGE                              #  NEW JOB REQUIRING A CHANGE JOB.
000430:    5611           37762                           CAF      TWO                                   #  NEW JOB ALREADY IN POSITION FOR
000431:    5612           15616                           TCF      NUDIRECT                              #  EXECUTION.
000432:
000433:    5613           35631        ADVAN              CAF      SELFBANK                              #  (SIMULATOR ADVAN IF NEWJOB = 77777).
000434:    5614           54006                           TS       BBANK
000435:    5615           01354                           TC       SELFRET
000436:
000437:    5616           00006        NUDIRECT           EXTEND                                         #  TURN THE GREEN LIGHT BACK ON.
000438:    5617           05011                           WOR      DSALMOUT
000439:    5620           52155                           DXCH     LOC                                   #  JOBS STARTED IN THIS FASHION MUST BE
000440:    5621           52006                           DTCB                                           #  BASIC.
000441:
000442:    5622           37762        NUCHANGE           CAF      TWO
000443:    5623           00006                           EXTEND
000444:    5624           05011                           WOR      DSALMOUT
000445:    5625           35575                           CAF      EXECBANK                              #  SWAP CORE SETS.
000446:    5626           54004                           TS       FBANK
000447:    5627           00004                           INHINT                                         #  CHANGE JOBS
000448:    5630           13162                           TCF      CHANJOB    -1
000449:
000450:    5631     1354                                  EBANK=   SELFRET
000451:    5631           76062        SELFBANK           BBCON    SELFCHK
000452:


000454:
000455:                                                                                                  #  PRIORITY CONSTANTS (NOTE IN FIXED-FIXED).
000456:
000457:    5632     7752               PRIO1              EQUALS   BIT10
000458:    5632     7751               PRIO2              EQUALS   BIT11
000459:    5632           03000        PRIO3              OCT      03000
000460:    5633     7750               PRIO4              EQUALS   BIT12
000461:    5633           05000        PRIO5              OCT      05000
000462:    5634           06000        PRIO6              OCT      06000
000463:    5635           07000        PRIO7              OCT      07000
000464:    5636     7747               PRIO10             EQUALS   BIT13
000465:    5636           11000        PRIO11             OCT      11000
000466:    5637     5234               PRIO12             =        BNKJUP+4
000467:    5637           13000        PRIO13             OCT      13000
000468:    5640           14000        PRIO14             OCT      14000
000469:    5641           15000        PRIO15             OCT      15000
000470:    5642           16000        PRIO16             OCT      16000
000471:    5643           17000        PRIO17             OCT      17000
000472:    5644     7746               PRIO20             EQUALS   BIT14
000473:    5644           21000        PRIO21             OCT      21000
000474:    5645           22000        PRIO22             OCT      22000
000475:    5646           23000        PRIO23             OCT      23000
000476:    5647     4260               PRIO24             =        NUFAZ+10
000477:    5647           25000        PRIO25             OCT      25000
000478:    5650           26000        PRIO26             OCT      26000
000479:    5651           27000        PRIO27             OCT      27000
000480:    5652     5210               PRIO30             =        BNKCAL+2
000481:    5652           31000        PRIO31             OCT      31000
000482:    5653           32000        PRIO32             OCT      32000
000483:    5654           33000        PRIO33             OCT      33000
000484:    5655           34000        PRIO34             OCT      34000
000485:    5656           35000        PRIO35             OCT      35000
000486:    5657           36000        PRIO36             OCT      36000
000487:    5660           37000        PRIO37             OCT      37000
000488:
000489:                                                                                                  #  EBANK CONSTANTS IN FIXED-FIXED
000490:
000491:    5661     5352               EBANK3             EQUALS   OCT1400
000492:    5661     7751               EBANK4             EQUALS   BIT11
000493:    5661           02400        EBANK5             OCTAL    02400
000494:    5662     5632               EBANK6             EQUALS   PRIO3
000495:    5662           03400        EBANK7             OCTAL    03400

End of include-file EXECUTIVE.agc.  Parent file is MAIN.agc


