
Source Code


000002:                                                                                                  ## Copyright:   Public domain.
000003:                                                                                                  ## Filename:    EXTENDED_VERBS.agc
000004:                                                                                                  ## Purpose:     A module for revision 0 of BURST120 (Sunburst).
000005:                                                                                                  ##              It is part of the source code for the Lunar Module's (LM)
000006:                                                                                                  ##              Apollo Guidance Computer (AGC) for Apollo 5.
000007:                                                                                                  ## Assembler:   yaYUL
000008:                                                                                                  ## Contact:     Ron Burkey <info@sandroid.org>.
000009:                                                                                                  ## Website:     www.ibiblio.org/apollo/index.html
000010:                                                                                                  ## Mod history: 2016-09-30 RSB  Created draft version.
000011:                                                                                                  ##              2016-10-06 RSB  Completed transcription.
000012:                                                                                                  ##              2016-10-30 MAS  Corrected DESKBITS->DESCBITS.
000013:                                                                                                  ##              2016-10-31 RSB  Typos.
000014:                                                                                                  ##              2016-11-01 RSB  More typos.
000015:                                                                                                  ##              2016-11-02 RSB  More typos.
000016:


000018: 11,2000                                           BANK     11
000019: 11,2000  E5,1500                                  EBANK=   OGC
000020:
000021:                                                                                                  #  FAN-OUT
000022:
000023:                                                                                                  #  NOTE OF SPECIAL IMPORT CONCERNING RADER:
000024:
000025:                                                                                                  #           SINCE 206 HAS NO RADARS, THE INTERRUPT LEAD IN AND T4RUPT SERVICE ROUTINES HAVE BEEN DISCONNECTED IN
000026:                                                                                                  #  SUNBURST (REV 39).  THEREFORE, THE FOLLOWING VERBS SHOULD NOT BE USED:  40 WITH NOUN 40, 41 WITH NOUN 40, 45,
000027:                                                                                                  #  46, AND SEQUENCES 13 AND 14 OF VERB 57.
000028:
000029: 11,2000           02070        LST2FAN            TC       VBZERO                                #  VB40 ZERO (USED WITH NOUN 20 OR 40 ONLY)
000030: 11,2001           02073                           TC       VBCOARK                               #  VB41 COARSE ALIGN (USED WITH NOUN 20 OR
000031:                                                                                                  #                                  40 ONLY)
000032: 11,2002           02204                           TC       IMUFINEK                              #  VB42 FINE ALIGN IMU
000033: 11,2003           02565                           TC       IMUATTCK                              #  VB43  LOAD IMU ATTITUDE ERROR METERS.
000034: 11,2004           02066                           TC       ALM/END                               #  VB44 SPARE
000035: 11,2005           12126                           TCF      LRPOS2K                               #  VB45 COMMAND LR TO POSITION 2.
000036: 11,2006           02414                           TC       REGRSAMP                              #  VB46 SAMPLE RADAR ONCE PER SECOND
000037: 11,2007           02406                           TC       DOFCSTST                              #  VB47 PERFORM LEM FCS TEST
000038: 11,2010           02261                           TC       GOLOADLV                              #  VB50 PLEASE PERFORM
000039: 11,2011           02261                           TC       GOLOADLV                              #  VB51 PLEASE MARK
000040: 11,2012           02261                           TC       GOLOADLV                              #  VB52 PLEASE MARK Y
000041: 11,2013           02261                           TC       GOLOADLV                              #  VB53 PLEASE MARK X OR Y
000042: 11,2014           02265                           TC       TORQGYRS                              #  VB54 PULSE TORQUE GYROS
000043: 11,2015           02302                           TC       ALINTIME                              #  VB55 ALIGN TIME
000044: 11,2016           02404                           TC       GOSHOSUM                              #  VB56 PERFORM BANKSUM
000045: 11,2017           02326                           TC       SYSTEST                               #  VB57 PERFORM SYSTEM TEST
000046: 11,2020           03121                           TC       PRESTAND                              #  VB60 PREPARE FOR STANDBY
000047: 11,2021           03167                           TC       POSTAND                               #  VB61 RECOVER FROM STANDBY
000048: 11,2022           02634                           TC       SETUPMSG                              #  VB62 SCAM LEM INBITS
000049: 11,2023           12530                           TCF      BEGINCDU                              #  VB63 SEND SPECIAL CDU DOWNLIST
000050: 11,2024           13266                           TCF      64UPDAT                               #  VB64 SET TIMER TO GROUND ELAPSED TIME
000051: 11,2025           13242                           TCF      65UPDAT                               #  VB65 SET GUIDANCE REFERENCE RELEASE DISC
000052: 11,2026           13246                           TCF      66UPDAT                               #  VB66 INITIATE LGC DFI TLM CALIBRATE RTN
000053: 11,2027           13254                           TCF      67UPDAT                               #  VB67 SEND COMMAND TO LMP
000054: 11,2030           13260                           TCF      70UPDAT                               #  VB70 SET MISSION TIMER
000055: 11,2031           13262                           TCF      71UPDAT                               #  VB71 SET MISSION PHASE REGISTER
000056: 11,2032           13270                           TCF      72UPDAT                               #  VB72 SET MISSION PHASE REGISTER + TIMER
000057: 11,2033           13252                           TCF      73UPDAT                               #  VB73 RESET DPS OR RPS COLD SOAK DISC
000058: 11,2034           13244                           TCF      74UPDAT                               #  VB74 STOP MISSION TIMERS
000059: 11,2035           13301                           TCF      75UPDAT                               #  VB75 PARAMETER UPDATE
000060: 11,2036           13274                           TCF      76UPDAT                               #  VB76 STATE VECTOR UPDATE
000061: 11,2037           02066                           TC       ALM/END
000062:
000063: 11,2040           37761        TESTXACT           CAF      BIT3
000064: 11,2041           70336                           MASK     EXTVBACT
000065: 11,2042           10000                           CCS      A
000066: 11,2043           02053                           TC       XACTALM
000067:


000069: 11,2044           47761        XACT1              CS       BIT3
000070: 11,2045           00004                           INHINT
000071: 11,2046           70336                           MASK     EXTVBACT
000072: 11,2047           67761                           AD       BIT3
000073: 11,2050           54336                           TS       EXTVBACT
000074: 11,2051           00003                           RELINT
000075: 11,2052           00002                           TC       Q
000076:
000077: 11,2053           04571        XACTALM            TC       FALTON
000078: 11,2054           05567                           TC       ENDOFJOB
000079:
000080: 11,2055           04724        TERMEXTV           TC       FREEDSP                               #  IF WE GET A TERMINATE INSTEAD OF A LOAD.
000081:
000082: 11,2056           02060        ENDEXTVB           TC       XACT0
000083: 11,2057           05567                           TC       ENDOFJOB
000084:
000085: 11,2060           47761        XACT0              CS       BIT3
000086: 11,2061           00004                           INHINT
000087: 11,2062           70336                           MASK     EXTVBACT
000088: 11,2063           54336                           TS       EXTVBACT
000089: 11,2064           00003                           RELINT
000090: 11,2065           00002        XACT0Q             TC       Q
000091:
000092: 11,2066           04571        ALM/END            TC       FALTON
000093: 11,2067           02056                           TC       ENDEXTVB
000094:
000095:
000096: 11,2070           02076        VBZERO             TC       OP/INERT
000097: 11,2071           02110                           TC       IMUZEROK                              #  RETURN HERE IF NOUN = ICDU(20)
000098: 11,2072           02117                           TC       RRZEROK                               #  RETURN HERE IF NOUN = RCDU(40)
000099:
000100: 11,2073           02076        VBCOARK            TC       OP/INERT
000101: 11,2074           02132                           TC       IMUCOARK                              #  RETURN HERE IF NOUN = ICDU (20)
000102: 11,2075           02234                           TC       RRDESNBK                              #  RETURN HERE IF NOUN = RCDU (40)
000103:
000104:                                                                                                  #  RETURNS TO L+1 IF IMU OR L+2 IF RR.
000105:
000106: 11,2076           47757        OP/INERT           CS       BIT5                                  #  OCT20
000107: 11,2077           60273                           AD       NOUNREG
000108: 11,2100           00006                           EXTEND
000109: 11,2101           12065                           BZF      XACT0Q                                #  IF = 20.
000110:
000111: 11,2102           24002                           INCR     Q
000112: 11,2103           62107                           AD       RRIMUDIF                              #  = -20 OCT.
000113: 11,2104           00006                           EXTEND
000114: 11,2105           12065                           BZF      XACT0Q
000115:


000117: 11,2106           02066                           TC       ALM/END                               #  ILLEGAL.
000118:
000119: 11,2107           77757        RRIMUDIF           OCT      -20
000120:


000122:                                                                                                  #  KEYBOARD REQUEST TO ZERO IMU ENCODERS
000123:
000124: 11,2110           02040        IMUZEROK           TC       TESTXACT                              #  ZERO ENCODERS
000125: 11,2111           05206                           TC       BANKCALL
000126: 11,2112           26000                           CADR     IMUZERO
000127:
000128: 11,2113           05206                           TC       BANKCALL                              #  STALL
000129: 11,2114           26751                           CADR     IMUSTALL
000130: 11,2115           02116                           TC       +1
000131:
000132: 11,2116           02056                           TC       ENDEXTVB
000133: 11,2117           02040        RRZEROK            TC       TESTXACT
000134: 11,2120           05206                           TC       BANKCALL                              #  ZERO RR CDUS.
000135: 11,2121           20250                           CADR     RRZERO
000136:
000137: 11,2122           05206        RWAITK             TC       BANKCALL
000138: 11,2123           26745                           CADR     RADSTALL
000139: 11,2124           12125                           TCF      +1
000140: 11,2125           12056                           TCF      ENDEXTVB
000141:
000142: 11,2126           02040        LRPOS2K            TC       TESTXACT                              #  COMMAND LR TO POSITION 2.
000143: 11,2127           05206                           TC       BANKCALL
000144: 11,2130           21162                           CADR     LRPOS2
000145: 11,2131           12122                           TCF      RWAITK
000146:


000148:                                                                                                  #  KEYBOARD REQUEST TO COARSE ALIGN THE IMU
000149:
000150: 11,2132           02040        IMUCOARK           TC       TESTXACT                              #  COARSE ALIGN FROM KEYBOARD.
000151: 11,2133           04644                           TC       GRABWAIT
000152: 11,2134           32152                           CAF      VNLODCDU                              #  CALL FOR THETAD LOAD
000153: 11,2135           04657                           TC       NVSBWAIT
000154: 11,2136           04475                           TC       ENDIDLE                               #  STALL WAITING FOR THE LOAD
000155: 11,2137           02055                           TC       TERMEXTV
000156: 11,2140           02154                           TC       ICSDEL                                #  PROCEED - ASK FOR INCREMENTAL LOAD.
000157:
000158: 11,2141           32153        ICORK2             CAF      IMUCOARV                              #  RE-DISPLAY COARSE ALIGN VERB.
000159: 11,2142           04657                           TC       NVSBWAIT
000160: 11,2143           04724                           TC       FREEDSP                               #  RELEASE THE DISPLAYS
000161:
000162: 11,2144           05206                           TC       BANKCALL                              #  CALL MODE SWITCHING PROG
000163: 11,2145           26065                           CADR     IMUCOARS
000164:
000165: 11,2146           05206                           TC       BANKCALL                              #  STALL
000166: 11,2147           26751                           CADR     IMUSTALL
000167: 11,2150           02056                           TC       ENDEXTVB
000168: 11,2151           02056                           TC       ENDEXTVB
000169:
000170: 11,2152           02522        VNLODCDU           OCT      02522
000171: 11,2153           04100        IMUCOARV           OCT      04100
000172:


000174:                                                                                                  #  PROVISION FOR COARSE ALIGN TO INCREMENTAL ANGLES.
000175:
000176: 11,2154           32202        ICSDEL             CAF      DELLOAD
000177: 11,2155           04657                           TC       NVSBWAIT                              #  REQUEST LOAD OF DELTA ICDU ANGLES.
000178: 11,2156           04475                           TC       ENDIDLE
000179: 11,2157           02055                           TC       TERMEXTV
000180: 11,2160           02141                           TC       ICORK2                                #  PROCEED WITHOUT DATA HERE TOO.
000181: 11,2161           02163                           TC       INCLOOP                               #  LOOP TO INCREMENT THETAD FROM DSPTEM2.
000182: 11,2162           02141                           TC       ICORK2                                #  RE-DISPLAY COARSE ALIGN VERB.
000183:
000184: 11,2163           56002        INCLOOP            XCH      Q                                     #  INCREMENTS THETADS IN 2S COMPLEMENT FROM
000185: 11,2164           54144                           TS       MPAC                                  #   THREE ANGLE INCREMENTS IN DSPTEM2S.
000186: 11,2165           32203                           CAF      LTHD+2
000187: 11,2166           54120                           TS       BUF                                   #  SET UP FOR CDUINC.
000188: 11,2167           37762                           CAF      TWO                                   #  THREE TIMES THROUGH.
000189:
000190: 11,2170           54145        INCLOOP2           TS       MPAC       +1
000191: 11,2171           50000                           INDEX    A
000192: 11,2172           56342                           XCH      DSPTEM2                               #  INCREMENT TO TEM2 FOR CDUINC.
000193: 11,2173           05206                           TC       BANKCALL
000194: 11,2174           33602                           CADR     CDUINC
000195: 11,2175           10120                           CCS      BUF
000196: 11,2176           54120                           TS       BUF
000197: 11,2177           10145                           CCS      MPAC       +1
000198: 11,2200           02170                           TC       INCLOOP2
000199:
000200: 11,2201           00144                           TC       MPAC                                  #  RETURN WHEN FINISHED
000201:
000202: 11,2202           02523        DELLOAD            OCT      02523
000203: 11,2203           00402        LTHD+2             ADRES    THETAD     +2
000204:


000206:                                                                                                  #  KEYBOARD REQUEST TO FINE ALIGN AND GYRO TORQUE IMU
000207:
000208: 11,2204           02040        IMUFINEK           TC       TESTXACT                              #  FINE ALIGN WITH GYRO TORQUING.
000209: 11,2205           04644                           TC       GRABWAIT
000210: 11,2206           32232                           CAF      VNLODGYR                              #  CALL FOR LOAD OF GYRO COMMANDS
000211: 11,2207           04657                           TC       NVSBWAIT
000212: 11,2210           04475                           TC       ENDIDLE                               #  HOLD UP FOR THE DATA LOAD
000213: 11,2211           02055                           TC       TERMEXTV
000214: 11,2212           02213                           TC       +1                                    #  PROCEED WITHOUT A LOAD
000215:
000216: 11,2213           32233                           CAF      IMUFINEV                              #  RE-DISPLAY OUR OWN VERB
000217: 11,2214           04657                           TC       NVSBWAIT
000218: 11,2215           04724                           TC       FREEDSP                               #  RELEASE DISPLAYS
000219:
000220: 11,2216           05206                           TC       BANKCALL                              #  CALL MODE SWITCH PROG
000221: 11,2217           26252                           CADR     IMUFINE
000222:
000223: 11,2220           05206                           TC       BANKCALL                              #  HIBERNATION
000224: 11,2221           26751                           CADR     IMUSTALL
000225: 11,2222           02056                           TC       ENDEXTVB
000226:
000227: 11,2223           32300        FINEK2             CAF      LGYROBIN                              #  PINBALL LEFT COMMANDS IN OGC REGISTERS
000228: 11,2224           05206                           TC       BANKCALL
000229: 11,2225           26362                           CADR     IMUPULSE
000230:
000231: 11,2226           05206                           TC       BANKCALL                              #  WAIT FOR PULSES TO GET OUT.
000232: 11,2227           26751                           CADR     IMUSTALL
000233: 11,2230           02056                           TC       ENDEXTVB
000234: 11,2231           02056                           TC       ENDEXTVB
000235:
000236: 11,2232           02567        VNLODGYR           OCT      02567
000237: 11,2233           04200        IMUFINEV           OCT      04200                                 #  FINE ALIGN VERB
000238:


000240:                                                                                                  #  DESIGNATE TO DESIRED GIMBAL ANGLES.
000241:
000242: 11,2234           02040        RRDESNBK           TC       TESTXACT
000243: 11,2235           04644                           TC       GRABWAIT
000244: 11,2236           32255                           CAF      VNLDRCDU                              #  ASK FOR GIMBAL ANGLES.
000245: 11,2237           04657                           TC       NVSBWAIT
000246: 11,2240           04475                           TC       ENDIDLE                               #  WAIT FOR THE LOAD
000247: 11,2241           02055                           TC       TERMEXTV
000248: 11,2242           02243                           TC       +1                                    #  PROCEED
000249:
000250: 11,2243           05206                           TC       BANKCALL                              #  ASK OP FOR LOCK ON REQUIREMENTS.
000251: 11,2244           22760                           CADR     AURLOKON
000252:
000253: 11,2245           32153                           CAF      OPTCOARV                              #  RE-DISPLAY OUR OWN VERB
000254: 11,2246           04657                           TC       NVSBWAIT
000255: 11,2247           00004                           INHINT                                         #  FIRE UP JOB TO DO DESIGNATE.
000256: 11,2250           37746                           CAF      PRIO20
000257: 11,2251           05516                           TC       FINDVAC
000258: 11,2252  E5,1500                                  EBANK=   OGC
000259: 11,2252           02256 22065                     2CADR    RRDESK2
000260:
000261: 11,2254           12055                           TCF      TERMEXTV                              #  FREES DISPLAY
000262:
000263: 11,2255           02441        VNLDRCDU           OCT      2441
000264: 11,2256  11,2153               OPTCOARV           EQUALS   IMUCOARV                              #  DIFFERENT NOUNS.
000265:
000266: 11,2256           05206        RRDESK2            TC       BANKCALL
000267: 11,2257           20364                           CADR     RRDESNB
000268:
000269: 11,2260           02122                           TC       RWAITK
000270:
000271:                                                                                                  #  PLEASE PERFORM VERB AND PLEASE MARK VERB ----- PRESSING ENTER INDICATES
000272:                                                                                                  #  ACTION REQUESTED HAS BEEN PERFORMED, AND DOES SAME RECALL AS A COMPLETED
000273:                                                                                                  #  LOAD.  OPERATOR SHOULD DO VB PROCEED WITHOUT DATA IF HE WISHES NOT TO
000274:                                                                                                  #  PERFORM THE REQUESTED ACTION.
000275:
000276: 11,2261           04626        GOLOADLV           TC       FLASHOFF
000277: 11,2262           02060                           TC       XACT0
000278: 11,2263           05225                           TC       POSTJUMP
000279: 11,2264           12002                           CADR     LOADLV1
000280:


000282:                                                                                                  #  KEYBOARD REQUEST TO PULSE TORQUE IRIGA
000283:
000284: 11,2265           02040        TORQGYRS           TC       TESTXACT                              #  GYRO TORQUING WITH NO MOD-SWITCH.
000285: 11,2266           04644                           TC       GRABWAIT
000286: 11,2267           32232                           CAF      VNLODGYR
000287: 11,2270           04657                           TC       NVSBWAIT
000288: 11,2271           04475                           TC       ENDIDLE
000289: 11,2272           02055                           TC       TERMEXTV
000290: 11,2273           02274                           TC       +1
000291: 11,2274           32301                           CAF      TORQGYRV                              #  RE-DISPLAY OUR OWN VERB
000292: 11,2275           04657                           TC       NVSBWAIT
000293: 11,2276           04724                           TC       FREEDSP
000294: 11,2277           12223                           TCF      FINEK2
000295:
000296: 11,2300           00403        LGYROBIN           ECADR    DELVX
000297: 11,2301           05400        TORQGYRV           OCT      05400
000298:


000300:                                                                                                  #  ALIGN TIME
000301:
000302: 11,2302           32325        ALINTIME           CAF      VNLODDT                               #  USES NVSUBMON. DOES NOT TEST DSPLOCK
000303: 11,2303           54113                           TS       NVTEMP                                #  DOES NOT KILL MONITOR.
000304: 11,2304           04460                           TC       NVSUBMON
000305: 11,2305           05567                           TC       ENDOFJOB                              #  IN CASE OF ALARM IN LOAD REQUEST SET UP.
000306: 11,2306           04475                           TC       ENDIDLE
000307: 11,2307           05567                           TC       ENDOFJOB                              #  TERMINATE
000308: 11,2310           05567                           TC       ENDOFJOB                              #  PROCEED WITHOUT DATA
000309: 11,2311           00004                           INHINT                                         #  DELTA TIME IS IN DSPTEM1, +1.
000310: 11,2312           37767                           CAF      ZERO
000311: 11,2313           54146                           TS       MPAC       +2                         #  NEEDED FOR TP AGREE
000312: 11,2314           54001                           TS       L                                     #  ZERO T1 + 2 WHILE ALIGNING.
000313: 11,2315           52025                           DXCH     TIME2
000314: 11,2316           52145                           DXCH     MPAC
000315: 11,2317           52340                           DXCH     DSPTEM1                               #  INCREMENT
000316: 11,2320           20145                           DAS      MPAC
000317:
000318: 11,2321           07327                           TC       TPAGREE                               #  FORCE SIGN AGREEMENT.
000319: 11,2322           52145                           DXCH     MPAC                                  #  NEW CLOCK.
000320: 11,2323           20025                           DAS      TIME2
000321: 11,2324           05567                           TC       ENDOFJOB
000322:
000323: 11,2325           02124        VNLODDT            OCT      02124                                 #  V/N FOR LOAD DELTA TIME
000324:


000326:                                                                                                  #  SELECT AND INITIATE DESIRED SYSTEM TEST PROGRAM.
000327:
000328: 11,2326  E5,1546                                  EBANK=   QPLACE
000329:
000330: 11,2326           10302        SYSTEST            CCS      MODREG                                #  DEMAND MODE 00.
000331: 11,2327           12053                           TCF      XACTALM
000332:
000333: 11,2330           04644                           TC       GRABWAIT
000334: 11,2331           32403        REDO               CAF      LQPL                                  #  ASK FOR TEST OPTION (1 - 7).
000335: 11,2332           54146                           TS       MPAC       +2
000336: 11,2333           32402                           CAF      TESTNV
000337: 11,2334           04657                           TC       NVSBWAIT
000338: 11,2335           04475                           TC       ENDIDLE
000339: 11,2336           05566                           TC       EJFREE
000340: 11,2337           02331                           TC       REDO
000341:
000342: 11,2340           04117                           TC       NEWMODEX
000343: 11,2341           00005                           OCT      5                                     #  DISPLAY MAJOR MODE 5 - SYSTEM TESTS
000344:
000345: 11,2342           00004                           INHINT
000346: 11,2343           37746                           CAF      PRIO20
000347: 11,2344           05516                           TC       FINDVAC
000348: 11,2345  E5,1500                                  EBANK=   OGC
000349: 11,2345           02350 22065                     2CADR    TSELECT
000350:
000351: 11,2347           05567                           TC       ENDOFJOB                              #  LEAVING DISPLAY GRABBED FOR SYSTEM TEST.
000352:
000353: 11,2350           45343        TSELECT            CS       LOW4                                  #    OCTAL 17 OPTIONS WITHOUT OPERATOR ERRO
000354: 11,2351           61546                           AD       QPLACE
000355: 11,2352           00006                           EXTEND
000356: 11,2353           62356                           BZMF     +3
000357: 11,2354           04571                           TC       FALTON
000358: 11,2355           02331                           TC       REDO
000359: 11,2356           51546                           INDEX    QPLACE
000360: 11,2357           32361                           CAF      TESTCADR
000361: 11,2360           05230                           TC       BANKJUMP
000362:
000363:                                                                                                  #  DON'T USE 13 OR 14 (SEE NOT ON USER'S PAGE 1).
000364:
000365: 11,2361           22066        TESTCADR           CADR     ALM/END                               #  0  ILLEGAL
000366: 11,2362           50000                           CADR     IMUTEST                               #  1  GYRO DRIFT TEST
000367: 11,2363           50025                           CADR     IMUBACK                               #  2 REPEAT OF IMUTEST
000368: 11,2364           30000                           CADR     AOTNBIMU                              #  3  IMU ALIGNMENT TEST
000369: 11,2365           50252                           CADR     OPCHK                                 #  4  IMU CHECK
000370: 11,2366           50451                           CADR     GYRSFTST                              #  5  GYRO TORQUING TEST
000371: 11,2367           22066                           CADR     ALM/END                               #  6  AVAILABLE
000372: 11,2370           73351                           CADR     GTSCPSS                               #  7. GYROCOMPASS
000373: 11,2371           46556                           CADR     SAMODCHK                              #  10 SEMI-AUTOMATIC MODING CHECK
000374: 11,2372           31347                           CADR     SAUTOIFS                              #  11 SEMI-AUTOMATIC INTERFACE TEST
000375: 11,2373           31605                           CADR     AOTANGCK                              #  12 AOT ANGLE CHECK


000377: 11,2374           31143                           CADR     RDRINIT                               #  13 RENDEZVOUS RADAR / ANTENNAE TRACKING
000378: 11,2375           22410                           CADR     FSTRSAMP                              #  14 HIGH SPEED RADAR SAMPLING.
000379:
000380: 11,2376           31636                           CADR     ZEROERAS
000381: 11,2377           23007                           CADR     DISINDT                               #  DISPLAY INTERTIAL DATA TEST.
000382: 11,2400           22066                           CADR     ALM/END
000383: 11,2401           22066                           CADR     ALM/END
000384: 11,2402           02101        TESTNV             OCT      2101
000385: 11,2403           02546        LQPL               ECADR    QPLACE
000386: 11,2404           05225        GOSHOSUM           TC       POSTJUMP                              #  START ROUTINE TO DISPLAY SUM OF EACH
000387: 11,2405           77543                           CADR     SHOWSUM                               #  BANK ON DSKY
000388:
000389: 11,2406           05225        DOFCSTST           TC       POSTJUMP
000390: 11,2407           14736                           CADR     FCSSTART
000391:


000393:                                                                                                  #  SET UP FOR RADAR SAMPLING.
000394:
000395: 11,2410  E7,1444                                  EBANK=   RSTKLOC
000396:
000397: 11,2410           32477        FSTRSAMP           CAF      RSTKLIST                              #  HIGH SPEED SAMPLING, SWITCH TO SPECIAL
000398: 11,2411           54411                           TS       DNLSTADR                              #  DOWNLIST.
000399: 11,2412           47763                           CS       ONE                                   #  WANTS TM BUFFERING.
000400: 11,2413           12416                           TCF      RSAMPTST
000401:
000402: 11,2414           04644        REGRSAMP           TC       GRABWAIT
000403: 11,2415           35205                           CAF      1SEC+1                                #  SHOWS NO TM BUFFERNG.
000404:
000405: 11,2416           54146        RSAMPTST           TS       MPAC       +2
000406: 11,2417           00004                           INHINT
000407: 11,2420           42500                           CS       LRPOSCAL                              #  INITIALIZE SCALE AND LR POSITION BITS.
000408: 11,2421           70412                           MASK     RADMODES
000409: 11,2422           54412                           TS       RADMODES
000410:
000411: 11,2423           32500                           CAF      LRPOSCAL
000412: 11,2424           00006                           EXTEND
000413: 11,2425           02033                           RAND     33
000414: 11,2426           26412                           ADS      RADMODES
000415:
000416: 11,2427           00003                           RELINT
000417: 11,2430           32451                           CAF      LRTSTDEX
000418: 11,2431           54003                           TS       EBANK
000419: 11,2432           56146                           XCH      MPAC       +2
000420: 11,2433           55445                           TS       RSAMPDT                               #  HI SPEED NNZ - LO SPEED PNZ.
000421: 11,2434           37767                           CAF      ZERO
000422: 11,2435           55444                           TS       RTSTLOC
000423: 11,2436           55446                           TS       RFAILCNT                              #  ZERO BAD SAMPLE COUNTER.
000424: 11,2437           32475                           CAF      HISPMAX
000425: 11,2440           55442                           TS       RTSTMAX
000426:
000427: 11,2441           32476                           CAF      RTSTNV
000428: 11,2442           04657                           TC       NVSBWAIT
000429: 11,2443           04475                           TC       ENDIDLE
000430: 11,2444           05566                           TC       EJFREE                                #  ON TERMINATE.
000431: 11,2445           12501                           TCF      RSEMIAUT                              #  PROCEED MEANS SEMI-AUTO SEQUENCING.
000432: 11,2446           04724        RDRDFREE           TC       FREEDSP
000433: 11,2447           11445                           CCS      RSAMPDT                               #  SEE IF HI OR LO SPEED SAMPLING.
000434: 11,2450           12454                           TCF      +4
000435:
000436: 11,2451           03441        LRTSTDEX           ECADR    RTSTDEX
000437:
000438: 11,2452           05225                           TC       POSTJUMP                              #  EXEC. OTHERWISE, SET UP WAITLIST TIMING.
000439: 11,2453           21301                           CADR     DORSAMP
000440:
000441: 11,2454           36306                           CAF      SIX                                   #  FIND OUT WHICH RADAR WANTED.
000442: 11,2455           71441                           MASK     RTSTDEX
000443:


000445: 11,2456           10000                           CCS      A
000446: 11,2457           12463                           TCF      LRCYCLE                               #  LANDING RADAR ARE SERIALS 2 - 5.
000447:
000448: 11,2460           55443                           TS       RTSTBASE                              #  FOR RR BASE = 0, MAX = 1.
000449: 11,2461           36306                           CAF      SIX
000450: 11,2462           12466                           TCF      +4
000451:
000452: 11,2463           37762        LRCYCLE            CAF      TWO                                   #  FOR LR BASE = 2, MAX = 3.
000453: 11,2464           55443                           TS       RTSTBASE
000454: 11,2465           32474                           CAF      18R
000455:
000456: 11,2466           55442                 +4        TS       RTSTMAX
000457: 11,2467           00004                           INHINT
000458: 11,2470           05663                           TC       WAITLIST
000459: 11,2471  E7,1444                                  EBANK=   RSTKLOC
000460: 11,2471           03261 20067                     2CADR    RADSAMP
000461:
000462: 11,2473           05567                           TC       ENDOFJOB
000463:
000464: 11,2474           00022        18R                DEC      18         B-14
000465: 11,2475           00102        HISPMAX            DEC      66         B-14
000466: 11,2476           02101        RTSTNV             OCT      2101
000467: 11,2477           02236        RSTKLIST           GENADR   UPDNLIST
000468: 11,2500           00444        LRPOSCAL           OCT      444
000469:


000471:                                                                                                  #  SEMI-AUTO RADAR TESTING.
000472:
000473: 11,2501           00004        RSEMIAUT           INHINT
000474: 11,2502           35647                           CAF      PRIO25                                #  START HI SPEED SAMPLING.
000475: 11,2503           05505                           TC       NOVAC
000476: 11,2504  E7,1444                                  EBANK=   RSTKLOC
000477: 11,2504           03301 20067                     2CADR    DORSAMP
000478:
000479: 11,2506           00003                           RELINT
000480: 11,2507           37766                           CAF      FIVE                                  #  SEQUENCE THROUGH ALL SIX CHANNELS.
000481: 11,2510           55441                 -1        TS       RTSTDEX
000482:
000483: 11,2511           32527        33PASTE            CAF      RV33                                  #  ON ENTER, SWITCH TO NEXT CHANNEL.
000484: 11,2512           04657                           TC       NVSBWAIT
000485: 11,2513           04622                           TC       FLASHON
000486: 11,2514           04475                           TC       ENDIDLE
000487: 11,2515           02522                           TC       ENDRTST                               #  ON TERMINATE.
000488: 11,2516           12520                           TCF      +2
000489: 11,2517           12511                           TCF      33PASTE                               #  DONT ACCEPT DATA.
000490:
000491: 11,2520           11441                           CCS      RTSTDEX
000492: 11,2521           12510                           TCF      33PASTE    -1
000493:
000494: 11,2522           37767        ENDRTST            CAF      ZERO                                  #  ENDTEST.
000495: 11,2523           55445                           TS       RSAMPDT
000496: 11,2524           04117                           TC       NEWMODEX
000497: 11,2525           00000                           OCT      0
000498: 11,2526           05566                           TC       EJFREE
000499:
000500: 11,2527           03300        RV33               OCT      3300
000501:


000503:                                                                                                  #           JOB TO: 1) TURN OFF USE OF TRIM GIMBAL.  2) 5 SECONDS LATER, TURN OFF DAP, & SET UP SPECIAL DOWN-LINK
000504:                                                                                                  #  PROGRAM TO TRANSMIT A STEADY LIST OF CDUY & Z.  THE DOWN-LINK PROGRAM ALSO HAS THE DUTY OF TURNING THE DAP BACK
000505:                                                                                                  #  ON AND ENABLING USE OF THE TRIM GIMBAL AGAIN.
000506:
000507: 11,2530           00004        BEGINCDU           INHINT
000508: 11,2531           32564                           CA       FIVESECS                              #  TURN OFF DAP IN 5 SECS
000509: 11,2532           05663                           TC       WAITLIST
000510: 11,2533  E7,1407                                  EBANK=   DNTMBUFF
000511: 11,2533           02552 22067                     2CADR    DAPOFF
000512:
000513: 11,2535           31310                           CA       DVSELECT                              #  SAVE OLD CONTENTS OF DVSELECT.
000514: 11,2536           55346                           TS       OLDDVSEL
000515:
000516: 11,2537           04161                           TC       PHASCHNG
000517: 11,2540           40026                           OCT      40026                                 #  6.2 FOR DAPOFF TASK & TGOFF JOB.
000518:
000519: 11,2541           00004        TGOFF              INHINT
000520: 11,2542           40077                           CS       DAPBOOLS                              #  INHIBIT USE OF TRIM GIMBAL IMMEDIATELY.
000521: 11,2543           77762                           MASK     USEQRJTS
000522: 11,2544           26077                           ADS      DAPBOOLS
000523:
000524: 11,2545           32562                           CA       LPNGSMON                              #  PREVENT GIMBLMON FROM TURNING TRIM
000525: 11,2546           55310                           TS       DVSELECT                              #  GIMBAL BACK ON.
000526:
000527: 11,2547           04161                           TC       PHASCHNG
000528: 11,2550           00036                           OCT      00036                                 #  6.3 FOR DAPOFF TASK.
000529:
000530: 11,2551           15567                           TCF      ENDOFJOB
000531:
000532: 11,2552  E7,1407                                  EBANK=   DNTMBUFF
000533:
000534: 11,2552           32563        DAPOFF             CA       LDNCDUS                               #  SET DNTMGOTO TO INITIATE THE SENDING OF
000535: 11,2553           55401                           TS       DNTMGOTO                              #  CDUY & Z.
000536:
000537: 11,2554           47751                           CS       GODAPGO                               #  TURNING OFF GODAPGO TURNS OFF DAP.
000538: 11,2555           70077                           MASK     DAPBOOLS
000539: 11,2556           54077                           TS       DAPBOOLS
000540:
000541: 11,2557           04161                           TC       PHASCHNG
000542: 11,2560           00006                           OCT      00006
000543:
000544: 11,2561           15727                           TCF      TASKOVER
000545:
000546: 11,2562           02237        LPNGSMON           GENADR   PGNCSMON
000547: 11,2563           02354        LDNCDUS            GENADR   DNCDUS
000548: 11,2564           00764        FIVESECS           DEC      500        B-14
000549:


000551:                                                                                                  #  VB 43  IMU ATTITUDE ERROR METER LOADER.
000552:
000553: 11,2565           02040        IMUATTCK           TC       TESTXACT
000554: 11,2566           42631                           CS       OCT50K                                #  REMOVE COARSE AND ECTR ENABLE.
000555: 11,2567           00006                           EXTEND
000556: 11,2570           03012                           WAND     12
000557:
000558: 11,2571           04644                           TC       GRABWAIT
000559: 11,2572           32152                           CAF      VNLODCDU
000560: 11,2573           04657                           TC       NVSBWAIT
000561: 11,2574           04475                           TC       ENDIDLE
000562: 11,2575           02055                           TC       TERMEXTV
000563: 11,2576           02577                           TC       +1
000564: 11,2577           32632                           CAF      V43K                                  #  REDISPLAY OUR VERB.
000565: 11,2600           04657                           TC       NVSBWAIT
000566: 11,2601           37756                           CAF      BIT6                                  #  ENABLE ERROR COUNTER.
000567: 11,2602           00006                           EXTEND
000568: 11,2603           05012                           WOR      12
000569: 11,2604           37762                           CAF      TWO
000570: 11,2605           00004                           INHINT
000571: 11,2606           05663                           TC       WAITLIST                              #  PUT OUT COMMANDS IN .32 SECONDS.
000572: 11,2607  E7,1444                                  EBANK=   RSTKLOC
000573: 11,2607           02612 22067                     2CADR    ATTCK2
000574:
000575: 11,2611           12055                           TCF      TERMEXTV                              #  FREES DISPLAY
000576:
000577: 11,2612           37762        ATTCK2             CAF      TWO                                   #  PUT OUT ALL COMMANDS - CDU WILL DO LIMIT
000578: 11,2613           54002                           TS       Q                                     #  INCASE OF EXCESS DATA.
000579: 11,2614           50000                           INDEX    A
000580: 11,2615           30400                           CA       THETAD
000581: 11,2616           00006                           EXTEND
000582: 11,2617           77747                           MP       BIT13                                 #  SHIFT RIGHT 2.
000583: 11,2620           67770                           AD       NEG0                                  #  PREVENT +0 IN OUTPUT COUNTER
000584: 11,2621           50002                           INDEX    Q
000585: 11,2622           54050                           TS       CDUXCMD
000586: 11,2623           10002                           CCS      Q
000587: 11,2624           12613                           TCF      ATTCK2     +1
000588:
000589: 11,2625           32633                           CAF      OCT70K
000590: 11,2626           00006                           EXTEND
000591: 11,2627           05014                           WOR      14
000592: 11,2630           15727                           TCF      TASKOVER
000593:
000594: 11,2631           00050        OCT50K             OCT      50
000595: 11,2632           04300        V43K               OCT      4300
000596: 11,2633           70000        OCT70K             OCT      70000
000597:


000599:                                                                                                  #  PROGRAM TO SCAN CHANNELS 30 - 32 FOR CHANGES IN SELECTED INBITS. CALLED BY SPECIAL VERB.
000600:
000601: 11,2634  E7,1562                                  EBANK=   MSGCNT
000602:
000603: 11,2634           37763        SETUPMSG           CAF      BIT1                                  #  BEGIN SCAN.
000604: 11,2635           00004                           INHINT
000605: 11,2636           05663                           TC       WAITLIST
000606: 11,2637  E7,1444                                  EBANK=   RSTKLOC
000607: 11,2637           02644 22067                     2CADR    MSGSCAN    +2
000608:
000609: 11,2641           05567                           TC       ENDOFJOB
000610:
000611: 11,2642           05701        MSGSCAN            TC       FIXDELAY
000612: 11,2643           00062                           DEC      50         B-14
000613:
000614: 11,2644           37762                           CAF      TWO                                   #  SCAN ALL 3 CHANNELS FOR CHANGES.
000615: 11,2645           55562                           TS       MSGCNT
000616: 11,2646           50000                           INDEX    A
000617: 11,2647           31557                           CA       LAST30                                #  OLD VALUE OF INBITS.
000618: 11,2650           00006                           EXTEND
000619: 11,2651           51562                           INDEX    MSGCNT
000620: 11,2652           06030                           RXOR     30
000621: 11,2653           51562                           INDEX    MSGCNT
000622: 11,2654           72703                           MASK     30MSGMSK
000623: 11,2655           00006                           EXTEND
000624: 11,2656           12700                           BZF      NOMSG
000625:
000626: 11,2657           54002                           TS       Q                                     #  SAVE DIFFERENCE.
000627: 11,2660           51562                           INDEX    MSGCNT
000628: 11,2661           23557                           LXCH     LAST30                                #  UPDATE OLD VALUE.
000629: 11,2662           00006                           EXTEND
000630: 11,2663           06001                           RXOR     L
000631: 11,2664           51562                           INDEX    MSGCNT
000632: 11,2665           55557                           TS       LAST30
000633:
000634: 11,2666           40000                           COM
000635: 11,2667           56002                           XCH      Q
000636: 11,2670           70002                           MASK     Q                                     #  SEE IF ANY OF CHANGED BITS JUST ON.
000637: 11,2671           00006                           EXTEND
000638: 11,2672           12700                           BZF      NOMSG                                 #  NO MESSAGE IF SO.
000639:
000640:                                                                                                  #  NO ROTATIONAL HAND CONTROLLER IN 206.
000641:
000642: 11,2673           32706        NOTRHC             CAF      OKT30
000643: 11,2674           61562                           AD       MSGCNT
000644: 11,2675           54071                           TS       RUPTREG2
000645:
000646: 11,2676           40002                           CS       Q
000647: 11,2677           02724                           TC       VMESSAGE
000648:


000650: 11,2700           11562        NOMSG              CCS      MSGCNT
000651: 11,2701           12645                           TCF      MSGSCAN    +3
000652: 11,2702           12642                           TCF      MSGSCAN
000653:
000654: 11,2703           00017        30MSGMSK           OCT      17
000655: 11,2704           77777                           OCT      77777
000656: 11,2705           03777                           OCT      3777
000657:
000658: 11,2706           00030        OKT30              OCT      30
000659: 11,2707           02717        DESCBITS           TC       MESSAGE                               #  DESCENT BITS COME HERE IN A.
000660: 11,2710           00016                           OCT      16
000661: 11,2711           05733                           TC       RESUME
000662:
000663: 11,2712           04644        RHCMON             TC       GRABWAIT                              #  FIRE UP DSKY MONITOR.
000664: 11,2713           32716                           CAF      RHCMONVN
000665: 11,2714           04657                           TC       NVSBWAIT
000666: 11,2715           05566                           TC       EJFREE
000667:
000668: 11,2716           01645        RHCMONVN           OCT      1645
000669:


000671:                                                                                                  #  MESSAGE DISPLAY - 3 COMPONENT OCTAL.
000672:
000673: 11,2717           54071        MESSAGE            TS       RUPTREG2                              #  NEW CHANNEL CONTENTS ARRIVE IN A.
000674: 11,2720           50002                           INDEX    Q                                     #  CHANNEL NUMBER IN OCTAL AT CALLER +1.
000675: 11,2721           30000                           CAF      0
000676: 11,2722           24002                           INCR     Q
000677: 11,2723           56071                           XCH      RUPTREG2
000678:
000679: 11,2724           54070        VMESSAGE           TS       RUPTREG1                              #  FOR VARIABLE CHANNEL.
000680: 11,2725           00006                           EXTEND
000681: 11,2726           22072                           QXCH     RUPTREG3
000682: 11,2727           35651                           CAF      PRIO27                                #  FIRE UP SPECIAL JOB.
000683: 11,2730           05505                           TC       NOVAC
000684: 11,2731  E7,1444                                  EBANK=   RSTKLOC
000685: 11,2731           02742 22067                     2CADR    DOMSG
000686:
000687: 11,2733           52071                           DXCH     RUPTREG1                              #  NEW CONTENTS TO MPAC - CHANNEL NUMBER TO
000688: 11,2734           50064                           INDEX    LOCCTR                                #  MPAC +1.
000689: 11,2735           52145                           DXCH     MPAC
000690: 11,2736           30025                           CA       TIME1
000691: 11,2737           50064                           INDEX    LOCCTR
000692: 11,2740           54146                           TS       MPAC       +2
000693: 11,2741           00072                           TC       RUPTREG3
000694:
000695: 11,2742           04644        DOMSG              TC       GRABWAIT
000696: 11,2743           00006                           EXTEND
000697: 11,2744           30145                           DCA      MPAC
000698: 11,2745           52340                           DXCH     DSPTEM1
000699: 11,2746           30146                           CA       MPAC       +2
000700: 11,2747           54341                           TS       DSPTEM1    +2
000701: 11,2750           32757                           CAF      MSGVN
000702: 11,2751           04444                           TC       NVSUB
000703: 11,2752           12754                           TCF      MSGBUSY
000704: 11,2753           05566                           TC       EJFREE
000705:
000706: 11,2754           32756        MSGBUSY            CAF      +2
000707: 11,2755           04654                           TC       NVSUBUSY
000708: 11,2756           22743                           CADR     DOMSG      +1
000709:
000710: 11,2757           00535        MSGVN              OCT      0535
000711:


000713:                                                                                                  #  ROUTINE FOR AURORA ONLY TO ASK OPERATOR IF RR LOCK ON REQUESTED.
000714:
000715: 11,2760           05235        AURLOKON           TC       MAKECADR
000716: 11,2761           54426                           TS       DESRET
000717: 11,2762           32527                           CAF      RV33                                  #  ASSUMES DSKY GRABBED
000718: 11,2763           04657                           TC       NVSBWAIT
000719: 11,2764           04622                           TC       FLASHON
000720: 11,2765           04475                           TC       ENDIDLE
000721: 11,2766           12771                           TCF      +3                                    #  ON TERM.
000722: 11,2767           37757                           CAF      LOKONFLG
000723: 11,2770           12772                           TCF      +2
000724: 11,2771           37767                           CAF      ZERO
000725: 11,2772           00004                           INHINT
000726: 11,2773           56074                           XCH      STATE
000727: 11,2774           73006                           MASK     -LOKONFG
000728: 11,2775           26074                           ADS      STATE
000729:
000730: 11,2776           77757                           MASK     LOKONFLG                              #  IF NO LOCK-ON CALLED FOR, SET BIT15 OF
000731: 11,2777           10000                           CCS      A                                     #  RADMODES TO INDICATE THAT ARBITRARILY.
000732: 11,3000           13003                           TCF      +3                                    #  LONG DESIGNATION IS WANTED (TO B
000733:
000734: 11,3001           37745                           CAF      BIT15                                 #  TERMINATED BY FRESH START).
000735: 11,3002           26412                           ADS      RADMODES
000736: 11,3003           00003                           RELINT
000737: 11,3004           30426                           CA       DESRET
000738: 11,3005           15230                           TCF      BANKJUMP
000739:
000740: 11,3006           77757        -LOKONFG           OCT      -20
000741:


000743:                                                                                                  #  PROGRAM TO RUN DISPLAY INERTIAL DATA TEST.
000744:
000745: 11,3007           33077        DISINDT            CAF      FLVELVN                               #  ASK FOR FORWARD, LATERAL VELOCITY.
000746: 11,3010           04657                           TC       NVSBWAIT
000747: 11,3011           04475                           TC       ENDIDLE
000748: 11,3012           13034                           TCF      ENDDISIN
000749: 11,3013           13014                           TCF      +1
000750: 11,3014           33100                           CAF      ALT,R,VN                              #  ASK FOR INITIAL AND FINAL ALTITUDES AND
000751: 11,3015           04657                           TC       NVSBWAIT                              #  ALTITUDE RAITE.
000752: 11,3016           04475                           TC       ENDIDLE
000753: 11,3017           13034                           TCF      ENDDISIN
000754: 11,3020           13021                           TCF      +1
000755:
000756: 11,3021           00004                           INHINT
000757: 11,3022           47763                           CS       ONE
000758: 11,3023           54350                           TS       DIDFLG
000759:
000760: 11,3024           00006                           EXTEND
000761: 11,3025           30352                           DCA      ALT                                   #  SO FOLLOWING MONITOR WORKS.
000762: 11,3026           52364                           DXCH     ALTSAVE
000763:
000764: 11,3027           37763                           CAF      ONE
000765: 11,3030           05663                           TC       WAITLIST
000766: 11,3031  E7,1444                                  EBANK=   RSTKLOC
000767: 11,3031           03042 22067                     2CADR    DISINLUP   +2
000768:
000769: 11,3033           15566                           TCF      EJFREE
000770:
000771: 11,3034           04724        ENDDISIN           TC       FREEDSP
000772: 11,3035           04117                 +1        TC       NEWMODEX
000773: 11,3036           00000                           OCT      0
000774:
000775: 11,3037           05567                           TC       ENDOFJOB
000776:


000778:                                                                                                  #  WATCH ALTSAVE FOR END OF PROBLEM.
000779:
000780: 11,3040           05701        DISINLUP           TC       FIXDELAY
000781: 11,3041           00062                           DEC      50         B-14
000782:
000783: 11,3042           00006                 +2        EXTEND
000784: 11,3043           30355                           DCA      FINALT
000785: 11,3044           52062                           DXCH     ITEMP1
000786: 11,3045           00006                           EXTEND
000787: 11,3046           40364                           DCS      ALTSAVE                               #  LATEST ALTITUDE.
000788: 11,3047           20062                           DAS      ITEMP1
000789:
000790: 11,3050           10061                           CCS      ITEMP1
000791: 11,3051           13071                           TCF      +DIF
000792: 11,3052           13054                           TCF      +2
000793: 11,3053           13075                           TCF      -DIF
000794:
000795: 11,3054           10062                           CCS      ITEMP2
000796: 11,3055           13071                           TCF      +DIF
000797: 11,3056           13060                           TCF      +2
000798: 11,3057           13075                           TCF      -DIF
000799:
000800: 11,3060           37767        DISINDUN           CAF      ZERO
000801: 11,3061           54353                           TS       ALTRATE
000802: 11,3062           52355                           DXCH     FINALT
000803: 11,3063           52352                           DXCH     ALT
000804: 11,3064           37746                           CAF      PRIO20
000805: 11,3065           05505                           TC       NOVAC
000806: 11,3066  E7,1444                                  EBANK=   RSTKLOC
000807: 11,3066           03035 22067                     2CADR    ENDDISIN   +1
000808:
000809: 11,3070           15727                           TCF      TASKOVER
000810:
000811: 11,3071           30353        +DIF               CA       ALTRATE
000812: 11,3072           00006                           EXTEND
000813: 11,3073           63060                           BZMF     DISINDUN
000814: 11,3074           13040                           TCF      DISINLUP
000815:
000816: 11,3075           40353        -DIF               CS       ALTRATE
000817: 11,3076           13072                           TCF      +DIF       +1
000818:
000819: 11,3077           02444        FLVELVN            OCT      2444
000820: 11,3100           02564        ALT,R,VN           OCT      2564
000821:
000822: 11,3101           00004        MINIMP             INHINT
000823: 11,3102           47752                           CS       BIT10                                 #  BIT 10 OF DAPBOOLS INDICATES MINIMP MODE
000824: 11,3103           70077                           MASK     DAPBOOLS
000825: 11,3104           67752                           AD       BIT10
000826: 11,3105           54077                           TS       DAPBOOLS                              #  BIT 10 OF DAPBOOLS NOW PRESENT.
000827: 11,3106           15567                           TCF      ENDOFJOB
000828:


000830: 11,3107           00004        NOMINIMP           INHINT
000831: 11,3110           47752                           CS       BIT10
000832: 11,3111           70077                           MASK     DAPBOOLS
000833: 11,3112           54077                           TS       DAPBOOLS                              #  A ZERO IN POSITION 10 OF DAPBOOLS NOW.
000834:
000835: 11,3113           00006                           EXTEND
000836: 11,3114           30033                           DCA      CDUX
000837: 11,3115           52767                           DXCH     CDUXD
000838: 11,3116           30034                           CA       CDUZ
000839: 11,3117           54770                           TS       CDUZD
000840: 11,3120           15567                           TCF      ENDOFJOB
000841:


000843:                                                                                                  #  VB 60 PREPARE FOR STANDBY OPERATION
000844:
000845:                                                                                                  #  ROUTINE WRITTEN FOR TEST ROPES ONLY*** MUST BE UPDATED TO INCLUDE
000846:                                                                                                  #                                  FLIGHT REQUIREMENTS FOR FLIGHT OPERATION
000847:
000848: 11,3121  E3,1400                                  EBANK=   LST1
000849:
000850: 11,3121           35352        PRESTAND           CAF      EBANK3                                #  COMES HERE FROM LST2FAN
000851: 11,3122           56003                           XCH      EBANK                                 #  SET UP EBANK FOR BANK 3
000852: 11,3123           00004                           INHINT
000853: 11,3124           30025                           CA       TIME1
000854: 11,3125           55506                           TS       TIMESAV                               #  THIS ROUTNE WILL LOOK AT TIME1 UNTIL
000855: 11,3126           32706                           CAF      OKT30                                 #   TIME1 IS INCREMENTED, THEN IT WILL
000856: 11,3127           55512        LONGER             TS       TIMAR                                 #  SNATCH THE MISSION TIME REGS AND STORE
000857: 11,3130           41506                           CS       TIMESAV                               #  THEM IN TIMESAV FOR LATER USE IN ARITH.
000858: 11,3131           60025                           AD       TIME1                                 #  OPERATIONS WHICH SHOULD FIND THE
000859: 11,3132           00006                           EXTEND                                         #  STANDING DIFFERENCE BETWEEN THE SCALAR
000860: 11,3133           13140                           BZF      CHKTIME                               #  AND THE TIME1-TIME2S REGS.
000861:
000862: 11,3134           00006                           EXTEND
000863: 11,3135           30025                           DCA      TIME2                                 #  READ AND STORE THE DP TIME AND TO
000864: 11,3136           53507                           DXCH     TIMESAV                               #  READ THE SCALAR USING THE EXISTING PROG
000865: 11,3137           13146                           TCF      CATCHFIN                              #  FINETIME.
000866:
000867: 11,3140           11512        CHKTIME            CCS      TIMAR                                 #  MUST WATCH THE TIME SPENT IN INHINT OR
000868: 11,3141           03127                           TC       LONGER                                #  THE COPS MIGHT CATCH US.
000869: 11,3142           00003                           RELINT
000870: 11,3143           10067                           CCS      NEWJOB
000871: 11,3144           05532                           TC       CHANG1
000872: 11,3145           03126                           TC       LONGER     -1                         #  GO BACK AND LOOK AGAIN
000873:
000874: 11,3146           05026        CATCHFIN           TC       FINETIME                              #  WILL READ CHANNELS 3 AND 4 AND RETURN
000875: 11,3147           53511                           DXCH     SCALSAV                               #  WITH 3 IN A AND 4 IN L..
000876: 11,3150           00003                           RELINT
000877: 11,3151           47760                           CS       BIT4
000878: 11,3152           70365                           MASK     IMODES30                              #  INHIBIT THE IMU FAIL LIGHT.
000879: 11,3153           67760                           AD       BIT4
000880: 11,3154           54365                           TS       IMODES30
000881:
000882: 11,3155           37760                           CAF      BIT4                                  #  SET ALL CHAN 12 BITS EXCEPT C/A TO ZERO.
000883: 11,3156           00006                           EXTEND                                         #  THIS IS NECESSARY SO THAT THE GIMBALS DO
000884: 11,3157           03012                           WAND     12                                    #  NOT DRIFT INTO GIMBALLOCK IF THE SYSTEM
000885:
000886: 11,3160           37760                           CAF      BIT4                                  #  SHOULD BE IN OPERATE AT THE TIME STBY
000887: 11,3161           00006                           EXTEND                                         #  WAS STARTED.  THIS SECTION WILL MAKE
000888: 11,3162           05012                           WOR      12                                    #  SURE THE IMU IS IN C/A.....
000889:
000890: 11,3163           37751                           CAF      BIT11                                 #  WHEN BIT 11 IS PRESENT IN CHANNEL 13 THE
000891: 11,3164           00006                           EXTEND                                         #  DSKY PB. CAN THEN ENERGIZE THE STANDBY
000892: 11,3165           05013                           WOR      13                                    #  RELAY IN THE CGC PWR SUPPLIES....


000894: 11,3166           05567                           TC       ENDOFJOB                              #  GO TO DUMMY JOB UNTIL YOU DIE...
000895:


000897:                                                                                                  #  VB 61 RECOVER FROM STANDBY OPERATION
000898:
000899:                                                                                                  #  ROUTINE WRITTEN FOR TEST ROPES ONLY**** MUST BE UPDATED TO INCLUDE
000900:                                                                                                  #                  FLIGHT REQUIREMENTS FOR FLIGHT OPERATIONS SEQUENCES....
000901:
000902: 11,3167           35352        POSTAND            CAF      EBANK3                                #  COMES HERE FROM LST2FAN
000903: 11,3170           56003                           XCH      EBANK                                 #  SET UP EBANK FOR BANK 3
000904: 11,3171           05026                           TC       FINETIME
000905: 11,3172           53513                           DXCH     TIMAR                                 #  READ THE SCALAR AND SEE IF IT OVEFLO-
000906: 11,3173           00003                           RELINT                                         #  ED WHILE THE CGC WAS IN STBY, IF SO
000907: 11,3174           31512                           CAE      TIMAR                                 #  THE OVEFLOW MUST BE ADDED OR IT WILL
000908: 11,3175           00006                           EXTEND                                         #  SEEM THAT THE REALATIVITY THEOR WORKS
000909: 11,3176           61510                           SU       SCALSAV                               #  BETTER THAN IT SHOUD...
000910: 11,3177           00006                           EXTEND
000911: 11,3200           63223                           BZMF     ADDTIME                               #  IF ITS NEG. IT MUST HAVE OV:FLWD..
000912:
000913: 11,3201           06112                           TC       INTPRET
000914: 11,3202           45345                           DLOAD    DSU                                   #  IF IT DID NOT OV-FLW. FIND OUT HOW LONG
000915: 11,3203           01513                                    TIMAR                                 #  THE CGC WAS IN STBY BY SUBTRACTING THE
000916: 11,3204           01511                                    SCALSAV                               #  SCALAR AT THE START OF STBY FROM THE
000917: 11,3205           47061                           SRR      RTB                                   #  SCALAR AT THE END OF STBY AND THEN ADD
000918: 11,3206           21606                                    5                                     #  THE DIFFERENCE TO THE TIME EXISTING
000919: 11,3207           33520                                    SGNAGREE                              #  WHEN THE SCALAR WAS READ AT STBY ENTRY**
000920: 11,3210           77615                           DAD
000921: 11,3211           01507                                    TIMESAV
000922: 11,3212           01513                           STORE    TIMAR
000923: 11,3213           77776                           EXIT
000924:
000925: 11,3214           00006        CORCTTIM           EXTEND
000926: 11,3215           31513                           DCA      TIMAR                                 #  THIS IS THE CORRECTED TIME TO BE READ
000927: 11,3216           52025                           DXCH     TIME2                                 #  INTO TIME1 AND TIME2 REGS. ADDR 24-25
000928:
000929: 11,3217           47751                           CS       BIT11
000930: 11,3220           00006                           EXTEND                                         #  DISABLE THE DSKY STBY PUSHBUTTON.
000931: 11,3221           03013                           WAND     13
000932: 11,3222           05567                           TC       ENDOFJOB
000933:
000934: 11,3223           00006        ADDTIME            EXTEND
000935: 11,3224           37743                           DCA      DPOSMAX                               #  IF THE SCALAR OVEFLOWED, FIND OUT HOW
000936: 11,3225           53515                           DXCH     TIMEDIFF                              #  MUCH TIME REMAINED WHEN READ THE FIRST
000937: 11,3226           06112                           TC       INTPRET                               #  TIME AND THEN ADD THE PRESENT READING-
000938: 11,3227           45345                           DLOAD    DSU                                   #  WHICH WILL BE THE TOTAL TIME SPENT IN
000939: 11,3230           01515                                    TIMEDIFF                              #  STANDBY, TO WHICH THE TIME AT STBY
000940: 11,3231           01511                                    SCALSAV                               #  MAY BE ADDED TO FIND THE PRESENT TIME
000941: 11,3232           54215                           DAD      SRR                                   #  CORRECT TO 10 MSEC..
000942: 11,3233           01513                                    TIMAR                                 #  **** THE TIME IN STANDBY MODE MUST NOT
000943: 11,3234           21606                                    5                                     #  EXCEED 23 HOURS IF TIME IS TO BE
000944: 11,3235           77615                           DAD                                            #  CORRECTLY COMPUTED BY THIS ROUTIEN.*****
000945: 11,3236           01507                                    TIMESAV
000946: 11,3237           01513                           STORE    TIMAR


000948: 11,3240           77776                           EXIT
000949: 11,3241           03214                           TC       CORCTTIM
000950:

End of include-file EXTENDED_VERBS.agc.  Parent file is MAIN.agc


