
Source Code


000002:                                                                                                  ## Copyright:   Public domain.
000003:                                                                                                  ## Filename:    EXTENDED_VERBS.agc
000004:                                                                                                  ## Purpose:     A module for revision 0 of BURST120 (Sunburst).
000005:                                                                                                  ##              It is part of the source code for the Lunar Module's (LM)
000006:                                                                                                  ##              Apollo Guidance Computer (AGC) for Apollo 5.
000007:                                                                                                  ## Assembler:   yaYUL
000008:                                                                                                  ## Contact:     Ron Burkey <info@sandroid.org>.
000009:                                                                                                  ## Website:     www.ibiblio.org/apollo/index.html
000010:                                                                                                  ## Mod history: 2016-09-30 RSB  Created draft version.
000011:                                                                                                  ##              2016-10-06 RSB  Completed transcription.
000012:                                                                                                  ##              2016-10-30 MAS  Corrected DESKBITS->DESCBITS.
000013:                                                                                                  ##              2016-10-31 RSB  Typos.
000014:                                                                                                  ##              2016-11-01 RSB  More typos.
000015:                                                                                                  ##              2016-11-02 RSB  More typos.
000016:                                                                                                  ##              2016-12-04 RSB  Proofed with octopus/ProoferComments and fixed various
000017:                                                                                                  ##                              comments, but the proofing process is not completed.
000018:                                                                                                  ##              2016-12-05 RSB  Comment-proofing pass with octopus/ProoferComments completed;
000019:                                                                                                  ##                              changes made.
000020:


000022: 11,2000                                           BANK     11
000023: 11,2000  E5,1500                                  EBANK=   OGC
000024:
000025:                                                                                                  #  FAN-OUT
000026:


000028:                                                                                                  #  NOTE OF SPECIAL IMPORT CONCERNING RADAR **
000029:
000030:                                                                                                  #           SINCE 206 HAS NO RADARS, THE INTERRUPT LEAD IN AND T4RUPT SERVICE ROUTINES HAVE BEEN DISCONNECTED IN
000031:                                                                                                  #  SUNBURST (REV 39).  THEREFORE, THE FOLLOWING VERBS SHOULD NOT BE USED:  40 WITH NOUN 40, 41 WITH NOUN 40, 45,
000032:                                                                                                  #  46, AND SEQUENCES 13 AND 14 OF VERB 57.
000033:
000034: 11,2000           02070        LST2FAN            TC       VBZERO                                #  VB40 ZERO (USED WITH NOUN 20 OR 40 ONLY)
000035: 11,2001           02073                           TC       VBCOARK                               #  VB41 COARSE ALIGN (USED WITH NOUN 20 OR
000036:                                                                                                  #                                  40 ONLY)
000037: 11,2002           02204                           TC       IMUFINEK                              #  VB42 FINE ALIGN IMU
000038: 11,2003           02565                           TC       IMUATTCK                              #  VB43  LOAD IMU ATTITUDE ERROR METERS.
000039: 11,2004           02066                           TC       ALM/END                               #  VB44 SPARE
000040: 11,2005           12126                           TCF      LRPOS2K                               #  VB45 COMMAND LR TO POSITION 2.
000041: 11,2006           02414                           TC       REGRSAMP                              #  VB46 SAMPLE RADAR ONCE PER SECOND
000042: 11,2007           02406                           TC       DOFCSTST                              #  VB47 PERFORM LEM FCS TEST
000043: 11,2010           02261                           TC       GOLOADLV                              #  VB50 PLEASE PERFORM
000044: 11,2011           02261                           TC       GOLOADLV                              #  VB51 PLEASE MARK
000045: 11,2012           02261                           TC       GOLOADLV                              #  VB52 PLEASE MARK Y
000046: 11,2013           02261                           TC       GOLOADLV                              #  VB53 PLEASE MARK X OR Y.
000047: 11,2014           02265                           TC       TORQGYRS                              #  VB54 PULSE TORQUE GYROS
000048: 11,2015           02302                           TC       ALINTIME                              #  VB55 ALIGN TIME
000049: 11,2016           02404                           TC       GOSHOSUM                              #  VB56 PERFORM BANKSUM
000050: 11,2017           02326                           TC       SYSTEST                               #  VB57 PERFORM SYSTEM TEST
000051: 11,2020           03121                           TC       PRESTAND                              #  VB60 PREPARE FOR STANDBY
000052: 11,2021           03167                           TC       POSTAND                               #  VB61 RECOVER FROM STANDBY
000053: 11,2022           02634                           TC       SETUPMSG                              #  VB62 SCAM LEM INBITS
000054: 11,2023           12530                           TCF      BEGINCDU                              #  VB63 SEND SPECIAL CDU DOWNLIST
000055: 11,2024           13266                           TCF      64UPDAT                               #  VB64 SET TIMER TO GROUND ELAPSED TIME
000056: 11,2025           13242                           TCF      65UPDAT                               #  VB65 SET GUIDANCE REFERENCE RELEASE DISC
000057: 11,2026           13246                           TCF      66UPDAT                               #  VB66 INITIATE LGC DFI TLM CALIBRATE RTN
000058: 11,2027           13254                           TCF      67UPDAT                               #  VB67 SEND COMMAND TO LMP
000059: 11,2030           13260                           TCF      70UPDAT                               #  VB70 SET MISSION TIMER
000060: 11,2031           13262                           TCF      71UPDAT                               #  VB71 SET MISSION PHASE REGISTER
000061: 11,2032           13270                           TCF      72UPDAT                               #  VB72 SET MISSION PHASE REGISTER + TIMER
000062: 11,2033           13252                           TCF      73UPDAT                               #  VB73 RESET DPS OR RPS COLD SOAK DISC
000063: 11,2034           13244                           TCF      74UPDAT                               #  VB74 STOP MISSION TIMERS
000064: 11,2035           13301                           TCF      75UPDAT                               #  VB75 TARGET PARAMETER UPDATE
000065: 11,2036           13274                           TCF      76UPDAT                               #  VB76 STATE VECTOR UPDATE
000066: 11,2037           02066                           TC       ALM/END
000067:
000068: 11,2040           37761        TESTXACT           CAF      BIT3
000069: 11,2041           70336                           MASK     EXTVBACT
000070: 11,2042           10000                           CCS      A
000071: 11,2043           02053                           TC       XACTALM
000072:


000074: 11,2044           47761        XACT1              CS       BIT3
000075: 11,2045           00004                           INHINT
000076: 11,2046           70336                           MASK     EXTVBACT
000077: 11,2047           67761                           AD       BIT3
000078: 11,2050           54336                           TS       EXTVBACT
000079: 11,2051           00003                           RELINT
000080: 11,2052           00002                           TC       Q
000081:
000082: 11,2053           04571        XACTALM            TC       FALTON
000083: 11,2054           05567                           TC       ENDOFJOB
000084:
000085: 11,2055           04724        TERMEXTV           TC       FREEDSP                               #  IF WE GET A TERMINATE INSTEAD OF A LOAD.
000086:
000087: 11,2056           02060        ENDEXTVB           TC       XACT0
000088: 11,2057           05567                           TC       ENDOFJOB
000089:
000090: 11,2060           47761        XACT0              CS       BIT3
000091: 11,2061           00004                           INHINT
000092: 11,2062           70336                           MASK     EXTVBACT
000093: 11,2063           54336                           TS       EXTVBACT
000094: 11,2064           00003                           RELINT
000095: 11,2065           00002        XACT0Q             TC       Q
000096:
000097: 11,2066           04571        ALM/END            TC       FALTON
000098: 11,2067           02056                           TC       ENDEXTVB
000099:
000100:
000101: 11,2070           02076        VBZERO             TC       OP/INERT
000102: 11,2071           02110                           TC       IMUZEROK                              #  RETURN HERE IF NOUN = ICDU(20)
000103: 11,2072           02117                           TC       RRZEROK                               #  RETURN HERE IF NOUN = RCDU(40)
000104:
000105: 11,2073           02076        VBCOARK            TC       OP/INERT
000106: 11,2074           02132                           TC       IMUCOARK                              #  RETURN HERE IF NOUN = ICDU (20)
000107: 11,2075           02234                           TC       RRDESNBK                              #  RETURN HERE IF NOUN = RCDU (40)
000108:
000109:                                                                                                  #  RETURNS TO L+1 IF IMU OR L+2 IF RR.
000110:
000111: 11,2076           47757        OP/INERT           CS       BIT5                                  #  OCT20
000112: 11,2077           60273                           AD       NOUNREG
000113: 11,2100           00006                           EXTEND
000114: 11,2101           12065                           BZF      XACT0Q                                #  IF = 20.
000115:
000116: 11,2102           24002                           INCR     Q
000117: 11,2103           62107                           AD       RRIMUDIF                              #  = -20 OCT.
000118: 11,2104           00006                           EXTEND
000119: 11,2105           12065                           BZF      XACT0Q
000120:


000122: 11,2106           02066                           TC       ALM/END                               #  ILLEGAL.
000123:
000124: 11,2107           77757        RRIMUDIF           OCT      -20
000125:


000127:                                                                                                  #  KEYBOARD REQUEST TO ZERO IMU ENCODERS
000128:
000129: 11,2110           02040        IMUZEROK           TC       TESTXACT                              #  ZERO ENCODERS.
000130: 11,2111           05206                           TC       BANKCALL
000131: 11,2112           26000                           CADR     IMUZERO
000132:
000133: 11,2113           05206                           TC       BANKCALL                              #  STALL
000134: 11,2114           26751                           CADR     IMUSTALL
000135: 11,2115           02116                           TC       +1
000136:
000137: 11,2116           02056                           TC       ENDEXTVB
000138: 11,2117           02040        RRZEROK            TC       TESTXACT
000139: 11,2120           05206                           TC       BANKCALL                              #  ZERO RR CDUS.
000140: 11,2121           20250                           CADR     RRZERO
000141:
000142: 11,2122           05206        RWAITK             TC       BANKCALL
000143: 11,2123           26745                           CADR     RADSTALL
000144: 11,2124           12125                           TCF      +1
000145: 11,2125           12056                           TCF      ENDEXTVB
000146:
000147: 11,2126           02040        LRPOS2K            TC       TESTXACT                              #  COMMAND LR TO POSITION 2.
000148: 11,2127           05206                           TC       BANKCALL
000149: 11,2130           21162                           CADR     LRPOS2
000150: 11,2131           12122                           TCF      RWAITK
000151:


000153:                                                                                                  #  KEYBOARD REQUEST TO COARSE ALIGN THE IMU
000154:
000155: 11,2132           02040        IMUCOARK           TC       TESTXACT                              #  COARSE ALIGN FROM KEYBOARD.
000156: 11,2133           04644                           TC       GRABWAIT
000157: 11,2134           32152                           CAF      VNLODCDU                              #  CALL FOR THETAD LOAD
000158: 11,2135           04657                           TC       NVSBWAIT
000159: 11,2136           04475                           TC       ENDIDLE                               #  STALL WAITING FOR THE LOAD
000160: 11,2137           02055                           TC       TERMEXTV
000161: 11,2140           02154                           TC       ICSDEL                                #  PROCEED - ASK FOR INCREMENTAL LOAD.
000162:
000163: 11,2141           32153        ICORK2             CAF      IMUCOARV                              #  RE-DISPLAY COARSE ALIGN VERB.
000164: 11,2142           04657                           TC       NVSBWAIT
000165: 11,2143           04724                           TC       FREEDSP                               #  RELEASE THE DISPLAYS
000166:
000167: 11,2144           05206                           TC       BANKCALL                              #  CALL MODE SWITCHING PROG
000168: 11,2145           26065                           CADR     IMUCOARS
000169:
000170: 11,2146           05206                           TC       BANKCALL                              #  STALL
000171: 11,2147           26751                           CADR     IMUSTALL
000172: 11,2150           02056                           TC       ENDEXTVB
000173: 11,2151           02056                           TC       ENDEXTVB
000174:
000175: 11,2152           02522        VNLODCDU           OCT      02522
000176: 11,2153           04100        IMUCOARV           OCT      04100
000177:


000179:                                                                                                  #  PROVISION FOR COARSE ALIGN TO INCREMENTAL ANGLES.
000180:
000181: 11,2154           32202        ICSDEL             CAF      DELLOAD
000182: 11,2155           04657                           TC       NVSBWAIT                              #  REQUEST LOAD OF DELTA ICDU ANGLES.
000183: 11,2156           04475                           TC       ENDIDLE
000184: 11,2157           02055                           TC       TERMEXTV
000185: 11,2160           02141                           TC       ICORK2                                #  PROCEED WITHOUT DATA HERE TOO.
000186: 11,2161           02163                           TC       INCLOOP                               #  LOOP TO INCREMENT THETAD FROM DSPTEM2.
000187: 11,2162           02141                           TC       ICORK2                                #  RE-DISPLAY COARSE ALIGN VERB.
000188:
000189: 11,2163           56002        INCLOOP            XCH      Q                                     #  INCREMENTS THETADS IN 2S COMPLEMENT FROM
000190: 11,2164           54144                           TS       MPAC                                  #   THREE ANGLE INCREMENTS IN DSPTEM2S.
000191: 11,2165           32203                           CAF      LTHD+2
000192: 11,2166           54120                           TS       BUF                                   #  SET UP FOR CDUINC.
000193: 11,2167           37762                           CAF      TWO                                   #  THREE TIMES THROUGH.
000194:
000195: 11,2170           54145        INCLOOP2           TS       MPAC       +1
000196: 11,2171           50000                           INDEX    A
000197: 11,2172           56342                           XCH      DSPTEM2                               #  INCREMENT TO TEM2 FOR CDUINC.
000198: 11,2173           05206                           TC       BANKCALL
000199: 11,2174           33602                           CADR     CDUINC
000200: 11,2175           10120                           CCS      BUF
000201: 11,2176           54120                           TS       BUF
000202: 11,2177           10145                           CCS      MPAC       +1
000203: 11,2200           02170                           TC       INCLOOP2
000204:
000205: 11,2201           00144                           TC       MPAC                                  #  RETURN WHEN FINISHED.
000206:
000207: 11,2202           02523        DELLOAD            OCT      02523
000208: 11,2203           00402        LTHD+2             ADRES    THETAD     +2
000209:


000211:                                                                                                  #  KEYBOARD REQUEST TO FINE ALIGN AND GYRO TORQUE IMU
000212:
000213: 11,2204           02040        IMUFINEK           TC       TESTXACT                              #  FINE ALIGN WITH GYRO TORQUING.
000214: 11,2205           04644                           TC       GRABWAIT
000215: 11,2206           32232                           CAF      VNLODGYR                              #  CALL FOR LOAD OF GYRO COMMANDS
000216: 11,2207           04657                           TC       NVSBWAIT
000217: 11,2210           04475                           TC       ENDIDLE                               #  HOLD UP FOR THE DATA LOAD
000218: 11,2211           02055                           TC       TERMEXTV
000219: 11,2212           02213                           TC       +1                                    #  PROCEED WITHOUT A LOAD
000220:
000221: 11,2213           32233                           CAF      IMUFINEV                              #  RE-DISPLAY OUR OWN VERB
000222: 11,2214           04657                           TC       NVSBWAIT
000223: 11,2215           04724                           TC       FREEDSP                               #  RELEASE DISPLAYS
000224:
000225: 11,2216           05206                           TC       BANKCALL                              #  CALL MODE SWITCH PROG
000226: 11,2217           26252                           CADR     IMUFINE
000227:
000228: 11,2220           05206                           TC       BANKCALL                              #  HIBERNATION
000229: 11,2221           26751                           CADR     IMUSTALL
000230: 11,2222           02056                           TC       ENDEXTVB
000231:
000232: 11,2223           32300        FINEK2             CAF      LGYROBIN                              #  PINBALL LEFT COMMANDS IN OGC REGIST5RS
000233: 11,2224           05206                           TC       BANKCALL
000234: 11,2225           26362                           CADR     IMUPULSE
000235:
000236: 11,2226           05206                           TC       BANKCALL                              #  WAIT FOR PULSES TO GET OUT.
000237: 11,2227           26751                           CADR     IMUSTALL
000238: 11,2230           02056                           TC       ENDEXTVB
000239: 11,2231           02056                           TC       ENDEXTVB
000240:
000241: 11,2232           02567        VNLODGYR           OCT      02567
000242: 11,2233           04200        IMUFINEV           OCT      04200                                 #  FINE ALIGN VERB
000243:


000245:                                                                                                  #  DESIGNATE TO DESIRED GIMBAL ANGLES.
000246:
000247: 11,2234           02040        RRDESNBK           TC       TESTXACT
000248: 11,2235           04644                           TC       GRABWAIT
000249: 11,2236           32255                           CAF      VNLDRCDU                              #  ASK FOR GIMBAL ANGLES.
000250: 11,2237           04657                           TC       NVSBWAIT
000251: 11,2240           04475                           TC       ENDIDLE                               #  WAIT FOR THE LOAD
000252: 11,2241           02055                           TC       TERMEXTV
000253: 11,2242           02243                           TC       +1                                    #  PROCEED
000254:
000255: 11,2243           05206                           TC       BANKCALL                              #  ASK OP FOR LOCK ON REQUIREMENTS.
000256: 11,2244           22760                           CADR     AURLOKON
000257:
000258: 11,2245           32153                           CAF      OPTCOARV                              #  RE-DISPLAY OUR OWN VERB
000259: 11,2246           04657                           TC       NVSBWAIT
000260: 11,2247           00004                           INHINT                                         #  FIRE UP JOB TO DO DESIGNATE.
000261: 11,2250           37746                           CAF      PRIO20
000262: 11,2251           05516                           TC       FINDVAC
000263: 11,2252  E5,1500                                  EBANK=   OGC
000264: 11,2252           02256 22065                     2CADR    RRDESK2
000265:
000266: 11,2254           12055                           TCF      TERMEXTV                              #  FREES DISPLAY.
000267:
000268: 11,2255           02441        VNLDRCDU           OCT      2441
000269: 11,2256  11,2153               OPTCOARV           EQUALS   IMUCOARV                              #  DIFFERENT NOUNS.
000270:
000271: 11,2256           05206        RRDESK2            TC       BANKCALL
000272: 11,2257           20364                           CADR     RRDESNB
000273:
000274: 11,2260           02122                           TC       RWAITK
000275:
000276:                                                                                                  #  PLEASE PERFORM VERB AND PLEASE MARK VERB ----- PRESSING ENTER INDICATES
000277:                                                                                                  #  ACTION REQUESTED HAS BEEN PERFORMED, AND DOES SAME RECALL AS A COMPLETED
000278:                                                                                                  #  LOAD.  OPERATOR SHOULD DO VB PROCEED WITHOUT DATA IF HE WISHES NOT TO
000279:                                                                                                  #  PERFORM THE REQUESTED ACTION.
000280:
000281: 11,2261           04626        GOLOADLV           TC       FLASHOFF
000282: 11,2262           02060                           TC       XACT0
000283: 11,2263           05225                           TC       POSTJUMP
000284: 11,2264           12002                           CADR     LOADLV1
000285:


000287:                                                                                                  #  KEYBOARD REQUEST TO PULSE TORQUE IRIGA
000288:
000289: 11,2265           02040        TORQGYRS           TC       TESTXACT                              #  GYRO TORQUING WITH NO MODE-SWITCH.
000290: 11,2266           04644                           TC       GRABWAIT
000291: 11,2267           32232                           CAF      VNLODGYR
000292: 11,2270           04657                           TC       NVSBWAIT
000293: 11,2271           04475                           TC       ENDIDLE
000294: 11,2272           02055                           TC       TERMEXTV
000295: 11,2273           02274                           TC       +1
000296: 11,2274           32301                           CAF      TORQGYRV                              #  RE-DISPLAY OUR OWN VERB
000297: 11,2275           04657                           TC       NVSBWAIT
000298: 11,2276           04724                           TC       FREEDSP
000299: 11,2277           12223                           TCF      FINEK2
000300:
000301: 11,2300           00403        LGYROBIN           ECADR    DELVX
000302: 11,2301           05400        TORQGYRV           OCT      05400
000303:


000305:                                                                                                  #  ALIGN TIME
000306:
000307: 11,2302           32325        ALINTIME           CAF      VNLODDT                               #  USES NVSUBMON. DOES NOT TEST DSPLOCK.
000308: 11,2303           54113                           TS       NVTEMP                                #  DOES NOT KILL MONITOR.
000309: 11,2304           04460                           TC       NVSUBMON
000310: 11,2305           05567                           TC       ENDOFJOB                              #  IN CASE OF ALARM IN LOAD REQUEST SET UP.
000311: 11,2306           04475                           TC       ENDIDLE
000312: 11,2307           05567                           TC       ENDOFJOB                              #  TERMINATE
000313: 11,2310           05567                           TC       ENDOFJOB                              #  PROCEED WITHOUT DATA
000314: 11,2311           00004                           INHINT                                         #  DELTA TIME IS IN DSPTEM1, +1.
000315: 11,2312           37767                           CAF      ZERO
000316: 11,2313           54146                           TS       MPAC       +2                         #  NEEDED FOR TP AGREE
000317: 11,2314           54001                           TS       L                                     #  ZERO T1 & T2 WHILE ALIGNING.
000318: 11,2315           52025                           DXCH     TIME2
000319: 11,2316           52145                           DXCH     MPAC
000320: 11,2317           52340                           DXCH     DSPTEM1                               #  INCREMENT.
000321: 11,2320           20145                           DAS      MPAC
000322:
000323: 11,2321           07327                           TC       TPAGREE                               #  FORCE SIGN AGREEMENT.
000324: 11,2322           52145                           DXCH     MPAC                                  #  NEW CLOCK.
000325: 11,2323           20025                           DAS      TIME2
000326: 11,2324           05567                           TC       ENDOFJOB
000327:
000328: 11,2325           02124        VNLODDT            OCT      02124                                 #  V/N FOR LOAD DELTA TIME
000329:


000331:                                                                                                  #  SELECT AND INITIATE DESIRED SYSTEM TEST PROGRAM.
000332:
000333: 11,2326  E5,1546                                  EBANK=   QPLACE
000334:
000335: 11,2326           10302        SYSTEST            CCS      MODREG                                #  DEMAND MODE 00.
000336: 11,2327           12053                           TCF      XACTALM
000337:
000338: 11,2330           04644                           TC       GRABWAIT
000339: 11,2331           32403        REDO               CAF      LQPL                                  #  ASK FOR TEST OPTION (1 - 7).
000340: 11,2332           54146                           TS       MPAC       +2
000341: 11,2333           32402                           CAF      TESTNV
000342: 11,2334           04657                           TC       NVSBWAIT
000343: 11,2335           04475                           TC       ENDIDLE
000344: 11,2336           05566                           TC       EJFREE
000345: 11,2337           02331                           TC       REDO
000346:
000347: 11,2340           04117                           TC       NEWMODEX
000348: 11,2341           00005                           OCT      5                                     #  DISPLAY MAJOR MODE 5 - SYSTEM TESTS
000349:
000350: 11,2342           00004                           INHINT
000351: 11,2343           37746                           CAF      PRIO20
000352: 11,2344           05516                           TC       FINDVAC
000353: 11,2345  E5,1500                                  EBANK=   OGC
000354: 11,2345           02350 22065                     2CADR    TSELECT
000355:
000356: 11,2347           05567                           TC       ENDOFJOB                              #  LEAVING DISPLAY GRABBED FOR SYSTEM TEST.
000357:
000358: 11,2350           45343        TSELECT            CS       LOW4                                  #    OCTAL 17 OPTIONS WITHOUT OPERATOR ERRO
000359: 11,2351           61546                           AD       QPLACE
000360: 11,2352           00006                           EXTEND
000361: 11,2353           62356                           BZMF     +3
000362: 11,2354           04571                           TC       FALTON
000363: 11,2355           02331                           TC       REDO
000364: 11,2356           51546                           INDEX    QPLACE
000365: 11,2357           32361                           CAF      TESTCADR
000366: 11,2360           05230                           TC       BANKJUMP
000367:
000368:                                                                                                  #  DON'T USE 13 OR 14 (SEE NOTE ON USER'S PAGE 1).
000369:
000370: 11,2361           22066        TESTCADR           CADR     ALM/END                               #  0  ILLEGAL
000371: 11,2362           50000                           CADR     IMUTEST                               #  1  GYRO DRIFT TEST
000372: 11,2363           50025                           CADR     IMUBACK                               #  2 REPEAT OF IMUTEST
000373: 11,2364           30000                           CADR     AOTNBIMU                              #  3  IMU ALIGNMENT TEST
000374: 11,2365           50252                           CADR     OPCHK                                 #  4  IMU CHECK
000375: 11,2366           50451                           CADR     GYRSFTST                              #  5  GYRO TORQUING TEST
000376: 11,2367           22066                           CADR     ALM/END                               #  6  AVAILABLE
000377: 11,2370           73351                           CADR     GTSCPSS                               #  7. GYROCOMPASS
000378: 11,2371           46556                           CADR     SAMODCHK                              #  10 SEMI-AUTOMATIC MODING CHECK
000379: 11,2372           31347                           CADR     SAUTOIFS                              #  11 SEMI-AUTOMATIC INTERFACE TEST
000380: 11,2373           31605                           CADR     AOTANGCK                              #  12 AOT ANGLE CHECK


000382: 11,2374           31143                           CADR     RDRINIT                               #  13 RENDEZVOUS RADAR / ANTENNAE TRACKING
000383: 11,2375           22410                           CADR     FSTRSAMP                              #  14 HIGH SPEED RADAR SAMPLING.
000384:
000385: 11,2376           31636                           CADR     ZEROERAS
000386: 11,2377           23007                           CADR     DISINDT                               #  DISPLAY INERTIAL DATA TEST.
000387: 11,2400           22066                           CADR     ALM/END
000388: 11,2401           22066                           CADR     ALM/END
000389: 11,2402           02101        TESTNV             OCT      2101
000390: 11,2403           02546        LQPL               ECADR    QPLACE
000391: 11,2404           05225        GOSHOSUM           TC       POSTJUMP                              #  START ROUTINE TO DISPLAY SUM OF EACH
000392: 11,2405           77543                           CADR     SHOWSUM                               #  BANK ON DSKY
000393:
000394: 11,2406           05225        DOFCSTST           TC       POSTJUMP
000395: 11,2407           14736                           CADR     FCSSTART
000396:


000398:                                                                                                  #  SET UP FOR RADAR SAMPLING.
000399:
000400: 11,2410  E7,1444                                  EBANK=   RSTKLOC
000401:
000402: 11,2410           32477        FSTRSAMP           CAF      RSTKLIST                              #  HIGH SPEED SAMPLING, SWITCH TO SPECIAL
000403: 11,2411           54411                           TS       DNLSTADR                              #  DOWNLIST.
000404: 11,2412           47763                           CS       ONE                                   #  WANTS TM BUFFERING.
000405: 11,2413           12416                           TCF      RSAMPTST
000406:
000407: 11,2414           04644        REGRSAMP           TC       GRABWAIT
000408: 11,2415           35205                           CAF      1SEC+1                                #  SHOWS NO TM BUFFERING.
000409:
000410: 11,2416           54146        RSAMPTST           TS       MPAC       +2
000411: 11,2417           00004                           INHINT
000412: 11,2420           42500                           CS       LRPOSCAL                              #  INITIALIZE SCALE AND LR POSITION BITS.
000413: 11,2421           70412                           MASK     RADMODES
000414: 11,2422           54412                           TS       RADMODES
000415:
000416: 11,2423           32500                           CAF      LRPOSCAL
000417: 11,2424           00006                           EXTEND
000418: 11,2425           02033                           RAND     33
000419: 11,2426           26412                           ADS      RADMODES
000420:
000421: 11,2427           00003                           RELINT
000422: 11,2430           32451                           CAF      LRTSTDEX
000423: 11,2431           54003                           TS       EBANK
000424: 11,2432           56146                           XCH      MPAC       +2
000425: 11,2433           55445                           TS       RSAMPDT                               #  HI SPEED NNZ - LO SPEED PNZ.
000426: 11,2434           37767                           CAF      ZERO
000427: 11,2435           55444                           TS       RTSTLOC
000428: 11,2436           55446                           TS       RFAILCNT                              #  ZERO BAD SAMPLE COUNTER.
000429: 11,2437           32475                           CAF      HISPMAX
000430: 11,2440           55442                           TS       RTSTMAX
000431:
000432: 11,2441           32476                           CAF      RTSTNV
000433: 11,2442           04657                           TC       NVSBWAIT
000434: 11,2443           04475                           TC       ENDIDLE
000435: 11,2444           05566                           TC       EJFREE                                #  ON TERMINATE.
000436: 11,2445           12501                           TCF      RSEMIAUT                              #  PROCEED MEANS SEMI-AUTO SEQUENCING.
000437: 11,2446           04724        RDRDFREE           TC       FREEDSP
000438: 11,2447           11445                           CCS      RSAMPDT                               #  SEE IF HI OR LO SPEED SAMPLING.
000439: 11,2450           12454                           TCF      +4
000440:
000441: 11,2451           03441        LRTSTDEX           ECADR    RTSTDEX
000442:
000443: 11,2452           05225                           TC       POSTJUMP                              #  EXEC. OTHERWISE, SET UP WAITLIST TIMING.
000444: 11,2453           21301                           CADR     DORSAMP
000445:
000446: 11,2454           36306                           CAF      SIX                                   #  FIND OUT WHICH RADAR WANTED.
000447: 11,2455           71441                           MASK     RTSTDEX
000448:


000450: 11,2456           10000                           CCS      A
000451: 11,2457           12463                           TCF      LRCYCLE                               #  LANDING RADAR ARE SERIALS 2 - 5.
000452:
000453: 11,2460           55443                           TS       RTSTBASE                              #  FOR RR BASE = 0, MAX = 1.
000454: 11,2461           36306                           CAF      SIX
000455: 11,2462           12466                           TCF      +4
000456:
000457: 11,2463           37762        LRCYCLE            CAF      TWO                                   #  FOR LR BASE = 2, MAX = 3.
000458: 11,2464           55443                           TS       RTSTBASE
000459: 11,2465           32474                           CAF      18R
000460:
000461: 11,2466           55442                 +4        TS       RTSTMAX
000462: 11,2467           00004                           INHINT
000463: 11,2470           05663                           TC       WAITLIST
000464: 11,2471  E7,1444                                  EBANK=   RSTKLOC
000465: 11,2471           03261 20067                     2CADR    RADSAMP
000466:
000467: 11,2473           05567                           TC       ENDOFJOB
000468:
000469: 11,2474           00022        18R                DEC      18         B-14
000470: 11,2475           00102        HISPMAX            DEC      66         B-14
000471: 11,2476           02101        RTSTNV             OCT      2101
000472: 11,2477           02236        RSTKLIST           GENADR   UPDNLIST
000473: 11,2500           00444        LRPOSCAL           OCT      444
000474:


000476:                                                                                                  #  SEMI-AUTO RADAR TESTING.
000477:
000478: 11,2501           00004        RSEMIAUT           INHINT
000479: 11,2502           35647                           CAF      PRIO25                                #  START HI SPEED SAMPLING.
000480: 11,2503           05505                           TC       NOVAC
000481: 11,2504  E7,1444                                  EBANK=   RSTKLOC
000482: 11,2504           03301 20067                     2CADR    DORSAMP
000483:
000484: 11,2506           00003                           RELINT
000485: 11,2507           37766                           CAF      FIVE                                  #  SEQUENCE THROUGH ALL SIX CHANNELS.
000486: 11,2510           55441                 -1        TS       RTSTDEX
000487:
000488: 11,2511           32527        33PASTE            CAF      RV33                                  #  ON ENTER, SWITCH TO NEXT CHANNEL.
000489: 11,2512           04657                           TC       NVSBWAIT
000490: 11,2513           04622                           TC       FLASHON
000491: 11,2514           04475                           TC       ENDIDLE
000492: 11,2515           02522                           TC       ENDRTST                               #  ON TERMINATE.
000493: 11,2516           12520                           TCF      +2
000494: 11,2517           12511                           TCF      33PASTE                               #  DONT ACCEPT DATA.
000495:
000496: 11,2520           11441                           CCS      RTSTDEX
000497: 11,2521           12510                           TCF      33PASTE    -1
000498:
000499: 11,2522           37767        ENDRTST            CAF      ZERO                                  #  ENDTEST.
000500: 11,2523           55445                           TS       RSAMPDT
000501: 11,2524           04117                           TC       NEWMODEX
000502: 11,2525           00000                           OCT      0
000503: 11,2526           05566                           TC       EJFREE
000504:
000505: 11,2527           03300        RV33               OCT      3300
000506:


000508:                                                                                                  #           JOB TO: 1) TURN OFF USE OF TRIM GIMBAL.  2) 5 SECONDS LATER, TURN OFF DAP, & SET UP SPECIAL DOWN-LINK
000509:                                                                                                  #  PROGRAM TO TRANSMIT A STEADY LIST OF CDUY & Z.  THE DOWN-LINK PROGRAM ALSO HAS THE DUTY OF TURNING THE DAP BACK
000510:                                                                                                  #  ON AND ENABLING USE OF THE TRIM GIMBAL AGAIN.
000511:
000512: 11,2530           00004        BEGINCDU           INHINT
000513: 11,2531           32564                           CA       FIVESECS                              #  TURN OFF DAP IN 5 SECS
000514: 11,2532           05663                           TC       WAITLIST
000515: 11,2533  E7,1407                                  EBANK=   DNTMBUFF
000516: 11,2533           02552 22067                     2CADR    DAPOFF
000517:
000518: 11,2535           31310                           CA       DVSELECT                              #  SAVE OLD CONTENTS OF DVSELECT.
000519: 11,2536           55346                           TS       OLDDVSEL
000520:
000521: 11,2537           04161                           TC       PHASCHNG
000522: 11,2540           40026                           OCT      40026                                 #  6.2 FOR DAPOFF TASK & TGOFF JOB.
000523:
000524: 11,2541           00004        TGOFF              INHINT
000525: 11,2542           40077                           CS       DAPBOOLS                              #  INHIBIT USE OF TRIM GIMBAL IMMEDIATELY.
000526: 11,2543           77762                           MASK     USEQRJTS
000527: 11,2544           26077                           ADS      DAPBOOLS
000528:
000529: 11,2545           32562                           CA       LPNGSMON                              #  PREVENT GIMBLMON FROM TURNING TRIM
000530: 11,2546           55310                           TS       DVSELECT                              #  GIMBAL BACK ON.
000531:
000532: 11,2547           04161                           TC       PHASCHNG
000533: 11,2550           00036                           OCT      00036                                 #  6.3 FOR DAPOFF TASK.
000534:
000535: 11,2551           15567                           TCF      ENDOFJOB
000536:
000537: 11,2552  E7,1407                                  EBANK=   DNTMBUFF
000538:
000539: 11,2552           32563        DAPOFF             CA       LDNCDUS                               #  SET DNTMGOTO TO INITIATE THE SENDING OF
000540: 11,2553           55401                           TS       DNTMGOTO                              #  CDUY & Z.
000541:
000542: 11,2554           47751                           CS       GODAPGO                               #  TURNING OFF GODAPGO TURNS OFF DAP.
000543: 11,2555           70077                           MASK     DAPBOOLS
000544: 11,2556           54077                           TS       DAPBOOLS
000545:
000546: 11,2557           04161                           TC       PHASCHNG
000547: 11,2560           00006                           OCT      00006
000548:
000549: 11,2561           15727                           TCF      TASKOVER
000550:
000551: 11,2562           02237        LPNGSMON           GENADR   PGNCSMON
000552: 11,2563           02354        LDNCDUS            GENADR   DNCDUS
000553: 11,2564           00764        FIVESECS           DEC      500        B-14
000554:


000556:                                                                                                  #  VB 43  IMU ATTITUDE ERROR METER LOADER.
000557:
000558: 11,2565           02040        IMUATTCK           TC       TESTXACT
000559: 11,2566           42631                           CS       OCT50K                                #  REMOVE COARSE AND ECTR ENABLE.
000560: 11,2567           00006                           EXTEND
000561: 11,2570           03012                           WAND     12
000562:
000563: 11,2571           04644                           TC       GRABWAIT
000564: 11,2572           32152                           CAF      VNLODCDU
000565: 11,2573           04657                           TC       NVSBWAIT
000566: 11,2574           04475                           TC       ENDIDLE
000567: 11,2575           02055                           TC       TERMEXTV
000568: 11,2576           02577                           TC       +1
000569: 11,2577           32632                           CAF      V43K                                  #  REDISPLAY OUR VERB.
000570: 11,2600           04657                           TC       NVSBWAIT
000571: 11,2601           37756                           CAF      BIT6                                  #  ENABLE ERROR COUNTER.
000572: 11,2602           00006                           EXTEND
000573: 11,2603           05012                           WOR      12
000574: 11,2604           37762                           CAF      TWO
000575: 11,2605           00004                           INHINT
000576: 11,2606           05663                           TC       WAITLIST                              #  PUT OUT COMMAND IN .32 SECS.
000577: 11,2607  E7,1444                                  EBANK=   RSTKLOC
000578: 11,2607           02612 22067                     2CADR    ATTCK2
000579:
000580: 11,2611           12055                           TCF      TERMEXTV                              #  FREES DISPLAY.
000581:
000582: 11,2612           37762        ATTCK2             CAF      TWO                                   #  PUT OUT ALL COMMANDS - CDU WILL DO LIMIT
000583: 11,2613           54002                           TS       Q                                     #  INCASE OF EXCESS DATA.
000584: 11,2614           50000                           INDEX    A
000585: 11,2615           30400                           CA       THETAD
000586: 11,2616           00006                           EXTEND
000587: 11,2617           77747                           MP       BIT13                                 #  SHIFT RIGHT 2.
000588: 11,2620           67770                           AD       NEG0                                  #  PREVENT +0 IN OUTPUT COUNTER
000589: 11,2621           50002                           INDEX    Q
000590: 11,2622           54050                           TS       CDUXCMD
000591: 11,2623           10002                           CCS      Q
000592: 11,2624           12613                           TCF      ATTCK2     +1
000593:
000594: 11,2625           32633                           CAF      OCT70K
000595: 11,2626           00006                           EXTEND
000596: 11,2627           05014                           WOR      14
000597: 11,2630           15727                           TCF      TASKOVER
000598:
000599: 11,2631           00050        OCT50K             OCT      50
000600: 11,2632           04300        V43K               OCT      4300
000601: 11,2633           70000        OCT70K             OCT      70000
000602:


000604:                                                                                                  #  PROGRAM TO SCAN CHANNELS 30 - 32 FOR CHANGES IN SELECTED INBITS. CALLED BY SPECIAL VERB.
000605:
000606: 11,2634  E7,1562                                  EBANK=   MSGCNT
000607:
000608: 11,2634           37763        SETUPMSG           CAF      BIT1                                  #  BEGIN SCAN.
000609: 11,2635           00004                           INHINT
000610: 11,2636           05663                           TC       WAITLIST
000611: 11,2637  E7,1444                                  EBANK=   RSTKLOC
000612: 11,2637           02644 22067                     2CADR    MSGSCAN    +2
000613:
000614: 11,2641           05567                           TC       ENDOFJOB
000615:
000616: 11,2642           05701        MSGSCAN            TC       FIXDELAY
000617: 11,2643           00062                           DEC      50         B-14
000618:
000619: 11,2644           37762                           CAF      TWO                                   #  SCAN ALL 3 CHANNELS FOR CHANGES.
000620: 11,2645           55562                           TS       MSGCNT
000621: 11,2646           50000                           INDEX    A
000622: 11,2647           31557                           CA       LAST30                                #  OLD VALUE OF INBITS.
000623: 11,2650           00006                           EXTEND
000624: 11,2651           51562                           INDEX    MSGCNT
000625: 11,2652           06030                           RXOR     30
000626: 11,2653           51562                           INDEX    MSGCNT
000627: 11,2654           72703                           MASK     30MSGMSK
000628: 11,2655           00006                           EXTEND
000629: 11,2656           12700                           BZF      NOMSG
000630:
000631: 11,2657           54002                           TS       Q                                     #  SAVE DIFFERENCE.
000632: 11,2660           51562                           INDEX    MSGCNT
000633: 11,2661           23557                           LXCH     LAST30                                #  UPDATE OLD VALUE.
000634: 11,2662           00006                           EXTEND
000635: 11,2663           06001                           RXOR     L
000636: 11,2664           51562                           INDEX    MSGCNT
000637: 11,2665           55557                           TS       LAST30
000638:
000639: 11,2666           40000                           COM
000640: 11,2667           56002                           XCH      Q
000641: 11,2670           70002                           MASK     Q                                     #  SEE IF ANY OF CHANGED BITS JUST ON.
000642: 11,2671           00006                           EXTEND
000643: 11,2672           12700                           BZF      NOMSG                                 #  NO MESSAGE IF SO.
000644:
000645:                                                                                                  #  NO ROTATIONAL HAND CONTROLLER IN 206.
000646:
000647: 11,2673           32706        NOTRHC             CAF      OKT30
000648: 11,2674           61562                           AD       MSGCNT
000649: 11,2675           54071                           TS       RUPTREG2
000650:
000651: 11,2676           40002                           CS       Q
000652: 11,2677           02724                           TC       VMESSAGE
000653:


000655: 11,2700           11562        NOMSG              CCS      MSGCNT
000656: 11,2701           12645                           TCF      MSGSCAN    +3
000657: 11,2702           12642                           TCF      MSGSCAN
000658:
000659: 11,2703           00017        30MSGMSK           OCT      17
000660: 11,2704           77777                           OCT      77777
000661: 11,2705           03777                           OCT      3777
000662:
000663: 11,2706           00030        OKT30              OCT      30
000664: 11,2707           02717        DESCBITS           TC       MESSAGE                               #  DESCENT BITS COME HERE IN A.
000665: 11,2710           00016                           OCT      16
000666: 11,2711           05733                           TC       RESUME
000667:
000668: 11,2712           04644        RHCMON             TC       GRABWAIT                              #  FIRE UP DSKY MONITOR.
000669: 11,2713           32716                           CAF      RHCMONVN
000670: 11,2714           04657                           TC       NVSBWAIT
000671: 11,2715           05566                           TC       EJFREE
000672:
000673: 11,2716           01645        RHCMONVN           OCT      1645
000674:


000676:                                                                                                  #  MESSAGE DISPLAY - 3 COMPONENT OCTAL.
000677:
000678: 11,2717           54071        MESSAGE            TS       RUPTREG2                              #  NEW CHANNEL CONTENTS ARRIVE IN A.
000679: 11,2720           50002                           INDEX    Q                                     #  CHANNEL NUMBER IN OCTAL AT CALLER +1.
000680: 11,2721           30000                           CAF      0
000681: 11,2722           24002                           INCR     Q
000682: 11,2723           56071                           XCH      RUPTREG2
000683:
000684: 11,2724           54070        VMESSAGE           TS       RUPTREG1                              #  FOR VARIABLE CHANNEL.
000685: 11,2725           00006                           EXTEND
000686: 11,2726           22072                           QXCH     RUPTREG3
000687: 11,2727           35651                           CAF      PRIO27                                #  FIRE UP SPECIAL JOB.
000688: 11,2730           05505                           TC       NOVAC
000689: 11,2731  E7,1444                                  EBANK=   RSTKLOC
000690: 11,2731           02742 22067                     2CADR    DOMSG
000691:
000692: 11,2733           52071                           DXCH     RUPTREG1                              #  NEW CONTENTS TO MPAC - CHANNEL NUMBER TO
000693: 11,2734           50064                           INDEX    LOCCTR                                #  MPAC +1.
000694: 11,2735           52145                           DXCH     MPAC
000695: 11,2736           30025                           CA       TIME1
000696: 11,2737           50064                           INDEX    LOCCTR
000697: 11,2740           54146                           TS       MPAC       +2
000698: 11,2741           00072                           TC       RUPTREG3
000699:
000700: 11,2742           04644        DOMSG              TC       GRABWAIT
000701: 11,2743           00006                           EXTEND
000702: 11,2744           30145                           DCA      MPAC
000703: 11,2745           52340                           DXCH     DSPTEM1
000704: 11,2746           30146                           CA       MPAC       +2
000705: 11,2747           54341                           TS       DSPTEM1    +2
000706: 11,2750           32757                           CAF      MSGVN
000707: 11,2751           04444                           TC       NVSUB
000708: 11,2752           12754                           TCF      MSGBUSY
000709: 11,2753           05566                           TC       EJFREE
000710:
000711: 11,2754           32756        MSGBUSY            CAF      +2
000712: 11,2755           04654                           TC       NVSUBUSY
000713: 11,2756           22743                           CADR     DOMSG      +1
000714:
000715: 11,2757           00535        MSGVN              OCT      0535
000716:


000718:                                                                                                  #  ROUTINE FOR AURORA ONLY TO ASK OPERATOR IF RR LOCK ON REQUESTED.
000719:
000720: 11,2760           05235        AURLOKON           TC       MAKECADR
000721: 11,2761           54426                           TS       DESRET
000722: 11,2762           32527                           CAF      RV33                                  #  ASSUMES DSKY GRABBED.
000723: 11,2763           04657                           TC       NVSBWAIT
000724: 11,2764           04622                           TC       FLASHON
000725: 11,2765           04475                           TC       ENDIDLE
000726: 11,2766           12771                           TCF      +3                                    #  ON TERM.
000727: 11,2767           37757                           CAF      LOKONFLG
000728: 11,2770           12772                           TCF      +2
000729: 11,2771           37767                           CAF      ZERO
000730: 11,2772           00004                           INHINT
000731: 11,2773           56074                           XCH      STATE
000732: 11,2774           73006                           MASK     -LOKONFG
000733: 11,2775           26074                           ADS      STATE
000734:
000735: 11,2776           77757                           MASK     LOKONFLG                              #  IF NO LOCK-ON CALLED FOR, SET BIT15 OF
000736: 11,2777           10000                           CCS      A                                     #  RADMODES TO INDICATE THAT ARBITRARILY-
000737: 11,3000           13003                           TCF      +3                                    #  LONG DESIGNATION IS WANTED (TO BE
000738:
000739: 11,3001           37745                           CAF      BIT15                                 #  TERMINATED BY FRESH START).
000740: 11,3002           26412                           ADS      RADMODES
000741: 11,3003           00003                           RELINT
000742: 11,3004           30426                           CA       DESRET
000743: 11,3005           15230                           TCF      BANKJUMP
000744:
000745: 11,3006           77757        -LOKONFG           OCT      -20
000746:


000748:                                                                                                  #  PROGRAM TO RUN DISPLAY INERTIAL DATA TEST.
000749:
000750: 11,3007           33077        DISINDT            CAF      FLVELVN                               #  ASK FOR FORWARD, LATERAL VELOCITY.
000751: 11,3010           04657                           TC       NVSBWAIT
000752: 11,3011           04475                           TC       ENDIDLE
000753: 11,3012           13034                           TCF      ENDDISIN
000754: 11,3013           13014                           TCF      +1
000755: 11,3014           33100                           CAF      ALT,R,VN                              #  ASK FOR INITIAL AND FINIAL ALTITUDES AND
000756: 11,3015           04657                           TC       NVSBWAIT                              #  ALTITUDE RATE.
000757: 11,3016           04475                           TC       ENDIDLE
000758: 11,3017           13034                           TCF      ENDDISIN
000759: 11,3020           13021                           TCF      +1
000760:
000761: 11,3021           00004                           INHINT
000762: 11,3022           47763                           CS       ONE
000763: 11,3023           54350                           TS       DIDFLG
000764:
000765: 11,3024           00006                           EXTEND
000766: 11,3025           30352                           DCA      ALT                                   #  SO FOLLOWING MONITOR WORKS.
000767: 11,3026           52364                           DXCH     ALTSAVE
000768:
000769: 11,3027           37763                           CAF      ONE
000770: 11,3030           05663                           TC       WAITLIST
000771: 11,3031  E7,1444                                  EBANK=   RSTKLOC
000772: 11,3031           03042 22067                     2CADR    DISINLUP   +2
000773:
000774: 11,3033           15566                           TCF      EJFREE
000775:
000776: 11,3034           04724        ENDDISIN           TC       FREEDSP
000777: 11,3035           04117                 +1        TC       NEWMODEX
000778: 11,3036           00000                           OCT      0
000779:
000780: 11,3037           05567                           TC       ENDOFJOB
000781:


000783:                                                                                                  #  WATCH ALTSAVE FOR END OF PROBLEM.
000784:
000785: 11,3040           05701        DISINLUP           TC       FIXDELAY
000786: 11,3041           00062                           DEC      50         B-14
000787:
000788: 11,3042           00006                 +2        EXTEND
000789: 11,3043           30355                           DCA      FINALT
000790: 11,3044           52062                           DXCH     ITEMP1
000791: 11,3045           00006                           EXTEND
000792: 11,3046           40364                           DCS      ALTSAVE                               #  LATEST ALTITUDE.
000793: 11,3047           20062                           DAS      ITEMP1
000794:
000795: 11,3050           10061                           CCS      ITEMP1
000796: 11,3051           13071                           TCF      +DIF
000797: 11,3052           13054                           TCF      +2
000798: 11,3053           13075                           TCF      -DIF
000799:
000800: 11,3054           10062                           CCS      ITEMP2
000801: 11,3055           13071                           TCF      +DIF
000802: 11,3056           13060                           TCF      +2
000803: 11,3057           13075                           TCF      -DIF
000804:
000805: 11,3060           37767        DISINDUN           CAF      ZERO
000806: 11,3061           54353                           TS       ALTRATE
000807: 11,3062           52355                           DXCH     FINALT
000808: 11,3063           52352                           DXCH     ALT
000809: 11,3064           37746                           CAF      PRIO20
000810: 11,3065           05505                           TC       NOVAC
000811: 11,3066  E7,1444                                  EBANK=   RSTKLOC
000812: 11,3066           03035 22067                     2CADR    ENDDISIN   +1
000813:
000814: 11,3070           15727                           TCF      TASKOVER
000815:
000816: 11,3071           30353        +DIF               CA       ALTRATE
000817: 11,3072           00006                           EXTEND
000818: 11,3073           63060                           BZMF     DISINDUN
000819: 11,3074           13040                           TCF      DISINLUP
000820:
000821: 11,3075           40353        -DIF               CS       ALTRATE
000822: 11,3076           13072                           TCF      +DIF       +1
000823:
000824: 11,3077           02444        FLVELVN            OCT      2444
000825: 11,3100           02564        ALT,R,VN           OCT      2564
000826:
000827: 11,3101           00004        MINIMP             INHINT
000828: 11,3102           47752                           CS       BIT10                                 #  BIT 10 OF DAPBOOLS INDICATES MINIMP MODE
000829: 11,3103           70077                           MASK     DAPBOOLS
000830: 11,3104           67752                           AD       BIT10
000831: 11,3105           54077                           TS       DAPBOOLS                              #  BIT 10 OF DAPBOOLS NOW PRESENT.
000832: 11,3106           15567                           TCF      ENDOFJOB
000833:


000835: 11,3107           00004        NOMINIMP           INHINT
000836: 11,3110           47752                           CS       BIT10
000837: 11,3111           70077                           MASK     DAPBOOLS
000838: 11,3112           54077                           TS       DAPBOOLS                              #  A ZERO IN POSITION 10 OF DAPBOOLS NOW.
000839:
000840: 11,3113           00006                           EXTEND
000841: 11,3114           30033                           DCA      CDUX
000842: 11,3115           52767                           DXCH     CDUXD
000843: 11,3116           30034                           CA       CDUZ
000844: 11,3117           54770                           TS       CDUZD
000845: 11,3120           15567                           TCF      ENDOFJOB
000846:


000848:                                                                                                  #  VB 60 PREPARE FOR STANDBY OPERATION
000849:
000850:                                                                                                  #  ROUTINE WRITTEN FOR TEST ROPES ONLY*** MUST BE UPDATED TO INCLUDE
000851:                                                                                                  #                                  FLIGHT REQUIREMENTS FOR FLIGHT OPERATION
000852:
000853: 11,3121  E3,1400                                  EBANK=   LST1
000854:
000855: 11,3121           35352        PRESTAND           CAF      EBANK3                                #  COMES HERE FROM LST2FAN
000856: 11,3122           56003                           XCH      EBANK                                 #  SET UP EBANK FOR BANK 3
000857: 11,3123           00004                           INHINT
000858: 11,3124           30025                           CA       TIME1
000859: 11,3125           55506                           TS       TIMESAV                               #  THIS ROUTINE WILL LOOK AT TIME1 UNTIL
000860: 11,3126           32706                           CAF      OKT30                                 #   TIME1 IS INCREMENTED, THEN IT WILL
000861: 11,3127           55512        LONGER             TS       TIMAR                                 #  SNATCH THE MISSION TIME REGS AND STORE
000862: 11,3130           41506                           CS       TIMESAV                               #  THEM IN TIMESAV FOR LATER ISE IN ARITH.
000863: 11,3131           60025                           AD       TIME1                                 #  OPERATIONS WHICH SHOULD FIND THE
000864: 11,3132           00006                           EXTEND                                         #  STANDING DIFFERENCE BETWEEN THE SCALAR
000865: 11,3133           13140                           BZF      CHKTIME                               #  AND THE TIME1-TIME2S REGS.
000866:
000867: 11,3134           00006                           EXTEND
000868: 11,3135           30025                           DCA      TIME2                                 #  READ AND STORE THE DP TIME AND TO
000869: 11,3136           53507                           DXCH     TIMESAV                               #  READ THE SCALAR USING THE EXISTING PROG
000870: 11,3137           13146                           TCF      CATCHFIN                              #  FINETIME.
000871:
000872: 11,3140           11512        CHKTIME            CCS      TIMAR                                 #  MUST WATCH THE TIME SPENT IN INHINT OR
000873: 11,3141           03127                           TC       LONGER                                #  THE COPS MIGHT CATCH US.
000874: 11,3142           00003                           RELINT
000875: 11,3143           10067                           CCS      NEWJOB
000876: 11,3144           05532                           TC       CHANG1
000877: 11,3145           03126                           TC       LONGER     -1                         #  GO BACK AND LOOK AGAIN
000878:
000879: 11,3146           05026        CATCHFIN           TC       FINETIME                              #  WILL READ CHANNELS 3 AND 4 AND RETURN
000880: 11,3147           53511                           DXCH     SCALSAV                               #  WITH 3 IN A AND 4 IN L..
000881: 11,3150           00003                           RELINT
000882: 11,3151           47760                           CS       BIT4
000883: 11,3152           70365                           MASK     IMODES30                              #  INHIBIT THE IMU FAIL LIGHT.
000884: 11,3153           67760                           AD       BIT4
000885: 11,3154           54365                           TS       IMODES30
000886:
000887: 11,3155           37760                           CAF      BIT4                                  #  SET ALL CHAN 12 BITS EXCEPT C/A TO ZERO.
000888: 11,3156           00006                           EXTEND                                         #  THIS IS NECESSARY SO THAT THE GIMBALS DO
000889: 11,3157           03012                           WAND     12                                    #  NOT DRIFT INTO GIMBALLOCK IF THE SYSTEM
000890:
000891: 11,3160           37760                           CAF      BIT4                                  #  SHOULD BE IN OPERATE AT THE TIME STBY
000892: 11,3161           00006                           EXTEND                                         #  WAS STARTED.  THIS SECTION WILL MAKE
000893: 11,3162           05012                           WOR      12                                    #  SURE THE IMU IS IN C/A.....
000894:
000895: 11,3163           37751                           CAF      BIT11                                 #  WHEN BIT 11 IS PRESENT IN CHANNEL 13 THE
000896: 11,3164           00006                           EXTEND                                         #  DSKY PB. CAN THEN ENERGIZE THE STANDBY
000897: 11,3165           05013                           WOR      13                                    #  RELAY IN THE CGC PWR SUPPLIES....


000899: 11,3166           05567                           TC       ENDOFJOB                              #  GO TO DUMMY JOB UNTIL YOU DIE...
000900:


000902:                                                                                                  #  VB 61 RECOVER FROM STANDBY OPERATION
000903:
000904:                                                                                                  #  ROUTINE WRITTEN FOR TEST ROPES ONLY**** MUST BE UPDATED TO INCLUDE
000905:                                                                                                  #                  FLIGHT REQUIREMENTS FOR FLIGHT OPERATIONS SEQUENCES....
000906:
000907: 11,3167           35352        POSTAND            CAF      EBANK3                                #  COMES HERE FROM LST2FAN
000908: 11,3170           56003                           XCH      EBANK                                 #  SET UP EBANK FOR BANK 3
000909: 11,3171           05026                           TC       FINETIME
000910: 11,3172           53513                           DXCH     TIMAR                                 #  READ THE SCALAR AND SEE IF IT OVERFLOW-
000911: 11,3173           00003                           RELINT                                         #  ED WHILE THE CGC WAS IN STBY, IF SO
000912: 11,3174           31512                           CAE      TIMAR                                 #  THE OVERFLOW MUST BE ADDED OR IT WILL
000913: 11,3175           00006                           EXTEND                                         #  SEEM THAT THE REALATIVITY THEORY WORKS
000914: 11,3176           61510                           SU       SCALSAV                               #  BETTER THAN IT SHOULD...
000915: 11,3177           00006                           EXTEND
000916: 11,3200           63223                           BZMF     ADDTIME                               #  IF ITS NEG. IT MUST HAVE OV:FLWD..
000917:
000918: 11,3201           06112                           TC       INTPRET
000919: 11,3202           45345                           DLOAD    DSU                                   #  IF IT DID NOT OV-FLW. FIND OUT HOW LONG
000920: 11,3203           01513                                    TIMAR                                 #  THE CGC WAS IN STBY BY SUBTRACTING THE
000921: 11,3204           01511                                    SCALSAV                               #  SCALAR AT THE START OF STBY FROM THE
000922: 11,3205           47061                           SRR      RTB                                   #  SCALAR AT THE END OF STBY AND THEN ADD
000923: 11,3206           21606                                    5                                     #  THE DIFFERENCE TO THE TIME EXISTING
000924: 11,3207           33520                                    SGNAGREE                              #  WHEN THE SCALAR WAS READ AT STBY ENTRY**
000925: 11,3210           77615                           DAD
000926: 11,3211           01507                                    TIMESAV
000927: 11,3212           01513                           STORE    TIMAR
000928: 11,3213           77776                           EXIT
000929:
000930: 11,3214           00006        CORCTTIM           EXTEND
000931: 11,3215           31513                           DCA      TIMAR                                 #  THIS IS THE CORRECTED TIME TO BE READ
000932: 11,3216           52025                           DXCH     TIME2                                 #  INTO TIME1 AND TIME2 REGS. ADDR 24-25
000933:
000934: 11,3217           47751                           CS       BIT11
000935: 11,3220           00006                           EXTEND                                         #  DISABLE THE DSKY STBY PUSHBUTTON.
000936: 11,3221           03013                           WAND     13
000937: 11,3222           05567                           TC       ENDOFJOB
000938:
000939: 11,3223           00006        ADDTIME            EXTEND
000940: 11,3224           37743                           DCA      DPOSMAX                               #  IF THE SCALAR OVERFLOWED, FIND OUT HOW
000941: 11,3225           53515                           DXCH     TIMEDIFF                              #  MUCH TIME REMAINED WHEN READ THE FIRST
000942: 11,3226           06112                           TC       INTPRET                               #  TIME AND THEN ADD THE PRESENT READING-
000943: 11,3227           45345                           DLOAD    DSU                                   #  WHICH WILL BE THE TOTAL TIME SPENT IN
000944: 11,3230           01515                                    TIMEDIFF                              #  STANDBY, TO WHICH THE TIME AT STBY
000945: 11,3231           01511                                    SCALSAV                               #  MAY BE ADDED TO FIND THE PRESENT TIME
000946: 11,3232           54215                           DAD      SRR                                   #  CORRECT TO 10 MSEC..
000947: 11,3233           01513                                    TIMAR                                 #  **** THE TIME IN STANDBY MODE MUST NOT
000948: 11,3234           21606                                    5                                     #  EXCEED 23 HOURS IF TIME IS TO BE
000949: 11,3235           77615                           DAD                                            #  CORRECTLY COMPUTED BY THIS ROUTINE.*****
000950: 11,3236           01507                                    TIMESAV
000951: 11,3237           01513                           STORE    TIMAR


000953: 11,3240           77776                           EXIT
000954: 11,3241           03214                           TC       CORCTTIM
000955:

End of include-file EXTENDED_VERBS.agc.  Parent file is MAIN.agc


