
Source Code


000002:                                                                                                  ## Copyright:    Public domain.
000003:                                                                                                  ## Filename:     FIND_CDU_DESIRED.agc
000004:                                                                                                  ## Purpose:      A module for revision 0 of BURST120 (Sunburst). It
000005:                                                                                                  ##               is part of the source code for the Lunar Module's
000006:                                                                                                  ##               (LM) Apollo Guidance Computer (AGC) for Apollo 5.
000007:                                                                                                  ## Assembler:    yaYUL
000008:                                                                                                  ## Contact:      Ron Burkey <info@sandroid.org>.
000009:                                                                                                  ## Website:      www.ibiblio.org/apollo/index.html
000010:                                                                                                  ## Mod history:  2016-09-30 RSB  Created draft version.
000011:                                                                                                  ##               2016-10-29 MAS  Transcribed.
000012:


000014:                                                                                                  #  THIS ROUTINE FINDCDUD COMPUTES DESIRED CDU,S WHICH CAN BE FED TO
000015:                                                                                                  #  DAP LATER ON.
000016:
000017:                                                                                                  #  INPUT
000018:
000019:                                                                                                  #  DESIRED THRUST VECTOR AXISD COMING FROM GUIDANCE EQUATIONS
000020:                                                                                                  #  CDUX,CDUY,CDUZ INFORM OF A SP VECTOR CDUTEMP,+2,+4.
000021:                                                                                                  #  DELV HALF UNIT VECTOR. PIPAS READING
000022:                                                                                                  #  AXISD IS A HALF UNIT VECTOR
000023:                                                                                                  #  CUDX,Y,Z  ARE IN 2,S COMP
000024:
000025:                                                                                                  #  THIS ROUTINE CAN BE ENTERED FROM INTERPRETIVE . CALL FINDCDUD
000026:
000027:                                                                                                  #  CALLING SEQUENCE
000028:                                                                                                  #  L-1  CALL
000029:                                                                                                  #  L        FINDCDUD
000030:                                                                                                  #  L+1              INTERPRETIVE RETURN
000031:
000032:
000033:
000034:                                                                                                  #  USER TO HAVE A UNIT VECTOR  AXIS   (1,0,0)
000035:
000036:
000037:
000038: 30,2677                                           BANK     30
000039: 30,2677  E4,1452                                  EBANK=   DELR
000040: 30,2677           24276 14076  2/PI               2DEC     .6366198
000041:
000042: 30,2701           00002 00545  LIMOMG             2DEC     .0001234
000043:
000044:
000045:
000046: 30,2703           77401        FINDCDUD           SETPD    EXIT
000047: 30,2704           00001                                    0
000048: 30,2705           31332                           CA       CDUTEMP    +2
000049: 30,2706           55654                           TS       SINCDU                                #  TEMPORARY LOCATION FOR CDUY
000050: 30,2707           31334                           CA       CDUTEMP    +4
000051: 30,2710           55656                           TS       SINCDU     +2                         #  TEMPORARY LOCATION FOR CDUZ
000052: 30,2711           31330                           CA       CDUTEMP
000053: 30,2712           55660                           TS       SINCDU     +4                         #  TEMPORARY LOCATION FOR CDUX
000054:
000055:
000056:
000057:                                                                                                  #  AXISFILT   COMPUTES AXIS AND CORRECTS IT FOR  QUANTIZATION ERROR AND OTH
000058:                                                                                                  #  ER ERRORS
000059:
000060:
000061: 30,2713  E6,1422                                  EBANK=   OMEGA
000062: 30,2713           35632                           CAF      PRIO3                                 #  OCT  03000     SWITCH EBANK


000064: 30,2714           56003                           XCH      EBANK
000065: 30,2715           54144                           TS       MPAC
000066: 30,2716           37767                           CAF      ZERO
000067: 30,2717           55155                           TS       TEMX                                  #  SQOMEGA
000068: 30,2720           55156                           TS       TEMX       +1                         #  SQOMEGA  +1
000069: 30,2721           00004                           INHINT
000070: 30,2722           31415                           CAE      OMEGAP
000071: 30,2723           00006                           EXTEND
000072: 30,2724           70000                           SQUARE
000073: 30,2725           21156                           DAS      TEMX                                  #  SQOMEGA
000074: 30,2726           31416                           CAE      OMEGAQ
000075: 30,2727           00006                           EXTEND
000076: 30,2730           70000                           SQUARE
000077: 30,2731           21156                           DAS      TEMX                                  #  SQOMEGA
000078: 30,2732           31420                           CAE      OMEGAR
000079: 30,2733           00006                           EXTEND
000080: 30,2734           70000                           SQUARE
000081: 30,2735           21156                           DAS      TEMX                                  #  SQOMEGA
000082: 30,2736           00003                           RELINT
000083: 30,2737           56144                           XCH      MPAC
000084: 30,2740           54003                           TS       EBANK
000085: 30,2741           06112                           TC       INTPRET
000086: 30,2742  E4,1452                                  EBANK=   DELR
000087: 30,2742           77620                           STQ
000088: 30,2743           01304                                    RETSAVE
000089: 30,2744           45345        AXISFILT           DLOAD    DSU
000090:
000091:
000092:
000093: 30,2745           01156                                    TEMX                                  #  SQOMEGA
000094: 30,2746           20702                                    LIMOMG
000095: 30,2747           72044                           BPL      LXA,1
000096: 30,2750           60774                                    ROTANGLE
000097: 30,2751           00110                                    FIXLOC
000098: 30,2752           64110                           INCR,1   XCHX,1
000099: 30,2753           00024                                    20D
000100: 30,2754           00050                                    S1
000101: 30,2755           77775                           VLOAD
000102: 30,2756           02255                                    SINCDU                                #  TEMPORARY LOCATION FOR CDUY,Z,X IN
000103: 30,2757           00025                           STORE    20D                                   #  SP  2,S COMP
000104: 30,2760           53575                           VLOAD    UNIT
000105: 30,2761           00404                                    DELV
000106: 30,2762           00041                           STORE    32D
000107: 30,2763           77624                           CALL
000108: 30,2764           32531                                    SMNB                                  #  TRANSFORM DELV FROM SM TO NB
000109: 30,2765           52201                           SETPD    VSU
000110: 30,2766           00001                                    0
000111: 30,2767           02241                                    AXIS
000112: 30,2770           53322                           VSR3     VAD
000113: 30,2771           02241                                    AXIS
000114:


000116: 30,2772           77656                           UNIT
000117: 30,2773           02241                           STORE    AXIS
000118: 30,2774           62150        ROTANGLE           LXA,1    INCR,1
000119: 30,2775           00110                                    FIXLOC
000120: 30,2776           00024                                    20D
000121: 30,2777           77320                           XCHX,1   VLOAD
000122: 30,3000           00050                                    S1
000123: 30,3001           02255                                    SINCDU                                #  TEMPORARY LOCATION FOR CDUY,Z,X IN
000124: 30,3002           00025                           STORE    20D                                   #  SP  2,S COMP
000125: 30,3003           77775                           VLOAD
000126: 30,3004           02241                                    AXIS
000127: 30,3005           00041                           STORE    32D
000128: 30,3006           77624                           CALL                                           #  TRANSFORM  AXIS FROM NB TO SM
000129: 30,3007           32555                                    NBSM
000130: 30,3010           47201                           SETPD    VXV
000131: 30,3011           00001                                    0
000132: 30,3012           02233                                    AXISD
000133: 30,3013           77761                           VXSC
000134: 30,3014           20700                                    2/PI
000135: 30,3015           00013                           STORE    10D                                   #  DTHETASM  SCALETO ONE REVOLUTION
000136: 30,3016           77624                           CALL                                           #  COMPUTE SIN AND COS OF CDUS FOR
000137: 30,3017           61064                                    SINCOSCD                              #  LATER USE
000138:
000139:
000140:                                                                                                  #  SMCDURES     COMPUTES CDU(GIMBAL) ANGLES FROM INCREMENTAL
000141:                                                                                                  #  CHANGES ABOUT SM AXES.    IT REQUIRES  SM  INCREMENTAL CHANGES
000142:                                                                                                  #  AS DP  VECTOR SCALED AT  ONE REVOLUTION(DTHETASM,+2,+4).  SIN,COS(CDUX,Y
000143:                                                                                                  #  ,Z)   ARE IN SINCDU,+2,+4 AND COSCDU,+2,+4  RESPECTIVELY,SCALED TO 2.
000144:                                                                                                  #  CDU INCREMENTS  ARE PLACED IN DCDU,+2,+4   SCALED TO ONE REVOLUTION
000145:
000146:
000147:
000148: 30,3020           41345        SMCDURES           DLOAD    DMP
000149: 30,3021           00013                                    10D                                   #  DTHETASM
000150: 30,3022           02251                                    COSCDU     +2
000151: 30,3023           41325                           PDDL     DMP
000152: 30,3024           00017                                    14D                                   #  DTHETASM +4
000153: 30,3025           02257                                    SINCDU     +2
000154: 30,3026           77621                           BDSU
000155: 30,3027           77671                           DDV
000156: 30,3030           02253                                    COSCDU     +4
000157: 30,3031           00025                           STORE    20D                                   #  DCDU
000158: 30,3032           72405                           DMP      SL1                                   #  SCALE
000159: 30,3033           02261                                    SINCDU     +4
000160: 30,3034           77621                           BDSU
000161: 30,3035           00015                                    12D                                   #  DTHETASM +2
000162: 30,3036           14027                           STODL    22D                                   #  DCDU +2
000163: 30,3037           00013                                    10D
000164: 30,3040           65205                           DMP      PDDL
000165: 30,3041           02257                                    SINCDU     +2


000167: 30,3042           00017                                    14D                                   #  DTHETASM +4
000168: 30,3043           43205                           DMP      DAD
000169: 30,3044           02251                                    COSCDU     +2
000170: 30,3045           77752                           SL1                                            #  SCALE
000171: 30,3046           14031                           STODL    24D                                   #  DCDU +4
000172: 30,3047           00027                                    22D                                   #  DCDU +2
000173: 30,3050           57405                           DMP      DCOMP
000174: 30,3051           02261                                    SINCDU     +4                         #  DCDUX =-DCDUY*SIN(CDUZ)
000175: 30,3052           77752                           SL1                                            #  SCALE
000176: 30,3053           00025                           STORE    20D                                   #  DCDU
000177: 30,3054           53375                           VLOAD    VAD
000178: 30,3055           00025                                    20D                                   #  DCDU
000179: 30,3056           01331                                    CDUTEMP
000180: 30,3057           77634                           RTB
000181: 30,3060           33526                                    V1STO2S                               #  SCALE FROM 1,S TO 2,S
000182: 30,3061           00767                           STORE    CDUXD
000183: 30,3062           77650                           GOTO
000184: 30,3063           01304                                    RETSAVE
000185:
000186:
000187:                                                                                                  #  SINCOSCD    COMPUTES SIN AND COS OF CDU  AND STORES AS DP VECTORS
000188:                                                                                                  #  SINCDU ,COSCDU
000189:                                                                                                  #  INPUT IS CDUS AS A VECTOR CDUTEMP
000190:                                                                                                  #  OUTPUT IS SIN AND COS OF CDU,S
000191:                                                                                                  #  CDUS ARE AVAILABLE IN 2,S COMP
000192:                                                                                                  #  SIN AND COS ARE SCALED TO 2
000193:                                                                                                  #  SINCOSCD CAN BE ENTERED FROM INTERPRETIVE
000194:
000195:
000196:
000197: 30,3064           76131        SINCOSCD           SSP      AXT,1                                 #  SET X1 TO 6
000198: 30,3065           00051                                    S1                                    #  SET S1 TO 2
000199: 30,3066           00002                           OCT      2
000200: 30,3067           00006                           OCT      6
000201: 30,3070           47133        REPEAT1            SLOAD*   RTB
000202: 30,3071           01337                                    CDUTEMP    +6,1
000203: 30,3072           33457                                    CDULOGIC                              #  CONVERT CDU FROM 2,S TO 1,S.  SCALE
000204: 30,3073           05337                           STORE    CDUTEMP    +6,1                       #  TO ONE REVOLUTION
000205: 30,3074           77756                           SIN
000206: 30,3075           06263                           STORE    SINCDU     +6,1
000207: 30,3076           71543                           DLOAD*   COS
000208: 30,3077           01337                                    CDUTEMP    +6,1
000209: 30,3100           06255                           STORE    COSCDU     +6,1
000210: 30,3101           43500                           TIX,1    RVQ
000211: 30,3102           61070                                    REPEAT1

End of include-file FIND_CDU_DESIRED.agc.  Parent file is MAIN.agc


