
Source Code


000002:                                                                                                  ## Copyright:   Public domain.
000003:                                                                                                  ## Filename:    FRESH_START_AND_RESTART.agc
000004:                                                                                                  ## Purpose:     A module for revision 0 of BURST120 (Sunburst). It
000005:                                                                                                  ##              is part of the source code for the Lunar Module's
000006:                                                                                                  ##              (LM) Apollo Guidance Computer (AGC) for Apollo 5.
000007:                                                                                                  ## Assembler:   yaYUL
000008:                                                                                                  ## Contact:     Ron Burkey <info@sandroid.org>.
000009:                                                                                                  ## Website:     www.ibiblio.org/apollo/index.html
000010:                                                                                                  ## Mod history: 2016-09-30 RSB  Created draft version.
000011:                                                                                                  ##              2016-10-05 RSB  Finished transcription.
000012:                                                                                                  ##              2016-10-30 MAS  A bunch of small corrections, and some missing lines.
000013:                                                                                                  ##              2016-11-01 RSB  More typos.
000014:                                                                                                  ##              2016-12-03 RSB  Fixed various typos using octopus/ProoferComments, but
000015:                                                                                                  ##                              there are still a couple of pages that are problematic
000016:                                                                                                  ##                              with respect to octopus, so the process isn't completed.
000017:                                                                                                  ##              2016-12-05 RSB  octopus/ProoferComments based comment-proofing completed;
000018:                                                                                                  ##                              some corrections made.
000019:                                                                                                  ##              2017-03-13 RSB  Comment-text fixes noted in proofing Luminary 116.
000020:


000022: 01,2000                                           BANK     01
000023: 01,2000  E3,1400                                  EBANK=   LST1
000024:
000025: 01,2000           00004        SLAP1              INHINT                                         #  FRESH START.  COMES HERE FROM PINBALL.
000026: 01,2001           02357                           TC       STARTSUB                              #  SUBROUTINE DOES MOST OF THE WORK.
000027:
000028: 01,2002           12007        STARTSW            TCF      GOON                                  #  PATCH FOR SIMULATIONS
000029:
000030: 01,2003           37746        STARTSIM           CAF      BIT14
000031:
000032: 01,2004           05516                           TC       FINDVAC
000033: 01,2005     0061                                  EBANK=   ITEMP1
000034: 01,2005           03546 72060                     2CADR    BEGIN206
000035:
000036: 01,2007           37745        GOON               CAF      BIT15                                 #  TURN OFF ALL DSPTAB +11D LAMPS ONLY ON
000037: 01,2010           54326                           TS       DSPTAB     +11D                       #  REQUESTED FRESH START.
000038:
000039: 01,2011           47767                           CS       ZERO
000040: 01,2012           55127                           TS       RSTRTWRD
000041: 01,2013           54055                           TS       THRUST                                #  INITIALIZE THROTTLE COUNTER.
000042: 01,2014           55345                           TS       DAPOFFDT                              #  OVERWRITE IN ERASABLE LOAD IF DESIRED.
000043: 01,2015           55162                           TS       JETRESET                              #  PROPERTY OF RCSMONIT.
000044:
000045: 01,2016           35661                           CA       EBANK5
000046: 01,2017           54001                           TS       L
000047: 01,2020           22003                           LXCH     EBANK
000048: 01,2021  E5,1534                                  EBANK=   ABDELV
000049: 01,2021           37767                           CA       ZERO
000050: 01,2022           55534                           TS       ABDELV                                #  FOR DAP INITIALIZATION
000051: 01,2023           55535                           TS       ABDELV     +1
000052: 01,2024  E3,1400                                  EBANK=   LST1
000053: 01,2024           22003                           LXCH     EBANK
000054:
000055: 01,2025           55163                           TS       THISCH32
000056: 01,2026           54101                           TS       LMPJFAIL
000057: 01,2027           54102                           TS       CH5MASK
000058: 01,2030           54103                           TS       CH6MASK
000059:
000060: 01,2031           55356                           TS       REDOCTR
000061: 01,2032           55360                           TS       FAILREG
000062: 01,2033           55361                           TS       FAILREG    +1
000063: 01,2034           55362                           TS       FAILREG    +2
000064:
000065: 01,2035           37762                           CA       TWO                                   #  SET UP VALUES FOR DVCNTR.  THESE MAY
000066: 01,2036           55337                           TS       STARTDVC                              #  BE OVERWRITTEN IN ERASABLE LOAD IF
000067: 01,2037           55340                           TS       STOPDVC                               #  ANYBODY WANTS TO.
000068:
000069: 01,2040           37743                           CA       POSMAX                                #  TENTATIVELY LOAD WITH INFINITY.  MAY
000070: 01,2041           55336                           TS       SLOSHCTR                              #  BE REPLACED VIA ERASABLE LOAD.
000071:


000073: 01,2042           47767        DOFSTART           CS       ZERO                                  #  MAKE ALL MTIMER/MPHASE PAIRS AVAILABLE.
000074: 01,2043           55164                           TS       MTIMER4
000075: 01,2044           55165                           TS       MTIMER3
000076: 01,2045           55166                           TS       MTIMER2
000077: 01,2046           55167                           TS       MTIMER1
000078: 01,2047           55170                           TS       MPHASE4
000079: 01,2050           55171                           TS       MPHASE3
000080: 01,2051           55172                           TS       MPHASE2
000081: 01,2052           55173                           TS       MPHASE1
000082:
000083: 01,2053           47763                           CS       ONE
000084: 01,2054           55145                           TS       LMPOUTT
000085:
000086:                                                                                                  #  INITIALIZE SWITCH REGISTERS INCLUDING DAPBOOLS:
000087:
000088: 01,2055           37761                           CA       FOUR                                  #  INITIALIZE STATE THRU STATE +4 ONLY.
000089: 01,2056           54001        INITSW             TS       L
000090: 01,2057           50001                           INDEX    L
000091: 01,2060           32576                           CA       SWINIT
000092: 01,2061           50001                           INDEX    L
000093: 01,2062           54074                           TS       STATE
000094: 01,2063           10001                           CCS      L
000095: 01,2064           12056                           TCF      INITSW
000096:
000097: 01,2065           55355                           TS       SMODE
000098: 01,2066           55353                           TS       ERESTORE
000099: 01,2067           55133                           TS       LMPCMD                                #  RESET LMP COMMAND AREA.
000100: 01,2070           55134                           TS       LMPCMD     +1
000101: 01,2071           55135                           TS       LMPCMD     +2
000102: 01,2072           55136                           TS       LMPCMD     +3
000103: 01,2073           55137                           TS       LMPCMD     +4
000104: 01,2074           55140                           TS       LMPCMD     +5
000105: 01,2075           55141                           TS       LMPCMD     +6
000106: 01,2076           55142                           TS       LMPCMD     +7
000107: 01,2077           55143                           TS       LMPIN
000108: 01,2100           55144                           TS       LMPOUT
000109:
000110: 01,2101           00006                           EXTEND                                         #  TURN THE RCS JETS OFF.
000111: 01,2102           01005                           WRITE    5
000112: 01,2103           00006                           EXTEND
000113: 01,2104           01006                           WRITE    6
000114:
000115: 01,2105           32570                           CAF      IM30INIF                              #  FRESH START IMU INITIALIZATION.
000116: 01,2106           54365                           TS       IMODES30
000117:
000118: 01,2107           37752                           CAF      BIT10                                 #  REMOVE IMU FAIL INHIBIT IN 5 SECS.
000119: 01,2110           05663                           TC       WAITLIST
000120: 01,2111  E3,1400                                  EBANK=   LST1
000121: 01,2111           02273 26063                     2CADR    IFAILOK
000122:


000124: 01,2113           00006                           EXTEND                                         #  SETTING T5RUPT FOR SETIDLER PROGRAM
000125: 01,2114           32606                           DCA      SETADR                                #  THE SETIDLER PROGRAM ASSURES 1 SECOND
000126: 01,2115           53001                           DXCH     T5ADR                                 #  DELAY BEFORE THE DAPIDLER BEGINS.
000127:
000128: 01,2116           34276                           CAF      LNORMT4
000129: 01,2117           54346                           TS       T4LOC
000130:
000131: 01,2120           32554                           CA       LDNTMGO
000132: 01,2121           54001                           TS       L
000133: 01,2122           22003                           LXCH     EBANK
000134:
000135: 01,2123  E7,1401                                  EBANK=   DNTMGOTO
000136:
000137: 01,2123           32553                           CA       LDNPHAS1
000138: 01,2124           55401                           TS       DNTMGOTO
000139:
000140: 01,2125           32556                           CA       SETCDULM
000141: 01,2126           55405                           TS       CDULMIT                               #  OVERWRITE IN ERASABLE LOAD IF DESIRED.
000142:
000143: 01,2127           32557                           CA       IDNCDUN
000144: 01,2130           55404                           TS       DNCDUN                                #  OVERWRITE IN ERASABLE LOAD IF DESIRED.
000145:
000146: 01,2131           22003                           LXCH     EBANK
000147:
000148: 01,2132  E3,1400                                  EBANK=   LST1
000149:
000150: 01,2132           02151                           TC       MR.CLEAN                              #  DEACTIVATE ALL RESTART GROUPS.
000151:
000152: 01,2133           00003                           RELINT                                         #  LET AN INTERRUPT IN.
000153: 01,2134           12135                           NOOP
000154: 01,2135           00004                           INHINT
000155:
000156: 01,2136           05270                           TC       IBNKCALL
000157: 01,2137           40315                           CADR     1STENGOF
000158:
000159: 01,2140           37767        P00H3              CA       ZERO
000160: 01,2141           54302                           TS       MODREG
000161: 01,2142           54764                           TS       PHASENUM
000162:
000163: 01,2143           00003        ENDRSTRT           RELINT
000164: 01,2144           05206                           TC       BANKCALL                              #  DISPLAY MAJOR MODE.
000165: 01,2145           12001                           CADR     DSPMM
000166:
000167: 01,2146           06051                           TC       FLAG1UP                               #  TURN ON RESTARTABILITY FLAG.
000168: 01,2147           04000                           OCT      4000
000169:
000170: 01,2150           15600                           TCF      DUMMYJOB   +2                         #  DONT ZERO NEWJOB
000171:


000173: 01,2151           37764        MR.CLEAN           CAF      ELEVEN                                #  INITIALIZE PHASE TABLE.  DO IT THIS WAY
000174: 01,2152           54120                 +1        TS       BUF                                   #  TO MINIMIZE THE TIME OF PHASE TABLE
000175:
000176: 01,2153           47767                           CS       ZERO                                  #  DISAGREEMENT.
000177: 01,2154           22007                           ZL
000178: 01,2155           50120                           INDEX    BUF
000179: 01,2156           53077                           DXCH     -PHASE1    -1
000180:
000181: 01,2157           10120                           CCS      BUF
000182: 01,2160           10000                           CCS      A
000183: 01,2161           12152                           TCF      MR.CLEAN   +1
000184:
000185: 01,2162           00002                           TC       Q
000186:


000188:                                                                                                  #  COMES HERE FROM LOCATION 4000, GOJAM. RESTART ANY PROGRAMS WHICH MAY HAVE BEEN RUNNING AT THE TIME.
000189:
000190: 01,2163           25356        GOPROG             INCR     REDOCTR                               #  ANOTHER RESTART.
000191:
000192: 01,2164           22002                           LXCH     Q
000193: 01,2165           53775                           DXCH     RSBB&Q                                #  SAVE BBANK & Q FOR RESTART ANALYSIS.
000194:
000195: 01,2166           02357                           TC       STARTSUB
000196:
000197: 01,2167           37745                           CA       BIT15                                 #  TEST THE OSC FAIL BIT TO SEE IF WE HAVE
000198: 01,2170           00006                           EXTEND                                         #  HAD A POWER TRANSIENT.  IF SO, ATTEMPT
000199: 01,2171           03033                           WAND     33                                    #  A RESTART.  IF NOT, CHECK THE PRESENT
000200: 01,2172           00006                           EXTEND                                         #  STATE OF AGC WARNING.
000201: 01,2173           12201                           BZF      LIGHTSET
000202:
000203: 01,2174           37746                           CA       BIT14                                 #  IF AGC WARNING ON (BIT = 0), DO A FRESH
000204: 01,2175           00006                           EXTEND                                         #  START ON THE ASSUMPTION THAT WE'RE IN A
000205: 01,2176           02033                           RAND     33                                    #  RESTART LOOP.
000206: 01,2177           00006                           EXTEND
000207: 01,2200           12042                           BZF      DOFSTART
000208:
000209: 01,2201           00006        LIGHTSET           EXTEND                                         #  DONT TRY TO RESTART IF ERROR
000210: 01,2202           00015                           READ     15                                    #  AND MARK REJECT BUTTONS DEPRESSED.
000211: 01,2203           62565                           AD       -ELR
000212: 01,2204           00006                           EXTEND
000213: 01,2205           12207                           BZF      +2
000214: 01,2206           12215                           TCF      +7
000215:
000216: 01,2207           37757                           CAF      BIT5
000217: 01,2210           00006                           EXTEND
000218: 01,2211           02016                           RAND     16
000219: 01,2212           62566                           AD       -MKREJ
000220: 01,2213           00006                           EXTEND
000221: 01,2214           12042                           BZF      DOFSTART
000222:
000223: 01,2215           31353                           CA       ERESTORE                              #  IF SELF-CHECK ERASABLE-MEMORY TEST WAS
000224: 01,2216           00006                           EXTEND                                         #  INTERRUPTED BY A RESTART, DOUBT ERASABLE
000225: 01,2217           12221                           BZF      +2                                    #  AND DO A FRESH START.
000226: 01,2220           12042                           TCF      DOFSTART
000227:
000228: 01,2221           32574                           CA       9,6,4                                 #  LEAVE PROG ALARM, GIMBAL LOCK & NO ATT
000229: 01,2222           70326                           MASK     DSPTAB     +11D                       #  LAMPS INTACT ON RESTART.
000230: 01,2223           67745                           AD       BIT15
000231: 01,2224           56326                           XCH      DSPTAB     +11D                       #  IF NO ATT LAMP WAS ON, LEAVE ISS IN
000232: 01,2225           77760                           MASK     BIT4                                  #  COARSE ALIGN.
000233: 01,2226           00006                           EXTEND
000234: 01,2227           05012                           WOR      12
000235:
000236: 01,2230           32571                           CAF      IFAILINH                              #  LEAVE IMU FAILURE INHIBITS INTACT ON
000237: 01,2231           70365                           MASK     IMODES30                              #  RESTART, RESETTING ALL FAILURE CODES.
000238:


000240: 01,2232           62572                           AD       IM30INIR                              #  THE RECORD OF THE ISS OPERATE BIT IS
000241: 01,2233           54365                           TS       IMODES30                              #  ALSO LEFT ALONE (206 ONLY).
000242:
000243: 01,2234           00006                           EXTEND                                         #  SETTING T5RUPT FOR DAPIDLER PROGRAM
000244: 01,2235           32604                           DCA      IDLEADR
000245: 01,2236           53001                           DXCH     T5ADR
000246:
000247: 01,2237           35660                           CAF      PRIO37                                #  DISPLAY FAILREG AS INDICATION OF RESTART
000248: 01,2240           05505                           TC       NOVAC                                 #  OR TO DISPLAY ABORT CODE AS ABOVE.
000249: 01,2241  E3,1400                                  EBANK=   LST1
000250: 01,2241           02106 16063                     2CADR    DOALARM
000251:
000252: 01,2243           40346                           CS       T4LOC                                 #  SEE IF LMP COMMAND WAS SITTING IN CH 10
000253: 01,2244           62561                           AD       LLMPRS2                               #  WHEN RESTART OCCURRED.  IF SO, SET BIT 15
000254: 01,2245           00006                           EXTEND                                         #  BACK TO ZERO SO THE COMMAND WILL BE
000255: 01,2246           12255                           BZF      LMPRUPT                               #  RESENT.
000256:
000257: 01,2247           11145                           CCS      LMPOUTT                               #  IF NOT, SEE IF UPDATE OF REFERENCE
000258: 01,2250           67763                           AD       ONE                                   #  POINTER (LMPOUT) WAS IN PROCESS.  IF SO,
000259: 01,2251           55144                           TS       LMPOUT                                #  LMPOUTT IS NON-NEGATIVE.
000260: 01,2252           47763                           CS       ONE                                   #  SHOW LMPOUT UPDATED.
000261: 01,2253           55145                           TS       LMPOUTT
000262: 01,2254           12262                           TCF      T4LOCRST
000263:
000264: 01,2255           51144        LMPRUPT            INDEX    LMPOUT
000265: 01,2256           41133                           CS       LMPCMD
000266: 01,2257           77745                           MASK     BIT15
000267: 01,2260           51144                           INDEX    LMPOUT
000268: 01,2261           27133                           ADS      LMPCMD
000269:
000270: 01,2262           34276        T4LOCRST           CAF      LNORMT4
000271: 01,2263           54346                           TS       T4LOC
000272:
000273: 01,2264           37760                           CA       BIT4                                  #  TURN THROTTLE COUNTER ON.  (IF EMPTY,
000274: 01,2265           00006                           EXTEND                                         #  NO HARM DONE.  IF NON-EMPTY, ASSUME
000275: 01,2266           05014                           WOR      14                                    #  CONTENTS ARE VALID.)
000276:
000277: 01,2267           37750                           CAF      BIT12                                 #  TEST THE RESTARTABILITY FLAG.
000278: 01,2270           70075                           MASK     FLAGWRD1
000279: 01,2271           10000                           CCS      A
000280: 01,2272           12275                           TCF      +3                                    #  RESTARTABLE.
000281: 01,2273           05225                           TC       POSTJUMP                              #  NOT RESTARTABLE.  DO A FAKESTART.
000282: 01,2274           16000                           CADR     FAKESTRT
000283:
000284: 01,2275           00003        GOPROG2            RELINT
000285: 01,2276           12277                           NOOP
000286: 01,2277           00004                           INHINT                                         #  LET AN INTERRUPT IN
000287:
000288: 01,2300           37766                           CAF      NUMGRPS                               #  VERIFY PHASE TABLE AGREEMENT.
000289: 01,2301           54151        PCLOOP             TS       MPAC       +5


000291: 01,2302           60000                           DOUBLE
000292: 01,2303           00006                           EXTEND
000293: 01,2304           50000                           INDEX    A
000294: 01,2305           31100                           DCA      -PHASE1                               #  COMPLEMENT INTO A, DIRECT INTO L.
000295: 01,2306           00006                           EXTEND
000296: 01,2307           06001                           RXOR     L                                     #  RESULT MUST BE -0 FOR AGREEMENT.
000297: 01,2310           10000                           CCS      A
000298: 01,2311           12347                           TCF      PTBAD                                 #  RESTART FAILURE.
000299: 01,2312           12347                           TCF      PTBAD
000300: 01,2313           12347                           TCF      PTBAD
000301:
000302: 01,2314           10151                           CCS      MPAC       +5                         #  PROCESS ALL RESTART GROUPS.
000303: 01,2315           12301                           TCF      PCLOOP
000304:
000305: 01,2316           54152                           TS       MPAC       +6                         #  SET TO +0.
000306:
000307: 01,2317           37766                           CAF      NUMGRPS                               #  SEE IF ANY GROUPS RUNNING.
000308: 01,2320           54151        NXTRST             TS       MPAC       +5
000309: 01,2321           60000                           DOUBLE
000310: 01,2322           50000                           INDEX    A
000311: 01,2323           11100                           CCS      PHASE1
000312: 01,2324           12326                           TCF      PACTIVE                               #  PNZ - GROUP ACTIVE.
000313: 01,2325           12333                           TCF      PINACT                                #  +0 - GROUP NOT RUNNING.
000314:
000315: 01,2326           54144        PACTIVE            TS       MPAC
000316: 01,2327           24144                           INCR     MPAC                                  #  ABS OF PHASE.
000317: 01,2330           24152                           INCR     MPAC       +6                         #  INDICATE GROUP DEMANDS PRESENT.
000318: 01,2331           32353                           CA       RACTCADR                              #  GO TO RESTARTS AND PROCESS PHASE INFO.
000319: 01,2332           05212                           TC       SWCALL                                #  MUST RETURN TO SWRETURN.
000320:
000321: 01,2333           10151        PINACT             CCS      MPAC       +5                         #  PROCESS ALL RESTART GROUPS.
000322: 01,2334           12320                           TCF      NXTRST
000323:
000324: 01,2335           10152                           CCS      MPAC       +6                         #  SEE IF ANY GROUPS WERE ACTIVE.
000325: 01,2336           12143                           TCF      ENDRSTRT                              #  YES, THERE WERE.
000326:
000327: 01,2337           04755                           TC       ALARM                                 #  RESTART WITH NO ACTIVE GROUPS.
000328: 01,2340           01110                           OCT      1110
000329:
000330: 01,2341           40075                           CS       FLAGWRD1                              #  WAS THE RESTARTABILITY FLAG SET?
000331: 01,2342           77750                           MASK     BIT12
000332: 01,2343           10000                           CCS      A
000333: 01,2344           12607                           TCF      P00H2                                 #  NO.
000334: 01,2345           54302                           TS       MODREG                                #  YES.  SET MAJOR MODE TO 00.
000335: 01,2346           12143                           TCF      ENDRSTRT
000336:
000337: 01,2347           04755        PTBAD              TC       ALARM                                 #  SET ALARM TO SHOW PHASE TABLE FAILURE.
000338: 01,2350           01107                           OCT      1107
000339:
000340: 01,2351           00004                           INHINT


000342: 01,2352           12042                           TCF      DOFSTART
000343:
000344: 01,2353           14377        RACTCADR           CADR     RESTARTS
000345:
000346: 01,2354           00004        ENEMA              INHINT                                         #  HAVING PRESET PHASE REGISTERS, DO A
000347: 01,2355           02374                           TC       STARTSB2                              #  PSEUDO-RESTART.  (THE RESTARTABILITY
000348: 01,2356           12275                           TCF      GOPROG2                               #  FLAG MUST BE SET WHEN ENEMA IS CALLED.)
000349:


000351:                                                                                                  #  INITIALIZATION COMMON TO BOTH FRESH START AND RESTART.
000352:
000353: 01,2357           37767        STARTSUB           CA       ZERO
000354: 01,2360           00006                           EXTEND                                         #  TURN THE RCS JETS OFF.
000355: 01,2361           01005                           WRITE    5
000356: 01,2362           00006                           EXTEND
000357: 01,2363           01006                           WRITE    6
000358:
000359: 01,2364           00006                           EXTEND
000360: 01,2365           01012                           WRITE    12                                    #  TURN OFF TRIM GIMBAL.
000361:
000362: 01,2366           37743                           CA       POSMAX
000363: 01,2367           54026                           TS       TIME3                                 #  37777 TO TIME3.
000364: 01,2370           65336                           AD       MINUS2
000365: 01,2371           54027                           TS       TIME4                                 #  37775 TO TIME4.
000366: 01,2372           67771                           AD       NEGONE
000367: 01,2373           54030                           TS       TIME5                                 #  37774 TO TIME5.
000368:
000369: 01,2374           37767        STARTSB2           CAF      ZERO                                  #  ENTRY FROM P00 AND FORGETIT.
000370: 01,2375           00006                           EXTEND
000371: 01,2376           01007                           WRITE    7                                     #  NOTHING IN SUNBURST IS IN BANKS 40 - 43.
000372: 01,2377           00006                           EXTEND
000373: 01,2400           01011                           WRITE    11
000374: 01,2401           00006                           EXTEND
000375: 01,2402           01014                           WRITE    14
000376:
000377: 01,2403           32567                           CA       TRIMGIMB                              #  TURN OFF ALL BITS BUT TRIM GIMBAL.
000378: 01,2404           00006                           EXTEND
000379: 01,2405           03012                           WAND     12
000380:
000381: 01,2406           35655                           CAF      PRIO34                                #  ENABLE INTERRUPTS.
000382: 01,2407           00006                           EXTEND
000383: 01,2410           01013                           WRITE    13
000384:
000385: 01,2411  E3,1400                                  EBANK=   LST1
000386:
000387: 01,2411           32564                           CAF      STARTEB
000388: 01,2412           54003                           TS       EBANK                                 #  SET FOR E3
000389:
000390: 01,2413           37744                           CAF      NEG1/2                                #  INITIALIZE WAITLIST DELTA-TS.
000391: 01,2414           55407                           TS       LST1       +7
000392: 01,2415           55406                           TS       LST1       +6
000393: 01,2416           55405                           TS       LST1       +5
000394: 01,2417           55404                           TS       LST1       +4
000395: 01,2420           55403                           TS       LST1       +3
000396: 01,2421           55402                           TS       LST1       +2
000397: 01,2422           55401                           TS       LST1       +1
000398: 01,2423           55400                           TS       LST1
000399:
000400: 01,2424           45714                           CS       ENDTASK


000402: 01,2425           55410                           TS       LST2
000403: 01,2426           55412                           TS       LST2       +2
000404: 01,2427           55414                           TS       LST2       +4
000405: 01,2430           55416                           TS       LST2       +6
000406: 01,2431           55420                           TS       LST2       +8D
000407: 01,2432           55422                           TS       LST2       +10D
000408: 01,2433           55424                           TS       LST2       +12D
000409: 01,2434           55426                           TS       LST2       +14D
000410: 01,2435           55430                           TS       LST2       +16D
000411: 01,2436           45715                           CS       ENDTASK    +1
000412: 01,2437           55411                           TS       LST2       +1
000413: 01,2440           55413                           TS       LST2       +3
000414: 01,2441           55415                           TS       LST2       +5
000415: 01,2442           55417                           TS       LST2       +7
000416: 01,2443           55421                           TS       LST2       +9D
000417: 01,2444           55423                           TS       LST2       +11D
000418: 01,2445           55425                           TS       LST2       +13D
000419: 01,2446           55427                           TS       LST2       +15D
000420: 01,2447           55431                           TS       LST2       +17D
000421:
000422: 01,2450           47767                           CS       ZERO                                  #  MAKE ALL EXECUTIVE REGISTER SETS
000423: 01,2451           54157                           TS       PRIORITY                              #  AVAILABLE.
000424: 01,2452           54173                           TS       PRIORITY   +12D
000425: 01,2453           54207                           TS       PRIORITY   +24D
000426: 01,2454           54223                           TS       PRIORITY   +36D
000427: 01,2455           54237                           TS       PRIORITY   +48D
000428: 01,2456           54253                           TS       PRIORITY   +60D
000429: 01,2457           54267                           TS       PRIORITY   +72D
000430:
000431: 01,2460           54067                           TS       NEWJOB                                #  SHOWS NO ACTIVE JOBS.
000432:
000433: 01,2461           32562                           CAF      VAC1ADRC                              #  MAKE ALL VAC AREAS AVAILABLE.
000434: 01,2462           54430                           TS       VAC1USE
000435: 01,2463           62563                           AD       LTHVACA
000436: 01,2464           54504                           TS       VAC2USE
000437: 01,2465           62563                           AD       LTHVACA
000438: 01,2466           54560                           TS       VAC3USE
000439: 01,2467           62563                           AD       LTHVACA
000440: 01,2470           54634                           TS       VAC4USE
000441: 01,2471           62563                           AD       LTHVACA
000442: 01,2472           54710                           TS       VAC5USE
000443:
000444: 01,2473           34570                           CAF      TEN                                   #  TURN OFF ALL DISPLAY SYSTEM RELAYS.
000445: 01,2474           54350                           TS       DIDFLG                                #  DISPLAY INERTIAL DATA FLAG.
000446: 01,2475           54144        DSPOFF             TS       MPAC
000447: 01,2476           47750                           CS       BIT12
000448: 01,2477           50144                           INDEX    MPAC
000449: 01,2500           54313                           TS       DSPTAB
000450: 01,2501           10144                           CCS      MPAC
000451: 01,2502           12475                           TCF      DSPOFF


000453: 01,2503           54045                           TS       INLINK
000454: 01,2504           54345                           TS       DSPCNT
000455: 01,2505           54327                           TS       CADRSTOR
000456: 01,2506           54304                           TS       REQRET
000457: 01,2507           54306                           TS       CLPASS
000458: 01,2510           54303                           TS       DSPLOCK
000459: 01,2511           54311                           TS       MONSAVE                               #  KILL MONITOR
000460: 01,2512           54312                           TS       MONSAVE1
000461: 01,2513           54330                           TS       GRABLOCK
000462: 01,2514           54272                           TS       VERBREG
000463: 01,2515           54273                           TS       NOUNREG
000464: 01,2516           54333                           TS       DSPLIST
000465: 01,2517           54334                           TS       DSPLIST    +1
000466: 01,2520           54335                           TS       DSPLIST    +2
000467:
000468: 01,2521           54373                           TS       MARKSTAT
000469: 01,2522           54336                           TS       EXTVBACT                              #  MAKE EXTENDED VERBS AVAILABLE
000470: 01,2523           54367                           TS       IMUCADR
000471: 01,2524           54370                           TS       OPTCADR
000472: 01,2525           54371                           TS       RADCADR
000473: 01,2526           54372                           TS       ATTCADR
000474: 01,2527           54356                           TS       LGYRO
000475: 01,2530           54347                           TS       DSRUPTSW
000476: 01,2531           37764                           CAF      NOUTCON
000477: 01,2532           54307                           TS       NOUT
000478:
000479: 01,2533           47763                           CS       ONE                                   #  NO RADAR DESIGNATION.
000480: 01,2534           54413                           TS       SAMPLIM                               #  NO RADAR RUPTS EXPECTED.
000481:
000482: 01,2535           32573                           CAF      IM33INIT                              #  NO PIP OR TM FAILS.
000483: 01,2536           54366                           TS       IMODES33
000484:
000485: 01,2537           37756                           CAF      BIT6                                  #  SET LR POS.
000486: 01,2540           00006                           EXTEND
000487: 01,2541           02033                           RAND     33
000488: 01,2542           62575                           AD       RMODINIT
000489: 01,2543           54412                           TS       RADMODES
000490:
000491: 01,2544           32560                           CAF      LESCHK                                #  SELF CHECK GO-TO REGISTER.
000492: 01,2545           55354                           TS       SELFRET
000493:
000494: 01,2546           44565                           CS       VD1
000495: 01,2547           54270                           TS       DSPCOUNT
000496:
000497: 01,2550           32555                           CAF      NOMTMLST                              #  SET UP NOMINAL DOWNLINK LIST.
000498: 01,2551           54411                           TS       DNLSTADR
000499:
000500: 01,2552           00002                           TC       Q
000501:
000502: 01,2553           02006        LDNPHAS1           GENADR   DNPHASE1


000504: 01,2554           03401        LDNTMGO            ECADR    DNTMGOTO
000505: 01,2555           02236        NOMTMLST           GENADR   NOMDNLST
000506: 01,2556           01616        SETCDULM           DEC      0.055555555                            #  10 DEGREES, SCALED IN HALF-REVS.
000507: 01,2557           00306        IDNCDUN            DEC      198        B-14                       #  199 CDU SAMPLES + ONE ID = 4 SECS.
000508: 01,2560           02115        LESCHK             GENADR   SELFCHK
000509: 01,2561           02013        LLMPRS2            GENADR   LMPRESET
000510: 01,2562           00430        VAC1ADRC           ADRES    VAC1USE
000511: 01,2563           00054        LTHVACA            DEC      44         B-14
000512: 01,2564           01400        STARTEB            ECADR    LST1
000513: 01,2565     7766               NUMGRPS            EQUALS   FIVE                                  #  SIX GROUPS CURRENTLY.
000514: 01,2565           77755        -ELR               OCT      -22                                   #  -ERROR LIGHT RESET KEY CODE.
000515: 01,2566           77757        -MKREJ             OCT      -20                                   #  - MARK REJECT.
000516: 01,2567           07400        TRIMGIMB           OCT      07400                                 #  TRIM GIMBAL DRIVE BITS IN CHANNEL 12.
000517: 01,2570           37411        IM30INIF           OCT      37411                                 #  INHIBITS IMU FAIL FOR 5 SEC AND PIP ISSW
000518: 01,2571           00435        IFAILINH           OCT      435                                   #  ISS OPERATE, & FAILURE INHIBIT BITS.
000519: 01,2572           37000        IM30INIR           OCT      37000                                 #  LEAVE FAIL INHIBITS & OPERATE ALONE.
000520: 01,2573           16000        IM33INIT           OCT      16000                                 #  NO PIP OR TM FAIL SIGNALS.
000521: 01,2574           00450        9,6,4              OCT      450
000522: 01,2575           00102        RMODINIT           OCT      00102
000523:
000524: 01,2576           00000        SWINIT             OCT      0
000525: 01,2577           00000                           OCT      0
000526: 01,2600           00005                           OCT      00005
000527: 01,2601           40512        DAPINIT            OCT      40512                                 #  DB SET IN SETIDLE
000528: 01,2602           00000                           OCT      0
000529:
000530: 01,2603  E6,1542                                  EBANK=   DT
000531: 01,2603           02037 34066  IDLEADR            2CADR    DAPIDLER
000532:
000533: 01,2605  E6,1542                                  EBANK=   DT
000534: 01,2605           03606 34066  SETADR             2CADR    SETIDLE
000535:


000537:                                                                                                  #  PROGRAM TO REVERT TO IDLING MODE (P 00).
000538:
000539:                                                                                                  #  CALLING SEQUENCE:  TC (OR TCF)   POOH     UNDER EXEC (NOT INTERRUPTED).
000540:
000541:    4272                                           BLOCK    2
000542:
000543:    4272           05225        P00H               TC       POSTJUMP
000544:    4273           02607                           CADR     P00H2                                 #  DO A PARTIAL FRESH START.
000545:
000546:
000547: 01,2607                                           BANK     01
000548: 01,2607           00004        P00H2              INHINT
000549: 01,2610           02374                           TC       STARTSB2
000550:
000551: 01,2611           05270                           TC       IBNKCALL
000552: 01,2612           40114                           CADR     STOPRATE
000553:
000554: 01,2613           05270                           TC       IBNKCALL
000555: 01,2614           40054                           CADR     SETMAXDB
000556:
000557: 01,2615           06067                           TC       FLAG1DWN                              #  FOR A MOMENT, INDICATE NON-RESTART-
000558: 01,2616           04000                           OCT      4000                                  #  ABILITY, SO A RESTART HERE WILL DO POOH.
000559:
000560: 01,2617           06076                           TC       FLAG2DWN
000561: 01,2620           00020                           OCT      20                                    #  TURN OFF MISSION TIMER FLAG.
000562:
000563: 01,2621           00004                           INHINT
000564: 01,2622           02151                           TC       MR.CLEAN                              #  DEACTIVATE ALL RESTART GROUPS.
000565:
000566: 01,2623           32625                           CA       LP00H3                                #  PICK UP RETURN FOR MSTART.
000567: 01,2624           05161                           TC       MSTART     -1                         #  START MISSION TIMERS COUNTING.
000568:                                                                                                  #  WE GET A RELINT AT MSTART.
000569:
000570:
000571: 01,2625           02140        LP00H3             ADRES    P00H3
000572:


000574:                                                                                                  #  FAKESTRT IS ENTERED FROM GOPROG WHEN A RESTART OCCURS AND THE RESTARTABILITY FLAG IS OFF.
000575:
000576: 07,2000                                           BANK     7
000577: 07,2000           04755        FAKESTRT           TC       ALARM
000578: 07,2001           00316                           OCT      0316                                  #  FAKESTRT ALARM
000579:
000580: 07,2002           12014                           TCF      FORGET2
000581:
000582:
000583:                                                                                                  #  FORGETIT IS ENTERED FROM:
000584:                                                                                                  #           1)  FAKESTRT (VIA FORGET2).
000585:                                                                                                  #           2)  VERB 74 UPLINK COMMAND.
000586:                                                                                                  #           3)  ILLEGAL MISSION PHASE COMES DUE IN MISSION SCHEDULING ROUTINE.
000587:                                                                                                  #           4)  ENGINE FAILURE, ETC.
000588:
000589: 07,2003           00004        DOV74              INHINT
000590: 07,2004           05270                           TC       IBNKCALL
000591: 07,2005           02374                           CADR     STARTSB2
000592:
000593: 07,2006           12014                           TCF      FORGET2                               #  BYPASS THE PROGRAM ALARM & 315 DISPLAY.
000594:
000595: 07,2007           00004        FORGETIT           INHINT
000596: 07,2010           05270                           TC       IBNKCALL
000597: 07,2011           02374                           CADR     STARTSB2
000598:
000599: 07,2012           04755                           TC       ALARM
000600: 07,2013           00315                           OCT      315                                   #  UNIQUE ALARM FOR FORGETIT.
000601:
000602: 07,2014           06067        FORGET2            TC       FLAG1DWN                              #  ENTRY FROM FAKESTRT.
000603: 07,2015           04000                           OCT      04000                                 #  KNOCK DOWN RESTART FLAG TO PERMIT POOH.
000604:
000605: 07,2016           00004                           INHINT
000606: 07,2017           00006                           EXTEND
000607: 07,2020           32102                           DCA      KILLCAD
000608: 07,2021           53075                           DXCH     DVMNEXIT
000609:
000610: 07,2022           00006                           EXTEND
000611: 07,2023           32100                           DCA      CADAVER
000612: 07,2024           53073                           DXCH     AVGEXIT
000613:
000614: 07,2025           32076                           CAF      PINGSMON
000615: 07,2026           55346                           TS       OLDDVSEL
000616: 07,2027           55310                           TS       DVSELECT
000617:
000618: 07,2030           05270                           TC       IBNKCALL
000619: 07,2031           40263                           CADR     ENGINOFF
000620:
000621: 07,2032           05270                           TC       IBNKCALL
000622: 07,2033           40114                           CADR     STOPRATE
000623:


000625: 07,2034           05270                           TC       IBNKCALL
000626: 07,2035           40066                           CADR     NOULLAGE
000627:
000628: 07,2036           05270                           TC       IBNKCALL
000629: 07,2037           40054                           CADR     SETMAXDB
000630:
000631: 07,2040           42075                           CS       BGIMBALS                              #  TURN OFF TRIM GIMBALS
000632: 07,2041           00006                           EXTEND
000633: 07,2042           03012                           WAND     12
000634:
000635: 07,2043           47767                           CS       ZERO                                  #  MAKE ALL RESTART PHASES INACTIVE EXCEPT
000636: 07,2044           22007                           ZL                                             #  SERVICER AND STATE VECTOR COPY.
000637: 07,2045           53102                           DXCH     -PHASE2
000638: 07,2046           47767                           CS       ZERO
000639: 07,2047           22007                           ZL
000640: 07,2050           53104                           DXCH     -PHASE3
000641: 07,2051           47767                           CS       ZERO
000642: 07,2052           22007                           ZL
000643: 07,2053           53106                           DXCH     -PHASE4
000644: 07,2054           47767                           CS       ZERO
000645: 07,2055           22007                           ZL
000646: 07,2056           53112                           DXCH     -PHASE6
000647:
000648: 07,2057           47767                           CS       ZERO
000649: 07,2060           55173                           TS       MPHASE1                               #  SET TIMER/PHASE PAIRS TO IDLE STATE
000650: 07,2061           55172                           TS       MPHASE2
000651: 07,2062           55171                           TS       MPHASE3
000652: 07,2063           55170                           TS       MPHASE4
000653: 07,2064           55164                           TS       MTIMER4
000654: 07,2065           55165                           TS       MTIMER3
000655: 07,2066           55166                           TS       MTIMER2
000656: 07,2067           55167                           TS       MTIMER1
000657:
000658: 07,2070           05225                           TC       POSTJUMP
000659: 07,2071           02275                           CADR     GOPROG2
000660:
000661:
000662: 07,2072           06067        AVEGKILL           TC       FLAG1DWN                              #  COMES HERE WHEN ENGINE OFF
000663: 07,2073           00041                           OCT      00041                                 #  KNOCK DOWN POOH FLAG AND AVERAGEG FLAG
000664:
000665: 07,2074           15567                           TCF      ENDOFJOB
000666:
000667:
000668: 07,2075           07400        BGIMBALS           OCT      7400
000669:
000670: 07,2076           02237        PINGSMON           GENADR   PGNCSMON
000671: 07,2077  E3,1400                                  EBANK=   LST1
000672: 07,2077           02324 60063  CADAVER            2CADR    SERVEXIT
000673:


000675: 07,2101  E3,1400                                  EBANK=   LST1
000676: 07,2101           02072 16063  KILLCAD            2CADR    AVEGKILL

End of include-file FRESH_START_AND_RESTART.agc.  Parent file is MAIN.agc


