
Source Code


000002:                                                                                                  ## Copyright:   Public domain.
000003:                                                                                                  ## Filename:    GIMBAL_LOCK_AVOIDANCE.agc
000004:                                                                                                  ## Purpose:     A module for revision 0 of BURST120 (Sunburst). It
000005:                                                                                                  ##              is part of the source code for the Lunar Module's
000006:                                                                                                  ##              (LM) Apollo Guidance Computer (AGC) for Apollo 5.
000007:                                                                                                  ## Assembler:   yaYUL
000008:                                                                                                  ## Contact:     Ron Burkey <info@sandroid.org>.
000009:                                                                                                  ## Website:     www.ibiblio.org/apollo/index.html
000010:                                                                                                  ## Mod history: 2016-09-30 RSB  Created draft version.
000011:                                                                                                  ##              2016-10-22 MAS  Transcribed.
000012:                                                                                                  ##              2016-10-31 RSB  Typos.
000013:                                                                                                  ##              2016-11-01 RSB  More typos.
000014:                                                                                                  ##              2016-12-06 RSB  Comments proofed using octopus/ProoferComments,
000015:                                                                                                  ##                              changes made.
000016:                                                                                                  ##              2017-06-13 RSB  Corrected typos discovered while transcribing
000017:                                                                                                  ##                              Sunburst 37.
000018:


000020:                                                                                                  #  DETECTING GIMBAL LOCK
000021: 34,3006           51545        LOCSKIRT           DLOAD    ABS
000022: 34,3007           01624                                    COF
000023: 34,3010           51025                           DSU      BPL                                   #  IF (ABS(COF )-CNGL) POS, GO TO NOGIMLOC
000024: 34,3011           30442                                    CNGL                                  #             0
000025: 34,3012           71437                                    NOGIMLOC
000026: 34,3013           41345                           DLOAD    DMP
000027: 34,3014           01624                                    COF
000028: 34,3015           01630                                    COF        +4
000029: 34,3016           65352                           SL1      PDDL
000030: 34,3017           01624                                    COF
000031: 34,3020           72405                           DMP      SL1
000032: 34,3021           01626                                    COF        +2
000033: 34,3022           63525                           PDDL     DSQ
000034: 34,3023           01624                                    COF
000035: 34,3024           55552                           SL1      VDEF                                  #            2
000036: 34,3025           01602                           STORE    K1                                    #  V1 = (COF  , COF COF , COF COF )      $2
000037: 34,3026           53276                           VCOMP    VAD                                   #           0      0   1     0   2
000038: 34,3027           30414                                    HALFA                                 #  -
000039: 34,3030           15610                           STODL    K2                                    #  V2 = ((1-V1 ), -V1 , -V1 )            $2
000040: 34,3031           01626                                    COF        +2                         #             0      1     2
000041: 34,3032           65276                           DCOMP    PDDL
000042: 34,3033           01630                                    COF        +4
000043: 34,3034           55525                           PDDL     VDEF                                  #  -
000044: 34,3035           30416                                    NIL                                   #  V3 = (0, COF , -COF )
000045: 34,3036           25616                           STOVL    K3                                    #              2      1
000046: 34,3037           01544                                    MIS        +6                         #  -    -
000047: 34,3040           01635                           STORE    IG                                    #  IG = MIS                              $2
000048: 34,3041           76521                           MXV      VSL1                                  #          3
000049: 34,3042           01602                                    K1                                    #                     -   -   -   -
000050: 34,3043           15602                           STODL    P21                                   #  (P21, D21, G21) = (V1, V2, V3) IG     $2
000051: 34,3044           01606                                    G21
000052: 34,3045           65316                           DSQ      PDDL
000053: 34,3046           01604                                    D21
000054: 34,3047           43316                           DSQ      DAD
000055: 34,3050           77766                           SQRT                                           #                2      2
000056: 34,3051           01647                           STORE    RAD                                   #  RAD = SQRT(D21 D21 + G21 G21)
000057: 34,3052           50025                           DSU      BMN
000058: 34,3053           30440                                    SNGLCD                                #  IF (RAD-SNGLCD) NEG, GO TO NOGIMLOC
000059: 34,3054           71437                                    NOGIMLOC
000060: 34,3055           51145                           DLOAD    BPL
000061: 34,3056           01606                                    G21
000062: 34,3057           71066                                    OKG21
000063: 34,3060           57575                           VLOAD    VCOMP                                 #  IF G21 IS NEG ...
000064: 34,3061           01635                                    IG                                    #     -    -
000065: 34,3062           15635                           STODL    IG                                    #     IG =-IG, RAD =-RAD
000066: 34,3063           01647                                    RAD
000067: 34,3064           77676                           DCOMP
000068: 34,3065           01647                           STORE    RAD
000069:


000071: 34,3066           43345        OKG21              DLOAD    DAD                                   #  IF G21 IS POS....
000072: 34,3067           01602                                    P21
000073: 34,3070           01647                                    RAD                                   #     IF (ABS(P21+RAD)-SD) NEG, GO NOGIMLOC
000074: 34,3071           51400                           BOV      ABS
000075: 34,3072           71076                                    CBMCALC
000076: 34,3073           50025                           DSU      BMN                                   #     CBM = D21/RAD                      $2
000077: 34,3074           30430                                    SD
000078: 34,3075           71437                                    NOGIMLOC
000079: 34,3076           70545        CBMCALC            DLOAD    SR1
000080: 34,3077           01604                                    D21
000081: 34,3100           44271                           DDV      BDSU
000082: 34,3101           01647                                    RAD
000083: 34,3102           01645                                    CAM
000084: 34,3103           71244                           BPL      DLOAD
000085: 34,3104           71437                                    NOGIMLOC
000086: 34,3105           01574                                    MFI        +12D
000087: 34,3106           65325                           PDDL     PDDL
000088: 34,3107           01566                                    MFI        +6
000089: 34,3110           01560                                    MFI                                   #  -
000090: 34,3111           76466                           VDEF     VSL1                                  #  OGF = (MFI , MFI , MFI )              $2
000091: 34,3112           15616                           STODL    OGF                                   #            0     3     6
000092: 34,3113           01616                                    OGF
000093: 34,3114           50015                           DAD      BMN
000094: 34,3115           30442                                    CNGL                                  #  IF ((OGF ) + CNGL) NEG, GO TO ALTE
000095: 34,3116           71134                                    ALTE                                  #          0
000096: 34,3117           47375                           VLOAD    VXV
000097: 34,3120           30414                                    HALFA
000098: 34,3121           01616                                    OGF
000099: 34,3122           77656                           UNIT
000100: 34,3123           25560                           STOVL    E1                                    #  E1 = UNIT(OGI X OGF)
000101: 34,3124           01616                                    OGF
000102: 34,3125           53455                           VAD      UNIT
000103: 34,3126           30414                                    HALFA
000104: 34,3127           77650                           GOTO
000105: 34,3130           71150                                    STORE2                                #  E2 = UNIT(OGI X OGF)
000106: 34,3131           52175        SETE1              VLOAD    GOTO
000107: 34,3132           30420                                    NIL        +2
000108: 34,3133           71141                                    STOREE1                               #  E1 = (0,0,1)
000109: 34,3134           47375        ALTE               VLOAD    VXV
000110: 34,3135           30414                                    HALFA
000111: 34,3136           01616                                    OGF
000112: 34,3137           40056                           UNIT     BOV
000113: 34,3140           71131                                    SETE1
000114: 34,3141           01560        STOREE1            STORE    E1
000115: 34,3142           77635                           VXV
000116: 34,3143           30414                                    HALFA
000117: 34,3144           47315                           PDVL     VXV
000118: 34,3145           01616                                    OGF
000119: 34,3146           01560                                    E1
000120: 34,3147           53455                           VAD      UNIT                                  #  E2 = UNIT(E1 X OGI + OGF X E1)
000121:


000123: 34,3150           77626        STORE2             STADR                                          #  -         -     -
000124: 34,3151           76211                           STORE    E2                                    #  E2 = UNIT(OGI + OGF)                  $2
000125: 34,3152           50201                           SETPD    DOT
000126: 34,3153           00001                                    0
000127: 34,3154           01635                                    IG                                    #       -  -
000128: 34,3155           41552                           SL1      PUSH                                  #  PD0 K2                                $2
000129: 34,3156           72516                           DSQ      SL1
000130: 34,3157           50315                           PDVL     DOT                                   #  PD2 (K2 K2)                           $2
000131: 34,3160           01560                                    E1
000132: 34,3161           01635                                    IG
000133: 34,3162           41552                           SL1      PUSH                                  #  PD4 K1                                $2
000134: 34,3163           72516                           DSQ      SL1
000135: 34,3164           45325                           PDDL     DSU                                   #  PD6 (K1 K1)                           $2
000136: 34,3165           30436                                    K4SQ                                  #  = COS(D)COS(D)                        $2
000137: 34,3166           00007                                    6
000138: 34,3167           63406                           PUSH     DSQ                                   #  PD8 D1                                $2
000139: 34,3170           41325                           PDDL     DMP                                   #  PD10 (D1 D1)                          $4
000140: 34,3171           01566                                    E2                                    #  (K5)
000141: 34,3172           30432                                    K3S1                                  #  SIN(D)                                $1
000142: 34,3173           62405                           DMP      SL2
000143: 34,3174           00001                                    0                                     #  K2
000144: 34,3175           63525                           PDDL     DSQ                                   #  PD12 2 K2 K3 K5                       $2
000145: 34,3176           01566                                    E2
000146: 34,3177           44352                           SL1      BDSU                                  #  K5K5 $2   PUSH UP 2 K2 K3 K5          $2
000147: 34,3200           43225                           DSU      DAD
000148: 34,3201           00003                                    2
000149: 34,3202           00007                                    6
000150: 34,3203           63406                           PUSH     DSQ                                   #  PD12 D2                               $2
000151: 34,3204           41325                           PDDL     DMP                                   #  PD14 (D2 D2)                          $4
000152: 34,3205           01566                                    E2
000153: 34,3206           30432                                    K3S1
000154: 34,3207           41421                           BDSU     PUSH
000155: 34,3210           00001                                    0                                     #  PD16 B1                               $2
000156: 34,3211           77605                           DMP
000157: 34,3212           00005                                    4                                     #  B1 K1                                 $4
000158: 34,3213           41552                           SL1      PUSH                                  #  PD18 B1 K1                            $2
000159: 34,3214           65316                           DSQ      PDDL                                  #  PD22 B1 B1 K1 K1                      $4
000160: 34,3215           00011                                    8D
000161: 34,3216           41405                           DMP      PUSH                                  #  PD22 D1 D2                            $4
000162: 34,3217           00015                                    12D
000163: 34,3220           45221                           BDSU     DSU
000164: 34,3221           00025                                    20D
000165: 34,3222           00013                                    10D                                   #  RSQ                                   $4
000166: 34,3223           41366                           SQRT     DMP
000167: 34,3224           00023                                    18D
000168: 34,3225           70525                           PDDL     SR1                                   #  PD24 RADICAL                          $8
000169: 34,3226           00017                                    14D
000170: 34,3227           72525                           PDDL     SL1                                   #  PD26 (D2 D2)                          $8
000171: 34,3230           00025                                    20D                                   #  4(B1 B1 K1 K1)                        $8
000172: 34,3231           77615                           DAD                                            #  PUSH UP FOR (D2 D2)                   $8


000174: 34,3232           70525                           PDDL     SR1                                   #  PD26 DENOMR (D2 D2)
000175: 34,3233           00027                                    22D
000176: 34,3234           41421                           BDSU     PUSH                                  #  PD28 NUM
000177: 34,3235           00025                                    20D
000178: 34,3236           56215                           DAD      DDV                                   #  NUM
000179: 34,3237           00031                                    24D                                   #   + RADICAL
000180: 34,3240           00033                                    26D                                   #  DENOM
000181: 34,3241           60404                           BOVB     SR2
000182: 34,3242           73501                                    SIGNMPAC
000183: 34,3243           01610                           STORE    C2SQP                                 #                                        $4
000184: 34,3244           77766                           SQRT
000185: 34,3245           15614                           STODL    C2PP                                  #                                        $2
000186: 34,3246           00031                                    24D                                   #  NUM
000187: 34,3247           56221                           BDSU     DDV                                   #  PUSH UP FOR NUM, DENOM
000188: 34,3250           60404                           BOVB     SR2
000189: 34,3251           73501                                    SIGNMPAC
000190: 34,3252           01612                           STORE    C2SQM                                 #                                        $4
000191: 34,3253           77766                           SQRT
000192: 34,3254           15616                           STODL    C2MP                                  #                                        $2
000193: 34,3255           30426                                    QUARTA                                #  1                                     $4
000194: 34,3256           75425                           DSU      SQRT
000195: 34,3257           01610                                    C2SQP
000196: 34,3260           15620                           STODL    C1PP                                  #                                        $2
000197: 34,3261           30426                                    QUARTA
000198: 34,3262           75425                           DSU      SQRT
000199: 34,3263           01612                                    C2SQM
000200: 34,3264           01622                           STORE    C1MP                                  #                                        $2
000201: 34,3265           66370                           AXT,1    SSP
000202: 34,3266           00004                                    4
000203: 34,3267           00051                                    S1
000204: 34,3270           00002                                    2
000205: 34,3271           71201        NORM               SETPD    DLOAD
000206: 34,3272           00023                                    18D
000207: 34,3273           00021                                    16D                                   #  B1                                    $2
000208: 34,3274           65203                           DMP*     PDDL                                  #  PD18 = -Q                             $4
000209: 34,3275           01620                                    C2PP       +4,1
000210: 34,3276           01566                                    E2
000211: 34,3277           40716                           DSQ      DMP*
000212: 34,3300           01614                                    C2SQP      +4,1
000213: 34,3301           44312                           SL2      BDSU
000214: 34,3302           30426                                    QUARTA
000215: 34,3303           41366                           SQRT     DMP
000216: 34,3304           30434                                    K4                                    #  PD20 = -R                             $4
000217: 34,3305           40725                           PDDL     DMP*
000218: 34,3306           00005                                    4                                     #  K1                                    $2
000219: 34,3307           01624                                    C1PP       +4,1
000220: 34,3310           65246                           ABS      PDDL                                  #  PD22 AC1                              $4
000221: 34,3311           00023                                    18D                                   #  -Q
000222: 34,3312           57415                           DAD      DCOMP
000223: 34,3313           00025                                    20D                                   #  -R


000225: 34,3314           45325                           PDDL     DSU                                   #  PD24 ANSW1 = Q + R                    $4
000226: 34,3315           00023                                    18D                                   #  -Q
000227: 34,3316           00025                                    20D                                   #  +R
000228: 34,3317           41476                           DCOMP    PUSH                                  #  PD26 ANSW2 = Q - R                    $4
000229: 34,3320           45246                           ABS      DSU
000230: 34,3321           00027                                    22D                                   #  AC1
000231: 34,3322           65246                           ABS      PDDL                                  #  PD28 ABS(ABS(ANSW2) -AC1)
000232: 34,3323           00031                                    24D                                   #  ANSW1
000233: 34,3324           45246                           ABS      DSU
000234: 34,3325           00027                                    22D                                   #  AC1
000235: 34,3326           45246                           ABS      DSU                                   #  ABS(ABS(ANSW1)-AC1)
000236: 34,3327           71244                           BPL      DLOAD
000237: 34,3330           71353                                    CKSGNAN2
000238: 34,3331           00031                                    24D                                   #  ANSW1
000239: 34,3332           71244        SIGNANSW           BPL      DLOAD
000240: 34,3333           71345                                    SAMEASK1
000241: 34,3334           00005                                    4                                     #  K1
000242: 34,3335           70640                           BMN      DLOAD*
000243: 34,3336           71342                                    OKC2
000244: 34,3337           01620                                    C2PP       +4,1
000245: 34,3340           77676        OPPSGNC2           DCOMP
000246: 34,3341           05620                           STORE    C2PP       +4,1
000247: 34,3342           52100        OKC2               TIX,1    GOTO
000248: 34,3343           71271                                    NORM
000249: 34,3344           71356                                    OUTCYCLE
000250: 34,3345           51145        SAMEASK1           DLOAD    BPL
000251: 34,3346           00005                                    4                                     #  K1
000252: 34,3347           71342                                    OKC2
000253: 34,3350           52143                           DLOAD*   GOTO
000254: 34,3351           01620                                    C2PP       +4,1
000255: 34,3352           71340                                    OPPSGNC2
000256: 34,3353           52145        CKSGNAN2           DLOAD    GOTO
000257: 34,3354           00033                                    26D                                   #  ANSW2
000258: 34,3355           71332                                    SIGNANSW
000259: 34,3356           77201        OUTCYCLE           SETPD    VLOAD
000260: 34,3357           00001                                    0
000261: 34,3360           01624                                    COF                                   #           -   -
000262: 34,3361           63241                           DOT      PDVL                                  #  PD0 U1 = COF.E1
000263: 34,3362           01560                                    E1
000264: 34,3363           01624                                    COF                                   #           -   -
000265: 34,3364           41441                           DOT      PUSH                                  #  PD2 U2 = COF.E2
000266: 34,3365           01566                                    E2
000267:                                                                                                  #  PICK THE NEW U WHICH IS CLOSEST TO THE OLD U
000268: 34,3366           41370                           AXT,1    DMP
000269: 34,3367           00000                                    0
000270: 34,3370           01614                                    C2PP
000271: 34,3371           41325                           PDDL     DMP                                   #  PD4 U2 C2(0)
000272: 34,3372           01620                                    C1PP
000273: 34,3373           00001                                    0                                     #  U1 C1(0)
000274: 34,3374           51415                           DAD      ABS


000276: 34,3375           41325                           PDDL     DMP                                   #  PD4 ABS(U1 C1(0) + U2 C2(0))
000277: 34,3376           00003                                    2
000278: 34,3377           01616                                    C2MP
000279: 34,3400           41325                           PDDL     DMP                                   #  PD6 U2 C2(1)
000280: 34,3401           00001                                    0
000281: 34,3402           01622                                    C1MP                                  #  PUSH UP U2 C2(1)
000282: 34,3403           51415                           DAD      ABS                                   #  ABS(U1 C1(1) + U2 C2(1))
000283: 34,3404           77625                           DSU                                            #  PUSH UP 4
000284: 34,3405           74040                           BMN      AXC,1
000285: 34,3406           71410                                    JZERO
000286: 34,3407           00002                                    2
000287: 34,3410           74343        JZERO              DLOAD*   VXSC
000288: 34,3411           01620                                    C1PP,1
000289: 34,3412           01560                                    E1
000290: 34,3413           74323                           PDDL*    VXSC
000291: 34,3414           01614                                    C2PP,1
000292: 34,3415           01566                                    E2
000293: 34,3416           77655                           VAD
000294: 34,3417           77656                           UNIT                                           #  NEW COF  -       -
000295: 34,3420           01624                           STORE    COF                                   #  COF = C1 E1 + C2 E2
000296:                                                                                                  #  NEW MANEUVER ANGLE IS
000297: 34,3421           63545                           DLOAD    DSQ
000298: 34,3422           01624                                    COF
000299: 34,3423           44352                           SL1      BDSU                                  #            2
000300: 34,3424           30414                                    HALFA                                 #  (1 - COF )                            $2
000301: 34,3425           63525                           PDDL     DSQ                                   #          0
000302: 34,3426           01566                                    E2
000303: 34,3427           56221                           BDSU     DDV                                   #         2
000304: 34,3430           30426                                    QUARTA                                #  (1 - K5 )                             $4
000305: 34,3431           75542                           SR1      SQRT
000306: 34,3432           72536                           ARCSIN   SL1
000307: 34,3433           01643                           STORE    AM
000308: 34,3434           77614                           CLRGO                                          #  STATE SWITCH NO. 31
000309: 34,3435           01221                                    31D                                   #  0(OFF) = MANEUVER WENT THRU GIMBAL LOCK
000310: 34,3436           71441                                    WCALC                                 #  1(ON) = MANEUVER DID NOT GO THRU GIMLOCK
000311: 34,3437           77614        NOGIMLOC           SET
000312: 34,3440           01061                                    31D
000313: 34,3441           70740        WCALC              LXC,1    DLOAD*
000314: 34,3442           01652                                    RATEINDX                              #  CHOOSE THE DESIRED MANEUVER RATE
000315: 34,3443           31465                                    ARATE,1                               #  FROM A LIST OF FOUR
000316: 34,3444           45002                           SR4      CALL                                  #  COMPUTE THE INCREMENTAL ROTATION MATRIX
000317: 34,3445           70564                                    DELCOMP                               #  DEL CORRESPONDING TO A 1 SEC ROTATION
000318:                                                                                                  #  ABOUT COF
000319: 34,3446           74343                           DLOAD*   VXSC
000320: 34,3447           31465                                    ARATE,1
000321: 34,3450           01624                                    COF
000322: 34,3451           15635                           STODL    BRATE                                 #  COMPONENT MANEUVER RATES 45 DEG/SEC
000323: 34,3452           01643                                    AM
000324: 34,3453           55605                           DMP      DDV*
000325: 34,3454           31475                                    ANGLTIME


000327: 34,3455           31465                                    ARATE,1
000328: 34,3456           77661                           SR
000329: 34,3457           20606                                    5
000330: 34,3460           01645                           STORE    TM                                    #  MANEUVER EXECUTION TIME SCALED AS T2
000331: 34,3461           77614                           SETGO                                          #  STATE SWITCH NO. 32
000332: 34,3462           01022                                    32D                                   #  0(OFF) = CONTINUE MANEUVER
000333: 34,3463           71477                                    NEWDELHI   +1                         #  1(ON) = START MANEUVER
000334:
000335:
000336:                                                                                                  #  THE FOUR SELECTABLE FREE FALL MANEUVER RATES SELECTED BY
000337:                                                                                                  #  LOADING RATEINDX WITH 0,2,4,6, RESPECTIVELY
000338:
000339:
000340: 34,3464           00554 02660  ARATE              2DEC     .0222222222                            #  =.5 DEG/SEC        $ 22.5DEG/SEC
000341:
000342: 34,3466           02660 13301                     2DEC     .0888888888                            #  = 2 DEG/SEC        $ 22.5DEG/SEC
000343:
000344: 34,3470           07070 34344                     2DEC     .2222222222                            #  = 5 DEG/SEC        $ 22.5DEG/SEC
000345:
000346: 34,3472           16161 30707                     2DEC     .4444444444                            #  =10 DEG/SEC        $ 22.5DEG/SEC
000347:
000348: 34,3474           00003 04000  ANGLTIME           2DEC     .0001907349                            #  = 100B-19     FUDGE FACTOR TO CONVERT
000349:                                                                                                  #  MANEUVER ANGLE TO MANEUVER TIME

End of include-file GIMBAL_LOCK_AVOIDANCE.agc.  Parent file is MAIN.agc


