
Source Code


000002:                                                                                                  ## Copyright:   Public domain.
000003:                                                                                                  ## Filename:    IMU_COMPENSATION_PACKAGE.agc
000004:                                                                                                  ## Purpose:     A module for revision 0 of BURST120 (Sunburst). It
000005:                                                                                                  ##              is part of the source code for the Lunar Module's
000006:                                                                                                  ##              (LM) Apollo Guidance Computer (AGC) for Apollo 5.
000007:                                                                                                  ## Assembler:   yaYUL
000008:                                                                                                  ## Contact:     Ron Burkey <info@sandroid.org>.
000009:                                                                                                  ## Website:     www.ibiblio.org/apollo/index.html
000010:                                                                                                  ## Mod history: 2016-09-30 RSB  Created draft version.
000011:                                                                                                  ##              2016-10-30 RSB  Transcribed, primarily by adapting
000012:                                                                                                  ##                              the Aurora 12 version of the file.
000013:                                                                                                  ##              2016-11-01 RSB  Typos.
000014:                                                                                                  ##              2016-11-02 RSB  More typos.
000015:


000017: 12,3222                                           BANK     12
000018: 12,3222  E3,1444                                  EBANK=   NBDX
000019:
000020:                                                                                                  #  PROGRAM DESCRIPTION- IMU COMPENSATION (LEM)                             DATE- 1 DEC 66
000021:                                                                                                  #  MOD NO- 0                                                               LOG SECTION- IMU COMPENSATION PACKAGE
000022:                                                                                                  #  MOD BY- GILBERT                                                         ASSEMBLY- SUNBURST REVISION 48
000023:
000024:                                                                                                  #  FUNCTIONAL DESCRIPTION
000025:                                                                                                  #        THE IMU COMPENSATION PACKAGE IS DESIGNED TO COMPENSATE FOR PIPA BIAS AND SCALE FACTOR ERROR AND AT THE
000026:                                                                                                  #  SAME TIME ACCUMULATE GYRO TORQUING COMMANDS NECESSARY TO COMPENSATE FOR THE ASSOCIATED BIAS AND ACCELERATION-
000027:                                                                                                  #  CAUSED GYRO DRIFTS. 1/PIPA MUST BE CALLED AT LEAST EVERY 2.55 SECONDS DUE TO SCALING CONSIDERATIONS.
000028:                                                                                                  #  SPECIFICALLY, THE CORRECTION IS
000029:
000030:                                                                                                  #        PIPA  = (1 + SCALE FACTOR ERROR)PIPA  -  (BIAS)(DELTAT)
000031:                                                                                                  #            C                               I
000032:
000033:                                                                                                  #  WHERE PIPA  IS THE COMPENSATED DATA OBTAINED FROM THE SAMPLED DATA PIPA
000034:                                                                                                  #            C                                                            I
000035:
000036:                                                                                                  #  THE COMPENSATED DATA IS THEN USED TO COMPUTE THE IRIG TORQUING NECESSARY TO CANCEL THE NBD, ADIA, AND ADSRA
000037:                                                                                                  #  GYRO COEFFICIENTS.
000038:                                                                                                  #  SPECIFICALLY, THE COMPUTATIONS ARE
000039:
000040:                                                                                                  #        XIRIG     -(ADIAX)(PIPAX ) + (ADSRAX)(PIPAY ) - (NBDX)(DELTAT)
000041:                                                                                                  #                                C                  C
000042:                                                                                                  #        YIRIG     -(ADIAY)(PIPAY ) + (ADSRAY)(PIPAZ ) - (NBDY)(DELTAT)
000043:                                                                                                  #                                C                  C
000044:                                                                                                  #        ZIRIG     -(ADIAZ)(PIPAZ ) - (ADSRAZ)(PIPAY ) + (NBDZ)(DELTAT)
000045:                                                                                                  #                                C                  C
000046:
000047:                                                                                                  #  THIS COMPENSATION IS SUMMED INTO THE GCOMP REGISTERS AND WHEN THE MAGNITUDE OF ANY IRIG COMMAND EXCEEDS 2
000048:                                                                                                  #  PULSES, THE COMMANDS ARE SENT TO THE GYROS.
000049:
000050:                                                                                                  #  DURING FREE-FALL PHASES OF A FLIGHT NBDX, NBDY, AND NBDZ ARE THE ONLY RELEVANT COEFFICIENTS. THESE BIAS TERMS
000051:                                                                                                  #  WILL BE INTEGRATED BY ROUTINE NBDONLY APPROXIMATELY EVERY 81.93 SECONDS FOLLOWING AN EXECUTIVE CALL BY THE DUMMY
000052:                                                                                                  #  TASK OF THE WAITLIST PROGRAM. NBDONLY IS ENABLED WHEN BIT 15 OF FLAGWRD2 IS SET TO INDICATE FREE-FALL. DURING
000053:                                                                                                  #  THIS TIME 1/PIPA IS NOT CALLED.
000054:
000055:                                                                                                  #  LASTBIAS IS CALLED VIA EXECUTIVE WHEN MAKING THE TRANSITION FROM FREE-FALL TO A PIPA READING MODE. THE NBD TERMS
000056:                                                                                                  #  ARE COMPENSATED FOR FROM THE LAST NBDONLY CALL UP TO PIPA ZEROING. PREREAD WILL THEN ENABLE 1/PIPA AT ITS
000057:                                                                                                  #  REGULAR INTERVAL. THE DRIFT FLAG MUST BE DOWN JUST PRIOR TO LASTBIAS. GYROCOMPASS NEVER CALLS LASTBIAS.
000058:
000059:                                                                                                  #  SCALING CONSIDERATIONS
000060:                                                                                                  #                             UNITS              MAX. VALUE     INTERNAL UNITS AND SCALING
000061:
000062:                                                                                                  #         PIPA BIAS           (CM)/(SEC)(SEC)    3.125          (PIPA PULSES)/(CS) X 2(-5)
000063:                                                                                                  #         PIPA SCALE FACTOR   P.P.M.             1953.125       (PPM) X 2(-9)
000064:                                                                                                  #         NBD                 MERU               128.74604      (GYRO PULSES)/(CS) X 2(-5)
000065:                                                                                                  #         ADIA                (MERU)/(G)         630.36633      (GYRO PULSES)/(PIPA PULSE) X 2(-6)
000066:                                                                                                  #         ADSRA               (MERU)/(G)         630.36633      (GYRO PULSES)/(PIPA PULSE) X 2(-6)
000067:


000069:                                                                                                  #  CONVERSION TABLE
000070:                                                                                                  #        1 PIPA PULSE = 1.00 (CM)/(SEC)               1 ERU = 7.29209817 X 10(-5) (RAD)/(SEC)
000071:                                                                                                  #        1 ERU = 15.04104488 (ARCSEC)/(SEC)           1 (CM)/(SEC)(SEC) = .01 (PIPA PULSES)/(CS)
000072:                                                                                                  #        1 GYRO PULSE = .61798096 ARCSEC              1 MERU = .00024272592 (GYRO PULSES)/(CS)
000073:                                                                                                  #        1 G = 979.24 (CM)/(SEC)(SEC)  (AMR)          1 (MERU)/(G) = .000024787174 (GYRO PULSES)/(PIPA PULSE)
000074:
000075:                                                                                                  #  REFERENCES
000076:                                                                                                  #        AGC PROGRAMMING MEMO NO. 12, I.S.S. MEMO NO. 247, I.S.S. MEMO NO 328, I.S.S. MEMO NO. 339
000077:
000078:                                                                                                  #  CALLING SEQUENCE
000079:                                                                                                  #        L      TC     BANKALL
000080:                                                                                                  #        L+1    CADR   1/PIPA
000081:                                                                                                  #        L+2                       RETURNS HERE
000082:
000083:                                                                                                  #  NORMAL EXIT MODES
000084:                                                                                                  #        AT L+2 OF CALLING SEQUENCE
000085:
000086:                                                                                                  #  ALARM OR ABORT MODES
000087:                                                                                                  #        ENDOFJOB
000088:
000089:                                                                                                  #  ERASABLE INITIALIZATION REQUIRED (CONSECUTIVE LOCATIONS)
000090:                                                                                                  #        PBIASX    PIPAX BIAS
000091:                                                                                                  #        PIPASCFX  PIPAX SCALE FACTOR ERROR
000092:                                                                                                  #        PBIASY    PIPAY BIAS
000093:                                                                                                  #        PIPASCFY  PIPAY SCALE FACTOR ERROR
000094:                                                                                                  #        PBIASZ    PIPAZ BIAS
000095:                                                                                                  #        PIPASCFZ  PIPAZ SCALE FACTOR ERROR
000096:                                                                                                  #        NBDX      X IRIG BIAS DRIFT
000097:                                                                                                  #        NBDY      Y IRIG BIAS DRIFT
000098:                                                                                                  #        NDBZ      Z IRIG BIAS DRIFT
000099:                                                                                                  #        ADIAX     IRIG ACCELERATION SENSITIVE DRIFT ALONG THE X INPUT AXIS
000100:                                                                                                  #        ADIAY     IRIG ACCELERATION SENSITIVE DRIFT ALONG THE Y INPUT AXIS
000101:                                                                                                  #        ADIAZ     IRIG ACCELERATION SENSITIVE DRIFT ALONG THE Z INPUT AXIS
000102:                                                                                                  #        ADSRAX    IRIG ACCELERATION SENSITIVE DRIFT ALONG THE X SPIN REFERENCE AXIS
000103:                                                                                                  #        ADSRAY    IRIG ACCELERATION SENSITIVE DRIFT ALONG THE Y SPIN REFERENCE AXIS
000104:                                                                                                  #        ADSRAZ    IRIG ACCELERATION SENSITIVE DRIFT ALONG THE Z SPIN REFERENCE AXIS
000105:                                                                                                  #        GCOMP     GYRO COMPENSATION PULSES (SET = ZERO FOR 1ST PASS)
000106:
000107:                                                                                                  #  INPUT
000108:                                                                                                  #        1/PIPADT - DELTA TIME SCALED AT (CS) X 2(+8)
000109:                                                                                                  #        DELVX, DELVY, DELVZ - PIPA READINGS IN THE MAJOR PARTS - MINOR PARTS IRRELEVANT
000110:
000111:                                                                                                  #  OUTPUT
000112:                                                                                                  #        DELVX, DELVY, DELVZ - PIPA COUNTS SCALED 2(+14) COMPENSATED FOR PIPA BIAS AND SCALE FACTOR ERROR
000113:                                                                                                  #        GCOMP - 3 DP LOCATIONS CONTAINING GYRO PULSES TO COMPENSATE FOR NBD, ADIA, AND ADSRA COEFFICIENTS
000114:
000115:                                                                                                  #  DEBRIS
000116:                                                                                                  #        CENTRALS - A,L,Q
000117:                                                                                                  #        OTHER - BUF - BUF +2, VBUF - VBUF +2, GCOMPSW
000118:


000120: 12,3222           33455        1/PIPA             CAF      LGCOMP                                #  SAVE EBANK OF CALLING PROGRAM
000121: 12,3223           56003                           XCH      EBANK
000122: 12,3224           54153                           TS       MODE
000123:
000124: 12,3225           11463                           CCS      GCOMPSW                               #  BYPASS IF GCOMPSW NEGATIVE
000125: 12,3226           13231                           TCF      +3
000126: 12,3227           13231                           TCF      +2
000127: 12,3230           13346                           TCF      IRIG1                                 #  RETURN
000128:
000129: 12,3231           37761        1/PIPA1            CAF      FOUR                                  #  PIPAZ, PIPAY, PIPAX
000130: 12,3232           54122                           TS       BUF        +2
000131:
000132: 12,3233           50122                           INDEX    BUF        +2
000133: 12,3234           31437                           CA       PIPASCF                               #  (P.P.M.) X 2(-9)
000134: 12,3235           00006                           EXTEND
000135: 12,3236           50122                           INDEX    BUF        +2
000136: 12,3237           70403                           MP       DELVX                                 #  (PP) X 2(+14) NOW (PIPA PULSES) X 2(+5)
000137: 12,3240           54002                           TS       Q                                     #  SAVE MAJOR PART
000138:
000139: 12,3241           30001                           CA       L                                     #  MINOR PART
000140: 12,3242           00006                           EXTEND
000141: 12,3243           77756                           MP       BIT6                                  #  SCALE 2(+9)     SHIFT RIGHT 9
000142: 12,3244           50122                           INDEX    BUF        +2
000143: 12,3245           54404                           TS       DELVX      +1                         #  FRACTIONAL PIPA PULSES SCALED 2(+14)
000144:
000145: 12,3246           30002                           CA       Q                                     #  MAJOR PART
000146: 12,3247           00006                           EXTEND
000147: 12,3250           77756                           MP       BIT6                                  #  SCALE 2(+9)     SHIFT RIGHT 9
000148: 12,3251           50122                           INDEX    BUF        +2
000149: 12,3252           20404                           DAS      DELVX                                 #  (PIPAI) + (PIPAI)(SFE)
000150:
000151: 12,3253           50122                           INDEX    BUF        +2
000152: 12,3254           41436                           CS       PIPABIAS                              #  (PIPA PULSES)/(CS) X 2(-5)             *
000153: 12,3255           00006                           EXTEND
000154: 12,3256           70765                           MP       1/PIPADT                              #  (CS) X 2(+8)  NOW (PIPA PULSES) X 2(+3)*
000155: 12,3257           00006                           EXTEND
000156: 12,3260           77760                           MP       BIT4                                  #  SCALE 2(+11)  SHIFT RIGHT 11           *
000157: 12,3261           50122                           INDEX    BUF        +2
000158: 12,3262           20404                           DAS      DELVX                                 #  (PIPAI) + (PIPAI)(SFE) - (BIAS)(DELTAT)
000159:
000160: 12,3263           10122                           CCS      BUF        +2                         #  PIPAZ, PIPAY, PIPAX
000161: 12,3264           67771                           AD       NEG1
000162: 12,3265           13232                           TCF      1/PIPA1    +1
000163: 12,3266           13267                           NOOP                                           #  LESS THAN ZERO IMPOSSIBLE
000164:


000166: 12,3267           55463        IRIGCOMP           TS       GCOMPSW                               #  INDICATE COMMANDS 2 PULSES OR LESS
000167: 12,3270           54120                           TS       BUF                                   #  INDEX COUNTER - IRIGX, IRIGY, IRIGZ
000168:
000169: 12,3271           00006        IRIGX              EXTEND
000170: 12,3272           40404                           DCS      DELVX                                 #  (PIPA PULSES) X 2(+14)
000171: 12,3273           52145                           DXCH     MPAC
000172: 12,3274           31447                           CA       ADIAX                                 #  (GYRO PULSES)/(PIPA PULSE) X 2(-6)     *
000173: 12,3275           03351                           TC       GCOMPSUB                              #  -(ADIAX)(PIPAX)   (GYRO PULSES) X 2(+14)
000174:
000175: 12,3276           00006                           EXTEND
000176: 12,3277           40406                           DCS      DELVY                                 #  (PIPA PULSES) X 2(+14)
000177: 12,3300           52145                           DXCH     MPAC
000178: 12,3301           41452                           CS       ADSRAX                                #  (GYRO PULSES)/(PIPA PULSE) X 2(-6)     *
000179: 12,3302           03351                           TC       GCOMPSUB                              #  +(ADSRAX)(PIPAY)  (GYRO PULSES) X 2(+14)
000180:
000181: 12,3303           41444                           CS       NBDX                                  #  (GYRO PULSES)/(CS) X 2(-5)
000182: 12,3304           03400                           TC       DRIFSTUB                              #  -(NBDX)(DELTAT)   (GYRO PULSES) X 2(+14)
000183:
000184: 12,3305           00006        IRIGY              EXTEND
000185: 12,3306           40406                           DCS      DELVY                                 #  (PIPA PULSES) X 2(+14)
000186: 12,3307           52145                           DXCH     MPAC
000187: 12,3310           31450                           CA       ADIAY                                 #  (GYRO PULSES)/(PIPA PULSE) X 2(-6)     *
000188: 12,3311           03351                           TC       GCOMPSUB                              #  -(ADIAY)(PIPAY)   (GYRO PULSES) X 2(+14)
000189:
000190: 12,3312           00006                           EXTEND
000191: 12,3313           40410                           DCS      DELVZ                                 #  (PIPA PULSES) X 2(+14)
000192: 12,3314           52145                           DXCH     MPAC
000193: 12,3315           41453                           CS       ADSRAY                                #  (GYRO PULSES)/(PIPA PULSE) X 2(-6)     *
000194: 12,3316           03351                           TC       GCOMPSUB                              #  +(ADSRAY)(PIPAZ)  (GYRO PULSES) X 2(+14)
000195:
000196: 12,3317           41445                           CS       NBDY                                  #  (GYRO PULSES)/(CS) X 2(-5)
000197: 12,3320           03400                           TC       DRIFSTUB                              #  -(NBDY)(DELTAT)   (GYRO PULSES) X 2(+14)
000198:
000199: 12,3321           00006        IRIGZ              EXTEND
000200: 12,3322           40406                           DCS      DELVY                                 #  (PIPA PULSES) X 2(+14)
000201: 12,3323           52145                           DXCH     MPAC
000202: 12,3324           31454                           CA       ADSRAZ                                #  (GYRO PULSES)/(PIPA PULSE) X 2(-6)     *
000203: 12,3325           03351                           TC       GCOMPSUB                              #  -(ADSRAZ)(PIPAY)  (GYRO PULSES) X 2(+14)
000204:
000205: 12,3326           00006                           EXTEND
000206: 12,3327           40410                           DCS      DELVZ                                 #  (PIPA PULSES) X 2(+14)
000207: 12,3330           52145                           DXCH     MPAC
000208: 12,3331           31451                           CA       ADIAZ                                 #  (GYRO PULSES)/(PIPA PULSE) X 2(-6)     *
000209: 12,3332           03351                           TC       GCOMPSUB                              #  -(ADIAZ)(PIPAZ)   (GYRO PULSES) X 2(+14)
000210:
000211: 12,3333           31446                           CA       NBDZ                                  #  (GYRO PULSES)/(CS) X 2(-5)
000212: 12,3334           03400                           TC       DRIFSTUB                              #  +(NBDZ)(DELTAT)   (GYRO PULSES) X 2(+14)
000213:


000215: 12,3335           11463                           CCS      GCOMPSW                               #  ARE GYRO COMMANDS GREATER THAN 2 PULSES
000216: 12,3336           13340                           TCF      +2                                    #  YES
000217: 12,3337           13346                           TCF      IRIG1                                 #  NO
000218:
000219: 12,3340           00004                           INHINT
000220: 12,3341           35656                           CAF      PRIO35                                #  SEND OUT GYRO TORQUING COMMANDS
000221: 12,3342           05505                           TC       NOVAC
000222: 12,3343  E3,1444                                  EBANK=   NBDX
000223: 12,3343           03433 24063                     2CADR    1/GYRO
000224:
000225: 12,3345           00003                           RELINT
000226: 12,3346           30153        IRIG1              CA       MODE                                  #  SET EBANK FOR RETURN
000227: 12,3347           54003                           TS       EBANK
000228: 12,3350           15221                           TCF      SWRETURN
000229:
000230:
000231:
000232: 12,3351           56144        GCOMPSUB           XCH      MPAC                                  #  ADIA OR ADSRA COEFFICIENT ARRIVES IN A
000233: 12,3352           00006                           EXTEND                                         #  C(MPAC) = (PIPA PULSES) X 2(+14)
000234: 12,3353           70144                           MP       MPAC                                  #  (GYRO PULSES)/(PIPA PULSE) X 2(-6)     *
000235: 12,3354           52113                           DXCH     VBUF                                  #  NOW = (GYRO PULSES) X 2(+8)            *
000236:
000237: 12,3355           30145                           CA       MPAC       +1                         #  MINOR PART PIPA PULSES
000238: 12,3356           00006                           EXTEND
000239: 12,3357           70144                           MP       MPAC                                  #  ADIA OR ADSRA
000240: 12,3360           54001                           TS       L
000241: 12,3361           37767                           CAF      ZERO
000242: 12,3362           20113                           DAS      VBUF                                  #  NOW = (GYRO PULSES) X 2(+8)            *
000243:
000244: 12,3363           30112                           CA       VBUF                                  #  PARTIAL RESULT - MAJOR
000245: 12,3364           00006                           EXTEND
000246: 12,3365           77753                           MP       BIT9                                  #  SCALE 2(+6)      SHIFT RIGHT 6         *
000247: 12,3366           50120                           INDEX    BUF                                   #  RESULT = (GYRO PULSES) X 2(+14)
000248: 12,3367           21456                           DAS      GCOMP                                 #  HI(ADIA)(PIPAI)  OR  HI(ADSRA)(PIPAI)
000249:
000250: 12,3370           30113                           CA       VBUF       +1                         #  PARTIAL RESULT - MINOR
000251: 12,3371           00006                           EXTEND
000252: 12,3372           77753                           MP       BIT9                                  #  SCALE 2(+6)      SHIFT RIGHT 6         *
000253: 12,3373           54001                           TS       L
000254: 12,3374           37767                           CAF      ZERO
000255: 12,3375           50120                           INDEX    BUF                                   #  RESULT = (GYRO PULSES) X 2(+14)
000256: 12,3376           21456                           DAS      GCOMP                                 #  (ADIA)(PIPAI)  OR  (ADSRA)(PIPAI)
000257:
000258: 12,3377           00002                           TC       Q
000259:


000261: 12,3400           00006        DRIFSTUB           EXTEND
000262: 12,3401           22121                           QXCH     BUF        +1
000263:
000264: 12,3402           00006                           EXTEND                                         #  C(A) = NBD    (GYRO PULSES)/(CS) X 2(-5)
000265: 12,3403           70765                           MP       1/PIPADT                              #  (CS) X 2(+8)   NOW (GYRO PULSES) X 2(+3)
000266: 12,3404           22145                           LXCH     MPAC       +1                         #  SAVE FOR FRACTIONAL COMPENSATION
000267: 12,3405           00006                           EXTEND
000268: 12,3406           77760                           MP       BIT4                                  #  SCALE 2(+11)     SHIFT RIGHT 11
000269: 12,3407           50120                           INDEX    BUF
000270: 12,3410           21456                           DAS      GCOMP                                 #  HI(NBD)(DELTAT)   (GYRO PULSES) X 2(+14)
000271:
000272: 12,3411           30145                           CA       MPAC       +1                         #  NOW MINOR PART
000273: 12,3412           00006                           EXTEND
000274: 12,3413           77760                           MP       BIT4                                  #  SCALE 2(+11)     SHIFT RIGHT 11
000275: 12,3414           54001                           TS       L
000276: 12,3415           37767                           CAF      ZERO
000277: 12,3416           50120                           INDEX    BUF                                   #  ADD IN FRACTIONAL COMPENSATION
000278: 12,3417           21456                           DAS      GCOMP                                 #  (NBD)(DELTAT)     (GYRO PULSES) X 2(+14)
000279:
000280: 12,3420           37762        DRFTSUB2           CAF      TWO                                   #  PIPAX, PIPAY, PIPAZ
000281: 12,3421           60120                           AD       BUF
000282: 12,3422           56120                           XCH      BUF
000283: 12,3423           50000                           INDEX    A
000284: 12,3424           11455                           CCS      GCOMP                                 #  ARE GYRO COMMANDS 1 PULSE OR GREATER
000285: 12,3425           13427                           TCF      +2                                    #  YES
000286: 12,3426           00121                           TC       BUF        +1                         #  NO
000287:
000288: 12,3427           73477                           MASK     COMPCHK                               #  DEC -1
000289: 12,3430           10000                           CCS      A                                     #  ARE GYRO COMMANDS GREATER THAN 2 PULSES
000290: 12,3431           55463                           TS       GCOMPSW                               #  YES - SET GCOMPSW POSITIVE
000291: 12,3432           00121                           TC       BUF        +1                         #  NO
000292:


000294: 12,3433           37761        1/GYRO             CAF      FOUR                                  #  PIPAZ, PIPAY, PIPAX
000295: 12,3434           54120                           TS       BUF
000296:
000297: 12,3435           50120                           INDEX    BUF                                   #  SCALE GYRO COMMANDS FOR IMPULSE
000298: 12,3436           31456                           CA       GCOMP      +1                         #  FRACTIONAL PULSES
000299: 12,3437           00006                           EXTEND
000300: 12,3440           77754                           MP       BIT8                                  #  SHIFT RIGHT 7
000301: 12,3441           50120                           INDEX    BUF
000302: 12,3442           55456                           TS       GCOMP      +1                         #  FRACTIONAL PULSES SCALED
000303:
000304: 12,3443           37767                           CAF      ZERO                                  #  SET GCOMP = 0 FOR DAS INSTRUCTION
000305: 12,3444           50120                           INDEX    BUF
000306: 12,3445           57455                           XCH      GCOMP                                 #  GYRO PULSES
000307: 12,3446           00006                           EXTEND
000308: 12,3447           77754                           MP       BIT8                                  #  SHIFT RIGHT 7
000309: 12,3450           50120                           INDEX    BUF
000310: 12,3451           21456                           DAS      GCOMP                                 #  ADD THESE TO FRACTIONAL PULSES ABOVE
000311:
000312: 12,3452           10120                           CCS      BUF                                   #  PIPAZ, PIPAY, PIPAX
000313: 12,3453           67771                           AD       NEG1
000314: 12,3454           13434                           TCF      1/GYRO     +1
000315: 12,3455           01455        LGCOMP             ECADR    GCOMP                                 #  LESS THAN ZERO IMPOSSIBLE
000316:
000317: 12,3456           33455                           CAF      LGCOMP
000318: 12,3457           05206                           TC       BANKCALL
000319: 12,3460           26362                           CADR     IMUPULSE                              #  CALL GYRO TORQUING ROUTINE
000320: 12,3461           05206                           TC       BANKCALL
000321: 12,3462           26751                           CADR     IMUSTALL                              #  WAIT FOR PULSES TO GET OUT
000322: 12,3463           15567                           TCF      ENDOFJOB                              #  TEMPORARY
000323:
000324: 12,3464           37761        GCOMP1             CAF      FOUR                                  #  PIPAZ, PIPAY, PIPAX
000325: 12,3465           54120                           TS       BUF
000326:
000327: 12,3466           50120                           INDEX    BUF                                   #  RESCALE
000328: 12,3467           31456                           CA       GCOMP      +1
000329: 12,3470           00006                           EXTEND
000330: 12,3471           77754                           MP       BIT8                                  #  SHIFT MINOR PART LEFT 7 - MAJOR PART = 0
000331: 12,3472           50120                           INDEX    BUF
000332: 12,3473           23456                           LXCH     GCOMP      +1                         #  BITS 8-14 OF MINOR PART WERE = 0
000333:
000334: 12,3474           10120                           CCS      BUF                                   #  PIPAZ, PIPAY, PIPAX
000335: 12,3475           67771                           AD       NEG1
000336: 12,3476           13465                           TCF      GCOMP1     +1
000337: 12,3477           77776        COMPCHK            DEC      -1         B-14                       #  LESS THAN ZERO IMPOSSIBLE
000338: 12,3500           15567                           TCF      ENDOFJOB
000339:


000341: 12,3501           11463        NBDONLY            CCS      GCOMPSW                               #  BYPASS IF GCOMPSW NEGATIVE
000342: 12,3502           13505                           TCF      +3
000343: 12,3503           13505                           TCF      +2
000344: 12,3504           15567                           TCF      ENDOFJOB
000345:
000346: 12,3505           00004                           INHINT
000347: 12,3506           10076                           CCS      FLAGWRD2                              #  PREREAD T3RUPT MAY COINCIDE
000348: 12,3507           15567                           TCF      ENDOFJOB
000349: 12,3510           15567                           TCF      ENDOFJOB
000350: 12,3511           13512                           TCF      +1
000351:
000352: 12,3512           30025                           CA       TIME1                                 #  (CS) X 2(+14)
000353: 12,3513           56765                           XCH      1/PIPADT                              #  PREVIOUS TIME
000354: 12,3514           00003                           RELINT
000355: 12,3515           40000                           COM
000356: 12,3516           60765                           AD       1/PIPADT
000357: 12,3517           10000        NBD2               CCS      A                                     #  CALCULATE ELAPSED TIME
000358: 12,3520           67763                           AD       ONE                                   #  NO TIME1 OVERFLOW
000359: 12,3521           13526                           TCF      NBD3                                  #  RESTORE TIME DIFFERENCE AND JUMP
000360: 12,3522           13524                           TCF      +2                                    #  TIME1 OVERFLOW
000361: 12,3523           15567                           TCF      ENDOFJOB                              #  IF ELAPSED TIME = 0  (DIFFERENCE = -0)
000362:
000363: 12,3524           40000                           COM                                            #  CALCULATE ABSOLUE DIFFERENCE
000364: 12,3525           67743                           AD       POSMAX
000365:
000366: 12,3526           00006        NBD3               EXTEND                                         #  C(A) = DELTAT    (CS) X 2(+14)
000367: 12,3527           77752                           MP       BIT10                                 #  SHIFT RIGHT 5
000368: 12,3530           52113                           DXCH     VBUF
000369: 12,3531           00006                           EXTEND
000370: 12,3532           30113                           DCA      VBUF
000371: 12,3533           52145                           DXCH     MPAC                                  #  DELTAT NOW SCALED (CS) X 2(+19)
000372:
000373: 12,3534           37767                           CAF      ZERO
000374: 12,3535           55463                           TS       GCOMPSW                               #  INDICATE COMMANDS 2 PULSES OR LESS
000375: 12,3536           54120                           TS       BUF                                   #  PIPAX, PIPAY, PIPAZ
000376:
000377: 12,3537           41444                           CS       NBDX                                  #  (GYRO PULSES)/(CS) X 2(-5)
000378: 12,3540           03556                           TC       FBIASSUB                              #  -(NBDX)(DELTAT)    (GYRO PULSES) X 2(+14)
000379:
000380: 12,3541           00006                           EXTEND
000381: 12,3542           40113                           DCS      VBUF
000382: 12,3543           52145                           DXCH     MPAC                                  #  DELTAT SCALED (CS) X 2(+19)
000383: 12,3544           31445                           CA       NBDY                                  #  (GYRO PULSES)/(CS) X 2(-5)
000384: 12,3545           03556                           TC       FBIASSUB                              #  -(NBDY)(DELTAT)    (GYRO PULSES) X 2(+14)
000385:
000386: 12,3546           00006                           EXTEND
000387: 12,3547           40113                           DCS      VBUF
000388: 12,3550           52145                           DXCH     MPAC                                  #  DELTAT SCALED (CS) X 2(+19)
000389: 12,3551           41446                           CS       NBDZ                                  #  (GYRO PULSES)/(CS) X 2(-5)
000390: 12,3552           03556                           TC       FBIASSUB                              #  +(NBDZ)(DELTAT)    (GYRO PULSES) X 2 (+14)
000391:


000393: 12,3553           11463                           CCS      GCOMPSW                               #  ARE GYRO COMMANDS GREATER THAN 2 PULSES
000394: 12,3554           13433                           TCF      1/GYRO                                #  YES
000395: 12,3555           15567                           TCF      ENDOFJOB                              #  NO
000396:


000398: 12,3556           56002        FBIASSUB           XCH      Q
000399: 12,3557           54121                           TS       BUF        +1
000400:
000401: 12,3560           30002                           CA       Q                                     #  NBD SCALED (GRO PULSES)/(CS) X 2(-5)
000402: 12,3561           00006                           EXTEND
000403: 12,3562           70144                           MP       MPAC                                  #  DELTAT SCALED (CS) X 2(+19)
000404: 12,3563           50120                           INDEX    BUF
000405: 12,3564           21456                           DAS      GCOMP                                 #  HI(NBD)(DELTAT)    (GYRO PULSES) X 2(+14)
000406:
000407: 12,3565           30002                           CA       Q                                     #  NOW FRACTIONAL PART
000408: 12,3566           00006                           EXTEND
000409: 12,3567           70145                           MP       MPAC       +1
000410: 12,3570           54001                           TS       L
000411: 12,3571           37767                           CAF      ZERO
000412: 12,3572           50120                           INDEX    BUF
000413: 12,3573           21456                           DAS      GCOMP                                 #  (NBD)(DELTAT)     (GYRO PULSES) X 2(+14)
000414:
000415: 12,3574           13420                           TCF      DRFTSUB2                              #  CHECK MAGNITUDE OF COMPENSATION
000416:
000417:
000418:
000419: 12,3575           11463        LASTBIAS           CCS      GCOMPSW                               #  BYPASS IF GCOMPSW NEGATIVE
000420: 12,3576           13601                           TCF      +3
000421: 12,3577           13601                           TCF      +2
000422: 12,3600           15567                           TCF      ENDOFJOB
000423:
000424: 12,3601           35652                           CAF      PRIO31                                #  2 SECONDS SCALED (CS) X 2(+8)
000425: 12,3602           56765                           XCH      1/PIPADT
000426: 12,3603           40000                           COM
000427: 12,3604           61307                           AD       PIPTIME    +1                         #  TIME AT PIPA1 = 0
000428: 12,3605           13517                           TCF      NBD2
000429:
000430:
000431:
000432: 12,3606           33455        GCOMPZER           CAF      LGCOMP                                #  ROUTINE TO ZERO GCOMP BEFORE FIRST
000433: 12,3607           56003                           XCH      EBANK                                 #  CALL TO 1/PIPA
000434: 12,3610           54153                           TS       MODE
000435:
000436: 12,3611           37767                           CAF      ZERO
000437: 12,3612           55463                           TS       GCOMPSW
000438: 12,3613           55455                           TS       GCOMP
000439: 12,3614           55456                           TS       GCOMP      +1
000440: 12,3615           55457                           TS       GCOMP      +2
000441: 12,3616           55460                           TS       GCOMP      +3
000442: 12,3617           55461                           TS       GCOMP      +4
000443: 12,3620           55462                           TS       GCOMP      +5
000444:
000445: 12,3621           30153                           CA       MODE
000446: 12,3622           54003                           TS       EBANK
000447: 12,3623           15221                           TCF      SWRETURN                              #  RETURN TO CALLER

End of include-file IMU_COMPENSATION_PACKAGE.agc.  Parent file is MAIN.agc


