
Source Code


000002:                                                                                                  ## Copyright:   Public domain.
000003:                                                                                                  ## Filename:    IMU_PERFORMANCE_TESTS_1.agc
000004:                                                                                                  ## Purpose:     A module for revision 0 of BURST120 (Sunburst). It
000005:                                                                                                  ##              is part of the source code for the Lunar Module's
000006:                                                                                                  ##              (LM) Apollo Guidance Computer (AGC) for Apollo 5.
000007:                                                                                                  ## Assembler:   yaYUL
000008:                                                                                                  ## Contact:     Ron Burkey <info@sandroid.org>.
000009:                                                                                                  ## Website:     www.ibiblio.org/apollo/index.html
000010:                                                                                                  ## Mod history: 2016-09-30 RSB  Created draft version.
000011:                                                                                                  ##              2016-10-18 RSB  Corrected against AURORA 12 version.  (Mostly
000012:                                                                                                  ##                              identical, but there was a small amount of code
000013:                                                                                                  ##                              added.
000014:                                                                                                  ##              2016-10-31 RSB  Typos.
000015:


000017: 14,2000                                           BANK     14
000018: 14,2000  E5,1400                                  EBANK=   XSM
000019:
000020:
000021:
000022: 14,2000           37763        AOTNBIMU           CAF      ONE                                   #  AOT-NB-IMU FINE ALIGNMENT TEST
000023: 14,2001           55512                           TS       EROPTN                                #  ... TEST CAPABILITY ...
000024:
000025: 14,2002           05206                           TC       BANKCALL
000026: 14,2003           26000                           CADR     IMUZERO                               #  IMU ZERO ENCODER MODE
000027: 14,2004           06112                           TC       INTPRET
000028: 14,2005           77624                           CALL
000029: 14,2006           30553                                    LATAZCHK                              #  TO LOAD AZIMUTH (SM) AND LATITUDE
000030: 14,2007           77624                           CALL
000031: 14,2010           30325                                    MAKEXSMD                              #  TO SET UP A STABLE MEMBER DESIRED MATRIX
000032: 14,2011           45014                           SET      CALL
000033: 14,2012           00065                                    COAROFIN                              #  FOR COARSE OR FINE ALIGN MARKS
000034: 14,2013           30407                                    ERTHRVSE                              #  TO CALCULATE EARTH RATE VECTOR
000035: 14,2014           77776                           EXIT
000036:
000037: 14,2015           33700        POSLOAD            CAF      V24N30E                               #  R1  000X ENTER     POSITION 1,2, OR 3
000038: 14,2016           04657                           TC       NVSBWAIT                              #  R2  0000 ENTER     00001 FOR LAB OPTION
000039: 14,2017           04475                           TC       ENDIDLE
000040: 14,2020           12770                           TCF      ENDTEST
000041: 14,2021           12015                           TCF      -4
000042: 14,2022           56337                           XCH      DSPTEM1                               #  DO NOT USE POSITION 3 WITH NAV BASE AT
000043: 14,2023           55544                           TS       POSITON                               #     ZERO DEGREE TILT ANGLE. (GIMBAL LOCK)
000044:
000045: 14,2024           10340                           CCS      DSPTEM1    +1
000046: 14,2025           13003                           TCF      LEMLAB                                #  SPECIAL LAB TEST TO BYPASS MARKS
000047:
000048: 14,2026           02621                           TC       POSNJUMP                              #  SET UP STABLE MEMBER DESIRED COORDINATES
000049:
000050: 14,2027           02524                           TC       OPTDATA                               #  TARGETS 1,2 AZIMUTH AND ELEVATION
000051:
000052: 14,2030           02135                           TC       FINDNAVB                              #  COARSE ALIGN MARKS
000053:
000054: 14,2031           05206                           TC       BANKCALL
000055: 14,2032           26751                           CADR     IMUSTALL                              #  INSURE IMUZERO COMPLETION
000056: 14,2033           12770                           TCF      ENDTEST
000057:
000058: 14,2034           02247                           TC       PUTPOSX                               #  TO COARSE ALIGN STABLE MEMBER
000059:
000060: 14,2035           02762                           TC       GMLCKCHK                              #  CHECK FOR GIMABL LOCK BEFORE FINE ALIGN
000061: 14,2036           02752                           TC       OGCZERO                               #  FOR EARTH RATE COMPENSATION
000062:
000063: 14,2037           05206                           TC       BANKCALL
000064: 14,2040           26252                           CADR     IMUFINE                               #  FINE ALIGN MODE
000065: 14,2041           05206                           TC       BANKCALL
000066: 14,2042           26751                           CADR     IMUSTALL


000068: 14,2043           12770                           TCF      ENDTEST
000069:
000070: 14,2044           02135                           TC       FINDNAVB                              #  FINE ALIGN MARKS
000071:
000072: 14,2045           04724                           TC       FREEDSP                               #  FREE DISPLAY SYSTEM
000073:
000074: 14,2046           02263                           TC       SMDCALC                               #  TO FINE ALIGN STABLE MEMBER
000075:
000076: 14,2047           05206        ERFINAL            TC       BANKCALL                              #  LAST EARTH RATE SHOT
000077: 14,2050           30424                           CADR     EARTHR
000078: 14,2051           11512                           CCS      EROPTN                                #  IF DESIRED TO COMPENSATE CONTINUALLY
000079: 14,2052           12065                           TCF      MONSTART                              #      CHANGE BY V21 N02 E XXXXX E 00000 E
000080: 14,2053           12047                           TCF      ERFINAL
000081: 14,2054           12770                           TCF      ENDTEST
000082: 14,2055           55512                           TS       EROPTN
000083: 14,2056           00004                           INHINT
000084: 14,2057           35644                           CAF      PRIO21                                #  PRIORITY 1 HIGHER THAN SXTNBIMU
000085: 14,2060           05516                           TC       FINDVAC
000086: 14,2061           03105 30065                     2CADR    RDR37511
000087: 14,2063           00003                           RELINT
000088: 14,2064           02047                           TC       ERFINAL
000089:
000090: 14,2065           05026        MONSTART           TC       FINETIME                              #  TIME AT INITIAL MISALIGNMENT
000091: 14,2066           52145                           DXCH     MPAC
000092: 14,2067           00003                           RELINT
000093: 14,2070           37767                           CAF      ZERO                                  #  ZERO PIPA COUNTERS
000094: 14,2071           54037                           TS       PIPAX
000095: 14,2072           54040                           TS       PIPAY
000096: 14,2073           54041                           TS       PIPAZ
000097: 14,2074           55551                           TS       STOREPL
000098: 14,2075           55537                           TS       NDXCTR
000099: 14,2076           02477                           TC       STORRSLT                              #  STORE T(INITIAL) AND PIPAI = 0
000100:
000101: 14,2077           00004                           INHINT
000102: 14,2100           33711                           CAF      60SEC                                 #  INSURE PIPAI VARIES IN ONE DIRECTION
000103: 14,2101           05663                           TC       WAITLIST
000104: 14,2102  E5,1400                                  EBANK=   XSM
000105: 14,2102           02106 30065                     2CADR    PIP1
000106:
000107: 14,2104           32134                           CAF      PIP2ADR
000108: 14,2105           05545                           TC       JOBSLEEP
000109:
000110: 14,2106           32134        PIP1               CAF      PIP2ADR
000111: 14,2107           05551                           TC       JOBWAKE
000112: 14,2110           05727                           TC       TASKOVER
000113:
000114: 14,2111           31542        PIP2               CAE      PIPNDX
000115: 14,2112           55541                           TS       PIPINDEX                              #  POS1 PIPAY     POS2 PIPAX     POS3 PIPAX


000117: 14,2113           05206                           TC       BANKCALL
000118: 14,2114           51737                           CADR     DOCHECKG                              #  SYNC ON PIPA PULSE
000119:
000120: 14,2115           00003                           RELINT
000121: 14,2116           02477                           TC       STORRSLT                              #  STORE TIME ANP PIPAI
000122:
000123: 14,2117           31543                           CAE      PIPNDX     +1
000124: 14,2120           55541                           TS       PIPINDEX                              #  POS1 PIPAZ    POS2 PIPAY    POS3 PIPAZ
000125: 14,2121           05206                           TC       BANKCALL
000126: 14,2122           51737                           CADR     DOCHECKG                              #  SYNC PIPA PULSE
000127:
000128: 14,2123           00003                           RELINT
000129: 14,2124           02477                           TC       STORRSLT                              #  STORE TIME AND PIPAI
000130:
000131: 14,2125           00004                           INHINT
000132: 14,2126           33710                           CAF      30SEC                                 #  MONITOR PIPAS AT 30 SECOND INTERVALS
000133: 14,2127           05663                           TC       WAITLIST
000134: 14,2130  E5,1400                                  EBANK=   XSM
000135: 14,2130           02106 30065                     2CADR    PIP1
000136:
000137: 14,2132           32134                           CAF      PIP2ADR
000138: 14,2133           05545                           TC       JOBSLEEP
000139: 14,2134           30111        PIP2ADR            CADR     PIP2
000140:


000142: 14,2135           00006        FINDNAVB           EXTEND                                         #  MARKS * CLAC NB OR SM WRT EARTH REF
000143: 14,2136           23546                           QXCH     QPLACE
000144:
000145: 14,2137           05206                           TC       BANKCALL
000146: 14,2140           27046                           CADR     MKRELEAS                              #  RELEASE MARK SYSTEM
000147: 14,2141           37763                           CAF      ONE
000148: 14,2142           54337                           TS       DSPTEM1
000149: 14,2143           33674                           CAF      V01N30E                               #  DISPLY 00001 IN R1
000150: 14,2144           04657                           TC       NVSBWAIT
000151: 14,2145           37767                           CAF      ZERO                                  #  TO INDICATE GROUND MARKS
000152: 14,2146           05206                           TC       BANKCALL
000153: 14,2147           27005                           CADR     AOTMARK                               #  MARK ON TARGET 1
000154:
000155: 14,2150           05206                           TC       BANKCALL
000156: 14,2151           26747                           CADR     OPTSTALL                              #  INSURE SUCCESSFUL MARK
000157: 14,2152           12770                           TCF      ENDTEST
000158: 14,2153           00006                           EXTEND
000159: 14,2154           50373                           INDEX    MARKSTAT
000160: 14,2155           30001                           DCA      0
000161: 14,2156           53565                           DXCH     TMARK                                 #  TIME(PRES) FOR EARTH RATE COMPENSATION
000162:
000163: 14,2157           02242                           TC       GIMANGS1
000164:
000165: 14,2160           06112                           TC       INTPRET
000166: 14,2161           45140                           LXC,1    CALL
000167: 14,2162           00373                                    MARKSTAT                              #  BASE ADDRESS VAC AREA FOR AOTNB
000168: 14,2163           33114                                    AOTNB                                 #  OPTICS TO NAV BASE COORDINATE FRAME
000169: 14,2164           45014                           BON      CALL
000170: 14,2165           00305                                    COAROFIN                              #  COARSE MARKS = 0    FINE MARKS = 1
000171: 14,2166           30170                                    +2
000172: 14,2167           32555                                    NBSM                                  #  NAV BASE DIRECT TO STABLE MEMBER
000173: 14,2170           02445                           STORE    STARAD                                #  TARGET 1 WRT NAV BASE OR STABLE MEMBER
000174: 14,2171           02601                           STORE    LOS1                                  #  ...FOR K...
000175: 14,2172           77776                           EXIT
000176:
000177: 14,2173           05206                           TC       BANKCALL
000178: 14,2174           27046                           CADR     MKRELEAS                              #  RELEASE MARK SYSTEM
000179: 14,2175           37762                           CAF      TWO
000180: 14,2176           54337                           TS       DSPTEM1
000181: 14,2177           33674                           CAF      V01N30E                               #  DISPLAY 00002 IN R1
000182: 14,2200           04657                           TC       NVSBWAIT
000183: 14,2201           37767                           CAF      ZERO                                  #  TO INDICATE GROUND MARKS
000184: 14,2202           05206                           TC       BANKCALL
000185: 14,2203           27005                           CADR     AOTMARK                               #  MARK ON TARGET 2
000186:
000187: 14,2204           37752                           CAF      BIT10
000188: 14,2205           70074                           MASK     STATE                                 #  BIT10 = COAROFIN
000189: 14,2206           10000                           CCS      A
000190: 14,2207           12215                           TCF      EARRTCOM   +5                         #  IF COARSE ALIGN MARKS
000191:


000193: 14,2210           05206        EARRTCOM           TC       BANKCALL                              #  EARTH RATE COMPENSATION BEWTEEN MARKS
000194: 14,2211           30424                           CADR     EARTHR
000195: 14,2212           10370                           CCS      OPTCADR                               #  +0 IF MARK BUTTON NOT DEPRESSED
000196: 14,2213           12216                           TCF      +3
000197: 14,2214           12210                           TCF      EARRTCOM                              #  CONTINUE TO COMPENSATE FOR EARTH RATE
000198: 14,2215           12216                           TCF      +1
000199: 14,2216           05206                           TC       BANKCALL
000200: 14,2217           26747                           CADR     OPTSTALL                              #  INSURE SUCCESFUL MARK
000201: 14,2220           12770                           TCF      ENDTEST
000202:
000203: 14,2221           02242                           TC       GIMANGS1
000204:
000205: 14,2222           06112                           TC       INTPRET
000206: 14,2223           45140                           LXC,1    CALL
000207: 14,2224           00373                                    MARKSTAT                              #  BASE ADDRESS VAC AREA FOR AOTNB
000208: 14,2225           33114                                    AOTNB                                 #  OPTICS TO NAV BASE COORDINATE FRAME
000209: 14,2226           45014                           BONCLR   CALL                                  #  SET TO ZERO FOR FINE ALIGN MARKS
000210: 14,2227           00205                                    COAROFIN                              #  COARSE MARKS = 0    FINE MARKS = 1
000211: 14,2230           30232                                    +2
000212: 14,2231           32555                                    NBSM                                  #  NAV BASE DIRECT TO STABLE MEMBER
000213: 14,2232           02453                           STORE    STARAD     +6                         #  TARGET 2 WRT NAV BASE OR STABLE MEMBER
000214: 14,2233           02607                           STORE    LOS2                                  #  ...FOR K...
000215:
000216: 14,2234           77624        MAXDET             CALL
000217: 14,2235           30350                                    TAR/EREF                              #  TARGETS 1,2 WRT EARTH REF FRAME
000218: 14,2236           77624                           CALL
000219: 14,2237           32741                                    AXISGEN                               #  NAV BASE OR SM WRT EARTH REF FRAME
000220: 14,2240           77776                           EXIT
000221: 14,2241           01546                           TC       QPLACE
000222:
000223:
000224:
000225: 14,2242           37762        GIMANGS1           CAF      TWO                                   #  BASE ADDRESS GIMBAL ANGLES FOR NBSM
000226: 14,2243           60373                           AD       MARKSTAT
000227: 14,2244           50110                           INDEX    FIXLOC
000228: 14,2245           54050                           TS       S1
000229: 14,2246           00002                           TC       Q
000230:


000232: 14,2247           00006        PUTPOSX            EXTEND                                         #  COARSE ALIGNS STABLE MEMBER
000233: 14,2250           23546                           QXCH     QPLACE
000234:
000235: 14,2251           06112                           TC       INTPRET
000236: 14,2252           77624                           CALL
000237: 14,2253           32655                                    CALCGA                                #  CALCULATE COARSE ALIGN GIMBAL ANGLES
000238: 14,2254           77776                           EXIT
000239:
000240: 14,2255           05206                           TC       BANKCALL
000241: 14,2256           26065                           CADR     IMUCOARS                              #  COARSE ALIGN MODE
000242: 14,2257           05206                           TC       BANKCALL
000243: 14,2260           26751                           CADR     IMUSTALL
000244: 14,2261           12770                           TCF      ENDTEST
000245: 14,2262           01546                           TC       QPLACE
000246:
000247:
000248:
000249:
000250: 14,2263           00006        SMDCALC            EXTEND                                         #  FINE ALIGNS STABLE MEBER
000251: 14,2264           23546                           QXCH     QPLACE
000252:
000253: 14,2265           06112                           TC       INTPRET
000254: 14,2266           64375                           VLOAD    MXV
000255: 14,2267           02401                                    XSM                                   #  XSM DESIRED WRT EARTH REF FRAME
000256: 14,2270           02445                                    STARAD                                #  THEN TO SM PRESENT OR NAV BASE FRAME
000257: 14,2271           43172                           VSL1     BOFF
000258: 14,2272           00345                                    COAROFIN                              #  BIT10 FOR LEMLAB TEST
000259: 14,2273           30276                                    +3
000260: 14,2274           34041                           STCALL   32D
000261: 14,2275           32555                                    NBSM                                  #  THEN TO SM PRESENT FRAME
000262: 14,2276           26423                           STOVL    XDC
000263: 14,2277           02407                                    YSM                                   #  YSM DESIRED WRT EARTH REF FRAME
000264:
000265: 14,2300           76521                           MXV      VSL1
000266: 14,2301           02445                                    STARAD                                #  THEN TO SM PRESENT OR NAV BASE FRAME
000267: 14,2302           77614                           BOFF
000268: 14,2303           00345                                    COAROFIN                              #  BIT10 FOR LEMLAB TEST
000269: 14,2304           30307                                    +3
000270: 14,2305           34041                           STCALL   32D
000271: 14,2306           32555                                    NBSM                                  #  THEN TO SM PRESENT FRAME
000272: 14,2307           26431                           STOVL    YDC
000273: 14,2310           02423                                    XDC
000274:
000275: 14,2311           76435                           VXV      VSL1
000276: 14,2312           02431                                    YDC
000277: 14,2313           36437                           STCALL   ZDC                                   #  ZSM DESIRED WRT SM PRESENT FRAME
000278: 14,2314           32425                                    CALCGTA                               #  CALCULATE FINE ALIGN TORQUING ANGLES
000279:
000280: 14,2315           47170                           AXT,1    RTB
000281:


000283: 14,2316           02500                           ECADR    OGC                                   #  X1 = BASE ADDRESS OF TORQUING ANGLES
000284: 14,2317           33627                                    PULSEIMU                              #  TO PUT OUT GYRO TORQUING PULSES
000285: 14,2320           77776                           EXIT
000286:
000287: 14,2321           05206                           TC       BANKCALL
000288: 14,2322           26751                           CADR     IMUSTALL                              #  WAIT FOR PULSES TO GET OUT
000289: 14,2323           12770                           TCF      ENDTEST
000290: 14,2324           01546                           TC       QPLACE
000291:


000293: 14,2325           77776        MAKEXSMD           EXIT                                           #  XSM V   YSM SW   ZSM SE
000294:
000295: 14,2326           33703                           CAF      17DEC                                 #  ZERO XSM, YSM, AND ZSM
000296: 14,2327           55777                           TS       ZERONDX
000297: 14,2330           33721                           CAF      XSMADRX
000298: 14,2331           05206                           TC       BANKCALL
000299: 14,2332           51245                           CADR     ZEROING                               #          VERT       SOUTH      EAST
000300:
000301: 14,2333           37746                           CAF      HALF                                  #  XSM    * +1          0          0     *
000302: 14,2334           55400                           TS       XSM                                   #         *                              *
000303: 14,2335           06112                           TC       INTPRET                               #         *                              *
000304: 14,2336           73545                           DLOAD    SIN                                   #  YSM    *  0      +SIN(AZ)    +COS(AZ) *
000305: 14,2337           02507                                    AZIMUTH                               #         *                              *
000306: 14,2340           02411                           STORE    XSM        +8D                        #         *                              *
000307: 14,2341           16421                           STODL    XSM        +16D                       #  ZSM    *  0      -COS(AZ)    +SIN(AZ) *
000308: 14,2342           02507                                    AZIMUTH
000309: 14,2343           77746                           COS
000310: 14,2344           02413                           STORE    XSM        +10D
000311: 14,2345           77676                           DCOMP
000312: 14,2346           02417                           STORE    XSM        +14D
000313: 14,2347           77616                           RVQ
000314:
000315:
000316:
000317: 14,2350           77170        TAR/EREF           AXT,1    AXT,2                                 #                TARGET VECTOR
000318: 14,2351           00002                                    2                                     #  SIN(EL)  -COS(AZ)COS(EL)  SIN(AZ)COS(EL)
000319: 14,2352           00014                                    12D
000320: 14,2353           77731                           SSP
000321: 14,2354           00052                                    S2
000322: 14,2355           00006                                    6                                     #  TARGET 1                        TARGET 2
000323:
000324: 14,2356           60533        TAR1               SLOAD*   SR2                                   #  X1=2  X2=12  S2=6 . X1=0  X2=6  S2=6
000325: 14,2357           02557                                    TAZEL1     +3,1
000326: 14,2360           00001                           STORE    0                                     #  PD00           ELEVATION            PD00
000327: 14,2361           77756                           SIN
000328: 14,2362           10023                           STORE    18D,2                                 #  PD06  ***       SIN(EL)        ***  PD12
000329: 14,2363           77745                           DLOAD
000330: 14,2364           00001                                    0
000331: 14,2365           41546                           COS      PUSH                                  #  PDOO            COS(EL)             PD00
000332: 14,2366           47133                           SLOAD*   RTB
000333: 14,2367           02556                                    TAZEL1     +2,1
000334: 14,2370           33457                                    CDULOGIC
000335: 14,2371           00003                           STORE    2                                     #  PD02            AZIMUTH             PD02
000336: 14,2372           41356                           SIN      DMP
000337: 14,2373           00001                                    0
000338: 14,2374           77752                           SL1
000339: 14,2375           10027                           STORE    22D,2                                 #  PD10  ***   +SIN(AZ)COS(EL)    ***  PD16
000340: 14,2376           77745                           DLOAD
000341: 14,2377           00003                                    2
000342: 14,2400           41346                           COS      DMP


000344: 14,2401           57552                           SL1      DCOMP
000345: 14,2402           10025                           STORE    20D,2                                 #  PD08  ***   -COS(AZ)COS(EL)    ***  PD14
000346:
000347: 14,2403           61170                           AXT,1    TIX,2
000348: 14,2404           00000                                    0
000349: 14,2405           30356                                    TAR1
000350: 14,2406           77616                           RVQ
000351:


000353: 14,2407           65345        ERTHRVSE           DLOAD    PDDL
000354: 14,2410           33105                                    ZERODP                                #  PD24 = (SIN -COS  0)(OMEG/MS)
000355: 14,2411           02511                                    LATITUDE
000356: 14,2412           57546                           COS      DCOMP
000357: 14,2413           73525                           PDDL     SIN
000358: 14,2414           02511                                    LATITUDE                              #  EART RATE = .1504 ARCSEC / 10 MSEC
000359: 14,2415           74266                           VDEF     VXSC                                  #  1.618 GYRO PULSES = 1 ARCSEC
000360: 14,2416           31725                                    OMEG/MS                               #  OMEG/MS = .243... GYRO PULSES / 10 MSEC
000361: 14,2417           02514                           STORE    ERVECTOR
000362:
000363: 14,2420           77634                           RTB
000364: 14,2421           33454                                    LOADTIME
000365: 14,2422           02565                           STORE    TMARK                                 #  TIME FOR GYRO DRIFT - PIPA SCALE FACTOR
000366: 14,2423           77616                           RVQ
000367:
000368:
000369:
000370: 14,2424           05235        EARTHR             TC       MAKECADR                              #  CLACULATES AND COMPENSATES EARTH RATE
000371: 14,2425           55547                           TS       QPLACES
000372:
000373: 14,2426           04133                           TC       CHECKMM                               #  TEST FOR MAJOR MODE 4
000374: 14,2427           00004                           OCT      4                                     #  IS PRELAUNCH OVER ?
000375: 14,2430           12440                           TCF      GETPLTIM                              #  NO
000376: 14,2431           00004                           INHINT                                         #  YES,
000377: 14,2432           37763                           CA       BIT1                                  #  SET UP MP2TASK NOW
000378: 14,2433           05663                           TC       WAITLIST
000379: 14,2434  E3,1736                                  EBANK=   TGRR
000380: 14,2434           02003 56063                     2CADR    MP2TASK
000381:
000382: 14,2436           32476                           CA       3.27CADR                              #  SET UP RETURN TO BYPASS PRELAUNCH
000383: 14,2437           55547                           TS       QPLACES
000384:
000385: 14,2440           00006        GETPLTIM           EXTEND                                         #  GET CURRENT TIME
000386: 14,2441           30025                           DCA      TIME2
000387: 14,2442           52145                           DXCH     MPAC
000388: 14,2443           00006                           EXTEND
000389: 14,2444           30145                           DCA      MPAC
000390: 14,2445           53562                           DXCH     TEMPTIME                              #  STORE IN TEMPTIME BEFORE RELINT
000391: 14,2446           00003                           RELINT
000392:
000393: 14,2447           37767                           CAF      ZERO                                  #  DECLARE DP MODE.
000394: 14,2450           54153                           TS       MODE
000395: 14,2451           06112                           TC       INTPRET
000396: 14,2452           54225                           DSU      SL
000397: 14,2453           02565                                    TMARK                                 #  T(PRES) - T(PREV) = DT    SCALED 10 MSEC
000398: 14,2454           20212                                    9D                                    #  2 TO 21ST POWER = 1 REVOLUTION
000399: 14,2455           64361                           VXSC     MXV
000400: 14,2456           02514                                    ERVECTOR                              #  VT = (SIN  -COS  0)(OMEG/MS)(DT)


000402: 14,2457           02401                                    XSM                                   #  (XSM)(VT) = EARTH RATE COMPENSATION
000403: 14,2460           77655                           VAD
000404: 14,2461           02772                                    ERCOMP
000405: 14,2462           16772                           STODL    ERCOMP
000406: 14,2463           02562                                    TEMPTIME
000407: 14,2464           02565                           STORE    TMARK                                 #  T(PREVIOUS)
000408:
000409: 14,2465           47170                           AXT,1    RTB
000410: 14,2466           02771                           ECADR    ERCOMP
000411: 14,2467           33627                                    PULSEIMU                              #  TO PUT OUT GYRO TORQUING PULSES
000412: 14,2470           77776                           EXIT
000413:
000414: 14,2471           05206                           TC       BANKCALL
000415: 14,2472           26751                           CADR     IMUSTALL                              #  WAIT FOR PULSES TO GET OUT
000416: 14,2473           12770                           TCF      ENDTEST
000417: 14,2474           31547                           CAE      QPLACES
000418: 14,2475           15230                           TCF      BANKJUMP
000419:
000420: 14,2476           72651        3.27CADR           CADR     REDO3.27
000421:
000422:
000423: 14,2477           00006        STORRSLT           EXTEND
000424: 14,2500           23546                           QXCH     QPLACE
000425:
000426: 14,2501           06112                           TC       INTPRET                               #  DP TIME IN MPAC SCALED .312(5) MSEC
000427: 14,2502           54340                           LXC,1    SL
000428: 14,2503           02537                                    NDXCTR
000429: 14,2504           20204                                    3
000430: 14,2505           47005                           DMP      RTB
000431: 14,2506           31723                                    SCALFTR
000432: 14,2507           33520                                    SGNAGREE
000433: 14,2510           06571                           STORE    GENPL,1                               #  STORE DP TIME
000434: 14,2511           77776                           EXIT
000435:
000436: 14,2512           57551                           XCH      STOREPL                               #  CONTAINS C(PIPAI)
000437: 14,2513           51537                           INDEX    NDXCTR
000438: 14,2514           55572                           TS       GENPL      +2                         #  STORE PIPA COUNTER READING
000439: 14,2515           41537                           CS       NDXCTR
000440: 14,2516           63707                           AD       72DEC
000441: 14,2517           00006                           EXTEND
000442: 14,2520           63146                           BZMF     MISALIGN                              #  TO CALCULATE MISALIGNMENT
000443: 14,2521           36311                           CAF      THREE
000444: 14,2522           27537                           ADS      NDXCTR
000445: 14,2523           01546                           TC       QPLACE
000446:
000447: 14,2524           00006        OPTDATA            EXTEND                                         #  CALLS FOR AZIMUTH AND ELEVATION OF
000448: 14,2525           23546                           QXCH     QPLACE                                #     TARGET 1, THEN TARGET 2
000449:
000450: 14,2526           37763                           CAF      BIT1                                  #  AZIMUTH CLOCKWISE FROM NORTH TO TARGET


000452: 14,2527           22007                           ZL                                             #  ELEVATION MEASURED FROM HORIZONTAL
000453: 14,2530           23550                           LXCH     RUN
000454: 14,2531           54341                           TS       DSPTEM1    +2
000455: 14,2532           33675                           CAF      V05N30E                               #  DISPLAY TARGET NUMBER IN R3
000456: 14,2533           04657                           TC       NVSBWAIT
000457: 14,2534           51550                           INDEX    RUN
000458: 14,2535           53554                           DXCH     TAZEL1
000459: 14,2536           52340                           DXCH     DSPTEM1
000460:
000461: 14,2537           02577                           TC       CHECKLD                               #  R1  +- XXX.XX    AZIMUTH IN DEGREES
000462: 14,2540           00661                           OCT      00661                                 #  R2  +- XX.XXX    ELEVATION IN DEGREES
000463: 14,2541           12770                           TCF      ENDTEST                               #  R3      0000X    TARGET NUMBER 1 OR 2
000464:
000465: 14,2542           52340                           DXCH     DSPTEM1                               #  TAZEL1        TARGET 1 AZIMUTH
000466: 14,2543           51550                           INDEX    RUN
000467: 14,2544           53554                           DXCH     TAZEL1                                #  TAZEL1 +2     TARGET 2 AZIMUTH
000468: 14,2545           11550                           CCS      RUN
000469: 14,2546           12552                           TCF      +4
000470: 14,2547           37762        OPTRDRIN           CAF      TWO                                   #  SPECIAL ENTRY FOR RDR37511
000471: 14,2550           54001                           TS       L
000472: 14,2551           12530                           TCF      OPTDATA    +4                         #  MPAC    1ST PASS = 0    2ND PASS = 2
000473: 14,2552           01546                           TC       QPLACE
000474:


000476: 14,2553           62545        LATAZCHK           DLOAD    SL2                                   #  CALLS FOR AZIMUTH (SM) AND LATITUDE
000477: 14,2554           02511                                    LATITUDE
000478: 14,2555           14341                           STODL    DSPTEM1    +1
000479: 14,2556           02507                                    AZIMUTH                               #  ...NOT REALLY...
000480:
000481: 14,2557           77434                           RTB      EXIT
000482: 14,2560           33522                                    1STO2S                                #  FRACTION OF REVOLUTION TO 2S COMPLEMENT
000483:
000484: 14,2561           56144                           XCH      MPAC                                  #  AZIMUTH MUST BE 135 DEGREES R1 = .13500
000485: 14,2562           54337                           TS       DSPTEM1                               #     FOR SXT-NB-IMU FINE ALIGNMENT TEST
000486: 14,2563           02577                           TC       CHECKLD                               #  R1  +- XXX.XX    AZIMUTH IN DEGREES (SM)
000487: 14,2564           00661                           OCT      00661                                 #  R2  +- XX.XXX    LATITUDE IN DEGREES
000488: 14,2565           12770                           TCF      ENDTEST                               #  R3               NOT USED
000489:
000490: 14,2566           06112                           TC       INTPRET
000491: 14,2567           47135                           SLOAD    RTB
000492: 14,2570           00340                                    DSPTEM1
000493: 14,2571           33457                                    CDULOGIC                              #  BACK TO FRACTION OF REVOLUTION
000494: 14,2572           02507                           STORE    AZIMUTH
000495:
000496: 14,2573           60535                           SLOAD    SR2
000497: 14,2574           00341                                    DSPTEM1    +1
000498: 14,2575           02511                           STORE    LATITUDE
000499: 14,2576           77616                           RVQ
000500:
000501:
000502: 14,2577           00006        CHECKLD            EXTEND
000503: 14,2600           23545                           QXCH     QPLAC
000504:
000505: 14,2601           51545                           INDEX    QPLAC
000506: 14,2602           30000                           CA       A
000507: 14,2603           04444                           TC       NVSUB
000508: 14,2604           12616                           TCF      CHECKLD1
000509:
000510: 14,2605           04622                           TC       FLASHON
000511:
000512: 14,2606           04475                           TC       ENDIDLE                               #  CHANGE R1  V21 N61 E  +- XXX.XX E
000513: 14,2607           12612                           TCF      +3                                    #  CHANGE R2  V22 N61 E  +- XX.XXX E
000514: 14,2610           12614                           TCF      +4                                    #  VERIFY, THEN PROCEED WITH VERB 33 ENTER
000515: 14,2611           12601                           TCF      CHECKLD    +2
000516: 14,2612           51545                           INDEX    QPLAC
000517: 14,2613           00001                           TC       1
000518: 14,2614           51545                           INDEX    QPLAC
000519: 14,2615           00002                           TC       2
000520:
000521: 14,2616           32620        CHECKLD1           CAF      CHECKLD2
000522: 14,2617           04654                           TC       NVSUBUSY
000523: 14,2620           30601        CHECKLD2           CADR     CHECKLD    +2
000524:


000526: 14,2621           00006        POSNJUMP           EXTEND                                         #  POSITIONS FOR SXTNBIMU
000527: 14,2622           23546                           QXCH     QPLACE
000528:
000529: 14,2623           51544                           INDEX    POSITON
000530: 14,2624           12625                           TCF      +1
000531: 14,2625           12770                           TCF      ENDTEST
000532: 14,2626           12633                           TCF      POS1
000533: 14,2627           12640                           TCF      POS2
000534: 14,2630           12656                           TCF      POS3
000535: 14,2631           12677                           TCF      POS4
000536: 14,2632           12731                           TCF      POS5
000537:
000538:
000539:
000540: 14,2633           37763        POS1               CAF      ONE                                   #  XSM = V    YSM = SW    ZSM = SE
000541: 14,2634           55542                           TS       PIPNDX
000542: 14,2635           37762                           CAF      TWO
000543: 14,2636           55543                           TS       PIPNDX     +1                         #  MONITOR PIPAY AND PIPAZ
000544: 14,2637           01546                           TC       QPLACE
000545:
000546:
000547:
000548: 14,2640           06112        POS2               TC       INTPRET                               #  XSM = SE   YSM = SW    ZSM = -V
000549: 14,2641           57575                           VLOAD    VCOMP
000550: 14,2642           02401                                    XSM
000551: 14,2643           77715                           PDVL
000552: 14,2644           02415                                    ZSM
000553: 14,2645           26401                           STOVL    XSM
000554: 14,2646           77626                           STADR
000555: 14,2647           75362                           STORE    ZSM
000556: 14,2650           77776                           EXIT
000557: 14,2651           37767                           CAF      ZERO
000558: 14,2652           55542                           TS       PIPNDX
000559: 14,2653           37763                           CAF      ONE
000560: 14,2654           55543                           TS       PIPNDX     +1                         #  MONITOR PIPAX AND PIPAY
000561: 14,2655           01546                           TC       QPLACE
000562:
000563:
000564:
000565: 14,2656           06112        POS3               TC       INTPRET                               #  XSM = SE    YSM = V    ZSM = SW
000566: 14,2657           63375                           VLOAD    PDVL
000567: 14,2660           02401                                    XSM
000568: 14,2661           02407                                    YSM
000569: 14,2662           77715                           PDVL
000570: 14,2663           02415                                    ZSM
000571: 14,2664           26401                           STOVL    XSM
000572:
000573: 14,2665           77626                           STADR
000574: 14,2666           51362                           STOVL    ZSM
000575:


000577: 14,2667           77626                           STADR
000578: 14,2670           75370                           STORE    YSM
000579: 14,2671           77776                           EXIT
000580: 14,2672           37767                           CAF      ZERO
000581: 14,2673           55542                           TS       PIPNDX
000582: 14,2674           37762                           CAF      TWO
000583: 14,2675           55543                           TS       PIPNDX     +1                         #  MONITOR PIPAX AND PIPAZ
000584: 14,2676           01546                           TC       QPLACE
000585:
000586:
000587:
000588: 14,2677           37757        POS4               CAF      BIT5                                  #  OPTION TO ALIGN SM TO SPECIFIED ANGLES
000589: 14,2700           60110                           AD       FIXLOC
000590: 14,2701           50110                           INDEX    FIXLOC
000591: 14,2702           54050                           TS       S1                                    #  BASE ADDRESS GIMBAL ANGLES
000592: 14,2703           33701                           CAF      V25N22E                               #  R1  +- XXX.XX   OUTER GIMBAL ANGLE
000593: 14,2704           04657                           TC       NVSBWAIT                              #  R2  +- XXX.XX   INNER GIMBAL ANGLE
000594: 14,2705           04475                           TC       ENDIDLE                               #  R3  +- XXX.XX   MIDDLE GIMBAL ANGLE
000595: 14,2706           12770                           TCF      ENDTEST
000596: 14,2707           12703                           TCF      -4
000597: 14,2710           30400                           CA       THETAD                                #  SET UP ANLES FOR SMNB
000598: 14,2711           50110                           INDEX    FIXLOC
000599: 14,2712           54024                           TS       24
000600: 14,2713           30401                           CA       THETAD     +1
000601: 14,2714           50110                           INDEX    FIXLOC
000602: 14,2715           54020                           TS       20
000603: 14,2716           30402                           CA       THETAD     +2
000604: 14,2717           50110                           INDEX    FIXLOC
000605: 14,2720           54022                           TS       22
000606:
000607: 14,2721           06112                           TC       INTPRET
000608: 14,2722           45034                           RTB      CALL
000609: 14,2723           33031                                    TRANSPSE                              #  EARH REF WRT NAV BASE
000610: 14,2724           33043                                    SMD/EREF                              #  STABLE MEMBER DESIRED WRT EARTH REF
000611: 14,2725           77634                           RTB
000612: 14,2726           33031                                    TRANSPSE                              #  BACK TO NAV BASE WRT TO EARTH REF
000613: 14,2727           77776                           EXIT
000614: 14,2730           01546                           TC       QPLACE
000615:


000617: 14,2731           31546        POS5               CA       QPLACE                                #  OPTION TO ALIGN SM TO ANY ORIENTATION
000618: 14,2732           55551                           TS       STOREPL                               #    WRT EARTH REFERENCE FRAME
000619:
000620: 14,2733           02524                           TC       OPTDATA                               #  LOAD YSM AND ZSM AZIMUTH AND ELEVATION
000621:
000622: 14,2734           06112                           TC       INTPRET
000623: 14,2735           77624                           CALL
000624: 14,2736           30350                                    TAR/EREF                              #  CALC YSM AND ZSM WRT EARTH REF. FRAME
000625: 14,2737           41575                           VLOAD    PUSH
000626: 14,2740           00007                                    6D
000627: 14,2741           02407                           STORE    YSM
000628: 14,2742           76435                           VXV      VSL1
000629: 14,2743           00015                                    12D
000630: 14,2744           02401                           STORE    XSM                                   #  XSM = (YSM) X (ZSM)
000631: 14,2745           76435                           VXV      VSL1
000632: 14,2746           77626                           STADR
000633: 14,2747           75362                           STORE    ZSM                                   #  ZSM = (XSM) X (YSM)
000634: 14,2750           77776                           EXIT
000635:
000636: 14,2751           01551                           TC       STOREPL


000638: 14,2752           00006        OGCZERO            EXTEND                                         #  ZERO EARTH RATE TORQUING ANGLES
000639: 14,2753           23546                           QXCH     QPLACE
000640:
000641: 14,2754           06112                           TC       INTPRET
000642: 14,2755           77775                           VLOAD
000643: 14,2756           33105                                    ZERODP                                #  VECTOR IN THIS CASE
000644: 14,2757           02772                           STORE    ERCOMP
000645: 14,2760           77776                           EXIT
000646: 14,2761           01546                           TC       QPLACE
000647:
000648:
000649:
000650: 14,2762           37756        GMLCKCHK           CAF      BIT6                                  #  CHECK FOR GIMBAL LOCK  (MGA GREATER 70)
000651: 14,2763           70326                           MASK     DSPTAB     +11D
000652: 14,2764           00006                           EXTEND
000653: 14,2765           12767                           BZF      +2
000654: 14,2766           12770                           TCF      ENDTEST
000655: 14,2767           00002                           TC       Q
000656:
000657:
000658:
000659: 14,2770           37754        ENDTEST            CA       IMUSEFLG                              #  BIT8
000660: 14,2771           67755                           AD       RRUSEFLG                              #  BIT7
000661: 14,2772           40000                           CS       A
000662: 14,2773           00004                           INHINT
000663: 14,2774           70074                           MASK     STATE
000664: 14,2775           54074                           TS       STATE
000665:
000666: 14,2776           04117                           TC       NEWMODEX
000667: 14,2777           00000                           OCT      00000
000668:
000669: 14,3000           05206                           TC       BANKCALL
000670: 14,3001           27046                           CADR     MKRELEAS                              #  RELEASE MARK SYSTEM
000671: 14,3002           05566                           TC       EJFREE
000672:


000674: 14,3003           06112        LEMLAB             TC       INTPRET
000675: 14,3004           57575                           VLOAD    VCOMP
000676: 14,3005           33101                                    YUNIT
000677:
000678: 14,3006           02437                           STORE    ZNB                                   #  XNB MATRIX USED IN CALCGA
000679: 14,3007           26461                           STOVL    STARAD     +12D                       #  STARAD MATRIX USED IN AXISGEN * SMDCALC
000680: 14,3010           33103                                    XUNIT
000681:
000682: 14,3011           02423                           STORE    XNB                                   #  *XNB*   *1    0    0* *V*
000683: 14,3012           26445                           STOVL    STARAD                                #  *   *   *           * * *
000684: 14,3013           33077                                    ZUNIT                                 #  *YNB* = *0    0    1* *S*
000685: 14,3014           02431                           STORE    YNB                                   #  *   *   *           * * *
000686: 14,3015           02453                           STORE    STARAD     +6                         #  *ZNB*   *0   -1    0* *E*
000687: 14,3016           77776                           EXIT
000688:
000689: 14,3017           41544                           CS       POSITON
000690: 14,3020           66311                           AD       THREE
000691: 14,3021           00006                           EXTEND
000692: 14,3022           13024                           BZF      +2
000693: 14,3023           13037                           TCF      LEMLAB1
000694:
000695: 14,3024           06112                           TC       INTPRET
000696: 14,3025           57575                           VLOAD    VCOMP
000697: 14,3026           02423                                    XNB
000698: 14,3027           77715                           PDVL                                           #  *XNB*   * 0   -1    0* *V*
000699: 14,3030           02437                                    ZNB                                   #  *   *   *            * * *
000700: 14,3031           02423                           STORE    XNB                                   #  *YNB* = * 0    0    1* *S*
000701: 14,3032           26445                           STOVL    STARAD                                #  *   *   *            * * *
000702: 14,3033           77626                           STADR                                          #  *ZNB*   *-1    0    0* * *
000703: 14,3034           75340                           STORE    ZNB
000704: 14,3035           02461                           STORE    STARAD     +12D
000705: 14,3036           77776                           EXIT
000706:
000707: 14,3037           05206        LEMLAB1            TC       BANKCALL
000708: 14,3040           26751                           CADR     IMUSTALL                              #  INSURE IMUZERO COMPLETION
000709:
000710: 14,3041           12770                           TCF      ENDTEST
000711:
000712: 14,3042           02621                           TC       POSNJUMP                              #  SET UP STABLE MEMBER DESIRED COORDINATES
000713: 14,3043           04724                           TC       FREEDSP                               #  FREE DISPLAY SYSTEM
000714: 14,3044           02247                           TC       PUTPOSX                               #  TO COARSE ALIGN STABLE MEMBER
000715:
000716: 14,3045           02762                           TC       GMLCKCHK
000717:
000718: 14,3046           05206                           TC       BANKCALL
000719: 14,3047           26252                           CADR     IMUFINE                               #  FINE ALIGN MODE
000720: 14,3050           05206                           TC       BANKCALL
000721: 14,3051           26751                           CADR     IMUSTALL
000722: 14,3052           12770                           TCF      ENDTEST
000723:


000725: 14,3053           30032                           CA       CDUX
000726: 14,3054           50110                           INDEX    FIXLOC
000727: 14,3055           54024                           TS       24
000728: 14,3056           30033                           CA       CDUY
000729: 14,3057           50110                           INDEX    FIXLOC
000730: 14,3060           54020                           TS       20
000731: 14,3061           30034                           CA       CDUZ
000732: 14,3062           50110                           INDEX    FIXLOC
000733: 14,3063           54022                           TS       22
000734:
000735: 14,3064           37757                           CAF      BIT5
000736: 14,3065           60110                           AD       FIXLOC
000737: 14,3066           50110                           INDEX    FIXLOC
000738: 14,3067           54050                           TS       S1
000739:
000740: 14,3070           02263                           TC       SMDCALC                               #  TO FINE ALIGN STABLE MEMBER
000741:
000742: 14,3071           06112                           TC       INTPRET                               #  IF EARTH RATE COMPENSATION DESIRED
000743: 14,3072           77634                           RTB
000744: 14,3073           33454                                    LOADTIME
000745: 14,3074           02565                           STORE    TMARK
000746: 14,3075           77776                           EXIT
000747:
000748: 14,3076           41512                           CS       EROPTN
000749: 14,3077           67762                           AD       TWO
000750: 14,3100           00006                           EXTEND
000751: 14,3101           13103                           BZF      +2
000752:
000753: 14,3102           12051                           TCF      ERFINAL    +2
000754:
000755: 14,3103           05206                           TC       BANKCALL
000756: 14,3104           47236                           CADR     SAMODRTN                              #  RETURN TO SEMI-AUTOMATIC MODING TEST
000757:


000759: 14,3105           33717        RDR37511           CAF      RDRRETN                               #  RENDEZVOUS RADAR AND ANTENNA TRACKING
000760: 14,3106           55546                           TS       QPLACE                                #  TO RETURN FROM OPTDATA
000761:
000762: 14,3107           05206                           TC       BANKCALL
000763: 14,3110           20250                           CADR     RRZERO
000764:
000765: 14,3111           05206                           TC       BANKCALL
000766: 14,3112           22760                           CADR     AURLOKON                              #  OPERATOR DECISION TO LOCK ON OR NOT
000767:
000768: 14,3113           12547        RDR1               TCF      OPTRDRIN                              #  CALL FOR AZIMUTH AND ELEVATION
000769:
000770: 14,3114           05206                           TC       BANKCALL
000771: 14,3115           26745                           CADR     RADSTALL
000772: 14,3116           15567                           TCF      ENDOFJOB
000773:
000774: 14,3117           06112                           TC       INTPRET
000775: 14,3120           77170                           AXT,1    AXT,2                                 #  SET UP X1 AND X2 FOR TAR/EREF
000776: 14,3121           00000                                    0
000777: 14,3122           00006                                    6
000778: 14,3123           77624                           CALL
000779: 14,3124           30353                                    TAR/EREF   +3                         #  LINE-OF-SIGHT WRT EARTH REF FRAME
000780: 14,3125           64375                           VLOAD    MXV
000781: 14,3126           00015                                    12D                                   #  LINE-OF-SIGHT WRT EARTH REF FRAME
000782: 14,3127           02401                                    XSM                                   #  TO STABLE MEMBER PRESENT FRAME
000783: 14,3130           77772                           VSL1
000784: 14,3131           34415                           STCALL   RRTARGET
000785: 14,3132           20307                                    RRDESSM
000786:
000787: 14,3133           13140                           TCF      37511ALM
000788: 14,3134           05206                           TC       BANKCALL
000789: 14,3135           26745                           CADR     RADSTALL
000790: 14,3136           15567                           TCF      ENDOFJOB
000791: 14,3137           15567                           TCF      ENDOFJOB
000792:
000793:
000794:
000795: 14,3140           04755        37511ALM           TC       ALARM
000796: 14,3141           00524                           OCT      524
000797: 14,3142           15567                           TCF      ENDOFJOB
000798:
000799:
000800:
000801: 14,3143           47767        RDRINIT            CS       ZERO
000802: 14,3144           55512                           TS       EROPTN
000803: 14,3145           12002                           TCF      AOTNBIMU   +2
000804:


000806: 14,3146           04644        MISALIGN           TC       GRABWAIT                              #  DISPLAY SYSTEM WAS FREED
000807: 14,3147           37767                           CAF      ZERO
000808: 14,3150           55537                           TS       NDXCTR
000809: 14,3151           51537        BBBB               INDEX    NDXCTR
000810: 14,3152           41674                           CS       GENPL      +68D
000811: 14,3153           51537                           INDEX    NDXCTR
000812: 14,3154           27702                           ADS      GENPL      +74D
000813: 14,3155           33705                           CAF      63DEC
000814: 14,3156           61537                           AD       NDXCTR
000815: 14,3157           10000                           CCS      A
000816: 14,3160           46311                           CS       THREE
000817: 14,3161           27537                           ADS      NDXCTR
000818: 14,3162           13151                           TCF      BBBB
000819: 14,3163           55537                           TS       NDXCTR
000820:
000821:
000822:
000823: 14,3164           06112        CCCC               TC       INTPRET
000824: 14,3165           70750                           LXA,1    DLOAD*
000825: 14,3166           02537                                    NDXCTR
000826: 14,3167           02701                                    GENPL      +72D,1
000827: 14,3170           77625                           DSU
000828: 14,3171           02571                                    GENPL
000829: 14,3172           06701                           STORE    GENPL      +72D,1
000830: 14,3173           77776                           EXIT
000831: 14,3174           41537                           CS       NDXCTR
000832: 14,3175           63706                           AD       69DEC
000833: 14,3176           10000                           CCS      A
000834: 14,3177           36311                           CAF      THREE
000835: 14,3200           27537                           ADS      NDXCTR
000836: 14,3201           13164                           TCF      CCCC
000837: 14,3202           55550                           TS       RUN
000838: 14,3203           36311                           CAF      THREE
000839: 14,3204           55537                           TS       NDXCTR
000840:
000841:
000842:
000843: 14,3205           06112        DDDD               TC       INTPRET
000844: 14,3206           77775                           VLOAD
000845: 14,3207           33105                                    ZERODP
000846: 14,3210           00031                           STORE    24D
000847: 14,3211           00037                           STORE    30D
000848: 14,3212           77735                           SLOAD
000849: 14,3213           31703                                    11DEC
000850: 14,3214           00041                           STORE    32D
000851: 14,3215           77776                           EXIT
000852:
000853: 14,3216           06112        DDDD1              TC       INTPRET
000854: 14,3217           70750                           LXA,1    DLOAD*
000855: 14,3220           02537                                    NDXCTR
000856:


000858: 14,3221           02701                                    GENPL      +72D,1
000859: 14,3222           41423                           DSU*     PUSH
000860: 14,3223           02673                                    GENPL      +66D,1
000861: 14,3224           42742                           SR1      DAD*
000862: 14,3225           02673                                    GENPL      +66D,1
000863: 14,3226           06701                           STORE    GENPL      +72D,1
000864:
000865: 14,3227           43312                           SL2      DAD
000866: 14,3230           00031                                    24D
000867: 14,3231           20031                           STODL*   24D
000868: 14,3232           02701                                    GENPL      +72D,1
000869: 14,3233           63412                           SL4      DSQ
000870: 14,3234           77615                           DAD
000871: 14,3235           00033                                    26D
000872: 14,3236           00033                           STORE    26D
000873: 14,3237           77776                           EXIT
000874: 14,3240           31550                           CAE      RUN
000875: 14,3241           61537                           AD       NDXCTR
000876: 14,3242           40000                           COM
000877: 14,3243           63705                           AD       63DEC
000878: 14,3244           10000                           CCS      A
000879: 14,3245           36306                           CAF      SIX
000880: 14,3246           27537                           ADS      NDXCTR
000881: 14,3247           13216                           TCF      DDDD1
000882: 14,3250           61550                           AD       RUN
000883: 14,3251           55537                           TS       NDXCTR
000884:
000885:
000886:
000887: 14,3252           06112        EEEE               TC       INTPRET
000888: 14,3253           66740                           LXC,1    SLOAD*
000889: 14,3254           02537                                    NDXCTR
000890: 14,3255           02604                                    GENPL      +11D,1
000891: 14,3256           00043                           STORE    34D
000892: 14,3257           77745                           DLOAD
000893: 14,3260           54206                           PUSH     SL
000894: 14,3261           20211                                    8D
000895: 14,3262           43265                           BDDV     DAD
000896: 14,3263           00043                                    34D
000897: 14,3264           00035                                    28D
000898: 14,3265           14035                           STODL    28D
000899: 14,3266           55261                           SL       BDDV
000900: 14,3267           20207                                    6
000901: 14,3270           00043                                    34D
000902: 14,3271           42523                           PDDL*    SL4
000903: 14,3272           02602                                    GENPL      +9D,1
000904: 14,3273           77605                           DMP
000905: 14,3274           77615                           DAD
000906: 14,3275           00037                                    30D
000907: 14,3276           00037                           STORE    30D
000908:


000910: 14,3277           77776                           EXIT
000911: 14,3300           41537                           CS       NDXCTR
000912: 14,3301           63704                           AD       60DEC
000913: 14,3302           61550                           AD       RUN
000914: 14,3303           10000                           CCS      A
000915: 14,3304           36306                           CAF      SIX
000916: 14,3305           27537                           ADS      NDXCTR
000917: 14,3306           13252                           TCF      EEEE
000918:
000919:
000920:
000921: 14,3307           06112                           TC       INTPRET
000922: 14,3310           41345                           DLOAD    DMP
000923: 14,3311           00031                                    24D
000924: 14,3312           00037                                    30D
000925: 14,3313           41325                           PDDL     DMP
000926: 14,3314           00033                                    26D
000927: 14,3315           00035                                    28D
000928: 14,3316           77625                           DSU
000929: 14,3317           63525                           PDDL     DSQ
000930: 14,3320           00031                                    24D
000931: 14,3321           65342                           SR1      PDDL
000932: 14,3322           00041                                    32D
000933: 14,3323           41261                           SL       DMP
000934: 14,3324           20212                                    11
000935: 14,3325           00033                                    26D
000936: 14,3326           55225                           DSU      BDDV
000937: 14,3327           54205                           DMP      SL
000938: 14,3330           31716                                    KKKK
000939: 14,3331           20204                                    3
000940: 14,3332           00343                           STORE    DSPTEM2
000941: 14,3333           77776                           EXIT
000942:
000943: 14,3334           31544                           CA       POSITON
000944: 14,3335           54344                           TS       DSPTEM2    +2
000945:
000946: 14,3336           33677                           CAF      V06N66E
000947: 14,3337           04657                           TC       NVSBWAIT
000948: 14,3340           04622                           TC       FLASHON
000949: 14,3341           04475                           TC       ENDIDLE
000950: 14,3342           12770                           TCF      ENDTEST
000951: 14,3343           36311                           CAF      THREE
000952: 14,3344           55550                           TS       RUN
000953: 14,3345           37767                           CAF      ZERO
000954: 14,3346           13204                           TCF      DDDD       -1
000955:


000957:                                                                                                  #  THIS REVISION REFLECTS CHANGES AS OF
000958:                                                                                                  #   1/31/66
000959:                                                                                                  #  ENGINE ON/OFF NOW IN CHANNEL ELEVEN.  THE BITS FOR EACH CHANNEL GET TURNED ON ALL AT ONCE.  THEY STAY ON UNTIL
000960:                                                                                                  #   :ENTER:IS PUSHED.  THEN THEY ALL GO OUT AND THE NEXT CHANNEL:S BITS ARE TURNED ON.
000961:                                                                                                  #  CHANNEL 5  BITS 1-8
000962:                                                                                                  #  CHANNEL 6  BITS 1-8
000963:                                                                                                  #  CHANNEL 11 BITS  13,14
000964:                                                                                                  #  CHANNEL 12 BITS 9-14
000965:                                                                                                  #  FOLLOWING THE CHANNEL 12 TESTS ENTER IS PRESSED.  CHANNEL 12 IS SET TO ZERO AND THE NEXT TEST BEGUN. LOW9
000966:                                                                                                  #  GOES IN LOCATION (COUNTER) 55.
000967:                                                                                                  #  INCREASE THROTTLE RATE DESCENT ENGINE
000968:                                                                                                  #  :ENTER: NOW CAUSES THE CONTENTS OF 55 TO BE MADE NEGATIVE
000969:                                                                                                  #  DECREASE THROTTLE RATE DESCENT ENGINE
000970:                                                                                                  #  THE NEXT :ENTER: ZEROS THE REGISTER AND SENDS A PULSE TRAIN (HERE ALTERN
000971:                                                                                                  #  ZEROS FOR CALRITY) TO THE ALTITUDE METER.
000972:                                                                                                  #  THE NEXT :ENTER: WILL ADVANCE THE TEST TO THE ALTITUDE RATE METER TEST.
000973:                                                                                                  #  THE NEXT :ENTER : WILL TERMINATE THE TEST.
000974:
000975:
000976:
000977: 14,3347           37743        SAUTOIFS           CA       POSMAX
000978: 14,3350           55576                           TS       NOBITS
000979: 14,3351           37767                           CA       ZERO
000980: 14,3352           55577                           TS       CHAN
000981: 14,3353           55575                           TS       TEMP
000982: 14,3354           03356                           TC       DINO
000983: 14,3355           25577        BACK1              INCR     CHAN
000984:
000985: 14,3356           51577        DINO               INDEX    CHAN
000986: 14,3357           33361                           CA       SAUTLOCS
000987: 14,3360           15212                           TCF      SWCALL
000988: 14,3361           31375        SAUTLOCS           CADR     CHAN5D
000989: 14,3362           31413                           CADR     CHAN6D
000990: 14,3363           31421                           CADR     CHAN11D
000991: 14,3364           31433                           CADR     CHAN12D
000992: 14,3365           31445                           CADR     PTITRDE
000993: 14,3366           31472                           CADR     PTDTRDE
000994: 14,3367           31547                           CADR     ALTMET
000995: 14,3370           31574                           CADR     ALTRMET
000996: 14,3371           30770                           CADR     ENDTEST
000997: 14,3372           31477        THROTADD           CADR     PTDTRDE    +5
000998: 14,3373           31552        METERADD           CADR     ALTMET     +3
000999: 14,3374           31577        MRATEADD           CADR     ALTRMET    +3
001000: 14,3375           37766        CHAN5D             CA       FIVE
001001: 14,3376           54337                           TS       DSPTEM1
001002: 14,3377           34564        2ENTRY             CA       LOW8                                  #  CHANNEL 6 RETURNS HERE
001003: 14,3400           54340                           TS       DSPTEM1    +1
001004: 14,3401           00006                           EXTEND
001005: 14,3402           51575                           INDEX    TEMP
001006: 14,3403           01005                           WRITE    5
001007:


001009: 14,3404           33666        3ENTRY             CA       V04N30D                               #  CH11,12 RETURN HERE TO USE THE DISPLAY
001010: 14,3405           04657                           TC       NVSBWAIT
001011: 14,3406           33673        4ENTRY             CAF      WAITER                                #  WAITER IS 03300
001012: 14,3407           04657                           TC       NVSBWAIT
001013: 14,3410           04475                           TC       ENDIDLE
001014: 14,3411           02770                           TC       ENDTEST
001015: 14,3412           03355                           TC       BACK1
001016:
001017: 14,3413           25575        CHAN6D             INCR     TEMP
001018: 14,3414           24337                           INCR     DSPTEM1
001019: 14,3415           37767                           CAF      ZERO
001020: 14,3416           00006                           EXTEND
001021: 14,3417           01005                           WRITE    5                                     #  GET RID OF CHANNEL 5 BITS
001022: 14,3420           03377                           TC       2ENTRY
001023: 14,3421           34530        CHAN11D            CA       OCT11
001024: 14,3422           54337                           TS       DSPTEM1
001025: 14,3423           35210                           CA       BIT13-14
001026: 14,3424           54340                           TS       DSPTEM1    +1
001027: 14,3425           00006                           EXTEND
001028: 14,3426           05011                           WOR      11                                    #  WOR IS NON EXCLUSIVE OR
001029: 14,3427           37767                           CAF      ZERO
001030: 14,3430           00006                           EXTEND
001031: 14,3431           01006                           WRITE    6
001032: 14,3432           03404                           TC       3ENTRY
001033: 14,3433           34570        CHAN12D            CA       OCT12
001034: 14,3434           54337                           TS       DSPTEM1
001035: 14,3435           45210                           CS       BIT13-14
001036: 14,3436           00006                           EXTEND
001037: 14,3437           03011                           WAND     11
001038: 14,3440           33671                           CA       CH12BITS
001039: 14,3441           54340                           TS       DSPTEM1    +1
001040: 14,3442           00006                           EXTEND
001041: 14,3443           05012                           WOR      12
001042: 14,3444           03404                           TC       3ENTRY
001043: 14,3445           43671        PTITRDE            CS       CH12BITS
001044: 14,3446           00006                           EXTEND
001045: 14,3447           03012                           WAND     12
001046: 14,3450           37767                           CA       ZERO
001047: 14,3451           54337                           TS       DSPTEM1
001048: 14,3452           54340                           TS       DSPTEM1    +1
001049: 14,3453           55575                           TS       TEMP
001050: 14,3454           37763                           CA       BIT1
001051: 14,3455           55576                           TS       NOBITS
001052: 14,3456           00004        PIT                INHINT
001053: 14,3457           05663                           TC       WAITLIST
001054: 14,3460  E5,1400                                  EBANK=   XSM
001055: 14,3460           03503 30065                     2CADR    THROTASK
001056:
001057: 14,3462           00003                           RELINT
001058: 14,3463           33673                           CA       WAITER


001060: 14,3464           04657                           TC       NVSBWAIT
001061:
001062: 14,3465           04475                           TC       ENDIDLE
001063: 14,3466           02770                           TC       ENDTEST
001064: 14,3467           37767                           CA       ZERO
001065: 14,3470           55576                           TS       NOBITS
001066: 14,3471           03355                           TC       BACK1
001067:
001068: 14,3472           37767        PTDTRDE            CA       ZERO
001069: 14,3473           54055                           TS       THRUST
001070: 14,3474           33372                           CA       THROTADD
001071: 14,3475           55574                           TS       TEMPADD
001072: 14,3476           05545                           TC       JOBSLEEP                              #  THIS INHIBITS THE NEXT TASK UNTIL
001073:                                                                                                  #  CURRENT TASK HAS BEEN COMPLETED
001074: 14,3477           37743                           CA       POSMAX
001075: 14,3500           55575                           TS       TEMP
001076: 14,3501           37755                           CA       BIT7
001077: 14,3502           03456                           TC       PIT
001078: 14,3503           11576        THROTASK           CCS      NOBITS                                #  IS THIS TASK STILL REQ
001079: 14,3504           03511                           TC       +5                                    #  YES
001080: 14,3505           31574                           CA       TEMPADD                               #  NO
001081: 14,3506           55576                           TS       NOBITS
001082: 14,3507           05551                           TC       JOBWAKE
001083: 14,3510           05727                           TC       TASKOVER
001084: 14,3511           11575                           CCS      TEMP
001085: 14,3512           03525                           TC       SOMETIME
001086: 14,3513           34563                           CA       LOW11
001087: 14,3514           54055        ALWAYS             TS       THRUST
001088: 14,3515           37760                           CA       BIT4
001089: 14,3516           00006                           EXTEND                                         #  A SMERZH FIX.
001090: 14,3517           05014                           WOR      14
001091: 14,3520           37756                           CA       BIT6                                  #  320 MS.DELAY
001092: 14,3521           05663                           TC       WAITLIST
001093: 14,3522           03503 30065                     2CADR    THROTASK
001094:
001095: 14,3524           05727                           TC       TASKOVER
001096: 14,3525           44563        SOMETIME           CS       LOW11
001097: 14,3526           03514                           TC       ALWAYS
001098: 14,3527           11576        ALTASK             CCS      NOBITS                                #  IS TASK STILL REQ
001099: 14,3530           03535                           TC       +5
001100: 14,3531           31574                           CA       TEMPADD                               #  NO
001101: 14,3532           55576                           TS       NOBITS                                #  ENABLES NEXT TASK
001102: 14,3533           05551                           TC       JOBWAKE
001103: 14,3534           05727                           TC       TASKOVER
001104: 14,3535           33667                           CA       ALBITS                                #  ACTUAL TASK STARTS HERE
001105: 14,3536           54060                           TS       ALTM
001106: 14,3537           37761                           CA       BIT3
001107: 14,3540           00006                           EXTEND
001108: 14,3541           05014                           WOR      14
001109: 14,3542           37756                           CA       BIT6                                  #  320 MS. DELAY


001111: 14,3543           05663                           TC       WAITLIST
001112: 14,3544  E5,1400                                  EBANK=   XSM
001113: 14,3544           03527 30065                     2CADR    ALTASK
001114:
001115: 14,3546           05727                           TC       TASKOVER
001116: 14,3547           33373        ALTMET             CA       METERADD
001117: 14,3550           55574                           TS       TEMPADD
001118: 14,3551           05545                           TC       JOBSLEEP
001119: 14,3552           37767                           CA       ZERO
001120: 14,3553           55575                           TS       TEMP
001121: 14,3554           47760                           CS       BIT4
001122: 14,3555           00006                           EXTEND
001123: 14,3556           03014                           WAND     14
001124: 14,3557           00004                           INHINT
001125: 14,3560           37763                           CA       ONE
001126: 14,3561           05663                           TC       WAITLIST
001127: 14,3562  E5,1400                                  EBANK=   XSM
001128: 14,3562           03527 30065                     2CADR    ALTASK
001129:
001130: 14,3564           00003                           RELINT
001131: 14,3565           33673                           CA       WAITER
001132: 14,3566           04657                           TC       NVSBWAIT
001133: 14,3567           04475                           TC       ENDIDLE
001134: 14,3570           02770                           TC       ENDTEST
001135: 14,3571           37767                           CA       ZERO
001136: 14,3572           55576                           TS       NOBITS
001137: 14,3573           03355                           TC       BACK1
001138:
001139: 14,3574           33374        ALTRMET            CA       MRATEADD
001140: 14,3575           55574                           TS       TEMPADD
001141: 14,3576           05545                           TC       JOBSLEEP
001142: 14,3577           37763                           CA       ONE
001143: 14,3600           55575                           TS       TEMP                                  #  TEMP WILL BE INDEXED TO ACQUIRE BIT2 INS
001144:                                                                                                  #  TEAD OF BIT3
001145: 14,3601           37762                           CA       BIT2
001146: 14,3602           00006                           EXTEND
001147: 14,3603           05014                           WOR      14
001148: 14,3604           03557                           TC       ALTMET     +8D
001149:


001151:                                                                                                  #       THE AOT ANGLE CHECKING PROGRAM PROVIDES A SIMPLE VERIFICATION OF THE ACCURACY OF THE AOT,  THE IDEA IS TO
001152:                                                                                                  #  COMPUTE THE ANGLE BETWEEN TWO LINES OF SIGHT AS INDICATED BY THE AOT, WHICH IS WHAT THIS PROGRAM DOES.
001153:                                                                                                  #  INDEPENDENT KNOWLEDGE OF THE INCLUDED ANGLE PROVIDES A COMPARISON AND THUS A MEASURE OF THE AOT ACCURACY.
001154:                                                                                                  #        THE ISS NEED NOT BE ON TO RUN THIS PROGRAM.
001155:
001156:
001157: 14,3605           06112        AOTANGCK           TC       INTPRET
001158: 14,3606           77414                           SET      EXIT                                  #  IN CASE THE ISS IS OFF.
001159: 14,3607           00065                                    COAROFIN
001160: 14,3610           02135                           TC       FINDNAVB                              #  FOR LOS1 AND LOS2.
001161: 14,3611           06112                           TC       INTPRET
001162: 14,3612           47375                           VLOAD    VXV
001163: 14,3613           02601                                    LOS1
001164: 14,3614           02607                                    LOS2
001165: 14,3615           77646                           ABVAL
001166: 14,3616           24023                           STOVL    SINTH                                 #  SINTH = ABVAL (VXV ).
001167: 14,3617           02601                                    LOS1
001168: 14,3620           77641                           DOT
001169: 14,3621           02607                                    LOS2
001170: 14,3622           34021                           STCALL   COSTH                                 #  COSTH = V.V
001171: 14,3623           32476                                    ARCTRIG
001172: 14,3624           77634                           RTB
001173: 14,3625           33522                                    1STO2S                                #  DP 1S COMP SP 2S COMP.
001174: 14,3626           00025                           STORE    THETA
001175: 14,3627           77776                           EXIT
001176: 14,3630           33720                           CAF      THETAADR
001177: 14,3631           60110                           AD       FIXLOC
001178: 14,3632           54146                           TS       MPAC       +2
001179: 14,3633           33676                           CAF      V06N03E                               #  XXX.XX DEGREES IN R1.
001180: 14,3634           04657                           TC       NVSBWAIT
001181: 14,3635           12770                           TCF      ENDTEST
001182:


001184: 14,3636  E3,1400                                  EBANK=   1400
001185: 14,3636           00004        ZEROERAS           INHINT                                         #  PROGRAM BY MUNTZ TO ZERO ERASEABLE
001186: 14,3637           37767                           CAF      ZERO
001187: 14,3640           54026                           TS       TIME3
001188: 14,3641           33665                           CAF      OCT27
001189: 14,3642           54003                           TS       EBANK
001190: 14,3643           22007        ZEROLP             ZL
001191: 14,3644           50000                           INDEX    A
001192: 14,3645           23401                           LXCH     1401
001193: 14,3646           67762                           AD       TWO
001194: 14,3647           26003                           ADS      EBANK
001195: 14,3650           74564                           MASK     LOW8
001196: 14,3651           10000                           CCS      A
001197: 14,3652           13643                           TCF      ZEROLP
001198: 14,3653           10003                           CCS      EBANK
001199: 14,3654           13657                           TCF      ZEROLP1
001200: 14,3655           05225                           TC       POSTJUMP
001201: 14,3656           02000                           CADR     SLAP1
001202: 14,3657           00003        ZEROLP1            RELINT
001203: 14,3660           37767                           CAF      ZERO                                  #  KEEP T4RUPT GOING, BUT NOT CYCLING
001204: 14,3661           54347                           TS       DSRUPTSW
001205: 14,3662           00004                           INHINT
001206: 14,3663           47763                           CS       ONE
001207: 14,3664           13643                           TCF      ZEROLP
001208: 14,3665           00027        OCT27              OCT      27
001209:


001211: 14,3666  E5,1500                                  EBANK=   OGC
001212: 14,3666           00430        V04N30D            OCT      00430
001213: 14,3667           52525        ALBITS             OCT      52525
001214: 14,3670           70707        THRSBITS           OCT      70707
001215: 14,3671     4570               OCT12              =        TEN
001216: 14,3671     4530               OCT11              =        NINE
001217: 14,3671           37400        CH12BITS           OCT      37400
001218: 14,3672           00130        V01N30D            OCT      00130
001219: 14,3673           03300        WAITER             OCT      03300
001220:
001221:
001222: 14,3674           00130        V01N30E            OCT      00130                                 #  FOR FINDNAVB
001223: 14,3675           00530        V05N30E            OCT      00530                                 #  FOR OPTDATA
001224: 14,3676           00603        V06N03E            OCT      00603
001225: 14,3677           00666        V06N66E            OCT      00666
001226: 14,3700           02430        V24N30E            OCT      02430                                 #  FOR POSITION LOAD
001227: 14,3701           02522        V25N22E            OCT      02522                                 #  FOR POS4
001228:
001229: 14,3702           00013        11DEC              DEC      11         B-14
001230: 14,3703           00021        17DEC              DEC      17         B-14
001231: 14,3704           00074        60DEC              DEC      60         B-14
001232: 14,3705           00077        63DEC              DEC      63         B-14
001233: 14,3706           00105        69DEC              DEC      69         B-14                       #  FOR MISALIGN
001234: 14,3707           00110        72DEC              DEC      72         B-14                       #  FOR STORRSLT
001235:
001236: 14,3710           05670        30SEC              DEC      3000       B-14                       #  3000 X 10 MSEC
001237: 14,3711           13560        60SEC              DEC      6000       B-14                       #  6000 X 10 MSEC
001238:
001239: 14,3712           01500        OGCADR             ADRES    OGC                                   #  FOR ZEROING
001240: 14,3713           01570        GENPLAD1           ADRES    GENPL
001241: 14,3714           02570        GENPLADR           ECADR    GENPL                                 #  FOR POS4
001242: 14,3715           00322 14366  KKKK               2DEC     210.39     B-14                       #  1230 B-14 FOR CSM
001243:
001244: 14,3717           03114        RDRRETN            ADRES    RDR1       +1                         #  FOR RDR37511
001245: 14,3720           00024        THETAADR           ECADR    THETA
001246: 14,3721           01400        XSMADRX            ADRES    XSM                                   #  FOR MAKEXSMD
001247:
001248: 14,3722           24365 30244  SCALFTR            2DEC     .64                                   #  FOR STORRSLT
001249:
001250: 14,3724           07623 26552  OMEG/MS            2DEC     .24339048                             #  GYRO PULSES / 10 MSEC
001251:


001253:                                                                                                  #           THE FOLOWING ROUTINE READS THE CLOCK AND SCALAR (CHANNEL 3 AND 4) INTO A AND L, INSURING THAT THE
001254:                                                                                                  #  DATA WAS NOT IN TRANSITION WHEN IT WAS READ.
001255:
001256:    5026                                           BLOCK    02
001257:    5026           00004        FINETIME           INHINT                                         #  RETURNS WITH INTERRUPT INHIBITED.
001258:    5027           00006                           EXTEND
001259:    5030           00004                           READ     LOSCALAR
001260:    5031           54001                           TS       L
001261:
001262:    5032           00006                           EXTEND                                         #  SEE IF 2 READINGS AGREE. IF NOT, READ
001263:    5033           06004                           RXOR     LOSCALAR                              #  LOSCALAR AGAIN.
001264:    5034           00006                           EXTEND
001265:    5035           15041                           BZF      +4
001266:
001267:    5036           00006                           EXTEND                                         #  IF CLOCK RIPPLED BEFORE, IT WONT NOW.
001268:    5037           00004                           READ     LOSCALAR
001269:    5040           54001                           TS       L
001270:
001271:    5041           47743                 +4        CS       POSMAX                                #  IF LOW PART CONTAINS SOMETHING LESS THAN
001272:    5042           60001                           AD       L                                     #  POSMAX, THE HIGH PART CAN BE READ SAFELY
001273:    5043           00006                           EXTEND
001274:    5044           15027                           BZF      FINETIME   +1                         #  TRY AGAIN - CONDITION WILL DISAPPEAR
001275:
001276:    5045           00006                           EXTEND
001277:    5046           00003                           READ     HISCALAR
001278:    5047           00002                           TC       Q
001279:
001280: 14,3726                                           SETLOC   OMEG/MS    +2
001281: 14,3726           05206        REDYTORK           TC       BANKCALL
001282: 14,3727           26751                           CADR     IMUSTALL
001283: 14,3730           12770                           TCF      ENDTEST
001284:
001285: 14,3731           02752                           TC       OGCZERO
001286:
001287: 14,3732           06112                           TC       INTPRET
001288: 14,3733           77624                           CALL
001289: 14,3734           30407                                    ERTHRVSE                              #  SETS UP EARTHRATE ANGLES AND TIME
001290: 14,3735           77776                           EXIT
001291: 14,3736           31617                           CA       OPTNREG                               #  INITIALIZE CDUNDX FOR PULSE CATCHING
001292: 14,3737           65336                           AD       NEG2                                  #  C(K) WAS 4 2 1 NOW C(A) IS 2 0 -1
001293: 14,3740           55616                           TS       GYTOBETQ                              #  C(K) = 2,0,-1 FOR  X,Y,Z
001294: 14,3741           00006                           EXTEND
001295: 14,3742           13745                           BZF      +3
001296: 14,3743           37762                           CAF      TWO
001297: 14,3744           03746                           TC       +2
001298: 14,3745           37763                           CAF      ONE
001299: 14,3746           55672                           TS       CDUNDX                                #  C(K) = 1 FOR Y, 2 FOR Z CDU SELECT
001300: 14,3747           05206                           TC       BANKCALL
001301: 14,3750           50551                           CADR     ENABLE
001302: 14,3751           37777        CHKSUM14           OCT      37777

End of include-file IMU_PERFORMANCE_TESTS_1.agc.  Parent file is MAIN.agc


