
Source Code


000002:                                                                                                  ## Copyright:   Public domain.
000003:                                                                                                  ## Filename:    IMU_PERFORMANCE_TESTS_3.agc
000004:                                                                                                  ## Purpose:     A module for revision 0 of BURST120 (Sunburst). It
000005:                                                                                                  ##              is part of the source code for the Lunar Module's
000006:                                                                                                  ##              (LM) Apollo Guidance Computer (AGC) for Apollo 5.
000007:                                                                                                  ## Assembler:   yaYUL
000008:                                                                                                  ## Contact:     Ron Burkey <info@sandroid.org>.
000009:                                                                                                  ## Website:     www.ibiblio.org/apollo/index.html
000010:                                                                                                  ## Mod history: 2016-09-30 RSB  Created draft version.
000011:                                                                                                  ##              2016-10-18 RSB  Used Aurora 12 file of the same name as a
000012:                                                                                                  ##                              pattern.  A handful of corrections were needed.
000013:                                                                                                  ##              2016-10-31 RSB  Typos.
000014:                                                                                                  ##              2016-11-01 RSB  More typos.
000015:                                                                                                  ##              2016-11-02 RSB  More typos.
000016:


000018: 23,2520                                           BANK     23
000019: 23,2520  E5,1400                                  EBANK=   XSM
000020:
000021:
000022: 23,2520           00006        SILVER             EXTEND
000023: 23,2521           23546                           QXCH     QPLACE                                #   SHOULD BE ADDRESS OF STRTWACH
000024:
000025: 23,2522           11614                           CCS      CALCDIR                               #  2F COMMAND IS POSITIVE THE MINUS TORQ
000026: 23,2523           37753                           CAF      BIT9                                  #   WINDING IS TO BE ENERGIZED
000027: 23,2524           02526                           TC       +2
000028: 23,2525           02530                           TC       TORK                                  #   COMMAND IS NEG SO USE PLUS WINDING
000029: 23,2526           00006                           EXTEND
000030: 23,2527           05014                           WOR      14C                                   #   SELECTS THE MINUS WINDING
000031:
000032: 23,2530           37743        TORK               CAF      POSMAX
000033: 23,2531           54047                           TS       GYROCTR                               #  16383 PULSES =2.8125 DEG LESS ONE PULSES
000034:
000035: 23,2532           11616                           CCS      GYTOBETQ                              #  C(K)= 1 FOR X, -0 FOR Y, -1FOR Z.
000036: 23,2533           02537                           TC       SELECTX
000037: 23,2534           04736                           TC       CCSHOLE
000038: 23,2535           02547                           TC       SELECTZ
000039: 23,2536           02543                           TC       SELECTY
000040: 23,2537           32553        SELECTX            CAF      TORKX                                 #  BBITS 7AND 10 IN CHANNEL 14 WILL
000041: 23,2540           00006                           EXTEND                                         #   SELECT X GYRO AND TURN ON BCSW 1/3200
000042: 23,2541           05014                           WOR      14C                                   #  SSEC LATER BY CHANNEL OUTPUT DESIGN.....
000043: 23,2542           01546                           TC       QPLACE
000044:
000045: 23,2543           32554        SELECTY            CAF      TORKY                                 #  BBITS 8 AND 10 TO TORQ Y GYRO
000046: 23,2544           00006                           EXTEND
000047: 23,2545           05014                           WOR      14C
000048: 23,2546           01546                           TC       QPLACE
000049:
000050: 23,2547           32555        SELECTZ            CAF      TORKZ                                 #  BBITS 7,8AND 10 TO TORQZ GYRO
000051: 23,2550           00006                           EXTEND
000052: 23,2551           05014                           WOR      14C
000053: 23,2552           01546                           TC       QPLACE
000054: 23,2553           01100        TORKX              OCT      01100
000055: 23,2554           01200        TORKY              OCT      01200
000056: 23,2555           01300        TORKZ              OCT      01300
000057:


000059:
000060: 23,2556           37767        SAMODCHK           CAF      ZERO
000061: 23,2557           55563                           TS       TESTNO
000062: 23,2560           55550                           TS       RUN
000063:
000064: 23,2561           03151                           TC       ZEROMODE
000065: 23,2562           03175                           TC       OPRTRDLY
000066:
000067: 23,2563           03255                           TC       COARZERO
000068:
000069: 23,2564           03161                           TC       ZEROMAIN
000070: 23,2565           03175                           TC       OPRTRDLY
000071:
000072: 23,2566           03151                           TC       ZEROMODE
000073:
000074: 23,2567           37767                           CAF      ZERO
000075: 23,2570           03103                           TC       THETADLD
000076:
000077: 23,2571           33332                           CAF      45ANG
000078: 23,2572           03103                           TC       THETADLD
000079:
000080: 23,2573           03271                           TC       FNZEROFN
000081:
000082: 23,2574           33334                           CAF      90ANG
000083: 23,2575           03103                           TC       THETADLD
000084:
000085: 23,2576           33335                           CAF      135ANG
000086: 23,2577           03103                           TC       THETADLD
000087:
000088: 23,2600           37767                           CAF      ZERO
000089: 23,2601           03105                           TC       THETADLD   +2
000090:
000091: 23,2602           03271                           TC       FNZEROFN
000092:
000093: 23,2603           33340                           CAF      180ANG
000094: 23,2604           54400                           TS       THETAD
000095: 23,2605           54401                           TS       THETAD     +1
000096: 23,2606           33333                           CAF      71ANG
000097: 23,2607           03105                           TC       THETADLD   +2
000098:
000099: 23,2610           33341                           CAF      225ANG
000100: 23,2611           03103                           TC       THETADLD
000101:
000102: 23,2612           37767                           CAF      ZERO
000103: 23,2613           03103                           TC       THETADLD
000104:
000105: 23,2614           37762                           CAF      TWO
000106: 23,2615           55672        CHK2               TS       CDUNDX
000107:
000108: 23,2616           33342                           CAF      170ANG
000109: 23,2617           51672                           INDEX    CDUNDX
000110:


000112:
000113: 23,2620           54400                           TS       THETAD
000114:
000115: 23,2621           05206                           TC       BANKCALL
000116: 23,2622           26065                           CADR     IMUCOARS
000117:
000118: 23,2623           33336                           CAF      10ANG
000119: 23,2624           03024                           TC       CDURATE
000120:
000121: 23,2625           33337                           CAF      160ANG
000122: 23,2626           03024                           TC       CDURATE
000123:
000124: 23,2627           03047                           TC       CALCRATE
000125:
000126: 23,2630           05206                           TC       BANKCALL
000127: 23,2631           26751                           CADR     IMUSTALL
000128: 23,2632           12767                           TCF      ENDTST03
000129:
000130: 23,2633           03255                           TC       COARZERO
000131:
000132: 23,2634           11672                           CCS      CDUNDX
000133: 23,2635           12615                           TCF      CHK2
000134:
000135: 23,2636           43332                           CS       45ANG
000136: 23,2637           03103                           TC       THETADLD
000137:
000138: 23,2640           03271                           TC       FNZEROFN
000139:
000140: 23,2641           43335                           CS       135ANG
000141: 23,2642           54400                           TS       THETAD
000142: 23,2643           54401                           TS       THETAD     +1
000143: 23,2644           43333                           CS       71ANG
000144: 23,2645           03105                           TC       THETADLD   +2
000145:
000146: 23,2646           37767                           CAF      ZERO
000147: 23,2647           03105                           TC       THETADLD   +2
000148:
000149: 23,2650           03271                           TC       FNZEROFN
000150:
000151: 23,2651           03255                           TC       COARZERO
000152:
000153: 23,2652           03216                           TC       FINEZERO
000154: 23,2653           03216                           TC       FINEZERO
000155:
000156: 23,2654           43346        CHK5               CS       4+6BITS
000157: 23,2655           00006                           EXTEND
000158: 23,2656           03012                           WAND     12
000159:
000160: 23,2657           37761                           CAF      FOUR
000161: 23,2660           05663                           TC       WAITLIST
000162: 23,2661  E5,1400                                  EBANK=   XSM


000164: 23,2661           02665 46065                     2CADR    ECE1
000165:
000166: 23,2663           33356                           CAF      ECE2CADR
000167: 23,2664           05545                           TC       JOBSLEEP
000168:
000169: 23,2665           33356        ECE1               CAF      ECE2CADR
000170: 23,2666           05551                           TC       JOBWAKE
000171: 23,2667           05727                           TC       TASKOVER
000172:
000173: 23,2670           46306        ECE2               CS       SIX
000174: 23,2671           61563                           AD       TESTNO
000175: 23,2672           00006                           EXTEND
000176: 23,2673           62675                           BZMF     +2
000177: 23,2674           12716                           TCF      CHKX
000178:
000179: 23,2675           51563                           INDEX    TESTNO
000180: 23,2676           32771                           CAF      ERCTRANG
000181: 23,2677           54400                           TS       THETAD
000182: 23,2700           54401                           TS       THETAD     +1
000183: 23,2701           54402                           TS       THETAD     +2
000184:
000185: 23,2702           37756                           CAF      BIT6
000186: 23,2703           00006                           EXTEND
000187: 23,2704           05012                           WOR      12
000188:
000189: 23,2705           00004                           INHINT
000190: 23,2706           37762                           CAF      TWO
000191: 23,2707           05663                           TC       WAITLIST
000192: 23,2710  E5,1400                                  EBANK=   XSM
000193: 23,2710           02612 22065                     2CADR    ATTCK2
000194:
000195: 23,2712           00003                           RELINT
000196:
000197: 23,2713           03175                           TC       OPRTRDLY
000198:
000199: 23,2714           25563                           INCR     TESTNO
000200:
000201: 23,2715           12654                           TCF      CHK5
000202:
000203: 23,2716           03255        CHKX               TC       COARZERO
000204:
000205: 23,2717           37767                           CAF      ZERO
000206: 23,2720           55563                           TS       TESTNO
000207:
000208: 23,2721           05206                           TC       BANKCALL
000209: 23,2722           20250                           CADR     RRZERO
000210: 23,2723           05206                           TC       BANKCALL
000211: 23,2724           26745                           CADR     RADSTALL
000212: 23,2725           12767                           TCF      ENDTST03
000213:


000215: 23,2726           51563        CHK6               INDEX    TESTNO
000216: 23,2727           33000                           CAF      RADECNTR
000217: 23,2730           54423                           TS       TANG       +1
000218: 23,2731           54422                           TS       TANG
000219:
000220: 23,2732           05206                           TC       BANKCALL
000221: 23,2733           20364                           CADR     RRDESNB
000222:
000223: 23,2734           05206                           TC       BANKCALL
000224: 23,2735           26745                           CADR     RADSTALL
000225: 23,2736           12767                           TCF      ENDTST03
000226:
000227: 23,2737           03170                           TC       RROPRDLY
000228:
000229: 23,2740           25563                           INCR     TESTNO
000230:
000231: 23,2741           47761                           CS       FOUR
000232: 23,2742           61563                           AD       TESTNO
000233: 23,2743           00006                           EXTEND
000234: 23,2744           62726                           BZMF     CHK6
000235:
000236: 23,2745           37767                           CAF      ZERO
000237: 23,2746           55563                           TS       TESTNO
000238: 23,2747           54353                           TS       ALTRATE
000239: 23,2750           54351                           TS       ALT
000240: 23,2751           54352                           TS       ALT        +1
000241:
000242: 23,2752           47763                           CS       ONE
000243: 23,2753           54350                           TS       DIDFLG
000244:
000245: 23,2754           51563        CHK7               INDEX    TESTNO
000246: 23,2755           33005                           CAF      RRRATFPS
000247: 23,2756           54357                           TS       FORVEL
000248: 23,2757           54360                           TS       LATVEL
000249:
000250: 23,2760           03170                           TC       RROPRDLY
000251:
000252: 23,2761           25563                           INCR     TESTNO
000253:
000254: 23,2762           47757                           CS       BIT5
000255: 23,2763           67762                           AD       TWO
000256: 23,2764           61563                           AD       TESTNO
000257: 23,2765           00006                           EXTEND
000258: 23,2766           62754                           BZMF     CHK7
000259:
000260: 23,2767           05206        ENDTST03           TC       BANKCALL
000261: 23,2770           30770                           CADR     ENDTEST
000262:


000264: 23,2771           03013        ERCTRANG           OCT      03013
000265: 23,2772           02660                           OCT      02660
000266: 23,2773           01042                           OCT      01042
000267: 23,2774           00000                           OCT      00000
000268: 23,2775           76736                           OCT      76736
000269: 23,2776           75120                           OCT      75120
000270: 23,2777           74765                           OCT      74765
000271:
000272:
000273: 23,3000           01463        RADECNTR           OCT      01463
000274: 23,3001           01042                           OCT      01042
000275: 23,3002           00000                           OCT      00000
000276: 23,3003           76736                           OCT      76736
000277: 23,3004           76315                           OCT      76315
000278:
000279:
000280: 23,3005           00000        RRRATFPS           OCT      00000
000281: 23,3006           00001                           OCT      00001
000282: 23,3007           00002                           OCT      00002
000283: 23,3010           00004                           OCT      00004
000284: 23,3011           00010                           OCT      00010
000285: 23,3012           00020                           OCT      00020
000286: 23,3013           00040                           OCT      00040
000287: 23,3014           00100                           OCT      00100
000288: 23,3015           00200                           OCT      00200
000289: 23,3016           00237                           OCT      00237
000290: 23,3017           00400                           OCT      00400
000291: 23,3020           00545                           OCT      00545
000292: 23,3021           00544                           OCT      00544
000293: 23,3022           77540                           OCT      77540
000294: 23,3023           77232                           OCT      77232
000295:


000297: 23,3024           00006        CDURATE            EXTEND
000298: 23,3025           23546                           QXCH     QPLACE
000299:
000300: 23,3026           55577                           TS       CDULIMIT
000301:
000302: 23,3027           10067                           CCS      NEWJOB
000303: 23,3030           05532                           TC       CHANG1
000304:
000305: 23,3031           41577                           CS       CDULIMIT
000306: 23,3032           51672                           INDEX    CDUNDX
000307: 23,3033           60032                           AD       CDUX                                  #  CATCH FIRST PULSES
000308: 23,3034           00006                           EXTEND
000309: 23,3035           63027                           BZMF     CDURATE    +3                         #  LOOK AGAIN
000310:
000311: 23,3036           51672                           INDEX    CDUNDX
000312: 23,3037           30032                           CAE      CDUX
000313: 23,3040           57575                           XCH      CDUREADF                              #  CDU FINAL READING
000314: 23,3041           57576                           XCH      CDUREADI                              #  CDU INITIAL READING
000315:
000316: 23,3042           05026                           TC       FINETIME
000317: 23,3043           53573                           DXCH     CDUTIMEF                              #  DP FINAL TIME
000318: 23,3044           53571                           DXCH     CDUTIMEI                              #  DP INITIAL READING
000319:
000320: 23,3045           00003                           RELINT
000321: 23,3046           01546                           TC       QPLACE
000322:
000323:
000324:
000325: 23,3047           00006        CALCRATE           EXTEND
000326: 23,3050           23546                           QXCH     QPLACE
000327:
000328: 23,3051           53576                           DXCH     CDUREADF
000329: 23,3052           00006                           EXTEND
000330: 23,3053           20001                           MSU      L
000331: 23,3054           55677                           TS       CDUANG
000332:
000333: 23,3055           06112                           TC       INTPRET
000334: 23,3056           45345                           DLOAD    DSU
000335: 23,3057           02573                                    CDUTIMEF
000336: 23,3060           02571                                    CDUTIMEI
000337: 23,3061           67206                           PUSH     SLOAD
000338: 23,3062           02700                                    CDUANG
000339: 23,3063           56261                           SR       DDV
000340: 23,3064           20617                                    14D
000341: 23,3065           47005                           DMP      RTB
000342: 23,3066           07362                                    DEG/SEC
000343: 23,3067           33520                                    SGNAGREE
000344: 23,3070           00343                           STORE    DSPTEM2
000345:


000347: 23,3071           77776                           EXIT
000348:
000349: 23,3072           33353        RATEDSP            CAF      V06N66X
000350: 23,3073           04657                           TC       NVSBWAIT
000351: 23,3074           04622                           TC       FLASHON
000352: 23,3075           04475                           TC       ENDIDLE
000353: 23,3076           12767                           TCF      ENDTST03
000354: 23,3077           13101                           TCF      +2
000355: 23,3100           13072                           TCF      RATEDSP
000356:
000357: 23,3101           25550                           INCR     RUN
000358: 23,3102           01546                           TC       QPLACE
000359:


000361: 23,3103           54400        THETADLD           TS       THETAD
000362: 23,3104           54401                           TS       THETAD     +1
000363: 23,3105           54402                           TS       THETAD     +2
000364:
000365: 23,3106           00006                           EXTEND
000366: 23,3107           23546                           QXCH     QPLACE
000367:
000368: 23,3110           37765                           CAF      SEVEN
000369: 23,3111           55551        THLD1              TS       STOREPL
000370:
000371: 23,3112           05206                           TC       BANKCALL
000372: 23,3113           26065                           CADR     IMUCOARS
000373: 23,3114           05206                           TC       BANKCALL
000374: 23,3115           26751                           CADR     IMUSTALL
000375: 23,3116           12767                           TCF      ENDTST03
000376:
000377: 23,3117           11551                           CCS      STOREPL
000378: 23,3120           03111                           TC       THLD1
000379:
000380: 23,3121           03175                           TC       OPRTRDLY
000381:
000382: 23,3122           01546                           TC       QPLACE
000383:
000384:
000385:
000386: 23,3123           00006        FINEALGN           EXTEND
000387: 23,3124           23546                           QXCH     QPLACE
000388:
000389: 23,3125           05206                           TC       BANKCALL
000390: 23,3126           26252                           CADR     IMUFINE
000391: 23,3127           05206                           TC       BANKCALL
000392: 23,3130           26751                           CADR     IMUSTALL
000393: 23,3131           12767                           TCF      ENDTST03
000394:
000395: 23,3132           01546                           TC       QPLACE
000396:


000398: 23,3133           00006        CH30DSPY           EXTEND
000399: 23,3134           23546                           QXCH     QPLACE
000400:
000401: 23,3135           33344                           CAF      OCT30
000402: 23,3136           54146                           TS       MPAC       +2
000403: 23,3137           33347                           CAF      V01N10X
000404: 23,3140           04657                           TC       NVSBWAIT
000405: 23,3141           04622                           TC       FLASHON
000406: 23,3142           04475                           TC       ENDIDLE
000407: 23,3143           12767                           TCF      ENDTST03
000408: 23,3144           13146                           TCF      +2
000409: 23,3145           13135                           TCF      CH30DSPY   +2
000410:
000411: 23,3146           04626                           TC       FLASHOFF
000412: 23,3147           25550                           INCR     RUN
000413: 23,3150           01546                           TC       QPLACE
000414:
000415:
000416:
000417: 23,3151           00006        ZEROMODE           EXTEND
000418: 23,3152           23546                           QXCH     QPLACE
000419:
000420: 23,3153           05206                           TC       BANKCALL
000421: 23,3154           26000                           CADR     IMUZERO
000422: 23,3155           05206                           TC       BANKCALL
000423: 23,3156           26751                           CADR     IMUSTALL
000424: 23,3157           12767                           TCF      ENDTST03
000425:
000426: 23,3160           01546                           TC       QPLACE
000427:
000428:
000429:
000430: 23,3161           43346        ZEROMAIN           CS       4+6BITS
000431: 23,3162           00006                           EXTEND
000432: 23,3163           03012                           WAND     12
000433:
000434: 23,3164           37757                           CAF      BIT5
000435: 23,3165           00006                           EXTEND
000436: 23,3166           05012                           WOR      12
000437:
000438: 23,3167           00002                           TC       Q
000439:


000441: 23,3170           00006        RROPRDLY           EXTEND
000442: 23,3171           23545                           QXCH     QPLAC
000443:
000444: 23,3172           25550                           INCR     RUN
000445:
000446: 23,3173           33352                           CAF      V06N40X
000447: 23,3174           13201                           TCF      OPRTRDLY   +4
000448:
000449:
000450: 23,3175           00006        OPRTRDLY           EXTEND
000451: 23,3176           23545                           QXCH     QPLAC
000452:
000453: 23,3177           25550                           INCR     RUN
000454: 23,3200           33351                           CAF      V06N20X
000455: 23,3201           04657                           TC       NVSBWAIT
000456: 23,3202           33354                           CAF      V33N00X
000457: 23,3203           04657                           TC       NVSBWAIT
000458: 23,3204           31550                           CA       RUN
000459: 23,3205           73343                           MASK     6LOW
000460: 23,3206           04657                           TC       NVSBWAIT
000461: 23,3207           04622                           TC       FLASHON
000462: 23,3210           04475                           TC       ENDIDLE
000463: 23,3211           12767                           TCF      ENDTST03
000464: 23,3212           13214                           TCF      +2
000465: 23,3213           13200                           TCF      OPRTRDLY   +3
000466:
000467: 23,3214           04626                           TC       FLASHOFF
000468: 23,3215           01545                           TC       QPLAC
000469:
000470: 23,3216           00006        FINEZERO           EXTEND
000471: 23,3217           23545                           QXCH     QPLAC
000472:
000473: 23,3220           05206                           TC       BANKCALL
000474: 23,3221           26000                           CADR     IMUZERO
000475:
000476: 23,3222           37762                           CAF      TWO
000477: 23,3223           55512                           TS       EROPTN
000478: 23,3224           37761                           CAF      FOUR
000479: 23,3225           55544                           TS       POSITON
000480:
000481: 23,3226           00004                           INHINT
000482: 23,3227           47752                           CS       BIT10
000483: 23,3230           70074                           MASK     STATE
000484: 23,3231           67752                           AD       BIT10
000485: 23,3232           54074                           TS       STATE
000486: 23,3233           00003                           RELINT
000487:
000488:                                                                                                  #  Page 447
000489: 23,3234           05206                           TC       BANKCALL
000490: 23,3235           31003                           CADR     LEMLAB
000491:
000492: 23,3236           04644        SAMODRTN           TC       GRABWAIT
000493:
000494: 23,3237           03161                           TC       ZEROMAIN
000495:
000496: 23,3240           00004                           INHINT
000497: 23,3241           37751                           CAF      BIT11
000498: 23,3242           05663                           TC       WAITLIST
000499: 23,3243  E5,1400                                  EBANK=   XSM
000500: 23,3243           03247 46065                     2CADR    DSPY30
000501:
000502: 23,3245           33355                           CAF      CH30WAKE
000503: 23,3246           05545                           TC       JOBSLEEP
000504:
000505: 23,3247           33355        DSPY30             CAF      CH30WAKE
000506: 23,3250           05551                           TC       JOBWAKE
000507: 23,3251           05727                           TC       TASKOVER
000508:
000509: 23,3252           03133        DSPYCH30           TC       CH30DSPY
000510: 23,3253           03151                           TC       ZEROMODE
000511:
000512: 23,3254           01545                           TC       QPLAC
000513:
000514:
000515: 23,3255           37767        COARZERO           CAF      ZERO
000516: 23,3256           54400                           TS       THETAD
000517: 23,3257           54401                           TS       THETAD     +1
000518: 23,3260           54402                           TS       THETAD     +2
000519:
000520: 23,3261           00006                           EXTEND
000521: 23,3262           23546                           QXCH     QPLACE
000522:
000523: 23,3263           05206                           TC       BANKCALL
000524: 23,3264           26065                           CADR     IMUCOARS
000525: 23,3265           05206                           TC       BANKCALL
000526: 23,3266           26751                           CADR     IMUSTALL
000527: 23,3267           12767                           TCF      ENDTST03
000528:
000529: 23,3270           01546                           TC       QPLACE
000530:


000532: 23,3271           00006        FNZEROFN           EXTEND
000533: 23,3272           23545                           QXCH     QPLAC
000534:
000535: 23,3273           03123                           TC       FINEALGN
000536:
000537: 23,3274           30032                           CAE      CDUX
000538: 23,3275           55575                           TS       CDUREADF
000539: 23,3276           30033                           CAE      CDUY
000540: 23,3277           55576                           TS       CDUREADI
000541: 23,3300           30034                           CAE      CDUZ
000542: 23,3301           55577                           TS       CDULIMIT
000543:
000544: 23,3302           03151                           TC       ZEROMODE
000545:
000546: 23,3303           31575        FZF2               CAE      CDUREADF
000547: 23,3304           00006                           EXTEND
000548: 23,3305           20032                           MSU      CDUX
000549: 23,3306           54337                           TS       DSPTEM1
000550:
000551: 23,3307           31576                           CAE      CDUREADI
000552: 23,3310           00006                           EXTEND
000553: 23,3311           20033                           MSU      CDUY
000554: 23,3312           54340                           TS       DSPTEM1    +1
000555:
000556: 23,3313           31577                           CAE      CDULIMIT
000557: 23,3314           00006                           EXTEND
000558: 23,3315           20034                           MSU      CDUZ
000559: 23,3316           54341                           TS       DSPTEM1    +2
000560:
000561: 23,3317           33350        FZFDSP             CAF      V05N30X
000562: 23,3320           04657                           TC       NVSBWAIT
000563: 23,3321           04622                           TC       FLASHON
000564: 23,3322           04475                           TC       ENDIDLE
000565: 23,3323           12767                           TCF      ENDTST03
000566: 23,3324           13326                           TCF      +2
000567: 23,3325           13317                           TCF      FZFDSP
000568:
000569: 23,3326           25550                           INCR     RUN
000570: 23,3327           01545                           TC       QPLAC
000571:


000573: 23,3330           00133        1ANG               OCT      00133
000574: 23,3331           06000        33.75ANG           OCT      06000
000575: 23,3332           10000        45ANG              OCT      10000
000576: 23,3333           14477        71ANG              OCT      14477
000577: 23,3334           20000        90ANG              OCT      20000
000578: 23,3335           30000        135ANG             OCT      30000
000579: 23,3336           01616        10ANG              OCT      01616
000580: 23,3337           34344        160ANG             OCT      34344
000581: 23,3340           40000        180ANG             OCT      40000
000582: 23,3341           50000        225ANG             OCT      50000
000583: 23,3342           36162        170ANG             OCT      36162
000584:
000585: 23,3343           00077        6LOW               OCT      77
000586: 23,3344           00030        OCT30              OCT      30
000587: 23,3345           00454        3SEC               DEC      300        B-14
000588: 23,3346           00050        4+6BITS            OCT      00050
000589:
000590: 23,3347           00110        V01N10X            OCT      00110
000591: 23,3350           00530        V05N30X            OCT      00530
000592: 23,3351           00620        V06N20X            OCT      00620
000593: 23,3352           00640        V06N40X            OCT      00640
000594: 23,3353           00666        V06N66X            OCT      00666
000595: 23,3354           03300        V33N00X            OCT      03300
000596:
000597: 23,3355           47252        CH30WAKE           CADR     DSPYCH30
000598: 23,3356           46670        ECE2CADR           CADR     ECE2
000599: 23,3357           47303        FZF2CADR           CADR     FZF2
000600: 23,3360           02500        OGCECADR           ECADR    OGC
000601:
000602: 23,3361           00043 05000  DEG/SEC            2DEC     576000     B-28

End of include-file IMU_PERFORMANCE_TESTS_3.agc.  Parent file is MAIN.agc


