
Source Code


000002:                                                                                                  ## Copyright:   Public domain.
000003:                                                                                                  ## Filename:    INFLIGHT_ALIGNMENT_ROUTINES.agc
000004:                                                                                                  ## Purpose:     A module for revision 0 of BURST120 (Sunburst). It
000005:                                                                                                  ##              is part of the source code for the Lunar Module's
000006:                                                                                                  ##              (LM) Apollo Guidance Computer (AGC) for Apollo 5.
000007:                                                                                                  ## Assembler:   yaYUL
000008:                                                                                                  ## Contact:     Ron Burkey <info@sandroid.org>.
000009:                                                                                                  ## Website:     www.ibiblio.org/apollo/index.html
000010:                                                                                                  ## Mod history: 2016-09-30 RSB  Created draft version.
000011:                                                                                                  ##              2016-10-16 RSB  Transcribed.
000012:                                                                                                  ##              2016-10-31 RSB  Typos.
000013:                                                                                                  ##              2016-11-01 RSB  More typos.
000014:                                                                                                  ##              2016-11-02 RSB  More typos.
000015:


000017: 15,2425                                           BANK     15
000018: 15,2425  E5,1400                                  EBANK=   XSM
000019:
000020:
000021:                                                                                                  #  CALCGTA COMPUTES THE GYRO TORQUE ANGLES REQUIRED TO BRING THE STABLE MEMBER INTO THE DESIRED ORIENTATION.
000022:
000023:                                                                                                  #  THE INPUT IS THE DESIRED STABLE MEMBER COORDINATES REFERRED TO PRESENT STABLE MEMBER COORDINATES.  THE THREE
000024:                                                                                                  #  HALF-UNIT VECTORS ARE STORED AT XDC, YDC, AND ZDC.
000025:
000026:                                                                                                  #  THE OUTPUTS ARE THE THREE GYRO TORQUE ANGLES TO BE APPLIED TO THE Y, Z, AND X GYROS AND ARE STORED DP AT IGC,
000027:                                                                                                  #  MGC, AND OGC RESPECTIVELY. ANGLES ARE SCALED PROPERLY FOR IMUPULSE.
000028:
000029:
000030: 15,2425           71220        CALCGTA            ITA      DLOAD                                 #  PUSHDOWN 00,02,16D,18D,22D-26D,32D-36D
000031: 15,2426           00051                                    S2                                    #  XDC = (XD1 XD2 XD3)
000032: 15,2427           02423                                    XDC                                   #  YDC = (YD1 YD2 YD3)
000033: 15,2430           65325                           PDDL     PDDL                                  #  ZDC = (ZD1 ZD2 ZD3)
000034: 15,2431           33105                                    ZERODP
000035: 15,2432           02427                                    XDC        +4
000036: 15,2433           55476                           DCOMP    VDEF
000037: 15,2434           77656                           UNIT
000038: 15,2435           14027                           STODL    ZPRIME                                #  ZP = UNIT(-XD3 0 XD1) = (ZP1 ZP2 ZP3)
000039: 15,2436           00027                                    ZPRIME
000040:
000041: 15,2437           77742                           SR1
000042: 15,2440           14023                           STODL    SINTH                                 #  SIN(IGC) = ZP1
000043: 15,2441           00033                                    ZPRIME     +4
000044: 15,2442           77742                           SR1
000045: 15,2443           34021                           STCALL   COSTH                                 #  COS(IGC) = ZP3
000046: 15,2444           32476                                    ARCTRIG
000047:
000048: 15,2445           16503                           STODL    IGC                                   #  Y GYRO TORQUING ANGLE   FRACTION OF REV.
000049: 15,2446           02425                                    XDC        +2
000050: 15,2447           77742                           SR1
000051: 15,2450           14023                           STODL    SINTH                                 #  SIN(MGC) = XD2
000052: 15,2451           00027                                    ZPRIME
000053:
000054: 15,2452           65205                           DMP      PDDL
000055: 15,2453           02427                                    XDC        +4                         #  PD00 = (ZP1)(XD3)
000056: 15,2454           00033                                    ZPRIME     +4
000057:
000058: 15,2455           45205                           DMP      DSU
000059: 15,2456           02423                                    XDC                                   #  MPAC = (ZP3)(XD1)
000060: 15,2457           77626                           STADR
000061: 15,2460           43756                           STCALL   COSTH                                 #  COS(MGC) = MPAC - PD00
000062: 15,2461           32476                                    ARCTRIG
000063:
000064: 15,2462           26505                           STOVL    MGC                                   #  Z GYRO TORQUING ANGLE   FRACTION OF REV.


000066: 15,2463           00027                                    ZPRIME
000067: 15,2464           77641                           DOT
000068: 15,2465           02437                                    ZDC
000069: 15,2466           24021                           STOVL    COSTH                                 #  COS(OGC) = ZP . ZDC
000070: 15,2467           00027                                    ZPRIME
000071: 15,2470           77641                           DOT
000072: 15,2471           02431                                    YDC
000073: 15,2472           34023                           STCALL   SINTH                                 #  SIN(OGC) = ZP . YDC
000074: 15,2473           32476                                    ARCTRIG
000075:
000076: 15,2474           36501                           STCALL   OGC                                   #  X GYRO TORQUING ANGLE   FRACTION OF REV.
000077: 15,2475           00051                                    S2
000078:


000080:                                                                                                  #  ARCTRIG COMPUTES AN ANGLE GIVEN THE SINE AND COSINE OF THIS ANGLE.
000081:
000082:                                                                                                  #  THE INPUTS ARE SIN/4 AND COS/4 STORED UP AT SINTH AND COSTH.
000083:
000084:                                                                                                  #  THE OUTPUT IS THE CALCULATED ANGLE BETWEEN +.5 AND -.5 REVOLUTIONS AND STORED AT THETA. THE OUTPUT IS ALSO
000085:                                                                                                  #  AVAILABLE AT MPAC.
000086:
000087: 15,2476           51545        ARCTRIG            DLOAD    ABS                                   #  PUSHDOWN  16D,18D,20D,22D-26D
000088: 15,2477           00023                                    SINTH
000089: 15,2500           50025                           DSU      BMN
000090: 15,2501           33073                                    QTSN45                                #  ABS(SIN/4) - SIN(45)/4
000091: 15,2502           32511                                    TRIG1                                 #  IF (-45,45) OR (135,-135)
000092:
000093:
000094: 15,2503           72545                           DLOAD    SL1                                   #  (45,135) OR (-135,-45)
000095: 15,2504           00021                                    COSTH
000096: 15,2505           75326                           ACOS     SIGN
000097: 15,2506           00023                                    SINTH
000098: 15,2507           00025                           STORE    THETA                                 #  X = ARCCOS(COS) WITH SIGN(SIN)
000099: 15,2510           77616                           RVQ
000100:
000101:
000102: 15,2511           72545        TRIG1              DLOAD    SL1                                   #  (-45,45) OR (135,-135)
000103: 15,2512           00023                                    SINTH
000104: 15,2513           77736                           ASIN
000105: 15,2514           14025                           STODL    THETA                                 #  X = ARCSIN(SIN) WITH SIGN(SIN)
000106: 15,2515           00021                                    COSTH
000107: 15,2516           77640                           BMN
000108: 15,2517           32522                                    TRIG2                                 #  IF (135,-135)
000109:
000110: 15,2520           43545                           DLOAD    RVQ
000111: 15,2521           00025                                    THETA                                 #  X = ARCSIN(SIN)   (-45,45)
000112:
000113:
000114: 15,2522           75345        TRIG2              DLOAD    SIGN                                  #  (135,-135)
000115: 15,2523           33075                                    HALFDP
000116: 15,2524           00023                                    SINTH
000117: 15,2525           77625                           DSU
000118: 15,2526           00025                                    THETA
000119: 15,2527           00025                           STORE    THETA                                 #  X = .5 WITH SIGN(SIN) - ARCSIN(SIN)
000120: 15,2530           77616                           RVQ                                            #                   (+) - (+) OR (-) - (-)
000121:


000123:                                                                                                  #  SMNB TRANSFORMS A STAR DIRECTION FROM STABLE MEMBER TO NAVIGATION BASE COORDINATES.
000124:
000125:                                                                                                  #  THE INPUTS ARE  1) THE STAR VECTOR REFERRED TO PRESENT STABLE MEMBER COORDINATES STORED AT LOCATION 32D OF THE
000126:                                                                                                  #  VAC AREA.  2) THE GIMBAL ANGLES (CDUY,CDUZ,CDUX) STORED AT ALTERNATING LOCATIONS RESPECTIVELY. THE ANGLES ARE
000127:                                                                                                  #  USUALLY STORED AT LOCATIONS 2,4, AND 6 OF THE MARK VAC AREA. THEY CAN BE STORED AT LOCATIONS 20,22, AND 24 OF
000128:                                                                                                  #  YOUR JOB VAC AREA.  3) THE BASE ADDRESS OF THE GIMBAL ANGLES STORED SP AT LOCATION S1 OF yOUR JOB VAC AREA.
000129:
000130:                                                                                                  #  THE OUTPUT IS THE STAR VECTOR REFERRED TO NAVIGATION BASE COORDINATES STORED AT 32D OF THE VAC AREA. THE OUTPUT
000131:                                                                                                  #  IS ALSO AVAILABLE AT MPAC.
000132:
000133:
000134:
000135: 15,2531           43020        SMNB               ITA      CLEAR                                 #  PUSHDOWN 00,02,04-10D,30D,32D-36D
000136: 15,2532           00051                                    S2
000137: 15,2533           00264                                    NBSMBIT                               #  SET NBSMBIT = 0
000138:
000139: 15,2534           77170        SMNB1              AXT,1    AXT,2                                 #  ROTATE X,Z, ABOUT Y
000140: 15,2535           00004                                    4
000141: 15,2536           00000                                    0
000142: 15,2537           77624                           CALL
000143: 15,2540           32601                                    AXISROT
000144:
000145: 15,2541           77170                           AXT,1    AXT,2                                 #  ROTATE Y,X ABOUT Z
000146: 15,2542           00002                                    2
000147: 15,2543           00004                                    4
000148: 15,2544           77624                           CALL
000149: 15,2545           32601                                    AXISROT
000150:
000151: 15,2546           77170                           AXT,1    AXT,2                                 #  ROTATE Z,Y ABOUT X
000152: 15,2547           00000                                    0
000153: 15,2550           00002                                    2
000154: 15,2551           77624                           CALL
000155: 15,2552           32601                                    AXISROT
000156:
000157: 15,2553           77650                           GOTO
000158: 15,2554           00051                                    S2


000160:
000161:                                                                                                  #  NBSM TRANSFORMS A STAR DIRECTION FROM NAVIGATION BASE TO STABLE MEMBER COORDINATES.
000162:
000163:                                                                                                  #  THE INPUTS ARE  1) THE STAR VECTOR REFERRED TO NAVIGATION BASE COORDINATES STORED AT LOCATION 32D OF THE VAC
000164:                                                                                                  #  AREA.  2) THE GIMBAL ANGLES (CDUY,CDUZ,CDUX) STORED AT ALTERNATING LOCATIONS RESPECTIVELY. THE ANGLES ARE
000165:                                                                                                  #  USUALLY STORED AT LOCATIONS 2,4, AND 6 OF THE MARK VAC AREA. THEY CAN BE STORED AT LOCATIONS 20,22, AND 24 OF
000166:                                                                                                  #  YOUR JOB VAC AREA.  3) THE BASE ADDRESS OF THE GIMBAL ANGLES STORED SP AT LOCATION S1 OF YOUR JOB VAC AREA.
000167:
000168:                                                                                                  #  THE OUTPUT IS THE STAR VECTOR REFERRED TO PRESENT STABLE MEMBER COORDINATES STORED AT LOCATION 32D OF THE VAC
000169:                                                                                                  #  AREA. THE OUTPUT IS ALSO AVAILABLE AT MPAC.
000170:
000171:
000172:
000173: 15,2555           43020        NBSM               ITA      SET                                   #  PUSHDOWN 00,02,04-10D,30D,32D-36D
000174: 15,2556           00051                                    S2
000175: 15,2557           00064                                    NBSMBIT                               #  SET NBSMBIT = 1
000176:
000177: 15,2560           77170        NBSM2              AXT,1    AXT,2                                 #  ROTATE Z,Y ABOUT X
000178: 15,2561           00000                                    0
000179: 15,2562           00002                                    2
000180: 15,2563           77624                           CALL
000181: 15,2564           32601                                    AXISROT
000182:
000183: 15,2565           77170                           AXT,1    AXT,2                                 #  ROTATE Y,X ABOUT Z
000184: 15,2566           00002                                    2
000185: 15,2567           00004                                    4
000186: 15,2570           77624                           CALL
000187: 15,2571           32601                                    AXISROT
000188:
000189: 15,2572           77170                           AXT,1    AXT,2                                 #  ROTATE X,Z, ABOUT Y
000190: 15,2573           00004                                    4
000191: 15,2574           00000                                    0
000192: 15,2575           77624                           CALL
000193: 15,2576           32601                                    AXISROT
000194:
000195: 15,2577           77650                           GOTO
000196: 15,2600           00051                                    S2


000198:
000199:                                                                                                  #  AXISROT IS UTILIZED BY THE SMNB AND NBSM ROUTINES. SEE REMARKS ON THESE ROUTINES FOR INPUTS AND OUTPUTS.
000200:
000201:
000202:
000203: 15,2601           66660        AXISROT            XSU,1    SLOAD*
000204: 15,2602           00050                                    S1                                    #       SMNB         .       NBSM
000205: 15,2603           00005                                    4,1                                   #  IG    MG    OG    .  OG    MG    IG
000206: 15,2604           56034                           RTB      XAD,1
000207: 15,2605           33457                                    CDULOGIC
000208: 15,2606           00050                                    S1
000209: 15,2607           00037                           STORE    30D
000210:
000211: 15,2610           77746        ACCUROT            COS
000212: 15,2611           04011                           STORE    8D,1                                  #               COS(ANGLE)
000213: 15,2612           73545                           DLOAD    SIN
000214: 15,2613           00037                                    30D
000215: 15,2614           04013                           STORE    10D,1                                 #               SIN(ANGLE)
000216:
000217: 15,2615           72403                           DMP*     SL1
000218: 15,2616           77732                                    32D        +4,2
000219: 15,2617           40723                           PDDL*    DMP*                                  #                   PD0
000220: 15,2620           00011                                    8D,1                                  #  S3SIN S1SIN S2SIN . S2SIN S1SIN S3SIN
000221: 15,2621           77732                                    32D        +4,2
000222:
000223: 15,2622           64752                           SL1      PDDL*                                 #                   PD2
000224: 15,2623           00013                                    10D,1                                 #  S3COS S1COS S2COS . S2COS S1COS S3COS
000225:
000226: 15,2624           72403                           DMP*     SL1                                   #                  MPAC
000227: 15,2625           00045                                    32D        +4,1                       #  S1SIN S2SIN S3SIN . S3SIN S2SIN S1SIN
000228:
000229: 15,2626           77614                           BOFF
000230: 15,2627           00344                                    NBSMBIT
000231: 15,2630           32643                                    AXISROT1
000232:
000233: 15,2631           45421                           BDSU     STADR                                 #                    .   PD2 - MPAC
000234: 15,2632           67732                           STORE    32D        +4,2                       #                    . S2    S1    S3
000235: 15,2633           77743                           DLOAD*
000236: 15,2634           00011                                    8D,1
000237:
000238: 15,2635           72403                           DMP*     SL1                                   #                    .      MPAC
000239: 15,2636           00045                                    32D        +4,1                       #                    . S3COS S2COS S1COS
000240:
000241: 15,2637           45415                           DAD      STADR                                 #                    .   PD0 + MPAC
000242: 15,2640           73732                           STORE    32D        +4,1                       #                    . S3    S2    S1
000243: 15,2641           43575                           VLOAD    RVQ
000244: 15,2642           00041                                    32D
000245: 15,2643           45415        AXISROT1           DAD      STADR                                 #    MPAC + PD2      .
000246: 15,2644           67732                           STORE    32D        +4,2                       #  S3    S1    S2    .
000247: 15,2645           77743                           DLOAD*
000248: 15,2646           00011                                    8D,1


000250: 15,2647           72403                           DMP*     SL1                                   #       MPAC         .
000251: 15,2650           00045                                    32D        +4,1                       #  S1COS S2COS S3COS .
000252:
000253: 15,2651           45425                           DSU      STADR                                 #    MPAC - PD0      .
000254: 15,2652           73732                           STORE    32D        +4,1                       #  S1    S2    S3    .
000255: 15,2653           43575                           VLOAD    RVQ
000256: 15,2654           00041                                    32D
000257:                                                                                                  #  CALCGA COMPUTES THE CDU DRIVING ANGLES REQUIRED TO BRING THE STABLE MEMBER INTO THE DESIRED ORIENTATION.
000258:
000259:                                                                                                  #  THE INPUTS ARE  1) THE NAVIGATION BASE COORDINATES REFERRED TO ANY COORDINATE SYSTEM. THE THREE HALF-UNIT
000260:                                                                                                  #  VECTORS ARE STORED AT XNB,YNB, AND ZNB.  2) THE DESIRED STABLE MEMBER COORDINATES REFERRED TO THE SAME
000261:                                                                                                  #  COORDINATE SYSTEM ARE STORED AT XSM, YSM, AND ZSM.
000262:
000263:                                                                                                  #  THE OUTPUTS ARE THE THREE CDU DRIVING ANGLES AND ARE STORED SP AT THETAD, THETAD +1, AND THETAD +2.
000264:
000265:
000266: 15,2655           47375        CALCGA             VLOAD    VXV                                   #  PUSHDONW 00-04,16D,18D
000267: 15,2656           02423                                    XNB                                   #  XNB = OGA (OUTER GIMBAL AXIS)
000268: 15,2657           02407                                    YSM                                   #  YSM = IGA (INNER GIMBAL AXIS)
000269: 15,2660           41456                           UNIT     PUSH                                  #  PD0 = UNIT(OGA X IGA) = MGA
000270:
000271: 15,2661           44041                           DOT      ITA
000272: 15,2662           02437                                    ZNB
000273: 15,2663           00051                                    S2
000274: 15,2664           24021                           STOVL    COSTH                                 #  COS(OG) = MGA . ZNB
000275: 15,2665           00001                                    0
000276: 15,2666           77641                           DOT
000277: 15,2667           02431                                    YNB
000278: 15,2670           34023                           STCALL   SINTH                                 #  SIN(OG) = MGA . YNB
000279: 15,2671           32476                                    ARCTRIG
000280: 15,2672           26501                           STOVL    OGC
000281: 15,2673           00001                                    0
000282:
000283: 15,2674           50235                           VXV      DOT                                   #  PROVISION FOR MG ANGLE OF 90 DEGREES
000284: 15,2675           02423                                    XNB
000285: 15,2676           02407                                    YSM
000286: 15,2677           77752                           SL1
000287: 15,2700           24021                           STOVL    COSTH                                 #  COS(MG) = IGA . (MGA X OGA)
000288: 15,2701           02407                                    YSM
000289: 15,2702           77641                           DOT
000290: 15,2703           02423                                    XNB
000291: 15,2704           34023                           STCALL   SINTH                                 #  SIN(MG) = IGA . OGA
000292: 15,2705           32476                                    ARCTRIG
000293: 15,2706           02505                           STORE    MGC
000294:
000295: 15,2707           45246                           ABS      DSU
000296: 15,2710           33113                                    .166...
000297: 15,2711           77644                           BPL
000298: 15,2712           32731                                    GIMLOCK1                              #  IF ANGLE GREATER THAN 60 DEGREES


000300:
000301: 15,2713           50375        CALCGA1            VLOAD    DOT
000302: 15,2714           02415                                    ZSM
000303: 15,2715           00001                                    0
000304: 15,2716           24021                           STOVL    COSTH                                 #  COS(IG) = ZSM . MGA
000305: 15,2717           02401                                    XSM
000306: 15,2720           45441                           DOT      STADR
000307: 15,2721           43754                           STCALL   SINTH                                 #  SIN(IG) = XSM . MGA
000308: 15,2722           32476                                    ARCTRIG
000309:
000310: 15,2723           26503                           STOVL    IGC
000311: 15,2724           02501                                    OGC
000312: 15,2725           77634                           RTB
000313: 15,2726           33526                                    V1STO2S
000314: 15,2727           34401                           STCALL   THETAD
000315: 15,2730           00051                                    S2
000316:
000317: 15,2731           77776        GIMLOCK1           EXIT
000318: 15,2732           06051                           TC       FLAG1UP                               #  SET GIMBAL LOCK FLAG
000319: 15,2733           00200                           OCT      200
000320: 15,2734           04755                           TC       ALARM
000321: 15,2735           00401                           OCT      00401
000322: 15,2736           06112                           TC       INTPRET
000323: 15,2737           77650                           GOTO
000324: 15,2740           32713                                    CALCGA1


000326:
000327:                                                                                                  #  AXISGEN COMPUTES THE COORDINATES OF ONE COORDINATE SYSTEM REFERRED TO ANOTHER COORDINATE SYSTEM.
000328:
000329:                                                                                                  #  THE INPUTS ARE  1) THE STAR1 VECTOR REFERRED TO COORDINATE SYSTEM A STORED AT STARAD.  2) THE STAR2 VECTOR
000330:                                                                                                  #  REFERRED TO COORDINATE SYSTEM A STORED AT STARAD +6.  3) THE STAR1 VECTOR REFERRED TO COORDINATE SYSTEM B STORED
000331:                                                                                                  #  AT LOCATION 6 OF THE VAC AREA.  4) THE STAR2 VECTOR REFERRED TO COORDINATE SYSTEM B STORED AT LOCATION 12D OF
000332:                                                                                                  #  THE VAC AREA.
000333:
000334:                                                                                                  #  THE OUTPUT DEFINES COORDINATE SYSTEM A REFERRED TO COORDINATE SYSTEM B. THE THREE HALF-UNIT VECTORS ARE STORED
000335:                                                                                                  #  AT LOCATIONS XDC, XDC +6, XDC +12D, AND STARAD, STARAD +6, STARAD +12D.
000336:
000337:
000338: 15,2741           66370        AXISGEN            AXT,1    SSP                                   #  PUSHDOWN 00-22D,24-28D,30D
000339: 15,2742           02452                                    STARAD     +6
000340: 15,2743           00051                                    S1
000341: 15,2744           02436                                    STARAD     -6
000342:
000343: 15,2745           46773        AXISGEN1           VLOAD*   VXV*                                  #  06D   UA = S1
000344: 15,2746           02461                                    STARAD     +12D,1                     #        STARAD +00D     UB = S1
000345: 15,2747           02467                                    STARAD     +18D,1
000346: 15,2750           77656                           UNIT                                           #  12D   VA = UNIT(S1 X S2)
000347: 15,2751           06467                           STORE    STARAD     +18D,1                     #        STARAD +06D     VB = UNIT(S1 X S2)
000348: 15,2752           77773                           VLOAD*
000349: 15,2753           02461                                    STARAD     +12D,1
000350:
000351: 15,2754           76433                           VXV*     VSL1
000352: 15,2755           02467                                    STARAD     +18D,1                     #  18D   WA = UA X VA
000353: 15,2756           06475                           STORE    STARAD     +24D,1                     #        STARAD +12D     WB = UB X VB
000354:
000355: 15,2757           77700                           TIX,1
000356: 15,2760           32745                                    AXISGEN1
000357:
000358: 15,2761           66160                           AXC,1    SXA,1
000359: 15,2762           00006                                    6
000360: 15,2763           00036                                    30D
000361:
000362: 15,2764           66370                           AXT,1    SSP
000363: 15,2765           00022                                    18D
000364: 15,2766           00051                                    S1
000365: 15,2767           00006                                    6
000366:
000367: 15,2770           66374                           AXT,2    SSP
000368: 15,2771           00006                                    6
000369: 15,2772           00052                                    S2
000370: 15,2773           00002                                    2
000371:
000372: 15,2774           76720        AXISGEN2           XCHX,1   VLOAD*
000373: 15,2775           00036                                    30D                                   #  X1=-6 X2=+6   X1=-6 X2=+4     X1=-6 X2=+2
000374: 15,2776           00001                                    0,1
000375: 15,2777           62757                           VXSC*    PDVL*                                 #  J=(UA)(UB1)   J=(UA)(UB2)     J=(UA)(UB3)


000377: 15,3000           75324                                    STARAD     +6,2
000378: 15,3001           00007                                    6,1
000379: 15,3002           77757                           VXSC*
000380: 15,3003           75316                                    STARAD     +12D,2
000381: 15,3004           30031                           STOVL*   24D                                   #  K=(VA)(VB1)   J=(VA)(VB2)     J=(VA)(VB3)
000382: 15,3005           00015                                    12D,1
000383:
000384: 15,3006           53357                           VXSC*    VAD
000385: 15,3007           75310                                    STARAD     +18D,2                     #  L=(WA)(WB1)   J=(WA)(WB2)     J=(WA)(WB3)
000386: 15,3010           76455                           VAD      VSL1
000387: 15,3011           00031                                    24D
000388: 15,3012           77720                           XCHX,1
000389: 15,3013           00036                                    30D
000390: 15,3014           06445                           STORE    XDC        +18D,1                     #  XDC = L+J+K   YDC = L+J+K     ZDC = L+J+K
000391:
000392: 15,3015           77700                           TIX,1
000393: 15,3016           33017                                    AXISGEN3
000394:
000395: 15,3017           77704        AXISGEN3           TIX,2
000396: 15,3020           32774                                    AXISGEN2
000397:
000398: 15,3021           77775                           VLOAD
000399: 15,3022           02423                                    XDC
000400: 15,3023           26445                           STOVL    STARAD
000401: 15,3024           02431                                    YDC
000402: 15,3025           26453                           STOVL    STARAD     +6
000403: 15,3026           02437                                    ZDC
000404: 15,3027           02461                           STORE    STARAD     +12D
000405:
000406: 15,3030           77616                           RVQ
000407:


000409:
000410:                                                                                                  #  TRANSPSE COMPUTES THE TRANSPOSE OF A MATRIX (TRANSPOSE = INVERSE OF ORTHOGONAL TRANSOFRMATION).
000411:
000412:                                                                                                  #  THE INPUT IS A MATRIX DEFINING COORDINATE SYSTEM A WITH RESPECT TO COORDINATE SYSTEM B STORED IN STARAD THRU
000413:                                                                                                  #  STARAD +17D.
000414:
000415:                                                                                                  #  THE OUTPUT IS A MATRIX DEFINING COORDINATE SYSTEM B WITH RESPECT TO COORDINATE SYSTEM A STORED IN STARAD THRU
000416:                                                                                                  #  STARAD +17D.
000417:
000418: 15,3031           53447        TRANSPSE           DXCH     STARAD     +2                         #  PUSHDOWN NONE
000419: 15,3032           53453                           DXCH     STARAD     +6
000420: 15,3033           53447                           DXCH     STARAD     +2
000421:
000422: 15,3034           53451                           DXCH     STARAD     +4
000423: 15,3035           53461                           DXCH     STARAD     +12D
000424: 15,3036           53451                           DXCH     STARAD     +4
000425:
000426: 15,3037           53457                           DXCH     STARAD     +10D
000427: 15,3040           53463                           DXCH     STARAD     +14D
000428: 15,3041           53457                           DXCH     STARAD     +10D
000429: 15,3042           16125                           TCF      DANZIG
000430:
000431:
000432:
000433:                                                                                                  #  SMD/EREF TRANSFORMS STABLE MEMBER DESIRED COORDINATES FROM STABLE MEMBER DESIRED (DESIRED = PRESENT HERE) TO
000434:                                                                                                  #  EARTH REFERENCE COORDINATES TO ALIGN THE STABLE MEMBER TO SPECIFIED GIMBAL ANGLES.
000435:
000436:                                                                                                  #  THE INPUTS ARE 1) THE MATRIX DEFINING THE EARTH REFERENCE COORDINATE FRAME WITH RESPECT TO THE NAVIGATION BASE
000437:                                                                                                  #  COORDINATE FRAME. 2) SAME AS 3) AND 3) of SMNB.
000438:
000439:                                                                                                  #  THE OUTPUT IS THE DESIRED STABLE MEMBER COORDINATES WITH RESPECT TO THE EARTH REFERENCE COORDINATE FRAME. THE
000440:                                                                                                  #  THREE UNIT VECTORS ARE STORED AT XSM, YSM, AND ZSM.
000441:
000442: 15,3043           77220        SMD/EREF           ITA      VLOAD                                 #  PUSHDOWN 00,02,04-10D,30D,32D-36D
000443: 15,3044           00014                                    12D
000444: 15,3045           33103                                    XUNIT
000445: 15,3046           34041                           STCALL   32D
000446: 15,3047           32531                                    SMNB                                  #  STABLE MEMBER TO NAVIGATION BASE
000447: 15,3050           76521                           MXV      VSL1
000448: 15,3051           02445                                    STARAD                                #  THEN TO EARTH REFERENCE
000449: 15,3052           26401                           STOVL    XSM
000450: 15,3053           33101                                    YUNIT
000451:
000452: 15,3054           34041                           STCALL   32D
000453: 15,3055           32531                                    SMNB                                  #  STABLE MEMBER TO NAVIGATION BASE
000454: 15,3056           76521                           MXV      VSL1
000455: 15,3057           02445                                    STARAD                                #  THEN TO EARTH REFERENCE
000456: 15,3060           26407                           STOVL    YSM
000457: 15,3061           33077                                    ZUNIT
000458:
000459: 15,3062           34041                           STCALL   32D


000461: 15,3063           32531                                    SMNB                                  #  STABLE MEMBER TO NAVIGATION BASE
000462: 15,3064           76521                           MXV      VSL1
000463: 15,3065           02445                                    STARAD                                #  THEN TO EARTH REFERENCE
000464: 15,3066           36415                           STCALL   ZSM
000465: 15,3067           00014                                    12D
000466:
000467: 15,3070           67777 77777  270DEG             2DEC     -.25
000468:
000469: 15,3072           05520 26075  QTSN45             2DEC     .1768
000470:
000471: 15,3074           20000 00000  HALFDP             2DEC     .5
000472:
000473: 15,3076           00000 00000  ZUNIT              2DEC     0          B-28
000474:
000475: 15,3100           00000 00000  YUNIT              2DEC     0          B-28
000476:
000477: 15,3102           20000 00000  XUNIT              2DEC     0.5
000478:
000479: 15,3104           00000 00000  ZERODP             2DEC     0          B-28
000480:
000481: 15,3106           00000 00000                     2DEC     0          B-28
000482:
000483: 15,3110           00000 00000                     2DEC     0          B-28
000484:
000485: 15,3112           05252 25253  .166...            2DEC     .1666666667
000486:


000488:
000489:                                                                                                  #  AOTNB CONVERTS THE TWO RETICLE ROTATION ANGLE (YROT AND SROT) AND
000490:                                                                                                  #  THE DETENT SETTING TO A HALF UNIT STAR VECTOR REFERRED TO THE
000491:                                                                                                  #  NAVIGATION BASE.
000492:
000493:                                                                                                  #  THE INPUTS ARE
000494:
000495:                                                                                                  #     Y RET. LINE RATATION S(YROT) STORED IN LOC 3 OF THE MARK VAC AREA
000496:                                                                                                  #     SPIRAL ROTATION ANGLE S(SROT) STORED IN LOC 5 OF MARC VAC AREA
000497:                                                                                                  #     ANGLE OF CENTER OF FIELD OF VIEW S(ELV) STORED IN LOC 9 OF MARK VAC
000498:                                                                                                  #     AOT ASZIMUTH ANGLE S(DET) STORED IN LOC 8 OF MARK VAC AREA
000499:                                                                                                  #     THE COMPLEMENT OF BASE ADDRESS OF MARK VAC IS STORED AT X1
000500:                                                                                                  #     COMPENSATION FOR FIELD OF VIEW TILT IN LOC 10D
000501:                                                                                                  #  THE ABOVE STORAGE IS DONE BY AOTMARK
000502:
000503:
000504:                                                                                                  #  THE OUTPUT IS A HALF UNIT STAR VECTOR IN NB COORDINATES STORED
000505:                                                                                                  #  AT 32D AND AVAILABLE IN VAC ON RETURN TO THE CALLING PROGRAM
000506:
000507: 15,3114           66601        AOTNB              SETPD    SLOAD*
000508: 15,3115           00001                                    0
000509: 15,3116           00013                                    10D,1                                 #  AOT FOV TILT COMPENSATOIN ANGLE
000510: 15,3117           41542                           SR1      PUSH                                  #  RESCALE TILT TO 2PI
000511: 15,3120           47133                           SLOAD*   RTB
000512: 15,3121           00004                                    3,1
000513: 15,3122           33457                                    CDULOGIC
000514: 15,3123           00017                           STORE    14D                                   #  STORE UNCOMPENSATED YROT FOR S COMP
000515: 15,3124           41415                           DAD      PUSH                                  #  YROT NOW CORRECTED FOR TILT
000516: 15,3125           65346                           COS      PDDL                                  #  1/2 COS(YROT) PD 0-1
000517: 15,3126           41556                           SIN      PUSH                                  #  1/2 SIN(YROT) PD 2-3
000518: 15,3127           47133                           SLOAD*   RTB
000519: 15,3130           00006                                    5,1
000520: 15,3131           33457                                    CDULOGIC
000521: 15,3132           00021                           STORE    16D                                   #  STORE S IF S AND Y ARE ZERO, S=0
000522: 15,3133           52054                           BZE      GOTO                                  #  S NOT ZERO
000523: 15,3134           33136                                    SISZ                                  #  S=0
000524: 15,3135           33146                                    SCOMP
000525: 15,3136           53145        SISZ               DLOAD    BZE                                   #  IS Y ZERO
000526: 15,3137           00017                                    14D
000527: 15,3140           33143                                    YISZ                                  #  Y=0
000528: 15,3141           77650                           GOTO
000529: 15,3142           33146                                    SCOMP
000530: 15,3143           52145        YISZ               DLOAD    GOTO
000531: 15,3144           33105                                    ZERODP
000532: 15,3145           33153                                    SGOT
000533: 15,3146           45345        SCOMP              DLOAD    DSU
000534: 15,3147           00017                                    14D
000535: 15,3150           00021                                    16D                                   #  Y-S
000536: 15,3151           77621                           BDSU
000537: 15,3152           33240                                    NEARONE                               #  S=360-(Y-S)
000538: 15,3153           41405        SGOT               DMP      PUSH


000540: 15,3154           33236                                    DP1/12
000541: 15,3155           65346                           COS      PDDL
000542: 15,3156           41556                           SIN      PUSH
000543: 15,3157           72405                           DMP      SL1
000544: 15,3160           00001                                    0
000545: 15,3161           14001                           STODL    0
000546: 15,3162           00003                                    2
000547: 15,3163           45405                           DMP      STADR
000548: 15,3164           77774                           STORE    2
000549:
000550: 15,3165           47133                           SLOAD*   RTB
000551: 15,3166           00012                                    9D,1
000552: 15,3167           33457                                    CDULOGIC
000553: 15,3170           73406                           PUSH     SIN
000554: 15,3171           71525                           PDDL     COS
000555: 15,3172           41206                           PUSH     DMP
000556: 15,3173           00001                                    0
000557: 15,3174           41325                           PDDL     DMP
000558: 15,3175           00005                                    4
000559: 15,3176           00007                                    6
000560: 15,3177           72415                           DAD      SL1
000561: 15,3200           77626                           STADR
000562: 15,3201           63736                           STODL    32D
000563:
000564: 15,3202           77605                           DMP
000565: 15,3203           00005                                    4
000566: 15,3204           14005                           STODL    4
000567:
000568: 15,3205           44205                           DMP      BDSU
000569: 15,3206           00001                                    0
000570: 15,3207           66606                           PUSH     SLOAD*
000571: 15,3210           00011                                    8D,1
000572: 15,3211           41434                           RTB      PUSH
000573: 15,3212           33457                                    CDULOGIC
000574: 15,3213           65346                           COS      PDDL
000575: 15,3214           77756                           SIN
000576: 15,3215           00001                           STORE    0
000577:
000578: 15,3216           65205                           DMP      PDDL
000579: 15,3217           00005                                    4
000580: 15,3220           00007                                    6
000581: 15,3221           43205                           DMP      DAD
000582: 15,3222           00003                                    2
000583: 15,3223           77712                           SL2
000584: 15,3224           14043                           STODL    34D
000585:
000586: 15,3225           45405                           DMP      STADR
000587: 15,3226           63732                           STODL    36D


000589: 15,3227           77605                           DMP
000590: 15,3230           62421                           BDSU     SL2
000591: 15,3231           00045                                    36D
000592: 15,3232           24045                           STOVL    36D
000593: 15,3233           00041                                    32D
000594: 15,3234           77616                           RVQ
000595:
000596: 15,3235           02525 12525  DP1/12             2DEC     .0833333333                            #  ; ;
000597:
000598: 15,3237           37777 37777  NEARONE            2DEC     .999999999
000599:


000601:
000602:                                                                                                  #  AOTSM CALCULATES A HALF UNIT STAR VECTOR IN STABLE MEMBER COORDINATES
000603:                                                                                                  #  FROM TWO PLANES CONTAINING THE STAR REFERRED TO NB
000604:
000605:                                                                                                  #  THE INPUTS ARE
000606:
000607:                                                                                                  #     AOT AZIMUTH AND ELEVATION STORED IN 8D AND 9D RESP. OF VAC AREA
000608:                                                                                                  #     CDUY, CDUZ AND CDUX FROM A YMARK STORED AT 3, 5, AND 7 OF VAC AREA
000609:                                                                                                  #     CDUY, CDUZ AND CDUX FROM A XMARK STORED AT 2, 4, AND 6 OF VAC AREA
000610:                                                                                                  #     COMPENSATION FOR FIELD OF VIEW STORED AT 10D OF VAC AREA
000611:                                                                                                  #  THE BASE ADDRESS OF THE CDUS IS STORED AT LOCATION S1
000612:
000613:                                                                                                  #  THE OUTPUT IS A STAR VECTOR REFERRED TO STABLE MEMBER AT LOC 32D
000614:                                                                                                  #  AND AVAILABLE IN MPAC
000615:
000616: 15,3241           40220        AOTSM              STQ      SETPD
000617: 15,3242           00035                                    29D                                   #  SET UP RETURN
000618: 15,3243           00001                                    0
000619: 15,3244           66740                           LXC,1    SLOAD*
000620: 15,3245           00050                                    S1                                    #  COMPLEMENT OF CDU ADR FOR XMARK
000621: 15,3246           00011                                    8D,1                                  #  LOAD APPARENT TILT ANGLE,ONES COMP
000622: 15,3247           77742                           SR1                                            #  RESCALE TILT TO 2PI
000623: 15,3250           71406                           PUSH     COS
000624: 15,3251           73525                           PDDL     SIN                                   #  1/2 COS(TA)  0-1
000625: 15,3252           66606                           PUSH     SLOAD*                                #  1/2 SIN(TA)  2-3
000626: 15,3253           00007                                    6,1                                   #  LOAD AZIMUTH, 2S COMP
000627: 15,3254           41434                           RTB      PUSH
000628: 15,3255           33457                                    CDULOGIC
000629: 15,3256           65346                           COS      PDDL                                  #  1/2 COS(AZ)  4-5
000630: 15,3257           41556                           SIN      PUSH                                  #  1/2 SIN(AZ)  6-7
000631: 15,3260           65205                           DMP      PDDL
000632: 15,3261           00001                                    0
000633: 15,3262           65205                           DMP      PDDL
000634: 15,3263           00003                                    2
000635: 15,3264           00005                                    4
000636: 15,3265           65205                           DMP      PDDL
000637: 15,3266           00001                                    0
000638: 15,3267           00005                                    4
000639: 15,3270           41405                           DMP      PUSH
000640: 15,3271           47133                           SLOAD*   RTB
000641: 15,3272           00010                                    7,1                                   #  LOAD ELEVATION, 2S COMP
000642: 15,3273           33457                                    CDULOGIC
000643: 15,3274           73406                           PUSH     SIN
000644: 15,3275           71525                           PDDL     COS                                   #  1/2 SIN(ELV)  14-15
000645: 15,3276           41206                           PUSH     DMP                                   #  1/2 COS(ELV)  16-17
000646: 15,3277           00001                                    0
000647: 15,3300           77752                           SL1
000648: 15,3301           14041                           STODL    32D                                   #  X COMPONENT OF X-PLANE VECTOR
000649:
000650: 15,3302           72405                           DMP      SL1                                   #  UP 16-17
000651: 15,3303           00003                                    2


000653:
000654: 15,3304           65276                           DCOMP    PDDL                                  #  X COMPONENT OF Y-PLANE VECTOR 16-17
000655:
000656: 15,3305           00017                                    14D
000657: 15,3306           72405                           DMP      SL1
000658: 15,3307           00007                                    6
000659: 15,3310           72421                           BDSU     SL1
000660: 15,3311           00015                                    12D
000661: 15,3312           14043                           STODL    34D                                   #  Y COMPONENT OF X-PLANE VEC
000662:
000663: 15,3313           00017                                    14D
000664: 15,3314           72405                           DMP      SL1
000665: 15,3315           00013                                    10D
000666: 15,3316           72415                           DAD      SL1
000667: 15,3317           00011                                    8D
000668: 15,3320           77676                           DCOMP
000669: 15,3321           14045                           STODL    36D                                   #  Z COMPONENT OF X-PLANE VECTOR
000670:
000671: 15,3322           00017                                    14D
000672: 15,3323           72405                           DMP      SL1
000673: 15,3324           00011                                    8D
000674: 15,3325           72415                           DAD      SL1
000675: 15,3326           00013                                    10D
000676: 15,3327           41325                           PDDL     DMP                                   #  Y COMPONENT OF Y-PLANE VECTOR 18-19
000677:
000678: 15,3330           00017                                    14D
000679: 15,3331           00015                                    12D
000680: 15,3332           72425                           DSU      SL1
000681: 15,3333           00007                                    6
000682: 15,3334           34025                           STCALL   20D                                   #  Z COMPONENT OF Y-PLANE VECTOR 20-21
000683:
000684: 15,3335           32555                                    NBSM                                  #  TRANSFORM TO SM
000685: 15,3336           24013                           STOVL    10D                                   #  STORE X-PLANE VECTOR (SM)
000686:
000687: 15,3337           00021                                    16D                                   #  LOAD Y-PLANE VECTOR (NB)
000688: 15,3340           62120                           XCHX,1   INCR,1
000689: 15,3341           00050                                    S1                                    #  INCREMENT CDU BASE ADR TO YMARK CDUS
000690: 15,3342           00001                                    1
000691: 15,3343           77720                           XCHX,1                                         #  PUT IT BACK IN S1
000692: 15,3344           00050                                    S1
000693: 15,3345           34041                           STCALL   32D
000694: 15,3346           32555                                    NBSM                                  #  GET Y-PLANE IN SM
000695: 15,3347           76435                           VXV      VSL1                                  #  YP CROSS XP
000696: 15,3350           00013                                    10D
000697: 15,3351           53476                           VCOMP    UNIT                                  #  UNIT (XP CROSS YP)
000698: 15,3352           00041                           STORE    32D                                   #  STAR VECTOR IN SM COORDINATES
000699: 15,3353           77650                           GOTO
000700: 15,3354           00035                                    29D                                   #  RETURN
000701:


000703:
000704:                                                                                                  #           THE FOLLOWING ROUTINE TAKES A HALF UNIT TARGET VECTOR REFERRED TO NAV BASE COORDINATES AND FINDS BOTH
000705:                                                                                                  #  GIMBAL ORIENTATIONS AT WHICH THE RR MIGHT SIGHT THE TARGET. THE GIMBAL ANGLES CORRESPONDING TO THE PRESENT MODE
000706:                                                                                                  #  ARE LEFT IN MODEA AND THOSE WHICH WOULD BE USED AFTER A REMODE IN MODEB. THIS ROUTINE ASSUMES MODE 1 IS TRUNNION
000707:                                                                                                  #  ANGLE LESS THAN 90 DEGS IN ABS VALUE WITH ARBITRARY SHAFT, WITH A CORRESPONDING DEFINITION FOR MODE 2. MODE
000708:                                                                                                  #  SELECTION AND LIMIT CHECKING ARE DONE ELSEWHERE.
000709:
000710:                                                                                                  #            THE MODE 1 CONFIGURATION IS CALCULATED FROM THE VECTOR AND THEN MODE 2 IS FOUND USING THE RELATIONS
000711:
000712:                                                                                                  #            S(2) = 180 + S(1)
000713:                                                                                                  #            T(2) = 180 - T(1)
000714:
000715: 15,3355           57545        RRANGLES           DLOAD    DCOMP                                 #  SINCE WE WILL FIND THE MODE 1 SHAFT
000716: 15,3356           00043                                    34D                                   #  ANGLE LATER, WE CAN FIND THE MODE 1
000717: 15,3357           67401                           SETPD    ASIN                                  #  TRUNNION BY SIMPLY TAKING THE ARCSIN OF
000718: 15,3360           00001                                    0                                     #  THE Y COMPONENT, THE ASIN GIVING AN
000719: 15,3361           44206                           PUSH     BDSU                                  #  ANSWER WHOSE ABS VAL IS LES THAN 90 DEG
000720: 15,3362           33075                                    HALFDP
000721: 15,3363           14005                           STODL    4                                     #  MODE 2 TRUNNION TO 4.
000722:
000723: 15,3364           33105                                    ZERODP
000724: 15,3365           24043                           STOVL    34D                                   #  UNIT THE PROJECTION OF THE VECTOR IN THE
000725: 15,3366           00041                                    32D                                   #  X-Z PLANE.
000726: 15,3367           41056                           UNIT     BOVB                                  #  CALL FOR S/C MANEUVER ON GIMBAL LOCK.
000727: 15,3370           20347                                    DESRETRN   +1
000728: 15,3371           14041                           STODL    32D                                   #  PROJECTION VECTOR.
000729: 15,3372           00041                                    32D
000730: 15,3373           44142                           SR1      STQ
000731: 15,3374           00051                                    S2
000732: 15,3375           14023                           STODL    SINTH                                 #  USE ARCTRIG SINCE SHAFT COULD BE ARB.
000733: 15,3376           00045                                    36D
000734: 15,3377           77742                           SR1
000735: 15,3400           34021                           STCALL   COSTH
000736: 15,3401           32476                                    ARCTRIG


000738: 15,3402           43206                           PUSH     DAD                                   #  MODE 1 SHAFT TO 2.
000739: 15,3403           33075                                    HALFDP                                #  (OVERFLOW DOESNT MATTER SINCE SCALED REV
000740: 15,3404           24007                           STOVL    6
000741: 15,3405           00005                                    4
000742: 15,3406           77634                           RTB                                            #  FIND MODE 2 CDU ANGLES.
000743: 15,3407           33543                                    2V1STO2S
000744: 15,3410           24425                           STOVL    MODEB
000745: 15,3411           00001                                    0
000746: 15,3412           77634                           RTB                                            #  MODE 1 ANGLES TO MODE A.
000747: 15,3413           33543                                    2V1STO2S
000748: 15,3414           00423                           STORE    MODEA
000749: 15,3415           77776                           EXIT
000750:
000751: 15,3416           40412                           CS       RADMODES                              #  SWAP MODEA AND MODEB IF RR IN MODE2.
000752: 15,3417           77750                           MASK     BIT12
000753: 15,3420           10000                           CCS      A
000754: 15,3421           13425                           TCF      +4
000755:
000756: 15,3422           52423                           DXCH     MODEA
000757: 15,3423           52425                           DXCH     MODEB
000758: 15,3424           52423                           DXCH     MODEA
000759:
000760: 15,3425           06112                           TC       INTPRET
000761: 15,3426           77650                           GOTO
000762: 15,3427           00051                                    S2
000763:


000765:                                                                                                  #     GIVEN RR TRUNION AND SHAFT (T,S) IN TANG,+1, FIND THE ASSOCIATED
000766:                                                                                                  #  LINE OF SIGHT IN NAV BASE AXES.  THE HALF UNIT VECTOR, .5(SIN(S)COS(T),
000767:                                                                                                  #  -SIN(T),COS(S)COS(T)) IS LEFT IN MPAC AND 32D.
000768:
000769: 15,3430           47135        RRNB               SLOAD    RTB
000770: 15,3431           00423                                    TANG
000771: 15,3432           33457                                    CDULOGIC
000772: 15,3433           41401                           SETPD    PUSH                                  #  TRUNNION ANGLE TO 0.
000773: 15,3434           00001                                    0
000774: 15,3435           57556                           SIN      DCOMP
000775: 15,3436           14043                           STODL    34D                                   #  Y COMPONENT.
000776:
000777: 15,3437           41546                           COS      PUSH                                  #  .5 COS(T) TO 0.
000778: 15,3440           47135                           SLOAD    RTB
000779: 15,3441           00424                                    TANG       +1
000780: 15,3442           33457                                    CDULOGIC
000781: 15,3443           71406                           PUSH     COS                                   #  SHAFT ANGLE TO 2.
000782: 15,3444           72405                           DMP      SL1
000783: 15,3445           00001                                    0
000784: 15,3446           14045                           STODL    36D                                   #  Z COMPONENT
000785:
000786: 15,3447           41356                           SIN      DMP
000787: 15,3450           77752                           SL1
000788: 15,3451           24041                           STOVL    32D
000789: 15,3452           00041                                    32D
000790: 15,3453           77616                           RVQ
000791:
000792:

End of include-file INFLIGHT_ALIGNMENT_ROUTINES.agc.  Parent file is MAIN.agc


