
Source Code


000002:                                                                                                  ## Copyright:   Public domain.
000003:                                                                                                  ## Filename:    INTERRUPT_LEAD_INS.agc
000004:                                                                                                  ## Purpose:     A module for revision 0 of BURST120 (Sunburst).
000005:                                                                                                  ##              It is part of the source code for the Lunar Module's (LM)
000006:                                                                                                  ##              Apollo Guidance Computer (AGC) for Apollo 5.
000007:                                                                                                  ## Assembler:   yaYUL
000008:                                                                                                  ## Contact:     Ron Burkey <info@sandroid.org>.
000009:                                                                                                  ## Website:     www.ibiblio.org/apollo/index.html
000010:                                                                                                  ## Mod history: 2016-09-30 RSB  Created draft version.
000011:                                                                                                  ##                              I've also corrected this against the Sunburst120
000012:                                                                                                  ##                              scans, so modulo any errors of mine, should be
000013:                                                                                                  ##                              ready to go.
000014:                                                                                                  ##              2016-11-03 RSB  Some SBANK= workarounds.
000015:                                                                                                  ##              2016-12-03 RSB  Fixed 5 comment typos (out of 2 total pages)
000016:                                                                                                  ##                              using octopus/ProoferComments.
000017:                                                                                                  ##              2017-06-17 MAS  Globally removed all SBANK= workarounds.
000018:


000020:    4000                                           SETLOC   4000
000021:
000022:    4000           00004                           INHINT                                         #  GO
000023:    4001           34054                           CAF      GOBB
000024:    4002           56006                           XCH      BBANK
000025:    4003           12163                           TCF      GOPROG
000026:
000027:    4004           52011                           DXCH     ARUPT                                 #  T6RUPT
000028:    4005           00006                           EXTEND
000029:    4006           35051                           DCA      T6ADR
000030:    4007           52006                           DTCB
000031:
000032:    4010           52011                           DXCH     ARUPT                                 #  T5RUPT
000033:    4011           00006                           EXTEND
000034:    4012           31001                           DCA      T5ADR
000035:    4013           52006                           DTCB
000036:
000037:    4014           52011                           DXCH     ARUPT                                 #  T3RUPT
000038:    4015           34056                           CAF      T3RPTBB
000039:    4016           56006                           XCH      BBANK
000040:    4017           13577                           TCF      T3RUPT
000041:
000042:    4020           52011                           DXCH     ARUPT                                 #  T4RUPT
000043:    4021           34063                           CAF      T4RPTBB
000044:    4022           56006                           XCH      BBANK
000045:    4023           12000                           TCF      T4RUPT
000046:
000047:    4024           52011                           DXCH     ARUPT                                 #  KEYRUPT1
000048:    4025           34057                           CAF      KEYRPTBB
000049:    4026           56006                           XCH      BBANK
000050:    4027           13474                           TCF      KEYRUPT1
000051:
000052:    4030           52011                           DXCH     ARUPT                                 #  KEYRUPT2
000053:    4031           34060                           CAF      MKRUPTBB
000054:    4032           56006                           XCH      BBANK
000055:    4033           13221                           TCF      MARKRUPT
000056:
000057:    4034           52011                           DXCH     ARUPT                                 #  UPRUPT
000058:    4035           34057                           CAF      UPRPTBB
000059:    4036           56006                           XCH      BBANK
000060:    4037           13514                           TCF      UPRUPT
000061:
000062:    4040           52011                           DXCH     ARUPT                                 #  DOWNRUPT
000063:    4041           34061                           CAF      DWNRPTBB
000064:    4042           56006                           XCH      BBANK
000065:    4043           12001                           TCF      DODOWNTM
000066:
000067:    4044           52011                           DXCH     ARUPT                                 #  RADAR RUPT
000068:    4045           34062                           CAF      RDRPTBB
000069:    4046           56006                           XCH      BBANK


000071:    4047           15736                           TCF      NOQRSM     +1                         #  WAS TCF RADAREAD (NO RADAR IN 206).
000072:
000073:                                                                                                  #  TRAPS 31B AND 32 SHOULD NEVER BE SET.  THEREFORE-
000074:                                                                                                  #  RUPT 10 WILL ALWAYS REFER TO THE HAND CONTROLLER LPD OR MINIMUM IMPULSE
000075:                                                                                                  #  USE.  SEE GEORGE CHERRY FOR RATIONALE REGARDING THE AFORESAID.
000076:
000077:    4050           52011                           DXCH     ARUPT                                 #  RUPT10 USED FOR RHC MINIMP MODE ONLY.
000078:    4051           37762                           CAF      TWO
000079:    4052           55007                           TS       DELAYCTR
000080:    4053           15737                           TCF      NOQBRSM
000081:
000082:    4054  E3,1400                                  EBANK=   LST1                                  #  RESTART USES E0, E3
000083:    4054           02003        GOBB               BBCON    GOPROG
000084:
000085:    4055     0025                                  EBANK=   TIME1
000086:    4055           04000        T6RPTBB            BBCON    RESUME                                #  ***FIX LATER***
000087:
000088:    4056  E3,1400                                  EBANK=   LST1
000089:    4056           02003        T3RPTBB            BBCON    T3RUPT
000090:
000091:    4057     0073                                  EBANK=   KEYTEMP1
000092:    4057           26000        KEYRPTBB           BBCON    KEYRUPT1
000093:
000094:    4060  E3,1467                                  EBANK=   AOTAZ
000095:    4060           26003        MKRUPTBB           BBCON    MARKRUPT
000096:
000097:    4061     4057               UPRPTBB            =        KEYRPTBB
000098:
000099:    4061  E7,1407                                  EBANK=   DNTMBUFF
000100:    4061           32007        DWNRPTBB           BBCON    DODOWNTM
000101:
000102:    4062     0412                                  EBANK=   RADMODES
000103:    4062           20001        RDRPTBB            BBCON    RADAREAD
000104:
000105:    4063  E6,1404                                  EBANK=   M11
000106:    4063           24006        T4RPTBB            BBCON    T4RUPTA
000107:
000108:

End of include-file INTERRUPT_LEAD_INS.agc.  Parent file is MAIN.agc


