
Source Code


000002:                                                                                                  ## Copyright:    Public domain.
000003:                                                                                                  ## Filename:     INTERPRETER.agc
000004:                                                                                                  ## Purpose:      A module for revision 0 of BURST120 (Sunburst). It
000005:                                                                                                  ##               is part of the source code for the Lunar Module's
000006:                                                                                                  ##               (LM) Apollo Guidance Computer (AGC) for Apollo 5.
000007:                                                                                                  ## Assembler:    yaYUL
000008:                                                                                                  ## Contact:      Ron Burkey <info@sandroid.org>.
000009:                                                                                                  ## Website:      www.ibiblio.org/apollo/index.html
000010:                                                                                                  ## Mod history:  2016-09-30 RSB  Created draft version.
000011:                                                                                                  ##               2016-10-14 MAS  Began.
000012:                                                                                                  ##               2016-10-14 MAS  Completed transcription.
000013:                                                                                                  ##               2016-10-31 RSB  Typos.
000014:                                                                                                  ##               2016-11-01 RSB  More typos.
000015:


000017:                                                                                                  #  SECTION 1  DISPATCHER
000018:
000019:                                                                                                  #           ENTRY TO THE INTERPRETER. INTPRET SETS LOC TO THE FIRST  INSTRUCTION, BANKSET TO THE BBANK OF THE
000020:                                                                                                  #  OBJECT INTERPRETIVE PROGRAM, AND INTBIT15 TO THE BIT15 CONTENTS OF FBANK. INTERPRETIVE PROGRAMS MAY BE IN
000021:                                                                                                  #  VIRTUALLY ALL BANKS PRESENT UNDER ANY SUPER-BANK SETTING, WITH THE RESTRICTION THAT PROGRAMS IN HIGH BANKS
000022:                                                                                                  #  (BIT15 OF FBANK = 1) DO NOT REFER TO LOWBANKS, AND VICE-VERSA. THE INTERPRETER DOES NOT SWITCH SUPERBANKS.
000023:                                                                                                  #  E-BANK SWITCHING OCCURS WHENEVER GENERAL ERASABLE (100 - 3777) IS ADDRESSED.
000024:
000025:
000026:    6112                                           BLOCK    03
000027:
000028:    6112           00006        INTPRET            EXTEND                                         #  SET LOC TO THE WORD FOLLOWING THE TC.
000029:    6113           22154                           QXCH     LOC
000030:
000031:    6114           30006                 +2        CA       BBANK                                 #  INTERPRETIVE BRANCHES FINISH HERE.
000032:    6115           54155                           TS       BANKSET
000033:    6116           77745                           MASK     BIT15                                 #  GET 15TH BIT FOR INDEXABLE ADDRESSES.
000034:    6117           54105                           TS       INTBIT15
000035:
000036:    6120           54023                           TS       EDOP                                  #  MAKE SURE NO INSTRUCTIONS LEFT OVER
000037:
000038:    6121           16134                           TCF      NEWOPS                                #  PICK UP OP CODE PAIR AND BEGIN.
000039:
000040:
000041:    6122           22006        INTRSM             LXCH     BBANK                                 #  RESUME SUSPENDED INTERPRETIVE JOB
000042:    6123           16114                           TCF      INTPRET    +2
000043:


000045:                                                                                                  #           AT THE END OF MOST INSTRUCTIONS, CONTROL IS GIVEN TO DANZIG TO DISPATCH THE NEXT OPERATION.
000046:
000047:    6124           54153        NEWMODE            TS       MODE                                  #  PROLOGUE FOR MODE-CHANGING INSTRUCTIONS.
000048:
000049:    6125           30155        DANZIG             CA       BANKSET                               #  SET BBANK BEFORE TESTING NEWJOB SO THAT
000050:    6126           54006                           TS       BBANK                                 #  IT MAY BE SAVED DIRECTLY BY CHANJOB.
000051:
000052:    6127           10023        NOIBNKSW           CCS      EDOP                                  #  SEE IF AN ORDER CODE IS LEFT OVER FROM
000053:    6130           16143                           TCF      OPJUMP                                #  THE LAST PAIR RETRIEVED. IF SO, EXECUTE.
000054:                                                                                                  #  EDOP IS SET TO ZERO ON ITS RE-EDITING.
000055:
000056:    6131           10067                           CCS      NEWJOB                                #  SEE IF A JOB OF HIGHER PRIORITY IS
000057:    6132           15540                           TCF      CHANG2                                #  PRESENT, AND IF SO, CHANGE JOBS.
000058:
000059:    6133           24154                           INCR     LOC                                   #  ADVANCE THE LOCATION COUNTER.
000060:                                                                                                  #           ITRACE (1) REFERS TO "NEWOPS".
000061:    6134           50154        NEWOPS             INDEX    LOC                                   #  ENTRY TO BEGIN BY PICKING OP CODE PAIR.
000062:    6135           30000                           CA       0                                     #  MAY BE AN OPCODE PAIR OR A STORE CODE.
000063:    6136           10000                           CCS      A                                     #  TEST SIGN AND GET DABS(A).
000064:    6137           16431                           TCF      DOSTORE                               #  PROCESS STORE CODE.
000065:
000066:    6140           04736                           TC       CCSHOLE                               #  TO CATCH SOME TASK USERS OF INTERPRETER.
000067:
000068:    6141           54023                           TS       EDOP                                  #  OP CODE PAIR. LEAVE THE OTHER IN EDOP
000069:    6142           75342                           MASK     LOW7                                  #  WHERE  CCS EDOP  WILL HONOR IT NEXT.
000070:
000071:    6143           54020        OPJUMP             TS       CYR                                   #  LOWWD ENTERS HERE IF A RIGHT-HAND OP
000072:    6144           10020                           CCS      CYR                                   #  CODE IS TO BE PROCESSED. TEST PREFICES.
000073:    6145           16313                           TCF      OPJUMP2                               #  TEST SECOND PREFIX BIT.
000074:
000075:    6146           17021                           TCF      EXIT                                  #  +0 OP CODE IS EXIT.
000076:


000078:                                                                                                  #           PROCESS ADDRESSES WHICH MAY BE DIRECT, INDEXED, OR REFERENCE THE PUSHDOWN LIST.
000079:
000080:    6147           77763        ADDRESS            MASK     BIT1                                  #  SEE IF ADDRESS IS INDEXED. CYR CONTAINED
000081:    6150           10000                           CCS      A                                     #  400XX, SO BIT 1 IS NOW AS IT WAS IN CYR.
000082:    6151           16212                           TCF      INDEX                                 #  FORM INDEXED ADDRESS.
000083:
000084:    6152           50154        DIRADRES           INDEX    LOC                                   #  LOOK AHEAD TO NEXT WORD TO SEE IF
000085:    6153           40001        OCT40001           CS       1                                     #  ADDRESS IS GIVEN.
000086:    6154           10000                           CCS      A
000087:    6155           16261                           TCF      PUSHUP                                #  IF NOT.
000088:
000089:    6156           77773        NEG4               DEC      -4         B-14
000090:
000091:    6157           24154                           INCR     LOC                                   #  IF SO, TO SHOW WE PICKED UP A WORD.
000092:    6160           54106                           TS       ADDRWD
000093:


000095:                                                                                                  #           FINAL DIGESTION OF DIRECT ADDRESSES OF OP CODES WITH 01 PREFIX IS DONE HERE. IN EACH CASE, THE
000096:                                                                                                  #  REQUIRED 12-BIT SUB-ADDRESS IS LEFT IN ADDRWD, WITH ANY REQUIRED E OR F BANK SWITCHING DONE. ADDRESSES LESS
000097:                                                                                                  #  THAN 45D ARE TAKEN TO BE RELATIVE TO THE WORK AREA. THE OP CODE IS NOW IN BITS 1-5 OF CYR WITH BIT 14 = 1.
000098:
000099:
000100:    6161           66315                           AD       -ENDVAC                               #  SEE IF ADDRESS RELATIVE TO WORK AREA.
000101:    6162           10000                           CCS      A
000102:    6163           66342                           AD       -ENDERAS                              #  IF NOT, SEE IF IN GENERAL ERASABLE.
000103:    6164           16171                           TCF      IERASTST
000104:
000105:    6165           30110        NETZERO            CA       FIXLOC                                #  IF SO, LEAVE THE MODIFIED ADDRESS IN
000106:    6166           26106                           ADS      ADDRWD                                #  ADDRWD AND DISPATCH.
000107:    6167           50020        ITR15              INDEX    CYR                                   #  THIS INDEX MAKES THE NEXT INSTRUCTION
000108:    6170           76342                           7        INDJUMP    -1                         #  TCF INDJUMP + OP, EDITING CYR.
000109:
000110:    6171           00006        IERASTST           EXTEND
000111:    6172           66202                           BZMF     GEADDR                                #  GO PROCESS GENERAL-ERASABLE ADDRESS.
000112:
000113:    6173           75337                           MASK     LOW10                                 #  FIXED BANK ADDRESS. RESTORE AND ADD B15.
000114:    6174           65337                           AD       LOW10                                 #  SWITCH BANKS AND LEAVE SUBADDRESS IN
000115:    6175           56106                           XCH      ADDRWD                                #  ADDRWD FOR OPERAND RETRIEVAL. (THIS
000116:    6176           60105                           AD       INTBIT15                              #  METHOD PRECLUDES USE OF THE LAST
000117:    6177           54004                           TS       FBANK                                 #  LOCATION IN EACH FBANK.)
000118:    6200           50020        ITR12              INDEX    CYR
000119:    6201           76342                           7        INDJUMP    -1
000120:
000121:    6202           74564        GEADDR             MASK     LOW8
000122:    6203           65352                           AD       OCT1400
000123:    6204           56106                           XCH      ADDRWD
000124:    6205           54003                           TS       EBANK
000125:    6206           50020        ITR10              INDEX    CYR
000126:    6207           76342                           7        INDJUMP    -1
000127:


000129:                                                                                                  #           THE FOLLOWING ROUTINE PROCESSES INTERPRETIVE INDEXED ADDRESSES. AN INTERPRETER INDEX REGISTER MAY
000130:                                                                                                  #  CONTAIN THE ADDRESS OF ANY ERASABLE REGISTER (0-42 BEING RELATIVE TO THE VAC AREA) OR ANY INTERPRETIVE PROGRAM
000131:                                                                                                  #  BANK, OR ANY INTEGER IN THAT RANGE.
000132:
000133:    6210           35346        DODLOAD*           CAF      DLOAD*                                #  STODL* COMES HERE TO PROCESS LOAD ADR.
000134:    6211           54020                           TS       CYR                                   #  (STOVL* ENTERS HERE).
000135:
000136:    6212           30110        INDEX              CA       FIXLOC                                #  SET UP INDEX LOCATION.
000137:    6213           54120                           TS       INDEXLOC
000138:    6214           24154                           INCR     LOC                                   #  (ADDRESS ALWAYS GIVEN).
000139:    6215           50154                           INDEX    LOC
000140:    6216           40000                           CS       0
000141:    6217           10000                           CCS      A                                     #  INDEX 2 IF ADDRESS STORED COMPLEMENTED.
000142:    6220           24120                           INCR     INDEXLOC
000143:    6221           16222                           NOOP
000144:
000145:    6222           54106                           TS       ADDRWD                                #  14 BIT ADDRESS TO ADDRWD.
000146:    6223           75351                           MASK     HIGH4                                 #  IF ADDRESS GREATER THAN 2K, ADD INTBIT15
000147:    6224           00006                           EXTEND
000148:    6225           16230                           BZF      INDEX2
000149:    6226           30105                           CA       INTBIT15
000150:    6227           26106                           ADS      ADDRWD
000151:
000152:    6230           50120        INDEX2             INDEX    INDEXLOC
000153:    6231           40046                           CS       X1
000154:    6232           26106                           ADS      ADDRWD                                #  DO AUGMENT, IGNORING AND CORRECTING OVF.
000155:
000156:    6233           76340                           MASK     HIGH9                                 #  SEE IF ADDRESS IS IN WORK AREA.
000157:    6234           00006                           EXTEND
000158:    6235           16250                           BZF      INDWORK
000159:    6236           75351                           MASK     HIGH4                                 #  SEE IF IN FIXED BANK.
000160:    6237           00006                           EXTEND
000161:    6240           16252                           BZF      INDERASE
000162:
000163:    6241           30106                           CA       ADDRWD                                #  IN FIXED - SWITCH BANKS AND CREATE
000164:    6242           54004                           TS       FBANK                                 #  SUB-ADDRESS.
000165:    6243           75337                           MASK     LOW10
000166:    6244           67751                           AD       2K
000167:    6245           54106                           TS       ADDRWD
000168:    6246           50020        ITR11              INDEX    CYR
000169:    6247           36342                           3        INDJUMP    -1
000170:
000171:    6250           30110        INDWORK            CA       FIXLOC                                #  MAKE ADDRWD RELATIVE TO WORK AREA.
000172:    6251           16256                           TCF      ITR13      -1
000173:
000174:    6252           35352        INDERASE           CA       OCT1400
000175:    6253           56106                           XCH      ADDRWD
000176:    6254           54003                           TS       EBANK
000177:    6255           74564                           MASK     LOW8
000178:    6256           26106                 -1        ADS      ADDRWD


000180:    6257           50020        ITR13              INDEX    CYR
000181:    6260           36342                           3        INDJUMP    -1
000182:


000184:                                                                                                  #           PUSH-UP ROUTINES. WHEN NO OPERAND ADDRESS IS GIVEN, THE APPROPRIATE OPERAND IS TAKEN FROM THE PUSH-DOWN
000185:                                                                                                  #  LIST. IN MOST CASES THE MODE OF THE RESULT (VECTOR OR SCALAR) OF THE LAST ARITHMETIC OPERATION PERFORMED
000186:                                                                                                  #  IS THE SAME AS THE TYPE OF OPERAND DESIRED (ALL ADD/SUBTRACT ETC.). EXCEPTIONS TO THIS GENERAL RULE ARE LISTED
000187:                                                                                                  #  BELOW (NOTE THAT IN EVERY CASE THE MODE REGISTER IS LEFT INTACT):
000188:
000189:                                                                                                  #           1.  VXSC AND V/SC WANT THE OPPOSITE TYPE OF OPERAND, E.G., IF THE LAST OPERATION YIELDED A VECTOR
000190:                                                                                                  #  RESULT, VXSC WANTS A SCALAR.
000191:
000192:                                                                                                  #           2.  THE LOAD CODES SHOULD LOAD THE ACCUMULATOR INDEPENDENT OF THE RESULT OF THE LAST OPERATION. THIS
000193:                                                                                                  #  INCLUDES VLOAD, DLOAD, TLOAD, PDDL, AND PDVL (NO PUSHUP WITH SLOAD).
000194:
000195:                                                                                                  #           3.  SOME ARITHMETIC OPERATIONS REQUIRE A STANDARD TYPE OF OPERAND REGARDLESS OF THE PREVIOUS OPERATION.
000196:                                                                                                  #  THIS INCLUDES SIGN WANTING DP AND TAD REQUIRING TP.
000197:
000198:    6261           34565        PUSHUP             CAF      OCT23                                 #  IF THE LOW 5 BITS OF CYR ARE LESS THAN
000199:    6262           70020                           MASK     CYR                                   #  20, THIS OP REQUIRES SPECIAL ATTENTION.
000200:    6263           66266                           AD       -OCT10                                #  (NO -0).
000201:    6264           10000                           CCS      A
000202:    6265           16277                           TCF      REGUP                                 #  FOR ALL CODES GREATEER THAN OCT 7.
000203:
000204:    6266           77767        -OCT10             OCT      -10
000205:
000206:    6267           66156                           AD       NEG4                                  #  WE NOW HAVE 7 - OP CODE(MOD4). SEE IF
000207:    6270           10000                           CCS      A                                     #  THE OP CODE (MOD4) IS THREE (REVERSE).
000208:    6271           50000                           INDEX    A                                     #  NO - THE MODE IS DEFINITE. PICK UP THE
000209:    6272           46310                           CS       NO.WDS
000210:    6273           16301                           TCF      REGUP      +2
000211:
000212:    6274           50153                           INDEX    MODE                                  #  FOR VXSC AND V/SC WE WANT THE REQUIRED
000213:    6275           46306                           CS       REVCNT                                #  PUSHLOC DECREMENT WITHOUT CHANGING THE
000214:    6276           16301                           TCF      REGUP      +2                         #  MODE AT THIS TIME.
000215:
000216:    6277           50153        REGUP              INDEX    MODE                                  #  MOST ALL OP CODES PUSHUP HERE.
000217:    6300           46310                           CS       NO.WDS
000218:    6301           26156                 +2        ADS      PUSHLOC
000219:    6302           54106                           TS       ADDRWD
000220:    6303           50020        ITR14              INDEX    CYR
000221:    6304           76342                           7        INDJUMP    -1                         #  (THE INDEX MAKES THIS A TCF.)
000222:
000223:    6305           00002                           OCT      2                                     #  REVERSE PUSHUP DECREMENT. VECTOR TAKES 2
000224:    6306           00006        REVCNT             OCT      6                                     #  WORDS, SCALAR TAKES 6.
000225:    6307           00006                           OCT      6
000226:    6310           00002        NO.WDS             OCT      2                                     #  CONVENTIONAL DECREMENT IS 6 WORDS VECTOR
000227:    6311           00003        OCTAL3             OCT      3                                     #  2 IN DP, AND 3 IN TP.
000228:    6312           00006                           OCT      6
000229:


000231:                                                                                                  #            TEST THE SECOND PREFIX BIT TO SEE IF THIS IS A MISCELLANEOUS OR A UNARY/SHORT SHIFT OPERATION.
000232:
000233:    6313           10020        OPJUMP2            CCS      CYR                                   #  TEST SECOND PREFIX BIT.
000234:    6314           16327                           TCF      OPJUMP3                               #  TEST THIRD BIT TO SEE IF UNARY OR SHIFT
000235:
000236:    6315           77722        -ENDVAC            DEC      -45        B-14
000237:
000238:                                                                                                  #           THE FOLLOWING ROUTINE PROCESSES ADDRESSES OF SUFFIX CLASS 10. THEY ARE BASICALLY WORK AREA ADDRESSES
000239:                                                                                                  #  IN THE RANGE 0 - 52, ERASABLE ECADR CONSTANTS FROM 100 - 3777, AND FCADRS ABOVE THAT. ALL 15 BITS ARE AVAILABLE
000240:                                                                                                  #  IN CONTRAST TO SUFFIX 1, IN WHICH ONLY THE LOW ORDER 14 ARE AVAILABLE.
000241:
000242:    6316           24154        15BITADR           INCR     LOC                                   #  (ENTRY HERE FROM STCALL).
000243:    6317           50154                           INDEX    LOC                                   #  PICK UP ADDRESS WORD.
000244:    6320           30000                           CA       0
000245:    6321           54107                           TS       POLISH                                #  WE MAY NEED A SUBADDRESS LATER.
000246:
000247:    6322           36337                           CAF      LOW7+2K                               #  THESE INSTRUCTIONS ARE IN BANK 1.
000248:    6323           54004                           TS       FBANK
000249:    6324           70020                           MASK     CYR
000250:    6325           50000        ITR7               INDEX    A
000251:    6326           16403                           TCF      MISCJUMP
000252:


000254:                                                                                                  #           COMPLETE THE DISPATCHING OF UNARY AND SHORT SHIFT OPERATIONS.
000255:
000256:    6327           54004        OPJUMP3            TS       FBANK                                 #  CALL IN BANK 0 (BIT5S 11-15 OF A ARE 0.)
000257:                                                                                                  #           ITRACE (6) REFERS TO "OPJUMP3"
000258:    6330           10020                           CCS      CYR                                   #  TEST THIRD PREFIX BIT.
000259:    6331           50000                           INDEX    A                                     #  THE DECREMENTED UNARY CODE IS IN BITS
000260:    6332           12000                           TCF      UNAJUMP                               #  1-4 OF A (ZERO, EXIT, HAS BEEN DETECTED)
000261:
000262:    6333           10153                           CCS      MODE                                  #  ITS A SHORT SHIFT CODE. SEE IF PRESENT
000263:    6334           12017                           TCF      SHORTT                                #  SCALAR OR VECTOR.
000264:    6335           12017                           TCF      SHORTT
000265:    6336           12121                           TCF      SHORTV                                #  CALLS THE APPROPRIATE ROUTINE.
000266:
000267:
000268:    6337     4565               OCT23              =        VD1
000269:    6337           02177        LOW7+2K            OCT      2177                                  #  OP CODE MASK + BANK 1 FBANK SETTING.
000270:    6340           77700        HIGH9              OCT      77700
000271:    6341           76000        BANKMASK           OCT      76000                                 #  FBANK MASK.
000272:    6342     6341               FBANKMSK           EQUALS   BANKMASK
000273:    6342     5655               B12T14             =        PRIO34                                #  USED IN PROCESSING STORE CODES.
000274:    6342           74056        -ENDERAS           DEC      -2001      B-14                       #  = -(2047 - 45 - 1)
000275:


000277:                                                                                                  #           THE FOLLOWING IS THE JUMP TABLE FOR OP CODES WHICH MAY HAVE INDEXABLE ADDRESSES OR MAY PUSH UP.
000278:
000279:    6343           16563        INDJUMP            TCF      VLOAD                                 #  00 - LOAD MPAC WITH A VECTOR.
000280:    6344           17142                           TCF      TAD                                   #  01 - TRIPLE PRECISION ADD TO MPAC.
000281:    6345           17707                           TCF      SIGN                                  #  02 - COMPLEMENT MPAC (V OR SC) IF X NEG.
000282:    6346           17460                           TCF      VXSC                                  #  03 - VECTOR TIMES SCALAR.
000283:    6347           16761                           TCF      CGOTO                                 #  04 - COMPUTED GO TO.
000284:    6350           16546                           TCF      TLOAD                                 #  05 - LOAD MPAC WITH TRIPLE PRECISION.
000285:    6351           16537                           TCF      DLOAD                                 #  06 - LOAD MPAC WITH A DP SCALAR.
000286:    6352           17656                           TCF      V/SC                                  #  07 - VECTOR DIVIDED BY SCALAR.
000287:
000288:    6353           16557                           TCF      SLOAD                                 #  10 - LOAD MPAC IN SINGLE PRECISION.
000289:    6354           16676                           TCF      SSP                                   #  11 - SET SINGLE PRECISION INTO X.
000290:    6355           16601                           TCF      PDDL                                  #  12 - PUSH DOWN MPAC AND RE-LOAD IN DP.
000291:    6356           17413                           TCF      MXV                                   #  13 - MATRIX POST-MULTIPLIED BY VECTOR.
000292:    6357           16635                           TCF      PDVL                                  #  14 - PUSH DOWN AND VECTOR LOAD.
000293:    6360           16704                           TCF      CCALL                                 #  15 - COMPUTED CALL.
000294:    6361           17416                           TCF      VXM                                   #  16 - MATRIX PRE-MULTIPLIED BY VECTOR.
000295:    6362           17650                           TCF      TSLC                                  #  17 - NORMALIZE MPAC (SCALAR ONLY).
000296:
000297:    6363           17626                           TCF      DMPR                                  #  20 - DP MULTIPLY AND ROUND.
000298:    6364           17631                           TCF      DDV                                   #  21 - DP DIVIDE BY.
000299:    6365           17635                           TCF      BDDV                                  #  22 - DP DIVIDE INTO.
000300:    6366           17653                           TCF      GSHIFT                                #  23 - GENERAL SHIFT INSTRUCTION.
000301:    6367           17025                           TCF      VAD                                   #  24 - VECTOR ADD.
000302:    6370           17053                           TCF      VSU                                   #  25 - VECTOR SUBTRACT.
000303:    6371           17103                           TCF      BVSU                                  #  26 - VECTOR SUBTRACT FROM.
000304:    6372           17410                           TCF      DOT                                   #  27 - VECTOR DOT PRODUCT.
000305:
000306:    6373           17540                           TCF      VXV                                   #  30 - VECTOR CROSS PRODUCT.
000307:    6374           17504                           TCF      VPROJ                                 #  31 - VECTOR PROJECTION.
000308:    6375           17071                           TCF      DSU                                   #  32 - DP SUBTRACT.
000309:    6376           17127                           TCF      BDSU                                  #  33 - DP SUBTRACT FROM.
000310:    6377           17043                           TCF      DAD                                   #  34 - DP ADD.
000311:    6400           16400                           TCF      +0                                    #  35 - AVAILABLE
000312:    6401           17624                           TCF      DMP1                                  #  36 - DP MULTIPLY.
000313:    6402           17645                           TCF      SETPD                                 #  37 - SET PUSH DOWN POINTER (DIRECT ONLY)
000314:
000315:                                                                                                  #  CODES 10 AND 14 MUST NOT PUSH UP. CODE 04 MAY BE USED FOR VECTOR DECLARE BEFORE PUSHUP IF DESIRED.
000316:


000318:                                                                                                  #           THE FOLLOWING JUMP TABLE APPLIES TO INDEX, BRANCH, AND MISCELLANEOUS INSTRUCTIONS.
000319:
000320:    6403           12626        MISCJUMP           TCF      AXT                                   #  00 - ADDRESS TO INDEX TRUE.
000321:    6404           12633                           TCF      AXC                                   #  01 - ADDRESS TO INDEX COMPLEMENTED.
000322:    6405           12636                           TCF      LXA                                   #  02 - LOAD INDEX FROM ERASABLE.
000323:    6406           12642                           TCF      LXC                                   #  03 - LOAD INDEX FROM COMPLEMENT OF ERAS.
000324:    6407           12646                           TCF      SXA                                   #  04 - STORE INDEX IN ERASABLE.
000325:    6410           12654                           TCF      XCHX                                  #  05 - EXCHANGE INDEX WITH ERASABLE.
000326:    6411           12670                           TCF      INCR                                  #  06 - INCREMENT INDEX REGISTER.
000327:    6412           12677                           TCF      TIX                                   #  07 - TRANSFER ON INDEX.
000328:
000329:    6413           12662                           TCF      XAD                                   #  10 - INDEX REGISTER ADD FROM ERASABLE.
000330:    6414           12673                           TCF      XSU                                   #  11 - INDEX SUBTRACT FROM ERASABLE.
000331:    6415           12751                           TCF      BZE/GOTO                              #  12 - BRANCH ZERO AND GOTO.
000332:    6416           12756                           TCF      BPL/BMN                               #  13 - BRANCH PLUS AND BRANCH MINUS.
000333:    6417           12731                           TCF      RTB/BHIZ                              #  14 - RETURN TO BASIC AND BRANCH HI ZERO.
000334:    6420           12771                           TCF      CALL/ITA                              #  15 - CALL AND STORE QPRET.
000335:    6421           13000                           TCF      SW/                                   #  16 - SWITCH INSTRUCTIONS AND AVAILABLE.
000336:    6422           12741                           TCF      BOV(B)                                #  17 - BRANCH ON OVERFLOW TO BASIC OR INT.
000337:


000339:                                                                                                  #           THE FOLLOWING JUMP TABLE APPLIES TO UNARY INSTRUCTIONS.
000340:
000341: 00,2000                                           BANK     0                                     #  00 - EXIT - DETECTED EARLIER.
000342: 00,2000           13167        UNAJUMP            TCF      SQRT                                  #  01 - SQUARE ROOT.
000343: 00,2001           13511                           TCF      SINE                                  #  02 - SIN.
000344: 00,2002           13500                           TCF      COSINE                                #  03 - COS.
000345: 00,2003           13571                           TCF      ARCSIN                                #  04 - ARC SIN.
000346: 00,2004           13573                           TCF      ARCCOS                                #  05 - ARC COS.
000347: 00,2005           13154                           TCF      DSQ                                   #  06 - DP SQUARE.
000348: 00,2006           12116                           TCF      ROUND                                 #  07 - ROUND TO DP.
000349:
000350: 00,2007           17722                           TCF      COMP                                  #  10 - COMPLEMENT VECTOR OR SCALAR.
000351: 00,2010           13212                           TCF      VDEF                                  #  11 - VECTOR DEFINE.
000352: 00,2011           13002                           TCF      UNIT                                  #  12 - UNIT VECTOR.
000353: 00,2012           13156                           TCF      ABVALABS                              #  13 - LENGTH OF VECTOR OR MAG OF SCALAR.
000354: 00,2013           13226                           TCF      VSQ                                   #  14 - SQUARE OF LENGTH OF VECTOR.
000355: 00,2014           16423                           TCF      STADR                                 #  15 - PUSH UP ON STORE CODE.
000356: 00,2015           13256                           TCF      RVQ                                   #  16 - RETURN VIA QPRET.
000357: 00,2016           13231                           TCF      PUSH                                  #  17 - PUSH MPAC DOWN.
000358:


000360:                                                                                                  #  SECTION 2  LOAD AND STORE PACKAGE.
000361:
000362:                                                                                                  #           A SET OF EIGHT STORE CODES IS PROVIDED AS THE PRIMARY METHOD OF STORING THE MULTI-PURPOSE
000363:                                                                                                  #  ACCUMULATOR (MPAC). IF IN THE DANZIG SECTION LOC REFERS TO AN ALGEBRAICALLY POSITIVE WORD, IT IS TAKEN AS A
000364:                                                                                                  #  STORE CODE WITH A CORRESPONDING ERASABLE ADDRESS. MOST OF THESE CODES ARE TWO ADDRESS, SPECIFYING THAT THE WORD
000365:                                                                                                  #  FOLLOWING THE STORE CODE IS TO BE USED AS AN ADDRESS FROM WHICH TO RE-LOAD MPAC. FOUR OPTIONS ARE AVAILABLE:
000366:
000367:                                                                                                  #           1. STORE               STORE MPAC. THE E ADDRESS MAY BE INDEXED.
000368:                                                                                                  #           2. STODL               STORE MPAC AND RE-LOAD IT IN DP WITH THE NEXT ADDRESS (THE LOAD MAY BE INDEXED).
000369:                                                                                                  #           3. STOVL               STORE MPAC AND RE-LOAD A VECTOR (AS ABOVE).
000370:                                                                                                  #           4. STCALL              STORE AND DO A CALL (BOTH ADDRESES MUST BE DIRECT HERE).
000371:
000372:                                                                                                  #           STODL AND STOVL WILL TAKE FROM THE PUSH-DOWN LIST IF NO LOAD ADDRESS IS GIVEN.
000373:
000374:    6423                                           BLOCK    3
000375:
000376:    6423           30155        STADR              CA       BANKSET                               #  THE STADR CODE (PUSHUP UP ON STORE
000377:    6424           54004                           TS       FBANK                                 #  ADDRESS) ENTERS HERE.
000378:    6425           24154                           INCR     LOC
000379:    6426           50154        ITR1               INDEX    LOC                                   #  THE STORECODE WAS STORED COMPLEMENTED TO
000380:    6427           40000                           CS       0                                     #  MAKE IT LOOK LIKE AN OPCODE PAIR.
000381:    6430           67771                           AD       NEGONE                                #  (YUL CAN'T REMOVE 1 BECAUSE OF EARLY CCS)
000382:
000383:    6431           54106        DOSTORE            TS       ADDRWD
000384:    6432           74563                           MASK     LOW11                                 #  ENTRY FROM DISPATCHER. SAVE THE ERASABLE
000385:    6433           56106                           XCH      ADDRWD                                #  ADDRESS AND JUMP ON THE STORE CODE NO.
000386:    6434           75655                           MASK     B12T14
000387:    6435           00006                           EXTEND
000388:    6436           77757                           MP       BIT5                                  #  EACH TRANSFER VECTOR ENTRY IS TWO WORDS.
000389:    6437           50000        ITR0               INDEX    A
000390:    6440           16441                           TCF      STORJUMP
000391:


000393:                                                                                                  #           STORE CODE JUMP TABLE. CALLS THE APPROPRIATE STORING ROUTINE AND EXITS TO DANZIG OR TO ADDRESS WITH
000394:                                                                                                  #  A SUPPLIED OPERATION CODE.
000395:
000396:    6441           06471        STORJUMP           TC       STORE                                 #  STORE.
000397:    6442           16133                           TCF      NEWOPS     -1                         #  PICK UP NEW OP CODE(S).
000398:    6443           06463                           TC       STORE,1
000399:    6444           16133                           TCF      NEWOPS     -1
000400:    6445           06466                           TC       STORE,2
000401:    6446           16133                           TCF      NEWOPS     -1
000402:
000403:    6447           06471                           TC       STORE                                 #  STODL.
000404:    6450           16527                           TCF      DODLOAD
000405:
000406:    6451           06471                           TC       STORE                                 #  STODL WITH INDEXED LOAD ADDRESS.
000407:    6452           16210                           TCF      DODLOAD*
000408:
000409:    6453           06471                           TC       STORE                                 #  STOVL.
000410:    6454           16532                           TCF      DOVLOAD
000411:
000412:    6455           06471                           TC       STORE                                 #  STOVL WITH INDEXED LOAD ADDRESS.
000413:    6456           16535                           TCF      DOVLOAD*
000414:    6457           06471                           TC       STORE                                 #  STOTC.
000415:    6460           35344                           CAF      CALLCODE
000416:    6461           54020                           TS       CYR
000417:    6462           16316                           TCF      15BITADR                              #  GET A 15 BIT ADDRESS.
000418:


000420:                                                                                                  #           STORE CODE ADDRESS PROCESSOR.
000421:
000422:    6463           50110        STORE,1            INDEX    FIXLOC
000423:    6464           40046                           CS       X1
000424:    6465           16470                           TCF      PRESTORE
000425:
000426:    6466           50110        STORE,2            INDEX    FIXLOC
000427:    6467           40047                           CS       X2
000428:    6470           26106        PRESTORE           ADS      ADDRWD                                #  RESULTANT ADDRESS IS IN ERASABLE.
000429:
000430:    6471           40106        STORE              CS       ADDRWD
000431:    6472           65353                           AD       DEC45
000432:    6473           10000                           CCS      A                                     #  DOES THE ADDRESS POINT TO THE WORK AREA?
000433:    6474           30110                           CA       FIXLOC                                #  YES.
000434:    6475           16502                           TCF      AHEAD5
000435:    6476           35352                           CA       OCT1400                               #  NO.  SET EBANK & MAKE UP SUBADDRESS.
000436:    6477           56106                           XCH      ADDRWD
000437:    6500           54003                           TS       EBANK
000438:    6501           74564                           MASK     LOW8
000439:    6502           26106        AHEAD5             ADS      ADDRWD
000440:


000442:                                                                                                  #           STORING ROUTINES. STORE DP, TP, OR VECTOR AS INDICATED BY MODE.
000443:
000444:    6503           00006        STARTSTO           EXTEND                                         #  MPAC,+1 MUST BE STORED IN ANY EVENT.
000445:                                                                                                  #           ITRACE (5) REFERS TO "STARTSTO".
000446:    6504           30145                           DCA      MPAC
000447:    6505           50106                           INDEX    ADDRWD
000448:    6506           52001                           DXCH     0
000449:
000450:    6507           10153                           CCS      MODE
000451:    6510           16523                           TCF      TSTORE
000452:    6511           00002                           TC       Q
000453:
000454:    6512           00006        VSTORE             EXTEND
000455:    6513           30150                           DCA      MPAC       +3
000456:    6514           50106                           INDEX    ADDRWD
000457:    6515           52003                           DXCH     2
000458:
000459:    6516           00006                           EXTEND
000460:    6517           30152                           DCA      MPAC       +5
000461:    6520           50106                           INDEX    ADDRWD
000462:    6521           52005                           DXCH     4
000463:    6522           00002                           TC       Q
000464:
000465:    6523           30146        TSTORE             CA       MPAC       +2
000466:    6524           50106                           INDEX    ADDRWD
000467:    6525           54002                           TS       2
000468:    6526           00002                           TC       Q
000469:


000471:                                                                                                  #           ROUTINES TO BEGIN PROCESSING OF THE SECOND ADDRESS ASSOCIATED WITH ALL STORE-TYPE CODES EXCEPT STORE
000472:                                                                                                  #  ITSELF.
000473:
000474:    6527           35345        DODLOAD            CAF      DLOADCOD
000475:    6530           54020                           TS       CYR
000476:    6531           16152                           TCF      DIRADRES                              #  GO GET A DIRECT ADDRESS.
000477:
000478:    6532           37745        DOVLOAD            CAF      VLOADCOD
000479:    6533           54020                           TS       CYR
000480:    6534           16152                           TCF      DIRADRES
000481:
000482:    6535           36153        DOVLOAD*           CAF      VLOAD*
000483:    6536           16211                           TCF      DODLOAD*   +1                         #  PROLOGUE TO INDEX ROUTINE.
000484:


000486:                                                                                                  #           THE FOLLOWING LOAD INSTRUCTIONS ARE PROVIDED FOR LOADING THE MULTI-PURPOSE ACCUMULATOR MPAC.
000487:
000488:    6537           00006        DLOAD              EXTEND
000489:    6540           50106                           INDEX    ADDRWD
000490:    6541           30001                           DCA      0                                     #  PICK UP DP ARGUMENT AND LEAVE IT IN
000491:    6542           52145        SLOAD2             DXCH     MPAC                                  #  MPAC,+1, SETTING MPAC +2 TO ZERO. THE
000492:    6543           37767                           CAF      ZERO                                  #  CONTENTS OF THE OTHER FOUR REGISTERS OF
000493:    6544           54146                           TS       MPAC       +2                         #  MPAC ARE IRRELEVANT.
000494:    6545           16124                           TCF      NEWMODE                               #  DECLARE DOUBLE PRECISION MODE.
000495:
000496:    6546           50106        TLOAD              INDEX    ADDRWD
000497:    6547           30002                           CA       2                                     #  LOAD A TRIPLE PRECISION ARGUMENT INTO
000498:    6550           54146                           TS       MPAC       +2                         #  THE FIRST THREE MPAC REGISTERS, WITH THE
000499:    6551           00006                           EXTEND                                         #  CONTENTS OF THE OTHER FOUR IRRELEVANT.
000500:    6552           50106                           INDEX    ADDRWD
000501:    6553           30001                           DCA      0
000502:    6554           52145                           DXCH     MPAC
000503:    6555           37763                           CAF      ONE
000504:    6556           16124                           TCF      NEWMODE                               #  DECLARE TRIPLE PRECISION MODE.
000505:
000506:    6557           22007        SLOAD              ZL                                             #  LOAD A SINGLE PRECISION NUMBER INTO
000507:    6560           50106                           INDEX    ADDRWD                                #  MPAC, SETTING MPAC+1,2 TO ZERO. THE
000508:    6561           30000                           CA       0                                     #  CONTENTS OF THE REMAINING MPAC REGISTERS
000509:    6562           16542                           TCF      SLOAD2                                #  ARE IRRELEVANT.
000510:
000511:    6563           00006        VLOAD              EXTEND                                         #  LOAD A DOUBLE PRECISION VECTOR INTO
000512:    6564           50106                           INDEX    ADDRWD                                #  MPAC,+1, MPAC+3,4, AND MPAC+5,6. THE
000513:    6565           30001                           DCA      0                                     #  CONTENTS OF MPAC +2 ARE IRRELEVANT.
000514:    6566           52145                           DXCH     MPAC
000515:
000516:    6567           00006        ENDVLOAD           EXTEND                                         #  PDVL COMES HERE TO FINISH UP FOR DP, TP.
000517:    6570           50106                           INDEX    ADDRWD
000518:    6571           30003                           DCA      2
000519:    6572           52150                           DXCH     MPAC       +3
000520:
000521:    6573           00006                 +4        EXTEND                                         #  TPDVL FINISHES HERE.
000522:    6574           50106                           INDEX    ADDRWD
000523:    6575           30005                           DCA      4
000524:    6576           52152                           DXCH     MPAC       +5
000525:
000526:    6577           47763                           CS       ONE                                   #  DECLARE VECTOR MODE.
000527:    6600           16124                           TCF      NEWMODE
000528:


000530:                                                                                                  #           THE FOLLOWING INSTRUCTIONS ARE PROVIDED FOR STORING OPERANDS IN THE PUSHDOWN LIST:
000531:
000532:                                                                                                  #           1.  PUSH               PUSHDOWN AND NO LOAD.
000533:                                                                                                  #           2.  PDDL               PUSHDOWN AND DOUBLE PRECISION LOAD.
000534:                                                                                                  #           3.  PDVL               PUSHDOWN AND VECTOR LOAD.
000535:
000536:    6601           00006        PDDL               EXTEND
000537:    6602           50106                           INDEX    ADDRWD                                #  LOAD MPAC,+1, PUSHING THE FORMER
000538:    6603           30001                           DCA      0                                     #  CONTENTS DOWN.
000539:    6604           52145                           DXCH     MPAC
000540:    6605           50156                           INDEX    PUSHLOC
000541:    6606           52001                           DXCH     0
000542:
000543:    6607           50153                           INDEX    MODE                                  #  ADVANCE THE PUSHDOWN POINTER APPRO-
000544:    6610           36310                           CAF      NO.WDS                                #  PRIATELY.
000545:    6611           26156                           ADS      PUSHLOC
000546:
000547:    6612           10153                           CCS      MODE
000548:    6613           16630                           TCF      ENDTPUSH
000549:    6614           16626                           TCF      ENDDPUSH
000550:
000551:    6615           54153                           TS       MODE                                  #  NOW DP.
000552:    6616           54146        ENDVPUSH           TS       MPAC       +2
000553:    6617           52150                           DXCH     MPAC       +3                         #  PUSH DOWN THE REST OF THE VECTOR HERE.
000554:    6620           50156                           INDEX    PUSHLOC
000555:    6621           51775                           DXCH     0          -4
000556:
000557:    6622           52152                           DXCH     MPAC       +5
000558:    6623           50156                           INDEX    PUSHLOC
000559:    6624           51777                           DXCH     0          -2
000560:
000561:    6625           16125                           TCF      DANZIG
000562:
000563:    6626           54146        ENDDPUSH           TS       MPAC       +2                         #  SET MPAC +2 TO ZERO AND EXIT ON DP.
000564:    6627           16125                           TCF      DANZIG
000565:
000566:    6630           54153        ENDTPUSH           TS       MODE
000567:    6631           56146                           XCH      MPAC       +2                         #  ON TRIPLE, SET MPAC +2 TO ZERO, PUSHING
000568:    6632           50156                 +2        INDEX    PUSHLOC                               #  DOWN THE OLD CONTENTS
000569:    6633           53777                           TS       0          -1
000570:    6634           16125                           TCF      DANZIG
000571:


000573:                                                                                                  #           PDVL - PUSHDOWN AND VECTOR LOAD.
000574:
000575:    6635           00006        PDVL               EXTEND                                         #  RELOAD MPAC AND PUSH DOWN ITS CONTENTS.
000576:    6636           50106                           INDEX    ADDRWD
000577:    6637           30001                           DCA      0
000578:    6640           52145                           DXCH     MPAC
000579:    6641           50156                           INDEX    PUSHLOC
000580:    6642           52001                           DXCH     0
000581:
000582:    6643           50153                           INDEX    MODE                                  #  ADVANCE THE PUSHDOWN POINTER.
000583:    6644           36310                           CAF      NO.WDS
000584:    6645           26156                           ADS      PUSHLOC
000585:
000586:    6646           10153                           CCS      MODE                                  #  TEST PAST MODE.
000587:    6647           16666                           TCF      TPDVL
000588:    6650           16567                           TCF      ENDVLOAD                              #  JUST LOAD LAST FOUR REGISTERS ON DP.
000589:
000590:    6651           00006        VPDVL              EXTEND                                         #  PUSHDOWN AND RE-LOAD LAST TWO COMPONENTS
000591:    6652           50106                           INDEX    ADDRWD
000592:    6653           30003                           DCA      2
000593:    6654           52150                           DXCH     MPAC       +3
000594:    6655           50156                           INDEX    PUSHLOC
000595:    6656           51775                           DXCH     0          -4
000596:
000597:    6657           00006                           EXTEND
000598:    6660           50106                           INDEX    ADDRWD
000599:    6661           30005                           DCA      4
000600:    6662           52152                           DXCH     MPAC       +5
000601:    6663           50156                           INDEX    PUSHLOC
000602:    6664           51777                           DXCH     0          -2
000603:
000604:    6665           16125                           TCF      DANZIG
000605:
000606:    6666           00006        TPDVL              EXTEND                                         #  ON TP, WE MUST LOAD THE Y COMPONENT
000607:    6667           50106                           INDEX    ADDRWD                                #  BEFORE STORING MPAC +2 INCASE THIS IS A
000608:    6670           30003                           DCA      2                                     #  PUSHUP.
000609:    6671           52150                           DXCH     MPAC       +3
000610:
000611:    6672           30146                           CA       MPAC       +2
000612:    6673           50156                           INDEX    PUSHLOC                               #  IN DP.
000613:    6674           53777                           TS       0          -1
000614:    6675           16573                           TCF      ENDVLOAD   +4
000615:
000616:                                                                                                  #           SSP (STORE SINGLE PRECISION) IS EXECUTED HERE.
000617:
000618:    6676           24154        SSP                INCR     LOC                                   #  PICK UP THE WORD FOLLOWING THE GIVEN
000619:    6677           50154                           INDEX    LOC                                   #  ADDRESS AND STORE IT AT X.
000620:    6700           30000                           CA       0
000621:    6701           50106        STORE1             INDEX    ADDRWD                                #  SOME INDEX AND MISCELLANEOUS OPS END
000622:    6702           54000                           TS       0                                     #  HERE.


000624:    6703           16125                           TCF      DANZIG
000625:


000627:                                                                                                  #  SEQUENCE CHANGING AND SUBROUTINE CALLING OPTIONS.
000628:
000629:                                                                                                  #           THE FOLLOWING OPERATIONS ARE AVAILABLE FOR SEQUENCING CHANGING, BRANCHING, AND CALLING SUBROUTINES:
000630:
000631:                                                                                                  #           1.  GOTO               GO TO.
000632:                                                                                                  #           2.  CALL               CALL SUBROUTINE SETTING QPRET.
000633:                                                                                                  #           3.  CGOTO              COMPUTED GO TO.
000634:                                                                                                  #           4.  CCALL              COMPUTED CALL.
000635:                                                                                                  #           7.  BPL                BRANCH IF MPAC POSITIVE OR ZERO.
000636:                                                                                                  #           8.  BZE                BRANCH IF MPAC ZERO.
000637:                                                                                                  #           9.  BMN                BRANCH IF MPAC NEGATIVE NON-ZERO.
000638:
000639:    6704           24154        CCALL              INCR     LOC                                   #  MAINTAIN LOC FOR QPRET COMPUTATION.
000640:    6705           50154                           INDEX    LOC
000641:    6706           30000                           CAF      0                                     #  GET BASE ADDRESS OF CADR LIST.
000642:    6707           50106                           INDEX    ADDRWD
000643:    6710           60000                           AD       0                                     #  ADD INCREMENT.
000644:    6711           54004                           TS       FBANK                                 #  SELECT DESIRED CADR.
000645:    6712           75337                           MASK     LOW10
000646:    6713           50000                           INDEX    A
000647:    6714           32000                           CAF      10000
000648:    6715           54107                           TS       POLISH
000649:
000650:    6716           30155        CALL               CA       BANKSET                               #  FOR ANY OF THE CALL OPTIONS, MAKE UP THE
000651:    6717           76341                           MASK     BANKMASK                              #  ADDRESS OF THE NEXT OP-CODE PAIR/STORE
000652:    6720           66341                           AD       BANKMASK                              #  CODE AND LEAVE IT IN QPRET.  NOTE THAT
000653:    6721           60154                           AD       LOC                                   #  BANKMASK = -(2000 - 1).
000654:    6722           50110                           INDEX    FIXLOC
000655:    6723           54052                           TS       QPRET
000656:
000657:    6724           30107        GOTO               CA       POLISH                                #  BASIC BRANCHING SEQUENCE.
000658:    6725           75351                 +1        MASK     HIGH4
000659:    6726           00006                           EXTEND
000660:    6727           16740                           BZF      GOTOERS                               #  SEE IF ADDRESS POINTS TO FIXED OR ERAS.
000661:    6730           30155                 +4        CA       BANKSET                               #  SET EBANK PART OF BBANK. NEXT, SET UP
000662:    6731           54006                           TS       BBANK                                 #  FBANK. THE COMBINATION IS PICKED UP &
000663:    6732           30107                           CA       POLISH                                #  PUT INTO BANKSET AT INTPRET +2.
000664:    6733           54004                           TS       FBANK
000665:    6734           75337                           MASK     LOW10
000666:    6735           67751                           AD       2K
000667:    6736           54154                           TS       LOC
000668:    6737           16114                           TCF      INTPRET    +2
000669:


000671:    6740  E3,1400                                  EBANK=   1400                                  #  SO YUL DOESN'T CUSS THE "CA 1400" BELOW.
000672:
000673:    6740           30107        GOTOERS            CA       POLISH                                #  THE GIVEN ADDRESS IS IN ERASABLE - SEE
000674:    6741           66315                           AD       -ENDVAC                               #  IF RELATIVE TO THE WORK ARA.
000675:    6742           10000                           CCS      A
000676:    6743           30107                           CA       POLISH                                #  GENERAL ERASABLE.
000677:    6744           16753                           TCF      GOTOGE
000678:
000679:    6745           30110                           CA       FIXLOC                                #  WORK AREA.
000680:    6746           60107                           AD       POLISH
000681:    6747           50000                           INDEX    A                                     #  USE THE GIVEN ADDRESS AS THE ADDRESS OF
000682:    6750           30000                           CA       0                                     #  THE BRANCH ADDRESS.
000683:    6751           54107                           TS       POLISH
000684:    6752           16725                           TCF      GOTO       +1                         #  ALLOWS ARBITRARY INDIRECTNESS LEVELS.
000685:
000686:    6753           54003        GOTOGE             TS       EBANK
000687:    6754           74564                           MASK     LOW8
000688:    6755           50000                           INDEX    A                                     #  USE THE GIVEN ADDRESS AS THE ADDRESS OF
000689:    6756           31400                           CA       1400                                  #  THE BRANCH ADDRESS.
000690:    6757           54107                           TS       POLISH
000691:    6760           16725                           TCF      GOTO       +1
000692:
000693:    6761           50154        CGOTO              INDEX    LOC                                   #  COMPUTED GO TO. PICK UP ADDRESS OF CADR
000694:    6762           30001                           CA       1                                     #  LIST.
000695:    6763           50106                           INDEX    ADDRWD                                #  ADD MODIFIER.
000696:    6764           60000                           AD       0
000697:    6765           54004                           TS       FBANK                                 #  SELECT GOTO ADDRESS.
000698:    6766           75337                           MASK     LOW10
000699:    6767           50000                           INDEX    A
000700:    6770           32000                           CA       10000
000701:    6771           54107                           TS       POLISH
000702:    6772           16725                           TCF      GOTO       +1                         #  WITH ADDRESS IN A.
000703:
000704:    6773           30155        SWBRANCH           CA       BANKSET                               #  SWITCH INSTRUCTIONS WHICH ELECT TO
000705:    6774           54004                           TS       FBANK                                 #  BRANCH COME HERE TO DO SO.
000706:    6775           50154                           INDEX    LOC
000707:    6776           30001                           CA       1
000708:    6777           54107                           TS       POLISH
000709:    7000           16725                           TCF      GOTO       +1
000710:


000712:                                                                                                  #           TRIPLE PRECISION BRANCHING ROUTINE. IF CALLING TC IS AT L, RETURN IS AS FOLLOWS:
000713:
000714:                                                                                                  #           L+1  IF MPAC IS GREATER THAN ZERO.
000715:                                                                                                  #           L+2  IF MPAC IS EQUAL TO +0 OR -0.
000716:                                                                                                  #           L+3  IF MPAC IS LESS THAN ZERO.
000717:
000718:
000719:    7001           10144        BRANCH             CCS      MPAC
000720:    7002           00002                           TC       Q
000721:    7003           17005                           TCF      +2                                    #  ON ZERO.
000722:    7004           17017                           TCF      NEG
000723:
000724:    7005           10145                           CCS      MPAC       +1
000725:    7006           00002                           TC       Q
000726:    7007           17011                           TCF      +2
000727:    7010           17017                           TCF      NEG
000728:
000729:    7011           10146                           CCS      MPAC       +2
000730:    7012           00002                           TC       Q
000731:    7013           17015                           TCF      +2
000732:    7014           17017                           TCF      NEG
000733:
000734:    7015           50002        Q+1                INDEX    Q
000735:    7016           00001                           TC       1
000736:
000737:    7017           50002        NEG                INDEX    Q                                     #  IF FIRST NON-ZERO REGISTER WAS NEGATIVE.
000738:    7020           00002                           TC       2
000739:
000740:
000741:    7021     7017               Q+2                =        NEG
000742:
000743:                                                                                                  #           ITRACE (3) REFERS TO "EXIT".
000744:    7021           30155        EXIT               CA       BANKSET                               #  RESTORE USER'S BANK SETTING, AND LEAVE
000745:    7022           54006                           TS       BBANK                                 #  INTERPRETIVE MODE.
000746:    7023           50154                           INDEX    LOC
000747:    7024           00001                           TC       1
000748:


000750:                                                                                                  #  SECTION 3 - ADD/SUBTRACT PACKAGE.
000751:
000752:                                                                                                  #           THE FOLLOWING OPERATIONS ARE PROVIDED FOR ADDING TO AND SUBTRACTING FROM THE MULTI-PURPOSE ACCUMULATOR
000753:                                                                                                  #  MPAC:
000754:
000755:                                                                                                  #           1.  DAD                DOUBLE PRECISION ADD.
000756:                                                                                                  #           2.  DSU                DOUBLE PRECISION SUBTRACT.
000757:                                                                                                  #           3.  BDSU               DOUBLE PRECISION SUBTRACT FROM.
000758:
000759:                                                                                                  #           4.  TAD                TRIPLE PRECISION ADD.
000760:
000761:                                                                                                  #           5.  VAD                VECTOR ADD.
000762:                                                                                                  #           6.  VSU                VECTOR SUBTRACT.
000763:                                                                                                  #           7.  BVSU               VECTOR SUBTRACT FROM.
000764:
000765:                                                                                                  #  THE INTERPRETIVE OVERFLOW INDICATOR OVFIND IS SET NON-ZERO IF OVERFLOW OCCURS IN ANY OF THE ABOVE.
000766:
000767:
000768:    7025           00006        VAD                EXTEND
000769:    7026           50106                           INDEX    ADDRWD
000770:    7027           30003                           DCA      2
000771:    7030           20150                           DAS      MPAC       +3
000772:    7031           00006                           EXTEND                                         #  CHECK OVERFLOW.
000773:    7032           17034                           BZF      +2
000774:    7033           07101                           TC       OVERFLOW
000775:
000776:    7034           00006                           EXTEND
000777:    7035           50106                           INDEX    ADDRWD
000778:    7036           30005                           DCA      4
000779:    7037           20152                           DAS      MPAC       +5
000780:    7040           00006                           EXTEND
000781:    7041           17043                           BZF      +2
000782:    7042           07101                           TC       OVERFLOW
000783:
000784:    7043           00006        DAD                EXTEND
000785:    7044           50106                           INDEX    ADDRWD
000786:    7045           30001                           DCA      0
000787:    7046           20145        ENDVXV             DAS      MPAC                                  #  VXV FINISHES HERE.
000788:    7047           00006                           EXTEND
000789:    7050           16125                           BZF      DANZIG
000790:    7051           07101                           TC       OVERFLOW
000791:    7052           16125                           TCF      DANZIG
000792:


000794:    7053           00006        VSU                EXTEND
000795:    7054           50106                           INDEX    ADDRWD
000796:    7055           40003                           DCS      2
000797:    7056           20150                           DAS      MPAC       +3
000798:    7057           00006                           EXTEND
000799:    7060           17062                           BZF      +2
000800:    7061           07101                           TC       OVERFLOW
000801:
000802:    7062           00006                           EXTEND
000803:    7063           50106                           INDEX    ADDRWD
000804:    7064           40005                           DCS      4
000805:    7065           20152                           DAS      MPAC       +5
000806:    7066           00006                           EXTEND
000807:    7067           17071                           BZF      +2
000808:    7070           07101                           TC       OVERFLOW
000809:
000810:    7071           00006        DSU                EXTEND
000811:    7072           50106                           INDEX    ADDRWD
000812:    7073           40001                           DCS      0
000813:    7074           20145                           DAS      MPAC
000814:    7075           00006                           EXTEND
000815:    7076           16125                           BZF      DANZIG
000816:    7077           07101                           TC       OVERFLOW
000817:    7100           16125                           TCF      DANZIG
000818:
000819:    7101           37763        OVERFLOW           CAF      ONE                                   #  SUBROUTINE TO TURN OVFIND ON.
000820:    7102           17224                           TCF      SETOVF2
000821:


000823:    7103           00006        BVSU               EXTEND
000824:    7104           50106                           INDEX    ADDRWD
000825:    7105           30003                           DCA      2
000826:    7106           52150                           DXCH     MPAC       +3
000827:    7107           00006                           EXTEND
000828:    7110           40001                           DCOM
000829:    7111           20150                           DAS      MPAC       +3
000830:    7112           00006                           EXTEND
000831:    7113           17115                           BZF      +2
000832:    7114           07101                           TC       OVERFLOW
000833:
000834:    7115           00006                           EXTEND
000835:    7116           50106                           INDEX    ADDRWD
000836:    7117           30005                           DCA      4
000837:    7120           52152                           DXCH     MPAC       +5
000838:    7121           00006                           EXTEND
000839:    7122           40001                           DCOM
000840:    7123           20152                           DAS      MPAC       +5
000841:    7124           00006                           EXTEND
000842:    7125           17127                           BZF      +2
000843:    7126           07101                           TC       OVERFLOW
000844:
000845:    7127           00006        BDSU               EXTEND
000846:    7130           50106                           INDEX    ADDRWD
000847:    7131           30001                           DCA      0
000848:    7132           52145                           DXCH     MPAC
000849:    7133           00006                           EXTEND
000850:    7134           40001                           DCOM
000851:    7135           20145                           DAS      MPAC
000852:    7136           00006                           EXTEND
000853:    7137           16125                           BZF      DANZIG
000854:    7140           07101                           TC       OVERFLOW
000855:    7141           16125                           TCF      DANZIG
000856:


000858:                                                                                                  #           TRIPLE PRECISION ADD ROUTINE.
000859:
000860:    7142           00006        TAD                EXTEND
000861:    7143           50106                           INDEX    ADDRWD
000862:    7144           30002                           DCA      1                                     #  ADD MINOR PARTS FIRST.
000863:    7145           20146                           DAS      MPAC       +1
000864:    7146           50106                           INDEX    ADDRWD
000865:    7147           60000                           AD       0
000866:    7150           60144                           AD       MPAC
000867:    7151           54144                           TS       MPAC
000868:    7152           16125                           TCF      DANZIG
000869:
000870:    7153           54111        SETOVF             TS       OVFIND                                #  SET OVFIND IF SUCH OCCURS.
000871:    7154           16125                           TCF      DANZIG
000872:


000874:                                                                                                  #  ARITHMETIC SUBROUTINES REQUIRED IN FIXED-FIXED.
000875:                                                                                                  #           1.  DMPSUB     DOUBLE PRECISION MULTIPLY. MULTIPLY THE CONTENTS OF MPAC,+1 BY THE DP WORD WHOSE ADDRESS
000876:                                                                                                  #                          IS IN ADDRWD AND LEAVE A TRIPLE PRECISION RESULT IN MPAC.
000877:                                                                                                  #           2.  ROUNDSUB   ROUND THE TRIPLE PRECISION CONTENTS OF MPAC TO DOUBLE PRECISION.
000878:                                                                                                  #           3.  DOTSUB     TAKE THE DOT PRODUCT OF THE VECTOR IN MPAC AND THE VECTOR WHOSE ADDRESS IS IN ADDRWD
000879:                                                                                                  #                          AND LEAVE THE TRIPLE PRECISION RESULT IN MPAC.
000880:                                                                                                  #           4.  POLY       USING THE CONTENTS OF MPAC AS A DP ARGUMENT, EVALUATE THE POLYNOMIAL WHOSE DEGREE AND
000881:                                                                                                  #                          COEFFICIENTS IMMEDIATELY FOLLOW THE TC POLY INSTRUCTION (SEE ROUTINE FOR DETAILS.)
000882:
000883:
000884:    7155           50002        DMP                INDEX    Q                                     #  BASIC SUBROUTINE FOR USE BY PINBALL, ETC
000885:    7156           30000                           CAF      0                                     #  ADRES OF ARGUMENT FOLLOWS  TC DMP  .
000886:    7157           24002                           INCR     Q
000887:    7160           54106                 -1        TS       ADDRWD                                #  (PROLOGUE FOR SETTING ADDRWD.)
000888:
000889:    7161           50106        DMPSUB             INDEX    ADDRWD                                #  GET MINOR PART OF OPERAND AT C(ADDRWD).
000890:    7162           30001                           CA       1
000891:    7163           54146                           TS       MPAC       +2                         #  THIS WORKS FOR SQUARING MPAC AS WELL.
000892:    7164           37767                           CAF      ZERO                                  #  SET MPAC +1 TO ZERO SO WE CAN ACCUMULATE
000893:    7165           56145                           XCH      MPAC       +1                         #  THE PARTIAL PRODUCTS WITH DAS
000894:    7166           54125                           TS       MPTEMP                                #  INSTRUCTIONS.
000895:    7167           00006                           EXTEND
000896:    7170           70146                           MP       MPAC       +2                         #  MINOR OF MPAC X MINOR OF C(ADDRWD).
000897:
000898:    7171           56146                           XCH      MPAC       +2                         #  DISCARD MINOR PART OF ABOVE RESULT AND
000899:    7172           00006                           EXTEND                                         #  FORM MAJOR OF MPAC X MINOR OF C(ADDRWD).
000900:    7173           70144                           MP       MPAC
000901:    7174           20146                           DAS      MPAC       +1                         #  GUARANTEED NO OVERFLOW.
000902:
000903:    7175           50106                           INDEX    ADDRWD                                #  GET MAJOR PART OF ARGUMENT AT C(ADDRWD).
000904:    7176           30000                           CA       0
000905:    7177           56125                           XCH      MPTEMP                                #  SAVE AND BRING OUT MINOR OF MPAC.
000906:    7200           00006                           EXTEND
000907:    7201           70125                           MP       MPTEMP                                #  MAJOR OF C(ADDRWD) X MINOR OF MPAC.
000908:    7202           20146                           DAS      MPAC       +1                         #  ACCUMULATE, SETTING A TO NET OVERFLOW.
000909:
000910:    7203           56144                           XCH      MPAC                                  #  SETTING MPAC TO 0 OR +-1.
000911:    7204           00006                           EXTEND
000912:    7205           70125                           MP       MPTEMP                                #  MAJOR OF MPAC X MAJOR OF C(ADDRWD).
000913:    7206           20145                           DAS      MPAC                                  #  GUARANTEED NO OVERFLOW.
000914:    7207           00002                           TC       Q                                     #  49 MCT = .573 MS. INCLUDING RETURN.
000915:


000917:                                                                                                  #           ROUND MPAC TO DOUBLE PRECISION, SETTING OVFIND ON THE RARE EVENT OF OVERFLOW.
000918:
000919:    7210           37767        ROUNDSUB           CAF      ZERO                                  #  SET MPAC +2 = 0 FOR SCALARS AND CHANGE
000920:    7211           54153                 +1        TS       MODE                                  #  MODE TO DP.
000921:
000922:    7212           56146        VROUND             XCH      MPAC       +2                         #  BUT WE NEEDNT TAKE THE TIME FOR VECTORS.
000923:    7213           60000                           DOUBLE
000924:    7214           54001                           TS       L
000925:    7215           00002                           TC       Q
000926:
000927:    7216           60145                           AD       MPAC       +1                         #  ADD ROUDING BIT IF MPAC +2 WAS GREATER
000928:    7217           54145                           TS       MPAC       +1                         #  THAN .5 IN MAGNITUDE.
000929:    7220           00002                           TC       Q
000930:
000931:    7221           60144                           AD       MPAC                                  #  PROPAGATE INTERFLOW.
000932:    7222           54144                           TS       MPAC
000933:    7223           00002                           TC       Q
000934:
000935:    7224           54111        SETOVF2            TS       OVFIND                                #  (RARE).
000936:    7225           00002                           TC       Q
000937:


000939:                                                                                                  #           THE DOT PRODUCT SUBROUTINE USUALLY FORMS THE DOT PRODUCT OF THE VECTOR IN MPAC WITH A STANDARD SIX
000940:                                                                                                  #  REGISTER VECTOR WHOSE ADDRESS IS IN ADDRWD. IN THIS CASE C(DOTINC) ARE SET TO 2. VXM, HOWEVER, SETS C(DOTINC) TO
000941:                                                                                                  #  6 SO THAT DOTSUB DOTS MPAC WITH A COLUMN VECTOR OF THE MATRIX IN QUESTION IN THIS CASE.
000942:
000943:
000944:    7226           37762        PREDOT             CAF      TWO                                   #  PROLOGUE TO SET DOTINC TO 2.
000945:    7227           54126                           TS       DOTINC
000946:
000947:    7230           00006        DOTSUB             EXTEND
000948:    7231           22127                           QXCH     DOTRET                                #  SAVE RETURN.
000949:    7232           07161                           TC       DMPSUB                                #  DOT X COMPONENTS.
000950:    7233           52150                           DXCH     MPAC       +3                         #  POSITION Y COMPONENT OF MPAC FOR
000951:    7234           52145                           DXCH     MPAC                                  #  MULTIPLICATION WHILE SAVING RESULT IN
000952:    7235           52121                           DXCH     BUF                                   #  THREE WORD BUFFER, BUF.
000953:    7236           30146                           CA       MPAC       +2
000954:    7237           54122                           TS       BUF        +2
000955:
000956:    7240           30126                           CA       DOTINC                                #  ADVANCE ADDRWD TO Y COMPONENT OF
000957:    7241           26106                           ADS      ADDRWD                                #  OTHER ARGUMENT.
000958:    7242           07161                           TC       DMPSUB
000959:    7243           52146                           DXCH     MPAC       +1                         #  ACCUMULATE PARTIAL PRODUCTS.
000960:    7244           20122                           DAS      BUF        +1
000961:    7245           60144                           AD       MPAC
000962:    7246           60120                           AD       BUF
000963:    7247           54120                           TS       BUF
000964:    7250           17252                           TCF      +2
000965:    7251           54111                           TS       OVFIND                                #  IF OVERFLOW OCCURS.
000966:
000967:    7252           52152                           DXCH     MPAC       +5                         #  MULTIPLY Z COMPONENTS.
000968:    7253           52145                           DXCH     MPAC
000969:    7254           30126                           CA       DOTINC
000970:    7255           26106                           ADS      ADDRWD
000971:    7256           07161                           TC       DMPSUB
000972:    7257           52122        ENDDOT             DXCH     BUF        +1                         #  LEAVE FINAL ACCUMULATION IN MPAC.
000973:    7260           20146                           DAS      MPAC       +1
000974:    7261           60144                           AD       MPAC
000975:    7262           60120                           AD       BUF
000976:    7263           54144                           TS       MPAC
000977:    7264           00127                           TC       DOTRET
000978:
000979:    7265           54111                           TS       OVFIND                                #  ON OVERFLOW HERE.
000980:    7266           00127                           TC       DOTRET
000981:


000983:                                                                                                  #  DOUBLE PRECISION POLYNOMIAL EVALUATOR
000984:                                                                                                  #                                     N        N-1
000985:                                                                                                  #           THIS ROUTINE EVALUATES A X  + A   X    + ... + A X + A  LEAVING THE DP RESULT IN MPAC ON EXIT.
000986:                                                                                                  #                                   N      N-1              1     0
000987:
000988:                                                                                                  #  THE ROUTINE HAS TWO ENTRIES
000989:
000990:                                                                                                  #           1. ENTRY THRU POWRSERS. THE COEFFICIENTS MAY BE EITHER IN FIXED OR ERASABLE, THE CALL IS BY
000991:                                                                                                  #              TC POWRSERS, AND THE RETURN IS TO LOC(TC POWRSERS)+1. THE ENTERING DATA MUST BE AS FOLLOWS
000992:
000993:                                                                                                  #                                          A        SP     LOC-3           ADDRESS FOR REFERENCING COEF TABLE
000994:                                                                                                  #                                          L        SP     N-1             N IS THE DEGREE OF THE POWER SERIES
000995:                                                                                                  #                                          MPAC     DP     X               ARGUMENT
000996:
000997:                                                                                                  #                                          LOC-2N   DP     A(0)
000998:                                                                                                  #                                                   ...
000999:                                                                                                  #                                          LOC      DP     A(N)
001000:
001001:                                                                                                  #           2. ENTRY THRU POLY. THE CALL TO POLY AND THE ENTERING DATA MUST BE AS FOLLOWS
001002:
001003:                                                                                                  #                                          MPAC     DP     X               ARGUMENT
001004:
001005:                                                                                                  #                                          LOC      TC     POLY
001006:                                                                                                  #                                          LOC+1    SP     N-1
001007:                                                                                                  #                                          LOC+2    DP     A(0)
001008:                                                                                                  #                                                   ...
001009:                                                                                                  #                                          LOC+2N+2 DP     A(N)            RETURN IS TO LOC+2N+4
001010:
001011:    7267           00006        POWRSERS           EXTEND
001012:    7270           22131                           QXCH     POLYRET                               #  RETURN ADDRESS
001013:    7271           54107                           TS       POLISH                                #  POWER SERIES ADDRESS
001014:    7272           22130                           LXCH     POLYCNT                               #  N-1 TO COUNTER
001015:    7273           17304                           TCF      POLYCOM                               #  SKIP SET UP BY POLY
001016:
001017:    7274           50002        POLY               INDEX    Q
001018:    7275           30000                           CAF      0
001019:    7276           54130                           TS       POLYCNT                               #  N-1 TO COUNTER
001020:    7277           60000                           DOUBLE
001021:    7300           60002                           AD       Q
001022:    7301           54107                           TS       POLISH                                #  L(A(N))-3 TO POLISH
001023:    7302           67766                           AD       FIVE
001024:    7303           54131                           TS       POLYRET                               #  STORE RETURN ADDRESS
001025:
001026:    7304           35347        POLYCOM            CAF      LVBUF                                 #  INCOMING X WILL BE MOVED TO VBUF, SO
001027:    7305           54106                           TS       ADDRWD                                #  SET ADDRWD SO DMPSUB WILL MPY BY VBUF.
001028:
001029:    7306           00006                           EXTEND
001030:    7307           50107                           INDEX    POLISH
001031:    7310           30004                           DCA      3
001032:


001034:    7311           52145                           DXCH     MPAC                                  #  LOAD A(N) INTO MPAC,
001035:    7312           52113                           DXCH     VBUF                                  #  SAVING X IN VBUF
001036:    7313           17317                           TCF      POLY2
001037:
001038:    7314           54130        POLYLOOP           TS       POLYCNT                               #  SAVE DECREMENTD LOOP COUNTER
001039:    7315           47762                           CS       TWO
001040:    7316           26107                           ADS      POLISH                                #  REGRESS COEFFICIENT POINTER
001041:
001042:    7317           07161        POLY2              TC       DMPSUB                                #  MULTIPLY BY X
001043:    7320           00006                           EXTEND
001044:    7321           50107                           INDEX    POLISH
001045:    7322           30002                           DCA      1                                     #  ADD IN NEXT COEFFICIENT
001046:    7323           20145                           DAS      MPAC                                  #  USERS RESPONSIBILITY TO ASSURE NO OVFLOW
001047:
001048:    7324           10130                           CCS      POLYCNT
001049:    7325           17314                           TCF      POLYLOOP
001050:    7326           00131                           TC       POLYRET                               #  RETURN CALLER
001051:


001053:                                                                                                  #           MISCELLANEOUS MULTI-PRECISION ROUTINES REQUIRED IN FIXED-FIXED BUT NOT USED BY THE INTERPRETER.
001054:
001055:    7327           22002        TPAGREE            LXCH     Q                                     #  FORCE SIGN AGREEMENT AMONG THE TRIPLE
001056:    7330           07001                           TC       BRANCH                                #  PRECISION CONTENTS OF MPAC.  RETURNING
001057:    7331           17335                           TCF      ARG+                                  #  WITH SIGNUM OF THE INPUT IN A.
001058:    7332           17355                           TCF      ARGZERO
001059:
001060:    7333           47743                           CS       POSMAX                                #  IF NEGATIVE.
001061:    7334           17336                           TCF      +2
001062:
001063:    7335           37743        ARG+               CAF      POSMAX
001064:    7336           54002                           TS       Q
001065:    7337           00006                           EXTEND
001066:    7340           24000                           AUG      A                                     #  FORMS +-1.0.
001067:    7341           60146                           AD       MPAC       +2
001068:    7342           54146                           TS       MPAC       +2
001069:    7343           37767                           CAF      ZERO
001070:    7344           60002                           AD       Q
001071:    7345           60145                           AD       MPAC       +1
001072:    7346           54145                           TS       MPAC       +1
001073:    7347           37767                           CAF      ZERO
001074:    7350           60002                           AD       Q                                     #  Q STILL HAS POSMAX OR NEGMAX IN IT.
001075:    7351           60144                           AD       MPAC
001076:    7352           54144        ARGZERO2           TS       MPAC                                  #  ALWAYS SKIPPING UNLESS ARGZERO.
001077:    7353           54145                           TS       MPAC       +1
001078:    7354           00001                           TC       L                                     #  RETURN VIA L.
001079:
001080:    7355           54146        ARGZERO            TS       MPAC       +2                         #  SET ALL THREE MPAC REGISTERS TO ZERO.
001081:    7356           17352                           TCF      ARGZERO2
001082:
001083:                                                                                                  #           SHORTMP MULTIPLIES THE TP CONTENTS OF MPAC BY THE SINGLE PRECISION NUMBER ARRIVING IN A.
001084:
001085:    7357           54125        SHORTMP            TS       MPTEMP
001086:    7360           00006                           EXTEND
001087:    7361           70146                           MP       MPAC       +2
001088:    7362           54146                           TS       MPAC       +2
001089:    7363           37767                           CAF      ZERO                                  #  SO SUBSEQUENT DAS WILL WORK.
001090:    7364           56145                           XCH      MPAC       +1
001091:    7365           00006                           EXTEND
001092:    7366           70125                           MP       MPTEMP
001093:    7367           20146                           DAS      MPAC       +1
001094:    7370           56144                           XCH      MPAC                                  #  SETTING MPAC TO 0.
001095:    7371           00006                           EXTEND
001096:    7372           70125                           MP       MPTEMP
001097:    7373           20145                           DAS      MPAC
001098:    7374           00002                           TC       Q
001099:


001101:                                                                                                  #         DMPNSUB MULTIPLIES THE DP FRACTION ARRIVING IN MPAC BY THE SP
001102:                                                                                                  #  INTEGER ARRIVING IN A.  THE DP PRODUCT DEPARTS BOTH IN MPAC AND IN
001103:                                                                                                  #  A AND L.  NOTE THAT DMPNSUB NORMALLY INCREASES THE MAGNITUDE OF THE
001104:                                                                                                  #  CONTENTS OF MPAC.  THE CUSTOMER MUST INSURE THAT B(A) X B(MPAC,MPAC+1)
001105:                                                                                                  #  AND B(A) X B(MPAC) ARE LESS THAN 1 IN MAGNITUDE, WHERE B, AS IS OBVIOUS,
001106:                                                                                                  #  INDICATES THE ARRIVING CONTENTS.
001107:
001108:    7375           54125        DMPNSUB            TS       DMPNTEMP
001109:    7376           00006                           EXTEND
001110:    7377           70145                           MP       MPAC       +1
001111:    7400           52145                           DXCH     MPAC                                  #  LOW PRODUCT TO MPAC, HIGH FACTOR TO A
001112:    7401           00006                           EXTEND
001113:    7402           70125                           MP       DMPNTEMP
001114:    7403           30001                           CA       L
001115:    7404           26144                           ADS      MPAC                                  #  COMPLETING THE PRODUCT IN MPAC
001116:    7405           00006                           EXTEND
001117:    7406           30145                           DCA      MPAC                                  #  BRINGING THE PRODUCT INTO A AND L
001118:    7407           00002                           TC       Q
001119:


001121:                                                                                                  #  MISCELLANEOUS VECTOR OPERATIONS. INCLUDED HERE ARE THE FOLLOWING:
001122:
001123:                                                                                                  #           1.  DOT                DP VECTOR DOT PRODUCT.
001124:                                                                                                  #           2.  VXV                DP VECTOR CROSS PRODUCT.
001125:                                                                                                  #           3.  VXSC               DP VECTOR TIMES SCALAR.
001126:                                                                                                  #           4.  V/SC               DP VECTOR DIVIDED BY SCALAR.
001127:                                                                                                  #           5.  VPROJ              DP VECTOR PROJECTION.  ( (MPAC.X)MPAC ).
001128:                                                                                                  #           6.  VXM                DP VECTOR POST-MULTIPLIED BY MATRIX.
001129:                                                                                                  #           7.  MXV                DP VECTOR PRE-MULTIPLIED BY MATRIX.
001130:
001131:
001132:    7410           07226        DOT                TC       PREDOT                                #  DO THE DOT PRODUCT AND EXIT, CHANGING
001133:    7411           37767                           CAF      ZERO                                  #  THE MODE TO DP SCALAR.
001134:    7412           16124                           TCF      NEWMODE
001135:
001136:
001137:    7413           37762        MXV                CAF      TWO                                   #  SET UP MATINC AND DOTINC FOR ROW
001138:    7414           54130                           TS       MATINC                                #  VECTORS.
001139:    7415           17421                           TCF      VXM/MXV                               #  GO TO COMMON PORTION.
001140:
001141:    7416           44570        VXM                CS       TEN                                   #  SET MATINC AND DOTINC TO REFER TO MATRIX
001142:    7417           54130                           TS       MATINC                                #  AS THREE COLUMN VECTORS.
001143:    7420           36306                           CAF      SIX
001144:


001146:                                                                                                  #           COMMON PORTION OF MXV AND VXM.
001147:
001148:    7421           54126        VXM/MXV            TS       DOTINC
001149:                                                                                                  #           ITRACE (2) REFERS TO "VXM/MXV".
001150:    7422           07612                           TC       MPACVBUF                              #  SAVE VECTOR IN MPAC FOR FURTHER USE.
001151:
001152:    7423           07230                           TC       DOTSUB                                #  GO DOT TO GET X COMPONENT OF ANSWER.
001153:    7424           00006                           EXTEND
001154:    7425           30113                           DCA      VBUF                                  #  MOVE MPAC VECTOR BACK INTO MPAC, SAVING
001155:    7426           52145                           DXCH     MPAC                                  #  NEW X COMPONENT IN BUF2.
001156:    7427           52124                           DXCH     BUF2
001157:    7430           00006                           EXTEND
001158:    7431           30115                           DCA      VBUF       +2
001159:    7432           52150                           DXCH     MPAC       +3
001160:    7433           00006                           EXTEND
001161:    7434           30117                           DCA      VBUF       +4
001162:    7435           52152                           DXCH     MPAC       +5
001163:    7436           30130                           CA       MATINC                                #  INITIALIZE ADDRWD FOR NEXT DOT PRODUCT.
001164:    7437           26106                           ADS      ADDRWD                                #  FORMS BASE ADDRESS OF NEXT COLUMN(ROW).
001165:
001166:    7440           07230                           TC       DOTSUB
001167:    7441           52113                           DXCH     VBUF                                  #  MOVE GIVEN VECTOR BACK TO MPAC, SAVING Y
001168:    7442           52145                           DXCH     MPAC                                  #  COMPONENT OF ANSWER IN VBUF +2.
001169:    7443           52115                           DXCH     VBUF       +2
001170:    7444           52150                           DXCH     MPAC       +3
001171:    7445           52117                           DXCH     VBUF       +4
001172:    7446           52152                           DXCH     MPAC       +5
001173:    7447           30130                           CA       MATINC                                #  FORM ADDRESS OF LAST COLUMN OR ROW.
001174:    7450           26106                           ADS      ADDRWD
001175:
001176:    7451           07230                           TC       DOTSUB
001177:    7452           52124                           DXCH     BUF2                                  #  ANSWER NOW COMPLETE. PUT COMPONENTS INTO
001178:    7453           52145                           DXCH     MPAC                                  #  PROPER MPAC REGISTERS.
001179:    7454           52152                           DXCH     MPAC       +5
001180:    7455           52115                           DXCH     VBUF       +2
001181:    7456           52150                           DXCH     MPAC       +3
001182:    7457           16125                           TCF      DANZIG                                #  EXIT.
001183:


001185:                                                                                                  #           VXSC - VECTOR TIMES SCALAR.
001186:
001187:    7460           10153        VXSC               CCS      MODE                                  #  TEST PRESENT MODE.
001188:    7461           17507                           TCF      DVXSC                                 #  SEPARATE ROUTINE WHEN SCALAR IS IN MPAC.
001189:    7462           17507                           TCF      DVXSC
001190:
001191:    7463           07161        VVXSC              TC       DMPSUB                                #  COMPUTE X COMPONENT
001192:    7464           07212                           TC       VROUND                                #  AND ROUND IT.
001193:    7465           52150                           DXCH     MPAC       +3                         #  PUT Y COMPONENT INTO MPAC SAVING MPAC IN
001194:    7466           52145                           DXCH     MPAC                                  #  MPAC +3.
001195:    7467           52150                           DXCH     MPAC       +3
001196:
001197:    7470           07161                           TC       DMPSUB                                #  DO SAME FOR Y AND Z COMPONENTS.
001198:    7471           07212                           TC       VROUND
001199:    7472           52152                           DXCH     MPAC       +5
001200:    7473           52145                           DXCH     MPAC
001201:    7474           52152                           DXCH     MPAC       +5
001202:
001203:    7475           07161                           TC       DMPSUB
001204:    7476           07212                           TC       VROUND
001205:    7477           52145        VROTATEX           DXCH     MPAC                                  #  EXIT USED TO RESTORE MPAC AFTER THIS
001206:    7500           52152                           DXCH     MPAC       +5                         #  TYPE OF ROTATION. CALLED BY VECTOR SHIFT
001207:    7501           52150                           DXCH     MPAC       +3                         #  RIGHT, V/SC, ETC.
001208:    7502           52145                           DXCH     MPAC
001209:    7503           16125                           TCF      DANZIG
001210:


001212:                                                                                                  #           DP VECTOR PROJECTION ROUTINE.
001213:
001214:    7504           07226        VPROJ              TC       PREDOT                                #  (MPAC.X)MPAC IS COMPUTED AND LEFT IN
001215:    7505           47761                           CS       FOUR                                  #  MPAC. DO DOT AND FALL INTO DVXSC.
001216:    7506           26106                           ADS      ADDRWD
001217:
001218:                                                                                                  #           VXSC WHEN SCALAR ARRIVES IN MPAC AND VECTOR IS AT X.
001219:
001220:    7507           00006        DVXSC              EXTEND                                         #  SAVE SCALAR IN MPAC +3 AND GET X
001221:    7510           30145                           DCA      MPAC                                  #  COMPONENT OF ANSWER.
001222:    7511           52150                           DXCH     MPAC       +3
001223:    7512           07161                           TC       DMPSUB
001224:    7513           07212                           TC       VROUND
001225:
001226:    7514           37762                           CAF      TWO                                   #  ADVANCE ADDRWD TO Y COMPONENT OF X.
001227:    7515           26106                           ADS      ADDRWD
001228:    7516           00006                           EXTEND
001229:    7517           30150                           DCA      MPAC       +3                         #  PUT SCALAR BACK INTO MPAC AND SAVE
001230:    7520           52145                           DXCH     MPAC                                  #  X RESULT IN MPAC +5.
001231:    7521           52152                           DXCH     MPAC       +5
001232:    7522           07161                           TC       DMPSUB
001233:    7523           07212                           TC       VROUND
001234:
001235:    7524           37762                           CAF      TWO
001236:    7525           26106                           ADS      ADDRWD                                #  TO Z COMPONENT.
001237:    7526           52150                           DXCH     MPAC       +3                         #  BRING SCALAR BACK, PUTTING Y RESULT IN
001238:    7527           52145                           DXCH     MPAC                                  #  THE PROPER PLACE.
001239:    7530           52150                           DXCH     MPAC       +3
001240:    7531           07161                           TC       DMPSUB
001241:    7532           07212                           TC       VROUND
001242:
001243:    7533           52145                           DXCH     MPAC                                  #  PUT Z COMPONENT IN PROPER PLACE, ALSO
001244:    7534           52152                           DXCH     MPAC       +5                         #  POSITIONING X.
001245:    7535           52145                           DXCH     MPAC
001246:
001247:    7536           47763                           CS       ONE                                   #  MODE HAS CHANGED TO VECTOR.
001248:    7537           16124                           TCF      NEWMODE
001249:


001251:                                                                                                  #           THE VECTOR CROSS PRODUCT ROUTINE CALCULATES (X M -X M ,X M -X M ,X M -X M ) WHERE M IS THE VECTOR IN
001252:                                                                                                  #                                                         3 2  2 3  1 3  3 1  2 1  1 2
001253:                                                                                                  #  MPAC AND X THE VECTOR AT THE GIVEN ADDRESS.
001254:
001255:
001256:    7540           00006        VXV                EXTEND
001257:    7541           30152                           DCA      MPAC       +5                         #  FORM UP M3X1, LEAVING M1 IN VBUF.
001258:    7542           52145                           DXCH     MPAC
001259:    7543           52113                           DXCH     VBUF
001260:    7544           07161                           TC       DMPSUB                                #  BY X1.
001261:
001262:    7545           00006                           EXTEND
001263:    7546           40150                           DCS      MPAC       +3                         #  CALCULATE -X1M2, SAVING X1M3 IN VBUF +2.
001264:    7547           52145                           DXCH     MPAC
001265:    7550           52115                           DXCH     VBUF       +2
001266:    7551           07161                           TC       DMPSUB
001267:
001268:    7552           37762                           CAF      TWO                                   #  ADVANCE ADDRWD TO X2.
001269:    7553           26106                           ADS      ADDRWD
001270:    7554           00006                           EXTEND
001271:    7555           40152                           DCS      MPAC       +5                         #  PREPARE TO GET -X2M3, SAVING -X1M2 IN
001272:    7556           52145                           DXCH     MPAC                                  #  MPAC +5.
001273:    7557           52152                           DXCH     MPAC       +5
001274:    7560           07161                           TC       DMPSUB
001275:
001276:    7561           00006                           EXTEND
001277:    7562           30113                           DCA      VBUF                                  #  GET X2M1, SAVING -X2M3 IN VBUF +4.
001278:    7563           52145                           DXCH     MPAC
001279:    7564           52117                           DXCH     VBUF       +4
001280:    7565           07161                           TC       DMPSUB
001281:
001282:    7566           37762                           CAF      TWO                                   #  ADVANCE ADDRWD TO X3.
001283:    7567           26106                           ADS      ADDRWD
001284:    7570           00006                           EXTEND
001285:    7571           40113                           DCS      VBUF                                  #  GET -X3M1, ADDING X2M1 TO MPAC +5 TO
001286:    7572           52145                           DXCH     MPAC                                  #  COMPLETE THE Z COMPONENT OF THE ANSWER.
001287:    7573           20152                           DAS      MPAC       +5
001288:
001289:    7574           00006                           EXTEND
001290:    7575           17577                           BZF      +2
001291:    7576           07101                           TC       OVERFLOW


001293:    7577           07161                           TC       DMPSUB
001294:    7600           52115                           DXCH     VBUF       +2                         #  MOVE X1M3 TO MPAC +3 SETTING UP FOR X3M2
001295:    7601           52150                           DXCH     MPAC       +3                         #  AND ADD -X3M1 TO MPAC +3 TO COMPLETE THE
001296:    7602           52145                           DXCH     MPAC                                  #  Y COMPONENT OF THE RESULT.
001297:    7603           20150                           DAS      MPAC       +3
001298:
001299:    7604           00006                           EXTEND
001300:    7605           17607                           BZF      +2
001301:    7606           07101                           TC       OVERFLOW
001302:
001303:    7607           07161                           TC       DMPSUB
001304:    7610           52117                           DXCH     VBUF       +4                         #  GO ADD -X2M3 TO X3M2 TO COMPLETE THE X
001305:    7611           17046                           TCF      ENDVXV                                #  COMPONENT (TAIL END OF DAD).
001306:
001307:                                                                                                  #           THE MPACVBUF SUBROUTINE SAVES THE VECTOR IN MPAC IN VBUF WITHOUT CLOBBERING MPAC.
001308:
001309:    7612           00006        MPACVBUF           EXTEND                                         #  CALLED BY MXV, VXM, AND UNIT.
001310:    7613           30145                           DCA      MPAC
001311:    7614           52113                           DXCH     VBUF
001312:    7615           00006                           EXTEND
001313:    7616           30150                           DCA      MPAC       +3
001314:    7617           52115                           DXCH     VBUF       +2
001315:    7620           00006                           EXTEND
001316:    7621           30152                           DCA      MPAC       +5
001317:    7622           52117                           DXCH     VBUF       +4
001318:    7623           00002                           TC       Q                                     #  RETURN TO CALLER.
001319:


001321:                                                                                                  #           INTERPRETIVE INSTRUCTIONS WHOSE EXECUTION CONSISTS OF PRINCIPALLY CALLING SUBROUTINES.
001322:
001323:    7624           07161        DMP1               TC       DMPSUB                                #  DMP INSTRUCTION.
001324:    7625           16125                           TCF      DANZIG
001325:
001326:    7626           07161        DMPR               TC       DMPSUB
001327:    7627           07211                           TC       ROUNDSUB   +1                         #  (C(A) = +0).
001328:    7630           16125                           TCF      DANZIG
001329:
001330:    7631           00006        DDV                EXTEND
001331:    7632           50106                           INDEX    ADDRWD                                #  MOVE DIVIDEND INTO BUF.
001332:    7633           30001                           DCA      0
001333:    7634           17641                           TCF      BDDV       +4
001334:
001335:    7635           00006        BDDV               EXTEND                                         #  MOVE DIVISOR INTO MPAC SAVING MPAC, THE
001336:    7636           50106                           INDEX    ADDRWD                                #  DIVIDEND, IN BUF.
001337:    7637           30001                           DCA      0
001338:    7640           52145                           DXCH     MPAC
001339:    7641           52121                 +4        DXCH     BUF
001340:    7642           37767                           CAF      ZERO                                  #  DIVIDE ROUTINES IN BANK 0.
001341:    7643           54004                           TS       FBANK
001342:    7644           12352                           TCF      DDV/BDDV
001343:
001344:    7645           30106        SETPD              CA       ADDRWD                                #  MUST SET TO WORK AREA, OR EBANK TROUBLE.
001345:    7646           54156                           TS       PUSHLOC
001346:    7647           16127                           TCF      NOIBNKSW                              #  NO FBANK SWITCH REQUIRED.
001347:
001348:    7650           37767        TSLC               CAF      ZERO                                  #  SHIFTING ROUTINES LOCATED IN BANK 00.
001349:    7651           54004                           TS       FBANK
001350:    7652           12172                           TCF      TSLC2
001351:
001352:    7653           35342        GSHIFT             CAF      LOW7                                  #  USED AS MASK AT GENSHIFT. THIS PROCESSES
001353:    7654           54004                           TS       FBANK                                 #  ANY SHIFT INSTRUCTION (EXCEPT TSLC) WITH
001354:    7655           12214                           TCF      GENSHIFT                              #  AN ADDRESS (ROUTINES IN BANK 0).
001355:


001357:                                                                                                  #           THE FOLLOWING IS THE PROLOGUE TO V/SC. IF THE PRESENT MODE IS VECTOR, IT SAVES THE SCALAR AT X IN BUF
001358:                                                                                                  #  AND CALLS THE V/SC ROUTINE IN BANK 0. IF THE PRESENT MODE IS SCALAR, IT MOVES THE VECTOR AT X INTO MPAC, SAVING
001359:                                                                                                  #  THE SCALAR IN MPAC IN BUF BEFORE CALLING THE V/SC ROUTINE IN BANK 0.
001360:
001361:
001362:    7656           10153        V/SC               CCS      MODE
001363:    7657           17670                           TCF      DV/SC                                 #  MOVE VECTOR INTO MPAC.
001364:    7660           17670                           TCF      DV/SC
001365:
001366:    7661           00006        VV/SC              EXTEND
001367:    7662           50106                           INDEX    ADDRWD
001368:    7663           30001                           DCA      0
001369:    7664           52121        V/SC1              DXCH     BUF                                   #  IN BOTH CASES, VECTOR IS NOW IN MPAC AND
001370:    7665           37767                           CAF      ZERO                                  #  SCALAR IN BUF.
001371:    7666           54004                           TS       FBANK
001372:    7667           12630                           TCF      V/SC2
001373:
001374:    7670           00006        DV/SC              EXTEND
001375:    7671           50106                           INDEX    ADDRWD
001376:    7672           30003                           DCA      2
001377:    7673           52150                           DXCH     MPAC       +3
001378:    7674           00006                           EXTEND
001379:    7675           50106                           INDEX    ADDRWD
001380:    7676           30005                           DCA      4
001381:    7677           52152                           DXCH     MPAC       +5
001382:
001383:    7700           47763                           CS       ONE                                   #  CHANGE MODE TO VECTOR.
001384:    7701           54153                           TS       MODE
001385:
001386:    7702           00006                           EXTEND
001387:    7703           50106                           INDEX    ADDRWD
001388:    7704           30001                           DCA      0
001389:    7705           52145                           DXCH     MPAC
001390:    7706           17664                           TCF      V/SC1                                 #  FINISH PROLOGUE AT COMMON SECTION.
001391:


001393:                                                                                                  #           SIGN AND COMPLEMENT INSTRUCTIONS.
001394:
001395:    7707           50106        SIGN               INDEX    ADDRWD                                #  CALL COMP INSTRUCTION IF WORD AT X IS
001396:    7710           10000                           CCS      0                                     #  NEGATIVE NON-ZERO.
001397:    7711           16125                           TCF      DANZIG
001398:    7712           17714                           TCF      +2
001399:    7713           17722                           TCF      COMP                                  #  DO THE COMPLEMENT.
001400:
001401:    7714           50106                           INDEX    ADDRWD
001402:    7715           10001                           CCS      1
001403:    7716           16125                           TCF      DANZIG
001404:    7717           16125                           TCF      DANZIG
001405:    7720           17722                           TCF      COMP
001406:    7721           16125                           TCF      DANZIG
001407:    7722           00006        COMP               EXTEND                                         #  COMPLEMENT DP MPAC IN EVERY CASE.
001408:    7723           40145                           DCS      MPAC
001409:    7724           52145                           DXCH     MPAC
001410:
001411:    7725           10153                           CCS      MODE                                  #  EITHER COMPLEMENT MPAC +3 OR THE REST OF
001412:    7726           17737                           TCF      DCOMP                                 #  THE VECTOR ACCUMULATOR.
001413:    7727           17737                           TCF      DCOMP
001414:
001415:    7730           00006                           EXTEND                                         #  VECTOR COMPLEMENT.
001416:    7731           40150                           DCS      MPAC       +3
001417:    7732           52150                           DXCH     MPAC       +3
001418:    7733           00006                           EXTEND
001419:    7734           40152                           DCS      MPAC       +5
001420:    7735           52152                           DXCH     MPAC       +5
001421:    7736           16125                           TCF      DANZIG
001422:
001423:    7737           40146        DCOMP              CS       MPAC       +2
001424:    7740           54146                           TS       MPAC       +2
001425:    7741           16125                           TCF      DANZIG
001426:


001428:                                                                                                  #           CONSTANTS REQUIRED IN FIXED-FIXED.
001429:    7742           37777        DPOSMAX            OCT      37777
001430:    7743           37777        POSMAX             OCT      37777
001431:    7744     7744               LIMITS             EQUALS   POSMAX     +1
001432:    7744           57777        NEG1/2             OCT      -20000                                #  MUST BE TWO LOCATIONS AHEAD OF POS1/2
001433:
001434:    7745           40000        BIT15              OCT      40000                                 #  BIT TABLE FOLLOWS.
001435:    7746           20000        BIT14              OCT      20000
001436:    7747           10000        BIT13              OCT      10000
001437:    7750           04000        BIT12              OCT      04000
001438:    7751           02000        BIT11              OCT      02000
001439:    7752           01000        BIT10              OCT      01000
001440:    7753           00400        BIT9               OCT      00400
001441:    7754           00200        BIT8               OCT      00200
001442:    7755           00100        BIT7               OCT      00100
001443:    7756           00040        BIT6               OCT      00040
001444:    7757           00020        BIT5               OCT      00020
001445:    7760           00010        BIT4               OCT      00010
001446:    7761           00004        BIT3               OCT      00004
001447:    7762           00002        BIT2               OCT      00002
001448:    7763           00001        BIT1               OCT      00001
001449:
001450:    7764     7745               NEGMAX             EQUALS   BIT15
001451:    7764     7746               HALF               EQUALS   BIT14
001452:    7764     7746               POS1/2             EQUALS   HALF
001453:    7764     7747               QUARTER            EQUALS   BIT13
001454:    7764     7751               2K                 EQUALS   BIT11
001455:    7764           00013        ELEVEN             DEC      11         B-14
001456:    7765     7764               NOUTCON            =        ELEVEN
001457:    7765     4570               TEN                =        BINCON
001458:    7765     4530               NINE               =        R2D1
001459:    7765     7760               EIGHT              EQUALS   BIT4
001460:    7765           00007        SEVEN              OCT      7
001461:    7766     6306               SIX                EQUALS   REVCNT
001462:    7766           00005        FIVE               OCT      5
001463:    7767     7761               FOUR               EQUALS   BIT3
001464:    7767     6311               THREE              EQUALS   OCTAL3
001465:    7767     7762               TWO                EQUALS   BIT2
001466:    7767     7763               ONE                EQUALS   BIT1
001467:    7767           00000        ZERO               OCT      0
001468:    7770           77777        NEG0               OCT      77777
001469:    7771           77776        NEGONE             DEC      -1         B-14
001470:
001471:    7772     7771               NEG1               =        NEGONE
001472:    7772     7771               MINUS1             EQUALS   NEG1
001473:
001474:    5336                                           BLOCK    02
001475:
001476:    5336           77775        NEG2               OCT      77775


001478:    5337           01777        LOW10              OCT      1777
001479:    5340           77774        NEG3               DEC      -3         B-14
001480:    5341           00777        LOW9               OCT      777
001481:    5342           00177        LOW7               OCT      177
001482:    5343           00017        LOW4               OCT      17
001483:    5344     7765               LOW3               EQUALS   SEVEN
001484:    5344     6311               LOW2               EQUALS   THREE
001485:
001486:    5344           00032        CALLCODE           OCT      00032
001487:    5345           40014        DLOADCOD           OCT      40014
001488:    5346     7745               VLOADCOD           EQUALS   BIT15
001489:    5346           40015        DLOAD*             OCT      40015
001490:    5347     6153               VLOAD*             EQUALS   OCT40001
001491:    5347           00112        LVBUF              ADRES    VBUF
001492:    5350     5210               BIT13-14           =        PRIO30
001493:                                                                                                  #  THERE ARE FOUR POSSIBLE SETTINGS FOR CHANNEL 07 (WNACTV) FOR ACCESSING THE EVENTUALLY THREE AND ONE-HALF
001494:                                                                                                  #  PRESENTLY ONE AND ONE-HALF SUPERBANKS.
001495:
001496:    5350           00060        SUPER011           OCT      60                                    #  BITS FOR SUPERBNK SETTING 011
001497:    5351     7755               SUPER100           EQUALS   BIT7                                  #  BITS FOR SUPERBNK SETTING 100
001498:                                                                                                  #                                                                  (LAST 4K OF ROPE)
001499:                                                                                                  #  SUPER101        OCT             120                             BITS FOR SUPERBNK SETTING 101
001500:                                                                                                  #                                                                  (FIRST 8K OF ACM)
001501:                                                                                                  #  SUPER110        OCT             140                             BITS FOR SUPERBNK SETTING 110
001502:                                                                                                  #                                                                  (LAST 8K OF ACM)
001503:    5351           74000        HIGH4              OCT      74000
001504:    5352           01400        OCT1400            OCT      01400
001505:    5353           00055        DEC45              DEC      45         B-14
001506:


001508:                                                                                                  #           THE FOLLOWING SHORT SHIFT CODES REQUIRE NO ADDRESS WORD:
001509:
001510:                                                                                                  #           1.  SR1 TO SR4         SCALAR SHIFT RIGHT.
001511:                                                                                                  #           2.  SR1R TO SR4R       SCALAR SHIFT RIGHT AND ROUND.
001512:                                                                                                  #           3.  SL1 TO SL4         SCALAR SHIFT LEFT.
001513:                                                                                                  #           4.  SL1R TO SL4R       SCALAR SHIFT LEFT AND ROUND.
001514:
001515:                                                                                                  #           5.  VSR1 TO VSR8       VECTOR SHIFT RIGHT (ALWAYS ROUNDS).
001516:                                                                                                  #           6.  VSL1 TO VSL8       VECTOR SHIFT LEFT (NEVER ROUNDS).
001517:
001518:                                                                                                  #           THE FOLLOWING CODES REQUIRE AND ADDRESS WHICH MAY BE INDEXED:*
001519:
001520:                                                                                                  #           1.  SR                 SCALAR SHIFT RIGHT.
001521:                                                                                                  #           2.  SRR                SCALAR SHIFT RIGHT AND ROUND.
001522:                                                                                                  #           3.  SL                 SCALAR SHIFT LEFT.
001523:                                                                                                  #           4.  SLR                SCALAR SHIFT LEFT AND ROUND.
001524:
001525:                                                                                                  #           5.  VSR                VECTOR SHIFT RIGHT.
001526:                                                                                                  #           6.  VSL                VECTOR SHIFT LEFT.
001527:
001528:                                                                                                  #  *  IF THE ADDRESS IS INDEXED, AND THE INDEX MODIFICATION RESULTS IN A NEGATIVE SHIFT COUNT, A SHIFT OF THE
001529:                                                                                                  #  ABSOLUTE VALUE OF THE COUNT IS DONE IN THE OPPOSITE DIRECTION.
001530:
001531: 00,2017                                           BANK     00
001532:
001533: 00,2017           36306        SHORTT             CAF      SIX                                   #  SCALAR SHORT SHIFTS COME HERE. THE SHIFT
001534: 00,2020           70020                           MASK     CYR                                   #  COUNT-1 IS NOW IN BITS 2-3 OF CYR. THE
001535: 00,2021           54021                           TS       SR                                    #  ROUNDING BIT IS IN BIT1 AT THIS POINT.
001536:
001537: 00,2022           10020                           CCS      CYR                                   #  SEE IF RIGHT OR LEFT SHIFT DESIRED.
001538: 00,2023           12101                           TCF      TSSL                                  #  SHIFT LEFT.
001539:
001540: 00,2024           00024        SRDDV              DEC      20         B-14                       #  MPTEMP SETTING FOR SR BEFORE DDV.
001541:
001542: 00,2025           50021        TSSR               INDEX    SR                                    #  GET SHIFTING BIT.
001543: 00,2026           37746                           CAF      BIT14
001544: 00,2027           54125                           TS       MPTEMP
001545:
001546: 00,2030           10020                           CCS      CYR                                   #  SEE IF A ROUND IS DESIRED.
001547: 00,2031           02050        RIGHTR             TC       MPACSRND                              #  YES - SHIFT RIGHT AND ROUND.
001548: 00,2032           16124                           TCF      NEWMODE                               #  SET MODE TO DP (C(A) = 0).
001549: 00,2033           30125        MPACSHR            CA       MPTEMP                                #  DO A TRIPLE PRECISION SHIFT RIGHT.
001550: 00,2034           00006                           EXTEND
001551: 00,2035           70146                           MP       MPAC       +2
001552: 00,2036           54146                 +3        TS       MPAC       +2                         #  (EXIT FROM SQRT AND ABVAL).
001553: 00,2037           30125                           CA       MPTEMP
001554: 00,2040           00006                           EXTEND
001555: 00,2041           70144                           MP       MPAC                                  #  SHIFT MAJOR PART INTO A,L AND PLACE IN


001557: 00,2042           52145                           DXCH     MPAC                                  #  MPAC,+1.
001558: 00,2043           30125                           CA       MPTEMP
001559: 00,2044           00006                           EXTEND
001560: 00,2045           70001                           MP       L                                     #  ORIGINAL C(MPAC +1).
001561: 00,2046           20146                           DAS      MPAC       +1                         #  GUARANTEED NO OVERFLOW.
001562: 00,2047           16125                           TCF      DANZIG
001563:
001564:                                                                                                  #           MPAC SHIFT RIGHT AND ROUND SUBROUTINES.
001565:
001566: 00,2050           30146        MPACSRND           CA       MPAC       +2                         #  WE HAVE TO DO ALL THREE MULTIPLIES SINCE
001567: 00,2051           00006                           EXTEND                                         #  MPAC +1 AND MPAC +2 MIGHT HAVE SIGN
001568: 00,2052           70125                           MP       MPTEMP                                #  DISAGREEMENT WITH A SHIFT RIGHT OF 1.
001569: 00,2053           56145                           XCH      MPAC       +1
001570: 00,2054           00006                           EXTEND
001571: 00,2055           70125                           MP       MPTEMP
001572: 00,2056           56145                           XCH      MPAC       +1                         #  TRIAL MINOR PART.
001573: 00,2057           60001                           AD       L
001574:
001575: 00,2060           60000        VSHR2              DOUBLE                                         #  (FINISH VECTOR COMPONENT SHIFT RIGHT
001576: 00,2061           54146                           TS       MPAC       +2                         #  AND ROUND.
001577: 00,2062           12064                           TCF      +2
001578: 00,2063           26145                           ADS      MPAC       +1                         #  GUARANTEED NO OVERFLOW.
001579:
001580: 00,2064           37767                           CAF      ZERO
001581: 00,2065           54146                           TS       MPAC       +2
001582: 00,2066           56144                           XCH      MPAC                                  #  SETTING TO ZERO SO FOLLOWING DAS WORKS.
001583: 00,2067           00006                           EXTEND
001584: 00,2070           70125                           MP       MPTEMP
001585: 00,2071           20145                           DAS      MPAC                                  #  AGAIN NO OVERFLOW.
001586: 00,2072           00002                           TC       Q
001587:
001588: 00,2073           30125        VSHRRND            CA       MPTEMP                                #  ENTRY TO SHIFT RIGHT AND ROUND MPAC WHEN
001589: 00,2074           00006                           EXTEND                                         #  MPAC CONTAINS A VECTOR COMPONENT.
001590: 00,2075           70145                           MP       MPAC       +1
001591: 00,2076           54145                           TS       MPAC       +1
001592: 00,2077           56001                           XCH      L
001593: 00,2100           12060                           TCF      VSHR2                                 #  GO ADD ONE IF NECESSARY AND FINISH.
001594:


001596:                                                                                                  #           ROUTINE FOR SHORT SCALAR SHIFT LEFT (AND MAYBE ROUND).
001597:
001598: 00,2101           30021        TSSL               CA       SR                                    #  GET SHIFT COUNT FOR SR.
001599: 00,2102           54125                 +1        TS       MPTEMP
001600:
001601: 00,2103           00006                 +2        EXTEND                                         #  ENTRY HERE FROM SL FOR SCALARS.
001602: 00,2104           30146                           DCA      MPAC       +1                         #  SHIFTING LEFT ONE PLACE AT A TIME IS
001603: 00,2105           20146                           DAS      MPAC       +1                         #  FASTER THAN DOING THE WHOLE SHIFT WITH
001604: 00,2106           60144                           AD       MPAC                                  #  MULTIPLIES ASSUMING THAT FREQUENCY OF
001605: 00,2107           60144                           AD       MPAC                                  #  SHIFT COUNTS GOES DOWN RAPIDLY AS A
001606: 00,2110           54144                           TS       MPAC                                  #  FUNCTION OF THEIR MAGNITUDE.
001607: 00,2111           12113                           TCF      +2
001608: 00,2112           54111                           TS       OVFIND                                #  OVERFLOW.  (LEAVES OVERFLOW-CORRECTED
001609:                                                                                                  #  RESULT ANYWAY).
001610: 00,2113           10125                           CCS      MPTEMP                                #  LOOP ON DECREMENTED SHIFT COUNT.
001611: 00,2114           12102                           TCF      TSSL       +1
001612:
001613: 00,2115           10020                           CCS      CYR                                   #  SEE IF ROUND WANTED.
001614: 00,2116           07210        ROUND              TC       ROUNDSUB                              #  YES - ROUND AND EXIT.
001615: 00,2117           16125                           TCF      DANZIG                                #  SL LEAVES A ZERO IN CYR FOR NO ROUND.
001616: 00,2120           16125                           TCF      DANZIG                                #  NO - EXIT IMMEDIATL
001617:


001619:                                                                                                  #  VECTOR SHIFTING ROUTINES.
001620:
001621: 00,2121           37765        SHORTV             CAF      LOW3                                  #  SAVE 3 BIT SHIFT COUNT - 1 WITHOUT
001622: 00,2122           70020                           MASK     CYR                                   #  EDITING CYR.
001623: 00,2123           54125                           TS       MPTEMP
001624: 00,2124           10020                           CCS      CYR                                   #  SEE IF LEFT OR RIGHT SHIFT.
001625: 00,2125           12145                           TCF      VSSL                                  #  VECTOR SHIFT LEFT.
001626: 00,2126           00176        OCT176             OCT      176                                   #  USED IN PROCESSED SHIFTS WITH - COUNT.
001627:
001628: 00,2127           50125        VSSR               INDEX    MPTEMP                                #  (ENTRY FROM SR). PICK UP SHIFTING BIT.
001629: 00,2130           37746                           CAF      BIT14                                 #  MPTEMP CONTAINS THE SHIFT COUNT - 1.
001630: 00,2131           54125                           TS       MPTEMP
001631: 00,2132           02073                           TC       VSHRRND                               #  SHIFT X COMPONENT.
001632:
001633: 00,2133           52145                           DXCH     MPAC                                  #  SWAP X AND Y COMPONENTS.
001634: 00,2134           52150                           DXCH     MPAC       +3
001635: 00,2135           52145                           DXCH     MPAC
001636: 00,2136           02073                           TC       VSHRRND                               #  SHIFT Y COMPONENT.
001637:
001638: 00,2137           52145                           DXCH     MPAC                                  #  SWAP Y AND Z COMPONENTS.
001639: 00,2140           52152                           DXCH     MPAC       +5
001640: 00,2141           52145                           DXCH     MPAC
001641: 00,2142           02073                           TC       VSHRRND                               #  SHIFT Z COMPONENT.
001642:
001643: 00,2143           17477                           TCF      VROTATEX                              #  RESTORE COMPONENTS TO PROPER PLACES.
001644:


001646:                                                                                                  #  VECTOR SHIFT LEFT - DONE ONE PLACE AT A TIME.
001647:
001648: 00,2144           54125                 -1        TS       MPTEMP                                #  SHIFTING LOOP.
001649:
001650: 00,2145           00006        VSSL               EXTEND
001651: 00,2146           30145                           DCA      MPAC
001652: 00,2147           20145                           DAS      MPAC
001653: 00,2150           00006                           EXTEND
001654: 00,2151           12153                           BZF      +2
001655: 00,2152           07101                           TC       OVERFLOW
001656:
001657: 00,2153           00006                           EXTEND
001658: 00,2154           30150                           DCA      MPAC       +3
001659: 00,2155           20150                           DAS      MPAC       +3
001660: 00,2156           00006                           EXTEND
001661: 00,2157           12161                           BZF      +2
001662: 00,2160           07101                           TC       OVERFLOW
001663:
001664: 00,2161           00006                           EXTEND
001665: 00,2162           30152                           DCA      MPAC       +5
001666: 00,2163           20152                           DAS      MPAC       +5
001667: 00,2164           00006                           EXTEND
001668: 00,2165           12167                           BZF      +2
001669: 00,2166           07101                           TC       OVERFLOW
001670:
001671: 00,2167           10125                           CCS      MPTEMP                                #  LOOP ON DECREMENTED SHIFT COUNTER.
001672: 00,2170           12144                           TCF      VSSL       -1
001673: 00,2171           16125                           TCF      DANZIG                                #  EXIT.
001674:


001676:                                                                                                  #           TSLC - TRIPLE SHIFT LEFT AND COUNT. SHIFTS MPAC LEFT UNTIL GREATER THAN .5 IN MAGNITUDE, LEAVING
001677:                                                                                                  #  THE COMPLEMENT OF THE NUMBER OF SHIFTS REQUIRED IN X.
001678:
001679: 00,2172           54125        TSLC2              TS       MPTEMP                                #  START BY ZEROING SHIFT COUNT (IN A NOW).
001680: 00,2173           07001                           TC       BRANCH                                #  EXIT WITH NO SHIFTING IF ARGUMENT ZERO.
001681: 00,2174           12176                           TCF      +2
001682: 00,2175           12212                           TCF      ENDTSLC                               #  STORES ZERO SHIFT COUNT IN THIS CASE.
001683:
001684: 00,2176           07327                           TC       TPAGREE                               #  MAY CAUSE UPSHIFT OF ONE EXTRA PLACE.
001685:
001686: 00,2177           30144                           CA       MPAC                                  #  BEGIN NORMALIZATION LOOP.
001687: 00,2200           12207                           TCF      TSLCTEST
001688:
001689: 00,2201           24125        TSLCLOOP           INCR     MPTEMP                                #  INCREMENT SHIFT COUNTER.
001690: 00,2202           00006                           EXTEND
001691: 00,2203           30146                           DCA      MPAC       +1
001692: 00,2204           20146                           DAS      MPAC       +1
001693: 00,2205           60144                           AD       MPAC
001694: 00,2206           26144                           ADS      MPAC
001695: 00,2207           60000        TSLCTEST           DOUBLE                                         #  SEE IF (ANOTHER) SHIFT IS REQUIRED
001696: 00,2210           54000                           OVSK
001697: 00,2211           12201                           TCF      TSLCLOOP                              #  YES - INCREMENT COUNT AND SHIFT AGAIN.
001698:
001699: 00,2212           40125        ENDTSLC            CS       MPTEMP
001700: 00,2213           16701                           TCF      STORE1                                #  STORE SHIFT COUNT AND RETURN TO DANZIG.
001701:


001703:                                                                                                  #           THE FOLLOWING ROUTINES PROCESSES THE GENERAL SHIFT INSTRUCTIONS SR, SRR, SL, AND SLR.
001704:                                                                                                  #  THE GIVEN ADDRESS IS DECODED AS FOLLOWS:
001705:
001706:                                                                                                  #           BITS 1-7    SHIFT COUNT (SUBADDRESS) LESS THAN 125 DECIMAL.
001707:                                                                                                  #           BIT 8       PSEUDO SIGN BIT (DETECTS CHANGE IN SIGN IN INDEXED SHIFTS).
001708:                                                                                                  #           BIT 9       0 FOR LEFT SHIFT, AND 1 FOR RIGHT SHIFT.
001709:                                                                                                  #           BIT 10      1 FOR TERMINAL ROUND ON SCALAR SHIFTS, 0 OTHERWISE.
001710:                                                                                                  #           BITS 11-13  0.
001711:                                                                                                  #           BIT 14      1.
001712:                                                                                                  #           BIT 15      0.
001713:
001714:                                                                                                  #  THE ABOVE ENCODING IS DONE BY THE YUL SYSTEM.
001715:
001716:
001717: 00,2214           70106        GENSHIFT           MASK     ADDRWD                                #  GET SHIFT COUNT, TESTING FOR ZERO.
001718: 00,2215           10000                           CCS      A                                     #  (ARRIVES WITH C(A) = LOW7).
001719: 00,2216           12224                           TCF      GENSHFT2                              #  IF NON-ZERO, PROCEED WITH DECREMENTED CT
001720:
001721: 00,2217           37752                           CAF      BIT10                                 #  ZERO SHIFT COUNT. NO SHIFTS NEEDED BUT
001722: 00,2220           70106                           MASK     ADDRWD                                #  WE MIGHT HAVE TO ROUND MPAC ON SLR AND
001723: 00,2221           10000                           CCS      A                                     #  SRR (SCALAR ONLY).
001724: 00,2222           07210                           TC       ROUNDSUB
001725: 00,2223           16125                           TCF      DANZIG
001726:
001727: 00,2224           54125        GENSHFT2           TS       MPTEMP                                #  DECREMENTED SHIFT COUNT TO MPTEMP.
001728: 00,2225           37754                           CAF      BIT8                                  #  TEST MEANING OF LOW SEVEN BIT COUNT IN
001729: 00,2226           00006                           EXTEND                                         #  MPTEMP NOW.
001730: 00,2227           70106                           MP       ADDRWD
001731: 00,2230           76311                           MASK     LOW2                                  #  JUMPS ON SHIFT DIRECTION (BIT8) AND
001732: 00,2231           50000                           INDEX    A
001733: 00,2232           12233                           TCF      +1                                    #  ORIGINAL SHIFT DIRECTION (BIT 9).
001734: 00,2233           12332                           TCF      RIGHT-                                #  NEGATIVE SHIFT COUNT FOR SL OR SLR.
001735: 00,2234           12341                           TCF      LEFT                                  #  SL OR SLR.
001736: 00,2235           12336                           TCF      LEFT-                                 #  NEGATIVE SHIFT COUNT WITH SR OR SRR.
001737:


001739:                                                                                                  #           GENERAL SHIFT RIGHT
001740:
001741: 00,2236           10153        RIGHT              CCS      MODE                                  #  SEE IF VECTOR OR SCALAR.
001742: 00,2237           12277                           TCF      GENSCR
001743: 00,2240           12277                           TCF      GENSCR
001744:
001745: 00,2241           30125                           CA       MPTEMP                                #  SEE IF SHIFT COUNT LESS THAN 14D.
001746: 00,2242           63710        VRIGHT2            AD       NEG12
001747: 00,2243           00006                           EXTEND
001748: 00,2244           62127                           BZMF     VSSR                                  #  IF SO, BRANCH AND SHIFT IMMEDIATELY.
001749:
001750: 00,2245           67771                           AD       NEGONE                                #  IF NOT, REDUCE MPTEMP BY A TOTAL OF 14,
001751: 00,2246           54125                           TS       MPTEMP                                #  AND DO A SHIFT RIGHT AND ROUND BY 14.
001752: 00,2247           37767                           CAF      ZERO                                  #  THE ROUND AT THIS STAGE MAY INTRODUCE A
001753: 00,2250           54001                           TS       L                                     #  ONE BIT ERROR IN A SHIFT RIGHT 15D.
001754: 00,2251           56144                           XCH      MPAC
001755: 00,2252           56145                           XCH      MPAC       +1
001756: 00,2253           02272                           TC       SETROUND                              #  X COMPONENT NOW SHIFTED, SO MAKE UP THE
001757: 00,2254           20145                           DAS      MPAC                                  #  ROUNDING QUANTITY (0 IN A AND 0 OR +-1
001758:                                                                                                  #  IN L).
001759: 00,2255           56147                           XCH      MPAC       +3                         #  REPEAT THE ABOVE PROCESS FOR Y AND Z.
001760: 00,2256           56150                           XCH      MPAC       +4
001761: 00,2257           02272                           TC       SETROUND
001762: 00,2260           20150                           DAS      MPAC       +3                         #  NO OVERFLOW ON THESE ADDS.
001763:
001764: 00,2261           56151                           XCH      MPAC       +5
001765: 00,2262           56152                           XCH      MPAC       +6
001766: 00,2263           02272                           TC       SETROUND
001767: 00,2264           20152                           DAS      MPAC       +5
001768:
001769: 00,2265           10125                           CCS      MPTEMP                                #  SEE IF DONE, DOING FINAL DECREMENT.
001770: 00,2266           54125                           TS       MPTEMP
001771: 00,2267           12242                           TCF      VRIGHT2
001772: 00,2270           04604        BIASLO             DEC      .2974      B-1                        #  SQRT CONSTANT
001773:
001774: 00,2271           16125                           TCF      DANZIG
001775:
001776:
001777: 00,2272           60000        SETROUND           DOUBLE                                         #  MAKES UP ROUNDING QUANTITY FROM ARRIVING
001778: 00,2273           54146                           TS       MPAC       +2                         #  C(A). L IS ZERO INITIALLY.
001779: 00,2274           37767                           CAF      ZERO
001780: 00,2275           56001                           XCH      L
001781: 00,2276           00002                           TC       Q                                     #  RETURN AND DO THE DAS, RESETTING L TO 0.
001782:


001784:                                                                                                  #           PROCESS SR AND SRR FOR SCALARS.
001785:
001786: 00,2277           30125        GENSCR             CA       MPTEMP                                #  SEE IF THE ORIGINAL SHIFT COUNT WAS LESS
001787: 00,2300           63710                 +1        AD       NEG12                                 #  THAN 14D.
001788: 00,2301           00006                           EXTEND
001789: 00,2302           62322                           BZMF     DOSSHFT                               #  DO THE SHIFT IMMEDIATELY IF SO.
001790:
001791: 00,2303           67771                 +4        AD       NEGONE                                #  IF NOT, DECREMENT SHIFT COUNT BY 14D AND
001792: 00,2304           54125                           TS       MPTEMP                                #  SHIFT MPAC RIGHT 14 PLACES.
001793: 00,2305           37767                           CAF      ZERO
001794: 00,2306           56144                           XCH      MPAC
001795: 00,2307           56145                           XCH      MPAC       +1
001796: 00,2310           54146                           TS       MPAC       +2
001797: 00,2311           10125                           CCS      MPTEMP                                #  SEE IF FINISHED, DO FINAL DECREMENT.
001798: 00,2312           54125                           TS       MPTEMP
001799: 00,2313           02300                           TC       GENSCR     +1
001800: 00,2314           22650        SLOPEHI            DEC      .5884                                 #  SQRT CONSTANT.
001801: 00,2315           37752                           CAF      BIT10                                 #  FINISHED WITH SHIFT. SEE IF ROUND
001802: 00,2316           70106                           MASK     ADDRWD                                #  WANTED.
001803: 00,2317           10000                           CCS      A
001804: 00,2320           07210                           TC       ROUNDSUB
001805: 00,2321           16125                           TCF      DANZIG                                #  DO SO AND/OR EXIT.
001806:
001807: 00,2322           50125        DOSSHFT            INDEX    MPTEMP                                #  PICK UP SHIFTING BIT.
001808: 00,2323           37746                           CAF      BIT14
001809: 00,2324           54125                           TS       MPTEMP
001810: 00,2325           37752                           CAF      BIT10                                 #  SEE IF TERMINAL ROUND DESIRED.
001811: 00,2326           70106                           MASK     ADDRWD
001812: 00,2327           10000                           CCS      A
001813: 00,2330           12031                           TCF      RIGHTR                                #  YES.
001814: 00,2331           12033                           TCF      MPACSHR                               #  JUST SHIFT RIGHT.
001815:


001817:                                                                                                  #           PROCESS THE RIGHT- (SL(R) WITH A NEGATIVE COUNT), LEFT-, AND LEFT OPTIONS.
001818:
001819: 00,2332           40125        RIGHT-             CS       MPTEMP                                #  GET ABSOLUTE VALUE - 1 OF SHIFT COUNT
001820: 00,2333           62126                           AD       OCT176                                #  UNDERSTANDING THAT BIT8 (PSEUDO-SIGN)
001821: 00,2334           54125                           TS       MPTEMP                                #  WAS 1 INITIALLY.
001822: 00,2335           12236                           TCF      RIGHT                                 #  DO NORMAL SHIFT RIGHT.
001823:
001824: 00,2336           40125        LEFT-              CS       MPTEMP                                #  SAME PROLOGUE TO LEFT FOR INDEXED RIGHT
001825: 00,2337           62126                           AD       OCT176                                #  SHIFTS WHOSE NET SHIFT COUNT IS NEGATIVE
001826: 00,2340           54125                           TS       MPTEMP
001827:
001828: 00,2341           10153        LEFT               CCS      MODE                                  #  SINCE LEFT SHIFTING IS SONE ONE PLACE AT
001829: 00,2342           12345                           TCF      GENSCL                                #  A TIME, NO COMPARISON WITH 14 NEED BE
001830: 00,2343           12345                           TCF      GENSCL                                #  DONE. FOR SCALARS, SEE IF TERMINAL ROUND
001831: 00,2344           12145                           TCF      VSSL                                  #  DESIRED. FOR VECTORS, SHIFT IMMEDIATELY.
001832:
001833: 00,2345           37756        GENSCL             CAF      BIT6                                  #  PUT ROUNDING BIT (BIT10 OF ADDRWD) INTO
001834: 00,2346           00006                           EXTEND                                         #  BIT 15 OF CYR WHERE THE ROUNDING BIT OF
001835: 00,2347           70106                           MP       ADDRWD                                #  A SHORT SHIFT LEFT WOULD BE.
001836: 00,2350           54020                           TS       CYR
001837: 00,2351           12103                           TCF      TSSL       +2                         #  DO THE SHIFT.
001838:


001840:                                                                                                  #           SCALAR DIVISION INSTRUCTIONS, DDV AND BDDV, ARE EXECUTED HERE. AT THIS POINT, THE DIVIDEND IS IN MPAC
001841:                                                                                                  #  AND THE DIVISOR IN BUF.
001842:
001843: 00,2352           47763        DDV/BDDV           CS       ONE                                   #  INITIALIZATION.
001844: 00,2353           54126                           TS       DVSIGN                                #  +-1 FOR POSITIVE QUOTIENT - -0 FOR NEG.
001845: 00,2354           54127                           TS       DVNORMCT                              #  DIVIDEND NORMALIZATION COUNT.
001846: 00,2355           54130                           TS       MAXDVSW                               #  NEAR-ONE DIVIDE FLAG.
001847:
001848: 00,2356           10120                           CCS      BUF                                   #  FORCE BUF POSITIVE WITH THE MAJOR PART
001849: 00,2357           13712                           TCF      BUFPOS                                #  NON-ZERO.
001850: 00,2360           12362                           TCF      +2
001851: 00,2361           13725                           TCF      BUFNEG
001852:
001853: 00,2362           54146        BUFZERO            TS       MPAC       +2                         #  ZERO THIS.
001854: 00,2363           07327                           TC       TPAGREE                               #  FORCE SIGN AGREEMENT BEFORE OVERFLOW
001855:
001856: 00,2364           10144                           CCS      MPAC                                  #  TEST TO SEE IF MPAC NON-ZERO.  (TOO BIG)
001857: 00,2365           12412                           TCF      OVF+                                  #  MAJOR PART OF DIVIDEND IS POSITIVE NON-0
001858: 00,2366           12370                           TCF      +2
001859: 00,2367           12411                           TCF      OVF+       -1                         #  MAJOR PART OF DIVIDEND IS NEG. NON-ZERO
001860:
001861: 00,2370           56121                           XCH      BUF        +1                         #  SHIFT DIVIDEND AND DIVISOR LEFT 14.
001862: 00,2371           56120                           XCH      BUF
001863: 00,2372           56145                           XCH      MPAC       +1
001864: 00,2373           56144                           XCH      MPAC
001865: 00,2374           10120                           CCS      BUF                                   #  TRY AGAIN ON FORMER MINOR PART.
001866: 00,2375           12420                           TCF      BUF+
001867: 00,2376           12400                           TCF      +2                                    #  OVERFLOW ON ZERO DIVISOR.
001868: 00,2377           12414                           TCF      BUF-
001869:
001870: 00,2400           40144                           CS       MPAC                                  #  SIGN OF MPAC DETERMINES SIGN OF RESULT.
001871: 00,2401           00006        SGNDVOVF           EXTEND
001872: 00,2402           62404                           BZMF     +2
001873: 00,2403           24126                           INCR     DVSIGN                                #  NEGMAX IN MPAC PERHAPS.
001874: 00,2404           37743        DVOVF              CAF      POSMAX                                #  ON DIVISION OVERFLOW OF ANY SORT, SET
001875: 00,2405           54144                           TS       MPAC                                  #  SET DP MPAC TO +-POSMAX.
001876: 00,2406           02604                           TC       FINALDV    +3
001877: 00,2407           37763                           CAF      ONE                                   #  SET OVERFLOW INDICATOR AND EXIT.
001878: 00,2410           17153                           TCF      SETOVF
001879:
001880: 00,2411           24126                 -1        INCR     DVSIGN
001881: 00,2412           40121        OVF+               CS       BUF        +1                         #  LOAD LOWER ORDER PART OF DIVISOR.
001882: 00,2413           12401                           TCF      SGNDVOVF                              #  GET SIGN OF RESULT.
001883:
001884: 00,2414           00006        BUF-               EXTEND                                         #  IF BUF IS NEGATIVE, COMPLEMENT IT AND
001885: 00,2415           40121                           DCS      BUF                                   #  MAINTAIN DVSIGN FOR FINAL QUOTIENT SIGN.
001886: 00,2416           52121                           DXCH     BUF
001887: 00,2417           24126                           INCR     DVSIGN                                #  NOW -0.
001888:
001889: 00,2420           10144        BUF+               CCS      MPAC                                  #  FORCE MPAC POSITIVE, CHECKING FOR ZERO


001891: 00,2421           12435                           TCF      MPAC+                                 #  DIVIDEND IN THE PROCESS.
001892: 00,2422           12424                           TCF      +2
001893: 00,2423           12431                           TCF      MPAC-
001894: 00,2424           10145                           CCS      MPAC       +1
001895: 00,2425           12435                           TCF      MPAC+
001896: 00,2426           16125                           TCF      DANZIG                                #  EXIT IMMEDIATELY ON ZERO DIVIDEND.
001897: 00,2427           12431                           TCF      MPAC-
001898: 00,2430           16125                           TCF      DANZIG
001899:
001900: 00,2431           00006        MPAC-              EXTEND                                         #  FORCE MPAC POSITIVE AS BUF IN BUF-.
001901: 00,2432           40145                           DCS      MPAC
001902: 00,2433           52145                           DXCH     MPAC
001903: 00,2434           24126                           INCR     DVSIGN                                #  NOW +1 OR -0.
001904:


001906: 00,2435           40144        MPAC+              CS       MPAC                                  #  CHECK FOR DIVISION OVERFLOW. IF THE
001907: 00,2436           67771                           AD       NEGONE                                #  MAJOR PART OF THE DIVIDEND IS LESS THAN
001908: 00,2437           60120                           AD       BUF                                   #  THE MAJOR PART OF THE DIVISOR BY AT
001909: 00,2440           10000                           CCS      A                                     #  LEAST TWO, WE CAN PROCEED IMMEDIATELY
001910: 00,2441           12503                           TCF      DVNORM                                #  WITHOUT NORMALIZATION PRODUCING A DVMAX.
001911: 00,2442           60001        -1/2+2             OCT      60001                                 #  USED IN SQRTSUB.
001912:
001913: 00,2443           12444                           TCF      +1                                    #  IF THE ABOVE DOES NOT HOLD, FORCE SIGN
001914: 00,2444           37746                           CAF      HALF                                  #  AGREEMENT IN NUMERATOR AND DENOMINATOR
001915: 00,2445           60000                           DOUBLE                                         #  TO FACILITATE OVERFLOW AND NEAR-ONE
001916: 00,2446           60145                           AD       MPAC       +1                         #  CHECKING.
001917: 00,2447           54145                           TS       MPAC       +1
001918: 00,2450           37767                           CAF      ZERO
001919: 00,2451           67743                           AD       POSMAX
001920: 00,2452           26144                           ADS      MPAC
001921:
001922: 00,2453           37746                           CAF      HALF                                  #  SAME FOR BUF.
001923: 00,2454           60000                           DOUBLE
001924: 00,2455           60121                           AD       BUF        +1
001925: 00,2456           54121                           TS       BUF        +1
001926: 00,2457           37767                           CAF      ZERO
001927: 00,2460           67743                           AD       POSMAX
001928: 00,2461           26120                           ADS      BUF
001929:
001930: 00,2462           40144                           CS       MPAC                                  #  CHECK MAGNITUDE OF SIGN-CORRECTED
001931: 00,2463           60120                           AD       BUF                                   #  OPERANDS.
001932: 00,2464           10000                           CCS      A
001933: 00,2465           12503                           TCF      DVNORM                                #  DIVIDE OK - WILL NOT BECOME MAXDV CASE.
001934: 00,2466           00123        LBUF2              ADRES    BUF2
001935: 00,2467           12404                           TCF      DVOVF                                 #  DIVISOR NOT LESS THAN DIVIDEND - OVF.
001936:
001937: 00,2470           54130                           TS       MAXDVSW                               #  IF THE MAJOR PARTS OF THE DIVIDEND AND
001938: 00,2471           40145                           CS       MPAC       +1                         #  DIVISOR ARE EQUAL, A SPECIAL APPROXIMA-
001939: 00,2472           60121                           AD       BUF        +1                         #  TION IS USED (PROVIDED THE DIVISION IS
001940: 00,2473           00006                           EXTEND                                         #  POSSIBLE, OF COURSE).
001941: 00,2474           62404                           BZMF     DVOVF
001942: 00,2475           12503                           TCF      DVNORM                                #  IF NO OVERFLOW.
001943:


001945: 00,2476           00006        BUFNORM            EXTEND                                         #  ADD -1 TO AUGMENT SHIFT COUNT AND SHIFT
001946: 00,2477           24127                           AUG      DVNORMCT                              #  LEFT ONE PLACE.
001947: 00,2500           00006                           EXTEND
001948: 00,2501           30121                           DCA      BUF
001949: 00,2502           20121                           DAS      BUF
001950:
001951: 00,2503           30120        DVNORM             CA       BUF                                   #  SEE IF DIVISOR NORMALIZED YET.
001952: 00,2504           60000                           DOUBLE
001953: 00,2505           54000                           OVSK
001954: 00,2506           12476                           TCF      BUFNORM                               #  NO - SHIFT LEFT ONE AND TRY AGAIN.
001955:
001956: 00,2507           52145                           DXCH     MPAC                                  #  CALL DIVIDEND NORMALIZATION SEQUENCE
001957: 00,2510           50127                           INDEX    DVNORMCT                              #  PRIOR TO DOING THE DIVIDE.
001958: 00,2511           02541                           TC       MAXTEST
001959:
001960: 00,2512           54146                           TS       MPAC       +2                         #  RETURNS WITH DIVISION DONE AND C(A) = 0.
001961: 00,2513           16125                           TCF      DANZIG
001962:


001964:                                                                                                  #           THE FOLLOWING ARE PROLOGUES TO SHIFT THE DIVIDEND ARRIVING IN A AND L BEFORE THE DIVIDE.
001965:
001966: 00,2514           22021                 -21D      LXCH     SR                                    #  SPECIAL PROLOGUE FOR UNIT WHEN THE
001967: 00,2515           00006                           EXTEND                                         #  LENGTH OF THE ARGUMENT WAS NOT LESS THAN
001968: 00,2516           77746                           MP       HALF                                  #  .5. IN THIS CASE, EACH COMPONENT MUST BE
001969: 00,2517           56001                           XCH      L                                     #  SHIFTED RIGHT ONE TO PRODUCE A HALF-UNIT
001970: 00,2520           60021                           AD       SR                                    #  VECTOR.
001971: 00,2521           56001                           XCH      L
001972: 00,2522           12545                           TCF      GENDDV     +1                         #  WITH DP DIVIDEND IN A,L.
001973:
001974: 00,2523           20001                           DDOUBL                                         #  PROLOGUE WHICH NORMALIZES THE DIVIDEND
001975: 00,2524           20001                           DDOUBL                                         #  WHEN IT IS KNOWN THAT NO DIVISION
001976: 00,2525           20001                           DDOUBL                                         #  OVEFLOW WILL OCCUR.
001977: 00,2526           20001                           DDOUBL
001978: 00,2527           20001                           DDOUBL
001979: 00,2530           20001                           DDOUBL
001980: 00,2531           20001                           DDOUBL
001981: 00,2532           20001                           DDOUBL
001982: 00,2533           20001                           DDOUBL
001983: 00,2534           20001                           DDOUBL
001984: 00,2535           20001                           DDOUBL
001985: 00,2536           20001                           DDOUBL
001986: 00,2537           20001                           DDOUBL
001987: 00,2540           52145                           DXCH     MPAC
001988:
001989: 00,2541           10130        MAXTEST            CCS      MAXDVSW                               #  0 IF MAJORS MIGHT BE =, -1 OTHERWISE.
001990: 00,2542           06552        BIASHI             DEC      .4192      B-1                        #  SQRT CONSTANTS
001991:
001992: 00,2543           12616                           TCF      MAXDV                                 #  CHECK TO SEE IF THAY ARE NOW EQUAL.
001993:


001995:                                                                                                  #           THE FOLLOWING IS A GENERAL PURPOSE DOUBLE PRECISION DIVISION ROUTINE. IT DIVIDES MPAC BY BUF AND LEAVES
001996:                                                                                                  #  THE RESULT IN MPAC. THE FOLLOWING CONDITIONS MUST BE SATISFIED:
001997:
001998:                                                                                                  #           1.  THE DIVISOR (BUF) MUST BE POSITIVE AND NOT LESS THAN .5.
001999:
002000:                                                                                                  #           2.  THE DIVIDEND (MPAC) MUST BE POSITIVE WITH THE MAJOR PART OF MPAC STRICTLY LESS THAN THAT OF BUF
002001:                                                                                                  #  (A SPECIAL APPROXIMATION, MAXDV, IS USED WHEN THE MAJOR PARTS ARE EQUAL).
002002:
002003:                                                                                                  #           UNDERSTANDING THAT A/B = Q + S(R/B) WHERE S = 2(-14) AND Q AND R ARE QUOTIENT AND REMAINDER, RESPEC-
002004:                                                                                                  #  TIVELY, THE FOLLOWING APPROXIMATION IS OBTAINED BY MULTIPLYING ABOVE AND BELOW BY C - SD AND NEGLECTING TERMS OF
002005:                                                                                                  #  ORDER S-SQUARED (POSSIBLY INTRODUCING ERROR INTO THE LOW TWO BITS OF THE RESULT). SIGN AGREEMENT IS UNNECESSARY.
002006:
002007:                                                                                                  #           A + SB .      (R - QD)                                             A + SB
002008:                                                                                                  #           ------ = Q + S(------) WHERE Q AND R ARE QUOTIENT AND REMAINDER OF ------ RESPECTIVELY.
002009:                                                                                                  #           C + SD        (  C   }                                                C
002010:
002011:
002012: 00,2544           52145        GENDDV             DXCH     MPAC                                  #  WE NEED A AND B ONLY FOR FIRST DV.
002013: 00,2545           00006                 +1        EXTEND                                         #  (SPECIAL UNIT PROLOGUE ENTERS HERE).
002014: 00,2546           10120                           DV       BUF                                   #  A NOW CONTAINS Q AND L, R.
002015: 00,2547           52145                           DXCH     MPAC
002016:
002017: 00,2550           40144                           CS       MPAC                                  #  FORM DIVIDEND FOR MINOR PART OF RESULT.
002018: 00,2551           00006                           EXTEND
002019: 00,2552           70121                           MP       BUF        +1
002020: 00,2553           60145                           AD       MPAC       +1                         #  OVERFLOW AT THIS POINT IS POSITIVE SINCE
002021: 00,2554           54000                           OVSK                                           #  R IS POSITIVE IN EVERY CASE.
002022: 00,2555           12562                           TCF      +5
002023:
002024: 00,2556           00006                           EXTEND                                         #  OVERFLOW CAN BE REMOVED BY SUBTRACTING C
002025: 00,2557           60120                           SU       BUF                                   #  (BUF) ONCE SINCE R IS ALWAYS LESS THAN C
002026: 00,2560           24144                           INCR     MPAC                                  #  IN THIS CASE. INCR COMPENSATES SUBTRACT.
002027: 00,2561           12564                           TCF      +DOWN                                 #  (SINCE C(A) IS STILL POSITIVE).
002028:
002029: 00,2562           00006                 +5        EXTEND                                         #  C(A) CAN BE MADE LESS THAN C IN MAGNI-
002030: 00,2563           62574                           BZMF     -UP                                   #  TUDE BY DIMINISHING IT BY C (SINCE C IS
002031:                                                                                                  #  NOT LESS THAN .5) UNLESS C(A) = 0.
002032:


002034: 00,2564           00006        +DOWN              EXTEND
002035: 00,2565           60120                           SU       BUF                                   #  IF POSITIVE, REDUCE ONLY IF NECESSARY
002036: 00,2566           00006                           EXTEND                                         #  SINCE THE COMPENSATING INCR MIGHT CAUSE
002037: 00,2567           12572                           BZF      +3                                    #  OVERFLOW.
002038: 00,2570           00006                           EXTEND                                         #  DONT SUBTRACT UNLESS RESULT IS POSITIVE
002039: 00,2571           62600                           BZMF     ENDMAXDV                              #  OR ZERO.
002040:
002041: 00,2572           24144                 +3        INCR     MPAC                                  #  KEEP SUBTRACT HERE AND COMPENSATE.
002042: 00,2573           12601                           TCF      FINALDV
002043:
002044: 00,2574           00006        -UP                EXTEND                                         #  IF ZERO, SET MINOR PART OF RESULT TO
002045: 00,2575           12604                           BZF      FINALDV    +3                         #  ZERO.
002046:
002047: 00,2576           00006                           EXTEND                                         #  IF NEGATIVE, ADD C TO A, SUBTRACTING ONE
002048: 00,2577           26144                           DIM      MPAC                                  #  TO COMPENSATE. DIM IS OK HERE SINCE THE
002049: 00,2600           60120        ENDMAXDV           AD       BUF                                   #  MAJOR PART NEVER GOES NEGATIVE.
002050:


002052: 00,2601           22007        FINALDV            ZL                                             #  DO DV TO OBTAIN MINOR PART OF RESULT.
002053: 00,2602           00006                           EXTEND
002054: 00,2603           10120                           DV       BUF
002055: 00,2604           54145                 +3        TS       MPAC       +1
002056:
002057: 00,2605           10126                           CCS      DVSIGN                                #  LEAVE RESULT POSITIVE UNLESS C(DVSIGN)=
002058: 00,2606           00002                           TC       Q                                     #  -0.
002059: 00,2607           00002                           TC       Q
002060: 00,2610           00002                           TC       Q
002061:
002062: 00,2611           00006                           EXTEND
002063: 00,2612           40145                           DCS      MPAC
002064: 00,2613           52145                           DXCH     MPAC
002065: 00,2614           37767                           CAF      ZERO                                  #  SO WE ALWAYS RETURN WITH C(A) = 0.
002066: 00,2615           00002                           TC       Q
002067:


002069:                                                                                                  #           IF THE MAJOR PARTS OF THE DIVISOR AND DIVIDEND ARE EQUAL, BUT THE MINOR PARTS ARE SUCH THAT THE
002070:                                                                                                  #  DIVIDEND IS STRICTLY LESS THAN THE DIVISOR IN MAGNITUDE, THE FOLLOWING APPROXIMATION IS USED. THE ASSUMPTIONS
002071:                                                                                                  #  ARE THE SAME AS THE GENERAL ROUTINE WITH THE ADDITION THAT SIGN AGREEMENT IS NECESSARY (B, C, & D POSITIVE).
002072:
002073:                                                                                                  #                  C + SB .          (C + B - D)
002074:                                                                                                  #                  ------ = 37777 + S(---------)
002075:                                                                                                  #                  C + SD            (    C    )
002076:
002077:                                                                                                  #           THE DIVISION MAY BE PERFORMED IMMEDIATELY SINCE B IS STRICTLY LESS THAN D AND C IS NOT LESS THAN .5.
002078:
002079:
002080: 00,2616           40144        MAXDV              CS       MPAC                                  #  SEE IF MAXDV CASE STILL HOLDS AFTER
002081: 00,2617           60120                           AD       BUF                                   #  NORMALIZATION.
002082: 00,2620           00006                           EXTEND
002083: 00,2621           12623                           BZF      +2
002084: 00,2622           12544                           TCF      GENDDV                                #  MPAC NOW LESS THAN BUFF - DIVIDE AS USUAL
002085:
002086: 00,2623           37743                 +2        CAF      POSMAX                                #  SET MAJOR PART OF RESULT.
002087: 00,2624           54144                           TS       MPAC
002088:
002089: 00,2625           40121                           CS       BUF        +1                         #  FORM DIVIDEND OF MINOR PART OF RESULT.
002090: 00,2626           60145                           AD       MPAC       +1
002091: 00,2627           12600                           TCF      ENDMAXDV                              #  GO ADD C AND DO DIVIDE, ATTACHING SIGN
002092:                                                                                                  #  BEFORE EXITING.
002093:


002095:                                                                                                  #           VECTOR DIVIDED BY SCALAR, V/SC, IS EXECUTED HERE. THE VECTOR IS NOW IN MPAC WITH SCALAR IN BUF.
002096:
002097: 00,2630           47763        V/SC2              CS       ONE                                   #  INITIALIZE DIVIDEND NORMALIZATION COUNT
002098: 00,2631           54127                           TS       DVNORMCT                              #  AND DIVISION SIGN REGISTER.
002099: 00,2632           54117                           TS       VBUF       +5
002100:
002101: 00,2633           10120                           CCS      BUF                                   #  FORCE DIVISOR POSITIVE WITH MAJOR PART
002102: 00,2634           12671                           TCF      /BUF+                                 #  NON-ZERO (IF POSSIBLE).
002103: 00,2635           12637                           TCF      +2
002104: 00,2636           12665                           TCF      /BUF-
002105:
002106: 00,2637           56121                           XCH      BUF        +1                         #  SHIFT VECTOR AND SCALAR LEFT 14.
002107: 00,2640           56120                           XCH      BUF
002108: 00,2641           56145                           XCH      MPAC       +1
002109: 00,2642           56144                           XCH      MPAC
002110: 00,2643           00006                           EXTEND                                         #  CHECK FOR OVERFLOW IN EACH CASE.
002111: 00,2644           12646                           BZF      +2
002112: 00,2645           12404                           TCF      DVOVF
002113:
002114: 00,2646           56150                           XCH      MPAC       +4
002115: 00,2647           56147                           XCH      MPAC       +3
002116: 00,2650           00006                           EXTEND
002117: 00,2651           12653                           BZF      +2
002118: 00,2652           12404                           TCF      DVOVF
002119:
002120: 00,2653           56152                           XCH      MPAC       +6
002121: 00,2654           56151                           XCH      MPAC       +5
002122: 00,2655           00006                           EXTEND
002123: 00,2656           12660                           BZF      +2
002124: 00,2657           12404                           TCF      DVOVF
002125:
002126: 00,2660           10120                           CCS      BUF
002127: 00,2661           12671                           TCF      /BUF+
002128: 00,2662           12404                           TCF      DVOVF                                 #  ZERO DIVISOR - OVERFLOW.
002129: 00,2663           12665                           TCF      /BUF-
002130: 00,2664           12404                           TCF      DVOVF
002131:
002132: 00,2665           00006        /BUF-              EXTEND                                         #  ON NEGATIVE, COMPLEMENT BUF AND MAINTAIN
002133: 00,2666           40121                           DCS      BUF                                   #  DVSIGN IN VBUF +5.
002134: 00,2667           52121                           DXCH     BUF
002135: 00,2670           24117                           INCR     VBUF       +5
002136:


002138: 00,2671           37746        /BUF+              CAF      HALF                                  #  FORCE SIGN AGREEMENT IN DIVISOR.
002139: 00,2672           60000                           DOUBLE
002140: 00,2673           60121                           AD       BUF        +1
002141: 00,2674           54121                           TS       BUF        +1
002142: 00,2675           37767                           CAF      ZERO
002143: 00,2676           67743                           AD       POSMAX
002144: 00,2677           26120                           ADS      BUF
002145:
002146: 00,2700           56123                           XCH      BUF2                                  #  LEAVE ABS(ORIGINAL DIVISOR) IN BUF2 FOR
002147: 00,2701           30121                           CA       BUF        +1                         #  OVERFLOW TESTING.
002148: 00,2702           54124                           TS       BUF2       +1
002149: 00,2703           12711                           TCF      /NORM                                 #  NORMALIZE DIVISOR IN BUF.
002150:
002151: 00,2704           00006        /NORM2             EXTEND                                         #  IF LESS THAN .5, AUGMENT DVNORMCT AND
002152: 00,2705           24127                           AUG      DVNORMCT                              #  DOUBLE DIVISOR.
002153: 00,2706           00006                           EXTEND
002154: 00,2707           30121                           DCA      BUF
002155: 00,2710           20121                           DAS      BUF
002156:
002157: 00,2711           30120        /NORM              CA       BUF                                   #  SEE IF DIVISOR NORMALIZED.
002158: 00,2712           60000                           DOUBLE
002159: 00,2713           54000                           OVSK
002160: 00,2714           12704                           TCF      /NORM2                                #  DOUBLE AND TRY AGAIN IF NOT.
002161:
002162: 00,2715           02727                           TC       V/SCDV                                #  DO X COMPONENT DIVIDE.
002163: 00,2716           52150                           DXCH     MPAC       +3                         #  SUPPLY ARGUMENTS IN USUAL SEQUENCE.
002164: 00,2717           52145                           DXCH     MPAC
002165: 00,2720           52150                           DXCH     MPAC       +3
002166:
002167: 00,2721           02727                           TC       V/SCDV                                #  Y COMPONENT.
002168: 00,2722           52152                           DXCH     MPAC       +5
002169: 00,2723           52145                           DXCH     MPAC
002170: 00,2724           52152                           DXCH     MPAC       +5
002171:
002172: 00,2725           02727                           TC       V/SCDV                                #  Z COMPONENT.
002173: 00,2726           17477                           TCF      VROTATEX                              #  GO RE-ARRANGE COMPONENTS BEFORE EXIT.
002174:


002176:                                                                                                  #           SUBROUTINE USED BY V/SC TO DIVIDE VECTOR COMPONENT IN MPAC,+1 BY THE SCALAR GIVEN IN BUF.
002177:
002178: 00,2727           30117        V/SCDV             CA       VBUF       +5                         #  REFLECTS SIGN OF SCALAR.
002179: 00,2730           54126                           TS       DVSIGN
002180:
002181: 00,2731           10144                           CCS      MPAC                                  #  FORCE MPAC POSITIVE, EXITING ON ZERO.
002182: 00,2732           12746                           TCF      /MPAC+
002183: 00,2733           12735                           TCF      +2
002184: 00,2734           12742                           TCF      /MPAC-
002185:
002186: 00,2735           10145                           CCS      MPAC       +1
002187: 00,2736           12746                           TCF      /MPAC+
002188: 00,2737           00002                           TC       Q
002189: 00,2740           12742                           TCF      /MPAC-
002190: 00,2741           00002                           TC       Q
002191:
002192: 00,2742           00006        /MPAC-             EXTEND                                         #  USUAL COMPLEMENTING AND SETTING OF SIGN.
002193: 00,2743           40145                           DCS      MPAC
002194: 00,2744           52145                           DXCH     MPAC
002195: 00,2745           24126                           INCR     DVSIGN
002196:
002197: 00,2746           47763        /MPAC+             CS       ONE                                   #  INITIALIZE NEAR-ONE SWITCH.
002198: 00,2747           54130                           TS       MAXDVSW
002199:
002200: 00,2750           40144                           CS       MPAC                                  #  CHECK POSSIBLE OVERFLOW.
002201: 00,2751           60123                           AD       BUF2                                  #  UNNORMALIZED INPUT DIVISOR.
002202: 00,2752           00006                           EXTEND
002203: 00,2753           62757                           BZMF     /AGREE                                #  CHECK FOR NEAR-ONE OR OVERFLOW.
002204:
002205: 00,2754           52145        DDVCALL            DXCH     MPAC                                  #  CALL PRE-DIVIDE NORMALIZATION.
002206: 00,2755           50127                           INDEX    DVNORMCT
002207: 00,2756           12541                           TCF      MAXTEST
002208:


002210: 00,2757           37746        /AGREE             CAF      HALF                                  #  FORCE SIGN AGREEMENT IN DIVIDEND
002211: 00,2760           60000                           DOUBLE
002212: 00,2761           60145                           AD       MPAC       +1
002213: 00,2762           54145                           TS       MPAC       +1
002214: 00,2763           37767                           CAF      ZERO
002215: 00,2764           67743                           AD       POSMAX
002216: 00,2765           26144                           ADS      MPAC
002217:
002218: 00,2766           40144                           CS       MPAC                                  #  CHECK TO SEE IF OVERFLOW GONE OR IF
002219: 00,2767           60123                           AD       BUF2                                  #  NEAR-ONE CASE IS PRESENT.
002220: 00,2770           10000                           CCS      A
002221: 00,2771           12754                           TCF      DDVCALL                               #  NOT NEAR-ONE.
002222: 00,2772           32506        SLOPELO            DEC      .8324
002223: 00,2773           12404                           TCF      DVOVF                                 #  NO HOPE.
002224:
002225: 00,2774           54130                           TS       MAXDVSW                               #  SIGNAL POSSIBLE NEAR-ONE CASE.
002226: 00,2775           40145                           CS       MPAC       +1                         #  SEE IF DIVISION CAN BE DONE.
002227: 00,2776           60124                           AD       BUF2       +1
002228: 00,2777           00006                           EXTEND
002229: 00,3000           62404                           BZMF     DVOVF
002230: 00,3001           12754                           TCF      DDVCALL                               #  GOING TO MAXDV.
002231:


002233:                                                                                                  #           THE FOLLOWING ROUTINE EXECUTES THE UNIT INSTRUCTION, WHICH TAKES THE UNIT OF THE VECTOR IN MPAC.
002234:
002235: 00,3002           07612        UNIT               TC       MPACVBUF                              #  SAVE ARGUMENT IN VBUF.
002236: 00,3003           37767                           CAF      ZERO                                  #  MUST SENSE OVERFLOW IN FOLLOWING DOT.
002237: 00,3004           56111                           XCH      OVFIND
002238: 00,3005           54131                           TS       TEM1
002239: 00,3006           03301                           TC       VSQSUB                                #  DOT MPAC WITH ITSELF.
002240: 00,3007           30131                           CA       TEM1
002241: 00,3010           56111                           XCH      OVFIND
002242: 00,3011           00006                           EXTEND
002243: 00,3012           13014                           BZF      +2
002244: 00,3013           12404                           TCF      DVOVF
002245: 00,3014           00006                           EXTEND
002246: 00,3015           30145                           DCA      MPAC                                  #  LEAVE THE SQUARE OF THE LENGTH OF THE
002247: 00,3016           50110                           INDEX    FIXLOC                                #  ARGUMENT IN LVSQUARE.
002248: 00,3017           52043                           DXCH     LVSQUARE
002249:
002250: 00,3020           03325                           TC       SQRTSUB                               #  GO TAKE THE NORMALIZED SQUARE ROOT.
002251:
002252: 00,3021           10144                           CCS      MPAC                                  #  CHECK FOR UNIT OVERFLOW.
002253: 00,3022           13027                           TCF      +5                                    #  MPAC IS NOT LESS THAN .5 UNLESS
002254: 00,3023           54001                           TS       L
002255: 00,3024           50110                           INDEX    FIXLOC
002256: 00,3025           52045                           DXCH     LV
002257: 00,3026           12404                           TCF      DVOVF                                 #  INPUT TO SQRTSUB WAS 0.
002258:
002259: 00,3027           43130                           CS       FOURTEEN                              #  SEE IF THE INPUT WAS SO SMALL THE THE
002260: 00,3030           60125                           AD       MPTEMP                                #  FIRST TWO REGISTERS OF THE SQUARE WERE 0
002261: 00,3031           10000                           CCS      A
002262: 00,3032           40000                           COM                                            #  IF SO, SAVE THE NEGATIVE OF THE SHIFT
002263: 00,3033           13111                           TCF      SMALL                                 #  COUNT -15D.
002264:
002265: 00,3034           13043                           TCF      LARGE                                 #  (THIS IS USUALLY THE CASE.)
002266:
002267: 00,3035           43127                           CS       THIRTEEN                              #  IF THE SHIFT COUNT WAS EXACTLY 14, SET
002268: 00,3036           54125                           TS       MPTEMP                                #  THE PRE-DIVIDE NORM COUNT TO -13D.
002269:
002270: 00,3037           30144                           CA       MPAC                                  #  SHIFT THE LENGTH RIGHT 14 BEFORE STORING
002271: 00,3040           54001        SMALL2             TS       L                                     #  (SMALL EXITS TO THIS POINT).
002272: 00,3041           37767                           CAF      ZERO
002273: 00,3042           13070                           TCF      LARGE2                                #  GO TO STORE LENGTH AND PROCEED.
002274:
002275: 00,3043           10125        LARGE              CCS      MPTEMP                                #  MOST ALL CASES COME HERE.
002276: 00,3044           13052                           TCF      LARGE3                                #  SEE IF NO NORMALIZATION WAS REQUIRED BY
002277:
002278: 00,3045           42024                           CS       SRDDV                                 #  SQRT, AND IF SO, SET UP FOR A SHIFT
002279: 00,3046           54125                           TS       MPTEMP                                #  RIGHT 1 BEFORE DIVIDING TO PRODUCE
002280: 00,3047           00006                           EXTEND                                         #  THE DESIRED HALF UNIT VECTOR.
002281: 00,3050           30145                           DCA      MPAC
002282: 00,3051           13070                           TCF      LARGE2
002283:


002285: 00,3052           40000        LARGE3             COM                                            #  LEAVE NEGATIVE OF SHIFT COUNT-1 FOR
002286: 00,3053           54125                           TS       MPTEMP                                #  PREDIVIDE LEFT SHIFT.
002287:
002288: 00,3054           40000                           COM                                            #  PICK UP REQUIRED SHIFTING BIT TO UNNORM-
002289: 00,3055           50000                           INDEX    A                                     #  ALIZE THE SQRT RESULT.
002290: 00,3056           37746                           CAF      BIT14
002291: 00,3057           54120                           TS       BUF
002292: 00,3060           00006                           EXTEND
002293: 00,3061           70145                           MP       MPAC       +1
002294: 00,3062           56120                           XCH      BUF
002295: 00,3063           00006                           EXTEND                                         #  (UNNORMALIZE THE SQRT FOR LV).
002296: 00,3064           70144                           MP       MPAC
002297: 00,3065           56001                           XCH      L
002298: 00,3066           60120                           AD       BUF
002299: 00,3067           56001                           XCH      L
002300:
002301: 00,3070           50110        LARGE2             INDEX    FIXLOC
002302: 00,3071           52045                           DXCH     LV                                    #  LENGTH NOW STORED IN WORK AREA.
002303:
002304: 00,3072           47763                           CS       ONE
002305: 00,3073           54130                           TS       MAXDVSW                               #  NO MAXDV CASES IN UNIT.
002306:
002307: 00,3074           52113                           DXCH     VBUF                                  #  PREPARE X COMPONENT FOR DIVIDE, SETTING
002308: 00,3075           52145                           DXCH     MPAC                                  #  LENGTH OF VECTOR AS DIVISOR IN BUF.
002309: 00,3076           52121                           DXCH     BUF
002310: 00,3077           03131                           TC       UNITDV
002311:
002312: 00,3100           52115                           DXCH     VBUF       +2                         #  DO Y AND Z IN USUAL FASHION SO WE CAN
002313: 00,3101           52145                           DXCH     MPAC                                  #  EXIT THROUGH VROTATEX.
002314: 00,3102           52150                           DXCH     MPAC       +3
002315: 00,3103           03131                           TC       UNITDV
002316:
002317: 00,3104           52117                           DXCH     VBUF       +4
002318: 00,3105           52145                           DXCH     MPAC
002319: 00,3106           52152                           DXCH     MPAC       +5
002320: 00,3107           03131                           TC       UNITDV
002321: 00,3110           17477                           TCF      VROTATEX                              #  AND EXIT.
002322:


002324:                                                                                                  #           IF THE LENGTH OF THE ARGUMENT VECTOR WAS LESS THAN 2(-28), EACH COMPONENT MUST BE SHIFTED LEFT AT LEAST
002325:                                                                                                  #  14 PLACES BEFORE THE DIVIDE. NOTE THAT IN THIS CASE, THE MAJOR PART OF EACH COMPONENT IS ZERO.
002326:
002327: 00,3111           54125        SMALL              TS       MPTEMP                                #  NEGATIVE OF PRE-DIVIDE SHIFT COUNT.
002328:
002329: 00,3112           37767                           CAF      ZERO                                  #  SHIFT EACH COMPONENT LEFT 14.
002330: 00,3113           56113                           XCH      VBUF       +1
002331: 00,3114           56112                           XCH      VBUF
002332: 00,3115           56115                           XCH      VBUF       +3
002333: 00,3116           56114                           XCH      VBUF       +2
002334: 00,3117           56117                           XCH      VBUF       +5
002335: 00,3120           56116                           XCH      VBUF       +4
002336:
002337: 00,3121           40125                           CS       MPTEMP
002338: 00,3122           50000                           INDEX    A
002339: 00,3123           37746                           CAF      BIT14
002340: 00,3124           00006                           EXTEND
002341: 00,3125           70144                           MP       MPAC
002342: 00,3126           13040                           TCF      SMALL2
002343:
002344: 00,3127           00015        THIRTEEN           DEC      13         B-14
002345: 00,3130           00016        FOURTEEN           DEC      14         B-14
002346:


002348:                                                                                                  #           THE FOLLOWING ROUTINE SETS UP THE CALL TO THE DIVIDE ROUTINES.
002349:
002350: 00,3131           10144        UNITDV             CCS      MPAC                                  #  FORCE MPAC POSITIVE IF POSSIBLE, SETTING
002351: 00,3132           13150                           TCF      UMPAC+                                #  DVSIGN ACCORDING TO THE SIGN OF MPAC
002352: 00,3133           13135                           TCF      +2                                    #  SINCE THE DIVISOR IS ALWAYS POSITIVE
002353: 00,3134           13142                           TCF      UMPAC-                                #  HERE.
002354:
002355: 00,3135           10145                           CCS      MPAC       +1
002356: 00,3136           13150                           TCF      UMPAC+
002357: 00,3137           00002                           TC       Q                                     #  EXIT IMMEDIATELY ON ZERO.
002358: 00,3140           13142                           TCF      UMPAC-
002359: 00,3141           00002                           TC       Q
002360:
002361: 00,3142           47767        UMPAC-             CS       ZERO                                  #  IF NEGATIVE, SET -0 IN DVSIGN FOR FINAL
002362: 00,3143           54126                           TS       DVSIGN                                #  COMPLEMENT.
002363: 00,3144           00006                           EXTEND
002364: 00,3145           40145                           DCS      MPAC                                  #  PICK UP ABSOLUTE VALUE OF ARG AND JUMP.
002365: 00,3146           50125                           INDEX    MPTEMP
002366: 00,3147           12540                           TCF      MAXTEST    -1
002367:
002368: 00,3150           54126        UMPAC+             TS       DVSIGN                                #  SET DVSIGN FOR POSITIVE QUOTIENT.
002369: 00,3151           52145                           DXCH     MPAC
002370: 00,3152           50125                           INDEX    MPTEMP
002371: 00,3153           12540                           TCF      MAXTEST    -1
002372:


002374:                                                                                                  #           MISCELLANEOUS UNARY OPERATIONS.
002375:
002376: 00,3154           03262        DSQ                TC       DSQSUB                                #  SQUARE THE DP CONTENTS OF MPAC.
002377: 00,3155           16125                           TCF      DANZIG
002378:
002379: 00,3156           10153        ABVALABS           CCS      MODE                                  #  ABVAL OR ABS INSTRUCTION.
002380: 00,3157           13206                           TCF      ABS                                   #  DO ABS ON SCALAR.
002381: 00,3160           13206                           TCF      ABS
002382:
002383: 00,3161           03301        ABVAL              TC       VSQSUB                                #  DOT MPAC WITH ITSELF.
002384: 00,3162           22153                           LXCH     MODE                                  #  MODE IS NOW DP (L ZERO AFTER DAS).
002385:
002386: 00,3163           00006                           EXTEND                                         #  STORE SQUARE OF LENGTH IN WORK AREA.
002387: 00,3164           30145                           DCA      MPAC
002388: 00,3165           50110                           INDEX    FIXLOC
002389: 00,3166           52043                           DXCH     LVSQUARE
002390:
002391: 00,3167           03325        SQRT               TC       SQRTSUB                               #  TAKE THE SQUARE ROOT OF MPAC.
002392: 00,3170           10125                           CCS      MPTEMP                                #  RETURNED NORMALIZED SQUARE ROOT. SEE IF
002393: 00,3171           13173                           TCF      +2                                    #  ANY UN-NORMALIZATION REQUIRED AND EXIT
002394: 00,3172           16125                           TCF      DANZIG                                #  IF NOT.
002395:
002396: 00,3173           63710                           AD       NEG12                                 #  A RIGHT SHIFT OF MORE THAN 13 COULD BE
002397: 00,3174           00006                           EXTEND                                         #  REQUIRED IF INPUT WAS ZERO IN MPAC,+1.
002398: 00,3175           63201                           BZMF     SQRTSHFT                              #  GOES HERE IN MOST CASES.
002399: 00,3176           22007                           ZL                                             #  IF A LONG SHIFT IS REQUIRED, GO TO
002400: 00,3177           22106                           LXCH     ADDRWD                                #  GENERAL RIGHT SHIFT ROUTINES.
002401: 00,3200           12303                           TCF      GENSCR     +4                         #  ADDRWD WAS ZERO TO PREVENT ROUND.
002402:
002403: 00,3201           50125        SQRTSHFT           INDEX    MPTEMP                                #  SELECT SHIFTING BIT AND EXIT THROUGH
002404: 00,3202           37745                           CAF      BIT15                                 #  SHIFT ROUTINES.
002405: 00,3203           54125                           TS       MPTEMP
002406: 00,3204           37767                           CAF      ZERO                                  #  TO ZERO MPAC +2 IN THE PROCESS.
002407: 00,3205           12036                           TCF      MPACSHR    +3
002408:
002409: 00,3206           07001        ABS                TC       BRANCH                                #  TEST SIGN OF MPAC AND COMPLEMENT IF
002410: 00,3207           16125                           TCF      DANZIG
002411: 00,3210           16125                           TCF      DANZIG
002412: 00,3211           17722                           TCF      COMP
002413:


002415: 00,3212           47761        VDEF               CS       FOUR                                  #  VECTOR DEFINE - ESSENTIALLY TREATS
002416: 00,3213           26156                           ADS      PUSHLOC                               #  SCALAR IN MPAC AS X COMPONENT, PUSHES UP
002417: 00,3214           00006                           EXTEND                                         #  FOR Y AND THEN AGAIN FOR Z.
002418: 00,3215           50000                           INDEX    A
002419: 00,3216           30003                           DCA      2
002420: 00,3217           52150                           DXCH     MPAC       +3
002421: 00,3220           00006                           EXTEND
002422: 00,3221           50156                           INDEX    PUSHLOC
002423: 00,3222           30001                           DCA      0
002424: 00,3223           52152                           DXCH     MPAC       +5
002425: 00,3224           47763                           CS       ONE                                   #  MODE IS NOW VECTOR.
002426: 00,3225           16124                           TCF      NEWMODE
002427:
002428: 00,3226           03301        VSQ                TC       VSQSUB                                #  DOT MPAC WITH ITSELF.
002429: 00,3227           37767                           CAF      ZERO
002430: 00,3230           16124                           TCF      NEWMODE                               #  MODE IS NOW DP.
002431:
002432: 00,3231           00006        PUSH               EXTEND                                         #  PUSH DOWN MPAC LEAVING IT LOADED.
002433: 00,3232           30145                           DCA      MPAC
002434: 00,3233           50156                           INDEX    PUSHLOC                               #  PUSH DOWN FIRST TWO REGISTERS IN EACH
002435: 00,3234           52001                           DXCH     0
002436:
002437: 00,3235           50153                           INDEX    MODE                                  #  INCREMENT PUSHDOWN POINTER.
002438: 00,3236           36310                           CAF      NO.WDS
002439: 00,3237           26156                           ADS      PUSHLOC
002440:
002441: 00,3240           10153                           CCS      MODE
002442: 00,3241           13254                           TCF      TPUSH                                 #  PUSH DOWN MPAC +2.
002443: 00,3242           16125                           TCF      DANZIG                                #  DONE FOR DP.
002444:
002445: 00,3243           00006                           EXTEND                                         #  ON VECTOR, PUSH DOWN Y AND Z COMPONENTS.
002446: 00,3244           30150                           DCA      MPAC       +3
002447: 00,3245           50156                           INDEX    PUSHLOC
002448: 00,3246           51775                           DXCH     0          -4
002449: 00,3247           00006                           EXTEND
002450: 00,3250           30152                           DCA      MPAC       +5
002451: 00,3251           50156                           INDEX    PUSHLOC
002452: 00,3252           51777                           DXCH     0          -2
002453: 00,3253           16125                           TCF      DANZIG
002454:
002455: 00,3254           30146        TPUSH              CA       MPAC       +2
002456: 00,3255           16632                           TCF      ENDTPUSH   +2
002457:
002458: 00,3256           50110        RVQ                INDEX    FIXLOC                                #  RVQ -- RETURN IVA QPRET.
002459: 00,3257           30052                           CA       QPRET
002460: 00,3260           54107                           TS       POLISH
002461: 00,3261           16730                           TCF      GOTO       +4                         #  (ASSUME QPRET POINTS TO FIXED ONLY.)
002462:


002464:                                                                                                  #           THE FOLLOWING SUBROUTINES ARE USED IN SQUARING MPAC, IN BOTH THE SCALAR AND VECTOR SENSE. THEY ARE
002465:                                                                                                  #  SPECIAL CASES OF DMPSUB AND DOTSUB, PUT IN TO SAVE SOME TIME.
002466:
002467: 00,3262           30145        DSQSUB             CA       MPAC       +1                         #  SQUARES THE SCALAR CONTENTS OF MPAC.
002468: 00,3263           00006                           EXTEND
002469: 00,3264           70000                           SQUARE
002470: 00,3265           54146                           TS       MPAC       +2
002471: 00,3266           37767                           CAF      ZERO                                  #  FORM 2(CROSS TERM).
002472: 00,3267           56145                           XCH      MPAC       +1
002473: 00,3270           00006                           EXTEND
002474: 00,3271           70144                           MP       MPAC
002475: 00,3272           20001                           DDOUBL                                         #  AND MAYBE OVEFLOW.
002476: 00,3273           20146                           DAS      MPAC       +1                         #  AND SET A TO NET OVERFLOW.
002477: 00,3274           56144                           XCH      MPAC
002478: 00,3275           00006                           EXTEND
002479: 00,3276           70000                           SQUARE
002480: 00,3277           20145                           DAS      MPAC
002481: 00,3300           00002                           TC       Q
002482:
002483: 00,3301           00006        VSQSUB             EXTEND                                         #  DOTS THE VECTOR IN MPAC WITH ITSELF.
002484: 00,3302           22127                           QXCH     DOTRET
002485: 00,3303           03262                           TC       DSQSUB                                #  SQUARE THE X COMPONENT.
002486: 00,3304           52150                           DXCH     MPAC       +3
002487: 00,3305           52145                           DXCH     MPAC
002488: 00,3306           52121                           DXCH     BUF                                   #  SO WE CAN END IN DOTSUB.
002489: 00,3307           30146                           CA       MPAC       +2
002490: 00,3310           54122                           TS       BUF        +2
002491:
002492: 00,3311           03262                           TC       DSQSUB                                #  SQUARE Y COMPONENT.
002493: 00,3312           52146                           DXCH     MPAC       +1
002494: 00,3313           20122                           DAS      BUF        +1
002495: 00,3314           60144                           AD       MPAC
002496: 00,3315           60120                           AD       BUF
002497: 00,3316           54120                           TS       BUF
002498: 00,3317           13321                           TCF      +2
002499: 00,3320           54111                           TS       OVFIND                                #  IF OVERFLOW.
002500:
002501: 00,3321           52152                           DXCH     MPAC       +5
002502: 00,3322           52145                           DXCH     MPAC
002503: 00,3323           03262                           TC       DSQSUB                                #  SQUARE Z COMPONENT.
002504: 00,3324           17257                           TCF      ENDDOT                                #  END AS IN DOTSUB.
002505:


002507:                                                                                                  #           DOUBLE PRECISION SQUARE ROOT ROUTINE. TAKE THE SQUARE ROOT OF THE TRIPLE PRECISION (MPAC +2 USED ONLY
002508:                                                                                                  #  IN NORMALIZATION) CONTENTS OF MPAC AND LEAVE THE NORMALIZED RESULT IN MPAC (C(MPAC) GREATER THAN OR EQUAL TO
002509:                                                                                                  #  .5). THE RIGHT SHIFT COUNT (TC UNNORMALIZE) IS LEFT IN MPTEMP.
002510:
002511:
002512: 00,3325           37767        SQRTSUB            CAF      ZERO                                  #  START BY ZEROING RIGHT SHIFT COUNT.
002513: 00,3326           54125                           TS       MPTEMP
002514:
002515: 00,3327           10144                           CCS      MPAC                                  #  CHECK FOR POSITIVE ARGUMENT, SHIFTING
002516: 00,3330           13366                           TCF      SMPAC+                                #  FIRST SIGNIFICANT MPAC REGISTER INTO
002517: 00,3331           13333                           TCF      +2                                    #  MPAC ITSELF.
002518: 00,3332           13355                           TCF      SQRTNEG                               #  SEE IF MAG OF ARGUMENT LESS THAN 10(-4).
002519:
002520: 00,3333           56146                           XCH      MPAC       +2                         #  MPAC IS ZERO - SHIFT LEFT 14.
002521: 00,3334           56145                           XCH      MPAC       +1
002522: 00,3335           54144                           TS       MPAC
002523: 00,3336           37765                           CAF      SEVEN                                 #  AUGMENT RIGHT SHIFT COUNTER.
002524: 00,3337           54125                           TS       MPTEMP
002525:
002526: 00,3340           10144                           CCS      MPAC                                  #  SEE IF MPAC NOW PNZ.
002527: 00,3341           13366                           TCF      SMPAC+
002528: 00,3342           13344                           TCF      +2
002529: 00,3343           13360                           TCF      ZEROANS                               #  NEGATIVE BUT LESS THAN 10(-4) IN MAG.
002530:
002531: 00,3344           56145                           XCH      MPAC       +1                         #  ZERO - SHIFT LEFT 14 AGAIN.
002532: 00,3345           54144                           TS       MPAC
002533: 00,3346           37765                           CAF      SEVEN                                 #  AUGMENT RIGHT SHIFT COUNTER.
002534: 00,3347           26125                           ADS      MPTEMP
002535:
002536: 00,3350           10144                           CCS      MPAC
002537: 00,3351           13366                           TCF      SMPAC+
002538: 00,3352           00002                           TC       Q                                     #  SQRT(0) = 0.
002539: 00,3353           13360                           TCF      ZEROANS
002540: 00,3354           13434                           TCF      FIXROOT                               #  DO NOT LEAVE SQRTSUB WITH -0 IN MPAC.
002541:
002542: 00,3355           10000        SQRTNEG            CCS      A                                     #  ARGUMENT IS NEGATIVE, BUT SEE IF SIGN-
002543: 00,3356           13364                           TCF      SQRTABRT                              #  CORRECTED ARGUMENT IS LESS THAN 10(-4)
002544:
002545: 00,3357           10145                           CCS      MPAC       +1                         #  IN MAGNITUDE. IF SO, CALL ANSWER ZERO.
002546: 00,3360           37767        ZEROANS            CAF      ZERO                                  #  FORCE ANSWER TO ZERO HERE.
002547: 00,3361           13434                           TCF      FIXROOT
002548: 00,3362           13364                           TCF      SQRTABRT
002549: 00,3363           13434                           TCF      FIXROOT
002550:
002551: 00,3364           06000        SQRTABRT           TC       ABORT
002552: 00,3365           01302                           OCT      1302
002553:


002555: 00,3366           62442        SMPAC+             AD       -1/2+2                                #  SEE IF ARGUMENT GREATER THAN OR EQUAL TO
002556: 00,3367           00006                           EXTEND                                         #  .5.
002557: 00,3370           63437                           BZMF     SRTEST                                #  IF SO, SEE IF LESS THAN .25.
002558:
002559: 00,3371           52145                           DXCH     MPAC                                  #  WE WILL TAKE THE SQUARE ROOT OF MPAC/2.
002560: 00,3372           22021                           LXCH     SR                                    #  SHIFT RIGHT 1 AND GO TO THE SQRT ROUTINE
002561: 00,3373           00006                           EXTEND
002562: 00,3374           77746                           MP       HALF
002563: 00,3375           52145                           DXCH     MPAC
002564: 00,3376           56021                           XCH      SR
002565: 00,3377           26145                           ADS      MPAC       +1                         #  GUARANTEED NO OVERFLOW.
002566:
002567: 00,3400           32314        ARGHI              CAF      SLOPEHI                               #  ARGUMENT BETWEEN .25 AND .5. GET A
002568: 00,3401           00006                           EXTEND                                         #  LINEAR APPROXIMATION FOR THIS RANGE.
002569: 00,3402           70144                           MP       MPAC
002570: 00,3403           62542                           AD       BIASHI                                #  X0/2 = (MPAC/2)(SLOPHI) + BIASHI/2.
002571:
002572: 00,3404           54120                 +4        TS       BUF                                   #  X0/2 (ARGLO ENTERS HERE).
002573: 00,3405           30144                           CA       MPAC                                  #  SINGLE-PRECISION THROUGHOUT.
002574: 00,3406           22007                           ZL
002575: 00,3407           00006                           EXTEND
002576: 00,3410           10120                           DV       BUF                                   #  (MPAC/2)/(X0/2)
002577: 00,3411           00006                           EXTEND
002578: 00,3412           77746                           MP       HALF
002579: 00,3413           26120                           ADS      BUF                                   #  X1 = X0/2 + .5(MPAX/2)/(X0/2).
002580:
002581: 00,3414           00006                           EXTEND
002582: 00,3415           77746                           MP       HALF                                  #  FORM UP X1/2.
002583: 00,3416           52145                           DXCH     MPAC                                  #  SAVE AND BRING OUT ARGUMENT.
002584: 00,3417           00006                           EXTEND                                         #  TAKE DP QUOTIENT WITH X1.
002585: 00,3420           10120                           DV       BUF
002586: 00,3421           54121                           TS       BUF        +1                         #  SAVE MAJOR PART OF QUOTIENT.
002587: 00,3422           37767                           CAF      ZERO                                  #  FORM MINOR PART OF QUOTIENT USING
002588: 00,3423           56001                           XCH      L                                     #  (REMAINDER,0).
002589: 00,3424           00006                           EXTEND
002590: 00,3425           10120                           DV       BUF
002591: 00,3426           54001                           TS       L                                     #  IN PREPARATION FOR DAS.
002592: 00,3427           30121                           CA       BUF        +1
002593: 00,3430           20145                           DAS      MPAC                                  #  X2 = X1/2 + (MPAC/2)X1
002594:
002595: 00,3431           00006                           EXTEND                                         #  OVERFLOWS IF ARG. NEAR POSMAX.
002596: 00,3432           13436                           BZF      TCQBNK00
002597: 00,3433           37743                           CAF      POSMAX
002598: 00,3434           54144        FIXROOT            TS       MPAC
002599: 00,3435           54145                           TS       MPAC       +1
002600: 00,3436           00002        TCQBNK00           TC       Q                                     #  RETURN TO CALLER TO UNNORMALIZE, ETC.
002601:


002603: 00,3437           67747        SRTEST             AD       QUARTER                               #  ARGUMENT WAS LESS THAN .5, SEE IF LESS
002604: 00,3440           00006                           EXTEND                                         #  THAN .25.
002605: 00,3441           63463                           BZMF     SQRTNORM                              #  IF SO, BEGIN NORMALIZATION.
002606:
002607: 00,3442           52145                           DXCH     MPAC                                  #  IF BETWEEN .5 AND .25, SHIFT RIGHT 1 AND
002608: 00,3443           22021                           LXCH     SR                                    #  START AT ARGLO.
002609: 00,3444           00006                           EXTEND
002610: 00,3445           77746                           MP       HALF
002611: 00,3446           52145                           DXCH     MPAC
002612: 00,3447           56021                           XCH      SR
002613: 00,3450           26145                           ADS      MPAC       +1                         #  NO OVERFLOW.
002614:
002615: 00,3451           32772        ARGLO              CAF      SLOPELO                               #  (NORMALIZED) ARGUMENT BETWEEN .125 AND
002616: 00,3452           00006                           EXTEND                                         #  .25
002617: 00,3453           70144                           MP       MPAC
002618: 00,3454           62270                           AD       BIASLO
002619: 00,3455           13404                           TCF      ARGHI      +4                         #  BEGIN SQUARE ROOT.
002620:
002621: 00,3456           00006        SQRTNM2            EXTEND                                         #  SHIFT LEFT 2 AND INCREMENT RIGHT SHIFT
002622: 00,3457           30146                           DCA      MPAC       +1                         #  COUNT (FOR TERMINAL UNNORMALIZATION).
002623: 00,3460           20146                           DAS      MPAC       +1
002624: 00,3461           60144                           AD       MPAC
002625: 00,3462           26144                           ADS      MPAC                                  #  (NO OVERFLOW).
002626:
002627: 00,3463           24125        SQRTNORM           INCR     MPTEMP                                #  FIRST TIME THROUGH, JUST SHIFT LEFT 1
002628: 00,3464           00006                           EXTEND                                         #  (PUTS IN EFFECTIVE RIGHT SHIFT SINCE
002629: 00,3465           30146                           DCA      MPAC       +1                         #  WE WANT MPAC/2).
002630: 00,3466           20146                           DAS      MPAC       +1
002631: 00,3467           60144                           AD       MPAC
002632: 00,3470           26144                           ADS      MPAC                                  #  (AGAIN NO OVERFLOW).
002633: 00,3471           60000                           DOUBLE
002634: 00,3472           54022                           TS       CYL
002635:
002636: 00,3473           10022        NORMTEST           CCS      CYL                                   #  SEE IF ARGUMENT NOW NORMALIZED AT
002637: 00,3474           10022                           CCS      CYL                                   #  GREATER THAN .125.
002638: 00,3475           13456                           TCF      SQRTNM2                               #  NO - SHIFT LEFT 2 MORE AND TRY AGAIN.
002639: 00,3476           13400                           TCF      ARGHI                                 #  YES - NOW BETWEEN .5 AND .25.
002640: 00,3477           13451                           TCF      ARGLO                                 #  ARGUMENT NOW BETWEEN .25 AND .125.
002641:


002643:                                                                                                  #  TRIGONOMETRIC FUNCTION PACKAGE.
002644:
002645:                                                                                                  #           THE FOLLOWING TRIGONOMETRIC FUNCTIONS ARE AVAIALABLE AS INTERPRETIVE OPERATIONS:
002646:
002647:                                                                                                  #           1.  SIN                COMPUTES (1/2)SINE(2 PI MPAC).
002648:                                                                                                  #           2.  COS                COMPUTES (1/2)COSINE(2 PI MPAC).
002649:
002650:                                                                                                  #           3.  ASIN               COMPUTES (1/2PI)ARCSINE(2 MPAC).
002651:                                                                                                  #           4.  ACOS               COMPUTES (1/2PI)ARCCOSINE(2 MPAC).
002652:
002653:                                                                                                  #  SIN-ASIN AND COS-ACOS ARE MUTUALLY INVERSE, IE SIN(ASIN(X)) = X.
002654:
002655: 00,3500           07001        COSINE             TC       BRANCH                                #  FINDS COSINE USING THE IDENTITY
002656: 00,3501           13504                           TCF      +3                                    #  COS(X) = SIN(PI/2 - ABS(X)).
002657: 00,3502           13507                           TCF      PRESINE
002658: 00,3503           13507                           TCF      PRESINE
002659:
002660: 00,3504           00006                 +3        EXTEND
002661: 00,3505           40145                           DCS      MPAC
002662: 00,3506           52145                           DXCH     MPAC
002663:
002664: 00,3507           37747        PRESINE            CAF      QUARTER                               #  PI/2 SCALED.
002665: 00,3510           26144                           ADS      MPAC
002666:
002667:
002668: 00,3511           52145        SINE               DXCH     MPAC                                  #  DOUBLE ARGUMENT.
002669: 00,3512           20001                           DDOUBL
002670: 00,3513           54000                           OVSK                                           #  SEE IF OVERFLOW PRESENT.
002671: 00,3514           13517                           TCF      +3                                    #  IF NOT, ARGUMENT OK AS IS.
002672:
002673: 00,3515           00006                           EXTEND                                         #  IF SO, WE LOST (OR GAINED) PI, SO
002674: 00,3516           40001                           DCOM                                           #  COMPLEMENT MPAC USING THE IDENTITY
002675:                                                                                                  #  SIN(X-(+)PI) = SIN(-X).
002676: 00,3517           52145                 +3        DXCH     MPAC
002677: 00,3520           30144                           CA       MPAC                                  #  SEE IF ARGUMENT GREATER THAN .5 IN
002678: 00,3521           60000                           DOUBLE                                         #  MAGNITUDE. IF SO, REDUCE IT TO LESS THAN
002679: 00,3522           54001                           TS       L                                     #  .5 (+-PI/2 SCALED) AS FOLLOWS:
002680: 00,3523           13534                           TCF      SN1
002681:
002682: 00,3524           50000                           INDEX    A                                     #  IF POSITIVE, FORM PI - X, IF NEGATIVE
002683: 00,3525           37745                           CAF      NEG1/2     +1                         #  USE -PI -X.
002684: 00,3526           60000                           DOUBLE
002685: 00,3527           00006                           EXTEND
002686: 00,3530           60144                           SU       MPAC                                  #  GUARANTEED NO OVERFLOW.
002687: 00,3531           54144                           TS       MPAC
002688: 00,3532           40145                           CS       MPAC       +1
002689: 00,3533           54145                           TS       MPAC       +1
002690:


002692: 00,3534           00006        SN1                EXTEND                                         #  SET UP TO EVALUATE HASTINGS POLYNOMIAL
002693: 00,3535           30145                           DCA      MPAC
002694: 00,3536           52124                           DXCH     BUF2
002695: 00,3537           03262                           TC       DSQSUB                                #  SQUARE MPAC.
002696:
002697: 00,3540           07274                           TC       POLY                                  #  EVALUATE FOURTH ORDER POLYNOMIAL.
002698: 00,3541           00003                           DEC      3          B-14
002699: 00,3542           14441 37325                     2DEC     +.3926990796
002700:
002701: 00,3544           53250 60764                     2DEC     -.6459637111
002702:
002703: 00,3546           12146 21276                     2DEC     +.318758717
002704:
002705: 00,3550           75466 71471                     2DEC     -.074780249
002706:
002707: 00,3552           00236 32757                     2DEC     +.009694988
002708:
002709: 00,3554           32466                           CAF      LBUF2                                 #  MULTIPLY BY ARGUMENT AND SHIFT LEFT 2.
002710: 00,3555           07160                           TC       DMPSUB     -1
002711:
002712: 00,3556           00006                           EXTEND
002713: 00,3557           30146                           DCA      MPAC       +1
002714: 00,3560           20146                           DAS      MPAC       +1
002715: 00,3561           60144                           AD       MPAC
002716: 00,3562           26144                           ADS      MPAC                                  #  NEITHER SHIFT OVERFLOWS.
002717: 00,3563           00006                           EXTEND
002718: 00,3564           30146                           DCA      MPAC       +1
002719: 00,3565           20146                           DAS      MPAC       +1
002720: 00,3566           60144                           AD       MPAC
002721: 00,3567           26144                           ADS      MPAC
002722: 00,3570           16125                           TCF      DANZIG
002723:


002725:                                                                                                  #           ARCSIN/ARCCOS ROUTINE.
002726:
002727: 00,3571           33612        ARCSIN             CAF      LASINEX                               #  COMPUTE ARCSIN BY USING THE IDENTITY
002728: 00,3572           13574                           TCF      +2                                    #  ARCSIN(X) = PI/2 - ARCCOS(X).
002729:
002730: 00,3573           33674        ARCCOS             CAF      LDANZIG                               #  (EXITS IMMEDIATELY).
002731: 00,3574           54126                           TS       ESCAPE
002732: 00,3575           07001                           TC       BRANCH                                #  TEST SIGN OF INPUT.
002733: 00,3576           13606                           TCF      ACOSST                                #  START IMMEDIATELY IF POSITIVE.
002734: 00,3577           13706                           TCF      ACOSZERO                              #  ARCCOS(0) = PI/2 = .25.
002735: 00,3600           00006                           EXTEND                                         #  IF NEGATIVE, USE THE IDENTITY
002736: 00,3601           40145                           DCS      MPAC                                  #  ARCCOS(X) = PI - ARCCOS(-X), FORCING
002737: 00,3602           52145                           DXCH     MPAC                                  #  ARGUMENT POSITIVE.
002738: 00,3603           33711                           CAF      TCSUBTR                               #  SET EXIT  TO DO ABOVE BEFORE
002739: 00,3604           56126                           XCH      ESCAPE                                #  ARCSIN/ARCCOS CONSIDERATIONS.
002740: 00,3605           54127                           TS       ESCAPE2
002741:
002742: 00,3606           47746        ACOSST             CS       HALF                                  #  TEST MAGNITUDE OF INPUT.
002743: 00,3607           60144                           AD       MPAC
002744: 00,3610           10000                           CCS      A
002745: 00,3611           13702                           TCF      ACOSOVF                               #  THIS IS PROBABLY AN OVERFLOW CASE.
002746:
002747: 00,3612           13670        LASINEX            TCF      ASINEX
002748:
002749: 00,3613           13623                           TCF      ACOSST2                               #  NO OVERFLOW - PROCEED.
002750:
002751: 00,3614           10145                           CCS      MPAC       +1                         #  IF MAJOR PART IS .5, CALL ANSWER 0
002752: 00,3615           37767                           CAF      ZERO                                  #  UNLESS MINOR PART NEGATIVE.
002753: 00,3616           13620                           TCF      ACOS=0
002754:
002755: 00,3617           13623                           TCF      ACOSST2
002756:
002757: 00,3620           54145        ACOS=0             TS       MPAC       +1
002758: 00,3621           54144                           TS       MPAC
002759: 00,3622           00126                           TC       ESCAPE
002760:
002761: 00,3623           00006        ACOSST2            EXTEND                                         #  NOW THAT ARGUMENT IS IN PROPER RANGE,
002762: 00,3624           40145                           DCS      MPAC                                  #  BEGIN COMPUTATION. USE HASTINGS
002763: 00,3625           67746                           AD       HALF                                  #  APPROXIMATION ARCCOS(X) = SQRT(1-X)P(X)
002764: 00,3626           52145                           DXCH     MPAC                                  #  IN A SCALED VERSION WHERE P(X) IS A
002765: 00,3627           52124                           DXCH     BUF2                                  #  SEVENTH ORDER POLYNOMIAL.
002766:
002767: 00,3630           03325                           TC       SQRTSUB                               #  RETURNS WITH NORMALIZED SQUARE ROOT.
002768:
002769: 00,3631           10125                           CCS      MPTEMP                                #  SEE IF UN-NORMALIZATION REQUIRED.
002770: 00,3632           13675                           TCF      ACOSSHR                               #  IF SO.
002771:


002773: 00,3633           52145        ACOS3              DXCH     MPAC                                  #  SET UP FOR POLYNOMIAL EVALUATION.
002774: 00,3634           52124                           DXCH     BUF2
002775: 00,3635           52145                           DXCH     MPAC
002776:
002777: 00,3636           07274                           TC       POLY
002778: 00,3637           00006                           DEC      6          B-14
002779: 00,3640           13240 23630                     2DEC     +.353553385                            #  COEFFICIENTS ARE C 2(+I)/PISQRT(2) WHERE
002780:
002781: 00,3642           74721 47775                     2DEC*    -.0483017006 B+1*                       #                    I
002782:
002783: 00,3644           02440 20237                     2DEC*    +.0200273085 B+2*                       #       WHERE C STANDS FOR ORIGINAL COEFFS.
002784:
002785: 00,3646           75067 70742                     2DEC*    -.0112931863 B+3*
002786:
002787: 00,3650           03436 26756                     2DEC*    +.00695311612 B+4*
002788:
002789: 00,3652           74037 57640                     2DEC*    -.00384617957 B+5*
002790:
002791: 00,3654           03046 07143                     2DEC*    +.001501297736 B+6*
002792:
002793: 00,3656           76654 42244                     2DEC*    -.000284160334 B+7*
002794:
002795: 00,3660           32466                           CAF      LBUF2                                 #  DO FINAL MULTIPLY AND GO TO ANY
002796: 00,3661           07160                           TC       DMPSUB     -1                         #  EPILOGUE SEQUENCES.
002797: 00,3662           00126                           TC       ESCAPE
002798:
002799: 00,3663           00006        SUBTR              EXTEND                                         #  EPILOGUE FOR NEGATIVE INPUTS TO ARCCOS.
002800: 00,3664           40145                           DCS      MPAC
002801: 00,3665           67746                           AD       HALF                                  #  FORMS PI - ARCCOS(-X) = ARCCOS(X).
002802: 00,3666           52145                           DXCH     MPAC
002803: 00,3667           00127                           TC       ESCAPE2                               #  GO TO POSSIBLE ARCSIN EPILOGUE.
002804:
002805: 00,3670           00006        ASINEX             EXTEND
002806: 00,3671           40145                           DCS      MPAC                                  #  ARCSIN EPILOGUE - GET ARCSIN(X)
002807: 00,3672           67747                           AD       QUARTER                               #  = PI/2 - ARCCOS(X).
002808: 00,3673           52145                           DXCH     MPAC
002809: 00,3674           16125        LDANZIG            TCF      DANZIG
002810:


002812: 00,3675           50000        ACOSSHR            INDEX    A                                     #  THE SHIFT RIGHT IS LESS THAN 14 SINCE
002813: 00,3676           37746                           CAF      BIT14                                 #  THE INPUT WAS NON-ZERO DP.
002814: 00,3677           54125                           TS       MPTEMP
002815: 00,3700           02073                           TC       VSHRRND                               #  DP SHIFT RIGHT AND ROUND.
002816: 00,3701           13633                           TCF      ACOS3                                 #  PROCEED.
002817:
002818: 00,3702           00006        ACOSOVF            EXTEND                                         #  IF MAJOR PART WAS ONLY 1 MORE THAN .5,
002819: 00,3703           13620                           BZF      ACOS=0                                #  CALL ANSWER ZERO.
002820:
002821: 00,3704           06000        ACOSABRT           TC       ABORT
002822: 00,3705           01301                           OCT      1301
002823:
002824: 00,3706           37747        ACOSZERO           CAF      QUARTER                               #  ACOS(0) = PI/2.
002825: 00,3707           13621                           TCF      ACOS=0     +1                         #  SET MPAC AND EXIT VIA ESCAPE.
002826:
002827: 00,3710           77763        NEG12              DEC      -12        B-14
002828: 00,3711           13663        TCSUBTR            TCF      SUBTR
002829:


002831:                                                                                                  #  AUXILIARY CODING FOR DDV/BDDV:
002832:
002833:
002834: 00,3712           10000        BUFPOS             CCS      A
002835: 00,3713           12420                           TCF      BUF+                                  #  TO BUF+ IF BUF IS GREATER THAN +1.
002836:
002837: 00,3714           40121                           CS       BUF        +1                         #  IF BUF IS +1, FORCING SIGN AGREEMENT
002838: 00,3715           00006                           EXTEND                                         #  MAY CAUSE BUF TO BECOME ZERO.
002839: 00,3716           62420                           BZMF     BUF+                                  #  BRANCH IF SIGNS AGREE.
002840:
002841: 00,3717           37746                           CA       HALF                                  #  SIGNS DISAGREE.  FORCE AGREEMENT.
002842: 00,3720           60000                 +6        DOUBLE
002843: 00,3721           26121                           ADS      BUF        +1
002844: 00,3722           37767                           CA       ZERO
002845: 00,3723           54120                           TS       BUF
002846: 00,3724           12362                           TCF      BUFZERO
002847:
002848: 00,3725           10000        BUFNEG             CCS      A
002849: 00,3726           12414                           TCF      BUF-                                  #  TO BUF- IF BUF IS LESS THAN -1.
002850:
002851: 00,3727           30121                           CA       BUF        +1                         #  IF BUF IS -1, FORCING SIGN AGREEMENT
002852: 00,3730           00006                           EXTEND                                         #  MAY CAUSE BUF TO BECOME ZERO.
002853: 00,3731           62414                           BZMF     BUF-                                  #  BRANCH IF SIGNS AGREE.
002854:
002855: 00,3732           47746                           CS       HALF                                  #  SIGNS DISAGREE.  FORCE AGREEMENT.
002856: 00,3733           13720                           TCF      BUFPOS     +6
002857:


002859:                                                                                                  #           THE FOLLOWING INSTRUCTIONS ARE AVAILABLE FOR SETTING, MODIFYING, AND BRANCHING ON INDEX REGISTERS:
002860:
002861:                                                                                                  #           1.  AXT                ADDRESS TO INDEX TRUE.
002862:                                                                                                  #           2.  AXC                ADDRESS TO INDEX COMPLEMENTED.
002863:                                                                                                  #           3.  LXA                LOAD INDEX FROM ERASABLE.
002864:                                                                                                  #           4.  LXC                LOAD INDEX COMPLEMENTED FROM ERASABLE.
002865:                                                                                                  #           5.  SXA                STORE INDEX IN ERASABLE.
002866:                                                                                                  #           6.  XCHX               EXCHANGE INDEX REIGSTER WITH ERASABLE.
002867:
002868:                                                                                                  #           7.  INCR               INCREMENT INDEX REGISTER.
002869:                                                                                                  #           8.  XAD                ERASABLE ADD TO INDEX REGISTER.
002870:                                                                                                  #           9.  XSU                ERASABLE SUBTRACT FROM INDEX REGISTER.
002871:
002872:                                                                                                  #          10.  TIX                BRANCH ON INDEX REGISTER AND DECREMENT.
002873:
002874:
002875: 01,2626                                           BANK     01
002876:
002877: 01,2626           02723        AXT                TC       TAGSUB                                #  SELECT APPROPRIATE INDEX REGISTER.
002878: 01,2627           30107                           CA       POLISH
002879: 01,2630           50120        XSTORE             INDEX    INDEXLOC                              #  CONTAINS C(FIXLOC) OR C(FIXLOC)+1
002880: 01,2631           54046                           TS       X1
002881: 01,2632           16125                           TCF      DANZIG
002882:
002883: 01,2633           02723        AXC                TC       TAGSUB
002884: 01,2634           40107                           CS       POLISH
002885: 01,2635           02630                           TC       XSTORE
002886:
002887: 01,2636           02711        LXA                TC       15ADRERS                              #  LOAD INDEX REGISTER FROM ERASABLE.
002888: 01,2637           50107                           INDEX    POLISH
002889: 01,2640           30000                           CA       0
002890: 01,2641           12630                           TCF      XSTORE
002891:
002892: 01,2642           02711        LXC                TC       15ADRERS                              #  LOAD NDX REG FROM ERASABLE COMPLEMENTED.
002893: 01,2643           50107                           INDEX    POLISH
002894: 01,2644           40000                           CS       0
002895: 01,2645           12630                           TCF      XSTORE
002896:
002897: 01,2646           02711        SXA                TC       15ADRERS                              #  STORE INDEX REGISTER IN ERASABLE.
002898: 01,2647           50120                           INDEX    INDEXLOC
002899: 01,2650           30046                           CA       X1
002900: 01,2651           50107        MSTORE1            INDEX    POLISH
002901: 01,2652           54000                           TS       0
002902: 01,2653           16125                           TCF      DANZIG
002903:


002905: 01,2654           02711        XCHX               TC       15ADRERS                              #  EXCHANGE INDEX REGISTER WITH ERASABLE.
002906: 01,2655           50107                           INDEX    POLISH
002907: 01,2656           30000                           CA       0
002908: 01,2657           50120                           INDEX    INDEXLOC
002909: 01,2660           56046                           XCH      X1
002910: 01,2661           12651                           TCF      MSTORE1
002911:
002912: 01,2662           02711        XAD                TC       15ADRERS                              #  ADD ERASABLE TO INDEX REGISTER.
002913: 01,2663           50107                           INDEX    POLISH
002914: 01,2664           30000                           CA       0
002915: 01,2665           50120        XAD2               INDEX    INDEXLOC
002916: 01,2666           26046                           ADS      X1                                    #  IGNORING OVERFLOWS.
002917: 01,2667           16125                           TCF      DANZIG
002918:
002919: 01,2670           02723        INCR               TC       TAGSUB                                #  INCREMENT INDEX REGISTER.
002920: 01,2671           30107                           CA       POLISH
002921: 01,2672           12665                           TCF      XAD2
002922:
002923: 01,2673           02711        XSU                TC       15ADRERS                              #  SUBTRACT ERASABLE FROM INDEX REGISTER.
002924: 01,2674           50107                           INDEX    POLISH
002925: 01,2675           40000                           CS       0
002926: 01,2676           12665                           TCF      XAD2
002927:
002928:
002929: 01,2677           02723        TIX                TC       TAGSUB                                #  BRANCH AND DECREMENT ON INDEX.
002930: 01,2700           50120                           INDEX    INDEXLOC
002931: 01,2701           40050                           CS       S1
002932: 01,2702           50120                           INDEX    INDEXLOC
002933: 01,2703           60046                           AD       X1
002934: 01,2704           00006                           EXTEND                                         #  NO OPERATION IF DECREMENTED INDEX IS
002935: 01,2705           66125                           BZMF     DANZIG                                #  NEGATIVE OR ZERO.
002936:
002937: 01,2706           50120        DOTIXBR            INDEX    INDEXLOC
002938: 01,2707           56046                           XCH      X1                                    #  IGNORING OVERFLOWS.
002939:
002940: 01,2710           16724                           TCF      GOTO                                  #  DO THE BRANCH USING THE CADR IN POLISH.
002941:


002943:                                                                                                  #           SUBROUTINE TO CONVERT AN ERASABLE ADDRESS (11 BITS) TO AN EBANK SETTING AND SUBADDRESS.
002944:
002945: 01,2711           40107        15ADRERS           CS       POLISH
002946: 01,2712           65353                           AD       DEC45
002947: 01,2713           10000                           CCS      A                                     #  DOES THE ADDRESS POINT TO THE WORK AREA?
002948: 01,2714           30110                           CA       FIXLOC                                #  YES.  ADD FIXLOC.  EBANK OK AS IS.
002949: 01,2715           12722                           TCF      +5
002950:
002951: 01,2716           35352                           CA       OCT1400                               #  NO.  SET EBANK & MAKE UP SUBADDRESS.
002952: 01,2717           56107                           XCH      POLISH
002953: 01,2720           54003                           TS       EBANK
002954: 01,2721           74564                           MASK     LOW8
002955: 01,2722           26107                 +5        ADS      POLISH                                #  FALL INTO TAGSUB, AND RETURN VIA Q.
002956:
002957:                                                                                                  #           SUBROUTINE WHICH SETS THE ADDRESS OF THE SPECIFIED INDEX IN INDEXLOC.  (ACTUALLY, THE ADDRESS -38D.)
002958:
002959: 01,2723           30110        TAGSUB             CA       FIXLOC
002960: 01,2724           54120                           TS       INDEXLOC
002961:
002962: 01,2725           10020                           CCS      CYR                                   #  BIT 15 SPECIFIES INDEX.
002963: 01,2726           24120                           INCR     INDEXLOC                              #  0 MEANS USE X2.
002964: 01,2727           00002                           TC       Q
002965: 01,2730           00002                           TC       Q                                     #  1 FOR X1.
002966:


002968:                                                                                                  #           MISCELLANEOUS OPERATION CODES WITH DIRECT ADDRESSES. INCLUDED HERE ARE:
002969:
002970:                                                                                                  #           1.  ITA                STORE QPRET (RETURN ADDRESS) IN ERASABLE.
002971:                                                                                                  #           2.  CALL               CALL A SUBROUTINE, LEAVING RETURN IN QPRET.
002972:                                                                                                  #           3.  RTB                RETURN TO BASIC LANGUAGE AT THE GIVEN ADDRESS.
002973:                                                                                                  #           4.  BHIZ               BRANCH IF THE HIGH ORDER OF MPAC IS ZERO (SINGLE PRECISION).
002974:                                                                                                  #           5.  BOV                BRANCH ON OVERFLOW.
002975:                                                                                                  #           6.  GOTO               SIMPLE SEQUENCE CHANGE.
002976:
002977: 01,2731           10020        RTB/BHIZ           CCS      CYR
002978: 01,2732           30107        RTB                CA       POLISH
002979: 01,2733           15230                           TCF      BANKJUMP                              #  CALL BASIC ROUTINE.
002980:
002981: 01,2734           10144        BHIZ               CCS      MPAC
002982: 01,2735           16125                           TCF      DANZIG
002983: 01,2736           16724                           TCF      GOTO
002984: 01,2737           16125                           TCF      DANZIG
002985: 01,2740           16724                           TCF      GOTO
002986:
002987: 01,2741           10111        BOV(B)             CCS      OVFIND                                #  BRANCH ON OVERFLOW TO BASIC OR INTERP.
002988: 01,2742           12744                           TCF      +2
002989: 01,2743           16125                           TCF      DANZIG
002990: 01,2744           54111                           TS       OVFIND
002991: 01,2745           10020                           CCS      CYR
002992: 01,2746           12732                           TCF      RTB                                   #  IF BASIC.
002993: 01,2747           00360        B5TOBB             OCT      360
002994: 01,2750           16724                           TCF      GOTO
002995:


002997: 01,2751           10020        BZE/GOTO           CCS      CYR                                   #  SEE WHICH OP-CODE IS DESIRED.
002998: 01,2752           07001                           TC       BRANCH                                #  DO BZE.
002999: 01,2753           16125                           TCF      DANZIG
003000: 01,2754           16724                           TCF      GOTO                                  #  DO GOTO.
003001: 01,2755           16125                           TCF      DANZIG
003002:
003003: 01,2756           10020        BPL/BMN            CCS      CYR
003004: 01,2757           12765                           TCF      BPL
003005: 01,2760           12000        5B10               DEC      5          B+10                       #  SHIFTS OP CODE IN SWITCH INSTRUCTION ADR
003006:
003007: 01,2761           07001                           TC       BRANCH                                #  DO BMN.
003008: 01,2762           16125                           TCF      DANZIG
003009: 01,2763           16125                           TCF      DANZIG
003010: 01,2764           16724                           TCF      GOTO                                  #  ONLY IF NNZ.
003011:
003012: 01,2765           07001        BPL                TC       BRANCH
003013: 01,2766           16724                           TCF      GOTO                                  #  IF POSITIVE OR ZERO.
003014: 01,2767           16724                           TCF      GOTO
003015: 01,2770           16125                           TCF      DANZIG
003016:
003017: 01,2771           10020        CALL/ITA           CCS      CYR
003018: 01,2772           16716                           TCF      CALL
003019:
003020: 01,2773           04736                           TC       CCSHOLE
003021: 01,2774           02711                           TC       15ADRERS                              #  STORE QPRET. (TAGSUB AFTER 15ADRERS IS
003022: 01,2775           50110                           INDEX    FIXLOC                                #  SLOW IN THIS CASE, BUT SAVES STORAGE.)
003023: 01,2776           30052                           CA       QPRET
003024: 01,2777           12651                           TCF      MSTORE1
003025:


003027:                                                                                                  #           THE FOLLOWING OPERATIONS ARE AVAILABLE FOR ALTERING AND TESTING INTERPRETATIVE SWITCHES:
003028:
003029:                                                                                                  #  00       BONSET                 SET A SWITCH AND DO A GOTO IF IT WAS ON.
003030:                                                                                                  #  01       SETGO                  SET A SWITCH AND DO A GOTO.
003031:                                                                                                  #  02       BOFSET                 SET A SWITCH AND DO A GOTO IF IT WAS OFF
003032:                                                                                                  #  03       SET                    SET A SWITCH.
003033:
003034:                                                                                                  #  04       BONINV                 INVERT A SWITCH AND BRANCH IF IT WAS ON.
003035:                                                                                                  #  05       INVGO                  INVERT A SWITCH AND DO A GOTO.
003036:                                                                                                  #  06       BOFINV                 INVERT A SWITCH AND BRANCH IF IT WAS OFF
003037:                                                                                                  #  07       INVERT                 INVERT A SWITCH.
003038:
003039:                                                                                                  #  10       BONCLR                 CLEAR A SWITCH AND BRANCH IF IT WAS ON.
003040:                                                                                                  #  11       CLRGO                  CLEAR A SWITCH AND DO A GOTO.
003041:                                                                                                  #  12       BOFCLR                 CLEAR A SWITCH AND BRANCH IF IT WAS OFF.
003042:                                                                                                  #  13       CLEAR                  CLEAR A SWITCH.
003043:
003044:                                                                                                  #  14       BON                    BRANCH IF A SWITCH WAS ON.
003045:                                                                                                  #  16       BOFF                   BRANCH IF A SWITCH WAS OFF.
003046:
003047:                                                                                                  #           THE ADDRESS SUPPLIED WITH THE SWITCH INSTRUCTION IS INTERPRETED AS FOLLOWS:
003048:
003049:                                                                                                  #           BITS 1-4    SWITCH BIT NUMBER (1-15).
003050:                                                                                                  #           BITS 5-8    SWITCH OPERATION NUMBER.
003051:                                                                                                  #           BITS 9-     SWITCH WORD NUMBER (UP TO 64 SWITCH WORDS).
003052:
003053:                                                                                                  #           THE ADDRESS ITSELF IS MADE UP BY THE YUL SYSTEM ASSEMBLER. THE BRANCH INSTRUCTIONS REQUIRE TWO
003054:                                                                                                  #  ADDRESSES, THE SECOND TAKEN AS THE DIRECT (OR INDIRECT IF IN ERASABLE) ADDRESS OF THE BRANCH.
003055:
003056:
003057: 01,3000           35343        SWITCHES           CAF      LOW4                                  #  LEAVE THE SWITCH BIT IN SWBIT  .
003058: 01,3001           70107                           MASK     POLISH
003059: 01,3002           50000                           INDEX    A
003060: 01,3003           37745                           CAF      BIT15                                 #  (NUMBER FROM LEFT TO RIGHT.)
003061: 01,3004           54121                           TS       SWBIT
003062:
003063: 01,3005           37755                           CAF      BIT7                                  #  LEAVE THE SWITCH NUMBER IN SWWORD.
003064: 01,3006           00006                           EXTEND
003065: 01,3007           70107                           MP       POLISH
003066: 01,3010           54120                           TS       SWWORD
003067:
003068: 01,3011           00004                           INHINT                                         #  DURING SWITCH CHANGE SO RUPT CAN USE TOO
003069: 01,3012           50000                           INDEX    A                                     #  LEAVE THE SWITCH WORD ITSELF IN L.
003070: 01,3013           30074                           CA       STATE
003071: 01,3014           54002                           TS       Q                                     #  Q WILL BE USED AS A CHANNEL.


003073: 01,3015           37751                           CAF      BIT11
003074: 01,3016           00006                           EXTEND                                         #  DISPATCH SWITCH BIT OPERATION AS IN BITS
003075: 01,3017           70107                           MP       POLISH                                #  7-8 OF POLISH.
003076: 01,3020           73060                           MASK     B3TOB4                                #  GETS 4X2-BIT CODE.
003077: 01,3021           50000                           INDEX    A
003078: 01,3022           13023                           TCF      +1
003079:
003080: 01,3023           30121                 +1        CA       SWBIT                                 #  00 - SET SWITCH IN QUESTION.
003081: 01,3024           00006                           EXTEND
003082: 01,3025           04002                           ROR      Q
003083: 01,3026           13035                           TCF      SWSTORE
003084:
003085: 01,3027           30121                 +5        CA       SWBIT                                 #  01 - INVERT SWITCH.
003086: 01,3030           00006                           EXTEND
003087: 01,3031           06002                           RXOR     Q
003088: 01,3032           13035                           TCF      SWSTORE
003089:
003090: 01,3033           40121                 +9D       CS       SWBIT                                 #  10 - CLEAR.
003091: 01,3034           70002                           MASK     Q
003092: 01,3035           50120        SWSTORE            INDEX    SWWORD
003093: 01,3036           54074                           TS       STATE                                 #  NEW SWITCH WORD.
003094:


003096: 01,3037           00003                 +13D      RELINT                                         #  11 - NOOP.
003097: 01,3040           37747                           CAF      BIT13
003098: 01,3041           00006                           EXTEND                                         #  DISPATCH SEQUENCE CHANGING OR BRANCING
003099: 01,3042           70107                           MP       POLISH                                #  CODE.
003100: 01,3043           73060                           MASK     B3TOB4
003101: 01,3044           50000                           INDEX    A
003102: 01,3045           13046                           TCF      +1                                    #  ORIGINALLY STORED IN BITS 5-6.
003103:
003104: 01,3046           40002                 +1        CS       Q                                     #  00 - BRANCH IF ON.
003105: 01,3047           70121        TEST               MASK     SWBIT
003106: 01,3050           10000                           CCS      A
003107: 01,3051           13061                           TCF      SWSKIP
003108:
003109: 01,3052           16773                 +5        TCF      SWBRANCH                              #  01 - GO TO.
003110:
003111: 01,3053           13061                           TCF      SWSKIP                                #  HERE ONLY ON BIT 15.
003112:
003113: 01,3054           04736                           TC       CCSHOLE
003114: 01,3055           04736                           TC       CCSHOLE
003115:
003116: 01,3056           30002                 +9D       CA       Q                                     #  10 - BRANCH IF OFF.
003117: 01,3057           13047                           TCF      TEST
003118:
003119: 01,3060           00014        B3TOB4             OCT      14
003120:
003121: 01,3061           24154        SWSKIP             INCR     LOC
003122:
003123: 01,3062  01,3000               SW/                EQUALS   SWITCHES
003124:
003125: 01,3062           16125                 +13D      TCF      DANZIG                                #  11 - NOOP.

End of include-file INTERPRETER.agc.  Parent file is MAIN.agc


