
Source Code


000002:                                                                                                  ## Copyright:   Public domain.
000003:                                                                                                  ## Filename:    INTER-BANK_COMMUNICATION.agc
000004:                                                                                                  ## Purpose:     A module for revision 0 of BURST120 (Sunburst). It
000005:                                                                                                  ##              is part of the source code for the Lunar Module's
000006:                                                                                                  ##              (LM) Apollo Guidance Computer (AGC) for Apollo 5.
000007:                                                                                                  ## Assembler:   yaYUL
000008:                                                                                                  ## Contact:     Ron Burkey <info@sandroid.org>.
000009:                                                                                                  ## Website:     www.ibiblio.org/apollo/index.html
000010:                                                                                                  ## Mod history: 2016-09-30 RSB  Created draft version.
000011:                                                                                                  ##              2016-10-19 RSB  Transcribed, largely from Aurora 12 version of the file.
000012:                                                                                                  ##              2016-10-31 RSB  Typos.
000013:                                                                                                  ##              2016-11-01 RSB  More typos.
000014:


000016:                                                                                                  #           THE FOLLOWING ROUTINE CAN BE USED TO CALL A SUBROUTINE IN ANOTHER BANK. IN THE BANKCALL VERSION, THE
000017:                                                                                                  #  CADR OF THE SUBROUTINE IMMEDIATELY FOLLOWS THE  TC BANKCALL  INSTRUCTION, WITH C(A) AND C(L) PRESERVED.
000018:
000019:    5206                                           BLOCK    02
000020:    5206           52124        BANKCALL           DXCH     BUF2                                  #  SAVE INCOMING A,L.
000021:    5207           50002                           INDEX    Q                                     #  PICK UP CADR.
000022:    5210           30000        BNKCAL+2           CA       0
000023:    5211           24002                           INCR     Q                                     #  SO WE RETURN TO THE LOC. AFTER THE CADR.
000024:
000025:                                                                                                  #  SWCALL IS  IDENTICAL TO BANKCALL, EXCEPT THAT THE CADR ARRIVES IN A.
000026:
000027:    5212           54001        SWCALL             TS       L
000028:    5213           22004                           LXCH     FBANK                                 #  SWITCH BANKS, SAVING RETURN.
000029:    5214           75337                           MASK     LOW10                                 #  GET SUB-ADDRESS OF CADR.
000030:    5215           56002                           XCH      Q                                     #  A,L NOW CONTAINS DP RETURN.
000031:    5216           52124                           DXCH     BUF2                                  #  RESTORING INPUTS IF THIS IS A BANKCALL.
000032:    5217           50002                           INDEX    Q
000033:    5220           02000                           TC       10000                                 #  SETTING Q TO SWRETURN.
000034:
000035:    5221           56124        SWRETURN           XCH      BUF2       +1                         #  COMES HERE TO RETURN TO CALLER. C(A,L)
000036:    5222           56004                           XCH      FBANK                                 #  ARE PRESERVED FOR RETURN.
000037:    5223           56124                           XCH      BUF2       +1
000038:    5224           00123                           TC       BUF2
000039:
000040:                                                                                                  #           THE FOLLOWING ROUTINE CAN BE USED AS A UNILATERAL JUMP WITH C(A,L) PRESERVED AND THE CADR IMMEDIATELY
000041:                                                                                                  #  FOLLOWING THE TC POSTJUMP INSTRUCTION.
000042:
000043:    5225           56002        POSTJUMP           XCH      Q                                     #  SAVE INCOMING C(A).
000044:    5226           50000                           INDEX    A                                     #  GET CADR.
000045:    5227           30000                           CA       0
000046:
000047:                                                                                                  #           BANKJUMP IS THE SAME AS POSTJUMP, EXCEPT THAT THE CADR ARRIVES IN A.
000048:
000049:    5230           54004        BANKJUMP           TS       FBANK
000050:    5231           75337                           MASK     LOW10
000051:    5232           56002                           XCH      Q                                     #  RESTORING INPUT C(A) IF THIS WAS A
000052:    5233           50002        Q+10000            INDEX    Q                                     #  POSTJUMP.
000053:    5234           12000        BNKJUP+4           TCF      10000
000054:


000056:                                                                                                  #           THE FOLLOWING ROUTINE GETS THE RETURN CADR SAVED BY SWCALL OR BANKCALL AND LEAVES IT IN A.
000057:
000058:    5235           35337        MAKECADR           CAF      LOW10
000059:    5236           70123                           MASK     BUF2
000060:    5237           60124                           AD       BUF2       +1
000061:    5240           00002                           TC       Q
000062:
000063:
000064:                                                                                                  #           THE FOLLOWING ROUTINE OBTAINS THE RETURN CADR SAVED BY SWCALL OR BANKCALL AND LEAVES IT IN A.  ENTER
000065:                                                                                                  #  WITH THE CADR IN A, AT DATACALL WITH JUNK IN L IF NOT SWITCHING SUPERBANKS, OTHERWISE AT SUPDACAL WITH SUPERBANK
000066:                                                                                                  #  BITS IN BITS 7-5 IN L (BITS 15-8 AND 4-1 MAY BE JUNK).  DEBRIS = MTEMP.  INHINTS FOR ABOUT 165 MUSEC.
000067:
000068:    5241           54001        DATACALL           TS       L                                     #  SAVE CADR (SOLE INPUT HERE).
000069:    5242           00006                           EXTEND
000070:    5243           00007                           READ     SUPERBNK                              #  THIS PROLOGUE MAKES SUPERSWITCH VACUOUS.
000071:    5244           56001                           XCH      L                                     #  CADR IN A, SUPERBITS IN L.
000072:
000073:    5245           54125        SUPDACAL           TS       MPTEMP
000074:    5246           56004                           XCH      FBANK                                 #  SET FBANK FOR DATA.
000075:    5247           00006                           EXTEND
000076:    5250           04007                           ROR      SUPERBNK                              #  SAVE FBANK IN BITS 15-11, AND
000077:    5251           56125                           XCH      MPTEMP                                #   SUPERBANK IN BITS  7-5.
000078:    5252           75337                           MASK     LOW10
000079:    5253           56001                           XCH      L                                     #  SAVE REL. ADR. IN BANK, FETCH SUPERBITS
000080:    5254           00004                           INHINT                                         #  BECAUSE RUPT DOES NOT SAVE SUPERBANK.
000081:    5255           00006                           EXTEND
000082:    5256           01007                           WRITE    SUPERBNK                              #  SET SUPERBANK FOR DATA.
000083:    5257           50001                           INDEX    L
000084:    5260           32000                           CA       10000
000085:
000086:    5261           56125                           XCH      MPTEMP                                #  SAVE 1ST WD, FETCH OLD FBANK AND SBANK.
000087:    5262           00006                           EXTEND
000088:    5263           01007                           WRITE    SUPERBNK                              #  RESTORE SUPERBANK.
000089:    5264           00003                           RELINT
000090:    5265           54004                           TS       FBANK                                 #  RESTORE FBANK.
000091:    5266           30125                           CA       MPTEMP                                #  RECOVER FIRST WORD OF DATA.
000092:    5267           00002                           RETURN                                         #  24 WDS. DATACALL 516 MU, SUPDACAL 432 MU
000093:


000095:                                                                                                  #           THE FOLLOWING ROUTINES ARE IDENTICAL TO BANKCALL AND SWCALL EXCEPT THAT THEY ARE USED IN INTERRUPT.
000096:
000097:    5270           52073        IBNKCALL           DXCH     RUPTREG3                              #  USES RUPTREG3,4 FOR DP RETURN ADDRESS.
000098:    5271           50002                           INDEX    Q
000099:    5272           30000                           CAF      0
000100:    5273           24002                           INCR     Q
000101:
000102:    5274           54001        ISWCALLL           TS       L
000103:    5275           22004                           LXCH     FBANK
000104:    5276           75337                           MASK     LOW10
000105:    5277           56002                           XCH      Q
000106:    5300           52073                           DXCH     RUPTREG3
000107:    5301           50002                           INDEX    Q
000108:    5302           02000                           TC       10000
000109:
000110:    5303           56073        ISWRETRN           XCH      RUPTREG4
000111:    5304           56004                           XCH      FBANK
000112:    5305           56073                           XCH      RUPTREG4
000113:    5306           00072                           TC       RUPTREG3
000114:


000116:                                                                                                  #           THE FOLLOWING SUBROUTINES PROVIDE TO THE BASIC PROGRAMMER ENTRY INTO AND RETURN FROM ANY INTERPRETIVE
000117:                                                                                                  #  CODING WHICH DOES NOT USE THE ENTERING CONTENTS OF Q AND WHICH RETURNS VIA DANZIG. C(A) AND C(L) ARE SAVED.
000118:
000119:                                                                                                  #  USER'S RESPONSIBILITY TO FILL IN ADVANCE THE APPROPRIATE OPERAND AND ADDRESS REGISTERS USED BY THE
000120:                                                                                                  #  INTERPRETIVE CODING SUCH AS MPAC, BUF, ADDRWD, ETC.; AND TO CONFIRM THAT THE INTERPRETIVE CODING MEETS THE
000121:                                                                                                  #  ABOVE RESTRICTIONS WITH RESPECT TO Q AND DANZIG.
000122:
000123:                                                                                                  #  USEPRET AND USPRCADR MUST NOT BE USED IN INTERRUPT.
000124:
000125:                                                                                                  #  1. USEPRET ACCESSES INTERPRETIVE CODING WHICH CAN BE ENTERED WITHOUT CHANGING FBANK.
000126:                                                                                                  #     THE CALLING SEQUENCE IS AS FOLLOWS:
000127:
000128:                                                                                                  #                                          L         TC     USEPRET
000129:                                                                                                  #                                          L+1       TC,TCF INTPRETX       TC,TCF MEANS TC OR TCF
000130:                                                                                                  #                                                                          INTPRETX IS THE INTERPRETIVE CODING
000131:                                                                                                  #                                                                          RETURN IS TO L+2
000132:
000133:                                                                                                  #  2. USPRCADR ACCESSES INTERPRETIVE CODING IN OTHER THAN THE USER'S FBANK. THE CALLING SEQUENCE IS AS FOLLOWS:
000134:
000135:                                                                                                  #                                          L         TC     USPRCADR
000136:                                                                                                  #                                          L+1       CADR   INTPRETX       INTPRETX IS THE INTERPRETIVE CODING
000137:                                                                                                  #                                                                          RETURN IS TO L+2
000138:
000139:    5307           56002        USEPRET            XCH      Q                                     #  FETCH Q, SAVING A
000140:    5310           54154                           TS       LOC                                   #  L+1 TO LOC
000141:    5311           30006                           CA       BBANK
000142:    5312           54155                           TS       BANKSET                               #  USERS BANK TO BANKSET
000143:    5313           37754                           CA       BIT8
000144:    5314           54023                           TS       EDOP                                  #  EXIT INSTRUCTION TO EDOP
000145:    5315           30002                           CA       Q                                     #  RETRIEVE ORIGINAL A
000146:    5316           00154                           TC       LOC
000147:
000148:    5317           54154        USPRCADR           TS       LOC                                   #  SAVE A
000149:    5320           37754                           CA       BIT8
000150:    5321           54023                           TS       EDOP                                  #  EXIT INSTRUCTION TO EDOP
000151:    5322           30006                           CA       BBANK
000152:    5323           54155                           TS       BANKSET                               #  USER'S BBANK TO BANKSET
000153:    5324           50002                           INDEX    Q
000154:    5325           30000                           CA       0
000155:    5326           54004                           TS       FBANK                                 #  INTERPRETIVE BANK TO FBANK
000156:    5327           75337                           MASK     LOW10                                 #  YIELDS INTERPRETIVE RELATIVE ADDRESS
000157:    5330           56002                           XCH      Q                                     #  INTERPRETIVE ADDRESS TO Q, FETCHING L+1
000158:    5331           56154                           XCH      LOC                                   #  L+1 TO LOC, RETRIEVING ORIGINAL A
000159:    5332           15233                           TCF      Q+10000
000160:


000162:                                                                                                  #  THERE ARE FOUR POSSIBLE SETTINGS FOR CHANNEL 07. (CHANNEL 07 CONTAINS THE SUPERBANK SETTING.)
000163:                                                                                                  #                                            PSEUDO-FIXED     OCTAL PSEUDO
000164:                                                                                                  #  SUPERBANK     SETTING     S-REG. VALUE    BANK NUMBERS     ADDRESSES
000165:                                                                                                  #  ---------     -------     ------------     ------------     ------------
000166:
000167:                                                                                                  #  SUPERBANK 3     OXX       2000 - 3777        30 - 37       70000 - 107777   (WHERE XX CAN BE ANYTHING AND
000168:                                                                                                  #                                                                              WILL USUALLY BE SEEN AS 11)
000169:                                                                                                  #  SUPERBANK 4     100       2000 - 3777        40 - 47       110000 - 127777  (AS FAR AS IT CAN BE SEEN,
000170:                                                                                                  #                                                                              ONLY BANKS 40-43 WILL EVER BE
000171:                                                                                                  #                                                                              AND ARE PRESENTLY AVAILABLE)
000172:                                                                                                  #  SUPERBANK 5     101       2000 - 3777        50 - 57       130000 - 147777  (PRESENTLY NOT AVAILABLE TO
000173:                                                                                                  #                                                                              THE USER)
000174:                                                                                                  #  SUPERBANK 6     110       2000 - 3777        60 - 67       150000 - 167777  (PRESENTLY NOT AVAILABLE TO
000175:                                                                                                  #                                                                              THE USER)
000176:                                                                                                  #  ***  THIS ROUTINE MAYBE CALLED BY ANY PROGRAM LOCATED IN BANKS 00 - 27.  I.E., NO PROGRAM LIVING IN ANY
000177:                                                                                                  #  SUPERBANK SHOULD USE SUPERSW. ***
000178:
000179:                                                                                                  #  SUPERSW MAY BE CALLED IN THIS FASHION:
000180:
000181:                                                                                                  #           CAF     ABBCON          WHERE  --  ABBCON   BBCON  SOMETHIN  --
000182:                                                                                                  #           TCR     SUPERSW         (THE SUPERBNK BITS ARE IN THE BBCON)
000183:                                                                                                  #           ...       ...
000184:                                                                                                  #            .         .
000185:                                                                                                  #            .         .
000186:
000187:                                                                                                  #  OR IN THIS FASHION:
000188:
000189:                                                                                                  #           CAF     SUPERSET        WHERE SUPERSET IS ONE OF THE FOUR AVAILABLE
000190:                                                                                                  #           TCR     SUPERSW         SUPERBANK BIT CONSTANTS:
000191:                                                                                                  #           ...       ...                                   SUPER011 OCTAL  60
000192:                                                                                                  #            .         .                                    SUPER100 OCTAL 100
000193:                                                                                                  #            .         .                                    SUPER101 OCTAL 120
000194:                                                                                                  #                                                           SUPER110 OCTAL 140
000195:
000196:    5333           00006        SUPERSW            EXTEND
000197:    5334           01007                           WRITE    SUPERBNK                              #  WRITE BITS 7-6-5 OF THE ACCUMULATOR INTO
000198:                                                                                                  #  CHANNEL 07
000199:    5335           00002                           TC       Q                                     #  TC TO INSTRUCTION FOLLOWING
000200:                                                                                                  #    TC  SUPERSW
000201:

End of include-file INTER-BANK_COMMUNICATION.agc.  Parent file is MAIN.agc


