
Source Code


000002:                                                                                                  ## Copyright:   Public domain.
000003:                                                                                                  ## Filename:    INTERPRETER.agc
000004:                                                                                                  ## Purpose:     A module for revision 0 of BURST120 (Sunburst). It
000005:                                                                                                  ##              is part of the source code for the Lunar Module's
000006:                                                                                                  ##              (LM) Apollo Guidance Computer (AGC) for Apollo 5.
000007:                                                                                                  ## Assembler:   yaYUL
000008:                                                                                                  ## Contact:     Ron Burkey <info@sandroid.org>.
000009:                                                                                                  ## Website:     www.ibiblio.org/apollo/index.html
000010:                                                                                                  ## Mod history: 2016-09-30 RSB  Created draft version.
000011:                                                                                                  ##              2016-10-14 MAS  Began.
000012:                                                                                                  ##              2016-10-14 MAS  Completed transcription.
000013:                                                                                                  ##              2016-10-31 RSB  Typos.
000014:                                                                                                  ##              2016-11-01 RSB  More typos.
000015:                                                                                                  ##              2016-12-06 RSB  Comments proofed using octopus/ProoferComments,
000016:                                                                                                  ##                              changes made.
000017:                                                                                                  ##              2017-03-15 RSB  Comment-text fixes identified in 5-way
000018:                                                                                                  ##                              side-by-side diff of Luminary 69/99/116/131/210.
000019:


000021:                                                                                                  #  SECTION 1  DISPATCHER
000022:
000023:                                                                                                  #           ENTRY TO THE INTERPRETER. INTPRET SETS LOC TO THE FIRST  INSTRUCTION, BANKSET TO THE BBANK OF THE
000024:                                                                                                  #  OBJECT INTERPRETIVE PROGRAM, AND INTBIT15 TO THE BIT15 CONTENTS OF FBANK. INTERPRETIVE PROGRAMS MAY BE IN
000025:                                                                                                  #  VIRTUALLY ALL BANKS PRESENT UNDER ANY SUPER-BANK SETTING, WITH THE RESTRICTION THAT PROGRAMS IN HIGH BANKS
000026:                                                                                                  #  (BIT15 OF FBANK = 1) DO NOT REFER TO LOWBANKS, AND VICE-VERSA. THE INTERPRETER DOES NOT SWITCH SUPERBANKS.
000027:                                                                                                  #  E-BANK SWITCHING OCCURS WHENEVER GENERAL ERASABLE (100 - 3777) IS ADDRESSED.
000028:
000029:
000030:    6112                                           BLOCK    03
000031:
000032:    6112           00006        INTPRET            EXTEND                                         #  SET LOC TO THE WORD FOLLOWING THE TC.
000033:    6113           22154                           QXCH     LOC
000034:
000035:    6114           30006                 +2        CA       BBANK                                 #  INTERPRETIVE BRANCHES FINISH HERE.
000036:    6115           54155                           TS       BANKSET
000037:    6116           77745                           MASK     BIT15                                 #  GET 15TH BIT FOR INDEXABLE ADDRESSES.
000038:    6117           54105                           TS       INTBIT15
000039:
000040:    6120           54023                           TS       EDOP                                  #  MAKE SURE NO INSTRUCTIONS LEFT OVER
000041:
000042:    6121           16134                           TCF      NEWOPS                                #  PICK UP OP CODE PAIR AND BEGIN.
000043:
000044:
000045:    6122           22006        INTRSM             LXCH     BBANK                                 #  RESUME SUSPENDED INTERPRETIVE JOB
000046:    6123           16114                           TCF      INTPRET    +2
000047:


000049:                                                                                                  #           AT THE END OF MOST INSTRUCTIONS, CONTROL IS GIVEN TO DANZIG TO DISPATCH THE NEXT OPERATION.
000050:
000051:    6124           54153        NEWMODE            TS       MODE                                  #  PROLOGUE FOR MODE-CHANGING INSTRUCTIONS.
000052:
000053:    6125           30155        DANZIG             CA       BANKSET                               #  SET BBANK BEFORE TESTING NEWJOB SO THAT
000054:    6126           54006                           TS       BBANK                                 #  IT MAY BE SAVED DIRECTLY BY CHANJOB.
000055:
000056:    6127           10023        NOIBNKSW           CCS      EDOP                                  #  SEE IF AN ORDER CODE IS LEFT OVER FROM
000057:    6130           16143                           TCF      OPJUMP                                #  THE LAST PAIR RETRIEVED. IF SO, EXECUTE.
000058:                                                                                                  #  EDOP IS SET TO ZERO ON ITS RE-EDITING.
000059:
000060:    6131           10067                           CCS      NEWJOB                                #  SEE IF A JOB OF HIGHER PRIORITY IS
000061:    6132           15540                           TCF      CHANG2                                #  PRESENT, AND IF SO, CHANGE JOBS.
000062:
000063:    6133           24154                           INCR     LOC                                   #  ADVANCE THE LOCATION COUNTER.
000064:                                                                                                  #           ITRACE (1) REFERS TO "NEWOPS".
000065:    6134           50154        NEWOPS             INDEX    LOC                                   #  ENTRY TO BEGIN BY PICKING OP CODE PAIR.
000066:    6135           30000                           CA       0                                     #  MAY BE AN OPCODE PAIR OR A STORE CODE.
000067:    6136           10000                           CCS      A                                     #  TEST SIGN AND GET DABS(A).
000068:    6137           16431                           TCF      DOSTORE                               #  PROCESS STORE CODE.
000069:
000070:    6140           04736                           TC       CCSHOLE                               #  TO CATCH SOME TASK USERS OF INTERPRETER.
000071:
000072:    6141           54023                           TS       EDOP                                  #  OP CODE PAIR. LEAVE THE OTHER IN EDOP
000073:    6142           75342                           MASK     LOW7                                  #  WHERE  CCS EDOP  WILL HONOR IT NEXT.
000074:
000075:    6143           54020        OPJUMP             TS       CYR                                   #  LOWWD ENTERS HERE IF A RIGHT-HAND OP
000076:    6144           10020                           CCS      CYR                                   #  CODE IS TO BE PROCESSED. TEST PREFICES.
000077:    6145           16313                           TCF      OPJUMP2                               #  TEST SECOND PREFIX BIT.
000078:
000079:    6146           17021                           TCF      EXIT                                  #  +0 OP CODE IS EXIT.
000080:


000082:                                                                                                  #           PROCESS ADDRESSES WHICH MAY BE DIRECT, INDEXED, OR REFERENCE THE PUSHDOWN LIST.
000083:
000084:    6147           77763        ADDRESS            MASK     BIT1                                  #  SEE IF ADDRESS IS INDEXED. CYR CONTAINED
000085:    6150           10000                           CCS      A                                     #  400XX, SO BIT 1 IS NOW AS IT WAS IN CYR.
000086:    6151           16212                           TCF      INDEX                                 #  FORM INDEXED ADDRESS.
000087:
000088:    6152           50154        DIRADRES           INDEX    LOC                                   #  LOOK AHEAD TO NEXT WORD TO SEE IF
000089:    6153           40001        OCT40001           CS       1                                     #  ADDRESS IS GIVEN.
000090:    6154           10000                           CCS      A
000091:    6155           16261                           TCF      PUSHUP                                #  IF NOT.
000092:
000093:    6156           77773        NEG4               DEC      -4         B-14
000094:
000095:    6157           24154                           INCR     LOC                                   #  IF SO, TO SHOW WE PICKED UP A WORD.
000096:    6160           54106                           TS       ADDRWD
000097:


000099:                                                                                                  #           FINAL DIGESTION OF DIRECT ADDRESSES OF OP CODES WITH 01 PREFIX IS DONE HERE. IN EACH CASE, THE
000100:                                                                                                  #  REQUIRED 12-BIT SUB-ADDRESS IS LEFT IN ADDRWD, WITH ANY REQUIRED E OR F BANK SWITCHING DONE. ADDRESSES LESS
000101:                                                                                                  #  THAN 45D ARE TAKEN TO BE RELATIVE TO THE WORK AREA. THE OP CODE IS NOW IN BITS 1-5 OF CYR WITH BIT 14 = 1.
000102:
000103:
000104:    6161           66315                           AD       -ENDVAC                               #  SEE IF ADDRESS RELATIVE TO WORK AREA.
000105:    6162           10000                           CCS      A
000106:    6163           66342                           AD       -ENDERAS                              #  IF NOT, SEE IF IN GENERAL ERASABLE.
000107:    6164           16171                           TCF      IERASTST
000108:
000109:    6165           30110        NETZERO            CA       FIXLOC                                #  IF SO, LEAVE THE MODIFIED ADDRESS IN
000110:    6166           26106                           ADS      ADDRWD                                #  ADDRWD AND DISPATCH.
000111:    6167           50020        ITR15              INDEX    CYR                                   #  THIS INDEX MAKES THE NEXT INSTRUCTION
000112:    6170           76342                           7        INDJUMP    -1                         #  TCF INDJUMP + OP, EDITING CYR.
000113:
000114:    6171           00006        IERASTST           EXTEND
000115:    6172           66202                           BZMF     GEADDR                                #  GO PROCESS GENERAL-ERASABLE ADDRESS.
000116:
000117:    6173           75337                           MASK     LOW10                                 #  FIXED BANK ADDRESS. RESTORE AND ADD B15.
000118:    6174           65337                           AD       LOW10                                 #  SWITCH BANKS AND LEAVE SUBADDRESS IN
000119:    6175           56106                           XCH      ADDRWD                                #  ADDRWD FOR OPERAND RETRIEVAL. (THIS
000120:    6176           60105                           AD       INTBIT15                              #  METHOD PRECLUDES USE OF THE LAST
000121:    6177           54004                           TS       FBANK                                 #  LOCATION IN EACH FBANK.)
000122:    6200           50020        ITR12              INDEX    CYR
000123:    6201           76342                           7        INDJUMP    -1
000124:
000125:    6202           74564        GEADDR             MASK     LOW8
000126:    6203           65352                           AD       OCT1400
000127:    6204           56106                           XCH      ADDRWD
000128:    6205           54003                           TS       EBANK
000129:    6206           50020        ITR10              INDEX    CYR
000130:    6207           76342                           7        INDJUMP    -1
000131:


000133:                                                                                                  #           THE FOLLOWING ROUTINE PROCESSES INTERPRETIVE INDEXED ADDRESSES. AN INTERPRETER INDEX REGISTER MAY
000134:                                                                                                  #  CONTAIN THE ADDRESS OF ANY ERASABLE REGISTER (0-42 BEING RELATIVE TO THE VAC AREA) OR ANY INTERPRETIVE PROGRAM
000135:                                                                                                  #  BANK, OR ANY INTEGER IN THAT RANGE.
000136:
000137:    6210           35346        DODLOAD*           CAF      DLOAD*                                #  STODL* COMES HERE TO PROCESS LOAD ADR.
000138:    6211           54020                           TS       CYR                                   #  (STOVL* ENTERS HERE).
000139:
000140:    6212           30110        INDEX              CA       FIXLOC                                #  SET UP INDEX LOCATION.
000141:    6213           54120                           TS       INDEXLOC
000142:    6214           24154                           INCR     LOC                                   #  (ADDRESS ALWAYS GIVEN).
000143:    6215           50154                           INDEX    LOC
000144:    6216           40000                           CS       0
000145:    6217           10000                           CCS      A                                     #  INDEX 2 IF ADDRESS STORED COMPLEMENTED.
000146:    6220           24120                           INCR     INDEXLOC
000147:    6221           16222                           NOOP
000148:
000149:    6222           54106                           TS       ADDRWD                                #  14 BIT ADDRESS TO ADDRWD.
000150:    6223           75351                           MASK     HIGH4                                 #  IF ADDRESS GREATER THAN 2K, ADD INTBIT15
000151:    6224           00006                           EXTEND
000152:    6225           16230                           BZF      INDEX2
000153:    6226           30105                           CA       INTBIT15
000154:    6227           26106                           ADS      ADDRWD
000155:
000156:    6230           50120        INDEX2             INDEX    INDEXLOC
000157:    6231           40046                           CS       X1
000158:    6232           26106                           ADS      ADDRWD                                #  DO AUGMENT, IGNORING AND CORRECTING OVF.
000159:
000160:    6233           76340                           MASK     HIGH9                                 #  SEE IF ADDRESS IS IN WORK AREA.
000161:    6234           00006                           EXTEND
000162:    6235           16250                           BZF      INDWORK
000163:    6236           75351                           MASK     HIGH4                                 #  SEE IF IN FIXED BANK.
000164:    6237           00006                           EXTEND
000165:    6240           16252                           BZF      INDERASE
000166:
000167:    6241           30106                           CA       ADDRWD                                #  IN FIXED - SWITCH BANKS AND CREATE
000168:    6242           54004                           TS       FBANK                                 #  SUB-ADDRESS.
000169:    6243           75337                           MASK     LOW10
000170:    6244           67751                           AD       2K
000171:    6245           54106                           TS       ADDRWD
000172:    6246           50020        ITR11              INDEX    CYR
000173:    6247           36342                           3        INDJUMP    -1
000174:
000175:    6250           30110        INDWORK            CA       FIXLOC                                #  MAKE ADDRWD RELATIVE TO WORK AREA.
000176:    6251           16256                           TCF      ITR13      -1
000177:
000178:    6252           35352        INDERASE           CA       OCT1400
000179:    6253           56106                           XCH      ADDRWD
000180:    6254           54003                           TS       EBANK
000181:    6255           74564                           MASK     LOW8
000182:    6256           26106                 -1        ADS      ADDRWD


000184:    6257           50020        ITR13              INDEX    CYR
000185:    6260           36342                           3        INDJUMP    -1
000186:


000188:                                                                                                  #           PUSH-UP ROUTINES. WHEN NO OPERAND ADDRESS IS GIVEN, THE APPROPRIATE OPERAND IS TAKEN FROM THE PUSH-DOWN
000189:                                                                                                  #  LIST. IN MOST CASES THE MODE OF THE RESULT (VECTOR OR SCALAR) OF THE LAST ARITHMETIC OPERATION PERFORMED
000190:                                                                                                  #  IS THE SAME AS THE TYPE OF OPERAND DESIRED (ALL ADD/SUBTRACT ETC.). EXCEPTIONS TO THIS GENERAL RULE ARE LISTED
000191:                                                                                                  #  BELOW (NOTE THAT IN EVERY CASE THE MODE REGISTER IS LEFT INTACT):
000192:
000193:                                                                                                  #           1.  VXSC AND V/SC WANT THE OPPOSITE TYPE OF OPERAND, E.G., IF THE LAST OPERATION YIELDED A VECTOR
000194:                                                                                                  #  RESULT, VXSC WANTS A SCALAR.
000195:
000196:                                                                                                  #           2.  THE LOAD CODES SHOULD LOAD THE ACCUMULATOR INDEPENDENT OF THE RESULT OF THE LAST OPERATION. THIS
000197:                                                                                                  #  INCLUDES VLOAD, DLOAD, TLOAD, PDDL, AND PDVL (NO PUSHUP WITH SLOAD).
000198:
000199:                                                                                                  #           3.  SOME ARITHMETIC OPERATIONS REQUIRE A STANDARD TYPE OF OPERAND REGARDLESS OF THE PREVIOUS OPERATION.
000200:                                                                                                  #  THIS INCLUDES SIGN WANTING DP AND TAD REQUIRING TP.
000201:
000202:    6261           34565        PUSHUP             CAF      OCT23                                 #  IF THE LOW 5 BITS OF CYR ARE LESS THAN
000203:    6262           70020                           MASK     CYR                                   #  20, THIS OP REQUIRES SPECIAL ATTENTION.
000204:    6263           66266                           AD       -OCT10                                #  (NO -0).
000205:    6264           10000                           CCS      A
000206:    6265           16277                           TCF      REGUP                                 #  FOR ALL CODES GREATER THAN OCT 7.
000207:
000208:    6266           77767        -OCT10             OCT      -10
000209:
000210:    6267           66156                           AD       NEG4                                  #  WE NOW HAVE 7 - OP CODE(MOD4). SEE IF
000211:    6270           10000                           CCS      A                                     #  THE OP CODE (MOD4) IS THREE (REVERSE).
000212:    6271           50000                           INDEX    A                                     #  NO - THE MODE IS DEFINITE. PICK UP THE
000213:    6272           46310                           CS       NO.WDS
000214:    6273           16301                           TCF      REGUP      +2
000215:
000216:    6274           50153                           INDEX    MODE                                  #  FOR VXSC AND V/SC WE WANT THE REQUIRED
000217:    6275           46306                           CS       REVCNT                                #  PUSHLOC DECREMENT WITHOUT CHANGING THE
000218:    6276           16301                           TCF      REGUP      +2                         #  MODE AT THIS TIME.
000219:
000220:    6277           50153        REGUP              INDEX    MODE                                  #  MOST ALL OP CODES PUSHUP HERE.
000221:    6300           46310                           CS       NO.WDS
000222:    6301           26156                 +2        ADS      PUSHLOC
000223:    6302           54106                           TS       ADDRWD
000224:    6303           50020        ITR14              INDEX    CYR
000225:    6304           76342                           7        INDJUMP    -1                         #  (THE INDEX MAKES THIS A TCF.)
000226:
000227:    6305           00002                           OCT      2                                     #  REVERSE PUSHUP DECREMENT. VECTOR TAKES 2
000228:    6306           00006        REVCNT             OCT      6                                     #  WORDS, SCALAR TAKES 6.
000229:    6307           00006                           OCT      6
000230:    6310           00002        NO.WDS             OCT      2                                     #  CONVENTIONAL DECREMENT IS 6 WORDS VECTOR
000231:    6311           00003        OCTAL3             OCT      3                                     #  2 IN DP, AND 3 IN TP.
000232:    6312           00006                           OCT      6
000233:


000235:                                                                                                  #            TEST THE SECOND PREFIX BIT TO SEE IF THIS IS A MISCELLANEOUS OR A UNARY/SHORT SHIFT OPERATION.
000236:
000237:    6313           10020        OPJUMP2            CCS      CYR                                   #  TEST SECOND PREFIX BIT.
000238:    6314           16327                           TCF      OPJUMP3                               #  TEST THIRD BIT TO SEE IF UNARY OR SHIFT.
000239:
000240:    6315           77722        -ENDVAC            DEC      -45        B-14
000241:
000242:                                                                                                  #           THE FOLLOWING ROUTINE PROCESSES ADDRESSES OF SUFFIX CLASS 10. THEY ARE BASICALLY WORK AREA ADDRESSES
000243:                                                                                                  #  IN THE RANGE 0 - 52, ERASABLE ECADR CONSTANTS FROM 100 - 3777, AND FCADRS ABOVE THAT. ALL 15 BITS ARE AVAILABLE
000244:                                                                                                  #  IN CONTRAST TO SUFFIX 1, IN WHICH ONLY THE LOW ORDER 14 ARE AVAILABLE.
000245:
000246:    6316           24154        15BITADR           INCR     LOC                                   #  (ENTRY HERE FROM STCALL).
000247:    6317           50154                           INDEX    LOC                                   #  PICK UP ADDRESS WORD.
000248:    6320           30000                           CA       0
000249:    6321           54107                           TS       POLISH                                #  WE MAY NEED A SUBADDRESS LATER.
000250:
000251:    6322           36337                           CAF      LOW7+2K                               #  THESE INSTRUCTIONS ARE IN BANK 1.
000252:    6323           54004                           TS       FBANK
000253:    6324           70020                           MASK     CYR
000254:    6325           50000        ITR7               INDEX    A
000255:    6326           16403                           TCF      MISCJUMP
000256:


000258:                                                                                                  #           COMPLETE THE DISPATCHING OF UNARY AND SHORT SHIFT OPERATIONS.
000259:
000260:    6327           54004        OPJUMP3            TS       FBANK                                 #  CALL IN BANK 0 (BIT5 11-15 OF A ARE 0.)
000261:                                                                                                  #           ITRACE (6) REFERS TO "OPJUMP3".
000262:    6330           10020                           CCS      CYR                                   #  TEST THIRD PREFIX BIT.
000263:    6331           50000                           INDEX    A                                     #  THE DECREMENTED UNARY CODE IS IN BITS
000264:    6332           12000                           TCF      UNAJUMP                               #  1-4 OF A (ZERO, EXIT, HAS BEEN DETECTED)
000265:
000266:    6333           10153                           CCS      MODE                                  #  ITS A SHORT SHIFT CODE. SEE IF PRESENT
000267:    6334           12017                           TCF      SHORTT                                #  SCALAR OR VECTOR.
000268:    6335           12017                           TCF      SHORTT
000269:    6336           12121                           TCF      SHORTV                                #  CALLS THE APPROPRIATE ROUTINE.
000270:
000271:
000272:    6337     4565               OCT23              =        VD1
000273:    6337           02177        LOW7+2K            OCT      2177                                  #  OP CODE MASK + BANK 1 FBANK SETTING.
000274:    6340           77700        HIGH9              OCT      77700
000275:    6341           76000        BANKMASK           OCT      76000                                 #  FBANK MASK.
000276:    6342     6341               FBANKMSK           EQUALS   BANKMASK
000277:    6342     5655               B12T14             =        PRIO34                                #  USED IN PROCESSING STORE CODES.
000278:    6342           74056        -ENDERAS           DEC      -2001      B-14                       #  = -(2047 - 45 - 1)
000279:


000281:                                                                                                  #           THE FOLLOWING IS THE JUMP TABLE FOR OP CODES WHICH MAY HAVE INDEXABLE ADDRESSES OR MAY PUSH UP.
000282:
000283:    6343           16563        INDJUMP            TCF      VLOAD                                 #  00 - LOAD MPAC WITH A VECTOR.
000284:    6344           17142                           TCF      TAD                                   #  01 - TRIPLE PRECISION ADD TO MPAC.
000285:    6345           17707                           TCF      SIGN                                  #  02 - COMPLEMENT MPAC (V OR SC) IF X NEG.
000286:    6346           17460                           TCF      VXSC                                  #  03 - VECTOR TIMES SCALAR.
000287:    6347           16761                           TCF      CGOTO                                 #  04 - COMPUTED GO TO.
000288:    6350           16546                           TCF      TLOAD                                 #  05 - LOAD MPAC WITH TRIPLE PRECISION.
000289:    6351           16537                           TCF      DLOAD                                 #  06 - LOAD MPAC WITH A DP SCALAR.
000290:    6352           17656                           TCF      V/SC                                  #  07 - VECTOR DIVIDED BY SCALAR.
000291:
000292:    6353           16557                           TCF      SLOAD                                 #  10 - LOAD MPAC IN SINGLE PRECISION.
000293:    6354           16676                           TCF      SSP                                   #  11 - SET SINGLE PRECISION INTO X.
000294:    6355           16601                           TCF      PDDL                                  #  12 - PUSH DOWN MPAC AND RE-LOAD IN DP.
000295:    6356           17413                           TCF      MXV                                   #  13 - MATRIX POST-MULTIPLIED BY VECTOR.
000296:    6357           16635                           TCF      PDVL                                  #  14 - PUSH DOWN AND VECTOR LOAD.
000297:    6360           16704                           TCF      CCALL                                 #  15 - COMPUTED CALL.
000298:    6361           17416                           TCF      VXM                                   #  16 - MATRIX PRE-MULTIPLIED BY VECTOR.
000299:    6362           17650                           TCF      TSLC                                  #  17 - NORMALIZE MPAC (SCALAR ONLY).
000300:
000301:    6363           17626                           TCF      DMPR                                  #  20 - DP MULTIPLY AND ROUND.
000302:    6364           17631                           TCF      DDV                                   #  21 - DP DIVIDE BY.
000303:    6365           17635                           TCF      BDDV                                  #  22 - DP DIVIDE INTO.
000304:    6366           17653                           TCF      GSHIFT                                #  23 - GENERAL SHIFT INSTRUCTION.
000305:    6367           17025                           TCF      VAD                                   #  24 - VECTOR ADD.
000306:    6370           17053                           TCF      VSU                                   #  25 - VECTOR SUBTRACT.
000307:    6371           17103                           TCF      BVSU                                  #  26 - VECTOR SUBTRACT FROM.
000308:    6372           17410                           TCF      DOT                                   #  27 - VECTOR DOT PRODUCT.
000309:
000310:    6373           17540                           TCF      VXV                                   #  30 - VECTOR CROSS PRODUCT.
000311:    6374           17504                           TCF      VPROJ                                 #  31 - VECTOR PROJECTION.
000312:    6375           17071                           TCF      DSU                                   #  32 - DP SUBTRACT.
000313:    6376           17127                           TCF      BDSU                                  #  33 - DP SUBTRACT FROM.
000314:    6377           17043                           TCF      DAD                                   #  34 - DP ADD.
000315:    6400           16400                           TCF      +0                                    #  35 - AVAILABLE
000316:    6401           17624                           TCF      DMP1                                  #  36 - DP MULTIPLY.
000317:    6402           17645                           TCF      SETPD                                 #  37 - SET PUSH DOWN POINTER (DIRECT ONLY)
000318:
000319:                                                                                                  #  CODES 10 AND 14 MUST NOT PUSH UP. CODE 04 MAY BE USED FOR VECTOR DECLARE BEFORE PUSHUP IF DESIRED.
000320:


000322:                                                                                                  #           THE FOLLOWING JUMP TABLE APPLIES TO INDEX, BRANCH, AND MISCELLANEOUS INSTRUCTIONS.
000323:
000324:    6403           12626        MISCJUMP           TCF      AXT                                   #  00 - ADDRESS TO INDEX TRUE.
000325:    6404           12633                           TCF      AXC                                   #  01 - ADDRESS TO INDEX COMPLEMENTED.
000326:    6405           12636                           TCF      LXA                                   #  02 - LOAD INDEX FROM ERASABLE.
000327:    6406           12642                           TCF      LXC                                   #  03 - LOAD INDEX FROM COMPLEMENT OF ERAS.
000328:    6407           12646                           TCF      SXA                                   #  04 - STORE INDEX IN ERASABLE.
000329:    6410           12654                           TCF      XCHX                                  #  05 - EXCHANGE INDEX WITH ERASABLE.
000330:    6411           12670                           TCF      INCR                                  #  06 - INCREMENT INDEX REGISTER.
000331:    6412           12677                           TCF      TIX                                   #  07 - TRANSFER ON INDEX.
000332:
000333:    6413           12662                           TCF      XAD                                   #  10 - INDEX REGISTER ADD FROM ERASABLE.
000334:    6414           12673                           TCF      XSU                                   #  11 - INDEX SUBTRACT FROM ERASABLE.
000335:    6415           12751                           TCF      BZE/GOTO                              #  12 - BRANCH ZERO AND GOTO.
000336:    6416           12756                           TCF      BPL/BMN                               #  13 - BRANCH PLUS AND BRANCH MINUS.
000337:    6417           12731                           TCF      RTB/BHIZ                              #  14 - RETURN TO BASIC AND BRANCH HI ZERO.
000338:    6420           12771                           TCF      CALL/ITA                              #  15 - CALL AND STORE QPRET.
000339:    6421           13000                           TCF      SW/                                   #  16 - SWITCH INSTRUCTIONS AND AVAILABLE.
000340:    6422           12741                           TCF      BOV(B)                                #  17 - BRANCH ON OVERFLOW TO BASIC OR INT.
000341:


000343:                                                                                                  #           THE FOLLOWING JUMP TABLE APPIES TO UNARY INSTRUCTIONS.
000344:
000345: 00,2000                                           BANK     0                                     #  00 - EXIT - DETECTED EARLIER.
000346: 00,2000           13167        UNAJUMP            TCF      SQRT                                  #  01 - SQUARE ROOT.
000347: 00,2001           13511                           TCF      SINE                                  #  02 - SIN.
000348: 00,2002           13500                           TCF      COSINE                                #  03 - COS.
000349: 00,2003           13571                           TCF      ARCSIN                                #  04 - ARC SIN.
000350: 00,2004           13573                           TCF      ARCCOS                                #  05 - ARC COS.
000351: 00,2005           13154                           TCF      DSQ                                   #  06 - DP SQUARE.
000352: 00,2006           12116                           TCF      ROUND                                 #  07 - ROUND TO DP.
000353:
000354: 00,2007           17722                           TCF      COMP                                  #  10 - COMPLEMENT VECTOR OR SCALAR.
000355: 00,2010           13212                           TCF      VDEF                                  #  11 - VECTOR DEFINE.
000356: 00,2011           13002                           TCF      UNIT                                  #  12 - UNIT VECTOR.
000357: 00,2012           13156                           TCF      ABVALABS                              #  13 - LENGTH OF VECTOR OR MAG OF SCALAR.
000358: 00,2013           13226                           TCF      VSQ                                   #  14 - SQUARE OF LENGTH OF VECTOR.
000359: 00,2014           16423                           TCF      STADR                                 #  15 - PUSH UP ON STORE CODE.
000360: 00,2015           13256                           TCF      RVQ                                   #  16 - RETURN VIA QPRET.
000361: 00,2016           13231                           TCF      PUSH                                  #  17 - PUSH MPAC DOWN.
000362:


000364:                                                                                                  #  SECTION 2  LOAD AND STORE PACKAGE.
000365:
000366:                                                                                                  #           A SET OF EIGHT STORE CODES IS PROVIDED AS THE PRIMARY METHOD OF STORING THE MULTI-PURPOSE
000367:                                                                                                  #  ACCUMULATOR (MPAC). IF IN THE DANZIG SECTION LOC REFERS TO AN ALGEBRAICALLY POSITIVE WORD, IT IS TAKEN AS A
000368:                                                                                                  #  STORE CODE WITH A CORRESPONDING ERASABLE ADDRESS. MOST OF THESE CODES ARE TWO ADDRESS, SPECIFYING THAT THE WORD
000369:                                                                                                  #  FOLLOWING THE STORE CODE IS TO BE USED AS AN ADDRESS FROM WHICH TO RE-LOAD MPAC. FOUR OPTIONS ARE AVAILABLE:
000370:
000371:                                                                                                  #           1. STORE               STORE MPAC. THE E ADDRESS MAY BE INDEXED.
000372:                                                                                                  #           2. STODL               STORE MPAC AND RE-LOAD IT IN DP WITH THE NEXT ADDRESS (THE LOAD MAY BE INDEXED).
000373:                                                                                                  #           3. STOVL               STORE MPAC AND RE-LOAD A VECTOR (AS ABOVE).
000374:                                                                                                  #           4. STCALL              STORE AND DO A CALL (BOTH ADDRESSES MUST BE DIRECT HERE).
000375:
000376:                                                                                                  #           STODL AND STOVL WILL TAKE FROM THE PUSH-DOWN LIST IF NO LOAD ADDRESS IS GIVEN.
000377:
000378:    6423                                           BLOCK    3
000379:
000380:    6423           30155        STADR              CA       BANKSET                               #  THE STADR CODE (PUSHUP UP ON STORE
000381:    6424           54004                           TS       FBANK                                 #  ADDRESS) ENTERS HERE.
000382:    6425           24154                           INCR     LOC
000383:    6426           50154        ITR1               INDEX    LOC                                   #  THE STORECODE WAS STORED COMPLEMENTED TO
000384:    6427           40000                           CS       0                                     #  MAKE IT LOOK LIKE AN OPCODE PAIR.
000385:    6430           67771                           AD       NEGONE                                #  (YUL CANT REMOVE 1 BECAUSE OF EARLY CCS)
000386:
000387:    6431           54106        DOSTORE            TS       ADDRWD
000388:    6432           74563                           MASK     LOW11                                 #  ENTRY FROM DISPATCHER. SAVE THE ERASABLE
000389:    6433           56106                           XCH      ADDRWD                                #  ADDRESS AND JUMP ON THE STORE CODE NO.
000390:    6434           75655                           MASK     B12T14
000391:    6435           00006                           EXTEND
000392:    6436           77757                           MP       BIT5                                  #  EACH TRANSFER VECTOR ENTRY IS TWO WORDS.
000393:    6437           50000        ITR0               INDEX    A
000394:    6440           16441                           TCF      STORJUMP
000395:


000397:                                                                                                  #           STORE CODE JUMP TABLE. CALLS THE APPROPRIATE STORING ROUTINE AND EXITS TO DANZIG OR TO ADDRESS WITH
000398:                                                                                                  #  A SUPPLIED OPERATION CODE.
000399:
000400:    6441           06471        STORJUMP           TC       STORE                                 #  STORE.
000401:    6442           16133                           TCF      NEWOPS     -1                         #  PICK UP NEW OP CODE(S).
000402:    6443           06463                           TC       STORE,1
000403:    6444           16133                           TCF      NEWOPS     -1
000404:    6445           06466                           TC       STORE,2
000405:    6446           16133                           TCF      NEWOPS     -1
000406:
000407:    6447           06471                           TC       STORE                                 #  STODL.
000408:    6450           16527                           TCF      DODLOAD
000409:
000410:    6451           06471                           TC       STORE                                 #  STODL WITH INDEXED LOAD ADDRESS.
000411:    6452           16210                           TCF      DODLOAD*
000412:
000413:    6453           06471                           TC       STORE                                 #  STOVL.
000414:    6454           16532                           TCF      DOVLOAD
000415:
000416:    6455           06471                           TC       STORE                                 #  STOVL WITH INDEXED LOAD ADDRESS.
000417:    6456           16535                           TCF      DOVLOAD*
000418:    6457           06471                           TC       STORE                                 #  STOTC.
000419:    6460           35344                           CAF      CALLCODE
000420:    6461           54020                           TS       CYR
000421:    6462           16316                           TCF      15BITADR                              #  GET A 15 BIT ADDRESS.
000422:


000424:                                                                                                  #           STORE CODE ADDRESS PROCESSOR.
000425:
000426:    6463           50110        STORE,1            INDEX    FIXLOC
000427:    6464           40046                           CS       X1
000428:    6465           16470                           TCF      PRESTORE
000429:
000430:    6466           50110        STORE,2            INDEX    FIXLOC
000431:    6467           40047                           CS       X2
000432:    6470           26106        PRESTORE           ADS      ADDRWD                                #  RESULTANT ADDRESS IS IN ERASABLE.
000433:
000434:    6471           40106        STORE              CS       ADDRWD
000435:    6472           65353                           AD       DEC45
000436:    6473           10000                           CCS      A                                     #  DOES THE ADDRESS POINT TO THE WORK AREA?
000437:    6474           30110                           CA       FIXLOC                                #  YES.
000438:    6475           16502                           TCF      AHEAD5
000439:    6476           35352                           CA       OCT1400                               #  NO.  SET EBANK & MAKE UP SUBADDRESS.
000440:    6477           56106                           XCH      ADDRWD
000441:    6500           54003                           TS       EBANK
000442:    6501           74564                           MASK     LOW8
000443:    6502           26106        AHEAD5             ADS      ADDRWD
000444:


000446:                                                                                                  #           STORING ROUTINES. STORE DP, TP, OR VECTOR AS INDICATED BY MODE.
000447:
000448:    6503           00006        STARTSTO           EXTEND                                         #  MPAC,+1 MUST BE STORED IN ANY EVENT.
000449:                                                                                                  #           ITRACE (5) REFERS TO "STARTSTO".
000450:    6504           30145                           DCA      MPAC
000451:    6505           50106                           INDEX    ADDRWD
000452:    6506           52001                           DXCH     0
000453:
000454:    6507           10153                           CCS      MODE
000455:    6510           16523                           TCF      TSTORE
000456:    6511           00002                           TC       Q
000457:
000458:    6512           00006        VSTORE             EXTEND
000459:    6513           30150                           DCA      MPAC       +3
000460:    6514           50106                           INDEX    ADDRWD
000461:    6515           52003                           DXCH     2
000462:
000463:    6516           00006                           EXTEND
000464:    6517           30152                           DCA      MPAC       +5
000465:    6520           50106                           INDEX    ADDRWD
000466:    6521           52005                           DXCH     4
000467:    6522           00002                           TC       Q
000468:
000469:    6523           30146        TSTORE             CA       MPAC       +2
000470:    6524           50106                           INDEX    ADDRWD
000471:    6525           54002                           TS       2
000472:    6526           00002                           TC       Q
000473:


000475:                                                                                                  #           ROUTINES TO BEGIN PROCESSING OF THE SECOND ADDRESS ASSOCIATED WITH ALL STORE-TYPE CODES EXCEPT STORE
000476:                                                                                                  #  ITSELF.
000477:
000478:    6527           35345        DODLOAD            CAF      DLOADCOD
000479:    6530           54020                           TS       CYR
000480:    6531           16152                           TCF      DIRADRES                              #  GO GET A DIRECT ADDRESS.
000481:
000482:    6532           37745        DOVLOAD            CAF      VLOADCOD
000483:    6533           54020                           TS       CYR
000484:    6534           16152                           TCF      DIRADRES
000485:
000486:    6535           36153        DOVLOAD*           CAF      VLOAD*
000487:    6536           16211                           TCF      DODLOAD*   +1                         #  PROLOGUE TO INDEX ROUTINE.
000488:


000490:                                                                                                  #           THE FOLLOWING LOAD INSTRUCTIONS ARE PROVIDED FOR LOADING THE MULTI-PURPOSE ACCUMULATOR MPAC.
000491:
000492:    6537           00006        DLOAD              EXTEND
000493:    6540           50106                           INDEX    ADDRWD
000494:    6541           30001                           DCA      0                                     #  PICK UP DP ARGUMENT AND LEAVE IT IN
000495:    6542           52145        SLOAD2             DXCH     MPAC                                  #  MPAC,+1, SETTING MPAC +2 TO ZERO. THE
000496:    6543           37767                           CAF      ZERO                                  #  CONTENTS OF THE OTHER FOUR REGISTERS OF
000497:    6544           54146                           TS       MPAC       +2                         #  MPAC ARE IRRELEVANT.
000498:    6545           16124                           TCF      NEWMODE                               #  DECLARE DOUBLE PRECISION MODE.
000499:
000500:    6546           50106        TLOAD              INDEX    ADDRWD
000501:    6547           30002                           CA       2                                     #  LOAD A TRIPLE PRECISION ARGUMENT INTO
000502:    6550           54146                           TS       MPAC       +2                         #  THE FIRST THREE MPAC REGISTERS, WITH THE
000503:    6551           00006                           EXTEND                                         #  CONTENTS OF THE OTHER FOUR IRRELEVANT.
000504:    6552           50106                           INDEX    ADDRWD
000505:    6553           30001                           DCA      0
000506:    6554           52145                           DXCH     MPAC
000507:    6555           37763                           CAF      ONE
000508:    6556           16124                           TCF      NEWMODE                               #  DECLARE TRIPLE PRECISION MODE.
000509:
000510:    6557           22007        SLOAD              ZL                                             #  LOAD A SINGLE PRECISION NUMBER INTO
000511:    6560           50106                           INDEX    ADDRWD                                #  MPAC, SETTING MPAC+1,2 TO ZERO. THE
000512:    6561           30000                           CA       0                                     #  CONTENTS OF THE REMAINING MPAC REGISTERS
000513:    6562           16542                           TCF      SLOAD2                                #  ARE IRRELEVANT.
000514:
000515:    6563           00006        VLOAD              EXTEND                                         #  LOAD A DOUBLE PRECISION VECTOR INTO
000516:    6564           50106                           INDEX    ADDRWD                                #  MPAC,+1, MPAC+3,4, AND MPAC+5,6. THE
000517:    6565           30001                           DCA      0                                     #  CONTENTS OF MPAC +2 ARE IRRELEVANT.
000518:    6566           52145                           DXCH     MPAC
000519:
000520:    6567           00006        ENDVLOAD           EXTEND                                         #  PDVL COMES HERE TO FINISH UP FOR DP, TP.
000521:    6570           50106                           INDEX    ADDRWD
000522:    6571           30003                           DCA      2
000523:    6572           52150                           DXCH     MPAC       +3
000524:
000525:    6573           00006                 +4        EXTEND                                         #  TPDVL FINISHES HERE.
000526:    6574           50106                           INDEX    ADDRWD
000527:    6575           30005                           DCA      4
000528:    6576           52152                           DXCH     MPAC       +5
000529:
000530:    6577           47763                           CS       ONE                                   #  DECLARE VECTOR MODE.
000531:    6600           16124                           TCF      NEWMODE
000532:


000534:                                                                                                  #           THE FOLLOWING INSTRUCTIONS ARE PROVIDED FOR STORING OPERANDS IN THE PUSHDOWN LIST:
000535:
000536:                                                                                                  #           1.  PUSH               PUSHDOWN AND NO LOAD.
000537:                                                                                                  #           2.  PDDL               PUSHDOWN AND DOUBLE PRECISION LOAD.
000538:                                                                                                  #           3.  PDVL               PUSHDOWN AND VECTOR LOAD.
000539:
000540:    6601           00006        PDDL               EXTEND
000541:    6602           50106                           INDEX    ADDRWD                                #  LOAD MPAC,+1, PUSHING THE FORMER
000542:    6603           30001                           DCA      0                                     #  CONTENTS DOWN.
000543:    6604           52145                           DXCH     MPAC
000544:    6605           50156                           INDEX    PUSHLOC
000545:    6606           52001                           DXCH     0
000546:
000547:    6607           50153                           INDEX    MODE                                  #  ADVANCE THE PUSHDOWN POINTER APPRO-
000548:    6610           36310                           CAF      NO.WDS                                #  PRIATELY.
000549:    6611           26156                           ADS      PUSHLOC
000550:
000551:    6612           10153                           CCS      MODE
000552:    6613           16630                           TCF      ENDTPUSH
000553:    6614           16626                           TCF      ENDDPUSH
000554:
000555:    6615           54153                           TS       MODE                                  #  NOW DP.
000556:    6616           54146        ENDVPUSH           TS       MPAC       +2
000557:    6617           52150                           DXCH     MPAC       +3                         #  PUSH DOWN THE REST OF THE VECTOR HERE.
000558:    6620           50156                           INDEX    PUSHLOC
000559:    6621           51775                           DXCH     0          -4
000560:
000561:    6622           52152                           DXCH     MPAC       +5
000562:    6623           50156                           INDEX    PUSHLOC
000563:    6624           51777                           DXCH     0          -2
000564:
000565:    6625           16125                           TCF      DANZIG
000566:
000567:    6626           54146        ENDDPUSH           TS       MPAC       +2                         #  SET MPAC +2 TO ZERO AND EXIT ON DP.
000568:    6627           16125                           TCF      DANZIG
000569:
000570:    6630           54153        ENDTPUSH           TS       MODE
000571:    6631           56146                           XCH      MPAC       +2                         #  ON TRIPLE, SET MPAC +2 TO ZERO, PUSHING
000572:    6632           50156                 +2        INDEX    PUSHLOC                               #  DOWN THE OLD CONTENTS
000573:    6633           53777                           TS       0          -1
000574:    6634           16125                           TCF      DANZIG
000575:


000577:                                                                                                  #           PDVL - PUSHDOWN AND VECTOR LOAD.
000578:
000579:    6635           00006        PDVL               EXTEND                                         #  RELOAD MPAC AND PUSH DOWN ITS CONTENTS.
000580:    6636           50106                           INDEX    ADDRWD
000581:    6637           30001                           DCA      0
000582:    6640           52145                           DXCH     MPAC
000583:    6641           50156                           INDEX    PUSHLOC
000584:    6642           52001                           DXCH     0
000585:
000586:    6643           50153                           INDEX    MODE                                  #  ADVANCE THE PUSHDOWN POINTER.
000587:    6644           36310                           CAF      NO.WDS
000588:    6645           26156                           ADS      PUSHLOC
000589:
000590:    6646           10153                           CCS      MODE                                  #  TEST PAST MODE.
000591:    6647           16666                           TCF      TPDVL
000592:    6650           16567                           TCF      ENDVLOAD                              #  JUST LOAD LAST FOUR REGISTERS ON DP.
000593:
000594:    6651           00006        VPDVL              EXTEND                                         #  PUSHDOWN AND RE-LOAD LAST TWO COMPONENTS
000595:    6652           50106                           INDEX    ADDRWD
000596:    6653           30003                           DCA      2
000597:    6654           52150                           DXCH     MPAC       +3
000598:    6655           50156                           INDEX    PUSHLOC
000599:    6656           51775                           DXCH     0          -4
000600:
000601:    6657           00006                           EXTEND
000602:    6660           50106                           INDEX    ADDRWD
000603:    6661           30005                           DCA      4
000604:    6662           52152                           DXCH     MPAC       +5
000605:    6663           50156                           INDEX    PUSHLOC
000606:    6664           51777                           DXCH     0          -2
000607:
000608:    6665           16125                           TCF      DANZIG
000609:
000610:    6666           00006        TPDVL              EXTEND                                         #  ON TP, WE MUST LOAD THE Y COMPONENT
000611:    6667           50106                           INDEX    ADDRWD                                #  BEFORE STORING MPAC +2 INCASE THIS IS A
000612:    6670           30003                           DCA      2                                     #  PUSHUP.
000613:    6671           52150                           DXCH     MPAC       +3
000614:
000615:    6672           30146                           CA       MPAC       +2
000616:    6673           50156                           INDEX    PUSHLOC                               #  IN DP.
000617:    6674           53777                           TS       0          -1
000618:    6675           16573                           TCF      ENDVLOAD   +4
000619:
000620:                                                                                                  #           SSP (STORE SINGLE PRECISION) IS EXECUTED HERE.
000621:
000622:    6676           24154        SSP                INCR     LOC                                   #  PICK UP THE WORD FOLLOWING THE GIVEN
000623:    6677           50154                           INDEX    LOC                                   #  ADDRESS AND STORE IT AT X.
000624:    6700           30000                           CA       0
000625:    6701           50106        STORE1             INDEX    ADDRWD                                #  SOME INDEX AND MISCELLANEOUS OPS END
000626:    6702           54000                           TS       0                                     #  HERE.


000628:    6703           16125                           TCF      DANZIG
000629:


000631:                                                                                                  #  SEQUENCE CHANGING AND SUBROUTINE CALLING OPTIONS.
000632:
000633:                                                                                                  #           THE FOLLOWING OPERATIONS ARE AVAILABLE FOR SEQUENCING CHANGING, BRANCHING, AND CALLING SUBROUTINES:
000634:
000635:                                                                                                  #           1.  GOTO               GO TO.
000636:                                                                                                  #           2.  CALL               CALL SUBROUTINE SETTING QPRET.
000637:                                                                                                  #           3.  CGOTO              COMPUTED GO TO.
000638:                                                                                                  #           4.  CCALL              COMPUTED CALL.
000639:                                                                                                  #           7.  BPL                BRANCH IF MPAC POSITIVE OR ZERO.
000640:                                                                                                  #           8.  BZE                BRANCH IF MPAC ZERO.
000641:                                                                                                  #           9.  BMN                BRANCH IF MPAC NEGATIVE NON-ZERO.
000642:
000643:    6704           24154        CCALL              INCR     LOC                                   #  MAINTAIN LOC FOR QPRET COMPUTATION.
000644:    6705           50154                           INDEX    LOC
000645:    6706           30000                           CAF      0                                     #  GET BASE ADDRESS OF CADR LIST.
000646:    6707           50106                           INDEX    ADDRWD
000647:    6710           60000                           AD       0                                     #  ADD INCREMENT.
000648:    6711           54004                           TS       FBANK                                 #  SELECT DESIRED CADR.
000649:    6712           75337                           MASK     LOW10
000650:    6713           50000                           INDEX    A
000651:    6714           32000                           CAF      10000
000652:    6715           54107                           TS       POLISH
000653:
000654:    6716           30155        CALL               CA       BANKSET                               #  FOR ANY OF THE CALL OPTIONS, MAKE UP THE
000655:    6717           76341                           MASK     BANKMASK                              #  ADDRESS OF THE NEXT OP-CODE PAIR/STORE
000656:    6720           66341                           AD       BANKMASK                              #  CODE AND LEAVE IT IN QPRET.  NOTE THAT
000657:    6721           60154                           AD       LOC                                   #  BANKMASK = -(2000 - 1).
000658:    6722           50110                           INDEX    FIXLOC
000659:    6723           54052                           TS       QPRET
000660:
000661:    6724           30107        GOTO               CA       POLISH                                #  BASIC BRANCHING SEQUENCE.
000662:    6725           75351                 +1        MASK     HIGH4
000663:    6726           00006                           EXTEND
000664:    6727           16740                           BZF      GOTOERS                               #  SEE IF ADDRESS POINTS TO FIXED OR ERAS.
000665:    6730           30155                 +4        CA       BANKSET                               #  SET EBANK PART OF BBANK. NEXT, SET UP
000666:    6731           54006                           TS       BBANK                                 #  FBANK. THE COMBINATION IS PICKED UP &
000667:    6732           30107                           CA       POLISH                                #  PUT INTO BANKSET AT INTPRET +2.
000668:    6733           54004                           TS       FBANK
000669:    6734           75337                           MASK     LOW10
000670:    6735           67751                           AD       2K
000671:    6736           54154                           TS       LOC
000672:    6737           16114                           TCF      INTPRET    +2
000673:


000675:    6740  E3,1400                                  EBANK=   1400                                  #  SO YUL DOESN'T CUSS THE "CA 1400" BELOW.
000676:
000677:    6740           30107        GOTOERS            CA       POLISH                                #  THE GIVEN ADDRESS IS IN ERASABLE - SEE
000678:    6741           66315                           AD       -ENDVAC                               #  IF RELATIVE TO THE WORK AREA.
000679:    6742           10000                           CCS      A
000680:    6743           30107                           CA       POLISH                                #  GENERAL ERASABLE.
000681:    6744           16753                           TCF      GOTOGE
000682:
000683:    6745           30110                           CA       FIXLOC                                #  WORK AREA.
000684:    6746           60107                           AD       POLISH
000685:    6747           50000                           INDEX    A                                     #  USE THE GIVEN ADDRESS AS THE ADDRESS OF
000686:    6750           30000                           CA       0                                     #  THE BRANCH ADDRESS.
000687:    6751           54107                           TS       POLISH
000688:    6752           16725                           TCF      GOTO       +1                         #  ALLOWS ARBITRARY INDIRECTNESS LEVELS.
000689:
000690:    6753           54003        GOTOGE             TS       EBANK
000691:    6754           74564                           MASK     LOW8
000692:    6755           50000                           INDEX    A                                     #  USE THE GIVEN ADDRESS AS THE ADDRESS OF
000693:    6756           31400                           CA       1400                                  #  THE BRANCH ADDRESS.
000694:    6757           54107                           TS       POLISH
000695:    6760           16725                           TCF      GOTO       +1
000696:
000697:    6761           50154        CGOTO              INDEX    LOC                                   #  COMPUTED GO TO. PICK UP ADDRESS OF CADR
000698:    6762           30001                           CA       1                                     #  LIST.
000699:    6763           50106                           INDEX    ADDRWD                                #  ADD MODIFIER.
000700:    6764           60000                           AD       0
000701:    6765           54004                           TS       FBANK                                 #  SELECT GOTO ADDRESS.
000702:    6766           75337                           MASK     LOW10
000703:    6767           50000                           INDEX    A
000704:    6770           32000                           CA       10000
000705:    6771           54107                           TS       POLISH
000706:    6772           16725                           TCF      GOTO       +1                         #  WITH ADDRESS IN A.
000707:
000708:    6773           30155        SWBRANCH           CA       BANKSET                               #  SWITCH INSTRUCTIONS WHICH ELECT TO
000709:    6774           54004                           TS       FBANK                                 #  BRANCH COME HERE TO DO SO.
000710:    6775           50154                           INDEX    LOC
000711:    6776           30001                           CA       1
000712:    6777           54107                           TS       POLISH
000713:    7000           16725                           TCF      GOTO       +1
000714:


000716:                                                                                                  #           TRIPLE PRECISION BRANCHING ROUTINE. IF CALLING TC IS AT L, RETURN IS AS FOLLOWS:
000717:
000718:                                                                                                  #           L+1  IF MPAC IS GREATER THAN ZERO.
000719:                                                                                                  #           L+2  IF MPAC IS EQUAL TO +0 OR -0.
000720:                                                                                                  #           L+3  IF MPAC IS LESS THAN ZERO.
000721:
000722:
000723:    7001           10144        BRANCH             CCS      MPAC
000724:    7002           00002                           TC       Q
000725:    7003           17005                           TCF      +2                                    #  ON ZERO.
000726:    7004           17017                           TCF      NEG
000727:
000728:    7005           10145                           CCS      MPAC       +1
000729:    7006           00002                           TC       Q
000730:    7007           17011                           TCF      +2
000731:    7010           17017                           TCF      NEG
000732:
000733:    7011           10146                           CCS      MPAC       +2
000734:    7012           00002                           TC       Q
000735:    7013           17015                           TCF      +2
000736:    7014           17017                           TCF      NEG
000737:
000738:    7015           50002        Q+1                INDEX    Q
000739:    7016           00001                           TC       1
000740:
000741:    7017           50002        NEG                INDEX    Q                                     #  IF FIRST NON-ZERO REGISTER WAS NEGATIVE.
000742:    7020           00002                           TC       2
000743:
000744:
000745:    7021     7017               Q+2                =        NEG
000746:
000747:                                                                                                  #           ITRACE (3) REFERS TO "EXIT".
000748:    7021           30155        EXIT               CA       BANKSET                               #  RESTORE USER'S BANK SETTING, AND LEAVE
000749:    7022           54006                           TS       BBANK                                 #  INTERPRETIVE MODE.
000750:    7023           50154                           INDEX    LOC
000751:    7024           00001                           TC       1
000752:


000754:                                                                                                  #  SECTION 3 - ADD/SUBTRACT PACKAGE.
000755:
000756:                                                                                                  #           THE FOLLOWING OPERATIONS ARE PROVIDED FOR ADDING TO AND SUBTRACTING FROM THE MULTI-PURPOSE ACCUMULATOR
000757:                                                                                                  #  MPAC:
000758:
000759:                                                                                                  #           1.  DAD                DOUBLE PRECISION ADD.
000760:                                                                                                  #           2.  DSU                DOUBLE PRECISION SUBTRACT.
000761:                                                                                                  #           3.  BDSU               DOUBLE PRECISION SUBTRACT FROM.
000762:
000763:                                                                                                  #           4.  TAD                TRIPLE PRECISION ADD.
000764:
000765:                                                                                                  #           5.  VAD                VECTOR ADD.
000766:                                                                                                  #           6.  VSU                VECTOR SUBTRACT.
000767:                                                                                                  #           7.  BVSU               VECTOR SUBTRACT FROM.
000768:
000769:                                                                                                  #  THE INTERPRETIVE OVERFLOW INDICATOR OVFIND IS SET NON-ZERO IF OVERFLOW OCCURS IN ANY OF THE ABOVE.
000770:
000771:
000772:    7025           00006        VAD                EXTEND
000773:    7026           50106                           INDEX    ADDRWD
000774:    7027           30003                           DCA      2
000775:    7030           20150                           DAS      MPAC       +3
000776:    7031           00006                           EXTEND                                         #  CHECK OVERFLOW.
000777:    7032           17034                           BZF      +2
000778:    7033           07101                           TC       OVERFLOW
000779:
000780:    7034           00006                           EXTEND
000781:    7035           50106                           INDEX    ADDRWD
000782:    7036           30005                           DCA      4
000783:    7037           20152                           DAS      MPAC       +5
000784:    7040           00006                           EXTEND
000785:    7041           17043                           BZF      +2
000786:    7042           07101                           TC       OVERFLOW
000787:
000788:    7043           00006        DAD                EXTEND
000789:    7044           50106                           INDEX    ADDRWD
000790:    7045           30001                           DCA      0
000791:    7046           20145        ENDVXV             DAS      MPAC                                  #  VXV FINISHES HERE.
000792:    7047           00006                           EXTEND
000793:    7050           16125                           BZF      DANZIG
000794:    7051           07101                           TC       OVERFLOW
000795:    7052           16125                           TCF      DANZIG
000796:


000798:    7053           00006        VSU                EXTEND
000799:    7054           50106                           INDEX    ADDRWD
000800:    7055           40003                           DCS      2
000801:    7056           20150                           DAS      MPAC       +3
000802:    7057           00006                           EXTEND
000803:    7060           17062                           BZF      +2
000804:    7061           07101                           TC       OVERFLOW
000805:
000806:    7062           00006                           EXTEND
000807:    7063           50106                           INDEX    ADDRWD
000808:    7064           40005                           DCS      4
000809:    7065           20152                           DAS      MPAC       +5
000810:    7066           00006                           EXTEND
000811:    7067           17071                           BZF      +2
000812:    7070           07101                           TC       OVERFLOW
000813:
000814:    7071           00006        DSU                EXTEND
000815:    7072           50106                           INDEX    ADDRWD
000816:    7073           40001                           DCS      0
000817:    7074           20145                           DAS      MPAC
000818:    7075           00006                           EXTEND
000819:    7076           16125                           BZF      DANZIG
000820:    7077           07101                           TC       OVERFLOW
000821:    7100           16125                           TCF      DANZIG
000822:
000823:    7101           37763        OVERFLOW           CAF      ONE                                   #  SUBROUTINE TO TURN OVFIND ON.
000824:    7102           17224                           TCF      SETOVF2
000825:


000827:    7103           00006        BVSU               EXTEND
000828:    7104           50106                           INDEX    ADDRWD
000829:    7105           30003                           DCA      2
000830:    7106           52150                           DXCH     MPAC       +3
000831:    7107           00006                           EXTEND
000832:    7110           40001                           DCOM
000833:    7111           20150                           DAS      MPAC       +3
000834:    7112           00006                           EXTEND
000835:    7113           17115                           BZF      +2
000836:    7114           07101                           TC       OVERFLOW
000837:
000838:    7115           00006                           EXTEND
000839:    7116           50106                           INDEX    ADDRWD
000840:    7117           30005                           DCA      4
000841:    7120           52152                           DXCH     MPAC       +5
000842:    7121           00006                           EXTEND
000843:    7122           40001                           DCOM
000844:    7123           20152                           DAS      MPAC       +5
000845:    7124           00006                           EXTEND
000846:    7125           17127                           BZF      +2
000847:    7126           07101                           TC       OVERFLOW
000848:
000849:    7127           00006        BDSU               EXTEND
000850:    7130           50106                           INDEX    ADDRWD
000851:    7131           30001                           DCA      0
000852:    7132           52145                           DXCH     MPAC
000853:    7133           00006                           EXTEND
000854:    7134           40001                           DCOM
000855:    7135           20145                           DAS      MPAC
000856:    7136           00006                           EXTEND
000857:    7137           16125                           BZF      DANZIG
000858:    7140           07101                           TC       OVERFLOW
000859:    7141           16125                           TCF      DANZIG
000860:


000862:                                                                                                  #           TRIPLE PRECISION ADD ROUTINE.
000863:
000864:    7142           00006        TAD                EXTEND
000865:    7143           50106                           INDEX    ADDRWD
000866:    7144           30002                           DCA      1                                     #  ADD MINOR PARTS FIRST.
000867:    7145           20146                           DAS      MPAC       +1
000868:    7146           50106                           INDEX    ADDRWD
000869:    7147           60000                           AD       0
000870:    7150           60144                           AD       MPAC
000871:    7151           54144                           TS       MPAC
000872:    7152           16125                           TCF      DANZIG
000873:
000874:    7153           54111        SETOVF             TS       OVFIND                                #  SET OVFIND IF SUCH OCCURS.
000875:    7154           16125                           TCF      DANZIG
000876:


000878:                                                                                                  #  ARITHMETIC SUBROUTINES REQUIRED IN FIXED-FIXED.
000879:                                                                                                  #           1.  DMPSUB     DOUBLE PRECISION MULTIPLY. MULTIPLY THE CONTENTS OF MPAC,+1 BY THE DP WORD WHOSE ADDRESS
000880:                                                                                                  #                          IS IN ADDRWD AND LEAVE A TRIPLE PRECISION RESULT IN MPAC.
000881:                                                                                                  #           2.  ROUNDSUB   ROUND THE TRIPLE PRECISON CONTENTS OF MPAC TO DOUBLE PRECISION.
000882:                                                                                                  #           3.  DOTSUB     TAKE THE DOT PRODUCT OF THE VECTOR IN MPAC AND THE VECTOR WHOSE ADDRESS IS IN ADDRWD
000883:                                                                                                  #                          AND LEAVE THE TRIPLE PRECISION RESULT IN MPAC.
000884:                                                                                                  #           4.  POLY       USING THE CONTENTS OF MPAC AS A DP ARGUMENT, EVALUATE THE POLYNOMIAL WHOSE DEGREE AND
000885:                                                                                                  #                          COEFFICIENTS IMMEDIATELY FOLLOW THE TC POLY INSTRUCTION (SEE ROUTINE FOR DETAILS.)
000886:
000887:
000888:    7155           50002        DMP                INDEX    Q                                     #  BASIC SUBROUTINE FOR USE BY PINBALL, ETC
000889:    7156           30000                           CAF      0                                     #  ADRES OF ARGUMENT FOLLOWS  TC DMP  .
000890:    7157           24002                           INCR     Q
000891:    7160           54106                 -1        TS       ADDRWD                                #  (PROLOGUE FOR SETTING ADDRWD.)
000892:
000893:    7161           50106        DMPSUB             INDEX    ADDRWD                                #  GET MINOR PART OF OPERAND AT C(ADDRWD).
000894:    7162           30001                           CA       1
000895:    7163           54146                           TS       MPAC       +2                         #  THIS WORKS FOR SQUARING MPAC AS WELL.
000896:    7164           37767                           CAF      ZERO                                  #  SET MPAC +1 TO ZERO SO WE CAN ACCUMULATE
000897:    7165           56145                           XCH      MPAC       +1                         #  THE PARTIAL PRODUCTS WITH DAS
000898:    7166           54125                           TS       MPTEMP                                #  INSTRUCTIONS.
000899:    7167           00006                           EXTEND
000900:    7170           70146                           MP       MPAC       +2                         #  MINOR OF MPAC X MINOR OF C(ADDRWD).
000901:
000902:    7171           56146                           XCH      MPAC       +2                         #  DISCARD MINOR PART OF ABOVE RESULT AND
000903:    7172           00006                           EXTEND                                         #  FORM MAJOR OF MPAC X MINOR OF C(ADDRWD).
000904:    7173           70144                           MP       MPAC
000905:    7174           20146                           DAS      MPAC       +1                         #  GUARANTEED NO OVERFLOW.
000906:
000907:    7175           50106                           INDEX    ADDRWD                                #  GET MAJOR PART OF ARGUMENT AT C(ADDRWD).
000908:    7176           30000                           CA       0
000909:    7177           56125                           XCH      MPTEMP                                #  SAVE AND BRING OUT MINOR OF MPAC.
000910:    7200           00006                           EXTEND
000911:    7201           70125                           MP       MPTEMP                                #  MAJOR OF C(ADDRWD) X MINOR OF MPAC.
000912:    7202           20146                           DAS      MPAC       +1                         #  ACCUMULATE, SETTING A TO NET OVERFLOW.
000913:
000914:    7203           56144                           XCH      MPAC                                  #  SETTING MPAC TO 0 OR +-1.
000915:    7204           00006                           EXTEND
000916:    7205           70125                           MP       MPTEMP                                #  MAJOR OF MPAC X MAJOR OF C(ADDRWD).
000917:    7206           20145                           DAS      MPAC                                  #  GUARANTEED NO OVERFLOW.
000918:    7207           00002                           TC       Q                                     #  49 MCT = .573 MS. INCLUDING RETURN.
000919:


000921:                                                                                                  #           ROUND MPAC TO DOUBLE PRECISION, SETTING OVFIND ON THE RARE EVENT OF OVERFLOW.
000922:
000923:    7210           37767        ROUNDSUB           CAF      ZERO                                  #  SET MPAC +2 = 0 FOR SCALARS AND CHANGE
000924:    7211           54153                 +1        TS       MODE                                  #  MODE TO DP.
000925:
000926:    7212           56146        VROUND             XCH      MPAC       +2                         #  BUT WE NEEDNT TAKE THE TIME FOR VECTORS.
000927:    7213           60000                           DOUBLE
000928:    7214           54001                           TS       L
000929:    7215           00002                           TC       Q
000930:
000931:    7216           60145                           AD       MPAC       +1                         #  ADD ROUNDING BIT IF MPAC +2 WAS GREATER
000932:    7217           54145                           TS       MPAC       +1                         #  THAN .5 IN MAGNITUDE.
000933:    7220           00002                           TC       Q
000934:
000935:    7221           60144                           AD       MPAC                                  #  PROPAGATE INTERFLOW.
000936:    7222           54144                           TS       MPAC
000937:    7223           00002                           TC       Q
000938:
000939:    7224           54111        SETOVF2            TS       OVFIND                                #  (RARE).
000940:    7225           00002                           TC       Q
000941:


000943:                                                                                                  #           THE DOT PRODUCT SUBROUTINE USUALLY FORMS THE DOT PRODUCT OF THE VECTOR IN MPAC WITH A STANDARD SIX
000944:                                                                                                  #  REGISTER VECTOR WHOSE ADDRESS IS IN ADDRWD. IN THIS CASE C(DOTINC) ARE SET TO 2. VXM, HOWEVER, SETS C(DOTINC) TO
000945:                                                                                                  #  6 SO THAT DOTSUB DOTS MPAC WITH A COLUMN VECTOR OF THE MATRIX IN QUESTION IN THIS CASE.
000946:
000947:
000948:    7226           37762        PREDOT             CAF      TWO                                   #  PROLOGUE TO SET DOTINC TO 2.
000949:    7227           54126                           TS       DOTINC
000950:
000951:    7230           00006        DOTSUB             EXTEND
000952:    7231           22127                           QXCH     DOTRET                                #  SAVE RETURN.
000953:    7232           07161                           TC       DMPSUB                                #  DOT X COMPONENTS.
000954:    7233           52150                           DXCH     MPAC       +3                         #  POSITION Y COMPONENT OF MPAC FOR
000955:    7234           52145                           DXCH     MPAC                                  #  MULTIPLICATION WHILE SAVING RESULT IN
000956:    7235           52121                           DXCH     BUF                                   #  THREE WORD BUFFER, BUF.
000957:    7236           30146                           CA       MPAC       +2
000958:    7237           54122                           TS       BUF        +2
000959:
000960:    7240           30126                           CA       DOTINC                                #  ADVANCE ADDRWD TO Y COMPONENT OF
000961:    7241           26106                           ADS      ADDRWD                                #  OTHER ARGUMENT.
000962:    7242           07161                           TC       DMPSUB
000963:    7243           52146                           DXCH     MPAC       +1                         #  ACCUMULATE PARTIAL PRODUCTS.
000964:    7244           20122                           DAS      BUF        +1
000965:    7245           60144                           AD       MPAC
000966:    7246           60120                           AD       BUF
000967:    7247           54120                           TS       BUF
000968:    7250           17252                           TCF      +2
000969:    7251           54111                           TS       OVFIND                                #  IF OVERFLOW OCCURS.
000970:
000971:    7252           52152                           DXCH     MPAC       +5                         #  MULTIPLY Z COMPONENTS.
000972:    7253           52145                           DXCH     MPAC
000973:    7254           30126                           CA       DOTINC
000974:    7255           26106                           ADS      ADDRWD
000975:    7256           07161                           TC       DMPSUB
000976:    7257           52122        ENDDOT             DXCH     BUF        +1                         #  LEAVE FINAL ACCUMULATION IN MPAC.
000977:    7260           20146                           DAS      MPAC       +1
000978:    7261           60144                           AD       MPAC
000979:    7262           60120                           AD       BUF
000980:    7263           54144                           TS       MPAC
000981:    7264           00127                           TC       DOTRET
000982:
000983:    7265           54111                           TS       OVFIND                                #  ON OVERFLOW HERE.
000984:    7266           00127                           TC       DOTRET
000985:


000987:                                                                                                  #  DOUBLE PRECISION POLYNOMIAL EVALUATOR
000988:                                                                                                  #                                     N        N-1
000989:                                                                                                  #           THIS ROUTINE EVALUATES A X  + A   X    + ... + A X + A  LEAVING THE DP RESULT IN MPAC ON EXIT.
000990:                                                                                                  #                                   N      N-1              1     0
000991:
000992:                                                                                                  #  THE ROUTINE HAS TWO ENTRIES
000993:
000994:                                                                                                  #           1. ENTRY THRU POWRSERS. THE COEFFICIENTS MAY BE EITHER IN FIXED OR ERASABLE, THE CALL IS BY
000995:                                                                                                  #              TC POWRSERS, AND THE RETURN IS TO LOC(TC POWRSERS)+1. THE ENTERING DATA MUST BE AS FOLLOWS
000996:
000997:                                                                                                  #                                          A        SP     LOC-3           ADDRESS FOR REFERENCING COEF TABLE
000998:                                                                                                  #                                          L        SP     N-1             N IS THE DEGREE OF THE POWER SERIES
000999:                                                                                                  #                                          MPAC     DP     X               ARGUMENT
001000:
001001:                                                                                                  #                                          LOC-2N   DP     A(0)
001002:                                                                                                  #                                                   ...
001003:                                                                                                  #                                          LOC      DP     A(N)
001004:
001005:                                                                                                  #           2. ENTRY THRU POLY. THE CALL TO POLY AND THE ENTERING DATA MUST BE AS FOLLOWS
001006:
001007:                                                                                                  #                                          MPAC     DP     X               ARGUMENT
001008:
001009:                                                                                                  #                                          LOC      TC     POLY
001010:                                                                                                  #                                          LOC+1    SP     N-1
001011:                                                                                                  #                                          LOC+2    DP     A(0)
001012:                                                                                                  #                                                   ...
001013:                                                                                                  #                                          LOC+2N+2 DP     A(N)            RETURN IS TO LOC+2N+4
001014:
001015:    7267           00006        POWRSERS           EXTEND
001016:    7270           22131                           QXCH     POLYRET                               #  RETURN ADDRESS
001017:    7271           54107                           TS       POLISH                                #  POWER SERIES ADDRESS
001018:    7272           22130                           LXCH     POLYCNT                               #  N-1 TO COUNTER
001019:    7273           17304                           TCF      POLYCOM                               #  SKIP SET UP BY POLY
001020:
001021:    7274           50002        POLY               INDEX    Q
001022:    7275           30000                           CAF      0
001023:    7276           54130                           TS       POLYCNT                               #  N-1 TO COUNTER
001024:    7277           60000                           DOUBLE
001025:    7300           60002                           AD       Q
001026:    7301           54107                           TS       POLISH                                #  L(A(N))-3 TO POLISH
001027:    7302           67766                           AD       FIVE
001028:    7303           54131                           TS       POLYRET                               #  STORE RETURN ADDRESS
001029:
001030:    7304           35347        POLYCOM            CAF      LVBUF                                 #  INCOMING X WILL BE MOVED TO VBUF, SO
001031:    7305           54106                           TS       ADDRWD                                #  SET ADDRWD SO DMPSUB WILL MPY BY VBUF.
001032:
001033:    7306           00006                           EXTEND
001034:    7307           50107                           INDEX    POLISH
001035:    7310           30004                           DCA      3
001036:


001038:    7311           52145                           DXCH     MPAC                                  #  LOAD A(N) INTO MPAC,
001039:    7312           52113                           DXCH     VBUF                                  #  SAVING X IN VBUF
001040:    7313           17317                           TCF      POLY2
001041:
001042:    7314           54130        POLYLOOP           TS       POLYCNT                               #  SAVE DECREMENTED LOOP COUNTER
001043:    7315           47762                           CS       TWO
001044:    7316           26107                           ADS      POLISH                                #  REGRESS COEFFICIENT POINTER
001045:
001046:    7317           07161        POLY2              TC       DMPSUB                                #  MULTIPLY BY X
001047:    7320           00006                           EXTEND
001048:    7321           50107                           INDEX    POLISH
001049:    7322           30002                           DCA      1                                     #  ADD IN NEXT COEFFICIENT
001050:    7323           20145                           DAS      MPAC                                  #  USERS RESPONSIBILITY TO ASSURE NO OVFLOW
001051:
001052:    7324           10130                           CCS      POLYCNT
001053:    7325           17314                           TCF      POLYLOOP
001054:    7326           00131                           TC       POLYRET                               #  RETURN CALLER
001055:


001057:                                                                                                  #           MISCELLANEOUS MULTI-PRECISION ROUTINES REQUIRED IN FIXED-FIXED BUT NOT USED BY THE INTERPRETER.
001058:
001059:    7327           22002        TPAGREE            LXCH     Q                                     #  FORCE SIGN AGREEMENT AMONG THE TRIPLE
001060:    7330           07001                           TC       BRANCH                                #  PRECISION CONTENTS OF MPAC.  RETURNING
001061:    7331           17335                           TCF      ARG+                                  #  WITH SIGNUM OF THE INPUT IN A.
001062:    7332           17355                           TCF      ARGZERO
001063:
001064:    7333           47743                           CS       POSMAX                                #  IF NEGATIVE.
001065:    7334           17336                           TCF      +2
001066:
001067:    7335           37743        ARG+               CAF      POSMAX
001068:    7336           54002                           TS       Q
001069:    7337           00006                           EXTEND
001070:    7340           24000                           AUG      A                                     #  FORMS +-1.0.
001071:    7341           60146                           AD       MPAC       +2
001072:    7342           54146                           TS       MPAC       +2
001073:    7343           37767                           CAF      ZERO
001074:    7344           60002                           AD       Q
001075:    7345           60145                           AD       MPAC       +1
001076:    7346           54145                           TS       MPAC       +1
001077:    7347           37767                           CAF      ZERO
001078:    7350           60002                           AD       Q                                     #  Q STILL HAS POSMAX OR NEGMAX IN IT.
001079:    7351           60144                           AD       MPAC
001080:    7352           54144        ARGZERO2           TS       MPAC                                  #  ALWAYS SKIPPING UNLESS ARGZERO.
001081:    7353           54145                           TS       MPAC       +1
001082:    7354           00001                           TC       L                                     #  RETURN VIA L.
001083:
001084:    7355           54146        ARGZERO            TS       MPAC       +2                         #  SET ALL THREE MPAC REGISTERS TO ZERO.
001085:    7356           17352                           TCF      ARGZERO2
001086:
001087:                                                                                                  #           SHORTMP MULTIPLIES THE TP CONTENTS OF MPAC BY THE SINGLE PRECISION NUMBER ARRIVING IN A.
001088:
001089:    7357           54125        SHORTMP            TS       MPTEMP
001090:    7360           00006                           EXTEND
001091:    7361           70146                           MP       MPAC       +2
001092:    7362           54146                           TS       MPAC       +2
001093:    7363           37767                           CAF      ZERO                                  #  SO SUBSEQUENT DAS WILL WORK.
001094:    7364           56145                           XCH      MPAC       +1
001095:    7365           00006                           EXTEND
001096:    7366           70125                           MP       MPTEMP
001097:    7367           20146                           DAS      MPAC       +1
001098:    7370           56144                           XCH      MPAC                                  #  SETTING MPAC TO 0.
001099:    7371           00006                           EXTEND
001100:    7372           70125                           MP       MPTEMP
001101:    7373           20145                           DAS      MPAC
001102:    7374           00002                           TC       Q
001103:


001105:                                                                                                  #         DMPNSUB MULTIPLIES THE DP FRACTION ARRIVING IN MPAC BY THE SP
001106:                                                                                                  #  INTEGER ARRIVING IN A.  THE DP PRODUCT DEPARTS BOTH IN MPAC AND IN
001107:                                                                                                  #  A AND L.  NOTE THAT DMPNSUB NORMALLY INCREASES THE MAGNITUDE OF THE
001108:                                                                                                  #  CONTENTS OF MPAC.  THE CUSTOMER MUST INSURE THAT B(A) X B(MPAC,MPAC+1)
001109:                                                                                                  #  AND B(A) X B(MPAC) ARE LESS THAN 1 IN MAGNITUDE, WHERE B, AS IS OBVIOUS,
001110:                                                                                                  #  INDICATES THE ARRIVING CONTENTS.
001111:
001112:    7375           54125        DMPNSUB            TS       DMPNTEMP
001113:    7376           00006                           EXTEND
001114:    7377           70145                           MP       MPAC       +1
001115:    7400           52145                           DXCH     MPAC                                  #  LOW PRODUCT TO MPAC, HIGH FACTOR TO A
001116:    7401           00006                           EXTEND
001117:    7402           70125                           MP       DMPNTEMP
001118:    7403           30001                           CA       L
001119:    7404           26144                           ADS      MPAC                                  #  COMPLETING THE PRODUCT IN MPAC
001120:    7405           00006                           EXTEND
001121:    7406           30145                           DCA      MPAC                                  #  BRINGING THE PRODUCT INTO A AND L
001122:    7407           00002                           TC       Q
001123:


001125:                                                                                                  #  MISCELLANEOUS VECTOR OPERATIONS. INCLUDED HERE ARE THE FOLLOWING:
001126:
001127:                                                                                                  #           1.  DOT                DP VECTOR DOT PRODUCT.
001128:                                                                                                  #           2.  VXV                DP VECTOR CROSS PRODUCT.
001129:                                                                                                  #           3.  VXSC               DP VECTOR TIMES SCALAR.
001130:                                                                                                  #           4.  V/SC               DP VECTOR DIVIDED BY SCALAR.
001131:                                                                                                  #           5.  VPROJ              DP VECTOR PROJECTION.  ( (MPAC.X)MPAC ).
001132:                                                                                                  #           6.  VXM                DP VECTOR POST-MULTIPLIED BY MATRIX.
001133:                                                                                                  #           7.  MXV                DP VECTOR PRE-MULTIPLIED BY MATRIX.
001134:
001135:
001136:    7410           07226        DOT                TC       PREDOT                                #  DO THE DOT PRODUCT AND EXIT, CHANGING
001137:    7411           37767                           CAF      ZERO                                  #  THE MODE TO DP SCALAR.
001138:    7412           16124                           TCF      NEWMODE
001139:
001140:
001141:    7413           37762        MXV                CAF      TWO                                   #  SET UP MATINC AND DOTINC FOR ROW
001142:    7414           54130                           TS       MATINC                                #  VECTORS.
001143:    7415           17421                           TCF      VXM/MXV                               #  GO TO COMMON PORTION.
001144:
001145:    7416           44570        VXM                CS       TEN                                   #  SET MATINC AND DOTINC TO REFER TO MATRIX
001146:    7417           54130                           TS       MATINC                                #  AS THREE COLUMN VECTORS.
001147:    7420           36306                           CAF      SIX
001148:


001150:                                                                                                  #           COMMON PORTION OF MXV AND VXM.
001151:
001152:    7421           54126        VXM/MXV            TS       DOTINC
001153:                                                                                                  #           ITRACE (2) REFERS TO "VXM/MXV".
001154:    7422           07612                           TC       MPACVBUF                              #  SAVE VECTOR IN MPAC FOR FURTHER USE.
001155:
001156:    7423           07230                           TC       DOTSUB                                #  GO DOT TO GET X COMPONENT OF ANSWER.
001157:    7424           00006                           EXTEND
001158:    7425           30113                           DCA      VBUF                                  #  MOVE MPAC VECTOR BACK INTO MPAC, SAVING
001159:    7426           52145                           DXCH     MPAC                                  #  NEW X COMPONENT IN BUF2.
001160:    7427           52124                           DXCH     BUF2
001161:    7430           00006                           EXTEND
001162:    7431           30115                           DCA      VBUF       +2
001163:    7432           52150                           DXCH     MPAC       +3
001164:    7433           00006                           EXTEND
001165:    7434           30117                           DCA      VBUF       +4
001166:    7435           52152                           DXCH     MPAC       +5
001167:    7436           30130                           CA       MATINC                                #  INITIALIZE ADDRWD FOR NEXT DOT PRODUCT.
001168:    7437           26106                           ADS      ADDRWD                                #  FORMS BASE ADDRESS OF NEXT COLUMN(ROW).
001169:
001170:    7440           07230                           TC       DOTSUB
001171:    7441           52113                           DXCH     VBUF                                  #  MOVE GIVEN VECTOR BACK TO MPAC, SAVING Y
001172:    7442           52145                           DXCH     MPAC                                  #  COMPONENT OF ANSWER IN VBUF +2.
001173:    7443           52115                           DXCH     VBUF       +2
001174:    7444           52150                           DXCH     MPAC       +3
001175:    7445           52117                           DXCH     VBUF       +4
001176:    7446           52152                           DXCH     MPAC       +5
001177:    7447           30130                           CA       MATINC                                #  FORM ADDRESS OF LAST COLUMN OR ROW.
001178:    7450           26106                           ADS      ADDRWD
001179:
001180:    7451           07230                           TC       DOTSUB
001181:    7452           52124                           DXCH     BUF2                                  #  ANSWER NOW COMPLETE. PUT COMPONENTS INTO
001182:    7453           52145                           DXCH     MPAC                                  #  PROPER MPAC REGISTERS.
001183:    7454           52152                           DXCH     MPAC       +5
001184:    7455           52115                           DXCH     VBUF       +2
001185:    7456           52150                           DXCH     MPAC       +3
001186:    7457           16125                           TCF      DANZIG                                #  EXIT.
001187:


001189:                                                                                                  #           VXSC - VECTOR TIMES SCALAR.
001190:
001191:    7460           10153        VXSC               CCS      MODE                                  #  TEST PRESENT MODE.
001192:    7461           17507                           TCF      DVXSC                                 #  SEPARATE ROUTINE WHEN SCALAR IS IN MPAC.
001193:    7462           17507                           TCF      DVXSC
001194:
001195:    7463           07161        VVXSC              TC       DMPSUB                                #  COMPUTE X COMPONENT
001196:    7464           07212                           TC       VROUND                                #  AND ROUND IT.
001197:    7465           52150                           DXCH     MPAC       +3                         #  PUT Y COMPONENT INTO MPAC SAVING MPAC IN
001198:    7466           52145                           DXCH     MPAC                                  #  MPAC +3.
001199:    7467           52150                           DXCH     MPAC       +3
001200:
001201:    7470           07161                           TC       DMPSUB                                #  DO SAME FOR Y AND Z COMPONENTS.
001202:    7471           07212                           TC       VROUND
001203:    7472           52152                           DXCH     MPAC       +5
001204:    7473           52145                           DXCH     MPAC
001205:    7474           52152                           DXCH     MPAC       +5
001206:
001207:    7475           07161                           TC       DMPSUB
001208:    7476           07212                           TC       VROUND
001209:    7477           52145        VROTATEX           DXCH     MPAC                                  #  EXIT USED TO RESTORE MPAC AFTER THIS
001210:    7500           52152                           DXCH     MPAC       +5                         #  TYPE OF ROTATION. CALLED BY VECTOR SHIFT
001211:    7501           52150                           DXCH     MPAC       +3                         #  RIGHT, V/SC, ETC.
001212:    7502           52145                           DXCH     MPAC
001213:    7503           16125                           TCF      DANZIG
001214:


001216:                                                                                                  #           DP VECTOR PROJECTION ROUTINE.
001217:
001218:    7504           07226        VPROJ              TC       PREDOT                                #  (MPAC.X)MPAC IS COMPUTED AND LEFT IN
001219:    7505           47761                           CS       FOUR                                  #  MPAC. DO DOT AND FALL INTO DVXSC.
001220:    7506           26106                           ADS      ADDRWD
001221:
001222:                                                                                                  #           VXSC WHEN SCALAR ARRIVES IN MPAC AND VECTOR IS AT X.
001223:
001224:    7507           00006        DVXSC              EXTEND                                         #  SAVE SCALAR IN MPAC +3 AND GET X
001225:    7510           30145                           DCA      MPAC                                  #  COMPONENT OF ANSWER.
001226:    7511           52150                           DXCH     MPAC       +3
001227:    7512           07161                           TC       DMPSUB
001228:    7513           07212                           TC       VROUND
001229:
001230:    7514           37762                           CAF      TWO                                   #  ADVANCE ADDRWD TO Y COMPONENT OF X.
001231:    7515           26106                           ADS      ADDRWD
001232:    7516           00006                           EXTEND
001233:    7517           30150                           DCA      MPAC       +3                         #  PUT SCALAR BACK INTO MPAC AND SAVE
001234:    7520           52145                           DXCH     MPAC                                  #  X RESULT IN MPAC +5.
001235:    7521           52152                           DXCH     MPAC       +5
001236:    7522           07161                           TC       DMPSUB
001237:    7523           07212                           TC       VROUND
001238:
001239:    7524           37762                           CAF      TWO
001240:    7525           26106                           ADS      ADDRWD                                #  TO Z COMPONENT.
001241:    7526           52150                           DXCH     MPAC       +3                         #  BRING SCALAR BACK, PUTTING Y RESULT IN
001242:    7527           52145                           DXCH     MPAC                                  #  THE PROPER PLACE.
001243:    7530           52150                           DXCH     MPAC       +3
001244:    7531           07161                           TC       DMPSUB
001245:    7532           07212                           TC       VROUND
001246:
001247:    7533           52145                           DXCH     MPAC                                  #  PUT Z COMPONENT IN PROPER PLACE, ALSO
001248:    7534           52152                           DXCH     MPAC       +5                         #  POSITIONING X.
001249:    7535           52145                           DXCH     MPAC
001250:
001251:    7536           47763                           CS       ONE                                   #  MODE HAS CHANGED TO VECTOR.
001252:    7537           16124                           TCF      NEWMODE
001253:


001255:                                                                                                  #           THE VECTOR CROSS PRODUCT ROUTINE CALCULATES (X M -X M ,X M -X M ,X M -X M ) WHERE M IS THE VECTOR IN
001256:                                                                                                  #                                                         3 2  2 3  1 3  3 1  2 1  1 2
001257:                                                                                                  #  MPAC AND X THE VECTOR AT THE GIVEN ADDRESS.
001258:
001259:
001260:    7540           00006        VXV                EXTEND
001261:    7541           30152                           DCA      MPAC       +5                         #  FORM UP M3X1, LEAVING M1 IN VBUF.
001262:    7542           52145                           DXCH     MPAC
001263:    7543           52113                           DXCH     VBUF
001264:    7544           07161                           TC       DMPSUB                                #  BY X1.
001265:
001266:    7545           00006                           EXTEND
001267:    7546           40150                           DCS      MPAC       +3                         #  CALCULATE -X1M2, SAVING X1M3 IN VBUF +2.
001268:    7547           52145                           DXCH     MPAC
001269:    7550           52115                           DXCH     VBUF       +2
001270:    7551           07161                           TC       DMPSUB
001271:
001272:    7552           37762                           CAF      TWO                                   #  ADVANCE ADDRWD TO X2.
001273:    7553           26106                           ADS      ADDRWD
001274:    7554           00006                           EXTEND
001275:    7555           40152                           DCS      MPAC       +5                         #  PREPARE TO GET -X2M3, SAVING -X1M2 IN
001276:    7556           52145                           DXCH     MPAC                                  #  MPAC +5.
001277:    7557           52152                           DXCH     MPAC       +5
001278:    7560           07161                           TC       DMPSUB
001279:
001280:    7561           00006                           EXTEND
001281:    7562           30113                           DCA      VBUF                                  #  GET X2M1, SAVING -X2M3 IN VBUF +4.
001282:    7563           52145                           DXCH     MPAC
001283:    7564           52117                           DXCH     VBUF       +4
001284:    7565           07161                           TC       DMPSUB
001285:
001286:    7566           37762                           CAF      TWO                                   #  ADVANCE ADDRWD TO X3.
001287:    7567           26106                           ADS      ADDRWD
001288:    7570           00006                           EXTEND
001289:    7571           40113                           DCS      VBUF                                  #  GET -X3M1, ADDING X2M1 TO MPAC +5 TO
001290:    7572           52145                           DXCH     MPAC                                  #  COMPLETE THE Z COMPONENT OF THE ANSWER.
001291:    7573           20152                           DAS      MPAC       +5
001292:
001293:    7574           00006                           EXTEND
001294:    7575           17577                           BZF      +2
001295:    7576           07101                           TC       OVERFLOW


001297:    7577           07161                           TC       DMPSUB
001298:    7600           52115                           DXCH     VBUF       +2                         #  MOVE X1M3 TO MPAC +3 SETTING UP FOR X3M2
001299:    7601           52150                           DXCH     MPAC       +3                         #  AND ADD -X3M1 TO MPAC +3 TO COMPLETE THE
001300:    7602           52145                           DXCH     MPAC                                  #  Y COMPONENT OF THE RESULT.
001301:    7603           20150                           DAS      MPAC       +3
001302:
001303:    7604           00006                           EXTEND
001304:    7605           17607                           BZF      +2
001305:    7606           07101                           TC       OVERFLOW
001306:
001307:    7607           07161                           TC       DMPSUB
001308:    7610           52117                           DXCH     VBUF       +4                         #  GO ADD -X2M3 TO X3M2 TO COMPLETE THE X
001309:    7611           17046                           TCF      ENDVXV                                #  COMPONENT (TAIL END OF DAD).
001310:
001311:                                                                                                  #           THE MPACVBUF SUBROUTINE SAVES THE VECTOR IN MPAC IN VBUF WITHOUT CLOBBERING MPAC.
001312:
001313:    7612           00006        MPACVBUF           EXTEND                                         #  CALLED BY MXV, VXM, AND UNIT.
001314:    7613           30145                           DCA      MPAC
001315:    7614           52113                           DXCH     VBUF
001316:    7615           00006                           EXTEND
001317:    7616           30150                           DCA      MPAC       +3
001318:    7617           52115                           DXCH     VBUF       +2
001319:    7620           00006                           EXTEND
001320:    7621           30152                           DCA      MPAC       +5
001321:    7622           52117                           DXCH     VBUF       +4
001322:    7623           00002                           TC       Q                                     #  RETURN TO CALLER.
001323:


001325:                                                                                                  #           INTERPRETIVE INSTRUCTIONS WHOSE EXECUTION CONSISTS OF PRINCIPALLY CALLING SUBROUTINES.
001326:
001327:    7624           07161        DMP1               TC       DMPSUB                                #  DMP INSTRUCTION.
001328:    7625           16125                           TCF      DANZIG
001329:
001330:    7626           07161        DMPR               TC       DMPSUB
001331:    7627           07211                           TC       ROUNDSUB   +1                         #  (C(A) = +0).
001332:    7630           16125                           TCF      DANZIG
001333:
001334:    7631           00006        DDV                EXTEND
001335:    7632           50106                           INDEX    ADDRWD                                #  MOVE DIVIDEND INTO BUF.
001336:    7633           30001                           DCA      0
001337:    7634           17641                           TCF      BDDV       +4
001338:
001339:    7635           00006        BDDV               EXTEND                                         #  MOVE DIVISOR INTO MPAC SAVING MPAC, THE
001340:    7636           50106                           INDEX    ADDRWD                                #  DIVIDEND, IN BUF.
001341:    7637           30001                           DCA      0
001342:    7640           52145                           DXCH     MPAC
001343:    7641           52121                 +4        DXCH     BUF
001344:    7642           37767                           CAF      ZERO                                  #  DIVIDE ROUTINES IN BANK 0.
001345:    7643           54004                           TS       FBANK
001346:    7644           12352                           TCF      DDV/BDDV
001347:
001348:    7645           30106        SETPD              CA       ADDRWD                                #  MUST SET TO WORK AREA, OR EBANK TROUBLE.
001349:    7646           54156                           TS       PUSHLOC
001350:    7647           16127                           TCF      NOIBNKSW                              #  NO FBANK SWITCH REQUIRED.
001351:
001352:    7650           37767        TSLC               CAF      ZERO                                  #  SHIFTING ROUTINES LOCATED IN BANK 00.
001353:    7651           54004                           TS       FBANK
001354:    7652           12172                           TCF      TSLC2
001355:
001356:    7653           35342        GSHIFT             CAF      LOW7                                  #  USED AS MASK AT GENSHIFT. THIS PROCESSES
001357:    7654           54004                           TS       FBANK                                 #  ANY SHIFT INSTRUCTION (EXCEPT TSLC) WITH
001358:    7655           12214                           TCF      GENSHIFT                              #  AN ADDRESS (ROUTINES IN BANK 0).
001359:


001361:                                                                                                  #           THE FOLLOWING IS THE PROLOGUE TO V/SC. IF THE PRESENT MODE IS VECTOR, IT SAVES THE SCALAR AT X IN BUF
001362:                                                                                                  #  AND CALLS THE V/SC ROUTINE IN BANK 0. IF THE PRESENT MODE IS SCALAR, IT MOVES THE VECTOR AT X INTO MPAC, SAVING
001363:                                                                                                  #  THE SCALAR IN MPAC IN BUF BEFORE CALLING THE V/SC ROUTINE IN BANK 0.
001364:
001365:
001366:    7656           10153        V/SC               CCS      MODE
001367:    7657           17670                           TCF      DV/SC                                 #  MOVE VECTOR INTO MPAC.
001368:    7660           17670                           TCF      DV/SC
001369:
001370:    7661           00006        VV/SC              EXTEND
001371:    7662           50106                           INDEX    ADDRWD
001372:    7663           30001                           DCA      0
001373:    7664           52121        V/SC1              DXCH     BUF                                   #  IN BOTH CASES, VECTOR IS NOW IN MPAC AND
001374:    7665           37767                           CAF      ZERO                                  #  SCALAR IN BUF.
001375:    7666           54004                           TS       FBANK
001376:    7667           12630                           TCF      V/SC2
001377:
001378:    7670           00006        DV/SC              EXTEND
001379:    7671           50106                           INDEX    ADDRWD
001380:    7672           30003                           DCA      2
001381:    7673           52150                           DXCH     MPAC       +3
001382:    7674           00006                           EXTEND
001383:    7675           50106                           INDEX    ADDRWD
001384:    7676           30005                           DCA      4
001385:    7677           52152                           DXCH     MPAC       +5
001386:
001387:    7700           47763                           CS       ONE                                   #  CHANGE MODE TO VECTOR.
001388:    7701           54153                           TS       MODE
001389:
001390:    7702           00006                           EXTEND
001391:    7703           50106                           INDEX    ADDRWD
001392:    7704           30001                           DCA      0
001393:    7705           52145                           DXCH     MPAC
001394:    7706           17664                           TCF      V/SC1                                 #  FINISH PROLOGUE AT COMMON SECTION.
001395:


001397:                                                                                                  #           SIGN AND COMPLEMENT INSTRUCTIONS.
001398:
001399:    7707           50106        SIGN               INDEX    ADDRWD                                #  CALL COMP INSTRUCTION IF WORD AT X IS
001400:    7710           10000                           CCS      0                                     #  NEGATIVE NON-ZERO.
001401:    7711           16125                           TCF      DANZIG
001402:    7712           17714                           TCF      +2
001403:    7713           17722                           TCF      COMP                                  #  DO THE COMPLEMENT.
001404:
001405:    7714           50106                           INDEX    ADDRWD
001406:    7715           10001                           CCS      1
001407:    7716           16125                           TCF      DANZIG
001408:    7717           16125                           TCF      DANZIG
001409:    7720           17722                           TCF      COMP
001410:    7721           16125                           TCF      DANZIG
001411:    7722           00006        COMP               EXTEND                                         #  COMPLEMENT DP MPAC IN EVERY CASE.
001412:    7723           40145                           DCS      MPAC
001413:    7724           52145                           DXCH     MPAC
001414:
001415:    7725           10153                           CCS      MODE                                  #  EITHER COMPLEMENT MPAC +3 OR THE REST OF
001416:    7726           17737                           TCF      DCOMP                                 #  THE VECTOR ACCUMULATOR.
001417:    7727           17737                           TCF      DCOMP
001418:
001419:    7730           00006                           EXTEND                                         #  VECTOR COMPLEMENT.
001420:    7731           40150                           DCS      MPAC       +3
001421:    7732           52150                           DXCH     MPAC       +3
001422:    7733           00006                           EXTEND
001423:    7734           40152                           DCS      MPAC       +5
001424:    7735           52152                           DXCH     MPAC       +5
001425:    7736           16125                           TCF      DANZIG
001426:
001427:    7737           40146        DCOMP              CS       MPAC       +2
001428:    7740           54146                           TS       MPAC       +2
001429:    7741           16125                           TCF      DANZIG
001430:


001432:                                                                                                  #           CONSTANTS REQUIRED IN FIXED-FIXED.
001433:    7742           37777        DPOSMAX            OCT      37777
001434:    7743           37777        POSMAX             OCT      37777
001435:    7744     7744               LIMITS             EQUALS   POSMAX     +1
001436:    7744           57777        NEG1/2             OCT      -20000                                #  MUST BE TWO LOCATIONS AHEAD OF POS1/2.
001437:
001438:    7745           40000        BIT15              OCT      40000                                 #  BIT TABLE FOLLOWS.
001439:    7746           20000        BIT14              OCT      20000
001440:    7747           10000        BIT13              OCT      10000
001441:    7750           04000        BIT12              OCT      04000
001442:    7751           02000        BIT11              OCT      02000
001443:    7752           01000        BIT10              OCT      01000
001444:    7753           00400        BIT9               OCT      00400
001445:    7754           00200        BIT8               OCT      00200
001446:    7755           00100        BIT7               OCT      00100
001447:    7756           00040        BIT6               OCT      00040
001448:    7757           00020        BIT5               OCT      00020
001449:    7760           00010        BIT4               OCT      00010
001450:    7761           00004        BIT3               OCT      00004
001451:    7762           00002        BIT2               OCT      00002
001452:    7763           00001        BIT1               OCT      00001
001453:
001454:    7764     7745               NEGMAX             EQUALS   BIT15
001455:    7764     7746               HALF               EQUALS   BIT14
001456:    7764     7746               POS1/2             EQUALS   HALF
001457:    7764     7747               QUARTER            EQUALS   BIT13
001458:    7764     7751               2K                 EQUALS   BIT11
001459:    7764           00013        ELEVEN             DEC      11         B-14
001460:    7765     7764               NOUTCON            =        ELEVEN
001461:    7765     4570               TEN                =        BINCON
001462:    7765     4530               NINE               =        R2D1
001463:    7765     7760               EIGHT              EQUALS   BIT4
001464:    7765           00007        SEVEN              OCT      7
001465:    7766     6306               SIX                EQUALS   REVCNT
001466:    7766           00005        FIVE               OCT      5
001467:    7767     7761               FOUR               EQUALS   BIT3
001468:    7767     6311               THREE              EQUALS   OCTAL3
001469:    7767     7762               TWO                EQUALS   BIT2
001470:    7767     7763               ONE                EQUALS   BIT1
001471:    7767           00000        ZERO               OCT      0
001472:    7770           77777        NEG0               OCT      77777
001473:    7771           77776        NEGONE             DEC      -1         B-14
001474:
001475:    7772     7771               NEG1               =        NEGONE
001476:    7772     7771               MINUS1             EQUALS   NEG1
001477:
001478:    5336                                           BLOCK    02
001479:
001480:    5336           77775        NEG2               OCT      77775


001482:    5337           01777        LOW10              OCT      1777
001483:    5340           77774        NEG3               DEC      -3         B-14
001484:    5341           00777        LOW9               OCT      777
001485:    5342           00177        LOW7               OCT      177
001486:    5343           00017        LOW4               OCT      17
001487:    5344     7765               LOW3               EQUALS   SEVEN
001488:    5344     6311               LOW2               EQUALS   THREE
001489:
001490:    5344           00032        CALLCODE           OCT      00032
001491:    5345           40014        DLOADCOD           OCT      40014
001492:    5346     7745               VLOADCOD           EQUALS   BIT15
001493:    5346           40015        DLOAD*             OCT      40015
001494:    5347     6153               VLOAD*             EQUALS   OCT40001
001495:    5347           00112        LVBUF              ADRES    VBUF
001496:    5350     5210               BIT13-14           =        PRIO30
001497:                                                                                                  #  THERE ARE FOUR POSSIBLE SETTINGS FOR CHANNEL 07 (WNACTV) FOR ACCESSING THE EVENTUALLY THREE AND ONE-HALF
001498:                                                                                                  #  PRESENTLY ONE AND ONE-HALF SUPERBANKS.
001499:
001500:    5350           00060        SUPER011           OCT      60                                    #  BITS FOR SUPERBNK SETTING 011
001501:    5351     7755               SUPER100           EQUALS   BIT7                                  #  BITS FOR SUPERBNK SETTING 100
001502:                                                                                                  #                                                                  (LAST 4K OF ROPE)
001503:                                                                                                  #  SUPER101        OCT             120                             BITS FOR SUPERBNK SETTING 101
001504:                                                                                                  #                                                                  (FIRST 8K OF ACM)
001505:                                                                                                  #  SUPER110        OCT             140                             BITS FOR SUPERBNK SETTING 110
001506:                                                                                                  #                                                                  (LAST 8K OF ACM)
001507:    5351           74000        HIGH4              OCT      74000
001508:    5352           01400        OCT1400            OCT      01400
001509:    5353           00055        DEC45              DEC      45         B-14
001510:


001512:                                                                                                  #           THE FOLLOWING SHORT SHIFT CODES REQUIRE NO ADDRESS WORD:
001513:
001514:                                                                                                  #           1.  SR1 TO SR4         SCALAR SHIFT RIGHT.
001515:                                                                                                  #           2.  SR1R TO SR4R       SCALAR SHIFT RIGHT AND ROUND.
001516:                                                                                                  #           3.  SL1 TO SL4         SCALAR SHIFT LEFT.
001517:                                                                                                  #           4.  SL1R TO SL4R       SCALAR SHIFT LEFT AND ROUND.
001518:
001519:                                                                                                  #           5.  VSR1 TO VSR8       VECTOR SHIFT RIGHT (ALWAYS ROUNDS).
001520:                                                                                                  #           6.  VSL1 TO VSL8       VECTOR SHIFT LEFT (NEVER ROUNDS).
001521:
001522:                                                                                                  #           THE FOLLOWING CODES REQUIRE AN ADDRESS WHICH MAY BE INDEXED:*
001523:
001524:                                                                                                  #           1.  SR                 SCALAR SHIFT RIGHT.
001525:                                                                                                  #           2.  SRR                SCALAR SHIFT RIGHT AND ROUND.
001526:                                                                                                  #           3.  SL                 SCALAR SHIFT LEFT.
001527:                                                                                                  #           4.  SLR                SCALAR SHIFT LEFT AND ROUND.
001528:
001529:                                                                                                  #           5.  VSR                VECTOR SHIFT RIGHT.
001530:                                                                                                  #           6.  VSL                VECTOR SHIFT LEFT.
001531:
001532:                                                                                                  #  *  IF THE ADDRESS IS INDEXED, AND THE INDEX MODIFICATION RESULTS IN A NEGATIVE SHIFT COUNT, A SHIFT OF THE
001533:                                                                                                  #  ABSOLUTE VALUE OF THE COUNT IS DONE IN THE OPPOSITE DIRECTION.
001534:
001535: 00,2017                                           BANK     00
001536:
001537: 00,2017           36306        SHORTT             CAF      SIX                                   #  SCALAR SHORT SHIFTS COME HERE. THE SHIFT
001538: 00,2020           70020                           MASK     CYR                                   #  COUNT-1 IS NOW IN BITS 2-3 OF CYR. THE
001539: 00,2021           54021                           TS       SR                                    #  ROUNDING BIT IS IN BIT1 AT THIS POINT.
001540:
001541: 00,2022           10020                           CCS      CYR                                   #  SEE IF RIGHT OR LEFT SHIFT DESIRED.
001542: 00,2023           12101                           TCF      TSSL                                  #  SHIFT LEFT.
001543:
001544: 00,2024           00024        SRDDV              DEC      20         B-14                       #  MPTEMP SETTING FOR SR BEFORE DDV.
001545:
001546: 00,2025           50021        TSSR               INDEX    SR                                    #  GET SHIFTING BIT.
001547: 00,2026           37746                           CAF      BIT14
001548: 00,2027           54125                           TS       MPTEMP
001549:
001550: 00,2030           10020                           CCS      CYR                                   #  SEE IF A ROUND IS DESIRED.
001551: 00,2031           02050        RIGHTR             TC       MPACSRND                              #  YES - SHIFT RIGHT AND ROUND.
001552: 00,2032           16124                           TCF      NEWMODE                               #  SET MODE TO DP (C(A) = 0).
001553: 00,2033           30125        MPACSHR            CA       MPTEMP                                #  DO A TRIPLE PRECISION SHIFT RIGHT.
001554: 00,2034           00006                           EXTEND
001555: 00,2035           70146                           MP       MPAC       +2
001556: 00,2036           54146                 +3        TS       MPAC       +2                         #  (EXIT FROM SQRT AND ABVAL).
001557: 00,2037           30125                           CA       MPTEMP
001558: 00,2040           00006                           EXTEND
001559: 00,2041           70144                           MP       MPAC                                  #  SHIFT MAJOR PART INTO A,L AND PLACE IN


001561: 00,2042           52145                           DXCH     MPAC                                  #  MPAC,+1.
001562: 00,2043           30125                           CA       MPTEMP
001563: 00,2044           00006                           EXTEND
001564: 00,2045           70001                           MP       L                                     #  ORIGINAL C(MPAC +1).
001565: 00,2046           20146                           DAS      MPAC       +1                         #  GUARANTEED NO OVERFLOW.
001566: 00,2047           16125                           TCF      DANZIG
001567:
001568:                                                                                                  #           MPAC SHIFT RIGHT AND ROUND SUBROUTINES.
001569:
001570: 00,2050           30146        MPACSRND           CA       MPAC       +2                         #  WE HAVE TO DO ALL THREE MULTIPLIES SINCE
001571: 00,2051           00006                           EXTEND                                         #  MPAC +1 AND MPAC +2 MIGHT HAVE SIGN
001572: 00,2052           70125                           MP       MPTEMP                                #  DISAGREEMENT WITH A SHIFT RIGHT OF 1.
001573: 00,2053           56145                           XCH      MPAC       +1
001574: 00,2054           00006                           EXTEND
001575: 00,2055           70125                           MP       MPTEMP
001576: 00,2056           56145                           XCH      MPAC       +1                         #  TRIAL MINOR PART.
001577: 00,2057           60001                           AD       L
001578:
001579: 00,2060           60000        VSHR2              DOUBLE                                         #  (FINISH VECTOR COMPONENT SHIFT RIGHT
001580: 00,2061           54146                           TS       MPAC       +2                         #  AND ROUND.
001581: 00,2062           12064                           TCF      +2
001582: 00,2063           26145                           ADS      MPAC       +1                         #  GUARANTEED NO OVERFLOW.
001583:
001584: 00,2064           37767                           CAF      ZERO
001585: 00,2065           54146                           TS       MPAC       +2
001586: 00,2066           56144                           XCH      MPAC                                  #  SETTING TO ZERO SO FOLLOWING DAS WORKS.
001587: 00,2067           00006                           EXTEND
001588: 00,2070           70125                           MP       MPTEMP
001589: 00,2071           20145                           DAS      MPAC                                  #  AGAIN NO OVERFLOW.
001590: 00,2072           00002                           TC       Q
001591:
001592: 00,2073           30125        VSHRRND            CA       MPTEMP                                #  ENTRY TO SHIFT RIGHT AND ROUND MPAC WHEN
001593: 00,2074           00006                           EXTEND                                         #  MPAC CONTAINS A VECTOR COMPONENT.
001594: 00,2075           70145                           MP       MPAC       +1
001595: 00,2076           54145                           TS       MPAC       +1
001596: 00,2077           56001                           XCH      L
001597: 00,2100           12060                           TCF      VSHR2                                 #  GO ADD ONE IF NECESSARY AND FINISH.
001598:


001600:                                                                                                  #           ROUTINE FOR SHORT SCALAR SHIFT LEFT (AND MAYBE ROUND).
001601:
001602: 00,2101           30021        TSSL               CA       SR                                    #  GET SHIFT COUNT FOR SR.
001603: 00,2102           54125                 +1        TS       MPTEMP
001604:
001605: 00,2103           00006                 +2        EXTEND                                         #  ENTRY HERE FROM SL FOR SCALARS.
001606: 00,2104           30146                           DCA      MPAC       +1                         #  SHIFTING LEFT ONE PLACE AT A TIME IS
001607: 00,2105           20146                           DAS      MPAC       +1                         #  FASTER THAN DOING THE WHOLE SHIFT WITH
001608: 00,2106           60144                           AD       MPAC                                  #  MULTIPLIES ASSUMING THAT FREQUENCY OF
001609: 00,2107           60144                           AD       MPAC                                  #  SHIFT COUNTS GOES DOWN RAPIDLY AS A
001610: 00,2110           54144                           TS       MPAC                                  #  FUNCTION OF THEIR MAGNITUDE.
001611: 00,2111           12113                           TCF      +2
001612: 00,2112           54111                           TS       OVFIND                                #  OVERFLOW.  (LEAVES OVERFLOW-CORRECTED
001613:                                                                                                  #  RESULT ANYWAY).
001614: 00,2113           10125                           CCS      MPTEMP                                #  LOOP ON DECREMENTED SHIFT COUNT.
001615: 00,2114           12102                           TCF      TSSL       +1
001616:
001617: 00,2115           10020                           CCS      CYR                                   #  SEE IF ROUND WANTED.
001618: 00,2116           07210        ROUND              TC       ROUNDSUB                              #  YES - ROUND AND EXIT.
001619: 00,2117           16125                           TCF      DANZIG                                #  SL LEAVES A ZERO IN CYR FOR NO ROUND.
001620: 00,2120           16125                           TCF      DANZIG                                #  NO - EXIT IMMEDIATL
001621:


001623:                                                                                                  #  VECTOR SHIFTING ROUTINES.
001624:
001625: 00,2121           37765        SHORTV             CAF      LOW3                                  #  SAVE 3 BIT SHIFT COUNT - 1 WITHOUT
001626: 00,2122           70020                           MASK     CYR                                   #  EDITING CYR.
001627: 00,2123           54125                           TS       MPTEMP
001628: 00,2124           10020                           CCS      CYR                                   #  SEE IF LEFT OR RIGHT SHIFT.
001629: 00,2125           12145                           TCF      VSSL                                  #  VECTOR SHIFT LEFT.
001630: 00,2126           00176        OCT176             OCT      176                                   #  USED IN PROCESSED SHIFTS WITH - COUNT.
001631:
001632: 00,2127           50125        VSSR               INDEX    MPTEMP                                #  (ENTRY FROM SR). PICK UP SHIFTING BIT.
001633: 00,2130           37746                           CAF      BIT14                                 #  MPTEMP CONTAINS THE SHIFT COUNT - 1.
001634: 00,2131           54125                           TS       MPTEMP
001635: 00,2132           02073                           TC       VSHRRND                               #  SHIFT X COMPONENT.
001636:
001637: 00,2133           52145                           DXCH     MPAC                                  #  SWAP X AND Y COMPONENTS.
001638: 00,2134           52150                           DXCH     MPAC       +3
001639: 00,2135           52145                           DXCH     MPAC
001640: 00,2136           02073                           TC       VSHRRND                               #  SHIFT Y COMPONENT.
001641:
001642: 00,2137           52145                           DXCH     MPAC                                  #  SWAP Y AND Z COMPONENTS.
001643: 00,2140           52152                           DXCH     MPAC       +5
001644: 00,2141           52145                           DXCH     MPAC
001645: 00,2142           02073                           TC       VSHRRND                               #  SHIFT Z COMPONENT.
001646:
001647: 00,2143           17477                           TCF      VROTATEX                              #  RESTORE COMPONENTS TO PROPER PLACES.
001648:


001650:                                                                                                  #  VECTOR SHIFT LEFT - DONE ONE PLACE AT A TIME.
001651:
001652: 00,2144           54125                 -1        TS       MPTEMP                                #  SHIFTING LOOP.
001653:
001654: 00,2145           00006        VSSL               EXTEND
001655: 00,2146           30145                           DCA      MPAC
001656: 00,2147           20145                           DAS      MPAC
001657: 00,2150           00006                           EXTEND
001658: 00,2151           12153                           BZF      +2
001659: 00,2152           07101                           TC       OVERFLOW
001660:
001661: 00,2153           00006                           EXTEND
001662: 00,2154           30150                           DCA      MPAC       +3
001663: 00,2155           20150                           DAS      MPAC       +3
001664: 00,2156           00006                           EXTEND
001665: 00,2157           12161                           BZF      +2
001666: 00,2160           07101                           TC       OVERFLOW
001667:
001668: 00,2161           00006                           EXTEND
001669: 00,2162           30152                           DCA      MPAC       +5
001670: 00,2163           20152                           DAS      MPAC       +5
001671: 00,2164           00006                           EXTEND
001672: 00,2165           12167                           BZF      +2
001673: 00,2166           07101                           TC       OVERFLOW
001674:
001675: 00,2167           10125                           CCS      MPTEMP                                #  LOOP ON DECREMENTED SHIFT COUNTER.
001676: 00,2170           12144                           TCF      VSSL       -1
001677: 00,2171           16125                           TCF      DANZIG                                #  EXIT.
001678:


001680:                                                                                                  #           TSLC - TRIPLE SHIFT LEFT AND COUNT. SHIFTS MPAC LEFT UNTIL GREATER THAN .5 IN MAGNITUDE, LEAVING
001681:                                                                                                  #  THE COMPLEMENT OF THE NUMBER OF SHIFTS REQUIRED IN X.
001682:
001683: 00,2172           54125        TSLC2              TS       MPTEMP                                #  START BY ZEROING SHIFT COUNT (IN A NOW).
001684: 00,2173           07001                           TC       BRANCH                                #  EXIT WITH NO SHIFTING IF ARGUMENT ZERO.
001685: 00,2174           12176                           TCF      +2
001686: 00,2175           12212                           TCF      ENDTSLC                               #  STORES ZERO SHIFT COUNT IN THIS CASE.
001687:
001688: 00,2176           07327                           TC       TPAGREE                               #  MAY CAUSE UPSHIFT OF ONE EXTRA PLACE.
001689:
001690: 00,2177           30144                           CA       MPAC                                  #  BEGIN NORMALIZATION LOOP.
001691: 00,2200           12207                           TCF      TSLCTEST
001692:
001693: 00,2201           24125        TSLCLOOP           INCR     MPTEMP                                #  INCREMENT SHIFT COUNTER.
001694: 00,2202           00006                           EXTEND
001695: 00,2203           30146                           DCA      MPAC       +1
001696: 00,2204           20146                           DAS      MPAC       +1
001697: 00,2205           60144                           AD       MPAC
001698: 00,2206           26144                           ADS      MPAC
001699: 00,2207           60000        TSLCTEST           DOUBLE                                         #  SEE IF (ANOTHER) SHIFT IS REQUIRED.
001700: 00,2210           54000                           OVSK
001701: 00,2211           12201                           TCF      TSLCLOOP                              #  YES - INCREMENT COUNT AND SHIFT AGAIN.
001702:
001703: 00,2212           40125        ENDTSLC            CS       MPTEMP
001704: 00,2213           16701                           TCF      STORE1                                #  STORE SHIFT COUNT AND RETURN TO DANZIG.
001705:


001707:                                                                                                  #           THE FOLLOWING ROUTINES PROCESSES THE GENERAL SHIFT INSTRUCTIONS SR, SRR, SL, AND SLR.
001708:                                                                                                  #  THE GIVEN ADDRESS IS DECODED AS FOLLOWS:
001709:
001710:                                                                                                  #           BITS 1-7    SHIFT COUNT (SUBADDRESS) LESS THAN 125 DECIMAL.
001711:                                                                                                  #           BIT 8       PSEUDO SIGN BIT (DETECTS CHANGE IN SIGN IN INDEXED SHIFTS).
001712:                                                                                                  #           BIT 9       0 FOR LEFT SHIFT, AND 1 FOR RIGHT SHIFT.
001713:                                                                                                  #           BIT 10      1 FOR TERMINAL ROUND ON SCALAR SHIFTS, 0 OTHERWISE.
001714:                                                                                                  #           BITS 11-13  0.
001715:                                                                                                  #           BIT 14      1.
001716:                                                                                                  #           BIT 15      0.
001717:
001718:                                                                                                  #  THE ABOVE ENCODING IS DONE BY THE YUL SYSTEM.
001719:
001720:
001721: 00,2214           70106        GENSHIFT           MASK     ADDRWD                                #  GET SHIFT COUNT, TESTING FOR ZERO.
001722: 00,2215           10000                           CCS      A                                     #  (ARRIVES WITH C(A) = LOW7).
001723: 00,2216           12224                           TCF      GENSHFT2                              #  IF NON-ZERO, PROCEED WITH DECREMENTED CT
001724:
001725: 00,2217           37752                           CAF      BIT10                                 #  ZERO SHIFT COUNT. NO SHIFTS NEEDED BUT
001726: 00,2220           70106                           MASK     ADDRWD                                #  WE MIGHT HAVE TO ROUND MPAC ON SLR AND
001727: 00,2221           10000                           CCS      A                                     #  SRR (SCALAR ONLY).
001728: 00,2222           07210                           TC       ROUNDSUB
001729: 00,2223           16125                           TCF      DANZIG
001730:
001731: 00,2224           54125        GENSHFT2           TS       MPTEMP                                #  DECREMENTED SHIFT COUNT TO MPTEMP.
001732: 00,2225           37754                           CAF      BIT8                                  #  TEST MEANING OF LOW SEVEN BIT COUNT IN
001733: 00,2226           00006                           EXTEND                                         #  MPTEMP NOW.
001734: 00,2227           70106                           MP       ADDRWD
001735: 00,2230           76311                           MASK     LOW2                                  #  JUMPS ON SHIFT DIRECTION (BIT8) AND
001736: 00,2231           50000                           INDEX    A
001737: 00,2232           12233                           TCF      +1                                    #  ORIGINAL SHIFT DIRECTION (BIT 9).
001738: 00,2233           12332                           TCF      RIGHT-                                #  NEGATIVE SHIFT COUNT FOR SL OR SLR.
001739: 00,2234           12341                           TCF      LEFT                                  #  SL OR SLR.
001740: 00,2235           12336                           TCF      LEFT-                                 #  NEGATIVE SHIFT COUNT WITH SR OR SRR.
001741:


001743:                                                                                                  #           GENERAL SHIFT RIGHT.
001744:
001745: 00,2236           10153        RIGHT              CCS      MODE                                  #  SEE IF VECTOR OR SCALAR.
001746: 00,2237           12277                           TCF      GENSCR
001747: 00,2240           12277                           TCF      GENSCR
001748:
001749: 00,2241           30125                           CA       MPTEMP                                #  SEE IF SHIFT COUNT LESS THAN 14D.
001750: 00,2242           63710        VRIGHT2            AD       NEG12
001751: 00,2243           00006                           EXTEND
001752: 00,2244           62127                           BZMF     VSSR                                  #  IF SO, BRANCH AND SHIFT IMMEDIATELY.
001753:
001754: 00,2245           67771                           AD       NEGONE                                #  IF NOT, REDUCE MPTEMP BY A TOTAL OF 14,
001755: 00,2246           54125                           TS       MPTEMP                                #  AND DO A SHIFT RIGHT AND ROUND BY 14.
001756: 00,2247           37767                           CAF      ZERO                                  #  THE ROUND AT THIS STAGE MAY INTRODUCE A
001757: 00,2250           54001                           TS       L                                     #  ONE BIT ERROR IN A SHIFT RIGHT 15D.
001758: 00,2251           56144                           XCH      MPAC
001759: 00,2252           56145                           XCH      MPAC       +1
001760: 00,2253           02272                           TC       SETROUND                              #  X COMPONENT NOW SHIFTED, SO MAKE UP THE
001761: 00,2254           20145                           DAS      MPAC                                  #  ROUNDING QUANTITY (0 IN A AND 0 OR +-1
001762:                                                                                                  #  IN L).
001763: 00,2255           56147                           XCH      MPAC       +3                         #  REPEAT THE ABOVE PROCESS FOR Y AND Z.
001764: 00,2256           56150                           XCH      MPAC       +4
001765: 00,2257           02272                           TC       SETROUND
001766: 00,2260           20150                           DAS      MPAC       +3                         #  NO OVERFLOW ON THESE ADDS.
001767:
001768: 00,2261           56151                           XCH      MPAC       +5
001769: 00,2262           56152                           XCH      MPAC       +6
001770: 00,2263           02272                           TC       SETROUND
001771: 00,2264           20152                           DAS      MPAC       +5
001772:
001773: 00,2265           10125                           CCS      MPTEMP                                #  SEE IF DONE, DOING FINAL DECREMENT.
001774: 00,2266           54125                           TS       MPTEMP
001775: 00,2267           12242                           TCF      VRIGHT2
001776: 00,2270           04604        BIASLO             DEC      .2974      B-1                        #  SQRT CONSTANT
001777:
001778: 00,2271           16125                           TCF      DANZIG
001779:
001780:
001781: 00,2272           60000        SETROUND           DOUBLE                                         #  MAKES UP ROUNDING QUANTITY FROM ARRIVING
001782: 00,2273           54146                           TS       MPAC       +2                         #  C(A). L IS ZERO INITIALLY.
001783: 00,2274           37767                           CAF      ZERO
001784: 00,2275           56001                           XCH      L
001785: 00,2276           00002                           TC       Q                                     #  RETURN AND DO THE DAS, RESETTING L TO 0.
001786:


001788:                                                                                                  #           PROCESS SR AND SRR FOR SCALARS.
001789:
001790: 00,2277           30125        GENSCR             CA       MPTEMP                                #  SEE IF THE ORIGINAL SHIFT COUNT WAS LESS
001791: 00,2300           63710                 +1        AD       NEG12                                 #  THAN 14D.
001792: 00,2301           00006                           EXTEND
001793: 00,2302           62322                           BZMF     DOSSHFT                               #  DO THE SHIFT IMMEDIATELY IF SO.
001794:
001795: 00,2303           67771                 +4        AD       NEGONE                                #  IF NOT, DECREMENT SHIFT COUNT BY 14D AND
001796: 00,2304           54125                           TS       MPTEMP                                #  SHIFT MPAC RIGHT 14 PLACES.
001797: 00,2305           37767                           CAF      ZERO
001798: 00,2306           56144                           XCH      MPAC
001799: 00,2307           56145                           XCH      MPAC       +1
001800: 00,2310           54146                           TS       MPAC       +2
001801: 00,2311           10125                           CCS      MPTEMP                                #  SEE IF FINISHED, DO FINAL DECREMENT.
001802: 00,2312           54125                           TS       MPTEMP
001803: 00,2313           02300                           TC       GENSCR     +1
001804: 00,2314           22650        SLOPEHI            DEC      .5884                                 #  SQRT CONSTANT.
001805: 00,2315           37752                           CAF      BIT10                                 #  FINISHED WITH SHIFT. SEE IF ROUND
001806: 00,2316           70106                           MASK     ADDRWD                                #  WANTED.
001807: 00,2317           10000                           CCS      A
001808: 00,2320           07210                           TC       ROUNDSUB
001809: 00,2321           16125                           TCF      DANZIG                                #  DO SO AND/OR EXIT.
001810:
001811: 00,2322           50125        DOSSHFT            INDEX    MPTEMP                                #  PICK UP SHIFTING BIT.
001812: 00,2323           37746                           CAF      BIT14
001813: 00,2324           54125                           TS       MPTEMP
001814: 00,2325           37752                           CAF      BIT10                                 #  SEE IF TERMINAL ROUND DESIRED.
001815: 00,2326           70106                           MASK     ADDRWD
001816: 00,2327           10000                           CCS      A
001817: 00,2330           12031                           TCF      RIGHTR                                #  YES.
001818: 00,2331           12033                           TCF      MPACSHR                               #  JUST SHIFT RIGHT.
001819:


001821:                                                                                                  #           PROCESS THE RIGHT- (SL(R) WITH A NEGATIVE COUNT), LEFT-, AND LEFT OPTIONS.
001822:
001823: 00,2332           40125        RIGHT-             CS       MPTEMP                                #  GET ABSOLUTE VALUE - 1 OF SHIFT COUNT
001824: 00,2333           62126                           AD       OCT176                                #  UNDERSTANDING THAT BIT8 (PSEUDO-SIGN)
001825: 00,2334           54125                           TS       MPTEMP                                #  WAS 1 INITIALLY.
001826: 00,2335           12236                           TCF      RIGHT                                 #  DO NORMAL SHIFT RIGHT.
001827:
001828: 00,2336           40125        LEFT-              CS       MPTEMP                                #  SAME PROLOGUE TO LEFT FOR INDEXED RIGHT
001829: 00,2337           62126                           AD       OCT176                                #  SHIFTS WHOSE NET SHIFT COUNT IS NEGATIVE
001830: 00,2340           54125                           TS       MPTEMP
001831:
001832: 00,2341           10153        LEFT               CCS      MODE                                  #  SINCE LEFT SHIFTING IS SONE ONE PLACE AT
001833: 00,2342           12345                           TCF      GENSCL                                #  A TIME, NO COMPARISON WITH 14 NEED BE
001834: 00,2343           12345                           TCF      GENSCL                                #  DONE. FOR SCALARS, SEE IF TERMINAL ROUND
001835: 00,2344           12145                           TCF      VSSL                                  #  DESIRED. FOR VECTORS, SHIFT IMMEDIATELY.
001836:
001837: 00,2345           37756        GENSCL             CAF      BIT6                                  #  PUT ROUNDING BIT (BIT10 OF ADDRWD) INTO
001838: 00,2346           00006                           EXTEND                                         #  BIT 15 OF CYR WHERE THE ROUNDING BIT OF
001839: 00,2347           70106                           MP       ADDRWD                                #  A SHORT SHIFT LEFT WOULD BE.
001840: 00,2350           54020                           TS       CYR
001841: 00,2351           12103                           TCF      TSSL       +2                         #  DO THE SHIFT.
001842:


001844:                                                                                                  #           SCALAR DIVISION INSTRUCTIONS, DDV AND BDDV, ARE EXECUTED HERE. AT THIS POINT, THE DIVIDEND IS IN MPAC
001845:                                                                                                  #  AND THE DIVISOR IN BUF.
001846:
001847: 00,2352           47763        DDV/BDDV           CS       ONE                                   #  INITIALIZATION.
001848: 00,2353           54126                           TS       DVSIGN                                #  +-1 FOR POSITIVE QUOTIENT - -0 FOR NEG.
001849: 00,2354           54127                           TS       DVNORMCT                              #  DIVIDEND NORMALIZATION COUNT.
001850: 00,2355           54130                           TS       MAXDVSW                               #  NEAR-ONE DIVIDE FLAG.
001851:
001852: 00,2356           10120                           CCS      BUF                                   #  FORCE BUF POSITIVE WITH THE MAJOR PART
001853: 00,2357           13712                           TCF      BUFPOS                                #  NON-ZERO.
001854: 00,2360           12362                           TCF      +2
001855: 00,2361           13725                           TCF      BUFNEG
001856:
001857: 00,2362           54146        BUFZERO            TS       MPAC       +2                         #  ZERO THIS.
001858: 00,2363           07327                           TC       TPAGREE                               #  FORCE SIGN AGREEMENT BEFORE OVERFLOW
001859:
001860: 00,2364           10144                           CCS      MPAC                                  #  TEST TO SEE IF MPAC NON-ZERO.  (TOO BIG)
001861: 00,2365           12412                           TCF      OVF+                                  #  MAJOR PART OF DIVIDEND IS POSITIVE NON-0
001862: 00,2366           12370                           TCF      +2
001863: 00,2367           12411                           TCF      OVF+       -1                         #  MAJOR PART OF DIVIDEND IS NEG. NON-ZERO
001864:
001865: 00,2370           56121                           XCH      BUF        +1                         #  SHIFT DIVIDEND AND DIVISOR LEFT 14.
001866: 00,2371           56120                           XCH      BUF
001867: 00,2372           56145                           XCH      MPAC       +1
001868: 00,2373           56144                           XCH      MPAC
001869: 00,2374           10120                           CCS      BUF                                   #  TRY AGAIN ON FORMER MINOR PART.
001870: 00,2375           12420                           TCF      BUF+
001871: 00,2376           12400                           TCF      +2                                    #  OVERFLOW ON ZERO DIVISOR.
001872: 00,2377           12414                           TCF      BUF-
001873:
001874: 00,2400           40144                           CS       MPAC                                  #  SIGN OF MPAC DETERMINES SIGN OF RESULT.
001875: 00,2401           00006        SGNDVOVF           EXTEND
001876: 00,2402           62404                           BZMF     +2
001877: 00,2403           24126                           INCR     DVSIGN                                #  NEGMAX IN MPAC PERHAPS.
001878: 00,2404           37743        DVOVF              CAF      POSMAX                                #  ON DIVISION OVERFLOW OF ANY SORT, SET
001879: 00,2405           54144                           TS       MPAC                                  #  SET DP MPAC TO +-POSMAX.
001880: 00,2406           02604                           TC       FINALDV    +3
001881: 00,2407           37763                           CAF      ONE                                   #  SET OVERFLOW INDICATOR AND EXIT.
001882: 00,2410           17153                           TCF      SETOVF
001883:
001884: 00,2411           24126                 -1        INCR     DVSIGN
001885: 00,2412           40121        OVF+               CS       BUF        +1                         #  LOAD LOWER ORDER PART OF DIVISOR.
001886: 00,2413           12401                           TCF      SGNDVOVF                              #  GET SIGN OF RESULT.
001887:
001888: 00,2414           00006        BUF-               EXTEND                                         #  IF BUF IS NEGATIVE, COMPLEMENT IT AND
001889: 00,2415           40121                           DCS      BUF                                   #  MAINTAIN DVSIGN FOR FINAL QUOTIENT SIGN.
001890: 00,2416           52121                           DXCH     BUF
001891: 00,2417           24126                           INCR     DVSIGN                                #  NOW -0.
001892:
001893: 00,2420           10144        BUF+               CCS      MPAC                                  #  FORCE MPAC POSITIVE, CHECKING FOR ZERO


001895: 00,2421           12435                           TCF      MPAC+                                 #  DIVIDEND IN THE PROCESS.
001896: 00,2422           12424                           TCF      +2
001897: 00,2423           12431                           TCF      MPAC-
001898: 00,2424           10145                           CCS      MPAC       +1
001899: 00,2425           12435                           TCF      MPAC+
001900: 00,2426           16125                           TCF      DANZIG                                #  EXIT IMMEDIATELY ON ZERO DIVIDEND.
001901: 00,2427           12431                           TCF      MPAC-
001902: 00,2430           16125                           TCF      DANZIG
001903:
001904: 00,2431           00006        MPAC-              EXTEND                                         #  FORCE MPAC POSITIVE AS BUF IN BUF-.
001905: 00,2432           40145                           DCS      MPAC
001906: 00,2433           52145                           DXCH     MPAC
001907: 00,2434           24126                           INCR     DVSIGN                                #  NOW +1 OR -0.
001908:


001910: 00,2435           40144        MPAC+              CS       MPAC                                  #  CHECK FOR DIVISION OVERFLOW. IF THE
001911: 00,2436           67771                           AD       NEGONE                                #  MAJOR PART OF THE DIVIDEND IS LESS THAN
001912: 00,2437           60120                           AD       BUF                                   #  THE MAJOR PART OF THE DIVISOR BY AT
001913: 00,2440           10000                           CCS      A                                     #  LEAST TWO, WE CAN PROCEED IMMEDIATELY
001914: 00,2441           12503                           TCF      DVNORM                                #  WITHOUT NORMALIZATION PRODUCING A DVMAX.
001915: 00,2442           60001        -1/2+2             OCT      60001                                 #  USED IN SQRTSUB.
001916:
001917: 00,2443           12444                           TCF      +1                                    #  IF THE ABOVE DOES NOT HOLD, FORCE SIGN
001918: 00,2444           37746                           CAF      HALF                                  #  AGREEMENT IN NUMERATOR AND DENOMINATOR
001919: 00,2445           60000                           DOUBLE                                         #  TO FACILITATE OVERFLOW AND NEAR-ONE
001920: 00,2446           60145                           AD       MPAC       +1                         #  CHECKING.
001921: 00,2447           54145                           TS       MPAC       +1
001922: 00,2450           37767                           CAF      ZERO
001923: 00,2451           67743                           AD       POSMAX
001924: 00,2452           26144                           ADS      MPAC
001925:
001926: 00,2453           37746                           CAF      HALF                                  #  SAME FOR BUF.
001927: 00,2454           60000                           DOUBLE
001928: 00,2455           60121                           AD       BUF        +1
001929: 00,2456           54121                           TS       BUF        +1
001930: 00,2457           37767                           CAF      ZERO
001931: 00,2460           67743                           AD       POSMAX
001932: 00,2461           26120                           ADS      BUF
001933:
001934: 00,2462           40144                           CS       MPAC                                  #  CHECK MAGNITUDE OF SIGN-CORRECTED
001935: 00,2463           60120                           AD       BUF                                   #  OPERANDS.
001936: 00,2464           10000                           CCS      A
001937: 00,2465           12503                           TCF      DVNORM                                #  DIVIDE OK - WILL NOT BECOME MAXDV CASE.
001938: 00,2466           00123        LBUF2              ADRES    BUF2
001939: 00,2467           12404                           TCF      DVOVF                                 #  DIVISOR NOT LESS THAN DIVIDEND - OVF.
001940:
001941: 00,2470           54130                           TS       MAXDVSW                               #  IF THE MAJOR PARTS OF THE DIVIDEND AND
001942: 00,2471           40145                           CS       MPAC       +1                         #  DIVISOR ARE EQUAL, A SPECIAL APPROXIMA-
001943: 00,2472           60121                           AD       BUF        +1                         #  TION IS USED (PROVIDED THE DIVISION IS
001944: 00,2473           00006                           EXTEND                                         #  POSSIBLE, OF COURSE).
001945: 00,2474           62404                           BZMF     DVOVF
001946: 00,2475           12503                           TCF      DVNORM                                #  IF NO OVERFLOW.
001947:


001949: 00,2476           00006        BUFNORM            EXTEND                                         #  ADD -1 TO AUGMENT SHIFT COUNT AND SHIFT
001950: 00,2477           24127                           AUG      DVNORMCT                              #  LEFT ONE PLACE.
001951: 00,2500           00006                           EXTEND
001952: 00,2501           30121                           DCA      BUF
001953: 00,2502           20121                           DAS      BUF
001954:
001955: 00,2503           30120        DVNORM             CA       BUF                                   #  SEE IF DIVISOR NORMALIZED YET.
001956: 00,2504           60000                           DOUBLE
001957: 00,2505           54000                           OVSK
001958: 00,2506           12476                           TCF      BUFNORM                               #  NO - SHIFT LEFT ONE AND TRY AGAIN.
001959:
001960: 00,2507           52145                           DXCH     MPAC                                  #  CALL DIVIDEND NORMALIZATION SEQUENCE
001961: 00,2510           50127                           INDEX    DVNORMCT                              #  PRIOR TO DOING THE DIVIDE.
001962: 00,2511           02541                           TC       MAXTEST
001963:
001964: 00,2512           54146                           TS       MPAC       +2                         #  RETURNS WITH DIVISION DONE AND C(A) = 0.
001965: 00,2513           16125                           TCF      DANZIG
001966:


001968:                                                                                                  #           THE FOLLOWING ARE PROLOGUES TO SHIFT THE DIVIDEND ARRIVING IN A AND L BEFORE THE DIVIDE.
001969:
001970: 00,2514           22021                 -21D      LXCH     SR                                    #  SPECIAL PROLOGUE FOR UNIT WHEN THE
001971: 00,2515           00006                           EXTEND                                         #  LENGTH OF THE ARGUMENT WAS NOT LESS THAN
001972: 00,2516           77746                           MP       HALF                                  #  .5. IN THIS CASE, EACH COMPONENT MUST BE
001973: 00,2517           56001                           XCH      L                                     #  SHIFTED RIGHT ONE TO PRODUCE A HALF-UNIT
001974: 00,2520           60021                           AD       SR                                    #  VECTOR.
001975: 00,2521           56001                           XCH      L
001976: 00,2522           12545                           TCF      GENDDV     +1                         #  WITH DP DIVIDEND IN A,L.
001977:
001978: 00,2523           20001                           DDOUBL                                         #  PROLOGUE WHICH NORMALIZES THE DIVIDEND
001979: 00,2524           20001                           DDOUBL                                         #  WHEN IT IS KNOWN THAT NO DIVISION
001980: 00,2525           20001                           DDOUBL                                         #  OVERFLOW WILL OCCUR.
001981: 00,2526           20001                           DDOUBL
001982: 00,2527           20001                           DDOUBL
001983: 00,2530           20001                           DDOUBL
001984: 00,2531           20001                           DDOUBL
001985: 00,2532           20001                           DDOUBL
001986: 00,2533           20001                           DDOUBL
001987: 00,2534           20001                           DDOUBL
001988: 00,2535           20001                           DDOUBL
001989: 00,2536           20001                           DDOUBL
001990: 00,2537           20001                           DDOUBL
001991: 00,2540           52145                           DXCH     MPAC
001992:
001993: 00,2541           10130        MAXTEST            CCS      MAXDVSW                               #  0 IF MAJORS MIGHT BE =, -1 OTHERWISE.
001994: 00,2542           06552        BIASHI             DEC      .4192      B-1                        #  SQRT CONSTANTS
001995:
001996: 00,2543           12616                           TCF      MAXDV                                 #  CHECK TO SEE IF THEY ARE NOW EQUAL.
001997:


001999:                                                                                                  #           THE FOLLOWING IS A GENERAL PURPOSE DOUBLE PRECISION DIVISION ROUTINE. IT DIVIDES MPAC BY BUF AND LEAVES
002000:                                                                                                  #  THE RESULT IN MPAC. THE FOLLOWING CONDITIONS MUST BE SATISFIED:
002001:
002002:                                                                                                  #           1.  THE DIVISOR (BUF) MUST BE POSITIVE AND NOT LESS THAN .5.
002003:
002004:                                                                                                  #           2.  THE DIVIDEND (MPAC) MUST BE POSITIVE WITH THE MAJOR PART OF MPAC STRICTLY LESS THAN THAT OF BUF
002005:                                                                                                  #  (A SPECIAL APPROXIMATION, MAXDV, IS USED WHEN THE MAJOR PARTS ARE EQUAL).
002006:
002007:                                                                                                  #           UNDERSTANDING THAT A/B = Q + S(R/B) WHERE S = 2(-14) AND Q AND R ARE QUOTIENT AND REMAINDER, RESPEC-
002008:                                                                                                  #  TIVELY, THE FOLLOWING APPROXIMATION IS OBTAINED BY MULTIPLYING ABOVE AND BELOW BY C - SD AND NEGLECTING TERMS OF
002009:                                                                                                  #  ORDER S-SQUARED (POSSIBLY INTRODUCING ERROR INTO THE LOW TWO BITS OF THE RESULT). SIGN AGREEMENT IS UNNECESSARY.
002010:
002011:                                                                                                  #           A + SB .      (R - QD)                                             A + SB
002012:                                                                                                  #           ------ = Q + S(------) WHERE Q AND R ARE QUOTIENT AND REMAINDER OF ------ RESPECTIVELY.
002013:                                                                                                  #           C + SD        (  C   }                                                C
002014:
002015:
002016: 00,2544           52145        GENDDV             DXCH     MPAC                                  #  WE NEED A AND B ONLY FOR FIRST DV.
002017: 00,2545           00006                 +1        EXTEND                                         #  (SPECIAL UNIT PROLOGUE ENTERS HERE).
002018: 00,2546           10120                           DV       BUF                                   #  A NOW CONTAINS Q AND L, R.
002019: 00,2547           52145                           DXCH     MPAC
002020:
002021: 00,2550           40144                           CS       MPAC                                  #  FORM DIVIDEND FOR MINOR PART OF RESULT.
002022: 00,2551           00006                           EXTEND
002023: 00,2552           70121                           MP       BUF        +1
002024: 00,2553           60145                           AD       MPAC       +1                         #  OVERFLOW AT THIS POINT IS POSITIVE SINCE
002025: 00,2554           54000                           OVSK                                           #  R IS POSITIVE IN EVERY CASE.
002026: 00,2555           12562                           TCF      +5
002027:
002028: 00,2556           00006                           EXTEND                                         #  OVERFLOW CAN BE REMOVED BY SUBTRACTING C
002029: 00,2557           60120                           SU       BUF                                   #  (BUF) ONCE SINCE R IS ALWAYS LESS THAN C
002030: 00,2560           24144                           INCR     MPAC                                  #  IN THIS CASE. INCR COMPENSATES SUBTRACT.
002031: 00,2561           12564                           TCF      +DOWN                                 #  (SINCE C(A) IS STILL POSITIVE).
002032:
002033: 00,2562           00006                 +5        EXTEND                                         #  C(A) CAN BE MADE LESS THAN C IN MAGNI-
002034: 00,2563           62574                           BZMF     -UP                                   #  TUDE BY DIMINISHING IT BY C (SINCE C IS
002035:                                                                                                  #  NOT LESS THAN .5) UNLESS C(A) = 0.
002036:


002038: 00,2564           00006        +DOWN              EXTEND
002039: 00,2565           60120                           SU       BUF                                   #  IF POSITIVE, REDUCE ONLY IF NECESSARY
002040: 00,2566           00006                           EXTEND                                         #  SINCE THE COMPENSATING INCR MIGHT CAUSE
002041: 00,2567           12572                           BZF      +3                                    #  OVERFLOW.
002042: 00,2570           00006                           EXTEND                                         #  DONT SUBTRACT UNLESS RESULT IS POSITIVE
002043: 00,2571           62600                           BZMF     ENDMAXDV                              #  OR ZERO.
002044:
002045: 00,2572           24144                 +3        INCR     MPAC                                  #  KEEP SUBTRACT HERE AND COMPENSATE.
002046: 00,2573           12601                           TCF      FINALDV
002047:
002048: 00,2574           00006        -UP                EXTEND                                         #  IF ZERO, SET MINOR PART OF RESULT TO
002049: 00,2575           12604                           BZF      FINALDV    +3                         #  ZERO.
002050:
002051: 00,2576           00006                           EXTEND                                         #  IF NEGATIVE, ADD C TO A, SUBTRACTING ONE
002052: 00,2577           26144                           DIM      MPAC                                  #  TO COMPENSATE. DIM IS OK HERE SINCE THE
002053: 00,2600           60120        ENDMAXDV           AD       BUF                                   #  MAJOR PART NEVER GOES NEGATIVE.
002054:


002056: 00,2601           22007        FINALDV            ZL                                             #  DO DV TO OBTAIN MINOR PART OF RESULT.
002057: 00,2602           00006                           EXTEND
002058: 00,2603           10120                           DV       BUF
002059: 00,2604           54145                 +3        TS       MPAC       +1
002060:
002061: 00,2605           10126                           CCS      DVSIGN                                #  LEAVE RESULT POSITIVE UNLESS C(DVSIGN)=
002062: 00,2606           00002                           TC       Q                                     #  -0.
002063: 00,2607           00002                           TC       Q
002064: 00,2610           00002                           TC       Q
002065:
002066: 00,2611           00006                           EXTEND
002067: 00,2612           40145                           DCS      MPAC
002068: 00,2613           52145                           DXCH     MPAC
002069: 00,2614           37767                           CAF      ZERO                                  #  SO WE ALWAYS RETURN WITH C(A) = 0.
002070: 00,2615           00002                           TC       Q
002071:


002073:                                                                                                  #           IF THE MAJOR PARTS OF THE DIVISOR AND DIVIDEND ARE EQUAL, BUT THE MINOR PARTS ARE SUCH THAT THE
002074:                                                                                                  #  DIVIDEND IS STRICTLY LESS THAN THE DIVISOR IN MAGNITUDE, THE FOLLOWING APPROXIMATION IS USED. THE ASSUMPTIONS
002075:                                                                                                  #  ARE THE SAME AS THE GENERAL ROUTINE WITH THE ADDITION THAT SIGN AGREEMENT IS NECESSARY (B, C, & D POSITIVE).
002076:
002077:                                                                                                  #                  C + SB .          (C + B - D)
002078:                                                                                                  #                  ------ = 37777 + S(---------)
002079:                                                                                                  #                  C + SD            (    C    )
002080:
002081:                                                                                                  #           THE DIVISION MAY BE PERFORMED IMMEDIATELY SINCE B IS STRICTLY LESS THAN D AND C IS NOT LESS THAN .5.
002082:
002083:
002084: 00,2616           40144        MAXDV              CS       MPAC                                  #  SEE IF MAXDV CASE STILL HOLDS AFTER
002085: 00,2617           60120                           AD       BUF                                   #  NORMALIZATION.
002086: 00,2620           00006                           EXTEND
002087: 00,2621           12623                           BZF      +2
002088: 00,2622           12544                           TCF      GENDDV                                #  MPAC NOW LESS THAN BUF - DIVIDE AS USUAL
002089:
002090: 00,2623           37743                 +2        CAF      POSMAX                                #  SET MAJOR PART OF RESULT.
002091: 00,2624           54144                           TS       MPAC
002092:
002093: 00,2625           40121                           CS       BUF        +1                         #  FORM DIVIDEND OF MINOR PART OF RESULT.
002094: 00,2626           60145                           AD       MPAC       +1
002095: 00,2627           12600                           TCF      ENDMAXDV                              #  GO ADD C AND DO DIVIDE, ATTACHING SIGN
002096:                                                                                                  #  BEFORE EXITING.
002097:


002099:                                                                                                  #           VECTOR DIVIDED BY SCALAR, V/SC, IS EXECUTED HERE. THE VECTOR IS NOW IN MPAC WITH SCALAR IN BUF.
002100:
002101: 00,2630           47763        V/SC2              CS       ONE                                   #  INITIALIZE DIVIDEND NORMALIZATION COUNT
002102: 00,2631           54127                           TS       DVNORMCT                              #  AND DIVISION SIGN REGISTER.
002103: 00,2632           54117                           TS       VBUF       +5
002104:
002105: 00,2633           10120                           CCS      BUF                                   #  FORCE DIVISOR POSITIVE WITH MAJOR PART
002106: 00,2634           12671                           TCF      /BUF+                                 #  NON-ZERO (IF POSSIBLE).
002107: 00,2635           12637                           TCF      +2
002108: 00,2636           12665                           TCF      /BUF-
002109:
002110: 00,2637           56121                           XCH      BUF        +1                         #  SHIFT VECTOR AND SCALAR LEFT 14.
002111: 00,2640           56120                           XCH      BUF
002112: 00,2641           56145                           XCH      MPAC       +1
002113: 00,2642           56144                           XCH      MPAC
002114: 00,2643           00006                           EXTEND                                         #  CHECK FOR OVERFLOW IN EACH CASE.
002115: 00,2644           12646                           BZF      +2
002116: 00,2645           12404                           TCF      DVOVF
002117:
002118: 00,2646           56150                           XCH      MPAC       +4
002119: 00,2647           56147                           XCH      MPAC       +3
002120: 00,2650           00006                           EXTEND
002121: 00,2651           12653                           BZF      +2
002122: 00,2652           12404                           TCF      DVOVF
002123:
002124: 00,2653           56152                           XCH      MPAC       +6
002125: 00,2654           56151                           XCH      MPAC       +5
002126: 00,2655           00006                           EXTEND
002127: 00,2656           12660                           BZF      +2
002128: 00,2657           12404                           TCF      DVOVF
002129:
002130: 00,2660           10120                           CCS      BUF
002131: 00,2661           12671                           TCF      /BUF+
002132: 00,2662           12404                           TCF      DVOVF                                 #  ZERO DIVISOR - OVERFLOW.
002133: 00,2663           12665                           TCF      /BUF-
002134: 00,2664           12404                           TCF      DVOVF
002135:
002136: 00,2665           00006        /BUF-              EXTEND                                         #  ON NEGATIVE, COMPLEMENT BUF AND MAINTAIN
002137: 00,2666           40121                           DCS      BUF                                   #  DVSIGN IN VBUF +5.
002138: 00,2667           52121                           DXCH     BUF
002139: 00,2670           24117                           INCR     VBUF       +5
002140:


002142: 00,2671           37746        /BUF+              CAF      HALF                                  #  FORCE SIGN AGREEMENT IN DIVISOR.
002143: 00,2672           60000                           DOUBLE
002144: 00,2673           60121                           AD       BUF        +1
002145: 00,2674           54121                           TS       BUF        +1
002146: 00,2675           37767                           CAF      ZERO
002147: 00,2676           67743                           AD       POSMAX
002148: 00,2677           26120                           ADS      BUF
002149:
002150: 00,2700           56123                           XCH      BUF2                                  #  LEAVE ABS(ORIGINAL DIVISOR) IN BUF2 FOR
002151: 00,2701           30121                           CA       BUF        +1                         #  OVERFLOW TESTING.
002152: 00,2702           54124                           TS       BUF2       +1
002153: 00,2703           12711                           TCF      /NORM                                 #  NORMALIZE DIVISOR IN BUF.
002154:
002155: 00,2704           00006        /NORM2             EXTEND                                         #  IF LESS THAN .5, AUGMENT DVNORMCT AND
002156: 00,2705           24127                           AUG      DVNORMCT                              #  DOUBLE DIVISOR.
002157: 00,2706           00006                           EXTEND
002158: 00,2707           30121                           DCA      BUF
002159: 00,2710           20121                           DAS      BUF
002160:
002161: 00,2711           30120        /NORM              CA       BUF                                   #  SEE IF DIVISOR NORMALIZED.
002162: 00,2712           60000                           DOUBLE
002163: 00,2713           54000                           OVSK
002164: 00,2714           12704                           TCF      /NORM2                                #  DOUBLE AND TRY AGAIN IF NOT.
002165:
002166: 00,2715           02727                           TC       V/SCDV                                #  DO X COMPONENT DIVIDE.
002167: 00,2716           52150                           DXCH     MPAC       +3                         #  SUPPLY ARGUMENTS IN USUAL SEQUENCE.
002168: 00,2717           52145                           DXCH     MPAC
002169: 00,2720           52150                           DXCH     MPAC       +3
002170:
002171: 00,2721           02727                           TC       V/SCDV                                #  Y COMPONENT.
002172: 00,2722           52152                           DXCH     MPAC       +5
002173: 00,2723           52145                           DXCH     MPAC
002174: 00,2724           52152                           DXCH     MPAC       +5
002175:
002176: 00,2725           02727                           TC       V/SCDV                                #  Z COMPONENT.
002177: 00,2726           17477                           TCF      VROTATEX                              #  GO RE-ARRANGE COMPONENTS BEFORE EXIT.
002178:


002180:                                                                                                  #           SUBROUTINE USED BY V/SC TO DIVIDE VECTOR COMPONENT IN MPAC,+1 BY THE SCALAR GIVEN IN BUF.
002181:
002182: 00,2727           30117        V/SCDV             CA       VBUF       +5                         #  REFLECTS SIGN OF SCALAR.
002183: 00,2730           54126                           TS       DVSIGN
002184:
002185: 00,2731           10144                           CCS      MPAC                                  #  FORCE MPAC POSITIVE, EXITING ON ZERO.
002186: 00,2732           12746                           TCF      /MPAC+
002187: 00,2733           12735                           TCF      +2
002188: 00,2734           12742                           TCF      /MPAC-
002189:
002190: 00,2735           10145                           CCS      MPAC       +1
002191: 00,2736           12746                           TCF      /MPAC+
002192: 00,2737           00002                           TC       Q
002193: 00,2740           12742                           TCF      /MPAC-
002194: 00,2741           00002                           TC       Q
002195:
002196: 00,2742           00006        /MPAC-             EXTEND                                         #  USUAL COMPLEMENTING AND SETTING OF SIGN.
002197: 00,2743           40145                           DCS      MPAC
002198: 00,2744           52145                           DXCH     MPAC
002199: 00,2745           24126                           INCR     DVSIGN
002200:
002201: 00,2746           47763        /MPAC+             CS       ONE                                   #  INITIALIZE NEAR-ONE SWITCH.
002202: 00,2747           54130                           TS       MAXDVSW
002203:
002204: 00,2750           40144                           CS       MPAC                                  #  CHECK POSSIBLE OVERFLOW.
002205: 00,2751           60123                           AD       BUF2                                  #  UNNORMALIZED INPUT DIVISOR.
002206: 00,2752           00006                           EXTEND
002207: 00,2753           62757                           BZMF     /AGREE                                #  CHECK FOR NEAR-ONE OR OVERFLOW.
002208:
002209: 00,2754           52145        DDVCALL            DXCH     MPAC                                  #  CALL PRE-DIVIDE NORMALIZATION.
002210: 00,2755           50127                           INDEX    DVNORMCT
002211: 00,2756           12541                           TCF      MAXTEST
002212:


002214: 00,2757           37746        /AGREE             CAF      HALF                                  #  FORCE SIGN AGREEMENT IN DIVIDEND
002215: 00,2760           60000                           DOUBLE                                         #  (ALREADY DONE FOR DIVISOR).
002216: 00,2761           60145                           AD       MPAC       +1
002217: 00,2762           54145                           TS       MPAC       +1
002218: 00,2763           37767                           CAF      ZERO
002219: 00,2764           67743                           AD       POSMAX
002220: 00,2765           26144                           ADS      MPAC
002221:
002222: 00,2766           40144                           CS       MPAC                                  #  CHECK TO SEE IF OVERFLOW GONE OR IF
002223: 00,2767           60123                           AD       BUF2                                  #  NEAR-ONE CASE IS PRESENT.
002224: 00,2770           10000                           CCS      A
002225: 00,2771           12754                           TCF      DDVCALL                               #  NOT NEAR-ONE.
002226: 00,2772           32506        SLOPELO            DEC      .8324
002227: 00,2773           12404                           TCF      DVOVF                                 #  NO HOPE.
002228:
002229: 00,2774           54130                           TS       MAXDVSW                               #  SIGNAL POSSIBLE NEAR-ONE CASE.
002230: 00,2775           40145                           CS       MPAC       +1                         #  SEE IF DIVISION CAN BE DONE.
002231: 00,2776           60124                           AD       BUF2       +1
002232: 00,2777           00006                           EXTEND
002233: 00,3000           62404                           BZMF     DVOVF
002234: 00,3001           12754                           TCF      DDVCALL                               #  GOING TO MAXDV.
002235:


002237:                                                                                                  #           THE FOLLOWING ROUTINE EXECUTES THE UNIT INSTRUCTION, WHICH TAKES THE UNIT OF THE VECTOR IN MPAC.
002238:
002239: 00,3002           07612        UNIT               TC       MPACVBUF                              #  SAVE THE ARGUMENT IN VBUF.
002240: 00,3003           37767                           CAF      ZERO                                  #  MUST SENSE OVERFLOW IN FOLLOWING DOT.
002241: 00,3004           56111                           XCH      OVFIND
002242: 00,3005           54131                           TS       TEM1
002243: 00,3006           03301                           TC       VSQSUB                                #  DOT MPAC WITH ITSELF.
002244: 00,3007           30131                           CA       TEM1
002245: 00,3010           56111                           XCH      OVFIND
002246: 00,3011           00006                           EXTEND
002247: 00,3012           13014                           BZF      +2
002248: 00,3013           12404                           TCF      DVOVF
002249: 00,3014           00006                           EXTEND
002250: 00,3015           30145                           DCA      MPAC                                  #  LEAVE THE SQUARE OF THE LENGTH OF THE
002251: 00,3016           50110                           INDEX    FIXLOC                                #  ARGUMENT IN LVSQUARE.
002252: 00,3017           52043                           DXCH     LVSQUARE
002253:
002254: 00,3020           03325                           TC       SQRTSUB                               #  GO TAKE THE NORMALIZED SQUARE ROOT.
002255:
002256: 00,3021           10144                           CCS      MPAC                                  #  CHECK FOR UNIT OVERFLOW.
002257: 00,3022           13027                           TCF      +5                                    #  MPAC IS NOT LESS THAN .5 UNLESS
002258: 00,3023           54001                           TS       L
002259: 00,3024           50110                           INDEX    FIXLOC
002260: 00,3025           52045                           DXCH     LV
002261: 00,3026           12404                           TCF      DVOVF                                 #  INPUT TO SQRTSUB WAS 0.
002262:
002263: 00,3027           43130                           CS       FOURTEEN                              #  SEE IF THE INPUT WAS SO SMALL THE THE
002264: 00,3030           60125                           AD       MPTEMP                                #  FIRST TWO REGISTERS OF THE SQUARE WERE 0
002265: 00,3031           10000                           CCS      A
002266: 00,3032           40000                           COM                                            #  IF SO, SAVE THE NEGATIVE OF THE SHIFT
002267: 00,3033           13111                           TCF      SMALL                                 #  COUNT -15D.
002268:
002269: 00,3034           13043                           TCF      LARGE                                 #  (THIS IS USUALLY THE CASE.)
002270:
002271: 00,3035           43127                           CS       THIRTEEN                              #  IF THE SHIFT COUNT WAS EXACTLY 14, SET
002272: 00,3036           54125                           TS       MPTEMP                                #  THE PRE-DIVIDE NORM COUNT TO -13D.
002273:
002274: 00,3037           30144                           CA       MPAC                                  #  SHIFT THE LENGTH RIGHT 14 BEFORE STORING
002275: 00,3040           54001        SMALL2             TS       L                                     #  (SMALL EXITS TO THIS POINT).
002276: 00,3041           37767                           CAF      ZERO
002277: 00,3042           13070                           TCF      LARGE2                                #  GO TO STORE LENGTH AND PROCEED.
002278:
002279: 00,3043           10125        LARGE              CCS      MPTEMP                                #  MOST ALL CASES COME HERE.
002280: 00,3044           13052                           TCF      LARGE3                                #  SEE IF NO NORMALIZATION WAS REQUIRED BY
002281:
002282: 00,3045           42024                           CS       SRDDV                                 #  SQRT, AND IF SO, SET UP FOR A SHIFT
002283: 00,3046           54125                           TS       MPTEMP                                #  RIGHT 1 BEFORE DIVIDING TO PRODUCE
002284: 00,3047           00006                           EXTEND                                         #  THE DESIRED HALF UNIT VECTOR.
002285: 00,3050           30145                           DCA      MPAC
002286: 00,3051           13070                           TCF      LARGE2
002287:


002289: 00,3052           40000        LARGE3             COM                                            #  LEAVE NEGATIVE OF SHIFT COUNT-1 FOR
002290: 00,3053           54125                           TS       MPTEMP                                #  PREDIVIDE LEFT SHIFT.
002291:
002292: 00,3054           40000                           COM                                            #  PICK UP REQUIRED SHIFTING BIT TO UNNORM-
002293: 00,3055           50000                           INDEX    A                                     #  ALIZE THE SQRT RESULT.
002294: 00,3056           37746                           CAF      BIT14
002295: 00,3057           54120                           TS       BUF
002296: 00,3060           00006                           EXTEND
002297: 00,3061           70145                           MP       MPAC       +1
002298: 00,3062           56120                           XCH      BUF
002299: 00,3063           00006                           EXTEND                                         #  (UNNORMALIZE THE SQRT FOR LV).
002300: 00,3064           70144                           MP       MPAC
002301: 00,3065           56001                           XCH      L
002302: 00,3066           60120                           AD       BUF
002303: 00,3067           56001                           XCH      L
002304:
002305: 00,3070           50110        LARGE2             INDEX    FIXLOC
002306: 00,3071           52045                           DXCH     LV                                    #  LENGTH NOW STORED IN WORK AREA.
002307:
002308: 00,3072           47763                           CS       ONE
002309: 00,3073           54130                           TS       MAXDVSW                               #  NO MAXDV CASES IN UNIT.
002310:
002311: 00,3074           52113                           DXCH     VBUF                                  #  PREPARE X COMPONENT FOR DIVIDE, SETTING
002312: 00,3075           52145                           DXCH     MPAC                                  #  LENGTH OF VECTOR AS DIVISOR IN BUF.
002313: 00,3076           52121                           DXCH     BUF
002314: 00,3077           03131                           TC       UNITDV
002315:
002316: 00,3100           52115                           DXCH     VBUF       +2                         #  DO Y AND Z IN USUAL FASHION SO WE CAN
002317: 00,3101           52145                           DXCH     MPAC                                  #  EXIT THROUGH VROTATEX.
002318: 00,3102           52150                           DXCH     MPAC       +3
002319: 00,3103           03131                           TC       UNITDV
002320:
002321: 00,3104           52117                           DXCH     VBUF       +4
002322: 00,3105           52145                           DXCH     MPAC
002323: 00,3106           52152                           DXCH     MPAC       +5
002324: 00,3107           03131                           TC       UNITDV
002325: 00,3110           17477                           TCF      VROTATEX                              #  AND EXIT.
002326:


002328:                                                                                                  #           IF THE LENGTH OF THE ARGUMENT VECTOR WAS LESS THAN 2(-28), EACH COMPONENT MUST BE SHIFTED LEFT AT LEAST
002329:                                                                                                  #  14 PLACES BEFORE THE DIVIDE. NOTE THAT IN THIS CASE, THE MAJOR PART OF EACH COMPONENT IS ZERO.
002330:
002331: 00,3111           54125        SMALL              TS       MPTEMP                                #  NEGATIVE OF PRE-DIVIDE SHIFT COUNT.
002332:
002333: 00,3112           37767                           CAF      ZERO                                  #  SHIFT EACH COMPONENT LEFT 14.
002334: 00,3113           56113                           XCH      VBUF       +1
002335: 00,3114           56112                           XCH      VBUF
002336: 00,3115           56115                           XCH      VBUF       +3
002337: 00,3116           56114                           XCH      VBUF       +2
002338: 00,3117           56117                           XCH      VBUF       +5
002339: 00,3120           56116                           XCH      VBUF       +4
002340:
002341: 00,3121           40125                           CS       MPTEMP
002342: 00,3122           50000                           INDEX    A
002343: 00,3123           37746                           CAF      BIT14
002344: 00,3124           00006                           EXTEND
002345: 00,3125           70144                           MP       MPAC
002346: 00,3126           13040                           TCF      SMALL2
002347:
002348: 00,3127           00015        THIRTEEN           DEC      13         B-14
002349: 00,3130           00016        FOURTEEN           DEC      14         B-14
002350:


002352:                                                                                                  #           THE FOLLOWING ROUTINE SETS UP THE CALL TO THE DIVIDE ROUTINES.
002353:
002354: 00,3131           10144        UNITDV             CCS      MPAC                                  #  FORCE MPAC POSITIVE IF POSSIBLE, SETTING
002355: 00,3132           13150                           TCF      UMPAC+                                #  DVSIGN ACCORDING TO THE SIGN OF MPAC
002356: 00,3133           13135                           TCF      +2                                    #  SINCE THE DIVISOR IS ALWAYS POSITIVE
002357: 00,3134           13142                           TCF      UMPAC-                                #  HERE.
002358:
002359: 00,3135           10145                           CCS      MPAC       +1
002360: 00,3136           13150                           TCF      UMPAC+
002361: 00,3137           00002                           TC       Q                                     #  EXIT IMMEDIATELY ON ZERO.
002362: 00,3140           13142                           TCF      UMPAC-
002363: 00,3141           00002                           TC       Q
002364:
002365: 00,3142           47767        UMPAC-             CS       ZERO                                  #  IF NEGATIVE, SET -0 IN DVSIGN FOR FINAL
002366: 00,3143           54126                           TS       DVSIGN                                #  COMPLEMENT.
002367: 00,3144           00006                           EXTEND
002368: 00,3145           40145                           DCS      MPAC                                  #  PICK UP ABSOLUTE VALUE OF ARG AND JUMP.
002369: 00,3146           50125                           INDEX    MPTEMP
002370: 00,3147           12540                           TCF      MAXTEST    -1
002371:
002372: 00,3150           54126        UMPAC+             TS       DVSIGN                                #  SET DVSIGN FOR POSITIVE QUOTIENT.
002373: 00,3151           52145                           DXCH     MPAC
002374: 00,3152           50125                           INDEX    MPTEMP
002375: 00,3153           12540                           TCF      MAXTEST    -1
002376:


002378:                                                                                                  #           MISCELLANEOUS UNARY OPERATIONS.
002379:
002380: 00,3154           03262        DSQ                TC       DSQSUB                                #  SQUARE THE DP CONTENTS OF MPAC.
002381: 00,3155           16125                           TCF      DANZIG
002382:
002383: 00,3156           10153        ABVALABS           CCS      MODE                                  #  ABVAL OR ABS INSTRUCTION.
002384: 00,3157           13206                           TCF      ABS                                   #  DO ABS ON SCALAR.
002385: 00,3160           13206                           TCF      ABS
002386:
002387: 00,3161           03301        ABVAL              TC       VSQSUB                                #  DOT MPAC WITH ITSELF.
002388: 00,3162           22153                           LXCH     MODE                                  #  MODE IS NOW DP (L ZERO AFTER DAS).
002389:
002390: 00,3163           00006                           EXTEND                                         #  STORE SQUARE OF LENGTH IN WORK AREA.
002391: 00,3164           30145                           DCA      MPAC
002392: 00,3165           50110                           INDEX    FIXLOC
002393: 00,3166           52043                           DXCH     LVSQUARE
002394:
002395: 00,3167           03325        SQRT               TC       SQRTSUB                               #  TAKE THE SQUARE ROOT OF MPAC.
002396: 00,3170           10125                           CCS      MPTEMP                                #  RETURNED NORMALIZED SQUARE ROOT. SEE IF
002397: 00,3171           13173                           TCF      +2                                    #  ANY UN-NORMALIZATION REQUIRED AND EXIT
002398: 00,3172           16125                           TCF      DANZIG                                #  IF NOT.
002399:
002400: 00,3173           63710                           AD       NEG12                                 #  A RIGHT SHIFT OF MORE THAN 13 COULD BE
002401: 00,3174           00006                           EXTEND                                         #  REQUIRED IF INPUT WAS ZERO IN MPAC,+1.
002402: 00,3175           63201                           BZMF     SQRTSHFT                              #  GOES HERE IN MOST CASES.
002403: 00,3176           22007                           ZL                                             #  IF A LONG SHIFT IS REQUIRED, GO TO
002404: 00,3177           22106                           LXCH     ADDRWD                                #  GENERAL RIGHT SHIFT ROUTINES.
002405: 00,3200           12303                           TCF      GENSCR     +4                         #  ADDRWD WAS ZERO TO PREVENT ROUND.
002406:
002407: 00,3201           50125        SQRTSHFT           INDEX    MPTEMP                                #  SELECT SHIFTING BIT AND EXIT THROUGH
002408: 00,3202           37745                           CAF      BIT15                                 #  SHIFT ROUTINES.
002409: 00,3203           54125                           TS       MPTEMP
002410: 00,3204           37767                           CAF      ZERO                                  #  TO ZERO MPAC +2 IN THE PROCESS.
002411: 00,3205           12036                           TCF      MPACSHR    +3
002412:
002413: 00,3206           07001        ABS                TC       BRANCH                                #  TEST SIGN OF MPAC AND COMPLEMENT IF
002414: 00,3207           16125                           TCF      DANZIG
002415: 00,3210           16125                           TCF      DANZIG
002416: 00,3211           17722                           TCF      COMP
002417:


002419: 00,3212           47761        VDEF               CS       FOUR                                  #  VECTOR DEFINE - ESSENTIALLY TREATS
002420: 00,3213           26156                           ADS      PUSHLOC                               #  SCALAR IN MPAC AS X COMPONENT, PUSHES UP
002421: 00,3214           00006                           EXTEND                                         #  FOR Y AND THEN AGAIN FOR Z.
002422: 00,3215           50000                           INDEX    A
002423: 00,3216           30003                           DCA      2
002424: 00,3217           52150                           DXCH     MPAC       +3
002425: 00,3220           00006                           EXTEND
002426: 00,3221           50156                           INDEX    PUSHLOC
002427: 00,3222           30001                           DCA      0
002428: 00,3223           52152                           DXCH     MPAC       +5
002429: 00,3224           47763                           CS       ONE                                   #  MODE IS NOW VECTOR.
002430: 00,3225           16124                           TCF      NEWMODE
002431:
002432: 00,3226           03301        VSQ                TC       VSQSUB                                #  DOT MPAC WITH ITSELF.
002433: 00,3227           37767                           CAF      ZERO
002434: 00,3230           16124                           TCF      NEWMODE                               #  MODE IS NOW DP.
002435:
002436: 00,3231           00006        PUSH               EXTEND                                         #  PUSH DOWN MPAC LEAVING IT LOADED.
002437: 00,3232           30145                           DCA      MPAC
002438: 00,3233           50156                           INDEX    PUSHLOC                               #  PUSH DOWN FIRST TWO REGISTERS IN EACH
002439: 00,3234           52001                           DXCH     0
002440:
002441: 00,3235           50153                           INDEX    MODE                                  #  INCREMENT PUSHDOWN POINTER.
002442: 00,3236           36310                           CAF      NO.WDS
002443: 00,3237           26156                           ADS      PUSHLOC
002444:
002445: 00,3240           10153                           CCS      MODE
002446: 00,3241           13254                           TCF      TPUSH                                 #  PUSH DOWN MPAC +2.
002447: 00,3242           16125                           TCF      DANZIG                                #  DONE FOR DP.
002448:
002449: 00,3243           00006                           EXTEND                                         #  ON VECTOR, PUSH DOWN Y AND Z COMPONENTS.
002450: 00,3244           30150                           DCA      MPAC       +3
002451: 00,3245           50156                           INDEX    PUSHLOC
002452: 00,3246           51775                           DXCH     0          -4
002453: 00,3247           00006                           EXTEND
002454: 00,3250           30152                           DCA      MPAC       +5
002455: 00,3251           50156                           INDEX    PUSHLOC
002456: 00,3252           51777                           DXCH     0          -2
002457: 00,3253           16125                           TCF      DANZIG
002458:
002459: 00,3254           30146        TPUSH              CA       MPAC       +2
002460: 00,3255           16632                           TCF      ENDTPUSH   +2
002461:
002462: 00,3256           50110        RVQ                INDEX    FIXLOC                                #  RVQ - RETURN IVA QPRET.
002463: 00,3257           30052                           CA       QPRET
002464: 00,3260           54107                           TS       POLISH
002465: 00,3261           16730                           TCF      GOTO       +4                         #  (ASSUME QPRET POINTS TO FIXED ONLY.)
002466:


002468:                                                                                                  #           THE FOLLOWING SUBROUTINES ARE USED IN SQUARING MPAC, IN BOTH THE SCALAR AND VECTOR SENSE. THEY ARE
002469:                                                                                                  #  SPECIAL CASES OF DMPSUB AND DOTSUB, PUT IN TO SAVE SOME TIME.
002470:
002471: 00,3262           30145        DSQSUB             CA       MPAC       +1                         #  SQUARES THE SCALAR CONTENTS OF MPAC.
002472: 00,3263           00006                           EXTEND
002473: 00,3264           70000                           SQUARE
002474: 00,3265           54146                           TS       MPAC       +2
002475: 00,3266           37767                           CAF      ZERO                                  #  FORM 2(CROSS TERM).
002476: 00,3267           56145                           XCH      MPAC       +1
002477: 00,3270           00006                           EXTEND
002478: 00,3271           70144                           MP       MPAC
002479: 00,3272           20001                           DDOUBL                                         #  AND MAYBE OVERFLOW.
002480: 00,3273           20146                           DAS      MPAC       +1                         #  AND SET A TO NET OVERFLOW.
002481: 00,3274           56144                           XCH      MPAC
002482: 00,3275           00006                           EXTEND
002483: 00,3276           70000                           SQUARE
002484: 00,3277           20145                           DAS      MPAC
002485: 00,3300           00002                           TC       Q
002486:
002487: 00,3301           00006        VSQSUB             EXTEND                                         #  DOTS THE VECTOR IN MPAC WITH ITSELF.
002488: 00,3302           22127                           QXCH     DOTRET
002489: 00,3303           03262                           TC       DSQSUB                                #  SQUARE THE X COMPONENT.
002490: 00,3304           52150                           DXCH     MPAC       +3
002491: 00,3305           52145                           DXCH     MPAC
002492: 00,3306           52121                           DXCH     BUF                                   #  SO WE CAN END IN DOTSUB.
002493: 00,3307           30146                           CA       MPAC       +2
002494: 00,3310           54122                           TS       BUF        +2
002495:
002496: 00,3311           03262                           TC       DSQSUB                                #  SQUARE Y COMPONENT.
002497: 00,3312           52146                           DXCH     MPAC       +1
002498: 00,3313           20122                           DAS      BUF        +1
002499: 00,3314           60144                           AD       MPAC
002500: 00,3315           60120                           AD       BUF
002501: 00,3316           54120                           TS       BUF
002502: 00,3317           13321                           TCF      +2
002503: 00,3320           54111                           TS       OVFIND                                #  IF OVERFLOW.
002504:
002505: 00,3321           52152                           DXCH     MPAC       +5
002506: 00,3322           52145                           DXCH     MPAC
002507: 00,3323           03262                           TC       DSQSUB                                #  SQUARE Z COMPONENT.
002508: 00,3324           17257                           TCF      ENDDOT                                #  END AS IN DOTSUB.
002509:


002511:                                                                                                  #           DOUBLE PRECISION SQUARE ROOT ROUTINE. TAKE THE SQUARE ROOT OF THE TRIPLE PRECISION (MPAC +2 USED ONLY
002512:                                                                                                  #  IN NORMALIZATION) CONTENTS OF MPAC AND LEAVE THE NORMALIZED RESULT IN MPAC (C(MPAC) GREATER THAN OR EQUAL TO
002513:                                                                                                  #  .5). THE RIGHT SHIFT COUNT (TO UNNORMALIZE) IS LEFT IN MPTEMP.
002514:
002515:
002516: 00,3325           37767        SQRTSUB            CAF      ZERO                                  #  START BY ZEROING RIGHT SHIFT COUNT.
002517: 00,3326           54125                           TS       MPTEMP
002518:
002519: 00,3327           10144                           CCS      MPAC                                  #  CHECK FOR POSITIVE ARGUMENT, SHIFTING
002520: 00,3330           13366                           TCF      SMPAC+                                #  FIRST SIGNIFICANT MPAC REGISTER INTO
002521: 00,3331           13333                           TCF      +2                                    #  MPAC ITSELF.
002522: 00,3332           13355                           TCF      SQRTNEG                               #  SEE IF MAG OF ARGUMENT LESS THAN 10(-4).
002523:
002524: 00,3333           56146                           XCH      MPAC       +2                         #  MPAC IS ZERO - SHIFT LEFT 14.
002525: 00,3334           56145                           XCH      MPAC       +1
002526: 00,3335           54144                           TS       MPAC
002527: 00,3336           37765                           CAF      SEVEN                                 #  AUGMENT RIGHT SHIFT COUNTER.
002528: 00,3337           54125                           TS       MPTEMP
002529:
002530: 00,3340           10144                           CCS      MPAC                                  #  SEE IF MPAC NOW PNZ.
002531: 00,3341           13366                           TCF      SMPAC+
002532: 00,3342           13344                           TCF      +2
002533: 00,3343           13360                           TCF      ZEROANS                               #  NEGATIVE BUT LESS THAN 10(-4) IN MAG.
002534:
002535: 00,3344           56145                           XCH      MPAC       +1                         #  ZERO - SHIFT LEFT 14 AGAIN.
002536: 00,3345           54144                           TS       MPAC
002537: 00,3346           37765                           CAF      SEVEN                                 #  AUGMENT RIGHT SHIFT COUNTER.
002538: 00,3347           26125                           ADS      MPTEMP
002539:
002540: 00,3350           10144                           CCS      MPAC
002541: 00,3351           13366                           TCF      SMPAC+
002542: 00,3352           00002                           TC       Q                                     #  SQRT(0) = 0.
002543: 00,3353           13360                           TCF      ZEROANS
002544: 00,3354           13434                           TCF      FIXROOT                               #  DO NOT LEAVE SQRTSUB WITH -0 IN MPAC.
002545:
002546: 00,3355           10000        SQRTNEG            CCS      A                                     #  ARGUMENT IS NEGATIVE, BUT SEE IF SIGN-
002547: 00,3356           13364                           TCF      SQRTABRT                              #  CORRECTED ARGUMENT IS LESS THAN 10(-4)
002548:
002549: 00,3357           10145                           CCS      MPAC       +1                         #  IN MAGNITUDE. IF SO, CALL ANSWER ZERO.
002550: 00,3360           37767        ZEROANS            CAF      ZERO                                  #  FORCE ANSWER TO ZERO HERE.
002551: 00,3361           13434                           TCF      FIXROOT
002552: 00,3362           13364                           TCF      SQRTABRT
002553: 00,3363           13434                           TCF      FIXROOT
002554:
002555: 00,3364           06000        SQRTABRT           TC       ABORT
002556: 00,3365           01302                           OCT      1302
002557:


002559: 00,3366           62442        SMPAC+             AD       -1/2+2                                #  SEE IF ARGUMENT GREATER THAN OR EQUAL TO
002560: 00,3367           00006                           EXTEND                                         #  .5.
002561: 00,3370           63437                           BZMF     SRTEST                                #  IF SO, SEE IF LESS THAN .25.
002562:
002563: 00,3371           52145                           DXCH     MPAC                                  #  WE WILL TAKE THE SQUARE ROOT OF MPAC/2.
002564: 00,3372           22021                           LXCH     SR                                    #  SHIFT RIGHT 1 AND GO TO THE SQRT ROUTINE
002565: 00,3373           00006                           EXTEND
002566: 00,3374           77746                           MP       HALF
002567: 00,3375           52145                           DXCH     MPAC
002568: 00,3376           56021                           XCH      SR
002569: 00,3377           26145                           ADS      MPAC       +1                         #  GUARANTEED NO OVERFLOW.
002570:
002571: 00,3400           32314        ARGHI              CAF      SLOPEHI                               #  ARGUMENT BETWEEN .25 AND .5. GET A
002572: 00,3401           00006                           EXTEND                                         #  LINEAR APPROXIMATION FOR THIS RANGE.
002573: 00,3402           70144                           MP       MPAC
002574: 00,3403           62542                           AD       BIASHI                                #  X0/2 = (MPAC/2)(SLOPEHI) + BIASHI/2.
002575:
002576: 00,3404           54120                 +4        TS       BUF                                   #  X0/2 (ARGLO ENTERS HERE).
002577: 00,3405           30144                           CA       MPAC                                  #  SINGLE-PRECISION THROUGHOUT.
002578: 00,3406           22007                           ZL
002579: 00,3407           00006                           EXTEND
002580: 00,3410           10120                           DV       BUF                                   #  (MPAC/2)/(X0/2)
002581: 00,3411           00006                           EXTEND
002582: 00,3412           77746                           MP       HALF
002583: 00,3413           26120                           ADS      BUF                                   #  X1 = X0/2 + .5(MPAC/2)/(X0/2).
002584:
002585: 00,3414           00006                           EXTEND
002586: 00,3415           77746                           MP       HALF                                  #  FORM UP X1/2.
002587: 00,3416           52145                           DXCH     MPAC                                  #  SAVE AND BRING OUT ARGUMENT.
002588: 00,3417           00006                           EXTEND                                         #  TAKE DP QUOTIENT WITH X1.
002589: 00,3420           10120                           DV       BUF
002590: 00,3421           54121                           TS       BUF        +1                         #  SAVE MAJOR PART OF QUOTIENT.
002591: 00,3422           37767                           CAF      ZERO                                  #  FORM MINOR PART OF QUOTIENT USING
002592: 00,3423           56001                           XCH      L                                     #  (REMAINDER,0).
002593: 00,3424           00006                           EXTEND
002594: 00,3425           10120                           DV       BUF
002595: 00,3426           54001                           TS       L                                     #  IN PREPARATION FOR DAS.
002596: 00,3427           30121                           CA       BUF        +1
002597: 00,3430           20145                           DAS      MPAC                                  #  X2 = X1/2 + (MPAC/2)X1
002598:
002599: 00,3431           00006                           EXTEND                                         #  OVERFLOWS IF ARG. NEAR POSMAX.
002600: 00,3432           13436                           BZF      TCQBNK00
002601: 00,3433           37743                           CAF      POSMAX
002602: 00,3434           54144        FIXROOT            TS       MPAC
002603: 00,3435           54145                           TS       MPAC       +1
002604: 00,3436           00002        TCQBNK00           TC       Q                                     #  RETURN TO CALLER TO UNNORMALIZE, ETC.
002605:


002607: 00,3437           67747        SRTEST             AD       QUARTER                               #  ARGUMENT WAS LESS THAN .5, SEE IF LESS
002608: 00,3440           00006                           EXTEND                                         #  THAN .25.
002609: 00,3441           63463                           BZMF     SQRTNORM                              #  IF SO, BEGIN NORMALIZATION.
002610:
002611: 00,3442           52145                           DXCH     MPAC                                  #  IF BETWEEN .5 AND .25, SHIFT RIGHT 1 AND
002612: 00,3443           22021                           LXCH     SR                                    #  START AT ARGLO.
002613: 00,3444           00006                           EXTEND
002614: 00,3445           77746                           MP       HALF
002615: 00,3446           52145                           DXCH     MPAC
002616: 00,3447           56021                           XCH      SR
002617: 00,3450           26145                           ADS      MPAC       +1                         #  NO OVERFLOW.
002618:
002619: 00,3451           32772        ARGLO              CAF      SLOPELO                               #  (NORMALIZED) ARGUMENT BETWEEN .125 AND
002620: 00,3452           00006                           EXTEND                                         #  .25
002621: 00,3453           70144                           MP       MPAC
002622: 00,3454           62270                           AD       BIASLO
002623: 00,3455           13404                           TCF      ARGHI      +4                         #  BEGIN SQUARE ROOT.
002624:
002625: 00,3456           00006        SQRTNM2            EXTEND                                         #  SHIFT LEFT 2 AND INCREMENT RIGHT SHIFT
002626: 00,3457           30146                           DCA      MPAC       +1                         #  COUNT (FOR TERMINAL UNNORMALIZATION).
002627: 00,3460           20146                           DAS      MPAC       +1
002628: 00,3461           60144                           AD       MPAC
002629: 00,3462           26144                           ADS      MPAC                                  #  (NO OVERFLOW).
002630:
002631: 00,3463           24125        SQRTNORM           INCR     MPTEMP                                #  FIRST TIME THROUGH, JUST SHIFT LEFT 1
002632: 00,3464           00006                           EXTEND                                         #  (PUTS IN EFFECTIVE RIGHT SHIFT SINCE
002633: 00,3465           30146                           DCA      MPAC       +1                         #  WE WANT MPAC/2).
002634: 00,3466           20146                           DAS      MPAC       +1
002635: 00,3467           60144                           AD       MPAC
002636: 00,3470           26144                           ADS      MPAC                                  #  (AGAIN NO OVERFLOW).
002637: 00,3471           60000                           DOUBLE
002638: 00,3472           54022                           TS       CYL
002639:
002640: 00,3473           10022        NORMTEST           CCS      CYL                                   #  SEE IF ARGUMENT NOW NORMALIZED AT
002641: 00,3474           10022                           CCS      CYL                                   #  GREATER THAN .125.
002642: 00,3475           13456                           TCF      SQRTNM2                               #  NO - SHIFT LEFT 2 MORE AND TRY AGAIN.
002643: 00,3476           13400                           TCF      ARGHI                                 #  YES - NOW BETWEEN .5 AND .25.
002644: 00,3477           13451                           TCF      ARGLO                                 #  ARGUMENT NOW BETWEEN .25 AND .125.
002645:


002647:                                                                                                  #  TRIGONOMETRIC FUNCTION PACKAGE.
002648:
002649:                                                                                                  #           THE FOLLOWING TRIGONOMETRIC FUNCTIONS ARE AVAILABLE AS INTERPRETIVE OPERATIONS:
002650:
002651:                                                                                                  #           1.  SIN                COMPUTES (1/2)SINE(2 PI MPAC).
002652:                                                                                                  #           2.  COS                COMPUTES (1/2)COSINE(2 PI MPAC).
002653:
002654:                                                                                                  #           3.  ASIN               COMPUTES (1/2PI)ARCSINE(2 MPAC).
002655:                                                                                                  #           4.  ACOS               COMPUTES (1/2PI)ARCCOSINE(2 MPAC).
002656:
002657:                                                                                                  #  SIN-ASIN AND COS-ACOS ARE MUTUALLY INVERSE, IE SIN(ASIN(X)) = X.
002658:
002659: 00,3500           07001        COSINE             TC       BRANCH                                #  FINDS COSINE USING THE IDENTITY
002660: 00,3501           13504                           TCF      +3                                    #  COS(X) = SIN(PI/2 - ABS(X)).
002661: 00,3502           13507                           TCF      PRESINE
002662: 00,3503           13507                           TCF      PRESINE
002663:
002664: 00,3504           00006                 +3        EXTEND
002665: 00,3505           40145                           DCS      MPAC
002666: 00,3506           52145                           DXCH     MPAC
002667:
002668: 00,3507           37747        PRESINE            CAF      QUARTER                               #  PI/2 SCALED.
002669: 00,3510           26144                           ADS      MPAC
002670:
002671:
002672: 00,3511           52145        SINE               DXCH     MPAC                                  #  DOUBLE ARGUMENT.
002673: 00,3512           20001                           DDOUBL
002674: 00,3513           54000                           OVSK                                           #  SEE IF OVERFLOW PRESENT.
002675: 00,3514           13517                           TCF      +3                                    #  IF NOT, ARGUMENT OK AS IS.
002676:
002677: 00,3515           00006                           EXTEND                                         #  IF SO, WE LOST (OR GAINED) PI, SO
002678: 00,3516           40001                           DCOM                                           #  COMPLEMENT MPAC USING THE IDENTITY
002679:                                                                                                  #  SIN(X-(+)PI) = SIN(-X).
002680: 00,3517           52145                 +3        DXCH     MPAC
002681: 00,3520           30144                           CA       MPAC                                  #  SEE IF ARGUMENT GREATER THAN .5 IN
002682: 00,3521           60000                           DOUBLE                                         #  MAGNITUDE. IF SO, REDUCE IT TO LESS THAN
002683: 00,3522           54001                           TS       L                                     #  .5 (+-PI/2 SCALED) AS FOLLOWS:
002684: 00,3523           13534                           TCF      SN1
002685:
002686: 00,3524           50000                           INDEX    A                                     #  IF POSITIVE, FORM PI - X, IF NEGATIVE
002687: 00,3525           37745                           CAF      NEG1/2     +1                         #  USE -PI -X.
002688: 00,3526           60000                           DOUBLE
002689: 00,3527           00006                           EXTEND
002690: 00,3530           60144                           SU       MPAC                                  #  GUARANTEED NO OVERFLOW.
002691: 00,3531           54144                           TS       MPAC
002692: 00,3532           40145                           CS       MPAC       +1
002693: 00,3533           54145                           TS       MPAC       +1
002694:


002696: 00,3534           00006        SN1                EXTEND                                         #  SET UP TO EVALUATE HASTINGS POLYNOMIAL
002697: 00,3535           30145                           DCA      MPAC
002698: 00,3536           52124                           DXCH     BUF2
002699: 00,3537           03262                           TC       DSQSUB                                #  SQUARE MPAC.
002700:
002701: 00,3540           07274                           TC       POLY                                  #  EVALUATE FOURTH ORDER POLYNOMIAL.
002702: 00,3541           00003                           DEC      3          B-14
002703: 00,3542           14441 37325                     2DEC     +.3926990796
002704:
002705: 00,3544           53250 60764                     2DEC     -.6459637111
002706:
002707: 00,3546           12146 21276                     2DEC     +.318758717
002708:
002709: 00,3550           75466 71471                     2DEC     -.074780249
002710:
002711: 00,3552           00236 32757                     2DEC     +.009694988
002712:
002713: 00,3554           32466                           CAF      LBUF2                                 #  MULTIPLY BY ARGUMENT AND SHIFT LEFT 2.
002714: 00,3555           07160                           TC       DMPSUB     -1
002715:
002716: 00,3556           00006                           EXTEND
002717: 00,3557           30146                           DCA      MPAC       +1
002718: 00,3560           20146                           DAS      MPAC       +1
002719: 00,3561           60144                           AD       MPAC
002720: 00,3562           26144                           ADS      MPAC                                  #  NEITHER SHIFT OVERFLOWS.
002721: 00,3563           00006                           EXTEND
002722: 00,3564           30146                           DCA      MPAC       +1
002723: 00,3565           20146                           DAS      MPAC       +1
002724: 00,3566           60144                           AD       MPAC
002725: 00,3567           26144                           ADS      MPAC
002726: 00,3570           16125                           TCF      DANZIG
002727:


002729:                                                                                                  #           ARCSIN/ARCCOS ROUTINE.
002730:
002731: 00,3571           33612        ARCSIN             CAF      LASINEX                               #  COMPUTE ARCSIN BY USING THE IDENTITY
002732: 00,3572           13574                           TCF      +2                                    #  ARCSIN(X) = PI/2 - ARCCOS(X).
002733:
002734: 00,3573           33674        ARCCOS             CAF      LDANZIG                               #  (EXITS IMMEDIATELY).
002735: 00,3574           54126                           TS       ESCAPE
002736: 00,3575           07001                           TC       BRANCH                                #  TEST SIGN OF INPUT.
002737: 00,3576           13606                           TCF      ACOSST                                #  START IMMEDIATELY IF POSITIVE.
002738: 00,3577           13706                           TCF      ACOSZERO                              #  ARCCOS(0) = PI/2 = .25.
002739: 00,3600           00006                           EXTEND                                         #  IF NEGATIVE, USE THE IDENTITY
002740: 00,3601           40145                           DCS      MPAC                                  #  ARCCOS(X) = PI - ARCCOS(-X), FORCING
002741: 00,3602           52145                           DXCH     MPAC                                  #  ARGUMENT POSITIVE.
002742: 00,3603           33711                           CAF      TCSUBTR                               #  SET EXIT  TO DO ABOVE BEFORE
002743: 00,3604           56126                           XCH      ESCAPE                                #  ARCSIN/ARCCOS CONSIDERATIONS.
002744: 00,3605           54127                           TS       ESCAPE2
002745:
002746: 00,3606           47746        ACOSST             CS       HALF                                  #  TEST MAGNITUDE OF INPUT.
002747: 00,3607           60144                           AD       MPAC
002748: 00,3610           10000                           CCS      A
002749: 00,3611           13702                           TCF      ACOSOVF                               #  THIS IS PROBABLY AN OVERFLOW CASE.
002750:
002751: 00,3612           13670        LASINEX            TCF      ASINEX
002752:
002753: 00,3613           13623                           TCF      ACOSST2                               #  NO OVERFLOW - PROCEED.
002754:
002755: 00,3614           10145                           CCS      MPAC       +1                         #  IF MAJOR PART IS .5, CALL ANSWER 0
002756: 00,3615           37767                           CAF      ZERO                                  #  UNLESS MINOR PART NEGATIVE.
002757: 00,3616           13620                           TCF      ACOS=0
002758:
002759: 00,3617           13623                           TCF      ACOSST2
002760:
002761: 00,3620           54145        ACOS=0             TS       MPAC       +1
002762: 00,3621           54144                           TS       MPAC
002763: 00,3622           00126                           TC       ESCAPE
002764:
002765: 00,3623           00006        ACOSST2            EXTEND                                         #  NOW THAT ARGUMENT IS IN PROPER RANGE,
002766: 00,3624           40145                           DCS      MPAC                                  #  BEGIN COMPUTATION. USE HASTINGS
002767: 00,3625           67746                           AD       HALF                                  #  APPROXIMATION ARCCOS(X) = SQRT(1-X)P(X)
002768: 00,3626           52145                           DXCH     MPAC                                  #  IN A SCALED VERSION WHERE P(X) IS A
002769: 00,3627           52124                           DXCH     BUF2                                  #  SEVENTH ORDER POLYNOMIAL.
002770:
002771: 00,3630           03325                           TC       SQRTSUB                               #  RETURNS WITH NORMALIZED SQUARE ROOT.
002772:
002773: 00,3631           10125                           CCS      MPTEMP                                #  SEE IF UN-NORMALIZATION REQUIRED.
002774: 00,3632           13675                           TCF      ACOSSHR                               #  IF SO.
002775:


002777: 00,3633           52145        ACOS3              DXCH     MPAC                                  #  SET UP FOR POLYNOMIAL EVALUATION.
002778: 00,3634           52124                           DXCH     BUF2
002779: 00,3635           52145                           DXCH     MPAC
002780:
002781: 00,3636           07274                           TC       POLY
002782: 00,3637           00006                           DEC      6          B-14
002783: 00,3640           13240 23630                     2DEC     +.353553385                            #  COEFFICIENTS ARE C 2(+I)/PISQRT(2) WHERE
002784:
002785: 00,3642           74721 47775                     2DEC*    -.0483017006 B+1*                       #                    I
002786:
002787: 00,3644           02440 20237                     2DEC*    +.0200273085 B+2*                       #       WHERE C STANDS FOR ORIGINAL COEFFS.
002788:
002789: 00,3646           75067 70742                     2DEC*    -.0112931863 B+3*
002790:
002791: 00,3650           03436 26756                     2DEC*    +.00695311612 B+4*
002792:
002793: 00,3652           74037 57640                     2DEC*    -.00384617957 B+5*
002794:
002795: 00,3654           03046 07143                     2DEC*    +.001501297736 B+6*
002796:
002797: 00,3656           76654 42244                     2DEC*    -.000284160334 B+7*
002798:
002799: 00,3660           32466                           CAF      LBUF2                                 #  DO FINAL MULTIPLY AND GO TO ANY
002800: 00,3661           07160                           TC       DMPSUB     -1                         #  EPILOGUE SEQUENCES.
002801: 00,3662           00126                           TC       ESCAPE
002802:
002803: 00,3663           00006        SUBTR              EXTEND                                         #  EPILOGUE FOR NEGATIVE INPUTS TO ARCCOS.
002804: 00,3664           40145                           DCS      MPAC
002805: 00,3665           67746                           AD       HALF                                  #  FORMS PI - ARCCOS(-X) = ARCCOS(X).
002806: 00,3666           52145                           DXCH     MPAC
002807: 00,3667           00127                           TC       ESCAPE2                               #  GO TO POSSIBLE ARCSIN EPILOGUE.
002808:
002809: 00,3670           00006        ASINEX             EXTEND
002810: 00,3671           40145                           DCS      MPAC                                  #  ARCSIN EPILOGUE - GET ARCSIN(X)
002811: 00,3672           67747                           AD       QUARTER                               #  = PI/2 - ARCCOS(X).
002812: 00,3673           52145                           DXCH     MPAC
002813: 00,3674           16125        LDANZIG            TCF      DANZIG
002814:


002816: 00,3675           50000        ACOSSHR            INDEX    A                                     #  THE SHIFT RIGHT IS LESS THAN 14 SINCE
002817: 00,3676           37746                           CAF      BIT14                                 #  THE INPUT WAS NON-ZERO DP.
002818: 00,3677           54125                           TS       MPTEMP
002819: 00,3700           02073                           TC       VSHRRND                               #  DP SHIFT RIGHT AND ROUND.
002820: 00,3701           13633                           TCF      ACOS3                                 #  PROCEED.
002821:
002822: 00,3702           00006        ACOSOVF            EXTEND                                         #  IF MAJOR PART WAS ONLY 1 MORE THAN .5,
002823: 00,3703           13620                           BZF      ACOS=0                                #  CALL ANSWER ZERO.
002824:
002825: 00,3704           06000        ACOSABRT           TC       ABORT
002826: 00,3705           01301                           OCT      1301
002827:
002828: 00,3706           37747        ACOSZERO           CAF      QUARTER                               #  ACOS(0) = PI/2.
002829: 00,3707           13621                           TCF      ACOS=0     +1                         #  SET MPAC AND EXIT VIA ESCAPE.
002830:
002831: 00,3710           77763        NEG12              DEC      -12        B-14
002832: 00,3711           13663        TCSUBTR            TCF      SUBTR
002833:


002835:                                                                                                  #  AUXILIARY CODING FOR DDV/BDDV:
002836:
002837:
002838: 00,3712           10000        BUFPOS             CCS      A
002839: 00,3713           12420                           TCF      BUF+                                  #  TO BUF+ IF BUF IS GREATER THAN +1.
002840:
002841: 00,3714           40121                           CS       BUF        +1                         #  IF BUF IS +1, FORCING SIGN AGREEMENT
002842: 00,3715           00006                           EXTEND                                         #  MAY CAUSE BUF TO BECOME ZERO.
002843: 00,3716           62420                           BZMF     BUF+                                  #  BRANCH IF SIGNS AGREE.
002844:
002845: 00,3717           37746                           CA       HALF                                  #  SIGNS DISAGREE.  FORCE AGREEMENT.
002846: 00,3720           60000                 +6        DOUBLE
002847: 00,3721           26121                           ADS      BUF        +1
002848: 00,3722           37767                           CA       ZERO
002849: 00,3723           54120                           TS       BUF
002850: 00,3724           12362                           TCF      BUFZERO
002851:
002852: 00,3725           10000        BUFNEG             CCS      A
002853: 00,3726           12414                           TCF      BUF-                                  #  TO BUF- IF BUF IS LESS THAN -1.
002854:
002855: 00,3727           30121                           CA       BUF        +1                         #  IF BUF IS -1, FORCING SIGN AGREEMENT
002856: 00,3730           00006                           EXTEND                                         #  MAY CAUSE BUF TO BECOME ZERO.
002857: 00,3731           62414                           BZMF     BUF-                                  #  BRANCH IF SIGNS AGREE.
002858:
002859: 00,3732           47746                           CS       HALF                                  #  SIGNS DISAGREE.  FORCE AGREEMENT.
002860: 00,3733           13720                           TCF      BUFPOS     +6
002861:


002863:                                                                                                  #           THE FOLLOWING INSTRUCTIONS ARE AVAILABLE FOR SETTING, MODIFYING, AND BRANCHING ON INDEX REGISTERS:
002864:
002865:                                                                                                  #           1.  AXT                ADDRESS TO INDEX TRUE.
002866:                                                                                                  #           2.  AXC                ADDRESS TO INDEX COMPLEMENTED.
002867:                                                                                                  #           3.  LXA                LOAD INDEX FROM ERASABLE.
002868:                                                                                                  #           4.  LXC                LOAD INDEX COMPLEMENTED FROM ERASABLE.
002869:                                                                                                  #           5.  SXA                STORE INDEX IN ERASABLE.
002870:                                                                                                  #           6.  XCHX               EXCHANGE INDEX REIGSTER WITH ERASABLE.
002871:
002872:                                                                                                  #           7.  INCR               INCREMENT INDEX REGISTER.
002873:                                                                                                  #           8.  XAD                ERASABLE ADD TO INDEX REGISTER.
002874:                                                                                                  #           9.  XSU                ERASABLE SUBTRACT FROM INDEX REGISTER.
002875:
002876:                                                                                                  #          10.  TIX                BRANCH ON INDEX REGISTER AND DECREMENT.
002877:
002878:
002879: 01,2626                                           BANK     01
002880:
002881: 01,2626           02723        AXT                TC       TAGSUB                                #  SELECT APPROPRIATE INDEX REGISTER.
002882: 01,2627           30107                           CA       POLISH
002883: 01,2630           50120        XSTORE             INDEX    INDEXLOC                              #  CONTAINS C(FIXLOC) OR C(FIXLOC)+1.
002884: 01,2631           54046                           TS       X1
002885: 01,2632           16125                           TCF      DANZIG
002886:
002887: 01,2633           02723        AXC                TC       TAGSUB
002888: 01,2634           40107                           CS       POLISH
002889: 01,2635           02630                           TC       XSTORE
002890:
002891: 01,2636           02711        LXA                TC       15ADRERS                              #  LOAD INDEX REGISTER FROM ERASABLE.
002892: 01,2637           50107                           INDEX    POLISH
002893: 01,2640           30000                           CA       0
002894: 01,2641           12630                           TCF      XSTORE
002895:
002896: 01,2642           02711        LXC                TC       15ADRERS                              #  LOAD NDX REG FROM ERASABLE COMPLEMENTED.
002897: 01,2643           50107                           INDEX    POLISH
002898: 01,2644           40000                           CS       0
002899: 01,2645           12630                           TCF      XSTORE
002900:
002901: 01,2646           02711        SXA                TC       15ADRERS                              #  STORE INDEX REGISTER IN ERASABLE.
002902: 01,2647           50120                           INDEX    INDEXLOC
002903: 01,2650           30046                           CA       X1
002904: 01,2651           50107        MSTORE1            INDEX    POLISH
002905: 01,2652           54000                           TS       0
002906: 01,2653           16125                           TCF      DANZIG
002907:


002909: 01,2654           02711        XCHX               TC       15ADRERS                              #  EXCHANGE INDEX REGISTER WITH ERASABLE.
002910: 01,2655           50107                           INDEX    POLISH
002911: 01,2656           30000                           CA       0
002912: 01,2657           50120                           INDEX    INDEXLOC
002913: 01,2660           56046                           XCH      X1
002914: 01,2661           12651                           TCF      MSTORE1
002915:
002916: 01,2662           02711        XAD                TC       15ADRERS                              #  ADD ERASABLE TO INDEX REGISTER.
002917: 01,2663           50107                           INDEX    POLISH
002918: 01,2664           30000                           CA       0
002919: 01,2665           50120        XAD2               INDEX    INDEXLOC
002920: 01,2666           26046                           ADS      X1                                    #  IGNORING OVERFLOWS.
002921: 01,2667           16125                           TCF      DANZIG
002922:
002923: 01,2670           02723        INCR               TC       TAGSUB                                #  INCREMENT INDEX REGISTER.
002924: 01,2671           30107                           CA       POLISH
002925: 01,2672           12665                           TCF      XAD2
002926:
002927: 01,2673           02711        XSU                TC       15ADRERS                              #  SUBTRACT ERASABLE FROM INDEX REGISTER.
002928: 01,2674           50107                           INDEX    POLISH
002929: 01,2675           40000                           CS       0
002930: 01,2676           12665                           TCF      XAD2
002931:
002932:
002933: 01,2677           02723        TIX                TC       TAGSUB                                #  BRANCH AND DECREMENT ON INDEX.
002934: 01,2700           50120                           INDEX    INDEXLOC
002935: 01,2701           40050                           CS       S1
002936: 01,2702           50120                           INDEX    INDEXLOC
002937: 01,2703           60046                           AD       X1
002938: 01,2704           00006                           EXTEND                                         #  NO OPERATION IF DECREMENTED INDEX IS
002939: 01,2705           66125                           BZMF     DANZIG                                #  NEGATIVE OR ZERO.
002940:
002941: 01,2706           50120        DOTIXBR            INDEX    INDEXLOC
002942: 01,2707           56046                           XCH      X1                                    #  IGNORING OVERFLOWS.
002943:
002944: 01,2710           16724                           TCF      GOTO                                  #  DO THE BRANCH USING THE CADR IN POLISH.
002945:


002947:                                                                                                  #           SUBROUTINE TO CONVERT AN ERASABLE ADDRESS (11 BITS) TO AN EBANK SETTING AND SUBADDRESS.
002948:
002949: 01,2711           40107        15ADRERS           CS       POLISH
002950: 01,2712           65353                           AD       DEC45
002951: 01,2713           10000                           CCS      A                                     #  DOES THE ADDRESS POINT TO THE WORK AREA?
002952: 01,2714           30110                           CA       FIXLOC                                #  YES.  ADD FIXLOC.  EBANK OK AS IS.
002953: 01,2715           12722                           TCF      +5
002954:
002955: 01,2716           35352                           CA       OCT1400                               #  NO.  SET EBANK & MAKE UP SUBADDRESS.
002956: 01,2717           56107                           XCH      POLISH
002957: 01,2720           54003                           TS       EBANK
002958: 01,2721           74564                           MASK     LOW8
002959: 01,2722           26107                 +5        ADS      POLISH                                #  FALL INTO TAGSUB, AND RETURN VIA Q.
002960:
002961:                                                                                                  #           SUBROUTINE WHICH SETS THE ADDRESS OF THE SPECIFIED INDEX IN INDEXLOC.  (ACTUALLY, THE ADDRESS -38D.)
002962:
002963: 01,2723           30110        TAGSUB             CA       FIXLOC
002964: 01,2724           54120                           TS       INDEXLOC
002965:
002966: 01,2725           10020                           CCS      CYR                                   #  BIT 15 SPECIFIES INDEX.
002967: 01,2726           24120                           INCR     INDEXLOC                              #  0 MEANS USE X2.
002968: 01,2727           00002                           TC       Q
002969: 01,2730           00002                           TC       Q                                     #  1 FOR X1.
002970:


002972:                                                                                                  #           MISCELLANEOUS OPERATION CODES WITH DIRECT ADDRESSES. INCLUDED HERE ARE:
002973:
002974:                                                                                                  #           1.  ITA                STORE QPRET (RETURN ADDRESS) IN ERASABLE.
002975:                                                                                                  #           2.  CALL               CALL A SUBROUTINE, LEAVING RETURN IN QPRET.
002976:                                                                                                  #           3.  RTB                RETURN TO BASIC LANGUAGE AT THE GIVEN ADDRESS.
002977:                                                                                                  #           4.  BHIZ               BRANCH IF THE HIGH ORDER OF MPAC IS ZERO (SINGLE PRECISION).
002978:                                                                                                  #           5.  BOV                BRANCH ON OVERFLOW.
002979:                                                                                                  #           6.  GOTO               SIMPLE SEQUENCE CHANGE.
002980:
002981: 01,2731           10020        RTB/BHIZ           CCS      CYR
002982: 01,2732           30107        RTB                CA       POLISH
002983: 01,2733           15230                           TCF      BANKJUMP                              #  CALL BASIC ROUTINE.
002984:
002985: 01,2734           10144        BHIZ               CCS      MPAC
002986: 01,2735           16125                           TCF      DANZIG
002987: 01,2736           16724                           TCF      GOTO
002988: 01,2737           16125                           TCF      DANZIG
002989: 01,2740           16724                           TCF      GOTO
002990:
002991: 01,2741           10111        BOV(B)             CCS      OVFIND                                #  BRANCH ON OVERFLOW TO BASIC OR INTERP.
002992: 01,2742           12744                           TCF      +2
002993: 01,2743           16125                           TCF      DANZIG
002994: 01,2744           54111                           TS       OVFIND
002995: 01,2745           10020                           CCS      CYR
002996: 01,2746           12732                           TCF      RTB                                   #  IF BASIC.
002997: 01,2747           00360        B5TOBB             OCT      360
002998: 01,2750           16724                           TCF      GOTO
002999:


003001: 01,2751           10020        BZE/GOTO           CCS      CYR                                   #  SEE WHICH OP-CODE IS DESIRED.
003002: 01,2752           07001                           TC       BRANCH                                #  DO BZE.
003003: 01,2753           16125                           TCF      DANZIG
003004: 01,2754           16724                           TCF      GOTO                                  #  DO GOTO.
003005: 01,2755           16125                           TCF      DANZIG
003006:
003007: 01,2756           10020        BPL/BMN            CCS      CYR
003008: 01,2757           12765                           TCF      BPL
003009: 01,2760           12000        5B10               DEC      5          B+10                       #  SHIFTS OP CODE IN SWITCH INSTRUCTION ADR
003010:
003011: 01,2761           07001                           TC       BRANCH                                #  DO BMN.
003012: 01,2762           16125                           TCF      DANZIG
003013: 01,2763           16125                           TCF      DANZIG
003014: 01,2764           16724                           TCF      GOTO                                  #  ONLY IF NNZ.
003015:
003016: 01,2765           07001        BPL                TC       BRANCH
003017: 01,2766           16724                           TCF      GOTO                                  #  IF POSITIVE OR ZERO.
003018: 01,2767           16724                           TCF      GOTO
003019: 01,2770           16125                           TCF      DANZIG
003020:
003021: 01,2771           10020        CALL/ITA           CCS      CYR
003022: 01,2772           16716                           TCF      CALL
003023:
003024: 01,2773           04736                           TC       CCSHOLE
003025: 01,2774           02711                           TC       15ADRERS                              #  STORE QPRET. (TAGSUB AFTER 15ADRERS IS
003026: 01,2775           50110                           INDEX    FIXLOC                                #  SLOW IN THIS CASE, BUT SAVES STORAGE.)
003027: 01,2776           30052                           CA       QPRET
003028: 01,2777           12651                           TCF      MSTORE1
003029:


003031:                                                                                                  #           THE FOLLOWING OPERATIONS ARE AVAILABLE FOR ALTERING AND TESTING INTERPRETIVE SWITCHES:
003032:
003033:                                                                                                  #  00       BONSET                 SET A SWITCH AND DO A GOTO IF IT WAS ON.
003034:                                                                                                  #  01       SETGO                  SET A SWITCH AND DO A GOTO.
003035:                                                                                                  #  02       BOFSET                 SET A SWITCH AND DO A GOTO IF IT WAS OFF
003036:                                                                                                  #  03       SET                    SET A SWITCH.
003037:
003038:                                                                                                  #  04       BONINV                 INVERT A SWITCH AND BRANCH IF IT WAS ON.
003039:                                                                                                  #  05       INVGO                  INVERT A SWITCH AND DO A GOTO.
003040:                                                                                                  #  06       BOFINV                 INVERT A SWITCH AND BRANCH IF IT WAS OFF
003041:                                                                                                  #  07       INVERT                 INVERT A SWITCH.
003042:
003043:                                                                                                  #  10       BONCLR                 CLEAR A SWITCH AND BRANCH IF IT WAS ON.
003044:                                                                                                  #  11       CLRGO                  CLEAR A SWITCH AND DO A GOTO.
003045:                                                                                                  #  12       BOFCLR                 CLEAR A SWITCH AND BRANCH IF IT WAS OFF.
003046:                                                                                                  #  13       CLEAR                  CLEAR A SWITCH.
003047:
003048:                                                                                                  #  14       BON                    BRANCH IF A SWITCH WAS ON.
003049:                                                                                                  #  16       BOFF                   BRANCH IF A SWITCH WAS OFF.
003050:
003051:                                                                                                  #           THE ADDRESS SUPPLIED WITH THE SWITCH INSTRUCTION IS INTERPRETED AS FOLLOWS:
003052:
003053:                                                                                                  #           BITS 1-4    SWITCH BIT NUMBER (1-15).
003054:                                                                                                  #           BITS 5-8    SWITCH OPERATION NUMBER.
003055:                                                                                                  #           BITS 9-     SWITCH WORD NUMBER (UP TO 64 SWITCH WORDS).
003056:
003057:                                                                                                  #           THE ADDRESS ITSELF IS MADE UP BY THE YUL SYSTEM ASSEMBLER. THE BRANCH INSTRUCTIONS REQUIRE TWO
003058:                                                                                                  #  ADDRESSES, THE SECOND TAKEN AS THE DIRECT (OR INDIRECT IF IN ERASABLE) ADDRESS OF THE BRANCH.
003059:
003060:
003061: 01,3000           35343        SWITCHES           CAF      LOW4                                  #  LEAVE THE SWITCH BIT IN SWBIT  .
003062: 01,3001           70107                           MASK     POLISH
003063: 01,3002           50000                           INDEX    A
003064: 01,3003           37745                           CAF      BIT15                                 #  (NUMBER FROM LEFT TO RIGHT.)
003065: 01,3004           54121                           TS       SWBIT
003066:
003067: 01,3005           37755                           CAF      BIT7                                  #  LEAVE THE SWITCH NUMBER IN SWWORD.
003068: 01,3006           00006                           EXTEND
003069: 01,3007           70107                           MP       POLISH
003070: 01,3010           54120                           TS       SWWORD
003071:
003072: 01,3011           00004                           INHINT                                         #  DURING SWITCH CHANGE SO RUPT CAN USE TOO
003073: 01,3012           50000                           INDEX    A                                     #  LEAVE THE SWITCH WORD ITSELF IN L.
003074: 01,3013           30074                           CA       STATE
003075: 01,3014           54002                           TS       Q                                     #  Q WILL BE USED AS A CHANNEL.


003077: 01,3015           37751                           CAF      BIT11
003078: 01,3016           00006                           EXTEND                                         #  DISPATCH SWITCH BIT OPERATION AS IN BITS
003079: 01,3017           70107                           MP       POLISH                                #  7-8 OF POLISH.
003080: 01,3020           73060                           MASK     B3TOB4                                #  GETS 4X2-BIT CODE.
003081: 01,3021           50000                           INDEX    A
003082: 01,3022           13023                           TCF      +1
003083:
003084: 01,3023           30121                 +1        CA       SWBIT                                 #  00 - SET SWITCH IN QUESTION.
003085: 01,3024           00006                           EXTEND
003086: 01,3025           04002                           ROR      Q
003087: 01,3026           13035                           TCF      SWSTORE
003088:
003089: 01,3027           30121                 +5        CA       SWBIT                                 #  01 - INVERT SWITCH.
003090: 01,3030           00006                           EXTEND
003091: 01,3031           06002                           RXOR     Q
003092: 01,3032           13035                           TCF      SWSTORE
003093:
003094: 01,3033           40121                 +9D       CS       SWBIT                                 #  10 - CLEAR.
003095: 01,3034           70002                           MASK     Q
003096: 01,3035           50120        SWSTORE            INDEX    SWWORD
003097: 01,3036           54074                           TS       STATE                                 #  NEW SWITCH WORD.
003098:


003100: 01,3037           00003                 +13D      RELINT                                         #  11 - NOOP.
003101: 01,3040           37747                           CAF      BIT13
003102: 01,3041           00006                           EXTEND                                         #  DISPATCH SEQUCE CHANGING OR BRANCHING
003103: 01,3042           70107                           MP       POLISH                                #  CODE.
003104: 01,3043           73060                           MASK     B3TOB4
003105: 01,3044           50000                           INDEX    A
003106: 01,3045           13046                           TCF      +1                                    #  ORIGINALLY STORED IN BITS 5-6.
003107:
003108: 01,3046           40002                 +1        CS       Q                                     #  00 - BRANCH IF ON.
003109: 01,3047           70121        TEST               MASK     SWBIT
003110: 01,3050           10000                           CCS      A
003111: 01,3051           13061                           TCF      SWSKIP
003112:
003113: 01,3052           16773                 +5        TCF      SWBRANCH                              #  01 - GO TO.
003114:
003115: 01,3053           13061                           TCF      SWSKIP                                #  HERE ONLY ON BIT 15.
003116:
003117: 01,3054           04736                           TC       CCSHOLE
003118: 01,3055           04736                           TC       CCSHOLE
003119:
003120: 01,3056           30002                 +9D       CA       Q                                     #  10 - BRANCH IF OFF.
003121: 01,3057           13047                           TCF      TEST
003122:
003123: 01,3060           00014        B3TOB4             OCT      14
003124:
003125: 01,3061           24154        SWSKIP             INCR     LOC
003126:
003127: 01,3062  01,3000               SW/                EQUALS   SWITCHES
003128:
003129: 01,3062           16125                 +13D      TCF      DANZIG                                #  11 - NOOP.

End of include-file INTERPRETER.agc.  Parent file is MAIN.agc


