
Source Code


000002:                                                                                                  ## Copyright:   Public domain.
000003:                                                                                                  ## Filename:    INTER-BANK_COMMUNICATION.agc
000004:                                                                                                  ## Purpose:     A module for revision 0 of BURST120 (Sunburst). It
000005:                                                                                                  ##              is part of the source code for the Lunar Module's
000006:                                                                                                  ##              (LM) Apollo Guidance Computer (AGC) for Apollo 5.
000007:                                                                                                  ## Assembler:   yaYUL
000008:                                                                                                  ## Contact:     Ron Burkey <info@sandroid.org>.
000009:                                                                                                  ## Website:     www.ibiblio.org/apollo/index.html
000010:                                                                                                  ## Mod history: 2016-09-30 RSB  Created draft version.
000011:                                                                                                  ##              2016-10-19 RSB  Transcribed, largely from Aurora 12 version of the file.
000012:                                                                                                  ##              2016-10-31 RSB  Typos.
000013:                                                                                                  ##              2016-11-01 RSB  More typos.
000014:                                                                                                  ##              2016-12-06 RSB  Comments proofed using octopus/ProoferComments,
000015:                                                                                                  ##                              changes made.
000016:                                                                                                  ##              2017-03-17 RSB  Comment-text fixes identified in diff'ing
000017:                                                                                                  ##                              Luminary 99 vs Comanche 55.
000018:


000020:                                                                                                  #           THE FOLLOWING ROUTINE CAN BE USED TO CALL A SUBROUTINE IN ANOTHER BANK. IN THE BANKCALL VERSION, THE
000021:                                                                                                  #  CADR OF THE SUBROUTINE IMMEDIATELY FOLLOWS THE  TC BANKCALL  INSTRUCTION, WITH C(A) AND C(L) PRESERVED.
000022:
000023:    5206                                           BLOCK    02
000024:    5206           52124        BANKCALL           DXCH     BUF2                                  #  SAVE INCOMING A,L.
000025:    5207           50002                           INDEX    Q                                     #  PICK UP CADR.
000026:    5210           30000        BNKCAL+2           CA       0
000027:    5211           24002                           INCR     Q                                     #  SO WE RETURN TO THE LOC. AFTER THE CADR.
000028:
000029:                                                                                                  #  SWCALL IS  IDENTICAL TO BANKCALL, EXCEPT THAT THE CADR ARRIVES IN A.
000030:
000031:    5212           54001        SWCALL             TS       L
000032:    5213           22004                           LXCH     FBANK                                 #  SWITCH BANKS, SAVING RETURN.
000033:    5214           75337                           MASK     LOW10                                 #  GET SUB-ADDRESS OF CADR.
000034:    5215           56002                           XCH      Q                                     #  A,L NOW CONTAINS DP RETURN.
000035:    5216           52124                           DXCH     BUF2                                  #  RESTORING INPUTS IF THIS IS A BANKCALL.
000036:    5217           50002                           INDEX    Q
000037:    5220           02000                           TC       10000                                 #  SETTING Q TO SWRETURN.
000038:
000039:    5221           56124        SWRETURN           XCH      BUF2       +1                         #  COMES HERE TO RETURN TO CALLER. C(A,L)
000040:    5222           56004                           XCH      FBANK                                 #  ARE PRESERVED FOR RETURN.
000041:    5223           56124                           XCH      BUF2       +1
000042:    5224           00123                           TC       BUF2
000043:
000044:                                                                                                  #           THE FOLLOWING ROUTINE CAN BE USED AS A UNILATERAL JUMP WITH C(A,L) PRESERVED AND THE CADR IMMEDIATELY
000045:                                                                                                  #  FOLLOWING THE TC POSTJUMP INSTRUCTION.
000046:
000047:    5225           56002        POSTJUMP           XCH      Q                                     #  SAVE INCOMING C(A).
000048:    5226           50000                           INDEX    A                                     #  GET CADR.
000049:    5227           30000                           CA       0
000050:
000051:                                                                                                  #           BANKJUMP IS THE SAME AS POSTJUMP, EXCEPT THAT THE CADR ARRIVES IN A.
000052:
000053:    5230           54004        BANKJUMP           TS       FBANK
000054:    5231           75337                           MASK     LOW10
000055:    5232           56002                           XCH      Q                                     #  RESTORING INPUT C(A) IF THIS WAS A
000056:    5233           50002        Q+10000            INDEX    Q                                     #  POSTJUMP.
000057:    5234           12000        BNKJUP+4           TCF      10000
000058:


000060:                                                                                                  #           THE FOLLOWING ROUTINE GETS THE RETURN CADR SAVED BY SWCALL OR BANKCALL AND LEAVES IT IN A.
000061:
000062:    5235           35337        MAKECADR           CAF      LOW10
000063:    5236           70123                           MASK     BUF2
000064:    5237           60124                           AD       BUF2       +1
000065:    5240           00002                           TC       Q
000066:
000067:
000068:                                                                                                  #           THE FOLLOWING ROUTINE OBTAINS THE ONE WORD AT THE ADDRESS ARRIVING IN A, AND LEAVES IT IN A.  ENTER
000069:                                                                                                  #  WITH THE CADR IN A, AT DATACALL WITH JUNK IN L IF NOT SWITCHING SUPERBANKS, OTHERWISE AT SUPDACAL WITH SUPERBANK
000070:                                                                                                  #  BITS IN BITS 7-5 IN L (BITS 15-8 AND 4-1 MAY BE JUNK).  DEBRIS = MTEMP.  INHINTS FOR ABOUT 165 MUSEC.
000071:
000072:    5241           54001        DATACALL           TS       L                                     #  SAVE CADR (SOLE INPUT HERE).
000073:    5242           00006                           EXTEND
000074:    5243           00007                           READ     SUPERBNK                              #  THIS PROLOGUE MAKES SUPERSWITCH VACUOUS.
000075:    5244           56001                           XCH      L                                     #  CADR IN A, SUPERBITS IN L.
000076:
000077:    5245           54125        SUPDACAL           TS       MPTEMP
000078:    5246           56004                           XCH      FBANK                                 #  SET FBANK FOR DATA.
000079:    5247           00006                           EXTEND
000080:    5250           04007                           ROR      SUPERBNK                              #  SAVE FBANK IN BITS 15-11, AND
000081:    5251           56125                           XCH      MPTEMP                                #   SUPERBANK IN BITS  7-5.
000082:    5252           75337                           MASK     LOW10
000083:    5253           56001                           XCH      L                                     #  SAVE REL. ADR. IN BANK, FETCH SUPERBITS.
000084:    5254           00004                           INHINT                                         #  BECAUSE RUPT DOES NOT SAVE SUPERBANK.
000085:    5255           00006                           EXTEND
000086:    5256           01007                           WRITE    SUPERBNK                              #  SET SUPERBANK FOR DATA.
000087:    5257           50001                           INDEX    L
000088:    5260           32000                           CA       10000
000089:
000090:    5261           56125                           XCH      MPTEMP                                #  SAVE 1ST WD, FETCH OLD FBANK AND SBANK.
000091:    5262           00006                           EXTEND
000092:    5263           01007                           WRITE    SUPERBNK                              #  RESTORE SUPERBANK.
000093:    5264           00003                           RELINT
000094:    5265           54004                           TS       FBANK                                 #  RESTORE FBANK.
000095:    5266           30125                           CA       MPTEMP                                #  RECOVER FIRST WORD OF DATA.
000096:    5267           00002                           RETURN                                         #  24 WDS. DATACALL 516 MU, SUPDACAL 432 MU
000097:


000099:                                                                                                  #           THE FOLLOWING ROUTINES ARE IDENTICAL TO BANKCALL AND SWCALL EXCEPT THAT THEY ARE USED IN INTERRUPT.
000100:
000101:    5270           52073        IBNKCALL           DXCH     RUPTREG3                              #  USES RUPTREG3,4 FOR DP RETURN ADDRESS.
000102:    5271           50002                           INDEX    Q
000103:    5272           30000                           CAF      0
000104:    5273           24002                           INCR     Q
000105:
000106:    5274           54001        ISWCALLL           TS       L
000107:    5275           22004                           LXCH     FBANK
000108:    5276           75337                           MASK     LOW10
000109:    5277           56002                           XCH      Q
000110:    5300           52073                           DXCH     RUPTREG3
000111:    5301           50002                           INDEX    Q
000112:    5302           02000                           TC       10000
000113:
000114:    5303           56073        ISWRETRN           XCH      RUPTREG4
000115:    5304           56004                           XCH      FBANK
000116:    5305           56073                           XCH      RUPTREG4
000117:    5306           00072                           TC       RUPTREG3
000118:


000120:                                                                                                  #           THE FOLLOWING SUBROUTINES PROVIDE TO THE BASIC PROGRAMMER ENTRY INTO AND RETURN FROM ANY INTERPRETIVE
000121:                                                                                                  #  CODING WHICH DOES NOT USE THE ENTERING CONTENTS OF Q AND WHICH RETURNS VIA DANZIG. C(A) AND C(L) ARE SAVED.
000122:
000123:                                                                                                  #  USER'S RESPONSIBILITY TO FILL IN ADVANCE THE APPROPRIATE OPERAND AND ADDRESS REGISTERS USED BY THE
000124:                                                                                                  #  INTERPRETIVE CODING SUCH AS MPAC, BUF, ADDRWD, ETC.; AND TO CONFIRM THAT THE INTERPRETIVE CODING MEETS THE
000125:                                                                                                  #  ABOVE RESTRICTIONS WITH RESPECT TO Q AND DANZIG.
000126:
000127:                                                                                                  #  USEPRET AND USPRCADR MUST NOT BE USED IN INTERRUPT.
000128:
000129:                                                                                                  #  1. USEPRET ACCESSES INTERPRETIVE CODING WHICH CAN BE ENTERED WITHOUT CHANGING FBANK.
000130:                                                                                                  #     THE CALLING SEQUENCE IS AS FOLLOWS:
000131:
000132:                                                                                                  #                                          L         TC     USEPRET
000133:                                                                                                  #                                          L+1       TC,TCF INTPRETX       TC,TCF MEANS TC OR TCF
000134:                                                                                                  #                                                                          INTPRETX IS THE INTERPRETIVE CODING
000135:                                                                                                  #                                                                          RETURN IS TO L+2
000136:
000137:                                                                                                  #  2. USPRCADR ACCESSES INTERPRETIVE CODING IN OTHER THAN THE USER'S FBANK. THE CALLING SEQUENCE IS AS FOLLOWS:
000138:
000139:                                                                                                  #                                          L         TC     USPRCADR
000140:                                                                                                  #                                          L+1       CADR   INTPRETX       INTPRETX IS THE INTERPRETIVE CODING
000141:                                                                                                  #                                                                          RETURN IS TO L+2
000142:
000143:    5307           56002        USEPRET            XCH      Q                                     #  FETCH Q, SAVING A
000144:    5310           54154                           TS       LOC                                   #  L+1 TO LOC
000145:    5311           30006                           CA       BBANK
000146:    5312           54155                           TS       BANKSET                               #  USER'S BBANK TO BANKSET
000147:    5313           37754                           CA       BIT8
000148:    5314           54023                           TS       EDOP                                  #  EXIT INSTRUCTION TO EDOP
000149:    5315           30002                           CA       Q                                     #  RETRIEVE ORIGINAL A
000150:    5316           00154                           TC       LOC
000151:
000152:    5317           54154        USPRCADR           TS       LOC                                   #  SAVE A
000153:    5320           37754                           CA       BIT8
000154:    5321           54023                           TS       EDOP                                  #  EXIT INSTRUCTION TO EDOP
000155:    5322           30006                           CA       BBANK
000156:    5323           54155                           TS       BANKSET                               #  USER'S BBANK TO BANKSET
000157:    5324           50002                           INDEX    Q
000158:    5325           30000                           CA       0
000159:    5326           54004                           TS       FBANK                                 #  INTERPRETIVE BANK TO FBANK
000160:    5327           75337                           MASK     LOW10                                 #  YIELDS INTERPRETIVE RELATIVE ADDRESS
000161:    5330           56002                           XCH      Q                                     #  INTERPRETIVE ADDRESS TO Q, FETCHING L+1
000162:    5331           56154                           XCH      LOC                                   #  L+1 TO LOC, RETRIEVING ORIGINAL A
000163:    5332           15233                           TCF      Q+10000
000164:


000166:                                                                                                  #  THERE ARE FOUR POSSIBLE SETTINGS FOR CHANNEL 07. (CHANNEL 07 CONTAINS THE SUPERBANK SETTING.)
000167:                                                                                                  #                                            PSEUDO-FIXED     OCTAL PSEUDO
000168:                                                                                                  #  SUPERBANK     SETTING     S-REG. VALUE    BANK NUMBERS     ADDRESSES
000169:                                                                                                  #  ---------     -------     ------------     ------------     ------------
000170:
000171:                                                                                                  #  SUPERBANK 3     0XX       2000 - 3777        30 - 37       70000 - 107777   (WHERE XX CAN BE ANYTHING AND
000172:                                                                                                  #                                                                              WILL USUALLY BE SEEN AS 11)
000173:                                                                                                  #  SUPERBANK 4     100       2000 - 3777        40 - 47       110000 - 127777  (AS FAR AS IT CAN BE SEEN,
000174:                                                                                                  #                                                                              ONLY BANKS 40-43 WILL EVER BE
000175:                                                                                                  #                                                                              AND ARE PRESENTLY AVAILABLE)
000176:                                                                                                  #  SUPERBANK 5     101       2000 - 3777        50 - 57       130000 - 147777  (PRESENTLY NOT AVAILABLE TO
000177:                                                                                                  #                                                                              THE USER)
000178:                                                                                                  #  SUPERBANK 6     110       2000 - 3777        60 - 67       150000 - 167777  (PRESENTLY NOT AVAILABLE TO
000179:                                                                                                  #                                                                              THE USER)
000180:                                                                                                  #  ***  THIS ROUTINE MAYBE CALLED BY ANY PROGRAM LOCATED IN BANKS 00 - 27.  I.E., NO PROGRAM LIVING IN ANY
000181:                                                                                                  #  SUPERBANK SHOULD USE SUPERSW. ***
000182:
000183:                                                                                                  #  SUPERSW MAY BE CALLED IN THIS FASHION:
000184:
000185:                                                                                                  #           CAF     ABBCON          WHERE  --  ABBCON   BBCON  SOMETHIN  --
000186:                                                                                                  #           TCR     SUPERSW         (THE SUPERBNK BITS ARE IN THE BBCON)
000187:                                                                                                  #           ...       ...
000188:                                                                                                  #            .         .
000189:                                                                                                  #            .         .
000190:
000191:                                                                                                  #  OR IN THIS FASHION:
000192:
000193:                                                                                                  #           CAF     SUPERSET        WHERE SUPERSET IS ONE OF THE FOUR AVAILABLE
000194:                                                                                                  #           TCR     SUPERSW         SUPERBANK BIT CONSTANTS:
000195:                                                                                                  #           ...       ...                                   SUPER011 OCTAL  60
000196:                                                                                                  #            .         .                                    SUPER100 OCTAL 100
000197:                                                                                                  #            .         .                                    SUPER101 OCTAL 120
000198:                                                                                                  #                                                           SUPER110 OCTAL 140
000199:
000200:    5333           00006        SUPERSW            EXTEND
000201:    5334           01007                           WRITE    SUPERBNK                              #  WRITE BITS 7-6-5 OF THE ACCUMULATOR INTO
000202:                                                                                                  #  CHANNEL 07
000203:    5335           00002                           TC       Q                                     #  TC TO INSTRUCTION FOLLOWING
000204:                                                                                                  #    TC  SUPERSW
000205:

End of include-file INTER-BANK_COMMUNICATION.agc.  Parent file is MAIN.agc


