
Source Code


000002:                                                                                                  ## Copyright:   Public domain.
000003:                                                                                                  ## Filename:    INTERRUPT_LEAD_INS.agc
000004:                                                                                                  ## Purpose:     A module for revision 0 of BURST120 (Sunburst).
000005:                                                                                                  ##              It is part of the source code for the Lunar Module's (LM)
000006:                                                                                                  ##              Apollo Guidance Computer (AGC) for Apollo 5.
000007:                                                                                                  ## Assembler:   yaYUL
000008:                                                                                                  ## Contact:     Ron Burkey <info@sandroid.org>.
000009:                                                                                                  ## Website:     www.ibiblio.org/apollo/index.html
000010:                                                                                                  ## Mod history: 2016-09-30 RSB  Created draft version.
000011:                                                                                                  ##                              I've also corrected this against the Sunburst120
000012:                                                                                                  ##                              scans, so modulo any errors of mine, should be
000013:                                                                                                  ##                              ready to go.
000014:                                                                                                  ##              2016-11-03 RSB  Some SBANK= workarounds.
000015:


000017:    4000                                           SETLOC   4000


000019:    4000                                           SBANK=
000020:
000021:    4000           00004                           INHINT                                         #  GO
000022:    4001           34054                           CAF      GOBB
000023:    4002           56006                           XCH      BBANK
000024:    4003           12163                           TCF      GOPROG
000025:
000026:    4004           52011                           DXCH     ARUPT                                 #  T6RUPT
000027:    4005           00006                           EXTEND
000028:    4006           35051                           DCA      T6ADR
000029:    4007           52006                           DTCB
000030:
000031:    4010           52011                           DXCH     ARUPT                                 #  T5RUPT
000032:    4011           00006                           EXTEND
000033:    4012           31001                           DCA      T5ADR
000034:    4013           52006                           DTCB
000035:
000036:    4014           52011                           DXCH     ARUPT                                 #  T3RUPT
000037:    4015           34056                           CAF      T3RPTBB
000038:    4016           56006                           XCH      BBANK
000039:    4017           13577                           TCF      T3RUPT
000040:
000041:    4020           52011                           DXCH     ARUPT                                 #  T4RUPT
000042:    4021           34063                           CAF      T4RPTBB
000043:    4022           56006                           XCH      BBANK
000044:    4023           12000                           TCF      T4RUPT
000045:
000046:    4024           52011                           DXCH     ARUPT                                 #  KEYRUPT1
000047:    4025           34057                           CAF      KEYRPTBB
000048:    4026           56006                           XCH      BBANK
000049:    4027           13474                           TCF      KEYRUPT1
000050:
000051:    4030           52011                           DXCH     ARUPT                                 #  KEYRUPT2
000052:    4031           34060                           CAF      MKRUPTBB
000053:    4032           56006                           XCH      BBANK
000054:    4033           13221                           TCF      MARKRUPT
000055:
000056:    4034           52011                           DXCH     ARUPT                                 #  UPRUPT
000057:    4035           34057                           CAF      UPRPTBB
000058:    4036           56006                           XCH      BBANK
000059:    4037           13514                           TCF      UPRUPT
000060:
000061:    4040           52011                           DXCH     ARUPT                                 #  DOWNRUPT
000062:    4041           34061                           CAF      DWNRPTBB
000063:    4042           56006                           XCH      BBANK
000064:    4043           12001                           TCF      DODOWNTM
000065:
000066:    4044           52011                           DXCH     ARUPT                                 #  RADAR RUPT
000067:    4045           34062                           CAF      RDRPTBB
000068:    4046           56006                           XCH      BBANK


000070:    4047           15736                           TCF      NOQRSM     +1                         #  WAS TCF RADAREAD (NO RADAR IN 206).
000071:
000072:                                                                                                  #  TRAPS 31B AND 32 SHOUDL NEVER BE SET.  THEREFORE-
000073:                                                                                                  #  RUPT 10 WIL ALWAYS REFER TO THE HAND CONTROLLOER LPD OR MINIMUM IMPULSE
000074:                                                                                                  #  USE.  SEE GEORGE CHERRY FOR RATIONALE REGARDING THE AFORESAID.
000075:
000076:    4050           52011                           DXCH     ARUPT                                 #  RUPT10 IS USED ONLY FOR RHC MINIMP MODE ONLY.
000077:    4051           37762                           CAF      TWO
000078:    4052           55007                           TS       DELAYCTR
000079:    4053           15737                           TCF      NOQBRSM
000080:
000081:    4054  E3,1400                                  EBANK=   LST1                                  #  RESTART USES E0, E3
000082:    4054           02003        GOBB               BBCON    GOPROG
000083:
000084:    4055     0025                                  EBANK=   TIME1
000085:    4055           04000        T6RPTBB            BBCON    RESUME                                #  ***FIX LATER***
000086:
000087:    4056  E3,1400                                  EBANK=   LST1
000088:    4056           02003        T3RPTBB            BBCON    T3RUPT
000089:
000090:    4057     0073                                  EBANK=   KEYTEMP1
000091:    4057           26000        KEYRPTBB           BBCON    KEYRUPT1
000092:
000093:    4060  E3,1467                                  EBANK=   AOTAZ
000094:    4060           26003        MKRUPTBB           BBCON    MARKRUPT
000095:
000096:    4061     4057               UPRPTBB            =        KEYRPTBB
000097:
000098:    4061  E7,1407                                  EBANK=   DNTMBUFF
000099:    4061           32007        DWNRPTBB           BBCON    DODOWNTM
000100:
000101:    4062     0412                                  EBANK=   RADMODES
000102:    4062           20001        RDRPTBB            BBCON    RADAREAD
000103:
000104:    4063  E6,1404                                  EBANK=   M11
000105:    4063           24006        T4RPTBB            BBCON    T4RUPTA
000106:
000107:

End of include-file INTERRUPT_LEAD_INS.agc.  Parent file is MAIN.agc


