
Source Code


000002:                                                                                                  ## Copyright:   Public domain.
000003:                                                                                                  ## Filename:    INTER-BANK_COMMUNICATION.agc
000004:                                                                                                  ## Purpose:     A module for revision 0 of BURST120 (Sunburst). It
000005:                                                                                                  ##              is part of the source code for the Lunar Module's
000006:                                                                                                  ##              (LM) Apollo Guidance Computer (AGC) for Apollo 5.
000007:                                                                                                  ## Assembler:   yaYUL
000008:                                                                                                  ## Contact:     Ron Burkey <info@sandroid.org>.
000009:                                                                                                  ## Website:     www.ibiblio.org/apollo/index.html
000010:                                                                                                  ## Mod history: 2016-09-30 RSB  Created draft version.
000011:                                                                                                  ##              2016-10-19 RSB  Transcribed, largely from Aurora 12 version of the file.
000012:                                                                                                  ##              2016-10-31 RSB  Typos.
000013:                                                                                                  ##              2016-11-01 RSB  More typos.
000014:                                                                                                  ##              2016-12-06 RSB  Comments proofed using octopus/ProoferComments,
000015:                                                                                                  ##                              changes made.
000016:


000018:                                                                                                  #           THE FOLLOWING ROUTINE CAN BE USED TO CALL A SUBROUTINE IN ANOTHER BANK. IN THE BANKCALL VERSION, THE
000019:                                                                                                  #  CADR OF THE SUBROUTINE IMMEDIATELY FOLLOWS THE  TC BANKCALL  INSTRUCTION, WITH C(A) AND C(L) PRESERVED.
000020:
000021:    5206                                           BLOCK    02
000022:    5206           52124        BANKCALL           DXCH     BUF2                                  #  SAVE INCOMING A,L.
000023:    5207           50002                           INDEX    Q                                     #  PICK UP CADR.
000024:    5210           30000        BNKCAL+2           CA       0
000025:    5211           24002                           INCR     Q                                     #  SO WE RETURN TO THE LOC. AFTER THE CADR.
000026:
000027:                                                                                                  #  SWCALL IS  IDENTICAL TO BANKCALL, EXCEPT THAT THE CADR ARRIVES IN A.
000028:
000029:    5212           54001        SWCALL             TS       L
000030:    5213           22004                           LXCH     FBANK                                 #  SWITCH BANKS, SAVING RETURN.
000031:    5214           75337                           MASK     LOW10                                 #  GET SUB-ADDRESS OF CADR.
000032:    5215           56002                           XCH      Q                                     #  A,L NOW CONTAINS DP RETURN.
000033:    5216           52124                           DXCH     BUF2                                  #  RESTORING INPUTS IF THIS IS A BANKCALL.
000034:    5217           50002                           INDEX    Q
000035:    5220           02000                           TC       10000                                 #  SETTING Q TO SWRETURN.
000036:
000037:    5221           56124        SWRETURN           XCH      BUF2       +1                         #  COMES HERE TO RETURN TO CALLER. C(A,L)
000038:    5222           56004                           XCH      FBANK                                 #  ARE PRESERVED FOR RETURN.
000039:    5223           56124                           XCH      BUF2       +1
000040:    5224           00123                           TC       BUF2
000041:
000042:                                                                                                  #           THE FOLLOWING ROUTINE CAN BE USED AS A UNILATERAL JUMP WITH C(A,L) PRESERVED AND THE CADR IMMEDIATELY
000043:                                                                                                  #  FOLLOWING THE TC POSTJUMP INSTRUCTION.
000044:
000045:    5225           56002        POSTJUMP           XCH      Q                                     #  SAVE INCOMING C(A).
000046:    5226           50000                           INDEX    A                                     #  GET CADR.
000047:    5227           30000                           CA       0
000048:
000049:                                                                                                  #           BANKJUMP IS THE SAME AS POSTJUMP, EXCEPT THAT THE CADR ARRIVES IN A.
000050:
000051:    5230           54004        BANKJUMP           TS       FBANK
000052:    5231           75337                           MASK     LOW10
000053:    5232           56002                           XCH      Q                                     #  RESTORING INPUT C(A) IF THIS WAS A
000054:    5233           50002        Q+10000            INDEX    Q                                     #  POSTJUMP.
000055:    5234           12000        BNKJUP+4           TCF      10000
000056:


000058:                                                                                                  #           THE FOLLOWING ROUTINE GETS THE RETURN CADR SAVED BY SWCALL OR BANKCALL AND LEAVES IT IN A.
000059:
000060:    5235           35337        MAKECADR           CAF      LOW10
000061:    5236           70123                           MASK     BUF2
000062:    5237           60124                           AD       BUF2       +1
000063:    5240           00002                           TC       Q
000064:
000065:
000066:                                                                                                  #           THE FOLLOWING ROUTINE OBTAINS THE ONE WORD AT THE ADDRESS ARRIVING IN A, AND LEAVES IT IN A.  ENTER
000067:                                                                                                  #  WITH THE CADR IN A, AT DATACALL WITH JUNK IN L IF NOT SWITCHING SUPERBANKS, OTHERWISE AT SUPDACAL WITH SUPERBANK
000068:                                                                                                  #  BITS IN BITS 7-5 IN L (BITS 15-8 AND 4-1 MAY BE JUNK).  DEBRIS = MTEMP.  INHINTS FOR ABOUT 165 MUSEC.
000069:
000070:    5241           54001        DATACALL           TS       L                                     #  SAVE CADR (SOLE INPUT HERE).
000071:    5242           00006                           EXTEND
000072:    5243           00007                           READ     SUPERBNK                              #  THIS PROLOGUE MAKES SUPERSWITCH VACUOUS.
000073:    5244           56001                           XCH      L                                     #  CADR IN A, SUPERBITS IN L.
000074:
000075:    5245           54125        SUPDACAL           TS       MPTEMP
000076:    5246           56004                           XCH      FBANK                                 #  SET FBANK FOR DATA.
000077:    5247           00006                           EXTEND
000078:    5250           04007                           ROR      SUPERBNK                              #  SAVE FBANK IN BITS 15-11, AND
000079:    5251           56125                           XCH      MPTEMP                                #   SUPERBANK IN BITS  7-5.
000080:    5252           75337                           MASK     LOW10
000081:    5253           56001                           XCH      L                                     #  SAVE REL. ADR. IN BANK, FETCH SUPERBITS.
000082:    5254           00004                           INHINT                                         #  BECAUSE RUPT DOES NOT SAVE SUPERBANK.
000083:    5255           00006                           EXTEND
000084:    5256           01007                           WRITE    SUPERBNK                              #  SET SUPERBANK FOR DATA.
000085:    5257           50001                           INDEX    L
000086:    5260           32000                           CA       10000
000087:
000088:    5261           56125                           XCH      MPTEMP                                #  SAVE 1ST WD, FETCH OLD FBANK AND SBANK.
000089:    5262           00006                           EXTEND
000090:    5263           01007                           WRITE    SUPERBNK                              #  RESTORE SUPERBANK.
000091:    5264           00003                           RELINT
000092:    5265           54004                           TS       FBANK                                 #  RESTORE FBANK.
000093:    5266           30125                           CA       MPTEMP                                #  RECOVER FIRST WORD OF DATA.
000094:    5267           00002                           RETURN                                         #  24 WDS. DATACALL 516 MU, SUPDACAL 432 MU
000095:


000097:                                                                                                  #           THE FOLLOWING ROUTINES ARE IDENTICAL TO BANKCALL AND SWCALL EXCEPT THAT THEY ARE USED IN INTERRUPT.
000098:
000099:    5270           52073        IBNKCALL           DXCH     RUPTREG3                              #  USES RUPTREG3,4 FOR DP RETURN ADDRESS.
000100:    5271           50002                           INDEX    Q
000101:    5272           30000                           CAF      0
000102:    5273           24002                           INCR     Q
000103:
000104:    5274           54001        ISWCALLL           TS       L
000105:    5275           22004                           LXCH     FBANK
000106:    5276           75337                           MASK     LOW10
000107:    5277           56002                           XCH      Q
000108:    5300           52073                           DXCH     RUPTREG3
000109:    5301           50002                           INDEX    Q
000110:    5302           02000                           TC       10000
000111:
000112:    5303           56073        ISWRETRN           XCH      RUPTREG4
000113:    5304           56004                           XCH      FBANK
000114:    5305           56073                           XCH      RUPTREG4
000115:    5306           00072                           TC       RUPTREG3
000116:


000118:                                                                                                  #           THE FOLLOWING SUBROUTINES PROVIDE TO THE BASIC PROGRAMMER ENTRY INTO AND RETURN FROM ANY INTERPRETIVE
000119:                                                                                                  #  CODING WHICH DOES NOT USE THE ENTERING CONTENTS OF Q AND WHICH RETURNS VIA DANZIG. C(A) AND C(L) ARE SAVED.
000120:
000121:                                                                                                  #  USER'S RESPONSIBILITY TO FILL IN ADVANCE THE APPROPRIATE OPERAND AND ADDRESS REGISTERS USED BY THE
000122:                                                                                                  #  INTERPRETIVE CODING SUCH AS MPAC, BUF, ADDRWD, ETC.; AND TO CONFIRM THAT THE INTERPRETIVE CODING MEETS THE
000123:                                                                                                  #  ABOVE RESTRICTIONS WITH RESPECT TO Q AND DANZIG.
000124:
000125:                                                                                                  #  USEPRET AND USPRCADR MUST NOT BE USED IN INTERRUPT.
000126:
000127:                                                                                                  #  1. USEPRET ACCESSES INTERPRETIVE CODING WHICH CAN BE ENTERED WITHOUT CHANGING FBANK.
000128:                                                                                                  #     THE CALLING SEQUENCE IS AS FOLLOWS:
000129:
000130:                                                                                                  #                                          L         TC     USEPRET
000131:                                                                                                  #                                          L+1       TC,TCF INTPRETX       TC,TCF MEANS TC OR TCF
000132:                                                                                                  #                                                                          INTPRETX IS THE INTERPRETIVE CODING
000133:                                                                                                  #                                                                          RETURN IS TO L+2
000134:
000135:                                                                                                  #  2. USPRCADR ACCESSES INTERPRETIVE CODING IN OTHER THAN THE USER'S FBANK. THE CALLING SEQUENCE IS AS FOLLOWS:
000136:
000137:                                                                                                  #                                          L         TC     USPRCADR
000138:                                                                                                  #                                          L+1       CADR   INTPRETX       INTPRETX IS THE INTERPRETIVE CODING
000139:                                                                                                  #                                                                          RETURN IS TO L+2
000140:
000141:    5307           56002        USEPRET            XCH      Q                                     #  FETCH Q, SAVING A
000142:    5310           54154                           TS       LOC                                   #  L+1 TO LOC
000143:    5311           30006                           CA       BBANK
000144:    5312           54155                           TS       BANKSET                               #  USER'S BBANK TO BANKSET
000145:    5313           37754                           CA       BIT8
000146:    5314           54023                           TS       EDOP                                  #  EXIT INSTRUCTION TO EDOP
000147:    5315           30002                           CA       Q                                     #  RETRIEVE ORIGINAL A
000148:    5316           00154                           TC       LOC
000149:
000150:    5317           54154        USPRCADR           TS       LOC                                   #  SAVE A
000151:    5320           37754                           CA       BIT8
000152:    5321           54023                           TS       EDOP                                  #  EXIT INSTRUCTION TO EDOP
000153:    5322           30006                           CA       BBANK
000154:    5323           54155                           TS       BANKSET                               #  USER'S BBANK TO BANKSET
000155:    5324           50002                           INDEX    Q
000156:    5325           30000                           CA       0
000157:    5326           54004                           TS       FBANK                                 #  INTERPRETIVE BANK TO FBANK
000158:    5327           75337                           MASK     LOW10                                 #  YIELDS INTERPRETIVE RELATIVE ADDRESS
000159:    5330           56002                           XCH      Q                                     #  INTERPRETIVE ADDRESS TO Q, FETCHING L+1
000160:    5331           56154                           XCH      LOC                                   #  L+1 TO LOC, RETRIEVING ORIGINAL A
000161:    5332           15233                           TCF      Q+10000
000162:


000164:                                                                                                  #  THERE ARE FOUR POSSIBLE SETTINGS FOR CHANNEL 07. (CHANNEL 07 CONTAINS THE SUPERBANK SETTING.)
000165:                                                                                                  #                                            PSEUDO-FIXED     OCTAL PSEUDO
000166:                                                                                                  #  SUPERBANK     SETTING     S-REG. VALUE    BANK NUMBERS     ADDRESSES
000167:                                                                                                  #  ---------     -------     ------------     ------------     ------------
000168:
000169:                                                                                                  #  SUPERBANK 3     OXX       2000 - 3777        30 - 37       70000 - 107777   (WHERE XX CAN BE ANYTHING AND
000170:                                                                                                  #                                                                              WILL USUALLY BE SEEN AS 11)
000171:                                                                                                  #  SUPERBANK 4     100       2000 - 3777        40 - 47       110000 - 127777  (AS FAR AS IT CAN BE SEEN,
000172:                                                                                                  #                                                                              ONLY BANKS 40-43 WILL EVER BE
000173:                                                                                                  #                                                                              AND ARE PRESENTLY AVAILABLE)
000174:                                                                                                  #  SUPERBANK 5     101       2000 - 3777        50 - 57       130000 - 147777  (PRESENTLY NOT AVAILABLE TO
000175:                                                                                                  #                                                                              THE USER)
000176:                                                                                                  #  SUPERBANK 6     110       2000 - 3777        60 - 67       150000 - 167777  (PRESENTLY NOT AVAILABLE TO
000177:                                                                                                  #                                                                              THE USER)
000178:                                                                                                  #  ***  THIS ROUTINE MAYBE CALLED BY ANY PROGRAM LOCATED IN BANKS 00 - 27.  I.E., NO PROGRAM LIVING IN ANY
000179:                                                                                                  #  SUPERBANK SHOULD USE SUPERSW. ***
000180:
000181:                                                                                                  #  SUPERSW MAY BE CALLED IN THIS FASHION:
000182:
000183:                                                                                                  #           CAF     ABBCON          WHERE  --  ABBCON   BBCON  SOMETHIN  --
000184:                                                                                                  #           TCR     SUPERSW         (THE SUPERBNK BITS ARE IN THE BBCON)
000185:                                                                                                  #           ...       ...
000186:                                                                                                  #            .         .
000187:                                                                                                  #            .         .
000188:
000189:                                                                                                  #  OR IN THIS FASHION:
000190:
000191:                                                                                                  #           CAF     SUPERSET        WHERE SUPERSET IS ONE OF THE FOUR AVAILABLE
000192:                                                                                                  #           TCR     SUPERSW         SUPERBANK BIT CONSTANTS:
000193:                                                                                                  #           ...       ...                                   SUPER011 OCTAL  60
000194:                                                                                                  #            .         .                                    SUPER100 OCTAL 100
000195:                                                                                                  #            .         .                                    SUPER101 OCTAL 120
000196:                                                                                                  #                                                           SUPER110 OCTAL 140
000197:
000198:    5333           00006        SUPERSW            EXTEND
000199:    5334           01007                           WRITE    SUPERBNK                              #  WRITE BITS 7-6-5 OF THE ACCUMULATOR INTO
000200:                                                                                                  #  CHANNEL 07
000201:    5335           00002                           TC       Q                                     #  TC TO INSTRUCTION FOLLOWING
000202:                                                                                                  #    TC  SUPERSW
000203:

End of include-file INTER-BANK_COMMUNICATION.agc.  Parent file is MAIN.agc


