
Source Code


000002:                                                                                                  ## Copyright:   Public domain.
000003:                                                                                                  ## Filename:    INTER-BANK_COMMUNICATION.agc
000004:                                                                                                  ## Purpose:     A module for revision 0 of BURST120 (Sunburst). It
000005:                                                                                                  ##              is part of the source code for the Lunar Module's
000006:                                                                                                  ##              (LM) Apollo Guidance Computer (AGC) for Apollo 5.
000007:                                                                                                  ## Assembler:   yaYUL
000008:                                                                                                  ## Contact:     Ron Burkey <info@sandroid.org>.
000009:                                                                                                  ## Website:     www.ibiblio.org/apollo/index.html
000010:                                                                                                  ## Mod history: 2016-09-30 RSB  Created draft version.
000011:                                                                                                  ##              2016-10-19 RSB  Transcribed, largely from Aurora 12 version of the file.
000012:                                                                                                  ##              2016-10-31 RSB  Typos.
000013:                                                                                                  ##              2016-11-01 RSB  More typos.
000014:                                                                                                  ##              2016-12-06 RSB  Comments proofed using octopus/ProoferComments,
000015:                                                                                                  ##                              changes made.
000016:                                                                                                  ##              2017-03-17 RSB  Comment-text fixes identified in diff'ing
000017:                                                                                                  ##                              Luminary 99 vs Comanche 55.
000018:                                                                                                  ##              2021-05-30 ABS  ISWCALLL -> ISWCALL
000019:


000021:                                                                                                  #           THE FOLLOWING ROUTINE CAN BE USED TO CALL A SUBROUTINE IN ANOTHER BANK. IN THE BANKCALL VERSION, THE
000022:                                                                                                  #  CADR OF THE SUBROUTINE IMMEDIATELY FOLLOWS THE  TC BANKCALL  INSTRUCTION, WITH C(A) AND C(L) PRESERVED.
000023:
000024:    5206                                           BLOCK    02
000025:    5206           52124        BANKCALL           DXCH     BUF2                                  #  SAVE INCOMING A,L.
000026:    5207           50002                           INDEX    Q                                     #  PICK UP CADR.
000027:    5210           30000        BNKCAL+2           CA       0
000028:    5211           24002                           INCR     Q                                     #  SO WE RETURN TO THE LOC. AFTER THE CADR.
000029:
000030:                                                                                                  #  SWCALL IS  IDENTICAL TO BANKCALL, EXCEPT THAT THE CADR ARRIVES IN A.
000031:
000032:    5212           54001        SWCALL             TS       L
000033:    5213           22004                           LXCH     FBANK                                 #  SWITCH BANKS, SAVING RETURN.
000034:    5214           75337                           MASK     LOW10                                 #  GET SUB-ADDRESS OF CADR.
000035:    5215           56002                           XCH      Q                                     #  A,L NOW CONTAINS DP RETURN.
000036:    5216           52124                           DXCH     BUF2                                  #  RESTORING INPUTS IF THIS IS A BANKCALL.
000037:    5217           50002                           INDEX    Q
000038:    5220           02000                           TC       10000                                 #  SETTING Q TO SWRETURN.
000039:
000040:    5221           56124        SWRETURN           XCH      BUF2       +1                         #  COMES HERE TO RETURN TO CALLER. C(A,L)
000041:    5222           56004                           XCH      FBANK                                 #  ARE PRESERVED FOR RETURN.
000042:    5223           56124                           XCH      BUF2       +1
000043:    5224           00123                           TC       BUF2
000044:
000045:                                                                                                  #           THE FOLLOWING ROUTINE CAN BE USED AS A UNILATERAL JUMP WITH C(A,L) PRESERVED AND THE CADR IMMEDIATELY
000046:                                                                                                  #  FOLLOWING THE TC POSTJUMP INSTRUCTION.
000047:
000048:    5225           56002        POSTJUMP           XCH      Q                                     #  SAVE INCOMING C(A).
000049:    5226           50000                           INDEX    A                                     #  GET CADR.
000050:    5227           30000                           CA       0
000051:
000052:                                                                                                  #           BANKJUMP IS THE SAME AS POSTJUMP, EXCEPT THAT THE CADR ARRIVES IN A.
000053:
000054:    5230           54004        BANKJUMP           TS       FBANK
000055:    5231           75337                           MASK     LOW10
000056:    5232           56002                           XCH      Q                                     #  RESTORING INPUT C(A) IF THIS WAS A
000057:    5233           50002        Q+10000            INDEX    Q                                     #  POSTJUMP.
000058:    5234           12000        BNKJUP+4           TCF      10000
000059:


000061:                                                                                                  #           THE FOLLOWING ROUTINE GETS THE RETURN CADR SAVED BY SWCALL OR BANKCALL AND LEAVES IT IN A.
000062:
000063:    5235           35337        MAKECADR           CAF      LOW10
000064:    5236           70123                           MASK     BUF2
000065:    5237           60124                           AD       BUF2       +1
000066:    5240           00002                           TC       Q
000067:
000068:
000069:                                                                                                  #           THE FOLLOWING ROUTINE OBTAINS THE ONE WORD AT THE ADDRESS ARRIVING IN A, AND LEAVES IT IN A.  ENTER
000070:                                                                                                  #  WITH THE CADR IN A, AT DATACALL WITH JUNK IN L IF NOT SWITCHING SUPERBANKS, OTHERWISE AT SUPDACAL WITH SUPERBANK
000071:                                                                                                  #  BITS IN BITS 7-5 IN L (BITS 15-8 AND 4-1 MAY BE JUNK).  DEBRIS = MTEMP.  INHINTS FOR ABOUT 165 MUSEC.
000072:
000073:    5241           54001        DATACALL           TS       L                                     #  SAVE CADR (SOLE INPUT HERE).
000074:    5242           00006                           EXTEND
000075:    5243           00007                           READ     SUPERBNK                              #  THIS PROLOGUE MAKES SUPERSWITCH VACUOUS.
000076:    5244           56001                           XCH      L                                     #  CADR IN A, SUPERBITS IN L.
000077:
000078:    5245           54125        SUPDACAL           TS       MPTEMP
000079:    5246           56004                           XCH      FBANK                                 #  SET FBANK FOR DATA.
000080:    5247           00006                           EXTEND
000081:    5250           04007                           ROR      SUPERBNK                              #  SAVE FBANK IN BITS 15-11, AND
000082:    5251           56125                           XCH      MPTEMP                                #   SUPERBANK IN BITS  7-5.
000083:    5252           75337                           MASK     LOW10
000084:    5253           56001                           XCH      L                                     #  SAVE REL. ADR. IN BANK, FETCH SUPERBITS.
000085:    5254           00004                           INHINT                                         #  BECAUSE RUPT DOES NOT SAVE SUPERBANK.
000086:    5255           00006                           EXTEND
000087:    5256           01007                           WRITE    SUPERBNK                              #  SET SUPERBANK FOR DATA.
000088:    5257           50001                           INDEX    L
000089:    5260           32000                           CA       10000
000090:
000091:    5261           56125                           XCH      MPTEMP                                #  SAVE 1ST WD, FETCH OLD FBANK AND SBANK.
000092:    5262           00006                           EXTEND
000093:    5263           01007                           WRITE    SUPERBNK                              #  RESTORE SUPERBANK.
000094:    5264           00003                           RELINT
000095:    5265           54004                           TS       FBANK                                 #  RESTORE FBANK.
000096:    5266           30125                           CA       MPTEMP                                #  RECOVER FIRST WORD OF DATA.
000097:    5267           00002                           RETURN                                         #  24 WDS. DATACALL 516 MU, SUPDACAL 432 MU
000098:


000100:                                                                                                  #           THE FOLLOWING ROUTINES ARE IDENTICAL TO BANKCALL AND SWCALL EXCEPT THAT THEY ARE USED IN INTERRUPT.
000101:
000102:    5270           52073        IBNKCALL           DXCH     RUPTREG3                              #  USES RUPTREG3,4 FOR DP RETURN ADDRESS.
000103:    5271           50002                           INDEX    Q
000104:    5272           30000                           CAF      0
000105:    5273           24002                           INCR     Q
000106:
000107:    5274           54001        ISWCALL            TS       L
000108:    5275           22004                           LXCH     FBANK
000109:    5276           75337                           MASK     LOW10
000110:    5277           56002                           XCH      Q
000111:    5300           52073                           DXCH     RUPTREG3
000112:    5301           50002                           INDEX    Q
000113:    5302           02000                           TC       10000
000114:
000115:    5303           56073        ISWRETRN           XCH      RUPTREG4
000116:    5304           56004                           XCH      FBANK
000117:    5305           56073                           XCH      RUPTREG4
000118:    5306           00072                           TC       RUPTREG3
000119:


000121:                                                                                                  #           THE FOLLOWING SUBROUTINES PROVIDE TO THE BASIC PROGRAMMER ENTRY INTO AND RETURN FROM ANY INTERPRETIVE
000122:                                                                                                  #  CODING WHICH DOES NOT USE THE ENTERING CONTENTS OF Q AND WHICH RETURNS VIA DANZIG. C(A) AND C(L) ARE SAVED.
000123:
000124:                                                                                                  #  USER'S RESPONSIBILITY TO FILL IN ADVANCE THE APPROPRIATE OPERAND AND ADDRESS REGISTERS USED BY THE
000125:                                                                                                  #  INTERPRETIVE CODING SUCH AS MPAC, BUF, ADDRWD, ETC.; AND TO CONFIRM THAT THE INTERPRETIVE CODING MEETS THE
000126:                                                                                                  #  ABOVE RESTRICTIONS WITH RESPECT TO Q AND DANZIG.
000127:
000128:                                                                                                  #  USEPRET AND USPRCADR MUST NOT BE USED IN INTERRUPT.
000129:
000130:                                                                                                  #  1. USEPRET ACCESSES INTERPRETIVE CODING WHICH CAN BE ENTERED WITHOUT CHANGING FBANK.
000131:                                                                                                  #     THE CALLING SEQUENCE IS AS FOLLOWS:
000132:
000133:                                                                                                  #                                          L         TC     USEPRET
000134:                                                                                                  #                                          L+1       TC,TCF INTPRETX       TC,TCF MEANS TC OR TCF
000135:                                                                                                  #                                                                          INTPRETX IS THE INTERPRETIVE CODING
000136:                                                                                                  #                                                                          RETURN IS TO L+2
000137:
000138:                                                                                                  #  2. USPRCADR ACCESSES INTERPRETIVE CODING IN OTHER THAN THE USER'S FBANK. THE CALLING SEQUENCE IS AS FOLLOWS:
000139:
000140:                                                                                                  #                                          L         TC     USPRCADR
000141:                                                                                                  #                                          L+1       CADR   INTPRETX       INTPRETX IS THE INTERPRETIVE CODING
000142:                                                                                                  #                                                                          RETURN IS TO L+2
000143:
000144:    5307           56002        USEPRET            XCH      Q                                     #  FETCH Q, SAVING A
000145:    5310           54154                           TS       LOC                                   #  L+1 TO LOC
000146:    5311           30006                           CA       BBANK
000147:    5312           54155                           TS       BANKSET                               #  USER'S BBANK TO BANKSET
000148:    5313           37754                           CA       BIT8
000149:    5314           54023                           TS       EDOP                                  #  EXIT INSTRUCTION TO EDOP
000150:    5315           30002                           CA       Q                                     #  RETRIEVE ORIGINAL A
000151:    5316           00154                           TC       LOC
000152:
000153:    5317           54154        USPRCADR           TS       LOC                                   #  SAVE A
000154:    5320           37754                           CA       BIT8
000155:    5321           54023                           TS       EDOP                                  #  EXIT INSTRUCTION TO EDOP
000156:    5322           30006                           CA       BBANK
000157:    5323           54155                           TS       BANKSET                               #  USER'S BBANK TO BANKSET
000158:    5324           50002                           INDEX    Q
000159:    5325           30000                           CA       0
000160:    5326           54004                           TS       FBANK                                 #  INTERPRETIVE BANK TO FBANK
000161:    5327           75337                           MASK     LOW10                                 #  YIELDS INTERPRETIVE RELATIVE ADDRESS
000162:    5330           56002                           XCH      Q                                     #  INTERPRETIVE ADDRESS TO Q, FETCHING L+1
000163:    5331           56154                           XCH      LOC                                   #  L+1 TO LOC, RETRIEVING ORIGINAL A
000164:    5332           15233                           TCF      Q+10000
000165:


000167:                                                                                                  #  THERE ARE FOUR POSSIBLE SETTINGS FOR CHANNEL 07. (CHANNEL 07 CONTAINS THE SUPERBANK SETTING.)
000168:                                                                                                  #                                            PSEUDO-FIXED     OCTAL PSEUDO
000169:                                                                                                  #  SUPERBANK     SETTING     S-REG. VALUE    BANK NUMBERS     ADDRESSES
000170:                                                                                                  #  ---------     -------     ------------     ------------     ------------
000171:
000172:                                                                                                  #  SUPERBANK 3     0XX       2000 - 3777        30 - 37       70000 - 107777   (WHERE XX CAN BE ANYTHING AND
000173:                                                                                                  #                                                                              WILL USUALLY BE SEEN AS 11)
000174:                                                                                                  #  SUPERBANK 4     100       2000 - 3777        40 - 47       110000 - 127777  (AS FAR AS IT CAN BE SEEN,
000175:                                                                                                  #                                                                              ONLY BANKS 40-43 WILL EVER BE
000176:                                                                                                  #                                                                              AND ARE PRESENTLY AVAILABLE)
000177:                                                                                                  #  SUPERBANK 5     101       2000 - 3777        50 - 57       130000 - 147777  (PRESENTLY NOT AVAILABLE TO
000178:                                                                                                  #                                                                              THE USER)
000179:                                                                                                  #  SUPERBANK 6     110       2000 - 3777        60 - 67       150000 - 167777  (PRESENTLY NOT AVAILABLE TO
000180:                                                                                                  #                                                                              THE USER)
000181:                                                                                                  #  ***  THIS ROUTINE MAYBE CALLED BY ANY PROGRAM LOCATED IN BANKS 00 - 27.  I.E., NO PROGRAM LIVING IN ANY
000182:                                                                                                  #  SUPERBANK SHOULD USE SUPERSW. ***
000183:
000184:                                                                                                  #  SUPERSW MAY BE CALLED IN THIS FASHION:
000185:
000186:                                                                                                  #           CAF     ABBCON          WHERE  --  ABBCON   BBCON  SOMETHIN  --
000187:                                                                                                  #           TCR     SUPERSW         (THE SUPERBNK BITS ARE IN THE BBCON)
000188:                                                                                                  #           ...       ...
000189:                                                                                                  #            .         .
000190:                                                                                                  #            .         .
000191:
000192:                                                                                                  #  OR IN THIS FASHION:
000193:
000194:                                                                                                  #           CAF     SUPERSET        WHERE SUPERSET IS ONE OF THE FOUR AVAILABLE
000195:                                                                                                  #           TCR     SUPERSW         SUPERBANK BIT CONSTANTS:
000196:                                                                                                  #           ...       ...                                   SUPER011 OCTAL  60
000197:                                                                                                  #            .         .                                    SUPER100 OCTAL 100
000198:                                                                                                  #            .         .                                    SUPER101 OCTAL 120
000199:                                                                                                  #                                                           SUPER110 OCTAL 140
000200:
000201:    5333           00006        SUPERSW            EXTEND
000202:    5334           01007                           WRITE    SUPERBNK                              #  WRITE BITS 7-6-5 OF THE ACCUMULATOR INTO
000203:                                                                                                  #  CHANNEL 07
000204:    5335           00002                           TC       Q                                     #  TC TO INSTRUCTION FOLLOWING
000205:                                                                                                  #    TC  SUPERSW
000206:

End of include-file INTER-BANK_COMMUNICATION.agc.  Parent file is MAIN.agc


