
Source Code


000002:                                                                                                  ## Copyright:    Public domain.
000003:                                                                                                  ## Filename:     KALCMANU_STEERING.agc
000004:                                                                                                  ## Purpose:      A module for revision 0 of BURST120 (Sunburst). It
000005:                                                                                                  ##               is part of the source code for the Lunar Module's
000006:                                                                                                  ##               (LM) Apollo Guidance Computer (AGC) for Apollo 5.
000007:                                                                                                  ## Assembler:    yaYUL
000008:                                                                                                  ## Contact:      Ron Burkey <info@sandroid.org>.
000009:                                                                                                  ## Website:      www.ibiblio.org/apollo/index.html
000010:                                                                                                  ## Mod history:  2016-09-30 RSB  Created draft version.
000011:                                                                                                  ##               2016-10-22 MAS  Transcribed.
000012:                                                                                                  ##               2016-10-31 RSB  Typos.
000013:                                                                                                  ##               2016-11-01 RSB  More typos.
000014:


000016:                                                                                                  #  GENERATION OF STEERING COMMANDS FOR DIGITAL AUTOPILOT FREE FALL MANEUVERS
000017:
000018:                                                                                                  #  NEW COMMANDS WILL BE GENERATED EVERY ONE SECOND DURING THE MANEUVER
000019:
000020: 34,3476  E3,1605                                  EBANK=   TTEMP
000021:
000022: 34,3476           06112        NEWDELHI           TC       INTPRET
000023: 34,3477           75160                           AXC,1    AXC,2
000024: 34,3500           01535                                    MIS                                   #  COMPUTE THE NEW MATRIX FROM S/C TO
000025: 34,3501           01557                                    KEL                                   #  STABLE MEMBER AXES
000026: 34,3502           77624                           CALL
000027: 34,3503           73417                                    MXM3
000028: 34,3504           45575                           VLOAD    STADR
000029: 34,3505           52225                           STOVL    MIS        +12D                       #  CALCULATE NEW DESIRED CDU ANGLES
000030: 34,3506           77626                           STADR
000031: 34,3507           52233                           STOVL    MIS        +6D
000032: 34,3510           77626                           STADR
000033: 34,3511           76241                           STORE    MIS
000034: 34,3512           45160                           AXC,1    CALL
000035: 34,3513           01535                                    MIS
000036: 34,3514           70711                                    DCMTOCDU                              #  PICK UP THE NEW CDU ANGLES FROM MATRIX
000037: 34,3515           77634                           RTB
000038: 34,3516           33526                                    V1STO2S
000039: 34,3517           01602                           STORE    NCDU                                  #  NEW CDU ANGLES
000040: 34,3520           77414                           BONCLR   EXIT
000041: 34,3521           01202                                    32D
000042: 34,3522           71602                                    MANUSTAT                              #  TO START MANEUVER
000043: 34,3523           37762                           CAF      TWO                                   #           +0 OTHERWISE
000044: 34,3524           55653        INCRDCDU           TS       SPNDX
000045: 34,3525           51653                           INDEX    SPNDX
000046: 34,3526           31532                           CA       BCDU                                  #  INITIAL CDU ANGLES
000047: 34,3527           00006                           EXTEND                                         #  OR PREVIOUS DESIRED CDU ANGLES
000048: 34,3530           51653                           INDEX    SPNDX
000049: 34,3531           21601                           MSU      NCDU
000050: 34,3532           00006                           EXTEND
000051: 34,3533           73601                           MP       DT/TAU
000052: 34,3534           10000                           CCS      A                                     #  CONVERT TO 2S COMPLEMENT
000053: 34,3535           67763                           AD       ONE
000054: 34,3536           13540                           TCF      +2
000055: 34,3537           40000                           COM
000056: 34,3540           51653                           INDEX    SPNDX
000057: 34,3541           54771                           TS       DELDCDU                               #  ANGLE INCREMENTS TO BE ADDED TO
000058: 34,3542           51653                           INDEX    SPNDX                                 #  CDUXD, CDUYD, CDUZD EVERY TENTH SECOND
000059: 34,3543           31601                           CA       NCDU                                  #  BY LEM DAP
000060: 34,3544           51653                           INDEX    SPNDX
000061: 34,3545           57532                           XCH      BCDU
000062: 34,3546           51653                           INDEX    SPNDX
000063: 34,3547           54766                           TS       CDUXD
000064: 34,3550           11653                           CCS      SPNDX
000065: 34,3551           13524                           TCF      INCRDCDU                              #  LOOP FOR THREE AXES
000066:


000068:                                                                                                  #  COMPARE PRESENT TIME WTIH TIME TO TERMINATE MANEUVER
000069:
000070: 34,3552           00006        TMANUCHK           EXTEND
000071: 34,3553           40025                           DCS      TIME2
000072: 34,3554           53606                           DXCH     TTEMP
000073: 34,3555           00006                           EXTEND
000074: 34,3556           31645                           DCA      TM
000075: 34,3557           21606                           DAS      TTEMP                                 #  TM+T0-1-T
000076: 34,3560           11605                           CCS      TTEMP
000077: 34,3561           13642                           TCF      CONTMANU                              #  (TM+T0)-T G 164 SEC
000078: 34,3562           13564                           TCF      +2
000079: 34,3563           13640                           TCF      OVERMANU                              #  (TM+T0)-T L -164 SEC
000080: 34,3564           11606                           CCS      TTEMP      +1
000081: 34,3565           13642                           TCF      CONTMANU                              #  (TM+T0)-T G 1 SEC
000082: 34,3566           13570                           TCF      MANUOFF                               #  (TM+T0)-T E 1 SEC
000083: 34,3567           40000                           COM                                            #  (TM+T0)-T L 1 SEC
000084: 34,3570           63637        MANUOFF            AD       ONESEK     +1                         #  (TM+T0)-T E 1 SEC
000085: 34,3571           00006                           EXTEND
000086: 34,3572           63640                           BZMF     OVERMANU                              #  THIS IS A SAFETY PLAY
000087: 34,3573           00004        MANUSTAL           INHINT                                         #  PREPARE TO STOP THE MANEUVER
000088: 34,3574           05663                           TC       WAITLIST
000089: 34,3575  E3,1605                                  EBANK=   TTEMP
000090: 34,3575           03666 70063                     2CADR    MANUSTOP
000091:
000092: 34,3577           00003                           RELINT
000093: 34,3600           15567                           TCF      ENDOFJOB
000094:
000095: 34,3601           03146        DT/TAU             DEC      .1
000096:
000097: 34,3602           77776        MANUSTAT           EXIT                                           #  INITIALIZATION ROUTINE
000098: 34,3603           00006                           EXTEND                                         #  FOR AUTOMATIC MANEUVERS
000099: 34,3604           30025                           DCA      TIME2
000100: 34,3605           21645                           DAS      TM                                    #  TM+TO    MANEUVER COMPLETION TIME
000101: 34,3606           00006                           EXTEND
000102: 34,3607           43637                           DCS      ONESEK
000103: 34,3610           21645                           DAS      TM                                    #  (TM+TO)-1
000104: 34,3611           00004                           INHINT
000105: 34,3612           31634                           CA       BRATE                                 #  X-AXIS MANEUVER RATE
000106: 34,3613           54774                           TS       OMEGAPD
000107: 34,3614           31636                           CA       BRATE      +2                         #  Y-AXIS MANEUVER RATE
000108: 34,3615           54775                           TS       OMEGAQD
000109: 34,3616           31640                           CA       BRATE      +4                         #  Z-AXIS MANEUVER RATE
000110: 34,3617           54776                           TS       OMEGARD
000111:
000112: 34,3620           00006                           EXTEND
000113: 34,3621           30034                           DCA      CDUY
000114: 34,3622           52770                           DXCH     CDUYD
000115: 34,3623           30032                           CAE      CDUX
000116: 34,3624           54766                           TS       CDUXD
000117: 34,3625           05270                           TC       IBNKCALL


000119: 34,3626           40046                           FCADR    SETMINDB
000120: 34,3627           00003                           RELINT
000121: 34,3630           30025                           CA       TIME1
000122: 34,3631           63637                           AD       ONESEK     +1
000123: 34,3632           57604                           XCH      NEXTIME
000124: 34,3633           06060                           TC       FLAG2UP                               #  SET BIT 11 OF FLAGWRD2
000125: 34,3634           02000                           OCT      2000                                  #  TO SIGNAL KALCMANU IN PROCESS
000126: 34,3635           13523                           TCF      INCRDCDU   -1
000127:
000128: 34,3636           00000        ONESEK             DEC      0          B-14
000129: 34,3637           00144                           DEC      100        B-14
000130:
000131: 34,3640           37763        OVERMANU           CAF      ONE                                   #  SAFETY PLAY
000132: 34,3641           13573                           TCF      MANUSTAL
000133:
000134: 34,3642           40025        CONTMANU           CS       TIME1                                 #  RESET FOR NEXT DCDU UPDATE
000135: 34,3643           61604                           AD       NEXTIME
000136: 34,3644           10000                           CCS      A
000137: 34,3645           67763                           AD       ONE
000138: 34,3646           13651                           TCF      MANUCALL
000139: 34,3647           67745                           AD       NEGMAX
000140: 34,3650           40000                           COM
000141: 34,3651           00004        MANUCALL           INHINT                                         #  CALL FOR NEXT UPDATE VIA WAITLIST
000142: 34,3652           05663                           TC       WAITLIST
000143: 34,3653  E3,1605                                  EBANK=   TTEMP
000144: 34,3653           03661 70063                     2CADR    UPDTCALL
000145:
000146: 34,3655           00003                           RELINT
000147: 34,3656           33637                           CAF      ONESEK     +1                         #  INCREMENT TIME FOR NEXT UPDATE
000148: 34,3657           27604                           ADS      NEXTIME
000149: 34,3660           15567                           TCF      ENDOFJOB
000150:
000151:
000152:
000153: 34,3661           35655        UPDTCALL           CAF      PRIO34                                #  SATELLITE PROGRAM TO CALL FOR UPDATE
000154: 34,3662           05516                           TC       FINDVAC                               #  OF STEERING COMMANDS
000155: 34,3663  E3,1605                                  EBANK=   TTEMP
000156: 34,3663           03476 70063                     2CADR    NEWDELHI
000157:
000158: 34,3665           05727                           TC       TASKOVER
000159:


000161:                                                                                                  #  ROUTINE FOR TERMINATING AUTOMATIC MANEUVERS
000162:
000163: 34,3666           37767        MANUSTOP           CAF      ZERO                                  #  ZERO MANEUVER RATES
000164: 34,3667           54773                           TS       DELDCDU2
000165: 34,3670           54776                           TS       OMEGARD
000166: 34,3671           54772                           TS       DELDCDU1
000167: 34,3672           54775                           TS       OMEGAQD
000168: 34,3673           31633                           CA       CPSI                                  #  SET DESIRED GIMBAL ANGLES TO
000169: 34,3674           54770                           TS       CDUZD                                 #  DESIRED FINAL GIMBAL ANGLES
000170: 34,3675           31632                           CA       CTHETA
000171: 34,3676           54767                           TS       CDUYD
000172: 34,3677           30076                           CA       STATE      +2                         #  CHECK TO SEE IF A FINAL YAW NECESSARY
000173: 34,3700           77746                           MASK     BIT14
000174: 34,3701           00006                           EXTEND
000175: 34,3702           13714                           BZF      KALCROLL
000176: 34,3703           31631        ENDROLL            CA       CPHI                                  #  NO FINAL YAW
000177: 34,3704           54766                           TS       CDUXD
000178: 34,3705           37767                           CAF      ZERO
000179: 34,3706           54774                           TS       OMEGAPD                               #  I.E. MANEUVER DID NOT GO THRU
000180: 34,3707           54771                           TS       DELDCDU                               #  GIMBAL LOCK ORIGINALLY
000181: 34,3710           06076        GOODMANU           TC       FLAG2DWN                              #  RESET BIT 11 OF FLAGWRD2 TO SIGNAL END
000182: 34,3711           02000                           OCT      2000                                  #  OF KALCMANU
000183: 34,3712           05225                           TC       POSTJUMP                              #  RETURN UNDER WAITLIST VIA GOODEND
000184: 34,3713           73520                           CADR     CHKAKS
000185:
000186: 35,3520                                           BANK     35
000187: 35,3520  E3,1605                                  EBANK=   TTEMP
000188: 35,3520           37762        CHKAKS             CAF      TWO
000189: 35,3521           55653        AKLOOP             TS       SPNDX                                 #  CHECK THE MAGNITUDE OF THE ATTITUDE
000190: 35,3522           50000                           INDEX    A                                     #  ERROR ON COMPLETION OF A KALCMANU
000191: 35,3523           30766                           CA       CDUXD                                 #  SUPERVISED MANEUVER
000192: 35,3524           00006                           EXTEND
000193: 35,3525           51653                           INDEX    SPNDX                                 #  I.E.   CDUD - CDU
000194: 35,3526           20032                           MSU      CDUX
000195: 35,3527           10000                           CCS      A                                     #  IF THE MAGNITUDE OF THE ERROR EXCEEDS
000196: 35,3530           63545                           AD       =-5DEG                                #  5 DEGREES ON ANY AXIS DISPLAY AN ALARM
000197: 35,3531           13533                           TCF      CHECKASG                              #  INDICATING THAT SPACECRAFT MAY NOT HAVE
000198: 35,3532           63545                           AD       =-5DEG                                #  ACHIEVED THE DESIRED ATTITUDE.
000199: 35,3533           00006        CHECKASG           EXTEND
000200: 35,3534           63540                           BZMF     AKOK
000201: 35,3535           04755                           TC       ALARM
000202: 35,3536           01412                           OCT      01412
000203: 35,3537           13542                           TCF      ENDKMANU
000204:
000205: 35,3540           11653        AKOK               CCS      SPNDX
000206: 35,3541           13521                           TCF      AKLOOP
000207:
000208: 35,3542           36311        ENDKMANU           CAF      THREE                                 #  TERMINATE KALCMANU VIA GOODEND
000209: 35,3543           05225                           TC       POSTJUMP
000210: 35,3544           26720                           CADR     GOODEND
000211:


000213: 35,3545           77070        =-5DEG             DEC      -455       B-14                       #  =-5 DEGREES SCALED 180 DEG
000214:
000215:
000216:
000217: 34,3714                                           BANK     34
000218: 34,3714  E3,1605                                  EBANK=   TTEMP
000219: 34,3714           30076        KALCROLL           CA       STATE      +2                         #  STATE SWITCH NO. 33
000220: 34,3715           77750                           MASK     BIT12                                 #  0(OFF) = PERFORM A FINAL YAW
000221: 34,3716           00006                           EXTEND                                         #           IF NECESSARY
000222: 34,3717           13721                           BZF      DOROLL                                #  1(ON) = IGNORE ANY FINAL YAW
000223: 34,3720           13705                           TCF      ENDROLL    +2
000224: 34,3721           31631        DOROLL             CA       CPHI
000225: 34,3722           00006                           EXTEND                                         #  PERFORM A FINAL ROLL  TO
000226: 34,3723           20766                           MSU      CDUXD                                 #  COMPLETE AUTOMATIC MANEUVER
000227: 34,3724           00006                           EXTEND
000228: 34,3725           63735                           BZMF     FROLLNEG
000229: 34,3726           54001        FROLLPOS           TS       L
000230: 34,3727           33754                           CA       ROLLRATE
000231: 34,3730           54774                           TS       OMEGAPD
000232: 34,3731           43755                           CS       DELFROLL
000233: 34,3732           67763                           AD       ONE
000234: 34,3733           54771                           TS       DELDCDU
000235: 34,3734           13743                           TCF      ROLLSTAL
000236: 34,3735           40000        FROLLNEG           COM
000237: 34,3736           54001                           TS       L
000238: 34,3737           43754                           CS       ROLLRATE
000239: 34,3740           54774                           TS       OMEGAPD
000240: 34,3741           33755                           CA       DELFROLL
000241: 34,3742           54771                           TS       DELDCDU
000242: 34,3743           30001        ROLLSTAL           CA       L                                     #  ABS(CPHI-CDUXD)
000243: 34,3744           00006                           EXTEND
000244: 34,3745           73756                           MP       INVRATE
000245: 34,3746           00006                           EXTEND
000246: 34,3747           63703                           BZMF     ENDROLL
000247: 34,3750           05663                           TC       WAITLIST
000248: 34,3751  E3,1605                                  EBANK=   TTEMP
000249: 34,3751           03703 70063                     2CADR    ENDROLL
000250:
000251: 34,3753           05727                           TC       TASKOVER
000252:
000253: 34,3754           01320        ROLLRATE           DEC      720        B-14                       #  = 1.98 DEGREES/SEC
000254: 34,3755           00022        DELFROLL           DEC      18         B-14                       #  MUST BE A WHOLE NUMBER
000255: 34,3756           21616        INVRATE            DEC      .555555

End of include-file KALCMANU_STEERING.agc.  Parent file is MAIN.agc


