
Source Code


000002:                                                                                                  ## Copyright:           Public domain.
000003:                                                                                                  ## Filename:    KALMAN_FILTER_FOR_LM_DAP.agc
000004:                                                                                                  ## Purpose:     A module for revision 0 of BURST120 (Sunburst). It
000005:                                                                                                  ##              is part of the source code for the Lunar Module's
000006:                                                                                                  ##              (LM) Apollo Guidance Computer (AGC) for Apollo 5.
000007:                                                                                                  ## Assembler:   yaYUL
000008:                                                                                                  ## Contact:     Ron Burkey <info@sandroid.org>.
000009:                                                                                                  ## Website:     www.ibiblio.org/apollo/index.html
000010:                                                                                                  ## Mod history: 2016-09-30 RSB  Created draft version.
000011:                                                                                                  ##              2016-10-17 MAS  Began.
000012:                                                                                                  ##              2016-10-18 MAS  Completed adaptation from Aurora 12 / transcription.
000013:                                                                                                  ##              2016-10-31 RSB  Typos
000014:                                                                                                  ##              2016-12-06 RSB  Comment-proofing via octopus/ProoferComments; changes
000015:                                                                                                  ##                              were made.
000016:


000018:                                                                                                  #  THE FOLLOWING T5RUPT ENTRY BEGINS THE PROGRAM WHICH INITIALIZES THE KALMAN FILTER AND SETS UP A P-AXIS RUPT TO
000019:                                                                                                  #  OCCUR 20 MS FROM ITS BEGINNING.
000020:
000021: 26,2713  E6,1542                                  EBANK=   DT
000022: 21,2000                                           BANK     21
000023: 21,2000           32402        FILTINIT           CAF      MS30F                                 #  RESET TIMER IMMEDIATELY -   DT = 30 MS
000024: 21,2001           54030                           TS       TIME5
000025:
000026: 21,2002           22016                           LXCH     BANKRUPT                              #  INTERRUPT LEAD IN (CONTINUED)
000027: 21,2003           00006                           EXTEND
000028: 21,2004           22012                           QXCH     QRUPT
000029:
000030: 21,2005           00006                           EXTEND                                         #  SET UP FOR P-AXIS RUPT
000031: 21,2006           32100                           DCA      PAX/FILT
000032: 21,2007           53001                           DXCH     T5ADR
000033:
000034: 21,2010           32014                           CAF      MOSTPASS                              #  SET UP TO PERMIT DT CALCULATION DURING
000035: 21,2011           55544                           TS       STEERADR                              #  KALMAN FILTER INITIALIZATION PASS.
000036:
000037: 21,2012           13675                           TCF      CLEARCH5                              #  TURN OFF Q,R-AXES RCS JETS.
000038:
000039: 21,2013           02322        FIRSTADR           GENADR   FILFIRST
000040:
000041:                                                                                                  #  THE FOLLOWING T5RUPT ENTRY BEGINS THE KALMAN FILTER PROGRAM.  THIS SECTION ALSO SETS UP A T5RUPT TO OCCUR 20 MS
000042:                                                                                                  #  FROM ITS BEGINNING AND SETS IT TO GO TO THE LOCATION AT THE TOP OF THE POST FILTER RUPT LIST.
000043:
000044: 21,2014           02060        MOSTPASS           GENADR   DTCALC                                #  WORD IN FILTPASS FOR THESE PASSES
000045:
000046: 21,2015           32402        FILTER             CAF      MS30F                                 #  RESET TIMER IMMEDIATELY -   DT = 30 MS
000047: 21,2016           54030                           TS       TIME5
000048:
000049: 21,2017           22016                           LXCH     BANKRUPT                              #  INTERRUPT LEAD IN (CONTINUED)
000050: 21,2020           00006                           EXTEND
000051: 21,2021           22012                           QXCH     QRUPT
000052:
000053: 21,2022           00006                           EXTEND                                         #  SET RUPT ADDRESS TO TOP OF
000054: 21,2023           31575                           DCA      PFRPTLST                              #  POST FILTER RUPT LIST
000055: 21,2024           53001                           DXCH     T5ADR
000056:
000057: 21,2025           41000                           CS       T5ADR                                 #  IF THE TRIM GIMBAL CONTROL RUPT IS NEXT,
000058: 21,2026           62406                           AD       GTS2CADR                              #  REDUCE THE LENGTH OF THIS TIME5 RUPT.
000059: 21,2027           00006                           EXTEND
000060: 21,2030           12032                           BZF      +2
000061: 21,2031           12034                           TCF      +3
000062: 21,2032           32401                           CAF      MS20F                                 #  RESET TIMER IMMEDIATELY - DT = 20MS
000063: 21,2033           54030                           TS       TIME5
000064:
000065: 21,2034           53575                           DXCH     PFRPTLST                              #  ROTATE 2CADR'S IN POST FILTER RUPT LIST
000066: 21,2035           53603                           DXCH     PFRPTLST   +6
000067: 21,2036           53601                           DXCH     PFRPTLST   +4


000069: 21,2037           53577                           DXCH     PFRPTLST   +2
000070: 21,2040           13703                           TCF      COUNTDWN                              #  DECREMENT PASSCTR
000071:
000072:                                                                                                  #  BEGIN THE KALMAN FILTER BY READING CDU ANGLES AND TIME.
000073:
000074: 21,2041           06013        FILSTART           TC       T6JOBCHK                              #  CHECK T6 CLOCK FOR P-AXIS ACTIVITY
000075:
000076: 21,2042           00006                           EXTEND
000077: 21,2043           30034                           DCA      CDUY                                  #  STORE CDUY AND CDUZ AT PI AND IN 2,S COM
000078: 21,2044           53541                           DXCH     STORCDUY
000079: 21,2045           00006                           EXTEND                                         #  BEGIN READING THE CLOCK TO GET TIME
000080: 21,2046           00004                           READ     4                                     #    INCREMENT.
000081: 21,2047           54001                           TS       L
000082: 21,2050           00006                           EXTEND
000083: 21,2051           06004                           RXOR     4                                     #  CHECK TO SEE IF CH 4 WAS IN TRANSITION
000084: 21,2052           00006                           EXTEND                                         #    WHEN IT WAS FIRST READ.
000085: 21,2053           12057                           BZF      +4                                    #  BRANCH IF TIME WAS THE SAME IN 2 READS.
000086: 21,2054           00006                           EXTEND
000087: 21,2055           00004                           READ     4
000088: 21,2056           54001                           TS       L                                     #  THIS TIME READ ALWAYS GIVES GOOD NO.
000089: 21,2057           01544                           TC       STEERADR                              #  SKIP DTCALC DURING INITIAL PASS
000090:
000091: 21,2060           40001        DTCALC             CS       L
000092: 21,2061           61543                           AD       DAPTIME                               #  A CONTAINS THE TIME DIFFERENCE (DT)
000093: 21,2062           23543                           LXCH     DAPTIME                               #    SINCE THE LAST FILTER.
000094: 21,2063           00006                           EXTEND
000095: 21,2064           62067                           BZMF     +3
000096: 21,2065           67744                           AD       NEG1/2                                #  THIS IS ADDING -1.0 TO -DT AND ACCOUNTS
000097: 21,2066           67744                           AD       NEG1/2                                #  FOR AN OVERFLOW INTO CHANNEL 5
000098:
000099:                                                                                                  #  SCALING OF DELTA T FOR KALMAN FILTER IS 1/8 SECOND.
000100:
000101: 21,2067           00006                           EXTEND                                         #  TIME NOW SCALED AT 5.12 SECONDS
000102: 21,2070           77755                           MP       BIT7                                  #  FIRST RESCALE TO 5.12/64
000103: 21,2071           42376                           CS       .64
000104: 21,2072           00006                           EXTEND                                         #  THEN RESCALE TO 5.12/(64*.64) OR
000105: 21,2073           70001                           MP       L                                     #  5.12/40.96 WHICH IS THE SAME AS
000106: 21,2074           13707                           TCF      TIMEDONE                              #  DT SCALED AT 1/8.  JUMP VIA STEERAD2.
000107:                                                                                                  #  SET UP FILTER WEIGHTING VECTOR FOR THIS FILTER PASS.
000108:
000109: 21,2075           11547                           CCS      WPOINTER                              #  TEST FOR WEIGHTING VECTOR STEADY-STATE
000110: 21,2076           12102                           TCF      MOVEWGTS                              #  POINTER NOT YET ZERO (MULTIPLE OF THREE)
000111: 21,2077  E6,1542                                  EBANK=   DT
000112: 21,2077           02255 34066  PAX/FILT           2CADR    PAXIS                                 #  (ROOM FOR 2CADR IN CCS HOLES)
000113:
000114: 21,2101           12113                           TCF      FLTZAXIS                              #  STEADY-STATE ALREADY, NO UPDATING AGAIN
000115:
000116: 21,2102           46311        MOVEWGTS           CS       THREE                                 #  SET UP POINTER FOR THIS PASS
000117: 21,2103           27547                           ADS      WPOINTER                              #  (NEVER GETS BELOW ZERO HERE)


000119: 21,2104           00006                           EXTEND                                         #  WPOINTER IS INDEX = 87 FIRST TIME HERE
000120: 21,2105           51547                           INDEX    WPOINTER                              #  AND IS DECREASED BY 3 EVERY FILTER PASS
000121: 21,2106           32413                           DCA      WVECTOR                               #  UNTIL THE STEADY-STATE IS REACHED.
000122: 21,2107           53551                           DXCH     W0                                    #  MOVE IN NEW W0,W1
000123: 21,2110           51547                           INDEX    WPOINTER
000124: 21,2111           32414                           CAF      WVECTOR    +2
000125: 21,2112           55552                           TS       W2                                    #  MOVE IN NEW W2
000126:
000127: 21,2113           37762        FLTZAXIS           CAF      TWO                                   #  SET UP INDEXER FOR D.P. PICKUP AND TO
000128: 21,2114           54066                           TS       QRCNTR                                #  INDICATE Z-AXIS FILTER PASS
000129:
000130: 21,2115           12121                           TCF      FLTYAXIS
000131:
000132: 21,2116           37767        GOYFILTR           CAF      ZERO                                  #  SET INDEXER FOR Y-AXIS
000133: 21,2117           54066                           TS       QRCNTR
000134:
000135: 21,2120           06013                           TC       T6JOBCHK                              #  CHECK T6 CLOCK FOR P-AXIS ACTIVITY
000136:
000137: 21,2121           50066        FLTYAXIS           INDEX    QRCNTR
000138: 21,2122           53554                           DXCH     CDUYFIL                               #  THETA IS D.P. SCALED AT 2 PI RADIANS
000139: 21,2123           52073                           DXCH     CDU
000140: 21,2124           50066                           INDEX    QRCNTR                                #    .
000141: 21,2125           53560                           DXCH     DCDUYFIL                              #  THETA IS D.P. SCALED AT PI/4 RAD/SEC
000142: 21,2126           52062                           DXCH     CDUDOT
000143: 21,2127           50066                           INDEX    QRCNTR                                #   ..                                 2
000144: 21,2130           53564                           DXCH     D2CDUYFL                              #  THETA IS D.P. SCALED AT PI/8 RAD/SEC
000145: 21,2131           52064                           DXCH     CDU2DOT
000146: 21,2132           50066                           INDEX    QRCNTR                                #   ...                        7       3
000147: 21,2133           31567                           CAE      Y3DOT                                 #  THETA IS S.P. SCALED AT PI/2 RAD/SEC
000148: 21,2134           57570                           XCH      CDU3DOT
000149:
000150:                                                                                                  #  NOTE THAT THE FILTERED VARIABLES ARE READ DESTRUCTIVELY FOR SPEED AND EFFICIENCY AND THAT Y3DOT IS NOT UPDATED,
000151:                                                                                                  #  SO IT MUST BE READ NON-DESTRUCTIVELY BUT NEED NOT BE RESTORED AFTER EACH KALMAN FILTER PASS.
000152:


000154:                                                                                                  #  INTEGRATION EXTRAPOLATION EQUATIONS:
000155:
000156: 21,2135           30063        KLMNFLTR           CAE      CDU2DOT                               #  A SCALED AT PI/8 (USE S.P.)
000157: 21,2136           00006                           EXTEND
000158: 21,2137           71542                           MP       DT                                    #  ADT SCALED AT PI/64 OR .5ADT AT PI/128
000159: 21,2140           00006                           EXTEND
000160: 21,2141           77752                           MP       BIT10                                 #  RESCALE BY RIGHT SHIFT 5
000161: 21,2142           60061                           AD       CDUDOT                                #  W + .5ADT SCALED AT PI/4
000162: 21,2143           00006                           EXTEND
000163: 21,2144           71542                           MP       DT                                    #  (W + .5ADT)DT SCALED AT PI/32
000164: 21,2145           00006                           EXTEND
000165: 21,2146           77753                           MP       BIT9                                  #  RESCALE BY RIGHT SHIFT 6 (KEEP D.P.)
000166: 21,2147           20073                           DAS      CDU                                   #  CDU = CDU + (W + .5ADT)DT SCALED AT 2PI
000167:
000168: 21,2150           31570                           CAE      CDU3DOT                               #  ADOT SCALED AT PI/2(7)
000169: 21,2151           00006                           EXTEND
000170: 21,2152           71542                           MP       DT                                    #  .5ADOTDT SCALED AT PI/2(11)
000171: 21,2153           54065                           TS       ITEMP5                                #  (SAVE FOR ALPHA INTEGRATION)
000172: 21,2154           00006                           EXTEND
000173: 21,2155           77755                           MP       BIT7                                  #  RESCALE BY RIGHT SHIFT 8
000174: 21,2156           60063                           AD       CDU2DOT                               #  A + .5ADOTDT SCALED AT PI/8
000175: 21,2157           00006                           EXTEND
000176: 21,2160           71542                           MP       DT                                    #  (A + .5ADOTDT)DT SCALED AT PI/64
000177: 21,2161           00006                           EXTEND
000178: 21,2162           77751                           MP       BIT11                                 #  RESCALE BY RIGHT SHIFT 4 (KEEP D.P.)
000179: 21,2163           20062                           DAS      CDUDOT                                #  W = W + (A + .5ADOTDT)DT SCALED AT PI/4
000180:
000181: 21,2164           30065                           CAE      ITEMP5                                #  ADOTDT SCALED AT PI/2(10) (FROM ABOVE)
000182: 21,2165           00006                           EXTEND
000183: 21,2166           77754                           MP       BIT8                                  #  RESCALE BY RIGHT SHIFT 7 (KEEP D.P.)
000184: 21,2167           20064                           DAS      CDU2DOT                               #  A = A + ADOTDT SCALED AT PI/8
000185:


000187:
000188:                                                                                                  #  WEIGHTING VECTOR ADJUSTMENT EQUATIONS:
000189:
000190: 21,2170           00006                           EXTEND                                         #  CONVERT CDU INTEGRATED VALUE FROM DOUBLE
000191: 21,2171           30073                           DCA      CDU                                   #  PRECISION SCALED AT 2PI IN ONES COMPLE-
000192: 21,2172           02307                           TC       ONETOTWO                              #  MENT TO SINGLE PRECISION SCALED AT PI
000193: 21,2173           10066                           CCS      QRCNTR
000194: 21,2174           50000                           INDEX    A                                     #  IN TWOS COMPLEMENT, THEN DIFFERENCE WITH
000195: 21,2175           31540                           CAE      STORCDUY
000196: 21,2176           00006                           EXTEND                                         #  STORED CDU REGISTER READING TO GET A
000197: 21,2177           20065                           MSU      ITEMP5                                #  SINGLE PRECISION ONES COMPLEMENT RESULT
000198: 21,2200           55545                           TS       DPDIFF                                #  SCALED AT PI RADIANS (UPPER HALF)
000199:
000200: 21,2201           40073                           CS       CDU        +1                         #  CREATE LOW ORDER WORD OF D.P. DIFFERENCE
000201: 21,2202           60000                           DOUBLE                                         #  ONES COMPLEMENT SCALED AT PI RADIANS AND
000202: 21,2203           57546                           XCH      DPDIFF     +1                         #  USE S.P. RESULT ABOVE AS HIGH ORDER WORD
000203:
000204: 21,2204           00006                           EXTEND                                         #  DPDIFF IS D.P. AT PI
000205: 21,2205           31546                           DCA      DPDIFF
000206: 21,2206           22065                           LXCH     ITEMP5                                #  SAVE LOW ORDER WORD FOR D.P. MULTIPLY
000207: 21,2207           00006                           EXTEND
000208: 21,2210           71550                           MP       W0                                    #  CDU = CDU + DPDIFF (D.P.) * W0 (S.P.)
000209: 21,2211           20073                           DAS      CDU
000210: 21,2212           30065                           CAE      ITEMP5                                #  W0 IS SCALED AT 2
000211: 21,2213           00006                           EXTEND                                         #  DPDIFF IS RESCALED TO PI
000212: 21,2214           71550                           MP       W0                                    #  W0*DPDIFF IS SCALED AT 2PI (AS CDU)
000213: 21,2215           26073                           ADS      CDU        +1
000214: 21,2216           54001                           TS       L
000215: 21,2217           12221                           TCF      +2
000216: 21,2220           26072                           ADS      CDU
000217:
000218: 21,2221           31545                           CAE      DPDIFF                                #  RESCALE DPDIFF TO PI/128
000219: 21,2222           00006                           EXTEND
000220: 21,2223           77754                           MP       BIT8                                  #  DPDIFF (D.P.) * 128
000221: 21,2224           22065                           LXCH     ITEMP5
000222: 21,2225           31546                           CAE      DPDIFF     +1
000223: 21,2226           00006                           EXTEND
000224: 21,2227           77754                           MP       BIT8
000225: 21,2230           60065                           AD       ITEMP5
000226: 21,2231           22065                           LXCH     ITEMP5
000227:
000228: 21,2232           00006                           EXTEND                                         #   .     .
000229: 21,2233           71551                           MP       W1                                    #  CDU = CDU + DPDIFF (D.P.) * W1 (S.P.)
000230: 21,2234           20062                           DAS      CDUDOT
000231: 21,2235           30065                           CAE      ITEMP5                                #  W1 IS SCALED AT 32
000232: 21,2236           00006                           EXTEND                                         #  DPDIFF IS RESCALED TO PI/128
000233: 21,2237           71551                           MP       W1                                    #  W1*DPDIFF IS SCALED AT PI/4 (AS CDUDOT)
000234: 21,2240           26062                           ADS      CDUDOT     +1
000235: 21,2241           54001                           TS       L
000236: 21,2242           12244                           TCF      +2
000237: 21,2243           26061                           ADS      CDUDOT
000238:


000240: 21,2244           31545                           CAE      DPDIFF                                #  RESCALE DPDIFF TO PI/64
000241: 21,2245           00006                           EXTEND
000242: 21,2246           77755                           MP       BIT7                                  #  DPDIFF (D.P.) * 64
000243: 21,2247           22065                           LXCH     ITEMP5
000244: 21,2250           31546                           CAE      DPDIFF     +1
000245: 21,2251           00006                           EXTEND
000246: 21,2252           77755                           MP       BIT7
000247: 21,2253           60065                           AD       ITEMP5
000248: 21,2254           22065                           LXCH     ITEMP5
000249:
000250: 21,2255           00006                           EXTEND                                         #   ..    ..
000251: 21,2256           71552                           MP       W2                                    #  CDU = CDU + DPDIFF (D.P.) * W2 (S.P.)
000252: 21,2257           20064                           DAS      CDU2DOT
000253: 21,2260           30065                           CAE      ITEMP5                                #  W2 IS SCALED AT 8
000254: 21,2261           00006                           EXTEND
000255: 21,2262           71552                           MP       W2                                    #  W2*DPDIFF IS SCALED AT PI/8 (AS CDU2DOT)
000256: 21,2263           26064                           ADS      CDU2DOT    +1
000257: 21,2264           54001                           TS       L
000258: 21,2265           12267                           TCF      +2
000259: 21,2266           26063                           ADS      CDU2DOT
000260:
000261:                                                                                                  #  RESTORE VARIABLES AND TEST FOR COMPLETION OR ADDITIONAL AXIS.
000262:
000263: 21,2267           52073        FILTAXIS           DXCH     CDU
000264: 21,2270           50066                           INDEX    QRCNTR                                #  THETA IS D.P. SCALED AT 2 PI RADIANS
000265: 21,2271           53554                           DXCH     CDUYFIL
000266: 21,2272           52062                           DXCH     CDUDOT                                #    .
000267: 21,2273           50066                           INDEX    QRCNTR                                #  THETA IS D.P. SCALED AT PI/4 RAD/SEC
000268: 21,2274           53560                           DXCH     DCDUYFIL
000269: 21,2275           52064                           DXCH     CDU2DOT                               #   ..                                 2
000270: 21,2276           50066                           INDEX    QRCNTR                                #  THETA IS D.P. SCALED AT PI/8 RAD/SEC
000271: 21,2277           53564                           DXCH     D2CDUYFL
000272:
000273: 21,2300           10066                           CCS      QRCNTR
000274: 21,2301           12116                           TCF      GOYFILTR                              #  IF 2, Y-AXIS STILL TO GO
000275:
000276: 21,2302           41000                           CS       T5ADR                                 #  IF THE TRIM GIMBAL CONTROL RUPT IS NEXT,
000277: 21,2303           62406                           AD       GTS2CADR                              #  DO THE Q,R-AXIS STATE TRANSFORMATIONS
000278: 21,2304           00006                           EXTEND                                         #  AND THE 20 MS STATE EXTRAPOLATION
000279: 21,2305           12603                           BZF      GIMBAL
000280: 21,2306           15733                           TCF      RESUME                                #  OTHERWISE, RESUME
000281:
000282:                                                                                                  #  SUBROUTINE FOR FILTER WHICH TAKES 1 COMPLEMENT NUMBER INTO A 2 COMP.
000283:
000284: 21,2307           20001        ONETOTWO           DDOUBL                                         #  SEE RTB OP CODES IN BANK 15 FOR NOTES ON
000285: 21,2310           10000                           CCS      A                                     #    THIS COMPUTATION.
000286: 21,2311           67763                           AD       ONE
000287: 21,2312           12314                           TCF      +2
000288: 21,2313           40000                           COM
000289: 21,2314           54065                           TS       ITEMP5


000291: 21,2315           12321                           TCF      +4
000292: 21,2316           50000                           INDEX    A
000293: 21,2317           37744                           CAF      LIMITS
000294: 21,2320           26065                           ADS      ITEMP5
000295: 21,2321           00002                           TC       Q                                     #  RETURN
000296:
000297:                                                                                                  #  THIS PROGRAM INITIALIZES THE KALMAN FILTER PROGRAM.
000298:
000299: 21,2322           23543        FILFIRST           LXCH     DAPTIME                               #  INITIALIZE TIME.
000300: 21,2323           32400                           CAF      POINT=90                              #  INITIALIZE THE WEIGHTING VECTOR POINTER
000301: 21,2324           55547                           TS       WPOINTER
000302: 21,2325           32014                           CAF      MOSTPASS                              #  SET UP FOR NEXT PASSES
000303: 21,2326           55544                           TS       STEERADR
000304: 21,2327           00006                           EXTEND                                         #  SET UP POST FILTER RUPT LIST
000305: 21,2330           32404                           DCA      DGTSFADR
000306: 21,2331           53575                           DXCH     PFRPTLST
000307: 21,2332           00006                           EXTEND
000308: 21,2333           32100                           DCA      PAX/FILT
000309: 21,2334           53577                           DXCH     PFRPTLST   +2
000310: 21,2335           00006                           EXTEND
000311: 21,2336           32100                           DCA      PAX/FILT
000312: 21,2337           53603                           DXCH     PFRPTLST   +6
000313: 21,2340           00006                           EXTEND
000314: 21,2341           32407                           DCA      GTS2CADR
000315: 21,2342           53601                           DXCH     PFRPTLST   +4
000316: 21,2343           00006                           EXTEND                                         #  CHANGE POST P FILTER TO FILTER
000317: 21,2344           32411                           DCA      POSTPFIL
000318: 21,2345           53573                           DXCH     PFILTADR
000319:
000320: 21,2346           31540                           CAE      STORCDUY
000321: 21,2347           00006                           EXTEND
000322: 21,2350           77746                           MP       BIT14
000323: 21,2351           53554                           DXCH     CDUYFIL                               #  INITIALIZE THE STATE VECTOR TO CDU VALUE
000324: 21,2352           31541                           CAE      STORCDUZ
000325: 21,2353           00006                           EXTEND
000326: 21,2354           77746                           MP       BIT14
000327: 21,2355           53556                           DXCH     CDUZFIL
000328: 21,2356           37767                           CA       ZERO
000329: 21,2357           12363                           TCF      +4                                    #  RATES INITIALIZED BY RATEINIT.
000330: 21,2360           55560                           TS       DCDUYFIL   +1
000331: 21,2361           55561                           TS       DCDUZFIL
000332: 21,2362           55562                           TS       DCDUZFIL   +1
000333: 21,2363           55563                           TS       D2CDUYFL
000334: 21,2364           55564                           TS       D2CDUYFL   +1
000335: 21,2365           55565                           TS       D2CDUZFL
000336: 21,2366           55566                           TS       D2CDUZFL   +1
000337: 21,2367           55567                           TS       Y3DOT
000338: 21,2370           55571                           TS       Z3DOT
000339: 21,2371           55523                           TS       NEGUQ
000340: 21,2372           55525                           TS       NEGUR


000342: 21,2373           55733                           TS       QACDOTMP                              #  INITIALIZE TEMPORARY STORAGE FOR QACCDOT
000343: 21,2374           55735                           TS       RACDOTMP                              #  AND RACCDOT VALUES COMING FROM GTS.
000344: 21,2375           15733                           TCF      RESUME
000345:
000346:
000347:
000348: 21,2376           24366        .64                DEC      0.64000
000349: 21,2377           14000        BIT12-13           OCTAL    14000
000350: 21,2400           00132        POINT=90           DEC      90         B-14                       #  POINTER INITIALIZED ONE GROUP PAST END
000351: 21,2401           37776        MS20F              OCTAL    37776
000352: 21,2402           37775        MS30F              OCTAL    37775
000353: 21,2403  E6,1542                                  EBANK=   DT
000354: 21,2403           02544 42066  DGTSFADR           2CADR    DGTS
000355:
000356: 21,2405           02255        PAXISADR           GENADR   PAXIS
000357: 21,2406  E6,1542                                  EBANK=   DT
000358: 21,2406           02572 42066  GTS2CADR           2CADR    GTS
000359:
000360: 21,2410  E6,1542                                  EBANK=   DT
000361: 21,2410           02015 42066  POSTPFIL           2CADR    FILTER
000362:


000364:                                                                                                  #  THE KALMAN FILTER WEIGHTINF VECTORS ARE LISTED IN THE FOLLOWING TABLE ALONG WITH THE TIME FROM THE LAST FILTER
000365:                                                                                                  #  INITIALIZATION FOR WHICH THEY ARE TO BE USED.  (THE VECTORS ARE STORED IN ORDERED TRIPLES (W0,W1,W2) IN
000366:                                                                                                  #  DESCENDING ORDER IN TIME WITH THE STEADY STATE VALUES AT THE TOP.)
000367:
000368:                                                                                                  #  START CODING FOR MODULE 3 REMAKE, AUGUST 1967***START CODING FOR MODULE 3 REMAKE, AUGUST 1967*******************
000369:
000370:                                                                                                  #  WEIGHTING VECTOR SET :   07/28/67     9:07
000371:
000372:                                                                                                  #  THE COMPONENTS ARE SCALED AS FOLLOWS:
000373:                                                                                                  #           W0 : SCALED AT  2
000374:                                                                                                  #           W1 : SCALED AT 32
000375:                                                                                                  #           W2 : SCALED AT  8
000376:
000377: 21,2412           02352        WVECTOR            DEC      0.07679                               #  W0 AT RELATIVE TIME : 1.50 SECS. OR MORE
000378: 21,2413           00203                           DEC      0.00799                               #  W1 AT RELATIVE TIME : 1.50 SECS. OR MORE
000379: 21,2414           00665                           DEC      0.02665                               #  W2 AT RELATIVE TIME : 1.50 SECS. OR MORE
000380: 21,2415           04136                           DEC      0.13072                               #  W0 AT RELATIVE TIME : 1.45 SECONDS
000381: 21,2416           00553                           DEC      0.02213                               #  W1 AT RELATIVE TIME : 1.45 SECONDS
000382: 21,2417           03164                           DEC      0.10086                               #  W2 AT RELATIVE TIME : 1.45 SECONDS
000383: 21,2420           04231                           DEC      0.13435                               #  W0 AT RELATIVE TIME : 1.40 SECONDS
000384: 21,2421           00601                           DEC      0.02350                               #  W1 AT RELATIVE TIME : 1.40 SECONDS
000385: 21,2422           03423                           DEC      0.11054                               #  W2 AT RELATIVE TIME : 1.40 SECONDS
000386: 21,2423           04330                           DEC      0.13816                               #  W0 AT RELATIVE TIME : 1.35 SECONDS
000387: 21,2424           00631                           DEC      0.02499                               #  W1 AT RELATIVE TIME : 1.35 SECONDS
000388: 21,2425           03707                           DEC      0.12154                               #  W2 AT RELATIVE TIME : 1.35 SECONDS
000389: 21,2426           04431                           DEC      0.14215                               #  W0 AT RELATIVE TIME : 1.30 SECONDS
000390: 21,2427           00664                           DEC      0.02662                               #  W1 AT RELATIVE TIME : 1.30 SECONDS
000391: 21,2430           04224                           DEC      0.13403                               #  W2 AT RELATIVE TIME : 1.30 SECONDS
000392: 21,2431           04535                           DEC      0.14632                               #  W0 AT RELATIVE TIME : 1.25 SECONDS
000393: 21,2432           00721                           DEC      0.02841                               #  W1 AT RELATIVE TIME : 1.25 SECONDS
000394: 21,2433           04575                           DEC      0.14826                               #  W2 AT RELATIVE TIME : 1.25 SECONDS
000395: 21,2434           04644                           DEC      0.15066                               #  W0 AT RELATIVE TIME : 1.20 SECONDS
000396: 21,2435           00761                           DEC      0.03035                               #  W1 AT RELATIVE TIME : 1.20 SECONDS
000397: 21,2436           05207                           DEC      0.16446                               #  W2 AT RELATIVE TIME : 1.20 SECONDS
000398: 21,2437           04756                           DEC      0.15516                               #  W0 AT RELATIVE TIME : 1.15 SECONDS
000399: 21,2440           01024                           DEC      0.03247                               #  W1 AT RELATIVE TIME : 1.15 SECONDS
000400: 21,2441           05665                           DEC      0.18293                               #  W2 AT RELATIVE TIME : 1.15 SECONDS
000401: 21,2442           05072                           DEC      0.15980                               #  W0 AT RELATIVE TIME : 1.10 SECONDS
000402: 21,2443           01072                           DEC      0.03477                               #  W1 AT RELATIVE TIME : 1.10 SECONDS
000403: 21,2444           06416                           DEC      0.20395                               #  W2 AT RELATIVE TIME : 1.10 SECONDS
000404: 21,2445           05207                           DEC      0.16452                               #  W0 AT RELATIVE TIME : 1.05 SECONDS
000405: 21,2446           01142                           DEC      0.03726                               #  W1 AT RELATIVE TIME : 1.05 SECONDS
000406: 21,2447           07224                           DEC      0.22781                               #  W2 AT RELATIVE TIME : 1.05 SECONDS
000407: 21,2450           05325                           DEC      0.16926                               #  W0 AT RELATIVE TIME : 1.00 SECONDS
000408: 21,2451           01216                           DEC      0.03991                               #  W1 AT RELATIVE TIME : 1.00 SECONDS
000409: 21,2452           10116                           DEC      0.25475                               #  W2 AT RELATIVE TIME : 1.00 SECONDS
000410: 21,2453           05442                           DEC      0.17393                               #  W0 AT RELATIVE TIME : 0.95 SECONDS
000411: 21,2454           01274                           DEC      0.04272                               #  W1 AT RELATIVE TIME : 0.95 SECONDS
000412: 21,2455           11073                           DEC      0.28488                               #  W2 AT RELATIVE TIME : 0.95 SECONDS
000413: 21,2456           05553                           DEC      0.17839                               #  W0 AT RELATIVE TIME : 0.90 SECONDS


000415: 21,2457           01353                           DEC      0.04562                               #  W1 AT RELATIVE TIME : 0.90 SECONDS
000416: 21,2460           12134                           DEC      0.31809                               #  W2 AT RELATIVE TIME : 0.90 SECONDS
000417: 21,2461           05656                           DEC      0.18247                               #  W0 AT RELATIVE TIME : 0.85 SECONDS
000418: 21,2462           01433                           DEC      0.04853                               #  W1 AT RELATIVE TIME : 0.85 SECONDS
000419: 21,2463           13245                           DEC      0.35383                               #  W2 AT RELATIVE TIME : 0.85 SECONDS
000420: 21,2464           05747                           DEC      0.18597                               #  W0 AT RELATIVE TIME : 0.80 SECONDS
000421: 21,2465           01511                           DEC      0.05132                               #  W1 AT RELATIVE TIME : 0.80 SECONDS
000422: 21,2466           14404                           DEC      0.39087                               #  W2 AT RELATIVE TIME : 0.80 SECONDS
000423: 21,2467           06023                           DEC      0.18867                               #  W0 AT RELATIVE TIME : 0.75 SECONDS
000424: 21,2470           01561                           DEC      0.05380                               #  W1 AT RELATIVE TIME : 0.75 SECONDS
000425: 21,2471           15524                           DEC      0.42701                               #  W2 AT RELATIVE TIME : 0.75 SECONDS
000426: 21,2472           06060                           DEC      0.19040                               #  W0 AT RELATIVE TIME : 0.70 SECONDS
000427: 21,2473           01622                           DEC      0.05576                               #  W1 AT RELATIVE TIME : 0.70 SECONDS
000428: 21,2474           16535                           DEC      0.45880                               #  W2 AT RELATIVE TIME : 0.70 SECONDS
000429: 21,2475           06074                           DEC      0.19117                               #  W0 AT RELATIVE TIME : 0.65 SECONDS
000430: 21,2476           01646                           DEC      0.05698                               #  W1 AT RELATIVE TIME : 0.65 SECONDS
000431: 21,2477           17323                           DEC      0.48160                               #  W2 AT RELATIVE TIME : 0.65 SECONDS
000432: 21,2500           06076                           DEC      0.19127                               #  W0 AT RELATIVE TIME : 0.60 SECONDS
000433: 21,2501           01654                           DEC      0.05736                               #  W1 AT RELATIVE TIME : 0.60 SECONDS
000434: 21,2502           17536                           DEC      0.49013                               #  W2 AT RELATIVE TIME : 0.60 SECONDS
000435: 21,2503           06100                           DEC      0.19142                               #  W0 AT RELATIVE TIME : 0.55 SECONDS
000436: 21,2504           01646                           DEC      0.05702                               #  W1 AT RELATIVE TIME : 0.55 SECONDS
000437: 21,2505           17266                           DEC      0.47984                               #  W2 AT RELATIVE TIME : 0.55 SECONDS
000438: 21,2506           06126                           DEC      0.19273                               #  W0 AT RELATIVE TIME : 0.50 SECONDS
000439: 21,2507           01635                           DEC      0.05644                               #  W1 AT RELATIVE TIME : 0.50 SECONDS
000440: 21,2510           16267                           DEC      0.44869                               #  W2 AT RELATIVE TIME : 0.50 SECONDS
000441: 21,2511           06225                           DEC      0.19660                               #  W0 AT RELATIVE TIME : 0.45 SECONDS
000442: 21,2512           01636                           DEC      0.05649                               #  W1 AT RELATIVE TIME : 0.45 SECONDS
000443: 21,2513           14600                           DEC      0.39845                               #  W2 AT RELATIVE TIME : 0.45 SECONDS
000444: 21,2514           06425                           DEC      0.20443                               #  W0 AT RELATIVE TIME : 0.40 SECONDS
000445: 21,2515           01674                           DEC      0.05837                               #  W1 AT RELATIVE TIME : 0.40 SECONDS
000446: 21,2516           12552                           DEC      0.33458                               #  W2 AT RELATIVE TIME : 0.40 SECONDS
000447: 21,2517           06753                           DEC      0.21746                               #  W0 AT RELATIVE TIME : 0.35 SECONDS
000448: 21,2520           02022                           DEC      0.06360                               #  W1 AT RELATIVE TIME : 0.35 SECONDS
000449: 21,2521           10356                           DEC      0.26452                               #  W2 AT RELATIVE TIME : 0.35 SECONDS
000450: 21,2522           07447                           DEC      0.23678                               #  W0 AT RELATIVE TIME : 0.30 SECONDS
000451: 21,2523           02300                           DEC      0.07419                               #  W1 AT RELATIVE TIME : 0.30 SECONDS
000452: 21,2524           06204                           DEC      0.19555                               #  W2 AT RELATIVE TIME : 0.30 SECONDS
000453: 21,2525           10340                           DEC      0.26366                               #  W0 AT RELATIVE TIME : 0.25 SECONDS
000454: 21,2526           02767                           DEC      0.09322                               #  W1 AT RELATIVE TIME : 0.25 SECONDS
000455: 21,2527           04210                           DEC      0.13332                               #  W2 AT RELATIVE TIME : 0.25 SECONDS
000456: 21,2530           11461                           DEC      0.29988                               #  W0 AT RELATIVE TIME : 0.20 SECONDS
000457: 21,2531           04030                           DEC      0.12645                               #  W1 AT RELATIVE TIME : 0.20 SECONDS
000458: 21,2532           02466                           DEC      0.08144                               #  W2 AT RELATIVE TIME : 0.20 SECONDS
000459: 21,2533           13107                           DEC      0.34809                               #  W0 AT RELATIVE TIME : 0.15 SECONDS
000460: 21,2534           05760                           DEC      0.18652                               #  W1 AT RELATIVE TIME : 0.15 SECONDS
000461: 21,2535           01255                           DEC      0.04182                               #  W2 AT RELATIVE TIME : 0.15 SECONDS
000462: 21,2536           15114                           DEC      0.41088                               #  W0 AT RELATIVE TIME : 0.10 SECONDS
000463: 21,2537           11614                           DEC      0.30542                               #  W1 AT RELATIVE TIME : 0.10 SECONDS
000464: 21,2540           00372                           DEC      0.01526                               #  W2 AT RELATIVE TIME : 0.10 SECONDS


000466: 21,2541           17234                           DEC      0.47825                               #  W0 AT RELATIVE TIME : 0.05 SECONDS
000467: 21,2542           22205                           DEC      0.57064                               #  W1 AT RELATIVE TIME : 0.05 SECONDS
000468: 21,2543           00035                           DEC      0.00174                               #  W2 AT RELATIVE TIME : 0.05 SECONDS
000469:                                                                                                  #  **END CODING FOR MODULE 3 REMAKE, AUGUST 1967*****END CODING FOR MODULE 3 REMAKE, AUGUST 1967*******************
000470:


000472:                                                                                                  #  DUMMY TRIM GIMBAL RUPT:
000473:
000474: 21,2544           32401        DGTS               CAF      MS20F                                 #  RESET TIMER IMMEDIATELY -   DT = 20 MS
000475: 21,2545           54030                           TS       TIME5
000476: 21,2546           22016                           LXCH     BANKRUPT                              #  INTERRUPT LEAD IN (CONTINUED)
000477: 21,2547           00006                           EXTEND
000478: 21,2550           22012                           QXCH     QRUPT
000479:
000480: 21,2551           00006                           EXTEND                                         #  SET UP FILTER RUPT
000481: 21,2552           32411                           DCA      POSTPFIL
000482: 21,2553           53001                           DXCH     T5ADR
000483:
000484: 21,2554           41735                           CS       RACDOTMP                              #  STORE NEW VALUES OF QACCDOT, RACCDOT NOW
000485: 21,2555           55535                           TS       RACCDOT                               #  THAT 100 MS HAVE PASSED.  (REMEMBER THAT
000486: 21,2556           41733                           CS       QACDOTMP                              #  THESE ARE STORED COMPLEMENTED.)
000487: 21,2557           55533                           TS       QACCDOT
000488: 21,2560           15733                           TCF      RESUME
000489:
000490: 21,2561  E6,1542                                  EBANK=   DT
000491: 20,3030                                           BANK     20
000492:
000493:                                                                                                  #  DUMMY FILTER RUPT AFTER Q,R-AXES RUPT:
000494:
000495: 20,3030           37775        MS30120            OCTAL    37775
000496: 20,3031  E6,1612                                  EBANK=   TQR
000497: 20,3031           02255 34066  PAXBNK20           2CADR    PAXIS
000498:
000499: 20,3033           33030        FILDUMMY           CAF      MS30120                               #  RESET TIMER IMMEDIATELY - DT= 30 MS
000500: 20,3034           54030                           TS       TIME5
000501:
000502: 20,3035           22016                           LXCH     BANKRUPT                              #  INTERRUPT LEAD IN (CONTINUED)
000503: 20,3036           00006                           EXTEND                                         #  SAVE THE LAST Q ON ALL T5RUPT LEAD IN'S
000504: 20,3037           22012                           QXCH     QRUPT
000505:
000506: 20,3040           00006                           EXTEND                                         #  SET UP PAXIS RUPT
000507: 20,3041           33032                           DCA      PAXBNK20
000508: 20,3042           53001                           DXCH     T5ADR
000509:
000510: 20,3043           03105                           TC       TORQUEVK
000511: 20,3044           15733                           TCF      RESUME
000512:
000513:                                                                                                  #  START CODING FOR MODULE 3 REMAKE, AUGUST 1967***START CODING FOR MODULE 3 REMAKE, AUGUST 1967*******************
000514:
000515:                                                                                                  #  CODING FOR RATE HOLD MODE WRITTEN OVER.
000516:
000517:                                                                                                  #  FROM ENGINOF1.  MAKE SURE FLAGS FOR EXTRAORDINARY GTS ARE DOWN.
000518:
000519: 20,3045           35632        RESETCTR           CA       EBANK6                                #  SAVE CALLERS EBANK.
000520: 20,3046           56003                           XCH      EBANK
000521: 20,3047           54066                           TS       ITEMP6                                #  SAVE L IN CASE THIS WAS 1STENGOF.


000523: 20,3050           37745                           CAF      NEGMAX
000524: 20,3051           55744                           TS       TRIMCNTR
000525: 20,3052           37767                           CAF      ZERO
000526: 20,3053           55745                           TS       GTSMNITR
000527:
000528: 20,3054           30066                           CA       ITEMP6                                #  RESTORE CALLERS EBANK.
000529: 20,3055           54003                           TS       EBANK
000530:
000531: 20,3056           00002                           TC       Q                                     #  RETURN TO CALLER OF ENGINOFF OR ENGINOF1
000532:
000533:                                                                                                  #  FROM APSENGON - STORE IGNITION TIME FOR THE ENGINOFF DELAY LOGIC.
000534:
000535: 20,3057           55310        20INSRTA           TS       DVSELECT                              #  STORE PGNSCADR IN DVSELECT
000536:
000537: 20,3060           00006                           EXTEND
000538: 20,3061           30025                           DCA      TIME2                                 #  STORE CURRENT TIME IN /TEMP3/
000539: 20,3062           53760                           DXCH     /TEMP3/
000540: 20,3063           12204                           TCF      20INSRT    +1
000541:
000542:                                                                                                  #  FROM ENGINOFF - PREPARE FOR TRANSFER TO THE ENGINOFF DELAY LOGIC.
000543:
000544: 20,3064           00006        20INSRTB           EXTEND                                         #  SAVE Q FOR AN INDEFINITE TIME - IT
000545: 20,3065           22376                           QXCH     /TEMP1/                               #  POINTS TO SWRETURN OR ISWRETRN.
000546: 20,3066           35632                           CAF      EBANK6
000547: 20,3067           56003                           XCH      EBANK                                 #  GO TO EBANK 6 AND STORE CALLERS EBANK.
000548: 20,3070           55756                           TS       /TEMP2/
000549:
000550: 20,3071           31763                           CA       TMINAPS                               #  IF TMINAPS IS NEGATIVE OR ZERO DO NOT
000551: 20,3072           00006                           EXTEND                                         #  DELAY THE ENGINOFF CALL.
000552: 20,3073           63076                           BZMF     20INSRTC
000553:
000554: 20,3074           05225                           TC       POSTJUMP                              #  *TMINAPS OK. JUMP TO THE DELAY LOGIC*
000555: 20,3075           36173                           CADR     17INSRT
000556:
000557: 20,3076           31756        20INSRTC           CA       /TEMP2/                               #  RESTORE EBANK AND RETURN TO ENGINOFF.
000558: 20,3077           54003                           TS       EBANK
000559: 20,3100           12264                           TCF      ENGINOFF   +1
000560:
000561:                                                                                                  #  FOLLOWING CODING LEFT IN PLACE TO PRESERVE RELATIVE ADDRESSES.
000562:
000563: 20,3101           54771                           TS       DELCDUX                               #  IF 0, DONE DELCDUY AND ZERO DELCDUX.
000564:
000565:
000566:
000567: 20,3102           03105                 +5        TC       TORQUEVK
000568: 20,3103           15733                           TCF      RESUME
000569: 20,3104           04736                           TC       CCSHOLE
000570:
000571:                                                                                                  #  **END CODING FOR MODULE 3 REMAKE, AUGUST 1967*****END CODING FOR MODULE 3 REMAKE, AUGUST 1967*******************
000572:


000574:                                                                                                  #  THIS SUBROUTINE COMPUTES JET TORQUE CONTRIBUTION TO RATE
000575:
000576:
000577: 20,3105           41612        TORQUEVK           CS       TQR                                   #  TQR IS SCALED THE SAME AS TIME 6
000578: 20,3106           63213                           AD       CSPINKF
000579: 20,3107           00006                           EXTEND
000580: 20,3110           63126                           BZMF     FULLCSP
000581: 20,3111           31612                           CA       TQR
000582: 20,3112           00006                           EXTEND
000583: 20,3113           77757                           MP       BIT5
000584: 20,3114           30001                           CAE      L
000585: 20,3115           00006                           EXTEND
000586: 20,3116           73210                           MP       16/25KF
000587: 20,3117           55612                           TS       TQR
000588: 20,3120           00006                           EXTEND
000589: 20,3121           22066                           QXCH     ITEMP6
000590: 20,3122           03140                           TC       JETTSUB
000591: 20,3123           37767                           CAF      ZERO
000592: 20,3124           55612                           TS       TQR
000593: 20,3125           00066                           TC       ITEMP6                                #  RETURN TO TORQUEVK CALLER
000594: 20,3126           40000        FULLCSP            COM                                            #  WE COME HERE WHEN TQR GREATER THAN .1SEC
000595: 20,3127           54062                           TS       ITEMP2
000596: 20,3130           33211                           CA       CSPAT1                                #  CSP (.1 SEC) SCALED AT 1.
000597: 20,3131           55612                           TS       TQR                                   #  TEMPORARY, LATER TQR:.1=TQR
000598: 20,3132           00006                           EXTEND
000599: 20,3133           22066                           QXCH     ITEMP6
000600: 20,3134           03140                           TC       JETTSUB
000601: 20,3135           30062                           CAE      ITEMP2
000602: 20,3136           55612                           TS       TQR
000603: 20,3137           00066                           TC       ITEMP6                                #  RETURN TO TORQUEVK CALLER.
000604:
000605:                                                                                                  #  A SUBROUTINE WHICH,GIVEN TQR SCALED AT 1, FINDS JETRATE AND SUMRATE.
000606:
000607: 20,3140           00006        JETTSUB            EXTEND
000608: 20,3141           71607                           MP       NO.QJETS
000609: 20,3142           30001                           CAE      L
000610: 20,3143           00006                           EXTEND
000611: 20,3144           71614                           MP       1JACCQ
000612: 20,3145           55605                           TS       JETRATEQ                              #  TEMP STORE OF ACC*NJETS*TQR FOR Q AXIS.
000613: 20,3146           27624                           ADS      SUMRATEQ                              #  SUMRATE =SUMRATE+ACC*NJETS*TQR, WHICH IS
000614: 20,3147           31612                           CAE      TQR                                   #    THE ACCUMULATED JET FIRING ACC. OVER
000615: 20,3150           00006                           EXTEND                                         #    A TWO SECOND INTERVAL.
000616: 20,3151           71610                           MP       NO.RJETS                              #  SAME AS ABOVE FOR R AXIS THIS TIME.
000617: 20,3152           30001                           CAE      L
000618: 20,3153           00006                           EXTEND
000619: 20,3154           71615                           MP       1JACCR
000620: 20,3155           55606                           TS       JETRATER
000621: 20,3156           27625                           ADS      SUMRATER
000622:


000624: 20,3157           11732                           CCS      AOSCOUNT                              #  TEST TO SEE IF AOSTASK IS COMING UP:
000625: 20,3160           13167                           TCF      WATERATE                              #  NO, SKIP.
000626:
000627: 20,3161           41605                           CS       JETRATEQ                              #  REMOVE THE MOST RECENT JETRATES FROM THE
000628: 20,3162           55622                           TS       SAVRATEQ                              #  SUMRATES AND SET UP INITIALIZATION OF
000629: 20,3163           27624                           ADS      SUMRATEQ                              #  THE SUMRATES FOR THE NEXT 2 SECOND
000630: 20,3164           41606                           CS       JETRATER                              #  INTERVAL.  (SAVED AS NEGATIVES.)
000631: 20,3165           55623                           TS       SAVRATER
000632: 20,3166           27625                           ADS      SUMRATER
000633:
000634: 20,3167           31641        WATERATE           CAE      WFORQR                                #  WFORQR IS SCALED AT 16 BUT THE ALGORITHM
000635: 20,3170           00006                           EXTEND                                         #    USES W/2 THUS THE SCALING IS 8 HERE.
000636: 20,3171           71612                           MP       TQR
000637: 20,3172           61643                           AD       (1-K)/8                               #  THE ALGORITHM IMPLEMENTED IS....
000638: 20,3173           00006                           EXTEND                                         #    JETRATE = TQR*NJET*ACC*(1-K+N*TQR/2)
000639: 20,3174           77760                           MP       BIT4                                  #    FOR THE Q AND R AXES RESPECTIVELY.
000640: 20,3175           22061                           LXCH     ITEMP1                                #  THE FINAL SCALING OF JETRATE  IS PI/4.
000641: 20,3176           31605                           CAE      JETRATEQ
000642: 20,3177           00006                           EXTEND
000643: 20,3200           70061                           MP       ITEMP1
000644: 20,3201           55605                           TS       JETRATEQ
000645: 20,3202           31606                           CAE      JETRATER
000646: 20,3203           00006                           EXTEND
000647: 20,3204           70061                           MP       ITEMP1
000648: 20,3205           55606                           TS       JETRATER
000649: 20,3206           00002                           TC       Q
000650: 20,3207           00632        100MSCAL           DEC      0.025
000651: 20,3210           24366        16/25KF            DEC      0.64000
000652: 20,3211           03146        CSPAT1             DEC      0.10000
000653: 20,3212           77754        -DELAYT            DEC      -19        B-14                       #  -11.875 MS SCALED AS TIME6.
000654: 20,3213           00240        CSPINKF            DEC      0.00977
000655:


000657:                                                                                                  #  THIS T5RUPT TAKES THE SQUARE ROOT AND CALLS TORQUEVK
000658: 20,3214           33030        DORUTDUM           CAF      MS30120                               #  FILDUMMY ENTRY EVERY TIME WE DO SQ. ROOT
000659: 20,3215           54030                           TS       TIME5
000660: 20,3216           22016                           LXCH     BANKRUPT
000661: 20,3217           00006                           EXTEND
000662: 20,3220           22012                           QXCH     QRUPT
000663:
000664: 20,3221           00006                           EXTEND
000665: 20,3222           33032                           DCA      PAXBNK20
000666: 20,3223           53001                           DXCH     T5ADR
000667:
000668: 20,3224           00006                           EXTEND
000669: 20,3225           41512                           DCS      TERMB
000670: 20,3226           05270                           TC       IBNKCALL
000671: 20,3227           54525                           CADR     DAPSQRT
000672: 20,3230           61510                           AD       TERMA
000673: 20,3231           60000                           DOUBLE                                         #  RESCALE TO T6 SCALING
000674: 20,3232           00006                           EXTEND
000675: 20,3233           73244                           MP       25/32KF
000676: 20,3234           55612                           TS       TQR
000677: 20,3235           63212                           AD       -DELAYT                               #  TQR SHOULD HOLD THE COMPLETE ON-TIME.
000678: 20,3236           55475                           TS       TOFJTCHG
000679: 20,3237           03105                           TC       TORQUEVK
000680:
000681: 20,3240           31654                           CAE      CH5TEMP
000682: 20,3241           71471                           MASK     JTSONNOW
000683: 20,3242           05225                           TC       POSTJUMP
000684: 20,3243           36500                           CADR     FROMROOT
000685:
000686: 20,3244           31000        25/32KF            DEC      0.78125
000687:


000689:                                                                                                  #  SUBROUTINE: DISPDRIV            MOD. NO. 0  DATE: NOVEMBER 14, 1966
000690:
000691:                                                                                                  #  AUTHOR: JONATHAN D. ADDELSTON (ADAMS ASSOCIATES)
000692:
000693:                                                                                                  #  THIS SUBROUTINE SETS THE ICDU DRIVE BITS EVERY OTHER TIME IT IS CALLED.  IT ALWAYS CHANGES THE VALUE OF
000694:                                                                                                  #  "DISPLACT" TO INDICATE THE PASSING OF 100 MS, SINCE THIS FLAG IS TESTED BY "EIGHTBAL" IN THE P-AXIS T5RUPT.
000695:                                                                                                  #  THE ICDU IS DRIVEN ONLY 30 MS AFTER "EIGHTBAL" ENABLED IT.
000696:
000697:                                                                                                  #  CALLING SEQUENCES (FROM "DUMMYFIL" AND "FILTER"):
000698:
000699:                                                                                                  #                                          L        TC     DISPDRIV        (MUST BE FROM SAME BANK)
000700:                                                                                                  #                                          L +1    (RETURN)
000701:
000702:                                                                                                  #  SUBROUTINES CALLED: NONE.       NORMAL EXIT: BY TC Q  TO L +1 .
000703:
000704:                                                                                                  #  ALARM/ABORT MODES: NONE.        INPUT: PRESENT VALUE IN  DISPLACT ,
000705:
000706:                                                                                                  #  OUTPUT: OPPOSITE VALUE OF "DISPLACT" AND ICDU BITS (WHEN NECESSARY).
000707:
000708:                                                                                                  #  DEBRIS: A,Q.
000709:
000710:
000711:
000712: 20,3245  E6,1542                                  EBANK=   DT
000713: 21,2561                                           BANK     21
000714: 21,2561           11515        DISPDRIV           CCS      DISPLACT                              #  TEST PHASE OF  EIGHTBAL .
000715: 21,2562           12567                           TCF      +5                                    #  (NO DRIVING ON THIS PASS.) RESET FLAG.
000716:
000717: 21,2563           32571                           CAF      OCT70000                              #  SET ICDU DRIVE BITS.
000718: 21,2564           00006                           EXTEND
000719: 21,2565           05014                           WOR      14
000720:
000721: 21,2566           37763                           CAF      ONE                                   #  RESET FLAG.
000722: 21,2567           55515                           TS       DISPLACT
000723:
000724: 21,2570           00002                           TC       Q                                     #  RETURN
000725:
000726: 21,2571           70000        OCT70000           OCTAL    70000                                 #  ICDU DRIVE BITS OF CHANNEL 14.

End of include-file KALMAN_FILTER_FOR_LM_DAP.agc.  Parent file is MAIN.agc


