
Source Code


000002:                                                                                                  ## Copyright:   Public domain.
000003:                                                                                                  ## Filename:    KEYRUPT_UPRUPT.agc
000004:                                                                                                  ## Purpose:     A module for revision 0 of BURST120 (Sunburst).
000005:                                                                                                  ##              It is part of the source code for the Lunar Module's (LM)
000006:                                                                                                  ##              Apollo Guidance Computer (AGC) for Apollo 5.
000007:                                                                                                  ## Assembler:   yaYUL
000008:                                                                                                  ## Contact:     Ron Burkey <info@sandroid.org>.
000009:                                                                                                  ## Website:     www.ibiblio.org/apollo/index.html
000010:                                                                                                  ## Mod history: 2016-09-30 RSB  Created draft version.
000011:                                                                                                  ##              2016-10-06 RSB  Transcription completed.
000012:                                                                                                  ##              2016-10-31 RSB  Typos.
000013:                                                                                                  ##              2016-12-04 RSB  Proofed with octopus/ProoferComments and fixed various
000014:                                                                                                  ##                              comments, but the proofing process is not completed.
000015:                                                                                                  ##              2016-12-05 RSB  Comment-proofing pass with octopus/ProoferComments completed;
000016:                                                                                                  ##                              changes made.
000017:                                                                                                  ##              2021-05-30 ABS  UPCK -> UPOK
000018:


000020: 13,3474                                           BANK     13
000021: 13,3474           54016        KEYRUPT1           TS       BANKRUPT
000022: 13,3475           56002                           XCH      Q
000023: 13,3476           54012                           TS       QRUPT
000024: 13,3477           04605                           TC       LODSAMPT                              #  TIME IS SNATCHED IN RUPT FOR NOUN 65.
000025: 13,3500           34556                           CAF      LOW5
000026: 13,3501           00006                           EXTEND
000027: 13,3502           02015                           RAND     MNKEYIN
000028: 13,3503           54073        KEYCOM             TS       RUPTREG4
000029: 13,3504           35210                           CAF      CHRPRIO
000030: 13,3505           05505                           TC       NOVAC
000031: 13,3506     0270                                  EBANK=   DSPCOUNT
000032: 13,3506           02002 10060                     2CADR    CHARIN
000033:
000034: 13,3510           30073                           CA       RUPTREG4
000035: 13,3511           50064                           INDEX    LOCCTR
000036: 13,3512           54144                           TS       MPAC                                  #  LEAVE 5 BIT KEY CDE IN MPAC FOR CHARIN
000037: 13,3513           05733                           TC       RESUME
000038:


000040:                                                                                                  #  UPRUPT PROGRAM
000041:
000042: 13,3514           54016        UPRUPT             TS       BANKRUPT
000043: 13,3515           56002                           XCH      Q
000044: 13,3516           54012                           TS       QRUPT
000045: 13,3517           04605                           TC       LODSAMPT                              #  TIME IS SNATCHED IN RUPT FOR NOUN 65.
000046: 13,3520           37767                           CAF      ZERO
000047: 13,3521           56045                           XCH      INLINK
000048: 13,3522           54073                           TS       KEYTEMP1
000049: 13,3523           37761                           CAF      BIT3                                  #  TURN ON UPACT LIGHT
000050: 13,3524           00006                           EXTEND                                         #  (BIT 3 OF CHANNEL 11)
000051: 13,3525           05011                           WOR      DSALMOUT
000052: 13,3526           34556        UPRPT1             CAF      LOW5                                  #  TEST FOR TRIPLE CHAR REDUNDANCY
000053: 13,3527           70073                           MASK     KEYTEMP1                              #  LOW5 OF WORD
000054: 13,3530           56073                           XCH      KEYTEMP1                              #  LOW5 INTO KEYTEMP1
000055: 13,3531           56021                           XCH      SR                                    #  WHOLE WORD INTO SR
000056: 13,3532           55076                           TS       KEYTEMP2                              #  ORIGINAL SR INTO KEYTEMP2
000057: 13,3533           03577                           TC       SRGHT5
000058: 13,3534           74556                           MASK     LOW5                                  #  MID 5
000059: 13,3535           63611                           AD       HI10
000060: 13,3536           03606                           TC       UPTEST
000061: 13,3537           03577                           TC       SRGHT5
000062: 13,3540           74556                           MASK     LOW5                                  #  HIGH 5
000063: 13,3541           40000                           COM
000064: 13,3542           03606                           TC       UPTEST
000065: 13,3543           03573        UPOK               TC       RESTORSR                              #  CODE IS GOOD
000066: 13,3544           43550                           CS       ELRCODE                               #  IF CODE = ERROR LIGHT RESET, PUT +0
000067: 13,3545           60073                           AD       KEYTEMP1                              #  INTO BIT1 OF UPLOCK.
000068: 13,3546           10000                           CCS      A                                     #  IF CODE NOT= ELR, PASS CODE ONLY IF
000069: 13,3547           03556                           TC       TSTUPLOK                              #  BIT1 OF UPLOCK = 0.
000070: 13,3550           00022        ELRCODE            OCT      22
000071: 13,3551           03556                           TC       TSTUPLOK
000072: 13,3552           47761                           CS       BIT3
000073: 13,3553           70075                           MASK     FLAGWRD1
000074: 13,3554           54075                           TS       FLAGWRD1
000075: 13,3555           03562                           TC       ACCEPTUP
000076: 13,3556           37761        TSTUPLOK           CAF      BIT3
000077: 13,3557           70075                           MASK     FLAGWRD1
000078: 13,3560           10000                           CCS      A
000079: 13,3561           05733                           TC       RESUME                                #  BIT1 OF UPLOCK = 1.
000080: 13,3562           56073        ACCEPTUP           XCH      KEYTEMP1                              #  BIT1 OF UPLOCK = 0.
000081: 13,3563           03503                           TC       KEYCOM
000082:
000083: 13,3564           03573        TMFAIL2            TC       RESTORSR                              #  CODE IS BAD
000084: 13,3565           47761                           CS       BIT3
000085: 13,3566           70075                           MASK     FLAGWRD1
000086: 13,3567           67761                           AD       BIT3
000087: 13,3570           54075                           TS       FLAGWRD1
000088: 13,3571           05733        TMFAIL1            TC       TMALM
000089: 13,3572           05733                           TC       RESUME
000090:


000092: 13,3573           57076        RESTORSR           XCH      KEYTEMP2
000093: 13,3574           60000                           DOUBLE
000094: 13,3575           54021                           TS       SR
000095: 13,3576           00002                           TC       Q
000096:
000097: 13,3577     5733               TMALM              =        RESUME                                #  FOR NOW
000098:
000099: 13,3577           40021        SRGHT5             CS       SR
000100: 13,3600           40021                           CS       SR
000101: 13,3601           40021                           CS       SR
000102: 13,3602           40021                           CS       SR
000103: 13,3603           40021                           CS       SR
000104: 13,3604           40000                           CS       A
000105: 13,3605           00002                           TC       Q                                     #  DELIVERS WORD UNCOMPLEMENTED
000106:
000107: 13,3606           60073        UPTEST             AD       KEYTEMP1
000108: 13,3607           10000                           CCS      A
000109: 13,3610           03564                           TC       TMFAIL2
000110: 13,3611           77740        HI10               OCT      77740
000111: 13,3612           03564                           TC       TMFAIL2
000112: 13,3613           00002                           TC       Q
000113:
000114:                                                                                                  #  UPACT IS TURNED OFF BY VBRELDSP, ALSO BY ERROR LIGHT RESET.


000116:                                                                                                  #  THE RECEPTION OF A BAD CODE BY UPLINK LOCKS OUT FURTHER UPLINK ACTIVITY
000117:                                                                                                  #  BY PLACING A 1 INTO BIT1 OF UPLOCK. BIT9 (ALONG WITH BIT11) OF TMKEYBUF
000118:                                                                                                  #  IS SET TO 1 TO SEND AN INDICATION OF THIS SITUATION DOWN THE DOWNLINK.
000119:                                                                                                  #  THE UPLINK INTERLOCK IS ALLOWED WHEN AN ERROR LIGHT RESET CODE IS SENT
000120:                                                                                                  #  UP THE UPLINK, OR WHEN A FRESH START IS PERFORMED.
000121:

End of include-file KEYRUPT,_UPRUPT.agc.  Parent file is MAIN.agc


