
Source Code


000002:                                                                                                  ## Copyright:   Public domain.
000003:                                                                                                  ## Filename:    LAMB.agc
000004:                                                                                                  ## Purpose:     A module for revision 0 of BURST120 (Sunburst). It
000005:                                                                                                  ##              is part of the source code for the Lunar Module's
000006:                                                                                                  ##              (LM) Apollo Guidance Computer (AGC) for Apollo 5.
000007:                                                                                                  ## Assembler:   yaYUL
000008:                                                                                                  ## Contact:     Ron Burkey <info@sandroid.org>.
000009:                                                                                                  ## Website:     www.ibiblio.org/apollo/index.html
000010:                                                                                                  ## Mod history: 2016-09-30 RSB  Created draft version.
000011:                                                                                                  ##              2016-10-19 RSB  Transcribed from scratch.  Ouch!
000012:                                                                                                  ##              2016-10-31 RSB  Typos.
000013:                                                                                                  ##              2016-11-01 RSB  A line reading "OCT B0", which is not supported by yaYUL,
000014:                                                                                                  ##                              has been replaced by "OCT 1", in lieu of modifying
000015:                                                                                                  ##                              yaYUL at this time.  An appropriate program comment was
000016:                                                                                                  ##                              also added at this point in the code.  Plus, more typos.
000017:                                                                                                  ##              2016-12-06 RSB  Comments proofed using octopus/ProoferComments,
000018:                                                                                                  ##                               changes made.
000019:                                                                                                  ##              2017-06-10 MAS  Corrected typos and a missing comment found while
000020:                                                                                                  ##                              updating for Sunburst 37.
000021:
000022:
000023:


000025: 36,2625                                           BANK     36
000026: 36,2625  E3,1663                                  EBANK=   SCAXIS
000027:
000028:                                                                                                  #   PROGRAM NAME ... LAMBERT ROUTINE                                        DATE ... 11/29/66
000029:
000030:                                                                                                  #   MOD NO ... 3                                                            LOG SECTION ...LAMB
000031:                                                                                                  #                                                                           ASSEMBLY ... SUNBURST REVISION 03
000032:
000033:                                                                                                  #   MODIFICATION BY ... J.J. BESTER AND L.G. HULL
000034:                                                                                                  #   FUNCTIONAL DESCRIPTION ...
000035:
000036:                                                                                                  #     THIS SUBROUTINE SOLVES FOR THE CONIC TRAJECTORY BETWEEN R0VEC AND R1VEC WHICH SATISFIES A SPECIFIED TIME
000037:                                                                                                  #   OF FLIGHT, TFL.  A SLOPE ITERATOR IS USED TO FORCE THE TIME OF FLIGHT TO CONVERGE.
000038:
000039:
000040:
000041:                                                                                                  #   CALLING SEQUENCE:
000042:
000043:                                                                                                  #   THIS ROUTINE IS CALLED IN THE INTERPRETIVE MODE BY
000044:                                                                                                  #                                                                  CALL
000045:                                                                                                  #                                                                           LAMBERT
000046:
000047:
000048:
000049:                                                                                                  #   NORMAL EXIT MODE:
000050:
000051:                                                                                                  #   EXIT FROM THIS ROUTINE IS IN BASIC BY
000052:                                                                                                  #                                                                  TCF      ENDOFJOB
000053:
000054:
000055:
000056:                                                                                                  #   OUTPUT:
000057:
000058:                                                                                                  #   THE OUTPUT OF THIS ROUTINE (WITH SCALING INDICATED IN PARENTHESES) CONSISTS OF ...
000059:
000060:                                                                                                  #   V0VEC (+7)    -THE REQUIRED VELOCITY VECTOR IN METERS/CENTISECONDS
000061:
000062:                                                                                                  #  DONESW         -THE DONE SWITCH INDICATING WHETHER THE JOB HAS BEEN COMPLETED.  WHEN THE JOB IS DONE IT
000063:                                                                                                  #                  IS TURNED ON.
000064:
000065:                                                                                                  #   CONVSW        - THE CONVERGENCE SWITCH INDICATING WHETHER THE ITERATION PROCESS HAS CONVERGED.  IT IS TURNED
000066:                                                                                                  #                  ON IF CONVERGENCE HAS NOT OCCURRED, BUT AN ESTIMATE OF V0VEC IS NEVERTHELESS GIVEN.
000067:
000068:
000069:
000070:                                                                                                  #   INPUT:
000071:
000072:                                                                                                  #   THE QUANTITIES INPUTED AND THEIR SCALE FACTORS ARE ...


000074:                                                                                                  #  RCOV   (+25)   -INITIAL POSITION IN METERS.
000075:                                                                                                  #   R1VEC (+25)   -THE TARGET POSITION IN METERS.
000076:
000077:                                                                                                  #   TFL (+28)     -TIME OF FLIGHT IN CENTISECONDS.
000078:
000079:                                                                                                  #   UNNORM (+1)   -A UNIT VECTOR IN THE DIRECTION OF THE ANGULAR MOMENTUM  VECTOR.
000080:
000081:                                                                                                  #   TAG5          -A PARAMETER SET TO -0.5 IF THE TRUE ANOMALY DIFFERENCE BETWEEN R0VEC AND R1VEC IS MORE THAN
000082:                                                                                                  #                  180 DEGREES.  OTHERWISE IT SHOULD BE SET TO +0.5.
000083:
000084:                                                                                                  #   GUESSW        -THE GUESS SWITCH, IF A FIRST GUESS TO THE COTANGENT OF THE FLIGHT PATH ANGLE IS AVAILABLE THE
000085:                                                                                                  #                  SWITCH SHOULD BE SET , CLEAR IF NO GUESS IS FORTHCOMING.
000086:
000087:                                                                                                  #   COGAVAIL (+5) -THE AVAILABLE COTANGENT OF THE FLIGHT PATH ANGLE.  IF A GUESS IS AVAILABLE THE GUESSW SHOULD BE
000088:                                                                                                  #                  SET AND THE GUESS PLACED HERE BEFORE THE LAMBERT ROUTINE IS ENTERED.  AFTER ONE PASS THROUGH
000089:                                                                                                  #                  LAMBERT, THE LAST ITERATED VALUE OF THE COTANGENT IS PLACED IN COGAVAIL AND  MAY BE USED AS THE
000090:                                                                                                  #                  GUESS FOR THE NEXT PASS.
000091:
000092:
000093:
000094:                                                                                                  #   THE FOLLOWING SWITCHES ARE IN THIS ROUTINE , THOUGH THEY ARE NOT USED FOR THIS PARTICULAR MISSION AND ARE
000095:                                                                                                  #   ALWAYS CLEAR IN 206.
000096:
000097:                                                                                                  #   MOONSW        - THE MOON SWITCH: 1-INSIDE THE SPHERE OF INFLUENCE OF THE MOON (35,000 N.MI.)
000098:                                                                                                  #                                    0-OUTSIDE
000099:
000100:                                                                                                  #   ESCPSW        -THE ESCAPE SWITCH: 1-HYPERBOLIC ORBIT
000101:                                                                                                  #                                     0-ELLIPTIC ORBIT
000102:
000103:                                                                                                  #   SMANGLSW      -SMALL ANGLE SWITCH: 1-SMALL TRANSFER ANGLES
000104:                                                                                                  #                                      0-LARGE ANGLES (THE USUAL CASE)
000105:
000106:                                                                                                  #   TWO SWITCHES ARE USED INTERNALLY.  THEY ARE ...
000107:
000108:                                                                                                  #   ITERSW        -THE ITERATION SWITCH: 1-FIRST ITERATION IS TO TAKE PLACE
000109:                                                                                                  #                                        0-SUBSEQUENT ITERATIONS
000110:
000111:                                                                                                  #   PIESW         -THE 180 DEGREES SWITCH: 1-ANGLES GREATER THAN 180 DEGREES WITH TAG5=-0.5
000112:                                                                                                  #                                          0-ANGLES LESS THAN 180, TAG5=0.5
000113:
000114:
000115:
000116:                                                                                                  #   DEBRIS ...
000117:
000118:                                                                                                  #     THE LAMBERT ROUTINE INTERNALLY USES SCALING WHICH IS DIFFERENT FROM THAT USED BY THE MAIN PROGRAM.
000119:                                                                                                  #   INTERNAL TO LAMBERT,
000120:                                                                                                  #                                7
000121:                                                                                                  #   LENGTH IS SCALED BY RNORM = 2  RE
000122:
000123:                                                                                                  #   VELOCITY IS SCALED BY VNORM = 2 SQRT(MU/RE)


000125:                                                                                                  #                              10        3
000126:                                                                                                  #   TIME IS SCALED BY TNORM = 2   SQRT(RE /MU)
000127:                                                                                                  #   WHERE MU IS THE GRAVITATIONAL CONSTANT TIMES THE MASS OF THE EARTH AND RE IS THE RADIUS OF THE EARTH.
000128:                                                                                                  #            22
000129:                                                                                                  #   FOR RE, 2   METERS IS USED. HOWEVER, INPUT AND OUTPUT QUANTITIES HAVE  SCALING COMPATIBLE WITH THE REST OF THE
000130:                                                                                                  #   PROGRAM.  RESCALING WILL BE DONE BY THE LAMBERT ROUTINE BEFORE COMPUTATIONS BEGIN.
000131:


000133: 36,2625           40214        LAMBERT            SET      SETPD
000134: 36,2626           02062                                    ITERSW
000135: 36,2627           00001                                    0D
000136: 36,2630           43014                           CLEAR    CLEAR
000137: 36,2631           02265                                    MOONSW
000138: 36,2632           02261                                    DONESW
000139: 36,2633           43014                           CLEAR    CLEAR
000140: 36,2634           02265                                    SMANGLSW
000141: 36,2635           02264                                    PIESW
000142: 36,2636           51145                           DLOAD    BPL
000143: 36,2637           03622                                    TAG5
000144: 36,2640           74643                                    +3
000145: 36,2641           77614                           SET
000146: 36,2642           02064                                    PIESW
000147: 36,2643           77614                           BON
000148: 36,2644           02303                                    GUESSW
000149: 36,2645           74653                                    +6
000150: 36,2646           77745                           DLOAD
000151: 36,2647           35644                                    D1/4
000152: 36,2650           01725                           STORE    TWEEKIT
000153: 36,2651           77650                           GOTO
000154: 36,2652           74656                                    PROG
000155: 36,2653           77745                           DLOAD
000156: 36,2654           35640                                    D1/64
000157: 36,2655           01725                           STORE    TWEEKIT
000158: 36,2656           41345        PROG               DLOAD    DMP
000159: 36,2657           02143                                    TFL
000160: 36,2660           35670                                    TFACT
000161: 36,2661           77652                           SL3                                            #  RESCALE TIME OF FLIGHT
000162: 36,2662           25672                           STOVL    TF
000163: 36,2663           03614                                    RCOTEMPV
000164: 36,2664           77702                           VSR4
000165: 36,2665           35707                           STCALL   R0VEC
000166: 36,2666           75112                                    DTPRD
000167: 36,2667           77624                           CALL
000168: 36,2670           75133                                    CGTH
000169: 36,2671           60345                           DLOAD    NORM
000170: 36,2672           00045                                    36D
000171: 36,2673           00047                                    X1
000172: 36,2674           53665                           BDDV     SL*
000173: 36,2675           00041                                    32D
000174: 36,2676           20172                                    0          -7,1
000175: 36,2677           14037                           STODL    30D                                   #  30D=R (+7)
000176:
000177: 36,2700           35646                                    D1/2
000178: 36,2701           70425                           DSU      SR1
000179: 36,2702           00035                                    28D
000180: 36,2703           00025                           STORE    20D                                   #  20D=1-CSTH  (+2)  (FOR PCALC IN LOOP)
000181:
000182: 36,2704           65301                           NORM     PDDL                                  #  1-CSTH (+2-N1)                 PL AT 2D


000184: 36,2705           00047                                    X1
000185: 36,2706           00037                                    30D
000186: 36,2707           77671                           DDV                                            #                                 PL AT 0D
000187: 36,2710           75457                           SL*      SQRT
000188: 36,2711           20175                                    0          -4,1
000189: 36,2712           44214                           BOFF     BDSU
000190: 36,2713           02345                                    ESCPSW
000191: 36,2714           75061                                    ELIPLMTS
000192: 36,2715           00021                                    16D
000193: 36,2716           51406                           PUSH     ABS                                   #                                 PL AT 2D
000194: 36,2717           44205                           DMP      BDSU                                  #                                 PL AT 0D
000195: 36,2720           35656                                    PERCENT
000196: 36,2721           77626                           STADR
000197: 36,2722           63744                           STODL    26D                                   #  26D=COGAMX
000198:
000199: 36,2723           00031                                    24D
000200: 36,2724           77742                           SR1
000201: 36,2725           00023                           STORE    18D                                   #  18D=SIN(TH) (+2) (FOR PCALC IN LOOP)
000202: 36,2726           65301                           NORM     PDDL                                  #  SIN(TH) (+1-N1)                PL AT 2D
000203: 36,2727           00047                                    X1
000204: 36,2730           00035                                    28D
000205: 36,2731           45261                           SR       DSU
000206: 36,2732           20607                                    6
000207: 36,2733           00037                                    30D
000208: 36,2734           00037                           STORE    30D                                   #  30D=COS(TH)-R (+7)  (FOR PCALC IN LOOP)
000209:
000210: 36,2735           56214                           BON      DDV                                   #                                 PL AT 0D
000211: 36,2736           02304                                    PIESW
000212: 36,2737           74750                                    ABSMIN
000213: 36,2740           40057                           SL*      BOV
000214: 36,2741           20201                                    0,1
000215: 36,2742           74750                                    ABSMIN
000216: 36,2743           51406                           PUSH     ABS                                   #  (CSTH-R)/SNTH (+5)             PL AT 2D
000217: 36,2744           43205                           DMP      DAD                                   #                                 PL AT 0D
000218: 36,2745           35656                                    PERCENT
000219: 36,2746           77650                           GOTO
000220: 36,2747           74753                                    +4
000221: 36,2750           71201        ABSMIN             SETPD    DLOAD                                 #                                 PL AT 0D
000222: 36,2751           00001                                    0D
000223: 36,2752           35666                                    ABSOLMIN
000224: 36,2753           00027                           STORE    22D                                   #  22D=COGAMN (+5)
000225: 36,2754           71214                           BOFF     DLOAD                                 #                                 PL AT 2D
000226: 36,2755           02343                                    GUESSW
000227: 36,2756           75041                                    FIRSTCOG
000228: 36,2757           01674                                    COGAVAIL
000229: 36,2760           45214                           BON      DSU                                   #  IF ESCPSW IS OFF, CHECK IF COGAVAIL
000230: 36,2761           02305                                    ESCPSW                                #  IS LESS THAN COGAMN
000231: 36,2762           74774                                    LOOP
000232: 36,2763           00027                                    22D
000233: 36,2764           71244                           BPL      DLOAD


000235: 36,2765           74772                                    +5
000236: 36,2766           00027                                    22D                                   #  COGAVAIL IS A BAD GUESS, SO PUT
000237: 36,2767           01674                           STORE    COGAVAIL                              #  COGAMN IN COGAVAIL
000238: 36,2770           77650                           GOTO
000239: 36,2771           74774                                    LOOP
000240: 36,2772           77745                           DLOAD
000241: 36,2773           01674                                    COGAVAIL
000242: 36,2774           01723        LOOP               STORE    INDEP
000243: 36,2775           45205                           DMP      DSU
000244: 36,2776           00023                                    18D
000245: 36,2777           00037                                    30D
000246: 36,3000           55301                           NORM     BDDV
000247: 36,3001           00047                                    X1
000248: 36,3002           00025                                    20D
000249: 36,3003           40057                           SL*      BOV
000250: 36,3004           20172                                    0          -7,1
000251: 36,3005           75107                                    SPEEDY
000252: 36,3006           34043        PSTORE             STCALL   34D                                   #  34D=P (+2)
000253: 36,3007           75146                                    SMAR
000254: 36,3010           77624                           CALL
000255: 36,3011           75163                                    TRIGFNS
000256: 36,3012           77624                           CALL
000257: 36,3013           75346                                    SMA
000258: 36,3014           77624                           CALL
000259: 36,3015           75414                                    DELTIME
000260: 36,3016           01727        ZOOM               STORE    DEPVAR
000261: 36,3017           77621                           BDSU
000262: 36,3020           01672                                    TF
000263: 36,3021           01733                           STORE    DELDEP
000264: 36,3022           45246                           ABS      DSU
000265: 36,3023           35672                                    DEPCRIT
000266: 36,3024           45040                           BMN      CALL
000267: 36,3025           75046                                    TIMECONV
000268: 36,3026           75513                                    ITERATOR
000269: 36,3027           45246                           ABS      DSU
000270: 36,3030           35650                                    NEARZERO
000271: 36,3031           71240                           BMN      DLOAD
000272: 36,3032           75056                                    NOSOL
000273: 36,3033           01727                                    DEPVAR
000274: 36,3034           15731                           STODL    PREVDEP
000275: 36,3035           01735                                    DELINDEP
000276: 36,3036           52015                           DAD      GOTO
000277: 36,3037           01723                                    INDEP
000278: 36,3040           74774                                    LOOP
000279: 36,3041           65342        FIRSTCOG           SR1      PDDL                                  #                                 PL AT 2D
000280: 36,3042           00033                                    26D
000281: 36,3043           43342                           SR1      DAD                                   #                                 PL AT 0D
000282: 36,3044           77650                           GOTO
000283: 36,3045           74774                                    LOOP


000285: 36,3046           77745        TIMECONV           DLOAD
000286: 36,3047           01723                                    INDEP
000287: 36,3050           01674                           STORE    COGAVAIL
000288: 36,3051           34023                           STCALL   18D                                   #  18D=COGA (+5)
000289: 36,3052           75602                                    INITV
000290: 36,3053           77414                           SET      EXIT
000291: 36,3054           02061                                    DONESW
000292: 36,3055           15567                           TCF      ENDOFJOB
000293: 36,3056           52014        NOSOL              SET      GOTO
000294: 36,3057           02060                                    CONVSW
000295: 36,3060           75046                                    TIMECONV
000296: 36,3061           43206        ELIPLMTS           PUSH     DAD                                   #                                 PL AT 2D
000297: 36,3062           00021                                    16D
000298: 36,3063           51406                           PUSH     ABS                                   #                                 PL AT 4D
000299: 36,3064           44205                           DMP      BDSU                                  #                                 PL AT 2D
000300: 36,3065           35656                                    PERCENT
000301: 36,3066           77626                           STADR
000302: 36,3067           63744                           STODL    26D                                   #  26D=COGAMX (+5)
000303: 36,3070           00035                                    28D
000304: 36,3071           45261                           SR       DSU
000305: 36,3072           20607                                    6
000306: 36,3073           00037                                    30D
000307: 36,3074           14037                           STODL    30D                                   #  30D=CSTH-R (+7)
000308: 36,3075           00031                                    24D
000309: 36,3076           77742                           SR1
000310: 36,3077           14023                           STODL    18D
000311: 36,3100           00021                                    16D
000312: 36,3101           41425                           DSU      PUSH                                  #                                 PL AT 0D,2D
000313: 36,3102           41246                           ABS      DMP
000314: 36,3103           35656                                    PERCENT
000315: 36,3104           77615                           DAD                                            #                                 PL AT 0D
000316: 36,3105           77650                           GOTO
000317: 36,3106           74753                                    ABSMIN     +3
000318: 36,3107           52145        SPEEDY             DLOAD    GOTO
000319: 36,3110           35273                                    DZERO
000320: 36,3111           75016                                    ZOOM
000321:                                                                                                  #  V0VEC (+1) IN MPAC.
000322:


000324:                                                                                                  #  THIS SECTION CALCULATES THE SINE AND COSINE OF THE ANGLE BETWEEN R0VEC
000325:                                                                                                  #  AND R1VEC. THE SIGN OF SIN(TH) IS DETERMINED BY TAG5.  THE COSINE OF THE
000326:                                                                                                  #  ANGLE IS STORED IN 28D WHILE THE SINE IS IN MPAC AS WELL AS IN 24D, BOTH
000327:                                                                                                  #  ARE SCALED BY  (+2).
000328:
000329:
000330:                                                                                                  #  ASSUMES R0VEC (+7) , R1VEC (+7) , TAG5 (+/- ACCORDING TO ANGLE GREATER
000331:                                                                                                  #  OR LESS THAN 180 DEG) AVAILABLE.
000332: 36,3112           53575        DTPRD              VLOAD    UNIT
000333: 36,3113           01707                                    R0VEC
000334: 36,3114           15701                           STODL    UNR1
000335: 36,3115           00045                                    36D
000336: 36,3116           24041                           STOVL    32D                                   #  32D=R1 (+7)
000337: 36,3117           02365                                    R1VEC
000338: 36,3120           77702                           VSR4
000339: 36,3121           41456                           UNIT     PUSH                                  #  32D=R1 (+7)                    PL AT 6D
000340: 36,3122           72441                           DOT      SL1
000341: 36,3123           01701                                    UNR1
000342: 36,3124           24035                           STOVL    28D                                   #  28D=COS(TH) (+1)
000343: 36,3125           01701                                    UNR1
000344: 36,3126           76435                           VXV      VSL1                                  #                                 PL AT 0D
000345: 36,3127           75246                           ABVAL    SIGN
000346: 36,3130           03622                                    TAG5
000347: 36,3131           00031                           STORE    24D                                   #  24D=SIN(TH) (+1)
000348: 36,3132           77616                           RVQ
000349:
000350:                                                                                                  #           28D=COS(TH) (+1), 24D=SIN(TH) (+1)=MPAC.
000351:


000353:                                                                                                  #  THIS SECTION COMPUTES COT(TH/2) = (1+COS(TH))/SIN(TH) SCALED BY (+5),
000354:                                                                                                  #  AND STORES IT IN 16D.  NOTE THAT COT(TH/2) WILL OVERFLOW IF THE ANGLE
000355:                                                                                                  #  TH IS LESS THAN 3 DEG 35 MINUTES OR GREATER THAN 356 DEG 25 MINUTES.
000356:
000357:
000358:                                                                                                  #  ASSUMES SNTH(+1) IN MPAC, 28D=CSTH (+1).
000359: 36,3133           60254        CGTH               BZE      NORM                                  #  SNTH (+1-N1)
000360: 36,3134           75144                                    THISPI
000361: 36,3135           00047                                    X1
000362: 36,3136           70525                           PDDL     SR1
000363: 36,3137           00035                                    28D
000364: 36,3140           56215                           DAD      DDV                                   #                                 PL AT 0D
000365: 36,3141           35644                                    D1/4
000366: 36,3142           77657                           SL*
000367: 36,3143           20175                                    0          -4,1
000368: 36,3144           00021        THISPI             STORE    16D
000369: 36,3145           77616                           RVQ
000370:
000371:                                                                                                  #           COGTH (+5)=16D.
000372:


000374:                                                                                                  #  THIS SECTION USES COT(GAMMA),I.E. COGA (+5) AND P (+2) TO CALCULATE R1A
000375:                                                                                                  #  SCALED BY (+6) AND STORES THE RESULT IN 14D.
000376:
000377:
000378:                                                                                                  #  ASSUMES COGA=INDEP (+5), P (+2)=34D.
000379: 36,3146           63545        SMAR               DLOAD    DSQ
000380: 36,3147           01723                                    INDEP
000381: 36,3150           60215                           DAD      NORM
000382: 36,3151           35636                                    D1/1024
000383: 36,3152           00047                                    X1
000384: 36,3153           53605                           DMP      SR*
000385: 36,3154           00043                                    34D
000386: 36,3155           20573                                    0          -6,1
000387: 36,3156           40021                           BDSU     BOV
000388: 36,3157           35642                                    D1/32
000389: 36,3160           75107                                    SPEEDY
000390: 36,3161           00017        SMARSTOR           STORE    14D                                   #  14D=R1A (+6)
000391: 36,3162           77616                           RVQ
000392:
000393:
000394:                                                                                                  #  R1A (+6)=2-P(1+COGA*COGA) IN 14D.
000395:


000397:                                                                                                  #  ASSUMES 16D=COGTH (+5), INDEP=COGA(+5), 34D=P (+2), 14D= R1A (+6).
000398: 36,3163           45345        TRIGFNS            DLOAD    DSU
000399: 36,3164           00021                                    16D
000400: 36,3165           01723                                    INDEP
000401: 36,3166           00045                           STORE    36D                                   #  36D=DCOT=COT(TH/2)-COGA (+5)
000402:
000403: 36,3167           60316                           DSQ      NORM
000404: 36,3170           00047                                    X1
000405: 36,3171           70405                           DMP      SR1
000406: 36,3172           00043                                    34D
000407: 36,3173           51525                           PDDL     ABS                                   #  DCOT*DCOT (+13-N1)             PL AT 2D
000408: 36,3174           00017                                    14D
000409: 36,3175           55301                           NORM     BDDV                                  #  COGDS (+7-N1+N2)               PL AT 0D
000410: 36,3176           00051                                    S1
000411: 36,3177           53660                           XSU,1    SR*
000412: 36,3200           00050                                    S1
000413: 36,3201           20604                                    3,1
000414: 36,3202           77600                           BOV
000415: 36,3203           75343                                    COGDSOVF
000416: 36,3204           75206        COGDSTOR           PUSH     SIGN                                  #  COGDS (+10)
000417: 36,3205           00017                                    14D
000418: 36,3206           60215                           DAD      NORM
000419: 36,3207           35636                                    D1/1024
000420: 36,3210           00047                                    X1
000421: 36,3211           65265                           BDDV     PDDL                                  #  2D=1-CSD (-7+N1)               PL AT 4D
000422: 36,3212           35644                                    D1/4
000423: 36,3213           00001                                    0D
000424: 36,3214           60366                           SQRT     NORM
000425: 36,3215           00050                                    X2
000426: 36,3216           75205                           DMP      SIGN
000427: 36,3217           00003                                    2D
000428: 36,3220           00045                                    36D                                   #  SND=+-(1-CSD)SQRT(COGDS) (-2+N1-N2)
000429: 36,3221           43064                           XSU,2    BON
000430: 36,3222           00046                                    X1
000431: 36,3223           02305                                    ESCPSW
000432: 36,3224           75250                                    HYPTRIG                               #  DUE TO DIFFERENT SCALING
000433: 36,3225           65257                           SR*      PDDL                                  #  DXNGE WITH PD,2D=SND (+1)      PL AT 4D
000434: 36,3226           57173                                    3,2
000435: 36,3227           40057                           SL*      BOV
000436: 36,3230           20171                                    0          -8D,1
000437: 36,3231           75245                                    HALFCIRC
000438: 36,3232           57406        COSFN              PUSH     DCOMP                                 #  4D=(1-CSD)(+1)                 PL AT 6D
000439: 36,3233           65415                           DAD      ACOS
000440: 36,3234           35646                                    D1/2
000441: 36,3235           41365                           SIGN     DMP
000442: 36,3236           00045                                    36D
000443: 36,3237           05740                                    PI/4                                  #  CONVERT FROM CIRCLES TO RADIANS/8
000444: 36,3240           43244                           BPL      DAD
000445: 36,3241           75243                                    +2
000446: 36,3242           05740                                    PI/4


000448: 36,3243           00001                           STORE    0D                                    #  0D=DELTAE (+3)
000449: 36,3244           77616                           RVQ
000450:
000451:
000452: 36,3245           52145        HALFCIRC           DLOAD    GOTO
000453: 36,3246           35652                                    NEARI
000454: 36,3247           75232                                    COSFN
000455: 36,3250           57457        HYPTRIG            SR*      DCOMP
000456: 36,3251           57162                                    12D,2
000457: 36,3252           77725                           PDDL                                           #  DXNGE WITH PD,2D=SND (+10)     PL AT 4D
000458: 36,3253           41457                           SL*      PUSH
000459: 36,3254           20160                                    0          -17D,1                     #  4D=(1-CSD) (+10)               PL AT 6D
000460: 36,3255           43276                           DCOMP    DAD
000461: 36,3256           35636                                    D1/1024
000462: 36,3257           65342                           SR1      PDDL                                  #                                 PL AT 8D
000463: 36,3260           00003                                    2D
000464: 36,3261           43342                           SR1      DAD                                   #  ARG=COSH(DELG)+SINH(DELG) (+11)  PL AT 6D
000465:
000466: 36,3262           44301                           NORM     BDSU                                  #  THIS IS AN ARCSINH ROUTINE
000467: 36,3263           01676                                    SPLOC                                 #  ARG=.5-ARG (+11-N1)
000468: 36,3264           35646                                    D1/2
000469: 36,3265           77776                           EXIT
000470: 36,3266           34570        ARCSINH            CA       TEN
000471: 36,3267           27675                           ADS      SPLOC                                 #  C(SPLOC)=10-N1
000472: 36,3270           07274                           TC       POLY
000473: 36,3271           00011                           DEC      9          B-14
000474: 36,3272           00000 00000  DZERO              2DEC     .0
000475:
000476: 36,3274           00400 00000                     2DEC     .015625
000477:
000478: 36,3276           00400 00000                     2DEC     .015625
000479:
000480: 36,3300           00525 12525                     2DEC     .020833333
000481:
000482: 36,3302           01000 00000                     2DEC     .03125
000483:
000484: 36,3304           01463 06315                     2DEC     .05
000485:
000486: 36,3306           02525 12525                     2DEC     .083333333
000487:
000488: 36,3310           04444 22222                     2DEC     .14285714
000489:
000490: 36,3312           10000 00000                     2DEC     .25
000491:
000492: 36,3314           16161 30706                     2DEC     .44444444
000493:
000494: 36,3316           31463 06315                     2DEC     .8
000495:
000496: 36,3320           37767                           CAF      ZERO
000497:


000499: 36,3321           54146                           TS       MPAC       +2
000500: 36,3322           00006                           EXTEND
000501: 36,3323           33660                           DCA      LN2/128
000502: 36,3324           52145                           DXCH     MPAC                                  #  MPAC,+1 CONTAINS LN2/128
000503: 36,3325           53677                           DXCH     SPLOC      +1                         #  SPLOC+1,+2 CONTAINS LN(1/2-ARGS)/128
000504: 36,3326           31675                           CA       SPLOC
000505: 36,3327           07357                           TC       SHORTMP
000506: 36,3330           52146                           DXCH     MPAC       +1
000507: 36,3331           52145                           DXCH     MPAC                                  #  MPAC CONTAINS (10-N1)LN2/128
000508: 36,3332           53677                           DXCH     SPLOC      +1                         #  A,L CONTAIN LN(1/2-ARGS)/128
000509: 36,3333           00006                           EXTEND
000510: 36,3334           40001                           DCOM
000511: 36,3335           20145                           DAS      MPAC
000512: 36,3336           06112                           TC       INTPRET
000513: 36,3337           77661                           SR
000514: 36,3340           20606                                    5
000515: 36,3341           00001                           STORE    0D                                    #  0D=DELG (+12)                  PL AT 6D
000516: 36,3342           77616                           RVQ
000517:
000518:
000519: 36,3343           52145        COGDSOVF           DLOAD    GOTO
000520: 36,3344           35654                                    BIGNO                                 #  BIGNO=NEARONE-DP1/1024
000521: 36,3345           75204                                    COGDSTOR
000522:                                                                                                  #  RETURNS WITH 0D=DELE (+3) OR DELG(+12),,2D=SND (+1 OR +10),4D=1-CSD (+1
000523:                                                                                                  #  OR +10), AND PUSHLOC AT 6D
000524:


000526:                                                                                                  #  ASSUMES 14D=R1A (+6), 32D= R1 (+7)
000527: 36,3346           60345        SMA                DLOAD    NORM                                  #  THIS IS ESSENTIALLY A FLOATING POINT SUB
000528: 36,3347           00017                                    14D                                   #  C(SPLOC+1)=-N1
000529: 36,3350           01677                                    SPLOC      +1                         #  SPLOC LATER WILL BE STORED IN X1 FOR SHF
000530: 36,3351           60325                           PDDL     NORM
000531: 36,3352           00041                                    32D
000532: 36,3353           01676                                    SPLOC                                 #  C(SPLOC)=-N2
000533: 36,3354           56342                           SR1      DDV
000534: 36,3355           77446                           ABS      EXIT                                  #  ABS(R1/R1A) (+2+N1-N2)
000535: 36,3356           41676                           CS       SPLOC      +1
000536: 36,3357           61675                           AD       SPLOC
000537: 36,3360           55675                           TS       SPLOC
000538: 36,3361           54020                           TS       CYR
000539: 36,3362           30020                           CA       CYR
000540: 36,3363           60000                           DOUBLE
000541: 36,3364           54000                           OVSK
000542: 36,3365           13370                           TCF      EVEN
000543: 36,3366           37763        ODD                CA       ONE
000544: 36,3367           13371                           TCF      STORETAG
000545: 36,3370           37767        EVEN               CA       ZERO
000546: 36,3371           55676        STORETAG           TS       SPLOC      +1                         #  A TAG TO DESIGNATE ADDITIONAL SHIFTRIGHT
000547: 36,3372           27675                           ADS      SPLOC                                 #  C(SPLOC)=N1-N2+0 OR 1
000548: 36,3373           31675                           CA       SPLOC
000549: 36,3374           54021                           TS       SR
000550: 36,3375           60021                           AD       SR
000551: 36,3376           55675                           TS       SPLOC                                 #  C(SPLOC)=3(N1-N2+0 OR 1)/2
000552: 36,3377           06112                           TC       INTPRET
000553: 36,3400           53740                           LXC,1    SR*
000554: 36,3401           01676                                    SPLOC      +1
000555: 36,3402           20601                                    0,1
000556: 36,3403           73006                           PUSH     LXA,2                                 #  ABS(R1/R1A) (+2+N1-N2+0 OR 1)  PL DOWN 2
000557: 36,3404           01675                                    SPLOC                                 #  C(X2)=+3(N1-N2+0 OR 1)/2
000558: 36,3405           41366                           SQRT     DMP                                   #  ARG TO THE 3/2 POWER,SCALED +3+(3/2)(N1
000559:                                                                                                  #  -N2 +0 OR 1)                   PL UP 2
000560: 36,3406           41214                           BOFF     DMP
000561: 36,3407           02345                                    MOONSW
000562: 36,3410           75412                                    +2
000563: 36,3411           35662                                    ROOTMU
000564: 36,3412           00015                           STORE    12D                                   #  12D=SQRT(ABS(R1/R1A))ABS(R1/R1A)
000565: 36,3413           77616                           RVQ                                            #  SCALED (+3 OR +7)+(3/2)(N1-N2+0 OR 1)
000566:                                                                                                  #  SMA TO THE 3/2 POWER * ROOTMU IN 12D.
000567:                                                                                                  #  IF LSW1 SET, INSIDE SPHERE AND 12D SCALED +7+C(X2)
000568:                                                                                                  #  IF LSW1 OFF, OUTSIDE SPHERE AND 12D SCALED +3+C(X2)
000569:
000570:


000572:                                                                                                  #  THIS IS KEPLERS EQUATION FOR TIME-OF-FLIGHT BETWEEN TWO POINTS ON A
000573:                                                                                                  #  CONIC TRAJECTORY.  IT ASSUMES R1A (+6)=14D, P (+2)=34D, 1-CSD (+1,+10,-2
000574:                                                                                                  #  =4D, SND (+1,+10,-2)=2D, D (+3,+12,0)=0D.
000575:
000576: 36,3414           41345        DELTIME            DLOAD    DMP                                   #                                 PL AT 6D
000577: 36,3415           00043                                    34D
000578: 36,3416           00017                                    14D
000579: 36,3417           40061                           SL       BOV
000580: 36,3420           20207                                    6
000581: 36,3421           75107                                    SPEEDY
000582: 36,3422           75446                           ABS      SQRT
000583: 36,3423           77605                           DMP                                            #                                 PL AT 4D
000584: 36,3424           72205                           DMP      TLOAD
000585: 36,3425           01723                                    INDEP
000586: 36,3426           00145                                    MPAC                                  #  CHANGES MODE TO TP (00001).
000587: 36,3427           45325                           PDDL     DSU                                   #  SQRT(P ABS(R1A))(1-CSD)COGA (+7 OR 16)
000588: 36,3430           00017                                    14D                                   #                                 PL AT 7D
000589: 36,3431           35640                                    D1/64
000590: 36,3432           77605                           DMP
000591: 36,3433           00003                                    2D
000592: 36,3434           65351                           TLOAD    PDDL                                  #  (R1A-1)SND (+7 OR16)
000593: 36,3435           00145                                    MPAC                                  #  CHANGES MODE TO TP             PL AT 10D
000594: 36,3436           00001                                    0D
000595: 36,3437           76202                           SR4      TAD                                   #  PL PUSHES UP 3 SINCE TAD GOVERNS INSTEAD
000596: 36,3440           77771                           TAD                                            #  OF MODE. MODE REMAINS DP.      PL AT 7D,4D
000597: 36,3441           75301                           NORM     SIGN
000598: 36,3442           00047                                    X1
000599: 36,3443           00017                                    14D
000600: 36,3444           56005                           DMP      XAD,1                                 #  T (+(3 OR 7)+C(X2)+(7 OR 16)+C(X1))
000601: 36,3445           00015                                    12D
000602: 36,3446           00047                                    X2
000603: 36,3447           77614                           BON
000604: 36,3450           02305                                    SMANGLSW
000605: 36,3451           75502                                    THETASM
000606: 36,3452           43014                           BOFF     BOFF
000607: 36,3453           02345                                    MOONSW
000608: 36,3454           75465                                    NEARERTH
000609: 36,3455           02345                                    ESCPSW
000610: 36,3456           75462                                    +4
000611: 36,3457           52057                           SR*      GOTO
000612: 36,3460           20564                                    0          -13D,1
000613: 36,3461           75475                                    TMESTORE
000614: 36,3462           52057                           SR*      GOTO
000615: 36,3463           20575                                    0          -4,1
000616: 36,3464           75475                                    TMESTORE
000617: 36,3465           53614        NEARERTH           BOFF     SR*
000618: 36,3466           02345                                    ESCPSW
000619: 36,3467           75473                                    +4
000620: 36,3470           20570                                    0          -9D,1
000621: 36,3471           77650                           GOTO


000623: 36,3472           75475                                    TMESTORE
000624: 36,3473           77657                           SR*
000625: 36,3474           20601                                    0,1
000626: 36,3475           77600        TMESTORE           BOV
000627: 36,3476           75510                                    TIMELONG
000628: 36,3477           00015                           STORE    12D                                   #  12D=T (+10)
000629: 36,3500           43401                           SETPD    RVQ
000630: 36,3501           00001                                    0D
000631:
000632:
000633: 36,3502           42414        THETASM            BOFF     SL4                                   #  T (+7 +C(X1))
000634: 36,3503           02342                                    ITERSW
000635: 36,3504           75505                                    ERTHSFER
000636: 36,3505           52057        ERTHSFER           SR*      GOTO
000637: 36,3506           20604                                    3,1
000638: 36,3507           75475                                    TMESTORE
000639:
000640: 36,3510           52145        TIMELONG           DLOAD    GOTO
000641: 36,3511           35652                                    NEARI
000642: 36,3512           75477                                    TMESTORE   +2
000643:
000644:
000645:                                                                                                  #  T (+10) IN 12D  AND IN MPAC.
000646:
000647:


000649:                                                                                                  #  THIS IS A GENERAL NEWTON ITERATOR WHEREIN A STARTING INDEPENDENT VARIABL
000650:                                                                                                  #  IS INPUT AND THE CHANGE IN THE INDEPENDENT VARIABLE IS OUTPUT.  THE
000651:                                                                                                  #  BOUNDS OF THE INDEPENDENT VARIABLE,MAXINDEP AND MININDEP, MUST BE AVAILA
000652:                                                                                                  #  BLE AND SWITCH 7 MUST BE SET.  IF A GOOD GUESS TO INDEP IS KNOWN,
000653:                                                                                                  #  TWEEKIT SHOULD BE SET TO A SMALL FRACTION,DEPENDING ON HOW WELL INDEP IS
000654:                                                                                                  #  KNOWN.  OTHERWISE THE FIRST GUESS TO INDEP SHOULD BE .5(MAXINDEP+MININ-
000655:                                                                                                  #  DEP) AND TWEEKIT SHOULD BE SET TO .25. IT IS ASSUMED THAT THE CRITERIA
000656:                                                                                                  #  FOR EXITING FROM THE CALLING PROGRAMS LOOP IS IN THE CALLING PROGRAM.
000657:                                                                                                  #  THE DEPENDENT VARIABLE MUST BE IN DEPVAR AND THE PREVIOUS ONE MUST BE IN
000658:                                                                                                  #  PREVDEP.  THE SIGN OF TWEEKIT SOULD BE +/- ACCORDING TO WHETHER THE
000659:                                                                                                  #  SINGLE-VALUED FUNCTION IS MONOTONICLY INCREASING OR DECREASING.
000660:
000661:
000662: 36,3513           71214        ITERATOR           BONCLR   DLOAD
000663: 36,3514           02202                                    ITERSW
000664: 36,3515           75544                                    FRSTTIME
000665: 36,3516           01727                                    DEPVAR
000666: 36,3517           60225                           DSU      NORM
000667: 36,3520           01731                                    PREVDEP
000668: 36,3521           00047                                    X1
000669: 36,3522           70525                           PDDL     SR1                                   #                                 PL DOWN 2
000670: 36,3523           01733                                    DELDEP
000671: 36,3524           77671                           DDV                                            #                                 PL UP 2
000672: 36,3525           53605                           DMP      SL*
000673: 36,3526           01735                                    DELINDEP
000674: 36,3527           20202                                    1,1
000675: 36,3530           01735        NEWDELTA           STORE    DELINDEP
000676: 36,3531           71240                           BMN      DLOAD                                 #  NOW MUST CHECK TO SEE IF THIS DELTA CAN
000677: 36,3532           75556                                    MINCHECK                              #  CAUSE THE INDEPENDENT VARIABLE TO EXCEED
000678: 36,3533           00033                                    MAXINDEP                              #  ITS LIMITS.
000679: 36,3534           45225                           DSU      DSU
000680: 36,3535           01723                                    INDEP
000681: 36,3536           01735                                    DELINDEP
000682: 36,3537           50000                           BOV      BMN
000683: 36,3540           75570                                    XEEDULMT
000684: 36,3541           75570                                    XEEDULMT
000685: 36,3542           43545                           DLOAD    RVQ
000686: 36,3543           01735                                    DELINDEP
000687:
000688:
000689: 36,3544           41345        FRSTTIME           DLOAD    DMP
000690: 36,3545           00027                                    MININDEP
000691: 36,3546           01725                                    TWEEKIT                               #  TWEEKIT SHOULD BE SET  .25  IF THE FIRST
000692:                                                                                                  #  GUESS OF INDEP WAS .5(MAXINDEP+MININDEP)
000693: 36,3547           41325                           PDDL     DMP                                   #                                 DOWN 2D
000694: 36,3550           00033                                    MAXINDEP
000695: 36,3551           01725                                    TWEEKIT
000696: 36,3552           77625                           DSU                                            #                                 UP 2D


000698: 36,3553           52165                           SIGN     GOTO
000699: 36,3554           01733                                    DELDEP
000700: 36,3555           75530                                    NEWDELTA
000701: 36,3556           45345        MINCHECK           DLOAD    DSU
000702: 36,3557           00027                                    MININDEP
000703: 36,3560           01723                                    INDEP
000704: 36,3561           40025                           DSU      BOV
000705: 36,3562           01735                                    DELINDEP
000706: 36,3563           75575                                    XEEDLLMT
000707: 36,3564           71244                           BPL      DLOAD
000708: 36,3565           75575                                    XEEDLLMT
000709: 36,3566           01735                                    DELINDEP
000710: 36,3567           77616                           RVQ
000711:
000712:
000713: 36,3570           45345        XEEDULMT           DLOAD    DSU
000714: 36,3571           00033                                    MAXINDEP
000715: 36,3572           01723                                    INDEP
000716: 36,3573           01735                           STORE    DELINDEP
000717: 36,3574           77616                           RVQ
000718:
000719:
000720: 36,3575           45345        XEEDLLMT           DLOAD    DSU
000721: 36,3576           00027                                    MININDEP
000722: 36,3577           01723                                    INDEP
000723: 36,3600           01735                           STORE    DELINDEP
000724: 36,3601           77616                           RVQ
000725:
000726:


000728:                                                                                                  #  ASSUMES 32D=R (+7), 34D=P (+2), TAG5 (+/-), 18D=COGA (+5), UNR1 (+1), R2
000729:                                                                                                  #  VEC (+7) AVAILABLE.
000730: 36,3602           60345        INITV              DLOAD    NORM
000731: 36,3603           00041                                    32D
000732: 36,3604           00047                                    X1
000733: 36,3605           70525                           PDDL     SR1                                   #  R1 (+7-N1)                     PL AT 2D
000734: 36,3606           00043                                    34D
000735: 36,3607           77671                           DDV                                            #  P/R1 (-4+N1)                   PL AT 0D
000736: 36,3610           41214                           BOFF     DMP
000737: 36,3611           02345                                    MOONSW
000738: 36,3612           75617                                    OUTSIDE
000739: 36,3613           35664                                    MU
000740: 36,3614           52057                           SL*      GOTO
000741: 36,3615           20165                                    0          -12D,1
000742: 36,3616           75621                                    MAGVTAN
000743: 36,3617           77657        OUTSIDE            SL*
000744: 36,3620           20173                                    0          -6,1
000745: 36,3621           63366        MAGVTAN            SQRT     PDVL                                  #  V SIN(GAMMA) (+1)              PL AT 2D
000746:
000747: 36,3622           01701                                    UNR1
000748: 36,3623           63361                           VXSC     PDVL                                  #  2D=COGA UNR1 (+6)              PL AT 8D
000749: 36,3624           00023                                    18D
000750: 36,3625           01715                                    UNNORM
000751: 36,3626           60435                           VXV      VSR4                                  #  UNVTAN (+6)
000752: 36,3627           01701                                    UNR1
000753: 36,3630           74255                           VAD      VXSC                                  #                                 PL AT 2D,0D
000754: 36,3631           46561                           VXSC     VSL7
000755: 36,3632           35670                                    VFACT                                 #  SCALE FOR ASCENT STEERING AT +7
000756: 36,3633           02324                           STORE    V0VEC
000757: 36,3634           77616                           RVQ
000758:
000759:                                                                                                  #  RETURNS WITH VELOCITY IN MPAC AND IN V0VEC SCALED (+1)
000760:
000761:


000763: 36,3635           00020 00000  D1/1024            2DEC     .5         B-9
000764:
000765: 36,3637           00400 00000  D1/64              2DEC     .5         B-5
000766:
000767: 36,3641           01000 00000  D1/32              2DEC     .5         B-4
000768:
000769: 36,3643           10000 00000  D1/4               2DEC     .5         B-1
000770:
000771: 36,3645           20000 00000  D1/2               2DEC     .5
000772:


000776: 36,3647           00000 00001  NEARZERO           2OCT     1
000777:
000778: 36,3651           37777 37777  NEARI              2OCT     3777737777
000779:
000780: 36,3653           37757 37777  BIGNO              2OCT     3775737777
000781:
000782: 36,3655           00020 14223  PERCENT            2DEC     E-3        B-28
000783:
000784: 36,3657           00130 27103  LN2/128            2DEC     .693147181 B-7
000785:
000786: 36,3661           22031 22343  ROOTMU             2DEC     9.0249769  B-4
000787:
000788: 36,3663           31111 32405  MU                 2DEC     .0122774395 B+6
000789:
000790: 36,3665           40010 40042  ABSOLMIN           2DEC     -.999511590
000791:
000792: 36,3667           30276 05000  VFACT              2DEC     .761606218
000793:
000794: 36,3671  36,3667               TFACT              EQUALS   VFACT
000795: 36,3671           00000 00036  DEPCRIT            2DEC     1.135      E-7                        #  50 MS. SCALED BY TNORM

End of include-file LAMB.agc.  Parent file is MAIN.agc


