
Source Code


000002:                                                                                                  ## Copyright:   Public domain.
000003:                                                                                                  ## Filename:    LEM_FLIGHT_CONTROL_SYSTEM_TEST.agc
000004:                                                                                                  ## Purpose:     A module for revision 0 of BURST120 (Sunburst). It
000005:                                                                                                  ##              is part of the source code for the Lunar Module's
000006:                                                                                                  ##              (LM) Apollo Guidance Computer (AGC) for Apollo 5.
000007:                                                                                                  ## Assembler:   yaYUL
000008:                                                                                                  ## Contact:     Ron Burkey <info@sandroid.org>.
000009:                                                                                                  ## Website:     www.ibiblio.org/apollo/index.html
000010:                                                                                                  ## Mod history: 2016-09-30 RSB  Created draft version.
000011:                                                                                                  ##              2016-10-18 RSB  Corrected against AURORA 12 version,
000012:                                                                                                  ##                              with which it is seemingly identical other than
000013:                                                                                                  ##                              a handful of comments and EBANK= placements.
000014:


000016: 06,2736                                           BANK     6
000017: 06,2736  E4,1407                                  EBANK=   JETSTEP
000018:
000019:                                                                                                  #  LEM FCS TEST  ENTRY AND INITIALIZATION JOB.
000020:
000021:                                                                                                  #        THIS JOB INITIALIZES THE ERASABLE TABLES FOR THE FCS TEST AND PUTS THE FOLLOWING PROGRAMS UNDER
000022:                                                                                                  #  WAITLIST CONTROL.
000023:                                                                                                  #             (1) RCS JET SET TASK
000024:                                                                                                  #             (2) ENGINE ON - OFF TASK
000025:                                                                                                  #             (3) DESCENT ENGINE GIMBAL TRIM TASK
000026:                                                                                                  #             (4) DESCENT ENGINE THROTTLE TASK
000027:                                                                                                  #             (5) INTERFACE CONTROL CHANNEL LOOK TASK
000028:
000029:
000030: 06,2736           04644        FCSSTART           TC       GRABWAIT                              #  SO NOTHING DISRUPTS THE LOAD.
000031: 06,2737           33012                           CAF      JSTEPADR                              #  THE START OF THE LIST.
000032: 06,2740           10000        FCS3               CCS      A
000033: 06,2741           54146                           TS       MPAC       +2
000034: 06,2742           33015        FCS2               CAF      V04N01K                               #  DISPLAY PRESENT CONTENTS IN R2.
000035: 06,2743           04657                           TC       NVSBWAIT
000036: 06,2744           24146                           INCR     MPAC       +2
000037: 06,2745           33013                           CAF      V21N02K
000038: 06,2746           04657                           TC       NVSBWAIT                              #  IN CASE IT'S BUSY BUT IT SHOULDN'T BE.
000039: 06,2747           04475                           TC       ENDIDLE                               #  WHILE LOADING.
000040: 06,2750           02753                           TC       +3                                    #  V34E. TERMINATE LOAD OF THIS LIST
000041:                                                                                                  #  SECTION, GO TO NEW SECTION OR TO TEST.
000042: 06,2751           02752                           TC       +1                                    #  V33E. PRESENT CONTENTS OK, PROCEED TO
000043:                                                                                                  #  NEXT LOCATION IN LIST.
000044: 06,2752           02742                           TC       FCS2
000045: 06,2753           33014                           CAF      V21N30K
000046: 06,2754           04657                           TC       NVSBWAIT
000047: 06,2755           04475                           TC       ENDIDLE
000048: 06,2756           05566                           TC       EJFREE
000049: 06,2757           02762                           TC       FCSTEST1                              #  PROCEED TO TEST.
000050: 06,2760           30337                           CAE      DSPTEM1                               #  NEW ADDRESS.
000051: 06,2761           02740                           TC       FCS3
000052: 06,2762           33016        FCSTEST1           CAF      V47K
000053: 06,2763           04657                           TC       NVSBWAIT                              #  OUR VERB IN THE LIGHTS.
000054: 06,2764           00004        FCSTEST            INHINT
000055: 06,2765           37762                           CAF      TWO                                   #  20MS.
000056: 06,2766           05663                           TC       WAITLIST
000057: 06,2767  E4,1407                                  EBANK=   JETSTEP
000058: 06,2767           03023 14064                     2CADR    JETSTART
000059:
000060: 06,2771           37763                           CAF      BIT1                                  #  10MS.
000061: 06,2772           05663                           TC       WAITLIST
000062: 06,2773  E4,1407                                  EBANK=   JETSTEP


000064: 06,2773           03156 14064                     2CADR    ENGSTART
000065:
000066: 06,2775           36311                           CAF      THREE                                 #  30MS.
000067: 06,2776           05663                           TC       WAITLIST
000068: 06,2777  E4,1407                                  EBANK=   JETSTEP
000069: 06,2777           03253 14064                     2CADR    TRIMTOP
000070:
000071: 06,3001           37761                           CAF      FOUR                                  #  40MS.
000072: 06,3002           05663                           TC       WAITLIST
000073: 06,3003  E4,1407                                  EBANK=   JETSTEP
000074: 06,3003           03373 14064                     2CADR    THRSTART
000075:
000076: 06,3005           37766                           CAF      FIVE                                  #  50MS.
000077: 06,3006           05663                           TC       WAITLIST
000078: 06,3007  E4,1407                                  EBANK=   JETSTEP
000079: 06,3007           03461 14064                     2CADR    LOOKTOP
000080:
000081: 06,3011           05566                           TC       EJFREE                                #  NOW THEY START.
000082:
000083: 06,3012           02007        JSTEPADR           ECADR    JETSTEP
000084: 06,3013           02102        V21N02K            OCT      02102
000085: 06,3014           02130        V21N30K            OCT      02130
000086: 06,3015           00401        V04N01K            OCT      00401
000087: 06,3016           04700        V47K               OCT      04700
000088:


000090:                                                                                                  #  LEM FCS TEST   RCS JETSET TASK
000091:                                                                                                  #      THIS JOB ISSUES A PROFILE OF  JET ON-OFF SIGNALS AS DETERMINED BY THE CONSTANTS IN A SET OF SIX REGISTERS.
000092:                                                                                                  #  THE SIX REGISTERS ARE, (1) NTIMES, THE NUMBER OF TIMES A PARTICULAR STEP WILL BE PERFORMED. (2) NEXTTIME, THE
000093:                                                                                                  #  TIME BETWEEN STEPS, A MAXIMUM OF 2 MINUTES, (3) JETONTM, THE TIME TO TURN THE JETS ON, SCALED FOR T3, (4) JET-
000094:                                                                                                  #  OFFTM, THE TIME AFTER ONTM TO TURN THE JETS OFF, (5) XJETS, THE PARTICULAR X JETS TO BE TURNED ON AND OFF
000095:                                                                                                  #  DURING EACH REPEAT OF A STEP, AND (6) YZJETS,, THE Y AND Z JETS TO BE TURNED ON AND OFF DURING EACH REPEAT OF A
000096:                                                                                                  #  STEP.  XJETS AND YZJETS MUST BE IN THE SAME FORMAT AS CHANNELS 5 AND6 RESPECTIVELY.  THERE ARE EIGHT SETS OF
000097:                                                                                                  #  THESE SIX REGISTERS.
000098:                                                                                                  #      THE REGISTER JETSTEP IS USED TO INDEX THE 8 SETS OF REGISTERS, THE ALLOWABLE VALUES OF JETSTEP ARE +0 THRU 7
000099:                                                                                                  #      THIS JOB WILL BE ENTERED BUT IMMEDIATELY ENDED IF THE INITIAL VALUES OF JETSTEP AND NTIMES ARE +0.
000100:
000101:
000102: 06,3017           11407        NEXTSET            CCS      JETSTEP                               #  IT MAY BE ZERO.
000103: 06,3020           03022                           TC       +2                                    #  NOPE
000104: 06,3021           05727                           TC       TASKOVER                              #  IT IS SO WE ARE DONE WITH THIS TASK.
000105: 06,3022           55407                           TS       JETSTEP
000106:
000107: 06,3023           51407        JETSTART           NDX      JETSTEP                               #  ENTER HERE.
000108: 06,3024           11410                           CCS      NTIMES                                #  SEE IF THIS STEP IS FINISHED.
000109: 06,3025           03027                           TC       +2                                    #  NO
000110: 06,3026           03017                           TC       NEXTSET                               #  YES
000111: 06,3027           51407                           NDX      JETSTEP
000112: 06,3030           31420                           CAE      NEXTTIME                              #  MUST BE SCALED FOR T3.  REMEMBER TO BIAS
000113:                                                                                                  #  THIS FOR ON TIME.
000114: 06,3031           05663                           TC       WAITLIST
000115: 06,3032  E4,1407                                  EBANK=   JETSTEP
000116: 06,3032           03046 14064                     2CADR    JTOP
000117:
000118: 06,3034           05727                           TC       TASKOVER
000119:
000120: 06,3035           37767        JETOFF             CAF      ZERO
000121: 06,3036           00006                           EXTEND
000122: 06,3037           01005                           WRITE    5
000123: 06,3040           00006                           EXTEND
000124: 06,3041           01006                           WRITE    6
000125: 06,3042           51407                           NDX      JETSTEP
000126: 06,3043           11410                           CCS      NTIMES
000127: 06,3044           51407                           NDX      JETSTEP
000128: 06,3045           55410                           TS       NTIMES                                #  ONE LESS TIME.
000129: 06,3046           51407        JTOP               NDX      JETSTEP
000130: 06,3047           11410                           CCS      NTIMES                                #  FOR LOOPING.
000131: 06,3050           03052                           TC       +2
000132: 06,3051           03017                           TC       NEXTSET
000133: 06,3052           51407                           NDX      JETSTEP
000134: 06,3053           31430                           CAE      JETONTM                               #  SCALED FOR T3.  TIME FOR JETS ON.
000135: 06,3054           05663                           TC       WAITLIST
000136: 06,3055  E4,1407                                  EBANK=   JETSTEP
000137: 06,3055           03060 14064                     2CADR    JETON
000138:


000140: 06,3057           05727                           TC       TASKOVER
000141:
000142: 06,3060           51407        JETON              NDX      JETSTEP
000143: 06,3061           31440                           CAE      XJETS                                 #  MUST BE IN CHANNEL 5 FORMAT.
000144: 06,3062           55401                           TS       XJBUF
000145: 06,3063           51407                           NDX      JETSTEP
000146: 06,3064           31450                           CAE      YZJETS                                #  MUST BE IN CHANNEL 6 FORMAT.
000147: 06,3065           55402                           TS       YZJBUF
000148: 06,3066           00006        JFAILCK            EXTEND                                         #  THIS ROUTINE EXAMINES EACH JETFAIL BIT
000149: 06,3067           00032                           READ     32                                    #  AND IF A FAILURE IS INDICATED THE CORRES
000150: 06,3070           40000                           COM                                            #  PONDING COMMANDS ARE MASKED OUT .
000151: 06,3071           55403                           TS       JFBUF                                 #  SAVE 32 REINVERTED.
000152: 06,3072           37765                           CAF      SEVEN
000153: 06,3073           55404        JF3                TS       FCNTR
000154: 06,3074           31403                           CAE      JFBUF
000155: 06,3075           51404                           NDX      FCNTR
000156: 06,3076           77754                           MASK     BIT8
000157: 06,3077           10000                           CCS      A
000158: 06,3100           03117                           TC       JFAIL
000159: 06,3101           11404        JFAIL1             CCS      FCNTR
000160: 06,3102           03073                           TC       JF3
000161: 06,3103           31401                           CAE      XJBUF
000162: 06,3104           00006                           EXTEND
000163: 06,3105           01005                           WRITE    5                                     #  XJETS GO ON.
000164: 06,3106           31402                           CAE      YZJBUF
000165: 06,3107           00006                           EXTEND
000166: 06,3110           01006                           WRITE    6                                     #  YZJETS GO ON.
000167: 06,3111           51407                           NDX      JETSTEP
000168: 06,3112           31460                           CAE      JETOFFTM                              #  JET OFF TIME SCALED FOR T3.
000169: 06,3113           05663                           TC       WAITLIST
000170: 06,3114  E4,1407                                  EBANK=   JETSTEP
000171: 06,3114           03035 14064                     2CADR    JETOFF
000172:
000173: 06,3116           05727                           TC       TASKOVER
000174:
000175: 06,3117           51404        JFAIL              NDX      FCNTR
000176: 06,3120           43142                           CS       XJETMASK
000177: 06,3121           71401                           MASK     XJBUF
000178: 06,3122           55401                           TS       XJBUF
000179: 06,3123           51404                           NDX      FCNTR
000180: 06,3124           43132                           CS       YZJETMSK
000181: 06,3125           71402                           MASK     YZJBUF
000182: 06,3126           55402                           TS       YZJBUF
000183: 06,3127           04755                           TC       ALARM
000184: 06,3130           01410                           OCT      01410                                 #  TEMPORARY JET FAIL ALARM CODE.
000185: 06,3131           03101                           TC       JFAIL1
000186:


000188: 06,3132           00010        YZJETMSK           OCT      00010                                 #  JET 11
000189: 06,3133           00020                           OCT      00020                                 #  JET 12
000190: 06,3134           00004                           OCT      00004                                 #  JET 15
000191: 06,3135           00200                           OCT      00200                                 #  JET 16
000192: 06,3136           00001                           OCT      00001                                 #  JET 7
000193: 06,3137           00002                           OCT      00002                                 #  JET 3
000194: 06,3140           00040                           OCT      00040                                 #  JET 8
000195: 06,3141           00100                           OCT      00100                                 #  JET 4
000196:
000197: 06,3142           00040        XJETMASK           OCT      00040                                 #  JET 10
000198: 06,3143           00020                           OCT      00020                                 #  JET 9
000199: 06,3144           00100                           OCT      00100                                 #  JET 13
000200: 06,3145           00200                           OCT      00200                                 #  JET 14
000201: 06,3146           00010                           OCT      00010                                 #  JET 6
000202: 06,3147           00001                           OCT      00001                                 #  JET 1
000203: 06,3150           00004                           OCT      00004                                 #  JET 5
000204: 06,3151           00002                           OCT      00002                                 #  JET 2
000205:


000207:                                                                                                  #  LEM FCS TEST  ENGINE ON - OFF TASK
000208:                                                                                                  #  THIS TASK TURNS THE LEM ASCENT OR DESCENT ENGINE ON AND OFF ACCORDING TOTHE CONSTANTS STORED IN THE FIVE SETS OF
000209:                                                                                                  #  REGISTERS, (1) CYLTIMES, WHICH CONTAINS THE NUMBER OF TIMES A PARTICULARSTEP WILL BE REPEATED, (2) NEXTCYLT,
000210:                                                                                                  #   WHICH CONTAINS THE TIME BETWEEN STEPS SCALED FOR T3, (3) ONTIME, WHICH CONTAINS THE TIME TO TURN THE ENGINE ON
000211:                                                                                                  #  WHICH ALSO DETERMINES THE LENGTH OF TIME THE ENGINE WILL BE OFF WITHIN A SERIES OF ON:OFF CYCLES, (4) OFFTIME,
000212:                                                                                                  #   WHICH CONTAINS THE NUMBER OF 2 MINUTES BEFORE THE ENGINE WILL BE TURNED OFF, AND (5) OFFTIMER, WHICH
000213:                                                                                                  #  CONTAINS THE RESIDUAL TIME BEFORE THE ENGINE WILL BE TURNED OFF.  OFFTIME AND OFFTIMER DETERMINE THE LENGTH
000214:                                                                                                  #  OF TIME THE ENGINE WILL BE ON IN ANY ONE CYCLE. THERE ARE THREE SETS OF THESE REGISTERS.
000215:                                                                                                  #      THE ENGSTEP REGISTER IS USED AS AN INDEX TO PICK UP A PARTICULAR SET  OF THE ABOVE 5 REGISTERS.  THIS TASK
000216:                                                                                                  #  WILL BE ENTERED BUT IMMEDIATELY ENDED IF ENGSTEP AND CYLTIMES = +0.     THE ALLOWABLE VALUES OF ENGSTEP ARE +0,
000217:                                                                                                  #  1 AND 2.
000218:
000219:
000220: 06,3152           11470        NXTONOFF           CCS      ENGSTEP
000221: 06,3153           03155                           TC       +2
000222: 06,3154           05727                           TC       TASKOVER                              #  EXIT HERE WHEN STEP AND CYL ARE +0.
000223: 06,3155           55470                           TS       ENGSTEP                               #  ONE LESS.
000224:
000225: 06,3156           51470        ENGSTART           NDX      ENGSTEP                               #  ENTER HERE.
000226: 06,3157           11471                           CCS      CYLTIMES                              #  NUM OF EACH  ON/OFF SET
000227: 06,3160           03162                           TC       +2
000228: 06,3161           03152                           TC       NXTONOFF                              #  NO MORE OF THIS SET
000229: 06,3162           51470                           NDX      ENGSTEP
000230: 06,3163           31474                           CAE      NEXTCYLT                              #  START OF NEXT CYCLE.
000231: 06,3164           05663                           TC       WAITLIST
000232: 06,3165  E4,1470                                  EBANK=   ENGSTEP
000233: 06,3165           03206 14064                     2CADR    ENGONTM
000234:
000235: 06,3167           05727                           TC       TASKOVER
000236:
000237: 06,3170           45210        ENGRESET           CS       PRIO30                                #  BITS 13 AND 14.
000238: 06,3171           00006                           EXTEND
000239: 06,3172           02011                           RAND     11
000240: 06,3173           67746                           AD       BIT14
000241: 06,3174           00006                           EXTEND
000242: 06,3175           01011                           WRITE    11                                    #  ENG ON = 0, ENG OFF = 1.
000243: 06,3176           51470                           NDX      ENGSTEP
000244: 06,3177           11471                           CCS      CYLTIMES
000245: 06,3200           10000                           CCS      A
000246: 06,3201           03203                           TC       +2
000247: 06,3202           03152                           TC       NXTONOFF                              #  WAS ONE.
000248: 06,3203           67763                           AD       ONE                                   #  WAS MORE THAN ONE.
000249: 06,3204           51470                           NDX      ENGSTEP
000250: 06,3205           55471                           TS       CYLTIMES
000251:
000252: 06,3206           51470        ENGONTM            NDX      ENGSTEP
000253: 06,3207           31502                           CAE      OFFTIME
000254: 06,3210           55406                           TS       OFFTMBUF
000255: 06,3211           51470                           NDX      ENGSTEP


000257: 06,3212           31477                           CAE      ONTIME
000258: 06,3213           05663                           TC       WAITLIST
000259: 06,3214  E4,1470                                  EBANK=   ENGSTEP
000260: 06,3214           03217 14064                     2CADR    ENGSET
000261:
000262: 06,3216           05727                           TC       TASKOVER
000263:
000264: 06,3217           45210        ENGSET             CS       PRIO30
000265: 06,3220           00006                           EXTEND
000266: 06,3221           02011                           RAND     11
000267: 06,3222           67747                           AD       BIT13
000268: 06,3223           00006                           EXTEND
000269: 06,3224           01011                           WRITE    11                                    #  ENG ON = 1, ENG OFF = 0.
000270: 06,3225           11406        ENGRST             CCS      OFFTMBUF
000271: 06,3226           03235                           TC       LTIMEON                               #  AT LEAST 2MIN. BEFORE ENGINE OFF.
000272: 06,3227           51470                           NDX      ENGSTEP
000273: 06,3230           31505                           CAE      OFFTIMER                              #  LESS THAN 2MIN. TO ENGINE OFF.
000274: 06,3231           05663                           TC       WAITLIST
000275: 06,3232  E4,1470                                  EBANK=   ENGSTEP
000276: 06,3232           03170 14064                     2CADR    ENGRESET
000277:
000278: 06,3234           05727                           TC       TASKOVER
000279:
000280: 06,3235           11406        LTIMEON            CCS      OFFTMBUF                              #  IS THERE ANY MORE.
000281: 06,3236           03240                           TC       +2                                    #  YES.
000282: 06,3237           03225                           TC       ENGRST                                #  NO.
000283: 06,3240           55406                           TS       OFFTMBUF                              #  ONE LESS.
000284: 06,3241           33246                           CAF      2MIN
000285: 06,3242           05663                           TC       WAITLIST
000286: 06,3243  E4,1470                                  EBANK=   ENGSTEP
000287: 06,3243           03235 14064                     2CADR    LTIMEON
000288:
000289: 06,3245           05727                           TC       TASKOVER
000290:
000291: 06,3246           27340        2MIN               DEC      12000      B-14
000292:


000294:                                                                                                  #  LEM FCS TEST  TRIM TASK
000295:                                                                                                  #  THIS PROGRAM ISSUES A PROFILE OF PITCH AND ROLL TRIM COMMANDS TO THE LEM DESCENT ENGINE GIMBAL IN ACCORDANCEWITH
000296:                                                                                                  #  THE VALUE S IN THE TRIMSTEP REGISTER AND THE 12 SETS OF 5 REGISTERS CALLED NUMTIMES, STEPDLYT, TRIMONT, TRIMOFFT
000297:                                                                                                  #  AND TRIMIND.  TRIMSTEP IS USED TO PICK UP A PARTICULAR SET OF THE 5 REGISTERS AND HAS ALLOWABLE VALUES FROM +0
000298:                                                                                                  #  THROUGH +11 DECIMAL.  THE 5 REGISTERS IN EACH SET ARE DEFINED AS FOLLOWS
000299:                                                                                                  #      (1) NUMTIMES DETERMINES THE NUMBER OF TIMES THE COMMAND IN TRIMIND  WILL BE ISSUED.  VALUES FROM +0 TO
000300:                                                                                                  #  OCT 37777 ARE PERMITTED.
000301:                                                                                                  #      (2) STEPDLYT DETERMINES THE TIME BETWEEN THE START OF A STEP AND THE BEGINNING OF TRIMONT.  STEPDLYT MUST BE
000302:                                                                                                  #  FORMATTED FOR T3, ITS MAXIMUM VALUE IS 2 MINUTES.
000303:                                                                                                  #      (3) TRIMONT DETERMINES THE TIME BETWEEN THE END OF STEPDLYT OR TRIMOFFT AND THE TIME THE TRIM COMMANDS ARE
000304:                                                                                                  #  ISSUED.  IT MUST BE FORMATTED FOR T3.
000305:                                                                                                  #      (4) TRIMOFFT DETERMINES THE LENGTH OF TIME THE TRIM COMMAND WILL BE ON, FORMATTED FOR T3.
000306:                                                                                                  #      (5) TRIMIND DETERMINES THE PITCH AND ROLL COMMAND TO BE ISSUED.  THE FORMAT IS, BIT9=1=+ PITCH COMMAND,
000307:                                                                                                  #  BIT10=1=-PITCH, BIT11=1= +ROLL, BIT12=1= -ROLL.  A BIT=0 INDICATES NO COMMAND.  ANY COMBINATION OF COMMANDS IS
000308:                                                                                                  #  PERMITTED.
000309:                                                                                                  #     THIS TASK WILL BE ENTERED BUT IMMEDIATELY ENDED IF TRIMSTEP AND NUMTIMES = +0.
000310:
000311:
000312: 06,3247           11510        NEXTTRIM           CCS      TRIMSTEP
000313: 06,3250           03252                           TC       +2
000314: 06,3251           05727                           TC       TASKOVER                              #  EXIT HERE.
000315: 06,3252           55510                           TS       TRIMSTEP                              #  LESS ONE.
000316:
000317: 06,3253           51510        TRIMTOP            NDX      TRIMSTEP                              #  ENTER HERE.
000318: 06,3254           11511                           CCS      NUMTIMES
000319: 06,3255           03257                           TC       +2
000320: 06,3256           03247                           TC       NEXTTRIM
000321: 06,3257           51510                           NDX      TRIMSTEP
000322: 06,3260           31525                           CAE      STEPDLYT
000323: 06,3261           05663                           TC       WAITLIST
000324: 06,3262  E4,1510                                  EBANK=   TRIMSTEP
000325: 06,3262           03300 14064                     2CADR    TRIMSET
000326:
000327: 06,3264           05727                           TC       TASKOVER
000328:
000329: 06,3265           43364        TRIMOFF            CS       TRIMMASK
000330: 06,3266           00006                           EXTEND
000331: 06,3267           03012                           WAND     12                                    #  TRIM GOES OFF.
000332: 06,3270           51510        NUMSTEP            NDX      TRIMSTEP
000333: 06,3271           11511                           CCS      NUMTIMES
000334: 06,3272           10000                           CCS      A
000335: 06,3273           03275                           TC       +2
000336: 06,3274           03247                           TC       NEXTTRIM                              #  WAS ONE.
000337: 06,3275           67763                           AD       ONE
000338: 06,3276           51510                           NDX      TRIMSTEP
000339: 06,3277           55511                           TS       NUMTIMES
000340: 06,3300           51510        TRIMSET            NDX      TRIMSTEP
000341: 06,3301           31541                           CAE      TRIMONT
000342: 06,3302           05663                           TC       WAITLIST


000344: 06,3303  E4,1510                                  EBANK=   TRIMSTEP
000345: 06,3303           03306 14064                     2CADR    TRIMON
000346:
000347: 06,3305           05727                           TC       TASKOVER
000348:
000349: 06,3306           33363        TRIMON             CAF      BITS9,10                              #  CHECK PITCH AND ROLL TRIM FAIL BITS.
000350: 06,3307           00006                           EXTEND
000351: 06,3310           06032                           RXOR     32
000352: 06,3311           73363                           MASK     BITS9,10
000353: 06,3312           00006                           EXTEND
000354: 06,3313           13321                           BZF      TRIMON1
000355: 06,3314           35656                           CAF      PRIO35                                #  FAIL IS ON. FLASH FAIL CODE (01400) AND
000356: 06,3315           05505                           TC       NOVAC                                 #  IDLE UNTIL SOMEONE RESETS IT, TERMINATES
000357: 06,3316  E4,1407                                  EBANK=   JETSTEP
000358: 06,3316           03334 14064                     2CADR    PERFORM                               #  THE TASK, OR DECIDES TO PROCEED WITH IT.
000359:
000360: 06,3320           05727                           TC       TASKOVER
000361:
000362: 06,3321           51510        TRIMON1            NDX      TRIMSTEP
000363: 06,3322           31571                           CAE      TRIMIND
000364: 06,3323           73364                           MASK     TRIMMASK                              #  SAFETY PLAY
000365: 06,3324           00006                           EXTEND
000366: 06,3325           05012                           WOR      12                                    #  TRIM STARTS.
000367: 06,3326           51510                           NDX      TRIMSTEP
000368: 06,3327           31555                           CAE      TRIMOFFT
000369: 06,3330           05663                           TC       WAITLIST
000370: 06,3331  E4,1510                                  EBANK=   TRIMSTEP
000371: 06,3331           03265 14064                     2CADR    TRIMOFF
000372:
000373: 06,3333           05727                           TC       TASKOVER
000374:
000375: 06,3334           04644        PERFORM            TC       GRABWAIT                              #  KEY RELEASE MAY COME ON.
000376: 06,3335           33363                           CAF      TRIMCODE                              #  01400
000377: 06,3336           54337                           TS       DSPTEM1
000378: 06,3337           33365                           CAF      V01N25K
000379: 06,3340           04657                           TC       NVSBWAIT
000380: 06,3341           33366                           CAF      V50K                                  #  PLEASE PERFORM.
000381: 06,3342           04657                           TC       NVSBWAIT
000382: 06,3343           04622                           TC       FLASHON                               #  ANY RESPONSE TURNS IT OFF.
000383: 06,3344           04475                           TC       ENDIDLE                               #  WAIT FOR SOMEONE TO DO SOMETHING.
000384: 06,3345           05566                           TC       EJFREE                                #  V34E. TERMINATE THE TASK.
000385: 06,3346           03355                           TC       TR1                                   #  V33E. PROCEED WITH THE FAIL ON.
000386: 06,3347           00004                           INHINT                                         #  ENTER. THE FAIL HAS BEEN RESET.
000387: 06,3350           37762                           CAF      BIT2                                  #  20MS.
000388: 06,3351           05663                           TC       WAITLIST
000389: 06,3352           03306 14064                     2CADR    TRIMON                                #  CHECK AGAIN TO BE SURE, THEN PROCEED..
000390:
000391: 06,3354           05566                           TC       EJFREE
000392:


000394: 06,3355           00004        TR1                INHINT                                         #  PROCEED WITH THE FAIL.
000395: 06,3356           37762                           CAF      BIT2                                  #  20MS.
000396: 06,3357           05663                           TC       WAITLIST
000397: 06,3360  E4,1407                                  EBANK=   JETSTEP
000398: 06,3360           03321 14064                     2CADR    TRIMON1                               #  BYPASS THE RECHECK.
000399:
000400: 06,3362           05566                           TC       EJFREE
000401:
000402: 06,3363           01400        BITS9,10           OCT      01400
000403: 06,3364  06,3363               TRIMCODE           EQUALS   BITS9,10
000404: 06,3364           07400        TRIMMASK           OCT      07400
000405: 06,3365           00125        V01N25K            OCT      00125
000406: 06,3366           05000        V50K               OCT      05000
000407:


000409:                                                                                                  #  LEM FCS TEST  THROTTLE TASK
000410:                                                                                                  #     THIS PROGRAM ISSUES A PROFILE OF THROTTLE COMMANDS TO THE LEM DESCENT ENGINE.  THE PROFILE IS DETERMINED BY
000411:                                                                                                  #  THE VALUES IN THE THRTSTEP REGISTER AND THE 6  SETS OF REGISTERS, 5 PER SET, CALLED  DOTIMES, DELAY, THR1TIME,
000412:                                                                                                  #  THCOMM1 AND THCOMM2.  THE THRTSTEP REGISTER VALUE IS USED TO INDEX THE  6  SETS OF 5 REGISTERS AND HAS ALLOWABLE
000413:                                                                                                  #  VALUES OF +0 THROUGH +5.  THE 5 REGISTERS PER SET ARE DEFINED AS FOLLOWS
000414:                                                                                                  #      (1) DOTIMES DETERMINES THE NUMBER OF TIMES THE THROTTLE WILL BE EXERCISED AS PER THE VALUES OF THR1TIME,
000415:                                                                                                  #  THCOMM1 AND THCOMM2 OF THE CURRENT STEP.  IT HAS ALLOWABLE VALUES OF +0 THROUGH 37777 OCT.
000416:                                                                                                  #      (2) DELAY DETERMINES THE TIME BETWEEN THE START OF A STEP AND THE BE GINNING OF THR1TIME. ITIS CALLED ONLY
000417:                                                                                                  #  ONCE PER STEP,I.E., REPEATS OF THE SAME THCOMM1 AND THCOMM2 START AT THR1TIME.  DELAY MUST BE FORMATTED FOR T3
000418:                                                                                                  #  AND HENCE HAS A MAXIMUM VALUE OF 2 MINUTES.
000419:                                                                                                  #      (3) THR1TIME DETERMINES THE TIME BETWEEN THE END OF DELAY OR THE END   OF THCOMM2 AND THE START OF
000420:                                                                                                  #  THCOMM1.  IT MUST BE FORMATTED FOR T3.
000421:                                                                                                  #      (4) THCOMM1 AND (5) THCOMM2 DETERMINE THE NUMBER OF THRUST INCREASE  OR DECREASE PULSES TOBE ISSUED AT A
000422:                                                                                                  #  3.2KPPS RATE.  THE RANGE OF POSSIBLE VALUES OF EITHER IS FROM POSMAX (OCT 37777) TO NEGMAX (OCT 40000) ALTHOUGH
000423:                                                                                                  #  THE ACTUAL THROTTLE RANGE IS FROM OCT 6116 TO OCT 71661 (+,- 3150 DEC).
000424:                                                                                                  #     THIS TASK WILL BE ENTERED BUT IMMEDIATELY ENDED IF THE INITIAL VALUES OF THRTSTEP AND DOTIMES ARE +0.
000425:
000426:
000427: 06,3367           11605        NEXTTHRT           CCS      THRTSTEP
000428: 06,3370           03372                           TC       +2
000429: 06,3371           05727                           TC       TASKOVER                              #  EXIT HERE.
000430: 06,3372           55605                           TS       THRTSTEP
000431:
000432: 06,3373           51605        THRSTART           NDX      THRTSTEP                              #  ENTER HERE.
000433: 06,3374           11606                           CCS      DOTIMES                               #  NUMBER OF TIMES COMMANDS 1 AND 2 DONE.
000434: 06,3375           03377                           TC       +2
000435: 06,3376           03367                           TC       NEXTTHRT
000436: 06,3377           51605                           NDX      THRTSTEP
000437: 06,3400           31614                           CAE      DELAY                                 #  TIME BETWEEN STEPS.  BIAS FOR THR1TIME.
000438:                                                                                                  #  MUST BE SCALED FOR T3.
000439: 06,3401           05663                           TC       WAITLIST
000440: 06,3402  E4,1605                                  EBANK=   THRTSTEP
000441: 06,3402           03425 14064                     2CADR    THROTON1
000442:
000443: 06,3404           05727                           TC       TASKOVER
000444:
000445: 06,3405           51605        THR2COMM           NDX      THRTSTEP
000446: 06,3406           31636                           CAE      THCOMM2                               #  SAME REMARKS AS FOR THCOMM1.
000447: 06,3407           03443                           TC       THROTON
000448: 06,3410           67763                           AD       BIT1                                  #  10MS IN CASE OF NO THCOMM2.
000449: 06,3411           05663                           TC       WAITLIST
000450: 06,3412  E4,1605                                  EBANK=   THRTSTEP
000451: 06,3412           03415 14064                     2CADR    CKDOTIME
000452:
000453: 06,3414           05727                           TC       TASKOVER
000454:
000455: 06,3415           51605        CKDOTIME           NDX      THRTSTEP
000456: 06,3416           11606                           CCS      DOTIMES
000457: 06,3417           10000                           CCS      A


000459: 06,3420           03422                           TC       +2
000460: 06,3421           03367                           TC       NEXTTHRT                              #  WAS ONE.
000461: 06,3422           67763                           AD       ONE
000462: 06,3423           51605                           NDX      THRTSTEP
000463: 06,3424           55606                           TS       DOTIMES
000464: 06,3425           51605        THROTON1           NDX      THRTSTEP
000465: 06,3426           31622                           CAE      THR1TIME                              #  TIME BETWEEN DOTIMES.  SCALED FOR T3.
000466: 06,3427           05663                           TC       WAITLIST
000467: 06,3430  E4,1605                                  EBANK=   THRTSTEP
000468: 06,3430           03433 14064                     2CADR    THR1COMM
000469:
000470: 06,3432           05727                           TC       TASKOVER
000471:
000472: 06,3433           51605        THR1COMM           NDX      THRTSTEP
000473: 06,3434           31630                           CAE      THCOMM1                               #  SHOULD BE NO LARGER THAN 3150DEC.
000474: 06,3435           03443                           TC       THROTON
000475: 06,3436           63460                           AD       250MS                                 #  SO ACE CAN SAMPLE.
000476: 06,3437           05663                           TC       WAITLIST
000477: 06,3440  E4,1605                                  EBANK=   THRTSTEP
000478: 06,3440           03405 14064                     2CADR    THR2COMM
000479:
000480: 06,3442           05727                           TC       TASKOVER
000481:
000482: 06,3443           54055        THROTON            TS       THRUST                                #  THROTTLE OUTPUT COUNTER.
000483: 06,3444           55405                           TS       THBUF                                 #  SAVE FOR BZMF.
000484: 06,3445           37760                           CAF      BIT4
000485: 06,3446           00006                           EXTEND
000486: 06,3447           05014                           WOR      14                                    #  ENABLE THRUST DRIVE.  COMMAND STARTS NOW
000487: 06,3450           31405                           CAE      THBUF
000488: 06,3451           00006                           EXTEND
000489: 06,3452           63454                           BZMF     +2
000490: 06,3453           40000                           COM
000491: 06,3454           40000                           COM
000492: 06,3455           00006                           EXTEND
000493: 06,3456           77752                           MP       BIT10                                 #  SCALES FOR T3.
000494: 06,3457           00002                           TC       Q
000495:
000496: 06,3460           00031        250MS              OCT      00031
000497:


000499:                                                                                                  #  LEM FCS TEST  INTERFACE LOOK TASK.
000500:
000501:                                                                                                  #      THIS PROGRAM KEEPS A RUNNING HISTORY OF THE STATE OF ALL THE BITS IN INPUT CHANNELS 30, 31, 32 AND 33.
000502:                                                                                                  #  IT DOES THIS BY DETECTING A CHANGE OF AN INPUT BIT FROM AN INITIAL ONE STATE TO A ZERO STATE OR FROM AN INITIAL
000503:                                                                                                  #  ZERO TO A ONE.  THE HISTORY IS MAINTAINED IN TWO BUFFER REGISTERS FOR EACH CHANNEL, ONE FOR STORING ONE TO ZERO
000504:                                                                                                  #  CHANGES (30BUF1, +1, +2, AND +3) AND ONE FOR ZERO TO ONE CHANGES (30BUF0, +1 +2 AND +3).  THE OPERATOR MUST
000505:                                                                                                  #  LOAD THE INITIAL STATES OF THE INPUT CHANNELS INTO THEIR RESPECTIVE BUFFER REGISTERS BEFORE THIS PROGRAM IS IN-
000506:                                                                                                  #  ITIATED.
000507:                                                                                                  #      TO ALLOW THIS PROGRAM TO RUN C(QUITLOOK) MUST BE SET GREATER THAN +0 BEFORE IT IS STARTED.  IF THE OPERATOR
000508:                                                                                                  #  DOES NOT DESIRE THIS PROGRAM TO RUN HE SHOULD SET C(QUITLOOK)=+0 BEFORE STARTING THE FCS TEST.  AFTER THIS TASK
000509:                                                                                                  #  IS RUNNING THE OPERATOR CAN STOP IT BY SETTING C(QUITLOOK) = +0.
000510:                                                                                                  #      NO DISPLAYS OF EITHER THE BUFFER REGISTERS OR CHANNELS ARE INCORPORATED INTO THIS PROGRAM.  THIS WAS DONE TO
000511:                                                                                                  #  ALLOW THE TEST OPERATOR MONITORING FLEXIBILITY.  FOR REAL TIME MONITORING IT IS SUGGESTED THAT THE BUFFER
000512:                                                                                                  #  REGISTERS BE DISPLAYED WITH THE MONITOR VERBS (11 THROUGH 15).  ON THE OTHER HAND, THE OPERATOR MAY ELECT TO
000513:                                                                                                  #  PERFORM NO REAL TIME MONITORING UNTIL THE TEST IS COMPLETED, WHEN THE BUFFER REGISTERS WOULD BE CALLED FOR
000514:                                                                                                  #  DISPLAY (VERB 01) AND RECORDED.
000515:                                                                                                  #      THIS PROGRAM IS PRIMARILY INTENDED FOR INTERFACE MONITORING DURING THE LEM VIBRATION TEST AT BETHPAGE, N.Y.,
000516:                                                                                                  #  ALTHOUGH IT MAY ALSO BE USEFUL DURING VEHICAL LEVEL EMI TESTS.
000517:
000518: 06,3461           11654        LOOKTOP            CCS      QUITLOOK                              #  IS THIS TASK WANTED.
000519: 06,3462           03464                           TC       +2                                    #  YES.
000520: 06,3463           05727                           TC       TASKOVER                              #  NO.
000521: 06,3464           36311                           CAF      THREE                                 #  START SCAN OF CHANNELS.
000522: 06,3465           55655        LOOKLOOP           TS       CHCNTR                                #  3, 2, 1, 0.
000523: 06,3466           51655                           NDX      CHCNTR
000524: 06,3467           31644                           CAE      30BUF1
000525: 06,3470           00006                           EXTEND
000526: 06,3471           51655                           NDX      CHCNTR
000527: 06,3472           02030                           RAND     30                                    #  DETECTS CHANGES FROM 1 TO 0.
000528: 06,3473           51655                           NDX      CHCNTR
000529: 06,3474           57644                           XCH      30BUF1                                #  STORE NEW ZEROS.
000530: 06,3475           51655                           NDX      CHCNTR
000531: 06,3476           31650                           CAE      30BUF0
000532: 06,3477           00006                           EXTEND
000533: 06,3500           51655                           NDX      CHCNTR
000534: 06,3501           04030                           ROR      30                                    #  DETECTS CHANGES FROM 0 TO 1.
000535: 06,3502           51655                           NDX      CHCNTR
000536: 06,3503           57650                           XCH      30BUF0                                #  STORE NEW ONES.
000537: 06,3504           11655                           CCS      CHCNTR                                #  IS THIS SCAN DONE.
000538: 06,3505           03465                           TC       LOOKLOOP                              #  NO.
000539: 06,3506           34570                           CAF      TEN                                   #  YES.  100MS RECALL.
000540: 06,3507           05663                           TC       WAITLIST
000541: 06,3510  E4,1654                                  EBANK=   QUITLOOK
000542: 06,3510           03461 14064                     2CADR    LOOKTOP
000543:
000544: 06,3512           05727                           TC       TASKOVER
000545:

End of include-file LEM_FLIGHT_CONTROL_SYSTEM_TEST.agc.  Parent file is MAIN.agc


