
Source Code


000002:                                                                                                  ## Copyright:   Public domain.
000003:                                                                                                  ## Filename:    LEM_FLIGHT_CONTROL_SYSTEM_TEST.agc
000004:                                                                                                  ## Purpose:     A module for revision 0 of BURST120 (Sunburst). It
000005:                                                                                                  ##              is part of the source code for the Lunar Module's
000006:                                                                                                  ##              (LM) Apollo Guidance Computer (AGC) for Apollo 5.
000007:                                                                                                  ## Assembler:   yaYUL
000008:                                                                                                  ## Contact:     Ron Burkey <info@sandroid.org>.
000009:                                                                                                  ## Website:     www.ibiblio.org/apollo/index.html
000010:                                                                                                  ## Mod history: 2016-09-30 RSB  Created draft version.
000011:                                                                                                  ##              2016-10-18 RSB  Corrected against AURORA 12 version,
000012:                                                                                                  ##                              with which it is seemingly identical other than
000013:                                                                                                  ##                              a handful of comments and EBANK= placements.
000014:                                                                                                  ##              2016-12-05 RSB  Comment-proofing with octopus/ProoferComments
000015:                                                                                                  ##                              completed, changes made.
000016:                                                                                                  ##              2017-06-05 MAS  Made comment corrections found during Sunburst 37
000017:                                                                                                  ##                              transcription.
000018:                                                                                                  ##              2021-05-30 ABS  Added missing EBANK= statement.
000019:


000021: 06,2736                                           BANK     6
000022: 06,2736  E4,1407                                  EBANK=   JETSTEP
000023:
000024:                                                                                                  #  LEM FCS TEST  ENTRY AND INITIALIZATION JOB.
000025:
000026:                                                                                                  #        THIS JOB INITIALIZES THE ERASABLE TABLES FOR THE FCS TEST AND PUTS THE FOLLOWING PROGRAMS UNDER
000027:                                                                                                  #  WAITLIST CONTROL.
000028:                                                                                                  #             (1) RCS JET SET TASK
000029:                                                                                                  #             (2) ENGINE ON - OFF TASK
000030:                                                                                                  #             (3) DESCENT ENGINE GIMBAL TRIM TASK
000031:                                                                                                  #             (4) DESCENT ENGINE THROTTLE TASK
000032:                                                                                                  #             (5) INTERFACE CHANNEL LOOK TASK
000033:
000034:
000035: 06,2736           04644        FCSSTART           TC       GRABWAIT                              #  SO NOTHING DISRUPTS THE LOAD.
000036: 06,2737           33012                           CAF      JSTEPADR                              #  THE START OF THE LIST.
000037: 06,2740           10000        FCS3               CCS      A
000038: 06,2741           54146                           TS       MPAC       +2
000039: 06,2742           33015        FCS2               CAF      V04N01K                               #  DISPLAY PRESENT CONTENTS IN R2.
000040: 06,2743           04657                           TC       NVSBWAIT
000041: 06,2744           24146                           INCR     MPAC       +2
000042: 06,2745           33013                           CAF      V21N02K
000043: 06,2746           04657                           TC       NVSBWAIT                              #  IN CASE IT,S BUSY BUT IT SHOULDN,T BE.
000044: 06,2747           04475                           TC       ENDIDLE                               #  WHILE LOADING.
000045: 06,2750           02753                           TC       +3                                    #  V34E. TERMINATE LOAD OF THIS LIST
000046:                                                                                                  #  SECTION, GO TO NEW SECTION OR TO TEST.
000047: 06,2751           02752                           TC       +1                                    #  V33E. PRESENT CONTENTS OK, PROCEED TO
000048:                                                                                                  #  NEXT LOCATION IN LIST.
000049: 06,2752           02742                           TC       FCS2
000050: 06,2753           33014                           CAF      V21N30K
000051: 06,2754           04657                           TC       NVSBWAIT
000052: 06,2755           04475                           TC       ENDIDLE
000053: 06,2756           05566                           TC       EJFREE
000054: 06,2757           02762                           TC       FCSTEST1                              #  PROCEED TO TEST.
000055: 06,2760           30337                           CAE      DSPTEM1                               #  NEW ADDRESS.
000056: 06,2761           02740                           TC       FCS3
000057: 06,2762           33016        FCSTEST1           CAF      V47K
000058: 06,2763           04657                           TC       NVSBWAIT                              #  OUR VERB IN THE LIGHTS.
000059: 06,2764           00004        FCSTEST            INHINT
000060: 06,2765           37762                           CAF      TWO                                   #  20MS.
000061: 06,2766           05663                           TC       WAITLIST
000062: 06,2767  E4,1407                                  EBANK=   JETSTEP
000063: 06,2767           03023 14064                     2CADR    JETSTART
000064:
000065: 06,2771           37763                           CAF      BIT1                                  #  10MS.
000066: 06,2772           05663                           TC       WAITLIST
000067: 06,2773  E4,1407                                  EBANK=   JETSTEP


000069: 06,2773           03156 14064                     2CADR    ENGSTART
000070:
000071: 06,2775           36311                           CAF      THREE                                 #  30MS.
000072: 06,2776           05663                           TC       WAITLIST
000073: 06,2777  E4,1407                                  EBANK=   JETSTEP
000074: 06,2777           03253 14064                     2CADR    TRIMTOP
000075:
000076: 06,3001           37761                           CAF      FOUR                                  #  40MS.
000077: 06,3002           05663                           TC       WAITLIST
000078: 06,3003  E4,1407                                  EBANK=   JETSTEP
000079: 06,3003           03373 14064                     2CADR    THRSTART
000080:
000081: 06,3005           37766                           CAF      FIVE                                  #  50MS.
000082: 06,3006           05663                           TC       WAITLIST
000083: 06,3007  E4,1407                                  EBANK=   JETSTEP
000084: 06,3007           03461 14064                     2CADR    LOOKTOP
000085:
000086: 06,3011           05566                           TC       EJFREE                                #  NOW THEY START.
000087:
000088: 06,3012           02007        JSTEPADR           ECADR    JETSTEP
000089: 06,3013           02102        V21N02K            OCT      02102
000090: 06,3014           02130        V21N30K            OCT      02130
000091: 06,3015           00401        V04N01K            OCT      00401
000092: 06,3016           04700        V47K               OCT      04700
000093:


000095:                                                                                                  #  LEM FCS TEST   RCS JETSET TASK
000096:                                                                                                  #      THIS JOB ISSUES A PROFILE OF  JET ON-OFF SIGNALS AS DETERMINED BY THE CONSTANTS IN A SET OF SIX REGISTERS.
000097:                                                                                                  #  THE SIX REGISTERS ARE, (1) NTIMES, THE NUMBER OF TIMES A PARTICULAR STEP WILL BE PERFORMED. (2) NEXTTIME, THE
000098:                                                                                                  #  TIME BETWEEN STEPS, A MAXIMUM OF 2 MINUTES, (3) JETONTM, THE TIME TO TURN THE JETS ON, SCALED FOR T3, (4) JET-
000099:                                                                                                  #  OFFTM, THE TIME AFTER ONTM TO TURN THE JETS OFF, (5) XJETS, THE PARTICULAR X JETS TO BE TURNED ON AND OFF
000100:                                                                                                  #  DURING EACH REPEAT OF A STEP, AND (6) YZJETS,, THE Y AND Z JETS TO BE TURNED ON AND OFF DURING EACH REPEAT OF A
000101:                                                                                                  #  STEP.  XJETS AND YZJETS MUST BE IN THE SAME FORMAT AS CHANNELS 5 AND6 RESPECTIVELY.  THERE ARE EIGHT SETS OF
000102:                                                                                                  #  THESE SIX REGISTERS.
000103:                                                                                                  #      THE REGISTER JETSTEP IS USED TO INDEX THE 8 SETS OF REGISTERS, THE ALLOWABLE VALUES OF JETSTEP ARE +0 THRU 7
000104:                                                                                                  #      THIS JOB WILL BE ENTERED BUT IMMEDIATELY ENDED IF THE INITIAL VALUES OF JETSTEP AND NTIMES ARE +0.
000105:
000106:
000107: 06,3017           11407        NEXTSET            CCS      JETSTEP                               #  IT MAY BE ZERO.
000108: 06,3020           03022                           TC       +2                                    #  NOPE
000109: 06,3021           05727                           TC       TASKOVER                              #  IT IS SO WE ARE DONE WITH THIS TASK.
000110: 06,3022           55407                           TS       JETSTEP
000111:
000112: 06,3023           51407        JETSTART           NDX      JETSTEP                               #  ENTER HERE.
000113: 06,3024           11410                           CCS      NTIMES                                #  SEE IF THIS STEP IS FINISHED.
000114: 06,3025           03027                           TC       +2                                    #  NO
000115: 06,3026           03017                           TC       NEXTSET                               #  YES
000116: 06,3027           51407                           NDX      JETSTEP
000117: 06,3030           31420                           CAE      NEXTTIME                              #  MUST BE SCALED FOR T3.  REMEMBER TO BIAS
000118:                                                                                                  #  THIS FOR ON TIME.
000119: 06,3031           05663                           TC       WAITLIST
000120: 06,3032  E4,1407                                  EBANK=   JETSTEP
000121: 06,3032           03046 14064                     2CADR    JTOP
000122:
000123: 06,3034           05727                           TC       TASKOVER
000124:
000125: 06,3035           37767        JETOFF             CAF      ZERO
000126: 06,3036           00006                           EXTEND
000127: 06,3037           01005                           WRITE    5
000128: 06,3040           00006                           EXTEND
000129: 06,3041           01006                           WRITE    6
000130: 06,3042           51407                           NDX      JETSTEP
000131: 06,3043           11410                           CCS      NTIMES
000132: 06,3044           51407                           NDX      JETSTEP
000133: 06,3045           55410                           TS       NTIMES                                #  ONE LESS TIME.
000134: 06,3046           51407        JTOP               NDX      JETSTEP
000135: 06,3047           11410                           CCS      NTIMES                                #  FOR LOOPING.
000136: 06,3050           03052                           TC       +2
000137: 06,3051           03017                           TC       NEXTSET
000138: 06,3052           51407                           NDX      JETSTEP
000139: 06,3053           31430                           CAE      JETONTM                               #  SCALED FOR T3.  TIME FOR JETS ON.
000140: 06,3054           05663                           TC       WAITLIST
000141: 06,3055  E4,1407                                  EBANK=   JETSTEP
000142: 06,3055           03060 14064                     2CADR    JETON
000143:


000145: 06,3057           05727                           TC       TASKOVER
000146:
000147: 06,3060           51407        JETON              NDX      JETSTEP
000148: 06,3061           31440                           CAE      XJETS                                 #  MUST BE IN CHANNEL 5 FORMAT.
000149: 06,3062           55401                           TS       XJBUF
000150: 06,3063           51407                           NDX      JETSTEP
000151: 06,3064           31450                           CAE      YZJETS                                #  MUST BE IN CHANNEL 6 FORMAT.
000152: 06,3065           55402                           TS       YZJBUF
000153: 06,3066           00006        JFAILCK            EXTEND                                         #  THIS ROUTINE EXAMINES EACH JETFAIL BIT
000154: 06,3067           00032                           READ     32                                    #  AND IF A FAILURE IS INDICATED THE CORRES
000155: 06,3070           40000                           COM                                            #  PONDING COMMANDS ARE MASKED OUT .
000156: 06,3071           55403                           TS       JFBUF                                 #  SAVE 32 REINVERTED.
000157: 06,3072           37765                           CAF      SEVEN
000158: 06,3073           55404        JF3                TS       FCNTR
000159: 06,3074           31403                           CAE      JFBUF
000160: 06,3075           51404                           NDX      FCNTR
000161: 06,3076           77754                           MASK     BIT8
000162: 06,3077           10000                           CCS      A
000163: 06,3100           03117                           TC       JFAIL
000164: 06,3101           11404        JFAIL1             CCS      FCNTR
000165: 06,3102           03073                           TC       JF3
000166: 06,3103           31401                           CAE      XJBUF
000167: 06,3104           00006                           EXTEND
000168: 06,3105           01005                           WRITE    5                                     #  XJETS GO ON.
000169: 06,3106           31402                           CAE      YZJBUF
000170: 06,3107           00006                           EXTEND
000171: 06,3110           01006                           WRITE    6                                     #  YZJETS GO ON.
000172: 06,3111           51407                           NDX      JETSTEP
000173: 06,3112           31460                           CAE      JETOFFTM                              #  JET OFF TIME SCALED FOR T3.
000174: 06,3113           05663                           TC       WAITLIST
000175: 06,3114  E4,1407                                  EBANK=   JETSTEP
000176: 06,3114           03035 14064                     2CADR    JETOFF
000177:
000178: 06,3116           05727                           TC       TASKOVER
000179:
000180: 06,3117           51404        JFAIL              NDX      FCNTR
000181: 06,3120           43142                           CS       XJETMASK
000182: 06,3121           71401                           MASK     XJBUF
000183: 06,3122           55401                           TS       XJBUF
000184: 06,3123           51404                           NDX      FCNTR
000185: 06,3124           43132                           CS       YZJETMSK
000186: 06,3125           71402                           MASK     YZJBUF
000187: 06,3126           55402                           TS       YZJBUF
000188: 06,3127           04755                           TC       ALARM
000189: 06,3130           01410                           OCT      01410                                 #  TEMPORARY JET FAIL ALARM CODE.
000190: 06,3131           03101                           TC       JFAIL1
000191:


000193: 06,3132           00010        YZJETMSK           OCT      00010                                 #  JET 11
000194: 06,3133           00020                           OCT      00020                                 #  JET 12
000195: 06,3134           00004                           OCT      00004                                 #  JET 15
000196: 06,3135           00200                           OCT      00200                                 #  JET 16
000197: 06,3136           00001                           OCT      00001                                 #  JET 7
000198: 06,3137           00002                           OCT      00002                                 #  JET 3
000199: 06,3140           00040                           OCT      00040                                 #  JET 8
000200: 06,3141           00100                           OCT      00100                                 #  JET 4
000201:
000202: 06,3142           00040        XJETMASK           OCT      00040                                 #  JET 10
000203: 06,3143           00020                           OCT      00020                                 #  JET 9
000204: 06,3144           00100                           OCT      00100                                 #  JET 13
000205: 06,3145           00200                           OCT      00200                                 #  JET 14
000206: 06,3146           00010                           OCT      00010                                 #  JET 6
000207: 06,3147           00001                           OCT      00001                                 #  JET 1
000208: 06,3150           00004                           OCT      00004                                 #  JET 5
000209: 06,3151           00002                           OCT      00002                                 #  JET 2
000210:


000212:                                                                                                  #  LEM FCS TEST  ENGINE ON - OFF TASK
000213:                                                                                                  #  THIS TASK TURNS THE LEM ASCENT OR DESCENT ENGINE ON AND OFF ACCORDING TOTHE CONSTANTS STORED IN THE FIVE SETS OF
000214:                                                                                                  #  REGISTERS, (1) CYLTIMES, WHICH CONTAINS THE NUMBER OF TIMES A PARTICULARSTEP WILL BE REPEATED, (2) NEXTCYLT,
000215:                                                                                                  #   WHICH CONTAINS THE TIME BETWEEN STEPS SCALED FOR T3, (3) ONTIME, WHICH CONTAINS THE TIME TO TURN THE ENGINE ON
000216:                                                                                                  #  WHICH ALSO DETERMINES THE LENGTH OF TIME THE ENGIME WILL BE OFF WITHIN A SERIES OF ON:OFF CYCLES, (4) OFFTIME,
000217:                                                                                                  #   WHICH CONTAINS THE NUMBER OF 2 MINUTES BEFORE THE ENGINE WILL BE TURNED OFF, AND (5) OFFTIMER, WHICH
000218:                                                                                                  #  CONTAINS THE RESIDUAL TIME BEFORE THE ENGINE WILL BE TURNED OFF.  OFFTIME AND OFFTIMER DETERMINE THE LENGTH
000219:                                                                                                  #  OF TIME THE ENGINE WILL BE ON IN ANY ONE CYCLE. THERE ARE THREE SETS OF THESE REGISTERS.
000220:                                                                                                  #      THE ENGSTEP REGISTER IS USED AS AN INDEX TO PICK UP A PARTICULAR SET  OF THE ABOVE 5 REGISTERS.  THIS TASK
000221:                                                                                                  #  WILL BE ENTERED BUT IMMEDIATELY ENDED IF ENGSTEP AND CYLTIMES = +0.     THE ALLOWABLE VALUES OF ENGSTEP ARE +0,
000222:                                                                                                  #  1 AND 2.
000223:
000224:
000225: 06,3152           11470        NXTONOFF           CCS      ENGSTEP
000226: 06,3153           03155                           TC       +2
000227: 06,3154           05727                           TC       TASKOVER                              #  EXIT HERE WHEN STEP AND CYL ARE +0.
000228: 06,3155           55470                           TS       ENGSTEP                               #  ONE LESS.
000229:
000230: 06,3156           51470        ENGSTART           NDX      ENGSTEP                               #  ENTER HERE.
000231: 06,3157           11471                           CCS      CYLTIMES                              #  NUM OF EACH  ON/OFF SET
000232: 06,3160           03162                           TC       +2
000233: 06,3161           03152                           TC       NXTONOFF                              #  NO MORE OF THIS SET
000234: 06,3162           51470                           NDX      ENGSTEP
000235: 06,3163           31474                           CAE      NEXTCYLT                              #  START OF NEXT CYCLE.
000236: 06,3164           05663                           TC       WAITLIST
000237: 06,3165  E4,1470                                  EBANK=   ENGSTEP
000238: 06,3165           03206 14064                     2CADR    ENGONTM
000239:
000240: 06,3167           05727                           TC       TASKOVER
000241:
000242: 06,3170           45210        ENGRESET           CS       PRIO30                                #  BITS 13 AND 14.
000243: 06,3171           00006                           EXTEND
000244: 06,3172           02011                           RAND     11
000245: 06,3173           67746                           AD       BIT14
000246: 06,3174           00006                           EXTEND
000247: 06,3175           01011                           WRITE    11                                    #  ENG ON = 0, ENG OFF = 1.
000248: 06,3176           51470                           NDX      ENGSTEP
000249: 06,3177           11471                           CCS      CYLTIMES
000250: 06,3200           10000                           CCS      A
000251: 06,3201           03203                           TC       +2
000252: 06,3202           03152                           TC       NXTONOFF                              #  WAS ONE.
000253: 06,3203           67763                           AD       ONE                                   #  WAS MORE THAN ONE.
000254: 06,3204           51470                           NDX      ENGSTEP
000255: 06,3205           55471                           TS       CYLTIMES
000256:
000257: 06,3206           51470        ENGONTM            NDX      ENGSTEP
000258: 06,3207           31502                           CAE      OFFTIME
000259: 06,3210           55406                           TS       OFFTMBUF
000260: 06,3211           51470                           NDX      ENGSTEP


000262: 06,3212           31477                           CAE      ONTIME
000263: 06,3213           05663                           TC       WAITLIST
000264: 06,3214  E4,1470                                  EBANK=   ENGSTEP
000265: 06,3214           03217 14064                     2CADR    ENGSET
000266:
000267: 06,3216           05727                           TC       TASKOVER
000268:
000269: 06,3217           45210        ENGSET             CS       PRIO30
000270: 06,3220           00006                           EXTEND
000271: 06,3221           02011                           RAND     11
000272: 06,3222           67747                           AD       BIT13
000273: 06,3223           00006                           EXTEND
000274: 06,3224           01011                           WRITE    11                                    #  ENG ON = 1, ENG OFF = 0.
000275: 06,3225           11406        ENGRST             CCS      OFFTMBUF
000276: 06,3226           03235                           TC       LTIMEON                               #  AT LEAST 2MIN. BEFORE ENGINE OFF.
000277: 06,3227           51470                           NDX      ENGSTEP
000278: 06,3230           31505                           CAE      OFFTIMER                              #  LESS THAN 2MIN. TO ENGINE OFF.
000279: 06,3231           05663                           TC       WAITLIST
000280: 06,3232  E4,1470                                  EBANK=   ENGSTEP
000281: 06,3232           03170 14064                     2CADR    ENGRESET
000282:
000283: 06,3234           05727                           TC       TASKOVER
000284:
000285: 06,3235           11406        LTIMEON            CCS      OFFTMBUF                              #  IS THERE ANY MORE.
000286: 06,3236           03240                           TC       +2                                    #  YES.
000287: 06,3237           03225                           TC       ENGRST                                #  NO.
000288: 06,3240           55406                           TS       OFFTMBUF                              #  ONE LESS.
000289: 06,3241           33246                           CAF      2MIN
000290: 06,3242           05663                           TC       WAITLIST
000291: 06,3243  E4,1470                                  EBANK=   ENGSTEP
000292: 06,3243           03235 14064                     2CADR    LTIMEON
000293:
000294: 06,3245           05727                           TC       TASKOVER
000295:
000296: 06,3246           27340        2MIN               DEC      12000      B-14
000297:


000299:                                                                                                  #  LEM FCS TEST  TRIM TASK
000300:                                                                                                  #  THIS PROGRAM ISSUES A PROFILE OF PITCH AND ROLL TRIM COMMANDS TO THE LEM DESCENT ENGINE GIMBAL IN ACCORDANCEWITH
000301:                                                                                                  #  THE VALUE S IN THE TRIMSTEP REGISTER AND THE 12 SETS OF 5 REGISTERS CALLED NUMTIMES, STEPDLYT, TRIMONT, TRIMOFFT
000302:                                                                                                  #  AND TRIMIND.  TRIMSTEP IS USED TO PICK UP A PARTICULAR SET OF THE 5 REGISTERS AND HAS ALLOWABLE VALUES FROM +0
000303:                                                                                                  #  THROUGH +11 DECIMAL.  THE 5 REGISTERS IN EACH SET ARE DEFINED AS FOLLOWS
000304:                                                                                                  #      (1) NUMTIMES DETERMINES THE NUMBER OF TIMES THE COMMAND IN TRIMIND  WILL BE ISSUED.  VALUES FROM +0 TO
000305:                                                                                                  #  OCT 37777 ARE PERMITTED.
000306:                                                                                                  #      (2) STEPDLYT DETERMINES THE TIME BETWEEN THE START OF A STEP AND THE BEGINNING OF TRIMONT.  STEPDLYT MUST BE
000307:                                                                                                  #  FORMATTED FOR T3, ITS MAXIMUM VALUE IS 2 MINUTES.
000308:                                                                                                  #      (3) TRIMONT DETERMINES THE TIME BETWEEN THE END OF STEPDLYT OR TRIMOFFT AND THE TIME THE TRIM COMMANDS ARE
000309:                                                                                                  #  ISSUED.  IT MUST BE FORMATTED FOR T3.
000310:                                                                                                  #      (4) TRIMOFFT DETERMINES THE LENGTH OF TIME THE TRIM COMMAND WILL BE ON, FORMATTED FOR T3.
000311:                                                                                                  #      (5) TRIMIND DETERMINES THE PITCH AND ROLL COMMAND TO BE ISSUED.  THE FORMAT IS, BIT9=1=+ PITCH COMMAND,
000312:                                                                                                  #  BIT10=1=-PITCH, BIT11=1= +ROLL, BIT12=1= -ROLL.  A BIT=0 INDICATES NO COMMAND.  ANY COMBINATION OF COMMANDS IS
000313:                                                                                                  #  PERMITTED.
000314:                                                                                                  #     THIS TASK WILL BE ENTERED BUT IMMEDIATELY ENDED IF TRIMSTEP AND NUMTIMES = +0.
000315:
000316:
000317: 06,3247           11510        NEXTTRIM           CCS      TRIMSTEP
000318: 06,3250           03252                           TC       +2
000319: 06,3251           05727                           TC       TASKOVER                              #  EXIT HERE.
000320: 06,3252           55510                           TS       TRIMSTEP                              #  LESS ONE.
000321:
000322: 06,3253           51510        TRIMTOP            NDX      TRIMSTEP                              #  ENTER HERE.
000323: 06,3254           11511                           CCS      NUMTIMES
000324: 06,3255           03257                           TC       +2
000325: 06,3256           03247                           TC       NEXTTRIM
000326: 06,3257           51510                           NDX      TRIMSTEP
000327: 06,3260           31525                           CAE      STEPDLYT
000328: 06,3261           05663                           TC       WAITLIST
000329: 06,3262  E4,1510                                  EBANK=   TRIMSTEP
000330: 06,3262           03300 14064                     2CADR    TRIMSET
000331:
000332: 06,3264           05727                           TC       TASKOVER
000333:
000334: 06,3265           43364        TRIMOFF            CS       TRIMMASK
000335: 06,3266           00006                           EXTEND
000336: 06,3267           03012                           WAND     12                                    #  TRIM GOES OFF.
000337: 06,3270           51510        NUMSTEP            NDX      TRIMSTEP
000338: 06,3271           11511                           CCS      NUMTIMES
000339: 06,3272           10000                           CCS      A
000340: 06,3273           03275                           TC       +2
000341: 06,3274           03247                           TC       NEXTTRIM                              #  WAS ONE.
000342: 06,3275           67763                           AD       ONE
000343: 06,3276           51510                           NDX      TRIMSTEP
000344: 06,3277           55511                           TS       NUMTIMES
000345: 06,3300           51510        TRIMSET            NDX      TRIMSTEP
000346: 06,3301           31541                           CAE      TRIMONT
000347: 06,3302           05663                           TC       WAITLIST


000349: 06,3303  E4,1510                                  EBANK=   TRIMSTEP
000350: 06,3303           03306 14064                     2CADR    TRIMON
000351:
000352: 06,3305           05727                           TC       TASKOVER
000353:
000354: 06,3306           33363        TRIMON             CAF      BITS9,10                              #  CHECK PITCH AND ROLL TRIM FAIL BITS.
000355: 06,3307           00006                           EXTEND
000356: 06,3310           06032                           RXOR     32
000357: 06,3311           73363                           MASK     BITS9,10
000358: 06,3312           00006                           EXTEND
000359: 06,3313           13321                           BZF      TRIMON1
000360: 06,3314           35656                           CAF      PRIO35                                #  FAIL IS ON. FLASH FAIL CODE (01400) AND
000361: 06,3315           05505                           TC       NOVAC                                 #  IDLE UNTIL SOMEONE RESETS IT, TERMINATES
000362: 06,3316  E4,1407                                  EBANK=   JETSTEP
000363: 06,3316           03334 14064                     2CADR    PERFORM                               #  THE TASK, OR DECIDES TO PROCEED WITH IT.
000364:
000365: 06,3320           05727                           TC       TASKOVER
000366:
000367: 06,3321           51510        TRIMON1            NDX      TRIMSTEP
000368: 06,3322           31571                           CAE      TRIMIND
000369: 06,3323           73364                           MASK     TRIMMASK                              #  SAFETY PLAY
000370: 06,3324           00006                           EXTEND
000371: 06,3325           05012                           WOR      12                                    #  TRIM STARTS.
000372: 06,3326           51510                           NDX      TRIMSTEP
000373: 06,3327           31555                           CAE      TRIMOFFT
000374: 06,3330           05663                           TC       WAITLIST
000375: 06,3331  E4,1510                                  EBANK=   TRIMSTEP
000376: 06,3331           03265 14064                     2CADR    TRIMOFF
000377:
000378: 06,3333           05727                           TC       TASKOVER
000379:
000380: 06,3334           04644        PERFORM            TC       GRABWAIT                              #  KEY RELEASE MAY COME ON.
000381: 06,3335           33363                           CAF      TRIMCODE                              #  01400
000382: 06,3336           54337                           TS       DSPTEM1
000383: 06,3337           33365                           CAF      V01N25K
000384: 06,3340           04657                           TC       NVSBWAIT
000385: 06,3341           33366                           CAF      V50K                                  #  PLEASE PERFORM.
000386: 06,3342           04657                           TC       NVSBWAIT
000387: 06,3343           04622                           TC       FLASHON                               #  ANY RESPONSE TURNS IT OFF.
000388: 06,3344           04475                           TC       ENDIDLE                               #  WAIT FOR SOMEONE TO DO SOMETHING.
000389: 06,3345           05566                           TC       EJFREE                                #  V34E. TERMINATE THE TASK.
000390: 06,3346           03355                           TC       TR1                                   #  V33E. PROCEED WITH THE FAIL ON.
000391: 06,3347           00004                           INHINT                                         #  ENTER. THE FAIL HAS BEEN RESET.
000392: 06,3350           37762                           CAF      BIT2                                  #  20MS.
000393: 06,3351           05663                           TC       WAITLIST
000394: 06,3352  E4,1407                                  EBANK=   JETSTEP
000395: 06,3352           03306 14064                     2CADR    TRIMON                                #  CHECK AGAIN TO BE SURE. THEN PROCEED..
000396:
000397: 06,3354           05566                           TC       EJFREE
000398:


000400: 06,3355           00004        TR1                INHINT                                         #  PROCEED WITH THE FAIL.
000401: 06,3356           37762                           CAF      BIT2                                  #  20MS.
000402: 06,3357           05663                           TC       WAITLIST
000403: 06,3360  E4,1407                                  EBANK=   JETSTEP
000404: 06,3360           03321 14064                     2CADR    TRIMON1                               #  BYPASS THE RECHECK.
000405:
000406: 06,3362           05566                           TC       EJFREE
000407:
000408: 06,3363           01400        BITS9,10           OCT      01400
000409: 06,3364  06,3363               TRIMCODE           EQUALS   BITS9,10
000410: 06,3364           07400        TRIMMASK           OCT      07400
000411: 06,3365           00125        V01N25K            OCT      00125
000412: 06,3366           05000        V50K               OCT      05000
000413:


000415:                                                                                                  #  LEM FCS TEST  THROTTLE TASK
000416:                                                                                                  #     THIS PROGRAM ISSUES A PROFILE OF THROTTLE COMMANDS TO THE LEM DESCENT ENGINE.  THE PROFILE IS DETERMINED BY
000417:                                                                                                  #  THE VALUES IN THE THRTSTEP REGISTER AND THE 6  SETS OF REGISTERS, 5 PER SET, CALLED  DOTIMES, DELAY, THR1TIME,
000418:                                                                                                  #  THCOMM1 AND THCOMM2.  THE THRTSTEP REGISTER VALUE IS USED TO INDEX THE  6  SETS OF 5 REGISTERS AND HAS ALLOWABLE
000419:                                                                                                  #  VALUES OF +0 THROUGH +5.  THE 5 REGISTERS PER SET ARE DEFINED AS FOLLOWS
000420:                                                                                                  #      (1) DOTIMES DETERMINES THE NUMBER OF TIMES THE THROTTLE WILL BE EXERCISED AS PER THE VALUES OF THR1TIME,
000421:                                                                                                  #  THCOMM1 AND THCOMM2 OF THE CURRENT STEP.  IT HAS ALLOWABLE VALUES OF +0 THROUGH 37777 OCT.
000422:                                                                                                  #      (2) DELAY DETERMINES THE TIME BETWEEN THE START OF A STEP AND THE BE GINNING OF THR1TIME. ITIS CALLED ONLY
000423:                                                                                                  #  ONCE PER STEP,I.E., REPEATS OF THE SAME THCOMM1 AND THCOMM2 START AT THR1TIME.  DELAY MUST BE FORMATTED FOR T3
000424:                                                                                                  #  AND HENCE HAS A MAXIMUM VALUE OF 2 MINUTES.
000425:                                                                                                  #      (3) THR1TIME DETERMINES THE TIME BETWEEN THE END OF DELAY OR THE END   OF THCOMM2 AND THE START OF
000426:                                                                                                  #  THCOMM1.  IT MUST BE FORMATTED FOR T3.
000427:                                                                                                  #      (4) THCOMM1 AND (5) THCOMM2 DETERMINE THE NUMBER OF THRUST INCREASE  OR DECREASE PULSES TOBE ISSUED AT A
000428:                                                                                                  #  3.2KPPS RATE.  THE RANGE OF POSSIBLE VALUES OF EITHER IS FROM POSMAX (OCT 37777) TO NEGMAX (OCT 40000) ALTHOUGH
000429:                                                                                                  #  THE ACTUAL THROTTLE RANGE IS FROM OCT 6116 TO OCT 71661 (+,- 3150 DEC).
000430:                                                                                                  #     THIS TASK WILL BE ENTERED BUT IMMEDIATELY ENDED IF THE INITIAL VALUES OF THRTSTEP AND DOTIMES ARE +0.
000431:
000432:
000433: 06,3367           11605        NEXTTHRT           CCS      THRTSTEP
000434: 06,3370           03372                           TC       +2
000435: 06,3371           05727                           TC       TASKOVER                              #  EXIT HERE.
000436: 06,3372           55605                           TS       THRTSTEP
000437:
000438: 06,3373           51605        THRSTART           NDX      THRTSTEP                              #  ENTER HERE.
000439: 06,3374           11606                           CCS      DOTIMES                               #  NUMBER OF TIMES COMMANDS 1 AND 2 DONE.
000440: 06,3375           03377                           TC       +2
000441: 06,3376           03367                           TC       NEXTTHRT
000442: 06,3377           51605                           NDX      THRTSTEP
000443: 06,3400           31614                           CAE      DELAY                                 #  TIME BETWEEN STEPS.  BIAS FOR THR1TIME.
000444:                                                                                                  #  MUST BE SCALED FOR T3.
000445: 06,3401           05663                           TC       WAITLIST
000446: 06,3402  E4,1605                                  EBANK=   THRTSTEP
000447: 06,3402           03425 14064                     2CADR    THROTON1
000448:
000449: 06,3404           05727                           TC       TASKOVER
000450:
000451: 06,3405           51605        THR2COMM           NDX      THRTSTEP
000452: 06,3406           31636                           CAE      THCOMM2                               #  SAME REMARKS AS FOR THCOMM1.
000453: 06,3407           03443                           TC       THROTON
000454: 06,3410           67763                           AD       BIT1                                  #  10MS IN CASE OF NO THCOMM2.
000455: 06,3411           05663                           TC       WAITLIST
000456: 06,3412  E4,1605                                  EBANK=   THRTSTEP
000457: 06,3412           03415 14064                     2CADR    CKDOTIME
000458:
000459: 06,3414           05727                           TC       TASKOVER
000460:
000461: 06,3415           51605        CKDOTIME           NDX      THRTSTEP
000462: 06,3416           11606                           CCS      DOTIMES
000463: 06,3417           10000                           CCS      A


000465: 06,3420           03422                           TC       +2
000466: 06,3421           03367                           TC       NEXTTHRT                              #  WAS ONE.
000467: 06,3422           67763                           AD       ONE
000468: 06,3423           51605                           NDX      THRTSTEP
000469: 06,3424           55606                           TS       DOTIMES
000470: 06,3425           51605        THROTON1           NDX      THRTSTEP
000471: 06,3426           31622                           CAE      THR1TIME                              #  TIME BETWEEN DOTIMES.  SCALED FOR T3.
000472: 06,3427           05663                           TC       WAITLIST
000473: 06,3430  E4,1605                                  EBANK=   THRTSTEP
000474: 06,3430           03433 14064                     2CADR    THR1COMM
000475:
000476: 06,3432           05727                           TC       TASKOVER
000477:
000478: 06,3433           51605        THR1COMM           NDX      THRTSTEP
000479: 06,3434           31630                           CAE      THCOMM1                               #  SHOULD BE NO LARGER THAN 3150DEC.
000480: 06,3435           03443                           TC       THROTON
000481: 06,3436           63460                           AD       250MS                                 #  SO ACE CAN SAMPLE.
000482: 06,3437           05663                           TC       WAITLIST
000483: 06,3440  E4,1605                                  EBANK=   THRTSTEP
000484: 06,3440           03405 14064                     2CADR    THR2COMM
000485:
000486: 06,3442           05727                           TC       TASKOVER
000487:
000488: 06,3443           54055        THROTON            TS       THRUST                                #  THROTTLE OUTPUT COUNTER.
000489: 06,3444           55405                           TS       THBUF                                 #  SAVE FOR BZMF.
000490: 06,3445           37760                           CAF      BIT4
000491: 06,3446           00006                           EXTEND
000492: 06,3447           05014                           WOR      14                                    #  ENABLE THRUST DRIVE.  COMMAND STARTS NOW
000493: 06,3450           31405                           CAE      THBUF
000494: 06,3451           00006                           EXTEND
000495: 06,3452           63454                           BZMF     +2
000496: 06,3453           40000                           COM
000497: 06,3454           40000                           COM
000498: 06,3455           00006                           EXTEND
000499: 06,3456           77752                           MP       BIT10                                 #  SCALES FOR T3.
000500: 06,3457           00002                           TC       Q
000501:
000502: 06,3460           00031        250MS              OCT      00031
000503:


000505:                                                                                                  #  LEM FCS TEST  INTERFACE LOOK TASK.
000506:
000507:                                                                                                  #      THIS PROGRAM KEEPS A RUNNING HISTORY OF THE STATE OF ALL THE BITS IN INPUT CHANNELS 30, 31, 32 AND 33.
000508:                                                                                                  #  IT DOES THIS BY DETECTING A CHANGE OF AN INPUT BIT FROM AN INITIAL ONE STATE TO A ZERO STATE OR FROM AN INITIAL
000509:                                                                                                  #  ZERO TO A ONE.  THE HISTORY IS MAINTAINED IN TWO BUFFER REGISTERS FOR EACH CHANNEL, ONE FOR STORING ONE TO ZERO
000510:                                                                                                  #  CHANGES (30BUF1, +1, +2, AND +3) AND ONE FOR ZERO TO ONE CHANGES (30BUF0, +1 +2 AND +3).  THE OPERATOR MUST
000511:                                                                                                  #  LOAD THE INITIAL STATES OF THE INPUT CHANNELS INTO THEIR RESPECTIVE BUFFER REGISTERS BEFORE THIS PROGRAM IS IN-
000512:                                                                                                  #  ITIATED.
000513:                                                                                                  #      TO ALLOW THIS PROGRAM TO RUN C(QUITLOOK) MUST BE SET GREATER THAN +0 BEFORE IT IS STARTED.  IF THE OPERATOR
000514:                                                                                                  #  DOES NOT DESIRE THIS PROGRAM TO RUN HE SHOULD SET C(QUITLOOK)=+0 BEFORE STARTING THE FCS TEST.  AFTER THIS TASK
000515:                                                                                                  #  IS RUNNING THE OPERATOR CAN STOP IT BY SETTING C(QUITLOOK) = +0.
000516:                                                                                                  #      NO DISPLAYS OF EITHER THE BUFFER REGISTERS OR CHANNELS ARE INCORPORATED INTO THIS PROGRAM.  THIS WAS DONE TO
000517:                                                                                                  #  ALLOW THE TEST OPERATOR MONITORING FLEXIBILITY.  FOR REAL TIME MONITORING IT IS SUGGESTED THAT THE BUFFER
000518:                                                                                                  #  REGISTERS BE DISPLAYED WITH THE MONITOR VERBS (11 THROUGH 15).  ON THE OTHER HAND, THE OPERATOR MAY ELECT TO
000519:                                                                                                  #  PERFORM NO REAL TIME MONITORING UNTIL THE TEST IS COMPLETED, WHEN THE BUFFER REGISTERS WOULD BE CALLED FOR
000520:                                                                                                  #  DISPLAY (VERB 01) AND RECORDED.
000521:                                                                                                  #      THIS PROGRAM IS PRIMARILY INTENDED FOR INTERFACE MONITORING DURING THE LEM VIBRATION TEST AT BETHPAGE, N.Y.,
000522:                                                                                                  #  ALTHOUGH IT MAY ALSO BE USEFUL DURING VEHICAL LEVEL EMI TESTS.
000523:
000524: 06,3461           11654        LOOKTOP            CCS      QUITLOOK                              #  IS THIS TASK WANTED.
000525: 06,3462           03464                           TC       +2                                    #  YES.
000526: 06,3463           05727                           TC       TASKOVER                              #  NO.
000527: 06,3464           36311                           CAF      THREE                                 #  START SCAN OF CHANNELS.
000528: 06,3465           55655        LOOKLOOP           TS       CHCNTR                                #  3, 2, 1, 0.
000529: 06,3466           51655                           NDX      CHCNTR
000530: 06,3467           31644                           CAE      30BUF1
000531: 06,3470           00006                           EXTEND
000532: 06,3471           51655                           NDX      CHCNTR
000533: 06,3472           02030                           RAND     30                                    #  DETECTS CHANGES FROM 1 TO 0.
000534: 06,3473           51655                           NDX      CHCNTR
000535: 06,3474           57644                           XCH      30BUF1                                #  STORE NEW ZEROS.
000536: 06,3475           51655                           NDX      CHCNTR
000537: 06,3476           31650                           CAE      30BUF0
000538: 06,3477           00006                           EXTEND
000539: 06,3500           51655                           NDX      CHCNTR
000540: 06,3501           04030                           ROR      30                                    #  DETECTS CHANGES FROM 0 TO 1.
000541: 06,3502           51655                           NDX      CHCNTR
000542: 06,3503           57650                           XCH      30BUF0                                #  STORE NEW ONES.
000543: 06,3504           11655                           CCS      CHCNTR                                #  IS THIS SCAN DONE.
000544: 06,3505           03465                           TC       LOOKLOOP                              #  NO.
000545: 06,3506           34570                           CAF      TEN                                   #  YES.  100MS RECALL.
000546: 06,3507           05663                           TC       WAITLIST
000547: 06,3510  E4,1654                                  EBANK=   QUITLOOK
000548: 06,3510           03461 14064                     2CADR    LOOKTOP
000549:
000550: 06,3512           05727                           TC       TASKOVER
000551:

End of include-file LEM_FLIGHT_CONTROL_SYSTEM_TEST.agc.  Parent file is MAIN.agc


