
Source Code


000002:                                                                                                  ## Copyright:    Public domain.
000003:                                                                                                  ## Filename:     LMP_COMMAND_ROUTINES.agc
000004:                                                                                                  ## Purpose:      A module for revision 0 of BURST120 (Sunburst). It
000005:                                                                                                  ##               is part of the source code for the Lunar Module's
000006:                                                                                                  ##               (LM) Apollo Guidance Computer (AGC) for Apollo 5.
000007:                                                                                                  ## Assembler:    yaYUL
000008:                                                                                                  ## Contact:      Ron Burkey <info@sandroid.org>.
000009:                                                                                                  ## Website:      www.ibiblio.org/apollo/index.html
000010:                                                                                                  ## Mod history:  2016-09-30 RSB  Created draft version.
000011:                                                                                                  ##               2016-10-28 HG   transcribed
000012:


000014:                                                                                                  #           THE FOLLOWING SUBROUTINES ALLOW MISSION PROGRAMS TO REQUEST LMP (LEM MISSION PROGRAMMER) OUTPUTS.
000015:                                                                                                  #  THE PROPER DECIMAL CODE IS ENTERED INTO A TABLE AND FROM THENCE TO CHANNEL 10 VIA T4RUPT AND ARE INCLUDED IN
000016:                                                                                                  #  THE DOWNLINK.
000017:
000018:                                                                                                  #           FOUR ROUTINES ARE PROVIDED:
000019:
000020:                                                                                                  #                                                   TC     1LMP            CALLED UNDER EXEC OR RUPT. DELIVERS CODE
000021:                                                                                                  #                                                   DEC    LMPCODE         AND RETURNS IMMEDIATELY.
000022:
000023:                                                                                                  #                                                   TC     2LMP            SAME AS 1LMP BUT TWO CODES ARE
000024:                                                                                                  #                                                   DEC    LMPCODE1        SENT.
000025:                                                                                                  #                                                   DEC    LMPCODE2
000026:
000027:                                                                                                  #                                                   TC     1LMP+DT         ASSUMES CALLED AS PART OF WAITLIST TASK.
000028:                                                                                                  #                                                   DEC    LMPCODE         DELIVERS LMP CODE, DOES A VARDELAY FOR
000029:                                                                                                  #                                                   DEC    DT              DT, AND THEN RETURNS UNDER WL CONTROL.
000030:
000031:                                                                                                  #                                                   TC     2LMP+DT         SAME AS 1LMP+DT BUT TWO CODES SENT.
000032:                                                                                                  #                                                   DEC    LMPCODE1
000033:                                                                                                  #                                                   DEC    LMPCODE2
000034:                                                                                                  #                                                   DEC    DT
000035:
000036:                                                                                                  #  WARNING  ***** PROGRAMS UNDER EXEC WHICH CALL 1LMP + 2LMP MUST FIRST
000037:                                                                                                  #                 INHIBIT INTERRUPT....RETURNS STILL INHIBITED.
000038:
000039:
000040:
000041:    5052                                           BLOCK    02
000042:    5052           50002        2LMP               INDEX    Q                                     #  PICK UP 1ST CODE
000043:    5053           30000                           CA       0
000044:    5054           24002                           INCR     Q
000045:    5055           22002                           LXCH     Q                                     #  SAVE 2ND CODE ADDRESS IN L
000046:
000047:    5056                        LMPGROUP           EQUALS   2
000048:    5056     1115               LMPTBASE           EQUALS   TBASE2
000049:    5056     1102               LMPPHASE           EQUALS   PHASE2
000050:
000051:    5056           05063                           TC       STORCOM    -1                         #  TO STORE IN BUFFER AND UPDATE POINTER
000052:
000053:    5057           22002                           LXCH     Q                                     #  RETRIEVE 2ND CODE ADDRESS FROM L.
000054:
000055:    5060           50002        1LMP               INDEX    Q
000056:    5061           30000                           CA       0                                     #  GET LMP CODE
000057:    5062           24002                           INCR     Q                                     #  SET RETURN.
000058:    5063           67745                           AD       BIT15                                 #  SET SIGN TO SHOW NEW COMMAND IN BUFFER
000059:    5064           51143        STORCOM            INDEX    LMPIN
000060:    5065           55133                           TS       LMPCMD                                #  INSERT IN NEXT SLOT IN BUFFER
000061:
000062:    5066           11143        UPLMPIN            CCS      LMPIN                                 #  UPDATE POINTER
000063:


000065:    5067           15071                           TCF      +2
000066:    5070           37765                           CAF      SEVEN
000067:    5071           55143                           TS       LMPIN
000068:    5072           00002                           TC       Q
000069:
000070:    5073           50002        2LMP+DT            INDEX    Q
000071:    5074           30000                           CA       0                                     #  PICK UP 1ST CODE
000072:    5075           24002                           INCR     Q
000073:    5076           22002                           LXCH     Q                                     #  2ND CODE ADDRESS IN L.
000074:
000075:    5077           05063                           TC       STORCOM    -1                         #  STORE IN BUFFER AND UPDATE POINTER
000076:
000077:    5100           15102                           TCF      +2
000078:
000079:    5101           00006        1LMP+DT            EXTEND                                         #  SAVE RETURN FOR RESTARTS
000080:    5102           23146                           QXCH     LMPRET
000081:    5103           30006                           CA       BBANK
000082:    5104           55147                           TS       LMPBBANK
000083:
000084:    5105           00006                           EXTEND
000085:    5106           51146                           INDEX    LMPRET
000086:    5107           30001                           DCA      0                                     #  PICK UP CODE AND DT
000087:    5110           05063                           TC       STORCOM    -1                         #  GO TO STORE CODE AND UPDATE POINTER
000088:
000089:    5111           23150                           LXCH     SAVDT                                 #  SAVE FOR RESTART
000090:    5112           04161                           TC       PHASCHNG                              #  RESTART PROTECT DELAY
000091:    5113           47012                           OCT      47012
000092:    5114           76627                           -GENADR  SAVDT
000093:    5115     1115                                  EBANK=   TBASE2
000094:    5115           05123 04062                     2CADR    LMPRST
000095:
000096:    5117           31150                           CA       SAVDT                                 #  WAIT DT SECONDS
000097:    5120           05704                           TC       VARDELAY
000098:
000099:    5121           51146        LMPEXIT            INDEX    LMPRET
000100:    5122           00002                           TC       2
000101:
000102:    5123           31147        LMPRST             CA       LMPBBANK                              #  LMP+DT RESTARTS COME HERE
000103:    5124           54006                           TS       BBANK                                 #  AFTER DELAY.
000104:    5125           05121                           TC       LMPEXIT

End of include-file LMP_COMMAND_ROUTINES.agc.  Parent file is MAIN.agc


