
Source Code


000002:                                                                                                  ## Copyright:   Public domain.
000003:                                                                                                  ## Filename:    LOGSUB_ROUTINE.agc
000004:                                                                                                  ## Purpose:     A module for revision 0 of BURST120 (Sunburst). It
000005:                                                                                                  ##              is part of the source code for the Lunar Module's
000006:                                                                                                  ##              (LM) Apollo Guidance Computer (AGC) for Apollo 5.
000007:                                                                                                  ## Assembler:   yaYUL
000008:                                                                                                  ## Contact:     Ron Burkey <info@sandroid.org>.
000009:                                                                                                  ## Website:     www.ibiblio.org/apollo/index.html
000010:                                                                                                  ## Mod history: 2016-09-30 RSB  Created draft version.
000011:                                                                                                  ##              2016-10-19 RSB  Transcribed.
000012:                                                                                                  ##              2016-12-06 RSB  Comment proofing via octopus/ProoferComments
000013:                                                                                                  ##                              performed, but no changes made.
000014:


000016:                                                                                                  #  INPUT....X IN MPAC
000017:                                                                                                  #  OUTPUT...-LOG(X)/32 IN MPAC
000018:
000019: 32,3060                                           BANK     32
000020: 32,3060           44301        LOGSUB             NORM     BDSU
000021: 32,3061           00153                                    MPAC       +6
000022: 32,3062           25127                                    ALMOST1
000023: 32,3063           77776                           EXIT
000024: 32,3064           07274                           TC       POLY
000025: 32,3065           00006                           DEC      6          B-14
000026: 32,3066           00000 00002                     2DEC     .0000000060
000027:
000028: 32,3070           76777 77175                     2DEC     -.0312514377
000029:
000030: 32,3072           77400 75416                     2DEC     -.0155686771
000031:
000032: 32,3074           77507 65515                     2DEC     -.0112502068
000033:
000034: 32,3076           77741 63547                     2DEC     -.0018545108
000035:
000036: 32,3100           77052 55373                     2DEC     -.0286607906
000037:
000038: 32,3102           01167 30361                     2DEC     .0385598563
000039:
000040: 32,3104           76520 75267                     2DEC     -.0419361902
000041:
000042: 32,3106           37767                           CAF      ZERO
000043: 32,3107           54146                           TS       MPAC       +2
000044: 32,3110           00006                           EXTEND
000045: 32,3111           33125                           DCA      CLOG2/32
000046: 32,3112           52145                           DXCH     MPAC
000047: 32,3113           52122                           DXCH     BUF        +1
000048: 32,3114           30152                           CA       MPAC       +6
000049: 32,3115           07357                           TC       SHORTMP
000050: 32,3116           52146                           DXCH     MPAC       +1
000051: 32,3117           52145                           DXCH     MPAC
000052: 32,3120           52122                           DXCH     BUF        +1
000053: 32,3121           20145                           DAS      MPAC
000054: 32,3122           06112                           TC       INTPRET
000055: 32,3123           43476                           DCOMP    RVQ
000056: 32,3124           00542 34414  CLOG2/32           2DEC     .0216608494
000057:
000058: 32,3126           37777 37777  ALMOST1            2DEC     .999999999

End of include-file LOGSUB_ROUTINE.agc.  Parent file is MAIN.agc


