
Source Code


000002:                                                                                                  ## Copyright:    Public domain.
000003:                                                                                                  ## Filename:     MASS_CALCULATOR.agc
000004:                                                                                                  ## Purpose:      A module for revision 0 of BURST120 (Sunburst). It
000005:                                                                                                  ##               is part of the source code for the Lunar Module's
000006:                                                                                                  ##               (LM) Apollo Guidance Computer (AGC) for Apollo 5.
000007:                                                                                                  ## Assembler:    yaYUL
000008:                                                                                                  ## Contact:      Ron Burkey <info@sandroid.org>.
000009:                                                                                                  ## Website:      www.ibiblio.org/apollo/index.html
000010:                                                                                                  ## Mod history:  2016-09-30 RSB  Created draft version.
000011:                                                                                                  ##               2016-10-30 MAS  Transcribed.
000012:                                                                                                  ##               2016-12-06 RSB  Comment-proofing via octopus/ProoferComments;
000013:                                                                                                  ##                               changes were made.
000014:


000016: 30,3206                                           BANK     30
000017:                                                                                                  #  * * * * * * * * * * * * * * * * * * * * * * * * * * * * * * * * * * * *
000018:
000019:                                                                                                  #      THE MASS UPDATE ROUTINE EXTENDS FROM APPROXIMATELY HERE TO THE NEXT
000020:                                                                                                  #  ROW OF ASTERISKS.   COMPUTATIONS ARE AS FOLLOWS:-
000021:                                                                                                  #      (1) /AF/ = MAGNITUDE DV/DT, SCALED IN UNITS OF 2(-5) M/CS/CS.
000022:                                                                                                  #      (2) PREFORCE = /AF/ MASS, APPROXIMATE PRESENT THRUST, SCALED AT
000023:                                                                                                  #          SOME 3.3 POUNDS PER BIT; PREFORCE LATER BECOMES PREFORCE/2FMAX.
000024:                                                                                                  #      (3) NOMINAL EXHAUST VELOCITY, VEXNOM = VEXSTEP + (PREFORCE-FSTEP)
000025:                                                                                                  #          SLOPE, WHERE VEXSTEP, FSTEP, AND SLOPE ARE SELECTED FROM THE
000026:                                                                                                  #          'VEXTABLE' BY THE ROUTINE BEGINNING AT VEXFINDD; THE FSTEPS
000027:                                                                                                  #          AND VXSTEPS DEFINE CERTAIN DISCRETE POINTS ON THE CURVE OF
000028:                                                                                                  #          EXHAUST VELOCITY VERSUS THRUST; THE ASSOCIATED SLOPE IS ALWAYS
000029:                                                                                                  #          THAT FOR THE SEGMENT JUST PRECEEDING THOSE POINTS.   (UNITS
000030:                                                                                                  #          FOR VEXNOM, AS FOR NEGVEX, ARE 2(6) M/CS.)
000031:                                                                                                  #      (4) AREARATE, A MODERATELY ABSTRUSE (NOT TO SAY ABSURD) FUNCTION
000032:                                                                                                  #          OF DELAREA (EROSION) AND PREFORCE.   (THE AREA IN QUESTION IS
000033:                                                                                                  #          THAT OF THE THROAT OF THE ENGINE.)
000034:                                                                                                  #      (5) DELAREA = DELAREA + AREARATE DELTAT, SCALED IN UNITS OF 2(7) %
000035:                                                                                                  #      (6) NEGVEX = -(VEXNOM - CVEX5 DELAREA).
000036:                                                                                                  #      (7) MASS = MASS + (/DELV//NEGVEX) MASS, SCALED IN UNITS OF 2(15)
000037:                                                                                                  #          KILOGRAMS.
000038:
000039:                                                                                                  #      THE FOLLOWING INITIALIZATIONS MUST BE MADE BEFORE LAUNCH:
000040:                                                                                                  #  C(MASS) = 0, C(LEMMASS1) = SCALED MASS OF LEM CUM DPS, C(LEMMASS2) =
000041:                                                                                                  #  SCALED MASS OF LEM WITHOUT DPS.   UPON LEM-SIVB SEPARATION MASS MUST
000042:                                                                                                  #  BE REINITIALIZED USING LEMMASS1 AND DELAREA MUST BE SET TO DP ZERO.
000043:                                                                                                  #  LATER, WHEN THE DPS PARTS COMPANY, MASS MUST BE INITIALIZED STILL
000044:                                                                                                  #  AGAIN USING LEMMASS2.
000045:
000046:                                                                                                  #      THE FOLLOWING IS AN INELEGANT SUPERFLUITY:-   INPUTS: MASS, DELAREA,
000047:                                                                                                  #  DELV, DELTAT, EMANATIONS FROM THE VEXTABLE, A TABLESPOON OF SALT AND
000048:                                                                                                  #  SEVEN BYZANTINE DODO EGGS.   OUTPUTS: /AF/ AND MASS.   DEBRIS: PREFORCE,
000049:                                                                                                  #  NEGVEX, AND AREARATE (TO LEARN MORE ABOUT THESE GEMS, SEE ABOVE).
000050:                                                                                                  #  SUBROUTINES CALLED: MASSMULT (A PART OF THROTTLE CONTROL) AND THE
000051:                                                                                                  #  INTERPRETER.   ERASABLES: BANK 5 AT PRESENT.   EYLES WROTE THIS STUFF;
000052:                                                                                                  #  HIS LAST MODIFICATION THEREOF (NUMBER N+2) WENT INTO AGC REVISION 20.
000053:
000054: 30,3206           43145        MASSMON            DLOAD    BOFF
000055: 30,3207           01321                                    MASS
000056: 30,3210           00753                                    SIVBGONE
000057: 30,3211           61373                                    NOMASS
000058: 30,3212           74375                           VLOAD    VXSC
000059: 30,3213           00404                                    DELV                                  #  DV = DELV*KPIP SCALED AT 2(+4) M/CS
000060: 30,3214           21163                                    KPIP
000061: 30,3215           51406                           PUSH     ABVAL                                 #  DV IN PDL
000062: 30,3216           03624                           STORE    ABDVCONV
000063: 30,3217           56206                           PUSH     DDV
000064: 30,3220           21400                                    2SEC(9)
000065: 30,3221           01325                           STORE    /AF/                                  #  /AF/ = MAGNITUDE DV/DT
000066:


000068: 30,3222           77776                           EXIT
000069:
000070: 30,3223           33444                           CA       ETHROTL
000071: 30,3224           54003                           TS       EBANK                                 #  JUST TO INSURE HAVING THE PROPER EBANK
000072: 30,3225  E5,1565                                  EBANK=   ETHROT
000073:
000074: 30,3225           00006                           EXTEND
000075: 30,3226           31325                           DCA      /AF/
000076: 30,3227           03445                           TC       MASSMULT                              #  WHICH PRODUCES DP FORCE IN A AND L
000077: 30,3230           53546                           DXCH     PREFORCE
000078:
000079: 30,3231           41545        CHOICE1            CS       PREFORCE                              #  TEST PREFORCE TO SEE IF
000080: 30,3232           63401                           AD       LOWFCRIT                              #    EITHER BIG ENGINE IS ON
000081: 30,3233           00006                           EXTEND
000082: 30,3234           63241                           BZMF     CHOICE2                               #  BRANCH IF PREFORCE > LOWFCRIT = 720 LBS.
000083:
000084: 30,3235           00006        VEXFINDR           EXTEND                                         #  OTHERWISE, USE RCSVEX
000085: 30,3236           43404                           DCS      RCSVEX
000086: 30,3237           53556                           DXCH     NEGVEX
000087: 30,3240           13252                           TCF      MININIT
000088: 30,3241           00006        CHOICE2            EXTEND
000089: 30,3242           00030                           READ     30
000090: 30,3243           40000                           COM
000091: 30,3244           77762                           MASK     BIT2
000092: 30,3245           00006                           EXTEND
000093: 30,3246           13256                           BZF      VEXFINDD
000094: 30,3247           00006        VEXFINDA           EXTEND                                         #  OTHERWISE, USE APSVEX
000095: 30,3250           43406                           DCS      APSVEX
000096: 30,3251           53556                           DXCH     NEGVEX
000097: 30,3252           00006        MININIT            EXTEND
000098: 30,3253           33415                           DCA      MINMASSA
000099: 30,3254           53564                           DXCH     MINIMASS
000100: 30,3255           13351                           TCF      ENDVEX
000101:
000102: 30,3256           00006        VEXFINDD           EXTEND
000103: 30,3257           33417                           DCA      MINMASSD
000104: 30,3260           53564                           DXCH     MINIMASS
000105:
000106: 30,3261           37767                           CA       ZERO
000107: 30,3262           55544                           TS       VEXDEX
000108: 30,3263           37761        VEXLOOP            CA       FOUR
000109: 30,3264           27544                           ADS      VEXDEX                                #  INCREMENTING VEXDEX BY FOUR
000110: 30,3265           41545                           CS       PREFORCE
000111: 30,3266           51544                           INDEX    VEXDEX
000112: 30,3267           63414                           AD       FSTEP                                 #  FSTEP - PREFORCE IN A AND L
000113: 30,3270           00006                           EXTEND
000114: 30,3271           63263                           BZMF     VEXLOOP                               #  BRANCH IF PREFORCE > OR = FSTEP.  EMERGE
000115:                                                                                                  #    FROM LOOP WITH INDEX PROPERLY SET AS
000116:                                                                                                  #    SOON AS FSTEP > PREFORCE.
000117: 30,3272           40000                           COM                                            #  PREFORCE-FSTEP (ALWAYS MINUS) IN A AND L
000118:


000120: 30,3273           00006                           EXTEND
000121: 30,3274           51544                           INDEX    VEXDEX
000122: 30,3275           73415                           MP       SLOPE
000123: 30,3276           53550                           DXCH     VEXNOM
000124: 30,3277           00006                           EXTEND
000125: 30,3300           51544                           INDEX    VEXDEX
000126: 30,3301           33417                           DCA      VEXSTEP
000127: 30,3302           21550                           DAS      VEXNOM                                #  VEXNOM = VEXSTEP + (PREFORCE-FSTEP)SLOPE
000128:
000129: 30,3303           43700                           CS       -FMAX
000130: 30,3304           60000                           DOUBLE
000131: 30,3305           56002                           XCH      Q
000132: 30,3306           00006                           EXTEND
000133: 30,3307           31546                           DCA      PREFORCE
000134: 30,3310           00006                           EXTEND
000135: 30,3311           10002                           DV       Q
000136: 30,3312           55545                           TS       PREFORCE                              #  PREFORCE = PREFORCE/2FMAX
000137:
000138: 30,3313           33412                           CA       CVEX4
000139: 30,3314           00006                           EXTEND
000140: 30,3315           71551                           MP       DELAREA
000141: 30,3316           63411                           AD       CVEX3
000142: 30,3317           00006                           EXTEND
000143: 30,3320           71545                           MP       PREFORCE
000144: 30,3321           00006                           EXTEND                                         #                MUMBO
000145: 30,3322           71545                           MP       PREFORCE                              #                JUMBO
000146: 30,3323           53554                           DXCH     AREARATE
000147: 30,3324           33410                           CA       CVEX2
000148: 30,3325           00006                           EXTEND
000149: 30,3326           71551                           MP       DELAREA
000150: 30,3327           63407                           AD       CVEX1
000151: 30,3330           00006                           EXTEND
000152: 30,3331           71545                           MP       PREFORCE
000153: 30,3332           21554                           DAS      AREARATE                              #  NOW SCALED IN UNITS OF 2(-2) PERCENT/CS
000154: 30,3333           31553                           CA       AREARATE
000155: 30,3334           00006                           EXTEND
000156: 30,3335           73377                           MP       2SEC(9)
000157: 30,3336           53560                           DXCH     DAREATMP
000158: 30,3337           00006                           EXTEND
000159: 30,3340           31552                           DCA      DELAREA
000160: 30,3341           21560                           DAS      DAREATMP                              #  DAREATMP NOW CONTAINS NEW DELAREA
000161: 30,3342           31557                           CA       DAREATMP
000162: 30,3343           00006                           EXTEND
000163: 30,3344           73413                           MP       CVEX5
000164: 30,3345           53556                           DXCH     NEGVEX                                #  RESULT IS SCALED IN UNITS OF 2(6) M/CS
000165: 30,3346           00006                           EXTEND
000166: 30,3347           41550                           DCS      VEXNOM
000167: 30,3350           21556                           DAS      NEGVEX                                #  NEGVEX NOW HOLDS THE GENUINE ARTICLE
000168:
000169: 30,3351           37767        ENDVEX             CA       ZERO                                  #  PRECAUTIONARY
000170:


000172: 30,3352           54153                           TS       MODE
000173: 30,3353           54111                           TS       OVFIND
000174:
000175: 30,3354           06112                           TC       INTPRET
000176: 30,3355           60545                           DLOAD    SR2                                   #  RESCALING /DELV/ TO 2(6) M/CS
000177: 30,3356           41271                           DDV      DMP
000178: 30,3357           02556                                    NEGVEX
000179: 30,3360           01321                                    MASS
000180: 30,3361           77615                           DAD
000181: 30,3362           01321                                    MASS
000182: 30,3363           02562                           STORE    MASSTEMP
000183: 30,3364           51025                           DSU      BPL                                   #  RETURN NOW IF MASS > MINIMASS
000184: 30,3365           02564                                    MINIMASS
000185: 30,3366           00052                                    QPRET
000186: 30,3367           77745                           DLOAD                                          #  OTHERWISE SET MASS = MINIMASS
000187: 30,3370           02564                                    MINIMASS
000188: 30,3371           02562                           STORE    MASSTEMP
000189: 30,3372           77616                           RVQ
000190:
000191: 30,3373           16562        NOMASS             STODL    MASSTEMP
000192: 30,3374           26643                                    DP0
000193: 30,3375           02560                           STORE    DAREATMP                              #  DELAREA INITIALIZED UNTIL SIVB SEPARATES
000194: 30,3376           77616                           RVQ
000195:
000196:                                                                                                  #  * * * * * * * * * * * * * * * * * * * * * * * * * * * * * * * * * * * *
000197:                                                                                                  #  * * * * * * * * * * * * * * * * * * * *
000198:
000199:                                                                                                  #  CONSTANTS FOR VEXFIND1
000200:
000201: 30,3377           14400 00000  2SEC(9)            2DEC     200        B-9                        #  CONSTANT GUIDANCE PERIOD, SUP70S5DLY
000202:
000203:
000204:
000205: 30,3401           00411        LOWFCRIT           OCT      411                                   #  ABOUT 720 POUNDS, SCALED
000206: 30,3402           05423        MASSCRIT           DEC      .173031964                            #  MASS OF LEM WITH DPS > MASSCRIT > MASS
000207:                                                                                                  #    OF LEM WITHOUT DPS
000208:
000209: 30,3403           15165 30244  RCSVEX             2DEC     .4134375                              #  EXHAUST VELOCITY FOR RCS JETS
000210:
000211: 30,3405           17114 33562  APSVEX             2DEC     .473441550                            #  EXHAUST VELOCITY FOR ASCENT ENGINE
000212:
000213: 30,3407           00316        CVEX1              DEC      +.012558840
000214: 30,3410           76221        CVEX2              DEC      -.053575066
000215: 30,3411           77312        CVEX3              DEC      -.018875329
000216: 30,3412           02447        CVEX4              DEC      +.080517427
000217: 30,3413           01503        CVEX5              DEC      +.05099460
000218:


000220: 30,3414           02035 07567  MINMASSA           2DEC     2106.4833  B-15                       #  MASS OF APS EMPTY
000221:
000222: 30,3416           06062 20000  MINMASSD           2DEC     6245       B-15                       #  DESCENT WITH NO DPS FUEL AND 405 RCS
000223:
000224:
000225:                                                                                                  #  ADDRESSES FOR ACCESSING VEXTABLE
000226:
000227: 30,3420  30,3414               FSTEP              =        FSTEP1     -4
000228: 30,3420  30,3415               SLOPE              =        SLOPE1     -4
000229: 30,3420  30,3416               VEXSTEP            =        VXSTEP1    -4
000230:
000231:                                                                                                  #  THE VEXTABLE
000232:
000233: 30,3420           01713        FSTEP1             DEC      +.0592346907                            #   25%
000234: 30,3421           11736        SLOPE1             DEC      +.3104172317
000235: 30,3422           16445 06644  VXSTEP1            2DEC     +.4553963093                            #  ABOUT 2914.53 M/S
000236:
000237:
000238:
000239: 30,3424           03625        FSTEP2             DEC      +.1184693815                            #   50%
000240: 30,3425           76531        SLOPE2             DEC      -.0413889642
000241: 30,3426           16375 01343  VXSTEP2            2DEC     +.4529446468                            #  ABOUT 2898.84 M/S
000242:
000243:
000244:
000245: 30,3430           06275        FSTEP3             DEC      +.1990285610                            #   84%
000246: 30,3431           06741        SLOPE3             DEC      +.2168355662
000247: 30,3432           17033 07603  VXSTEP3            2DEC     +.4704127421                            #  ABOUT 3010.64 M/S
000248:
000249:
000250:
000251: 30,3434           07100        FSTEP4             DEC      +.2226276618                            #   93%
000252: 30,3435           76601        SLOPE4             DEC      -.0389579859
000253: 30,3436           17014 05573  VXSTEP4            2DEC     +.4694933687                            #  ABOUT 3004.75 M/S
000254:
000255:
000256:
000257: 30,3440           37777        HIFSTEP            DEC      +.9999999999                            #  JUST IN CASE, ANOMALOUSLY,
000258: 30,3441           00000        HISLOPE            DEC      +.0000000000                            #    PREFORCE APPEARS TO
000259: 30,3442           17014 05573  HIVXSTEP           2DEC     +.4694933687                            #    EXCEED 100%.
000260:                                                                                                  #  * * * * * * * * * * * * * * * * * * * * *
000261:
000262: 30,3444           02565        ETHROTL            ECADR    ETHROT

End of include-file MASS_CALCULATOR.agc.  Parent file is MAIN.agc


