
Source Code


000002:                                                                                                  ## Copyright:    Public domain.
000003:                                                                                                  ## Filename:     MISSION_PHASE_6_COAST_SIVB_ATTACHED.agc
000004:                                                                                                  ## Purpose:      A module for revision 0 of BURST120 (Sunburst). It
000005:                                                                                                  ##               is part of the source code for the Lunar Module's
000006:                                                                                                  ##               (LM) Apollo Guidance Computer (AGC) for Apollo 5.
000007:                                                                                                  ## Assembler:    yaYUL
000008:                                                                                                  ## Contact:      Ron Burkey <info@sandroid.org>.
000009:                                                                                                  ## Website:      www.ibiblio.org/apollo/index.html
000010:                                                                                                  ## Mod history:  2016-09-30 RSB  Created draft version.
000011:                                                                                                  ##               2016-10-25 MAS  Transcribed.
000012:                                                                                                  ##               2016-12-06 RSB  Comments proofed using octopus/ProoferComments,
000013:                                                                                                  ##                               no changes made.
000014:


000016:                                                                                                  #  PROGRAM DESCRIPTION
000017:                                                                                                  #     COAST SIVB ATTACHED
000018:
000019:                                                                                                  #  MOD NO   1      DATE - 4 NOV 66
000020:
000021:                                                                                                  #  MOD BY - OVERBAUGH
000022:                                                                                                  #  FUNCTIONAL DESCRIPTION
000023:                                                                                                  #     WHEN THE DV MONITOR DETECTS SIVB SHUTDOWN THE
000024:                                                                                                  #     THRUST MISSION CONTROL PROGRAM INITIATES MP6.
000025:                                                                                                  #     DURING THIS PHASE THE ABORT COMMAND MONITOR AND
000026:                                                                                                  #     THE TUMBLE MONITOR ARE TERMINATED AND THE C-BAND
000027:                                                                                                  #     XPONDER IS SET TO ON*.  WHEN THRUST DUE TO
000028:                                                                                                  #     VENTING BECOMES NEGLIGIBLE READING OF
000029:                                                                                                  #     THE PIPAS IS TERMINATED.
000030:
000031:                                                                                                  #  NORMAL EXIT MODES -
000032:                                                                                                  #     TC   TASKOVER
000033:
000034:                                                                                                  #  ERASABLE INITIALIZATION REQUIRED
000035:                                                                                                  #     MP6TO7
000036:
000037:                                                                                                  #  OUTPUT
000038:                                                                                                  #     UPDATE MODREG
000039:                                                                                                  #     TERMINATE ABORT COMMAND MONITOR
000040:                                                                                                  #     TERMINATE TUMBLE MONITOR
000041:                                                                                                  #     MISSION SCHEDULING REGISTERS SET TO CALL MP7
000042:
000043:                                                                                                  #  DEBRIS
000044:                                                                                                  #     CENTRALS,A,Q,Z
000045:
000046:                                                                                                  #  SUBROUTINES CALLED
000047:                                                                                                  #     EXECUTIVE(ENDOFJOB)
000048:                                                                                                  #     WAITLIST
000049:                                                                                                  #     LONGCALL
000050:                                                                                                  #     NEWMODEX
000051:                                                                                                  #     1LMP
000052:                                                                                                  #     FLAG1DWN
000053:                                                                                                  #     FLAG2DWN
000054:                                                                                                  #     SCHEDULE ENTRY ROUTINE(MPENTRY)
000055:
000056: 27,2504                                           BANK     27
000057: 27,2504  E3,1772                                  EBANK=   MP6TO7
000058:
000059: 27,2504           04117        MP6JOB             TC       NEWMODEX                              #  UPDATE MODREG
000060: 27,2505           00013                           OCT      13
000061:
000062: 27,2506           36306                           CAF      SIX
000063: 27,2507           54764                           TS       PHASENUM
000064:
000065: 27,2510           04161                           TC       PHASCHNG


000067: 27,2511           47012                           OCT      47012
000068: 27,2512           13560                           DEC      6000       B-14
000069: 27,2513  E3,1772                                  EBANK=   MP6TO7
000070: 27,2513           02526 56063                     2CADR    MP6A
000071:
000072: 27,2515           37756                           CAF      BIT6
000073: 27,2516           04105                           TC       SETRSTRT                              #  SET RESTART FLAG
000074:
000075: 27,2517           32525                           CAF      DEC6000                               #  INITIALIZE 1 MIN DELAY
000076: 27,2520           00004                           INHINT
000077: 27,2521           05663                           TC       WAITLIST
000078: 27,2522  E3,1772                                  EBANK=   MP6TO7
000079: 27,2522           02526 56063                     2CADR    MP6A
000080:
000081: 27,2524           15567                           TCF      ENDOFJOB
000082: 27,2525           13560        DEC6000            DEC      6000       B-14
000083:
000084: 27,2526           06076        MP6A               TC       FLAG2DWN                              #  TERMINATE ABORT COMMAND MONITOR
000085: 27,2527           00400                           OCT      00400                                 #  BIT 9
000086:
000087:                                                                                                  #                                    TERMINATE TUMBLE MONITOR
000088:
000089: 27,2530           06067                           TC       FLAG1DWN
000090: 27,2531           20000                           OCT      20000                                 #  BIT14
000091: 27,2532           04161        MP6B               TC       PHASCHNG
000092: 27,2533           27042                           OCT      27042
000093: 27,2534           75232                           -GENADR  656SEC
000094: 27,2535  E3,1772                                  EBANK=   MP6TO7
000095: 27,2535           02547 56063                     2CADR    CBXPNDR
000096:                                                                                                  #  REF   1       27,2536   56063 1  CALL C-BAND TRANSPONDER-ON*
000097:
000098: 27,2537           00006                           EXTEND
000099: 27,2540           32546                           DCA      656SEC                                #  LONGCALL 10 M 56 S
000100: 27,2541           05741                           TC       LONGCALL                              #  FOR C-BAND TRANSPONDER-ON*
000101: 27,2542  E3,1772                                  EBANK=   MP6TO7
000102: 27,2542           02547 56063                     2CADR    CBXPNDR
000103:
000104: 27,2544           15727                           TCF      TASKOVER
000105: 27,2545           00004 00100  656SEC             2DEC     65600      B-28
000106:                                                                                                  #                27,2546   00100 0  C-BAND TRANSPONDER-ON*
000107:
000108: 27,2547           05060        CBXPNDR            TC       1LMP
000109: 27,2550           00152                           DEC      106        B-14
000110:
000111: 27,2551           04141                           TC       2PHSCHNG
000112: 27,2552           00002                           OCT      00002
000113: 27,2553           05013                           OCT      05013
000114: 27,2554           77777                           OCT      77777
000115:
000116:                                                                                                  #                                    CALL SCHEDULE ENTRY ROUTINE
000117:


000119: 27,2555           05126                           TC       MPENTRY
000120: 27,2556           00001                           DEC      1          B-14                       #  J=1
000121: 27,2557           00007                           DEC      7          B-14                       #  MP=7
000122: 27,2560           01772                           ADRES    MP6TO7                                #  DT = 28 MIN
000123:
000124:                                                                                                  #                                    TERMINATE READING OF PIPAS.
000125:                                                                                                  #                                    THRUST DUE TO VENTING AFTER SIVB
000126:                                                                                                  #                                    SHUTDOWN HAS BECOME NEGLIGIBLE.
000127:
000128: 27,2561           06067                           TC       FLAG1DWN                              #  TERMINATE SERVICER
000129: 27,2562           00001                           OCT      1
000130: 27,2563           15727                           TCF      TASKOVER
000131:
000132:                                                                                                  #  END OF MISSION PHASE 6

End of include-file MISSION_PHASE_6_COAST_SIVB_ATTACHED.agc.  Parent file is MAIN.agc


