
Source Code


000002:                                                                                                  ## Copyright:    Public domain.
000003:                                                                                                  ## Filename:     MISSION_PHASE_2_GUIDANCE_REFERENCE_RELEASE_PLUS_BOOST_MONITOR.agc
000004:                                                                                                  ## Purpose:      A module for revision 0 of BURST120 (Sunburst). It
000005:                                                                                                  ##               is part of the source code for the Lunar Module's
000006:                                                                                                  ##               (LM) Apollo Guidance Computer (AGC) for Apollo 5.
000007:                                                                                                  ## Assembler:    yaYUL
000008:                                                                                                  ## Contact:      Ron Burkey <info@sandroid.org>.
000009:                                                                                                  ## Website:      www.ibiblio.org/apollo/index.html
000010:                                                                                                  ## Mod history:  2016-09-30 RSB  Created draft version.
000011:                                                                                                  ##               2016-10-23 MAS  Transcribed.
000012:                                                                                                  ##               2016-10-32 RSB  Typos.
000013:


000015:                                                                                                  #  PROGRAM NAME - MISSION PHASE 2 GUIDANCE REFERENCE RELEASE + BOOST MONITOR.
000016:
000017:                                                                                                  #  MODIFICATION NUMBER - 1         DATE - NOVEMBER 22, 1966                MODIFICATION BY - COVELLI
000018:
000019:
000020:
000021:                                                                                                  #  FUNCTIONAL DESCRIPTION -
000022:
000023:                                                                                                  #     THE FUNCTION OF MISSION PHASE 2 IS TO CONTROL THE SEQUENCE OF EVENTS IN THE 206 FLIGHT FROM GUIDANCE
000024:                                                                                                  #  REFERENCE RELEASE THROUGH LIFTOFF TO THE SIVB BOOSTER SHUTDOWN.
000025:
000026:                                                                                                  #     AT GUIDANCE REFERENCE RELEASE, THE GRR FLAG IS SET,  PREREAD IS CALLED TO BEGIN COMPUTATION OF POSITION AND
000027:                                                                                                  #  VELOCITY, AND CALLS ARE MADE FOR DFI T/M CALIBRATION AND LIFTOFF
000028:
000029:                                                                                                  #     WHEN PRELAUNCH DETECTS THAT THE GRR FLAG IS SET, IT TERMINATES GYROCOMPASSING AND CALLS MP2JOB. MP2JOB
000030:                                                                                                  #  DISPLAYS 7 IN THE MAJOR MODE AND GOES TO MATRXJOB TO COMPUTE REFSMMAT.
000031:
000032:                                                                                                  #     AT LIFTOFF, THE LGC CLOCK IS ZEROED, CALLS ARE MADE FOR THE COLD FIRE PURGE AND POST LET JETTISON PROGRAMS.
000033:                                                                                                  #  THE MAJOR MODE IS CHANGED TO 11.
000034:
000035:                                                                                                  #     AT POST LET JETTISON, THE DV MONITOR IS ENABLED TO DETECT BOOSTER SHUTDOWN, THE ABORT COMMAND MONITOR AND THE
000036:                                                                                                  #  TUMBLE MONITOR ARE ENABLED, AND THE MAJOR MODE IS CHANGED TO 12.
000037:
000038:                                                                                                  #     THE VARIOUS LMP COMMANDS REQUIRED FOR MP2 ARE SCHEDULED BY WAITLIST CALLS.
000039:
000040:                                                                                                  #     AT DETECTION OF SIVB SHUTDOWN, AN EXECUTIVE CALL IS MADE TO MISSION PHASE 6.
000041:
000042:
000043:
000044:                                                                                                  #  CALLING SEQUENCE :
000045:
000046:                                                                                                  #     MISSION PHASE 2 IS BEGUN UPON RECEIPT OF THE GUIDANCE REFERENCE RELEASE SIGNAL (VERB 65 ENTER) VIA UPLINK.
000047:
000048:
000049:
000050:                                                                                                  #  SUBROUTINES CALLED :
000051:
000052:                                                                                                  #           PREREAD                1LMP
000053:                                                                                                  #           TUMTASK                2LMP
000054:                                                                                                  #           NEWMODEX               PHASCHNG
000055:                                                                                                  #           FINDVAC                NEWPHASE
000056:                                                                                                  #           NOVAC                  DFITMCAL
000057:                                                                                                  #           SPVAC                  IBNKCALL
000058:                                                                                                  #           WAITLIST
000059:                                                                                                  #           LONGCALL
000060:
000061:
000062:
000063:                                                                                                  #  NORMAL EXIT MODES :


000065:                                                                                                  #     EXIT TO MISSION PHASE 6 AT SIVB SHUTDOWN.
000066:
000067:
000068:
000069:                                                                                                  #  ABORT EXIT MODES :
000070:
000071:                                                                                                  #     TO MISSION PHASE 3 IF SUBORBITAL ABORT COMMAND RECEIVED VIA UPLINK.
000072:                                                                                                  #     TO MISSION PHASE 4 IF CONTINGENCY ORBIT INSERTION COMMAND RECEIVED VIA UPLINK.
000073:                                                                                                  #     TO CHARALRM IF EITHER OF THE ABOVE ABORT COMMANDS RECEIVED WHILE ABORT COMMAND MONITOR NOT ENABLED.
000074:
000075:
000076:
000077:                                                                                                  #  OUTPUT :
000078:
000079:                                                                                                  #           TGRR          TIME OF GUIDANCE REFERENCE RELEASE
000080:                                                                                                  #           TPRELTER      TIME OF GYROCOMPASSING TERMINATION
000081:                                                                                                  #           TLIFTOFF      TIME OF LIFTOFF AND LGC CLOCK ZEROING
000082:                                                                                                  #           GRR FLAG      BIT2 FLAGWRD1 SET TO INDICATE GRR SIGNAL RECEIVED
000083:                                                                                                  #           SERVICER IS GOING AT END OF MISSION PHASE 2
000084:                                                                                                  #           MAJOR MODE DISPLAYS
000085:
000086:
000087:
000088:                                                                                                  #  ERASABLE INITIALIZATION :
000089:
000090:                                                                                                  #           DT-LIFT       DELTA TIME FROM GRR TO LIFTOFF, SINGLE PRECISION SCALED AT 2(+14) CS.
000091:                                                                                                  #           DT-LETJT      DELTA TIME FROM LIFTOFF TO POST LET JETTISON, DOUBLE PRECISION SCALED AT 2(+28) CS.
000092:                                                                                                  #           RAVEGON       POSITION AT GRR IN SM CO-ORDINATES, VECTOR SCALED AT 2(+24) M.
000093:                                                                                                  #           VAVEGON       VELOCITY AT GRR IN SM CO-ORDINATES, VECTOR SCALED AT 2(+7) M/CS.
000094:
000095:                                                                                                  #  ********  ALL OF THE ERASABLE INITIALIZATION MUST BE DONE DURING THE PRE-LAUNCH ERASABLE LOAD  *****************
000096:
000097:
000098:
000099:                                                                                                  #  DEBRIS :
000100:
000101:                                                                                                  #     CENTRALS AND EXECUTIVE WORK AREA.
000102:
000103:
000104:
000105: 27,2000                                           BANK     27
000106: 27,2000  E3,1736                                  EBANK=   TGRR
000107:
000108:
000109:
000110: 27,2000           06051        GRRPLACE           TC       FLAG1UP
000111: 27,2001           00002                           OCT      2
000112: 27,2002           05567                           TC       ENDOFJOB
000113: 27,2003           35641        MP2TASK            CA       PRIO15
000114: 27,2004           05516                           TC       FINDVAC


000116: 27,2005  E3,1736                                  EBANK=   TGRR
000117: 27,2005           02056 56063                     2CADR    MP2JOB
000118:
000119: 27,2007           31742                           CA       DT-LIFT
000120: 27,2010           05663                           TC       WAITLIST                              #  SET UP CALL TO LIFTOFF PROGRAM
000121: 27,2011  E3,1736                                  EBANK=   TGRR
000122: 27,2011           02223 56063                     2CADR    LIFTOFF
000123:
000124: 27,2013           04141                           TC       2PHSCHNG
000125: 27,2014           00375                           OCT      00375                                 #  5.37 SPOT FOR MP2TASK.
000126: 27,2015           00273                           OCT      00273                                 #  3.27 SPOT TO FINISH PRELAUNCH.
000127:
000128: 27,2016           04141                           TC       2PHSCHNG
000129: 27,2017           40132                           OCT      40132                                 #  2.13 SPOT FOR LIFTOFF.
000130: 27,2020           00074                           OCT      00074                                 #  4.7 SPOT FOR MP2JOB.
000131:
000132: 27,2021           37762                           CAF      BIT2
000133: 27,2022           04105                           TC       SETRSTRT                              #  SET RESTART FLAG
000134:
000135: 27,2023           35652        SETPIPDT           CAF      PRIO31                                #  TWO SECONDS SCALED AT (CS) X 2(+8)
000136: 27,2024           54765                           TS       1/PIPADT
000137:
000138: 27,2025           32342                           CA       AVEGADRS
000139: 27,2026           55310                           TS       DVSELECT
000140:
000141: 27,2027           00006                           EXTEND
000142: 27,2030           32443                           DCA      SVEXADRS
000143: 27,2031           53073                           DXCH     AVGEXIT
000144:
000145: 27,2032           00006                           EXTEND
000146: 27,2033           32443                           DCA      SVEXADRS
000147: 27,2034           53075                           DXCH     DVMNEXIT
000148:
000149: 27,2035           35661                           CA       EBANK5
000150: 27,2036           54003                           TS       EBANK
000151: 27,2037           37751                           CA       EBANK4
000152: 27,2040           54002                           TS       Q
000153: 27,2041  E5,1561                                  EBANK=   TEMPTIME
000154: 27,2041           00006                           EXTEND                                         #  GET TEMPTIME
000155: 27,2042           31562                           DCA      TEMPTIME
000156: 27,2043           53344                           DXCH     TPRELTER
000157: 27,2044           00006                           EXTEND
000158: 27,2045           31344                           DCA      TPRELTER
000159: 27,2046           00006                           EXTEND
000160: 27,2047           22003                           QXCH     EBANK
000161: 27,2050  E4,1510                                  EBANK=   TAVEGON
000162: 27,2050           53511                           DXCH     TAVEGON                               #  STORE IN TAVEGON
000163:
000164: 27,2051  E3,1736                                  EBANK=   TGRR


000166: 27,2051           00006                           EXTEND
000167: 27,2052           32055                           DCA      BBBBBBBB
000168: 27,2053           52006                           DTCB
000169: 27,2054  E5,1511                                  EBANK=   DVCNTR
000170: 27,2054           02011 60065  BBBBBBBB           2CADR    BIBIBIAS
000171:
000172:
000173:
000174: 27,2056           06112        MP2JOB             TC       INTPRET
000175: 27,2057           71331                           SSP      DLOAD
000176: 27,2060           00765                                    PHASENUM
000177: 27,2061           00002                                    2
000178: 27,2062           01344                                    TPRELTER
000179: 27,2063           01737                           STORE    TGRR
000180: 27,2064           01312                           STORE    TEVENT                                #  FOR DOWNLINK.
000181:


000183:                                                                                                  #  PROGRAM DESCRIPTION- MATRXJOB                                           DATE: 18 JAN 1967
000184:                                                                                                  #  MOD NO: 2                                                               LOG SECTION- MP 2 GRR + BOOST MONITOR
000185:                                                                                                  #  MOD BY: MILLER, LICKLY, KERNAN                                          ASSEMBLY: SUNBURST REVISION 79
000186:
000187:                                                                                                  #  FUNCTIONAL DESCRIPTION
000188:
000189:                                                                                                  #           THIS PROGRAM CONSTRUCTS THE MATRIX WHICH RELATES THE STABLE MEMBER INERTIAL FRAME TO THE REFERENCE
000190:                                                                                                  #  FRAME (Z NORTH, X ALONG THE VERNAL EQUINOX.)
000191:
000192:                                                                                                  #           TWO INTERMEDIATE COORDINATE SYSTEMS ARE USED: A LOCAL, EARTH FIXED, VERTICAL, SOUTH, EAST SYSTEM AND AN
000193:                                                                                                  #  EARTH REFERENCE X, Y, Z SYSTEM.  IN THIS LATTER SYSTEM, THE Z AXIS IS THE EARTH'S ROTATION AXIS, THE X AXIS IS
000194:                                                                                                  #  NORMAL TO Z IN THE PLANE OF Z AND THE LOCAL VERTICAL, POSITIVE IN THE DIRECTION OF V.  Y IS Z CROSS X.
000195:
000196:                                                                                                  #           THE FIRST COMPUTATION IS OF AZGR, THE ANGLE BETWEEN THE REFERENCE INERTIAL AND EARTH REFERENCE X-Z
000197:                                                                                                  #  PLANES (THE Z AXES ARE COINCIDENT).  AZGR IS COMPUTED BY CONVERTING THE TIME FROM THE BEGINNING OF THE EPHEMERIS
000198:                                                                                                  #  YEAR TO RELEASE (TEPHEM + TPRELTER) TO REVOLUTIONS (DAYS).  THE WHOLE REVS ARE DISCARDED AND THE INITIAL ANGLE
000199:                                                                                                  #  (AZ0) BETWEEN THE GREENWICH MERIDIAN AND THE REFERENCE X-Z PLANES IS ADDED.  ADDING THE LONGITUDE YIELDS AZGR.
000200:
000201:                                                                                                  #           THE FOLLOWING COMPUTATIONS ARE THEN PERFORMED.
000202:
000203:                                                                                                  #  LOCAL VERTICAL(ER) = COS(LATITUDE), 0, SIN(LATITUDE)  IN EARTH REFERENCE
000204:
000205:                                                                                                  #  LOCAL VERTICAL(IR) = COS(LAT)COS(AZGR), COS(LAT)SIN(AZGR), SIN(LAT)  IN INERTIAL REFERENCE
000206:
000207:                                                                                                  #  LOCAL EAST(IR) = UNIT(NXV) = -SIN(AZGR), COS(AZGR), 0  IN INERTIAL REFERENCE
000208:
000209:                                                                                                  #  LOCAL SOUTH(IR) = E(IR) X V(IR)
000210:
000211:                                                                                                  #           THE RELATIONSHIP OF THE STABLE MEMBER AXES TO THE V. S, F AXES IS GIVEN BY ZSMAZ, THE ANGLE FROM NORTH
000212:                                                                                                  #  TO ZSM, AND TILT, THE ANGLE ABOUT ZSM FROM VERTICAL TO XSM.
000213:
000214:                                                                                                  #  ZSM(IR) = EAST(IR)SIN(ZSMAZ) - SOUTH(IR)COS(ZSMAZ)
000215:
000216:                                                                                                  #  YSM(IR) = (ZSM(IR) X V(IR))COS(TILT) - V(IR)SIN(TILT)
000217:
000218:                                                                                                  #  XSM(IR) = YSM(IR) X ZSM(IR)
000219:
000220:                                                                                                  #           THESE THREE HALF-UNIT VECTORS, XSM(IR), YSM(IR), AND ZSM(IR) ARE THE SM AXES EXPRESSED IN INERTIAL
000221:                                                                                                  #  REFERENCE COORDINATES AND THEY FORM REFSMMAT, THE REFERENCE TO STABLE MEMBER MATRIX.
000222:
000223:                                                                                                  #  THE INPUT (PRELAUNCH ERASABLE LOAD) REQUIREMENTS ARE:
000224:
000225:                                                                                                  #  1) TEPHEM       THE TRIPLE PRECISION TIME IN CENTISECONDS FROM MIDNIGHT JULY 1, OF THE EPHEMERIS YEAR TO
000226:                                                                                                  #  MIDNIGHT OF THE LAUNCH DAY (SIDEREAL CONVERTED TO MEAN SOLAR.)
000227:
000228:                                                                                                  #     IT IS ASSUMED THAT DURING THE LAUNCH COUNTDOWN THE LGC CLOCK (TIME2, TIME1) WILL BE ALIGNED TO REFLECT A
000229:                                                                                                  #  ZERO VALUE AT MIDNIGHT OF THE LAUNCH DAY.  IF NOT, THE DIFFERENCE MUST BE ADDED TO TEPHEM.
000230:
000231:                                                                                                  #  2) TILT         THE ROTATION OF XSM ABOUT ZSM (RIGHT HAND RULE) FROM VERTICAL IN REVOLUTIONS.
000232:


000234:                                                                                                  #  3) ZSMAZ        THE ANGLE FROM NORTH TO ZSM IN REVOLUTIONS.
000235:
000236:                                                                                                  #  THE OUTPUTS OF THIS PROGRAM ARE:
000237:
000238:                                                                                                  #  1) REFSMMAT     THE HALF-UNIT MATRIX WHICH TRANSFORMS FROM REFERENCE INERTIAL TO SM INERTIAL.
000239:
000240:                                                                                                  #  2) AZGR         THE ANGLE BETWEEN PAD 37 B VERTICAL AND THE REFERENCE X-Z PLANE IN REVOLUTIONS.
000241:
000242:                                                                                                  #  CALLING SEQUENCE : CONTINUATION OF MP2JOB
000243:                                                                                                  #  NORMAL EXIT MODE-   TC  ENDOFJOB
000244:
000245:                                                                                                  #  ALARM OR ABORT EXITS-  NONE
000246:
000247:                                                                                                  #  DEBRIS-  SPECIALS, CENTRALS AND EXECUTIVE WORK AREA.
000248:
000249: 27,2065           54345        MATRXJOB           DLOAD    SR
000250: 27,2066           01344                                    TPRELTER                              #  MAKE ALIGN STOP TIME TP.
000251: 27,2067           20617                                    14D
000252: 27,2070           47171                           TAD      RTB
000253: 27,2071           01754                                    TEPHEM                                #  TP CS FROM JULY 1 TO LAUNCH DAY.
000254: 27,2072           33541                                    TPMODE                                #  SET STORE MODE TO TRIPLE.
000255: 27,2073           00025                           STORE    20D                                   #  TP CS FROM JULY 1 TO RELEASE.
000256: 27,2074           60335                           SLOAD    NORM
000257: 27,2075           00025                                    20D
000258: 27,2076           00047                                    X1                                    #  -9 OR -10.
000259: 27,2077           47005                           DMP      RTB
000260: 27,2100           16346                                    WEARTH                                #  REVS PER 2(28)CS.
000261: 27,2101           33520                                    SGNAGREE
000262: 27,2102           65257                           SR*      PDDL
000263: 27,2103           20556                                    0          -19D,1                     #  GETS RID OF WHOLE REVS.
000264: 27,2104           00026                                    21D
000265: 27,2105           47005                           DMP      RTB
000266: 27,2106           16346                                    WEARTH
000267: 27,2107           33520                                    SGNAGREE
000268: 27,2110           43261                           SLR      DAD
000269: 27,2111           21206                                    5                                     #  DP FRACTION OF A REV.
000270: 27,2112           43215                           DAD      DAD
000271: 27,2113           01757                                    AZ0                                   #  MERIDIAN ANGLE AT JULY 1.
000272: 27,2114           01763                                    P37BLONG                              #  PAD ANGLE TO MERIDIAN.
000273: 27,2115           01746                           STORE    AZGR                                  #  VERT. AZ. AT RELEASE WRT X-Z INERTIAL.
000274:
000275: 27,2116           77756                           SIN
000276: 27,2117           15271                           STODL    REFSMMAT   +6                         #  SIN(AZGR).
000277: 27,2120           01746                                    AZGR
000278: 27,2121           77746                           COS
000279: 27,2122           14150                           STODL    MPAC       +3                         #  Y OF EAST IN INERTIAL = COS(AZGR).
000280: 27,2123           01761                                    P37BLAT                               #  LOCAL VERTICAL Z IN EARTH REF. SIN(L).
000281: 27,2124           77756                           SIN
000282: 27,2125           15267                           STODL    REFSMMAT   +4                         #  ALSO LOCAL VERT Z IN REF. INERTIAL.
000283: 27,2126           01761                                    P37BLAT
000284:


000286: 27,2127           72546                           COS      SL1                                   #  SAVES 2 SL'S LATER.
000287: 27,2130           00025                           STORE    20D                                   #  LOCAL VER. X IN EARTH REF.  COS(L).
000288: 27,2131           77605                           DMP
000289: 27,2132           00150                                    MPAC       +3
000290: 27,2133           15263                           STODL    REFSMMAT                              #  X OF VERT IN INERTIAL = COS(L)COS(AZGR).
000291: 27,2134           01271                                    REFSMMAT   +6                         #  SIN(AZGR).
000292: 27,2135           77605                           DMP
000293: 27,2136           00025                                    20D
000294: 27,2137           15265                           STODL    REFSMMAT   +2                         #  Y OF VERT IN INERTIAL = COS(L)SIN(AZGR).
000295: 27,2140           17103                                    DPZRO
000296: 27,2141           14152                           STODL    MPAC       +5                         #  Z OF EAST IN INERTIAL = 0.
000297: 27,2142           01271                                    REFSMMAT   +6                         #  SIN(AZGR).
000298: 27,2143           47076                           DCOMP    RTB                                   #  ALSO -X OF EAST IN INERTIAL.
000299: 27,2144           33516                                    VECMODE                               #  SET STORE MODE TO VECTOR.
000300: 27,2145           47206                           PUSH     VXV                                   #  INERTIAL EAST INTO PD.
000301: 27,2146           01263                                    REFSMMAT
000302: 27,2147           77656                           UNIT                                           #  INERTIAL SOUTH = UNIT(EXV).
000303: 27,2150           15277                           STODL    REFSMMAT   +12D                       #  INTO REF +12D  (TEMP).
000304: 27,2151           01752                                    ZSMAZ                                 #  ZSM WRT NORTH.
000305: 27,2152           74346                           COS      VXSC
000306: 27,2153           01277                                    REFSMMAT   +12D                       #  SOUTH(IR)COS(ZSMAZ).
000307: 27,2154           15277                           STODL    REFSMMAT   +12D                       #  INTO REF +12D  (TEMP).
000308: 27,2155           01752                                    ZSMAZ
000309: 27,2156           74356                           SIN      VXSC                                  #  EAST(IR)SIN(ZSMAZ).
000310: 27,2157           53451                           VSU      UNIT
000311: 27,2160           01277                                    REFSMMAT   +12D                       #  UNIT(ZSM) IN INERTIAL =
000312: 27,2161           01277                           STORE    REFSMMAT   +12D                       #  EAST(IR)SIN(ZSMAZ) - SOUTH(IR)COS(ZSMAZ)
000313:
000314: 27,2162           53435                           VXV      UNIT
000315: 27,2163           01263                                    REFSMMAT                              #  YREFSM(UNTILTED)= Z CROSS VERT = Y1.
000316: 27,2164           71525                           PDDL     COS                                   #  INTO PD.
000317: 27,2165           01750                                    TILT                                  #  TILT IS POS ABOUT ZSM FROM UNTILTED YSM.
000318: 27,2166           77761                           VXSC
000319: 27,2167           73525                           PDDL     SIN                                   #  (Y1)COS(T) INTO PD.
000320: 27,2170           01750                                    TILT
000321: 27,2171           51361                           VXSC     BVSU
000322: 27,2172           01263                                    REFSMMAT
000323: 27,2173           77656                           UNIT
000324: 27,2174           01271                           STORE    REFSMMAT   +6                         #  YREFSM = (Y1)COS(T) - (VERT)SIN(T).
000325:
000326: 27,2175           53435                           VXV      UNIT
000327: 27,2176           01277                                    REFSMMAT   +12D
000328: 27,2177           01263                           STORE    REFSMMAT                              #  XREFSM = Y CROSS Z.
000329: 27,2200           77776                           EXIT
000330:
000331: 27,2201           04161                           TC       PHASCHNG
000332: 27,2202           00004                           OCT      00004                                 #  DEACTIVATE GROUP 4
000333:
000334: 27,2203           05567                           TC       ENDOFJOB
000335:


000337: 27,2204           05060        DFITMCAL           TC       1LMP                                  #  MUST BE CALLED BY IBNKCALL (OR ISWCALL)
000338: 27,2205           00354                           DEC      236        B-14                       #    IN INTERRUPT OR INHIBITED
000339: 27,2206           32344                           CA       12SEC
000340: 27,2207           05663                           TC       WAITLIST                              #  CALL DFITMCL1 IN 12 SECONDS
000341: 27,2210  E3,1736                                  EBANK=   TGRR
000342: 27,2210           02213 56063                     2CADR    DFITMCL1
000343:
000344: 27,2212           15303                           TCF      ISWRETRN
000345:
000346: 27,2213           05052        DFITMCL1           TC       2LMP
000347: 27,2214           00355                           DEC      237        B-14                       #  DFI T/M CALIBRATE OFF
000348: 27,2215           00306                           DEC      198        B-14                       #  MASTER C+W ALARM RESET - COMMAND
000349: 27,2216           05701                           TC       FIXDELAY
000350: 27,2217           00310                           DEC      200        B-14                       #  DELAY 2 SECONDS
000351:
000352: 27,2220           05060        DFITMCL2           TC       1LMP
000353: 27,2221           00307                           DEC      199        B-14                       #  MASTER C+W ALARM RESET - COMMAND RESET
000354: 27,2222           15727                           TCF      TASKOVER
000355:
000356: 27,2223           04117        LIFTOFF            TC       NEWMODEX                              #  DISPLAY MAJOR MODE 11
000357: 27,2224           00011                           OCT      11
000358:
000359: 27,2225           32444                           CA       61OCT
000360: 27,2226           04246                           TC       NEWPHASE                              #  IMMEDIATE RESTART HERE
000361: 27,2227           00002                           OCT      2
000362:
000363: 27,2230           22007        REDO2.61           ZL                                             #  THIS SECTION OF CODING ZEROES THE LGC
000364: 27,2231           47746                           CS       HALF                                  #  CLOCK AND MAKES THE CORRESPONDING
000365: 27,2232           60000                           DOUBLE                                         #  CORRECTION TO TBASE5 , SO THAT READACCS
000366: 27,2233           60025                           AD       TIME1                                 #  IS NOT CALLED TOO SOON. THE NEW TBASE5
000367: 27,2234           27123                           ADS      TBASE5                                #  IS OVERFLOW CORRECTED.
000368:
000369: 27,2235           37767                           CA       ZERO
000370: 27,2236           52025                           DXCH     TIME2
000371: 27,2237           53741                           DXCH     TLIFTOFF                              #  SAVE TIME OF LIFTOFF
000372:
000373: 27,2240           32445                           CA       63OCT
000374: 27,2241           04246                           TC       NEWPHASE                              #  DO NOT REPEAT THE ABOVE
000375: 27,2242           00002                           OCT      2
000376:
000377: 27,2243           00006        REDO2.63           EXTEND
000378: 27,2244           31744                           DCA      DT-LETJT
000379: 27,2245           05741                           TC       LONGCALL
000380: 27,2246  E3,1736                                  EBANK=   TGRR
000381: 27,2246           02270 56063                     2CADR    POSTLET
000382:
000383: 27,2250           04141                           TC       2PHSCHNG
000384: 27,2251           00073                           OCT      00073                                 #  RESTART POSTLET LONGCALL GROUP 3
000385: 27,2252           25012                           OCT      25012                                 #  AND CONTINUE LIFTOFF (SET LONGBASE HERE)
000386: 27,2253           77777                           OCT      77777
000387:


000389: 27,2254           04141                           TC       2PHSCHNG
000390: 27,2255           00002                           OCT      2
000391: 27,2256           47016                           OCT      47016                                 #  PROTECT RCSPURGE.
000392: 27,2257           24404                           DEC      10500      B-14
000393: 27,2260  E3,1736                                  EBANK=   TGRR
000394: 27,2260           02264 56063                     2CADR    RCSPURGE
000395:
000396: 27,2262           05701                           TC       FIXDELAY
000397: 27,2263           24404                           DEC      10500      B-14
000398: 27,2264           32347        RCSPURGE           CA       +XJETSON
000399: 27,2265           00006                           EXTEND
000400: 27,2266           01005                           WRITE    5                                     #  TURN ON +X TRANSLATION
000401:
000402: 27,2267           15727                           TCF      TASKOVER
000403:
000404:
000405: 27,2270           40076        POSTLET            CS       FLAGWRD2                              #  ENABLE ABORT COMMAND MONITOR
000406: 27,2271           77753                           MASK     BIT9                                  #  BIT 9  FLAGWORD 2
000407: 27,2272           26076                           ADS      FLAGWRD2
000408:
000409: 27,2273           04117                           TC       NEWMODEX
000410: 27,2274           00012                           OCT      12                                    #  MAJOR MODE 12
000411:
000412: 27,2275           37763                           CA       BIT1
000413: 27,2276           05663                           TC       WAITLIST                              #  ENABLE TUMBLE MONITOR
000414: 27,2277  E6,1422                                  EBANK=   OMEGA
000415: 27,2277           02470 60066                     2CADR    TUMTASK
000416:
000417: 27,2301           04141                           TC       2PHSCHNG
000418: 27,2302           00053                           OCT      00053                                 #  RESTART TUMTASK GR 3
000419: 27,2303           47012                           OCT      47012
000420: 27,2304           01750                           DEC      1000       B-14
000421: 27,2305  E3,1736                                  EBANK=   TGRR
000422: 27,2305           02311 56063                     2CADR    MONBOOST
000423:
000424: 27,2307           05701                           TC       FIXDELAY
000425: 27,2310           01750                           DEC      1000       B-14                       #  WAIT 10 SECONDS FOR STAGING + SIVB IGN.
000426:
000427: 27,2311           32343        MONBOOST           CA       BOOSTADR                              #  MONITOR DELV FOR BOOSTER SHUTDOWN
000428: 27,2312           55310                           TS       DVSELECT
000429:
000430: 27,2313           04161                           TC       PHASCHNG
000431: 27,2314           47012                           OCT      47012
000432: 27,2315           04064                           DEC      2100       B-14
000433: 27,2316  E3,1736                                  EBANK=   TGRR
000434: 27,2316           02322 56063                     2CADR    PURGEOFF
000435:
000436: 27,2320           05701                           TC       FIXDELAY
000437: 27,2321           04064                           DEC      2100       B-14                       #  WAIT 21 SECONDS
000438:


000440: 27,2322           37767        PURGEOFF           CA       ZERO
000441: 27,2323           04246                           TC       NEWPHASE
000442: 27,2324           00006                           OCT      6
000443:
000444: 27,2325           37767                           CA       ZERO
000445: 27,2326           00006                           EXTEND
000446: 27,2327           01006                           WRITE    6
000447: 27,2330           00006                           EXTEND
000448: 27,2331           01005                           WRITE    5                                     #  TURN OFF RCS JETS
000449:
000450: 27,2332           05101                           TC       1LMP+DT
000451: 27,2333           00272                           DEC      186        B-14                       #  ECS PRIMARY WATER VALVE OPEN
000452:
000453: 27,2334           00310                           DEC      200        B-14                       #  WAIT 2 SECONDS
000454:
000455: 27,2335           05060        WATEROFF           TC       1LMP
000456: 27,2336           00273                           DEC      187        B-14                       #  ECS PRIMARY WATER VALVE - OPEN RESET
000457:
000458: 27,2337           04161                           TC       PHASCHNG
000459: 27,2340           00002                           OCT      00002                                 #  DEACTIVATE GROUP 2
000460:
000461: 27,2341           15727                           TCF      TASKOVER                              #  END OF MISSION PHASE 2
000462:
000463:
000464:
000465:                                                                                                  #  DELTA T S AND OTHER CONSTANTS FOR MP2
000466: 27,2342           02251        AVEGADRS           GENADR   AVERAGEG
000467: 27,2343           02273        BOOSTADR           GENADR   BOOSTMON
000468: 27,2344  27,2442               SVEXADRS           EQUALS   SVEXITAD
000469: 27,2344           02260        12SEC              DEC      1200       B-14
000470: 27,2345           37116 32623  WEARTH             2DEC     31.1539787 B-5                        #  REVOLUTIONS PER 2(28) CENTISECONDS.
000471:
000472: 27,2347           00252        +XJETSON           OCT      00252                                 #  BITS FOR +X TRANLSATION JETS
000473:
000474:
000475:
000476:                                                                                                  #  ABORT COMMAND MONITOR - DETECTS
000477:                                                                                                  #  SUBORBITAL ABORT AND CONTINGENCY
000478:                                                                                                  #  ORBIT INSERTION
000479:
000480: 27,2350           00004        SUBABORT           INHINT                                         #  SUBORBITAL ABORT - ZERO ABORTNDX TO
000481: 27,2351           37767                           CAF      ZERO                                  #  SET UP MISSION PHASE 3
000482: 27,2352           12355                           TCF      CONORBIT   +2
000483:
000484: 27,2353           00004        CONORBIT           INHINT                                         #  CONTINGENCY ORBIT INSERTION - ABORTNDX
000485: 27,2354           37762                           CAF      TWO                                   #  SET TO 2 TO SET UP MISSION PHASE 4
000486: 27,2355           54001                           TS       L                                     #  SAVE IN L
000487: 27,2356           40076                           CS       FLAGWRD2                              #  CHECK ABORT RECEIVED FLAG TO INSURE THAT
000488:
000489: 27,2357           77752                           MASK     BIT10                                 #  MULTIBLE TRANSMISSIONS DON'T START


000491: 27,2360           00006                           EXTEND                                         #  MULTIBLE JOBS.  SINCE MULTIBLE XMISSIONS
000492: 27,2361           15567                           BZF      ENDOFJOB                              #  ARE THE RULE, LEAVE WITH NO ALARM.
000493: 27,2362           40076                           CS       FLAGWRD2                              #  IS ABORT COMMAND MONITOR ENABLED
000494:
000495: 27,2363           77753                           MASK     BIT9
000496: 27,2364           00006                           EXTEND
000497: 27,2365           12371                           BZF      SETABORT                              #  YES.
000498:
000499: 27,2366           04755                           TC       ALARM                                 #  ABORT NOT ENABLED, SET ALARM AND EXIT.
000500: 27,2367           00300                           OCT      00300
000501: 27,2370           05567                           TC       ENDOFJOB
000502:
000503: 27,2371           00004        SETABORT           INHINT
000504: 27,2372           35352                           CA       EBANK3
000505: 27,2373           54003                           TS       EBANK
000506: 27,2374           23742                           LXCH     ABORTNDX                              #  STORE ABORTNDX
000507: 27,2375           32342                           CAF      AVEGADRS
000508: 27,2376           55310                           TS       DVSELECT                              #  TURN OFF BOOSTMON
000509: 27,2377           04141                           TC       2PHSCHNG
000510: 27,2400           00004                           OCT      00004
000511: 27,2401           00006                           OCT      00006
000512: 27,2402           04141                           TC       2PHSCHNG
000513: 27,2403           00003                           OCT      00003
000514: 27,2404           07022                           OCT      07022
000515: 27,2405           21000                           OCT      21000
000516: 27,2406  E3,1742                                  EBANK=   ABORTNDX
000517: 27,2406           02414 56063                     2CADR    TUMBL3/4
000518:
000519: 27,2410           06060                           TC       FLAG2UP
000520: 27,2411           01000                           OCT      01000                                 #  ABORT RECEIVED FLAG
000521: 27,2412           05225                           TC       POSTJUMP
000522: 27,2413           02354                           CADR     ENEMA                                 #  WIPE EVERYTHING OUT
000523:
000524:
000525:
000526: 27,2414           00004        TUMBL3/4           INHINT
000527: 27,2415           37763                           CA       BIT1
000528: 27,2416           05663                           TC       WAITLIST                              #  RE-ESTABLISH TUMBLE MONITOR
000529: 27,2417  E6,1422                                  EBANK=   OMEGA
000530: 27,2417           02470 60066                     2CADR    TUMTASK
000531:
000532: 27,2421           04141                           TC       2PHSCHNG
000533: 27,2422           00053                           OCT      00053                                 #  3.5 SPOT FOR TUMTASK
000534: 27,2423           04022                           OCT      04022                                 #  GR 2 FOR ABORT3/4
000535:
000536: 27,2424           00004        ABORT3/4           INHINT
000537: 27,2425           35651                           CAF      PRIO27
000538: 27,2426           54063                           TS       NEWPRIO                               #  SET UP MP3 OR MP4 VIA SPVAC
000539:
000540: 27,2427           00006                           EXTEND


000542: 27,2430           51742                           INDEX    ABORTNDX                              #  GET RIGHT 2CADR
000543: 27,2431           32435                           DCA      MP3-4ADR
000544: 27,2432           05526                           TC       SPVAC                                 #  SET UP ABORT JOB.
000545:
000546: 27,2433           15567                           TCF      ENDOFJOB
000547:
000548:
000549:
000550: 27,2434  E4,1566                                  EBANK=   TDEC
000551: 27,2434           02000 52064  MP3-4ADR           2CADR    MP03JOB                               #  DO NOT CHANGE THE ORDER OF THESE 2 CARDS
000552:
000553: 27,2436  E4,1566                                  EBANK=   TDEC
000554: 27,2436           02000 66064                     2CADR    MP4JOB                                #  THEY ARE IN AN INDEXED TABLE
000555:
000556: 27,2440  E4,1566                                  EBANK=   TDEC                                  #  LEFT-OVERS FROM DELETED MISSION PHASE 18
000557: 27,2440           02341 16064  MIDAVEAD           2CADR    MIDTOAVE
000558:
000559: 27,2442  E4,1566                                  EBANK=   TDEC
000560: 27,2442           02324 60064  SVEXITAD           2CADR    SERVEXIT
000561:
000562:
000563:
000564: 27,2444           00061        61OCT              OCT      61
000565: 27,2445           00063        63OCT              OCT      63
000566:


000568:                                                                                                  #  SET UP & EXECUTE JOB TO ADD VELOCITY CORRECTION TO VN:
000569:
000570: 27,2446  E5,1745                                  EBANK=   GTSWTLST
000571:
000572: 27,2446           35643        LIFTFIXT           CA       PRIO17                                #  LESS THAN PRELAUNCH OR NORMLIZE
000573: 27,2447           05516                           TC       FINDVAC
000574: 27,2450  E5,1743                                  EBANK=   OLDGT
000575: 27,2450           02453 56065                     2CADR    LIFTFIX
000576:
000577: 27,2452           05727                           TC       TASKOVER
000578:
000579:
000580:
000581: 27,2453           41307        LIFTFIX            CS       PIPTIME    +1                         #  PRELAUNCH BY NOW HAS FOUND THE GRR FLAG
000582: 27,2454           61743                           AD       OLDGT                                 #  & SUBSEQUENTLY BEEN THRU PREREAD, VIA
000583: 27,2455           00006                           EXTEND                                         #  MP2TASK.
000584: 27,2456           62461                           BZMF     +3
000585: 27,2457           67744                           AD       NEG1/2                                #  (IF TIME1 OVERFLOWED)
000586: 27,2460           67744                           AD       NEG1/2
000587: 27,2461           54147                           TS       MPAC       +3
000588:
000589: 27,2462           06112                           TC       INTPRET
000590:
000591: 27,2463           56335                           SLOAD    DDV
000592: 27,2464           00150                                    MPAC       +3
000593: 27,2465           16503                                    -1SEC214                              #  MAKE THE TIME-RATIO POSITIVE.
000594: 27,2466           63361                           VXSC     PDVL
000595: 27,2467           01025                                    GDT/2
000596: 27,2470           00404                                    DELV
000597: 27,2471           76455                           VAD      VSL1
000598: 27,2472           01765                                    DELVBUF
000599: 27,2473           53361                           VXSC     VAD
000600: 27,2474           21165                                    KPIP1
000601: 27,2475           77655                           VAD
000602: 27,2476           01017                                    VN
000603: 27,2477           01017                           STORE    VN
000604:
000605: 27,2500           77776                           EXIT
000606: 27,2501           05567                           TC       ENDOFJOB
000607:
000608:
000609:
000610: 27,2502           77633 77777  -1SEC214           2DEC     -100       B-14

End of include-file MISSION_PHASE_2_GUIDANCE_REFERENCE_RELEASE_PLUS_BOOST_MONITOR.agc.  Parent file is MAIN.agc


