
Source Code


000002:                                                                                                  ## Copyright:   Public domain.
000003:                                                                                                  ## Filename:    MISSION_PHASE_2_GUIDANCE_REFERENCE_RELEASE_PLUS_BOOST_MONITOR.agc
000004:                                                                                                  ## Purpose:     A module for revision 0 of BURST120 (Sunburst). It
000005:                                                                                                  ##              is part of the source code for the Lunar Module's
000006:                                                                                                  ##              (LM) Apollo Guidance Computer (AGC) for Apollo 5.
000007:                                                                                                  ## Assembler:   yaYUL
000008:                                                                                                  ## Contact:     Ron Burkey <info@sandroid.org>.
000009:                                                                                                  ## Website:     www.ibiblio.org/apollo/index.html
000010:                                                                                                  ## Mod history: 2016-09-30 RSB  Created draft version.
000011:                                                                                                  ##              2016-10-23 MAS  Transcribed.
000012:                                                                                                  ##              2016-10-32 RSB  Typos.
000013:                                                                                                  ##              2016-12-06 RSB  Comments proofed using octopus/ProoferComments,
000014:                                                                                                  ##                              changes made.
000015:


000017:                                                                                                  #  PROGRAM NAME - MISSION PHASE 2 GUIDANCE REFERENCE RELEASE + BOOST MONITOR.
000018:
000019:                                                                                                  #  MODIFICATION NUMBER - 1         DATE - NOVEMBER 22, 1966                MODIFICATION BY - COVELLI
000020:
000021:
000022:
000023:                                                                                                  #  FUNCTIONAL DESCRIPTION -
000024:
000025:                                                                                                  #     THE FUNCTION OF MISSION PHASE 2 IS TO CONTROL THE SEQUENCE OF EVENTS IN THE 206 FLIGHT FROM GUIDANCE
000026:                                                                                                  #  REFERENCE RELEASE THROUGH LIFTOFF TO THE SIVB BOOSTER SHUTDOWN.
000027:
000028:                                                                                                  #     AT GUIDANCE REFERENCE RELEASE, THE GRR FLAG IS SET,  PREREAD IS CALLED TO BEGIN COMPUTATION OF POSITION AND
000029:                                                                                                  #  VELOCITY, AND CALLS ARE MADE FOR DFI T/M CALIBRATION AND LIFTOFF
000030:
000031:                                                                                                  #     WHEN PRELAUNCH DETECTS THAT THE GRR FLAG IS SET, IT TERMINATES GYROCOMPASSING AND CALLS MP2JOB. MP2JOB
000032:                                                                                                  #  DISPLAYS 7 IN THE MAJOR MODE AND GOES TO MATRXJOB TO COMPUTE REFSMMAT.
000033:
000034:                                                                                                  #     AT LIFTOFF, THE LGC CLOCK IS ZEROED, CALLS ARE MADE FOR THE COLD FIRE PURGE AND POST LET JETTISON PROGRAMS.
000035:                                                                                                  #  THE MAJOR MODE IS CHANGED TO 11.
000036:
000037:                                                                                                  #     AT POST LET JETTISON, THE DV MONITOR IS ENABLED TO DETECT BOOSTER SHUTDOWN, THE ABORT COMMAND MONITOR AND THE
000038:                                                                                                  #  TUMBLE MONITOR ARE ENABLED, AND THE MAJOR MODE IS CHANGED TO 12.
000039:
000040:                                                                                                  #     THE VARIOUS LMP COMMANDS REQUIRED FOR MP2 ARE SCHEDULED BY WAITLIST CALLS.
000041:
000042:                                                                                                  #     AT DETECTION OF SIVB SHUTDOWN, AN EXECUTIVE CALL IS MADE TO MISSION PHASE 6.
000043:
000044:
000045:
000046:                                                                                                  #  CALLING SEQUENCE :
000047:
000048:                                                                                                  #     MISSION PHASE 2 IS BEGUN UPON RECEIPT OF THE GUIDANCE REFERENCE RELEASE SIGNAL (VERB 65 ENTER) VIA UPLINK.
000049:
000050:
000051:
000052:                                                                                                  #  SUBROUTINES CALLED :
000053:
000054:                                                                                                  #           PREREAD                1LMP
000055:                                                                                                  #           TUMTASK                2LMP
000056:                                                                                                  #           NEWMODEX               PHASCHNG
000057:                                                                                                  #           FINDVAC                NEWPHASE
000058:                                                                                                  #           NOVAC                  DFITMCAL
000059:                                                                                                  #           SPVAC                  IBNKCALL
000060:                                                                                                  #           WAITLIST
000061:                                                                                                  #           LONGCALL
000062:
000063:
000064:
000065:                                                                                                  #  NORMAL EXIT MODES :


000067:                                                                                                  #     EXIT TO MISSION PHASE 6 AT SIVB SHUTDOWN.
000068:
000069:
000070:
000071:                                                                                                  #  ABORT EXIT MODES :
000072:
000073:                                                                                                  #     TO MISSION PHASE 3 IF SUBORBITAL ABORT COMMAND RECEIVED VIA UPLINK.
000074:                                                                                                  #     TO MISSION PHASE 4 IF CONTINGENCY ORBIT INSERTION COMMAND RECEIVED VIA UPLINK.
000075:                                                                                                  #     TO CHARALRM IF EITHER OF THE ABOVE ABORT COMMANDS RECEIVED WHILE ABORT COMMAND MONITOR NOT ENABLED.
000076:
000077:
000078:
000079:                                                                                                  #  OUTPUT :
000080:
000081:                                                                                                  #           TGRR          TIME OF GUIDANCE REFERENCE RELEASE
000082:                                                                                                  #           TPRELTER      TIME OF GYROCOMPASSING TERMINATION
000083:                                                                                                  #           TLIFTOFF      TIME OF LIFTOFF AND LGC CLOCK ZEROING
000084:                                                                                                  #           GRR FLAG      BIT2 FLAGWRD1 SET TO INDICATE GRR SIGNAL RECEIVED
000085:                                                                                                  #           SERVICER IS GOING AT END OF MISSION PHASE 2
000086:                                                                                                  #           MAJOR MODE DISPLAYS
000087:
000088:
000089:
000090:                                                                                                  #  ERASABLE INITIALIZATION :
000091:
000092:                                                                                                  #           DT-LIFT       DELTA TIME FROM GRR TO LIFTOFF, SINGLE PRECISION SCALED AT 2(+14) CS.
000093:                                                                                                  #           DT-LETJT      DELTA TIME FROM LIFTOFF TO POST LET JETTISON, DOUBLE PRECISION SCALED AT 2(+28) CS.
000094:                                                                                                  #           RAVEGON       POSITION AT GRR IN SM CO-ORDINATES, VECTOR SCALED AT 2(+24) M.
000095:                                                                                                  #           VAVEGON       VELOCITY AT GRR IN SM CO-ORDINATES, VECTOR SCALED AT 2(+7) M/CS.
000096:
000097:                                                                                                  #  ********  ALL OF THE ERASABLE INITIALIZATION MUST BE DONE DURING THE PRE-LAUNCH ERASABLE LOAD  *****************
000098:
000099:
000100:
000101:                                                                                                  #  DEBRIS :
000102:
000103:                                                                                                  #     CENTRALS AND EXECUTIVE WORK AREA.
000104:
000105:
000106:
000107: 27,2000                                           BANK     27
000108: 27,2000  E3,1736                                  EBANK=   TGRR
000109:
000110:
000111:
000112: 27,2000           06051        GRRPLACE           TC       FLAG1UP
000113: 27,2001           00002                           OCT      2
000114: 27,2002           05567                           TC       ENDOFJOB
000115: 27,2003           35641        MP2TASK            CA       PRIO15
000116: 27,2004           05516                           TC       FINDVAC


000118: 27,2005  E3,1736                                  EBANK=   TGRR
000119: 27,2005           02056 56063                     2CADR    MP2JOB
000120:
000121: 27,2007           31742                           CA       DT-LIFT
000122: 27,2010           05663                           TC       WAITLIST                              #  SET UP CALL TO LIFTOFF PROGRAM
000123: 27,2011  E3,1736                                  EBANK=   TGRR
000124: 27,2011           02223 56063                     2CADR    LIFTOFF
000125:
000126: 27,2013           04141                           TC       2PHSCHNG
000127: 27,2014           00375                           OCT      00375                                 #  5.37 SPOT FOR MP2TASK.
000128: 27,2015           00273                           OCT      00273                                 #  3.27 SPOT TO FINISH PRELAUNCH.
000129:
000130: 27,2016           04141                           TC       2PHSCHNG
000131: 27,2017           40132                           OCT      40132                                 #  2.13 SPOT FOR LIFTOFF.
000132: 27,2020           00074                           OCT      00074                                 #  4.7 SPOT FOR MP2JOB.
000133:
000134: 27,2021           37762                           CAF      BIT2
000135: 27,2022           04105                           TC       SETRSTRT                              #  SET RESTART FLAG
000136:
000137: 27,2023           35652        SETPIPDT           CAF      PRIO31                                #  TWO SECONDS SCALED AT (CS) X 2(+8)
000138: 27,2024           54765                           TS       1/PIPADT
000139:
000140: 27,2025           32342                           CA       AVEGADRS
000141: 27,2026           55310                           TS       DVSELECT
000142:
000143: 27,2027           00006                           EXTEND
000144: 27,2030           32443                           DCA      SVEXADRS
000145: 27,2031           53073                           DXCH     AVGEXIT
000146:
000147: 27,2032           00006                           EXTEND
000148: 27,2033           32443                           DCA      SVEXADRS
000149: 27,2034           53075                           DXCH     DVMNEXIT
000150:
000151: 27,2035           35661                           CA       EBANK5
000152: 27,2036           54003                           TS       EBANK
000153: 27,2037           37751                           CA       EBANK4
000154: 27,2040           54002                           TS       Q
000155: 27,2041  E5,1561                                  EBANK=   TEMPTIME
000156: 27,2041           00006                           EXTEND                                         #  GET TEMPTIME
000157: 27,2042           31562                           DCA      TEMPTIME
000158: 27,2043           53344                           DXCH     TPRELTER
000159: 27,2044           00006                           EXTEND
000160: 27,2045           31344                           DCA      TPRELTER
000161: 27,2046           00006                           EXTEND
000162: 27,2047           22003                           QXCH     EBANK
000163: 27,2050  E4,1510                                  EBANK=   TAVEGON
000164: 27,2050           53511                           DXCH     TAVEGON                               #  STORE IN TAVEGON
000165:
000166: 27,2051  E3,1736                                  EBANK=   TGRR


000168: 27,2051           00006                           EXTEND
000169: 27,2052           32055                           DCA      BBBBBBBB
000170: 27,2053           52006                           DTCB
000171: 27,2054  E5,1511                                  EBANK=   DVCNTR
000172: 27,2054           02011 60065  BBBBBBBB           2CADR    BIBIBIAS
000173:
000174:
000175:
000176: 27,2056           06112        MP2JOB             TC       INTPRET
000177: 27,2057           71331                           SSP      DLOAD
000178: 27,2060           00765                                    PHASENUM
000179: 27,2061           00002                                    2
000180: 27,2062           01344                                    TPRELTER
000181: 27,2063           01737                           STORE    TGRR
000182: 27,2064           01312                           STORE    TEVENT                                #  FOR DOWNLINK.
000183:


000185:                                                                                                  #  PROGRAM DESCRIPTION- MATRXJOB                                           DATE: 18 JAN 1967
000186:                                                                                                  #  MOD NO: 2                                                               LOG SECTION- MP 2 GRR + BOOST MONITOR
000187:                                                                                                  #  MOD BY: MILLER, LICKLY, KERNAN                                          ASSEMBLY: SUNBURST REVISION 79
000188:
000189:                                                                                                  #  FUNCTIONAL DESCRIPTION
000190:
000191:                                                                                                  #           THIS PROGRAM CONSTRUCTS THE MATRIX WHICH RELATES THE STABLE MEMBER INERTIAL FRAME TO THE REFERENCE
000192:                                                                                                  #  FRAME (Z NORTH, X ALONG THE VERNAL EQUINOX.)
000193:
000194:                                                                                                  #           TWO INTERMEDIATE COORDINATE SYSTEMS ARE USED: A LOCAL, EARTH FIXED, VERTICAL, SOUTH, EAST SYSTEM AND AN
000195:                                                                                                  #  EARTH REFERENCE X, Y, Z SYSTEM.  IN THIS LATTER SYSTEM, THE Z AXIS IS THE EARTH'S ROTATION AXIS, THE X AXIS IS
000196:                                                                                                  #  NORMAL TO Z IN THE PLANE OF Z AND THE LOCAL VERTICAL, POSITIVE IN THE DIRECTION OF V.  Y IS Z CROSS X.
000197:
000198:                                                                                                  #           THE FIRST COMPUTATION IS OF AZGR, THE ANGLE BETWEEN THE REFERENCE INERTIAL AND EARTH REFERENCE X-Z
000199:                                                                                                  #  PLANES (THE Z AXES ARE COINCIDENT).  AZGR IS COMPUTED BY CONVERTING THE TIME FROM THE BEGINNING OF THE EPHEMERIS
000200:                                                                                                  #  YEAR TO RELEASE (TEPHEM + TPRELTER) TO REVOLUTIONS (DAYS).  THE WHOLE REVS ARE DISCARDED AND THE INITIAL ANGLE
000201:                                                                                                  #  (AZ0) BETWEEN THE GREENWICH MERIDIAN AND THE REFERENCE X-Z PLANES IS ADDED.  ADDING THE LONGITUDE YIELDS AZGR.
000202:
000203:                                                                                                  #           THE FOLLOWING COMPUTATIONS ARE THEN PERFORMED.
000204:
000205:                                                                                                  #  LOCAL VERTICAL(ER) = COS(LATITUDE), 0, SIN(LATITUDE)  IN EARTH REFERENCE
000206:
000207:                                                                                                  #  LOCAL VERTICAL(IR) = COS(LAT)COS(AZGR), COS(LAT)SIN(AZGR), SIN(LAT)  IN INERTIAL REFERENCE
000208:
000209:                                                                                                  #  LOCAL EAST(IR) = UNIT(NXV) = -SIN(AZGR), COS(AZGR), 0  IN INERTIAL REFERENCE
000210:
000211:                                                                                                  #  LOCAL SOUTH(IR) = E(IR) X V(IR)
000212:
000213:                                                                                                  #           THE RELATIONSHIP OF THE STABLE MEMBER AXES TO THE V. S, F AXES IS GIVEN BY ZSMAZ, THE ANGLE FROM NORTH
000214:                                                                                                  #  TO ZSM, AND TILT, THE ANGLE ABOUT ZSM FROM VERTICAL TO XSM.
000215:
000216:                                                                                                  #  ZSM(IR) = EAST(IR)SIN(ZSMAZ) - SOUTH(IR)COS(ZSMAZ)
000217:
000218:                                                                                                  #  YSM(IR) = (ZSM(IR) X V(IR))COS(TILT) - V(IR)SIN(TILT)
000219:
000220:                                                                                                  #  XSM(IR) = YSM(IR) X ZSM(IR)
000221:
000222:                                                                                                  #           THESE THREE HALF-UNIT VECTORS, XSM(IR), YSM(IR), AND ZSM(IR) ARE THE SM AXES EXPRESSED IN INERTIAL
000223:                                                                                                  #  REFERENCE COORDINATES AND THEY FORM REFSMMAT, THE REFERENCE TO STABLE MEMBER MATRIX.
000224:
000225:                                                                                                  #  THE INPUT (PRELAUNCH ERASABLE LOAD) REQUIREMENTS ARE:
000226:
000227:                                                                                                  #  1) TEPHEM       THE TRIPLE PRECISION TIME IN CENTISECONDS FROM MIDNIGHT JULY 1, OF THE EPHEMERIS YEAR TO
000228:                                                                                                  #  MIDNIGHT OF THE LAUNCH DAY (SIDEREAL CONVERTED TO MEAN SOLAR.)
000229:
000230:                                                                                                  #     IT IS ASSUMED THAT DURING THE LAUNCH COUNTDOWN THE LGC CLOCK (TIME2, TIME1) WILL BE ALIGNED TO REFLECT A
000231:                                                                                                  #  ZERO VALUE AT MIDNIGHT OF THE LAUNCH DAY.  IF NOT, THE DIFFERENCE MUST BE ADDED TO TEPHEM.
000232:
000233:                                                                                                  #  2) TILT         THE ROTATION OF XSM ABOUT ZSM (RIGHT HAND RULE) FROM VERTICAL IN REVOLUTIONS.
000234:


000236:                                                                                                  #  3) ZSMAZ        THE ANGLE FROM NORTH TO ZSM IN REVOLUTIONS.
000237:
000238:                                                                                                  #  THE OUTPUTS OF THIS PROGRAM ARE:
000239:
000240:                                                                                                  #  1) REFSMMAT     THE HALF-UNIT MATRIX WHICH TRANSFORMS FROM REFERENCE INERTIAL TO SM INERTIAL.
000241:
000242:                                                                                                  #  2) AZGR         THE ANGLE BETWEEN PAD 37 B VERTICAL AND THE REFERENCE X-Z PLANE IN REVOLUTIONS.
000243:
000244:                                                                                                  #  CALLING SEQUENCE : CONTINUATION OF MP2JOB
000245:                                                                                                  #  NORMAL EXIT MODE-   TC  ENDOFJOB
000246:
000247:                                                                                                  #  ALARM OR ABORT EXITS-  NONE
000248:
000249:                                                                                                  #  DEBRIS-  SPECIALS, CENTRALS AND EXECUTIVE WORK AREA.
000250:
000251: 27,2065           54345        MATRXJOB           DLOAD    SR
000252: 27,2066           01344                                    TPRELTER                              #  MAKE ALIGN STOP TIME TP.
000253: 27,2067           20617                                    14D
000254: 27,2070           47171                           TAD      RTB
000255: 27,2071           01754                                    TEPHEM                                #  TP CS FROM JULY 1 TO LAUNCH DAY.
000256: 27,2072           33541                                    TPMODE                                #  SET STORE MODE TO TRIPLE.
000257: 27,2073           00025                           STORE    20D                                   #  TP CS FROM JULY 1 TO RELEASE.
000258: 27,2074           60335                           SLOAD    NORM
000259: 27,2075           00025                                    20D
000260: 27,2076           00047                                    X1                                    #  -9 OR -10.
000261: 27,2077           47005                           DMP      RTB
000262: 27,2100           16346                                    WEARTH                                #  REVS PER 2(28)CS.
000263: 27,2101           33520                                    SGNAGREE
000264: 27,2102           65257                           SR*      PDDL
000265: 27,2103           20556                                    0          -19D,1                     #  GETS RID OF WHOLE REVS.
000266: 27,2104           00026                                    21D
000267: 27,2105           47005                           DMP      RTB
000268: 27,2106           16346                                    WEARTH
000269: 27,2107           33520                                    SGNAGREE
000270: 27,2110           43261                           SLR      DAD
000271: 27,2111           21206                                    5                                     #  DP FRACTION OF A REV.
000272: 27,2112           43215                           DAD      DAD
000273: 27,2113           01757                                    AZ0                                   #  MERIDIAN ANGLE AT JULY 1.
000274: 27,2114           01763                                    P37BLONG                              #  PAD ANGLE TO MERIDIAN.
000275: 27,2115           01746                           STORE    AZGR                                  #  VERT. AZ. AT RELEASE WRT X-Z INERTIAL.
000276:
000277: 27,2116           77756                           SIN
000278: 27,2117           15271                           STODL    REFSMMAT   +6                         #  SIN(AZGR).
000279: 27,2120           01746                                    AZGR
000280: 27,2121           77746                           COS
000281: 27,2122           14150                           STODL    MPAC       +3                         #  Y OF EAST IN INERTIAL = COS(AZGR).
000282: 27,2123           01761                                    P37BLAT                               #  LOCAL VERTICAL Z IN EARTH REF. SIN(L).
000283: 27,2124           77756                           SIN
000284: 27,2125           15267                           STODL    REFSMMAT   +4                         #  ALSO LOCAL VERT Z IN REF. INERTIAL.
000285: 27,2126           01761                                    P37BLAT
000286:


000288: 27,2127           72546                           COS      SL1                                   #  SAVES 2 SL'S LATER.
000289: 27,2130           00025                           STORE    20D                                   #  LOCAL VER. X IN EARTH REF.  COS(L).
000290: 27,2131           77605                           DMP
000291: 27,2132           00150                                    MPAC       +3
000292: 27,2133           15263                           STODL    REFSMMAT                              #  X OF VERT IN INERTIAL = COS(L)COS(AZGR).
000293: 27,2134           01271                                    REFSMMAT   +6                         #  SIN(AZGR).
000294: 27,2135           77605                           DMP
000295: 27,2136           00025                                    20D
000296: 27,2137           15265                           STODL    REFSMMAT   +2                         #  Y OF VERT IN INERTIAL = COS(L)SIN(AZGR).
000297: 27,2140           17103                                    DPZRO
000298: 27,2141           14152                           STODL    MPAC       +5                         #  Z OF EAST IN INERTIAL = 0.
000299: 27,2142           01271                                    REFSMMAT   +6                         #  SIN(AZGR).
000300: 27,2143           47076                           DCOMP    RTB                                   #  ALSO -X OF EAST IN INERTIAL.
000301: 27,2144           33516                                    VECMODE                               #  SET STORE MODE TO VECTOR.
000302: 27,2145           47206                           PUSH     VXV                                   #  INERTIAL EAST INTO PD.
000303: 27,2146           01263                                    REFSMMAT
000304: 27,2147           77656                           UNIT                                           #  INERTIAL SOUTH = UNIT(EXV).
000305: 27,2150           15277                           STODL    REFSMMAT   +12D                       #  INTO REF +12D  (TEMP).
000306: 27,2151           01752                                    ZSMAZ                                 #  ZSM WRT NORTH.
000307: 27,2152           74346                           COS      VXSC
000308: 27,2153           01277                                    REFSMMAT   +12D                       #  SOUTH(IR)COS(ZSMAZ).
000309: 27,2154           15277                           STODL    REFSMMAT   +12D                       #  INTO REF +12D  (TEMP).
000310: 27,2155           01752                                    ZSMAZ
000311: 27,2156           74356                           SIN      VXSC                                  #  EAST(IR)SIN(ZSMAZ).
000312: 27,2157           53451                           VSU      UNIT
000313: 27,2160           01277                                    REFSMMAT   +12D                       #  UNIT(ZSM) IN INERTIAL =
000314: 27,2161           01277                           STORE    REFSMMAT   +12D                       #  EAST(IR)SIN(ZSMAZ) - SOUTH(IR)COS(ZSMAZ)
000315:
000316: 27,2162           53435                           VXV      UNIT
000317: 27,2163           01263                                    REFSMMAT                              #  YREFSM(UNTILTED)= Z CROSS VERT = Y1.
000318: 27,2164           71525                           PDDL     COS                                   #  INTO PD.
000319: 27,2165           01750                                    TILT                                  #  TILT IS POS ABOUT ZSM FROM UNTILTED YSM.
000320: 27,2166           77761                           VXSC
000321: 27,2167           73525                           PDDL     SIN                                   #  (Y1)COS(T) INTO PD.
000322: 27,2170           01750                                    TILT
000323: 27,2171           51361                           VXSC     BVSU
000324: 27,2172           01263                                    REFSMMAT
000325: 27,2173           77656                           UNIT
000326: 27,2174           01271                           STORE    REFSMMAT   +6                         #  YREFSM = (Y1)COS(T) - (VERT)SIN(T).
000327:
000328: 27,2175           53435                           VXV      UNIT
000329: 27,2176           01277                                    REFSMMAT   +12D
000330: 27,2177           01263                           STORE    REFSMMAT                              #  XREFSM = Y CROSS Z.
000331: 27,2200           77776                           EXIT
000332:
000333: 27,2201           04161                           TC       PHASCHNG
000334: 27,2202           00004                           OCT      00004                                 #  DEACTIVATE GROUP 4
000335:
000336: 27,2203           05567                           TC       ENDOFJOB
000337:


000339: 27,2204           05060        DFITMCAL           TC       1LMP                                  #  MUST BE CALLED BY IBNKCALL (OR ISWCALL)
000340: 27,2205           00354                           DEC      236        B-14                       #    IN INTERRUPT OR INHIBITED
000341: 27,2206           32344                           CA       12SEC
000342: 27,2207           05663                           TC       WAITLIST                              #  CALL DFITMCL1 IN 12 SECONDS
000343: 27,2210  E3,1736                                  EBANK=   TGRR
000344: 27,2210           02213 56063                     2CADR    DFITMCL1
000345:
000346: 27,2212           15303                           TCF      ISWRETRN
000347:
000348: 27,2213           05052        DFITMCL1           TC       2LMP
000349: 27,2214           00355                           DEC      237        B-14                       #  DFI T/M CALIBRATE OFF
000350: 27,2215           00306                           DEC      198        B-14                       #  MASTER C+W ALARM RESET - COMMAND
000351: 27,2216           05701                           TC       FIXDELAY
000352: 27,2217           00310                           DEC      200        B-14                       #  DELAY 2 SECONDS
000353:
000354: 27,2220           05060        DFITMCL2           TC       1LMP
000355: 27,2221           00307                           DEC      199        B-14                       #  MASTER C+W ALARM RESET - COMMAND RESET
000356: 27,2222           15727                           TCF      TASKOVER
000357:
000358: 27,2223           04117        LIFTOFF            TC       NEWMODEX                              #  DISPLAY MAJOR MODE 11
000359: 27,2224           00011                           OCT      11
000360:
000361: 27,2225           32444                           CA       61OCT
000362: 27,2226           04246                           TC       NEWPHASE                              #  IMMEDIATE RESTART HERE
000363: 27,2227           00002                           OCT      2
000364:
000365: 27,2230           22007        REDO2.61           ZL                                             #  THIS SECTION OF CODING ZEROES THE LGC
000366: 27,2231           47746                           CS       HALF                                  #  CLOCK AND MAKES THE CORRESPONDING
000367: 27,2232           60000                           DOUBLE                                         #  CORRECTION TO TBASE5 , SO THAT READACCS
000368: 27,2233           60025                           AD       TIME1                                 #  IS NOT CALLED TOO SOON. THE NEW TBASE5
000369: 27,2234           27123                           ADS      TBASE5                                #  IS OVERFLOW CORRECTED.
000370:
000371: 27,2235           37767                           CA       ZERO
000372: 27,2236           52025                           DXCH     TIME2
000373: 27,2237           53741                           DXCH     TLIFTOFF                              #  SAVE TIME OF LIFTOFF
000374:
000375: 27,2240           32445                           CA       63OCT
000376: 27,2241           04246                           TC       NEWPHASE                              #  DO NOT REPEAT THE ABOVE
000377: 27,2242           00002                           OCT      2
000378:
000379: 27,2243           00006        REDO2.63           EXTEND
000380: 27,2244           31744                           DCA      DT-LETJT
000381: 27,2245           05741                           TC       LONGCALL
000382: 27,2246  E3,1736                                  EBANK=   TGRR
000383: 27,2246           02270 56063                     2CADR    POSTLET
000384:
000385: 27,2250           04141                           TC       2PHSCHNG
000386: 27,2251           00073                           OCT      00073                                 #  RESTART POSTLET LONGCALL GROUP 3
000387: 27,2252           25012                           OCT      25012                                 #  AND CONTINUE LIFTOFF (SET LONGBASE HERE)
000388: 27,2253           77777                           OCT      77777
000389:


000391: 27,2254           04141                           TC       2PHSCHNG
000392: 27,2255           00002                           OCT      2
000393: 27,2256           47016                           OCT      47016                                 #  PROTECT RCSPURGE.
000394: 27,2257           24404                           DEC      10500      B-14
000395: 27,2260  E3,1736                                  EBANK=   TGRR
000396: 27,2260           02264 56063                     2CADR    RCSPURGE
000397:
000398: 27,2262           05701                           TC       FIXDELAY
000399: 27,2263           24404                           DEC      10500      B-14
000400: 27,2264           32347        RCSPURGE           CA       +XJETSON
000401: 27,2265           00006                           EXTEND
000402: 27,2266           01005                           WRITE    5                                     #  TURN ON +X TRANSLATION
000403:
000404: 27,2267           15727                           TCF      TASKOVER
000405:
000406:
000407: 27,2270           40076        POSTLET            CS       FLAGWRD2                              #  ENABLE ABORT COMMAND MONITOR
000408: 27,2271           77753                           MASK     BIT9                                  #  BIT 9  FLAGWORD 2
000409: 27,2272           26076                           ADS      FLAGWRD2
000410:
000411: 27,2273           04117                           TC       NEWMODEX
000412: 27,2274           00012                           OCT      12                                    #  MAJOR MODE 12
000413:
000414: 27,2275           37763                           CA       BIT1
000415: 27,2276           05663                           TC       WAITLIST                              #  ENABLE TUMBLE MONITOR
000416: 27,2277  E6,1422                                  EBANK=   OMEGA
000417: 27,2277           02470 60066                     2CADR    TUMTASK
000418:
000419: 27,2301           04141                           TC       2PHSCHNG
000420: 27,2302           00053                           OCT      00053                                 #  RESTART TUMTASK GR 3
000421: 27,2303           47012                           OCT      47012
000422: 27,2304           01750                           DEC      1000       B-14
000423: 27,2305  E3,1736                                  EBANK=   TGRR
000424: 27,2305           02311 56063                     2CADR    MONBOOST
000425:
000426: 27,2307           05701                           TC       FIXDELAY
000427: 27,2310           01750                           DEC      1000       B-14                       #  WAIT 10 SECONDS FOR STAGING + SIVB IGN.
000428:
000429: 27,2311           32343        MONBOOST           CA       BOOSTADR                              #  MONITOR DELV FOR BOOSTER SHUTDOWN
000430: 27,2312           55310                           TS       DVSELECT
000431:
000432: 27,2313           04161                           TC       PHASCHNG
000433: 27,2314           47012                           OCT      47012
000434: 27,2315           04064                           DEC      2100       B-14
000435: 27,2316  E3,1736                                  EBANK=   TGRR
000436: 27,2316           02322 56063                     2CADR    PURGEOFF
000437:
000438: 27,2320           05701                           TC       FIXDELAY
000439: 27,2321           04064                           DEC      2100       B-14                       #  WAIT 21 SECONDS
000440:


000442: 27,2322           37767        PURGEOFF           CA       ZERO
000443: 27,2323           04246                           TC       NEWPHASE
000444: 27,2324           00006                           OCT      6
000445:
000446: 27,2325           37767                           CA       ZERO
000447: 27,2326           00006                           EXTEND
000448: 27,2327           01006                           WRITE    6
000449: 27,2330           00006                           EXTEND
000450: 27,2331           01005                           WRITE    5                                     #  TURN OFF RCS JETS
000451:
000452: 27,2332           05101                           TC       1LMP+DT
000453: 27,2333           00272                           DEC      186        B-14                       #  ECS PRIMARY WATER VALVE OPEN
000454:
000455: 27,2334           00310                           DEC      200        B-14                       #  WAIT 2 SECONDS
000456:
000457: 27,2335           05060        WATEROFF           TC       1LMP
000458: 27,2336           00273                           DEC      187        B-14                       #  ECS PRIMARY WATER VALVE - OPEN RESET
000459:
000460: 27,2337           04161                           TC       PHASCHNG
000461: 27,2340           00002                           OCT      00002                                 #  DEACTIVATE GROUP 2
000462:
000463: 27,2341           15727                           TCF      TASKOVER                              #  END OF MISSION PHASE 2
000464:
000465:
000466:
000467:                                                                                                  #  DELTA T S AND OTHER CONSTANTS FOR MP2
000468: 27,2342           02251        AVEGADRS           GENADR   AVERAGEG
000469: 27,2343           02273        BOOSTADR           GENADR   BOOSTMON
000470: 27,2344  27,2442               SVEXADRS           EQUALS   SVEXITAD
000471: 27,2344           02260        12SEC              DEC      1200       B-14
000472: 27,2345           37116 32623  WEARTH             2DEC     31.1539787 B-5                        #  REVOLUTIONS PER 2(28) CENTISECONDS.
000473:
000474: 27,2347           00252        +XJETSON           OCT      00252                                 #  BITS FOR +X TRANSLATION JETS
000475:
000476:
000477:
000478:                                                                                                  #  ABORT COMMAND MONITOR - DETECTS
000479:                                                                                                  #  SUBORBITAL ABORT AND CONTINGENCY
000480:                                                                                                  #  ORBIT INSERTION
000481:
000482: 27,2350           00004        SUBABORT           INHINT                                         #  SUBORBITAL ABORT - ZERO ABORTNDX TO
000483: 27,2351           37767                           CAF      ZERO                                  #  SET UP MISSION PHASE 3
000484: 27,2352           12355                           TCF      CONORBIT   +2
000485:
000486: 27,2353           00004        CONORBIT           INHINT                                         #  CONTINGENCY ORBIT INSERTION - ABORTNDX
000487: 27,2354           37762                           CAF      TWO                                   #  SET TO 2 TO SET UP MISSION PHASE 4
000488: 27,2355           54001                           TS       L                                     #  SAVE IN L
000489: 27,2356           40076                           CS       FLAGWRD2                              #  CHECK ABORT RECEIVED FLAG TO INSURE THAT
000490:
000491: 27,2357           77752                           MASK     BIT10                                 #  MULTIBLE TRANSMISSIONS DON'T START


000493: 27,2360           00006                           EXTEND                                         #  MULTIBLE JOBS.  SINCE MULTIBLE XMISSIONS
000494: 27,2361           15567                           BZF      ENDOFJOB                              #  ARE THE RULE, LEAVE WITH NO ALARM.
000495: 27,2362           40076                           CS       FLAGWRD2                              #  IS ABORT COMMAND MONITOR ENABLED
000496:
000497: 27,2363           77753                           MASK     BIT9
000498: 27,2364           00006                           EXTEND
000499: 27,2365           12371                           BZF      SETABORT                              #  YES.
000500:
000501: 27,2366           04755                           TC       ALARM                                 #  ABORT NOT ENABLED, SET ALARM AND EXIT.
000502: 27,2367           00300                           OCT      00300
000503: 27,2370           05567                           TC       ENDOFJOB
000504:
000505: 27,2371           00004        SETABORT           INHINT
000506: 27,2372           35352                           CA       EBANK3
000507: 27,2373           54003                           TS       EBANK
000508: 27,2374           23742                           LXCH     ABORTNDX                              #  STORE ABORTNDX
000509: 27,2375           32342                           CAF      AVEGADRS
000510: 27,2376           55310                           TS       DVSELECT                              #  TURN OFF BOOSTMON
000511: 27,2377           04141                           TC       2PHSCHNG
000512: 27,2400           00004                           OCT      00004
000513: 27,2401           00006                           OCT      00006
000514: 27,2402           04141                           TC       2PHSCHNG
000515: 27,2403           00003                           OCT      00003
000516: 27,2404           07022                           OCT      07022
000517: 27,2405           21000                           OCT      21000
000518: 27,2406  E3,1742                                  EBANK=   ABORTNDX
000519: 27,2406           02414 56063                     2CADR    TUMBL3/4
000520:
000521: 27,2410           06060                           TC       FLAG2UP
000522: 27,2411           01000                           OCT      01000                                 #  ABORT RECEIVED FLAG
000523: 27,2412           05225                           TC       POSTJUMP
000524: 27,2413           02354                           CADR     ENEMA                                 #  WIPE EVERYTHING OUT
000525:
000526:
000527:
000528: 27,2414           00004        TUMBL3/4           INHINT
000529: 27,2415           37763                           CA       BIT1
000530: 27,2416           05663                           TC       WAITLIST                              #  RE-ESTABLISH TUMBLE MONITOR
000531: 27,2417  E6,1422                                  EBANK=   OMEGA
000532: 27,2417           02470 60066                     2CADR    TUMTASK
000533:
000534: 27,2421           04141                           TC       2PHSCHNG
000535: 27,2422           00053                           OCT      00053                                 #  3.5 SPOT FOR TUMTASK
000536: 27,2423           04022                           OCT      04022                                 #  GR 2 FOR ABORT3/4
000537:
000538: 27,2424           00004        ABORT3/4           INHINT
000539: 27,2425           35651                           CAF      PRIO27
000540: 27,2426           54063                           TS       NEWPRIO                               #  SET UP MP3 OR MP4 VIA SPVAC
000541:
000542: 27,2427           00006                           EXTEND


000544: 27,2430           51742                           INDEX    ABORTNDX                              #  GET RIGHT 2CADR
000545: 27,2431           32435                           DCA      MP3-4ADR
000546: 27,2432           05526                           TC       SPVAC                                 #  SET UP ABORT JOB.
000547:
000548: 27,2433           15567                           TCF      ENDOFJOB
000549:
000550:
000551:
000552: 27,2434  E4,1566                                  EBANK=   TDEC
000553: 27,2434           02000 52064  MP3-4ADR           2CADR    MP03JOB                               #  DO NOT CHANGE THE ORDER OF THESE 2 CARDS
000554:
000555: 27,2436  E4,1566                                  EBANK=   TDEC
000556: 27,2436           02000 66064                     2CADR    MP4JOB                                #  THEY ARE IN AN INDEXED TABLE
000557:
000558: 27,2440  E4,1566                                  EBANK=   TDEC                                  #  LEFT-OVERS FROM DELETED MISSION PHASE 18
000559: 27,2440           02341 16064  MIDAVEAD           2CADR    MIDTOAVE
000560:
000561: 27,2442  E4,1566                                  EBANK=   TDEC
000562: 27,2442           02324 60064  SVEXITAD           2CADR    SERVEXIT
000563:
000564:
000565:
000566: 27,2444           00061        61OCT              OCT      61
000567: 27,2445           00063        63OCT              OCT      63
000568:


000570:                                                                                                  #  SET UP & EXECUTE JOB TO ADD VELOCITY CORRECTION TO VN:
000571:
000572: 27,2446  E5,1745                                  EBANK=   GTSWTLST
000573:
000574: 27,2446           35643        LIFTFIXT           CA       PRIO17                                #  LESS THAN PRELAUNCH OR NORMLIZE
000575: 27,2447           05516                           TC       FINDVAC
000576: 27,2450  E5,1743                                  EBANK=   OLDGT
000577: 27,2450           02453 56065                     2CADR    LIFTFIX
000578:
000579: 27,2452           05727                           TC       TASKOVER
000580:
000581:
000582:
000583: 27,2453           41307        LIFTFIX            CS       PIPTIME    +1                         #  PRELAUNCH BY NOW HAS FOUND THE GRR FLAG
000584: 27,2454           61743                           AD       OLDGT                                 #  & SUBSEQUENTLY BEEN THRU PREREAD, VIA
000585: 27,2455           00006                           EXTEND                                         #  MP2TASK.
000586: 27,2456           62461                           BZMF     +3
000587: 27,2457           67744                           AD       NEG1/2                                #  (IF TIME1 OVERFLOWED)
000588: 27,2460           67744                           AD       NEG1/2
000589: 27,2461           54147                           TS       MPAC       +3
000590:
000591: 27,2462           06112                           TC       INTPRET
000592:
000593: 27,2463           56335                           SLOAD    DDV
000594: 27,2464           00150                                    MPAC       +3
000595: 27,2465           16503                                    -1SEC214                              #  MAKE THE TIME-RATIO POSITIVE.
000596: 27,2466           63361                           VXSC     PDVL
000597: 27,2467           01025                                    GDT/2
000598: 27,2470           00404                                    DELV
000599: 27,2471           76455                           VAD      VSL1
000600: 27,2472           01765                                    DELVBUF
000601: 27,2473           53361                           VXSC     VAD
000602: 27,2474           21165                                    KPIP1
000603: 27,2475           77655                           VAD
000604: 27,2476           01017                                    VN
000605: 27,2477           01017                           STORE    VN
000606:
000607: 27,2500           77776                           EXIT
000608: 27,2501           05567                           TC       ENDOFJOB
000609:
000610:
000611:
000612: 27,2502           77633 77777  -1SEC214           2DEC     -100       B-14

End of include-file MISSION_PHASE_2_GUIDANCE_REFERENCE_RELEASE_PLUS_BOOST_MONITOR.agc.  Parent file is MAIN.agc


