
Source Code


000002:                                                                                                  ## Copyright:    Public domain.
000003:                                                                                                  ## Filename:     MISSION_PHASE_8-DPS_COLD_SOAK.agc
000004:                                                                                                  ## Purpose:      A module for revision 0 of BURST120 (Sunburst). It
000005:                                                                                                  ##               is part of the source code for the Lunar Module's
000006:                                                                                                  ##               (LM) Apollo Guidance Computer (AGC) for Apollo 5.
000007:                                                                                                  ## Assembler:    yaYUL
000008:                                                                                                  ## Contact:      Ron Burkey <info@sandroid.org>.
000009:                                                                                                  ## Website:      www.ibiblio.org/apollo/index.html
000010:                                                                                                  ## Mod history:  2016-09-30 RSB  Created draft version.
000011:                                                                                                  ##               2016-10-28 MAS  Transcribed.
000012:                                                                                                  ##               2016-12-06 RSB  Comments proofed using octopus/ProoferComments,
000013:                                                                                                  ##                               changes made.
000014:                                                                                                  ##               2017-06-03 MAS Replaced some instances of P00H with POOH.
000015:
000016:


000018: 27,2564                                           BANK     27
000019: 27,2564  E3,1652                                  EBANK=   RATEINDX
000020:                                                                                                  #  PROGRAM DESCRIPTION-            DATE- 07 DEC 66
000021:
000022:                                                                                                  #  MOD NO- 4                       LOG SECTION-
000023:                                                                                                  #  MOD BY- ELIASSEN                MISSION PHASE 8 - DPS COLD SOAK
000024:                                                                                                  #  FUNCTIONAL DESCRIPTION-
000025:
000026:                                                                                                  #  0/54/23  START MISSION PHASE 8 WHEN MISSION TIMER 4 COUNTS TO ZERO.
000027:
000028:                                                                                                  #           CHANGE MAJOR MODE TO 15.
000029:
000030:                                                                                                  #           DO DFI T/M CALIBRATION  (14 SECONDS).
000031:
000032:                                                                                                  #           WAIT 1 SECOND
000033:
000034:                                                                                                  #  0/54/38  LMP COMMANDS-
000035:                                                                                                  #                  LANDING RADAR POWER ON*
000036:                                                                                                  #                  RADAR SELF TEST ON*
000037:
000038:                                                                                                  #           CALL TO CALCULATE REQUIRED ATTITUDE
000039:                                                                                                  #                  FOR DPS COLD SOAK -
000040:                                                                                                  #                  LM X-AXIS NORMAL TO THE ECLIPTIC PLANE
000041:                                                                                                  #                  AND BISECTOR OF LM +Z/-Y AXES TOWARD THE SUN.
000042:
000043:                                                                                                  #                  CHANGE THE ATTITUDE OF THE
000044:                                                                                                  #                  SPACECRAFT TO THAT REQUIRED FOR DPS COLD SOAK
000045:                                                                                                  #                  USING KALCMANU ROUTINE - MANEUVER RATE= 5 DEG/SEC.
000046:
000047:                                                                                                  #           WAIT 60 SECONDS
000048:
000049:                                                                                                  #           LMP COMMAND-
000050:                                                                                                  #                  RADAR SELF TEST OFF*
000051:
000052:                                                                                                  #           WAIT 60 SECONDS
000053:
000054:                                                                                                  #  0/56/38  LMP COMMAND-
000055:                                                                                                  #                  LANDING RADAR POWER OFF*
000056:
000057:                                                                                                  #           WAIT 15 SECONDS
000058:
000059:                                                                                                  #  0/56/53  VERIFY THAT MANEUVER IS COMPLETE.
000060:                                                                                                  #                  (IF NOT GO TO CURTAINS)
000061:
000062:                                                                                                  #           SET MAXIMUM DEADBAND FOR LM-DAP.
000063:
000064:                                                                                                  #           CALL SCHEDULE ENTRY ROUTINE FOR DPS 1 WITH
000065:                                                                                                  #                  J=2
000066:                                                                                                  #                  MP=9
000067:                                                                                                  #                  DT= 2H 59M 14S
000068:


000070:                                                                                                  #  SUBROUTINES CALLED-
000071:                                                                                                  #           FINDVAC, ENDOFJOB
000072:                                                                                                  #           WAITLIST, TASKOVER
000073:                                                                                                  #           NEWMODEX, MPENTRY, PHASCHNG, 2PHSCHNG
000074:                                                                                                  #           INTPRET, BANKCALL, IBNKCALL, ATTSTALL, CURTAINS, POOH
000075:                                                                                                  #           FLAG1DWN, FLAG2DWN, SETMINDB, SETMAXDB
000076:                                                                                                  #           KALCMAN3, DCMTOCDU, V1STO2S
000077:                                                                                                  #           1LMP, 1LMP+DT, 2LMP+DT
000078:
000079:                                                                                                  #  NORMAL EXIT MODES-
000080:                                                                                                  #           TC    ENDOFJOB/TASKOVER
000081:                                                                                                  #  ALARM OR ABORT EXIT MODES-   NONE
000082:                                                                                                  #  OUTPUT- (INTERFACE, DISPLAYS, MEANINGFUL INFORMATION LEFT IN ERASABLE)
000083:                                                                                                  #           SAME AS FOR KALCMANU
000084:                                                                                                  #  ERASABLE INITIALIZATION REQUIRED-
000085:                                                                                                  #           TEPHEM   IN CENTISECONDS TRIPLE PRECISION
000086:                                                                                                  #           MP8TO9   DT FOR CALLING MP9- IN SECONDS(SEE ABOVE)
000087:
000088:                                                                                                  #  DEBRIS- (ERASABLE LOCATIONS DESTROYED BY THIS PROGRAM)
000089:                                                                                                  #           SAME AS FOR KALCMANU
000090: 27,2564     7746               PRIOKM             EQUALS   PRIO20                                #  PRIORITY FOR KALCMANU PHASE 8 + 16
000091: 27,2564           04117        MP8JOB             TC       NEWMODEX                              #  UPDATE PROGRAM NUMBER
000092: 27,2565           00015                           OCT      15                                    #  ON DSKY
000093:
000094: 27,2566           04161                           TC       PHASCHNG
000095: 27,2567           05022                           OCT      05022
000096: 27,2570           20000                           OCT      20000
000097: 27,2571           37754                           CAF      BIT8
000098: 27,2572           04105                           TC       SETRSTRT                              #  SET RESTART FLAG
000099:
000100: 27,2573           37763                           CAF      ONE                                   #  ESTABLISH TASK TO
000101: 27,2574           00004                           INHINT                                         #  PERFORM DFI T/M CAL.
000102: 27,2575           05663                           TC       WAITLIST
000103: 27,2576  E3,1652                                  EBANK=   RATEINDX
000104: 27,2576           02601 56063                     2CADR    MP8TASK
000105:
000106: 27,2600           05567                           TC       ENDOFJOB
000107:
000108: 27,2601           05101        MP8TASK            TC       1LMP+DT                               #  LMP COMMAND
000109: 27,2602           00354                           DEC      236        B-14                       #  DFI T/M CALIBRATE ON*
000110: 27,2603           02260                           DEC      1200       B-14                       #  12 SECONDS DELAY
000111:
000112: 27,2604           05073                           TC       2LMP+DT                               #  LMP COMMANDS
000113: 27,2605           00355                           DEC      237        B-14                       #  DFI T/M CALIBRATE OFF*
000114: 27,2606           00306                           DEC      198        B-14                       #  MASTER C+W ALARM RESET**  COMMAND
000115: 27,2607           00310                           DEC      200        B-14                       #  2 SECONDS DELAY
000116:
000117: 27,2610           05101                           TC       1LMP+DT                               #  LMP COMMAND
000118: 27,2611           00307                           DEC      199        B-14                       #  MASTER C+W ALARM RESET- COMMAND RESET
000119: 27,2612           00144                           DEC      100        B-14                       #  1 SECOND
000120:


000122: 27,2613           37747        M8RADON            CAF      PRIO10                                #  SET UP JOB TO CALCULATE
000123: 27,2614           05516                           TC       FINDVAC                               #  REQ CDU ANGLES
000124: 27,2615  E3,1652                                  EBANK=   RATEINDX
000125: 27,2615           02670 56063                     2CADR    COLDSOAK
000126:
000127: 27,2617           04141                           TC       2PHSCHNG
000128: 27,2620           00054                           OCT      00054
000129: 27,2621           05012                           OCT      05012
000130: 27,2622           77777                           OCT      77777
000131:
000132: 27,2623           05073                           TC       2LMP+DT                               #  LMP COMMANDS
000133: 27,2624           00266                           DEC      182        B-14                       #  LANDING RADAR POWER ON*
000134: 27,2625           00032                           DEC      26         B-14                       #  RADAR SELF TEST ON*
000135: 27,2626           13560                           DEC      6000       B-14                       #  WAIT 1 MIN
000136:
000137: 27,2627           05101                           TC       1LMP+DT                               #  LMP COMMAND
000138: 27,2630           00033                           DEC      27         B-14                       #  RADAR SELF TEST OFF*
000139: 27,2631           13560                           DEC      6000       B-14                       #  WAIT 1 MIN
000140:
000141: 27,2632           05101                           TC       1LMP+DT
000142: 27,2633           00267                           DEC      183        B-14                       #  LANDING RADAR POWER OFF*
000143: 27,2634           02734                           DEC      1500       B-14                       #  15 SECONDS
000144:
000145: 27,2635           35656                           CAF      PRIO35                                #  SET UP JOB TO
000146: 27,2636           05505                           TC       NOVAC                                 #  END MISSION PHASE
000147: 27,2637  E3,1400                                  EBANK=   LST1
000148: 27,2637           02642 56063                     2CADR    MP9CALL
000149:
000150: 27,2641           05727                           TC       TASKOVER
000151: 27,2642           30076        MP9CALL            CA       FLAGWRD2                              #  CHECK IF MANEUVER
000152: 27,2643           77751                           MASK     BIT11                                 #  WAS COMPLETED
000153: 27,2644           00006                           EXTEND
000154: 27,2645           12647                           BZF      +2
000155: 27,2646           04743                           TC       CURTAINS                              #  MANEUVER NOT COMPLETED
000156: 27,2647           05206                           TC       BANKCALL
000157: 27,2650           26743                           CADR     ATTSTALL
000158: 27,2651           04743                           TC       CURTAINS                              #  SICK RETURN
000159:
000160:                                                                                                  #                                          SET LM-DAP DEADBAND TO MAX-
000161:
000162: 27,2652           04161                           TC       PHASCHNG
000163: 27,2653           00002                           OCT      00002                                 #  DEACTIVATE GR 2
000164:
000165: 27,2654           04141                           TC       2PHSCHNG
000166: 27,2655           00004                           OCT      00004
000167: 27,2656           05023                           OCT      05023
000168: 27,2657           30000                           OCT      30000
000169:
000170: 27,2660           00004                           INHINT
000171: 27,2661           05206                           TC       BANKCALL


000173: 27,2662           40054                           CADR     SETMAXDB
000174:
000175:                                                                                                  #                                          CALL MISSION PHASE 9
000176:
000177: 27,2663           05126                           TC       MPENTRY                               #  MANEUVER SUCCESSFUL
000178: 27,2664           00002                           DEC      2          B-14                       #  J=2
000179: 27,2665           00011                           DEC      9          B-14                       #  MP=9
000180: 27,2666           01773                           ADRES    MP8TO9                                #  DT = 2H 59M 14S
000181:
000182: 27,2667           04272                           TC       POOH                                  #  END OF MISSION PHASE 8
000183:


000185:                                                                                                  #           CALCULATE CDU ANGLES FOR REQUIRED
000186:                                                                                                  #           COLDSOAK ATTITUDE - LEM X-AXIS NORMAL TO THE
000187:                                                                                                  #           ECLIPTIC AND BISECTOR OF -Y/+Z AXES TOWARD THE SUN.
000188: 27,2670           00006        COLDSOAK           EXTEND
000189: 27,2671           30025                           DCA      TIME2
000190: 27,2672           52145                           DXCH     MPAC
000191: 27,2673           00006                           EXTEND
000192: 27,2674           31741                           DCA      TLIFTOFF
000193: 27,2675           20145                           DAS      MPAC                                  #  ADD TIME CLOCK ZEROED TO TIME2
000194:
000195: 27,2676           37767                           CA       ZERO
000196: 27,2677           54153                           TS       MODE
000197: 27,2700           06112                           TC       INTPRET
000198:                                                                                                  #  CALCULATE TRANSFORMATION MATRIX FROM RCS COLD SOAK ATTITUDE
000199:                                                                                                  #  TO STABLE MEMBER COORDINATES.   CONVERT TO CDU ANGLES.
000200: 27,2701           54201                           SETPD    SR
000201: 27,2702           00001                                    0
000202: 27,2703           20617                                    14D
000203: 27,2704           56371                           TAD      DDV
000204: 27,2705           01754                                    TEPHEM                                #  TIME IN CENTISEC SINCE PRECEDING JUNE 30
000205: 27,2706           17113                                    CSPERDAY                              #  CENTISEC PER DAY
000206: 27,2707           77606                           PUSH                                           #  T/2**9 = (DAYS SINCE JUNE 30TH)/2**9
000207:
000208:                                                                                                  #                                          COMPUTE  SIN(2*PI*T/365.25), COS(2*PI*T/365.25)  WHERE
000209:                                                                                                  #                                          T= NUMBER OF DAYS SINCE MIDNIGHT OF PRECEDING JUNE 30TH.
000210:
000211: 27,2710           51025        ALTA               DSU      BPL                                   #  DIMINISH T/2**9 BY 365.25/2**9
000212: 27,2711           17111                                    ONEYR                                 #  UNTIL A NEGATIVE RESULT OCCURS.
000213: 27,2712           56710                                    ALTA
000214: 27,2713           56215                           DAD      DDV                                   #  ADD BACK 365.25/2**9 ONCE.
000215: 27,2714           17111                                    ONEYR                                 #  LET Y=RESULT
000216: 27,2715           17111                                    ONEYR                                 #  Y/365.25 IS LESS THAN ONE AND POSITIVE.
000217: 27,2716           73406                           PUSH     SIN                                   #  .5*SIN(2*PI*Y/365.25)
000218: 27,2717           71525                           PDDL     COS                                   #  .5*COS(2*PI*Y/365.25)
000219:
000220:                                                                                                  #                                          COMPUTE (1/8 +LOS) IN REVOLUTIONS WHERE
000221:                                                                                                  #                                          LOS= LOS0+LOSR*T-C0Y*SIN(2*PI*Y/365.25)-C1Y*COS(2*PI*Y/365.25) .
000222:                                                                                                  #                                          LOS = LONGITUDE OF SUN IN PLANE OF ECLIPTIC.
000223:
000224: 27,2720           65205                           DMP      PDDL
000225: 27,2721           17073                                    C1Y                                   #  .5*C1Y*COS/2
000226: 27,2722           43205                           DMP      DAD
000227: 27,2723           17071                                    C0Y                                   #  (C0Y*SIN +C1Y*COS)/4
000228: 27,2724           77725                           PDDL                                           #  T/2**9
000229: 27,2725           54205                           DMP      SL
000230: 27,2726           17067                                    LOSR                                  #  LOSR*T/2**9
000231: 27,2727           20210                                    7                                     #  LOSR*T/4
000232: 27,2730           77625                           DSU                                            #  (LOSR*T-C0Y*SIN-C1Y*COS)/4
000233: 27,2731           43215                           DAD      DAD
000234: 27,2732           17065                                    LOS0                                  #  LOS/4= (LOS0+LOSR*T-C0Y*SIN-C1Y*COS)/4


000236: 27,2733           17107                                    EGHTH                                 #  (1/8 +LOS)/4  ,  1/8 REV = 45 DEG
000237:
000238: 27,2734           51025        ALTB               DSU      BPL                                   #  DIMINISH (1/8 +LOS)/4 REVS BY (1REV)/4
000239: 27,2735           17105                                    ONEREV                                #  UNTIL A NEGATIVE RESULT OCCURS.
000240: 27,2736           56734                                    ALTB
000241: 27,2737           62415                           DAD      SL2                                   #  ADD BACK (1REV)/4 .
000242: 27,2740           17105                                    ONEREV                                #  AND MULTIPLY BY FOUR.
000243: 27,2741           77606                           PUSH                                           #  (1/8 +LOS) POSITIVE AND LESS THAN ONE.
000244:
000245:                                                                                                  #                                          CONSTRUCT TRANSFORMATION MATRIX FROM RCS COLD SOAK ATTITUDE
000246:                                                                                                  #                                          TO EARTH REFERENCE COORDINATES.  MATRIX IS SCALED BY -1 .
000247:                                                                                                  #                                          MATRIX TRANSPOSE IS STORED STARTING IN FIRST LOCATION OF PUSHDOWN LIST.
000248:                                                                                                  #                                          OBL= OBLIQUITY= ANGLE BETWEEN ECLIPTIC AND EQUATORIAL PLANES.
000249:                                                                                                  #                                          DEFINE LOSR= 2*PI*LOS
000250:
000251: 27,2742           57546                           COS      DCOMP
000252: 27,2743           00007                           STORE    6                                     #  -.5*COS(PI/4+LOSR)
000253: 27,2744           77605                           DMP
000254: 27,2745           17077                                    COSOBL
000255: 27,2746           00017                           STORE    14D                                   #  -.5*COS(PI/4+LOSR)*COS(OBL)
000256: 27,2747           77605                           DMP
000257: 27,2750           17101                                    TANOBL
000258: 27,2751           14021                           STODL    16D                                   #  -.5*COS(PI/4+LOSR)*SIN(OBL)
000259: 27,2752           00001                                    0
000260: 27,2753           77756                           SIN
000261: 27,2754           00015                           STORE    12D                                   #   .5*SIN(PI/4+LOSR)
000262: 27,2755           57405                           DMP      DCOMP
000263: 27,2756           17077                                    COSOBL
000264: 27,2757           00011                           STORE    8D                                    #  -.5*SIN(PI/4+LOSR)*COS(OBL)
000265: 27,2760           77605                           DMP
000266: 27,2761           17101                                    TANOBL
000267: 27,2762           14013                           STODL    10D                                   #  -.5*SIN(PI/4+LOSR)*SIN(OBL)
000268: 27,2763           17077                                    COSOBL
000269: 27,2764           77742                           SR1
000270: 27,2765           14005                           STODL    4                                     #   .5*COS(OBL)
000271: 27,2766           17075                                    SINOBL
000272: 27,2767           57542                           SR1      DCOMP
000273: 27,2770           14003                           STODL    2                                     #  -.5*SIN(OBL)
000274: 27,2771           17103                                    DPZRO
000275: 27,2772           00001                           STORE    0                                     #   0
000276:
000277:                                                                                                  #                                          PERFORM THE MATRIX MULTIPLICATION (REFSMMAT)X(RCS TO REF MATRIX)/2
000278: 27,2773           64375                           VLOAD    MXV
000279: 27,2774           00001                                    0
000280: 27,2775           01263                                    REFSMMAT
000281: 27,2776           77772                           VSL1
000282: 27,2777           24001                           STOVL    0
000283: 27,3000           00007                                    6
000284: 27,3001           76521                           MXV      VSL1
000285: 27,3002           01263                                    REFSMMAT
000286:


000288: 27,3003           24007                           STOVL    6
000289: 27,3004           00015                                    12D
000290: 27,3005           76521                           MXV      VSL1
000291: 27,3006           01263                                    REFSMMAT
000292: 27,3007           00015                           STORE    12D
000293: 27,3010           77776                           EXIT
000294:
000295:                                                                                                  #                                          TRANSPOSE RESULTING DIRECTION COSINE MATRIX.
000296:
000297: 27,3011           50110                           INDEX    FIXLOC
000298: 27,3012           52003                           DXCH     2
000299: 27,3013           50110                           INDEX    FIXLOC
000300: 27,3014           52007                           DXCH     6
000301: 27,3015           50110                           INDEX    FIXLOC
000302: 27,3016           52003                           DXCH     2
000303: 27,3017           50110                           INDEX    FIXLOC
000304: 27,3020           52005                           DXCH     4
000305: 27,3021           50110                           INDEX    FIXLOC
000306: 27,3022           52015                           DXCH     12D
000307: 27,3023           50110                           INDEX    FIXLOC
000308: 27,3024           52005                           DXCH     4
000309: 27,3025           50110                           INDEX    FIXLOC
000310: 27,3026           52013                           DXCH     10D
000311: 27,3027           50110                           INDEX    FIXLOC
000312: 27,3030           52017                           DXCH     14D
000313: 27,3031           50110                           INDEX    FIXLOC
000314: 27,3032           52013                           DXCH     10D
000315: 27,3033           06112                           TC       INTPRET
000316:
000317:                                                                                                  #                                          CALL ROUTINE TO CONVERT DIRECTION COSINE MATRIX TO CDU ANGLES.
000318:
000319: 27,3034           74001                           SETPD    AXC,1
000320: 27,3035           00023                                    18D
000321: 27,3036           00000                                    0
000322: 27,3037           77624                           CALL
000323: 27,3040           70711                                    DCMTOCDU
000324:
000325:                                                                                                  #                                          CONVERT CDU ANGLES FROM ONES TO TWOS COMPLEMENT.
000326:
000327: 27,3041           47131                           SSP      RTB
000328: 27,3042           01653                                    RATEINDX
000329: 27,3043           00004                                    4                                     #  CODE FOUR = MANEUVER RATE OF 5 DEG/SEC.
000330: 27,3044           33526                                    V1STO2S                               #      STORE CDU ANGLES IN CONSECUTIVE
000331: 27,3045           01632                           STORE    CPHI                                  #      LOCATIONS  CPHI,CTHETA,CPSI.
000332: 27,3046           77776                           EXIT
000333:
000334:                                                                                                  #                                          SET UP PARAMETERS FOR KALCMANU MANEUVER ROUTINE
000335:
000336: 27,3047           06076                           TC       FLAG2DWN                              #  RESET STATE SWITCH 33 (BIT 12)
000337: 27,3050           04000                           OCT      04000                                 #  FOR FINAL ROLL , IF ANY.
000338:


000340: 27,3051           06060                           TC       FLAG2UP                               #  SET BIT FOR KALCMANU
000341: 27,3052           02000                           OCT      02000                                 #  BIT 11
000342:
000343: 27,3053           04161                           TC       PHASCHNG
000344: 27,3054           05024                           OCT      05024
000345: 27,3055           20000                           OCT      20000
000346:
000347: 27,3056           37746        COLDSK1            CAF      PRIOKM                                #  SCHEDULE KALCMANU
000348: 27,3057           00004                           INHINT
000349: 27,3060           05516                           TC       FINDVAC
000350: 27,3061  E3,1652                                  EBANK=   RATEINDX
000351: 27,3061           02067 70063                     2CADR    KALCMAN3
000352:
000353: 27,3063           05567                           TC       ENDOFJOB
000354:
000355: 27,3064           02142 00045  LOS0               2DEC     .273926331 B-2                        #  1966-67,IN REVOLUTIONS
000356:
000357: 27,3066           00054 33312  LOSR               2DEC     .0027377992                            #  1966-67,IN REVOLUTIONS
000358:
000359: 27,3070           00053 17056  C0Y                2DEC     .005306583 B-1                        #  1966-67,IN REVOLUTIONS
000360:
000361: 27,3072           77774 66451  C1Y                2DEC     -.000402139 B-1                        #  1966-67,IN REVOLUTIONS
000362:
000363: 27,3074           14566 11602  SINOBL             2DEC     .397845753                            #  1966-67
000364:
000365: 27,3076           35267 21173  COSOBL             2DEC     .917452318                            #  1966-67
000366:
000367: 27,3100           15700 31171  TANOBL             2DEC     .433641885                            #  1966-67
000368:
000369: 27,3102           00000 00000  DPZRO              2DEC     0          B-28
000370:
000371: 27,3104           10000 00000  ONEREV             2DEC     .999999999 B-2
000372:
000373: 27,3106           01000 00000  EGHTH              2DEC     .125       B-2
000374:
000375: 27,3110           26650 00000  ONEYR              2DEC     365.25     B-9
000376:
000377: 27,3112           00020 17260  CSPERDAY           2DEC     8640000    B-33                       #  CENTISEC PER DAY
000378:
000379:                                                                                                  #  END OF MISSION PHASE 8

End of include-file MISSION_PHASE_8-DPS_COLD_SOAK.agc.  Parent file is MAIN.agc


