
Source Code


000002:                                                                                                  ## Copyright:    Public domain.
000003:                                                                                                  ## Filename:     MISSION_PHASE_13-APS2.agc
000004:                                                                                                  ## Purpose:      A module for revision 0 of BURST120 (Sunburst). It
000005:                                                                                                  ##               is part of the source code for the Lunar Module's
000006:                                                                                                  ##               (LM) Apollo Guidance Computer (AGC) for Apollo 5.
000007:                                                                                                  ## Assembler:    yaYUL
000008:                                                                                                  ## Contact:      Ron Burkey <info@sandroid.org>.
000009:                                                                                                  ## Website:      www.ibiblio.org/apollo/index.html
000010:                                                                                                  ## Mod history:  2016-09-30 RSB  Created draft version.
000011:                                                                                                  ##               2016-10-29 MAS  Transcribed
000012:                                                                                                  ##               2016-10-31 RSB  Typos.
000013:                                                                                                  ##               2016-11-01 RSB  More typos.
000014:                                                                                                  ##               2016-12-06 RSB  Comments proofed using octopus/ProoferComments,
000015:                                                                                                  ##                               changes made.
000016:


000018:                                                                                                  #  MISSION PHASE 13 EXERCISES THE ASCENT GUIDANCE EQUATIONS OF PROG 46
000019:                                                                                                  #  THE PREREAD TASK IS SET TO OCCUR IN 140 SECS AT TIG-30 AND AVETOMID DONE
000020:                                                                                                  #  THE PRE-APS2 PROG 34 IS EXECUTED AND KALCMANU JOB IS STARTED
000021:                                                                                                  #  THE ENGINEON TASK IS STARTED AT TIG-30 AND IGN IS AT 170 SECS AFTER
000022:                                                                                                  #  START OF MP13
000023:                                                                                                  #  THE ASCENT GUIDANCE EQUATIONS START BETWEEN TIG+1 AND +2 SECS
000024:                                                                                                  #  THE ASC FEED TEST STARTS AT TIG+9 AND TERMINATES 365 SECS LATER
000025:
000026: 27,3114                                           BANK     27
000027: 27,3114  E4,1400                                  EBANK=   AMEMORY
000028:
000029: 27,3114           06067        MP13JOB            TC       FLAG1DWN
000030: 27,3115           04000                           OCT      04000                                 #  KNOCK DOWN RESTART FLAG
000031:
000032: 27,3116           00006                           EXTEND
000033: 27,3117           30025                           DCA      TIME2                                 #  PICK UP CURRENT TIME
000034: 27,3120           53567                           DXCH     TDEC
000035: 27,3121           04117                           TC       NEWMODEX                              #  SET MODE
000036: 27,3122           00034                           OCT      34
000037:
000038: 27,3123           22007                           ZL                                             #  SET TDEC TO TIME AT TIG-30
000039: 27,3124           33320                           CAF      140SECS                               #  TIME TO TIGN-30
000040: 27,3125           56001                           XCH      L
000041: 27,3126           21567                           DAS      TDEC                                  #  TDEC =TIGN-30 FOR MIDTOAVE
000042:
000043: 27,3127           33320                           CAF      140SECS
000044: 27,3130           00004                           INHINT
000045: 27,3131           05663                           TC       WAITLIST                              #  SET TASK FOR TIGN-30
000046: 27,3132  E4,1566                                  EBANK=   TDEC
000047: 27,3132           03175 56064                     2CADR    TIG13-30
000048:
000049: 27,3134           00006                           EXTEND
000050: 27,3135           31567                           DCA      TDEC
000051: 27,3136           53670                           DXCH     TIGN
000052: 27,3137           00006                           EXTEND
000053: 27,3140           33317                           DCA      30SECS13
000054: 27,3141           21670                           DAS      TIGN                                  #  DISPLAY TIGN FOR DOWNLINK.
000055:
000056: 27,3142           00003                           RELINT
000057:
000058: 27,3143           00006                           EXTEND
000059: 27,3144           32441                           DCA      MIDAVEAD                              #  DO MIDTOAVE COMPUTATION
000060: 27,3145           52006                           DXCH     Z
000061:
000062: 27,3146           00006                           EXTEND
000063: 27,3147           33325                           DCA      PREAP2AD                              #  DO PRE-APS2 TO GET DESIRED ATTITUDE
000064: 27,3150           52006                           DXCH     Z                                     #  STORES VECTORS POINTVSM AND SCAXIS
000065:
000066: 27,3151           06112                           TC       INTPRET
000067: 27,3152           43131                           SSP      SET


000069: 27,3153           01653                                    RATEINDX                              #  SET KALCMANU FOR ANGULAR RATE OF 5DEG/S
000070: 27,3154           00004                                    4
000071: 27,3155           01063                                    33D
000072: 27,3156           77776                           EXIT
000073:
000074: 27,3157           35642                           CAF      PRIO16                                #  SET UP ATTITUDE MANEUVER JOB.
000075: 27,3160           00004                           INHINT
000076: 27,3161           05516                           TC       FINDVAC
000077: 27,3162  E3,1535                                  EBANK=   MIS
000078: 27,3162           02001 70063                     2CADR    VECPOINT
000079:
000080: 27,3164           37763                           CAF      BIT1
000081: 27,3165           00004                           INHINT
000082: 27,3166           05663                           TC       WAITLIST                              #  SET UP DFI T/M CALIBRATE TASK
000083: 27,3167  E4,1566                                  EBANK=   TDEC
000084: 27,3167           03341 56064                     2CADR    DFICAL                                #  DFICAL REQUIRES 14 SECS AND ENDS ITSELF
000085:
000086: 27,3171           05206                           TC       BANKCALL                              #  PUT MP13 TO SLEEP-KALCMANU WILL WAKE
000087: 27,3172           26743                           CADR     ATTSTALL
000088: 27,3173           04743                           TC       CURTAINS                              #  BAD END RETURN FROM KALCMANU
000089:
000090: 27,3174           05567                           TC       ENDOFJOB                              #  WAIT FOR TIG-30 TASK TO INTERUPT
000091:
000092: 27,3175           37763        TIG13-30           CAF      BIT1                                  #  SET PREREAD FOR NOW
000093: 27,3176           05663                           TC       WAITLIST
000094: 27,3177  E5,1506                                  EBANK=   DVTOTAL
000095: 27,3177           02000 60065                     2CADR    PREREAD
000096:
000097: 27,3201           04161                           TC       PHASCHNG                              #  PREREAD RESTART PROTECTION
000098: 27,3202           00335                           OCT      00335
000099:
000100: 27,3203           37751                           CAF      BIT11                                 #  SEE IF ATTITUDE MANEUVER DONE
000101: 27,3204           70076                           MASK     FLAGWRD2
000102: 27,3205           10000                           CCS      A
000103: 27,3206           13334                           TCF      CURTJOB                               #  NO-SET UP CURTAINS JOB
000104:
000105: 27,3207           04117                           TC       NEWMODEX
000106: 27,3210           00046                           OCT      46                                    #  SET MODE TO PROG46
000107:
000108: 27,3211           33323                           CAF      AVEG13AD                              #  GENADR OF AVEG IN DVSELECT
000109: 27,3212           55310                           TS       DVSELECT
000110:
000111: 27,3213           00006                           EXTEND
000112: 27,3214           33333                           DCA      SVEX13AD                              #  2CADR SERVEXIT IN AVEGEXIT
000113: 27,3215           53073                           DXCH     AVGEXIT
000114:
000115: 27,3216           00006                           EXTEND
000116: 27,3217           33327                           DCA      MP13TMAD
000117: 27,3220           53075                           DXCH     DVMNEXIT                              #  SET MP RETURN FOR ENGINE SHUT DOWN
000118:


000120: 27,3221           05270                           TC       IBNKCALL
000121: 27,3222           40277                           CADR     ENGINOF1
000122:
000123: 27,3223           05101                           TC       1LMP+DT
000124: 27,3224           00206                           DEC      134        B-14                       #  ENGINE SELECT-APS ARM
000125: 27,3225           03326                           DEC      1750       B-14                       #  DELAY 17.5 SECS
000126:
000127: 27,3226           05270                           TC       IBNKCALL
000128: 27,3227           40062                           CADR     ULLAGE                                #  COMMAND 4 JET ULLAGE-ON
000129:
000130: 27,3230           05701                           TC       FIXDELAY
000131: 27,3231           02342                           DEC      1250       B-14                       #  DELAY 12.5 SECS TO IGNITION
000132:
000133: 27,3232           05270        TIG13              TC       IBNKCALL
000134: 27,3233           40175                           CADR     APSENGON
000135:
000136: 27,3234           05701                           TC       FIXDELAY
000137: 27,3235           00062                           DEC      50         B-14                       #  DELAY .5 SECS
000138:
000139: 27,3236           05270                           TC       IBNKCALL
000140: 27,3237           40066                           CADR     NOULLAGE                              #  ULLAGE JETS OFF AT TIG + .5
000141:
000142:                                                                                                  #  NOW THAT THE ENGINE IS ON AND ULLAGE IS OFF, SET UP DUMMY MP 13 & PUT RESTARTABILITY FLAG UP:
000143:
000144: 27,3240           04141                           TC       2PHSCHNG
000145: 27,3241           00313                           OCT      00313                                 #  3.31 SPOT IS DUMMY13 TASK.
000146: 27,3242           00002                           OCT      2                                     #  GROUP 2 OFF.
000147:
000148: 27,3243           37747                           CAF      BIT13
000149: 27,3244           04105                           TC       SETRSTRT                              #  SET RESTART FLAG
000150:
000151: 27,3245           05701                           TC       FIXDELAY
000152: 27,3246           00372                           DEC      250        B-14                       #  DELAY 2.5 SECS AND START GUIDANCE
000153: 27,3247           00006                           EXTEND
000154: 27,3250           33331                           DCA      ATMAGAD
000155: 27,3251           53073                           DXCH     AVGEXIT                               #  SET AVEG LOOP TO THRUST MAGNITUDE FILTER
000156:
000157: 27,3252           05701                           TC       FIXDELAY
000158: 27,3253           01130                           DEC      600        B-14                       #  START FEED TEST ROUTINE
000159: 27,3254           03353                           TC       FEEDTEST                              #  START FEED TEST ROUTINE
000160:
000161: 27,3255           00006                           EXTEND
000162: 27,3256           33322                           DCA      342SECS
000163: 27,3257           05741                           TC       LONGCALL
000164: 27,3260  E4,1566                                  EBANK=   TDEC
000165: 27,3260           03263 56064                     2CADR    MP13+544
000166:
000167: 27,3262           13264        TCGP2OFF           TCF      GRP2OFF
000168:
000169: 27,3263           03410        MP13+544           TC       FEEDREST                              #  DO FEED TEST RESET ROUTINE
000170:


000172: 27,3264           47767        GRP2OFF            CS       ZERO
000173: 27,3265           22007                           ZL
000174: 27,3266           53102                           DXCH     -PHASE2
000175:
000176: 27,3267           05727                           TC       TASKOVER                              #  WAIT FOR GUIDANCE TO DO ENGINE OFF
000177:
000178: 27,3270           37763        MP13TERM           CAF      BIT1                                  #  SET MP13 TERMINAL TASKS
000179: 27,3271           00004                           INHINT
000180: 27,3272           05663                           TC       WAITLIST
000181: 27,3273  E4,1566                                  EBANK=   TDEC
000182: 27,3273           03277 56064                     2CADR    MP13OUT
000183:
000184: 27,3275           05225                           TC       POSTJUMP
000185: 27,3276           60324                           CADR     SERVEXIT
000186:
000187: 27,3277           05270        MP13OUT            TC       IBNKCALL                              #  DEADBAND SELECT - MAX
000188: 27,3300           40054                           CADR     SETMAXDB
000189:
000190: 27,3301           03410                           TC       FEEDREST                              #  DO THIS IN CASE OF EARLY ENG SHUT DOWN
000191:
000192: 27,3302           05701                           TC       FIXDELAY
000193: 27,3303           00144                           DEC      100        B-14                       #  DELAY 1 SEC
000194:
000195: 27,3304           05060                           TC       1LMP
000196: 27,3305           00207                           DEC      135        B-14                       #  APS ARM OFF
000197:
000198: 27,3306           05701                           TC       FIXDELAY
000199: 27,3307           05524                           DEC      2900       B-14                       #  DELAY 29 SECS TO KILL AVEG
000200:
000201: 27,3310           06067                           TC       FLAG1DWN                              #  KILL AVE G
000202: 27,3311           00001                           OCT      1
000203:
000204: 27,3312           05727                           TC       TASKOVER                              #  MISSION PHASE 13 COMPLETE
000205:
000206: 27,3313           00144        1SEC13             DEC      100        B-14
000207: 27,3314           00310        2SECS13            DEC      200        B-14
000208: 27,3315           02260        12SECS13           DEC      1200       B-14
000209: 27,3316           00000 05670  30SECS13           2DEC     3000       B-28
000210:
000211: 27,3320           33260        140SECS            DEC      14000      B-14
000212: 27,3321           00002 02630  342SECS            2DEC     34200      B-28                       #  342 SECONDS
000213:
000214: 27,3323           02251        AVEG13AD           GENADR   AVERAGEG
000215: 27,3324  E4,1566                                  EBANK=   TDEC
000216: 27,3324           02000 64064  PREAP2AD           2CADR    PREAPS2
000217:
000218: 27,3326  E4,1566                                  EBANK=   TDEC
000219: 27,3326           03270 56064  MP13TMAD           2CADR    MP13TERM
000220:
000221: 27,3330  E4,1566                                  EBANK=   TDEC


000223: 27,3330           03005 64064  ATMAGAD            2CADR    ATMAG
000224:
000225: 27,3332  E5,1506                                  EBANK=   DVTOTAL
000226: 27,3332           02324 60065  SVEX13AD           2CADR    SERVEXIT
000227:


000229: 27,3334           35660        CURTJOB            CAF      PRIO37                                #  SET UP JOB TO GO TO CURTAINS
000230: 27,3335           05505                           TC       NOVAC
000231: 27,3336     1357                                  EBANK=   SFAIL
000232: 27,3336           04743 04062                     2CADR    CURTAINS
000233:
000234: 27,3340           05727                           TC       TASKOVER
000235:
000236: 27,3341           05101        DFICAL             TC       1LMP+DT                               #  LMP COMMAND
000237: 27,3342           00354                           DEC      236        B-14                       #  DFI T/M CALIBRATE - ON
000238: 27,3343           02260                           DEC      1200       B-14                       #  DELAY 12 SECS
000239:
000240: 27,3344           05073                           TC       2LMP+DT                               #  LMP COMMANDS
000241: 27,3345           00355                           DEC      237        B-14                       #  DFI T/M CALIBRATE - OFF
000242: 27,3346           00306                           DEC      198        B-14                       #  MASTER C+W ALARM RESET - COMMAND
000243: 27,3347           00310                           DEC      200        B-14                       #  DELAY 2.0 SECONDS
000244:
000245: 27,3350           05060                           TC       1LMP                                  #  LMP COMMAND
000246: 27,3351           00307                           DEC      199        B-14                       #  MASTER C+W ALARM RESET - COMMAND RESET
000247: 27,3352           05727                           TC       TASKOVER                              #  TERMINATE DFI CALIBRATE TASK
000248:


000250: 27,3353           00006        FEEDTEST           EXTEND
000251: 27,3354           23662                           QXCH     MPRETRN
000252: 27,3355           06060                           TC       FLAG2UP                               #  SET ASC FEED TEST FLAG
000253: 27,3356           00200                           OCT      200
000254:
000255: 27,3357           05101                           TC       1LMP+DT                               #  TIME T
000256: 27,3360           00176                           DEC      126        B-14                       #  RCS ASCENT FEED VALVE - ARM
000257: 27,3361           00144                           DEC      100        B-14                       #  DELAY 1 SEC
000258:
000259: 27,3362           05073                           TC       2LMP+DT                               #  T+1
000260: 27,3363           00074                           DEC      60         B-14                       #  RCS ASCENT FEED VALVES8 SYS A-OPEN
000261: 27,3364           00254                           DEC      172        B-14                       #  RCS MAIN S/O VALVES SYS A-CLOSE
000262: 27,3365           00310                           DEC      200        B-14                       #  DELAY FOR 2 SECS
000263:
000264: 27,3366           05073                           TC       2LMP+DT                               #  T+3
000265: 27,3367           00075                           DEC      61         B-14                       #  RCS ASCENT FEED VALVES SYS A-OPEN RESET
000266: 27,3370           00255                           DEC      173        B-14                       #  RCS MAIN S/O VALVES SYS A-CLOSE RESET
000267: 27,3371           01440                           DEC      800        B-14                       #  DELAY FOR 8 SECS
000268:
000269: 27,3372           05073                           TC       2LMP+DT                               #  T+11
000270: 27,3373           00076                           DEC      62         B-14                       #  RCS ASCENT FEED VALVES SYS B-OPEN
000271: 27,3374           00256                           DEC      174        B-14                       #  RCS MAIN S/O VALVES SYS B -CLOSE
000272: 27,3375           00310                           DEC      200        B-14                       #  DELAY FOR 2 SECS
000273:
000274: 27,3376           05073                           TC       2LMP+DT                               #  T+13
000275: 27,3377           00077                           DEC      63         B-14                       #  RCS ASCENT FEED VALVES SYS B-OPEN RESET
000276: 27,3400           00257                           DEC      175        B-14                       #  RCS MAIN S/O VALVES SYS B-CLOSE RESET
000277: 27,3401           01440                           DEC      800        B-14                       #  DELAY 8 SECS
000278:
000279: 27,3402           05101                           TC       1LMP+DT                               #  T+21
000280: 27,3403           00374                           DEC      252        B-14                       #  RCS MANIFOLD CROSSFEED VALVES-OPEN
000281: 27,3404           00310                           DEC      200        B-14                       #  DELAY FOR 2 SECS
000282:
000283: 27,3405           05060                           TC       1LMP                                  #  T+23
000284: 27,3406           00375                           DEC      253        B-14                       #  RCS MANIFOLD CROSSFEED VALVES-OPEN RESET
000285:
000286: 27,3407           01662                           TC       MPRETRN
000287:


000289: 27,3410           40076        FEEDREST           CS       FLAGWRD2                              #  CHECK FEED TEST FLAG
000290: 27,3411           77754                           MASK     BIT8
000291: 27,3412           10000                           CCS      A
000292: 27,3413           00002                           TC       Q                                     #  FLAG DOWN-NO RESET
000293:
000294: 27,3414           00006                           EXTEND                                         #  FLAG UP - DO FEED TEST RESET
000295: 27,3415           23662                           QXCH     MPRETRN
000296:
000297: 27,3416           06076                           TC       FLAG2DWN                              #  FEED TEST FLAG DOWN
000298: 27,3417           00200                           OCT      200
000299:
000300: 27,3420           05101                           TC       1LMP+DT                               #  TIME T
000301: 27,3421           00376                           DEC      254        B-14                       #  RCS MANIFOLD CROSSFEED VALVES -CLOSE
000302: 27,3422           00144                           DEC      100        B-14                       #  DELAY 1 SEC
000303:
000304: 27,3423           05073                           TC       2LMP+DT                               #  T+1
000305: 27,3424           00274                           DEC      188        B-14                       #  RCS MAIN S/O VALVES SYS A-OPEN
000306: 27,3425           00114                           DEC      76         B-14                       #  RCS ASCENT FEED VALVES SYS A-CLOSE
000307: 27,3426           00144                           DEC      100        B-14                       #  DELAY 1 SECS
000308:
000309: 27,3427           05101                           TC       1LMP+DT                               #  T+2
000310: 27,3430           00377                           DEC      255        B-14                       #  RCS MANIFOLD CROSSFEED VALVES-CLOSE RESE
000311: 27,3431           00144                           DEC      100        B-14                       #  DELAY 1 SEC
000312:
000313: 27,3432           05073                           TC       2LMP+DT                               #  T+3
000314: 27,3433           00275                           DEC      189        B-14                       #  RCS MAIN S/O VALVES SYS A-OPEN RESET
000315: 27,3434           00115                           DEC      77         B-14                       #  RCS ASCENT FEED VALVES SYS A-CLOSE RESET
000316: 27,3435           01440                           DEC      800        B-14                       #  DELAY 8 SECS
000317:
000318: 27,3436           05073                           TC       2LMP+DT                               #  T+11
000319: 27,3437           00276                           DEC      190        B-14                       #  RCS MAIN S/O VALVES SYS B-OPEN
000320: 27,3440           00116                           DEC      78         B-14                       #  RCS ASCENT FEED VALVES SYS B-CLOSE
000321: 27,3441           00144                           DEC      100        B-14                       #  DELAY 1 SEC
000322:
000323: 27,3442           05101                           TC       1LMP+DT                               #  T+12
000324: 27,3443           00177                           DEC      127        B-14                       #  RCS ASCENT FEED VALVE-SAFE
000325: 27,3444           00144                           DEC      100        B-14                       #  DELAY 1 SEC
000326:
000327: 27,3445           05052                           TC       2LMP                                  #  T+13
000328: 27,3446           00277                           DEC      191        B-14                       #  RCS MAIN S/O VALVES SYS B-OPEN RESET
000329: 27,3447           00117                           DEC      79         B-14                       #  RCS ASCENT FEED VALVES SYS B-CLOSE RESET
000330:
000331: 27,3450           01662                           TC       MPRETRN                               #  RETURN TO MISSION PROGRAM
000332:


000334:                                                                                                  #  COME HERE IF WE GET A RESTART AFTER THE ENGINE IS ON & ULLAGE IS OFF.  SET UP SERVICER SWITCHES TO CAUSE THE
000335:                                                                                                  #  BURN TO CONTINUE UNTIL PROPELLANT DEPLETION (UNLESS INTERRUPTED BY ENGINE FAILURE OR V74).  EXIT TO POOH AFTER
000336:                                                                                                  #  SHUTDOWN IS DETECTED.
000337:
000338: 27,3451  E4,1745                                  EBANK=   TTGO
000339:
000340: 27,3451           00006        DUMMY13            EXTEND
000341: 27,3452           33333                           DCA      SVEX13AD
000342: 27,3453           53073                           DXCH     AVGEXIT
000343:
000344: 27,3454           33262                           CAF      TCGP2OFF                              #  TO FINISH FEED TEST OR RESET (WHICH ARE
000345: 27,3455           55662                           TS       MPRETRN                               #      IN GROUP 2)
000346:
000347: 27,3456           00006                           EXTEND
000348: 27,3457           33474                           DCA      D13TRMAD
000349: 27,3460           53075                           DXCH     DVMNEXIT
000350:
000351: 27,3461           06067                           TC       FLAG1DWN                              #  TO GET SERVICER TO RETURN THRU DVMNEXIT
000352: 27,3462           00020                           OCT      00020                                 #  WHATEVER CAUSES SHUTDOWN.
000353:
000354: 27,3463           36106                           CA       PGNSCADR
000355: 27,3464           55310                           TS       DVSELECT                              #  (SHOULD BE THERE ALREADY.)
000356:
000357: 27,3465           04117                           TC       NEWMODEX                              #  DISPLAY PROGRAM 47.
000358: 27,3466           00047                           OCT      47
000359:
000360: 27,3467           37743                           CA       POSMAX                                #  DISPLAY LARGE TIME TO GO FOR DOWNLINK.
000361: 27,3470           55745                           TS       TTGO
000362: 27,3471           55746                           TS       TTGO       +1
000363:
000364: 27,3472           05727                           TC       TASKOVER
000365:
000366: 27,3473  E4,1745                                  EBANK=   TTGO
000367: 27,3473           03475 56064  D13TRMAD           2CADR    DMY13TRM
000368:
000369:
000370: 27,3475           04161        DMY13TRM           TC       PHASCHNG
000371: 27,3476           40333                           OCT      40333                                 #  3.33 IS TRMDMY13 TASK.
000372: 27,3477           00004                           INHINT
000373: 27,3500           33521                           CA       25SEC                                 #  INSURE THAT FEED ROUTINES ARE FINISHED.
000374: 27,3501           05663                           TC       WAITLIST
000375: 27,3502  E4,1745                                  EBANK=   TTGO
000376: 27,3502           03505 56064                     2CADR    TRMDMY13
000377:
000378: 27,3504           05567                           TC       ENDOFJOB
000379:
000380: 27,3505           05270        TRMDMY13           TC       IBNKCALL
000381: 27,3506           40263                           CADR     ENGINOFF
000382:
000383: 27,3507           05060                           TC       1LMP


000385: 27,3510           00207                           DEC      135        B-14                       #  ENGINE SELECT - ASCENT ARM OFF*
000386:
000387: 27,3511           04141                           TC       2PHSCHNG
000388: 27,3512           00003                           OCT      00003
000389: 27,3513           05012                           OCT      05012
000390: 27,3514           77777                           OCT      77777
000391:
000392: 27,3515           03410                           TC       FEEDREST
000393:
000394: 27,3516           06067                           TC       FLAG1DWN                              #  AVERAGE G OFF & EXIT VIA POOH.
000395: 27,3517           00001                           OCT      00001
000396:
000397: 27,3520           05727                           TC       TASKOVER
000398:
000399: 27,3521           04704        25SEC              DEC      2500       B-14

End of include-file MISSION_PHASE_13-APS2.agc.  Parent file is MAIN.agc


