
Source Code


000002:                                                                                                  ## Copyright:    Public domain.
000003:                                                                                                  ## Filename:     MISSION_PHASE_16-RCS_COLD_SOAK.agc
000004:                                                                                                  ## Purpose:      A module for revision 0 of BURST120 (Sunburst). It
000005:                                                                                                  ##               is part of the source code for the Lunar Module's
000006:                                                                                                  ##               (LM) Apollo Guidance Computer (AGC) for Apollo 5.
000007:                                                                                                  ## Assembler:    yaYUL
000008:                                                                                                  ## Contact:      Ron Burkey <info@sandroid.org>.
000009:                                                                                                  ## Website:      www.ibiblio.org/apollo/index.html
000010:                                                                                                  ## Mod history:  2016-09-30 RSB  Created draft version.
000011:                                                                                                  ##               2016-10-29 MAS  Transcribed.
000012:                                                                                                  ##               2016-12-06 RSB  Comments proofed using octopus/ProoferComments,
000013:                                                                                                  ##                               no changes made.
000014:


000016: 27,3522                                           BANK     27
000017: 27,3522  E6,1407                                  EBANK=   EDOT
000018:                                                                                                  #  PROGRAM DESCRIPTION
000019:                                                                                                  #  MOD NO- 0                                           LOG SECTION-
000020:                                                                                                  #  ******** NOTE-     MP16 NOT UP TO DATE ********
000021:                                                                                                  #                                                      RCS COLD SOAK
000022:                                                                                                  #  FUNCTIONAL DESCRIPTION-
000023:                                                                                                  #           CHANGE ATTITUDE OF SPACECRAFT TO REQUIRED
000024:                                                                                                  #           ATTITUDE FOR COLD SOAK PHASES.
000025:                                                                                                  #           ISSUE LMP COMMANDS, ETC.
000026:                                                                                                  #           ACCORDING TO GSOP.
000027:                                                                                                  #  CALLING SEQUENCE-
000028:                                                                                                  #           START MP 16 WHEN MISSION TIMER 4
000029:                                                                                                  #           COUNTS TO ZERO.
000030:                                                                                                  #  SUBROUTINES CALLED-
000031:                                                                                                  #           BANKCALL
000032:                                                                                                  #           DFI T/M CAL. ROUTINE
000033:                                                                                                  #           EXECUTIVE
000034:                                                                                                  #           LEM MISSION PROGRAMMER
000035:                                                                                                  #           KALCMANU
000036:                                                                                                  #           WAITLIST
000037:                                                                                                  #  NORMAL EXIT MODES-
000038:                                                                                                  #           TC    ENDOFJOB/TASKOVER
000039:                                                                                                  #  ALARM OR ABORT EXIT MODES-   NONE
000040:                                                                                                  #  OUTPUT- (INTERFACE, DISPLAYS, MEANINGFUL INFORMATIONLEFT IN ERASABLE).
000041:                                                                                                  #           SAME AS FOR KALCMANU EXCEPT-
000042:                                                                                                  #           BIT 13 OF DAPBOOLS IS SET TO 1 BEFORE EXIT.
000043:                                                                                                  #  ERASABLE INITIALIZATION REQUIRED-
000044:                                                                                                  #           TEPHEM   IN CENTISECONDS TRIPLE PRECISION
000045:                                                                                                  #  DEBRIS- (ERASABLE LOCATIONS DESTROYED BY THIS PROGRAM)
000046:                                                                                                  #           SAME AS FOR KALCMANU
000047:                                                                                                  #  ORIENT THE LEM TO RCS COLD SOAK ATTITUDE
000048:                                                                                                  #  (S/C X-AXIS NORMAL TO THE ECLIPTIC AND BISECTOR
000049:                                                                                                  #  OF +Z/-Y AXES TOWARD THE SUN)
000050:
000051:                                                                                                  #  START MISSION PHASE 16 WHEN MP TIMER 4 COUNTS TO ZERO
000052:
000053: 27,3522           04117        MP16JOB            TC       NEWMODEX                              #  UPDATE PROGRAM NUMBER
000054: 27,3523           00016                           OCT      16                                    #  ON DSKY
000055:
000056: 27,3524           02670                           TC       COLDSOAK                              #  CALCULATE CDU ANGLES REQUIRED
000057: 27,3525           37746                           CAF      PRIOKM                                #  SCHEDULE KALCMANU
000058: 27,3526           00004                           INHINT
000059: 27,3527           05516                           TC       FINDVAC
000060: 27,3530  E6,1407                                  EBANK=   EDOT
000061: 27,3530           02067 70066                     2CADR    KALCMAN3
000062:
000063: 27,3532           00003                           RELINT
000064: 27,3533           10067                           CCS      NEWJOB                                #  FORCE KALCMANU JOB ON
000065: 27,3534           05532                           TC       CHANG1
000066:


000068: 27,3535           05206                           TC       BANKCALL                              #  PUT JOB TO SLEEP TILL
000069: 27,3536           26743                           CADR     ATTSTALL                              #  MANEUVER COMPLETED
000070: 27,3537           13540                           NOOP                                           #  TC   BADATT-SICK RETURN- ***FIX THIS***
000071:
000072: 27,3540           33551                           CAF      DEC1000                               #  GOOD RETURN--MAN. COMPLETED
000073: 27,3541           00004                           INHINT
000074: 27,3542           05663                           TC       WAITLIST                              #  WAIT 10 SECONDS
000075: 27,3543  E6,1407                                  EBANK=   EDOT
000076: 27,3543           03552 56066                     2CADR    PHAS16A
000077:
000078: 27,3545           00003                           RELINT
000079: 27,3546           33550                           CAF      P16WAKE                               #  PUT THIS JOB
000080: 27,3547           05545                           TC       JOBSLEEP                              #  TO SLEEP
000081: 27,3550           57557        P16WAKE            CADR     PHAS16B
000082: 27,3551           01750        DEC1000            DEC      1000       B-14
000083: 27,3552           33550        PHAS16A            CAF      P16WAKE                               #  REACTIVATE THE JOB
000084: 27,3553           05551                           TC       JOBWAKE                               #  THAT WAS PUT TO SLEEP
000085: 27,3554           05270                           TC       IBNKCALL                              #  DO DFI T/M CALIBRATION ROUTINE
000086: 27,3555           56204                           CADR     DFITMCAL
000087:
000088: 27,3556           05727                           TC       TASKOVER
000089:
000090:                                                                                                  #                                          WAIT FOR COMPLETION OF CALIBRATION + 1 SECOND
000091:
000092: 27,3557           33606        PHAS16B            CAF      DEC1300                               #  13 SECONDS
000093: 27,3560           00004                           INHINT
000094: 27,3561           05663                           TC       WAITLIST
000095: 27,3562  E6,1407                                  EBANK=   EDOT
000096: 27,3562           03565 56066                     2CADR    P16MXDB
000097:
000098: 27,3564           05567                           TC       ENDOFJOB
000099: 27,3565           37747        P16MXDB            CAF      BIT13                                 #  SELECT MAX DEADBAND FOR DAP-
000100: 27,3566           26077                           ADS      DAPBOOLS                              #  SET BIT 13 OF DAPBOOLS =1
000101: 27,3567           05060                           TC       1LMP                                  #  THRUSTER ISOL VALVES PR 3A CLOSE
000102: 27,3570           00136                           DEC      94         B-14
000103: 27,3571           05060                           TC       1LMP                                  #  THRUSTER ISOL VALVES 3B CLOSE
000104: 27,3572           00156                           DEC      110        B-14
000105: 27,3573           33600                           CAF      DEC200                                #  WAIT 2 SECS
000106: 27,3574           05663                           TC       WAITLIST
000107: 27,3575  E6,1407                                  EBANK=   EDOT
000108: 27,3575           03601 56066                     2CADR    P16CLS
000109:
000110: 27,3577           05727                           TC       TASKOVER
000111: 27,3600           00310        DEC200             DEC      200        B-14
000112: 27,3601           05060        P16CLS             TC       1LMP                                  #  THRUSTER ISOL VALVES PR 3A-
000113: 27,3602           00137                           DEC      95         B-14                       #  CLOSE RESET
000114: 27,3603           05060                           TC       1LMP                                  #  THRUSTER ISOL VALVES PR 3B-
000115: 27,3604           00157                           DEC      111        B-14                       #  CLOSE RESET
000116: 27,3605           05727                           TC       TASKOVER
000117: 27,3606           02424        DEC1300            DEC      1300       B-14
000118:

End of include-file MISSION_PHASE_16-RCS_COLD_SOAK.agc.  Parent file is MAIN.agc


