
Source Code


000002:                                                                                                  ## Copyright:    Public domain.
000003:                                                                                                  ## Filename:     MISSION_PHASE_6_COAST_SIVB_ATTACHED.agc
000004:                                                                                                  ## Purpose:      A module for revision 0 of BURST120 (Sunburst). It
000005:                                                                                                  ##               is part of the source code for the Lunar Module's
000006:                                                                                                  ##               (LM) Apollo Guidance Computer (AGC) for Apollo 5.
000007:                                                                                                  ## Assembler:    yaYUL
000008:                                                                                                  ## Contact:      Ron Burkey <info@sandroid.org>.
000009:                                                                                                  ## Website:      www.ibiblio.org/apollo/index.html
000010:                                                                                                  ## Mod history:  2016-09-30 RSB  Created draft version.
000011:                                                                                                  ##               2016-10-25 MAS  Transcribed.
000012:


000014:                                                                                                  #  PROGRAM DESCRIPTION
000015:                                                                                                  #     COAST SIVB ATTACHED
000016:
000017:                                                                                                  #  MOD NO   1      DATE - 4 NOV 66
000018:
000019:                                                                                                  #  MOD BY - OVERBAUGH
000020:                                                                                                  #  FUNCTIONAL DESCRIPTION
000021:                                                                                                  #     WHEN THE DV MONITOR DETECTS SIVB SHUTDOWN THE
000022:                                                                                                  #     THRUST MISSION CONTROL PROGRAM INITIATES MP6.
000023:                                                                                                  #     DURING THIS PHASE THE ABORT COMMAND MONITOR AND
000024:                                                                                                  #     THE TUMBLE MONITOR ARE TERMINATED AND THE C-BAND
000025:                                                                                                  #     XPONDER IS SET TO ON*.  WHEN THRUST DUE TO
000026:                                                                                                  #     VENTING BECOMES NEGLIGIBLE READING OF
000027:                                                                                                  #     THE PIPAS IS TERMINATED.
000028:
000029:                                                                                                  #  NORMAL EXIT MODES -
000030:                                                                                                  #     TC   TASKOVER
000031:
000032:                                                                                                  #  ERASABLE INITIALIZATION REQUIRED
000033:                                                                                                  #     MP6TO7
000034:
000035:                                                                                                  #  OUTPUT
000036:                                                                                                  #     UPDATE MODREG
000037:                                                                                                  #     TERMINATE ABORT COMMAND MONITOR
000038:                                                                                                  #     TERMINATE TUMBLE MONITOR
000039:                                                                                                  #     MISSION SCHEDULING REGISTERS SET TO CALL MP7
000040:
000041:                                                                                                  #  DEBRIS
000042:                                                                                                  #     CENTRALS,A,Q,Z
000043:
000044:                                                                                                  #  SUBROUTINES CALLED
000045:                                                                                                  #     EXECUTIVE(ENDOFJOB)
000046:                                                                                                  #     WAITLIST
000047:                                                                                                  #     LONGCALL
000048:                                                                                                  #     NEWMODEX
000049:                                                                                                  #     1LMP
000050:                                                                                                  #     FLAG1DWN
000051:                                                                                                  #     FLAG2DWN
000052:                                                                                                  #     SCHEDULE ENTRY ROUTINE(MPENTRY)
000053:
000054: 27,2504                                           BANK     27
000055: 27,2504  E3,1772                                  EBANK=   MP6TO7
000056:
000057: 27,2504           04117        MP6JOB             TC       NEWMODEX                              #  UPDATE MODREG
000058: 27,2505           00013                           OCT      13
000059:
000060: 27,2506           36306                           CAF      SIX
000061: 27,2507           54764                           TS       PHASENUM
000062:
000063: 27,2510           04161                           TC       PHASCHNG


000065: 27,2511           47012                           OCT      47012
000066: 27,2512           13560                           DEC      6000       B-14
000067: 27,2513  E3,1772                                  EBANK=   MP6TO7
000068: 27,2513           02526 56063                     2CADR    MP6A
000069:
000070: 27,2515           37756                           CAF      BIT6
000071: 27,2516           04105                           TC       SETRSTRT                              #  SET RESTART FLAG
000072:
000073: 27,2517           32525                           CAF      DEC6000                               #  INITIALIZE 1 MIN DELAY
000074: 27,2520           00004                           INHINT
000075: 27,2521           05663                           TC       WAITLIST
000076: 27,2522  E3,1772                                  EBANK=   MP6TO7
000077: 27,2522           02526 56063                     2CADR    MP6A
000078:
000079: 27,2524           15567                           TCF      ENDOFJOB
000080: 27,2525           13560        DEC6000            DEC      6000       B-14
000081:
000082: 27,2526           06076        MP6A               TC       FLAG2DWN                              #  TERMINATE ABORT COMMAND MONITOR
000083: 27,2527           00400                           OCT      00400                                 #  BIT 9
000084:
000085:                                                                                                  #                                    TERMINATE TUMBLE MONITOR
000086:
000087: 27,2530           06067                           TC       FLAG1DWN
000088: 27,2531           20000                           OCT      20000                                 #  BIT14
000089: 27,2532           04161        MP6B               TC       PHASCHNG
000090: 27,2533           27042                           OCT      27042
000091: 27,2534           75232                           -GENADR  656SEC
000092: 27,2535  E3,1772                                  EBANK=   MP6TO7
000093: 27,2535           02547 56063                     2CADR    CBXPNDR
000094:                                                                                                  #                                    CALL C-BAND TRANSPONDER-ON*
000095:
000096: 27,2537           00006                           EXTEND
000097: 27,2540           32546                           DCA      656SEC                                #  LONGCALL 10 M 56 S
000098: 27,2541           05741                           TC       LONGCALL                              #  FOR C-BAND TRANSPONDER-ON*
000099: 27,2542  E3,1772                                  EBANK=   MP6TO7
000100: 27,2542           02547 56063                     2CADR    CBXPNDR
000101:
000102: 27,2544           15727                           TCF      TASKOVER
000103: 27,2545           00004 00100  656SEC             2DEC     65600      B-28
000104:                                                                                                  #                                    C-BAND TRANSPONDER-ON*
000105:
000106: 27,2547           05060        CBXPNDR            TC       1LMP
000107: 27,2550           00152                           DEC      106        B-14
000108:
000109: 27,2551           04141                           TC       2PHSCHNG
000110: 27,2552           00002                           OCT      00002
000111: 27,2553           05013                           OCT      05013
000112: 27,2554           77777                           OCT      77777
000113:
000114:                                                                                                  #                                    CALL SCHEDULE ENTRY ROUTINE
000115:


000117: 27,2555           05126                           TC       MPENTRY
000118: 27,2556           00001                           DEC      1          B-14                       #  J=1
000119: 27,2557           00007                           DEC      7          B-14                       #  MP=7
000120: 27,2560           01772                           ADRES    MP6TO7                                #  DT = 28 MIN
000121:
000122:                                                                                                  #                                    TERMINATE READING OF PIPAS.
000123:                                                                                                  #                                    THRUST DUE TO VENTING AFTER SIVB
000124:                                                                                                  #                                    SHUTDOWN HAS BECOME NEGLIGIBLE.
000125:
000126: 27,2561           06067                           TC       FLAG1DWN                              #  TERMINATE SERVICER
000127: 27,2562           00001                           OCT      1
000128: 27,2563           15727                           TCF      TASKOVER
000129:
000130:                                                                                                  #  END OF MISSION PHASE 6

End of include-file MISSION_PHASE_6_COAST_SIVB_ATTACHED.agc.  Parent file is MAIN.agc


