
Source Code


000002:                                                                                                  ## Copyright:   Public domain.
000003:                                                                                                  ## Filename:    MISSION_PHASE_2_GUIDANCE_REFERENCE_RELEASE_PLUS_BOOST_MONITOR.agc
000004:                                                                                                  ## Purpose:     A module for revision 0 of BURST120 (Sunburst). It
000005:                                                                                                  ##              is part of the source code for the Lunar Module's
000006:                                                                                                  ##              (LM) Apollo Guidance Computer (AGC) for Apollo 5.
000007:                                                                                                  ## Assembler:   yaYUL
000008:                                                                                                  ## Contact:     Ron Burkey <info@sandroid.org>.
000009:                                                                                                  ## Website:     www.ibiblio.org/apollo/index.html
000010:                                                                                                  ## Mod history: 2016-09-30 RSB  Created draft version.
000011:                                                                                                  ##              2016-10-23 MAS  Transcribed.
000012:                                                                                                  ##              2016-10-32 RSB  Typos.
000013:                                                                                                  ##              2016-12-06 RSB  Comments proofed using octopus/ProoferComments,
000014:                                                                                                  ##                              changes made.
000015:                                                                                                  ##              2017-06-13 RSB  Fixes identified whilst transcribing SUNBURST 37.
000016:


000018:                                                                                                  #  PROGRAM NAME - MISSION PHASE 2 GUIDANCE REFERENCE RELEASE + BOOST MONITOR.
000019:
000020:                                                                                                  #  MODIFICATION NUMBER - 1         DATE - NOVEMBER 22, 1966                MODIFICATION BY - COVELLI
000021:
000022:
000023:
000024:                                                                                                  #  FUNCTIONAL DESCRIPTION -
000025:
000026:                                                                                                  #     THE FUNCTION OF MISSION PHASE 2 IS TO CONTROL THE SEQUENCE OF EVENTS IN THE 206 FLIGHT FROM GUIDANCE
000027:                                                                                                  #  REFERENCE RELEASE THROUGH LIFTOFF TO THE SIVB BOOSTER SHUTDOWN.
000028:
000029:                                                                                                  #     AT GUIDANCE REFERENCE RELEASE, THE GRR FLAG IS SET,  PREREAD IS CALLED TO BEGIN COMPUTATION OF POSITION AND
000030:                                                                                                  #  VELOCITY, AND CALLS ARE MADE FOR DFI T/M CALIBRATION AND LIFTOFF
000031:
000032:                                                                                                  #     WHEN PRELAUNCH DETECTS THAT THE GRR FLAG IS SET, IT TERMINATES GYROCOMPASSING AND CALLS MP2JOB. MP2JOB
000033:                                                                                                  #  DISPLAYS 7 IN THE MAJOR MODE AND GOES TO MATRXJOB TO COMPUTE REFSMMAT.
000034:
000035:                                                                                                  #     AT LIFTOFF, THE LGC CLOCK IS ZEROED, CALLS ARE MADE FOR THE COLD FIRE PURGE AND POST LET JETTISON PROGRAMS.
000036:                                                                                                  #  THE MAJOR MODE IS CHANGED TO 11.
000037:
000038:                                                                                                  #     AT POST LET JETTISON, THE DV MONITOR IS ENABLED TO DETECT BOOSTER SHUTDOWN, THE ABORT COMMAND MONITOR AND THE
000039:                                                                                                  #  TUMBLE MONITOR ARE ENABLED, AND THE MAJOR MODE IS CHANGED TO 12.
000040:
000041:                                                                                                  #     THE VARIOUS LMP COMMANDS REQUIRED FOR MP2 ARE SCHEDULED BY WAITLIST CALLS.
000042:
000043:                                                                                                  #     AT DETECTION OF SIVB SHUTDOWN, AN EXECUTIVE CALL IS MADE TO MISSION PHASE 6.
000044:
000045:
000046:
000047:                                                                                                  #  CALLING SEQUENCE :
000048:
000049:                                                                                                  #     MISSION PHASE 2 IS BEGUN UPON RECEIPT OF THE GUIDANCE REFERENCE RELEASE SIGNAL (VERB 65 ENTER) VIA UPLINK.
000050:
000051:
000052:
000053:                                                                                                  #  SUBROUTINES CALLED :
000054:
000055:                                                                                                  #           PREREAD                1LMP
000056:                                                                                                  #           TUMTASK                2LMP
000057:                                                                                                  #           NEWMODEX               PHASCHNG
000058:                                                                                                  #           FINDVAC                NEWPHASE
000059:                                                                                                  #           NOVAC                  DFITMCAL
000060:                                                                                                  #           SPVAC                  IBNKCALL
000061:                                                                                                  #           WAITLIST
000062:                                                                                                  #           LONGCALL
000063:
000064:
000065:
000066:                                                                                                  #  NORMAL EXIT MODES :


000068:                                                                                                  #     EXIT TO MISSION PHASE 6 AT SIVB SHUTDOWN.
000069:
000070:
000071:
000072:                                                                                                  #  ABORT EXIT MODES :
000073:
000074:                                                                                                  #     TO MISSION PHASE 3 IF SUBORBITAL ABORT COMMAND RECEIVED VIA UPLINK.
000075:                                                                                                  #     TO MISSION PHASE 4 IF CONTINGENCY ORBIT INSERTION COMMAND RECEIVED VIA UPLINK.
000076:                                                                                                  #     TO CHARALRM IF EITHER OF THE ABOVE ABORT COMMANDS RECEIVED WHILE ABORT COMMAND MONITOR NOT ENABLED.
000077:
000078:
000079:
000080:                                                                                                  #  OUTPUT :
000081:
000082:                                                                                                  #           TGRR          TIME OF GUIDANCE REFERENCE RELEASE
000083:                                                                                                  #           TPRELTER      TIME OF GYROCOMPASSING TERMINATION
000084:                                                                                                  #           TLIFTOFF      TIME OF LIFTOFF AND LGC CLOCK ZEROING
000085:                                                                                                  #           GRR FLAG      BIT2 FLAGWRD1 SET TO INDICATE GRR SIGNAL RECEIVED
000086:                                                                                                  #           SERVICER IS GOING AT END OF MISSION PHASE 2
000087:                                                                                                  #           MAJOR MODE DISPLAYS
000088:
000089:
000090:
000091:                                                                                                  #  ERASABLE INITIALIZATION :
000092:
000093:                                                                                                  #           DT-LIFT       DELTA TIME FROM GRR TO LIFTOFF, SINGLE PRECISION SCALED AT 2(+14) CS.
000094:                                                                                                  #           DT-LETJT      DELTA TIME FROM LIFTOFF TO POST LET JETTISON, DOUBLE PRECISION SCALED AT 2(+28) CS.
000095:                                                                                                  #           RAVEGON       POSITION AT GRR IN SM CO-ORDINATES, VECTOR SCALED AT 2(+24) M.
000096:                                                                                                  #           VAVEGON       VELOCITY AT GRR IN SM CO-ORDINATES, VECTOR SCALED AT 2(+7) M/CS.
000097:
000098:                                                                                                  #  ********  ALL OF THE ERASABLE INITIALIZATION MUST BE DONE DURING THE PRE-LAUNCH ERASABLE LOAD  *****************
000099:
000100:
000101:
000102:                                                                                                  #  DEBRIS :
000103:
000104:                                                                                                  #     CENTRALS AND EXECUTIVE WORK AREA.
000105:
000106:
000107:
000108: 27,2000                                           BANK     27
000109: 27,2000  E3,1736                                  EBANK=   TGRR
000110:
000111:
000112:
000113: 27,2000           06051        GRRPLACE           TC       FLAG1UP
000114: 27,2001           00002                           OCT      2
000115: 27,2002           05567                           TC       ENDOFJOB
000116: 27,2003           35641        MP2TASK            CA       PRIO15
000117: 27,2004           05516                           TC       FINDVAC


000119: 27,2005  E3,1736                                  EBANK=   TGRR
000120: 27,2005           02056 56063                     2CADR    MP2JOB
000121:
000122: 27,2007           31742                           CA       DT-LIFT
000123: 27,2010           05663                           TC       WAITLIST                              #  SET UP CALL TO LIFTOFF PROGRAM
000124: 27,2011  E3,1736                                  EBANK=   TGRR
000125: 27,2011           02223 56063                     2CADR    LIFTOFF
000126:
000127: 27,2013           04141                           TC       2PHSCHNG
000128: 27,2014           00375                           OCT      00375                                 #  5.37 SPOT FOR MP2TASK.
000129: 27,2015           00273                           OCT      00273                                 #  3.27 SPOT TO FINISH PRELAUNCH.
000130:
000131: 27,2016           04141                           TC       2PHSCHNG
000132: 27,2017           40132                           OCT      40132                                 #  2.13 SPOT FOR LIFTOFF.
000133: 27,2020           00074                           OCT      00074                                 #  4.7 SPOT FOR MP2JOB.
000134:
000135: 27,2021           37762                           CAF      BIT2
000136: 27,2022           04105                           TC       SETRSTRT                              #  SET RESTART FLAG
000137:
000138: 27,2023           35652        SETPIPDT           CAF      PRIO31                                #  TWO SECONDS SCALED AT (CS) X 2(+8)
000139: 27,2024           54765                           TS       1/PIPADT
000140:
000141: 27,2025           32342                           CA       AVEGADRS
000142: 27,2026           55310                           TS       DVSELECT
000143:
000144: 27,2027           00006                           EXTEND
000145: 27,2030           32443                           DCA      SVEXADRS
000146: 27,2031           53073                           DXCH     AVGEXIT
000147:
000148: 27,2032           00006                           EXTEND
000149: 27,2033           32443                           DCA      SVEXADRS
000150: 27,2034           53075                           DXCH     DVMNEXIT
000151:
000152: 27,2035           35661                           CA       EBANK5
000153: 27,2036           54003                           TS       EBANK
000154: 27,2037           37751                           CA       EBANK4
000155: 27,2040           54002                           TS       Q
000156: 27,2041  E5,1561                                  EBANK=   TEMPTIME
000157: 27,2041           00006                           EXTEND                                         #  GET TEMPTIME
000158: 27,2042           31562                           DCA      TEMPTIME
000159: 27,2043           53344                           DXCH     TPRELTER
000160: 27,2044           00006                           EXTEND
000161: 27,2045           31344                           DCA      TPRELTER
000162: 27,2046           00006                           EXTEND
000163: 27,2047           22003                           QXCH     EBANK
000164: 27,2050  E4,1510                                  EBANK=   TAVEGON
000165: 27,2050           53511                           DXCH     TAVEGON                               #  STORE IN TAVEGON
000166:
000167: 27,2051  E3,1736                                  EBANK=   TGRR


000169: 27,2051           00006                           EXTEND
000170: 27,2052           32055                           DCA      BBBBBBBB
000171: 27,2053           52006                           DTCB
000172: 27,2054  E5,1511                                  EBANK=   DVCNTR
000173: 27,2054           02011 60065  BBBBBBBB           2CADR    BIBIBIAS
000174:
000175:
000176:
000177: 27,2056           06112        MP2JOB             TC       INTPRET
000178: 27,2057           71331                           SSP      DLOAD
000179: 27,2060           00765                                    PHASENUM
000180: 27,2061           00002                                    2
000181: 27,2062           01344                                    TPRELTER
000182: 27,2063           01737                           STORE    TGRR
000183: 27,2064           01312                           STORE    TEVENT                                #  FOR DOWNLINK.
000184:


000186:                                                                                                  #  PROGRAM DESCRIPTION- MATRXJOB                                           DATE: 18 JAN 1967
000187:                                                                                                  #  MOD NO: 2                                                               LOG SECTION- MP 2 GRR + BOOST MONITOR
000188:                                                                                                  #  MOD BY: MILLER, LICKLY, KERNAN                                          ASSEMBLY: SUNBURST REVISION 79
000189:
000190:                                                                                                  #  FUNCTIONAL DESCRIPTION
000191:
000192:                                                                                                  #           THIS PROGRAM CONSTRUCTS THE MATRIX WHICH RELATES THE STABLE MEMBER INERTIAL FRAME TO THE REFERENCE
000193:                                                                                                  #  FRAME (Z NORTH, X ALONG THE VERNAL EQUINOX.)
000194:
000195:                                                                                                  #           TWO INTERMEDIATE COORDINATE SYSTEMS ARE USED: A LOCAL, EARTH FIXED, VERTICAL, SOUTH, EAST SYSTEM AND AN
000196:                                                                                                  #  EARTH REFERENCE X, Y, Z SYSTEM.  IN THIS LATTER SYSTEM, THE Z AXIS IS THE EARTH'S ROTATION AXIS, THE X AXIS IS
000197:                                                                                                  #  NORMAL TO Z IN THE PLANE OF Z AND THE LOCAL VERTICAL, POSITIVE IN THE DIRECTION OF V.  Y IS Z CROSS X.
000198:
000199:                                                                                                  #           THE FIRST COMPUTATION IS OF AZGR, THE ANGLE BETWEEN THE REFERENCE INERTIAL AND EARTH REFERENCE X-Z
000200:                                                                                                  #  PLANES (THE Z AXES ARE COINCIDENT).  AZGR IS COMPUTED BY CONVERTING THE TIME FROM THE BEGINNING OF THE EPHEMERIS
000201:                                                                                                  #  YEAR TO RELEASE (TEPHEM + TPRELTER) TO REVOLUTIONS (DAYS).  THE WHOLE REVS ARE DISCARDED AND THE INITIAL ANGLE
000202:                                                                                                  #  (AZ0) BETWEEN THE GREENWICH MERIDIAN AND THE REFERENCE X-Z PLANES IS ADDED.  ADDING THE LONGITUDE YIELDS AZGR.
000203:
000204:                                                                                                  #           THE FOLLOWING COMPUTATIONS ARE THEN PERFORMED.
000205:
000206:                                                                                                  #  LOCAL VERTICAL(ER) = COS(LATITUDE), 0, SIN(LATITUDE)  IN EARTH REFERENCE
000207:
000208:                                                                                                  #  LOCAL VERTICAL(IR) = COS(LAT)COS(AZGR), COS(LAT)SIN(AZGR), SIN(LAT)  IN INERTIAL REFERENCE
000209:
000210:                                                                                                  #  LOCAL EAST(IR) = UNIT(NXV) = -SIN(AZGR), COS(AZGR), 0  IN INERTIAL REFERENCE
000211:
000212:                                                                                                  #  LOCAL SOUTH(IR) = E(IR) X V(IR)
000213:


000218:                                                                                                  #           THE RELATIONSHIP OF THE STABLE MEMBER AXES TO THE V, S, E AXES IS GIVEN BY ZSMAZ, THE ANGLE FROM NORTH
000219:                                                                                                  #  TO ZSM, AND TILT, THE ANGLE ABOUT ZSM FROM VERTICAL TO XSM.
000220:
000221:                                                                                                  #  ZSM(IR) = EAST(IR)SIN(ZSMAZ) - SOUTH(IR)COS(ZSMAZ)
000222:
000223:                                                                                                  #  YSM(IR) = (ZSM(IR) X V(IR))COS(TILT) - V(IR)SIN(TILT)
000224:
000225:                                                                                                  #  XSM(IR) = YSM(IR) X ZSM(IR)
000226:
000227:                                                                                                  #           THESE THREE HALF-UNIT VECTORS, XSM(IR), YSM(IR), AND ZSM(IR) ARE THE SM AXES EXPRESSED IN INERTIAL
000228:                                                                                                  #  REFERENCE COORDINATES AND THEY FORM REFSMMAT, THE REFERENCE TO STABLE MEMBER MATRIX.
000229:
000230:                                                                                                  #  THE INPUT (PRELAUNCH ERASABLE LOAD) REQUIREMENTS ARE:
000231:
000232:                                                                                                  #  1) TEPHEM       THE TRIPLE PRECISION TIME IN CENTISECONDS FROM MIDNIGHT JULY 1, OF THE EPHEMERIS YEAR TO
000233:                                                                                                  #  MIDNIGHT OF THE LAUNCH DAY (SIDEREAL CONVERTED TO MEAN SOLAR.)
000234:
000235:                                                                                                  #     IT IS ASSUMED THAT DURING THE LAUNCH COUNTDOWN THE LGC CLOCK (TIME2, TIME1) WILL BE ALIGNED TO REFLECT A
000236:                                                                                                  #  ZERO VALUE AT MIDNIGHT OF THE LAUNCH DAY.  IF NOT, THE DIFFERENCE MUST BE ADDED TO TEPHEM.
000237:
000238:                                                                                                  #  2) TILT         THE ROTATION OF XSM ABOUT ZSM (RIGHT HAND RULE) FROM VERTICAL IN REVOLUTIONS.
000239:


000241:                                                                                                  #  3) ZSMAZ        THE ANGLE FROM NORTH TO ZSM IN REVOLUTIONS.
000242:
000243:                                                                                                  #  THE OUTPUTS OF THIS PROGRAM ARE:
000244:
000245:                                                                                                  #  1) REFSMMAT     THE HALF-UNIT MATRIX WHICH TRANSFORMS FROM REFERENCE INERTIAL TO SM INERTIAL.
000246:
000247:                                                                                                  #  2) AZGR         THE ANGLE BETWEEN PAD 37 B VERTICAL AND THE REFERENCE X-Z PLANE IN REVOLUTIONS.
000248:
000249:                                                                                                  #  CALLING SEQUENCE : CONTINUATION OF MP2JOB
000250:                                                                                                  #  NORMAL EXIT MODE-   TC  ENDOFJOB
000251:
000252:                                                                                                  #  ALARM OR ABORT EXITS-  NONE
000253:
000254:                                                                                                  #  DEBRIS-  SPECIALS, CENTRALS AND EXECUTIVE WORK AREA.
000255:
000256: 27,2065           54345        MATRXJOB           DLOAD    SR
000257: 27,2066           01344                                    TPRELTER                              #  MAKE ALIGN STOP TIME TP.
000258: 27,2067           20617                                    14D
000259: 27,2070           47171                           TAD      RTB
000260: 27,2071           01754                                    TEPHEM                                #  TP CS FROM JULY 1 TO LAUNCH DAY.
000261: 27,2072           33541                                    TPMODE                                #  SET STORE MODE TO TRIPLE.
000262: 27,2073           00025                           STORE    20D                                   #  TP CS FROM JULY 1 TO RELEASE.
000263: 27,2074           60335                           SLOAD    NORM
000264: 27,2075           00025                                    20D
000265: 27,2076           00047                                    X1                                    #  -9 OR -10.
000266: 27,2077           47005                           DMP      RTB
000267: 27,2100           16346                                    WEARTH                                #  REVS PER 2(28)CS.
000268: 27,2101           33520                                    SGNAGREE
000269: 27,2102           65257                           SR*      PDDL
000270: 27,2103           20556                                    0          -19D,1                     #  GETS RID OF WHOLE REVS.
000271: 27,2104           00026                                    21D
000272: 27,2105           47005                           DMP      RTB
000273: 27,2106           16346                                    WEARTH
000274: 27,2107           33520                                    SGNAGREE
000275: 27,2110           43261                           SLR      DAD
000276: 27,2111           21206                                    5                                     #  DP FRACTION OF A REV.
000277: 27,2112           43215                           DAD      DAD
000278: 27,2113           01757                                    AZ0                                   #  MERIDIAN ANGLE AT JULY 1.
000279: 27,2114           01763                                    P37BLONG                              #  PAD ANGLE TO MERIDIAN.
000280: 27,2115           01746                           STORE    AZGR                                  #  VERT. AZ. AT RELEASE WRT X-Z INERTIAL.
000281:
000282: 27,2116           77756                           SIN
000283: 27,2117           15271                           STODL    REFSMMAT   +6                         #  SIN(AZGR).
000284: 27,2120           01746                                    AZGR
000285: 27,2121           77746                           COS
000286: 27,2122           14150                           STODL    MPAC       +3                         #  Y OF EAST IN INERTIAL = COS(AZGR).
000287: 27,2123           01761                                    P37BLAT                               #  LOCAL VERTICAL Z IN EARTH REF. SIN(L).
000288: 27,2124           77756                           SIN
000289: 27,2125           15267                           STODL    REFSMMAT   +4                         #  ALSO LOCAL VERT Z IN REF. INERTIAL.
000290: 27,2126           01761                                    P37BLAT
000291:


000293: 27,2127           72546                           COS      SL1                                   #  SAVES 2 SL'S LATER.
000294: 27,2130           00025                           STORE    20D                                   #  LOCAL VER. X IN EARTH REF.  COS(L).
000295: 27,2131           77605                           DMP
000296: 27,2132           00150                                    MPAC       +3
000297: 27,2133           15263                           STODL    REFSMMAT                              #  X OF VERT IN INERTIAL = COS(L)COS(AZGR).
000298: 27,2134           01271                                    REFSMMAT   +6                         #  SIN(AZGR).
000299: 27,2135           77605                           DMP
000300: 27,2136           00025                                    20D
000301: 27,2137           15265                           STODL    REFSMMAT   +2                         #  Y OF VERT IN INERTIAL = COS(L)SIN(AZGR).
000302: 27,2140           17103                                    DPZRO
000303: 27,2141           14152                           STODL    MPAC       +5                         #  Z OF EAST IN INERTIAL = 0.
000304: 27,2142           01271                                    REFSMMAT   +6                         #  SIN(AZGR).
000305: 27,2143           47076                           DCOMP    RTB                                   #  ALSO -X OF EAST IN INERTIAL.
000306: 27,2144           33516                                    VECMODE                               #  SET STORE MODE TO VECTOR.
000307: 27,2145           47206                           PUSH     VXV                                   #  INERTIAL EAST INTO PD.
000308: 27,2146           01263                                    REFSMMAT
000309: 27,2147           77656                           UNIT                                           #  INERTIAL SOUTH = UNIT(EXV).
000310: 27,2150           15277                           STODL    REFSMMAT   +12D                       #  INTO REF +12D  (TEMP).
000311: 27,2151           01752                                    ZSMAZ                                 #  ZSM WRT NORTH.
000312: 27,2152           74346                           COS      VXSC
000313: 27,2153           01277                                    REFSMMAT   +12D                       #  SOUTH(IR)COS(ZSMAZ).
000314: 27,2154           15277                           STODL    REFSMMAT   +12D                       #  INTO REF +12D  (TEMP).
000315: 27,2155           01752                                    ZSMAZ
000316: 27,2156           74356                           SIN      VXSC                                  #  EAST(IR)SIN(ZSMAZ).
000317: 27,2157           53451                           VSU      UNIT
000318: 27,2160           01277                                    REFSMMAT   +12D                       #  UNIT(ZSM) IN INERTIAL =
000319: 27,2161           01277                           STORE    REFSMMAT   +12D                       #  EAST(IR)SIN(ZSMAZ) - SOUTH(IR)COS(ZSMAZ)
000320:
000321: 27,2162           53435                           VXV      UNIT
000322: 27,2163           01263                                    REFSMMAT                              #  YREFSM(UNTILTED)= Z CROSS VERT = Y1.
000323: 27,2164           71525                           PDDL     COS                                   #  INTO PD.
000324: 27,2165           01750                                    TILT                                  #  TILT IS POS ABOUT ZSM FROM UNTILTED YSM.
000325: 27,2166           77761                           VXSC
000326: 27,2167           73525                           PDDL     SIN                                   #  (Y1)COS(T) INTO PD.
000327: 27,2170           01750                                    TILT
000328: 27,2171           51361                           VXSC     BVSU
000329: 27,2172           01263                                    REFSMMAT
000330: 27,2173           77656                           UNIT
000331: 27,2174           01271                           STORE    REFSMMAT   +6                         #  YREFSM = (Y1)COS(T) - (VERT)SIN(T).
000332:
000333: 27,2175           53435                           VXV      UNIT
000334: 27,2176           01277                                    REFSMMAT   +12D
000335: 27,2177           01263                           STORE    REFSMMAT                              #  XREFSM = Y CROSS Z.
000336: 27,2200           77776                           EXIT
000337:
000338: 27,2201           04161                           TC       PHASCHNG
000339: 27,2202           00004                           OCT      00004                                 #  DEACTIVATE GROUP 4
000340:
000341: 27,2203           05567                           TC       ENDOFJOB
000342:


000344: 27,2204           05060        DFITMCAL           TC       1LMP                                  #  MUST BE CALLED BY IBNKCALL (OR ISWCALL)
000345: 27,2205           00354                           DEC      236        B-14                       #    IN INTERRUPT OR INHIBITED
000346: 27,2206           32344                           CA       12SEC
000347: 27,2207           05663                           TC       WAITLIST                              #  CALL DFITMCL1 IN 12 SECONDS
000348: 27,2210  E3,1736                                  EBANK=   TGRR
000349: 27,2210           02213 56063                     2CADR    DFITMCL1
000350:
000351: 27,2212           15303                           TCF      ISWRETRN
000352:
000353: 27,2213           05052        DFITMCL1           TC       2LMP
000354: 27,2214           00355                           DEC      237        B-14                       #  DFI T/M CALIBRATE OFF
000355: 27,2215           00306                           DEC      198        B-14                       #  MASTER C+W ALARM RESET - COMMAND
000356: 27,2216           05701                           TC       FIXDELAY
000357: 27,2217           00310                           DEC      200        B-14                       #  DELAY 2 SECONDS
000358:
000359: 27,2220           05060        DFITMCL2           TC       1LMP
000360: 27,2221           00307                           DEC      199        B-14                       #  MASTER C+W ALARM RESET - COMMAND RESET
000361: 27,2222           15727                           TCF      TASKOVER
000362:
000363: 27,2223           04117        LIFTOFF            TC       NEWMODEX                              #  DISPLAY MAJOR MODE 11
000364: 27,2224           00011                           OCT      11
000365:
000366: 27,2225           32444                           CA       61OCT
000367: 27,2226           04246                           TC       NEWPHASE                              #  IMMEDIATE RESTART HERE
000368: 27,2227           00002                           OCT      2
000369:
000370: 27,2230           22007        REDO2.61           ZL                                             #  THIS SECTION OF CODING ZEROES THE LGC
000371: 27,2231           47746                           CS       HALF                                  #  CLOCK AND MAKES THE CORRESPONDING
000372: 27,2232           60000                           DOUBLE                                         #  CORRECTION TO TBASE5 , SO THAT READACCS
000373: 27,2233           60025                           AD       TIME1                                 #  IS NOT CALLED TOO SOON. THE NEW TBASE5
000374: 27,2234           27123                           ADS      TBASE5                                #  IS OVERFLOW CORRECTED.
000375:
000376: 27,2235           37767                           CA       ZERO
000377: 27,2236           52025                           DXCH     TIME2
000378: 27,2237           53741                           DXCH     TLIFTOFF                              #  SAVE TIME OF LIFTOFF
000379:
000380: 27,2240           32445                           CA       63OCT
000381: 27,2241           04246                           TC       NEWPHASE                              #  DO NOT REPEAT THE ABOVE
000382: 27,2242           00002                           OCT      2
000383:
000384: 27,2243           00006        REDO2.63           EXTEND
000385: 27,2244           31744                           DCA      DT-LETJT
000386: 27,2245           05741                           TC       LONGCALL
000387: 27,2246  E3,1736                                  EBANK=   TGRR
000388: 27,2246           02270 56063                     2CADR    POSTLET
000389:
000390: 27,2250           04141                           TC       2PHSCHNG
000391: 27,2251           00073                           OCT      00073                                 #  RESTART POSTLET LONGCALL GROUP 3
000392: 27,2252           25012                           OCT      25012                                 #  AND CONTINUE LIFTOFF (SET LONGBASE HERE)
000393: 27,2253           77777                           OCT      77777
000394:


000396: 27,2254           04141                           TC       2PHSCHNG
000397: 27,2255           00002                           OCT      2
000398: 27,2256           47016                           OCT      47016                                 #  PROTECT RCSPURGE.
000399: 27,2257           24404                           DEC      10500      B-14
000400: 27,2260  E3,1736                                  EBANK=   TGRR
000401: 27,2260           02264 56063                     2CADR    RCSPURGE
000402:
000403: 27,2262           05701                           TC       FIXDELAY
000404: 27,2263           24404                           DEC      10500      B-14
000405: 27,2264           32347        RCSPURGE           CA       +XJETSON
000406: 27,2265           00006                           EXTEND
000407: 27,2266           01005                           WRITE    5                                     #  TURN ON +X TRANSLATION
000408:
000409: 27,2267           15727                           TCF      TASKOVER
000410:
000411:
000412: 27,2270           40076        POSTLET            CS       FLAGWRD2                              #  ENABLE ABORT COMMAND MONITOR
000413: 27,2271           77753                           MASK     BIT9                                  #  BIT 9  FLAGWORD 2
000414: 27,2272           26076                           ADS      FLAGWRD2
000415:
000416: 27,2273           04117                           TC       NEWMODEX
000417: 27,2274           00012                           OCT      12                                    #  MAJOR MODE 12
000418:
000419: 27,2275           37763                           CA       BIT1
000420: 27,2276           05663                           TC       WAITLIST                              #  ENABLE TUMBLE MONITOR
000421: 27,2277  E6,1422                                  EBANK=   OMEGA
000422: 27,2277           02470 60066                     2CADR    TUMTASK
000423:
000424: 27,2301           04141                           TC       2PHSCHNG
000425: 27,2302           00053                           OCT      00053                                 #  RESTART TUMTASK GR 3
000426: 27,2303           47012                           OCT      47012
000427: 27,2304           01750                           DEC      1000       B-14
000428: 27,2305  E3,1736                                  EBANK=   TGRR
000429: 27,2305           02311 56063                     2CADR    MONBOOST
000430:
000431: 27,2307           05701                           TC       FIXDELAY
000432: 27,2310           01750                           DEC      1000       B-14                       #  WAIT 10 SECONDS FOR STAGING + SIVB IGN.
000433:
000434: 27,2311           32343        MONBOOST           CA       BOOSTADR                              #  MONITOR DELV FOR BOOSTER SHUTDOWN
000435: 27,2312           55310                           TS       DVSELECT
000436:
000437: 27,2313           04161                           TC       PHASCHNG
000438: 27,2314           47012                           OCT      47012
000439: 27,2315           04064                           DEC      2100       B-14
000440: 27,2316  E3,1736                                  EBANK=   TGRR
000441: 27,2316           02322 56063                     2CADR    PURGEOFF
000442:
000443: 27,2320           05701                           TC       FIXDELAY
000444: 27,2321           04064                           DEC      2100       B-14                       #  WAIT 21 SECONDS
000445:


000447: 27,2322           37767        PURGEOFF           CA       ZERO
000448: 27,2323           04246                           TC       NEWPHASE
000449: 27,2324           00006                           OCT      6
000450:
000451: 27,2325           37767                           CA       ZERO
000452: 27,2326           00006                           EXTEND
000453: 27,2327           01006                           WRITE    6
000454: 27,2330           00006                           EXTEND
000455: 27,2331           01005                           WRITE    5                                     #  TURN OFF RCS JETS
000456:
000457: 27,2332           05101                           TC       1LMP+DT
000458: 27,2333           00272                           DEC      186        B-14                       #  ECS PRIMARY WATER VALVE OPEN
000459:
000460: 27,2334           00310                           DEC      200        B-14                       #  WAIT 2 SECONDS
000461:
000462: 27,2335           05060        WATEROFF           TC       1LMP
000463: 27,2336           00273                           DEC      187        B-14                       #  ECS PRIMARY WATER VALVE - OPEN RESET
000464:
000465: 27,2337           04161                           TC       PHASCHNG
000466: 27,2340           00002                           OCT      00002                                 #  DEACTIVATE GROUP 2
000467:
000468: 27,2341           15727                           TCF      TASKOVER                              #  END OF MISSION PHASE 2
000469:
000470:
000471:
000472:                                                                                                  #  DELTA T S AND OTHER CONSTANTS FOR MP2
000473: 27,2342           02251        AVEGADRS           GENADR   AVERAGEG
000474: 27,2343           02273        BOOSTADR           GENADR   BOOSTMON
000475: 27,2344  27,2442               SVEXADRS           EQUALS   SVEXITAD
000476: 27,2344           02260        12SEC              DEC      1200       B-14
000477: 27,2345           37116 32623  WEARTH             2DEC     31.1539787 B-5                        #  REVOLUTIONS PER 2(28) CENTISECONDS.
000478:
000479: 27,2347           00252        +XJETSON           OCT      00252                                 #  BITS FOR +X TRANSLATION JETS
000480:
000481:
000482:
000483:                                                                                                  #  ABORT COMMAND MONITOR - DETECTS
000484:                                                                                                  #  SUBORBITAL ABORT AND CONTINGENCY
000485:                                                                                                  #  ORBIT INSERTION
000486:
000487: 27,2350           00004        SUBABORT           INHINT                                         #  SUBORBITAL ABORT - ZERO ABORTNDX TO
000488: 27,2351           37767                           CAF      ZERO                                  #  SET UP MISSION PHASE 3
000489: 27,2352           12355                           TCF      CONORBIT   +2
000490:
000491: 27,2353           00004        CONORBIT           INHINT                                         #  CONTINGENCY ORBIT INSERTION - ABORTNDX
000492: 27,2354           37762                           CAF      TWO                                   #  SET TO 2 TO SET UP MISSION PHASE 4
000493: 27,2355           54001                           TS       L                                     #  SAVE IN L
000494: 27,2356           40076                           CS       FLAGWRD2                              #  CHECK ABORT RECEIVED FLAG TO INSURE THAT
000495:
000496: 27,2357           77752                           MASK     BIT10                                 #  MULTIBLE TRANSMISSIONS DON'T START


000498: 27,2360           00006                           EXTEND                                         #  MULTIBLE JOBS.  SINCE MULTIBLE XMISSIONS
000499: 27,2361           15567                           BZF      ENDOFJOB                              #  ARE THE RULE, LEAVE WITH NO ALARM.
000500: 27,2362           40076                           CS       FLAGWRD2                              #  IS ABORT COMMAND MONITOR ENABLED
000501:
000502: 27,2363           77753                           MASK     BIT9
000503: 27,2364           00006                           EXTEND
000504: 27,2365           12371                           BZF      SETABORT                              #  YES.
000505:
000506: 27,2366           04755                           TC       ALARM                                 #  ABORT NOT ENABLED, SET ALARM AND EXIT.
000507: 27,2367           00300                           OCT      00300
000508: 27,2370           05567                           TC       ENDOFJOB
000509:
000510: 27,2371           00004        SETABORT           INHINT
000511: 27,2372           35352                           CA       EBANK3
000512: 27,2373           54003                           TS       EBANK
000513: 27,2374           23742                           LXCH     ABORTNDX                              #  STORE ABORTNDX
000514: 27,2375           32342                           CAF      AVEGADRS
000515: 27,2376           55310                           TS       DVSELECT                              #  TURN OFF BOOSTMON
000516: 27,2377           04141                           TC       2PHSCHNG
000517: 27,2400           00004                           OCT      00004
000518: 27,2401           00006                           OCT      00006
000519: 27,2402           04141                           TC       2PHSCHNG
000520: 27,2403           00003                           OCT      00003
000521: 27,2404           07022                           OCT      07022
000522: 27,2405           21000                           OCT      21000
000523: 27,2406  E3,1742                                  EBANK=   ABORTNDX
000524: 27,2406           02414 56063                     2CADR    TUMBL3/4
000525:
000526: 27,2410           06060                           TC       FLAG2UP
000527: 27,2411           01000                           OCT      01000                                 #  ABORT RECEIVED FLAG
000528: 27,2412           05225                           TC       POSTJUMP
000529: 27,2413           02354                           CADR     ENEMA                                 #  WIPE EVERYTHING OUT
000530:
000531:
000532:
000533: 27,2414           00004        TUMBL3/4           INHINT
000534: 27,2415           37763                           CA       BIT1
000535: 27,2416           05663                           TC       WAITLIST                              #  RE-ESTABLISH TUMBLE MONITOR
000536: 27,2417  E6,1422                                  EBANK=   OMEGA
000537: 27,2417           02470 60066                     2CADR    TUMTASK
000538:
000539: 27,2421           04141                           TC       2PHSCHNG
000540: 27,2422           00053                           OCT      00053                                 #  3.5 SPOT FOR TUMTASK
000541: 27,2423           04022                           OCT      04022                                 #  GR 2 FOR ABORT3/4
000542:
000543: 27,2424           00004        ABORT3/4           INHINT
000544: 27,2425           35651                           CAF      PRIO27
000545: 27,2426           54063                           TS       NEWPRIO                               #  SET UP MP3 OR MP4 VIA SPVAC
000546:
000547: 27,2427           00006                           EXTEND


000549: 27,2430           51742                           INDEX    ABORTNDX                              #  GET RIGHT 2CADR
000550: 27,2431           32435                           DCA      MP3-4ADR
000551: 27,2432           05526                           TC       SPVAC                                 #  SET UP ABORT JOB.
000552:
000553: 27,2433           15567                           TCF      ENDOFJOB
000554:
000555:
000556:
000557: 27,2434  E4,1566                                  EBANK=   TDEC
000558: 27,2434           02000 52064  MP3-4ADR           2CADR    MP03JOB                               #  DO NOT CHANGE THE ORDER OF THESE 2 CARDS
000559:
000560: 27,2436  E4,1566                                  EBANK=   TDEC
000561: 27,2436           02000 66064                     2CADR    MP4JOB                                #  THEY ARE IN AN INDEXED TABLE
000562:
000563: 27,2440  E4,1566                                  EBANK=   TDEC                                  #  LEFT-OVERS FROM DELETED MISSION PHASE 18
000564: 27,2440           02341 16064  MIDAVEAD           2CADR    MIDTOAVE
000565:
000566: 27,2442  E4,1566                                  EBANK=   TDEC
000567: 27,2442           02324 60064  SVEXITAD           2CADR    SERVEXIT
000568:
000569:
000570:
000571: 27,2444           00061        61OCT              OCT      61
000572: 27,2445           00063        63OCT              OCT      63
000573:


000575:                                                                                                  #  SET UP & EXECUTE JOB TO ADD VELOCITY CORRECTION TO VN:
000576:
000577: 27,2446  E5,1745                                  EBANK=   GTSWTLST
000578:
000579: 27,2446           35643        LIFTFIXT           CA       PRIO17                                #  LESS THAN PRELAUNCH OR NORMLIZE
000580: 27,2447           05516                           TC       FINDVAC
000581: 27,2450  E5,1743                                  EBANK=   OLDGT
000582: 27,2450           02453 56065                     2CADR    LIFTFIX
000583:
000584: 27,2452           05727                           TC       TASKOVER
000585:
000586:
000587:
000588: 27,2453           41307        LIFTFIX            CS       PIPTIME    +1                         #  PRELAUNCH BY NOW HAS FOUND THE GRR FLAG
000589: 27,2454           61743                           AD       OLDGT                                 #  & SUBSEQUENTLY BEEN THRU PREREAD, VIA
000590: 27,2455           00006                           EXTEND                                         #  MP2TASK.
000591: 27,2456           62461                           BZMF     +3
000592: 27,2457           67744                           AD       NEG1/2                                #  (IF TIME1 OVERFLOWED)
000593: 27,2460           67744                           AD       NEG1/2
000594: 27,2461           54147                           TS       MPAC       +3
000595:
000596: 27,2462           06112                           TC       INTPRET
000597:
000598: 27,2463           56335                           SLOAD    DDV
000599: 27,2464           00150                                    MPAC       +3
000600: 27,2465           16503                                    -1SEC214                              #  MAKE THE TIME-RATIO POSITIVE.
000601: 27,2466           63361                           VXSC     PDVL
000602: 27,2467           01025                                    GDT/2
000603: 27,2470           00404                                    DELV
000604: 27,2471           76455                           VAD      VSL1
000605: 27,2472           01765                                    DELVBUF
000606: 27,2473           53361                           VXSC     VAD
000607: 27,2474           21165                                    KPIP1
000608: 27,2475           77655                           VAD
000609: 27,2476           01017                                    VN
000610: 27,2477           01017                           STORE    VN
000611:
000612: 27,2500           77776                           EXIT
000613: 27,2501           05567                           TC       ENDOFJOB
000614:
000615:
000616:
000617: 27,2502           77633 77777  -1SEC214           2DEC     -100       B-14

End of include-file MISSION_PHASE_2_GUIDANCE_REFERENCE_RELEASE_PLUS_BOOST_MONITOR.agc.  Parent file is MAIN.agc


