
Source Code


000002:                                                                                                  ## Copyright:   Public domain.
000003:                                                                                                  ## Filename:    MP4-CONTINGENCY_ORBIT_INSERTION.agc
000004:                                                                                                  ## Purpose:     A module for revision 0 of BURST120 (Sunburst). It
000005:                                                                                                  ##              is part of the source code for the Lunar Module's
000006:                                                                                                  ##              (LM) Apollo Guidance Computer (AGC) for Apollo 5.
000007:                                                                                                  ## Assembler:   yaYUL
000008:                                                                                                  ## Contact:     Ron Burkey <info@sandroid.org>.
000009:                                                                                                  ## Website:     www.ibiblio.org/apollo/index.html
000010:                                                                                                  ## Mod history: 2016-09-30 RSB  Created draft version.
000011:                                                                                                  ##              2016-10-24 MAS  Transcribed.
000012:                                                                                                  ##              2016-10-31 RSB  Typos.
000013:                                                                                                  ##              2016-11-01 RSB  Correction for overprinted area (p. 707).
000014:                                                                                                  ##              2016-11-06 MAS  Removed workaround for overprinted area.
000015:                                                                                                  ##              2016-12-06 RSB  Comments proofed using octopus/ProoferComments,
000016:                                                                                                  ##                              changes made.
000017:


000019: 33,2000                                           BANK     33
000020:
000021: 33,2000  E4,1566                                  EBANK=   TDEC
000022:                                                                                                  #  PROGRAM NAME-                   DATE-
000023:                                                                                                  #           MISSION PHASE 4                 14 DECEMBER 1966
000024:                                                                                                  #  MOD NO- 21                      LOG SECTION-
000025:                                                                                                  #  MOD BY- SCHULENBERG                      MP4-CONTINGENCY ORBIT INSERTION
000026:
000027:                                                                                                  #  FUNCTIONAL DESCRIPTION-
000028:                                                                                                  #           CONTINGENCY ORBIT INSERTION IS CALLED BY GROUND IN EVENT OF PREMATURE SIVB SHUTDOWN AND ATTEMPTS TO
000029:                                                                                                  #  EFFECT AN ORBITAL INSERTION USING THE DPS ENGINE AND THE GUIDANCE EQUATIONS USED FOR THE APS BURNS. THE
000030:                                                                                                  #  PROGRAM LEAVES MISSION PHASE TIMERS INHIBITED AND LEAVES FURTHER CONTROLTO THE GROUND VIA UPLINK.
000031:                                                                                                  #  CALLING SEQUENCE-               SUBROUTINES CALLED-
000032:                                                                                                  #           START MP4 WHEN ABORT            FLAG1UP          FLAG1DWN
000033:                                                                                                  #  COMMAND MONITOR DETECTS MP4              FIXDELAY         WAITLIST
000034:                                                                                                  #  COMMAND VIA LGC UPLINK.                  VPATCHER         KALCMANU
000035:                                                                                                  #                                           ASCENT           UL4JETON
000036:                                                                                                  #  NORMAL EXIT MODES-                       LMP              UL4JETOF
000037:                                                                                                  #           TASKOVER (AWAITS                EXECUTIVE        ENGINEON
000038:                                                                                                  #  FURTHER COMMANDS FROM GROUND)            MIDTOAVE         ENGINOFF
000039:                                                                                                  #  ALARM EXIT MODES-                        BANKCALL         ENGINOF1
000040:                                                                                                  #           NONE                            IBNKCALL         LASTBIAS
000041:
000042:                                                                                                  #  ERASABLE INITIALIZATION REQUIRED-
000043:                                                                                                  #           RINJECT = INJECTION RADIUS DESIRED IN METERS * 2(-25)
000044:                                                                                                  #           VINJECT = ORBITAL VELOCITY DESIRED IN METERS/CENTISECOND * 2(-7
000045:
000046:                                                                                                  #  OUTPUT- SAME AS FOR KALCMANU
000047:                                                                                                  #  DEBRIS- SAME AS FOR KALCMANU
000048:
000049: 33,2000           04161        MP4JOB             TC       PHASCHNG
000050: 33,2001           05022                           OCT      05022
000051: 33,2002           27000                           OCT      27000
000052:
000053: 33,2003           37760                           CAF      BIT4
000054: 33,2004           04105                           TC       SETRSTRT                              #  SET RESTART FLAG
000055:
000056: 33,2005           06051                           TC       FLAG1UP
000057: 33,2006           00040                           OCT      00040                                 #  POOH FLAG ON
000058:
000059: 33,2007           04117                           TC       NEWMODEX                              #  START CONTINGENCY ORBIT INSERTION
000060: 33,2010           00072                           OCT      72
000061:
000062: 33,2011           37761                           CAF      FOUR                                  #  SIGNAL START OF MISSION PHASE 4
000063: 33,2012           54764                           TS       PHASENUM
000064:
000065: 33,2013           06067                           TC       FLAG1DWN                              #  TERMINATE AVEG AND DO AUTO AVETOMID
000066: 33,2014           00001                           OCT      1
000067:
000068: 33,2015           00004                           INHINT
000069:


000071: 33,2016           37763                           CAF      BIT1
000072: 33,2017           05663                           TC       WAITLIST                              #  SHORT WAITLIST TO INITIALIZE LMP COMMAND
000073: 33,2020  E4,1566                                  EBANK=   TDEC
000074: 33,2020           02023 66064                     2CADR    ABORTPRR
000075:
000076: 33,2022           15567                           TCF      ENDOFJOB                              #  END MP4JOB
000077:
000078:                                                                                                  #  RCS ABORT PRESSURIZATION ROUTINE
000079:
000080: 33,2023           37767        ABORTPRR           CAF      ZERO                                  #  INSURE RCS JETS OFF
000081: 33,2024           00006                           EXTEND
000082: 33,2025           01006                           WRITE    6
000083: 33,2026           00006                           EXTEND
000084: 33,2027           01005                           WRITE    5
000085:
000086: 33,2030           04161                           TC       PHASCHNG
000087: 33,2031           47012                           OCT      47012
000088: 33,2032           00144                           DEC      100        B-14
000089: 33,2033  E4,1566                                  EBANK=   TDEC
000090: 33,2033           02037 66064                     2CADR    OPESYS
000091:
000092: 33,2035           05701                           TC       FIXDELAY
000093: 33,2036           00144                           DEC      100        B-14                       #  DELAY ONE SECOND
000094:
000095: 33,2037           05073        OPESYS             TC       2LMP+DT
000096: 33,2040           00274                           DEC      188        B-14                       #  RCS MAIN S/O VALVES, SYS A-OPEN**
000097: 33,2041           00276                           DEC      190        B-14                       #  RCS MAIN S/O VALVES, SYS B-OPEN**
000098: 33,2042           00144                           DEC      100        B-14                       #  DELAY ONE SECOND
000099:
000100: 33,2043           05101                           TC       1LMP+DT
000101: 33,2044           00004                           DEC      4          B-14                       #  ED BATTERY ACTIVATION-ON
000102: 33,2045           00144                           DEC      100        B-14                       #  DELAY ONE SECOND
000103:
000104: 33,2046           05073                           TC       2LMP+DT
000105: 33,2047           00275                           DEC      189        B-14                       #  RCS MAIN S/O VALVES, SYS A-OPEN RESET
000106: 33,2050           00277                           DEC      191        B-14                       #  RCS MAIN S/O VALVES, SYS B-OPEN RESET
000107: 33,2051           00144                           DEC      100        B-14                       #  DELAY ONE SECOND
000108:
000109: 33,2052           05101                           TC       1LMP+DT
000110: 33,2053           00006                           DEC      6          B-14                       #  RCS PRESSURE-FIRE**
000111: 33,2054           00144                           DEC      100        B-14                       #  DELAY ONE SECOND
000112:
000113: 33,2055           05101                           TC       1LMP+DT
000114: 33,2056           00005                           DEC      5          B-14                       #  ED BATTERY ACTIVATION-SAFE
000115: 33,2057           00144                           DEC      100        B-14                       #  DELAY ONE SECOND
000116:
000117: 33,2060           05101                           TC       1LMP+DT
000118: 33,2061           00007                           DEC      7          B-14                       #  RCS PRESSURE - FIRE RESET
000119: 33,2062           00620                           DEC      400        B-14                       #  DELAY FOUR SECONDS
000120:


000122:                                                                                                  #  END RCS ABORT PRESSURIZATION ROUTINE
000123:
000124: 33,2063           30075        TUMBLCHK           CA       FLAGWRD1
000125: 33,2064           77747                           MASK     BIT13
000126: 33,2065           00006                           EXTEND
000127: 33,2066           12077                           BZF      NOTUMBL
000128:
000129: 33,2067           04161                           TC       PHASCHNG
000130: 33,2070           47012                           OCT      47012
000131: 33,2071           00062                           DEC      50         B-14
000132: 33,2072  E4,1566                                  EBANK=   TDEC
000133: 33,2072           02063 66064                     2CADR    TUMBLCHK
000134:
000135: 33,2074           05701                           TC       FIXDELAY
000136: 33,2075           00062                           DEC      50         B-14                       #  DELAY .5 SECS AND CHECK AGAIN
000137: 33,2076           12063                           TCF      TUMBLCHK
000138:
000139: 33,2077           06067        NOTUMBL            TC       FLAG1DWN                              #  IF NO TUMBLING-TERMINATE MONITOR
000140: 33,2100           20000                           OCT      20000                                 #  TERMINATE TUMBLE MONITOR
000141:
000142: 33,2101           00006        TIG4-51            EXTEND
000143: 33,2102           30025                           DCA      TIME2                                 #  GET CURRENT TIME
000144: 33,2103           53305                           DXCH     TDECTEMP
000145:
000146: 33,2104           32613                           CAF      021CEK                                #  UPDATE STATE TO TIG4-30
000147: 33,2105           54001                           TS       L
000148: 33,2106           37767                           CAF      ZERO
000149: 33,2107           21305                           DAS      TDECTEMP
000150:
000151: 33,2110           00006                           EXTEND
000152: 33,2111           31305                           DCA      TDECTEMP
000153: 33,2112           53670                           DXCH     TIGN
000154: 33,2113           32614                           CAF      030CEK
000155: 33,2114           56001                           XCH      L
000156: 33,2115           37767                           CAF      ZERO
000157: 33,2116           21670                           DAS      TIGN                                  #  FOR DOWNLINK USE - NOMINAL TIGN
000158:                                                                                                  #  BEGIN ABORT LEM/S4B SEPARATION PROCEDURE
000159:
000160: 33,2117           40075        MP4SEP             CS       FLAGWRD1
000161: 33,2120           77760                           MASK     BIT4
000162: 33,2121           26075                           ADS      FLAGWRD1
000163:
000164: 33,2122           32615                           CAF      XTRANSON                              #  +X TRANSLATION- ON (PRE-DAP)
000165: 33,2123           00006                           EXTEND
000166: 33,2124           01005                           WRITE    5
000167:
000168: 33,2125           05270                           TC       IBNKCALL                              #  +X TRANSLATION-ON (4JET)
000169: 33,2126           40062                           CADR     ULLAGE
000170:
000171: 33,2127           05101                           TC       1LMP+DT


000173: 33,2130           00072                           DEC      58         B-14                       #  LEM/SIVB SEPARATE - ARM ON
000174: 33,2131           00062                           DEC      50         B-14                       #  DELAY 500 MS.
000175:
000176: 33,2132           40077                           CS       DAPBOOLS
000177: 33,2133           77751                           MASK     GODAPGO                               #  TURN ON THE DAP
000178: 33,2134           26077                           ADS      DAPBOOLS
000179:
000180: 33,2135           05270                           TC       IBNKCALL
000181: 33,2136           40054                           CADR     SETMAXDB
000182:
000183: 33,2137           04161                           TC       PHASCHNG
000184: 33,2140           47012                           OCT      47012
000185: 33,2141           00062                           DEC      50         B-14
000186: 33,2142  E4,1566                                  EBANK=   TDEC
000187: 33,2142           02146 66064                     2CADR    MP4HOLD
000188:
000189: 33,2144           05701                           TC       FIXDELAY                              #  WAIT FOR 300 MS.
000190: 33,2145           00062                           DEC      50         B-14                       #  DELAY 500 MS.
000191:
000192: 33,2146           05270        MP4HOLD            TC       IBNKCALL
000193: 33,2147           40072                           CADR     HOLDRATE
000194:
000195: 33,2150           05101                           TC       1LMP+DT
000196: 33,2151           00132                           DEC      90         B-14                       #  LEM/SIVB SEPARATE- COMMAND
000197: 33,2152           00012                           DEC      10         B-14                       #  DELAY 100 MS.
000198:
000199: 33,2153           05270                           TC       IBNKCALL
000200: 33,2154           40046                           CADR     SETMINDB
000201:
000202: 33,2155           04161                           TC       PHASCHNG
000203: 33,2156           47012                           OCT      47012
000204: 33,2157           00132                           DEC      90         B-14
000205: 33,2160  E4,1566                                  EBANK=   TDEC
000206: 33,2160           02164 66064                     2CADR    TIG4-49
000207:
000208: 33,2162           05701                           TC       FIXDELAY
000209: 33,2163           00132                           DEC      90         B-14                       #  DELAY 900 MS.
000210:
000211: 33,2164           05101        TIG4-49            TC       1LMP+DT
000212: 33,2165           00073                           DEC      59         B-14                       #  LEM/S4B SEPARATE-ARM-OFF
000213: 33,2166           00144                           DEC      100        B-14                       #  DELAY ONE SECOND
000214:
000215: 33,2167           05060        TIG4-48            TC       1LMP
000216: 33,2170           00133                           DEC      91         B-14                       #  LEM/S4B SEPARATE-COMMAND RESET
000217:
000218:                                                                                                  #  END LEM/S4B SEPARATION ROUTINE
000219:
000220: 33,2171           32612                           CAF      007CEK
000221: 33,2172           05663                           TC       WAITLIST
000222: 33,2173  E4,1566                                  EBANK=   TDEC


000224: 33,2173           02351 66064                     2CADR    TIG4-41
000225:
000226: 33,2175           04141                           TC       2PHSCHNG
000227: 33,2176           40152                           OCT      40152                                 #  TABLES RESTART FOR TIG4-41
000228: 33,2177           05014                           OCT      05014
000229: 33,2200           77777                           OCT      77777
000230:
000231: 33,2201           35651                           CAF      PRIO27                                #  START NEW JOB FOR CALCULATIONS
000232: 33,2202           05516                           TC       FINDVAC
000233: 33,2203  E4,1566                                  EBANK=   TDEC
000234: 33,2203           02206 66064                     2CADR    LONGJOB
000235:
000236: 33,2205           15727                           TCF      TASKOVER                              #  END TIG4-48 TASK
000237:
000238: 33,2206           06112        LONGJOB            TC       INTPRET                               #  SET INTEGRSW SO THAT THE THIRD TESTLOOP
000239: 33,2207           77414                           SET      EXIT                                  #  OF MIDTOAVE WILL GENERATE IGN+28 STATES
000240: 33,2210           02072                                    INTEGRSW                              #  INSTEAD OF IGNITION STATES.
000241:
000242: 33,2211           00006                           EXTEND                                         #  RESET TDEC IN CASE OF A RESTART
000243: 33,2212           31305                           DCA      TDECTEMP
000244: 33,2213           53567                           DXCH     TDEC
000245:
000246: 33,2214           00006                           EXTEND
000247: 33,2215           32654                           DCA      ORBINTAD                              #  DO ORBITAL INTEGRATION
000248: 33,2216           52006                           DXCH     Z
000249:
000250: 33,2217           04161                           TC       PHASCHNG
000251: 33,2220           05024                           OCT      05024
000252: 33,2221           27000                           OCT      27000
000253:
000254: 33,2222           32661        PRECOI             CAF      KALC4AD
000255: 33,2223           55450                           TS       ASCRET
000256: 33,2224           06112                           TC       INTPRET
000257: 33,2225           77624                           CALL
000258: 33,2226           60436                                    VPATCHER                              #  RESCALE AND LOAD IGN STATES IN RN AND VN
000259: 33,2227           77776                           EXIT
000260:
000261: 33,2230           04161                           TC       PHASCHNG                              #  BECAUSE PAXIS1 & QAXIS TIME-SHARE
000262: 33,2231           04024                           OCT      04024                                 #  LOCATIONS WITH RN & VN.
000263:
000264: 33,2232           06112                           TC       INTPRET
000265: 33,2233           77775                           VLOAD
000266: 33,2234           01017                                    VN                                    #  VN FROM VPATCHER=VIGNTION*2(-7) M/CS
000267: 33,2235           53435                           VXV      UNIT
000268: 33,2236           01011                                    RN                                    #  RN FROM VPATCHER=RIGNTION*2(N-29) M
000269: 33,2237           26007                           STOVL    QAXIS                                 #  UNIT HORIZONTAL VECTOR NORMAL TO ORBIT
000270: 33,2240           01033                                    UNITR                                 #  UNITR FROM AVEG=UNIT(RIGNTION)*2(-1) M
000271: 33,2241           02001                           STORE    PAXIS1
000272: 33,2242           76435                           VXV      VSL1
000273: 33,2243           02007                                    QAXIS


000275: 33,2244           26015                           STOVL    SAXIS                                 #  UNIT HORIZONTAL VECTOR PARALLEL TO ORBIT
000276: 33,2245           26617                                    ABLOCK
000277: 33,2246           26023                           STOVL    AT
000278: 33,2247           26625                                    BBLOCK
000279: 33,2250           26031                           STOVL    ATMEAS
000280: 33,2251           26643                                    CBLOCK
000281: 33,2252           16041                           STODL    RDOTD                                 #  RDOTD, YDOTD.  ZDOTD FIXED LATER.
000282: 33,2253           26635                                    KR1EST
000283: 33,2254           16037                           STODL    KR1                                   #  LOAD ATTITUDE LIMITING PARAMETER
000284: 33,2255           26637                                    TGOEST
000285: 33,2256           16141                           STODL    TGO
000286: 33,2257           03572                                    VTO-DPS
000287: 33,2260           16057                           STODL    VTO                                   #  LOAD DPS TAILOFF VELOCITY FOR ASCENT
000288: 33,2261           03436                                    RINJECT
000289: 33,2262           16375                           STODL    RCO                                   #  LOAD INJECTION RADIUS FOR ASCENT
000290: 33,2263           03440                                    VINJECT
000291: 33,2264           16045                           STODL    ZDOTD                                 #  LOAD INJECTION VELOCITY FOR ASCENT
000292: 33,2265           26633                                    KREST
000293: 33,2266           02061                           STORE    KR
000294: 33,2267           77614                           CLEAR
000295: 33,2270           02267                                    DIRECT
000296: 33,2271           50375                           VLOAD    DOT
000297: 33,2272           02015                                    SAXIS
000298: 33,2273           01017                                    VN                                    #  ZDOT*2(-8)
000299: 33,2274           77752                           SL1                                            #   *2(-7)
000300: 33,2275           26105                           STOVL    ZDOT
000301: 33,2276           02001                                    PAXIS1
000302: 33,2277           72441                           DOT      SL1                                   #  RDOT*2(-8)
000303: 33,2300           01017                                    VN                                    #   *2(-7)
000304: 33,2301           16147                           STODL    RDOT
000305: 33,2302           26643                                    DP0
000306: 33,2303           02067                           STORE    YDOT                                  #  YDOT = 0
000307: 33,2304           52014                           SET      GOTO
000308: 33,2305           02066                                    BAKTO4
000309: 33,2306           64125                                    ASCENT                                #  GO TO USE GEFF SECTION OF ASCENT
000310: 33,2307           77742        GFKNOWN            SR1                                            #  LET AVG GEFF = .5 GEFF
000311: 33,2310           02111                           STORE    GEFF
000312: 33,2311           77650                           GOTO
000313: 33,2312           64404                                    GAIN
000314: 33,2313           43345        TKNOWN             DLOAD    DAD
000315: 33,2314           02041                                    RDOTD
000316: 33,2315           02147                                    RDOT                                  #  (RDOT+RDOTD)*2(-7)
000317: 33,2316           41342                           SR1      DMP                                   #   .5RDOTAVE*2(-7)
000318: 33,2317           02141                                    TGO                                   #  RGO*2(-24),SINCE TGO IS *2(-17)
000319: 33,2320           70415                           DAD      SR1                                   #  RFREE IS RCO FOR NO R-CONTROL,*2(-24)
000320: 33,2321           01047                                    RMAG                                  #   *2(-25)
000321: 33,2322           51025                           DSU      BPL
000322: 33,2323           02375                                    RCO
000323: 33,2324           66330                                    FREE-R
000324: 33,2325           52014                           CLEAR    GOTO                                  #  IF RFREE SMTHAN RCO, CONSTRAIN RCO


000326: 33,2326           02271                                    HC
000327: 33,2327           64125                                    ASCENT
000328: 33,2330           52014        FREE-R             SET      GOTO
000329: 33,2331           02071                                    HC                                    #  IF RFREE GRTHAN RCO, FREE RCO
000330: 33,2332           64125                                    ASCENT
000331: 33,2333           43175        PREKALC4           VLOAD    CLEAR
000332: 33,2334           02233                                    AXISD
000333: 33,2335           02273                                    ENGOFFSW                              #  TO AVOID MULTIPLE ENGINOFF COMMANDS
000334: 33,2336           25656                           STOVL    POINTVSM                              #  KALCMANU INPUT REGISTER
000335: 33,2337           26641                                    BODYVECT                              #  LOAD BODY AXES VECTOR IN SM COORDS
000336: 33,2340           01664                           STORE    SCAXIS                                #  KALCMANU INPUT VECTOR
000337: 33,2341           66214                           SET      SSP
000338: 33,2342           01063                                    33D
000339:
000340: 33,2343           01653                                    RATEINDX
000341: 33,2344           00006                                    6                                     #  10 DEGREE/SEC MANEUVERING RATE
000342: 33,2345           77776                           EXIT
000343:
000344: 33,2346           04161                           TC       PHASCHNG
000345: 33,2347           00004                           OCT      00004                                 #  DEACTIVATE GR 4
000346:
000347: 33,2350           15567                           TCF      ENDOFJOB                              #  END LONGJOB
000348:
000349: 33,2351           32646        TIG4-41            CAF      AVGENADR                              #  GENADR OF AVERAGEG
000350: 33,2352           55310                           TS       DVSELECT
000351:
000352: 33,2353           00006                           EXTEND
000353: 33,2354           32652                           DCA      EXITADR                               #  SET AVEG TO EXIT TO END OF JOB UNTIL
000354: 33,2355           53073                           DXCH     AVGEXIT                               #  IT IS RESET TO ATMAG
000355:
000356: 33,2356           00006                           EXTEND
000357: 33,2357           32650                           DCA      MP4TM1AD                              #  SET MONITOR EXIT
000358: 33,2360           53075                           DXCH     DVMNEXIT
000359:
000360: 33,2361           05101                           TC       1LMP+DT
000361: 33,2362           00004                           DEC      4          B-14                       #  ED BATTERY ACTIVATION-ON
000362: 33,2363           00620                           DEC      400        B-14                       #  DELAY 4 SECONDS
000363:
000364: 33,2364           05270        TIG4-37            TC       IBNKCALL                              #  +X TRANSLATION- OFF
000365: 33,2365           40066                           CADR     NOULLAGE
000366:
000367: 33,2366           05270                           TC       IBNKCALL
000368: 33,2367           40114                           CADR     STOPRATE                              #  HOLD VEHICLE ATTITUDE
000369:
000370: 33,2370           04161                           TC       PHASCHNG
000371: 33,2371           47012                           OCT      47012
000372: 33,2372           00144                           DEC      100        B-14
000373: 33,2373  E4,1566                                  EBANK=   TDEC
000374: 33,2373           02377 66064                     2CADR    TIG4-36
000375:


000377: 33,2375           05701                           TC       FIXDELAY
000378: 33,2376           00144                           DEC      100        B-14                       #  DELAY ONE SECOND
000379:
000380: 33,2377           05060        TIG4-36            TC       1LMP
000381: 33,2400           00010                           DEC      8          B-14                       #  LANDING GEAR DEPLOY-FIRE
000382:
000383: 33,2401           32606                           CAF      002CEK
000384: 33,2402           05663                           TC       WAITLIST
000385: 33,2403  E4,1566                                  EBANK=   TDEC
000386: 33,2403           02416 66064                     2CADR    TIG4-34
000387:
000388: 33,2405           04141                           TC       2PHSCHNG
000389: 33,2406           40172                           OCT      40172
000390: 33,2407           05013                           OCT      05013                                 #  GR 3 FOR KALCMANU
000391: 33,2410           77777                           OCT      77777
000392:
000393: 33,2411           35642                           CAF      PRIO16                                #  CALL KALCMANU.
000394: 33,2412           05516                           TC       FINDVAC
000395: 33,2413  E3,1535                                  EBANK=   MIS
000396: 33,2413           02001 70063                     2CADR    VECPOINT
000397:
000398: 33,2415           15727                           TCF      TASKOVER                              #  END TIG4-36 TASK
000399:
000400: 33,2416           32610        TIG4-34            CAF      004CEK                                #  SET PREREAD CALL (AUTO LASTBIAS)
000401: 33,2417           05663                           TC       WAITLIST
000402: 33,2420  E5,1506                                  EBANK=   DVTOTAL
000403: 33,2420           02000 60065                     2CADR    PREREAD
000404:
000405: 33,2422           04141                           TC       2PHSCHNG
000406: 33,2423           40275                           OCT      40275                                 #  5.27 SPOT FOR PREREAD
000407: 33,2424           05012                           OCT      05012                                 #  GR 2 CONTINUES HERE
000408: 33,2425           77777                           OCT      77777
000409:
000410: 33,2426           05101                           TC       1LMP+DT
000411: 33,2427           00011                           DEC      9          B-14                       #  LANDING GEAR DEPLOY- FIRE RESET
000412: 33,2430           00622                           DEC      402        B-14                       #  DELAY 4 SECONDS
000413:
000414: 33,2431           05270        TIG4-30            TC       IBNKCALL
000415: 33,2432           40277                           CADR     ENGINOF1
000416:
000417: 33,2433           05073                           TC       2LMP+DT
000418: 33,2434           00226                           DEC      150        B-14                       #  ENGINE SELECT- DESC ARM
000419: 33,2435           00126                           DEC      86         B-14                       #  MANUAL THROTTLE- ON 10 PERCENT
000420: 33,2436           02566                           DEC      1398       B-14                       #  DELAY 14 SECONDS
000421:
000422: 33,2437           05073        TIG4-16            TC       2LMP+DT
000423: 33,2440           00344                           DEC      228        B-14                       #  DPS PQGS ARM NO 1 - ENABLE
000424: 33,2441           00304                           DEC      196        B-14                       #  DPS PQGS ARM NO 2- ENABLE
000425: 33,2442           00144                           DEC      100        B-14
000426:


000428: 33,2443           05073        TIG4-15            TC       2LMP+DT
000429: 33,2444           00364                           DEC      244        B-14                       #  DPS PQGS NO 1- ON
000430: 33,2445           00324                           DEC      212        B-14                       #  DPS PQGS NO 2- ON
000431: 33,2446           01356                           DEC      750        B-14                       #  DELAY 7.5 SECONDS
000432:
000433: 33,2447           05270        TIG4-7.5           TC       IBNKCALL                              #  +X TRANSLATION- ON
000434: 33,2450           40062                           CADR     ULLAGE
000435:
000436: 33,2451           04161                           TC       PHASCHNG
000437: 33,2452           47012                           OCT      47012
000438: 33,2453           01356                           DEC      750        B-14
000439: 33,2454  E4,1566                                  EBANK=   TDEC
000440: 33,2454           02460 66064                     2CADR    TIG4TST
000441:
000442: 33,2456           05701                           TC       FIXDELAY
000443: 33,2457           01356                           DEC      750        B-14                       #  DELAY 7.5 SECONDS
000444:
000445: 33,2460           35643        TIG4TST            CAF      PRIO17
000446: 33,2461           05505                           TC       NOVAC
000447: 33,2462  E4,1566                                  EBANK=   TDEC
000448: 33,2462           02465 66064                     2CADR    IGNTEST
000449:
000450: 33,2464           15727                           TCF      TASKOVER
000451:
000452: 33,2465           05206        IGNTEST            TC       BANKCALL                              #  WAIT UNTIL MANEUVER IS FINISHED
000453: 33,2466           26743                           CADR     ATTSTALL
000454: 33,2467           04743                           TC       CURTAINS
000455:
000456: 33,2470           00004        MP4IGN             INHINT
000457: 33,2471           05270                           TC       IBNKCALL
000458: 33,2472           40226                           CADR     DPSENGON


000460:
000461: 33,2473           32607                           CAF      003CEK
000462: 33,2474           05663                           TC       WAITLIST
000463: 33,2475  E4,1566                                  EBANK=   TDEC
000464: 33,2475           02506 66064                     2CADR    MP4IGN+3
000465:
000466: 33,2477           04141                           TC       2PHSCHNG
000467: 33,2500           00003                           OCT      00003
000468: 33,2501           47012                           OCT      47012
000469: 33,2502           00454                           DEC      300        B-14
000470: 33,2503  E4,1566                                  EBANK=   TDEC
000471: 33,2503           02506 66064                     2CADR    MP4IGN+3
000472:
000473: 33,2505           15567                           TCF      ENDOFJOB
000474:
000475: 33,2506           05270        MP4IGN+3           TC       IBNKCALL                              #  +X TRANSLATION- OFF
000476: 33,2507           40066                           CADR     NOULLAGE
000477:
000478: 33,2510           05101                           TC       1LMP+DT


000480: 33,2511           00005                           DEC      5          B-14                       #  ED BATTERY ACTIVATION- SAFE
000481: 33,2512           04374                           DEC      2300       B-14                       #  DELAY 23 SECONDS
000482:
000483: 33,2513           37743        MAXTHRST           CAF      POSMAX                                #  CALL FOR 92.5 PERCENT THRUST
000484: 33,2514           55323                           TS       PCNTF
000485: 33,2515           00006                           EXTEND
000486: 33,2516           32656                           DCA      PCNTFMAD
000487: 33,2517           52006                           DTCB
000488:
000489: 33,2520           04141                           TC       2PHSCHNG                              #  PROTECT CALL FOR MAXIMUM THRUST
000490: 33,2521           00114                           OCT      00114
000491: 33,2522           47012                           OCT      47012
000492: 33,2523           00454                           DEC      300        B-14
000493: 33,2524  E4,1566                                  EBANK=   TDEC
000494: 33,2524           02530 66064                     2CADR    GUIDANCE
000495:
000496: 33,2526           05701                           TC       FIXDELAY
000497: 33,2527           00454                           DEC      300        B-14                       #  WAIT 3 SECS BEFORE CALLING THRUST FILTER
000498:
000499: 33,2530           00006        GUIDANCE           EXTEND                                         #  TUNE IN ASCENT GUIDANCE
000500: 33,2531           32660                           DCA      ATMAG4
000501: 33,2532           53073                           DXCH     AVGEXIT
000502:
000503: 33,2533           32662                           CAF      CDUJOBAD
000504: 33,2534           55450                           TS       ASCRET
000505:
000506: 33,2535           04161                           TC       PHASCHNG
000507: 33,2536           00002                           OCT      00002                                 #  DEACTIVATE GR 2
000508:
000509: 33,2537           15727                           TCF      TASKOVER
000510:
000511: 33,2540           00004        MP4TERM1           INHINT
000512: 33,2541           32611                           CAF      005CEK
000513: 33,2542           05663                           TC       WAITLIST
000514: 33,2543  E4,1566                                  EBANK=   TDEC
000515: 33,2543           02554 66064                     2CADR    TCO+5
000516:
000517: 33,2545           04161                           TC       PHASCHNG
000518: 33,2546           47012                           OCT      47012
000519: 33,2547           00764                           DEC      500        B-14
000520: 33,2550  E4,1566                                  EBANK=   TDEC
000521: 33,2550           02554 66064                     2CADR    TCO+5
000522:
000523: 33,2552           05225                           TC       POSTJUMP
000524: 33,2553           60324                           CADR     SERVEXIT
000525:
000526: 33,2554           05073        TCO+5              TC       2LMP+DT
000527: 33,2555           00227                           DEC      151        B-14                       #  ENGINE SELECT-DESC ARM-OFF
000528: 33,2556           00127                           DEC      87         B-14                       #  MANUAL THROTTLE-RESET (30 PERCENT)
000529: 33,2557           00144                           DEC      100        B-14                       #  DELAY ONE SECOND
000530:


000532: 33,2560           05270                           TC       IBNKCALL                              #  SET MAXIMUM DEADBAND
000533: 33,2561           40054                           CADR     SETMAXDB
000534:
000535: 33,2562           04161                           TC       PHASCHNG
000536: 33,2563           47012                           OCT      47012
000537: 33,2564           01604                           DEC      900        B-14
000538: 33,2565  E4,1566                                  EBANK=   TDEC
000539: 33,2565           02571 66064                     2CADR    TCO+15
000540:
000541: 33,2567           05701                           TC       FIXDELAY
000542: 33,2570           01604                           DEC      900        B-14                       #  DELAY NINE SECONDS
000543:
000544: 33,2571           05073        TCO+15             TC       2LMP+DT
000545: 33,2572           00365                           DEC      245        B-14                       #  DPS PQGS NO 1- OFF
000546: 33,2573           00325                           DEC      213        B-14                       #  DPS PQGS NO 2- OFF
000547: 33,2574           00144                           DEC      100        B-14
000548:
000549: 33,2575           05073                           TC       2LMP+DT
000550: 33,2576           00345                           DEC      229        B-14                       #  DPS PQGS ARM NO 1- DISABLE
000551: 33,2577           00305                           DEC      197        B-14                       #  DPS PQGS ARM NO 2- DISABLE
000552: 33,2600           02570                           DEC      1400       B-14                       #  DELAY 14 SECONDS
000553:
000554: 33,2601           06067                           TC       FLAG1DWN                              #  TERMINATE AVEG AND DO AUTO AVETOMID
000555: 33,2602           00041                           OCT      00041                                 #  ALSO KNOCK DOWN THE POOH FLAG
000556:
000557: 33,2603           04161                           TC       PHASCHNG                              #  DEACTIVATE GROUP 2
000558: 33,2604           00002                           OCT      00002
000559:
000560: 33,2605           15727                           TCF      TASKOVER
000561:
000562:                                                                                                  #  ************************************************************************
000563:                                                                                                  #  TIME INCREMENTS FOR WAITLISTS IN MP4 - XXXXXCEK = DEC XXXXX00 CS
000564:                                                                                                  #  ************************************************************************         4
000565: 33,2606           00310        002CEK             DEC      200        B-14


000568:
000569: 33,2607           00454        003CEK             DEC      300        B-14
000570:
000571: 33,2610           00620        004CEK             DEC      400        B-14
000572:
000573: 33,2611           00764        005CEK             DEC      500        B-14
000574:
000575: 33,2612           01274        007CEK             DEC      700        B-14
000576:
000577: 33,2613           04064        021CEK             DEC      2100       B-14
000578:
000579: 33,2614           05670        030CEK             DEC      3000       B-14
000580:
000581: 33,2615           00252        XTRANSON           OCT      00252                                 #  CHANNEL 5 CODE FOR 4-JET TRANSLATION
000582:


000589:                                                                                                  #  ************************************************************************                     4
000590:                                                                                                  #  CONSTANTS FOR PRECOI CALCULATIONS AND FOR INITIALIZATION OF ASCENT EO.
000591:                                                                                                  #  ************************************************************************
000592: 33,2616           05037 17610  ABLOCK             2DEC     0.30893    E-3        B+9             #  ANTICIPATED INITIAL ACCELERATION M/CS/CS
000593:
000594: 33,2620           07363 06315                     2DEC     0.2990     E+2        B-7             #  INITIAL EXHAUST VELOCITY  M/CS
000595:
000596: 33,2622           27501 20000                     2DEC     0.9678     E+5        B-17            #  ESTIMATED BURNUP TIME IN CENTISECONDS
000597:
000598: 33,2624           05202 10056  BBLOCK             2DEC     0.1642                                #  1/DV1
000599:
000600: 33,2626           05202 10056                     2DEC     0.1642                                #  1/DV2
000601:
000602: 33,2630           05202 10056                     2DEC     0.1642                                #  1/DV3
000603:
000604: 33,2632           17146 14632  KREST              2DEC     0.4750                                #  LIMITS MAXIMUM PITCH TO 72 DEGREES
000605:
000606: 33,2634           11773 02555  KR1EST             2DEC     0.3122
000607:
000608: 33,2636           06065 00000  TGOEST             2DEC     25000      B-17
000609:
000610: 33,2640           20000 00000  BODYVECT           2DEC     .5
000611:
000612: 33,2642           00000 00000  CBLOCK             2DEC     0          B-28                       #  RDOTD
000613:
000614: 33,2644           00000 00000                     2DEC     0          B-28                       #  YDOTD
000615:


000619:                                                                                                  #  ************************************************************************            4   4
000620:                                                                                                  #  GENADRS, ECADRS, AND 2CADRS USED IN MP4
000621:                                                                                                  #  ************************************************************************
000622:
000623: 33,2646           02251        AVGENADR           GENADR   AVERAGEG
000624:
000625: 33,2647  E4,1566                                  EBANK=   TDEC
000626: 33,2647           02540 66064  MP4TM1AD           2CADR    MP4TERM1
000627:
000628: 33,2651  E4,1566                                  EBANK=   TDEC
000629: 33,2651           02324 60064  EXITADR            2CADR    SERVEXIT
000630:
000631: 33,2653  E4,1400                                  EBANK=   AMEMORY
000632: 33,2653           02341 16064  ORBINTAD           2CADR    MIDTOAVE
000633:
000634: 33,2655  E5,1565                                  EBANK=   ETHROT
000635: 33,2655           03466 60065  PCNTFMAD           2CADR    PCNTFMAX
000636:
000637: 33,2657  E4,1566                                  EBANK=   TDEC
000638: 33,2657           03005 64064  ATMAG4             2CADR    ATMAG
000639:
000640: 33,2661           66333        KALC4AD            FCADR    PREKALC4
000641:


000643: 33,2662           60703        CDUJOBAD           FCADR    FINDCDUD
000644:
000645:                                                                                                  #  ************************************************************************
000646:                                                                                                  #  TASKSETR SUBROUTINE - SETS UP WAITLISTS REFERENCED TO VALUE OF TDEC
000647:                                                                                                  #  ************************************************************************
000648:


000650:
000651: 33,2663           00006        TASKSETR           EXTEND
000652: 33,2664           22061                           QXCH     ITEMP1
000653: 33,2665           54001                           TS       L
000654: 33,2666           37767                           CAF      ZERO
000655: 33,2667           52145                           DXCH     MPAC
000656: 33,2670           52064                           DXCH     ITEMP3
000657: 33,2671           37767                           CAF      ZERO
000658: 33,2672           56146                           XCH      MPAC       +2
000659: 33,2673           54065                           TS       ITEMP5
000660: 33,2674           00006                           EXTEND
000661: 33,2675           40025                           DCS      TIME2
000662: 33,2676           20145                           DAS      MPAC
000663: 33,2677           37751                           CAF      EBANK4
000664: 33,2700           56003                           XCH      EBANK
000665: 33,2701           54062                           TS       ITEMP2
000666: 33,2702           00006                           EXTEND
000667: 33,2703           31567                           DCA      TDEC
000668: 33,2704           20145                           DAS      MPAC
000669: 33,2705           07327                           TC       TPAGREE
000670: 33,2706           30065                           CA       ITEMP5
000671: 33,2707           54146                           TS       MPAC       +2
000672: 33,2710           52064                           DXCH     ITEMP3
000673: 33,2711           52145                           DXCH     MPAC
000674: 33,2712           00006                           EXTEND
000675: 33,2713           12716                           BZF      +3
000676: 33,2714           06000                           TC       ABORT
000677: 33,2715           00404                           OCT      00404
000678: 33,2716           56001                           XCH      L
000679: 33,2717           00006                           EXTEND
000680: 33,2720           62714                           BZMF     -4
000681: 33,2721           22062                           LXCH     ITEMP2
000682: 33,2722           22003                           LXCH     EBANK
000683: 33,2723           00061                           TC       ITEMP1
000684:                                                                                                  #  ************************************************************************              4

End of include-file MP4-CONTINGENCY_ORBIT_INSERTION.agc.  Parent file is MAIN.agc


