
Source Code


000002:                                                                                                  ## Copyright:    Public domain.
000003:                                                                                                  ## Filename:     MP9-DPS_1_BURN.agc
000004:                                                                                                  ## Purpose:      A module for revision 0 of BURST120 (Sunburst). It
000005:                                                                                                  ##               is part of the source code for the Lunar Module's
000006:                                                                                                  ##               (LM) Apollo Guidance Computer (AGC) for Apollo 5.
000007:                                                                                                  ## Assembler:    yaYUL
000008:                                                                                                  ## Contact:      Ron Burkey <info@sandroid.org>.
000009:                                                                                                  ## Website:      www.ibiblio.org/apollo/index.html
000010:                                                                                                  ## Mod history:  2016-09-30 RSB  Created draft version.
000011:                                                                                                  ##               2016-10-28 MAS  Transcribed.
000012:                                                                                                  ##               2016-11-01 RSB  Typos.
000013:                                                                                                  ##               2016-12-06 RSB  Comments proofed using octopus/ProoferComments,
000014:                                                                                                  ##                               changes made.
000015:


000017:                                                                                                  #  MISSION PHASE 9
000018:
000019: 33,2724                                           BANK     33
000020: 33,2724  E4,1566                                  EBANK=   TDEC
000021:                                                                                                  #  PROGRAM DESCRIPTION-MISSION PHASE9-DPS1 BURN                            DATE-28 OCT 66
000022:                                                                                                  #  MOD NO-2                                                                LOG SECTION-MP9
000023:                                                                                                  #  MOD BY- CHO                                                             ASSEMBLY-SUNBURST REV24
000024:
000025:                                                                                                  #  FUNCTIONAL DESCRIPTION
000026:                                                                                                  #          THIS PHASE IS STARTED 3HOUR 1MIN AND 49SECS AFTER THE TERMINATI ON OF SIVB/LEM SEPARATION +X TRANSLATI
000027:                                                                                                  #  ON AND BY THE INITIATION OF PROGRAM 31 (PRE-DPS1 BURN). PROGRAM 31      CALLS FOR DPS CUTOFF TDI 5MIN AND
000028:                                                                                                  #  15SECS LATER. IN ORDER TO ALIGN THE VEHICLE THRUST AXIS ALONG THE DESIRED ACCELERATION VECTOR DURING PRE-DPS1
000029:                                                                                                  #  PHASE, THE FOLLOWING COMPUTATIONS ARE MADE - VEHICLE STATE VECTOR FORWARD INTEGRATION TO THE DESCENT
000030:                                                                                                  #  INJECTION CUTOFF TIME TDI, VELOCITY TO BE GAINED VG, THE MANEUVER THRUST TIME TTHRUST, DPS1 IGNITION TIME TIGN
000031:                                                                                                  #  AND FINALLY DESIRED THRUST DIRECTION UNITVG. PROGRAM 31 ALSO COMMANDS LANDING GEAR DEPLOYMENT AND CALL FOR
000032:                                                                                                  #  A MANEUVER TO THE FIRING ATTITUDE.
000033:                                                                                                  #          PROGRAM 41, DPS1 BURN IS STARTED 36SECS BEFORE IGNITION. THIS PROGRAM ARMS THE DESCENT ENGINE,
000034:                                                                                                  #  COMMANDS +X TRANSLATION AND COMMANDS ENGINE ON. DURING THE BURN, THE VELOCITY TO BE GAINED  AND TIME TO
000035:                                                                                                  #  CUTOFF TGO ARE COMPUTED EVERY TWO SECONDS. WHEN TGO FALLS BELOW THE CRITICAL VALUE ENGINE OFF SIGNAL COUNTER
000036:                                                                                                  #  IS SET. WHEN POST ENGINE CUTOFF ROUTINE IS PERFORMED, MPENTRY NO.1 IS SET TO START MP11 IN 31MIN 11SECS.
000037:
000038:                                                                                                  #  CALLING SEQUENCE- AFTER THE TERMINATION OF SIVB/LEM SEPARATION +X TRANSLATION AND BY THE INITIATION OF
000039:                                                                                                  #  PROGRAM 31.
000040:
000041:                                                                                                  #  NORMAL EXIT MODES- TASKOVER (AWAITS MPENTRY INTO MP11 VIA NO.1)
000042:
000043:                                                                                                  #  ALARM EXIT MODE- NONE
000044:
000045:                                                                                                  #  SUBROUTINES CALLED- FIXDELAY, 1LMP, 2LMP, EXECUTIVE, MIDTOAVE, BANKCALL, IBNKCALL, WAITLIST, KALCMANU,
000046:                                                                                                  #  UL4JETON, UL4JETOFF, ENGINEON, ENGINOFF, NEWMODEX, DFITCAL, RVUPDADR, TPAGREE, TASKOVER, ENDOFJOB, ENGOF1
000047:
000048:
000049:                                                                                                  #  INPUT- RN, VN, RP, MUEARTH, TDI
000050:
000051:                                                                                                  #  OUTPUT- VG, TTHRUST, TIGN, UNITVG, TGO
000052:
000053:                                                                                                  #  ERASABLE INITIALIZATION REQUIRED-
000054:
000055:                                                                                                  #  DEBRIS- TDEC
000056:
000057: 33,2724           37753        MP9JOB             CAF      BIT9
000058: 33,2725           04105                           TC       SETRSTRT                              #  SET RESTART FLAG
000059:
000060: 33,2726           04117                           TC       NEWMODEX                              #  DISPLAY PROG. NO.
000061: 33,2727           00031                           OCTAL    31
000062:
000063: 33,2730  E4,1566                                  EBANK=   TDEC
000064: 33,2730           00006                           EXTEND
000065: 33,2731           30025                           DCA      TIME2                                 #  PICK UP CURRENT TIME
000066: 33,2732           53666                           DXCH     TDI
000067:


000069: 33,2733           00006                           EXTEND
000070: 33,2734           33502                           DCA      5M15S
000071: 33,2735           21666                           DAS      TDI                                   #  SET TDI=TIME2+5M15S
000072:
000073: 33,2736           33465                           CAF      EQU2ADR                               #  SET COMPUTATIINAL STEPS
000074: 33,2737           55662                           TS       SHJUMP1
000075:
000076: 33,2740           04161                           TC       PHASCHNG
000077: 33,2741           05022                           OCT      05022
000078: 33,2742           20000                           OCT      20000
000079:
000080: 33,2743           00006                           EXTEND
000081: 33,2744           31666                           DCA      TDI
000082: 33,2745           53567                           DXCH     TDEC
000083: 33,2746           00006                           EXTEND
000084: 33,2747           33474                           DCA      RVUPDADR                              #  STATE VECTOR UPDATE FOR PRE-DPS1 BURN
000085: 33,2750           52006                           DXCH     Z
000086:
000087: 33,2751           04161                           TC       PHASCHNG
000088: 33,2752           04022                           OCT      04022
000089:
000090: 33,2753           06112                           TC       INTPRET
000091: 33,2754           77624                           CALL
000092: 33,2755           60436                                    VPATCHER                              #  RESCALE AND LOAD TDI STATES IN RN AN VN
000093: 33,2756           77650                           GOTO
000094: 33,2757           67420                                    DPS1EQU1   +1                         #  COMPUTES VELOCITY TO BE GAINED.
000095:
000096: 33,2760           77745        DPS1EQU2           DLOAD                                          #  COMPUTES MANEUVER THRUST TIME
000097: 33,2761           00045                                    LV                                    #  ABVAL(VG)
000098: 33,2762           45261                           SR       DSU
000099: 33,2763           20613                                    10D                                   #  NOW VG SCALED AT 2(+17)M/CS
000100: 33,2764           27504                                    DPA
000101: 33,2765           43271                           DDV      DAD
000102: 33,2766           27506                                    DPB
000103: 33,2767           27510                                    DPC
000104: 33,2770           26264                           STOVL    TTHRUST                               #  SCALED AT 2(+28)CS
000105: 33,2771           02272                                    UNITVG
000106: 33,2772           25656                           STOVL    POINTVSM                              #  KALCMANU INPUT REGISTER
000107: 33,2773           26641                                    BODYVECT                              #  LOAD BODY AXES VECTOR IN SM COORD.
000108: 33,2774           01664                           STORE    SCAXIS                                #  KALCMANU INPUT VECTOR
000109: 33,2775           66214                           SET      SSP
000110: 33,2776           01063                                    33D
000111: 33,2777           01653                                    RATEINDX
000112: 33,3000           00004                                    4                                     #  SET KALCMANU FOR ANGULAR RATE OF 5DEG/S
000113: 33,3001           77776                           EXIT
000114:
000115: 33,3002           04161                           TC       PHASCHNG
000116: 33,3003           04022                           OCT      04022
000117:
000118: 33,3004           00004                           INHINT
000119:


000121: 33,3005           00006                           EXTEND
000122: 33,3006           41664                           DCS      TTHRUST                               #  COMPUTES TIGN
000123: 33,3007           53670                           DXCH     TIGN
000124:
000125: 33,3010           00006                           EXTEND
000126: 33,3011           31666                           DCA      TDI
000127: 33,3012           21670                           DAS      TIGN                                  #  TIGN=TDI-TTHRUST  (SCALED AT 2(+28)CS)
000128: 33,3013           33466                           CAF      EQU3ADR
000129: 33,3014           55662                           TS       SHJUMP1
000130:
000131: 33,3015           33521                           CAF      70SECS9                               #  CALL POSTKALC 70 SECS LATER
000132: 33,3016           05663                           TC       WAITLIST
000133: 33,3017  E4,1566                                  EBANK=   TDEC
000134: 33,3017           03036 66064                     2CADR    POSTKALC
000135:
000136: 33,3021           04161                           TC       PHASCHNG
000137: 33,3022           40042                           OCT      40042
000138:
000139: 33,3023           00004        CALLKALC           INHINT
000140: 33,3024           35642                           CAF      PRIO16                                #  CALL KALCMANU JOB.
000141: 33,3025           05516                           TC       FINDVAC
000142: 33,3026  E3,1535                                  EBANK=   MIS
000143: 33,3026           02001 70063                     2CADR    VECPOINT
000144:
000145: 33,3030           05206                           TC       BANKCALL
000146: 33,3031           26743                           CADR     ATTSTALL                              #  SEE IF KALCMANU FINISHED
000147: 33,3032           04743        CURT9              TC       CURTAINS                              #  UNFINISHED MANEUVER
000148:
000149: 33,3033           04161                           TC       PHASCHNG
000150: 33,3034           00432                           OCT      00432                                 #  2.43 FOR POSTKALC.  DON'T RESET TBASE.
000151:
000152: 33,3035           15567                           TCF      ENDOFJOB                              #  GOOD RETURN- END MP9JOB
000153:
000154: 33,3036           40076        POSTKALC           CS       FLAGWRD2                              #  CHECK WHETHER KALCMANU IS FINISHED.
000155: 33,3037           77751                           MASK     BIT11
000156: 33,3040           10000                           CCS      A
000157:
000158: 33,3041           03047                           TC       GOODKALC                              #  GOOD RETURN
000159:
000160: 33,3042           35660                           CAF      PRIO37                                #  BAD RETURN
000161: 33,3043           05516                           TC       FINDVAC
000162: 33,3044  E4,1566                                  EBANK=   TDEC
000163: 33,3044           03032 66064                     2CADR    CURT9
000164:
000165: 33,3046           05727                           TC       TASKOVER                              #  END POSTKALC TASK
000166:
000167: 33,3047           05101        GOODKALC           TC       1LMP+DT
000168: 33,3050           00354                           DEC      236        B-14                       #  DFI T/M CALIBRATE - ON *
000169: 33,3051           02260                           DEC      1200       B-14
000170:


000172: 33,3052           05073                           TC       2LMP+DT
000173: 33,3053           00355                           DEC      237        B-14                       #  DFI T/M CALIBRATE - OFF *
000174: 33,3054           00306                           DEC      198        B-14                       #  MASTER C&W ALARM RESET - COMMAND **
000175: 33,3055           00310                           DEC      200        B-14
000176:
000177: 33,3056           05101                           TC       1LMP+DT
000178: 33,3057           00307                           DEC      199        B-14                       #  MASTER C&W ALARM RESET - COMMAND RESET
000179: 33,3060           00001                           DEC      1          B-14
000180:
000181: 33,3061           00006                           EXTEND                                         #  CALL DPS1 BURN PROG. AT TIGN-36SECS.
000182: 33,3062           40025                           DCS      TIME2
000183: 33,3063           52062                           DXCH     ITEMP1
000184: 33,3064           00006                           EXTEND
000185: 33,3065           31670                           DCA      TIGN
000186: 33,3066           20062                           DAS      ITEMP1
000187: 33,3067           00006                           EXTEND
000188: 33,3070           43500                           DCS      66SECSD9
000189: 33,3071           20062                           DAS      ITEMP1
000190: 33,3072           00006                           EXTEND
000191: 33,3073           30062                           DCA      ITEMP1
000192: 33,3074           53305                           DXCH     TDECTEMP                              #  FOR RESTARTS.
000193: 33,3075           52062                           DXCH     ITEMP1
000194:
000195: 33,3076           05741                           TC       LONGCALL
000196: 33,3077  E4,1566                                  EBANK=   TDEC
000197: 33,3077           03134 66064                     2CADR    TIG9-66
000198:
000199: 33,3101           04161                           TC       PHASCHNG
000200: 33,3102           20134                           OCT      20134                                 #  4.13 FOR TIG9-66 LONGCALL.
000201:
000202: 33,3103           33520                           CAF      11SECS9
000203: 33,3104           05663                           TC       WAITLIST
000204: 33,3105  E4,1566                                  EBANK=   TDEC
000205: 33,3105           03112 66064                     2CADR    182LMP
000206:
000207: 33,3107           04161                           TC       PHASCHNG
000208: 33,3110           40452                           OCT      40452                                 #  2.45 FOR 182LMP TASK.
000209:
000210: 33,3111           15727                           TCF      TASKOVER                              #  END GOODKALC TASK
000211:
000212: 33,3112           05073        182LMP             TC       2LMP+DT
000213: 33,3113           00266                           DEC      182        B-14                       #  LANDING RADAR POWER ON
000214: 33,3114           00032                           DEC      26         B-14                       #  RADAR SELF TEST-ON
000215: 33,3115           11444                           DEC      4900       B-14
000216:
000217: 33,3116           05101                           TC       1LMP+DT
000218: 33,3117           00004                           DEC      4          B-14                       #  ED BATTERY ACTIVATION -ON
000219: 33,3120           00764                           DEC      500        B-14
000220:
000221: 33,3121           05101                           TC       1LMP+DT


000223: 33,3122           00010                           DEC      8          B-14                       #  LANDING GEAR DEPLOY -FIRE
000224: 33,3123           00310                           DEC      200        B-14
000225:
000226: 33,3124           05101                           TC       1LMP+DT
000227: 33,3125           00011                           DEC      9          B-14                       #  LANDING GEAR DEPLOY- FIRE RESET
000228: 33,3126           00620                           DEC      400        B-14
000229:
000230: 33,3127           05060                           TC       1LMP
000231: 33,3130           00033                           DEC      27         B-14                       #  RADAR SELF-TEST - OFF.
000232:
000233: 33,3131           04161                           TC       PHASCHNG
000234: 33,3132           00002                           OCT      00002                                 #  GROUP 2 OFF.
000235:
000236: 33,3133           05727                           TC       TASKOVER                              #  END 182LMP TASK
000237:
000238: 33,3134           04117        TIG9-66            TC       NEWMODEX                              #  DISPLAY PROGRAM NUMBER ON DSKY
000239: 33,3135           00041                           OCT      41
000240:
000241: 33,3136           05270                           TC       IBNKCALL
000242: 33,3137           40277                           CADR     ENGINOF1
000243:
000244: 33,3140           05052                           TC       2LMP
000245: 33,3141           00226                           DEC      150        B-14                       #  ENGINE SELECT DESC ARM
000246: 33,3142           00126                           DEC      86         B-14                       #  MANUAL THROTTLE ON (10PERCENT)
000247:
000248: 33,3143           33516                           CAF      50SECS9
000249: 33,3144           05663                           TC       WAITLIST
000250: 33,3145  E4,1566                                  EBANK=   TDEC
000251: 33,3145           03450 66064                     2CADR    228LMP
000252:
000253: 33,3147           35651                           CAF      PRIO27
000254: 33,3150           05516                           TC       FINDVAC
000255: 33,3151  E4,1566                                  EBANK=   TDEC
000256: 33,3151           03157 66064                     2CADR    ORBINTJB
000257:
000258: 33,3153           04141                           TC       2PHSCHNG
000259: 33,3154           40472                           OCT      40472                                 #  2.47 FOR 228LMP TASK.
000260: 33,3155           00154                           OCT      00154                                 #  4.15 FOR ORBINTJB JOB.
000261:
000262: 33,3156           15727                           TCF      TASKOVER                              #  END TIG9-66 TASK
000263:
000264: 33,3157           00006        ORBINTJB           EXTEND
000265: 33,3160           31670                           DCA      TIGN
000266: 33,3161           53567                           DXCH     TDEC
000267: 33,3162           43517                           CS       30SECS9
000268: 33,3163           54001                           TS       L
000269: 33,3164           47767                           CS       ZERO
000270: 33,3165           21567                           DAS      TDEC                                  #  TDEC NOW CONTAINS TIGN-30 SECS.
000271:
000272: 33,3166           00006                           EXTEND


000274: 33,3167           32654                           DCA      ORBINTAD
000275: 33,3170           52006                           DXCH     Z
000276:
000277: 33,3171           04161                           TC       PHASCHNG
000278: 33,3172           05024                           OCT      05024
000279: 33,3173           27000                           OCT      27000
000280:
000281:                                                                                                  #  RN AND VN IN STABLE MEMBER COORDINATES. SCALING IS AS IN AVEG.
000282:
000283:                                                                                                  #           DELETE
000284: 33,3174           32646                           CAF      AVGENADR
000285: 33,3175           55310                           TS       DVSELECT                              #  SELECT AGS MONITOR
000286:
000287: 33,3176           00006                           EXTEND
000288: 33,3177           32652                           DCA      EXITADR
000289: 33,3200           53073                           DXCH     AVGEXIT                               #  SET AVERAGEG EXIT
000290:
000291: 33,3201           00006                           EXTEND
000292: 33,3202           33472                           DCA      MP9TM1AD
000293: 33,3203           53075                           DXCH     DVMNEXIT                              #  SET MONITOR EXIT
000294:
000295: 33,3204           00004                           INHINT
000296: 33,3205           43517                           CS       30SECS9                               #  CALL PREREAD AT TIGN-30SECS.
000297: 33,3206           02663                           TC       TASKSETR
000298: 33,3207           55342                           TS       RSDTTEMP                              #  FOR RESTARTS.
000299: 33,3210           05663                           TC       WAITLIST
000300: 33,3211  E5,1506                                  EBANK=   DVTOTAL
000301: 33,3211           02000 60065                     2CADR    PREREAD
000302:
000303: 33,3213           04141                           TC       2PHSCHNG
000304: 33,3214           40355                           OCT      40355                                 #  5.35 FOR PREREAD.
000305: 33,3215           04024                           OCT      04024
000306:
000307: 33,3216           00004                           INHINT
000308: 33,3217           47767                           CS       ZERO                                  #  CALL TVC FOR DPS1 AT IGNITION TIME
000309: 33,3220           02663                           TC       TASKSETR
000310: 33,3221           55305                           TS       TDECTEMP   +1                         #  FOR RESTARTS.
000311: 33,3222           05663                           TC       WAITLIST
000312: 33,3223     1072                                  EBANK=   AVGEXIT
000313: 33,3223           03230 66062                     2CADR    TIG9-0
000314:
000315: 33,3225           04161                           TC       PHASCHNG
000316: 33,3226           40174                           OCT      40174                                 #  4.17 FOR TIG9-0.
000317:
000318: 33,3227           15567                           TCF      ENDOFJOB                              #  END ORBITAL INTEGRATION JOB
000319:
000320: 33,3230           00006        TIG9-0             EXTEND
000321: 33,3231           33470                           DCA      EQU1ADR
000322: 33,3232           53073                           DXCH     AVGEXIT                               #  AVG ROUTINE GOES TO VG COMPUTATION
000323:


000325: 33,3233           05270                           TC       IBNKCALL
000326: 33,3234           40226                           CADR     DPSENGON


000328:
000329: 33,3235           04141                           TC       2PHSCHNG
000330: 33,3236           00004                           OCT      00004
000331: 33,3237           40512                           OCT      40512                                 #  2.51 FOR 9ULLOFF TASK.
000332:
000333: 33,3240           05701                           TC       FIXDELAY
000334: 33,3241           00062                           DEC      50         B-14
000335:
000336: 33,3242           05270        9ULLOFF            TC       IBNKCALL
000337: 33,3243           40066                           CADR     NOULLAGE                              #  +X TRANSLATION-  OFF
000338:
000339: 33,3244           04161                           TC       PHASCHNG
000340: 33,3245           40532                           OCT      40532                                 #  2.53 FOR 9EDBATT.
000341:
000342: 33,3246           05701                           TC       FIXDELAY
000343: 33,3247           00372                           DEC      250        B-14
000344:
000345: 33,3250           05101        9EDBATT            TC       1LMP+DT
000346: 33,3251           00005                           DEC      5          B-14                       #  ED BATTERY ACTIVATION-SAFE
000347: 33,3252           04374                           DEC      2300       B-14
000348:
000349: 33,3253           04141                           TC       2PHSCHNG
000350: 33,3254           00002                           OCT      2
000351: 33,3255           05014                           OCT      05014                                 #  THROTTLE PROGRAM TAKES OVER GP 4.
000352: 33,3256           77777                           OCT      77777
000353:
000354: 33,3257           37743                           CAF      POSMAX                                #  CALL FOR MAXIMUM THRUST.
000355: 33,3260           55323                           TS       PCNTF
000356: 33,3261           00006                           EXTEND
000357: 33,3262           32656                           DCA      PCNTFMAD
000358: 33,3263           52006                           DTCB
000359:
000360: 33,3264           15727                           TCF      TASKOVER                              #  END TIG9-0 TASK
000361:
000362: 33,3265           77624        DPS1EQU3           CALL
000363: 33,3266           67277                                    CALCTGO
000364: 33,3267           77775                           VLOAD
000365: 33,3270           02272                                    UNITVG
000366: 33,3271           02233                           STORE    AXISD                                 #  FINDCDUD INPUT
000367: 33,3272           77624                           CALL
000368: 33,3273           60703                                    FINDCDUD
000369:
000370: 33,3274           77776                           EXIT
000371: 33,3275           05225                           TC       POSTJUMP
000372: 33,3276           60324                           CADR     SERVEXIT
000373:
000374: 33,3277           45345        CALCTGO            DLOAD    DSU
000375: 33,3300           00045                                    LV                                    #  ABVAL(VG)


000377: 33,3301           03574                                    VTAILOFF
000378: 33,3302           56205                           DMP      DDV
000379: 33,3303           27512                                    DELTAT9
000380: 33,3304           02535                                    ABDELV
000381: 33,3305           02346                           STORE    TTGO                                  #  FOR DWLK ONLY
000382:
000383: 33,3306           44234                           RTB      BDSU
000384: 33,3307           33454                                    LOADTIME
000385: 33,3310           01307                                    PIPTIME
000386: 33,3311           47015                           DAD      RTB
000387: 33,3312           02346                                    TTGO
000388: 33,3313           33520                                    SGNAGREE
000389: 33,3314           02141                           STORE    TGO
000390:
000391: 33,3315           51025                           DSU      BPL
000392: 33,3316           27476                                    4SECSD9
000393: 33,3317           00052                                    QPRET
000394: 33,3320           77776                           EXIT
000395:
000396: 33,3321           00004                           INHINT
000397: 33,3322           31541                           CAE      TGO        +1
000398: 33,3323           00006                           EXTEND
000399: 33,3324           63347                           BZMF     CUTOFF2                               #  CUT OFF ENGINE IMMEDIATELY IF TGO NEG
000400: 33,3325           55304        CUTOFF1            TS       TDECTEMP                              #  FOR RESTARTS.
000401: 33,3326           05663                           TC       WAITLIST
000402: 33,3327     0766                                  EBANK=   CDUXD
000403: 33,3327           03340 66061                     2CADR    CUTOFF
000404:
000405: 33,3331           00006                           EXTEND                                         #  STOPS GUIDANCE EQUATION LOOP
000406: 33,3332           32652                           DCA      EXITADR
000407: 33,3333           53073                           DXCH     AVGEXIT
000408:
000409: 33,3334           04141                           TC       2PHSCHNG
000410: 33,3335           40552                           OCT      40552                                 #  2.55 FOR CUTOFF TASK.
000411: 33,3336           00035                           OCT      00035                                 #  5.3 FOR SERVICER.
000412:
000413: 33,3337           15567                           TCF      ENDOFJOB                              #  END DPS1 BURN EQUATION JOB
000414:
000415: 33,3340           05270        CUTOFF             TC       IBNKCALL
000416: 33,3341           40263                           CADR     ENGINOFF
000417:
000418: 33,3342           05270                           TC       IBNKCALL
000419: 33,3343           40114                           CADR     STOPRATE                              #  HOLD VEHICLE ATTITUDE
000420:
000421: 33,3344           04161                           TC       PHASCHNG
000422: 33,3345           00002                           OCT      2                                     #  2 OFF.  SERVICER TO RETURN TO MP9TERM1.
000423:
000424: 33,3346           15727                           TCF      TASKOVER                              #  END CUTOFF TASK
000425:
000426: 33,3347           37763        CUTOFF2            CAF      BIT1
000427:


000429: 33,3350           13325                           TCF      CUTOFF1
000430:
000431: 33,3351           00004        MP9TERM1           INHINT
000432: 33,3352           33515                           CAF      5SECS9
000433: 33,3353           05663                           TC       WAITLIST
000434: 33,3354  E4,1566                                  EBANK=   TDEC
000435: 33,3354           03362 66064                     2CADR    87LMP
000436:
000437: 33,3356           04161                           TC       PHASCHNG
000438: 33,3357           40572                           OCT      40572                                 #  2.57 FOR 87LMP TASK.
000439:
000440: 33,3360           05225                           TC       POSTJUMP
000441: 33,3361           60324                           CADR     SERVEXIT
000442:
000443: 33,3362           05073        87LMP              TC       2LMP+DT
000444: 33,3363           00127                           DEC      87         B-14                       #  MANUAL THROTTLE - RESET (30 PERCENT.)
000445: 33,3364           00227                           DEC      151        B-14                       #  ENGINE SELECT-DESC ARM-OFF
000446: 33,3365           01750                           DEC      1000       B-14
000447:
000448: 33,3366           05073                           TC       2LMP+DT
000449: 33,3367           00365                           DEC      245        B-14                       #  DPS PQGS NO1 - OFF
000450: 33,3370           00325                           DEC      213        B-14                       #  DPS PQGS NO2 - OFF
000451: 33,3371           00144                           DEC      100        B-14
000452:
000453: 33,3372           05073                           TC       2LMP+DT
000454: 33,3373           00345                           DEC      229        B-14                       #  DPS PQGS ARM NO1 DISABLE
000455: 33,3374           00305                           DEC      197        B-14                       #  DPS PQGS ARM NO2 DISABLE
000456: 33,3375           02570                           DEC      1400       B-14
000457:
000458: 33,3376           05270                           TC       IBNKCALL
000459: 33,3377           40054                           CADR     SETMAXDB
000460:
000461: 33,3400           05101                           TC       1LMP+DT
000462: 33,3401           00032                           DEC      26         B-14                       #  RADAR SELF TEST ON
000463: 33,3402           13560                           DEC      6000       B-14
000464:
000465: 33,3403           05052                           TC       2LMP
000466: 33,3404           00033                           DEC      27         B-14                       #  RADAR SELF TEST POWER - OFF
000467: 33,3405           00267                           DEC      183        B-14                       #  LANDING RADAR POWER - OFF
000468:
000469: 33,3406           05126                           TC       MPENTRY                               #  CALL NEXT MISSION ENTRY ROUTINE
000470: 33,3407           00001                           DEC      1          B-14
000471: 33,3410           00013                           DEC      11         B-14
000472: 33,3411           01752                           ADRES    MP9-11DT
000473:
000474: 33,3412           06067                           TC       FLAG1DWN                              #  KNOCK DOWN AVERAGEG FLAG
000475: 33,3413           00001                           OCT      00001
000476:
000477: 33,3414           04161                           TC       PHASCHNG
000478: 33,3415           00002                           OCT      2
000479:


000481: 33,3416           15727                           TCF      TASKOVER                              #  MISSION PHASE 9 COMPLETE
000482:
000483: 33,3417           06112        DPS1EQU1           TC       INTPRET
000484: 33,3420           47375                 +1        VLOAD    VXV
000485: 33,3421           01017                                    VN                                    #  VN SCALED AT 2(+7)M/CS
000486: 33,3422           01033                                    UNITR                                 #  UNITR IS UNIT VECTOR ALONG RN
000487: 33,3423           63256                           UNIT     PDVL
000488: 33,3424           01033                                    UNITR
000489: 33,3425           77635                           VXV
000490: 33,3426           43325                           PDDL     DAD
000491: 33,3427           02355                                    RP                                    #  TARGET DISTANCE - PERIGEE OR APOGEE
000492: 33,3430           01047                                    RMAG                                  #  RP AND RMAG SCALED AT 2(+24)M
000493: 33,3431           65205                           DMP      PDDL
000494: 33,3432           01047                                    RMAG
000495: 33,3433           02355                                    RP
000496: 33,3434           56205                           DMP      DDV
000497: 33,3435           27514                                    2MUERTH9                              #  SCALED AT 2(+38)M(3)/CS(2).
000498: 33,3436           74366                           SQRT     VXSC
000499: 33,3437           77752                           VSL2
000500: 33,3440           02324                           STORE    VDVECT                                #  FOR DWNLK ONLY. SCALED AT 2(+7)M/CS
000501:
000502: 33,3441           77651                           VSU
000503: 33,3442           01017                                    VN
000504: 33,3443           02332                           STORE    VGVECT                                #  FOR DWNLK ONLY. SCALED AT 2(+7)M/CS
000505:
000506: 33,3444           77656                           UNIT                                           #  LEAVES ABVAL IN LV
000507: 33,3445           02272                           STORE    UNITVG
000508:
000509: 33,3446           77650                           GOTO
000510: 33,3447           02262                                    SHJUMP1
000511:
000512: 33,3450           05073        228LMP             TC       2LMP+DT
000513: 33,3451           00344                           DEC      228        B-14                       #  DPS PQGS ARM NO1 - ENABLE
000514: 33,3452           00304                           DEC      196        B-14                       #  DPS PQGS ARM NO2 - ENABLE
000515: 33,3453           00144                           DEC      100        B-14
000516:
000517: 33,3454           05073                           TC       2LMP+DT
000518: 33,3455           00364                           DEC      244        B-14                       #  DPS PQGS NO1 - ON
000519: 33,3456           00324                           DEC      212        B-14                       #  DPS PQGS NO2 - ON
000520: 33,3457           01356                           DEC      750        B-14
000521:
000522: 33,3460           05270                           TC       IBNKCALL
000523: 33,3461           40062                           CADR     ULLAGE                                #  +X TRANSLATION ON.
000524:
000525: 33,3462           04161                           TC       PHASCHNG
000526: 33,3463           00002                           OCT      2
000527:
000528: 33,3464           15727                           TCF      TASKOVER                              #  END 228LMP TASK
000529:
000530:                                                                                                  #           ********************************
000531:


000533: 33,3465           66760        EQU2ADR            CADR     DPS1EQU2
000534:
000535: 33,3466           67265        EQU3ADR            CADR     DPS1EQU3
000536:
000537: 33,3467  E4,1566                                  EBANK=   TDEC
000538: 33,3467           03417 66064  EQU1ADR            2CADR    DPS1EQU1
000539:
000540: 33,3471  E4,1566                                  EBANK=   TDEC
000541: 33,3471           03351 66064  MP9TM1AD           2CADR    MP9TERM1
000542:
000543: 33,3473  E4,1566                                  EBANK=   TDEC
000544: 33,3473           02336 16064  RVUPDADR           2CADR    RVUPDATE
000545:
000546: 33,3475           00000 00620  4SECSD9            2DEC     400        B-28
000547:
000548: 33,3477           00000 14710  66SECSD9           2DEC     6600       B-28
000549:
000550: 33,3501           00001 35414  5M15S              2DEC     31500      B-28
000551:
000552: 33,3503           00000 00302  DPA                2DEC     .09449     B-17                       #  SCALED AT 2(+17)M/CS
000553:
000554: 33,3505           22653 21315  DPB                2DEC     .0002874   B+11                       #  SCALED AT 2(-11)M/CS(+2)
000555:
000556: 33,3507           00000 05050  DPC                2DEC     2600.      B-28                       #  SCALED AT 2(+28)CS
000557:
000558: 33,3511           00000 36411  DELTAT9            2DEC     200        E+4        B-35            #  2SEC/KPIP
000559:
000560: 33,3513           11217 27040  2MUERTH9           2DEC*    3.98603223 E+10       B-37*
000561:
000562: 33,3515           00764        5SECS9             DEC      500        B-14
000563: 33,3516           11610        50SECS9            DEC      5000       B-14
000564: 33,3517           05670        30SECS9            DEC      3000       B-14
000565: 33,3520           02114        11SECS9            DEC      1100       B-14
000566: 33,3521           15530        70SECS9            DEC      7000       B-14
000567:                                                                                                  #           ********************************

End of include-file MP9-DPS_1_BURN.agc.  Parent file is MAIN.agc


