
Source Code


000002:                                                                                                  ## Copyright:   Public domain.
000003:                                                                                                  ## Filename:    MP_3_SUBORBITAL_ABORT.agc
000004:                                                                                                  ## Purpose:     A module for revision 0 of BURST120 (Sunburst). It
000005:                                                                                                  ##              is part of the source code for the Lunar Module's
000006:                                                                                                  ##              (LM) Apollo Guidance Computer (AGC) for Apollo 5.
000007:                                                                                                  ## Assembler:   yaYUL
000008:                                                                                                  ## Contact:     Ron Burkey <info@sandroid.org>.
000009:                                                                                                  ## Website:     www.ibiblio.org/apollo/index.html
000010:                                                                                                  ## Mod history: 2016-09-30 RSB  Created draft version.
000011:                                                                                                  ##              2016-10-23 MAS  Transcribed.
000012:                                                                                                  ##              2016-10-31 RSB  Typos.
000013:                                                                                                  ##              2016-12-06 RSB  Comments proofed using octopus/ProoferComments,
000014:                                                                                                  ##                              changes made.
000015:                                                                                                  ##              2017-06-14 RSB  Added a ##-comment about the difference between
000016:                                                                                                  ##                              this code and SUNBURST 37.
000017:


000019: 25,2000                                           BANK     25
000020: 25,2000  E4,1566                                  EBANK=   TDEC
000021:
000022:


000026:                                                                                                  #  PROGRAM DESCRIPTION- MISSION PHASE 3 - SUBORBITAL ABORT                 DATE- 28 OCT 66
000027:                                                                                                  #  MOD NO- 0                                                               LOG SECTION- MP 3 - SUBORBITAL ABORT
000028:                                                                                                  #  MOD BY- GILBERT                                                         ASSEMBLY- SUNBURST REVISION 17
000029:
000030:                                                                                                  #  FUNCTIONAL DESCRIPTION
000031:                                                                                                  #           IN THE FIRST 10 SECONDS OF THIS PHASE, THE GROUND IS CAUSING THE NOSECONE TO BE JETTISONED AND THE SLA
000032:                                                                                                  #  PANELS TO BE DEPLOYED. 10 SECONDS AFTER RECEIPT OF THE ABORT COMMAND, MP3 CHECKS TUMBLING AND PROCEEDS ONLY
000033:                                                                                                  #  WHEN THE INDICATED TUMBLING RATES ARE LESS THAN 3 DEGREES PER SECOND. MP3 THEN STARTS +X TRANSLATION AND
000034:                                                                                                  #  COMMANDS SIVB/LEM SEPARATION. 13 SECONDS AFTER SEPARATION THE DESCENT ENGINE IS TURNED ON FOR 5 SECONDS, THEN
000035:                                                                                                  #  IGNITED AGAIN AFTER A 5 SECOND COAST AND LEFT ON THROUGH THE ABORT STAGE COMMAND WHICH IS SENT/RECEIVED 31
000036:                                                                                                  #  SECONDS LATER. THE APS ENGINE IS TURNED OFF 5 SECONDS AFTER ABORT STAGE, THEN IGNITED AGAIN AFTER A 30 SECOND
000037:                                                                                                  #  COAST FOR A FINAL 60 SECOND BURN. IMU COMPENSATION CONTINUES THROUGHOUT THIS MISSION PHASE.
000038:
000039:                                                                                                  #  CALLING SEQUENCE
000040:                                                                                                  #      SUBORBITAL ABORT IS STARTED AT THE DISCRETION OF THE GROUND IN THE EVENT OF AN ABORT DURING THE EARLIER PART
000041:                                                                                                  #  OF BOOST. KEY CODE 23 IS SENT VIA UPLINK.
000042:
000043:                                                                                                  #  SUBROUTINES CALLED
000044:                                                                                                  #     NEWMODEX, WAITLIST, FIXDELAY, 1LMP, 2LMP, 1LMP+DT, 2LMP+DT, FLAG1DWN, ENGINEON, ENGINOFF, ENGINOF1, PREREAD,
000045:                                                                                                  #  READACCS, SERVICER, AVERAGEG.
000046:
000047:                                                                                                  #  NORMAL EXIT MODES
000048:                                                                                                  #      TASKOVER.
000049:
000050:                                                                                                  #  ALARM OR ABORT EXIT MODES
000051:                                                                                                  #      MAJOR MODE 71.
000052:
000053:                                                                                                  #  INPUT
000054:                                                                                                  #      DVSELECT SET FOR READACCS AND SERVICER
000055:
000056:                                                                                                  #  OUTPUT
000057:                                                                                                  #      ''LAST RITES''
000058:
000059:                                                                                                  #  ERASABLE INITIALIZATION REQUIRED
000060:                                                                                                  #      KEY CODE 23 SENT VIA UPLINK.
000061:
000062:                                                                                                  #  DEBRIS
000063:                                                                                                  #      CENTRALS - A,L,Q
000064:                                                                                                  #      OTHER    - ERASABLES IN SUBROUTINES USED
000065:


000067: 25,2000           04117        MP03JOB            TC       NEWMODEX                              #  DISPLAY MAJOR MODE 71
000068: 25,2001           00071                           OCT      71
000069:
000070: 25,2002           36311                           CAF      THREE
000071: 25,2003           54764                           TS       PHASENUM
000072:
000073: 25,2004           04161                           TC       PHASCHNG
000074: 25,2005           47012                           OCT      47012
000075: 25,2006           00001                           DEC      1          B-14
000076: 25,2007  E4,1566                                  EBANK=   TDEC
000077: 25,2007           02021 52064                     2CADR    SBORB1
000078:
000079: 25,2011           37761                           CAF      BIT3
000080: 25,2012           04105                           TC       SETRSTRT                              #  SET RESTART FLAG
000081:
000082: 25,2013           00004                           INHINT
000083: 25,2014           37763                           CAF      ONE                                   #  10 MS. - CONTINUE UNDER WAITLIST CONTROL
000084: 25,2015           05663                           TC       WAITLIST
000085: 25,2016  E4,1566                                  EBANK=   TDEC
000086: 25,2016           02021 52064                     2CADR    SBORB1
000087:
000088: 25,2020           15567                           TCF      ENDOFJOB                              #  AND RELINT
000089:
000090: 25,2021           37767        SBORB1             CAF      ZERO                                  #  INSURE RCS JETS OFF
000091: 25,2022           00006                           EXTEND
000092: 25,2023           01006                           WRITE    6
000093: 25,2024           00006                           EXTEND
000094: 25,2025           01005                           WRITE    5
000095:
000096: 25,2026           04161                           TC       PHASCHNG
000097: 25,2027           47012                           OCT      47012
000098: 25,2030           00144                           DEC      100        B-14
000099: 25,2031  E4,1566                                  EBANK=   TDEC
000100: 25,2031           02035 52064                     2CADR    SBORB2
000101:
000102: 25,2033           05701                           TC       FIXDELAY                              #  WAIT 1 SECOND
000103: 25,2034           00144                           DEC      100        B-14
000104:
000105: 25,2035           05073        SBORB2             TC       2LMP+DT
000106: 25,2036           00274                           DEC      188        B-14                       #  RCS MAIN S/O VALVES, SYS. A - OPEN **
000107: 25,2037           00276                           DEC      190        B-14                       #  RCS MAIN S/O VALVES, SYS. B - OPEN **
000108: 25,2040           00144                           DEC      100        B-14                       #  WAIT 1 SECOND
000109:
000110: 25,2041           05101                           TC       1LMP+DT
000111: 25,2042           00004                           DEC      4          B-14                       #  ED BATTERY ACTIVATION - ON *
000112: 25,2043           00144                           DEC      100        B-14                       #  WAIT 1 SECOND
000113:
000114: 25,2044           05073                           TC       2LMP+DT
000115: 25,2045           00275                           DEC      189        B-14                       #  RESET **
000116: 25,2046           00277                           DEC      191        B-14                       #  RESET **


000118: 25,2047           00144                           DEC      100        B-14                       #  WAIT 1 SECOND
000119:
000120: 25,2050           05101                           TC       1LMP+DT
000121: 25,2051           00006                           DEC      6          B-14                       #  RCS PRESSURIZE - FIRE **
000122: 25,2052           00144                           DEC      100        B-14                       #  WAIT 1 SECOND
000123:
000124: 25,2053           05101                           TC       1LMP+DT
000125: 25,2054           00005                           DEC      5          B-14                       #  ED BATTERY ACTIVATION - SAFE *
000126: 25,2055           00144                           DEC      100        B-14                       #  WAIT 1 SECOND
000127:
000128: 25,2056           05101                           TC       1LMP+DT
000129: 25,2057           00007                           DEC      7          B-14                       #  RESET **
000130: 25,2060           00620                           DEC      400        B-14                       #  WAIT 4 SECONDS
000131:
000132: 25,2061           40075        TUMBCHK            CS       FLAGWRD1                              #  IS VEHICLE RATE LESS THAN 3 DEG/SEC
000133: 25,2062           77747                           MASK     BIT13
000134: 25,2063           10000                           CCS      A
000135: 25,2064           12070                           TCF      TUMB1                                 #  YES
000136:
000137: 25,2065           05701                           TC       FIXDELAY                              #  WAIT .5 SECONDS
000138: 25,2066           00062                           DEC      50         B-14
000139:
000140: 25,2067           12061                           TCF      TUMBCHK
000141:
000142: 25,2070           04161        TUMB1              TC       PHASCHNG
000143: 25,2071           05012                           OCT      05012
000144: 25,2072           77777                           OCT      77777
000145:
000146: 25,2073           06067                           TC       FLAG1DWN                              #  TERMINATE TUMBLE MONITOR
000147: 25,2074           20000                           OCT      20000
000148:
000149: 25,2075           33014                           CAF      JETS+X                                #  COMMAND +X TRANSLATION - ON (4 JET)
000150: 25,2076           00006                           EXTEND
000151: 25,2077           01005                           WRITE    5
000152: 25,2100           05270                           TC       IBNKCALL
000153: 25,2101           40062                           CADR     ULLAGE                                #  USE LATER
000154:
000155: 25,2102           05101                           TC       1LMP+DT
000156: 25,2103           00072                           DEC      58         B-14                       #  LEM/S4B SEPARATE ARM - ON *
000157: 25,2104           00062                           DEC      50         B-14                       #  WAIT 500 MILLISECONDS
000158:
000159: 25,2105           40077                           CS       DAPBOOLS                              #  ENABLE DAP
000160: 25,2106           77751                           MASK     GODAPGO
000161: 25,2107           26077                           ADS      DAPBOOLS
000162:
000163: 25,2110           05270                           TC       IBNKCALL                              #  DEADBAND SELECT - MAX
000164: 25,2111           40054                           CADR     SETMAXDB
000165:
000166: 25,2112           04161                           TC       PHASCHNG
000167: 25,2113           47012                           OCT      47012


000169: 25,2114           00062                           DEC      50         B-14
000170: 25,2115  E4,1566                                  EBANK=   TDEC
000171: 25,2115           02121 52064                     2CADR    TUMB2
000172:
000173: 25,2117           05701                           TC       FIXDELAY                              #  WAIT 500 MILLISECONDS
000174: 25,2120           00062                           DEC      50         B-14
000175:
000176: 25,2121           05270        TUMB2              TC       IBNKCALL
000177: 25,2122           40072                           CADR     SETRATE                               #  HOLD VEHICLE ATTITUDE RATE
000178:
000179: 25,2123           05073                           TC       2LMP+DT
000180: 25,2124           00132                           DEC      90         B-14                       #  LEM/S4B SEPARATE - COMMAND **
000181: 25,2125           00004                           DEC      4          B-14                       #  ED BATTERY ACTIVATION - ON *
000182: 25,2126           00012                           DEC      10         B-14                       #  WAIT 100 MILLISECONDS
000183:
000184: 25,2127           05270                           TC       IBNKCALL                              #  DEADBAND SELECT - MIN
000185: 25,2130           40046                           CADR     SETMINDB
000186:
000187: 25,2131           40075                           CS       FLAGWRD1                              #  SETS SIVBGONE TO 1
000188: 25,2132           77760                           MASK     BIT4
000189: 25,2133           26075                           ADS      FLAGWRD1
000190:
000191: 25,2134           04161                           TC       PHASCHNG
000192: 25,2135           47012                           OCT      47012
000193: 25,2136           00132                           DEC      90         B-14
000194: 25,2137  E4,1566                                  EBANK=   TDEC
000195: 25,2137           02143 52064                     2CADR    TUMB3
000196:
000197: 25,2141           05701                           TC       FIXDELAY                              #  WAIT 900 MILLISECONDS
000198: 25,2142           00132                           DEC      90         B-14
000199:
000200: 25,2143           05270        TUMB3              TC       IBNKCALL
000201: 25,2144           40277                           CADR     ENGINOF1
000202:
000203: 25,2145           05073                           TC       2LMP+DT
000204: 25,2146           00073                           DEC      59         B-14                       #  LEM/S4B SEPARATE ARM - OFF *
000205: 25,2147           00226                           DEC      150        B-14                       #  ENGINE SELECT - DESC ARM *
000206: 25,2150           00001                           DEC      1          B-14                       #  WAIT 10 MILLISECONDS
000207:
000208: 25,2151           37752                           CAF      BIT10                                 #  START ABORT STAGE DISCRETE MONITOR
000209: 25,2152           05663                           TC       WAITLIST
000210: 25,2153  E4,1566                                  EBANK=   TDEC
000211: 25,2153           02436 52064                     2CADR    ABTSTGDM
000212:
000213: 25,2155           04141                           TC       2PHSCHNG
000214: 25,2156           40072                           OCT      40072
000215: 25,2157           47016                           OCT      47016
000216: 25,2160           01000                           DEC      512        B-14
000217: 25,2161  E4,1566                                  EBANK=   TDEC
000218: 25,2161           02436 52064                     2CADR    ABTSTGDM
000219:


000221: 25,2163           05270        SBORBA             TC       IBNKCALL                              #  DEADBAND SELECT - MIN
000222: 25,2164           40046                           CADR     SETMINDB
000223:
000224: 25,2165           05101                           TC       1LMP+DT
000225: 25,2166           00126                           DEC      86         B-14                       #  MANUAL THROTTLE - ON (10 PC) *
000226: 25,2167           00144                           DEC      100        B-14                       #  WAIT 1 SECOND
000227:
000228: 25,2170           05101                           TC       1LMP+DT
000229: 25,2171           00133                           DEC      91         B-14                       #  RESET **
000230: 25,2172           01130                           DEC      600        B-14                       #  WAIT 6 SECONDS
000231:
000232: 25,2173           05270                           TC       IBNKCALL                              #  HOLD LEM ATTITUDE
000233: 25,2174           40114                           CADR     STOPRATE
000234: 25,2175           04161                           TC       PHASCHNG
000235: 25,2176           47012                           OCT      47012
000236: 25,2177           00620                           DEC      400        B-14
000237: 25,2200  E5,1511                                  EBANK=   DVCNTR
000238: 25,2200           02204 52065                     2CADR    SBORB3
000239:
000240: 25,2202           05701                           TC       FIXDELAY                              #  WAIT 4 SECONDS
000241: 25,2203           00620                           DEC      400        B-14
000242:
000243: 25,2204  E5,1511                                  EBANK=   DVCNTR
000244:
000245: 25,2204           35661        SBORB3             CA       EBANK5
000246: 25,2205           54003                           TS       EBANK
000247:
000248: 25,2206           05101                           TC       1LMP+DT
000249: 25,2207           00010                           DEC      8          B-14                       #  LANDING GEAR DEPLOY - FIRE **
000250: 25,2210           00144                           DEC      100        B-14                       #  WAIT 1 SECOND
000251:
000252: 25,2211           05270                           TC       IBNKCALL
000253: 25,2212           40226                           CADR     DPSENGON


000255:
000256: 25,2213           04161                           TC       PHASCHNG
000257: 25,2214           47012                           OCT      47012
000258: 25,2215           00144                           DEC      100        B-14
000259: 25,2216  E5,1511                                  EBANK=   DVCNTR
000260: 25,2216           02222 52065                     2CADR    SBORB4
000261:
000262: 25,2220           05701                           TC       FIXDELAY                              #  WAIT 1 SECOND
000263: 25,2221           00144                           DEC      100        B-14
000264:
000265: 25,2222           05073        SBORB4             TC       2LMP+DT
000266: 25,2223           00005                           DEC      5          B-14                       #  ED BATTERY ACTIVATION - SAFE *
000267: 25,2224           00011                           DEC      9          B-14                       #  RESET **
000268: 25,2225           00620                           DEC      400        B-14                       #  WAIT 4 SECONDS
000269:
000270: 25,2226           37767                           CA       ZERO                                  #  WE WANT TO DETECT ENGINOFF QUICKLY SO IT
000271: 25,2227           55341                           TS       SETDVCNT                              #  WON'T INTERFERE WITH NEXT ENG ON.
000272:


000274: 25,2230           37763                           CA       ONE                                   #  DITTO.
000275: 25,2231           55511                           TS       DVCNTR
000276:
000277: 25,2232           05270                           TC       IBNKCALL
000278: 25,2233           40263                           CADR     ENGINOFF
000279:
000280: 25,2234           04161                           TC       PHASCHNG
000281: 25,2235           47012                           OCT      47012
000282: 25,2236           00764                           DEC      500        B-14
000283: 25,2237  E5,1511                                  EBANK=   DVCNTR
000284: 25,2237           02243 52065                     2CADR    SBORB5
000285:
000286: 25,2241           05701                           TC       FIXDELAY                              #  WAIT 5 SECONDS
000287: 25,2242           00764                           DEC      500        B-14
000288:
000289: 25,2243           05270        SBORB5             TC       IBNKCALL
000290: 25,2244           40226                           CADR     DPSENGON                              #  DPSENGON WILL REFRESH SETDVCNT


000292:
000293: 25,2245           04161                           TC       PHASCHNG
000294: 25,2246           47012                           OCT      47012
000295: 25,2247           00310                           DEC      200        B-14
000296: 25,2250  E5,1511                                  EBANK=   DVCNTR
000297: 25,2250           02254 52065                     2CADR    SBORB6
000298:
000299: 25,2252           05701                           TC       FIXDELAY                              #  WAIT 2 SECONDS
000300: 25,2253           00310                           DEC      200        B-14
000301:
000302: 25,2254           05270        SBORB6             TC       IBNKCALL                              #  COMMAND +X TRANSLATION - OFF (4 JET)
000303: 25,2255           40066                           CADR     NOULLAGE
000304:
000305: 25,2256           04161                           TC       PHASCHNG
000306: 25,2257           47012                           OCT      47012
000307: 25,2260           03554                           DEC      1900       B-14
000308: 25,2261  E5,1511                                  EBANK=   DVCNTR
000309: 25,2261           02265 52065                     2CADR    SBORB7
000310:
000311: 25,2263           05701                           TC       FIXDELAY                              #  WAIT 19 SECONDS
000312: 25,2264           03554                           DEC      1900       B-14
000313:
000314: 25,2265           05101        SBORB7             TC       1LMP+DT
000315: 25,2266           00336                           DEC      222        B-14                       #  ASCENT WATER COOLANT VALVE - OPEN **
000316: 25,2267           00310                           DEC      200        B-14                       #  WAIT 2 SECONDS
000317:
000318: 25,2270           05101                           TC       1LMP+DT
000319: 25,2271           00337                           DEC      223        B-14                       #  RESET **
000320: 25,2272           00454                           DEC      300        B-14                       #  WAIT 3 SECONDS
000321:
000322: 25,2273           35210                           CAF      PRIO30                                #  THRUST REQUEST DURING JOB
000323: 25,2274           05516                           TC       FINDVAC
000324: 25,2275  E5,1565                                  EBANK=   ETHROT


000326: 25,2275           02464 52065                     2CADR    TRST90PC
000327:
000328: 25,2277           04141                           TC       2PHSCHNG
000329: 25,2300           40112                           OCT      40112
000330: 25,2301           07024                           OCT      07024
000331: 25,2302           30000                           OCT      30000
000332: 25,2303  E5,1565                                  EBANK=   ETHROT
000333: 25,2303           02464 52065                     2CADR    TRST90PC
000334:
000335: 25,2305           05701                           TC       FIXDELAY                              #  WAIT 4 SECONDS
000336: 25,2306           00620                           DEC      400        B-14
000337:
000338: 25,2307           05101        SBORB8             TC       1LMP+DT
000339: 25,2310           00046                           DEC      38         B-14                       #  ABORT STAGE - ARM *
000340: 25,2311           00144                           DEC      100        B-14                       #  WAIT 1 SECOND
000341:
000342: 25,2312           05101                           TC       1LMP+DT
000343: 25,2313           00026                           DEC      22         B-14                       #  ABORT STAGE - COMMAND *
000344: 25,2314           00001                           DEC      1          B-14                       #  WAIT 10 MS
000345:
000346: 25,2315           04161                           TC       PHASCHNG
000347: 25,2316           00002                           OCT      00002
000348:
000349: 25,2317           15727                           TCF      TASKOVER                              #  ABORT STAGE DISCRETE MONITOR RUNNING
000350:
000351:
000352:
000353: 25,2320  E7,1776                                  EBANK=   LEMMASS2
000354: 25,2320           35662        SBORBB             CAF      EBANK7
000355: 25,2321           54003                           TS       EBANK
000356:
000357: 25,2322           00006                           EXTEND
000358: 25,2323           31777                           DCA      LEMMASS2
000359: 25,2324           53321                           DXCH     MASS
000360:
000361: 25,2325           05270                           TC       IBNKCALL                              #  SET UP DAP FOR APS BURN
000362: 25,2326           40175                           CADR     APSENGON
000363:
000364: 25,2327  E4,1566                                  EBANK=   TDEC
000365: 25,2327           37751                           CAF      EBANK4
000366: 25,2330           54003                           TS       EBANK
000367:
000368: 25,2331           04161                           TC       PHASCHNG
000369: 25,2332           47012                           OCT      47012
000370: 25,2333           00144                           DEC      100        B-14
000371: 25,2334  E4,1566                                  EBANK=   TDEC
000372: 25,2334           02340 52064                     2CADR    SBORB9
000373:
000374: 25,2336           05701                           TC       FIXDELAY                              #  WAIT 1 SECOND
000375: 25,2337           00144                           DEC      100        B-14
000376:


000378: 25,2340           05101        SBORB9             TC       1LMP+DT
000379: 25,2341           00227                           DEC      151        B-14                       #  ENGINE SELECT - DESC ARM OFF *
000380: 25,2342           00620                           DEC      400        B-14                       #  WAIT 4 SECONDS
000381:
000382: 25,2343           05270                           TC       IBNKCALL
000383: 25,2344           40263                           CADR     ENGINOFF
000384:
000385: 25,2345           04161                           TC       PHASCHNG
000386: 25,2346           47012                           OCT      47012
000387: 25,2347           00144                           DEC      100        B-14
000388: 25,2350  E4,1566                                  EBANK=   TDEC
000389: 25,2350           02354 52064                     2CADR    SBORB10
000390:
000391: 25,2352           05701                           TC       FIXDELAY                              #  WAIT 1 SECOND
000392: 25,2353           00144                           DEC      100        B-14
000393:
000394: 25,2354           05073        SBORB10            TC       2LMP+DT
000395: 25,2355           00047                           DEC      39         B-14                       #  ABORT STAGE - COMMAND RESET *
000396: 25,2356           00206                           DEC      134        B-14                       #  ENGINE SELECT - ASC ARM *
000397: 25,2357           05214                           DEC      2700       B-14                       #  WAIT 27 SECONDS
000398:
000399: 25,2360           05270                           TC       IBNKCALL                              #  COMMAND +X TRANSLATION - ON (4 JET)
000400: 25,2361           40062                           CADR     ULLAGE
000401:
000402: 25,2362           04161                           TC       PHASCHNG
000403: 25,2363           47012                           OCT      47012
000404: 25,2364           00310                           DEC      200        B-14
000405: 25,2365  E4,1566                                  EBANK=   TDEC
000406: 25,2365           02371 52064                     2CADR    SBORB11
000407:
000408: 25,2367           05701                           TC       FIXDELAY                              #  WAIT 2 SECONDS
000409: 25,2370           00310                           DEC      200        B-14
000410:
000411: 25,2371           05270        SBORB11            TC       IBNKCALL
000412: 25,2372           40175                           CADR     APSENGON
000413:
000414: 25,2373           04161                           TC       PHASCHNG
000415: 25,2374           47012                           OCT      47012
000416: 25,2375           00310                           DEC      200        B-14
000417: 25,2376  E4,1566                                  EBANK=   TDEC
000418: 25,2376           02402 52064                     2CADR    SBORB12
000419:
000420: 25,2400           05701                           TC       FIXDELAY                              #  WAIT 2 SECONDS
000421: 25,2401           00310                           DEC      200        B-14
000422:
000423: 25,2402           05270        SBORB12            TC       IBNKCALL                              #  COMMAND +X TRANSLATION - OFF (4 JET)
000424: 25,2403           40066                           CADR     NOULLAGE
000425:
000426: 25,2404           04161                           TC       PHASCHNG
000427: 25,2405           47012                           OCT      47012


000429: 25,2406           13250                           DEC      5800       B-14
000430: 25,2407  E4,1566                                  EBANK=   TDEC
000431: 25,2407           02413 52064                     2CADR    SBORB13
000432:
000433: 25,2411           05701                           TC       FIXDELAY                              #  WAIT 58 SECONDS
000434: 25,2412           13250                           DEC      5800       B-14
000435:
000436: 25,2413           05270        SBORB13            TC       IBNKCALL
000437: 25,2414           40263                           CADR     ENGINOFF
000438:
000439: 25,2415           04161                           TC       PHASCHNG
000440: 25,2416           47012                           OCT      47012
000441: 25,2417           00144                           DEC      100        B-14
000442: 25,2420  E4,1566                                  EBANK=   TDEC
000443: 25,2420           02424 52064                     2CADR    SBORB14
000444:
000445: 25,2422           05701                           TC       FIXDELAY                              #  WAIT 1 SECOND
000446: 25,2423           00144                           DEC      100        B-14
000447:
000448: 25,2424           05101        SBORB14            TC       1LMP+DT
000449: 25,2425           00207                           DEC      135        B-14                       #  ENGINE SELECT - ASC ARM OFF *
000450: 25,2426           05524                           DEC      2900       B-14                       #  WAIT 29 SECONDS
000451:
000452: 25,2427           06067                           TC       FLAG1DWN                              #  KNOCK DOWN AVERAGEG FLAG
000453: 25,2430           00001                           OCT      00001
000454:
000455: 25,2431           05270                           TC       IBNKCALL                              #  DEADBAND SELECT - MAX
000456: 25,2432           40054                           CADR     SETMAXDB
000457:
000458: 25,2433           04161                           TC       PHASCHNG
000459: 25,2434           00002                           OCT      00002
000460:
000461: 25,2435           05727                           TC       TASKOVER
000462:
000463:
000464:
000465: 25,2436           37762        ABTSTGDM           CAF      BIT2                                  #  ABORT STAGE DISCRETE MONITOR
000466: 25,2437           00006                           EXTEND
000467: 25,2440           02030                           RAND     30
000468:
000469: 25,2441           00006                           EXTEND
000470: 25,2442           12446                           BZF      ABTSTG1                               #  YES
000471:
000472: 25,2443           05701                           TC       FIXDELAY                              #  WAIT .5 SECONDS
000473: 25,2444           00062                           DEC      50         B-14
000474:
000475: 25,2445           12436                           TCF      ABTSTGDM
000476:
000477: 25,2446           04141        ABTSTG1            TC       2PHSCHNG
000478: 25,2447           00004                           OCT      00004


000480: 25,2450           47012                           OCT      47012
000481: 25,2451           77777                           OCT      77777
000482: 25,2452  E4,1566                                  EBANK=   TDEC
000483: 25,2452           02320 52064                     2CADR    SBORBB
000484:
000485: 25,2454           04141                           TC       2PHSCHNG
000486: 25,2455           00006                           OCT      00006
000487: 25,2456           00003                           OCT      00003
000488:
000489: 25,2457           35660                           CAF      PRIO37                                #  GENERATE RESTART IMMEDIATELY
000490: 25,2460           05505                           TC       NOVAC
000491: 25,2461  E3,1400                                  EBANK=   LST1
000492: 25,2461           02354 02063                     2CADR    ENEMA
000493:
000494: 25,2463           15727                           TCF      TASKOVER
000495:
000496:
000497:
000498:
000499:
000500: 25,2464           37743        TRST90PC           CAF      POSMAX                                #  INCREASE THROTTLE 90 PERCENT
000501: 25,2465           55323                           TS       PCNTF
000502: 25,2466           00006                           EXTEND
000503: 25,2467           32473                           DCA      THRSTLOC
000504: 25,2470           52006                           DXCH     Z
000505:
000506: 25,2471           15567                           TCF      ENDOFJOB
000507:
000508:
000509:
000510:
000511:
000512: 25,2472  E5,1565                                  EBANK=   ETHROT
000513: 25,2472           03466 60065  THRSTLOC           2CADR    PCNTFMAX

End of include-file MP_3_SUBORBITAL_ABORT.agc.  Parent file is MAIN.agc


