
Source Code


000002:                                                                                                  ## Copyright:    Public domain.
000003:                                                                                                  ## Filename:     MP_7-SIVB_LEM_SEPARATION.agc
000004:                                                                                                  ## Purpose:      A module for revision 0 of BURST120 (Sunburst). It
000005:                                                                                                  ##               is part of the source code for the Lunar Module's
000006:                                                                                                  ##               (LM) Apollo Guidance Computer (AGC) for Apollo 5.
000007:                                                                                                  ## Assembler:    yaYUL
000008:                                                                                                  ## Contact:      Ron Burkey <info@sandroid.org>.
000009:                                                                                                  ## Website:      www.ibiblio.org/apollo/index.html
000010:                                                                                                  ## Mod history:  2016-09-30 RSB  Created draft version.
000011:                                                                                                  ##               2016-10-25 MAS  Transcribed.
000012:                                                                                                  ##               2016-10-31 RSB  Typos.
000013:                                                                                                  ##               2016-11-01 RSB  More typos.
000014:


000016: 25,2474                                           BANK     25
000017: 25,2474  E4,1566                                  EBANK=   TDEC
000018:
000019:                                                                                                  #  PROGRAM DESCRIPTION- MISSION PHASE 7 - SIVB/LEM SEPARATION              DATE- 21 OCT 66
000020:                                                                                                  #  MOD NO- 0                                                               LOG SECTION- MP 7 - SIVB/LEM SEPARATION
000021:                                                                                                  #  MOD BY- GILBERT                                                         ASSEMBLY- SUNBURST REVISION 12
000022:
000023:                                                                                                  #  FUNCTIONAL DESCRIPTION
000024:                                                                                                  #            SIVB/LEM SEPARATION IS STARTED 39 MIN. 56 SEC. AFTER SIVB SHUTDOWN IS DETECTED. AT 00/11/04, ONE
000025:                                                                                                  #  MINUTE AFTER BOOST SHUTDOWN IS DETECTED, MISSION TIMER NO. 1 IS SET TO 38M 56S AND MISSION PHASE REGISTER NO. 1
000026:                                                                                                  #  TO MP 7. MISSION PHASE 7 STARTS AT 00/50/00. THIS PROGRAM COMMANDS A SEQUENCE OF EVENTS INCLUDING RCS COLD
000027:                                                                                                  #  FIRE PURGE, RCS PRESSURIZATION, S BAND SYSTEM ACTIVATION, +X TRANSLATION INITIATION OF LEM/SIVB SEPARATION
000028:                                                                                                  #  SEQUENCE, AND AGS ACTIVATION. IMMEDIATELY AFTER PHYSICAL SEPARATION, 00/54/00, THE PGNCS HOLDS THE ATTITUDE RATE
000029:                                                                                                  #  WHICH EXISTED AT SEPARATION TO MINIMIZE THE PROBABILITY OF RE-CONTACT. RCS +X TRANSLATION IS TERMINATED 15
000030:                                                                                                  #  SECONDS AFTER SEPARATION AT 00/54/15 AT WHICH TIME AUTOMATIC ATTITUDE HOLD IS INITIATED. THIS TERMINATION
000031:                                                                                                  #  FOLLOWS A SEQUENCE STARTING AT 00/53/55 DURING WHICH THE JETS ARE TURNED ON FOR 10 SECONDS, OFF FOR 5 SECONDS,
000032:                                                                                                  #  AND ON FOR 5 SECONDS. THIS IS DUE TO THE POSSIBILITY OF HEAT AFFECTING THE RENDEZVOUS RADAR ANTENNAE.
000033:                                                                                                  #  MISSION PHASE TIMER NO. 4 IS SET TO START MISSION PHASE 8 (DPS COLD SOAK) IN 08 SECONDS. MISSION PHASE TIMER
000034:                                                                                                  #  NO. 2 IS SET TO START MISSION PHASE 9 (DPS 1) IN 3H 1M 47S. MAJOR MODE 14 IS DISPLAYED DURING THIS PHASE.
000035:
000036:                                                                                                  #  CALLING SEQUENCE
000037:                                                                                                  #      SIVB/LEM SEPARATION IS CALLED BY THE MISSION SCHEDULING ROUTINE AS A JOB. THE MISSION SCHEDULING ENTRY
000038:                                                                                                  #  ROUTINE WAS CALLED 1 MINUTE AFTER BOOST SHUTDOWN IN MISSION PHASE 6 TO SET TIMER NO. 1 TO 38 MINUTES 56 SECONDS.
000039:
000040:                                                                                                  #  SUBROUTINES CALLED
000041:                                                                                                  #      NEWMODEX, WAITLIST, FIXDELAY, 1LMP+DT, 2LMP+DT, FLAG1UP, FLAG1DWN, MPENTRY, MIDTOAVE, AVETOMID, TPAGREE,
000042:                                                                                                  #  PREREAD, READACCS, SERVICER, AVERAGEG.
000043:
000044:                                                                                                  #  NORMAL EXIT MODE
000045:                                                                                                  #      TASKOVER (ENDOFJOB INITIALLY SINCE TASK IS REQUESTED)
000046:
000047:                                                                                                  #  ALARM OR ABORT EXIT MODES
000048:                                                                                                  #      NONE
000049:
000050:                                                                                                  #  INPUT
000051:                                                                                                  #      MISSION SCHEDULING MAINTENANCE ROUTINE MUST BE INHIBITED AT BEGINNING AND ENABLED AT END OF MISSION PHASE 7.
000052:
000053:                                                                                                  #  OUTPUT
000054:                                                                                                  #      RCS COLD FIRE PURGE, RCS PRESSURIZATION, S BAND SYSTEM ACTIVATION, +X TRANSLATION, INITIATION OF LEM/SIVB
000055:                                                                                                  #  SEPARATION SEQUENCE, AND SCHEDULING OF MISSION PHASES 8 AND 9 (DPS COLD SOAK AND DPS 1).
000056:
000057:                                                                                                  #  ERASABLE INITIALIZATION REQUIRED
000058:                                                                                                  #      NORMAL MISSION SEQUENCE SETS ERASABLES PROPERLY
000059:
000060:                                                                                                  #  DEBRIS
000061:                                                                                                  #      CENTRALS - A,L,Q
000062:                                                                                                  #      OTHER    - ERASABLES IN SUBROUTINES USED
000063:


000065: 25,2474           04141        MP07JOB            TC       2PHSCHNG
000066: 25,2475           00006                           OCT      00006
000067: 25,2476           05022                           OCT      05022
000068: 25,2477           20000                           OCT      20000
000069:
000070: 25,2500           04141                           TC       2PHSCHNG
000071: 25,2501           00003                           OCT      00003
000072: 25,2502           00004                           OCT      00004
000073:
000074: 25,2503           37755                           CAF      BIT7
000075: 25,2504           04105                           TC       SETRSTRT                              #  SET RESTART FLAG
000076:
000077: 25,2505           04161                           TC       PHASCHNG
000078: 25,2506           47013                           OCT      47013
000079: 25,2507           07640                           DEC      4000       B-14
000080: 25,2510  E4,1566                                  EBANK=   TDEC
000081: 25,2510           02555 52064                     2CADR    SIVBSEP
000082:
000083: 25,2512           04161                           TC       PHASCHNG
000084: 25,2513           06022                           OCT      06022
000085: 25,2514  E4,1566                                  EBANK=   TDEC
000086: 25,2514           02524 52064                     2CADR    DOOI
000087:
000088: 25,2516           00004                           INHINT
000089: 25,2517           33005                           CA       40SEC
000090: 25,2520           05663                           TC       WAITLIST
000091: 25,2521  E4,1566                                  EBANK=   TDEC
000092: 25,2521           02555 52064                     2CADR    SIVBSEP
000093:
000094: 25,2523           00003                           RELINT
000095:
000096: 25,2524           00006        DOOI               EXTEND
000097: 25,2525           30025                           DCA      TIME2                                 #  SET UP TIME FOR MIDTOAVE
000098: 25,2526           53567                           DXCH     TDEC
000099: 25,2527           00006                           EXTEND
000100: 25,2530           33007                           DCA      MP07DELT
000101: 25,2531           21567                           DAS      TDEC
000102:
000103: 25,2532           00006                           EXTEND
000104: 25,2533           31567                           DCA      TDEC
000105: 25,2534           52421                           DXCH     TIMEHOLD                              #  NO RADAR ON 206
000106:
000107: 25,2535           04117                           TC       NEWMODEX                              #  DISPLAY MAJOR MODE 14
000108: 25,2536           00014                           OCT      14
000109:
000110: 25,2537           00006                           EXTEND
000111: 25,2540           33011                           DCA      MIDAVE2C                              #  PRIOR TO THRUST
000112: 25,2541           52006                           DXCH     Z
000113:
000114: 25,2542           04161                           TC       PHASCHNG


000116: 25,2543           04022                           OCT      04022
000117: 25,2544           33015                           CAF      AVRAGEG7                              #  SERVICER CALLS AVERAGEG
000118: 25,2545           55310                           TS       DVSELECT
000119:
000120: 25,2546           00006                           EXTEND
000121: 25,2547           33013                           DCA      SVREXIT                               #  NORMAL EXIT FROM AVERAGEG
000122: 25,2550           53073                           DXCH     AVGEXIT
000123:
000124: 25,2551           33014                           CAF      JETS+X                                #  RCS COLD FIRE PURGE
000125: 25,2552           00006                           EXTEND
000126: 25,2553           01005                           WRITE    5
000127:
000128: 25,2554           05567                           TC       ENDOFJOB                              #  AND RELINT
000129:
000130: 25,2555           04141        SIVBSEP            TC       2PHSCHNG
000131: 25,2556           00003                           OCT      00003
000132: 25,2557           05012                           OCT      05012
000133: 25,2560           77777                           OCT      77777
000134:
000135: 25,2561           37767                           CAF      ZERO                                  #  TERMINATE RCS COLD FIRE PURGE
000136: 25,2562           00006                           EXTEND
000137: 25,2563           01005                           WRITE    5
000138:
000139: 25,2564           04161                           TC       PHASCHNG
000140: 25,2565           47012                           OCT      47012
000141: 25,2566           00620                           DEC      400        B-14
000142: 25,2567  E4,1566                                  EBANK=   TDEC
000143: 25,2567           02573 52064                     2CADR    SIVB1
000144:
000145: 25,2571           05701                           TC       FIXDELAY                              #  WAIT 4 SECONDS
000146: 25,2572           00620                           DEC      400        B-14
000147:
000148: 25,2573           05073        SIVB1              TC       2LMP+DT
000149: 25,2574           00274                           DEC      188        B-14                       #  RCS MAIN S/O VALVES, SYS. A - OPEN **
000150: 25,2575           00276                           DEC      190        B-14                       #  RCS MAIN S/O VALVES, SYS. B - OPEN **
000151: 25,2576           00144                           DEC      100        B-14                       #  WAIT 1 SECOND
000152:
000153: 25,2577           05101                           TC       1LMP+DT
000154: 25,2600           00004                           DEC      4          B-14                       #  ED BATTERY ACTIVATION - ON
000155: 25,2601           00144                           DEC      100        B-14                       #  WAIT 1 SECOND
000156:
000157: 25,2602           05073                           TC       2LMP+DT
000158: 25,2603           00275                           DEC      189        B-14                       #  RESET **
000159: 25,2604           00277                           DEC      191        B-14                       #  RESET **
000160: 25,2605           01604                           DEC      900        B-14                       #  WAIT 9 SECONDS
000161:
000162: 25,2606           05101                           TC       1LMP+DT
000163: 25,2607           00006                           DEC      6          B-14                       #  RCS PRESSURIZE - FIRE **
000164: 25,2610           00310                           DEC      200        B-14                       #  WAIT 2 SECONDS
000165:


000167: 25,2611           05101                           TC       1LMP+DT
000168: 25,2612           00007                           DEC      7          B-14                       #  RESET **
000169: 25,2613           05360                           DEC      2800       B-14                       #  WAIT 28 SECONDS
000170:
000171: 25,2614           05101                           TC       1LMP+DT
000172: 25,2615           00005                           DEC      5          B-14                       #  ED BATTERY ACTIVATION - SAFE *
000173: 25,2616           22434                           DEC      9500       B-14                       #  WAIT 95 SECONDS                              ...
000174:
000175: 25,2617           00006                           EXTEND
000176: 25,2620           30421                           DCA      TIMEHOLD
000177: 25,2621           53664                           DXCH     DT2TEMPD
000178: 25,2622           00006                           EXTEND
000179: 25,2623           40025                           DCS      TIME2                                 #  TIG - 28 SEC.  =  TDEC + 2 SEC.
000180: 25,2624           21664                           DAS      DT2TEMPD
000181:
000182: 25,2625           04161                           TC       PHASCHNG
000183: 25,2626           05012                           OCT      05012
000184: 25,2627           77777                           OCT      77777
000185:
000186: 25,2630           00006                           EXTEND
000187: 25,2631           31664                           DCA      DT2TEMPD
000188: 25,2632           52421                           DXCH     TIMEHOLD
000189: 25,2633           10421                           CCS      TIMEHOLD   +1                         #  INSURE WAITLIST TIME POSITIVE
000190: 25,2634           67763                           AD       ONE
000191: 25,2635           12640                           TCF      +3
000192: 25,2636           40000                           COM
000193: 25,2637           67743                           AD       POSMAX
000194: 25,2640           55662                           TS       DT2TEMP
000195: 25,2641           05663                           TC       WAITLIST                              #  REQUEST LASTBIAS AT TIG - 30 SECONDS
000196: 25,2642  E4,1566                                  EBANK=   TDEC
000197: 25,2642           03016 52064                     2CADR    TIG-30
000198:
000199: 25,2644           04141                           TC       2PHSCHNG
000200: 25,2645           40052                           OCT      40052
000201: 25,2646           47014                           OCT      47014
000202: 25,2647           76115                           -GENADR  DT2TEMP
000203: 25,2650  E4,1566                                  EBANK=   TDEC
000204: 25,2650           03016 52064                     2CADR    TIG-30
000205:
000206: 25,2652           05701                           TC       FIXDELAY                              #  WAIT 55 SECONDS
000207: 25,2653           12574                           DEC      5500       B-14
000208:
000209: 25,2654           05270        SIVB2              TC       IBNKCALL                              #  DEADBAND SELECT - MAX
000210: 25,2655           40054                           CADR     SETMAXDB
000211:
000212: 25,2656           33014                           CAF      JETS+X                                #  COMMAND +X TRANSLATION - ON (4 JET)
000213: 25,2657           00006                           EXTEND
000214: 25,2660           01005                           WRITE    5
000215: 25,2661           05270                           TC       IBNKCALL
000216: 25,2662           40062                           CADR     ULLAGE
000217:


000219: 25,2663           04161                           TC       PHASCHNG
000220: 25,2664           47012                           OCT      47012
000221: 25,2665           00144                           DEC      100        B-14
000222: 25,2666  E4,1566                                  EBANK=   TDEC
000223: 25,2666           02672 52064                     2CADR    SIVB3
000224:
000225: 25,2670           05701                           TC       FIXDELAY                              #  WAIT 1 SECOND
000226: 25,2671           00144                           DEC      100        B-14
000227:
000228: 25,2672           05101        SIVB3              TC       1LMP+DT
000229: 25,2673           00212                           DEC      138        B-14                       #  XMTR/RCVR (S-BAND) - PRIM *
000230: 25,2674           00454                           DEC      300        B-14                       #  WAIT 3 SECONDS
000231:
000232: 25,2675           05101                           TC       1LMP+DT
000233: 25,2676           00072                           DEC      58         B-14                       #  LEM/SIVB SEPARATE ARM - ON *
000234: 25,2677           00062                           DEC      50         B-14                       #  WAIT 500 MILLISECONDS
000235:
000236: 25,2700           40077                           CS       DAPBOOLS                              #  ENABLE DAP
000237: 25,2701           77751                           MASK     GODAPGO
000238: 25,2702           26077                           ADS      DAPBOOLS
000239:
000240: 25,2703           04161                           TC       PHASCHNG
000241: 25,2704           47012                           OCT      47012
000242: 25,2705           00062                           DEC      50         B-14
000243: 25,2706  E4,1566                                  EBANK=   TDEC
000244: 25,2706           02712 52064                     2CADR    SIVB3A
000245:
000246: 25,2710           05701                           TC       FIXDELAY                              #  WAIT 500 MILLISECONDS
000247: 25,2711           00062                           DEC      50         B-14
000248:
000249: 25,2712           05270        SIVB3A             TC       IBNKCALL
000250: 25,2713           40072                           CADR     SETRATE                               #  HOLD VEHICLE ATTITUDE RATE
000251:
000252: 25,2714           05101                           TC       1LMP+DT
000253: 25,2715           00132                           DEC      90         B-14                       #  LEM/SIVB SEPARATE - COMMAND **
000254: 25,2716           00012                           DEC      10         B-14                       #  WAIT 100 MILLISECONDS
000255:
000256: 25,2717           05270                           TC       IBNKCALL                              #  DEADBAND SELECT - MIN
000257: 25,2720           40046                           CADR     SETMINDB
000258:
000259: 25,2721           40075                           CS       FLAGWRD1                              #  SETS SIVBGONE TO 1
000260: 25,2722           77760                           MASK     BIT4
000261: 25,2723           26075                           ADS      FLAGWRD1
000262:
000263: 25,2724           04161                           TC       PHASCHNG
000264: 25,2725           47012                           OCT      47012
000265: 25,2726           00132                           DEC      90         B-14
000266: 25,2727  E4,1566                                  EBANK=   TDEC
000267: 25,2727           02733 52064                     2CADR    SIVB3B
000268:


000270: 25,2731           05701                           TC       FIXDELAY                              #  WAIT 900 MILLISECONDS
000271: 25,2732           00132                           DEC      90         B-14
000272:
000273: 25,2733           05101        SIVB3B             TC       1LMP+DT
000274: 25,2734           00073                           DEC      59         B-14                       #  LEM/SIVB SEPARATE ARM - OFF *
000275: 25,2735           00144                           DEC      100        B-14                       #  WAIT 1 SECOND
000276:
000277: 25,2736           05101                           TC       1LMP+DT
000278: 25,2737           00133                           DEC      91         B-14                       #  RESET **
000279: 25,2740           00454                           DEC      300        B-14                       #  WAIT 3 SECONDS
000280:
000281: 25,2741           05270                           TC       IBNKCALL                              #  COMMAND +X TRANSLATION - OFF (4 JET)
000282: 25,2742           40066                           CADR     NOULLAGE
000283:
000284: 25,2743           04161                           TC       PHASCHNG
000285: 25,2744           47012                           OCT      47012
000286: 25,2745           00764                           DEC      500        B-14
000287: 25,2746  E4,1566                                  EBANK=   TDEC
000288: 25,2746           02752 52064                     2CADR    SIVB4
000289:
000290: 25,2750           05701                           TC       FIXDELAY                              #  WAIT 5 SECONDS
000291: 25,2751           00764                           DEC      500        B-14
000292:
000293: 25,2752           05270        SIVB4              TC       IBNKCALL                              #  COMMAND +X TRANSLATION - ON (4 JET)
000294: 25,2753           40062                           CADR     ULLAGE
000295:
000296: 25,2754           04161                           TC       PHASCHNG
000297: 25,2755           47012                           OCT      47012
000298: 25,2756           00764                           DEC      500        B-14
000299: 25,2757  E4,1566                                  EBANK=   TDEC
000300: 25,2757           02763 52064                     2CADR    SIVB5
000301:
000302: 25,2761           05701                           TC       FIXDELAY                              #  WAIT 5 SECONDS
000303: 25,2762           00764                           DEC      500        B-14
000304:
000305: 25,2763           05270        SIVB5              TC       IBNKCALL                              #  COMMAND +X TRANSLATION - OFF (4 JET)
000306: 25,2764           40066                           CADR     NOULLAGE
000307:
000308: 25,2765           06067                           TC       FLAG1DWN                              #  KNOCK DOWN AVERAGEG FLAG
000309: 25,2766           00001                           OCT      00001
000310:
000311: 25,2767           05270                           TC       IBNKCALL                              #  HOLD LEM ATTITUDE
000312: 25,2770           40114                           CADR     STOPRATE
000313:
000314: 25,2771           05270                           TC       IBNKCALL                              #  DEADBAND SELECT - MAX
000315: 25,2772           40054                           CADR     SETMAXDB
000316:
000317: 25,2773           04141                           TC       2PHSCHNG
000318: 25,2774           00002                           OCT      00002
000319: 25,2775           05013                           OCT      05013


000321: 25,2776           77777                           OCT      77777
000322:
000323: 25,2777           05126                           TC       MPENTRY                               #  SCHEDULE DPS COLD SOAK
000324: 25,3000           00004                           DEC      4          B-14                       #  TIMER NO. 4
000325: 25,3001           00010                           DEC      8          B-14                       #  MISSION PHASE 8
000326: 25,3002           01751                           ADRES    MPDTO8
000327:
000328: 25,3003           15727                           TCF      TASKOVER
000329:


000331: 25,3004           00310        2SEC               DEC      200        B-14
000332: 25,3005           07640        40SEC              DEC      4000       B-14
000333: 25,3006           00001 10024  MP07DELT           2DEC     20500      B-28
000334:
000335: 25,3010  E4,1566                                  EBANK=   TDEC
000336: 25,3010           02341 16064  MIDAVE2C           2CADR    MIDTOAVE
000337:
000338: 25,3012  E4,1566                                  EBANK=   TDEC
000339: 25,3012           02324 60064  SVREXIT            2CADR    SERVEXIT
000340:
000341: 25,3014           00252        JETS+X             OCT      00252
000342: 25,3015           02251        AVRAGEG7           GENADR   AVERAGEG
000343:
000344:
000345:
000346:
000347:
000348: 25,3016           04141        TIG-30             TC       2PHSCHNG
000349: 25,3017           00004                           OCT      00004
000350: 25,3020           00335                           OCT      00335                                 #  5.33 SPOT FOR PREREAD
000351:
000352: 25,3021           37763                           CAF      BIT1
000353: 25,3022           05663                           TC       WAITLIST
000354: 25,3023  E5,1506                                  EBANK=   DVTOTAL
000355: 25,3023           02000 60065                     2CADR    PREREAD
000356:
000357: 25,3025           15727                           TCF      TASKOVER

End of include-file MP_7-SIVB_LEM_SEPARATION.agc.  Parent file is MAIN.agc


