
Source Code


000002:                                                                                                  ## Copyright:   Public domain.
000003:                                                                                                  ## Filename:    OPTIMUM_PRELAUNCH_ALIGNMENT_CALIBRATION.agc
000004:                                                                                                  ## Purpose:     A module for revision 0 of BURST120 (Sunburst). It
000005:                                                                                                  ##              is part of the source code for the Lunar Module's
000006:                                                                                                  ##              (LM) Apollo Guidance Computer (AGC) for Apollo 5.
000007:                                                                                                  ## Assembler:   yaYUL
000008:                                                                                                  ## Contact:     Ron Burkey <info@sandroid.org>.
000009:                                                                                                  ## Website:     www.ibiblio.org/apollo/index.html
000010:                                                                                                  ## Mod history: 2016-09-30 RSB  Created draft version.
000011:                                                                                                  ##              2016-10-18 RSB  Transcribed by correcting Aurora 12 version of
000012:                                                                                                  ##                              this file.
000013:                                                                                                  ##              2016-10-31 RSB  Typos.
000014:                                                                                                  ##              2016-11-01 RSB  More typos.
000015:


000017:                                                                                                  #  PROGRAM NAME-OPTIMUM PRELAUNCH ALIGNMENT CALIBRATION
000018:                                                                                                  #  DATE- NOVEMBER 2  1966
000019:                                                                                                  #  BY- GEORGE SCHMIDT IL 7-146 EXT. 126
000020:                                                                                                  #  MOD NO 2
000021:                                                                                                  #  FUNCTIONAL DESCRIPTION
000022:
000023:                                                                                                  #  THIS LOG SECTION CONSISTS OF PRELAUNCH ALIGNMENT AND GYRO DRIFT TESTS
000024:                                                                                                  #  INTEGRATED TOGETHER TO SAVE WORDS. IT IS COMPLETELY RESTART PROOFED.
000025:                                                                                                  #  THE PROLAUNCH ALIGNMENT TECHNIQUE IS BASICALLY THE SAME AS IN BLOCK 1
000026:                                                                                                  #  EXCEPT THAT IT HAS BEEN SIMPLIFIED IN THE SENSE THAT SMALL ANGLE APPROX.
000027:                                                                                                  #  HAVE BEEN USED. THE DRIFT TESTS USE A UNIQUE IMPLEMENTATION OF THE
000028:                                                                                                  #  OPTIMUM STATISTICAL FILTER. FOR A DESCRIPTION SEE E-1973.BOTH OF THESE
000029:                                                                                                  #  ROUTINES USE STANDARD SYSTEM TEST LEADIN PROCEDURES. THE INITIALIZATION
000030:                                                                                                  #  PROCEDURE FOR THE DRIFT TESTS IS IN THE JDC S. THE INITIALIZATION METHOD
000031:                                                                                                  #  FOR GYROCOMPASS IS IN A STG MEMO FOR EACH ASSEMBLY.
000032:                                                                                                  #  THIS LOG SECTION ALWAYS STARTS BY A CADR IN IMU PERF. TESTS 2 AND BEGINS
000033:                                                                                                  #  AT ESTIMS. THE PIPS ARE READ EVERY .5 SEC IN COMPASS AND 1 SEC IN DRIFT
000034:                                                                                                  #  TESTS. THEN IN BOTH CASES RELEVANT COMPUTATION IS DONE. THE KEY ERASABLE
000035:                                                                                                  #  IS GEOCOMPS- 0 WE ARE IN A DRIFT TEST -NONZERO WE ARE IN COMPASS.
000036:                                                                                                  #  THE GYROCOMPASS HAS THE CAPABILITY TO ALIGN TO ANY ORIENTATION,HAS THE
000037:                                                                                                  #  CAPABILITY TO BE COMPENSATED FOR
000038:                                                                                                  #  COMPONENT ERRORS,IS CAPABLE OF OPTICAL VERIFICATION( CSM ONLY).
000039:
000040:                                                                                                  #  SUBROUTINES CALLED
000041:
000042:                                                                                                  #  EARTHR, CALGTA,  OGC ZERO,ERTHRVSE,GCOMPZERO AND
000043:                                                                                                  #  IMU COMPENSATION
000044:                                                                                                  #  DURING OPTICAL VERIFICATION (CSM ONLY) ESSENTIALLY ALL OF INFLIGHT ALIGN
000045:                                                                                                  #  IS CALLED IN ONE WAY OR ANOTHER. SEE THE LISTING.
000046:
000047:                                                                                                  #  NORMAL EXIT
000048:
000049:                                                                                                  #  DRIFT TESTS- LENGTHOT GOES TO ZERO-RETURN TO IMU PERF TEST2 CONTROL
000050:                                                                                                  #  GYROCOMPASS-GRR RECEIVED OR G LEVEL EXCEEDS GLIFTOFF-START UP MP 2
000051:                                                                                                  #                                                       206 IMPLEMENTATION
000052:
000053:                                                                                                  #  ALARMS
000054:
000055:                                                                                                  #  1600     OVERFLOW IN DRIFT TEST
000056:                                                                                                  #  1601     BAD IMU TORQUE ABORT
000057:                                                                                                  #  1602     BAD OPTICS DURING VERIFICATION-RETURN TO COMPASS      CSM ONLY
000058:
000059:                                                                                                  #  OUTPUT
000060:
000061:                                                                                                  #  DRIFT TESTS- FLASHING DISPLAYS OF RESULTS-CONTROLLED IN IMU PERF TESTS 2
000062:                                                                                                  #  COMPASS-PROGRAM MODE LIGHTS TELL YOU WHAT PHASE OF PROGRAM YOU ARE IN
000063:                                                                                                  #     01    INITALIZING THE PLATFORM POSITION AND ERASABLE
000064:                                                                                                  #     02    GYROCOMPASSING
000065:                                                                                                  #     03    DOING OPTICAL VERIFICATION (CSM)
000066:                                                                                                  #     04    GRR SIGNAL RECEIVED FINISH UP TORQUE AND TC MP2JOB


000068:                                                                                                  #                                                       206 IMPLEMENTATION
000069:
000070:                                                                                                  #  DEBRIS
000071:
000072:                                                                                                  #  ALL CENTRALS,ALL OF EBANK XSM,AND 78 DEC LOCATIONS  (SEE STOREDTA..
000073:
000074: 35,2014                                           BANK     35
000075: 35,2014  E5,1400                                  EBANK=   XSM
000076:
000077:                                                                                                  #  G SCHMIDT SIMPLIFIED ESTIMATION PROGRAM FOR ALIGNMENT CALIBRATION. THE
000078:                                                                                                  #  PROGRAM IS COMPLETELY RESTART PROFED. DATA STORED IN BANK4.
000079: 35,2014           04161        ESTIMS             TC       PHASCHNG
000080: 35,2015           00075                           OCT      00075
000081: 35,2016           37763                           CAF      BIT1
000082: 35,2017           04105                           TC       SETRSTRT                              #  SET RESTART FLAG
000083:
000084: 35,2020           00004        RSTGTS1            INHINT                                         #   COMES HERE PHASE1 RESTART
000085: 35,2021           30025                           CA       TIME1
000086: 35,2022           55745                           TS       GTSWTLST
000087: 35,2023           47767                           CS       ZERO
000088: 35,2024           54037                           TS       PIPAX
000089: 35,2025           54040                           TS       PIPAY
000090: 35,2026           54041                           TS       PIPAZ
000091: 35,2027           54404                           TS       DELVX      +1
000092: 35,2030           54406                           TS       DELVY      +1
000093: 35,2031           54410                           TS       DELVZ      +1
000094: 35,2032           00003                           RELINT
000095: 35,2033           02773                           TC       SETUPER
000096: 35,2034           33315                           CA       77DECML
000097: 35,2035           55777                           TS       ZERONDX
000098: 35,2036           33316                           CA       ALXXXZ
000099: 35,2037           05206                           TC       BANKCALL
000100: 35,2040           51245                           CADR     ZEROING
000101: 35,2041           06112                           TC       INTPRET
000102: 35,2042           77775                           VLOAD
000103: 35,2043           33310                                    INTVAL     +2
000104: 35,2044           02601                           STORE    ALX1S
000105: 35,2045           77776                           EXIT
000106:
000107: 35,2046           11742                           CCS      GEOCOMPS                              #  GEOCOMPS IN NON ZERO IF COMPASS
000108: 35,2047           02051                           TC       +2
000109: 35,2050           02720                           TC       SLEEPIE    +1
000110: 35,2051           31527                           CA       LENGTHOT                              #    TIMES FIVE IS THE NUM OF SEC ERECTING
000111: 35,2052           55746                           TS       ERECTIME
000112:
000113: 35,2053           37763                           CA       ONE
000114: 35,2054           54764                           TS       PHASENUM
000115: 35,2055           04117                           TC       NEWMODEX
000116: 35,2056           00002                           OCT      02
000117: 35,2057           05206                           TC       BANKCALL
000118: 35,2060           25606                           CADR     GCOMPZER                              #    ZERO COMPENSATION PROGRAM REGISTERS
000119: 35,2061           02770                           TC       ANNNNNN
000120:


000122: 35,2062           30025        ALLOOP             CA       TIME1
000123: 35,2063           57745                           XCH      GTSWTLST                              #  STORE TIME TO SET UP NEXT WAITLIST
000124: 35,2064           55743                           TS       OLDGT                                 #  SAVE LAST READ TIME.
000125:
000126: 35,2065           31664        ALLOOP3            CA       ALTIM
000127: 35,2066           55716                           TS       GEOSAVED
000128: 35,2067           04161                           TC       PHASCHNG
000129: 35,2070           00115                           OCT      00115
000130: 35,2071           31716        ALLOOP1            CA       GEOSAVED
000131: 35,2072           55664                           TS       ALTIM
000132: 35,2073           10000                           CCS      A
000133: 35,2074           30000                           CA       A                                     #  SHOULD NEVER HIT THIS LOCATION
000134: 35,2075           55665                           TS       ALTIMS
000135: 35,2076           40000                           CS       A
000136: 35,2077           55664                           TS       ALTIM
000137: 35,2100           30037                           CA       PIPAX
000138: 35,2101           54403                           TS       DELVX
000139: 35,2102           30040                           CA       PIPAY
000140: 35,2103           54405                           TS       DELVY
000141: 35,2104           30041                           CA       PIPAZ
000142: 35,2105           54407                           TS       DELVZ
000143: 35,2106           33334                           CA       SCHOCT23
000144: 35,2107           04246                           TC       NEWPHASE
000145: 35,2110           00005                           OCT      00005
000146: 35,2111           47767        SPECSTS            CS       ZERO
000147: 35,2112           54037                           TS       PIPAX
000148: 35,2113           54040                           TS       PIPAY
000149: 35,2114           54041                           TS       PIPAZ
000150: 35,2115           37746                           CAF      PRIO20
000151: 35,2116           05516                           TC       FINDVAC
000152: 35,2117  E5,1400                                  EBANK=   XSM
000153: 35,2117           02122 72065                     2CADR    ALFLT                                 #  START THE JOB
000154:
000155: 35,2121           05727                           TC       TASKOVER
000156:


000158: 35,2122           03004        ALFLT              TC       STOREDTA                              #   STORE DATA IN CASE OF RESTART IN JOB
000159: 35,2123           04161                           TC       PHASCHNG                              #  THIS IS THE JOB DONE EVERY ITERATION
000160: 35,2124           00215                           OCT      00215
000161: 35,2125           12127                           TCF      +2
000162: 35,2126           03025        ALFLT1             TC       LOADSTDT                              #  COMES HERE ON RESTART
000163: 35,2127           11742                           CCS      GEOCOMPS
000164: 35,2130           02132                           TC       +2
000165: 35,2131           02156                           TC       NORMLOP
000166: 35,2132           03371                           TC       CHKCOMED                              #       SEE IF PRELAUNCH OVER
000167: 35,2133           05206                           TC       BANKCALL                              #   COMPENSATION IF IN COMPASS
000168: 35,2134           25222                           CADR     1/PIPA
000169: 35,2135           41745                           CS       GTSWTLST                              #  SEE IF MEASURED DELV LOOKS LIKE LIFTOFF
000170: 35,2136           61743                           AD       OLDGT                                 #  HAS OCCURRED.
000171: 35,2137           00006                           EXTEND
000172: 35,2140           62143                           BZMF     +3
000173: 35,2141           67744                           AD       NEG1/2                                #  (IF TIME1 OVERFLOWED)
000174: 35,2142           67744                           AD       NEG1/2
000175: 35,2143           54147                           TS       MPAC       +3                         #  DT STORED NEGATIVELY
000176:
000177: 35,2144           06112                           TC       INTPRET
000178:
000179: 35,2145           42535                           SLOAD    SL4                                   #  SCALE DT AT 2(+10) CS.
000180: 35,2146           00150                                    MPAC       +3
000181: 35,2147           51515                           PDVL     ABVAL
000182: 35,2150           00404                                    DELV
000183: 35,2151           77671                           DDV                                            #  GET ACC (NEG) IN M/SEC SQ SCALED 2(4)
000184: 35,2152           50015                           DAD      BMN                                   #  (DV OVFLOW GIVES DP POSMAX)
000185: 35,2153           01765                                    GLIFTOFF                              #  WHEN GLIFTOFF = DP POSMAX, THIS KIND OF
000186: 35,2154           73401                                    GRRNOW                                #  LIFTOFF DIRECTION IS INHIBITED.
000187: 35,2155           77776                           EXIT                                           #  CONTINUE GYROCOMPASS IF NOT LIFTOFF.
000188:
000189: 35,2156           00006        NORMLOP            EXTEND
000190: 35,2157           33306                           DCA      INTVAL
000191: 35,2160           50110                           INDEX    FIXLOC
000192: 35,2161           52051                           DXCH     S1
000193: 35,2162           11742                           CCS      GEOCOMPS
000194: 35,2163           02203                           TC       PALFLT                                #  COMPASS
000195: 35,2164           06112                           TC       INTPRET                               #  NO COMPZSS
000196: 35,2165           50135        ALCGKK             SLOAD    BMN
000197: 35,2166           02666                                    ALTIMS
000198: 35,2167           72204                                    ALFLT2
000199: 35,2170           72174        ALKCG              AXT,2    LXA,1                                 #  LOADS SLOPES AND TIME CONSTANTS AT RQST
000200: 35,2171           00014                                    12D
000201: 35,2172           02600                                    ALX1S
000202: 35,2173           62143        ALKCG2             DLOAD*   INCR,1
000203: 35,2174           33300                                    ALFDK      +144D,1
000204: 35,2175           77775                           DEC      -2         B-14
000205: 35,2176           12701                           STORE    ALDK       +10D,2
000206: 35,2177           66104                           TIX,2    SXA,1
000207: 35,2200           72173                                    ALKCG2


000209: 35,2201           02600                                    ALX1S
000210:
000211: 35,2202           77776                           EXIT
000212: 35,2203           06112        PALFLT             TC       INTPRET
000213: 35,2204           61375        ALFLT2             VLOAD    VXM
000214: 35,2205           00404                                    DELVX
000215: 35,2206           02750                                    GEOMTRX
000216: 35,2207           77772                           VSL1
000217: 35,2210           57545                           DLOAD    DCOMP
000218: 35,2211           00150                                    MPAC       +3
000219: 35,2212           16657                           STODL    DPIPAY
000220: 35,2213           00152                                    MPAC       +5
000221: 35,2214           02663                           STORE    DPIPAZ
000222:
000223: 35,2215           76001                           SETPD    AXT,1                                 #  MEASUREMENT INCORPORATION ROUTINES.
000224: 35,2216           00001                                    0
000225: 35,2217           00010                                    8D
000226: 35,2220           57535                           SLOAD    DCOMP
000227: 35,2221           02743                                    GEOCOMPS
000228: 35,2222           77640                           BMN
000229: 35,2223           72532                                    ALWAYSG                               #  DO A QUICK COMPASS
000230: 35,2224           41343        DELMLP             DLOAD*   DMP
000231: 35,2225           02667                                    DPIPAY     +8D,1
000232: 35,2226           33321                                    PIPASC
000233: 35,2227           42661                           SLR      DAD*
000234: 35,2230           21212                                    9D
000235: 35,2231           02715                                    DELM       +8D,1
000236: 35,2232           64623                           DSU*     PDDL*
000237: 35,2233           02635                                    INTY       +8D,1
000238: 35,2234           02655                                    VLAUN      +8D,1
000239: 35,2235           41223                           DSU*     DMP
000240: 35,2236           02627                                    VLAUNS     +8D,1
000241: 35,2237           33323                                    VELSC
000242: 35,2240           77732                           SL2R
000243: 35,2241           45415                           DAD      STADR
000244: 35,2242           71062                           STORE    DELM       +8D,1
000245: 35,2243           06717                           STORE    DELM       +10D,1
000246: 35,2244           77743                           DLOAD*
000247: 35,2245           02655                                    VLAUN      +8D,1
000248: 35,2246           06627                           STORE    VLAUNS     +8D,1
000249: 35,2247           77745                           DLOAD
000250: 35,2250           33304                                    INTVAL     -2
000251: 35,2251           06635                           STORE    INTY       +8D,1
000252: 35,2252           77100                           TIX,1    AXT,2
000253: 35,2253           72224                                    DELMLP
000254: 35,2254           00004                                    4
000255: 35,2255           56743        ALILP              DLOAD*   DMPR*
000256: 35,2256           75170                                    ALK        +4,2
000257: 35,2257           75104                                    ALDK       +4,2
000258: 35,2260           12607                           STORE    ALK        +4,2


000260: 35,2261           77104                           TIX,2    AXT,2
000261: 35,2262           72255                                    ALILP
000262: 35,2263           00010                                    8D
000263: 35,2264           66140        ALKLP              LXC,1    SXA,1
000264: 35,2265           02601                                    CMPX1
000265: 35,2266           02601                                    CMPX1
000266: 35,2267           56743                           DLOAD*   DMPR*
000267: 35,2270           02604                                    ALK        +1,1
000268: 35,2271           75062                                    DELM       +8D,2
000269: 35,2272           77613                           DAD*
000270: 35,2273           75142                                    INTY       +8D,2
000271: 35,2274           12635                           STORE    INTY       +8D,2
000272: 35,2275           42743                           DLOAD*   DAD*
000273: 35,2276           75160                                    ALK        +12D,2
000274: 35,2277           75074                                    ALDK       +12D,2
000275: 35,2300           12617                           STORE    ALK        +12D,2
000276: 35,2301           42673                           DMPR*    DAD*
000277: 35,2302           75062                                    DELM       +8D,2
000278: 35,2303           75132                                    INTY       +16D,2
000279: 35,2304           12645                           STORE    INTY       +16D,2
000280: 35,2305           40743                           DLOAD*   DMP*
000281: 35,2306           33326                                    ALSK       +1,1
000282: 35,2307           75062                                    DELM       +8D,2
000283: 35,2310           42772                           SL1R     DAD*
000284: 35,2311           75122                                    VLAUN      +8D,2
000285: 35,2312           12655                           STORE    VLAUN      +8D,2
000286: 35,2313           76104                           TIX,2    AXT,1
000287: 35,2314           72264                                    ALKLP
000288: 35,2315           00010                                    8D
000289:
000290:
000291: 35,2316           64743        LOOSE              DLOAD*   PDDL*
000292: 35,2317           02657                                    ACCWD      +8D,1
000293: 35,2320           02655                                    VLAUN      +8D,1
000294: 35,2321           55523                           PDDL*    VDEF
000295: 35,2322           02665                                    POSNV      +8D,1
000296: 35,2323           76521                           MXV      VSL1
000297: 35,2324           02721                                    TRANSM1
000298: 35,2325           77745                           DLOAD
000299: 35,2326           00145                                    MPAC
000300: 35,2327           06665                           STORE    POSNV      +8D,1
000301: 35,2330           77745                           DLOAD
000302: 35,2331           00150                                    MPAC       +3
000303: 35,2332           06655                           STORE    VLAUN      +8D,1
000304: 35,2333           77745                           DLOAD
000305: 35,2334           00152                                    MPAC       +5
000306: 35,2335           06657                           STORE    ACCWD      +8D,1
000307: 35,2336           77700                           TIX,1
000308: 35,2337           72316                                    LOOSE


000310:
000311: 35,2340           76174                           AXT,2    AXT,1                                 #  EVALUATE SINES AND COSINES
000312: 35,2341           00006                                    6
000313: 35,2342           00002                                    2
000314: 35,2343           57343        BOOP               DLOAD*   DMPR
000315: 35,2344           02637                                    ANGX       +2,1
000316: 35,2345           33331                                    GEORGEJ
000317: 35,2346           77722                           SR2R
000318: 35,2347           73406                           PUSH     SIN
000319: 35,2350           56172                           SL1R     XAD,1
000320: 35,2351           00046                                    X1
000321: 35,2352           10021                           STORE    16D,2
000322: 35,2353           77745                           DLOAD
000323: 35,2354           77746                           COS
000324: 35,2355           10027                           STORE    22D,2                                 #  COSINES
000325: 35,2356           71304                           TIX,2    DLOAD
000326: 35,2357           72343                                    BOOP
000327:
000328:
000329: 35,2360           00017                                    14D
000330: 35,2361           43312                           SL2      DAD
000331: 35,2362           02625                                    INTY
000332: 35,2363           16625                           STODL    INTY
000333: 35,2364           00015                                    12D
000334: 35,2365           56405                           DMP      SL3R
000335: 35,2366           00025                                    20D
000336: 35,2367           77615                           DAD
000337: 35,2370           02631                                    INTZ
000338: 35,2371           16631                           STODL    INTZ
000339: 35,2372           00021                                    16D
000340: 35,2373           57275                           DMPR     DMPR
000341: 35,2374           00023                                    18D
000342: 35,2375           00017                                    14D
000343: 35,2376           77712                           SL2
000344: 35,2377           57325                           PDDL     DMPR
000345: 35,2400           00013                                    10D
000346: 35,2401           00015                                    12D
000347: 35,2402           77615                           DAD
000348: 35,2403           77675                           DMPR
000349: 35,2404           02573                                    WANGI
000350: 35,2405           57325                           PDDL     DMPR
000351: 35,2406           00023                                    18D
000352: 35,2407           00025                                    20D
000353: 35,2410           66405                           DMP      SL2R
000354: 35,2411           02571                                    WANGO
000355: 35,2412           77621                           BDSU
000356: 35,2413           02637                                    DRIFTO
000357: 35,2414           45425                           DSU      STADR
000358: 35,2415           61156                           STODL    WPLATO
000359: 35,2416           00021                                    16D


000361: 35,2417           41275                           DMPR     DMP
000362: 35,2420           00025                                    20D
000363: 35,2421           02573                                    WANGI
000364: 35,2422           77732                           SL2R
000365: 35,2423           57325                           PDDL     DMPR
000366: 35,2424           02571                                    WANGO
000367: 35,2425           00017                                    14D
000368: 35,2426           77615                           DAD
000369: 35,2427           02641                                    DRIFTI
000370: 35,2430           77625                           DSU
000371: 35,2431           57325                           PDDL     DMPR
000372: 35,2432           02575                                    WANGT
000373: 35,2433           02573                                    WANGI
000374: 35,2434           45415                           DAD      STADR
000375: 35,2435           61062                           STODL    WPLATI
000376: 35,2436           00023                                    18D
000377: 35,2437           76405                           DMP      SL1R
000378: 35,2440           00013                                    10D
000379: 35,2441           57325                           PDDL     DMPR
000380: 35,2442           00015                                    12D
000381: 35,2443           00021                                    16D
000382: 35,2444           76405                           DMP      SL1R
000383: 35,2445           00017                                    14D
000384: 35,2446           77621                           BDSU
000385: 35,2447           77675                           DMPR
000386: 35,2450           02573                                    WANGI
000387: 35,2451           57325                           PDDL     DMPR
000388: 35,2452           00015                                    12D
000389: 35,2453           00025                                    20D
000390: 35,2454           76405                           DMP      SL1R
000391: 35,2455           02571                                    WANGO
000392: 35,2456           77621                           BDSU
000393: 35,2457           02577                                    DRIFTT
000394: 35,2460           77615                           DAD                                            #   WPLATT NOW IN MPAC
000395: 35,2461           77606                           PUSH                                           #  PUSH IT DOWN-X IT BY SANG +2
000396: 35,2462           74475                           DMPR     SR1R
000397: 35,2463           00015                                    12D
000398: 35,2464           57325                           PDDL     DMPR
000399: 35,2465           02621                                    WPLATO
000400: 35,2466           00023                                    18D
000401: 35,2467           77615                           DAD
000402: 35,2470           77671                           DDV
000403: 35,2471           00025                                    20D
000404: 35,2472           57206                           PUSH     DMPR
000405: 35,2473           33333                                    GEORGEK
000406: 35,2474           43261                           SRR      DAD
000407: 35,2475           21616                                    13D
000408: 35,2476           02635                                    ANGX
000409: 35,2477           16635                           STODL    ANGX
000410: 35,2500           43275                           DMPR     DAD


000412: 35,2501           00017                                    14D
000413: 35,2502           02715                                    WPLATI
000414: 35,2503           54275                           DMPR     SRR
000415: 35,2504           33333                                    GEORGEK
000416: 35,2505           21616                                    13D
000417: 35,2506           77615                           DAD
000418: 35,2507           02633                                    ANGY
000419: 35,2510           16633                           STODL    ANGY
000420: 35,2511           00023                                    18D
000421: 35,2512           76405                           DMP      SL1R                                  #  MULTIPLY X WPLATT -SL1- PUSH AND RELOAD
000422: 35,2513           57325                           PDDL     DMPR
000423: 35,2514           00015                                    12D
000424: 35,2515           02621                                    WPLATO
000425: 35,2516           77621                           BDSU
000426: 35,2517           54275                           DMPR     SRR
000427: 35,2520           33333                                    GEORGEK
000428: 35,2521           21616                                    13D
000429: 35,2522           77615                           DAD
000430: 35,2523           02627                                    ANGZ
000431: 35,2524           02627                           STORE    ANGZ
000432: 35,2525           77404                           BOVB     EXIT
000433: 35,2526           72750                                    SOMEERRR
000434: 35,2527           11527                           CCS      LENGTHOT
000435: 35,2530           02717                           TC       SLEEPIE
000436: 35,2531           02664                           TC       SETUPER1
000437:
000438:
000439: 35,2532           44743        ALWAYSG            DLOAD*   DSU*                                  #  COMPASS AND ERECT
000440: 35,2533           02667                                    DPIPAY     +8D,1
000441: 35,2534           02655                                    FILDELV    +8D,1
000442: 35,2535           42675                           DMPR     DAD*
000443: 35,2536           33336                                    GEOCONS1
000444: 35,2537           02655                                    FILDELV    +8D,1
000445: 35,2540           06655                           STORE    FILDELV    +8D,1
000446: 35,2541           77613                           DAD*
000447: 35,2542           02657                                    INTVEC     +8D,1
000448: 35,2543           06657                           STORE    INTVEC     +8D,1
000449: 35,2544           42675                           DMPR     DAD*
000450: 35,2545           33340                                    GEOCONS2
000451: 35,2546           02655                                    FILDELV    +8D,1
000452: 35,2547           41475                           DMPR     PUSH
000453: 35,2550           33336                                    GEOCONS1
000454: 35,2551           67300                           TIX,1    SLOAD
000455: 35,2552           72532                                    ALWAYSG
000456: 35,2553           02747                                    ERECTIME
000457: 35,2554           71254                           BZE      DLOAD
000458: 35,2555           72566                                    COMPGS                                #  COMPASS
000459: 35,2556           02627                                    THETAN     +2
000460: 35,2557           45425                           DSU      STADR


000462: 35,2560           61150                           STODL    THETAN     +2
000463: 35,2561           77621                           BDSU
000464: 35,2562           02631                                    THETAN     +4
000465: 35,2563           02631                           STORE    THETAN     +4
000466: 35,2564           77650                           GOTO
000467: 35,2565           72610                                    ADDINDRF
000468: 35,2566           43345        COMPGS             DLOAD    DAD                                   #  COMPASS
000469: 35,2567           02625                                    THETAN
000470: 35,2570           02645                                    FILDELV
000471: 35,2571           16625                           STODL    THETAN
000472: 35,2572           02645                                    FILDELV
000473: 35,2573           44275                           DMPR     BDSU
000474: 35,2574           33342                                    GEOCONS3
000475: 35,2575           02631                                    THETAN     +4
000476: 35,2576           16631                           STODL    THETAN     +4
000477: 35,2577           02651                                    FILDELV    +4
000478: 35,2600           44275                           DMPR     BDSU
000479: 35,2601           33342                                    GEOCONS3
000480: 35,2602           02627                                    THETAN     +2
000481: 35,2603           41325                           PDDL     DMP
000482: 35,2604           02653                                    INTVEC     +4
000483: 35,2605           33344                                    GEOCONS4
000484: 35,2606           45421                           BDSU     STADR
000485: 35,2607           75150                           STORE    THETAN     +2
000486: 35,2610           77775        ADDINDRF           VLOAD
000487: 35,2611           02625                                    THETAN
000488: 35,2612           03564                           STORE    COMPTORK                              #  IN E7 FOR DOWNLINK.
000489: 35,2613           77776                           EXIT
000490:
000491: 35,2614           11527        ENDGTSAL           CCS      LENGTHOT                              #   IS 5 SEC OVER-THE TIME TO TORQ PLATFORM
000492: 35,2615           02717                           TC       SLEEPIE                               #   NO-SET UP NEXT WAITLIST CALL FOR .5 SEC
000493: 35,2616           10356                           CCS      LGYRO                                 #   YES BUT ARE GYROS BUSY
000494: 35,2617           12772                           TCF      ANNNNNN    +2                         #   BUSY-GET THEM .5 SECONDS FROM NOW
000495:
000496:
000497: 35,2620           03371                           TC       CHKCOMED                              #  SEE IF LAST TIME FOR COMPASS
000498:
000499: 35,2621           06112        LASTGTS            TC       INTPRET
000500: 35,2622           77775                           VLOAD
000501: 35,2623           02772                                    ERCOMP
000502: 35,2624           16617                           STODL    THETAX
000503: 35,2625           02565                                    TMARK
000504: 35,2626           02603                           STORE    ALK
000505: 35,2627           77776                           EXIT                                           #  PREVIOUS SECTION WAS FOR RESTARTS
000506:
000507: 35,2630           04161        RESTAIER           TC       PHASCHNG
000508:
000509: 35,2631           00255                           OCT      00255
000510: 35,2632           06112                           TC       INTPRET                               #  ADD COMPASS COMMANDS INTO ERATE


000512: 35,2633           64375                           VLOAD    MXV
000513: 35,2634           02625                                    THETAN
000514: 35,2635           02750                                    GEOMTRX
000515: 35,2636           53372                           VSL1     VAD
000516: 35,2637           02617                                    THETAX
000517: 35,2640           16772                           STODL    ERCOMP
000518: 35,2641           02603                                    ALK
000519: 35,2642           02565                           STORE    TMARK
000520: 35,2643           77776                           EXIT
000521: 35,2644           05206                           TC       BANKCALL
000522: 35,2645           30424                           CADR     EARTHR                                #  TORQUE IT ALL IN
000523: 35,2646           31746                           CA       ERECTIME
000524: 35,2647           55716                           TS       GEOSAVED
000525: 35,2650           12757        RESTEST1           TCF      NOCHORLD
000526:
000527: 35,2651           00004        REDO3.27           INHINT                                         #  PRELAUNCH DONE
000528: 35,2652           04133                           TC       CHECKMM
000529: 35,2653           00011                           OCT      11                                    #  SEE IF LIFTOFF IS DISPLAYED
000530: 35,2654           02656                           TC       +2                                    #  NO , DISPLAY MM 7.
000531: 35,2655           15567                           TCF      ENDOFJOB                              #  LIFTOFF DISPLAYED - IGNORE MM 7.
000532:
000533: 35,2656           04117                           TC       NEWMODEX                              #  PRELAUNCH DONE
000534: 35,2657           00007                           OCT      7                                     #  DISPLAY MAJOR MODE 7
000535: 35,2660           37767                           CAF      ZERO
000536: 35,2661           04246                           TC       NEWPHASE                              #  TURN OFF FINAL PRELAUNCH PROTECTION.
000537: 35,2662           00003                           OCT      00003
000538:
000539: 35,2663           15567                           TCF      ENDOFJOB                              #  TERMINATE PRELAUNCH
000540:
000541:
000542: 35,2664           06112        SETUPER1           TC       INTPRET
000543: 35,2665           65345                           DLOAD    PDDL                                  #  ANGLES FROM DRIFT TEST ONLY
000544: 35,2666           02627                                    ANGZ
000545: 35,2667           02633                                    ANGY
000546: 35,2670           55525                           PDDL     VDEF
000547: 35,2671           02635                                    ANGX
000548: 35,2672           74276                           VCOMP    VXSC
000549: 35,2673           33331                                    GEORGEJ
000550: 35,2674           74521                           MXV      VSR1
000551: 35,2675           02750                                    GEOMTRX
000552: 35,2676           02501                           STORE    OGC
000553: 35,2677           77776                           EXIT
000554:
000555:
000556: 35,2700           04161        TORQINCH           TC       PHASCHNG
000557: 35,2701           00175                           OCT      00175


000559: 35,2702           33317                           CA       AINGYRO
000560: 35,2703           05206                           TC       BANKCALL
000561: 35,2704           26362                           CADR     IMUPULSE
000562: 35,2705           05206                           TC       BANKCALL
000563: 35,2706           26751                           CADR     IMUSTALL
000564: 35,2707           02753                           TC       SOMERR2                               #  BAD GYRO TORQUE-END OF TEST
000565:


000567: 35,2710           11574        GEOSTRT4           CCS      TORQNDX                               #   ONLY POSITIVE IF IN VERTICAL DRIFT TEST
000568: 35,2711           02715                           TC       GEOBAVR                               #  VERT DRIFT TEST OVER
000569: 35,2712           02773                           TC       SETUPER                               #   SET UP ERATE FOR PIPTEST OR COMPASS
000570: 35,2713           05206                           TC       BANKCALL                              #  GO TO IMU2 FOR A PIPA TEST AND DISPLAY
000571: 35,2714           50102                           CADR     TORQUE
000572:
000573: 35,2715           05206        GEOBAVR            TC       BANKCALL
000574: 35,2716           50230                           CADR     VALMIS                                #   DISPLAY VERTICAL DRIFT
000575:
000576:


000578: 35,2717           55527        SLEEPIE            TS       LENGTHOT                              #  TEST NOT OVER-DECREMENT LENGTHOT
000579: 35,2720           04161                           TC       PHASCHNG                              #   CHANGE PHASE
000580: 35,2721           00135                           OCT      00135
000581: 35,2722           11574                           CCS      TORQNDX                               #  ARE WE DOING VERTDRIFT
000582: 35,2723           02725                           TC       EARTTPRQ                              #  YES,DO HOR ERATE TORQ THEN SLEEP
000583: 35,2724           02727                           TC       WTLISTNT                              #  GO TO SET UP NEXT WAITLIST
000584: 35,2725           05206        EARTTPRQ           TC       BANKCALL                              #  IN VERTDRIFT,ADD HOR ERATE AND SLEEP
000585: 35,2726           30424                           CADR     EARTHR
000586: 35,2727           03371        WTLISTNT           TC       CHKCOMED                              #  SEE IF GYROCOMPASS OVER
000587:
000588: 35,2730           00004                           INHINT
000589: 35,2731           40025                           CS       TIME1
000590: 35,2732           61745                           AD       GTSWTLST
000591: 35,2733           00006                           EXTEND
000592: 35,2734           62736                           BZMF     +2
000593: 35,2735           67745                           AD       NEGMAX
000594: 35,2736           61744                           AD       1SECXT                                #  1 SEC FOR CALIBRATION,.5 SEC IN COMPASS
000595: 35,2737           00006                           EXTEND
000596: 35,2740           62746                           BZMF     RIGHTGTS
000597: 35,2741           05663        WTGTSMPL           TC       WAITLIST
000598: 35,2742  E5,1400                                  EBANK=   XSM
000599: 35,2742           02062 72065                     2CADR    ALLOOP
000600:
000601: 35,2744           00003                           RELINT
000602: 35,2745           05567                           TC       ENDOFJOB
000603: 35,2746           37762        RIGHTGTS           CAF      TWO
000604: 35,2747           02741                           TC       WTGTSMPL
000605:
000606:
000607: 35,2750           04755        SOMEERRR           TC       ALARM
000608: 35,2751           01600                           OCT      1600
000609: 35,2752           02755                           TC       +3
000610: 35,2753           04755        SOMERR2            TC       ALARM
000611: 35,2754           01601                           OCT      1601
000612: 35,2755           05206                           TC       BANKCALL
000613: 35,2756           30770                           CADR     ENDTEST
000614:


000616: 35,2757           04161        NOCHORLD           TC       PHASCHNG
000617: 35,2760           00155                           OCT      00155
000618:
000619: 35,2761           06112                           TC       INTPRET
000620: 35,2762           77775                           VLOAD
000621: 35,2763           33300                                    SCHZEROS
000622: 35,2764           02625                           STORE    THETAN
000623: 35,2765           77776                           EXIT
000624: 35,2766           11716                           CCS      GEOSAVED
000625: 35,2767           55746                           TS       ERECTIME                              #         COUNTS DOWN FOR ERECTION
000626:
000627: 35,2770           34530        ANNNNNN            CAF      NINE
000628: 35,2771           55527                           TS       LENGTHOT
000629: 35,2772           02720                           TC       SLEEPIE    +1
000630:
000631: 35,2773           00006        SETUPER            EXTEND                                         #  SUBROUTINE CALLED IN 3 PLACES
000632: 35,2774           23547                           QXCH     QPLACES
000633: 35,2775           06112                           TC       INTPRET
000634: 35,2776           77624                           CALL
000635: 35,2777           30407                                    ERTHRVSE
000636: 35,3000           77776                           EXIT
000637: 35,3001           05206                           TC       BANKCALL
000638: 35,3002           30752                           CADR     OGCZERO
000639: 35,3003           01547                           TC       QPLACES
000640:


000642: 35,3004     5352               GEOBND             =        EBANK3
000643: 35,3004     5661               GEOBND1            =        EBANK5
000644: 35,3004           35352        STOREDTA           CAF      GEOBND
000645: 35,3005           54001                           TS       L
000646: 35,3006           33315                           CAF      77DECML
000647: 35,3007           54144                           TS       MPAC
000648: 35,3010           50144                           INDEX    MPAC
000649: 35,3011           31600                           CA       ALX1S
000650: 35,3012           22003                           LXCH     EBANK
000651: 35,3013  0001600                                  EBANK=   RESTRTCS
000652: 35,3013           50144                           INDEX    MPAC
000653: 35,3014           55600                           TS       RESTRTCS
000654: 35,3015           22003                           LXCH     EBANK
000655: 35,3016  E5,1400                                  EBANK=   XSM
000656: 35,3016           10144                           CCS      MPAC
000657: 35,3017           13021                           TCF      +2
000658: 35,3020           00002                           TC       Q
000659: 35,3021           54144                           TS       MPAC
000660: 35,3022           35352                           CAF      GEOBND
000661: 35,3023           54001                           TS       L
000662: 35,3024           13010                           TCF      STOREDTA   +4
000663:
000664:
000665: 35,3025           33315        LOADSTDT           CAF      77DECML
000666: 35,3026           54144                           TS       MPAC
000667: 35,3027           35352                           CA       GEOBND
000668: 35,3030           56003                           XCH      EBANK
000669: 35,3031           54001                           TS       L
000670: 35,3032  0001600                                  EBANK=   RESTRTCS
000671: 35,3032           50144                           INDEX    MPAC
000672: 35,3033           31600                           CA       RESTRTCS
000673: 35,3034           22003                           LXCH     EBANK
000674: 35,3035  E5,1400                                  EBANK=   XSM
000675: 35,3035           50144                           INDEX    MPAC
000676: 35,3036           55600                           TS       ALX1S
000677: 35,3037           10144                           CCS      MPAC
000678: 35,3040           13042                           TCF      +2
000679: 35,3041           00002                           TC       Q
000680: 35,3042           54144                           TS       MPAC
000681: 35,3043           13027                           TCF      LOADSTDT   +2
000682:


000684: 35,3044           00006        LOADXSM            EXTEND
000685: 35,3045           23547                           QXCH     QPLACES
000686: 35,3046           33346                           CAF      17DECML
000687: 35,3047           54144                           TS       MPAC
000688: 35,3050           50000                           INDEX    A
000689: 35,3051           31720                           CA       PRELMTRX
000690: 35,3052           50144                           INDEX    MPAC
000691: 35,3053           55400                           TS       XSM
000692: 35,3054           10144                           CCS      MPAC
000693: 35,3055           13047                           TCF      LOADXSM    +3
000694: 35,3056           01547                           TC       QPLACES
000695: 35,3057           77743        ALFDK              DEC      -28        B-14                       #  SLOPES AND TIME CONSTANTS FOR FIRST 30SC
000696: 35,3060           77776                           DEC      -1         B-14
000697: 35,3061           35143 10237                     2DEC     .91230833                             #  TIME CONSTANTS-PIPA OUTPUTS
000698:
000699: 35,3063           31766 26106                     2DEC     .81193187                             #  TIME CONSTANT-ERECTION ANGLES
000700:
000701: 35,3065           77772 43677                     2DEC     -.00035882                            #  SLOPE-AZIMUTH ANGLE
000702:
000703: 35,3067           77777 77661                     2DEC     -.00000029                            #  SLOPE-VERTICAL DRIFT
000704:
000705: 35,3071           00002 05420                     2DEC     .00013262                             #  SLOPE-NORTH SOUTH DRIFT
000706:
000707:
000708: 35,3073           77705                           DEC      -58        B-14                       #  31-90 SEC
000709: 35,3074           77776                           DEC      -1         B-14
000710: 35,3075           37560 05346                     2DEC     .99122133
000711:
000712: 35,3077           37522 15525                     2DEC     .98940595
000713:
000714: 35,3101           77763 41604                     2DEC     -.00079010
000715:
000716: 35,3103           77777 76470                     2DEC     -.00000265
000717:
000718: 35,3105           00007 02201                     2DEC     .00043154
000719:
000720:
000721: 35,3107           77767                           DEC      -8         B-14                       #  91-100 SEC
000722: 35,3110           77776                           DEC      -1         B-14
000723: 35,3111           37773 10042                     2DEC     .99971021
000724:
000725: 35,3113           37747 30232                     2DEC     .99852047
000726:
000727: 35,3115           00006 37666                     2DEC     .00042697
000728:
000729: 35,3117           77777 76703                     2DEC     -.00000213
000730:
000731: 35,3121           00001 36147                     2DEC     .00011864
000732:


000734: 35,3123           77635                           DEC      -98        B-14                       #  101-200 SEC
000735: 35,3124           77776                           DEC      -1         B-14
000736: 35,3125           37666 11022                     2DEC     .99550063
000737:
000738: 35,3127           37532 33647                     2DEC     .98992124
000739:
000740: 35,3131           00007 03641                     2DEC     .00043452
000741:
000742: 35,3133           77777 75713                     2DEC     -.00000401
000743:
000744: 35,3135           77774 54605                     2DEC     -.00021980
000745:
000746:
000747: 35,3137           77407                           DEC      -248       B-14                       #  201-450 SEC
000748: 35,3140           77776                           DEC      -1         B-14
000749: 35,3141           37712 16755                     2DEC     .99673264
000750:
000751: 35,3143           37630 01160                     2DEC     .99365467
000752:
000753: 35,3145           00000 23600                     2DEC     .00003767
000754:
000755: 35,3147           77777 63663                     2DEC     -.00002317
000756:
000757: 35,3151           77777 56527                     2DEC     -.00003305
000758:
000759:
000760: 35,3153           77255                           DEC      -338       B-14                       #  451-790 SEC
000761: 35,3154           77776                           DEC      -1         B-14
000762: 35,3155           37763 23341                     2DEC     .99924362
000763:
000764: 35,3157           37755 26170                     2DEC     .99888274
000765:
000766: 35,3161           00000 00254                     2DEC     .00000064
000767:
000768: 35,3163           77777 52755                     2DEC     -.00004012
000769:
000770: 35,3165           77777 76764                     2DEC     -.00000195
000771:
000772:
000773: 35,3167           77147                           DEC      -408       B-14                       #  791-1200 SEC
000774: 35,3170           77776                           DEC      -1         B-14
000775: 35,3171           37772 02343                     2DEC     .99963845
000776:
000777: 35,3173           37761 30560                     2DEC     .99913162
000778:
000779: 35,3175           00000 00362                     2DEC     .00000090
000780:


000782: 35,3177           00000 17261                     2DEC     .00002927
000783:
000784: 35,3201           77777 77671                     2DEC     -.00000026
000785:
000786:
000787: 35,3203           77015                           DEC      -498       B-14                       #  1201-1700 SEC
000788: 35,3204           77776                           DEC      -1         B-14
000789: 35,3205           37765 12403                     2DEC     .99934865
000790:
000791: 35,3207           37752 20062                     2DEC     .99868793
000792:
000793: 35,3211           00000 00224                     2DEC     .00000055
000794:
000795: 35,3213           00000 06150                     2DEC     .00001183
000796:
000797: 35,3215           77777 77762                     2DEC     -.00000005
000798:
000799:
000800: 35,3217           77161                           DEC      -398       B-14                       #  1701-2100 SEC
000801: 35,3220           77776                           DEC      -1         B-14
000802: 35,3221           37767 12513                     2DEC     .99947099
000803:
000804: 35,3223           37756 30343                     2DEC     .99894799
000805:
000806: 35,3225           00000 00060                     2DEC     .00000018
000807:
000808: 35,3227           00000 01445                     2DEC     .00000300
000809:
000810: 35,3231           77777 77774                     2DEC     -.00000001
000811:
000812:
000813: 35,3233           76651                           DEC      -598       B-14                       #  2101-2700 SEC
000814: 35,3234           77776                           DEC      -1         B-14
000815: 35,3235           37771 02603                     2DEC     .99957801
000816:
000817: 35,3237           37762 10061                     2DEC     .99916095
000818:
000819: 35,3241           00000 00023                     2DEC     .00000007
000820:
000821: 35,3243           00000 00402                     2DEC     .00000096
000822:
000823: 35,3245           00000 00000                     2DEC     .00000000
000824:
000825:
000826: 35,3247           76505                           DEC      -698       B-14                       #  2700-3400 SEC
000827: 35,3250           77776                           DEC      -1         B-14


000829: 35,3251           37772 22005                     2DEC     .99966814
000830:
000831: 35,3253           37765 05560                     2DEC     .99933952
000832:
000833: 35,3255           00000 00005                     2DEC     .00000002
000834:
000835: 35,3257           00000 00113                     2DEC     .00000028
000836:
000837: 35,3261           00000 00000                     2DEC     .00000000
000838:
000839:
000840: 35,3263           76651                           DEC      -598       B-14                       #  3401-4000 SEC
000841: 35,3264           77776                           DEC      -1         B-14
000842: 35,3265           37773 20750                     2DEC     .99972716
000843:
000844: 35,3267           37767 03044                     2DEC     .99945654
000845:
000846: 35,3271           00000 00003                     2DEC     .00000001
000847:
000848: 35,3273           00000 00033                     2DEC     .00000010
000849:
000850: 35,3275           00000 00000                     2DEC     .00000000
000851:
000852:
000853: 35,3277           00000 00000  SCHZEROS           2DEC     .00000000
000854:
000855: 35,3301           00000 00000                     2DEC     .00000000
000856:
000857: 35,3303           00000 00000                     2DEC     .00000000
000858:
000859: 35,3305           00004        INTVAL             OCT      4
000860: 35,3306           00002                           OCT      2
000861: 35,3307           00220                           DEC      144        B-14
000862: 35,3310           77776                           DEC      -1         B-14
000863: 35,3311           35730 00035  SOUPLY             2DEC     .93505870                             #  INITIAL GAINS FOR PIP OUTPUTS
000864:
000865: 35,3313           10317 17550                     2DEC     .26266423                             #  INITIAL GAINS/4 FOR ERECTION ANGLES
000866:
000867:
000868: 35,3315           00115        77DECML            DEC      77         B-14
000869: 35,3316           01577        ALXXXZ             GENADR   ALX1S      -1
000870: 35,3317           02500        AINGYRO            ECADR    OGC
000871: 35,3320           04133 02265  PIPASC             2DEC     .13055869
000872:
000873: 35,3322           57223 66451  VELSC              2DEC     -.52223476                            #  512/980.402
000874:
000875: 35,3324           05427 12577  ALSK               2DEC     .17329931                             #  SSWAY VEL GAIN X 980.402/4096
000876:


000878: 35,3326           77567 44202                     2DEC     -.00835370                            #  SSWAY ACCEL GAIN X 980.402/4096
000879:
000880:
000881: 35,3330           24276 14066  GEORGEJ            2DEC     .63661977
000882:
000883: 35,3332           23073 11773  GEORGEK            2DEC     .59737013
000884:
000885: 35,3334           00023        SCHOCT23           OCT      00023
000886: 35,3335           03146 14632  GEOCONS1           2DEC     .1
000887:
000888: 35,3337           00121 35341  GEOCONS2           2DEC     .005
000889:
000890: 35,3341           00631 23146  GEOCONS3           2DEC     .025
000891:
000892: 35,3343           00000 17565  GEOCONS4           2DEC     .00003
000893:
000894: 35,3345           06200        1/PIPAGT           OCT      06200
000895: 35,3346           00021        17DECML            DEC      17         B-14
000896: 35,3347           00023        19DECML            DEC      19         B-14
000897: 35,3350           00062        1/2SECX            DEC      50         B-14
000898:
000899:
000900: 35,3351           37763        GTSCPSS            CA       ONE
000901: 35,3352           55742                           TS       GEOCOMPS                              #  THIS IS THE LEAD IN FOR COMPASS
000902: 35,3353           04117                           TC       NEWMODEX
000903: 35,3354           00001                           OCT      01
000904: 35,3355           33345                           CA       1/PIPAGT
000905: 35,3356           54765                           TS       1/PIPADT
000906: 35,3357           37764                           CA       ELEVEN                                #  COMPASS IS POSITION 11
000907: 35,3360           55544                           TS       POSITON
000908: 35,3361           37754                           CA       BIT8                                  #  620 SECONDS ERECTING
000909: 35,3362           55527                           TS       LENGTHOT
000910: 35,3363           33350                           CAF      1/2SECX                               #  COMPASS IS A .5 SEC LOOP
000911: 35,3364           55744                           TS       1SECXT
000912: 35,3365           37767                           CAF      ZERO
000913: 35,3366           55536                           TS       NBPOS
000914: 35,3367           05206                           TC       BANKCALL
000915: 35,3370           50014                           CADR     GEOIMUTT
000916:
000917:
000918: 35,3371           30075        CHKCOMED           CA       FLAGWRD1                              #  CHECK FOR END OF COMPASS
000919: 35,3372           77762                           MASK     BIT2                                  #  TEST FOR GRR FLAG
000920: 35,3373           10000                           CCS      A
000921: 35,3374           13376                           TCF      PRELTERM                              #  YES  GRR HAS OCCURRED
000922: 35,3375           00002                           TC       Q                                     #  NO  CONTINUE
000923:


000925: 35,3376           04117        PRELTERM           TC       NEWMODEX
000926: 35,3377           00004                           OCT      04                                    #  04 IS END OF COMPASS
000927: 35,3400           12621                           TCF      LASTGTS                               #  GET LAST TORQUING
000928:
000929:
000930: 35,3401           77214        GRRNOW             SET      VLOAD                                 #  COME HERE WHEN DELV CHECK SHOWS LIFTOFF
000931: 35,3402           00475                                    GRRFLAG                               #  TO HAVE OCCURRED.
000932: 35,3403           00404                                    DELV
000933: 35,3404           01765                           STORE    DELVBUF
000934: 35,3405           77531                           SSP      EXIT
000935: 35,3406           01743                                    DT-LIFT                               #  START LIFTOFF 100 MS AFTER MP2TASK
000936: 35,3407           00012                                    10D
000937:
000938: 35,3410           00004                           INHINT
000939: 35,3411           35205                           CAF      1SEC+1                                #  DELAY TILL PRELAUNCH IF FINISHED, BUT
000940: 35,3412           05663                           TC       WAITLIST                              #  NOT SO LONG THAT READACCS HAPPENS FIRST.
000941: 35,3413  E5,1745                                  EBANK=   GTSWTLST
000942: 35,3413           02446 56065                     2CADR    LIFTFIXT
000943:
000944: 35,3415           00003                           RELINT
000945: 35,3416           13376                           TCF      PRELTERM
000946:

End of include-file OPTIMUM_PRELAUNCH_ALIGNMENT_CALIBRATION.agc.  Parent file is MAIN.agc


