
Source Code


000002:                                                                                                  ## Copyright:   Public domain.
000003:                                                                                                  ## Filename:    PHASE_TABLE_MAINTENANCE.agc
000004:                                                                                                  ## Purpose:     A module for revision 0 of BURST120 (Sunburst).
000005:                                                                                                  ##              It is part of the source code for the Lunar Module's (LM)
000006:                                                                                                  ##              Apollo Guidance Computer (AGC) for Apollo 5.
000007:                                                                                                  ## Assembler:   yaYUL
000008:                                                                                                  ## Contact:     Ron Burkey <info@sandroid.org>.
000009:                                                                                                  ## Website:     www.ibiblio.org/apollo/index.html
000010:                                                                                                  ## Mod history: 2016-09-30 RSB  Created draft version.
000011:                                                                                                  ##              2016-10-04 RSB  Corrected against the Sunburst page scans.
000012:                                                                                                  ##              2016-10-30 MAS  Corrected PHASJUMP->PHASCHNG.
000013:                                                                                                  ##              2016-11-01 RSB  Typos.
000014:                                                                                                  ##              2016-11-03 RSB  Added some SBANK= workarounds.
000015:


000017:                                                                                                  #  SUBROUTINE TO UPDATE THE PROGRAM NUMBER DISPLAY ON THE DSKY.
000018:
000019:    4117                                           BLOCK    02
000020:    4117           50002        NEWMODEX           INDEX    Q                                     #  UPDATE MODREG.  ENTRY FOR MODE IN FIXED.
000021:    4120           30000                           CAF      0
000022:    4121           24002                           INCR     Q
000023:
000024:    4122           56302        NEWMODEA           XCH      MODREG                                #  ENTRY FOR MODE IN A.
000025:    4123           40000                           COM                                            #  IF NO CHANGE IN MODE, RETURN IMMEDIATELY
000026:    4124           60302                           AD       MODREG
000027:    4125           00006                           EXTEND
000028:    4126           17020                           BZF      TCQ
000029:
000030:    4127           34132                           CAF      +3                                    #  CALL PINBALL SUBROUTINE
000031:    4130           22006        PREBJUMP           LXCH     BBANK                                 #  PUTS BBANK IN L
000032:    4131           15230                           TCF      BANKJUMP                              #  PUTS Q INTO A
000033:    4132           72000                           CADR     SETUPDSP
000034:
000035:                                                                                                  #  RETURN TO CALLER +3 IF MODE = THAT AT CALLER +1.  OTHERWISE RETURN TO CALLER +2.
000036:
000037:    4133           50002        CHECKMM            INDEX    Q
000038:    4134           40000                           CS       0
000039:    4135           60302                           AD       MODREG
000040:    4136           00006                           EXTEND
000041:    4137           17017                           BZF      Q+2
000042:    4140           17015                           TCF      Q+1                                   #  NO MATCH
000043:
000044:    4141     7020               TCQ                =        Q+2        +1
000045:
000046: 35,2000                                           BANK     35
000047:
000048: 35,2000           00004        SETUPDSP           INHINT
000049: 35,2001           52071                           DXCH     RUPTREG1                              #  SAVE CALLER-S RETURN 2CADR
000050: 35,2002           35210                           CAF      PRIO30                                #    EITHER A TASK OR JOB CAN COME TO
000051: 35,2003           05505                           TC       NOVAC                                 #    NEWMODEX
000052: 35,2004     0302                                  EBANK=   MODREG
000053: 35,2004           02011 72060                     2CADR    DSPMMJOB
000054:
000055: 35,2006           52071                           DXCH     RUPTREG1
000056: 35,2007           00003                           RELINT
000057: 35,2010           52006                           DXCH     Z                                     #  RETURN
000058:
000059: 35,2011           05206        DSPMMJOB           TC       BANKCALL
000060: 35,2012           13403                           CADR     DSPMM1
000061: 35,2013           15567                           TCF      ENDOFJOB
000062:
000063:    4141                                           BLOCK    02


000065:
000066:                                                                                                  #  PHASCHNG IS THE MAIN WAY OF MAKING PHASE CHANGES FOR RESTARTS.  THERE ARE THREE FORMS OF PHASCHNG, KNOWN AS TYPE
000067:                                                                                                  #  A, TYPE B, AND TYPE C.  THEY ARE ALL CALLED AS FOLLOWS, WHERE OCT XXXXX   CONTAINS THE PHASE INFORMATION,
000068:
000069:                                                                                                  #                TC      PHASCHNG
000070:                                                                                                  #                OCT     XXXXX
000071:
000072:                                                                                                  #  TYPE A IS CONCERNED WITH FIXED PHASE CHANGES, THAT IS, PHASE INFORMATION THAT IS STORED PERMANENTLY.  THESE
000073:                                                                                                  #  OPTIONS ARE, WHERE G STANDS FOR A GROUP AND .X FOR THE PHASE.
000074:
000075:                                                                                                  #        G.0             INACTIVE, WILL NOT PERMIT A GROUP G RESTART
000076:                                                                                                  #        G.1             WILL CAUSE THE LAST DISPLAY TO BE REACTIVATED, USED MAINLY IN MANNED FLIGHTS
000077:                                                                                                  #        G.EVEN          A DOUBLE TABLE RESTART, CAN CAUSE ANY COMBINATION OF TWO JOBS, TASKS, AND/OR
000078:                                                                                                  #                        LONGCALL TO BE RESTARTED.
000079:                                                                                                  #        G.ODD NOT .1    A SINGLE TABLE RESTART, CAN CAUSE EITHER A JOB, TASK, OR LONGCALL RESTART.
000080:
000081:                                                                                                  #  THIS INFORMATION IS PUT INTO THE OCTAL WORD AFTER TC PHASCHNG AS FOLLOWS
000082:
000083:                                                                                                  #        TL0 00P PPP PPP GGG
000084:
000085:                                                                                                  #  WHERE EACH LETTER OR NUMBER STANTS FOR A BIT.  THE G'S STAND FOR THE GROUP, OCTAL 1-7, THE P'S FOR THE PHASE,
000086:                                                                                                  #  OCTAL 0 - 127.  0'S MUST BE 0.              IF ONE WISHES TO HAVE THE TBASE OF GROUP G TO BE SET AT THIS TIME,
000087:                                                                                                  #  T IS SET TO 1, OTHERWISE IT IS SET TO 0.  SIMILARLY IF ONE WISHES TO SET LONGBASE, THEN L IS SET TO 1, OTHERWISE
000088:                                                                                                  #  IT IS SET TO 0.  SOME EXAMPLES,
000089:
000090:                                                                                                  #                TC      PHASCHNG        # THIS WILL CAUSE GROUP 3 TO BE SET TO 0,
000091:                                                                                                  #                OCT     00003           # MAKING GROUP 3 INACTIVE
000092:
000093:                                                                                                  #                TC      PHASCHNG        # IF A RESTART OCCURS THIS WOULD CAUSE
000094:                                                                                                  #                OCT     00012           # GROUP 2 TO RESTART THE LAST DISPLAY
000095:
000096:                                                                                                  #                TC      PHASCHNG        # THIS SETS THE TBASE OF GROUP 4 AND IN
000097:                                                                                                  #                OCT     40064           # CASE OF A RESTART WOULD START UP THE TWO
000098:                                                                                                  #                                        # THINGS LOCATED IN THE DOUBLE 4.6 RESTART
000099:                                                                                                  #                                        # LOCATION.
000100:
000101:                                                                                                  #                TC      PHASCHNG        # THIS SETS LONGBASE AND UPON A RESTART
000102:                                                                                                  #                OCT     20135           # CAUSES 5.13 TO BE RESTARTED (SINCE
000103:                                                                                                  #                                        # LONGBASE WAS SET THIS SINGLE ENTRY
000104:                                                                                                  #                                        # SHOULD BE A LONGCALL)
000105:
000106:                                                                                                  #                TC      PHASCHNG        # SINCE BOTH TBASE4 AND LONGBASE ARE SET,
000107:                                                                                                  #                OCT     60124           # 4.12 SHOULD CONTAIN BOTH A TASK AND A
000108:                                                                                                  #                                        # LONGCALL TO BE RESTARTED
000109:
000110:                                                                                                  #  TYPE C PHASCHNG CONTAINS THE VARIABLE TYPE OF PHASCHNG INFORMATION.  INSTEAD OF THE INFORMATION BEING IN A
000111:                                                                                                  #  PERMANENT FORM, ONE STORES THE DESIRED RESTART INFORMATION IN A VARIABLE LOCATION.  THE BITS ARE AS FOLLOWS,
000112:
000113:                                                                                                  #        TL0 1AD XXX CJW GGG
000114:
000115:                                                                                                  #  WHERE EACH LETTER OR NUMBER STANDS FOR A BIT.  THE G'S STAND FOR THE GROUP, OCTAL 1 - 7.  IF THE RESTART IS TO
000116:                                                                                                  #  BE BY WAITLIST, W IS SET TO 1, IF IT IS A JOB, J IS SET TO 1, IF IT IS A LONGCALL, C IS SET TO 1.  ONLY ONE OF
000117:                                                                                                  #  THESE THREE BITS MAY BE SET.  X'S ARE IGNORED, 1 MUST BE 1, AND 0 MUST BE 0.  AGAIN T STANDS FOR THE TBASE,


000119:                                                                                                  #  AND L FOR LONGBASE.  THE BITS A AND D ARE CONCERNED WITH THE VARIABLE INFORMATION.  IF D IS SET TO 1, A PRIORITY
000120:                                                                                                  #  OR DELTA TIME WILL BE READ FROM THE NEXT LOCATION AFTER THE OCTAL INFORMATION., IF THIS IS TO BE INDIRECT, THAT
000121:                                                                                                  #  IS, THE NAME OF A LOCATION CONTAINING THE INFORMATION (DELTA TIME ONLY), THEN THIS IS GIVEN AS THE -GENADR OF
000122:                                                                                                  #  THAT LOCATION WHICH CONTAINS THE DELTA TIME.  IF THE OLD PRIORITY OR DELTA TIME IS TO BE USED, THAT WHICH IS
000123:                                                                                                  #  ALREADY IN THE VARIABLE STORAGE, THEN D IS SET TO 0.  NEXT THE A BIT IS USED.  IF IT IS SET TO 0, THE ADDRESS
000124:                                                                                                  #  THAT WOULD BE RESTARTED DURING A RESTART IS THE NEXT LOCATION AFTER THE PHASE INFORMATION, THAT IS, EITHER
000125:                                                                                                  #  (TC PHASCHNG) +2 OR +3, DEPENDING ON WHETHER D HAD BEEN SET OR NOT.  IF A IS SET TO 1, THEN THE ADDRESS THAT
000126:                                                                                                  #  WOULD BE RESTARTED IS THE 2CADR THAT IS READ FROM THE NEXT TWO LOCATION.  EXAMPLES,
000127:
000128:                                                                                                  #        AD      TC      PHASCHNG        # THIS WOULD CAUSE LOCATION AD +3 TO BE
000129:                                                                                                  #        AD+1    OCT     05023           # RESTARTED BY GROUP THREE WITH A PRIORITY
000130:                                                                                                  #        AD+2    OCT     23000           # OF 23.  NOTE UPON RETURNING IT WOULD
000131:                                                                                                  #        AD+3                            # ALSO GO TO AD+3
000132:
000133:                                                                                                  #        AD      TC      PHASCHNG        # GROUP 1 WOULD CAUSE CALLCALL TO BE
000134:                                                                                                  #        AD+1    OCT     27441           # BE STARTED AS A LONGCALL FROM THE TIME
000135:                                                                                                  #        AD+2   -GENADR  DELTIME         # STORED IN LONGBASE (LONGBASE WAS SET) BY
000136:                                                                                                  #        AD+3    2CADR   CALLCALL        # A DELTA TIME STORED IN DELTIME.  THE
000137:                                                                                                  #        AD+4                            # BBCON OF THE 2CADR SHOULD CONTAIN THE E
000138:                                                                                                  #        AD+5                            # BANK OF DELTIME.  PHASCHNG RETURNS TO
000139:                                                                                                  #                                        # LOCATION AD+5
000140:
000141:                                                                                                  #  TYPE B PHASCHNG IS A COMBINATION OF VARIABLE AND FIXED PHASE CHANGES.  IT WILL START UP A JOB AS INDICATED
000142:                                                                                                  #  BELOW AND ALSO START UP ONE FIXED RESTART, THAT IS EITHER AN G.1 OR A G.ODD OR THE FIRST ENTRY OF G.EVEN
000143:                                                                                                  #  DOUBLE ENTRY.  THE BIT INFORMATION IS AS FOLLOWS,
000144:
000145:                                                                                                  #        TL1 DAP PPP PPP GGG
000146:
000147:                                                                                                  #  WHERE EACH LETTER OR NUMBER STANDS FOR A BIT.  THE G'S STAND FOR THE GROUP, OCTAL 1 - 7, THE P'S FOR THE FIXED
000148:                                                                                                  #  PHASE INFORMATION, OCTAL 0 - 127.  1 MUST BE 1.  AND AGAIN T STANDS FOR THE TBASE AND L FOR LONGBASE.  D THIS
000149:                                                                                                  #  TIME STANDS ONLY FOR PRIORITY SINCE THIS WILL BE CONSIDERED A JOB, AND IT MUST BE GIVEN DIRECTLY IF GIVEN.
000150:                                                                                                  #  AGAIN A STANDS FOR THE ADDRESS OF THE LOCATION TO BE RESTARTED, 1 IF THE 2CADR IS GIVEN, OR 0 IF IT IS TO BE
000151:                                                                                                  #  THE NEXT LOCATION.  (THE RETURN LOCATION OF PHASCHNG) EXAMPLES,
000152:
000153:                                                                                                  #        AD      TC      PHASCHNG        # TBASE IS SET AND A RESTART CAUSE GROUP 3
000154:                                                                                                  #        AD+1    OCT     56043           # TO START THE JOB AJOBAJOB WITH PRIORITY
000155:                                                                                                  #        AD+2    OCT     31000           # 31 AND THE FIRST ENTRY OF 3.4SPOT (WE CAN
000156:                                                                                                  #        AD+3    2CADR   AJOBAJOB        # ASSUME IT IS A TASK SINCE WE SET TBASE3)
000157:                                                                                                  #        AD+4                            # UPON RETURN FROM PHASCHNG CONTROL WOULD
000158:                                                                                                  #        AD+5                            # GO TO AD+5
000159:
000160:                                                                                                  #        AD      TC      PHASCHNG        # UPON A RESTART THE LAST DISPLAY WOULD BE
000161:                                                                                                  #        AD+1    OCT     10015           # RESTARTED AND A JOB WITH THE PREVIOUSLY
000162:                                                                                                  #        AD+2                            # STORED PRIORITY WOULD BE BEGUN AT AD+2
000163:                                                                                                  #                                        # BY MEANS OF GROUP 5
000164:
000165:                                                                                                  #  SUMMARY OF BITS:
000166:                                                                                                  #        TYPE A          TL0 00P PPP PPP GGG


000168:                                                                                                  #        TYPE B          TL1 DAP PPP PPP GGG
000169:
000170:                                                                                                  #        TYPE C          TL0 1AD XXX CJW GGG
000171:


000173:                                                                                                  #  2PHSCHNG IS USED WHEN ONE WISHES TO START UP A GROUP OR CHANGE A GROUP WHILE UNDER THE CONTROL OF A DIFFERENT
000174:                                                                                                  #  GROUP.  FOR EXAMPLE, CHANGE THE PHASE OF GROUP 3 WHILE THE PORTION OF THE PROGRAM IS UNDER GROUP 5.  ALL 2PHSCHNG
000175:                                                                                                  #  CALLS ARE MADE IN THE FOLLOWING MANNER,
000176:
000177:                                                                                                  #                TC      2PHSCHNG
000178:                                                                                                  #                OCT     XXXXX
000179:                                                                                                  #                OCT     YYYYY
000180:
000181:                                                                                                  #  WHERE OCT XXXXX MUST BE OF TYPE A AND OCT YYYYY MAY BE OF EITHER TYPE A OR TYPE B OR TYPE C.  THERE IS ONE
000182:                                                                                                  #  DIFFERENCE --- NOTE: IF LONGBASE IS TO BE SET THIS INFORMATION IS GIVEN IN THE OCT YYYYY INFORMATION, IT WILL
000183:                                                                                                  #  BE DISREGARDED IF GIVEN WITH THE OCT XXXXX INFORMATION.  A COUPLE OF EXAMPLES MAY HELP,
000184:
000185:                                                                                                  #        AD      TC      2PHACHNG        # SET TBASE3 AND IF A RESTART OCCURS START
000186:                                                                                                  #        AD+1    OCT     40083           # THE TWO ENTRIES IN 3.8 TABLE LOCATION
000187:                                                                                                  #        AD+2    OCT     05025           # THIS IS OF TYPE C, SET THE JOB TO BE
000188:                                                                                                  #        AD+3    OCT     18000           # TO BE LOCATION AD+4, WITH A PRIORITY 18,
000189:                                                                                                  #        AD+4                            # FOR GROUP 5 PHASE INFORMATION.
000190:
000191:    4141           00004        2PHSCHNG           INHINT                                         #  THE ENTRY FOR A DOUBLE PHASE CHANGE
000192:    4142           50002                           NDX      Q
000193:    4143           30000                           CA       0
000194:    4144           24002                           INCR     Q
000195:    4145           54072                           TS       TEMPP2
000196:
000197:    4146           77765                           MASK     OCT7
000198:    4147           60000                           DOUBLE
000199:    4150           54071                           TS       TEMPG2
000200:
000201:    4151           30072                           CA       TEMPP2
000202:    4152           74241                           MASK     OCT17770                              #  NEED ONLY 1770, BUT WHY GET A NEW CONST.
000203:    4153           00006                           EXTEND
000204:    4154           77750                           MP       BIT12
000205:    4155           56072                           XCH      TEMPP2
000206:
000207:    4156           77745                           MASK     BIT15
000208:    4157           54066                           TS       TEMPSW2                               #  INDICATES WHETHER TO SET TBASE OR NOT
000209:
000210:    4160           14164                           TCF      PHASCHNG   +3
000211:
000212:
000213:    4161           00004        PHASCHNG           INHINT
000214:    4162           37763                           CA       ONE                                   #  INDICATESW CAME FROM A PHASCHNG ENTRY
000215:    4163           54066                           TS       TEMPSW2
000216:
000217:    4164           50002                           NDX      Q
000218:    4165           30000                           CA       0
000219:    4166           24002                           INCR     Q
000220:    4167           54065                           TS       TEMPSW
000221:
000222:    4170           00006                           EXTEND


000224:    4171           34174                           DCA      ADRPCHN2                              #  OFF TO SWITCHED BANK
000225:    4172           52006                           DTCB
000226:


000228:    4173  30,2000                                  SBANK=   LOWSUPER
000229:    4173  E3,1400                                  EBANK=   LST1
000230:    4173           02634 14063  ADRPCHN2           2CADR    PHSCHNG2
000231:
000232:    4175           22073        ONEORTWO           LXCH     TEMPBBCN
000233:    4176           22006                           LXCH     BBANK
000234:    4177           22073                           LXCH     TEMPBBCN
000235:
000236:    4200           75640                           MASK     OCT14000                              #  SEE WHAT KIND OF PHASE CHANGE IT IS
000237:    4201           10000                           CCS      A
000238:    4202           14242                           TCF      CHECKB                                #  IT IS OF TYPE ;B;.
000239:
000240:    4203           30062                           CA       TEMPP
000241:    4204           77755                           MASK     BIT7
000242:    4205           10000                           CCS      A                                     #  SHALL WE USE THE OLD PRIORITY
000243:    4206           14226                           TCF      GETPRIO                               #  NO GET A NEW PRIORITY (OR DELTA T)
000244:
000245:    4207           50061        OLDPRIO            NDX      TEMPG                                 #  USE THE OLD PRIORITY (OR DELTA T)
000246:    4210           31112                           CA       PHSPRDT1   -2
000247:    4211           54070                           TS       TEMPPR
000248:
000249:    4212           30062        CON1               CA       TEMPP                                 #  SEE IF A 2CADR IS GIVEN
000250:    4213           77754                           MASK     BIT8
000251:    4214           10000                           CCS      A
000252:    4215           14232                           TCF      GETNEWNM
000253:
000254:    4216           30002                           CA       Q
000255:    4217           54063                           TS       TEMPNM
000256:    4220           30006                           CA       BB
000257:    4221           54064                           TS       TEMPBB
000258:
000259:    4222           34225        TOCON2             CA       CON2ADR                               #  BACK TO SWITCHED BANK
000260:    4223           22073                           LXCH     TEMPBBCN
000261:    4224           52006                           DTCB
000262:
000263:    4225           02722        CON2ADR            GENADR   CON2
000264:
000265:    4226           50002        GETPRIO            NDX      Q                                     #  DON:T CARE IF DIRECT OR INDIRECT
000266:    4227           30000                           CA       0                                     #  LEAVE THAT DECISION TO RESTARTS
000267:    4230           24002                           INCR     Q                                     #  OBTAIN RETURN ADDRESS
000268:    4231           14211                           TCF      CON1       -1
000269:
000270:    4232           00006        GETNEWNM           EXTEND
000271:    4233           50002                           INDEX    Q
000272:    4234           30001                           DCA      0
000273:    4235           52064                           DXCH     TEMPNM
000274:    4236           37762                           CA       TWO


000276:    4237           26002                           ADS      Q                                     #  OBTAIN RETURN ADDRESS
000277:
000278:    4240           14222                           TCF      TOCON2
000279:
000280:    4241           17770        OCT17770           OCT      17770
000281:    4242     5640               OCT14000           EQUALS   PRIO14
000282:    4242     7765               OCT7               EQUALS   SEVEN
000283:    4242     0061               TEMPG              EQUALS   ITEMP1
000284:    4242     0062               TEMPP              EQUALS   ITEMP2
000285:    4242     0063               TEMPNM             EQUALS   ITEMP3
000286:    4242     0064               TEMPBB             EQUALS   ITEMP4
000287:    4242     0065               TEMPSW             EQUALS   ITEMP5
000288:    4242     0066               TEMPSW2            EQUALS   ITEMP6
000289:    4242     0070               TEMPPR             EQUALS   RUPTREG1
000290:    4242     0071               TEMPG2             EQUALS   RUPTREG2
000291:    4242     0072               TEMPP2             EQUALS   RUPTREG3
000292:
000293:    4242     0073               TEMPBBCN           EQUALS   RUPTREG4
000294:    4242  0000006               BB                 EQUALS   BBANK
000295:
000296:
000297: 06,2634                                           BANK     06
000298:
000299: 06,2634  E3,1516                                  EBANK=   PHSNAME1
000300: 06,2634           22073        PHSCHNG2           LXCH     TEMPBBCN
000301: 06,2635           30065                           CA       TEMPSW
000302: 06,2636           77765                           MASK     OCT7
000303: 06,2637           60000                           DOUBLE
000304: 06,2640           54061                           TS       TEMPG
000305:
000306: 06,2641           30065                           CA       TEMPSW
000307: 06,2642           74241                           MASK     OCT17770
000308: 06,2643           00006                           EXTEND
000309: 06,2644           77750                           MP       BIT12
000310: 06,2645           54062                           TS       TEMPP
000311:
000312: 06,2646           30065                           CA       TEMPSW
000313: 06,2647           72705                           MASK     OCT60000
000314: 06,2650           56065                           XCH      TEMPSW
000315: 06,2651           75640                           MASK     OCT14000
000316: 06,2652           10000                           CCS      A
000317:
000318: 06,2653           14175                           TCF      ONEORTWO
000319:
000320: 06,2654           30062                           CA       TEMPP                                 #  START STORING THE PHASE INFORMATION
000321: 06,2655           50061                           NDX      TEMPG
000322: 06,2656           55076                           TS       PHASE1     -2
000323:
000324: 06,2657           10066        BELOW1             CCS      TEMPSW2                               #  IS IT A PHASCHNG OR A 2PHSCHNG


000326: 06,2660           12674                           TCF      BELOW2                                #  IT'S A PHASCHNG
000327:
000328: 06,2661           12662                           TCF      +1                                    #  IT'S A 2PHSCHNG
000329: 06,2662           40072                           CS       TEMPP2
000330: 06,2663           22072                           LXCH     TEMPP2
000331: 06,2664           50071                           NDX      TEMPG2
000332: 06,2665           53076                           DXCH     -PHASE1    -2
000333:
000334: 06,2666           10066                           CCS      TEMPSW2
000335: 06,2667           12670                           NOOP                                           #  CAN'T GET HERE
000336: 06,2670           12674                           TCF      BELOW2
000337:
000338: 06,2671           40025                           CS       TIME1
000339: 06,2672           50071                           NDX      TEMPG2
000340: 06,2673           55111                           TS       TBASE1     -2
000341:
000342: 06,2674           10065        BELOW2             CCS      TEMPSW                                #  SEE IF WE SHOULD SET TBASE OR LONGBASE
000343: 06,2675           12710                           TCF      BELOW3                                #  SET LONGBASE ONLY
000344: 06,2676           12713                           TCF      BELOW4                                #  SET NEITHER
000345:
000346: 06,2677           40025                           CS       TIME1                                 #  SET TBASE TO BEGIN WITH
000347: 06,2700           50061                           NDX      TEMPG
000348: 06,2701           55111                           TS       TBASE1     -2
000349:
000350: 06,2702           30065                           CA       TEMPSW                                #  SHALL WE NOW SET LONGBASE
000351: 06,2703           62706                           AD       BIT14COM
000352: 06,2704           10000                           CCS      A
000353: 06,2705           60000        OCT60000           OCT      60000                                 #  ***** CAN'T GET HERE *****
000354: 06,2706           17777        BIT14COM           OCT      17777                                 #  ***** CAN'T GET HERE *****
000355: 06,2707           12713                           TCF      BELOW4                                #  NO WE NEED ONLY SET TBASE
000356:
000357: 06,2710           00006        BELOW3             EXTEND                                         #  SET LONGBASE
000358: 06,2711           30025                           DCA      TIME2
000359: 06,2712           53433                           DXCH     LONGBASE
000360:
000361: 06,2713           40062        BELOW4             CS       TEMPP                                 #  AND STORE THE FINAL PART OF THE PHASE
000362: 06,2714           50061                           NDX      TEMPG
000363: 06,2715           55075                           TS       -PHASE1    -2
000364:
000365: 06,2716           30002                           CA       Q
000366: 06,2717           22073                           LXCH     TEMPBBCN
000367: 06,2720           00003                           RELINT
000368: 06,2721           52006                           DTCB
000369: 06,2722           22073        CON2               LXCH     TEMPBBCN
000370:
000371: 06,2723           30062                           CA       TEMPP
000372: 06,2724           50061                           NDX      TEMPG
000373: 06,2725           55076                           TS       PHASE1     -2
000374:
000375: 06,2726           30070                           CA       TEMPPR


000377: 06,2727           50061                           NDX      TEMPG
000378: 06,2730           55112                           TS       PHSPRDT1   -2
000379:
000380: 06,2731           00006                           EXTEND
000381: 06,2732           30064                           DCA      TEMPNM
000382: 06,2733           50061                           NDX      TEMPG
000383: 06,2734           53515                           DXCH     PHSNAME1   -2
000384:
000385: 06,2735           12657                           TCF      BELOW1
000386:
000387:    4242                                           BLOCK    02
000388:    4242           77750        CHECKB             MASK     BIT12                                 #  SINCE THIS IS OF TYPE 8, THIS BIT WOULD
000389:    4243           10000                           CCS      A                                     #   BE HERE IF WE ARE TO GET A NEW PRIORITY
000390:    4244           14226                           TCF      GETPRIO                               #  IT IS, SO GET NEW PRIORITY
000391:
000392:    4245           14207                           TCF      OLDPRIO                               #  IT ISN'T, USE THE OLD PRIORITY.
000393:


000395:                                                                                                  #  PROGRAM DESCRIPTION: NEWPHASE                                           DATE: 11 NOV 1966
000396:                                                                                                  #  MOD: 1                                                                  ASSEMBLY: SUNBURST REV
000397:                                                                                                  #  MOD BY: COPPS                                                           LOG SECTION: PHASE TABLE MAINTENANCE
000398:                                                                                                  #  FUNCTIONAL DESCRIPTION:
000399:                                                                                                  #                NEWPHASE IS THE QUICK WAY TO MAKE A NON VARIABLE PHASE CHANGE. IT INCLUDES THE OPTION OF SETTING
000400:                                                                                                  #           TBASE OF THE GROUP. IF TBASE IS TO BE SET, -C(TIME1) IS STORED IN THE TBASE TABLE AS FOLLOWS:
000401:
000402:                                                                                                  #                   (L-1) TBASE0
000403:                                                                                                  #                   (L)   TBASE1 (IF GROUP=1)
000404:                                                                                                  #                   (L+1)
000405:                                                                                                  #                   (L+2) TBASE2 (IF GROUP=2)
000406:                                                                                                  #                   -----
000407:                                                                                                  #                   (L+6) TBASE4 (IF GROUP=4)
000408:                                                                                                  #                   (L+7)
000409:                                                                                                  #                   (L+8) TBASE5 (IF GROUP=5)
000410:
000411:                                                                                                  #           IN ANY CASE, THE NEGATIVE OF THE PHASE, FOLLOWED (IN THE NEXT REGISTER)  BY THE PHASE, IF STORED IN THE
000412:                                                                                                  #           PHASE TABLE AS FOLLOWS:
000413:
000414:                                                                                                  #                   (L)   -PHASE1 (IF GROUP=1)
000415:                                                                                                  #                   (L+1) PHASE1
000416:                                                                                                  #                   (L+2) -PHASE2 (IF GROUP=2)
000417:                                                                                                  #                   (L+3) PHASE2
000418:                                                                                                  #                   -----
000419:                                                                                                  #                   (L+7) PHASE 4
000420:                                                                                                  #                   (L+8) -PHASE5 (IF GROUP=5)
000421:                                                                                                  #                   (L+9) PHASE5
000422:
000423:                                                                                                  #  CALLING SEQUENCE:
000424:                                                                                                  #                EXAMPLE IS FOR PLACING A PHASE OF FIVE INTO GROUP THREE:
000425:
000426:                                                                                                  #           1) IF TBASE IS NOT TO BE SET:
000427:                                                                                                  #                                          L-1      CA     FIVE
000428:                                                                                                  #                                          L        TC     NEWPHASE
000429:                                                                                                  #                                          L+1      OCT    00003
000430:
000431:                                                                                                  #           2) IF TBASE IS TO BE SET:
000432:                                                                                                  #                                          L-1      CS     FIVE
000433:                                                                                                  #                                          L        TC     NEWPHASE
000434:                                                                                                  #                                          L+1      OCT    00003
000435:
000436:                                                                                                  #  SUBROUTINES CALLED: NONE
000437:
000438:                                                                                                  #  NORMAL EXIT MODE: AT L+2 OF CALLING SEQUENCE
000439:
000440:                                                                                                  #  ALARM OR ABORT EXITS: NONE
000441:
000442:                                                                                                  #  OUTPUT: PHASE TABLE AND TBASE TABLE UPDATED
000443:
000444:                                                                                                  #  ERASABLE INITIALIZATION REQ,D: NONE
000445:


000447:                                                                                                  #  DEBRIS: A,L,TEMPG
000448:
000449:                                                                                                  #  ***WARNING*** THIS PROGRAM IS TO BE PLACED IN FIXED-FIXED AND UNSWITCHED ERASABLE.
000450:
000451:    4246                                           BLOCK    02
000452:    4246           00004        NEWPHASE           INHINT
000453:
000454:    4247           54001                           TS       L                                     #  SAVE FOR FURTHER USE
000455:
000456:    4250           50002                           NDX      Q                                     #  OBTAIN THE GROUP NUMBER
000457:    4251           30000                           CA       0
000458:    4252           24002                           INCR     Q                                     #  OBTAIN THE RETURN ADDRESS
000459:    4253           60000                           DOUBLE                                         #  SAVE THE GROUP IN A FORM USED FOR
000460:    4254           54061                           TS       TEMPG                                 #  INDEXING
000461:
000462:    4255           10001                           CCS      L                                     #  SEE IF WE ARE TO SET TBASE
000463:    4256           14265                           TCF      +7                                    #  NO, THE DELTA T WAS POSITIVE
000464:    4257           14265                           TCF      +6
000465:
000466:    4260           24000        NUFAZ+10           INCR     A                                     #  SET TBASE AND STORE PHASE CORRECTLY
000467:    4261           54001                           TS       L
000468:
000469:    4262           40025                           CS       TIME1                                 #  SET TBASE
000470:    4263           50061                           NDX      TEMPG
000471:    4264           55111                           TS       TBASE1     -2
000472:
000473:    4265           40001                           CS       L                                     #  NOW PUT THE PHASE IN THE RIGHT TABLE LOC
000474:    4266           50061                           NDX      TEMPG
000475:    4267           53076                           DXCH     -PHASE1    -2
000476:
000477:    4270           00003                           RELINT
000478:    4271           00002                           TC       Q                                     #  NOW RETURN TO CALLER

End of include-file PHASE_TABLE_MAINTENANCE.agc.  Parent file is MAIN.agc


