
Source Code


000002:                                                                                                  ## Copyright:   Public domain.
000003:                                                                                                  ## Filename:    PINBALL_GAME_BUTTONS_AND_LIGHTS.agc
000004:                                                                                                  ## Purpose:     A module for revision 0 of BURST120 (Sunburst).
000005:                                                                                                  ##              It is part of the source code for the Lunar Module's (LM)
000006:                                                                                                  ##              Apollo Guidance Computer (AGC) for Apollo 5.
000007:                                                                                                  ## Assembler:   yaYUL
000008:                                                                                                  ## Contact:     Ron Burkey <info@sandroid.org>.
000009:                                                                                                  ## Website:     www.ibiblio.org/apollo/index.html
000010:                                                                                                  ## Mod history: 2016-09-30 RSB  Created draft version.
000011:                                                                                                  ##              2016-10-08 RSB  Finished transcription.
000012:                                                                                                  ##              2016-10-31 RSB  Typos.
000013:                                                                                                  ##              2016-11-01 RSB  More typos.
000014:                                                                                                  ##              2016-11-02 RSB  More typos.
000015:                                                                                                  ##              2016-12-04 RSB  Proofed with octopus/ProoferComments and fixed various
000016:                                                                                                  ##                              comments, but the proofing process is not completed.
000017:                                                                                                  ##              2016-12-05 RSB  Comment-proofing pass with octopus/ProoferComments completed;
000018:                                                                                                  ##                              changes made.
000019:                                                                                                  ##              2017-01-28 RSB  WTIH -> WITH.
000020:                                                                                                  ##              2017-02-08 RSB  Comment-text fixes noted while proofing Artemis 72.
000021:


000023:                                                                                                  #  PROGRAM NAME - KEYBOARD AND DISPLAY PROGRAM           DATE - 22 NOV 1966
000024:                                                                                                  #  MOD NO - 0                                            LOG SECTION - PINBALL GAME
000025:                                                                                                  #  MOD BY - FILENE                                                     BUTTONS AND LIGHTS
000026:                                                                                                  #                                                        ASSEMBLY - SUNBURST REV 18
000027:
000028:                                                                                                  #  FUNCTIONAL DESCRIPTION-
000029:
000030:                                                                                                  #     THE KEYBOARD AND DISPLAY SYSTEM PROGRAM OPERATES UNDER EXECUTIVE
000031:                                                                                                  #  CONTROL AND PROCESSES INFORMATION EXCHANGED BETWEEN THE AGC AND THE
000032:                                                                                                  #  COMPUTER OPERATOR.  THE INPUTS TO THE PROGRAM ARE FROM THE KEYBOARD,
000033:                                                                                                  #  FROM INTERNAL PROGRAMS, AND FROM THE UPLINK.
000034:                                                                                                  #     THE LANGUAGE OF COMMUNICATION WITH THE PROGRAM IS A PAIR OF WORDS
000035:                                                                                                  #  KNOWN AS VERB AND NOUN.  EACH OF THESE IS REPRESENTED BY A 2 CHARACTER
000036:                                                                                                  #  OCTAL NUMBER.  THE VERB CODE INDICATES WHAT ACTION IS TO BE TAKEN,
000037:                                                                                                  #  NOUN CODE INDICATES TO WHAT THIS ACTION IS APPLIED.  NOUNS USUALLY
000038:                                                                                                  #  REFER TO A GROUP OF ERASABLE REGISTERS.
000039:
000040:                                                                                                  #  VERBS ARE GROUPED INTO DISPLAYS, LOADS, MONITORS (DISPLAYS THAT ARE
000041:                                                                                                  #  UPDATED ONCE PER SECOND), SPECIAL FUNCTIONS, AND EXTENDED VERBS (THESE
000042:                                                                                                  #  ARE OUTSIDE OF THE DOMAIN OF PINBALL AND CAN BE FOUND UNDER LOG SECTION
000043:                                                                                                  #  :EXTENDED VERBS:).
000044:                                                                                                  #  A LIST OF VERBS AND NOUNS IS GIVEN IN LOG SECTION :ASSEMBLY AND
000045:                                                                                                  #  OPERATION INFORMATION:.
000046:
000047:
000048:                                                                                                  #  CALLING SEQUENCES -
000049:
000050:                                                                                                  #  KEYBOARD:
000051:                                                                                                  #     EACH DEPRESSION OF A KEYBOARD BUTTON ACTIVATES INTERRUPT KEYRUPT1
000052:                                                                                                  #  AND PLACES THE 5 BIT KEY CODE INTO CHANNEL 15.  KEYRUPT1 PLACES THE KEY
000053:                                                                                                  #  CODE INTO MPAC, ENTERS AN EXECUTIVE REQUEST FOR THE KEYBOARD AND DISPLAY
000054:                                                                                                  #  PROGRAM (AT :CHARIN:), AND EXECUTES A RESUME.
000055:
000056:                                                                                                  #  UPLINK:
000057:                                                                                                  #     EACH WORD RECEIVED BY THE UPLINK ACTIVATES INTERRUPT UPRUPT WHICH
000058:                                                                                                  #  PLACES THE 5 BIT KEY CODE INTO MPAC, ENTERS AN EXECUTIVE REQUEST FOR THE
000059:                                                                                                  #  KEYBOARD AND DISPLAY PROGRAM (AT :CHARIN:) AND EXECUTES A RESUME.
000060:
000061:                                                                                                  #  INTERNAL PROGRAMS:
000062:                                                                                                  #     INTERNAL PROGRAMS CALL PINBALL AT :NVSUB: WITH THE DESIRED VERB/NOUN
000063:                                                                                                  #  CODE IN A (LOW 6 BITS FOR NOUN, NEXT 6 BITS FOR VERB).  DETAILS
000064:                                                                                                  #  DESCRIBED ON REMARKS CARDS JUST BEFORE :NVSUB: AND :NVSUBWAIT: (SEE
000065:                                                                                                  #  SYMBOL TABLE FOR PAGE NUMBERS).
000066:                                                                                                  #     THERE IS AN INTERLOCK SYSTEM FOR INTERNAL PROGRAMS THAT MUST BE USED
000067:                                                                                                  #  IN CONJUNCTION WITH :NVSUB:.  THIS IS CALLED GRAB/FREE.  DETAILS
000068:                                                                                                  #  DESCRIBED ON REMARKS JUST BEFORE :GRABDSP:, :GRABWAIT: (SEE SYMBOL TABLE
000069:                                                                                                  #  FOR PAGE NUMBERS).
000070:


000072:                                                                                                  #  NORMAL EXIT MODES-
000073:
000074:                                                                                                  #     IF PINBALL WAS CALLED BY EXTERNAL ACTION, EXIT IS TO :ENDOFJOB:.
000075:
000076:                                                                                                  #     IF PINBALL WAS CALLED BY INTERNAL PROGRAMS, EXIT FROM PINBALL IS BACK
000077:                                                                                                  #  TO CALLING ROUTINE.  DETAILS DESCRIBED IN REMARKS CARDS JUST BEFORE
000078:                                                                                                  #  :NVSUB: AND :NVSUBWAIT: (SEE SYMBOL TABLE FOR PAGE NUMBERS).
000079:
000080:
000081:                                                                                                  #  ALARM OR ABORT EXIT MODES-
000082:
000083:                                                                                                  #        EXTERNAL INITIATION:
000084:                                                                                                  #           IF SOME IMPROPER SEQUENCE OF KEY CODES IS DETECTED, THE OPERATOR
000085:                                                                                                  #        ERROR LIGHT IS TURNED ON AND EXIT IS TO :ENDOFJOB:.
000086:
000087:                                                                                                  #        INTERNAL PROGRAM INITIATION:
000088:                                                                                                  #           IF AN ILLEGAL V/N COMBINATION IS ATTEMPTED, AN ABORT IS CAUSED
000089:                                                                                                  #        (WITH OCTAL 01501) AND EXIT TO :ENDOFJOB:.
000090:
000091:                                                                                                  #  CONDITIONS LEADING TO THE ABOVE ARE DESCRIBED IN DIGITAL DEVELOPMENT
000092:                                                                                                  #  REPORT NO. 11.
000093:
000094:
000095:                                                                                                  #  OUTPUT-
000096:
000097:                                                                                                  #     INFORMATION TO BE SENT TO THE DISPLAY PANEL IS LEFT IN THE :DSPTAB:
000098:                                                                                                  #  BUFFERS REGISTERS (UNDER EXEC CONTROL). :DSPOUT: (A PART OF T4RUPT)
000099:                                                                                                  #  HANDLES THE PLACING OF THE :DSPTAB: INFORMATION INTO OUTPUT CHANNEL 10
000100:                                                                                                  #  IN INTERRUPT.
000101:
000102:
000103:                                                                                                  #  ERASABLE INITIALIZATION-
000104:
000105:                                                                                                  #     FRESH START AND RESTART INITIALIZE THE NECESSARY E REGISTERS FOR
000106:                                                                                                  #  PINBALL IN :STARTSUB:.  REGISTERS ARE:  DSPTAB BUFFER, CADRSTOR,
000107:                                                                                                  #  REQRET, CLPASS, DSPLOCK, MONSAVE, MONSAVE1, GRABLOCK, VERBREG, NOUNREG,
000108:                                                                                                  #  DSPLIST, +1, +2, DSPCOUNT.
000109:
000110:                                                                                                  #  A COMPLETE LIST OF ALL THE ERASABLES (BOTH RESERVED AND TEMPORARIES) FOR
000111:                                                                                                  #  PINBALL IS GIVEN BELOW.
000112:
000113:
000114:                                                                                                  #  THE FOLLOWING ARE OF GENERAL INTEREST-
000115:
000116:                                                                                                  #     REMARKS CARDS PRECEDE THE REFERENCED SYMBOL DEFINITION.  SEE SYMBOL
000117:                                                                                                  #  TABLE TO FIND APPROPRIATE PAGE NUMBERS.


000119:
000120:                                                                                                  #        NVSUB   CALLING POINT FOR INTERNAL USE OF PINBALL.
000121:                                                                                                  #                  OF RELATED INTEREST   NVSUBWAIT
000122:                                                                                                  #                                        NVSUBSY
000123:                                                                                                  #                                        PRENVBSY
000124:
000125:                                                                                                  #        GRABDSP   INTERLOCK SYSTEM FOR INTERNAL PROGRAMS THAT MUST BE USED
000126:                                                                                                  #        FREEDSP   IN CONJUNCTION WITH :NVSUB:.
000127:                                                                                                  #                    OF RELATED INTEREST   GRABWAIT
000128:                                                                                                  #                                          GRABUSY
000129:                                                                                                  #                                          PREGBSY
000130:
000131:                                                                                                  #        ENDIDLE   ROUTINE FOR INTERNAL PROGRAMS WISHING TO GO TO SLEEP WHILE
000132:                                                                                                  #                  AWAITING OPERATORS RESPONSE.
000133:                                                                                                  #                    OF RELATED INTEREST   DATAWAIT
000134:
000135:                                                                                                  #        MONITOR   VERBS FOR PERIODIC ( 1 PER SEC) DISPLAY.
000136:
000137:                                                                                                  #        THE NOUN TABLE FORMAT IS DESCRIBED ON A PAGE OF REMARKS CARDS JUST
000138:                                                                                                  #        BEFORE :DSPABC: (SEE SYMBOL TABLE FOR PAGE NUMBER).
000139:
000140:                                                                                                  #        THE NOUN TABLES THEMSELVES ARE FOUND ON 7 PAGES STARTING AT :NNADTAB:
000141:
000142:
000143:                                                                                                  #  FOR FURTHER DETAILS ABOUT OPERATION OF THE KEYBOARD AND DISPLAY SYSTEM
000144:                                                                                                  #  PROGRAM, SEE THE MISSION PLAN AND/OR DIGITAL DEVELOPMENT REPORT NO. 11.
000145:


000147:                                                                                                  #  KEYBOARD AND DISPLAY PROGRAM
000148:
000149:                                                                                                  #  THE FOLLOWING QUOTATION IS PROVIDED THROUGH THE COUTESY OF THE AUTHORS.
000150:
000151:                                                                                                  #        ::IT WILL BE PROVED TO THY FACE THAT THOU HAST MEN ABOUT THEE THAT
000152:                                                                                                  #  USUALLY TALK OF A NOUN AND A VERB, AND SUCH ABOMINABLE WORDS AS NO
000153:                                                                                                  #  CHRISTIAN EAR CAN ENDURE TO HEAR.::
000154:
000155:                                                                                                  #                                        HENRY 6, ACT 2, SCENE 4
000156:


000159:
000160:
000161:                                                                                                  #  THE FOLLOWING ASSIGNMENTS FOR PINBALL ARE MADE ELSEWHERE
000162:
000163:
000164:                                                                                                  #  RESERVED FOR PINBALL EXECUTIVE ACTION
000165:
000166:                                                                                                  #  DSPCOUNT      ERASE                   DISPLAY POSITION INDICATOR
000167:                                                                                                  #  DECBRNCH      ERASE                   +DEC, -DEC, OCT INDICATOR
000168:                                                                                                  #  VERBREG       ERASE                   VERB CODE
000169:                                                                                                  #  NOUNREG       ERASE                   NOUN CODE
000170:                                                                                                  #  XREG          ERASE                   R1 INPUT BUFFER
000171:                                                                                                  #  YREG          ERASE                   R2 INPUT BUFFER
000172:                                                                                                  #  ZREG          ERASE                   R3 INPUT BUFFER
000173:                                                                                                  #  XREGLP        ERASE                   LO PART OF XREG (FOR DEC CONV ONLY)
000174:                                                                                                  #  YREGLP        ERASE                   LO PART OF YREG (FOR DEC CONV ONLY)
000175:                                                                                                  #  ZREGLP        ERASE                   LO PART OF ZREG (FOR DEC CONV ONLY)
000176:                                                                                                  #  MODREG        ERASE                   MODE CODE
000177:                                                                                                  #  DSPLOCK       ERASE                   KEYBOARD/SUBROUTINE CALL INTERLOCK
000178:                                                                                                  #  REQRET        ERASE                   RETURN REGISTER FOR LOAD
000179:                                                                                                  #  LOADSTAT      ERASE                   STATUS INDICATOR FOR LOADTST
000180:                                                                                                  #  CLPASS        ERASE                   PASS INDICATOR CLEAR
000181:                                                                                                  #  NOUT          ERASE                   ACTIVITY COUNTER FOR DSPTAB
000182:                                                                                                  #  NOUNCADR      ERASE                   MACHINE CADR FOR NOUN
000183:                                                                                                  #  MONSAVE       ERASE                   N/V CODE FOR MONITOR. (= MONSAVE1-1)
000184:                                                                                                  #  MONSAVE1      ERASE                   NOUNCADR FOR MONITOR (MATBS) = MONSAVE+1
000185:                                                                                                  #  DSPTAB        ERASE           +13D    0-10, DISPLAY PANEL BUFFER, 11-13, C RELAYS
000186:                                                                                                  #  CADRSTOR      ERASE                   ENDIDLE STORAGE
000187:                                                                                                  #  GRABLOCK      ERASE                   INTERNAL INTERLOCK FOR DISPLAY SYSTEM
000188:                                                                                                  #  NVQTEM        ERASE                   NVSUB STORAGE FOR CALLING ADDRESS
000189:                                                                                                  #                                        MUST = NVBNKTEM-1
000190:                                                                                                  #  NVBNKTEM      ERASE                   NVSUB STORAGE FOR CALLING BANK
000191:                                                                                                  #                                        MUST = NVQTEM+1
000192:                                                                                                  #  DSPLIST       ERASE           +2      WAITING LIST FOR DSP SYST INTERNAL USE
000193:                                                                                                  #  EXTVBACT      ERASE                   EXTENDED VERB ACTIVITY INTERLOCK
000194:                                                                                                  #  DSPTEM1       ERASE           +2      BUFFER STORAGE AREA 1 (MOSTLY FOR TIME)
000195:                                                                                                  #  DSPTEM2       ERASE           +2      BUFFER STORAGE AREA 2 (MOSTLY FOR DEG)
000196:


000198:                                                                                                  #  END OF ERASABLES RESERVED FOR PINBALL EXECUTIVE ACTION
000199:
000200:
000201:                                                                                                  #  TEMPORARIES FOR PINBALL EXECUTIVE ACTION
000202:
000203:                                                                                                  #  DSEXIT        =       INTB15+         RETURN FOR DSPIN
000204:                                                                                                  #  EXITEM        =       INTB15+         RETURN FOR SCALE FACTOR ROUTINE SELECT
000205:                                                                                                  #  BLANKRET      =       INTB15+         RETURN FOR 2BLANK
000206:
000207:                                                                                                  #  WRDRET        =       INTBIT15        RETURN FOR 5BLANK
000208:                                                                                                  #  WDRET         =       INTBIT15        RETURN FOR DSPWD
000209:                                                                                                  #  DECRET        =       INTBIT15        RETURN FOR PUTCOM(DEC LOAD)
000210:                                                                                                  #  21/22REG      =       INTBIT15        TEMP FOR CHARIN
000211:
000212:                                                                                                  #  UPDATRET      =       POLISH          RETURN FOR UPDATNN, UPDATVB
000213:                                                                                                  #  CHAR          =       POLISH          TEMP FOR CHARIN
000214:                                                                                                  #  ERCNT         =       POLISH          COUNTER FOR ERROR LIGHT RESET
000215:                                                                                                  #  DECOUNT       =       POLISH          COUNTER FOR SCALING AND DISPLAY (DEC)
000216:
000217:                                                                                                  #  SGNON         =       VBUF            TEMP FOR +,- ON
000218:                                                                                                  #  NOUNTEM       =       VBUF            COUNTER FOR MIXNOUN FETCH
000219:                                                                                                  #  DISTEM        =       VBUF            COUNTER FOR OCTAL DISPLAY VERBS
000220:                                                                                                  #  DECTEM        =       VBUF            COUNTER FOR FETCH (DEC DISPLAY VERBS)
000221:
000222:                                                                                                  #  SGNOFF        =       VBUF    +1      TEMP FOR +,- ON
000223:                                                                                                  #  NVTEMP        =       VBUF    +1      TEMP FOR NVSUB
000224:                                                                                                  #  SFTEMP1       =       VBUF    +1      STORAGE FOR SF CONST HI PART (=SFTEMP2-1)
000225:
000226:                                                                                                  #  CODE          =       VBUF    +2      FOR DSPIN
000227:                                                                                                  #  SFTEMP2       =       VBUF    +2      STORAGE FOR SF CONST LO PART (=SFTEMP1+1)
000228:
000229:                                                                                                  #  MIXTEMP       =       VBUF    +3      FOR MIXNOUN DATA
000230:                                                                                                  #  SIGNRET       =       VBUF    +3      RETURN FOR +,- ON
000231:
000232:                                                                                                  #  ALSO MIXTEMP+1 = VBUF+4, MIXTEMP+2 = VBUF+5.
000233:
000234:                                                                                                  #  ENTRET        =       DOTINC          EXIT FROM ENTER
000235:
000236:                                                                                                  #  WDCNT         =       DOTRET          CHAR COUNTER FOR DSPWD
000237:                                                                                                  #  INREL         =       DOTRET          INPUT BUFFER SELECTOR (X, Y, Z, REG)
000238:
000239:                                                                                                  #  DSPMMTEM      =       MATINC          DSPCOUNT SAVE FOR DSPMM
000240:                                                                                                  #  MIXBR         =       MATINC          INDICATOR FOR MIXED OR NORMAL NOUN
000241:
000242:                                                                                                  #  TEM1          ERASE                   EXEC TEMP
000243:                                                                                                  #  DSREL         =       TEM1            REL ADDRESS FOR DSPIN
000244:
000245:                                                                                                  #  TEM2          ERASE                   EXEC TEMP
000246:                                                                                                  #  DSMAG         =       TEM2            MAGNITUDE STORE FOR DSPIN


000248:                                                                                                  #  IDADDTEM      =       TEM2            MIXNOUN INDIRECT ADDRESS STORAGE
000249:
000250:                                                                                                  #  TEM3          ERASE                   EXEC TEMP
000251:                                                                                                  #  COUNT         =       TEM3            FOR DSPIN
000252:
000253:                                                                                                  #  TEM4          ERASE                   EXEC TEMP
000254:                                                                                                  #  LSTPTR        =       TEM4            LIST POINTER FOR GRABUSY
000255:                                                                                                  #  RELRET        =       TEM4            RETURN FOR RELDSP
000256:                                                                                                  #  FREERET       =       TEM4            RETURN FOR FREEDSP
000257:
000258:                                                                                                  #  TEM5          ERASE                   EXEC TEMP
000259:                                                                                                  #  NOUNADD       =       TEM5            TEMP STORAGE FOR NOUN ADDRESS
000260:
000261:                                                                                                  #  NNADTEM       ERASE                   TEMP FOR NOUN ADDRESS TABLE ENTRY
000262:                                                                                                  #  NNTYPTEM      ERASE                   TEMP FOR NOUN TYPE TABLE ENTRY
000263:                                                                                                  #  IDAD1TEM      ERASE                   TEMP FOR INDIR ADRESS TABLE ENTRY (MIXNN)
000264:                                                                                                  #                                        MUST = IDAD2TEM-1, = IDAD3TEM-2.
000265:                                                                                                  #  IDAD2TEM      ERASE                   TEMP FOR INDIR ADRESS TABLE ENTRY (MIXNN)
000266:                                                                                                  #                                        MUST = IDAD1TEM+1, = IDAD3TEM-1.
000267:                                                                                                  #  IDAD3TEM      ERASE                   TEMP FOR INDIR ADRESS TABLE ENTRY (MIXNN)
000268:                                                                                                  #                                        MUST = IDAD1TEM+2, = IDAD2TEM+1.
000269:                                                                                                  #  RUTMXTEM      ERASE                   TEMP FOR SF ROUT TABLE ENTRY (MIXNN ONLY)
000270:                                                                                                  #  END OF TEMPORARIES FOR PINBALL EXECUTIVE ACTION
000271:
000272:
000273:                                                                                                  #  RESERVED FOR PINBALL INTERRUPT ACTION
000274:
000275:                                                                                                  #  DSPCNT        ERASE                   COUNTER FOR DSPOUT
000276:                                                                                                  #  UPLOCK        ERASE                   BIT1 = UPLINK INTERLOCK (ACTIVATED BY
000277:                                                                                                  #                                                                                RECEPTION OF A BAD MESSAGE IN UPLINK)
000278:                                                                                                  #  END OF ERASABLES RESERVED FOR PINBALL INTERRUPT ACTION
000279:
000280:
000281:
000282:                                                                                                  #  TEMPORARIES FOR PINBALL INTERRUPT ACTION
000283:
000284:                                                                                                  #  KEYTEMP1      =       WAITEXIT        TEMP FOR KEYRUPT, UPRUPT
000285:                                                                                                  #  DSRUPTEM      =       WAITEXIT        TEMP FOR DSPOUT
000286:                                                                                                  #  KEYTEMP2      =       RUPTAGN         TEMP FOR KEYRUPT, UPRUPT
000287:                                                                                                  #  END OF TEMPORARIES FOR PINBALL INTERRUPT ACTION
000288:


000290:                                                                                                  #  THE INPUT CODES ASSUMED FOR THE KEYBOARD ARE,
000291:                                                                                                  #  0        10000
000292:                                                                                                  #  1        00001
000293:                                                                                                  #  9        01001
000294:                                                                                                  #  VERB     10001
000295:                                                                                                  #  ERROR RES10010
000296:                                                                                                  #  KEY RLSE 11001
000297:                                                                                                  #  +        11010
000298:                                                                                                  #  -        11011
000299:                                                                                                  #  ENTER    11100
000300:                                                                                                  #  CLEAR    11110
000301:                                                                                                  #  NOUN     11111
000302:
000303:
000304:                                                                                                  #  OUTPUT FORMAT FOR DISPLAY PANEL. SET OUT0 TO AAAABCCCCCDDDDD.
000305:                                                                                                  #  A-S SELECT A RELAYWORD. THIS DETERMINES WHICH PAIR OF CHARACTERS ARE
000306:                                                                                                  #  ENERGIZED.
000307:                                                                                                  #  B FOR SPECIAL RELAYS SUCH AS SIGNS ETC.
000308:                                                                                                  #  C-S  5 BIT RELAY CODE FOR LEFT CHAR OF PAIR SELECTED BY RELAYWORD
000309:                                                                                                  #  D-S  5 BIT RELAY CODE FOR RIGHTCHAR OF PAIR SELECTED BY RELAYWORD.
000310:
000311:                                                                                                  #  THE PANEL APPEARS AS FOLLOWS,
000312:                                                                                                  #  MD1    MD2                         (MAJOR MODE)
000313:                                                                                                  #  VD1    VD2 (VERB)    ND1    ND2    (NOUN)
000314:                                                                                                  #  R1D1   R1D2   R1D3   R1D4   R1D5   (R1)
000315:                                                                                                  #  R2D1   R2D2   R2D3   R2D4   R2D5   (R2)
000316:                                                                                                  #  R3D1   R3D2   R3D3   R3D4   R3D5   (R3)
000317:
000318:                                                                                                  #  EACH OF THESE IS GIVEN A DSPCOUNT NUMBER FOR USE WITHIN COMPUTATION ONLY
000319:                                                                                                  #  MD1   25     R2D1  11         ALL ARE OCTAL
000320:                                                                                                  #  MD2   24     R2D2  10
000321:                                                                                                  #  VD1   23     R2D3   7
000322:                                                                                                  #  VD2   22     R2D4   6
000323:                                                                                                  #  ND1   21     R2D5   5
000324:                                                                                                  #  ND2   20     R3D1   4
000325:                                                                                                  #  R1D1  16     R3D2   3
000326:                                                                                                  #  R1D2  15     R3D3   2
000327:                                                                                                  #  R1D3  14     R3D4   1
000328:                                                                                                  #  R1D4  13     R3D5   0
000329:                                                                                                  #  R1D5  12
000330:
000331:
000332:                                                                                                  #  THERE IS AN 11 REGISTER TABLE (DSPTAB) FOR THE DISPLAY PANEL.
000333:
000334:                                                                                                  #  DSPTAB RELAYWD       BIT11     BITS 10-6     BITS 5-1
000335:                                                                                                  #  RELADD
000336:                                                                                                  #  10     1011                    MD1 (25)      MD2 (24)
000337:                                                                                                  #  9      1010                    VD1 (23)      VD2 (22)


000339:                                                                                                  #  8      1001                    ND1 (21)      ND2 (20)
000340:                                                                                                  #  7      1000                                  R1D1 (16)
000341:                                                                                                  #  6      0111          +R1       R1D2 (15)     R1D3 (14)
000342:                                                                                                  #  5      0110          -R1       R1D4 (13)     R1D5 (12)
000343:                                                                                                  #  4      0101          +R2       R2D1 (11)     R2D2 (10)
000344:                                                                                                  #  3      0100          -R2       R2D3 (7)      R2D4 (6)
000345:                                                                                                  #  2      0011                    R2D5 (5)      R3D1 (4)
000346:                                                                                                  #  1      0010          +R3       R3D2 (3)      R3D3 (2)
000347:                                                                                                  #  0      0001          -R3       R3D4 (1)      R3D5 (0)
000348:                                                                                                  #         0000   NO RELAYWORD
000349:
000350:
000351:                                                                                                  #  THE 5 BIT RELAY CODES ARE,
000352:                                                                                                  #  BLANK      00000
000353:                                                                                                  #  0          10101
000354:                                                                                                  #  1          00011
000355:                                                                                                  #  2          11001
000356:                                                                                                  #  3          11011
000357:                                                                                                  #  4          01111
000358:                                                                                                  #  5          11110
000359:                                                                                                  #  6          11100
000360:                                                                                                  #  7          10011
000361:                                                                                                  #  8          11101
000362:                                                                                                  #  9          11111
000363:


000365:                                                                                                  #  START OF EXECUTIVE SECTION OF PINBALL
000366:
000367: 04,2000                                           SETLOC   20000
000368:
000369: 04,2000           03472        GRABUSYB           TC       GRABUSY1                              #  STANDARD LEAD INS. DONT MOVE.
000370: 04,2001           03514        NVSUBSYB           TC       NVSUBSY1
000371:
000372: 04,2002           37763        CHARIN             CAF      ONE                                   #  BLOCK DISPLAY SYST
000373: 04,2003           56303                           XCH      DSPLOCK                               #  MAKE DSP SYST BUSY, BUT SAVE OLD
000374: 04,2004           54105                           TS       21/22REG                              #  C(DSPLOCK) FOR ERROR LIGHT RESET.
000375: 04,2005           56144                           XCH      MPAC
000376: 04,2006           54107                           TS       CHAR
000377: 04,2007           50000                           INDEX    A
000378: 04,2010           02011                           TC       +1                                    #  INPUT CODE    FUNCTION
000379: 04,2011           03313                           TC       CHARALRM                              #  0
000380: 04,2012           02070                           TC       NUM                                   #  1
000381: 04,2013           02070                           TC       NUM                                   #  2
000382: 04,2014           02070                           TC       NUM                                   #  3
000383: 04,2015           02070                           TC       NUM                                   #  4
000384: 04,2016           02070                           TC       NUM                                   #  5
000385: 04,2017           02070                           TC       NUM                                   #  6
000386: 04,2020           02070                           TC       NUM                                   #  7
000387: 04,2021           02061                           TC       89TEST                                #  10            8
000388: 04,2022           02061                           TC       89TEST                                #  11            9
000389: 04,2023           03313                           TC       CHARALRM                              #  12
000390: 04,2024           03313                           TC       CHARALRM                              #  13
000391: 04,2025           03313                           TC       CHARALRM                              #  14
000392: 04,2026           03313                           TC       CHARALRM                              #  15
000393: 04,2027           03313                           TC       CHARALRM                              #  16
000394: 04,2030           03313                           TC       CHARALRM                              #  17
000395: 04,2031           02066                           TC       NUM        -2                         #  20            0
000396: 04,2032           02243                           TC       VERB                                  #  21            VERB
000397: 04,2033           02355                           TC       ERROR                                 #  22            ERROR LIGHT RESET
000398: 04,2034           02053                           TC       ABRT23GO                              #  23            SUBORBIT ABORT
000399: 04,2035           02056                           TC       ABRT24GO                              #  24            CONORBIT ABORT
000400: 04,2036           03313                           TC       CHARALRM                              #  25
000401: 04,2037           03313                           TC       CHARALRM                              #  26
000402: 04,2040           03313                           TC       CHARALRM                              #  27
000403: 04,2041           03313                           TC       CHARALRM                              #  30
000404: 04,2042           03336                           TC       VBRELDSP                              #  31            KEY RELEASE
000405: 04,2043           02275                           TC       POSGN                                 #  32            +
000406: 04,2044           02262                           TC       NEGSGN                                #  33            -
000407: 04,2045           02051                           TC       ENTERJMP                              #  34            ENTER
000408: 04,2046           03313                           TC       CHARALRM                              #  35
000409: 04,2047           02446                           TC       CLEAR                                 #  36            CLEAR
000410: 04,2050           02256                           TC       NOUN                                  #  37            NOUN
000411:


000413: 04,2051           05225        ENTERJMP           TC       POSTJUMP
000414: 04,2052           12003                           CADR     ENTER
000415:
000416: 04,2053           04666        ABRT23GO           TC       RELDSP
000417: 04,2054           05225                           TC       POSTJUMP
000418: 04,2055           56350                           CADR     SUBABORT
000419: 04,2056           04666        ABRT24GO           TC       RELDSP
000420: 04,2057           05225                           TC       POSTJUMP
000421: 04,2060           56353                           CADR     CONORBIT
000422:
000423: 04,2061           36311        89TEST             CAF      THREE
000424: 04,2062           70271                           MASK     DECBRNCH
000425: 04,2063           10000                           CCS      A
000426: 04,2064           02070                           TC       NUM                                   #  IF DECBRNCH IS +, 8 OR 9 OK
000427: 04,2065           03313                           TC       CHARALRM                              #  IF DECBRNCH IS +0, REJECT 8 OR 9
000428:
000429:
000430:                                                                                                  #  NUM ASSEMBLES OCTAL 3 BITS AT A TIME. FOR DECIMAL IT CONVERTS INCOMING
000431:                                                                                                  #  WORD AS A FRACTION, KEEPING RESULTS TO DP.
000432:                                                                                                  #  OCTAL RESULTS ARE LEFT IN XREG, YREG, OR ZREG. HI PART OF DEC IN XREG,
000433:                                                                                                  #  YREG, ZREG. THE LOW PARTS IN XREGLP, YREGLP, OR ZREGLP)
000434:                                                                                                  #  DECBRNCH IS LEFT AT +0 FOR OCT, +1 FOR + DEC, +2 FOR - DEC.
000435:                                                                                                  #  IF DSPCOUNT WAS LEFT -, NO MORE DATA IS ACCEPTED.
000436:
000437: 04,2066           37767                           CAF      ZERO
000438: 04,2067           54107                           TS       CHAR
000439: 04,2070           10270        NUM                CCS      DSPCOUNT
000440: 04,2071           02075                           TC       +4                                    #  +
000441: 04,2072           02075                           TC       +3                                    #  +0
000442: 04,2073           02074                           TC       +1                                    #  -BLOCK DATA IN IF DSPCOUNT IS -
000443: 04,2074           05567                           TC       ENDOFJOB                              #  -0
000444: 04,2075           02213                           TC       GETINREL
000445: 04,2076           10306                           CCS      CLPASS                                #  IF CLPASS IS + OR +0, MAKE IT +0.
000446: 04,2077           37767                           CAF      ZERO
000447: 04,2100           54306                           TS       CLPASS
000448: 04,2101           02102                           TC       +1
000449: 04,2102           50107                           INDEX    CHAR
000450: 04,2103           34300                           CAF      RELTAB
000451: 04,2104           74556                           MASK     LOW5
000452: 04,2105           54114                           TS       CODE
000453: 04,2106           30270                           CA       DSPCOUNT
000454: 04,2107           54133                           TS       COUNT
000455: 04,2110           03217                           TC       DSPIN
000456: 04,2111           36311                           CAF      THREE
000457: 04,2112           70271                           MASK     DECBRNCH
000458: 04,2113           10000                           CCS      A                                     #  +0, OCTAL.  +1, + DEC.  +2, - DEC.
000459: 04,2114           02125                           TC       DECTOBIN                              #  +
000460: 04,2115           50127                           INDEX    INREL                                 #  +0 OCTAL
000461: 04,2116           56272                           XCH      VERBREG


000463: 04,2117           54022                           TS       CYL
000464: 04,2120           40022                           CS       CYL
000465: 04,2121           40022                           CS       CYL
000466: 04,2122           56022                           XCH      CYL
000467: 04,2123           60107                           AD       CHAR
000468: 04,2124           02142                           TC       ENDNMTST
000469: 04,2125           50127        DECTOBIN           INDEX    INREL
000470: 04,2126           56272                           XCH      VERBREG
000471: 04,2127           54144                           TS       MPAC                                  #  SUM X 2EXP-14 IN MPAC
000472: 04,2130           37767                           CAF      ZERO
000473: 04,2131           54145                           TS       MPAC       +1
000474: 04,2132           34570                           CAF      TEN                                   #  10 X 2EXP-14
000475: 04,2133           07357                           TC       SHORTMP                               #  10SUM X 2EXP-28 IN MPAC, MPAC+1
000476: 04,2134           56145                           XCH      MPAC       +1
000477: 04,2135           60107                           AD       CHAR
000478: 04,2136           54145                           TS       MPAC       +1
000479: 04,2137           02142                           TC       ENDNMTST                              #  NO OF
000480: 04,2140           26144                           ADS      MPAC                                  #  OF MUST BE 5TH CHAR
000481: 04,2141           02160                           TC       DECEND
000482: 04,2142           50127        ENDNMTST           INDEX    INREL
000483: 04,2143           54272                           TS       VERBREG
000484: 04,2144           40270                           CS       DSPCOUNT
000485: 04,2145           50127                           INDEX    INREL
000486: 04,2146           62204                           AD       CRITCON
000487: 04,2147           00006                           EXTEND
000488: 04,2150           12152                           BZF      ENDNUM                                #  -0, DSPCOUNT = CRITCON
000489: 04,2151           02201                           TC       MORNUM                                #  - , DSPCOUNT G/ CRITCON
000490: 04,2152           36311        ENDNUM             CAF      THREE
000491: 04,2153           70271                           MASK     DECBRNCH
000492: 04,2154           10000                           CCS      A
000493: 04,2155           02160                           TC       DECEND
000494: 04,2156           40270        ENDALL             CS       DSPCOUNT                              #  BLOCK NUMIN BY PLACING DSPCOUNT
000495: 04,2157           02202                           TC       MORNUM     +1                         #  NEGATIVELY
000496: 04,2160           07155        DECEND             TC       DMP                                   #  MULT SUM X 2EXP-28 IN MPAC, MPAC+1 BY
000497: 04,2161           02211                           ADRES    DECON                                 #  2EXP14/10EXP5, GIVES (SUM/10EXP5)X2EXP-14
000498: 04,2162           36311                           CAF      THREE                                 #  IN MPAC, +1, +2.
000499: 04,2163           70271                           MASK     DECBRNCH
000500: 04,2164           50000                           INDEX    A
000501: 04,2165           02165                           TC       +0
000502: 04,2166           02172                           TC       +DECSGN
000503: 04,2167           00006                           EXTEND                                         #  - CASE
000504: 04,2170           40146                           DCS      MPAC       +1
000505: 04,2171           52146                           DXCH     MPAC       +1
000506: 04,2172           56146        +DECSGN            XCH      MPAC       +2
000507: 04,2173           50127                           INDEX    INREL
000508: 04,2174           54275                           TS       XREGLP     -2
000509: 04,2175           56145                           XCH      MPAC       +1
000510: 04,2176           50127                           INDEX    INREL
000511: 04,2177           54272                           TS       VERBREG
000512: 04,2200           02156                           TC       ENDALL


000514: 04,2201           10270        MORNUM             CCS      DSPCOUNT                              #  DECREMENT DSPCOUNT
000515: 04,2202           54270                           TS       DSPCOUNT
000516: 04,2203           05567                           TC       ENDOFJOB
000517:
000518: 04,2204           00022        CRITCON            OCT      22                                    #  (DEC 18)
000519: 04,2205           00020                           OCT      20                                    #  (DEC 16)
000520: 04,2206           00012                           OCT      12                                    #  (DEC 10)
000521: 04,2207           00005                           OCT      5
000522: 04,2210           00000                           OCT      0
000523:
000524: 04,2211           05174 13261  DECON              2DEC     1          E-5        B14             #  2EXP14/10EXP5 = .16384 DEC
000525:
000526:                                                                                                  #  GETINREL GETS PROPER DATA REG REL ADDRESS FOR CURRENT C(DSPCOUNT) AND
000527:                                                                                                  #  PUTS IN INTO INREL. +0 VERBREG, 1 NOUNREG, 2 XREG, 3 YREG, 4 ZREG.
000528:
000529: 04,2213           50270        GETINREL           INDEX    DSPCOUNT
000530: 04,2214           32217                           CAF      INRELTAB
000531: 04,2215           54127                           TS       INREL                                 #  (A TEMP. REG)
000532: 04,2216           00002                           TC       Q
000533:
000534: 04,2217           00004        INRELTAB           OCT      4                                     #  R3D5 (DSPCOUNT = 0)
000535: 04,2220           00004                           OCT      4                                     #  R3D4           =(1)
000536: 04,2221           00004                           OCT      4                                     #  R3D3           =(2)
000537: 04,2222           00004                           OCT      4                                     #  R3D2           =(3)
000538: 04,2223           00004                           OCT      4                                     #  R3D1           =(4)
000539: 04,2224           00003                           OCT      3                                     #  R2D5           =(5)
000540: 04,2225           00003                           OCT      3                                     #  R2D4           =(6)
000541: 04,2226           00003                           OCT      3                                     #  R2D3           =(7)
000542: 04,2227           00003                           OCT      3                                     #  R2D2           =(8D)
000543: 04,2230           00003                           OCT      3                                     #  R2D1           =(9D)
000544: 04,2231           00002                           OCT      2                                     #  R1D5           =(10D)
000545: 04,2232           00002                           OCT      2                                     #  R1D4           =(11D)
000546: 04,2233           00002                           OCT      2                                     #  R1D3           =(12D)
000547: 04,2234           00002                           OCT      2                                     #  R1D2           =(13D)
000548: 04,2235           00002                           OCT      2                                     #  R1D1           =(14D)
000549: 04,2236           04736                           TC       CCSHOLE                               #  NO DSPCOUNT NUMBER = 15D
000550: 04,2237           00001                           OCT      1                                     #  ND2            =(16D)
000551: 04,2240           00001                           OCT      1                                     #  ND1            =(17D)
000552: 04,2241           00000                           OCT      0                                     #  VD2            =(18D)
000553: 04,2242           00000                           OCT      0                                     #  VD1            =(19D)
000554:
000555: 04,2243           37767        VERB               CAF      ZERO
000556: 04,2244           54272                           TS       VERBREG
000557: 04,2245           34565                           CAF      VD1
000558: 04,2246           54270        NVCOM              TS       DSPCOUNT
000559: 04,2247           02557                           TC       2BLANK


000561: 04,2250           37767                           CAF      ZERO
000562: 04,2251           54271                           TS       DECBRNCH
000563: 04,2252           54304                           TS       REQRET                                #  SET FOR ENTPAS0
000564: 04,2253           34505                           CAF      ENDINST                               #  IF DSPALARM OCCURS BEFORE FIRST ENTPAS0
000565: 04,2254           54126                           TS       ENTRET                                #  OR NVSUB, ENTRET MUST ALREADY BE SET
000566:                                                                                                  #  TO TC ENDOFJOB
000567: 04,2255           05567                           TC       ENDOFJOB
000568: 04,2256           37767        NOUN               CAF      ZERO
000569: 04,2257           54273                           TS       NOUNREG
000570: 04,2260           34566                           CAF      ND1                                   #  ND1, OCT 21 (DEC 17)
000571: 04,2261           02246                           TC       NVCOM
000572:
000573:
000574: 04,2262           02334        NEGSGN             TC       SIGNTEST
000575: 04,2263           02321                           TC       -ON
000576: 04,2264           37762                           CAF      TWO
000577: 04,2265           50127        BOTHSGN            INDEX    INREL                                 #  SET DEC COMP BIT TO 1 (IN DECBRNCH)
000578: 04,2266           67755                           AD       BIT7                                  #  BIT 5 FOR R1.  BIT 4 FOR R2.
000579: 04,2267           26271                           ADS      DECBRNCH                              #  BIT 3 FOR R3.
000580: 04,2270           10306        FIXCLPAS           CCS      CLPASS                                #  IF CLPASS IS + OR +0. MAKE IT +0.
000581: 04,2271           37767                           CAF      ZERO
000582: 04,2272           54306                           TS       CLPASS
000583: 04,2273           02274                           TC       +1
000584: 04,2274           05567                           TC       ENDOFJOB
000585:
000586: 04,2275           02334        POSGN              TC       SIGNTEST
000587: 04,2276           02301                           TC       +ON
000588: 04,2277           37763                           CAF      ONE
000589: 04,2300           02265                           TC       BOTHSGN
000590:
000591: 04,2301           22002        +ON                LXCH     Q
000592: 04,2302           02213                           TC       GETINREL
000593: 04,2303           50127                           INDEX    INREL
000594: 04,2304           32327                           CAF      SGNTAB     -2
000595: 04,2305           54113                           TS       SGNOFF
000596: 04,2306           67763                           AD       ONE
000597: 04,2307           54112                           TS       SGNON
000598: 04,2310           37767        SGNCOM             CAF      ZERO
000599: 04,2311           54114                           TS       CODE
000600: 04,2312           56113                           XCH      SGNOFF
000601: 04,2313           03301                           TC       11DSPIN
000602: 04,2314           37751                           CAF      BIT11
000603: 04,2315           54114                           TS       CODE
000604: 04,2316           56112                           XCH      SGNON
000605: 04,2317           03301                           TC       11DSPIN
000606: 04,2320           00001                           TC       L
000607: 04,2321           22002        -ON                LXCH     Q
000608: 04,2322           02213                           TC       GETINREL
000609: 04,2323           50127                           INDEX    INREL


000611: 04,2324           32327                           CAF      SGNTAB     -2
000612: 04,2325           54112                           TS       SGNON
000613: 04,2326           67763                           AD       ONE
000614: 04,2327           54113                           TS       SGNOFF
000615: 04,2330           02310                           TC       SGNCOM
000616:
000617: 04,2331           00005        SGNTAB             OCT      5                                     #  -R1
000618: 04,2332           00003                           OCT      3                                     #  -R2
000619: 04,2333           00000                           OCT      0                                     #  -R3
000620:
000621: 04,2334           22002        SIGNTEST           LXCH     Q                                     #  ALLOWS +,- ONLY WHEN DSPCOUNT=R1D1,
000622: 04,2335           36311                           CAF      THREE                                 #  R2D1, OR R3D1.  ALLOWS ONLY FIRST OF
000623: 04,2336           70271                           MASK     DECBRNCH                              #  CONSECUTIVE +/- CHARACTERS.
000624: 04,2337           10000                           CCS      A                                     #  IF LOW2 BITS OF DECBRNCH NOT= 0,  SIGN
000625: 04,2340           05567                           TC       ENDOFJOB                              #  FOR THIS WORD ALREADY IN. REJECT.
000626: 04,2341           44527                           CS       R1D1
000627: 04,2342           02350                           TC       SGNTST1
000628: 04,2343           44530                           CS       R2D1
000629: 04,2344           02350                           TC       SGNTST1
000630: 04,2345           44531                           CS       R3D1
000631: 04,2346           02350                           TC       SGNTST1
000632: 04,2347           05567                           TC       ENDOFJOB                              #  NO MATCH FOUND. SIGN ILLEGAL
000633: 04,2350           60270        SGNTST1            AD       DSPCOUNT
000634: 04,2351           00006                           EXTEND
000635: 04,2352           12354                           BZF      +2                                    #  MATCH FOUND
000636: 04,2353           00002                           TC       Q
000637: 04,2354           00001                           TC       L                                     #  SIGN LEGAL
000638:
000639:                                                                                                  #  ERROR LIGHT RESET (RSET) TURNS OFF,
000640:                                                                                                  #  UPLINK ACTIVITY, AUTO, HOLD, FREE, NO ATT, OPERATOR ERROR,
000641:                                                                                                  #  PROG ALM, TRACKER FAIL.
000642:                                                                                                  #  LEAVES GIMBAL LOCK ALONE.
000643:                                                                                                  #  IT ALSO ZEROES THE :TEST ALARM: OUT BIT, WHICH TURNS OFF STBY,RESTART.
000644:                                                                                                  #  IT ALSO SETS :CAUTION RESET: TO 1.
000645:                                                                                                  #  IT ALSO FORCES BIT 12 OF ALL DSPTAB ENTRIES TO 1.
000646:
000647: 04,2355           56105        ERROR              XCH      21/22REG                              #  RESTORE ORIGINAL C(DSPLOCK). THUS ERROR
000648: 04,2356           54303                           TS       DSPLOCK                               #  LIGHT RESET LEAVES DSPLOCK UNCHANGED.
000649: 04,2357           00004                           INHINT
000650: 04,2360           37752                           CAF      BIT10                                 #  TURN ON :CAUTION RESET: OUTBIT
000651: 04,2361           00006                           EXTEND
000652: 04,2362           05011                           WOR      DSALMOUT                              #  BIT10 CHAN 11
000653: 04,2363           32444                           CAF      GL+NOATT                              #  LEAVE GIMBAL LOCK AND NO ATT INTACT,
000654: 04,2364           70326                           MASK     DSPTAB     +11D                       #  TURNING OFF AUTO, HOLD, FREE,
000655: 04,2365           67745                           AD       BIT15                                 #  PROG ALARM, AND TRACKER.
000656: 04,2366           54326                           TS       DSPTAB     +11D


000658: 04,2367           45642                           CS       PRIO16                                #  RESET FAIL BITS WHICH GENERATE PROG
000659: 04,2370           70366                           MASK     IMODES33                              #  ALARM SO THAT IF THE FAILURE STILL
000660: 04,2371           65642                           AD       PRIO16                                #  EXISTS, THE ALARM WILL COME BACK.
000661: 04,2372           54366                           TS       IMODES33
000662: 04,2373           47752                           CS       BIT10
000663: 04,2374           70365                           MASK     IMODES30
000664: 04,2375           67752                           AD       BIT10
000665: 04,2376           54365                           TS       IMODES30
000666:
000667: 04,2377           42443                           CS       RFAILS
000668: 04,2400           70412                           MASK     RADMODES
000669: 04,2401           67755                           AD       BIT7
000670: 04,2402           54412                           TS       RADMODES
000671:
000672: 04,2403           47752                           CS       BIT10                                 #  TURN OFF :TEST ALARM: OUTBIT.
000673: 04,2404           00006                           EXTEND
000674: 04,2405           03013                           WAND     CHAN13
000675: 04,2406           42442                           CS       ERCON                                 #  TURN OFF UPLINK ACTIVITY,
000676: 04,2407           00006                           EXTEND                                         #  OPERATOR ERROR.
000677: 04,2410           03011                           WAND     DSALMOUT
000678: 04,2411           34570        TSTAB              CAF      BINCON                                #  (DEC 10)
000679: 04,2412           54107                           TS       ERCNT                                 #  ERCNT = COUNT
000680: 04,2413           00004                           INHINT
000681: 04,2414           50107                           INDEX    ERCNT
000682: 04,2415           10313                           CCS      DSPTAB
000683: 04,2416           67763                           AD       ONE
000684: 04,2417           02424                           TC       ERPLUS
000685: 04,2420           67763                           AD       ONE
000686: 04,2421           40000        ERMINUS            CS       A
000687: 04,2422           72445                           MASK     NOTBIT12
000688: 04,2423           02427                           TC       ERCOM
000689: 04,2424           40000        ERPLUS             CS       A
000690: 04,2425           72445                           MASK     NOTBIT12
000691: 04,2426           40000                           CS       A                                     #  MIGHT WANT TO RESET CLPASS, DECBRNCH,
000692: 04,2427           50107        ERCOM              INDEX    ERCNT                                 #  ETC.
000693: 04,2430           54313                           TS       DSPTAB
000694: 04,2431           00003                           RELINT
000695: 04,2432           10107                           CCS      ERCNT
000696: 04,2433           02412                           TC       TSTAB      +1
000697: 04,2434           37767                           CAF      ZERO
000698: 04,2435           55360                           TS       FAILREG
000699: 04,2436           55361                           TS       FAILREG    +1
000700: 04,2437           55362                           TS       FAILREG    +2
000701: 04,2440           55357                           TS       SFAIL
000702: 04,2441           05567                           TC       ENDOFJOB
000703:
000704: 04,2442           00104        ERCON              OCT      104                                   #  CHAN 11 BITS 3,7.
000705:                                                                                                  #  UPLINK ACTIVITY, AND OPERATOR ERROR.
000706: 04,2443           00330        RFAILS             OCT      330                                   #  RADAR CDU AND DATA FAIL FLAGS.
000707: 04,2444           00050        GL+NOATT           OCT      00050                                 #  NO ATT AND GIMBAL LOCK LAMPS


000709: 04,2445           73777        NOTBIT12           OCT      73777
000710:
000711:
000712:                                                                                                  #  CLEAR BLANKS WHICH R1, R2, R3 IS CURRENT OR LAST TO BE DISPLAYED(PERTINE
000713:                                                                                                  #  NT XREG,YREG,ZREG IS CLEARED). SUCCESSIVE CLEARS TAKE CARE OF EACH RX
000714:                                                                                                  #  L/ RC UNTIL R1 IS DONE. THEN NO FURTHER ACTION
000715:
000716:                                                                                                  #  THE SINGLE COMPONENT LOAD VERBS ALLOW ONLY THE SINGLE RC THAT IS
000717:                                                                                                  #  APPROPRIATE TO BE CLEARED.
000718:
000719:                                                                                                  #  CLPASS   +0  PASS0, CAN BE BACKED UP
000720:                                                                                                  #           +NZ  HIPASS, CAN BE BACKED UP
000721:                                                                                                  #           -NZ  PASS0, CANNOT BE BACKED UP
000722:
000723: 04,2446           10270        CLEAR              CCS      DSPCOUNT
000724: 04,2447           67763                           AD       ONE
000725: 04,2450           02452                           TC       +2
000726: 04,2451           67763                           AD       ONE
000727: 04,2452           50000                           INDEX    A                                     #  DO NOT CHANGE DSPCOUNT BECAUSE MAY LATER
000728: 04,2453           32217                           CAF      INRELTAB                              #  FAIL LEGALTST.
000729: 04,2454           54127                           TS       INREL                                 #  MUST SET INREL, EVEN FOR HIPASS.
000730: 04,2455           10306                           CCS      CLPASS
000731: 04,2456           02464                           TC       CLPASHI                               #  +
000732: 04,2457           02461                           TC       +2                                    #  +0    IF CLPASS IS +0 OR -, IT IS PASS0
000733: 04,2460           02461                           TC       +1                                    #  -
000734: 04,2461           30127                           CA       INREL
000735: 04,2462           02506                           TC       LEGALTST
000736: 04,2463           02501                           TC       CLEAR1
000737: 04,2464           10127        CLPASHI            CCS      INREL
000738: 04,2465           54127                           TS       INREL
000739: 04,2466           02506                           TC       LEGALTST
000740: 04,2467           32555                           CAF      DOUBLK     +2                         #  +3 TO - NUMBER, BACKS DATA REQUESTS.
000741: 04,2470           26304                           ADS      REQRET
000742: 04,2471           30127                           CA       INREL
000743: 04,2472           54115                           TS       MIXTEMP                               #  TEMP STORAGE FOR INREL
000744: 04,2473           00006                           EXTEND
000745: 04,2474           26272                           DIM      VERBREG                               #  DECREMENT VERB AND RE-DISPLAY
000746: 04,2475           05206                           TC       BANKCALL
000747: 04,2476           12315                           CADR     UPDATVB
000748: 04,2477           30115                           CA       MIXTEMP
000749: 04,2500           54127                           TS       INREL                                 #  RESTORE INREL
000750: 04,2501           02504        CLEAR1             TC       CLR5
000751: 04,2502           24306                           INCR     CLPASS                                #  ONLY IF CLPASS IS + OR +0,
000752: 04,2503           05567                           TC       ENDOFJOB                              #  SET FOR HIGHER PASS.
000753: 04,2504           22002        CLR5               LXCH     Q                                     #  USES 5BLANK  BUT AVOIDS ITS TC GETINREL
000754: 04,2505           02516                           TC       5BLANK     +2
000755: 04,2506           65336        LEGALTST           AD       NEG2
000756: 04,2507           10000                           CCS      A
000757: 04,2510           00002                           TC       Q                                     #  LEGAL  INREL G/ 2


000759: 04,2511           04736                           TC       CCSHOLE
000760: 04,2512           05567                           TC       ENDOFJOB                              #  ILLEGAL INREL= 0,1
000761: 04,2513           00002                           TC       Q                                     #  LEGAL  INREL = 2
000762:
000763:                                                                                                  #  5BLANK BLANKS 5 CHAR DISPLAY WORD IN R1, R2, OR R3. IT ALSO ZEROES XREG,
000764:                                                                                                  #  YREG, OR ZREG.PLACE ANY + DSPCOUNT NUMBER FOR PERTINENT RC INTO DSPCOUNT
000765:                                                                                                  #  DSPCOUNT IS LEFT SET TO LEFT MOST DSP NUMB FOR RC JUST BLANKED.
000766:
000767: 04,2514           22002        5BLANK             LXCH     Q
000768: 04,2515           02213                           TC       GETINREL
000769: 04,2516           37767                           CAF      ZERO
000770: 04,2517           50127                           INDEX    INREL
000771: 04,2520           54272                           TS       VERBREG                               #  ZERO X, Y, Z REG.
000772: 04,2521           50127                           INDEX    INREL
000773: 04,2522           54275                           TS       XREGLP     -2
000774: 04,2523           54114                           TS       CODE
000775: 04,2524           50127                           INDEX    INREL                                 #  ZERO PERTINENT DEC COMP BIT.
000776: 04,2525           47755                           CS       BIT7                                  #  PROTECT OTHERS
000777: 04,2526           70271                           MASK     DECBRNCH
000778: 04,2527           72556                           MASK     BRNCHCON                              #  ZERO LOW 2 BITS.
000779: 04,2530           54271                           TS       DECBRNCH
000780: 04,2531           50127                           INDEX    INREL
000781: 04,2532           32546                           CAF      SINBLANK   -2                         #  BLANK ISOLATED CHAR SEPARATELY
000782: 04,2533           54133                           TS       COUNT
000783: 04,2534           03217                           TC       DSPIN
000784: 04,2535           50127        5BLANK1            INDEX    INREL
000785: 04,2536           32551                           CAF      DOUBLK     -2
000786: 04,2537           54270                           TS       DSPCOUNT
000787: 04,2540           02557                           TC       2BLANK
000788: 04,2541           47762                           CS       TWO
000789: 04,2542           26270                           ADS      DSPCOUNT
000790: 04,2543           02557                           TC       2BLANK
000791: 04,2544           50127                           INDEX    INREL
000792: 04,2545           34525                           CAF      R1D1       -2
000793: 04,2546           54270                           TS       DSPCOUNT                              #  SET DSPCOUNT TO LEFT MOST DSP NUMBER
000794: 04,2547           00001                           TC       L                                     #  OF REG. JUST BLANKED
000795:
000796: 04,2550           00016        SINBLANK           OCT      16                                    #  DEC 14
000797: 04,2551           00005                           OCT      5
000798: 04,2552           00004                           OCT      4
000799: 04,2553           00015        DOUBLK             OCT      15                                    #  DEC 13
000800: 04,2554           00011                           OCT      11                                    #  DEC 9
000801: 04,2555           00003                           OCT      3
000802:
000803: 04,2556           77774        BRNCHCON           OCT      77774
000804:
000805:                                                                                                  #  2BLANK BLANKS TWO CHAR. PLACE DSP NUMBER OF LEFT CHAR OF THE PAIR INTO
000806:                                                                                                  #  DSPCOUNT. THIS NUMBER IS LEFT IN DSPCOUNT


000808:
000809: 04,2557           30270        2BLANK             CA       DSPCOUNT
000810: 04,2560           54021                           TS       SR
000811: 04,2561           42572                           CS       BLANKCON
000812: 04,2562           00004                           INHINT
000813: 04,2563           50021                           INDEX    SR
000814: 04,2564           56313                           XCH      DSPTAB
000815: 04,2565           00006                           EXTEND
000816: 04,2566           62570                           BZMF     +2                                    #  IF OLD CONTENTS -, NOUT OK
000817: 04,2567           24307                           INCR     NOUT                                  #  IF OLD CONTENTS +, +1 TO NOUT
000818: 04,2570           00003                           RELINT                                         #  IF -, NOUT OK
000819: 04,2571           00002                           TC       Q
000820: 04,2572           04000        BLANKCON           OCT      4000
000821:


000823:                                                                                                  #  ENTER PASS 0 IS THE EXECUTE FUNCTION. HIGHER ORDER ENTERS ARE TO LOAD
000824:                                                                                                  #  DATA. THE SIGN OF REQRET DETERMINES THE PASS, + FOR PASS 0, - FOR HIGHER
000825:                                                                                                  #  PASSES.
000826:
000827:
000828:                                                                                                  #  MACHINE CADR TO BE SPECIFIED (MCTBS) NOUNS DESIRE AN ECADR TO BE LOADED
000829:                                                                                                  #  WHEN USED WITH LOAD VERBS, MONITOR VERBS, OR DISPLAY VERBS (EXCEPT
000830:                                                                                                  #  VERB = FIXED MEMORY DISPLAY, WHICH REQUIRES AN FCADR).
000831:
000832: 05,2000                                           SETLOC   22000
000833:
000834: 05,2000           03344        NVSUBB             TC       NVSUB1                                #  STANDARD LEAD INS. DONT MOVE.
000835: 05,2001           13403        DSPMM              TCF      DSPMM1
000836: 05,2002           02663        LOADLV1            TC       LOADLV
000837:                                                                                                  #  END OF STANDARD LEAD INS.
000838:
000839:
000840: 05,2003           37767        ENTER              CAF      ZERO
000841: 05,2004           54306                           TS       CLPASS
000842: 05,2005           34505                           CAF      ENDINST
000843: 05,2006           54126                           TS       ENTRET
000844: 05,2007           10304                           CCS      REQRET
000845: 05,2010           02031                           TC       ENTPAS0                               #  IF +, PASS 0
000846: 05,2011           02031                           TC       ENTPAS0                               #  IF +, PASS 0
000847: 05,2012           02013                           TC       +1                                    #  IF -, NOT PASS 0
000848: 05,2013           36311                           CAF      THREE                                 #  IF DEC, ALARM IF LESS THAN 5 CHAR IN,
000849: 05,2014           70271                           MASK     DECBRNCH                              #  BUT LEAVE REQRET - AND FLASH ON, SO
000850: 05,2015           10000                           CCS      A                                     #  OPERATOR CAN SUPPLY MISSING NUMERICAL
000851: 05,2016           02020                           TC       +2                                    #  CHARACTERS AND CONTINUE.
000852: 05,2017           02024                           TC       ACCEPTWD                              #  OCTAL. ANY NUMBER OF CHAR OK.
000853: 05,2020           10270                           CCS      DSPCOUNT
000854: 05,2021           02324                           TC       GODSPALM                              #  LESS THAN 5 CHAR DEC(DSPCOUNT IS +)
000855: 05,2022           02324                           TC       GODSPALM                              #  LESS THAN 5 CHAR DEC(DSPCOUNT IS +)
000856: 05,2023           02024                           TC       +1                                    #  5 CHAR IN (DSPCOUNT IS -)
000857: 05,2024           40304        ACCEPTWD           CS       REQRET                                #  5 CHAR IN (DSPCOUNT IS -)
000858: 05,2025           54304                           TS       REQRET                                #  SET REQRET +.
000859: 05,2026           04626                           TC       FLASHOFF
000860: 05,2027           00304                           TC       REQRET
000861:
000862: 05,2030     0126               ENTEXIT            =        ENTRET
000863:
000864: 05,2030           00030        LOWVERB            OCT      30                                    #  LOWER VERB THAT AVOIDS NOUN TEST
000865:
000866: 05,2031           37767        ENTPAS0            CAF      ZERO                                  #   NOUN VERB SUB ENTERS HERE
000867: 05,2032           54271                           TS       DECBRNCH
000868: 05,2033           40272        TESTVB             CS       VERBREG                               #  IF VERB IS 30-77, SKIP NOUN TEST


000870: 05,2034           62030                           AD       LOWVERB                               #  30-VB
000871: 05,2035           00006                           EXTEND
000872: 05,2036           62116                           BZMF     VERBFAN                               #  VERB G/ E 30
000873: 05,2037           00006        TESTNN             EXTEND                                         #  VERB L/ 30
000874: 05,2040           32076                           DCA      LODNNLOC                              #  SWITCH BANKS TO NOUN TABLE READING
000875: 05,2041           52006                           DXCH     Z                                     #  ROUTINE.
000876: 05,2042           50130                           INDEX    MIXBR
000877: 05,2043           02043                           TC       +0
000878: 05,2044           02046                           TC       +2                                    #  NORMAL
000879: 05,2045           02176                           TC       MIXNOUN                               #  MIXED
000880: 05,2046           10136                           CCS      NNADTEM                               #  NORMAL
000881: 05,2047           02114                           TC       VERBFAN    -2                         #       NORMAL IF +
000882: 05,2050           02324                           TC       GODSPALM                              #  NOT IN USE   IF +0
000883: 05,2051           02055                           TC       REQADD                                #  SPECIFY MACHINE CADR IF -
000884: 05,2052           24310                           INCR     NOUNCADR                              #  AUGMENT MACHINE CADR IF -0
000885: 05,2053           04521                           TC       SETNADD                               #  ECADR FROM NOUNCADR, SETS EB, NOUNADD.
000886: 05,2054           02102                           TC       INTMCTBS   +2
000887: 05,2055           37745        REQADD             CAF      BIT15                                 #  SET CLPASS FOR PASS 0 ONLY
000888: 05,2056           54306                           TS       CLPASS
000889: 05,2057           44505                           CS       ENDINST                               #  TEST IF REACHED HERE FROM INTERNAL OR
000890: 05,2060           60126                           AD       ENTEXIT                               #              FROM EXTERNAL
000891: 05,2061           00006                           EXTEND
000892: 05,2062           12064                           BZF      +2                                    #  EXTERNAL MACH CADR TO BE SPECIFIED
000893: 05,2063           02100                           TC       INTMCTBS
000894: 05,2064           02256                           TC       REQDATZ                               #  EXTERNAL MACH CADR TO BE SPECIFIED
000895: 05,2065           10271                           CCS      DECBRNCH
000896: 05,2066           02324                           TC       GODSPALM                              #  ALARM IF DECIMAL USED FOR MCTBS
000897: 05,2067           56276                           XCH      ZREG                                  #  OCTAL USED    OK
000898: 05,2070           04513                           TC       SETNCADR                              #  ECADR INTO NOUNCADR. SET EB, NOUNADD.
000899: 05,2071           00006                           EXTEND
000900: 05,2072           32076                           DCA      LODNNLOC                              #  SWITCH BANKS TO NOUN TABLE READING
000901: 05,2073           52006                           DXCH     Z                                     #  ROUTINE.
000902: 05,2074           02116                           TC       VERBFAN
000903:
000904: 05,2075     0270                                  EBANK=   DSPCOUNT
000905: 05,2075           02000 46060  LODNNLOC           2CADR    LODNNTAB
000906:
000907: 05,2077           77772        NEG5               OCT      77772
000908:
000909: 05,2100           30146        INTMCTBS           CA       MPAC       +2                         #  INTERNAL MACH CADR TO BE SPECIFIED.
000910: 05,2101           04513                           TC       SETNCADR                              #  ECADR INTO NOUNCADR. SET EB. NOUNADD.
000911: 05,2102           47760                           CS       BIT4                                  #  NVSUB CALL LEFT CADR IN MPAC+2 FOR MACH
000912: 05,2103           70272                           MASK     VERBREG                               #  CADR TO BE SPECIFIED.
000913: 05,2104           62077                           AD       NEG5                                  #  MASKING MAKES VB15 LOOK LIKE VB05.
000914: 05,2105           00006                           EXTEND
000915: 05,2106           12116                           BZF      VERBFAN                               #  VB = 05 OR 15, DO NOT DISPLAY CADR.
000916: 05,2107           34531                           CAF      R3D1                                  #  VB NOT = 05 OR 15. DISPLAY CADR.
000917: 05,2110           54270                           TS       DSPCOUNT
000918: 05,2111           30310                           CA       NOUNCADR
000919: 05,2112           03222                           TC       DSPOCTWD


000921: 05,2113           02116                           TC       VERBFAN
000922:
000923: 05,2114           67763                           AD       ONE
000924: 05,2115           04513                           TC       SETNCADR                              #  ECADR INTO NOUNCADR. SETS EB, NOUNADD.
000925: 05,2116           42131        VERBFAN            CS       LST2CON
000926: 05,2117           60272                           AD       VERBREG                               #  VERB = LST2CON
000927: 05,2120           10000                           CCS      A
000928: 05,2121           67763                           AD       ONE                                   #  VERB G/ LST2CON
000929: 05,2122           02124                           TC       +2
000930: 05,2123           02133                           TC       VBFANDIR                              #  VERB L/ LST2CON
000931: 05,2124           54144                           TS       MPAC
000932: 05,2125           04666                           TC       RELDSP                                #  RELEASE DISPLAY SYST
000933: 05,2126           56144                           XCH      MPAC                                  #  ALSO TURN OFF RELEASE DISPLAY SYST LIGHT
000934: 05,2127           62132                           AD       LST2CADR
000935: 05,2130           05230                           TC       BANKJUMP
000936: 05,2131           00040        LST2CON            OCT      40                                    #  FIRST LST2 VERB
000937: 05,2132           22000        LST2CADR           CADR     LST2FAN
000938:
000939: 05,2133           50272        VBFANDIR           INDEX    VERBREG
000940: 05,2134           32136                           CAF      VERBTAB
000941: 05,2135           05230                           TC       BANKJUMP
000942:
000943: 05,2136           12324        VERBTAB            CADR     GODSPALM                              #  VB00 ILLEGAL
000944: 05,2137           12340                           CADR     DSPA                                  #  VB01 DISPLAY OCT COMP 1 (R1)
000945: 05,2140           12345                           CADR     DSPB                                  #  VB02 DISPLAY OCT COMP 2 (R1)
000946: 05,2141           12352                           CADR     DSPC                                  #  VB03 DISPLAY OCT COMP 3 (R1)
000947: 05,2142           12333                           CADR     DSPAB                                 #  VB04 DISPLAY OCT COMP 1,2 (R1,R2)
000948: 05,2143           12326                           CADR     DSPABC                                #  VB05 DISPLAY OCT COMP 1,2,3 (R1,R2,R3)
000949: 05,2144           12445                           CADR     DECDSP                                #  VB06 DECIMAL DISPLAY
000950: 05,2145           10722                           CADR     DSPDPDEC                              #  VB07 DP DECIMAL DISPLAY (R1,R2)
000951: 05,2146           11315                           CADR     DSPALARM                              #  VB10 SPARE
000952: 05,2147           13077                           CADR     MONITOR                               #  VB11 MONITOR OCT COMP 1 (R1)
000953: 05,2150           13077                           CADR     MONITOR                               #  VB12 MONITOR OCT COMP 2 (R1)
000954: 05,2151           13077                           CADR     MONITOR                               #  VB13 MONITOR OCT COMP 3 (R1)
000955: 05,2152           13077                           CADR     MONITOR                               #  VB14 MONITOR OCT COMP 1,2 (R1,R2)
000956: 05,2153           13077                           CADR     MONITOR                               #  VB15 MONITOR OCT COMP 1,2,3 (R1,R2,R3)
000957: 05,2154           13077                           CADR     MONITOR                               #  VB16 MONITOR DECIMAL
000958: 05,2155           13077                           CADR     MONITOR                               #  VB17 MONITOR DP DEC (R1,R2)
000959: 05,2156           12324                           CADR     GODSPALM                              #  VB20 SPARE
000960: 05,2157           12620                           CADR     ALOAD                                 #  VB21 LOAD COMP 1 (R1)
000961: 05,2160           12631                           CADR     BLOAD                                 #  VB22 LOAD COMP 2 (R2)
000962: 05,2161           12646                           CADR     CLOAD                                 #  VB23 LOAD COMP 3 (R3)
000963: 05,2162           12572                           CADR     ABLOAD                                #  VB24 LOAD COMP 1,2 (R1,R2)
000964: 05,2163           12535                           CADR     ABCLOAD                               #  VB25 LOAD COMP 1,2,3 (R1,R2,R3)
000965: 05,2164           12324                           CADR     GODSPALM                              #  VB26 SPARE
000966: 05,2165           13214                           CADR     DSPFMEM                               #  VB27 FIXED MEMORY DISPLAY
000967:                                                                                                  #  THE FOLLOWING VERBS MAKE NO NOUN TEST
000968: 05,2166           13314        REQEXLOC           CADR     VBRQEXEC                              #  VB30 REQUEST EXECUTIVE
000969: 05,2167           13340                           CADR     VBRQWAIT                              #  VB31 REQUEST WAITLIST
000970: 05,2170           11343                           CADR     BUMP                                  #  VB32 C(R2) INTO R3, C(R1) INTO R2


000972: 05,2171           11326                           CADR     VBPROC                                #  VB33 PROCEED WITHOUT DATA
000973: 05,2172           11333                           CADR     VBTERM                                #  VB34 TERMINATE CURRENT TEST OR LOAD REQ
000974: 05,2173           13414                           CADR     VBTSTLTS                              #  VB35 TEST LIGHTS
000975: 05,2174           02000                           CADR     SLAP1                                 #  VB36 FRESH START
000976: 05,2175           13267                           CADR     MMCHANG                               #  VB37 CHANGE MAJOR MODE
000977:
000978:                                                                                                  #  THE LIST2 VERBFAN IS LOCATED IN THE EXTENDED VERB BANK.
000979:


000981:                                                                                                  #  NNADTAB CONTAINS A RELATIVE ADDRESS, IDADDREL(IN LOW 10 BITS), REFERRING
000982:                                                                                                  #  TO WHERE 3 CONSECUTIVE ADDRESSES ARE STORED (IN IDADDTAB).
000983:                                                                                                  #  MIXNOUN GETS DATA AND STORES IN MIXTEMP,+1,+2. IT SETS NOUNADD FOR
000984:                                                                                                  #  MIXTEMP.
000985:
000986: 05,2176           10136        MIXNOUN            CCS      NNADTEM
000987: 05,2177           02203                           TC       +4                                    #  + IN USE
000988: 05,2200           02324                           TC       GODSPALM                              #  +0 NOT IN USE
000989: 05,2201           02203                           TC       +2                                    #  - IN USE
000990: 05,2202           02203                           TC       +1                                    #  -0 IN USE
000991: 05,2203           46306                           CS       SIX
000992: 05,2204           60272                           AD       VERBREG
000993: 05,2205           00006                           EXTEND
000994: 05,2206           62210                           BZMF     +2                                    #  VERB L/E 6
000995: 05,2207           02116                           TC       VERBFAN                               #  AVOID MIXNOUN SWAP IF VB NOT = DISPLAY
000996: 05,2210           37762                           CAF      TWO
000997: 05,2211           54107        MIXNN1             TS       DECOUNT
000998: 05,2212           62235                           AD       MIXAD
000999: 05,2213           54135                           TS       NOUNADD                               #  SET NOUNADD TO MIXTEMP + K
001000: 05,2214           50107                           INDEX    DECOUNT                               #  GET IDADDTAB ENTRY FOR COMPONENT K
001001: 05,2215           30140                           CA       IDAD1TEM                              #  OF NOUN.
001002: 05,2216           54112                           TS       NOUNTEM
001003:                                                                                                  #  TEST FOR DP (FOR OCT DISPLAY).  IF SO, GET
001004:                                                                                                  #    MINOR PART ONLY.
001005: 05,2217           02721                           TC       SFRUTMIX                              #  GET SF ROUT NUMBER IN A
001006: 05,2220           02236                           TC       DPTEST
001007: 05,2221           02223                           TC       MIXNN2                                #  NO DP
001008: 05,2222           24112                           INCR     NOUNTEM                               #  DP GET MINOR PART
001009: 05,2223           30112        MIXNN2             CA       NOUNTEM
001010: 05,2224           74563                           MASK     LOW11                                 #  ESUBK (NO DP)  OR (ESUBK)+1    FOR DP
001011: 05,2225           04523                           TC       SETEBANK                              #  SET EBANK, LEAVE EADRES IN A.
001012: 05,2226           50000                           INDEX    A                                     #  PICK UP C(ESUBK)  NOT DP
001013: 05,2227           30000                           CA       0                                     #  OR C((ESUBK)+1)  FOR DP MINOR PART
001014: 05,2230           50135                           INDEX    NOUNADD
001015: 05,2231           56000                           XCH      0                                     #  STORE IN MIXTEM + K
001016: 05,2232           10107                           CCS      DECOUNT
001017: 05,2233           02211                           TC       MIXNN1
001018: 05,2234           02116                           TC       VERBFAN
001019:
001020: 05,2235           00115        MIXAD              TC       MIXTEMP
001021:
001022:                                                                                                  #  DPTEST        ENTER WITH SF ROUT NUMBER IN A.
001023:                                                                                                  #                RETURNS TO L+1 IF NO DP.
001024:                                                                                                  #                RETURNS TO L+2 IF DP.
001025:
001026: 05,2236           50000        DPTEST             INDEX    A
001027: 05,2237           12240                           TCF      +1
001028: 05,2240           00002                           TC       Q                                     #  OCTAL ONLY  NO DP


001030: 05,2241           00002                           TC       Q                                     #  FRACT NO DP
001031: 05,2242           00002                           TC       Q                                     #  DEG  NO DP
001032: 05,2243           00002                           TC       Q                                     #  ARITH  NO DP
001033: 05,2244           12250                           TCF      DPTEST1                               #  DP1OUT
001034: 05,2245           12250                           TCF      DPTEST1                               #  DP2OUT
001035: 05,2246           00002                           TC       Q                                     #  DPDEG  NO DP
001036: 05,2247           12250                           TCF      DPTEST1                               #  DP3OUT
001037: 05,2250           50002        DPTEST1            INDEX    Q
001038: 05,2251           00001                           TC       1                                     #  RETURN TO L+2
001039:
001040: 05,2252           34527        REQDATX            CAF      R1D1
001041: 05,2253           12257                           TCF      REQCOM
001042: 05,2254           34530        REQDATY            CAF      R2D1
001043: 05,2255           12257                           TCF      REQCOM
001044: 05,2256           34531        REQDATZ            CAF      R3D1
001045: 05,2257           54270        REQCOM             TS       DSPCOUNT
001046: 05,2260           40002                           CS       Q
001047: 05,2261           54304                           TS       REQRET
001048: 05,2262           05206                           TC       BANKCALL
001049: 05,2263           10514                           CADR     5BLANK
001050: 05,2264           04622                           TC       FLASHON
001051: 05,2265           44505                           CS       ENDINST
001052: 05,2266           60126                           AD       ENTEXIT
001053: 05,2267           00006                           EXTEND
001054: 05,2270           12273                           BZF      ENDRQDAT                              #  ENTEXIT = ENDOFJOB. EXTERNALLY INITIATED
001055: 05,2271           47767                           CS       ZERO                                  #  ENTEXIT NOT ENDOFJOB. NVSUB INITIATED
001056: 05,2272           54327                           TS       CADRSTOR                              #  NVSUB INITIATED LOAD. SET CADRSTOR TO -0
001057: 05,2273           00126        ENDRQDAT           TC       ENTEXIT
001058:
001059:                                                                                                  #  IF NVSUB INITIATED LOAD, SET CADRSTOR TO -0 TO TELL RECALTST TO RELEASE
001060:                                                                                                  #  DISPLAY IF ENDIDLE WAS NOT USED. (NECESSARY FOR DATAWAIT)
001061:
001062: 05,2274           54273                           TS       NOUNREG
001063: 05,2275           56002        UPDATNN            XCH      Q
001064: 05,2276           54107                           TS       UPDATRET
001065: 05,2277           00006                           EXTEND
001066: 05,2300           32076                           DCA      LODNNLOC                              #  SWITCH BANKS TO NOUN TABLE READING
001067: 05,2301           52006                           DXCH     Z                                     #  ROUTINE.
001068: 05,2302           10136                           CCS      NNADTEM
001069: 05,2303           67763                           AD       ONE                                   #  NORMAL
001070: 05,2304           12307                           TCF      PUTADD
001071: 05,2305           12310                           TCF      PUTADD     +1                         #  MCTBS  DONT CHANGE NOUNADD
001072: 05,2306           12310                           TCF      PUTADD     +1                         #  MCTBI  DONT CHANGE NOUNADD
001073: 05,2307           04513        PUTADD             TC       SETNCADR                              #  ECADR INTO NOUNCADR. SETS EB. NOUNADD.
001074: 05,2310           34566                           CAF      ND1
001075: 05,2311           54270                           TS       DSPCOUNT


001077: 05,2312           30273                           CA       NOUNREG
001078: 05,2313           12322                           TCF      UPDAT1
001079:
001080: 05,2314           54272                           TS       VERBREG
001081: 05,2315           56002        UPDATVB            XCH      Q
001082: 05,2316           54107                           TS       UPDATRET
001083: 05,2317           34565                           CAF      VD1
001084: 05,2320           54270                           TS       DSPCOUNT
001085: 05,2321           30272                           CA       VERBREG
001086: 05,2322           03255        UPDAT1             TC       DSP2BIT
001087: 05,2323           00107                           TC       UPDATRET
001088:
001089: 05,2324           05225        GODSPALM           TC       POSTJUMP
001090: 05,2325           11315                           CADR     DSPALARM
001091:


001093:                                                                                                  #  NOUN TABLES
001094:
001095:                                                                                                  #  NOUN CODE L/ 55, NORMAL CASE.  NOUN CODE G/E 55, MIXED NOUN CASE.
001096:                                                                                                  #  FOR NORMAL CASE, NNADTAB CONTAINS ONE       ECADR     FOR EACH NOUN.
001097:                                                                                                  #  +0 INDICATES NOUN NOT USED.   - ENTRY INDICATES MACHINE CADR(E OR F) TO
001098:                                                                                                  #  BE SPECIFIED. -1 INDICATES CHANNEL TO BE SPECIFIED. -0 INDICATES AUGMENT
001099:                                                                                                  #  OF LAST MACHINE CADR SUPPLIED.
001100:
001101:                                                                                                  #  FOR MIXED CASE, NNADTAB CONTAINS ONE INDIRECT ADDRESS(IDADDREL) IN LOW
001102:                                                                                                  #  10 BITS, AND THE COMPONENT CODE NUMBER IN THE HIGH 5 BITS.
001103:
001104:                                                                                                  #  NNTYPTAB IS A PACKED TABLE OF THE FORM MMMMMNNNNNPPPPP.
001105:
001106:                                                                                                  #  FOR THE NORMAL CASE, M-S ARE THE COMPONENT CODE NUMBER.
001107:                                                                                                  #                       N-S ARE THE SF ROUTINE CODE NUMBER.
001108:                                                                                                  #                       P-S ARE THE SF CONSTANT CODE NUMBER.
001109:
001110:                                                                                                  #  MIXED CASE,M-S ARE THE SF CONSTANT3 CODE NUMBER     3 COMPONENT CASE
001111:                                                                                                  #             N-S ARE THE SF CONSTANT2 CODE NUMBER
001112:                                                                                                  #             P-S ARE THE SF CONSTANT1 CODE NUMBER
001113:                                                                                                  #             N-S ARE THE SF CONSTANT2 CODE NUMBER     2 COMPONENT CASE
001114:                                                                                                  #             P-S ARE THE SF CONSTANT1 CODE NUMBER
001115:                                                                                                  #             P-S ARE THE SF CONSTANT1 CODE NUMBER     1 COMPONENT CASE
001116:
001117:                                                                                                  #  THERE IS ALSO AN INDIRECT ADDRESS TABLE(IDADDTAB) FOR MIXED CASE ONLY.
001118:                                                                                                  #  EACH ENTRY CONTAINS ONE ECADR.    IDADDREL IS THE RELATIVE ADDRESS OF
001119:                                                                                                  #  THE FIRST OF THESE ENTRIES.
001120:                                                                                                  #  THERE IS ONE ENTRY IN THIS TABLE FOR EACH COMPONENT OF A MIXED NOUN
001121:                                                                                                  #  THEY ARE LISTED IN ORDER OF ASCENDING K.
001122:
001123:                                                                                                  #  THERE IS ALSO A SCALE FACTOR ROUTINE NUMBER TABLE( RUTMXTAB ) FOR MIXED
001124:                                                                                                  #  CASE ONLY.  THERE IS ONE ENTRY PER MIXED NOUN. THE FORM IS,
001125:                                                                                                  #        QQQQQRRRRRSSSSS
001126:                                                                                                  #  Q-S ARE THE SF ROUTINE 3 CODE NUMBER      3 COMPONENT CASE
001127:                                                                                                  #  R-S ARE THE SF ROUTINE 2 CODE NUMBER
001128:                                                                                                  #  S-S ARE THE SF ROUTINE 1 CODE NUMBER
001129:                                                                                                  #  R-S ARE THE SF ROUTINE 2 CODE NUMBER      2 COMPONENT CASE
001130:                                                                                                  #  S-S ARE THE SF ROUTINE 1 CODE NUMBER
001131:
001132:
001133:                                                                                                  #  IN OCTAL DISPLAY AND LOAD (OCT OR DEC) VERBS, EXCLUDE USE OF VERBS WHOSE
001134:                                                                                                  #  COMPONENT NUMBER IS GREATER THAN THE NUMBER OF COMPONENTS IN NOUN.
001135:                                                                                                  #  ALL MACHINE ADDRESS TO BE SPECIFIED NOUNS ARE 1 COMPONENT.
001136:                                                                                                  #  ONLY EXCEPTION IS NOUN 01 TO ALLOW OCTAL DISPLAYS AND LOADS OF
001137:                                                                                                  #  AN UNCONTOLLED NUMBER OF COMPONENTS.
001138:
001139:
001140:                                                                                                  #  IN MULTI-COMPONENT LOAD VERBS, NO MIXING OF OCTAL AND DECIMAL DATA
001141:                                                                                                  #  COMPONENT WORDS IS ALLOWED. ALARM IF VIOLATION.


001143:
001144:                                                                                                  #  IN DECIMAL LOADS OF DATA, 5 NUMERICAL CHARACTERS MUST BE KEYED IN
001145:                                                                                                  #  BEFORE EACH ENTER. IF NOT, ALARM.
001146:


001148:                                                                                                  #  DISPLAY VERBS
001149:
001150: 05,2326           47762        DSPABC             CS       TWO
001151: 05,2327           02376                           TC       COMPTEST
001152: 05,2330           50135                           INDEX    NOUNADD
001153: 05,2331           40002                           CS       2
001154: 05,2332           56122                           XCH      BUF        +2
001155: 05,2333           47763        DSPAB              CS       ONE
001156: 05,2334           02376                           TC       COMPTEST
001157: 05,2335           50135                           INDEX    NOUNADD
001158: 05,2336           40001                           CS       1
001159: 05,2337           56121                           XCH      BUF        +1
001160: 05,2340           02420        DSPA               TC       TSTFORDP
001161: 05,2341           50135                           INDEX    NOUNADD
001162: 05,2342           40000                           CS       0
001163: 05,2343           56120        DSPCOM1            XCH      BUF
001164: 05,2344           02357                           TC       DSPCOM2
001165: 05,2345           47763        DSPB               CS       ONE
001166: 05,2346           02376                           TC       COMPTEST
001167: 05,2347           50135                           INDEX    NOUNADD
001168: 05,2350           40001                           CS       1
001169: 05,2351           02343                           TC       DSPCOM1
001170: 05,2352           47762        DSPC               CS       TWO
001171: 05,2353           02376                           TC       COMPTEST
001172: 05,2354           50135                           INDEX    NOUNADD
001173: 05,2355           40002                           CS       2
001174: 05,2356           02343                           TC       DSPCOM1
001175: 05,2357           47762        DSPCOM2            CS       TWO                                   #  A  B  C  AB ABC
001176: 05,2360           60272                           AD       VERBREG                               #  -1 -0 +1 +2 +3   IN A
001177: 05,2361           10000                           CCS      A                                     #  +0 +0 +0 +1 +2    IN A AFTER CCS
001178: 05,2362           02365                           TC       DSPCOM3
001179: 05,2363           00126                           TC       ENTEXIT
001180: 05,2364           02365                           TC       +1
001181: 05,2365           54112        DSPCOM3            TS       DISTEM                                #  +0,+1,+2 INTO DISTEM
001182: 05,2366           50000                           INDEX    A
001183: 05,2367           34527                           CAF      R1D1
001184: 05,2370           54270                           TS       DSPCOUNT
001185: 05,2371           50112                           INDEX    DISTEM
001186: 05,2372           40120                           CS       BUF
001187: 05,2373           03222                           TC       DSPOCTWD
001188: 05,2374           56112                           XCH      DISTEM
001189: 05,2375           02361                           TC       DSPCOM2    +2
001190:
001191:                                                                                                  #  COMPTEST ALARMS IF COMPONENT NUMBER OF VERB(LOAD OR OCT DISPLAY) IS
001192:                                                                                                  #  GREATER THAN THE HIGHEST COMPONENT NUMBER OF NOUN.
001193:                                                                                                  #  NOUN 01 IS EXCLUDED FROM TEST.
001194: 05,2376           54113        COMPTEST           TS       SFTEMP1                               #  - VERB COMP
001195: 05,2377           22002                           LXCH     Q
001196: 05,2400           47763        COMPTST1           CS       ONE
001197: 05,2401           60273                           AD       NOUNREG
001198: 05,2402           00006                           EXTEND


001200: 05,2403           12417                           BZF      NDCMPTST                              #  NOUN = 01, ANY COMP OK
001201: 05,2404           50130                           INDEX    MIXBR                                 #  NOUN NOT = 01.
001202: 05,2405           32442                           CAF      COMPICK    -1
001203: 05,2406           50000                           INDEX    A
001204: 05,2407           30000                           CA       0
001205: 05,2410           74560                           MASK     HI5
001206: 05,2411           04541                           TC       LEFT5                                 #  NOUN COMP
001207: 05,2412           60113                           AD       SFTEMP1                               #  NOUN COMP - VERB COMP
001208: 05,2413           10000                           CCS      A
001209: 05,2414           00001                           TC       L                                     #  NOUN COMP G/ VERB COMP
001210: 05,2415           04736                           TC       CCSHOLE
001211: 05,2416           02324                           TC       GODSPALM                              #  NOUN COMP L/ VERB COMP
001212: 05,2417           00001        NDCMPTST           TC       L                                     #  NOUN COMP = VERB COMP
001213:
001214:
001215: 05,2420           22002        TSTFORDP           LXCH     Q                                     #  TEST FOR DP. IF SO, GET MINOR PART ONLY.
001216: 05,2421           30136                           CA       NNADTEM
001217: 05,2422           67763                           AD       ONE                                   #  IF NNADTEM = -1, CHANNEL TO BE SPECIFIED
001218: 05,2423           00006                           EXTEND
001219: 05,2424           12436                           BZF      CHANDSP
001220: 05,2425           50130                           INDEX    MIXBR
001221: 05,2426           02426                           TC       +0
001222: 05,2427           02431                           TC       +2                                    #  NORMAL
001223: 05,2430           00001                           TC       L                                     #  MIXED CASE ALREADY HANDLED IN MIXNOUN
001224: 05,2431           02713                           TC       SFRUTNOR
001225: 05,2432           02236                           TC       DPTEST
001226: 05,2433           00001                           TC       L                                     #  NO DP
001227: 05,2434           24135                           INCR     NOUNADD                               #  DP    E+1 INTO NOUNADD FOR MINOR PART.
001228: 05,2435           00001                           TC       L
001229:
001230: 05,2436           00006        CHANDSP            EXTEND
001231: 05,2437           50310                           INDEX    NOUNCADR
001232: 05,2440           00000                           READ     0
001233: 05,2441           40000                           CS       A
001234: 05,2442           12343                           TCF      DSPCOM1
001235:
001236:
001237: 05,2443           00137        COMPICK            ADRES    NNTYPTEM
001238: 05,2444           00136                           ADRES    NNADTEM
001239:
001240: 05,2445           50130        DECDSP             INDEX    MIXBR                                 #  NORMAL                 MIXED
001241: 05,2446           32442                           CAF      COMPICK    -1                         #  ADRES NNTYPTEM         ADRES NNADTEM
001242: 05,2447           50000                           INDEX    A
001243: 05,2450           30000                           CA       0                                     #  C(NNTYPTEM)            C(NNADTEM)
001244: 05,2451           74560                           MASK     HI5                                   #  GET HI5 OF NNTYPTAB (NORM)OF NNADTAB (MIX)
001245: 05,2452           04541                           TC       LEFT5


001247:
001248: 05,2453           54107                           TS       DECOUNT                               #  COMP NUMBER INTO DECOUNT
001249: 05,2454           54112        DSPDCGET           TS       DECTEM                                #  PICKS UP DATA
001250: 05,2455           60135                           AD       NOUNADD                               #  DECTEM  1COMP +0, 2COMP +1, 3COMP +2
001251: 05,2456           50000                           INDEX    A
001252: 05,2457           40000                           CS       0
001253: 05,2460           50112                           INDEX    DECTEM
001254: 05,2461           56274                           XCH      XREG                                  #  CANT USE BUF SINCE DMP USES IT.
001255: 05,2462           10112                           CCS      DECTEM
001256: 05,2463           02454                           TC       DSPDCGET                              #  MORE TO GET
001257: 05,2464           37767        DSPDCPUT           CAF      ZERO                                  #  DISPLAYS DATA
001258: 05,2465           54145                           TS       MPAC       +1                         #  DECOUNT 1COMP +0, 2COMP +1, 3COMP +2
001259: 05,2466           54146                           TS       MPAC       +2
001260: 05,2467           50107                           INDEX    DECOUNT
001261: 05,2470           34527                           CAF      R1D1
001262: 05,2471           54270                           TS       DSPCOUNT
001263: 05,2472           50107                           INDEX    DECOUNT
001264: 05,2473           40274                           CS       XREG
001265: 05,2474           54144                           TS       MPAC
001266: 05,2475           02734                           TC       SFCONUM                               #  2X( SF CON NUMB ) IN A
001267: 05,2476           54113                           TS       SFTEMP1
001268: 05,2477           00006                           EXTEND                                         #  SWITCH BANKS TO SF CONSTANT TABLE
001269: 05,2500           32512                           DCA      GTSFOUTL                              #     READING ROUTINE.
001270: 05,2501           52006                           DXCH     Z                                     #  LOADS SFTEMP1, SFTEMP2.
001271: 05,2502           50130                           INDEX    MIXBR
001272: 05,2503           02503                           TC       +0
001273: 05,2504           02507                           TC       DSPSFNOR
001274: 05,2505           02721                           TC       SFRUTMIX
001275: 05,2506           02522                           TC       DECDSP3
001276:
001277: 05,2507           02713        DSPSFNOR           TC       SFRUTNOR
001278: 05,2510           02522                           TC       DECDSP3
001279:
001280: 05,2511     0270                                  EBANK=   DSPCOUNT
001281: 05,2511           02037 46060  GTSFOUTL           2CADR    GTSFOUT
001282:
001283:
001284: 05,2513           05206        DSPDCEND           TC       BANKCALL                              #  ALL SFOUT ROUTINES END HERE
001285: 05,2514           11117                           CADR     DSPDECWD
001286: 05,2515           10107                           CCS      DECOUNT
001287: 05,2516           02520                           TC       +2
001288: 05,2517           00126                           TC       ENTEXIT
001289: 05,2520           54107                           TS       DECOUNT
001290: 05,2521           02464                           TC       DSPDCPUT                              #  MORE TO DISPLAY
001291:
001292: 05,2522           50000        DECDSP3            INDEX    A
001293: 05,2523           32525                           CAF      SFOUTABR
001294: 05,2524           05230                           TC       BANKJUMP
001295:


001297: 05,2525           11315        SFOUTABR           CADR     DSPALARM                              #  ALARM IF DEC DISP WITH OCTAL ONLY NOUN
001298: 05,2526           12513                           CADR     DSPDCEND
001299: 05,2527           10573                           CADR     DEGOUTSF
001300: 05,2530           10660                           CADR     ARTOUTSF
001301: 05,2531           10665                           CADR     DP1OUTSF
001302: 05,2532           10672                           CADR     DP2OUTSF
001303: 05,2533           10601                           CADR     OPDEGOUT
001304: 05,2534           10674                           CADR     DP3OUTSF
001305: 05,2535                        ENDRTOUT           EQUALS
001306:
001307:                                                                                                  #          THE FOLLOWING IS ATYPICAL SF ROUTINE. IT USES MPAC. LEAVES RESU
001308:                                                                                                  #  LTS IN MPAC, MPAC+1. ENDS WITH TC DSPDCEND
001309:
001310: 04,2573                                           SETLOC   BLANKCON   +1
001311:
001312:                                                                                                  #     DEGOUTSF SCALES BY .18 THE LOW 14 BITS OF ANGLE, ADDING .18 FOR
001313:                                                                                                  #  NUMBERS IN THE NEGATIVE (AGC) RANGE.
001314:
001315: 04,2573           37767        DEGOUTSF           CAF      ZERO
001316: 04,2574           54146                           TS       MPAC       +2                         #  SET INDEX FOR FULL SCALE
001317: 04,2575           02632                           TC       FIXRANGE
001318: 04,2576           02600                           TC       +2                                    #  NO AUGMENT NEEDED (SFTEMP1 AND 2 ARE 0)
001319: 04,2577           02625                           TC       SETAUG                                #  SET AUGMENTER ACCORDING TO C(MPAC +2)
001320: 04,2600           02643                           TC       DEGCOM
001321:
001322:                                                                                                  #  OPDEGOUT SCALES BY .45 (THE RANGE IS 90 DEGREES) AND ADDS A 20 DEG BIAS.
001323:
001324: 04,2601           10144        OPDEGOUT           CCS      MPAC                                  #  RANGE IS 90 DEG
001325: 04,2602           56144                           XCH      MPAC                                  #  IF POS OR POS 0 THEN ADD BIAS AND
001326: 04,2603           02606                           TC       +3                                    #  CORRECT FOR POSSIBLE OVERFLOW
001327: 04,2604           02615                           TC       NEGOPT                                #  IF NEG NON ZERO
001328: 04,2605           67771                           AD       NEG1                                  #  IF NEG ZERO SUBTRACT 1
001329: 04,2606           62657                           AD       20BIAS
001330: 04,2607           54144        BIASCOM            TS       MPAC                                  #  TEST FOR OVERFLOW
001331: 04,2610           02613                           TC       +3                                    #  NO OVFLOW
001332: 04,2611           37745                           CAF      BIT15                                 #  IF OVFLOW
001333: 04,2612           26144                           ADS      MPAC
001334: 04,2613           37762                           CAF      TWO                                   #  SET MULTIPLIER TO .45
001335: 04,2614           02574                           TC       DEGOUTSF   +1
001336:
001337: 04,2615           56144        NEGOPT             XCH      MPAC                                  #  NEGATIVE CASE
001338: 04,2616           62657                           AD       20BIAS
001339: 04,2617           10000                           CCS      A
001340: 04,2620           02607                           TC       BIASCOM                               #  IF POS THEN SUBTRACT 1 BECAUSE OF 2SCOM
001341: 04,2621           04736                           TC       CCSHOLE
001342: 04,2622           67763                           AD       ONE                                   #  IF NEG RESTORE SUM
001343:


001345: 04,2623           40000                           COM                                            #  IF NEG 0 LEAVE NEG 0
001346: 04,2624           02607                           TC       BIASCOM
001347:
001348: 04,2625           00006        SETAUG             EXTEND                                         #  LOADS SFTEMP1 AND SFTEMP2 WITH THE
001349: 04,2626           50146                           INDEX    MPAC       +2                         #  DP AUGMENTER CONSTANT
001350: 04,2627           32654                           DCA      DEGTAB
001351: 04,2630           52114                           DXCH     SFTEMP1
001352: 04,2631           00002                           TC       Q
001353:
001354: 04,2632           10144        FIXRANGE           CCS      MPAC                                  #  IF MPAC IS + RETURN TO L+1
001355: 04,2633           00002                           TC       Q                                     #  IF MPAC IS - RETURN TO L+2 AFTER
001356: 04,2634           00002                           TC       Q                                     #  MASKING OUT THE SIGN BIT
001357: 04,2635           12636                           TCF      +1
001358: 04,2636           47745                           CS       BIT15
001359: 04,2637           70144                           MASK     MPAC
001360: 04,2640           54144                           TS       MPAC
001361: 04,2641           50002                           INDEX    Q
001362: 04,2642           00001                           TC       1
001363:
001364: 04,2643           00006        DEGCOM             EXTEND                                         #  LOADS MULTIPLIER, DOES SHORTMP, AND
001365: 04,2644           50146                           INDEX    MPAC       +2                         #  ADDS AUGMENTER.
001366: 04,2645           32654                           DCA      DEGTAB
001367: 04,2646           52145                           DXCH     MPAC                                  #  ADJUSTED ANGLE IN A
001368: 04,2647           07357                           TC       SHORTMP
001369: 04,2650           52114                           DXCH     SFTEMP1
001370: 04,2651           20145                           DAS      MPAC
001371: 04,2652           02663                           TC       SCOUTEND
001372:
001373:
001374: 04,2653           05605        DEGTAB             OCT      05605                                 #  HI PART OF    .18
001375: 04,2654           03656                           OCT      03656                                 #  LOW PART OF   .18
001376: 04,2655           16314                           OCT      16314                                 #  HI PART OF    .45
001377: 04,2656           31463                           OCT      31463                                 #  LO PART OF    .45
001378:
001379: 04,2657           16040        20BIAS             OCT      16040                                 #  20 DEG BIAS FOR OPTICS
001380:
001381: 04,2660           52114        ARTOUTSF           DXCH     SFTEMP1                               #  ASSUMES POINT AT LEFT OF DP SFCON
001382: 04,2661           52145                           DXCH     MPAC
001383: 04,2662           07357                           TC       SHORTMP
001384: 04,2663           05225        SCOUTEND           TC       POSTJUMP
001385: 04,2664           12513                           CADR     DSPDCEND
001386:
001387: 04,2665           02677        DP1OUTSF           TC       DPOUT                                 #  SCALES MPAC, MPAC +1 BY DP SCALE FACTOR
001388: 04,2666           56146                           XCH      MPAC       +2                         #  IN SFTEMP1, SFTEMP2.  THEN SCALE RESULT
001389: 04,2667           56145                           XCH      MPAC       +1                         #  BY B14.
001390: 04,2670           54144                           TS       MPAC
001391: 04,2671           02663                           TC       SCOUTEND


001393:
001394: 04,2672           02677        DP2OUTSF           TC       DPOUT                                 #  SCALES MPAC, MPAC +1 BY DP SCALE FACTOR
001395: 04,2673           02663                           TC       SCOUTEND
001396:
001397:
001398: 04,2674           02677        DP3OUTSF           TC       DPOUT                                 #  ASSUMES POINT BETWEEN BITS 7-8 OF HIGH
001399: 04,2675           03072                           TC       TPLEFT7                               #  PART OF SFCON. SHIFTS RESULTS LEFT 7.
001400: 04,2676           02663                           TC       SCOUTEND
001401:
001402:                                                                                                  #  DPOUT PICKS UP FRESH DATA FOR BOTH HI AND LO COMPONENTS.
001403:                                                                                                  #  THIS IS NEEDED FOR TIME DISPLAY.
001404:
001405: 04,2677           56002        DPOUT              XCH      Q
001406: 04,2700           54111                           TS       OVFIND
001407: 04,2701           50130                           INDEX    MIXBR
001408: 04,2702           02702                           TC       +0
001409: 04,2703           02720                           TC       DPOUTNOR
001410: 04,2704           50107                           INDEX    DECOUNT                               #  GET IDADDTAB ENTRY FOR COMPONENT K
001411: 04,2705           30140                           CA       IDAD1TEM                              #      OF NOUN.
001412: 04,2706           74563                           MASK     LOW11                                 #  E SUBK
001413: 04,2707           04523                           TC       SETEBANK                              #  SET EB, LEAVE EADRES IN A.
001414: 04,2710           00006        DPOUTCOM           EXTEND
001415: 04,2711           50000                           INDEX    A                                     #  MIXED         NORMAL
001416: 04,2712           30001                           DCA      0                                     #  C(ESUBK)      C(E)
001417: 04,2713           52145                           DXCH     MPAC                                  #  C((E SUBK)+1)      C(E+1)
001418: 04,2714           07327                           TC       TPAGREE
001419: 04,2715           07155                           TC       DMP
001420: 04,2716           00113                           ADRES    SFTEMP1
001421: 04,2717           00111                           TC       OVFIND
001422:
001423: 04,2720           30135        DPOUTNOR           CA       NOUNADD                               #  E
001424: 04,2721           02710                           TC       DPOUTCOM
001425:
001426:
001427:                                                                                                  #  THIS IS A SPECIAL PURPOSE VERB FOR DISPLAYING A DOUBLE PRECISION AGC
001428:                                                                                                  #  WORD AS 10 DECIMAL DIGITS ON THE AGC DISPLAY PANEL.  IT CAN BE USED WITH
001429:                                                                                                  #  ANY NOUN, EXCEPT MIXED NOUNS. IT DISPLAYS THE CONTENTS
001430:                                                                                                  #  OF THE REGISTER NOUNADD IS POINTING TO .  IF USED WITH NOUNS WHICH ARE
001431:                                                                                                  #  INHERENTLY NOT DP SUCH AS THE CDU COUNTERS THE DISPLAY WILL BE GARBAGE.
001432:                                                                                                  #  DISPLAY IS IN R1 AND R2 ONLY WITH THE SIGN IN R1.
001433:
001434:
001435: 04,2722           50130        DSPDPDEC           INDEX    MIXBR
001436: 04,2723           02723                           TC       +0
001437: 04,2724           02726                           TC       +2                                    #  NORMAL NOUN
001438: 04,2725           03315                           TC       DSPALARM
001439:


001441: 04,2726           00006                           EXTEND
001442: 04,2727           50135                           INDEX    NOUNADD
001443: 04,2730           30001                           DCA      0
001444: 04,2731           52145                           DXCH     MPAC
001445: 04,2732           34527                           CAF      R1D1
001446: 04,2733           54270                           TS       DSPCOUNT
001447: 04,2734           37767                           CAF      ZERO
001448: 04,2735           54146                           TS       MPAC       +2
001449: 04,2736           07327                           TC       TPAGREE
001450: 04,2737           03173                           TC       DSP2DEC
001451: 04,2740           00126        ENDDPDEC           TC       ENTEXIT
001452:


001454:                                                                                                  #  LOAD VERBS
001455:
001456:
001457: 05,2535                                           SETLOC   ENDRTOUT
001458:
001459: 05,2535           47762        ABCLOAD            CS       TWO
001460: 05,2536           02376                           TC       COMPTEST
001461: 05,2537           32673                           CAF      VBSP1LD
001462: 05,2540           02314                           TC       UPDATVB    -1
001463: 05,2541           02252                           TC       REQDATX
001464: 05,2542           32674                           CAF      VBSP2LD
001465: 05,2543           02314                           TC       UPDATVB    -1
001466: 05,2544           02254                           TC       REQDATY
001467: 05,2545           32675                           CAF      VBSP3LD
001468: 05,2546           02314                           TC       UPDATVB    -1
001469: 05,2547           02256                           TC       REQDATZ
001470:
001471:
001472: 05,2550           46306        PUTXYZ             CS       SIX                                   #  TEST THAT THE 3 DATA WORDS LOADED ARE
001473: 05,2551           02676                           TC       ALLDC/OC                              #  ALL DEC OR ALL OCT.
001474: 05,2552           00006                           EXTEND
001475: 05,2553           32076                           DCA      LODNNLOC                              #  SWITCH BANKS TO NOUN TABLE READING
001476: 05,2554           52006                           DXCH     Z                                     #  ROUTINE.
001477: 05,2555           37767                           CAF      ZERO                                  #  X COMP
001478: 05,2556           02762                           TC       PUTCOM
001479: 05,2557           50135                           INDEX    NOUNADD
001480: 05,2560           54000                           TS       0
001481: 05,2561           37763                           CAF      ONE                                   #  Y COMP
001482: 05,2562           02762                           TC       PUTCOM
001483: 05,2563           50135                           INDEX    NOUNADD
001484: 05,2564           54001                           TS       1
001485: 05,2565           37762                           CAF      TWO                                   #  Z COMP
001486: 05,2566           02762                           TC       PUTCOM
001487: 05,2567           50135                           INDEX    NOUNADD
001488: 05,2570           54002                           TS       2
001489: 05,2571           02663                           TC       LOADLV
001490:
001491: 05,2572           47763        ABLOAD             CS       ONE
001492: 05,2573           02376                           TC       COMPTEST
001493: 05,2574           32673                           CAF      VBSP1LD
001494: 05,2575           02314                           TC       UPDATVB    -1
001495: 05,2576           02252                           TC       REQDATX
001496: 05,2577           32674                           CAF      VBSP2LD
001497: 05,2600           02314                           TC       UPDATVB    -1
001498: 05,2601           02254                           TC       REQDATY
001499: 05,2602           47766        PUTXY              CS       FIVE                                  #  TEST THAT THE 2 DATA WORDS LOADED ARE
001500: 05,2603           02676                           TC       ALLDC/OC                              #  ALL DEC OR ALL OCT.
001501: 05,2604           00006                           EXTEND


001503: 05,2605           32076                           DCA      LODNNLOC                              #  SWITCH BANKS TO NOUN TABLE READING
001504: 05,2606           52006                           DXCH     Z                                     #  ROUTINE.
001505: 05,2607           37767                           CAF      ZERO                                  #  X COMP
001506: 05,2610           02762                           TC       PUTCOM
001507: 05,2611           50135                           INDEX    NOUNADD
001508: 05,2612           54000                           TS       0
001509: 05,2613           37763                           CAF      ONE                                   #  Y COMP
001510: 05,2614           02762                           TC       PUTCOM
001511: 05,2615           50135                           INDEX    NOUNADD
001512: 05,2616           54001                           TS       1
001513: 05,2617           02663                           TC       LOADLV
001514:
001515: 05,2620           02252        ALOAD              TC       REQDATX
001516: 05,2621           00006                           EXTEND
001517: 05,2622           32076                           DCA      LODNNLOC                              #  SWITCH BANKS TO NOUN TABLE READING
001518: 05,2623           52006                           DXCH     Z                                     #  ROUTINE.
001519: 05,2624           37767                           CAF      ZERO                                  #  X COMP
001520: 05,2625           02762                           TC       PUTCOM
001521: 05,2626           50135                           INDEX    NOUNADD
001522: 05,2627           54000                           TS       0
001523: 05,2630           02663                           TC       LOADLV
001524:
001525: 05,2631           47763        BLOAD              CS       ONE
001526: 05,2632           02376                           TC       COMPTEST
001527: 05,2633           37745                           CAF      BIT15                                 #  SET CLPASS FOR PASS0 ONLY
001528: 05,2634           54306                           TS       CLPASS
001529: 05,2635           02254                           TC       REQDATY
001530: 05,2636           00006                           EXTEND
001531: 05,2637           32076                           DCA      LODNNLOC                              #  SWITCH BANKS TO NOUN TABLE READING
001532: 05,2640           52006                           DXCH     Z                                     #  ROUTINE.
001533: 05,2641           37763                           CAF      ONE
001534: 05,2642           02762                           TC       PUTCOM
001535: 05,2643           50135                           INDEX    NOUNADD
001536: 05,2644           54001                           TS       1
001537: 05,2645           02663                           TC       LOADLV
001538:
001539: 05,2646           47762        CLOAD              CS       TWO
001540: 05,2647           02376                           TC       COMPTEST
001541: 05,2650           37745                           CAF      BIT15                                 #  SET CLPASS FOR PASS0 ONLY
001542: 05,2651           54306                           TS       CLPASS
001543: 05,2652           02256                           TC       REQDATZ
001544: 05,2653           00006                           EXTEND
001545: 05,2654           32076                           DCA      LODNNLOC                              #  SWITCH BANKS TO NOUN TABLE READING
001546: 05,2655           52006                           DXCH     Z                                     #  ROUTINE.
001547: 05,2656           37762                           CAF      TWO
001548: 05,2657           02762                           TC       PUTCOM
001549: 05,2660           50135                           INDEX    NOUNADD
001550: 05,2661           54002                           TS       2
001551: 05,2662           02663                           TC       LOADLV
001552:


001554: 05,2663           37767        LOADLV             CAF      ZERO
001555: 05,2664           54271                           TS       DECBRNCH
001556: 05,2665           47767                           CS       ZERO
001557: 05,2666           54305                           TS       LOADSTAT
001558: 05,2667           44565                           CS       VD1                                   #  TO BLOCK NUMERICAL CHARACTERS AND
001559: 05,2670           54270                           TS       DSPCOUNT                              #  CLEARS AFTER A COMPLETED LOAD
001560: 05,2671           05225                           TC       POSTJUMP                              #  AFTER COMPLETED LOAD, GO TO RECALTST
001561: 05,2672           11440                           CADR     RECALTST                              #  TO SEE IF THERE IS RECALL FROM ENDIDLE.
001562:
001563: 05,2673           00021        VBSP1LD            OCT      21                                    #  VB21 = ALOAD
001564: 05,2674           00022        VBSP2LD            OCT      22                                    #  VB22 = BLOAD
001565: 05,2675           00023        VBSP3LD            OCT      23                                    #  VB23 = CLOAD
001566:
001567: 05,2676           54107        ALLDC/OC           TS       DECOUNT                               #  TESTS THAT DATA WORDS LOADED ARE EITHER
001568: 05,2677           40271                           CS       DECBRNCH                              #  ALL DEC OR ALL OCT. ALARMS IF NOT.
001569: 05,2700           54021                           TS       SR
001570: 05,2701           40021                           CS       SR
001571: 05,2702           40021                           CS       SR                                    #  SHIFTED RIGHT 2
001572: 05,2703           10000                           CCS      A                                     #  DEC COMP BITS IN LOW 3
001573: 05,2704           12706                           TCF      +2                                    #  SOME ONES IN LOW 3
001574: 05,2705           00002                           TC       Q                                     #  ALL ZEROS. ALL OCTAL.  OK
001575: 05,2706           60107                           AD       DECOUNT                               #  DEC COMP = 7 FOR 3COMP, =6 FOR 2COMP
001576: 05,2707           00006                           EXTEND                                         #  (BUT IT HAS BEEN DECREMENTED BY CCS)
001577: 05,2710           12712                           BZF      +2                                    #  MUST MATCH 6 FOR 3COMP, 5 FOR 2COMP.
001578: 05,2711           02324                           TC       GODSPALM
001579: 05,2712           00002        GOQ                TC       Q                                     #  ALL REQUIRED ARE DEC.  OK
001580:
001581: 05,2713           56002        SFRUTNOR           XCH      Q                                     #  GETS SF ROUTINE NUMBER FOR NORMAL CASE
001582: 05,2714           54104                           TS       EXITEM                                #  CANT USE L FOR RETURN. TSTFORDP USES L.
001583: 05,2715           34557                           CAF      MID5
001584: 05,2716           70137                           MASK     NNTYPTEM
001585: 05,2717           04532                           TC       RIGHT5
001586: 05,2720           00104                           TC       EXITEM                                #  SF ROUTINE NUMBER IN A
001587:
001588: 05,2721           56002        SFRUTMIX           XCH      Q                                     #  GETS SF ROUTINE NUMBER FOR MIXED CASE
001589: 05,2722           54104                           TS       EXITEM
001590: 05,2723           50107                           INDEX    DECOUNT
001591: 05,2724           32753                           CAF      DISPLACE                              #  PUT TC GOQ, TC RIGHT5, OR TC LEFT5 IN L
001592: 05,2725           54001                           TS       L
001593: 05,2726           50107                           INDEX    DECOUNT
001594: 05,2727           34556                           CAF      LOW5                                  #  LOW5, MID5, OR HI5 IN A
001595: 05,2730           70143                           MASK     RUTMXTEM                              #  GET HI5, MID5, OR LOW5 OF RUTMXTAB ENTRY
001596: 05,2731           50001                           INDEX    L
001597: 05,2732           00000                           TC       0
001598:                                                                                                  #  DO TC GOQ(DECOUNT=0), DO TC RIGHT5(DECOUNT=1), DO TC LEFT5(DECOUNT=2).
001599: 05,2733           00104        SFRET1             TC       EXITEM                                #  SF ROUTINE NUMBER IN A
001600:


001602: 05,2734           56002        SFCONUM            XCH      Q                                     #  GETS 2X(SF CONSTANT NUMBER)
001603: 05,2735           54104                           TS       EXITEM
001604: 05,2736           50130                           INDEX    MIXBR
001605: 05,2737           02737                           TC       +0
001606: 05,2740           02756                           TC       CONUMNOR                              #  NORMAL NOUN
001607: 05,2741           50107                           INDEX    DECOUNT                               #  MIXED NOUN
001608: 05,2742           32753                           CAF      DISPLACE
001609: 05,2743           54001                           TS       L                                     #  PUT TC GOQ, TC RIGHT5, OR TC LEFT5 IN L
001610: 05,2744           50107                           INDEX    DECOUNT
001611: 05,2745           34556                           CAF      LOW5
001612: 05,2746           70137                           MASK     NNTYPTEM
001613: 05,2747           50001                           INDEX    L
001614: 05,2750           00000                           TC       0
001615:                                                                                                  #  DO TC GOQ(DECOUNT=0), DO TC RIGHT5(DECOUNT=1), DO TC LEFT5(DECOUNT=2).
001616: 05,2751           60000        SFRET              DOUBLE                                         #  2X(SF CONSTANT NUMBER ) IN A
001617: 05,2752           00104                           TC       EXITEM
001618:
001619: 05,2753           02712        DISPLACE           TC       GOQ
001620: 05,2754           04532                           TC       RIGHT5
001621: 05,2755           04541                           TC       LEFT5
001622:
001623: 05,2756           34556        CONUMNOR           CAF      LOW5                                  #  NORMAL NOUN ALWAYS GETS LOW 5 OF
001624: 05,2757           70137                           MASK     NNTYPTEM                              #  NNTYPTAB FOR SF CONUM.
001625: 05,2760           60000                           DOUBLE
001626: 05,2761           00104                           TC       EXITEM                                #  2X(SF CONSTANT NUMBER) IN A
001627:
001628:
001629: 05,2762           54107        PUTCOM             TS       DECOUNT
001630: 05,2763           56002                           XCH      Q
001631: 05,2764           54105                           TS       DECRET
001632: 05,2765           37767                           CAF      ZERO
001633: 05,2766           54111                           TS       OVFIND
001634: 05,2767           50107                           INDEX    DECOUNT
001635: 05,2770           56277                           XCH      XREGLP
001636: 05,2771           54145                           TS       MPAC       +1
001637: 05,2772           50107                           INDEX    DECOUNT
001638: 05,2773           56274                           XCH      XREG
001639: 05,2774           54144                           TS       MPAC
001640: 05,2775           50130                           INDEX    MIXBR
001641: 05,2776           02776                           TC       +0
001642: 05,2777           03023                           TC       PUTNORM                               #  NORMAL NOUN
001643:                                                                                                  #  IF MIXNOUN, PLACE ADDRESS FOR COMPONENT K INTO NOUNADD, SET EBANK BITS.
001644: 05,3000           50107                           INDEX    DECOUNT                               #  GET IDADDTAB ENTRY FOR COMPONENT K
001645: 05,3001           30140                           CA       IDAD1TEM                              #          OF NOUN.
001646: 05,3002           74563                           MASK     LOW11                                 #  (ECADR)SUBK FOR CURRENT COMP OF NOUN
001647: 05,3003           04513                           TC       SETNCADR                              #  ECADR INTO NOUNCADR. SETS EB, NOUNADD.
001648: 05,3004           00006                           EXTEND                                         #  C(NOUNADD) IN A UPON RETURN
001649: 05,3005           60107                           SU       DECOUNT                               #  PLACE (ESUBK)-K INTO NOUNADD
001650: 05,3006           54135                           TS       NOUNADD


001652: 05,3007           10271                           CCS      DECBRNCH
001653: 05,3010           03051                           TC       PUTDECSF                              #  + DEC
001654: 05,3011           02721                           TC       SFRUTMIX                              #  +0 OCTAL
001655: 05,3012           02236                           TC       DPTEST
001656: 05,3013           03040                           TC       PUTCOM2                               #  NO DP
001657:                                                                                                  #  TEST FOR DP SCALE FOR OCT LOAD. IF SO,
001658:                                                                                                  #  +0 INTO MAJOR PART. SET NOUNADD FOR
001659:                                                                                                  #  LOADING OCTAL WORD INTO MINOR PART.
001660: 05,3014           24135        PUTDPCOM           INCR     NOUNADD                               #  DP (ESUBK)-K+1  OR  E+1
001661: 05,3015           30135                           CA       NOUNADD                               #  NOUNADD NOW SET FOR MINOR PART
001662: 05,3016           26107                           ADS      DECOUNT                               #  (ESUBK)+1  OR  E+1  INTO DECOUNT
001663: 05,3017           37767                           CAF      ZERO                                  #  NOUNADD SET FOR MINOR PART
001664: 05,3020           50107                           INDEX    DECOUNT
001665: 05,3021           53777                           TS       0          -1                         #  ZERO MAJOR PART(ESUBK OR E)
001666: 05,3022           03040                           TC       PUTCOM2
001667:
001668: 05,3023           04521        PUTNORM            TC       SETNADD                               #  ECADR FROM NOUNCADR. SETS EB, NOUNADD.
001669: 05,3024           10271                           CCS      DECBRNCH
001670: 05,3025           03051                           TC       PUTDECSF                              #  + DEC
001671: 05,3026           02713                           TC       SFRUTNOR                              #  +0 OCTAL
001672: 05,3027           02236                           TC       DPTEST
001673: 05,3030           03034                           TC       PUTCOM2    -4                         #  NO DP
001674: 05,3031           37767                           CAF      ZERO                                  #  DP
001675: 05,3032           54107                           TS       DECOUNT
001676: 05,3033           03014                           TC       PUTDPCOM
001677:
001678: 05,3034           30136                           CA       NNADTEM
001679: 05,3035           67763                           AD       ONE                                   #  IF NNADTEM = -1, CHANNEL TO BE SPECIFIED
001680: 05,3036           00006                           EXTEND
001681: 05,3037           13044                           BZF      CHANLOAD
001682: 05,3040           56144        PUTCOM2            XCH      MPAC
001683: 05,3041           00105                           TC       DECRET
001684:
001685: 05,3042     0270                                  EBANK=   DSPCOUNT
001686: 05,3042           02045 46060  GTSFINLC           2CADR    GTSFIN
001687:
001688:
001689: 05,3044           56144        CHANLOAD           XCH      MPAC
001690: 05,3045           00006                           EXTEND
001691: 05,3046           50310                           INDEX    NOUNCADR
001692: 05,3047           01000                           WRITE    0
001693: 05,3050           02663                           TC       LOADLV
001694:
001695:                                                                                                  #  PUTDECSF FINDS MIXBR AND DECOUNT STILL SET FROM PUTCOM
001696:
001697: 05,3051           02734        PUTDECSF           TC       SFCONUM                               #  2X(SF CON NUMB) IN A
001698: 05,3052           54113                           TS       SFTEMP1


001700: 05,3053           00006                           EXTEND                                         #  SWITCH BANKS TO SF CONSTANT TABLE
001701: 05,3054           33043                           DCA      GTSFINLC                              #  READING ROUTINE.
001702: 05,3055           52006                           DXCH     Z                                     #  LOADS SFTEMP1, SFTEMP2.
001703: 05,3056           50130                           INDEX    MIXBR
001704: 05,3057           03057                           TC       +0
001705: 05,3060           03063                           TC       PUTSFNOR
001706: 05,3061           02721                           TC       SFRUTMIX
001707: 05,3062           03064                           TC       PUTDCSF2
001708: 05,3063           02713        PUTSFNOR           TC       SFRUTNOR
001709:
001710: 05,3064           50000        PUTDCSF2           INDEX    A
001711: 05,3065           33067                           CAF      SFINTABR
001712: 05,3066           05230                           TC       BANKJUMP                              #  SWITCH BANKS FOR EXPANSHION ROOM
001713: 05,3067           11315        SFINTABR           CADR     DSPALARM                              #  ALARM IF DEC LOAD WITH OCTAL ONLY NOUN
001714: 05,3070           11021                           CADR     BINROUND
001715: 05,3071           10741                           CADR     DEGINSF
001716: 05,3072           11011                           CADR     ARTHINSF
001717: 05,3073           11041                           CADR     DPINSF
001718: 05,3074           11066                           CADR     DPINSF2
001719: 05,3075           11024                           CADR     OPTDEGIN
001720: 05,3076           11041                           CADR     DPINSF                                #  SAME AS ARITHDP1
001721: 05,3077                        ENDRUTIN           EQUALS
001722:
001723:
001724:                                                                                                  #  SCALE FACTORS FOR THOSE ROUTINES NEEDING THEM ARE AVAILABLE IN SFTEMP1.
001725:                                                                                                  #  ALL SFIN ROUTINES USE MPAC MPAC+1. LEAVE RESULT IN A. END WITH TC DECRET
001726:
001727: 04,2741                                           SETLOC   ENDDPDEC   +1
001728:
001729:                                                                                                  #  DEGINSF APPLIES 1000/180 = 5.55555(10) = 5.43434(8)
001730:
001731: 04,2741           07155        DEGINSF            TC       DMP                                   #  SF ROUTINE FOR DEC DEGREES
001732: 04,2742           03004                           ADRES    DEGCON1                               #  MULT BY 5.5 5(10)X2EXP-3
001733: 04,2743           10145                           CCS      MPAC       +1                         #  THIS ROUNDS OFF MPAC+1 BEFORE SHIFT
001734: 04,2744           37751                           CAF      BIT11                                 #  LEFT 3, AND CAUSES 360.00 TO OF/UF
001735: 04,2745           02747                           TC       +2                                    #  WHEN SHIFTED LEFT AND ALARM.
001736: 04,2746           47751                           CS       BIT11
001737: 04,2747           60145                           AD       MPAC       +1
001738: 04,2750           03104                           TC       2ROUND     +2
001739: 04,2751           04611                           TC       TPSL1                                 #  LEFT 1
001740: 04,2752           04611        DEGINSF2           TC       TPSL1                                 #  LEFT 2
001741: 04,2753           03113                           TC       TESTOFUF
001742: 04,2754           04611                           TC       TPSL1                                 #  RETURNS IF NO OF/UF (LEFT3)
001743: 04,2755           10144                           CCS      MPAC
001744: 04,2756           02762                           TC       SIGNFIX                               #  IF +, GO TO SIGNFIX
001745: 04,2757           02762                           TC       SIGNFIX                               #  IF +0, GO TO SIGNFIX
001746: 04,2760           40000                           COM                                            #  IF -, USE -MAGNITUDE +1


001748: 04,2761           54144                           TS       MPAC                                  #  IF -0, USE +0
001749: 04,2762           10111        SIGNFIX            CCS      OVFIND
001750: 04,2763           03000                           TC       SGNTO1                                #  IF OVERFLOW
001751: 04,2764           02774                           TC       ENDSCALE                              #  NO OVERFLOW/UNDERFLOW
001752: 04,2765           10144                           CCS      MPAC                                  #  IF UF FORCE SIGN TO 0 EXCEPT -180
001753: 04,2766           04736                           TC       CCSHOLE
001754: 04,2767           02776                           TC       NEG180
001755: 04,2770           02771                           TC       +1
001756: 04,2771           56144                           XCH      MPAC
001757: 04,2772           77743                           MASK     POSMAX
001758: 04,2773           54144                           TS       MPAC
001759: 04,2774           05225        ENDSCALE           TC       POSTJUMP
001760: 04,2775           13040                           CADR     PUTCOM2
001761:
001762: 04,2776           47743        NEG180             CS       POSMAX
001763: 04,2777           02773                           TC       ENDSCALE   -1
001764:
001765: 04,3000           40144        SGNTO1             CS       MPAC                                  #  IF OF FORCE SIGN TO 1
001766: 04,3001           77743                           MASK     POSMAX
001767: 04,3002           40000                           CS       A
001768: 04,3003           02773                           TC       ENDSCALE   -1
001769:
001770: 04,3004           26161 30707  DEGCON1            2DEC     5.555555555 B-3
001771:
001772: 04,3006           21616 07071  DEGCON2            2DEC     2.222222222 B-2
001773:
001774: 04,3010           71527        NEG.2              OCT      -06250                                #  = .197753906  I.E. THE BIAS SCALED
001775:
001776: 04,3011           07155        ARTHINSF           TC       DMP                                   #  SCALES MPAC, +1 BY SFTEMP1, SFTEMP2.
001777: 04,3012           00113                           ADRES    SFTEMP1                               #  ASSUMES POINT BETWEEN HI AND LO PARTS
001778: 04,3013           56146                           XCH      MPAC       +2                         #  OF SFCON. SHIFTS RESULTS LEFT BY 14.
001779: 04,3014           56145                           XCH      MPAC       +1                         #  (BY TAKING RESULTS FROM MPAC+1, MPAC+2)
001780: 04,3015           56144                           XCH      MPAC
001781: 04,3016           00006                           EXTEND
001782: 04,3017           13021                           BZF      BINROUND
001783: 04,3020           03315                           TC       DSPALARM                              #  TOO LARGE A LOAD
001784: 04,3021           03102        BINROUND           TC       2ROUND
001785: 04,3022           03113                           TC       TESTOFUF
001786: 04,3023           02774                           TC       ENDSCALE                              #  RETURNS IF NO OF/UF
001787:
001788:
001789: 04,3024           10144        OPTDEGIN           CCS      MPAC                                  #  OPTICS SCALING ROUTINE
001790: 04,3025           03031                           TC       +4
001791: 04,3026           03031                           TC       +3
001792: 04,3027           03315                           TC       DSPALARM                              #  REJECT NEGATIVE INPUT
001793: 04,3030           03315                           TC       DSPALARM                              #         DITTO
001794: 04,3031           33010        OPDEGIN2           CAF      NEG.2                                 #  RANGE IS 90 DEG
001795: 04,3032           26144                           ADS      MPAC                                  #  SUBTRACT BIAS
001796: 04,3033           07155                           TC       DMP                                   #  MULT BY 100 / 45 B-2
001797:


001799: 04,3034           03006                           ADRES    DEGCON2
001800: 04,3035           37750                           CAF      BIT12                                 #  ROUND AS IN DEGINSF
001801: 04,3036           60145                           AD       MPAC       +1
001802: 04,3037           03104                           TC       2ROUND     +2
001803: 04,3040           02752                           TC       DEGINSF2
001804:
001805: 04,3041           07155        DPINSF             TC       DMP                                   #  SCALES MPAC, MPAC +1 BY SFTEMP1,
001806: 04,3042           00113                           ADRES    SFTEMP1                               #  SFTEMP2.  STORES LOW PART OF RESULT
001807: 04,3043           56146                           XCH      MPAC       +2                         #  IN (E SUBK) +1 OR E+1
001808: 04,3044           60000                           DOUBLE
001809: 04,3045           54146                           TS       MPAC       +2
001810: 04,3046           37767                           CAF      ZERO
001811: 04,3047           60145                           AD       MPAC       +1
001812: 04,3050           03104                           TC       2ROUND     +2
001813: 04,3051           03113                           TC       TESTOFUF
001814: 04,3052           50130                           INDEX    MIXBR                                 #  RETURNS IF NO OF/UF
001815: 04,3053           03053                           TC       +0
001816: 04,3054           03064                           TC       DPINORM
001817: 04,3055           30107                           CA       DECOUNT                               #  MIXEDNOUN
001818: 04,3056           60135        DPINCOM            AD       NOUNADD                               #      MIXED                 NORMAL
001819: 04,3057           54002                           TS       Q                                     #    E SUBK              E
001820: 04,3060           56145                           XCH      MPAC       +1
001821: 04,3061           50002                           INDEX    Q
001822: 04,3062           54001                           TS       1                                     #  PLACE LOW PART IN
001823: 04,3063           02774                           TC       ENDSCALE                              #  (E SUBK) +1    MIXED
001824: 04,3064           37767        DPINORM            CAF      ZERO                                  #  E +1          NORMAL
001825: 04,3065           03056                           TC       DPINCOM
001826:
001827:
001828: 04,3066           07155        DPINSF2            TC       DMP                                   #  ASSUMES POINT BETWEEN BITS 7-8 OF HIGH
001829: 04,3067           00113                           ADRES    SFTEMP1                               #  PART OF SF CONST. DPINSF2 SHIFTS RESULTS
001830: 04,3070           03072                           TC       TPLEFT7                               #  LEFT BY 7, ROUNDS MPAC+2 INTO MPAC+1.
001831: 04,3071           03043                           TC       DPINSF     +2
001832:
001833:
001834: 04,3072           56002        TPLEFT7            XCH      Q                                     #  OPERATES ON MPAC, MPAC+1, MPAC+2
001835: 04,3073           54114                           TS       SFTEMP2                               #  CANT USE L FOR RETURN. TPSL1 USES L.
001836: 04,3074           36306                           CAF      SIX
001837: 04,3075           54113        LEFT7COM           TS       SFTEMP1
001838: 04,3076           04611                           TC       TPSL1
001839: 04,3077           10113                           CCS      SFTEMP1
001840: 04,3100           03075                           TC       LEFT7COM
001841: 04,3101           00114                           TC       SFTEMP2
001842:
001843: 04,3102           56145        2ROUND             XCH      MPAC       +1
001844: 04,3103           60000                           DOUBLE


001846: 04,3104           54145                           TS       MPAC       +1
001847: 04,3105           00002                           TC       Q                                     #  IF MPAC+1 DOES NOT OF/UF
001848: 04,3106           60144                           AD       MPAC
001849: 04,3107           54144                           TS       MPAC
001850: 04,3110           00002                           TC       Q                                     #  IF MPAC DOES NOT OF/UF
001851: 04,3111           54111                           TS       OVFIND
001852: 04,3112           00002        2RNDEND            TC       Q
001853:
001854: 04,3113           10111        TESTOFUF           CCS      OVFIND                                #  RETURNS IF NO OF/UF
001855: 04,3114           03315                           TC       DSPALARM                              #  OF
001856: 04,3115           00002                           TC       Q
001857: 04,3116           03315                           TC       DSPALARM                              #  UF
001858:


001860:                                                                                                  #  MONITOR ALLOWS OTHER KEYBOARD ACTIVITY. IT IS ENDED BY VERB TERMINATE,
001861:                                                                                                  #  ANY NVSUB CALL THAT PASSES THE DSPLOCK, OR ANOTHER MONITOR.
001862:
001863:                                                                                                  #  MONITOR ACTION IS SUSPENDED, BUT NOT ENDED, BY ANY KEYBOARD ACTION,
001864:                                                                                                  #  EXCEPT ERROR LIGHT RESET. IT BEGINS AGAIN WHEN KEY RELEASE IS PERFORMED.
001865:                                                                                                  #  MONITOR SAVES THE NOUN AND APPROPRIATE DISPLAY VERB IN MONSAVE. IT SAVES
001866:                                                                                                  #  NOUNCADR IN MONSAVE1, IF NOUN = MACHINE CADR TO BE SPECIFIED. BIT 15 OF
001867:                                                                                                  #  MONSAVE1 IS THE KILL MONITOR SIGNAL (KILLER BIT).
001868:
001869:                                                                                                  #  MONSAVE INDICATES IF MONITOR IS ON (+=ON, +0=OFF)
001870:                                                                                                  #  IF MONSAVE IS +, MONITOR ENTERS NO REQUEST, BUT TURNS KILLER BIT OFF.
001871:                                                                                                  #  IF MONSAVE IS +0, MONITOR ENTERS REQUEST AND TURNS KILLER BIT OFF.
001872:
001873:                                                                                                  #  NVSUB AND VB=TERMINATE TURN KILL MONITOR BIT ON.
001874:
001875:                                                                                                  #  IF KILLER BIT IS ON, MONREQ ENTERS NO FURTHER REQUESTS, ZEROS MONSAVE
001876:                                                                                                  #  AND MONSAVE1 (TURNING OFF KILLER BIT).
001877:
001878:                                                                                                  #  MONITOR DOSENT TEST FOR MATBS SINCE NVSUB CAN HANDLE INTERNAL MATBS NOW
001879: 05,3077                                           SETLOC   ENDRUTIN
001880:
001881: 05,3077           47745        MONITOR            CS       BIT15
001882: 05,3100           70310                           MASK     NOUNCADR
001883: 05,3101           54145        MONIT1             TS       MPAC       +1                         #  TEMP STORAGE
001884: 05,3102           33401                           CAF      LOW6
001885: 05,3103           70272                           MASK     VERBREG
001886: 05,3104           04541                           TC       LEFT5
001887: 05,3105           54022                           TS       CYL
001888: 05,3106           56022                           XCH      CYL
001889: 05,3107           60273                           AD       NOUNREG
001890: 05,3110           54144                           TS       MPAC                                  #  TEMP STORAGE
001891: 05,3111           40330                           CS       GRABLOCK                              #  NEITHER CASE SEARCHES LIST.
001892: 05,3112           67762                           AD       TWO
001893: 05,3113           10000                           CCS      A
001894: 05,3114           04711                           TC       RELDSP1                               #  GRABLOCK=0,1. +0 INTO DSPLOCK AND
001895: 05,3115           03121                           TC       +4                                    #  TURN OFF KEY RLSE LIGHT.
001896: 05,3116           04736                           TC       CCSHOLE
001897: 05,3117           37767                           CAF      ZERO                                  #  GRABLOCK=2. +0 INTO DSPLOCK AND
001898: 05,3120           54303                           TS       DSPLOCK                               #  LEAVE KEY RLSE LIGHT ALONE
001899: 05,3121           00004                           INHINT
001900: 05,3122           10311                           CCS      MONSAVE
001901: 05,3123           03130                           TC       +5                                    #  IF MONSAVE WAS +, NO REQUEST
001902: 05,3124           37763                           CAF      ONE                                   #  IF MONSAVE WAS 0, REQUEST MONREQ
001903: 05,3125           05663                           TC       WAITLIST
001904: 05,3126     0270                                  EBANK=   DSPCOUNT
001905: 05,3126           03134 12060                     2CADR    MONREQ
001906:
001907: 05,3130           52145                           DXCH     MPAC                                  #  PLACE MONITOR VERB AND NOUN INTO MONSAVE


001909: 05,3131           52312                           DXCH     MONSAVE                               #  ZERO THE KILL MONITOR BIT
001910: 05,3132           00003                           RELINT
001911: 05,3133           00126                           TC       ENTRET
001912:
001913:
001914: 05,3134           04605        MONREQ             TC       LODSAMPT                              #  CALLED BY WAITLIST
001915: 05,3135           10312                           CCS      MONSAVE1                              #  TIME IS SNATCHED IN RUPT FOR NOUN 65
001916: 05,3136           03142                           TC       +4                                    #  IF KILLER BIT = 0, ENTER REQUESTS
001917: 05,3137           03142                           TC       +3                                    #  IF KILLER BIT = 0, ENTER REQUESTS
001918: 05,3140           03153                           TC       KILLMON                               #  IF KILLER BIT = 1, NO REQUESTS
001919: 05,3141           03153                           TC       KILLMON                               #  IF KILLER BIT = 1, NO REQUESTS
001920: 05,3142           33157                           CAF      MONDEL
001921: 05,3143           05663                           TC       WAITLIST                              #  ENTER WAITLIST REQUEST FOR MONREQ
001922: 05,3144     0270                                  EBANK=   DSPCOUNT
001923: 05,3144           03134 12060                     2CADR    MONREQ
001924:
001925: 05,3146           35210                           CAF      CHRPRIO
001926: 05,3147           05505                           TC       NOVAC                                 #  ENTER EXEC REQUEST FOR MONDO
001927: 05,3150     0270                                  EBANK=   DSPCOUNT
001928: 05,3150           03160 12060                     2CADR    MONDO
001929:
001930: 05,3152           05727                           TC       TASKOVER
001931:
001932: 05,3153           37767        KILLMON            CAF      ZERO                                  #  ZERO MONSAVE AND TURN KILLER BIT OFF
001933: 05,3154           54311                           TS       MONSAVE
001934: 05,3155           54312                           TS       MONSAVE1                              #  TURN OFF KILL MONITOR BIT.
001935: 05,3156           05727                           TC       TASKOVER
001936:
001937:
001938: 05,3157           00144        MONDEL             OCT      144                                   #  FOR 1 SEC MONITOR INTERVALS
001939:
001940:
001941: 05,3160           10312        MONDO              CCS      MONSAVE1                              #  CALLED BY EXEC
001942: 05,3161           03165                           TC       +4                                    #  IF KILLER BIT = 0, CONTINUE
001943: 05,3162           03165                           TC       +3                                    #  IF KILLER BIT = 0, CONTINUE
001944: 05,3163           05567                           TC       ENDOFJOB                              #  IN CASE TERMINATE CAME SINCE LAST MONREQ
001945: 05,3164           05567                           TC       ENDOFJOB                              #  IN CASE TERMINATE CAME SINCE LAST MONREQ
001946: 05,3165           10303                           CCS      DSPLOCK
001947: 05,3166           03212                           TC       MONBUSY                               #  NVSUB IS BUSY
001948: 05,3167           33401                           CAF      LOW6                                  #  NVSUB IS AVAILABLE
001949: 05,3170           70311                           MASK     MONSAVE
001950: 05,3171           54113                           TS       NVTEMP
001951: 05,3172           04460                           TC       NVSUBMON                              #  PLACE NOUN INTO NOUNREG AND DISPLAY IT
001952: 05,3173           05567                           TC       ENDOFJOB                              #  IN CASE OF ALARM DURING DISPLAY
001953: 05,3174           33210                           CAF      MONMASK
001954: 05,3175           70311                           MASK     MONSAVE                               #  CHANGE MONITOR VERB TO DISPLAY VERB
001955: 05,3176           04532                           TC       RIGHT5


001957: 05,3177           54020                           TS       CYR
001958: 05,3200           56020                           XCH      CYR
001959: 05,3201           54272                           TS       VERBREG
001960: 05,3202           33211                           CAF      MONBACK                               #  SET RETURN TO PASTEVB AFTER DATA DISPLAY
001961: 05,3203           54126                           TS       ENTRET
001962: 05,3204           47745                           CS       BIT15
001963: 05,3205           70312                           MASK     MONSAVE1                              #  PUT ECADR INTO MPAC +2.  INTMCTBS WILL
001964: 05,3206           54146                           TS       MPAC       +2                         #  DISPLAY IT AND SET NOUNCADR, NOUNADD,
001965: 05,3207           02037        ENDMONDO           TC       TESTNN                                #  EBANK.
001966:
001967:    4435                                           SETLOC   ENDRMODF
001968:
001969:    4435           34443        PASTEVB            CAF      MIDSIX
001970:    4436           70311                           MASK     MONSAVE
001971:    4437           54113                           TS       NVTEMP                                #  PLACE MONITOR VERB INTO VERBREG AND
001972:    4440           04460                           TC       NVSUBMON                              #       DISPLAY IT.
001973:    4441           04442                           TC       +1                                    #  IN CASE OF ALARM DURING DISPLAY
001974:    4442           05567        ENDPASTE           TC       ENDOFJOB
001975:
001976:    4443           07700        MIDSIX             OCT      07700
001977:
001978: 05,3210                                           SETLOC   ENDMONDO   +1
001979: 05,3210           00700        MONMASK            OCT      700
001980: 05,3211           04435        MONBACK            ADRES    PASTEVB
001981:
001982: 05,3212           04601        MONBUSY            TC       RELDSPON                              #  TURN KEY RELEASE LIGHT
001983: 05,3213           05567                           TC       ENDOFJOB
001984:
001985:
001986:                                                                                                  #  DSPFMEM IS USED TO DISPLAY (IN OCTAL) ANY FIXED REGISTER.
001987:                                                                                                  #  IT IS USED WITH NOUN = MACHINE CADR TO BE SPECIFIED. THE FCADR OF THE
001988:                                                                                                  #  DESIRED LOCATION IS THEN PUNCHED IN. IT HANDLES F/F (FCADR 4000-7777)
001989:
001990: 05,3214           34527        DSPFMEM            CAF      R1D1                                  #  IF F/F, DATACALL USES BANK 02 OR 03.
001991: 05,3215           54270                           TS       DSPCOUNT
001992: 05,3216           30310                           CA       NOUNCADR                              #  ORIGINAL FCADR LOADED STILL IN NOUNCADR.
001993: 05,3217           05241                           TC       DATACALL
001994: 05,3220           03222                           TC       DSPOCTWD
001995: 05,3221           05567        ENDSPF             TC       ENDOFJOB
001996:


001998:                                                                                                  #   DSPDECWD CONVERTS C(MPAC) AND C(MPAC + 1)TO A SIGN AND 5 CHAR DECIMAL
001999:                                                                                                  #  STARTING IN LOC SPECIFIED IN DSPCOUNT
002000:
002001: 04,3117                                           SETLOC   TESTOFUF   +4
002002:
002003: 04,3117           56002        DSPDECWD           XCH      Q                                     #  USES SHORTMP THROUGHOUT
002004: 04,3120           54105                           TS       WDRET                                 #  CANT USE L FOR RETURN.+ON USES L.
002005: 04,3121           10144                           CCS      MPAC
002006: 04,3122           03131                           TC       +7
002007: 04,3123           03131                           TC       +6
002008: 04,3124           67763                           AD       ONE
002009: 04,3125           54144                           TS       MPAC
002010: 04,3126           02321                           TC       -ON
002011: 04,3127           40145                           CS       MPAC       +1
002012: 04,3130           03133                           TC       +3
002013: 04,3131           02301                           TC       +ON
002014: 04,3132           56145                           XCH      MPAC       +1
002015: 04,3133           63172                           AD       DECROUND
002016: 04,3134           54145                           TS       MPAC       +1
002017: 04,3135           37767                           CAF      ZERO
002018: 04,3136           60144                           AD       MPAC
002019: 04,3137           54144                           TS       MPAC
002020: 04,3140           03144                           TC       +4
002021: 04,3141           37743                           CAF      POSMAX
002022: 04,3142           54144                           TS       MPAC
002023: 04,3143           54145                           TS       MPAC       +1
002024: 04,3144           37761                           CAF      FOUR
002025: 04,3145           54127        DSPDCWD1           TS       WDCNT
002026: 04,3146           34570                           CAF      BINCON
002027: 04,3147           07357                           TC       SHORTMP
002028: 04,3150           50144        TRACE1             INDEX    MPAC
002029: 04,3151           34300                           CAF      RELTAB
002030: 04,3152           74556                           MASK     LOW5
002031: 04,3153           54114                           TS       CODE
002032: 04,3154           37767                           CAF      ZERO
002033: 04,3155           56146                           XCH      MPAC       +2
002034: 04,3156           56145                           XCH      MPAC       +1
002035: 04,3157           54144                           TS       MPAC
002036: 04,3160           56270                           XCH      DSPCOUNT
002037: 04,3161           54133        TRACE1S            TS       COUNT
002038: 04,3162           10000                           CCS      A                                     #  DECREMENT DSPCOUNT EXCEPT AT +0
002039: 04,3163           54270                           TS       DSPCOUNT
002040: 04,3164           03217                           TC       DSPIN
002041: 04,3165           10127                           CCS      WDCNT
002042: 04,3166           03145                           TC       DSPDCWD1
002043: 04,3167           44565                           CS       VD1
002044: 04,3170           54270                           TS       DSPCOUNT
002045: 04,3171           00105                           TC       WDRET
002046:
002047: 04,3172           02476        DECROUND           OCT      02476
002048:


002050:                                                                                                  #  DSP2DEC CONVERTS C(MPAC) AND C(MPAC+1) INTO A SIGN AND 10 CHAR DECIMAL
002051:                                                                                                  #  STARTING IN THE LOC SPECIFIED IN DSPCOUNT.
002052:
002053: 04,3173           56002        DSP2DEC            XCH      Q
002054: 04,3174           54105                           TS       WDRET                                 #  MUST USE SAME RETURN AS DSPDECWD
002055: 04,3175           37767                           CAF      ZERO
002056: 04,3176           54114                           TS       CODE
002057: 04,3177           36311                           CAF      THREE
002058: 04,3200           03301                           TC       11DSPIN                               #  -R2 OFF
002059: 04,3201           37761                           CAF      FOUR
002060: 04,3202           03301                           TC       11DSPIN                               #  +R2 OFF
002061: 04,3203           10144                           CCS      MPAC
002062: 04,3204           03214                           TC       +8D
002063: 04,3205           03214                           TC       +7
002064: 04,3206           67763                           AD       ONE
002065: 04,3207           54144                           TS       MPAC
002066: 04,3210           02321                           TC       -ON
002067: 04,3211           40145                           CS       MPAC       +1
002068: 04,3212           54145                           TS       MPAC       +1
002069: 04,3213           03215                           TC       +2
002070: 04,3214           02301                           TC       +ON
002071: 04,3215           34530                           CAF      R2D1
002072: 04,3216           03145        END2DEC            TC       DSPDCWD1
002073:
002074:
002075: 05,3222                                           SETLOC   DSPFMEM    +6
002076:                                                                                                  #  DSPOCTWD DISPLAYS C(A) UPON ENTRY AS A 5 CHAR OCT STARTING IN THE DSP
002077:                                                                                                  #  CHAR SPECIFIED IN DSPCOUNT. IT STOPS AFTER 5 CHAR HAVE BEEN DISPLAYED.
002078:
002079: 05,3222           54022        DSPOCTWD           TS       CYL
002080: 05,3223           56002                           XCH      Q
002081: 05,3224           54105                           TS       WDRET                                 #  MUST USE SAME RETURN AS DSP2BIT.
002082: 05,3225           37746                           CAF      BIT14                                 #  TO BLANK SIGNS
002083: 05,3226           26270                           ADS      DSPCOUNT
002084: 05,3227           37761                           CAF      FOUR
002085: 05,3230           54127        WDAGAIN            TS       WDCNT
002086: 05,3231           40022                           CS       CYL
002087: 05,3232           40022                           CS       CYL
002088: 05,3233           40022                           CS       CYL
002089: 05,3234           40000                           CS       A
002090: 05,3235           77765                           MASK     DSPMSK
002091: 05,3236           50000                           INDEX    A
002092: 05,3237           34300                           CAF      RELTAB
002093: 05,3240           74556                           MASK     LOW5
002094: 05,3241           54114                           TS       CODE
002095: 05,3242           56270                           XCH      DSPCOUNT
002096: 05,3243           54133                           TS       COUNT
002097: 05,3244           10000                           CCS      A                                     #  DECREMENT DSPCOUNT EXCEPT AT +0
002098: 05,3245           54270                           TS       DSPCOUNT


002100: 05,3246           05225                           TC       POSTJUMP
002101: 05,3247           11307                           CADR     DSPOCTIN
002102: 05,3250           10127        OCTBACK            CCS      WDCNT
002103: 05,3251           03230                           TC       WDAGAIN                               #  +
002104: 05,3252           44565        DSPLV              CS       VD1                                   #  TO BLOCK NUMERICAL CHARACTERS, CLEARS,
002105: 05,3253           54270                           TS       DSPCOUNT                              #  AND SIGNS AFTER A COMPLETED DISPLAY.
002106: 05,3254           00105                           TC       WDRET
002107:
002108: 05,3255     7765               DSPMSK             =        SEVEN
002109:
002110:
002111:                                                                                                  #  DSP2BIT DISPLAYS C(A) UPON ENTRY AS A 2 CHAR OCT BEGINNING IN THE DSP
002112:                                                                                                  #  LOC SPECIFIED IN DSPCOUNT BY PRE CYCLING RIGHT C(A) AND USING THE LOGIC
002113:                                                                                                  #  OF THE 5 CHAR OCTAL DISPLAY
002114:
002115: 05,3255           54020        DSP2BIT            TS       CYR
002116: 05,3256           56002                           XCH      Q
002117: 05,3257           54105                           TS       WDRET                                 #  CANT USE L AS RETURN. UPDATNN USES L.
002118: 05,3260           37763                           CAF      ONE
002119: 05,3261           54127                           TS       WDCNT
002120: 05,3262           40020                           CS       CYR
002121: 05,3263           40020                           CS       CYR
002122: 05,3264           56020                           XCH      CYR
002123: 05,3265           54022                           TS       CYL
002124: 05,3266           03235                           TC       WDAGAIN    +5
002125:
002126:
002127:                                                                                                  #  FOR DSPIN PLACE 0/25 OCT INTO COUNT, 5 BIT RELAY CODE INTO CODE. BOTH
002128:                                                                                                  #  ARE DESTROYED. IF BIT14 OF COUNT IS 1, SIGN IS BLANKED WITH LEFT CHAR.
002129:                                                                                                  #  FOR DSPIN1 PLACE 0,1 INTO BIT11 OF CODE, 2 INTO COUNT, REL ADDRESS OF
002130:                                                                                                  #  DSPTAB ENTRY INTO DSREL.
002131:
002132: 04,3217                                           SETLOC   END2DEC    +1
002133:
002134: 04,3217           56002        DSPIN              XCH      Q                                     #  CANT USE L FOR RETURN, SINCE MANYOF THE
002135: 04,3220           54104                           TS       DSEXIT                                #  ROUTINES CALLING DSPIN USE L AS RETURN.
002136: 04,3221           34556                           CAF      LOW5
002137: 04,3222           70133                           MASK     COUNT
002138: 04,3223           54021                           TS       SR
002139: 04,3224           56021                           XCH      SR
002140: 04,3225           54131                           TS       DSREL
002141: 04,3226           37763                           CAF      BIT1
002142: 04,3227           70133                           MASK     COUNT
002143: 04,3230           10000                           CCS      A
002144: 04,3231           03233                           TC       +2                                    #  LEFT IF COUNT IS ODD
002145: 04,3232           03243                           TC       DSPIN1     -1                         #  RIGHT IF COUNT IS EVEN
002146: 04,3233           56114                           XCH      CODE
002147: 04,3234           04550                           TC       SLEFT5                                #  DOES NOT USE CYL


002149: 04,3235           54114                           TS       CODE
002150: 04,3236           37746                           CAF      BIT14
002151: 04,3237           70133                           MASK     COUNT
002152: 04,3240           10000                           CCS      A
002153: 04,3241           37762                           CAF      TWO                                   #  BIT14 = 1, BLANK SIGN
002154: 04,3242           67763                           AD       ONE                                   #  BIT14 = 0, LEAVE SIGN ALONE
002155: 04,3243           54133                           TS       COUNT                                 #  +0 INTO COUNT FOR RIGHT
002156:                                                                                                  #  +1 INTO COUNT FOR LEFT (SIGN LEFT ALONE)
002157:                                                                                                  #  +3 INTO COUNT FOR LEFT (TO BLANK SIGN)
002158: 04,3244           00004        DSPIN1             INHINT
002159: 04,3245           50131                           INDEX    DSREL
002160: 04,3246           10313                           CCS      DSPTAB
002161: 04,3247           03251                           TC       +2                                    #  IF +
002162: 04,3250           04736                           TC       CCSHOLE
002163: 04,3251           67763                           AD       ONE                                   #  IF -
002164: 04,3252           54132                           TS       DSMAG
002165: 04,3253           50133                           INDEX    COUNT
002166: 04,3254           73275                           MASK     DSMSK
002167: 04,3255           00006                           EXTEND
002168: 04,3256           60114                           SU       CODE
002169: 04,3257           00006                           EXTEND
002170: 04,3260           13273                           BZF      DSLV                                  #  SAME
002171: 04,3261           50133        DFRNT              INDEX    COUNT
002172: 04,3262           43275                           CS       DSMSK                                 #  MASK WITH 77740, 76037, OR 75777
002173: 04,3263           70132                           MASK     DSMAG
002174: 04,3264           60114                           AD       CODE
002175: 04,3265           40000                           CS       A
002176: 04,3266           50131                           INDEX    DSREL
002177: 04,3267           56313                           XCH      DSPTAB
002178: 04,3270           00006                           EXTEND
002179: 04,3271           63273                           BZMF     DSLV                                  #  DSPTAB ENTRY WAS -
002180: 04,3272           24307                           INCR     NOUT                                  #  DSPTAB ENTRY WAS +
002181: 04,3273           00003        DSLV               RELINT
002182: 04,3274           00104                           TC       DSEXIT
002183:
002184: 04,3275           00037        DSMSK              OCT      37
002185: 04,3276           01740                           OCT      1740
002186: 04,3277           02000                           OCT      2000
002187: 04,3300           03740                           OCT      3740
002188:
002189:
002190:                                                                                                  #  FOR 11DSPIN, PUT REL ADDRESSS OF DSPTAB ENTRY INTO A, 1 IN BIT11 OR 0 IN
002191:                                                                                                  #  BIT11 OF CODE.
002192:
002193: 04,3301           54131        11DSPIN            TS       DSREL
002194: 04,3302           37762                           CAF      TWO
002195: 04,3303           54133                           TS       COUNT
002196: 04,3304           56002                           XCH      Q                                     #  MUST USE SAME RETURN AS DSPIN
002197: 04,3305           54104                           TS       DSEXIT


002199: 04,3306           03244                           TC       DSPIN1
002200:
002201:
002202: 04,3307           03217        DSPOCTIN           TC       DSPIN                                 #  SO DSPOCTWD DOESNT USE SWCALL
002203: 04,3310           33312                           CAF      +2
002204: 04,3311           05230                           TC       BANKJUMP
002205: 04,3312           13250        ENDSPOCT           CADR     OCTBACK
002206:
002207:
002208:                                                                                                  #  DSPALARM FINDS TC NVSUBEND IN ENTRET FOR NVSUB INITIATED ROUTINES.
002209:                                                                                                  #  ABORT WITH 01501.
002210:                                                                                                  #  DSPALARM FINDS TC ENDOFJOB IN ENTRET FOR KEYBOARD INITIATED ROUTINES.
002211:                                                                                                  #  DC TC ENTRET.
002212:
002213: 04,3313           34505        CHARALRM           CAF      ENDINST                               #  ALARMS WHICH MUST DO ENDOFJOBS COME
002214: 04,3314           54126                           TS       ENTRET                                #  HERE. ALLOWS ENTRET TO BE TEMP ERASABLE
002215:
002216: 04,3315           04571        DSPALARM           TC       FALTON                                #  TURN ON OPERATOR ERROR LIGHT
002217: 04,3316           43325                           CS       NVSBENDL
002218: 04,3317           60126                           AD       ENTEXIT
002219: 04,3320           00006                           EXTEND
002220: 04,3321           13323                           BZF      +2                                    #  NVSUB INITIATED. ABORT
002221: 04,3322           00126                           TC       ENTEXIT                               #  NOT NVSUB INITIATED.
002222: 04,3323           06000                           TC       ABORT
002223: 04,3324           01501                           OCT      01501
002224: 04,3325           04464        NVSBENDL           TC       NVSUBEND
002225:
002226:
002227:                                                                                                  #  MMCHANG USES NOUN DISPLAY UNTIL ENTER. THEN IT USES MODE DISP.
002228:                                                                                                  #  IT GOES TO MODROUT WITH THE NEW M M CODE IN A, BUT NOT DISPLAYED IN
002229:                                                                                                  #  M M LIGHTS.
002230:
002231: 05,3267                                           SETLOC   DSP2BIT    +10D
002232:
002233: 05,3267           03302        MMCHANG            TC       REQMM
002234: 05,3270           37767                           CAF      ZERO
002235: 05,3271           56273                           XCH      NOUNREG
002236: 05,3272           54144                           TS       MPAC
002237: 05,3273           34566                           CAF      ND1
002238: 05,3274           54270                           TS       DSPCOUNT
002239: 05,3275           05206                           TC       BANKCALL
002240: 05,3276           10557                           CADR     2BLANK
002241: 05,3277           30144                           CA       MPAC
002242: 05,3300           05225                           TC       POSTJUMP
002243: 05,3301           11315                           CADR     MODROUTB                              #  GO THRU STANDARD LOC.
002244:


002246: 05,3302  04,3315               MODROUTB           =        DSPALARM                              #  **FIX LATER**
002247: 05,3302           40002        REQMM              CS       Q
002248: 05,3303           54304                           TS       REQRET
002249: 05,3304           34566                           CAF      ND1
002250: 05,3305           54270                           TS       DSPCOUNT
002251: 05,3306           37767                           CAF      ZERO
002252: 05,3307           54273                           TS       NOUNREG
002253: 05,3310           05206                           TC       BANKCALL
002254: 05,3311           10557                           CADR     2BLANK
002255: 05,3312           04622                           TC       FLASHON
002256: 05,3313           00126                           TC       ENTEXIT
002257:
002258:
002259:                                                                                                  #  VBRQEXEC ENTERS REQUEST TO EXEC     FOR ANY ADDRESS WITH ANY PRIORITY.
002260:                                                                                                  #  IT DOES ENDOFJOB AFTER ENTERING REQUEST. DISPLAY SYST IS RELEASED.
002261:                                                                                                  #  IT ASSUMES NOUN 26 HAS BEEN PRELOADED WITH
002262:                                                                                                  #  COMPONENT 1  PRIORITY (BITS 10-14) BIT1=0 FOR NOVAC, BIT1=1 FOR FINDVAC.
002263:                                                                                                  #  COMPONENT 2  JOB ADRES (12 BIT)
002264:                                                                                                  #  COMPONENT 3  BBCON
002265:
002266: 05,3314           37763        VBRQEXEC           CAF      BIT1
002267: 05,3315           70337                           MASK     DSPTEM1
002268: 05,3316           10000                           CCS      A
002269: 05,3317           03336                           TC       SETVAC                                #  IF BIT1 = 1, FINDVAC
002270: 05,3320           35723                           CAF      TCNOVAC                               #  IF BIT1 = 0, NOVAC
002271: 05,3321           54144        REQEX1             TS       MPAC                                  #  TC NOVAC  OR  TC FINDVAC INTO MPAC
002272: 05,3322           47763                           CS       BIT1
002273: 05,3323           70337                           MASK     DSPTEM1
002274: 05,3324           54150                           TS       MPAC       +4                         #  PRIO INTO MPAC+4 AS A TEMP
002275: 05,3325           04666        REQUESTC           TC       RELDSP
002276: 05,3326           34505                           CA       ENDINST
002277: 05,3327           54147                           TS       MPAC       +3                         #  TC ENDOFJOB INTO MPAC+3
002278: 05,3330           00006                           EXTEND
002279: 05,3331           30341                           DCA      DSPTEM1    +1                         #  JOB ADRES INTO MPAC+1
002280: 05,3332           52146                           DXCH     MPAC       +1                         #  BBCON INTO MPAC+2
002281: 05,3333           30150                           CA       MPAC       +4                         #  PRIO IN A
002282: 05,3334           00004                           INHINT
002283: 05,3335           00144                           TC       MPAC
002284:
002285: 05,3336           34562        SETVAC             CAF      TCFINDVC
002286: 05,3337           03321                           TC       REQEX1
002287:
002288:                                                                                                  #  VBRQWAIT ENTERS REQUEST TO WAITLIST FOR ANY ADDRESS WITH ANY DELAY.
002289:                                                                                                  #  IT DOES ENDOFJOB AFTER ENTERING REQUEST.DISPLAY SYST IS RELEASED.
002290:                                                                                                  #  IT ASSUMES NOUN 26 HAS BEEN PRELOADED WITH
002291:                                                                                                  #  COMPONENT 1  DELAY (LOW BITS)
002292:                                                                                                  #  COMPONENT 2  TASK ADRES (12 BIT)
002293:                                                                                                  #  COMPONENT 3  BBCON


002295: 05,3340           34561        VBRQWAIT           CAF      TCWAIT
002296: 05,3341           54144                           TS       MPAC                                  #  TC WAITLIST INTO MPAC
002297: 05,3342           30337                           CA       DSPTEM1                               #  TIME DELAY
002298: 05,3343           03324        ENDRQWT            TC       REQUESTC   -1
002299:
002300:                                                                                                  #  REQUESTC WILL PUT TASK ADRES INTO MPAC+1, BBCON INTO MPAC+2,
002301:                                                                                                  #  TC ENDOFJOB INTO MPAC+3. IT WILL TAKE TIME DELAY OUT OF MPAC+4 AND
002302:                                                                                                  #  LEAVE IT IN A, INHINT AND TC MPAC.
002303:
002304:
002305: 04,3326                                           SETLOC   NVSBENDL   +1
002306: 04,3326           37763        VBPROC             CAF      ONE                                   #  PROCEED WITHOUT DATA
002307: 04,3327           54305                           TS       LOADSTAT
002308: 04,3330           04666                           TC       RELDSP
002309: 04,3331           04626                           TC       FLASHOFF
002310: 04,3332           03440                           TC       RECALTST                              #  SEE IF THERE IS ANY RECALL FROM ENDIDLE
002311:
002312:
002313: 04,3333           04466        VBTERM             TC       KILMONON                              #  TURN ON KILL MONITOR BIT
002314: 04,3334           47763                           CS       ONE
002315: 04,3335           03327                           TC       VBPROC     +1                         #  TERM VERB SETS LOADSTAT NEG
002316:
002317:
002318:                                                                                                  #  FLASH IS TURNED OFF ONLY BY PROCEED WITHOUT DATA, TERMINATE, END OF LOAD
002319:
002320:                                                                                                  #  VBRELDSP TURNS OFF RELEASE DISPLAY SYSTEM LIGHT(AND SEARCHES LIST ONLY
002321:                                                                                                  #  IF THIS LIGHT WAS TURNED ON BY NVSUBUSY), AND TURNS OFF UPACT LIGHT.
002322:
002323: 04,3336           47761        VBRELDSP           CS       BIT3
002324: 04,3337           00006                           EXTEND
002325: 04,3340           03011                           WAND     DSALMOUT                              #  TURN OFF UPACT LIGHT
002326: 04,3341           04666                           TC       RELDSP                                #  SEARCHES LIST
002327: 04,3342           05567                           TC       ENDOFJOB
002328:
002329:
002330:                                                                                                  #  BUMP SHIFTS WORD DISPLAYED IN R2 TO R3, R1 TO R2. IT BLANKS R1.
002331:
002332: 04,3343           37766        BUMP               CAF      FIVE                                  #  R2D5
002333: 04,3344           54270                           TS       DSPCOUNT
002334: 04,3345           54133                           TS       COUNT
002335: 04,3346           37763                           CAF      ONE                                   #  SHIFT DATA OF R2 TO R3, R1 TO R2
002336: 04,3347           70133                           MASK     COUNT
002337: 04,3350           56133                           XCH      COUNT                                 #  +0 INTO COUNT IF EVEN (RIGHT)
002338: 04,3351           54021                           TS       SR                                    #  +1 INTO COUNT IF ODD (LEFT)


002340: 04,3352           56021                           XCH      SR                                    #  DSREL IN A
002341: 04,3353           50000                           INDEX    A
002342: 04,3354           10313                           CCS      DSPTAB
002343: 04,3355           03357                           TC       +2
002344: 04,3356           04736                           TC       CCSHOLE
002345: 04,3357           67763                           AD       ONE                                   #  DSMAG IN A
002346: 04,3360           50133                           INDEX    COUNT
002347: 04,3361           73275                           MASK     DSMSK
002348: 04,3362           50133                           INDEX    COUNT
002349: 04,3363           03364                           TC       +1
002350: 04,3364           03366                           TC       +2                                    #  EVEN(RIGHT)  OK
002351: 04,3365           04532                           TC       RIGHT5                                #  ODD(LEFT)  SHIFT RIGHT
002352: 04,3366           54114                           TS       CODE
002353: 04,3367           47766                           CS       FIVE
002354: 04,3370           60270                           AD       DSPCOUNT                              #  DSPCOUNT-5
002355: 04,3371           10000                           CCS      A                                     #  TO PREVENT -0
002356: 04,3372           67763                           AD       ONE
002357: 04,3373           03375                           TC       +2
002358: 04,3374           04736                           TC       CCSHOLE
002359: 04,3375           54133                           TS       COUNT
002360: 04,3376           03217                           TC       DSPIN                                 #  CODE ALREADY IN CODE
002361: 04,3377           40270                           CS       DSPCOUNT
002362: 04,3400           64527                           AD       R1D1                                  #  OCT 16
002363: 04,3401           10000                           CCS      A
002364: 04,3402           56270                           XCH      DSPCOUNT                              #  +. DSPCOUNT L/ OCT 16
002365: 04,3403           67763                           AD       ONE                                   #  INCREMENT DSPCOUNT
002366: 04,3404           03344                           TC       BUMP       +1
002367:
002368: 04,3405           37767        SWSGN              CAF      ZERO                                  #  -0, DSPCOUNT= OCT 16. DO SIGN SHIFT
002369: 04,3406           54270                           TS       DSPCOUNT
002370: 04,3407           63436                           AD       SWTAB      +2                         #  OCT 3
002371: 04,3410           50000                           INDEX    A                                     #  PICKUP ORDER , DSREL=3,4,5,6.
002372: 04,3411           10313                           CCS      DSPTAB                                #                   (-R2,+R2,-R1,+R1)
002373: 04,3412           03414                           TC       +2
002374: 04,3413           04736                           TC       CCSHOLE
002375: 04,3414           67763                           AD       ONE
002376: 04,3415           77751                           MASK     BIT11
002377: 04,3416           54114                           TS       CODE
002378: 04,3417           50270                           INDEX    DSPCOUNT
002379: 04,3420           33434                           CAF      SWTAB                                 #  PUT AWAY ORDER, DSREL= 0,1,3,4.
002380: 04,3421           03301                           TC       11DSPIN                               #                   (-R3,+R3,-R2,+R2.)
002381: 04,3422           40270                           CS       DSPCOUNT
002382: 04,3423           63436                           AD       SWTAB      +2                         #  OCT 3
002383: 04,3424           10000                           CCS      A
002384: 04,3425           56270                           XCH      DSPCOUNT                              #  +, DSPCOUNT L/ 3
002385: 04,3426           67763                           AD       ONE                                   #  INCREMENT DSPCOUNT
002386: 04,3427           03406                           TC       SWSGN      +1
002387: 04,3430           34527                           CAF      R1D1                                  #  -0,       DSPCOUNT = 3
002388: 04,3431           54270                           TS       DSPCOUNT
002389: 04,3432           02514                           TC       5BLANK                                #  BLANKS R1


002391: 04,3433           00126                           TC       ENTEXIT
002392:
002393: 04,3434           00000        SWTAB              OCT      0                                     #  -R3
002394: 04,3435           00001                           OCT      1                                     #  +R3
002395: 04,3436           00003                           OCT      3                                     #  -R2
002396: 04,3437           00004                           OCT      4                                     #  +R2
002397:


002399:                                                                                                  #  NVSUB IS USED FOR SUB ROUTINE CALLS FROM WITHIN COMPUTER. IT CAN BE
002400:                                                                                                  #  USED TO DO ANY THING THE KEYBOARD CAN CALL. PLACE ...VVVVVVNNNNNN
002401:                                                                                                  #  INTO A.      V-S ARE 6 BIT VERB CODE. N-S , 6 BIT NOUN CODE.
002402:
002403:                                                                                                  #  NVSUB CAN BE USED WITH MACH CADR TO BE SPEC BY PLACING THE CADR INTO
002404:                                                                                                  #  MPAC+2 BEFORE THE STANDARD NVSUB CALL.
002405:
002406:                                                                                                  #   NVSUB RETURNS TO 2+ CALLING LOC AFTER PERFORMING TASK, IF DISPLAY
002407:                                                                                                  #  SYSTEM IS AVAILABLE. THE NEW NOUN AND VERB CODES ARE DISPLAYED.
002408:                                                                                                  #  IF V:S =0, THE NEW NOUN CODE IS DISPLAYED ONLY (RETURN WITH NO FURTHER
002409:                                                                                                  #  ACTION). IF N-S =0, THE NEW VERB CODE IS DISPLAYED ONLY(RETURN WITH NO
002410:                                                                                                  #  FURTHER ACTION).
002411:
002412:                                                                                                  #  IT RETURNS TO 1+ CALLING LOC WITHOUT PERFORMING TASK, IF DISPLAY
002413:                                                                                                  #  SYSTEM IS BLOCKED (NOTHING IS DISPLAYED IN THIS CASE).
002414:                                                                                                  #  IT DOES TC ABORT (WITH OCT 01501) IF IT ENCOUNTERS A DISPLAY PROGRAM
002415:                                                                                                  #  ALARM CONDITION BEFORE RETURN TO CALLER.
002416:
002417:                                                                                                  #  THE DISPLAY SYSTEM IS BLOCKED BY THE DEPRESSION OF ANY
002418:                                                                                                  #  KEY, EXCEPT ERROR LIGHT RESET. ALSO BY ENDIDLE.
002419:                                                                                                  #       IT IS RELEASED BY SPECIAL VERB = RELEASE DISPLAY, ALL GO TO VERBS,
002420:                                                                                                  #  PROCEED WITHOUT DATA, TERMINATE, INITIALIZE EXECUTIVE.
002421:                                                                                                  #  RECALL PART OF RECALTST IF ENDIDLE WAS USED,
002422:                                                                                                  #  IN RECALTST IF NVSUB INITIATED LOAD AND ENDIDLE WAS NOT USED.
002423:                                                                                                  #  VB = REQUEST EXECUTIVE, VB = REQUEST WAITLIST,
002424:                                                                                                  #  MONITOR SET UP.
002425:
002426:                                                                                                  #  A NVSUB CALL THAT PASSES DSPLOCK ENDS OLD MONITOR.
002427:
002428:                                                                                                  #  DSPLOCK IS THE INTERLOCK FOR USE OF KEYBOARD AND DISPLAY SYSTEM WHICH
002429:                                                                                                  #  LOCKS OUT INTERNAL USE WHENEVER THERE IS EXTERNAL KEYBOARD ACTION.
002430:
002431:                                                                                                  #  NVSUB IN FIXED-FIXED PLACES 2+CALLING LOC INTO NVQTEM, TC NVSUBEND INTO
002432:                                                                                                  #  ENTRET. (THIS WILL RESTORE OLD CALLING BANK BITS)
002433:
002434:    4444                                           SETLOC   MIDSIX     +1
002435:    4444           54113        NVSUB              TS       NVTEMP                                #  IN FIXED FIXED
002436:    4445           10303                           CCS      DSPLOCK
002437:    4446           00002                           TC       Q                                     #  DSP SYST BLOCKED, RET TO 1+ CALLING LOC
002438:    4447           30002                           CA       Q                                     #  DSP SYST AVAILABLE
002439:    4450           67763                           AD       ONE
002440:    4451           54331                           TS       NVQTEM                                #  2+ CALLING LOC INTO NVQTEM
002441:    4452           04466                           TC       KILMONON                              #  TURN ON KILL MONITOR BIT
002442:    4453           34457        NVSUBCOM           CAF      NVSBBBNK
002443:
002444:    4454           56006                           XCH      BBANK
002445:    4455           54332                           TS       NVBNKTEM
002446:    4456           02000                           TC       NVSUBB                                #  GO TO NVSUB1 THRU STANDARD LOC
002447:    4457     0270                                  EBANK=   DSPCOUNT
002448:    4457           12060        NVSBBBNK           BBCON    NVSUB1
002449:


002451:    4460           30002        NVSUBMON           CA       Q                                     #  MONDO COMES HERE
002452:    4461           67763                           AD       ONE
002453:    4462           54331                           TS       NVQTEM                                #  2 + CALLING LOC INTO NVQTEM
002454:    4463           04453                           TC       NVSUBCOM
002455:
002456:    4464           52332        NVSUBEND           DXCH     NVQTEM                                #  NVBNKTEM MUST = NVQTEM+1
002457:    4465           52006                           DXCH     Z                                     #  DTCB
002458:
002459: 05,3344                                           SETLOC   ENDRQWT    +1
002460:
002461: 05,3344           33363        NVSUB1             CAF      ENTSET                                #  IN BANK
002462: 05,3345           54126                           TS       ENTRET                                #  SET RETURN TO NVSUBEND
002463: 05,3346           33401                           CAF      LOW6
002464: 05,3347           70113                           MASK     NVTEMP
002465: 05,3350           54144                           TS       MPAC                                  #  TEMP STORAGE
002466: 05,3351           33402                           CAF      MID6
002467: 05,3352           70113                           MASK     NVTEMP
002468: 05,3353           04532                           TC       RIGHT5
002469: 05,3354           54020                           TS       CYR
002470: 05,3355           56020                           XCH      CYR
002471: 05,3356           54145                           TS       MPAC       +1                         #  TEMP STORAGE
002472: 05,3357           10144                           CCS      MPAC                                  #  TEST NOUN
002473: 05,3360           03364                           TC       +4                                    #  IF NOUN NOT +0, GO ON
002474: 05,3361           56145                           XCH      MPAC       +1
002475: 05,3362           02314                           TC       UPDATVB    -1                         #  IF NOUN = +0, DISPLAY VERB . THEN RETURN
002476: 05,3363           04464        ENTSET             TC       NVSUBEND
002477: 05,3364           10145                           CCS      MPAC       +1                         #  TEST VERB
002478: 05,3365           03371                           TC       +4                                    #  IF VERB NOT +0, GO ON
002479: 05,3366           56144                           XCH      MPAC
002480: 05,3367           02274                           TC       UPDATNN    -1                         #  IF VERB = +0, DISPLAY NOUN, THEN RETURN
002481: 05,3370           04464                           TC       NVSUBEND
002482: 05,3371           56145                           XCH      MPAC       +1
002483: 05,3372           02314                           TC       UPDATVB    -1                         #  IF BOTH NOUN AND VERB NOT +0, DISPLAY
002484: 05,3373           56144                           XCH      MPAC                                  #  BOTH AND GO TO ENTPAS0
002485: 05,3374           02274                           TC       UPDATNN    -1
002486: 05,3375           37767                           CAF      ZERO
002487: 05,3376           54305                           TS       LOADSTAT                              #  SET FOR WAITING FOR DATA CONDITION
002488: 05,3377           54306                           TS       CLPASS
002489: 05,3400           02031                           TC       ENTPAS0
002490:
002491:                                                                                                  #  IF INTERNAL MACH CADR TO BE SPECIFIED, MPAC+2 WILL BE PLACED INTO
002492:                                                                                                  #  NOUNCADR IN ENTPAS0 (INTMCTBS ).
002493:
002494:
002495: 05,3401           00077        LOW6               OCT      77
002496: 05,3402           07700        MID6               OCT      7700
002497:


002499:    4466                                           SETLOC   NVSUBEND   +2
002500:    4466           47745        KILMONON           CS       BIT15                                 #  FORCE BIT 15 OF MONSAVE1 TO 1.
002501:    4467           00004                           INHINT                                         #          THIS IS THE KILL MONITOR BIT.
002502:    4470           70312                           MASK     MONSAVE1
002503:    4471           67745                           AD       BIT15
002504:    4472           54312                           TS       MONSAVE1
002505:    4473           00003                           RELINT
002506:    4474           00002                           TC       Q
002507:
002508:
002509:                                                                                                  #  LOADSTAT  +0 INACTIVE (WAITING FOR DATA). SET BY NVSUB
002510:                                                                                                  #            +1  PROCEED NO DATA. SET BY SPECIAL VERB
002511:                                                                                                  #           -1 TERMINATE   SET BY SPECIAL VERB
002512:                                                                                                  #           -0 DATA IN   SET BY END OF LOAD ROUTINE
002513:
002514:
002515:                                                                                                  #  L  TO ENDIDLE  (FIXED FIXED)
002516:                                                                                                  #  ROUTINES THAT REQUEST LOADS THROUGH NVSUB SHOULD USE ENDIDLE WHILE
002517:                                                                                                  #  WAITING FOR THE DATA TO BE LOADED. ENDIDLE PUTS CURRENT JOB TO SLEEP.
002518:                                                                                                  #  ENDIDLE CANNOT BE CALLED FROM ERASABLE MEMORY, SINCE JOB SLEEP AND
002519:                                                                                                  #  JOBWAKE CAN HANDLE ONLY FIXED MEMORY.
002520:                                                                                                  #  RECALTST TESTS LOADSTAT AND WAKES JOB UP TO,
002521:                                                                                                  #  L+1      FOR TERMINATE
002522:                                                                                                  #  L+2      FOR PROCEED WITHOUT DATA
002523:                                                                                                  #  L+3      FOR DATA IN
002524:                                                                                                  #  IT DOES NOTHING     IF LOADSTAT INDICATES WAITING FOR DATA.
002525:
002526:    4475           37763        ENDIDLE            CAF      ONE
002527:    4476           54303                           TS       DSPLOCK
002528:    4477           22004                           LXCH     FBANK
002529:    4500           56002                           XCH      Q
002530:    4501           52124                           DXCH     BUF2
002531:    4502           05235                           TC       MAKECADR
002532:    4503           54327                           TS       CADRSTOR
002533:    4504           05545                           TC       JOBSLEEP
002534:
002535:    4505           05567        ENDINST            TC       ENDOFJOB
002536:
002537:                                                                                                  #  DATAWAIT IS AN ALTERNATIVE TO ENDIDLE. IT RETURNS IMMEDIATELY IF
002538:                                                                                                  #  LOADSTAT INDICATES THAT DATA IS ALREADY IN, OR PROCEED OR TERMINATE HAS
002539:                                                                                                  #  BEEN EXECUTED. RETURN FORMAT IS SAME AS FOR ENDIDLE.
002540:                                                                                                  #  DATAWAIT CANNOT BE CALLED FROM ERASABLE MEMORY, SINCE JOBSLEEP
002541:                                                                                                  #  AND JOBWAKE CAN HANDLE ONLY FIXED MEMORY.
002542:                                                                                                  #  DATAWAIT SHOULD BE USED ONLY AFTER REQUESTING A LOAD VERB.
002543:
002544:    4506           10305        DATAWAIT           CCS      LOADSTAT


002546:    4507           17015                           TCF      DATWAIT1                              #  PROCEED. RETURN TO L+2.
002547:    4510           14475                           TCF      ENDIDLE                               #  STILL WAITING. GO TO SLEEP.
002548:    4511           00002                           TC       Q                                     #  TERMINATE. RETURN TO L+1.
002549:    4512           17017                           TCF      Q+2                                   #  DATA IN. RETURN TO L+3
002550:    4513     7015               DATWAIT1           =        Q+1                                   #  RETURN TO L+2
002551:
002552:                                                                                                  #  DATAWAIT DOES NOT RELEASE DISPLAY SYST. IT IS RELEASED AT END OF NVSUB
002553:                                                                                                  #  INITIATED LOAD, IF ENDIDLE WAS NOT USED.
002554:
002555:
002556: 05,3403                                           SETLOC   MID6       +1
002557:                                                                                                  #  DSPMM  PLACE MAJOR MODE CODE INTO MODREG
002558:
002559: 05,3403           34567        DSPMM1             CAF      MD1                                   #  GETS HERE THRU DSPMM (STANDARD LEAD IN)
002560: 05,3404           56270                           XCH      DSPCOUNT
002561: 05,3405           54130                           TS       DSPMMTEM                              #  SAVE DSPCOUNT
002562: 05,3406           30302                           CA       MODREG
002563: 05,3407           22002                           LXCH     Q
002564: 05,3410           03255                           TC       DSP2BIT
002565: 05,3411           56130                           XCH      DSPMMTEM                              #  RESTORE DSPCOUNT
002566: 05,3412           54270                           TS       DSPCOUNT
002567: 05,3413           00001        DSPMMEND           TC       L
002568:
002569:
002570:                                                                                                  #  RECALTST IS ENTERED DIRECTLY AFTER DATA IS
002571:                                                                                                  #  LOADED, TERMINATE VERB IS EXECUTED, OR THE PROCEED WITHOUT DATA VERB IS
002572:                                                                                                  #  EXECUTED. IT WAKES UP JOB THAT DID TC ENDIDLE.
002573:
002574:                                                                                                  #  IF NVSUB INITIATED LOAD, AND ENDIDLE WAS NOT USED, THEN IT RELEASES
002575:                                                                                                  #  DISPLAY SYST. (NEEDED FOR DATAWAIT)
002576:
002577: 04,3440                                           SETLOC   SWTAB      +4
002578:
002579: 04,3440           10327        RECALTST           CCS      CADRSTOR
002580: 04,3441           03446                           TC       RECAL1
002581: 04,3442           05567                           TC       ENDOFJOB                              #  NORMAL EXIT IF KEYBOARD INITIATED
002582: 04,3443           03446                           TC       RECAL1
002583: 04,3444           54327                           TS       CADRSTOR                              #  -0. CONCLUSION OF NVSUB INITIATED LOAD.
002584: 04,3445           03464                           TC       RECAL3                                #  +0 INTO CADRSTOR, RELEASE DISPLAY,
002585:                                                                                                  #     AND ENDOFJOB.  NEEDED FOR DATAWAIT.
002586: 04,3446           37767        RECAL1             CAF      ZERO
002587: 04,3447           56327                           XCH      CADRSTOR
002588: 04,3450           00004                           INHINT
002589: 04,3451           05551                           TC       JOBWAKE
002590: 04,3452           10305                           CCS      LOADSTAT
002591: 04,3453           03470                           TC       DOPROC                                #  + PROCEED WITHOUT DATA
002592: 04,3454           05567                           TC       ENDOFJOB                              #  PATHALOGICAL CASE EXIT
002593: 04,3455           03466                           TC       DOTERM                                #  - TERMINATE


002595: 04,3456           37762                           CAF      TWO
002596: 04,3457           50064        RECAL2             INDEX    LOCCTR
002597: 04,3460           60154                           AD       LOC                                   #  LOC IS + FOR BASIC JOBS
002598: 04,3461           50064                           INDEX    LOCCTR
002599: 04,3462           54154                           TS       LOC
002600: 04,3463           00003                           RELINT
002601: 04,3464           04711        RECAL3             TC       RELDSP1                               #  DOES NOT SEARCH LIST
002602: 04,3465           05567                           TC       ENDOFJOB
002603:
002604: 04,3466           37767        DOTERM             CAF      ZERO
002605: 04,3467           03457                           TC       RECAL2
002606:
002607: 04,3470           37763        DOPROC             CAF      ONE
002608: 04,3471           03457                           TC       RECAL2
002609:


002611:                                                                                                  #  THE FOLLOWING REFERS TO THE NOUN TABLES
002612:
002613:
002614:                                                                                                  #  COMPONENT CODE NUMBER         INTERPRETATION
002615:
002616:                                                                                                  #  00000                         1 COMPONENT
002617:                                                                                                  #  00001                         2 COMPONENT (EACH S P)
002618:                                                                                                  #  00010                         3 COMPONENT (EACH SP)
002619:
002620:
002621:                                                                                                  #  SF ROUTINE CODE NUMBER        INTERPRETATION
002622:
002623:                                                                                                  #  00000         OCTAL ONLY
002624:                                                                                                  #  00001         STRAIGHT FRACTIONAL
002625:                                                                                                  #  00010         DEGREES (XXX.XX)
002626:                                                                                                  #  00011         ARITHMETIC SF
002627:                                                                                                  #  00100         ARITH DP1       OUT(MULT BY 2/14 AT END)        IN(STRAIGHT)
002628:                                                                                                  #  00101         ARITH DP2       OUT(STRAIGHT)                   IN(SL 7 AT END)
002629:                                                                                                  #  00110         OPTICS DEGREES(XX.XXX MAX 89.999) OR (XXX.XX MAX 179.99)
002630:                                                                                                  #  00111         ARITH DP3       OUT ( SL 7 AT END)              IN ( STRAIGHT)
002631:                                                                                                  #  END OF SF ROUTINE CODE NUMBERS
002632:
002633:
002634:                                                                                                  #  SF CONSTANT CODE NUMBER       INTERPRETATION
002635:
002636:                                                                                                  #  00000                         WHOLE
002637:                                                                                                  #  00000                         TIME SEC(XXX.XX)SAME AS WHOLE (ARITH DP1)
002638:                                                                                                  #  00001                         TIME HOURS(XXX.XX) USE ARITH DP2
002639:                                                                                                  #  00010                         DEGREES
002640:                                                                                                  #  00010                         OPTICS DEGREES
002641:                                                                                                  #  00011                         GYRO DEGREES(XX.XXX)  USE ARITHDP3
002642:                                                                                                  #  00100                         GYRO BIAS DRIFT .BBXXXXX MILLIRAD/SEC
002643:                                                                                                  #  00101                         GYRO AXIS ACCEL. DRIFT
002644:                                                                                                  #                                .BBXXXXX (MILLIRAD/SEC) / (CM/SEC SEC)
002645:                                                                                                  #  00110                         PIPA BIAS X.XXXX CM/SEC SEC
002646:                                                                                                  #  00111                         PIPA SCALE FACTOR ERROR
002647:                                                                                                  #                                    XXXXX. PARTS/MILLION
002648:                                                                                                  #  01000                         POSITION(XXXX.X KILOMETERS) USE ARITHDP3
002649:                                                                                                  #  01001                         VELOCITY(XXXX.X METERS/SEC) USE ARITHDP2
002650:                                                                                                  #  01010                         TIME HOURS(XXX.XX)WEEKS INSIDE(ARITHDP2)
002651:                                                                                                  #  01011                         ELEVATION DEGREES(89.999MAX) USE ARITH
002652:                                                                                                  #  01100                         RENDEZVOUS RADAR RANGE(XXXXXB.FEET)
002653:                                                                                                  #                                                            USE ARITHDP1
002654:                                                                                                  #  01101                         RENDEZVOUS RADAR RANGE RATE(XXXXX.FT/SEC
002655:                                                                                                  #                                                            USE ARITHDP1
002656:                                                                                                  #  01110                         LANDING RADAR ALTITUDE(XXXXX.FEET)
002657:                                                                                                  #                                                            USE ARITHDP1


002659:                                                                                                  #  01111                         INITIAL/FINAL ALTITUDE(XXXXX.FEET)
002660:                                                                                                  #                                                            USE ARITHDP1
002661:                                                                                                  #  10000                         ALTITUDE RATE(XXXXX.FEET)      USE ARITH
002662:                                                                                                  #  10001                         FORWARD/LATERAL VELOCITY(XXXXX.FEET/SEC)
002663:                                                                                                  #                                                               USE ARITH
002664:                                                                                                  #  10010                         ROTATIONAL HAND CONTROLLER ANGLE RATES
002665:                                                                                                  #                                      XXXXX.DEG/SEC            USE ARITH
002666:                                                                                                  #  10011                         LANDING RADAR VELX(XXXXX.FEET/SEC)
002667:                                                                                                  #                                                            USE ARITHDP1
002668:                                                                                                  #  10100                         LANDING RADAR VELY(XXXXX.FEET/SEC)
002669:                                                                                                  #                                                            USE ARITHDP1
002670:                                                                                                  #  10101                         LANDING RADAR VELZ(XXXXX.FEET/SEC)
002671:                                                                                                  #                                                            USE ARITHDP1
002672:                                                                                                  #  10110                         OPTICAL TRACKER AZIMUTH ANGLE(XXX.XXDEG)
002673:                                                                                                  #                                                            USE ARITHDP1
002674:                                                                                                  #  END OF SF CONSTANT CODE NUMBERS
002675:
002676:                                                                                                  #  FOR GREATER THAN SINGLE PRECISION SCALES, PUT ADDRESS OF MAJOR PART INTO
002677:                                                                                                  #  NOUN TABLES.
002678:                                                                                                  #  OCTAL LOADS PLACE +0 INTO MAJOR PART, DATA INTO MINOR PART.
002679:                                                                                                  #  OCTAL DISPLAYS SHOW MINOR PART ONLY.
002680:                                                                                                  #  TO GET AT BOTH MAJOR AND MINOR PARTS (IN OCTAL), USE NOUN 01.
002681:


002683:                                                                                                  #  THE FOLLOWING ROUTINES ARE FOR READING THE NOUN TABLES AND THE SF TABLES
002684:                                                                                                  #  (WHICH ARE IN A SEPARATE BANK FROM THE REST OF PINBALL). THESE READING
002685:                                                                                                  #  ROUTINES ARE IN THE SAME BANK AS THE TABLES. THEY ARE CALLED BY DXCH Z.
002686:
002687:
002688:                                                                                                  #  LODNNTAB LOADS NNADTEM WITH THE NNADTAB ENTRY, NNTYPTEM WITH THE
002689:                                                                                                  #  NNTYPTAB ENTRY. IF THE NOUN IS MIXED, IDAD1TEM IS LOADED WITH THE FIRST
002690:                                                                                                  #  IDADDTAB ENTRY, IDAD2TEM THE SECOND IDADDTAB ENTRY, IDAD3TEM THE THIRD
002691:                                                                                                  #  IDADDTAB ENTRY, RUTMXTEM WITH THE RUTMXTAB ENTRY, MIXBR IS SET FOR
002692:                                                                                                  #  MIXED OR NORMAL NOUN.
002693:
002694: 23,2000                                           BANK     23
002695: 23,2000           52142        LODNNTAB           DXCH     IDAD2TEM                              #  SAVE RETURN INFO IN IDAD2TEM, IDAD3TEM.
002696: 23,2001           50273                           INDEX    NOUNREG
002697: 23,2002           32052                           CAF      NNADTAB
002698: 23,2003           54136                           TS       NNADTEM
002699: 23,2004           50273                           INDEX    NOUNREG
002700: 23,2005           32152                           CAF      NNTYPTAB
002701: 23,2006           54137                           TS       NNTYPTEM
002702: 23,2007           40273                           CS       NOUNREG
002703: 23,2010           62036                           AD       MIXCON
002704: 23,2011           00006                           EXTEND
002705: 23,2012           62016                           BZMF     LODMIXNN                              #  NOUN NUMBER G/E FIRST MIXED NOUN
002706: 23,2013           37763                           CAF      ONE                                   #  NOUN NUMBER L/ FIRST MIXED NOUN
002707: 23,2014           54130                           TS       MIXBR                                 #  NORMAL.  +1 INTO MIXBR.
002708: 23,2015           02034                           TC       LODNLV
002709: 23,2016           37762        LODMIXNN           CAF      TWO                                   #  MIXED.  +2 INTO MIXBR.
002710: 23,2017           54130                           TS       MIXBR
002711: 23,2020           50273                           INDEX    NOUNREG
002712: 23,2021           32420                           CAF      RUTMXTAB   -55
002713: 23,2022           54143                           TS       RUTMXTEM
002714: 23,2023           35337                           CAF      LOW10
002715: 23,2024           70136                           MASK     NNADTEM
002716: 23,2025           54002                           TS       Q                                     #  TEMP
002717: 23,2026           50000                           INDEX    A
002718: 23,2027           32406                           CAF      IDADDTAB
002719: 23,2030           54140                           TS       IDAD1TEM                              #  LOAD IDAD1TEM WITH FIRST IDADDTAB ENTRY
002720: 23,2031           00006                           EXTEND
002721: 23,2032           50002                           INDEX    Q                                     #  LOAD IDAD2TEM WITH 2ND IDADDTAB ENTRY
002722: 23,2033           32410                           DCA      IDADDTAB   +1                         #  LOAD IDAD3TEM WITH 3RD IDADDTAB ENTRY.
002723: 23,2034           52142        LODNLV             DXCH     IDAD2TEM                              #  PUT RETURN INFO INTO A, L.
002724: 23,2035           52006                           DXCH     Z
002725:
002726: 23,2036           00055        MIXCON             OCT      55                                    #  FIRST MIXED NOUN = 55.
002727:
002728:
002729:                                                                                                  #  GTSFOUT LOADS SFTEMP1, SFTEMP2 WITH THE DP SFOUTAB ENTRIES.


002731:
002732: 23,2037           52114        GTSFOUT            DXCH     SFTEMP1                               #  2X(SFCONUM) ARRIVES IN SFTEMP1.
002733: 23,2040           00006                           EXTEND
002734: 23,2041           50000                           INDEX    A
002735: 23,2042           32331                           DCA      SFOUTAB
002736: 23,2043           52114        SFCOM              DXCH     SFTEMP1
002737: 23,2044           52006                           DXCH     Z
002738:
002739:
002740:                                                                                                  #  GTSFIN LOADS SFTEMP1, SFTEMP2 WITH THE DP SFINTAB ENTRIES.
002741:
002742: 23,2045           52114        GTSFIN             DXCH     SFTEMP1                               #  2X(SFCONUM) ARRIVES IN SFTEMP1.
002743: 23,2046           00006                           EXTEND
002744: 23,2047           50000                           INDEX    A
002745: 23,2050           32253                           DCA      SFINTAB
002746: 23,2051           12043                           TCF      SFCOM
002747:
002748:                                                                                                  #  NN   NORMAL NOUNS
002749: 23,2052           00000        NNADTAB            OCT      00000                                 #  00 NOT IN USE
002750: 23,2053           40000                           OCT      40000                                 #  01 SPECIFY MACHINE ADDRESS (FRACTIONAL)
002751: 23,2054           40000                           OCT      40000                                 #  02 SPECIFY MACHINE ADDRESS (WHOLE)
002752: 23,2055           40000                           OCT      40000                                 #  03 SPECIFY MACHINE ADDRESS (DEGREES)
002753: 23,2056           40000                           OCT      40000                                 #  04 SPECIFY MACHINE ADDRESS (HOURS)
002754: 23,2057           40000                           OCT      40000                                 #  05 SPECIFY MACHINE ADDRESS (SECONDS)
002755: 23,2060           40000                           OCT      40000                                 #  06 SPECIFY MACHINE ADDRESS (GYRO DEG)
002756: 23,2061           00000                           OCT      00000                                 #  07 SPARE
002757: 23,2062           77776                           OCT      77776                                 #  10 CHANNEL TO BE SPECIFIED
002758: 23,2063           00000                           OCT      00000                                 #  11 SPARE
002759: 23,2064           00000                           OCT      00000                                 #  12 SPARE
002760: 23,2065           00000                           OCT      00000                                 #  13 SPARE
002761: 23,2066           00000                           OCT      00000                                 #  14 SPARE
002762: 23,2067           77777                           OCT      77777                                 #  15 INCREMENT MACHINE ADDRESS
002763: 23,2070           00024                           ECADR    TIME2                                 #  16 TIME SECONDS
002764: 23,2071           00024                           ECADR    TIME2                                 #  17 TIME HOURS
002765: 23,2072           00032                           ECADR    CDUX                                  #  20 ICDU
002766: 23,2073           00037                           ECADR    PIPAX                                 #  21 PIPAS
002767: 23,2074           00400                           ECADR    THETAD                                #  22 NEW ANGLES I
002768: 23,2075           00342                           ECADR    DSPTEM2                               #  23 DELTA ANGLES I
002769: 23,2076           00337                           ECADR    DSPTEM1                               #  24 DELTA TIME (SEC)
002770: 23,2077           00337                           ECADR    DSPTEM1                               #  25 CHECKLIST
002771: 23,2100           00337                           ECADR    DSPTEM1                               #  26 PRIO/DELAY, ADRES, BBCON
002772: 23,2101           01355                           ECADR    SMODE                                 #  27 SELF TEST ON/OFF SWITCH
002773: 23,2102           00337                           ECADR    DSPTEM1                               #  30 STAR NUMBERS
002774: 23,2103           01363                           ECADR    ALMCADR                               #  31 ALMCADR, ALMCADR +1, ERCOUNT
002775: 23,2104           02166                           ECADR    TDEC                                  #  32 DECISION TIME (MIDCOURSE)
002776: 23,2105           02046                           ECADR    TET                                   #  33 EPHEMERIS TIME(MIDCOURSE)
002777: 23,2106           02174                           ECADR    MEASQ                                 #  34 MEASURED QUANTITY (MIDCOURSE)
002778: 23,2107           00337                           ECADR    DSPTEM1                               #  35 INBIT MESSAGE


002780: 23,2110           01500                           ECADR    LANDMARK                              #  36 LANDMARK DATA 1
002781: 23,2111           01503                           ECADR    LANDMARK   +3                         #  37 LANDMARK DATA 2
002782: 23,2112           00035                           ECADR    OPTY                                  #  40 RENDEZVOUS RADAR ANGLES (TRUN, SHAFT)
002783: 23,2113           00422                           ECADR    TANG                                  #  41 NEW REND. RADAR ANGLES (TRUN, SHAFT)
002784: 23,2114           00342                           ECADR    DSPTEM2                               #  42 AOT ROTATION ANGLES
002785: 23,2115           00374                           ECADR    XYMARK                                #  43 AOT DETENT CODE
002786: 23,2116           00357                           ECADR    FORVEL                                #  44 FORWARD VELOCITY, LATERAL VELOCITY
002787: 23,2117           03031                           ECADR    PCOM                                  #  45 ROTATIONAL HAND CONTROLLER ANGLE RATE
002788: 23,2120           00000                           OCT      00000                                 #  46 SPARE
002789: 23,2121           00000                           OCT      00000                                 #  47 SPARE
002790: 23,2122           01360                           ECADR    FAILREG                               #  50 FAILREG, FAILREG +1, FAILREG +2.
002791: 23,2123           00000                           OCT      00000                                 #  51 SPARE
002792: 23,2124           01444                           ECADR    GBIASX                                #  52 GYRO BIAS DRIFT
002793: 23,2125           01447                           ECADR    ADIAX                                 #  53 GYRO INPUT AXIS ACCELERATION DRIFT
002794: 23,2126           01452                           ECADR    ADSRAX                                #  54 GYRO SPIN AXIS ACCELERATION DRIFT
002795:
002796:                                                                                                  #  NN  MIXED NOUNS
002797: 23,2127           02000                           OCT      02000                                 #  55 LANDING RADAR ALTITUDE, TIME(SEC)
002798: 23,2130           02002                           OCT      02002                                 #  56 LANDING RADAR VELX, TIME(SEC)
002799: 23,2131           02004                           OCT      02004                                 #  57 LANDING RADAR VELY, TIME(SEC)
002800: 23,2132           02006                           OCT      02006                                 #  60 LANDING RADAR VELZ, TIME(SEC)
002801: 23,2133           02010                           OCT      02010                                 #  61 TARGET AZIMUTH AND ELEVATION
002802: 23,2134           04012                           OCT      04012                                 #  62 RENDEZVOUS RADAR RANGE, TRUN, SHAFT
002803: 23,2135           04015                           OCT      04015                                 #  63 REND. RADAR RANGE RATE, TRUN, SHAFT
002804: 23,2136           04020                           OCT      04020                                 #  64 INITIAL ALT, FINAL ALT, ALT RATE
002805: 23,2137           02023                           OCT      02023                                 #  65 SAMPLED TIME (HOURS AND SECONDS)
002806:                                                                                                  #       (FETCHED IN INTERRUPT)
002807: 23,2140           04025                           OCT      04025                                 #  66 SYSTEM TEST RESULTS
002808: 23,2141           04030                           OCT      04030                                 #  67 DELTA GYRO ANGLES
002809: 23,2142           02033                           OCT      02033                                 #  70 OPTICAL TRACKER ANGLES (AZIMUTH,ELEV)
002810: 23,2143           02035                           OCT      02035                                 #  71 DESIRED OPT. TRACK. ANGLES (AZ, ELEV)
002811: 23,2144           04037                           OCT      04037                                 #  72 DELTA POSITION
002812: 23,2145           04042                           OCT      04042                                 #  73 DELTA VELOCITY
002813: 23,2146           04045                           OCT      04045                                 #  74 MEASUREMENT DATA (MIDCOURSE)
002814: 23,2147           04050                           OCT      04050                                 #  75 MEASUREMENT DEVIATIONS (MIDCOURSE)
002815: 23,2150           04053                           OCT      04053                                 #  76 POSITION VECTOR
002816: 23,2151           04056                           OCT      04056                                 #  77 VELOCITY VECTOR
002817:
002818:                                                                                                  #  NN        NORMAL NOUNS
002819: 23,2152           00000        NNTYPTAB           OCT      00000                                 #  00 NOT IN USE
002820: 23,2153           00040                           OCT      00040                                 #  01 1COMP  FRACTIONAL
002821: 23,2154           00140                           OCT      00140                                 #  02 1COMP  WHOLE
002822: 23,2155           00102                           OCT      00102                                 #  03 1COMP  DEGREES
002823: 23,2156           00241                           OCT      00241                                 #  04 1COMP  HOURS
002824: 23,2157           00200                           OCT      00200                                 #  05 1COMP  SECONDS
002825: 23,2160           00343                           OCT      00343                                 #  06 1COMP  GYRO DEGREES
002826: 23,2161           00000                           OCT      00000                                 #  07        SPARE
002827: 23,2162           00000                           OCT      00000                                 #  10 1COMP  OCTAL ONLY


002829: 23,2163           00000                           OCT      00000                                 #  11        SPARE
002830: 23,2164           00000                           OCT      00000                                 #  12        SPARE
002831: 23,2165           00000                           OCT      00000                                 #  13        SPARE
002832: 23,2166           00000                           OCT      00000                                 #  14        SPARE
002833: 23,2167           00000                           OCT      00000                                 #  15 1COMP  OCTAL ONLY
002834: 23,2170           00200                           OCT      00200                                 #  16 1COMP  SECONDS
002835: 23,2171           00241                           OCT      00241                                 #  17 1COMP  HOURS
002836: 23,2172           04102                           OCT      04102                                 #  20 3COMP  DEGREES
002837: 23,2173           04140                           OCT      04140                                 #  21 3COMP  WHOLE
002838: 23,2174           04102                           OCT      04102                                 #  22 3COMP  DEGREES
002839: 23,2175           04102                           OCT      04102                                 #  23 3COMP  DEGREES
002840: 23,2176           00200                           OCT      00200                                 #  24 1COMP  SECONDS
002841: 23,2177           00140                           OCT      00140                                 #  25 1COMP  WHOLE
002842: 23,2200           04000                           OCT      04000                                 #  26 3COMP  OCTAL ONLY
002843: 23,2201           00140                           OCT      00140                                 #  27 1COMP  WHOLE
002844: 23,2202           04140                           OCT      04140                                 #  30 3COMP  WHOLE
002845: 23,2203           04000                           OCT      04000                                 #  31 3COMP  OCTALONLY
002846: 23,2204           00252                           OCT      00252                                 #  32 1COMP  TIME WEEKS
002847: 23,2205           00252                           OCT      00252                                 #  33 1COMP  TIME WEEKS
002848: 23,2206           00350                           OCT      00350                                 #  34 1COMP  POSITION
002849: 23,2207           04000                           OCT      04000                                 #  35 3COMP  OCTAL ONLY
002850: 23,2210           04000                           OCT      04000                                 #  36 3COMP  OCTAL ONLY
002851: 23,2211           04000                           OCT      04000                                 #  37 3COMP  OCTAL ONLY
002852: 23,2212           02102                           OCT      02102                                 #  40 2COMP  DEGREES
002853: 23,2213           02102                           OCT      02102                                 #  41 2COMP  DEGREES
002854: 23,2214           02102                           OCT      02102                                 #  42 2COMP  DEGREES
002855: 23,2215           00140                           OCT      00140                                 #  43 1COMP  WHOLE
002856: 23,2216           02161                           OCT      02161                                 #  44 2COMP  FORWARD/LATERAL VELOCITY
002857: 23,2217           04162                           OCT      04162                                 #  45 3COMP  ROT HAND CONT ANGLE RATE
002858: 23,2220           00000                           OCT      00000                                 #  46        SPARE
002859: 23,2221           00000                           OCT      00000                                 #  47        SPARE
002860: 23,2222           04000                           OCT      04000                                 #  50 3COMP  OCTAL ONLY
002861: 23,2223           00000                           OCT      00000                                 #  51        SPARE
002862: 23,2224           04144                           OCT      04144                                 #  52 3COMP  GYRO BIAS DRIFT
002863: 23,2225           04145                           OCT      04145                                 #  53 3COMP  GYRO AXIS ACCEL. DRIFT
002864: 23,2226           04145                           OCT      04145                                 #  54 3COMP  GYRO AXIS ACCEL. DRIFT
002865:
002866:                                                                                                  #  NN        MIXED NOUNS
002867: 23,2227           00016                           OCT      00016                                 #  55 2COMP  LANDING RADAR ALT, SECONDS
002868: 23,2230           00023                           OCT      00023                                 #  56 3COMP  LANDING RADAR VELX, SECONDS
002869: 23,2231           00024                           OCT      00024                                 #  57 2COMP  LANDING RADAR VELY, SECONDS
002870: 23,2232           00025                           OCT      00025                                 #  60 3COMP  LANDING RADAR VELZ, SECONDS
002871: 23,2233           00542                           OCT      00542                                 #  61 2COMP  DEGREES, ELEVATION DEGREES
002872: 23,2234           04114                           OCT      04114                                 #  62 3COMP  REND. RADAR RANGE, DEG, DEG
002873: 23,2235           04115                           OCT      04115                                 #  63 2COMP  REND. RAD. RANGE RATE, DEG,DEG
002874: 23,2236           40757                           OCT      40757                                 #  64 2COMP  IN/FN ALT, IN/FN ALT, ALT RATE
002875: 23,2237           00001                           OCT      00001                                 #  65 2COMP  HOURS, SECONDS
002876: 23,2240           00000                           OCT      00000                                 #  66 3COMP  WHOLE, FRACTIONAL, WHOLE
002877: 23,2241           06143                           OCT      06143                                 #  67 3COMP  GYRO DEGREES FOR EACH
002878: 23,2242           00126                           OCT      00126                                 #  70 3COMP  OPT TRACK AZIMUTH, DEGREES


002880: 23,2243           00126                           OCT      00126                                 #  71 2COMP  OPT TRACK AZIMUTH, DEGREES
002881: 23,2244           20410                           OCT      20410                                 #  72 3COMP  POSITION FOR EACH
002882: 23,2245           22451                           OCT      22451                                 #  73 3COMP  VELOCITY FOR EACH
002883: 23,2246           00412                           OCT      00412                                 #  74 3COMP  TIME WEEKS, POSITION, WHOLE
002884: 23,2247           20450                           OCT      20450                                 #  75 3COMP  POSITION, VELOCITY, POSITION
002885: 23,2250           20410                           OCT      20410                                 #  76 3COMP  POSITION FOR EACH
002886: 23,2251           22451                           OCT      22451                                 #  77 3COMP  VELOCITY FOR EACH
002887:
002888:
002889: 23,2252           00006        SFINTAB            OCT      00006                                 #  WHOLE,TIME(SEC)
002890: 23,2253           03240                           OCT      03240
002891: 23,2254           00253                           OCT      00253                                 #  TIME HOURS ( = 1.3..... )
002892: 23,2255           25124                           OCT      25124                                 #    (POINT BETWEEN BITS 7-8 )
002893: 23,2256           00000                           OCT      0                                     #  DEGREES (SFCON IN DEGINSF )
002894: 23,2257           00000                           OCT      0
002895: 23,2260           10707                           OCT      10707                                 #  GYRO DEGREES
002896: 23,2261           03435                           OCT      03435                                 #              UPPED BY 1
002897: 23,2262           00001                           OCT      00001                                 #  GYRO BIAS DRIFT
002898: 23,2263           02133                           OCT      02133
002899: 23,2264           00011                           OCT      00011                                 #  GYRO AXIS ACCEL. DRIFT
002900: 23,2265           30322                           OCT      30322
002901: 23,2266           00004                           OCT      00004                                 #  PIPA BIAS
002902: 23,2267           14021                           OCT      14021
002903: 23,2270           00314                           OCT      00314                                 #  PIPA SCALE ERROR.
002904: 23,2271           31463                           OCT      31463
002905: 23,2272           23420                           OCT      23420                                 #  POSITION
002906: 23,2273           00000                           OCT      00000
002907: 23,2274           00201                           OCT      00201                                 #  VELOCITY
002908: 23,2275           30327                           OCT      30327                                 #  ( POINT BETWEEN BITS 7-8 )
002909: 23,2276           01371                           OCT      01371                                 #  TIME WEEKS
002910: 23,2277           34750                           OCT      34750                                 #  ( POINT BETWEEN BITS 7-8 )
002911: 23,2300           00001                           OCT      00001                                 #  ELEVATION DEGREES
002912: 23,2301           03434                           OCT      03434
002913: 23,2302           00006                           OCT      00006                                 #  RENDEZVOUS RADAR RANGE
002914: 23,2303           20162                           OCT      20162
002915: 23,2304           00011                           OCT      00011                                 #  RENDEZVOUS RADAR RANGE RATE
002916: 23,2305           27066                           OCT      27066
002917: 23,2306           00005                           OCT      00005                                 #  LANDING RADAR ALTITUDE
002918: 23,2307           24733                           OCT      24733
002919: 23,2310           00002                           OCT      00002                                 #  INITIAL/FINAL ALTITUDE
002920: 23,2311           23224                           OCT      23224
002921: 23,2312           00014                           OCT      00014                                 #  ALTITUDE RATE
002922: 23,2313           06500                           OCT      06500
002923: 23,2314           00012                           OCT      00012                                 #  FORWARD/LATERAL VELOCITY
002924: 23,2315           36455                           OCT      36455
002925: 23,2316           04256                           OCT      04256                                 #  ROT HAND CONT ANGLE RATE
002926: 23,2317           07071                           OCT      07071
002927: 23,2320           00011                           OCT      00011                                 #  LANDING RADAR VELX
002928: 23,2321           17410                           OCT      17410


002930: 23,2322           00004                           OCT      00004                                 #  LANDING RADAR VELY
002931: 23,2323           33740                           OCT      33740
002932: 23,2324           00007                           OCT      00007                                 #  LANDING RADAR VELZ
002933: 23,2325           03701                           OCT      03701
002934: 23,2326           00005                           OCT      00005                                 #  OPTICAL AZIMUTH TRACKER ANGLE
002935: 23,2327           21616                           OCT      21616
002936:                                                                                                  #  END OF SFINTAB
002937:
002938:
002939: 23,2330           05174        SFOUTAB            OCT      05174                                 #  WHOLE, TIME(SEC)
002940: 23,2331           13261                           OCT      13261
002941: 23,2332           27670                           OCT      27670                                 #  TIME HOURS
002942: 23,2333           31357                           OCT      31357
002943: 23,2334           00000                           OCT      0                                     #  DEGREES
002944: 23,2335           00000                           OCT      0
002945: 23,2336           00714                           OCT      00714                                 #  GYRO DEGREES
002946: 23,2337           31463                           OCT      31463                                 #  (POINT BETWEEN BITS 7-8)
002947: 23,2340           35753                           OCT      35753                                 #  GYRO BIAS DRIFT
002948: 23,2341           32323                           OCT      32323
002949: 23,2342           03216                           OCT      03216                                 #  GYRO AXIS ACCEL. DRIFT
002950: 23,2343           06400                           OCT      06400
002951: 23,2344           07237                           OCT      07237                                 #  PIPA BIAS
002952: 23,2345           37776                           OCT      37776
002953: 23,2346           00120                           OCT      00120                                 #  PIPA SCALE ERROR
002954: 23,2347           00000                           OCT      00000
002955: 23,2350           00321                           OCT      00321                                 #  POSITION
002956: 23,2351           26706                           OCT      26706                                 #  ( POINT BETWEEN BITS 7-8 )
002957: 23,2352           37441                           OCT      37441                                 #  VELOCITY
002958: 23,2353           14247                           OCT      14247
002959: 23,2354           05300                           OCT      05300                                 #  TIME WEEKS
002960: 23,2355           20305                           OCT      20305
002961: 23,2356           34631                           OCT      34631                                 #  ELEVATION DEGREES
002962: 23,2357           23146                           OCT      23146
002963: 23,2360           04725                           OCT      04725                                 #  RENDEZVOUS RADAR RANGE
002964: 23,2361           35454                           OCT      35454
002965: 23,2362           03225                           OCT      03225                                 #  RENDEZFOUS RADAR RANGE RATE
002966: 23,2363           07470                           OCT      07470
002967: 23,2364           05521                           OCT      05521                                 #  LANDING RADAR ALTITUDE
002968: 23,2365           30260                           OCT      30260
002969: 23,2366           14226                           OCT      14226                                 #  INITIAL/FINAL ALTITUDE
002970: 23,2367           31757                           OCT      31757
002971: 23,2370           02476                           OCT      02476                                 #  ALTITUDE RATE
002972: 23,2371           05531                           OCT      05531
002973: 23,2372           02727                           OCT      02727                                 #  FORWARD/LATERAL VELOCITY
002974: 23,2373           16415                           OCT      16415
002975: 23,2374           00007                           OCT      00007                                 #  ROT HAND CONT ANGLE RATE
002976: 23,2375           13734                           OCT      13734
002977: 23,2376           03277                           OCT      03277                                 #  LANDING RADAR VELX
002978: 23,2377           14165                           OCT      14165


002980: 23,2400           06442                           OCT      06442                                 #  LANDING RADAR VELY
002981: 23,2401           04735                           OCT      04735
002982: 23,2402           04374                           OCT      04374                                 #  LANDING RADAR VELZ
002983: 23,2403           30251                           OCT      30251
002984: 23,2404           05605                           OCT      05605                                 #  OPTICAL TRACKER AZIMUTH ANGLE
002985: 23,2405           03656                           OCT      03656
002986:                                                                                                  #  END OF SFOUTAB
002987:
002988:
002989:                                                                                                  #  MIXNOUN  SF ROUT
002990: 23,2406           03471        IDADDTAB           ECADR    RSTACK     +18D                       #  01       LANDING RADAR ALTITUDE
002991: 23,2407           03475                           ECADR    RSTACK     +22D                       #  01       SECONDS
002992: 23,2410           03447                           ECADR    RSTACK                                #  02       LANDING RADAR VELX
002993: 23,2411           03453                           ECADR    RSTACK     +4                         #  02       SECONDS
002994: 23,2412           03455                           ECADR    RSTACK     +6                         #  03       LANDING RADAR VELY
002995: 23,2413           03461                           ECADR    RSTACK     +10D                       #  03       SECONDS
002996: 23,2414           03463                           ECADR    RSTACK     +12D                       #  04       LANDING RADAR VELZ
002997: 23,2415           03467                           ECADR    RSTACK     +16D                       #  04       SECONDS
002998: 23,2416           00337                           ECADR    DSPTEM1                               #  05       DEGREES
002999: 23,2417           00340                           ECADR    DSPTEM1    +1                         #  05       ELEVATION DEGREES
003000: 23,2420           03447                           ECADR    RSTACK                                #  06       RENDEZVOUS RADAR RANGE
003001: 23,2421           03451                           ECADR    RSTACK     +2                         #  06       DEGREES
003002: 23,2422           03452                           ECADR    RSTACK     +3                         #  06       DEGREES
003003: 23,2423           03455                           ECADR    RSTACK     +6                         #  07       RENDEZVOUS RADAR RANGE RATE
003004: 23,2424           03457                           ECADR    RSTACK     +8D                        #  07       DEGREES
003005: 23,2425           03460                           ECADR    RSTACK     +9D                        #  07       DEGREES
003006: 23,2426           00351                           ECADR    ALT                                   #  10       INITIAL/FINAL ALTITUDE
003007: 23,2427           00354                           ECADR    FINALT                                #  10       INITIAL/FINAL ALTITUDE
003008: 23,2430           00353                           ECADR    ALTRATE                               #  10       ALTITUDE RATE
003009: 23,2431           00013                           ECADR    SAMPTIME                              #  11       HOURS
003010: 23,2432           00013                           ECADR    SAMPTIME                              #  11       SECONDS
003011: 23,2433           00342                           ECADR    DSPTEM2                               #  12       WHOLE
003012: 23,2434           00343                           ECADR    DSPTEM2    +1                         #  12       FRACTIONAL
003013: 23,2435           00344                           ECADR    DSPTEM2    +2                         #  12       WHOLE
003014: 23,2436           00403                           ECADR    DELVX                                 #  13       GYRO DEGREES
003015: 23,2437           00405                           ECADR    DELVX      +2                         #  13       GYRO DEGREES
003016: 23,2440           00407                           ECADR    DELVX      +4                         #  13       GYRO DEGREES
003017: 23,2441           01475                           ECADR    AZANG                                 #  14       OPT TRACK AZIMUTH ANGLE
003018: 23,2442           01475                           ECADR    ELANG                                 #  14       DEGREES
003019: 23,2443           01475                           ECADR    DESLOTSY                              #  15       OPT TRACK AZIMUTH ANGLE
003020: 23,2444           01475                           ECADR    DESLOTSX                              #  15       DEGREES
003021: 23,2445           02052                           ECADR    DELR                                  #  16       POSITION
003022: 23,2446           02054                           ECADR    DELR       +2                         #  16       POSITION
003023: 23,2447           02056                           ECADR    DELR       +4                         #  16       POSITION
003024: 23,2450           02060                           ECADR    DELVEL                                #  17       VELOCITY
003025: 23,2451           02062                           ECADR    DELVEL     +2                         #  17       VELOCITY
003026: 23,2452           02064                           ECADR    DELVEL     +4                         #  17       VELOCITY
003027: 23,2453           02166                           ECADR    TDEC                                  #  20       TIME WEEKS
003028: 23,2454           02174                           ECADR    MEASQ                                 #  20       POSITION


003030: 23,2455           02200                           ECADR    MEASMODE                              #  20       WHOLE
003031: 23,2456           00337                           ECADR    DSPTEM1                               #  21       POSITION
003032: 23,2457           00341                           ECADR    DSPTEM1    +2                         #  21       VELOCITY
003033: 23,2460           02176                           ECADR    DELTAQ                                #  21       POSITION
003034: 23,2461           00337                           ECADR    DSPTEM1                               #  22       POSITION
003035: 23,2462           00341                           ECADR    DSPTEM1    +2                         #  22       POSITION
003036: 23,2463           00343                           ECADR    DSPTEM1    +4                         #  22       POSITION
003037: 23,2464           00337                           ECADR    DSPTEM1                               #  23       VELOCITY
003038: 23,2465           00341                           ECADR    DSPTEM1    +2                         #  23       VELOCITY
003039: 23,2466           00343                           ECADR    DSPTEM1    +4                         #  23       VELOCITY
003040: 23,2467           00000                           OCT      00000                                 #           SPARE
003041: 23,2470           00000                           OCT      00000                                 #           SPARE
003042: 23,2471           00000                           OCT      00000                                 #           SPARE
003043: 23,2472           00000                           OCT      00000                                 #           SPARE
003044: 23,2473           00000                           OCT      00000                                 #           SPARE
003045: 23,2474           00000                           OCT      00000                                 #           SPARE
003046:                                                                                                  #  END OF IDADDTAB
003047:
003048:                                                                                                  #  MIXNOUN  SF ROUT
003049: 23,2475           00204        RUTMXTAB           OCT      00204                                 #  01  LANDING RADAR ALTITUDE, SECONDS
003050: 23,2476           00204                           OCT      00204                                 #  02  LANDING RADAR VELX, SECONDS
003051: 23,2477           00204                           OCT      00204                                 #  03  LANDING RADAR VELY, SECONDS
003052: 23,2500           00204                           OCT      00204                                 #  04  LANDING RADAR VELZ, SECONDS
003053: 23,2501           00142                           OCT      00142                                 #  05  DEGREES, ELEVATION DEGREES
003054: 23,2502           04104                           OCT      04104                                 #  06  RENDEZVOUS RADAR RANGE, DEG, DEG
003055: 23,2503           04104                           OCT      04104                                 #  07  REND. RADAR RANGE RATE, DEG, DEG
003056: 23,2504           06204                           OCT      06204                                 #  10  INIT/FIN ALT, INIT/FIN ALT, ALT RATE
003057: 23,2505           00205                           OCT      00205                                 #  11  HOURS, SECONDS
003058: 23,2506           06043                           OCT      06043                                 #  12  WHOLE, FRACTIONAL, WHOLE
003059: 23,2507           16347                           OCT      16347                                 #  13  GYRO DEGREES (FOR EACH)
003060: 23,2510           00104                           OCT      00104                                 #  14  OPT TRACK AZIMUTH ANGLE, DEGREES
003061: 23,2511           00104                           OCT      00104                                 #  15  OPT TRACK AZIMUTH ANGLE, DEGREES
003062: 23,2512           16347                           OCT      16347                                 #  16  POSITION (FOR EACH)
003063: 23,2513           12245                           OCT      12245                                 #  17  VELOCITY (FOR EACH)
003064: 23,2514           06345                           OCT      06345                                 #  20  TIME WEEKS, POSITION, WHOLE
003065: 23,2515           16247                           OCT      16247                                 #  21  POSITION, VELOCITY, POSITION
003066: 23,2516           16347                           OCT      16347                                 #  22  POSITION (FOR EACH)
003067: 23,2517           12245                           OCT      12245                                 #  23  VELOCITY (FOR EACH)
003068:                                                                                                  #  END OF RUTMXTAB
003069:


003071:                                                                                                  #  MISCELLANEOUS SERVICE ROUTINES IN FIXED/FIXED
003072:
003073:    4513                                           BLOCK    02
003074:
003075:                                                                                                  #  SETNCADR      E CADR ARRIVES IN A. IT IS STORED IN NOUNCADR. EBANK BITS
003076:                                                                                                  #                ARE SET.  E ADRES IS DERIVED AND PUT INTO NOUNADD.
003077:
003078:    4513           54310        SETNCADR           TS       NOUNCADR                              #  STORE ECADR
003079:    4514           54003                           TS       EBANK                                 #  SET EBANK BITS
003080:    4515           74564                           MASK     LOW8
003081:    4516           65352                           AD       OCT1400
003082:    4517           54135                           TS       NOUNADD                               #  PUT E ADRES INTO NOUNADD
003083:    4520           00002                           TC       Q
003084:
003085:                                                                                                  #  SETNADD       GETS E CADR FROM NOUNCADR, SETS EBANK BITS, DERIVES
003086:                                                                                                  #                E ADRES AND PUTS IT INTO NOUNADD.
003087:
003088:    4521           30310        SETNADD            CA       NOUNCADR
003089:    4522           14514                           TCF      SETNCADR   +1
003090:
003091:                                                                                                  #  SETEBANK      E CADR ARRIVES IN A. EBANK BITS ARE SET. E ADRES IS
003092:                                                                                                  #                DERIVED AND LEFT IN A.
003093:
003094:    4523           54003        SETEBANK           TS       EBANK                                 #  SET EBANK BITS
003095:    4524           74564                           MASK     LOW8
003096:    4525           65352                           AD       OCT1400                               #  E ADRES LEFT IN A
003097:    4526           00002                           TC       Q
003098:
003099:
003100:    4527           00016        R1D1               OCT      16
003101:    4530           00011        R2D1               OCT      11
003102:    4531           00004        R3D1               OCT      4
003103:
003104:    4532           54020        RIGHT5             TS       CYR
003105:    4533           40020                           CS       CYR
003106:    4534           40020                           CS       CYR
003107:    4535           40020                           CS       CYR
003108:    4536           40020                           CS       CYR
003109:    4537           56020                           XCH      CYR
003110:    4540           00002                           TC       Q
003111:
003112:    4541           54022        LEFT5              TS       CYL
003113:    4542           40022                           CS       CYL
003114:    4543           40022                           CS       CYL


003116:    4544           40022                           CS       CYL
003117:    4545           40022                           CS       CYL
003118:    4546           56022                           XCH      CYL
003119:    4547           00002                           TC       Q
003120:
003121:    4550           60000        SLEFT5             DOUBLE
003122:    4551           60000                           DOUBLE
003123:    4552           60000                           DOUBLE
003124:    4553           60000                           DOUBLE
003125:    4554           60000                           DOUBLE
003126:    4555           00002                           TC       Q
003127:
003128:
003129:    4556           00037        LOW5               OCT      37
003130:    4557           01740        MID5               OCT      1740
003131:    4560           76000        HI5                OCT      76000                                 #  MUST STAY HERE
003132:
003133:    4561     5723               TCNOVAC            =        SVCT3      +5
003134:    4561           05663        TCWAIT             TC       WAITLIST
003135:    4562     5717               TCTSKOVR           =        SVCT3      +1
003136:    4562           05516        TCFINDVC           TC       FINDVAC
003137:
003138:
003139:    4563     5210               CHRPRIO            =        PRIO30                                #  EXEC PRIORITY OF CHARIN
003140:
003141:    4563           03777        LOW11              OCT      3777
003142:    4564     4563               B12-1              EQUALS   LOW11
003143:    4564           00377        LOW8               OCT      377
003144:    4565           00023        VD1                OCT      23
003145:    4566           00021        ND1                OCT      21
003146:    4567           00025        MD1                OCT      25
003147:
003148:    4570           00012        BINCON             DEC      10         B-14
003149:
003150:    4571           37755        FALTON             CA       BIT7                                  #  TURN ON OPERATOR ERROR LIGHT
003151:    4572           00006                           EXTEND
003152:    4573           05011                           WOR      DSALMOUT                              #  BIT 7 OF CHANNEL 11
003153:    4574           00002                           TC       Q
003154:
003155:    4575           47755        FALTOF             CS       BIT7                                  #  TURN OFF OPERATOR ERROR LIGHT
003156:    4576           00006                           EXTEND
003157:    4577           03011                           WAND     DSALMOUT                              #  BIT 7 OF CHANNEL 11
003158:    4600           00002                           TC       Q
003159:
003160:    4601           37757        RELDSPON           CAF      BIT5                                  #  TURN ON KEY RELEASE LIGHT
003161:    4602           00006                           EXTEND
003162:    4603           05011                           WOR      DSALMOUT                              #  BIT 5 OF CHANNEL 11
003163:    4604           00002                           TC       Q
003164:


003166:    4605           00006        LODSAMPT           EXTEND
003167:    4606           30025                           DCA      TIME2
003168:    4607           52014                           DXCH     SAMPTIME
003169:    4610           00002                           TC       Q
003170:
003171:
003172:    4611           00006        TPSL1              EXTEND                                         #  SHIFTS MPAC, +1, +2 LEFT 1
003173:    4612           30146                           DCA      MPAC       +1                         #  LEAVES OVFIND SET TO +/- 1 FOR OF/UF
003174:    4613           20146                           DAS      MPAC       +1
003175:    4614           60144                           AD       MPAC
003176:    4615           26144                           ADS      MPAC
003177:    4616           54007                           TS       7                                     #  TS A DOES NOT CHANGE A ON OF/UF.
003178:    4617           00002                           TC       Q                                     #  NO NET OF/UF
003179:    4620           54111                           TS       OVFIND                                #  OVFIND SET TO +/- 1 FOR OF/UF
003180:    4621           00002                           TC       Q
003181:
003182:
003183:    4622           37756        FLASHON            CAF      BIT6                                  #  TURN ON V/N FLASH
003184:    4623           00006                           EXTEND                                         #  BIT 6 OF CHANNEL 11
003185:    4624           05011                           WOR      DSALMOUT
003186:    4625           00002                           TC       Q
003187:
003188:    4626           47756        FLASHOFF           CS       BIT6                                  #  TURN OFF V/N FLASH
003189:    4627           00006                           EXTEND
003190:    4630           03011                           WAND     DSALMOUT                              #  BIT 6 OF CHANNEL 11
003191:    4631           00002                           TC       Q
003192:


003194:                                                                                                  #  INTERNAL ROUTINES THAT USE THE KEYBOARD AND DISPLAY SYSTEM(THRU
003195:                                                                                                  #  NVSUB) MUST  TC GRABDSP  BEFOREHAND , TO GRAB THE DISPLAY SYSTEM AND
003196:                                                                                                  #  MAKE IT BUSY TO OTHER INTERNAL USERS.
003197:
003198:                                                                                                  #        WHEN FINISHED , THERE MUST BE A TC FREEDSP , TO RELEASE THE
003199:                                                                                                  #  SYSTEM FOR OTHER INTERNAL USERS.
003200:
003201:                                                                                                  #        THE CALLING SEQUENCES ARE
003202:                                                                                                  #  L        TC     GRABDSP
003203:                                                                                                  #  L+1      RETURN HERE WHEN SYSTEM IS ALREADY GRABBED
003204:                                                                                                  #  L+2      RETURN HERE MEANS YOU HAVE IT
003205:
003206:                                                                                                  #  L        TC     NVSUB
003207:                                                                                                  #  L+1      RETURN HERE IF OPERATOR HAS INTERVENED
003208:                                                                                                  #  L+2      RETURN HERE AFTER EXECUTION
003209:
003210:                                                                                                  #        A ROUTINE CALLED GRABUSY IS PROVIDED (USE IS OPTIONAL) TO PUT YOUR
003211:                                                                                                  #  JOB TO SLEEP UNTIL  THE SYSTEM IS FREED BY THE JOB HOLDING IT.
003212:                                                                                                  #  GRABUSY CANNOT BE CALLED FROM E MEMORY, SINCE JOBSLEEP AND JOBWAKE
003213:                                                                                                  #  HANDLE ONLY FIXED MEMORY.
003214:                                                                                                  #  YOUR CADR IS PUT AT FIRST AVAILABLE SLOT IN A WAITING LIST (FIFO).
003215:
003216:                                                                                                  #        THE CALLING SEQUENCE IS
003217:                                                                                                  #           CAF    WAKEFCADR
003218:                                                                                                  #           TC     GRABUSY
003219:
003220:                                                                                                  #        A ROUTINE CALLED  NVSUBUSY IS PROVIDED (USE IS OPTIONAL)  TO PUT
003221:                                                                                                  #  YOUR JOB TO SLEEP UNTIL THE OPERATOR RELEASES IT.
003222:                                                                                                  #  NVSUBUSY CANNOT BE CALLED FROM E MEMORY, SINCE JOBSLEEP AND JOBWAKE
003223:                                                                                                  #  HANDLE ONLY FIXED MEMORY.
003224:                                                                                                  #                                              YOUR CADR IS PUT
003225:                                                                                                  #  ON TOP OF A WAITING LIST (FIFO).  IT ALSO TURNS ON KEY RELEASE LIGHT.
003226:
003227:                                                                                                  #         THE CALLING SEQUENCE IS
003228:                                                                                                  #           CAF    WAKEFCADR
003229:                                                                                                  #           TC     NVSUBUSY
003230:
003231:
003232:                                                                                                  #  AFTER A TC FREEDSP, THE INTERNAL INTERLOCK IS KEPT BUSY FOR 1.75 SECS.
003233:                                                                                                  #  AFTER WHICH A CADR IS CALLED FROM THE LIST. THIS INSURES THAT ALL
003234:                                                                                                  #  DISPLAYS WAITING WILL BE VISIBLE.
003235:
003236:
003237:                                                                                                  #  GRABLOCK IS THE INTERNAL INTERLOCK FOR THE USE OF THE KEYBOARD
003238:                                                                                                  #  AND DISPLAY SYSTEM.
003239:                                                                                                  #  +0  FREE


003241:                                                                                                  #  +1  SOME INTERNAL ROUTINE HAS GRABBED DSP SYST
003242:                                                                                                  #  +2  SOME INTERNAL ROUTINE HAS GONE TO NVSUBUSY
003243:
003244:    4632           10330        GRABDSP            CCS      GRABLOCK
003245:    4633           00002                           TC       Q                                     #  ALREADY GRABBED, RETURN TO L+1
003246:    4634           37763                           CAF      ONE                                   #  NOT GRABBED, SET TO +1
003247:    4635           54330                           TS       GRABLOCK                              #  AND RETURN TO L+2
003248:    4636           17015                           TCF      Q+1
003249:
003250:
003251:    4637           35337        PREGBSY            CAF      LOW10                                 #  SPECIAL ENTRANCE FOR ROUTINES IN FIXED
003252:    4640           70002                           MASK     Q                                     #  BANKS ONLY DESIRING THE FCADR OF
003253:    4641           60004                           AD       FBANK                                 #  1 + (LOC FROM WHICH TC PREGBSY WAS DONE)
003254:    4642           05225        GRABUSY            TC       POSTJUMP                              #  TO BE ENTERED.
003255:    4643           10000                           CADR     GRABUSYB
003256: 04,3472                                           SETLOC   DOPROC     +2
003257: 04,3472           54001        GRABUSY1           TS       L
003258: 04,3473           10330                           CCS      GRABLOCK
003259: 04,3474           03477                           TC       +3                                    #  STILL GRABBED
003260: 04,3475           30001                           CA       L                                     #  NOT GRABBED SO DO DIRECT CALL
003261: 04,3476           05230                           TC       BANKJUMP
003262: 04,3477           37762                           CAF      TWO
003263: 04,3500           54134                           TS       LSTPTR
003264: 04,3501           50134                           INDEX    LSTPTR                                #  SEARCH LIST FOR FIRST AVAILABLE SPACE
003265: 04,3502           10333                           CCS      DSPLIST                               #  FROM BOTTOM.
003266: 04,3503           03505                           TC       +2
003267: 04,3504           03510                           TC       PUTINLST                              #  SPACE FOUND
003268: 04,3505           10134                           CCS      LSTPTR                                #  DECREMENT POINTER
003269: 04,3506           03500                           TC       -6
003270: 04,3507           03554                           TC       LSTFULL
003271: 04,3510           30001        PUTINLST           CA       L
003272: 04,3511           50134                           INDEX    LSTPTR
003273: 04,3512           54333                           TS       DSPLIST
003274: 04,3513           05545                           TC       JOBSLEEP
003275:
003276:
003277:                                                                                                  #  GRABWAIT IS A SPECIAL ENTRANCE FOR ROUTINES IN FIXED BANKS ONLY. IF
003278:                                                                                                  #  SYSTEM IS NOT GRABBED, IT GRABS IT AND RETURNS TO L+1 (L = LOC FROM
003279:                                                                                                  #  WHICH THE TC GRABWAIT WAS DONE). IF SYSTEM IS GRABBED, IT PUTS CALLING
003280:                                                                                                  #  JOB TO SLEEP WITH L+1 GOING INTO LIST FOR EVENTUAL WAKING UP WHEN
003281:                                                                                                  #  SYSTEM IS FREED.
003282:
003283:    4644                                           SETLOC   GRABUSY    +2
003284:    4644           10330        GRABWAIT           CCS      GRABLOCK
003285:    4645           14637                           TCF      PREGBSY                               #  GRABBED. PUT L+1 INTO LIST. GO TO SLEEP.
003286:    4646           37763                           CAF      ONE                                   #  NOT GRABBED. GRAB AND RETURN TO L+1.


003288:    4647           54330                           TS       GRABLOCK
003289:    4650           00002                           TC       Q
003290:
003291:
003292:    4651           44656        PRENVBSY           CS       2K+3                                  #  SPECIAL ENTRANCE FOR ROUTINES IN FIXED
003293:    4652           60002                           AD       Q                                     #  BANKS ONLY DESIRING THE FCADR OF (LOC
003294:    4653           60004                           AD       FBANK                                 #  FROM WHICH THE TC PRENVBSY WAS DONE) -2
003295:    4654           05225        NVSUBUSY           TC       POSTJUMP                              #  TO BE ENTERED.
003296:    4655           10001                           CADR     NVSUBSYB
003297:    4656           02003        2K+3               OCT      2003
003298:
003299: 04,3514                                           SETLOC   PUTINLST   +4
003300: 04,3514           54001        NVSUBSY1           TS       L
003301: 04,3515           10303                           CCS      DSPLOCK                               #  TEST IF REALLY LOCKED OUT
003302: 04,3516           03521                           TC       +3                                    #  STILL BUSY
003303: 04,3517           30001                           CA       L                                     #  DSPLOCK = +0 SO RETURN DIRECTLY
003304: 04,3520           05230                           TC       BANKJUMP
003305: 04,3521           37762                           CAF      TWO                                   #  SET FOR GRABBED STATE AND NVSUBUSY USE
003306: 04,3522           54330                           TS       GRABLOCK
003307: 04,3523           30001                           CA       L
003308: 04,3524           56335                           XCH      DSPLIST    +2                         #  ENTER CADR INTO FIRST POSITION OF LIST
003309: 04,3525           56334                           XCH      DSPLIST    +1                         #          (BOTTOM)
003310: 04,3526           56333                           XCH      DSPLIST
003311: 04,3527           10000                           CCS      A
003312: 04,3530           03554                           TC       LSTFULL
003313: 04,3531           03533                           TC       +2
003314: 04,3532           03554                           TC       LSTFULL
003315: 04,3533           04601                           TC       RELDSPON
003316: 04,3534           30001                           CA       L
003317: 04,3535           05545        ENDNVBSY           TC       JOBSLEEP
003318:
003319:
003320:                                                                                                  #  NVSBWAIT IS A SPECIAL ENTRANCE FOR ROUTINES IN FIXED BANKS ONLY. IF
003321:                                                                                                  #  SYSTEM IS NOT BUSY, IT EXECUTES V/N AND RETURNS TO L+1 (L= LOC FROM
003322:                                                                                                  #  WHICH THE TC NVSBWAIT WAS DONE). IF SYSTEM IS BUSY, IT PUTS CALLING JOB
003323:                                                                                                  #  TO SLEEP WITH L-1 GOING INTO LIST FOR EVENTUAL WAKING UP WHEN SYSTEM
003324:                                                                                                  #  IS NOT BUSY.
003325:
003326:    4657                                           SETLOC   NVSUBUSY   +3
003327:    4657           54113        NVSBWAIT           TS       NVTEMP
003328:    4660           10303                           CCS      DSPLOCK
003329:    4661           14664                           TCF      NVSBWT1                               #  BUSY
003330:    4662           30002                           CA       Q                                     #  FREE. NVSUB WILL SAVE L+1 FOR RETURN
003331:    4663           14451                           TCF      NVSUB      +5                         #  AFTER EXECUTION.
003332:    4664           24002        NVSBWT1            INCR     Q                                     #  L+2. PRENVBSY WILL PUT L-1 INTO LIST AND
003333:    4665           14651                           TCF      PRENVBSY                              #  GO TO SLEEP.
003334:


003336:    4666           56002        RELDSP             XCH      Q                                     #  SET DSPLOCK TO +0, TURN RELDSP LIGHT
003337:    4667           54134                           TS       RELRET                                #  OFF, SEARCH DSPLIST
003338:    4670           37771                           CAF      NEG1
003339:    4671           60330                           AD       GRABLOCK
003340:    4672           00006                           EXTEND                                         #  SEARCH LIST ONLY IF GRABLOCK = +2
003341:    4673           64701                           BZMF     RELDSP2                               #    (SOMEONE USED NVSUBUSY)
003342:    4674           04714                           TC       WKSEARCH
003343:    4675           04701                           TC       RELDSP2                               #  LIST EMPTY
003344:    4676           05551                           TC       JOBWAKE                               #  LIST NOT EMPTY
003345:    4677           37763                           CAF      ONE
003346:    4700           54330                           TS       GRABLOCK
003347:    4701           00004        RELDSP2            INHINT
003348:    4702           47757                           CS       BIT5                                  #  TURN OFF KEY RELEASE LIGHT
003349:    4703           00006                           EXTEND                                         #  (BIT 5 OF CHANNEL 11)
003350:    4704           03011                           WAND     DSALMOUT
003351:    4705           37767                           CAF      ZERO
003352:    4706           54303                           TS       DSPLOCK
003353:    4707           00003                           RELINT
003354:    4710           00134                           TC       RELRET
003355:    4711           56002        RELDSP1            XCH      Q                                     #  SET DSPLOCK TO +0. RELDSP LIGHT OFF.
003356:    4712           54134                           TS       RELRET                                #  NO LIST SEARCH
003357:    4713           04701                           TC       RELDSP2
003358:
003359:
003360:    4714           37767        WKSEARCH           CAF      ZERO                                  #  SEARCHES LIST. LEAVES RESULT IN A.
003361:    4715           56333                           XCH      DSPLIST                               #  IF EMPTY, RETURN TO L+1.
003362:    4716           56334                           XCH      DSPLIST    +1                         #  IF NOT EMPTY, INHINT AND RETURN TO L+2.
003363:    4717           56335                           XCH      DSPLIST    +2
003364:    4720           00006                           EXTEND
003365:    4721           17020                           BZF      TCQ                                   #  EMPTY, RETURN TO L+1
003366:    4722           00004                           INHINT                                         #  NOT EMPTY
003367:    4723           17015                           TCF      Q+1                                   #  RETURN TO L+2
003368:
003369:    4724           56002        FREEDSP            XCH      Q
003370:    4725           54134                           TS       FREERET
003371:    4726           00004                           INHINT
003372:    4727           34735                           CAF      SHOTIME
003373:    4730           05663                           TC       WAITLIST
003374:    4731     0270                                  EBANK=   DSPCOUNT
003375:    4731           03536 10060                     2CADR    FREEWAIT
003376:
003377:    4733           00003                           RELINT
003378:    4734           00134                           TC       FREERET
003379:
003380:    4735           00257        SHOTIME            DEC      175        B-14                       #  SET FOR 1.75 SEC.
003381: 04,3536                                           SETLOC   ENDNVBSY   +1
003382:


003384: 04,3536           35210        FREEWAIT           CAF      CHRPRIO                               #  CALLED BY T3RUPT
003385: 04,3537           05505                           TC       NOVAC
003386: 04,3540     0270                                  EBANK=   DSPCOUNT
003387: 04,3540           03543 10060                     2CADR    FREDSPDO
003388:
003389: 04,3542           05727                           TC       TASKOVER
003390:
003391:
003392: 04,3543           04714        FREDSPDO           TC       WKSEARCH                              #  CALLED BY EXECUTIVE
003393: 04,3544           03552                           TC       LSTEMPTY                              #  LIST EMPTY
003394: 04,3545           05551                           TC       JOBWAKE                               #  LIST NOT EMPTY
003395: 04,3546           00003                           RELINT
003396: 04,3547           37763                           CAF      ONE                                   #  SET FOR GRABBED CONDITION
003397: 04,3550           54330                           TS       GRABLOCK
003398: 04,3551           05567                           TC       ENDOFJOB
003399: 04,3552           37767        LSTEMPTY           CAF      ZERO                                  #  SET FOR FREE CONDITION
003400: 04,3553           03550                           TC       -3
003401:
003402:
003403: 04,3554           06000        LSTFULL            TC       ABORT
003404: 04,3555           01206                           OCT      01206                                 #  PINBALL WAITING LINE FULL.
003405:


003407:                                                                                                  #  VBTSTLTS TURNS ON ALL DISPLAY PANEL LIGHTS. AFTER 5 SEC, IT TURNS
003408:                                                                                                  #  OFF THE CAUTION AND STATUS LIGHTS.
003409:
003410: 05,3414                                           SETLOC   DSPMMEND   +1
003411:
003412: 05,3414           00004        VBTSTLTS           INHINT
003413: 05,3415           47763                           CS       BIT1                                  #  SET BIT 1 OF IMODES33 SO IMUMON WONT
003414: 05,3416           70366                           MASK     IMODES33                              #  TURN OUT ANY LAMPS.
003415: 05,3417           67763                           AD       BIT1
003416: 05,3420           54366                           TS       IMODES33
003417:
003418: 05,3421           33457                           CAF      TSTCON1                               #  TURN ON UPLINK ACTIVITY, TEMP, KEY RLSE,
003419: 05,3422           00006                           EXTEND                                         #  V/N FLASH, OPERATOR ERROR.
003420: 05,3423           05011                           WOR      DSALMOUT
003421: 05,3424           33460                           CAF      TSTCON2                               #  TURN ON NO ATT, GIMBAL LOCK, TRACKER,
003422: 05,3425           54326                           TS       DSPTAB     +11D                       #  PROG ALM.
003423: 05,3426           37752                           CAF      BIT10                                 #  TURN ON TEST ALARM OUTBIT
003424: 05,3427           00006                           EXTEND
003425: 05,3430           05013                           WOR      CHAN13
003426: 05,3431           34570                           CAF      TEN
003427: 05,3432           54107        TSTLTS1            TS       ERCNT
003428: 05,3433           43455                           CS       FULLDSP
003429: 05,3434           50107                           INDEX    ERCNT
003430: 05,3435           54313                           TS       DSPTAB
003431: 05,3436           10107                           CCS      ERCNT
003432: 05,3437           03432                           TC       TSTLTS1
003433: 05,3440           43456                           CS       FULLDSP1
003434: 05,3441           54314                           TS       DSPTAB     +1                         #  TURN ON 3 PLUS SIGNS
003435: 05,3442           54317                           TS       DSPTAB     +4
003436: 05,3443           54321                           TS       DSPTAB     +6
003437: 05,3444           37764                           CAF      ELEVEN
003438: 05,3445           54307                           TS       NOUT
003439: 05,3446           00003                           RELINT
003440: 05,3447           33462                           CAF      SHOLTS
003441: 05,3450           00004                           INHINT
003442: 05,3451           05663                           TC       WAITLIST
003443: 05,3452     0313                                  EBANK=   DSPTAB
003444: 05,3452           03463 12060                     2CADR    TSTLTS2
003445:
003446: 05,3454           05567                           TC       ENDOFJOB                              #  DSPLOCK IS LEFT BUSY (FROM KEYBOARD
003447:                                                                                                  #  ACTION) UNTIL TSTLTS3 TO INSURE THAT
003448:                                                                                                  #  LIGHTS TEST WILL BE SEEN.
003449:
003450: 05,3455           05675        FULLDSP            OCT      05675                                 #  DISPLAY ALL 8;S
003451: 05,3456           07675        FULLDSP1           OCT      07675                                 #  DISPLAY ALL 8;S AND +
003452: 05,3457           00175        TSTCON1            OCT      00175
003453:                                                                                                  #  UPLINK ACTIVITY, TEMP. KEY RLSE,
003454:                                                                                                  #  V/N FLASH, OPERATOR ERROR.


003456: 05,3460           40650        TSTCON2            OCT      40650                                 #  DSPTAB+11D BITS 4,6,8,9,
003457:                                                                                                  #  NO ATT, GIMBAL LOCK, TRACKER, PROG ALM.
003458: 05,3461           00115        TSTCON3            OCT      00115                                 #  CHAN 11 BITS 1, 3, 4, 7.
003459:                                                                                                  #  UPLINK ACTIVITY, TEMP, OPERATOR ERROR.
003460: 05,3462           00764        SHOLTS             OCT      764                                   #  5 SEC
003461:
003462: 05,3463           35210        TSTLTS2            CAF      CHRPRIO                               #  CALLED BY WAITLIST
003463: 05,3464           05505                           TC       NOVAC
003464: 05,3465     0313                                  EBANK=   DSPTAB
003465: 05,3465           03470 12060                     2CADR    TSTLTS3
003466:
003467: 05,3467           05727                           TC       TASKOVER
003468:
003469:
003470: 05,3470           43461        TSTLTS3            CS       TSTCON3                               #  CALLED BY EXECUTIVE
003471: 05,3471           00004                           INHINT
003472: 05,3472           00006                           EXTEND                                         #  TURN OFF  UPLINK ACTIVITY, TEMP,
003473: 05,3473           03011                           WAND     DSALMOUT                              #  OPERATOR ERROR.
003474: 05,3474           47752                           CS       BIT10                                 #  TURN OFF  TEST ALARM OUTBIT
003475: 05,3475           00006                           EXTEND
003476: 05,3476           03013                           WAND     CHAN13
003477: 05,3477           37745                           CAF      BIT15                                 #  TURN OFF AUTO, HOLD, FREE, NO ATT, SPARE
003478: 05,3500           54326                           TS       DSPTAB     +11D                       #  GIMBAL LOCK, SPARE, TRACKER, PROG ALM
003479: 05,3501           43521                           CS       13-11,1                               #  SET BITS TO INDICATE ALL LAMPS OUT. TEST
003480: 05,3502           70366                           MASK     IMODES33                              #  LIGHTS COMPLETE.
003481: 05,3503           65642                           AD       PRIO16
003482: 05,3504           54366                           TS       IMODES33
003483:
003484: 05,3505           43523                           CS       OCT55000
003485: 05,3506           70365                           MASK     IMODES30
003486: 05,3507           65641                           AD       PRIO15                                #  15000.
003487: 05,3510           54365                           TS       IMODES30
003488:
003489: 05,3511           43522                           CS       RFAILS2
003490: 05,3512           70412                           MASK     RADMODES
003491: 05,3513           67755                           AD       BIT7
003492: 05,3514           54412                           TS       RADMODES
003493:
003494: 05,3515           00003                           RELINT
003495:
003496: 05,3516           02001                           TC       DSPMM                                 #  REDISPLAY C(MODREG)
003497: 05,3517           05225                           TC       POSTJUMP                              #  TURN OFF KEY RLSE LIGHT (AND SEARCH LIST
003498: 05,3520           11333                           CADR     VBTERM                                #  IF APPROPRIATE).
003499:                                                                                                  #  TURN OFF V/N FLASH, SET LOADSTAT FOR
003500:                                                                                                  #  FOR TERMINATE CONDITION, AND TO TO
003501:                                                                                                  #  RECALTST. FINALLY DO TC ENDOFJOB.
003502:


003504: 05,3521           16001        13-11,1            OCT      16001
003505: 05,3522           00330        RFAILS2            OCT      330                                   #  RADAR CDU AND DATA FAIL FLAGS.
003506: 05,3523           55000        OCT55000           OCT      55000

End of include-file PINBALL_GAME__BUTTONS_AND_LIGHTS.agc.  Parent file is MAIN.agc


